{
  "_format": "hh-sol-artifact-1",
  "contractName": "LiquidityMiningReward",
  "sourceName": "contracts/LiquidityMiningReward.sol",
  "abi": [
    {
      "inputs": [
        {
          "internalType": "address",
          "name": "_incentiveDistributor",
          "type": "address"
        },
        {
          "internalType": "address",
          "name": "_stakeToken",
          "type": "address"
        },
        {
          "internalType": "uint256",
          "name": "startTimestamp",
          "type": "uint256"
        }
      ],
      "stateMutability": "nonpayable",
      "type": "constructor"
    },
    {
      "anonymous": false,
      "inputs": [
        {
          "indexed": true,
          "internalType": "address",
          "name": "previousOwner",
          "type": "address"
        },
        {
          "indexed": true,
          "internalType": "address",
          "name": "newOwner",
          "type": "address"
        }
      ],
      "name": "OwnershipTransferred",
      "type": "event"
    },
    {
      "inputs": [
        {
          "internalType": "address",
          "name": "",
          "type": "address"
        }
      ],
      "name": "claimIds",
      "outputs": [
        {
          "internalType": "uint256",
          "name": "",
          "type": "uint256"
        }
      ],
      "stateMutability": "view",
      "type": "function"
    },
    {
      "inputs": [
        {
          "internalType": "uint256",
          "name": "amount",
          "type": "uint256"
        }
      ],
      "name": "depositStake",
      "outputs": [],
      "stateMutability": "nonpayable",
      "type": "function"
    },
    {
      "inputs": [],
      "name": "incentiveStart",
      "outputs": [
        {
          "internalType": "uint256",
          "name": "",
          "type": "uint256"
        }
      ],
      "stateMutability": "view",
      "type": "function"
    },
    {
      "inputs": [
        {
          "internalType": "address",
          "name": "newDistributor",
          "type": "address"
        }
      ],
      "name": "migrateIncentiveDistributor",
      "outputs": [],
      "stateMutability": "nonpayable",
      "type": "function"
    },
    {
      "inputs": [],
      "name": "owner",
      "outputs": [
        {
          "internalType": "address",
          "name": "",
          "type": "address"
        }
      ],
      "stateMutability": "view",
      "type": "function"
    },
    {
      "inputs": [],
      "name": "renounceOwnership",
      "outputs": [],
      "stateMutability": "nonpayable",
      "type": "function"
    },
    {
      "inputs": [
        {
          "internalType": "address",
          "name": "",
          "type": "address"
        }
      ],
      "name": "stakeAmounts",
      "outputs": [
        {
          "internalType": "uint256",
          "name": "",
          "type": "uint256"
        }
      ],
      "stateMutability": "view",
      "type": "function"
    },
    {
      "inputs": [],
      "name": "stakeToken",
      "outputs": [
        {
          "internalType": "contract IERC20",
          "name": "",
          "type": "address"
        }
      ],
      "stateMutability": "view",
      "type": "function"
    },
    {
      "inputs": [
        {
          "internalType": "address",
          "name": "newOwner",
          "type": "address"
        }
      ],
      "name": "transferOwnership",
      "outputs": [],
      "stateMutability": "nonpayable",
      "type": "function"
    },
    {
      "inputs": [],
      "name": "withdrawReward",
      "outputs": [
        {
          "internalType": "uint256",
          "name": "",
          "type": "uint256"
        }
      ],
      "stateMutability": "nonpayable",
      "type": "function"
    },
    {
      "inputs": [
        {
          "internalType": "uint256",
          "name": "amount",
          "type": "uint256"
        }
      ],
      "name": "withdrawStake",
      "outputs": [],
      "stateMutability": "nonpayable",
      "type": "function"
    }
  ],
  "bytecode": "0x608060405234801561001057600080fd5b506040516112f73803806112f783398101604081905261002f916100db565b60006100396100bb565b600080546001600160a01b0319166001600160a01b0383169081178255604051929350917f8be0079c531659141344cd1fd0a4f28419497f9722a3daafe3b4186f6b6457e0908290a350600480546001600160a01b039485166001600160a01b0319918216179091556001805493909416921691909117909155600555610116565b3390565b80516001600160a01b03811681146100d657600080fd5b919050565b6000806000606084860312156100ef578283fd5b6100f8846100bf565b9250610106602085016100bf565b9150604084015190509250925092565b6111d2806101256000396000f3fe608060405234801561001057600080fd5b50600436106100c95760003560e01c8063c1a3b9fa11610081578063dc5c66f91161005b578063dc5c66f914610154578063e5afa56614610167578063f2fde38b1461017a576100c9565b8063c1a3b9fa14610124578063c885bc5814610139578063cb82cc8f14610141576100c9565b806351ed6a30116100b257806351ed6a30146100f6578063715018a6146101145780638da5cb5b1461011c576100c9565b806325d5971f146100ce5780634176edfa146100e3575b600080fd5b6100e16100dc366004610d36565b61018d565b005b6100e16100f1366004610ce2565b610371565b6100fe61042b565b60405161010b9190610d82565b60405180910390f35b6100e1610447565b6100fe610529565b61012c610545565b60405161010b9190611109565b61012c61054b565b6100e161014f366004610d36565b610642565b61012c610162366004610ce2565b610877565b61012c610175366004610ce2565b610889565b6100e1610188366004610ce2565b61089b565b33600090815260036020526040902054818110156101e0576040517f08c379a00000000000000000000000000000000000000000000000000000000081526004016101d790610eaa565b60405180910390fd5b6001546102049073ffffffffffffffffffffffffffffffffffffffff1633846109e8565b61020e828261112a565b33600090815260036020526040902055808214156102d35760048054336000908152600260205260408082205490517fc6de9d5d00000000000000000000000000000000000000000000000000000000815273ffffffffffffffffffffffffffffffffffffffff9093169363c6de9d5d9361028b93929101610e2b565b600060405180830381600087803b1580156102a557600080fd5b505af11580156102b9573d6000803e3d6000fd5b5050336000908152600260205260408120555061036d9050565b60048054336000908152600260205260408082205490517fa801671100000000000000000000000000000000000000000000000000000000815273ffffffffffffffffffffffffffffffffffffffff9093169363a80167119361033a939291889101610e3e565b600060405180830381600087803b15801561035457600080fd5b505af1158015610368573d6000803e3d6000fd5b505050505b5050565b610379610a8e565b73ffffffffffffffffffffffffffffffffffffffff16610397610529565b73ffffffffffffffffffffffffffffffffffffffff16146103e4576040517f08c379a00000000000000000000000000000000000000000000000000000000081526004016101d790611009565b600480547fffffffffffffffffffffffff00000000000000000000000000000000000000001673ffffffffffffffffffffffffffffffffffffffff92909216919091179055565b60015473ffffffffffffffffffffffffffffffffffffffff1681565b61044f610a8e565b73ffffffffffffffffffffffffffffffffffffffff1661046d610529565b73ffffffffffffffffffffffffffffffffffffffff16146104ba576040517f08c379a00000000000000000000000000000000000000000000000000000000081526004016101d790611009565b6000805460405173ffffffffffffffffffffffffffffffffffffffff909116907f8be0079c531659141344cd1fd0a4f28419497f9722a3daafe3b4186f6b6457e0908390a3600080547fffffffffffffffffffffffff0000000000000000000000000000000000000000169055565b60005473ffffffffffffffffffffffffffffffffffffffff1690565b60055481565b3360009081526002602052604081205480610592576040517f08c379a00000000000000000000000000000000000000000000000000000000081526004016101d790610fd2565b600480546040517fd56b105400000000000000000000000000000000000000000000000000000000815273ffffffffffffffffffffffffffffffffffffffff9091169163d56b1054916105ea91600091869101610e2b565b602060405180830381600087803b15801561060457600080fd5b505af1158015610618573d6000803e3d6000fd5b505050506040513d601f19601f8201168201806040525081019061063c9190610d4e565b91505090565b600554421161067d576040517f08c379a00000000000000000000000000000000000000000000000000000000081526004016101d790610f3e565b6001546106a29073ffffffffffffffffffffffffffffffffffffffff16333084610a92565b33600090815260026020526040902054156107555760048054336000908152600260205260408082205490517ff542808700000000000000000000000000000000000000000000000000000000815273ffffffffffffffffffffffffffffffffffffffff9093169363f54280879361071e939291879101610e3e565b600060405180830381600087803b15801561073857600080fd5b505af115801561074c573d6000803e3d6000fd5b50505050610850565b600480546040517f583d861600000000000000000000000000000000000000000000000000000000815260009273ffffffffffffffffffffffffffffffffffffffff9092169163583d8616916107b19185913391889101610dfa565b602060405180830381600087803b1580156107cb57600080fd5b505af11580156107df573d6000803e3d6000fd5b505050506040513d601f19601f820116820180604052508101906108039190610d4e565b33600090815260026020526040902081905590508061084e576040517f08c379a00000000000000000000000000000000000000000000000000000000081526004016101d79061103e565b505b336000908152600360205260408120805483929061086f908490611112565b909155505050565b60026020526000908152604090205481565b60036020526000908152604090205481565b6108a3610a8e565b73ffffffffffffffffffffffffffffffffffffffff166108c1610529565b73ffffffffffffffffffffffffffffffffffffffff161461090e576040517f08c379a00000000000000000000000000000000000000000000000000000000081526004016101d790611009565b73ffffffffffffffffffffffffffffffffffffffff811661095b576040517f08c379a00000000000000000000000000000000000000000000000000000000081526004016101d790610ee1565b6000805460405173ffffffffffffffffffffffffffffffffffffffff808516939216917f8be0079c531659141344cd1fd0a4f28419497f9722a3daafe3b4186f6b6457e091a3600080547fffffffffffffffffffffffff00000000000000000000000000000000000000001673ffffffffffffffffffffffffffffffffffffffff92909216919091179055565b610a898363a9059cbb60e01b8484604051602401610a07929190610dd4565b604080517fffffffffffffffffffffffffffffffffffffffffffffffffffffffffffffffe08184030181529190526020810180517bffffffffffffffffffffffffffffffffffffffffffffffffffffffff167fffffffff0000000000000000000000000000000000000000000000000000000090931692909217909152610ab9565b505050565b3390565b610ab3846323b872dd60e01b858585604051602401610a0793929190610da3565b50505050565b6000610b1b826040518060400160405280602081526020017f5361666545524332303a206c6f772d6c6576656c2063616c6c206661696c65648152508573ffffffffffffffffffffffffffffffffffffffff16610b6f9092919063ffffffff16565b805190915015610a895780806020019051810190610b399190610d16565b610a89576040517f08c379a00000000000000000000000000000000000000000000000000000000081526004016101d7906110ac565b6060610b7e8484600085610b88565b90505b9392505050565b606082471015610bc4576040517f08c379a00000000000000000000000000000000000000000000000000000000081526004016101d790610f75565b610bcd85610c89565b610c03576040517f08c379a00000000000000000000000000000000000000000000000000000000081526004016101d790611075565b6000808673ffffffffffffffffffffffffffffffffffffffff168587604051610c2c9190610d66565b60006040518083038185875af1925050503d8060008114610c69576040519150601f19603f3d011682016040523d82523d6000602084013e610c6e565b606091505b5091509150610c7e828286610c8f565b979650505050505050565b3b151590565b60608315610c9e575081610b81565b825115610cae5782518084602001fd5b816040517f08c379a00000000000000000000000000000000000000000000000000000000081526004016101d79190610e59565b600060208284031215610cf3578081fd5b813573ffffffffffffffffffffffffffffffffffffffff81168114610b81578182fd5b600060208284031215610d27578081fd5b81518015158114610b81578182fd5b600060208284031215610d47578081fd5b5035919050565b600060208284031215610d5f578081fd5b5051919050565b60008251610d78818460208701611141565b9190910192915050565b73ffffffffffffffffffffffffffffffffffffffff91909116815260200190565b73ffffffffffffffffffffffffffffffffffffffff9384168152919092166020820152604081019190915260600190565b73ffffffffffffffffffffffffffffffffffffffff929092168252602082015260400190565b60ff93909316835273ffffffffffffffffffffffffffffffffffffffff919091166020830152604082015260600190565b60ff929092168252602082015260400190565b60ff9390931683526020830191909152604082015260600190565b6000602082528251806020840152610e78816040850160208701611141565b601f017fffffffffffffffffffffffffffffffffffffffffffffffffffffffffffffffe0169190910160400192915050565b6020808252601c908201527f4e6f7420656e6f756768207374616b6520746f20776974686472617700000000604082015260600190565b60208082526026908201527f4f776e61626c653a206e6577206f776e657220697320746865207a65726f206160408201527f6464726573730000000000000000000000000000000000000000000000000000606082015260800190565b6020808252601c908201527f496e63656e74697665206861736e277420737461727465642079657400000000604082015260600190565b60208082526026908201527f416464726573733a20696e73756666696369656e742062616c616e636520666f60408201527f722063616c6c0000000000000000000000000000000000000000000000000000606082015260800190565b60208082526013908201527f4e6f207265676973746572656420636c61696d00000000000000000000000000604082015260600190565b6020808252818101527f4f776e61626c653a2063616c6c6572206973206e6f7420746865206f776e6572604082015260600190565b6020808252601e908201527f446973747269627574696f6e206973206f766572206f72207061757365640000604082015260600190565b6020808252601d908201527f416464726573733a2063616c6c20746f206e6f6e2d636f6e7472616374000000604082015260600190565b6020808252602a908201527f5361666545524332303a204552433230206f7065726174696f6e20646964206e60408201527f6f74207375636365656400000000000000000000000000000000000000000000606082015260800190565b90815260200190565b600082198211156111255761112561116d565b500190565b60008282101561113c5761113c61116d565b500390565b60005b8381101561115c578181015183820152602001611144565b83811115610ab35750506000910152565b7f4e487b7100000000000000000000000000000000000000000000000000000000600052601160045260246000fdfea26469706673582212200e6c31d8f55d535acbfc282fc963c81f947c3136624ef1e3a29aa9001c0f911f64736f6c63430008010033",
  "linkReferences": {},
  "deployedLinkReferences": {}
}