{
  "_format": "hh-sol-artifact-1",
  "contractName": "LiquidityMiningReward",
  "sourceName": "contracts/LiquidityMiningReward.sol",
  "abi": [
    {
      "inputs": [
        {
          "internalType": "address",
          "name": "_incentiveDistributor",
          "type": "address"
        },
        {
          "internalType": "address",
          "name": "_stakeToken",
          "type": "address"
        },
        {
          "internalType": "uint256",
          "name": "startTimestamp",
          "type": "uint256"
        }
      ],
      "stateMutability": "nonpayable",
      "type": "constructor"
    },
    {
      "inputs": [
        {
          "internalType": "address",
          "name": "",
          "type": "address"
        }
      ],
      "name": "claimIds",
      "outputs": [
        {
          "internalType": "uint256",
          "name": "",
          "type": "uint256"
        }
      ],
      "stateMutability": "view",
      "type": "function"
    },
    {
      "inputs": [
        {
          "internalType": "uint256",
          "name": "amount",
          "type": "uint256"
        }
      ],
      "name": "depositStake",
      "outputs": [],
      "stateMutability": "nonpayable",
      "type": "function"
    },
    {
      "inputs": [],
      "name": "incentiveStart",
      "outputs": [
        {
          "internalType": "uint256",
          "name": "",
          "type": "uint256"
        }
      ],
      "stateMutability": "view",
      "type": "function"
    },
    {
      "inputs": [
        {
          "internalType": "address",
          "name": "",
          "type": "address"
        }
      ],
      "name": "stakeAmounts",
      "outputs": [
        {
          "internalType": "uint256",
          "name": "",
          "type": "uint256"
        }
      ],
      "stateMutability": "view",
      "type": "function"
    },
    {
      "inputs": [],
      "name": "stakeToken",
      "outputs": [
        {
          "internalType": "contract IERC20",
          "name": "",
          "type": "address"
        }
      ],
      "stateMutability": "view",
      "type": "function"
    },
    {
      "inputs": [],
      "name": "withdrawStake",
      "outputs": [],
      "stateMutability": "nonpayable",
      "type": "function"
    }
  ],
  "bytecode": "0x60806040523480156200001157600080fd5b5060405162001300380380620013008339818101604052810190620000379190620000f6565b82600360006101000a81548173ffffffffffffffffffffffffffffffffffffffff021916908373ffffffffffffffffffffffffffffffffffffffff160217905550816000806101000a81548173ffffffffffffffffffffffffffffffffffffffff021916908373ffffffffffffffffffffffffffffffffffffffff16021790555080600481905550505050620001be565b600081519050620000d9816200018a565b92915050565b600081519050620000f081620001a4565b92915050565b6000806000606084860312156200010c57600080fd5b60006200011c86828701620000c8565b93505060206200012f86828701620000c8565b92505060406200014286828701620000df565b9150509250925092565b6000620001598262000160565b9050919050565b600073ffffffffffffffffffffffffffffffffffffffff82169050919050565b6000819050919050565b62000195816200014c565b8114620001a157600080fd5b50565b620001af8162000180565b8114620001bb57600080fd5b50565b61113280620001ce6000396000f3fe608060405234801561001057600080fd5b50600436106100625760003560e01c806351ed6a3014610067578063bed9d86114610085578063c1a3b9fa1461008f578063cb82cc8f146100ad578063dc5c66f9146100c9578063e5afa566146100f9575b600080fd5b61006f610129565b60405161007c9190610cd2565b60405180910390f35b61008d61014d565b005b61009761037b565b6040516100a49190610e26565b60405180910390f35b6100c760048036038101906100c29190610ad7565b610381565b005b6100e360048036038101906100de9190610a85565b610685565b6040516100f09190610e26565b60405180910390f35b610113600480360381019061010e9190610a85565b61069d565b6040516101209190610e26565b60405180910390f35b60008054906101000a900473ffffffffffffffffffffffffffffffffffffffff1681565b6000600260003373ffffffffffffffffffffffffffffffffffffffff1673ffffffffffffffffffffffffffffffffffffffff1681526020019081526020016000205411156103795761021f33600260003373ffffffffffffffffffffffffffffffffffffffff1673ffffffffffffffffffffffffffffffffffffffff1681526020019081526020016000205460008054906101000a900473ffffffffffffffffffffffffffffffffffffffff1673ffffffffffffffffffffffffffffffffffffffff166106b59092919063ffffffff16565b6000600260003373ffffffffffffffffffffffffffffffffffffffff1673ffffffffffffffffffffffffffffffffffffffff16815260200190815260200160002081905550600360009054906101000a900473ffffffffffffffffffffffffffffffffffffffff1673ffffffffffffffffffffffffffffffffffffffff1663c6de9d5d6000600160003373ffffffffffffffffffffffffffffffffffffffff1673ffffffffffffffffffffffffffffffffffffffff168152602001908152602001600020546040518363ffffffff1660e01b8152600401610301929190610d24565b600060405180830381600087803b15801561031b57600080fd5b505af115801561032f573d6000803e3d6000fd5b505050506000600160003373ffffffffffffffffffffffffffffffffffffffff1673ffffffffffffffffffffffffffffffffffffffff168152602001908152602001600020819055505b565b60045481565b60045442116103c5576040517f08c379a00000000000000000000000000000000000000000000000000000000081526004016103bc90610da6565b60405180910390fd5b61041233308360008054906101000a900473ffffffffffffffffffffffffffffffffffffffff1673ffffffffffffffffffffffffffffffffffffffff1661073b909392919063ffffffff16565b6000600160003373ffffffffffffffffffffffffffffffffffffffff1673ffffffffffffffffffffffffffffffffffffffff16815260200190815260200160002054111561053057600360009054906101000a900473ffffffffffffffffffffffffffffffffffffffff1673ffffffffffffffffffffffffffffffffffffffff1663f54280876000600160003373ffffffffffffffffffffffffffffffffffffffff1673ffffffffffffffffffffffffffffffffffffffff16815260200190815260200160002054846040518463ffffffff1660e01b81526004016104f993929190610d4d565b600060405180830381600087803b15801561051357600080fd5b505af1158015610527573d6000803e3d6000fd5b5050505061062c565b6000600360009054906101000a900473ffffffffffffffffffffffffffffffffffffffff1673ffffffffffffffffffffffffffffffffffffffff1663583d8616600033856040518463ffffffff1660e01b815260040161059293929190610ced565b602060405180830381600087803b1580156105ac57600080fd5b505af11580156105c0573d6000803e3d6000fd5b505050506040513d601f19601f820116820180604052508101906105e49190610b00565b905080600160003373ffffffffffffffffffffffffffffffffffffffff1673ffffffffffffffffffffffffffffffffffffffff16815260200190815260200160002081905550505b80600260003373ffffffffffffffffffffffffffffffffffffffff1673ffffffffffffffffffffffffffffffffffffffff168152602001908152602001600020600082825461067b9190610e73565b9250508190555050565b60016020528060005260406000206000915090505481565b60026020528060005260406000206000915090505481565b6107368363a9059cbb60e01b84846040516024016106d4929190610ca9565b604051602081830303815290604052907bffffffffffffffffffffffffffffffffffffffffffffffffffffffff19166020820180517bffffffffffffffffffffffffffffffffffffffffffffffffffffffff83818316178352505050506107c4565b505050565b6107be846323b872dd60e01b85858560405160240161075c93929190610c72565b604051602081830303815290604052907bffffffffffffffffffffffffffffffffffffffffffffffffffffffff19166020820180517bffffffffffffffffffffffffffffffffffffffffffffffffffffffff83818316178352505050506107c4565b50505050565b6000610826826040518060400160405280602081526020017f5361666545524332303a206c6f772d6c6576656c2063616c6c206661696c65648152508573ffffffffffffffffffffffffffffffffffffffff1661088b9092919063ffffffff16565b905060008151111561088657808060200190518101906108469190610aae565b610885576040517f08c379a000000000000000000000000000000000000000000000000000000000815260040161087c90610e06565b60405180910390fd5b5b505050565b606061089a84846000856108a3565b90509392505050565b6060824710156108e8576040517f08c379a00000000000000000000000000000000000000000000000000000000081526004016108df90610dc6565b60405180910390fd5b6108f1856109b7565b610930576040517f08c379a000000000000000000000000000000000000000000000000000000000815260040161092790610de6565b60405180910390fd5b6000808673ffffffffffffffffffffffffffffffffffffffff1685876040516109599190610c5b565b60006040518083038185875af1925050503d8060008114610996576040519150601f19603f3d011682016040523d82523d6000602084013e61099b565b606091505b50915091506109ab8282866109ca565b92505050949350505050565b600080823b905060008111915050919050565b606083156109da57829050610a2a565b6000835111156109ed5782518084602001fd5b816040517f08c379a0000000000000000000000000000000000000000000000000000000008152600401610a219190610d84565b60405180910390fd5b9392505050565b600081359050610a40816110b7565b92915050565b600081519050610a55816110ce565b92915050565b600081359050610a6a816110e5565b92915050565b600081519050610a7f816110e5565b92915050565b600060208284031215610a9757600080fd5b6000610aa584828501610a31565b91505092915050565b600060208284031215610ac057600080fd5b6000610ace84828501610a46565b91505092915050565b600060208284031215610ae957600080fd5b6000610af784828501610a5b565b91505092915050565b600060208284031215610b1257600080fd5b6000610b2084828501610a70565b91505092915050565b610b3281610ec9565b82525050565b6000610b4382610e41565b610b4d8185610e57565b9350610b5d818560208601610f54565b80840191505092915050565b610b7281610f1e565b82525050565b610b8181610f42565b82525050565b6000610b9282610e4c565b610b9c8185610e62565b9350610bac818560208601610f54565b610bb581610fb6565b840191505092915050565b6000610bcd601c83610e62565b9150610bd882610fc7565b602082019050919050565b6000610bf0602683610e62565b9150610bfb82610ff0565b604082019050919050565b6000610c13601d83610e62565b9150610c1e8261103f565b602082019050919050565b6000610c36602a83610e62565b9150610c4182611068565b604082019050919050565b610c5581610f07565b82525050565b6000610c678284610b38565b915081905092915050565b6000606082019050610c876000830186610b29565b610c946020830185610b29565b610ca16040830184610c4c565b949350505050565b6000604082019050610cbe6000830185610b29565b610ccb6020830184610c4c565b9392505050565b6000602082019050610ce76000830184610b69565b92915050565b6000606082019050610d026000830186610b78565b610d0f6020830185610b29565b610d1c6040830184610c4c565b949350505050565b6000604082019050610d396000830185610b78565b610d466020830184610c4c565b9392505050565b6000606082019050610d626000830186610b78565b610d6f6020830185610c4c565b610d7c6040830184610c4c565b949350505050565b60006020820190508181036000830152610d9e8184610b87565b905092915050565b60006020820190508181036000830152610dbf81610bc0565b9050919050565b60006020820190508181036000830152610ddf81610be3565b9050919050565b60006020820190508181036000830152610dff81610c06565b9050919050565b60006020820190508181036000830152610e1f81610c29565b9050919050565b6000602082019050610e3b6000830184610c4c565b92915050565b600081519050919050565b600081519050919050565b600081905092915050565b600082825260208201905092915050565b6000610e7e82610f07565b9150610e8983610f07565b9250827fffffffffffffffffffffffffffffffffffffffffffffffffffffffffffffffff03821115610ebe57610ebd610f87565b5b828201905092915050565b6000610ed482610ee7565b9050919050565b60008115159050919050565b600073ffffffffffffffffffffffffffffffffffffffff82169050919050565b6000819050919050565b600060ff82169050919050565b6000610f2982610f30565b9050919050565b6000610f3b82610ee7565b9050919050565b6000610f4d82610f11565b9050919050565b60005b83811015610f72578082015181840152602081019050610f57565b83811115610f81576000848401525b50505050565b7f4e487b7100000000000000000000000000000000000000000000000000000000600052601160045260246000fd5b6000601f19601f8301169050919050565b7f496e63656e74697665206861736e277420737461727465642079657400000000600082015250565b7f416464726573733a20696e73756666696369656e742062616c616e636520666f60008201527f722063616c6c0000000000000000000000000000000000000000000000000000602082015250565b7f416464726573733a2063616c6c20746f206e6f6e2d636f6e7472616374000000600082015250565b7f5361666545524332303a204552433230206f7065726174696f6e20646964206e60008201527f6f74207375636365656400000000000000000000000000000000000000000000602082015250565b6110c081610ec9565b81146110cb57600080fd5b50565b6110d781610edb565b81146110e257600080fd5b50565b6110ee81610f07565b81146110f957600080fd5b5056fea2646970667358221220d112efb8ff54a434ed808e6175f5c7cbf73ff7fa3efdbb78f3ba9b0c285e23e364736f6c63430008010033",
  "linkReferences": {},
  "deployedLinkReferences": {}
}