{
  "_format": "hh-sol-artifact-1",
  "contractName": "LiquidityMiningReward",
  "sourceName": "contracts/LiquidityMiningReward.sol",
  "abi": [
    {
      "inputs": [
        {
          "internalType": "address",
          "name": "_incentiveDistributor",
          "type": "address"
        },
        {
          "internalType": "address",
          "name": "_stakeToken",
          "type": "address"
        },
        {
          "internalType": "uint256",
          "name": "startTimestamp",
          "type": "uint256"
        }
      ],
      "stateMutability": "nonpayable",
      "type": "constructor"
    },
    {
      "inputs": [
        {
          "internalType": "address",
          "name": "",
          "type": "address"
        }
      ],
      "name": "claimIds",
      "outputs": [
        {
          "internalType": "uint256",
          "name": "",
          "type": "uint256"
        }
      ],
      "stateMutability": "view",
      "type": "function"
    },
    {
      "inputs": [
        {
          "internalType": "uint256",
          "name": "amount",
          "type": "uint256"
        }
      ],
      "name": "depositStake",
      "outputs": [],
      "stateMutability": "nonpayable",
      "type": "function"
    },
    {
      "inputs": [],
      "name": "incentiveStart",
      "outputs": [
        {
          "internalType": "uint256",
          "name": "",
          "type": "uint256"
        }
      ],
      "stateMutability": "view",
      "type": "function"
    },
    {
      "inputs": [
        {
          "internalType": "address",
          "name": "",
          "type": "address"
        }
      ],
      "name": "stakeAmounts",
      "outputs": [
        {
          "internalType": "uint256",
          "name": "",
          "type": "uint256"
        }
      ],
      "stateMutability": "view",
      "type": "function"
    },
    {
      "inputs": [],
      "name": "stakeToken",
      "outputs": [
        {
          "internalType": "contract IERC20",
          "name": "",
          "type": "address"
        }
      ],
      "stateMutability": "view",
      "type": "function"
    },
    {
      "inputs": [],
      "name": "withdrawStake",
      "outputs": [],
      "stateMutability": "nonpayable",
      "type": "function"
    }
  ],
  "bytecode": "0x608060405234801561001057600080fd5b50604051610b91380380610b9183398101604081905261002f91610083565b600380546001600160a01b039485166001600160a01b03199182161790915560008054939094169216919091179091556004556100be565b80516001600160a01b038116811461007e57600080fd5b919050565b600080600060608486031215610097578283fd5b6100a084610067565b92506100ae60208501610067565b9150604084015190509250925092565b610ac4806100cd6000396000f3fe608060405234801561001057600080fd5b50600436106100725760003560e01c8063cb82cc8f11610050578063cb82cc8f146100b4578063dc5c66f9146100c7578063e5afa566146100da57610072565b806351ed6a3014610077578063bed9d86114610095578063c1a3b9fa1461009f575b600080fd5b61007f6100ed565b60405161008c9190610823565b60405180910390f35b61009d610109565b005b6100a7610209565b60405161008c9190610a1c565b61009d6100c2366004610780565b61020f565b6100a76100d536600461072c565b610412565b6100a76100e836600461072c565b610424565b60005473ffffffffffffffffffffffffffffffffffffffff1681565b3360009081526002602052604090205415610207573360008181526002602052604081205490546101529273ffffffffffffffffffffffffffffffffffffffff90911691610436565b33600090815260026020908152604080832083905560035460019092528083205490517fc6de9d5d00000000000000000000000000000000000000000000000000000000815273ffffffffffffffffffffffffffffffffffffffff9092169263c6de9d5d926101c49290600401610875565b600060405180830381600087803b1580156101de57600080fd5b505af11580156101f2573d6000803e3d6000fd5b50503360009081526001602052604081205550505b565b60045481565b6004544211610253576040517f08c379a000000000000000000000000000000000000000000000000000000000815260040161024a906108f4565b60405180910390fd5b6000546102789073ffffffffffffffffffffffffffffffffffffffff163330846104dc565b336000908152600160205260409020541561032c57600354336000908152600160205260408082205490517ff542808700000000000000000000000000000000000000000000000000000000815273ffffffffffffffffffffffffffffffffffffffff9093169263f5428087926102f59290918690600401610888565b600060405180830381600087803b15801561030f57600080fd5b505af1158015610323573d6000803e3d6000fd5b505050506103eb565b6003546040517f583d861600000000000000000000000000000000000000000000000000000000815260009173ffffffffffffffffffffffffffffffffffffffff169063583d86169061038790849033908790600401610844565b602060405180830381600087803b1580156103a157600080fd5b505af11580156103b5573d6000803e3d6000fd5b505050506040513d601f19601f820116820180604052508101906103d99190610798565b33600090815260016020526040902055505b336000908152600260205260408120805483929061040a908490610a25565b909155505050565b60016020526000908152604090205481565b60026020526000908152604090205481565b6104d78363a9059cbb60e01b84846040516024016104559291906107fd565b604080517fffffffffffffffffffffffffffffffffffffffffffffffffffffffffffffffe08184030181529190526020810180517bffffffffffffffffffffffffffffffffffffffffffffffffffffffff167fffffffff0000000000000000000000000000000000000000000000000000000090931692909217909152610503565b505050565b6104fd846323b872dd60e01b858585604051602401610455939291906107cc565b50505050565b6000610565826040518060400160405280602081526020017f5361666545524332303a206c6f772d6c6576656c2063616c6c206661696c65648152508573ffffffffffffffffffffffffffffffffffffffff166105b99092919063ffffffff16565b8051909150156104d757808060200190518101906105839190610760565b6104d7576040517f08c379a000000000000000000000000000000000000000000000000000000000815260040161024a906109bf565b60606105c884846000856105d2565b90505b9392505050565b60608247101561060e576040517f08c379a000000000000000000000000000000000000000000000000000000000815260040161024a9061092b565b610617856106d3565b61064d576040517f08c379a000000000000000000000000000000000000000000000000000000000815260040161024a90610988565b6000808673ffffffffffffffffffffffffffffffffffffffff16858760405161067691906107b0565b60006040518083038185875af1925050503d80600081146106b3576040519150601f19603f3d011682016040523d82523d6000602084013e6106b8565b606091505b50915091506106c88282866106d9565b979650505050505050565b3b151590565b606083156106e85750816105cb565b8251156106f85782518084602001fd5b816040517f08c379a000000000000000000000000000000000000000000000000000000000815260040161024a91906108a3565b60006020828403121561073d578081fd5b813573ffffffffffffffffffffffffffffffffffffffff811681146105cb578182fd5b600060208284031215610771578081fd5b815180151581146105cb578182fd5b600060208284031215610791578081fd5b5035919050565b6000602082840312156107a9578081fd5b5051919050565b600082516107c2818460208701610a62565b9190910192915050565b73ffffffffffffffffffffffffffffffffffffffff9384168152919092166020820152604081019190915260600190565b73ffffffffffffffffffffffffffffffffffffffff929092168252602082015260400190565b73ffffffffffffffffffffffffffffffffffffffff91909116815260200190565b60ff93909316835273ffffffffffffffffffffffffffffffffffffffff919091166020830152604082015260600190565b60ff929092168252602082015260400190565b60ff9390931683526020830191909152604082015260600190565b60006020825282518060208401526108c2816040850160208701610a62565b601f017fffffffffffffffffffffffffffffffffffffffffffffffffffffffffffffffe0169190910160400192915050565b6020808252601c908201527f496e63656e74697665206861736e277420737461727465642079657400000000604082015260600190565b60208082526026908201527f416464726573733a20696e73756666696369656e742062616c616e636520666f60408201527f722063616c6c0000000000000000000000000000000000000000000000000000606082015260800190565b6020808252601d908201527f416464726573733a2063616c6c20746f206e6f6e2d636f6e7472616374000000604082015260600190565b6020808252602a908201527f5361666545524332303a204552433230206f7065726174696f6e20646964206e60408201527f6f74207375636365656400000000000000000000000000000000000000000000606082015260800190565b90815260200190565b60008219821115610a5d577f4e487b710000000000000000000000000000000000000000000000000000000081526011600452602481fd5b500190565b60005b83811015610a7d578181015183820152602001610a65565b838111156104fd575050600091015256fea2646970667358221220a307ff603b3c7e8b4be8511ac0236ddbf2a7364bcd9ae9c09361f02176d319eb64736f6c63430008010033",
  "linkReferences": {},
  "deployedLinkReferences": {}
}