{
  "_format": "hh-sol-artifact-1",
  "contractName": "LiquidityMiningReward",
  "sourceName": "contracts/LiquidityMiningReward.sol",
  "abi": [
    {
      "inputs": [
        {
          "internalType": "address",
          "name": "_incentiveDistributor",
          "type": "address"
        },
        {
          "internalType": "address",
          "name": "_stakeToken",
          "type": "address"
        },
        {
          "internalType": "uint256",
          "name": "startTimestamp",
          "type": "uint256"
        }
      ],
      "stateMutability": "nonpayable",
      "type": "constructor"
    },
    {
      "inputs": [
        {
          "internalType": "address",
          "name": "",
          "type": "address"
        }
      ],
      "name": "claimIds",
      "outputs": [
        {
          "internalType": "uint256",
          "name": "",
          "type": "uint256"
        }
      ],
      "stateMutability": "view",
      "type": "function"
    },
    {
      "inputs": [
        {
          "internalType": "uint256",
          "name": "amount",
          "type": "uint256"
        }
      ],
      "name": "depositStake",
      "outputs": [],
      "stateMutability": "nonpayable",
      "type": "function"
    },
    {
      "inputs": [],
      "name": "incentiveStart",
      "outputs": [
        {
          "internalType": "uint256",
          "name": "",
          "type": "uint256"
        }
      ],
      "stateMutability": "view",
      "type": "function"
    },
    {
      "inputs": [
        {
          "internalType": "address",
          "name": "",
          "type": "address"
        }
      ],
      "name": "stakeAmounts",
      "outputs": [
        {
          "internalType": "uint256",
          "name": "",
          "type": "uint256"
        }
      ],
      "stateMutability": "view",
      "type": "function"
    },
    {
      "inputs": [],
      "name": "stakeToken",
      "outputs": [
        {
          "internalType": "contract IERC20",
          "name": "",
          "type": "address"
        }
      ],
      "stateMutability": "view",
      "type": "function"
    },
    {
      "inputs": [],
      "name": "withdrawReward",
      "outputs": [
        {
          "internalType": "uint256",
          "name": "",
          "type": "uint256"
        }
      ],
      "stateMutability": "nonpayable",
      "type": "function"
    },
    {
      "inputs": [
        {
          "internalType": "uint256",
          "name": "amount",
          "type": "uint256"
        }
      ],
      "name": "withdrawStake",
      "outputs": [],
      "stateMutability": "nonpayable",
      "type": "function"
    }
  ],
  "bytecode": "0x608060405234801561001057600080fd5b50604051610e85380380610e8583398101604081905261002f91610083565b600380546001600160a01b039485166001600160a01b03199182161790915560008054939094169216919091179091556004556100be565b80516001600160a01b038116811461007e57600080fd5b919050565b600080600060608486031215610097578283fd5b6100a084610067565b92506100ae60208501610067565b9150604084015190509250925092565b610db8806100cd6000396000f3fe608060405234801561001057600080fd5b506004361061007d5760003560e01c8063c885bc581161005b578063c885bc58146100ca578063cb82cc8f146100d2578063dc5c66f9146100e5578063e5afa566146100f85761007d565b806325d5971f1461008257806351ed6a3014610097578063c1a3b9fa146100b5575b600080fd5b6100956100903660046109ae565b61010b565b005b61009f6102f1565b6040516100ac9190610a51565b60405180910390f35b6100bd61030d565b6040516100ac9190610cef565b6100bd610313565b6100956100e03660046109ae565b61040b565b6100bd6100f336600461095a565b610640565b6100bd61010636600461095a565b610652565b336000908152600260205260409020548181101561015e576040517f08c379a000000000000000000000000000000000000000000000000000000000815260040161015590610b22565b60405180910390fd5b6000546101829073ffffffffffffffffffffffffffffffffffffffff163384610664565b61018c8282610d10565b336000908152600260205260409020558082141561025257600354336000908152600160205260408082205490517fc6de9d5d00000000000000000000000000000000000000000000000000000000815273ffffffffffffffffffffffffffffffffffffffff9093169263c6de9d5d9261020a929091600401610aa3565b600060405180830381600087803b15801561022457600080fd5b505af1158015610238573d6000803e3d6000fd5b505033600090815260016020526040812055506102ed9050565b600354336000908152600160205260408082205490517fa801671100000000000000000000000000000000000000000000000000000000815273ffffffffffffffffffffffffffffffffffffffff9093169263a8016711926102ba9290918790600401610ab6565b600060405180830381600087803b1580156102d457600080fd5b505af11580156102e8573d6000803e3d6000fd5b505050505b5050565b60005473ffffffffffffffffffffffffffffffffffffffff1681565b60045481565b336000908152600160205260408120548061035a576040517f08c379a000000000000000000000000000000000000000000000000000000000815260040161015590610bed565b6003546040517fd56b105400000000000000000000000000000000000000000000000000000000815273ffffffffffffffffffffffffffffffffffffffff9091169063d56b1054906103b3906000908590600401610aa3565b602060405180830381600087803b1580156103cd57600080fd5b505af11580156103e1573d6000803e3d6000fd5b505050506040513d601f19601f8201168201806040525081019061040591906109c6565b91505090565b6004544211610446576040517f08c379a000000000000000000000000000000000000000000000000000000000815260040161015590610b59565b60005461046b9073ffffffffffffffffffffffffffffffffffffffff1633308461070a565b336000908152600160205260409020541561051f57600354336000908152600160205260408082205490517ff542808700000000000000000000000000000000000000000000000000000000815273ffffffffffffffffffffffffffffffffffffffff9093169263f5428087926104e89290918690600401610ab6565b600060405180830381600087803b15801561050257600080fd5b505af1158015610516573d6000803e3d6000fd5b50505050610619565b6003546040517f583d861600000000000000000000000000000000000000000000000000000000815260009173ffffffffffffffffffffffffffffffffffffffff169063583d86169061057a90849033908790600401610a72565b602060405180830381600087803b15801561059457600080fd5b505af11580156105a8573d6000803e3d6000fd5b505050506040513d601f19601f820116820180604052508101906105cc91906109c6565b336000908152600160205260409020819055905080610617576040517f08c379a000000000000000000000000000000000000000000000000000000000815260040161015590610c24565b505b3360009081526002602052604081208054839290610638908490610cf8565b909155505050565b60016020526000908152604090205481565b60026020526000908152604090205481565b6107058363a9059cbb60e01b8484604051602401610683929190610a2b565b604080517fffffffffffffffffffffffffffffffffffffffffffffffffffffffffffffffe08184030181529190526020810180517bffffffffffffffffffffffffffffffffffffffffffffffffffffffff167fffffffff0000000000000000000000000000000000000000000000000000000090931692909217909152610731565b505050565b61072b846323b872dd60e01b858585604051602401610683939291906109fa565b50505050565b6000610793826040518060400160405280602081526020017f5361666545524332303a206c6f772d6c6576656c2063616c6c206661696c65648152508573ffffffffffffffffffffffffffffffffffffffff166107e79092919063ffffffff16565b80519091501561070557808060200190518101906107b1919061098e565b610705576040517f08c379a000000000000000000000000000000000000000000000000000000000815260040161015590610c92565b60606107f68484600085610800565b90505b9392505050565b60608247101561083c576040517f08c379a000000000000000000000000000000000000000000000000000000000815260040161015590610b90565b61084585610901565b61087b576040517f08c379a000000000000000000000000000000000000000000000000000000000815260040161015590610c5b565b6000808673ffffffffffffffffffffffffffffffffffffffff1685876040516108a491906109de565b60006040518083038185875af1925050503d80600081146108e1576040519150601f19603f3d011682016040523d82523d6000602084013e6108e6565b606091505b50915091506108f6828286610907565b979650505050505050565b3b151590565b606083156109165750816107f9565b8251156109265782518084602001fd5b816040517f08c379a00000000000000000000000000000000000000000000000000000000081526004016101559190610ad1565b60006020828403121561096b578081fd5b813573ffffffffffffffffffffffffffffffffffffffff811681146107f9578182fd5b60006020828403121561099f578081fd5b815180151581146107f9578182fd5b6000602082840312156109bf578081fd5b5035919050565b6000602082840312156109d7578081fd5b5051919050565b600082516109f0818460208701610d27565b9190910192915050565b73ffffffffffffffffffffffffffffffffffffffff9384168152919092166020820152604081019190915260600190565b73ffffffffffffffffffffffffffffffffffffffff929092168252602082015260400190565b73ffffffffffffffffffffffffffffffffffffffff91909116815260200190565b60ff93909316835273ffffffffffffffffffffffffffffffffffffffff919091166020830152604082015260600190565b60ff929092168252602082015260400190565b60ff9390931683526020830191909152604082015260600190565b6000602082528251806020840152610af0816040850160208701610d27565b601f017fffffffffffffffffffffffffffffffffffffffffffffffffffffffffffffffe0169190910160400192915050565b6020808252601c908201527f4e6f7420656e6f756768207374616b6520746f20776974686472617700000000604082015260600190565b6020808252601c908201527f496e63656e74697665206861736e277420737461727465642079657400000000604082015260600190565b60208082526026908201527f416464726573733a20696e73756666696369656e742062616c616e636520666f60408201527f722063616c6c0000000000000000000000000000000000000000000000000000606082015260800190565b60208082526013908201527f4e6f207265676973746572656420636c61696d00000000000000000000000000604082015260600190565b6020808252601e908201527f446973747269627574696f6e206973206f766572206f72207061757365640000604082015260600190565b6020808252601d908201527f416464726573733a2063616c6c20746f206e6f6e2d636f6e7472616374000000604082015260600190565b6020808252602a908201527f5361666545524332303a204552433230206f7065726174696f6e20646964206e60408201527f6f74207375636365656400000000000000000000000000000000000000000000606082015260800190565b90815260200190565b60008219821115610d0b57610d0b610d53565b500190565b600082821015610d2257610d22610d53565b500390565b60005b83811015610d42578181015183820152602001610d2a565b8381111561072b5750506000910152565b7f4e487b7100000000000000000000000000000000000000000000000000000000600052601160045260246000fdfea2646970667358221220a64f8724cde758df89a970eea771200a78f54329b60a2a2f493361f91294aa8664736f6c63430008010033",
  "linkReferences": {},
  "deployedLinkReferences": {}
}