{
  "_format": "hh-sol-artifact-1",
  "contractName": "IncentiveDistribution",
  "sourceName": "contracts/IncentiveDistribution.sol",
  "abi": [
    {
      "inputs": [
        {
          "internalType": "address",
          "name": "_MFI",
          "type": "address"
        },
        {
          "internalType": "uint256",
          "name": "startingDailyDistributionWithoutDecimals",
          "type": "uint256"
        },
        {
          "internalType": "address",
          "name": "_roles",
          "type": "address"
        }
      ],
      "stateMutability": "nonpayable",
      "type": "constructor"
    },
    {
      "anonymous": false,
      "inputs": [
        {
          "indexed": true,
          "internalType": "address",
          "name": "previousOwner",
          "type": "address"
        },
        {
          "indexed": true,
          "internalType": "address",
          "name": "newOwner",
          "type": "address"
        }
      ],
      "name": "OwnershipTransferred",
      "type": "event"
    },
    {
      "inputs": [],
      "name": "AUTHORIZED_FUND_TRADER",
      "outputs": [
        {
          "internalType": "uint16",
          "name": "",
          "type": "uint16"
        }
      ],
      "stateMutability": "view",
      "type": "function"
    },
    {
      "inputs": [],
      "name": "BORROWER",
      "outputs": [
        {
          "internalType": "uint16",
          "name": "",
          "type": "uint16"
        }
      ],
      "stateMutability": "view",
      "type": "function"
    },
    {
      "inputs": [],
      "name": "FEE_CONTROLLER",
      "outputs": [
        {
          "internalType": "uint16",
          "name": "",
          "type": "uint16"
        }
      ],
      "stateMutability": "view",
      "type": "function"
    },
    {
      "inputs": [],
      "name": "FEE_SOURCE",
      "outputs": [
        {
          "internalType": "uint16",
          "name": "",
          "type": "uint16"
        }
      ],
      "stateMutability": "view",
      "type": "function"
    },
    {
      "inputs": [],
      "name": "FUND",
      "outputs": [
        {
          "internalType": "uint16",
          "name": "",
          "type": "uint16"
        }
      ],
      "stateMutability": "view",
      "type": "function"
    },
    {
      "inputs": [],
      "name": "INCENTIVE_REPORTER",
      "outputs": [
        {
          "internalType": "uint16",
          "name": "",
          "type": "uint16"
        }
      ],
      "stateMutability": "view",
      "type": "function"
    },
    {
      "inputs": [],
      "name": "LENDING",
      "outputs": [
        {
          "internalType": "uint16",
          "name": "",
          "type": "uint16"
        }
      ],
      "stateMutability": "view",
      "type": "function"
    },
    {
      "inputs": [],
      "name": "LIQUIDATOR",
      "outputs": [
        {
          "internalType": "uint16",
          "name": "",
          "type": "uint16"
        }
      ],
      "stateMutability": "view",
      "type": "function"
    },
    {
      "inputs": [],
      "name": "MARGIN_CALLER",
      "outputs": [
        {
          "internalType": "uint16",
          "name": "",
          "type": "uint16"
        }
      ],
      "stateMutability": "view",
      "type": "function"
    },
    {
      "inputs": [],
      "name": "MARGIN_TRADER",
      "outputs": [
        {
          "internalType": "uint16",
          "name": "",
          "type": "uint16"
        }
      ],
      "stateMutability": "view",
      "type": "function"
    },
    {
      "inputs": [],
      "name": "MARGIN_TRADING",
      "outputs": [
        {
          "internalType": "uint16",
          "name": "",
          "type": "uint16"
        }
      ],
      "stateMutability": "view",
      "type": "function"
    },
    {
      "inputs": [],
      "name": "PRICE_CONTROLLER",
      "outputs": [
        {
          "internalType": "uint16",
          "name": "",
          "type": "uint16"
        }
      ],
      "stateMutability": "view",
      "type": "function"
    },
    {
      "inputs": [],
      "name": "ROUTER",
      "outputs": [
        {
          "internalType": "uint16",
          "name": "",
          "type": "uint16"
        }
      ],
      "stateMutability": "view",
      "type": "function"
    },
    {
      "inputs": [],
      "name": "TOKEN_ACTIVATOR",
      "outputs": [
        {
          "internalType": "uint16",
          "name": "",
          "type": "uint16"
        }
      ],
      "stateMutability": "view",
      "type": "function"
    },
    {
      "inputs": [],
      "name": "WITHDRAWER",
      "outputs": [
        {
          "internalType": "uint16",
          "name": "",
          "type": "uint16"
        }
      ],
      "stateMutability": "view",
      "type": "function"
    },
    {
      "inputs": [
        {
          "internalType": "uint8",
          "name": "tranche",
          "type": "uint8"
        },
        {
          "internalType": "uint256",
          "name": "claimId",
          "type": "uint256"
        },
        {
          "internalType": "uint256",
          "name": "additionalAmount",
          "type": "uint256"
        }
      ],
      "name": "addToClaimAmount",
      "outputs": [],
      "stateMutability": "nonpayable",
      "type": "function"
    },
    {
      "inputs": [
        {
          "internalType": "uint8",
          "name": "",
          "type": "uint8"
        }
      ],
      "name": "aggregatePeriodicRewardRateFP",
      "outputs": [
        {
          "internalType": "uint256",
          "name": "",
          "type": "uint256"
        }
      ],
      "stateMutability": "view",
      "type": "function"
    },
    {
      "inputs": [
        {
          "internalType": "uint256",
          "name": "",
          "type": "uint256"
        }
      ],
      "name": "claims",
      "outputs": [
        {
          "internalType": "uint256",
          "name": "startingRewardRateFP",
          "type": "uint256"
        },
        {
          "internalType": "address",
          "name": "recipient",
          "type": "address"
        },
        {
          "internalType": "uint256",
          "name": "amount",
          "type": "uint256"
        }
      ],
      "stateMutability": "view",
      "type": "function"
    },
    {
      "inputs": [],
      "name": "currentDailyDistribution",
      "outputs": [
        {
          "internalType": "uint256",
          "name": "",
          "type": "uint256"
        }
      ],
      "stateMutability": "view",
      "type": "function"
    },
    {
      "inputs": [
        {
          "internalType": "uint8",
          "name": "",
          "type": "uint8"
        }
      ],
      "name": "currentPeriodTotals",
      "outputs": [
        {
          "internalType": "uint256",
          "name": "",
          "type": "uint256"
        }
      ],
      "stateMutability": "view",
      "type": "function"
    },
    {
      "inputs": [
        {
          "internalType": "uint8",
          "name": "tranche",
          "type": "uint8"
        },
        {
          "internalType": "uint256",
          "name": "claimId",
          "type": "uint256"
        }
      ],
      "name": "endClaim",
      "outputs": [],
      "stateMutability": "nonpayable",
      "type": "function"
    },
    {
      "inputs": [
        {
          "internalType": "uint8",
          "name": "tranche",
          "type": "uint8"
        }
      ],
      "name": "forcePeriodTotalUpdate",
      "outputs": [],
      "stateMutability": "nonpayable",
      "type": "function"
    },
    {
      "inputs": [
        {
          "internalType": "uint8",
          "name": "tranche",
          "type": "uint8"
        },
        {
          "internalType": "uint256",
          "name": "share",
          "type": "uint256"
        }
      ],
      "name": "initTranche",
      "outputs": [],
      "stateMutability": "nonpayable",
      "type": "function"
    },
    {
      "inputs": [
        {
          "internalType": "uint8",
          "name": "",
          "type": "uint8"
        }
      ],
      "name": "lastUpdatedPeriods",
      "outputs": [
        {
          "internalType": "uint256",
          "name": "",
          "type": "uint256"
        }
      ],
      "stateMutability": "view",
      "type": "function"
    },
    {
      "inputs": [],
      "name": "nextClaimId",
      "outputs": [
        {
          "internalType": "uint256",
          "name": "",
          "type": "uint256"
        }
      ],
      "stateMutability": "view",
      "type": "function"
    },
    {
      "inputs": [],
      "name": "owner",
      "outputs": [
        {
          "internalType": "address",
          "name": "",
          "type": "address"
        }
      ],
      "stateMutability": "view",
      "type": "function"
    },
    {
      "inputs": [],
      "name": "renounceOwnership",
      "outputs": [],
      "stateMutability": "nonpayable",
      "type": "function"
    },
    {
      "inputs": [],
      "name": "roles",
      "outputs": [
        {
          "internalType": "contract Roles",
          "name": "",
          "type": "address"
        }
      ],
      "stateMutability": "view",
      "type": "function"
    },
    {
      "inputs": [
        {
          "internalType": "uint8",
          "name": "tranche",
          "type": "uint8"
        },
        {
          "internalType": "uint256",
          "name": "share",
          "type": "uint256"
        }
      ],
      "name": "setTrancheShare",
      "outputs": [],
      "stateMutability": "nonpayable",
      "type": "function"
    },
    {
      "inputs": [
        {
          "internalType": "uint8",
          "name": "tranche",
          "type": "uint8"
        },
        {
          "internalType": "address",
          "name": "recipient",
          "type": "address"
        },
        {
          "internalType": "uint256",
          "name": "claimAmount",
          "type": "uint256"
        }
      ],
      "name": "startClaim",
      "outputs": [
        {
          "internalType": "uint256",
          "name": "",
          "type": "uint256"
        }
      ],
      "stateMutability": "nonpayable",
      "type": "function"
    },
    {
      "inputs": [
        {
          "internalType": "uint8",
          "name": "tranche",
          "type": "uint8"
        },
        {
          "internalType": "uint256",
          "name": "claimId",
          "type": "uint256"
        },
        {
          "internalType": "uint256",
          "name": "subtractAmount",
          "type": "uint256"
        }
      ],
      "name": "subtractFromClaimAmount",
      "outputs": [],
      "stateMutability": "nonpayable",
      "type": "function"
    },
    {
      "inputs": [
        {
          "internalType": "uint8",
          "name": "",
          "type": "uint8"
        }
      ],
      "name": "trancheShare",
      "outputs": [
        {
          "internalType": "uint256",
          "name": "",
          "type": "uint256"
        }
      ],
      "stateMutability": "view",
      "type": "function"
    },
    {
      "inputs": [],
      "name": "trancheShareTotal",
      "outputs": [
        {
          "internalType": "uint256",
          "name": "",
          "type": "uint256"
        }
      ],
      "stateMutability": "view",
      "type": "function"
    },
    {
      "inputs": [
        {
          "internalType": "address",
          "name": "newOwner",
          "type": "address"
        }
      ],
      "name": "transferOwnership",
      "outputs": [],
      "stateMutability": "nonpayable",
      "type": "function"
    },
    {
      "inputs": [
        {
          "internalType": "uint8",
          "name": "tranche",
          "type": "uint8"
        },
        {
          "internalType": "uint256",
          "name": "claimId",
          "type": "uint256"
        }
      ],
      "name": "viewRewardAmount",
      "outputs": [
        {
          "internalType": "uint256",
          "name": "",
          "type": "uint256"
        }
      ],
      "stateMutability": "view",
      "type": "function"
    },
    {
      "inputs": [
        {
          "internalType": "uint8",
          "name": "tranche",
          "type": "uint8"
        },
        {
          "internalType": "uint256",
          "name": "claimId",
          "type": "uint256"
        }
      ],
      "name": "withdrawReward",
      "outputs": [
        {
          "internalType": "uint256",
          "name": "",
          "type": "uint256"
        }
      ],
      "stateMutability": "nonpayable",
      "type": "function"
    }
  ],
  "bytecode": "0x60806040526001600b553480156200001657600080fd5b506040516200190c3803806200190c83398101604081905262000039916200011b565b600080546001600160a01b0319166001600160a01b0383161781556200005e620000fa565b600180546001600160a01b0319166001600160a01b038316908117909155604051919250906000907f8be0079c531659141344cd1fd0a4f28419497f9722a3daafe3b4186f6b6457e0908290a350600280546001600160a01b0319166001600160a01b038516179055620000db82670de0b6b3a76400006200017c565b600355620000ed62015180426200015b565b60045550620001a8915050565b3390565b80516001600160a01b03811681146200011657600080fd5b919050565b60008060006060848603121562000130578283fd5b6200013b84620000fe565b9250602084015191506200015260408501620000fe565b90509250925092565b6000826200017757634e487b7160e01b81526012600452602481fd5b500490565b6000816000190483118215151615620001a357634e487b7160e01b81526011600452602481fd5b500290565b61175480620001b86000396000f3fe608060405234801561001057600080fd5b506004361061025b5760003560e01c806381ca660011610145578063a9cc0536116100bd578063d56b10541161008c578063eb3b6cec11610071578063eb3b6cec1461042d578063f2fde38b14610440578063f5428087146104535761025b565b8063d56b105414610412578063d5d7ed7f146104255761025b565b8063a9cc0536146103dc578063c63f5ab7146103e4578063c6de9d5d146103f7578063cacf8d451461040a5761025b565b8063a0021cf111610114578063a8016711116100f9578063a80167111461039f578063a888c2cd146103b2578063a94c7c34146103d45761025b565b8063a0021cf11461038f578063a0098d69146103975761025b565b806381ca66001461036457806383a49c7c1461036c5780638da5cb5b14610374578063982390231461037c5761025b565b8063430c39e4116101d85780635c275a39116101a7578063678337f81161018c578063678337f814610341578063715018a6146103495780637fad8a18146103515761025b565b80635c275a391461033157806366941984146103395761025b565b8063430c39e4146102fb57806346b887961461030e57806348fb27b814610316578063583d86161461031e5761025b565b806319f51afb1161022f5780632fe94def116102145780632fe94def146102d657806332fe7b26146102de578063392f5f64146102e65761025b565b806319f51afb146102b95780631bc5d81d146102ce5761025b565b8062fae52b14610260578063065d570f1461028957806317eef6f31461029e57806318e843b7146102a6575b600080fd5b61027361026e366004611276565b610466565b60405161028091906115ba565b60405180910390f35b610291610478565b6040516102809190611581565b61027361047d565b6102736102b4366004611276565b610483565b6102cc6102c73660046112ce565b610495565b005b610291610568565b61029161056d565b610291610572565b6102ee610577565b6040516102809190611329565b6102cc6103093660046112ce565b610593565b610291610649565b61029161064e565b61027361032c366004611290565b610653565b610291610795565b61029161079a565b61027361079f565b6102cc6107a5565b61027361035f366004611276565b610887565b610291610899565b61029161089e565b6102ee6108a3565b61027361038a3660046112ce565b6108bf565b6102736108d8565b6102916108de565b6102cc6103ad3660046112f7565b6108e3565b6103c56103c036600461125e565b61098a565b604051610280939291906115c3565b6102916109c1565b6102916109c6565b6102736103f2366004611276565b6109cb565b6102cc6104053660046112ce565b6109dd565b610291610a7f565b6102736104203660046112ce565b610a84565b610291610aee565b6102cc61043b366004611276565b610af3565b6102cc61044e366004611206565b610aff565b6102cc6104613660046112f7565b610c4d565b60076020526000908152604090205481565b600381565b60035481565b60056020526000908152604090205481565b61049d610d29565b73ffffffffffffffffffffffffffffffffffffffff166104bb6108a3565b73ffffffffffffffffffffffffffffffffffffffff1614610511576040517f08c379a000000000000000000000000000000000000000000000000000000000815260040161050890611435565b60405180910390fd5b60ff821660009081526008602052604090205461055a576040517f08c379a0000000000000000000000000000000000000000000000000000000008152600401610508906114c7565b6105648282610d2d565b5050565b600881565b606981565b606781565b60005473ffffffffffffffffffffffffffffffffffffffff1681565b61059b610d29565b73ffffffffffffffffffffffffffffffffffffffff166105b96108a3565b73ffffffffffffffffffffffffffffffffffffffff1614610606576040517f08c379a000000000000000000000000000000000000000000000000000000000815260040161050890611435565b6106108282610d2d565b61061c61384042611607565b60ff9092166000908152600860209081526040808320949094556009905291909120640100000000905550565b600681565b606681565b600061065e33610dcb565b610694576040517f08c379a00000000000000000000000000000000000000000000000000000000081526004016105089061146a565b6003541561078a576106a584610e7d565b60ff8416600090815260076020526040812080548492906106c79084906115ef565b90915550506040805160608101825260ff861660009081526009602090815283822054835273ffffffffffffffffffffffffffffffffffffffff878116828501908152848601888152600b80548652600a9094529584209451855551600180860180547fffffffffffffffffffffffff00000000000000000000000000000000000000001692909316919091179091559351600290930192909255815461076f9084906115ef565b9091555050600b546107839060019061167d565b905061078e565b5060005b9392505050565b606581565b600181565b60065481565b6107ad610d29565b73ffffffffffffffffffffffffffffffffffffffff166107cb6108a3565b73ffffffffffffffffffffffffffffffffffffffff1614610818576040517f08c379a000000000000000000000000000000000000000000000000000000000815260040161050890611435565b60015460405160009173ffffffffffffffffffffffffffffffffffffffff16907f8be0079c531659141344cd1fd0a4f28419497f9722a3daafe3b4186f6b6457e0908390a3600180547fffffffffffffffffffffffff0000000000000000000000000000000000000000169055565b60096020526000908152604090205481565b606a81565b600981565b60015473ffffffffffffffffffffffffffffffffffffffff1690565b6000818152600a6020526040812061078e908490610f0f565b600b5481565b600281565b6108ec33610dcb565b610922576040517f08c379a00000000000000000000000000000000000000000000000000000000081526004016105089061146a565b61092b83610e7d565b60ff83166000908152600760205260408120805483929061094d90849061167d565b90915550506000828152600a6020526040902061096a8482610f50565b508181600201600082825461097f919061167d565b909155505050505050565b600a60205260009081526040902080546001820154600290920154909173ffffffffffffffffffffffffffffffffffffffff169083565b600581565b606881565b60086020526000908152604090205481565b6109e633610dcb565b610a1c576040517f08c379a00000000000000000000000000000000000000000000000000000000081526004016105089061146a565b610a2582610e7d565b6000818152600a60205260409020805415610a7a57610a448382610f50565b506001810180547fffffffffffffffffffffffff0000000000000000000000000000000000000000169055600080825560028201555b505050565b600481565b6000610a8f33610dcb565b610ac5576040517f08c379a00000000000000000000000000000000000000000000000000000000081526004016105089061146a565b610ace83610e7d565b6000828152600a60205260409020610ae68482610f50565b949350505050565b600781565b610afc81610e7d565b50565b610b07610d29565b73ffffffffffffffffffffffffffffffffffffffff16610b256108a3565b73ffffffffffffffffffffffffffffffffffffffff1614610b72576040517f08c379a000000000000000000000000000000000000000000000000000000000815260040161050890611435565b73ffffffffffffffffffffffffffffffffffffffff8116610bbf576040517f08c379a00000000000000000000000000000000000000000000000000000000081526004016105089061137b565b60015460405173ffffffffffffffffffffffffffffffffffffffff8084169216907f8be0079c531659141344cd1fd0a4f28419497f9722a3daafe3b4186f6b6457e090600090a3600180547fffffffffffffffffffffffff00000000000000000000000000000000000000001673ffffffffffffffffffffffffffffffffffffffff92909216919091179055565b610c5633610dcb565b610c8c576040517f08c379a00000000000000000000000000000000000000000000000000000000081526004016105089061146a565b60035415610a7a57610c9d83610e7d565b60ff831660009081526007602052604081208054839290610cbf9084906115ef565b90915550506000828152600a602052604090208054610d0a576040517f08c379a0000000000000000000000000000000000000000000000000000000008152600401610508906113d8565b610d148482610f50565b508181600201600082825461097f91906115ef565b3390565b60ff8216600090815260056020526040902054811115610d805760ff8216600090815260056020526040902054610d64908261167d565b60066000828254610d7591906115ef565b90915550610db59050565b60ff8216600090815260056020526040902054610d9e90829061167d565b60066000828254610daf919061167d565b90915550505b60ff909116600090815260056020526040902055565b600080546040517fd87fefd200000000000000000000000000000000000000000000000000000000815273ffffffffffffffffffffffffffffffffffffffff9091169063d87fefd290610e25906008908690600401611590565b60206040518083038186803b158015610e3d57600080fd5b505afa158015610e51573d6000803e3d6000fd5b505050506040513d601f19601f82011682018060405250810190610e75919061123e565b90505b919050565b6000610e8b61384042611607565b9050610e95611069565b60ff821660009081526008602052604081205490610eb3828461167d565b90508015610ef75780610ec5856110d0565b610ecf9190611640565b60ff851660009081526009602052604081208054909190610ef19084906115ef565b90915550505b505060ff909116600090815260086020526040902055565b805460ff8316600090815260096020526040812054909164010000000091610f37919061167d565b8360020154610f469190611640565b61078e9190611607565b6000610f5c8383610f0f565b9050610f66611148565b60025460018401546040517fd9caed1200000000000000000000000000000000000000000000000000000000815273ffffffffffffffffffffffffffffffffffffffff9384169363d9caed1293610fc89390821692911690869060040161134a565b602060405180830381600087803b158015610fe257600080fd5b505af1158015610ff6573d6000803e3d6000fd5b505050506040513d601f19601f8201168201806040525081019061101a919061123e565b611050576040517f08c379a000000000000000000000000000000000000000000000000000000000815260040161050890611524565b60ff909216600090815260096020526040902054905590565b60006110786201518042611607565b905060006004548261108a919061167d565b905060005b818110156110c9576103e86103e76003546110aa9190611640565b6110b49190611607565b600355806110c181611694565b91505061108f565b5050600455565b6000806110e261384062015180611607565b60065460ff851660009081526005602052604090205460035461110a90640100000000611640565b6111149190611640565b61111e9190611607565b6111289190611607565b60ff841660009081526007602052604090205490915061078e9082611607565b600080546040517f3c9c8f9c00000000000000000000000000000000000000000000000000000000815273ffffffffffffffffffffffffffffffffffffffff90911690633c9c8f9c906111a090606590600401611581565b60206040518083038186803b1580156111b857600080fd5b505afa1580156111cc573d6000803e3d6000fd5b505050506040513d601f19601f820116820180604052508101906111f09190611222565b905090565b803560ff81168114610e7857600080fd5b600060208284031215611217578081fd5b813561078e816116fc565b600060208284031215611233578081fd5b815161078e816116fc565b60006020828403121561124f578081fd5b8151801515811461078e578182fd5b60006020828403121561126f578081fd5b5035919050565b600060208284031215611287578081fd5b61078e826111f5565b6000806000606084860312156112a4578182fd5b6112ad846111f5565b925060208401356112bd816116fc565b929592945050506040919091013590565b600080604083850312156112e0578182fd5b6112e9836111f5565b946020939093013593505050565b60008060006060848603121561130b578283fd5b611314846111f5565b95602085013595506040909401359392505050565b73ffffffffffffffffffffffffffffffffffffffff91909116815260200190565b73ffffffffffffffffffffffffffffffffffffffff9384168152919092166020820152604081019190915260600190565b60208082526026908201527f4f776e61626c653a206e6577206f776e657220697320746865207a65726f206160408201527f6464726573730000000000000000000000000000000000000000000000000000606082015260800190565b60208082526023908201527f547279696e6720746f2061646420746f206e6f6e2d6578697374616e7420636c60408201527f61696d0000000000000000000000000000000000000000000000000000000000606082015260800190565b6020808252818101527f4f776e61626c653a2063616c6c6572206973206e6f7420746865206f776e6572604082015260600190565b6020808252602c908201527f436f6e7472616374206e6f7420617574686f72697a656420746f207265706f7260408201527f7420696e63656e74697665730000000000000000000000000000000000000000606082015260800190565b60208082526033908201527f5472616e636865206973206e6f7420696e697469616c697a65642c20706c656160408201527f736520696e697469616c697a6520666972737400000000000000000000000000606082015260800190565b60208082526036908201527f5468657265207365656d7320746f2062652061206c61636b206f66204d46492060408201527f696e2074686520696e63656e746976652066756e642100000000000000000000606082015260800190565b61ffff91909116815260200190565b61ffff92909216825273ffffffffffffffffffffffffffffffffffffffff16602082015260400190565b90815260200190565b92835273ffffffffffffffffffffffffffffffffffffffff919091166020830152604082015260600190565b60008219821115611602576116026116cd565b500190565b60008261163b577f4e487b710000000000000000000000000000000000000000000000000000000081526012600452602481fd5b500490565b6000817fffffffffffffffffffffffffffffffffffffffffffffffffffffffffffffffff0483118215151615611678576116786116cd565b500290565b60008282101561168f5761168f6116cd565b500390565b60007fffffffffffffffffffffffffffffffffffffffffffffffffffffffffffffffff8214156116c6576116c66116cd565b5060010190565b7f4e487b7100000000000000000000000000000000000000000000000000000000600052601160045260246000fd5b73ffffffffffffffffffffffffffffffffffffffff81168114610afc57600080fdfea2646970667358221220ab7ee263b3f69a9d1d20f86b5466e901d73c23ac45b0234b08c4fa493642319764736f6c63430008010033",
  "linkReferences": {},
  "deployedLinkReferences": {}
}