{
  "_format": "hh-sol-artifact-1",
  "contractName": "IncentiveDistribution",
  "sourceName": "contracts/IncentiveDistribution.sol",
  "abi": [
    {
      "inputs": [
        {
          "internalType": "address",
          "name": "_MFI",
          "type": "address"
        },
        {
          "internalType": "uint256",
          "name": "startingDailyDistributionWithoutDecimals",
          "type": "uint256"
        },
        {
          "internalType": "address",
          "name": "_roles",
          "type": "address"
        }
      ],
      "stateMutability": "nonpayable",
      "type": "constructor"
    },
    {
      "anonymous": false,
      "inputs": [
        {
          "indexed": true,
          "internalType": "address",
          "name": "previousOwner",
          "type": "address"
        },
        {
          "indexed": true,
          "internalType": "address",
          "name": "newOwner",
          "type": "address"
        }
      ],
      "name": "OwnershipTransferred",
      "type": "event"
    },
    {
      "inputs": [],
      "name": "AUTHORIZED_FUND_TRADER",
      "outputs": [
        {
          "internalType": "uint16",
          "name": "",
          "type": "uint16"
        }
      ],
      "stateMutability": "view",
      "type": "function"
    },
    {
      "inputs": [],
      "name": "BORROWER",
      "outputs": [
        {
          "internalType": "uint16",
          "name": "",
          "type": "uint16"
        }
      ],
      "stateMutability": "view",
      "type": "function"
    },
    {
      "inputs": [],
      "name": "FEE_CONTROLLER",
      "outputs": [
        {
          "internalType": "uint16",
          "name": "",
          "type": "uint16"
        }
      ],
      "stateMutability": "view",
      "type": "function"
    },
    {
      "inputs": [],
      "name": "FEE_SOURCE",
      "outputs": [
        {
          "internalType": "uint16",
          "name": "",
          "type": "uint16"
        }
      ],
      "stateMutability": "view",
      "type": "function"
    },
    {
      "inputs": [],
      "name": "FUND",
      "outputs": [
        {
          "internalType": "uint16",
          "name": "",
          "type": "uint16"
        }
      ],
      "stateMutability": "view",
      "type": "function"
    },
    {
      "inputs": [],
      "name": "INCENTIVE_REPORTER",
      "outputs": [
        {
          "internalType": "uint16",
          "name": "",
          "type": "uint16"
        }
      ],
      "stateMutability": "view",
      "type": "function"
    },
    {
      "inputs": [],
      "name": "LENDING",
      "outputs": [
        {
          "internalType": "uint16",
          "name": "",
          "type": "uint16"
        }
      ],
      "stateMutability": "view",
      "type": "function"
    },
    {
      "inputs": [],
      "name": "LIQUIDATOR",
      "outputs": [
        {
          "internalType": "uint16",
          "name": "",
          "type": "uint16"
        }
      ],
      "stateMutability": "view",
      "type": "function"
    },
    {
      "inputs": [],
      "name": "MARGIN_CALLER",
      "outputs": [
        {
          "internalType": "uint16",
          "name": "",
          "type": "uint16"
        }
      ],
      "stateMutability": "view",
      "type": "function"
    },
    {
      "inputs": [],
      "name": "MARGIN_TRADER",
      "outputs": [
        {
          "internalType": "uint16",
          "name": "",
          "type": "uint16"
        }
      ],
      "stateMutability": "view",
      "type": "function"
    },
    {
      "inputs": [],
      "name": "MARGIN_TRADING",
      "outputs": [
        {
          "internalType": "uint16",
          "name": "",
          "type": "uint16"
        }
      ],
      "stateMutability": "view",
      "type": "function"
    },
    {
      "inputs": [],
      "name": "PRICE_CONTROLLER",
      "outputs": [
        {
          "internalType": "uint16",
          "name": "",
          "type": "uint16"
        }
      ],
      "stateMutability": "view",
      "type": "function"
    },
    {
      "inputs": [],
      "name": "ROUTER",
      "outputs": [
        {
          "internalType": "uint16",
          "name": "",
          "type": "uint16"
        }
      ],
      "stateMutability": "view",
      "type": "function"
    },
    {
      "inputs": [],
      "name": "WITHDRAWER",
      "outputs": [
        {
          "internalType": "uint16",
          "name": "",
          "type": "uint16"
        }
      ],
      "stateMutability": "view",
      "type": "function"
    },
    {
      "inputs": [
        {
          "internalType": "uint8",
          "name": "tranche",
          "type": "uint8"
        },
        {
          "internalType": "uint256",
          "name": "claimId",
          "type": "uint256"
        },
        {
          "internalType": "uint256",
          "name": "additionalAmount",
          "type": "uint256"
        }
      ],
      "name": "addToClaimAmount",
      "outputs": [],
      "stateMutability": "nonpayable",
      "type": "function"
    },
    {
      "inputs": [
        {
          "internalType": "uint8",
          "name": "",
          "type": "uint8"
        }
      ],
      "name": "aggregateHourlyRewardRateFP",
      "outputs": [
        {
          "internalType": "uint256",
          "name": "",
          "type": "uint256"
        }
      ],
      "stateMutability": "view",
      "type": "function"
    },
    {
      "inputs": [
        {
          "internalType": "uint256",
          "name": "",
          "type": "uint256"
        }
      ],
      "name": "claims",
      "outputs": [
        {
          "internalType": "uint256",
          "name": "startingRewardRateFP",
          "type": "uint256"
        },
        {
          "internalType": "address",
          "name": "recipient",
          "type": "address"
        },
        {
          "internalType": "uint256",
          "name": "amount",
          "type": "uint256"
        }
      ],
      "stateMutability": "view",
      "type": "function"
    },
    {
      "inputs": [],
      "name": "currentDailyDistribution",
      "outputs": [
        {
          "internalType": "uint256",
          "name": "",
          "type": "uint256"
        }
      ],
      "stateMutability": "view",
      "type": "function"
    },
    {
      "inputs": [
        {
          "internalType": "uint8",
          "name": "",
          "type": "uint8"
        }
      ],
      "name": "currentDayTotals",
      "outputs": [
        {
          "internalType": "uint256",
          "name": "",
          "type": "uint256"
        }
      ],
      "stateMutability": "view",
      "type": "function"
    },
    {
      "inputs": [
        {
          "internalType": "uint8",
          "name": "",
          "type": "uint8"
        }
      ],
      "name": "currentHourTotals",
      "outputs": [
        {
          "internalType": "uint256",
          "name": "",
          "type": "uint256"
        }
      ],
      "stateMutability": "view",
      "type": "function"
    },
    {
      "inputs": [
        {
          "internalType": "uint8",
          "name": "tranche",
          "type": "uint8"
        },
        {
          "internalType": "uint256",
          "name": "claimId",
          "type": "uint256"
        }
      ],
      "name": "endClaim",
      "outputs": [],
      "stateMutability": "nonpayable",
      "type": "function"
    },
    {
      "inputs": [
        {
          "internalType": "uint8",
          "name": "tranche",
          "type": "uint8"
        },
        {
          "internalType": "address",
          "name": "recipient",
          "type": "address"
        },
        {
          "internalType": "uint256",
          "name": "spotAmount",
          "type": "uint256"
        }
      ],
      "name": "getSpotReward",
      "outputs": [],
      "stateMutability": "nonpayable",
      "type": "function"
    },
    {
      "inputs": [
        {
          "internalType": "uint8",
          "name": "",
          "type": "uint8"
        },
        {
          "internalType": "uint256",
          "name": "",
          "type": "uint256"
        }
      ],
      "name": "hourlyTotals",
      "outputs": [
        {
          "internalType": "uint256",
          "name": "",
          "type": "uint256"
        }
      ],
      "stateMutability": "view",
      "type": "function"
    },
    {
      "inputs": [
        {
          "internalType": "uint8",
          "name": "",
          "type": "uint8"
        }
      ],
      "name": "lastUpdatedHours",
      "outputs": [
        {
          "internalType": "uint256",
          "name": "",
          "type": "uint256"
        }
      ],
      "stateMutability": "view",
      "type": "function"
    },
    {
      "inputs": [],
      "name": "nextClaimId",
      "outputs": [
        {
          "internalType": "uint256",
          "name": "",
          "type": "uint256"
        }
      ],
      "stateMutability": "view",
      "type": "function"
    },
    {
      "inputs": [
        {
          "internalType": "uint8",
          "name": "",
          "type": "uint8"
        }
      ],
      "name": "ongoingTotals",
      "outputs": [
        {
          "internalType": "uint256",
          "name": "",
          "type": "uint256"
        }
      ],
      "stateMutability": "view",
      "type": "function"
    },
    {
      "inputs": [],
      "name": "owner",
      "outputs": [
        {
          "internalType": "address",
          "name": "",
          "type": "address"
        }
      ],
      "stateMutability": "view",
      "type": "function"
    },
    {
      "inputs": [],
      "name": "renounceOwnership",
      "outputs": [],
      "stateMutability": "nonpayable",
      "type": "function"
    },
    {
      "inputs": [],
      "name": "roles",
      "outputs": [
        {
          "internalType": "contract Roles",
          "name": "",
          "type": "address"
        }
      ],
      "stateMutability": "view",
      "type": "function"
    },
    {
      "inputs": [
        {
          "internalType": "uint8",
          "name": "tranche",
          "type": "uint8"
        },
        {
          "internalType": "address",
          "name": "recipient",
          "type": "address"
        },
        {
          "internalType": "uint256",
          "name": "claimAmount",
          "type": "uint256"
        }
      ],
      "name": "startClaim",
      "outputs": [
        {
          "internalType": "uint256",
          "name": "",
          "type": "uint256"
        }
      ],
      "stateMutability": "nonpayable",
      "type": "function"
    },
    {
      "inputs": [
        {
          "internalType": "uint8",
          "name": "tranche",
          "type": "uint8"
        },
        {
          "internalType": "uint256",
          "name": "claimId",
          "type": "uint256"
        },
        {
          "internalType": "uint256",
          "name": "subtractAmount",
          "type": "uint256"
        }
      ],
      "name": "subtractFromClaimAmount",
      "outputs": [],
      "stateMutability": "nonpayable",
      "type": "function"
    },
    {
      "inputs": [
        {
          "internalType": "uint256",
          "name": "",
          "type": "uint256"
        }
      ],
      "name": "tranchePercentShare",
      "outputs": [
        {
          "internalType": "uint256",
          "name": "",
          "type": "uint256"
        }
      ],
      "stateMutability": "view",
      "type": "function"
    },
    {
      "inputs": [
        {
          "internalType": "address",
          "name": "newOwner",
          "type": "address"
        }
      ],
      "name": "transferOwnership",
      "outputs": [],
      "stateMutability": "nonpayable",
      "type": "function"
    }
  ],
  "bytecode": "0x60806040526103e76002553480156200001757600080fd5b50604051620016f3380380620016f38339810160408190526200003a916200010a565b600080546001600160a01b0319166001600160a01b0383161781556200005f620000e9565b600180546001600160a01b0319166001600160a01b038316908117909155604051919250906000907f8be0079c531659141344cd1fd0a4f28419497f9722a3daafe3b4186f6b6457e0908290a350600380546001600160a01b0319166001600160a01b038516179055620000dc82670de0b6b3a76400006200014a565b6004555062000176915050565b3390565b80516001600160a01b03811681146200010557600080fd5b919050565b6000806000606084860312156200011f578283fd5b6200012a84620000ed565b9250602084015191506200014160408501620000ed565b90509250925092565b60008160001904831182151516156200017157634e487b7160e01b81526011600452602481fd5b500290565b61156d80620001866000396000f3fe608060405234801561001057600080fd5b506004361061020b5760003560e01c806381ca66001161012a578063c6de9d5d116100bd578063d5d7ed7f1161008c578063f24696da11610071578063f24696da146103ba578063f2fde38b146103cd578063f5428087146103e05761020b565b8063d5d7ed7f1461039f578063d642aa4c146103a75761020b565b8063c6de9d5d1461035e578063ca2137fc14610371578063cacf8d4514610384578063cdb0aa461461038c5761020b565b8063a8016711116100f9578063a801671114610319578063a888c2cd1461032c578063a94c7c341461034e578063a9cc0536146103565761020b565b806381ca6600146102f95780638da5cb5b14610301578063a0021cf114610309578063a0098d69146103115761020b565b8063392f5f64116101a25780635c275a39116101715780635c275a39146102cc57806366941984146102d457806370c5663f146102dc578063715018a6146102ef5761020b565b8063392f5f641461029457806346b88796146102a957806348fb27b8146102b1578063583d8616146102b95761020b565b8063246b9e74116101de578063246b9e741461025e5780632a0e1fc0146102715780632fe94def1461028457806332fe7b261461028c5761020b565b8063065d570f1461021057806317eef6f31461022e5780631bc5d81d146102435780631e478f921461024b575b600080fd5b6102186103f3565b60405161022591906113dc565b60405180910390f35b6102366103f8565b60405161022591906113eb565b6102186103fe565b610236610259366004611216565b610403565b61023661026c3660046111be565b610428565b61023661027f3660046111a6565b61043a565b61021861045b565b610218610460565b61029c610465565b6040516102259190611271565b610218610481565b610218610486565b6102366102c73660046111d8565b61048b565b6102186105eb565b6102186105f0565b6102366102ea3660046111be565b6105f5565b6102f7610607565b005b6102186106e9565b61029c6106ee565b61023661070a565b610218610710565b6102f761032736600461123f565b610715565b61033f61033a3660046111a6565b6107cd565b604051610225939291906113f4565b610218610804565b610218610809565b6102f761036c366004611216565b61080e565b61023661037f3660046111be565b610968565b61021861097a565b6102f761039a3660046111d8565b61097f565b610218610ad2565b6102366103b53660046111be565b610ad7565b6102366103c83660046111be565b610ae9565b6102f76103db36600461114e565b610afb565b6102f76103ee36600461123f565b610c49565b600381565b60045481565b600881565b6007602052816000526040600020816018811061041f57600080fd5b01549150829050565b600b6020526000908152604090205481565b6005818154811061044a57600080fd5b600091825260209091200154905081565b606981565b606781565b60005473ffffffffffffffffffffffffffffffffffffffff1681565b600681565b606681565b600061049633610cf6565b6104d5576040517f08c379a00000000000000000000000000000000000000000000000000000000081526004016104cc9061137f565b60405180910390fd5b6104de84610da8565b60ff84166000908152600a602052604081208054849290610500908490611420565b909155505060ff841660009081526008602052604081208054849290610527908490611420565b90915550506040805160608101825260ff86166000908152600b602090815283822054835273ffffffffffffffffffffffffffffffffffffffff878116828501908152848601888152600d80548652600c9094529584209451855551600180860180547fffffffffffffffffffffffff0000000000000000000000000000000000000000169290931691909117909155935160029093019290925581546105cf908490611420565b9091555050600d546105e390600190611489565b949350505050565b606581565b600181565b60086020526000908152604090205481565b61060f610fae565b73ffffffffffffffffffffffffffffffffffffffff1661062d6106ee565b73ffffffffffffffffffffffffffffffffffffffff161461067a576040517f08c379a00000000000000000000000000000000000000000000000000000000081526004016104cc9061134a565b60015460405160009173ffffffffffffffffffffffffffffffffffffffff16907f8be0079c531659141344cd1fd0a4f28419497f9722a3daafe3b4186f6b6457e0908390a3600180547fffffffffffffffffffffffff0000000000000000000000000000000000000000169055565b606a81565b60015473ffffffffffffffffffffffffffffffffffffffff1690565b600d5481565b600281565b61071e33610cf6565b610754576040517f08c379a00000000000000000000000000000000000000000000000000000000081526004016104cc9061137f565b61075d83610da8565b6000828152600c602052604090206107758482610fb2565b640100000000826002015461078a919061144c565b6107949190611438565b8160000160008282546107a79190611489565b92505081905550818160020160008282546107c29190611489565b909155505050505050565b600c60205260009081526040902080546001820154600290920154909173ffffffffffffffffffffffffffffffffffffffff169083565b600581565b606881565b61081733610cf6565b61084d576040517f08c379a00000000000000000000000000000000000000000000000000000000081526004016104cc9061137f565b61085682610da8565b6000818152600c602052604081209061086f8483610fb2565b9050610879610ffa565b60035460018401546040517fd9caed1200000000000000000000000000000000000000000000000000000000815273ffffffffffffffffffffffffffffffffffffffff9384169363d9caed12936108db93908216929116908690600401611292565b602060405180830381600087803b1580156108f557600080fd5b505af1158015610909573d6000803e3d6000fd5b505050506040513d601f19601f8201168201806040525081019061092d9190611186565b50506001810180547fffffffffffffffffffffffff000000000000000000000000000000000000000016905560008082556002909101555050565b600a6020526000908152604090205481565b600481565b61098833610cf6565b6109be576040517f08c379a00000000000000000000000000000000000000000000000000000000081526004016104cc9061137f565b6109c783610da8565b60ff8316600090815260086020526040812080548392906109e9908490611420565b9091555060009050640100000000610a00856110a7565b610a0a908461144c565b610a149190611438565b9050610a1e610ffa565b6003546040517fd9caed1200000000000000000000000000000000000000000000000000000000815273ffffffffffffffffffffffffffffffffffffffff9283169263d9caed1292610a799291169087908690600401611292565b602060405180830381600087803b158015610a9357600080fd5b505af1158015610aa7573d6000803e3d6000fd5b505050506040513d601f19601f82011682018060405250810190610acb9190611186565b5050505050565b600781565b60096020526000908152604090205481565b60066020526000908152604090205481565b610b03610fae565b73ffffffffffffffffffffffffffffffffffffffff16610b216106ee565b73ffffffffffffffffffffffffffffffffffffffff1614610b6e576040517f08c379a00000000000000000000000000000000000000000000000000000000081526004016104cc9061134a565b73ffffffffffffffffffffffffffffffffffffffff8116610bbb576040517f08c379a00000000000000000000000000000000000000000000000000000000081526004016104cc906112ed565b60015460405173ffffffffffffffffffffffffffffffffffffffff8084169216907f8be0079c531659141344cd1fd0a4f28419497f9722a3daafe3b4186f6b6457e090600090a3600180547fffffffffffffffffffffffff00000000000000000000000000000000000000001673ffffffffffffffffffffffffffffffffffffffff92909216919091179055565b610c5233610cf6565b610c88576040517f08c379a00000000000000000000000000000000000000000000000000000000081526004016104cc9061137f565b610c9183610da8565b6000828152600c60205260409020610ca98482610fb2565b6401000000008260020154610cbe919061144c565b610cc89190611438565b816000016000828254610cdb9190611489565b92505081905550818160020160008282546107c29190611420565b600080546040517f7ecd187e00000000000000000000000000000000000000000000000000000000815273ffffffffffffffffffffffffffffffffffffffff90911690637ecd187e90610d509085906008906004016112c3565b60206040518083038186803b158015610d6857600080fd5b505afa158015610d7c573d6000803e3d6000fd5b505050506040513d601f19601f82011682018060405250810190610da09190611186565b90505b919050565b6000610e10610dba62015180426114a0565b610dc49190611438565b60ff8316600090815260096020526040902054909150808214610fa95760ff83166000908152600960205260409020829055610dff836110a7565b60ff84166000908152600b602052604081208054909190610e21908490611420565b909155505060ff831660009081526007602052604090208160188110610e70577f4e487b7100000000000000000000000000000000000000000000000000000000600052603260045260246000fd5b015460ff841660009081526006602052604081208054909190610e94908490611489565b909155505060ff831660009081526008602090815260408083205460079092529091208260188110610eef577f4e487b7100000000000000000000000000000000000000000000000000000000600052603260045260246000fd5b015560ff831660009081526007602052604090208160188110610f3b577f4e487b7100000000000000000000000000000000000000000000000000000000600052603260045260246000fd5b015460ff841660009081526006602052604081208054909190610f5f908490611420565b909155505060ff83166000908152600a602090815260408083205460089092529091205581610fa9576103e8600254600454610f9b919061144c565b610fa59190611438565b6004555b505050565b3390565b805460ff83166000908152600b6020526040812054909164010000000091610fda9190611489565b8360020154610fe9919061144c565b610ff39190611438565b9392505050565b600080546040517f3c9c8f9c00000000000000000000000000000000000000000000000000000000815273ffffffffffffffffffffffffffffffffffffffff90911690633c9c8f9c90611052906065906004016113dc565b60206040518083038186803b15801561106a57600080fd5b505afa15801561107e573d6000803e3d6000fd5b505050506040513d601f19601f820116820180604052508101906110a2919061116a565b905090565b600080606460058460ff16815481106110e9577f4e487b7100000000000000000000000000000000000000000000000000000000600052603260045260246000fd5b9060005260206000200154600454611101919061144c565b6111109064010000000061144c565b61111a9190611438565b60ff8416600090815260066020526040902054909150601890610fe99083611438565b803560ff81168114610da357600080fd5b60006020828403121561115f578081fd5b8135610ff381611512565b60006020828403121561117b578081fd5b8151610ff381611512565b600060208284031215611197578081fd5b81518015158114610ff3578182fd5b6000602082840312156111b7578081fd5b5035919050565b6000602082840312156111cf578081fd5b610ff38261113d565b6000806000606084860312156111ec578182fd5b6111f58461113d565b9250602084013561120581611512565b929592945050506040919091013590565b60008060408385031215611228578182fd5b6112318361113d565b946020939093013593505050565b600080600060608486031215611253578283fd5b61125c8461113d565b95602085013595506040909401359392505050565b73ffffffffffffffffffffffffffffffffffffffff91909116815260200190565b73ffffffffffffffffffffffffffffffffffffffff9384168152919092166020820152604081019190915260600190565b73ffffffffffffffffffffffffffffffffffffffff92909216825261ffff16602082015260400190565b60208082526026908201527f4f776e61626c653a206e6577206f776e657220697320746865207a65726f206160408201527f6464726573730000000000000000000000000000000000000000000000000000606082015260800190565b6020808252818101527f4f776e61626c653a2063616c6c6572206973206e6f7420746865206f776e6572604082015260600190565b6020808252602c908201527f436f6e7472616374206e6f7420617574686f72697a656420746f207265706f7260408201527f7420696e63656e74697665730000000000000000000000000000000000000000606082015260800190565b61ffff91909116815260200190565b90815260200190565b92835273ffffffffffffffffffffffffffffffffffffffff919091166020830152604082015260600190565b60008219821115611433576114336114b4565b500190565b600082611447576114476114e3565b500490565b6000817fffffffffffffffffffffffffffffffffffffffffffffffffffffffffffffffff0483118215151615611484576114846114b4565b500290565b60008282101561149b5761149b6114b4565b500390565b6000826114af576114af6114e3565b500690565b7f4e487b7100000000000000000000000000000000000000000000000000000000600052601160045260246000fd5b7f4e487b7100000000000000000000000000000000000000000000000000000000600052601260045260246000fd5b73ffffffffffffffffffffffffffffffffffffffff8116811461153457600080fd5b5056fea2646970667358221220b6e27c425643aae546a59f75292f0a2b58ab072a2561174cec9e0eea027a90ec64736f6c63430008010033",
  "linkReferences": {},
  "deployedLinkReferences": {}
}