{
  "_format": "hh-sol-artifact-1",
  "contractName": "IncentiveDistribution",
  "sourceName": "contracts/IncentiveDistribution.sol",
  "abi": [
    {
      "inputs": [
        {
          "internalType": "address",
          "name": "_MFI",
          "type": "address"
        },
        {
          "internalType": "uint256",
          "name": "startingDailyDistributionWithoutDecimals",
          "type": "uint256"
        },
        {
          "internalType": "address",
          "name": "_roles",
          "type": "address"
        }
      ],
      "stateMutability": "nonpayable",
      "type": "constructor"
    },
    {
      "anonymous": false,
      "inputs": [
        {
          "indexed": true,
          "internalType": "address",
          "name": "previousOwner",
          "type": "address"
        },
        {
          "indexed": true,
          "internalType": "address",
          "name": "newOwner",
          "type": "address"
        }
      ],
      "name": "OwnershipTransferred",
      "type": "event"
    },
    {
      "inputs": [],
      "name": "AUTHORIZED_FUND_TRADER",
      "outputs": [
        {
          "internalType": "uint16",
          "name": "",
          "type": "uint16"
        }
      ],
      "stateMutability": "view",
      "type": "function"
    },
    {
      "inputs": [],
      "name": "BORROWER",
      "outputs": [
        {
          "internalType": "uint16",
          "name": "",
          "type": "uint16"
        }
      ],
      "stateMutability": "view",
      "type": "function"
    },
    {
      "inputs": [],
      "name": "FEE_CONTROLLER",
      "outputs": [
        {
          "internalType": "uint16",
          "name": "",
          "type": "uint16"
        }
      ],
      "stateMutability": "view",
      "type": "function"
    },
    {
      "inputs": [],
      "name": "FEE_SOURCE",
      "outputs": [
        {
          "internalType": "uint16",
          "name": "",
          "type": "uint16"
        }
      ],
      "stateMutability": "view",
      "type": "function"
    },
    {
      "inputs": [],
      "name": "FUND",
      "outputs": [
        {
          "internalType": "uint16",
          "name": "",
          "type": "uint16"
        }
      ],
      "stateMutability": "view",
      "type": "function"
    },
    {
      "inputs": [],
      "name": "INCENTIVE_REPORTER",
      "outputs": [
        {
          "internalType": "uint16",
          "name": "",
          "type": "uint16"
        }
      ],
      "stateMutability": "view",
      "type": "function"
    },
    {
      "inputs": [],
      "name": "LENDING",
      "outputs": [
        {
          "internalType": "uint16",
          "name": "",
          "type": "uint16"
        }
      ],
      "stateMutability": "view",
      "type": "function"
    },
    {
      "inputs": [],
      "name": "LIQUIDATOR",
      "outputs": [
        {
          "internalType": "uint16",
          "name": "",
          "type": "uint16"
        }
      ],
      "stateMutability": "view",
      "type": "function"
    },
    {
      "inputs": [],
      "name": "MARGIN_CALLER",
      "outputs": [
        {
          "internalType": "uint16",
          "name": "",
          "type": "uint16"
        }
      ],
      "stateMutability": "view",
      "type": "function"
    },
    {
      "inputs": [],
      "name": "MARGIN_TRADER",
      "outputs": [
        {
          "internalType": "uint16",
          "name": "",
          "type": "uint16"
        }
      ],
      "stateMutability": "view",
      "type": "function"
    },
    {
      "inputs": [],
      "name": "MARGIN_TRADING",
      "outputs": [
        {
          "internalType": "uint16",
          "name": "",
          "type": "uint16"
        }
      ],
      "stateMutability": "view",
      "type": "function"
    },
    {
      "inputs": [],
      "name": "PRICE_CONTROLLER",
      "outputs": [
        {
          "internalType": "uint16",
          "name": "",
          "type": "uint16"
        }
      ],
      "stateMutability": "view",
      "type": "function"
    },
    {
      "inputs": [],
      "name": "ROUTER",
      "outputs": [
        {
          "internalType": "uint16",
          "name": "",
          "type": "uint16"
        }
      ],
      "stateMutability": "view",
      "type": "function"
    },
    {
      "inputs": [],
      "name": "TOKEN_ACTIVATOR",
      "outputs": [
        {
          "internalType": "uint16",
          "name": "",
          "type": "uint16"
        }
      ],
      "stateMutability": "view",
      "type": "function"
    },
    {
      "inputs": [],
      "name": "WITHDRAWER",
      "outputs": [
        {
          "internalType": "uint16",
          "name": "",
          "type": "uint16"
        }
      ],
      "stateMutability": "view",
      "type": "function"
    },
    {
      "inputs": [
        {
          "internalType": "uint8",
          "name": "tranche",
          "type": "uint8"
        },
        {
          "internalType": "uint256",
          "name": "claimId",
          "type": "uint256"
        },
        {
          "internalType": "uint256",
          "name": "additionalAmount",
          "type": "uint256"
        }
      ],
      "name": "addToClaimAmount",
      "outputs": [],
      "stateMutability": "nonpayable",
      "type": "function"
    },
    {
      "inputs": [
        {
          "internalType": "uint8",
          "name": "",
          "type": "uint8"
        }
      ],
      "name": "aggregatePeriodicRewardRateFP",
      "outputs": [
        {
          "internalType": "uint256",
          "name": "",
          "type": "uint256"
        }
      ],
      "stateMutability": "view",
      "type": "function"
    },
    {
      "inputs": [
        {
          "internalType": "uint256",
          "name": "",
          "type": "uint256"
        }
      ],
      "name": "claims",
      "outputs": [
        {
          "internalType": "uint256",
          "name": "startingRewardRateFP",
          "type": "uint256"
        },
        {
          "internalType": "address",
          "name": "recipient",
          "type": "address"
        },
        {
          "internalType": "uint256",
          "name": "amount",
          "type": "uint256"
        }
      ],
      "stateMutability": "view",
      "type": "function"
    },
    {
      "inputs": [],
      "name": "currentDailyDistribution",
      "outputs": [
        {
          "internalType": "uint256",
          "name": "",
          "type": "uint256"
        }
      ],
      "stateMutability": "view",
      "type": "function"
    },
    {
      "inputs": [
        {
          "internalType": "uint8",
          "name": "",
          "type": "uint8"
        }
      ],
      "name": "currentDayTotals",
      "outputs": [
        {
          "internalType": "uint256",
          "name": "",
          "type": "uint256"
        }
      ],
      "stateMutability": "view",
      "type": "function"
    },
    {
      "inputs": [
        {
          "internalType": "uint8",
          "name": "",
          "type": "uint8"
        }
      ],
      "name": "currentPeriodTotals",
      "outputs": [
        {
          "internalType": "uint256",
          "name": "",
          "type": "uint256"
        }
      ],
      "stateMutability": "view",
      "type": "function"
    },
    {
      "inputs": [
        {
          "internalType": "uint8",
          "name": "tranche",
          "type": "uint8"
        },
        {
          "internalType": "uint256",
          "name": "claimId",
          "type": "uint256"
        }
      ],
      "name": "endClaim",
      "outputs": [],
      "stateMutability": "nonpayable",
      "type": "function"
    },
    {
      "inputs": [
        {
          "internalType": "uint8",
          "name": "tranche",
          "type": "uint8"
        }
      ],
      "name": "forcePeriodTotalUpdate",
      "outputs": [],
      "stateMutability": "nonpayable",
      "type": "function"
    },
    {
      "inputs": [
        {
          "internalType": "uint8",
          "name": "tranche",
          "type": "uint8"
        },
        {
          "internalType": "address",
          "name": "recipient",
          "type": "address"
        },
        {
          "internalType": "uint256",
          "name": "spotAmount",
          "type": "uint256"
        }
      ],
      "name": "getSpotReward",
      "outputs": [],
      "stateMutability": "nonpayable",
      "type": "function"
    },
    {
      "inputs": [
        {
          "internalType": "uint8",
          "name": "tranche",
          "type": "uint8"
        },
        {
          "internalType": "uint256",
          "name": "share",
          "type": "uint256"
        },
        {
          "internalType": "uint256",
          "name": "assumedInitialDailyTotal",
          "type": "uint256"
        }
      ],
      "name": "initTranche",
      "outputs": [],
      "stateMutability": "nonpayable",
      "type": "function"
    },
    {
      "inputs": [
        {
          "internalType": "uint8",
          "name": "",
          "type": "uint8"
        }
      ],
      "name": "lastUpdatedPeriods",
      "outputs": [
        {
          "internalType": "uint256",
          "name": "",
          "type": "uint256"
        }
      ],
      "stateMutability": "view",
      "type": "function"
    },
    {
      "inputs": [],
      "name": "nextClaimId",
      "outputs": [
        {
          "internalType": "uint256",
          "name": "",
          "type": "uint256"
        }
      ],
      "stateMutability": "view",
      "type": "function"
    },
    {
      "inputs": [
        {
          "internalType": "uint8",
          "name": "",
          "type": "uint8"
        }
      ],
      "name": "ongoingTotals",
      "outputs": [
        {
          "internalType": "uint256",
          "name": "",
          "type": "uint256"
        }
      ],
      "stateMutability": "view",
      "type": "function"
    },
    {
      "inputs": [],
      "name": "owner",
      "outputs": [
        {
          "internalType": "address",
          "name": "",
          "type": "address"
        }
      ],
      "stateMutability": "view",
      "type": "function"
    },
    {
      "inputs": [
        {
          "internalType": "uint8",
          "name": "",
          "type": "uint8"
        },
        {
          "internalType": "uint256",
          "name": "",
          "type": "uint256"
        }
      ],
      "name": "periodTotals",
      "outputs": [
        {
          "internalType": "uint256",
          "name": "",
          "type": "uint256"
        }
      ],
      "stateMutability": "view",
      "type": "function"
    },
    {
      "inputs": [],
      "name": "renounceOwnership",
      "outputs": [],
      "stateMutability": "nonpayable",
      "type": "function"
    },
    {
      "inputs": [],
      "name": "roles",
      "outputs": [
        {
          "internalType": "contract Roles",
          "name": "",
          "type": "address"
        }
      ],
      "stateMutability": "view",
      "type": "function"
    },
    {
      "inputs": [
        {
          "internalType": "uint8",
          "name": "tranche",
          "type": "uint8"
        },
        {
          "internalType": "uint256",
          "name": "share",
          "type": "uint256"
        }
      ],
      "name": "setTrancheShare",
      "outputs": [],
      "stateMutability": "nonpayable",
      "type": "function"
    },
    {
      "inputs": [
        {
          "internalType": "uint8",
          "name": "tranche",
          "type": "uint8"
        },
        {
          "internalType": "address",
          "name": "recipient",
          "type": "address"
        },
        {
          "internalType": "uint256",
          "name": "claimAmount",
          "type": "uint256"
        }
      ],
      "name": "startClaim",
      "outputs": [
        {
          "internalType": "uint256",
          "name": "",
          "type": "uint256"
        }
      ],
      "stateMutability": "nonpayable",
      "type": "function"
    },
    {
      "inputs": [
        {
          "internalType": "uint8",
          "name": "tranche",
          "type": "uint8"
        },
        {
          "internalType": "uint256",
          "name": "claimId",
          "type": "uint256"
        },
        {
          "internalType": "uint256",
          "name": "subtractAmount",
          "type": "uint256"
        }
      ],
      "name": "subtractFromClaimAmount",
      "outputs": [],
      "stateMutability": "nonpayable",
      "type": "function"
    },
    {
      "inputs": [
        {
          "internalType": "uint8",
          "name": "",
          "type": "uint8"
        }
      ],
      "name": "trancheShare",
      "outputs": [
        {
          "internalType": "uint256",
          "name": "",
          "type": "uint256"
        }
      ],
      "stateMutability": "view",
      "type": "function"
    },
    {
      "inputs": [],
      "name": "trancheShareTotal",
      "outputs": [
        {
          "internalType": "uint256",
          "name": "",
          "type": "uint256"
        }
      ],
      "stateMutability": "view",
      "type": "function"
    },
    {
      "inputs": [
        {
          "internalType": "address",
          "name": "newOwner",
          "type": "address"
        }
      ],
      "name": "transferOwnership",
      "outputs": [],
      "stateMutability": "nonpayable",
      "type": "function"
    }
  ],
  "bytecode": "0x60806040523480156200001157600080fd5b5060405162001c9b38038062001c9b833981016040819052620000349162000104565b600080546001600160a01b0319166001600160a01b03831617815562000059620000e3565b600180546001600160a01b0319166001600160a01b038316908117909155604051919250906000907f8be0079c531659141344cd1fd0a4f28419497f9722a3daafe3b4186f6b6457e0908290a350600280546001600160a01b0319166001600160a01b038516179055620000d682670de0b6b3a764000062000144565b6003555062000170915050565b3390565b80516001600160a01b0381168114620000ff57600080fd5b919050565b60008060006060848603121562000119578283fd5b6200012484620000e7565b9250602084015191506200013b60408501620000e7565b90509250925092565b60008160001904831182151516156200016b57634e487b7160e01b81526011600452602481fd5b500290565b611b1b80620001806000396000f3fe608060405234801561001057600080fd5b50600436106102915760003560e01c806381ca660011610160578063c63f5ab7116100d8578063d5d7ed7f1161008c578063f24696da11610071578063f24696da14610489578063f2fde38b1461049c578063f5428087146104af57610291565b8063d5d7ed7f1461046e578063eb3b6cec1461047657610291565b8063ca2137fc116100bd578063ca2137fc14610440578063cacf8d4514610453578063cdb0aa461461045b57610291565b8063c63f5ab71461041a578063c6de9d5d1461042d57610291565b8063a0098d691161012f578063a888c2cd11610114578063a888c2cd146103e8578063a94c7c341461040a578063a9cc05361461041257610291565b8063a0098d69146103cd578063a8016711146103d557610291565b806381ca6600146103ad57806383a49c7c146103b55780638da5cb5b146103bd578063a0021cf1146103c557610291565b8063392f5f641161020e5780635c275a39116101c2578063678337f8116101a7578063678337f81461038a578063715018a6146103925780637fad8a181461039a57610291565b80635c275a391461037a578063669419841461038257610291565b8063472a0031116101f3578063472a00311461034c57806348fb27b81461035f578063583d86161461036757610291565b8063392f5f641461032f57806346b887961461034457610291565b806319f51afb116102655780632fe94def1161024a5780632fe94def1461030c5780633140a8611461031457806332fe7b261461032757610291565b806319f51afb146102ef5780631bc5d81d1461030457610291565b8062fae52b14610296578063065d570f146102bf57806317eef6f3146102d457806318e843b7146102dc575b600080fd5b6102a96102a43660046116d9565b6104c2565b6040516102b69190611963565b60405180910390f35b6102c76104d4565b6040516102b6919061192a565b6102a96104d9565b6102a96102ea3660046116d9565b6104df565b6103026102fd366004611731565b6104f1565b005b6102c76105c4565b6102c76105c9565b6102a9610322366004611731565b6105ce565b6102c76105f3565b6103376105f8565b6040516102b6919061178c565b6102c7610614565b61030261035a36600461175a565b610619565b6102c761077b565b6102a96103753660046116f3565b610780565b6102c76108d7565b6102c76108dc565b6102a96108e1565b6103026108e7565b6102a96103a83660046116d9565b6109c9565b6102c76109db565b6102c76109e0565b6103376109e5565b6102a9610a01565b6102c7610a07565b6103026103e336600461175a565b610a0c565b6103fb6103f63660046116c1565b610ac4565b6040516102b69392919061196c565b6102c7610afb565b6102c7610b00565b6102a96104283660046116d9565b610b05565b61030261043b366004611731565b610b17565b6102a961044e3660046116d9565b610c71565b6102c7610c83565b6103026104693660046116f3565b610c88565b6102c7610ddb565b6103026104843660046116d9565b610de0565b6102a96104973660046116d9565b610dec565b6103026104aa366004611669565b610dfe565b6103026104bd36600461175a565b610f4c565b60096020526000908152604090205481565b600381565b60035481565b60056020526000908152604090205481565b6104f9610ff9565b73ffffffffffffffffffffffffffffffffffffffff166105176109e5565b73ffffffffffffffffffffffffffffffffffffffff161461056d576040517f08c379a00000000000000000000000000000000000000000000000000000000081526004016105649061183b565b60405180910390fd5b60ff82166000908152600a60205260409020546105b6576040517f08c379a0000000000000000000000000000000000000000000000000000000008152600401610564906118cd565b6105c08282610ffd565b5050565b600881565b606981565b600860205281600052604060002081600681106105ea57600080fd5b01549150829050565b606781565b60005473ffffffffffffffffffffffffffffffffffffffff1681565b600681565b610621610ff9565b73ffffffffffffffffffffffffffffffffffffffff1661063f6109e5565b73ffffffffffffffffffffffffffffffffffffffff161461068c576040517f08c379a00000000000000000000000000000000000000000000000000000000081526004016105649061183b565b6106968383610ffd565b60ff831660009081526007602052604081208290556106ba613840620151806119b0565b6106c490836119b0565b905060005b6106d8613840620151806119b0565b81101561073f5760ff851660009081526008602052604090208290826006811061072b577f4e487b7100000000000000000000000000000000000000000000000000000000600052603260045260246000fd5b01558061073781611a18565b9150506106c9565b5061074c613840426119b0565b60ff9094166000908152600a6020908152604080832096909655600c9052939093206401000000009055505050565b606681565b600061078b3361109b565b6107c1576040517f08c379a000000000000000000000000000000000000000000000000000000000815260040161056490611870565b6107ca8461114d565b60ff84166000908152600b6020526040812080548492906107ec908490611998565b909155505060ff841660009081526009602052604081208054849290610813908490611998565b90915550506040805160608101825260ff86166000908152600c602090815283822054835273ffffffffffffffffffffffffffffffffffffffff878116828501908152848601888152600e80548652600d9094529584209451855551600180860180547fffffffffffffffffffffffff0000000000000000000000000000000000000000169290931691909117909155935160029093019290925581546108bb908490611998565b9091555050600e546108cf90600190611a01565b949350505050565b606581565b600181565b60065481565b6108ef610ff9565b73ffffffffffffffffffffffffffffffffffffffff1661090d6109e5565b73ffffffffffffffffffffffffffffffffffffffff161461095a576040517f08c379a00000000000000000000000000000000000000000000000000000000081526004016105649061183b565b60015460405160009173ffffffffffffffffffffffffffffffffffffffff16907f8be0079c531659141344cd1fd0a4f28419497f9722a3daafe3b4186f6b6457e0908390a3600180547fffffffffffffffffffffffff0000000000000000000000000000000000000000169055565b600c6020526000908152604090205481565b606a81565b600981565b60015473ffffffffffffffffffffffffffffffffffffffff1690565b600e5481565b600281565b610a153361109b565b610a4b576040517f08c379a000000000000000000000000000000000000000000000000000000000815260040161056490611870565b610a548361114d565b6000828152600d60205260409020610a6c848261148d565b6401000000008260020154610a8191906119c4565b610a8b91906119b0565b816000016000828254610a9e9190611a01565b9250508190555081816002016000828254610ab99190611a01565b909155505050505050565b600d60205260009081526040902080546001820154600290920154909173ffffffffffffffffffffffffffffffffffffffff169083565b600581565b606881565b600a6020526000908152604090205481565b610b203361109b565b610b56576040517f08c379a000000000000000000000000000000000000000000000000000000000815260040161056490611870565b610b5f8261114d565b6000818152600d6020526040812090610b78848361148d565b9050610b826114d5565b60025460018401546040517fd9caed1200000000000000000000000000000000000000000000000000000000815273ffffffffffffffffffffffffffffffffffffffff9384169363d9caed1293610be4939082169291169086906004016117ad565b602060405180830381600087803b158015610bfe57600080fd5b505af1158015610c12573d6000803e3d6000fd5b505050506040513d601f19601f82011682018060405250810190610c3691906116a1565b50506001810180547fffffffffffffffffffffffff000000000000000000000000000000000000000016905560008082556002909101555050565b600b6020526000908152604090205481565b600481565b610c913361109b565b610cc7576040517f08c379a000000000000000000000000000000000000000000000000000000000815260040161056490611870565b610cd08361114d565b60ff831660009081526009602052604081208054839290610cf2908490611998565b9091555060009050640100000000610d0985611582565b610d1390846119c4565b610d1d91906119b0565b9050610d276114d5565b6002546040517fd9caed1200000000000000000000000000000000000000000000000000000000815273ffffffffffffffffffffffffffffffffffffffff9283169263d9caed1292610d8292911690879086906004016117ad565b602060405180830381600087803b158015610d9c57600080fd5b505af1158015610db0573d6000803e3d6000fd5b505050506040513d601f19601f82011682018060405250810190610dd491906116a1565b5050505050565b600781565b610de98161114d565b50565b60076020526000908152604090205481565b610e06610ff9565b73ffffffffffffffffffffffffffffffffffffffff16610e246109e5565b73ffffffffffffffffffffffffffffffffffffffff1614610e71576040517f08c379a00000000000000000000000000000000000000000000000000000000081526004016105649061183b565b73ffffffffffffffffffffffffffffffffffffffff8116610ebe576040517f08c379a0000000000000000000000000000000000000000000000000000000008152600401610564906117de565b60015460405173ffffffffffffffffffffffffffffffffffffffff8084169216907f8be0079c531659141344cd1fd0a4f28419497f9722a3daafe3b4186f6b6457e090600090a3600180547fffffffffffffffffffffffff00000000000000000000000000000000000000001673ffffffffffffffffffffffffffffffffffffffff92909216919091179055565b610f553361109b565b610f8b576040517f08c379a000000000000000000000000000000000000000000000000000000000815260040161056490611870565b610f948361114d565b6000828152600d60205260409020610fac848261148d565b6401000000008260020154610fc191906119c4565b610fcb91906119b0565b816000016000828254610fde9190611a01565b9250508190555081816002016000828254610ab99190611998565b3390565b60ff82166000908152600560205260409020548111156110505760ff82166000908152600560205260409020546110349082611a01565b600660008282546110459190611998565b909155506110859050565b60ff821660009081526005602052604090205461106e908290611a01565b6006600082825461107f9190611a01565b90915550505b60ff909116600090815260056020526040902055565b600080546040517fd87fefd200000000000000000000000000000000000000000000000000000000815273ffffffffffffffffffffffffffffffffffffffff9091169063d87fefd2906110f5906008908690600401611939565b60206040518083038186803b15801561110d57600080fd5b505afa158015611121573d6000803e3d6000fd5b505050506040513d601f19601f8201168201806040525081019061114591906116a1565b90505b919050565b600061115b613840426119b0565b90506111656115f1565b60ff82166000908152600a6020526040812054906111838284611a01565b9050611194613840620151806119b0565b8111156112ac5760ff84166000908152600b60205260409020546111bd613840620151806119b0565b6111c790826119c4565b60ff86166000908152600760205260408120919091555b6111ed613840620151806119b0565b8110156112545760ff8616600090815260086020526040902082908260068110611240577f4e487b7100000000000000000000000000000000000000000000000000000000600052603260045260246000fd5b01558061124c81611a18565b9150506111de565b5060ff851660009081526009602052604090208190558161127486611582565b61127e91906119c4565b60ff86166000908152600c6020526040812080549091906112a0908490611998565b90915550611475915050565b815b838110156114735760006112c7613840620151806119b0565b6112d19083611a51565b90506112dc86611582565b60ff87166000908152600c6020526040812080549091906112fe908490611998565b909155505060ff86166000908152600860205260409020816006811061134d577f4e487b7100000000000000000000000000000000000000000000000000000000600052603260045260246000fd5b015460ff871660009081526007602052604081208054909190611371908490611a01565b909155505060ff8616600090815260096020908152604080832054600890925290912082600681106113cc577f4e487b7100000000000000000000000000000000000000000000000000000000600052603260045260246000fd5b015560ff861660009081526008602052604090208160068110611418577f4e487b7100000000000000000000000000000000000000000000000000000000600052603260045260246000fd5b015460ff87166000908152600760205260408120805490919061143c908490611998565b90915550505060ff85166000908152600b60209081526040808320546009909252909120558061146b81611a18565b9150506112ae565b505b505060ff9091166000908152600a6020526040902055565b805460ff83166000908152600c60205260408120549091640100000000916114b59190611a01565b83600201546114c491906119c4565b6114ce91906119b0565b9392505050565b600080546040517f3c9c8f9c00000000000000000000000000000000000000000000000000000000815273ffffffffffffffffffffffffffffffffffffffff90911690633c9c8f9c9061152d9060659060040161192a565b60206040518083038186803b15801561154557600080fd5b505afa158015611559573d6000803e3d6000fd5b505050506040513d601f19601f8201168201806040525081019061157d9190611685565b905090565b60065460ff82166000908152600560205260408120546003549192839290916115aa916119c4565b6115b9906401000000006119c4565b6115c391906119b0565b90506115d4613840620151806119b0565b60ff84166000908152600760205260409020546114c490836119b0565b600061160062015180426119b0565b90506000600454826116129190611a01565b905060005b81811015611651576103e86103e760035461163291906119c4565b61163c91906119b0565b6003558061164981611a18565b915050611617565b5050600455565b803560ff8116811461114857600080fd5b60006020828403121561167a578081fd5b81356114ce81611ac3565b600060208284031215611696578081fd5b81516114ce81611ac3565b6000602082840312156116b2578081fd5b815180151581146114ce578182fd5b6000602082840312156116d2578081fd5b5035919050565b6000602082840312156116ea578081fd5b6114ce82611658565b600080600060608486031215611707578182fd5b61171084611658565b9250602084013561172081611ac3565b929592945050506040919091013590565b60008060408385031215611743578182fd5b61174c83611658565b946020939093013593505050565b60008060006060848603121561176e578283fd5b61177784611658565b95602085013595506040909401359392505050565b73ffffffffffffffffffffffffffffffffffffffff91909116815260200190565b73ffffffffffffffffffffffffffffffffffffffff9384168152919092166020820152604081019190915260600190565b60208082526026908201527f4f776e61626c653a206e6577206f776e657220697320746865207a65726f206160408201527f6464726573730000000000000000000000000000000000000000000000000000606082015260800190565b6020808252818101527f4f776e61626c653a2063616c6c6572206973206e6f7420746865206f776e6572604082015260600190565b6020808252602c908201527f436f6e7472616374206e6f7420617574686f72697a656420746f207265706f7260408201527f7420696e63656e74697665730000000000000000000000000000000000000000606082015260800190565b60208082526033908201527f5472616e636865206973206e6f7420696e697469616c697a65642c20706c656160408201527f736520696e697469616c697a6520666972737400000000000000000000000000606082015260800190565b61ffff91909116815260200190565b61ffff92909216825273ffffffffffffffffffffffffffffffffffffffff16602082015260400190565b90815260200190565b92835273ffffffffffffffffffffffffffffffffffffffff919091166020830152604082015260600190565b600082198211156119ab576119ab611a65565b500190565b6000826119bf576119bf611a94565b500490565b6000817fffffffffffffffffffffffffffffffffffffffffffffffffffffffffffffffff04831182151516156119fc576119fc611a65565b500290565b600082821015611a1357611a13611a65565b500390565b60007fffffffffffffffffffffffffffffffffffffffffffffffffffffffffffffffff821415611a4a57611a4a611a65565b5060010190565b600082611a6057611a60611a94565b500690565b7f4e487b7100000000000000000000000000000000000000000000000000000000600052601160045260246000fd5b7f4e487b7100000000000000000000000000000000000000000000000000000000600052601260045260246000fd5b73ffffffffffffffffffffffffffffffffffffffff81168114610de957600080fdfea264697066735822122091a7872c6204382ea4a2d1dc3384263be212a9ba09a5b3d2d33effbbc3e99da364736f6c63430008010033",
  "linkReferences": {},
  "deployedLinkReferences": {}
}