{
  "_format": "hh-sol-artifact-1",
  "contractName": "IncentiveDistribution",
  "sourceName": "contracts/IncentiveDistribution.sol",
  "abi": [
    {
      "inputs": [
        {
          "internalType": "address",
          "name": "_MFI",
          "type": "address"
        },
        {
          "internalType": "uint256",
          "name": "startingDailyDistributionWithoutDecimals",
          "type": "uint256"
        },
        {
          "internalType": "address",
          "name": "_roles",
          "type": "address"
        }
      ],
      "stateMutability": "nonpayable",
      "type": "constructor"
    },
    {
      "anonymous": false,
      "inputs": [
        {
          "indexed": true,
          "internalType": "address",
          "name": "previousOwner",
          "type": "address"
        },
        {
          "indexed": true,
          "internalType": "address",
          "name": "newOwner",
          "type": "address"
        }
      ],
      "name": "OwnershipTransferred",
      "type": "event"
    },
    {
      "inputs": [],
      "name": "AUTHORIZED_FUND_TRADER",
      "outputs": [
        {
          "internalType": "uint16",
          "name": "",
          "type": "uint16"
        }
      ],
      "stateMutability": "view",
      "type": "function"
    },
    {
      "inputs": [],
      "name": "BORROWER",
      "outputs": [
        {
          "internalType": "uint16",
          "name": "",
          "type": "uint16"
        }
      ],
      "stateMutability": "view",
      "type": "function"
    },
    {
      "inputs": [],
      "name": "FEE_CONTROLLER",
      "outputs": [
        {
          "internalType": "uint16",
          "name": "",
          "type": "uint16"
        }
      ],
      "stateMutability": "view",
      "type": "function"
    },
    {
      "inputs": [],
      "name": "FEE_SOURCE",
      "outputs": [
        {
          "internalType": "uint16",
          "name": "",
          "type": "uint16"
        }
      ],
      "stateMutability": "view",
      "type": "function"
    },
    {
      "inputs": [],
      "name": "FUND",
      "outputs": [
        {
          "internalType": "uint16",
          "name": "",
          "type": "uint16"
        }
      ],
      "stateMutability": "view",
      "type": "function"
    },
    {
      "inputs": [],
      "name": "INCENTIVE_REPORTER",
      "outputs": [
        {
          "internalType": "uint16",
          "name": "",
          "type": "uint16"
        }
      ],
      "stateMutability": "view",
      "type": "function"
    },
    {
      "inputs": [],
      "name": "LENDING",
      "outputs": [
        {
          "internalType": "uint16",
          "name": "",
          "type": "uint16"
        }
      ],
      "stateMutability": "view",
      "type": "function"
    },
    {
      "inputs": [],
      "name": "LIQUIDATOR",
      "outputs": [
        {
          "internalType": "uint16",
          "name": "",
          "type": "uint16"
        }
      ],
      "stateMutability": "view",
      "type": "function"
    },
    {
      "inputs": [],
      "name": "MARGIN_CALLER",
      "outputs": [
        {
          "internalType": "uint16",
          "name": "",
          "type": "uint16"
        }
      ],
      "stateMutability": "view",
      "type": "function"
    },
    {
      "inputs": [],
      "name": "MARGIN_TRADER",
      "outputs": [
        {
          "internalType": "uint16",
          "name": "",
          "type": "uint16"
        }
      ],
      "stateMutability": "view",
      "type": "function"
    },
    {
      "inputs": [],
      "name": "MARGIN_TRADING",
      "outputs": [
        {
          "internalType": "uint16",
          "name": "",
          "type": "uint16"
        }
      ],
      "stateMutability": "view",
      "type": "function"
    },
    {
      "inputs": [],
      "name": "PRICE_CONTROLLER",
      "outputs": [
        {
          "internalType": "uint16",
          "name": "",
          "type": "uint16"
        }
      ],
      "stateMutability": "view",
      "type": "function"
    },
    {
      "inputs": [],
      "name": "ROUTER",
      "outputs": [
        {
          "internalType": "uint16",
          "name": "",
          "type": "uint16"
        }
      ],
      "stateMutability": "view",
      "type": "function"
    },
    {
      "inputs": [],
      "name": "TOKEN_ACTIVATOR",
      "outputs": [
        {
          "internalType": "uint16",
          "name": "",
          "type": "uint16"
        }
      ],
      "stateMutability": "view",
      "type": "function"
    },
    {
      "inputs": [],
      "name": "WITHDRAWER",
      "outputs": [
        {
          "internalType": "uint16",
          "name": "",
          "type": "uint16"
        }
      ],
      "stateMutability": "view",
      "type": "function"
    },
    {
      "inputs": [
        {
          "internalType": "uint8",
          "name": "tranche",
          "type": "uint8"
        },
        {
          "internalType": "uint256",
          "name": "claimId",
          "type": "uint256"
        },
        {
          "internalType": "uint256",
          "name": "additionalAmount",
          "type": "uint256"
        }
      ],
      "name": "addToClaimAmount",
      "outputs": [],
      "stateMutability": "nonpayable",
      "type": "function"
    },
    {
      "inputs": [
        {
          "internalType": "uint8",
          "name": "",
          "type": "uint8"
        }
      ],
      "name": "aggregateHourlyRewardRateFP",
      "outputs": [
        {
          "internalType": "uint256",
          "name": "",
          "type": "uint256"
        }
      ],
      "stateMutability": "view",
      "type": "function"
    },
    {
      "inputs": [
        {
          "internalType": "uint256",
          "name": "",
          "type": "uint256"
        }
      ],
      "name": "claims",
      "outputs": [
        {
          "internalType": "uint256",
          "name": "startingRewardRateFP",
          "type": "uint256"
        },
        {
          "internalType": "address",
          "name": "recipient",
          "type": "address"
        },
        {
          "internalType": "uint256",
          "name": "amount",
          "type": "uint256"
        }
      ],
      "stateMutability": "view",
      "type": "function"
    },
    {
      "inputs": [],
      "name": "currentDailyDistribution",
      "outputs": [
        {
          "internalType": "uint256",
          "name": "",
          "type": "uint256"
        }
      ],
      "stateMutability": "view",
      "type": "function"
    },
    {
      "inputs": [
        {
          "internalType": "uint8",
          "name": "",
          "type": "uint8"
        }
      ],
      "name": "currentDayTotals",
      "outputs": [
        {
          "internalType": "uint256",
          "name": "",
          "type": "uint256"
        }
      ],
      "stateMutability": "view",
      "type": "function"
    },
    {
      "inputs": [
        {
          "internalType": "uint8",
          "name": "",
          "type": "uint8"
        }
      ],
      "name": "currentHourTotals",
      "outputs": [
        {
          "internalType": "uint256",
          "name": "",
          "type": "uint256"
        }
      ],
      "stateMutability": "view",
      "type": "function"
    },
    {
      "inputs": [
        {
          "internalType": "uint8",
          "name": "tranche",
          "type": "uint8"
        },
        {
          "internalType": "uint256",
          "name": "claimId",
          "type": "uint256"
        }
      ],
      "name": "endClaim",
      "outputs": [],
      "stateMutability": "nonpayable",
      "type": "function"
    },
    {
      "inputs": [
        {
          "internalType": "uint8",
          "name": "tranche",
          "type": "uint8"
        }
      ],
      "name": "forceHourTotalUpdate",
      "outputs": [],
      "stateMutability": "nonpayable",
      "type": "function"
    },
    {
      "inputs": [
        {
          "internalType": "uint8",
          "name": "tranche",
          "type": "uint8"
        },
        {
          "internalType": "address",
          "name": "recipient",
          "type": "address"
        },
        {
          "internalType": "uint256",
          "name": "spotAmount",
          "type": "uint256"
        }
      ],
      "name": "getSpotReward",
      "outputs": [],
      "stateMutability": "nonpayable",
      "type": "function"
    },
    {
      "inputs": [
        {
          "internalType": "uint8",
          "name": "",
          "type": "uint8"
        },
        {
          "internalType": "uint256",
          "name": "",
          "type": "uint256"
        }
      ],
      "name": "hourlyTotals",
      "outputs": [
        {
          "internalType": "uint256",
          "name": "",
          "type": "uint256"
        }
      ],
      "stateMutability": "view",
      "type": "function"
    },
    {
      "inputs": [
        {
          "internalType": "uint8",
          "name": "tranche",
          "type": "uint8"
        },
        {
          "internalType": "uint256",
          "name": "share",
          "type": "uint256"
        },
        {
          "internalType": "uint256",
          "name": "assumedInitialDailyTotal",
          "type": "uint256"
        }
      ],
      "name": "initTranche",
      "outputs": [],
      "stateMutability": "nonpayable",
      "type": "function"
    },
    {
      "inputs": [
        {
          "internalType": "uint8",
          "name": "",
          "type": "uint8"
        }
      ],
      "name": "lastUpdatedHours",
      "outputs": [
        {
          "internalType": "uint256",
          "name": "",
          "type": "uint256"
        }
      ],
      "stateMutability": "view",
      "type": "function"
    },
    {
      "inputs": [],
      "name": "nextClaimId",
      "outputs": [
        {
          "internalType": "uint256",
          "name": "",
          "type": "uint256"
        }
      ],
      "stateMutability": "view",
      "type": "function"
    },
    {
      "inputs": [
        {
          "internalType": "uint8",
          "name": "",
          "type": "uint8"
        }
      ],
      "name": "ongoingTotals",
      "outputs": [
        {
          "internalType": "uint256",
          "name": "",
          "type": "uint256"
        }
      ],
      "stateMutability": "view",
      "type": "function"
    },
    {
      "inputs": [],
      "name": "owner",
      "outputs": [
        {
          "internalType": "address",
          "name": "",
          "type": "address"
        }
      ],
      "stateMutability": "view",
      "type": "function"
    },
    {
      "inputs": [],
      "name": "renounceOwnership",
      "outputs": [],
      "stateMutability": "nonpayable",
      "type": "function"
    },
    {
      "inputs": [],
      "name": "roles",
      "outputs": [
        {
          "internalType": "contract Roles",
          "name": "",
          "type": "address"
        }
      ],
      "stateMutability": "view",
      "type": "function"
    },
    {
      "inputs": [
        {
          "internalType": "uint8",
          "name": "tranche",
          "type": "uint8"
        },
        {
          "internalType": "uint256",
          "name": "share",
          "type": "uint256"
        }
      ],
      "name": "setTrancheShare",
      "outputs": [],
      "stateMutability": "nonpayable",
      "type": "function"
    },
    {
      "inputs": [
        {
          "internalType": "uint8",
          "name": "tranche",
          "type": "uint8"
        },
        {
          "internalType": "address",
          "name": "recipient",
          "type": "address"
        },
        {
          "internalType": "uint256",
          "name": "claimAmount",
          "type": "uint256"
        }
      ],
      "name": "startClaim",
      "outputs": [
        {
          "internalType": "uint256",
          "name": "",
          "type": "uint256"
        }
      ],
      "stateMutability": "nonpayable",
      "type": "function"
    },
    {
      "inputs": [
        {
          "internalType": "uint8",
          "name": "tranche",
          "type": "uint8"
        },
        {
          "internalType": "uint256",
          "name": "claimId",
          "type": "uint256"
        },
        {
          "internalType": "uint256",
          "name": "subtractAmount",
          "type": "uint256"
        }
      ],
      "name": "subtractFromClaimAmount",
      "outputs": [],
      "stateMutability": "nonpayable",
      "type": "function"
    },
    {
      "inputs": [
        {
          "internalType": "uint8",
          "name": "",
          "type": "uint8"
        }
      ],
      "name": "trancheShare",
      "outputs": [
        {
          "internalType": "uint256",
          "name": "",
          "type": "uint256"
        }
      ],
      "stateMutability": "view",
      "type": "function"
    },
    {
      "inputs": [],
      "name": "trancheShareTotal",
      "outputs": [
        {
          "internalType": "uint256",
          "name": "",
          "type": "uint256"
        }
      ],
      "stateMutability": "view",
      "type": "function"
    },
    {
      "inputs": [
        {
          "internalType": "address",
          "name": "newOwner",
          "type": "address"
        }
      ],
      "name": "transferOwnership",
      "outputs": [],
      "stateMutability": "nonpayable",
      "type": "function"
    }
  ],
  "bytecode": "0x60806040526103e76002553480156200001757600080fd5b5060405162001aff38038062001aff8339810160408190526200003a916200010a565b600080546001600160a01b0319166001600160a01b0383161781556200005f620000e9565b600180546001600160a01b0319166001600160a01b038316908117909155604051919250906000907f8be0079c531659141344cd1fd0a4f28419497f9722a3daafe3b4186f6b6457e0908290a350600380546001600160a01b0319166001600160a01b038516179055620000dc82670de0b6b3a76400006200014a565b6004555062000176915050565b3390565b80516001600160a01b03811681146200010557600080fd5b919050565b6000806000606084860312156200011f578283fd5b6200012a84620000ed565b9250602084015191506200014160408501620000ed565b90509250925092565b60008160001904831182151516156200017157634e487b7160e01b81526011600452602481fd5b500290565b61197980620001866000396000f3fe608060405234801561001057600080fd5b50600436106102925760003560e01c806381ca660011610160578063a9cc0536116100d8578063d5d7ed7f1161008c578063f24696da11610071578063f24696da1461048a578063f2fde38b1461049d578063f5428087146104b057610292565b8063d5d7ed7f1461046f578063d642aa4c1461047757610292565b8063ca2137fc116100bd578063ca2137fc14610441578063cacf8d4514610454578063cdb0aa461461045c57610292565b8063a9cc053614610426578063c6de9d5d1461042e57610292565b8063a0021cf11161012f578063a801671111610114578063a8016711146103e9578063a888c2cd146103fc578063a94c7c341461041e57610292565b8063a0021cf1146103d9578063a0098d69146103e157610292565b806381ca6600146103ae57806383a49c7c146103b657806386b77881146103be5780638da5cb5b146103d157610292565b8063392f5f641161020e5780635c275a39116101c2578063678337f8116101a7578063678337f81461038b57806370c5663f14610393578063715018a6146103a657610292565b80635c275a391461037b578063669419841461038357610292565b8063472a0031116101f3578063472a00311461034d57806348fb27b814610360578063583d86161461036857610292565b8063392f5f641461033057806346b887961461034557610292565b80631bc5d81d11610265578063246b9e741161024a578063246b9e741461030d5780632fe94def1461032057806332fe7b261461032857610292565b80631bc5d81d146102f25780631e478f92146102fa57610292565b8063065d570f1461029757806317eef6f3146102b557806318e843b7146102ca57806319f51afb146102dd575b600080fd5b61029f6104c3565b6040516102ac9190611788565b60405180910390f35b6102bd6104c8565b6040516102ac91906117c1565b6102bd6102d8366004611537565b6104ce565b6102f06102eb36600461158f565b6104e0565b005b61029f6105b3565b6102bd61030836600461158f565b6105b8565b6102bd61031b366004611537565b6105dd565b61029f6105ef565b61029f6105f4565b6103386105f9565b6040516102ac91906115ea565b61029f610615565b6102f061035b3660046115b8565b61061a565b61029f610761565b6102bd610376366004611551565b610766565b61029f6108bd565b61029f6108c2565b6102bd6108c7565b6102bd6103a1366004611537565b6108cd565b6102f06108df565b61029f6109c1565b61029f6109c6565b6102f06103cc366004611537565b6109cb565b6103386109d7565b6102bd6109f3565b61029f6109f9565b6102f06103f73660046115b8565b6109fe565b61040f61040a36600461151f565b610ab6565b6040516102ac939291906117ca565b61029f610aed565b61029f610af2565b6102f061043c36600461158f565b610af7565b6102bd61044f366004611537565b610c51565b61029f610c63565b6102f061046a366004611551565b610c68565b61029f610dbb565b6102bd610485366004611537565b610dc0565b6102bd610498366004611537565b610dd2565b6102f06104ab3660046114c7565b610de4565b6102f06104be3660046115b8565b610f32565b600381565b60045481565b60056020526000908152604090205481565b6104e8610fdf565b73ffffffffffffffffffffffffffffffffffffffff166105066109d7565b73ffffffffffffffffffffffffffffffffffffffff161461055c576040517f08c379a000000000000000000000000000000000000000000000000000000000815260040161055390611699565b60405180910390fd5b60ff82166000908152600a60205260409020546105a5576040517f08c379a00000000000000000000000000000000000000000000000000000000081526004016105539061172b565b6105af8282610fe3565b5050565b600881565b600860205281600052604060002081601881106105d457600080fd5b01549150829050565b600c6020526000908152604090205481565b606981565b606781565b60005473ffffffffffffffffffffffffffffffffffffffff1681565b600681565b610622610fdf565b73ffffffffffffffffffffffffffffffffffffffff166106406109d7565b73ffffffffffffffffffffffffffffffffffffffff161461068d576040517f08c379a000000000000000000000000000000000000000000000000000000000815260040161055390611699565b6106978383610fe3565b60ff831660009081526007602052604081208290556106b760188361180e565b905060005b60188110156107255760ff8516600090815260086020526040902082908260188110610711577f4e487b7100000000000000000000000000000000000000000000000000000000600052603260045260246000fd5b01558061071d81611876565b9150506106bc565b50610732610e104261180e565b60ff9094166000908152600a6020908152604080832096909655600c9052939093206401000000009055505050565b606681565b600061077133611081565b6107a7576040517f08c379a0000000000000000000000000000000000000000000000000000000008152600401610553906116ce565b6107b084611133565b60ff84166000908152600b6020526040812080548492906107d29084906117f6565b909155505060ff8416600090815260096020526040812080548492906107f99084906117f6565b90915550506040805160608101825260ff86166000908152600c602090815283822054835273ffffffffffffffffffffffffffffffffffffffff878116828501908152848601888152600e80548652600d9094529584209451855551600180860180547fffffffffffffffffffffffff0000000000000000000000000000000000000000169290931691909117909155935160029093019290925581546108a19084906117f6565b9091555050600e546108b59060019061185f565b949350505050565b606581565b600181565b60065481565b60096020526000908152604090205481565b6108e7610fdf565b73ffffffffffffffffffffffffffffffffffffffff166109056109d7565b73ffffffffffffffffffffffffffffffffffffffff1614610952576040517f08c379a000000000000000000000000000000000000000000000000000000000815260040161055390611699565b60015460405160009173ffffffffffffffffffffffffffffffffffffffff16907f8be0079c531659141344cd1fd0a4f28419497f9722a3daafe3b4186f6b6457e0908390a3600180547fffffffffffffffffffffffff0000000000000000000000000000000000000000169055565b606a81565b600981565b6109d481611133565b50565b60015473ffffffffffffffffffffffffffffffffffffffff1690565b600e5481565b600281565b610a0733611081565b610a3d576040517f08c379a0000000000000000000000000000000000000000000000000000000008152600401610553906116ce565b610a4683611133565b6000828152600d60205260409020610a5e848261135d565b6401000000008260020154610a739190611822565b610a7d919061180e565b816000016000828254610a90919061185f565b9250508190555081816002016000828254610aab919061185f565b909155505050505050565b600d60205260009081526040902080546001820154600290920154909173ffffffffffffffffffffffffffffffffffffffff169083565b600581565b606881565b610b0033611081565b610b36576040517f08c379a0000000000000000000000000000000000000000000000000000000008152600401610553906116ce565b610b3f82611133565b6000818152600d6020526040812090610b58848361135d565b9050610b626113a5565b60035460018401546040517fd9caed1200000000000000000000000000000000000000000000000000000000815273ffffffffffffffffffffffffffffffffffffffff9384169363d9caed1293610bc49390821692911690869060040161160b565b602060405180830381600087803b158015610bde57600080fd5b505af1158015610bf2573d6000803e3d6000fd5b505050506040513d601f19601f82011682018060405250810190610c1691906114ff565b50506001810180547fffffffffffffffffffffffff000000000000000000000000000000000000000016905560008082556002909101555050565b600b6020526000908152604090205481565b600481565b610c7133611081565b610ca7576040517f08c379a0000000000000000000000000000000000000000000000000000000008152600401610553906116ce565b610cb083611133565b60ff831660009081526009602052604081208054839290610cd29084906117f6565b9091555060009050640100000000610ce985611452565b610cf39084611822565b610cfd919061180e565b9050610d076113a5565b6003546040517fd9caed1200000000000000000000000000000000000000000000000000000000815273ffffffffffffffffffffffffffffffffffffffff9283169263d9caed1292610d62929116908790869060040161160b565b602060405180830381600087803b158015610d7c57600080fd5b505af1158015610d90573d6000803e3d6000fd5b505050506040513d601f19601f82011682018060405250810190610db491906114ff565b5050505050565b600781565b600a6020526000908152604090205481565b60076020526000908152604090205481565b610dec610fdf565b73ffffffffffffffffffffffffffffffffffffffff16610e0a6109d7565b73ffffffffffffffffffffffffffffffffffffffff1614610e57576040517f08c379a000000000000000000000000000000000000000000000000000000000815260040161055390611699565b73ffffffffffffffffffffffffffffffffffffffff8116610ea4576040517f08c379a00000000000000000000000000000000000000000000000000000000081526004016105539061163c565b60015460405173ffffffffffffffffffffffffffffffffffffffff8084169216907f8be0079c531659141344cd1fd0a4f28419497f9722a3daafe3b4186f6b6457e090600090a3600180547fffffffffffffffffffffffff00000000000000000000000000000000000000001673ffffffffffffffffffffffffffffffffffffffff92909216919091179055565b610f3b33611081565b610f71576040517f08c379a0000000000000000000000000000000000000000000000000000000008152600401610553906116ce565b610f7a83611133565b6000828152600d60205260409020610f92848261135d565b6401000000008260020154610fa79190611822565b610fb1919061180e565b816000016000828254610fc4919061185f565b9250508190555081816002016000828254610aab91906117f6565b3390565b60ff82166000908152600560205260409020548111156110365760ff821660009081526005602052604090205461101a908261185f565b6006600082825461102b91906117f6565b9091555061106b9050565b60ff821660009081526005602052604090205461105490829061185f565b60066000828254611065919061185f565b90915550505b60ff909116600090815260056020526040902055565b600080546040517fd87fefd200000000000000000000000000000000000000000000000000000000815273ffffffffffffffffffffffffffffffffffffffff9091169063d87fefd2906110db906008908690600401611797565b60206040518083038186803b1580156110f357600080fd5b505afa158015611107573d6000803e3d6000fd5b505050506040513d601f19601f8201168201806040525081019061112b91906114ff565b90505b919050565b6000611141610e104261180e565b60ff83166000908152600a60205260409020549091505b8181101561135857600061116d6018836118af565b905061117884611452565b60ff85166000908152600c60205260408120805490919061119a9084906117f6565b909155505060ff8416600090815260086020526040902081601881106111e9577f4e487b7100000000000000000000000000000000000000000000000000000000600052603260045260246000fd5b015460ff85166000908152600760205260408120805490919061120d90849061185f565b909155505060ff841660009081526009602090815260408083205460089092529091208260188110611268577f4e487b7100000000000000000000000000000000000000000000000000000000600052603260045260246000fd5b015560ff8416600090815260086020526040902081601881106112b4577f4e487b7100000000000000000000000000000000000000000000000000000000600052603260045260246000fd5b015460ff8516600090815260076020526040812080549091906112d89084906117f6565b909155505060ff84166000908152600b60209081526040808320546009909252909120556113078160016117f6565b60181415611330576103e86002546004546113229190611822565b61132c919061180e565b6004555b5060ff83166000908152600a602052604090208290558061135081611876565b915050611158565b505050565b805460ff83166000908152600c6020526040812054909164010000000091611385919061185f565b83600201546113949190611822565b61139e919061180e565b9392505050565b600080546040517f3c9c8f9c00000000000000000000000000000000000000000000000000000000815273ffffffffffffffffffffffffffffffffffffffff90911690633c9c8f9c906113fd90606590600401611788565b60206040518083038186803b15801561141557600080fd5b505afa158015611429573d6000803e3d6000fd5b505050506040513d601f19601f8201168201806040525081019061144d91906114e3565b905090565b60065460ff821660009081526005602052604081205460045491928392909161147a91611822565b61148990640100000000611822565b611493919061180e565b60ff8416600090815260076020526040902054909150601890611394908361180e565b803560ff8116811461112e57600080fd5b6000602082840312156114d8578081fd5b813561139e81611921565b6000602082840312156114f4578081fd5b815161139e81611921565b600060208284031215611510578081fd5b8151801515811461139e578182fd5b600060208284031215611530578081fd5b5035919050565b600060208284031215611548578081fd5b61139e826114b6565b600080600060608486031215611565578182fd5b61156e846114b6565b9250602084013561157e81611921565b929592945050506040919091013590565b600080604083850312156115a1578182fd5b6115aa836114b6565b946020939093013593505050565b6000806000606084860312156115cc578283fd5b6115d5846114b6565b95602085013595506040909401359392505050565b73ffffffffffffffffffffffffffffffffffffffff91909116815260200190565b73ffffffffffffffffffffffffffffffffffffffff9384168152919092166020820152604081019190915260600190565b60208082526026908201527f4f776e61626c653a206e6577206f776e657220697320746865207a65726f206160408201527f6464726573730000000000000000000000000000000000000000000000000000606082015260800190565b6020808252818101527f4f776e61626c653a2063616c6c6572206973206e6f7420746865206f776e6572604082015260600190565b6020808252602c908201527f436f6e7472616374206e6f7420617574686f72697a656420746f207265706f7260408201527f7420696e63656e74697665730000000000000000000000000000000000000000606082015260800190565b60208082526033908201527f5472616e636865206973206e6f7420696e697469616c697a65642c20706c656160408201527f736520696e697469616c697a6520666972737400000000000000000000000000606082015260800190565b61ffff91909116815260200190565b61ffff92909216825273ffffffffffffffffffffffffffffffffffffffff16602082015260400190565b90815260200190565b92835273ffffffffffffffffffffffffffffffffffffffff919091166020830152604082015260600190565b60008219821115611809576118096118c3565b500190565b60008261181d5761181d6118f2565b500490565b6000817fffffffffffffffffffffffffffffffffffffffffffffffffffffffffffffffff048311821515161561185a5761185a6118c3565b500290565b600082821015611871576118716118c3565b500390565b60007fffffffffffffffffffffffffffffffffffffffffffffffffffffffffffffffff8214156118a8576118a86118c3565b5060010190565b6000826118be576118be6118f2565b500690565b7f4e487b7100000000000000000000000000000000000000000000000000000000600052601160045260246000fd5b7f4e487b7100000000000000000000000000000000000000000000000000000000600052601260045260246000fd5b73ffffffffffffffffffffffffffffffffffffffff811681146109d457600080fdfea2646970667358221220eb4c01d745b73ae1703010fff04d4c3cd4c0119ca8a5d0d25ca266f7e07353aa64736f6c63430008010033",
  "linkReferences": {},
  "deployedLinkReferences": {}
}