{
  "_format": "hh-sol-artifact-1",
  "contractName": "IncentiveDistribution",
  "sourceName": "contracts/IncentiveDistribution.sol",
  "abi": [
    {
      "inputs": [
        {
          "internalType": "address",
          "name": "_MFI",
          "type": "address"
        },
        {
          "internalType": "uint256",
          "name": "startingDailyDistributionWithoutDecimals",
          "type": "uint256"
        },
        {
          "internalType": "address",
          "name": "_roles",
          "type": "address"
        }
      ],
      "stateMutability": "nonpayable",
      "type": "constructor"
    },
    {
      "anonymous": false,
      "inputs": [
        {
          "indexed": true,
          "internalType": "address",
          "name": "previousOwner",
          "type": "address"
        },
        {
          "indexed": true,
          "internalType": "address",
          "name": "newOwner",
          "type": "address"
        }
      ],
      "name": "OwnershipTransferred",
      "type": "event"
    },
    {
      "inputs": [],
      "name": "ADMIN",
      "outputs": [
        {
          "internalType": "uint16",
          "name": "",
          "type": "uint16"
        }
      ],
      "stateMutability": "view",
      "type": "function"
    },
    {
      "inputs": [],
      "name": "AUTHORIZED_FUND_TRADER",
      "outputs": [
        {
          "internalType": "uint16",
          "name": "",
          "type": "uint16"
        }
      ],
      "stateMutability": "view",
      "type": "function"
    },
    {
      "inputs": [],
      "name": "BORROWER",
      "outputs": [
        {
          "internalType": "uint16",
          "name": "",
          "type": "uint16"
        }
      ],
      "stateMutability": "view",
      "type": "function"
    },
    {
      "inputs": [],
      "name": "FEE_CONTROLLER",
      "outputs": [
        {
          "internalType": "uint16",
          "name": "",
          "type": "uint16"
        }
      ],
      "stateMutability": "view",
      "type": "function"
    },
    {
      "inputs": [],
      "name": "FEE_SOURCE",
      "outputs": [
        {
          "internalType": "uint16",
          "name": "",
          "type": "uint16"
        }
      ],
      "stateMutability": "view",
      "type": "function"
    },
    {
      "inputs": [],
      "name": "FUND",
      "outputs": [
        {
          "internalType": "uint16",
          "name": "",
          "type": "uint16"
        }
      ],
      "stateMutability": "view",
      "type": "function"
    },
    {
      "inputs": [],
      "name": "INCENTIVE_REPORTER",
      "outputs": [
        {
          "internalType": "uint16",
          "name": "",
          "type": "uint16"
        }
      ],
      "stateMutability": "view",
      "type": "function"
    },
    {
      "inputs": [],
      "name": "LENDING",
      "outputs": [
        {
          "internalType": "uint16",
          "name": "",
          "type": "uint16"
        }
      ],
      "stateMutability": "view",
      "type": "function"
    },
    {
      "inputs": [],
      "name": "LIQUIDATOR",
      "outputs": [
        {
          "internalType": "uint16",
          "name": "",
          "type": "uint16"
        }
      ],
      "stateMutability": "view",
      "type": "function"
    },
    {
      "inputs": [],
      "name": "MARGIN_CALLER",
      "outputs": [
        {
          "internalType": "uint16",
          "name": "",
          "type": "uint16"
        }
      ],
      "stateMutability": "view",
      "type": "function"
    },
    {
      "inputs": [],
      "name": "MARGIN_TRADER",
      "outputs": [
        {
          "internalType": "uint16",
          "name": "",
          "type": "uint16"
        }
      ],
      "stateMutability": "view",
      "type": "function"
    },
    {
      "inputs": [],
      "name": "MARGIN_TRADING",
      "outputs": [
        {
          "internalType": "uint16",
          "name": "",
          "type": "uint16"
        }
      ],
      "stateMutability": "view",
      "type": "function"
    },
    {
      "inputs": [],
      "name": "PRICE_CONTROLLER",
      "outputs": [
        {
          "internalType": "uint16",
          "name": "",
          "type": "uint16"
        }
      ],
      "stateMutability": "view",
      "type": "function"
    },
    {
      "inputs": [],
      "name": "ROUTER",
      "outputs": [
        {
          "internalType": "uint16",
          "name": "",
          "type": "uint16"
        }
      ],
      "stateMutability": "view",
      "type": "function"
    },
    {
      "inputs": [],
      "name": "TOKEN_ACTIVATOR",
      "outputs": [
        {
          "internalType": "uint16",
          "name": "",
          "type": "uint16"
        }
      ],
      "stateMutability": "view",
      "type": "function"
    },
    {
      "inputs": [],
      "name": "WITHDRAWER",
      "outputs": [
        {
          "internalType": "uint16",
          "name": "",
          "type": "uint16"
        }
      ],
      "stateMutability": "view",
      "type": "function"
    },
    {
      "inputs": [
        {
          "internalType": "uint8",
          "name": "tranche",
          "type": "uint8"
        },
        {
          "internalType": "uint256",
          "name": "claimId",
          "type": "uint256"
        },
        {
          "internalType": "uint256",
          "name": "additionalAmount",
          "type": "uint256"
        }
      ],
      "name": "addToClaimAmount",
      "outputs": [],
      "stateMutability": "nonpayable",
      "type": "function"
    },
    {
      "inputs": [
        {
          "internalType": "uint8",
          "name": "",
          "type": "uint8"
        }
      ],
      "name": "aggregatePeriodicRewardRateFP",
      "outputs": [
        {
          "internalType": "uint256",
          "name": "",
          "type": "uint256"
        }
      ],
      "stateMutability": "view",
      "type": "function"
    },
    {
      "inputs": [
        {
          "internalType": "uint256",
          "name": "",
          "type": "uint256"
        }
      ],
      "name": "claims",
      "outputs": [
        {
          "internalType": "uint256",
          "name": "startingRewardRateFP",
          "type": "uint256"
        },
        {
          "internalType": "address",
          "name": "recipient",
          "type": "address"
        },
        {
          "internalType": "uint256",
          "name": "amount",
          "type": "uint256"
        }
      ],
      "stateMutability": "view",
      "type": "function"
    },
    {
      "inputs": [],
      "name": "currentDailyDistribution",
      "outputs": [
        {
          "internalType": "uint256",
          "name": "",
          "type": "uint256"
        }
      ],
      "stateMutability": "view",
      "type": "function"
    },
    {
      "inputs": [
        {
          "internalType": "uint8",
          "name": "",
          "type": "uint8"
        }
      ],
      "name": "currentPeriodTotals",
      "outputs": [
        {
          "internalType": "uint256",
          "name": "",
          "type": "uint256"
        }
      ],
      "stateMutability": "view",
      "type": "function"
    },
    {
      "inputs": [
        {
          "internalType": "uint8",
          "name": "tranche",
          "type": "uint8"
        },
        {
          "internalType": "uint256",
          "name": "claimId",
          "type": "uint256"
        }
      ],
      "name": "endClaim",
      "outputs": [],
      "stateMutability": "nonpayable",
      "type": "function"
    },
    {
      "inputs": [
        {
          "internalType": "uint8",
          "name": "tranche",
          "type": "uint8"
        }
      ],
      "name": "forcePeriodTotalUpdate",
      "outputs": [],
      "stateMutability": "nonpayable",
      "type": "function"
    },
    {
      "inputs": [
        {
          "internalType": "uint8",
          "name": "tranche",
          "type": "uint8"
        },
        {
          "internalType": "uint256",
          "name": "share",
          "type": "uint256"
        }
      ],
      "name": "initTranche",
      "outputs": [],
      "stateMutability": "nonpayable",
      "type": "function"
    },
    {
      "inputs": [
        {
          "internalType": "uint8",
          "name": "",
          "type": "uint8"
        }
      ],
      "name": "lastUpdatedPeriods",
      "outputs": [
        {
          "internalType": "uint256",
          "name": "",
          "type": "uint256"
        }
      ],
      "stateMutability": "view",
      "type": "function"
    },
    {
      "inputs": [],
      "name": "nextClaimId",
      "outputs": [
        {
          "internalType": "uint256",
          "name": "",
          "type": "uint256"
        }
      ],
      "stateMutability": "view",
      "type": "function"
    },
    {
      "inputs": [],
      "name": "owner",
      "outputs": [
        {
          "internalType": "address",
          "name": "",
          "type": "address"
        }
      ],
      "stateMutability": "view",
      "type": "function"
    },
    {
      "inputs": [],
      "name": "renounceOwnership",
      "outputs": [],
      "stateMutability": "nonpayable",
      "type": "function"
    },
    {
      "inputs": [],
      "name": "roles",
      "outputs": [
        {
          "internalType": "contract Roles",
          "name": "",
          "type": "address"
        }
      ],
      "stateMutability": "view",
      "type": "function"
    },
    {
      "inputs": [
        {
          "internalType": "uint8",
          "name": "tranche",
          "type": "uint8"
        },
        {
          "internalType": "uint256",
          "name": "share",
          "type": "uint256"
        }
      ],
      "name": "setTrancheShare",
      "outputs": [],
      "stateMutability": "nonpayable",
      "type": "function"
    },
    {
      "inputs": [
        {
          "internalType": "uint8",
          "name": "tranche",
          "type": "uint8"
        },
        {
          "internalType": "address",
          "name": "recipient",
          "type": "address"
        },
        {
          "internalType": "uint256",
          "name": "claimAmount",
          "type": "uint256"
        }
      ],
      "name": "startClaim",
      "outputs": [
        {
          "internalType": "uint256",
          "name": "",
          "type": "uint256"
        }
      ],
      "stateMutability": "nonpayable",
      "type": "function"
    },
    {
      "inputs": [
        {
          "internalType": "uint8",
          "name": "tranche",
          "type": "uint8"
        },
        {
          "internalType": "uint256",
          "name": "claimId",
          "type": "uint256"
        },
        {
          "internalType": "uint256",
          "name": "subtractAmount",
          "type": "uint256"
        }
      ],
      "name": "subtractFromClaimAmount",
      "outputs": [],
      "stateMutability": "nonpayable",
      "type": "function"
    },
    {
      "inputs": [
        {
          "internalType": "uint8",
          "name": "",
          "type": "uint8"
        }
      ],
      "name": "trancheShare",
      "outputs": [
        {
          "internalType": "uint256",
          "name": "",
          "type": "uint256"
        }
      ],
      "stateMutability": "view",
      "type": "function"
    },
    {
      "inputs": [],
      "name": "trancheShareTotal",
      "outputs": [
        {
          "internalType": "uint256",
          "name": "",
          "type": "uint256"
        }
      ],
      "stateMutability": "view",
      "type": "function"
    },
    {
      "inputs": [
        {
          "internalType": "address",
          "name": "newOwner",
          "type": "address"
        }
      ],
      "name": "transferOwnership",
      "outputs": [],
      "stateMutability": "nonpayable",
      "type": "function"
    },
    {
      "inputs": [
        {
          "internalType": "uint8",
          "name": "tranche",
          "type": "uint8"
        },
        {
          "internalType": "uint256",
          "name": "claimId",
          "type": "uint256"
        }
      ],
      "name": "viewRewardAmount",
      "outputs": [
        {
          "internalType": "uint256",
          "name": "",
          "type": "uint256"
        }
      ],
      "stateMutability": "view",
      "type": "function"
    },
    {
      "inputs": [
        {
          "internalType": "uint8",
          "name": "tranche",
          "type": "uint8"
        },
        {
          "internalType": "uint256",
          "name": "claimId",
          "type": "uint256"
        }
      ],
      "name": "withdrawReward",
      "outputs": [
        {
          "internalType": "uint256",
          "name": "",
          "type": "uint256"
        }
      ],
      "stateMutability": "nonpayable",
      "type": "function"
    }
  ],
  "bytecode": "0x60806040526001600b553480156200001657600080fd5b50604051620019343803806200193483398101604081905262000039916200011b565b600080546001600160a01b0319166001600160a01b0383161781556200005e620000fa565b600180546001600160a01b0319166001600160a01b038316908117909155604051919250906000907f8be0079c531659141344cd1fd0a4f28419497f9722a3daafe3b4186f6b6457e0908290a350600280546001600160a01b0319166001600160a01b038516179055620000db82670de0b6b3a76400006200017c565b600355620000ed62015180426200015b565b60045550620001a8915050565b3390565b80516001600160a01b03811681146200011657600080fd5b919050565b60008060006060848603121562000130578283fd5b6200013b84620000fe565b9250602084015191506200015260408501620000fe565b90509250925092565b6000826200017757634e487b7160e01b81526012600452602481fd5b500490565b6000816000190483118215151615620001a357634e487b7160e01b81526011600452602481fd5b500290565b61177c80620001b86000396000f3fe608060405234801561001057600080fd5b50600436106102765760003560e01c80637fad8a1811610160578063a94c7c34116100d8578063d56b10541161008c578063eb3b6cec11610071578063eb3b6cec14610450578063f2fde38b14610463578063f54280871461047657610276565b8063d56b105414610435578063d5d7ed7f1461044857610276565b8063c63f5ab7116100bd578063c63f5ab714610407578063c6de9d5d1461041a578063cacf8d451461042d57610276565b8063a94c7c34146103f7578063a9cc0536146103ff57610276565b8063982390231161012f578063a0098d6911610114578063a0098d69146103ba578063a8016711146103c2578063a888c2cd146103d557610276565b8063982390231461039f578063a0021cf1146103b257610276565b80637fad8a181461037457806381ca66001461038757806383a49c7c1461038f5780638da5cb5b1461039757610276565b8063392f5f64116101f3578063583d8616116101c257806366941984116101a7578063669419841461035c578063678337f814610364578063715018a61461036c57610276565b8063583d8616146103415780635c275a391461035457610276565b8063392f5f6414610309578063430c39e41461031e57806346b887961461033157806348fb27b81461033957610276565b806319f51afb1161024a5780632a0acc6a1161022f5780632a0acc6a146102f15780632fe94def146102f957806332fe7b261461030157610276565b806319f51afb146102d45780631bc5d81d146102e957610276565b8062fae52b1461027b578063065d570f146102a457806317eef6f3146102b957806318e843b7146102c1575b600080fd5b61028e61028936600461129e565b610489565b60405161029b91906115e2565b60405180910390f35b6102ac61049b565b60405161029b91906115a9565b61028e6104a0565b61028e6102cf36600461129e565b6104a6565b6102e76102e23660046112f6565b6104b8565b005b6102ac61058b565b6102ac610590565b6102ac610595565b6102ac61059a565b61031161059f565b60405161029b9190611351565b6102e761032c3660046112f6565b6105bb565b6102ac610671565b6102ac610676565b61028e61034f3660046112b8565b61067b565b6102ac6107bd565b6102ac6107c2565b61028e6107c7565b6102e76107cd565b61028e61038236600461129e565b6108af565b6102ac6108c1565b6102ac6108c6565b6103116108cb565b61028e6103ad3660046112f6565b6108e7565b61028e610900565b6102ac610906565b6102e76103d036600461131f565b61090b565b6103e86103e3366004611286565b6109b2565b60405161029b939291906115eb565b6102ac6109e9565b6102ac6109ee565b61028e61041536600461129e565b6109f3565b6102e76104283660046112f6565b610a05565b6102ac610aa7565b61028e6104433660046112f6565b610aac565b6102ac610b16565b6102e761045e36600461129e565b610b1b565b6102e761047136600461122e565b610b27565b6102e761048436600461131f565b610c75565b60076020526000908152604090205481565b600381565b60035481565b60056020526000908152604090205481565b6104c0610d51565b73ffffffffffffffffffffffffffffffffffffffff166104de6108cb565b73ffffffffffffffffffffffffffffffffffffffff1614610534576040517f08c379a000000000000000000000000000000000000000000000000000000000815260040161052b9061145d565b60405180910390fd5b60ff821660009081526008602052604090205461057d576040517f08c379a000000000000000000000000000000000000000000000000000000000815260040161052b906114ef565b6105878282610d55565b5050565b600881565b606b81565b606981565b606781565b60005473ffffffffffffffffffffffffffffffffffffffff1681565b6105c3610d51565b73ffffffffffffffffffffffffffffffffffffffff166105e16108cb565b73ffffffffffffffffffffffffffffffffffffffff161461062e576040517f08c379a000000000000000000000000000000000000000000000000000000000815260040161052b9061145d565b6106388282610d55565b6106446138404261162f565b60ff9092166000908152600860209081526040808320949094556009905291909120640100000000905550565b600681565b606681565b600061068633610df3565b6106bc576040517f08c379a000000000000000000000000000000000000000000000000000000000815260040161052b90611492565b600354156107b2576106cd84610ea5565b60ff8416600090815260076020526040812080548492906106ef908490611617565b90915550506040805160608101825260ff861660009081526009602090815283822054835273ffffffffffffffffffffffffffffffffffffffff878116828501908152848601888152600b80548652600a9094529584209451855551600180860180547fffffffffffffffffffffffff000000000000000000000000000000000000000016929093169190911790915593516002909301929092558154610797908490611617565b9091555050600b546107ab906001906116a5565b90506107b6565b5060005b9392505050565b606581565b600181565b60065481565b6107d5610d51565b73ffffffffffffffffffffffffffffffffffffffff166107f36108cb565b73ffffffffffffffffffffffffffffffffffffffff1614610840576040517f08c379a000000000000000000000000000000000000000000000000000000000815260040161052b9061145d565b60015460405160009173ffffffffffffffffffffffffffffffffffffffff16907f8be0079c531659141344cd1fd0a4f28419497f9722a3daafe3b4186f6b6457e0908390a3600180547fffffffffffffffffffffffff0000000000000000000000000000000000000000169055565b60096020526000908152604090205481565b606a81565b600981565b60015473ffffffffffffffffffffffffffffffffffffffff1690565b6000818152600a602052604081206107b6908490610f37565b600b5481565b600281565b61091433610df3565b61094a576040517f08c379a000000000000000000000000000000000000000000000000000000000815260040161052b90611492565b61095383610ea5565b60ff8316600090815260076020526040812080548392906109759084906116a5565b90915550506000828152600a602052604090206109928482610f78565b50818160020160008282546109a791906116a5565b909155505050505050565b600a60205260009081526040902080546001820154600290920154909173ffffffffffffffffffffffffffffffffffffffff169083565b600581565b606881565b60086020526000908152604090205481565b610a0e33610df3565b610a44576040517f08c379a000000000000000000000000000000000000000000000000000000000815260040161052b90611492565b610a4d82610ea5565b6000818152600a60205260409020805415610aa257610a6c8382610f78565b506001810180547fffffffffffffffffffffffff0000000000000000000000000000000000000000169055600080825560028201555b505050565b600481565b6000610ab733610df3565b610aed576040517f08c379a000000000000000000000000000000000000000000000000000000000815260040161052b90611492565b610af683610ea5565b6000828152600a60205260409020610b0e8482610f78565b949350505050565b600781565b610b2481610ea5565b50565b610b2f610d51565b73ffffffffffffffffffffffffffffffffffffffff16610b4d6108cb565b73ffffffffffffffffffffffffffffffffffffffff1614610b9a576040517f08c379a000000000000000000000000000000000000000000000000000000000815260040161052b9061145d565b73ffffffffffffffffffffffffffffffffffffffff8116610be7576040517f08c379a000000000000000000000000000000000000000000000000000000000815260040161052b906113a3565b60015460405173ffffffffffffffffffffffffffffffffffffffff8084169216907f8be0079c531659141344cd1fd0a4f28419497f9722a3daafe3b4186f6b6457e090600090a3600180547fffffffffffffffffffffffff00000000000000000000000000000000000000001673ffffffffffffffffffffffffffffffffffffffff92909216919091179055565b610c7e33610df3565b610cb4576040517f08c379a000000000000000000000000000000000000000000000000000000000815260040161052b90611492565b60035415610aa257610cc583610ea5565b60ff831660009081526007602052604081208054839290610ce7908490611617565b90915550506000828152600a602052604090208054610d32576040517f08c379a000000000000000000000000000000000000000000000000000000000815260040161052b90611400565b610d3c8482610f78565b50818160020160008282546109a79190611617565b3390565b60ff8216600090815260056020526040902054811115610da85760ff8216600090815260056020526040902054610d8c90826116a5565b60066000828254610d9d9190611617565b90915550610ddd9050565b60ff8216600090815260056020526040902054610dc69082906116a5565b60066000828254610dd791906116a5565b90915550505b60ff909116600090815260056020526040902055565b600080546040517fd87fefd200000000000000000000000000000000000000000000000000000000815273ffffffffffffffffffffffffffffffffffffffff9091169063d87fefd290610e4d9060089086906004016115b8565b60206040518083038186803b158015610e6557600080fd5b505afa158015610e79573d6000803e3d6000fd5b505050506040513d601f19601f82011682018060405250810190610e9d9190611266565b90505b919050565b6000610eb36138404261162f565b9050610ebd611091565b60ff821660009081526008602052604081205490610edb82846116a5565b90508015610f1f5780610eed856110f8565b610ef79190611668565b60ff851660009081526009602052604081208054909190610f19908490611617565b90915550505b505060ff909116600090815260086020526040902055565b805460ff8316600090815260096020526040812054909164010000000091610f5f91906116a5565b8360020154610f6e9190611668565b6107b6919061162f565b6000610f848383610f37565b9050610f8e611170565b60025460018401546040517fd9caed1200000000000000000000000000000000000000000000000000000000815273ffffffffffffffffffffffffffffffffffffffff9384169363d9caed1293610ff093908216929116908690600401611372565b602060405180830381600087803b15801561100a57600080fd5b505af115801561101e573d6000803e3d6000fd5b505050506040513d601f19601f820116820180604052508101906110429190611266565b611078576040517f08c379a000000000000000000000000000000000000000000000000000000000815260040161052b9061154c565b60ff909216600090815260096020526040902054905590565b60006110a0620151804261162f565b90506000600454826110b291906116a5565b905060005b818110156110f1576103e86103e76003546110d29190611668565b6110dc919061162f565b600355806110e9816116bc565b9150506110b7565b5050600455565b60008061110a6138406201518061162f565b60065460ff851660009081526005602052604090205460035461113290640100000000611668565b61113c9190611668565b611146919061162f565b611150919061162f565b60ff84166000908152600760205260409020549091506107b6908261162f565b600080546040517f3c9c8f9c00000000000000000000000000000000000000000000000000000000815273ffffffffffffffffffffffffffffffffffffffff90911690633c9c8f9c906111c8906065906004016115a9565b60206040518083038186803b1580156111e057600080fd5b505afa1580156111f4573d6000803e3d6000fd5b505050506040513d601f19601f82011682018060405250810190611218919061124a565b905090565b803560ff81168114610ea057600080fd5b60006020828403121561123f578081fd5b81356107b681611724565b60006020828403121561125b578081fd5b81516107b681611724565b600060208284031215611277578081fd5b815180151581146107b6578182fd5b600060208284031215611297578081fd5b5035919050565b6000602082840312156112af578081fd5b6107b68261121d565b6000806000606084860312156112cc578182fd5b6112d58461121d565b925060208401356112e581611724565b929592945050506040919091013590565b60008060408385031215611308578182fd5b6113118361121d565b946020939093013593505050565b600080600060608486031215611333578283fd5b61133c8461121d565b95602085013595506040909401359392505050565b73ffffffffffffffffffffffffffffffffffffffff91909116815260200190565b73ffffffffffffffffffffffffffffffffffffffff9384168152919092166020820152604081019190915260600190565b60208082526026908201527f4f776e61626c653a206e6577206f776e657220697320746865207a65726f206160408201527f6464726573730000000000000000000000000000000000000000000000000000606082015260800190565b60208082526023908201527f547279696e6720746f2061646420746f206e6f6e2d6578697374616e7420636c60408201527f61696d0000000000000000000000000000000000000000000000000000000000606082015260800190565b6020808252818101527f4f776e61626c653a2063616c6c6572206973206e6f7420746865206f776e6572604082015260600190565b6020808252602c908201527f436f6e7472616374206e6f7420617574686f72697a656420746f207265706f7260408201527f7420696e63656e74697665730000000000000000000000000000000000000000606082015260800190565b60208082526033908201527f5472616e636865206973206e6f7420696e697469616c697a65642c20706c656160408201527f736520696e697469616c697a6520666972737400000000000000000000000000606082015260800190565b60208082526036908201527f5468657265207365656d7320746f2062652061206c61636b206f66204d46492060408201527f696e2074686520696e63656e746976652066756e642100000000000000000000606082015260800190565b61ffff91909116815260200190565b61ffff92909216825273ffffffffffffffffffffffffffffffffffffffff16602082015260400190565b90815260200190565b92835273ffffffffffffffffffffffffffffffffffffffff919091166020830152604082015260600190565b6000821982111561162a5761162a6116f5565b500190565b600082611663577f4e487b710000000000000000000000000000000000000000000000000000000081526012600452602481fd5b500490565b6000817fffffffffffffffffffffffffffffffffffffffffffffffffffffffffffffffff04831182151516156116a0576116a06116f5565b500290565b6000828210156116b7576116b76116f5565b500390565b60007fffffffffffffffffffffffffffffffffffffffffffffffffffffffffffffffff8214156116ee576116ee6116f5565b5060010190565b7f4e487b7100000000000000000000000000000000000000000000000000000000600052601160045260246000fd5b73ffffffffffffffffffffffffffffffffffffffff81168114610b2457600080fdfea26469706673582212208a9dfdb7eec6bf245dcec89f7a4d132d4cc6fa21a3ce041bf8d8308cf46381b964736f6c63430008010033",
  "linkReferences": {},
  "deployedLinkReferences": {}
}