{
  "_format": "hh-sol-artifact-1",
  "contractName": "IncentiveDistribution",
  "sourceName": "contracts/IncentiveDistribution.sol",
  "abi": [
    {
      "inputs": [
        {
          "internalType": "address",
          "name": "_MFI",
          "type": "address"
        },
        {
          "internalType": "uint256",
          "name": "startingDailyDistributionWithoutDecimals",
          "type": "uint256"
        },
        {
          "internalType": "address",
          "name": "_roles",
          "type": "address"
        }
      ],
      "stateMutability": "nonpayable",
      "type": "constructor"
    },
    {
      "anonymous": false,
      "inputs": [
        {
          "indexed": true,
          "internalType": "address",
          "name": "previousOwner",
          "type": "address"
        },
        {
          "indexed": true,
          "internalType": "address",
          "name": "newOwner",
          "type": "address"
        }
      ],
      "name": "OwnershipTransferred",
      "type": "event"
    },
    {
      "inputs": [],
      "name": "AUTHORIZED_FUND_TRADER",
      "outputs": [
        {
          "internalType": "uint16",
          "name": "",
          "type": "uint16"
        }
      ],
      "stateMutability": "view",
      "type": "function"
    },
    {
      "inputs": [],
      "name": "BORROWER",
      "outputs": [
        {
          "internalType": "uint16",
          "name": "",
          "type": "uint16"
        }
      ],
      "stateMutability": "view",
      "type": "function"
    },
    {
      "inputs": [],
      "name": "FEE_CONTROLLER",
      "outputs": [
        {
          "internalType": "uint16",
          "name": "",
          "type": "uint16"
        }
      ],
      "stateMutability": "view",
      "type": "function"
    },
    {
      "inputs": [],
      "name": "FEE_SOURCE",
      "outputs": [
        {
          "internalType": "uint16",
          "name": "",
          "type": "uint16"
        }
      ],
      "stateMutability": "view",
      "type": "function"
    },
    {
      "inputs": [],
      "name": "FUND",
      "outputs": [
        {
          "internalType": "uint16",
          "name": "",
          "type": "uint16"
        }
      ],
      "stateMutability": "view",
      "type": "function"
    },
    {
      "inputs": [],
      "name": "INCENTIVE_REPORTER",
      "outputs": [
        {
          "internalType": "uint16",
          "name": "",
          "type": "uint16"
        }
      ],
      "stateMutability": "view",
      "type": "function"
    },
    {
      "inputs": [],
      "name": "LENDING",
      "outputs": [
        {
          "internalType": "uint16",
          "name": "",
          "type": "uint16"
        }
      ],
      "stateMutability": "view",
      "type": "function"
    },
    {
      "inputs": [],
      "name": "LIQUIDATOR",
      "outputs": [
        {
          "internalType": "uint16",
          "name": "",
          "type": "uint16"
        }
      ],
      "stateMutability": "view",
      "type": "function"
    },
    {
      "inputs": [],
      "name": "MARGIN_CALLER",
      "outputs": [
        {
          "internalType": "uint16",
          "name": "",
          "type": "uint16"
        }
      ],
      "stateMutability": "view",
      "type": "function"
    },
    {
      "inputs": [],
      "name": "MARGIN_TRADER",
      "outputs": [
        {
          "internalType": "uint16",
          "name": "",
          "type": "uint16"
        }
      ],
      "stateMutability": "view",
      "type": "function"
    },
    {
      "inputs": [],
      "name": "MARGIN_TRADING",
      "outputs": [
        {
          "internalType": "uint16",
          "name": "",
          "type": "uint16"
        }
      ],
      "stateMutability": "view",
      "type": "function"
    },
    {
      "inputs": [],
      "name": "PRICE_CONTROLLER",
      "outputs": [
        {
          "internalType": "uint16",
          "name": "",
          "type": "uint16"
        }
      ],
      "stateMutability": "view",
      "type": "function"
    },
    {
      "inputs": [],
      "name": "ROUTER",
      "outputs": [
        {
          "internalType": "uint16",
          "name": "",
          "type": "uint16"
        }
      ],
      "stateMutability": "view",
      "type": "function"
    },
    {
      "inputs": [],
      "name": "TOKEN_ACTIVATOR",
      "outputs": [
        {
          "internalType": "uint16",
          "name": "",
          "type": "uint16"
        }
      ],
      "stateMutability": "view",
      "type": "function"
    },
    {
      "inputs": [],
      "name": "WITHDRAWER",
      "outputs": [
        {
          "internalType": "uint16",
          "name": "",
          "type": "uint16"
        }
      ],
      "stateMutability": "view",
      "type": "function"
    },
    {
      "inputs": [
        {
          "internalType": "uint8",
          "name": "tranche",
          "type": "uint8"
        },
        {
          "internalType": "uint256",
          "name": "claimId",
          "type": "uint256"
        },
        {
          "internalType": "uint256",
          "name": "additionalAmount",
          "type": "uint256"
        }
      ],
      "name": "addToClaimAmount",
      "outputs": [],
      "stateMutability": "nonpayable",
      "type": "function"
    },
    {
      "inputs": [
        {
          "internalType": "uint8",
          "name": "",
          "type": "uint8"
        }
      ],
      "name": "aggregatePeriodicRewardRateFP",
      "outputs": [
        {
          "internalType": "uint256",
          "name": "",
          "type": "uint256"
        }
      ],
      "stateMutability": "view",
      "type": "function"
    },
    {
      "inputs": [
        {
          "internalType": "uint256",
          "name": "",
          "type": "uint256"
        }
      ],
      "name": "claims",
      "outputs": [
        {
          "internalType": "uint256",
          "name": "startingRewardRateFP",
          "type": "uint256"
        },
        {
          "internalType": "address",
          "name": "recipient",
          "type": "address"
        },
        {
          "internalType": "uint256",
          "name": "amount",
          "type": "uint256"
        }
      ],
      "stateMutability": "view",
      "type": "function"
    },
    {
      "inputs": [],
      "name": "currentDailyDistribution",
      "outputs": [
        {
          "internalType": "uint256",
          "name": "",
          "type": "uint256"
        }
      ],
      "stateMutability": "view",
      "type": "function"
    },
    {
      "inputs": [
        {
          "internalType": "uint8",
          "name": "",
          "type": "uint8"
        }
      ],
      "name": "currentDayTotals",
      "outputs": [
        {
          "internalType": "uint256",
          "name": "",
          "type": "uint256"
        }
      ],
      "stateMutability": "view",
      "type": "function"
    },
    {
      "inputs": [
        {
          "internalType": "uint8",
          "name": "",
          "type": "uint8"
        }
      ],
      "name": "currentPeriodTotals",
      "outputs": [
        {
          "internalType": "uint256",
          "name": "",
          "type": "uint256"
        }
      ],
      "stateMutability": "view",
      "type": "function"
    },
    {
      "inputs": [
        {
          "internalType": "uint8",
          "name": "tranche",
          "type": "uint8"
        },
        {
          "internalType": "uint256",
          "name": "claimId",
          "type": "uint256"
        }
      ],
      "name": "endClaim",
      "outputs": [],
      "stateMutability": "nonpayable",
      "type": "function"
    },
    {
      "inputs": [
        {
          "internalType": "uint8",
          "name": "tranche",
          "type": "uint8"
        }
      ],
      "name": "forcePeriodTotalUpdate",
      "outputs": [],
      "stateMutability": "nonpayable",
      "type": "function"
    },
    {
      "inputs": [
        {
          "internalType": "uint8",
          "name": "tranche",
          "type": "uint8"
        },
        {
          "internalType": "address",
          "name": "recipient",
          "type": "address"
        },
        {
          "internalType": "uint256",
          "name": "spotAmount",
          "type": "uint256"
        }
      ],
      "name": "getSpotReward",
      "outputs": [],
      "stateMutability": "nonpayable",
      "type": "function"
    },
    {
      "inputs": [
        {
          "internalType": "uint8",
          "name": "tranche",
          "type": "uint8"
        },
        {
          "internalType": "uint256",
          "name": "share",
          "type": "uint256"
        },
        {
          "internalType": "uint256",
          "name": "assumedInitialDailyTotal",
          "type": "uint256"
        }
      ],
      "name": "initTranche",
      "outputs": [],
      "stateMutability": "nonpayable",
      "type": "function"
    },
    {
      "inputs": [
        {
          "internalType": "uint8",
          "name": "",
          "type": "uint8"
        }
      ],
      "name": "lastUpdatedPeriods",
      "outputs": [
        {
          "internalType": "uint256",
          "name": "",
          "type": "uint256"
        }
      ],
      "stateMutability": "view",
      "type": "function"
    },
    {
      "inputs": [],
      "name": "nextClaimId",
      "outputs": [
        {
          "internalType": "uint256",
          "name": "",
          "type": "uint256"
        }
      ],
      "stateMutability": "view",
      "type": "function"
    },
    {
      "inputs": [
        {
          "internalType": "uint8",
          "name": "",
          "type": "uint8"
        }
      ],
      "name": "ongoingTotals",
      "outputs": [
        {
          "internalType": "uint256",
          "name": "",
          "type": "uint256"
        }
      ],
      "stateMutability": "view",
      "type": "function"
    },
    {
      "inputs": [],
      "name": "owner",
      "outputs": [
        {
          "internalType": "address",
          "name": "",
          "type": "address"
        }
      ],
      "stateMutability": "view",
      "type": "function"
    },
    {
      "inputs": [
        {
          "internalType": "uint8",
          "name": "",
          "type": "uint8"
        },
        {
          "internalType": "uint256",
          "name": "",
          "type": "uint256"
        }
      ],
      "name": "periodTotals",
      "outputs": [
        {
          "internalType": "uint256",
          "name": "",
          "type": "uint256"
        }
      ],
      "stateMutability": "view",
      "type": "function"
    },
    {
      "inputs": [],
      "name": "renounceOwnership",
      "outputs": [],
      "stateMutability": "nonpayable",
      "type": "function"
    },
    {
      "inputs": [],
      "name": "roles",
      "outputs": [
        {
          "internalType": "contract Roles",
          "name": "",
          "type": "address"
        }
      ],
      "stateMutability": "view",
      "type": "function"
    },
    {
      "inputs": [
        {
          "internalType": "uint8",
          "name": "tranche",
          "type": "uint8"
        },
        {
          "internalType": "uint256",
          "name": "share",
          "type": "uint256"
        }
      ],
      "name": "setTrancheShare",
      "outputs": [],
      "stateMutability": "nonpayable",
      "type": "function"
    },
    {
      "inputs": [
        {
          "internalType": "uint8",
          "name": "tranche",
          "type": "uint8"
        },
        {
          "internalType": "address",
          "name": "recipient",
          "type": "address"
        },
        {
          "internalType": "uint256",
          "name": "claimAmount",
          "type": "uint256"
        }
      ],
      "name": "startClaim",
      "outputs": [
        {
          "internalType": "uint256",
          "name": "",
          "type": "uint256"
        }
      ],
      "stateMutability": "nonpayable",
      "type": "function"
    },
    {
      "inputs": [
        {
          "internalType": "uint8",
          "name": "tranche",
          "type": "uint8"
        },
        {
          "internalType": "uint256",
          "name": "claimId",
          "type": "uint256"
        },
        {
          "internalType": "uint256",
          "name": "subtractAmount",
          "type": "uint256"
        }
      ],
      "name": "subtractFromClaimAmount",
      "outputs": [],
      "stateMutability": "nonpayable",
      "type": "function"
    },
    {
      "inputs": [
        {
          "internalType": "uint8",
          "name": "",
          "type": "uint8"
        }
      ],
      "name": "trancheShare",
      "outputs": [
        {
          "internalType": "uint256",
          "name": "",
          "type": "uint256"
        }
      ],
      "stateMutability": "view",
      "type": "function"
    },
    {
      "inputs": [],
      "name": "trancheShareTotal",
      "outputs": [
        {
          "internalType": "uint256",
          "name": "",
          "type": "uint256"
        }
      ],
      "stateMutability": "view",
      "type": "function"
    },
    {
      "inputs": [
        {
          "internalType": "address",
          "name": "newOwner",
          "type": "address"
        }
      ],
      "name": "transferOwnership",
      "outputs": [],
      "stateMutability": "nonpayable",
      "type": "function"
    }
  ],
  "bytecode": "0x60806040523480156200001157600080fd5b5060405162001b3938038062001b39833981016040819052620000349162000104565b600080546001600160a01b0319166001600160a01b03831617815562000059620000e3565b600180546001600160a01b0319166001600160a01b038316908117909155604051919250906000907f8be0079c531659141344cd1fd0a4f28419497f9722a3daafe3b4186f6b6457e0908290a350600280546001600160a01b0319166001600160a01b038516179055620000d682670de0b6b3a764000062000144565b6003555062000170915050565b3390565b80516001600160a01b0381168114620000ff57600080fd5b919050565b60008060006060848603121562000119578283fd5b6200012484620000e7565b9250602084015191506200013b60408501620000e7565b90509250925092565b60008160001904831182151516156200016b57634e487b7160e01b81526011600452602481fd5b500290565b6119b980620001806000396000f3fe608060405234801561001057600080fd5b50600436106102915760003560e01c806381ca660011610160578063c63f5ab7116100d8578063d5d7ed7f1161008c578063f24696da11610071578063f24696da14610489578063f2fde38b1461049c578063f5428087146104af57610291565b8063d5d7ed7f1461046e578063eb3b6cec1461047657610291565b8063ca2137fc116100bd578063ca2137fc14610440578063cacf8d4514610453578063cdb0aa461461045b57610291565b8063c63f5ab71461041a578063c6de9d5d1461042d57610291565b8063a0098d691161012f578063a888c2cd11610114578063a888c2cd146103e8578063a94c7c341461040a578063a9cc05361461041257610291565b8063a0098d69146103cd578063a8016711146103d557610291565b806381ca6600146103ad57806383a49c7c146103b55780638da5cb5b146103bd578063a0021cf1146103c557610291565b8063392f5f641161020e5780635c275a39116101c2578063678337f8116101a7578063678337f81461038a578063715018a6146103925780637fad8a181461039a57610291565b80635c275a391461037a578063669419841461038257610291565b8063472a0031116101f3578063472a00311461034c57806348fb27b81461035f578063583d86161461036757610291565b8063392f5f641461032f57806346b887961461034457610291565b806319f51afb116102655780632fe94def1161024a5780632fe94def1461030c5780633140a8611461031457806332fe7b261461032757610291565b806319f51afb146102ef5780631bc5d81d1461030457610291565b8062fae52b14610296578063065d570f146102bf57806317eef6f3146102d457806318e843b7146102dc575b600080fd5b6102a96102a4366004611577565b6104c2565b6040516102b69190611801565b60405180910390f35b6102c76104d4565b6040516102b691906117c8565b6102a96104d9565b6102a96102ea366004611577565b6104df565b6103026102fd3660046115cf565b6104f1565b005b6102c76105c4565b6102c76105c9565b6102a96103223660046115cf565b6105ce565b6102c76105f3565b6103376105f8565b6040516102b6919061162a565b6102c7610614565b61030261035a3660046115f8565b610619565b6102c761077b565b6102a9610375366004611591565b610780565b6102c76108d7565b6102c76108dc565b6102a96108e1565b6103026108e7565b6102a96103a8366004611577565b6109c9565b6102c76109db565b6102c76109e0565b6103376109e5565b6102a9610a01565b6102c7610a07565b6103026103e33660046115f8565b610a0c565b6103fb6103f636600461155f565b610ac4565b6040516102b69392919061180a565b6102c7610afb565b6102c7610b00565b6102a9610428366004611577565b610b05565b61030261043b3660046115cf565b610b17565b6102a961044e366004611577565b610c71565b6102c7610c83565b610302610469366004611591565b610c88565b6102c7610ddb565b610302610484366004611577565b610de0565b6102a9610497366004611577565b610dec565b6103026104aa366004611507565b610dfe565b6103026104bd3660046115f8565b610f4c565b60086020526000908152604090205481565b600381565b60035481565b60046020526000908152604090205481565b6104f9610ff9565b73ffffffffffffffffffffffffffffffffffffffff166105176109e5565b73ffffffffffffffffffffffffffffffffffffffff161461056d576040517f08c379a0000000000000000000000000000000000000000000000000000000008152600401610564906116d9565b60405180910390fd5b60ff82166000908152600960205260409020546105b6576040517f08c379a00000000000000000000000000000000000000000000000000000000081526004016105649061176b565b6105c08282610ffd565b5050565b600881565b606981565b600760205281600052604060002081600681106105ea57600080fd5b01549150829050565b606781565b60005473ffffffffffffffffffffffffffffffffffffffff1681565b600681565b610621610ff9565b73ffffffffffffffffffffffffffffffffffffffff1661063f6109e5565b73ffffffffffffffffffffffffffffffffffffffff161461068c576040517f08c379a0000000000000000000000000000000000000000000000000000000008152600401610564906116d9565b6106968383610ffd565b60ff831660009081526006602052604081208290556106ba6138406201518061184e565b6106c4908361184e565b905060005b6106d86138406201518061184e565b81101561073f5760ff851660009081526007602052604090208290826006811061072b577f4e487b7100000000000000000000000000000000000000000000000000000000600052603260045260246000fd5b015580610737816118b6565b9150506106c9565b5061074c6138404261184e565b60ff909416600090815260096020908152604080832096909655600b9052939093206401000000009055505050565b606681565b600061078b3361109b565b6107c1576040517f08c379a00000000000000000000000000000000000000000000000000000000081526004016105649061170e565b6107ca8461114d565b60ff84166000908152600a6020526040812080548492906107ec908490611836565b909155505060ff841660009081526008602052604081208054849290610813908490611836565b90915550506040805160608101825260ff86166000908152600b602090815283822054835273ffffffffffffffffffffffffffffffffffffffff878116828501908152848601888152600d80548652600c9094529584209451855551600180860180547fffffffffffffffffffffffff0000000000000000000000000000000000000000169290931691909117909155935160029093019290925581546108bb908490611836565b9091555050600d546108cf9060019061189f565b949350505050565b606581565b600181565b60055481565b6108ef610ff9565b73ffffffffffffffffffffffffffffffffffffffff1661090d6109e5565b73ffffffffffffffffffffffffffffffffffffffff161461095a576040517f08c379a0000000000000000000000000000000000000000000000000000000008152600401610564906116d9565b60015460405160009173ffffffffffffffffffffffffffffffffffffffff16907f8be0079c531659141344cd1fd0a4f28419497f9722a3daafe3b4186f6b6457e0908390a3600180547fffffffffffffffffffffffff0000000000000000000000000000000000000000169055565b600b6020526000908152604090205481565b606a81565b600981565b60015473ffffffffffffffffffffffffffffffffffffffff1690565b600d5481565b600281565b610a153361109b565b610a4b576040517f08c379a00000000000000000000000000000000000000000000000000000000081526004016105649061170e565b610a548361114d565b6000828152600c60205260409020610a6c8482611392565b6401000000008260020154610a819190611862565b610a8b919061184e565b816000016000828254610a9e919061189f565b9250508190555081816002016000828254610ab9919061189f565b909155505050505050565b600c60205260009081526040902080546001820154600290920154909173ffffffffffffffffffffffffffffffffffffffff169083565b600581565b606881565b60096020526000908152604090205481565b610b203361109b565b610b56576040517f08c379a00000000000000000000000000000000000000000000000000000000081526004016105649061170e565b610b5f8261114d565b6000818152600c6020526040812090610b788483611392565b9050610b826113da565b60025460018401546040517fd9caed1200000000000000000000000000000000000000000000000000000000815273ffffffffffffffffffffffffffffffffffffffff9384169363d9caed1293610be49390821692911690869060040161164b565b602060405180830381600087803b158015610bfe57600080fd5b505af1158015610c12573d6000803e3d6000fd5b505050506040513d601f19601f82011682018060405250810190610c36919061153f565b50506001810180547fffffffffffffffffffffffff000000000000000000000000000000000000000016905560008082556002909101555050565b600a6020526000908152604090205481565b600481565b610c913361109b565b610cc7576040517f08c379a00000000000000000000000000000000000000000000000000000000081526004016105649061170e565b610cd08361114d565b60ff831660009081526008602052604081208054839290610cf2908490611836565b9091555060009050640100000000610d0985611487565b610d139084611862565b610d1d919061184e565b9050610d276113da565b6002546040517fd9caed1200000000000000000000000000000000000000000000000000000000815273ffffffffffffffffffffffffffffffffffffffff9283169263d9caed1292610d82929116908790869060040161164b565b602060405180830381600087803b158015610d9c57600080fd5b505af1158015610db0573d6000803e3d6000fd5b505050506040513d601f19601f82011682018060405250810190610dd4919061153f565b5050505050565b600781565b610de98161114d565b50565b60066020526000908152604090205481565b610e06610ff9565b73ffffffffffffffffffffffffffffffffffffffff16610e246109e5565b73ffffffffffffffffffffffffffffffffffffffff1614610e71576040517f08c379a0000000000000000000000000000000000000000000000000000000008152600401610564906116d9565b73ffffffffffffffffffffffffffffffffffffffff8116610ebe576040517f08c379a00000000000000000000000000000000000000000000000000000000081526004016105649061167c565b60015460405173ffffffffffffffffffffffffffffffffffffffff8084169216907f8be0079c531659141344cd1fd0a4f28419497f9722a3daafe3b4186f6b6457e090600090a3600180547fffffffffffffffffffffffff00000000000000000000000000000000000000001673ffffffffffffffffffffffffffffffffffffffff92909216919091179055565b610f553361109b565b610f8b576040517f08c379a00000000000000000000000000000000000000000000000000000000081526004016105649061170e565b610f948361114d565b6000828152600c60205260409020610fac8482611392565b6401000000008260020154610fc19190611862565b610fcb919061184e565b816000016000828254610fde919061189f565b9250508190555081816002016000828254610ab99190611836565b3390565b60ff82166000908152600460205260409020548111156110505760ff8216600090815260046020526040902054611034908261189f565b600560008282546110459190611836565b909155506110859050565b60ff821660009081526004602052604090205461106e90829061189f565b6005600082825461107f919061189f565b90915550505b60ff909116600090815260046020526040902055565b600080546040517fd87fefd200000000000000000000000000000000000000000000000000000000815273ffffffffffffffffffffffffffffffffffffffff9091169063d87fefd2906110f59060089086906004016117d7565b60206040518083038186803b15801561110d57600080fd5b505afa158015611121573d6000803e3d6000fd5b505050506040513d601f19601f82011682018060405250810190611145919061153f565b90505b919050565b600061115b6138404261184e565b60ff83166000908152600960205260409020549091505b8181101561138d57600061118b6138406201518061184e565b61119590836118ef565b90506111a084611487565b60ff85166000908152600b6020526040812080549091906111c2908490611836565b909155505060ff841660009081526007602052604090208160068110611211577f4e487b7100000000000000000000000000000000000000000000000000000000600052603260045260246000fd5b015460ff85166000908152600660205260408120805490919061123590849061189f565b909155505060ff841660009081526008602090815260408083205460079092529091208260068110611290577f4e487b7100000000000000000000000000000000000000000000000000000000600052603260045260246000fd5b015560ff8416600090815260076020526040902081600681106112dc577f4e487b7100000000000000000000000000000000000000000000000000000000600052603260045260246000fd5b015460ff851660009081526006602052604081208054909190611300908490611836565b909155505060ff84166000908152600a60209081526040808320546008909252909120556113336138406201518061184e565b61133e826001611836565b1415611365576103e86103e76003546113579190611862565b611361919061184e565b6003555b5060ff8316600090815260096020526040902082905580611385816118b6565b915050611172565b505050565b805460ff83166000908152600b60205260408120549091640100000000916113ba919061189f565b83600201546113c99190611862565b6113d3919061184e565b9392505050565b600080546040517f3c9c8f9c00000000000000000000000000000000000000000000000000000000815273ffffffffffffffffffffffffffffffffffffffff90911690633c9c8f9c90611432906065906004016117c8565b60206040518083038186803b15801561144a57600080fd5b505afa15801561145e573d6000803e3d6000fd5b505050506040513d601f19601f820116820180604052508101906114829190611523565b905090565b60055460ff82166000908152600460205260408120546003549192839290916114af91611862565b6114be90640100000000611862565b6114c8919061184e565b90506114d96138406201518061184e565b60ff84166000908152600660205260409020546113c9908361184e565b803560ff8116811461114857600080fd5b600060208284031215611518578081fd5b81356113d381611961565b600060208284031215611534578081fd5b81516113d381611961565b600060208284031215611550578081fd5b815180151581146113d3578182fd5b600060208284031215611570578081fd5b5035919050565b600060208284031215611588578081fd5b6113d3826114f6565b6000806000606084860312156115a5578182fd5b6115ae846114f6565b925060208401356115be81611961565b929592945050506040919091013590565b600080604083850312156115e1578182fd5b6115ea836114f6565b946020939093013593505050565b60008060006060848603121561160c578283fd5b611615846114f6565b95602085013595506040909401359392505050565b73ffffffffffffffffffffffffffffffffffffffff91909116815260200190565b73ffffffffffffffffffffffffffffffffffffffff9384168152919092166020820152604081019190915260600190565b60208082526026908201527f4f776e61626c653a206e6577206f776e657220697320746865207a65726f206160408201527f6464726573730000000000000000000000000000000000000000000000000000606082015260800190565b6020808252818101527f4f776e61626c653a2063616c6c6572206973206e6f7420746865206f776e6572604082015260600190565b6020808252602c908201527f436f6e7472616374206e6f7420617574686f72697a656420746f207265706f7260408201527f7420696e63656e74697665730000000000000000000000000000000000000000606082015260800190565b60208082526033908201527f5472616e636865206973206e6f7420696e697469616c697a65642c20706c656160408201527f736520696e697469616c697a6520666972737400000000000000000000000000606082015260800190565b61ffff91909116815260200190565b61ffff92909216825273ffffffffffffffffffffffffffffffffffffffff16602082015260400190565b90815260200190565b92835273ffffffffffffffffffffffffffffffffffffffff919091166020830152604082015260600190565b6000821982111561184957611849611903565b500190565b60008261185d5761185d611932565b500490565b6000817fffffffffffffffffffffffffffffffffffffffffffffffffffffffffffffffff048311821515161561189a5761189a611903565b500290565b6000828210156118b1576118b1611903565b500390565b60007fffffffffffffffffffffffffffffffffffffffffffffffffffffffffffffffff8214156118e8576118e8611903565b5060010190565b6000826118fe576118fe611932565b500690565b7f4e487b7100000000000000000000000000000000000000000000000000000000600052601160045260246000fd5b7f4e487b7100000000000000000000000000000000000000000000000000000000600052601260045260246000fd5b73ffffffffffffffffffffffffffffffffffffffff81168114610de957600080fdfea2646970667358221220135958e3516c9f6a0a48e2212122b2a2986a4a4fcc613f906892c4a310ef0f1964736f6c63430008010033",
  "linkReferences": {},
  "deployedLinkReferences": {}
}