{
  "_format": "hh-sol-artifact-1",
  "contractName": "IncentiveDistribution",
  "sourceName": "contracts/IncentiveDistribution.sol",
  "abi": [
    {
      "inputs": [
        {
          "internalType": "address",
          "name": "_MFI",
          "type": "address"
        },
        {
          "internalType": "uint256",
          "name": "startingDailyDistributionWithoutDecimals",
          "type": "uint256"
        },
        {
          "internalType": "address",
          "name": "_roles",
          "type": "address"
        }
      ],
      "stateMutability": "nonpayable",
      "type": "constructor"
    },
    {
      "anonymous": false,
      "inputs": [
        {
          "indexed": true,
          "internalType": "address",
          "name": "previousOwner",
          "type": "address"
        },
        {
          "indexed": true,
          "internalType": "address",
          "name": "newOwner",
          "type": "address"
        }
      ],
      "name": "OwnershipTransferred",
      "type": "event"
    },
    {
      "inputs": [],
      "name": "AUTHORIZED_FUND_TRADER",
      "outputs": [
        {
          "internalType": "uint16",
          "name": "",
          "type": "uint16"
        }
      ],
      "stateMutability": "view",
      "type": "function"
    },
    {
      "inputs": [],
      "name": "BORROWER",
      "outputs": [
        {
          "internalType": "uint16",
          "name": "",
          "type": "uint16"
        }
      ],
      "stateMutability": "view",
      "type": "function"
    },
    {
      "inputs": [],
      "name": "FEE_CONTROLLER",
      "outputs": [
        {
          "internalType": "uint16",
          "name": "",
          "type": "uint16"
        }
      ],
      "stateMutability": "view",
      "type": "function"
    },
    {
      "inputs": [],
      "name": "FEE_SOURCE",
      "outputs": [
        {
          "internalType": "uint16",
          "name": "",
          "type": "uint16"
        }
      ],
      "stateMutability": "view",
      "type": "function"
    },
    {
      "inputs": [],
      "name": "FUND",
      "outputs": [
        {
          "internalType": "uint16",
          "name": "",
          "type": "uint16"
        }
      ],
      "stateMutability": "view",
      "type": "function"
    },
    {
      "inputs": [],
      "name": "INCENTIVE_REPORTER",
      "outputs": [
        {
          "internalType": "uint16",
          "name": "",
          "type": "uint16"
        }
      ],
      "stateMutability": "view",
      "type": "function"
    },
    {
      "inputs": [],
      "name": "LENDING",
      "outputs": [
        {
          "internalType": "uint16",
          "name": "",
          "type": "uint16"
        }
      ],
      "stateMutability": "view",
      "type": "function"
    },
    {
      "inputs": [],
      "name": "LIQUIDATOR",
      "outputs": [
        {
          "internalType": "uint16",
          "name": "",
          "type": "uint16"
        }
      ],
      "stateMutability": "view",
      "type": "function"
    },
    {
      "inputs": [],
      "name": "MARGIN_CALLER",
      "outputs": [
        {
          "internalType": "uint16",
          "name": "",
          "type": "uint16"
        }
      ],
      "stateMutability": "view",
      "type": "function"
    },
    {
      "inputs": [],
      "name": "MARGIN_TRADER",
      "outputs": [
        {
          "internalType": "uint16",
          "name": "",
          "type": "uint16"
        }
      ],
      "stateMutability": "view",
      "type": "function"
    },
    {
      "inputs": [],
      "name": "MARGIN_TRADING",
      "outputs": [
        {
          "internalType": "uint16",
          "name": "",
          "type": "uint16"
        }
      ],
      "stateMutability": "view",
      "type": "function"
    },
    {
      "inputs": [],
      "name": "PRICE_CONTROLLER",
      "outputs": [
        {
          "internalType": "uint16",
          "name": "",
          "type": "uint16"
        }
      ],
      "stateMutability": "view",
      "type": "function"
    },
    {
      "inputs": [],
      "name": "ROUTER",
      "outputs": [
        {
          "internalType": "uint16",
          "name": "",
          "type": "uint16"
        }
      ],
      "stateMutability": "view",
      "type": "function"
    },
    {
      "inputs": [],
      "name": "TOKEN_ACTIVATOR",
      "outputs": [
        {
          "internalType": "uint16",
          "name": "",
          "type": "uint16"
        }
      ],
      "stateMutability": "view",
      "type": "function"
    },
    {
      "inputs": [],
      "name": "WITHDRAWER",
      "outputs": [
        {
          "internalType": "uint16",
          "name": "",
          "type": "uint16"
        }
      ],
      "stateMutability": "view",
      "type": "function"
    },
    {
      "inputs": [
        {
          "internalType": "uint8",
          "name": "tranche",
          "type": "uint8"
        },
        {
          "internalType": "uint256",
          "name": "claimId",
          "type": "uint256"
        },
        {
          "internalType": "uint256",
          "name": "additionalAmount",
          "type": "uint256"
        }
      ],
      "name": "addToClaimAmount",
      "outputs": [],
      "stateMutability": "nonpayable",
      "type": "function"
    },
    {
      "inputs": [
        {
          "internalType": "uint8",
          "name": "",
          "type": "uint8"
        }
      ],
      "name": "aggregatePeriodicRewardRateFP",
      "outputs": [
        {
          "internalType": "uint256",
          "name": "",
          "type": "uint256"
        }
      ],
      "stateMutability": "view",
      "type": "function"
    },
    {
      "inputs": [
        {
          "internalType": "uint256",
          "name": "",
          "type": "uint256"
        }
      ],
      "name": "claims",
      "outputs": [
        {
          "internalType": "uint256",
          "name": "startingRewardRateFP",
          "type": "uint256"
        },
        {
          "internalType": "address",
          "name": "recipient",
          "type": "address"
        },
        {
          "internalType": "uint256",
          "name": "amount",
          "type": "uint256"
        }
      ],
      "stateMutability": "view",
      "type": "function"
    },
    {
      "inputs": [],
      "name": "currentDailyDistribution",
      "outputs": [
        {
          "internalType": "uint256",
          "name": "",
          "type": "uint256"
        }
      ],
      "stateMutability": "view",
      "type": "function"
    },
    {
      "inputs": [
        {
          "internalType": "uint8",
          "name": "",
          "type": "uint8"
        }
      ],
      "name": "currentDayTotals",
      "outputs": [
        {
          "internalType": "uint256",
          "name": "",
          "type": "uint256"
        }
      ],
      "stateMutability": "view",
      "type": "function"
    },
    {
      "inputs": [
        {
          "internalType": "uint8",
          "name": "",
          "type": "uint8"
        }
      ],
      "name": "currentPeriodTotals",
      "outputs": [
        {
          "internalType": "uint256",
          "name": "",
          "type": "uint256"
        }
      ],
      "stateMutability": "view",
      "type": "function"
    },
    {
      "inputs": [
        {
          "internalType": "uint8",
          "name": "tranche",
          "type": "uint8"
        },
        {
          "internalType": "uint256",
          "name": "claimId",
          "type": "uint256"
        }
      ],
      "name": "endClaim",
      "outputs": [],
      "stateMutability": "nonpayable",
      "type": "function"
    },
    {
      "inputs": [
        {
          "internalType": "uint8",
          "name": "tranche",
          "type": "uint8"
        }
      ],
      "name": "forcePeriodTotalUpdate",
      "outputs": [],
      "stateMutability": "nonpayable",
      "type": "function"
    },
    {
      "inputs": [
        {
          "internalType": "uint8",
          "name": "tranche",
          "type": "uint8"
        },
        {
          "internalType": "address",
          "name": "recipient",
          "type": "address"
        },
        {
          "internalType": "uint256",
          "name": "spotAmount",
          "type": "uint256"
        }
      ],
      "name": "getSpotReward",
      "outputs": [],
      "stateMutability": "nonpayable",
      "type": "function"
    },
    {
      "inputs": [
        {
          "internalType": "uint8",
          "name": "tranche",
          "type": "uint8"
        },
        {
          "internalType": "uint256",
          "name": "share",
          "type": "uint256"
        },
        {
          "internalType": "uint256",
          "name": "assumedInitialDailyTotal",
          "type": "uint256"
        }
      ],
      "name": "initTranche",
      "outputs": [],
      "stateMutability": "nonpayable",
      "type": "function"
    },
    {
      "inputs": [
        {
          "internalType": "uint8",
          "name": "",
          "type": "uint8"
        }
      ],
      "name": "lastUpdatedPeriods",
      "outputs": [
        {
          "internalType": "uint256",
          "name": "",
          "type": "uint256"
        }
      ],
      "stateMutability": "view",
      "type": "function"
    },
    {
      "inputs": [],
      "name": "nextClaimId",
      "outputs": [
        {
          "internalType": "uint256",
          "name": "",
          "type": "uint256"
        }
      ],
      "stateMutability": "view",
      "type": "function"
    },
    {
      "inputs": [
        {
          "internalType": "uint8",
          "name": "",
          "type": "uint8"
        }
      ],
      "name": "ongoingTotals",
      "outputs": [
        {
          "internalType": "uint256",
          "name": "",
          "type": "uint256"
        }
      ],
      "stateMutability": "view",
      "type": "function"
    },
    {
      "inputs": [],
      "name": "owner",
      "outputs": [
        {
          "internalType": "address",
          "name": "",
          "type": "address"
        }
      ],
      "stateMutability": "view",
      "type": "function"
    },
    {
      "inputs": [
        {
          "internalType": "uint8",
          "name": "",
          "type": "uint8"
        },
        {
          "internalType": "uint256",
          "name": "",
          "type": "uint256"
        }
      ],
      "name": "periodTotals",
      "outputs": [
        {
          "internalType": "uint256",
          "name": "",
          "type": "uint256"
        }
      ],
      "stateMutability": "view",
      "type": "function"
    },
    {
      "inputs": [],
      "name": "renounceOwnership",
      "outputs": [],
      "stateMutability": "nonpayable",
      "type": "function"
    },
    {
      "inputs": [],
      "name": "roles",
      "outputs": [
        {
          "internalType": "contract Roles",
          "name": "",
          "type": "address"
        }
      ],
      "stateMutability": "view",
      "type": "function"
    },
    {
      "inputs": [
        {
          "internalType": "uint8",
          "name": "tranche",
          "type": "uint8"
        },
        {
          "internalType": "uint256",
          "name": "share",
          "type": "uint256"
        }
      ],
      "name": "setTrancheShare",
      "outputs": [],
      "stateMutability": "nonpayable",
      "type": "function"
    },
    {
      "inputs": [
        {
          "internalType": "uint8",
          "name": "tranche",
          "type": "uint8"
        },
        {
          "internalType": "address",
          "name": "recipient",
          "type": "address"
        },
        {
          "internalType": "uint256",
          "name": "claimAmount",
          "type": "uint256"
        }
      ],
      "name": "startClaim",
      "outputs": [
        {
          "internalType": "uint256",
          "name": "",
          "type": "uint256"
        }
      ],
      "stateMutability": "nonpayable",
      "type": "function"
    },
    {
      "inputs": [
        {
          "internalType": "uint8",
          "name": "tranche",
          "type": "uint8"
        },
        {
          "internalType": "uint256",
          "name": "claimId",
          "type": "uint256"
        },
        {
          "internalType": "uint256",
          "name": "subtractAmount",
          "type": "uint256"
        }
      ],
      "name": "subtractFromClaimAmount",
      "outputs": [],
      "stateMutability": "nonpayable",
      "type": "function"
    },
    {
      "inputs": [
        {
          "internalType": "uint8",
          "name": "",
          "type": "uint8"
        }
      ],
      "name": "trancheShare",
      "outputs": [
        {
          "internalType": "uint256",
          "name": "",
          "type": "uint256"
        }
      ],
      "stateMutability": "view",
      "type": "function"
    },
    {
      "inputs": [],
      "name": "trancheShareTotal",
      "outputs": [
        {
          "internalType": "uint256",
          "name": "",
          "type": "uint256"
        }
      ],
      "stateMutability": "view",
      "type": "function"
    },
    {
      "inputs": [
        {
          "internalType": "address",
          "name": "newOwner",
          "type": "address"
        }
      ],
      "name": "transferOwnership",
      "outputs": [],
      "stateMutability": "nonpayable",
      "type": "function"
    },
    {
      "inputs": [
        {
          "internalType": "uint8",
          "name": "tranche",
          "type": "uint8"
        },
        {
          "internalType": "uint256",
          "name": "claimId",
          "type": "uint256"
        }
      ],
      "name": "viewRewardAmount",
      "outputs": [
        {
          "internalType": "uint256",
          "name": "",
          "type": "uint256"
        }
      ],
      "stateMutability": "view",
      "type": "function"
    },
    {
      "inputs": [
        {
          "internalType": "uint8",
          "name": "tranche",
          "type": "uint8"
        },
        {
          "internalType": "uint256",
          "name": "claimId",
          "type": "uint256"
        }
      ],
      "name": "withdrawReward",
      "outputs": [
        {
          "internalType": "uint256",
          "name": "rewardAmount",
          "type": "uint256"
        }
      ],
      "stateMutability": "nonpayable",
      "type": "function"
    }
  ],
  "bytecode": "0x60806040526001600e553480156200001657600080fd5b5060405162001f6738038062001f6783398101604081905262000039916200011b565b600080546001600160a01b0319166001600160a01b0383161781556200005e620000fa565b600180546001600160a01b0319166001600160a01b038316908117909155604051919250906000907f8be0079c531659141344cd1fd0a4f28419497f9722a3daafe3b4186f6b6457e0908290a350600280546001600160a01b0319166001600160a01b038516179055620000db82670de0b6b3a76400006200017c565b600355620000ed62015180426200015b565b60045550620001a8915050565b3390565b80516001600160a01b03811681146200011657600080fd5b919050565b60008060006060848603121562000130578283fd5b6200013b84620000fe565b9250602084015191506200015260408501620000fe565b90509250925092565b6000826200017757634e487b7160e01b81526012600452602481fd5b500490565b6000816000190483118215151615620001a357634e487b7160e01b81526011600452602481fd5b500290565b611daf80620001b86000396000f3fe608060405234801561001057600080fd5b50600436106102c75760003560e01c806383a49c7c1161017b578063c6de9d5d116100d8578063d5d7ed7f1161008c578063f24696da11610071578063f24696da146104e5578063f2fde38b146104f8578063f54280871461050b576102c7565b8063d5d7ed7f146104ca578063eb3b6cec146104d2576102c7565b8063cacf8d45116100bd578063cacf8d451461049c578063cdb0aa46146104a4578063d56b1054146104b7576102c7565b8063c6de9d5d14610476578063ca2137fc14610489576102c7565b8063a80167111161012f578063a94c7c3411610114578063a94c7c3414610453578063a9cc05361461045b578063c63f5ab714610463576102c7565b8063a80167111461041e578063a888c2cd14610431576102c7565b8063982390231161016057806398239023146103fb578063a0021cf11461040e578063a0098d6914610416576102c7565b806383a49c7c146103eb5780638da5cb5b146103f3576102c7565b806346b887961161022957806366941984116101dd578063715018a6116101c2578063715018a6146103c85780637fad8a18146103d057806381ca6600146103e3576102c7565b806366941984146103b8578063678337f8146103c0576102c7565b806348fb27b81161020e57806348fb27b814610395578063583d86161461039d5780635c275a39146103b0576102c7565b806346b887961461037a578063472a003114610382576102c7565b80631bc5d81d116102805780633140a861116102655780633140a8611461034a57806332fe7b261461035d578063392f5f6414610365576102c7565b80631bc5d81d1461033a5780632fe94def14610342576102c7565b806317eef6f3116102b157806317eef6f31461030a57806318e843b71461031257806319f51afb14610325576102c7565b8062fae52b146102cc578063065d570f146102f5575b600080fd5b6102df6102da366004611910565b61051e565b6040516102ec9190611bf7565b60405180910390f35b6102fd610530565b6040516102ec9190611bbe565b6102df610535565b6102df610320366004611910565b61053b565b610338610333366004611968565b61054d565b005b6102fd610620565b6102fd610625565b6102df610358366004611968565b61062a565b6102fd61064f565b61036d610654565b6040516102ec91906119c3565b6102fd610670565b610338610390366004611991565b610675565b6102fd6107d7565b6102df6103ab36600461192a565b6107dc565b6102fd610945565b6102fd61094a565b6102df61094f565b610338610955565b6102df6103de366004611910565b610a37565b6102fd610a49565b6102fd610a4e565b61036d610a53565b6102df610409366004611968565b610a6f565b6102df610a88565b6102fd610a8e565b61033861042c366004611991565b610a93565b61044461043f3660046118f8565b610b4b565b6040516102ec93929190611c00565b6102fd610b82565b6102fd610b87565b6102df610471366004611910565b610b8c565b610338610484366004611968565b610b9e565b6102df610497366004611910565b610d36565b6102fd610d48565b6103386104b236600461192a565b610d4d565b6102df6104c5366004611968565b610ea0565b6102fd611011565b6103386104e0366004611910565b611016565b6102df6104f3366004611910565b611022565b6103386105063660046118a0565b611034565b610338610519366004611991565b611182565b60096020526000908152604090205481565b600381565b60035481565b60056020526000908152604090205481565b610555611237565b73ffffffffffffffffffffffffffffffffffffffff16610573610a53565b73ffffffffffffffffffffffffffffffffffffffff16146105c9576040517f08c379a00000000000000000000000000000000000000000000000000000000081526004016105c090611a72565b60405180910390fd5b60ff82166000908152600a6020526040902054610612576040517f08c379a00000000000000000000000000000000000000000000000000000000081526004016105c090611b04565b61061c828261123b565b5050565b600881565b606981565b6008602052816000526040600020816006811061064657600080fd5b01549150829050565b606781565b60005473ffffffffffffffffffffffffffffffffffffffff1681565b600681565b61067d611237565b73ffffffffffffffffffffffffffffffffffffffff1661069b610a53565b73ffffffffffffffffffffffffffffffffffffffff16146106e8576040517f08c379a00000000000000000000000000000000000000000000000000000000081526004016105c090611a72565b6106f2838361123b565b60ff8316600090815260076020526040812082905561071661384062015180611c44565b6107209083611c44565b905060005b61073461384062015180611c44565b81101561079b5760ff8516600090815260086020526040902082908260068110610787577f4e487b7100000000000000000000000000000000000000000000000000000000600052603260045260246000fd5b01558061079381611cac565b915050610725565b506107a861384042611c44565b60ff9094166000908152600a6020908152604080832096909655600c9052939093206401000000009055505050565b606681565b60006107e7336112d9565b61081d576040517f08c379a00000000000000000000000000000000000000000000000000000000081526004016105c090611aa7565b6003541561093a5761082e8461138b565b60ff84166000908152600b602052604081208054849290610850908490611c2c565b909155505060ff841660009081526009602052604081208054849290610877908490611c2c565b90915550506040805160608101825260ff86166000908152600c602090815283822054835273ffffffffffffffffffffffffffffffffffffffff878116828501908152848601888152600e80548652600d9094529584209451855551600180860180547fffffffffffffffffffffffff00000000000000000000000000000000000000001692909316919091179091559351600290930192909255815461091f908490611c2c565b9091555050600e5461093390600190611c95565b905061093e565b5060005b9392505050565b606581565b600181565b60065481565b61095d611237565b73ffffffffffffffffffffffffffffffffffffffff1661097b610a53565b73ffffffffffffffffffffffffffffffffffffffff16146109c8576040517f08c379a00000000000000000000000000000000000000000000000000000000081526004016105c090611a72565b60015460405160009173ffffffffffffffffffffffffffffffffffffffff16907f8be0079c531659141344cd1fd0a4f28419497f9722a3daafe3b4186f6b6457e0908390a3600180547fffffffffffffffffffffffff0000000000000000000000000000000000000000169055565b600c6020526000908152604090205481565b606a81565b600981565b60015473ffffffffffffffffffffffffffffffffffffffff1690565b6000818152600d6020526040812061093e9084906116cb565b600e5481565b600281565b610a9c336112d9565b610ad2576040517f08c379a00000000000000000000000000000000000000000000000000000000081526004016105c090611aa7565b610adb8361138b565b6000828152600d60205260409020610af384826116cb565b6401000000008260020154610b089190611c58565b610b129190611c44565b816000016000828254610b259190611c95565b9250508190555081816002016000828254610b409190611c95565b909155505050505050565b600d60205260009081526040902080546001820154600290920154909173ffffffffffffffffffffffffffffffffffffffff169083565b600581565b606881565b600a6020526000908152604090205481565b610ba7336112d9565b610bdd576040517f08c379a00000000000000000000000000000000000000000000000000000000081526004016105c090611aa7565b610be68261138b565b6000818152600d60205260409020805415610d31576000610c0784836116cb565b9050610c1161170c565b60025460018401546040517fd9caed1200000000000000000000000000000000000000000000000000000000815273ffffffffffffffffffffffffffffffffffffffff9384169363d9caed1293610c73939082169291169086906004016119e4565b602060405180830381600087803b158015610c8d57600080fd5b505af1158015610ca1573d6000803e3d6000fd5b505050506040513d601f19601f82011682018060405250810190610cc591906118d8565b610cfb576040517f08c379a00000000000000000000000000000000000000000000000000000000081526004016105c090611b61565b506001810180547fffffffffffffffffffffffff0000000000000000000000000000000000000000169055600080825560028201555b505050565b600b6020526000908152604090205481565b600481565b610d56336112d9565b610d8c576040517f08c379a00000000000000000000000000000000000000000000000000000000081526004016105c090611aa7565b610d958361138b565b60ff831660009081526009602052604081208054839290610db7908490611c2c565b9091555060009050640100000000610dce856117b9565b610dd89084611c58565b610de29190611c44565b9050610dec61170c565b6002546040517fd9caed1200000000000000000000000000000000000000000000000000000000815273ffffffffffffffffffffffffffffffffffffffff9283169263d9caed1292610e4792911690879086906004016119e4565b602060405180830381600087803b158015610e6157600080fd5b505af1158015610e75573d6000803e3d6000fd5b505050506040513d601f19601f82011682018060405250810190610e9991906118d8565b5050505050565b6000610eab336112d9565b610ee1576040517f08c379a00000000000000000000000000000000000000000000000000000000081526004016105c090611aa7565b610eea8361138b565b6000828152600d60205260409020610f0284826116cb565b9150610f0c61170c565b60025460018301546040517fd9caed1200000000000000000000000000000000000000000000000000000000815273ffffffffffffffffffffffffffffffffffffffff9384169363d9caed1293610f6e939082169291169087906004016119e4565b602060405180830381600087803b158015610f8857600080fd5b505af1158015610f9c573d6000803e3d6000fd5b505050506040513d601f19601f82011682018060405250810190610fc091906118d8565b610ff6576040517f08c379a00000000000000000000000000000000000000000000000000000000081526004016105c090611b61565b60ff9093166000908152600c60205260409020549092555090565b600781565b61101f8161138b565b50565b60076020526000908152604090205481565b61103c611237565b73ffffffffffffffffffffffffffffffffffffffff1661105a610a53565b73ffffffffffffffffffffffffffffffffffffffff16146110a7576040517f08c379a00000000000000000000000000000000000000000000000000000000081526004016105c090611a72565b73ffffffffffffffffffffffffffffffffffffffff81166110f4576040517f08c379a00000000000000000000000000000000000000000000000000000000081526004016105c090611a15565b60015460405173ffffffffffffffffffffffffffffffffffffffff8084169216907f8be0079c531659141344cd1fd0a4f28419497f9722a3daafe3b4186f6b6457e090600090a3600180547fffffffffffffffffffffffff00000000000000000000000000000000000000001673ffffffffffffffffffffffffffffffffffffffff92909216919091179055565b61118b336112d9565b6111c1576040517f08c379a00000000000000000000000000000000000000000000000000000000081526004016105c090611aa7565b60035415610d31576111d28361138b565b6000828152600d602052604090206111ea84826116cb565b64010000000082600201546111ff9190611c58565b6112099190611c44565b81600001600082825461121c9190611c95565b9250508190555081816002016000828254610b409190611c2c565b3390565b60ff821660009081526005602052604090205481111561128e5760ff82166000908152600560205260409020546112729082611c95565b600660008282546112839190611c2c565b909155506112c39050565b60ff82166000908152600560205260409020546112ac908290611c95565b600660008282546112bd9190611c95565b90915550505b60ff909116600090815260056020526040902055565b600080546040517fd87fefd200000000000000000000000000000000000000000000000000000000815273ffffffffffffffffffffffffffffffffffffffff9091169063d87fefd290611333906008908690600401611bcd565b60206040518083038186803b15801561134b57600080fd5b505afa15801561135f573d6000803e3d6000fd5b505050506040513d601f19601f8201168201806040525081019061138391906118d8565b90505b919050565b600061139961384042611c44565b90506113a3611828565b60ff82166000908152600a6020526040812054906113c18284611c95565b90506113d261384062015180611c44565b8111156114ea5760ff84166000908152600b60205260409020546113fb61384062015180611c44565b6114059082611c58565b60ff86166000908152600760205260408120919091555b61142b61384062015180611c44565b8110156114925760ff861660009081526008602052604090208290826006811061147e577f4e487b7100000000000000000000000000000000000000000000000000000000600052603260045260246000fd5b01558061148a81611cac565b91505061141c565b5060ff85166000908152600960205260409020819055816114b2866117b9565b6114bc9190611c58565b60ff86166000908152600c6020526040812080549091906114de908490611c2c565b909155506116b3915050565b815b838110156116b157600061150561384062015180611c44565b61150f9083611ce5565b905061151a866117b9565b60ff87166000908152600c60205260408120805490919061153c908490611c2c565b909155505060ff86166000908152600860205260409020816006811061158b577f4e487b7100000000000000000000000000000000000000000000000000000000600052603260045260246000fd5b015460ff8716600090815260076020526040812080549091906115af908490611c95565b909155505060ff86166000908152600960209081526040808320546008909252909120826006811061160a577f4e487b7100000000000000000000000000000000000000000000000000000000600052603260045260246000fd5b015560ff861660009081526008602052604090208160068110611656577f4e487b7100000000000000000000000000000000000000000000000000000000600052603260045260246000fd5b015460ff87166000908152600760205260408120805490919061167a908490611c2c565b90915550505060ff85166000908152600b6020908152604080832054600990925290912055806116a981611cac565b9150506114ec565b505b505060ff9091166000908152600a6020526040902055565b805460ff83166000908152600c60205260408120549091640100000000916116f39190611c95565b83600201546117029190611c58565b61093e9190611c44565b600080546040517f3c9c8f9c00000000000000000000000000000000000000000000000000000000815273ffffffffffffffffffffffffffffffffffffffff90911690633c9c8f9c9061176490606590600401611bbe565b60206040518083038186803b15801561177c57600080fd5b505afa158015611790573d6000803e3d6000fd5b505050506040513d601f19601f820116820180604052508101906117b491906118bc565b905090565b60065460ff82166000908152600560205260408120546003549192839290916117e191611c58565b6117f090640100000000611c58565b6117fa9190611c44565b905061180b61384062015180611c44565b60ff84166000908152600760205260409020546117029083611c44565b60006118376201518042611c44565b90506000600454826118499190611c95565b905060005b81811015611888576103e86103e76003546118699190611c58565b6118739190611c44565b6003558061188081611cac565b91505061184e565b5050600455565b803560ff8116811461138657600080fd5b6000602082840312156118b1578081fd5b813561093e81611d57565b6000602082840312156118cd578081fd5b815161093e81611d57565b6000602082840312156118e9578081fd5b8151801515811461093e578182fd5b600060208284031215611909578081fd5b5035919050565b600060208284031215611921578081fd5b61093e8261188f565b60008060006060848603121561193e578182fd5b6119478461188f565b9250602084013561195781611d57565b929592945050506040919091013590565b6000806040838503121561197a578182fd5b6119838361188f565b946020939093013593505050565b6000806000606084860312156119a5578283fd5b6119ae8461188f565b95602085013595506040909401359392505050565b73ffffffffffffffffffffffffffffffffffffffff91909116815260200190565b73ffffffffffffffffffffffffffffffffffffffff9384168152919092166020820152604081019190915260600190565b60208082526026908201527f4f776e61626c653a206e6577206f776e657220697320746865207a65726f206160408201527f6464726573730000000000000000000000000000000000000000000000000000606082015260800190565b6020808252818101527f4f776e61626c653a2063616c6c6572206973206e6f7420746865206f776e6572604082015260600190565b6020808252602c908201527f436f6e7472616374206e6f7420617574686f72697a656420746f207265706f7260408201527f7420696e63656e74697665730000000000000000000000000000000000000000606082015260800190565b60208082526033908201527f5472616e636865206973206e6f7420696e697469616c697a65642c20706c656160408201527f736520696e697469616c697a6520666972737400000000000000000000000000606082015260800190565b60208082526036908201527f5468657265207365656d7320746f2062652061206c61636b206f66204d46492060408201527f696e2074686520696e63656e746976652066756e642100000000000000000000606082015260800190565b61ffff91909116815260200190565b61ffff92909216825273ffffffffffffffffffffffffffffffffffffffff16602082015260400190565b90815260200190565b92835273ffffffffffffffffffffffffffffffffffffffff919091166020830152604082015260600190565b60008219821115611c3f57611c3f611cf9565b500190565b600082611c5357611c53611d28565b500490565b6000817fffffffffffffffffffffffffffffffffffffffffffffffffffffffffffffffff0483118215151615611c9057611c90611cf9565b500290565b600082821015611ca757611ca7611cf9565b500390565b60007fffffffffffffffffffffffffffffffffffffffffffffffffffffffffffffffff821415611cde57611cde611cf9565b5060010190565b600082611cf457611cf4611d28565b500690565b7f4e487b7100000000000000000000000000000000000000000000000000000000600052601160045260246000fd5b7f4e487b7100000000000000000000000000000000000000000000000000000000600052601260045260246000fd5b73ffffffffffffffffffffffffffffffffffffffff8116811461101f57600080fdfea2646970667358221220d338439834a78aaad8f8b26091738c76ad7527bd8341de493329ec6673320eb164736f6c63430008010033",
  "linkReferences": {},
  "deployedLinkReferences": {}
}