{
  "_format": "hh-sol-artifact-1",
  "contractName": "IncentiveDistribution",
  "sourceName": "contracts/IncentiveDistribution.sol",
  "abi": [
    {
      "inputs": [
        {
          "internalType": "address",
          "name": "_MFI",
          "type": "address"
        },
        {
          "internalType": "uint256",
          "name": "startingDailyDistributionWithoutDecimals",
          "type": "uint256"
        },
        {
          "internalType": "address",
          "name": "_roles",
          "type": "address"
        }
      ],
      "stateMutability": "nonpayable",
      "type": "constructor"
    },
    {
      "anonymous": false,
      "inputs": [
        {
          "indexed": true,
          "internalType": "address",
          "name": "previousOwner",
          "type": "address"
        },
        {
          "indexed": true,
          "internalType": "address",
          "name": "newOwner",
          "type": "address"
        }
      ],
      "name": "OwnershipTransferred",
      "type": "event"
    },
    {
      "inputs": [],
      "name": "AUTHORIZED_FUND_TRADER",
      "outputs": [
        {
          "internalType": "uint16",
          "name": "",
          "type": "uint16"
        }
      ],
      "stateMutability": "view",
      "type": "function"
    },
    {
      "inputs": [],
      "name": "BORROWER",
      "outputs": [
        {
          "internalType": "uint16",
          "name": "",
          "type": "uint16"
        }
      ],
      "stateMutability": "view",
      "type": "function"
    },
    {
      "inputs": [],
      "name": "FEE_CONTROLLER",
      "outputs": [
        {
          "internalType": "uint16",
          "name": "",
          "type": "uint16"
        }
      ],
      "stateMutability": "view",
      "type": "function"
    },
    {
      "inputs": [],
      "name": "FEE_SOURCE",
      "outputs": [
        {
          "internalType": "uint16",
          "name": "",
          "type": "uint16"
        }
      ],
      "stateMutability": "view",
      "type": "function"
    },
    {
      "inputs": [],
      "name": "FUND",
      "outputs": [
        {
          "internalType": "uint16",
          "name": "",
          "type": "uint16"
        }
      ],
      "stateMutability": "view",
      "type": "function"
    },
    {
      "inputs": [],
      "name": "INCENTIVE_REPORTER",
      "outputs": [
        {
          "internalType": "uint16",
          "name": "",
          "type": "uint16"
        }
      ],
      "stateMutability": "view",
      "type": "function"
    },
    {
      "inputs": [],
      "name": "LENDING",
      "outputs": [
        {
          "internalType": "uint16",
          "name": "",
          "type": "uint16"
        }
      ],
      "stateMutability": "view",
      "type": "function"
    },
    {
      "inputs": [],
      "name": "LIQUIDATOR",
      "outputs": [
        {
          "internalType": "uint16",
          "name": "",
          "type": "uint16"
        }
      ],
      "stateMutability": "view",
      "type": "function"
    },
    {
      "inputs": [],
      "name": "MARGIN_CALLER",
      "outputs": [
        {
          "internalType": "uint16",
          "name": "",
          "type": "uint16"
        }
      ],
      "stateMutability": "view",
      "type": "function"
    },
    {
      "inputs": [],
      "name": "MARGIN_TRADER",
      "outputs": [
        {
          "internalType": "uint16",
          "name": "",
          "type": "uint16"
        }
      ],
      "stateMutability": "view",
      "type": "function"
    },
    {
      "inputs": [],
      "name": "MARGIN_TRADING",
      "outputs": [
        {
          "internalType": "uint16",
          "name": "",
          "type": "uint16"
        }
      ],
      "stateMutability": "view",
      "type": "function"
    },
    {
      "inputs": [],
      "name": "PRICE_CONTROLLER",
      "outputs": [
        {
          "internalType": "uint16",
          "name": "",
          "type": "uint16"
        }
      ],
      "stateMutability": "view",
      "type": "function"
    },
    {
      "inputs": [],
      "name": "ROUTER",
      "outputs": [
        {
          "internalType": "uint16",
          "name": "",
          "type": "uint16"
        }
      ],
      "stateMutability": "view",
      "type": "function"
    },
    {
      "inputs": [],
      "name": "TOKEN_ACTIVATOR",
      "outputs": [
        {
          "internalType": "uint16",
          "name": "",
          "type": "uint16"
        }
      ],
      "stateMutability": "view",
      "type": "function"
    },
    {
      "inputs": [],
      "name": "WITHDRAWER",
      "outputs": [
        {
          "internalType": "uint16",
          "name": "",
          "type": "uint16"
        }
      ],
      "stateMutability": "view",
      "type": "function"
    },
    {
      "inputs": [
        {
          "internalType": "uint8",
          "name": "tranche",
          "type": "uint8"
        },
        {
          "internalType": "uint256",
          "name": "claimId",
          "type": "uint256"
        },
        {
          "internalType": "uint256",
          "name": "additionalAmount",
          "type": "uint256"
        }
      ],
      "name": "addToClaimAmount",
      "outputs": [],
      "stateMutability": "nonpayable",
      "type": "function"
    },
    {
      "inputs": [
        {
          "internalType": "uint8",
          "name": "",
          "type": "uint8"
        }
      ],
      "name": "aggregatePeriodicRewardRateFP",
      "outputs": [
        {
          "internalType": "uint256",
          "name": "",
          "type": "uint256"
        }
      ],
      "stateMutability": "view",
      "type": "function"
    },
    {
      "inputs": [
        {
          "internalType": "uint256",
          "name": "",
          "type": "uint256"
        }
      ],
      "name": "claims",
      "outputs": [
        {
          "internalType": "uint256",
          "name": "startingRewardRateFP",
          "type": "uint256"
        },
        {
          "internalType": "address",
          "name": "recipient",
          "type": "address"
        },
        {
          "internalType": "uint256",
          "name": "amount",
          "type": "uint256"
        }
      ],
      "stateMutability": "view",
      "type": "function"
    },
    {
      "inputs": [],
      "name": "currentDailyDistribution",
      "outputs": [
        {
          "internalType": "uint256",
          "name": "",
          "type": "uint256"
        }
      ],
      "stateMutability": "view",
      "type": "function"
    },
    {
      "inputs": [
        {
          "internalType": "uint8",
          "name": "",
          "type": "uint8"
        }
      ],
      "name": "currentDayTotals",
      "outputs": [
        {
          "internalType": "uint256",
          "name": "",
          "type": "uint256"
        }
      ],
      "stateMutability": "view",
      "type": "function"
    },
    {
      "inputs": [
        {
          "internalType": "uint8",
          "name": "",
          "type": "uint8"
        }
      ],
      "name": "currentPeriodTotals",
      "outputs": [
        {
          "internalType": "uint256",
          "name": "",
          "type": "uint256"
        }
      ],
      "stateMutability": "view",
      "type": "function"
    },
    {
      "inputs": [
        {
          "internalType": "uint8",
          "name": "tranche",
          "type": "uint8"
        },
        {
          "internalType": "uint256",
          "name": "claimId",
          "type": "uint256"
        }
      ],
      "name": "endClaim",
      "outputs": [],
      "stateMutability": "nonpayable",
      "type": "function"
    },
    {
      "inputs": [
        {
          "internalType": "uint8",
          "name": "tranche",
          "type": "uint8"
        }
      ],
      "name": "forcePeriodTotalUpdate",
      "outputs": [],
      "stateMutability": "nonpayable",
      "type": "function"
    },
    {
      "inputs": [
        {
          "internalType": "uint8",
          "name": "tranche",
          "type": "uint8"
        },
        {
          "internalType": "address",
          "name": "recipient",
          "type": "address"
        },
        {
          "internalType": "uint256",
          "name": "spotAmount",
          "type": "uint256"
        }
      ],
      "name": "getSpotReward",
      "outputs": [],
      "stateMutability": "nonpayable",
      "type": "function"
    },
    {
      "inputs": [
        {
          "internalType": "uint8",
          "name": "tranche",
          "type": "uint8"
        },
        {
          "internalType": "uint256",
          "name": "share",
          "type": "uint256"
        },
        {
          "internalType": "uint256",
          "name": "assumedInitialDailyTotalWithoutDecimals",
          "type": "uint256"
        }
      ],
      "name": "initTranche",
      "outputs": [],
      "stateMutability": "nonpayable",
      "type": "function"
    },
    {
      "inputs": [
        {
          "internalType": "uint8",
          "name": "",
          "type": "uint8"
        }
      ],
      "name": "lastUpdatedPeriods",
      "outputs": [
        {
          "internalType": "uint256",
          "name": "",
          "type": "uint256"
        }
      ],
      "stateMutability": "view",
      "type": "function"
    },
    {
      "inputs": [],
      "name": "nextClaimId",
      "outputs": [
        {
          "internalType": "uint256",
          "name": "",
          "type": "uint256"
        }
      ],
      "stateMutability": "view",
      "type": "function"
    },
    {
      "inputs": [
        {
          "internalType": "uint8",
          "name": "",
          "type": "uint8"
        }
      ],
      "name": "ongoingTotals",
      "outputs": [
        {
          "internalType": "uint256",
          "name": "",
          "type": "uint256"
        }
      ],
      "stateMutability": "view",
      "type": "function"
    },
    {
      "inputs": [],
      "name": "owner",
      "outputs": [
        {
          "internalType": "address",
          "name": "",
          "type": "address"
        }
      ],
      "stateMutability": "view",
      "type": "function"
    },
    {
      "inputs": [
        {
          "internalType": "uint8",
          "name": "",
          "type": "uint8"
        },
        {
          "internalType": "uint256",
          "name": "",
          "type": "uint256"
        }
      ],
      "name": "periodTotals",
      "outputs": [
        {
          "internalType": "uint256",
          "name": "",
          "type": "uint256"
        }
      ],
      "stateMutability": "view",
      "type": "function"
    },
    {
      "inputs": [],
      "name": "renounceOwnership",
      "outputs": [],
      "stateMutability": "nonpayable",
      "type": "function"
    },
    {
      "inputs": [],
      "name": "roles",
      "outputs": [
        {
          "internalType": "contract Roles",
          "name": "",
          "type": "address"
        }
      ],
      "stateMutability": "view",
      "type": "function"
    },
    {
      "inputs": [
        {
          "internalType": "uint8",
          "name": "tranche",
          "type": "uint8"
        },
        {
          "internalType": "uint256",
          "name": "share",
          "type": "uint256"
        }
      ],
      "name": "setTrancheShare",
      "outputs": [],
      "stateMutability": "nonpayable",
      "type": "function"
    },
    {
      "inputs": [
        {
          "internalType": "uint8",
          "name": "tranche",
          "type": "uint8"
        },
        {
          "internalType": "address",
          "name": "recipient",
          "type": "address"
        },
        {
          "internalType": "uint256",
          "name": "claimAmount",
          "type": "uint256"
        }
      ],
      "name": "startClaim",
      "outputs": [
        {
          "internalType": "uint256",
          "name": "",
          "type": "uint256"
        }
      ],
      "stateMutability": "nonpayable",
      "type": "function"
    },
    {
      "inputs": [
        {
          "internalType": "uint8",
          "name": "tranche",
          "type": "uint8"
        },
        {
          "internalType": "uint256",
          "name": "claimId",
          "type": "uint256"
        },
        {
          "internalType": "uint256",
          "name": "subtractAmount",
          "type": "uint256"
        }
      ],
      "name": "subtractFromClaimAmount",
      "outputs": [],
      "stateMutability": "nonpayable",
      "type": "function"
    },
    {
      "inputs": [
        {
          "internalType": "uint8",
          "name": "",
          "type": "uint8"
        }
      ],
      "name": "trancheShare",
      "outputs": [
        {
          "internalType": "uint256",
          "name": "",
          "type": "uint256"
        }
      ],
      "stateMutability": "view",
      "type": "function"
    },
    {
      "inputs": [],
      "name": "trancheShareTotal",
      "outputs": [
        {
          "internalType": "uint256",
          "name": "",
          "type": "uint256"
        }
      ],
      "stateMutability": "view",
      "type": "function"
    },
    {
      "inputs": [
        {
          "internalType": "address",
          "name": "newOwner",
          "type": "address"
        }
      ],
      "name": "transferOwnership",
      "outputs": [],
      "stateMutability": "nonpayable",
      "type": "function"
    },
    {
      "inputs": [
        {
          "internalType": "uint8",
          "name": "tranche",
          "type": "uint8"
        },
        {
          "internalType": "uint256",
          "name": "claimId",
          "type": "uint256"
        }
      ],
      "name": "viewRewardAmount",
      "outputs": [
        {
          "internalType": "uint256",
          "name": "",
          "type": "uint256"
        }
      ],
      "stateMutability": "view",
      "type": "function"
    },
    {
      "inputs": [
        {
          "internalType": "uint8",
          "name": "tranche",
          "type": "uint8"
        },
        {
          "internalType": "uint256",
          "name": "claimId",
          "type": "uint256"
        }
      ],
      "name": "withdrawReward",
      "outputs": [
        {
          "internalType": "uint256",
          "name": "",
          "type": "uint256"
        }
      ],
      "stateMutability": "nonpayable",
      "type": "function"
    }
  ],
  "bytecode": "0x60806040526001600e553480156200001657600080fd5b5060405162001f6a38038062001f6a83398101604081905262000039916200011b565b600080546001600160a01b0319166001600160a01b0383161781556200005e620000fa565b600180546001600160a01b0319166001600160a01b038316908117909155604051919250906000907f8be0079c531659141344cd1fd0a4f28419497f9722a3daafe3b4186f6b6457e0908290a350600280546001600160a01b0319166001600160a01b038516179055620000db82670de0b6b3a76400006200017c565b600355620000ed62015180426200015b565b60045550620001a8915050565b3390565b80516001600160a01b03811681146200011657600080fd5b919050565b60008060006060848603121562000130578283fd5b6200013b84620000fe565b9250602084015191506200015260408501620000fe565b90509250925092565b6000826200017757634e487b7160e01b81526012600452602481fd5b500490565b6000816000190483118215151615620001a357634e487b7160e01b81526011600452602481fd5b500290565b611db280620001b86000396000f3fe608060405234801561001057600080fd5b50600436106102c75760003560e01c806383a49c7c1161017b578063c6de9d5d116100d8578063d5d7ed7f1161008c578063f24696da11610071578063f24696da146104e5578063f2fde38b146104f8578063f54280871461050b576102c7565b8063d5d7ed7f146104ca578063eb3b6cec146104d2576102c7565b8063cacf8d45116100bd578063cacf8d451461049c578063cdb0aa46146104a4578063d56b1054146104b7576102c7565b8063c6de9d5d14610476578063ca2137fc14610489576102c7565b8063a80167111161012f578063a94c7c3411610114578063a94c7c3414610453578063a9cc05361461045b578063c63f5ab714610463576102c7565b8063a80167111461041e578063a888c2cd14610431576102c7565b8063982390231161016057806398239023146103fb578063a0021cf11461040e578063a0098d6914610416576102c7565b806383a49c7c146103eb5780638da5cb5b146103f3576102c7565b806346b887961161022957806366941984116101dd578063715018a6116101c2578063715018a6146103c85780637fad8a18146103d057806381ca6600146103e3576102c7565b806366941984146103b8578063678337f8146103c0576102c7565b806348fb27b81161020e57806348fb27b814610395578063583d86161461039d5780635c275a39146103b0576102c7565b806346b887961461037a578063472a003114610382576102c7565b80631bc5d81d116102805780633140a861116102655780633140a8611461034a57806332fe7b261461035d578063392f5f6414610365576102c7565b80631bc5d81d1461033a5780632fe94def14610342576102c7565b806317eef6f3116102b157806317eef6f31461030a57806318e843b71461031257806319f51afb14610325576102c7565b8062fae52b146102cc578063065d570f146102f5575b600080fd5b6102df6102da3660046118b6565b61051e565b6040516102ec9190611bfa565b60405180910390f35b6102fd610530565b6040516102ec9190611bc1565b6102df610535565b6102df6103203660046118b6565b61053b565b61033861033336600461190e565b61054d565b005b6102fd610620565b6102fd610625565b6102df61035836600461190e565b61062a565b6102fd61064f565b61036d610654565b6040516102ec9190611969565b6102fd610670565b610338610390366004611937565b610675565b6102fd6107fd565b6102df6103ab3660046118d0565b610802565b6102fd61096b565b6102fd610970565b6102df610975565b61033861097b565b6102df6103de3660046118b6565b610a5d565b6102fd610a6f565b6102fd610a74565b61036d610a79565b6102df61040936600461190e565b610a95565b6102df610aae565b6102fd610ab4565b61033861042c366004611937565b610ab9565b61044461043f36600461189e565b610b87565b6040516102ec93929190611c03565b6102fd610bbe565b6102fd610bc3565b6102df6104713660046118b6565b610bc8565b61033861048436600461190e565b610bda565b6102df6104973660046118b6565b610c7c565b6102fd610c8e565b6103386104b23660046118d0565b610c93565b6102df6104c536600461190e565b610de6565b6102fd610e50565b6103386104e03660046118b6565b610e55565b6102df6104f33660046118b6565b610e61565b610338610506366004611846565b610e73565b610338610519366004611937565b610fc1565b60096020526000908152604090205481565b600381565b60035481565b60056020526000908152604090205481565b6105556110c4565b73ffffffffffffffffffffffffffffffffffffffff16610573610a79565b73ffffffffffffffffffffffffffffffffffffffff16146105c9576040517f08c379a00000000000000000000000000000000000000000000000000000000081526004016105c090611a75565b60405180910390fd5b60ff82166000908152600a6020526040902054610612576040517f08c379a00000000000000000000000000000000000000000000000000000000081526004016105c090611b07565b61061c82826110c8565b5050565b600881565b606981565b6008602052816000526040600020816006811061064657600080fd5b01549150829050565b606781565b60005473ffffffffffffffffffffffffffffffffffffffff1681565b600681565b61067d6110c4565b73ffffffffffffffffffffffffffffffffffffffff1661069b610a79565b73ffffffffffffffffffffffffffffffffffffffff16146106e8576040517f08c379a00000000000000000000000000000000000000000000000000000000081526004016105c090611a75565b6106f283836110c8565b61070481670de0b6b3a7640000611c5b565b60ff841660009081526007602052604081209190915561072961384062015180611c47565b60ff85166000908152600760205260409020546107469190611c47565b905060005b61075a61384062015180611c47565b8110156107c15760ff85166000908152600860205260409020829082600681106107ad577f4e487b7100000000000000000000000000000000000000000000000000000000600052603260045260246000fd5b0155806107b981611caf565b91505061074b565b506107ce61384042611c47565b60ff9094166000908152600a6020908152604080832096909655600c9052939093206401000000009055505050565b606681565b600061080d33611166565b610843576040517f08c379a00000000000000000000000000000000000000000000000000000000081526004016105c090611aaa565b600354156109605761085484611218565b60ff84166000908152600b602052604081208054849290610876908490611c2f565b909155505060ff84166000908152600960205260408120805484929061089d908490611c2f565b90915550506040805160608101825260ff86166000908152600c602090815283822054835273ffffffffffffffffffffffffffffffffffffffff878116828501908152848601888152600e80548652600d9094529584209451855551600180860180547fffffffffffffffffffffffff000000000000000000000000000000000000000016929093169190911790915593516002909301929092558154610945908490611c2f565b9091555050600e5461095990600190611c98565b9050610964565b5060005b9392505050565b606581565b600181565b60065481565b6109836110c4565b73ffffffffffffffffffffffffffffffffffffffff166109a1610a79565b73ffffffffffffffffffffffffffffffffffffffff16146109ee576040517f08c379a00000000000000000000000000000000000000000000000000000000081526004016105c090611a75565b60015460405160009173ffffffffffffffffffffffffffffffffffffffff16907f8be0079c531659141344cd1fd0a4f28419497f9722a3daafe3b4186f6b6457e0908390a3600180547fffffffffffffffffffffffff0000000000000000000000000000000000000000169055565b600c6020526000908152604090205481565b606a81565b600981565b60015473ffffffffffffffffffffffffffffffffffffffff1690565b6000818152600d60205260408120610964908490611558565b600e5481565b600281565b610ac233611166565b610af8576040517f08c379a00000000000000000000000000000000000000000000000000000000081526004016105c090611aaa565b610b0183611218565b60ff83166000908152600b602052604081208054839290610b23908490611c98565b909155505060ff831660009081526009602052604081208054839290610b4a908490611c98565b90915550506000828152600d60205260409020610b678482611599565b5081816002016000828254610b7c9190611c98565b909155505050505050565b600d60205260009081526040902080546001820154600290920154909173ffffffffffffffffffffffffffffffffffffffff169083565b600581565b606881565b600a6020526000908152604090205481565b610be333611166565b610c19576040517f08c379a00000000000000000000000000000000000000000000000000000000081526004016105c090611aaa565b610c2282611218565b6000818152600d60205260409020805415610c7757610c418382611599565b506001810180547fffffffffffffffffffffffff0000000000000000000000000000000000000000169055600080825560028201555b505050565b600b6020526000908152604090205481565b600481565b610c9c33611166565b610cd2576040517f08c379a00000000000000000000000000000000000000000000000000000000081526004016105c090611aaa565b610cdb83611218565b60ff831660009081526009602052604081208054839290610cfd908490611c2f565b9091555060009050640100000000610d14856116b2565b610d1e9084611c5b565b610d289190611c47565b9050610d32611721565b6002546040517fd9caed1200000000000000000000000000000000000000000000000000000000815273ffffffffffffffffffffffffffffffffffffffff9283169263d9caed1292610d8d929116908790869060040161198a565b602060405180830381600087803b158015610da757600080fd5b505af1158015610dbb573d6000803e3d6000fd5b505050506040513d601f19601f82011682018060405250810190610ddf919061187e565b5050505050565b6000610df133611166565b610e27576040517f08c379a00000000000000000000000000000000000000000000000000000000081526004016105c090611aaa565b610e3083611218565b6000828152600d60205260409020610e488482611599565b949350505050565b600781565b610e5e81611218565b50565b60076020526000908152604090205481565b610e7b6110c4565b73ffffffffffffffffffffffffffffffffffffffff16610e99610a79565b73ffffffffffffffffffffffffffffffffffffffff1614610ee6576040517f08c379a00000000000000000000000000000000000000000000000000000000081526004016105c090611a75565b73ffffffffffffffffffffffffffffffffffffffff8116610f33576040517f08c379a00000000000000000000000000000000000000000000000000000000081526004016105c0906119bb565b60015460405173ffffffffffffffffffffffffffffffffffffffff8084169216907f8be0079c531659141344cd1fd0a4f28419497f9722a3daafe3b4186f6b6457e090600090a3600180547fffffffffffffffffffffffff00000000000000000000000000000000000000001673ffffffffffffffffffffffffffffffffffffffff92909216919091179055565b610fca33611166565b611000576040517f08c379a00000000000000000000000000000000000000000000000000000000081526004016105c090611aaa565b60035415610c775761101183611218565b60ff83166000908152600b602052604081208054839290611033908490611c2f565b909155505060ff83166000908152600960205260408120805483929061105a908490611c2f565b90915550506000828152600d6020526040902080546110a5576040517f08c379a00000000000000000000000000000000000000000000000000000000081526004016105c090611a18565b6110af8482611599565b5081816002016000828254610b7c9190611c2f565b3390565b60ff821660009081526005602052604090205481111561111b5760ff82166000908152600560205260409020546110ff9082611c98565b600660008282546111109190611c2f565b909155506111509050565b60ff8216600090815260056020526040902054611139908290611c98565b6006600082825461114a9190611c98565b90915550505b60ff909116600090815260056020526040902055565b600080546040517fd87fefd200000000000000000000000000000000000000000000000000000000815273ffffffffffffffffffffffffffffffffffffffff9091169063d87fefd2906111c0906008908690600401611bd0565b60206040518083038186803b1580156111d857600080fd5b505afa1580156111ec573d6000803e3d6000fd5b505050506040513d601f19601f82011682018060405250810190611210919061187e565b90505b919050565b600061122661384042611c47565b90506112306117ce565b60ff82166000908152600a60205260408120549061124e8284611c98565b905061125f61384062015180611c47565b8111156113775760ff84166000908152600b602052604090205461128861384062015180611c47565b6112929082611c5b565b60ff86166000908152600760205260408120919091555b6112b861384062015180611c47565b81101561131f5760ff861660009081526008602052604090208290826006811061130b577f4e487b7100000000000000000000000000000000000000000000000000000000600052603260045260246000fd5b01558061131781611caf565b9150506112a9565b5060ff851660009081526009602052604090208190558161133f866116b2565b6113499190611c5b565b60ff86166000908152600c60205260408120805490919061136b908490611c2f565b90915550611540915050565b815b8381101561153e57600061139261384062015180611c47565b61139c9083611ce8565b90506113a7866116b2565b60ff87166000908152600c6020526040812080549091906113c9908490611c2f565b909155505060ff861660009081526008602052604090208160068110611418577f4e487b7100000000000000000000000000000000000000000000000000000000600052603260045260246000fd5b015460ff87166000908152600760205260408120805490919061143c908490611c98565b909155505060ff861660009081526009602090815260408083205460089092529091208260068110611497577f4e487b7100000000000000000000000000000000000000000000000000000000600052603260045260246000fd5b015560ff8616600090815260086020526040902081600681106114e3577f4e487b7100000000000000000000000000000000000000000000000000000000600052603260045260246000fd5b015460ff871660009081526007602052604081208054909190611507908490611c2f565b90915550505060ff85166000908152600b60209081526040808320546009909252909120558061153681611caf565b915050611379565b505b505060ff9091166000908152600a6020526040902055565b805460ff83166000908152600c60205260408120549091640100000000916115809190611c98565b836002015461158f9190611c5b565b6109649190611c47565b60006115a58383611558565b90506115af611721565b60025460018401546040517fd9caed1200000000000000000000000000000000000000000000000000000000815273ffffffffffffffffffffffffffffffffffffffff9384169363d9caed12936116119390821692911690869060040161198a565b602060405180830381600087803b15801561162b57600080fd5b505af115801561163f573d6000803e3d6000fd5b505050506040513d601f19601f82011682018060405250810190611663919061187e565b611699576040517f08c379a00000000000000000000000000000000000000000000000000000000081526004016105c090611b64565b60ff9092166000908152600c6020526040902054905590565b60065460ff82166000908152600560205260408120546003549192839290916116da91611c5b565b6116e990640100000000611c5b565b6116f39190611c47565b905061170461384062015180611c47565b60ff841660009081526007602052604090205461158f9083611c47565b600080546040517f3c9c8f9c00000000000000000000000000000000000000000000000000000000815273ffffffffffffffffffffffffffffffffffffffff90911690633c9c8f9c9061177990606590600401611bc1565b60206040518083038186803b15801561179157600080fd5b505afa1580156117a5573d6000803e3d6000fd5b505050506040513d601f19601f820116820180604052508101906117c99190611862565b905090565b60006117dd6201518042611c47565b90506000600454826117ef9190611c98565b905060005b8181101561182e576103e86103e760035461180f9190611c5b565b6118199190611c47565b6003558061182681611caf565b9150506117f4565b5050600455565b803560ff8116811461121357600080fd5b600060208284031215611857578081fd5b813561096481611d5a565b600060208284031215611873578081fd5b815161096481611d5a565b60006020828403121561188f578081fd5b81518015158114610964578182fd5b6000602082840312156118af578081fd5b5035919050565b6000602082840312156118c7578081fd5b61096482611835565b6000806000606084860312156118e4578182fd5b6118ed84611835565b925060208401356118fd81611d5a565b929592945050506040919091013590565b60008060408385031215611920578182fd5b61192983611835565b946020939093013593505050565b60008060006060848603121561194b578283fd5b61195484611835565b95602085013595506040909401359392505050565b73ffffffffffffffffffffffffffffffffffffffff91909116815260200190565b73ffffffffffffffffffffffffffffffffffffffff9384168152919092166020820152604081019190915260600190565b60208082526026908201527f4f776e61626c653a206e6577206f776e657220697320746865207a65726f206160408201527f6464726573730000000000000000000000000000000000000000000000000000606082015260800190565b60208082526023908201527f547279696e6720746f2061646420746f206e6f6e2d6578697374616e7420636c60408201527f61696d0000000000000000000000000000000000000000000000000000000000606082015260800190565b6020808252818101527f4f776e61626c653a2063616c6c6572206973206e6f7420746865206f776e6572604082015260600190565b6020808252602c908201527f436f6e7472616374206e6f7420617574686f72697a656420746f207265706f7260408201527f7420696e63656e74697665730000000000000000000000000000000000000000606082015260800190565b60208082526033908201527f5472616e636865206973206e6f7420696e697469616c697a65642c20706c656160408201527f736520696e697469616c697a6520666972737400000000000000000000000000606082015260800190565b60208082526036908201527f5468657265207365656d7320746f2062652061206c61636b206f66204d46492060408201527f696e2074686520696e63656e746976652066756e642100000000000000000000606082015260800190565b61ffff91909116815260200190565b61ffff92909216825273ffffffffffffffffffffffffffffffffffffffff16602082015260400190565b90815260200190565b92835273ffffffffffffffffffffffffffffffffffffffff919091166020830152604082015260600190565b60008219821115611c4257611c42611cfc565b500190565b600082611c5657611c56611d2b565b500490565b6000817fffffffffffffffffffffffffffffffffffffffffffffffffffffffffffffffff0483118215151615611c9357611c93611cfc565b500290565b600082821015611caa57611caa611cfc565b500390565b60007fffffffffffffffffffffffffffffffffffffffffffffffffffffffffffffffff821415611ce157611ce1611cfc565b5060010190565b600082611cf757611cf7611d2b565b500690565b7f4e487b7100000000000000000000000000000000000000000000000000000000600052601160045260246000fd5b7f4e487b7100000000000000000000000000000000000000000000000000000000600052601260045260246000fd5b73ffffffffffffffffffffffffffffffffffffffff81168114610e5e57600080fdfea264697066735822122054c8c405dcac6236659b71055d8e9d7022b1306d8fc26e384f90cda66d37732164736f6c63430008010033",
  "linkReferences": {},
  "deployedLinkReferences": {}
}