{
  "_format": "hh-sol-artifact-1",
  "contractName": "IncentiveDistribution",
  "sourceName": "contracts/IncentiveDistribution.sol",
  "abi": [
    {
      "inputs": [
        {
          "internalType": "address",
          "name": "_MFI",
          "type": "address"
        },
        {
          "internalType": "uint256",
          "name": "startingDailyDistributionWithoutDecimals",
          "type": "uint256"
        },
        {
          "internalType": "address",
          "name": "_roles",
          "type": "address"
        }
      ],
      "stateMutability": "nonpayable",
      "type": "constructor"
    },
    {
      "anonymous": false,
      "inputs": [
        {
          "indexed": true,
          "internalType": "address",
          "name": "previousOwner",
          "type": "address"
        },
        {
          "indexed": true,
          "internalType": "address",
          "name": "newOwner",
          "type": "address"
        }
      ],
      "name": "OwnershipTransferred",
      "type": "event"
    },
    {
      "inputs": [],
      "name": "ADMIN",
      "outputs": [
        {
          "internalType": "uint16",
          "name": "",
          "type": "uint16"
        }
      ],
      "stateMutability": "view",
      "type": "function"
    },
    {
      "inputs": [],
      "name": "AUTHORIZED_FUND_TRADER",
      "outputs": [
        {
          "internalType": "uint16",
          "name": "",
          "type": "uint16"
        }
      ],
      "stateMutability": "view",
      "type": "function"
    },
    {
      "inputs": [],
      "name": "BORROWER",
      "outputs": [
        {
          "internalType": "uint16",
          "name": "",
          "type": "uint16"
        }
      ],
      "stateMutability": "view",
      "type": "function"
    },
    {
      "inputs": [],
      "name": "FEE_CONTROLLER",
      "outputs": [
        {
          "internalType": "uint16",
          "name": "",
          "type": "uint16"
        }
      ],
      "stateMutability": "view",
      "type": "function"
    },
    {
      "inputs": [],
      "name": "FEE_SOURCE",
      "outputs": [
        {
          "internalType": "uint16",
          "name": "",
          "type": "uint16"
        }
      ],
      "stateMutability": "view",
      "type": "function"
    },
    {
      "inputs": [],
      "name": "FUND",
      "outputs": [
        {
          "internalType": "uint16",
          "name": "",
          "type": "uint16"
        }
      ],
      "stateMutability": "view",
      "type": "function"
    },
    {
      "inputs": [],
      "name": "INCENTIVE_DISTRIBUTION",
      "outputs": [
        {
          "internalType": "uint16",
          "name": "",
          "type": "uint16"
        }
      ],
      "stateMutability": "view",
      "type": "function"
    },
    {
      "inputs": [],
      "name": "INCENTIVE_REPORTER",
      "outputs": [
        {
          "internalType": "uint16",
          "name": "",
          "type": "uint16"
        }
      ],
      "stateMutability": "view",
      "type": "function"
    },
    {
      "inputs": [],
      "name": "LENDING",
      "outputs": [
        {
          "internalType": "uint16",
          "name": "",
          "type": "uint16"
        }
      ],
      "stateMutability": "view",
      "type": "function"
    },
    {
      "inputs": [],
      "name": "LIQUIDATOR",
      "outputs": [
        {
          "internalType": "uint16",
          "name": "",
          "type": "uint16"
        }
      ],
      "stateMutability": "view",
      "type": "function"
    },
    {
      "inputs": [],
      "name": "MARGIN_CALLER",
      "outputs": [
        {
          "internalType": "uint16",
          "name": "",
          "type": "uint16"
        }
      ],
      "stateMutability": "view",
      "type": "function"
    },
    {
      "inputs": [],
      "name": "MARGIN_TRADER",
      "outputs": [
        {
          "internalType": "uint16",
          "name": "",
          "type": "uint16"
        }
      ],
      "stateMutability": "view",
      "type": "function"
    },
    {
      "inputs": [],
      "name": "MARGIN_TRADING",
      "outputs": [
        {
          "internalType": "uint16",
          "name": "",
          "type": "uint16"
        }
      ],
      "stateMutability": "view",
      "type": "function"
    },
    {
      "inputs": [],
      "name": "PRICE_CONTROLLER",
      "outputs": [
        {
          "internalType": "uint16",
          "name": "",
          "type": "uint16"
        }
      ],
      "stateMutability": "view",
      "type": "function"
    },
    {
      "inputs": [],
      "name": "ROUTER",
      "outputs": [
        {
          "internalType": "uint16",
          "name": "",
          "type": "uint16"
        }
      ],
      "stateMutability": "view",
      "type": "function"
    },
    {
      "inputs": [],
      "name": "TOKEN_ACTIVATOR",
      "outputs": [
        {
          "internalType": "uint16",
          "name": "",
          "type": "uint16"
        }
      ],
      "stateMutability": "view",
      "type": "function"
    },
    {
      "inputs": [],
      "name": "WITHDRAWER",
      "outputs": [
        {
          "internalType": "uint16",
          "name": "",
          "type": "uint16"
        }
      ],
      "stateMutability": "view",
      "type": "function"
    },
    {
      "inputs": [
        {
          "internalType": "uint8",
          "name": "tranche",
          "type": "uint8"
        },
        {
          "internalType": "uint256",
          "name": "claimId",
          "type": "uint256"
        },
        {
          "internalType": "uint256",
          "name": "additionalAmount",
          "type": "uint256"
        }
      ],
      "name": "addToClaimAmount",
      "outputs": [],
      "stateMutability": "nonpayable",
      "type": "function"
    },
    {
      "inputs": [
        {
          "internalType": "uint8",
          "name": "",
          "type": "uint8"
        }
      ],
      "name": "aggregatePeriodicRewardRateFP",
      "outputs": [
        {
          "internalType": "uint256",
          "name": "",
          "type": "uint256"
        }
      ],
      "stateMutability": "view",
      "type": "function"
    },
    {
      "inputs": [
        {
          "internalType": "uint256",
          "name": "",
          "type": "uint256"
        }
      ],
      "name": "claims",
      "outputs": [
        {
          "internalType": "uint256",
          "name": "startingRewardRateFP",
          "type": "uint256"
        },
        {
          "internalType": "address",
          "name": "recipient",
          "type": "address"
        },
        {
          "internalType": "uint256",
          "name": "amount",
          "type": "uint256"
        }
      ],
      "stateMutability": "view",
      "type": "function"
    },
    {
      "inputs": [],
      "name": "currentDailyDistribution",
      "outputs": [
        {
          "internalType": "uint256",
          "name": "",
          "type": "uint256"
        }
      ],
      "stateMutability": "view",
      "type": "function"
    },
    {
      "inputs": [
        {
          "internalType": "uint8",
          "name": "",
          "type": "uint8"
        }
      ],
      "name": "currentPeriodTotals",
      "outputs": [
        {
          "internalType": "uint256",
          "name": "",
          "type": "uint256"
        }
      ],
      "stateMutability": "view",
      "type": "function"
    },
    {
      "inputs": [
        {
          "internalType": "uint8",
          "name": "tranche",
          "type": "uint8"
        },
        {
          "internalType": "uint256",
          "name": "claimId",
          "type": "uint256"
        }
      ],
      "name": "endClaim",
      "outputs": [],
      "stateMutability": "nonpayable",
      "type": "function"
    },
    {
      "inputs": [
        {
          "internalType": "uint8",
          "name": "tranche",
          "type": "uint8"
        }
      ],
      "name": "forcePeriodTotalUpdate",
      "outputs": [],
      "stateMutability": "nonpayable",
      "type": "function"
    },
    {
      "inputs": [
        {
          "internalType": "uint8",
          "name": "tranche",
          "type": "uint8"
        },
        {
          "internalType": "uint256",
          "name": "share",
          "type": "uint256"
        }
      ],
      "name": "initTranche",
      "outputs": [],
      "stateMutability": "nonpayable",
      "type": "function"
    },
    {
      "inputs": [
        {
          "internalType": "uint8",
          "name": "",
          "type": "uint8"
        }
      ],
      "name": "lastUpdatedPeriods",
      "outputs": [
        {
          "internalType": "uint256",
          "name": "",
          "type": "uint256"
        }
      ],
      "stateMutability": "view",
      "type": "function"
    },
    {
      "inputs": [
        {
          "internalType": "uint16",
          "name": "",
          "type": "uint16"
        }
      ],
      "name": "mainCharacterCache",
      "outputs": [
        {
          "internalType": "address",
          "name": "",
          "type": "address"
        }
      ],
      "stateMutability": "view",
      "type": "function"
    },
    {
      "inputs": [],
      "name": "nextClaimId",
      "outputs": [
        {
          "internalType": "uint256",
          "name": "",
          "type": "uint256"
        }
      ],
      "stateMutability": "view",
      "type": "function"
    },
    {
      "inputs": [],
      "name": "owner",
      "outputs": [
        {
          "internalType": "address",
          "name": "",
          "type": "address"
        }
      ],
      "stateMutability": "view",
      "type": "function"
    },
    {
      "inputs": [],
      "name": "renounceOwnership",
      "outputs": [],
      "stateMutability": "nonpayable",
      "type": "function"
    },
    {
      "inputs": [
        {
          "internalType": "address",
          "name": "",
          "type": "address"
        },
        {
          "internalType": "uint16",
          "name": "",
          "type": "uint16"
        }
      ],
      "name": "roleCache",
      "outputs": [
        {
          "internalType": "bool",
          "name": "",
          "type": "bool"
        }
      ],
      "stateMutability": "view",
      "type": "function"
    },
    {
      "inputs": [],
      "name": "roles",
      "outputs": [
        {
          "internalType": "contract Roles",
          "name": "",
          "type": "address"
        }
      ],
      "stateMutability": "view",
      "type": "function"
    },
    {
      "inputs": [
        {
          "internalType": "uint8",
          "name": "tranche",
          "type": "uint8"
        },
        {
          "internalType": "uint256",
          "name": "share",
          "type": "uint256"
        }
      ],
      "name": "setTrancheShare",
      "outputs": [],
      "stateMutability": "nonpayable",
      "type": "function"
    },
    {
      "inputs": [
        {
          "internalType": "uint8",
          "name": "tranche",
          "type": "uint8"
        },
        {
          "internalType": "address",
          "name": "recipient",
          "type": "address"
        },
        {
          "internalType": "uint256",
          "name": "claimAmount",
          "type": "uint256"
        }
      ],
      "name": "startClaim",
      "outputs": [
        {
          "internalType": "uint256",
          "name": "",
          "type": "uint256"
        }
      ],
      "stateMutability": "nonpayable",
      "type": "function"
    },
    {
      "inputs": [
        {
          "internalType": "uint8",
          "name": "tranche",
          "type": "uint8"
        },
        {
          "internalType": "uint256",
          "name": "claimId",
          "type": "uint256"
        },
        {
          "internalType": "uint256",
          "name": "subtractAmount",
          "type": "uint256"
        }
      ],
      "name": "subtractFromClaimAmount",
      "outputs": [],
      "stateMutability": "nonpayable",
      "type": "function"
    },
    {
      "inputs": [
        {
          "internalType": "uint8",
          "name": "",
          "type": "uint8"
        }
      ],
      "name": "trancheShare",
      "outputs": [
        {
          "internalType": "uint256",
          "name": "",
          "type": "uint256"
        }
      ],
      "stateMutability": "view",
      "type": "function"
    },
    {
      "inputs": [],
      "name": "trancheShareTotal",
      "outputs": [
        {
          "internalType": "uint256",
          "name": "",
          "type": "uint256"
        }
      ],
      "stateMutability": "view",
      "type": "function"
    },
    {
      "inputs": [
        {
          "internalType": "address",
          "name": "newOwner",
          "type": "address"
        }
      ],
      "name": "transferOwnership",
      "outputs": [],
      "stateMutability": "nonpayable",
      "type": "function"
    },
    {
      "inputs": [
        {
          "internalType": "uint16",
          "name": "role",
          "type": "uint16"
        }
      ],
      "name": "updateMainCharacterCache",
      "outputs": [],
      "stateMutability": "nonpayable",
      "type": "function"
    },
    {
      "inputs": [
        {
          "internalType": "uint16",
          "name": "role",
          "type": "uint16"
        },
        {
          "internalType": "address",
          "name": "contr",
          "type": "address"
        }
      ],
      "name": "updateRoleCache",
      "outputs": [],
      "stateMutability": "nonpayable",
      "type": "function"
    },
    {
      "inputs": [
        {
          "internalType": "uint8",
          "name": "tranche",
          "type": "uint8"
        },
        {
          "internalType": "uint256",
          "name": "claimId",
          "type": "uint256"
        }
      ],
      "name": "viewRewardAmount",
      "outputs": [
        {
          "internalType": "uint256",
          "name": "",
          "type": "uint256"
        }
      ],
      "stateMutability": "view",
      "type": "function"
    },
    {
      "inputs": [
        {
          "internalType": "uint8",
          "name": "tranche",
          "type": "uint8"
        },
        {
          "internalType": "uint256",
          "name": "claimId",
          "type": "uint256"
        }
      ],
      "name": "withdrawReward",
      "outputs": [
        {
          "internalType": "uint256",
          "name": "",
          "type": "uint256"
        }
      ],
      "stateMutability": "nonpayable",
      "type": "function"
    }
  ],
  "bytecode": "0x60806040526001600d553480156200001657600080fd5b5060405162001c1a38038062001c1a83398101604081905262000039916200011b565b600080546001600160a01b0319166001600160a01b0383161781556200005e620000fa565b600380546001600160a01b0319166001600160a01b038316908117909155604051919250906000907f8be0079c531659141344cd1fd0a4f28419497f9722a3daafe3b4186f6b6457e0908290a350600480546001600160a01b0319166001600160a01b038516179055620000db82670de0b6b3a76400006200017c565b600555620000ed62015180426200015b565b60065550620001a8915050565b3390565b80516001600160a01b03811681146200011657600080fd5b919050565b60008060006060848603121562000130578283fd5b6200013b84620000fe565b9250602084015191506200015260408501620000fe565b90509250925092565b6000826200017757634e487b7160e01b81526012600452602481fd5b500490565b6000816000190483118215151615620001a357634e487b7160e01b81526011600452602481fd5b500290565b611a6280620001b86000396000f3fe608060405234801561001057600080fd5b50600436106102dd5760003560e01c806381ca660011610186578063b4481652116100e3578063cacf8d4511610097578063eb3b6cec11610071578063eb3b6cec14610518578063f2fde38b1461052b578063f54280871461053e576102dd565b8063cacf8d45146104f5578063d56b1054146104fd578063d5d7ed7f14610510576102dd565b8063c63f5ab7116100c8578063c63f5ab7146104c7578063c6de9d5d146104da578063c76139d0146104ed576102dd565b8063b448165214610494578063c34316c3146104a7576102dd565b8063a0098d691161013a578063a888c2cd1161011f578063a888c2cd14610462578063a94c7c3414610484578063a9cc05361461048c576102dd565b8063a0098d6914610447578063a80167111461044f576102dd565b80638da5cb5b1161016b5780638da5cb5b14610424578063982390231461042c578063a0021cf11461043f576102dd565b806381ca66001461041457806383a49c7c1461041c576102dd565b8063392f5f641161023f5780635c275a39116101f35780636cd5cd60116101cd5780636cd5cd60146103e6578063715018a6146103f95780637fad8a1814610401576102dd565b80635c275a39146103ce57806366941984146103d6578063678337f8146103de576102dd565b806346b887961161022457806346b88796146103ab57806348fb27b8146103b3578063583d8616146103bb576102dd565b8063392f5f6414610383578063430c39e414610398576102dd565b80631bc5d81d116102965780632a0acc6a1161027b5780632a0acc6a1461036b5780632fe94def1461037357806332fe7b261461037b576102dd565b80631bc5d81d1461035057806320e8d81914610358576102dd565b806317eef6f3116102c757806317eef6f31461032057806318e843b71461032857806319f51afb1461033b576102dd565b8062fae52b146102e2578063065d570f1461030b575b600080fd5b6102f56102f0366004611579565b610551565b60405161030291906118c8565b60405180910390f35b610313610563565b604051610302919061188f565b6102f5610568565b6102f5610336366004611579565b61056e565b61034e6103493660046115d1565b610580565b005b610313610653565b61034e61036636600461152b565b610658565b610313610769565b61031361076e565b610313610773565b61038b610778565b604051610302919061162c565b61034e6103a63660046115d1565b610794565b61031361084a565b61031361084f565b6102f56103c9366004611593565b610854565b610313610996565b61031361099b565b6102f56109a0565b61034e6103f4366004611511565b6109a6565b61034e610aa5565b6102f561040f366004611579565b610b87565b610313610b99565b610313610b9e565b61038b610ba3565b6102f561043a3660046115d1565b610bbf565b6102f5610bd8565b610313610bde565b61034e61045d3660046115fa565b610be3565b610475610470366004611561565b610c8a565b604051610302939291906118d1565b610313610cc1565b610313610cc6565b61038b6104a2366004611511565b610ccb565b6104ba6104b53660046114bd565b610cf3565b604051610302919061167e565b6102f56104d5366004611579565b610d13565b61034e6104e83660046115d1565b610d25565b610313610dc7565b610313610dcc565b6102f561050b3660046115d1565b610dd1565b610313610e3b565b61034e610526366004611579565b610e40565b61034e610539366004611485565b610e4c565b61034e61054c3660046115fa565b610f9a565b60096020526000908152604090205481565b600381565b60055481565b60076020526000908152604090205481565b610588611076565b73ffffffffffffffffffffffffffffffffffffffff166105a6610ba3565b73ffffffffffffffffffffffffffffffffffffffff16146105fc576040517f08c379a00000000000000000000000000000000000000000000000000000000081526004016105f390611743565b60405180910390fd5b60ff82166000908152600a6020526040902054610645576040517f08c379a00000000000000000000000000000000000000000000000000000000081526004016105f3906117d5565b61064f828261107a565b5050565b600881565b6000546040517fd87fefd200000000000000000000000000000000000000000000000000000000815273ffffffffffffffffffffffffffffffffffffffff9091169063d87fefd2906106b0908590859060040161189e565b60206040518083038186803b1580156106c857600080fd5b505afa1580156106dc573d6000803e3d6000fd5b505050506040513d601f19601f8201168201806040525081019061070091906114f1565b73ffffffffffffffffffffffffffffffffffffffff909116600090815260026020908152604080832061ffff90951683529390529190912080549115157fffffffffffffffffffffffffffffffffffffffffffffffffffffffffffffff00909216919091179055565b606b81565b606981565b606781565b60005473ffffffffffffffffffffffffffffffffffffffff1681565b61079c611076565b73ffffffffffffffffffffffffffffffffffffffff166107ba610ba3565b73ffffffffffffffffffffffffffffffffffffffff1614610807576040517f08c379a00000000000000000000000000000000000000000000000000000000081526004016105f390611743565b610811828261107a565b61081d61384042611915565b60ff9092166000908152600a6020908152604080832094909455600b905291909120640100000000905550565b600681565b606681565b600061085f33611118565b610895576040517f08c379a00000000000000000000000000000000000000000000000000000000081526004016105f390611778565b6005541561098b576108a684611153565b60ff8416600090815260096020526040812080548492906108c89084906118fd565b90915550506040805160608101825260ff86166000908152600b602090815283822054835273ffffffffffffffffffffffffffffffffffffffff878116828501908152848601888152600d80548652600c9094529584209451855551600180860180547fffffffffffffffffffffffff0000000000000000000000000000000000000000169290931691909117909155935160029093019290925581546109709084906118fd565b9091555050600d546109849060019061198b565b905061098f565b5060005b9392505050565b606581565b600181565b60085481565b6000546040517f3c9c8f9c00000000000000000000000000000000000000000000000000000000815273ffffffffffffffffffffffffffffffffffffffff90911690633c9c8f9c906109fc90849060040161188f565b60206040518083038186803b158015610a1457600080fd5b505afa158015610a28573d6000803e3d6000fd5b505050506040513d601f19601f82011682018060405250810190610a4c91906114a1565b61ffff91909116600090815260016020526040902080547fffffffffffffffffffffffff00000000000000000000000000000000000000001673ffffffffffffffffffffffffffffffffffffffff909216919091179055565b610aad611076565b73ffffffffffffffffffffffffffffffffffffffff16610acb610ba3565b73ffffffffffffffffffffffffffffffffffffffff1614610b18576040517f08c379a00000000000000000000000000000000000000000000000000000000081526004016105f390611743565b60035460405160009173ffffffffffffffffffffffffffffffffffffffff16907f8be0079c531659141344cd1fd0a4f28419497f9722a3daafe3b4186f6b6457e0908390a3600380547fffffffffffffffffffffffff0000000000000000000000000000000000000000169055565b600b6020526000908152604090205481565b606a81565b600981565b60035473ffffffffffffffffffffffffffffffffffffffff1690565b6000818152600c6020526040812061098f9084906111e5565b600d5481565b600281565b610bec33611118565b610c22576040517f08c379a00000000000000000000000000000000000000000000000000000000081526004016105f390611778565b610c2b83611153565b60ff831660009081526009602052604081208054839290610c4d90849061198b565b90915550506000828152600c60205260409020610c6a8482611226565b5081816002016000828254610c7f919061198b565b909155505050505050565b600c60205260009081526040902080546001820154600290920154909173ffffffffffffffffffffffffffffffffffffffff169083565b600581565b606881565b60016020526000908152604090205473ffffffffffffffffffffffffffffffffffffffff1681565b600260209081526000928352604080842090915290825290205460ff1681565b600a6020526000908152604090205481565b610d2e33611118565b610d64576040517f08c379a00000000000000000000000000000000000000000000000000000000081526004016105f390611778565b610d6d82611153565b6000818152600c60205260409020805415610dc257610d8c8382611226565b506001810180547fffffffffffffffffffffffff0000000000000000000000000000000000000000169055600080825560028201555b505050565b606c81565b600481565b6000610ddc33611118565b610e12576040517f08c379a00000000000000000000000000000000000000000000000000000000081526004016105f390611778565b610e1b83611153565b6000828152600c60205260409020610e338482611226565b949350505050565b600781565b610e4981611153565b50565b610e54611076565b73ffffffffffffffffffffffffffffffffffffffff16610e72610ba3565b73ffffffffffffffffffffffffffffffffffffffff1614610ebf576040517f08c379a00000000000000000000000000000000000000000000000000000000081526004016105f390611743565b73ffffffffffffffffffffffffffffffffffffffff8116610f0c576040517f08c379a00000000000000000000000000000000000000000000000000000000081526004016105f390611689565b60035460405173ffffffffffffffffffffffffffffffffffffffff8084169216907f8be0079c531659141344cd1fd0a4f28419497f9722a3daafe3b4186f6b6457e090600090a3600380547fffffffffffffffffffffffff00000000000000000000000000000000000000001673ffffffffffffffffffffffffffffffffffffffff92909216919091179055565b610fa333611118565b610fd9576040517f08c379a00000000000000000000000000000000000000000000000000000000081526004016105f390611778565b60055415610dc257610fea83611153565b60ff83166000908152600960205260408120805483929061100c9084906118fd565b90915550506000828152600c602052604090208054611057576040517f08c379a00000000000000000000000000000000000000000000000000000000081526004016105f3906116e6565b6110618482611226565b5081816002016000828254610c7f91906118fd565b3390565b60ff82166000908152600760205260409020548111156110cd5760ff82166000908152600760205260409020546110b1908261198b565b600860008282546110c291906118fd565b909155506111029050565b60ff82166000908152600760205260409020546110eb90829061198b565b600860008282546110fc919061198b565b90915550505b60ff909116600090815260076020526040902055565b73ffffffffffffffffffffffffffffffffffffffff811660009081526002602090815260408083206008845290915290205460ff165b919050565b600061116161384042611915565b905061116b61133e565b60ff82166000908152600a602052604081205490611189828461198b565b905080156111cd578061119b856113a5565b6111a5919061194e565b60ff85166000908152600b6020526040812080549091906111c79084906118fd565b90915550505b505060ff9091166000908152600a6020526040902055565b805460ff83166000908152600b602052604081205490916401000000009161120d919061198b565b836002015461121c919061194e565b61098f9190611915565b600061123283836111e5565b905061123c61141d565b6004805460018501546040517fd9caed1200000000000000000000000000000000000000000000000000000000815273ffffffffffffffffffffffffffffffffffffffff9485169463d9caed129461129d948216939091169187910161164d565b602060405180830381600087803b1580156112b757600080fd5b505af11580156112cb573d6000803e3d6000fd5b505050506040513d601f19601f820116820180604052508101906112ef91906114f1565b611325576040517f08c379a00000000000000000000000000000000000000000000000000000000081526004016105f390611832565b60ff9092166000908152600b6020526040902054905590565b600061134d6201518042611915565b905060006006548261135f919061198b565b905060005b8181101561139e576103e86103e760055461137f919061194e565b6113899190611915565b60055580611396816119a2565b915050611364565b5050600655565b6000806113b761384062015180611915565b60085460ff85166000908152600760205260409020546005546113df9064010000000061194e565b6113e9919061194e565b6113f39190611915565b6113fd9190611915565b60ff841660009081526009602052604090205490915061098f9082611915565b606560005260016020527f6def5a300acb6fcaa0dab3a41e9d6457b5147a641e641380f8cc4bf5308b16fe5473ffffffffffffffffffffffffffffffffffffffff1690565b803561ffff8116811461114e57600080fd5b803560ff8116811461114e57600080fd5b600060208284031215611496578081fd5b813561098f81611a0a565b6000602082840312156114b2578081fd5b815161098f81611a0a565b600080604083850312156114cf578081fd5b82356114da81611a0a565b91506114e860208401611462565b90509250929050565b600060208284031215611502578081fd5b8151801515811461098f578182fd5b600060208284031215611522578081fd5b61098f82611462565b6000806040838503121561153d578182fd5b61154683611462565b9150602083013561155681611a0a565b809150509250929050565b600060208284031215611572578081fd5b5035919050565b60006020828403121561158a578081fd5b61098f82611474565b6000806000606084860312156115a7578081fd5b6115b084611474565b925060208401356115c081611a0a565b929592945050506040919091013590565b600080604083850312156115e3578182fd5b6115ec83611474565b946020939093013593505050565b60008060006060848603121561160e578283fd5b61161784611474565b95602085013595506040909401359392505050565b73ffffffffffffffffffffffffffffffffffffffff91909116815260200190565b73ffffffffffffffffffffffffffffffffffffffff9384168152919092166020820152604081019190915260600190565b901515815260200190565b60208082526026908201527f4f776e61626c653a206e6577206f776e657220697320746865207a65726f206160408201527f6464726573730000000000000000000000000000000000000000000000000000606082015260800190565b60208082526023908201527f547279696e6720746f2061646420746f206e6f6e2d6578697374616e7420636c60408201527f61696d0000000000000000000000000000000000000000000000000000000000606082015260800190565b6020808252818101527f4f776e61626c653a2063616c6c6572206973206e6f7420746865206f776e6572604082015260600190565b6020808252602c908201527f436f6e7472616374206e6f7420617574686f72697a656420746f207265706f7260408201527f7420696e63656e74697665730000000000000000000000000000000000000000606082015260800190565b60208082526033908201527f5472616e636865206973206e6f7420696e697469616c697a65642c20706c656160408201527f736520696e697469616c697a6520666972737400000000000000000000000000606082015260800190565b60208082526036908201527f5468657265207365656d7320746f2062652061206c61636b206f66204d46492060408201527f696e2074686520696e63656e746976652066756e642100000000000000000000606082015260800190565b61ffff91909116815260200190565b61ffff92909216825273ffffffffffffffffffffffffffffffffffffffff16602082015260400190565b90815260200190565b92835273ffffffffffffffffffffffffffffffffffffffff919091166020830152604082015260600190565b60008219821115611910576119106119db565b500190565b600082611949577f4e487b710000000000000000000000000000000000000000000000000000000081526012600452602481fd5b500490565b6000817fffffffffffffffffffffffffffffffffffffffffffffffffffffffffffffffff0483118215151615611986576119866119db565b500290565b60008282101561199d5761199d6119db565b500390565b60007fffffffffffffffffffffffffffffffffffffffffffffffffffffffffffffffff8214156119d4576119d46119db565b5060010190565b7f4e487b7100000000000000000000000000000000000000000000000000000000600052601160045260246000fd5b73ffffffffffffffffffffffffffffffffffffffff81168114610e4957600080fdfea2646970667358221220859115251f8cf36939e9daccfde6893f4ac9c0d4c051950eddfa3125e4ccb03264736f6c63430008010033",
  "linkReferences": {},
  "deployedLinkReferences": {}
}