{
  "_format": "hh-sol-artifact-1",
  "contractName": "MarginRouter",
  "sourceName": "contracts/MarginRouter.sol",
  "abi": [
    {
      "inputs": [
        {
          "internalType": "address",
          "name": "uniswapFactory",
          "type": "address"
        },
        {
          "internalType": "address",
          "name": "sushiswapFactory",
          "type": "address"
        },
        {
          "internalType": "address",
          "name": "_WETH",
          "type": "address"
        },
        {
          "internalType": "address",
          "name": "_roles",
          "type": "address"
        }
      ],
      "stateMutability": "nonpayable",
      "type": "constructor"
    },
    {
      "inputs": [],
      "name": "AUTHORIZED_FUND_TRADER",
      "outputs": [
        {
          "internalType": "uint16",
          "name": "",
          "type": "uint16"
        }
      ],
      "stateMutability": "view",
      "type": "function"
    },
    {
      "inputs": [],
      "name": "BORROWER",
      "outputs": [
        {
          "internalType": "uint16",
          "name": "",
          "type": "uint16"
        }
      ],
      "stateMutability": "view",
      "type": "function"
    },
    {
      "inputs": [],
      "name": "FEE_CONTROLLER",
      "outputs": [
        {
          "internalType": "uint16",
          "name": "",
          "type": "uint16"
        }
      ],
      "stateMutability": "view",
      "type": "function"
    },
    {
      "inputs": [],
      "name": "FEE_SOURCE",
      "outputs": [
        {
          "internalType": "uint16",
          "name": "",
          "type": "uint16"
        }
      ],
      "stateMutability": "view",
      "type": "function"
    },
    {
      "inputs": [],
      "name": "FUND",
      "outputs": [
        {
          "internalType": "uint16",
          "name": "",
          "type": "uint16"
        }
      ],
      "stateMutability": "view",
      "type": "function"
    },
    {
      "inputs": [],
      "name": "INCENTIVE_REPORTER",
      "outputs": [
        {
          "internalType": "uint16",
          "name": "",
          "type": "uint16"
        }
      ],
      "stateMutability": "view",
      "type": "function"
    },
    {
      "inputs": [],
      "name": "LENDING",
      "outputs": [
        {
          "internalType": "uint16",
          "name": "",
          "type": "uint16"
        }
      ],
      "stateMutability": "view",
      "type": "function"
    },
    {
      "inputs": [],
      "name": "LIQUIDATOR",
      "outputs": [
        {
          "internalType": "uint16",
          "name": "",
          "type": "uint16"
        }
      ],
      "stateMutability": "view",
      "type": "function"
    },
    {
      "inputs": [],
      "name": "MARGIN_CALLER",
      "outputs": [
        {
          "internalType": "uint16",
          "name": "",
          "type": "uint16"
        }
      ],
      "stateMutability": "view",
      "type": "function"
    },
    {
      "inputs": [],
      "name": "MARGIN_TRADER",
      "outputs": [
        {
          "internalType": "uint16",
          "name": "",
          "type": "uint16"
        }
      ],
      "stateMutability": "view",
      "type": "function"
    },
    {
      "inputs": [],
      "name": "MARGIN_TRADING",
      "outputs": [
        {
          "internalType": "uint16",
          "name": "",
          "type": "uint16"
        }
      ],
      "stateMutability": "view",
      "type": "function"
    },
    {
      "inputs": [],
      "name": "PRICE_CONTROLLER",
      "outputs": [
        {
          "internalType": "uint16",
          "name": "",
          "type": "uint16"
        }
      ],
      "stateMutability": "view",
      "type": "function"
    },
    {
      "inputs": [],
      "name": "ROUTER",
      "outputs": [
        {
          "internalType": "uint16",
          "name": "",
          "type": "uint16"
        }
      ],
      "stateMutability": "view",
      "type": "function"
    },
    {
      "inputs": [],
      "name": "WITHDRAWER",
      "outputs": [
        {
          "internalType": "uint16",
          "name": "",
          "type": "uint16"
        }
      ],
      "stateMutability": "view",
      "type": "function"
    },
    {
      "inputs": [
        {
          "internalType": "enum AMM",
          "name": "amm",
          "type": "uint8"
        },
        {
          "internalType": "uint256",
          "name": "amountIn",
          "type": "uint256"
        },
        {
          "internalType": "uint256",
          "name": "amountOutMin",
          "type": "uint256"
        },
        {
          "internalType": "address[]",
          "name": "path",
          "type": "address[]"
        }
      ],
      "name": "authorizedSwapExactT4T",
      "outputs": [
        {
          "internalType": "uint256[]",
          "name": "",
          "type": "uint256[]"
        }
      ],
      "stateMutability": "nonpayable",
      "type": "function"
    },
    {
      "inputs": [
        {
          "internalType": "enum AMM",
          "name": "amm",
          "type": "uint8"
        },
        {
          "internalType": "uint256",
          "name": "amountOut",
          "type": "uint256"
        },
        {
          "internalType": "uint256",
          "name": "amountInMax",
          "type": "uint256"
        },
        {
          "internalType": "address[]",
          "name": "path",
          "type": "address[]"
        }
      ],
      "name": "authorizedSwapT4ExactT",
      "outputs": [
        {
          "internalType": "uint256[]",
          "name": "",
          "type": "uint256[]"
        }
      ],
      "stateMutability": "nonpayable",
      "type": "function"
    },
    {
      "inputs": [
        {
          "internalType": "address",
          "name": "borrowToken",
          "type": "address"
        },
        {
          "internalType": "uint256",
          "name": "borrowAmount",
          "type": "uint256"
        }
      ],
      "name": "crossBorrow",
      "outputs": [],
      "stateMutability": "nonpayable",
      "type": "function"
    },
    {
      "inputs": [
        {
          "internalType": "address",
          "name": "depositToken",
          "type": "address"
        },
        {
          "internalType": "uint256",
          "name": "depositAmount",
          "type": "uint256"
        }
      ],
      "name": "crossDeposit",
      "outputs": [],
      "stateMutability": "nonpayable",
      "type": "function"
    },
    {
      "inputs": [],
      "name": "crossDepositETH",
      "outputs": [],
      "stateMutability": "payable",
      "type": "function"
    },
    {
      "inputs": [
        {
          "internalType": "address",
          "name": "debtToken",
          "type": "address"
        },
        {
          "internalType": "uint256",
          "name": "extinguishAmount",
          "type": "uint256"
        }
      ],
      "name": "crossExtinguishDebt",
      "outputs": [],
      "stateMutability": "nonpayable",
      "type": "function"
    },
    {
      "inputs": [
        {
          "internalType": "enum AMM",
          "name": "amm",
          "type": "uint8"
        },
        {
          "internalType": "uint256",
          "name": "amountIn",
          "type": "uint256"
        },
        {
          "internalType": "uint256",
          "name": "amountOutMin",
          "type": "uint256"
        },
        {
          "internalType": "address[]",
          "name": "path",
          "type": "address[]"
        },
        {
          "internalType": "uint256",
          "name": "deadline",
          "type": "uint256"
        }
      ],
      "name": "crossSwapExactTokensForTokens",
      "outputs": [
        {
          "internalType": "uint256[]",
          "name": "amounts",
          "type": "uint256[]"
        }
      ],
      "stateMutability": "nonpayable",
      "type": "function"
    },
    {
      "inputs": [
        {
          "internalType": "enum AMM",
          "name": "amm",
          "type": "uint8"
        },
        {
          "internalType": "uint256",
          "name": "amountOut",
          "type": "uint256"
        },
        {
          "internalType": "uint256",
          "name": "amountInMax",
          "type": "uint256"
        },
        {
          "internalType": "address[]",
          "name": "path",
          "type": "address[]"
        },
        {
          "internalType": "uint256",
          "name": "deadline",
          "type": "uint256"
        }
      ],
      "name": "crossSwapTokensForExactTokens",
      "outputs": [
        {
          "internalType": "uint256[]",
          "name": "amounts",
          "type": "uint256[]"
        }
      ],
      "stateMutability": "nonpayable",
      "type": "function"
    },
    {
      "inputs": [
        {
          "internalType": "address",
          "name": "withdrawToken",
          "type": "address"
        },
        {
          "internalType": "uint256",
          "name": "withdrawAmount",
          "type": "uint256"
        }
      ],
      "name": "crossWithdraw",
      "outputs": [],
      "stateMutability": "nonpayable",
      "type": "function"
    },
    {
      "inputs": [
        {
          "internalType": "uint256",
          "name": "withdrawAmount",
          "type": "uint256"
        }
      ],
      "name": "crossWithdrawETH",
      "outputs": [],
      "stateMutability": "nonpayable",
      "type": "function"
    },
    {
      "inputs": [
        {
          "internalType": "enum AMM",
          "name": "amm",
          "type": "uint8"
        },
        {
          "internalType": "uint256",
          "name": "outAmount",
          "type": "uint256"
        },
        {
          "internalType": "address[]",
          "name": "path",
          "type": "address[]"
        }
      ],
      "name": "getAmountsIn",
      "outputs": [
        {
          "internalType": "uint256[]",
          "name": "",
          "type": "uint256[]"
        }
      ],
      "stateMutability": "view",
      "type": "function"
    },
    {
      "inputs": [
        {
          "internalType": "enum AMM",
          "name": "amm",
          "type": "uint8"
        },
        {
          "internalType": "uint256",
          "name": "inAmount",
          "type": "uint256"
        },
        {
          "internalType": "address[]",
          "name": "path",
          "type": "address[]"
        }
      ],
      "name": "getAmountsOut",
      "outputs": [
        {
          "internalType": "uint256[]",
          "name": "",
          "type": "uint256[]"
        }
      ],
      "stateMutability": "view",
      "type": "function"
    },
    {
      "inputs": [],
      "name": "roles",
      "outputs": [
        {
          "internalType": "contract Roles",
          "name": "",
          "type": "address"
        }
      ],
      "stateMutability": "view",
      "type": "function"
    }
  ],
  "bytecode": "0x60806040523480156200001157600080fd5b506040516200380e3803806200380e8339810160408190526200003491620000e9565b600080546001600160a01b03199081166001600160a01b03938416178255600160208190527fa6eef7e35abe7026729641147f7915573c7e97b47efa546f5f6e3230263bcb4980548316978516979097179096559490527fcc69885fda6bcc1a4ace058b4a62bf5e179ea78fd58a1ccd71c22cc9b688792f805485169382169390931790925560028054909316911617905562000145565b80516001600160a01b0381168114620000e457600080fd5b919050565b60008060008060808587031215620000ff578384fd5b6200010a85620000cc565b93506200011a60208601620000cc565b92506200012a60408601620000cc565b91506200013a60608601620000cc565b905092959194509250565b6136b980620001556000396000f3fe6080604052600436106101ac5760003560e01c80635c275a39116100ec578063a94c7c341161008a578063d5d7ed7f11610064578063d5d7ed7f14610411578063e3e0626b14610426578063eaa095f814610446578063eedb97c714610466576101ac565b8063a94c7c34146103d2578063a9cc0536146103e7578063cacf8d45146103fc576101ac565b806390b931ed116100c657806390b931ed1461037557806394427b2014610395578063a0098d691461039d578063a5f9a362146103b2576101ac565b80635c275a3914610336578063669419841461034b57806381ca660014610360576101ac565b80632233c43611610159578063392f5f6411610133578063392f5f64146102ca57806346b88796146102ec57806348eb4f3e1461030157806348fb27b814610321576101ac565b80632233c436146102805780632fe94def146102a057806332fe7b26146102b5576101ac565b80631bc5d81d1161018a5780631bc5d81d1461022b5780631dce3baa146102405780631f2a674314610260576101ac565b8063065d570f146101b15780630aa29f1c146101dc5780631306d90214610209575b600080fd5b3480156101bd57600080fd5b506101c6610486565b6040516101d39190613473565b60405180910390f35b3480156101e857600080fd5b506101fc6101f7366004612cc1565b61048b565b6040516101d39190612f90565b34801561021557600080fd5b50610229610224366004612c1e565b610589565b005b34801561023757600080fd5b506101c661081e565b34801561024c57600080fd5b5061022961025b366004612de3565b610823565b34801561026c57600080fd5b506101fc61027b366004612cc1565b610969565b34801561028c57600080fd5b506101fc61029b366004612d27565b610a52565b3480156102ac57600080fd5b506101c6610e75565b3480156102c157600080fd5b506101c6610e7a565b3480156102d657600080fd5b506102df610e7f565b6040516101d39190612fd4565b3480156102f857600080fd5b506101c6610e9b565b34801561030d57600080fd5b5061022961031c366004612c1e565b610ea0565b34801561032d57600080fd5b506101c6610fc7565b34801561034257600080fd5b506101c6610fcc565b34801561035757600080fd5b506101c6610fd1565b34801561036c57600080fd5b506101c6610fd6565b34801561038157600080fd5b506101fc610390366004612c69565b610fdb565b6102296110cd565b3480156103a957600080fd5b506101c6611328565b3480156103be57600080fd5b506101fc6103cd366004612d27565b61132d565b3480156103de57600080fd5b506101c661167d565b3480156103f357600080fd5b506101c6611682565b34801561040857600080fd5b506101c6611687565b34801561041d57600080fd5b506101c661168c565b34801561043257600080fd5b50610229610441366004612c1e565b611691565b34801561045257600080fd5b506101fc610461366004612c69565b611810565b34801561047257600080fd5b50610229610481366004612c1e565b6118f8565b600381565b6060610496336119e9565b6104d5576040517f08c379a00000000000000000000000000000000000000000000000000000000081526004016104cc90613052565b60405180910390fd5b61057d60016000886003811115610515577f4e487b7100000000000000000000000000000000000000000000000000000000600052602160045260246000fd5b600381111561054d577f4e487b7100000000000000000000000000000000000000000000000000000000600052602160045260246000fd5b815260208101919091526040016000205473ffffffffffffffffffffffffffffffffffffffff1686868686611a9b565b90505b95945050505050565b3332146105c2576040517f08c379a00000000000000000000000000000000000000000000000000000000081526004016104cc90612ff5565b6105ca611dac565b73ffffffffffffffffffffffffffffffffffffffff1663b3db428b3384846040518463ffffffff1660e01b815260040161060693929190612f0f565b602060405180830381600087803b15801561062057600080fd5b505af1158015610634573d6000803e3d6000fd5b505050506040513d601f19601f820116820180604052508101906106589190612c49565b61068e576040517f08c379a00000000000000000000000000000000000000000000000000000000081526004016104cc90613291565b6000610698611e59565b73ffffffffffffffffffffffffffffffffffffffff166352a664d93385856040518463ffffffff1660e01b81526004016106d493929190612f0f565b602060405180830381600087803b1580156106ee57600080fd5b505af1158015610702573d6000803e3d6000fd5b505050506040513d601f19601f820116820180604052508101906107269190612dfb565b9050801561081957610736611e59565b73ffffffffffffffffffffffffffffffffffffffff1663b25777ad3385846040518463ffffffff1660e01b815260040161077293929190612f0f565b600060405180830381600087803b15801561078c57600080fd5b505af11580156107a0573d6000803e3d6000fd5b505050506107ac611eb1565b73ffffffffffffffffffffffffffffffffffffffff16632a6a897b84836040518363ffffffff1660e01b81526004016107e6929190612f6a565b600060405180830381600087803b15801561080057600080fd5b505af1158015610814573d6000803e3d6000fd5b505050505b505050565b600881565b33321461085c576040517f08c379a00000000000000000000000000000000000000000000000000000000081526004016104cc90612ff5565b610864611e59565b6002546040517fd0eb665300000000000000000000000000000000000000000000000000000000815273ffffffffffffffffffffffffffffffffffffffff9283169263d0eb6653926108c0923392909116908690600401612f0f565b600060405180830381600087803b1580156108da57600080fd5b505af11580156108ee573d6000803e3d6000fd5b505050506108fa611dac565b73ffffffffffffffffffffffffffffffffffffffff16634782f77933836040518363ffffffff1660e01b8152600401610934929190612f6a565b600060405180830381600087803b15801561094e57600080fd5b505af1158015610962573d6000803e3d6000fd5b5050505050565b6060610974336119e9565b6109aa576040517f08c379a00000000000000000000000000000000000000000000000000000000081526004016104cc90613052565b61057d600160008860038111156109ea577f4e487b7100000000000000000000000000000000000000000000000000000000600052602160045260246000fd5b6003811115610a22577f4e487b7100000000000000000000000000000000000000000000000000000000600052602160045260246000fd5b815260208101919091526040016000205473ffffffffffffffffffffffffffffffffffffffff1686868686611f09565b6060333214610a8d576040517f08c379a00000000000000000000000000000000000000000000000000000000081526004016104cc90612ff5565b8142811015610ac8576040517f08c379a00000000000000000000000000000000000000000000000000000000081526004016104cc906130af565b6000610ad2611fc6565b73ffffffffffffffffffffffffffffffffffffffff166367cbf42d8787610afa6001826135ad565b818110610b30577f4e487b7100000000000000000000000000000000000000000000000000000000600052603260045260246000fd5b9050602002016020810190610b459190612bdf565b8a6040518363ffffffff1660e01b8152600401610b63929190612f6a565b602060405180830381600087803b158015610b7d57600080fd5b505af1158015610b91573d6000803e3d6000fd5b505050506040513d601f19601f82011682018060405250810190610bb59190612dfb565b9050610c68600160008b6003811115610bf7577f4e487b7100000000000000000000000000000000000000000000000000000000600052602160045260246000fd5b6003811115610c2f577f4e487b7100000000000000000000000000000000000000000000000000000000600052602160045260246000fd5b815260208101919091526040016000205473ffffffffffffffffffffffffffffffffffffffff16610c60838b61351f565b898989611f09565b925060008686610c796001826135ad565b818110610caf577f4e487b7100000000000000000000000000000000000000000000000000000000600052603260045260246000fd5b9050602002016020810190610cc49190612bdf565b90506000610cd0611e59565b73ffffffffffffffffffffffffffffffffffffffff16633500aa0b338a8a6000818110610d26577f4e487b7100000000000000000000000000000000000000000000000000000000600052603260045260246000fd5b9050602002016020810190610d3b9190612bdf565b8589600081518110610d76577f4e487b7100000000000000000000000000000000000000000000000000000000600052603260045260246000fd5b60200260200101518f6040518663ffffffff1660e01b8152600401610d9f959493929190612ece565b602060405180830381600087803b158015610db957600080fd5b505af1158015610dcd573d6000803e3d6000fd5b505050506040513d601f19601f82011682018060405250810190610df19190612dfb565b9050610dfb611eb1565b73ffffffffffffffffffffffffffffffffffffffff1663ee0862bf83836040518363ffffffff1660e01b8152600401610e35929190612f6a565b600060405180830381600087803b158015610e4f57600080fd5b505af1158015610e63573d6000803e3d6000fd5b50505050505050509695505050505050565b606981565b606781565b60005473ffffffffffffffffffffffffffffffffffffffff1681565b600681565b333214610ed9576040517f08c379a00000000000000000000000000000000000000000000000000000000081526004016104cc90612ff5565b610ee1611e59565b73ffffffffffffffffffffffffffffffffffffffff1663b25777ad3384846040518463ffffffff1660e01b8152600401610f1d93929190612f0f565b600060405180830381600087803b158015610f3757600080fd5b505af1158015610f4b573d6000803e3d6000fd5b50505050610f57611eb1565b73ffffffffffffffffffffffffffffffffffffffff16632a6a897b83836040518363ffffffff1660e01b8152600401610f91929190612f6a565b600060405180830381600087803b158015610fab57600080fd5b505af1158015610fbf573d6000803e3d6000fd5b505050505050565b606681565b606581565b600181565b606a81565b606060006001600087600381111561101c577f4e487b7100000000000000000000000000000000000000000000000000000000600052602160045260246000fd5b6003811115611054577f4e487b7100000000000000000000000000000000000000000000000000000000600052602160045260246000fd5b815260200190815260200160002060009054906101000a900473ffffffffffffffffffffffffffffffffffffffff1690506110c3818686868080602002602001604051908101604052809392919081815260200183836020028082843760009201919091525061201e92505050565b9695505050505050565b333214611106576040517f08c379a00000000000000000000000000000000000000000000000000000000081526004016104cc90612ff5565b61110e611dac565b73ffffffffffffffffffffffffffffffffffffffff1663a6a5f9fe346040518263ffffffff1660e01b81526004016000604051808303818588803b15801561115557600080fd5b505af1158015611169573d6000803e3d6000fd5b50505050506000611178611e59565b6002546040517f52a664d900000000000000000000000000000000000000000000000000000000815273ffffffffffffffffffffffffffffffffffffffff928316926352a664d9926111d4923392909116903490600401612f0f565b602060405180830381600087803b1580156111ee57600080fd5b505af1158015611202573d6000803e3d6000fd5b505050506040513d601f19601f820116820180604052508101906112269190612dfb565b9050801561132557611236611e59565b6002546040517fb25777ad00000000000000000000000000000000000000000000000000000000815273ffffffffffffffffffffffffffffffffffffffff9283169263b25777ad92611292923392909116908690600401612f0f565b600060405180830381600087803b1580156112ac57600080fd5b505af11580156112c0573d6000803e3d6000fd5b505050506112cc611eb1565b6002546040517f2a6a897b00000000000000000000000000000000000000000000000000000000815273ffffffffffffffffffffffffffffffffffffffff92831692632a6a897b92610934929116908590600401612f6a565b50565b600281565b6060333214611368576040517f08c379a00000000000000000000000000000000000000000000000000000000081526004016104cc90612ff5565b81428110156113a3576040517f08c379a00000000000000000000000000000000000000000000000000000000081526004016104cc906130af565b60006113ad611fc6565b73ffffffffffffffffffffffffffffffffffffffff16633f0e9edf87876000818110611402577f4e487b7100000000000000000000000000000000000000000000000000000000600052603260045260246000fd5b90506020020160208101906114179190612bdf565b8a6040518363ffffffff1660e01b8152600401611435929190612f6a565b602060405180830381600087803b15801561144f57600080fd5b505af1158015611463573d6000803e3d6000fd5b505050506040513d601f19601f820116820180604052508101906114879190612dfb565b905061153a600160008b60038111156114c9577f4e487b7100000000000000000000000000000000000000000000000000000000600052602160045260246000fd5b6003811115611501577f4e487b7100000000000000000000000000000000000000000000000000000000600052602160045260246000fd5b815260208101919091526040016000205473ffffffffffffffffffffffffffffffffffffffff16611532838b6135ad565b898989611a9b565b92506000868661154b6001826135ad565b818110611581577f4e487b7100000000000000000000000000000000000000000000000000000000600052603260045260246000fd5b90506020020160208101906115969190612bdf565b905060006115a2611e59565b73ffffffffffffffffffffffffffffffffffffffff16633500aa0b338a8a60008181106115f8577f4e487b7100000000000000000000000000000000000000000000000000000000600052603260045260246000fd5b905060200201602081019061160d9190612bdf565b858e8a60018c5161161e91906135ad565b81518110611655577f4e487b7100000000000000000000000000000000000000000000000000000000600052603260045260246000fd5b60200260200101516040518663ffffffff1660e01b8152600401610d9f959493929190612ece565b600581565b606881565b600481565b600781565b3332146116ca576040517f08c379a00000000000000000000000000000000000000000000000000000000081526004016104cc90612ff5565b6116d2611e59565b73ffffffffffffffffffffffffffffffffffffffff1663d0eb66533384846040518463ffffffff1660e01b815260040161170e93929190612f0f565b600060405180830381600087803b15801561172857600080fd5b505af115801561173c573d6000803e3d6000fd5b50505050611748611dac565b73ffffffffffffffffffffffffffffffffffffffff1663d9caed128333846040518463ffffffff1660e01b815260040161178493929190612f0f565b602060405180830381600087803b15801561179e57600080fd5b505af11580156117b2573d6000803e3d6000fd5b505050506040513d601f19601f820116820180604052508101906117d69190612c49565b61180c576040517f08c379a00000000000000000000000000000000000000000000000000000000081526004016104cc906132ee565b5050565b6060600060016000876003811115611851577f4e487b7100000000000000000000000000000000000000000000000000000000600052602160045260246000fd5b6003811115611889577f4e487b7100000000000000000000000000000000000000000000000000000000600052602160045260246000fd5b815260200190815260200160002060009054906101000a900473ffffffffffffffffffffffffffffffffffffffff1690506110c3818686868080602002602001604051908101604052809392919081815260200183836020028082843760009201919091525061228892505050565b333214611931576040517f08c379a00000000000000000000000000000000000000000000000000000000081526004016104cc90612ff5565b611939611eb1565b73ffffffffffffffffffffffffffffffffffffffff1663ee0862bf83836040518363ffffffff1660e01b8152600401611973929190612f6a565b600060405180830381600087803b15801561198d57600080fd5b505af11580156119a1573d6000803e3d6000fd5b505050506119ad611e59565b73ffffffffffffffffffffffffffffffffffffffff1663498d55eb3384846040518463ffffffff1660e01b8152600401610f9193929190612f0f565b600080546040517f7ecd187e00000000000000000000000000000000000000000000000000000000815273ffffffffffffffffffffffffffffffffffffffff90911690637ecd187e90611a43908590600790600401612f40565b60206040518083038186803b158015611a5b57600080fd5b505afa158015611a6f573d6000803e3d6000fd5b505050506040513d601f19601f82011682018060405250810190611a939190612c49565b90505b919050565b6060611adb868685858080602002602001604051908101604052809392919081815260200183836020028082843760009201919091525061228892505050565b9050838160018351611aed91906135ad565b81518110611b24577f4e487b7100000000000000000000000000000000000000000000000000000000600052603260045260246000fd5b60200260200101511015611b64576040517f08c379a00000000000000000000000000000000000000000000000000000000081526004016104cc90613416565b611b6c611dac565b73ffffffffffffffffffffffffffffffffffffffff1663d9caed1284846000818110611bc1577f4e487b7100000000000000000000000000000000000000000000000000000000600052603260045260246000fd5b9050602002016020810190611bd69190612bdf565b611c7d8987876000818110611c14577f4e487b7100000000000000000000000000000000000000000000000000000000600052603260045260246000fd5b9050602002016020810190611c299190612bdf565b88886001818110611c63577f4e487b7100000000000000000000000000000000000000000000000000000000600052603260045260246000fd5b9050602002016020810190611c789190612bdf565b6124d2565b84600081518110611cb7577f4e487b7100000000000000000000000000000000000000000000000000000000600052603260045260246000fd5b60200260200101516040518463ffffffff1660e01b8152600401611cdd93929190612f0f565b602060405180830381600087803b158015611cf757600080fd5b505af1158015611d0b573d6000803e3d6000fd5b505050506040513d601f19601f82011682018060405250810190611d2f9190612c49565b611d65576040517f08c379a00000000000000000000000000000000000000000000000000000000081526004016104cc906131a0565b6105808682858580806020026020016040519081016040528093929190818152602001838360200280828437600092019190915250611da79250611dac915050565b612544565b600080546040517f3c9c8f9c00000000000000000000000000000000000000000000000000000000815273ffffffffffffffffffffffffffffffffffffffff90911690633c9c8f9c90611e0490606590600401613473565b60206040518083038186803b158015611e1c57600080fd5b505afa158015611e30573d6000803e3d6000fd5b505050506040513d601f19601f82011682018060405250810190611e549190612c02565b905090565b600080546040517f3c9c8f9c00000000000000000000000000000000000000000000000000000000815273ffffffffffffffffffffffffffffffffffffffff90911690633c9c8f9c90611e0490606890600401613473565b600080546040517f3c9c8f9c00000000000000000000000000000000000000000000000000000000815273ffffffffffffffffffffffffffffffffffffffff90911690633c9c8f9c90611e0490606690600401613473565b6060611f49868685858080602002602001604051908101604052809392919081815260200183836020028082843760009201919091525061201e92505050565b90508381600081518110611f86577f4e487b7100000000000000000000000000000000000000000000000000000000600052603260045260246000fd5b60200260200101511115611b64576040517f08c379a00000000000000000000000000000000000000000000000000000000081526004016104cc90613325565b600080546040517f3c9c8f9c00000000000000000000000000000000000000000000000000000000815273ffffffffffffffffffffffffffffffffffffffff90911690633c9c8f9c90611e0490606990600401613473565b606060028251101561205c576040517f08c379a00000000000000000000000000000000000000000000000000000000081526004016104cc906131fd565b815167ffffffffffffffff81111561209d577f4e487b7100000000000000000000000000000000000000000000000000000000600052604160045260246000fd5b6040519080825280602002602001820160405280156120c6578160200160208202803683370190505b5090508281600183516120d991906135ad565b81518110612110577f4e487b7100000000000000000000000000000000000000000000000000000000600052603260045260246000fd5b60200260200101818152505060006001835161212c91906135ad565b90505b8015612280576000806121cd87866121486001876135ad565b8151811061217f577f4e487b7100000000000000000000000000000000000000000000000000000000600052603260045260246000fd5b60200260200101518786815181106121c0577f4e487b7100000000000000000000000000000000000000000000000000000000600052603260045260246000fd5b60200260200101516127c9565b9150915061221c84848151811061220d577f4e487b7100000000000000000000000000000000000000000000000000000000600052603260045260246000fd5b602002602001015183836128d7565b846122286001866135ad565b8151811061225f577f4e487b7100000000000000000000000000000000000000000000000000000000600052603260045260246000fd5b60200260200101818152505050508080612278906135c4565b91505061212f565b509392505050565b60606002825110156122c6576040517f08c379a00000000000000000000000000000000000000000000000000000000081526004016104cc906131fd565b815167ffffffffffffffff811115612307577f4e487b7100000000000000000000000000000000000000000000000000000000600052604160045260246000fd5b604051908082528060200260200182016040528015612330578160200160208202803683370190505b509050828160008151811061236e577f4e487b7100000000000000000000000000000000000000000000000000000000600052603260045260246000fd5b60200260200101818152505060005b6001835161238b91906135ad565b8110156122805760008061241f878685815181106123d2577f4e487b7100000000000000000000000000000000000000000000000000000000600052603260045260246000fd5b6020026020010151878660016123e8919061351f565b815181106121c0577f4e487b7100000000000000000000000000000000000000000000000000000000600052603260045260246000fd5b9150915061246e84848151811061245f577f4e487b7100000000000000000000000000000000000000000000000000000000600052603260045260246000fd5b602002602001015183836129a2565b8461247a85600161351f565b815181106124b1577f4e487b7100000000000000000000000000000000000000000000000000000000600052603260045260246000fd5b602002602001018181525050505080806124ca906135f9565b91505061237d565b60008060006124e18585612a71565b915091508582826040516020016124f9929190612e13565b60405160208183030381529060405280519060200120604051602001612520929190612e4d565b6040516020818303038152906040528051906020012060601c925050509392505050565b60005b6001835161255591906135ad565b81101561096257600080848381518110612598577f4e487b7100000000000000000000000000000000000000000000000000000000600052603260045260246000fd5b6020026020010151858460016125ae919061351f565b815181106125e5577f4e487b7100000000000000000000000000000000000000000000000000000000600052603260045260246000fd5b60200260200101519150915060006125fd8383612a71565b50905060008761260e86600161351f565b81518110612645577f4e487b7100000000000000000000000000000000000000000000000000000000600052603260045260246000fd5b602002602001015190506000808373ffffffffffffffffffffffffffffffffffffffff168673ffffffffffffffffffffffffffffffffffffffff161461268d57826000612691565b6000835b91509150600060028a516126a591906135ad565b88106126b15788612706565b6127068c878c6126c28c600261351f565b815181106126f9577f4e487b7100000000000000000000000000000000000000000000000000000000600052603260045260246000fd5b60200260200101516124d2565b90506127138c88886124d2565b73ffffffffffffffffffffffffffffffffffffffff1663022c0d9f84848460006040519080825280601f01601f19166020018201604052801561275d576020820181803683370190505b506040518563ffffffff1660e01b815260040161277d9493929190613482565b600060405180830381600087803b15801561279757600080fd5b505af11580156127ab573d6000803e3d6000fd5b505050505050505050505080806127c1906135f9565b915050612547565b60008060006127d88585612a71565b5090506000806127e98888886124d2565b73ffffffffffffffffffffffffffffffffffffffff16630902f1ac6040518163ffffffff1660e01b815260040160606040518083038186803b15801561282e57600080fd5b505afa158015612842573d6000803e3d6000fd5b505050506040513d601f19601f820116820180604052508101906128669190612d95565b506dffffffffffffffffffffffffffff1691506dffffffffffffffffffffffffffff1691508273ffffffffffffffffffffffffffffffffffffffff168773ffffffffffffffffffffffffffffffffffffffff16146128c55780826128c8565b81815b90999098509650505050505050565b6000808411612912576040517f08c379a00000000000000000000000000000000000000000000000000000000081526004016104cc906130e6565b6000831180156129225750600082115b612958576040517f08c379a00000000000000000000000000000000000000000000000000000000081526004016104cc90613234565b60006129648585613570565b612970906103e8613570565b905060006103e561298187866135ad565b61298b91906135ad565b90506129978183613537565b6110c390600161351f565b60008084116129dd576040517f08c379a00000000000000000000000000000000000000000000000000000000081526004016104cc906133b9565b6000831180156129ed5750600082115b612a23576040517f08c379a00000000000000000000000000000000000000000000000000000000081526004016104cc90613234565b6000612a31856103e5613570565b90506000612a3f8483613570565b9050600082612a50876103e8613570565b612a5a919061351f565b9050612a668183613537565b979650505050505050565b6000808273ffffffffffffffffffffffffffffffffffffffff168473ffffffffffffffffffffffffffffffffffffffff161415612ada576040517f08c379a00000000000000000000000000000000000000000000000000000000081526004016104cc90613143565b8273ffffffffffffffffffffffffffffffffffffffff168473ffffffffffffffffffffffffffffffffffffffff1610612b14578284612b17565b83835b909250905073ffffffffffffffffffffffffffffffffffffffff8216612b69576040517f08c379a00000000000000000000000000000000000000000000000000000000081526004016104cc90613382565b9250929050565b60008083601f840112612b81578182fd5b50813567ffffffffffffffff811115612b98578182fd5b6020830191508360208083028501011115612b6957600080fd5b803560048110611a9657600080fd5b80516dffffffffffffffffffffffffffff81168114611a9657600080fd5b600060208284031215612bf0578081fd5b8135612bfb81613661565b9392505050565b600060208284031215612c13578081fd5b8151612bfb81613661565b60008060408385031215612c30578081fd5b8235612c3b81613661565b946020939093013593505050565b600060208284031215612c5a578081fd5b81518015158114612bfb578182fd5b60008060008060608587031215612c7e578182fd5b612c8785612bb2565b935060208501359250604085013567ffffffffffffffff811115612ca9578283fd5b612cb587828801612b70565b95989497509550505050565b600080600080600060808688031215612cd8578081fd5b612ce186612bb2565b94506020860135935060408601359250606086013567ffffffffffffffff811115612d0a578182fd5b612d1688828901612b70565b969995985093965092949392505050565b60008060008060008060a08789031215612d3f578081fd5b612d4887612bb2565b95506020870135945060408701359350606087013567ffffffffffffffff811115612d71578182fd5b612d7d89828a01612b70565b979a9699509497949695608090950135949350505050565b600080600060608486031215612da9578283fd5b612db284612bc1565b9250612dc060208501612bc1565b9150604084015163ffffffff81168114612dd8578182fd5b809150509250925092565b600060208284031215612df4578081fd5b5035919050565b600060208284031215612e0c578081fd5b5051919050565b7fffffffffffffffffffffffffffffffffffffffff000000000000000000000000606093841b811682529190921b16601482015260280190565b7fff00000000000000000000000000000000000000000000000000000000000000815260609290921b7fffffffffffffffffffffffffffffffffffffffff00000000000000000000000016600183015260158201527f96e8ac4277198ff8b6f785478aa9a39f403cb768dd02cbee326c3e7da348845f603582015260550190565b73ffffffffffffffffffffffffffffffffffffffff958616815293851660208501529190931660408301526060820192909252608081019190915260a00190565b73ffffffffffffffffffffffffffffffffffffffff9384168152919092166020820152604081019190915260600190565b73ffffffffffffffffffffffffffffffffffffffff92909216825261ffff16602082015260400190565b73ffffffffffffffffffffffffffffffffffffffff929092168252602082015260400190565b6020808252825182820181905260009190848201906040850190845b81811015612fc857835183529284019291840191600101612fac565b50909695505050505050565b73ffffffffffffffffffffffffffffffffffffffff91909116815260200190565b6020808252603a908201527f43757272656e746c79206e6f20696e7465726d656469617269657320616c6c6f60408201527f77656420666f7220746869732066756e6374696f6e2063616c6c000000000000606082015260800190565b6020808252603e908201527f43616c6c696e6720636f6e7472616374206973206e6f7420617574686f72697a60408201527f656420746f20747261646520776974682070726f746f636c2066756e64730000606082015260800190565b60208082526018908201527f556e69737761705632526f757465723a20455850495245440000000000000000604082015260600190565b6020808252602c908201527f556e697377617056324c6962726172793a20494e53554646494349454e545f4f60408201527f55545055545f414d4f554e540000000000000000000000000000000000000000606082015260800190565b60208082526025908201527f556e697377617056324c6962726172793a204944454e544943414c5f4144445260408201527f4553534553000000000000000000000000000000000000000000000000000000606082015260800190565b60208082526028908201527f4d617267696e526f757465723a20496e73756666696369656e74206c656e646960408201527f6e672066756e6473000000000000000000000000000000000000000000000000606082015260800190565b6020808252601e908201527f556e697377617056324c6962726172793a20494e56414c49445f504154480000604082015260600190565b60208082526028908201527f556e697377617056324c6962726172793a20494e53554646494349454e545f4c60408201527f4951554944495459000000000000000000000000000000000000000000000000606082015260800190565b60208082526029908201527f43616e6e6f74207472616e73666572206465706f73697420746f206d6172676960408201527f6e206163636f756e740000000000000000000000000000000000000000000000606082015260800190565b6020808252601c908201527f436f756c64206e6f742077697468647261772066726f6d2066756e6400000000604082015260600190565b60208082526027908201527f556e69737761705632526f757465723a204558434553534956455f494e50555460408201527f5f414d4f554e5400000000000000000000000000000000000000000000000000606082015260800190565b6020808252601e908201527f556e697377617056324c6962726172793a205a45524f5f414444524553530000604082015260600190565b6020808252602b908201527f556e697377617056324c6962726172793a20494e53554646494349454e545f4960408201527f4e5055545f414d4f554e54000000000000000000000000000000000000000000606082015260800190565b60208082526028908201527f4d617267696e526f757465723a20494e53554646494349454e545f4f5554505560408201527f545f414d4f554e54000000000000000000000000000000000000000000000000606082015260800190565b61ffff91909116815260200190565b60008582526020858184015273ffffffffffffffffffffffffffffffffffffffff85166040840152608060608401528351806080850152825b818110156134d75785810183015185820160a0015282016134bb565b818111156134e8578360a083870101525b50601f017fffffffffffffffffffffffffffffffffffffffffffffffffffffffffffffffe0169290920160a0019695505050505050565b6000821982111561353257613532613632565b500190565b60008261356b577f4e487b710000000000000000000000000000000000000000000000000000000081526012600452602481fd5b500490565b6000817fffffffffffffffffffffffffffffffffffffffffffffffffffffffffffffffff04831182151516156135a8576135a8613632565b500290565b6000828210156135bf576135bf613632565b500390565b6000816135d3576135d3613632565b507fffffffffffffffffffffffffffffffffffffffffffffffffffffffffffffffff0190565b60007fffffffffffffffffffffffffffffffffffffffffffffffffffffffffffffffff82141561362b5761362b613632565b5060010190565b7f4e487b7100000000000000000000000000000000000000000000000000000000600052601160045260246000fd5b73ffffffffffffffffffffffffffffffffffffffff8116811461132557600080fdfea264697066735822122041ed59ce6b51cfcb0d57f4fef737c2b0f3145da9d9bf6060da79e52106139b0f64736f6c63430008010033",
  "linkReferences": {},
  "deployedLinkReferences": {}
}