{
  "_format": "hh-sol-artifact-1",
  "contractName": "MarginRouter",
  "sourceName": "contracts/MarginRouter.sol",
  "abi": [
    {
      "inputs": [
        {
          "internalType": "address",
          "name": "uniswapFactory",
          "type": "address"
        },
        {
          "internalType": "address",
          "name": "sushiswapFactory",
          "type": "address"
        },
        {
          "internalType": "address",
          "name": "_WETH",
          "type": "address"
        },
        {
          "internalType": "address",
          "name": "_roles",
          "type": "address"
        }
      ],
      "stateMutability": "nonpayable",
      "type": "constructor"
    },
    {
      "anonymous": false,
      "inputs": [
        {
          "indexed": false,
          "internalType": "address",
          "name": "trader",
          "type": "address"
        },
        {
          "indexed": false,
          "internalType": "address",
          "name": "borrowToken",
          "type": "address"
        },
        {
          "indexed": false,
          "internalType": "uint256",
          "name": "borrowAmount",
          "type": "uint256"
        }
      ],
      "name": "CrossBorrow",
      "type": "event"
    },
    {
      "anonymous": false,
      "inputs": [
        {
          "indexed": false,
          "internalType": "address",
          "name": "trader",
          "type": "address"
        },
        {
          "indexed": false,
          "internalType": "address",
          "name": "depositToken",
          "type": "address"
        },
        {
          "indexed": false,
          "internalType": "uint256",
          "name": "depositAmount",
          "type": "uint256"
        }
      ],
      "name": "CrossDeposit",
      "type": "event"
    },
    {
      "anonymous": false,
      "inputs": [
        {
          "indexed": false,
          "internalType": "address",
          "name": "trader",
          "type": "address"
        },
        {
          "indexed": false,
          "internalType": "address",
          "name": "inToken",
          "type": "address"
        },
        {
          "indexed": false,
          "internalType": "uint256",
          "name": "inTokenAmount",
          "type": "uint256"
        },
        {
          "indexed": false,
          "internalType": "uint256",
          "name": "inTokenBorrow",
          "type": "uint256"
        },
        {
          "indexed": false,
          "internalType": "address",
          "name": "outToken",
          "type": "address"
        },
        {
          "indexed": false,
          "internalType": "uint256",
          "name": "outTokenAmount",
          "type": "uint256"
        },
        {
          "indexed": false,
          "internalType": "uint256",
          "name": "outTokenExtinguish",
          "type": "uint256"
        }
      ],
      "name": "CrossTrade",
      "type": "event"
    },
    {
      "anonymous": false,
      "inputs": [
        {
          "indexed": false,
          "internalType": "address",
          "name": "trader",
          "type": "address"
        },
        {
          "indexed": false,
          "internalType": "address",
          "name": "withdrawToken",
          "type": "address"
        },
        {
          "indexed": false,
          "internalType": "uint256",
          "name": "withdrawAmount",
          "type": "uint256"
        }
      ],
      "name": "CrossWithdraw",
      "type": "event"
    },
    {
      "inputs": [],
      "name": "ADMIN",
      "outputs": [
        {
          "internalType": "uint16",
          "name": "",
          "type": "uint16"
        }
      ],
      "stateMutability": "view",
      "type": "function"
    },
    {
      "inputs": [],
      "name": "AUTHORIZED_FUND_TRADER",
      "outputs": [
        {
          "internalType": "uint16",
          "name": "",
          "type": "uint16"
        }
      ],
      "stateMutability": "view",
      "type": "function"
    },
    {
      "inputs": [],
      "name": "BORROWER",
      "outputs": [
        {
          "internalType": "uint16",
          "name": "",
          "type": "uint16"
        }
      ],
      "stateMutability": "view",
      "type": "function"
    },
    {
      "inputs": [],
      "name": "FEE_CONTROLLER",
      "outputs": [
        {
          "internalType": "uint16",
          "name": "",
          "type": "uint16"
        }
      ],
      "stateMutability": "view",
      "type": "function"
    },
    {
      "inputs": [],
      "name": "FEE_SOURCE",
      "outputs": [
        {
          "internalType": "uint16",
          "name": "",
          "type": "uint16"
        }
      ],
      "stateMutability": "view",
      "type": "function"
    },
    {
      "inputs": [],
      "name": "FUND",
      "outputs": [
        {
          "internalType": "uint16",
          "name": "",
          "type": "uint16"
        }
      ],
      "stateMutability": "view",
      "type": "function"
    },
    {
      "inputs": [],
      "name": "INCENTIVE_DISTRIBUTION",
      "outputs": [
        {
          "internalType": "uint16",
          "name": "",
          "type": "uint16"
        }
      ],
      "stateMutability": "view",
      "type": "function"
    },
    {
      "inputs": [],
      "name": "INCENTIVE_REPORTER",
      "outputs": [
        {
          "internalType": "uint16",
          "name": "",
          "type": "uint16"
        }
      ],
      "stateMutability": "view",
      "type": "function"
    },
    {
      "inputs": [],
      "name": "LENDING",
      "outputs": [
        {
          "internalType": "uint16",
          "name": "",
          "type": "uint16"
        }
      ],
      "stateMutability": "view",
      "type": "function"
    },
    {
      "inputs": [],
      "name": "LIQUIDATOR",
      "outputs": [
        {
          "internalType": "uint16",
          "name": "",
          "type": "uint16"
        }
      ],
      "stateMutability": "view",
      "type": "function"
    },
    {
      "inputs": [],
      "name": "MARGIN_CALLER",
      "outputs": [
        {
          "internalType": "uint16",
          "name": "",
          "type": "uint16"
        }
      ],
      "stateMutability": "view",
      "type": "function"
    },
    {
      "inputs": [],
      "name": "MARGIN_TRADER",
      "outputs": [
        {
          "internalType": "uint16",
          "name": "",
          "type": "uint16"
        }
      ],
      "stateMutability": "view",
      "type": "function"
    },
    {
      "inputs": [],
      "name": "MARGIN_TRADING",
      "outputs": [
        {
          "internalType": "uint16",
          "name": "",
          "type": "uint16"
        }
      ],
      "stateMutability": "view",
      "type": "function"
    },
    {
      "inputs": [],
      "name": "PRICE_CONTROLLER",
      "outputs": [
        {
          "internalType": "uint16",
          "name": "",
          "type": "uint16"
        }
      ],
      "stateMutability": "view",
      "type": "function"
    },
    {
      "inputs": [],
      "name": "ROUTER",
      "outputs": [
        {
          "internalType": "uint16",
          "name": "",
          "type": "uint16"
        }
      ],
      "stateMutability": "view",
      "type": "function"
    },
    {
      "inputs": [],
      "name": "STAKE_PENALIZER",
      "outputs": [
        {
          "internalType": "uint16",
          "name": "",
          "type": "uint16"
        }
      ],
      "stateMutability": "view",
      "type": "function"
    },
    {
      "inputs": [],
      "name": "TOKEN_ACTIVATOR",
      "outputs": [
        {
          "internalType": "uint16",
          "name": "",
          "type": "uint16"
        }
      ],
      "stateMutability": "view",
      "type": "function"
    },
    {
      "inputs": [],
      "name": "WITHDRAWER",
      "outputs": [
        {
          "internalType": "uint16",
          "name": "",
          "type": "uint16"
        }
      ],
      "stateMutability": "view",
      "type": "function"
    },
    {
      "inputs": [
        {
          "internalType": "enum AMM",
          "name": "amm",
          "type": "uint8"
        },
        {
          "internalType": "uint256",
          "name": "amountIn",
          "type": "uint256"
        },
        {
          "internalType": "uint256",
          "name": "amountOutMin",
          "type": "uint256"
        },
        {
          "internalType": "address[]",
          "name": "path",
          "type": "address[]"
        }
      ],
      "name": "authorizedSwapExactT4T",
      "outputs": [
        {
          "internalType": "uint256[]",
          "name": "",
          "type": "uint256[]"
        }
      ],
      "stateMutability": "nonpayable",
      "type": "function"
    },
    {
      "inputs": [
        {
          "internalType": "enum AMM",
          "name": "amm",
          "type": "uint8"
        },
        {
          "internalType": "uint256",
          "name": "amountOut",
          "type": "uint256"
        },
        {
          "internalType": "uint256",
          "name": "amountInMax",
          "type": "uint256"
        },
        {
          "internalType": "address[]",
          "name": "path",
          "type": "address[]"
        }
      ],
      "name": "authorizedSwapT4ExactT",
      "outputs": [
        {
          "internalType": "uint256[]",
          "name": "",
          "type": "uint256[]"
        }
      ],
      "stateMutability": "nonpayable",
      "type": "function"
    },
    {
      "inputs": [
        {
          "internalType": "address",
          "name": "",
          "type": "address"
        },
        {
          "internalType": "address",
          "name": "",
          "type": "address"
        }
      ],
      "name": "claimIds",
      "outputs": [
        {
          "internalType": "uint256",
          "name": "",
          "type": "uint256"
        }
      ],
      "stateMutability": "view",
      "type": "function"
    },
    {
      "inputs": [
        {
          "internalType": "address",
          "name": "borrowToken",
          "type": "address"
        },
        {
          "internalType": "uint256",
          "name": "borrowAmount",
          "type": "uint256"
        }
      ],
      "name": "crossBorrow",
      "outputs": [],
      "stateMutability": "nonpayable",
      "type": "function"
    },
    {
      "inputs": [
        {
          "internalType": "address",
          "name": "depositToken",
          "type": "address"
        },
        {
          "internalType": "uint256",
          "name": "depositAmount",
          "type": "uint256"
        }
      ],
      "name": "crossDeposit",
      "outputs": [],
      "stateMutability": "nonpayable",
      "type": "function"
    },
    {
      "inputs": [],
      "name": "crossDepositETH",
      "outputs": [],
      "stateMutability": "payable",
      "type": "function"
    },
    {
      "inputs": [
        {
          "internalType": "enum AMM",
          "name": "amm",
          "type": "uint8"
        },
        {
          "internalType": "uint256",
          "name": "amountIn",
          "type": "uint256"
        },
        {
          "internalType": "uint256",
          "name": "amountOutMin",
          "type": "uint256"
        },
        {
          "internalType": "address[]",
          "name": "path",
          "type": "address[]"
        },
        {
          "internalType": "uint256",
          "name": "deadline",
          "type": "uint256"
        }
      ],
      "name": "crossSwapExactTokensForTokens",
      "outputs": [
        {
          "internalType": "uint256[]",
          "name": "amounts",
          "type": "uint256[]"
        }
      ],
      "stateMutability": "nonpayable",
      "type": "function"
    },
    {
      "inputs": [
        {
          "internalType": "enum AMM",
          "name": "amm",
          "type": "uint8"
        },
        {
          "internalType": "uint256",
          "name": "amountOut",
          "type": "uint256"
        },
        {
          "internalType": "uint256",
          "name": "amountInMax",
          "type": "uint256"
        },
        {
          "internalType": "address[]",
          "name": "path",
          "type": "address[]"
        },
        {
          "internalType": "uint256",
          "name": "deadline",
          "type": "uint256"
        }
      ],
      "name": "crossSwapTokensForExactTokens",
      "outputs": [
        {
          "internalType": "uint256[]",
          "name": "amounts",
          "type": "uint256[]"
        }
      ],
      "stateMutability": "nonpayable",
      "type": "function"
    },
    {
      "inputs": [
        {
          "internalType": "address",
          "name": "withdrawToken",
          "type": "address"
        },
        {
          "internalType": "uint256",
          "name": "withdrawAmount",
          "type": "uint256"
        }
      ],
      "name": "crossWithdraw",
      "outputs": [],
      "stateMutability": "nonpayable",
      "type": "function"
    },
    {
      "inputs": [
        {
          "internalType": "uint256",
          "name": "withdrawAmount",
          "type": "uint256"
        }
      ],
      "name": "crossWithdrawETH",
      "outputs": [],
      "stateMutability": "nonpayable",
      "type": "function"
    },
    {
      "inputs": [
        {
          "internalType": "enum AMM",
          "name": "amm",
          "type": "uint8"
        },
        {
          "internalType": "uint256",
          "name": "outAmount",
          "type": "uint256"
        },
        {
          "internalType": "address[]",
          "name": "path",
          "type": "address[]"
        }
      ],
      "name": "getAmountsIn",
      "outputs": [
        {
          "internalType": "uint256[]",
          "name": "",
          "type": "uint256[]"
        }
      ],
      "stateMutability": "view",
      "type": "function"
    },
    {
      "inputs": [
        {
          "internalType": "enum AMM",
          "name": "amm",
          "type": "uint8"
        },
        {
          "internalType": "uint256",
          "name": "inAmount",
          "type": "uint256"
        },
        {
          "internalType": "address[]",
          "name": "path",
          "type": "address[]"
        }
      ],
      "name": "getAmountsOut",
      "outputs": [
        {
          "internalType": "uint256[]",
          "name": "",
          "type": "uint256[]"
        }
      ],
      "stateMutability": "view",
      "type": "function"
    },
    {
      "inputs": [
        {
          "internalType": "address",
          "name": "",
          "type": "address"
        }
      ],
      "name": "incentiveTranches",
      "outputs": [
        {
          "internalType": "uint8",
          "name": "",
          "type": "uint8"
        }
      ],
      "stateMutability": "view",
      "type": "function"
    },
    {
      "inputs": [
        {
          "internalType": "uint16",
          "name": "",
          "type": "uint16"
        }
      ],
      "name": "mainCharacterCache",
      "outputs": [
        {
          "internalType": "address",
          "name": "",
          "type": "address"
        }
      ],
      "stateMutability": "view",
      "type": "function"
    },
    {
      "inputs": [
        {
          "internalType": "address",
          "name": "",
          "type": "address"
        },
        {
          "internalType": "uint16",
          "name": "",
          "type": "uint16"
        }
      ],
      "name": "roleCache",
      "outputs": [
        {
          "internalType": "bool",
          "name": "",
          "type": "bool"
        }
      ],
      "stateMutability": "view",
      "type": "function"
    },
    {
      "inputs": [],
      "name": "roles",
      "outputs": [
        {
          "internalType": "contract Roles",
          "name": "",
          "type": "address"
        }
      ],
      "stateMutability": "view",
      "type": "function"
    },
    {
      "inputs": [
        {
          "internalType": "address",
          "name": "token",
          "type": "address"
        },
        {
          "internalType": "uint8",
          "name": "tranche",
          "type": "uint8"
        }
      ],
      "name": "setIncentiveTranche",
      "outputs": [],
      "stateMutability": "nonpayable",
      "type": "function"
    },
    {
      "inputs": [
        {
          "internalType": "uint16",
          "name": "role",
          "type": "uint16"
        }
      ],
      "name": "updateMainCharacterCache",
      "outputs": [],
      "stateMutability": "nonpayable",
      "type": "function"
    },
    {
      "inputs": [
        {
          "internalType": "uint16",
          "name": "role",
          "type": "uint16"
        },
        {
          "internalType": "address",
          "name": "contr",
          "type": "address"
        }
      ],
      "name": "updateRoleCache",
      "outputs": [],
      "stateMutability": "nonpayable",
      "type": "function"
    }
  ],
  "bytecode": "0x60806040523480156200001157600080fd5b5060405162003f7238038062003f728339810160408190526200003491620000e8565b600080546001600160a01b03199081166001600160a01b0393841617825560056020527f05b8ccbb9d4d8fb16ea74ce3c29a41f1b461fbdaff4714a0d9a8eb05499746bc8054821696841696909617909555600190527f1471eb6eb2c5e789fc3de43f8ce62938c7d1836ec861730447e2ada8fd81017b805485169382169390931790925560068054909316911617905562000144565b80516001600160a01b0381168114620000e357600080fd5b919050565b60008060008060808587031215620000fe578384fd5b6200010985620000cb565b93506200011960208601620000cb565b92506200012960408601620000cb565b91506200013960608601620000cb565b905092959194509250565b613e1e80620001546000396000f3fe60806040526004361061026a5760003560e01c80636694198411610153578063a94c7c34116100cb578063cacf8d451161007f578063e3e0626b11610064578063e3e0626b1461061f578063eaa095f81461063f578063eedb97c71461065f5761026a565b8063cacf8d45146105f5578063d5d7ed7f1461060a5761026a565b8063b4481652116100b0578063b448165214610593578063c34316c3146105b3578063c76139d0146105e05761026a565b8063a94c7c3414610569578063a9cc05361461057e5761026a565b80638824cbba1161012257806394427b201161010757806394427b201461052c578063a0098d6914610534578063a5f9a362146105495761026a565b80638824cbba146104df57806390b931ed1461050c5761026a565b806366941984146104805780636cd5cd601461049557806381ca6600146104b557806383a49c7c146104ca5761026a565b80632864f401116101e6578063392f5f64116101b557806348fb27b81161019a57806348fb27b8146104295780635adbeb151461043e5780635c275a391461046b5761026a565b8063392f5f64146103f257806346b88796146104145761026a565b80632864f401146103935780632a0acc6a146103b35780632fe94def146103c857806332fe7b26146103dd5761026a565b80631bc5d81d1161023d5780631f2a6743116102225780631f2a67431461033357806320e8d819146103535780632233c436146103735761026a565b80631bc5d81d146102fe5780631dce3baa146103135761026a565b8063065d570f1461026f5780630aa29f1c1461029a5780631306d902146102c75780631b669507146102e9575b600080fd5b34801561027b57600080fd5b5061028461067f565b6040516102919190613b48565b60405180910390f35b3480156102a657600080fd5b506102ba6102b536600461330d565b610684565b604051610291919061367b565b3480156102d357600080fd5b506102e76102e2366004613238565b610782565b005b3480156102f557600080fd5b506102846109ad565b34801561030a57600080fd5b506102846109b2565b34801561031f57600080fd5b506102e761032e366004613464565b6109b7565b34801561033f57600080fd5b506102ba61034e36600461330d565b610ac4565b34801561035f57600080fd5b506102e761036e366004613449565b610bad565b34801561037f57600080fd5b506102ba61038e366004613373565b610cbe565b34801561039f57600080fd5b506102e76103ae366004613263565b610f9c565b3480156103bf57600080fd5b50610284611033565b3480156103d457600080fd5b50610284611038565b3480156103e957600080fd5b5061028461103d565b3480156103fe57600080fd5b50610407611042565b6040516102919190613572565b34801561042057600080fd5b5061028461105e565b34801561043557600080fd5b50610284611063565b34801561044a57600080fd5b5061045e6104593660046131cc565b611068565b6040516102919190613b81565b34801561047757600080fd5b50610284611085565b34801561048c57600080fd5b5061028461108a565b3480156104a157600080fd5b506102e76104b036600461342f565b61108f565b3480156104c157600080fd5b5061028461118e565b3480156104d657600080fd5b50610284611193565b3480156104eb57600080fd5b506104ff6104fa36600461318d565b611198565b6040516102919190613c27565b34801561051857600080fd5b506102ba6105273660046132b5565b6111ad565b6102e761129f565b34801561054057600080fd5b506102846114d6565b34801561055557600080fd5b506102ba610564366004613373565b6114db565b34801561057557600080fd5b506102846117b0565b34801561058a57600080fd5b506102846117b5565b34801561059f57600080fd5b506104076105ae36600461342f565b6117ba565b3480156105bf57600080fd5b506105d36105ce366004613204565b6117e2565b60405161029191906136bf565b3480156105ec57600080fd5b50610284611802565b34801561060157600080fd5b50610284611807565b34801561061657600080fd5b5061028461180c565b34801561062b57600080fd5b506102e761063a366004613238565b611811565b34801561064b57600080fd5b506102ba61065a3660046132b5565b611992565b34801561066b57600080fd5b506102e761067a366004613238565b611a7a565b600381565b606061068f33611ba2565b6106ce576040517f08c379a00000000000000000000000000000000000000000000000000000000081526004016106c590613727565b60405180910390fd5b6107766005600088600381111561070e577f4e487b7100000000000000000000000000000000000000000000000000000000600052602160045260246000fd5b6003811115610746577f4e487b7100000000000000000000000000000000000000000000000000000000600052602160045260246000fd5b815260208101919091526040016000205473ffffffffffffffffffffffffffffffffffffffff1686868686611bdd565b90505b95945050505050565b61078a611eee565b73ffffffffffffffffffffffffffffffffffffffff1663b3db428b3384846040518463ffffffff1660e01b81526004016107c6939291906135d4565b602060405180830381600087803b1580156107e057600080fd5b505af11580156107f4573d6000803e3d6000fd5b505050506040513d601f19601f820116820180604052508101906108189190613295565b61084e576040517f08c379a00000000000000000000000000000000000000000000000000000000081526004016106c590613966565b6000610858611f33565b73ffffffffffffffffffffffffffffffffffffffff166352a664d93385856040518463ffffffff1660e01b8152600401610894939291906135d4565b602060405180830381600087803b1580156108ae57600080fd5b505af11580156108c2573d6000803e3d6000fd5b505050506040513d601f19601f820116820180604052508101906108e6919061347c565b9050801561096d576108f6611f78565b73ffffffffffffffffffffffffffffffffffffffff16632a6a897b84836040518363ffffffff1660e01b8152600401610930929190613655565b600060405180830381600087803b15801561094a57600080fd5b505af115801561095e573d6000803e3d6000fd5b5050505061096d338483611fbd565b7f2f7971a38b280a622029ac616d8d562df278b4b5839a7b124c33a1715ae092993384846040516109a0939291906135d4565b60405180910390a1505050565b600a81565b600881565b6109bf611f33565b6006546040517fd0eb665300000000000000000000000000000000000000000000000000000000815273ffffffffffffffffffffffffffffffffffffffff9283169263d0eb665392610a1b9233929091169086906004016135d4565b600060405180830381600087803b158015610a3557600080fd5b505af1158015610a49573d6000803e3d6000fd5b50505050610a55611eee565b73ffffffffffffffffffffffffffffffffffffffff16634782f77933836040518363ffffffff1660e01b8152600401610a8f929190613655565b600060405180830381600087803b158015610aa957600080fd5b505af1158015610abd573d6000803e3d6000fd5b5050505050565b6060610acf33611ba2565b610b05576040517f08c379a00000000000000000000000000000000000000000000000000000000081526004016106c590613727565b61077660056000886003811115610b45577f4e487b7100000000000000000000000000000000000000000000000000000000600052602160045260246000fd5b6003811115610b7d577f4e487b7100000000000000000000000000000000000000000000000000000000600052602160045260246000fd5b815260208101919091526040016000205473ffffffffffffffffffffffffffffffffffffffff168686868661207b565b6000546040517fd87fefd200000000000000000000000000000000000000000000000000000000815273ffffffffffffffffffffffffffffffffffffffff9091169063d87fefd290610c059085908590600401613b57565b60206040518083038186803b158015610c1d57600080fd5b505afa158015610c31573d6000803e3d6000fd5b505050506040513d601f19601f82011682018060405250810190610c559190613295565b73ffffffffffffffffffffffffffffffffffffffff909116600090815260026020908152604080832061ffff90951683529390529190912080549115157fffffffffffffffffffffffffffffffffffffffffffffffffffffffffffffff00909216919091179055565b60608142811015610cfb576040517f08c379a00000000000000000000000000000000000000000000000000000000081526004016106c590613784565b6000610d05612138565b73ffffffffffffffffffffffffffffffffffffffff166367cbf42d8787610d2d600182613d0f565b818110610d63577f4e487b7100000000000000000000000000000000000000000000000000000000600052603260045260246000fd5b9050602002016020810190610d78919061318d565b8a6040518363ffffffff1660e01b8152600401610d96929190613655565b602060405180830381600087803b158015610db057600080fd5b505af1158015610dc4573d6000803e3d6000fd5b505050506040513d601f19601f82011682018060405250810190610de8919061347c565b9050610e9b600560008b6003811115610e2a577f4e487b7100000000000000000000000000000000000000000000000000000000600052602160045260246000fd5b6003811115610e62577f4e487b7100000000000000000000000000000000000000000000000000000000600052602160045260246000fd5b815260208101919091526040016000205473ffffffffffffffffffffffffffffffffffffffff16610e93838b613c81565b89898961207b565b9250610f903387876000818110610edb577f4e487b7100000000000000000000000000000000000000000000000000000000600052603260045260246000fd5b9050602002016020810190610ef0919061318d565b8888610efd600182613d0f565b818110610f33577f4e487b7100000000000000000000000000000000000000000000000000000000600052603260045260246000fd5b9050602002016020810190610f48919061318d565b86600081518110610f82577f4e487b7100000000000000000000000000000000000000000000000000000000600052603260045260246000fd5b60200260200101518c61217d565b50509695505050505050565b610fa533612374565b610fdb576040517f08c379a00000000000000000000000000000000000000000000000000000000081526004016106c5906136ca565b73ffffffffffffffffffffffffffffffffffffffff91909116600090815260036020526040902080547fffffffffffffffffffffffffffffffffffffffffffffffffffffffffffffff001660ff909216919091179055565b606b81565b606981565b606781565b60005473ffffffffffffffffffffffffffffffffffffffff1681565b600681565b606681565b600460209081526000928352604080842090915290825290205481565b606581565b600181565b6000546040517f3c9c8f9c00000000000000000000000000000000000000000000000000000000815273ffffffffffffffffffffffffffffffffffffffff90911690633c9c8f9c906110e5908490600401613b48565b60206040518083038186803b1580156110fd57600080fd5b505afa158015611111573d6000803e3d6000fd5b505050506040513d601f19601f8201168201806040525081019061113591906131b0565b61ffff91909116600090815260016020526040902080547fffffffffffffffffffffffff00000000000000000000000000000000000000001673ffffffffffffffffffffffffffffffffffffffff909216919091179055565b606a81565b600981565b60036020526000908152604090205460ff1681565b60606000600560008760038111156111ee577f4e487b7100000000000000000000000000000000000000000000000000000000600052602160045260246000fd5b6003811115611226577f4e487b7100000000000000000000000000000000000000000000000000000000600052602160045260246000fd5b815260200190815260200160002060009054906101000a900473ffffffffffffffffffffffffffffffffffffffff16905061129581868686808060200260200160405190810160405280939291908181526020018383602002808284376000920191909152506123ab92505050565b9695505050505050565b6112a7611eee565b73ffffffffffffffffffffffffffffffffffffffff1663a6a5f9fe346040518263ffffffff1660e01b81526004016000604051808303818588803b1580156112ee57600080fd5b505af1158015611302573d6000803e3d6000fd5b50505050506000611311611f33565b6006546040517f52a664d900000000000000000000000000000000000000000000000000000000815273ffffffffffffffffffffffffffffffffffffffff928316926352a664d99261136d9233929091169034906004016135d4565b602060405180830381600087803b15801561138757600080fd5b505af115801561139b573d6000803e3d6000fd5b505050506040513d601f19601f820116820180604052508101906113bf919061347c565b9050801561147f576113cf611f78565b6006546040517f2a6a897b00000000000000000000000000000000000000000000000000000000815273ffffffffffffffffffffffffffffffffffffffff92831692632a6a897b92611428929116908590600401613655565b600060405180830381600087803b15801561144257600080fd5b505af1158015611456573d6000803e3d6000fd5b505060065461147f925033915073ffffffffffffffffffffffffffffffffffffffff1683611fbd565b6006546040517f2f7971a38b280a622029ac616d8d562df278b4b5839a7b124c33a1715ae09299916114cb91339173ffffffffffffffffffffffffffffffffffffffff169034906135d4565b60405180910390a150565b600281565b60608142811015611518576040517f08c379a00000000000000000000000000000000000000000000000000000000081526004016106c590613784565b6000611522612138565b73ffffffffffffffffffffffffffffffffffffffff16633f0e9edf87876000818110611577577f4e487b7100000000000000000000000000000000000000000000000000000000600052603260045260246000fd5b905060200201602081019061158c919061318d565b8a6040518363ffffffff1660e01b81526004016115aa929190613655565b602060405180830381600087803b1580156115c457600080fd5b505af11580156115d8573d6000803e3d6000fd5b505050506040513d601f19601f820116820180604052508101906115fc919061347c565b90506116af600560008b600381111561163e577f4e487b7100000000000000000000000000000000000000000000000000000000600052602160045260246000fd5b6003811115611676577f4e487b7100000000000000000000000000000000000000000000000000000000600052602160045260246000fd5b815260208101919091526040016000205473ffffffffffffffffffffffffffffffffffffffff166116a7838b613d0f565b898989611bdd565b9250610f9033878760008181106116ef577f4e487b7100000000000000000000000000000000000000000000000000000000600052603260045260246000fd5b9050602002016020810190611704919061318d565b8888611711600182613d0f565b818110611747577f4e487b7100000000000000000000000000000000000000000000000000000000600052603260045260246000fd5b905060200201602081019061175c919061318d565b8b876001895161176c9190613d0f565b815181106117a3577f4e487b7100000000000000000000000000000000000000000000000000000000600052603260045260246000fd5b602002602001015161217d565b600581565b606881565b60016020526000908152604090205473ffffffffffffffffffffffffffffffffffffffff1681565b600260209081526000928352604080842090915290825290205460ff1681565b606c81565b600481565b600781565b611819611f33565b73ffffffffffffffffffffffffffffffffffffffff1663d0eb66533384846040518463ffffffff1660e01b8152600401611855939291906135d4565b600060405180830381600087803b15801561186f57600080fd5b505af1158015611883573d6000803e3d6000fd5b5050505061188f611eee565b73ffffffffffffffffffffffffffffffffffffffff1663d9caed128333846040518463ffffffff1660e01b81526004016118cb939291906135d4565b602060405180830381600087803b1580156118e557600080fd5b505af11580156118f9573d6000803e3d6000fd5b505050506040513d601f19601f8201168201806040525081019061191d9190613295565b611953576040517f08c379a00000000000000000000000000000000000000000000000000000000081526004016106c5906139c3565b7f69725482a69b3feb662528aa4b8028c1f9f6288b9ef746d5c84a847e05ad0d6b338383604051611986939291906135d4565b60405180910390a15050565b60606000600560008760038111156119d3577f4e487b7100000000000000000000000000000000000000000000000000000000600052602160045260246000fd5b6003811115611a0b577f4e487b7100000000000000000000000000000000000000000000000000000000600052602160045260246000fd5b815260200190815260200160002060009054906101000a900473ffffffffffffffffffffffffffffffffffffffff169050611295818686868080602002602001604051908101604052809392919081815260200183836020028082843760009201919091525061261592505050565b611a82611f78565b73ffffffffffffffffffffffffffffffffffffffff1663ee0862bf83836040518363ffffffff1660e01b8152600401611abc929190613655565b600060405180830381600087803b158015611ad657600080fd5b505af1158015611aea573d6000803e3d6000fd5b50505050611af6611f33565b73ffffffffffffffffffffffffffffffffffffffff1663498d55eb3384846040518463ffffffff1660e01b8152600401611b32939291906135d4565b600060405180830381600087803b158015611b4c57600080fd5b505af1158015611b60573d6000803e3d6000fd5b50505050611b6f33838361285f565b7fd160a035f47ba1f22446570a0c0f33960590c1e03b5ae81e67f8fdc4c721f4da338383604051611986939291906135d4565b73ffffffffffffffffffffffffffffffffffffffff811660009081526002602090815260408083206007845290915290205460ff165b919050565b6060611c1d868685858080602002602001604051908101604052809392919081815260200183836020028082843760009201919091525061261592505050565b9050838160018351611c2f9190613d0f565b81518110611c66577f4e487b7100000000000000000000000000000000000000000000000000000000600052603260045260246000fd5b60200260200101511015611ca6576040517f08c379a00000000000000000000000000000000000000000000000000000000081526004016106c590613aeb565b611cae611eee565b73ffffffffffffffffffffffffffffffffffffffff1663d9caed1284846000818110611d03577f4e487b7100000000000000000000000000000000000000000000000000000000600052603260045260246000fd5b9050602002016020810190611d18919061318d565b611dbf8987876000818110611d56577f4e487b7100000000000000000000000000000000000000000000000000000000600052603260045260246000fd5b9050602002016020810190611d6b919061318d565b88886001818110611da5577f4e487b7100000000000000000000000000000000000000000000000000000000600052603260045260246000fd5b9050602002016020810190611dba919061318d565b612a29565b84600081518110611df9577f4e487b7100000000000000000000000000000000000000000000000000000000600052603260045260246000fd5b60200260200101516040518463ffffffff1660e01b8152600401611e1f939291906135d4565b602060405180830381600087803b158015611e3957600080fd5b505af1158015611e4d573d6000803e3d6000fd5b505050506040513d601f19601f82011682018060405250810190611e719190613295565b611ea7576040517f08c379a00000000000000000000000000000000000000000000000000000000081526004016106c590613875565b6107798682858580806020026020016040519081016040528093929190818152602001838360200280828437600092019190915250611ee99250611eee915050565b612a9b565b606560005260016020527f6def5a300acb6fcaa0dab3a41e9d6457b5147a641e641380f8cc4bf5308b16fe5473ffffffffffffffffffffffffffffffffffffffff1690565b606860005260016020527ff284ef79b1311865905aedf2d88775d1e3bf6a2b09002616cb4dc1af77e578f45473ffffffffffffffffffffffffffffffffffffffff1690565b606660005260016020527f8a7727369fa1a496cab5c3debb1ff9323f499df74f8bfc03a975054ef960ee6d5473ffffffffffffffffffffffffffffffffffffffff1690565b73ffffffffffffffffffffffffffffffffffffffff808416600090815260046020908152604080832093861683529281528282205460039091529190205460ff16612006612d20565b73ffffffffffffffffffffffffffffffffffffffff1663a80167118284866040518463ffffffff1660e01b815260040161204293929190613c66565b600060405180830381600087803b15801561205c57600080fd5b505af1158015612070573d6000803e3d6000fd5b505050505050505050565b60606120bb86868585808060200260200160405190810160405280939291908181526020018383602002808284376000920191909152506123ab92505050565b905083816000815181106120f8577f4e487b7100000000000000000000000000000000000000000000000000000000600052603260045260246000fd5b60200260200101511115611ca6576040517f08c379a00000000000000000000000000000000000000000000000000000000081526004016106c5906139fa565b606960005260016020527f2cc30221e0553428287371236269b4e2f6f11f95f33fb976fdb79b586bb6c3425473ffffffffffffffffffffffffffffffffffffffff1690565b600080612188611f33565b73ffffffffffffffffffffffffffffffffffffffff16633500aa0b88888888886040518663ffffffff1660e01b81526004016121c8959493929190613593565b6040805180830381600087803b1580156121e157600080fd5b505af11580156121f5573d6000803e3d6000fd5b505050506040513d601f19601f820116820180604052508101906122199190613494565b909250905081156122a35761222c611f78565b73ffffffffffffffffffffffffffffffffffffffff16632a6a897b86846040518363ffffffff1660e01b8152600401612266929190613655565b600060405180830381600087803b15801561228057600080fd5b505af1158015612294573d6000803e3d6000fd5b505050506122a3878684611fbd565b8015612328576122b1611f78565b73ffffffffffffffffffffffffffffffffffffffff1663ee0862bf86836040518363ffffffff1660e01b81526004016122eb929190613655565b600060405180830381600087803b15801561230557600080fd5b505af1158015612319573d6000803e3d6000fd5b5050505061232887878361285f565b7ffda7842105bd0ae9d4c9616a1d48b1e9f17e2d97cb890d021c291e7d1b53929f878786848988886040516123639796959493929190613605565b60405180910390a150505050505050565b73ffffffffffffffffffffffffffffffffffffffff1660009081526002602090815260408083206009845290915290205460ff1690565b60606002825110156123e9576040517f08c379a00000000000000000000000000000000000000000000000000000000081526004016106c5906138d2565b815167ffffffffffffffff81111561242a577f4e487b7100000000000000000000000000000000000000000000000000000000600052604160045260246000fd5b604051908082528060200260200182016040528015612453578160200160208202803683370190505b5090508281600183516124669190613d0f565b8151811061249d577f4e487b7100000000000000000000000000000000000000000000000000000000600052603260045260246000fd5b6020026020010181815250506000600183516124b99190613d0f565b90505b801561260d5760008061255a87866124d5600187613d0f565b8151811061250c577f4e487b7100000000000000000000000000000000000000000000000000000000600052603260045260246000fd5b602002602001015187868151811061254d577f4e487b7100000000000000000000000000000000000000000000000000000000600052603260045260246000fd5b6020026020010151612d65565b915091506125a984848151811061259a577f4e487b7100000000000000000000000000000000000000000000000000000000600052603260045260246000fd5b60200260200101518383612e73565b846125b5600186613d0f565b815181106125ec577f4e487b7100000000000000000000000000000000000000000000000000000000600052603260045260246000fd5b6020026020010181815250505050808061260590613d26565b9150506124bc565b509392505050565b6060600282511015612653576040517f08c379a00000000000000000000000000000000000000000000000000000000081526004016106c5906138d2565b815167ffffffffffffffff811115612694577f4e487b7100000000000000000000000000000000000000000000000000000000600052604160045260246000fd5b6040519080825280602002602001820160405280156126bd578160200160208202803683370190505b50905082816000815181106126fb577f4e487b7100000000000000000000000000000000000000000000000000000000600052603260045260246000fd5b60200260200101818152505060005b600183516127189190613d0f565b81101561260d576000806127ac8786858151811061275f577f4e487b7100000000000000000000000000000000000000000000000000000000600052603260045260246000fd5b6020026020010151878660016127759190613c81565b8151811061254d577f4e487b7100000000000000000000000000000000000000000000000000000000600052603260045260246000fd5b915091506127fb8484815181106127ec577f4e487b7100000000000000000000000000000000000000000000000000000000600052603260045260246000fd5b60200260200101518383612f3e565b84612807856001613c81565b8151811061283e577f4e487b7100000000000000000000000000000000000000000000000000000000600052603260045260246000fd5b6020026020010181815250505050808061285790613d5b565b91505061270a565b6000612869612d20565b73ffffffffffffffffffffffffffffffffffffffff80861660009081526004602090815260408083209388168352928152828220546003909152919020549192509060ff168115612941576040517ff542808700000000000000000000000000000000000000000000000000000000815273ffffffffffffffffffffffffffffffffffffffff84169063f54280879061290a90849086908990600401613c66565b600060405180830381600087803b15801561292457600080fd5b505af1158015612938573d6000803e3d6000fd5b50505050612a21565b6040517f583d861600000000000000000000000000000000000000000000000000000000815273ffffffffffffffffffffffffffffffffffffffff84169063583d8616906129979084908a908990600401613c35565b602060405180830381600087803b1580156129b157600080fd5b505af11580156129c5573d6000803e3d6000fd5b505050506040513d601f19601f820116820180604052508101906129e9919061347c565b73ffffffffffffffffffffffffffffffffffffffff8088166000908152600460209081526040808320938a1683529290522081905591505b505050505050565b6000806000612a38858561300d565b91509150858282604051602001612a509291906134b7565b60405160208183030381529060405280519060200120604051602001612a779291906134f1565b6040516020818303038152906040528051906020012060601c925050509392505050565b60005b60018351612aac9190613d0f565b811015610abd57600080848381518110612aef577f4e487b7100000000000000000000000000000000000000000000000000000000600052603260045260246000fd5b602002602001015185846001612b059190613c81565b81518110612b3c577f4e487b7100000000000000000000000000000000000000000000000000000000600052603260045260246000fd5b6020026020010151915091506000612b54838361300d565b509050600087612b65866001613c81565b81518110612b9c577f4e487b7100000000000000000000000000000000000000000000000000000000600052603260045260246000fd5b602002602001015190506000808373ffffffffffffffffffffffffffffffffffffffff168673ffffffffffffffffffffffffffffffffffffffff1614612be457826000612be8565b6000835b91509150600060028a51612bfc9190613d0f565b8810612c085788612c5d565b612c5d8c878c612c198c6002613c81565b81518110612c50577f4e487b7100000000000000000000000000000000000000000000000000000000600052603260045260246000fd5b6020026020010151612a29565b9050612c6a8c8888612a29565b73ffffffffffffffffffffffffffffffffffffffff1663022c0d9f84848460006040519080825280601f01601f191660200182016040528015612cb4576020820181803683370190505b506040518563ffffffff1660e01b8152600401612cd49493929190613b8a565b600060405180830381600087803b158015612cee57600080fd5b505af1158015612d02573d6000803e3d6000fd5b50505050505050505050508080612d1890613d5b565b915050612a9e565b606c60005260016020527fd80c728dcb954e7539257f5b9090fa0c83e482d978be864c61ec2b155c05c2525473ffffffffffffffffffffffffffffffffffffffff1690565b6000806000612d74858561300d565b509050600080612d85888888612a29565b73ffffffffffffffffffffffffffffffffffffffff16630902f1ac6040518163ffffffff1660e01b815260040160606040518083038186803b158015612dca57600080fd5b505afa158015612dde573d6000803e3d6000fd5b505050506040513d601f19601f82011682018060405250810190612e0291906133e1565b506dffffffffffffffffffffffffffff1691506dffffffffffffffffffffffffffff1691508273ffffffffffffffffffffffffffffffffffffffff168773ffffffffffffffffffffffffffffffffffffffff1614612e61578082612e64565b81815b90999098509650505050505050565b6000808411612eae576040517f08c379a00000000000000000000000000000000000000000000000000000000081526004016106c5906137bb565b600083118015612ebe5750600082115b612ef4576040517f08c379a00000000000000000000000000000000000000000000000000000000081526004016106c590613909565b6000612f008585613cd2565b612f0c906103e8613cd2565b905060006103e5612f1d8786613d0f565b612f279190613d0f565b9050612f338183613c99565b611295906001613c81565b6000808411612f79576040517f08c379a00000000000000000000000000000000000000000000000000000000081526004016106c590613a8e565b600083118015612f895750600082115b612fbf576040517f08c379a00000000000000000000000000000000000000000000000000000000081526004016106c590613909565b6000612fcd856103e5613cd2565b90506000612fdb8483613cd2565b9050600082612fec876103e8613cd2565b612ff69190613c81565b90506130028183613c99565b979650505050505050565b6000808273ffffffffffffffffffffffffffffffffffffffff168473ffffffffffffffffffffffffffffffffffffffff161415613076576040517f08c379a00000000000000000000000000000000000000000000000000000000081526004016106c590613818565b8273ffffffffffffffffffffffffffffffffffffffff168473ffffffffffffffffffffffffffffffffffffffff16106130b05782846130b3565b83835b909250905073ffffffffffffffffffffffffffffffffffffffff8216613105576040517f08c379a00000000000000000000000000000000000000000000000000000000081526004016106c590613a57565b9250929050565b60008083601f84011261311d578182fd5b50813567ffffffffffffffff811115613134578182fd5b602083019150836020808302850101111561310557600080fd5b803560048110611bd857600080fd5b80516dffffffffffffffffffffffffffff81168114611bd857600080fd5b803561ffff81168114611bd857600080fd5b60006020828403121561319e578081fd5b81356131a981613dc3565b9392505050565b6000602082840312156131c1578081fd5b81516131a981613dc3565b600080604083850312156131de578081fd5b82356131e981613dc3565b915060208301356131f981613dc3565b809150509250929050565b60008060408385031215613216578182fd5b823561322181613dc3565b915061322f6020840161317b565b90509250929050565b6000806040838503121561324a578182fd5b823561325581613dc3565b946020939093013593505050565b60008060408385031215613275578182fd5b823561328081613dc3565b9150602083013560ff811681146131f9578182fd5b6000602082840312156132a6578081fd5b815180151581146131a9578182fd5b600080600080606085870312156132ca578182fd5b6132d38561314e565b935060208501359250604085013567ffffffffffffffff8111156132f5578283fd5b6133018782880161310c565b95989497509550505050565b600080600080600060808688031215613324578081fd5b61332d8661314e565b94506020860135935060408601359250606086013567ffffffffffffffff811115613356578182fd5b6133628882890161310c565b969995985093965092949392505050565b60008060008060008060a0878903121561338b578081fd5b6133948761314e565b95506020870135945060408701359350606087013567ffffffffffffffff8111156133bd578182fd5b6133c989828a0161310c565b979a9699509497949695608090950135949350505050565b6000806000606084860312156133f5578283fd5b6133fe8461315d565b925061340c6020850161315d565b9150604084015163ffffffff81168114613424578182fd5b809150509250925092565b600060208284031215613440578081fd5b6131a98261317b565b6000806040838503121561345b578182fd5b6131e98361317b565b600060208284031215613475578081fd5b5035919050565b60006020828403121561348d578081fd5b5051919050565b600080604083850312156134a6578182fd5b505080516020909101519092909150565b7fffffffffffffffffffffffffffffffffffffffff000000000000000000000000606093841b811682529190921b16601482015260280190565b7fff00000000000000000000000000000000000000000000000000000000000000815260609290921b7fffffffffffffffffffffffffffffffffffffffff00000000000000000000000016600183015260158201527f96e8ac4277198ff8b6f785478aa9a39f403cb768dd02cbee326c3e7da348845f603582015260550190565b73ffffffffffffffffffffffffffffffffffffffff91909116815260200190565b73ffffffffffffffffffffffffffffffffffffffff958616815293851660208501529190931660408301526060820192909252608081019190915260a00190565b73ffffffffffffffffffffffffffffffffffffffff9384168152919092166020820152604081019190915260600190565b73ffffffffffffffffffffffffffffffffffffffff9788168152958716602087015260408601949094526060850192909252909316608083015260a082019290925260c081019190915260e00190565b73ffffffffffffffffffffffffffffffffffffffff929092168252602082015260400190565b6020808252825182820181905260009190848201906040850190845b818110156136b357835183529284019291840191600101613697565b50909695505050505050565b901515815260200190565b6020808252602e908201527f43616c6c6572206e6f7420617574686f72697a656420746f2073657420696e6360408201527f656e74697665207472616e636865000000000000000000000000000000000000606082015260800190565b6020808252603e908201527f43616c6c696e6720636f6e7472616374206973206e6f7420617574686f72697a60408201527f656420746f20747261646520776974682070726f746f636c2066756e64730000606082015260800190565b60208082526018908201527f556e69737761705632526f757465723a20455850495245440000000000000000604082015260600190565b6020808252602c908201527f556e697377617056324c6962726172793a20494e53554646494349454e545f4f60408201527f55545055545f414d4f554e540000000000000000000000000000000000000000606082015260800190565b60208082526025908201527f556e697377617056324c6962726172793a204944454e544943414c5f4144445260408201527f4553534553000000000000000000000000000000000000000000000000000000606082015260800190565b60208082526028908201527f4d617267696e526f757465723a20496e73756666696369656e74206c656e646960408201527f6e672066756e6473000000000000000000000000000000000000000000000000606082015260800190565b6020808252601e908201527f556e697377617056324c6962726172793a20494e56414c49445f504154480000604082015260600190565b60208082526028908201527f556e697377617056324c6962726172793a20494e53554646494349454e545f4c60408201527f4951554944495459000000000000000000000000000000000000000000000000606082015260800190565b60208082526029908201527f43616e6e6f74207472616e73666572206465706f73697420746f206d6172676960408201527f6e206163636f756e740000000000000000000000000000000000000000000000606082015260800190565b6020808252601c908201527f436f756c64206e6f742077697468647261772066726f6d2066756e6400000000604082015260600190565b60208082526027908201527f556e69737761705632526f757465723a204558434553534956455f494e50555460408201527f5f414d4f554e5400000000000000000000000000000000000000000000000000606082015260800190565b6020808252601e908201527f556e697377617056324c6962726172793a205a45524f5f414444524553530000604082015260600190565b6020808252602b908201527f556e697377617056324c6962726172793a20494e53554646494349454e545f4960408201527f4e5055545f414d4f554e54000000000000000000000000000000000000000000606082015260800190565b60208082526028908201527f4d617267696e526f757465723a20494e53554646494349454e545f4f5554505560408201527f545f414d4f554e54000000000000000000000000000000000000000000000000606082015260800190565b61ffff91909116815260200190565b61ffff92909216825273ffffffffffffffffffffffffffffffffffffffff16602082015260400190565b90815260200190565b60008582526020858184015273ffffffffffffffffffffffffffffffffffffffff85166040840152608060608401528351806080850152825b81811015613bdf5785810183015185820160a001528201613bc3565b81811115613bf0578360a083870101525b50601f017fffffffffffffffffffffffffffffffffffffffffffffffffffffffffffffffe0169290920160a0019695505050505050565b60ff91909116815260200190565b60ff93909316835273ffffffffffffffffffffffffffffffffffffffff919091166020830152604082015260600190565b60ff9390931683526020830191909152604082015260600190565b60008219821115613c9457613c94613d94565b500190565b600082613ccd577f4e487b710000000000000000000000000000000000000000000000000000000081526012600452602481fd5b500490565b6000817fffffffffffffffffffffffffffffffffffffffffffffffffffffffffffffffff0483118215151615613d0a57613d0a613d94565b500290565b600082821015613d2157613d21613d94565b500390565b600081613d3557613d35613d94565b507fffffffffffffffffffffffffffffffffffffffffffffffffffffffffffffffff0190565b60007fffffffffffffffffffffffffffffffffffffffffffffffffffffffffffffffff821415613d8d57613d8d613d94565b5060010190565b7f4e487b7100000000000000000000000000000000000000000000000000000000600052601160045260246000fd5b73ffffffffffffffffffffffffffffffffffffffff81168114613de557600080fd5b5056fea2646970667358221220c625666eb339dac082a283f306435c83eb2045f9f0abdb870afaf330002f1a4d64736f6c63430008010033",
  "linkReferences": {},
  "deployedLinkReferences": {}
}