{
  "_format": "hh-sol-artifact-1",
  "contractName": "MarginRouter",
  "sourceName": "contracts/MarginRouter.sol",
  "abi": [
    {
      "inputs": [
        {
          "internalType": "address",
          "name": "uniswapFactory",
          "type": "address"
        },
        {
          "internalType": "address",
          "name": "sushiswapFactory",
          "type": "address"
        },
        {
          "internalType": "address",
          "name": "_WETH",
          "type": "address"
        },
        {
          "internalType": "address",
          "name": "_roles",
          "type": "address"
        }
      ],
      "stateMutability": "nonpayable",
      "type": "constructor"
    },
    {
      "inputs": [],
      "name": "ADMIN",
      "outputs": [
        {
          "internalType": "uint16",
          "name": "",
          "type": "uint16"
        }
      ],
      "stateMutability": "view",
      "type": "function"
    },
    {
      "inputs": [],
      "name": "AUTHORIZED_FUND_TRADER",
      "outputs": [
        {
          "internalType": "uint16",
          "name": "",
          "type": "uint16"
        }
      ],
      "stateMutability": "view",
      "type": "function"
    },
    {
      "inputs": [],
      "name": "BORROWER",
      "outputs": [
        {
          "internalType": "uint16",
          "name": "",
          "type": "uint16"
        }
      ],
      "stateMutability": "view",
      "type": "function"
    },
    {
      "inputs": [],
      "name": "FEE_CONTROLLER",
      "outputs": [
        {
          "internalType": "uint16",
          "name": "",
          "type": "uint16"
        }
      ],
      "stateMutability": "view",
      "type": "function"
    },
    {
      "inputs": [],
      "name": "FEE_SOURCE",
      "outputs": [
        {
          "internalType": "uint16",
          "name": "",
          "type": "uint16"
        }
      ],
      "stateMutability": "view",
      "type": "function"
    },
    {
      "inputs": [],
      "name": "FUND",
      "outputs": [
        {
          "internalType": "uint16",
          "name": "",
          "type": "uint16"
        }
      ],
      "stateMutability": "view",
      "type": "function"
    },
    {
      "inputs": [],
      "name": "INCENTIVE_DISTRIBUTION",
      "outputs": [
        {
          "internalType": "uint16",
          "name": "",
          "type": "uint16"
        }
      ],
      "stateMutability": "view",
      "type": "function"
    },
    {
      "inputs": [],
      "name": "INCENTIVE_REPORTER",
      "outputs": [
        {
          "internalType": "uint16",
          "name": "",
          "type": "uint16"
        }
      ],
      "stateMutability": "view",
      "type": "function"
    },
    {
      "inputs": [],
      "name": "LENDING",
      "outputs": [
        {
          "internalType": "uint16",
          "name": "",
          "type": "uint16"
        }
      ],
      "stateMutability": "view",
      "type": "function"
    },
    {
      "inputs": [],
      "name": "LIQUIDATOR",
      "outputs": [
        {
          "internalType": "uint16",
          "name": "",
          "type": "uint16"
        }
      ],
      "stateMutability": "view",
      "type": "function"
    },
    {
      "inputs": [],
      "name": "MARGIN_CALLER",
      "outputs": [
        {
          "internalType": "uint16",
          "name": "",
          "type": "uint16"
        }
      ],
      "stateMutability": "view",
      "type": "function"
    },
    {
      "inputs": [],
      "name": "MARGIN_TRADER",
      "outputs": [
        {
          "internalType": "uint16",
          "name": "",
          "type": "uint16"
        }
      ],
      "stateMutability": "view",
      "type": "function"
    },
    {
      "inputs": [],
      "name": "MARGIN_TRADING",
      "outputs": [
        {
          "internalType": "uint16",
          "name": "",
          "type": "uint16"
        }
      ],
      "stateMutability": "view",
      "type": "function"
    },
    {
      "inputs": [],
      "name": "PRICE_CONTROLLER",
      "outputs": [
        {
          "internalType": "uint16",
          "name": "",
          "type": "uint16"
        }
      ],
      "stateMutability": "view",
      "type": "function"
    },
    {
      "inputs": [],
      "name": "ROUTER",
      "outputs": [
        {
          "internalType": "uint16",
          "name": "",
          "type": "uint16"
        }
      ],
      "stateMutability": "view",
      "type": "function"
    },
    {
      "inputs": [],
      "name": "TOKEN_ACTIVATOR",
      "outputs": [
        {
          "internalType": "uint16",
          "name": "",
          "type": "uint16"
        }
      ],
      "stateMutability": "view",
      "type": "function"
    },
    {
      "inputs": [],
      "name": "WITHDRAWER",
      "outputs": [
        {
          "internalType": "uint16",
          "name": "",
          "type": "uint16"
        }
      ],
      "stateMutability": "view",
      "type": "function"
    },
    {
      "inputs": [
        {
          "internalType": "enum AMM",
          "name": "amm",
          "type": "uint8"
        },
        {
          "internalType": "uint256",
          "name": "amountIn",
          "type": "uint256"
        },
        {
          "internalType": "uint256",
          "name": "amountOutMin",
          "type": "uint256"
        },
        {
          "internalType": "address[]",
          "name": "path",
          "type": "address[]"
        }
      ],
      "name": "authorizedSwapExactT4T",
      "outputs": [
        {
          "internalType": "uint256[]",
          "name": "",
          "type": "uint256[]"
        }
      ],
      "stateMutability": "nonpayable",
      "type": "function"
    },
    {
      "inputs": [
        {
          "internalType": "enum AMM",
          "name": "amm",
          "type": "uint8"
        },
        {
          "internalType": "uint256",
          "name": "amountOut",
          "type": "uint256"
        },
        {
          "internalType": "uint256",
          "name": "amountInMax",
          "type": "uint256"
        },
        {
          "internalType": "address[]",
          "name": "path",
          "type": "address[]"
        }
      ],
      "name": "authorizedSwapT4ExactT",
      "outputs": [
        {
          "internalType": "uint256[]",
          "name": "",
          "type": "uint256[]"
        }
      ],
      "stateMutability": "nonpayable",
      "type": "function"
    },
    {
      "inputs": [
        {
          "internalType": "address",
          "name": "borrowToken",
          "type": "address"
        },
        {
          "internalType": "uint256",
          "name": "borrowAmount",
          "type": "uint256"
        }
      ],
      "name": "crossBorrow",
      "outputs": [],
      "stateMutability": "nonpayable",
      "type": "function"
    },
    {
      "inputs": [
        {
          "internalType": "address",
          "name": "depositToken",
          "type": "address"
        },
        {
          "internalType": "uint256",
          "name": "depositAmount",
          "type": "uint256"
        }
      ],
      "name": "crossDeposit",
      "outputs": [],
      "stateMutability": "nonpayable",
      "type": "function"
    },
    {
      "inputs": [],
      "name": "crossDepositETH",
      "outputs": [],
      "stateMutability": "payable",
      "type": "function"
    },
    {
      "inputs": [
        {
          "internalType": "enum AMM",
          "name": "amm",
          "type": "uint8"
        },
        {
          "internalType": "uint256",
          "name": "amountIn",
          "type": "uint256"
        },
        {
          "internalType": "uint256",
          "name": "amountOutMin",
          "type": "uint256"
        },
        {
          "internalType": "address[]",
          "name": "path",
          "type": "address[]"
        },
        {
          "internalType": "uint256",
          "name": "deadline",
          "type": "uint256"
        }
      ],
      "name": "crossSwapExactTokensForTokens",
      "outputs": [
        {
          "internalType": "uint256[]",
          "name": "amounts",
          "type": "uint256[]"
        }
      ],
      "stateMutability": "nonpayable",
      "type": "function"
    },
    {
      "inputs": [
        {
          "internalType": "enum AMM",
          "name": "amm",
          "type": "uint8"
        },
        {
          "internalType": "uint256",
          "name": "amountOut",
          "type": "uint256"
        },
        {
          "internalType": "uint256",
          "name": "amountInMax",
          "type": "uint256"
        },
        {
          "internalType": "address[]",
          "name": "path",
          "type": "address[]"
        },
        {
          "internalType": "uint256",
          "name": "deadline",
          "type": "uint256"
        }
      ],
      "name": "crossSwapTokensForExactTokens",
      "outputs": [
        {
          "internalType": "uint256[]",
          "name": "amounts",
          "type": "uint256[]"
        }
      ],
      "stateMutability": "nonpayable",
      "type": "function"
    },
    {
      "inputs": [
        {
          "internalType": "address",
          "name": "withdrawToken",
          "type": "address"
        },
        {
          "internalType": "uint256",
          "name": "withdrawAmount",
          "type": "uint256"
        }
      ],
      "name": "crossWithdraw",
      "outputs": [],
      "stateMutability": "nonpayable",
      "type": "function"
    },
    {
      "inputs": [
        {
          "internalType": "uint256",
          "name": "withdrawAmount",
          "type": "uint256"
        }
      ],
      "name": "crossWithdrawETH",
      "outputs": [],
      "stateMutability": "nonpayable",
      "type": "function"
    },
    {
      "inputs": [
        {
          "internalType": "enum AMM",
          "name": "amm",
          "type": "uint8"
        },
        {
          "internalType": "uint256",
          "name": "outAmount",
          "type": "uint256"
        },
        {
          "internalType": "address[]",
          "name": "path",
          "type": "address[]"
        }
      ],
      "name": "getAmountsIn",
      "outputs": [
        {
          "internalType": "uint256[]",
          "name": "",
          "type": "uint256[]"
        }
      ],
      "stateMutability": "view",
      "type": "function"
    },
    {
      "inputs": [
        {
          "internalType": "enum AMM",
          "name": "amm",
          "type": "uint8"
        },
        {
          "internalType": "uint256",
          "name": "inAmount",
          "type": "uint256"
        },
        {
          "internalType": "address[]",
          "name": "path",
          "type": "address[]"
        }
      ],
      "name": "getAmountsOut",
      "outputs": [
        {
          "internalType": "uint256[]",
          "name": "",
          "type": "uint256[]"
        }
      ],
      "stateMutability": "view",
      "type": "function"
    },
    {
      "inputs": [
        {
          "internalType": "uint16",
          "name": "",
          "type": "uint16"
        }
      ],
      "name": "mainCharacterCache",
      "outputs": [
        {
          "internalType": "address",
          "name": "",
          "type": "address"
        }
      ],
      "stateMutability": "view",
      "type": "function"
    },
    {
      "inputs": [
        {
          "internalType": "address",
          "name": "",
          "type": "address"
        },
        {
          "internalType": "uint16",
          "name": "",
          "type": "uint16"
        }
      ],
      "name": "roleCache",
      "outputs": [
        {
          "internalType": "bool",
          "name": "",
          "type": "bool"
        }
      ],
      "stateMutability": "view",
      "type": "function"
    },
    {
      "inputs": [],
      "name": "roles",
      "outputs": [
        {
          "internalType": "contract Roles",
          "name": "",
          "type": "address"
        }
      ],
      "stateMutability": "view",
      "type": "function"
    },
    {
      "inputs": [
        {
          "internalType": "uint16",
          "name": "role",
          "type": "uint16"
        }
      ],
      "name": "updateMainCharacterCache",
      "outputs": [],
      "stateMutability": "nonpayable",
      "type": "function"
    },
    {
      "inputs": [
        {
          "internalType": "uint16",
          "name": "role",
          "type": "uint16"
        },
        {
          "internalType": "address",
          "name": "contr",
          "type": "address"
        }
      ],
      "name": "updateRoleCache",
      "outputs": [],
      "stateMutability": "nonpayable",
      "type": "function"
    }
  ],
  "bytecode": "0x60806040523480156200001157600080fd5b506040516200396e3803806200396e8339810160408190526200003491620000e8565b600080546001600160a01b03199081166001600160a01b0393841617825560036020527f3617319a054d772f909f7c479a2cebe5066e836a939412e32403c99029b92eff8054821696841696909617909555600190527fa15bc60c955c405d20d9149c709e2460f1c2d9a497496a7f46004d1772c3054c805485169382169390931790925560048054909316911617905562000144565b80516001600160a01b0381168114620000e357600080fd5b919050565b60008060008060808587031215620000fe578384fd5b6200010985620000cb565b93506200011960208601620000cb565b92506200012960408601620000cb565b91506200013960608601620000cb565b905092959194509250565b61381a80620001546000396000f3fe6080604052600436106101fe5760003560e01c80636cd5cd601161011d578063a9cc0536116100b0578063cacf8d451161007f578063e3e0626b11610064578063e3e0626b14610524578063eaa095f814610544578063eedb97c714610564576101fe565b8063cacf8d45146104fa578063d5d7ed7f1461050f576101fe565b8063a9cc053614610483578063b448165214610498578063c34316c3146104b8578063c76139d0146104e5576101fe565b806394427b20116100ec57806394427b2014610431578063a0098d6914610439578063a5f9a3621461044e578063a94c7c341461046e576101fe565b80636cd5cd60146103c757806381ca6600146103e757806383a49c7c146103fc57806390b931ed14610411576101fe565b80632a0acc6a1161019557806346b887961161016457806346b887961461037357806348fb27b8146103885780635c275a391461039d57806366941984146103b2576101fe565b80632a0acc6a146103125780632fe94def1461032757806332fe7b261461033c578063392f5f6414610351576101fe565b80631dce3baa116101d15780631dce3baa146102925780631f2a6743146102b257806320e8d819146102d25780632233c436146102f2576101fe565b8063065d570f146102035780630aa29f1c1461022e5780631306d9021461025b5780631bc5d81d1461027d575b600080fd5b34801561020f57600080fd5b50610218610584565b60405161022591906135aa565b60405180910390f35b34801561023a57600080fd5b5061024e610249366004612da4565b610589565b60405161022591906130dd565b34801561026757600080fd5b5061027b610276366004612d01565b610687565b005b34801561028957600080fd5b506102186108a6565b34801561029e57600080fd5b5061027b6102ad366004612f16565b6108ab565b3480156102be57600080fd5b5061024e6102cd366004612da4565b6109ef565b3480156102de57600080fd5b5061027b6102ed366004612ee0565b610ad8565b3480156102fe57600080fd5b5061024e61030d366004612e0a565b610be9565b34801561031e57600080fd5b50610218610f00565b34801561033357600080fd5b50610218610f05565b34801561034857600080fd5b50610218610f0a565b34801561035d57600080fd5b50610366610f0f565b6040516102259190613024565b34801561037f57600080fd5b50610218610f2b565b34801561039457600080fd5b50610218610f30565b3480156103a957600080fd5b50610218610f35565b3480156103be57600080fd5b50610218610f3a565b3480156103d357600080fd5b5061027b6103e2366004612ec6565b610f3f565b3480156103f357600080fd5b5061021861103e565b34801561040857600080fd5b50610218611043565b34801561041d57600080fd5b5061024e61042c366004612d4c565b611048565b61027b61113a565b34801561044557600080fd5b506102186112fd565b34801561045a57600080fd5b5061024e610469366004612e0a565b611302565b34801561047a57600080fd5b50610218611610565b34801561048f57600080fd5b50610218611615565b3480156104a457600080fd5b506103666104b3366004612ec6565b61161a565b3480156104c457600080fd5b506104d86104d3366004612ccd565b611642565b6040516102259190613121565b3480156104f157600080fd5b50610218611662565b34801561050657600080fd5b50610218611667565b34801561051b57600080fd5b5061021861166c565b34801561053057600080fd5b5061027b61053f366004612d01565b611671565b34801561055057600080fd5b5061024e61055f366004612d4c565b6117f0565b34801561057057600080fd5b5061027b61057f366004612d01565b6118d8565b600381565b6060610594336119ff565b6105d3576040517f08c379a00000000000000000000000000000000000000000000000000000000081526004016105ca90613189565b60405180910390fd5b61067b60036000886003811115610613577f4e487b7100000000000000000000000000000000000000000000000000000000600052602160045260246000fd5b600381111561064b577f4e487b7100000000000000000000000000000000000000000000000000000000600052602160045260246000fd5b815260208101919091526040016000205473ffffffffffffffffffffffffffffffffffffffff1686868686611a3a565b90505b95945050505050565b3332146106c0576040517f08c379a00000000000000000000000000000000000000000000000000000000081526004016105ca9061312c565b6106c8611d4b565b73ffffffffffffffffffffffffffffffffffffffff1663b3db428b3384846040518463ffffffff1660e01b815260040161070493929190613086565b602060405180830381600087803b15801561071e57600080fd5b505af1158015610732573d6000803e3d6000fd5b505050506040513d601f19601f820116820180604052508101906107569190612d2c565b61078c576040517f08c379a00000000000000000000000000000000000000000000000000000000081526004016105ca906133c8565b6000610796611d90565b73ffffffffffffffffffffffffffffffffffffffff166352a664d93385856040518463ffffffff1660e01b81526004016107d293929190613086565b602060405180830381600087803b1580156107ec57600080fd5b505af1158015610800573d6000803e3d6000fd5b505050506040513d601f19601f820116820180604052508101906108249190612f2e565b905080156108a157610834611dd5565b73ffffffffffffffffffffffffffffffffffffffff16632a6a897b84836040518363ffffffff1660e01b815260040161086e9291906130b7565b600060405180830381600087803b15801561088857600080fd5b505af115801561089c573d6000803e3d6000fd5b505050505b505050565b600881565b3332146108e4576040517f08c379a00000000000000000000000000000000000000000000000000000000081526004016105ca9061312c565b6108ec611d90565b600480546040517fd0eb665300000000000000000000000000000000000000000000000000000000815273ffffffffffffffffffffffffffffffffffffffff9384169363d0eb665393610946933393921691879101613086565b600060405180830381600087803b15801561096057600080fd5b505af1158015610974573d6000803e3d6000fd5b50505050610980611d4b565b73ffffffffffffffffffffffffffffffffffffffff16634782f77933836040518363ffffffff1660e01b81526004016109ba9291906130b7565b600060405180830381600087803b1580156109d457600080fd5b505af11580156109e8573d6000803e3d6000fd5b5050505050565b60606109fa336119ff565b610a30576040517f08c379a00000000000000000000000000000000000000000000000000000000081526004016105ca90613189565b61067b60036000886003811115610a70577f4e487b7100000000000000000000000000000000000000000000000000000000600052602160045260246000fd5b6003811115610aa8577f4e487b7100000000000000000000000000000000000000000000000000000000600052602160045260246000fd5b815260208101919091526040016000205473ffffffffffffffffffffffffffffffffffffffff1686868686611e1a565b6000546040517fd87fefd200000000000000000000000000000000000000000000000000000000815273ffffffffffffffffffffffffffffffffffffffff9091169063d87fefd290610b3090859085906004016135b9565b60206040518083038186803b158015610b4857600080fd5b505afa158015610b5c573d6000803e3d6000fd5b505050506040513d601f19601f82011682018060405250810190610b809190612d2c565b73ffffffffffffffffffffffffffffffffffffffff909116600090815260026020908152604080832061ffff90951683529390529190912080549115157fffffffffffffffffffffffffffffffffffffffffffffffffffffffffffffff00909216919091179055565b6060333214610c24576040517f08c379a00000000000000000000000000000000000000000000000000000000081526004016105ca9061312c565b8142811015610c5f576040517f08c379a00000000000000000000000000000000000000000000000000000000081526004016105ca906131e6565b6000610c69611ed7565b73ffffffffffffffffffffffffffffffffffffffff166367cbf42d8787610c9160018261370e565b818110610cc7577f4e487b7100000000000000000000000000000000000000000000000000000000600052603260045260246000fd5b9050602002016020810190610cdc9190612c8e565b8a6040518363ffffffff1660e01b8152600401610cfa9291906130b7565b602060405180830381600087803b158015610d1457600080fd5b505af1158015610d28573d6000803e3d6000fd5b505050506040513d601f19601f82011682018060405250810190610d4c9190612f2e565b9050610dff600360008b6003811115610d8e577f4e487b7100000000000000000000000000000000000000000000000000000000600052602160045260246000fd5b6003811115610dc6577f4e487b7100000000000000000000000000000000000000000000000000000000600052602160045260246000fd5b815260208101919091526040016000205473ffffffffffffffffffffffffffffffffffffffff16610df7838b613680565b898989611e1a565b9250610ef43387876000818110610e3f577f4e487b7100000000000000000000000000000000000000000000000000000000600052603260045260246000fd5b9050602002016020810190610e549190612c8e565b8888610e6160018261370e565b818110610e97577f4e487b7100000000000000000000000000000000000000000000000000000000600052603260045260246000fd5b9050602002016020810190610eac9190612c8e565b86600081518110610ee6577f4e487b7100000000000000000000000000000000000000000000000000000000600052603260045260246000fd5b60200260200101518c611f1c565b50509695505050505050565b606b81565b606981565b606781565b60005473ffffffffffffffffffffffffffffffffffffffff1681565b600681565b606681565b606581565b600181565b6000546040517f3c9c8f9c00000000000000000000000000000000000000000000000000000000815273ffffffffffffffffffffffffffffffffffffffff90911690633c9c8f9c90610f959084906004016135aa565b60206040518083038186803b158015610fad57600080fd5b505afa158015610fc1573d6000803e3d6000fd5b505050506040513d601f19601f82011682018060405250810190610fe59190612cb1565b61ffff91909116600090815260016020526040902080547fffffffffffffffffffffffff00000000000000000000000000000000000000001673ffffffffffffffffffffffffffffffffffffffff909216919091179055565b606a81565b600981565b6060600060036000876003811115611089577f4e487b7100000000000000000000000000000000000000000000000000000000600052602160045260246000fd5b60038111156110c1577f4e487b7100000000000000000000000000000000000000000000000000000000600052602160045260246000fd5b815260200190815260200160002060009054906101000a900473ffffffffffffffffffffffffffffffffffffffff16905061113081868686808060200260200160405190810160405280939291908181526020018383602002808284376000920191909152506120bb92505050565b9695505050505050565b333214611173576040517f08c379a00000000000000000000000000000000000000000000000000000000081526004016105ca9061312c565b61117b611d4b565b73ffffffffffffffffffffffffffffffffffffffff1663a6a5f9fe346040518263ffffffff1660e01b81526004016000604051808303818588803b1580156111c257600080fd5b505af11580156111d6573d6000803e3d6000fd5b505050505060006111e5611d90565b600480546040517f52a664d900000000000000000000000000000000000000000000000000000000815273ffffffffffffffffffffffffffffffffffffffff938416936352a664d99361123f933393921691349101613086565b602060405180830381600087803b15801561125957600080fd5b505af115801561126d573d6000803e3d6000fd5b505050506040513d601f19601f820116820180604052508101906112919190612f2e565b905080156112fa576112a1611dd5565b600480546040517f2a6a897b00000000000000000000000000000000000000000000000000000000815273ffffffffffffffffffffffffffffffffffffffff93841693632a6a897b936109ba93909116918691016130b7565b50565b600281565b606033321461133d576040517f08c379a00000000000000000000000000000000000000000000000000000000081526004016105ca9061312c565b8142811015611378576040517f08c379a00000000000000000000000000000000000000000000000000000000081526004016105ca906131e6565b6000611382611ed7565b73ffffffffffffffffffffffffffffffffffffffff16633f0e9edf878760008181106113d7577f4e487b7100000000000000000000000000000000000000000000000000000000600052603260045260246000fd5b90506020020160208101906113ec9190612c8e565b8a6040518363ffffffff1660e01b815260040161140a9291906130b7565b602060405180830381600087803b15801561142457600080fd5b505af1158015611438573d6000803e3d6000fd5b505050506040513d601f19601f8201168201806040525081019061145c9190612f2e565b905061150f600360008b600381111561149e577f4e487b7100000000000000000000000000000000000000000000000000000000600052602160045260246000fd5b60038111156114d6577f4e487b7100000000000000000000000000000000000000000000000000000000600052602160045260246000fd5b815260208101919091526040016000205473ffffffffffffffffffffffffffffffffffffffff16611507838b61370e565b898989611a3a565b9250610ef4338787600081811061154f577f4e487b7100000000000000000000000000000000000000000000000000000000600052603260045260246000fd5b90506020020160208101906115649190612c8e565b888861157160018261370e565b8181106115a7577f4e487b7100000000000000000000000000000000000000000000000000000000600052603260045260246000fd5b90506020020160208101906115bc9190612c8e565b8b87600189516115cc919061370e565b81518110611603577f4e487b7100000000000000000000000000000000000000000000000000000000600052603260045260246000fd5b6020026020010151611f1c565b600581565b606881565b60016020526000908152604090205473ffffffffffffffffffffffffffffffffffffffff1681565b600260209081526000928352604080842090915290825290205460ff1681565b606c81565b600481565b600781565b3332146116aa576040517f08c379a00000000000000000000000000000000000000000000000000000000081526004016105ca9061312c565b6116b2611d90565b73ffffffffffffffffffffffffffffffffffffffff1663d0eb66533384846040518463ffffffff1660e01b81526004016116ee93929190613086565b600060405180830381600087803b15801561170857600080fd5b505af115801561171c573d6000803e3d6000fd5b50505050611728611d4b565b73ffffffffffffffffffffffffffffffffffffffff1663d9caed128333846040518463ffffffff1660e01b815260040161176493929190613086565b602060405180830381600087803b15801561177e57600080fd5b505af1158015611792573d6000803e3d6000fd5b505050506040513d601f19601f820116820180604052508101906117b69190612d2c565b6117ec576040517f08c379a00000000000000000000000000000000000000000000000000000000081526004016105ca90613425565b5050565b6060600060036000876003811115611831577f4e487b7100000000000000000000000000000000000000000000000000000000600052602160045260246000fd5b6003811115611869577f4e487b7100000000000000000000000000000000000000000000000000000000600052602160045260246000fd5b815260200190815260200160002060009054906101000a900473ffffffffffffffffffffffffffffffffffffffff169050611130818686868080602002602001604051908101604052809392919081815260200183836020028082843760009201919091525061232592505050565b333214611911576040517f08c379a00000000000000000000000000000000000000000000000000000000081526004016105ca9061312c565b611919611dd5565b73ffffffffffffffffffffffffffffffffffffffff1663ee0862bf83836040518363ffffffff1660e01b81526004016119539291906130b7565b600060405180830381600087803b15801561196d57600080fd5b505af1158015611981573d6000803e3d6000fd5b5050505061198d611d90565b73ffffffffffffffffffffffffffffffffffffffff1663498d55eb3384846040518463ffffffff1660e01b81526004016119c993929190613086565b600060405180830381600087803b1580156119e357600080fd5b505af11580156119f7573d6000803e3d6000fd5b505050505050565b73ffffffffffffffffffffffffffffffffffffffff811660009081526002602090815260408083206007845290915290205460ff165b919050565b6060611a7a868685858080602002602001604051908101604052809392919081815260200183836020028082843760009201919091525061232592505050565b9050838160018351611a8c919061370e565b81518110611ac3577f4e487b7100000000000000000000000000000000000000000000000000000000600052603260045260246000fd5b60200260200101511015611b03576040517f08c379a00000000000000000000000000000000000000000000000000000000081526004016105ca9061354d565b611b0b611d4b565b73ffffffffffffffffffffffffffffffffffffffff1663d9caed1284846000818110611b60577f4e487b7100000000000000000000000000000000000000000000000000000000600052603260045260246000fd5b9050602002016020810190611b759190612c8e565b611c1c8987876000818110611bb3577f4e487b7100000000000000000000000000000000000000000000000000000000600052603260045260246000fd5b9050602002016020810190611bc89190612c8e565b88886001818110611c02577f4e487b7100000000000000000000000000000000000000000000000000000000600052603260045260246000fd5b9050602002016020810190611c179190612c8e565b61256f565b84600081518110611c56577f4e487b7100000000000000000000000000000000000000000000000000000000600052603260045260246000fd5b60200260200101516040518463ffffffff1660e01b8152600401611c7c93929190613086565b602060405180830381600087803b158015611c9657600080fd5b505af1158015611caa573d6000803e3d6000fd5b505050506040513d601f19601f82011682018060405250810190611cce9190612d2c565b611d04576040517f08c379a00000000000000000000000000000000000000000000000000000000081526004016105ca906132d7565b61067e8682858580806020026020016040519081016040528093929190818152602001838360200280828437600092019190915250611d469250611d4b915050565b6125e1565b606560005260016020527f6def5a300acb6fcaa0dab3a41e9d6457b5147a641e641380f8cc4bf5308b16fe5473ffffffffffffffffffffffffffffffffffffffff1690565b606860005260016020527ff284ef79b1311865905aedf2d88775d1e3bf6a2b09002616cb4dc1af77e578f45473ffffffffffffffffffffffffffffffffffffffff1690565b606660005260016020527f8a7727369fa1a496cab5c3debb1ff9323f499df74f8bfc03a975054ef960ee6d5473ffffffffffffffffffffffffffffffffffffffff1690565b6060611e5a86868585808060200260200160405190810160405280939291908181526020018383602002808284376000920191909152506120bb92505050565b90508381600081518110611e97577f4e487b7100000000000000000000000000000000000000000000000000000000600052603260045260246000fd5b60200260200101511115611b03576040517f08c379a00000000000000000000000000000000000000000000000000000000081526004016105ca9061345c565b606960005260016020527f2cc30221e0553428287371236269b4e2f6f11f95f33fb976fdb79b586bb6c3425473ffffffffffffffffffffffffffffffffffffffff1690565b600080611f27611d90565b73ffffffffffffffffffffffffffffffffffffffff16633500aa0b88888888886040518663ffffffff1660e01b8152600401611f67959493929190613045565b6040805180830381600087803b158015611f8057600080fd5b505af1158015611f94573d6000803e3d6000fd5b505050506040513d601f19601f82011682018060405250810190611fb89190612f46565b9092509050811561203857611fcb611dd5565b73ffffffffffffffffffffffffffffffffffffffff16632a6a897b86846040518363ffffffff1660e01b81526004016120059291906130b7565b600060405180830381600087803b15801561201f57600080fd5b505af1158015612033573d6000803e3d6000fd5b505050505b801561089c57612046611dd5565b73ffffffffffffffffffffffffffffffffffffffff1663ee0862bf86836040518363ffffffff1660e01b81526004016120809291906130b7565b600060405180830381600087803b15801561209a57600080fd5b505af11580156120ae573d6000803e3d6000fd5b5050505050505050505050565b60606002825110156120f9576040517f08c379a00000000000000000000000000000000000000000000000000000000081526004016105ca90613334565b815167ffffffffffffffff81111561213a577f4e487b7100000000000000000000000000000000000000000000000000000000600052604160045260246000fd5b604051908082528060200260200182016040528015612163578160200160208202803683370190505b509050828160018351612176919061370e565b815181106121ad577f4e487b7100000000000000000000000000000000000000000000000000000000600052603260045260246000fd5b6020026020010181815250506000600183516121c9919061370e565b90505b801561231d5760008061226a87866121e560018761370e565b8151811061221c577f4e487b7100000000000000000000000000000000000000000000000000000000600052603260045260246000fd5b602002602001015187868151811061225d577f4e487b7100000000000000000000000000000000000000000000000000000000600052603260045260246000fd5b6020026020010151612866565b915091506122b98484815181106122aa577f4e487b7100000000000000000000000000000000000000000000000000000000600052603260045260246000fd5b60200260200101518383612974565b846122c560018661370e565b815181106122fc577f4e487b7100000000000000000000000000000000000000000000000000000000600052603260045260246000fd5b6020026020010181815250505050808061231590613725565b9150506121cc565b509392505050565b6060600282511015612363576040517f08c379a00000000000000000000000000000000000000000000000000000000081526004016105ca90613334565b815167ffffffffffffffff8111156123a4577f4e487b7100000000000000000000000000000000000000000000000000000000600052604160045260246000fd5b6040519080825280602002602001820160405280156123cd578160200160208202803683370190505b509050828160008151811061240b577f4e487b7100000000000000000000000000000000000000000000000000000000600052603260045260246000fd5b60200260200101818152505060005b60018351612428919061370e565b81101561231d576000806124bc8786858151811061246f577f4e487b7100000000000000000000000000000000000000000000000000000000600052603260045260246000fd5b6020026020010151878660016124859190613680565b8151811061225d577f4e487b7100000000000000000000000000000000000000000000000000000000600052603260045260246000fd5b9150915061250b8484815181106124fc577f4e487b7100000000000000000000000000000000000000000000000000000000600052603260045260246000fd5b60200260200101518383612a3f565b84612517856001613680565b8151811061254e577f4e487b7100000000000000000000000000000000000000000000000000000000600052603260045260246000fd5b602002602001018181525050505080806125679061375a565b91505061241a565b600080600061257e8585612b0e565b91509150858282604051602001612596929190612f69565b604051602081830303815290604052805190602001206040516020016125bd929190612fa3565b6040516020818303038152906040528051906020012060601c925050509392505050565b60005b600183516125f2919061370e565b8110156109e857600080848381518110612635577f4e487b7100000000000000000000000000000000000000000000000000000000600052603260045260246000fd5b60200260200101518584600161264b9190613680565b81518110612682577f4e487b7100000000000000000000000000000000000000000000000000000000600052603260045260246000fd5b602002602001015191509150600061269a8383612b0e565b5090506000876126ab866001613680565b815181106126e2577f4e487b7100000000000000000000000000000000000000000000000000000000600052603260045260246000fd5b602002602001015190506000808373ffffffffffffffffffffffffffffffffffffffff168673ffffffffffffffffffffffffffffffffffffffff161461272a5782600061272e565b6000835b91509150600060028a51612742919061370e565b881061274e57886127a3565b6127a38c878c61275f8c6002613680565b81518110612796577f4e487b7100000000000000000000000000000000000000000000000000000000600052603260045260246000fd5b602002602001015161256f565b90506127b08c888861256f565b73ffffffffffffffffffffffffffffffffffffffff1663022c0d9f84848460006040519080825280601f01601f1916602001820160405280156127fa576020820181803683370190505b506040518563ffffffff1660e01b815260040161281a94939291906135e3565b600060405180830381600087803b15801561283457600080fd5b505af1158015612848573d6000803e3d6000fd5b5050505050505050505050808061285e9061375a565b9150506125e4565b60008060006128758585612b0e565b50905060008061288688888861256f565b73ffffffffffffffffffffffffffffffffffffffff16630902f1ac6040518163ffffffff1660e01b815260040160606040518083038186803b1580156128cb57600080fd5b505afa1580156128df573d6000803e3d6000fd5b505050506040513d601f19601f820116820180604052508101906129039190612e78565b506dffffffffffffffffffffffffffff1691506dffffffffffffffffffffffffffff1691508273ffffffffffffffffffffffffffffffffffffffff168773ffffffffffffffffffffffffffffffffffffffff1614612962578082612965565b81815b90999098509650505050505050565b60008084116129af576040517f08c379a00000000000000000000000000000000000000000000000000000000081526004016105ca9061321d565b6000831180156129bf5750600082115b6129f5576040517f08c379a00000000000000000000000000000000000000000000000000000000081526004016105ca9061336b565b6000612a0185856136d1565b612a0d906103e86136d1565b905060006103e5612a1e878661370e565b612a28919061370e565b9050612a348183613698565b611130906001613680565b6000808411612a7a576040517f08c379a00000000000000000000000000000000000000000000000000000000081526004016105ca906134f0565b600083118015612a8a5750600082115b612ac0576040517f08c379a00000000000000000000000000000000000000000000000000000000081526004016105ca9061336b565b6000612ace856103e56136d1565b90506000612adc84836136d1565b9050600082612aed876103e86136d1565b612af79190613680565b9050612b038183613698565b979650505050505050565b6000808273ffffffffffffffffffffffffffffffffffffffff168473ffffffffffffffffffffffffffffffffffffffff161415612b77576040517f08c379a00000000000000000000000000000000000000000000000000000000081526004016105ca9061327a565b8273ffffffffffffffffffffffffffffffffffffffff168473ffffffffffffffffffffffffffffffffffffffff1610612bb1578284612bb4565b83835b909250905073ffffffffffffffffffffffffffffffffffffffff8216612c06576040517f08c379a00000000000000000000000000000000000000000000000000000000081526004016105ca906134b9565b9250929050565b60008083601f840112612c1e578182fd5b50813567ffffffffffffffff811115612c35578182fd5b6020830191508360208083028501011115612c0657600080fd5b803560048110611a3557600080fd5b80516dffffffffffffffffffffffffffff81168114611a3557600080fd5b803561ffff81168114611a3557600080fd5b600060208284031215612c9f578081fd5b8135612caa816137c2565b9392505050565b600060208284031215612cc2578081fd5b8151612caa816137c2565b60008060408385031215612cdf578081fd5b8235612cea816137c2565b9150612cf860208401612c7c565b90509250929050565b60008060408385031215612d13578182fd5b8235612d1e816137c2565b946020939093013593505050565b600060208284031215612d3d578081fd5b81518015158114612caa578182fd5b60008060008060608587031215612d61578182fd5b612d6a85612c4f565b935060208501359250604085013567ffffffffffffffff811115612d8c578283fd5b612d9887828801612c0d565b95989497509550505050565b600080600080600060808688031215612dbb578081fd5b612dc486612c4f565b94506020860135935060408601359250606086013567ffffffffffffffff811115612ded578182fd5b612df988828901612c0d565b969995985093965092949392505050565b60008060008060008060a08789031215612e22578081fd5b612e2b87612c4f565b95506020870135945060408701359350606087013567ffffffffffffffff811115612e54578182fd5b612e6089828a01612c0d565b979a9699509497949695608090950135949350505050565b600080600060608486031215612e8c578283fd5b612e9584612c5e565b9250612ea360208501612c5e565b9150604084015163ffffffff81168114612ebb578182fd5b809150509250925092565b600060208284031215612ed7578081fd5b612caa82612c7c565b60008060408385031215612ef2578182fd5b612efb83612c7c565b91506020830135612f0b816137c2565b809150509250929050565b600060208284031215612f27578081fd5b5035919050565b600060208284031215612f3f578081fd5b5051919050565b60008060408385031215612f58578182fd5b505080516020909101519092909150565b7fffffffffffffffffffffffffffffffffffffffff000000000000000000000000606093841b811682529190921b16601482015260280190565b7fff00000000000000000000000000000000000000000000000000000000000000815260609290921b7fffffffffffffffffffffffffffffffffffffffff00000000000000000000000016600183015260158201527f96e8ac4277198ff8b6f785478aa9a39f403cb768dd02cbee326c3e7da348845f603582015260550190565b73ffffffffffffffffffffffffffffffffffffffff91909116815260200190565b73ffffffffffffffffffffffffffffffffffffffff958616815293851660208501529190931660408301526060820192909252608081019190915260a00190565b73ffffffffffffffffffffffffffffffffffffffff9384168152919092166020820152604081019190915260600190565b73ffffffffffffffffffffffffffffffffffffffff929092168252602082015260400190565b6020808252825182820181905260009190848201906040850190845b81811015613115578351835292840192918401916001016130f9565b50909695505050505050565b901515815260200190565b6020808252603a908201527f43757272656e746c79206e6f20696e7465726d656469617269657320616c6c6f60408201527f77656420666f7220746869732066756e6374696f6e2063616c6c000000000000606082015260800190565b6020808252603e908201527f43616c6c696e6720636f6e7472616374206973206e6f7420617574686f72697a60408201527f656420746f20747261646520776974682070726f746f636c2066756e64730000606082015260800190565b60208082526018908201527f556e69737761705632526f757465723a20455850495245440000000000000000604082015260600190565b6020808252602c908201527f556e697377617056324c6962726172793a20494e53554646494349454e545f4f60408201527f55545055545f414d4f554e540000000000000000000000000000000000000000606082015260800190565b60208082526025908201527f556e697377617056324c6962726172793a204944454e544943414c5f4144445260408201527f4553534553000000000000000000000000000000000000000000000000000000606082015260800190565b60208082526028908201527f4d617267696e526f757465723a20496e73756666696369656e74206c656e646960408201527f6e672066756e6473000000000000000000000000000000000000000000000000606082015260800190565b6020808252601e908201527f556e697377617056324c6962726172793a20494e56414c49445f504154480000604082015260600190565b60208082526028908201527f556e697377617056324c6962726172793a20494e53554646494349454e545f4c60408201527f4951554944495459000000000000000000000000000000000000000000000000606082015260800190565b60208082526029908201527f43616e6e6f74207472616e73666572206465706f73697420746f206d6172676960408201527f6e206163636f756e740000000000000000000000000000000000000000000000606082015260800190565b6020808252601c908201527f436f756c64206e6f742077697468647261772066726f6d2066756e6400000000604082015260600190565b60208082526027908201527f556e69737761705632526f757465723a204558434553534956455f494e50555460408201527f5f414d4f554e5400000000000000000000000000000000000000000000000000606082015260800190565b6020808252601e908201527f556e697377617056324c6962726172793a205a45524f5f414444524553530000604082015260600190565b6020808252602b908201527f556e697377617056324c6962726172793a20494e53554646494349454e545f4960408201527f4e5055545f414d4f554e54000000000000000000000000000000000000000000606082015260800190565b60208082526028908201527f4d617267696e526f757465723a20494e53554646494349454e545f4f5554505560408201527f545f414d4f554e54000000000000000000000000000000000000000000000000606082015260800190565b61ffff91909116815260200190565b61ffff92909216825273ffffffffffffffffffffffffffffffffffffffff16602082015260400190565b60008582526020858184015273ffffffffffffffffffffffffffffffffffffffff85166040840152608060608401528351806080850152825b818110156136385785810183015185820160a00152820161361c565b81811115613649578360a083870101525b50601f017fffffffffffffffffffffffffffffffffffffffffffffffffffffffffffffffe0169290920160a0019695505050505050565b6000821982111561369357613693613793565b500190565b6000826136cc577f4e487b710000000000000000000000000000000000000000000000000000000081526012600452602481fd5b500490565b6000817fffffffffffffffffffffffffffffffffffffffffffffffffffffffffffffffff048311821515161561370957613709613793565b500290565b60008282101561372057613720613793565b500390565b60008161373457613734613793565b507fffffffffffffffffffffffffffffffffffffffffffffffffffffffffffffffff0190565b60007fffffffffffffffffffffffffffffffffffffffffffffffffffffffffffffffff82141561378c5761378c613793565b5060010190565b7f4e487b7100000000000000000000000000000000000000000000000000000000600052601160045260246000fd5b73ffffffffffffffffffffffffffffffffffffffff811681146112fa57600080fdfea26469706673582212202d398b3a4941e9a14e862b6f29687933b121ad45b04f0ccf4753b878f33bcc9c64736f6c63430008010033",
  "linkReferences": {},
  "deployedLinkReferences": {}
}