{
  "_format": "hh-sol-artifact-1",
  "contractName": "MarginRouter",
  "sourceName": "contracts/MarginRouter.sol",
  "abi": [
    {
      "inputs": [
        {
          "internalType": "address",
          "name": "uniswapFactory",
          "type": "address"
        },
        {
          "internalType": "address",
          "name": "sushiswapFactory",
          "type": "address"
        },
        {
          "internalType": "address",
          "name": "_WETH",
          "type": "address"
        },
        {
          "internalType": "address",
          "name": "_roles",
          "type": "address"
        }
      ],
      "stateMutability": "nonpayable",
      "type": "constructor"
    },
    {
      "inputs": [],
      "name": "ADMIN",
      "outputs": [
        {
          "internalType": "uint16",
          "name": "",
          "type": "uint16"
        }
      ],
      "stateMutability": "view",
      "type": "function"
    },
    {
      "inputs": [],
      "name": "AUTHORIZED_FUND_TRADER",
      "outputs": [
        {
          "internalType": "uint16",
          "name": "",
          "type": "uint16"
        }
      ],
      "stateMutability": "view",
      "type": "function"
    },
    {
      "inputs": [],
      "name": "BORROWER",
      "outputs": [
        {
          "internalType": "uint16",
          "name": "",
          "type": "uint16"
        }
      ],
      "stateMutability": "view",
      "type": "function"
    },
    {
      "inputs": [],
      "name": "FEE_CONTROLLER",
      "outputs": [
        {
          "internalType": "uint16",
          "name": "",
          "type": "uint16"
        }
      ],
      "stateMutability": "view",
      "type": "function"
    },
    {
      "inputs": [],
      "name": "FEE_SOURCE",
      "outputs": [
        {
          "internalType": "uint16",
          "name": "",
          "type": "uint16"
        }
      ],
      "stateMutability": "view",
      "type": "function"
    },
    {
      "inputs": [],
      "name": "FUND",
      "outputs": [
        {
          "internalType": "uint16",
          "name": "",
          "type": "uint16"
        }
      ],
      "stateMutability": "view",
      "type": "function"
    },
    {
      "inputs": [],
      "name": "INCENTIVE_REPORTER",
      "outputs": [
        {
          "internalType": "uint16",
          "name": "",
          "type": "uint16"
        }
      ],
      "stateMutability": "view",
      "type": "function"
    },
    {
      "inputs": [],
      "name": "LENDING",
      "outputs": [
        {
          "internalType": "uint16",
          "name": "",
          "type": "uint16"
        }
      ],
      "stateMutability": "view",
      "type": "function"
    },
    {
      "inputs": [],
      "name": "LIQUIDATOR",
      "outputs": [
        {
          "internalType": "uint16",
          "name": "",
          "type": "uint16"
        }
      ],
      "stateMutability": "view",
      "type": "function"
    },
    {
      "inputs": [],
      "name": "MARGIN_CALLER",
      "outputs": [
        {
          "internalType": "uint16",
          "name": "",
          "type": "uint16"
        }
      ],
      "stateMutability": "view",
      "type": "function"
    },
    {
      "inputs": [],
      "name": "MARGIN_TRADER",
      "outputs": [
        {
          "internalType": "uint16",
          "name": "",
          "type": "uint16"
        }
      ],
      "stateMutability": "view",
      "type": "function"
    },
    {
      "inputs": [],
      "name": "MARGIN_TRADING",
      "outputs": [
        {
          "internalType": "uint16",
          "name": "",
          "type": "uint16"
        }
      ],
      "stateMutability": "view",
      "type": "function"
    },
    {
      "inputs": [],
      "name": "PRICE_CONTROLLER",
      "outputs": [
        {
          "internalType": "uint16",
          "name": "",
          "type": "uint16"
        }
      ],
      "stateMutability": "view",
      "type": "function"
    },
    {
      "inputs": [],
      "name": "ROUTER",
      "outputs": [
        {
          "internalType": "uint16",
          "name": "",
          "type": "uint16"
        }
      ],
      "stateMutability": "view",
      "type": "function"
    },
    {
      "inputs": [],
      "name": "TOKEN_ACTIVATOR",
      "outputs": [
        {
          "internalType": "uint16",
          "name": "",
          "type": "uint16"
        }
      ],
      "stateMutability": "view",
      "type": "function"
    },
    {
      "inputs": [],
      "name": "WITHDRAWER",
      "outputs": [
        {
          "internalType": "uint16",
          "name": "",
          "type": "uint16"
        }
      ],
      "stateMutability": "view",
      "type": "function"
    },
    {
      "inputs": [
        {
          "internalType": "enum AMM",
          "name": "amm",
          "type": "uint8"
        },
        {
          "internalType": "uint256",
          "name": "amountIn",
          "type": "uint256"
        },
        {
          "internalType": "uint256",
          "name": "amountOutMin",
          "type": "uint256"
        },
        {
          "internalType": "address[]",
          "name": "path",
          "type": "address[]"
        }
      ],
      "name": "authorizedSwapExactT4T",
      "outputs": [
        {
          "internalType": "uint256[]",
          "name": "",
          "type": "uint256[]"
        }
      ],
      "stateMutability": "nonpayable",
      "type": "function"
    },
    {
      "inputs": [
        {
          "internalType": "enum AMM",
          "name": "amm",
          "type": "uint8"
        },
        {
          "internalType": "uint256",
          "name": "amountOut",
          "type": "uint256"
        },
        {
          "internalType": "uint256",
          "name": "amountInMax",
          "type": "uint256"
        },
        {
          "internalType": "address[]",
          "name": "path",
          "type": "address[]"
        }
      ],
      "name": "authorizedSwapT4ExactT",
      "outputs": [
        {
          "internalType": "uint256[]",
          "name": "",
          "type": "uint256[]"
        }
      ],
      "stateMutability": "nonpayable",
      "type": "function"
    },
    {
      "inputs": [
        {
          "internalType": "address",
          "name": "borrowToken",
          "type": "address"
        },
        {
          "internalType": "uint256",
          "name": "borrowAmount",
          "type": "uint256"
        }
      ],
      "name": "crossBorrow",
      "outputs": [],
      "stateMutability": "nonpayable",
      "type": "function"
    },
    {
      "inputs": [
        {
          "internalType": "address",
          "name": "depositToken",
          "type": "address"
        },
        {
          "internalType": "uint256",
          "name": "depositAmount",
          "type": "uint256"
        }
      ],
      "name": "crossDeposit",
      "outputs": [],
      "stateMutability": "nonpayable",
      "type": "function"
    },
    {
      "inputs": [],
      "name": "crossDepositETH",
      "outputs": [],
      "stateMutability": "payable",
      "type": "function"
    },
    {
      "inputs": [
        {
          "internalType": "address",
          "name": "debtToken",
          "type": "address"
        },
        {
          "internalType": "uint256",
          "name": "extinguishAmount",
          "type": "uint256"
        }
      ],
      "name": "crossExtinguishDebt",
      "outputs": [],
      "stateMutability": "nonpayable",
      "type": "function"
    },
    {
      "inputs": [
        {
          "internalType": "enum AMM",
          "name": "amm",
          "type": "uint8"
        },
        {
          "internalType": "uint256",
          "name": "amountIn",
          "type": "uint256"
        },
        {
          "internalType": "uint256",
          "name": "amountOutMin",
          "type": "uint256"
        },
        {
          "internalType": "address[]",
          "name": "path",
          "type": "address[]"
        },
        {
          "internalType": "uint256",
          "name": "deadline",
          "type": "uint256"
        }
      ],
      "name": "crossSwapExactTokensForTokens",
      "outputs": [
        {
          "internalType": "uint256[]",
          "name": "amounts",
          "type": "uint256[]"
        }
      ],
      "stateMutability": "nonpayable",
      "type": "function"
    },
    {
      "inputs": [
        {
          "internalType": "enum AMM",
          "name": "amm",
          "type": "uint8"
        },
        {
          "internalType": "uint256",
          "name": "amountOut",
          "type": "uint256"
        },
        {
          "internalType": "uint256",
          "name": "amountInMax",
          "type": "uint256"
        },
        {
          "internalType": "address[]",
          "name": "path",
          "type": "address[]"
        },
        {
          "internalType": "uint256",
          "name": "deadline",
          "type": "uint256"
        }
      ],
      "name": "crossSwapTokensForExactTokens",
      "outputs": [
        {
          "internalType": "uint256[]",
          "name": "amounts",
          "type": "uint256[]"
        }
      ],
      "stateMutability": "nonpayable",
      "type": "function"
    },
    {
      "inputs": [
        {
          "internalType": "address",
          "name": "withdrawToken",
          "type": "address"
        },
        {
          "internalType": "uint256",
          "name": "withdrawAmount",
          "type": "uint256"
        }
      ],
      "name": "crossWithdraw",
      "outputs": [],
      "stateMutability": "nonpayable",
      "type": "function"
    },
    {
      "inputs": [
        {
          "internalType": "uint256",
          "name": "withdrawAmount",
          "type": "uint256"
        }
      ],
      "name": "crossWithdrawETH",
      "outputs": [],
      "stateMutability": "nonpayable",
      "type": "function"
    },
    {
      "inputs": [
        {
          "internalType": "enum AMM",
          "name": "amm",
          "type": "uint8"
        },
        {
          "internalType": "uint256",
          "name": "outAmount",
          "type": "uint256"
        },
        {
          "internalType": "address[]",
          "name": "path",
          "type": "address[]"
        }
      ],
      "name": "getAmountsIn",
      "outputs": [
        {
          "internalType": "uint256[]",
          "name": "",
          "type": "uint256[]"
        }
      ],
      "stateMutability": "view",
      "type": "function"
    },
    {
      "inputs": [
        {
          "internalType": "enum AMM",
          "name": "amm",
          "type": "uint8"
        },
        {
          "internalType": "uint256",
          "name": "inAmount",
          "type": "uint256"
        },
        {
          "internalType": "address[]",
          "name": "path",
          "type": "address[]"
        }
      ],
      "name": "getAmountsOut",
      "outputs": [
        {
          "internalType": "uint256[]",
          "name": "",
          "type": "uint256[]"
        }
      ],
      "stateMutability": "view",
      "type": "function"
    },
    {
      "inputs": [],
      "name": "roles",
      "outputs": [
        {
          "internalType": "contract Roles",
          "name": "",
          "type": "address"
        }
      ],
      "stateMutability": "view",
      "type": "function"
    }
  ],
  "bytecode": "0x60806040523480156200001157600080fd5b5060405162003858380380620038588339810160408190526200003491620000e9565b600080546001600160a01b03199081166001600160a01b03938416178255600160208190527fa6eef7e35abe7026729641147f7915573c7e97b47efa546f5f6e3230263bcb4980548316978516979097179096559490527fcc69885fda6bcc1a4ace058b4a62bf5e179ea78fd58a1ccd71c22cc9b688792f805485169382169390931790925560028054909316911617905562000145565b80516001600160a01b0381168114620000e457600080fd5b919050565b60008060008060808587031215620000ff578384fd5b6200010a85620000cc565b93506200011a60208601620000cc565b92506200012a60408601620000cc565b91506200013a60608601620000cc565b905092959194509250565b61370380620001556000396000f3fe6080604052600436106101c25760003560e01c80635c275a39116100f7578063a5f9a36211610095578063d5d7ed7f11610064578063d5d7ed7f14610451578063e3e0626b14610466578063eaa095f814610486578063eedb97c7146104a6576101c2565b8063a5f9a362146103f2578063a94c7c3414610412578063a9cc053614610427578063cacf8d451461043c576101c2565b806383a49c7c116100d157806383a49c7c146103a057806390b931ed146103b557806394427b20146103d5578063a0098d69146103dd576101c2565b80635c275a3914610361578063669419841461037657806381ca66001461038b576101c2565b80632a0acc6a11610164578063392f5f641161013e578063392f5f64146102f557806346b887961461031757806348eb4f3e1461032c57806348fb27b81461034c576101c2565b80632a0acc6a146102b65780632fe94def146102cb57806332fe7b26146102e0576101c2565b80631bc5d81d116101a05780631bc5d81d146102415780631dce3baa146102565780631f2a6743146102765780632233c43614610296576101c2565b8063065d570f146101c75780630aa29f1c146101f25780631306d9021461021f575b600080fd5b3480156101d357600080fd5b506101dc6104c6565b6040516101e99190613493565b60405180910390f35b3480156101fe57600080fd5b5061021261020d366004612d0b565b6104cb565b6040516101e99190612fb0565b34801561022b57600080fd5b5061023f61023a366004612c68565b6105c9565b005b34801561024d57600080fd5b506101dc61085e565b34801561026257600080fd5b5061023f610271366004612e2d565b610863565b34801561028257600080fd5b50610212610291366004612d0b565b6109a9565b3480156102a257600080fd5b506102126102b1366004612d71565b610a92565b3480156102c257600080fd5b506101dc610eb5565b3480156102d757600080fd5b506101dc610eba565b3480156102ec57600080fd5b506101dc610ebf565b34801561030157600080fd5b5061030a610ec4565b6040516101e99190612ff4565b34801561032357600080fd5b506101dc610ee0565b34801561033857600080fd5b5061023f610347366004612c68565b610ee5565b34801561035857600080fd5b506101dc61100c565b34801561036d57600080fd5b506101dc611011565b34801561038257600080fd5b506101dc611016565b34801561039757600080fd5b506101dc61101b565b3480156103ac57600080fd5b506101dc611020565b3480156103c157600080fd5b506102126103d0366004612cb3565b611025565b61023f611117565b3480156103e957600080fd5b506101dc611372565b3480156103fe57600080fd5b5061021261040d366004612d71565b611377565b34801561041e57600080fd5b506101dc6116c7565b34801561043357600080fd5b506101dc6116cc565b34801561044857600080fd5b506101dc6116d1565b34801561045d57600080fd5b506101dc6116d6565b34801561047257600080fd5b5061023f610481366004612c68565b6116db565b34801561049257600080fd5b506102126104a1366004612cb3565b61185a565b3480156104b257600080fd5b5061023f6104c1366004612c68565b611942565b600381565b60606104d633611a33565b610515576040517f08c379a000000000000000000000000000000000000000000000000000000000815260040161050c90613072565b60405180910390fd5b6105bd60016000886003811115610555577f4e487b7100000000000000000000000000000000000000000000000000000000600052602160045260246000fd5b600381111561058d577f4e487b7100000000000000000000000000000000000000000000000000000000600052602160045260246000fd5b815260208101919091526040016000205473ffffffffffffffffffffffffffffffffffffffff1686868686611ae5565b90505b95945050505050565b333214610602576040517f08c379a000000000000000000000000000000000000000000000000000000000815260040161050c90613015565b61060a611df6565b73ffffffffffffffffffffffffffffffffffffffff1663b3db428b3384846040518463ffffffff1660e01b815260040161064693929190612f59565b602060405180830381600087803b15801561066057600080fd5b505af1158015610674573d6000803e3d6000fd5b505050506040513d601f19601f820116820180604052508101906106989190612c93565b6106ce576040517f08c379a000000000000000000000000000000000000000000000000000000000815260040161050c906132b1565b60006106d8611ea3565b73ffffffffffffffffffffffffffffffffffffffff166352a664d93385856040518463ffffffff1660e01b815260040161071493929190612f59565b602060405180830381600087803b15801561072e57600080fd5b505af1158015610742573d6000803e3d6000fd5b505050506040513d601f19601f820116820180604052508101906107669190612e45565b9050801561085957610776611ea3565b73ffffffffffffffffffffffffffffffffffffffff1663b25777ad3385846040518463ffffffff1660e01b81526004016107b293929190612f59565b600060405180830381600087803b1580156107cc57600080fd5b505af11580156107e0573d6000803e3d6000fd5b505050506107ec611efb565b73ffffffffffffffffffffffffffffffffffffffff16632a6a897b84836040518363ffffffff1660e01b8152600401610826929190612f8a565b600060405180830381600087803b15801561084057600080fd5b505af1158015610854573d6000803e3d6000fd5b505050505b505050565b600881565b33321461089c576040517f08c379a000000000000000000000000000000000000000000000000000000000815260040161050c90613015565b6108a4611ea3565b6002546040517fd0eb665300000000000000000000000000000000000000000000000000000000815273ffffffffffffffffffffffffffffffffffffffff9283169263d0eb665392610900923392909116908690600401612f59565b600060405180830381600087803b15801561091a57600080fd5b505af115801561092e573d6000803e3d6000fd5b5050505061093a611df6565b73ffffffffffffffffffffffffffffffffffffffff16634782f77933836040518363ffffffff1660e01b8152600401610974929190612f8a565b600060405180830381600087803b15801561098e57600080fd5b505af11580156109a2573d6000803e3d6000fd5b5050505050565b60606109b433611a33565b6109ea576040517f08c379a000000000000000000000000000000000000000000000000000000000815260040161050c90613072565b6105bd60016000886003811115610a2a577f4e487b7100000000000000000000000000000000000000000000000000000000600052602160045260246000fd5b6003811115610a62577f4e487b7100000000000000000000000000000000000000000000000000000000600052602160045260246000fd5b815260208101919091526040016000205473ffffffffffffffffffffffffffffffffffffffff1686868686611f53565b6060333214610acd576040517f08c379a000000000000000000000000000000000000000000000000000000000815260040161050c90613015565b8142811015610b08576040517f08c379a000000000000000000000000000000000000000000000000000000000815260040161050c906130cf565b6000610b12612010565b73ffffffffffffffffffffffffffffffffffffffff166367cbf42d8787610b3a6001826135f7565b818110610b70577f4e487b7100000000000000000000000000000000000000000000000000000000600052603260045260246000fd5b9050602002016020810190610b859190612c29565b8a6040518363ffffffff1660e01b8152600401610ba3929190612f8a565b602060405180830381600087803b158015610bbd57600080fd5b505af1158015610bd1573d6000803e3d6000fd5b505050506040513d601f19601f82011682018060405250810190610bf59190612e45565b9050610ca8600160008b6003811115610c37577f4e487b7100000000000000000000000000000000000000000000000000000000600052602160045260246000fd5b6003811115610c6f577f4e487b7100000000000000000000000000000000000000000000000000000000600052602160045260246000fd5b815260208101919091526040016000205473ffffffffffffffffffffffffffffffffffffffff16610ca0838b613569565b898989611f53565b925060008686610cb96001826135f7565b818110610cef577f4e487b7100000000000000000000000000000000000000000000000000000000600052603260045260246000fd5b9050602002016020810190610d049190612c29565b90506000610d10611ea3565b73ffffffffffffffffffffffffffffffffffffffff16633500aa0b338a8a6000818110610d66577f4e487b7100000000000000000000000000000000000000000000000000000000600052603260045260246000fd5b9050602002016020810190610d7b9190612c29565b8589600081518110610db6577f4e487b7100000000000000000000000000000000000000000000000000000000600052603260045260246000fd5b60200260200101518f6040518663ffffffff1660e01b8152600401610ddf959493929190612f18565b602060405180830381600087803b158015610df957600080fd5b505af1158015610e0d573d6000803e3d6000fd5b505050506040513d601f19601f82011682018060405250810190610e319190612e45565b9050610e3b611efb565b73ffffffffffffffffffffffffffffffffffffffff1663ee0862bf83836040518363ffffffff1660e01b8152600401610e75929190612f8a565b600060405180830381600087803b158015610e8f57600080fd5b505af1158015610ea3573d6000803e3d6000fd5b50505050505050509695505050505050565b606b81565b606981565b606781565b60005473ffffffffffffffffffffffffffffffffffffffff1681565b600681565b333214610f1e576040517f08c379a000000000000000000000000000000000000000000000000000000000815260040161050c90613015565b610f26611ea3565b73ffffffffffffffffffffffffffffffffffffffff1663b25777ad3384846040518463ffffffff1660e01b8152600401610f6293929190612f59565b600060405180830381600087803b158015610f7c57600080fd5b505af1158015610f90573d6000803e3d6000fd5b50505050610f9c611efb565b73ffffffffffffffffffffffffffffffffffffffff16632a6a897b83836040518363ffffffff1660e01b8152600401610fd6929190612f8a565b600060405180830381600087803b158015610ff057600080fd5b505af1158015611004573d6000803e3d6000fd5b505050505050565b606681565b606581565b600181565b606a81565b600981565b6060600060016000876003811115611066577f4e487b7100000000000000000000000000000000000000000000000000000000600052602160045260246000fd5b600381111561109e577f4e487b7100000000000000000000000000000000000000000000000000000000600052602160045260246000fd5b815260200190815260200160002060009054906101000a900473ffffffffffffffffffffffffffffffffffffffff16905061110d818686868080602002602001604051908101604052809392919081815260200183836020028082843760009201919091525061206892505050565b9695505050505050565b333214611150576040517f08c379a000000000000000000000000000000000000000000000000000000000815260040161050c90613015565b611158611df6565b73ffffffffffffffffffffffffffffffffffffffff1663a6a5f9fe346040518263ffffffff1660e01b81526004016000604051808303818588803b15801561119f57600080fd5b505af11580156111b3573d6000803e3d6000fd5b505050505060006111c2611ea3565b6002546040517f52a664d900000000000000000000000000000000000000000000000000000000815273ffffffffffffffffffffffffffffffffffffffff928316926352a664d99261121e923392909116903490600401612f59565b602060405180830381600087803b15801561123857600080fd5b505af115801561124c573d6000803e3d6000fd5b505050506040513d601f19601f820116820180604052508101906112709190612e45565b9050801561136f57611280611ea3565b6002546040517fb25777ad00000000000000000000000000000000000000000000000000000000815273ffffffffffffffffffffffffffffffffffffffff9283169263b25777ad926112dc923392909116908690600401612f59565b600060405180830381600087803b1580156112f657600080fd5b505af115801561130a573d6000803e3d6000fd5b50505050611316611efb565b6002546040517f2a6a897b00000000000000000000000000000000000000000000000000000000815273ffffffffffffffffffffffffffffffffffffffff92831692632a6a897b92610974929116908590600401612f8a565b50565b600281565b60603332146113b2576040517f08c379a000000000000000000000000000000000000000000000000000000000815260040161050c90613015565b81428110156113ed576040517f08c379a000000000000000000000000000000000000000000000000000000000815260040161050c906130cf565b60006113f7612010565b73ffffffffffffffffffffffffffffffffffffffff16633f0e9edf8787600081811061144c577f4e487b7100000000000000000000000000000000000000000000000000000000600052603260045260246000fd5b90506020020160208101906114619190612c29565b8a6040518363ffffffff1660e01b815260040161147f929190612f8a565b602060405180830381600087803b15801561149957600080fd5b505af11580156114ad573d6000803e3d6000fd5b505050506040513d601f19601f820116820180604052508101906114d19190612e45565b9050611584600160008b6003811115611513577f4e487b7100000000000000000000000000000000000000000000000000000000600052602160045260246000fd5b600381111561154b577f4e487b7100000000000000000000000000000000000000000000000000000000600052602160045260246000fd5b815260208101919091526040016000205473ffffffffffffffffffffffffffffffffffffffff1661157c838b6135f7565b898989611ae5565b9250600086866115956001826135f7565b8181106115cb577f4e487b7100000000000000000000000000000000000000000000000000000000600052603260045260246000fd5b90506020020160208101906115e09190612c29565b905060006115ec611ea3565b73ffffffffffffffffffffffffffffffffffffffff16633500aa0b338a8a6000818110611642577f4e487b7100000000000000000000000000000000000000000000000000000000600052603260045260246000fd5b90506020020160208101906116579190612c29565b858e8a60018c5161166891906135f7565b8151811061169f577f4e487b7100000000000000000000000000000000000000000000000000000000600052603260045260246000fd5b60200260200101516040518663ffffffff1660e01b8152600401610ddf959493929190612f18565b600581565b606881565b600481565b600781565b333214611714576040517f08c379a000000000000000000000000000000000000000000000000000000000815260040161050c90613015565b61171c611ea3565b73ffffffffffffffffffffffffffffffffffffffff1663d0eb66533384846040518463ffffffff1660e01b815260040161175893929190612f59565b600060405180830381600087803b15801561177257600080fd5b505af1158015611786573d6000803e3d6000fd5b50505050611792611df6565b73ffffffffffffffffffffffffffffffffffffffff1663d9caed128333846040518463ffffffff1660e01b81526004016117ce93929190612f59565b602060405180830381600087803b1580156117e857600080fd5b505af11580156117fc573d6000803e3d6000fd5b505050506040513d601f19601f820116820180604052508101906118209190612c93565b611856576040517f08c379a000000000000000000000000000000000000000000000000000000000815260040161050c9061330e565b5050565b606060006001600087600381111561189b577f4e487b7100000000000000000000000000000000000000000000000000000000600052602160045260246000fd5b60038111156118d3577f4e487b7100000000000000000000000000000000000000000000000000000000600052602160045260246000fd5b815260200190815260200160002060009054906101000a900473ffffffffffffffffffffffffffffffffffffffff16905061110d81868686808060200260200160405190810160405280939291908181526020018383602002808284376000920191909152506122d292505050565b33321461197b576040517f08c379a000000000000000000000000000000000000000000000000000000000815260040161050c90613015565b611983611efb565b73ffffffffffffffffffffffffffffffffffffffff1663ee0862bf83836040518363ffffffff1660e01b81526004016119bd929190612f8a565b600060405180830381600087803b1580156119d757600080fd5b505af11580156119eb573d6000803e3d6000fd5b505050506119f7611ea3565b73ffffffffffffffffffffffffffffffffffffffff1663498d55eb3384846040518463ffffffff1660e01b8152600401610fd693929190612f59565b600080546040517fd87fefd200000000000000000000000000000000000000000000000000000000815273ffffffffffffffffffffffffffffffffffffffff9091169063d87fefd290611a8d9060079086906004016134a2565b60206040518083038186803b158015611aa557600080fd5b505afa158015611ab9573d6000803e3d6000fd5b505050506040513d601f19601f82011682018060405250810190611add9190612c93565b90505b919050565b6060611b2586868585808060200260200160405190810160405280939291908181526020018383602002808284376000920191909152506122d292505050565b9050838160018351611b3791906135f7565b81518110611b6e577f4e487b7100000000000000000000000000000000000000000000000000000000600052603260045260246000fd5b60200260200101511015611bae576040517f08c379a000000000000000000000000000000000000000000000000000000000815260040161050c90613436565b611bb6611df6565b73ffffffffffffffffffffffffffffffffffffffff1663d9caed1284846000818110611c0b577f4e487b7100000000000000000000000000000000000000000000000000000000600052603260045260246000fd5b9050602002016020810190611c209190612c29565b611cc78987876000818110611c5e577f4e487b7100000000000000000000000000000000000000000000000000000000600052603260045260246000fd5b9050602002016020810190611c739190612c29565b88886001818110611cad577f4e487b7100000000000000000000000000000000000000000000000000000000600052603260045260246000fd5b9050602002016020810190611cc29190612c29565b61251c565b84600081518110611d01577f4e487b7100000000000000000000000000000000000000000000000000000000600052603260045260246000fd5b60200260200101516040518463ffffffff1660e01b8152600401611d2793929190612f59565b602060405180830381600087803b158015611d4157600080fd5b505af1158015611d55573d6000803e3d6000fd5b505050506040513d601f19601f82011682018060405250810190611d799190612c93565b611daf576040517f08c379a000000000000000000000000000000000000000000000000000000000815260040161050c906131c0565b6105c08682858580806020026020016040519081016040528093929190818152602001838360200280828437600092019190915250611df19250611df6915050565b61258e565b600080546040517f3c9c8f9c00000000000000000000000000000000000000000000000000000000815273ffffffffffffffffffffffffffffffffffffffff90911690633c9c8f9c90611e4e90606590600401613493565b60206040518083038186803b158015611e6657600080fd5b505afa158015611e7a573d6000803e3d6000fd5b505050506040513d601f19601f82011682018060405250810190611e9e9190612c4c565b905090565b600080546040517f3c9c8f9c00000000000000000000000000000000000000000000000000000000815273ffffffffffffffffffffffffffffffffffffffff90911690633c9c8f9c90611e4e90606890600401613493565b600080546040517f3c9c8f9c00000000000000000000000000000000000000000000000000000000815273ffffffffffffffffffffffffffffffffffffffff90911690633c9c8f9c90611e4e90606690600401613493565b6060611f93868685858080602002602001604051908101604052809392919081815260200183836020028082843760009201919091525061206892505050565b90508381600081518110611fd0577f4e487b7100000000000000000000000000000000000000000000000000000000600052603260045260246000fd5b60200260200101511115611bae576040517f08c379a000000000000000000000000000000000000000000000000000000000815260040161050c90613345565b600080546040517f3c9c8f9c00000000000000000000000000000000000000000000000000000000815273ffffffffffffffffffffffffffffffffffffffff90911690633c9c8f9c90611e4e90606990600401613493565b60606002825110156120a6576040517f08c379a000000000000000000000000000000000000000000000000000000000815260040161050c9061321d565b815167ffffffffffffffff8111156120e7577f4e487b7100000000000000000000000000000000000000000000000000000000600052604160045260246000fd5b604051908082528060200260200182016040528015612110578160200160208202803683370190505b50905082816001835161212391906135f7565b8151811061215a577f4e487b7100000000000000000000000000000000000000000000000000000000600052603260045260246000fd5b60200260200101818152505060006001835161217691906135f7565b90505b80156122ca5760008061221787866121926001876135f7565b815181106121c9577f4e487b7100000000000000000000000000000000000000000000000000000000600052603260045260246000fd5b602002602001015187868151811061220a577f4e487b7100000000000000000000000000000000000000000000000000000000600052603260045260246000fd5b6020026020010151612813565b91509150612266848481518110612257577f4e487b7100000000000000000000000000000000000000000000000000000000600052603260045260246000fd5b60200260200101518383612921565b846122726001866135f7565b815181106122a9577f4e487b7100000000000000000000000000000000000000000000000000000000600052603260045260246000fd5b602002602001018181525050505080806122c29061360e565b915050612179565b509392505050565b6060600282511015612310576040517f08c379a000000000000000000000000000000000000000000000000000000000815260040161050c9061321d565b815167ffffffffffffffff811115612351577f4e487b7100000000000000000000000000000000000000000000000000000000600052604160045260246000fd5b60405190808252806020026020018201604052801561237a578160200160208202803683370190505b50905082816000815181106123b8577f4e487b7100000000000000000000000000000000000000000000000000000000600052603260045260246000fd5b60200260200101818152505060005b600183516123d591906135f7565b8110156122ca576000806124698786858151811061241c577f4e487b7100000000000000000000000000000000000000000000000000000000600052603260045260246000fd5b6020026020010151878660016124329190613569565b8151811061220a577f4e487b7100000000000000000000000000000000000000000000000000000000600052603260045260246000fd5b915091506124b88484815181106124a9577f4e487b7100000000000000000000000000000000000000000000000000000000600052603260045260246000fd5b602002602001015183836129ec565b846124c4856001613569565b815181106124fb577f4e487b7100000000000000000000000000000000000000000000000000000000600052603260045260246000fd5b6020026020010181815250505050808061251490613643565b9150506123c7565b600080600061252b8585612abb565b91509150858282604051602001612543929190612e5d565b6040516020818303038152906040528051906020012060405160200161256a929190612e97565b6040516020818303038152906040528051906020012060601c925050509392505050565b60005b6001835161259f91906135f7565b8110156109a2576000808483815181106125e2577f4e487b7100000000000000000000000000000000000000000000000000000000600052603260045260246000fd5b6020026020010151858460016125f89190613569565b8151811061262f577f4e487b7100000000000000000000000000000000000000000000000000000000600052603260045260246000fd5b60200260200101519150915060006126478383612abb565b509050600087612658866001613569565b8151811061268f577f4e487b7100000000000000000000000000000000000000000000000000000000600052603260045260246000fd5b602002602001015190506000808373ffffffffffffffffffffffffffffffffffffffff168673ffffffffffffffffffffffffffffffffffffffff16146126d7578260006126db565b6000835b91509150600060028a516126ef91906135f7565b88106126fb5788612750565b6127508c878c61270c8c6002613569565b81518110612743577f4e487b7100000000000000000000000000000000000000000000000000000000600052603260045260246000fd5b602002602001015161251c565b905061275d8c888861251c565b73ffffffffffffffffffffffffffffffffffffffff1663022c0d9f84848460006040519080825280601f01601f1916602001820160405280156127a7576020820181803683370190505b506040518563ffffffff1660e01b81526004016127c794939291906134cc565b600060405180830381600087803b1580156127e157600080fd5b505af11580156127f5573d6000803e3d6000fd5b5050505050505050505050808061280b90613643565b915050612591565b60008060006128228585612abb565b50905060008061283388888861251c565b73ffffffffffffffffffffffffffffffffffffffff16630902f1ac6040518163ffffffff1660e01b815260040160606040518083038186803b15801561287857600080fd5b505afa15801561288c573d6000803e3d6000fd5b505050506040513d601f19601f820116820180604052508101906128b09190612ddf565b506dffffffffffffffffffffffffffff1691506dffffffffffffffffffffffffffff1691508273ffffffffffffffffffffffffffffffffffffffff168773ffffffffffffffffffffffffffffffffffffffff161461290f578082612912565b81815b90999098509650505050505050565b600080841161295c576040517f08c379a000000000000000000000000000000000000000000000000000000000815260040161050c90613106565b60008311801561296c5750600082115b6129a2576040517f08c379a000000000000000000000000000000000000000000000000000000000815260040161050c90613254565b60006129ae85856135ba565b6129ba906103e86135ba565b905060006103e56129cb87866135f7565b6129d591906135f7565b90506129e18183613581565b61110d906001613569565b6000808411612a27576040517f08c379a000000000000000000000000000000000000000000000000000000000815260040161050c906133d9565b600083118015612a375750600082115b612a6d576040517f08c379a000000000000000000000000000000000000000000000000000000000815260040161050c90613254565b6000612a7b856103e56135ba565b90506000612a8984836135ba565b9050600082612a9a876103e86135ba565b612aa49190613569565b9050612ab08183613581565b979650505050505050565b6000808273ffffffffffffffffffffffffffffffffffffffff168473ffffffffffffffffffffffffffffffffffffffff161415612b24576040517f08c379a000000000000000000000000000000000000000000000000000000000815260040161050c90613163565b8273ffffffffffffffffffffffffffffffffffffffff168473ffffffffffffffffffffffffffffffffffffffff1610612b5e578284612b61565b83835b909250905073ffffffffffffffffffffffffffffffffffffffff8216612bb3576040517f08c379a000000000000000000000000000000000000000000000000000000000815260040161050c906133a2565b9250929050565b60008083601f840112612bcb578182fd5b50813567ffffffffffffffff811115612be2578182fd5b6020830191508360208083028501011115612bb357600080fd5b803560048110611ae057600080fd5b80516dffffffffffffffffffffffffffff81168114611ae057600080fd5b600060208284031215612c3a578081fd5b8135612c45816136ab565b9392505050565b600060208284031215612c5d578081fd5b8151612c45816136ab565b60008060408385031215612c7a578081fd5b8235612c85816136ab565b946020939093013593505050565b600060208284031215612ca4578081fd5b81518015158114612c45578182fd5b60008060008060608587031215612cc8578182fd5b612cd185612bfc565b935060208501359250604085013567ffffffffffffffff811115612cf3578283fd5b612cff87828801612bba565b95989497509550505050565b600080600080600060808688031215612d22578081fd5b612d2b86612bfc565b94506020860135935060408601359250606086013567ffffffffffffffff811115612d54578182fd5b612d6088828901612bba565b969995985093965092949392505050565b60008060008060008060a08789031215612d89578081fd5b612d9287612bfc565b95506020870135945060408701359350606087013567ffffffffffffffff811115612dbb578182fd5b612dc789828a01612bba565b979a9699509497949695608090950135949350505050565b600080600060608486031215612df3578283fd5b612dfc84612c0b565b9250612e0a60208501612c0b565b9150604084015163ffffffff81168114612e22578182fd5b809150509250925092565b600060208284031215612e3e578081fd5b5035919050565b600060208284031215612e56578081fd5b5051919050565b7fffffffffffffffffffffffffffffffffffffffff000000000000000000000000606093841b811682529190921b16601482015260280190565b7fff00000000000000000000000000000000000000000000000000000000000000815260609290921b7fffffffffffffffffffffffffffffffffffffffff00000000000000000000000016600183015260158201527f96e8ac4277198ff8b6f785478aa9a39f403cb768dd02cbee326c3e7da348845f603582015260550190565b73ffffffffffffffffffffffffffffffffffffffff958616815293851660208501529190931660408301526060820192909252608081019190915260a00190565b73ffffffffffffffffffffffffffffffffffffffff9384168152919092166020820152604081019190915260600190565b73ffffffffffffffffffffffffffffffffffffffff929092168252602082015260400190565b6020808252825182820181905260009190848201906040850190845b81811015612fe857835183529284019291840191600101612fcc565b50909695505050505050565b73ffffffffffffffffffffffffffffffffffffffff91909116815260200190565b6020808252603a908201527f43757272656e746c79206e6f20696e7465726d656469617269657320616c6c6f60408201527f77656420666f7220746869732066756e6374696f6e2063616c6c000000000000606082015260800190565b6020808252603e908201527f43616c6c696e6720636f6e7472616374206973206e6f7420617574686f72697a60408201527f656420746f20747261646520776974682070726f746f636c2066756e64730000606082015260800190565b60208082526018908201527f556e69737761705632526f757465723a20455850495245440000000000000000604082015260600190565b6020808252602c908201527f556e697377617056324c6962726172793a20494e53554646494349454e545f4f60408201527f55545055545f414d4f554e540000000000000000000000000000000000000000606082015260800190565b60208082526025908201527f556e697377617056324c6962726172793a204944454e544943414c5f4144445260408201527f4553534553000000000000000000000000000000000000000000000000000000606082015260800190565b60208082526028908201527f4d617267696e526f757465723a20496e73756666696369656e74206c656e646960408201527f6e672066756e6473000000000000000000000000000000000000000000000000606082015260800190565b6020808252601e908201527f556e697377617056324c6962726172793a20494e56414c49445f504154480000604082015260600190565b60208082526028908201527f556e697377617056324c6962726172793a20494e53554646494349454e545f4c60408201527f4951554944495459000000000000000000000000000000000000000000000000606082015260800190565b60208082526029908201527f43616e6e6f74207472616e73666572206465706f73697420746f206d6172676960408201527f6e206163636f756e740000000000000000000000000000000000000000000000606082015260800190565b6020808252601c908201527f436f756c64206e6f742077697468647261772066726f6d2066756e6400000000604082015260600190565b60208082526027908201527f556e69737761705632526f757465723a204558434553534956455f494e50555460408201527f5f414d4f554e5400000000000000000000000000000000000000000000000000606082015260800190565b6020808252601e908201527f556e697377617056324c6962726172793a205a45524f5f414444524553530000604082015260600190565b6020808252602b908201527f556e697377617056324c6962726172793a20494e53554646494349454e545f4960408201527f4e5055545f414d4f554e54000000000000000000000000000000000000000000606082015260800190565b60208082526028908201527f4d617267696e526f757465723a20494e53554646494349454e545f4f5554505560408201527f545f414d4f554e54000000000000000000000000000000000000000000000000606082015260800190565b61ffff91909116815260200190565b61ffff92909216825273ffffffffffffffffffffffffffffffffffffffff16602082015260400190565b60008582526020858184015273ffffffffffffffffffffffffffffffffffffffff85166040840152608060608401528351806080850152825b818110156135215785810183015185820160a001528201613505565b81811115613532578360a083870101525b50601f017fffffffffffffffffffffffffffffffffffffffffffffffffffffffffffffffe0169290920160a0019695505050505050565b6000821982111561357c5761357c61367c565b500190565b6000826135b5577f4e487b710000000000000000000000000000000000000000000000000000000081526012600452602481fd5b500490565b6000817fffffffffffffffffffffffffffffffffffffffffffffffffffffffffffffffff04831182151516156135f2576135f261367c565b500290565b6000828210156136095761360961367c565b500390565b60008161361d5761361d61367c565b507fffffffffffffffffffffffffffffffffffffffffffffffffffffffffffffffff0190565b60007fffffffffffffffffffffffffffffffffffffffffffffffffffffffffffffffff8214156136755761367561367c565b5060010190565b7f4e487b7100000000000000000000000000000000000000000000000000000000600052601160045260246000fd5b73ffffffffffffffffffffffffffffffffffffffff8116811461136f57600080fdfea264697066735822122081eba8cfdf9688c3bee81ba16cb561ff9164b2f07fb8c3dfad6cf272f7d6aab764736f6c63430008010033",
  "linkReferences": {},
  "deployedLinkReferences": {}
}