{
  "_format": "hh-sol-artifact-1",
  "contractName": "MarginRouter",
  "sourceName": "contracts/MarginRouter.sol",
  "abi": [
    {
      "inputs": [
        {
          "internalType": "address",
          "name": "uniswapFactory",
          "type": "address"
        },
        {
          "internalType": "address",
          "name": "sushiswapFactory",
          "type": "address"
        },
        {
          "internalType": "address",
          "name": "_WETH",
          "type": "address"
        },
        {
          "internalType": "address",
          "name": "_roles",
          "type": "address"
        }
      ],
      "stateMutability": "nonpayable",
      "type": "constructor"
    },
    {
      "inputs": [],
      "name": "ADMIN",
      "outputs": [
        {
          "internalType": "uint16",
          "name": "",
          "type": "uint16"
        }
      ],
      "stateMutability": "view",
      "type": "function"
    },
    {
      "inputs": [],
      "name": "AUTHORIZED_FUND_TRADER",
      "outputs": [
        {
          "internalType": "uint16",
          "name": "",
          "type": "uint16"
        }
      ],
      "stateMutability": "view",
      "type": "function"
    },
    {
      "inputs": [],
      "name": "BORROWER",
      "outputs": [
        {
          "internalType": "uint16",
          "name": "",
          "type": "uint16"
        }
      ],
      "stateMutability": "view",
      "type": "function"
    },
    {
      "inputs": [],
      "name": "FEE_CONTROLLER",
      "outputs": [
        {
          "internalType": "uint16",
          "name": "",
          "type": "uint16"
        }
      ],
      "stateMutability": "view",
      "type": "function"
    },
    {
      "inputs": [],
      "name": "FEE_SOURCE",
      "outputs": [
        {
          "internalType": "uint16",
          "name": "",
          "type": "uint16"
        }
      ],
      "stateMutability": "view",
      "type": "function"
    },
    {
      "inputs": [],
      "name": "FUND",
      "outputs": [
        {
          "internalType": "uint16",
          "name": "",
          "type": "uint16"
        }
      ],
      "stateMutability": "view",
      "type": "function"
    },
    {
      "inputs": [],
      "name": "INCENTIVE_DISTRIBUTION",
      "outputs": [
        {
          "internalType": "uint16",
          "name": "",
          "type": "uint16"
        }
      ],
      "stateMutability": "view",
      "type": "function"
    },
    {
      "inputs": [],
      "name": "INCENTIVE_REPORTER",
      "outputs": [
        {
          "internalType": "uint16",
          "name": "",
          "type": "uint16"
        }
      ],
      "stateMutability": "view",
      "type": "function"
    },
    {
      "inputs": [],
      "name": "LENDING",
      "outputs": [
        {
          "internalType": "uint16",
          "name": "",
          "type": "uint16"
        }
      ],
      "stateMutability": "view",
      "type": "function"
    },
    {
      "inputs": [],
      "name": "LIQUIDATOR",
      "outputs": [
        {
          "internalType": "uint16",
          "name": "",
          "type": "uint16"
        }
      ],
      "stateMutability": "view",
      "type": "function"
    },
    {
      "inputs": [],
      "name": "MARGIN_CALLER",
      "outputs": [
        {
          "internalType": "uint16",
          "name": "",
          "type": "uint16"
        }
      ],
      "stateMutability": "view",
      "type": "function"
    },
    {
      "inputs": [],
      "name": "MARGIN_TRADER",
      "outputs": [
        {
          "internalType": "uint16",
          "name": "",
          "type": "uint16"
        }
      ],
      "stateMutability": "view",
      "type": "function"
    },
    {
      "inputs": [],
      "name": "MARGIN_TRADING",
      "outputs": [
        {
          "internalType": "uint16",
          "name": "",
          "type": "uint16"
        }
      ],
      "stateMutability": "view",
      "type": "function"
    },
    {
      "inputs": [],
      "name": "PRICE_CONTROLLER",
      "outputs": [
        {
          "internalType": "uint16",
          "name": "",
          "type": "uint16"
        }
      ],
      "stateMutability": "view",
      "type": "function"
    },
    {
      "inputs": [],
      "name": "ROUTER",
      "outputs": [
        {
          "internalType": "uint16",
          "name": "",
          "type": "uint16"
        }
      ],
      "stateMutability": "view",
      "type": "function"
    },
    {
      "inputs": [],
      "name": "TOKEN_ACTIVATOR",
      "outputs": [
        {
          "internalType": "uint16",
          "name": "",
          "type": "uint16"
        }
      ],
      "stateMutability": "view",
      "type": "function"
    },
    {
      "inputs": [],
      "name": "WITHDRAWER",
      "outputs": [
        {
          "internalType": "uint16",
          "name": "",
          "type": "uint16"
        }
      ],
      "stateMutability": "view",
      "type": "function"
    },
    {
      "inputs": [
        {
          "internalType": "enum AMM",
          "name": "amm",
          "type": "uint8"
        },
        {
          "internalType": "uint256",
          "name": "amountIn",
          "type": "uint256"
        },
        {
          "internalType": "uint256",
          "name": "amountOutMin",
          "type": "uint256"
        },
        {
          "internalType": "address[]",
          "name": "path",
          "type": "address[]"
        }
      ],
      "name": "authorizedSwapExactT4T",
      "outputs": [
        {
          "internalType": "uint256[]",
          "name": "",
          "type": "uint256[]"
        }
      ],
      "stateMutability": "nonpayable",
      "type": "function"
    },
    {
      "inputs": [
        {
          "internalType": "enum AMM",
          "name": "amm",
          "type": "uint8"
        },
        {
          "internalType": "uint256",
          "name": "amountOut",
          "type": "uint256"
        },
        {
          "internalType": "uint256",
          "name": "amountInMax",
          "type": "uint256"
        },
        {
          "internalType": "address[]",
          "name": "path",
          "type": "address[]"
        }
      ],
      "name": "authorizedSwapT4ExactT",
      "outputs": [
        {
          "internalType": "uint256[]",
          "name": "",
          "type": "uint256[]"
        }
      ],
      "stateMutability": "nonpayable",
      "type": "function"
    },
    {
      "inputs": [
        {
          "internalType": "address",
          "name": "",
          "type": "address"
        }
      ],
      "name": "borrowIncentiveTranches",
      "outputs": [
        {
          "internalType": "uint8",
          "name": "",
          "type": "uint8"
        }
      ],
      "stateMutability": "view",
      "type": "function"
    },
    {
      "inputs": [
        {
          "internalType": "address",
          "name": "borrowToken",
          "type": "address"
        },
        {
          "internalType": "uint256",
          "name": "borrowAmount",
          "type": "uint256"
        }
      ],
      "name": "crossBorrow",
      "outputs": [],
      "stateMutability": "nonpayable",
      "type": "function"
    },
    {
      "inputs": [
        {
          "internalType": "address",
          "name": "depositToken",
          "type": "address"
        },
        {
          "internalType": "uint256",
          "name": "depositAmount",
          "type": "uint256"
        }
      ],
      "name": "crossDeposit",
      "outputs": [],
      "stateMutability": "nonpayable",
      "type": "function"
    },
    {
      "inputs": [],
      "name": "crossDepositETH",
      "outputs": [],
      "stateMutability": "payable",
      "type": "function"
    },
    {
      "inputs": [
        {
          "internalType": "enum AMM",
          "name": "amm",
          "type": "uint8"
        },
        {
          "internalType": "uint256",
          "name": "amountIn",
          "type": "uint256"
        },
        {
          "internalType": "uint256",
          "name": "amountOutMin",
          "type": "uint256"
        },
        {
          "internalType": "address[]",
          "name": "path",
          "type": "address[]"
        },
        {
          "internalType": "uint256",
          "name": "deadline",
          "type": "uint256"
        }
      ],
      "name": "crossSwapExactTokensForTokens",
      "outputs": [
        {
          "internalType": "uint256[]",
          "name": "amounts",
          "type": "uint256[]"
        }
      ],
      "stateMutability": "nonpayable",
      "type": "function"
    },
    {
      "inputs": [
        {
          "internalType": "enum AMM",
          "name": "amm",
          "type": "uint8"
        },
        {
          "internalType": "uint256",
          "name": "amountOut",
          "type": "uint256"
        },
        {
          "internalType": "uint256",
          "name": "amountInMax",
          "type": "uint256"
        },
        {
          "internalType": "address[]",
          "name": "path",
          "type": "address[]"
        },
        {
          "internalType": "uint256",
          "name": "deadline",
          "type": "uint256"
        }
      ],
      "name": "crossSwapTokensForExactTokens",
      "outputs": [
        {
          "internalType": "uint256[]",
          "name": "amounts",
          "type": "uint256[]"
        }
      ],
      "stateMutability": "nonpayable",
      "type": "function"
    },
    {
      "inputs": [
        {
          "internalType": "address",
          "name": "withdrawToken",
          "type": "address"
        },
        {
          "internalType": "uint256",
          "name": "withdrawAmount",
          "type": "uint256"
        }
      ],
      "name": "crossWithdraw",
      "outputs": [],
      "stateMutability": "nonpayable",
      "type": "function"
    },
    {
      "inputs": [
        {
          "internalType": "uint256",
          "name": "withdrawAmount",
          "type": "uint256"
        }
      ],
      "name": "crossWithdrawETH",
      "outputs": [],
      "stateMutability": "nonpayable",
      "type": "function"
    },
    {
      "inputs": [
        {
          "internalType": "enum AMM",
          "name": "amm",
          "type": "uint8"
        },
        {
          "internalType": "uint256",
          "name": "outAmount",
          "type": "uint256"
        },
        {
          "internalType": "address[]",
          "name": "path",
          "type": "address[]"
        }
      ],
      "name": "getAmountsIn",
      "outputs": [
        {
          "internalType": "uint256[]",
          "name": "",
          "type": "uint256[]"
        }
      ],
      "stateMutability": "view",
      "type": "function"
    },
    {
      "inputs": [
        {
          "internalType": "enum AMM",
          "name": "amm",
          "type": "uint8"
        },
        {
          "internalType": "uint256",
          "name": "inAmount",
          "type": "uint256"
        },
        {
          "internalType": "address[]",
          "name": "path",
          "type": "address[]"
        }
      ],
      "name": "getAmountsOut",
      "outputs": [
        {
          "internalType": "uint256[]",
          "name": "",
          "type": "uint256[]"
        }
      ],
      "stateMutability": "view",
      "type": "function"
    },
    {
      "inputs": [],
      "name": "roles",
      "outputs": [
        {
          "internalType": "contract Roles",
          "name": "",
          "type": "address"
        }
      ],
      "stateMutability": "view",
      "type": "function"
    },
    {
      "inputs": [
        {
          "internalType": "address",
          "name": "token",
          "type": "address"
        },
        {
          "internalType": "uint8",
          "name": "tranche",
          "type": "uint8"
        }
      ],
      "name": "setBorrowIncentiveTranche",
      "outputs": [],
      "stateMutability": "nonpayable",
      "type": "function"
    }
  ],
  "bytecode": "0x60806040523480156200001157600080fd5b50604051620038da380380620038da8339810160408190526200003491620000e9565b600080546001600160a01b03199081166001600160a01b03938416178255600160208190527fa6eef7e35abe7026729641147f7915573c7e97b47efa546f5f6e3230263bcb4980548316978516979097179096559490527fcc69885fda6bcc1a4ace058b4a62bf5e179ea78fd58a1ccd71c22cc9b688792f805485169382169390931790925560028054909316911617905562000145565b80516001600160a01b0381168114620000e457600080fd5b919050565b60008060008060808587031215620000ff578384fd5b6200010a85620000cc565b93506200011a60208601620000cc565b92506200012a60408601620000cc565b91506200013a60608601620000cc565b905092959194509250565b61378580620001556000396000f3fe6080604052600436106101d85760003560e01c806381ca660011610102578063ade73db911610095578063d5d7ed7f11610064578063d5d7ed7f146104a9578063e3e0626b146104be578063eaa095f8146104de578063eedb97c7146104fe576101d8565b8063ade73db914610432578063b8ca4aeb1461045f578063c76139d01461047f578063cacf8d4514610494576101d8565b8063a0098d69116100d1578063a0098d69146103d3578063a5f9a362146103e8578063a94c7c3414610408578063a9cc05361461041d576101d8565b806381ca66001461038157806383a49c7c1461039657806390b931ed146103ab57806394427b20146103cb576101d8565b80632a0acc6a1161017a57806346b887961161014957806346b887961461032d57806348fb27b8146103425780635c275a3914610357578063669419841461036c576101d8565b80632a0acc6a146102cc5780632fe94def146102e157806332fe7b26146102f6578063392f5f641461030b576101d8565b80631bc5d81d116101b65780631bc5d81d146102575780631dce3baa1461026c5780631f2a67431461028c5780632233c436146102ac576101d8565b8063065d570f146101dd5780630aa29f1c146102085780631306d90214610235575b600080fd5b3480156101e957600080fd5b506101f261051e565b6040516101ff9190613507565b60405180910390f35b34801561021457600080fd5b50610228610223366004612cff565b610523565b6040516101ff9190612fc7565b34801561024157600080fd5b50610255610250366004612c1f565b610621565b005b34801561026357600080fd5b506101f2610840565b34801561027857600080fd5b50610255610287366004612e21565b610845565b34801561029857600080fd5b506102286102a7366004612cff565b61098b565b3480156102b857600080fd5b506102286102c7366004612d65565b610a74565b3480156102d857600080fd5b506101f2610d8b565b3480156102ed57600080fd5b506101f2610d90565b34801561030257600080fd5b506101f2610d95565b34801561031757600080fd5b50610320610d9a565b6040516101ff919061300b565b34801561033957600080fd5b506101f2610db6565b34801561034e57600080fd5b506101f2610dbb565b34801561036357600080fd5b506101f2610dc0565b34801561037857600080fd5b506101f2610dc5565b34801561038d57600080fd5b506101f2610dca565b3480156103a257600080fd5b506101f2610dcf565b3480156103b757600080fd5b506102286103c6366004612ca7565b610dd4565b610255610ec6565b3480156103df57600080fd5b506101f261108b565b3480156103f457600080fd5b50610228610403366004612d65565b611090565b34801561041457600080fd5b506101f261139e565b34801561042957600080fd5b506101f26113a3565b34801561043e57600080fd5b5061045261044d366004612be0565b6113a8565b6040516101ff91906135dd565b34801561046b57600080fd5b5061025561047a366004612c4a565b6113bd565b34801561048b57600080fd5b506101f2611454565b3480156104a057600080fd5b506101f2611459565b3480156104b557600080fd5b506101f261145e565b3480156104ca57600080fd5b506102556104d9366004612c1f565b611463565b3480156104ea57600080fd5b506102286104f9366004612ca7565b6115e2565b34801561050a57600080fd5b50610255610519366004612c1f565b6116ca565b600381565b606061052e336117f1565b61056d576040517f08c379a0000000000000000000000000000000000000000000000000000000008152600401610564906130e6565b60405180910390fd5b610615600160008860038111156105ad577f4e487b7100000000000000000000000000000000000000000000000000000000600052602160045260246000fd5b60038111156105e5577f4e487b7100000000000000000000000000000000000000000000000000000000600052602160045260246000fd5b815260208101919091526040016000205473ffffffffffffffffffffffffffffffffffffffff16868686866118a3565b90505b95945050505050565b33321461065a576040517f08c379a000000000000000000000000000000000000000000000000000000000815260040161056490613089565b610662611bb4565b73ffffffffffffffffffffffffffffffffffffffff1663b3db428b3384846040518463ffffffff1660e01b815260040161069e93929190612f70565b602060405180830381600087803b1580156106b857600080fd5b505af11580156106cc573d6000803e3d6000fd5b505050506040513d601f19601f820116820180604052508101906106f09190612c87565b610726576040517f08c379a000000000000000000000000000000000000000000000000000000000815260040161056490613325565b6000610730611c61565b73ffffffffffffffffffffffffffffffffffffffff166352a664d93385856040518463ffffffff1660e01b815260040161076c93929190612f70565b602060405180830381600087803b15801561078657600080fd5b505af115801561079a573d6000803e3d6000fd5b505050506040513d601f19601f820116820180604052508101906107be9190612e39565b9050801561083b576107ce611cb9565b73ffffffffffffffffffffffffffffffffffffffff16632a6a897b84836040518363ffffffff1660e01b8152600401610808929190612fa1565b600060405180830381600087803b15801561082257600080fd5b505af1158015610836573d6000803e3d6000fd5b505050505b505050565b600881565b33321461087e576040517f08c379a000000000000000000000000000000000000000000000000000000000815260040161056490613089565b610886611c61565b6002546040517fd0eb665300000000000000000000000000000000000000000000000000000000815273ffffffffffffffffffffffffffffffffffffffff9283169263d0eb6653926108e2923392909116908690600401612f70565b600060405180830381600087803b1580156108fc57600080fd5b505af1158015610910573d6000803e3d6000fd5b5050505061091c611bb4565b73ffffffffffffffffffffffffffffffffffffffff16634782f77933836040518363ffffffff1660e01b8152600401610956929190612fa1565b600060405180830381600087803b15801561097057600080fd5b505af1158015610984573d6000803e3d6000fd5b5050505050565b6060610996336117f1565b6109cc576040517f08c379a0000000000000000000000000000000000000000000000000000000008152600401610564906130e6565b61061560016000886003811115610a0c577f4e487b7100000000000000000000000000000000000000000000000000000000600052602160045260246000fd5b6003811115610a44577f4e487b7100000000000000000000000000000000000000000000000000000000600052602160045260246000fd5b815260208101919091526040016000205473ffffffffffffffffffffffffffffffffffffffff1686868686611d11565b6060333214610aaf576040517f08c379a000000000000000000000000000000000000000000000000000000000815260040161056490613089565b8142811015610aea576040517f08c379a000000000000000000000000000000000000000000000000000000000815260040161056490613143565b6000610af4611dce565b73ffffffffffffffffffffffffffffffffffffffff166367cbf42d8787610b1c600182613679565b818110610b52577f4e487b7100000000000000000000000000000000000000000000000000000000600052603260045260246000fd5b9050602002016020810190610b679190612be0565b8a6040518363ffffffff1660e01b8152600401610b85929190612fa1565b602060405180830381600087803b158015610b9f57600080fd5b505af1158015610bb3573d6000803e3d6000fd5b505050506040513d601f19601f82011682018060405250810190610bd79190612e39565b9050610c8a600160008b6003811115610c19577f4e487b7100000000000000000000000000000000000000000000000000000000600052602160045260246000fd5b6003811115610c51577f4e487b7100000000000000000000000000000000000000000000000000000000600052602160045260246000fd5b815260208101919091526040016000205473ffffffffffffffffffffffffffffffffffffffff16610c82838b6135eb565b898989611d11565b9250610d7f3387876000818110610cca577f4e487b7100000000000000000000000000000000000000000000000000000000600052603260045260246000fd5b9050602002016020810190610cdf9190612be0565b8888610cec600182613679565b818110610d22577f4e487b7100000000000000000000000000000000000000000000000000000000600052603260045260246000fd5b9050602002016020810190610d379190612be0565b86600081518110610d71577f4e487b7100000000000000000000000000000000000000000000000000000000600052603260045260246000fd5b60200260200101518c611e26565b50509695505050505050565b606b81565b606981565b606781565b60005473ffffffffffffffffffffffffffffffffffffffff1681565b600681565b606681565b606581565b600181565b606a81565b600981565b6060600060016000876003811115610e15577f4e487b7100000000000000000000000000000000000000000000000000000000600052602160045260246000fd5b6003811115610e4d577f4e487b7100000000000000000000000000000000000000000000000000000000600052602160045260246000fd5b815260200190815260200160002060009054906101000a900473ffffffffffffffffffffffffffffffffffffffff169050610ebc8186868680806020026020016040519081016040528093929190818152602001838360200280828437600092019190915250611fc592505050565b9695505050505050565b333214610eff576040517f08c379a000000000000000000000000000000000000000000000000000000000815260040161056490613089565b610f07611bb4565b73ffffffffffffffffffffffffffffffffffffffff1663a6a5f9fe346040518263ffffffff1660e01b81526004016000604051808303818588803b158015610f4e57600080fd5b505af1158015610f62573d6000803e3d6000fd5b50505050506000610f71611c61565b6002546040517f52a664d900000000000000000000000000000000000000000000000000000000815273ffffffffffffffffffffffffffffffffffffffff928316926352a664d992610fcd923392909116903490600401612f70565b602060405180830381600087803b158015610fe757600080fd5b505af1158015610ffb573d6000803e3d6000fd5b505050506040513d601f19601f8201168201806040525081019061101f9190612e39565b905080156110885761102f611cb9565b6002546040517f2a6a897b00000000000000000000000000000000000000000000000000000000815273ffffffffffffffffffffffffffffffffffffffff92831692632a6a897b92610956929116908590600401612fa1565b50565b600281565b60603332146110cb576040517f08c379a000000000000000000000000000000000000000000000000000000000815260040161056490613089565b8142811015611106576040517f08c379a000000000000000000000000000000000000000000000000000000000815260040161056490613143565b6000611110611dce565b73ffffffffffffffffffffffffffffffffffffffff16633f0e9edf87876000818110611165577f4e487b7100000000000000000000000000000000000000000000000000000000600052603260045260246000fd5b905060200201602081019061117a9190612be0565b8a6040518363ffffffff1660e01b8152600401611198929190612fa1565b602060405180830381600087803b1580156111b257600080fd5b505af11580156111c6573d6000803e3d6000fd5b505050506040513d601f19601f820116820180604052508101906111ea9190612e39565b905061129d600160008b600381111561122c577f4e487b7100000000000000000000000000000000000000000000000000000000600052602160045260246000fd5b6003811115611264577f4e487b7100000000000000000000000000000000000000000000000000000000600052602160045260246000fd5b815260208101919091526040016000205473ffffffffffffffffffffffffffffffffffffffff16611295838b613679565b8989896118a3565b9250610d7f33878760008181106112dd577f4e487b7100000000000000000000000000000000000000000000000000000000600052603260045260246000fd5b90506020020160208101906112f29190612be0565b88886112ff600182613679565b818110611335577f4e487b7100000000000000000000000000000000000000000000000000000000600052603260045260246000fd5b905060200201602081019061134a9190612be0565b8b876001895161135a9190613679565b81518110611391577f4e487b7100000000000000000000000000000000000000000000000000000000600052603260045260246000fd5b6020026020010151611e26565b600581565b606881565b60036020526000908152604090205460ff1681565b6113c63361222f565b6113fc576040517f08c379a00000000000000000000000000000000000000000000000000000000081526004016105649061302c565b73ffffffffffffffffffffffffffffffffffffffff91909116600090815260036020526040902080547fffffffffffffffffffffffffffffffffffffffffffffffffffffffffffffff001660ff909216919091179055565b606c81565b600481565b600781565b33321461149c576040517f08c379a000000000000000000000000000000000000000000000000000000000815260040161056490613089565b6114a4611c61565b73ffffffffffffffffffffffffffffffffffffffff1663d0eb66533384846040518463ffffffff1660e01b81526004016114e093929190612f70565b600060405180830381600087803b1580156114fa57600080fd5b505af115801561150e573d6000803e3d6000fd5b5050505061151a611bb4565b73ffffffffffffffffffffffffffffffffffffffff1663d9caed128333846040518463ffffffff1660e01b815260040161155693929190612f70565b602060405180830381600087803b15801561157057600080fd5b505af1158015611584573d6000803e3d6000fd5b505050506040513d601f19601f820116820180604052508101906115a89190612c87565b6115de576040517f08c379a000000000000000000000000000000000000000000000000000000000815260040161056490613382565b5050565b6060600060016000876003811115611623577f4e487b7100000000000000000000000000000000000000000000000000000000600052602160045260246000fd5b600381111561165b577f4e487b7100000000000000000000000000000000000000000000000000000000600052602160045260246000fd5b815260200190815260200160002060009054906101000a900473ffffffffffffffffffffffffffffffffffffffff169050610ebc818686868080602002602001604051908101604052809392919081815260200183836020028082843760009201919091525061228992505050565b333214611703576040517f08c379a000000000000000000000000000000000000000000000000000000000815260040161056490613089565b61170b611cb9565b73ffffffffffffffffffffffffffffffffffffffff1663ee0862bf83836040518363ffffffff1660e01b8152600401611745929190612fa1565b600060405180830381600087803b15801561175f57600080fd5b505af1158015611773573d6000803e3d6000fd5b5050505061177f611c61565b73ffffffffffffffffffffffffffffffffffffffff1663498d55eb3384846040518463ffffffff1660e01b81526004016117bb93929190612f70565b600060405180830381600087803b1580156117d557600080fd5b505af11580156117e9573d6000803e3d6000fd5b505050505050565b600080546040517fd87fefd200000000000000000000000000000000000000000000000000000000815273ffffffffffffffffffffffffffffffffffffffff9091169063d87fefd29061184b906007908690600401613516565b60206040518083038186803b15801561186357600080fd5b505afa158015611877573d6000803e3d6000fd5b505050506040513d601f19601f8201168201806040525081019061189b9190612c87565b90505b919050565b60606118e3868685858080602002602001604051908101604052809392919081815260200183836020028082843760009201919091525061228992505050565b90508381600183516118f59190613679565b8151811061192c577f4e487b7100000000000000000000000000000000000000000000000000000000600052603260045260246000fd5b6020026020010151101561196c576040517f08c379a0000000000000000000000000000000000000000000000000000000008152600401610564906134aa565b611974611bb4565b73ffffffffffffffffffffffffffffffffffffffff1663d9caed12848460008181106119c9577f4e487b7100000000000000000000000000000000000000000000000000000000600052603260045260246000fd5b90506020020160208101906119de9190612be0565b611a858987876000818110611a1c577f4e487b7100000000000000000000000000000000000000000000000000000000600052603260045260246000fd5b9050602002016020810190611a319190612be0565b88886001818110611a6b577f4e487b7100000000000000000000000000000000000000000000000000000000600052603260045260246000fd5b9050602002016020810190611a809190612be0565b6124d3565b84600081518110611abf577f4e487b7100000000000000000000000000000000000000000000000000000000600052603260045260246000fd5b60200260200101516040518463ffffffff1660e01b8152600401611ae593929190612f70565b602060405180830381600087803b158015611aff57600080fd5b505af1158015611b13573d6000803e3d6000fd5b505050506040513d601f19601f82011682018060405250810190611b379190612c87565b611b6d576040517f08c379a000000000000000000000000000000000000000000000000000000000815260040161056490613234565b6106188682858580806020026020016040519081016040528093929190818152602001838360200280828437600092019190915250611baf9250611bb4915050565b612545565b600080546040517f3c9c8f9c00000000000000000000000000000000000000000000000000000000815273ffffffffffffffffffffffffffffffffffffffff90911690633c9c8f9c90611c0c90606590600401613507565b60206040518083038186803b158015611c2457600080fd5b505afa158015611c38573d6000803e3d6000fd5b505050506040513d601f19601f82011682018060405250810190611c5c9190612c03565b905090565b600080546040517f3c9c8f9c00000000000000000000000000000000000000000000000000000000815273ffffffffffffffffffffffffffffffffffffffff90911690633c9c8f9c90611c0c90606890600401613507565b600080546040517f3c9c8f9c00000000000000000000000000000000000000000000000000000000815273ffffffffffffffffffffffffffffffffffffffff90911690633c9c8f9c90611c0c90606690600401613507565b6060611d518686858580806020026020016040519081016040528093929190818152602001838360200280828437600092019190915250611fc592505050565b90508381600081518110611d8e577f4e487b7100000000000000000000000000000000000000000000000000000000600052603260045260246000fd5b6020026020010151111561196c576040517f08c379a0000000000000000000000000000000000000000000000000000000008152600401610564906133b9565b600080546040517f3c9c8f9c00000000000000000000000000000000000000000000000000000000815273ffffffffffffffffffffffffffffffffffffffff90911690633c9c8f9c90611c0c90606990600401613507565b600080611e31611c61565b73ffffffffffffffffffffffffffffffffffffffff16633500aa0b88888888886040518663ffffffff1660e01b8152600401611e71959493929190612f2f565b6040805180830381600087803b158015611e8a57600080fd5b505af1158015611e9e573d6000803e3d6000fd5b505050506040513d601f19601f82011682018060405250810190611ec29190612e51565b90925090508115611f4257611ed5611cb9565b73ffffffffffffffffffffffffffffffffffffffff16632a6a897b86846040518363ffffffff1660e01b8152600401611f0f929190612fa1565b600060405180830381600087803b158015611f2957600080fd5b505af1158015611f3d573d6000803e3d6000fd5b505050505b801561083657611f50611cb9565b73ffffffffffffffffffffffffffffffffffffffff1663ee0862bf86836040518363ffffffff1660e01b8152600401611f8a929190612fa1565b600060405180830381600087803b158015611fa457600080fd5b505af1158015611fb8573d6000803e3d6000fd5b5050505050505050505050565b6060600282511015612003576040517f08c379a000000000000000000000000000000000000000000000000000000000815260040161056490613291565b815167ffffffffffffffff811115612044577f4e487b7100000000000000000000000000000000000000000000000000000000600052604160045260246000fd5b60405190808252806020026020018201604052801561206d578160200160208202803683370190505b5090508281600183516120809190613679565b815181106120b7577f4e487b7100000000000000000000000000000000000000000000000000000000600052603260045260246000fd5b6020026020010181815250506000600183516120d39190613679565b90505b80156122275760008061217487866120ef600187613679565b81518110612126577f4e487b7100000000000000000000000000000000000000000000000000000000600052603260045260246000fd5b6020026020010151878681518110612167577f4e487b7100000000000000000000000000000000000000000000000000000000600052603260045260246000fd5b60200260200101516127ca565b915091506121c38484815181106121b4577f4e487b7100000000000000000000000000000000000000000000000000000000600052603260045260246000fd5b602002602001015183836128d8565b846121cf600186613679565b81518110612206577f4e487b7100000000000000000000000000000000000000000000000000000000600052603260045260246000fd5b6020026020010181815250505050808061221f90613690565b9150506120d6565b509392505050565b600080546040517fd87fefd200000000000000000000000000000000000000000000000000000000815273ffffffffffffffffffffffffffffffffffffffff9091169063d87fefd29061184b906009908690600401613516565b60606002825110156122c7576040517f08c379a000000000000000000000000000000000000000000000000000000000815260040161056490613291565b815167ffffffffffffffff811115612308577f4e487b7100000000000000000000000000000000000000000000000000000000600052604160045260246000fd5b604051908082528060200260200182016040528015612331578160200160208202803683370190505b509050828160008151811061236f577f4e487b7100000000000000000000000000000000000000000000000000000000600052603260045260246000fd5b60200260200101818152505060005b6001835161238c9190613679565b81101561222757600080612420878685815181106123d3577f4e487b7100000000000000000000000000000000000000000000000000000000600052603260045260246000fd5b6020026020010151878660016123e991906135eb565b81518110612167577f4e487b7100000000000000000000000000000000000000000000000000000000600052603260045260246000fd5b9150915061246f848481518110612460577f4e487b7100000000000000000000000000000000000000000000000000000000600052603260045260246000fd5b602002602001015183836129a3565b8461247b8560016135eb565b815181106124b2577f4e487b7100000000000000000000000000000000000000000000000000000000600052603260045260246000fd5b602002602001018181525050505080806124cb906136c5565b91505061237e565b60008060006124e28585612a72565b915091508582826040516020016124fa929190612e74565b60405160208183030381529060405280519060200120604051602001612521929190612eae565b6040516020818303038152906040528051906020012060601c925050509392505050565b60005b600183516125569190613679565b81101561098457600080848381518110612599577f4e487b7100000000000000000000000000000000000000000000000000000000600052603260045260246000fd5b6020026020010151858460016125af91906135eb565b815181106125e6577f4e487b7100000000000000000000000000000000000000000000000000000000600052603260045260246000fd5b60200260200101519150915060006125fe8383612a72565b50905060008761260f8660016135eb565b81518110612646577f4e487b7100000000000000000000000000000000000000000000000000000000600052603260045260246000fd5b602002602001015190506000808373ffffffffffffffffffffffffffffffffffffffff168673ffffffffffffffffffffffffffffffffffffffff161461268e57826000612692565b6000835b91509150600060028a516126a69190613679565b88106126b25788612707565b6127078c878c6126c38c60026135eb565b815181106126fa577f4e487b7100000000000000000000000000000000000000000000000000000000600052603260045260246000fd5b60200260200101516124d3565b90506127148c88886124d3565b73ffffffffffffffffffffffffffffffffffffffff1663022c0d9f84848460006040519080825280601f01601f19166020018201604052801561275e576020820181803683370190505b506040518563ffffffff1660e01b815260040161277e9493929190613540565b600060405180830381600087803b15801561279857600080fd5b505af11580156127ac573d6000803e3d6000fd5b505050505050505050505080806127c2906136c5565b915050612548565b60008060006127d98585612a72565b5090506000806127ea8888886124d3565b73ffffffffffffffffffffffffffffffffffffffff16630902f1ac6040518163ffffffff1660e01b815260040160606040518083038186803b15801561282f57600080fd5b505afa158015612843573d6000803e3d6000fd5b505050506040513d601f19601f820116820180604052508101906128679190612dd3565b506dffffffffffffffffffffffffffff1691506dffffffffffffffffffffffffffff1691508273ffffffffffffffffffffffffffffffffffffffff168773ffffffffffffffffffffffffffffffffffffffff16146128c65780826128c9565b81815b90999098509650505050505050565b6000808411612913576040517f08c379a00000000000000000000000000000000000000000000000000000000081526004016105649061317a565b6000831180156129235750600082115b612959576040517f08c379a0000000000000000000000000000000000000000000000000000000008152600401610564906132c8565b6000612965858561363c565b612971906103e861363c565b905060006103e56129828786613679565b61298c9190613679565b90506129988183613603565b610ebc9060016135eb565b60008084116129de576040517f08c379a00000000000000000000000000000000000000000000000000000000081526004016105649061344d565b6000831180156129ee5750600082115b612a24576040517f08c379a0000000000000000000000000000000000000000000000000000000008152600401610564906132c8565b6000612a32856103e561363c565b90506000612a40848361363c565b9050600082612a51876103e861363c565b612a5b91906135eb565b9050612a678183613603565b979650505050505050565b6000808273ffffffffffffffffffffffffffffffffffffffff168473ffffffffffffffffffffffffffffffffffffffff161415612adb576040517f08c379a0000000000000000000000000000000000000000000000000000000008152600401610564906131d7565b8273ffffffffffffffffffffffffffffffffffffffff168473ffffffffffffffffffffffffffffffffffffffff1610612b15578284612b18565b83835b909250905073ffffffffffffffffffffffffffffffffffffffff8216612b6a576040517f08c379a000000000000000000000000000000000000000000000000000000000815260040161056490613416565b9250929050565b60008083601f840112612b82578182fd5b50813567ffffffffffffffff811115612b99578182fd5b6020830191508360208083028501011115612b6a57600080fd5b80356004811061189e57600080fd5b80516dffffffffffffffffffffffffffff8116811461189e57600080fd5b600060208284031215612bf1578081fd5b8135612bfc8161372d565b9392505050565b600060208284031215612c14578081fd5b8151612bfc8161372d565b60008060408385031215612c31578081fd5b8235612c3c8161372d565b946020939093013593505050565b60008060408385031215612c5c578182fd5b8235612c678161372d565b9150602083013560ff81168114612c7c578182fd5b809150509250929050565b600060208284031215612c98578081fd5b81518015158114612bfc578182fd5b60008060008060608587031215612cbc578182fd5b612cc585612bb3565b935060208501359250604085013567ffffffffffffffff811115612ce7578283fd5b612cf387828801612b71565b95989497509550505050565b600080600080600060808688031215612d16578081fd5b612d1f86612bb3565b94506020860135935060408601359250606086013567ffffffffffffffff811115612d48578182fd5b612d5488828901612b71565b969995985093965092949392505050565b60008060008060008060a08789031215612d7d578081fd5b612d8687612bb3565b95506020870135945060408701359350606087013567ffffffffffffffff811115612daf578182fd5b612dbb89828a01612b71565b979a9699509497949695608090950135949350505050565b600080600060608486031215612de7578283fd5b612df084612bc2565b9250612dfe60208501612bc2565b9150604084015163ffffffff81168114612e16578182fd5b809150509250925092565b600060208284031215612e32578081fd5b5035919050565b600060208284031215612e4a578081fd5b5051919050565b60008060408385031215612e63578182fd5b505080516020909101519092909150565b7fffffffffffffffffffffffffffffffffffffffff000000000000000000000000606093841b811682529190921b16601482015260280190565b7fff00000000000000000000000000000000000000000000000000000000000000815260609290921b7fffffffffffffffffffffffffffffffffffffffff00000000000000000000000016600183015260158201527f96e8ac4277198ff8b6f785478aa9a39f403cb768dd02cbee326c3e7da348845f603582015260550190565b73ffffffffffffffffffffffffffffffffffffffff958616815293851660208501529190931660408301526060820192909252608081019190915260a00190565b73ffffffffffffffffffffffffffffffffffffffff9384168152919092166020820152604081019190915260600190565b73ffffffffffffffffffffffffffffffffffffffff929092168252602082015260400190565b6020808252825182820181905260009190848201906040850190845b81811015612fff57835183529284019291840191600101612fe3565b50909695505050505050565b73ffffffffffffffffffffffffffffffffffffffff91909116815260200190565b6020808252602e908201527f43616c6c6572206e6f7420617574686f72697a656420746f2073657420696e6360408201527f656e74697665207472616e636865000000000000000000000000000000000000606082015260800190565b6020808252603a908201527f43757272656e746c79206e6f20696e7465726d656469617269657320616c6c6f60408201527f77656420666f7220746869732066756e6374696f6e2063616c6c000000000000606082015260800190565b6020808252603e908201527f43616c6c696e6720636f6e7472616374206973206e6f7420617574686f72697a60408201527f656420746f20747261646520776974682070726f746f636c2066756e64730000606082015260800190565b60208082526018908201527f556e69737761705632526f757465723a20455850495245440000000000000000604082015260600190565b6020808252602c908201527f556e697377617056324c6962726172793a20494e53554646494349454e545f4f60408201527f55545055545f414d4f554e540000000000000000000000000000000000000000606082015260800190565b60208082526025908201527f556e697377617056324c6962726172793a204944454e544943414c5f4144445260408201527f4553534553000000000000000000000000000000000000000000000000000000606082015260800190565b60208082526028908201527f4d617267696e526f757465723a20496e73756666696369656e74206c656e646960408201527f6e672066756e6473000000000000000000000000000000000000000000000000606082015260800190565b6020808252601e908201527f556e697377617056324c6962726172793a20494e56414c49445f504154480000604082015260600190565b60208082526028908201527f556e697377617056324c6962726172793a20494e53554646494349454e545f4c60408201527f4951554944495459000000000000000000000000000000000000000000000000606082015260800190565b60208082526029908201527f43616e6e6f74207472616e73666572206465706f73697420746f206d6172676960408201527f6e206163636f756e740000000000000000000000000000000000000000000000606082015260800190565b6020808252601c908201527f436f756c64206e6f742077697468647261772066726f6d2066756e6400000000604082015260600190565b60208082526027908201527f556e69737761705632526f757465723a204558434553534956455f494e50555460408201527f5f414d4f554e5400000000000000000000000000000000000000000000000000606082015260800190565b6020808252601e908201527f556e697377617056324c6962726172793a205a45524f5f414444524553530000604082015260600190565b6020808252602b908201527f556e697377617056324c6962726172793a20494e53554646494349454e545f4960408201527f4e5055545f414d4f554e54000000000000000000000000000000000000000000606082015260800190565b60208082526028908201527f4d617267696e526f757465723a20494e53554646494349454e545f4f5554505560408201527f545f414d4f554e54000000000000000000000000000000000000000000000000606082015260800190565b61ffff91909116815260200190565b61ffff92909216825273ffffffffffffffffffffffffffffffffffffffff16602082015260400190565b60008582526020858184015273ffffffffffffffffffffffffffffffffffffffff85166040840152608060608401528351806080850152825b818110156135955785810183015185820160a001528201613579565b818111156135a6578360a083870101525b50601f017fffffffffffffffffffffffffffffffffffffffffffffffffffffffffffffffe0169290920160a0019695505050505050565b60ff91909116815260200190565b600082198211156135fe576135fe6136fe565b500190565b600082613637577f4e487b710000000000000000000000000000000000000000000000000000000081526012600452602481fd5b500490565b6000817fffffffffffffffffffffffffffffffffffffffffffffffffffffffffffffffff0483118215151615613674576136746136fe565b500290565b60008282101561368b5761368b6136fe565b500390565b60008161369f5761369f6136fe565b507fffffffffffffffffffffffffffffffffffffffffffffffffffffffffffffffff0190565b60007fffffffffffffffffffffffffffffffffffffffffffffffffffffffffffffffff8214156136f7576136f76136fe565b5060010190565b7f4e487b7100000000000000000000000000000000000000000000000000000000600052601160045260246000fd5b73ffffffffffffffffffffffffffffffffffffffff8116811461108857600080fdfea26469706673582212205caa52244042ee28622a8e4af0efcf34f3952049ba47c3f1756911a95de5ede664736f6c63430008010033",
  "linkReferences": {},
  "deployedLinkReferences": {}
}