{
  "_format": "hh-sol-artifact-1",
  "contractName": "MarginRouter",
  "sourceName": "contracts/MarginRouter.sol",
  "abi": [
    {
      "inputs": [
        {
          "internalType": "address",
          "name": "uniswapFactory",
          "type": "address"
        },
        {
          "internalType": "address",
          "name": "sushiswapFactory",
          "type": "address"
        },
        {
          "internalType": "address",
          "name": "_WETH",
          "type": "address"
        },
        {
          "internalType": "address",
          "name": "_roles",
          "type": "address"
        }
      ],
      "stateMutability": "nonpayable",
      "type": "constructor"
    },
    {
      "inputs": [],
      "name": "AUTHORIZED_FUND_TRADER",
      "outputs": [
        {
          "internalType": "uint16",
          "name": "",
          "type": "uint16"
        }
      ],
      "stateMutability": "view",
      "type": "function"
    },
    {
      "inputs": [],
      "name": "BORROWER",
      "outputs": [
        {
          "internalType": "uint16",
          "name": "",
          "type": "uint16"
        }
      ],
      "stateMutability": "view",
      "type": "function"
    },
    {
      "inputs": [],
      "name": "FEE_CONTROLLER",
      "outputs": [
        {
          "internalType": "uint16",
          "name": "",
          "type": "uint16"
        }
      ],
      "stateMutability": "view",
      "type": "function"
    },
    {
      "inputs": [],
      "name": "FEE_SOURCE",
      "outputs": [
        {
          "internalType": "uint16",
          "name": "",
          "type": "uint16"
        }
      ],
      "stateMutability": "view",
      "type": "function"
    },
    {
      "inputs": [],
      "name": "FUND",
      "outputs": [
        {
          "internalType": "uint16",
          "name": "",
          "type": "uint16"
        }
      ],
      "stateMutability": "view",
      "type": "function"
    },
    {
      "inputs": [],
      "name": "INCENTIVE_REPORTER",
      "outputs": [
        {
          "internalType": "uint16",
          "name": "",
          "type": "uint16"
        }
      ],
      "stateMutability": "view",
      "type": "function"
    },
    {
      "inputs": [],
      "name": "LENDING",
      "outputs": [
        {
          "internalType": "uint16",
          "name": "",
          "type": "uint16"
        }
      ],
      "stateMutability": "view",
      "type": "function"
    },
    {
      "inputs": [],
      "name": "LIQUIDATOR",
      "outputs": [
        {
          "internalType": "uint16",
          "name": "",
          "type": "uint16"
        }
      ],
      "stateMutability": "view",
      "type": "function"
    },
    {
      "inputs": [],
      "name": "MARGIN_CALLER",
      "outputs": [
        {
          "internalType": "uint16",
          "name": "",
          "type": "uint16"
        }
      ],
      "stateMutability": "view",
      "type": "function"
    },
    {
      "inputs": [],
      "name": "MARGIN_TRADER",
      "outputs": [
        {
          "internalType": "uint16",
          "name": "",
          "type": "uint16"
        }
      ],
      "stateMutability": "view",
      "type": "function"
    },
    {
      "inputs": [],
      "name": "MARGIN_TRADING",
      "outputs": [
        {
          "internalType": "uint16",
          "name": "",
          "type": "uint16"
        }
      ],
      "stateMutability": "view",
      "type": "function"
    },
    {
      "inputs": [],
      "name": "PRICE_CONTROLLER",
      "outputs": [
        {
          "internalType": "uint16",
          "name": "",
          "type": "uint16"
        }
      ],
      "stateMutability": "view",
      "type": "function"
    },
    {
      "inputs": [],
      "name": "ROUTER",
      "outputs": [
        {
          "internalType": "uint16",
          "name": "",
          "type": "uint16"
        }
      ],
      "stateMutability": "view",
      "type": "function"
    },
    {
      "inputs": [],
      "name": "TOKEN_ACTIVATOR",
      "outputs": [
        {
          "internalType": "uint16",
          "name": "",
          "type": "uint16"
        }
      ],
      "stateMutability": "view",
      "type": "function"
    },
    {
      "inputs": [],
      "name": "WITHDRAWER",
      "outputs": [
        {
          "internalType": "uint16",
          "name": "",
          "type": "uint16"
        }
      ],
      "stateMutability": "view",
      "type": "function"
    },
    {
      "inputs": [
        {
          "internalType": "enum AMM",
          "name": "amm",
          "type": "uint8"
        },
        {
          "internalType": "uint256",
          "name": "amountIn",
          "type": "uint256"
        },
        {
          "internalType": "uint256",
          "name": "amountOutMin",
          "type": "uint256"
        },
        {
          "internalType": "address[]",
          "name": "path",
          "type": "address[]"
        }
      ],
      "name": "authorizedSwapExactT4T",
      "outputs": [
        {
          "internalType": "uint256[]",
          "name": "",
          "type": "uint256[]"
        }
      ],
      "stateMutability": "nonpayable",
      "type": "function"
    },
    {
      "inputs": [
        {
          "internalType": "enum AMM",
          "name": "amm",
          "type": "uint8"
        },
        {
          "internalType": "uint256",
          "name": "amountOut",
          "type": "uint256"
        },
        {
          "internalType": "uint256",
          "name": "amountInMax",
          "type": "uint256"
        },
        {
          "internalType": "address[]",
          "name": "path",
          "type": "address[]"
        }
      ],
      "name": "authorizedSwapT4ExactT",
      "outputs": [
        {
          "internalType": "uint256[]",
          "name": "",
          "type": "uint256[]"
        }
      ],
      "stateMutability": "nonpayable",
      "type": "function"
    },
    {
      "inputs": [
        {
          "internalType": "address",
          "name": "borrowToken",
          "type": "address"
        },
        {
          "internalType": "uint256",
          "name": "borrowAmount",
          "type": "uint256"
        }
      ],
      "name": "crossBorrow",
      "outputs": [],
      "stateMutability": "nonpayable",
      "type": "function"
    },
    {
      "inputs": [
        {
          "internalType": "address",
          "name": "depositToken",
          "type": "address"
        },
        {
          "internalType": "uint256",
          "name": "depositAmount",
          "type": "uint256"
        }
      ],
      "name": "crossDeposit",
      "outputs": [],
      "stateMutability": "nonpayable",
      "type": "function"
    },
    {
      "inputs": [],
      "name": "crossDepositETH",
      "outputs": [],
      "stateMutability": "payable",
      "type": "function"
    },
    {
      "inputs": [
        {
          "internalType": "enum AMM",
          "name": "amm",
          "type": "uint8"
        },
        {
          "internalType": "uint256",
          "name": "amountIn",
          "type": "uint256"
        },
        {
          "internalType": "uint256",
          "name": "amountOutMin",
          "type": "uint256"
        },
        {
          "internalType": "address[]",
          "name": "path",
          "type": "address[]"
        },
        {
          "internalType": "uint256",
          "name": "deadline",
          "type": "uint256"
        }
      ],
      "name": "crossSwapExactTokensForTokens",
      "outputs": [
        {
          "internalType": "uint256[]",
          "name": "amounts",
          "type": "uint256[]"
        }
      ],
      "stateMutability": "nonpayable",
      "type": "function"
    },
    {
      "inputs": [
        {
          "internalType": "enum AMM",
          "name": "amm",
          "type": "uint8"
        },
        {
          "internalType": "uint256",
          "name": "amountOut",
          "type": "uint256"
        },
        {
          "internalType": "uint256",
          "name": "amountInMax",
          "type": "uint256"
        },
        {
          "internalType": "address[]",
          "name": "path",
          "type": "address[]"
        },
        {
          "internalType": "uint256",
          "name": "deadline",
          "type": "uint256"
        }
      ],
      "name": "crossSwapTokensForExactTokens",
      "outputs": [
        {
          "internalType": "uint256[]",
          "name": "amounts",
          "type": "uint256[]"
        }
      ],
      "stateMutability": "nonpayable",
      "type": "function"
    },
    {
      "inputs": [
        {
          "internalType": "address",
          "name": "withdrawToken",
          "type": "address"
        },
        {
          "internalType": "uint256",
          "name": "withdrawAmount",
          "type": "uint256"
        }
      ],
      "name": "crossWithdraw",
      "outputs": [],
      "stateMutability": "nonpayable",
      "type": "function"
    },
    {
      "inputs": [
        {
          "internalType": "uint256",
          "name": "withdrawAmount",
          "type": "uint256"
        }
      ],
      "name": "crossWithdrawETH",
      "outputs": [],
      "stateMutability": "nonpayable",
      "type": "function"
    },
    {
      "inputs": [
        {
          "internalType": "enum AMM",
          "name": "amm",
          "type": "uint8"
        },
        {
          "internalType": "uint256",
          "name": "outAmount",
          "type": "uint256"
        },
        {
          "internalType": "address[]",
          "name": "path",
          "type": "address[]"
        }
      ],
      "name": "getAmountsIn",
      "outputs": [
        {
          "internalType": "uint256[]",
          "name": "",
          "type": "uint256[]"
        }
      ],
      "stateMutability": "view",
      "type": "function"
    },
    {
      "inputs": [
        {
          "internalType": "enum AMM",
          "name": "amm",
          "type": "uint8"
        },
        {
          "internalType": "uint256",
          "name": "inAmount",
          "type": "uint256"
        },
        {
          "internalType": "address[]",
          "name": "path",
          "type": "address[]"
        }
      ],
      "name": "getAmountsOut",
      "outputs": [
        {
          "internalType": "uint256[]",
          "name": "",
          "type": "uint256[]"
        }
      ],
      "stateMutability": "view",
      "type": "function"
    },
    {
      "inputs": [],
      "name": "roles",
      "outputs": [
        {
          "internalType": "contract Roles",
          "name": "",
          "type": "address"
        }
      ],
      "stateMutability": "view",
      "type": "function"
    }
  ],
  "bytecode": "0x60806040523480156200001157600080fd5b5060405162003715380380620037158339810160408190526200003491620000e9565b600080546001600160a01b03199081166001600160a01b03938416178255600160208190527fa6eef7e35abe7026729641147f7915573c7e97b47efa546f5f6e3230263bcb4980548316978516979097179096559490527fcc69885fda6bcc1a4ace058b4a62bf5e179ea78fd58a1ccd71c22cc9b688792f805485169382169390931790925560028054909316911617905562000145565b80516001600160a01b0381168114620000e457600080fd5b919050565b60008060008060808587031215620000ff578384fd5b6200010a85620000cc565b93506200011a60208601620000cc565b92506200012a60408601620000cc565b91506200013a60608601620000cc565b905092959194509250565b6135c080620001556000396000f3fe6080604052600436106101ac5760003560e01c806366941984116100ec578063a94c7c341161008a578063d5d7ed7f11610064578063d5d7ed7f14610406578063e3e0626b1461041b578063eaa095f81461043b578063eedb97c71461045b576101ac565b8063a94c7c34146103c7578063a9cc0536146103dc578063cacf8d45146103f1576101ac565b806390b931ed116100c657806390b931ed1461036a57806394427b201461038a578063a0098d6914610392578063a5f9a362146103a7576101ac565b8063669419841461032b57806381ca66001461034057806383a49c7c14610355576101ac565b80632233c43611610159578063392f5f6411610133578063392f5f64146102ca57806346b88796146102ec57806348fb27b8146103015780635c275a3914610316576101ac565b80632233c436146102805780632fe94def146102a057806332fe7b26146102b5576101ac565b80631bc5d81d1161018a5780631bc5d81d1461022b5780631dce3baa146102405780631f2a674314610260576101ac565b8063065d570f146101b15780630aa29f1c146101dc5780631306d90214610209575b600080fd5b3480156101bd57600080fd5b506101c661047b565b6040516101d39190613350565b60405180910390f35b3480156101e857600080fd5b506101fc6101f7366004612ba5565b610480565b6040516101d39190612e6d565b34801561021557600080fd5b50610229610224366004612b02565b61057e565b005b34801561023757600080fd5b506101c661079d565b34801561024c57600080fd5b5061022961025b366004612cc7565b6107a2565b34801561026c57600080fd5b506101fc61027b366004612ba5565b6108e8565b34801561028c57600080fd5b506101fc61029b366004612c0b565b6109d1565b3480156102ac57600080fd5b506101c6610ce8565b3480156102c157600080fd5b506101c6610ced565b3480156102d657600080fd5b506102df610cf2565b6040516101d39190612eb1565b3480156102f857600080fd5b506101c6610d0e565b34801561030d57600080fd5b506101c6610d13565b34801561032257600080fd5b506101c6610d18565b34801561033757600080fd5b506101c6610d1d565b34801561034c57600080fd5b506101c6610d22565b34801561036157600080fd5b506101c6610d27565b34801561037657600080fd5b506101fc610385366004612b4d565b610d2c565b610229610e1e565b34801561039e57600080fd5b506101c6611079565b3480156103b357600080fd5b506101fc6103c2366004612c0b565b61107e565b3480156103d357600080fd5b506101c661138c565b3480156103e857600080fd5b506101c6611391565b3480156103fd57600080fd5b506101c6611396565b34801561041257600080fd5b506101c661139b565b34801561042757600080fd5b50610229610436366004612b02565b6113a0565b34801561044757600080fd5b506101fc610456366004612b4d565b61151f565b34801561046757600080fd5b50610229610476366004612b02565b611607565b600381565b606061048b3361172e565b6104ca576040517f08c379a00000000000000000000000000000000000000000000000000000000081526004016104c190612f2f565b60405180910390fd5b6105726001600088600381111561050a577f4e487b7100000000000000000000000000000000000000000000000000000000600052602160045260246000fd5b6003811115610542577f4e487b7100000000000000000000000000000000000000000000000000000000600052602160045260246000fd5b815260208101919091526040016000205473ffffffffffffffffffffffffffffffffffffffff16868686866117e0565b90505b95945050505050565b3332146105b7576040517f08c379a00000000000000000000000000000000000000000000000000000000081526004016104c190612ed2565b6105bf611af1565b73ffffffffffffffffffffffffffffffffffffffff1663b3db428b3384846040518463ffffffff1660e01b81526004016105fb93929190612e16565b602060405180830381600087803b15801561061557600080fd5b505af1158015610629573d6000803e3d6000fd5b505050506040513d601f19601f8201168201806040525081019061064d9190612b2d565b610683576040517f08c379a00000000000000000000000000000000000000000000000000000000081526004016104c19061316e565b600061068d611b9e565b73ffffffffffffffffffffffffffffffffffffffff166352a664d93385856040518463ffffffff1660e01b81526004016106c993929190612e16565b602060405180830381600087803b1580156106e357600080fd5b505af11580156106f7573d6000803e3d6000fd5b505050506040513d601f19601f8201168201806040525081019061071b9190612cdf565b905080156107985761072b611bf6565b73ffffffffffffffffffffffffffffffffffffffff16632a6a897b84836040518363ffffffff1660e01b8152600401610765929190612e47565b600060405180830381600087803b15801561077f57600080fd5b505af1158015610793573d6000803e3d6000fd5b505050505b505050565b600881565b3332146107db576040517f08c379a00000000000000000000000000000000000000000000000000000000081526004016104c190612ed2565b6107e3611b9e565b6002546040517fd0eb665300000000000000000000000000000000000000000000000000000000815273ffffffffffffffffffffffffffffffffffffffff9283169263d0eb66539261083f923392909116908690600401612e16565b600060405180830381600087803b15801561085957600080fd5b505af115801561086d573d6000803e3d6000fd5b50505050610879611af1565b73ffffffffffffffffffffffffffffffffffffffff16634782f77933836040518363ffffffff1660e01b81526004016108b3929190612e47565b600060405180830381600087803b1580156108cd57600080fd5b505af11580156108e1573d6000803e3d6000fd5b5050505050565b60606108f33361172e565b610929576040517f08c379a00000000000000000000000000000000000000000000000000000000081526004016104c190612f2f565b61057260016000886003811115610969577f4e487b7100000000000000000000000000000000000000000000000000000000600052602160045260246000fd5b60038111156109a1577f4e487b7100000000000000000000000000000000000000000000000000000000600052602160045260246000fd5b815260208101919091526040016000205473ffffffffffffffffffffffffffffffffffffffff1686868686611c4e565b6060333214610a0c576040517f08c379a00000000000000000000000000000000000000000000000000000000081526004016104c190612ed2565b8142811015610a47576040517f08c379a00000000000000000000000000000000000000000000000000000000081526004016104c190612f8c565b6000610a51611d0b565b73ffffffffffffffffffffffffffffffffffffffff166367cbf42d8787610a796001826134b4565b818110610aaf577f4e487b7100000000000000000000000000000000000000000000000000000000600052603260045260246000fd5b9050602002016020810190610ac49190612ac3565b8a6040518363ffffffff1660e01b8152600401610ae2929190612e47565b602060405180830381600087803b158015610afc57600080fd5b505af1158015610b10573d6000803e3d6000fd5b505050506040513d601f19601f82011682018060405250810190610b349190612cdf565b9050610be7600160008b6003811115610b76577f4e487b7100000000000000000000000000000000000000000000000000000000600052602160045260246000fd5b6003811115610bae577f4e487b7100000000000000000000000000000000000000000000000000000000600052602160045260246000fd5b815260208101919091526040016000205473ffffffffffffffffffffffffffffffffffffffff16610bdf838b613426565b898989611c4e565b9250610cdc3387876000818110610c27577f4e487b7100000000000000000000000000000000000000000000000000000000600052603260045260246000fd5b9050602002016020810190610c3c9190612ac3565b8888610c496001826134b4565b818110610c7f577f4e487b7100000000000000000000000000000000000000000000000000000000600052603260045260246000fd5b9050602002016020810190610c949190612ac3565b86600081518110610cce577f4e487b7100000000000000000000000000000000000000000000000000000000600052603260045260246000fd5b60200260200101518c611d63565b50509695505050505050565b606981565b606781565b60005473ffffffffffffffffffffffffffffffffffffffff1681565b600681565b606681565b606581565b600181565b606a81565b600981565b6060600060016000876003811115610d6d577f4e487b7100000000000000000000000000000000000000000000000000000000600052602160045260246000fd5b6003811115610da5577f4e487b7100000000000000000000000000000000000000000000000000000000600052602160045260246000fd5b815260200190815260200160002060009054906101000a900473ffffffffffffffffffffffffffffffffffffffff169050610e148186868680806020026020016040519081016040528093929190818152602001838360200280828437600092019190915250611f0292505050565b9695505050505050565b333214610e57576040517f08c379a00000000000000000000000000000000000000000000000000000000081526004016104c190612ed2565b610e5f611af1565b73ffffffffffffffffffffffffffffffffffffffff1663a6a5f9fe346040518263ffffffff1660e01b81526004016000604051808303818588803b158015610ea657600080fd5b505af1158015610eba573d6000803e3d6000fd5b50505050506000610ec9611b9e565b6002546040517f52a664d900000000000000000000000000000000000000000000000000000000815273ffffffffffffffffffffffffffffffffffffffff928316926352a664d992610f25923392909116903490600401612e16565b602060405180830381600087803b158015610f3f57600080fd5b505af1158015610f53573d6000803e3d6000fd5b505050506040513d601f19601f82011682018060405250810190610f779190612cdf565b9050801561107657610f87611b9e565b6002546040517fb25777ad00000000000000000000000000000000000000000000000000000000815273ffffffffffffffffffffffffffffffffffffffff9283169263b25777ad92610fe3923392909116908690600401612e16565b600060405180830381600087803b158015610ffd57600080fd5b505af1158015611011573d6000803e3d6000fd5b5050505061101d611bf6565b6002546040517f2a6a897b00000000000000000000000000000000000000000000000000000000815273ffffffffffffffffffffffffffffffffffffffff92831692632a6a897b926108b3929116908590600401612e47565b50565b600281565b60603332146110b9576040517f08c379a00000000000000000000000000000000000000000000000000000000081526004016104c190612ed2565b81428110156110f4576040517f08c379a00000000000000000000000000000000000000000000000000000000081526004016104c190612f8c565b60006110fe611d0b565b73ffffffffffffffffffffffffffffffffffffffff16633f0e9edf87876000818110611153577f4e487b7100000000000000000000000000000000000000000000000000000000600052603260045260246000fd5b90506020020160208101906111689190612ac3565b8a6040518363ffffffff1660e01b8152600401611186929190612e47565b602060405180830381600087803b1580156111a057600080fd5b505af11580156111b4573d6000803e3d6000fd5b505050506040513d601f19601f820116820180604052508101906111d89190612cdf565b905061128b600160008b600381111561121a577f4e487b7100000000000000000000000000000000000000000000000000000000600052602160045260246000fd5b6003811115611252577f4e487b7100000000000000000000000000000000000000000000000000000000600052602160045260246000fd5b815260208101919091526040016000205473ffffffffffffffffffffffffffffffffffffffff16611283838b6134b4565b8989896117e0565b9250610cdc33878760008181106112cb577f4e487b7100000000000000000000000000000000000000000000000000000000600052603260045260246000fd5b90506020020160208101906112e09190612ac3565b88886112ed6001826134b4565b818110611323577f4e487b7100000000000000000000000000000000000000000000000000000000600052603260045260246000fd5b90506020020160208101906113389190612ac3565b8b876001895161134891906134b4565b8151811061137f577f4e487b7100000000000000000000000000000000000000000000000000000000600052603260045260246000fd5b6020026020010151611d63565b600581565b606881565b600481565b600781565b3332146113d9576040517f08c379a00000000000000000000000000000000000000000000000000000000081526004016104c190612ed2565b6113e1611b9e565b73ffffffffffffffffffffffffffffffffffffffff1663d0eb66533384846040518463ffffffff1660e01b815260040161141d93929190612e16565b600060405180830381600087803b15801561143757600080fd5b505af115801561144b573d6000803e3d6000fd5b50505050611457611af1565b73ffffffffffffffffffffffffffffffffffffffff1663d9caed128333846040518463ffffffff1660e01b815260040161149393929190612e16565b602060405180830381600087803b1580156114ad57600080fd5b505af11580156114c1573d6000803e3d6000fd5b505050506040513d601f19601f820116820180604052508101906114e59190612b2d565b61151b576040517f08c379a00000000000000000000000000000000000000000000000000000000081526004016104c1906131cb565b5050565b6060600060016000876003811115611560577f4e487b7100000000000000000000000000000000000000000000000000000000600052602160045260246000fd5b6003811115611598577f4e487b7100000000000000000000000000000000000000000000000000000000600052602160045260246000fd5b815260200190815260200160002060009054906101000a900473ffffffffffffffffffffffffffffffffffffffff169050610e14818686868080602002602001604051908101604052809392919081815260200183836020028082843760009201919091525061216c92505050565b333214611640576040517f08c379a00000000000000000000000000000000000000000000000000000000081526004016104c190612ed2565b611648611bf6565b73ffffffffffffffffffffffffffffffffffffffff1663ee0862bf83836040518363ffffffff1660e01b8152600401611682929190612e47565b600060405180830381600087803b15801561169c57600080fd5b505af11580156116b0573d6000803e3d6000fd5b505050506116bc611b9e565b73ffffffffffffffffffffffffffffffffffffffff1663498d55eb3384846040518463ffffffff1660e01b81526004016116f893929190612e16565b600060405180830381600087803b15801561171257600080fd5b505af1158015611726573d6000803e3d6000fd5b505050505050565b600080546040517fd87fefd200000000000000000000000000000000000000000000000000000000815273ffffffffffffffffffffffffffffffffffffffff9091169063d87fefd29061178890600790869060040161335f565b60206040518083038186803b1580156117a057600080fd5b505afa1580156117b4573d6000803e3d6000fd5b505050506040513d601f19601f820116820180604052508101906117d89190612b2d565b90505b919050565b6060611820868685858080602002602001604051908101604052809392919081815260200183836020028082843760009201919091525061216c92505050565b905083816001835161183291906134b4565b81518110611869577f4e487b7100000000000000000000000000000000000000000000000000000000600052603260045260246000fd5b602002602001015110156118a9576040517f08c379a00000000000000000000000000000000000000000000000000000000081526004016104c1906132f3565b6118b1611af1565b73ffffffffffffffffffffffffffffffffffffffff1663d9caed1284846000818110611906577f4e487b7100000000000000000000000000000000000000000000000000000000600052603260045260246000fd5b905060200201602081019061191b9190612ac3565b6119c28987876000818110611959577f4e487b7100000000000000000000000000000000000000000000000000000000600052603260045260246000fd5b905060200201602081019061196e9190612ac3565b888860018181106119a8577f4e487b7100000000000000000000000000000000000000000000000000000000600052603260045260246000fd5b90506020020160208101906119bd9190612ac3565b6123b6565b846000815181106119fc577f4e487b7100000000000000000000000000000000000000000000000000000000600052603260045260246000fd5b60200260200101516040518463ffffffff1660e01b8152600401611a2293929190612e16565b602060405180830381600087803b158015611a3c57600080fd5b505af1158015611a50573d6000803e3d6000fd5b505050506040513d601f19601f82011682018060405250810190611a749190612b2d565b611aaa576040517f08c379a00000000000000000000000000000000000000000000000000000000081526004016104c19061307d565b6105758682858580806020026020016040519081016040528093929190818152602001838360200280828437600092019190915250611aec9250611af1915050565b612428565b600080546040517f3c9c8f9c00000000000000000000000000000000000000000000000000000000815273ffffffffffffffffffffffffffffffffffffffff90911690633c9c8f9c90611b4990606590600401613350565b60206040518083038186803b158015611b6157600080fd5b505afa158015611b75573d6000803e3d6000fd5b505050506040513d601f19601f82011682018060405250810190611b999190612ae6565b905090565b600080546040517f3c9c8f9c00000000000000000000000000000000000000000000000000000000815273ffffffffffffffffffffffffffffffffffffffff90911690633c9c8f9c90611b4990606890600401613350565b600080546040517f3c9c8f9c00000000000000000000000000000000000000000000000000000000815273ffffffffffffffffffffffffffffffffffffffff90911690633c9c8f9c90611b4990606690600401613350565b6060611c8e8686858580806020026020016040519081016040528093929190818152602001838360200280828437600092019190915250611f0292505050565b90508381600081518110611ccb577f4e487b7100000000000000000000000000000000000000000000000000000000600052603260045260246000fd5b602002602001015111156118a9576040517f08c379a00000000000000000000000000000000000000000000000000000000081526004016104c190613202565b600080546040517f3c9c8f9c00000000000000000000000000000000000000000000000000000000815273ffffffffffffffffffffffffffffffffffffffff90911690633c9c8f9c90611b4990606990600401613350565b600080611d6e611b9e565b73ffffffffffffffffffffffffffffffffffffffff16633500aa0b88888888886040518663ffffffff1660e01b8152600401611dae959493929190612dd5565b6040805180830381600087803b158015611dc757600080fd5b505af1158015611ddb573d6000803e3d6000fd5b505050506040513d601f19601f82011682018060405250810190611dff9190612cf7565b90925090508115611e7f57611e12611bf6565b73ffffffffffffffffffffffffffffffffffffffff16632a6a897b86846040518363ffffffff1660e01b8152600401611e4c929190612e47565b600060405180830381600087803b158015611e6657600080fd5b505af1158015611e7a573d6000803e3d6000fd5b505050505b801561079357611e8d611bf6565b73ffffffffffffffffffffffffffffffffffffffff1663ee0862bf86836040518363ffffffff1660e01b8152600401611ec7929190612e47565b600060405180830381600087803b158015611ee157600080fd5b505af1158015611ef5573d6000803e3d6000fd5b5050505050505050505050565b6060600282511015611f40576040517f08c379a00000000000000000000000000000000000000000000000000000000081526004016104c1906130da565b815167ffffffffffffffff811115611f81577f4e487b7100000000000000000000000000000000000000000000000000000000600052604160045260246000fd5b604051908082528060200260200182016040528015611faa578160200160208202803683370190505b509050828160018351611fbd91906134b4565b81518110611ff4577f4e487b7100000000000000000000000000000000000000000000000000000000600052603260045260246000fd5b60200260200101818152505060006001835161201091906134b4565b90505b8015612164576000806120b1878661202c6001876134b4565b81518110612063577f4e487b7100000000000000000000000000000000000000000000000000000000600052603260045260246000fd5b60200260200101518786815181106120a4577f4e487b7100000000000000000000000000000000000000000000000000000000600052603260045260246000fd5b60200260200101516126ad565b915091506121008484815181106120f1577f4e487b7100000000000000000000000000000000000000000000000000000000600052603260045260246000fd5b602002602001015183836127bb565b8461210c6001866134b4565b81518110612143577f4e487b7100000000000000000000000000000000000000000000000000000000600052603260045260246000fd5b6020026020010181815250505050808061215c906134cb565b915050612013565b509392505050565b60606002825110156121aa576040517f08c379a00000000000000000000000000000000000000000000000000000000081526004016104c1906130da565b815167ffffffffffffffff8111156121eb577f4e487b7100000000000000000000000000000000000000000000000000000000600052604160045260246000fd5b604051908082528060200260200182016040528015612214578160200160208202803683370190505b5090508281600081518110612252577f4e487b7100000000000000000000000000000000000000000000000000000000600052603260045260246000fd5b60200260200101818152505060005b6001835161226f91906134b4565b81101561216457600080612303878685815181106122b6577f4e487b7100000000000000000000000000000000000000000000000000000000600052603260045260246000fd5b6020026020010151878660016122cc9190613426565b815181106120a4577f4e487b7100000000000000000000000000000000000000000000000000000000600052603260045260246000fd5b91509150612352848481518110612343577f4e487b7100000000000000000000000000000000000000000000000000000000600052603260045260246000fd5b60200260200101518383612886565b8461235e856001613426565b81518110612395577f4e487b7100000000000000000000000000000000000000000000000000000000600052603260045260246000fd5b602002602001018181525050505080806123ae90613500565b915050612261565b60008060006123c58585612955565b915091508582826040516020016123dd929190612d1a565b60405160208183030381529060405280519060200120604051602001612404929190612d54565b6040516020818303038152906040528051906020012060601c925050509392505050565b60005b6001835161243991906134b4565b8110156108e15760008084838151811061247c577f4e487b7100000000000000000000000000000000000000000000000000000000600052603260045260246000fd5b6020026020010151858460016124929190613426565b815181106124c9577f4e487b7100000000000000000000000000000000000000000000000000000000600052603260045260246000fd5b60200260200101519150915060006124e18383612955565b5090506000876124f2866001613426565b81518110612529577f4e487b7100000000000000000000000000000000000000000000000000000000600052603260045260246000fd5b602002602001015190506000808373ffffffffffffffffffffffffffffffffffffffff168673ffffffffffffffffffffffffffffffffffffffff161461257157826000612575565b6000835b91509150600060028a5161258991906134b4565b881061259557886125ea565b6125ea8c878c6125a68c6002613426565b815181106125dd577f4e487b7100000000000000000000000000000000000000000000000000000000600052603260045260246000fd5b60200260200101516123b6565b90506125f78c88886123b6565b73ffffffffffffffffffffffffffffffffffffffff1663022c0d9f84848460006040519080825280601f01601f191660200182016040528015612641576020820181803683370190505b506040518563ffffffff1660e01b81526004016126619493929190613389565b600060405180830381600087803b15801561267b57600080fd5b505af115801561268f573d6000803e3d6000fd5b505050505050505050505080806126a590613500565b91505061242b565b60008060006126bc8585612955565b5090506000806126cd8888886123b6565b73ffffffffffffffffffffffffffffffffffffffff16630902f1ac6040518163ffffffff1660e01b815260040160606040518083038186803b15801561271257600080fd5b505afa158015612726573d6000803e3d6000fd5b505050506040513d601f19601f8201168201806040525081019061274a9190612c79565b506dffffffffffffffffffffffffffff1691506dffffffffffffffffffffffffffff1691508273ffffffffffffffffffffffffffffffffffffffff168773ffffffffffffffffffffffffffffffffffffffff16146127a95780826127ac565b81815b90999098509650505050505050565b60008084116127f6576040517f08c379a00000000000000000000000000000000000000000000000000000000081526004016104c190612fc3565b6000831180156128065750600082115b61283c576040517f08c379a00000000000000000000000000000000000000000000000000000000081526004016104c190613111565b60006128488585613477565b612854906103e8613477565b905060006103e561286587866134b4565b61286f91906134b4565b905061287b818361343e565b610e14906001613426565b60008084116128c1576040517f08c379a00000000000000000000000000000000000000000000000000000000081526004016104c190613296565b6000831180156128d15750600082115b612907576040517f08c379a00000000000000000000000000000000000000000000000000000000081526004016104c190613111565b6000612915856103e5613477565b905060006129238483613477565b9050600082612934876103e8613477565b61293e9190613426565b905061294a818361343e565b979650505050505050565b6000808273ffffffffffffffffffffffffffffffffffffffff168473ffffffffffffffffffffffffffffffffffffffff1614156129be576040517f08c379a00000000000000000000000000000000000000000000000000000000081526004016104c190613020565b8273ffffffffffffffffffffffffffffffffffffffff168473ffffffffffffffffffffffffffffffffffffffff16106129f85782846129fb565b83835b909250905073ffffffffffffffffffffffffffffffffffffffff8216612a4d576040517f08c379a00000000000000000000000000000000000000000000000000000000081526004016104c19061325f565b9250929050565b60008083601f840112612a65578182fd5b50813567ffffffffffffffff811115612a7c578182fd5b6020830191508360208083028501011115612a4d57600080fd5b8035600481106117db57600080fd5b80516dffffffffffffffffffffffffffff811681146117db57600080fd5b600060208284031215612ad4578081fd5b8135612adf81613568565b9392505050565b600060208284031215612af7578081fd5b8151612adf81613568565b60008060408385031215612b14578081fd5b8235612b1f81613568565b946020939093013593505050565b600060208284031215612b3e578081fd5b81518015158114612adf578182fd5b60008060008060608587031215612b62578182fd5b612b6b85612a96565b935060208501359250604085013567ffffffffffffffff811115612b8d578283fd5b612b9987828801612a54565b95989497509550505050565b600080600080600060808688031215612bbc578081fd5b612bc586612a96565b94506020860135935060408601359250606086013567ffffffffffffffff811115612bee578182fd5b612bfa88828901612a54565b969995985093965092949392505050565b60008060008060008060a08789031215612c23578081fd5b612c2c87612a96565b95506020870135945060408701359350606087013567ffffffffffffffff811115612c55578182fd5b612c6189828a01612a54565b979a9699509497949695608090950135949350505050565b600080600060608486031215612c8d578283fd5b612c9684612aa5565b9250612ca460208501612aa5565b9150604084015163ffffffff81168114612cbc578182fd5b809150509250925092565b600060208284031215612cd8578081fd5b5035919050565b600060208284031215612cf0578081fd5b5051919050565b60008060408385031215612d09578182fd5b505080516020909101519092909150565b7fffffffffffffffffffffffffffffffffffffffff000000000000000000000000606093841b811682529190921b16601482015260280190565b7fff00000000000000000000000000000000000000000000000000000000000000815260609290921b7fffffffffffffffffffffffffffffffffffffffff00000000000000000000000016600183015260158201527f96e8ac4277198ff8b6f785478aa9a39f403cb768dd02cbee326c3e7da348845f603582015260550190565b73ffffffffffffffffffffffffffffffffffffffff958616815293851660208501529190931660408301526060820192909252608081019190915260a00190565b73ffffffffffffffffffffffffffffffffffffffff9384168152919092166020820152604081019190915260600190565b73ffffffffffffffffffffffffffffffffffffffff929092168252602082015260400190565b6020808252825182820181905260009190848201906040850190845b81811015612ea557835183529284019291840191600101612e89565b50909695505050505050565b73ffffffffffffffffffffffffffffffffffffffff91909116815260200190565b6020808252603a908201527f43757272656e746c79206e6f20696e7465726d656469617269657320616c6c6f60408201527f77656420666f7220746869732066756e6374696f6e2063616c6c000000000000606082015260800190565b6020808252603e908201527f43616c6c696e6720636f6e7472616374206973206e6f7420617574686f72697a60408201527f656420746f20747261646520776974682070726f746f636c2066756e64730000606082015260800190565b60208082526018908201527f556e69737761705632526f757465723a20455850495245440000000000000000604082015260600190565b6020808252602c908201527f556e697377617056324c6962726172793a20494e53554646494349454e545f4f60408201527f55545055545f414d4f554e540000000000000000000000000000000000000000606082015260800190565b60208082526025908201527f556e697377617056324c6962726172793a204944454e544943414c5f4144445260408201527f4553534553000000000000000000000000000000000000000000000000000000606082015260800190565b60208082526028908201527f4d617267696e526f757465723a20496e73756666696369656e74206c656e646960408201527f6e672066756e6473000000000000000000000000000000000000000000000000606082015260800190565b6020808252601e908201527f556e697377617056324c6962726172793a20494e56414c49445f504154480000604082015260600190565b60208082526028908201527f556e697377617056324c6962726172793a20494e53554646494349454e545f4c60408201527f4951554944495459000000000000000000000000000000000000000000000000606082015260800190565b60208082526029908201527f43616e6e6f74207472616e73666572206465706f73697420746f206d6172676960408201527f6e206163636f756e740000000000000000000000000000000000000000000000606082015260800190565b6020808252601c908201527f436f756c64206e6f742077697468647261772066726f6d2066756e6400000000604082015260600190565b60208082526027908201527f556e69737761705632526f757465723a204558434553534956455f494e50555460408201527f5f414d4f554e5400000000000000000000000000000000000000000000000000606082015260800190565b6020808252601e908201527f556e697377617056324c6962726172793a205a45524f5f414444524553530000604082015260600190565b6020808252602b908201527f556e697377617056324c6962726172793a20494e53554646494349454e545f4960408201527f4e5055545f414d4f554e54000000000000000000000000000000000000000000606082015260800190565b60208082526028908201527f4d617267696e526f757465723a20494e53554646494349454e545f4f5554505560408201527f545f414d4f554e54000000000000000000000000000000000000000000000000606082015260800190565b61ffff91909116815260200190565b61ffff92909216825273ffffffffffffffffffffffffffffffffffffffff16602082015260400190565b60008582526020858184015273ffffffffffffffffffffffffffffffffffffffff85166040840152608060608401528351806080850152825b818110156133de5785810183015185820160a0015282016133c2565b818111156133ef578360a083870101525b50601f017fffffffffffffffffffffffffffffffffffffffffffffffffffffffffffffffe0169290920160a0019695505050505050565b6000821982111561343957613439613539565b500190565b600082613472577f4e487b710000000000000000000000000000000000000000000000000000000081526012600452602481fd5b500490565b6000817fffffffffffffffffffffffffffffffffffffffffffffffffffffffffffffffff04831182151516156134af576134af613539565b500290565b6000828210156134c6576134c6613539565b500390565b6000816134da576134da613539565b507fffffffffffffffffffffffffffffffffffffffffffffffffffffffffffffffff0190565b60007fffffffffffffffffffffffffffffffffffffffffffffffffffffffffffffffff82141561353257613532613539565b5060010190565b7f4e487b7100000000000000000000000000000000000000000000000000000000600052601160045260246000fd5b73ffffffffffffffffffffffffffffffffffffffff8116811461107657600080fdfea26469706673582212209b61be1799d1311c6a905d49d771b02f47fbc3149fddbc77cc81ba30b640651764736f6c63430008010033",
  "linkReferences": {},
  "deployedLinkReferences": {}
}