{
  "_format": "hh-sol-artifact-1",
  "contractName": "MarginRouter",
  "sourceName": "contracts/MarginRouter.sol",
  "abi": [
    {
      "inputs": [
        {
          "internalType": "address",
          "name": "uniswapFactory",
          "type": "address"
        },
        {
          "internalType": "address",
          "name": "sushiswapFactory",
          "type": "address"
        },
        {
          "internalType": "address",
          "name": "_WETH",
          "type": "address"
        },
        {
          "internalType": "address",
          "name": "_roles",
          "type": "address"
        }
      ],
      "stateMutability": "nonpayable",
      "type": "constructor"
    },
    {
      "inputs": [
        {
          "internalType": "enum AMM",
          "name": "amm",
          "type": "uint8"
        },
        {
          "internalType": "uint256",
          "name": "amountIn",
          "type": "uint256"
        },
        {
          "internalType": "uint256",
          "name": "amountOutMin",
          "type": "uint256"
        },
        {
          "internalType": "address[]",
          "name": "path",
          "type": "address[]"
        }
      ],
      "name": "authorizedSwapExactT4T",
      "outputs": [
        {
          "internalType": "uint256[]",
          "name": "",
          "type": "uint256[]"
        }
      ],
      "stateMutability": "nonpayable",
      "type": "function"
    },
    {
      "inputs": [
        {
          "internalType": "enum AMM",
          "name": "amm",
          "type": "uint8"
        },
        {
          "internalType": "uint256",
          "name": "amountOut",
          "type": "uint256"
        },
        {
          "internalType": "uint256",
          "name": "amountInMax",
          "type": "uint256"
        },
        {
          "internalType": "address[]",
          "name": "path",
          "type": "address[]"
        }
      ],
      "name": "authorizedSwapT4ExactT",
      "outputs": [
        {
          "internalType": "uint256[]",
          "name": "",
          "type": "uint256[]"
        }
      ],
      "stateMutability": "nonpayable",
      "type": "function"
    },
    {
      "inputs": [
        {
          "internalType": "address",
          "name": "borrowToken",
          "type": "address"
        },
        {
          "internalType": "uint256",
          "name": "borrowAmount",
          "type": "uint256"
        }
      ],
      "name": "crossBorrow",
      "outputs": [],
      "stateMutability": "nonpayable",
      "type": "function"
    },
    {
      "inputs": [
        {
          "internalType": "address",
          "name": "depositToken",
          "type": "address"
        },
        {
          "internalType": "uint256",
          "name": "depositAmount",
          "type": "uint256"
        }
      ],
      "name": "crossDeposit",
      "outputs": [],
      "stateMutability": "nonpayable",
      "type": "function"
    },
    {
      "inputs": [],
      "name": "crossDepositETH",
      "outputs": [],
      "stateMutability": "payable",
      "type": "function"
    },
    {
      "inputs": [
        {
          "internalType": "address",
          "name": "debtToken",
          "type": "address"
        },
        {
          "internalType": "uint256",
          "name": "extinguishAmount",
          "type": "uint256"
        }
      ],
      "name": "crossExtinguishDebt",
      "outputs": [],
      "stateMutability": "nonpayable",
      "type": "function"
    },
    {
      "inputs": [
        {
          "internalType": "enum AMM",
          "name": "amm",
          "type": "uint8"
        },
        {
          "internalType": "uint256",
          "name": "amountIn",
          "type": "uint256"
        },
        {
          "internalType": "uint256",
          "name": "amountOutMin",
          "type": "uint256"
        },
        {
          "internalType": "address[]",
          "name": "path",
          "type": "address[]"
        },
        {
          "internalType": "uint256",
          "name": "deadline",
          "type": "uint256"
        }
      ],
      "name": "crossSwapExactTokensForTokens",
      "outputs": [
        {
          "internalType": "uint256[]",
          "name": "amounts",
          "type": "uint256[]"
        }
      ],
      "stateMutability": "nonpayable",
      "type": "function"
    },
    {
      "inputs": [
        {
          "internalType": "enum AMM",
          "name": "amm",
          "type": "uint8"
        },
        {
          "internalType": "uint256",
          "name": "amountOut",
          "type": "uint256"
        },
        {
          "internalType": "uint256",
          "name": "amountInMax",
          "type": "uint256"
        },
        {
          "internalType": "address[]",
          "name": "path",
          "type": "address[]"
        },
        {
          "internalType": "uint256",
          "name": "deadline",
          "type": "uint256"
        }
      ],
      "name": "crossSwapTokensForExactTokens",
      "outputs": [
        {
          "internalType": "uint256[]",
          "name": "amounts",
          "type": "uint256[]"
        }
      ],
      "stateMutability": "nonpayable",
      "type": "function"
    },
    {
      "inputs": [
        {
          "internalType": "address",
          "name": "withdrawToken",
          "type": "address"
        },
        {
          "internalType": "uint256",
          "name": "withdrawAmount",
          "type": "uint256"
        }
      ],
      "name": "crossWithdraw",
      "outputs": [],
      "stateMutability": "nonpayable",
      "type": "function"
    },
    {
      "inputs": [
        {
          "internalType": "uint256",
          "name": "withdrawAmount",
          "type": "uint256"
        }
      ],
      "name": "crossWithdrawETH",
      "outputs": [],
      "stateMutability": "nonpayable",
      "type": "function"
    },
    {
      "inputs": [
        {
          "internalType": "enum AMM",
          "name": "amm",
          "type": "uint8"
        },
        {
          "internalType": "uint256",
          "name": "outAmount",
          "type": "uint256"
        },
        {
          "internalType": "address[]",
          "name": "path",
          "type": "address[]"
        }
      ],
      "name": "getAmountsIn",
      "outputs": [
        {
          "internalType": "uint256[]",
          "name": "",
          "type": "uint256[]"
        }
      ],
      "stateMutability": "view",
      "type": "function"
    },
    {
      "inputs": [
        {
          "internalType": "enum AMM",
          "name": "amm",
          "type": "uint8"
        },
        {
          "internalType": "uint256",
          "name": "inAmount",
          "type": "uint256"
        },
        {
          "internalType": "address[]",
          "name": "path",
          "type": "address[]"
        }
      ],
      "name": "getAmountsOut",
      "outputs": [
        {
          "internalType": "uint256[]",
          "name": "",
          "type": "uint256[]"
        }
      ],
      "stateMutability": "view",
      "type": "function"
    },
    {
      "inputs": [],
      "name": "roles",
      "outputs": [
        {
          "internalType": "contract Roles",
          "name": "",
          "type": "address"
        }
      ],
      "stateMutability": "view",
      "type": "function"
    }
  ],
  "bytecode": "0x60806040523480156200001157600080fd5b5060405162003603380380620036038339810160408190526200003491620000e9565b600080546001600160a01b03199081166001600160a01b03938416178255600160208190527fa6eef7e35abe7026729641147f7915573c7e97b47efa546f5f6e3230263bcb4980548316978516979097179096559490527fcc69885fda6bcc1a4ace058b4a62bf5e179ea78fd58a1ccd71c22cc9b688792f805485169382169390931790925560028054909316911617905562000145565b80516001600160a01b0381168114620000e457600080fd5b919050565b60008060008060808587031215620000ff578384fd5b6200010a85620000cc565b93506200011a60208601620000cc565b92506200012a60408601620000cc565b91506200013a60608601620000cc565b905092959194509250565b6134ae80620001556000396000f3fe6080604052600436106100d25760003560e01c806348eb4f3e1161007f578063a5f9a36211610059578063a5f9a362146101f9578063e3e0626b14610219578063eaa095f814610239578063eedb97c714610259576100d2565b806348eb4f3e146101b157806390b931ed146101d157806394427b20146101f1576100d2565b80631f2a6743116100b05780631f2a67431461014f5780632233c4361461016f578063392f5f641461018f576100d2565b80630aa29f1c146100d75780631306d9021461010d5780631dce3baa1461012f575b600080fd5b3480156100e357600080fd5b506100f76100f2366004612a6c565b610279565b6040516101049190612d4b565b60405180910390f35b34801561011957600080fd5b5061012d6101283660046129c9565b610377565b005b34801561013b57600080fd5b5061012d61014a366004612b8e565b61060c565b34801561015b57600080fd5b506100f761016a366004612a6c565b610752565b34801561017b57600080fd5b506100f761018a366004612ad2565b61083b565b34801561019b57600080fd5b506101a4610c5e565b6040516101049190612d8f565b3480156101bd57600080fd5b5061012d6101cc3660046129c9565b610c7a565b3480156101dd57600080fd5b506100f76101ec366004612a14565b610da1565b61012d610e93565b34801561020557600080fd5b506100f7610214366004612ad2565b6110ee565b34801561022557600080fd5b5061012d6102343660046129c9565b61143e565b34801561024557600080fd5b506100f7610254366004612a14565b6115bd565b34801561026557600080fd5b5061012d6102743660046129c9565b6116a5565b606061028433611796565b6102c3576040517f08c379a00000000000000000000000000000000000000000000000000000000081526004016102ba90612e27565b60405180910390fd5b61036b60016000886003811115610303577f4e487b7100000000000000000000000000000000000000000000000000000000600052602160045260246000fd5b600381111561033b577f4e487b7100000000000000000000000000000000000000000000000000000000600052602160045260246000fd5b815260208101919091526040016000205473ffffffffffffffffffffffffffffffffffffffff1686868686611848565b90505b95945050505050565b3332146103b0576040517f08c379a00000000000000000000000000000000000000000000000000000000081526004016102ba90612dca565b6103b8611b59565b73ffffffffffffffffffffffffffffffffffffffff1663b3db428b3384846040518463ffffffff1660e01b81526004016103f493929190612cba565b602060405180830381600087803b15801561040e57600080fd5b505af1158015610422573d6000803e3d6000fd5b505050506040513d601f19601f8201168201806040525081019061044691906129f4565b61047c576040517f08c379a00000000000000000000000000000000000000000000000000000000081526004016102ba90613066565b6000610486611c05565b73ffffffffffffffffffffffffffffffffffffffff166352a664d93385856040518463ffffffff1660e01b81526004016104c293929190612cba565b602060405180830381600087803b1580156104dc57600080fd5b505af11580156104f0573d6000803e3d6000fd5b505050506040513d601f19601f820116820180604052508101906105149190612ba6565b9050801561060757610524611c05565b73ffffffffffffffffffffffffffffffffffffffff1663b25777ad3385846040518463ffffffff1660e01b815260040161056093929190612cba565b600060405180830381600087803b15801561057a57600080fd5b505af115801561058e573d6000803e3d6000fd5b5050505061059a611c5d565b73ffffffffffffffffffffffffffffffffffffffff16632a6a897b84836040518363ffffffff1660e01b81526004016105d4929190612d25565b600060405180830381600087803b1580156105ee57600080fd5b505af1158015610602573d6000803e3d6000fd5b505050505b505050565b333214610645576040517f08c379a00000000000000000000000000000000000000000000000000000000081526004016102ba90612dca565b61064d611c05565b6002546040517fd0eb665300000000000000000000000000000000000000000000000000000000815273ffffffffffffffffffffffffffffffffffffffff9283169263d0eb6653926106a9923392909116908690600401612cba565b600060405180830381600087803b1580156106c357600080fd5b505af11580156106d7573d6000803e3d6000fd5b505050506106e3611b59565b73ffffffffffffffffffffffffffffffffffffffff16634782f77933836040518363ffffffff1660e01b815260040161071d929190612d25565b600060405180830381600087803b15801561073757600080fd5b505af115801561074b573d6000803e3d6000fd5b5050505050565b606061075d33611796565b610793576040517f08c379a00000000000000000000000000000000000000000000000000000000081526004016102ba90612e27565b61036b600160008860038111156107d3577f4e487b7100000000000000000000000000000000000000000000000000000000600052602160045260246000fd5b600381111561080b577f4e487b7100000000000000000000000000000000000000000000000000000000600052602160045260246000fd5b815260208101919091526040016000205473ffffffffffffffffffffffffffffffffffffffff1686868686611cb5565b6060333214610876576040517f08c379a00000000000000000000000000000000000000000000000000000000081526004016102ba90612dca565b81428110156108b1576040517f08c379a00000000000000000000000000000000000000000000000000000000081526004016102ba90612e84565b60006108bb611d72565b73ffffffffffffffffffffffffffffffffffffffff166367cbf42d87876108e3600182613373565b818110610919577f4e487b7100000000000000000000000000000000000000000000000000000000600052603260045260246000fd5b905060200201602081019061092e919061298a565b8a6040518363ffffffff1660e01b815260040161094c929190612d25565b602060405180830381600087803b15801561096657600080fd5b505af115801561097a573d6000803e3d6000fd5b505050506040513d601f19601f8201168201806040525081019061099e9190612ba6565b9050610a51600160008b60038111156109e0577f4e487b7100000000000000000000000000000000000000000000000000000000600052602160045260246000fd5b6003811115610a18577f4e487b7100000000000000000000000000000000000000000000000000000000600052602160045260246000fd5b815260208101919091526040016000205473ffffffffffffffffffffffffffffffffffffffff16610a49838b6132e5565b898989611cb5565b925060008686610a62600182613373565b818110610a98577f4e487b7100000000000000000000000000000000000000000000000000000000600052603260045260246000fd5b9050602002016020810190610aad919061298a565b90506000610ab9611c05565b73ffffffffffffffffffffffffffffffffffffffff16633500aa0b338a8a6000818110610b0f577f4e487b7100000000000000000000000000000000000000000000000000000000600052603260045260246000fd5b9050602002016020810190610b24919061298a565b8589600081518110610b5f577f4e487b7100000000000000000000000000000000000000000000000000000000600052603260045260246000fd5b60200260200101518f6040518663ffffffff1660e01b8152600401610b88959493929190612c79565b602060405180830381600087803b158015610ba257600080fd5b505af1158015610bb6573d6000803e3d6000fd5b505050506040513d601f19601f82011682018060405250810190610bda9190612ba6565b9050610be4611c5d565b73ffffffffffffffffffffffffffffffffffffffff1663ee0862bf83836040518363ffffffff1660e01b8152600401610c1e929190612d25565b600060405180830381600087803b158015610c3857600080fd5b505af1158015610c4c573d6000803e3d6000fd5b50505050505050509695505050505050565b60005473ffffffffffffffffffffffffffffffffffffffff1681565b333214610cb3576040517f08c379a00000000000000000000000000000000000000000000000000000000081526004016102ba90612dca565b610cbb611c05565b73ffffffffffffffffffffffffffffffffffffffff1663b25777ad3384846040518463ffffffff1660e01b8152600401610cf793929190612cba565b600060405180830381600087803b158015610d1157600080fd5b505af1158015610d25573d6000803e3d6000fd5b50505050610d31611c5d565b73ffffffffffffffffffffffffffffffffffffffff16632a6a897b83836040518363ffffffff1660e01b8152600401610d6b929190612d25565b600060405180830381600087803b158015610d8557600080fd5b505af1158015610d99573d6000803e3d6000fd5b505050505050565b6060600060016000876003811115610de2577f4e487b7100000000000000000000000000000000000000000000000000000000600052602160045260246000fd5b6003811115610e1a577f4e487b7100000000000000000000000000000000000000000000000000000000600052602160045260246000fd5b815260200190815260200160002060009054906101000a900473ffffffffffffffffffffffffffffffffffffffff169050610e898186868680806020026020016040519081016040528093929190818152602001838360200280828437600092019190915250611dc992505050565b9695505050505050565b333214610ecc576040517f08c379a00000000000000000000000000000000000000000000000000000000081526004016102ba90612dca565b610ed4611b59565b73ffffffffffffffffffffffffffffffffffffffff1663a6a5f9fe346040518263ffffffff1660e01b81526004016000604051808303818588803b158015610f1b57600080fd5b505af1158015610f2f573d6000803e3d6000fd5b50505050506000610f3e611c05565b6002546040517f52a664d900000000000000000000000000000000000000000000000000000000815273ffffffffffffffffffffffffffffffffffffffff928316926352a664d992610f9a923392909116903490600401612cba565b602060405180830381600087803b158015610fb457600080fd5b505af1158015610fc8573d6000803e3d6000fd5b505050506040513d601f19601f82011682018060405250810190610fec9190612ba6565b905080156110eb57610ffc611c05565b6002546040517fb25777ad00000000000000000000000000000000000000000000000000000000815273ffffffffffffffffffffffffffffffffffffffff9283169263b25777ad92611058923392909116908690600401612cba565b600060405180830381600087803b15801561107257600080fd5b505af1158015611086573d6000803e3d6000fd5b50505050611092611c5d565b6002546040517f2a6a897b00000000000000000000000000000000000000000000000000000000815273ffffffffffffffffffffffffffffffffffffffff92831692632a6a897b9261071d929116908590600401612d25565b50565b6060333214611129576040517f08c379a00000000000000000000000000000000000000000000000000000000081526004016102ba90612dca565b8142811015611164576040517f08c379a00000000000000000000000000000000000000000000000000000000081526004016102ba90612e84565b600061116e611d72565b73ffffffffffffffffffffffffffffffffffffffff16633f0e9edf878760008181106111c3577f4e487b7100000000000000000000000000000000000000000000000000000000600052603260045260246000fd5b90506020020160208101906111d8919061298a565b8a6040518363ffffffff1660e01b81526004016111f6929190612d25565b602060405180830381600087803b15801561121057600080fd5b505af1158015611224573d6000803e3d6000fd5b505050506040513d601f19601f820116820180604052508101906112489190612ba6565b90506112fb600160008b600381111561128a577f4e487b7100000000000000000000000000000000000000000000000000000000600052602160045260246000fd5b60038111156112c2577f4e487b7100000000000000000000000000000000000000000000000000000000600052602160045260246000fd5b815260208101919091526040016000205473ffffffffffffffffffffffffffffffffffffffff166112f3838b613373565b898989611848565b92506000868661130c600182613373565b818110611342577f4e487b7100000000000000000000000000000000000000000000000000000000600052603260045260246000fd5b9050602002016020810190611357919061298a565b90506000611363611c05565b73ffffffffffffffffffffffffffffffffffffffff16633500aa0b338a8a60008181106113b9577f4e487b7100000000000000000000000000000000000000000000000000000000600052603260045260246000fd5b90506020020160208101906113ce919061298a565b858e8a60018c516113df9190613373565b81518110611416577f4e487b7100000000000000000000000000000000000000000000000000000000600052603260045260246000fd5b60200260200101516040518663ffffffff1660e01b8152600401610b88959493929190612c79565b333214611477576040517f08c379a00000000000000000000000000000000000000000000000000000000081526004016102ba90612dca565b61147f611c05565b73ffffffffffffffffffffffffffffffffffffffff1663d0eb66533384846040518463ffffffff1660e01b81526004016114bb93929190612cba565b600060405180830381600087803b1580156114d557600080fd5b505af11580156114e9573d6000803e3d6000fd5b505050506114f5611b59565b73ffffffffffffffffffffffffffffffffffffffff1663d9caed128333846040518463ffffffff1660e01b815260040161153193929190612cba565b602060405180830381600087803b15801561154b57600080fd5b505af115801561155f573d6000803e3d6000fd5b505050506040513d601f19601f8201168201806040525081019061158391906129f4565b6115b9576040517f08c379a00000000000000000000000000000000000000000000000000000000081526004016102ba906130c3565b5050565b60606000600160008760038111156115fe577f4e487b7100000000000000000000000000000000000000000000000000000000600052602160045260246000fd5b6003811115611636577f4e487b7100000000000000000000000000000000000000000000000000000000600052602160045260246000fd5b815260200190815260200160002060009054906101000a900473ffffffffffffffffffffffffffffffffffffffff169050610e89818686868080602002602001604051908101604052809392919081815260200183836020028082843760009201919091525061203392505050565b3332146116de576040517f08c379a00000000000000000000000000000000000000000000000000000000081526004016102ba90612dca565b6116e6611c5d565b73ffffffffffffffffffffffffffffffffffffffff1663ee0862bf83836040518363ffffffff1660e01b8152600401611720929190612d25565b600060405180830381600087803b15801561173a57600080fd5b505af115801561174e573d6000803e3d6000fd5b5050505061175a611c05565b73ffffffffffffffffffffffffffffffffffffffff1663498d55eb3384846040518463ffffffff1660e01b8152600401610d6b93929190612cba565b600080546040517fa716b97f00000000000000000000000000000000000000000000000000000000815273ffffffffffffffffffffffffffffffffffffffff9091169063a716b97f906117f0908590600690600401612ceb565b60206040518083038186803b15801561180857600080fd5b505afa15801561181c573d6000803e3d6000fd5b505050506040513d601f19601f8201168201806040525081019061184091906129f4565b90505b919050565b6060611888868685858080602002602001604051908101604052809392919081815260200183836020028082843760009201919091525061203392505050565b905083816001835161189a9190613373565b815181106118d1577f4e487b7100000000000000000000000000000000000000000000000000000000600052603260045260246000fd5b60200260200101511015611911576040517f08c379a00000000000000000000000000000000000000000000000000000000081526004016102ba906131eb565b611919611b59565b73ffffffffffffffffffffffffffffffffffffffff1663d9caed128484600081811061196e577f4e487b7100000000000000000000000000000000000000000000000000000000600052603260045260246000fd5b9050602002016020810190611983919061298a565b611a2a89878760008181106119c1577f4e487b7100000000000000000000000000000000000000000000000000000000600052603260045260246000fd5b90506020020160208101906119d6919061298a565b88886001818110611a10577f4e487b7100000000000000000000000000000000000000000000000000000000600052603260045260246000fd5b9050602002016020810190611a25919061298a565b61227d565b84600081518110611a64577f4e487b7100000000000000000000000000000000000000000000000000000000600052603260045260246000fd5b60200260200101516040518463ffffffff1660e01b8152600401611a8a93929190612cba565b602060405180830381600087803b158015611aa457600080fd5b505af1158015611ab8573d6000803e3d6000fd5b505050506040513d601f19601f82011682018060405250810190611adc91906129f4565b611b12576040517f08c379a00000000000000000000000000000000000000000000000000000000081526004016102ba90612f75565b61036e8682858580806020026020016040519081016040528093929190818152602001838360200280828437600092019190915250611b549250611b59915050565b6122ef565b600080546040517f36214c7800000000000000000000000000000000000000000000000000000000815273ffffffffffffffffffffffffffffffffffffffff909116906336214c7890611bb0908490600401612db0565b60206040518083038186803b158015611bc857600080fd5b505afa158015611bdc573d6000803e3d6000fd5b505050506040513d601f19601f82011682018060405250810190611c0091906129ad565b905090565b600080546040517f36214c7800000000000000000000000000000000000000000000000000000000815273ffffffffffffffffffffffffffffffffffffffff909116906336214c7890611bb090600390600401612db0565b600080546040517f36214c7800000000000000000000000000000000000000000000000000000000815273ffffffffffffffffffffffffffffffffffffffff909116906336214c7890611bb090600190600401612db0565b6060611cf58686858580806020026020016040519081016040528093929190818152602001838360200280828437600092019190915250611dc992505050565b90508381600081518110611d32577f4e487b7100000000000000000000000000000000000000000000000000000000600052603260045260246000fd5b60200260200101511115611911576040517f08c379a00000000000000000000000000000000000000000000000000000000081526004016102ba906130fa565b600080546040517f36214c7800000000000000000000000000000000000000000000000000000000815273ffffffffffffffffffffffffffffffffffffffff909116906336214c7890611bb0906004908101612db0565b6060600282511015611e07576040517f08c379a00000000000000000000000000000000000000000000000000000000081526004016102ba90612fd2565b815167ffffffffffffffff811115611e48577f4e487b7100000000000000000000000000000000000000000000000000000000600052604160045260246000fd5b604051908082528060200260200182016040528015611e71578160200160208202803683370190505b509050828160018351611e849190613373565b81518110611ebb577f4e487b7100000000000000000000000000000000000000000000000000000000600052603260045260246000fd5b602002602001018181525050600060018351611ed79190613373565b90505b801561202b57600080611f788786611ef3600187613373565b81518110611f2a577f4e487b7100000000000000000000000000000000000000000000000000000000600052603260045260246000fd5b6020026020010151878681518110611f6b577f4e487b7100000000000000000000000000000000000000000000000000000000600052603260045260246000fd5b6020026020010151612574565b91509150611fc7848481518110611fb8577f4e487b7100000000000000000000000000000000000000000000000000000000600052603260045260246000fd5b60200260200101518383612682565b84611fd3600186613373565b8151811061200a577f4e487b7100000000000000000000000000000000000000000000000000000000600052603260045260246000fd5b602002602001018181525050505080806120239061338a565b915050611eda565b509392505050565b6060600282511015612071576040517f08c379a00000000000000000000000000000000000000000000000000000000081526004016102ba90612fd2565b815167ffffffffffffffff8111156120b2577f4e487b7100000000000000000000000000000000000000000000000000000000600052604160045260246000fd5b6040519080825280602002602001820160405280156120db578160200160208202803683370190505b5090508281600081518110612119577f4e487b7100000000000000000000000000000000000000000000000000000000600052603260045260246000fd5b60200260200101818152505060005b600183516121369190613373565b81101561202b576000806121ca8786858151811061217d577f4e487b7100000000000000000000000000000000000000000000000000000000600052603260045260246000fd5b60200260200101518786600161219391906132e5565b81518110611f6b577f4e487b7100000000000000000000000000000000000000000000000000000000600052603260045260246000fd5b9150915061221984848151811061220a577f4e487b7100000000000000000000000000000000000000000000000000000000600052603260045260246000fd5b6020026020010151838361274d565b846122258560016132e5565b8151811061225c577f4e487b7100000000000000000000000000000000000000000000000000000000600052603260045260246000fd5b60200260200101818152505050508080612275906133bf565b915050612128565b600080600061228c858561281c565b915091508582826040516020016122a4929190612bbe565b604051602081830303815290604052805190602001206040516020016122cb929190612bf8565b6040516020818303038152906040528051906020012060601c925050509392505050565b60005b600183516123009190613373565b81101561074b57600080848381518110612343577f4e487b7100000000000000000000000000000000000000000000000000000000600052603260045260246000fd5b60200260200101518584600161235991906132e5565b81518110612390577f4e487b7100000000000000000000000000000000000000000000000000000000600052603260045260246000fd5b60200260200101519150915060006123a8838361281c565b5090506000876123b98660016132e5565b815181106123f0577f4e487b7100000000000000000000000000000000000000000000000000000000600052603260045260246000fd5b602002602001015190506000808373ffffffffffffffffffffffffffffffffffffffff168673ffffffffffffffffffffffffffffffffffffffff16146124385782600061243c565b6000835b91509150600060028a516124509190613373565b881061245c57886124b1565b6124b18c878c61246d8c60026132e5565b815181106124a4577f4e487b7100000000000000000000000000000000000000000000000000000000600052603260045260246000fd5b602002602001015161227d565b90506124be8c888861227d565b73ffffffffffffffffffffffffffffffffffffffff1663022c0d9f84848460006040519080825280601f01601f191660200182016040528015612508576020820181803683370190505b506040518563ffffffff1660e01b81526004016125289493929190613248565b600060405180830381600087803b15801561254257600080fd5b505af1158015612556573d6000803e3d6000fd5b5050505050505050505050808061256c906133bf565b9150506122f2565b6000806000612583858561281c565b50905060008061259488888861227d565b73ffffffffffffffffffffffffffffffffffffffff16630902f1ac6040518163ffffffff1660e01b815260040160606040518083038186803b1580156125d957600080fd5b505afa1580156125ed573d6000803e3d6000fd5b505050506040513d601f19601f820116820180604052508101906126119190612b40565b506dffffffffffffffffffffffffffff1691506dffffffffffffffffffffffffffff1691508273ffffffffffffffffffffffffffffffffffffffff168773ffffffffffffffffffffffffffffffffffffffff1614612670578082612673565b81815b90999098509650505050505050565b60008084116126bd576040517f08c379a00000000000000000000000000000000000000000000000000000000081526004016102ba90612ebb565b6000831180156126cd5750600082115b612703576040517f08c379a00000000000000000000000000000000000000000000000000000000081526004016102ba90613009565b600061270f8585613336565b61271b906103e8613336565b905060006103e561272c8786613373565b6127369190613373565b905061274281836132fd565b610e899060016132e5565b6000808411612788576040517f08c379a00000000000000000000000000000000000000000000000000000000081526004016102ba9061318e565b6000831180156127985750600082115b6127ce576040517f08c379a00000000000000000000000000000000000000000000000000000000081526004016102ba90613009565b60006127dc856103e5613336565b905060006127ea8483613336565b90506000826127fb876103e8613336565b61280591906132e5565b905061281181836132fd565b979650505050505050565b6000808273ffffffffffffffffffffffffffffffffffffffff168473ffffffffffffffffffffffffffffffffffffffff161415612885576040517f08c379a00000000000000000000000000000000000000000000000000000000081526004016102ba90612f18565b8273ffffffffffffffffffffffffffffffffffffffff168473ffffffffffffffffffffffffffffffffffffffff16106128bf5782846128c2565b83835b909250905073ffffffffffffffffffffffffffffffffffffffff8216612914576040517f08c379a00000000000000000000000000000000000000000000000000000000081526004016102ba90613157565b9250929050565b60008083601f84011261292c578182fd5b50813567ffffffffffffffff811115612943578182fd5b602083019150836020808302850101111561291457600080fd5b80356004811061184357600080fd5b80516dffffffffffffffffffffffffffff8116811461184357600080fd5b60006020828403121561299b578081fd5b81356129a681613456565b9392505050565b6000602082840312156129be578081fd5b81516129a681613456565b600080604083850312156129db578081fd5b82356129e681613456565b946020939093013593505050565b600060208284031215612a05578081fd5b815180151581146129a6578182fd5b60008060008060608587031215612a29578182fd5b612a328561295d565b935060208501359250604085013567ffffffffffffffff811115612a54578283fd5b612a608782880161291b565b95989497509550505050565b600080600080600060808688031215612a83578081fd5b612a8c8661295d565b94506020860135935060408601359250606086013567ffffffffffffffff811115612ab5578182fd5b612ac18882890161291b565b969995985093965092949392505050565b60008060008060008060a08789031215612aea578081fd5b612af38761295d565b95506020870135945060408701359350606087013567ffffffffffffffff811115612b1c578182fd5b612b2889828a0161291b565b979a9699509497949695608090950135949350505050565b600080600060608486031215612b54578283fd5b612b5d8461296c565b9250612b6b6020850161296c565b9150604084015163ffffffff81168114612b83578182fd5b809150509250925092565b600060208284031215612b9f578081fd5b5035919050565b600060208284031215612bb7578081fd5b5051919050565b7fffffffffffffffffffffffffffffffffffffffff000000000000000000000000606093841b811682529190921b16601482015260280190565b7fff00000000000000000000000000000000000000000000000000000000000000815260609290921b7fffffffffffffffffffffffffffffffffffffffff00000000000000000000000016600183015260158201527f96e8ac4277198ff8b6f785478aa9a39f403cb768dd02cbee326c3e7da348845f603582015260550190565b73ffffffffffffffffffffffffffffffffffffffff958616815293851660208501529190931660408301526060820192909252608081019190915260a00190565b73ffffffffffffffffffffffffffffffffffffffff9384168152919092166020820152604081019190915260600190565b73ffffffffffffffffffffffffffffffffffffffff831681526040810160088310612d1857612d18613427565b8260208301529392505050565b73ffffffffffffffffffffffffffffffffffffffff929092168252602082015260400190565b6020808252825182820181905260009190848201906040850190845b81811015612d8357835183529284019291840191600101612d67565b50909695505050505050565b73ffffffffffffffffffffffffffffffffffffffff91909116815260200190565b6020810160068310612dc457612dc4613427565b91905290565b6020808252603a908201527f43757272656e746c79206e6f20696e7465726d656469617269657320616c6c6f60408201527f77656420666f7220746869732066756e6374696f6e2063616c6c000000000000606082015260800190565b6020808252603e908201527f43616c6c696e6720636f6e7472616374206973206e6f7420617574686f72697a60408201527f656420746f20747261646520776974682070726f746f636c2066756e64730000606082015260800190565b60208082526018908201527f556e69737761705632526f757465723a20455850495245440000000000000000604082015260600190565b6020808252602c908201527f556e697377617056324c6962726172793a20494e53554646494349454e545f4f60408201527f55545055545f414d4f554e540000000000000000000000000000000000000000606082015260800190565b60208082526025908201527f556e697377617056324c6962726172793a204944454e544943414c5f4144445260408201527f4553534553000000000000000000000000000000000000000000000000000000606082015260800190565b60208082526028908201527f4d617267696e526f757465723a20496e73756666696369656e74206c656e646960408201527f6e672066756e6473000000000000000000000000000000000000000000000000606082015260800190565b6020808252601e908201527f556e697377617056324c6962726172793a20494e56414c49445f504154480000604082015260600190565b60208082526028908201527f556e697377617056324c6962726172793a20494e53554646494349454e545f4c60408201527f4951554944495459000000000000000000000000000000000000000000000000606082015260800190565b60208082526029908201527f43616e6e6f74207472616e73666572206465706f73697420746f206d6172676960408201527f6e206163636f756e740000000000000000000000000000000000000000000000606082015260800190565b6020808252601c908201527f436f756c64206e6f742077697468647261772066726f6d2066756e6400000000604082015260600190565b60208082526027908201527f556e69737761705632526f757465723a204558434553534956455f494e50555460408201527f5f414d4f554e5400000000000000000000000000000000000000000000000000606082015260800190565b6020808252601e908201527f556e697377617056324c6962726172793a205a45524f5f414444524553530000604082015260600190565b6020808252602b908201527f556e697377617056324c6962726172793a20494e53554646494349454e545f4960408201527f4e5055545f414d4f554e54000000000000000000000000000000000000000000606082015260800190565b60208082526028908201527f4d617267696e526f757465723a20494e53554646494349454e545f4f5554505560408201527f545f414d4f554e54000000000000000000000000000000000000000000000000606082015260800190565b60008582526020858184015273ffffffffffffffffffffffffffffffffffffffff85166040840152608060608401528351806080850152825b8181101561329d5785810183015185820160a001528201613281565b818111156132ae578360a083870101525b50601f017fffffffffffffffffffffffffffffffffffffffffffffffffffffffffffffffe0169290920160a0019695505050505050565b600082198211156132f8576132f86133f8565b500190565b600082613331577f4e487b710000000000000000000000000000000000000000000000000000000081526012600452602481fd5b500490565b6000817fffffffffffffffffffffffffffffffffffffffffffffffffffffffffffffffff048311821515161561336e5761336e6133f8565b500290565b600082821015613385576133856133f8565b500390565b600081613399576133996133f8565b507fffffffffffffffffffffffffffffffffffffffffffffffffffffffffffffffff0190565b60007fffffffffffffffffffffffffffffffffffffffffffffffffffffffffffffffff8214156133f1576133f16133f8565b5060010190565b7f4e487b7100000000000000000000000000000000000000000000000000000000600052601160045260246000fd5b7f4e487b7100000000000000000000000000000000000000000000000000000000600052602160045260246000fd5b73ffffffffffffffffffffffffffffffffffffffff811681146110eb57600080fdfea2646970667358221220733c2083135db7e782fd7c2018a7229b6f8302c6153bad8575b50dfa8c0e972364736f6c63430008010033",
  "linkReferences": {},
  "deployedLinkReferences": {}
}