{
  "_format": "hh-sol-artifact-1",
  "contractName": "MarginRouter",
  "sourceName": "contracts/MarginRouter.sol",
  "abi": [
    {
      "inputs": [
        {
          "internalType": "address",
          "name": "uniswapFactory",
          "type": "address"
        },
        {
          "internalType": "address",
          "name": "sushiswapFactory",
          "type": "address"
        },
        {
          "internalType": "address",
          "name": "_WETH",
          "type": "address"
        },
        {
          "internalType": "address",
          "name": "_roles",
          "type": "address"
        }
      ],
      "stateMutability": "nonpayable",
      "type": "constructor"
    },
    {
      "anonymous": false,
      "inputs": [
        {
          "indexed": false,
          "internalType": "address",
          "name": "trader",
          "type": "address"
        },
        {
          "indexed": false,
          "internalType": "address",
          "name": "borrowToken",
          "type": "address"
        },
        {
          "indexed": false,
          "internalType": "uint256",
          "name": "borrowAmount",
          "type": "uint256"
        }
      ],
      "name": "CrossBorrow",
      "type": "event"
    },
    {
      "anonymous": false,
      "inputs": [
        {
          "indexed": false,
          "internalType": "address",
          "name": "trader",
          "type": "address"
        },
        {
          "indexed": false,
          "internalType": "address",
          "name": "depositToken",
          "type": "address"
        },
        {
          "indexed": false,
          "internalType": "uint256",
          "name": "depositAmount",
          "type": "uint256"
        }
      ],
      "name": "CrossDeposit",
      "type": "event"
    },
    {
      "anonymous": false,
      "inputs": [
        {
          "indexed": false,
          "internalType": "address",
          "name": "trader",
          "type": "address"
        },
        {
          "indexed": false,
          "internalType": "address",
          "name": "inToken",
          "type": "address"
        },
        {
          "indexed": false,
          "internalType": "uint256",
          "name": "inTokenAmount",
          "type": "uint256"
        },
        {
          "indexed": false,
          "internalType": "uint256",
          "name": "inTokenBorrow",
          "type": "uint256"
        },
        {
          "indexed": false,
          "internalType": "address",
          "name": "outToken",
          "type": "address"
        },
        {
          "indexed": false,
          "internalType": "uint256",
          "name": "outTokenAmount",
          "type": "uint256"
        },
        {
          "indexed": false,
          "internalType": "uint256",
          "name": "outTokenExtinguish",
          "type": "uint256"
        }
      ],
      "name": "CrossTrade",
      "type": "event"
    },
    {
      "anonymous": false,
      "inputs": [
        {
          "indexed": false,
          "internalType": "address",
          "name": "trader",
          "type": "address"
        },
        {
          "indexed": false,
          "internalType": "address",
          "name": "withdrawToken",
          "type": "address"
        },
        {
          "indexed": false,
          "internalType": "uint256",
          "name": "withdrawAmount",
          "type": "uint256"
        }
      ],
      "name": "CrossWithdraw",
      "type": "event"
    },
    {
      "inputs": [],
      "name": "ADMIN",
      "outputs": [
        {
          "internalType": "uint16",
          "name": "",
          "type": "uint16"
        }
      ],
      "stateMutability": "view",
      "type": "function"
    },
    {
      "inputs": [],
      "name": "AUTHORIZED_FUND_TRADER",
      "outputs": [
        {
          "internalType": "uint16",
          "name": "",
          "type": "uint16"
        }
      ],
      "stateMutability": "view",
      "type": "function"
    },
    {
      "inputs": [],
      "name": "BORROWER",
      "outputs": [
        {
          "internalType": "uint16",
          "name": "",
          "type": "uint16"
        }
      ],
      "stateMutability": "view",
      "type": "function"
    },
    {
      "inputs": [],
      "name": "FEE_CONTROLLER",
      "outputs": [
        {
          "internalType": "uint16",
          "name": "",
          "type": "uint16"
        }
      ],
      "stateMutability": "view",
      "type": "function"
    },
    {
      "inputs": [],
      "name": "FEE_SOURCE",
      "outputs": [
        {
          "internalType": "uint16",
          "name": "",
          "type": "uint16"
        }
      ],
      "stateMutability": "view",
      "type": "function"
    },
    {
      "inputs": [],
      "name": "FUND",
      "outputs": [
        {
          "internalType": "uint16",
          "name": "",
          "type": "uint16"
        }
      ],
      "stateMutability": "view",
      "type": "function"
    },
    {
      "inputs": [],
      "name": "INCENTIVE_DISTRIBUTION",
      "outputs": [
        {
          "internalType": "uint16",
          "name": "",
          "type": "uint16"
        }
      ],
      "stateMutability": "view",
      "type": "function"
    },
    {
      "inputs": [],
      "name": "INCENTIVE_REPORTER",
      "outputs": [
        {
          "internalType": "uint16",
          "name": "",
          "type": "uint16"
        }
      ],
      "stateMutability": "view",
      "type": "function"
    },
    {
      "inputs": [],
      "name": "LENDING",
      "outputs": [
        {
          "internalType": "uint16",
          "name": "",
          "type": "uint16"
        }
      ],
      "stateMutability": "view",
      "type": "function"
    },
    {
      "inputs": [],
      "name": "LIQUIDATOR",
      "outputs": [
        {
          "internalType": "uint16",
          "name": "",
          "type": "uint16"
        }
      ],
      "stateMutability": "view",
      "type": "function"
    },
    {
      "inputs": [],
      "name": "MARGIN_CALLER",
      "outputs": [
        {
          "internalType": "uint16",
          "name": "",
          "type": "uint16"
        }
      ],
      "stateMutability": "view",
      "type": "function"
    },
    {
      "inputs": [],
      "name": "MARGIN_TRADER",
      "outputs": [
        {
          "internalType": "uint16",
          "name": "",
          "type": "uint16"
        }
      ],
      "stateMutability": "view",
      "type": "function"
    },
    {
      "inputs": [],
      "name": "MARGIN_TRADING",
      "outputs": [
        {
          "internalType": "uint16",
          "name": "",
          "type": "uint16"
        }
      ],
      "stateMutability": "view",
      "type": "function"
    },
    {
      "inputs": [],
      "name": "PRICE_CONTROLLER",
      "outputs": [
        {
          "internalType": "uint16",
          "name": "",
          "type": "uint16"
        }
      ],
      "stateMutability": "view",
      "type": "function"
    },
    {
      "inputs": [],
      "name": "ROUTER",
      "outputs": [
        {
          "internalType": "uint16",
          "name": "",
          "type": "uint16"
        }
      ],
      "stateMutability": "view",
      "type": "function"
    },
    {
      "inputs": [],
      "name": "TOKEN_ACTIVATOR",
      "outputs": [
        {
          "internalType": "uint16",
          "name": "",
          "type": "uint16"
        }
      ],
      "stateMutability": "view",
      "type": "function"
    },
    {
      "inputs": [],
      "name": "WITHDRAWER",
      "outputs": [
        {
          "internalType": "uint16",
          "name": "",
          "type": "uint16"
        }
      ],
      "stateMutability": "view",
      "type": "function"
    },
    {
      "inputs": [
        {
          "internalType": "enum AMM",
          "name": "amm",
          "type": "uint8"
        },
        {
          "internalType": "uint256",
          "name": "amountIn",
          "type": "uint256"
        },
        {
          "internalType": "uint256",
          "name": "amountOutMin",
          "type": "uint256"
        },
        {
          "internalType": "address[]",
          "name": "path",
          "type": "address[]"
        }
      ],
      "name": "authorizedSwapExactT4T",
      "outputs": [
        {
          "internalType": "uint256[]",
          "name": "",
          "type": "uint256[]"
        }
      ],
      "stateMutability": "nonpayable",
      "type": "function"
    },
    {
      "inputs": [
        {
          "internalType": "enum AMM",
          "name": "amm",
          "type": "uint8"
        },
        {
          "internalType": "uint256",
          "name": "amountOut",
          "type": "uint256"
        },
        {
          "internalType": "uint256",
          "name": "amountInMax",
          "type": "uint256"
        },
        {
          "internalType": "address[]",
          "name": "path",
          "type": "address[]"
        }
      ],
      "name": "authorizedSwapT4ExactT",
      "outputs": [
        {
          "internalType": "uint256[]",
          "name": "",
          "type": "uint256[]"
        }
      ],
      "stateMutability": "nonpayable",
      "type": "function"
    },
    {
      "inputs": [
        {
          "internalType": "address",
          "name": "",
          "type": "address"
        },
        {
          "internalType": "address",
          "name": "",
          "type": "address"
        }
      ],
      "name": "claimIds",
      "outputs": [
        {
          "internalType": "uint256",
          "name": "",
          "type": "uint256"
        }
      ],
      "stateMutability": "view",
      "type": "function"
    },
    {
      "inputs": [
        {
          "internalType": "address",
          "name": "borrowToken",
          "type": "address"
        },
        {
          "internalType": "uint256",
          "name": "borrowAmount",
          "type": "uint256"
        }
      ],
      "name": "crossBorrow",
      "outputs": [],
      "stateMutability": "nonpayable",
      "type": "function"
    },
    {
      "inputs": [
        {
          "internalType": "address",
          "name": "depositToken",
          "type": "address"
        },
        {
          "internalType": "uint256",
          "name": "depositAmount",
          "type": "uint256"
        }
      ],
      "name": "crossDeposit",
      "outputs": [],
      "stateMutability": "nonpayable",
      "type": "function"
    },
    {
      "inputs": [],
      "name": "crossDepositETH",
      "outputs": [],
      "stateMutability": "payable",
      "type": "function"
    },
    {
      "inputs": [
        {
          "internalType": "enum AMM",
          "name": "amm",
          "type": "uint8"
        },
        {
          "internalType": "uint256",
          "name": "amountIn",
          "type": "uint256"
        },
        {
          "internalType": "uint256",
          "name": "amountOutMin",
          "type": "uint256"
        },
        {
          "internalType": "address[]",
          "name": "path",
          "type": "address[]"
        },
        {
          "internalType": "uint256",
          "name": "deadline",
          "type": "uint256"
        }
      ],
      "name": "crossSwapExactTokensForTokens",
      "outputs": [
        {
          "internalType": "uint256[]",
          "name": "amounts",
          "type": "uint256[]"
        }
      ],
      "stateMutability": "nonpayable",
      "type": "function"
    },
    {
      "inputs": [
        {
          "internalType": "enum AMM",
          "name": "amm",
          "type": "uint8"
        },
        {
          "internalType": "uint256",
          "name": "amountOut",
          "type": "uint256"
        },
        {
          "internalType": "uint256",
          "name": "amountInMax",
          "type": "uint256"
        },
        {
          "internalType": "address[]",
          "name": "path",
          "type": "address[]"
        },
        {
          "internalType": "uint256",
          "name": "deadline",
          "type": "uint256"
        }
      ],
      "name": "crossSwapTokensForExactTokens",
      "outputs": [
        {
          "internalType": "uint256[]",
          "name": "amounts",
          "type": "uint256[]"
        }
      ],
      "stateMutability": "nonpayable",
      "type": "function"
    },
    {
      "inputs": [
        {
          "internalType": "address",
          "name": "withdrawToken",
          "type": "address"
        },
        {
          "internalType": "uint256",
          "name": "withdrawAmount",
          "type": "uint256"
        }
      ],
      "name": "crossWithdraw",
      "outputs": [],
      "stateMutability": "nonpayable",
      "type": "function"
    },
    {
      "inputs": [
        {
          "internalType": "uint256",
          "name": "withdrawAmount",
          "type": "uint256"
        }
      ],
      "name": "crossWithdrawETH",
      "outputs": [],
      "stateMutability": "nonpayable",
      "type": "function"
    },
    {
      "inputs": [
        {
          "internalType": "enum AMM",
          "name": "amm",
          "type": "uint8"
        },
        {
          "internalType": "uint256",
          "name": "outAmount",
          "type": "uint256"
        },
        {
          "internalType": "address[]",
          "name": "path",
          "type": "address[]"
        }
      ],
      "name": "getAmountsIn",
      "outputs": [
        {
          "internalType": "uint256[]",
          "name": "",
          "type": "uint256[]"
        }
      ],
      "stateMutability": "view",
      "type": "function"
    },
    {
      "inputs": [
        {
          "internalType": "enum AMM",
          "name": "amm",
          "type": "uint8"
        },
        {
          "internalType": "uint256",
          "name": "inAmount",
          "type": "uint256"
        },
        {
          "internalType": "address[]",
          "name": "path",
          "type": "address[]"
        }
      ],
      "name": "getAmountsOut",
      "outputs": [
        {
          "internalType": "uint256[]",
          "name": "",
          "type": "uint256[]"
        }
      ],
      "stateMutability": "view",
      "type": "function"
    },
    {
      "inputs": [
        {
          "internalType": "address",
          "name": "",
          "type": "address"
        }
      ],
      "name": "incentiveTranches",
      "outputs": [
        {
          "internalType": "uint8",
          "name": "",
          "type": "uint8"
        }
      ],
      "stateMutability": "view",
      "type": "function"
    },
    {
      "inputs": [],
      "name": "roles",
      "outputs": [
        {
          "internalType": "contract Roles",
          "name": "",
          "type": "address"
        }
      ],
      "stateMutability": "view",
      "type": "function"
    },
    {
      "inputs": [
        {
          "internalType": "address",
          "name": "token",
          "type": "address"
        },
        {
          "internalType": "uint8",
          "name": "tranche",
          "type": "uint8"
        }
      ],
      "name": "setIncentiveTranche",
      "outputs": [],
      "stateMutability": "nonpayable",
      "type": "function"
    }
  ],
  "bytecode": "0x60806040523480156200001157600080fd5b5060405162003e9c38038062003e9c8339810160408190526200003491620000e8565b600080546001600160a01b03199081166001600160a01b0393841617825560036020527f3617319a054d772f909f7c479a2cebe5066e836a939412e32403c99029b92eff8054821696841696909617909555600190527fa15bc60c955c405d20d9149c709e2460f1c2d9a497496a7f46004d1772c3054c805485169382169390931790925560048054909316911617905562000144565b80516001600160a01b0381168114620000e357600080fd5b919050565b60008060008060808587031215620000fe578384fd5b6200010985620000cb565b93506200011960208601620000cb565b92506200012960408601620000cb565b91506200013960608601620000cb565b905092959194509250565b613d4880620001546000396000f3fe6080604052600436106101e35760003560e01c80636694198411610102578063a94c7c3411610095578063d5d7ed7f11610064578063d5d7ed7f146104e1578063e3e0626b146104f6578063eaa095f814610516578063eedb97c714610536576101e3565b8063a94c7c341461048d578063a9cc0536146104a2578063c76139d0146104b7578063cacf8d45146104cc576101e3565b806390b931ed116100d157806390b931ed1461043057806394427b2014610450578063a0098d6914610458578063a5f9a3621461046d576101e3565b806366941984146103c457806381ca6600146103d957806383a49c7c146103ee5780638824cbba14610403576101e3565b80632a0acc6a1161017a57806346b887961161014957806346b887961461035857806348fb27b81461036d5780635adbeb15146103825780635c275a39146103af576101e3565b80632a0acc6a146102f75780632fe94def1461030c57806332fe7b2614610321578063392f5f6414610336576101e3565b80631dce3baa116101b65780631dce3baa146102775780631f2a6743146102975780632233c436146102b75780632864f401146102d7576101e3565b8063065d570f146101e85780630aa29f1c146102135780631306d902146102405780631bc5d81d14610262575b600080fd5b3480156101f457600080fd5b506101fd610556565b60405161020a9190613a72565b60405180910390f35b34801561021f57600080fd5b5061023361022e36600461321a565b61055b565b60405161020a9190613532565b34801561024c57600080fd5b5061026061025b366004613145565b610659565b005b34801561026e57600080fd5b506101fd6108bd565b34801561028357600080fd5b5061026061029236600461333c565b6108c2565b3480156102a357600080fd5b506102336102b236600461321a565b610a06565b3480156102c357600080fd5b506102336102d2366004613280565b610aef565b3480156102e357600080fd5b506102606102f2366004613170565b610e06565b34801561030357600080fd5b506101fd610e9d565b34801561031857600080fd5b506101fd610ea2565b34801561032d57600080fd5b506101fd610ea7565b34801561034257600080fd5b5061034b610eac565b60405161020a9190613576565b34801561036457600080fd5b506101fd610ec8565b34801561037957600080fd5b506101fd610ecd565b34801561038e57600080fd5b506103a261039d36600461310d565b610ed2565b60405161020a9190613aab565b3480156103bb57600080fd5b506101fd610eef565b3480156103d057600080fd5b506101fd610ef4565b3480156103e557600080fd5b506101fd610ef9565b3480156103fa57600080fd5b506101fd610efe565b34801561040f57600080fd5b5061042361041e3660046130ce565b610f03565b60405161020a9190613b51565b34801561043c57600080fd5b5061023361044b3660046131c2565b610f18565b61026061100a565b34801561046457600080fd5b506101fd611278565b34801561047957600080fd5b50610233610488366004613280565b61127d565b34801561049957600080fd5b506101fd61158b565b3480156104ae57600080fd5b506101fd611590565b3480156104c357600080fd5b506101fd611595565b3480156104d857600080fd5b506101fd61159a565b3480156104ed57600080fd5b506101fd61159f565b34801561050257600080fd5b50610260610511366004613145565b6115a4565b34801561052257600080fd5b506102336105313660046131c2565b61175e565b34801561054257600080fd5b50610260610551366004613145565b611846565b600381565b6060610566336119a7565b6105a5576040517f08c379a000000000000000000000000000000000000000000000000000000000815260040161059c90613651565b60405180910390fd5b61064d600360008860038111156105e5577f4e487b7100000000000000000000000000000000000000000000000000000000600052602160045260246000fd5b600381111561061d577f4e487b7100000000000000000000000000000000000000000000000000000000600052602160045260246000fd5b815260208101919091526040016000205473ffffffffffffffffffffffffffffffffffffffff1686868686611a59565b90505b95945050505050565b333214610692576040517f08c379a000000000000000000000000000000000000000000000000000000000815260040161059c906135f4565b61069a611d6a565b73ffffffffffffffffffffffffffffffffffffffff1663b3db428b3384846040518463ffffffff1660e01b81526004016106d69392919061348b565b602060405180830381600087803b1580156106f057600080fd5b505af1158015610704573d6000803e3d6000fd5b505050506040513d601f19601f8201168201806040525081019061072891906131a2565b61075e576040517f08c379a000000000000000000000000000000000000000000000000000000000815260040161059c90613890565b6000610768611e17565b73ffffffffffffffffffffffffffffffffffffffff166352a664d93385856040518463ffffffff1660e01b81526004016107a49392919061348b565b602060405180830381600087803b1580156107be57600080fd5b505af11580156107d2573d6000803e3d6000fd5b505050506040513d601f19601f820116820180604052508101906107f69190613354565b9050801561087d57610806611e6f565b73ffffffffffffffffffffffffffffffffffffffff16632a6a897b84836040518363ffffffff1660e01b815260040161084092919061350c565b600060405180830381600087803b15801561085a57600080fd5b505af115801561086e573d6000803e3d6000fd5b5050505061087d338483611ec7565b7f2f7971a38b280a622029ac616d8d562df278b4b5839a7b124c33a1715ae092993384846040516108b09392919061348b565b60405180910390a1505050565b600881565b3332146108fb576040517f08c379a000000000000000000000000000000000000000000000000000000000815260040161059c906135f4565b610903611e17565b600480546040517fd0eb665300000000000000000000000000000000000000000000000000000000815273ffffffffffffffffffffffffffffffffffffffff9384169363d0eb66539361095d93339392169187910161348b565b600060405180830381600087803b15801561097757600080fd5b505af115801561098b573d6000803e3d6000fd5b50505050610997611d6a565b73ffffffffffffffffffffffffffffffffffffffff16634782f77933836040518363ffffffff1660e01b81526004016109d192919061350c565b600060405180830381600087803b1580156109eb57600080fd5b505af11580156109ff573d6000803e3d6000fd5b5050505050565b6060610a11336119a7565b610a47576040517f08c379a000000000000000000000000000000000000000000000000000000000815260040161059c90613651565b61064d60036000886003811115610a87577f4e487b7100000000000000000000000000000000000000000000000000000000600052602160045260246000fd5b6003811115610abf577f4e487b7100000000000000000000000000000000000000000000000000000000600052602160045260246000fd5b815260208101919091526040016000205473ffffffffffffffffffffffffffffffffffffffff1686868686611f85565b6060333214610b2a576040517f08c379a000000000000000000000000000000000000000000000000000000000815260040161059c906135f4565b8142811015610b65576040517f08c379a000000000000000000000000000000000000000000000000000000000815260040161059c906136ae565b6000610b6f612042565b73ffffffffffffffffffffffffffffffffffffffff166367cbf42d8787610b97600182613c39565b818110610bcd577f4e487b7100000000000000000000000000000000000000000000000000000000600052603260045260246000fd5b9050602002016020810190610be291906130ce565b8a6040518363ffffffff1660e01b8152600401610c0092919061350c565b602060405180830381600087803b158015610c1a57600080fd5b505af1158015610c2e573d6000803e3d6000fd5b505050506040513d601f19601f82011682018060405250810190610c529190613354565b9050610d05600360008b6003811115610c94577f4e487b7100000000000000000000000000000000000000000000000000000000600052602160045260246000fd5b6003811115610ccc577f4e487b7100000000000000000000000000000000000000000000000000000000600052602160045260246000fd5b815260208101919091526040016000205473ffffffffffffffffffffffffffffffffffffffff16610cfd838b613bab565b898989611f85565b9250610dfa3387876000818110610d45577f4e487b7100000000000000000000000000000000000000000000000000000000600052603260045260246000fd5b9050602002016020810190610d5a91906130ce565b8888610d67600182613c39565b818110610d9d577f4e487b7100000000000000000000000000000000000000000000000000000000600052603260045260246000fd5b9050602002016020810190610db291906130ce565b86600081518110610dec577f4e487b7100000000000000000000000000000000000000000000000000000000600052603260045260246000fd5b60200260200101518c61209a565b50509695505050505050565b610e0f33612291565b610e45576040517f08c379a000000000000000000000000000000000000000000000000000000000815260040161059c90613597565b73ffffffffffffffffffffffffffffffffffffffff91909116600090815260016020526040902080547fffffffffffffffffffffffffffffffffffffffffffffffffffffffffffffff001660ff909216919091179055565b606b81565b606981565b606781565b60005473ffffffffffffffffffffffffffffffffffffffff1681565b600681565b606681565b600260209081526000928352604080842090915290825290205481565b606581565b600181565b606a81565b600981565b60016020526000908152604090205460ff1681565b6060600060036000876003811115610f59577f4e487b7100000000000000000000000000000000000000000000000000000000600052602160045260246000fd5b6003811115610f91577f4e487b7100000000000000000000000000000000000000000000000000000000600052602160045260246000fd5b815260200190815260200160002060009054906101000a900473ffffffffffffffffffffffffffffffffffffffff16905061100081868686808060200260200160405190810160405280939291908181526020018383602002808284376000920191909152506122eb92505050565b9695505050505050565b333214611043576040517f08c379a000000000000000000000000000000000000000000000000000000000815260040161059c906135f4565b61104b611d6a565b73ffffffffffffffffffffffffffffffffffffffff1663a6a5f9fe346040518263ffffffff1660e01b81526004016000604051808303818588803b15801561109257600080fd5b505af11580156110a6573d6000803e3d6000fd5b505050505060006110b5611e17565b600480546040517f52a664d900000000000000000000000000000000000000000000000000000000815273ffffffffffffffffffffffffffffffffffffffff938416936352a664d99361110f93339392169134910161348b565b602060405180830381600087803b15801561112957600080fd5b505af115801561113d573d6000803e3d6000fd5b505050506040513d601f19601f820116820180604052508101906111619190613354565b9050801561122157611171611e6f565b600480546040517f2a6a897b00000000000000000000000000000000000000000000000000000000815273ffffffffffffffffffffffffffffffffffffffff93841693632a6a897b936111ca939091169186910161350c565b600060405180830381600087803b1580156111e457600080fd5b505af11580156111f8573d6000803e3d6000fd5b5050600454611221925033915073ffffffffffffffffffffffffffffffffffffffff1683611ec7565b6004546040517f2f7971a38b280a622029ac616d8d562df278b4b5839a7b124c33a1715ae092999161126d91339173ffffffffffffffffffffffffffffffffffffffff1690349061348b565b60405180910390a150565b600281565b60603332146112b8576040517f08c379a000000000000000000000000000000000000000000000000000000000815260040161059c906135f4565b81428110156112f3576040517f08c379a000000000000000000000000000000000000000000000000000000000815260040161059c906136ae565b60006112fd612042565b73ffffffffffffffffffffffffffffffffffffffff16633f0e9edf87876000818110611352577f4e487b7100000000000000000000000000000000000000000000000000000000600052603260045260246000fd5b905060200201602081019061136791906130ce565b8a6040518363ffffffff1660e01b815260040161138592919061350c565b602060405180830381600087803b15801561139f57600080fd5b505af11580156113b3573d6000803e3d6000fd5b505050506040513d601f19601f820116820180604052508101906113d79190613354565b905061148a600360008b6003811115611419577f4e487b7100000000000000000000000000000000000000000000000000000000600052602160045260246000fd5b6003811115611451577f4e487b7100000000000000000000000000000000000000000000000000000000600052602160045260246000fd5b815260208101919091526040016000205473ffffffffffffffffffffffffffffffffffffffff16611482838b613c39565b898989611a59565b9250610dfa33878760008181106114ca577f4e487b7100000000000000000000000000000000000000000000000000000000600052603260045260246000fd5b90506020020160208101906114df91906130ce565b88886114ec600182613c39565b818110611522577f4e487b7100000000000000000000000000000000000000000000000000000000600052603260045260246000fd5b905060200201602081019061153791906130ce565b8b87600189516115479190613c39565b8151811061157e577f4e487b7100000000000000000000000000000000000000000000000000000000600052603260045260246000fd5b602002602001015161209a565b600581565b606881565b606c81565b600481565b600781565b3332146115dd576040517f08c379a000000000000000000000000000000000000000000000000000000000815260040161059c906135f4565b6115e5611e17565b73ffffffffffffffffffffffffffffffffffffffff1663d0eb66533384846040518463ffffffff1660e01b81526004016116219392919061348b565b600060405180830381600087803b15801561163b57600080fd5b505af115801561164f573d6000803e3d6000fd5b5050505061165b611d6a565b73ffffffffffffffffffffffffffffffffffffffff1663d9caed128333846040518463ffffffff1660e01b81526004016116979392919061348b565b602060405180830381600087803b1580156116b157600080fd5b505af11580156116c5573d6000803e3d6000fd5b505050506040513d601f19601f820116820180604052508101906116e991906131a2565b61171f576040517f08c379a000000000000000000000000000000000000000000000000000000000815260040161059c906138ed565b7f69725482a69b3feb662528aa4b8028c1f9f6288b9ef746d5c84a847e05ad0d6b3383836040516117529392919061348b565b60405180910390a15050565b606060006003600087600381111561179f577f4e487b7100000000000000000000000000000000000000000000000000000000600052602160045260246000fd5b60038111156117d7577f4e487b7100000000000000000000000000000000000000000000000000000000600052602160045260246000fd5b815260200190815260200160002060009054906101000a900473ffffffffffffffffffffffffffffffffffffffff169050611000818686868080602002602001604051908101604052809392919081815260200183836020028082843760009201919091525061255592505050565b33321461187f576040517f08c379a000000000000000000000000000000000000000000000000000000000815260040161059c906135f4565b611887611e6f565b73ffffffffffffffffffffffffffffffffffffffff1663ee0862bf83836040518363ffffffff1660e01b81526004016118c192919061350c565b600060405180830381600087803b1580156118db57600080fd5b505af11580156118ef573d6000803e3d6000fd5b505050506118fb611e17565b73ffffffffffffffffffffffffffffffffffffffff1663498d55eb3384846040518463ffffffff1660e01b81526004016119379392919061348b565b600060405180830381600087803b15801561195157600080fd5b505af1158015611965573d6000803e3d6000fd5b5050505061197433838361279f565b7fd160a035f47ba1f22446570a0c0f33960590c1e03b5ae81e67f8fdc4c721f4da3383836040516117529392919061348b565b600080546040517fd87fefd200000000000000000000000000000000000000000000000000000000815273ffffffffffffffffffffffffffffffffffffffff9091169063d87fefd290611a01906007908690600401613a81565b60206040518083038186803b158015611a1957600080fd5b505afa158015611a2d573d6000803e3d6000fd5b505050506040513d601f19601f82011682018060405250810190611a5191906131a2565b90505b919050565b6060611a99868685858080602002602001604051908101604052809392919081815260200183836020028082843760009201919091525061255592505050565b9050838160018351611aab9190613c39565b81518110611ae2577f4e487b7100000000000000000000000000000000000000000000000000000000600052603260045260246000fd5b60200260200101511015611b22576040517f08c379a000000000000000000000000000000000000000000000000000000000815260040161059c90613a15565b611b2a611d6a565b73ffffffffffffffffffffffffffffffffffffffff1663d9caed1284846000818110611b7f577f4e487b7100000000000000000000000000000000000000000000000000000000600052603260045260246000fd5b9050602002016020810190611b9491906130ce565b611c3b8987876000818110611bd2577f4e487b7100000000000000000000000000000000000000000000000000000000600052603260045260246000fd5b9050602002016020810190611be791906130ce565b88886001818110611c21577f4e487b7100000000000000000000000000000000000000000000000000000000600052603260045260246000fd5b9050602002016020810190611c3691906130ce565b612969565b84600081518110611c75577f4e487b7100000000000000000000000000000000000000000000000000000000600052603260045260246000fd5b60200260200101516040518463ffffffff1660e01b8152600401611c9b9392919061348b565b602060405180830381600087803b158015611cb557600080fd5b505af1158015611cc9573d6000803e3d6000fd5b505050506040513d601f19601f82011682018060405250810190611ced91906131a2565b611d23576040517f08c379a000000000000000000000000000000000000000000000000000000000815260040161059c9061379f565b6106508682858580806020026020016040519081016040528093929190818152602001838360200280828437600092019190915250611d659250611d6a915050565b6129db565b600080546040517f3c9c8f9c00000000000000000000000000000000000000000000000000000000815273ffffffffffffffffffffffffffffffffffffffff90911690633c9c8f9c90611dc290606590600401613a72565b60206040518083038186803b158015611dda57600080fd5b505afa158015611dee573d6000803e3d6000fd5b505050506040513d601f19601f82011682018060405250810190611e1291906130f1565b905090565b600080546040517f3c9c8f9c00000000000000000000000000000000000000000000000000000000815273ffffffffffffffffffffffffffffffffffffffff90911690633c9c8f9c90611dc290606890600401613a72565b600080546040517f3c9c8f9c00000000000000000000000000000000000000000000000000000000815273ffffffffffffffffffffffffffffffffffffffff90911690633c9c8f9c90611dc290606690600401613a72565b73ffffffffffffffffffffffffffffffffffffffff808416600090815260026020908152604080832093861683529281528282205460019091529190205460ff16611f10612c60565b73ffffffffffffffffffffffffffffffffffffffff1663a80167118284866040518463ffffffff1660e01b8152600401611f4c93929190613b90565b600060405180830381600087803b158015611f6657600080fd5b505af1158015611f7a573d6000803e3d6000fd5b505050505050505050565b6060611fc586868585808060200260200160405190810160405280939291908181526020018383602002808284376000920191909152506122eb92505050565b90508381600081518110612002577f4e487b7100000000000000000000000000000000000000000000000000000000600052603260045260246000fd5b60200260200101511115611b22576040517f08c379a000000000000000000000000000000000000000000000000000000000815260040161059c90613924565b600080546040517f3c9c8f9c00000000000000000000000000000000000000000000000000000000815273ffffffffffffffffffffffffffffffffffffffff90911690633c9c8f9c90611dc290606990600401613a72565b6000806120a5611e17565b73ffffffffffffffffffffffffffffffffffffffff16633500aa0b88888888886040518663ffffffff1660e01b81526004016120e595949392919061344a565b6040805180830381600087803b1580156120fe57600080fd5b505af1158015612112573d6000803e3d6000fd5b505050506040513d601f19601f82011682018060405250810190612136919061336c565b909250905081156121c057612149611e6f565b73ffffffffffffffffffffffffffffffffffffffff16632a6a897b86846040518363ffffffff1660e01b815260040161218392919061350c565b600060405180830381600087803b15801561219d57600080fd5b505af11580156121b1573d6000803e3d6000fd5b505050506121c0878684611ec7565b8015612245576121ce611e6f565b73ffffffffffffffffffffffffffffffffffffffff1663ee0862bf86836040518363ffffffff1660e01b815260040161220892919061350c565b600060405180830381600087803b15801561222257600080fd5b505af1158015612236573d6000803e3d6000fd5b5050505061224587878361279f565b7ffda7842105bd0ae9d4c9616a1d48b1e9f17e2d97cb890d021c291e7d1b53929f8787868489888860405161228097969594939291906134bc565b60405180910390a150505050505050565b600080546040517fd87fefd200000000000000000000000000000000000000000000000000000000815273ffffffffffffffffffffffffffffffffffffffff9091169063d87fefd290611a01906009908690600401613a81565b6060600282511015612329576040517f08c379a000000000000000000000000000000000000000000000000000000000815260040161059c906137fc565b815167ffffffffffffffff81111561236a577f4e487b7100000000000000000000000000000000000000000000000000000000600052604160045260246000fd5b604051908082528060200260200182016040528015612393578160200160208202803683370190505b5090508281600183516123a69190613c39565b815181106123dd577f4e487b7100000000000000000000000000000000000000000000000000000000600052603260045260246000fd5b6020026020010181815250506000600183516123f99190613c39565b90505b801561254d5760008061249a8786612415600187613c39565b8151811061244c577f4e487b7100000000000000000000000000000000000000000000000000000000600052603260045260246000fd5b602002602001015187868151811061248d577f4e487b7100000000000000000000000000000000000000000000000000000000600052603260045260246000fd5b6020026020010151612cb8565b915091506124e98484815181106124da577f4e487b7100000000000000000000000000000000000000000000000000000000600052603260045260246000fd5b60200260200101518383612dc6565b846124f5600186613c39565b8151811061252c577f4e487b7100000000000000000000000000000000000000000000000000000000600052603260045260246000fd5b6020026020010181815250505050808061254590613c50565b9150506123fc565b509392505050565b6060600282511015612593576040517f08c379a000000000000000000000000000000000000000000000000000000000815260040161059c906137fc565b815167ffffffffffffffff8111156125d4577f4e487b7100000000000000000000000000000000000000000000000000000000600052604160045260246000fd5b6040519080825280602002602001820160405280156125fd578160200160208202803683370190505b509050828160008151811061263b577f4e487b7100000000000000000000000000000000000000000000000000000000600052603260045260246000fd5b60200260200101818152505060005b600183516126589190613c39565b81101561254d576000806126ec8786858151811061269f577f4e487b7100000000000000000000000000000000000000000000000000000000600052603260045260246000fd5b6020026020010151878660016126b59190613bab565b8151811061248d577f4e487b7100000000000000000000000000000000000000000000000000000000600052603260045260246000fd5b9150915061273b84848151811061272c577f4e487b7100000000000000000000000000000000000000000000000000000000600052603260045260246000fd5b60200260200101518383612e91565b84612747856001613bab565b8151811061277e577f4e487b7100000000000000000000000000000000000000000000000000000000600052603260045260246000fd5b6020026020010181815250505050808061279790613c85565b91505061264a565b60006127a9612c60565b73ffffffffffffffffffffffffffffffffffffffff80861660009081526002602090815260408083209388168352928152828220546001909152919020549192509060ff168115612881576040517ff542808700000000000000000000000000000000000000000000000000000000815273ffffffffffffffffffffffffffffffffffffffff84169063f54280879061284a90849086908990600401613b90565b600060405180830381600087803b15801561286457600080fd5b505af1158015612878573d6000803e3d6000fd5b50505050612961565b6040517f583d861600000000000000000000000000000000000000000000000000000000815273ffffffffffffffffffffffffffffffffffffffff84169063583d8616906128d79084908a908990600401613b5f565b602060405180830381600087803b1580156128f157600080fd5b505af1158015612905573d6000803e3d6000fd5b505050506040513d601f19601f820116820180604052508101906129299190613354565b73ffffffffffffffffffffffffffffffffffffffff8088166000908152600260209081526040808320938a1683529290522081905591505b505050505050565b60008060006129788585612f60565b9150915085828260405160200161299092919061338f565b604051602081830303815290604052805190602001206040516020016129b79291906133c9565b6040516020818303038152906040528051906020012060601c925050509392505050565b60005b600183516129ec9190613c39565b8110156109ff57600080848381518110612a2f577f4e487b7100000000000000000000000000000000000000000000000000000000600052603260045260246000fd5b602002602001015185846001612a459190613bab565b81518110612a7c577f4e487b7100000000000000000000000000000000000000000000000000000000600052603260045260246000fd5b6020026020010151915091506000612a948383612f60565b509050600087612aa5866001613bab565b81518110612adc577f4e487b7100000000000000000000000000000000000000000000000000000000600052603260045260246000fd5b602002602001015190506000808373ffffffffffffffffffffffffffffffffffffffff168673ffffffffffffffffffffffffffffffffffffffff1614612b2457826000612b28565b6000835b91509150600060028a51612b3c9190613c39565b8810612b485788612b9d565b612b9d8c878c612b598c6002613bab565b81518110612b90577f4e487b7100000000000000000000000000000000000000000000000000000000600052603260045260246000fd5b6020026020010151612969565b9050612baa8c8888612969565b73ffffffffffffffffffffffffffffffffffffffff1663022c0d9f84848460006040519080825280601f01601f191660200182016040528015612bf4576020820181803683370190505b506040518563ffffffff1660e01b8152600401612c149493929190613ab4565b600060405180830381600087803b158015612c2e57600080fd5b505af1158015612c42573d6000803e3d6000fd5b50505050505050505050508080612c5890613c85565b9150506129de565b600080546040517f3c9c8f9c00000000000000000000000000000000000000000000000000000000815273ffffffffffffffffffffffffffffffffffffffff90911690633c9c8f9c90611dc290606c90600401613a72565b6000806000612cc78585612f60565b509050600080612cd8888888612969565b73ffffffffffffffffffffffffffffffffffffffff16630902f1ac6040518163ffffffff1660e01b815260040160606040518083038186803b158015612d1d57600080fd5b505afa158015612d31573d6000803e3d6000fd5b505050506040513d601f19601f82011682018060405250810190612d5591906132ee565b506dffffffffffffffffffffffffffff1691506dffffffffffffffffffffffffffff1691508273ffffffffffffffffffffffffffffffffffffffff168773ffffffffffffffffffffffffffffffffffffffff1614612db4578082612db7565b81815b90999098509650505050505050565b6000808411612e01576040517f08c379a000000000000000000000000000000000000000000000000000000000815260040161059c906136e5565b600083118015612e115750600082115b612e47576040517f08c379a000000000000000000000000000000000000000000000000000000000815260040161059c90613833565b6000612e538585613bfc565b612e5f906103e8613bfc565b905060006103e5612e708786613c39565b612e7a9190613c39565b9050612e868183613bc3565b611000906001613bab565b6000808411612ecc576040517f08c379a000000000000000000000000000000000000000000000000000000000815260040161059c906139b8565b600083118015612edc5750600082115b612f12576040517f08c379a000000000000000000000000000000000000000000000000000000000815260040161059c90613833565b6000612f20856103e5613bfc565b90506000612f2e8483613bfc565b9050600082612f3f876103e8613bfc565b612f499190613bab565b9050612f558183613bc3565b979650505050505050565b6000808273ffffffffffffffffffffffffffffffffffffffff168473ffffffffffffffffffffffffffffffffffffffff161415612fc9576040517f08c379a000000000000000000000000000000000000000000000000000000000815260040161059c90613742565b8273ffffffffffffffffffffffffffffffffffffffff168473ffffffffffffffffffffffffffffffffffffffff1610613003578284613006565b83835b909250905073ffffffffffffffffffffffffffffffffffffffff8216613058576040517f08c379a000000000000000000000000000000000000000000000000000000000815260040161059c90613981565b9250929050565b60008083601f840112613070578182fd5b50813567ffffffffffffffff811115613087578182fd5b602083019150836020808302850101111561305857600080fd5b803560048110611a5457600080fd5b80516dffffffffffffffffffffffffffff81168114611a5457600080fd5b6000602082840312156130df578081fd5b81356130ea81613ced565b9392505050565b600060208284031215613102578081fd5b81516130ea81613ced565b6000806040838503121561311f578081fd5b823561312a81613ced565b9150602083013561313a81613ced565b809150509250929050565b60008060408385031215613157578182fd5b823561316281613ced565b946020939093013593505050565b60008060408385031215613182578182fd5b823561318d81613ced565b9150602083013560ff8116811461313a578182fd5b6000602082840312156131b3578081fd5b815180151581146130ea578182fd5b600080600080606085870312156131d7578182fd5b6131e0856130a1565b935060208501359250604085013567ffffffffffffffff811115613202578283fd5b61320e8782880161305f565b95989497509550505050565b600080600080600060808688031215613231578081fd5b61323a866130a1565b94506020860135935060408601359250606086013567ffffffffffffffff811115613263578182fd5b61326f8882890161305f565b969995985093965092949392505050565b60008060008060008060a08789031215613298578081fd5b6132a1876130a1565b95506020870135945060408701359350606087013567ffffffffffffffff8111156132ca578182fd5b6132d689828a0161305f565b979a9699509497949695608090950135949350505050565b600080600060608486031215613302578283fd5b61330b846130b0565b9250613319602085016130b0565b9150604084015163ffffffff81168114613331578182fd5b809150509250925092565b60006020828403121561334d578081fd5b5035919050565b600060208284031215613365578081fd5b5051919050565b6000806040838503121561337e578182fd5b505080516020909101519092909150565b7fffffffffffffffffffffffffffffffffffffffff000000000000000000000000606093841b811682529190921b16601482015260280190565b7fff00000000000000000000000000000000000000000000000000000000000000815260609290921b7fffffffffffffffffffffffffffffffffffffffff00000000000000000000000016600183015260158201527f96e8ac4277198ff8b6f785478aa9a39f403cb768dd02cbee326c3e7da348845f603582015260550190565b73ffffffffffffffffffffffffffffffffffffffff958616815293851660208501529190931660408301526060820192909252608081019190915260a00190565b73ffffffffffffffffffffffffffffffffffffffff9384168152919092166020820152604081019190915260600190565b73ffffffffffffffffffffffffffffffffffffffff9788168152958716602087015260408601949094526060850192909252909316608083015260a082019290925260c081019190915260e00190565b73ffffffffffffffffffffffffffffffffffffffff929092168252602082015260400190565b6020808252825182820181905260009190848201906040850190845b8181101561356a5783518352928401929184019160010161354e565b50909695505050505050565b73ffffffffffffffffffffffffffffffffffffffff91909116815260200190565b6020808252602e908201527f43616c6c6572206e6f7420617574686f72697a656420746f2073657420696e6360408201527f656e74697665207472616e636865000000000000000000000000000000000000606082015260800190565b6020808252603a908201527f43757272656e746c79206e6f20696e7465726d656469617269657320616c6c6f60408201527f77656420666f7220746869732066756e6374696f6e2063616c6c000000000000606082015260800190565b6020808252603e908201527f43616c6c696e6720636f6e7472616374206973206e6f7420617574686f72697a60408201527f656420746f20747261646520776974682070726f746f636c2066756e64730000606082015260800190565b60208082526018908201527f556e69737761705632526f757465723a20455850495245440000000000000000604082015260600190565b6020808252602c908201527f556e697377617056324c6962726172793a20494e53554646494349454e545f4f60408201527f55545055545f414d4f554e540000000000000000000000000000000000000000606082015260800190565b60208082526025908201527f556e697377617056324c6962726172793a204944454e544943414c5f4144445260408201527f4553534553000000000000000000000000000000000000000000000000000000606082015260800190565b60208082526028908201527f4d617267696e526f757465723a20496e73756666696369656e74206c656e646960408201527f6e672066756e6473000000000000000000000000000000000000000000000000606082015260800190565b6020808252601e908201527f556e697377617056324c6962726172793a20494e56414c49445f504154480000604082015260600190565b60208082526028908201527f556e697377617056324c6962726172793a20494e53554646494349454e545f4c60408201527f4951554944495459000000000000000000000000000000000000000000000000606082015260800190565b60208082526029908201527f43616e6e6f74207472616e73666572206465706f73697420746f206d6172676960408201527f6e206163636f756e740000000000000000000000000000000000000000000000606082015260800190565b6020808252601c908201527f436f756c64206e6f742077697468647261772066726f6d2066756e6400000000604082015260600190565b60208082526027908201527f556e69737761705632526f757465723a204558434553534956455f494e50555460408201527f5f414d4f554e5400000000000000000000000000000000000000000000000000606082015260800190565b6020808252601e908201527f556e697377617056324c6962726172793a205a45524f5f414444524553530000604082015260600190565b6020808252602b908201527f556e697377617056324c6962726172793a20494e53554646494349454e545f4960408201527f4e5055545f414d4f554e54000000000000000000000000000000000000000000606082015260800190565b60208082526028908201527f4d617267696e526f757465723a20494e53554646494349454e545f4f5554505560408201527f545f414d4f554e54000000000000000000000000000000000000000000000000606082015260800190565b61ffff91909116815260200190565b61ffff92909216825273ffffffffffffffffffffffffffffffffffffffff16602082015260400190565b90815260200190565b60008582526020858184015273ffffffffffffffffffffffffffffffffffffffff85166040840152608060608401528351806080850152825b81811015613b095785810183015185820160a001528201613aed565b81811115613b1a578360a083870101525b50601f017fffffffffffffffffffffffffffffffffffffffffffffffffffffffffffffffe0169290920160a0019695505050505050565b60ff91909116815260200190565b60ff93909316835273ffffffffffffffffffffffffffffffffffffffff919091166020830152604082015260600190565b60ff9390931683526020830191909152604082015260600190565b60008219821115613bbe57613bbe613cbe565b500190565b600082613bf7577f4e487b710000000000000000000000000000000000000000000000000000000081526012600452602481fd5b500490565b6000817fffffffffffffffffffffffffffffffffffffffffffffffffffffffffffffffff0483118215151615613c3457613c34613cbe565b500290565b600082821015613c4b57613c4b613cbe565b500390565b600081613c5f57613c5f613cbe565b507fffffffffffffffffffffffffffffffffffffffffffffffffffffffffffffffff0190565b60007fffffffffffffffffffffffffffffffffffffffffffffffffffffffffffffffff821415613cb757613cb7613cbe565b5060010190565b7f4e487b7100000000000000000000000000000000000000000000000000000000600052601160045260246000fd5b73ffffffffffffffffffffffffffffffffffffffff81168114613d0f57600080fd5b5056fea264697066735822122021e6edbd9f7de904b0ef07e99567857af17a886971ec0022577384ceab5ffd7664736f6c63430008010033",
  "linkReferences": {},
  "deployedLinkReferences": {}
}