{
  "_format": "hh-sol-artifact-1",
  "contractName": "MarginRouter",
  "sourceName": "contracts/MarginRouter.sol",
  "abi": [
    {
      "inputs": [
        {
          "internalType": "address",
          "name": "uniswapFactory",
          "type": "address"
        },
        {
          "internalType": "address",
          "name": "sushiswapFactory",
          "type": "address"
        },
        {
          "internalType": "address",
          "name": "_WETH",
          "type": "address"
        },
        {
          "internalType": "address",
          "name": "_roles",
          "type": "address"
        }
      ],
      "stateMutability": "nonpayable",
      "type": "constructor"
    },
    {
      "inputs": [],
      "name": "AUTHORIZED_FUND_TRADER",
      "outputs": [
        {
          "internalType": "uint16",
          "name": "",
          "type": "uint16"
        }
      ],
      "stateMutability": "view",
      "type": "function"
    },
    {
      "inputs": [],
      "name": "BORROWER",
      "outputs": [
        {
          "internalType": "uint16",
          "name": "",
          "type": "uint16"
        }
      ],
      "stateMutability": "view",
      "type": "function"
    },
    {
      "inputs": [],
      "name": "FEE_CONTROLLER",
      "outputs": [
        {
          "internalType": "uint16",
          "name": "",
          "type": "uint16"
        }
      ],
      "stateMutability": "view",
      "type": "function"
    },
    {
      "inputs": [],
      "name": "FEE_SOURCE",
      "outputs": [
        {
          "internalType": "uint16",
          "name": "",
          "type": "uint16"
        }
      ],
      "stateMutability": "view",
      "type": "function"
    },
    {
      "inputs": [],
      "name": "FUND",
      "outputs": [
        {
          "internalType": "uint16",
          "name": "",
          "type": "uint16"
        }
      ],
      "stateMutability": "view",
      "type": "function"
    },
    {
      "inputs": [],
      "name": "INCENTIVE_REPORTER",
      "outputs": [
        {
          "internalType": "uint16",
          "name": "",
          "type": "uint16"
        }
      ],
      "stateMutability": "view",
      "type": "function"
    },
    {
      "inputs": [],
      "name": "LENDING",
      "outputs": [
        {
          "internalType": "uint16",
          "name": "",
          "type": "uint16"
        }
      ],
      "stateMutability": "view",
      "type": "function"
    },
    {
      "inputs": [],
      "name": "LIQUIDATOR",
      "outputs": [
        {
          "internalType": "uint16",
          "name": "",
          "type": "uint16"
        }
      ],
      "stateMutability": "view",
      "type": "function"
    },
    {
      "inputs": [],
      "name": "MARGIN_CALLER",
      "outputs": [
        {
          "internalType": "uint16",
          "name": "",
          "type": "uint16"
        }
      ],
      "stateMutability": "view",
      "type": "function"
    },
    {
      "inputs": [],
      "name": "MARGIN_TRADER",
      "outputs": [
        {
          "internalType": "uint16",
          "name": "",
          "type": "uint16"
        }
      ],
      "stateMutability": "view",
      "type": "function"
    },
    {
      "inputs": [],
      "name": "MARGIN_TRADING",
      "outputs": [
        {
          "internalType": "uint16",
          "name": "",
          "type": "uint16"
        }
      ],
      "stateMutability": "view",
      "type": "function"
    },
    {
      "inputs": [],
      "name": "PRICE_CONTROLLER",
      "outputs": [
        {
          "internalType": "uint16",
          "name": "",
          "type": "uint16"
        }
      ],
      "stateMutability": "view",
      "type": "function"
    },
    {
      "inputs": [],
      "name": "ROUTER",
      "outputs": [
        {
          "internalType": "uint16",
          "name": "",
          "type": "uint16"
        }
      ],
      "stateMutability": "view",
      "type": "function"
    },
    {
      "inputs": [],
      "name": "TOKEN_ACTIVATOR",
      "outputs": [
        {
          "internalType": "uint16",
          "name": "",
          "type": "uint16"
        }
      ],
      "stateMutability": "view",
      "type": "function"
    },
    {
      "inputs": [],
      "name": "WITHDRAWER",
      "outputs": [
        {
          "internalType": "uint16",
          "name": "",
          "type": "uint16"
        }
      ],
      "stateMutability": "view",
      "type": "function"
    },
    {
      "inputs": [
        {
          "internalType": "enum AMM",
          "name": "amm",
          "type": "uint8"
        },
        {
          "internalType": "uint256",
          "name": "amountIn",
          "type": "uint256"
        },
        {
          "internalType": "uint256",
          "name": "amountOutMin",
          "type": "uint256"
        },
        {
          "internalType": "address[]",
          "name": "path",
          "type": "address[]"
        }
      ],
      "name": "authorizedSwapExactT4T",
      "outputs": [
        {
          "internalType": "uint256[]",
          "name": "",
          "type": "uint256[]"
        }
      ],
      "stateMutability": "nonpayable",
      "type": "function"
    },
    {
      "inputs": [
        {
          "internalType": "enum AMM",
          "name": "amm",
          "type": "uint8"
        },
        {
          "internalType": "uint256",
          "name": "amountOut",
          "type": "uint256"
        },
        {
          "internalType": "uint256",
          "name": "amountInMax",
          "type": "uint256"
        },
        {
          "internalType": "address[]",
          "name": "path",
          "type": "address[]"
        }
      ],
      "name": "authorizedSwapT4ExactT",
      "outputs": [
        {
          "internalType": "uint256[]",
          "name": "",
          "type": "uint256[]"
        }
      ],
      "stateMutability": "nonpayable",
      "type": "function"
    },
    {
      "inputs": [
        {
          "internalType": "address",
          "name": "borrowToken",
          "type": "address"
        },
        {
          "internalType": "uint256",
          "name": "borrowAmount",
          "type": "uint256"
        }
      ],
      "name": "crossBorrow",
      "outputs": [],
      "stateMutability": "nonpayable",
      "type": "function"
    },
    {
      "inputs": [
        {
          "internalType": "address",
          "name": "depositToken",
          "type": "address"
        },
        {
          "internalType": "uint256",
          "name": "depositAmount",
          "type": "uint256"
        }
      ],
      "name": "crossDeposit",
      "outputs": [],
      "stateMutability": "nonpayable",
      "type": "function"
    },
    {
      "inputs": [],
      "name": "crossDepositETH",
      "outputs": [],
      "stateMutability": "payable",
      "type": "function"
    },
    {
      "inputs": [
        {
          "internalType": "enum AMM",
          "name": "amm",
          "type": "uint8"
        },
        {
          "internalType": "uint256",
          "name": "amountIn",
          "type": "uint256"
        },
        {
          "internalType": "uint256",
          "name": "amountOutMin",
          "type": "uint256"
        },
        {
          "internalType": "address[]",
          "name": "path",
          "type": "address[]"
        },
        {
          "internalType": "uint256",
          "name": "deadline",
          "type": "uint256"
        }
      ],
      "name": "crossSwapExactTokensForTokens",
      "outputs": [
        {
          "internalType": "uint256[]",
          "name": "amounts",
          "type": "uint256[]"
        }
      ],
      "stateMutability": "nonpayable",
      "type": "function"
    },
    {
      "inputs": [
        {
          "internalType": "enum AMM",
          "name": "amm",
          "type": "uint8"
        },
        {
          "internalType": "uint256",
          "name": "amountOut",
          "type": "uint256"
        },
        {
          "internalType": "uint256",
          "name": "amountInMax",
          "type": "uint256"
        },
        {
          "internalType": "address[]",
          "name": "path",
          "type": "address[]"
        },
        {
          "internalType": "uint256",
          "name": "deadline",
          "type": "uint256"
        }
      ],
      "name": "crossSwapTokensForExactTokens",
      "outputs": [
        {
          "internalType": "uint256[]",
          "name": "amounts",
          "type": "uint256[]"
        }
      ],
      "stateMutability": "nonpayable",
      "type": "function"
    },
    {
      "inputs": [
        {
          "internalType": "address",
          "name": "withdrawToken",
          "type": "address"
        },
        {
          "internalType": "uint256",
          "name": "withdrawAmount",
          "type": "uint256"
        }
      ],
      "name": "crossWithdraw",
      "outputs": [],
      "stateMutability": "nonpayable",
      "type": "function"
    },
    {
      "inputs": [
        {
          "internalType": "uint256",
          "name": "withdrawAmount",
          "type": "uint256"
        }
      ],
      "name": "crossWithdrawETH",
      "outputs": [],
      "stateMutability": "nonpayable",
      "type": "function"
    },
    {
      "inputs": [
        {
          "internalType": "enum AMM",
          "name": "amm",
          "type": "uint8"
        },
        {
          "internalType": "uint256",
          "name": "outAmount",
          "type": "uint256"
        },
        {
          "internalType": "address[]",
          "name": "path",
          "type": "address[]"
        }
      ],
      "name": "getAmountsIn",
      "outputs": [
        {
          "internalType": "uint256[]",
          "name": "",
          "type": "uint256[]"
        }
      ],
      "stateMutability": "view",
      "type": "function"
    },
    {
      "inputs": [
        {
          "internalType": "enum AMM",
          "name": "amm",
          "type": "uint8"
        },
        {
          "internalType": "uint256",
          "name": "inAmount",
          "type": "uint256"
        },
        {
          "internalType": "address[]",
          "name": "path",
          "type": "address[]"
        }
      ],
      "name": "getAmountsOut",
      "outputs": [
        {
          "internalType": "uint256[]",
          "name": "",
          "type": "uint256[]"
        }
      ],
      "stateMutability": "view",
      "type": "function"
    },
    {
      "inputs": [],
      "name": "roles",
      "outputs": [
        {
          "internalType": "contract Roles",
          "name": "",
          "type": "address"
        }
      ],
      "stateMutability": "view",
      "type": "function"
    }
  ],
  "bytecode": "0x60806040523480156200001157600080fd5b506040516200367f3803806200367f8339810160408190526200003491620000e9565b600080546001600160a01b03199081166001600160a01b03938416178255600160208190527fa6eef7e35abe7026729641147f7915573c7e97b47efa546f5f6e3230263bcb4980548316978516979097179096559490527fcc69885fda6bcc1a4ace058b4a62bf5e179ea78fd58a1ccd71c22cc9b688792f805485169382169390931790925560028054909316911617905562000145565b80516001600160a01b0381168114620000e457600080fd5b919050565b60008060008060808587031215620000ff578384fd5b6200010a85620000cc565b93506200011a60208601620000cc565b92506200012a60408601620000cc565b91506200013a60608601620000cc565b905092959194509250565b61352a80620001556000396000f3fe6080604052600436106101ac5760003560e01c806366941984116100ec578063a94c7c341161008a578063d5d7ed7f11610064578063d5d7ed7f14610406578063e3e0626b1461041b578063eaa095f81461043b578063eedb97c71461045b576101ac565b8063a94c7c34146103c7578063a9cc0536146103dc578063cacf8d45146103f1576101ac565b806390b931ed116100c657806390b931ed1461036a57806394427b201461038a578063a0098d6914610392578063a5f9a362146103a7576101ac565b8063669419841461032b57806381ca66001461034057806383a49c7c14610355576101ac565b80632233c43611610159578063392f5f6411610133578063392f5f64146102ca57806346b88796146102ec57806348fb27b8146103015780635c275a3914610316576101ac565b80632233c436146102805780632fe94def146102a057806332fe7b26146102b5576101ac565b80631bc5d81d1161018a5780631bc5d81d1461022b5780631dce3baa146102405780631f2a674314610260576101ac565b8063065d570f146101b15780630aa29f1c146101dc5780631306d90214610209575b600080fd5b3480156101bd57600080fd5b506101c661047b565b6040516101d391906132ba565b60405180910390f35b3480156101e857600080fd5b506101fc6101f7366004612b0f565b610480565b6040516101d39190612dd7565b34801561021557600080fd5b50610229610224366004612a6c565b61057e565b005b34801561023757600080fd5b506101c661079d565b34801561024c57600080fd5b5061022961025b366004612c31565b6107a2565b34801561026c57600080fd5b506101fc61027b366004612b0f565b6108e8565b34801561028c57600080fd5b506101fc61029b366004612b75565b6109d1565b3480156102ac57600080fd5b506101c6610ce8565b3480156102c157600080fd5b506101c6610ced565b3480156102d657600080fd5b506102df610cf2565b6040516101d39190612e1b565b3480156102f857600080fd5b506101c6610d0e565b34801561030d57600080fd5b506101c6610d13565b34801561032257600080fd5b506101c6610d18565b34801561033757600080fd5b506101c6610d1d565b34801561034c57600080fd5b506101c6610d22565b34801561036157600080fd5b506101c6610d27565b34801561037657600080fd5b506101fc610385366004612ab7565b610d2c565b610229610e1e565b34801561039e57600080fd5b506101c6610fe3565b3480156103b357600080fd5b506101fc6103c2366004612b75565b610fe8565b3480156103d357600080fd5b506101c66112f6565b3480156103e857600080fd5b506101c66112fb565b3480156103fd57600080fd5b506101c6611300565b34801561041257600080fd5b506101c6611305565b34801561042757600080fd5b50610229610436366004612a6c565b61130a565b34801561044757600080fd5b506101fc610456366004612ab7565b611489565b34801561046757600080fd5b50610229610476366004612a6c565b611571565b600381565b606061048b33611698565b6104ca576040517f08c379a00000000000000000000000000000000000000000000000000000000081526004016104c190612e99565b60405180910390fd5b6105726001600088600381111561050a577f4e487b7100000000000000000000000000000000000000000000000000000000600052602160045260246000fd5b6003811115610542577f4e487b7100000000000000000000000000000000000000000000000000000000600052602160045260246000fd5b815260208101919091526040016000205473ffffffffffffffffffffffffffffffffffffffff168686868661174a565b90505b95945050505050565b3332146105b7576040517f08c379a00000000000000000000000000000000000000000000000000000000081526004016104c190612e3c565b6105bf611a5b565b73ffffffffffffffffffffffffffffffffffffffff1663b3db428b3384846040518463ffffffff1660e01b81526004016105fb93929190612d80565b602060405180830381600087803b15801561061557600080fd5b505af1158015610629573d6000803e3d6000fd5b505050506040513d601f19601f8201168201806040525081019061064d9190612a97565b610683576040517f08c379a00000000000000000000000000000000000000000000000000000000081526004016104c1906130d8565b600061068d611b08565b73ffffffffffffffffffffffffffffffffffffffff166352a664d93385856040518463ffffffff1660e01b81526004016106c993929190612d80565b602060405180830381600087803b1580156106e357600080fd5b505af11580156106f7573d6000803e3d6000fd5b505050506040513d601f19601f8201168201806040525081019061071b9190612c49565b905080156107985761072b611b60565b73ffffffffffffffffffffffffffffffffffffffff16632a6a897b84836040518363ffffffff1660e01b8152600401610765929190612db1565b600060405180830381600087803b15801561077f57600080fd5b505af1158015610793573d6000803e3d6000fd5b505050505b505050565b600881565b3332146107db576040517f08c379a00000000000000000000000000000000000000000000000000000000081526004016104c190612e3c565b6107e3611b08565b6002546040517fd0eb665300000000000000000000000000000000000000000000000000000000815273ffffffffffffffffffffffffffffffffffffffff9283169263d0eb66539261083f923392909116908690600401612d80565b600060405180830381600087803b15801561085957600080fd5b505af115801561086d573d6000803e3d6000fd5b50505050610879611a5b565b73ffffffffffffffffffffffffffffffffffffffff16634782f77933836040518363ffffffff1660e01b81526004016108b3929190612db1565b600060405180830381600087803b1580156108cd57600080fd5b505af11580156108e1573d6000803e3d6000fd5b5050505050565b60606108f333611698565b610929576040517f08c379a00000000000000000000000000000000000000000000000000000000081526004016104c190612e99565b61057260016000886003811115610969577f4e487b7100000000000000000000000000000000000000000000000000000000600052602160045260246000fd5b60038111156109a1577f4e487b7100000000000000000000000000000000000000000000000000000000600052602160045260246000fd5b815260208101919091526040016000205473ffffffffffffffffffffffffffffffffffffffff1686868686611bb8565b6060333214610a0c576040517f08c379a00000000000000000000000000000000000000000000000000000000081526004016104c190612e3c565b8142811015610a47576040517f08c379a00000000000000000000000000000000000000000000000000000000081526004016104c190612ef6565b6000610a51611c75565b73ffffffffffffffffffffffffffffffffffffffff166367cbf42d8787610a7960018261341e565b818110610aaf577f4e487b7100000000000000000000000000000000000000000000000000000000600052603260045260246000fd5b9050602002016020810190610ac49190612a2d565b8a6040518363ffffffff1660e01b8152600401610ae2929190612db1565b602060405180830381600087803b158015610afc57600080fd5b505af1158015610b10573d6000803e3d6000fd5b505050506040513d601f19601f82011682018060405250810190610b349190612c49565b9050610be7600160008b6003811115610b76577f4e487b7100000000000000000000000000000000000000000000000000000000600052602160045260246000fd5b6003811115610bae577f4e487b7100000000000000000000000000000000000000000000000000000000600052602160045260246000fd5b815260208101919091526040016000205473ffffffffffffffffffffffffffffffffffffffff16610bdf838b613390565b898989611bb8565b9250610cdc3387876000818110610c27577f4e487b7100000000000000000000000000000000000000000000000000000000600052603260045260246000fd5b9050602002016020810190610c3c9190612a2d565b8888610c4960018261341e565b818110610c7f577f4e487b7100000000000000000000000000000000000000000000000000000000600052603260045260246000fd5b9050602002016020810190610c949190612a2d565b86600081518110610cce577f4e487b7100000000000000000000000000000000000000000000000000000000600052603260045260246000fd5b60200260200101518c611ccd565b50509695505050505050565b606981565b606781565b60005473ffffffffffffffffffffffffffffffffffffffff1681565b600681565b606681565b606581565b600181565b606a81565b600981565b6060600060016000876003811115610d6d577f4e487b7100000000000000000000000000000000000000000000000000000000600052602160045260246000fd5b6003811115610da5577f4e487b7100000000000000000000000000000000000000000000000000000000600052602160045260246000fd5b815260200190815260200160002060009054906101000a900473ffffffffffffffffffffffffffffffffffffffff169050610e148186868680806020026020016040519081016040528093929190818152602001838360200280828437600092019190915250611e6c92505050565b9695505050505050565b333214610e57576040517f08c379a00000000000000000000000000000000000000000000000000000000081526004016104c190612e3c565b610e5f611a5b565b73ffffffffffffffffffffffffffffffffffffffff1663a6a5f9fe346040518263ffffffff1660e01b81526004016000604051808303818588803b158015610ea657600080fd5b505af1158015610eba573d6000803e3d6000fd5b50505050506000610ec9611b08565b6002546040517f52a664d900000000000000000000000000000000000000000000000000000000815273ffffffffffffffffffffffffffffffffffffffff928316926352a664d992610f25923392909116903490600401612d80565b602060405180830381600087803b158015610f3f57600080fd5b505af1158015610f53573d6000803e3d6000fd5b505050506040513d601f19601f82011682018060405250810190610f779190612c49565b90508015610fe057610f87611b60565b6002546040517f2a6a897b00000000000000000000000000000000000000000000000000000000815273ffffffffffffffffffffffffffffffffffffffff92831692632a6a897b926108b3929116908590600401612db1565b50565b600281565b6060333214611023576040517f08c379a00000000000000000000000000000000000000000000000000000000081526004016104c190612e3c565b814281101561105e576040517f08c379a00000000000000000000000000000000000000000000000000000000081526004016104c190612ef6565b6000611068611c75565b73ffffffffffffffffffffffffffffffffffffffff16633f0e9edf878760008181106110bd577f4e487b7100000000000000000000000000000000000000000000000000000000600052603260045260246000fd5b90506020020160208101906110d29190612a2d565b8a6040518363ffffffff1660e01b81526004016110f0929190612db1565b602060405180830381600087803b15801561110a57600080fd5b505af115801561111e573d6000803e3d6000fd5b505050506040513d601f19601f820116820180604052508101906111429190612c49565b90506111f5600160008b6003811115611184577f4e487b7100000000000000000000000000000000000000000000000000000000600052602160045260246000fd5b60038111156111bc577f4e487b7100000000000000000000000000000000000000000000000000000000600052602160045260246000fd5b815260208101919091526040016000205473ffffffffffffffffffffffffffffffffffffffff166111ed838b61341e565b89898961174a565b9250610cdc3387876000818110611235577f4e487b7100000000000000000000000000000000000000000000000000000000600052603260045260246000fd5b905060200201602081019061124a9190612a2d565b888861125760018261341e565b81811061128d577f4e487b7100000000000000000000000000000000000000000000000000000000600052603260045260246000fd5b90506020020160208101906112a29190612a2d565b8b87600189516112b2919061341e565b815181106112e9577f4e487b7100000000000000000000000000000000000000000000000000000000600052603260045260246000fd5b6020026020010151611ccd565b600581565b606881565b600481565b600781565b333214611343576040517f08c379a00000000000000000000000000000000000000000000000000000000081526004016104c190612e3c565b61134b611b08565b73ffffffffffffffffffffffffffffffffffffffff1663d0eb66533384846040518463ffffffff1660e01b815260040161138793929190612d80565b600060405180830381600087803b1580156113a157600080fd5b505af11580156113b5573d6000803e3d6000fd5b505050506113c1611a5b565b73ffffffffffffffffffffffffffffffffffffffff1663d9caed128333846040518463ffffffff1660e01b81526004016113fd93929190612d80565b602060405180830381600087803b15801561141757600080fd5b505af115801561142b573d6000803e3d6000fd5b505050506040513d601f19601f8201168201806040525081019061144f9190612a97565b611485576040517f08c379a00000000000000000000000000000000000000000000000000000000081526004016104c190613135565b5050565b60606000600160008760038111156114ca577f4e487b7100000000000000000000000000000000000000000000000000000000600052602160045260246000fd5b6003811115611502577f4e487b7100000000000000000000000000000000000000000000000000000000600052602160045260246000fd5b815260200190815260200160002060009054906101000a900473ffffffffffffffffffffffffffffffffffffffff169050610e1481868686808060200260200160405190810160405280939291908181526020018383602002808284376000920191909152506120d692505050565b3332146115aa576040517f08c379a00000000000000000000000000000000000000000000000000000000081526004016104c190612e3c565b6115b2611b60565b73ffffffffffffffffffffffffffffffffffffffff1663ee0862bf83836040518363ffffffff1660e01b81526004016115ec929190612db1565b600060405180830381600087803b15801561160657600080fd5b505af115801561161a573d6000803e3d6000fd5b50505050611626611b08565b73ffffffffffffffffffffffffffffffffffffffff1663498d55eb3384846040518463ffffffff1660e01b815260040161166293929190612d80565b600060405180830381600087803b15801561167c57600080fd5b505af1158015611690573d6000803e3d6000fd5b505050505050565b600080546040517fd87fefd200000000000000000000000000000000000000000000000000000000815273ffffffffffffffffffffffffffffffffffffffff9091169063d87fefd2906116f29060079086906004016132c9565b60206040518083038186803b15801561170a57600080fd5b505afa15801561171e573d6000803e3d6000fd5b505050506040513d601f19601f820116820180604052508101906117429190612a97565b90505b919050565b606061178a86868585808060200260200160405190810160405280939291908181526020018383602002808284376000920191909152506120d692505050565b905083816001835161179c919061341e565b815181106117d3577f4e487b7100000000000000000000000000000000000000000000000000000000600052603260045260246000fd5b60200260200101511015611813576040517f08c379a00000000000000000000000000000000000000000000000000000000081526004016104c19061325d565b61181b611a5b565b73ffffffffffffffffffffffffffffffffffffffff1663d9caed1284846000818110611870577f4e487b7100000000000000000000000000000000000000000000000000000000600052603260045260246000fd5b90506020020160208101906118859190612a2d565b61192c89878760008181106118c3577f4e487b7100000000000000000000000000000000000000000000000000000000600052603260045260246000fd5b90506020020160208101906118d89190612a2d565b88886001818110611912577f4e487b7100000000000000000000000000000000000000000000000000000000600052603260045260246000fd5b90506020020160208101906119279190612a2d565b612320565b84600081518110611966577f4e487b7100000000000000000000000000000000000000000000000000000000600052603260045260246000fd5b60200260200101516040518463ffffffff1660e01b815260040161198c93929190612d80565b602060405180830381600087803b1580156119a657600080fd5b505af11580156119ba573d6000803e3d6000fd5b505050506040513d601f19601f820116820180604052508101906119de9190612a97565b611a14576040517f08c379a00000000000000000000000000000000000000000000000000000000081526004016104c190612fe7565b6105758682858580806020026020016040519081016040528093929190818152602001838360200280828437600092019190915250611a569250611a5b915050565b612392565b600080546040517f3c9c8f9c00000000000000000000000000000000000000000000000000000000815273ffffffffffffffffffffffffffffffffffffffff90911690633c9c8f9c90611ab3906065906004016132ba565b60206040518083038186803b158015611acb57600080fd5b505afa158015611adf573d6000803e3d6000fd5b505050506040513d601f19601f82011682018060405250810190611b039190612a50565b905090565b600080546040517f3c9c8f9c00000000000000000000000000000000000000000000000000000000815273ffffffffffffffffffffffffffffffffffffffff90911690633c9c8f9c90611ab3906068906004016132ba565b600080546040517f3c9c8f9c00000000000000000000000000000000000000000000000000000000815273ffffffffffffffffffffffffffffffffffffffff90911690633c9c8f9c90611ab3906066906004016132ba565b6060611bf88686858580806020026020016040519081016040528093929190818152602001838360200280828437600092019190915250611e6c92505050565b90508381600081518110611c35577f4e487b7100000000000000000000000000000000000000000000000000000000600052603260045260246000fd5b60200260200101511115611813576040517f08c379a00000000000000000000000000000000000000000000000000000000081526004016104c19061316c565b600080546040517f3c9c8f9c00000000000000000000000000000000000000000000000000000000815273ffffffffffffffffffffffffffffffffffffffff90911690633c9c8f9c90611ab3906069906004016132ba565b600080611cd8611b08565b73ffffffffffffffffffffffffffffffffffffffff16633500aa0b88888888886040518663ffffffff1660e01b8152600401611d18959493929190612d3f565b6040805180830381600087803b158015611d3157600080fd5b505af1158015611d45573d6000803e3d6000fd5b505050506040513d601f19601f82011682018060405250810190611d699190612c61565b90925090508115611de957611d7c611b60565b73ffffffffffffffffffffffffffffffffffffffff16632a6a897b86846040518363ffffffff1660e01b8152600401611db6929190612db1565b600060405180830381600087803b158015611dd057600080fd5b505af1158015611de4573d6000803e3d6000fd5b505050505b801561079357611df7611b60565b73ffffffffffffffffffffffffffffffffffffffff1663ee0862bf86836040518363ffffffff1660e01b8152600401611e31929190612db1565b600060405180830381600087803b158015611e4b57600080fd5b505af1158015611e5f573d6000803e3d6000fd5b5050505050505050505050565b6060600282511015611eaa576040517f08c379a00000000000000000000000000000000000000000000000000000000081526004016104c190613044565b815167ffffffffffffffff811115611eeb577f4e487b7100000000000000000000000000000000000000000000000000000000600052604160045260246000fd5b604051908082528060200260200182016040528015611f14578160200160208202803683370190505b509050828160018351611f27919061341e565b81518110611f5e577f4e487b7100000000000000000000000000000000000000000000000000000000600052603260045260246000fd5b602002602001018181525050600060018351611f7a919061341e565b90505b80156120ce5760008061201b8786611f9660018761341e565b81518110611fcd577f4e487b7100000000000000000000000000000000000000000000000000000000600052603260045260246000fd5b602002602001015187868151811061200e577f4e487b7100000000000000000000000000000000000000000000000000000000600052603260045260246000fd5b6020026020010151612617565b9150915061206a84848151811061205b577f4e487b7100000000000000000000000000000000000000000000000000000000600052603260045260246000fd5b60200260200101518383612725565b8461207660018661341e565b815181106120ad577f4e487b7100000000000000000000000000000000000000000000000000000000600052603260045260246000fd5b602002602001018181525050505080806120c690613435565b915050611f7d565b509392505050565b6060600282511015612114576040517f08c379a00000000000000000000000000000000000000000000000000000000081526004016104c190613044565b815167ffffffffffffffff811115612155577f4e487b7100000000000000000000000000000000000000000000000000000000600052604160045260246000fd5b60405190808252806020026020018201604052801561217e578160200160208202803683370190505b50905082816000815181106121bc577f4e487b7100000000000000000000000000000000000000000000000000000000600052603260045260246000fd5b60200260200101818152505060005b600183516121d9919061341e565b8110156120ce5760008061226d87868581518110612220577f4e487b7100000000000000000000000000000000000000000000000000000000600052603260045260246000fd5b6020026020010151878660016122369190613390565b8151811061200e577f4e487b7100000000000000000000000000000000000000000000000000000000600052603260045260246000fd5b915091506122bc8484815181106122ad577f4e487b7100000000000000000000000000000000000000000000000000000000600052603260045260246000fd5b602002602001015183836127f0565b846122c8856001613390565b815181106122ff577f4e487b7100000000000000000000000000000000000000000000000000000000600052603260045260246000fd5b602002602001018181525050505080806123189061346a565b9150506121cb565b600080600061232f85856128bf565b91509150858282604051602001612347929190612c84565b6040516020818303038152906040528051906020012060405160200161236e929190612cbe565b6040516020818303038152906040528051906020012060601c925050509392505050565b60005b600183516123a3919061341e565b8110156108e1576000808483815181106123e6577f4e487b7100000000000000000000000000000000000000000000000000000000600052603260045260246000fd5b6020026020010151858460016123fc9190613390565b81518110612433577f4e487b7100000000000000000000000000000000000000000000000000000000600052603260045260246000fd5b602002602001015191509150600061244b83836128bf565b50905060008761245c866001613390565b81518110612493577f4e487b7100000000000000000000000000000000000000000000000000000000600052603260045260246000fd5b602002602001015190506000808373ffffffffffffffffffffffffffffffffffffffff168673ffffffffffffffffffffffffffffffffffffffff16146124db578260006124df565b6000835b91509150600060028a516124f3919061341e565b88106124ff5788612554565b6125548c878c6125108c6002613390565b81518110612547577f4e487b7100000000000000000000000000000000000000000000000000000000600052603260045260246000fd5b6020026020010151612320565b90506125618c8888612320565b73ffffffffffffffffffffffffffffffffffffffff1663022c0d9f84848460006040519080825280601f01601f1916602001820160405280156125ab576020820181803683370190505b506040518563ffffffff1660e01b81526004016125cb94939291906132f3565b600060405180830381600087803b1580156125e557600080fd5b505af11580156125f9573d6000803e3d6000fd5b5050505050505050505050808061260f9061346a565b915050612395565b600080600061262685856128bf565b509050600080612637888888612320565b73ffffffffffffffffffffffffffffffffffffffff16630902f1ac6040518163ffffffff1660e01b815260040160606040518083038186803b15801561267c57600080fd5b505afa158015612690573d6000803e3d6000fd5b505050506040513d601f19601f820116820180604052508101906126b49190612be3565b506dffffffffffffffffffffffffffff1691506dffffffffffffffffffffffffffff1691508273ffffffffffffffffffffffffffffffffffffffff168773ffffffffffffffffffffffffffffffffffffffff1614612713578082612716565b81815b90999098509650505050505050565b6000808411612760576040517f08c379a00000000000000000000000000000000000000000000000000000000081526004016104c190612f2d565b6000831180156127705750600082115b6127a6576040517f08c379a00000000000000000000000000000000000000000000000000000000081526004016104c19061307b565b60006127b285856133e1565b6127be906103e86133e1565b905060006103e56127cf878661341e565b6127d9919061341e565b90506127e581836133a8565b610e14906001613390565b600080841161282b576040517f08c379a00000000000000000000000000000000000000000000000000000000081526004016104c190613200565b60008311801561283b5750600082115b612871576040517f08c379a00000000000000000000000000000000000000000000000000000000081526004016104c19061307b565b600061287f856103e56133e1565b9050600061288d84836133e1565b905060008261289e876103e86133e1565b6128a89190613390565b90506128b481836133a8565b979650505050505050565b6000808273ffffffffffffffffffffffffffffffffffffffff168473ffffffffffffffffffffffffffffffffffffffff161415612928576040517f08c379a00000000000000000000000000000000000000000000000000000000081526004016104c190612f8a565b8273ffffffffffffffffffffffffffffffffffffffff168473ffffffffffffffffffffffffffffffffffffffff1610612962578284612965565b83835b909250905073ffffffffffffffffffffffffffffffffffffffff82166129b7576040517f08c379a00000000000000000000000000000000000000000000000000000000081526004016104c1906131c9565b9250929050565b60008083601f8401126129cf578182fd5b50813567ffffffffffffffff8111156129e6578182fd5b60208301915083602080830285010111156129b757600080fd5b80356004811061174557600080fd5b80516dffffffffffffffffffffffffffff8116811461174557600080fd5b600060208284031215612a3e578081fd5b8135612a49816134d2565b9392505050565b600060208284031215612a61578081fd5b8151612a49816134d2565b60008060408385031215612a7e578081fd5b8235612a89816134d2565b946020939093013593505050565b600060208284031215612aa8578081fd5b81518015158114612a49578182fd5b60008060008060608587031215612acc578182fd5b612ad585612a00565b935060208501359250604085013567ffffffffffffffff811115612af7578283fd5b612b03878288016129be565b95989497509550505050565b600080600080600060808688031215612b26578081fd5b612b2f86612a00565b94506020860135935060408601359250606086013567ffffffffffffffff811115612b58578182fd5b612b64888289016129be565b969995985093965092949392505050565b60008060008060008060a08789031215612b8d578081fd5b612b9687612a00565b95506020870135945060408701359350606087013567ffffffffffffffff811115612bbf578182fd5b612bcb89828a016129be565b979a9699509497949695608090950135949350505050565b600080600060608486031215612bf7578283fd5b612c0084612a0f565b9250612c0e60208501612a0f565b9150604084015163ffffffff81168114612c26578182fd5b809150509250925092565b600060208284031215612c42578081fd5b5035919050565b600060208284031215612c5a578081fd5b5051919050565b60008060408385031215612c73578182fd5b505080516020909101519092909150565b7fffffffffffffffffffffffffffffffffffffffff000000000000000000000000606093841b811682529190921b16601482015260280190565b7fff00000000000000000000000000000000000000000000000000000000000000815260609290921b7fffffffffffffffffffffffffffffffffffffffff00000000000000000000000016600183015260158201527f96e8ac4277198ff8b6f785478aa9a39f403cb768dd02cbee326c3e7da348845f603582015260550190565b73ffffffffffffffffffffffffffffffffffffffff958616815293851660208501529190931660408301526060820192909252608081019190915260a00190565b73ffffffffffffffffffffffffffffffffffffffff9384168152919092166020820152604081019190915260600190565b73ffffffffffffffffffffffffffffffffffffffff929092168252602082015260400190565b6020808252825182820181905260009190848201906040850190845b81811015612e0f57835183529284019291840191600101612df3565b50909695505050505050565b73ffffffffffffffffffffffffffffffffffffffff91909116815260200190565b6020808252603a908201527f43757272656e746c79206e6f20696e7465726d656469617269657320616c6c6f60408201527f77656420666f7220746869732066756e6374696f6e2063616c6c000000000000606082015260800190565b6020808252603e908201527f43616c6c696e6720636f6e7472616374206973206e6f7420617574686f72697a60408201527f656420746f20747261646520776974682070726f746f636c2066756e64730000606082015260800190565b60208082526018908201527f556e69737761705632526f757465723a20455850495245440000000000000000604082015260600190565b6020808252602c908201527f556e697377617056324c6962726172793a20494e53554646494349454e545f4f60408201527f55545055545f414d4f554e540000000000000000000000000000000000000000606082015260800190565b60208082526025908201527f556e697377617056324c6962726172793a204944454e544943414c5f4144445260408201527f4553534553000000000000000000000000000000000000000000000000000000606082015260800190565b60208082526028908201527f4d617267696e526f757465723a20496e73756666696369656e74206c656e646960408201527f6e672066756e6473000000000000000000000000000000000000000000000000606082015260800190565b6020808252601e908201527f556e697377617056324c6962726172793a20494e56414c49445f504154480000604082015260600190565b60208082526028908201527f556e697377617056324c6962726172793a20494e53554646494349454e545f4c60408201527f4951554944495459000000000000000000000000000000000000000000000000606082015260800190565b60208082526029908201527f43616e6e6f74207472616e73666572206465706f73697420746f206d6172676960408201527f6e206163636f756e740000000000000000000000000000000000000000000000606082015260800190565b6020808252601c908201527f436f756c64206e6f742077697468647261772066726f6d2066756e6400000000604082015260600190565b60208082526027908201527f556e69737761705632526f757465723a204558434553534956455f494e50555460408201527f5f414d4f554e5400000000000000000000000000000000000000000000000000606082015260800190565b6020808252601e908201527f556e697377617056324c6962726172793a205a45524f5f414444524553530000604082015260600190565b6020808252602b908201527f556e697377617056324c6962726172793a20494e53554646494349454e545f4960408201527f4e5055545f414d4f554e54000000000000000000000000000000000000000000606082015260800190565b60208082526028908201527f4d617267696e526f757465723a20494e53554646494349454e545f4f5554505560408201527f545f414d4f554e54000000000000000000000000000000000000000000000000606082015260800190565b61ffff91909116815260200190565b61ffff92909216825273ffffffffffffffffffffffffffffffffffffffff16602082015260400190565b60008582526020858184015273ffffffffffffffffffffffffffffffffffffffff85166040840152608060608401528351806080850152825b818110156133485785810183015185820160a00152820161332c565b81811115613359578360a083870101525b50601f017fffffffffffffffffffffffffffffffffffffffffffffffffffffffffffffffe0169290920160a0019695505050505050565b600082198211156133a3576133a36134a3565b500190565b6000826133dc577f4e487b710000000000000000000000000000000000000000000000000000000081526012600452602481fd5b500490565b6000817fffffffffffffffffffffffffffffffffffffffffffffffffffffffffffffffff0483118215151615613419576134196134a3565b500290565b600082821015613430576134306134a3565b500390565b600081613444576134446134a3565b507fffffffffffffffffffffffffffffffffffffffffffffffffffffffffffffffff0190565b60007fffffffffffffffffffffffffffffffffffffffffffffffffffffffffffffffff82141561349c5761349c6134a3565b5060010190565b7f4e487b7100000000000000000000000000000000000000000000000000000000600052601160045260246000fd5b73ffffffffffffffffffffffffffffffffffffffff81168114610fe057600080fdfea26469706673582212208b0acbb7d319b7d782548288a236694dd9435af5d43b4c914aab59b5bd47adf664736f6c63430008010033",
  "linkReferences": {},
  "deployedLinkReferences": {}
}