{
  "_format": "hh-sol-artifact-1",
  "contractName": "MarginRouter",
  "sourceName": "contracts/MarginRouter.sol",
  "abi": [
    {
      "inputs": [
        {
          "internalType": "address",
          "name": "uniswapFactory",
          "type": "address"
        },
        {
          "internalType": "address",
          "name": "sushiswapFactory",
          "type": "address"
        },
        {
          "internalType": "address",
          "name": "_WETH",
          "type": "address"
        },
        {
          "internalType": "address",
          "name": "_roles",
          "type": "address"
        }
      ],
      "stateMutability": "nonpayable",
      "type": "constructor"
    },
    {
      "anonymous": false,
      "inputs": [
        {
          "indexed": false,
          "internalType": "address",
          "name": "trader",
          "type": "address"
        },
        {
          "indexed": false,
          "internalType": "address",
          "name": "borrowToken",
          "type": "address"
        },
        {
          "indexed": false,
          "internalType": "uint256",
          "name": "borrowAmount",
          "type": "uint256"
        }
      ],
      "name": "CrossBorrow",
      "type": "event"
    },
    {
      "anonymous": false,
      "inputs": [
        {
          "indexed": false,
          "internalType": "address",
          "name": "trader",
          "type": "address"
        },
        {
          "indexed": false,
          "internalType": "address",
          "name": "depositToken",
          "type": "address"
        },
        {
          "indexed": false,
          "internalType": "uint256",
          "name": "depositAmount",
          "type": "uint256"
        }
      ],
      "name": "CrossDeposit",
      "type": "event"
    },
    {
      "anonymous": false,
      "inputs": [
        {
          "indexed": false,
          "internalType": "address",
          "name": "trader",
          "type": "address"
        },
        {
          "indexed": false,
          "internalType": "address",
          "name": "inToken",
          "type": "address"
        },
        {
          "indexed": false,
          "internalType": "uint256",
          "name": "inTokenAmount",
          "type": "uint256"
        },
        {
          "indexed": false,
          "internalType": "uint256",
          "name": "inTokenBorrow",
          "type": "uint256"
        },
        {
          "indexed": false,
          "internalType": "address",
          "name": "outToken",
          "type": "address"
        },
        {
          "indexed": false,
          "internalType": "uint256",
          "name": "outTokenAmount",
          "type": "uint256"
        },
        {
          "indexed": false,
          "internalType": "uint256",
          "name": "outTokenExtinguish",
          "type": "uint256"
        }
      ],
      "name": "CrossTrade",
      "type": "event"
    },
    {
      "anonymous": false,
      "inputs": [
        {
          "indexed": false,
          "internalType": "address",
          "name": "trader",
          "type": "address"
        },
        {
          "indexed": false,
          "internalType": "address",
          "name": "withdrawToken",
          "type": "address"
        },
        {
          "indexed": false,
          "internalType": "uint256",
          "name": "withdrawAmount",
          "type": "uint256"
        }
      ],
      "name": "CrossWithdraw",
      "type": "event"
    },
    {
      "inputs": [],
      "name": "ADMIN",
      "outputs": [
        {
          "internalType": "uint16",
          "name": "",
          "type": "uint16"
        }
      ],
      "stateMutability": "view",
      "type": "function"
    },
    {
      "inputs": [],
      "name": "AUTHORIZED_FUND_TRADER",
      "outputs": [
        {
          "internalType": "uint16",
          "name": "",
          "type": "uint16"
        }
      ],
      "stateMutability": "view",
      "type": "function"
    },
    {
      "inputs": [],
      "name": "BORROWER",
      "outputs": [
        {
          "internalType": "uint16",
          "name": "",
          "type": "uint16"
        }
      ],
      "stateMutability": "view",
      "type": "function"
    },
    {
      "inputs": [],
      "name": "FEE_CONTROLLER",
      "outputs": [
        {
          "internalType": "uint16",
          "name": "",
          "type": "uint16"
        }
      ],
      "stateMutability": "view",
      "type": "function"
    },
    {
      "inputs": [],
      "name": "FEE_SOURCE",
      "outputs": [
        {
          "internalType": "uint16",
          "name": "",
          "type": "uint16"
        }
      ],
      "stateMutability": "view",
      "type": "function"
    },
    {
      "inputs": [],
      "name": "FUND",
      "outputs": [
        {
          "internalType": "uint16",
          "name": "",
          "type": "uint16"
        }
      ],
      "stateMutability": "view",
      "type": "function"
    },
    {
      "inputs": [],
      "name": "INCENTIVE_DISTRIBUTION",
      "outputs": [
        {
          "internalType": "uint16",
          "name": "",
          "type": "uint16"
        }
      ],
      "stateMutability": "view",
      "type": "function"
    },
    {
      "inputs": [],
      "name": "INCENTIVE_REPORTER",
      "outputs": [
        {
          "internalType": "uint16",
          "name": "",
          "type": "uint16"
        }
      ],
      "stateMutability": "view",
      "type": "function"
    },
    {
      "inputs": [],
      "name": "LENDING",
      "outputs": [
        {
          "internalType": "uint16",
          "name": "",
          "type": "uint16"
        }
      ],
      "stateMutability": "view",
      "type": "function"
    },
    {
      "inputs": [],
      "name": "LIQUIDATOR",
      "outputs": [
        {
          "internalType": "uint16",
          "name": "",
          "type": "uint16"
        }
      ],
      "stateMutability": "view",
      "type": "function"
    },
    {
      "inputs": [],
      "name": "MARGIN_CALLER",
      "outputs": [
        {
          "internalType": "uint16",
          "name": "",
          "type": "uint16"
        }
      ],
      "stateMutability": "view",
      "type": "function"
    },
    {
      "inputs": [],
      "name": "MARGIN_TRADER",
      "outputs": [
        {
          "internalType": "uint16",
          "name": "",
          "type": "uint16"
        }
      ],
      "stateMutability": "view",
      "type": "function"
    },
    {
      "inputs": [],
      "name": "MARGIN_TRADING",
      "outputs": [
        {
          "internalType": "uint16",
          "name": "",
          "type": "uint16"
        }
      ],
      "stateMutability": "view",
      "type": "function"
    },
    {
      "inputs": [],
      "name": "PRICE_CONTROLLER",
      "outputs": [
        {
          "internalType": "uint16",
          "name": "",
          "type": "uint16"
        }
      ],
      "stateMutability": "view",
      "type": "function"
    },
    {
      "inputs": [],
      "name": "ROUTER",
      "outputs": [
        {
          "internalType": "uint16",
          "name": "",
          "type": "uint16"
        }
      ],
      "stateMutability": "view",
      "type": "function"
    },
    {
      "inputs": [],
      "name": "STAKE_PENALIZER",
      "outputs": [
        {
          "internalType": "uint16",
          "name": "",
          "type": "uint16"
        }
      ],
      "stateMutability": "view",
      "type": "function"
    },
    {
      "inputs": [],
      "name": "TOKEN_ACTIVATOR",
      "outputs": [
        {
          "internalType": "uint16",
          "name": "",
          "type": "uint16"
        }
      ],
      "stateMutability": "view",
      "type": "function"
    },
    {
      "inputs": [],
      "name": "WITHDRAWER",
      "outputs": [
        {
          "internalType": "uint16",
          "name": "",
          "type": "uint16"
        }
      ],
      "stateMutability": "view",
      "type": "function"
    },
    {
      "inputs": [
        {
          "internalType": "enum AMM",
          "name": "amm",
          "type": "uint8"
        },
        {
          "internalType": "uint256",
          "name": "amountIn",
          "type": "uint256"
        },
        {
          "internalType": "uint256",
          "name": "amountOutMin",
          "type": "uint256"
        },
        {
          "internalType": "address[]",
          "name": "path",
          "type": "address[]"
        }
      ],
      "name": "authorizedSwapExactT4T",
      "outputs": [
        {
          "internalType": "uint256[]",
          "name": "",
          "type": "uint256[]"
        }
      ],
      "stateMutability": "nonpayable",
      "type": "function"
    },
    {
      "inputs": [
        {
          "internalType": "enum AMM",
          "name": "amm",
          "type": "uint8"
        },
        {
          "internalType": "uint256",
          "name": "amountOut",
          "type": "uint256"
        },
        {
          "internalType": "uint256",
          "name": "amountInMax",
          "type": "uint256"
        },
        {
          "internalType": "address[]",
          "name": "path",
          "type": "address[]"
        }
      ],
      "name": "authorizedSwapT4ExactT",
      "outputs": [
        {
          "internalType": "uint256[]",
          "name": "",
          "type": "uint256[]"
        }
      ],
      "stateMutability": "nonpayable",
      "type": "function"
    },
    {
      "inputs": [
        {
          "internalType": "address",
          "name": "",
          "type": "address"
        },
        {
          "internalType": "address",
          "name": "",
          "type": "address"
        }
      ],
      "name": "claimIds",
      "outputs": [
        {
          "internalType": "uint256",
          "name": "",
          "type": "uint256"
        }
      ],
      "stateMutability": "view",
      "type": "function"
    },
    {
      "inputs": [
        {
          "internalType": "address",
          "name": "borrowToken",
          "type": "address"
        },
        {
          "internalType": "uint256",
          "name": "borrowAmount",
          "type": "uint256"
        }
      ],
      "name": "crossBorrow",
      "outputs": [],
      "stateMutability": "nonpayable",
      "type": "function"
    },
    {
      "inputs": [
        {
          "internalType": "address",
          "name": "depositToken",
          "type": "address"
        },
        {
          "internalType": "uint256",
          "name": "depositAmount",
          "type": "uint256"
        }
      ],
      "name": "crossDeposit",
      "outputs": [],
      "stateMutability": "nonpayable",
      "type": "function"
    },
    {
      "inputs": [],
      "name": "crossDepositETH",
      "outputs": [],
      "stateMutability": "payable",
      "type": "function"
    },
    {
      "inputs": [
        {
          "internalType": "enum AMM",
          "name": "amm",
          "type": "uint8"
        },
        {
          "internalType": "uint256",
          "name": "amountIn",
          "type": "uint256"
        },
        {
          "internalType": "uint256",
          "name": "amountOutMin",
          "type": "uint256"
        },
        {
          "internalType": "address[]",
          "name": "path",
          "type": "address[]"
        },
        {
          "internalType": "uint256",
          "name": "deadline",
          "type": "uint256"
        }
      ],
      "name": "crossSwapExactTokensForTokens",
      "outputs": [
        {
          "internalType": "uint256[]",
          "name": "amounts",
          "type": "uint256[]"
        }
      ],
      "stateMutability": "nonpayable",
      "type": "function"
    },
    {
      "inputs": [
        {
          "internalType": "enum AMM",
          "name": "amm",
          "type": "uint8"
        },
        {
          "internalType": "uint256",
          "name": "amountOut",
          "type": "uint256"
        },
        {
          "internalType": "uint256",
          "name": "amountInMax",
          "type": "uint256"
        },
        {
          "internalType": "address[]",
          "name": "path",
          "type": "address[]"
        },
        {
          "internalType": "uint256",
          "name": "deadline",
          "type": "uint256"
        }
      ],
      "name": "crossSwapTokensForExactTokens",
      "outputs": [
        {
          "internalType": "uint256[]",
          "name": "amounts",
          "type": "uint256[]"
        }
      ],
      "stateMutability": "nonpayable",
      "type": "function"
    },
    {
      "inputs": [
        {
          "internalType": "address",
          "name": "withdrawToken",
          "type": "address"
        },
        {
          "internalType": "uint256",
          "name": "withdrawAmount",
          "type": "uint256"
        }
      ],
      "name": "crossWithdraw",
      "outputs": [],
      "stateMutability": "nonpayable",
      "type": "function"
    },
    {
      "inputs": [
        {
          "internalType": "uint256",
          "name": "withdrawAmount",
          "type": "uint256"
        }
      ],
      "name": "crossWithdrawETH",
      "outputs": [],
      "stateMutability": "nonpayable",
      "type": "function"
    },
    {
      "inputs": [
        {
          "internalType": "enum AMM",
          "name": "amm",
          "type": "uint8"
        },
        {
          "internalType": "uint256",
          "name": "outAmount",
          "type": "uint256"
        },
        {
          "internalType": "address[]",
          "name": "path",
          "type": "address[]"
        }
      ],
      "name": "getAmountsIn",
      "outputs": [
        {
          "internalType": "uint256[]",
          "name": "",
          "type": "uint256[]"
        }
      ],
      "stateMutability": "view",
      "type": "function"
    },
    {
      "inputs": [
        {
          "internalType": "enum AMM",
          "name": "amm",
          "type": "uint8"
        },
        {
          "internalType": "uint256",
          "name": "inAmount",
          "type": "uint256"
        },
        {
          "internalType": "address[]",
          "name": "path",
          "type": "address[]"
        }
      ],
      "name": "getAmountsOut",
      "outputs": [
        {
          "internalType": "uint256[]",
          "name": "",
          "type": "uint256[]"
        }
      ],
      "stateMutability": "view",
      "type": "function"
    },
    {
      "inputs": [
        {
          "internalType": "address",
          "name": "",
          "type": "address"
        }
      ],
      "name": "incentiveTranches",
      "outputs": [
        {
          "internalType": "uint8",
          "name": "",
          "type": "uint8"
        }
      ],
      "stateMutability": "view",
      "type": "function"
    },
    {
      "inputs": [],
      "name": "roles",
      "outputs": [
        {
          "internalType": "contract Roles",
          "name": "",
          "type": "address"
        }
      ],
      "stateMutability": "view",
      "type": "function"
    },
    {
      "inputs": [
        {
          "internalType": "address",
          "name": "token",
          "type": "address"
        },
        {
          "internalType": "uint8",
          "name": "tranche",
          "type": "uint8"
        }
      ],
      "name": "setIncentiveTranche",
      "outputs": [],
      "stateMutability": "nonpayable",
      "type": "function"
    }
  ],
  "bytecode": "0x60806040523480156200001157600080fd5b5060405162003ed138038062003ed18339810160408190526200003491620000e8565b600080546001600160a01b03199081166001600160a01b0393841617825560036020527f3617319a054d772f909f7c479a2cebe5066e836a939412e32403c99029b92eff8054821696841696909617909555600190527fa15bc60c955c405d20d9149c709e2460f1c2d9a497496a7f46004d1772c3054c805485169382169390931790925560048054909316911617905562000144565b80516001600160a01b0381168114620000e357600080fd5b919050565b60008060008060808587031215620000fe578384fd5b6200010985620000cb565b93506200011960208601620000cb565b92506200012960408601620000cb565b91506200013960608601620000cb565b905092959194509250565b613d7d80620001546000396000f3fe6080604052600436106101fe5760003560e01c80635c275a391161011d578063a5f9a362116100b0578063cacf8d451161007f578063e3e0626b11610064578063e3e0626b14610526578063eaa095f814610546578063eedb97c714610566576101fe565b8063cacf8d45146104fc578063d5d7ed7f14610511576101fe565b8063a5f9a3621461049d578063a94c7c34146104bd578063a9cc0536146104d2578063c76139d0146104e7576101fe565b80638824cbba116100ec5780638824cbba1461043357806390b931ed1461046057806394427b2014610480578063a0098d6914610488576101fe565b80635c275a39146103df57806366941984146103f457806381ca66001461040957806383a49c7c1461041e576101fe565b80632864f40111610195578063392f5f6411610164578063392f5f641461036657806346b887961461038857806348fb27b81461039d5780635adbeb15146103b2576101fe565b80632864f401146103075780632a0acc6a146103275780632fe94def1461033c57806332fe7b2614610351576101fe565b80631bc5d81d116101d15780631bc5d81d146102925780631dce3baa146102a75780631f2a6743146102c75780632233c436146102e7576101fe565b8063065d570f146102035780630aa29f1c1461022e5780631306d9021461025b5780631b6695071461027d575b600080fd5b34801561020f57600080fd5b50610218610586565b6040516102259190613aa7565b60405180910390f35b34801561023a57600080fd5b5061024e61024936600461324f565b61058b565b6040516102259190613567565b34801561026757600080fd5b5061027b61027636600461317a565b610689565b005b34801561028957600080fd5b506102186108ed565b34801561029e57600080fd5b506102186108f2565b3480156102b357600080fd5b5061027b6102c2366004613371565b6108f7565b3480156102d357600080fd5b5061024e6102e236600461324f565b610a3b565b3480156102f357600080fd5b5061024e6103023660046132b5565b610b24565b34801561031357600080fd5b5061027b6103223660046131a5565b610e3b565b34801561033357600080fd5b50610218610ed2565b34801561034857600080fd5b50610218610ed7565b34801561035d57600080fd5b50610218610edc565b34801561037257600080fd5b5061037b610ee1565b60405161022591906135ab565b34801561039457600080fd5b50610218610efd565b3480156103a957600080fd5b50610218610f02565b3480156103be57600080fd5b506103d26103cd366004613142565b610f07565b6040516102259190613ae0565b3480156103eb57600080fd5b50610218610f24565b34801561040057600080fd5b50610218610f29565b34801561041557600080fd5b50610218610f2e565b34801561042a57600080fd5b50610218610f33565b34801561043f57600080fd5b5061045361044e366004613103565b610f38565b6040516102259190613b86565b34801561046c57600080fd5b5061024e61047b3660046131f7565b610f4d565b61027b61103f565b34801561049457600080fd5b506102186112ad565b3480156104a957600080fd5b5061024e6104b83660046132b5565b6112b2565b3480156104c957600080fd5b506102186115c0565b3480156104de57600080fd5b506102186115c5565b3480156104f357600080fd5b506102186115ca565b34801561050857600080fd5b506102186115cf565b34801561051d57600080fd5b506102186115d4565b34801561053257600080fd5b5061027b61054136600461317a565b6115d9565b34801561055257600080fd5b5061024e6105613660046131f7565b611793565b34801561057257600080fd5b5061027b61058136600461317a565b61187b565b600381565b6060610596336119dc565b6105d5576040517f08c379a00000000000000000000000000000000000000000000000000000000081526004016105cc90613686565b60405180910390fd5b61067d60036000886003811115610615577f4e487b7100000000000000000000000000000000000000000000000000000000600052602160045260246000fd5b600381111561064d577f4e487b7100000000000000000000000000000000000000000000000000000000600052602160045260246000fd5b815260208101919091526040016000205473ffffffffffffffffffffffffffffffffffffffff1686868686611a8e565b90505b95945050505050565b3332146106c2576040517f08c379a00000000000000000000000000000000000000000000000000000000081526004016105cc90613629565b6106ca611d9f565b73ffffffffffffffffffffffffffffffffffffffff1663b3db428b3384846040518463ffffffff1660e01b8152600401610706939291906134c0565b602060405180830381600087803b15801561072057600080fd5b505af1158015610734573d6000803e3d6000fd5b505050506040513d601f19601f8201168201806040525081019061075891906131d7565b61078e576040517f08c379a00000000000000000000000000000000000000000000000000000000081526004016105cc906138c5565b6000610798611e4c565b73ffffffffffffffffffffffffffffffffffffffff166352a664d93385856040518463ffffffff1660e01b81526004016107d4939291906134c0565b602060405180830381600087803b1580156107ee57600080fd5b505af1158015610802573d6000803e3d6000fd5b505050506040513d601f19601f820116820180604052508101906108269190613389565b905080156108ad57610836611ea4565b73ffffffffffffffffffffffffffffffffffffffff16632a6a897b84836040518363ffffffff1660e01b8152600401610870929190613541565b600060405180830381600087803b15801561088a57600080fd5b505af115801561089e573d6000803e3d6000fd5b505050506108ad338483611efc565b7f2f7971a38b280a622029ac616d8d562df278b4b5839a7b124c33a1715ae092993384846040516108e0939291906134c0565b60405180910390a1505050565b600a81565b600881565b333214610930576040517f08c379a00000000000000000000000000000000000000000000000000000000081526004016105cc90613629565b610938611e4c565b600480546040517fd0eb665300000000000000000000000000000000000000000000000000000000815273ffffffffffffffffffffffffffffffffffffffff9384169363d0eb6653936109929333939216918791016134c0565b600060405180830381600087803b1580156109ac57600080fd5b505af11580156109c0573d6000803e3d6000fd5b505050506109cc611d9f565b73ffffffffffffffffffffffffffffffffffffffff16634782f77933836040518363ffffffff1660e01b8152600401610a06929190613541565b600060405180830381600087803b158015610a2057600080fd5b505af1158015610a34573d6000803e3d6000fd5b5050505050565b6060610a46336119dc565b610a7c576040517f08c379a00000000000000000000000000000000000000000000000000000000081526004016105cc90613686565b61067d60036000886003811115610abc577f4e487b7100000000000000000000000000000000000000000000000000000000600052602160045260246000fd5b6003811115610af4577f4e487b7100000000000000000000000000000000000000000000000000000000600052602160045260246000fd5b815260208101919091526040016000205473ffffffffffffffffffffffffffffffffffffffff1686868686611fba565b6060333214610b5f576040517f08c379a00000000000000000000000000000000000000000000000000000000081526004016105cc90613629565b8142811015610b9a576040517f08c379a00000000000000000000000000000000000000000000000000000000081526004016105cc906136e3565b6000610ba4612077565b73ffffffffffffffffffffffffffffffffffffffff166367cbf42d8787610bcc600182613c6e565b818110610c02577f4e487b7100000000000000000000000000000000000000000000000000000000600052603260045260246000fd5b9050602002016020810190610c179190613103565b8a6040518363ffffffff1660e01b8152600401610c35929190613541565b602060405180830381600087803b158015610c4f57600080fd5b505af1158015610c63573d6000803e3d6000fd5b505050506040513d601f19601f82011682018060405250810190610c879190613389565b9050610d3a600360008b6003811115610cc9577f4e487b7100000000000000000000000000000000000000000000000000000000600052602160045260246000fd5b6003811115610d01577f4e487b7100000000000000000000000000000000000000000000000000000000600052602160045260246000fd5b815260208101919091526040016000205473ffffffffffffffffffffffffffffffffffffffff16610d32838b613be0565b898989611fba565b9250610e2f3387876000818110610d7a577f4e487b7100000000000000000000000000000000000000000000000000000000600052603260045260246000fd5b9050602002016020810190610d8f9190613103565b8888610d9c600182613c6e565b818110610dd2577f4e487b7100000000000000000000000000000000000000000000000000000000600052603260045260246000fd5b9050602002016020810190610de79190613103565b86600081518110610e21577f4e487b7100000000000000000000000000000000000000000000000000000000600052603260045260246000fd5b60200260200101518c6120cf565b50509695505050505050565b610e44336122c6565b610e7a576040517f08c379a00000000000000000000000000000000000000000000000000000000081526004016105cc906135cc565b73ffffffffffffffffffffffffffffffffffffffff91909116600090815260016020526040902080547fffffffffffffffffffffffffffffffffffffffffffffffffffffffffffffff001660ff909216919091179055565b606b81565b606981565b606781565b60005473ffffffffffffffffffffffffffffffffffffffff1681565b600681565b606681565b600260209081526000928352604080842090915290825290205481565b606581565b600181565b606a81565b600981565b60016020526000908152604090205460ff1681565b6060600060036000876003811115610f8e577f4e487b7100000000000000000000000000000000000000000000000000000000600052602160045260246000fd5b6003811115610fc6577f4e487b7100000000000000000000000000000000000000000000000000000000600052602160045260246000fd5b815260200190815260200160002060009054906101000a900473ffffffffffffffffffffffffffffffffffffffff169050611035818686868080602002602001604051908101604052809392919081815260200183836020028082843760009201919091525061232092505050565b9695505050505050565b333214611078576040517f08c379a00000000000000000000000000000000000000000000000000000000081526004016105cc90613629565b611080611d9f565b73ffffffffffffffffffffffffffffffffffffffff1663a6a5f9fe346040518263ffffffff1660e01b81526004016000604051808303818588803b1580156110c757600080fd5b505af11580156110db573d6000803e3d6000fd5b505050505060006110ea611e4c565b600480546040517f52a664d900000000000000000000000000000000000000000000000000000000815273ffffffffffffffffffffffffffffffffffffffff938416936352a664d9936111449333939216913491016134c0565b602060405180830381600087803b15801561115e57600080fd5b505af1158015611172573d6000803e3d6000fd5b505050506040513d601f19601f820116820180604052508101906111969190613389565b90508015611256576111a6611ea4565b600480546040517f2a6a897b00000000000000000000000000000000000000000000000000000000815273ffffffffffffffffffffffffffffffffffffffff93841693632a6a897b936111ff9390911691869101613541565b600060405180830381600087803b15801561121957600080fd5b505af115801561122d573d6000803e3d6000fd5b5050600454611256925033915073ffffffffffffffffffffffffffffffffffffffff1683611efc565b6004546040517f2f7971a38b280a622029ac616d8d562df278b4b5839a7b124c33a1715ae09299916112a291339173ffffffffffffffffffffffffffffffffffffffff169034906134c0565b60405180910390a150565b600281565b60603332146112ed576040517f08c379a00000000000000000000000000000000000000000000000000000000081526004016105cc90613629565b8142811015611328576040517f08c379a00000000000000000000000000000000000000000000000000000000081526004016105cc906136e3565b6000611332612077565b73ffffffffffffffffffffffffffffffffffffffff16633f0e9edf87876000818110611387577f4e487b7100000000000000000000000000000000000000000000000000000000600052603260045260246000fd5b905060200201602081019061139c9190613103565b8a6040518363ffffffff1660e01b81526004016113ba929190613541565b602060405180830381600087803b1580156113d457600080fd5b505af11580156113e8573d6000803e3d6000fd5b505050506040513d601f19601f8201168201806040525081019061140c9190613389565b90506114bf600360008b600381111561144e577f4e487b7100000000000000000000000000000000000000000000000000000000600052602160045260246000fd5b6003811115611486577f4e487b7100000000000000000000000000000000000000000000000000000000600052602160045260246000fd5b815260208101919091526040016000205473ffffffffffffffffffffffffffffffffffffffff166114b7838b613c6e565b898989611a8e565b9250610e2f33878760008181106114ff577f4e487b7100000000000000000000000000000000000000000000000000000000600052603260045260246000fd5b90506020020160208101906115149190613103565b8888611521600182613c6e565b818110611557577f4e487b7100000000000000000000000000000000000000000000000000000000600052603260045260246000fd5b905060200201602081019061156c9190613103565b8b876001895161157c9190613c6e565b815181106115b3577f4e487b7100000000000000000000000000000000000000000000000000000000600052603260045260246000fd5b60200260200101516120cf565b600581565b606881565b606c81565b600481565b600781565b333214611612576040517f08c379a00000000000000000000000000000000000000000000000000000000081526004016105cc90613629565b61161a611e4c565b73ffffffffffffffffffffffffffffffffffffffff1663d0eb66533384846040518463ffffffff1660e01b8152600401611656939291906134c0565b600060405180830381600087803b15801561167057600080fd5b505af1158015611684573d6000803e3d6000fd5b50505050611690611d9f565b73ffffffffffffffffffffffffffffffffffffffff1663d9caed128333846040518463ffffffff1660e01b81526004016116cc939291906134c0565b602060405180830381600087803b1580156116e657600080fd5b505af11580156116fa573d6000803e3d6000fd5b505050506040513d601f19601f8201168201806040525081019061171e91906131d7565b611754576040517f08c379a00000000000000000000000000000000000000000000000000000000081526004016105cc90613922565b7f69725482a69b3feb662528aa4b8028c1f9f6288b9ef746d5c84a847e05ad0d6b338383604051611787939291906134c0565b60405180910390a15050565b60606000600360008760038111156117d4577f4e487b7100000000000000000000000000000000000000000000000000000000600052602160045260246000fd5b600381111561180c577f4e487b7100000000000000000000000000000000000000000000000000000000600052602160045260246000fd5b815260200190815260200160002060009054906101000a900473ffffffffffffffffffffffffffffffffffffffff169050611035818686868080602002602001604051908101604052809392919081815260200183836020028082843760009201919091525061258a92505050565b3332146118b4576040517f08c379a00000000000000000000000000000000000000000000000000000000081526004016105cc90613629565b6118bc611ea4565b73ffffffffffffffffffffffffffffffffffffffff1663ee0862bf83836040518363ffffffff1660e01b81526004016118f6929190613541565b600060405180830381600087803b15801561191057600080fd5b505af1158015611924573d6000803e3d6000fd5b50505050611930611e4c565b73ffffffffffffffffffffffffffffffffffffffff1663498d55eb3384846040518463ffffffff1660e01b815260040161196c939291906134c0565b600060405180830381600087803b15801561198657600080fd5b505af115801561199a573d6000803e3d6000fd5b505050506119a93383836127d4565b7fd160a035f47ba1f22446570a0c0f33960590c1e03b5ae81e67f8fdc4c721f4da338383604051611787939291906134c0565b600080546040517fd87fefd200000000000000000000000000000000000000000000000000000000815273ffffffffffffffffffffffffffffffffffffffff9091169063d87fefd290611a36906007908690600401613ab6565b60206040518083038186803b158015611a4e57600080fd5b505afa158015611a62573d6000803e3d6000fd5b505050506040513d601f19601f82011682018060405250810190611a8691906131d7565b90505b919050565b6060611ace868685858080602002602001604051908101604052809392919081815260200183836020028082843760009201919091525061258a92505050565b9050838160018351611ae09190613c6e565b81518110611b17577f4e487b7100000000000000000000000000000000000000000000000000000000600052603260045260246000fd5b60200260200101511015611b57576040517f08c379a00000000000000000000000000000000000000000000000000000000081526004016105cc90613a4a565b611b5f611d9f565b73ffffffffffffffffffffffffffffffffffffffff1663d9caed1284846000818110611bb4577f4e487b7100000000000000000000000000000000000000000000000000000000600052603260045260246000fd5b9050602002016020810190611bc99190613103565b611c708987876000818110611c07577f4e487b7100000000000000000000000000000000000000000000000000000000600052603260045260246000fd5b9050602002016020810190611c1c9190613103565b88886001818110611c56577f4e487b7100000000000000000000000000000000000000000000000000000000600052603260045260246000fd5b9050602002016020810190611c6b9190613103565b61299e565b84600081518110611caa577f4e487b7100000000000000000000000000000000000000000000000000000000600052603260045260246000fd5b60200260200101516040518463ffffffff1660e01b8152600401611cd0939291906134c0565b602060405180830381600087803b158015611cea57600080fd5b505af1158015611cfe573d6000803e3d6000fd5b505050506040513d601f19601f82011682018060405250810190611d2291906131d7565b611d58576040517f08c379a00000000000000000000000000000000000000000000000000000000081526004016105cc906137d4565b6106808682858580806020026020016040519081016040528093929190818152602001838360200280828437600092019190915250611d9a9250611d9f915050565b612a10565b600080546040517f3c9c8f9c00000000000000000000000000000000000000000000000000000000815273ffffffffffffffffffffffffffffffffffffffff90911690633c9c8f9c90611df790606590600401613aa7565b60206040518083038186803b158015611e0f57600080fd5b505afa158015611e23573d6000803e3d6000fd5b505050506040513d601f19601f82011682018060405250810190611e479190613126565b905090565b600080546040517f3c9c8f9c00000000000000000000000000000000000000000000000000000000815273ffffffffffffffffffffffffffffffffffffffff90911690633c9c8f9c90611df790606890600401613aa7565b600080546040517f3c9c8f9c00000000000000000000000000000000000000000000000000000000815273ffffffffffffffffffffffffffffffffffffffff90911690633c9c8f9c90611df790606690600401613aa7565b73ffffffffffffffffffffffffffffffffffffffff808416600090815260026020908152604080832093861683529281528282205460019091529190205460ff16611f45612c95565b73ffffffffffffffffffffffffffffffffffffffff1663a80167118284866040518463ffffffff1660e01b8152600401611f8193929190613bc5565b600060405180830381600087803b158015611f9b57600080fd5b505af1158015611faf573d6000803e3d6000fd5b505050505050505050565b6060611ffa868685858080602002602001604051908101604052809392919081815260200183836020028082843760009201919091525061232092505050565b90508381600081518110612037577f4e487b7100000000000000000000000000000000000000000000000000000000600052603260045260246000fd5b60200260200101511115611b57576040517f08c379a00000000000000000000000000000000000000000000000000000000081526004016105cc90613959565b600080546040517f3c9c8f9c00000000000000000000000000000000000000000000000000000000815273ffffffffffffffffffffffffffffffffffffffff90911690633c9c8f9c90611df790606990600401613aa7565b6000806120da611e4c565b73ffffffffffffffffffffffffffffffffffffffff16633500aa0b88888888886040518663ffffffff1660e01b815260040161211a95949392919061347f565b6040805180830381600087803b15801561213357600080fd5b505af1158015612147573d6000803e3d6000fd5b505050506040513d601f19601f8201168201806040525081019061216b91906133a1565b909250905081156121f55761217e611ea4565b73ffffffffffffffffffffffffffffffffffffffff16632a6a897b86846040518363ffffffff1660e01b81526004016121b8929190613541565b600060405180830381600087803b1580156121d257600080fd5b505af11580156121e6573d6000803e3d6000fd5b505050506121f5878684611efc565b801561227a57612203611ea4565b73ffffffffffffffffffffffffffffffffffffffff1663ee0862bf86836040518363ffffffff1660e01b815260040161223d929190613541565b600060405180830381600087803b15801561225757600080fd5b505af115801561226b573d6000803e3d6000fd5b5050505061227a8787836127d4565b7ffda7842105bd0ae9d4c9616a1d48b1e9f17e2d97cb890d021c291e7d1b53929f878786848988886040516122b597969594939291906134f1565b60405180910390a150505050505050565b600080546040517fd87fefd200000000000000000000000000000000000000000000000000000000815273ffffffffffffffffffffffffffffffffffffffff9091169063d87fefd290611a36906009908690600401613ab6565b606060028251101561235e576040517f08c379a00000000000000000000000000000000000000000000000000000000081526004016105cc90613831565b815167ffffffffffffffff81111561239f577f4e487b7100000000000000000000000000000000000000000000000000000000600052604160045260246000fd5b6040519080825280602002602001820160405280156123c8578160200160208202803683370190505b5090508281600183516123db9190613c6e565b81518110612412577f4e487b7100000000000000000000000000000000000000000000000000000000600052603260045260246000fd5b60200260200101818152505060006001835161242e9190613c6e565b90505b8015612582576000806124cf878661244a600187613c6e565b81518110612481577f4e487b7100000000000000000000000000000000000000000000000000000000600052603260045260246000fd5b60200260200101518786815181106124c2577f4e487b7100000000000000000000000000000000000000000000000000000000600052603260045260246000fd5b6020026020010151612ced565b9150915061251e84848151811061250f577f4e487b7100000000000000000000000000000000000000000000000000000000600052603260045260246000fd5b60200260200101518383612dfb565b8461252a600186613c6e565b81518110612561577f4e487b7100000000000000000000000000000000000000000000000000000000600052603260045260246000fd5b6020026020010181815250505050808061257a90613c85565b915050612431565b509392505050565b60606002825110156125c8576040517f08c379a00000000000000000000000000000000000000000000000000000000081526004016105cc90613831565b815167ffffffffffffffff811115612609577f4e487b7100000000000000000000000000000000000000000000000000000000600052604160045260246000fd5b604051908082528060200260200182016040528015612632578160200160208202803683370190505b5090508281600081518110612670577f4e487b7100000000000000000000000000000000000000000000000000000000600052603260045260246000fd5b60200260200101818152505060005b6001835161268d9190613c6e565b81101561258257600080612721878685815181106126d4577f4e487b7100000000000000000000000000000000000000000000000000000000600052603260045260246000fd5b6020026020010151878660016126ea9190613be0565b815181106124c2577f4e487b7100000000000000000000000000000000000000000000000000000000600052603260045260246000fd5b91509150612770848481518110612761577f4e487b7100000000000000000000000000000000000000000000000000000000600052603260045260246000fd5b60200260200101518383612ec6565b8461277c856001613be0565b815181106127b3577f4e487b7100000000000000000000000000000000000000000000000000000000600052603260045260246000fd5b602002602001018181525050505080806127cc90613cba565b91505061267f565b60006127de612c95565b73ffffffffffffffffffffffffffffffffffffffff80861660009081526002602090815260408083209388168352928152828220546001909152919020549192509060ff1681156128b6576040517ff542808700000000000000000000000000000000000000000000000000000000815273ffffffffffffffffffffffffffffffffffffffff84169063f54280879061287f90849086908990600401613bc5565b600060405180830381600087803b15801561289957600080fd5b505af11580156128ad573d6000803e3d6000fd5b50505050612996565b6040517f583d861600000000000000000000000000000000000000000000000000000000815273ffffffffffffffffffffffffffffffffffffffff84169063583d86169061290c9084908a908990600401613b94565b602060405180830381600087803b15801561292657600080fd5b505af115801561293a573d6000803e3d6000fd5b505050506040513d601f19601f8201168201806040525081019061295e9190613389565b73ffffffffffffffffffffffffffffffffffffffff8088166000908152600260209081526040808320938a1683529290522081905591505b505050505050565b60008060006129ad8585612f95565b915091508582826040516020016129c59291906133c4565b604051602081830303815290604052805190602001206040516020016129ec9291906133fe565b6040516020818303038152906040528051906020012060601c925050509392505050565b60005b60018351612a219190613c6e565b811015610a3457600080848381518110612a64577f4e487b7100000000000000000000000000000000000000000000000000000000600052603260045260246000fd5b602002602001015185846001612a7a9190613be0565b81518110612ab1577f4e487b7100000000000000000000000000000000000000000000000000000000600052603260045260246000fd5b6020026020010151915091506000612ac98383612f95565b509050600087612ada866001613be0565b81518110612b11577f4e487b7100000000000000000000000000000000000000000000000000000000600052603260045260246000fd5b602002602001015190506000808373ffffffffffffffffffffffffffffffffffffffff168673ffffffffffffffffffffffffffffffffffffffff1614612b5957826000612b5d565b6000835b91509150600060028a51612b719190613c6e565b8810612b7d5788612bd2565b612bd28c878c612b8e8c6002613be0565b81518110612bc5577f4e487b7100000000000000000000000000000000000000000000000000000000600052603260045260246000fd5b602002602001015161299e565b9050612bdf8c888861299e565b73ffffffffffffffffffffffffffffffffffffffff1663022c0d9f84848460006040519080825280601f01601f191660200182016040528015612c29576020820181803683370190505b506040518563ffffffff1660e01b8152600401612c499493929190613ae9565b600060405180830381600087803b158015612c6357600080fd5b505af1158015612c77573d6000803e3d6000fd5b50505050505050505050508080612c8d90613cba565b915050612a13565b600080546040517f3c9c8f9c00000000000000000000000000000000000000000000000000000000815273ffffffffffffffffffffffffffffffffffffffff90911690633c9c8f9c90611df790606c90600401613aa7565b6000806000612cfc8585612f95565b509050600080612d0d88888861299e565b73ffffffffffffffffffffffffffffffffffffffff16630902f1ac6040518163ffffffff1660e01b815260040160606040518083038186803b158015612d5257600080fd5b505afa158015612d66573d6000803e3d6000fd5b505050506040513d601f19601f82011682018060405250810190612d8a9190613323565b506dffffffffffffffffffffffffffff1691506dffffffffffffffffffffffffffff1691508273ffffffffffffffffffffffffffffffffffffffff168773ffffffffffffffffffffffffffffffffffffffff1614612de9578082612dec565b81815b90999098509650505050505050565b6000808411612e36576040517f08c379a00000000000000000000000000000000000000000000000000000000081526004016105cc9061371a565b600083118015612e465750600082115b612e7c576040517f08c379a00000000000000000000000000000000000000000000000000000000081526004016105cc90613868565b6000612e888585613c31565b612e94906103e8613c31565b905060006103e5612ea58786613c6e565b612eaf9190613c6e565b9050612ebb8183613bf8565b611035906001613be0565b6000808411612f01576040517f08c379a00000000000000000000000000000000000000000000000000000000081526004016105cc906139ed565b600083118015612f115750600082115b612f47576040517f08c379a00000000000000000000000000000000000000000000000000000000081526004016105cc90613868565b6000612f55856103e5613c31565b90506000612f638483613c31565b9050600082612f74876103e8613c31565b612f7e9190613be0565b9050612f8a8183613bf8565b979650505050505050565b6000808273ffffffffffffffffffffffffffffffffffffffff168473ffffffffffffffffffffffffffffffffffffffff161415612ffe576040517f08c379a00000000000000000000000000000000000000000000000000000000081526004016105cc90613777565b8273ffffffffffffffffffffffffffffffffffffffff168473ffffffffffffffffffffffffffffffffffffffff161061303857828461303b565b83835b909250905073ffffffffffffffffffffffffffffffffffffffff821661308d576040517f08c379a00000000000000000000000000000000000000000000000000000000081526004016105cc906139b6565b9250929050565b60008083601f8401126130a5578182fd5b50813567ffffffffffffffff8111156130bc578182fd5b602083019150836020808302850101111561308d57600080fd5b803560048110611a8957600080fd5b80516dffffffffffffffffffffffffffff81168114611a8957600080fd5b600060208284031215613114578081fd5b813561311f81613d22565b9392505050565b600060208284031215613137578081fd5b815161311f81613d22565b60008060408385031215613154578081fd5b823561315f81613d22565b9150602083013561316f81613d22565b809150509250929050565b6000806040838503121561318c578182fd5b823561319781613d22565b946020939093013593505050565b600080604083850312156131b7578182fd5b82356131c281613d22565b9150602083013560ff8116811461316f578182fd5b6000602082840312156131e8578081fd5b8151801515811461311f578182fd5b6000806000806060858703121561320c578182fd5b613215856130d6565b935060208501359250604085013567ffffffffffffffff811115613237578283fd5b61324387828801613094565b95989497509550505050565b600080600080600060808688031215613266578081fd5b61326f866130d6565b94506020860135935060408601359250606086013567ffffffffffffffff811115613298578182fd5b6132a488828901613094565b969995985093965092949392505050565b60008060008060008060a087890312156132cd578081fd5b6132d6876130d6565b95506020870135945060408701359350606087013567ffffffffffffffff8111156132ff578182fd5b61330b89828a01613094565b979a9699509497949695608090950135949350505050565b600080600060608486031215613337578283fd5b613340846130e5565b925061334e602085016130e5565b9150604084015163ffffffff81168114613366578182fd5b809150509250925092565b600060208284031215613382578081fd5b5035919050565b60006020828403121561339a578081fd5b5051919050565b600080604083850312156133b3578182fd5b505080516020909101519092909150565b7fffffffffffffffffffffffffffffffffffffffff000000000000000000000000606093841b811682529190921b16601482015260280190565b7fff00000000000000000000000000000000000000000000000000000000000000815260609290921b7fffffffffffffffffffffffffffffffffffffffff00000000000000000000000016600183015260158201527f96e8ac4277198ff8b6f785478aa9a39f403cb768dd02cbee326c3e7da348845f603582015260550190565b73ffffffffffffffffffffffffffffffffffffffff958616815293851660208501529190931660408301526060820192909252608081019190915260a00190565b73ffffffffffffffffffffffffffffffffffffffff9384168152919092166020820152604081019190915260600190565b73ffffffffffffffffffffffffffffffffffffffff9788168152958716602087015260408601949094526060850192909252909316608083015260a082019290925260c081019190915260e00190565b73ffffffffffffffffffffffffffffffffffffffff929092168252602082015260400190565b6020808252825182820181905260009190848201906040850190845b8181101561359f57835183529284019291840191600101613583565b50909695505050505050565b73ffffffffffffffffffffffffffffffffffffffff91909116815260200190565b6020808252602e908201527f43616c6c6572206e6f7420617574686f72697a656420746f2073657420696e6360408201527f656e74697665207472616e636865000000000000000000000000000000000000606082015260800190565b6020808252603a908201527f43757272656e746c79206e6f20696e7465726d656469617269657320616c6c6f60408201527f77656420666f7220746869732066756e6374696f6e2063616c6c000000000000606082015260800190565b6020808252603e908201527f43616c6c696e6720636f6e7472616374206973206e6f7420617574686f72697a60408201527f656420746f20747261646520776974682070726f746f636c2066756e64730000606082015260800190565b60208082526018908201527f556e69737761705632526f757465723a20455850495245440000000000000000604082015260600190565b6020808252602c908201527f556e697377617056324c6962726172793a20494e53554646494349454e545f4f60408201527f55545055545f414d4f554e540000000000000000000000000000000000000000606082015260800190565b60208082526025908201527f556e697377617056324c6962726172793a204944454e544943414c5f4144445260408201527f4553534553000000000000000000000000000000000000000000000000000000606082015260800190565b60208082526028908201527f4d617267696e526f757465723a20496e73756666696369656e74206c656e646960408201527f6e672066756e6473000000000000000000000000000000000000000000000000606082015260800190565b6020808252601e908201527f556e697377617056324c6962726172793a20494e56414c49445f504154480000604082015260600190565b60208082526028908201527f556e697377617056324c6962726172793a20494e53554646494349454e545f4c60408201527f4951554944495459000000000000000000000000000000000000000000000000606082015260800190565b60208082526029908201527f43616e6e6f74207472616e73666572206465706f73697420746f206d6172676960408201527f6e206163636f756e740000000000000000000000000000000000000000000000606082015260800190565b6020808252601c908201527f436f756c64206e6f742077697468647261772066726f6d2066756e6400000000604082015260600190565b60208082526027908201527f556e69737761705632526f757465723a204558434553534956455f494e50555460408201527f5f414d4f554e5400000000000000000000000000000000000000000000000000606082015260800190565b6020808252601e908201527f556e697377617056324c6962726172793a205a45524f5f414444524553530000604082015260600190565b6020808252602b908201527f556e697377617056324c6962726172793a20494e53554646494349454e545f4960408201527f4e5055545f414d4f554e54000000000000000000000000000000000000000000606082015260800190565b60208082526028908201527f4d617267696e526f757465723a20494e53554646494349454e545f4f5554505560408201527f545f414d4f554e54000000000000000000000000000000000000000000000000606082015260800190565b61ffff91909116815260200190565b61ffff92909216825273ffffffffffffffffffffffffffffffffffffffff16602082015260400190565b90815260200190565b60008582526020858184015273ffffffffffffffffffffffffffffffffffffffff85166040840152608060608401528351806080850152825b81811015613b3e5785810183015185820160a001528201613b22565b81811115613b4f578360a083870101525b50601f017fffffffffffffffffffffffffffffffffffffffffffffffffffffffffffffffe0169290920160a0019695505050505050565b60ff91909116815260200190565b60ff93909316835273ffffffffffffffffffffffffffffffffffffffff919091166020830152604082015260600190565b60ff9390931683526020830191909152604082015260600190565b60008219821115613bf357613bf3613cf3565b500190565b600082613c2c577f4e487b710000000000000000000000000000000000000000000000000000000081526012600452602481fd5b500490565b6000817fffffffffffffffffffffffffffffffffffffffffffffffffffffffffffffffff0483118215151615613c6957613c69613cf3565b500290565b600082821015613c8057613c80613cf3565b500390565b600081613c9457613c94613cf3565b507fffffffffffffffffffffffffffffffffffffffffffffffffffffffffffffffff0190565b60007fffffffffffffffffffffffffffffffffffffffffffffffffffffffffffffffff821415613cec57613cec613cf3565b5060010190565b7f4e487b7100000000000000000000000000000000000000000000000000000000600052601160045260246000fd5b73ffffffffffffffffffffffffffffffffffffffff81168114613d4457600080fd5b5056fea2646970667358221220c67fdffc7022745b2d3ff33a68e298725e935b47a0f0188094685dd64d9292e464736f6c63430008010033",
  "linkReferences": {},
  "deployedLinkReferences": {}
}