{
  "_format": "hh-sol-artifact-1",
  "contractName": "MarginRouter",
  "sourceName": "contracts/MarginRouter.sol",
  "abi": [
    {
      "inputs": [
        {
          "internalType": "address",
          "name": "uniswapFactory",
          "type": "address"
        },
        {
          "internalType": "address",
          "name": "sushiswapFactory",
          "type": "address"
        },
        {
          "internalType": "address",
          "name": "_WETH",
          "type": "address"
        },
        {
          "internalType": "address",
          "name": "_roles",
          "type": "address"
        }
      ],
      "stateMutability": "nonpayable",
      "type": "constructor"
    },
    {
      "anonymous": false,
      "inputs": [
        {
          "indexed": false,
          "internalType": "address",
          "name": "trader",
          "type": "address"
        },
        {
          "indexed": false,
          "internalType": "address",
          "name": "depositToken",
          "type": "address"
        },
        {
          "indexed": false,
          "internalType": "uint256",
          "name": "depositAmount",
          "type": "uint256"
        }
      ],
      "name": "CrossDeposit",
      "type": "event"
    },
    {
      "anonymous": false,
      "inputs": [
        {
          "indexed": false,
          "internalType": "address",
          "name": "trader",
          "type": "address"
        },
        {
          "indexed": false,
          "internalType": "address",
          "name": "inToken",
          "type": "address"
        },
        {
          "indexed": false,
          "internalType": "uint256",
          "name": "inTokenAmount",
          "type": "uint256"
        },
        {
          "indexed": false,
          "internalType": "uint256",
          "name": "inTokenBorrow",
          "type": "uint256"
        },
        {
          "indexed": false,
          "internalType": "address",
          "name": "outToken",
          "type": "address"
        },
        {
          "indexed": false,
          "internalType": "uint256",
          "name": "outTokenAmount",
          "type": "uint256"
        },
        {
          "indexed": false,
          "internalType": "uint256",
          "name": "outTokenExtinguish",
          "type": "uint256"
        }
      ],
      "name": "CrossTrade",
      "type": "event"
    },
    {
      "anonymous": false,
      "inputs": [
        {
          "indexed": false,
          "internalType": "address",
          "name": "trader",
          "type": "address"
        },
        {
          "indexed": false,
          "internalType": "address",
          "name": "withdrawToken",
          "type": "address"
        },
        {
          "indexed": false,
          "internalType": "uint256",
          "name": "withdrawAmount",
          "type": "uint256"
        }
      ],
      "name": "CrossWithdraw",
      "type": "event"
    },
    {
      "inputs": [],
      "name": "ADMIN",
      "outputs": [
        {
          "internalType": "uint16",
          "name": "",
          "type": "uint16"
        }
      ],
      "stateMutability": "view",
      "type": "function"
    },
    {
      "inputs": [],
      "name": "AUTHORIZED_FUND_TRADER",
      "outputs": [
        {
          "internalType": "uint16",
          "name": "",
          "type": "uint16"
        }
      ],
      "stateMutability": "view",
      "type": "function"
    },
    {
      "inputs": [],
      "name": "BORROWER",
      "outputs": [
        {
          "internalType": "uint16",
          "name": "",
          "type": "uint16"
        }
      ],
      "stateMutability": "view",
      "type": "function"
    },
    {
      "inputs": [],
      "name": "FEE_CONTROLLER",
      "outputs": [
        {
          "internalType": "uint16",
          "name": "",
          "type": "uint16"
        }
      ],
      "stateMutability": "view",
      "type": "function"
    },
    {
      "inputs": [],
      "name": "FEE_SOURCE",
      "outputs": [
        {
          "internalType": "uint16",
          "name": "",
          "type": "uint16"
        }
      ],
      "stateMutability": "view",
      "type": "function"
    },
    {
      "inputs": [],
      "name": "FUND",
      "outputs": [
        {
          "internalType": "uint16",
          "name": "",
          "type": "uint16"
        }
      ],
      "stateMutability": "view",
      "type": "function"
    },
    {
      "inputs": [],
      "name": "INCENTIVE_DISTRIBUTION",
      "outputs": [
        {
          "internalType": "uint16",
          "name": "",
          "type": "uint16"
        }
      ],
      "stateMutability": "view",
      "type": "function"
    },
    {
      "inputs": [],
      "name": "INCENTIVE_REPORTER",
      "outputs": [
        {
          "internalType": "uint16",
          "name": "",
          "type": "uint16"
        }
      ],
      "stateMutability": "view",
      "type": "function"
    },
    {
      "inputs": [],
      "name": "LENDING",
      "outputs": [
        {
          "internalType": "uint16",
          "name": "",
          "type": "uint16"
        }
      ],
      "stateMutability": "view",
      "type": "function"
    },
    {
      "inputs": [],
      "name": "LIQUIDATOR",
      "outputs": [
        {
          "internalType": "uint16",
          "name": "",
          "type": "uint16"
        }
      ],
      "stateMutability": "view",
      "type": "function"
    },
    {
      "inputs": [],
      "name": "MARGIN_CALLER",
      "outputs": [
        {
          "internalType": "uint16",
          "name": "",
          "type": "uint16"
        }
      ],
      "stateMutability": "view",
      "type": "function"
    },
    {
      "inputs": [],
      "name": "MARGIN_TRADER",
      "outputs": [
        {
          "internalType": "uint16",
          "name": "",
          "type": "uint16"
        }
      ],
      "stateMutability": "view",
      "type": "function"
    },
    {
      "inputs": [],
      "name": "MARGIN_TRADING",
      "outputs": [
        {
          "internalType": "uint16",
          "name": "",
          "type": "uint16"
        }
      ],
      "stateMutability": "view",
      "type": "function"
    },
    {
      "inputs": [],
      "name": "PRICE_CONTROLLER",
      "outputs": [
        {
          "internalType": "uint16",
          "name": "",
          "type": "uint16"
        }
      ],
      "stateMutability": "view",
      "type": "function"
    },
    {
      "inputs": [],
      "name": "ROUTER",
      "outputs": [
        {
          "internalType": "uint16",
          "name": "",
          "type": "uint16"
        }
      ],
      "stateMutability": "view",
      "type": "function"
    },
    {
      "inputs": [],
      "name": "TOKEN_ACTIVATOR",
      "outputs": [
        {
          "internalType": "uint16",
          "name": "",
          "type": "uint16"
        }
      ],
      "stateMutability": "view",
      "type": "function"
    },
    {
      "inputs": [],
      "name": "WITHDRAWER",
      "outputs": [
        {
          "internalType": "uint16",
          "name": "",
          "type": "uint16"
        }
      ],
      "stateMutability": "view",
      "type": "function"
    },
    {
      "inputs": [
        {
          "internalType": "enum AMM",
          "name": "amm",
          "type": "uint8"
        },
        {
          "internalType": "uint256",
          "name": "amountIn",
          "type": "uint256"
        },
        {
          "internalType": "uint256",
          "name": "amountOutMin",
          "type": "uint256"
        },
        {
          "internalType": "address[]",
          "name": "path",
          "type": "address[]"
        }
      ],
      "name": "authorizedSwapExactT4T",
      "outputs": [
        {
          "internalType": "uint256[]",
          "name": "",
          "type": "uint256[]"
        }
      ],
      "stateMutability": "nonpayable",
      "type": "function"
    },
    {
      "inputs": [
        {
          "internalType": "enum AMM",
          "name": "amm",
          "type": "uint8"
        },
        {
          "internalType": "uint256",
          "name": "amountOut",
          "type": "uint256"
        },
        {
          "internalType": "uint256",
          "name": "amountInMax",
          "type": "uint256"
        },
        {
          "internalType": "address[]",
          "name": "path",
          "type": "address[]"
        }
      ],
      "name": "authorizedSwapT4ExactT",
      "outputs": [
        {
          "internalType": "uint256[]",
          "name": "",
          "type": "uint256[]"
        }
      ],
      "stateMutability": "nonpayable",
      "type": "function"
    },
    {
      "inputs": [
        {
          "internalType": "address",
          "name": "",
          "type": "address"
        },
        {
          "internalType": "address",
          "name": "",
          "type": "address"
        }
      ],
      "name": "claimIds",
      "outputs": [
        {
          "internalType": "uint256",
          "name": "",
          "type": "uint256"
        }
      ],
      "stateMutability": "view",
      "type": "function"
    },
    {
      "inputs": [
        {
          "internalType": "address",
          "name": "borrowToken",
          "type": "address"
        },
        {
          "internalType": "uint256",
          "name": "borrowAmount",
          "type": "uint256"
        }
      ],
      "name": "crossBorrow",
      "outputs": [],
      "stateMutability": "nonpayable",
      "type": "function"
    },
    {
      "inputs": [
        {
          "internalType": "address",
          "name": "depositToken",
          "type": "address"
        },
        {
          "internalType": "uint256",
          "name": "depositAmount",
          "type": "uint256"
        }
      ],
      "name": "crossDeposit",
      "outputs": [],
      "stateMutability": "nonpayable",
      "type": "function"
    },
    {
      "inputs": [],
      "name": "crossDepositETH",
      "outputs": [],
      "stateMutability": "payable",
      "type": "function"
    },
    {
      "inputs": [
        {
          "internalType": "enum AMM",
          "name": "amm",
          "type": "uint8"
        },
        {
          "internalType": "uint256",
          "name": "amountIn",
          "type": "uint256"
        },
        {
          "internalType": "uint256",
          "name": "amountOutMin",
          "type": "uint256"
        },
        {
          "internalType": "address[]",
          "name": "path",
          "type": "address[]"
        },
        {
          "internalType": "uint256",
          "name": "deadline",
          "type": "uint256"
        }
      ],
      "name": "crossSwapExactTokensForTokens",
      "outputs": [
        {
          "internalType": "uint256[]",
          "name": "amounts",
          "type": "uint256[]"
        }
      ],
      "stateMutability": "nonpayable",
      "type": "function"
    },
    {
      "inputs": [
        {
          "internalType": "enum AMM",
          "name": "amm",
          "type": "uint8"
        },
        {
          "internalType": "uint256",
          "name": "amountOut",
          "type": "uint256"
        },
        {
          "internalType": "uint256",
          "name": "amountInMax",
          "type": "uint256"
        },
        {
          "internalType": "address[]",
          "name": "path",
          "type": "address[]"
        },
        {
          "internalType": "uint256",
          "name": "deadline",
          "type": "uint256"
        }
      ],
      "name": "crossSwapTokensForExactTokens",
      "outputs": [
        {
          "internalType": "uint256[]",
          "name": "amounts",
          "type": "uint256[]"
        }
      ],
      "stateMutability": "nonpayable",
      "type": "function"
    },
    {
      "inputs": [
        {
          "internalType": "address",
          "name": "withdrawToken",
          "type": "address"
        },
        {
          "internalType": "uint256",
          "name": "withdrawAmount",
          "type": "uint256"
        }
      ],
      "name": "crossWithdraw",
      "outputs": [],
      "stateMutability": "nonpayable",
      "type": "function"
    },
    {
      "inputs": [
        {
          "internalType": "uint256",
          "name": "withdrawAmount",
          "type": "uint256"
        }
      ],
      "name": "crossWithdrawETH",
      "outputs": [],
      "stateMutability": "nonpayable",
      "type": "function"
    },
    {
      "inputs": [
        {
          "internalType": "enum AMM",
          "name": "amm",
          "type": "uint8"
        },
        {
          "internalType": "uint256",
          "name": "outAmount",
          "type": "uint256"
        },
        {
          "internalType": "address[]",
          "name": "path",
          "type": "address[]"
        }
      ],
      "name": "getAmountsIn",
      "outputs": [
        {
          "internalType": "uint256[]",
          "name": "",
          "type": "uint256[]"
        }
      ],
      "stateMutability": "view",
      "type": "function"
    },
    {
      "inputs": [
        {
          "internalType": "enum AMM",
          "name": "amm",
          "type": "uint8"
        },
        {
          "internalType": "uint256",
          "name": "inAmount",
          "type": "uint256"
        },
        {
          "internalType": "address[]",
          "name": "path",
          "type": "address[]"
        }
      ],
      "name": "getAmountsOut",
      "outputs": [
        {
          "internalType": "uint256[]",
          "name": "",
          "type": "uint256[]"
        }
      ],
      "stateMutability": "view",
      "type": "function"
    },
    {
      "inputs": [
        {
          "internalType": "address",
          "name": "",
          "type": "address"
        }
      ],
      "name": "incentiveTranches",
      "outputs": [
        {
          "internalType": "uint8",
          "name": "",
          "type": "uint8"
        }
      ],
      "stateMutability": "view",
      "type": "function"
    },
    {
      "inputs": [],
      "name": "roles",
      "outputs": [
        {
          "internalType": "contract Roles",
          "name": "",
          "type": "address"
        }
      ],
      "stateMutability": "view",
      "type": "function"
    },
    {
      "inputs": [
        {
          "internalType": "address",
          "name": "token",
          "type": "address"
        },
        {
          "internalType": "uint8",
          "name": "tranche",
          "type": "uint8"
        }
      ],
      "name": "setIncentiveTranche",
      "outputs": [],
      "stateMutability": "nonpayable",
      "type": "function"
    }
  ],
  "bytecode": "0x60806040523480156200001157600080fd5b5060405162003e6d38038062003e6d8339810160408190526200003491620000e8565b600080546001600160a01b03199081166001600160a01b0393841617825560036020527f3617319a054d772f909f7c479a2cebe5066e836a939412e32403c99029b92eff8054821696841696909617909555600190527fa15bc60c955c405d20d9149c709e2460f1c2d9a497496a7f46004d1772c3054c805485169382169390931790925560048054909316911617905562000144565b80516001600160a01b0381168114620000e357600080fd5b919050565b60008060008060808587031215620000fe578384fd5b6200010985620000cb565b93506200011960208601620000cb565b92506200012960408601620000cb565b91506200013960608601620000cb565b905092959194509250565b613d1980620001546000396000f3fe6080604052600436106101e35760003560e01c80636694198411610102578063a94c7c3411610095578063d5d7ed7f11610064578063d5d7ed7f146104e1578063e3e0626b146104f6578063eaa095f814610516578063eedb97c714610536576101e3565b8063a94c7c341461048d578063a9cc0536146104a2578063c76139d0146104b7578063cacf8d45146104cc576101e3565b806390b931ed116100d157806390b931ed1461043057806394427b2014610450578063a0098d6914610458578063a5f9a3621461046d576101e3565b806366941984146103c457806381ca6600146103d957806383a49c7c146103ee5780638824cbba14610403576101e3565b80632a0acc6a1161017a57806346b887961161014957806346b887961461035857806348fb27b81461036d5780635adbeb15146103825780635c275a39146103af576101e3565b80632a0acc6a146102f75780632fe94def1461030c57806332fe7b2614610321578063392f5f6414610336576101e3565b80631dce3baa116101b65780631dce3baa146102775780631f2a6743146102975780632233c436146102b75780632864f401146102d7576101e3565b8063065d570f146101e85780630aa29f1c146102135780631306d902146102405780631bc5d81d14610262575b600080fd5b3480156101f457600080fd5b506101fd610556565b60405161020a9190613a43565b60405180910390f35b34801561021f57600080fd5b5061023361022e3660046131eb565b61055b565b60405161020a9190613503565b34801561024c57600080fd5b5061026061025b366004613116565b610659565b005b34801561026e57600080fd5b506101fd6108bd565b34801561028357600080fd5b5061026061029236600461330d565b6108c2565b3480156102a357600080fd5b506102336102b23660046131eb565b610a06565b3480156102c357600080fd5b506102336102d2366004613251565b610aef565b3480156102e357600080fd5b506102606102f2366004613141565b610e06565b34801561030357600080fd5b506101fd610e9d565b34801561031857600080fd5b506101fd610ea2565b34801561032d57600080fd5b506101fd610ea7565b34801561034257600080fd5b5061034b610eac565b60405161020a9190613547565b34801561036457600080fd5b506101fd610ec8565b34801561037957600080fd5b506101fd610ecd565b34801561038e57600080fd5b506103a261039d3660046130de565b610ed2565b60405161020a9190613a7c565b3480156103bb57600080fd5b506101fd610eef565b3480156103d057600080fd5b506101fd610ef4565b3480156103e557600080fd5b506101fd610ef9565b3480156103fa57600080fd5b506101fd610efe565b34801561040f57600080fd5b5061042361041e36600461309f565b610f03565b60405161020a9190613b22565b34801561043c57600080fd5b5061023361044b366004613193565b610f18565b61026061100a565b34801561046457600080fd5b506101fd611278565b34801561047957600080fd5b50610233610488366004613251565b61127d565b34801561049957600080fd5b506101fd61158b565b3480156104ae57600080fd5b506101fd611590565b3480156104c357600080fd5b506101fd611595565b3480156104d857600080fd5b506101fd61159a565b3480156104ed57600080fd5b506101fd61159f565b34801561050257600080fd5b50610260610511366004613116565b6115a4565b34801561052257600080fd5b50610233610531366004613193565b61175e565b34801561054257600080fd5b50610260610551366004613116565b611846565b600381565b606061056633611978565b6105a5576040517f08c379a000000000000000000000000000000000000000000000000000000000815260040161059c90613622565b60405180910390fd5b61064d600360008860038111156105e5577f4e487b7100000000000000000000000000000000000000000000000000000000600052602160045260246000fd5b600381111561061d577f4e487b7100000000000000000000000000000000000000000000000000000000600052602160045260246000fd5b815260208101919091526040016000205473ffffffffffffffffffffffffffffffffffffffff1686868686611a2a565b90505b95945050505050565b333214610692576040517f08c379a000000000000000000000000000000000000000000000000000000000815260040161059c906135c5565b61069a611d3b565b73ffffffffffffffffffffffffffffffffffffffff1663b3db428b3384846040518463ffffffff1660e01b81526004016106d69392919061345c565b602060405180830381600087803b1580156106f057600080fd5b505af1158015610704573d6000803e3d6000fd5b505050506040513d601f19601f820116820180604052508101906107289190613173565b61075e576040517f08c379a000000000000000000000000000000000000000000000000000000000815260040161059c90613861565b6000610768611de8565b73ffffffffffffffffffffffffffffffffffffffff166352a664d93385856040518463ffffffff1660e01b81526004016107a49392919061345c565b602060405180830381600087803b1580156107be57600080fd5b505af11580156107d2573d6000803e3d6000fd5b505050506040513d601f19601f820116820180604052508101906107f69190613325565b9050801561087d57610806611e40565b73ffffffffffffffffffffffffffffffffffffffff16632a6a897b84836040518363ffffffff1660e01b81526004016108409291906134dd565b600060405180830381600087803b15801561085a57600080fd5b505af115801561086e573d6000803e3d6000fd5b5050505061087d338483611e98565b7f2f7971a38b280a622029ac616d8d562df278b4b5839a7b124c33a1715ae092993384846040516108b09392919061345c565b60405180910390a1505050565b600881565b3332146108fb576040517f08c379a000000000000000000000000000000000000000000000000000000000815260040161059c906135c5565b610903611de8565b600480546040517fd0eb665300000000000000000000000000000000000000000000000000000000815273ffffffffffffffffffffffffffffffffffffffff9384169363d0eb66539361095d93339392169187910161345c565b600060405180830381600087803b15801561097757600080fd5b505af115801561098b573d6000803e3d6000fd5b50505050610997611d3b565b73ffffffffffffffffffffffffffffffffffffffff16634782f77933836040518363ffffffff1660e01b81526004016109d19291906134dd565b600060405180830381600087803b1580156109eb57600080fd5b505af11580156109ff573d6000803e3d6000fd5b5050505050565b6060610a1133611978565b610a47576040517f08c379a000000000000000000000000000000000000000000000000000000000815260040161059c90613622565b61064d60036000886003811115610a87577f4e487b7100000000000000000000000000000000000000000000000000000000600052602160045260246000fd5b6003811115610abf577f4e487b7100000000000000000000000000000000000000000000000000000000600052602160045260246000fd5b815260208101919091526040016000205473ffffffffffffffffffffffffffffffffffffffff1686868686611f56565b6060333214610b2a576040517f08c379a000000000000000000000000000000000000000000000000000000000815260040161059c906135c5565b8142811015610b65576040517f08c379a000000000000000000000000000000000000000000000000000000000815260040161059c9061367f565b6000610b6f612013565b73ffffffffffffffffffffffffffffffffffffffff166367cbf42d8787610b97600182613c0a565b818110610bcd577f4e487b7100000000000000000000000000000000000000000000000000000000600052603260045260246000fd5b9050602002016020810190610be2919061309f565b8a6040518363ffffffff1660e01b8152600401610c009291906134dd565b602060405180830381600087803b158015610c1a57600080fd5b505af1158015610c2e573d6000803e3d6000fd5b505050506040513d601f19601f82011682018060405250810190610c529190613325565b9050610d05600360008b6003811115610c94577f4e487b7100000000000000000000000000000000000000000000000000000000600052602160045260246000fd5b6003811115610ccc577f4e487b7100000000000000000000000000000000000000000000000000000000600052602160045260246000fd5b815260208101919091526040016000205473ffffffffffffffffffffffffffffffffffffffff16610cfd838b613b7c565b898989611f56565b9250610dfa3387876000818110610d45577f4e487b7100000000000000000000000000000000000000000000000000000000600052603260045260246000fd5b9050602002016020810190610d5a919061309f565b8888610d67600182613c0a565b818110610d9d577f4e487b7100000000000000000000000000000000000000000000000000000000600052603260045260246000fd5b9050602002016020810190610db2919061309f565b86600081518110610dec577f4e487b7100000000000000000000000000000000000000000000000000000000600052603260045260246000fd5b60200260200101518c61206b565b50509695505050505050565b610e0f33612262565b610e45576040517f08c379a000000000000000000000000000000000000000000000000000000000815260040161059c90613568565b73ffffffffffffffffffffffffffffffffffffffff91909116600090815260016020526040902080547fffffffffffffffffffffffffffffffffffffffffffffffffffffffffffffff001660ff909216919091179055565b606b81565b606981565b606781565b60005473ffffffffffffffffffffffffffffffffffffffff1681565b600681565b606681565b600260209081526000928352604080842090915290825290205481565b606581565b600181565b606a81565b600981565b60016020526000908152604090205460ff1681565b6060600060036000876003811115610f59577f4e487b7100000000000000000000000000000000000000000000000000000000600052602160045260246000fd5b6003811115610f91577f4e487b7100000000000000000000000000000000000000000000000000000000600052602160045260246000fd5b815260200190815260200160002060009054906101000a900473ffffffffffffffffffffffffffffffffffffffff16905061100081868686808060200260200160405190810160405280939291908181526020018383602002808284376000920191909152506122bc92505050565b9695505050505050565b333214611043576040517f08c379a000000000000000000000000000000000000000000000000000000000815260040161059c906135c5565b61104b611d3b565b73ffffffffffffffffffffffffffffffffffffffff1663a6a5f9fe346040518263ffffffff1660e01b81526004016000604051808303818588803b15801561109257600080fd5b505af11580156110a6573d6000803e3d6000fd5b505050505060006110b5611de8565b600480546040517f52a664d900000000000000000000000000000000000000000000000000000000815273ffffffffffffffffffffffffffffffffffffffff938416936352a664d99361110f93339392169134910161345c565b602060405180830381600087803b15801561112957600080fd5b505af115801561113d573d6000803e3d6000fd5b505050506040513d601f19601f820116820180604052508101906111619190613325565b9050801561122157611171611e40565b600480546040517f2a6a897b00000000000000000000000000000000000000000000000000000000815273ffffffffffffffffffffffffffffffffffffffff93841693632a6a897b936111ca93909116918691016134dd565b600060405180830381600087803b1580156111e457600080fd5b505af11580156111f8573d6000803e3d6000fd5b5050600454611221925033915073ffffffffffffffffffffffffffffffffffffffff1683611e98565b6004546040517f2f7971a38b280a622029ac616d8d562df278b4b5839a7b124c33a1715ae092999161126d91339173ffffffffffffffffffffffffffffffffffffffff1690349061345c565b60405180910390a150565b600281565b60603332146112b8576040517f08c379a000000000000000000000000000000000000000000000000000000000815260040161059c906135c5565b81428110156112f3576040517f08c379a000000000000000000000000000000000000000000000000000000000815260040161059c9061367f565b60006112fd612013565b73ffffffffffffffffffffffffffffffffffffffff16633f0e9edf87876000818110611352577f4e487b7100000000000000000000000000000000000000000000000000000000600052603260045260246000fd5b9050602002016020810190611367919061309f565b8a6040518363ffffffff1660e01b81526004016113859291906134dd565b602060405180830381600087803b15801561139f57600080fd5b505af11580156113b3573d6000803e3d6000fd5b505050506040513d601f19601f820116820180604052508101906113d79190613325565b905061148a600360008b6003811115611419577f4e487b7100000000000000000000000000000000000000000000000000000000600052602160045260246000fd5b6003811115611451577f4e487b7100000000000000000000000000000000000000000000000000000000600052602160045260246000fd5b815260208101919091526040016000205473ffffffffffffffffffffffffffffffffffffffff16611482838b613c0a565b898989611a2a565b9250610dfa33878760008181106114ca577f4e487b7100000000000000000000000000000000000000000000000000000000600052603260045260246000fd5b90506020020160208101906114df919061309f565b88886114ec600182613c0a565b818110611522577f4e487b7100000000000000000000000000000000000000000000000000000000600052603260045260246000fd5b9050602002016020810190611537919061309f565b8b87600189516115479190613c0a565b8151811061157e577f4e487b7100000000000000000000000000000000000000000000000000000000600052603260045260246000fd5b602002602001015161206b565b600581565b606881565b606c81565b600481565b600781565b3332146115dd576040517f08c379a000000000000000000000000000000000000000000000000000000000815260040161059c906135c5565b6115e5611de8565b73ffffffffffffffffffffffffffffffffffffffff1663d0eb66533384846040518463ffffffff1660e01b81526004016116219392919061345c565b600060405180830381600087803b15801561163b57600080fd5b505af115801561164f573d6000803e3d6000fd5b5050505061165b611d3b565b73ffffffffffffffffffffffffffffffffffffffff1663d9caed128333846040518463ffffffff1660e01b81526004016116979392919061345c565b602060405180830381600087803b1580156116b157600080fd5b505af11580156116c5573d6000803e3d6000fd5b505050506040513d601f19601f820116820180604052508101906116e99190613173565b61171f576040517f08c379a000000000000000000000000000000000000000000000000000000000815260040161059c906138be565b7f69725482a69b3feb662528aa4b8028c1f9f6288b9ef746d5c84a847e05ad0d6b3383836040516117529392919061345c565b60405180910390a15050565b606060006003600087600381111561179f577f4e487b7100000000000000000000000000000000000000000000000000000000600052602160045260246000fd5b60038111156117d7577f4e487b7100000000000000000000000000000000000000000000000000000000600052602160045260246000fd5b815260200190815260200160002060009054906101000a900473ffffffffffffffffffffffffffffffffffffffff169050611000818686868080602002602001604051908101604052809392919081815260200183836020028082843760009201919091525061252692505050565b33321461187f576040517f08c379a000000000000000000000000000000000000000000000000000000000815260040161059c906135c5565b611887611e40565b73ffffffffffffffffffffffffffffffffffffffff1663ee0862bf83836040518363ffffffff1660e01b81526004016118c19291906134dd565b600060405180830381600087803b1580156118db57600080fd5b505af11580156118ef573d6000803e3d6000fd5b505050506118fb611de8565b73ffffffffffffffffffffffffffffffffffffffff1663498d55eb3384846040518463ffffffff1660e01b81526004016119379392919061345c565b600060405180830381600087803b15801561195157600080fd5b505af1158015611965573d6000803e3d6000fd5b50505050611974338383612770565b5050565b600080546040517fd87fefd200000000000000000000000000000000000000000000000000000000815273ffffffffffffffffffffffffffffffffffffffff9091169063d87fefd2906119d2906007908690600401613a52565b60206040518083038186803b1580156119ea57600080fd5b505afa1580156119fe573d6000803e3d6000fd5b505050506040513d601f19601f82011682018060405250810190611a229190613173565b90505b919050565b6060611a6a868685858080602002602001604051908101604052809392919081815260200183836020028082843760009201919091525061252692505050565b9050838160018351611a7c9190613c0a565b81518110611ab3577f4e487b7100000000000000000000000000000000000000000000000000000000600052603260045260246000fd5b60200260200101511015611af3576040517f08c379a000000000000000000000000000000000000000000000000000000000815260040161059c906139e6565b611afb611d3b565b73ffffffffffffffffffffffffffffffffffffffff1663d9caed1284846000818110611b50577f4e487b7100000000000000000000000000000000000000000000000000000000600052603260045260246000fd5b9050602002016020810190611b65919061309f565b611c0c8987876000818110611ba3577f4e487b7100000000000000000000000000000000000000000000000000000000600052603260045260246000fd5b9050602002016020810190611bb8919061309f565b88886001818110611bf2577f4e487b7100000000000000000000000000000000000000000000000000000000600052603260045260246000fd5b9050602002016020810190611c07919061309f565b61293a565b84600081518110611c46577f4e487b7100000000000000000000000000000000000000000000000000000000600052603260045260246000fd5b60200260200101516040518463ffffffff1660e01b8152600401611c6c9392919061345c565b602060405180830381600087803b158015611c8657600080fd5b505af1158015611c9a573d6000803e3d6000fd5b505050506040513d601f19601f82011682018060405250810190611cbe9190613173565b611cf4576040517f08c379a000000000000000000000000000000000000000000000000000000000815260040161059c90613770565b6106508682858580806020026020016040519081016040528093929190818152602001838360200280828437600092019190915250611d369250611d3b915050565b6129ac565b600080546040517f3c9c8f9c00000000000000000000000000000000000000000000000000000000815273ffffffffffffffffffffffffffffffffffffffff90911690633c9c8f9c90611d9390606590600401613a43565b60206040518083038186803b158015611dab57600080fd5b505afa158015611dbf573d6000803e3d6000fd5b505050506040513d601f19601f82011682018060405250810190611de391906130c2565b905090565b600080546040517f3c9c8f9c00000000000000000000000000000000000000000000000000000000815273ffffffffffffffffffffffffffffffffffffffff90911690633c9c8f9c90611d9390606890600401613a43565b600080546040517f3c9c8f9c00000000000000000000000000000000000000000000000000000000815273ffffffffffffffffffffffffffffffffffffffff90911690633c9c8f9c90611d9390606690600401613a43565b73ffffffffffffffffffffffffffffffffffffffff808416600090815260026020908152604080832093861683529281528282205460019091529190205460ff16611ee1612c31565b73ffffffffffffffffffffffffffffffffffffffff1663a80167118284866040518463ffffffff1660e01b8152600401611f1d93929190613b61565b600060405180830381600087803b158015611f3757600080fd5b505af1158015611f4b573d6000803e3d6000fd5b505050505050505050565b6060611f9686868585808060200260200160405190810160405280939291908181526020018383602002808284376000920191909152506122bc92505050565b90508381600081518110611fd3577f4e487b7100000000000000000000000000000000000000000000000000000000600052603260045260246000fd5b60200260200101511115611af3576040517f08c379a000000000000000000000000000000000000000000000000000000000815260040161059c906138f5565b600080546040517f3c9c8f9c00000000000000000000000000000000000000000000000000000000815273ffffffffffffffffffffffffffffffffffffffff90911690633c9c8f9c90611d9390606990600401613a43565b600080612076611de8565b73ffffffffffffffffffffffffffffffffffffffff16633500aa0b88888888886040518663ffffffff1660e01b81526004016120b695949392919061341b565b6040805180830381600087803b1580156120cf57600080fd5b505af11580156120e3573d6000803e3d6000fd5b505050506040513d601f19601f82011682018060405250810190612107919061333d565b909250905081156121915761211a611e40565b73ffffffffffffffffffffffffffffffffffffffff16632a6a897b86846040518363ffffffff1660e01b81526004016121549291906134dd565b600060405180830381600087803b15801561216e57600080fd5b505af1158015612182573d6000803e3d6000fd5b50505050612191878684611e98565b80156122165761219f611e40565b73ffffffffffffffffffffffffffffffffffffffff1663ee0862bf86836040518363ffffffff1660e01b81526004016121d99291906134dd565b600060405180830381600087803b1580156121f357600080fd5b505af1158015612207573d6000803e3d6000fd5b50505050612216878783612770565b7ffda7842105bd0ae9d4c9616a1d48b1e9f17e2d97cb890d021c291e7d1b53929f87878684898888604051612251979695949392919061348d565b60405180910390a150505050505050565b600080546040517fd87fefd200000000000000000000000000000000000000000000000000000000815273ffffffffffffffffffffffffffffffffffffffff9091169063d87fefd2906119d2906009908690600401613a52565b60606002825110156122fa576040517f08c379a000000000000000000000000000000000000000000000000000000000815260040161059c906137cd565b815167ffffffffffffffff81111561233b577f4e487b7100000000000000000000000000000000000000000000000000000000600052604160045260246000fd5b604051908082528060200260200182016040528015612364578160200160208202803683370190505b5090508281600183516123779190613c0a565b815181106123ae577f4e487b7100000000000000000000000000000000000000000000000000000000600052603260045260246000fd5b6020026020010181815250506000600183516123ca9190613c0a565b90505b801561251e5760008061246b87866123e6600187613c0a565b8151811061241d577f4e487b7100000000000000000000000000000000000000000000000000000000600052603260045260246000fd5b602002602001015187868151811061245e577f4e487b7100000000000000000000000000000000000000000000000000000000600052603260045260246000fd5b6020026020010151612c89565b915091506124ba8484815181106124ab577f4e487b7100000000000000000000000000000000000000000000000000000000600052603260045260246000fd5b60200260200101518383612d97565b846124c6600186613c0a565b815181106124fd577f4e487b7100000000000000000000000000000000000000000000000000000000600052603260045260246000fd5b6020026020010181815250505050808061251690613c21565b9150506123cd565b509392505050565b6060600282511015612564576040517f08c379a000000000000000000000000000000000000000000000000000000000815260040161059c906137cd565b815167ffffffffffffffff8111156125a5577f4e487b7100000000000000000000000000000000000000000000000000000000600052604160045260246000fd5b6040519080825280602002602001820160405280156125ce578160200160208202803683370190505b509050828160008151811061260c577f4e487b7100000000000000000000000000000000000000000000000000000000600052603260045260246000fd5b60200260200101818152505060005b600183516126299190613c0a565b81101561251e576000806126bd87868581518110612670577f4e487b7100000000000000000000000000000000000000000000000000000000600052603260045260246000fd5b6020026020010151878660016126869190613b7c565b8151811061245e577f4e487b7100000000000000000000000000000000000000000000000000000000600052603260045260246000fd5b9150915061270c8484815181106126fd577f4e487b7100000000000000000000000000000000000000000000000000000000600052603260045260246000fd5b60200260200101518383612e62565b84612718856001613b7c565b8151811061274f577f4e487b7100000000000000000000000000000000000000000000000000000000600052603260045260246000fd5b6020026020010181815250505050808061276890613c56565b91505061261b565b600061277a612c31565b73ffffffffffffffffffffffffffffffffffffffff80861660009081526002602090815260408083209388168352928152828220546001909152919020549192509060ff168115612852576040517ff542808700000000000000000000000000000000000000000000000000000000815273ffffffffffffffffffffffffffffffffffffffff84169063f54280879061281b90849086908990600401613b61565b600060405180830381600087803b15801561283557600080fd5b505af1158015612849573d6000803e3d6000fd5b50505050612932565b6040517f583d861600000000000000000000000000000000000000000000000000000000815273ffffffffffffffffffffffffffffffffffffffff84169063583d8616906128a89084908a908990600401613b30565b602060405180830381600087803b1580156128c257600080fd5b505af11580156128d6573d6000803e3d6000fd5b505050506040513d601f19601f820116820180604052508101906128fa9190613325565b73ffffffffffffffffffffffffffffffffffffffff8088166000908152600260209081526040808320938a1683529290522081905591505b505050505050565b60008060006129498585612f31565b91509150858282604051602001612961929190613360565b6040516020818303038152906040528051906020012060405160200161298892919061339a565b6040516020818303038152906040528051906020012060601c925050509392505050565b60005b600183516129bd9190613c0a565b8110156109ff57600080848381518110612a00577f4e487b7100000000000000000000000000000000000000000000000000000000600052603260045260246000fd5b602002602001015185846001612a169190613b7c565b81518110612a4d577f4e487b7100000000000000000000000000000000000000000000000000000000600052603260045260246000fd5b6020026020010151915091506000612a658383612f31565b509050600087612a76866001613b7c565b81518110612aad577f4e487b7100000000000000000000000000000000000000000000000000000000600052603260045260246000fd5b602002602001015190506000808373ffffffffffffffffffffffffffffffffffffffff168673ffffffffffffffffffffffffffffffffffffffff1614612af557826000612af9565b6000835b91509150600060028a51612b0d9190613c0a565b8810612b195788612b6e565b612b6e8c878c612b2a8c6002613b7c565b81518110612b61577f4e487b7100000000000000000000000000000000000000000000000000000000600052603260045260246000fd5b602002602001015161293a565b9050612b7b8c888861293a565b73ffffffffffffffffffffffffffffffffffffffff1663022c0d9f84848460006040519080825280601f01601f191660200182016040528015612bc5576020820181803683370190505b506040518563ffffffff1660e01b8152600401612be59493929190613a85565b600060405180830381600087803b158015612bff57600080fd5b505af1158015612c13573d6000803e3d6000fd5b50505050505050505050508080612c2990613c56565b9150506129af565b600080546040517f3c9c8f9c00000000000000000000000000000000000000000000000000000000815273ffffffffffffffffffffffffffffffffffffffff90911690633c9c8f9c90611d9390606c90600401613a43565b6000806000612c988585612f31565b509050600080612ca988888861293a565b73ffffffffffffffffffffffffffffffffffffffff16630902f1ac6040518163ffffffff1660e01b815260040160606040518083038186803b158015612cee57600080fd5b505afa158015612d02573d6000803e3d6000fd5b505050506040513d601f19601f82011682018060405250810190612d2691906132bf565b506dffffffffffffffffffffffffffff1691506dffffffffffffffffffffffffffff1691508273ffffffffffffffffffffffffffffffffffffffff168773ffffffffffffffffffffffffffffffffffffffff1614612d85578082612d88565b81815b90999098509650505050505050565b6000808411612dd2576040517f08c379a000000000000000000000000000000000000000000000000000000000815260040161059c906136b6565b600083118015612de25750600082115b612e18576040517f08c379a000000000000000000000000000000000000000000000000000000000815260040161059c90613804565b6000612e248585613bcd565b612e30906103e8613bcd565b905060006103e5612e418786613c0a565b612e4b9190613c0a565b9050612e578183613b94565b611000906001613b7c565b6000808411612e9d576040517f08c379a000000000000000000000000000000000000000000000000000000000815260040161059c90613989565b600083118015612ead5750600082115b612ee3576040517f08c379a000000000000000000000000000000000000000000000000000000000815260040161059c90613804565b6000612ef1856103e5613bcd565b90506000612eff8483613bcd565b9050600082612f10876103e8613bcd565b612f1a9190613b7c565b9050612f268183613b94565b979650505050505050565b6000808273ffffffffffffffffffffffffffffffffffffffff168473ffffffffffffffffffffffffffffffffffffffff161415612f9a576040517f08c379a000000000000000000000000000000000000000000000000000000000815260040161059c90613713565b8273ffffffffffffffffffffffffffffffffffffffff168473ffffffffffffffffffffffffffffffffffffffff1610612fd4578284612fd7565b83835b909250905073ffffffffffffffffffffffffffffffffffffffff8216613029576040517f08c379a000000000000000000000000000000000000000000000000000000000815260040161059c90613952565b9250929050565b60008083601f840112613041578182fd5b50813567ffffffffffffffff811115613058578182fd5b602083019150836020808302850101111561302957600080fd5b803560048110611a2557600080fd5b80516dffffffffffffffffffffffffffff81168114611a2557600080fd5b6000602082840312156130b0578081fd5b81356130bb81613cbe565b9392505050565b6000602082840312156130d3578081fd5b81516130bb81613cbe565b600080604083850312156130f0578081fd5b82356130fb81613cbe565b9150602083013561310b81613cbe565b809150509250929050565b60008060408385031215613128578182fd5b823561313381613cbe565b946020939093013593505050565b60008060408385031215613153578182fd5b823561315e81613cbe565b9150602083013560ff8116811461310b578182fd5b600060208284031215613184578081fd5b815180151581146130bb578182fd5b600080600080606085870312156131a8578182fd5b6131b185613072565b935060208501359250604085013567ffffffffffffffff8111156131d3578283fd5b6131df87828801613030565b95989497509550505050565b600080600080600060808688031215613202578081fd5b61320b86613072565b94506020860135935060408601359250606086013567ffffffffffffffff811115613234578182fd5b61324088828901613030565b969995985093965092949392505050565b60008060008060008060a08789031215613269578081fd5b61327287613072565b95506020870135945060408701359350606087013567ffffffffffffffff81111561329b578182fd5b6132a789828a01613030565b979a9699509497949695608090950135949350505050565b6000806000606084860312156132d3578283fd5b6132dc84613081565b92506132ea60208501613081565b9150604084015163ffffffff81168114613302578182fd5b809150509250925092565b60006020828403121561331e578081fd5b5035919050565b600060208284031215613336578081fd5b5051919050565b6000806040838503121561334f578182fd5b505080516020909101519092909150565b7fffffffffffffffffffffffffffffffffffffffff000000000000000000000000606093841b811682529190921b16601482015260280190565b7fff00000000000000000000000000000000000000000000000000000000000000815260609290921b7fffffffffffffffffffffffffffffffffffffffff00000000000000000000000016600183015260158201527f96e8ac4277198ff8b6f785478aa9a39f403cb768dd02cbee326c3e7da348845f603582015260550190565b73ffffffffffffffffffffffffffffffffffffffff958616815293851660208501529190931660408301526060820192909252608081019190915260a00190565b73ffffffffffffffffffffffffffffffffffffffff9384168152919092166020820152604081019190915260600190565b73ffffffffffffffffffffffffffffffffffffffff9788168152958716602087015260408601949094526060850192909252909316608083015260a082019290925260c081019190915260e00190565b73ffffffffffffffffffffffffffffffffffffffff929092168252602082015260400190565b6020808252825182820181905260009190848201906040850190845b8181101561353b5783518352928401929184019160010161351f565b50909695505050505050565b73ffffffffffffffffffffffffffffffffffffffff91909116815260200190565b6020808252602e908201527f43616c6c6572206e6f7420617574686f72697a656420746f2073657420696e6360408201527f656e74697665207472616e636865000000000000000000000000000000000000606082015260800190565b6020808252603a908201527f43757272656e746c79206e6f20696e7465726d656469617269657320616c6c6f60408201527f77656420666f7220746869732066756e6374696f6e2063616c6c000000000000606082015260800190565b6020808252603e908201527f43616c6c696e6720636f6e7472616374206973206e6f7420617574686f72697a60408201527f656420746f20747261646520776974682070726f746f636c2066756e64730000606082015260800190565b60208082526018908201527f556e69737761705632526f757465723a20455850495245440000000000000000604082015260600190565b6020808252602c908201527f556e697377617056324c6962726172793a20494e53554646494349454e545f4f60408201527f55545055545f414d4f554e540000000000000000000000000000000000000000606082015260800190565b60208082526025908201527f556e697377617056324c6962726172793a204944454e544943414c5f4144445260408201527f4553534553000000000000000000000000000000000000000000000000000000606082015260800190565b60208082526028908201527f4d617267696e526f757465723a20496e73756666696369656e74206c656e646960408201527f6e672066756e6473000000000000000000000000000000000000000000000000606082015260800190565b6020808252601e908201527f556e697377617056324c6962726172793a20494e56414c49445f504154480000604082015260600190565b60208082526028908201527f556e697377617056324c6962726172793a20494e53554646494349454e545f4c60408201527f4951554944495459000000000000000000000000000000000000000000000000606082015260800190565b60208082526029908201527f43616e6e6f74207472616e73666572206465706f73697420746f206d6172676960408201527f6e206163636f756e740000000000000000000000000000000000000000000000606082015260800190565b6020808252601c908201527f436f756c64206e6f742077697468647261772066726f6d2066756e6400000000604082015260600190565b60208082526027908201527f556e69737761705632526f757465723a204558434553534956455f494e50555460408201527f5f414d4f554e5400000000000000000000000000000000000000000000000000606082015260800190565b6020808252601e908201527f556e697377617056324c6962726172793a205a45524f5f414444524553530000604082015260600190565b6020808252602b908201527f556e697377617056324c6962726172793a20494e53554646494349454e545f4960408201527f4e5055545f414d4f554e54000000000000000000000000000000000000000000606082015260800190565b60208082526028908201527f4d617267696e526f757465723a20494e53554646494349454e545f4f5554505560408201527f545f414d4f554e54000000000000000000000000000000000000000000000000606082015260800190565b61ffff91909116815260200190565b61ffff92909216825273ffffffffffffffffffffffffffffffffffffffff16602082015260400190565b90815260200190565b60008582526020858184015273ffffffffffffffffffffffffffffffffffffffff85166040840152608060608401528351806080850152825b81811015613ada5785810183015185820160a001528201613abe565b81811115613aeb578360a083870101525b50601f017fffffffffffffffffffffffffffffffffffffffffffffffffffffffffffffffe0169290920160a0019695505050505050565b60ff91909116815260200190565b60ff93909316835273ffffffffffffffffffffffffffffffffffffffff919091166020830152604082015260600190565b60ff9390931683526020830191909152604082015260600190565b60008219821115613b8f57613b8f613c8f565b500190565b600082613bc8577f4e487b710000000000000000000000000000000000000000000000000000000081526012600452602481fd5b500490565b6000817fffffffffffffffffffffffffffffffffffffffffffffffffffffffffffffffff0483118215151615613c0557613c05613c8f565b500290565b600082821015613c1c57613c1c613c8f565b500390565b600081613c3057613c30613c8f565b507fffffffffffffffffffffffffffffffffffffffffffffffffffffffffffffffff0190565b60007fffffffffffffffffffffffffffffffffffffffffffffffffffffffffffffffff821415613c8857613c88613c8f565b5060010190565b7f4e487b7100000000000000000000000000000000000000000000000000000000600052601160045260246000fd5b73ffffffffffffffffffffffffffffffffffffffff81168114613ce057600080fd5b5056fea2646970667358221220318370aa4fbb8742a2034774c28ec2e7972eb790c0851635eef053021a1bc58264736f6c63430008010033",
  "linkReferences": {},
  "deployedLinkReferences": {}
}