{
  "_format": "hh-sol-artifact-1",
  "contractName": "MarginRouter",
  "sourceName": "contracts/MarginRouter.sol",
  "abi": [
    {
      "inputs": [
        {
          "internalType": "address",
          "name": "uniswapFactory",
          "type": "address"
        },
        {
          "internalType": "address",
          "name": "sushiswapFactory",
          "type": "address"
        },
        {
          "internalType": "address",
          "name": "_WETH",
          "type": "address"
        },
        {
          "internalType": "address",
          "name": "_roles",
          "type": "address"
        }
      ],
      "stateMutability": "nonpayable",
      "type": "constructor"
    },
    {
      "inputs": [],
      "name": "ADMIN",
      "outputs": [
        {
          "internalType": "uint16",
          "name": "",
          "type": "uint16"
        }
      ],
      "stateMutability": "view",
      "type": "function"
    },
    {
      "inputs": [],
      "name": "AUTHORIZED_FUND_TRADER",
      "outputs": [
        {
          "internalType": "uint16",
          "name": "",
          "type": "uint16"
        }
      ],
      "stateMutability": "view",
      "type": "function"
    },
    {
      "inputs": [],
      "name": "BORROWER",
      "outputs": [
        {
          "internalType": "uint16",
          "name": "",
          "type": "uint16"
        }
      ],
      "stateMutability": "view",
      "type": "function"
    },
    {
      "inputs": [],
      "name": "FEE_CONTROLLER",
      "outputs": [
        {
          "internalType": "uint16",
          "name": "",
          "type": "uint16"
        }
      ],
      "stateMutability": "view",
      "type": "function"
    },
    {
      "inputs": [],
      "name": "FEE_SOURCE",
      "outputs": [
        {
          "internalType": "uint16",
          "name": "",
          "type": "uint16"
        }
      ],
      "stateMutability": "view",
      "type": "function"
    },
    {
      "inputs": [],
      "name": "FUND",
      "outputs": [
        {
          "internalType": "uint16",
          "name": "",
          "type": "uint16"
        }
      ],
      "stateMutability": "view",
      "type": "function"
    },
    {
      "inputs": [],
      "name": "INCENTIVE_DISTRIBUTION",
      "outputs": [
        {
          "internalType": "uint16",
          "name": "",
          "type": "uint16"
        }
      ],
      "stateMutability": "view",
      "type": "function"
    },
    {
      "inputs": [],
      "name": "INCENTIVE_REPORTER",
      "outputs": [
        {
          "internalType": "uint16",
          "name": "",
          "type": "uint16"
        }
      ],
      "stateMutability": "view",
      "type": "function"
    },
    {
      "inputs": [],
      "name": "LENDING",
      "outputs": [
        {
          "internalType": "uint16",
          "name": "",
          "type": "uint16"
        }
      ],
      "stateMutability": "view",
      "type": "function"
    },
    {
      "inputs": [],
      "name": "LIQUIDATOR",
      "outputs": [
        {
          "internalType": "uint16",
          "name": "",
          "type": "uint16"
        }
      ],
      "stateMutability": "view",
      "type": "function"
    },
    {
      "inputs": [],
      "name": "MARGIN_CALLER",
      "outputs": [
        {
          "internalType": "uint16",
          "name": "",
          "type": "uint16"
        }
      ],
      "stateMutability": "view",
      "type": "function"
    },
    {
      "inputs": [],
      "name": "MARGIN_TRADER",
      "outputs": [
        {
          "internalType": "uint16",
          "name": "",
          "type": "uint16"
        }
      ],
      "stateMutability": "view",
      "type": "function"
    },
    {
      "inputs": [],
      "name": "MARGIN_TRADING",
      "outputs": [
        {
          "internalType": "uint16",
          "name": "",
          "type": "uint16"
        }
      ],
      "stateMutability": "view",
      "type": "function"
    },
    {
      "inputs": [],
      "name": "PRICE_CONTROLLER",
      "outputs": [
        {
          "internalType": "uint16",
          "name": "",
          "type": "uint16"
        }
      ],
      "stateMutability": "view",
      "type": "function"
    },
    {
      "inputs": [],
      "name": "ROUTER",
      "outputs": [
        {
          "internalType": "uint16",
          "name": "",
          "type": "uint16"
        }
      ],
      "stateMutability": "view",
      "type": "function"
    },
    {
      "inputs": [],
      "name": "TOKEN_ACTIVATOR",
      "outputs": [
        {
          "internalType": "uint16",
          "name": "",
          "type": "uint16"
        }
      ],
      "stateMutability": "view",
      "type": "function"
    },
    {
      "inputs": [],
      "name": "WITHDRAWER",
      "outputs": [
        {
          "internalType": "uint16",
          "name": "",
          "type": "uint16"
        }
      ],
      "stateMutability": "view",
      "type": "function"
    },
    {
      "inputs": [
        {
          "internalType": "enum AMM",
          "name": "amm",
          "type": "uint8"
        },
        {
          "internalType": "uint256",
          "name": "amountIn",
          "type": "uint256"
        },
        {
          "internalType": "uint256",
          "name": "amountOutMin",
          "type": "uint256"
        },
        {
          "internalType": "address[]",
          "name": "path",
          "type": "address[]"
        }
      ],
      "name": "authorizedSwapExactT4T",
      "outputs": [
        {
          "internalType": "uint256[]",
          "name": "",
          "type": "uint256[]"
        }
      ],
      "stateMutability": "nonpayable",
      "type": "function"
    },
    {
      "inputs": [
        {
          "internalType": "enum AMM",
          "name": "amm",
          "type": "uint8"
        },
        {
          "internalType": "uint256",
          "name": "amountOut",
          "type": "uint256"
        },
        {
          "internalType": "uint256",
          "name": "amountInMax",
          "type": "uint256"
        },
        {
          "internalType": "address[]",
          "name": "path",
          "type": "address[]"
        }
      ],
      "name": "authorizedSwapT4ExactT",
      "outputs": [
        {
          "internalType": "uint256[]",
          "name": "",
          "type": "uint256[]"
        }
      ],
      "stateMutability": "nonpayable",
      "type": "function"
    },
    {
      "inputs": [
        {
          "internalType": "address",
          "name": "borrowToken",
          "type": "address"
        },
        {
          "internalType": "uint256",
          "name": "borrowAmount",
          "type": "uint256"
        }
      ],
      "name": "crossBorrow",
      "outputs": [],
      "stateMutability": "nonpayable",
      "type": "function"
    },
    {
      "inputs": [
        {
          "internalType": "address",
          "name": "depositToken",
          "type": "address"
        },
        {
          "internalType": "uint256",
          "name": "depositAmount",
          "type": "uint256"
        }
      ],
      "name": "crossDeposit",
      "outputs": [],
      "stateMutability": "nonpayable",
      "type": "function"
    },
    {
      "inputs": [],
      "name": "crossDepositETH",
      "outputs": [],
      "stateMutability": "payable",
      "type": "function"
    },
    {
      "inputs": [
        {
          "internalType": "enum AMM",
          "name": "amm",
          "type": "uint8"
        },
        {
          "internalType": "uint256",
          "name": "amountIn",
          "type": "uint256"
        },
        {
          "internalType": "uint256",
          "name": "amountOutMin",
          "type": "uint256"
        },
        {
          "internalType": "address[]",
          "name": "path",
          "type": "address[]"
        },
        {
          "internalType": "uint256",
          "name": "deadline",
          "type": "uint256"
        }
      ],
      "name": "crossSwapExactTokensForTokens",
      "outputs": [
        {
          "internalType": "uint256[]",
          "name": "amounts",
          "type": "uint256[]"
        }
      ],
      "stateMutability": "nonpayable",
      "type": "function"
    },
    {
      "inputs": [
        {
          "internalType": "enum AMM",
          "name": "amm",
          "type": "uint8"
        },
        {
          "internalType": "uint256",
          "name": "amountOut",
          "type": "uint256"
        },
        {
          "internalType": "uint256",
          "name": "amountInMax",
          "type": "uint256"
        },
        {
          "internalType": "address[]",
          "name": "path",
          "type": "address[]"
        },
        {
          "internalType": "uint256",
          "name": "deadline",
          "type": "uint256"
        }
      ],
      "name": "crossSwapTokensForExactTokens",
      "outputs": [
        {
          "internalType": "uint256[]",
          "name": "amounts",
          "type": "uint256[]"
        }
      ],
      "stateMutability": "nonpayable",
      "type": "function"
    },
    {
      "inputs": [
        {
          "internalType": "address",
          "name": "withdrawToken",
          "type": "address"
        },
        {
          "internalType": "uint256",
          "name": "withdrawAmount",
          "type": "uint256"
        }
      ],
      "name": "crossWithdraw",
      "outputs": [],
      "stateMutability": "nonpayable",
      "type": "function"
    },
    {
      "inputs": [
        {
          "internalType": "uint256",
          "name": "withdrawAmount",
          "type": "uint256"
        }
      ],
      "name": "crossWithdrawETH",
      "outputs": [],
      "stateMutability": "nonpayable",
      "type": "function"
    },
    {
      "inputs": [
        {
          "internalType": "enum AMM",
          "name": "amm",
          "type": "uint8"
        },
        {
          "internalType": "uint256",
          "name": "outAmount",
          "type": "uint256"
        },
        {
          "internalType": "address[]",
          "name": "path",
          "type": "address[]"
        }
      ],
      "name": "getAmountsIn",
      "outputs": [
        {
          "internalType": "uint256[]",
          "name": "",
          "type": "uint256[]"
        }
      ],
      "stateMutability": "view",
      "type": "function"
    },
    {
      "inputs": [
        {
          "internalType": "enum AMM",
          "name": "amm",
          "type": "uint8"
        },
        {
          "internalType": "uint256",
          "name": "inAmount",
          "type": "uint256"
        },
        {
          "internalType": "address[]",
          "name": "path",
          "type": "address[]"
        }
      ],
      "name": "getAmountsOut",
      "outputs": [
        {
          "internalType": "uint256[]",
          "name": "",
          "type": "uint256[]"
        }
      ],
      "stateMutability": "view",
      "type": "function"
    },
    {
      "inputs": [],
      "name": "roles",
      "outputs": [
        {
          "internalType": "contract Roles",
          "name": "",
          "type": "address"
        }
      ],
      "stateMutability": "view",
      "type": "function"
    }
  ],
  "bytecode": "0x60806040523480156200001157600080fd5b50604051620036c9380380620036c98339810160408190526200003491620000e9565b600080546001600160a01b03199081166001600160a01b03938416178255600160208190527fa6eef7e35abe7026729641147f7915573c7e97b47efa546f5f6e3230263bcb4980548316978516979097179096559490527fcc69885fda6bcc1a4ace058b4a62bf5e179ea78fd58a1ccd71c22cc9b688792f805485169382169390931790925560028054909316911617905562000145565b80516001600160a01b0381168114620000e457600080fd5b919050565b60008060008060808587031215620000ff578384fd5b6200010a85620000cc565b93506200011a60208601620000cc565b92506200012a60408601620000cc565b91506200013a60608601620000cc565b905092959194509250565b61357480620001556000396000f3fe6080604052600436106101c25760003560e01c806366941984116100f7578063a94c7c3411610095578063d5d7ed7f11610064578063d5d7ed7f14610446578063e3e0626b1461045b578063eaa095f81461047b578063eedb97c71461049b576101c2565b8063a94c7c34146103f2578063a9cc053614610407578063c76139d01461041c578063cacf8d4514610431576101c2565b806390b931ed116100d157806390b931ed1461039557806394427b20146103b5578063a0098d69146103bd578063a5f9a362146103d2576101c2565b8063669419841461035657806381ca66001461036b57806383a49c7c14610380576101c2565b80632a0acc6a11610164578063392f5f641161013e578063392f5f64146102f557806346b887961461031757806348fb27b81461032c5780635c275a3914610341576101c2565b80632a0acc6a146102b65780632fe94def146102cb57806332fe7b26146102e0576101c2565b80631bc5d81d116101a05780631bc5d81d146102415780631dce3baa146102565780631f2a6743146102765780632233c43614610296576101c2565b8063065d570f146101c75780630aa29f1c146101f25780631306d9021461021f575b600080fd5b3480156101d357600080fd5b506101dc6104bb565b6040516101e99190613304565b60405180910390f35b3480156101fe57600080fd5b5061021261020d366004612b59565b6104c0565b6040516101e99190612e21565b34801561022b57600080fd5b5061023f61023a366004612ab6565b6105be565b005b34801561024d57600080fd5b506101dc6107dd565b34801561026257600080fd5b5061023f610271366004612c7b565b6107e2565b34801561028257600080fd5b50610212610291366004612b59565b610928565b3480156102a257600080fd5b506102126102b1366004612bbf565b610a11565b3480156102c257600080fd5b506101dc610d28565b3480156102d757600080fd5b506101dc610d2d565b3480156102ec57600080fd5b506101dc610d32565b34801561030157600080fd5b5061030a610d37565b6040516101e99190612e65565b34801561032357600080fd5b506101dc610d53565b34801561033857600080fd5b506101dc610d58565b34801561034d57600080fd5b506101dc610d5d565b34801561036257600080fd5b506101dc610d62565b34801561037757600080fd5b506101dc610d67565b34801561038c57600080fd5b506101dc610d6c565b3480156103a157600080fd5b506102126103b0366004612b01565b610d71565b61023f610e63565b3480156103c957600080fd5b506101dc611028565b3480156103de57600080fd5b506102126103ed366004612bbf565b61102d565b3480156103fe57600080fd5b506101dc61133b565b34801561041357600080fd5b506101dc611340565b34801561042857600080fd5b506101dc611345565b34801561043d57600080fd5b506101dc61134a565b34801561045257600080fd5b506101dc61134f565b34801561046757600080fd5b5061023f610476366004612ab6565b611354565b34801561048757600080fd5b50610212610496366004612b01565b6114d3565b3480156104a757600080fd5b5061023f6104b6366004612ab6565b6115bb565b600381565b60606104cb336116e2565b61050a576040517f08c379a000000000000000000000000000000000000000000000000000000000815260040161050190612ee3565b60405180910390fd5b6105b26001600088600381111561054a577f4e487b7100000000000000000000000000000000000000000000000000000000600052602160045260246000fd5b6003811115610582577f4e487b7100000000000000000000000000000000000000000000000000000000600052602160045260246000fd5b815260208101919091526040016000205473ffffffffffffffffffffffffffffffffffffffff1686868686611794565b90505b95945050505050565b3332146105f7576040517f08c379a000000000000000000000000000000000000000000000000000000000815260040161050190612e86565b6105ff611aa5565b73ffffffffffffffffffffffffffffffffffffffff1663b3db428b3384846040518463ffffffff1660e01b815260040161063b93929190612dca565b602060405180830381600087803b15801561065557600080fd5b505af1158015610669573d6000803e3d6000fd5b505050506040513d601f19601f8201168201806040525081019061068d9190612ae1565b6106c3576040517f08c379a000000000000000000000000000000000000000000000000000000000815260040161050190613122565b60006106cd611b52565b73ffffffffffffffffffffffffffffffffffffffff166352a664d93385856040518463ffffffff1660e01b815260040161070993929190612dca565b602060405180830381600087803b15801561072357600080fd5b505af1158015610737573d6000803e3d6000fd5b505050506040513d601f19601f8201168201806040525081019061075b9190612c93565b905080156107d85761076b611baa565b73ffffffffffffffffffffffffffffffffffffffff16632a6a897b84836040518363ffffffff1660e01b81526004016107a5929190612dfb565b600060405180830381600087803b1580156107bf57600080fd5b505af11580156107d3573d6000803e3d6000fd5b505050505b505050565b600881565b33321461081b576040517f08c379a000000000000000000000000000000000000000000000000000000000815260040161050190612e86565b610823611b52565b6002546040517fd0eb665300000000000000000000000000000000000000000000000000000000815273ffffffffffffffffffffffffffffffffffffffff9283169263d0eb66539261087f923392909116908690600401612dca565b600060405180830381600087803b15801561089957600080fd5b505af11580156108ad573d6000803e3d6000fd5b505050506108b9611aa5565b73ffffffffffffffffffffffffffffffffffffffff16634782f77933836040518363ffffffff1660e01b81526004016108f3929190612dfb565b600060405180830381600087803b15801561090d57600080fd5b505af1158015610921573d6000803e3d6000fd5b5050505050565b6060610933336116e2565b610969576040517f08c379a000000000000000000000000000000000000000000000000000000000815260040161050190612ee3565b6105b2600160008860038111156109a9577f4e487b7100000000000000000000000000000000000000000000000000000000600052602160045260246000fd5b60038111156109e1577f4e487b7100000000000000000000000000000000000000000000000000000000600052602160045260246000fd5b815260208101919091526040016000205473ffffffffffffffffffffffffffffffffffffffff1686868686611c02565b6060333214610a4c576040517f08c379a000000000000000000000000000000000000000000000000000000000815260040161050190612e86565b8142811015610a87576040517f08c379a000000000000000000000000000000000000000000000000000000000815260040161050190612f40565b6000610a91611cbf565b73ffffffffffffffffffffffffffffffffffffffff166367cbf42d8787610ab9600182613468565b818110610aef577f4e487b7100000000000000000000000000000000000000000000000000000000600052603260045260246000fd5b9050602002016020810190610b049190612a77565b8a6040518363ffffffff1660e01b8152600401610b22929190612dfb565b602060405180830381600087803b158015610b3c57600080fd5b505af1158015610b50573d6000803e3d6000fd5b505050506040513d601f19601f82011682018060405250810190610b749190612c93565b9050610c27600160008b6003811115610bb6577f4e487b7100000000000000000000000000000000000000000000000000000000600052602160045260246000fd5b6003811115610bee577f4e487b7100000000000000000000000000000000000000000000000000000000600052602160045260246000fd5b815260208101919091526040016000205473ffffffffffffffffffffffffffffffffffffffff16610c1f838b6133da565b898989611c02565b9250610d1c3387876000818110610c67577f4e487b7100000000000000000000000000000000000000000000000000000000600052603260045260246000fd5b9050602002016020810190610c7c9190612a77565b8888610c89600182613468565b818110610cbf577f4e487b7100000000000000000000000000000000000000000000000000000000600052603260045260246000fd5b9050602002016020810190610cd49190612a77565b86600081518110610d0e577f4e487b7100000000000000000000000000000000000000000000000000000000600052603260045260246000fd5b60200260200101518c611d17565b50509695505050505050565b606b81565b606981565b606781565b60005473ffffffffffffffffffffffffffffffffffffffff1681565b600681565b606681565b606581565b600181565b606a81565b600981565b6060600060016000876003811115610db2577f4e487b7100000000000000000000000000000000000000000000000000000000600052602160045260246000fd5b6003811115610dea577f4e487b7100000000000000000000000000000000000000000000000000000000600052602160045260246000fd5b815260200190815260200160002060009054906101000a900473ffffffffffffffffffffffffffffffffffffffff169050610e598186868680806020026020016040519081016040528093929190818152602001838360200280828437600092019190915250611eb692505050565b9695505050505050565b333214610e9c576040517f08c379a000000000000000000000000000000000000000000000000000000000815260040161050190612e86565b610ea4611aa5565b73ffffffffffffffffffffffffffffffffffffffff1663a6a5f9fe346040518263ffffffff1660e01b81526004016000604051808303818588803b158015610eeb57600080fd5b505af1158015610eff573d6000803e3d6000fd5b50505050506000610f0e611b52565b6002546040517f52a664d900000000000000000000000000000000000000000000000000000000815273ffffffffffffffffffffffffffffffffffffffff928316926352a664d992610f6a923392909116903490600401612dca565b602060405180830381600087803b158015610f8457600080fd5b505af1158015610f98573d6000803e3d6000fd5b505050506040513d601f19601f82011682018060405250810190610fbc9190612c93565b9050801561102557610fcc611baa565b6002546040517f2a6a897b00000000000000000000000000000000000000000000000000000000815273ffffffffffffffffffffffffffffffffffffffff92831692632a6a897b926108f3929116908590600401612dfb565b50565b600281565b6060333214611068576040517f08c379a000000000000000000000000000000000000000000000000000000000815260040161050190612e86565b81428110156110a3576040517f08c379a000000000000000000000000000000000000000000000000000000000815260040161050190612f40565b60006110ad611cbf565b73ffffffffffffffffffffffffffffffffffffffff16633f0e9edf87876000818110611102577f4e487b7100000000000000000000000000000000000000000000000000000000600052603260045260246000fd5b90506020020160208101906111179190612a77565b8a6040518363ffffffff1660e01b8152600401611135929190612dfb565b602060405180830381600087803b15801561114f57600080fd5b505af1158015611163573d6000803e3d6000fd5b505050506040513d601f19601f820116820180604052508101906111879190612c93565b905061123a600160008b60038111156111c9577f4e487b7100000000000000000000000000000000000000000000000000000000600052602160045260246000fd5b6003811115611201577f4e487b7100000000000000000000000000000000000000000000000000000000600052602160045260246000fd5b815260208101919091526040016000205473ffffffffffffffffffffffffffffffffffffffff16611232838b613468565b898989611794565b9250610d1c338787600081811061127a577f4e487b7100000000000000000000000000000000000000000000000000000000600052603260045260246000fd5b905060200201602081019061128f9190612a77565b888861129c600182613468565b8181106112d2577f4e487b7100000000000000000000000000000000000000000000000000000000600052603260045260246000fd5b90506020020160208101906112e79190612a77565b8b87600189516112f79190613468565b8151811061132e577f4e487b7100000000000000000000000000000000000000000000000000000000600052603260045260246000fd5b6020026020010151611d17565b600581565b606881565b606c81565b600481565b600781565b33321461138d576040517f08c379a000000000000000000000000000000000000000000000000000000000815260040161050190612e86565b611395611b52565b73ffffffffffffffffffffffffffffffffffffffff1663d0eb66533384846040518463ffffffff1660e01b81526004016113d193929190612dca565b600060405180830381600087803b1580156113eb57600080fd5b505af11580156113ff573d6000803e3d6000fd5b5050505061140b611aa5565b73ffffffffffffffffffffffffffffffffffffffff1663d9caed128333846040518463ffffffff1660e01b815260040161144793929190612dca565b602060405180830381600087803b15801561146157600080fd5b505af1158015611475573d6000803e3d6000fd5b505050506040513d601f19601f820116820180604052508101906114999190612ae1565b6114cf576040517f08c379a00000000000000000000000000000000000000000000000000000000081526004016105019061317f565b5050565b6060600060016000876003811115611514577f4e487b7100000000000000000000000000000000000000000000000000000000600052602160045260246000fd5b600381111561154c577f4e487b7100000000000000000000000000000000000000000000000000000000600052602160045260246000fd5b815260200190815260200160002060009054906101000a900473ffffffffffffffffffffffffffffffffffffffff169050610e59818686868080602002602001604051908101604052809392919081815260200183836020028082843760009201919091525061212092505050565b3332146115f4576040517f08c379a000000000000000000000000000000000000000000000000000000000815260040161050190612e86565b6115fc611baa565b73ffffffffffffffffffffffffffffffffffffffff1663ee0862bf83836040518363ffffffff1660e01b8152600401611636929190612dfb565b600060405180830381600087803b15801561165057600080fd5b505af1158015611664573d6000803e3d6000fd5b50505050611670611b52565b73ffffffffffffffffffffffffffffffffffffffff1663498d55eb3384846040518463ffffffff1660e01b81526004016116ac93929190612dca565b600060405180830381600087803b1580156116c657600080fd5b505af11580156116da573d6000803e3d6000fd5b505050505050565b600080546040517fd87fefd200000000000000000000000000000000000000000000000000000000815273ffffffffffffffffffffffffffffffffffffffff9091169063d87fefd29061173c906007908690600401613313565b60206040518083038186803b15801561175457600080fd5b505afa158015611768573d6000803e3d6000fd5b505050506040513d601f19601f8201168201806040525081019061178c9190612ae1565b90505b919050565b60606117d4868685858080602002602001604051908101604052809392919081815260200183836020028082843760009201919091525061212092505050565b90508381600183516117e69190613468565b8151811061181d577f4e487b7100000000000000000000000000000000000000000000000000000000600052603260045260246000fd5b6020026020010151101561185d576040517f08c379a0000000000000000000000000000000000000000000000000000000008152600401610501906132a7565b611865611aa5565b73ffffffffffffffffffffffffffffffffffffffff1663d9caed12848460008181106118ba577f4e487b7100000000000000000000000000000000000000000000000000000000600052603260045260246000fd5b90506020020160208101906118cf9190612a77565b611976898787600081811061190d577f4e487b7100000000000000000000000000000000000000000000000000000000600052603260045260246000fd5b90506020020160208101906119229190612a77565b8888600181811061195c577f4e487b7100000000000000000000000000000000000000000000000000000000600052603260045260246000fd5b90506020020160208101906119719190612a77565b61236a565b846000815181106119b0577f4e487b7100000000000000000000000000000000000000000000000000000000600052603260045260246000fd5b60200260200101516040518463ffffffff1660e01b81526004016119d693929190612dca565b602060405180830381600087803b1580156119f057600080fd5b505af1158015611a04573d6000803e3d6000fd5b505050506040513d601f19601f82011682018060405250810190611a289190612ae1565b611a5e576040517f08c379a000000000000000000000000000000000000000000000000000000000815260040161050190613031565b6105b58682858580806020026020016040519081016040528093929190818152602001838360200280828437600092019190915250611aa09250611aa5915050565b6123dc565b600080546040517f3c9c8f9c00000000000000000000000000000000000000000000000000000000815273ffffffffffffffffffffffffffffffffffffffff90911690633c9c8f9c90611afd90606590600401613304565b60206040518083038186803b158015611b1557600080fd5b505afa158015611b29573d6000803e3d6000fd5b505050506040513d601f19601f82011682018060405250810190611b4d9190612a9a565b905090565b600080546040517f3c9c8f9c00000000000000000000000000000000000000000000000000000000815273ffffffffffffffffffffffffffffffffffffffff90911690633c9c8f9c90611afd90606890600401613304565b600080546040517f3c9c8f9c00000000000000000000000000000000000000000000000000000000815273ffffffffffffffffffffffffffffffffffffffff90911690633c9c8f9c90611afd90606690600401613304565b6060611c428686858580806020026020016040519081016040528093929190818152602001838360200280828437600092019190915250611eb692505050565b90508381600081518110611c7f577f4e487b7100000000000000000000000000000000000000000000000000000000600052603260045260246000fd5b6020026020010151111561185d576040517f08c379a0000000000000000000000000000000000000000000000000000000008152600401610501906131b6565b600080546040517f3c9c8f9c00000000000000000000000000000000000000000000000000000000815273ffffffffffffffffffffffffffffffffffffffff90911690633c9c8f9c90611afd90606990600401613304565b600080611d22611b52565b73ffffffffffffffffffffffffffffffffffffffff16633500aa0b88888888886040518663ffffffff1660e01b8152600401611d62959493929190612d89565b6040805180830381600087803b158015611d7b57600080fd5b505af1158015611d8f573d6000803e3d6000fd5b505050506040513d601f19601f82011682018060405250810190611db39190612cab565b90925090508115611e3357611dc6611baa565b73ffffffffffffffffffffffffffffffffffffffff16632a6a897b86846040518363ffffffff1660e01b8152600401611e00929190612dfb565b600060405180830381600087803b158015611e1a57600080fd5b505af1158015611e2e573d6000803e3d6000fd5b505050505b80156107d357611e41611baa565b73ffffffffffffffffffffffffffffffffffffffff1663ee0862bf86836040518363ffffffff1660e01b8152600401611e7b929190612dfb565b600060405180830381600087803b158015611e9557600080fd5b505af1158015611ea9573d6000803e3d6000fd5b5050505050505050505050565b6060600282511015611ef4576040517f08c379a00000000000000000000000000000000000000000000000000000000081526004016105019061308e565b815167ffffffffffffffff811115611f35577f4e487b7100000000000000000000000000000000000000000000000000000000600052604160045260246000fd5b604051908082528060200260200182016040528015611f5e578160200160208202803683370190505b509050828160018351611f719190613468565b81518110611fa8577f4e487b7100000000000000000000000000000000000000000000000000000000600052603260045260246000fd5b602002602001018181525050600060018351611fc49190613468565b90505b8015612118576000806120658786611fe0600187613468565b81518110612017577f4e487b7100000000000000000000000000000000000000000000000000000000600052603260045260246000fd5b6020026020010151878681518110612058577f4e487b7100000000000000000000000000000000000000000000000000000000600052603260045260246000fd5b6020026020010151612661565b915091506120b48484815181106120a5577f4e487b7100000000000000000000000000000000000000000000000000000000600052603260045260246000fd5b6020026020010151838361276f565b846120c0600186613468565b815181106120f7577f4e487b7100000000000000000000000000000000000000000000000000000000600052603260045260246000fd5b602002602001018181525050505080806121109061347f565b915050611fc7565b509392505050565b606060028251101561215e576040517f08c379a00000000000000000000000000000000000000000000000000000000081526004016105019061308e565b815167ffffffffffffffff81111561219f577f4e487b7100000000000000000000000000000000000000000000000000000000600052604160045260246000fd5b6040519080825280602002602001820160405280156121c8578160200160208202803683370190505b5090508281600081518110612206577f4e487b7100000000000000000000000000000000000000000000000000000000600052603260045260246000fd5b60200260200101818152505060005b600183516122239190613468565b811015612118576000806122b78786858151811061226a577f4e487b7100000000000000000000000000000000000000000000000000000000600052603260045260246000fd5b60200260200101518786600161228091906133da565b81518110612058577f4e487b7100000000000000000000000000000000000000000000000000000000600052603260045260246000fd5b915091506123068484815181106122f7577f4e487b7100000000000000000000000000000000000000000000000000000000600052603260045260246000fd5b6020026020010151838361283a565b846123128560016133da565b81518110612349577f4e487b7100000000000000000000000000000000000000000000000000000000600052603260045260246000fd5b60200260200101818152505050508080612362906134b4565b915050612215565b60008060006123798585612909565b91509150858282604051602001612391929190612cce565b604051602081830303815290604052805190602001206040516020016123b8929190612d08565b6040516020818303038152906040528051906020012060601c925050509392505050565b60005b600183516123ed9190613468565b81101561092157600080848381518110612430577f4e487b7100000000000000000000000000000000000000000000000000000000600052603260045260246000fd5b60200260200101518584600161244691906133da565b8151811061247d577f4e487b7100000000000000000000000000000000000000000000000000000000600052603260045260246000fd5b60200260200101519150915060006124958383612909565b5090506000876124a68660016133da565b815181106124dd577f4e487b7100000000000000000000000000000000000000000000000000000000600052603260045260246000fd5b602002602001015190506000808373ffffffffffffffffffffffffffffffffffffffff168673ffffffffffffffffffffffffffffffffffffffff161461252557826000612529565b6000835b91509150600060028a5161253d9190613468565b8810612549578861259e565b61259e8c878c61255a8c60026133da565b81518110612591577f4e487b7100000000000000000000000000000000000000000000000000000000600052603260045260246000fd5b602002602001015161236a565b90506125ab8c888861236a565b73ffffffffffffffffffffffffffffffffffffffff1663022c0d9f84848460006040519080825280601f01601f1916602001820160405280156125f5576020820181803683370190505b506040518563ffffffff1660e01b8152600401612615949392919061333d565b600060405180830381600087803b15801561262f57600080fd5b505af1158015612643573d6000803e3d6000fd5b50505050505050505050508080612659906134b4565b9150506123df565b60008060006126708585612909565b50905060008061268188888861236a565b73ffffffffffffffffffffffffffffffffffffffff16630902f1ac6040518163ffffffff1660e01b815260040160606040518083038186803b1580156126c657600080fd5b505afa1580156126da573d6000803e3d6000fd5b505050506040513d601f19601f820116820180604052508101906126fe9190612c2d565b506dffffffffffffffffffffffffffff1691506dffffffffffffffffffffffffffff1691508273ffffffffffffffffffffffffffffffffffffffff168773ffffffffffffffffffffffffffffffffffffffff161461275d578082612760565b81815b90999098509650505050505050565b60008084116127aa576040517f08c379a000000000000000000000000000000000000000000000000000000000815260040161050190612f77565b6000831180156127ba5750600082115b6127f0576040517f08c379a0000000000000000000000000000000000000000000000000000000008152600401610501906130c5565b60006127fc858561342b565b612808906103e861342b565b905060006103e56128198786613468565b6128239190613468565b905061282f81836133f2565b610e599060016133da565b6000808411612875576040517f08c379a00000000000000000000000000000000000000000000000000000000081526004016105019061324a565b6000831180156128855750600082115b6128bb576040517f08c379a0000000000000000000000000000000000000000000000000000000008152600401610501906130c5565b60006128c9856103e561342b565b905060006128d7848361342b565b90506000826128e8876103e861342b565b6128f291906133da565b90506128fe81836133f2565b979650505050505050565b6000808273ffffffffffffffffffffffffffffffffffffffff168473ffffffffffffffffffffffffffffffffffffffff161415612972576040517f08c379a000000000000000000000000000000000000000000000000000000000815260040161050190612fd4565b8273ffffffffffffffffffffffffffffffffffffffff168473ffffffffffffffffffffffffffffffffffffffff16106129ac5782846129af565b83835b909250905073ffffffffffffffffffffffffffffffffffffffff8216612a01576040517f08c379a000000000000000000000000000000000000000000000000000000000815260040161050190613213565b9250929050565b60008083601f840112612a19578182fd5b50813567ffffffffffffffff811115612a30578182fd5b6020830191508360208083028501011115612a0157600080fd5b80356004811061178f57600080fd5b80516dffffffffffffffffffffffffffff8116811461178f57600080fd5b600060208284031215612a88578081fd5b8135612a938161351c565b9392505050565b600060208284031215612aab578081fd5b8151612a938161351c565b60008060408385031215612ac8578081fd5b8235612ad38161351c565b946020939093013593505050565b600060208284031215612af2578081fd5b81518015158114612a93578182fd5b60008060008060608587031215612b16578182fd5b612b1f85612a4a565b935060208501359250604085013567ffffffffffffffff811115612b41578283fd5b612b4d87828801612a08565b95989497509550505050565b600080600080600060808688031215612b70578081fd5b612b7986612a4a565b94506020860135935060408601359250606086013567ffffffffffffffff811115612ba2578182fd5b612bae88828901612a08565b969995985093965092949392505050565b60008060008060008060a08789031215612bd7578081fd5b612be087612a4a565b95506020870135945060408701359350606087013567ffffffffffffffff811115612c09578182fd5b612c1589828a01612a08565b979a9699509497949695608090950135949350505050565b600080600060608486031215612c41578283fd5b612c4a84612a59565b9250612c5860208501612a59565b9150604084015163ffffffff81168114612c70578182fd5b809150509250925092565b600060208284031215612c8c578081fd5b5035919050565b600060208284031215612ca4578081fd5b5051919050565b60008060408385031215612cbd578182fd5b505080516020909101519092909150565b7fffffffffffffffffffffffffffffffffffffffff000000000000000000000000606093841b811682529190921b16601482015260280190565b7fff00000000000000000000000000000000000000000000000000000000000000815260609290921b7fffffffffffffffffffffffffffffffffffffffff00000000000000000000000016600183015260158201527f96e8ac4277198ff8b6f785478aa9a39f403cb768dd02cbee326c3e7da348845f603582015260550190565b73ffffffffffffffffffffffffffffffffffffffff958616815293851660208501529190931660408301526060820192909252608081019190915260a00190565b73ffffffffffffffffffffffffffffffffffffffff9384168152919092166020820152604081019190915260600190565b73ffffffffffffffffffffffffffffffffffffffff929092168252602082015260400190565b6020808252825182820181905260009190848201906040850190845b81811015612e5957835183529284019291840191600101612e3d565b50909695505050505050565b73ffffffffffffffffffffffffffffffffffffffff91909116815260200190565b6020808252603a908201527f43757272656e746c79206e6f20696e7465726d656469617269657320616c6c6f60408201527f77656420666f7220746869732066756e6374696f6e2063616c6c000000000000606082015260800190565b6020808252603e908201527f43616c6c696e6720636f6e7472616374206973206e6f7420617574686f72697a60408201527f656420746f20747261646520776974682070726f746f636c2066756e64730000606082015260800190565b60208082526018908201527f556e69737761705632526f757465723a20455850495245440000000000000000604082015260600190565b6020808252602c908201527f556e697377617056324c6962726172793a20494e53554646494349454e545f4f60408201527f55545055545f414d4f554e540000000000000000000000000000000000000000606082015260800190565b60208082526025908201527f556e697377617056324c6962726172793a204944454e544943414c5f4144445260408201527f4553534553000000000000000000000000000000000000000000000000000000606082015260800190565b60208082526028908201527f4d617267696e526f757465723a20496e73756666696369656e74206c656e646960408201527f6e672066756e6473000000000000000000000000000000000000000000000000606082015260800190565b6020808252601e908201527f556e697377617056324c6962726172793a20494e56414c49445f504154480000604082015260600190565b60208082526028908201527f556e697377617056324c6962726172793a20494e53554646494349454e545f4c60408201527f4951554944495459000000000000000000000000000000000000000000000000606082015260800190565b60208082526029908201527f43616e6e6f74207472616e73666572206465706f73697420746f206d6172676960408201527f6e206163636f756e740000000000000000000000000000000000000000000000606082015260800190565b6020808252601c908201527f436f756c64206e6f742077697468647261772066726f6d2066756e6400000000604082015260600190565b60208082526027908201527f556e69737761705632526f757465723a204558434553534956455f494e50555460408201527f5f414d4f554e5400000000000000000000000000000000000000000000000000606082015260800190565b6020808252601e908201527f556e697377617056324c6962726172793a205a45524f5f414444524553530000604082015260600190565b6020808252602b908201527f556e697377617056324c6962726172793a20494e53554646494349454e545f4960408201527f4e5055545f414d4f554e54000000000000000000000000000000000000000000606082015260800190565b60208082526028908201527f4d617267696e526f757465723a20494e53554646494349454e545f4f5554505560408201527f545f414d4f554e54000000000000000000000000000000000000000000000000606082015260800190565b61ffff91909116815260200190565b61ffff92909216825273ffffffffffffffffffffffffffffffffffffffff16602082015260400190565b60008582526020858184015273ffffffffffffffffffffffffffffffffffffffff85166040840152608060608401528351806080850152825b818110156133925785810183015185820160a001528201613376565b818111156133a3578360a083870101525b50601f017fffffffffffffffffffffffffffffffffffffffffffffffffffffffffffffffe0169290920160a0019695505050505050565b600082198211156133ed576133ed6134ed565b500190565b600082613426577f4e487b710000000000000000000000000000000000000000000000000000000081526012600452602481fd5b500490565b6000817fffffffffffffffffffffffffffffffffffffffffffffffffffffffffffffffff0483118215151615613463576134636134ed565b500290565b60008282101561347a5761347a6134ed565b500390565b60008161348e5761348e6134ed565b507fffffffffffffffffffffffffffffffffffffffffffffffffffffffffffffffff0190565b60007fffffffffffffffffffffffffffffffffffffffffffffffffffffffffffffffff8214156134e6576134e66134ed565b5060010190565b7f4e487b7100000000000000000000000000000000000000000000000000000000600052601160045260246000fd5b73ffffffffffffffffffffffffffffffffffffffff8116811461102557600080fdfea2646970667358221220b32d7a98dd2a799aaeb0d06d8cbfb3760d0d1467a529bb193d354bd748dad5de64736f6c63430008010033",
  "linkReferences": {},
  "deployedLinkReferences": {}
}