{
  "_format": "hh-sol-artifact-1",
  "contractName": "MarginRouter",
  "sourceName": "contracts/MarginRouter.sol",
  "abi": [
    {
      "inputs": [
        {
          "internalType": "address",
          "name": "uniswapFactory",
          "type": "address"
        },
        {
          "internalType": "address",
          "name": "sushiswapFactory",
          "type": "address"
        },
        {
          "internalType": "address",
          "name": "_WETH",
          "type": "address"
        },
        {
          "internalType": "address",
          "name": "_roles",
          "type": "address"
        }
      ],
      "stateMutability": "nonpayable",
      "type": "constructor"
    },
    {
      "inputs": [],
      "name": "AUTHORIZED_FUND_TRADER",
      "outputs": [
        {
          "internalType": "uint16",
          "name": "",
          "type": "uint16"
        }
      ],
      "stateMutability": "view",
      "type": "function"
    },
    {
      "inputs": [],
      "name": "BORROWER",
      "outputs": [
        {
          "internalType": "uint16",
          "name": "",
          "type": "uint16"
        }
      ],
      "stateMutability": "view",
      "type": "function"
    },
    {
      "inputs": [],
      "name": "FEE_CONTROLLER",
      "outputs": [
        {
          "internalType": "uint16",
          "name": "",
          "type": "uint16"
        }
      ],
      "stateMutability": "view",
      "type": "function"
    },
    {
      "inputs": [],
      "name": "FEE_SOURCE",
      "outputs": [
        {
          "internalType": "uint16",
          "name": "",
          "type": "uint16"
        }
      ],
      "stateMutability": "view",
      "type": "function"
    },
    {
      "inputs": [],
      "name": "FUND",
      "outputs": [
        {
          "internalType": "uint16",
          "name": "",
          "type": "uint16"
        }
      ],
      "stateMutability": "view",
      "type": "function"
    },
    {
      "inputs": [],
      "name": "INCENTIVE_REPORTER",
      "outputs": [
        {
          "internalType": "uint16",
          "name": "",
          "type": "uint16"
        }
      ],
      "stateMutability": "view",
      "type": "function"
    },
    {
      "inputs": [],
      "name": "LENDING",
      "outputs": [
        {
          "internalType": "uint16",
          "name": "",
          "type": "uint16"
        }
      ],
      "stateMutability": "view",
      "type": "function"
    },
    {
      "inputs": [],
      "name": "LIQUIDATOR",
      "outputs": [
        {
          "internalType": "uint16",
          "name": "",
          "type": "uint16"
        }
      ],
      "stateMutability": "view",
      "type": "function"
    },
    {
      "inputs": [],
      "name": "MARGIN_CALLER",
      "outputs": [
        {
          "internalType": "uint16",
          "name": "",
          "type": "uint16"
        }
      ],
      "stateMutability": "view",
      "type": "function"
    },
    {
      "inputs": [],
      "name": "MARGIN_TRADER",
      "outputs": [
        {
          "internalType": "uint16",
          "name": "",
          "type": "uint16"
        }
      ],
      "stateMutability": "view",
      "type": "function"
    },
    {
      "inputs": [],
      "name": "MARGIN_TRADING",
      "outputs": [
        {
          "internalType": "uint16",
          "name": "",
          "type": "uint16"
        }
      ],
      "stateMutability": "view",
      "type": "function"
    },
    {
      "inputs": [],
      "name": "PRICE_CONTROLLER",
      "outputs": [
        {
          "internalType": "uint16",
          "name": "",
          "type": "uint16"
        }
      ],
      "stateMutability": "view",
      "type": "function"
    },
    {
      "inputs": [],
      "name": "ROUTER",
      "outputs": [
        {
          "internalType": "uint16",
          "name": "",
          "type": "uint16"
        }
      ],
      "stateMutability": "view",
      "type": "function"
    },
    {
      "inputs": [],
      "name": "TOKEN_ACTIVATOR",
      "outputs": [
        {
          "internalType": "uint16",
          "name": "",
          "type": "uint16"
        }
      ],
      "stateMutability": "view",
      "type": "function"
    },
    {
      "inputs": [],
      "name": "WITHDRAWER",
      "outputs": [
        {
          "internalType": "uint16",
          "name": "",
          "type": "uint16"
        }
      ],
      "stateMutability": "view",
      "type": "function"
    },
    {
      "inputs": [
        {
          "internalType": "enum AMM",
          "name": "amm",
          "type": "uint8"
        },
        {
          "internalType": "uint256",
          "name": "amountIn",
          "type": "uint256"
        },
        {
          "internalType": "uint256",
          "name": "amountOutMin",
          "type": "uint256"
        },
        {
          "internalType": "address[]",
          "name": "path",
          "type": "address[]"
        }
      ],
      "name": "authorizedSwapExactT4T",
      "outputs": [
        {
          "internalType": "uint256[]",
          "name": "",
          "type": "uint256[]"
        }
      ],
      "stateMutability": "nonpayable",
      "type": "function"
    },
    {
      "inputs": [
        {
          "internalType": "enum AMM",
          "name": "amm",
          "type": "uint8"
        },
        {
          "internalType": "uint256",
          "name": "amountOut",
          "type": "uint256"
        },
        {
          "internalType": "uint256",
          "name": "amountInMax",
          "type": "uint256"
        },
        {
          "internalType": "address[]",
          "name": "path",
          "type": "address[]"
        }
      ],
      "name": "authorizedSwapT4ExactT",
      "outputs": [
        {
          "internalType": "uint256[]",
          "name": "",
          "type": "uint256[]"
        }
      ],
      "stateMutability": "nonpayable",
      "type": "function"
    },
    {
      "inputs": [
        {
          "internalType": "address",
          "name": "borrowToken",
          "type": "address"
        },
        {
          "internalType": "uint256",
          "name": "borrowAmount",
          "type": "uint256"
        }
      ],
      "name": "crossBorrow",
      "outputs": [],
      "stateMutability": "nonpayable",
      "type": "function"
    },
    {
      "inputs": [
        {
          "internalType": "address",
          "name": "depositToken",
          "type": "address"
        },
        {
          "internalType": "uint256",
          "name": "depositAmount",
          "type": "uint256"
        }
      ],
      "name": "crossDeposit",
      "outputs": [],
      "stateMutability": "nonpayable",
      "type": "function"
    },
    {
      "inputs": [],
      "name": "crossDepositETH",
      "outputs": [],
      "stateMutability": "payable",
      "type": "function"
    },
    {
      "inputs": [
        {
          "internalType": "address",
          "name": "debtToken",
          "type": "address"
        },
        {
          "internalType": "uint256",
          "name": "extinguishAmount",
          "type": "uint256"
        }
      ],
      "name": "crossExtinguishDebt",
      "outputs": [],
      "stateMutability": "nonpayable",
      "type": "function"
    },
    {
      "inputs": [
        {
          "internalType": "enum AMM",
          "name": "amm",
          "type": "uint8"
        },
        {
          "internalType": "uint256",
          "name": "amountIn",
          "type": "uint256"
        },
        {
          "internalType": "uint256",
          "name": "amountOutMin",
          "type": "uint256"
        },
        {
          "internalType": "address[]",
          "name": "path",
          "type": "address[]"
        },
        {
          "internalType": "uint256",
          "name": "deadline",
          "type": "uint256"
        }
      ],
      "name": "crossSwapExactTokensForTokens",
      "outputs": [
        {
          "internalType": "uint256[]",
          "name": "amounts",
          "type": "uint256[]"
        }
      ],
      "stateMutability": "nonpayable",
      "type": "function"
    },
    {
      "inputs": [
        {
          "internalType": "enum AMM",
          "name": "amm",
          "type": "uint8"
        },
        {
          "internalType": "uint256",
          "name": "amountOut",
          "type": "uint256"
        },
        {
          "internalType": "uint256",
          "name": "amountInMax",
          "type": "uint256"
        },
        {
          "internalType": "address[]",
          "name": "path",
          "type": "address[]"
        },
        {
          "internalType": "uint256",
          "name": "deadline",
          "type": "uint256"
        }
      ],
      "name": "crossSwapTokensForExactTokens",
      "outputs": [
        {
          "internalType": "uint256[]",
          "name": "amounts",
          "type": "uint256[]"
        }
      ],
      "stateMutability": "nonpayable",
      "type": "function"
    },
    {
      "inputs": [
        {
          "internalType": "address",
          "name": "withdrawToken",
          "type": "address"
        },
        {
          "internalType": "uint256",
          "name": "withdrawAmount",
          "type": "uint256"
        }
      ],
      "name": "crossWithdraw",
      "outputs": [],
      "stateMutability": "nonpayable",
      "type": "function"
    },
    {
      "inputs": [
        {
          "internalType": "uint256",
          "name": "withdrawAmount",
          "type": "uint256"
        }
      ],
      "name": "crossWithdrawETH",
      "outputs": [],
      "stateMutability": "nonpayable",
      "type": "function"
    },
    {
      "inputs": [
        {
          "internalType": "enum AMM",
          "name": "amm",
          "type": "uint8"
        },
        {
          "internalType": "uint256",
          "name": "outAmount",
          "type": "uint256"
        },
        {
          "internalType": "address[]",
          "name": "path",
          "type": "address[]"
        }
      ],
      "name": "getAmountsIn",
      "outputs": [
        {
          "internalType": "uint256[]",
          "name": "",
          "type": "uint256[]"
        }
      ],
      "stateMutability": "view",
      "type": "function"
    },
    {
      "inputs": [
        {
          "internalType": "enum AMM",
          "name": "amm",
          "type": "uint8"
        },
        {
          "internalType": "uint256",
          "name": "inAmount",
          "type": "uint256"
        },
        {
          "internalType": "address[]",
          "name": "path",
          "type": "address[]"
        }
      ],
      "name": "getAmountsOut",
      "outputs": [
        {
          "internalType": "uint256[]",
          "name": "",
          "type": "uint256[]"
        }
      ],
      "stateMutability": "view",
      "type": "function"
    },
    {
      "inputs": [],
      "name": "roles",
      "outputs": [
        {
          "internalType": "contract Roles",
          "name": "",
          "type": "address"
        }
      ],
      "stateMutability": "view",
      "type": "function"
    }
  ],
  "bytecode": "0x60806040523480156200001157600080fd5b5060405162003833380380620038338339810160408190526200003491620000e9565b600080546001600160a01b03199081166001600160a01b03938416178255600160208190527fa6eef7e35abe7026729641147f7915573c7e97b47efa546f5f6e3230263bcb4980548316978516979097179096559490527fcc69885fda6bcc1a4ace058b4a62bf5e179ea78fd58a1ccd71c22cc9b688792f805485169382169390931790925560028054909316911617905562000145565b80516001600160a01b0381168114620000e457600080fd5b919050565b60008060008060808587031215620000ff578384fd5b6200010a85620000cc565b93506200011a60208601620000cc565b92506200012a60408601620000cc565b91506200013a60608601620000cc565b905092959194509250565b6136de80620001556000396000f3fe6080604052600436106101b75760003560e01c806366941984116100ec578063a94c7c341161008a578063d5d7ed7f11610064578063d5d7ed7f14610431578063e3e0626b14610446578063eaa095f814610466578063eedb97c714610486576101b7565b8063a94c7c34146103f2578063a9cc053614610407578063cacf8d451461041c576101b7565b806390b931ed116100c657806390b931ed1461039557806394427b20146103b5578063a0098d69146103bd578063a5f9a362146103d2576101b7565b8063669419841461035657806381ca66001461036b57806383a49c7c14610380576101b7565b80632fe94def1161015957806346b887961161013357806346b88796146102f757806348eb4f3e1461030c57806348fb27b81461032c5780635c275a3914610341576101b7565b80632fe94def146102ab57806332fe7b26146102c0578063392f5f64146102d5576101b7565b80631bc5d81d116101955780631bc5d81d146102365780631dce3baa1461024b5780631f2a67431461026b5780632233c4361461028b576101b7565b8063065d570f146101bc5780630aa29f1c146101e75780631306d90214610214575b600080fd5b3480156101c857600080fd5b506101d16104a6565b6040516101de919061346e565b60405180910390f35b3480156101f357600080fd5b50610207610202366004612ce6565b6104ab565b6040516101de9190612f8b565b34801561022057600080fd5b5061023461022f366004612c43565b6105a9565b005b34801561024257600080fd5b506101d161083e565b34801561025757600080fd5b50610234610266366004612e08565b610843565b34801561027757600080fd5b50610207610286366004612ce6565b610989565b34801561029757600080fd5b506102076102a6366004612d4c565b610a72565b3480156102b757600080fd5b506101d1610e95565b3480156102cc57600080fd5b506101d1610e9a565b3480156102e157600080fd5b506102ea610e9f565b6040516101de9190612fcf565b34801561030357600080fd5b506101d1610ebb565b34801561031857600080fd5b50610234610327366004612c43565b610ec0565b34801561033857600080fd5b506101d1610fe7565b34801561034d57600080fd5b506101d1610fec565b34801561036257600080fd5b506101d1610ff1565b34801561037757600080fd5b506101d1610ff6565b34801561038c57600080fd5b506101d1610ffb565b3480156103a157600080fd5b506102076103b0366004612c8e565b611000565b6102346110f2565b3480156103c957600080fd5b506101d161134d565b3480156103de57600080fd5b506102076103ed366004612d4c565b611352565b3480156103fe57600080fd5b506101d16116a2565b34801561041357600080fd5b506101d16116a7565b34801561042857600080fd5b506101d16116ac565b34801561043d57600080fd5b506101d16116b1565b34801561045257600080fd5b50610234610461366004612c43565b6116b6565b34801561047257600080fd5b50610207610481366004612c8e565b611835565b34801561049257600080fd5b506102346104a1366004612c43565b61191d565b600381565b60606104b633611a0e565b6104f5576040517f08c379a00000000000000000000000000000000000000000000000000000000081526004016104ec9061304d565b60405180910390fd5b61059d60016000886003811115610535577f4e487b7100000000000000000000000000000000000000000000000000000000600052602160045260246000fd5b600381111561056d577f4e487b7100000000000000000000000000000000000000000000000000000000600052602160045260246000fd5b815260208101919091526040016000205473ffffffffffffffffffffffffffffffffffffffff1686868686611ac0565b90505b95945050505050565b3332146105e2576040517f08c379a00000000000000000000000000000000000000000000000000000000081526004016104ec90612ff0565b6105ea611dd1565b73ffffffffffffffffffffffffffffffffffffffff1663b3db428b3384846040518463ffffffff1660e01b815260040161062693929190612f34565b602060405180830381600087803b15801561064057600080fd5b505af1158015610654573d6000803e3d6000fd5b505050506040513d601f19601f820116820180604052508101906106789190612c6e565b6106ae576040517f08c379a00000000000000000000000000000000000000000000000000000000081526004016104ec9061328c565b60006106b8611e7e565b73ffffffffffffffffffffffffffffffffffffffff166352a664d93385856040518463ffffffff1660e01b81526004016106f493929190612f34565b602060405180830381600087803b15801561070e57600080fd5b505af1158015610722573d6000803e3d6000fd5b505050506040513d601f19601f820116820180604052508101906107469190612e20565b9050801561083957610756611e7e565b73ffffffffffffffffffffffffffffffffffffffff1663b25777ad3385846040518463ffffffff1660e01b815260040161079293929190612f34565b600060405180830381600087803b1580156107ac57600080fd5b505af11580156107c0573d6000803e3d6000fd5b505050506107cc611ed6565b73ffffffffffffffffffffffffffffffffffffffff16632a6a897b84836040518363ffffffff1660e01b8152600401610806929190612f65565b600060405180830381600087803b15801561082057600080fd5b505af1158015610834573d6000803e3d6000fd5b505050505b505050565b600881565b33321461087c576040517f08c379a00000000000000000000000000000000000000000000000000000000081526004016104ec90612ff0565b610884611e7e565b6002546040517fd0eb665300000000000000000000000000000000000000000000000000000000815273ffffffffffffffffffffffffffffffffffffffff9283169263d0eb6653926108e0923392909116908690600401612f34565b600060405180830381600087803b1580156108fa57600080fd5b505af115801561090e573d6000803e3d6000fd5b5050505061091a611dd1565b73ffffffffffffffffffffffffffffffffffffffff16634782f77933836040518363ffffffff1660e01b8152600401610954929190612f65565b600060405180830381600087803b15801561096e57600080fd5b505af1158015610982573d6000803e3d6000fd5b5050505050565b606061099433611a0e565b6109ca576040517f08c379a00000000000000000000000000000000000000000000000000000000081526004016104ec9061304d565b61059d60016000886003811115610a0a577f4e487b7100000000000000000000000000000000000000000000000000000000600052602160045260246000fd5b6003811115610a42577f4e487b7100000000000000000000000000000000000000000000000000000000600052602160045260246000fd5b815260208101919091526040016000205473ffffffffffffffffffffffffffffffffffffffff1686868686611f2e565b6060333214610aad576040517f08c379a00000000000000000000000000000000000000000000000000000000081526004016104ec90612ff0565b8142811015610ae8576040517f08c379a00000000000000000000000000000000000000000000000000000000081526004016104ec906130aa565b6000610af2611feb565b73ffffffffffffffffffffffffffffffffffffffff166367cbf42d8787610b1a6001826135d2565b818110610b50577f4e487b7100000000000000000000000000000000000000000000000000000000600052603260045260246000fd5b9050602002016020810190610b659190612c04565b8a6040518363ffffffff1660e01b8152600401610b83929190612f65565b602060405180830381600087803b158015610b9d57600080fd5b505af1158015610bb1573d6000803e3d6000fd5b505050506040513d601f19601f82011682018060405250810190610bd59190612e20565b9050610c88600160008b6003811115610c17577f4e487b7100000000000000000000000000000000000000000000000000000000600052602160045260246000fd5b6003811115610c4f577f4e487b7100000000000000000000000000000000000000000000000000000000600052602160045260246000fd5b815260208101919091526040016000205473ffffffffffffffffffffffffffffffffffffffff16610c80838b613544565b898989611f2e565b925060008686610c996001826135d2565b818110610ccf577f4e487b7100000000000000000000000000000000000000000000000000000000600052603260045260246000fd5b9050602002016020810190610ce49190612c04565b90506000610cf0611e7e565b73ffffffffffffffffffffffffffffffffffffffff16633500aa0b338a8a6000818110610d46577f4e487b7100000000000000000000000000000000000000000000000000000000600052603260045260246000fd5b9050602002016020810190610d5b9190612c04565b8589600081518110610d96577f4e487b7100000000000000000000000000000000000000000000000000000000600052603260045260246000fd5b60200260200101518f6040518663ffffffff1660e01b8152600401610dbf959493929190612ef3565b602060405180830381600087803b158015610dd957600080fd5b505af1158015610ded573d6000803e3d6000fd5b505050506040513d601f19601f82011682018060405250810190610e119190612e20565b9050610e1b611ed6565b73ffffffffffffffffffffffffffffffffffffffff1663ee0862bf83836040518363ffffffff1660e01b8152600401610e55929190612f65565b600060405180830381600087803b158015610e6f57600080fd5b505af1158015610e83573d6000803e3d6000fd5b50505050505050509695505050505050565b606981565b606781565b60005473ffffffffffffffffffffffffffffffffffffffff1681565b600681565b333214610ef9576040517f08c379a00000000000000000000000000000000000000000000000000000000081526004016104ec90612ff0565b610f01611e7e565b73ffffffffffffffffffffffffffffffffffffffff1663b25777ad3384846040518463ffffffff1660e01b8152600401610f3d93929190612f34565b600060405180830381600087803b158015610f5757600080fd5b505af1158015610f6b573d6000803e3d6000fd5b50505050610f77611ed6565b73ffffffffffffffffffffffffffffffffffffffff16632a6a897b83836040518363ffffffff1660e01b8152600401610fb1929190612f65565b600060405180830381600087803b158015610fcb57600080fd5b505af1158015610fdf573d6000803e3d6000fd5b505050505050565b606681565b606581565b600181565b606a81565b600981565b6060600060016000876003811115611041577f4e487b7100000000000000000000000000000000000000000000000000000000600052602160045260246000fd5b6003811115611079577f4e487b7100000000000000000000000000000000000000000000000000000000600052602160045260246000fd5b815260200190815260200160002060009054906101000a900473ffffffffffffffffffffffffffffffffffffffff1690506110e8818686868080602002602001604051908101604052809392919081815260200183836020028082843760009201919091525061204392505050565b9695505050505050565b33321461112b576040517f08c379a00000000000000000000000000000000000000000000000000000000081526004016104ec90612ff0565b611133611dd1565b73ffffffffffffffffffffffffffffffffffffffff1663a6a5f9fe346040518263ffffffff1660e01b81526004016000604051808303818588803b15801561117a57600080fd5b505af115801561118e573d6000803e3d6000fd5b5050505050600061119d611e7e565b6002546040517f52a664d900000000000000000000000000000000000000000000000000000000815273ffffffffffffffffffffffffffffffffffffffff928316926352a664d9926111f9923392909116903490600401612f34565b602060405180830381600087803b15801561121357600080fd5b505af1158015611227573d6000803e3d6000fd5b505050506040513d601f19601f8201168201806040525081019061124b9190612e20565b9050801561134a5761125b611e7e565b6002546040517fb25777ad00000000000000000000000000000000000000000000000000000000815273ffffffffffffffffffffffffffffffffffffffff9283169263b25777ad926112b7923392909116908690600401612f34565b600060405180830381600087803b1580156112d157600080fd5b505af11580156112e5573d6000803e3d6000fd5b505050506112f1611ed6565b6002546040517f2a6a897b00000000000000000000000000000000000000000000000000000000815273ffffffffffffffffffffffffffffffffffffffff92831692632a6a897b92610954929116908590600401612f65565b50565b600281565b606033321461138d576040517f08c379a00000000000000000000000000000000000000000000000000000000081526004016104ec90612ff0565b81428110156113c8576040517f08c379a00000000000000000000000000000000000000000000000000000000081526004016104ec906130aa565b60006113d2611feb565b73ffffffffffffffffffffffffffffffffffffffff16633f0e9edf87876000818110611427577f4e487b7100000000000000000000000000000000000000000000000000000000600052603260045260246000fd5b905060200201602081019061143c9190612c04565b8a6040518363ffffffff1660e01b815260040161145a929190612f65565b602060405180830381600087803b15801561147457600080fd5b505af1158015611488573d6000803e3d6000fd5b505050506040513d601f19601f820116820180604052508101906114ac9190612e20565b905061155f600160008b60038111156114ee577f4e487b7100000000000000000000000000000000000000000000000000000000600052602160045260246000fd5b6003811115611526577f4e487b7100000000000000000000000000000000000000000000000000000000600052602160045260246000fd5b815260208101919091526040016000205473ffffffffffffffffffffffffffffffffffffffff16611557838b6135d2565b898989611ac0565b9250600086866115706001826135d2565b8181106115a6577f4e487b7100000000000000000000000000000000000000000000000000000000600052603260045260246000fd5b90506020020160208101906115bb9190612c04565b905060006115c7611e7e565b73ffffffffffffffffffffffffffffffffffffffff16633500aa0b338a8a600081811061161d577f4e487b7100000000000000000000000000000000000000000000000000000000600052603260045260246000fd5b90506020020160208101906116329190612c04565b858e8a60018c5161164391906135d2565b8151811061167a577f4e487b7100000000000000000000000000000000000000000000000000000000600052603260045260246000fd5b60200260200101516040518663ffffffff1660e01b8152600401610dbf959493929190612ef3565b600581565b606881565b600481565b600781565b3332146116ef576040517f08c379a00000000000000000000000000000000000000000000000000000000081526004016104ec90612ff0565b6116f7611e7e565b73ffffffffffffffffffffffffffffffffffffffff1663d0eb66533384846040518463ffffffff1660e01b815260040161173393929190612f34565b600060405180830381600087803b15801561174d57600080fd5b505af1158015611761573d6000803e3d6000fd5b5050505061176d611dd1565b73ffffffffffffffffffffffffffffffffffffffff1663d9caed128333846040518463ffffffff1660e01b81526004016117a993929190612f34565b602060405180830381600087803b1580156117c357600080fd5b505af11580156117d7573d6000803e3d6000fd5b505050506040513d601f19601f820116820180604052508101906117fb9190612c6e565b611831576040517f08c379a00000000000000000000000000000000000000000000000000000000081526004016104ec906132e9565b5050565b6060600060016000876003811115611876577f4e487b7100000000000000000000000000000000000000000000000000000000600052602160045260246000fd5b60038111156118ae577f4e487b7100000000000000000000000000000000000000000000000000000000600052602160045260246000fd5b815260200190815260200160002060009054906101000a900473ffffffffffffffffffffffffffffffffffffffff1690506110e881868686808060200260200160405190810160405280939291908181526020018383602002808284376000920191909152506122ad92505050565b333214611956576040517f08c379a00000000000000000000000000000000000000000000000000000000081526004016104ec90612ff0565b61195e611ed6565b73ffffffffffffffffffffffffffffffffffffffff1663ee0862bf83836040518363ffffffff1660e01b8152600401611998929190612f65565b600060405180830381600087803b1580156119b257600080fd5b505af11580156119c6573d6000803e3d6000fd5b505050506119d2611e7e565b73ffffffffffffffffffffffffffffffffffffffff1663498d55eb3384846040518463ffffffff1660e01b8152600401610fb193929190612f34565b600080546040517fd87fefd200000000000000000000000000000000000000000000000000000000815273ffffffffffffffffffffffffffffffffffffffff9091169063d87fefd290611a6890600790869060040161347d565b60206040518083038186803b158015611a8057600080fd5b505afa158015611a94573d6000803e3d6000fd5b505050506040513d601f19601f82011682018060405250810190611ab89190612c6e565b90505b919050565b6060611b0086868585808060200260200160405190810160405280939291908181526020018383602002808284376000920191909152506122ad92505050565b9050838160018351611b1291906135d2565b81518110611b49577f4e487b7100000000000000000000000000000000000000000000000000000000600052603260045260246000fd5b60200260200101511015611b89576040517f08c379a00000000000000000000000000000000000000000000000000000000081526004016104ec90613411565b611b91611dd1565b73ffffffffffffffffffffffffffffffffffffffff1663d9caed1284846000818110611be6577f4e487b7100000000000000000000000000000000000000000000000000000000600052603260045260246000fd5b9050602002016020810190611bfb9190612c04565b611ca28987876000818110611c39577f4e487b7100000000000000000000000000000000000000000000000000000000600052603260045260246000fd5b9050602002016020810190611c4e9190612c04565b88886001818110611c88577f4e487b7100000000000000000000000000000000000000000000000000000000600052603260045260246000fd5b9050602002016020810190611c9d9190612c04565b6124f7565b84600081518110611cdc577f4e487b7100000000000000000000000000000000000000000000000000000000600052603260045260246000fd5b60200260200101516040518463ffffffff1660e01b8152600401611d0293929190612f34565b602060405180830381600087803b158015611d1c57600080fd5b505af1158015611d30573d6000803e3d6000fd5b505050506040513d601f19601f82011682018060405250810190611d549190612c6e565b611d8a576040517f08c379a00000000000000000000000000000000000000000000000000000000081526004016104ec9061319b565b6105a08682858580806020026020016040519081016040528093929190818152602001838360200280828437600092019190915250611dcc9250611dd1915050565b612569565b600080546040517f3c9c8f9c00000000000000000000000000000000000000000000000000000000815273ffffffffffffffffffffffffffffffffffffffff90911690633c9c8f9c90611e299060659060040161346e565b60206040518083038186803b158015611e4157600080fd5b505afa158015611e55573d6000803e3d6000fd5b505050506040513d601f19601f82011682018060405250810190611e799190612c27565b905090565b600080546040517f3c9c8f9c00000000000000000000000000000000000000000000000000000000815273ffffffffffffffffffffffffffffffffffffffff90911690633c9c8f9c90611e299060689060040161346e565b600080546040517f3c9c8f9c00000000000000000000000000000000000000000000000000000000815273ffffffffffffffffffffffffffffffffffffffff90911690633c9c8f9c90611e299060669060040161346e565b6060611f6e868685858080602002602001604051908101604052809392919081815260200183836020028082843760009201919091525061204392505050565b90508381600081518110611fab577f4e487b7100000000000000000000000000000000000000000000000000000000600052603260045260246000fd5b60200260200101511115611b89576040517f08c379a00000000000000000000000000000000000000000000000000000000081526004016104ec90613320565b600080546040517f3c9c8f9c00000000000000000000000000000000000000000000000000000000815273ffffffffffffffffffffffffffffffffffffffff90911690633c9c8f9c90611e299060699060040161346e565b6060600282511015612081576040517f08c379a00000000000000000000000000000000000000000000000000000000081526004016104ec906131f8565b815167ffffffffffffffff8111156120c2577f4e487b7100000000000000000000000000000000000000000000000000000000600052604160045260246000fd5b6040519080825280602002602001820160405280156120eb578160200160208202803683370190505b5090508281600183516120fe91906135d2565b81518110612135577f4e487b7100000000000000000000000000000000000000000000000000000000600052603260045260246000fd5b60200260200101818152505060006001835161215191906135d2565b90505b80156122a5576000806121f2878661216d6001876135d2565b815181106121a4577f4e487b7100000000000000000000000000000000000000000000000000000000600052603260045260246000fd5b60200260200101518786815181106121e5577f4e487b7100000000000000000000000000000000000000000000000000000000600052603260045260246000fd5b60200260200101516127ee565b91509150612241848481518110612232577f4e487b7100000000000000000000000000000000000000000000000000000000600052603260045260246000fd5b602002602001015183836128fc565b8461224d6001866135d2565b81518110612284577f4e487b7100000000000000000000000000000000000000000000000000000000600052603260045260246000fd5b6020026020010181815250505050808061229d906135e9565b915050612154565b509392505050565b60606002825110156122eb576040517f08c379a00000000000000000000000000000000000000000000000000000000081526004016104ec906131f8565b815167ffffffffffffffff81111561232c577f4e487b7100000000000000000000000000000000000000000000000000000000600052604160045260246000fd5b604051908082528060200260200182016040528015612355578160200160208202803683370190505b5090508281600081518110612393577f4e487b7100000000000000000000000000000000000000000000000000000000600052603260045260246000fd5b60200260200101818152505060005b600183516123b091906135d2565b8110156122a557600080612444878685815181106123f7577f4e487b7100000000000000000000000000000000000000000000000000000000600052603260045260246000fd5b60200260200101518786600161240d9190613544565b815181106121e5577f4e487b7100000000000000000000000000000000000000000000000000000000600052603260045260246000fd5b91509150612493848481518110612484577f4e487b7100000000000000000000000000000000000000000000000000000000600052603260045260246000fd5b602002602001015183836129c7565b8461249f856001613544565b815181106124d6577f4e487b7100000000000000000000000000000000000000000000000000000000600052603260045260246000fd5b602002602001018181525050505080806124ef9061361e565b9150506123a2565b60008060006125068585612a96565b9150915085828260405160200161251e929190612e38565b60405160208183030381529060405280519060200120604051602001612545929190612e72565b6040516020818303038152906040528051906020012060601c925050509392505050565b60005b6001835161257a91906135d2565b811015610982576000808483815181106125bd577f4e487b7100000000000000000000000000000000000000000000000000000000600052603260045260246000fd5b6020026020010151858460016125d39190613544565b8151811061260a577f4e487b7100000000000000000000000000000000000000000000000000000000600052603260045260246000fd5b60200260200101519150915060006126228383612a96565b509050600087612633866001613544565b8151811061266a577f4e487b7100000000000000000000000000000000000000000000000000000000600052603260045260246000fd5b602002602001015190506000808373ffffffffffffffffffffffffffffffffffffffff168673ffffffffffffffffffffffffffffffffffffffff16146126b2578260006126b6565b6000835b91509150600060028a516126ca91906135d2565b88106126d6578861272b565b61272b8c878c6126e78c6002613544565b8151811061271e577f4e487b7100000000000000000000000000000000000000000000000000000000600052603260045260246000fd5b60200260200101516124f7565b90506127388c88886124f7565b73ffffffffffffffffffffffffffffffffffffffff1663022c0d9f84848460006040519080825280601f01601f191660200182016040528015612782576020820181803683370190505b506040518563ffffffff1660e01b81526004016127a294939291906134a7565b600060405180830381600087803b1580156127bc57600080fd5b505af11580156127d0573d6000803e3d6000fd5b505050505050505050505080806127e69061361e565b91505061256c565b60008060006127fd8585612a96565b50905060008061280e8888886124f7565b73ffffffffffffffffffffffffffffffffffffffff16630902f1ac6040518163ffffffff1660e01b815260040160606040518083038186803b15801561285357600080fd5b505afa158015612867573d6000803e3d6000fd5b505050506040513d601f19601f8201168201806040525081019061288b9190612dba565b506dffffffffffffffffffffffffffff1691506dffffffffffffffffffffffffffff1691508273ffffffffffffffffffffffffffffffffffffffff168773ffffffffffffffffffffffffffffffffffffffff16146128ea5780826128ed565b81815b90999098509650505050505050565b6000808411612937576040517f08c379a00000000000000000000000000000000000000000000000000000000081526004016104ec906130e1565b6000831180156129475750600082115b61297d576040517f08c379a00000000000000000000000000000000000000000000000000000000081526004016104ec9061322f565b60006129898585613595565b612995906103e8613595565b905060006103e56129a687866135d2565b6129b091906135d2565b90506129bc818361355c565b6110e8906001613544565b6000808411612a02576040517f08c379a00000000000000000000000000000000000000000000000000000000081526004016104ec906133b4565b600083118015612a125750600082115b612a48576040517f08c379a00000000000000000000000000000000000000000000000000000000081526004016104ec9061322f565b6000612a56856103e5613595565b90506000612a648483613595565b9050600082612a75876103e8613595565b612a7f9190613544565b9050612a8b818361355c565b979650505050505050565b6000808273ffffffffffffffffffffffffffffffffffffffff168473ffffffffffffffffffffffffffffffffffffffff161415612aff576040517f08c379a00000000000000000000000000000000000000000000000000000000081526004016104ec9061313e565b8273ffffffffffffffffffffffffffffffffffffffff168473ffffffffffffffffffffffffffffffffffffffff1610612b39578284612b3c565b83835b909250905073ffffffffffffffffffffffffffffffffffffffff8216612b8e576040517f08c379a00000000000000000000000000000000000000000000000000000000081526004016104ec9061337d565b9250929050565b60008083601f840112612ba6578182fd5b50813567ffffffffffffffff811115612bbd578182fd5b6020830191508360208083028501011115612b8e57600080fd5b803560048110611abb57600080fd5b80516dffffffffffffffffffffffffffff81168114611abb57600080fd5b600060208284031215612c15578081fd5b8135612c2081613686565b9392505050565b600060208284031215612c38578081fd5b8151612c2081613686565b60008060408385031215612c55578081fd5b8235612c6081613686565b946020939093013593505050565b600060208284031215612c7f578081fd5b81518015158114612c20578182fd5b60008060008060608587031215612ca3578182fd5b612cac85612bd7565b935060208501359250604085013567ffffffffffffffff811115612cce578283fd5b612cda87828801612b95565b95989497509550505050565b600080600080600060808688031215612cfd578081fd5b612d0686612bd7565b94506020860135935060408601359250606086013567ffffffffffffffff811115612d2f578182fd5b612d3b88828901612b95565b969995985093965092949392505050565b60008060008060008060a08789031215612d64578081fd5b612d6d87612bd7565b95506020870135945060408701359350606087013567ffffffffffffffff811115612d96578182fd5b612da289828a01612b95565b979a9699509497949695608090950135949350505050565b600080600060608486031215612dce578283fd5b612dd784612be6565b9250612de560208501612be6565b9150604084015163ffffffff81168114612dfd578182fd5b809150509250925092565b600060208284031215612e19578081fd5b5035919050565b600060208284031215612e31578081fd5b5051919050565b7fffffffffffffffffffffffffffffffffffffffff000000000000000000000000606093841b811682529190921b16601482015260280190565b7fff00000000000000000000000000000000000000000000000000000000000000815260609290921b7fffffffffffffffffffffffffffffffffffffffff00000000000000000000000016600183015260158201527f96e8ac4277198ff8b6f785478aa9a39f403cb768dd02cbee326c3e7da348845f603582015260550190565b73ffffffffffffffffffffffffffffffffffffffff958616815293851660208501529190931660408301526060820192909252608081019190915260a00190565b73ffffffffffffffffffffffffffffffffffffffff9384168152919092166020820152604081019190915260600190565b73ffffffffffffffffffffffffffffffffffffffff929092168252602082015260400190565b6020808252825182820181905260009190848201906040850190845b81811015612fc357835183529284019291840191600101612fa7565b50909695505050505050565b73ffffffffffffffffffffffffffffffffffffffff91909116815260200190565b6020808252603a908201527f43757272656e746c79206e6f20696e7465726d656469617269657320616c6c6f60408201527f77656420666f7220746869732066756e6374696f6e2063616c6c000000000000606082015260800190565b6020808252603e908201527f43616c6c696e6720636f6e7472616374206973206e6f7420617574686f72697a60408201527f656420746f20747261646520776974682070726f746f636c2066756e64730000606082015260800190565b60208082526018908201527f556e69737761705632526f757465723a20455850495245440000000000000000604082015260600190565b6020808252602c908201527f556e697377617056324c6962726172793a20494e53554646494349454e545f4f60408201527f55545055545f414d4f554e540000000000000000000000000000000000000000606082015260800190565b60208082526025908201527f556e697377617056324c6962726172793a204944454e544943414c5f4144445260408201527f4553534553000000000000000000000000000000000000000000000000000000606082015260800190565b60208082526028908201527f4d617267696e526f757465723a20496e73756666696369656e74206c656e646960408201527f6e672066756e6473000000000000000000000000000000000000000000000000606082015260800190565b6020808252601e908201527f556e697377617056324c6962726172793a20494e56414c49445f504154480000604082015260600190565b60208082526028908201527f556e697377617056324c6962726172793a20494e53554646494349454e545f4c60408201527f4951554944495459000000000000000000000000000000000000000000000000606082015260800190565b60208082526029908201527f43616e6e6f74207472616e73666572206465706f73697420746f206d6172676960408201527f6e206163636f756e740000000000000000000000000000000000000000000000606082015260800190565b6020808252601c908201527f436f756c64206e6f742077697468647261772066726f6d2066756e6400000000604082015260600190565b60208082526027908201527f556e69737761705632526f757465723a204558434553534956455f494e50555460408201527f5f414d4f554e5400000000000000000000000000000000000000000000000000606082015260800190565b6020808252601e908201527f556e697377617056324c6962726172793a205a45524f5f414444524553530000604082015260600190565b6020808252602b908201527f556e697377617056324c6962726172793a20494e53554646494349454e545f4960408201527f4e5055545f414d4f554e54000000000000000000000000000000000000000000606082015260800190565b60208082526028908201527f4d617267696e526f757465723a20494e53554646494349454e545f4f5554505560408201527f545f414d4f554e54000000000000000000000000000000000000000000000000606082015260800190565b61ffff91909116815260200190565b61ffff92909216825273ffffffffffffffffffffffffffffffffffffffff16602082015260400190565b60008582526020858184015273ffffffffffffffffffffffffffffffffffffffff85166040840152608060608401528351806080850152825b818110156134fc5785810183015185820160a0015282016134e0565b8181111561350d578360a083870101525b50601f017fffffffffffffffffffffffffffffffffffffffffffffffffffffffffffffffe0169290920160a0019695505050505050565b6000821982111561355757613557613657565b500190565b600082613590577f4e487b710000000000000000000000000000000000000000000000000000000081526012600452602481fd5b500490565b6000817fffffffffffffffffffffffffffffffffffffffffffffffffffffffffffffffff04831182151516156135cd576135cd613657565b500290565b6000828210156135e4576135e4613657565b500390565b6000816135f8576135f8613657565b507fffffffffffffffffffffffffffffffffffffffffffffffffffffffffffffffff0190565b60007fffffffffffffffffffffffffffffffffffffffffffffffffffffffffffffffff82141561365057613650613657565b5060010190565b7f4e487b7100000000000000000000000000000000000000000000000000000000600052601160045260246000fd5b73ffffffffffffffffffffffffffffffffffffffff8116811461134a57600080fdfea26469706673582212203a468d3eaf29d38d13f2697809f812e0b53c01d1e2fb88e4f40254b6d98d854a64736f6c63430008010033",
  "linkReferences": {},
  "deployedLinkReferences": {}
}