{
  "_format": "hh-sol-artifact-1",
  "contractName": "MarginRouter",
  "sourceName": "contracts/MarginRouter.sol",
  "abi": [
    {
      "inputs": [
        {
          "internalType": "address",
          "name": "uniswapFactory",
          "type": "address"
        },
        {
          "internalType": "address",
          "name": "sushiswapFactory",
          "type": "address"
        },
        {
          "internalType": "address",
          "name": "_WETH",
          "type": "address"
        },
        {
          "internalType": "address",
          "name": "_roles",
          "type": "address"
        }
      ],
      "stateMutability": "nonpayable",
      "type": "constructor"
    },
    {
      "inputs": [
        {
          "internalType": "address",
          "name": "borrowToken",
          "type": "address"
        },
        {
          "internalType": "uint256",
          "name": "borrowAmount",
          "type": "uint256"
        }
      ],
      "name": "crossBorrow",
      "outputs": [],
      "stateMutability": "nonpayable",
      "type": "function"
    },
    {
      "inputs": [
        {
          "internalType": "address",
          "name": "depositToken",
          "type": "address"
        },
        {
          "internalType": "uint256",
          "name": "depositAmount",
          "type": "uint256"
        }
      ],
      "name": "crossDeposit",
      "outputs": [],
      "stateMutability": "nonpayable",
      "type": "function"
    },
    {
      "inputs": [],
      "name": "crossDepositETH",
      "outputs": [],
      "stateMutability": "payable",
      "type": "function"
    },
    {
      "inputs": [
        {
          "internalType": "address",
          "name": "debtToken",
          "type": "address"
        },
        {
          "internalType": "uint256",
          "name": "extinguishAmount",
          "type": "uint256"
        }
      ],
      "name": "crossExtinguishDebt",
      "outputs": [],
      "stateMutability": "nonpayable",
      "type": "function"
    },
    {
      "inputs": [
        {
          "internalType": "enum AMM",
          "name": "amm",
          "type": "uint8"
        },
        {
          "internalType": "uint256",
          "name": "amountIn",
          "type": "uint256"
        },
        {
          "internalType": "uint256",
          "name": "amountOutMin",
          "type": "uint256"
        },
        {
          "internalType": "address[]",
          "name": "path",
          "type": "address[]"
        },
        {
          "internalType": "uint256",
          "name": "deadline",
          "type": "uint256"
        }
      ],
      "name": "crossSwapExactTokensForTokens",
      "outputs": [
        {
          "internalType": "uint256[]",
          "name": "amounts",
          "type": "uint256[]"
        }
      ],
      "stateMutability": "nonpayable",
      "type": "function"
    },
    {
      "inputs": [
        {
          "internalType": "enum AMM",
          "name": "amm",
          "type": "uint8"
        },
        {
          "internalType": "uint256",
          "name": "amountOut",
          "type": "uint256"
        },
        {
          "internalType": "uint256",
          "name": "amountInMax",
          "type": "uint256"
        },
        {
          "internalType": "address[]",
          "name": "path",
          "type": "address[]"
        },
        {
          "internalType": "uint256",
          "name": "deadline",
          "type": "uint256"
        }
      ],
      "name": "crossSwapTokensForExactTokens",
      "outputs": [
        {
          "internalType": "uint256[]",
          "name": "amounts",
          "type": "uint256[]"
        }
      ],
      "stateMutability": "nonpayable",
      "type": "function"
    },
    {
      "inputs": [
        {
          "internalType": "address",
          "name": "withdrawToken",
          "type": "address"
        },
        {
          "internalType": "uint256",
          "name": "withdrawAmount",
          "type": "uint256"
        }
      ],
      "name": "crossWithdraw",
      "outputs": [],
      "stateMutability": "nonpayable",
      "type": "function"
    },
    {
      "inputs": [
        {
          "internalType": "uint256",
          "name": "withdrawAmount",
          "type": "uint256"
        }
      ],
      "name": "crossWithdrawETH",
      "outputs": [],
      "stateMutability": "nonpayable",
      "type": "function"
    },
    {
      "inputs": [
        {
          "internalType": "enum AMM",
          "name": "amm",
          "type": "uint8"
        },
        {
          "internalType": "uint256",
          "name": "outAmount",
          "type": "uint256"
        },
        {
          "internalType": "address[]",
          "name": "path",
          "type": "address[]"
        }
      ],
      "name": "getAmountsIn",
      "outputs": [
        {
          "internalType": "uint256[]",
          "name": "",
          "type": "uint256[]"
        }
      ],
      "stateMutability": "view",
      "type": "function"
    },
    {
      "inputs": [
        {
          "internalType": "enum AMM",
          "name": "amm",
          "type": "uint8"
        },
        {
          "internalType": "uint256",
          "name": "inAmount",
          "type": "uint256"
        },
        {
          "internalType": "address[]",
          "name": "path",
          "type": "address[]"
        }
      ],
      "name": "getAmountsOut",
      "outputs": [
        {
          "internalType": "uint256[]",
          "name": "",
          "type": "uint256[]"
        }
      ],
      "stateMutability": "view",
      "type": "function"
    },
    {
      "inputs": [],
      "name": "roles",
      "outputs": [
        {
          "internalType": "contract Roles",
          "name": "",
          "type": "address"
        }
      ],
      "stateMutability": "view",
      "type": "function"
    }
  ],
  "bytecode": "0x60806040523480156200001157600080fd5b50604051620038af380380620038af833981810160405260808110156200003757600080fd5b810190808051906020019092919080519060200190929190805190602001909291908051906020019092919050505080806000806101000a81548173ffffffffffffffffffffffffffffffffffffffff021916908373ffffffffffffffffffffffffffffffffffffffff160217905550508360016000806003811115620000ba57fe5b6003811115620000c657fe5b815260200190815260200160002060006101000a81548173ffffffffffffffffffffffffffffffffffffffff021916908373ffffffffffffffffffffffffffffffffffffffff1602179055508260016000600160038111156200012557fe5b60038111156200013157fe5b815260200190815260200160002060006101000a81548173ffffffffffffffffffffffffffffffffffffffff021916908373ffffffffffffffffffffffffffffffffffffffff16021790555081600260006101000a81548173ffffffffffffffffffffffffffffffffffffffff021916908373ffffffffffffffffffffffffffffffffffffffff160217905550505050506136dd80620001d26000396000f3fe60806040526004361061009c5760003560e01c806390b931ed1161006457806390b931ed146102d957806394427b20146103cb578063a5f9a362146103d5578063e3e0626b146104db578063eaa095f814610536578063eedb97c7146106285761009c565b80631306d902146100a15780631dce3baa146100fc5780632233c43614610137578063392f5f641461023d57806348eb4f3e1461027e575b600080fd5b3480156100ad57600080fd5b506100fa600480360360408110156100c457600080fd5b81019080803573ffffffffffffffffffffffffffffffffffffffff16906020019092919080359060200190929190505050610683565b005b34801561010857600080fd5b506101356004803603602081101561011f57600080fd5b8101908080359060200190929190505050610a4f565b005b34801561014357600080fd5b506101e6600480360360a081101561015a57600080fd5b81019080803560ff16906020019092919080359060200190929190803590602001909291908035906020019064010000000081111561019857600080fd5b8201836020820111156101aa57600080fd5b803590602001918460208302840111640100000000831117156101cc57600080fd5b909192939192939080359060200190929190505050610c36565b6040518080602001828103825283818151815260200191508051906020019060200280838360005b8381101561022957808201518184015260208101905061020e565b505050509050019250505060405180910390f35b34801561024957600080fd5b5061025261100a565b604051808273ffffffffffffffffffffffffffffffffffffffff16815260200191505060405180910390f35b34801561028a57600080fd5b506102d7600480360360408110156102a157600080fd5b81019080803573ffffffffffffffffffffffffffffffffffffffff1690602001909291908035906020019092919050505061102e565b005b3480156102e557600080fd5b50610374600480360360608110156102fc57600080fd5b81019080803560ff169060200190929190803590602001909291908035906020019064010000000081111561033057600080fd5b82018360208201111561034257600080fd5b8035906020019184602083028401116401000000008311171561036457600080fd5b90919293919293905050506111f4565b6040518080602001828103825283818151815260200191508051906020019060200280838360005b838110156103b757808201518184015260208101905061039c565b505050509050019250505060405180910390f35b6103d361129b565b005b3480156103e157600080fd5b50610484600480360360a08110156103f857600080fd5b81019080803560ff16906020019092919080359060200190929190803590602001909291908035906020019064010000000081111561043657600080fd5b82018360208201111561044857600080fd5b8035906020019184602083028401116401000000008311171561046a57600080fd5b90919293919293908035906020019092919050505061160d565b6040518080602001828103825283818151815260200191508051906020019060200280838360005b838110156104c75780820151818401526020810190506104ac565b505050509050019250505060405180910390f35b3480156104e757600080fd5b50610534600480360360408110156104fe57600080fd5b81019080803573ffffffffffffffffffffffffffffffffffffffff169060200190929190803590602001909291905050506119df565b005b34801561054257600080fd5b506105d16004803603606081101561055957600080fd5b81019080803560ff169060200190929190803590602001909291908035906020019064010000000081111561058d57600080fd5b82018360208201111561059f57600080fd5b803590602001918460208302840111640100000000831117156105c157600080fd5b9091929391929390505050611c58565b6040518080602001828103825283818151815260200191508051906020019060200280838360005b838110156106145780820151818401526020810190506105f9565b505050509050019250505060405180910390f35b34801561063457600080fd5b506106816004803603604081101561064b57600080fd5b81019080803573ffffffffffffffffffffffffffffffffffffffff16906020019092919080359060200190929190505050611cff565b005b3273ffffffffffffffffffffffffffffffffffffffff163373ffffffffffffffffffffffffffffffffffffffff1614610707576040517f08c379a000000000000000000000000000000000000000000000000000000000815260040180806020018281038252603a815260200180613509603a913960400191505060405180910390fd5b61070f611ec5565b73ffffffffffffffffffffffffffffffffffffffff1663b3db428b3384846040518463ffffffff1660e01b8152600401808473ffffffffffffffffffffffffffffffffffffffff1681526020018373ffffffffffffffffffffffffffffffffffffffff1681526020018281526020019350505050602060405180830381600087803b15801561079d57600080fd5b505af11580156107b1573d6000803e3d6000fd5b505050506040513d60208110156107c757600080fd5b810190808051906020019092919050505061082d576040517f08c379a00000000000000000000000000000000000000000000000000000000081526004018080602001828103825260298152602001806136056029913960400191505060405180910390fd5b6000610837611f85565b73ffffffffffffffffffffffffffffffffffffffff166352a664d93385856040518463ffffffff1660e01b8152600401808473ffffffffffffffffffffffffffffffffffffffff1681526020018373ffffffffffffffffffffffffffffffffffffffff1681526020018281526020019350505050602060405180830381600087803b1580156108c557600080fd5b505af11580156108d9573d6000803e3d6000fd5b505050506040513d60208110156108ef57600080fd5b810190808051906020019092919050505090506000811115610a4a57610913611f85565b73ffffffffffffffffffffffffffffffffffffffff1663b25777ad3385846040518463ffffffff1660e01b8152600401808473ffffffffffffffffffffffffffffffffffffffff1681526020018373ffffffffffffffffffffffffffffffffffffffff1681526020018281526020019350505050600060405180830381600087803b1580156109a157600080fd5b505af11580156109b5573d6000803e3d6000fd5b505050506109c1612045565b73ffffffffffffffffffffffffffffffffffffffff16632a6a897b84836040518363ffffffff1660e01b8152600401808373ffffffffffffffffffffffffffffffffffffffff16815260200182815260200192505050600060405180830381600087803b158015610a3157600080fd5b505af1158015610a45573d6000803e3d6000fd5b505050505b505050565b3273ffffffffffffffffffffffffffffffffffffffff163373ffffffffffffffffffffffffffffffffffffffff1614610ad3576040517f08c379a000000000000000000000000000000000000000000000000000000000815260040180806020018281038252603a815260200180613509603a913960400191505060405180910390fd5b610adb611f85565b73ffffffffffffffffffffffffffffffffffffffff1663d0eb665333600260009054906101000a900473ffffffffffffffffffffffffffffffffffffffff16846040518463ffffffff1660e01b8152600401808473ffffffffffffffffffffffffffffffffffffffff1681526020018373ffffffffffffffffffffffffffffffffffffffff1681526020018281526020019350505050600060405180830381600087803b158015610b8b57600080fd5b505af1158015610b9f573d6000803e3d6000fd5b50505050610bab611ec5565b73ffffffffffffffffffffffffffffffffffffffff16634782f77933836040518363ffffffff1660e01b8152600401808373ffffffffffffffffffffffffffffffffffffffff16815260200182815260200192505050600060405180830381600087803b158015610c1b57600080fd5b505af1158015610c2f573d6000803e3d6000fd5b5050505050565b60603273ffffffffffffffffffffffffffffffffffffffff163373ffffffffffffffffffffffffffffffffffffffff1614610cbc576040517f08c379a000000000000000000000000000000000000000000000000000000000815260040180806020018281038252603a815260200180613509603a913960400191505060405180910390fd5b6000610cc6612105565b73ffffffffffffffffffffffffffffffffffffffff166367cbf42d868660018989905003818110610cf357fe5b9050602002013573ffffffffffffffffffffffffffffffffffffffff16896040518363ffffffff1660e01b8152600401808373ffffffffffffffffffffffffffffffffffffffff16815260200182815260200192505050602060405180830381600087803b158015610d6457600080fd5b505af1158015610d78573d6000803e3d6000fd5b505050506040513d6020811015610d8e57600080fd5b810190808051906020019092919050505090506000600160008a6003811115610db357fe5b6003811115610dbe57fe5b815260200190815260200160002060009054906101000a900473ffffffffffffffffffffffffffffffffffffffff169050610dff81838a01898989896121c5565b92506000868660018989905003818110610e1557fe5b9050602002013573ffffffffffffffffffffffffffffffffffffffff1690506000610e3e611f85565b73ffffffffffffffffffffffffffffffffffffffff16633500aa0b338a8a6000818110610e6757fe5b9050602002013573ffffffffffffffffffffffffffffffffffffffff168589600081518110610e9257fe5b60200260200101518f6040518663ffffffff1660e01b8152600401808673ffffffffffffffffffffffffffffffffffffffff1681526020018573ffffffffffffffffffffffffffffffffffffffff1681526020018473ffffffffffffffffffffffffffffffffffffffff16815260200183815260200182815260200195505050505050602060405180830381600087803b158015610f2f57600080fd5b505af1158015610f43573d6000803e3d6000fd5b505050506040513d6020811015610f5957600080fd5b81019080805190602001909291905050509050610f74612045565b73ffffffffffffffffffffffffffffffffffffffff1663ee0862bf83836040518363ffffffff1660e01b8152600401808373ffffffffffffffffffffffffffffffffffffffff16815260200182815260200192505050600060405180830381600087803b158015610fe457600080fd5b505af1158015610ff8573d6000803e3d6000fd5b50505050505050509695505050505050565b60008054906101000a900473ffffffffffffffffffffffffffffffffffffffff1681565b3273ffffffffffffffffffffffffffffffffffffffff163373ffffffffffffffffffffffffffffffffffffffff16146110b2576040517f08c379a000000000000000000000000000000000000000000000000000000000815260040180806020018281038252603a815260200180613509603a913960400191505060405180910390fd5b6110ba611f85565b73ffffffffffffffffffffffffffffffffffffffff1663b25777ad3384846040518463ffffffff1660e01b8152600401808473ffffffffffffffffffffffffffffffffffffffff1681526020018373ffffffffffffffffffffffffffffffffffffffff1681526020018281526020019350505050600060405180830381600087803b15801561114857600080fd5b505af115801561115c573d6000803e3d6000fd5b50505050611168612045565b73ffffffffffffffffffffffffffffffffffffffff16632a6a897b83836040518363ffffffff1660e01b8152600401808373ffffffffffffffffffffffffffffffffffffffff16815260200182815260200192505050600060405180830381600087803b1580156111d857600080fd5b505af11580156111ec573d6000803e3d6000fd5b505050505050565b606060006001600087600381111561120857fe5b600381111561121357fe5b815260200190815260200160002060009054906101000a900473ffffffffffffffffffffffffffffffffffffffff1690506112908186868680806020026020016040519081016040528093929190818152602001838360200280828437600081840152601f19601f8201169050808301925050505050505061249f565b915050949350505050565b3273ffffffffffffffffffffffffffffffffffffffff163373ffffffffffffffffffffffffffffffffffffffff161461131f576040517f08c379a000000000000000000000000000000000000000000000000000000000815260040180806020018281038252603a815260200180613509603a913960400191505060405180910390fd5b611327611ec5565b73ffffffffffffffffffffffffffffffffffffffff1663a6a5f9fe346040518263ffffffff1660e01b81526004016000604051808303818588803b15801561136e57600080fd5b505af1158015611382573d6000803e3d6000fd5b50505050506000611391611f85565b73ffffffffffffffffffffffffffffffffffffffff166352a664d933600260009054906101000a900473ffffffffffffffffffffffffffffffffffffffff16346040518463ffffffff1660e01b8152600401808473ffffffffffffffffffffffffffffffffffffffff1681526020018373ffffffffffffffffffffffffffffffffffffffff1681526020018281526020019350505050602060405180830381600087803b15801561144157600080fd5b505af1158015611455573d6000803e3d6000fd5b505050506040513d602081101561146b57600080fd5b81019080805190602001909291905050509050600081111561160a5761148f611f85565b73ffffffffffffffffffffffffffffffffffffffff1663b25777ad33600260009054906101000a900473ffffffffffffffffffffffffffffffffffffffff16846040518463ffffffff1660e01b8152600401808473ffffffffffffffffffffffffffffffffffffffff1681526020018373ffffffffffffffffffffffffffffffffffffffff1681526020018281526020019350505050600060405180830381600087803b15801561153f57600080fd5b505af1158015611553573d6000803e3d6000fd5b5050505061155f612045565b73ffffffffffffffffffffffffffffffffffffffff16632a6a897b600260009054906101000a900473ffffffffffffffffffffffffffffffffffffffff16836040518363ffffffff1660e01b8152600401808373ffffffffffffffffffffffffffffffffffffffff16815260200182815260200192505050600060405180830381600087803b1580156115f157600080fd5b505af1158015611605573d6000803e3d6000fd5b505050505b50565b60603273ffffffffffffffffffffffffffffffffffffffff163373ffffffffffffffffffffffffffffffffffffffff1614611693576040517f08c379a000000000000000000000000000000000000000000000000000000000815260040180806020018281038252603a815260200180613509603a913960400191505060405180910390fd5b600061169d612105565b73ffffffffffffffffffffffffffffffffffffffff16633f0e9edf868660008181106116c557fe5b9050602002013573ffffffffffffffffffffffffffffffffffffffff16896040518363ffffffff1660e01b8152600401808373ffffffffffffffffffffffffffffffffffffffff16815260200182815260200192505050602060405180830381600087803b15801561173657600080fd5b505af115801561174a573d6000803e3d6000fd5b505050506040513d602081101561176057600080fd5b810190808051906020019092919050505090506000600160008a600381111561178557fe5b600381111561179057fe5b815260200190815260200160002060009054906101000a900473ffffffffffffffffffffffffffffffffffffffff1690506117d181838a038989898961261f565b925060008686600189899050038181106117e757fe5b9050602002013573ffffffffffffffffffffffffffffffffffffffff1690506000611810611f85565b73ffffffffffffffffffffffffffffffffffffffff16633500aa0b338a8a600081811061183957fe5b9050602002013573ffffffffffffffffffffffffffffffffffffffff16858e8a60018c51038151811061186857fe5b60200260200101516040518663ffffffff1660e01b8152600401808673ffffffffffffffffffffffffffffffffffffffff1681526020018573ffffffffffffffffffffffffffffffffffffffff1681526020018473ffffffffffffffffffffffffffffffffffffffff16815260200183815260200182815260200195505050505050602060405180830381600087803b15801561190457600080fd5b505af1158015611918573d6000803e3d6000fd5b505050506040513d602081101561192e57600080fd5b81019080805190602001909291905050509050611949612045565b73ffffffffffffffffffffffffffffffffffffffff1663ee0862bf83836040518363ffffffff1660e01b8152600401808373ffffffffffffffffffffffffffffffffffffffff16815260200182815260200192505050600060405180830381600087803b1580156119b957600080fd5b505af11580156119cd573d6000803e3d6000fd5b50505050505050509695505050505050565b3273ffffffffffffffffffffffffffffffffffffffff163373ffffffffffffffffffffffffffffffffffffffff1614611a63576040517f08c379a000000000000000000000000000000000000000000000000000000000815260040180806020018281038252603a815260200180613509603a913960400191505060405180910390fd5b611a6b611f85565b73ffffffffffffffffffffffffffffffffffffffff1663d0eb66533384846040518463ffffffff1660e01b8152600401808473ffffffffffffffffffffffffffffffffffffffff1681526020018373ffffffffffffffffffffffffffffffffffffffff1681526020018281526020019350505050600060405180830381600087803b158015611af957600080fd5b505af1158015611b0d573d6000803e3d6000fd5b50505050611b19611ec5565b73ffffffffffffffffffffffffffffffffffffffff1663d9caed128333846040518463ffffffff1660e01b8152600401808473ffffffffffffffffffffffffffffffffffffffff1681526020018373ffffffffffffffffffffffffffffffffffffffff1681526020018281526020019350505050602060405180830381600087803b158015611ba757600080fd5b505af1158015611bbb573d6000803e3d6000fd5b505050506040513d6020811015611bd157600080fd5b8101908080519060200190929190505050611c54576040517f08c379a000000000000000000000000000000000000000000000000000000000815260040180806020018281038252601c8152602001807f436f756c64206e6f742077697468647261772066726f6d2066756e640000000081525060200191505060405180910390fd5b5050565b6060600060016000876003811115611c6c57fe5b6003811115611c7757fe5b815260200190815260200160002060009054906101000a900473ffffffffffffffffffffffffffffffffffffffff169050611cf48186868680806020026020016040519081016040528093929190818152602001838360200280828437600081840152601f19601f820116905080830192505050505050506128fc565b915050949350505050565b3273ffffffffffffffffffffffffffffffffffffffff163373ffffffffffffffffffffffffffffffffffffffff1614611d83576040517f08c379a000000000000000000000000000000000000000000000000000000000815260040180806020018281038252603a815260200180613509603a913960400191505060405180910390fd5b611d8b612045565b73ffffffffffffffffffffffffffffffffffffffff1663ee0862bf83836040518363ffffffff1660e01b8152600401808373ffffffffffffffffffffffffffffffffffffffff16815260200182815260200192505050600060405180830381600087803b158015611dfb57600080fd5b505af1158015611e0f573d6000803e3d6000fd5b50505050611e1b611f85565b73ffffffffffffffffffffffffffffffffffffffff1663498d55eb3384846040518463ffffffff1660e01b8152600401808473ffffffffffffffffffffffffffffffffffffffff1681526020018373ffffffffffffffffffffffffffffffffffffffff1681526020018281526020019350505050600060405180830381600087803b158015611ea957600080fd5b505af1158015611ebd573d6000803e3d6000fd5b505050505050565b60008060009054906101000a900473ffffffffffffffffffffffffffffffffffffffff1673ffffffffffffffffffffffffffffffffffffffff166336214c7860006040518263ffffffff1660e01b815260040180826005811115611f2557fe5b815260200191505060206040518083038186803b158015611f4557600080fd5b505afa158015611f59573d6000803e3d6000fd5b505050506040513d6020811015611f6f57600080fd5b8101908080519060200190929190505050905090565b60008060009054906101000a900473ffffffffffffffffffffffffffffffffffffffff1673ffffffffffffffffffffffffffffffffffffffff166336214c7860036040518263ffffffff1660e01b815260040180826005811115611fe557fe5b815260200191505060206040518083038186803b15801561200557600080fd5b505afa158015612019573d6000803e3d6000fd5b505050506040513d602081101561202f57600080fd5b8101908080519060200190929190505050905090565b60008060009054906101000a900473ffffffffffffffffffffffffffffffffffffffff1673ffffffffffffffffffffffffffffffffffffffff166336214c7860016040518263ffffffff1660e01b8152600401808260058111156120a557fe5b815260200191505060206040518083038186803b1580156120c557600080fd5b505afa1580156120d9573d6000803e3d6000fd5b505050506040513d60208110156120ef57600080fd5b8101908080519060200190929190505050905090565b60008060009054906101000a900473ffffffffffffffffffffffffffffffffffffffff1673ffffffffffffffffffffffffffffffffffffffff166336214c7860046040518263ffffffff1660e01b81526004018082600581111561216557fe5b815260200191505060206040518083038186803b15801561218557600080fd5b505afa158015612199573d6000803e3d6000fd5b505050506040513d60208110156121af57600080fd5b8101908080519060200190929190505050905090565b60606122138787868680806020026020016040519081016040528093929190818152602001838360200280828437600081840152601f19601f8201169050808301925050505050505061249f565b9050848160008151811061222357fe5b60200260200101511115612282576040517f08c379a000000000000000000000000000000000000000000000000000000000815260040180806020018281038252602781526020018061362e6027913960400191505060405180910390fd5b61228a611ec5565b73ffffffffffffffffffffffffffffffffffffffff1663e1a2f315858560008181106122b257fe5b9050602002013573ffffffffffffffffffffffffffffffffffffffff1661232c8a888860008181106122e057fe5b9050602002013573ffffffffffffffffffffffffffffffffffffffff168989600181811061230a57fe5b9050602002013573ffffffffffffffffffffffffffffffffffffffff16612a74565b8460008151811061233957fe5b60200260200101516040518463ffffffff1660e01b8152600401808473ffffffffffffffffffffffffffffffffffffffff1681526020018373ffffffffffffffffffffffffffffffffffffffff1681526020018281526020019350505050602060405180830381600087803b1580156123b157600080fd5b505af11580156123c5573d6000803e3d6000fd5b505050506040513d60208110156123db57600080fd5b8101908080519060200190929190505050612441576040517f08c379a00000000000000000000000000000000000000000000000000000000081526004018080602001828103825260288152602001806135946028913960400191505060405180910390fd5b6124958782868680806020026020016040519081016040528093929190818152602001838360200280828437600081840152601f19601f82011690508083019250505050505050612490611ec5565b612b8d565b9695505050505050565b6060600282511015612519576040517f08c379a000000000000000000000000000000000000000000000000000000000815260040180806020018281038252601e8152602001807f556e697377617056324c6962726172793a20494e56414c49445f50415448000081525060200191505060405180910390fd5b815167ffffffffffffffff8111801561253157600080fd5b506040519080825280602002602001820160405280156125605781602001602082028036833780820191505090505b509050828160018351038151811061257457fe5b6020026020010181815250506000600183510390505b6000811115612617576000806125ca878660018603815181106125a957fe5b60200260200101518786815181106125bd57fe5b6020026020010151612de3565b915091506125ec8484815181106125dd57fe5b60200260200101518383612f0c565b8460018503815181106125fb57fe5b602002602001018181525050505080806001900391505061258a565b509392505050565b606061266d8787868680806020026020016040519081016040528093929190818152602001838360200280828437600081840152601f19601f820116905080830192505050505050506128fc565b9050848160018351038151811061268057fe5b602002602001015110156126df576040517f08c379a00000000000000000000000000000000000000000000000000000000081526004018080602001828103825260288152602001806136806028913960400191505060405180910390fd5b6126e7611ec5565b73ffffffffffffffffffffffffffffffffffffffff1663e1a2f3158585600081811061270f57fe5b9050602002013573ffffffffffffffffffffffffffffffffffffffff166127898a8888600081811061273d57fe5b9050602002013573ffffffffffffffffffffffffffffffffffffffff168989600181811061276757fe5b9050602002013573ffffffffffffffffffffffffffffffffffffffff16612a74565b8460008151811061279657fe5b60200260200101516040518463ffffffff1660e01b8152600401808473ffffffffffffffffffffffffffffffffffffffff1681526020018373ffffffffffffffffffffffffffffffffffffffff1681526020018281526020019350505050602060405180830381600087803b15801561280e57600080fd5b505af1158015612822573d6000803e3d6000fd5b505050506040513d602081101561283857600080fd5b810190808051906020019092919050505061289e576040517f08c379a00000000000000000000000000000000000000000000000000000000081526004018080602001828103825260288152602001806135946028913960400191505060405180910390fd5b6128f28782868680806020026020016040519081016040528093929190818152602001838360200280828437600081840152601f19601f820116905080830192505050505050506128ed611ec5565b612b8d565b9695505050505050565b6060600282511015612976576040517f08c379a000000000000000000000000000000000000000000000000000000000815260040180806020018281038252601e8152602001807f556e697377617056324c6962726172793a20494e56414c49445f50415448000081525060200191505060405180910390fd5b815167ffffffffffffffff8111801561298e57600080fd5b506040519080825280602002602001820160405280156129bd5781602001602082028036833780820191505090505b50905082816000815181106129ce57fe5b60200260200101818152505060005b6001835103811015612a6c57600080612a20878685815181106129fc57fe5b6020026020010151876001870181518110612a1357fe5b6020026020010151612de3565b91509150612a42848481518110612a3357fe5b60200260200101518383613049565b846001850181518110612a5157fe5b602002602001018181525050505080806001019150506129dd565b509392505050565b6000806000612a838585613179565b91509150858282604051602001808373ffffffffffffffffffffffffffffffffffffffff1660601b81526014018273ffffffffffffffffffffffffffffffffffffffff1660601b8152601401925050506040516020818303038152906040528051906020012060405160200180807fff000000000000000000000000000000000000000000000000000000000000008152506001018373ffffffffffffffffffffffffffffffffffffffff1660601b8152601401828152602001807f96e8ac4277198ff8b6f785478aa9a39f403cb768dd02cbee326c3e7da348845f815250602001925050506040516020818303038152906040528051906020012060001c925050509392505050565b60005b6001835103811015612ddc57600080848381518110612bab57fe5b6020026020010151856001850181518110612bc257fe5b6020026020010151915091506000612bda8383613179565b5090506000876001860181518110612bee57fe5b602002602001015190506000808373ffffffffffffffffffffffffffffffffffffffff168673ffffffffffffffffffffffffffffffffffffffff1614612c3657826000612c3a565b6000835b91509150600060028a51038810612c515788612c73565b612c728c878c60028c0181518110612c6557fe5b6020026020010151612a74565b5b9050612c808c8888612a74565b73ffffffffffffffffffffffffffffffffffffffff1663022c0d9f848484600067ffffffffffffffff81118015612cb657600080fd5b506040519080825280601f01601f191660200182016040528015612ce95781602001600182028036833780820191505090505b506040518563ffffffff1660e01b8152600401808581526020018481526020018373ffffffffffffffffffffffffffffffffffffffff16815260200180602001828103825283818151815260200191508051906020019080838360005b83811015612d61578082015181840152602081019050612d46565b50505050905090810190601f168015612d8e5780820380516001836020036101000a031916815260200191505b5095505050505050600060405180830381600087803b158015612db057600080fd5b505af1158015612dc4573d6000803e3d6000fd5b50505050505050505050508080600101915050612b90565b5050505050565b6000806000612df28585613179565b509050600080612e03888888612a74565b73ffffffffffffffffffffffffffffffffffffffff16630902f1ac6040518163ffffffff1660e01b815260040160606040518083038186803b158015612e4857600080fd5b505afa158015612e5c573d6000803e3d6000fd5b505050506040513d6060811015612e7257600080fd5b81019080805190602001909291908051906020019092919080519060200190929190505050506dffffffffffffffffffffffffffff1691506dffffffffffffffffffffffffffff1691508273ffffffffffffffffffffffffffffffffffffffff168773ffffffffffffffffffffffffffffffffffffffff1614612ef6578082612ef9565b81815b8095508196505050505050935093915050565b6000808411612f66576040517f08c379a000000000000000000000000000000000000000000000000000000000815260040180806020018281038252602c815260200180613543602c913960400191505060405180910390fd5b600083118015612f765750600082115b612fcb576040517f08c379a00000000000000000000000000000000000000000000000000000000081526004018080602001828103825260288152602001806135bc6028913960400191505060405180910390fd5b6000612ff46103e8612fe687876132f090919063ffffffff16565b6132f090919063ffffffff16565b9050600061301f6103e5613011888761337690919063ffffffff16565b6132f090919063ffffffff16565b905061303e600182848161302f57fe5b046133c090919063ffffffff16565b925050509392505050565b60008084116130a3576040517f08c379a000000000000000000000000000000000000000000000000000000000815260040180806020018281038252602b815260200180613655602b913960400191505060405180910390fd5b6000831180156130b35750600082115b613108576040517f08c379a00000000000000000000000000000000000000000000000000000000081526004018080602001828103825260288152602001806135bc6028913960400191505060405180910390fd5b600061311f6103e5866132f090919063ffffffff16565b9050600061313684836132f090919063ffffffff16565b90506000613161836131536103e8896132f090919063ffffffff16565b6133c090919063ffffffff16565b905080828161316c57fe5b0493505050509392505050565b6000808273ffffffffffffffffffffffffffffffffffffffff168473ffffffffffffffffffffffffffffffffffffffff161415613201576040517f08c379a000000000000000000000000000000000000000000000000000000000815260040180806020018281038252602581526020018061356f6025913960400191505060405180910390fd5b8273ffffffffffffffffffffffffffffffffffffffff168473ffffffffffffffffffffffffffffffffffffffff161061323b57828461323e565b83835b8092508193505050600073ffffffffffffffffffffffffffffffffffffffff168273ffffffffffffffffffffffffffffffffffffffff1614156132e9576040517f08c379a000000000000000000000000000000000000000000000000000000000815260040180806020018281038252601e8152602001807f556e697377617056324c6962726172793a205a45524f5f41444452455353000081525060200191505060405180910390fd5b9250929050565b6000808314156133035760009050613370565b600082840290508284828161331457fe5b041461336b576040517f08c379a00000000000000000000000000000000000000000000000000000000081526004018080602001828103825260218152602001806135e46021913960400191505060405180910390fd5b809150505b92915050565b60006133b883836040518060400160405280601e81526020017f536166654d6174683a207375627472616374696f6e206f766572666c6f770000815250613448565b905092915050565b60008082840190508381101561343e576040517f08c379a000000000000000000000000000000000000000000000000000000000815260040180806020018281038252601b8152602001807f536166654d6174683a206164646974696f6e206f766572666c6f77000000000081525060200191505060405180910390fd5b8091505092915050565b60008383111582906134f5576040517f08c379a00000000000000000000000000000000000000000000000000000000081526004018080602001828103825283818151815260200191508051906020019080838360005b838110156134ba57808201518184015260208101905061349f565b50505050905090810190601f1680156134e75780820380516001836020036101000a031916815260200191505b509250505060405180910390fd5b506000838503905080915050939250505056fe43757272656e746c79206e6f20696e7465726d656469617269657320616c6c6f77656420666f7220746869732066756e6374696f6e2063616c6c556e697377617056324c6962726172793a20494e53554646494349454e545f4f55545055545f414d4f554e54556e697377617056324c6962726172793a204944454e544943414c5f4144445245535345534d617267696e526f757465723a20496e73756666696369656e74206c656e64696e672066756e6473556e697377617056324c6962726172793a20494e53554646494349454e545f4c4951554944495459536166654d6174683a206d756c7469706c69636174696f6e206f766572666c6f7743616e6e6f74207472616e73666572206465706f73697420746f206d617267696e206163636f756e74556e69737761705632526f757465723a204558434553534956455f494e5055545f414d4f554e54556e697377617056324c6962726172793a20494e53554646494349454e545f494e5055545f414d4f554e544d617267696e526f757465723a20494e53554646494349454e545f4f55545055545f414d4f554e54a264697066735822122081587fd0bfd9b16d42e4731ff3e67b9b10f98765930d331b7358c7c115ba6bf064736f6c63430007030033",
  "linkReferences": {},
  "deployedLinkReferences": {}
}