{
  "_format": "hh-sol-artifact-1",
  "contractName": "MarginRouter",
  "sourceName": "contracts/MarginRouter.sol",
  "abi": [
    {
      "inputs": [
        {
          "internalType": "address",
          "name": "uniswapFactory",
          "type": "address"
        },
        {
          "internalType": "address",
          "name": "sushiswapFactory",
          "type": "address"
        },
        {
          "internalType": "address",
          "name": "_WETH",
          "type": "address"
        },
        {
          "internalType": "address",
          "name": "_roles",
          "type": "address"
        }
      ],
      "stateMutability": "nonpayable",
      "type": "constructor"
    },
    {
      "inputs": [
        {
          "internalType": "enum AMM",
          "name": "amm",
          "type": "uint8"
        },
        {
          "internalType": "uint256",
          "name": "amountIn",
          "type": "uint256"
        },
        {
          "internalType": "uint256",
          "name": "amountOutMin",
          "type": "uint256"
        },
        {
          "internalType": "address[]",
          "name": "path",
          "type": "address[]"
        }
      ],
      "name": "authorizedSwapExactT4T",
      "outputs": [
        {
          "internalType": "uint256[]",
          "name": "",
          "type": "uint256[]"
        }
      ],
      "stateMutability": "nonpayable",
      "type": "function"
    },
    {
      "inputs": [
        {
          "internalType": "enum AMM",
          "name": "amm",
          "type": "uint8"
        },
        {
          "internalType": "uint256",
          "name": "amountOut",
          "type": "uint256"
        },
        {
          "internalType": "uint256",
          "name": "amountInMax",
          "type": "uint256"
        },
        {
          "internalType": "address[]",
          "name": "path",
          "type": "address[]"
        }
      ],
      "name": "authorizedSwapT4ExactT",
      "outputs": [
        {
          "internalType": "uint256[]",
          "name": "",
          "type": "uint256[]"
        }
      ],
      "stateMutability": "nonpayable",
      "type": "function"
    },
    {
      "inputs": [
        {
          "internalType": "address",
          "name": "borrowToken",
          "type": "address"
        },
        {
          "internalType": "uint256",
          "name": "borrowAmount",
          "type": "uint256"
        }
      ],
      "name": "crossBorrow",
      "outputs": [],
      "stateMutability": "nonpayable",
      "type": "function"
    },
    {
      "inputs": [
        {
          "internalType": "address",
          "name": "depositToken",
          "type": "address"
        },
        {
          "internalType": "uint256",
          "name": "depositAmount",
          "type": "uint256"
        }
      ],
      "name": "crossDeposit",
      "outputs": [],
      "stateMutability": "nonpayable",
      "type": "function"
    },
    {
      "inputs": [],
      "name": "crossDepositETH",
      "outputs": [],
      "stateMutability": "payable",
      "type": "function"
    },
    {
      "inputs": [
        {
          "internalType": "address",
          "name": "debtToken",
          "type": "address"
        },
        {
          "internalType": "uint256",
          "name": "extinguishAmount",
          "type": "uint256"
        }
      ],
      "name": "crossExtinguishDebt",
      "outputs": [],
      "stateMutability": "nonpayable",
      "type": "function"
    },
    {
      "inputs": [
        {
          "internalType": "enum AMM",
          "name": "amm",
          "type": "uint8"
        },
        {
          "internalType": "uint256",
          "name": "amountIn",
          "type": "uint256"
        },
        {
          "internalType": "uint256",
          "name": "amountOutMin",
          "type": "uint256"
        },
        {
          "internalType": "address[]",
          "name": "path",
          "type": "address[]"
        },
        {
          "internalType": "uint256",
          "name": "deadline",
          "type": "uint256"
        }
      ],
      "name": "crossSwapExactTokensForTokens",
      "outputs": [
        {
          "internalType": "uint256[]",
          "name": "amounts",
          "type": "uint256[]"
        }
      ],
      "stateMutability": "nonpayable",
      "type": "function"
    },
    {
      "inputs": [
        {
          "internalType": "enum AMM",
          "name": "amm",
          "type": "uint8"
        },
        {
          "internalType": "uint256",
          "name": "amountOut",
          "type": "uint256"
        },
        {
          "internalType": "uint256",
          "name": "amountInMax",
          "type": "uint256"
        },
        {
          "internalType": "address[]",
          "name": "path",
          "type": "address[]"
        },
        {
          "internalType": "uint256",
          "name": "deadline",
          "type": "uint256"
        }
      ],
      "name": "crossSwapTokensForExactTokens",
      "outputs": [
        {
          "internalType": "uint256[]",
          "name": "amounts",
          "type": "uint256[]"
        }
      ],
      "stateMutability": "nonpayable",
      "type": "function"
    },
    {
      "inputs": [
        {
          "internalType": "address",
          "name": "withdrawToken",
          "type": "address"
        },
        {
          "internalType": "uint256",
          "name": "withdrawAmount",
          "type": "uint256"
        }
      ],
      "name": "crossWithdraw",
      "outputs": [],
      "stateMutability": "nonpayable",
      "type": "function"
    },
    {
      "inputs": [
        {
          "internalType": "uint256",
          "name": "withdrawAmount",
          "type": "uint256"
        }
      ],
      "name": "crossWithdrawETH",
      "outputs": [],
      "stateMutability": "nonpayable",
      "type": "function"
    },
    {
      "inputs": [
        {
          "internalType": "enum AMM",
          "name": "amm",
          "type": "uint8"
        },
        {
          "internalType": "uint256",
          "name": "outAmount",
          "type": "uint256"
        },
        {
          "internalType": "address[]",
          "name": "path",
          "type": "address[]"
        }
      ],
      "name": "getAmountsIn",
      "outputs": [
        {
          "internalType": "uint256[]",
          "name": "",
          "type": "uint256[]"
        }
      ],
      "stateMutability": "view",
      "type": "function"
    },
    {
      "inputs": [
        {
          "internalType": "enum AMM",
          "name": "amm",
          "type": "uint8"
        },
        {
          "internalType": "uint256",
          "name": "inAmount",
          "type": "uint256"
        },
        {
          "internalType": "address[]",
          "name": "path",
          "type": "address[]"
        }
      ],
      "name": "getAmountsOut",
      "outputs": [
        {
          "internalType": "uint256[]",
          "name": "",
          "type": "uint256[]"
        }
      ],
      "stateMutability": "view",
      "type": "function"
    },
    {
      "inputs": [],
      "name": "roles",
      "outputs": [
        {
          "internalType": "contract Roles",
          "name": "",
          "type": "address"
        }
      ],
      "stateMutability": "view",
      "type": "function"
    }
  ],
  "bytecode": "0x60806040523480156200001157600080fd5b506040516200485138038062004851833981810160405281019062000037919062000264565b80806000806101000a81548173ffffffffffffffffffffffffffffffffffffffff021916908373ffffffffffffffffffffffffffffffffffffffff160217905550508360016000806003811115620000b8577f4e487b7100000000000000000000000000000000000000000000000000000000600052602160045260246000fd5b6003811115620000f1577f4e487b7100000000000000000000000000000000000000000000000000000000600052602160045260246000fd5b815260200190815260200160002060006101000a81548173ffffffffffffffffffffffffffffffffffffffff021916908373ffffffffffffffffffffffffffffffffffffffff1602179055508260016000600160038111156200017d577f4e487b7100000000000000000000000000000000000000000000000000000000600052602160045260246000fd5b6003811115620001b6577f4e487b7100000000000000000000000000000000000000000000000000000000600052602160045260246000fd5b815260200190815260200160002060006101000a81548173ffffffffffffffffffffffffffffffffffffffff021916908373ffffffffffffffffffffffffffffffffffffffff16021790555081600260006101000a81548173ffffffffffffffffffffffffffffffffffffffff021916908373ffffffffffffffffffffffffffffffffffffffff160217905550505050506200031e565b6000815190506200025e8162000304565b92915050565b600080600080608085870312156200027b57600080fd5b60006200028b878288016200024d565b94505060206200029e878288016200024d565b9350506040620002b1878288016200024d565b9250506060620002c4878288016200024d565b91505092959194509250565b6000620002dd82620002e4565b9050919050565b600073ffffffffffffffffffffffffffffffffffffffff82169050919050565b6200030f81620002d0565b81146200031b57600080fd5b50565b614523806200032e6000396000f3fe6080604052600436106100c25760003560e01c806348eb4f3e1161007f578063a5f9a36211610059578063a5f9a3621461026b578063e3e0626b146102a8578063eaa095f8146102d1578063eedb97c71461030e576100c2565b806348eb4f3e146101fb57806390b931ed1461022457806394427b2014610261576100c2565b80630aa29f1c146100c75780631306d902146101045780631dce3baa1461012d5780631f2a6743146101565780632233c43614610193578063392f5f64146101d0575b600080fd5b3480156100d357600080fd5b506100ee60048036038101906100e991906133eb565b610337565b6040516100fb9190613a2c565b60405180910390f35b34801561011057600080fd5b5061012b6004803603810190610126919061331a565b610449565b005b34801561013957600080fd5b50610154600480360381019061014f919061354c565b61071f565b005b34801561016257600080fd5b5061017d600480360381019061017891906133eb565b61089c565b60405161018a9190613a2c565b60405180910390f35b34801561019f57600080fd5b506101ba60048036038101906101b5919061346b565b6109ae565b6040516101c79190613a2c565b60405180910390f35b3480156101dc57600080fd5b506101e5610de5565b6040516101f29190613a4e565b60405180910390f35b34801561020757600080fd5b50610222600480360381019061021d919061331a565b610e09565b005b34801561023057600080fd5b5061024b6004803603810190610246919061337f565b610f65565b6040516102589190613a2c565b60405180910390f35b610269611066565b005b34801561027757600080fd5b50610292600480360381019061028d919061346b565b611333565b60405161029f9190613a2c565b60405180910390f35b3480156102b457600080fd5b506102cf60048036038101906102ca919061331a565b611768565b005b3480156102dd57600080fd5b506102f860048036038101906102f3919061337f565b611925565b6040516103059190613a2c565b60405180910390f35b34801561031a57600080fd5b506103356004803603810190610330919061331a565b611a26565b005b606061034233611b82565b610381576040517f08c379a000000000000000000000000000000000000000000000000000000000815260040161037890613aa4565b60405180910390fd5b61043e600160008860038111156103c1577f4e487b7100000000000000000000000000000000000000000000000000000000600052602160045260246000fd5b60038111156103f9577f4e487b7100000000000000000000000000000000000000000000000000000000600052602160045260246000fd5b815260200190815260200160002060009054906101000a900473ffffffffffffffffffffffffffffffffffffffff16868686866001426104399190613ce1565b611c38565b905095945050505050565b3273ffffffffffffffffffffffffffffffffffffffff163373ffffffffffffffffffffffffffffffffffffffff16146104b7576040517f08c379a00000000000000000000000000000000000000000000000000000000081526004016104ae90613a84565b60405180910390fd5b6104bf611f80565b73ffffffffffffffffffffffffffffffffffffffff1663b3db428b3384846040518463ffffffff1660e01b81526004016104fb939291906139a3565b602060405180830381600087803b15801561051557600080fd5b505af1158015610529573d6000803e3d6000fd5b505050506040513d601f19601f8201168201806040525081019061054d9190613356565b61058c576040517f08c379a000000000000000000000000000000000000000000000000000000000815260040161058390613b64565b60405180910390fd5b6000610596612032565b73ffffffffffffffffffffffffffffffffffffffff166352a664d93385856040518463ffffffff1660e01b81526004016105d2939291906139a3565b602060405180830381600087803b1580156105ec57600080fd5b505af1158015610600573d6000803e3d6000fd5b505050506040513d601f19601f820116820180604052508101906106249190613575565b9050600081111561071a57610637612032565b73ffffffffffffffffffffffffffffffffffffffff1663b25777ad3385846040518463ffffffff1660e01b8152600401610673939291906139a3565b600060405180830381600087803b15801561068d57600080fd5b505af11580156106a1573d6000803e3d6000fd5b505050506106ad6120e4565b73ffffffffffffffffffffffffffffffffffffffff16632a6a897b84836040518363ffffffff1660e01b81526004016106e7929190613a03565b600060405180830381600087803b15801561070157600080fd5b505af1158015610715573d6000803e3d6000fd5b505050505b505050565b3273ffffffffffffffffffffffffffffffffffffffff163373ffffffffffffffffffffffffffffffffffffffff161461078d576040517f08c379a000000000000000000000000000000000000000000000000000000000815260040161078490613a84565b60405180910390fd5b610795612032565b73ffffffffffffffffffffffffffffffffffffffff1663d0eb665333600260009054906101000a900473ffffffffffffffffffffffffffffffffffffffff16846040518463ffffffff1660e01b81526004016107f3939291906139a3565b600060405180830381600087803b15801561080d57600080fd5b505af1158015610821573d6000803e3d6000fd5b5050505061082d611f80565b73ffffffffffffffffffffffffffffffffffffffff16634782f77933836040518363ffffffff1660e01b8152600401610867929190613a03565b600060405180830381600087803b15801561088157600080fd5b505af1158015610895573d6000803e3d6000fd5b5050505050565b60606108a733611b82565b6108e6576040517f08c379a00000000000000000000000000000000000000000000000000000000081526004016108dd90613aa4565b60405180910390fd5b6109a360016000886003811115610926577f4e487b7100000000000000000000000000000000000000000000000000000000600052602160045260246000fd5b600381111561095e577f4e487b7100000000000000000000000000000000000000000000000000000000600052602160045260246000fd5b815260200190815260200160002060009054906101000a900473ffffffffffffffffffffffffffffffffffffffff168686868660014261099e9190613ce1565b612196565b905095945050505050565b60603273ffffffffffffffffffffffffffffffffffffffff163373ffffffffffffffffffffffffffffffffffffffff1614610a1e576040517f08c379a0000000000000000000000000000000000000000000000000000000008152600401610a1590613a84565b60405180910390fd5b6000610a286124d2565b73ffffffffffffffffffffffffffffffffffffffff166367cbf42d8686600189899050610a559190613dc2565b818110610a8b577f4e487b7100000000000000000000000000000000000000000000000000000000600052603260045260246000fd5b9050602002016020810190610aa091906132c8565b896040518363ffffffff1660e01b8152600401610abe929190613a03565b602060405180830381600087803b158015610ad857600080fd5b505af1158015610aec573d6000803e3d6000fd5b505050506040513d601f19601f82011682018060405250810190610b109190613575565b90506000600160008a6003811115610b51577f4e487b7100000000000000000000000000000000000000000000000000000000600052602160045260246000fd5b6003811115610b89577f4e487b7100000000000000000000000000000000000000000000000000000000600052602160045260246000fd5b815260200190815260200160002060009054906101000a900473ffffffffffffffffffffffffffffffffffffffff169050610bd381838a610bca9190613ce1565b89898989612196565b925060008686600189899050610be99190613dc2565b818110610c1f577f4e487b7100000000000000000000000000000000000000000000000000000000600052603260045260246000fd5b9050602002016020810190610c3491906132c8565b90506000610c40612032565b73ffffffffffffffffffffffffffffffffffffffff16633500aa0b338a8a6000818110610c96577f4e487b7100000000000000000000000000000000000000000000000000000000600052603260045260246000fd5b9050602002016020810190610cab91906132c8565b8589600081518110610ce6577f4e487b7100000000000000000000000000000000000000000000000000000000600052603260045260246000fd5b60200260200101518f6040518663ffffffff1660e01b8152600401610d0f959493929190613950565b602060405180830381600087803b158015610d2957600080fd5b505af1158015610d3d573d6000803e3d6000fd5b505050506040513d601f19601f82011682018060405250810190610d619190613575565b9050610d6b6120e4565b73ffffffffffffffffffffffffffffffffffffffff1663ee0862bf83836040518363ffffffff1660e01b8152600401610da5929190613a03565b600060405180830381600087803b158015610dbf57600080fd5b505af1158015610dd3573d6000803e3d6000fd5b50505050505050509695505050505050565b60008054906101000a900473ffffffffffffffffffffffffffffffffffffffff1681565b3273ffffffffffffffffffffffffffffffffffffffff163373ffffffffffffffffffffffffffffffffffffffff1614610e77576040517f08c379a0000000000000000000000000000000000000000000000000000000008152600401610e6e90613a84565b60405180910390fd5b610e7f612032565b73ffffffffffffffffffffffffffffffffffffffff1663b25777ad3384846040518463ffffffff1660e01b8152600401610ebb939291906139a3565b600060405180830381600087803b158015610ed557600080fd5b505af1158015610ee9573d6000803e3d6000fd5b50505050610ef56120e4565b73ffffffffffffffffffffffffffffffffffffffff16632a6a897b83836040518363ffffffff1660e01b8152600401610f2f929190613a03565b600060405180830381600087803b158015610f4957600080fd5b505af1158015610f5d573d6000803e3d6000fd5b505050505050565b6060600060016000876003811115610fa6577f4e487b7100000000000000000000000000000000000000000000000000000000600052602160045260246000fd5b6003811115610fde577f4e487b7100000000000000000000000000000000000000000000000000000000600052602160045260246000fd5b815260200190815260200160002060009054906101000a900473ffffffffffffffffffffffffffffffffffffffff16905061105b8186868680806020026020016040519081016040528093929190818152602001838360200280828437600081840152601f19601f82011690508083019250505050505050612584565b915050949350505050565b3273ffffffffffffffffffffffffffffffffffffffff163373ffffffffffffffffffffffffffffffffffffffff16146110d4576040517f08c379a00000000000000000000000000000000000000000000000000000000081526004016110cb90613a84565b60405180910390fd5b6110dc611f80565b73ffffffffffffffffffffffffffffffffffffffff1663a6a5f9fe346040518263ffffffff1660e01b81526004016000604051808303818588803b15801561112357600080fd5b505af1158015611137573d6000803e3d6000fd5b50505050506000611146612032565b73ffffffffffffffffffffffffffffffffffffffff166352a664d933600260009054906101000a900473ffffffffffffffffffffffffffffffffffffffff16346040518463ffffffff1660e01b81526004016111a4939291906139a3565b602060405180830381600087803b1580156111be57600080fd5b505af11580156111d2573d6000803e3d6000fd5b505050506040513d601f19601f820116820180604052508101906111f69190613575565b9050600081111561133057611209612032565b73ffffffffffffffffffffffffffffffffffffffff1663b25777ad33600260009054906101000a900473ffffffffffffffffffffffffffffffffffffffff16846040518463ffffffff1660e01b8152600401611267939291906139a3565b600060405180830381600087803b15801561128157600080fd5b505af1158015611295573d6000803e3d6000fd5b505050506112a16120e4565b73ffffffffffffffffffffffffffffffffffffffff16632a6a897b600260009054906101000a900473ffffffffffffffffffffffffffffffffffffffff16836040518363ffffffff1660e01b81526004016112fd929190613a03565b600060405180830381600087803b15801561131757600080fd5b505af115801561132b573d6000803e3d6000fd5b505050505b50565b60603273ffffffffffffffffffffffffffffffffffffffff163373ffffffffffffffffffffffffffffffffffffffff16146113a3576040517f08c379a000000000000000000000000000000000000000000000000000000000815260040161139a90613a84565b60405180910390fd5b60006113ad6124d2565b73ffffffffffffffffffffffffffffffffffffffff16633f0e9edf86866000818110611402577f4e487b7100000000000000000000000000000000000000000000000000000000600052603260045260246000fd5b905060200201602081019061141791906132c8565b896040518363ffffffff1660e01b8152600401611435929190613a03565b602060405180830381600087803b15801561144f57600080fd5b505af1158015611463573d6000803e3d6000fd5b505050506040513d601f19601f820116820180604052508101906114879190613575565b90506000600160008a60038111156114c8577f4e487b7100000000000000000000000000000000000000000000000000000000600052602160045260246000fd5b6003811115611500577f4e487b7100000000000000000000000000000000000000000000000000000000600052602160045260246000fd5b815260200190815260200160002060009054906101000a900473ffffffffffffffffffffffffffffffffffffffff16905061154a81838a6115419190613dc2565b89898989611c38565b9250600086866001898990506115609190613dc2565b818110611596577f4e487b7100000000000000000000000000000000000000000000000000000000600052603260045260246000fd5b90506020020160208101906115ab91906132c8565b905060006115b7612032565b73ffffffffffffffffffffffffffffffffffffffff16633500aa0b338a8a600081811061160d577f4e487b7100000000000000000000000000000000000000000000000000000000600052603260045260246000fd5b905060200201602081019061162291906132c8565b858e8a60018c516116339190613dc2565b8151811061166a577f4e487b7100000000000000000000000000000000000000000000000000000000600052603260045260246000fd5b60200260200101516040518663ffffffff1660e01b8152600401611692959493929190613950565b602060405180830381600087803b1580156116ac57600080fd5b505af11580156116c0573d6000803e3d6000fd5b505050506040513d601f19601f820116820180604052508101906116e49190613575565b90506116ee6120e4565b73ffffffffffffffffffffffffffffffffffffffff1663ee0862bf83836040518363ffffffff1660e01b8152600401611728929190613a03565b600060405180830381600087803b15801561174257600080fd5b505af1158015611756573d6000803e3d6000fd5b50505050505050509695505050505050565b3273ffffffffffffffffffffffffffffffffffffffff163373ffffffffffffffffffffffffffffffffffffffff16146117d6576040517f08c379a00000000000000000000000000000000000000000000000000000000081526004016117cd90613a84565b60405180910390fd5b6117de612032565b73ffffffffffffffffffffffffffffffffffffffff1663d0eb66533384846040518463ffffffff1660e01b815260040161181a939291906139a3565b600060405180830381600087803b15801561183457600080fd5b505af1158015611848573d6000803e3d6000fd5b50505050611854611f80565b73ffffffffffffffffffffffffffffffffffffffff1663d9caed128333846040518463ffffffff1660e01b8152600401611890939291906139a3565b602060405180830381600087803b1580156118aa57600080fd5b505af11580156118be573d6000803e3d6000fd5b505050506040513d601f19601f820116820180604052508101906118e29190613356565b611921576040517f08c379a000000000000000000000000000000000000000000000000000000000815260040161191890613b84565b60405180910390fd5b5050565b6060600060016000876003811115611966577f4e487b7100000000000000000000000000000000000000000000000000000000600052602160045260246000fd5b600381111561199e577f4e487b7100000000000000000000000000000000000000000000000000000000600052602160045260246000fd5b815260200190815260200160002060009054906101000a900473ffffffffffffffffffffffffffffffffffffffff169050611a1b8186868680806020026020016040519081016040528093929190818152602001838360200280828437600081840152601f19601f82011690508083019250505050505050612803565b915050949350505050565b3273ffffffffffffffffffffffffffffffffffffffff163373ffffffffffffffffffffffffffffffffffffffff1614611a94576040517f08c379a0000000000000000000000000000000000000000000000000000000008152600401611a8b90613a84565b60405180910390fd5b611a9c6120e4565b73ffffffffffffffffffffffffffffffffffffffff1663ee0862bf83836040518363ffffffff1660e01b8152600401611ad6929190613a03565b600060405180830381600087803b158015611af057600080fd5b505af1158015611b04573d6000803e3d6000fd5b50505050611b10612032565b73ffffffffffffffffffffffffffffffffffffffff1663498d55eb3384846040518463ffffffff1660e01b8152600401611b4c939291906139a3565b600060405180830381600087803b158015611b6657600080fd5b505af1158015611b7a573d6000803e3d6000fd5b505050505050565b60008060009054906101000a900473ffffffffffffffffffffffffffffffffffffffff1673ffffffffffffffffffffffffffffffffffffffff1663a716b97f8360066040518363ffffffff1660e01b8152600401611be19291906139da565b60206040518083038186803b158015611bf957600080fd5b505afa158015611c0d573d6000803e3d6000fd5b505050506040513d601f19601f82011682018060405250810190611c319190613356565b9050919050565b6060611c868787868680806020026020016040519081016040528093929190818152602001838360200280828437600081840152601f19601f82011690508083019250505050505050612803565b9050848160018351611c989190613dc2565b81518110611ccf577f4e487b7100000000000000000000000000000000000000000000000000000000600052603260045260246000fd5b60200260200101511015611d18576040517f08c379a0000000000000000000000000000000000000000000000000000000008152600401611d0f90613c04565b60405180910390fd5b611d20611f80565b73ffffffffffffffffffffffffffffffffffffffff1663d9caed1285856000818110611d75577f4e487b7100000000000000000000000000000000000000000000000000000000600052603260045260246000fd5b9050602002016020810190611d8a91906132c8565b611e318a88886000818110611dc8577f4e487b7100000000000000000000000000000000000000000000000000000000600052603260045260246000fd5b9050602002016020810190611ddd91906132c8565b89896001818110611e17577f4e487b7100000000000000000000000000000000000000000000000000000000600052603260045260246000fd5b9050602002016020810190611e2c91906132c8565b612a72565b84600081518110611e6b577f4e487b7100000000000000000000000000000000000000000000000000000000600052603260045260246000fd5b60200260200101516040518463ffffffff1660e01b8152600401611e91939291906139a3565b602060405180830381600087803b158015611eab57600080fd5b505af1158015611ebf573d6000803e3d6000fd5b505050506040513d601f19601f82011682018060405250810190611ee39190613356565b611f22576040517f08c379a0000000000000000000000000000000000000000000000000000000008152600401611f1990613b04565b60405180910390fd5b611f768782868680806020026020016040519081016040528093929190818152602001838360200280828437600081840152601f19601f82011690508083019250505050505050611f71611f80565b612ae4565b9695505050505050565b60008060009054906101000a900473ffffffffffffffffffffffffffffffffffffffff1673ffffffffffffffffffffffffffffffffffffffff166336214c7860006040518263ffffffff1660e01b8152600401611fdd9190613a69565b60206040518083038186803b158015611ff557600080fd5b505afa158015612009573d6000803e3d6000fd5b505050506040513d601f19601f8201168201806040525081019061202d91906132f1565b905090565b60008060009054906101000a900473ffffffffffffffffffffffffffffffffffffffff1673ffffffffffffffffffffffffffffffffffffffff166336214c7860036040518263ffffffff1660e01b815260040161208f9190613a69565b60206040518083038186803b1580156120a757600080fd5b505afa1580156120bb573d6000803e3d6000fd5b505050506040513d601f19601f820116820180604052508101906120df91906132f1565b905090565b60008060009054906101000a900473ffffffffffffffffffffffffffffffffffffffff1673ffffffffffffffffffffffffffffffffffffffff166336214c7860016040518263ffffffff1660e01b81526004016121419190613a69565b60206040518083038186803b15801561215957600080fd5b505afa15801561216d573d6000803e3d6000fd5b505050506040513d601f19601f8201168201806040525081019061219191906132f1565b905090565b60606121e48787868680806020026020016040519081016040528093929190818152602001838360200280828437600081840152601f19601f82011690508083019250505050505050612584565b90508481600081518110612221577f4e487b7100000000000000000000000000000000000000000000000000000000600052603260045260246000fd5b6020026020010151111561226a576040517f08c379a000000000000000000000000000000000000000000000000000000000815260040161226190613ba4565b60405180910390fd5b612272611f80565b73ffffffffffffffffffffffffffffffffffffffff1663d9caed12858560008181106122c7577f4e487b7100000000000000000000000000000000000000000000000000000000600052603260045260246000fd5b90506020020160208101906122dc91906132c8565b6123838a8888600081811061231a577f4e487b7100000000000000000000000000000000000000000000000000000000600052603260045260246000fd5b905060200201602081019061232f91906132c8565b89896001818110612369577f4e487b7100000000000000000000000000000000000000000000000000000000600052603260045260246000fd5b905060200201602081019061237e91906132c8565b612a72565b846000815181106123bd577f4e487b7100000000000000000000000000000000000000000000000000000000600052603260045260246000fd5b60200260200101516040518463ffffffff1660e01b81526004016123e3939291906139a3565b602060405180830381600087803b1580156123fd57600080fd5b505af1158015612411573d6000803e3d6000fd5b505050506040513d601f19601f820116820180604052508101906124359190613356565b612474576040517f08c379a000000000000000000000000000000000000000000000000000000000815260040161246b90613b04565b60405180910390fd5b6124c88782868680806020026020016040519081016040528093929190818152602001838360200280828437600081840152601f19601f820116905080830192505050505050506124c3611f80565b612ae4565b9695505050505050565b60008060009054906101000a900473ffffffffffffffffffffffffffffffffffffffff1673ffffffffffffffffffffffffffffffffffffffff166336214c7860046040518263ffffffff1660e01b815260040161252f9190613a69565b60206040518083038186803b15801561254757600080fd5b505afa15801561255b573d6000803e3d6000fd5b505050506040513d601f19601f8201168201806040525081019061257f91906132f1565b905090565b60606002825110156125cb576040517f08c379a00000000000000000000000000000000000000000000000000000000081526004016125c290613b24565b60405180910390fd5b815167ffffffffffffffff81111561260c577f4e487b7100000000000000000000000000000000000000000000000000000000600052604160045260246000fd5b60405190808252806020026020018201604052801561263a5781602001602082028036833780820191505090505b50905082816001835161264d9190613dc2565b81518110612684577f4e487b7100000000000000000000000000000000000000000000000000000000600052603260045260246000fd5b6020026020010181815250506000600183516126a09190613dc2565b90505b60008111156127fb5760008061274687866001866126c19190613dc2565b815181106126f8577f4e487b7100000000000000000000000000000000000000000000000000000000600052603260045260246000fd5b6020026020010151878681518110612739577f4e487b7100000000000000000000000000000000000000000000000000000000600052603260045260246000fd5b6020026020010151612dbc565b91509150612795848481518110612786577f4e487b7100000000000000000000000000000000000000000000000000000000600052603260045260246000fd5b60200260200101518383612ece565b846001856127a39190613dc2565b815181106127da577f4e487b7100000000000000000000000000000000000000000000000000000000600052603260045260246000fd5b602002602001018181525050505080806127f390613f13565b9150506126a3565b509392505050565b606060028251101561284a576040517f08c379a000000000000000000000000000000000000000000000000000000000815260040161284190613b24565b60405180910390fd5b815167ffffffffffffffff81111561288b577f4e487b7100000000000000000000000000000000000000000000000000000000600052604160045260246000fd5b6040519080825280602002602001820160405280156128b95781602001602082028036833780820191505090505b50905082816000815181106128f7577f4e487b7100000000000000000000000000000000000000000000000000000000600052603260045260246000fd5b60200260200101818152505060005b600183516129149190613dc2565b811015612a6a576000806129b58786858151811061295b577f4e487b7100000000000000000000000000000000000000000000000000000000600052603260045260246000fd5b6020026020010151876001876129719190613ce1565b815181106129a8577f4e487b7100000000000000000000000000000000000000000000000000000000600052603260045260246000fd5b6020026020010151612dbc565b91509150612a048484815181106129f5577f4e487b7100000000000000000000000000000000000000000000000000000000600052603260045260246000fd5b60200260200101518383612fbe565b84600185612a129190613ce1565b81518110612a49577f4e487b7100000000000000000000000000000000000000000000000000000000600052603260045260246000fd5b60200260200101818152505050508080612a6290613f3d565b915050612906565b509392505050565b6000806000612a8185856130a8565b91509150858282604051602001612a999291906138e2565b60405160208183030381529060405280519060200120604051602001612ac092919061390e565b6040516020818303038152906040528051906020012060601c925050509392505050565b60005b60018351612af59190613dc2565b811015612db557600080848381518110612b38577f4e487b7100000000000000000000000000000000000000000000000000000000600052603260045260246000fd5b602002602001015185600185612b4e9190613ce1565b81518110612b85577f4e487b7100000000000000000000000000000000000000000000000000000000600052603260045260246000fd5b6020026020010151915091506000612b9d83836130a8565b509050600087600186612bb09190613ce1565b81518110612be7577f4e487b7100000000000000000000000000000000000000000000000000000000600052603260045260246000fd5b602002602001015190506000808373ffffffffffffffffffffffffffffffffffffffff168673ffffffffffffffffffffffffffffffffffffffff1614612c2f57826000612c33565b6000835b91509150600060028a51612c479190613dc2565b8810612c535788612cab565b612caa8c878c60028c612c669190613ce1565b81518110612c9d577f4e487b7100000000000000000000000000000000000000000000000000000000600052603260045260246000fd5b6020026020010151612a72565b5b9050612cb88c8888612a72565b73ffffffffffffffffffffffffffffffffffffffff1663022c0d9f848484600067ffffffffffffffff811115612d17577f4e487b7100000000000000000000000000000000000000000000000000000000600052604160045260246000fd5b6040519080825280601f01601f191660200182016040528015612d495781602001600182028036833780820191505090505b506040518563ffffffff1660e01b8152600401612d699493929190613c24565b600060405180830381600087803b158015612d8357600080fd5b505af1158015612d97573d6000803e3d6000fd5b50505050505050505050508080612dad90613f3d565b915050612ae7565b5050505050565b6000806000612dcb85856130a8565b509050600080612ddc888888612a72565b73ffffffffffffffffffffffffffffffffffffffff16630902f1ac6040518163ffffffff1660e01b815260040160606040518083038186803b158015612e2157600080fd5b505afa158015612e35573d6000803e3d6000fd5b505050506040513d601f19601f82011682018060405250810190612e5991906134fd565b506dffffffffffffffffffffffffffff1691506dffffffffffffffffffffffffffff1691508273ffffffffffffffffffffffffffffffffffffffff168773ffffffffffffffffffffffffffffffffffffffff1614612eb8578082612ebb565b81815b8095508196505050505050935093915050565b6000808411612f12576040517f08c379a0000000000000000000000000000000000000000000000000000000008152600401612f0990613ac4565b60405180910390fd5b600083118015612f225750600082115b612f61576040517f08c379a0000000000000000000000000000000000000000000000000000000008152600401612f5890613b44565b60405180910390fd5b60006103e88585612f729190613d68565b612f7c9190613d68565b905060006103e58685612f8f9190613dc2565b612f999190613dc2565b905060018183612fa99190613d37565b612fb39190613ce1565b925050509392505050565b6000808411613002576040517f08c379a0000000000000000000000000000000000000000000000000000000008152600401612ff990613be4565b60405180910390fd5b6000831180156130125750600082115b613051576040517f08c379a000000000000000000000000000000000000000000000000000000000815260040161304890613b44565b60405180910390fd5b60006103e5856130619190613d68565b9050600083826130719190613d68565b90506000826103e8876130849190613d68565b61308e9190613ce1565b9050808261309c9190613d37565b93505050509392505050565b6000808273ffffffffffffffffffffffffffffffffffffffff168473ffffffffffffffffffffffffffffffffffffffff16141561311a576040517f08c379a000000000000000000000000000000000000000000000000000000000815260040161311190613ae4565b60405180910390fd5b8273ffffffffffffffffffffffffffffffffffffffff168473ffffffffffffffffffffffffffffffffffffffff1610613154578284613157565b83835b8092508193505050600073ffffffffffffffffffffffffffffffffffffffff168273ffffffffffffffffffffffffffffffffffffffff1614156131cf576040517f08c379a00000000000000000000000000000000000000000000000000000000081526004016131c690613bc4565b60405180910390fd5b9250929050565b6000813590506131e58161446a565b92915050565b6000815190506131fa8161446a565b92915050565b60008083601f84011261321257600080fd5b8235905067ffffffffffffffff81111561322b57600080fd5b60208301915083602082028301111561324357600080fd5b9250929050565b60008151905061325981614481565b92915050565b60008135905061326e81614498565b92915050565b600081519050613283816144a8565b92915050565b600081359050613298816144bf565b92915050565b6000815190506132ad816144bf565b92915050565b6000815190506132c2816144d6565b92915050565b6000602082840312156132da57600080fd5b60006132e8848285016131d6565b91505092915050565b60006020828403121561330357600080fd5b6000613311848285016131eb565b91505092915050565b6000806040838503121561332d57600080fd5b600061333b858286016131d6565b925050602061334c85828601613289565b9150509250929050565b60006020828403121561336857600080fd5b60006133768482850161324a565b91505092915050565b6000806000806060858703121561339557600080fd5b60006133a38782880161325f565b94505060206133b487828801613289565b935050604085013567ffffffffffffffff8111156133d157600080fd5b6133dd87828801613200565b925092505092959194509250565b60008060008060006080868803121561340357600080fd5b60006134118882890161325f565b955050602061342288828901613289565b945050604061343388828901613289565b935050606086013567ffffffffffffffff81111561345057600080fd5b61345c88828901613200565b92509250509295509295909350565b60008060008060008060a0878903121561348457600080fd5b600061349289828a0161325f565b96505060206134a389828a01613289565b95505060406134b489828a01613289565b945050606087013567ffffffffffffffff8111156134d157600080fd5b6134dd89828a01613200565b935093505060806134f089828a01613289565b9150509295509295509295565b60008060006060848603121561351257600080fd5b600061352086828701613274565b935050602061353186828701613274565b9250506040613542868287016132b3565b9150509250925092565b60006020828403121561355e57600080fd5b600061356c84828501613289565b91505092915050565b60006020828403121561358757600080fd5b60006135958482850161329e565b91505092915050565b60006135aa83836138c4565b60208301905092915050565b6135bf81613df6565b82525050565b6135d66135d182613df6565b613f86565b82525050565b60006135e782613c80565b6135f18185613ca3565b93506135fc83613c70565b8060005b8381101561362d578151613614888261359e565b975061361f83613c96565b925050600181019050613600565b5085935050505092915050565b61364b61364682613e14565b613f98565b82525050565b600061365c82613c8b565b6136668185613cb4565b9350613676818560208601613ee0565b61367f81614041565b840191505092915050565b61369381613e98565b82525050565b6136a281613ebc565b82525050565b6136b181613ece565b82525050565b60006136c4603a83613cc5565b91506136cf8261405f565b604082019050919050565b60006136e7603e83613cc5565b91506136f2826140ae565b604082019050919050565b600061370a602c83613cc5565b9150613715826140fd565b604082019050919050565b600061372d602583613cc5565b91506137388261414c565b604082019050919050565b6000613750602883613cc5565b915061375b8261419b565b604082019050919050565b6000613773602083613cd6565b915061377e826141ea565b602082019050919050565b6000613796601e83613cc5565b91506137a182614213565b602082019050919050565b60006137b9602883613cc5565b91506137c48261423c565b604082019050919050565b60006137dc600183613cd6565b91506137e78261428b565b600182019050919050565b60006137ff602983613cc5565b915061380a826142b4565b604082019050919050565b6000613822601c83613cc5565b915061382d82614303565b602082019050919050565b6000613845602783613cc5565b91506138508261432c565b604082019050919050565b6000613868601e83613cc5565b91506138738261437b565b602082019050919050565b600061388b602b83613cc5565b9150613896826143a4565b604082019050919050565b60006138ae602883613cc5565b91506138b9826143f3565b604082019050919050565b6138cd81613e7e565b82525050565b6138dc81613e7e565b82525050565b60006138ee82856135c5565b6014820191506138fe82846135c5565b6014820191508190509392505050565b6000613919826137cf565b915061392582856135c5565b601482019150613935828461363a565b60208201915061394482613766565b91508190509392505050565b600060a08201905061396560008301886135b6565b61397260208301876135b6565b61397f60408301866135b6565b61398c60608301856138d3565b61399960808301846138d3565b9695505050505050565b60006060820190506139b860008301866135b6565b6139c560208301856135b6565b6139d260408301846138d3565b949350505050565b60006040820190506139ef60008301856135b6565b6139fc60208301846136a8565b9392505050565b6000604082019050613a1860008301856135b6565b613a2560208301846138d3565b9392505050565b60006020820190508181036000830152613a4681846135dc565b905092915050565b6000602082019050613a63600083018461368a565b92915050565b6000602082019050613a7e6000830184613699565b92915050565b60006020820190508181036000830152613a9d816136b7565b9050919050565b60006020820190508181036000830152613abd816136da565b9050919050565b60006020820190508181036000830152613add816136fd565b9050919050565b60006020820190508181036000830152613afd81613720565b9050919050565b60006020820190508181036000830152613b1d81613743565b9050919050565b60006020820190508181036000830152613b3d81613789565b9050919050565b60006020820190508181036000830152613b5d816137ac565b9050919050565b60006020820190508181036000830152613b7d816137f2565b9050919050565b60006020820190508181036000830152613b9d81613815565b9050919050565b60006020820190508181036000830152613bbd81613838565b9050919050565b60006020820190508181036000830152613bdd8161385b565b9050919050565b60006020820190508181036000830152613bfd8161387e565b9050919050565b60006020820190508181036000830152613c1d816138a1565b9050919050565b6000608082019050613c3960008301876138d3565b613c4660208301866138d3565b613c5360408301856135b6565b8181036060830152613c658184613651565b905095945050505050565b6000819050602082019050919050565b600081519050919050565b600081519050919050565b6000602082019050919050565b600082825260208201905092915050565b600082825260208201905092915050565b600082825260208201905092915050565b600081905092915050565b6000613cec82613e7e565b9150613cf783613e7e565b9250827fffffffffffffffffffffffffffffffffffffffffffffffffffffffffffffffff03821115613d2c57613d2b613fb4565b5b828201905092915050565b6000613d4282613e7e565b9150613d4d83613e7e565b925082613d5d57613d5c613fe3565b5b828204905092915050565b6000613d7382613e7e565b9150613d7e83613e7e565b9250817fffffffffffffffffffffffffffffffffffffffffffffffffffffffffffffffff0483118215151615613db757613db6613fb4565b5b828202905092915050565b6000613dcd82613e7e565b9150613dd883613e7e565b925082821015613deb57613dea613fb4565b5b828203905092915050565b6000613e0182613e5e565b9050919050565b60008115159050919050565b6000819050919050565b6000819050613e2c82614442565b919050565b6000819050613e3f82614456565b919050565b60006dffffffffffffffffffffffffffff82169050919050565b600073ffffffffffffffffffffffffffffffffffffffff82169050919050565b6000819050919050565b600063ffffffff82169050919050565b6000613ea382613eaa565b9050919050565b6000613eb582613e5e565b9050919050565b6000613ec782613e1e565b9050919050565b6000613ed982613e31565b9050919050565b60005b83811015613efe578082015181840152602081019050613ee3565b83811115613f0d576000848401525b50505050565b6000613f1e82613e7e565b91506000821415613f3257613f31613fb4565b5b600182039050919050565b6000613f4882613e7e565b91507fffffffffffffffffffffffffffffffffffffffffffffffffffffffffffffffff821415613f7b57613f7a613fb4565b5b600182019050919050565b6000613f9182613fa2565b9050919050565b6000819050919050565b6000613fad82614052565b9050919050565b7f4e487b7100000000000000000000000000000000000000000000000000000000600052601160045260246000fd5b7f4e487b7100000000000000000000000000000000000000000000000000000000600052601260045260246000fd5b7f4e487b7100000000000000000000000000000000000000000000000000000000600052602160045260246000fd5b6000601f19601f8301169050919050565b60008160601b9050919050565b7f43757272656e746c79206e6f20696e7465726d656469617269657320616c6c6f60008201527f77656420666f7220746869732066756e6374696f6e2063616c6c000000000000602082015250565b7f43616c6c696e6720636f6e7472616374206973206e6f7420617574686f72697a60008201527f656420746f20747261646520776974682070726f746f636c2066756e64730000602082015250565b7f556e697377617056324c6962726172793a20494e53554646494349454e545f4f60008201527f55545055545f414d4f554e540000000000000000000000000000000000000000602082015250565b7f556e697377617056324c6962726172793a204944454e544943414c5f4144445260008201527f4553534553000000000000000000000000000000000000000000000000000000602082015250565b7f4d617267696e526f757465723a20496e73756666696369656e74206c656e646960008201527f6e672066756e6473000000000000000000000000000000000000000000000000602082015250565b7f96e8ac4277198ff8b6f785478aa9a39f403cb768dd02cbee326c3e7da348845f600082015250565b7f556e697377617056324c6962726172793a20494e56414c49445f504154480000600082015250565b7f556e697377617056324c6962726172793a20494e53554646494349454e545f4c60008201527f4951554944495459000000000000000000000000000000000000000000000000602082015250565b7fff00000000000000000000000000000000000000000000000000000000000000600082015250565b7f43616e6e6f74207472616e73666572206465706f73697420746f206d6172676960008201527f6e206163636f756e740000000000000000000000000000000000000000000000602082015250565b7f436f756c64206e6f742077697468647261772066726f6d2066756e6400000000600082015250565b7f556e69737761705632526f757465723a204558434553534956455f494e50555460008201527f5f414d4f554e5400000000000000000000000000000000000000000000000000602082015250565b7f556e697377617056324c6962726172793a205a45524f5f414444524553530000600082015250565b7f556e697377617056324c6962726172793a20494e53554646494349454e545f4960008201527f4e5055545f414d4f554e54000000000000000000000000000000000000000000602082015250565b7f4d617267696e526f757465723a20494e53554646494349454e545f4f5554505560008201527f545f414d4f554e54000000000000000000000000000000000000000000000000602082015250565b6006811061445357614452614012565b5b50565b6008811061446757614466614012565b5b50565b61447381613df6565b811461447e57600080fd5b50565b61448a81613e08565b811461449557600080fd5b50565b600481106144a557600080fd5b50565b6144b181613e44565b81146144bc57600080fd5b50565b6144c881613e7e565b81146144d357600080fd5b50565b6144df81613e88565b81146144ea57600080fd5b5056fea2646970667358221220840c5f97a6ff550ea482766b624b553f192e0438680707741f0b36c28ecf057064736f6c63430008010033",
  "linkReferences": {},
  "deployedLinkReferences": {}
}