{
  "_format": "hh-sol-artifact-1",
  "contractName": "MarginRouter",
  "sourceName": "contracts/MarginRouter.sol",
  "abi": [
    {
      "inputs": [
        {
          "internalType": "address",
          "name": "uniswapFactory",
          "type": "address"
        },
        {
          "internalType": "address",
          "name": "sushiswapFactory",
          "type": "address"
        },
        {
          "internalType": "address",
          "name": "_WETH",
          "type": "address"
        },
        {
          "internalType": "address",
          "name": "_roles",
          "type": "address"
        }
      ],
      "stateMutability": "nonpayable",
      "type": "constructor"
    },
    {
      "anonymous": false,
      "inputs": [
        {
          "indexed": false,
          "internalType": "address",
          "name": "trader",
          "type": "address"
        },
        {
          "indexed": false,
          "internalType": "address",
          "name": "borrowToken",
          "type": "address"
        },
        {
          "indexed": false,
          "internalType": "uint256",
          "name": "borrowAmount",
          "type": "uint256"
        }
      ],
      "name": "CrossBorrow",
      "type": "event"
    },
    {
      "anonymous": false,
      "inputs": [
        {
          "indexed": false,
          "internalType": "address",
          "name": "trader",
          "type": "address"
        },
        {
          "indexed": false,
          "internalType": "address",
          "name": "depositToken",
          "type": "address"
        },
        {
          "indexed": false,
          "internalType": "uint256",
          "name": "depositAmount",
          "type": "uint256"
        }
      ],
      "name": "CrossDeposit",
      "type": "event"
    },
    {
      "anonymous": false,
      "inputs": [
        {
          "indexed": false,
          "internalType": "address",
          "name": "trader",
          "type": "address"
        },
        {
          "indexed": false,
          "internalType": "address",
          "name": "inToken",
          "type": "address"
        },
        {
          "indexed": false,
          "internalType": "uint256",
          "name": "inTokenAmount",
          "type": "uint256"
        },
        {
          "indexed": false,
          "internalType": "uint256",
          "name": "inTokenBorrow",
          "type": "uint256"
        },
        {
          "indexed": false,
          "internalType": "address",
          "name": "outToken",
          "type": "address"
        },
        {
          "indexed": false,
          "internalType": "uint256",
          "name": "outTokenAmount",
          "type": "uint256"
        },
        {
          "indexed": false,
          "internalType": "uint256",
          "name": "outTokenExtinguish",
          "type": "uint256"
        }
      ],
      "name": "CrossTrade",
      "type": "event"
    },
    {
      "anonymous": false,
      "inputs": [
        {
          "indexed": false,
          "internalType": "address",
          "name": "trader",
          "type": "address"
        },
        {
          "indexed": false,
          "internalType": "address",
          "name": "withdrawToken",
          "type": "address"
        },
        {
          "indexed": false,
          "internalType": "uint256",
          "name": "withdrawAmount",
          "type": "uint256"
        }
      ],
      "name": "CrossWithdraw",
      "type": "event"
    },
    {
      "inputs": [],
      "name": "ADMIN",
      "outputs": [
        {
          "internalType": "uint16",
          "name": "",
          "type": "uint16"
        }
      ],
      "stateMutability": "view",
      "type": "function"
    },
    {
      "inputs": [],
      "name": "AUTHORIZED_FUND_TRADER",
      "outputs": [
        {
          "internalType": "uint16",
          "name": "",
          "type": "uint16"
        }
      ],
      "stateMutability": "view",
      "type": "function"
    },
    {
      "inputs": [],
      "name": "BORROWER",
      "outputs": [
        {
          "internalType": "uint16",
          "name": "",
          "type": "uint16"
        }
      ],
      "stateMutability": "view",
      "type": "function"
    },
    {
      "inputs": [],
      "name": "FEE_CONTROLLER",
      "outputs": [
        {
          "internalType": "uint16",
          "name": "",
          "type": "uint16"
        }
      ],
      "stateMutability": "view",
      "type": "function"
    },
    {
      "inputs": [],
      "name": "FEE_SOURCE",
      "outputs": [
        {
          "internalType": "uint16",
          "name": "",
          "type": "uint16"
        }
      ],
      "stateMutability": "view",
      "type": "function"
    },
    {
      "inputs": [],
      "name": "FUND",
      "outputs": [
        {
          "internalType": "uint16",
          "name": "",
          "type": "uint16"
        }
      ],
      "stateMutability": "view",
      "type": "function"
    },
    {
      "inputs": [],
      "name": "INCENTIVE_DISTRIBUTION",
      "outputs": [
        {
          "internalType": "uint16",
          "name": "",
          "type": "uint16"
        }
      ],
      "stateMutability": "view",
      "type": "function"
    },
    {
      "inputs": [],
      "name": "INCENTIVE_REPORTER",
      "outputs": [
        {
          "internalType": "uint16",
          "name": "",
          "type": "uint16"
        }
      ],
      "stateMutability": "view",
      "type": "function"
    },
    {
      "inputs": [],
      "name": "LENDING",
      "outputs": [
        {
          "internalType": "uint16",
          "name": "",
          "type": "uint16"
        }
      ],
      "stateMutability": "view",
      "type": "function"
    },
    {
      "inputs": [],
      "name": "LIQUIDATOR",
      "outputs": [
        {
          "internalType": "uint16",
          "name": "",
          "type": "uint16"
        }
      ],
      "stateMutability": "view",
      "type": "function"
    },
    {
      "inputs": [],
      "name": "MARGIN_CALLER",
      "outputs": [
        {
          "internalType": "uint16",
          "name": "",
          "type": "uint16"
        }
      ],
      "stateMutability": "view",
      "type": "function"
    },
    {
      "inputs": [],
      "name": "MARGIN_TRADER",
      "outputs": [
        {
          "internalType": "uint16",
          "name": "",
          "type": "uint16"
        }
      ],
      "stateMutability": "view",
      "type": "function"
    },
    {
      "inputs": [],
      "name": "MARGIN_TRADING",
      "outputs": [
        {
          "internalType": "uint16",
          "name": "",
          "type": "uint16"
        }
      ],
      "stateMutability": "view",
      "type": "function"
    },
    {
      "inputs": [],
      "name": "PRICE_CONTROLLER",
      "outputs": [
        {
          "internalType": "uint16",
          "name": "",
          "type": "uint16"
        }
      ],
      "stateMutability": "view",
      "type": "function"
    },
    {
      "inputs": [],
      "name": "ROUTER",
      "outputs": [
        {
          "internalType": "uint16",
          "name": "",
          "type": "uint16"
        }
      ],
      "stateMutability": "view",
      "type": "function"
    },
    {
      "inputs": [],
      "name": "STAKE_PENALIZER",
      "outputs": [
        {
          "internalType": "uint16",
          "name": "",
          "type": "uint16"
        }
      ],
      "stateMutability": "view",
      "type": "function"
    },
    {
      "inputs": [],
      "name": "TOKEN_ACTIVATOR",
      "outputs": [
        {
          "internalType": "uint16",
          "name": "",
          "type": "uint16"
        }
      ],
      "stateMutability": "view",
      "type": "function"
    },
    {
      "inputs": [],
      "name": "WITHDRAWER",
      "outputs": [
        {
          "internalType": "uint16",
          "name": "",
          "type": "uint16"
        }
      ],
      "stateMutability": "view",
      "type": "function"
    },
    {
      "inputs": [
        {
          "internalType": "enum AMM",
          "name": "amm",
          "type": "uint8"
        },
        {
          "internalType": "uint256",
          "name": "amountIn",
          "type": "uint256"
        },
        {
          "internalType": "uint256",
          "name": "amountOutMin",
          "type": "uint256"
        },
        {
          "internalType": "address[]",
          "name": "path",
          "type": "address[]"
        }
      ],
      "name": "authorizedSwapExactT4T",
      "outputs": [
        {
          "internalType": "uint256[]",
          "name": "",
          "type": "uint256[]"
        }
      ],
      "stateMutability": "nonpayable",
      "type": "function"
    },
    {
      "inputs": [
        {
          "internalType": "enum AMM",
          "name": "amm",
          "type": "uint8"
        },
        {
          "internalType": "uint256",
          "name": "amountOut",
          "type": "uint256"
        },
        {
          "internalType": "uint256",
          "name": "amountInMax",
          "type": "uint256"
        },
        {
          "internalType": "address[]",
          "name": "path",
          "type": "address[]"
        }
      ],
      "name": "authorizedSwapT4ExactT",
      "outputs": [
        {
          "internalType": "uint256[]",
          "name": "",
          "type": "uint256[]"
        }
      ],
      "stateMutability": "nonpayable",
      "type": "function"
    },
    {
      "inputs": [
        {
          "internalType": "address",
          "name": "",
          "type": "address"
        },
        {
          "internalType": "address",
          "name": "",
          "type": "address"
        }
      ],
      "name": "claimIds",
      "outputs": [
        {
          "internalType": "uint256",
          "name": "",
          "type": "uint256"
        }
      ],
      "stateMutability": "view",
      "type": "function"
    },
    {
      "inputs": [
        {
          "internalType": "address",
          "name": "borrowToken",
          "type": "address"
        },
        {
          "internalType": "uint256",
          "name": "borrowAmount",
          "type": "uint256"
        }
      ],
      "name": "crossBorrow",
      "outputs": [],
      "stateMutability": "nonpayable",
      "type": "function"
    },
    {
      "inputs": [
        {
          "internalType": "address",
          "name": "depositToken",
          "type": "address"
        },
        {
          "internalType": "uint256",
          "name": "depositAmount",
          "type": "uint256"
        }
      ],
      "name": "crossDeposit",
      "outputs": [],
      "stateMutability": "nonpayable",
      "type": "function"
    },
    {
      "inputs": [],
      "name": "crossDepositETH",
      "outputs": [],
      "stateMutability": "payable",
      "type": "function"
    },
    {
      "inputs": [
        {
          "internalType": "enum AMM",
          "name": "amm",
          "type": "uint8"
        },
        {
          "internalType": "uint256",
          "name": "amountIn",
          "type": "uint256"
        },
        {
          "internalType": "uint256",
          "name": "amountOutMin",
          "type": "uint256"
        },
        {
          "internalType": "address[]",
          "name": "path",
          "type": "address[]"
        },
        {
          "internalType": "uint256",
          "name": "deadline",
          "type": "uint256"
        }
      ],
      "name": "crossSwapExactTokensForTokens",
      "outputs": [
        {
          "internalType": "uint256[]",
          "name": "amounts",
          "type": "uint256[]"
        }
      ],
      "stateMutability": "nonpayable",
      "type": "function"
    },
    {
      "inputs": [
        {
          "internalType": "enum AMM",
          "name": "amm",
          "type": "uint8"
        },
        {
          "internalType": "uint256",
          "name": "amountOut",
          "type": "uint256"
        },
        {
          "internalType": "uint256",
          "name": "amountInMax",
          "type": "uint256"
        },
        {
          "internalType": "address[]",
          "name": "path",
          "type": "address[]"
        },
        {
          "internalType": "uint256",
          "name": "deadline",
          "type": "uint256"
        }
      ],
      "name": "crossSwapTokensForExactTokens",
      "outputs": [
        {
          "internalType": "uint256[]",
          "name": "amounts",
          "type": "uint256[]"
        }
      ],
      "stateMutability": "nonpayable",
      "type": "function"
    },
    {
      "inputs": [
        {
          "internalType": "address",
          "name": "withdrawToken",
          "type": "address"
        },
        {
          "internalType": "uint256",
          "name": "withdrawAmount",
          "type": "uint256"
        }
      ],
      "name": "crossWithdraw",
      "outputs": [],
      "stateMutability": "nonpayable",
      "type": "function"
    },
    {
      "inputs": [
        {
          "internalType": "uint256",
          "name": "withdrawAmount",
          "type": "uint256"
        }
      ],
      "name": "crossWithdrawETH",
      "outputs": [],
      "stateMutability": "nonpayable",
      "type": "function"
    },
    {
      "inputs": [
        {
          "internalType": "enum AMM",
          "name": "amm",
          "type": "uint8"
        },
        {
          "internalType": "uint256",
          "name": "outAmount",
          "type": "uint256"
        },
        {
          "internalType": "address[]",
          "name": "path",
          "type": "address[]"
        }
      ],
      "name": "getAmountsIn",
      "outputs": [
        {
          "internalType": "uint256[]",
          "name": "",
          "type": "uint256[]"
        }
      ],
      "stateMutability": "view",
      "type": "function"
    },
    {
      "inputs": [
        {
          "internalType": "enum AMM",
          "name": "amm",
          "type": "uint8"
        },
        {
          "internalType": "uint256",
          "name": "inAmount",
          "type": "uint256"
        },
        {
          "internalType": "address[]",
          "name": "path",
          "type": "address[]"
        }
      ],
      "name": "getAmountsOut",
      "outputs": [
        {
          "internalType": "uint256[]",
          "name": "",
          "type": "uint256[]"
        }
      ],
      "stateMutability": "view",
      "type": "function"
    },
    {
      "inputs": [
        {
          "internalType": "address",
          "name": "",
          "type": "address"
        }
      ],
      "name": "incentiveTranches",
      "outputs": [
        {
          "internalType": "uint8",
          "name": "",
          "type": "uint8"
        }
      ],
      "stateMutability": "view",
      "type": "function"
    },
    {
      "inputs": [],
      "name": "roles",
      "outputs": [
        {
          "internalType": "contract Roles",
          "name": "",
          "type": "address"
        }
      ],
      "stateMutability": "view",
      "type": "function"
    },
    {
      "inputs": [
        {
          "internalType": "address",
          "name": "token",
          "type": "address"
        },
        {
          "internalType": "uint8",
          "name": "tranche",
          "type": "uint8"
        }
      ],
      "name": "setIncentiveTranche",
      "outputs": [],
      "stateMutability": "nonpayable",
      "type": "function"
    }
  ],
  "bytecode": "0x60806040523480156200001157600080fd5b5060405162003ce538038062003ce58339810160408190526200003491620000e8565b600080546001600160a01b03199081166001600160a01b0393841617825560036020527f3617319a054d772f909f7c479a2cebe5066e836a939412e32403c99029b92eff8054821696841696909617909555600190527fa15bc60c955c405d20d9149c709e2460f1c2d9a497496a7f46004d1772c3054c805485169382169390931790925560048054909316911617905562000144565b80516001600160a01b0381168114620000e357600080fd5b919050565b60008060008060808587031215620000fe578384fd5b6200010985620000cb565b93506200011960208601620000cb565b92506200012960408601620000cb565b91506200013960608601620000cb565b905092959194509250565b613b9180620001546000396000f3fe6080604052600436106101fe5760003560e01c80635c275a391161011d578063a5f9a362116100b0578063cacf8d451161007f578063e3e0626b11610064578063e3e0626b14610526578063eaa095f814610546578063eedb97c714610566576101fe565b8063cacf8d45146104fc578063d5d7ed7f14610511576101fe565b8063a5f9a3621461049d578063a94c7c34146104bd578063a9cc0536146104d2578063c76139d0146104e7576101fe565b80638824cbba116100ec5780638824cbba1461043357806390b931ed1461046057806394427b2014610480578063a0098d6914610488576101fe565b80635c275a39146103df57806366941984146103f457806381ca66001461040957806383a49c7c1461041e576101fe565b80632864f40111610195578063392f5f6411610164578063392f5f641461036657806346b887961461038857806348fb27b81461039d5780635adbeb15146103b2576101fe565b80632864f401146103075780632a0acc6a146103275780632fe94def1461033c57806332fe7b2614610351576101fe565b80631bc5d81d116101d15780631bc5d81d146102925780631dce3baa146102a75780631f2a6743146102c75780632233c436146102e7576101fe565b8063065d570f146102035780630aa29f1c1461022e5780631306d9021461025b5780631b6695071461027d575b600080fd5b34801561020f57600080fd5b50610218610586565b60405161022591906138bb565b60405180910390f35b34801561023a57600080fd5b5061024e6102493660046130c0565b61058b565b60405161022591906133d8565b34801561026757600080fd5b5061027b610276366004612feb565b610689565b005b34801561028957600080fd5b506102186108b4565b34801561029e57600080fd5b506102186108b9565b3480156102b357600080fd5b5061027b6102c23660046131e2565b6108be565b3480156102d357600080fd5b5061024e6102e23660046130c0565b6109c9565b3480156102f357600080fd5b5061024e610302366004613126565b610ab2565b34801561031357600080fd5b5061027b610322366004613016565b610d90565b34801561033357600080fd5b50610218610e27565b34801561034857600080fd5b50610218610e2c565b34801561035d57600080fd5b50610218610e31565b34801561037257600080fd5b5061037b610e36565b604051610225919061341c565b34801561039457600080fd5b50610218610e52565b3480156103a957600080fd5b50610218610e57565b3480156103be57600080fd5b506103d26103cd366004612fb3565b610e5c565b60405161022591906138f4565b3480156103eb57600080fd5b50610218610e79565b34801561040057600080fd5b50610218610e7e565b34801561041557600080fd5b50610218610e83565b34801561042a57600080fd5b50610218610e88565b34801561043f57600080fd5b5061045361044e366004612f74565b610e8d565b604051610225919061399a565b34801561046c57600080fd5b5061024e61047b366004613068565b610ea2565b61027b610f94565b34801561049457600080fd5b506102186111c9565b3480156104a957600080fd5b5061024e6104b8366004613126565b6111ce565b3480156104c957600080fd5b506102186114a3565b3480156104de57600080fd5b506102186114a8565b3480156104f357600080fd5b506102186114ad565b34801561050857600080fd5b506102186114b2565b34801561051d57600080fd5b506102186114b7565b34801561053257600080fd5b5061027b610541366004612feb565b6114bc565b34801561055257600080fd5b5061024e610561366004613068565b61163d565b34801561057257600080fd5b5061027b610581366004612feb565b611725565b600381565b60606105963361184d565b6105d5576040517f08c379a00000000000000000000000000000000000000000000000000000000081526004016105cc9061349a565b60405180910390fd5b61067d60036000886003811115610615577f4e487b7100000000000000000000000000000000000000000000000000000000600052602160045260246000fd5b600381111561064d577f4e487b7100000000000000000000000000000000000000000000000000000000600052602160045260246000fd5b815260208101919091526040016000205473ffffffffffffffffffffffffffffffffffffffff16868686866118ff565b90505b95945050505050565b610691611c10565b73ffffffffffffffffffffffffffffffffffffffff1663b3db428b3384846040518463ffffffff1660e01b81526004016106cd93929190613331565b602060405180830381600087803b1580156106e757600080fd5b505af11580156106fb573d6000803e3d6000fd5b505050506040513d601f19601f8201168201806040525081019061071f9190613048565b610755576040517f08c379a00000000000000000000000000000000000000000000000000000000081526004016105cc906136d9565b600061075f611cbd565b73ffffffffffffffffffffffffffffffffffffffff166352a664d93385856040518463ffffffff1660e01b815260040161079b93929190613331565b602060405180830381600087803b1580156107b557600080fd5b505af11580156107c9573d6000803e3d6000fd5b505050506040513d601f19601f820116820180604052508101906107ed91906131fa565b90508015610874576107fd611d15565b73ffffffffffffffffffffffffffffffffffffffff16632a6a897b84836040518363ffffffff1660e01b81526004016108379291906133b2565b600060405180830381600087803b15801561085157600080fd5b505af1158015610865573d6000803e3d6000fd5b50505050610874338483611d6d565b7f2f7971a38b280a622029ac616d8d562df278b4b5839a7b124c33a1715ae092993384846040516108a793929190613331565b60405180910390a1505050565b600a81565b600881565b6108c6611cbd565b600480546040517fd0eb665300000000000000000000000000000000000000000000000000000000815273ffffffffffffffffffffffffffffffffffffffff9384169363d0eb665393610920933393921691879101613331565b600060405180830381600087803b15801561093a57600080fd5b505af115801561094e573d6000803e3d6000fd5b5050505061095a611c10565b73ffffffffffffffffffffffffffffffffffffffff16634782f77933836040518363ffffffff1660e01b81526004016109949291906133b2565b600060405180830381600087803b1580156109ae57600080fd5b505af11580156109c2573d6000803e3d6000fd5b5050505050565b60606109d43361184d565b610a0a576040517f08c379a00000000000000000000000000000000000000000000000000000000081526004016105cc9061349a565b61067d60036000886003811115610a4a577f4e487b7100000000000000000000000000000000000000000000000000000000600052602160045260246000fd5b6003811115610a82577f4e487b7100000000000000000000000000000000000000000000000000000000600052602160045260246000fd5b815260208101919091526040016000205473ffffffffffffffffffffffffffffffffffffffff1686868686611e2b565b60608142811015610aef576040517f08c379a00000000000000000000000000000000000000000000000000000000081526004016105cc906134f7565b6000610af9611ee8565b73ffffffffffffffffffffffffffffffffffffffff166367cbf42d8787610b21600182613a82565b818110610b57577f4e487b7100000000000000000000000000000000000000000000000000000000600052603260045260246000fd5b9050602002016020810190610b6c9190612f74565b8a6040518363ffffffff1660e01b8152600401610b8a9291906133b2565b602060405180830381600087803b158015610ba457600080fd5b505af1158015610bb8573d6000803e3d6000fd5b505050506040513d601f19601f82011682018060405250810190610bdc91906131fa565b9050610c8f600360008b6003811115610c1e577f4e487b7100000000000000000000000000000000000000000000000000000000600052602160045260246000fd5b6003811115610c56577f4e487b7100000000000000000000000000000000000000000000000000000000600052602160045260246000fd5b815260208101919091526040016000205473ffffffffffffffffffffffffffffffffffffffff16610c87838b6139f4565b898989611e2b565b9250610d843387876000818110610ccf577f4e487b7100000000000000000000000000000000000000000000000000000000600052603260045260246000fd5b9050602002016020810190610ce49190612f74565b8888610cf1600182613a82565b818110610d27577f4e487b7100000000000000000000000000000000000000000000000000000000600052603260045260246000fd5b9050602002016020810190610d3c9190612f74565b86600081518110610d76577f4e487b7100000000000000000000000000000000000000000000000000000000600052603260045260246000fd5b60200260200101518c611f40565b50509695505050505050565b610d9933612137565b610dcf576040517f08c379a00000000000000000000000000000000000000000000000000000000081526004016105cc9061343d565b73ffffffffffffffffffffffffffffffffffffffff91909116600090815260016020526040902080547fffffffffffffffffffffffffffffffffffffffffffffffffffffffffffffff001660ff909216919091179055565b606b81565b606981565b606781565b60005473ffffffffffffffffffffffffffffffffffffffff1681565b600681565b606681565b600260209081526000928352604080842090915290825290205481565b606581565b600181565b606a81565b600981565b60016020526000908152604090205460ff1681565b6060600060036000876003811115610ee3577f4e487b7100000000000000000000000000000000000000000000000000000000600052602160045260246000fd5b6003811115610f1b577f4e487b7100000000000000000000000000000000000000000000000000000000600052602160045260246000fd5b815260200190815260200160002060009054906101000a900473ffffffffffffffffffffffffffffffffffffffff169050610f8a818686868080602002602001604051908101604052809392919081815260200183836020028082843760009201919091525061219192505050565b9695505050505050565b610f9c611c10565b73ffffffffffffffffffffffffffffffffffffffff1663a6a5f9fe346040518263ffffffff1660e01b81526004016000604051808303818588803b158015610fe357600080fd5b505af1158015610ff7573d6000803e3d6000fd5b50505050506000611006611cbd565b600480546040517f52a664d900000000000000000000000000000000000000000000000000000000815273ffffffffffffffffffffffffffffffffffffffff938416936352a664d993611060933393921691349101613331565b602060405180830381600087803b15801561107a57600080fd5b505af115801561108e573d6000803e3d6000fd5b505050506040513d601f19601f820116820180604052508101906110b291906131fa565b90508015611172576110c2611d15565b600480546040517f2a6a897b00000000000000000000000000000000000000000000000000000000815273ffffffffffffffffffffffffffffffffffffffff93841693632a6a897b9361111b93909116918691016133b2565b600060405180830381600087803b15801561113557600080fd5b505af1158015611149573d6000803e3d6000fd5b5050600454611172925033915073ffffffffffffffffffffffffffffffffffffffff1683611d6d565b6004546040517f2f7971a38b280a622029ac616d8d562df278b4b5839a7b124c33a1715ae09299916111be91339173ffffffffffffffffffffffffffffffffffffffff16903490613331565b60405180910390a150565b600281565b6060814281101561120b576040517f08c379a00000000000000000000000000000000000000000000000000000000081526004016105cc906134f7565b6000611215611ee8565b73ffffffffffffffffffffffffffffffffffffffff16633f0e9edf8787600081811061126a577f4e487b7100000000000000000000000000000000000000000000000000000000600052603260045260246000fd5b905060200201602081019061127f9190612f74565b8a6040518363ffffffff1660e01b815260040161129d9291906133b2565b602060405180830381600087803b1580156112b757600080fd5b505af11580156112cb573d6000803e3d6000fd5b505050506040513d601f19601f820116820180604052508101906112ef91906131fa565b90506113a2600360008b6003811115611331577f4e487b7100000000000000000000000000000000000000000000000000000000600052602160045260246000fd5b6003811115611369577f4e487b7100000000000000000000000000000000000000000000000000000000600052602160045260246000fd5b815260208101919091526040016000205473ffffffffffffffffffffffffffffffffffffffff1661139a838b613a82565b8989896118ff565b9250610d8433878760008181106113e2577f4e487b7100000000000000000000000000000000000000000000000000000000600052603260045260246000fd5b90506020020160208101906113f79190612f74565b8888611404600182613a82565b81811061143a577f4e487b7100000000000000000000000000000000000000000000000000000000600052603260045260246000fd5b905060200201602081019061144f9190612f74565b8b876001895161145f9190613a82565b81518110611496577f4e487b7100000000000000000000000000000000000000000000000000000000600052603260045260246000fd5b6020026020010151611f40565b600581565b606881565b606c81565b600481565b600781565b6114c4611cbd565b73ffffffffffffffffffffffffffffffffffffffff1663d0eb66533384846040518463ffffffff1660e01b815260040161150093929190613331565b600060405180830381600087803b15801561151a57600080fd5b505af115801561152e573d6000803e3d6000fd5b5050505061153a611c10565b73ffffffffffffffffffffffffffffffffffffffff1663d9caed128333846040518463ffffffff1660e01b815260040161157693929190613331565b602060405180830381600087803b15801561159057600080fd5b505af11580156115a4573d6000803e3d6000fd5b505050506040513d601f19601f820116820180604052508101906115c89190613048565b6115fe576040517f08c379a00000000000000000000000000000000000000000000000000000000081526004016105cc90613736565b7f69725482a69b3feb662528aa4b8028c1f9f6288b9ef746d5c84a847e05ad0d6b33838360405161163193929190613331565b60405180910390a15050565b606060006003600087600381111561167e577f4e487b7100000000000000000000000000000000000000000000000000000000600052602160045260246000fd5b60038111156116b6577f4e487b7100000000000000000000000000000000000000000000000000000000600052602160045260246000fd5b815260200190815260200160002060009054906101000a900473ffffffffffffffffffffffffffffffffffffffff169050610f8a81868686808060200260200160405190810160405280939291908181526020018383602002808284376000920191909152506123fb92505050565b61172d611d15565b73ffffffffffffffffffffffffffffffffffffffff1663ee0862bf83836040518363ffffffff1660e01b81526004016117679291906133b2565b600060405180830381600087803b15801561178157600080fd5b505af1158015611795573d6000803e3d6000fd5b505050506117a1611cbd565b73ffffffffffffffffffffffffffffffffffffffff1663498d55eb3384846040518463ffffffff1660e01b81526004016117dd93929190613331565b600060405180830381600087803b1580156117f757600080fd5b505af115801561180b573d6000803e3d6000fd5b5050505061181a338383612645565b7fd160a035f47ba1f22446570a0c0f33960590c1e03b5ae81e67f8fdc4c721f4da33838360405161163193929190613331565b600080546040517fd87fefd200000000000000000000000000000000000000000000000000000000815273ffffffffffffffffffffffffffffffffffffffff9091169063d87fefd2906118a79060079086906004016138ca565b60206040518083038186803b1580156118bf57600080fd5b505afa1580156118d3573d6000803e3d6000fd5b505050506040513d601f19601f820116820180604052508101906118f79190613048565b90505b919050565b606061193f86868585808060200260200160405190810160405280939291908181526020018383602002808284376000920191909152506123fb92505050565b90508381600183516119519190613a82565b81518110611988577f4e487b7100000000000000000000000000000000000000000000000000000000600052603260045260246000fd5b602002602001015110156119c8576040517f08c379a00000000000000000000000000000000000000000000000000000000081526004016105cc9061385e565b6119d0611c10565b73ffffffffffffffffffffffffffffffffffffffff1663d9caed1284846000818110611a25577f4e487b7100000000000000000000000000000000000000000000000000000000600052603260045260246000fd5b9050602002016020810190611a3a9190612f74565b611ae18987876000818110611a78577f4e487b7100000000000000000000000000000000000000000000000000000000600052603260045260246000fd5b9050602002016020810190611a8d9190612f74565b88886001818110611ac7577f4e487b7100000000000000000000000000000000000000000000000000000000600052603260045260246000fd5b9050602002016020810190611adc9190612f74565b61280f565b84600081518110611b1b577f4e487b7100000000000000000000000000000000000000000000000000000000600052603260045260246000fd5b60200260200101516040518463ffffffff1660e01b8152600401611b4193929190613331565b602060405180830381600087803b158015611b5b57600080fd5b505af1158015611b6f573d6000803e3d6000fd5b505050506040513d601f19601f82011682018060405250810190611b939190613048565b611bc9576040517f08c379a00000000000000000000000000000000000000000000000000000000081526004016105cc906135e8565b6106808682858580806020026020016040519081016040528093929190818152602001838360200280828437600092019190915250611c0b9250611c10915050565b612881565b600080546040517f3c9c8f9c00000000000000000000000000000000000000000000000000000000815273ffffffffffffffffffffffffffffffffffffffff90911690633c9c8f9c90611c68906065906004016138bb565b60206040518083038186803b158015611c8057600080fd5b505afa158015611c94573d6000803e3d6000fd5b505050506040513d601f19601f82011682018060405250810190611cb89190612f97565b905090565b600080546040517f3c9c8f9c00000000000000000000000000000000000000000000000000000000815273ffffffffffffffffffffffffffffffffffffffff90911690633c9c8f9c90611c68906068906004016138bb565b600080546040517f3c9c8f9c00000000000000000000000000000000000000000000000000000000815273ffffffffffffffffffffffffffffffffffffffff90911690633c9c8f9c90611c68906066906004016138bb565b73ffffffffffffffffffffffffffffffffffffffff808416600090815260026020908152604080832093861683529281528282205460019091529190205460ff16611db6612b06565b73ffffffffffffffffffffffffffffffffffffffff1663a80167118284866040518463ffffffff1660e01b8152600401611df2939291906139d9565b600060405180830381600087803b158015611e0c57600080fd5b505af1158015611e20573d6000803e3d6000fd5b505050505050505050565b6060611e6b868685858080602002602001604051908101604052809392919081815260200183836020028082843760009201919091525061219192505050565b90508381600081518110611ea8577f4e487b7100000000000000000000000000000000000000000000000000000000600052603260045260246000fd5b602002602001015111156119c8576040517f08c379a00000000000000000000000000000000000000000000000000000000081526004016105cc9061376d565b600080546040517f3c9c8f9c00000000000000000000000000000000000000000000000000000000815273ffffffffffffffffffffffffffffffffffffffff90911690633c9c8f9c90611c68906069906004016138bb565b600080611f4b611cbd565b73ffffffffffffffffffffffffffffffffffffffff16633500aa0b88888888886040518663ffffffff1660e01b8152600401611f8b9594939291906132f0565b6040805180830381600087803b158015611fa457600080fd5b505af1158015611fb8573d6000803e3d6000fd5b505050506040513d601f19601f82011682018060405250810190611fdc9190613212565b9092509050811561206657611fef611d15565b73ffffffffffffffffffffffffffffffffffffffff16632a6a897b86846040518363ffffffff1660e01b81526004016120299291906133b2565b600060405180830381600087803b15801561204357600080fd5b505af1158015612057573d6000803e3d6000fd5b50505050612066878684611d6d565b80156120eb57612074611d15565b73ffffffffffffffffffffffffffffffffffffffff1663ee0862bf86836040518363ffffffff1660e01b81526004016120ae9291906133b2565b600060405180830381600087803b1580156120c857600080fd5b505af11580156120dc573d6000803e3d6000fd5b505050506120eb878783612645565b7ffda7842105bd0ae9d4c9616a1d48b1e9f17e2d97cb890d021c291e7d1b53929f878786848988886040516121269796959493929190613362565b60405180910390a150505050505050565b600080546040517fd87fefd200000000000000000000000000000000000000000000000000000000815273ffffffffffffffffffffffffffffffffffffffff9091169063d87fefd2906118a79060099086906004016138ca565b60606002825110156121cf576040517f08c379a00000000000000000000000000000000000000000000000000000000081526004016105cc90613645565b815167ffffffffffffffff811115612210577f4e487b7100000000000000000000000000000000000000000000000000000000600052604160045260246000fd5b604051908082528060200260200182016040528015612239578160200160208202803683370190505b50905082816001835161224c9190613a82565b81518110612283577f4e487b7100000000000000000000000000000000000000000000000000000000600052603260045260246000fd5b60200260200101818152505060006001835161229f9190613a82565b90505b80156123f35760008061234087866122bb600187613a82565b815181106122f2577f4e487b7100000000000000000000000000000000000000000000000000000000600052603260045260246000fd5b6020026020010151878681518110612333577f4e487b7100000000000000000000000000000000000000000000000000000000600052603260045260246000fd5b6020026020010151612b5e565b9150915061238f848481518110612380577f4e487b7100000000000000000000000000000000000000000000000000000000600052603260045260246000fd5b60200260200101518383612c6c565b8461239b600186613a82565b815181106123d2577f4e487b7100000000000000000000000000000000000000000000000000000000600052603260045260246000fd5b602002602001018181525050505080806123eb90613a99565b9150506122a2565b509392505050565b6060600282511015612439576040517f08c379a00000000000000000000000000000000000000000000000000000000081526004016105cc90613645565b815167ffffffffffffffff81111561247a577f4e487b7100000000000000000000000000000000000000000000000000000000600052604160045260246000fd5b6040519080825280602002602001820160405280156124a3578160200160208202803683370190505b50905082816000815181106124e1577f4e487b7100000000000000000000000000000000000000000000000000000000600052603260045260246000fd5b60200260200101818152505060005b600183516124fe9190613a82565b8110156123f35760008061259287868581518110612545577f4e487b7100000000000000000000000000000000000000000000000000000000600052603260045260246000fd5b60200260200101518786600161255b91906139f4565b81518110612333577f4e487b7100000000000000000000000000000000000000000000000000000000600052603260045260246000fd5b915091506125e18484815181106125d2577f4e487b7100000000000000000000000000000000000000000000000000000000600052603260045260246000fd5b60200260200101518383612d37565b846125ed8560016139f4565b81518110612624577f4e487b7100000000000000000000000000000000000000000000000000000000600052603260045260246000fd5b6020026020010181815250505050808061263d90613ace565b9150506124f0565b600061264f612b06565b73ffffffffffffffffffffffffffffffffffffffff80861660009081526002602090815260408083209388168352928152828220546001909152919020549192509060ff168115612727576040517ff542808700000000000000000000000000000000000000000000000000000000815273ffffffffffffffffffffffffffffffffffffffff84169063f5428087906126f0908490869089906004016139d9565b600060405180830381600087803b15801561270a57600080fd5b505af115801561271e573d6000803e3d6000fd5b50505050612807565b6040517f583d861600000000000000000000000000000000000000000000000000000000815273ffffffffffffffffffffffffffffffffffffffff84169063583d86169061277d9084908a9089906004016139a8565b602060405180830381600087803b15801561279757600080fd5b505af11580156127ab573d6000803e3d6000fd5b505050506040513d601f19601f820116820180604052508101906127cf91906131fa565b73ffffffffffffffffffffffffffffffffffffffff8088166000908152600260209081526040808320938a1683529290522081905591505b505050505050565b600080600061281e8585612e06565b91509150858282604051602001612836929190613235565b6040516020818303038152906040528051906020012060405160200161285d92919061326f565b6040516020818303038152906040528051906020012060601c925050509392505050565b60005b600183516128929190613a82565b8110156109c2576000808483815181106128d5577f4e487b7100000000000000000000000000000000000000000000000000000000600052603260045260246000fd5b6020026020010151858460016128eb91906139f4565b81518110612922577f4e487b7100000000000000000000000000000000000000000000000000000000600052603260045260246000fd5b602002602001015191509150600061293a8383612e06565b50905060008761294b8660016139f4565b81518110612982577f4e487b7100000000000000000000000000000000000000000000000000000000600052603260045260246000fd5b602002602001015190506000808373ffffffffffffffffffffffffffffffffffffffff168673ffffffffffffffffffffffffffffffffffffffff16146129ca578260006129ce565b6000835b91509150600060028a516129e29190613a82565b88106129ee5788612a43565b612a438c878c6129ff8c60026139f4565b81518110612a36577f4e487b7100000000000000000000000000000000000000000000000000000000600052603260045260246000fd5b602002602001015161280f565b9050612a508c888861280f565b73ffffffffffffffffffffffffffffffffffffffff1663022c0d9f84848460006040519080825280601f01601f191660200182016040528015612a9a576020820181803683370190505b506040518563ffffffff1660e01b8152600401612aba94939291906138fd565b600060405180830381600087803b158015612ad457600080fd5b505af1158015612ae8573d6000803e3d6000fd5b50505050505050505050508080612afe90613ace565b915050612884565b600080546040517f3c9c8f9c00000000000000000000000000000000000000000000000000000000815273ffffffffffffffffffffffffffffffffffffffff90911690633c9c8f9c90611c6890606c906004016138bb565b6000806000612b6d8585612e06565b509050600080612b7e88888861280f565b73ffffffffffffffffffffffffffffffffffffffff16630902f1ac6040518163ffffffff1660e01b815260040160606040518083038186803b158015612bc357600080fd5b505afa158015612bd7573d6000803e3d6000fd5b505050506040513d601f19601f82011682018060405250810190612bfb9190613194565b506dffffffffffffffffffffffffffff1691506dffffffffffffffffffffffffffff1691508273ffffffffffffffffffffffffffffffffffffffff168773ffffffffffffffffffffffffffffffffffffffff1614612c5a578082612c5d565b81815b90999098509650505050505050565b6000808411612ca7576040517f08c379a00000000000000000000000000000000000000000000000000000000081526004016105cc9061352e565b600083118015612cb75750600082115b612ced576040517f08c379a00000000000000000000000000000000000000000000000000000000081526004016105cc9061367c565b6000612cf98585613a45565b612d05906103e8613a45565b905060006103e5612d168786613a82565b612d209190613a82565b9050612d2c8183613a0c565b610f8a9060016139f4565b6000808411612d72576040517f08c379a00000000000000000000000000000000000000000000000000000000081526004016105cc90613801565b600083118015612d825750600082115b612db8576040517f08c379a00000000000000000000000000000000000000000000000000000000081526004016105cc9061367c565b6000612dc6856103e5613a45565b90506000612dd48483613a45565b9050600082612de5876103e8613a45565b612def91906139f4565b9050612dfb8183613a0c565b979650505050505050565b6000808273ffffffffffffffffffffffffffffffffffffffff168473ffffffffffffffffffffffffffffffffffffffff161415612e6f576040517f08c379a00000000000000000000000000000000000000000000000000000000081526004016105cc9061358b565b8273ffffffffffffffffffffffffffffffffffffffff168473ffffffffffffffffffffffffffffffffffffffff1610612ea9578284612eac565b83835b909250905073ffffffffffffffffffffffffffffffffffffffff8216612efe576040517f08c379a00000000000000000000000000000000000000000000000000000000081526004016105cc906137ca565b9250929050565b60008083601f840112612f16578182fd5b50813567ffffffffffffffff811115612f2d578182fd5b6020830191508360208083028501011115612efe57600080fd5b8035600481106118fa57600080fd5b80516dffffffffffffffffffffffffffff811681146118fa57600080fd5b600060208284031215612f85578081fd5b8135612f9081613b36565b9392505050565b600060208284031215612fa8578081fd5b8151612f9081613b36565b60008060408385031215612fc5578081fd5b8235612fd081613b36565b91506020830135612fe081613b36565b809150509250929050565b60008060408385031215612ffd578182fd5b823561300881613b36565b946020939093013593505050565b60008060408385031215613028578182fd5b823561303381613b36565b9150602083013560ff81168114612fe0578182fd5b600060208284031215613059578081fd5b81518015158114612f90578182fd5b6000806000806060858703121561307d578182fd5b61308685612f47565b935060208501359250604085013567ffffffffffffffff8111156130a8578283fd5b6130b487828801612f05565b95989497509550505050565b6000806000806000608086880312156130d7578081fd5b6130e086612f47565b94506020860135935060408601359250606086013567ffffffffffffffff811115613109578182fd5b61311588828901612f05565b969995985093965092949392505050565b60008060008060008060a0878903121561313e578081fd5b61314787612f47565b95506020870135945060408701359350606087013567ffffffffffffffff811115613170578182fd5b61317c89828a01612f05565b979a9699509497949695608090950135949350505050565b6000806000606084860312156131a8578283fd5b6131b184612f56565b92506131bf60208501612f56565b9150604084015163ffffffff811681146131d7578182fd5b809150509250925092565b6000602082840312156131f3578081fd5b5035919050565b60006020828403121561320b578081fd5b5051919050565b60008060408385031215613224578182fd5b505080516020909101519092909150565b7fffffffffffffffffffffffffffffffffffffffff000000000000000000000000606093841b811682529190921b16601482015260280190565b7fff00000000000000000000000000000000000000000000000000000000000000815260609290921b7fffffffffffffffffffffffffffffffffffffffff00000000000000000000000016600183015260158201527f96e8ac4277198ff8b6f785478aa9a39f403cb768dd02cbee326c3e7da348845f603582015260550190565b73ffffffffffffffffffffffffffffffffffffffff958616815293851660208501529190931660408301526060820192909252608081019190915260a00190565b73ffffffffffffffffffffffffffffffffffffffff9384168152919092166020820152604081019190915260600190565b73ffffffffffffffffffffffffffffffffffffffff9788168152958716602087015260408601949094526060850192909252909316608083015260a082019290925260c081019190915260e00190565b73ffffffffffffffffffffffffffffffffffffffff929092168252602082015260400190565b6020808252825182820181905260009190848201906040850190845b81811015613410578351835292840192918401916001016133f4565b50909695505050505050565b73ffffffffffffffffffffffffffffffffffffffff91909116815260200190565b6020808252602e908201527f43616c6c6572206e6f7420617574686f72697a656420746f2073657420696e6360408201527f656e74697665207472616e636865000000000000000000000000000000000000606082015260800190565b6020808252603e908201527f43616c6c696e6720636f6e7472616374206973206e6f7420617574686f72697a60408201527f656420746f20747261646520776974682070726f746f636c2066756e64730000606082015260800190565b60208082526018908201527f556e69737761705632526f757465723a20455850495245440000000000000000604082015260600190565b6020808252602c908201527f556e697377617056324c6962726172793a20494e53554646494349454e545f4f60408201527f55545055545f414d4f554e540000000000000000000000000000000000000000606082015260800190565b60208082526025908201527f556e697377617056324c6962726172793a204944454e544943414c5f4144445260408201527f4553534553000000000000000000000000000000000000000000000000000000606082015260800190565b60208082526028908201527f4d617267696e526f757465723a20496e73756666696369656e74206c656e646960408201527f6e672066756e6473000000000000000000000000000000000000000000000000606082015260800190565b6020808252601e908201527f556e697377617056324c6962726172793a20494e56414c49445f504154480000604082015260600190565b60208082526028908201527f556e697377617056324c6962726172793a20494e53554646494349454e545f4c60408201527f4951554944495459000000000000000000000000000000000000000000000000606082015260800190565b60208082526029908201527f43616e6e6f74207472616e73666572206465706f73697420746f206d6172676960408201527f6e206163636f756e740000000000000000000000000000000000000000000000606082015260800190565b6020808252601c908201527f436f756c64206e6f742077697468647261772066726f6d2066756e6400000000604082015260600190565b60208082526027908201527f556e69737761705632526f757465723a204558434553534956455f494e50555460408201527f5f414d4f554e5400000000000000000000000000000000000000000000000000606082015260800190565b6020808252601e908201527f556e697377617056324c6962726172793a205a45524f5f414444524553530000604082015260600190565b6020808252602b908201527f556e697377617056324c6962726172793a20494e53554646494349454e545f4960408201527f4e5055545f414d4f554e54000000000000000000000000000000000000000000606082015260800190565b60208082526028908201527f4d617267696e526f757465723a20494e53554646494349454e545f4f5554505560408201527f545f414d4f554e54000000000000000000000000000000000000000000000000606082015260800190565b61ffff91909116815260200190565b61ffff92909216825273ffffffffffffffffffffffffffffffffffffffff16602082015260400190565b90815260200190565b60008582526020858184015273ffffffffffffffffffffffffffffffffffffffff85166040840152608060608401528351806080850152825b818110156139525785810183015185820160a001528201613936565b81811115613963578360a083870101525b50601f017fffffffffffffffffffffffffffffffffffffffffffffffffffffffffffffffe0169290920160a0019695505050505050565b60ff91909116815260200190565b60ff93909316835273ffffffffffffffffffffffffffffffffffffffff919091166020830152604082015260600190565b60ff9390931683526020830191909152604082015260600190565b60008219821115613a0757613a07613b07565b500190565b600082613a40577f4e487b710000000000000000000000000000000000000000000000000000000081526012600452602481fd5b500490565b6000817fffffffffffffffffffffffffffffffffffffffffffffffffffffffffffffffff0483118215151615613a7d57613a7d613b07565b500290565b600082821015613a9457613a94613b07565b500390565b600081613aa857613aa8613b07565b507fffffffffffffffffffffffffffffffffffffffffffffffffffffffffffffffff0190565b60007fffffffffffffffffffffffffffffffffffffffffffffffffffffffffffffffff821415613b0057613b00613b07565b5060010190565b7f4e487b7100000000000000000000000000000000000000000000000000000000600052601160045260246000fd5b73ffffffffffffffffffffffffffffffffffffffff81168114613b5857600080fd5b5056fea26469706673582212207c73e93f61be1b605f4357f09a57d2ffcb820b73a9f22cdaac807bf7a033a9ad64736f6c63430008010033",
  "linkReferences": {},
  "deployedLinkReferences": {}
}