{
  "_format": "hh-sol-artifact-1",
  "contractName": "MarginRouter",
  "sourceName": "contracts/MarginRouter.sol",
  "abi": [
    {
      "inputs": [
        {
          "internalType": "address",
          "name": "uniswapFactory",
          "type": "address"
        },
        {
          "internalType": "address",
          "name": "sushiswapFactory",
          "type": "address"
        },
        {
          "internalType": "address",
          "name": "_WETH",
          "type": "address"
        },
        {
          "internalType": "address",
          "name": "_roles",
          "type": "address"
        }
      ],
      "stateMutability": "nonpayable",
      "type": "constructor"
    },
    {
      "inputs": [
        {
          "internalType": "address",
          "name": "borrowToken",
          "type": "address"
        },
        {
          "internalType": "uint256",
          "name": "borrowAmount",
          "type": "uint256"
        }
      ],
      "name": "borrow",
      "outputs": [],
      "stateMutability": "nonpayable",
      "type": "function"
    },
    {
      "inputs": [
        {
          "internalType": "address",
          "name": "depositToken",
          "type": "address"
        },
        {
          "internalType": "uint256",
          "name": "depositAmount",
          "type": "uint256"
        }
      ],
      "name": "deposit",
      "outputs": [],
      "stateMutability": "nonpayable",
      "type": "function"
    },
    {
      "inputs": [],
      "name": "depositETH",
      "outputs": [],
      "stateMutability": "payable",
      "type": "function"
    },
    {
      "inputs": [
        {
          "internalType": "address",
          "name": "debtToken",
          "type": "address"
        },
        {
          "internalType": "uint256",
          "name": "extinguishAmount",
          "type": "uint256"
        }
      ],
      "name": "extinguishDebt",
      "outputs": [],
      "stateMutability": "nonpayable",
      "type": "function"
    },
    {
      "inputs": [
        {
          "internalType": "enum AMM",
          "name": "amm",
          "type": "uint8"
        },
        {
          "internalType": "uint256",
          "name": "inAmount",
          "type": "uint256"
        },
        {
          "internalType": "address[]",
          "name": "path",
          "type": "address[]"
        }
      ],
      "name": "getAmountsOut",
      "outputs": [
        {
          "internalType": "uint256[]",
          "name": "",
          "type": "uint256[]"
        }
      ],
      "stateMutability": "view",
      "type": "function"
    },
    {
      "inputs": [],
      "name": "roles",
      "outputs": [
        {
          "internalType": "contract Roles",
          "name": "",
          "type": "address"
        }
      ],
      "stateMutability": "view",
      "type": "function"
    },
    {
      "inputs": [
        {
          "internalType": "enum AMM",
          "name": "amm",
          "type": "uint8"
        },
        {
          "internalType": "uint256",
          "name": "amountIn",
          "type": "uint256"
        },
        {
          "internalType": "uint256",
          "name": "amountOutMin",
          "type": "uint256"
        },
        {
          "internalType": "address[]",
          "name": "path",
          "type": "address[]"
        },
        {
          "internalType": "uint256",
          "name": "deadline",
          "type": "uint256"
        }
      ],
      "name": "swapExactTokensForTokens",
      "outputs": [
        {
          "internalType": "uint256[]",
          "name": "amounts",
          "type": "uint256[]"
        }
      ],
      "stateMutability": "nonpayable",
      "type": "function"
    },
    {
      "inputs": [
        {
          "internalType": "enum AMM",
          "name": "amm",
          "type": "uint8"
        },
        {
          "internalType": "uint256",
          "name": "amountOut",
          "type": "uint256"
        },
        {
          "internalType": "uint256",
          "name": "amountInMax",
          "type": "uint256"
        },
        {
          "internalType": "address[]",
          "name": "path",
          "type": "address[]"
        },
        {
          "internalType": "uint256",
          "name": "deadline",
          "type": "uint256"
        }
      ],
      "name": "swapTokensForExactTokens",
      "outputs": [
        {
          "internalType": "uint256[]",
          "name": "amounts",
          "type": "uint256[]"
        }
      ],
      "stateMutability": "nonpayable",
      "type": "function"
    },
    {
      "inputs": [
        {
          "internalType": "address",
          "name": "withdrawToken",
          "type": "address"
        },
        {
          "internalType": "uint256",
          "name": "withdrawAmount",
          "type": "uint256"
        }
      ],
      "name": "withdraw",
      "outputs": [],
      "stateMutability": "nonpayable",
      "type": "function"
    },
    {
      "inputs": [
        {
          "internalType": "uint256",
          "name": "withdrawAmount",
          "type": "uint256"
        }
      ],
      "name": "withdrawETH",
      "outputs": [],
      "stateMutability": "nonpayable",
      "type": "function"
    }
  ],
  "bytecode": "0x60806040523480156200001157600080fd5b506040516200370b3803806200370b833981810160405260808110156200003757600080fd5b810190808051906020019092919080519060200190929190805190602001909291908051906020019092919050505080806000806101000a81548173ffffffffffffffffffffffffffffffffffffffff021916908373ffffffffffffffffffffffffffffffffffffffff160217905550508360016000806003811115620000ba57fe5b6003811115620000c657fe5b815260200190815260200160002060006101000a81548173ffffffffffffffffffffffffffffffffffffffff021916908373ffffffffffffffffffffffffffffffffffffffff1602179055508260016000600160038111156200012557fe5b60038111156200013157fe5b815260200190815260200160002060006101000a81548173ffffffffffffffffffffffffffffffffffffffff021916908373ffffffffffffffffffffffffffffffffffffffff16021790555081600260006101000a81548173ffffffffffffffffffffffffffffffffffffffff021916908373ffffffffffffffffffffffffffffffffffffffff1602179055505050505061353980620001d26000396000f3fe6080604052600436106100915760003560e01c8063c61b854c11610059578063c61b854c14610399578063eaa095f8146103f4578063f14210a6146104e6578063f3fef3a314610521578063f6326fb31461057c57610091565b80630195a42214610096578063392f5f641461019c57806347e7ef24146101dd5780634b8a352914610238578063b99c3d7d14610293575b600080fd5b3480156100a257600080fd5b50610145600480360360a08110156100b957600080fd5b81019080803560ff1690602001909291908035906020019092919080359060200190929190803590602001906401000000008111156100f757600080fd5b82018360208201111561010957600080fd5b8035906020019184602083028401116401000000008311171561012b57600080fd5b909192939192939080359060200190929190505050610586565b6040518080602001828103825283818151815260200191508051906020019060200280838360005b8381101561018857808201518184015260208101905061016d565b505050509050019250505060405180910390f35b3480156101a857600080fd5b506101b1610958565b604051808273ffffffffffffffffffffffffffffffffffffffff16815260200191505060405180910390f35b3480156101e957600080fd5b506102366004803603604081101561020057600080fd5b81019080803573ffffffffffffffffffffffffffffffffffffffff1690602001909291908035906020019092919050505061097c565b005b34801561024457600080fd5b506102916004803603604081101561025b57600080fd5b81019080803573ffffffffffffffffffffffffffffffffffffffff16906020019092919080359060200190929190505050610d48565b005b34801561029f57600080fd5b50610342600480360360a08110156102b657600080fd5b81019080803560ff1690602001909291908035906020019092919080359060200190929190803590602001906401000000008111156102f457600080fd5b82018360208201111561030657600080fd5b8035906020019184602083028401116401000000008311171561032857600080fd5b909192939192939080359060200190929190505050610f0e565b6040518080602001828103825283818151815260200191508051906020019060200280838360005b8381101561038557808201518184015260208101905061036a565b505050509050019250505060405180910390f35b3480156103a557600080fd5b506103f2600480360360408110156103bc57600080fd5b81019080803573ffffffffffffffffffffffffffffffffffffffff169060200190929190803590602001909291905050506112e2565b005b34801561040057600080fd5b5061048f6004803603606081101561041757600080fd5b81019080803560ff169060200190929190803590602001909291908035906020019064010000000081111561044b57600080fd5b82018360208201111561045d57600080fd5b8035906020019184602083028401116401000000008311171561047f57600080fd5b90919293919293905050506114a8565b6040518080602001828103825283818151815260200191508051906020019060200280838360005b838110156104d25780820151818401526020810190506104b7565b505050509050019250505060405180910390f35b3480156104f257600080fd5b5061051f6004803603602081101561050957600080fd5b810190808035906020019092919050505061154f565b005b34801561052d57600080fd5b5061057a6004803603604081101561054457600080fd5b81019080803573ffffffffffffffffffffffffffffffffffffffff16906020019092919080359060200190929190505050611736565b005b6105846119af565b005b60603273ffffffffffffffffffffffffffffffffffffffff163373ffffffffffffffffffffffffffffffffffffffff161461060c576040517f08c379a000000000000000000000000000000000000000000000000000000000815260040180806020018281038252603a815260200180613365603a913960400191505060405180910390fd5b6000610616611d21565b73ffffffffffffffffffffffffffffffffffffffff16633f0e9edf8686600081811061063e57fe5b9050602002013573ffffffffffffffffffffffffffffffffffffffff16896040518363ffffffff1660e01b8152600401808373ffffffffffffffffffffffffffffffffffffffff16815260200182815260200192505050602060405180830381600087803b1580156106af57600080fd5b505af11580156106c3573d6000803e3d6000fd5b505050506040513d60208110156106d957600080fd5b810190808051906020019092919050505090506000600160008a60038111156106fe57fe5b600381111561070957fe5b815260200190815260200160002060009054906101000a900473ffffffffffffffffffffffffffffffffffffffff16905061074a81838a0389898989611de1565b9250600086866001898990500381811061076057fe5b9050602002013573ffffffffffffffffffffffffffffffffffffffff16905060006107896120be565b73ffffffffffffffffffffffffffffffffffffffff16633500aa0b338a8a60008181106107b257fe5b9050602002013573ffffffffffffffffffffffffffffffffffffffff16858e8a60018c5103815181106107e157fe5b60200260200101516040518663ffffffff1660e01b8152600401808673ffffffffffffffffffffffffffffffffffffffff1681526020018573ffffffffffffffffffffffffffffffffffffffff1681526020018473ffffffffffffffffffffffffffffffffffffffff16815260200183815260200182815260200195505050505050602060405180830381600087803b15801561087d57600080fd5b505af1158015610891573d6000803e3d6000fd5b505050506040513d60208110156108a757600080fd5b810190808051906020019092919050505090506108c261217e565b73ffffffffffffffffffffffffffffffffffffffff1663ee0862bf83836040518363ffffffff1660e01b8152600401808373ffffffffffffffffffffffffffffffffffffffff16815260200182815260200192505050600060405180830381600087803b15801561093257600080fd5b505af1158015610946573d6000803e3d6000fd5b50505050505050509695505050505050565b60008054906101000a900473ffffffffffffffffffffffffffffffffffffffff1681565b3273ffffffffffffffffffffffffffffffffffffffff163373ffffffffffffffffffffffffffffffffffffffff1614610a00576040517f08c379a000000000000000000000000000000000000000000000000000000000815260040180806020018281038252603a815260200180613365603a913960400191505060405180910390fd5b610a0861223e565b73ffffffffffffffffffffffffffffffffffffffff1663b3db428b3384846040518463ffffffff1660e01b8152600401808473ffffffffffffffffffffffffffffffffffffffff1681526020018373ffffffffffffffffffffffffffffffffffffffff1681526020018281526020019350505050602060405180830381600087803b158015610a9657600080fd5b505af1158015610aaa573d6000803e3d6000fd5b505050506040513d6020811015610ac057600080fd5b8101908080519060200190929190505050610b26576040517f08c379a00000000000000000000000000000000000000000000000000000000081526004018080602001828103825260298152602001806134616029913960400191505060405180910390fd5b6000610b306120be565b73ffffffffffffffffffffffffffffffffffffffff166352a664d93385856040518463ffffffff1660e01b8152600401808473ffffffffffffffffffffffffffffffffffffffff1681526020018373ffffffffffffffffffffffffffffffffffffffff1681526020018281526020019350505050602060405180830381600087803b158015610bbe57600080fd5b505af1158015610bd2573d6000803e3d6000fd5b505050506040513d6020811015610be857600080fd5b810190808051906020019092919050505090506000811115610d4357610c0c6120be565b73ffffffffffffffffffffffffffffffffffffffff1663b25777ad3385846040518463ffffffff1660e01b8152600401808473ffffffffffffffffffffffffffffffffffffffff1681526020018373ffffffffffffffffffffffffffffffffffffffff1681526020018281526020019350505050600060405180830381600087803b158015610c9a57600080fd5b505af1158015610cae573d6000803e3d6000fd5b50505050610cba61217e565b73ffffffffffffffffffffffffffffffffffffffff16632a6a897b84836040518363ffffffff1660e01b8152600401808373ffffffffffffffffffffffffffffffffffffffff16815260200182815260200192505050600060405180830381600087803b158015610d2a57600080fd5b505af1158015610d3e573d6000803e3d6000fd5b505050505b505050565b3273ffffffffffffffffffffffffffffffffffffffff163373ffffffffffffffffffffffffffffffffffffffff1614610dcc576040517f08c379a000000000000000000000000000000000000000000000000000000000815260040180806020018281038252603a815260200180613365603a913960400191505060405180910390fd5b610dd461217e565b73ffffffffffffffffffffffffffffffffffffffff1663ee0862bf83836040518363ffffffff1660e01b8152600401808373ffffffffffffffffffffffffffffffffffffffff16815260200182815260200192505050600060405180830381600087803b158015610e4457600080fd5b505af1158015610e58573d6000803e3d6000fd5b50505050610e646120be565b73ffffffffffffffffffffffffffffffffffffffff1663498d55eb3384846040518463ffffffff1660e01b8152600401808473ffffffffffffffffffffffffffffffffffffffff1681526020018373ffffffffffffffffffffffffffffffffffffffff1681526020018281526020019350505050600060405180830381600087803b158015610ef257600080fd5b505af1158015610f06573d6000803e3d6000fd5b505050505050565b60603273ffffffffffffffffffffffffffffffffffffffff163373ffffffffffffffffffffffffffffffffffffffff1614610f94576040517f08c379a000000000000000000000000000000000000000000000000000000000815260040180806020018281038252603a815260200180613365603a913960400191505060405180910390fd5b6000610f9e611d21565b73ffffffffffffffffffffffffffffffffffffffff166367cbf42d868660018989905003818110610fcb57fe5b9050602002013573ffffffffffffffffffffffffffffffffffffffff16896040518363ffffffff1660e01b8152600401808373ffffffffffffffffffffffffffffffffffffffff16815260200182815260200192505050602060405180830381600087803b15801561103c57600080fd5b505af1158015611050573d6000803e3d6000fd5b505050506040513d602081101561106657600080fd5b810190808051906020019092919050505090506000600160008a600381111561108b57fe5b600381111561109657fe5b815260200190815260200160002060009054906101000a900473ffffffffffffffffffffffffffffffffffffffff1690506110d781838a01898989896122fe565b925060008686600189899050038181106110ed57fe5b9050602002013573ffffffffffffffffffffffffffffffffffffffff16905060006111166120be565b73ffffffffffffffffffffffffffffffffffffffff16633500aa0b338a8a600081811061113f57fe5b9050602002013573ffffffffffffffffffffffffffffffffffffffff16858960008151811061116a57fe5b60200260200101518f6040518663ffffffff1660e01b8152600401808673ffffffffffffffffffffffffffffffffffffffff1681526020018573ffffffffffffffffffffffffffffffffffffffff1681526020018473ffffffffffffffffffffffffffffffffffffffff16815260200183815260200182815260200195505050505050602060405180830381600087803b15801561120757600080fd5b505af115801561121b573d6000803e3d6000fd5b505050506040513d602081101561123157600080fd5b8101908080519060200190929190505050905061124c61217e565b73ffffffffffffffffffffffffffffffffffffffff1663ee0862bf83836040518363ffffffff1660e01b8152600401808373ffffffffffffffffffffffffffffffffffffffff16815260200182815260200192505050600060405180830381600087803b1580156112bc57600080fd5b505af11580156112d0573d6000803e3d6000fd5b50505050505050509695505050505050565b3273ffffffffffffffffffffffffffffffffffffffff163373ffffffffffffffffffffffffffffffffffffffff1614611366576040517f08c379a000000000000000000000000000000000000000000000000000000000815260040180806020018281038252603a815260200180613365603a913960400191505060405180910390fd5b61136e6120be565b73ffffffffffffffffffffffffffffffffffffffff1663b25777ad3384846040518463ffffffff1660e01b8152600401808473ffffffffffffffffffffffffffffffffffffffff1681526020018373ffffffffffffffffffffffffffffffffffffffff1681526020018281526020019350505050600060405180830381600087803b1580156113fc57600080fd5b505af1158015611410573d6000803e3d6000fd5b5050505061141c61217e565b73ffffffffffffffffffffffffffffffffffffffff16632a6a897b83836040518363ffffffff1660e01b8152600401808373ffffffffffffffffffffffffffffffffffffffff16815260200182815260200192505050600060405180830381600087803b15801561148c57600080fd5b505af11580156114a0573d6000803e3d6000fd5b505050505050565b60606000600160008760038111156114bc57fe5b60038111156114c757fe5b815260200190815260200160002060009054906101000a900473ffffffffffffffffffffffffffffffffffffffff1690506115448186868680806020026020016040519081016040528093929190818152602001838360200280828437600081840152601f19601f820116905080830192505050505050506125d8565b915050949350505050565b3273ffffffffffffffffffffffffffffffffffffffff163373ffffffffffffffffffffffffffffffffffffffff16146115d3576040517f08c379a000000000000000000000000000000000000000000000000000000000815260040180806020018281038252603a815260200180613365603a913960400191505060405180910390fd5b6115db6120be565b73ffffffffffffffffffffffffffffffffffffffff1663d0eb665333600260009054906101000a900473ffffffffffffffffffffffffffffffffffffffff16846040518463ffffffff1660e01b8152600401808473ffffffffffffffffffffffffffffffffffffffff1681526020018373ffffffffffffffffffffffffffffffffffffffff1681526020018281526020019350505050600060405180830381600087803b15801561168b57600080fd5b505af115801561169f573d6000803e3d6000fd5b505050506116ab61223e565b73ffffffffffffffffffffffffffffffffffffffff16634782f77933836040518363ffffffff1660e01b8152600401808373ffffffffffffffffffffffffffffffffffffffff16815260200182815260200192505050600060405180830381600087803b15801561171b57600080fd5b505af115801561172f573d6000803e3d6000fd5b5050505050565b3273ffffffffffffffffffffffffffffffffffffffff163373ffffffffffffffffffffffffffffffffffffffff16146117ba576040517f08c379a000000000000000000000000000000000000000000000000000000000815260040180806020018281038252603a815260200180613365603a913960400191505060405180910390fd5b6117c26120be565b73ffffffffffffffffffffffffffffffffffffffff1663d0eb66533384846040518463ffffffff1660e01b8152600401808473ffffffffffffffffffffffffffffffffffffffff1681526020018373ffffffffffffffffffffffffffffffffffffffff1681526020018281526020019350505050600060405180830381600087803b15801561185057600080fd5b505af1158015611864573d6000803e3d6000fd5b5050505061187061223e565b73ffffffffffffffffffffffffffffffffffffffff1663d9caed128333846040518463ffffffff1660e01b8152600401808473ffffffffffffffffffffffffffffffffffffffff1681526020018373ffffffffffffffffffffffffffffffffffffffff1681526020018281526020019350505050602060405180830381600087803b1580156118fe57600080fd5b505af1158015611912573d6000803e3d6000fd5b505050506040513d602081101561192857600080fd5b81019080805190602001909291905050506119ab576040517f08c379a000000000000000000000000000000000000000000000000000000000815260040180806020018281038252601c8152602001807f436f756c64206e6f742077697468647261772066726f6d2066756e640000000081525060200191505060405180910390fd5b5050565b3273ffffffffffffffffffffffffffffffffffffffff163373ffffffffffffffffffffffffffffffffffffffff1614611a33576040517f08c379a000000000000000000000000000000000000000000000000000000000815260040180806020018281038252603a815260200180613365603a913960400191505060405180910390fd5b611a3b61223e565b73ffffffffffffffffffffffffffffffffffffffff1663a6a5f9fe346040518263ffffffff1660e01b81526004016000604051808303818588803b158015611a8257600080fd5b505af1158015611a96573d6000803e3d6000fd5b50505050506000611aa56120be565b73ffffffffffffffffffffffffffffffffffffffff166352a664d933600260009054906101000a900473ffffffffffffffffffffffffffffffffffffffff16346040518463ffffffff1660e01b8152600401808473ffffffffffffffffffffffffffffffffffffffff1681526020018373ffffffffffffffffffffffffffffffffffffffff1681526020018281526020019350505050602060405180830381600087803b158015611b5557600080fd5b505af1158015611b69573d6000803e3d6000fd5b505050506040513d6020811015611b7f57600080fd5b810190808051906020019092919050505090506000811115611d1e57611ba36120be565b73ffffffffffffffffffffffffffffffffffffffff1663b25777ad33600260009054906101000a900473ffffffffffffffffffffffffffffffffffffffff16846040518463ffffffff1660e01b8152600401808473ffffffffffffffffffffffffffffffffffffffff1681526020018373ffffffffffffffffffffffffffffffffffffffff1681526020018281526020019350505050600060405180830381600087803b158015611c5357600080fd5b505af1158015611c67573d6000803e3d6000fd5b50505050611c7361217e565b73ffffffffffffffffffffffffffffffffffffffff16632a6a897b600260009054906101000a900473ffffffffffffffffffffffffffffffffffffffff16836040518363ffffffff1660e01b8152600401808373ffffffffffffffffffffffffffffffffffffffff16815260200182815260200192505050600060405180830381600087803b158015611d0557600080fd5b505af1158015611d19573d6000803e3d6000fd5b505050505b50565b60008060009054906101000a900473ffffffffffffffffffffffffffffffffffffffff1673ffffffffffffffffffffffffffffffffffffffff166336214c7860046040518263ffffffff1660e01b815260040180826005811115611d8157fe5b815260200191505060206040518083038186803b158015611da157600080fd5b505afa158015611db5573d6000803e3d6000fd5b505050506040513d6020811015611dcb57600080fd5b8101908080519060200190929190505050905090565b6060611e2f8787868680806020026020016040519081016040528093929190818152602001838360200280828437600081840152601f19601f820116905080830192505050505050506125d8565b90508481600183510381518110611e4257fe5b60200260200101511015611ea1576040517f08c379a00000000000000000000000000000000000000000000000000000000081526004018080602001828103825260288152602001806134dc6028913960400191505060405180910390fd5b611ea961223e565b73ffffffffffffffffffffffffffffffffffffffff1663e1a2f31585856000818110611ed157fe5b9050602002013573ffffffffffffffffffffffffffffffffffffffff16611f4b8a88886000818110611eff57fe5b9050602002013573ffffffffffffffffffffffffffffffffffffffff1689896001818110611f2957fe5b9050602002013573ffffffffffffffffffffffffffffffffffffffff16612750565b84600081518110611f5857fe5b60200260200101516040518463ffffffff1660e01b8152600401808473ffffffffffffffffffffffffffffffffffffffff1681526020018373ffffffffffffffffffffffffffffffffffffffff1681526020018281526020019350505050602060405180830381600087803b158015611fd057600080fd5b505af1158015611fe4573d6000803e3d6000fd5b505050506040513d6020811015611ffa57600080fd5b8101908080519060200190929190505050612060576040517f08c379a00000000000000000000000000000000000000000000000000000000081526004018080602001828103825260288152602001806133f06028913960400191505060405180910390fd5b6120b48782868680806020026020016040519081016040528093929190818152602001838360200280828437600081840152601f19601f820116905080830192505050505050506120af61223e565b612869565b9695505050505050565b60008060009054906101000a900473ffffffffffffffffffffffffffffffffffffffff1673ffffffffffffffffffffffffffffffffffffffff166336214c7860036040518263ffffffff1660e01b81526004018082600581111561211e57fe5b815260200191505060206040518083038186803b15801561213e57600080fd5b505afa158015612152573d6000803e3d6000fd5b505050506040513d602081101561216857600080fd5b8101908080519060200190929190505050905090565b60008060009054906101000a900473ffffffffffffffffffffffffffffffffffffffff1673ffffffffffffffffffffffffffffffffffffffff166336214c7860016040518263ffffffff1660e01b8152600401808260058111156121de57fe5b815260200191505060206040518083038186803b1580156121fe57600080fd5b505afa158015612212573d6000803e3d6000fd5b505050506040513d602081101561222857600080fd5b8101908080519060200190929190505050905090565b60008060009054906101000a900473ffffffffffffffffffffffffffffffffffffffff1673ffffffffffffffffffffffffffffffffffffffff166336214c7860006040518263ffffffff1660e01b81526004018082600581111561229e57fe5b815260200191505060206040518083038186803b1580156122be57600080fd5b505afa1580156122d2573d6000803e3d6000fd5b505050506040513d60208110156122e857600080fd5b8101908080519060200190929190505050905090565b606061234c8787868680806020026020016040519081016040528093929190818152602001838360200280828437600081840152601f19601f82011690508083019250505050505050612abf565b9050848160008151811061235c57fe5b602002602001015111156123bb576040517f08c379a000000000000000000000000000000000000000000000000000000000815260040180806020018281038252602781526020018061348a6027913960400191505060405180910390fd5b6123c361223e565b73ffffffffffffffffffffffffffffffffffffffff1663e1a2f315858560008181106123eb57fe5b9050602002013573ffffffffffffffffffffffffffffffffffffffff166124658a8888600081811061241957fe5b9050602002013573ffffffffffffffffffffffffffffffffffffffff168989600181811061244357fe5b9050602002013573ffffffffffffffffffffffffffffffffffffffff16612750565b8460008151811061247257fe5b60200260200101516040518463ffffffff1660e01b8152600401808473ffffffffffffffffffffffffffffffffffffffff1681526020018373ffffffffffffffffffffffffffffffffffffffff1681526020018281526020019350505050602060405180830381600087803b1580156124ea57600080fd5b505af11580156124fe573d6000803e3d6000fd5b505050506040513d602081101561251457600080fd5b810190808051906020019092919050505061257a576040517f08c379a00000000000000000000000000000000000000000000000000000000081526004018080602001828103825260288152602001806133f06028913960400191505060405180910390fd5b6125ce8782868680806020026020016040519081016040528093929190818152602001838360200280828437600081840152601f19601f820116905080830192505050505050506125c961223e565b612869565b9695505050505050565b6060600282511015612652576040517f08c379a000000000000000000000000000000000000000000000000000000000815260040180806020018281038252601e8152602001807f556e697377617056324c6962726172793a20494e56414c49445f50415448000081525060200191505060405180910390fd5b815167ffffffffffffffff8111801561266a57600080fd5b506040519080825280602002602001820160405280156126995781602001602082028036833780820191505090505b50905082816000815181106126aa57fe5b60200260200101818152505060005b6001835103811015612748576000806126fc878685815181106126d857fe5b60200260200101518760018701815181106126ef57fe5b6020026020010151612c3f565b9150915061271e84848151811061270f57fe5b60200260200101518383612d68565b84600185018151811061272d57fe5b602002602001018181525050505080806001019150506126b9565b509392505050565b600080600061275f8585612e98565b91509150858282604051602001808373ffffffffffffffffffffffffffffffffffffffff1660601b81526014018273ffffffffffffffffffffffffffffffffffffffff1660601b8152601401925050506040516020818303038152906040528051906020012060405160200180807fff000000000000000000000000000000000000000000000000000000000000008152506001018373ffffffffffffffffffffffffffffffffffffffff1660601b8152601401828152602001807f96e8ac4277198ff8b6f785478aa9a39f403cb768dd02cbee326c3e7da348845f815250602001925050506040516020818303038152906040528051906020012060001c925050509392505050565b60005b6001835103811015612ab85760008084838151811061288757fe5b602002602001015185600185018151811061289e57fe5b60200260200101519150915060006128b68383612e98565b50905060008760018601815181106128ca57fe5b602002602001015190506000808373ffffffffffffffffffffffffffffffffffffffff168673ffffffffffffffffffffffffffffffffffffffff161461291257826000612916565b6000835b91509150600060028a5103881061292d578861294f565b61294e8c878c60028c018151811061294157fe5b6020026020010151612750565b5b905061295c8c8888612750565b73ffffffffffffffffffffffffffffffffffffffff1663022c0d9f848484600067ffffffffffffffff8111801561299257600080fd5b506040519080825280601f01601f1916602001820160405280156129c55781602001600182028036833780820191505090505b506040518563ffffffff1660e01b8152600401808581526020018481526020018373ffffffffffffffffffffffffffffffffffffffff16815260200180602001828103825283818151815260200191508051906020019080838360005b83811015612a3d578082015181840152602081019050612a22565b50505050905090810190601f168015612a6a5780820380516001836020036101000a031916815260200191505b5095505050505050600060405180830381600087803b158015612a8c57600080fd5b505af1158015612aa0573d6000803e3d6000fd5b5050505050505050505050808060010191505061286c565b5050505050565b6060600282511015612b39576040517f08c379a000000000000000000000000000000000000000000000000000000000815260040180806020018281038252601e8152602001807f556e697377617056324c6962726172793a20494e56414c49445f50415448000081525060200191505060405180910390fd5b815167ffffffffffffffff81118015612b5157600080fd5b50604051908082528060200260200182016040528015612b805781602001602082028036833780820191505090505b5090508281600183510381518110612b9457fe5b6020026020010181815250506000600183510390505b6000811115612c3757600080612bea87866001860381518110612bc957fe5b6020026020010151878681518110612bdd57fe5b6020026020010151612c3f565b91509150612c0c848481518110612bfd57fe5b6020026020010151838361300f565b846001850381518110612c1b57fe5b6020026020010181815250505050808060019003915050612baa565b509392505050565b6000806000612c4e8585612e98565b509050600080612c5f888888612750565b73ffffffffffffffffffffffffffffffffffffffff16630902f1ac6040518163ffffffff1660e01b815260040160606040518083038186803b158015612ca457600080fd5b505afa158015612cb8573d6000803e3d6000fd5b505050506040513d6060811015612cce57600080fd5b81019080805190602001909291908051906020019092919080519060200190929190505050506dffffffffffffffffffffffffffff1691506dffffffffffffffffffffffffffff1691508273ffffffffffffffffffffffffffffffffffffffff168773ffffffffffffffffffffffffffffffffffffffff1614612d52578082612d55565b81815b8095508196505050505050935093915050565b6000808411612dc2576040517f08c379a000000000000000000000000000000000000000000000000000000000815260040180806020018281038252602b8152602001806134b1602b913960400191505060405180910390fd5b600083118015612dd25750600082115b612e27576040517f08c379a00000000000000000000000000000000000000000000000000000000081526004018080602001828103825260288152602001806134186028913960400191505060405180910390fd5b6000612e3e6103e58661314c90919063ffffffff16565b90506000612e55848361314c90919063ffffffff16565b90506000612e8083612e726103e88961314c90919063ffffffff16565b6131d290919063ffffffff16565b9050808281612e8b57fe5b0493505050509392505050565b6000808273ffffffffffffffffffffffffffffffffffffffff168473ffffffffffffffffffffffffffffffffffffffff161415612f20576040517f08c379a00000000000000000000000000000000000000000000000000000000081526004018080602001828103825260258152602001806133cb6025913960400191505060405180910390fd5b8273ffffffffffffffffffffffffffffffffffffffff168473ffffffffffffffffffffffffffffffffffffffff1610612f5a578284612f5d565b83835b8092508193505050600073ffffffffffffffffffffffffffffffffffffffff168273ffffffffffffffffffffffffffffffffffffffff161415613008576040517f08c379a000000000000000000000000000000000000000000000000000000000815260040180806020018281038252601e8152602001807f556e697377617056324c6962726172793a205a45524f5f41444452455353000081525060200191505060405180910390fd5b9250929050565b6000808411613069576040517f08c379a000000000000000000000000000000000000000000000000000000000815260040180806020018281038252602c81526020018061339f602c913960400191505060405180910390fd5b6000831180156130795750600082115b6130ce576040517f08c379a00000000000000000000000000000000000000000000000000000000081526004018080602001828103825260288152602001806134186028913960400191505060405180910390fd5b60006130f76103e86130e9878761314c90919063ffffffff16565b61314c90919063ffffffff16565b905060006131226103e5613114888761325a90919063ffffffff16565b61314c90919063ffffffff16565b9050613141600182848161313257fe5b046131d290919063ffffffff16565b925050509392505050565b60008083141561315f57600090506131cc565b600082840290508284828161317057fe5b04146131c7576040517f08c379a00000000000000000000000000000000000000000000000000000000081526004018080602001828103825260218152602001806134406021913960400191505060405180910390fd5b809150505b92915050565b600080828401905083811015613250576040517f08c379a000000000000000000000000000000000000000000000000000000000815260040180806020018281038252601b8152602001807f536166654d6174683a206164646974696f6e206f766572666c6f77000000000081525060200191505060405180910390fd5b8091505092915050565b600061329c83836040518060400160405280601e81526020017f536166654d6174683a207375627472616374696f6e206f766572666c6f7700008152506132a4565b905092915050565b6000838311158290613351576040517f08c379a00000000000000000000000000000000000000000000000000000000081526004018080602001828103825283818151815260200191508051906020019080838360005b838110156133165780820151818401526020810190506132fb565b50505050905090810190601f1680156133435780820380516001836020036101000a031916815260200191505b509250505060405180910390fd5b506000838503905080915050939250505056fe43757272656e746c79206e6f20696e7465726d656469617269657320616c6c6f77656420666f7220746869732066756e6374696f6e2063616c6c556e697377617056324c6962726172793a20494e53554646494349454e545f4f55545055545f414d4f554e54556e697377617056324c6962726172793a204944454e544943414c5f4144445245535345534d617267696e526f757465723a20496e73756666696369656e74206c656e64696e672066756e6473556e697377617056324c6962726172793a20494e53554646494349454e545f4c4951554944495459536166654d6174683a206d756c7469706c69636174696f6e206f766572666c6f7743616e6e6f74207472616e73666572206465706f73697420746f206d617267696e206163636f756e74556e69737761705632526f757465723a204558434553534956455f494e5055545f414d4f554e54556e697377617056324c6962726172793a20494e53554646494349454e545f494e5055545f414d4f554e544d617267696e526f757465723a20494e53554646494349454e545f4f55545055545f414d4f554e54a2646970667358221220d5db403b99d31f0c04f4bd4bcad51a964a7a1fa57add2a78d68636e0067c822164736f6c63430007030033",
  "linkReferences": {},
  "deployedLinkReferences": {}
}