{
  "_format": "hh-sol-artifact-1",
  "contractName": "Lending",
  "sourceName": "contracts/Lending.sol",
  "abi": [
    {
      "inputs": [
        {
          "internalType": "address",
          "name": "_roles",
          "type": "address"
        }
      ],
      "stateMutability": "nonpayable",
      "type": "constructor"
    },
    {
      "anonymous": false,
      "inputs": [
        {
          "indexed": true,
          "internalType": "address",
          "name": "token",
          "type": "address"
        },
        {
          "indexed": true,
          "internalType": "address",
          "name": "holder",
          "type": "address"
        },
        {
          "indexed": false,
          "internalType": "uint256",
          "name": "value",
          "type": "uint256"
        }
      ],
      "name": "LiquidityWarning",
      "type": "event"
    },
    {
      "anonymous": false,
      "inputs": [
        {
          "indexed": true,
          "internalType": "address",
          "name": "previousOwner",
          "type": "address"
        },
        {
          "indexed": true,
          "internalType": "address",
          "name": "newOwner",
          "type": "address"
        }
      ],
      "name": "OwnershipTransferred",
      "type": "event"
    },
    {
      "inputs": [],
      "name": "ADMIN",
      "outputs": [
        {
          "internalType": "uint16",
          "name": "",
          "type": "uint16"
        }
      ],
      "stateMutability": "view",
      "type": "function"
    },
    {
      "inputs": [],
      "name": "AUTHORIZED_FUND_TRADER",
      "outputs": [
        {
          "internalType": "uint16",
          "name": "",
          "type": "uint16"
        }
      ],
      "stateMutability": "view",
      "type": "function"
    },
    {
      "inputs": [],
      "name": "BORROWER",
      "outputs": [
        {
          "internalType": "uint16",
          "name": "",
          "type": "uint16"
        }
      ],
      "stateMutability": "view",
      "type": "function"
    },
    {
      "inputs": [],
      "name": "FEE_CONTROLLER",
      "outputs": [
        {
          "internalType": "uint16",
          "name": "",
          "type": "uint16"
        }
      ],
      "stateMutability": "view",
      "type": "function"
    },
    {
      "inputs": [],
      "name": "FEE_SOURCE",
      "outputs": [
        {
          "internalType": "uint16",
          "name": "",
          "type": "uint16"
        }
      ],
      "stateMutability": "view",
      "type": "function"
    },
    {
      "inputs": [],
      "name": "FUND",
      "outputs": [
        {
          "internalType": "uint16",
          "name": "",
          "type": "uint16"
        }
      ],
      "stateMutability": "view",
      "type": "function"
    },
    {
      "inputs": [],
      "name": "INCENTIVE_DISTRIBUTION",
      "outputs": [
        {
          "internalType": "uint16",
          "name": "",
          "type": "uint16"
        }
      ],
      "stateMutability": "view",
      "type": "function"
    },
    {
      "inputs": [],
      "name": "INCENTIVE_REPORTER",
      "outputs": [
        {
          "internalType": "uint16",
          "name": "",
          "type": "uint16"
        }
      ],
      "stateMutability": "view",
      "type": "function"
    },
    {
      "inputs": [],
      "name": "LENDING",
      "outputs": [
        {
          "internalType": "uint16",
          "name": "",
          "type": "uint16"
        }
      ],
      "stateMutability": "view",
      "type": "function"
    },
    {
      "inputs": [],
      "name": "LIQUIDATOR",
      "outputs": [
        {
          "internalType": "uint16",
          "name": "",
          "type": "uint16"
        }
      ],
      "stateMutability": "view",
      "type": "function"
    },
    {
      "inputs": [],
      "name": "MARGIN_CALLER",
      "outputs": [
        {
          "internalType": "uint16",
          "name": "",
          "type": "uint16"
        }
      ],
      "stateMutability": "view",
      "type": "function"
    },
    {
      "inputs": [],
      "name": "MARGIN_TRADER",
      "outputs": [
        {
          "internalType": "uint16",
          "name": "",
          "type": "uint16"
        }
      ],
      "stateMutability": "view",
      "type": "function"
    },
    {
      "inputs": [],
      "name": "MARGIN_TRADING",
      "outputs": [
        {
          "internalType": "uint16",
          "name": "",
          "type": "uint16"
        }
      ],
      "stateMutability": "view",
      "type": "function"
    },
    {
      "inputs": [],
      "name": "PRICE_CONTROLLER",
      "outputs": [
        {
          "internalType": "uint16",
          "name": "",
          "type": "uint16"
        }
      ],
      "stateMutability": "view",
      "type": "function"
    },
    {
      "inputs": [],
      "name": "ROUTER",
      "outputs": [
        {
          "internalType": "uint16",
          "name": "",
          "type": "uint16"
        }
      ],
      "stateMutability": "view",
      "type": "function"
    },
    {
      "inputs": [],
      "name": "TOKEN_ACTIVATOR",
      "outputs": [
        {
          "internalType": "uint16",
          "name": "",
          "type": "uint16"
        }
      ],
      "stateMutability": "view",
      "type": "function"
    },
    {
      "inputs": [],
      "name": "WITHDRAWER",
      "outputs": [
        {
          "internalType": "uint16",
          "name": "",
          "type": "uint16"
        }
      ],
      "stateMutability": "view",
      "type": "function"
    },
    {
      "inputs": [
        {
          "internalType": "uint256",
          "name": "balance",
          "type": "uint256"
        },
        {
          "internalType": "address",
          "name": "token",
          "type": "address"
        },
        {
          "internalType": "uint256",
          "name": "yieldQuotientFP",
          "type": "uint256"
        }
      ],
      "name": "applyBorrowInterest",
      "outputs": [
        {
          "internalType": "uint256",
          "name": "",
          "type": "uint256"
        }
      ],
      "stateMutability": "nonpayable",
      "type": "function"
    },
    {
      "inputs": [
        {
          "internalType": "address",
          "name": "",
          "type": "address"
        },
        {
          "internalType": "uint256",
          "name": "",
          "type": "uint256"
        }
      ],
      "name": "bondIds",
      "outputs": [
        {
          "internalType": "uint256",
          "name": "",
          "type": "uint256"
        }
      ],
      "stateMutability": "view",
      "type": "function"
    },
    {
      "inputs": [
        {
          "internalType": "uint256",
          "name": "",
          "type": "uint256"
        }
      ],
      "name": "bonds",
      "outputs": [
        {
          "internalType": "address",
          "name": "holder",
          "type": "address"
        },
        {
          "internalType": "address",
          "name": "token",
          "type": "address"
        },
        {
          "internalType": "uint256",
          "name": "originalPrice",
          "type": "uint256"
        },
        {
          "internalType": "uint256",
          "name": "returnAmount",
          "type": "uint256"
        },
        {
          "internalType": "uint256",
          "name": "maturityTimestamp",
          "type": "uint256"
        },
        {
          "internalType": "uint256",
          "name": "runtime",
          "type": "uint256"
        },
        {
          "internalType": "uint256",
          "name": "yieldFP",
          "type": "uint256"
        }
      ],
      "stateMutability": "view",
      "type": "function"
    },
    {
      "inputs": [
        {
          "internalType": "address",
          "name": "",
          "type": "address"
        }
      ],
      "name": "borrowYieldAccumulators",
      "outputs": [
        {
          "internalType": "uint256",
          "name": "accumulatorFP",
          "type": "uint256"
        },
        {
          "internalType": "uint256",
          "name": "lastUpdated",
          "type": "uint256"
        },
        {
          "internalType": "uint256",
          "name": "hourlyYieldFP",
          "type": "uint256"
        }
      ],
      "stateMutability": "view",
      "type": "function"
    },
    {
      "inputs": [],
      "name": "borrowingMarkupFP",
      "outputs": [
        {
          "internalType": "uint256",
          "name": "",
          "type": "uint256"
        }
      ],
      "stateMutability": "view",
      "type": "function"
    },
    {
      "inputs": [
        {
          "internalType": "address",
          "name": "token",
          "type": "address"
        },
        {
          "internalType": "uint256",
          "name": "runtime",
          "type": "uint256"
        },
        {
          "internalType": "uint256",
          "name": "amount",
          "type": "uint256"
        },
        {
          "internalType": "uint256",
          "name": "minReturn",
          "type": "uint256"
        }
      ],
      "name": "buyBond",
      "outputs": [
        {
          "internalType": "uint256",
          "name": "bondIndex",
          "type": "uint256"
        }
      ],
      "stateMutability": "nonpayable",
      "type": "function"
    },
    {
      "inputs": [
        {
          "internalType": "address",
          "name": "token",
          "type": "address"
        },
        {
          "internalType": "uint256",
          "name": "amount",
          "type": "uint256"
        }
      ],
      "name": "buyHourlyBondSubscription",
      "outputs": [],
      "stateMutability": "nonpayable",
      "type": "function"
    },
    {
      "inputs": [
        {
          "internalType": "address",
          "name": "",
          "type": "address"
        },
        {
          "internalType": "uint256",
          "name": "",
          "type": "uint256"
        }
      ],
      "name": "buyingSpeed",
      "outputs": [
        {
          "internalType": "uint256",
          "name": "",
          "type": "uint256"
        }
      ],
      "stateMutability": "view",
      "type": "function"
    },
    {
      "inputs": [
        {
          "internalType": "address",
          "name": "token",
          "type": "address"
        }
      ],
      "name": "closeHourlyBondAccount",
      "outputs": [],
      "stateMutability": "nonpayable",
      "type": "function"
    },
    {
      "inputs": [],
      "name": "diffMaxMinRuntime",
      "outputs": [
        {
          "internalType": "uint256",
          "name": "",
          "type": "uint256"
        }
      ],
      "stateMutability": "view",
      "type": "function"
    },
    {
      "inputs": [
        {
          "internalType": "address",
          "name": "",
          "type": "address"
        },
        {
          "internalType": "address",
          "name": "",
          "type": "address"
        }
      ],
      "name": "hourlyBondAccounts",
      "outputs": [
        {
          "internalType": "uint256",
          "name": "amount",
          "type": "uint256"
        },
        {
          "internalType": "uint256",
          "name": "yieldQuotientFP",
          "type": "uint256"
        },
        {
          "internalType": "uint256",
          "name": "moduloHour",
          "type": "uint256"
        }
      ],
      "stateMutability": "view",
      "type": "function"
    },
    {
      "inputs": [
        {
          "internalType": "address",
          "name": "",
          "type": "address"
        }
      ],
      "name": "hourlyBondBuyingSpeed",
      "outputs": [
        {
          "internalType": "uint256",
          "name": "",
          "type": "uint256"
        }
      ],
      "stateMutability": "view",
      "type": "function"
    },
    {
      "inputs": [
        {
          "internalType": "address",
          "name": "",
          "type": "address"
        }
      ],
      "name": "hourlyBondWithdrawingSpeed",
      "outputs": [
        {
          "internalType": "uint256",
          "name": "",
          "type": "uint256"
        }
      ],
      "stateMutability": "view",
      "type": "function"
    },
    {
      "inputs": [
        {
          "internalType": "address",
          "name": "",
          "type": "address"
        }
      ],
      "name": "hourlyBondYieldAccumulators",
      "outputs": [
        {
          "internalType": "uint256",
          "name": "accumulatorFP",
          "type": "uint256"
        },
        {
          "internalType": "uint256",
          "name": "lastUpdated",
          "type": "uint256"
        },
        {
          "internalType": "uint256",
          "name": "hourlyYieldFP",
          "type": "uint256"
        }
      ],
      "stateMutability": "view",
      "type": "function"
    },
    {
      "inputs": [],
      "name": "hourlyMaxYield",
      "outputs": [
        {
          "internalType": "uint256",
          "name": "",
          "type": "uint256"
        }
      ],
      "stateMutability": "view",
      "type": "function"
    },
    {
      "inputs": [
        {
          "internalType": "address",
          "name": "",
          "type": "address"
        },
        {
          "internalType": "uint256",
          "name": "",
          "type": "uint256"
        }
      ],
      "name": "lastBought",
      "outputs": [
        {
          "internalType": "uint256",
          "name": "",
          "type": "uint256"
        }
      ],
      "stateMutability": "view",
      "type": "function"
    },
    {
      "inputs": [
        {
          "internalType": "address",
          "name": "",
          "type": "address"
        },
        {
          "internalType": "uint256",
          "name": "",
          "type": "uint256"
        }
      ],
      "name": "lastWithdrawn",
      "outputs": [
        {
          "internalType": "uint256",
          "name": "",
          "type": "uint256"
        }
      ],
      "stateMutability": "view",
      "type": "function"
    },
    {
      "inputs": [
        {
          "internalType": "address",
          "name": "",
          "type": "address"
        }
      ],
      "name": "lendingIncentiveTranches",
      "outputs": [
        {
          "internalType": "uint8",
          "name": "",
          "type": "uint8"
        }
      ],
      "stateMutability": "view",
      "type": "function"
    },
    {
      "inputs": [
        {
          "internalType": "address",
          "name": "",
          "type": "address"
        }
      ],
      "name": "lendingTarget",
      "outputs": [
        {
          "internalType": "uint256",
          "name": "",
          "type": "uint256"
        }
      ],
      "stateMutability": "view",
      "type": "function"
    },
    {
      "inputs": [],
      "name": "maxRuntime",
      "outputs": [
        {
          "internalType": "uint256",
          "name": "",
          "type": "uint256"
        }
      ],
      "stateMutability": "view",
      "type": "function"
    },
    {
      "inputs": [
        {
          "internalType": "address",
          "name": "",
          "type": "address"
        },
        {
          "internalType": "uint256",
          "name": "",
          "type": "uint256"
        }
      ],
      "name": "maxYield",
      "outputs": [
        {
          "internalType": "uint256",
          "name": "",
          "type": "uint256"
        }
      ],
      "stateMutability": "view",
      "type": "function"
    },
    {
      "inputs": [],
      "name": "minRuntime",
      "outputs": [
        {
          "internalType": "uint256",
          "name": "",
          "type": "uint256"
        }
      ],
      "stateMutability": "view",
      "type": "function"
    },
    {
      "inputs": [],
      "name": "nextBondIndex",
      "outputs": [
        {
          "internalType": "uint256",
          "name": "",
          "type": "uint256"
        }
      ],
      "stateMutability": "view",
      "type": "function"
    },
    {
      "inputs": [],
      "name": "owner",
      "outputs": [
        {
          "internalType": "address",
          "name": "",
          "type": "address"
        }
      ],
      "stateMutability": "view",
      "type": "function"
    },
    {
      "inputs": [
        {
          "internalType": "address",
          "name": "token",
          "type": "address"
        },
        {
          "internalType": "uint256",
          "name": "amount",
          "type": "uint256"
        }
      ],
      "name": "payOff",
      "outputs": [],
      "stateMutability": "nonpayable",
      "type": "function"
    },
    {
      "inputs": [
        {
          "internalType": "address",
          "name": "token",
          "type": "address"
        },
        {
          "internalType": "uint256",
          "name": "amount",
          "type": "uint256"
        }
      ],
      "name": "registerBorrow",
      "outputs": [],
      "stateMutability": "nonpayable",
      "type": "function"
    },
    {
      "inputs": [],
      "name": "renounceOwnership",
      "outputs": [],
      "stateMutability": "nonpayable",
      "type": "function"
    },
    {
      "inputs": [],
      "name": "roles",
      "outputs": [
        {
          "internalType": "contract Roles",
          "name": "",
          "type": "address"
        }
      ],
      "stateMutability": "view",
      "type": "function"
    },
    {
      "inputs": [
        {
          "internalType": "address",
          "name": "",
          "type": "address"
        },
        {
          "internalType": "uint256",
          "name": "",
          "type": "uint256"
        }
      ],
      "name": "runtimeWeights",
      "outputs": [
        {
          "internalType": "uint256",
          "name": "",
          "type": "uint256"
        }
      ],
      "stateMutability": "view",
      "type": "function"
    },
    {
      "inputs": [
        {
          "internalType": "address",
          "name": "token",
          "type": "address"
        },
        {
          "internalType": "uint8",
          "name": "tranche",
          "type": "uint8"
        }
      ],
      "name": "setLendingIncentiveTranche",
      "outputs": [],
      "stateMutability": "nonpayable",
      "type": "function"
    },
    {
      "inputs": [
        {
          "internalType": "address",
          "name": "",
          "type": "address"
        }
      ],
      "name": "totalBorrowed",
      "outputs": [
        {
          "internalType": "uint256",
          "name": "",
          "type": "uint256"
        }
      ],
      "stateMutability": "view",
      "type": "function"
    },
    {
      "inputs": [
        {
          "internalType": "address",
          "name": "",
          "type": "address"
        }
      ],
      "name": "totalHourlyBond",
      "outputs": [
        {
          "internalType": "uint256",
          "name": "",
          "type": "uint256"
        }
      ],
      "stateMutability": "view",
      "type": "function"
    },
    {
      "inputs": [
        {
          "internalType": "address",
          "name": "",
          "type": "address"
        }
      ],
      "name": "totalHourlyYieldFP",
      "outputs": [
        {
          "internalType": "uint256",
          "name": "",
          "type": "uint256"
        }
      ],
      "stateMutability": "view",
      "type": "function"
    },
    {
      "inputs": [
        {
          "internalType": "address",
          "name": "",
          "type": "address"
        }
      ],
      "name": "totalLending",
      "outputs": [
        {
          "internalType": "uint256",
          "name": "",
          "type": "uint256"
        }
      ],
      "stateMutability": "view",
      "type": "function"
    },
    {
      "inputs": [
        {
          "internalType": "address",
          "name": "",
          "type": "address"
        },
        {
          "internalType": "uint256",
          "name": "",
          "type": "uint256"
        }
      ],
      "name": "totalLendingPerRuntime",
      "outputs": [
        {
          "internalType": "uint256",
          "name": "",
          "type": "uint256"
        }
      ],
      "stateMutability": "view",
      "type": "function"
    },
    {
      "inputs": [
        {
          "internalType": "address",
          "name": "newOwner",
          "type": "address"
        }
      ],
      "name": "transferOwnership",
      "outputs": [],
      "stateMutability": "nonpayable",
      "type": "function"
    },
    {
      "inputs": [
        {
          "internalType": "address",
          "name": "token",
          "type": "address"
        },
        {
          "internalType": "uint256",
          "name": "runtime",
          "type": "uint256"
        },
        {
          "internalType": "uint256",
          "name": "amount",
          "type": "uint256"
        }
      ],
      "name": "viewBondReturn",
      "outputs": [
        {
          "internalType": "uint256",
          "name": "",
          "type": "uint256"
        }
      ],
      "stateMutability": "view",
      "type": "function"
    },
    {
      "inputs": [
        {
          "internalType": "uint256",
          "name": "balance",
          "type": "uint256"
        },
        {
          "internalType": "address",
          "name": "token",
          "type": "address"
        },
        {
          "internalType": "uint256",
          "name": "yieldQuotientFP",
          "type": "uint256"
        }
      ],
      "name": "viewBorrowInterest",
      "outputs": [
        {
          "internalType": "uint256",
          "name": "",
          "type": "uint256"
        }
      ],
      "stateMutability": "view",
      "type": "function"
    },
    {
      "inputs": [
        {
          "internalType": "address",
          "name": "token",
          "type": "address"
        }
      ],
      "name": "viewBorrowingYield",
      "outputs": [
        {
          "internalType": "uint256",
          "name": "",
          "type": "uint256"
        }
      ],
      "stateMutability": "view",
      "type": "function"
    },
    {
      "inputs": [],
      "name": "weightTotal",
      "outputs": [
        {
          "internalType": "uint256",
          "name": "",
          "type": "uint256"
        }
      ],
      "stateMutability": "view",
      "type": "function"
    },
    {
      "inputs": [
        {
          "internalType": "uint256",
          "name": "bondId",
          "type": "uint256"
        }
      ],
      "name": "withdrawBond",
      "outputs": [],
      "stateMutability": "nonpayable",
      "type": "function"
    },
    {
      "inputs": [
        {
          "internalType": "address",
          "name": "token",
          "type": "address"
        },
        {
          "internalType": "uint256",
          "name": "amount",
          "type": "uint256"
        }
      ],
      "name": "withdrawHourlyBond",
      "outputs": [],
      "stateMutability": "nonpayable",
      "type": "function"
    },
    {
      "inputs": [
        {
          "internalType": "address",
          "name": "",
          "type": "address"
        },
        {
          "internalType": "uint256",
          "name": "",
          "type": "uint256"
        }
      ],
      "name": "withdrawingSpeed",
      "outputs": [
        {
          "internalType": "uint256",
          "name": "",
          "type": "uint256"
        }
      ],
      "stateMutability": "view",
      "type": "function"
    },
    {
      "inputs": [],
      "name": "yieldChangePerSecondFP",
      "outputs": [
        {
          "internalType": "uint256",
          "name": "",
          "type": "uint256"
        }
      ],
      "stateMutability": "view",
      "type": "function"
    },
    {
      "inputs": [
        {
          "internalType": "address",
          "name": "",
          "type": "address"
        },
        {
          "internalType": "uint256",
          "name": "",
          "type": "uint256"
        }
      ],
      "name": "yieldLastUpdated",
      "outputs": [
        {
          "internalType": "uint256",
          "name": "",
          "type": "uint256"
        }
      ],
      "stateMutability": "view",
      "type": "function"
    }
  ],
  "bytecode": "0x60806040523480156200001157600080fd5b5060405162003017380380620030178339810160408190526200003491620000b2565b600080546001600160a01b0319166001600160a01b03831617815562000059620000ae565b600180546001600160a01b0319166001600160a01b038316908117909155604051919250906000907f8be0079c531659141344cd1fd0a4f28419497f9722a3daafe3b4186f6b6457e0908290a35050620000e2565b3390565b600060208284031215620000c4578081fd5b81516001600160a01b0381168114620000db578182fd5b9392505050565b612f2580620000f26000396000f3fe608060405234801561001057600080fd5b50600436106103ba5760003560e01c806383a04229116101f4578063c76139d01161011a578063e69f8959116100ad578063ef2cd3b81161007c578063ef2cd3b814610745578063f11f979514610758578063f2fde38b14610760578063f884614b14610773576103ba565b8063e69f8959146106f9578063e7bde5c11461070c578063e84bfdf41461071f578063ee0862bf14610732576103ba565b8063d5d7ed7f116100e9578063d5d7ed7f146106b8578063dcaf8029146106c0578063e2e1ca2b146106d3578063e695fa68146106e6576103ba565b8063c76139d014610682578063cacf8d451461068a578063cd3b5dfb14610692578063d3dc14b2146106a5576103ba565b8063a9cc053611610192578063c1cea80711610161578063c1cea80714610641578063c3daab9614610654578063c43a683d14610667578063c4f7d45d1461066f576103ba565b8063a9cc0536146105fe578063aa7e321d14610606578063ae5058731461060e578063bfedc0bf1461062e576103ba565b80639229e73f116101ce5780639229e73f146105de578063a0098d69146105e6578063a8b151a1146105ee578063a94c7c34146105f6576103ba565b806383a04229146105ac57806383a49c7c146105ce5780638da5cb5b146105d6576103ba565b8063392f5f64116102e45780635f1c17c011610277578063773bbb3b11610246578063773bbb3b146105765780637a2aac221461057e5780637b8b4ee21461059157806381ca6600146105a4576103ba565b80635f1c17c01461052d5780636694198414610553578063687680ed1461055b578063715018a61461056e576103ba565b806348fb27b8116102b357806348fb27b81461050257806349f7cff61461050a57806358d51f911461051d5780635c275a3914610525576103ba565b8063392f5f64146104bf5780633aa58f45146104d457806340fe56a9146104e757806346b88796146104fa576103ba565b80631799f0c31161035c5780632a0acc6a1161032b5780632a0acc6a146104945780632a6a897b1461049c5780632fe94def146104af57806332fe7b26146104b7576103ba565b80631799f0c3146104535780631bc5d81d1461046657806320b155151461046e578063247ae0a614610481576103ba565b80630bba92b3116103985780630bba92b3146104055780630f7c43dc1461041857806316de7a431461042d5780631744a9b614610440576103ba565b80630196c361146103bf578063065d570f146103e85780630b550546146103fd575b600080fd5b6103d26103cd366004612823565b610786565b6040516103df9190612d72565b60405180910390f35b6103f06107b7565b6040516103df9190612d39565b6103d26107bc565b6103d261041336600461284e565b6107c2565b61042b610426366004612823565b610890565b005b61042b61043b366004612823565b6108db565b6103d261044e3660046127ac565b610a19565b6103d26104613660046127ac565b610a2b565b6103f0610a3d565b6103d261047c3660046127ac565b610a42565b6103d261048f366004612823565b610a54565b6103f0610a70565b61042b6104aa366004612823565b610a75565b6103f0610af2565b6103f0610af7565b6104c7610afc565b6040516103df919061295d565b6103d26104e23660046127ac565b610b18565b6103d26104f5366004612823565b610b2a565b6103f0610b46565b6103f0610b4b565b6103d26105183660046127ac565b610b50565b6103d2610b62565b6103f0610b68565b61054061053b36600461290e565b610b6d565b6040516103df97969594939291906129af565b6103f0610bc3565b6103d2610569366004612926565b610bc8565b61042b610bed565b6103d2610ccf565b61042b61058c3660046128bc565b610cd5565b6103d261059f366004612882565b610d6c565b6103f0610e20565b6105bf6105ba3660046127eb565b610e25565b6040516103df93929190612d7b565b6103f0610e51565b6104c7610e56565b6103d2610e72565b6103f0610e78565b6103d2610e7d565b6103f0610e83565b6103f0610e88565b6103d2610e8d565b61062161061c3660046127ac565b610e93565b6040516103df9190612d91565b6105bf61063c3660046127ac565b610ea8565b6103d261064f3660046127ac565b610ec9565b61042b61066236600461290e565b610edb565b6103d2610f7f565b6103d261067d366004612823565b610f85565b6103f0610fa1565b6103f0610fa6565b6105bf6106a03660046127ac565b610fab565b6103d26106b3366004612823565b610fcc565b6103f0610fe8565b6103d26106ce366004612823565b610fed565b6103d26106e13660046127ac565b611009565b6103d26106f4366004612926565b61101b565b6103d2610707366004612823565b61103b565b6103d261071a3660046127ac565b611057565b6103d261072d366004612823565b61106b565b61042b610740366004612823565b611087565b6103d2610753366004612823565b611230565b6103d261124c565b61042b61076e3660046127ac565b611252565b61042b6107813660046127ac565b6113a0565b601660205281600052604060002081815481106107a257600080fd5b90600052602060002001600091509150505481565b600381565b600f5481565b6000806107cf85856113ff565b9050600061086a86601a60008973ffffffffffffffffffffffffffffffffffffffff1673ffffffffffffffffffffffffffffffffffffffff168152602001908152602001600020848154811061084e577f4e487b7100000000000000000000000000000000000000000000000000000000600052603260045260246000fd5b9060005260206000200154866108649190612d9f565b84611440565b905064010000000061087c8583612dcb565b6108869190612db7565b9695505050505050565b73ffffffffffffffffffffffffffffffffffffffff8216600090815260076020908152604080832033845290915290206108ca838261178b565b6108d68382338561184a565b505050565b73ffffffffffffffffffffffffffffffffffffffff821660009081526002602052604090205461090c908290612d9f565b73ffffffffffffffffffffffffffffffffffffffff831660009081526004602052604090205410610a155761093f611a07565b73ffffffffffffffffffffffffffffffffffffffff166347e7ef2483836040518363ffffffff1660e01b81526004016109799291906129fa565b602060405180830381600087803b15801561099357600080fd5b505af11580156109a7573d6000803e3d6000fd5b505050506040513d601f19601f820116820180604052508101906109cb91906128ee565b610a0a576040517f08c379a0000000000000000000000000000000000000000000000000000000008152600401610a0190612cdc565b60405180910390fd5b610a15823383611ab4565b5050565b60046020526000908152604090205481565b60056020526000908152604090205481565b600881565b600b6020526000908152604090205481565b601560205281600052604060002081815481106107a257600080fd5b606b81565b610a7e33611bbf565b610ab4576040517f08c379a0000000000000000000000000000000000000000000000000000000008152600401610a0190612ca5565b73ffffffffffffffffffffffffffffffffffffffff821660009081526003602052604081208054839290610ae9908490612e08565b90915550505050565b606981565b606781565b60005473ffffffffffffffffffffffffffffffffffffffff1681565b600a6020526000908152604090205481565b601260205281600052604060002081815481106107a257600080fd5b600681565b606681565b60096020526000908152604090205481565b60115481565b606581565b601960205260009081526040902080546001820154600283015460038401546004850154600586015460069096015473ffffffffffffffffffffffffffffffffffffffff95861696959094169492939192909187565b600181565b600080610bd784601d42611c69565b9050610be4858285611cd0565b95945050505050565b610bf5611ce7565b73ffffffffffffffffffffffffffffffffffffffff16610c13610e56565b73ffffffffffffffffffffffffffffffffffffffff1614610c60576040517f08c379a0000000000000000000000000000000000000000000000000000000008152600401610a0190612bcb565b60015460405160009173ffffffffffffffffffffffffffffffffffffffff16907f8be0079c531659141344cd1fd0a4f28419497f9722a3daafe3b4186f6b6457e0908390a3600180547fffffffffffffffffffffffff0000000000000000000000000000000000000000169055565b600d5481565b610cde33611ceb565b610d14576040517f08c379a0000000000000000000000000000000000000000000000000000000008152600401610a0190612a20565b73ffffffffffffffffffffffffffffffffffffffff919091166000908152601f6020526040902080547fffffffffffffffffffffffffffffffffffffffffffffffffffffffffffffff001660ff909216919091179055565b73ffffffffffffffffffffffffffffffffffffffff8416600090815260026020526040812054610d9d908490612d9f565b73ffffffffffffffffffffffffffffffffffffffff861660009081526004602052604090205410801590610dd3575083600e5410155b8015610de15750600d548410155b15610e1857610df33386868686611d45565b336000908152601e602090815260408220805460018101825590835291200181905590505b949350505050565b606a81565b600760209081526000928352604080842090915290825290208054600182015460029092015490919083565b600981565b60015473ffffffffffffffffffffffffffffffffffffffff1690565b600e5481565b600281565b600c5481565b600581565b606881565b601c5481565b601f6020526000908152604090205460ff1681565b60086020526000908152604090208054600182015460029092015490919083565b60026020526000908152604090205481565b6000818152601960205260409020805473ffffffffffffffffffffffffffffffffffffffff163314610f39576040517f08c379a0000000000000000000000000000000000000000000000000000000008152600401610a0190612c00565b80600401544211610f76576040517f08c379a0000000000000000000000000000000000000000000000000000000008152600401610a0190612c6e565b610a1581612122565b60105481565b601860205281600052604060002081815481106107a257600080fd5b606c81565b600481565b601d6020526000908152604090208054600182015460029092015490919083565b601a60205281600052604060002081815481106107a257600080fd5b600781565b601760205281600052604060002081815481106107a257600080fd5b60036020526000908152604090205481565b60008061102a84601d426123fb565b9050610be485826000015485611cd0565b601460205281600052604060002081815481106107a257600080fd5b600061106582601d42611c69565b92915050565b601360205281600052604060002081815481106107a257600080fd5b61109033611bbf565b6110c6576040517f08c379a0000000000000000000000000000000000000000000000000000000008152600401610a0190612ca5565b6110ce611a07565b73ffffffffffffffffffffffffffffffffffffffff16635acf6903836040518263ffffffff1660e01b8152600401611106919061295d565b60206040518083038186803b15801561111e57600080fd5b505afa158015611132573d6000803e3d6000fd5b505050506040513d601f19601f8201168201806040525081019061115691906128ee565b61118c576040517f08c379a0000000000000000000000000000000000000000000000000000000008152600401610a0190612c37565b73ffffffffffffffffffffffffffffffffffffffff8216600090815260036020526040812080548392906111c1908490612d9f565b909155505073ffffffffffffffffffffffffffffffffffffffff82166000908152600360209081526040808320546002909252909120541015610a15576040517f08c379a0000000000000000000000000000000000000000000000000000000008152600401610a0190612a7d565b601e60205281600052604060002081815481106107a257600080fd5b60065481565b61125a611ce7565b73ffffffffffffffffffffffffffffffffffffffff16611278610e56565b73ffffffffffffffffffffffffffffffffffffffff16146112c5576040517f08c379a0000000000000000000000000000000000000000000000000000000008152600401610a0190612bcb565b73ffffffffffffffffffffffffffffffffffffffff8116611312576040517f08c379a0000000000000000000000000000000000000000000000000000000008152600401610a0190612ada565b60015460405173ffffffffffffffffffffffffffffffffffffffff8084169216907f8be0079c531659141344cd1fd0a4f28419497f9722a3daafe3b4186f6b6457e090600090a3600180547fffffffffffffffffffffffff00000000000000000000000000000000000000001673ffffffffffffffffffffffffffffffffffffffff92909216919091179055565b73ffffffffffffffffffffffffffffffffffffffff8116600090815260076020908152604080832033845290915290206113da828261178b565b6113ea828233846000015461184a565b60008082556001820181905560029091015550565b73ffffffffffffffffffffffffffffffffffffffff82166000908152601b602052604081208054600f54839161143491612db7565b9050610be48185612db7565b73ffffffffffffffffffffffffffffffffffffffff83166000908152601b6020526040812080548390811061149e577f4e487b7100000000000000000000000000000000000000000000000000000000600052603260045260246000fd5b906000526020600020015490506000601860008673ffffffffffffffffffffffffffffffffffffffff1673ffffffffffffffffffffffffffffffffffffffff1681526020019081526020016000208381548110611524577f4e487b7100000000000000000000000000000000000000000000000000000000600052603260045260246000fd5b906000526020600020015490506000601054601360008873ffffffffffffffffffffffffffffffffffffffff1673ffffffffffffffffffffffffffffffffffffffff16815260200190815260200160002085815481106115ad577f4e487b7100000000000000000000000000000000000000000000000000000000600052603260045260246000fd5b600091825260208083209091015473ffffffffffffffffffffffffffffffffffffffff8a16835260049091526040909120546115e99190612dcb565b6115f39190612db7565b73ffffffffffffffffffffffffffffffffffffffff871660009081526014602052604081208054929350909186908110611656577f4e487b7100000000000000000000000000000000000000000000000000000000600052603260045260246000fd5b906000526020600020015490506000601660008973ffffffffffffffffffffffffffffffffffffffff1673ffffffffffffffffffffffffffffffffffffffff16815260200190815260200160002086815481106116dc577f4e487b7100000000000000000000000000000000000000000000000000000000600052603260045260246000fd5b906000526020600020015490506000601260008a73ffffffffffffffffffffffffffffffffffffffff1673ffffffffffffffffffffffffffffffffffffffff1681526020019081526020016000208781548110611762577f4e487b7100000000000000000000000000000000000000000000000000000000600052603260045260246000fd5b9060005260206000200154905061177e86868a87878787612491565b9998505050505050505050565b600181015480156108d65760006117a4846008426123fb565b83548154919250906117b890829085611cd0565b8085556000906117c9908390612e08565b73ffffffffffffffffffffffffffffffffffffffff8716600090815260096020526040812080549293508392909190611803908490612d9f565b909155505073ffffffffffffffffffffffffffffffffffffffff86166000908152600260205260408120805483929061183d908490612d9f565b9091555050505050505050565b6000610e1084600201544261185f9190612e08565b6118699190612e58565b90508061025810156118a7576040517f08c379a0000000000000000000000000000000000000000000000000000000008152600401610a0190612b6e565b6118af611a07565b73ffffffffffffffffffffffffffffffffffffffff1663d9caed128685856040518463ffffffff1660e01b81526004016118eb9392919061297e565b602060405180830381600087803b15801561190557600080fd5b505af1158015611919573d6000803e3d6000fd5b505050506040513d601f19601f8201168201806040525081019061193d91906128ee565b611973576040517f08c379a0000000000000000000000000000000000000000000000000000000008152600401610a0190612b37565b818460000160008282546119879190612e08565b909155505073ffffffffffffffffffffffffffffffffffffffff8516600090815260096020526040812080548492906119c1908490612e08565b909155505073ffffffffffffffffffffffffffffffffffffffff8516600090815260026020526040812080548492906119fb908490612e08565b90915550505050505050565b600080546040517f3c9c8f9c00000000000000000000000000000000000000000000000000000000815273ffffffffffffffffffffffffffffffffffffffff90911690633c9c8f9c90611a5f90606590600401612d39565b60206040518083038186803b158015611a7757600080fd5b505afa158015611a8b573d6000803e3d6000fd5b505050506040513d601f19601f82011682018060405250810190611aaf91906127cf565b905090565b73ffffffffffffffffffffffffffffffffffffffff8084166000908152600760209081526040808320938616835292905220611af0848261178b565b73ffffffffffffffffffffffffffffffffffffffff84166000908152600860205260409020546001820155611b27610e1042612e58565b6002820155805482908290600090611b40908490612d9f565b909155505073ffffffffffffffffffffffffffffffffffffffff841660009081526009602052604081208054849290611b7a908490612d9f565b909155505073ffffffffffffffffffffffffffffffffffffffff841660009081526002602052604081208054849290611bb4908490612d9f565b909155505050505050565b600080546040517fd87fefd200000000000000000000000000000000000000000000000000000000815273ffffffffffffffffffffffffffffffffffffffff9091169063d87fefd290611c19906003908690600401612d48565b60206040518083038186803b158015611c3157600080fd5b505afa158015611c45573d6000803e3d6000fd5b505050506040513d601f19601f8201168201806040525081019061106591906128ee565b73ffffffffffffffffffffffffffffffffffffffff83166000908152602083905260408120600101548190611c9e9084612e08565b73ffffffffffffffffffffffffffffffffffffffff86166000908152602086905260409020909150610be4908261255d565b600081611cdd8486612dcb565b610e189190612db7565b3390565b600080546040517fd87fefd200000000000000000000000000000000000000000000000000000000815273ffffffffffffffffffffffffffffffffffffffff9091169063d87fefd290611c19906009908690600401612d48565b600080611d5286866113ff565b90506000611de787601a60008a73ffffffffffffffffffffffffffffffffffffffff1673ffffffffffffffffffffffffffffffffffffffff1681526020019081526020016000208481548110611dd1577f4e487b7100000000000000000000000000000000000000000000000000000000600052603260045260246000fd5b9060005260206000200154876108649190612d9f565b90506000640100000000611dfb8784612dcb565b611e059190612db7565b905084811061211657611e16611a07565b73ffffffffffffffffffffffffffffffffffffffff1663b3db428b8a8a896040518463ffffffff1660e01b8152600401611e529392919061297e565b602060405180830381600087803b158015611e6c57600080fd5b505af1158015611e80573d6000803e3d6000fd5b505050506040513d601f19601f82011682018060405250810190611ea491906128ee565b156121165760006002611eb78389612d9f565b611ec19190612db7565b73ffffffffffffffffffffffffffffffffffffffff8a16600090815260026020526040812080549293508392909190611efb908490612d9f565b909155505073ffffffffffffffffffffffffffffffffffffffff89166000908152601a60205260409020805482919086908110611f61577f4e487b7100000000000000000000000000000000000000000000000000000000600052603260045260246000fd5b906000526020600020016000828254611f7a9190612d9f565b90915550889050611f8b8489612dcb565b611f9790610e10612dcb565b611fa19190612db7565b73ffffffffffffffffffffffffffffffffffffffff8a1660009081526005602052604081208054909190611fd6908490612d9f565b9091555050601c8054955085906000611fee83612e1f565b91905055506040518060e001604052808b73ffffffffffffffffffffffffffffffffffffffff1681526020018a73ffffffffffffffffffffffffffffffffffffffff168152602001888152602001838152602001894261204e9190612d9f565b815260208082018b90526040918201869052600088815260198252828120845181547fffffffffffffffffffffffff000000000000000000000000000000000000000090811673ffffffffffffffffffffffffffffffffffffffff92831617835586850151600184018054909216908316179055858501516002830155606086015160038301556080860151600483015560a0860151600583015560c090950151600690910155928c16835260148152818320601590915291206121149190868a612606565b505b50505095945050505050565b6001810154600582015473ffffffffffffffffffffffffffffffffffffffff909116906000906121539083906113ff565b9050600060028460030154856002015461216d9190612d9f565b6121779190612db7565b73ffffffffffffffffffffffffffffffffffffffff84166000908152600260205260408120805492935083929091906121b1908490612e08565b909155505073ffffffffffffffffffffffffffffffffffffffff83166000908152601a60205260409020805482919084908110612217577f4e487b7100000000000000000000000000000000000000000000000000000000600052603260045260246000fd5b9060005260206000200160008282546122309190612e08565b909155505073ffffffffffffffffffffffffffffffffffffffff83166000908152601660209081526040808320601790925290912060028601546122779291908590612606565b73ffffffffffffffffffffffffffffffffffffffff8316600090815260026020908152604080832054600390925290912054118061236b57506122b8611a07565b845460038601546040517fd9caed1200000000000000000000000000000000000000000000000000000000815273ffffffffffffffffffffffffffffffffffffffff9384169363d9caed1293612317938993929091169160040161297e565b602060405180830381600087803b15801561233157600080fd5b505af1158015612345573d6000803e3d6000fd5b505050506040513d601f19601f8201168201806040525081019061236991906128ee565b155b156123f5578354600385015460405173ffffffffffffffffffffffffffffffffffffffff928316928616917fbcab653cf73e12f7bb78aa625dccb002864f5de7de2518796fb5b82fd6e6ab05916123c29190612d72565b60405180910390a3835460038501546123f591859173ffffffffffffffffffffffffffffffffffffffff909116906127a1565b50505050565b73ffffffffffffffffffffffffffffffffffffffff83166000908152602083815260408083206002808201546001830154918552838620546004865284872054600a875285882054600b9097529490962054600c54939661246496929593949093929190612491565b6002820155600181015460009061247b9084612e08565b9050612487828261255d565b8255509392505050565b86600061249e8842612e08565b90506000600654826124b09190612dcb565b905086881015806124de57508486101580156124de57506124d18888612e08565b6124db8688612e08565b10155b1561250a576124ed8184612e08565b92508264010000000011156125055764010000000092505b612550565b878711801561253357508585118061253357506125278587612e08565b6125318989612e08565b115b15612550576125428184612d9f565b925083831115612550578392505b5050979650505050505050565b60008061256c610e1084612e58565b905061257f640100000000610e10612dcb565b60028501548554839161259191612dcb565b61259b9190612dcb565b6125a59190612db7565b915060006125b5610e1085612db7565b905080156125fe5760005b808211156125fc576401000000008660020154856125de9190612dcb565b6125e89190612db7565b9350806125f481612e1f565b9150506125c0565b505b505092915050565b8354600f5460009161261791612db7565b905060006126258483612dcb565b90506000858581548110612662577f4e487b7100000000000000000000000000000000000000000000000000000000600052603260045260246000fd5b9060005260206000200154426126789190612e08565b90506000816126878487612dcb565b6126919190612db7565b905061269d8284612d9f565b6126a78383612dcb565b848a89815481106126e1577f4e487b7100000000000000000000000000000000000000000000000000000000600052603260045260246000fd5b90600052602060002001546126f69190612dcb565b6127009190612d9f565b61270a9190612db7565b888781548110612743577f4e487b7100000000000000000000000000000000000000000000000000000000600052603260045260246000fd5b90600052602060002001819055504287878154811061278b577f4e487b7100000000000000000000000000000000000000000000000000000000600052603260045260246000fd5b6000918252602090912001555050505050505050565b6108d6838383611ab4565b6000602082840312156127bd578081fd5b81356127c881612eca565b9392505050565b6000602082840312156127e0578081fd5b81516127c881612eca565b600080604083850312156127fd578081fd5b823561280881612eca565b9150602083013561281881612eca565b809150509250929050565b60008060408385031215612835578182fd5b823561284081612eca565b946020939093013593505050565b600080600060608486031215612862578081fd5b833561286d81612eca565b95602085013595506040909401359392505050565b60008060008060808587031215612897578081fd5b84356128a281612eca565b966020860135965060408601359560600135945092505050565b600080604083850312156128ce578182fd5b82356128d981612eca565b9150602083013560ff81168114612818578182fd5b6000602082840312156128ff578081fd5b815180151581146127c8578182fd5b60006020828403121561291f578081fd5b5035919050565b60008060006060848603121561293a578283fd5b83359250602084013561294c81612eca565b929592945050506040919091013590565b73ffffffffffffffffffffffffffffffffffffffff91909116815260200190565b73ffffffffffffffffffffffffffffffffffffffff9384168152919092166020820152604081019190915260600190565b73ffffffffffffffffffffffffffffffffffffffff978816815295909616602086015260408501939093526060840191909152608083015260a082015260c081019190915260e00190565b73ffffffffffffffffffffffffffffffffffffffff929092168252602082015260400190565b6020808252602e908201527f43616c6c6572206e6f7420617574686f72697a656420746f2073657420696e6360408201527f656e74697665207472616e636865000000000000000000000000000000000000606082015260800190565b6020808252602e908201527f496e73756666696369656e74206361706974616c20746f206c656e642c20747260408201527f7920616761696e206c6174657221000000000000000000000000000000000000606082015260800190565b60208082526026908201527f4f776e61626c653a206e6577206f776e657220697320746865207a65726f206160408201527f6464726573730000000000000000000000000000000000000000000000000000606082015260800190565b60208082526016908201527f496e73756666696369656e74206c697175696469747900000000000000000000604082015260600190565b6020808252603f908201527f5472696564207769746864726177696e67206f7574736964652073756273637260408201527f697074696f6e2063616e63656c6c6174696f6e2074696d652077696e646f7700606082015260800190565b6020808252818101527f4f776e61626c653a2063616c6c6572206973206e6f7420746865206f776e6572604082015260600190565b60208082526012908201527f4e6f7420686f6c646572206f6620626f6e640000000000000000000000000000604082015260600190565b60208082526015908201527f4e6f7420616e20617070726f76656420746f6b656e0000000000000000000000604082015260600190565b60208082526016908201527f626f6e64206973207374696c6c20696d6d617475726500000000000000000000604082015260600190565b60208082526018908201527f4e6f7420616e20617070726f76656420626f72726f7765720000000000000000604082015260600190565b6020808252602d908201527f436f756c64206e6f74207472616e7366657220626f6e64206465706f7369742060408201527f746f6b656e20746f2066756e6400000000000000000000000000000000000000606082015260800190565b61ffff91909116815260200190565b61ffff92909216825273ffffffffffffffffffffffffffffffffffffffff16602082015260400190565b90815260200190565b9283526020830191909152604082015260600190565b60ff91909116815260200190565b60008219821115612db257612db2612e6c565b500190565b600082612dc657612dc6612e9b565b500490565b6000817fffffffffffffffffffffffffffffffffffffffffffffffffffffffffffffffff0483118215151615612e0357612e03612e6c565b500290565b600082821015612e1a57612e1a612e6c565b500390565b60007fffffffffffffffffffffffffffffffffffffffffffffffffffffffffffffffff821415612e5157612e51612e6c565b5060010190565b600082612e6757612e67612e9b565b500690565b7f4e487b7100000000000000000000000000000000000000000000000000000000600052601160045260246000fd5b7f4e487b7100000000000000000000000000000000000000000000000000000000600052601260045260246000fd5b73ffffffffffffffffffffffffffffffffffffffff81168114612eec57600080fd5b5056fea2646970667358221220c2922143852e1d25f4b59fb96e2e36561e0106b26c3734a4a0c08c7f6f1a94c564736f6c63430008010033",
  "linkReferences": {},
  "deployedLinkReferences": {}
}