{
  "_format": "hh-sol-artifact-1",
  "contractName": "Lending",
  "sourceName": "contracts/Lending.sol",
  "abi": [
    {
      "inputs": [
        {
          "internalType": "address",
          "name": "_roles",
          "type": "address"
        }
      ],
      "stateMutability": "nonpayable",
      "type": "constructor"
    },
    {
      "anonymous": false,
      "inputs": [
        {
          "indexed": true,
          "internalType": "address",
          "name": "token",
          "type": "address"
        },
        {
          "indexed": true,
          "internalType": "address",
          "name": "holder",
          "type": "address"
        },
        {
          "indexed": false,
          "internalType": "uint256",
          "name": "value",
          "type": "uint256"
        }
      ],
      "name": "LiquidityWarning",
      "type": "event"
    },
    {
      "anonymous": false,
      "inputs": [
        {
          "indexed": true,
          "internalType": "address",
          "name": "previousOwner",
          "type": "address"
        },
        {
          "indexed": true,
          "internalType": "address",
          "name": "newOwner",
          "type": "address"
        }
      ],
      "name": "OwnershipTransferred",
      "type": "event"
    },
    {
      "inputs": [],
      "name": "ADMIN",
      "outputs": [
        {
          "internalType": "uint16",
          "name": "",
          "type": "uint16"
        }
      ],
      "stateMutability": "view",
      "type": "function"
    },
    {
      "inputs": [],
      "name": "AUTHORIZED_FUND_TRADER",
      "outputs": [
        {
          "internalType": "uint16",
          "name": "",
          "type": "uint16"
        }
      ],
      "stateMutability": "view",
      "type": "function"
    },
    {
      "inputs": [],
      "name": "BORROWER",
      "outputs": [
        {
          "internalType": "uint16",
          "name": "",
          "type": "uint16"
        }
      ],
      "stateMutability": "view",
      "type": "function"
    },
    {
      "inputs": [],
      "name": "FEE_CONTROLLER",
      "outputs": [
        {
          "internalType": "uint16",
          "name": "",
          "type": "uint16"
        }
      ],
      "stateMutability": "view",
      "type": "function"
    },
    {
      "inputs": [],
      "name": "FEE_SOURCE",
      "outputs": [
        {
          "internalType": "uint16",
          "name": "",
          "type": "uint16"
        }
      ],
      "stateMutability": "view",
      "type": "function"
    },
    {
      "inputs": [],
      "name": "FUND",
      "outputs": [
        {
          "internalType": "uint16",
          "name": "",
          "type": "uint16"
        }
      ],
      "stateMutability": "view",
      "type": "function"
    },
    {
      "inputs": [],
      "name": "INCENTIVE_DISTRIBUTION",
      "outputs": [
        {
          "internalType": "uint16",
          "name": "",
          "type": "uint16"
        }
      ],
      "stateMutability": "view",
      "type": "function"
    },
    {
      "inputs": [],
      "name": "INCENTIVE_REPORTER",
      "outputs": [
        {
          "internalType": "uint16",
          "name": "",
          "type": "uint16"
        }
      ],
      "stateMutability": "view",
      "type": "function"
    },
    {
      "inputs": [],
      "name": "LENDING",
      "outputs": [
        {
          "internalType": "uint16",
          "name": "",
          "type": "uint16"
        }
      ],
      "stateMutability": "view",
      "type": "function"
    },
    {
      "inputs": [],
      "name": "LIQUIDATOR",
      "outputs": [
        {
          "internalType": "uint16",
          "name": "",
          "type": "uint16"
        }
      ],
      "stateMutability": "view",
      "type": "function"
    },
    {
      "inputs": [],
      "name": "MARGIN_CALLER",
      "outputs": [
        {
          "internalType": "uint16",
          "name": "",
          "type": "uint16"
        }
      ],
      "stateMutability": "view",
      "type": "function"
    },
    {
      "inputs": [],
      "name": "MARGIN_TRADER",
      "outputs": [
        {
          "internalType": "uint16",
          "name": "",
          "type": "uint16"
        }
      ],
      "stateMutability": "view",
      "type": "function"
    },
    {
      "inputs": [],
      "name": "MARGIN_TRADING",
      "outputs": [
        {
          "internalType": "uint16",
          "name": "",
          "type": "uint16"
        }
      ],
      "stateMutability": "view",
      "type": "function"
    },
    {
      "inputs": [],
      "name": "PRICE_CONTROLLER",
      "outputs": [
        {
          "internalType": "uint16",
          "name": "",
          "type": "uint16"
        }
      ],
      "stateMutability": "view",
      "type": "function"
    },
    {
      "inputs": [],
      "name": "ROUTER",
      "outputs": [
        {
          "internalType": "uint16",
          "name": "",
          "type": "uint16"
        }
      ],
      "stateMutability": "view",
      "type": "function"
    },
    {
      "inputs": [],
      "name": "TOKEN_ACTIVATOR",
      "outputs": [
        {
          "internalType": "uint16",
          "name": "",
          "type": "uint16"
        }
      ],
      "stateMutability": "view",
      "type": "function"
    },
    {
      "inputs": [],
      "name": "WITHDRAWER",
      "outputs": [
        {
          "internalType": "uint16",
          "name": "",
          "type": "uint16"
        }
      ],
      "stateMutability": "view",
      "type": "function"
    },
    {
      "inputs": [
        {
          "internalType": "uint256",
          "name": "balance",
          "type": "uint256"
        },
        {
          "internalType": "address",
          "name": "token",
          "type": "address"
        },
        {
          "internalType": "uint256",
          "name": "yieldQuotientFP",
          "type": "uint256"
        }
      ],
      "name": "applyBorrowInterest",
      "outputs": [
        {
          "internalType": "uint256",
          "name": "",
          "type": "uint256"
        }
      ],
      "stateMutability": "nonpayable",
      "type": "function"
    },
    {
      "inputs": [
        {
          "internalType": "uint256",
          "name": "",
          "type": "uint256"
        }
      ],
      "name": "bonds",
      "outputs": [
        {
          "internalType": "address",
          "name": "holder",
          "type": "address"
        },
        {
          "internalType": "address",
          "name": "token",
          "type": "address"
        },
        {
          "internalType": "uint256",
          "name": "originalPrice",
          "type": "uint256"
        },
        {
          "internalType": "uint256",
          "name": "returnAmount",
          "type": "uint256"
        },
        {
          "internalType": "uint256",
          "name": "maturityTimestamp",
          "type": "uint256"
        },
        {
          "internalType": "uint256",
          "name": "runtime",
          "type": "uint256"
        },
        {
          "internalType": "uint256",
          "name": "yieldFP",
          "type": "uint256"
        }
      ],
      "stateMutability": "view",
      "type": "function"
    },
    {
      "inputs": [
        {
          "internalType": "address",
          "name": "",
          "type": "address"
        }
      ],
      "name": "borrowYieldAccumulators",
      "outputs": [
        {
          "internalType": "uint256",
          "name": "accumulatorFP",
          "type": "uint256"
        },
        {
          "internalType": "uint256",
          "name": "lastUpdated",
          "type": "uint256"
        },
        {
          "internalType": "uint256",
          "name": "hourlyYieldFP",
          "type": "uint256"
        }
      ],
      "stateMutability": "view",
      "type": "function"
    },
    {
      "inputs": [],
      "name": "borrowingMarkupFP",
      "outputs": [
        {
          "internalType": "uint256",
          "name": "",
          "type": "uint256"
        }
      ],
      "stateMutability": "view",
      "type": "function"
    },
    {
      "inputs": [
        {
          "internalType": "address",
          "name": "token",
          "type": "address"
        },
        {
          "internalType": "uint256",
          "name": "runtime",
          "type": "uint256"
        },
        {
          "internalType": "uint256",
          "name": "amount",
          "type": "uint256"
        },
        {
          "internalType": "uint256",
          "name": "minReturn",
          "type": "uint256"
        }
      ],
      "name": "buyBond",
      "outputs": [
        {
          "internalType": "uint256",
          "name": "bondIndex",
          "type": "uint256"
        }
      ],
      "stateMutability": "nonpayable",
      "type": "function"
    },
    {
      "inputs": [
        {
          "internalType": "address",
          "name": "token",
          "type": "address"
        },
        {
          "internalType": "uint256",
          "name": "amount",
          "type": "uint256"
        }
      ],
      "name": "buyHourlyBondSubscription",
      "outputs": [],
      "stateMutability": "nonpayable",
      "type": "function"
    },
    {
      "inputs": [
        {
          "internalType": "address",
          "name": "",
          "type": "address"
        },
        {
          "internalType": "uint256",
          "name": "",
          "type": "uint256"
        }
      ],
      "name": "buyingSpeed",
      "outputs": [
        {
          "internalType": "uint256",
          "name": "",
          "type": "uint256"
        }
      ],
      "stateMutability": "view",
      "type": "function"
    },
    {
      "inputs": [
        {
          "internalType": "address",
          "name": "token",
          "type": "address"
        }
      ],
      "name": "closeHourlyBondAccount",
      "outputs": [],
      "stateMutability": "nonpayable",
      "type": "function"
    },
    {
      "inputs": [],
      "name": "diffMaxMinRuntime",
      "outputs": [
        {
          "internalType": "uint256",
          "name": "",
          "type": "uint256"
        }
      ],
      "stateMutability": "view",
      "type": "function"
    },
    {
      "inputs": [
        {
          "internalType": "address",
          "name": "",
          "type": "address"
        },
        {
          "internalType": "address",
          "name": "",
          "type": "address"
        }
      ],
      "name": "hourlyBondAccounts",
      "outputs": [
        {
          "internalType": "uint256",
          "name": "amount",
          "type": "uint256"
        },
        {
          "internalType": "uint256",
          "name": "yieldQuotientFP",
          "type": "uint256"
        },
        {
          "internalType": "uint256",
          "name": "moduloHour",
          "type": "uint256"
        }
      ],
      "stateMutability": "view",
      "type": "function"
    },
    {
      "inputs": [
        {
          "internalType": "address",
          "name": "",
          "type": "address"
        }
      ],
      "name": "hourlyBondBuyingSpeed",
      "outputs": [
        {
          "internalType": "uint256",
          "name": "",
          "type": "uint256"
        }
      ],
      "stateMutability": "view",
      "type": "function"
    },
    {
      "inputs": [
        {
          "internalType": "address",
          "name": "",
          "type": "address"
        }
      ],
      "name": "hourlyBondWithdrawingSpeed",
      "outputs": [
        {
          "internalType": "uint256",
          "name": "",
          "type": "uint256"
        }
      ],
      "stateMutability": "view",
      "type": "function"
    },
    {
      "inputs": [
        {
          "internalType": "address",
          "name": "",
          "type": "address"
        }
      ],
      "name": "hourlyBondYieldAccumulators",
      "outputs": [
        {
          "internalType": "uint256",
          "name": "accumulatorFP",
          "type": "uint256"
        },
        {
          "internalType": "uint256",
          "name": "lastUpdated",
          "type": "uint256"
        },
        {
          "internalType": "uint256",
          "name": "hourlyYieldFP",
          "type": "uint256"
        }
      ],
      "stateMutability": "view",
      "type": "function"
    },
    {
      "inputs": [],
      "name": "hourlyMaxYield",
      "outputs": [
        {
          "internalType": "uint256",
          "name": "",
          "type": "uint256"
        }
      ],
      "stateMutability": "view",
      "type": "function"
    },
    {
      "inputs": [
        {
          "internalType": "address",
          "name": "",
          "type": "address"
        },
        {
          "internalType": "uint256",
          "name": "",
          "type": "uint256"
        }
      ],
      "name": "lastBought",
      "outputs": [
        {
          "internalType": "uint256",
          "name": "",
          "type": "uint256"
        }
      ],
      "stateMutability": "view",
      "type": "function"
    },
    {
      "inputs": [
        {
          "internalType": "address",
          "name": "",
          "type": "address"
        },
        {
          "internalType": "uint256",
          "name": "",
          "type": "uint256"
        }
      ],
      "name": "lastWithdrawn",
      "outputs": [
        {
          "internalType": "uint256",
          "name": "",
          "type": "uint256"
        }
      ],
      "stateMutability": "view",
      "type": "function"
    },
    {
      "inputs": [
        {
          "internalType": "address",
          "name": "",
          "type": "address"
        }
      ],
      "name": "lendingTarget",
      "outputs": [
        {
          "internalType": "uint256",
          "name": "",
          "type": "uint256"
        }
      ],
      "stateMutability": "view",
      "type": "function"
    },
    {
      "inputs": [],
      "name": "maxRuntime",
      "outputs": [
        {
          "internalType": "uint256",
          "name": "",
          "type": "uint256"
        }
      ],
      "stateMutability": "view",
      "type": "function"
    },
    {
      "inputs": [
        {
          "internalType": "address",
          "name": "",
          "type": "address"
        },
        {
          "internalType": "uint256",
          "name": "",
          "type": "uint256"
        }
      ],
      "name": "maxYield",
      "outputs": [
        {
          "internalType": "uint256",
          "name": "",
          "type": "uint256"
        }
      ],
      "stateMutability": "view",
      "type": "function"
    },
    {
      "inputs": [],
      "name": "minRuntime",
      "outputs": [
        {
          "internalType": "uint256",
          "name": "",
          "type": "uint256"
        }
      ],
      "stateMutability": "view",
      "type": "function"
    },
    {
      "inputs": [],
      "name": "nextBondIndex",
      "outputs": [
        {
          "internalType": "uint256",
          "name": "",
          "type": "uint256"
        }
      ],
      "stateMutability": "view",
      "type": "function"
    },
    {
      "inputs": [],
      "name": "owner",
      "outputs": [
        {
          "internalType": "address",
          "name": "",
          "type": "address"
        }
      ],
      "stateMutability": "view",
      "type": "function"
    },
    {
      "inputs": [
        {
          "internalType": "address",
          "name": "token",
          "type": "address"
        },
        {
          "internalType": "uint256",
          "name": "amount",
          "type": "uint256"
        }
      ],
      "name": "payOff",
      "outputs": [],
      "stateMutability": "nonpayable",
      "type": "function"
    },
    {
      "inputs": [
        {
          "internalType": "address",
          "name": "token",
          "type": "address"
        },
        {
          "internalType": "uint256",
          "name": "amount",
          "type": "uint256"
        }
      ],
      "name": "registerBorrow",
      "outputs": [],
      "stateMutability": "nonpayable",
      "type": "function"
    },
    {
      "inputs": [],
      "name": "renounceOwnership",
      "outputs": [],
      "stateMutability": "nonpayable",
      "type": "function"
    },
    {
      "inputs": [],
      "name": "roles",
      "outputs": [
        {
          "internalType": "contract Roles",
          "name": "",
          "type": "address"
        }
      ],
      "stateMutability": "view",
      "type": "function"
    },
    {
      "inputs": [
        {
          "internalType": "address",
          "name": "",
          "type": "address"
        },
        {
          "internalType": "uint256",
          "name": "",
          "type": "uint256"
        }
      ],
      "name": "runtimeWeights",
      "outputs": [
        {
          "internalType": "uint256",
          "name": "",
          "type": "uint256"
        }
      ],
      "stateMutability": "view",
      "type": "function"
    },
    {
      "inputs": [
        {
          "internalType": "address",
          "name": "",
          "type": "address"
        }
      ],
      "name": "totalBorrowed",
      "outputs": [
        {
          "internalType": "uint256",
          "name": "",
          "type": "uint256"
        }
      ],
      "stateMutability": "view",
      "type": "function"
    },
    {
      "inputs": [
        {
          "internalType": "address",
          "name": "",
          "type": "address"
        }
      ],
      "name": "totalHourlyBond",
      "outputs": [
        {
          "internalType": "uint256",
          "name": "",
          "type": "uint256"
        }
      ],
      "stateMutability": "view",
      "type": "function"
    },
    {
      "inputs": [
        {
          "internalType": "address",
          "name": "",
          "type": "address"
        }
      ],
      "name": "totalHourlyYieldFP",
      "outputs": [
        {
          "internalType": "uint256",
          "name": "",
          "type": "uint256"
        }
      ],
      "stateMutability": "view",
      "type": "function"
    },
    {
      "inputs": [
        {
          "internalType": "address",
          "name": "",
          "type": "address"
        }
      ],
      "name": "totalLending",
      "outputs": [
        {
          "internalType": "uint256",
          "name": "",
          "type": "uint256"
        }
      ],
      "stateMutability": "view",
      "type": "function"
    },
    {
      "inputs": [
        {
          "internalType": "address",
          "name": "",
          "type": "address"
        },
        {
          "internalType": "uint256",
          "name": "",
          "type": "uint256"
        }
      ],
      "name": "totalLendingPerRuntime",
      "outputs": [
        {
          "internalType": "uint256",
          "name": "",
          "type": "uint256"
        }
      ],
      "stateMutability": "view",
      "type": "function"
    },
    {
      "inputs": [
        {
          "internalType": "address",
          "name": "newOwner",
          "type": "address"
        }
      ],
      "name": "transferOwnership",
      "outputs": [],
      "stateMutability": "nonpayable",
      "type": "function"
    },
    {
      "inputs": [
        {
          "internalType": "address",
          "name": "token",
          "type": "address"
        },
        {
          "internalType": "uint256",
          "name": "runtime",
          "type": "uint256"
        },
        {
          "internalType": "uint256",
          "name": "amount",
          "type": "uint256"
        }
      ],
      "name": "viewBondReturn",
      "outputs": [
        {
          "internalType": "uint256",
          "name": "",
          "type": "uint256"
        }
      ],
      "stateMutability": "view",
      "type": "function"
    },
    {
      "inputs": [
        {
          "internalType": "uint256",
          "name": "balance",
          "type": "uint256"
        },
        {
          "internalType": "address",
          "name": "token",
          "type": "address"
        },
        {
          "internalType": "uint256",
          "name": "yieldQuotientFP",
          "type": "uint256"
        }
      ],
      "name": "viewBorrowInterest",
      "outputs": [
        {
          "internalType": "uint256",
          "name": "",
          "type": "uint256"
        }
      ],
      "stateMutability": "view",
      "type": "function"
    },
    {
      "inputs": [
        {
          "internalType": "address",
          "name": "token",
          "type": "address"
        }
      ],
      "name": "viewBorrowingYield",
      "outputs": [
        {
          "internalType": "uint256",
          "name": "",
          "type": "uint256"
        }
      ],
      "stateMutability": "view",
      "type": "function"
    },
    {
      "inputs": [],
      "name": "weightTotal",
      "outputs": [
        {
          "internalType": "uint256",
          "name": "",
          "type": "uint256"
        }
      ],
      "stateMutability": "view",
      "type": "function"
    },
    {
      "inputs": [
        {
          "internalType": "uint256",
          "name": "bondId",
          "type": "uint256"
        }
      ],
      "name": "withdrawBond",
      "outputs": [],
      "stateMutability": "nonpayable",
      "type": "function"
    },
    {
      "inputs": [
        {
          "internalType": "address",
          "name": "token",
          "type": "address"
        },
        {
          "internalType": "uint256",
          "name": "amount",
          "type": "uint256"
        }
      ],
      "name": "withdrawHourlyBond",
      "outputs": [],
      "stateMutability": "nonpayable",
      "type": "function"
    },
    {
      "inputs": [
        {
          "internalType": "address",
          "name": "",
          "type": "address"
        },
        {
          "internalType": "uint256",
          "name": "",
          "type": "uint256"
        }
      ],
      "name": "withdrawingSpeed",
      "outputs": [
        {
          "internalType": "uint256",
          "name": "",
          "type": "uint256"
        }
      ],
      "stateMutability": "view",
      "type": "function"
    },
    {
      "inputs": [],
      "name": "yieldChangePerSecondFP",
      "outputs": [
        {
          "internalType": "uint256",
          "name": "",
          "type": "uint256"
        }
      ],
      "stateMutability": "view",
      "type": "function"
    },
    {
      "inputs": [
        {
          "internalType": "address",
          "name": "",
          "type": "address"
        },
        {
          "internalType": "uint256",
          "name": "",
          "type": "uint256"
        }
      ],
      "name": "yieldLastUpdated",
      "outputs": [
        {
          "internalType": "uint256",
          "name": "",
          "type": "uint256"
        }
      ],
      "stateMutability": "view",
      "type": "function"
    }
  ],
  "bytecode": "0x60806040523480156200001157600080fd5b5060405162002d9738038062002d978339810160408190526200003491620000b2565b600080546001600160a01b0319166001600160a01b03831617815562000059620000ae565b600180546001600160a01b0319166001600160a01b038316908117909155604051919250906000907f8be0079c531659141344cd1fd0a4f28419497f9722a3daafe3b4186f6b6457e0908290a35050620000e2565b3390565b600060208284031215620000c4578081fd5b81516001600160a01b0381168114620000db578182fd5b9392505050565b612ca580620000f26000396000f3fe608060405234801561001057600080fd5b50600436106103995760003560e01c806381ca6600116101e9578063c76139d01161010f578063e695fa68116100ad578063ee0862bf1161007c578063ee0862bf146106de578063f11f9795146106f1578063f2fde38b146106f9578063f884614b1461070c57610399565b8063e695fa6814610692578063e69f8959146106a5578063e7bde5c1146106b8578063e84bfdf4146106cb57610399565b8063d3dc14b2116100e9578063d3dc14b214610651578063d5d7ed7f14610664578063dcaf80291461066c578063e2e1ca2b1461067f57610399565b8063c76139d01461062e578063cacf8d4514610636578063cd3b5dfb1461063e57610399565b8063a94c7c3411610187578063c1cea80711610156578063c1cea807146105ed578063c3daab9614610600578063c43a683d14610613578063c4f7d45d1461061b57610399565b8063a94c7c34146105c2578063a9cc0536146105ca578063aa7e321d146105d2578063bfedc0bf146105da57610399565b80638da5cb5b116101c35780638da5cb5b146105a25780639229e73f146105aa578063a0098d69146105b2578063a8b151a1146105ba57610399565b806381ca66001461057057806383a042291461057857806383a49c7c1461059a57610399565b806332fe7b26116102ce57806358d51f911161026c578063687680ed1161023b578063687680ed1461053a578063715018a61461054d578063773bbb3b146105555780637b8b4ee21461055d57610399565b806358d51f91146104fc5780635c275a39146105045780635f1c17c01461050c578063669419841461053257610399565b806340fe56a9116102a857806340fe56a9146104c657806346b88796146104d957806348fb27b8146104e157806349f7cff6146104e957610399565b806332fe7b2614610496578063392f5f641461049e5780633aa58f45146104b357610399565b80631799f0c31161033b578063247ae0a611610315578063247ae0a6146104605780632a0acc6a146104735780632a6a897b1461047b5780632fe94def1461048e57610399565b80631799f0c3146104325780631bc5d81d1461044557806320b155151461044d57610399565b80630bba92b3116103775780630bba92b3146103e45780630f7c43dc146103f757806316de7a431461040c5780631744a9b61461041f57610399565b80630196c3611461039e578063065d570f146103c75780630b550546146103dc575b600080fd5b6103b16103ac366004612640565b61071f565b6040516103be9190612b00565b60405180910390f35b6103cf610750565b6040516103be9190612ac7565b6103b1610755565b6103b16103f236600461266b565b61075b565b61040a610405366004612640565b610829565b005b61040a61041a366004612640565b610874565b6103b161042d3660046125c9565b6109b2565b6103b16104403660046125c9565b6109c4565b6103cf6109d6565b6103b161045b3660046125c9565b6109db565b6103b161046e366004612640565b6109ed565b6103cf610a09565b61040a610489366004612640565b610a0e565b6103cf610a8b565b6103cf610a90565b6104a6610a95565b6040516103be9190612748565b6103b16104c13660046125c9565b610ab1565b6103b16104d4366004612640565b610ac3565b6103cf610adf565b6103cf610ae4565b6103b16104f73660046125c9565b610ae9565b6103b1610afb565b6103cf610b01565b61051f61051a3660046126f9565b610b06565b6040516103be979695949392919061279a565b6103cf610b5c565b6103b1610548366004612711565b610b61565b61040a610b86565b6103b1610c68565b6103b161056b36600461269f565b610c6e565b6103cf6110ad565b61058b610586366004612608565b6110b2565b6040516103be93929190612b09565b6103cf6110de565b6104a66110e3565b6103b16110ff565b6103cf611105565b6103b161110a565b6103cf611110565b6103cf611115565b6103b161111a565b61058b6105e83660046125c9565b611120565b6103b16105fb3660046125c9565b611141565b61040a61060e3660046126f9565b611153565b6103b16114c8565b6103b1610629366004612640565b6114ce565b6103cf6114ea565b6103cf6114ef565b61058b61064c3660046125c9565b6114f4565b6103b161065f366004612640565b611515565b6103cf611531565b6103b161067a366004612640565b611536565b6103b161068d3660046125c9565b611552565b6103b16106a0366004612711565b611564565b6103b16106b3366004612640565b611584565b6103b16106c63660046125c9565b6115a0565b6103b16106d9366004612640565b6115b4565b61040a6106ec366004612640565b6115d0565b6103b1611779565b61040a6107073660046125c9565b61177f565b61040a61071a3660046125c9565b6118cd565b6016602052816000526040600020818154811061073b57600080fd5b90600052602060002001600091509150505481565b600381565b600f5481565b600080610768858561192c565b9050600061080386601a60008973ffffffffffffffffffffffffffffffffffffffff1673ffffffffffffffffffffffffffffffffffffffff16815260200190815260200160002084815481106107e7577f4e487b7100000000000000000000000000000000000000000000000000000000600052603260045260246000fd5b9060005260206000200154866107fd9190612b1f565b8461196d565b90506401000000006108158583612b4b565b61081f9190612b37565b9695505050505050565b73ffffffffffffffffffffffffffffffffffffffff8216600090815260076020908152604080832033845290915290206108638382611cb8565b61086f83823385611d77565b505050565b73ffffffffffffffffffffffffffffffffffffffff82166000908152600260205260409020546108a5908290612b1f565b73ffffffffffffffffffffffffffffffffffffffff8316600090815260046020526040902054106109ae576108d8611f34565b73ffffffffffffffffffffffffffffffffffffffff166347e7ef2483836040518363ffffffff1660e01b81526004016109129291906127e5565b602060405180830381600087803b15801561092c57600080fd5b505af1158015610940573d6000803e3d6000fd5b505050506040513d601f19601f8201168201806040525081019061096491906126d9565b6109a3576040517f08c379a000000000000000000000000000000000000000000000000000000000815260040161099a90612a6a565b60405180910390fd5b6109ae823383611fe1565b5050565b60046020526000908152604090205481565b60056020526000908152604090205481565b600881565b600b6020526000908152604090205481565b6015602052816000526040600020818154811061073b57600080fd5b606b81565b610a17336120ec565b610a4d576040517f08c379a000000000000000000000000000000000000000000000000000000000815260040161099a90612a33565b73ffffffffffffffffffffffffffffffffffffffff821660009081526003602052604081208054839290610a82908490612b88565b90915550505050565b606981565b606781565b60005473ffffffffffffffffffffffffffffffffffffffff1681565b600a6020526000908152604090205481565b6012602052816000526040600020818154811061073b57600080fd5b600681565b606681565b60096020526000908152604090205481565b60115481565b606581565b601960205260009081526040902080546001820154600283015460038401546004850154600586015460069096015473ffffffffffffffffffffffffffffffffffffffff95861696959094169492939192909187565b600181565b600080610b7084601d42612196565b9050610b7d8582856121fd565b95945050505050565b610b8e612214565b73ffffffffffffffffffffffffffffffffffffffff16610bac6110e3565b73ffffffffffffffffffffffffffffffffffffffff1614610bf9576040517f08c379a000000000000000000000000000000000000000000000000000000000815260040161099a90612959565b60015460405160009173ffffffffffffffffffffffffffffffffffffffff16907f8be0079c531659141344cd1fd0a4f28419497f9722a3daafe3b4186f6b6457e0908390a3600180547fffffffffffffffffffffffff0000000000000000000000000000000000000000169055565b600d5481565b73ffffffffffffffffffffffffffffffffffffffff8416600090815260026020526040812054610c9f908490612b1f565b73ffffffffffffffffffffffffffffffffffffffff861660009081526004602052604090205410801590610cd5575083600e5410155b8015610ce35750600d548410155b156110a5576000610cf4868661192c565b90506000610d8987601a60008a73ffffffffffffffffffffffffffffffffffffffff1673ffffffffffffffffffffffffffffffffffffffff1681526020019081526020016000208481548110610d73577f4e487b7100000000000000000000000000000000000000000000000000000000600052603260045260246000fd5b9060005260206000200154876107fd9190612b1f565b90506000640100000000610d9d8784612b4b565b610da79190612b37565b90508481106110a157610db8611f34565b73ffffffffffffffffffffffffffffffffffffffff1663b3db428b338a896040518463ffffffff1660e01b8152600401610df493929190612769565b602060405180830381600087803b158015610e0e57600080fd5b505af1158015610e22573d6000803e3d6000fd5b505050506040513d601f19601f82011682018060405250810190610e4691906126d9565b156110a15760006002610e598389612b1f565b610e639190612b37565b73ffffffffffffffffffffffffffffffffffffffff8a16600090815260026020526040812080549293508392909190610e9d908490612b1f565b909155505073ffffffffffffffffffffffffffffffffffffffff89166000908152601a60205260409020805482919086908110610f03577f4e487b7100000000000000000000000000000000000000000000000000000000600052603260045260246000fd5b906000526020600020016000828254610f1c9190612b1f565b90915550889050610f2d8489612b4b565b610f3990610e10612b4b565b610f439190612b37565b73ffffffffffffffffffffffffffffffffffffffff8a1660009081526005602052604081208054909190610f78908490612b1f565b9091555050601c8054955085906000610f9083612b9f565b90915550506040805160e08101825233815273ffffffffffffffffffffffffffffffffffffffff8b1660208201529081018890526060810183905260808101610fd98a42612b1f565b815260208082018b90526040918201869052600088815260198252828120845181547fffffffffffffffffffffffff000000000000000000000000000000000000000090811673ffffffffffffffffffffffffffffffffffffffff92831617835586850151600184018054909216908316179055858501516002830155606086015160038301556080860151600483015560a0860151600583015560c090950151600690910155928c168352601481528183206015909152912061109f9190868a612218565b505b5050505b949350505050565b606a81565b600760209081526000928352604080842090915290825290208054600182015460029092015490919083565b600981565b60015473ffffffffffffffffffffffffffffffffffffffff1690565b600e5481565b600281565b600c5481565b600581565b606881565b601c5481565b60086020526000908152604090208054600182015460029092015490919083565b60026020526000908152604090205481565b6000818152601960205260409020805473ffffffffffffffffffffffffffffffffffffffff1633146111b1576040517f08c379a000000000000000000000000000000000000000000000000000000000815260040161099a9061298e565b806004015442116111ee576040517f08c379a000000000000000000000000000000000000000000000000000000000815260040161099a906129fc565b6001810154600582015473ffffffffffffffffffffffffffffffffffffffff9091169060009061121f90839061192c565b905060006002846003015485600201546112399190612b1f565b6112439190612b37565b73ffffffffffffffffffffffffffffffffffffffff841660009081526002602052604081208054929350839290919061127d908490612b88565b909155505073ffffffffffffffffffffffffffffffffffffffff83166000908152601a602052604090208054829190849081106112e3577f4e487b7100000000000000000000000000000000000000000000000000000000600052603260045260246000fd5b9060005260206000200160008282546112fc9190612b88565b909155505073ffffffffffffffffffffffffffffffffffffffff83166000908152601660209081526040808320601790925290912060028601546113439291908590612218565b73ffffffffffffffffffffffffffffffffffffffff831660009081526002602090815260408083205460039092529091205411806114375750611384611f34565b845460038601546040517fd9caed1200000000000000000000000000000000000000000000000000000000815273ffffffffffffffffffffffffffffffffffffffff9384169363d9caed12936113e39389939290911691600401612769565b602060405180830381600087803b1580156113fd57600080fd5b505af1158015611411573d6000803e3d6000fd5b505050506040513d601f19601f8201168201806040525081019061143591906126d9565b155b156114c1578354600385015460405173ffffffffffffffffffffffffffffffffffffffff928316928616917fbcab653cf73e12f7bb78aa625dccb002864f5de7de2518796fb5b82fd6e6ab059161148e9190612b00565b60405180910390a3835460038501546114c191859173ffffffffffffffffffffffffffffffffffffffff909116906123b3565b5050505050565b60105481565b6018602052816000526040600020818154811061073b57600080fd5b606c81565b600481565b601d6020526000908152604090208054600182015460029092015490919083565b601a602052816000526040600020818154811061073b57600080fd5b600781565b6017602052816000526040600020818154811061073b57600080fd5b60036020526000908152604090205481565b60008061157384601d426123be565b9050610b7d858260000154856121fd565b6014602052816000526040600020818154811061073b57600080fd5b60006115ae82601d42612196565b92915050565b6013602052816000526040600020818154811061073b57600080fd5b6115d9336120ec565b61160f576040517f08c379a000000000000000000000000000000000000000000000000000000000815260040161099a90612a33565b611617611f34565b73ffffffffffffffffffffffffffffffffffffffff16635acf6903836040518263ffffffff1660e01b815260040161164f9190612748565b60206040518083038186803b15801561166757600080fd5b505afa15801561167b573d6000803e3d6000fd5b505050506040513d601f19601f8201168201806040525081019061169f91906126d9565b6116d5576040517f08c379a000000000000000000000000000000000000000000000000000000000815260040161099a906129c5565b73ffffffffffffffffffffffffffffffffffffffff82166000908152600360205260408120805483929061170a908490612b1f565b909155505073ffffffffffffffffffffffffffffffffffffffff821660009081526003602090815260408083205460029092529091205410156109ae576040517f08c379a000000000000000000000000000000000000000000000000000000000815260040161099a9061280b565b60065481565b611787612214565b73ffffffffffffffffffffffffffffffffffffffff166117a56110e3565b73ffffffffffffffffffffffffffffffffffffffff16146117f2576040517f08c379a000000000000000000000000000000000000000000000000000000000815260040161099a90612959565b73ffffffffffffffffffffffffffffffffffffffff811661183f576040517f08c379a000000000000000000000000000000000000000000000000000000000815260040161099a90612868565b60015460405173ffffffffffffffffffffffffffffffffffffffff8084169216907f8be0079c531659141344cd1fd0a4f28419497f9722a3daafe3b4186f6b6457e090600090a3600180547fffffffffffffffffffffffff00000000000000000000000000000000000000001673ffffffffffffffffffffffffffffffffffffffff92909216919091179055565b73ffffffffffffffffffffffffffffffffffffffff8116600090815260076020908152604080832033845290915290206119078282611cb8565b6119178282338460000154611d77565b60008082556001820181905560029091015550565b73ffffffffffffffffffffffffffffffffffffffff82166000908152601b602052604081208054600f54839161196191612b37565b9050610b7d8185612b37565b73ffffffffffffffffffffffffffffffffffffffff83166000908152601b602052604081208054839081106119cb577f4e487b7100000000000000000000000000000000000000000000000000000000600052603260045260246000fd5b906000526020600020015490506000601860008673ffffffffffffffffffffffffffffffffffffffff1673ffffffffffffffffffffffffffffffffffffffff1681526020019081526020016000208381548110611a51577f4e487b7100000000000000000000000000000000000000000000000000000000600052603260045260246000fd5b906000526020600020015490506000601054601360008873ffffffffffffffffffffffffffffffffffffffff1673ffffffffffffffffffffffffffffffffffffffff1681526020019081526020016000208581548110611ada577f4e487b7100000000000000000000000000000000000000000000000000000000600052603260045260246000fd5b600091825260208083209091015473ffffffffffffffffffffffffffffffffffffffff8a1683526004909152604090912054611b169190612b4b565b611b209190612b37565b73ffffffffffffffffffffffffffffffffffffffff871660009081526014602052604081208054929350909186908110611b83577f4e487b7100000000000000000000000000000000000000000000000000000000600052603260045260246000fd5b906000526020600020015490506000601660008973ffffffffffffffffffffffffffffffffffffffff1673ffffffffffffffffffffffffffffffffffffffff1681526020019081526020016000208681548110611c09577f4e487b7100000000000000000000000000000000000000000000000000000000600052603260045260246000fd5b906000526020600020015490506000601260008a73ffffffffffffffffffffffffffffffffffffffff1673ffffffffffffffffffffffffffffffffffffffff1681526020019081526020016000208781548110611c8f577f4e487b7100000000000000000000000000000000000000000000000000000000600052603260045260246000fd5b90600052602060002001549050611cab86868a87878787612454565b9998505050505050505050565b6001810154801561086f576000611cd1846008426123be565b8354815491925090611ce5908290856121fd565b808555600090611cf6908390612b88565b73ffffffffffffffffffffffffffffffffffffffff8716600090815260096020526040812080549293508392909190611d30908490612b1f565b909155505073ffffffffffffffffffffffffffffffffffffffff861660009081526002602052604081208054839290611d6a908490612b1f565b9091555050505050505050565b6000610e10846002015442611d8c9190612b88565b611d969190612bd8565b9050806102581015611dd4576040517f08c379a000000000000000000000000000000000000000000000000000000000815260040161099a906128fc565b611ddc611f34565b73ffffffffffffffffffffffffffffffffffffffff1663d9caed128685856040518463ffffffff1660e01b8152600401611e1893929190612769565b602060405180830381600087803b158015611e3257600080fd5b505af1158015611e46573d6000803e3d6000fd5b505050506040513d601f19601f82011682018060405250810190611e6a91906126d9565b611ea0576040517f08c379a000000000000000000000000000000000000000000000000000000000815260040161099a906128c5565b81846000016000828254611eb49190612b88565b909155505073ffffffffffffffffffffffffffffffffffffffff851660009081526009602052604081208054849290611eee908490612b88565b909155505073ffffffffffffffffffffffffffffffffffffffff851660009081526002602052604081208054849290611f28908490612b88565b90915550505050505050565b600080546040517f3c9c8f9c00000000000000000000000000000000000000000000000000000000815273ffffffffffffffffffffffffffffffffffffffff90911690633c9c8f9c90611f8c90606590600401612ac7565b60206040518083038186803b158015611fa457600080fd5b505afa158015611fb8573d6000803e3d6000fd5b505050506040513d601f19601f82011682018060405250810190611fdc91906125ec565b905090565b73ffffffffffffffffffffffffffffffffffffffff808416600090815260076020908152604080832093861683529290522061201d8482611cb8565b73ffffffffffffffffffffffffffffffffffffffff84166000908152600860205260409020546001820155612054610e1042612bd8565b600282015580548290829060009061206d908490612b1f565b909155505073ffffffffffffffffffffffffffffffffffffffff8416600090815260096020526040812080548492906120a7908490612b1f565b909155505073ffffffffffffffffffffffffffffffffffffffff8416600090815260026020526040812080548492906120e1908490612b1f565b909155505050505050565b600080546040517fd87fefd200000000000000000000000000000000000000000000000000000000815273ffffffffffffffffffffffffffffffffffffffff9091169063d87fefd290612146906003908690600401612ad6565b60206040518083038186803b15801561215e57600080fd5b505afa158015612172573d6000803e3d6000fd5b505050506040513d601f19601f820116820180604052508101906115ae91906126d9565b73ffffffffffffffffffffffffffffffffffffffff831660009081526020839052604081206001015481906121cb9084612b88565b73ffffffffffffffffffffffffffffffffffffffff86166000908152602086905260409020909150610b7d9082612520565b60008161220a8486612b4b565b6110a59190612b37565b3390565b8354600f5460009161222991612b37565b905060006122378483612b4b565b90506000858581548110612274577f4e487b7100000000000000000000000000000000000000000000000000000000600052603260045260246000fd5b90600052602060002001544261228a9190612b88565b90506000816122998487612b4b565b6122a39190612b37565b90506122af8284612b1f565b6122b98383612b4b565b848a89815481106122f3577f4e487b7100000000000000000000000000000000000000000000000000000000600052603260045260246000fd5b90600052602060002001546123089190612b4b565b6123129190612b1f565b61231c9190612b37565b888781548110612355577f4e487b7100000000000000000000000000000000000000000000000000000000600052603260045260246000fd5b90600052602060002001819055504287878154811061239d577f4e487b7100000000000000000000000000000000000000000000000000000000600052603260045260246000fd5b6000918252602090912001555050505050505050565b61086f838383611fe1565b73ffffffffffffffffffffffffffffffffffffffff83166000908152602083815260408083206002808201546001830154918552838620546004865284872054600a875285882054600b9097529490962054600c54939661242796929593949093929190612454565b6002820155600181015460009061243e9084612b88565b905061244a8282612520565b8255509392505050565b8660006124618842612b88565b90506000600654826124739190612b4b565b905086881015806124a157508486101580156124a157506124948888612b88565b61249e8688612b88565b10155b156124cd576124b08184612b88565b92508264010000000011156124c85764010000000092505b612513565b87871180156124f65750858511806124f657506124ea8587612b88565b6124f48989612b88565b115b15612513576125058184612b1f565b925083831115612513578392505b5050979650505050505050565b60008061252f610e1084612bd8565b9050612542640100000000610e10612b4b565b60028501548554839161255491612b4b565b61255e9190612b4b565b6125689190612b37565b91506000612578610e1085612b37565b905080156125c15760005b808211156125bf576401000000008660020154856125a19190612b4b565b6125ab9190612b37565b9350806125b781612b9f565b915050612583565b505b505092915050565b6000602082840312156125da578081fd5b81356125e581612c4a565b9392505050565b6000602082840312156125fd578081fd5b81516125e581612c4a565b6000806040838503121561261a578081fd5b823561262581612c4a565b9150602083013561263581612c4a565b809150509250929050565b60008060408385031215612652578182fd5b823561265d81612c4a565b946020939093013593505050565b60008060006060848603121561267f578081fd5b833561268a81612c4a565b95602085013595506040909401359392505050565b600080600080608085870312156126b4578081fd5b84356126bf81612c4a565b966020860135965060408601359560600135945092505050565b6000602082840312156126ea578081fd5b815180151581146125e5578182fd5b60006020828403121561270a578081fd5b5035919050565b600080600060608486031215612725578283fd5b83359250602084013561273781612c4a565b929592945050506040919091013590565b73ffffffffffffffffffffffffffffffffffffffff91909116815260200190565b73ffffffffffffffffffffffffffffffffffffffff9384168152919092166020820152604081019190915260600190565b73ffffffffffffffffffffffffffffffffffffffff978816815295909616602086015260408501939093526060840191909152608083015260a082015260c081019190915260e00190565b73ffffffffffffffffffffffffffffffffffffffff929092168252602082015260400190565b6020808252602e908201527f496e73756666696369656e74206361706974616c20746f206c656e642c20747260408201527f7920616761696e206c6174657221000000000000000000000000000000000000606082015260800190565b60208082526026908201527f4f776e61626c653a206e6577206f776e657220697320746865207a65726f206160408201527f6464726573730000000000000000000000000000000000000000000000000000606082015260800190565b60208082526016908201527f496e73756666696369656e74206c697175696469747900000000000000000000604082015260600190565b6020808252603f908201527f5472696564207769746864726177696e67206f7574736964652073756273637260408201527f697074696f6e2063616e63656c6c6174696f6e2074696d652077696e646f7700606082015260800190565b6020808252818101527f4f776e61626c653a2063616c6c6572206973206e6f7420746865206f776e6572604082015260600190565b60208082526012908201527f4e6f7420686f6c646572206f6620626f6e640000000000000000000000000000604082015260600190565b60208082526015908201527f4e6f7420616e20617070726f76656420746f6b656e0000000000000000000000604082015260600190565b60208082526016908201527f626f6e64206973207374696c6c20696d6d617475726500000000000000000000604082015260600190565b60208082526018908201527f4e6f7420616e20617070726f76656420626f72726f7765720000000000000000604082015260600190565b6020808252602d908201527f436f756c64206e6f74207472616e7366657220626f6e64206465706f7369742060408201527f746f6b656e20746f2066756e6400000000000000000000000000000000000000606082015260800190565b61ffff91909116815260200190565b61ffff92909216825273ffffffffffffffffffffffffffffffffffffffff16602082015260400190565b90815260200190565b9283526020830191909152604082015260600190565b60008219821115612b3257612b32612bec565b500190565b600082612b4657612b46612c1b565b500490565b6000817fffffffffffffffffffffffffffffffffffffffffffffffffffffffffffffffff0483118215151615612b8357612b83612bec565b500290565b600082821015612b9a57612b9a612bec565b500390565b60007fffffffffffffffffffffffffffffffffffffffffffffffffffffffffffffffff821415612bd157612bd1612bec565b5060010190565b600082612be757612be7612c1b565b500690565b7f4e487b7100000000000000000000000000000000000000000000000000000000600052601160045260246000fd5b7f4e487b7100000000000000000000000000000000000000000000000000000000600052601260045260246000fd5b73ffffffffffffffffffffffffffffffffffffffff81168114612c6c57600080fd5b5056fea2646970667358221220375f3e706f586f2784b510641cb232098e529a5d8d73a54b8bd886f266b789ba64736f6c63430008010033",
  "linkReferences": {},
  "deployedLinkReferences": {}
}