{
  "_format": "hh-sol-artifact-1",
  "contractName": "Lending",
  "sourceName": "contracts/Lending.sol",
  "abi": [
    {
      "inputs": [
        {
          "internalType": "address",
          "name": "_roles",
          "type": "address"
        }
      ],
      "stateMutability": "nonpayable",
      "type": "constructor"
    },
    {
      "anonymous": false,
      "inputs": [
        {
          "indexed": true,
          "internalType": "address",
          "name": "token",
          "type": "address"
        },
        {
          "indexed": true,
          "internalType": "address",
          "name": "holder",
          "type": "address"
        },
        {
          "indexed": false,
          "internalType": "uint256",
          "name": "value",
          "type": "uint256"
        }
      ],
      "name": "LiquidityWarning",
      "type": "event"
    },
    {
      "anonymous": false,
      "inputs": [
        {
          "indexed": true,
          "internalType": "address",
          "name": "previousOwner",
          "type": "address"
        },
        {
          "indexed": true,
          "internalType": "address",
          "name": "newOwner",
          "type": "address"
        }
      ],
      "name": "OwnershipTransferred",
      "type": "event"
    },
    {
      "inputs": [],
      "name": "ADMIN",
      "outputs": [
        {
          "internalType": "uint16",
          "name": "",
          "type": "uint16"
        }
      ],
      "stateMutability": "view",
      "type": "function"
    },
    {
      "inputs": [],
      "name": "AUTHORIZED_FUND_TRADER",
      "outputs": [
        {
          "internalType": "uint16",
          "name": "",
          "type": "uint16"
        }
      ],
      "stateMutability": "view",
      "type": "function"
    },
    {
      "inputs": [],
      "name": "BORROWER",
      "outputs": [
        {
          "internalType": "uint16",
          "name": "",
          "type": "uint16"
        }
      ],
      "stateMutability": "view",
      "type": "function"
    },
    {
      "inputs": [],
      "name": "FEE_CONTROLLER",
      "outputs": [
        {
          "internalType": "uint16",
          "name": "",
          "type": "uint16"
        }
      ],
      "stateMutability": "view",
      "type": "function"
    },
    {
      "inputs": [],
      "name": "FEE_SOURCE",
      "outputs": [
        {
          "internalType": "uint16",
          "name": "",
          "type": "uint16"
        }
      ],
      "stateMutability": "view",
      "type": "function"
    },
    {
      "inputs": [],
      "name": "FUND",
      "outputs": [
        {
          "internalType": "uint16",
          "name": "",
          "type": "uint16"
        }
      ],
      "stateMutability": "view",
      "type": "function"
    },
    {
      "inputs": [],
      "name": "INCENTIVE_DISTRIBUTION",
      "outputs": [
        {
          "internalType": "uint16",
          "name": "",
          "type": "uint16"
        }
      ],
      "stateMutability": "view",
      "type": "function"
    },
    {
      "inputs": [],
      "name": "INCENTIVE_REPORTER",
      "outputs": [
        {
          "internalType": "uint16",
          "name": "",
          "type": "uint16"
        }
      ],
      "stateMutability": "view",
      "type": "function"
    },
    {
      "inputs": [],
      "name": "LENDING",
      "outputs": [
        {
          "internalType": "uint16",
          "name": "",
          "type": "uint16"
        }
      ],
      "stateMutability": "view",
      "type": "function"
    },
    {
      "inputs": [],
      "name": "LIQUIDATOR",
      "outputs": [
        {
          "internalType": "uint16",
          "name": "",
          "type": "uint16"
        }
      ],
      "stateMutability": "view",
      "type": "function"
    },
    {
      "inputs": [],
      "name": "MARGIN_CALLER",
      "outputs": [
        {
          "internalType": "uint16",
          "name": "",
          "type": "uint16"
        }
      ],
      "stateMutability": "view",
      "type": "function"
    },
    {
      "inputs": [],
      "name": "MARGIN_TRADER",
      "outputs": [
        {
          "internalType": "uint16",
          "name": "",
          "type": "uint16"
        }
      ],
      "stateMutability": "view",
      "type": "function"
    },
    {
      "inputs": [],
      "name": "MARGIN_TRADING",
      "outputs": [
        {
          "internalType": "uint16",
          "name": "",
          "type": "uint16"
        }
      ],
      "stateMutability": "view",
      "type": "function"
    },
    {
      "inputs": [],
      "name": "PRICE_CONTROLLER",
      "outputs": [
        {
          "internalType": "uint16",
          "name": "",
          "type": "uint16"
        }
      ],
      "stateMutability": "view",
      "type": "function"
    },
    {
      "inputs": [],
      "name": "ROUTER",
      "outputs": [
        {
          "internalType": "uint16",
          "name": "",
          "type": "uint16"
        }
      ],
      "stateMutability": "view",
      "type": "function"
    },
    {
      "inputs": [],
      "name": "TOKEN_ACTIVATOR",
      "outputs": [
        {
          "internalType": "uint16",
          "name": "",
          "type": "uint16"
        }
      ],
      "stateMutability": "view",
      "type": "function"
    },
    {
      "inputs": [],
      "name": "WITHDRAWER",
      "outputs": [
        {
          "internalType": "uint16",
          "name": "",
          "type": "uint16"
        }
      ],
      "stateMutability": "view",
      "type": "function"
    },
    {
      "inputs": [
        {
          "internalType": "uint256",
          "name": "balance",
          "type": "uint256"
        },
        {
          "internalType": "address",
          "name": "token",
          "type": "address"
        },
        {
          "internalType": "uint256",
          "name": "yieldQuotientFP",
          "type": "uint256"
        }
      ],
      "name": "applyBorrowInterest",
      "outputs": [
        {
          "internalType": "uint256",
          "name": "",
          "type": "uint256"
        }
      ],
      "stateMutability": "nonpayable",
      "type": "function"
    },
    {
      "inputs": [
        {
          "internalType": "address",
          "name": "",
          "type": "address"
        },
        {
          "internalType": "uint256",
          "name": "",
          "type": "uint256"
        }
      ],
      "name": "bondIds",
      "outputs": [
        {
          "internalType": "uint256",
          "name": "",
          "type": "uint256"
        }
      ],
      "stateMutability": "view",
      "type": "function"
    },
    {
      "inputs": [
        {
          "internalType": "uint256",
          "name": "",
          "type": "uint256"
        }
      ],
      "name": "bonds",
      "outputs": [
        {
          "internalType": "address",
          "name": "holder",
          "type": "address"
        },
        {
          "internalType": "address",
          "name": "token",
          "type": "address"
        },
        {
          "internalType": "uint256",
          "name": "originalPrice",
          "type": "uint256"
        },
        {
          "internalType": "uint256",
          "name": "returnAmount",
          "type": "uint256"
        },
        {
          "internalType": "uint256",
          "name": "maturityTimestamp",
          "type": "uint256"
        },
        {
          "internalType": "uint256",
          "name": "runtime",
          "type": "uint256"
        },
        {
          "internalType": "uint256",
          "name": "yieldFP",
          "type": "uint256"
        }
      ],
      "stateMutability": "view",
      "type": "function"
    },
    {
      "inputs": [
        {
          "internalType": "address",
          "name": "",
          "type": "address"
        }
      ],
      "name": "borrowYieldAccumulators",
      "outputs": [
        {
          "internalType": "uint256",
          "name": "accumulatorFP",
          "type": "uint256"
        },
        {
          "internalType": "uint256",
          "name": "lastUpdated",
          "type": "uint256"
        },
        {
          "internalType": "uint256",
          "name": "hourlyYieldFP",
          "type": "uint256"
        }
      ],
      "stateMutability": "view",
      "type": "function"
    },
    {
      "inputs": [],
      "name": "borrowingMarkupFP",
      "outputs": [
        {
          "internalType": "uint256",
          "name": "",
          "type": "uint256"
        }
      ],
      "stateMutability": "view",
      "type": "function"
    },
    {
      "inputs": [
        {
          "internalType": "address",
          "name": "token",
          "type": "address"
        },
        {
          "internalType": "uint256",
          "name": "runtime",
          "type": "uint256"
        },
        {
          "internalType": "uint256",
          "name": "amount",
          "type": "uint256"
        },
        {
          "internalType": "uint256",
          "name": "minReturn",
          "type": "uint256"
        }
      ],
      "name": "buyBond",
      "outputs": [
        {
          "internalType": "uint256",
          "name": "bondIndex",
          "type": "uint256"
        }
      ],
      "stateMutability": "nonpayable",
      "type": "function"
    },
    {
      "inputs": [
        {
          "internalType": "address",
          "name": "token",
          "type": "address"
        },
        {
          "internalType": "uint256",
          "name": "amount",
          "type": "uint256"
        }
      ],
      "name": "buyHourlyBondSubscription",
      "outputs": [],
      "stateMutability": "nonpayable",
      "type": "function"
    },
    {
      "inputs": [
        {
          "internalType": "address",
          "name": "",
          "type": "address"
        },
        {
          "internalType": "uint256",
          "name": "",
          "type": "uint256"
        }
      ],
      "name": "buyingSpeed",
      "outputs": [
        {
          "internalType": "uint256",
          "name": "",
          "type": "uint256"
        }
      ],
      "stateMutability": "view",
      "type": "function"
    },
    {
      "inputs": [
        {
          "internalType": "address",
          "name": "",
          "type": "address"
        },
        {
          "internalType": "address",
          "name": "",
          "type": "address"
        }
      ],
      "name": "claimIds",
      "outputs": [
        {
          "internalType": "uint256",
          "name": "",
          "type": "uint256"
        }
      ],
      "stateMutability": "view",
      "type": "function"
    },
    {
      "inputs": [
        {
          "internalType": "address",
          "name": "token",
          "type": "address"
        }
      ],
      "name": "closeHourlyBondAccount",
      "outputs": [],
      "stateMutability": "nonpayable",
      "type": "function"
    },
    {
      "inputs": [],
      "name": "diffMaxMinRuntime",
      "outputs": [
        {
          "internalType": "uint256",
          "name": "",
          "type": "uint256"
        }
      ],
      "stateMutability": "view",
      "type": "function"
    },
    {
      "inputs": [
        {
          "internalType": "address",
          "name": "",
          "type": "address"
        },
        {
          "internalType": "address",
          "name": "",
          "type": "address"
        }
      ],
      "name": "hourlyBondAccounts",
      "outputs": [
        {
          "internalType": "uint256",
          "name": "amount",
          "type": "uint256"
        },
        {
          "internalType": "uint256",
          "name": "yieldQuotientFP",
          "type": "uint256"
        },
        {
          "internalType": "uint256",
          "name": "moduloHour",
          "type": "uint256"
        }
      ],
      "stateMutability": "view",
      "type": "function"
    },
    {
      "inputs": [
        {
          "internalType": "address",
          "name": "",
          "type": "address"
        }
      ],
      "name": "hourlyBondBuyingSpeed",
      "outputs": [
        {
          "internalType": "uint256",
          "name": "",
          "type": "uint256"
        }
      ],
      "stateMutability": "view",
      "type": "function"
    },
    {
      "inputs": [
        {
          "internalType": "address",
          "name": "",
          "type": "address"
        }
      ],
      "name": "hourlyBondWithdrawingSpeed",
      "outputs": [
        {
          "internalType": "uint256",
          "name": "",
          "type": "uint256"
        }
      ],
      "stateMutability": "view",
      "type": "function"
    },
    {
      "inputs": [
        {
          "internalType": "address",
          "name": "",
          "type": "address"
        }
      ],
      "name": "hourlyBondYieldAccumulators",
      "outputs": [
        {
          "internalType": "uint256",
          "name": "accumulatorFP",
          "type": "uint256"
        },
        {
          "internalType": "uint256",
          "name": "lastUpdated",
          "type": "uint256"
        },
        {
          "internalType": "uint256",
          "name": "hourlyYieldFP",
          "type": "uint256"
        }
      ],
      "stateMutability": "view",
      "type": "function"
    },
    {
      "inputs": [],
      "name": "hourlyMaxYield",
      "outputs": [
        {
          "internalType": "uint256",
          "name": "",
          "type": "uint256"
        }
      ],
      "stateMutability": "view",
      "type": "function"
    },
    {
      "inputs": [
        {
          "internalType": "address",
          "name": "",
          "type": "address"
        }
      ],
      "name": "incentiveTranches",
      "outputs": [
        {
          "internalType": "uint8",
          "name": "",
          "type": "uint8"
        }
      ],
      "stateMutability": "view",
      "type": "function"
    },
    {
      "inputs": [
        {
          "internalType": "address",
          "name": "",
          "type": "address"
        },
        {
          "internalType": "uint256",
          "name": "",
          "type": "uint256"
        }
      ],
      "name": "lastBought",
      "outputs": [
        {
          "internalType": "uint256",
          "name": "",
          "type": "uint256"
        }
      ],
      "stateMutability": "view",
      "type": "function"
    },
    {
      "inputs": [
        {
          "internalType": "address",
          "name": "",
          "type": "address"
        },
        {
          "internalType": "uint256",
          "name": "",
          "type": "uint256"
        }
      ],
      "name": "lastWithdrawn",
      "outputs": [
        {
          "internalType": "uint256",
          "name": "",
          "type": "uint256"
        }
      ],
      "stateMutability": "view",
      "type": "function"
    },
    {
      "inputs": [
        {
          "internalType": "address",
          "name": "",
          "type": "address"
        }
      ],
      "name": "lendingTarget",
      "outputs": [
        {
          "internalType": "uint256",
          "name": "",
          "type": "uint256"
        }
      ],
      "stateMutability": "view",
      "type": "function"
    },
    {
      "inputs": [],
      "name": "maxRuntime",
      "outputs": [
        {
          "internalType": "uint256",
          "name": "",
          "type": "uint256"
        }
      ],
      "stateMutability": "view",
      "type": "function"
    },
    {
      "inputs": [
        {
          "internalType": "address",
          "name": "",
          "type": "address"
        },
        {
          "internalType": "uint256",
          "name": "",
          "type": "uint256"
        }
      ],
      "name": "maxYield",
      "outputs": [
        {
          "internalType": "uint256",
          "name": "",
          "type": "uint256"
        }
      ],
      "stateMutability": "view",
      "type": "function"
    },
    {
      "inputs": [],
      "name": "minRuntime",
      "outputs": [
        {
          "internalType": "uint256",
          "name": "",
          "type": "uint256"
        }
      ],
      "stateMutability": "view",
      "type": "function"
    },
    {
      "inputs": [],
      "name": "nextBondIndex",
      "outputs": [
        {
          "internalType": "uint256",
          "name": "",
          "type": "uint256"
        }
      ],
      "stateMutability": "view",
      "type": "function"
    },
    {
      "inputs": [],
      "name": "owner",
      "outputs": [
        {
          "internalType": "address",
          "name": "",
          "type": "address"
        }
      ],
      "stateMutability": "view",
      "type": "function"
    },
    {
      "inputs": [
        {
          "internalType": "address",
          "name": "token",
          "type": "address"
        },
        {
          "internalType": "uint256",
          "name": "amount",
          "type": "uint256"
        }
      ],
      "name": "payOff",
      "outputs": [],
      "stateMutability": "nonpayable",
      "type": "function"
    },
    {
      "inputs": [
        {
          "internalType": "address",
          "name": "token",
          "type": "address"
        },
        {
          "internalType": "uint256",
          "name": "amount",
          "type": "uint256"
        }
      ],
      "name": "registerBorrow",
      "outputs": [],
      "stateMutability": "nonpayable",
      "type": "function"
    },
    {
      "inputs": [],
      "name": "renounceOwnership",
      "outputs": [],
      "stateMutability": "nonpayable",
      "type": "function"
    },
    {
      "inputs": [],
      "name": "roles",
      "outputs": [
        {
          "internalType": "contract Roles",
          "name": "",
          "type": "address"
        }
      ],
      "stateMutability": "view",
      "type": "function"
    },
    {
      "inputs": [
        {
          "internalType": "address",
          "name": "",
          "type": "address"
        },
        {
          "internalType": "uint256",
          "name": "",
          "type": "uint256"
        }
      ],
      "name": "runtimeWeights",
      "outputs": [
        {
          "internalType": "uint256",
          "name": "",
          "type": "uint256"
        }
      ],
      "stateMutability": "view",
      "type": "function"
    },
    {
      "inputs": [
        {
          "internalType": "address",
          "name": "token",
          "type": "address"
        },
        {
          "internalType": "uint8",
          "name": "tranche",
          "type": "uint8"
        }
      ],
      "name": "setIncentiveTranche",
      "outputs": [],
      "stateMutability": "nonpayable",
      "type": "function"
    },
    {
      "inputs": [
        {
          "internalType": "address",
          "name": "",
          "type": "address"
        }
      ],
      "name": "totalBorrowed",
      "outputs": [
        {
          "internalType": "uint256",
          "name": "",
          "type": "uint256"
        }
      ],
      "stateMutability": "view",
      "type": "function"
    },
    {
      "inputs": [
        {
          "internalType": "address",
          "name": "",
          "type": "address"
        }
      ],
      "name": "totalHourlyBond",
      "outputs": [
        {
          "internalType": "uint256",
          "name": "",
          "type": "uint256"
        }
      ],
      "stateMutability": "view",
      "type": "function"
    },
    {
      "inputs": [
        {
          "internalType": "address",
          "name": "",
          "type": "address"
        }
      ],
      "name": "totalHourlyYieldFP",
      "outputs": [
        {
          "internalType": "uint256",
          "name": "",
          "type": "uint256"
        }
      ],
      "stateMutability": "view",
      "type": "function"
    },
    {
      "inputs": [
        {
          "internalType": "address",
          "name": "",
          "type": "address"
        }
      ],
      "name": "totalLending",
      "outputs": [
        {
          "internalType": "uint256",
          "name": "",
          "type": "uint256"
        }
      ],
      "stateMutability": "view",
      "type": "function"
    },
    {
      "inputs": [
        {
          "internalType": "address",
          "name": "",
          "type": "address"
        },
        {
          "internalType": "uint256",
          "name": "",
          "type": "uint256"
        }
      ],
      "name": "totalLendingPerRuntime",
      "outputs": [
        {
          "internalType": "uint256",
          "name": "",
          "type": "uint256"
        }
      ],
      "stateMutability": "view",
      "type": "function"
    },
    {
      "inputs": [
        {
          "internalType": "address",
          "name": "newOwner",
          "type": "address"
        }
      ],
      "name": "transferOwnership",
      "outputs": [],
      "stateMutability": "nonpayable",
      "type": "function"
    },
    {
      "inputs": [
        {
          "internalType": "address",
          "name": "token",
          "type": "address"
        },
        {
          "internalType": "uint256",
          "name": "runtime",
          "type": "uint256"
        },
        {
          "internalType": "uint256",
          "name": "amount",
          "type": "uint256"
        }
      ],
      "name": "viewBondReturn",
      "outputs": [
        {
          "internalType": "uint256",
          "name": "",
          "type": "uint256"
        }
      ],
      "stateMutability": "view",
      "type": "function"
    },
    {
      "inputs": [
        {
          "internalType": "uint256",
          "name": "balance",
          "type": "uint256"
        },
        {
          "internalType": "address",
          "name": "token",
          "type": "address"
        },
        {
          "internalType": "uint256",
          "name": "yieldQuotientFP",
          "type": "uint256"
        }
      ],
      "name": "viewBorrowInterest",
      "outputs": [
        {
          "internalType": "uint256",
          "name": "",
          "type": "uint256"
        }
      ],
      "stateMutability": "view",
      "type": "function"
    },
    {
      "inputs": [
        {
          "internalType": "address",
          "name": "token",
          "type": "address"
        }
      ],
      "name": "viewBorrowingYield",
      "outputs": [
        {
          "internalType": "uint256",
          "name": "",
          "type": "uint256"
        }
      ],
      "stateMutability": "view",
      "type": "function"
    },
    {
      "inputs": [],
      "name": "weightTotal",
      "outputs": [
        {
          "internalType": "uint256",
          "name": "",
          "type": "uint256"
        }
      ],
      "stateMutability": "view",
      "type": "function"
    },
    {
      "inputs": [
        {
          "internalType": "uint256",
          "name": "bondId",
          "type": "uint256"
        }
      ],
      "name": "withdrawBond",
      "outputs": [],
      "stateMutability": "nonpayable",
      "type": "function"
    },
    {
      "inputs": [
        {
          "internalType": "address",
          "name": "token",
          "type": "address"
        },
        {
          "internalType": "uint256",
          "name": "amount",
          "type": "uint256"
        }
      ],
      "name": "withdrawHourlyBond",
      "outputs": [],
      "stateMutability": "nonpayable",
      "type": "function"
    },
    {
      "inputs": [
        {
          "internalType": "address",
          "name": "",
          "type": "address"
        },
        {
          "internalType": "uint256",
          "name": "",
          "type": "uint256"
        }
      ],
      "name": "withdrawingSpeed",
      "outputs": [
        {
          "internalType": "uint256",
          "name": "",
          "type": "uint256"
        }
      ],
      "stateMutability": "view",
      "type": "function"
    },
    {
      "inputs": [],
      "name": "yieldChangePerSecondFP",
      "outputs": [
        {
          "internalType": "uint256",
          "name": "",
          "type": "uint256"
        }
      ],
      "stateMutability": "view",
      "type": "function"
    },
    {
      "inputs": [
        {
          "internalType": "address",
          "name": "",
          "type": "address"
        },
        {
          "internalType": "uint256",
          "name": "",
          "type": "uint256"
        }
      ],
      "name": "yieldLastUpdated",
      "outputs": [
        {
          "internalType": "uint256",
          "name": "",
          "type": "uint256"
        }
      ],
      "stateMutability": "view",
      "type": "function"
    }
  ],
  "bytecode": "0x60806040526001601c553480156200001657600080fd5b50604051620033e7380380620033e78339810160408190526200003991620000b7565b600080546001600160a01b0319166001600160a01b0383161781556200005e620000b3565b600180546001600160a01b0319166001600160a01b038316908117909155604051919250906000907f8be0079c531659141344cd1fd0a4f28419497f9722a3daafe3b4186f6b6457e0908290a35050620000e7565b3390565b600060208284031215620000c9578081fd5b81516001600160a01b0381168114620000e0578182fd5b9392505050565b6132f080620000f76000396000f3fe608060405234801561001057600080fd5b50600436106103c55760003560e01c806381ca6600116101ff578063c76139d01161011a578063e69f8959116100ad578063ef2cd3b81161007c578063ef2cd3b814610763578063f11f979514610776578063f2fde38b1461077e578063f884614b14610791576103c5565b8063e69f895914610717578063e7bde5c11461072a578063e84bfdf41461073d578063ee0862bf14610750576103c5565b8063d5d7ed7f116100e9578063d5d7ed7f146106d6578063dcaf8029146106de578063e2e1ca2b146106f1578063e695fa6814610704576103c5565b8063c76139d0146106a0578063cacf8d45146106a8578063cd3b5dfb146106b0578063d3dc14b2146106c3576103c5565b8063a94c7c3411610192578063c1cea80711610161578063c1cea8071461065f578063c3daab9614610672578063c43a683d14610685578063c4f7d45d1461068d576103c5565b8063a94c7c3414610634578063a9cc05361461063c578063aa7e321d14610644578063bfedc0bf1461064c576103c5565b80638da5cb5b116101ce5780638da5cb5b146106145780639229e73f1461061c578063a0098d6914610624578063a8b151a11461062c576103c5565b806381ca6600146105c257806383a04229146105ca57806383a49c7c146105ec5780638824cbba146105f4576103c5565b806332fe7b26116102ef5780635adbeb1511610282578063687680ed11610251578063687680ed1461058c578063715018a61461059f578063773bbb3b146105a75780637b8b4ee2146105af576103c5565b80635adbeb15146105435780635c275a39146105565780635f1c17c01461055e5780636694198414610584576103c5565b806346b88796116102be57806346b887961461051857806348fb27b81461052057806349f7cff61461052857806358d51f911461053b576103c5565b806332fe7b26146104d5578063392f5f64146104dd5780633aa58f45146104f257806340fe56a914610505576103c5565b80631799f0c3116103675780632864f401116103365780632864f4011461049f5780632a0acc6a146104b25780632a6a897b146104ba5780632fe94def146104cd576103c5565b80631799f0c31461045e5780631bc5d81d1461047157806320b1551514610479578063247ae0a61461048c576103c5565b80630bba92b3116103a35780630bba92b3146104105780630f7c43dc1461042357806316de7a43146104385780631744a9b61461044b576103c5565b80630196c361146103ca578063065d570f146103f35780630b55054614610408575b600080fd5b6103dd6103d8366004612b8a565b6107a4565b6040516103ea91906130f1565b60405180910390f35b6103fb6107d5565b6040516103ea91906130b8565b6103dd6107da565b6103dd61041e366004612bb5565b6107e0565b610436610431366004612b8a565b6108ae565b005b610436610446366004612b8a565b610904565b6103dd610459366004612b13565b610a4d565b6103dd61046c366004612b13565b610a5f565b6103fb610a71565b6103dd610487366004612b13565b610a76565b6103dd61049a366004612b8a565b610a88565b6104366104ad366004612c23565b610aa4565b6103fb610b3b565b6104366104c8366004612b8a565b610b40565b6103fb610bbd565b6103fb610bc2565b6104e5610bc7565b6040516103ea9190612cdc565b6103dd610500366004612b13565b610be3565b6103dd610513366004612b8a565b610bf5565b6103fb610c11565b6103fb610c16565b6103dd610536366004612b13565b610c1b565b6103dd610c2d565b6103dd610551366004612b52565b610c33565b6103fb610c50565b61057161056c366004612c75565b610c55565b6040516103ea9796959493929190612d2e565b6103fb610cab565b6103dd61059a366004612ca5565b610cb0565b610436610cd5565b6103dd610db7565b6103dd6105bd366004612be9565b610dbd565b6103fb610e7a565b6105dd6105d8366004612b52565b610e7f565b6040516103ea939291906130fa565b6103fb610eab565b610607610602366004612b13565b610eb0565b6040516103ea9190613110565b6104e5610ec5565b6103dd610ee1565b6103fb610ee7565b6103dd610eec565b6103fb610ef2565b6103fb610ef7565b6103dd610efc565b6105dd61065a366004612b13565b610f02565b6103dd61066d366004612b13565b610f23565b610436610680366004612c75565b610f35565b6103dd611007565b6103dd61069b366004612b8a565b61100d565b6103fb611029565b6103fb61102e565b6105dd6106be366004612b13565b611033565b6103dd6106d1366004612b8a565b611054565b6103fb611070565b6103dd6106ec366004612b8a565b611075565b6103dd6106ff366004612b13565b611091565b6103dd610712366004612ca5565b6110a3565b6103dd610725366004612b8a565b6110c3565b6103dd610738366004612b13565b6110df565b6103dd61074b366004612b8a565b6110f3565b61043661075e366004612b8a565b61110f565b6103dd610771366004612b8a565b6112b8565b6103dd6112d3565b61043661078c366004612b13565b6112d9565b61043661079f366004612b13565b611427565b601660205281600052604060002081815481106107c057600080fd5b90600052602060002001600091509150505481565b600381565b600f5481565b6000806107ed8585611486565b9050600061088886601a60008973ffffffffffffffffffffffffffffffffffffffff1673ffffffffffffffffffffffffffffffffffffffff168152602001908152602001600020848154811061086c577f4e487b7100000000000000000000000000000000000000000000000000000000600052603260045260246000fd5b906000526020600020015486610882919061316a565b846114c7565b905064010000000061089a8583613196565b6108a49190613182565b9695505050505050565b73ffffffffffffffffffffffffffffffffffffffff8216600090815260076020908152604080832033845290915290206108e88382611812565b6108f4838233856118d1565b6108ff338484611a8e565b505050565b73ffffffffffffffffffffffffffffffffffffffff821660009081526002602052604090205461093590829061316a565b73ffffffffffffffffffffffffffffffffffffffff831660009081526004602052604090205410610a4957610968611b4c565b73ffffffffffffffffffffffffffffffffffffffff166347e7ef2483836040518363ffffffff1660e01b81526004016109a2929190612d79565b602060405180830381600087803b1580156109bc57600080fd5b505af11580156109d0573d6000803e3d6000fd5b505050506040513d601f19601f820116820180604052508101906109f49190612c55565b610a33576040517f08c379a0000000000000000000000000000000000000000000000000000000008152600401610a2a9061305b565b60405180910390fd5b610a3e823383611bf9565b610a49338383611d04565b5050565b60046020526000908152604090205481565b60056020526000908152604090205481565b600881565b600b6020526000908152604090205481565b601560205281600052604060002081815481106107c057600080fd5b610aad33611ece565b610ae3576040517f08c379a0000000000000000000000000000000000000000000000000000000008152600401610a2a90612d9f565b73ffffffffffffffffffffffffffffffffffffffff919091166000908152601d6020526040902080547fffffffffffffffffffffffffffffffffffffffffffffffffffffffffffffff001660ff909216919091179055565b606b81565b610b4933611f78565b610b7f576040517f08c379a0000000000000000000000000000000000000000000000000000000008152600401610a2a90613024565b73ffffffffffffffffffffffffffffffffffffffff821660009081526003602052604081208054839290610bb49084906131d3565b90915550505050565b606981565b606781565b60005473ffffffffffffffffffffffffffffffffffffffff1681565b600a6020526000908152604090205481565b601260205281600052604060002081815481106107c057600080fd5b600681565b606681565b60096020526000908152604090205481565b60115481565b601e60209081526000928352604080842090915290825290205481565b606581565b601960205260009081526040902080546001820154600283015460038401546004850154600586015460069096015473ffffffffffffffffffffffffffffffffffffffff95861696959094169492939192909187565b600181565b600080610cbf84601f42611fd2565b9050610ccc858285612039565b95945050505050565b610cdd612050565b73ffffffffffffffffffffffffffffffffffffffff16610cfb610ec5565b73ffffffffffffffffffffffffffffffffffffffff1614610d48576040517f08c379a0000000000000000000000000000000000000000000000000000000008152600401610a2a90612f4a565b60015460405160009173ffffffffffffffffffffffffffffffffffffffff16907f8be0079c531659141344cd1fd0a4f28419497f9722a3daafe3b4186f6b6457e0908390a3600180547fffffffffffffffffffffffff0000000000000000000000000000000000000000169055565b600d5481565b73ffffffffffffffffffffffffffffffffffffffff8416600090815260026020526040812054610dee90849061316a565b73ffffffffffffffffffffffffffffffffffffffff861660009081526004602052604090205410801590610e24575083600e5410155b8015610e325750600d548410155b15610e7257610e443386868686612054565b3360008181526020808052604082208054600181018255908352912001829055909150610e72908685611d04565b949350505050565b606a81565b600760209081526000928352604080842090915290825290208054600182015460029092015490919083565b600981565b601d6020526000908152604090205460ff1681565b60015473ffffffffffffffffffffffffffffffffffffffff1690565b600e5481565b600281565b600c5481565b600581565b606881565b601c5481565b60086020526000908152604090208054600182015460029092015490919083565b60026020526000908152604090205481565b6000818152601960205260409020805473ffffffffffffffffffffffffffffffffffffffff163314610f93576040517f08c379a0000000000000000000000000000000000000000000000000000000008152600401610a2a90612f7f565b80600401544211610fd0576040517f08c379a0000000000000000000000000000000000000000000000000000000008152600401610a2a90612fed565b610fd981612431565b60018101546002820154610a4991339173ffffffffffffffffffffffffffffffffffffffff90911690611a8e565b60105481565b601860205281600052604060002081815481106107c057600080fd5b606c81565b600481565b601f6020526000908152604090208054600182015460029092015490919083565b601a60205281600052604060002081815481106107c057600080fd5b600781565b601760205281600052604060002081815481106107c057600080fd5b60036020526000908152604090205481565b6000806110b284601f4261270a565b9050610ccc85826000015485612039565b601460205281600052604060002081815481106107c057600080fd5b60006110ed82601f42611fd2565b92915050565b601360205281600052604060002081815481106107c057600080fd5b61111833611f78565b61114e576040517f08c379a0000000000000000000000000000000000000000000000000000000008152600401610a2a90613024565b611156611b4c565b73ffffffffffffffffffffffffffffffffffffffff16635acf6903836040518263ffffffff1660e01b815260040161118e9190612cdc565b60206040518083038186803b1580156111a657600080fd5b505afa1580156111ba573d6000803e3d6000fd5b505050506040513d601f19601f820116820180604052508101906111de9190612c55565b611214576040517f08c379a0000000000000000000000000000000000000000000000000000000008152600401610a2a90612fb6565b73ffffffffffffffffffffffffffffffffffffffff82166000908152600360205260408120805483929061124990849061316a565b909155505073ffffffffffffffffffffffffffffffffffffffff82166000908152600360209081526040808320546002909252909120541015610a49576040517f08c379a0000000000000000000000000000000000000000000000000000000008152600401610a2a90612dfc565b6020805281600052604060002081815481106107c057600080fd5b60065481565b6112e1612050565b73ffffffffffffffffffffffffffffffffffffffff166112ff610ec5565b73ffffffffffffffffffffffffffffffffffffffff161461134c576040517f08c379a0000000000000000000000000000000000000000000000000000000008152600401610a2a90612f4a565b73ffffffffffffffffffffffffffffffffffffffff8116611399576040517f08c379a0000000000000000000000000000000000000000000000000000000008152600401610a2a90612e59565b60015460405173ffffffffffffffffffffffffffffffffffffffff8084169216907f8be0079c531659141344cd1fd0a4f28419497f9722a3daafe3b4186f6b6457e090600090a3600180547fffffffffffffffffffffffff00000000000000000000000000000000000000001673ffffffffffffffffffffffffffffffffffffffff92909216919091179055565b73ffffffffffffffffffffffffffffffffffffffff8116600090815260076020908152604080832033845290915290206114618282611812565b61147182823384600001546118d1565b60008082556001820181905560029091015550565b73ffffffffffffffffffffffffffffffffffffffff82166000908152601b602052604081208054600f5483916114bb91613182565b9050610ccc8185613182565b73ffffffffffffffffffffffffffffffffffffffff83166000908152601b60205260408120805483908110611525577f4e487b7100000000000000000000000000000000000000000000000000000000600052603260045260246000fd5b906000526020600020015490506000601860008673ffffffffffffffffffffffffffffffffffffffff1673ffffffffffffffffffffffffffffffffffffffff16815260200190815260200160002083815481106115ab577f4e487b7100000000000000000000000000000000000000000000000000000000600052603260045260246000fd5b906000526020600020015490506000601054601360008873ffffffffffffffffffffffffffffffffffffffff1673ffffffffffffffffffffffffffffffffffffffff1681526020019081526020016000208581548110611634577f4e487b7100000000000000000000000000000000000000000000000000000000600052603260045260246000fd5b600091825260208083209091015473ffffffffffffffffffffffffffffffffffffffff8a16835260049091526040909120546116709190613196565b61167a9190613182565b73ffffffffffffffffffffffffffffffffffffffff8716600090815260146020526040812080549293509091869081106116dd577f4e487b7100000000000000000000000000000000000000000000000000000000600052603260045260246000fd5b906000526020600020015490506000601660008973ffffffffffffffffffffffffffffffffffffffff1673ffffffffffffffffffffffffffffffffffffffff1681526020019081526020016000208681548110611763577f4e487b7100000000000000000000000000000000000000000000000000000000600052603260045260246000fd5b906000526020600020015490506000601260008a73ffffffffffffffffffffffffffffffffffffffff1673ffffffffffffffffffffffffffffffffffffffff16815260200190815260200160002087815481106117e9577f4e487b7100000000000000000000000000000000000000000000000000000000600052603260045260246000fd5b9060005260206000200154905061180586868a878787876127a0565b9998505050505050505050565b600181015480156108ff57600061182b8460084261270a565b835481549192509061183f90829085612039565b8085556000906118509083906131d3565b73ffffffffffffffffffffffffffffffffffffffff871660009081526009602052604081208054929350839290919061188a90849061316a565b909155505073ffffffffffffffffffffffffffffffffffffffff8616600090815260026020526040812080548392906118c490849061316a565b9091555050505050505050565b6000610e108460020154426118e691906131d3565b6118f09190613223565b905080610258101561192e576040517f08c379a0000000000000000000000000000000000000000000000000000000008152600401610a2a90612eed565b611936611b4c565b73ffffffffffffffffffffffffffffffffffffffff1663d9caed128685856040518463ffffffff1660e01b815260040161197293929190612cfd565b602060405180830381600087803b15801561198c57600080fd5b505af11580156119a0573d6000803e3d6000fd5b505050506040513d601f19601f820116820180604052508101906119c49190612c55565b6119fa576040517f08c379a0000000000000000000000000000000000000000000000000000000008152600401610a2a90612eb6565b81846000016000828254611a0e91906131d3565b909155505073ffffffffffffffffffffffffffffffffffffffff851660009081526009602052604081208054849290611a489084906131d3565b909155505073ffffffffffffffffffffffffffffffffffffffff851660009081526002602052604081208054849290611a829084906131d3565b90915550505050505050565b73ffffffffffffffffffffffffffffffffffffffff8084166000908152601e60209081526040808320938616835292815282822054601d9091529190205460ff16611ad761286c565b73ffffffffffffffffffffffffffffffffffffffff1663a80167118284866040518463ffffffff1660e01b8152600401611b139392919061314f565b600060405180830381600087803b158015611b2d57600080fd5b505af1158015611b41573d6000803e3d6000fd5b505050505050505050565b600080546040517f3c9c8f9c00000000000000000000000000000000000000000000000000000000815273ffffffffffffffffffffffffffffffffffffffff90911690633c9c8f9c90611ba4906065906004016130b8565b60206040518083038186803b158015611bbc57600080fd5b505afa158015611bd0573d6000803e3d6000fd5b505050506040513d601f19601f82011682018060405250810190611bf49190612b36565b905090565b73ffffffffffffffffffffffffffffffffffffffff8084166000908152600760209081526040808320938616835292905220611c358482611812565b73ffffffffffffffffffffffffffffffffffffffff84166000908152600860205260409020546001820155611c6c610e1042613223565b6002820155805482908290600090611c8590849061316a565b909155505073ffffffffffffffffffffffffffffffffffffffff841660009081526009602052604081208054849290611cbf90849061316a565b909155505073ffffffffffffffffffffffffffffffffffffffff841660009081526002602052604081208054849290611cf990849061316a565b909155505050505050565b6000611d0e61286c565b73ffffffffffffffffffffffffffffffffffffffff8086166000908152601e60209081526040808320938816835292815282822054601d909152919020549192509060ff168115611de6576040517ff542808700000000000000000000000000000000000000000000000000000000815273ffffffffffffffffffffffffffffffffffffffff84169063f542808790611daf9084908690899060040161314f565b600060405180830381600087803b158015611dc957600080fd5b505af1158015611ddd573d6000803e3d6000fd5b50505050611ec6565b6040517f583d861600000000000000000000000000000000000000000000000000000000815273ffffffffffffffffffffffffffffffffffffffff84169063583d861690611e3c9084908a90899060040161311e565b602060405180830381600087803b158015611e5657600080fd5b505af1158015611e6a573d6000803e3d6000fd5b505050506040513d601f19601f82011682018060405250810190611e8e9190612c8d565b73ffffffffffffffffffffffffffffffffffffffff8088166000908152601e60209081526040808320938a1683529290522081905591505b505050505050565b600080546040517fd87fefd200000000000000000000000000000000000000000000000000000000815273ffffffffffffffffffffffffffffffffffffffff9091169063d87fefd290611f289060099086906004016130c7565b60206040518083038186803b158015611f4057600080fd5b505afa158015611f54573d6000803e3d6000fd5b505050506040513d601f19601f820116820180604052508101906110ed9190612c55565b600080546040517fd87fefd200000000000000000000000000000000000000000000000000000000815273ffffffffffffffffffffffffffffffffffffffff9091169063d87fefd290611f289060039086906004016130c7565b73ffffffffffffffffffffffffffffffffffffffff8316600090815260208390526040812060010154819061200790846131d3565b73ffffffffffffffffffffffffffffffffffffffff86166000908152602086905260409020909150610ccc90826128c4565b6000816120468486613196565b610e729190613182565b3390565b6000806120618686611486565b905060006120f687601a60008a73ffffffffffffffffffffffffffffffffffffffff1673ffffffffffffffffffffffffffffffffffffffff16815260200190815260200160002084815481106120e0577f4e487b7100000000000000000000000000000000000000000000000000000000600052603260045260246000fd5b906000526020600020015487610882919061316a565b9050600064010000000061210a8784613196565b6121149190613182565b905084811061242557612125611b4c565b73ffffffffffffffffffffffffffffffffffffffff1663b3db428b8a8a896040518463ffffffff1660e01b815260040161216193929190612cfd565b602060405180830381600087803b15801561217b57600080fd5b505af115801561218f573d6000803e3d6000fd5b505050506040513d601f19601f820116820180604052508101906121b39190612c55565b1561242557600060026121c6838961316a565b6121d09190613182565b73ffffffffffffffffffffffffffffffffffffffff8a1660009081526002602052604081208054929350839290919061220a90849061316a565b909155505073ffffffffffffffffffffffffffffffffffffffff89166000908152601a60205260409020805482919086908110612270577f4e487b7100000000000000000000000000000000000000000000000000000000600052603260045260246000fd5b906000526020600020016000828254612289919061316a565b9091555088905061229a8489613196565b6122a690610e10613196565b6122b09190613182565b73ffffffffffffffffffffffffffffffffffffffff8a16600090815260056020526040812080549091906122e590849061316a565b9091555050601c80549550859060006122fd836131ea565b91905055506040518060e001604052808b73ffffffffffffffffffffffffffffffffffffffff1681526020018a73ffffffffffffffffffffffffffffffffffffffff168152602001888152602001838152602001894261235d919061316a565b815260208082018b90526040918201869052600088815260198252828120845181547fffffffffffffffffffffffff000000000000000000000000000000000000000090811673ffffffffffffffffffffffffffffffffffffffff92831617835586850151600184018054909216908316179055858501516002830155606086015160038301556080860151600483015560a0860151600583015560c090950151600690910155928c16835260148152818320601590915291206124239190868a61296d565b505b50505095945050505050565b6001810154600582015473ffffffffffffffffffffffffffffffffffffffff90911690600090612462908390611486565b9050600060028460030154856002015461247c919061316a565b6124869190613182565b73ffffffffffffffffffffffffffffffffffffffff84166000908152600260205260408120805492935083929091906124c09084906131d3565b909155505073ffffffffffffffffffffffffffffffffffffffff83166000908152601a60205260409020805482919084908110612526577f4e487b7100000000000000000000000000000000000000000000000000000000600052603260045260246000fd5b90600052602060002001600082825461253f91906131d3565b909155505073ffffffffffffffffffffffffffffffffffffffff8316600090815260166020908152604080832060179092529091206002860154612586929190859061296d565b73ffffffffffffffffffffffffffffffffffffffff8316600090815260026020908152604080832054600390925290912054118061267a57506125c7611b4c565b845460038601546040517fd9caed1200000000000000000000000000000000000000000000000000000000815273ffffffffffffffffffffffffffffffffffffffff9384169363d9caed12936126269389939290911691600401612cfd565b602060405180830381600087803b15801561264057600080fd5b505af1158015612654573d6000803e3d6000fd5b505050506040513d601f19601f820116820180604052508101906126789190612c55565b155b15612704578354600385015460405173ffffffffffffffffffffffffffffffffffffffff928316928616917fbcab653cf73e12f7bb78aa625dccb002864f5de7de2518796fb5b82fd6e6ab05916126d191906130f1565b60405180910390a38354600385015461270491859173ffffffffffffffffffffffffffffffffffffffff90911690612b08565b50505050565b73ffffffffffffffffffffffffffffffffffffffff83166000908152602083815260408083206002808201546001830154918552838620546004865284872054600a875285882054600b9097529490962054600c549396612773969295939490939291906127a0565b6002820155600181015460009061278a90846131d3565b905061279682826128c4565b8255509392505050565b8660006127ad88426131d3565b90506000600654826127bf9190613196565b905086881015806127ed57508486101580156127ed57506127e088886131d3565b6127ea86886131d3565b10155b15612819576127fc81846131d3565b92508264010000000011156128145764010000000092505b61285f565b8787118015612842575085851180612842575061283685876131d3565b61284089896131d3565b115b1561285f57612851818461316a565b92508383111561285f578392505b5050979650505050505050565b600080546040517f3c9c8f9c00000000000000000000000000000000000000000000000000000000815273ffffffffffffffffffffffffffffffffffffffff90911690633c9c8f9c90611ba490606c906004016130b8565b6000806128d3610e1084613223565b90506128e6640100000000610e10613196565b6002850154855483916128f891613196565b6129029190613196565b61290c9190613182565b9150600061291c610e1085613182565b905080156129655760005b80821115612963576401000000008660020154856129459190613196565b61294f9190613182565b93508061295b816131ea565b915050612927565b505b505092915050565b8354600f5460009161297e91613182565b9050600061298c8483613196565b905060008585815481106129c9577f4e487b7100000000000000000000000000000000000000000000000000000000600052603260045260246000fd5b9060005260206000200154426129df91906131d3565b90506000816129ee8487613196565b6129f89190613182565b9050612a04828461316a565b612a0e8383613196565b848a8981548110612a48577f4e487b7100000000000000000000000000000000000000000000000000000000600052603260045260246000fd5b9060005260206000200154612a5d9190613196565b612a67919061316a565b612a719190613182565b888781548110612aaa577f4e487b7100000000000000000000000000000000000000000000000000000000600052603260045260246000fd5b906000526020600020018190555042878781548110612af2577f4e487b7100000000000000000000000000000000000000000000000000000000600052603260045260246000fd5b6000918252602090912001555050505050505050565b6108ff838383611bf9565b600060208284031215612b24578081fd5b8135612b2f81613295565b9392505050565b600060208284031215612b47578081fd5b8151612b2f81613295565b60008060408385031215612b64578081fd5b8235612b6f81613295565b91506020830135612b7f81613295565b809150509250929050565b60008060408385031215612b9c578182fd5b8235612ba781613295565b946020939093013593505050565b600080600060608486031215612bc9578081fd5b8335612bd481613295565b95602085013595506040909401359392505050565b60008060008060808587031215612bfe578081fd5b8435612c0981613295565b966020860135965060408601359560600135945092505050565b60008060408385031215612c35578182fd5b8235612c4081613295565b9150602083013560ff81168114612b7f578182fd5b600060208284031215612c66578081fd5b81518015158114612b2f578182fd5b600060208284031215612c86578081fd5b5035919050565b600060208284031215612c9e578081fd5b5051919050565b600080600060608486031215612cb9578283fd5b833592506020840135612ccb81613295565b929592945050506040919091013590565b73ffffffffffffffffffffffffffffffffffffffff91909116815260200190565b73ffffffffffffffffffffffffffffffffffffffff9384168152919092166020820152604081019190915260600190565b73ffffffffffffffffffffffffffffffffffffffff978816815295909616602086015260408501939093526060840191909152608083015260a082015260c081019190915260e00190565b73ffffffffffffffffffffffffffffffffffffffff929092168252602082015260400190565b6020808252602e908201527f43616c6c6572206e6f7420617574686f72697a656420746f2073657420696e6360408201527f656e74697665207472616e636865000000000000000000000000000000000000606082015260800190565b6020808252602e908201527f496e73756666696369656e74206361706974616c20746f206c656e642c20747260408201527f7920616761696e206c6174657221000000000000000000000000000000000000606082015260800190565b60208082526026908201527f4f776e61626c653a206e6577206f776e657220697320746865207a65726f206160408201527f6464726573730000000000000000000000000000000000000000000000000000606082015260800190565b60208082526016908201527f496e73756666696369656e74206c697175696469747900000000000000000000604082015260600190565b6020808252603f908201527f5472696564207769746864726177696e67206f7574736964652073756273637260408201527f697074696f6e2063616e63656c6c6174696f6e2074696d652077696e646f7700606082015260800190565b6020808252818101527f4f776e61626c653a2063616c6c6572206973206e6f7420746865206f776e6572604082015260600190565b60208082526012908201527f4e6f7420686f6c646572206f6620626f6e640000000000000000000000000000604082015260600190565b60208082526015908201527f4e6f7420616e20617070726f76656420746f6b656e0000000000000000000000604082015260600190565b60208082526016908201527f626f6e64206973207374696c6c20696d6d617475726500000000000000000000604082015260600190565b60208082526018908201527f4e6f7420616e20617070726f76656420626f72726f7765720000000000000000604082015260600190565b6020808252602d908201527f436f756c64206e6f74207472616e7366657220626f6e64206465706f7369742060408201527f746f6b656e20746f2066756e6400000000000000000000000000000000000000606082015260800190565b61ffff91909116815260200190565b61ffff92909216825273ffffffffffffffffffffffffffffffffffffffff16602082015260400190565b90815260200190565b9283526020830191909152604082015260600190565b60ff91909116815260200190565b60ff93909316835273ffffffffffffffffffffffffffffffffffffffff919091166020830152604082015260600190565b60ff9390931683526020830191909152604082015260600190565b6000821982111561317d5761317d613237565b500190565b60008261319157613191613266565b500490565b6000817fffffffffffffffffffffffffffffffffffffffffffffffffffffffffffffffff04831182151516156131ce576131ce613237565b500290565b6000828210156131e5576131e5613237565b500390565b60007fffffffffffffffffffffffffffffffffffffffffffffffffffffffffffffffff82141561321c5761321c613237565b5060010190565b60008261323257613232613266565b500690565b7f4e487b7100000000000000000000000000000000000000000000000000000000600052601160045260246000fd5b7f4e487b7100000000000000000000000000000000000000000000000000000000600052601260045260246000fd5b73ffffffffffffffffffffffffffffffffffffffff811681146132b757600080fd5b5056fea264697066735822122024ab23a6e6911f23a982019604f080f979a80433f347f5a766e3f1a3f538fff164736f6c63430008010033",
  "linkReferences": {},
  "deployedLinkReferences": {}
}