{
  "_format": "hh-sol-artifact-1",
  "contractName": "Lending",
  "sourceName": "contracts/Lending.sol",
  "abi": [
    {
      "inputs": [
        {
          "internalType": "address",
          "name": "_roles",
          "type": "address"
        }
      ],
      "stateMutability": "nonpayable",
      "type": "constructor"
    },
    {
      "anonymous": false,
      "inputs": [
        {
          "indexed": true,
          "internalType": "address",
          "name": "token",
          "type": "address"
        },
        {
          "indexed": true,
          "internalType": "address",
          "name": "holder",
          "type": "address"
        },
        {
          "indexed": false,
          "internalType": "uint256",
          "name": "value",
          "type": "uint256"
        }
      ],
      "name": "LiquidityWarning",
      "type": "event"
    },
    {
      "anonymous": false,
      "inputs": [
        {
          "indexed": true,
          "internalType": "address",
          "name": "previousOwner",
          "type": "address"
        },
        {
          "indexed": true,
          "internalType": "address",
          "name": "newOwner",
          "type": "address"
        }
      ],
      "name": "OwnershipTransferred",
      "type": "event"
    },
    {
      "inputs": [],
      "name": "ADMIN",
      "outputs": [
        {
          "internalType": "uint16",
          "name": "",
          "type": "uint16"
        }
      ],
      "stateMutability": "view",
      "type": "function"
    },
    {
      "inputs": [],
      "name": "AUTHORIZED_FUND_TRADER",
      "outputs": [
        {
          "internalType": "uint16",
          "name": "",
          "type": "uint16"
        }
      ],
      "stateMutability": "view",
      "type": "function"
    },
    {
      "inputs": [],
      "name": "BORROWER",
      "outputs": [
        {
          "internalType": "uint16",
          "name": "",
          "type": "uint16"
        }
      ],
      "stateMutability": "view",
      "type": "function"
    },
    {
      "inputs": [],
      "name": "FEE_CONTROLLER",
      "outputs": [
        {
          "internalType": "uint16",
          "name": "",
          "type": "uint16"
        }
      ],
      "stateMutability": "view",
      "type": "function"
    },
    {
      "inputs": [],
      "name": "FEE_SOURCE",
      "outputs": [
        {
          "internalType": "uint16",
          "name": "",
          "type": "uint16"
        }
      ],
      "stateMutability": "view",
      "type": "function"
    },
    {
      "inputs": [],
      "name": "FUND",
      "outputs": [
        {
          "internalType": "uint16",
          "name": "",
          "type": "uint16"
        }
      ],
      "stateMutability": "view",
      "type": "function"
    },
    {
      "inputs": [],
      "name": "INCENTIVE_DISTRIBUTION",
      "outputs": [
        {
          "internalType": "uint16",
          "name": "",
          "type": "uint16"
        }
      ],
      "stateMutability": "view",
      "type": "function"
    },
    {
      "inputs": [],
      "name": "INCENTIVE_REPORTER",
      "outputs": [
        {
          "internalType": "uint16",
          "name": "",
          "type": "uint16"
        }
      ],
      "stateMutability": "view",
      "type": "function"
    },
    {
      "inputs": [],
      "name": "LENDING",
      "outputs": [
        {
          "internalType": "uint16",
          "name": "",
          "type": "uint16"
        }
      ],
      "stateMutability": "view",
      "type": "function"
    },
    {
      "inputs": [],
      "name": "LIQUIDATOR",
      "outputs": [
        {
          "internalType": "uint16",
          "name": "",
          "type": "uint16"
        }
      ],
      "stateMutability": "view",
      "type": "function"
    },
    {
      "inputs": [],
      "name": "MARGIN_CALLER",
      "outputs": [
        {
          "internalType": "uint16",
          "name": "",
          "type": "uint16"
        }
      ],
      "stateMutability": "view",
      "type": "function"
    },
    {
      "inputs": [],
      "name": "MARGIN_TRADER",
      "outputs": [
        {
          "internalType": "uint16",
          "name": "",
          "type": "uint16"
        }
      ],
      "stateMutability": "view",
      "type": "function"
    },
    {
      "inputs": [],
      "name": "MARGIN_TRADING",
      "outputs": [
        {
          "internalType": "uint16",
          "name": "",
          "type": "uint16"
        }
      ],
      "stateMutability": "view",
      "type": "function"
    },
    {
      "inputs": [],
      "name": "PRICE_CONTROLLER",
      "outputs": [
        {
          "internalType": "uint16",
          "name": "",
          "type": "uint16"
        }
      ],
      "stateMutability": "view",
      "type": "function"
    },
    {
      "inputs": [],
      "name": "ROUTER",
      "outputs": [
        {
          "internalType": "uint16",
          "name": "",
          "type": "uint16"
        }
      ],
      "stateMutability": "view",
      "type": "function"
    },
    {
      "inputs": [],
      "name": "STAKE_PENALIZER",
      "outputs": [
        {
          "internalType": "uint16",
          "name": "",
          "type": "uint16"
        }
      ],
      "stateMutability": "view",
      "type": "function"
    },
    {
      "inputs": [],
      "name": "TOKEN_ACTIVATOR",
      "outputs": [
        {
          "internalType": "uint16",
          "name": "",
          "type": "uint16"
        }
      ],
      "stateMutability": "view",
      "type": "function"
    },
    {
      "inputs": [],
      "name": "WITHDRAWER",
      "outputs": [
        {
          "internalType": "uint16",
          "name": "",
          "type": "uint16"
        }
      ],
      "stateMutability": "view",
      "type": "function"
    },
    {
      "inputs": [
        {
          "internalType": "uint256",
          "name": "balance",
          "type": "uint256"
        },
        {
          "internalType": "address",
          "name": "token",
          "type": "address"
        },
        {
          "internalType": "uint256",
          "name": "yieldQuotientFP",
          "type": "uint256"
        }
      ],
      "name": "applyBorrowInterest",
      "outputs": [
        {
          "internalType": "uint256",
          "name": "",
          "type": "uint256"
        }
      ],
      "stateMutability": "nonpayable",
      "type": "function"
    },
    {
      "inputs": [
        {
          "internalType": "address",
          "name": "",
          "type": "address"
        },
        {
          "internalType": "uint256",
          "name": "",
          "type": "uint256"
        }
      ],
      "name": "bondIds",
      "outputs": [
        {
          "internalType": "uint256",
          "name": "",
          "type": "uint256"
        }
      ],
      "stateMutability": "view",
      "type": "function"
    },
    {
      "inputs": [
        {
          "internalType": "uint256",
          "name": "",
          "type": "uint256"
        }
      ],
      "name": "bonds",
      "outputs": [
        {
          "internalType": "address",
          "name": "holder",
          "type": "address"
        },
        {
          "internalType": "address",
          "name": "token",
          "type": "address"
        },
        {
          "internalType": "uint256",
          "name": "originalPrice",
          "type": "uint256"
        },
        {
          "internalType": "uint256",
          "name": "returnAmount",
          "type": "uint256"
        },
        {
          "internalType": "uint256",
          "name": "maturityTimestamp",
          "type": "uint256"
        },
        {
          "internalType": "uint256",
          "name": "runtime",
          "type": "uint256"
        },
        {
          "internalType": "uint256",
          "name": "yieldFP",
          "type": "uint256"
        }
      ],
      "stateMutability": "view",
      "type": "function"
    },
    {
      "inputs": [
        {
          "internalType": "address",
          "name": "",
          "type": "address"
        }
      ],
      "name": "borrowYieldAccumulators",
      "outputs": [
        {
          "internalType": "uint256",
          "name": "accumulatorFP",
          "type": "uint256"
        },
        {
          "internalType": "uint256",
          "name": "lastUpdated",
          "type": "uint256"
        },
        {
          "internalType": "uint256",
          "name": "hourlyYieldFP",
          "type": "uint256"
        }
      ],
      "stateMutability": "view",
      "type": "function"
    },
    {
      "inputs": [],
      "name": "borrowingMarkupFP",
      "outputs": [
        {
          "internalType": "uint256",
          "name": "",
          "type": "uint256"
        }
      ],
      "stateMutability": "view",
      "type": "function"
    },
    {
      "inputs": [
        {
          "internalType": "address",
          "name": "token",
          "type": "address"
        },
        {
          "internalType": "uint256",
          "name": "runtime",
          "type": "uint256"
        },
        {
          "internalType": "uint256",
          "name": "amount",
          "type": "uint256"
        },
        {
          "internalType": "uint256",
          "name": "minReturn",
          "type": "uint256"
        }
      ],
      "name": "buyBond",
      "outputs": [
        {
          "internalType": "uint256",
          "name": "bondIndex",
          "type": "uint256"
        }
      ],
      "stateMutability": "nonpayable",
      "type": "function"
    },
    {
      "inputs": [
        {
          "internalType": "address",
          "name": "token",
          "type": "address"
        },
        {
          "internalType": "uint256",
          "name": "amount",
          "type": "uint256"
        }
      ],
      "name": "buyHourlyBondSubscription",
      "outputs": [],
      "stateMutability": "nonpayable",
      "type": "function"
    },
    {
      "inputs": [
        {
          "internalType": "address",
          "name": "",
          "type": "address"
        },
        {
          "internalType": "uint256",
          "name": "",
          "type": "uint256"
        }
      ],
      "name": "buyingSpeed",
      "outputs": [
        {
          "internalType": "uint256",
          "name": "",
          "type": "uint256"
        }
      ],
      "stateMutability": "view",
      "type": "function"
    },
    {
      "inputs": [
        {
          "internalType": "address",
          "name": "",
          "type": "address"
        },
        {
          "internalType": "address",
          "name": "",
          "type": "address"
        }
      ],
      "name": "claimIds",
      "outputs": [
        {
          "internalType": "uint256",
          "name": "",
          "type": "uint256"
        }
      ],
      "stateMutability": "view",
      "type": "function"
    },
    {
      "inputs": [
        {
          "internalType": "address",
          "name": "token",
          "type": "address"
        }
      ],
      "name": "closeHourlyBondAccount",
      "outputs": [],
      "stateMutability": "nonpayable",
      "type": "function"
    },
    {
      "inputs": [],
      "name": "diffMaxMinRuntime",
      "outputs": [
        {
          "internalType": "uint256",
          "name": "",
          "type": "uint256"
        }
      ],
      "stateMutability": "view",
      "type": "function"
    },
    {
      "inputs": [
        {
          "internalType": "address",
          "name": "",
          "type": "address"
        },
        {
          "internalType": "address",
          "name": "",
          "type": "address"
        }
      ],
      "name": "hourlyBondAccounts",
      "outputs": [
        {
          "internalType": "uint256",
          "name": "amount",
          "type": "uint256"
        },
        {
          "internalType": "uint256",
          "name": "yieldQuotientFP",
          "type": "uint256"
        },
        {
          "internalType": "uint256",
          "name": "moduloHour",
          "type": "uint256"
        }
      ],
      "stateMutability": "view",
      "type": "function"
    },
    {
      "inputs": [
        {
          "internalType": "address",
          "name": "",
          "type": "address"
        }
      ],
      "name": "hourlyBondBuyingSpeed",
      "outputs": [
        {
          "internalType": "uint256",
          "name": "",
          "type": "uint256"
        }
      ],
      "stateMutability": "view",
      "type": "function"
    },
    {
      "inputs": [
        {
          "internalType": "address",
          "name": "",
          "type": "address"
        }
      ],
      "name": "hourlyBondWithdrawingSpeed",
      "outputs": [
        {
          "internalType": "uint256",
          "name": "",
          "type": "uint256"
        }
      ],
      "stateMutability": "view",
      "type": "function"
    },
    {
      "inputs": [
        {
          "internalType": "address",
          "name": "",
          "type": "address"
        }
      ],
      "name": "hourlyBondYieldAccumulators",
      "outputs": [
        {
          "internalType": "uint256",
          "name": "accumulatorFP",
          "type": "uint256"
        },
        {
          "internalType": "uint256",
          "name": "lastUpdated",
          "type": "uint256"
        },
        {
          "internalType": "uint256",
          "name": "hourlyYieldFP",
          "type": "uint256"
        }
      ],
      "stateMutability": "view",
      "type": "function"
    },
    {
      "inputs": [],
      "name": "hourlyMaxYield",
      "outputs": [
        {
          "internalType": "uint256",
          "name": "",
          "type": "uint256"
        }
      ],
      "stateMutability": "view",
      "type": "function"
    },
    {
      "inputs": [
        {
          "internalType": "address",
          "name": "",
          "type": "address"
        }
      ],
      "name": "incentiveTranches",
      "outputs": [
        {
          "internalType": "uint8",
          "name": "",
          "type": "uint8"
        }
      ],
      "stateMutability": "view",
      "type": "function"
    },
    {
      "inputs": [
        {
          "internalType": "address",
          "name": "",
          "type": "address"
        },
        {
          "internalType": "uint256",
          "name": "",
          "type": "uint256"
        }
      ],
      "name": "lastBought",
      "outputs": [
        {
          "internalType": "uint256",
          "name": "",
          "type": "uint256"
        }
      ],
      "stateMutability": "view",
      "type": "function"
    },
    {
      "inputs": [
        {
          "internalType": "address",
          "name": "",
          "type": "address"
        },
        {
          "internalType": "uint256",
          "name": "",
          "type": "uint256"
        }
      ],
      "name": "lastWithdrawn",
      "outputs": [
        {
          "internalType": "uint256",
          "name": "",
          "type": "uint256"
        }
      ],
      "stateMutability": "view",
      "type": "function"
    },
    {
      "inputs": [
        {
          "internalType": "address",
          "name": "",
          "type": "address"
        }
      ],
      "name": "lendingTarget",
      "outputs": [
        {
          "internalType": "uint256",
          "name": "",
          "type": "uint256"
        }
      ],
      "stateMutability": "view",
      "type": "function"
    },
    {
      "inputs": [],
      "name": "maxRuntime",
      "outputs": [
        {
          "internalType": "uint256",
          "name": "",
          "type": "uint256"
        }
      ],
      "stateMutability": "view",
      "type": "function"
    },
    {
      "inputs": [
        {
          "internalType": "address",
          "name": "",
          "type": "address"
        },
        {
          "internalType": "uint256",
          "name": "",
          "type": "uint256"
        }
      ],
      "name": "maxYield",
      "outputs": [
        {
          "internalType": "uint256",
          "name": "",
          "type": "uint256"
        }
      ],
      "stateMutability": "view",
      "type": "function"
    },
    {
      "inputs": [],
      "name": "minRuntime",
      "outputs": [
        {
          "internalType": "uint256",
          "name": "",
          "type": "uint256"
        }
      ],
      "stateMutability": "view",
      "type": "function"
    },
    {
      "inputs": [],
      "name": "nextBondIndex",
      "outputs": [
        {
          "internalType": "uint256",
          "name": "",
          "type": "uint256"
        }
      ],
      "stateMutability": "view",
      "type": "function"
    },
    {
      "inputs": [],
      "name": "owner",
      "outputs": [
        {
          "internalType": "address",
          "name": "",
          "type": "address"
        }
      ],
      "stateMutability": "view",
      "type": "function"
    },
    {
      "inputs": [
        {
          "internalType": "address",
          "name": "token",
          "type": "address"
        },
        {
          "internalType": "uint256",
          "name": "amount",
          "type": "uint256"
        }
      ],
      "name": "payOff",
      "outputs": [],
      "stateMutability": "nonpayable",
      "type": "function"
    },
    {
      "inputs": [
        {
          "internalType": "address",
          "name": "token",
          "type": "address"
        },
        {
          "internalType": "uint256",
          "name": "amount",
          "type": "uint256"
        }
      ],
      "name": "registerBorrow",
      "outputs": [],
      "stateMutability": "nonpayable",
      "type": "function"
    },
    {
      "inputs": [],
      "name": "renounceOwnership",
      "outputs": [],
      "stateMutability": "nonpayable",
      "type": "function"
    },
    {
      "inputs": [],
      "name": "roles",
      "outputs": [
        {
          "internalType": "contract Roles",
          "name": "",
          "type": "address"
        }
      ],
      "stateMutability": "view",
      "type": "function"
    },
    {
      "inputs": [
        {
          "internalType": "address",
          "name": "",
          "type": "address"
        },
        {
          "internalType": "uint256",
          "name": "",
          "type": "uint256"
        }
      ],
      "name": "runtimeWeights",
      "outputs": [
        {
          "internalType": "uint256",
          "name": "",
          "type": "uint256"
        }
      ],
      "stateMutability": "view",
      "type": "function"
    },
    {
      "inputs": [
        {
          "internalType": "address",
          "name": "token",
          "type": "address"
        },
        {
          "internalType": "uint8",
          "name": "tranche",
          "type": "uint8"
        }
      ],
      "name": "setIncentiveTranche",
      "outputs": [],
      "stateMutability": "nonpayable",
      "type": "function"
    },
    {
      "inputs": [
        {
          "internalType": "address",
          "name": "",
          "type": "address"
        }
      ],
      "name": "totalBorrowed",
      "outputs": [
        {
          "internalType": "uint256",
          "name": "",
          "type": "uint256"
        }
      ],
      "stateMutability": "view",
      "type": "function"
    },
    {
      "inputs": [
        {
          "internalType": "address",
          "name": "",
          "type": "address"
        }
      ],
      "name": "totalHourlyBond",
      "outputs": [
        {
          "internalType": "uint256",
          "name": "",
          "type": "uint256"
        }
      ],
      "stateMutability": "view",
      "type": "function"
    },
    {
      "inputs": [
        {
          "internalType": "address",
          "name": "",
          "type": "address"
        }
      ],
      "name": "totalHourlyYieldFP",
      "outputs": [
        {
          "internalType": "uint256",
          "name": "",
          "type": "uint256"
        }
      ],
      "stateMutability": "view",
      "type": "function"
    },
    {
      "inputs": [
        {
          "internalType": "address",
          "name": "",
          "type": "address"
        }
      ],
      "name": "totalLending",
      "outputs": [
        {
          "internalType": "uint256",
          "name": "",
          "type": "uint256"
        }
      ],
      "stateMutability": "view",
      "type": "function"
    },
    {
      "inputs": [
        {
          "internalType": "address",
          "name": "",
          "type": "address"
        },
        {
          "internalType": "uint256",
          "name": "",
          "type": "uint256"
        }
      ],
      "name": "totalLendingPerRuntime",
      "outputs": [
        {
          "internalType": "uint256",
          "name": "",
          "type": "uint256"
        }
      ],
      "stateMutability": "view",
      "type": "function"
    },
    {
      "inputs": [
        {
          "internalType": "address",
          "name": "newOwner",
          "type": "address"
        }
      ],
      "name": "transferOwnership",
      "outputs": [],
      "stateMutability": "nonpayable",
      "type": "function"
    },
    {
      "inputs": [
        {
          "internalType": "address",
          "name": "token",
          "type": "address"
        },
        {
          "internalType": "uint256",
          "name": "runtime",
          "type": "uint256"
        },
        {
          "internalType": "uint256",
          "name": "amount",
          "type": "uint256"
        }
      ],
      "name": "viewBondReturn",
      "outputs": [
        {
          "internalType": "uint256",
          "name": "",
          "type": "uint256"
        }
      ],
      "stateMutability": "view",
      "type": "function"
    },
    {
      "inputs": [
        {
          "internalType": "uint256",
          "name": "balance",
          "type": "uint256"
        },
        {
          "internalType": "address",
          "name": "token",
          "type": "address"
        },
        {
          "internalType": "uint256",
          "name": "yieldQuotientFP",
          "type": "uint256"
        }
      ],
      "name": "viewBorrowInterest",
      "outputs": [
        {
          "internalType": "uint256",
          "name": "",
          "type": "uint256"
        }
      ],
      "stateMutability": "view",
      "type": "function"
    },
    {
      "inputs": [
        {
          "internalType": "address",
          "name": "token",
          "type": "address"
        }
      ],
      "name": "viewBorrowingYield",
      "outputs": [
        {
          "internalType": "uint256",
          "name": "",
          "type": "uint256"
        }
      ],
      "stateMutability": "view",
      "type": "function"
    },
    {
      "inputs": [],
      "name": "weightTotal",
      "outputs": [
        {
          "internalType": "uint256",
          "name": "",
          "type": "uint256"
        }
      ],
      "stateMutability": "view",
      "type": "function"
    },
    {
      "inputs": [
        {
          "internalType": "uint256",
          "name": "bondId",
          "type": "uint256"
        }
      ],
      "name": "withdrawBond",
      "outputs": [],
      "stateMutability": "nonpayable",
      "type": "function"
    },
    {
      "inputs": [
        {
          "internalType": "address",
          "name": "token",
          "type": "address"
        },
        {
          "internalType": "uint256",
          "name": "amount",
          "type": "uint256"
        }
      ],
      "name": "withdrawHourlyBond",
      "outputs": [],
      "stateMutability": "nonpayable",
      "type": "function"
    },
    {
      "inputs": [
        {
          "internalType": "address",
          "name": "",
          "type": "address"
        },
        {
          "internalType": "uint256",
          "name": "",
          "type": "uint256"
        }
      ],
      "name": "withdrawingSpeed",
      "outputs": [
        {
          "internalType": "uint256",
          "name": "",
          "type": "uint256"
        }
      ],
      "stateMutability": "view",
      "type": "function"
    },
    {
      "inputs": [],
      "name": "yieldChangePerSecondFP",
      "outputs": [
        {
          "internalType": "uint256",
          "name": "",
          "type": "uint256"
        }
      ],
      "stateMutability": "view",
      "type": "function"
    },
    {
      "inputs": [
        {
          "internalType": "address",
          "name": "",
          "type": "address"
        },
        {
          "internalType": "uint256",
          "name": "",
          "type": "uint256"
        }
      ],
      "name": "yieldLastUpdated",
      "outputs": [
        {
          "internalType": "uint256",
          "name": "",
          "type": "uint256"
        }
      ],
      "stateMutability": "view",
      "type": "function"
    }
  ],
  "bytecode": "0x60806040526001601c553480156200001657600080fd5b50604051620033ff380380620033ff8339810160408190526200003991620000b7565b600080546001600160a01b0319166001600160a01b0383161781556200005e620000b3565b600180546001600160a01b0319166001600160a01b038316908117909155604051919250906000907f8be0079c531659141344cd1fd0a4f28419497f9722a3daafe3b4186f6b6457e0908290a35050620000e7565b3390565b600060208284031215620000c9578081fd5b81516001600160a01b0381168114620000e0578182fd5b9392505050565b61330880620000f76000396000f3fe608060405234801561001057600080fd5b50600436106103d05760003560e01c806381ca6600116101ff578063c76139d01161011a578063e69f8959116100ad578063ef2cd3b81161007c578063ef2cd3b814610776578063f11f979514610789578063f2fde38b14610791578063f884614b146107a4576103d0565b8063e69f89591461072a578063e7bde5c11461073d578063e84bfdf414610750578063ee0862bf14610763576103d0565b8063d5d7ed7f116100e9578063d5d7ed7f146106e9578063dcaf8029146106f1578063e2e1ca2b14610704578063e695fa6814610717576103d0565b8063c76139d0146106b3578063cacf8d45146106bb578063cd3b5dfb146106c3578063d3dc14b2146106d6576103d0565b8063a94c7c3411610192578063c1cea80711610161578063c1cea80714610672578063c3daab9614610685578063c43a683d14610698578063c4f7d45d146106a0576103d0565b8063a94c7c3414610647578063a9cc05361461064f578063aa7e321d14610657578063bfedc0bf1461065f576103d0565b80638da5cb5b116101ce5780638da5cb5b146106275780639229e73f1461062f578063a0098d6914610637578063a8b151a11461063f576103d0565b806381ca6600146105d557806383a04229146105dd57806383a49c7c146105ff5780638824cbba14610607576103d0565b806332fe7b26116102ef5780635adbeb1511610282578063687680ed11610251578063687680ed1461059f578063715018a6146105b2578063773bbb3b146105ba5780637b8b4ee2146105c2576103d0565b80635adbeb15146105565780635c275a39146105695780635f1c17c0146105715780636694198414610597576103d0565b806346b88796116102be57806346b887961461052b57806348fb27b81461053357806349f7cff61461053b57806358d51f911461054e576103d0565b806332fe7b26146104e8578063392f5f64146104f05780633aa58f451461050557806340fe56a914610518576103d0565b80631b669507116103675780632864f401116103365780632864f401146104b25780632a0acc6a146104c55780632a6a897b146104cd5780632fe94def146104e0576103d0565b80631b6695071461047c5780631bc5d81d1461048457806320b155151461048c578063247ae0a61461049f576103d0565b80630f7c43dc116103a35780630f7c43dc1461042e57806316de7a43146104435780631744a9b6146104565780631799f0c314610469576103d0565b80630196c361146103d5578063065d570f146103fe5780630b550546146104135780630bba92b31461041b575b600080fd5b6103e86103e3366004612ba2565b6107b7565b6040516103f59190613109565b60405180910390f35b6104066107e8565b6040516103f591906130d0565b6103e86107ed565b6103e8610429366004612bcd565b6107f3565b61044161043c366004612ba2565b6108c1565b005b610441610451366004612ba2565b610917565b6103e8610464366004612b2b565b610a60565b6103e8610477366004612b2b565b610a72565b610406610a84565b610406610a89565b6103e861049a366004612b2b565b610a8e565b6103e86104ad366004612ba2565b610aa0565b6104416104c0366004612c3b565b610abc565b610406610b53565b6104416104db366004612ba2565b610b58565b610406610bd5565b610406610bda565b6104f8610bdf565b6040516103f59190612cf4565b6103e8610513366004612b2b565b610bfb565b6103e8610526366004612ba2565b610c0d565b610406610c29565b610406610c2e565b6103e8610549366004612b2b565b610c33565b6103e8610c45565b6103e8610564366004612b6a565b610c4b565b610406610c68565b61058461057f366004612c8d565b610c6d565b6040516103f59796959493929190612d46565b610406610cc3565b6103e86105ad366004612cbd565b610cc8565b610441610ced565b6103e8610dcf565b6103e86105d0366004612c01565b610dd5565b610406610e92565b6105f06105eb366004612b6a565b610e97565b6040516103f593929190613112565b610406610ec3565b61061a610615366004612b2b565b610ec8565b6040516103f59190613128565b6104f8610edd565b6103e8610ef9565b610406610eff565b6103e8610f04565b610406610f0a565b610406610f0f565b6103e8610f14565b6105f061066d366004612b2b565b610f1a565b6103e8610680366004612b2b565b610f3b565b610441610693366004612c8d565b610f4d565b6103e861101f565b6103e86106ae366004612ba2565b611025565b610406611041565b610406611046565b6105f06106d1366004612b2b565b61104b565b6103e86106e4366004612ba2565b61106c565b610406611088565b6103e86106ff366004612ba2565b61108d565b6103e8610712366004612b2b565b6110a9565b6103e8610725366004612cbd565b6110bb565b6103e8610738366004612ba2565b6110db565b6103e861074b366004612b2b565b6110f7565b6103e861075e366004612ba2565b61110b565b610441610771366004612ba2565b611127565b6103e8610784366004612ba2565b6112d0565b6103e86112eb565b61044161079f366004612b2b565b6112f1565b6104416107b2366004612b2b565b61143f565b601660205281600052604060002081815481106107d357600080fd5b90600052602060002001600091509150505481565b600381565b600f5481565b600080610800858561149e565b9050600061089b86601a60008973ffffffffffffffffffffffffffffffffffffffff1673ffffffffffffffffffffffffffffffffffffffff168152602001908152602001600020848154811061087f577f4e487b7100000000000000000000000000000000000000000000000000000000600052603260045260246000fd5b9060005260206000200154866108959190613182565b846114df565b90506401000000006108ad85836131ae565b6108b7919061319a565b9695505050505050565b73ffffffffffffffffffffffffffffffffffffffff8216600090815260076020908152604080832033845290915290206108fb838261182a565b610907838233856118e9565b610912338484611aa6565b505050565b73ffffffffffffffffffffffffffffffffffffffff8216600090815260026020526040902054610948908290613182565b73ffffffffffffffffffffffffffffffffffffffff831660009081526004602052604090205410610a5c5761097b611b64565b73ffffffffffffffffffffffffffffffffffffffff166347e7ef2483836040518363ffffffff1660e01b81526004016109b5929190612d91565b602060405180830381600087803b1580156109cf57600080fd5b505af11580156109e3573d6000803e3d6000fd5b505050506040513d601f19601f82011682018060405250810190610a079190612c6d565b610a46576040517f08c379a0000000000000000000000000000000000000000000000000000000008152600401610a3d90613073565b60405180910390fd5b610a51823383611c11565b610a5c338383611d1c565b5050565b60046020526000908152604090205481565b60056020526000908152604090205481565b600a81565b600881565b600b6020526000908152604090205481565b601560205281600052604060002081815481106107d357600080fd5b610ac533611ee6565b610afb576040517f08c379a0000000000000000000000000000000000000000000000000000000008152600401610a3d90612db7565b73ffffffffffffffffffffffffffffffffffffffff919091166000908152601d6020526040902080547fffffffffffffffffffffffffffffffffffffffffffffffffffffffffffffff001660ff909216919091179055565b606b81565b610b6133611f90565b610b97576040517f08c379a0000000000000000000000000000000000000000000000000000000008152600401610a3d9061303c565b73ffffffffffffffffffffffffffffffffffffffff821660009081526003602052604081208054839290610bcc9084906131eb565b90915550505050565b606981565b606781565b60005473ffffffffffffffffffffffffffffffffffffffff1681565b600a6020526000908152604090205481565b601260205281600052604060002081815481106107d357600080fd5b600681565b606681565b60096020526000908152604090205481565b60115481565b601e60209081526000928352604080842090915290825290205481565b606581565b601960205260009081526040902080546001820154600283015460038401546004850154600586015460069096015473ffffffffffffffffffffffffffffffffffffffff95861696959094169492939192909187565b600181565b600080610cd784601f42611fea565b9050610ce4858285612051565b95945050505050565b610cf5612068565b73ffffffffffffffffffffffffffffffffffffffff16610d13610edd565b73ffffffffffffffffffffffffffffffffffffffff1614610d60576040517f08c379a0000000000000000000000000000000000000000000000000000000008152600401610a3d90612f62565b60015460405160009173ffffffffffffffffffffffffffffffffffffffff16907f8be0079c531659141344cd1fd0a4f28419497f9722a3daafe3b4186f6b6457e0908390a3600180547fffffffffffffffffffffffff0000000000000000000000000000000000000000169055565b600d5481565b73ffffffffffffffffffffffffffffffffffffffff8416600090815260026020526040812054610e06908490613182565b73ffffffffffffffffffffffffffffffffffffffff861660009081526004602052604090205410801590610e3c575083600e5410155b8015610e4a5750600d548410155b15610e8a57610e5c338686868661206c565b3360008181526020808052604082208054600181018255908352912001829055909150610e8a908685611d1c565b949350505050565b606a81565b600760209081526000928352604080842090915290825290208054600182015460029092015490919083565b600981565b601d6020526000908152604090205460ff1681565b60015473ffffffffffffffffffffffffffffffffffffffff1690565b600e5481565b600281565b600c5481565b600581565b606881565b601c5481565b60086020526000908152604090208054600182015460029092015490919083565b60026020526000908152604090205481565b6000818152601960205260409020805473ffffffffffffffffffffffffffffffffffffffff163314610fab576040517f08c379a0000000000000000000000000000000000000000000000000000000008152600401610a3d90612f97565b80600401544211610fe8576040517f08c379a0000000000000000000000000000000000000000000000000000000008152600401610a3d90613005565b610ff181612449565b60018101546002820154610a5c91339173ffffffffffffffffffffffffffffffffffffffff90911690611aa6565b60105481565b601860205281600052604060002081815481106107d357600080fd5b606c81565b600481565b601f6020526000908152604090208054600182015460029092015490919083565b601a60205281600052604060002081815481106107d357600080fd5b600781565b601760205281600052604060002081815481106107d357600080fd5b60036020526000908152604090205481565b6000806110ca84601f42612722565b9050610ce485826000015485612051565b601460205281600052604060002081815481106107d357600080fd5b600061110582601f42611fea565b92915050565b601360205281600052604060002081815481106107d357600080fd5b61113033611f90565b611166576040517f08c379a0000000000000000000000000000000000000000000000000000000008152600401610a3d9061303c565b61116e611b64565b73ffffffffffffffffffffffffffffffffffffffff16635acf6903836040518263ffffffff1660e01b81526004016111a69190612cf4565b60206040518083038186803b1580156111be57600080fd5b505afa1580156111d2573d6000803e3d6000fd5b505050506040513d601f19601f820116820180604052508101906111f69190612c6d565b61122c576040517f08c379a0000000000000000000000000000000000000000000000000000000008152600401610a3d90612fce565b73ffffffffffffffffffffffffffffffffffffffff821660009081526003602052604081208054839290611261908490613182565b909155505073ffffffffffffffffffffffffffffffffffffffff82166000908152600360209081526040808320546002909252909120541015610a5c576040517f08c379a0000000000000000000000000000000000000000000000000000000008152600401610a3d90612e14565b6020805281600052604060002081815481106107d357600080fd5b60065481565b6112f9612068565b73ffffffffffffffffffffffffffffffffffffffff16611317610edd565b73ffffffffffffffffffffffffffffffffffffffff1614611364576040517f08c379a0000000000000000000000000000000000000000000000000000000008152600401610a3d90612f62565b73ffffffffffffffffffffffffffffffffffffffff81166113b1576040517f08c379a0000000000000000000000000000000000000000000000000000000008152600401610a3d90612e71565b60015460405173ffffffffffffffffffffffffffffffffffffffff8084169216907f8be0079c531659141344cd1fd0a4f28419497f9722a3daafe3b4186f6b6457e090600090a3600180547fffffffffffffffffffffffff00000000000000000000000000000000000000001673ffffffffffffffffffffffffffffffffffffffff92909216919091179055565b73ffffffffffffffffffffffffffffffffffffffff811660009081526007602090815260408083203384529091529020611479828261182a565b61148982823384600001546118e9565b60008082556001820181905560029091015550565b73ffffffffffffffffffffffffffffffffffffffff82166000908152601b602052604081208054600f5483916114d39161319a565b9050610ce4818561319a565b73ffffffffffffffffffffffffffffffffffffffff83166000908152601b6020526040812080548390811061153d577f4e487b7100000000000000000000000000000000000000000000000000000000600052603260045260246000fd5b906000526020600020015490506000601860008673ffffffffffffffffffffffffffffffffffffffff1673ffffffffffffffffffffffffffffffffffffffff16815260200190815260200160002083815481106115c3577f4e487b7100000000000000000000000000000000000000000000000000000000600052603260045260246000fd5b906000526020600020015490506000601054601360008873ffffffffffffffffffffffffffffffffffffffff1673ffffffffffffffffffffffffffffffffffffffff168152602001908152602001600020858154811061164c577f4e487b7100000000000000000000000000000000000000000000000000000000600052603260045260246000fd5b600091825260208083209091015473ffffffffffffffffffffffffffffffffffffffff8a168352600490915260409091205461168891906131ae565b611692919061319a565b73ffffffffffffffffffffffffffffffffffffffff8716600090815260146020526040812080549293509091869081106116f5577f4e487b7100000000000000000000000000000000000000000000000000000000600052603260045260246000fd5b906000526020600020015490506000601660008973ffffffffffffffffffffffffffffffffffffffff1673ffffffffffffffffffffffffffffffffffffffff168152602001908152602001600020868154811061177b577f4e487b7100000000000000000000000000000000000000000000000000000000600052603260045260246000fd5b906000526020600020015490506000601260008a73ffffffffffffffffffffffffffffffffffffffff1673ffffffffffffffffffffffffffffffffffffffff1681526020019081526020016000208781548110611801577f4e487b7100000000000000000000000000000000000000000000000000000000600052603260045260246000fd5b9060005260206000200154905061181d86868a878787876127b8565b9998505050505050505050565b6001810154801561091257600061184384600842612722565b835481549192509061185790829085612051565b8085556000906118689083906131eb565b73ffffffffffffffffffffffffffffffffffffffff87166000908152600960205260408120805492935083929091906118a2908490613182565b909155505073ffffffffffffffffffffffffffffffffffffffff8616600090815260026020526040812080548392906118dc908490613182565b9091555050505050505050565b6000610e108460020154426118fe91906131eb565b611908919061323b565b9050806102581015611946576040517f08c379a0000000000000000000000000000000000000000000000000000000008152600401610a3d90612f05565b61194e611b64565b73ffffffffffffffffffffffffffffffffffffffff1663d9caed128685856040518463ffffffff1660e01b815260040161198a93929190612d15565b602060405180830381600087803b1580156119a457600080fd5b505af11580156119b8573d6000803e3d6000fd5b505050506040513d601f19601f820116820180604052508101906119dc9190612c6d565b611a12576040517f08c379a0000000000000000000000000000000000000000000000000000000008152600401610a3d90612ece565b81846000016000828254611a2691906131eb565b909155505073ffffffffffffffffffffffffffffffffffffffff851660009081526009602052604081208054849290611a609084906131eb565b909155505073ffffffffffffffffffffffffffffffffffffffff851660009081526002602052604081208054849290611a9a9084906131eb565b90915550505050505050565b73ffffffffffffffffffffffffffffffffffffffff8084166000908152601e60209081526040808320938616835292815282822054601d9091529190205460ff16611aef612884565b73ffffffffffffffffffffffffffffffffffffffff1663a80167118284866040518463ffffffff1660e01b8152600401611b2b93929190613167565b600060405180830381600087803b158015611b4557600080fd5b505af1158015611b59573d6000803e3d6000fd5b505050505050505050565b600080546040517f3c9c8f9c00000000000000000000000000000000000000000000000000000000815273ffffffffffffffffffffffffffffffffffffffff90911690633c9c8f9c90611bbc906065906004016130d0565b60206040518083038186803b158015611bd457600080fd5b505afa158015611be8573d6000803e3d6000fd5b505050506040513d601f19601f82011682018060405250810190611c0c9190612b4e565b905090565b73ffffffffffffffffffffffffffffffffffffffff8084166000908152600760209081526040808320938616835292905220611c4d848261182a565b73ffffffffffffffffffffffffffffffffffffffff84166000908152600860205260409020546001820155611c84610e104261323b565b6002820155805482908290600090611c9d908490613182565b909155505073ffffffffffffffffffffffffffffffffffffffff841660009081526009602052604081208054849290611cd7908490613182565b909155505073ffffffffffffffffffffffffffffffffffffffff841660009081526002602052604081208054849290611d11908490613182565b909155505050505050565b6000611d26612884565b73ffffffffffffffffffffffffffffffffffffffff8086166000908152601e60209081526040808320938816835292815282822054601d909152919020549192509060ff168115611dfe576040517ff542808700000000000000000000000000000000000000000000000000000000815273ffffffffffffffffffffffffffffffffffffffff84169063f542808790611dc790849086908990600401613167565b600060405180830381600087803b158015611de157600080fd5b505af1158015611df5573d6000803e3d6000fd5b50505050611ede565b6040517f583d861600000000000000000000000000000000000000000000000000000000815273ffffffffffffffffffffffffffffffffffffffff84169063583d861690611e549084908a908990600401613136565b602060405180830381600087803b158015611e6e57600080fd5b505af1158015611e82573d6000803e3d6000fd5b505050506040513d601f19601f82011682018060405250810190611ea69190612ca5565b73ffffffffffffffffffffffffffffffffffffffff8088166000908152601e60209081526040808320938a1683529290522081905591505b505050505050565b600080546040517fd87fefd200000000000000000000000000000000000000000000000000000000815273ffffffffffffffffffffffffffffffffffffffff9091169063d87fefd290611f409060099086906004016130df565b60206040518083038186803b158015611f5857600080fd5b505afa158015611f6c573d6000803e3d6000fd5b505050506040513d601f19601f820116820180604052508101906111059190612c6d565b600080546040517fd87fefd200000000000000000000000000000000000000000000000000000000815273ffffffffffffffffffffffffffffffffffffffff9091169063d87fefd290611f409060039086906004016130df565b73ffffffffffffffffffffffffffffffffffffffff8316600090815260208390526040812060010154819061201f90846131eb565b73ffffffffffffffffffffffffffffffffffffffff86166000908152602086905260409020909150610ce490826128dc565b60008161205e84866131ae565b610e8a919061319a565b3390565b600080612079868661149e565b9050600061210e87601a60008a73ffffffffffffffffffffffffffffffffffffffff1673ffffffffffffffffffffffffffffffffffffffff16815260200190815260200160002084815481106120f8577f4e487b7100000000000000000000000000000000000000000000000000000000600052603260045260246000fd5b9060005260206000200154876108959190613182565b9050600064010000000061212287846131ae565b61212c919061319a565b905084811061243d5761213d611b64565b73ffffffffffffffffffffffffffffffffffffffff1663b3db428b8a8a896040518463ffffffff1660e01b815260040161217993929190612d15565b602060405180830381600087803b15801561219357600080fd5b505af11580156121a7573d6000803e3d6000fd5b505050506040513d601f19601f820116820180604052508101906121cb9190612c6d565b1561243d57600060026121de8389613182565b6121e8919061319a565b73ffffffffffffffffffffffffffffffffffffffff8a16600090815260026020526040812080549293508392909190612222908490613182565b909155505073ffffffffffffffffffffffffffffffffffffffff89166000908152601a60205260409020805482919086908110612288577f4e487b7100000000000000000000000000000000000000000000000000000000600052603260045260246000fd5b9060005260206000200160008282546122a19190613182565b909155508890506122b284896131ae565b6122be90610e106131ae565b6122c8919061319a565b73ffffffffffffffffffffffffffffffffffffffff8a16600090815260056020526040812080549091906122fd908490613182565b9091555050601c805495508590600061231583613202565b91905055506040518060e001604052808b73ffffffffffffffffffffffffffffffffffffffff1681526020018a73ffffffffffffffffffffffffffffffffffffffff16815260200188815260200183815260200189426123759190613182565b815260208082018b90526040918201869052600088815260198252828120845181547fffffffffffffffffffffffff000000000000000000000000000000000000000090811673ffffffffffffffffffffffffffffffffffffffff92831617835586850151600184018054909216908316179055858501516002830155606086015160038301556080860151600483015560a0860151600583015560c090950151600690910155928c168352601481528183206015909152912061243b9190868a612985565b505b50505095945050505050565b6001810154600582015473ffffffffffffffffffffffffffffffffffffffff9091169060009061247a90839061149e565b905060006002846003015485600201546124949190613182565b61249e919061319a565b73ffffffffffffffffffffffffffffffffffffffff84166000908152600260205260408120805492935083929091906124d89084906131eb565b909155505073ffffffffffffffffffffffffffffffffffffffff83166000908152601a6020526040902080548291908490811061253e577f4e487b7100000000000000000000000000000000000000000000000000000000600052603260045260246000fd5b90600052602060002001600082825461255791906131eb565b909155505073ffffffffffffffffffffffffffffffffffffffff831660009081526016602090815260408083206017909252909120600286015461259e9291908590612985565b73ffffffffffffffffffffffffffffffffffffffff8316600090815260026020908152604080832054600390925290912054118061269257506125df611b64565b845460038601546040517fd9caed1200000000000000000000000000000000000000000000000000000000815273ffffffffffffffffffffffffffffffffffffffff9384169363d9caed129361263e9389939290911691600401612d15565b602060405180830381600087803b15801561265857600080fd5b505af115801561266c573d6000803e3d6000fd5b505050506040513d601f19601f820116820180604052508101906126909190612c6d565b155b1561271c578354600385015460405173ffffffffffffffffffffffffffffffffffffffff928316928616917fbcab653cf73e12f7bb78aa625dccb002864f5de7de2518796fb5b82fd6e6ab05916126e99190613109565b60405180910390a38354600385015461271c91859173ffffffffffffffffffffffffffffffffffffffff90911690612b20565b50505050565b73ffffffffffffffffffffffffffffffffffffffff83166000908152602083815260408083206002808201546001830154918552838620546004865284872054600a875285882054600b9097529490962054600c54939661278b969295939490939291906127b8565b600282015560018101546000906127a290846131eb565b90506127ae82826128dc565b8255509392505050565b8660006127c588426131eb565b90506000600654826127d791906131ae565b90508688101580612805575084861015801561280557506127f888886131eb565b61280286886131eb565b10155b156128315761281481846131eb565b925082640100000000111561282c5764010000000092505b612877565b878711801561285a57508585118061285a575061284e85876131eb565b61285889896131eb565b115b15612877576128698184613182565b925083831115612877578392505b5050979650505050505050565b600080546040517f3c9c8f9c00000000000000000000000000000000000000000000000000000000815273ffffffffffffffffffffffffffffffffffffffff90911690633c9c8f9c90611bbc90606c906004016130d0565b6000806128eb610e108461323b565b90506128fe640100000000610e106131ae565b600285015485548391612910916131ae565b61291a91906131ae565b612924919061319a565b91506000612934610e108561319a565b9050801561297d5760005b8082111561297b5764010000000086600201548561295d91906131ae565b612967919061319a565b93508061297381613202565b91505061293f565b505b505092915050565b8354600f546000916129969161319a565b905060006129a484836131ae565b905060008585815481106129e1577f4e487b7100000000000000000000000000000000000000000000000000000000600052603260045260246000fd5b9060005260206000200154426129f791906131eb565b9050600081612a0684876131ae565b612a10919061319a565b9050612a1c8284613182565b612a2683836131ae565b848a8981548110612a60577f4e487b7100000000000000000000000000000000000000000000000000000000600052603260045260246000fd5b9060005260206000200154612a7591906131ae565b612a7f9190613182565b612a89919061319a565b888781548110612ac2577f4e487b7100000000000000000000000000000000000000000000000000000000600052603260045260246000fd5b906000526020600020018190555042878781548110612b0a577f4e487b7100000000000000000000000000000000000000000000000000000000600052603260045260246000fd5b6000918252602090912001555050505050505050565b610912838383611c11565b600060208284031215612b3c578081fd5b8135612b47816132ad565b9392505050565b600060208284031215612b5f578081fd5b8151612b47816132ad565b60008060408385031215612b7c578081fd5b8235612b87816132ad565b91506020830135612b97816132ad565b809150509250929050565b60008060408385031215612bb4578182fd5b8235612bbf816132ad565b946020939093013593505050565b600080600060608486031215612be1578081fd5b8335612bec816132ad565b95602085013595506040909401359392505050565b60008060008060808587031215612c16578081fd5b8435612c21816132ad565b966020860135965060408601359560600135945092505050565b60008060408385031215612c4d578182fd5b8235612c58816132ad565b9150602083013560ff81168114612b97578182fd5b600060208284031215612c7e578081fd5b81518015158114612b47578182fd5b600060208284031215612c9e578081fd5b5035919050565b600060208284031215612cb6578081fd5b5051919050565b600080600060608486031215612cd1578283fd5b833592506020840135612ce3816132ad565b929592945050506040919091013590565b73ffffffffffffffffffffffffffffffffffffffff91909116815260200190565b73ffffffffffffffffffffffffffffffffffffffff9384168152919092166020820152604081019190915260600190565b73ffffffffffffffffffffffffffffffffffffffff978816815295909616602086015260408501939093526060840191909152608083015260a082015260c081019190915260e00190565b73ffffffffffffffffffffffffffffffffffffffff929092168252602082015260400190565b6020808252602e908201527f43616c6c6572206e6f7420617574686f72697a656420746f2073657420696e6360408201527f656e74697665207472616e636865000000000000000000000000000000000000606082015260800190565b6020808252602e908201527f496e73756666696369656e74206361706974616c20746f206c656e642c20747260408201527f7920616761696e206c6174657221000000000000000000000000000000000000606082015260800190565b60208082526026908201527f4f776e61626c653a206e6577206f776e657220697320746865207a65726f206160408201527f6464726573730000000000000000000000000000000000000000000000000000606082015260800190565b60208082526016908201527f496e73756666696369656e74206c697175696469747900000000000000000000604082015260600190565b6020808252603f908201527f5472696564207769746864726177696e67206f7574736964652073756273637260408201527f697074696f6e2063616e63656c6c6174696f6e2074696d652077696e646f7700606082015260800190565b6020808252818101527f4f776e61626c653a2063616c6c6572206973206e6f7420746865206f776e6572604082015260600190565b60208082526012908201527f4e6f7420686f6c646572206f6620626f6e640000000000000000000000000000604082015260600190565b60208082526015908201527f4e6f7420616e20617070726f76656420746f6b656e0000000000000000000000604082015260600190565b60208082526016908201527f626f6e64206973207374696c6c20696d6d617475726500000000000000000000604082015260600190565b60208082526018908201527f4e6f7420616e20617070726f76656420626f72726f7765720000000000000000604082015260600190565b6020808252602d908201527f436f756c64206e6f74207472616e7366657220626f6e64206465706f7369742060408201527f746f6b656e20746f2066756e6400000000000000000000000000000000000000606082015260800190565b61ffff91909116815260200190565b61ffff92909216825273ffffffffffffffffffffffffffffffffffffffff16602082015260400190565b90815260200190565b9283526020830191909152604082015260600190565b60ff91909116815260200190565b60ff93909316835273ffffffffffffffffffffffffffffffffffffffff919091166020830152604082015260600190565b60ff9390931683526020830191909152604082015260600190565b600082198211156131955761319561324f565b500190565b6000826131a9576131a961327e565b500490565b6000817fffffffffffffffffffffffffffffffffffffffffffffffffffffffffffffffff04831182151516156131e6576131e661324f565b500290565b6000828210156131fd576131fd61324f565b500390565b60007fffffffffffffffffffffffffffffffffffffffffffffffffffffffffffffffff8214156132345761323461324f565b5060010190565b60008261324a5761324a61327e565b500690565b7f4e487b7100000000000000000000000000000000000000000000000000000000600052601160045260246000fd5b7f4e487b7100000000000000000000000000000000000000000000000000000000600052601260045260246000fd5b73ffffffffffffffffffffffffffffffffffffffff811681146132cf57600080fd5b5056fea264697066735822122029e4357cf93892b62054e47903801a63bd6e2a94dea8bca7ee6ac9861bad7a4e64736f6c63430008010033",
  "linkReferences": {},
  "deployedLinkReferences": {}
}