{
  "_format": "hh-sol-artifact-1",
  "contractName": "Lending",
  "sourceName": "contracts/Lending.sol",
  "abi": [
    {
      "inputs": [
        {
          "internalType": "address",
          "name": "_roles",
          "type": "address"
        }
      ],
      "stateMutability": "nonpayable",
      "type": "constructor"
    },
    {
      "anonymous": false,
      "inputs": [
        {
          "indexed": true,
          "internalType": "address",
          "name": "token",
          "type": "address"
        },
        {
          "indexed": true,
          "internalType": "address",
          "name": "holder",
          "type": "address"
        },
        {
          "indexed": false,
          "internalType": "uint256",
          "name": "value",
          "type": "uint256"
        }
      ],
      "name": "LiquidityWarning",
      "type": "event"
    },
    {
      "anonymous": false,
      "inputs": [
        {
          "indexed": true,
          "internalType": "address",
          "name": "previousOwner",
          "type": "address"
        },
        {
          "indexed": true,
          "internalType": "address",
          "name": "newOwner",
          "type": "address"
        }
      ],
      "name": "OwnershipTransferred",
      "type": "event"
    },
    {
      "inputs": [],
      "name": "ADMIN",
      "outputs": [
        {
          "internalType": "uint16",
          "name": "",
          "type": "uint16"
        }
      ],
      "stateMutability": "view",
      "type": "function"
    },
    {
      "inputs": [],
      "name": "AUTHORIZED_FUND_TRADER",
      "outputs": [
        {
          "internalType": "uint16",
          "name": "",
          "type": "uint16"
        }
      ],
      "stateMutability": "view",
      "type": "function"
    },
    {
      "inputs": [],
      "name": "BORROWER",
      "outputs": [
        {
          "internalType": "uint16",
          "name": "",
          "type": "uint16"
        }
      ],
      "stateMutability": "view",
      "type": "function"
    },
    {
      "inputs": [],
      "name": "FEE_CONTROLLER",
      "outputs": [
        {
          "internalType": "uint16",
          "name": "",
          "type": "uint16"
        }
      ],
      "stateMutability": "view",
      "type": "function"
    },
    {
      "inputs": [],
      "name": "FEE_SOURCE",
      "outputs": [
        {
          "internalType": "uint16",
          "name": "",
          "type": "uint16"
        }
      ],
      "stateMutability": "view",
      "type": "function"
    },
    {
      "inputs": [],
      "name": "FUND",
      "outputs": [
        {
          "internalType": "uint16",
          "name": "",
          "type": "uint16"
        }
      ],
      "stateMutability": "view",
      "type": "function"
    },
    {
      "inputs": [],
      "name": "INCENTIVE_DISTRIBUTION",
      "outputs": [
        {
          "internalType": "uint16",
          "name": "",
          "type": "uint16"
        }
      ],
      "stateMutability": "view",
      "type": "function"
    },
    {
      "inputs": [],
      "name": "INCENTIVE_REPORTER",
      "outputs": [
        {
          "internalType": "uint16",
          "name": "",
          "type": "uint16"
        }
      ],
      "stateMutability": "view",
      "type": "function"
    },
    {
      "inputs": [],
      "name": "LENDING",
      "outputs": [
        {
          "internalType": "uint16",
          "name": "",
          "type": "uint16"
        }
      ],
      "stateMutability": "view",
      "type": "function"
    },
    {
      "inputs": [],
      "name": "LIQUIDATOR",
      "outputs": [
        {
          "internalType": "uint16",
          "name": "",
          "type": "uint16"
        }
      ],
      "stateMutability": "view",
      "type": "function"
    },
    {
      "inputs": [],
      "name": "MARGIN_CALLER",
      "outputs": [
        {
          "internalType": "uint16",
          "name": "",
          "type": "uint16"
        }
      ],
      "stateMutability": "view",
      "type": "function"
    },
    {
      "inputs": [],
      "name": "MARGIN_TRADER",
      "outputs": [
        {
          "internalType": "uint16",
          "name": "",
          "type": "uint16"
        }
      ],
      "stateMutability": "view",
      "type": "function"
    },
    {
      "inputs": [],
      "name": "MARGIN_TRADING",
      "outputs": [
        {
          "internalType": "uint16",
          "name": "",
          "type": "uint16"
        }
      ],
      "stateMutability": "view",
      "type": "function"
    },
    {
      "inputs": [],
      "name": "PRICE_CONTROLLER",
      "outputs": [
        {
          "internalType": "uint16",
          "name": "",
          "type": "uint16"
        }
      ],
      "stateMutability": "view",
      "type": "function"
    },
    {
      "inputs": [],
      "name": "ROUTER",
      "outputs": [
        {
          "internalType": "uint16",
          "name": "",
          "type": "uint16"
        }
      ],
      "stateMutability": "view",
      "type": "function"
    },
    {
      "inputs": [],
      "name": "TOKEN_ACTIVATOR",
      "outputs": [
        {
          "internalType": "uint16",
          "name": "",
          "type": "uint16"
        }
      ],
      "stateMutability": "view",
      "type": "function"
    },
    {
      "inputs": [],
      "name": "WITHDRAWER",
      "outputs": [
        {
          "internalType": "uint16",
          "name": "",
          "type": "uint16"
        }
      ],
      "stateMutability": "view",
      "type": "function"
    },
    {
      "inputs": [
        {
          "internalType": "uint256",
          "name": "balance",
          "type": "uint256"
        },
        {
          "internalType": "address",
          "name": "token",
          "type": "address"
        },
        {
          "internalType": "uint256",
          "name": "yieldQuotientFP",
          "type": "uint256"
        }
      ],
      "name": "applyBorrowInterest",
      "outputs": [
        {
          "internalType": "uint256",
          "name": "",
          "type": "uint256"
        }
      ],
      "stateMutability": "nonpayable",
      "type": "function"
    },
    {
      "inputs": [
        {
          "internalType": "uint256",
          "name": "",
          "type": "uint256"
        }
      ],
      "name": "bonds",
      "outputs": [
        {
          "internalType": "address",
          "name": "holder",
          "type": "address"
        },
        {
          "internalType": "address",
          "name": "token",
          "type": "address"
        },
        {
          "internalType": "uint256",
          "name": "originalPrice",
          "type": "uint256"
        },
        {
          "internalType": "uint256",
          "name": "returnAmount",
          "type": "uint256"
        },
        {
          "internalType": "uint256",
          "name": "maturityTimestamp",
          "type": "uint256"
        },
        {
          "internalType": "uint256",
          "name": "runtime",
          "type": "uint256"
        },
        {
          "internalType": "uint256",
          "name": "yieldFP",
          "type": "uint256"
        }
      ],
      "stateMutability": "view",
      "type": "function"
    },
    {
      "inputs": [
        {
          "internalType": "address",
          "name": "",
          "type": "address"
        }
      ],
      "name": "borrowYieldAccumulators",
      "outputs": [
        {
          "internalType": "uint256",
          "name": "accumulatorFP",
          "type": "uint256"
        },
        {
          "internalType": "uint256",
          "name": "lastUpdated",
          "type": "uint256"
        },
        {
          "internalType": "uint256",
          "name": "hourlyYieldFP",
          "type": "uint256"
        }
      ],
      "stateMutability": "view",
      "type": "function"
    },
    {
      "inputs": [],
      "name": "borrowingMarkupFP",
      "outputs": [
        {
          "internalType": "uint256",
          "name": "",
          "type": "uint256"
        }
      ],
      "stateMutability": "view",
      "type": "function"
    },
    {
      "inputs": [
        {
          "internalType": "address",
          "name": "token",
          "type": "address"
        },
        {
          "internalType": "uint256",
          "name": "runtime",
          "type": "uint256"
        },
        {
          "internalType": "uint256",
          "name": "amount",
          "type": "uint256"
        },
        {
          "internalType": "uint256",
          "name": "minReturn",
          "type": "uint256"
        }
      ],
      "name": "buyBond",
      "outputs": [
        {
          "internalType": "uint256",
          "name": "bondIndex",
          "type": "uint256"
        }
      ],
      "stateMutability": "nonpayable",
      "type": "function"
    },
    {
      "inputs": [
        {
          "internalType": "address",
          "name": "token",
          "type": "address"
        },
        {
          "internalType": "uint256",
          "name": "amount",
          "type": "uint256"
        }
      ],
      "name": "buyHourlyBondSubscription",
      "outputs": [],
      "stateMutability": "nonpayable",
      "type": "function"
    },
    {
      "inputs": [
        {
          "internalType": "address",
          "name": "",
          "type": "address"
        },
        {
          "internalType": "uint256",
          "name": "",
          "type": "uint256"
        }
      ],
      "name": "buyingSpeed",
      "outputs": [
        {
          "internalType": "uint256",
          "name": "",
          "type": "uint256"
        }
      ],
      "stateMutability": "view",
      "type": "function"
    },
    {
      "inputs": [
        {
          "internalType": "address",
          "name": "token",
          "type": "address"
        }
      ],
      "name": "closeHourlyBondAccount",
      "outputs": [],
      "stateMutability": "nonpayable",
      "type": "function"
    },
    {
      "inputs": [],
      "name": "diffMaxMinRuntime",
      "outputs": [
        {
          "internalType": "uint256",
          "name": "",
          "type": "uint256"
        }
      ],
      "stateMutability": "view",
      "type": "function"
    },
    {
      "inputs": [
        {
          "internalType": "address",
          "name": "",
          "type": "address"
        },
        {
          "internalType": "address",
          "name": "",
          "type": "address"
        }
      ],
      "name": "hourlyBondAccounts",
      "outputs": [
        {
          "internalType": "uint256",
          "name": "amount",
          "type": "uint256"
        },
        {
          "internalType": "uint256",
          "name": "yieldQuotientFP",
          "type": "uint256"
        },
        {
          "internalType": "uint256",
          "name": "moduloHour",
          "type": "uint256"
        }
      ],
      "stateMutability": "view",
      "type": "function"
    },
    {
      "inputs": [
        {
          "internalType": "address",
          "name": "",
          "type": "address"
        }
      ],
      "name": "hourlyBondBuyingSpeed",
      "outputs": [
        {
          "internalType": "uint256",
          "name": "",
          "type": "uint256"
        }
      ],
      "stateMutability": "view",
      "type": "function"
    },
    {
      "inputs": [
        {
          "internalType": "address",
          "name": "",
          "type": "address"
        }
      ],
      "name": "hourlyBondWithdrawingSpeed",
      "outputs": [
        {
          "internalType": "uint256",
          "name": "",
          "type": "uint256"
        }
      ],
      "stateMutability": "view",
      "type": "function"
    },
    {
      "inputs": [
        {
          "internalType": "address",
          "name": "",
          "type": "address"
        }
      ],
      "name": "hourlyBondYieldAccumulators",
      "outputs": [
        {
          "internalType": "uint256",
          "name": "accumulatorFP",
          "type": "uint256"
        },
        {
          "internalType": "uint256",
          "name": "lastUpdated",
          "type": "uint256"
        },
        {
          "internalType": "uint256",
          "name": "hourlyYieldFP",
          "type": "uint256"
        }
      ],
      "stateMutability": "view",
      "type": "function"
    },
    {
      "inputs": [],
      "name": "hourlyMaxYield",
      "outputs": [
        {
          "internalType": "uint256",
          "name": "",
          "type": "uint256"
        }
      ],
      "stateMutability": "view",
      "type": "function"
    },
    {
      "inputs": [
        {
          "internalType": "address",
          "name": "",
          "type": "address"
        },
        {
          "internalType": "uint256",
          "name": "",
          "type": "uint256"
        }
      ],
      "name": "lastBought",
      "outputs": [
        {
          "internalType": "uint256",
          "name": "",
          "type": "uint256"
        }
      ],
      "stateMutability": "view",
      "type": "function"
    },
    {
      "inputs": [
        {
          "internalType": "address",
          "name": "",
          "type": "address"
        },
        {
          "internalType": "uint256",
          "name": "",
          "type": "uint256"
        }
      ],
      "name": "lastWithdrawn",
      "outputs": [
        {
          "internalType": "uint256",
          "name": "",
          "type": "uint256"
        }
      ],
      "stateMutability": "view",
      "type": "function"
    },
    {
      "inputs": [
        {
          "internalType": "address",
          "name": "",
          "type": "address"
        }
      ],
      "name": "lendingTarget",
      "outputs": [
        {
          "internalType": "uint256",
          "name": "",
          "type": "uint256"
        }
      ],
      "stateMutability": "view",
      "type": "function"
    },
    {
      "inputs": [
        {
          "internalType": "uint16",
          "name": "",
          "type": "uint16"
        }
      ],
      "name": "mainCharacterCache",
      "outputs": [
        {
          "internalType": "address",
          "name": "",
          "type": "address"
        }
      ],
      "stateMutability": "view",
      "type": "function"
    },
    {
      "inputs": [],
      "name": "maxRuntime",
      "outputs": [
        {
          "internalType": "uint256",
          "name": "",
          "type": "uint256"
        }
      ],
      "stateMutability": "view",
      "type": "function"
    },
    {
      "inputs": [
        {
          "internalType": "address",
          "name": "",
          "type": "address"
        },
        {
          "internalType": "uint256",
          "name": "",
          "type": "uint256"
        }
      ],
      "name": "maxYield",
      "outputs": [
        {
          "internalType": "uint256",
          "name": "",
          "type": "uint256"
        }
      ],
      "stateMutability": "view",
      "type": "function"
    },
    {
      "inputs": [],
      "name": "minRuntime",
      "outputs": [
        {
          "internalType": "uint256",
          "name": "",
          "type": "uint256"
        }
      ],
      "stateMutability": "view",
      "type": "function"
    },
    {
      "inputs": [],
      "name": "nextBondIndex",
      "outputs": [
        {
          "internalType": "uint256",
          "name": "",
          "type": "uint256"
        }
      ],
      "stateMutability": "view",
      "type": "function"
    },
    {
      "inputs": [],
      "name": "owner",
      "outputs": [
        {
          "internalType": "address",
          "name": "",
          "type": "address"
        }
      ],
      "stateMutability": "view",
      "type": "function"
    },
    {
      "inputs": [
        {
          "internalType": "address",
          "name": "token",
          "type": "address"
        },
        {
          "internalType": "uint256",
          "name": "amount",
          "type": "uint256"
        }
      ],
      "name": "payOff",
      "outputs": [],
      "stateMutability": "nonpayable",
      "type": "function"
    },
    {
      "inputs": [
        {
          "internalType": "address",
          "name": "token",
          "type": "address"
        },
        {
          "internalType": "uint256",
          "name": "amount",
          "type": "uint256"
        }
      ],
      "name": "registerBorrow",
      "outputs": [],
      "stateMutability": "nonpayable",
      "type": "function"
    },
    {
      "inputs": [],
      "name": "renounceOwnership",
      "outputs": [],
      "stateMutability": "nonpayable",
      "type": "function"
    },
    {
      "inputs": [
        {
          "internalType": "address",
          "name": "",
          "type": "address"
        },
        {
          "internalType": "uint16",
          "name": "",
          "type": "uint16"
        }
      ],
      "name": "roleCache",
      "outputs": [
        {
          "internalType": "bool",
          "name": "",
          "type": "bool"
        }
      ],
      "stateMutability": "view",
      "type": "function"
    },
    {
      "inputs": [],
      "name": "roles",
      "outputs": [
        {
          "internalType": "contract Roles",
          "name": "",
          "type": "address"
        }
      ],
      "stateMutability": "view",
      "type": "function"
    },
    {
      "inputs": [
        {
          "internalType": "address",
          "name": "",
          "type": "address"
        },
        {
          "internalType": "uint256",
          "name": "",
          "type": "uint256"
        }
      ],
      "name": "runtimeWeights",
      "outputs": [
        {
          "internalType": "uint256",
          "name": "",
          "type": "uint256"
        }
      ],
      "stateMutability": "view",
      "type": "function"
    },
    {
      "inputs": [
        {
          "internalType": "address",
          "name": "",
          "type": "address"
        }
      ],
      "name": "totalBorrowed",
      "outputs": [
        {
          "internalType": "uint256",
          "name": "",
          "type": "uint256"
        }
      ],
      "stateMutability": "view",
      "type": "function"
    },
    {
      "inputs": [
        {
          "internalType": "address",
          "name": "",
          "type": "address"
        }
      ],
      "name": "totalHourlyBond",
      "outputs": [
        {
          "internalType": "uint256",
          "name": "",
          "type": "uint256"
        }
      ],
      "stateMutability": "view",
      "type": "function"
    },
    {
      "inputs": [
        {
          "internalType": "address",
          "name": "",
          "type": "address"
        }
      ],
      "name": "totalHourlyYieldFP",
      "outputs": [
        {
          "internalType": "uint256",
          "name": "",
          "type": "uint256"
        }
      ],
      "stateMutability": "view",
      "type": "function"
    },
    {
      "inputs": [
        {
          "internalType": "address",
          "name": "",
          "type": "address"
        }
      ],
      "name": "totalLending",
      "outputs": [
        {
          "internalType": "uint256",
          "name": "",
          "type": "uint256"
        }
      ],
      "stateMutability": "view",
      "type": "function"
    },
    {
      "inputs": [
        {
          "internalType": "address",
          "name": "",
          "type": "address"
        },
        {
          "internalType": "uint256",
          "name": "",
          "type": "uint256"
        }
      ],
      "name": "totalLendingPerRuntime",
      "outputs": [
        {
          "internalType": "uint256",
          "name": "",
          "type": "uint256"
        }
      ],
      "stateMutability": "view",
      "type": "function"
    },
    {
      "inputs": [
        {
          "internalType": "address",
          "name": "newOwner",
          "type": "address"
        }
      ],
      "name": "transferOwnership",
      "outputs": [],
      "stateMutability": "nonpayable",
      "type": "function"
    },
    {
      "inputs": [
        {
          "internalType": "uint16",
          "name": "role",
          "type": "uint16"
        }
      ],
      "name": "updateMainCharacterCache",
      "outputs": [],
      "stateMutability": "nonpayable",
      "type": "function"
    },
    {
      "inputs": [
        {
          "internalType": "uint16",
          "name": "role",
          "type": "uint16"
        },
        {
          "internalType": "address",
          "name": "contr",
          "type": "address"
        }
      ],
      "name": "updateRoleCache",
      "outputs": [],
      "stateMutability": "nonpayable",
      "type": "function"
    },
    {
      "inputs": [
        {
          "internalType": "address",
          "name": "token",
          "type": "address"
        },
        {
          "internalType": "uint256",
          "name": "runtime",
          "type": "uint256"
        },
        {
          "internalType": "uint256",
          "name": "amount",
          "type": "uint256"
        }
      ],
      "name": "viewBondReturn",
      "outputs": [
        {
          "internalType": "uint256",
          "name": "",
          "type": "uint256"
        }
      ],
      "stateMutability": "view",
      "type": "function"
    },
    {
      "inputs": [
        {
          "internalType": "uint256",
          "name": "balance",
          "type": "uint256"
        },
        {
          "internalType": "address",
          "name": "token",
          "type": "address"
        },
        {
          "internalType": "uint256",
          "name": "yieldQuotientFP",
          "type": "uint256"
        }
      ],
      "name": "viewBorrowInterest",
      "outputs": [
        {
          "internalType": "uint256",
          "name": "",
          "type": "uint256"
        }
      ],
      "stateMutability": "view",
      "type": "function"
    },
    {
      "inputs": [
        {
          "internalType": "address",
          "name": "token",
          "type": "address"
        }
      ],
      "name": "viewBorrowingYield",
      "outputs": [
        {
          "internalType": "uint256",
          "name": "",
          "type": "uint256"
        }
      ],
      "stateMutability": "view",
      "type": "function"
    },
    {
      "inputs": [],
      "name": "weightTotal",
      "outputs": [
        {
          "internalType": "uint256",
          "name": "",
          "type": "uint256"
        }
      ],
      "stateMutability": "view",
      "type": "function"
    },
    {
      "inputs": [
        {
          "internalType": "uint256",
          "name": "bondId",
          "type": "uint256"
        }
      ],
      "name": "withdrawBond",
      "outputs": [],
      "stateMutability": "nonpayable",
      "type": "function"
    },
    {
      "inputs": [
        {
          "internalType": "address",
          "name": "token",
          "type": "address"
        },
        {
          "internalType": "uint256",
          "name": "amount",
          "type": "uint256"
        }
      ],
      "name": "withdrawHourlyBond",
      "outputs": [],
      "stateMutability": "nonpayable",
      "type": "function"
    },
    {
      "inputs": [
        {
          "internalType": "address",
          "name": "",
          "type": "address"
        },
        {
          "internalType": "uint256",
          "name": "",
          "type": "uint256"
        }
      ],
      "name": "withdrawingSpeed",
      "outputs": [
        {
          "internalType": "uint256",
          "name": "",
          "type": "uint256"
        }
      ],
      "stateMutability": "view",
      "type": "function"
    },
    {
      "inputs": [],
      "name": "yieldChangePerSecondFP",
      "outputs": [
        {
          "internalType": "uint256",
          "name": "",
          "type": "uint256"
        }
      ],
      "stateMutability": "view",
      "type": "function"
    },
    {
      "inputs": [
        {
          "internalType": "address",
          "name": "",
          "type": "address"
        },
        {
          "internalType": "uint256",
          "name": "",
          "type": "uint256"
        }
      ],
      "name": "yieldLastUpdated",
      "outputs": [
        {
          "internalType": "uint256",
          "name": "",
          "type": "uint256"
        }
      ],
      "stateMutability": "view",
      "type": "function"
    }
  ],
  "bytecode": "0x60806040523480156200001157600080fd5b5060405162003020380380620030208339810160408190526200003491620000b2565b600080546001600160a01b0319166001600160a01b03831617815562000059620000ae565b600380546001600160a01b0319166001600160a01b038316908117909155604051919250906000907f8be0079c531659141344cd1fd0a4f28419497f9722a3daafe3b4186f6b6457e0908290a35050620000e2565b3390565b600060208284031215620000c4578081fd5b81516001600160a01b0381168114620000db578182fd5b9392505050565b612f2e80620000f26000396000f3fe608060405234801561001057600080fd5b50600436106103c55760003560e01c806381ca6600116101ff578063c4f7d45d1161011a578063e695fa68116100ad578063ee0862bf1161007c578063ee0862bf14610763578063f11f979514610776578063f2fde38b1461077e578063f884614b14610791576103c5565b8063e695fa6814610717578063e69f89591461072a578063e7bde5c11461073d578063e84bfdf414610750576103c5565b8063d3dc14b2116100e9578063d3dc14b2146106d6578063d5d7ed7f146106e9578063dcaf8029146106f1578063e2e1ca2b14610704576103c5565b8063c4f7d45d146106a0578063c76139d0146106b3578063cacf8d45146106bb578063cd3b5dfb146106c3576103c5565b8063a9cc053611610192578063c1cea80711610161578063c1cea80714610652578063c34316c314610665578063c3daab9614610685578063c43a683d14610698576103c5565b8063a9cc05361461061c578063aa7e321d14610624578063b44816521461062c578063bfedc0bf1461063f576103c5565b80639229e73f116101ce5780639229e73f146105fc578063a0098d6914610604578063a8b151a11461060c578063a94c7c3414610614576103c5565b806381ca6600146105c257806383a04229146105ca57806383a49c7c146105ec5780638da5cb5b146105f4576103c5565b806332fe7b26116102ef5780635c275a39116102825780636cd5cd60116102515780636cd5cd601461058c578063715018a61461059f578063773bbb3b146105a75780637b8b4ee2146105af576103c5565b80635c275a39146105435780635f1c17c01461054b5780636694198414610571578063687680ed14610579576103c5565b806346b88796116102be57806346b887961461051857806348fb27b81461052057806349f7cff61461052857806358d51f911461053b576103c5565b806332fe7b26146104d5578063392f5f64146104dd5780633aa58f45146104f257806340fe56a914610505576103c5565b80631799f0c311610367578063247ae0a611610336578063247ae0a61461049f5780632a0acc6a146104b25780632a6a897b146104ba5780632fe94def146104cd576103c5565b80631799f0c31461045e5780631bc5d81d1461047157806320b155151461047957806320e8d8191461048c576103c5565b80630bba92b3116103a35780630bba92b3146104105780630f7c43dc1461042357806316de7a43146104385780631744a9b61461044b576103c5565b80630196c361146103ca578063065d570f146103f35780630b55054614610408575b600080fd5b6103dd6103d8366004612889565b6107a4565b6040516103ea9190612d89565b60405180910390f35b6103fb6107d5565b6040516103ea9190612d50565b6103dd6107da565b6103dd61041e3660046128b4565b6107e0565b610436610431366004612889565b6108ae565b005b610436610446366004612889565b6108f9565b6103dd6104593660046127de565b610a37565b6103dd61046c3660046127de565b610a49565b6103fb610a5b565b6103dd6104873660046127de565b610a60565b61043661049a36600461295c565b610a72565b6103dd6104ad366004612889565b610b83565b6103fb610b9f565b6104366104c8366004612889565b610ba4565b6103fb610c21565b6103fb610c26565b6104e5610c2b565b6040516103ea91906129c6565b6103dd6105003660046127de565b610c47565b6103dd610513366004612889565b610c59565b6103fb610c75565b6103fb610c7a565b6103dd6105363660046127de565b610c7f565b6103dd610c91565b6103fb610c97565b61055e610559366004612977565b610c9c565b6040516103ea9796959493929190612a18565b6103fb610cf2565b6103dd61058736600461298f565b610cf7565b61043661059a366004612942565b610d1c565b610436610e1b565b6103dd610efd565b6103dd6105bd3660046128e8565b610f03565b6103fb611342565b6105dd6105d836600461281d565b611347565b6040516103ea93929190612d92565b6103fb611373565b6104e5611378565b6103dd611394565b6103fb61139a565b6103dd61139f565b6103fb6113a5565b6103fb6113aa565b6103dd6113af565b6104e561063a366004612942565b6113b5565b6105dd61064d3660046127de565b6113dd565b6103dd6106603660046127de565b6113fe565b610678610673366004612855565b611410565b6040516103ea9190612a89565b610436610693366004612977565b611430565b6103dd6117a5565b6103dd6106ae366004612889565b6117ab565b6103fb6117c7565b6103fb6117cc565b6105dd6106d13660046127de565b6117d1565b6103dd6106e4366004612889565b6117f2565b6103fb61180e565b6103dd6106ff366004612889565b611813565b6103dd6107123660046127de565b61182f565b6103dd61072536600461298f565b611841565b6103dd610738366004612889565b611861565b6103dd61074b3660046127de565b61187d565b6103dd61075e366004612889565b611893565b610436610771366004612889565b6118af565b6103dd611a58565b61043661078c3660046127de565b611a5e565b61043661079f3660046127de565b611bac565b601860205281600052604060002081815481106107c057600080fd5b90600052602060002001600091509150505481565b600381565b60115481565b6000806107ed8585611c0b565b9050600061088886601c60008973ffffffffffffffffffffffffffffffffffffffff1673ffffffffffffffffffffffffffffffffffffffff168152602001908152602001600020848154811061086c577f4e487b7100000000000000000000000000000000000000000000000000000000600052603260045260246000fd5b9060005260206000200154866108829190612da8565b84611c4c565b905064010000000061089a8583612dd4565b6108a49190612dc0565b9695505050505050565b73ffffffffffffffffffffffffffffffffffffffff8216600090815260096020908152604080832033845290915290206108e88382611f97565b6108f483823385612056565b505050565b73ffffffffffffffffffffffffffffffffffffffff821660009081526004602052604090205461092a908290612da8565b73ffffffffffffffffffffffffffffffffffffffff831660009081526006602052604090205410610a335761095d612213565b73ffffffffffffffffffffffffffffffffffffffff166347e7ef2483836040518363ffffffff1660e01b8152600401610997929190612a63565b602060405180830381600087803b1580156109b157600080fd5b505af11580156109c5573d6000803e3d6000fd5b505050506040513d601f19601f820116820180604052508101906109e99190612922565b610a28576040517f08c379a0000000000000000000000000000000000000000000000000000000008152600401610a1f90612cf3565b60405180910390fd5b610a33823383612258565b5050565b60066020526000908152604090205481565b60076020526000908152604090205481565b600881565b600d6020526000908152604090205481565b6000546040517fd87fefd200000000000000000000000000000000000000000000000000000000815273ffffffffffffffffffffffffffffffffffffffff9091169063d87fefd290610aca9085908590600401612d5f565b60206040518083038186803b158015610ae257600080fd5b505afa158015610af6573d6000803e3d6000fd5b505050506040513d601f19601f82011682018060405250810190610b1a9190612922565b73ffffffffffffffffffffffffffffffffffffffff909116600090815260026020908152604080832061ffff90951683529390529190912080549115157fffffffffffffffffffffffffffffffffffffffffffffffffffffffffffffff00909216919091179055565b601760205281600052604060002081815481106107c057600080fd5b606b81565b610bad33612363565b610be3576040517f08c379a0000000000000000000000000000000000000000000000000000000008152600401610a1f90612cbc565b73ffffffffffffffffffffffffffffffffffffffff821660009081526005602052604081208054839290610c18908490612e11565b90915550505050565b606981565b606781565b60005473ffffffffffffffffffffffffffffffffffffffff1681565b600c6020526000908152604090205481565b601460205281600052604060002081815481106107c057600080fd5b600681565b606681565b600b6020526000908152604090205481565b60135481565b606581565b601b60205260009081526040902080546001820154600283015460038401546004850154600586015460069096015473ffffffffffffffffffffffffffffffffffffffff95861696959094169492939192909187565b600181565b600080610d0684601f4261239a565b9050610d13858285612401565b95945050505050565b6000546040517f3c9c8f9c00000000000000000000000000000000000000000000000000000000815273ffffffffffffffffffffffffffffffffffffffff90911690633c9c8f9c90610d72908490600401612d50565b60206040518083038186803b158015610d8a57600080fd5b505afa158015610d9e573d6000803e3d6000fd5b505050506040513d601f19601f82011682018060405250810190610dc29190612801565b61ffff91909116600090815260016020526040902080547fffffffffffffffffffffffff00000000000000000000000000000000000000001673ffffffffffffffffffffffffffffffffffffffff909216919091179055565b610e23612418565b73ffffffffffffffffffffffffffffffffffffffff16610e41611378565b73ffffffffffffffffffffffffffffffffffffffff1614610e8e576040517f08c379a0000000000000000000000000000000000000000000000000000000008152600401610a1f90612be2565b60035460405160009173ffffffffffffffffffffffffffffffffffffffff16907f8be0079c531659141344cd1fd0a4f28419497f9722a3daafe3b4186f6b6457e0908390a3600380547fffffffffffffffffffffffff0000000000000000000000000000000000000000169055565b600f5481565b73ffffffffffffffffffffffffffffffffffffffff8416600090815260046020526040812054610f34908490612da8565b73ffffffffffffffffffffffffffffffffffffffff861660009081526006602052604090205410801590610f6a57508360105410155b8015610f785750600f548410155b1561133a576000610f898686611c0b565b9050600061101e87601c60008a73ffffffffffffffffffffffffffffffffffffffff1673ffffffffffffffffffffffffffffffffffffffff1681526020019081526020016000208481548110611008577f4e487b7100000000000000000000000000000000000000000000000000000000600052603260045260246000fd5b9060005260206000200154876108829190612da8565b905060006401000000006110328784612dd4565b61103c9190612dc0565b90508481106113365761104d612213565b73ffffffffffffffffffffffffffffffffffffffff1663b3db428b338a896040518463ffffffff1660e01b8152600401611089939291906129e7565b602060405180830381600087803b1580156110a357600080fd5b505af11580156110b7573d6000803e3d6000fd5b505050506040513d601f19601f820116820180604052508101906110db9190612922565b1561133657600060026110ee8389612da8565b6110f89190612dc0565b73ffffffffffffffffffffffffffffffffffffffff8a16600090815260046020526040812080549293508392909190611132908490612da8565b909155505073ffffffffffffffffffffffffffffffffffffffff89166000908152601c60205260409020805482919086908110611198577f4e487b7100000000000000000000000000000000000000000000000000000000600052603260045260246000fd5b9060005260206000200160008282546111b19190612da8565b909155508890506111c28489612dd4565b6111ce90610e10612dd4565b6111d89190612dc0565b73ffffffffffffffffffffffffffffffffffffffff8a166000908152600760205260408120805490919061120d908490612da8565b9091555050601e805495508590600061122583612e28565b90915550506040805160e08101825233815273ffffffffffffffffffffffffffffffffffffffff8b166020820152908101889052606081018390526080810161126e8a42612da8565b815260208082018b905260409182018690526000888152601b8252828120845181547fffffffffffffffffffffffff000000000000000000000000000000000000000090811673ffffffffffffffffffffffffffffffffffffffff92831617835586850151600184018054909216908316179055858501516002830155606086015160038301556080860151600483015560a0860151600583015560c090950151600690910155928c16835260168152818320601790915291206113349190868a61241c565b505b5050505b949350505050565b606a81565b600960209081526000928352604080842090915290825290208054600182015460029092015490919083565b600981565b60035473ffffffffffffffffffffffffffffffffffffffff1690565b60105481565b600281565b600e5481565b600581565b606881565b601e5481565b60016020526000908152604090205473ffffffffffffffffffffffffffffffffffffffff1681565b600a6020526000908152604090208054600182015460029092015490919083565b60046020526000908152604090205481565b600260209081526000928352604080842090915290825290205460ff1681565b6000818152601b60205260409020805473ffffffffffffffffffffffffffffffffffffffff16331461148e576040517f08c379a0000000000000000000000000000000000000000000000000000000008152600401610a1f90612c17565b806004015442116114cb576040517f08c379a0000000000000000000000000000000000000000000000000000000008152600401610a1f90612c85565b6001810154600582015473ffffffffffffffffffffffffffffffffffffffff909116906000906114fc908390611c0b565b905060006002846003015485600201546115169190612da8565b6115209190612dc0565b73ffffffffffffffffffffffffffffffffffffffff841660009081526004602052604081208054929350839290919061155a908490612e11565b909155505073ffffffffffffffffffffffffffffffffffffffff83166000908152601c602052604090208054829190849081106115c0577f4e487b7100000000000000000000000000000000000000000000000000000000600052603260045260246000fd5b9060005260206000200160008282546115d99190612e11565b909155505073ffffffffffffffffffffffffffffffffffffffff8316600090815260186020908152604080832060199092529091206002860154611620929190859061241c565b73ffffffffffffffffffffffffffffffffffffffff831660009081526004602090815260408083205460059092529091205411806117145750611661612213565b845460038601546040517fd9caed1200000000000000000000000000000000000000000000000000000000815273ffffffffffffffffffffffffffffffffffffffff9384169363d9caed12936116c093899392909116916004016129e7565b602060405180830381600087803b1580156116da57600080fd5b505af11580156116ee573d6000803e3d6000fd5b505050506040513d601f19601f820116820180604052508101906117129190612922565b155b1561179e578354600385015460405173ffffffffffffffffffffffffffffffffffffffff928316928616917fbcab653cf73e12f7bb78aa625dccb002864f5de7de2518796fb5b82fd6e6ab059161176b9190612d89565b60405180910390a38354600385015461179e91859173ffffffffffffffffffffffffffffffffffffffff909116906125b7565b5050505050565b60125481565b601a60205281600052604060002081815481106107c057600080fd5b606c81565b600481565b601f6020526000908152604090208054600182015460029092015490919083565b601c60205281600052604060002081815481106107c057600080fd5b600781565b601960205281600052604060002081815481106107c057600080fd5b60056020526000908152604090205481565b60008061185084601f426125c2565b9050610d1385826000015485612401565b601660205281600052604060002081815481106107c057600080fd5b600061188b82601f4261239a565b90505b919050565b601560205281600052604060002081815481106107c057600080fd5b6118b833612363565b6118ee576040517f08c379a0000000000000000000000000000000000000000000000000000000008152600401610a1f90612cbc565b6118f6612213565b73ffffffffffffffffffffffffffffffffffffffff16635acf6903836040518263ffffffff1660e01b815260040161192e91906129c6565b60206040518083038186803b15801561194657600080fd5b505afa15801561195a573d6000803e3d6000fd5b505050506040513d601f19601f8201168201806040525081019061197e9190612922565b6119b4576040517f08c379a0000000000000000000000000000000000000000000000000000000008152600401610a1f90612c4e565b73ffffffffffffffffffffffffffffffffffffffff8216600090815260056020526040812080548392906119e9908490612da8565b909155505073ffffffffffffffffffffffffffffffffffffffff82166000908152600560209081526040808320546004909252909120541015610a33576040517f08c379a0000000000000000000000000000000000000000000000000000000008152600401610a1f90612a94565b60085481565b611a66612418565b73ffffffffffffffffffffffffffffffffffffffff16611a84611378565b73ffffffffffffffffffffffffffffffffffffffff1614611ad1576040517f08c379a0000000000000000000000000000000000000000000000000000000008152600401610a1f90612be2565b73ffffffffffffffffffffffffffffffffffffffff8116611b1e576040517f08c379a0000000000000000000000000000000000000000000000000000000008152600401610a1f90612af1565b60035460405173ffffffffffffffffffffffffffffffffffffffff8084169216907f8be0079c531659141344cd1fd0a4f28419497f9722a3daafe3b4186f6b6457e090600090a3600380547fffffffffffffffffffffffff00000000000000000000000000000000000000001673ffffffffffffffffffffffffffffffffffffffff92909216919091179055565b73ffffffffffffffffffffffffffffffffffffffff811660009081526009602090815260408083203384529091529020611be68282611f97565b611bf68282338460000154612056565b60008082556001820181905560029091015550565b73ffffffffffffffffffffffffffffffffffffffff82166000908152601d6020526040812080546011548391611c4091612dc0565b9050610d138185612dc0565b73ffffffffffffffffffffffffffffffffffffffff83166000908152601d60205260408120805483908110611caa577f4e487b7100000000000000000000000000000000000000000000000000000000600052603260045260246000fd5b906000526020600020015490506000601a60008673ffffffffffffffffffffffffffffffffffffffff1673ffffffffffffffffffffffffffffffffffffffff1681526020019081526020016000208381548110611d30577f4e487b7100000000000000000000000000000000000000000000000000000000600052603260045260246000fd5b906000526020600020015490506000601254601560008873ffffffffffffffffffffffffffffffffffffffff1673ffffffffffffffffffffffffffffffffffffffff1681526020019081526020016000208581548110611db9577f4e487b7100000000000000000000000000000000000000000000000000000000600052603260045260246000fd5b600091825260208083209091015473ffffffffffffffffffffffffffffffffffffffff8a1683526006909152604090912054611df59190612dd4565b611dff9190612dc0565b73ffffffffffffffffffffffffffffffffffffffff871660009081526016602052604081208054929350909186908110611e62577f4e487b7100000000000000000000000000000000000000000000000000000000600052603260045260246000fd5b906000526020600020015490506000601860008973ffffffffffffffffffffffffffffffffffffffff1673ffffffffffffffffffffffffffffffffffffffff1681526020019081526020016000208681548110611ee8577f4e487b7100000000000000000000000000000000000000000000000000000000600052603260045260246000fd5b906000526020600020015490506000601460008a73ffffffffffffffffffffffffffffffffffffffff1673ffffffffffffffffffffffffffffffffffffffff1681526020019081526020016000208781548110611f6e577f4e487b7100000000000000000000000000000000000000000000000000000000600052603260045260246000fd5b90600052602060002001549050611f8a86868a87878787612657565b9998505050505050505050565b600181015480156108f4576000611fb084600a426125c2565b8354815491925090611fc490829085612401565b808555600090611fd5908390612e11565b73ffffffffffffffffffffffffffffffffffffffff87166000908152600b602052604081208054929350839290919061200f908490612da8565b909155505073ffffffffffffffffffffffffffffffffffffffff861660009081526004602052604081208054839290612049908490612da8565b9091555050505050505050565b6000610e1084600201544261206b9190612e11565b6120759190612e61565b90508061025810156120b3576040517f08c379a0000000000000000000000000000000000000000000000000000000008152600401610a1f90612b85565b6120bb612213565b73ffffffffffffffffffffffffffffffffffffffff1663d9caed128685856040518463ffffffff1660e01b81526004016120f7939291906129e7565b602060405180830381600087803b15801561211157600080fd5b505af1158015612125573d6000803e3d6000fd5b505050506040513d601f19601f820116820180604052508101906121499190612922565b61217f576040517f08c379a0000000000000000000000000000000000000000000000000000000008152600401610a1f90612b4e565b818460000160008282546121939190612e11565b909155505073ffffffffffffffffffffffffffffffffffffffff85166000908152600b6020526040812080548492906121cd908490612e11565b909155505073ffffffffffffffffffffffffffffffffffffffff851660009081526004602052604081208054849290612207908490612e11565b90915550505050505050565b606560005260016020527f6def5a300acb6fcaa0dab3a41e9d6457b5147a641e641380f8cc4bf5308b16fe5473ffffffffffffffffffffffffffffffffffffffff1690565b73ffffffffffffffffffffffffffffffffffffffff80841660009081526009602090815260408083209386168352929052206122948482611f97565b73ffffffffffffffffffffffffffffffffffffffff84166000908152600a602052604090205460018201556122cb610e1042612e61565b60028201558054829082906000906122e4908490612da8565b909155505073ffffffffffffffffffffffffffffffffffffffff84166000908152600b60205260408120805484929061231e908490612da8565b909155505073ffffffffffffffffffffffffffffffffffffffff841660009081526004602052604081208054849290612358908490612da8565b909155505050505050565b73ffffffffffffffffffffffffffffffffffffffff1660009081526002602090815260408083206003845290915290205460ff1690565b73ffffffffffffffffffffffffffffffffffffffff831660009081526020839052604081206001015481906123cf9084612e11565b73ffffffffffffffffffffffffffffffffffffffff86166000908152602086905260409020909150610d139082612723565b60008161240e8486612dd4565b61133a9190612dc0565b3390565b835460115460009161242d91612dc0565b9050600061243b8483612dd4565b90506000858581548110612478577f4e487b7100000000000000000000000000000000000000000000000000000000600052603260045260246000fd5b90600052602060002001544261248e9190612e11565b905060008161249d8487612dd4565b6124a79190612dc0565b90506124b38284612da8565b6124bd8383612dd4565b848a89815481106124f7577f4e487b7100000000000000000000000000000000000000000000000000000000600052603260045260246000fd5b906000526020600020015461250c9190612dd4565b6125169190612da8565b6125209190612dc0565b888781548110612559577f4e487b7100000000000000000000000000000000000000000000000000000000600052603260045260246000fd5b9060005260206000200181905550428787815481106125a1577f4e487b7100000000000000000000000000000000000000000000000000000000600052603260045260246000fd5b6000918252602090912001555050505050505050565b6108f4838383612258565b73ffffffffffffffffffffffffffffffffffffffff83166000908152602083815260408083206002810154600182015460048552838620546006865284872054600c875285882054600d9097529490962054600e54939661262a969395929490939190612657565b600282015560018101546000906126419084612e11565b905061264d8282612723565b8255509392505050565b8660006126648842612e11565b90506000600854826126769190612dd4565b905086881015806126a457508486101580156126a457506126978888612e11565b6126a18688612e11565b10155b156126d0576126b38184612e11565b92508264010000000011156126cb5764010000000092505b612716565b87871180156126f95750858511806126f957506126ed8587612e11565b6126f78989612e11565b115b15612716576127088184612da8565b925083831115612716578392505b5050979650505050505050565b600080612732610e1084612e61565b9050612745640100000000610e10612dd4565b60028501548554839161275791612dd4565b6127619190612dd4565b61276b9190612dc0565b9150600061277b610e1085612dc0565b905080156127c45760005b808211156127c2576401000000008660020154856127a49190612dd4565b6127ae9190612dc0565b9350806127ba81612e28565b915050612786565b505b505092915050565b803561ffff8116811461188e57600080fd5b6000602082840312156127ef578081fd5b81356127fa81612ed3565b9392505050565b600060208284031215612812578081fd5b81516127fa81612ed3565b6000806040838503121561282f578081fd5b823561283a81612ed3565b9150602083013561284a81612ed3565b809150509250929050565b60008060408385031215612867578182fd5b823561287281612ed3565b9150612880602084016127cc565b90509250929050565b6000806040838503121561289b578182fd5b82356128a681612ed3565b946020939093013593505050565b6000806000606084860312156128c8578081fd5b83356128d381612ed3565b95602085013595506040909401359392505050565b600080600080608085870312156128fd578081fd5b843561290881612ed3565b966020860135965060408601359560600135945092505050565b600060208284031215612933578081fd5b815180151581146127fa578182fd5b600060208284031215612953578081fd5b6127fa826127cc565b6000806040838503121561296e578182fd5b61283a836127cc565b600060208284031215612988578081fd5b5035919050565b6000806000606084860312156129a3578283fd5b8335925060208401356129b581612ed3565b929592945050506040919091013590565b73ffffffffffffffffffffffffffffffffffffffff91909116815260200190565b73ffffffffffffffffffffffffffffffffffffffff9384168152919092166020820152604081019190915260600190565b73ffffffffffffffffffffffffffffffffffffffff978816815295909616602086015260408501939093526060840191909152608083015260a082015260c081019190915260e00190565b73ffffffffffffffffffffffffffffffffffffffff929092168252602082015260400190565b901515815260200190565b6020808252602e908201527f496e73756666696369656e74206361706974616c20746f206c656e642c20747260408201527f7920616761696e206c6174657221000000000000000000000000000000000000606082015260800190565b60208082526026908201527f4f776e61626c653a206e6577206f776e657220697320746865207a65726f206160408201527f6464726573730000000000000000000000000000000000000000000000000000606082015260800190565b60208082526016908201527f496e73756666696369656e74206c697175696469747900000000000000000000604082015260600190565b6020808252603f908201527f5472696564207769746864726177696e67206f7574736964652073756273637260408201527f697074696f6e2063616e63656c6c6174696f6e2074696d652077696e646f7700606082015260800190565b6020808252818101527f4f776e61626c653a2063616c6c6572206973206e6f7420746865206f776e6572604082015260600190565b60208082526012908201527f4e6f7420686f6c646572206f6620626f6e640000000000000000000000000000604082015260600190565b60208082526015908201527f4e6f7420616e20617070726f76656420746f6b656e0000000000000000000000604082015260600190565b60208082526016908201527f626f6e64206973207374696c6c20696d6d617475726500000000000000000000604082015260600190565b60208082526018908201527f4e6f7420616e20617070726f76656420626f72726f7765720000000000000000604082015260600190565b6020808252602d908201527f436f756c64206e6f74207472616e7366657220626f6e64206465706f7369742060408201527f746f6b656e20746f2066756e6400000000000000000000000000000000000000606082015260800190565b61ffff91909116815260200190565b61ffff92909216825273ffffffffffffffffffffffffffffffffffffffff16602082015260400190565b90815260200190565b9283526020830191909152604082015260600190565b60008219821115612dbb57612dbb612e75565b500190565b600082612dcf57612dcf612ea4565b500490565b6000817fffffffffffffffffffffffffffffffffffffffffffffffffffffffffffffffff0483118215151615612e0c57612e0c612e75565b500290565b600082821015612e2357612e23612e75565b500390565b60007fffffffffffffffffffffffffffffffffffffffffffffffffffffffffffffffff821415612e5a57612e5a612e75565b5060010190565b600082612e7057612e70612ea4565b500690565b7f4e487b7100000000000000000000000000000000000000000000000000000000600052601160045260246000fd5b7f4e487b7100000000000000000000000000000000000000000000000000000000600052601260045260246000fd5b73ffffffffffffffffffffffffffffffffffffffff81168114612ef557600080fd5b5056fea264697066735822122056e1920230547bc7d3349a51e0b066774dc6936220ef4f798f25fc4a7d94f53a64736f6c63430008010033",
  "linkReferences": {},
  "deployedLinkReferences": {}
}