{
  "_format": "hh-sol-artifact-1",
  "contractName": "Lending",
  "sourceName": "contracts/Lending.sol",
  "abi": [
    {
      "inputs": [
        {
          "internalType": "address",
          "name": "_roles",
          "type": "address"
        }
      ],
      "stateMutability": "nonpayable",
      "type": "constructor"
    },
    {
      "anonymous": false,
      "inputs": [
        {
          "indexed": true,
          "internalType": "address",
          "name": "token",
          "type": "address"
        },
        {
          "indexed": true,
          "internalType": "address",
          "name": "holder",
          "type": "address"
        },
        {
          "indexed": false,
          "internalType": "uint256",
          "name": "value",
          "type": "uint256"
        }
      ],
      "name": "LiquidityWarning",
      "type": "event"
    },
    {
      "anonymous": false,
      "inputs": [
        {
          "indexed": true,
          "internalType": "address",
          "name": "previousOwner",
          "type": "address"
        },
        {
          "indexed": true,
          "internalType": "address",
          "name": "newOwner",
          "type": "address"
        }
      ],
      "name": "OwnershipTransferred",
      "type": "event"
    },
    {
      "inputs": [
        {
          "internalType": "uint256",
          "name": "balance",
          "type": "uint256"
        },
        {
          "internalType": "address",
          "name": "token",
          "type": "address"
        },
        {
          "internalType": "uint256",
          "name": "yieldQuotientFP",
          "type": "uint256"
        }
      ],
      "name": "applyBorrowInterest",
      "outputs": [
        {
          "internalType": "uint256",
          "name": "",
          "type": "uint256"
        }
      ],
      "stateMutability": "nonpayable",
      "type": "function"
    },
    {
      "inputs": [
        {
          "internalType": "uint256",
          "name": "",
          "type": "uint256"
        }
      ],
      "name": "bonds",
      "outputs": [
        {
          "internalType": "address",
          "name": "holder",
          "type": "address"
        },
        {
          "internalType": "address",
          "name": "token",
          "type": "address"
        },
        {
          "internalType": "uint256",
          "name": "originalPrice",
          "type": "uint256"
        },
        {
          "internalType": "uint256",
          "name": "returnAmount",
          "type": "uint256"
        },
        {
          "internalType": "uint256",
          "name": "maturityTimestamp",
          "type": "uint256"
        },
        {
          "internalType": "uint256",
          "name": "runtime",
          "type": "uint256"
        },
        {
          "internalType": "uint256",
          "name": "yieldFP",
          "type": "uint256"
        }
      ],
      "stateMutability": "view",
      "type": "function"
    },
    {
      "inputs": [
        {
          "internalType": "address",
          "name": "",
          "type": "address"
        }
      ],
      "name": "borrowYieldAccumulators",
      "outputs": [
        {
          "internalType": "uint256",
          "name": "accumulatorFP",
          "type": "uint256"
        },
        {
          "internalType": "uint256",
          "name": "lastUpdated",
          "type": "uint256"
        },
        {
          "internalType": "uint256",
          "name": "hourlyYieldFP",
          "type": "uint256"
        }
      ],
      "stateMutability": "view",
      "type": "function"
    },
    {
      "inputs": [],
      "name": "borrowingMarkupFP",
      "outputs": [
        {
          "internalType": "uint256",
          "name": "",
          "type": "uint256"
        }
      ],
      "stateMutability": "view",
      "type": "function"
    },
    {
      "inputs": [
        {
          "internalType": "address",
          "name": "token",
          "type": "address"
        },
        {
          "internalType": "uint256",
          "name": "runtime",
          "type": "uint256"
        },
        {
          "internalType": "uint256",
          "name": "amount",
          "type": "uint256"
        },
        {
          "internalType": "uint256",
          "name": "minReturn",
          "type": "uint256"
        }
      ],
      "name": "buyBond",
      "outputs": [
        {
          "internalType": "uint256",
          "name": "bondIndex",
          "type": "uint256"
        }
      ],
      "stateMutability": "nonpayable",
      "type": "function"
    },
    {
      "inputs": [
        {
          "internalType": "address",
          "name": "token",
          "type": "address"
        },
        {
          "internalType": "uint256",
          "name": "amount",
          "type": "uint256"
        }
      ],
      "name": "buyHourlyBondSubscription",
      "outputs": [],
      "stateMutability": "nonpayable",
      "type": "function"
    },
    {
      "inputs": [
        {
          "internalType": "address",
          "name": "",
          "type": "address"
        },
        {
          "internalType": "uint256",
          "name": "",
          "type": "uint256"
        }
      ],
      "name": "buyingSpeed",
      "outputs": [
        {
          "internalType": "uint256",
          "name": "",
          "type": "uint256"
        }
      ],
      "stateMutability": "view",
      "type": "function"
    },
    {
      "inputs": [
        {
          "internalType": "address",
          "name": "token",
          "type": "address"
        }
      ],
      "name": "closeHourlyBondAccount",
      "outputs": [],
      "stateMutability": "nonpayable",
      "type": "function"
    },
    {
      "inputs": [],
      "name": "diffMaxMinRuntime",
      "outputs": [
        {
          "internalType": "uint256",
          "name": "",
          "type": "uint256"
        }
      ],
      "stateMutability": "view",
      "type": "function"
    },
    {
      "inputs": [
        {
          "internalType": "address",
          "name": "",
          "type": "address"
        },
        {
          "internalType": "address",
          "name": "",
          "type": "address"
        }
      ],
      "name": "hourlyBondAccounts",
      "outputs": [
        {
          "internalType": "uint256",
          "name": "amount",
          "type": "uint256"
        },
        {
          "internalType": "uint256",
          "name": "yieldQuotientFP",
          "type": "uint256"
        },
        {
          "internalType": "uint256",
          "name": "moduloHour",
          "type": "uint256"
        }
      ],
      "stateMutability": "view",
      "type": "function"
    },
    {
      "inputs": [
        {
          "internalType": "address",
          "name": "",
          "type": "address"
        }
      ],
      "name": "hourlyBondBuyingSpeed",
      "outputs": [
        {
          "internalType": "uint256",
          "name": "",
          "type": "uint256"
        }
      ],
      "stateMutability": "view",
      "type": "function"
    },
    {
      "inputs": [
        {
          "internalType": "address",
          "name": "",
          "type": "address"
        }
      ],
      "name": "hourlyBondWithdrawingSpeed",
      "outputs": [
        {
          "internalType": "uint256",
          "name": "",
          "type": "uint256"
        }
      ],
      "stateMutability": "view",
      "type": "function"
    },
    {
      "inputs": [
        {
          "internalType": "address",
          "name": "",
          "type": "address"
        }
      ],
      "name": "hourlyBondYieldAccumulators",
      "outputs": [
        {
          "internalType": "uint256",
          "name": "accumulatorFP",
          "type": "uint256"
        },
        {
          "internalType": "uint256",
          "name": "lastUpdated",
          "type": "uint256"
        },
        {
          "internalType": "uint256",
          "name": "hourlyYieldFP",
          "type": "uint256"
        }
      ],
      "stateMutability": "view",
      "type": "function"
    },
    {
      "inputs": [],
      "name": "hourlyMaxYield",
      "outputs": [
        {
          "internalType": "uint256",
          "name": "",
          "type": "uint256"
        }
      ],
      "stateMutability": "view",
      "type": "function"
    },
    {
      "inputs": [
        {
          "internalType": "address",
          "name": "",
          "type": "address"
        },
        {
          "internalType": "uint256",
          "name": "",
          "type": "uint256"
        }
      ],
      "name": "lastBought",
      "outputs": [
        {
          "internalType": "uint256",
          "name": "",
          "type": "uint256"
        }
      ],
      "stateMutability": "view",
      "type": "function"
    },
    {
      "inputs": [
        {
          "internalType": "address",
          "name": "",
          "type": "address"
        },
        {
          "internalType": "uint256",
          "name": "",
          "type": "uint256"
        }
      ],
      "name": "lastWithdrawn",
      "outputs": [
        {
          "internalType": "uint256",
          "name": "",
          "type": "uint256"
        }
      ],
      "stateMutability": "view",
      "type": "function"
    },
    {
      "inputs": [
        {
          "internalType": "address",
          "name": "",
          "type": "address"
        }
      ],
      "name": "lendingTarget",
      "outputs": [
        {
          "internalType": "uint256",
          "name": "",
          "type": "uint256"
        }
      ],
      "stateMutability": "view",
      "type": "function"
    },
    {
      "inputs": [],
      "name": "maxRuntime",
      "outputs": [
        {
          "internalType": "uint256",
          "name": "",
          "type": "uint256"
        }
      ],
      "stateMutability": "view",
      "type": "function"
    },
    {
      "inputs": [
        {
          "internalType": "address",
          "name": "",
          "type": "address"
        },
        {
          "internalType": "uint256",
          "name": "",
          "type": "uint256"
        }
      ],
      "name": "maxYield",
      "outputs": [
        {
          "internalType": "uint256",
          "name": "",
          "type": "uint256"
        }
      ],
      "stateMutability": "view",
      "type": "function"
    },
    {
      "inputs": [],
      "name": "minRuntime",
      "outputs": [
        {
          "internalType": "uint256",
          "name": "",
          "type": "uint256"
        }
      ],
      "stateMutability": "view",
      "type": "function"
    },
    {
      "inputs": [],
      "name": "nextBondIndex",
      "outputs": [
        {
          "internalType": "uint256",
          "name": "",
          "type": "uint256"
        }
      ],
      "stateMutability": "view",
      "type": "function"
    },
    {
      "inputs": [],
      "name": "owner",
      "outputs": [
        {
          "internalType": "address",
          "name": "",
          "type": "address"
        }
      ],
      "stateMutability": "view",
      "type": "function"
    },
    {
      "inputs": [
        {
          "internalType": "address",
          "name": "token",
          "type": "address"
        },
        {
          "internalType": "uint256",
          "name": "amount",
          "type": "uint256"
        }
      ],
      "name": "payOff",
      "outputs": [],
      "stateMutability": "nonpayable",
      "type": "function"
    },
    {
      "inputs": [
        {
          "internalType": "address",
          "name": "token",
          "type": "address"
        },
        {
          "internalType": "uint256",
          "name": "amount",
          "type": "uint256"
        }
      ],
      "name": "registerBorrow",
      "outputs": [],
      "stateMutability": "nonpayable",
      "type": "function"
    },
    {
      "inputs": [],
      "name": "renounceOwnership",
      "outputs": [],
      "stateMutability": "nonpayable",
      "type": "function"
    },
    {
      "inputs": [],
      "name": "roles",
      "outputs": [
        {
          "internalType": "contract Roles",
          "name": "",
          "type": "address"
        }
      ],
      "stateMutability": "view",
      "type": "function"
    },
    {
      "inputs": [
        {
          "internalType": "address",
          "name": "",
          "type": "address"
        },
        {
          "internalType": "uint256",
          "name": "",
          "type": "uint256"
        }
      ],
      "name": "runtimeWeights",
      "outputs": [
        {
          "internalType": "uint256",
          "name": "",
          "type": "uint256"
        }
      ],
      "stateMutability": "view",
      "type": "function"
    },
    {
      "inputs": [
        {
          "internalType": "address",
          "name": "",
          "type": "address"
        }
      ],
      "name": "totalBorrowed",
      "outputs": [
        {
          "internalType": "uint256",
          "name": "",
          "type": "uint256"
        }
      ],
      "stateMutability": "view",
      "type": "function"
    },
    {
      "inputs": [
        {
          "internalType": "address",
          "name": "",
          "type": "address"
        }
      ],
      "name": "totalHourlyBond",
      "outputs": [
        {
          "internalType": "uint256",
          "name": "",
          "type": "uint256"
        }
      ],
      "stateMutability": "view",
      "type": "function"
    },
    {
      "inputs": [
        {
          "internalType": "address",
          "name": "",
          "type": "address"
        }
      ],
      "name": "totalHourlyYieldFP",
      "outputs": [
        {
          "internalType": "uint256",
          "name": "",
          "type": "uint256"
        }
      ],
      "stateMutability": "view",
      "type": "function"
    },
    {
      "inputs": [
        {
          "internalType": "address",
          "name": "",
          "type": "address"
        }
      ],
      "name": "totalLending",
      "outputs": [
        {
          "internalType": "uint256",
          "name": "",
          "type": "uint256"
        }
      ],
      "stateMutability": "view",
      "type": "function"
    },
    {
      "inputs": [
        {
          "internalType": "address",
          "name": "",
          "type": "address"
        },
        {
          "internalType": "uint256",
          "name": "",
          "type": "uint256"
        }
      ],
      "name": "totalLendingPerRuntime",
      "outputs": [
        {
          "internalType": "uint256",
          "name": "",
          "type": "uint256"
        }
      ],
      "stateMutability": "view",
      "type": "function"
    },
    {
      "inputs": [
        {
          "internalType": "address",
          "name": "newOwner",
          "type": "address"
        }
      ],
      "name": "transferOwnership",
      "outputs": [],
      "stateMutability": "nonpayable",
      "type": "function"
    },
    {
      "inputs": [
        {
          "internalType": "address",
          "name": "token",
          "type": "address"
        },
        {
          "internalType": "uint256",
          "name": "runtime",
          "type": "uint256"
        },
        {
          "internalType": "uint256",
          "name": "amount",
          "type": "uint256"
        }
      ],
      "name": "viewBondReturn",
      "outputs": [
        {
          "internalType": "uint256",
          "name": "",
          "type": "uint256"
        }
      ],
      "stateMutability": "view",
      "type": "function"
    },
    {
      "inputs": [
        {
          "internalType": "uint256",
          "name": "balance",
          "type": "uint256"
        },
        {
          "internalType": "address",
          "name": "token",
          "type": "address"
        },
        {
          "internalType": "uint256",
          "name": "yieldQuotientFP",
          "type": "uint256"
        }
      ],
      "name": "viewBorrowInterest",
      "outputs": [
        {
          "internalType": "uint256",
          "name": "",
          "type": "uint256"
        }
      ],
      "stateMutability": "view",
      "type": "function"
    },
    {
      "inputs": [
        {
          "internalType": "address",
          "name": "token",
          "type": "address"
        }
      ],
      "name": "viewBorrowingYield",
      "outputs": [
        {
          "internalType": "uint256",
          "name": "",
          "type": "uint256"
        }
      ],
      "stateMutability": "view",
      "type": "function"
    },
    {
      "inputs": [],
      "name": "weightTotal",
      "outputs": [
        {
          "internalType": "uint256",
          "name": "",
          "type": "uint256"
        }
      ],
      "stateMutability": "view",
      "type": "function"
    },
    {
      "inputs": [
        {
          "internalType": "uint256",
          "name": "bondId",
          "type": "uint256"
        }
      ],
      "name": "withdrawBond",
      "outputs": [],
      "stateMutability": "nonpayable",
      "type": "function"
    },
    {
      "inputs": [
        {
          "internalType": "address",
          "name": "token",
          "type": "address"
        },
        {
          "internalType": "uint256",
          "name": "amount",
          "type": "uint256"
        }
      ],
      "name": "withdrawHourlyBond",
      "outputs": [],
      "stateMutability": "nonpayable",
      "type": "function"
    },
    {
      "inputs": [
        {
          "internalType": "address",
          "name": "",
          "type": "address"
        },
        {
          "internalType": "uint256",
          "name": "",
          "type": "uint256"
        }
      ],
      "name": "withdrawingSpeed",
      "outputs": [
        {
          "internalType": "uint256",
          "name": "",
          "type": "uint256"
        }
      ],
      "stateMutability": "view",
      "type": "function"
    },
    {
      "inputs": [],
      "name": "yieldChangePerSecondFP",
      "outputs": [
        {
          "internalType": "uint256",
          "name": "",
          "type": "uint256"
        }
      ],
      "stateMutability": "view",
      "type": "function"
    },
    {
      "inputs": [
        {
          "internalType": "address",
          "name": "",
          "type": "address"
        },
        {
          "internalType": "uint256",
          "name": "",
          "type": "uint256"
        }
      ],
      "name": "yieldLastUpdated",
      "outputs": [
        {
          "internalType": "uint256",
          "name": "",
          "type": "uint256"
        }
      ],
      "stateMutability": "view",
      "type": "function"
    }
  ],
  "bytecode": "0x60806040523480156200001157600080fd5b5060405162003f4038038062003f40833981810160405281019062000037919062000150565b80806000806101000a81548173ffffffffffffffffffffffffffffffffffffffff021916908373ffffffffffffffffffffffffffffffffffffffff1602179055505060006200008b6200013160201b60201c565b905080600160006101000a81548173ffffffffffffffffffffffffffffffffffffffff021916908373ffffffffffffffffffffffffffffffffffffffff1602179055508073ffffffffffffffffffffffffffffffffffffffff16600073ffffffffffffffffffffffffffffffffffffffff167f8be0079c531659141344cd1fd0a4f28419497f9722a3daafe3b4186f6b6457e060405160405180910390a35050620001ca565b600033905090565b6000815190506200014a81620001b0565b92915050565b6000602082840312156200016357600080fd5b6000620001738482850162000139565b91505092915050565b6000620001898262000190565b9050919050565b600073ffffffffffffffffffffffffffffffffffffffff82169050919050565b620001bb816200017c565b8114620001c757600080fd5b50565b613d6680620001da6000396000f3fe608060405234801561001057600080fd5b506004361061025e5760003560e01c80638da5cb5b11610146578063d3dc14b2116100c3578063e7bde5c111610087578063e7bde5c114610817578063e84bfdf414610847578063ee0862bf14610877578063f11f979514610893578063f2fde38b146108b1578063f884614b146108cd5761025e565b8063d3dc14b214610727578063dcaf802914610757578063e2e1ca2b14610787578063e695fa68146107b7578063e69f8959146107e75761025e565b8063c1cea8071161010a578063c1cea8071461065b578063c3daab961461068b578063c43a683d146106a7578063c4f7d45d146106c5578063cd3b5dfb146106f55761025e565b80638da5cb5b146105b15780639229e73f146105cf578063a8b151a1146105ed578063aa7e321d1461060b578063bfedc0bf146106295761025e565b8063392f5f64116101df5780635f1c17c0116101a35780635f1c17c0146104c1578063687680ed146104f7578063715018a614610527578063773bbb3b146105315780637b8b4ee21461054f57806383a042291461057f5761025e565b8063392f5f64146103f55780633aa58f451461041357806340fe56a91461044357806349f7cff61461047357806358d51f91146104a35761025e565b80631744a9b6116102265780631744a9b6146103195780631799f0c31461034957806320b1551514610379578063247ae0a6146103a95780632a6a897b146103d95761025e565b80630196c361146102635780630b550546146102935780630bba92b3146102b15780630f7c43dc146102e157806316de7a43146102fd575b600080fd5b61027d6004803603810190610278919061319b565b6108e9565b60405161028a919061375c565b60405180910390f35b61029b61091a565b6040516102a8919061375c565b60405180910390f35b6102cb60048036038101906102c691906131d7565b610920565b6040516102d8919061375c565b60405180910390f35b6102fb60048036038101906102f6919061319b565b6109f1565b005b6103176004803603810190610312919061319b565b610a8c565b005b610333600480360381019061032e919061310d565b610bff565b604051610340919061375c565b60405180910390f35b610363600480360381019061035e919061310d565b610c17565b604051610370919061375c565b60405180910390f35b610393600480360381019061038e919061310d565b610c2f565b6040516103a0919061375c565b60405180910390f35b6103c360048036038101906103be919061319b565b610c47565b6040516103d0919061375c565b60405180910390f35b6103f360048036038101906103ee919061319b565b610c78565b005b6103fd610d1a565b60405161040a91906135e6565b60405180910390f35b61042d6004803603810190610428919061310d565b610d3e565b60405161043a919061375c565b60405180910390f35b61045d6004803603810190610458919061319b565b610d56565b60405161046a919061375c565b60405180910390f35b61048d6004803603810190610488919061310d565b610d87565b60405161049a919061375c565b60405180910390f35b6104ab610d9f565b6040516104b8919061375c565b60405180910390f35b6104db60048036038101906104d691906132b2565b610da5565b6040516104ee9796959493929190613525565b60405180910390f35b610511600480360381019061050c91906132db565b610e27565b60405161051e919061375c565b60405180910390f35b61052f610e4d565b005b610539610f8a565b604051610546919061375c565b60405180910390f35b61056960048036038101906105649190613226565b610f90565b604051610576919061375c565b60405180910390f35b6105996004803603810190610594919061315f565b611522565b6040516105a893929190613777565b60405180910390f35b6105b9611559565b6040516105c691906134d3565b60405180910390f35b6105d7611583565b6040516105e4919061375c565b60405180910390f35b6105f5611589565b604051610602919061375c565b60405180910390f35b61061361158f565b604051610620919061375c565b60405180910390f35b610643600480360381019061063e919061310d565b611595565b60405161065293929190613777565b60405180910390f35b6106756004803603810190610670919061310d565b6115bf565b604051610682919061375c565b60405180910390f35b6106a560048036038101906106a091906132b2565b6115d7565b005b6106af611ab3565b6040516106bc919061375c565b60405180910390f35b6106df60048036038101906106da919061319b565b611ab9565b6040516106ec919061375c565b60405180910390f35b61070f600480360381019061070a919061310d565b611aea565b60405161071e93929190613777565b60405180910390f35b610741600480360381019061073c919061319b565b611b14565b60405161074e919061375c565b60405180910390f35b610771600480360381019061076c919061319b565b611b45565b60405161077e919061375c565b60405180910390f35b6107a1600480360381019061079c919061310d565b611b76565b6040516107ae919061375c565b60405180910390f35b6107d160048036038101906107cc91906132db565b611b8e565b6040516107de919061375c565b60405180910390f35b61080160048036038101906107fc919061319b565b611bb8565b60405161080e919061375c565b60405180910390f35b610831600480360381019061082c919061310d565b611be9565b60405161083e919061375c565b60405180910390f35b610861600480360381019061085c919061319b565b611bfe565b60405161086e919061375c565b60405180910390f35b610891600480360381019061088c919061319b565b611c2f565b005b61089b611e61565b6040516108a8919061375c565b60405180910390f35b6108cb60048036038101906108c6919061310d565b611e67565b005b6108e760048036038101906108e2919061310d565b612013565b005b6016602052816000526040600020818154811061090557600080fd5b90600052602060002001600091509150505481565b600f5481565b60008061092d85856120cf565b905060006109c886601a60008973ffffffffffffffffffffffffffffffffffffffff1673ffffffffffffffffffffffffffffffffffffffff16815260200190815260200160002084815481106109ac577f4e487b7100000000000000000000000000000000000000000000000000000000600052603260045260246000fd5b9060005260206000200154866109c291906137bf565b8461213f565b905064010000000084826109dc9190613846565b6109e69190613815565b925050509392505050565b6000600760008473ffffffffffffffffffffffffffffffffffffffff1673ffffffffffffffffffffffffffffffffffffffff16815260200190815260200160002060003373ffffffffffffffffffffffffffffffffffffffff1673ffffffffffffffffffffffffffffffffffffffff1681526020019081526020016000209050610a7b83826124d7565b610a87838233856125e6565b505050565b80600260008473ffffffffffffffffffffffffffffffffffffffff1673ffffffffffffffffffffffffffffffffffffffff16815260200190815260200160002054610ad791906137bf565b600460008473ffffffffffffffffffffffffffffffffffffffff1673ffffffffffffffffffffffffffffffffffffffff1681526020019081526020016000205410610bfb57610b246127ef565b73ffffffffffffffffffffffffffffffffffffffff166347e7ef2483836040518363ffffffff1660e01b8152600401610b5e9291906135bd565b602060405180830381600087803b158015610b7857600080fd5b505af1158015610b8c573d6000803e3d6000fd5b505050506040513d601f19601f82011682018060405250810190610bb09190613289565b610bef576040517f08c379a0000000000000000000000000000000000000000000000000000000008152600401610be69061373c565b60405180910390fd5b610bfa8233836128a1565b5b5050565b60046020528060005260406000206000915090505481565b60056020528060005260406000206000915090505481565b600b6020528060005260406000206000915090505481565b60156020528160005260406000208181548110610c6357600080fd5b90600052602060002001600091509150505481565b610c8133612a59565b610cc0576040517f08c379a0000000000000000000000000000000000000000000000000000000008152600401610cb79061371c565b60405180910390fd5b80600360008473ffffffffffffffffffffffffffffffffffffffff1673ffffffffffffffffffffffffffffffffffffffff1681526020019081526020016000206000828254610d0f91906138a0565b925050819055505050565b60008054906101000a900473ffffffffffffffffffffffffffffffffffffffff1681565b600a6020528060005260406000206000915090505481565b60126020528160005260406000208181548110610d7257600080fd5b90600052602060002001600091509150505481565b60096020528060005260406000206000915090505481565b60115481565b60196020528060005260406000206000915090508060000160009054906101000a900473ffffffffffffffffffffffffffffffffffffffff16908060010160009054906101000a900473ffffffffffffffffffffffffffffffffffffffff16908060020154908060030154908060040154908060050154908060060154905087565b600080610e3684601d42612b0f565b9050610e43858285612bb2565b9150509392505050565b610e55612bd4565b73ffffffffffffffffffffffffffffffffffffffff16610e73611559565b73ffffffffffffffffffffffffffffffffffffffff1614610ec9576040517f08c379a0000000000000000000000000000000000000000000000000000000008152600401610ec09061369c565b60405180910390fd5b600073ffffffffffffffffffffffffffffffffffffffff16600160009054906101000a900473ffffffffffffffffffffffffffffffffffffffff1673ffffffffffffffffffffffffffffffffffffffff167f8be0079c531659141344cd1fd0a4f28419497f9722a3daafe3b4186f6b6457e060405160405180910390a36000600160006101000a81548173ffffffffffffffffffffffffffffffffffffffff021916908373ffffffffffffffffffffffffffffffffffffffff160217905550565b600d5481565b600082600260008773ffffffffffffffffffffffffffffffffffffffff1673ffffffffffffffffffffffffffffffffffffffff16815260200190815260200160002054610fdd91906137bf565b600460008773ffffffffffffffffffffffffffffffffffffffff1673ffffffffffffffffffffffffffffffffffffffff168152602001908152602001600020541015801561102d575083600e5410155b801561103b5750600d548410155b1561151a57600061104c86866120cf565b905060006110e787601a60008a73ffffffffffffffffffffffffffffffffffffffff1673ffffffffffffffffffffffffffffffffffffffff16815260200190815260200160002084815481106110cb577f4e487b7100000000000000000000000000000000000000000000000000000000600052603260045260246000fd5b9060005260206000200154876110e191906137bf565b8461213f565b9050600064010000000086836110fd9190613846565b6111079190613815565b9050848110611516576111186127ef565b73ffffffffffffffffffffffffffffffffffffffff1663b3db428b338a896040518463ffffffff1660e01b8152600401611154939291906134ee565b602060405180830381600087803b15801561116e57600080fd5b505af1158015611182573d6000803e3d6000fd5b505050506040513d601f19601f820116820180604052508101906111a69190613289565b15611515576000600282886111bb91906137bf565b6111c59190613815565b905080600260008b73ffffffffffffffffffffffffffffffffffffffff1673ffffffffffffffffffffffffffffffffffffffff168152602001908152602001600020600082825461121691906137bf565b9250508190555080601a60008b73ffffffffffffffffffffffffffffffffffffffff1673ffffffffffffffffffffffffffffffffffffffff1681526020019081526020016000208581548110611295577f4e487b7100000000000000000000000000000000000000000000000000000000600052603260045260246000fd5b9060005260206000200160008282546112ae91906137bf565b9250508190555087610e1084896112c59190613846565b6112cf9190613846565b6112d99190613815565b600560008b73ffffffffffffffffffffffffffffffffffffffff1673ffffffffffffffffffffffffffffffffffffffff168152602001908152602001600020600082825461132791906137bf565b92505081905550601c549450601c60008154809291906113469061398a565b91905055506040518060e001604052803373ffffffffffffffffffffffffffffffffffffffff1681526020018a73ffffffffffffffffffffffffffffffffffffffff16815260200188815260200183815260200189426113a691906137bf565b8152602001898152602001848152506019600087815260200190815260200160002060008201518160000160006101000a81548173ffffffffffffffffffffffffffffffffffffffff021916908373ffffffffffffffffffffffffffffffffffffffff16021790555060208201518160010160006101000a81548173ffffffffffffffffffffffffffffffffffffffff021916908373ffffffffffffffffffffffffffffffffffffffff16021790555060408201518160020155606082015181600301556080820151816004015560a0820151816005015560c08201518160060155905050611513601460008b73ffffffffffffffffffffffffffffffffffffffff1673ffffffffffffffffffffffffffffffffffffffff168152602001908152602001600020601560008c73ffffffffffffffffffffffffffffffffffffffff1673ffffffffffffffffffffffffffffffffffffffff168152602001908152602001600020868a612bdc565b505b5b5050505b949350505050565b6007602052816000526040600020602052806000526040600020600091509150508060000154908060010154908060020154905083565b6000600160009054906101000a900473ffffffffffffffffffffffffffffffffffffffff16905090565b600e5481565b600c5481565b601c5481565b60086020528060005260406000206000915090508060000154908060010154908060020154905083565b60026020528060005260406000206000915090505481565b60006019600083815260200190815260200160002090508060000160009054906101000a900473ffffffffffffffffffffffffffffffffffffffff1673ffffffffffffffffffffffffffffffffffffffff163373ffffffffffffffffffffffffffffffffffffffff1614611680576040517f08c379a0000000000000000000000000000000000000000000000000000000008152600401611677906136bc565b60405180910390fd5b806004015442116116c6576040517f08c379a00000000000000000000000000000000000000000000000000000000081526004016116bd906136fc565b60405180910390fd5b60008160010160009054906101000a900473ffffffffffffffffffffffffffffffffffffffff16905060006116ff8284600501546120cf565b9050600060028460030154856002015461171991906137bf565b6117239190613815565b905080600260008573ffffffffffffffffffffffffffffffffffffffff1673ffffffffffffffffffffffffffffffffffffffff168152602001908152602001600020600082825461177491906138a0565b9250508190555080601a60008573ffffffffffffffffffffffffffffffffffffffff1673ffffffffffffffffffffffffffffffffffffffff16815260200190815260200160002083815481106117f3577f4e487b7100000000000000000000000000000000000000000000000000000000600052603260045260246000fd5b90600052602060002001600082825461180c91906138a0565b9250508190555061189f601660008573ffffffffffffffffffffffffffffffffffffffff1673ffffffffffffffffffffffffffffffffffffffff168152602001908152602001600020601760008673ffffffffffffffffffffffffffffffffffffffff1673ffffffffffffffffffffffffffffffffffffffff168152602001908152602001600020848760020154612bdc565b600260008473ffffffffffffffffffffffffffffffffffffffff1673ffffffffffffffffffffffffffffffffffffffff16815260200190815260200160002054600360008573ffffffffffffffffffffffffffffffffffffffff1673ffffffffffffffffffffffffffffffffffffffff1681526020019081526020016000205411806119e6575061192e6127ef565b73ffffffffffffffffffffffffffffffffffffffff1663d9caed12848660000160009054906101000a900473ffffffffffffffffffffffffffffffffffffffff1687600301546040518463ffffffff1660e01b8152600401611992939291906134ee565b602060405180830381600087803b1580156119ac57600080fd5b505af11580156119c0573d6000803e3d6000fd5b505050506040513d601f19601f820116820180604052508101906119e49190613289565b155b15611aac578360000160009054906101000a900473ffffffffffffffffffffffffffffffffffffffff1673ffffffffffffffffffffffffffffffffffffffff168373ffffffffffffffffffffffffffffffffffffffff167fbcab653cf73e12f7bb78aa625dccb002864f5de7de2518796fb5b82fd6e6ab058660030154604051611a70919061375c565b60405180910390a3611aab838560000160009054906101000a900473ffffffffffffffffffffffffffffffffffffffff168660030154612d84565b5b5050505050565b60105481565b60186020528160005260406000208181548110611ad557600080fd5b90600052602060002001600091509150505481565b601d6020528060005260406000206000915090508060000154908060010154908060020154905083565b601a6020528160005260406000208181548110611b3057600080fd5b90600052602060002001600091509150505481565b60176020528160005260406000208181548110611b6157600080fd5b90600052602060002001600091509150505481565b60036020528060005260406000206000915090505481565b600080611b9d84601d42612d94565b9050611bae85826000015485612bb2565b9150509392505050565b60146020528160005260406000208181548110611bd457600080fd5b90600052602060002001600091509150505481565b6000611bf782601d42612b0f565b9050919050565b60136020528160005260406000208181548110611c1a57600080fd5b90600052602060002001600091509150505481565b611c3833612a59565b611c77576040517f08c379a0000000000000000000000000000000000000000000000000000000008152600401611c6e9061371c565b60405180910390fd5b611c7f6127ef565b73ffffffffffffffffffffffffffffffffffffffff16635acf6903836040518263ffffffff1660e01b8152600401611cb791906134d3565b60206040518083038186803b158015611ccf57600080fd5b505afa158015611ce3573d6000803e3d6000fd5b505050506040513d601f19601f82011682018060405250810190611d079190613289565b611d46576040517f08c379a0000000000000000000000000000000000000000000000000000000008152600401611d3d906136dc565b60405180910390fd5b80600360008473ffffffffffffffffffffffffffffffffffffffff1673ffffffffffffffffffffffffffffffffffffffff1681526020019081526020016000206000828254611d9591906137bf565b92505081905550600360008373ffffffffffffffffffffffffffffffffffffffff1673ffffffffffffffffffffffffffffffffffffffff16815260200190815260200160002054600260008473ffffffffffffffffffffffffffffffffffffffff1673ffffffffffffffffffffffffffffffffffffffff168152602001908152602001600020541015611e5d576040517f08c379a0000000000000000000000000000000000000000000000000000000008152600401611e549061361c565b60405180910390fd5b5050565b60065481565b611e6f612bd4565b73ffffffffffffffffffffffffffffffffffffffff16611e8d611559565b73ffffffffffffffffffffffffffffffffffffffff1614611ee3576040517f08c379a0000000000000000000000000000000000000000000000000000000008152600401611eda9061369c565b60405180910390fd5b600073ffffffffffffffffffffffffffffffffffffffff168173ffffffffffffffffffffffffffffffffffffffff161415611f53576040517f08c379a0000000000000000000000000000000000000000000000000000000008152600401611f4a9061363c565b60405180910390fd5b8073ffffffffffffffffffffffffffffffffffffffff16600160009054906101000a900473ffffffffffffffffffffffffffffffffffffffff1673ffffffffffffffffffffffffffffffffffffffff167f8be0079c531659141344cd1fd0a4f28419497f9722a3daafe3b4186f6b6457e060405160405180910390a380600160006101000a81548173ffffffffffffffffffffffffffffffffffffffff021916908373ffffffffffffffffffffffffffffffffffffffff16021790555050565b6000600760008373ffffffffffffffffffffffffffffffffffffffff1673ffffffffffffffffffffffffffffffffffffffff16815260200190815260200160002060003373ffffffffffffffffffffffffffffffffffffffff1673ffffffffffffffffffffffffffffffffffffffff168152602001908152602001600020905061209d82826124d7565b6120ad82823384600001546125e6565b6000816000018190555060008160010181905550600081600201819055505050565b600080601b60008573ffffffffffffffffffffffffffffffffffffffff1673ffffffffffffffffffffffffffffffffffffffff168152602001908152602001600020905060008180549050600f546121279190613815565b905080846121359190613815565b9250505092915050565b6000601b60008573ffffffffffffffffffffffffffffffffffffffff1673ffffffffffffffffffffffffffffffffffffffff16815260200190815260200160002082815481106121b8577f4e487b7100000000000000000000000000000000000000000000000000000000600052603260045260246000fd5b906000526020600020015490506000601860008673ffffffffffffffffffffffffffffffffffffffff1673ffffffffffffffffffffffffffffffffffffffff168152602001908152602001600020838154811061223e577f4e487b7100000000000000000000000000000000000000000000000000000000600052603260045260246000fd5b906000526020600020015490506000601054601360008873ffffffffffffffffffffffffffffffffffffffff1673ffffffffffffffffffffffffffffffffffffffff16815260200190815260200160002085815481106122c7577f4e487b7100000000000000000000000000000000000000000000000000000000600052603260045260246000fd5b9060005260206000200154600460008973ffffffffffffffffffffffffffffffffffffffff1673ffffffffffffffffffffffffffffffffffffffff1681526020019081526020016000205461231c9190613846565b6123269190613815565b90506000601460008873ffffffffffffffffffffffffffffffffffffffff1673ffffffffffffffffffffffffffffffffffffffff16815260200190815260200160002085815481106123a1577f4e487b7100000000000000000000000000000000000000000000000000000000600052603260045260246000fd5b906000526020600020015490506000601660008973ffffffffffffffffffffffffffffffffffffffff1673ffffffffffffffffffffffffffffffffffffffff1681526020019081526020016000208681548110612427577f4e487b7100000000000000000000000000000000000000000000000000000000600052603260045260246000fd5b906000526020600020015490506000601260008a73ffffffffffffffffffffffffffffffffffffffff1673ffffffffffffffffffffffffffffffffffffffff16815260200190815260200160002087815481106124ad577f4e487b7100000000000000000000000000000000000000000000000000000000600052603260045260246000fd5b906000526020600020015490506124c986868a87878787612f21565b955050505050509392505050565b60008160010154905060008111156125e15760006124f784600842612d94565b90506000836000015490506125158460000154836000015485612bb2565b8460000181905550600081856000015461252f91906138a0565b905080600960008873ffffffffffffffffffffffffffffffffffffffff1673ffffffffffffffffffffffffffffffffffffffff168152602001908152602001600020600082825461258091906137bf565b9250508190555080600260008873ffffffffffffffffffffffffffffffffffffffff1673ffffffffffffffffffffffffffffffffffffffff16815260200190815260200160002060008282546125d691906137bf565b925050819055505050505b505050565b6000610e108460020154426125fb91906138a0565b61260591906139d3565b905080610258101561264c576040517f08c379a00000000000000000000000000000000000000000000000000000000081526004016126439061367c565b60405180910390fd5b6126546127ef565b73ffffffffffffffffffffffffffffffffffffffff1663d9caed128685856040518463ffffffff1660e01b8152600401612690939291906134ee565b602060405180830381600087803b1580156126aa57600080fd5b505af11580156126be573d6000803e3d6000fd5b505050506040513d601f19601f820116820180604052508101906126e29190613289565b612721576040517f08c379a00000000000000000000000000000000000000000000000000000000081526004016127189061365c565b60405180910390fd5b8184600001600082825461273591906138a0565b9250508190555081600960008773ffffffffffffffffffffffffffffffffffffffff1673ffffffffffffffffffffffffffffffffffffffff168152602001908152602001600020600082825461278b91906138a0565b9250508190555081600260008773ffffffffffffffffffffffffffffffffffffffff1673ffffffffffffffffffffffffffffffffffffffff16815260200190815260200160002060008282546127e191906138a0565b925050819055505050505050565b60008060009054906101000a900473ffffffffffffffffffffffffffffffffffffffff1673ffffffffffffffffffffffffffffffffffffffff166336214c7860006040518263ffffffff1660e01b815260040161284c9190613601565b60206040518083038186803b15801561286457600080fd5b505afa158015612878573d6000803e3d6000fd5b505050506040513d601f19601f8201168201806040525081019061289c9190613136565b905090565b6000600760008573ffffffffffffffffffffffffffffffffffffffff1673ffffffffffffffffffffffffffffffffffffffff16815260200190815260200160002060008473ffffffffffffffffffffffffffffffffffffffff1673ffffffffffffffffffffffffffffffffffffffff168152602001908152602001600020905061292b84826124d7565b600860008573ffffffffffffffffffffffffffffffffffffffff1673ffffffffffffffffffffffffffffffffffffffff168152602001908152602001600020600001548160010181905550610e104261298491906139d3565b8160020181905550818160000160008282546129a091906137bf565b9250508190555081600960008673ffffffffffffffffffffffffffffffffffffffff1673ffffffffffffffffffffffffffffffffffffffff16815260200190815260200160002060008282546129f691906137bf565b9250508190555081600260008673ffffffffffffffffffffffffffffffffffffffff1673ffffffffffffffffffffffffffffffffffffffff1681526020019081526020016000206000828254612a4c91906137bf565b9250508190555050505050565b60008060009054906101000a900473ffffffffffffffffffffffffffffffffffffffff1673ffffffffffffffffffffffffffffffffffffffff1663a716b97f8360026040518363ffffffff1660e01b8152600401612ab8929190613594565b60206040518083038186803b158015612ad057600080fd5b505afa158015612ae4573d6000803e3d6000fd5b505050506040513d601f19601f82011682018060405250810190612b089190613289565b9050919050565b6000808360008673ffffffffffffffffffffffffffffffffffffffff1673ffffffffffffffffffffffffffffffffffffffff1681526020019081526020016000206001015483612b5f91906138a0565b9050612ba88460008773ffffffffffffffffffffffffffffffffffffffff1673ffffffffffffffffffffffffffffffffffffffff16815260200190815260200160002082613003565b9150509392505050565b6000818385612bc19190613846565b612bcb9190613815565b90509392505050565b600033905090565b60008480549050600f54612bf09190613815565b905060008382612c009190613846565b90506000858581548110612c3d577f4e487b7100000000000000000000000000000000000000000000000000000000600052603260045260246000fd5b906000526020600020015442612c5391906138a0565b90506000818386612c649190613846565b612c6e9190613815565b90508183612c7c91906137bf565b8282612c889190613846565b848a8981548110612cc2577f4e487b7100000000000000000000000000000000000000000000000000000000600052603260045260246000fd5b9060005260206000200154612cd79190613846565b612ce191906137bf565b612ceb9190613815565b888781548110612d24577f4e487b7100000000000000000000000000000000000000000000000000000000600052603260045260246000fd5b906000526020600020018190555042878781548110612d6c577f4e487b7100000000000000000000000000000000000000000000000000000000600052603260045260246000fd5b90600052602060002001819055505050505050505050565b612d8f8383836128a1565b505050565b60008260008573ffffffffffffffffffffffffffffffffffffffff1673ffffffffffffffffffffffffffffffffffffffff1681526020019081526020016000209050612eeb81600201548260010154600260008873ffffffffffffffffffffffffffffffffffffffff1673ffffffffffffffffffffffffffffffffffffffff16815260200190815260200160002054600460008973ffffffffffffffffffffffffffffffffffffffff1673ffffffffffffffffffffffffffffffffffffffff16815260200190815260200160002054600a60008a73ffffffffffffffffffffffffffffffffffffffff1673ffffffffffffffffffffffffffffffffffffffff16815260200190815260200160002054600b60008b73ffffffffffffffffffffffffffffffffffffffff1673ffffffffffffffffffffffffffffffffffffffff16815260200190815260200160002054600c54612f21565b81600201819055506000816001015483612f0591906138a0565b9050612f118282613003565b8260000181905550509392505050565b600087905060008742612f3491906138a0565b9050600060065482612f469190613846565b90508688101580612f795750848610158015612f7857508787612f6991906138a0565b8587612f7591906138a0565b10155b5b15612fa7578083612f8a91906138a0565b9250826401000000001115612fa25764010000000092505b612ff6565b8787118015612fd5575085851180612fd457508486612fc691906138a0565b8888612fd291906138a0565b115b5b15612ff5578083612fe691906137bf565b925083831115612ff4578392505b5b5b5050979650505050505050565b600080610e108361301491906139d3565b9050610e106401000000006130299190613846565b818560020154866000015461303e9190613846565b6130489190613846565b6130529190613815565b91506000610e10846130649190613815565b905060008111156130b15760005b808211156130af576401000000008660020154856130909190613846565b61309a9190613815565b935080806130a79061398a565b915050613072565b505b505092915050565b6000813590506130c881613ceb565b92915050565b6000815190506130dd81613ceb565b92915050565b6000815190506130f281613d02565b92915050565b60008135905061310781613d19565b92915050565b60006020828403121561311f57600080fd5b600061312d848285016130b9565b91505092915050565b60006020828403121561314857600080fd5b6000613156848285016130ce565b91505092915050565b6000806040838503121561317257600080fd5b6000613180858286016130b9565b9250506020613191858286016130b9565b9150509250929050565b600080604083850312156131ae57600080fd5b60006131bc858286016130b9565b92505060206131cd858286016130f8565b9150509250929050565b6000806000606084860312156131ec57600080fd5b60006131fa868287016130b9565b935050602061320b868287016130f8565b925050604061321c868287016130f8565b9150509250925092565b6000806000806080858703121561323c57600080fd5b600061324a878288016130b9565b945050602061325b878288016130f8565b935050604061326c878288016130f8565b925050606061327d878288016130f8565b91505092959194509250565b60006020828403121561329b57600080fd5b60006132a9848285016130e3565b91505092915050565b6000602082840312156132c457600080fd5b60006132d2848285016130f8565b91505092915050565b6000806000606084860312156132f057600080fd5b60006132fe868287016130f8565b935050602061330f868287016130b9565b9250506040613320868287016130f8565b9150509250925092565b613333816138d4565b82525050565b61334281613942565b82525050565b61335181613966565b82525050565b61336081613978565b82525050565b6000613373602e836137ae565b915061337e82613a91565b604082019050919050565b60006133966026836137ae565b91506133a182613ae0565b604082019050919050565b60006133b96016836137ae565b91506133c482613b2f565b602082019050919050565b60006133dc603f836137ae565b91506133e782613b58565b604082019050919050565b60006133ff6020836137ae565b915061340a82613ba7565b602082019050919050565b60006134226012836137ae565b915061342d82613bd0565b602082019050919050565b60006134456015836137ae565b915061345082613bf9565b602082019050919050565b60006134686016836137ae565b915061347382613c22565b602082019050919050565b600061348b6018836137ae565b915061349682613c4b565b602082019050919050565b60006134ae602d836137ae565b91506134b982613c74565b604082019050919050565b6134cd81613938565b82525050565b60006020820190506134e8600083018461332a565b92915050565b6000606082019050613503600083018661332a565b613510602083018561332a565b61351d60408301846134c4565b949350505050565b600060e08201905061353a600083018a61332a565b613547602083018961332a565b61355460408301886134c4565b61356160608301876134c4565b61356e60808301866134c4565b61357b60a08301856134c4565b61358860c08301846134c4565b98975050505050505050565b60006040820190506135a9600083018561332a565b6135b66020830184613357565b9392505050565b60006040820190506135d2600083018561332a565b6135df60208301846134c4565b9392505050565b60006020820190506135fb6000830184613339565b92915050565b60006020820190506136166000830184613348565b92915050565b6000602082019050818103600083015261363581613366565b9050919050565b6000602082019050818103600083015261365581613389565b9050919050565b60006020820190508181036000830152613675816133ac565b9050919050565b60006020820190508181036000830152613695816133cf565b9050919050565b600060208201905081810360008301526136b5816133f2565b9050919050565b600060208201905081810360008301526136d581613415565b9050919050565b600060208201905081810360008301526136f581613438565b9050919050565b600060208201905081810360008301526137158161345b565b9050919050565b600060208201905081810360008301526137358161347e565b9050919050565b60006020820190508181036000830152613755816134a1565b9050919050565b600060208201905061377160008301846134c4565b92915050565b600060608201905061378c60008301866134c4565b61379960208301856134c4565b6137a660408301846134c4565b949350505050565b600082825260208201905092915050565b60006137ca82613938565b91506137d583613938565b9250827fffffffffffffffffffffffffffffffffffffffffffffffffffffffffffffffff0382111561380a57613809613a04565b5b828201905092915050565b600061382082613938565b915061382b83613938565b92508261383b5761383a613a33565b5b828204905092915050565b600061385182613938565b915061385c83613938565b9250817fffffffffffffffffffffffffffffffffffffffffffffffffffffffffffffffff048311821515161561389557613894613a04565b5b828202905092915050565b60006138ab82613938565b91506138b683613938565b9250828210156138c9576138c8613a04565b5b828203905092915050565b60006138df82613918565b9050919050565b60008115159050919050565b600081905061390082613cc3565b919050565b600081905061391382613cd7565b919050565b600073ffffffffffffffffffffffffffffffffffffffff82169050919050565b6000819050919050565b600061394d82613954565b9050919050565b600061395f82613918565b9050919050565b6000613971826138f2565b9050919050565b600061398382613905565b9050919050565b600061399582613938565b91507fffffffffffffffffffffffffffffffffffffffffffffffffffffffffffffffff8214156139c8576139c7613a04565b5b600182019050919050565b60006139de82613938565b91506139e983613938565b9250826139f9576139f8613a33565b5b828206905092915050565b7f4e487b7100000000000000000000000000000000000000000000000000000000600052601160045260246000fd5b7f4e487b7100000000000000000000000000000000000000000000000000000000600052601260045260246000fd5b7f4e487b7100000000000000000000000000000000000000000000000000000000600052602160045260246000fd5b7f496e73756666696369656e74206361706974616c20746f206c656e642c20747260008201527f7920616761696e206c6174657221000000000000000000000000000000000000602082015250565b7f4f776e61626c653a206e6577206f776e657220697320746865207a65726f206160008201527f6464726573730000000000000000000000000000000000000000000000000000602082015250565b7f496e73756666696369656e74206c697175696469747900000000000000000000600082015250565b7f5472696564207769746864726177696e67206f7574736964652073756273637260008201527f697074696f6e2063616e63656c6c6174696f6e2074696d652077696e646f7700602082015250565b7f4f776e61626c653a2063616c6c6572206973206e6f7420746865206f776e6572600082015250565b7f4e6f7420686f6c646572206f6620626f6e640000000000000000000000000000600082015250565b7f4e6f7420616e20617070726f76656420746f6b656e0000000000000000000000600082015250565b7f626f6e64206973207374696c6c20696d6d617475726500000000000000000000600082015250565b7f4e6f7420616e20617070726f76656420626f72726f7765720000000000000000600082015250565b7f436f756c64206e6f74207472616e7366657220626f6e64206465706f7369742060008201527f746f6b656e20746f2066756e6400000000000000000000000000000000000000602082015250565b60068110613cd457613cd3613a62565b5b50565b60088110613ce857613ce7613a62565b5b50565b613cf4816138d4565b8114613cff57600080fd5b50565b613d0b816138e6565b8114613d1657600080fd5b50565b613d2281613938565b8114613d2d57600080fd5b5056fea26469706673582212205f453e360890a202a4504d1a35d86466394af03816c592972505e5e35df44d9564736f6c63430008010033",
  "linkReferences": {},
  "deployedLinkReferences": {}
}