{
  "_format": "hh-sol-artifact-1",
  "contractName": "Lending",
  "sourceName": "contracts/Lending.sol",
  "abi": [
    {
      "inputs": [
        {
          "internalType": "address",
          "name": "_roles",
          "type": "address"
        }
      ],
      "stateMutability": "nonpayable",
      "type": "constructor"
    },
    {
      "anonymous": false,
      "inputs": [
        {
          "indexed": true,
          "internalType": "address",
          "name": "token",
          "type": "address"
        },
        {
          "indexed": true,
          "internalType": "address",
          "name": "holder",
          "type": "address"
        },
        {
          "indexed": false,
          "internalType": "uint256",
          "name": "value",
          "type": "uint256"
        }
      ],
      "name": "LiquidityWarning",
      "type": "event"
    },
    {
      "anonymous": false,
      "inputs": [
        {
          "indexed": true,
          "internalType": "address",
          "name": "previousOwner",
          "type": "address"
        },
        {
          "indexed": true,
          "internalType": "address",
          "name": "newOwner",
          "type": "address"
        }
      ],
      "name": "OwnershipTransferred",
      "type": "event"
    },
    {
      "inputs": [],
      "name": "ADMIN",
      "outputs": [
        {
          "internalType": "uint16",
          "name": "",
          "type": "uint16"
        }
      ],
      "stateMutability": "view",
      "type": "function"
    },
    {
      "inputs": [],
      "name": "AUTHORIZED_FUND_TRADER",
      "outputs": [
        {
          "internalType": "uint16",
          "name": "",
          "type": "uint16"
        }
      ],
      "stateMutability": "view",
      "type": "function"
    },
    {
      "inputs": [],
      "name": "BORROWER",
      "outputs": [
        {
          "internalType": "uint16",
          "name": "",
          "type": "uint16"
        }
      ],
      "stateMutability": "view",
      "type": "function"
    },
    {
      "inputs": [],
      "name": "FEE_CONTROLLER",
      "outputs": [
        {
          "internalType": "uint16",
          "name": "",
          "type": "uint16"
        }
      ],
      "stateMutability": "view",
      "type": "function"
    },
    {
      "inputs": [],
      "name": "FEE_SOURCE",
      "outputs": [
        {
          "internalType": "uint16",
          "name": "",
          "type": "uint16"
        }
      ],
      "stateMutability": "view",
      "type": "function"
    },
    {
      "inputs": [],
      "name": "FUND",
      "outputs": [
        {
          "internalType": "uint16",
          "name": "",
          "type": "uint16"
        }
      ],
      "stateMutability": "view",
      "type": "function"
    },
    {
      "inputs": [],
      "name": "INCENTIVE_DISTRIBUTION",
      "outputs": [
        {
          "internalType": "uint16",
          "name": "",
          "type": "uint16"
        }
      ],
      "stateMutability": "view",
      "type": "function"
    },
    {
      "inputs": [],
      "name": "INCENTIVE_REPORTER",
      "outputs": [
        {
          "internalType": "uint16",
          "name": "",
          "type": "uint16"
        }
      ],
      "stateMutability": "view",
      "type": "function"
    },
    {
      "inputs": [],
      "name": "LENDING",
      "outputs": [
        {
          "internalType": "uint16",
          "name": "",
          "type": "uint16"
        }
      ],
      "stateMutability": "view",
      "type": "function"
    },
    {
      "inputs": [],
      "name": "LIQUIDATOR",
      "outputs": [
        {
          "internalType": "uint16",
          "name": "",
          "type": "uint16"
        }
      ],
      "stateMutability": "view",
      "type": "function"
    },
    {
      "inputs": [],
      "name": "MARGIN_CALLER",
      "outputs": [
        {
          "internalType": "uint16",
          "name": "",
          "type": "uint16"
        }
      ],
      "stateMutability": "view",
      "type": "function"
    },
    {
      "inputs": [],
      "name": "MARGIN_TRADER",
      "outputs": [
        {
          "internalType": "uint16",
          "name": "",
          "type": "uint16"
        }
      ],
      "stateMutability": "view",
      "type": "function"
    },
    {
      "inputs": [],
      "name": "MARGIN_TRADING",
      "outputs": [
        {
          "internalType": "uint16",
          "name": "",
          "type": "uint16"
        }
      ],
      "stateMutability": "view",
      "type": "function"
    },
    {
      "inputs": [],
      "name": "PRICE_CONTROLLER",
      "outputs": [
        {
          "internalType": "uint16",
          "name": "",
          "type": "uint16"
        }
      ],
      "stateMutability": "view",
      "type": "function"
    },
    {
      "inputs": [],
      "name": "ROUTER",
      "outputs": [
        {
          "internalType": "uint16",
          "name": "",
          "type": "uint16"
        }
      ],
      "stateMutability": "view",
      "type": "function"
    },
    {
      "inputs": [],
      "name": "STAKE_PENALIZER",
      "outputs": [
        {
          "internalType": "uint16",
          "name": "",
          "type": "uint16"
        }
      ],
      "stateMutability": "view",
      "type": "function"
    },
    {
      "inputs": [],
      "name": "TOKEN_ACTIVATOR",
      "outputs": [
        {
          "internalType": "uint16",
          "name": "",
          "type": "uint16"
        }
      ],
      "stateMutability": "view",
      "type": "function"
    },
    {
      "inputs": [],
      "name": "WITHDRAWER",
      "outputs": [
        {
          "internalType": "uint16",
          "name": "",
          "type": "uint16"
        }
      ],
      "stateMutability": "view",
      "type": "function"
    },
    {
      "inputs": [
        {
          "internalType": "uint256",
          "name": "balance",
          "type": "uint256"
        },
        {
          "internalType": "address",
          "name": "token",
          "type": "address"
        },
        {
          "internalType": "uint256",
          "name": "yieldQuotientFP",
          "type": "uint256"
        }
      ],
      "name": "applyBorrowInterest",
      "outputs": [
        {
          "internalType": "uint256",
          "name": "",
          "type": "uint256"
        }
      ],
      "stateMutability": "nonpayable",
      "type": "function"
    },
    {
      "inputs": [
        {
          "internalType": "address",
          "name": "",
          "type": "address"
        },
        {
          "internalType": "uint256",
          "name": "",
          "type": "uint256"
        }
      ],
      "name": "bondIds",
      "outputs": [
        {
          "internalType": "uint256",
          "name": "",
          "type": "uint256"
        }
      ],
      "stateMutability": "view",
      "type": "function"
    },
    {
      "inputs": [
        {
          "internalType": "uint256",
          "name": "",
          "type": "uint256"
        }
      ],
      "name": "bonds",
      "outputs": [
        {
          "internalType": "address",
          "name": "holder",
          "type": "address"
        },
        {
          "internalType": "address",
          "name": "token",
          "type": "address"
        },
        {
          "internalType": "uint256",
          "name": "originalPrice",
          "type": "uint256"
        },
        {
          "internalType": "uint256",
          "name": "returnAmount",
          "type": "uint256"
        },
        {
          "internalType": "uint256",
          "name": "maturityTimestamp",
          "type": "uint256"
        },
        {
          "internalType": "uint256",
          "name": "runtime",
          "type": "uint256"
        },
        {
          "internalType": "uint256",
          "name": "yieldFP",
          "type": "uint256"
        }
      ],
      "stateMutability": "view",
      "type": "function"
    },
    {
      "inputs": [
        {
          "internalType": "address",
          "name": "",
          "type": "address"
        }
      ],
      "name": "borrowYieldAccumulators",
      "outputs": [
        {
          "internalType": "uint256",
          "name": "accumulatorFP",
          "type": "uint256"
        },
        {
          "internalType": "uint256",
          "name": "lastUpdated",
          "type": "uint256"
        },
        {
          "internalType": "uint256",
          "name": "hourlyYieldFP",
          "type": "uint256"
        }
      ],
      "stateMutability": "view",
      "type": "function"
    },
    {
      "inputs": [],
      "name": "borrowingMarkupFP",
      "outputs": [
        {
          "internalType": "uint256",
          "name": "",
          "type": "uint256"
        }
      ],
      "stateMutability": "view",
      "type": "function"
    },
    {
      "inputs": [
        {
          "internalType": "address",
          "name": "token",
          "type": "address"
        },
        {
          "internalType": "uint256",
          "name": "runtime",
          "type": "uint256"
        },
        {
          "internalType": "uint256",
          "name": "amount",
          "type": "uint256"
        },
        {
          "internalType": "uint256",
          "name": "minReturn",
          "type": "uint256"
        }
      ],
      "name": "buyBond",
      "outputs": [
        {
          "internalType": "uint256",
          "name": "bondIndex",
          "type": "uint256"
        }
      ],
      "stateMutability": "nonpayable",
      "type": "function"
    },
    {
      "inputs": [
        {
          "internalType": "address",
          "name": "token",
          "type": "address"
        },
        {
          "internalType": "uint256",
          "name": "amount",
          "type": "uint256"
        }
      ],
      "name": "buyHourlyBondSubscription",
      "outputs": [],
      "stateMutability": "nonpayable",
      "type": "function"
    },
    {
      "inputs": [
        {
          "internalType": "address",
          "name": "",
          "type": "address"
        },
        {
          "internalType": "uint256",
          "name": "",
          "type": "uint256"
        }
      ],
      "name": "buyingSpeed",
      "outputs": [
        {
          "internalType": "uint256",
          "name": "",
          "type": "uint256"
        }
      ],
      "stateMutability": "view",
      "type": "function"
    },
    {
      "inputs": [
        {
          "internalType": "address",
          "name": "",
          "type": "address"
        },
        {
          "internalType": "address",
          "name": "",
          "type": "address"
        }
      ],
      "name": "claimIds",
      "outputs": [
        {
          "internalType": "uint256",
          "name": "",
          "type": "uint256"
        }
      ],
      "stateMutability": "view",
      "type": "function"
    },
    {
      "inputs": [
        {
          "internalType": "address",
          "name": "token",
          "type": "address"
        }
      ],
      "name": "closeHourlyBondAccount",
      "outputs": [],
      "stateMutability": "nonpayable",
      "type": "function"
    },
    {
      "inputs": [],
      "name": "diffMaxMinRuntime",
      "outputs": [
        {
          "internalType": "uint256",
          "name": "",
          "type": "uint256"
        }
      ],
      "stateMutability": "view",
      "type": "function"
    },
    {
      "inputs": [
        {
          "internalType": "address",
          "name": "",
          "type": "address"
        },
        {
          "internalType": "address",
          "name": "",
          "type": "address"
        }
      ],
      "name": "hourlyBondAccounts",
      "outputs": [
        {
          "internalType": "uint256",
          "name": "amount",
          "type": "uint256"
        },
        {
          "internalType": "uint256",
          "name": "yieldQuotientFP",
          "type": "uint256"
        },
        {
          "internalType": "uint256",
          "name": "moduloHour",
          "type": "uint256"
        }
      ],
      "stateMutability": "view",
      "type": "function"
    },
    {
      "inputs": [
        {
          "internalType": "address",
          "name": "",
          "type": "address"
        }
      ],
      "name": "hourlyBondBuyingSpeed",
      "outputs": [
        {
          "internalType": "uint256",
          "name": "",
          "type": "uint256"
        }
      ],
      "stateMutability": "view",
      "type": "function"
    },
    {
      "inputs": [
        {
          "internalType": "address",
          "name": "",
          "type": "address"
        }
      ],
      "name": "hourlyBondWithdrawingSpeed",
      "outputs": [
        {
          "internalType": "uint256",
          "name": "",
          "type": "uint256"
        }
      ],
      "stateMutability": "view",
      "type": "function"
    },
    {
      "inputs": [
        {
          "internalType": "address",
          "name": "",
          "type": "address"
        }
      ],
      "name": "hourlyBondYieldAccumulators",
      "outputs": [
        {
          "internalType": "uint256",
          "name": "accumulatorFP",
          "type": "uint256"
        },
        {
          "internalType": "uint256",
          "name": "lastUpdated",
          "type": "uint256"
        },
        {
          "internalType": "uint256",
          "name": "hourlyYieldFP",
          "type": "uint256"
        }
      ],
      "stateMutability": "view",
      "type": "function"
    },
    {
      "inputs": [],
      "name": "hourlyMaxYield",
      "outputs": [
        {
          "internalType": "uint256",
          "name": "",
          "type": "uint256"
        }
      ],
      "stateMutability": "view",
      "type": "function"
    },
    {
      "inputs": [
        {
          "internalType": "address",
          "name": "",
          "type": "address"
        }
      ],
      "name": "incentiveTranches",
      "outputs": [
        {
          "internalType": "uint8",
          "name": "",
          "type": "uint8"
        }
      ],
      "stateMutability": "view",
      "type": "function"
    },
    {
      "inputs": [
        {
          "internalType": "address",
          "name": "",
          "type": "address"
        },
        {
          "internalType": "uint256",
          "name": "",
          "type": "uint256"
        }
      ],
      "name": "lastBought",
      "outputs": [
        {
          "internalType": "uint256",
          "name": "",
          "type": "uint256"
        }
      ],
      "stateMutability": "view",
      "type": "function"
    },
    {
      "inputs": [
        {
          "internalType": "address",
          "name": "",
          "type": "address"
        },
        {
          "internalType": "uint256",
          "name": "",
          "type": "uint256"
        }
      ],
      "name": "lastWithdrawn",
      "outputs": [
        {
          "internalType": "uint256",
          "name": "",
          "type": "uint256"
        }
      ],
      "stateMutability": "view",
      "type": "function"
    },
    {
      "inputs": [
        {
          "internalType": "address",
          "name": "",
          "type": "address"
        }
      ],
      "name": "lendingTarget",
      "outputs": [
        {
          "internalType": "uint256",
          "name": "",
          "type": "uint256"
        }
      ],
      "stateMutability": "view",
      "type": "function"
    },
    {
      "inputs": [
        {
          "internalType": "uint16",
          "name": "",
          "type": "uint16"
        }
      ],
      "name": "mainCharacterCache",
      "outputs": [
        {
          "internalType": "address",
          "name": "",
          "type": "address"
        }
      ],
      "stateMutability": "view",
      "type": "function"
    },
    {
      "inputs": [],
      "name": "maxRuntime",
      "outputs": [
        {
          "internalType": "uint256",
          "name": "",
          "type": "uint256"
        }
      ],
      "stateMutability": "view",
      "type": "function"
    },
    {
      "inputs": [
        {
          "internalType": "address",
          "name": "",
          "type": "address"
        },
        {
          "internalType": "uint256",
          "name": "",
          "type": "uint256"
        }
      ],
      "name": "maxYield",
      "outputs": [
        {
          "internalType": "uint256",
          "name": "",
          "type": "uint256"
        }
      ],
      "stateMutability": "view",
      "type": "function"
    },
    {
      "inputs": [],
      "name": "minRuntime",
      "outputs": [
        {
          "internalType": "uint256",
          "name": "",
          "type": "uint256"
        }
      ],
      "stateMutability": "view",
      "type": "function"
    },
    {
      "inputs": [],
      "name": "nextBondIndex",
      "outputs": [
        {
          "internalType": "uint256",
          "name": "",
          "type": "uint256"
        }
      ],
      "stateMutability": "view",
      "type": "function"
    },
    {
      "inputs": [],
      "name": "owner",
      "outputs": [
        {
          "internalType": "address",
          "name": "",
          "type": "address"
        }
      ],
      "stateMutability": "view",
      "type": "function"
    },
    {
      "inputs": [
        {
          "internalType": "address",
          "name": "token",
          "type": "address"
        },
        {
          "internalType": "uint256",
          "name": "amount",
          "type": "uint256"
        }
      ],
      "name": "payOff",
      "outputs": [],
      "stateMutability": "nonpayable",
      "type": "function"
    },
    {
      "inputs": [
        {
          "internalType": "address",
          "name": "token",
          "type": "address"
        },
        {
          "internalType": "uint256",
          "name": "amount",
          "type": "uint256"
        }
      ],
      "name": "registerBorrow",
      "outputs": [],
      "stateMutability": "nonpayable",
      "type": "function"
    },
    {
      "inputs": [],
      "name": "renounceOwnership",
      "outputs": [],
      "stateMutability": "nonpayable",
      "type": "function"
    },
    {
      "inputs": [
        {
          "internalType": "address",
          "name": "",
          "type": "address"
        },
        {
          "internalType": "uint16",
          "name": "",
          "type": "uint16"
        }
      ],
      "name": "roleCache",
      "outputs": [
        {
          "internalType": "bool",
          "name": "",
          "type": "bool"
        }
      ],
      "stateMutability": "view",
      "type": "function"
    },
    {
      "inputs": [],
      "name": "roles",
      "outputs": [
        {
          "internalType": "contract Roles",
          "name": "",
          "type": "address"
        }
      ],
      "stateMutability": "view",
      "type": "function"
    },
    {
      "inputs": [
        {
          "internalType": "address",
          "name": "",
          "type": "address"
        },
        {
          "internalType": "uint256",
          "name": "",
          "type": "uint256"
        }
      ],
      "name": "runtimeWeights",
      "outputs": [
        {
          "internalType": "uint256",
          "name": "",
          "type": "uint256"
        }
      ],
      "stateMutability": "view",
      "type": "function"
    },
    {
      "inputs": [
        {
          "internalType": "address",
          "name": "token",
          "type": "address"
        },
        {
          "internalType": "uint8",
          "name": "tranche",
          "type": "uint8"
        }
      ],
      "name": "setIncentiveTranche",
      "outputs": [],
      "stateMutability": "nonpayable",
      "type": "function"
    },
    {
      "inputs": [
        {
          "internalType": "address",
          "name": "",
          "type": "address"
        }
      ],
      "name": "totalBorrowed",
      "outputs": [
        {
          "internalType": "uint256",
          "name": "",
          "type": "uint256"
        }
      ],
      "stateMutability": "view",
      "type": "function"
    },
    {
      "inputs": [
        {
          "internalType": "address",
          "name": "",
          "type": "address"
        }
      ],
      "name": "totalHourlyBond",
      "outputs": [
        {
          "internalType": "uint256",
          "name": "",
          "type": "uint256"
        }
      ],
      "stateMutability": "view",
      "type": "function"
    },
    {
      "inputs": [
        {
          "internalType": "address",
          "name": "",
          "type": "address"
        }
      ],
      "name": "totalHourlyYieldFP",
      "outputs": [
        {
          "internalType": "uint256",
          "name": "",
          "type": "uint256"
        }
      ],
      "stateMutability": "view",
      "type": "function"
    },
    {
      "inputs": [
        {
          "internalType": "address",
          "name": "",
          "type": "address"
        }
      ],
      "name": "totalLending",
      "outputs": [
        {
          "internalType": "uint256",
          "name": "",
          "type": "uint256"
        }
      ],
      "stateMutability": "view",
      "type": "function"
    },
    {
      "inputs": [
        {
          "internalType": "address",
          "name": "",
          "type": "address"
        },
        {
          "internalType": "uint256",
          "name": "",
          "type": "uint256"
        }
      ],
      "name": "totalLendingPerRuntime",
      "outputs": [
        {
          "internalType": "uint256",
          "name": "",
          "type": "uint256"
        }
      ],
      "stateMutability": "view",
      "type": "function"
    },
    {
      "inputs": [
        {
          "internalType": "address",
          "name": "newOwner",
          "type": "address"
        }
      ],
      "name": "transferOwnership",
      "outputs": [],
      "stateMutability": "nonpayable",
      "type": "function"
    },
    {
      "inputs": [
        {
          "internalType": "uint16",
          "name": "role",
          "type": "uint16"
        }
      ],
      "name": "updateMainCharacterCache",
      "outputs": [],
      "stateMutability": "nonpayable",
      "type": "function"
    },
    {
      "inputs": [
        {
          "internalType": "uint16",
          "name": "role",
          "type": "uint16"
        },
        {
          "internalType": "address",
          "name": "contr",
          "type": "address"
        }
      ],
      "name": "updateRoleCache",
      "outputs": [],
      "stateMutability": "nonpayable",
      "type": "function"
    },
    {
      "inputs": [
        {
          "internalType": "address",
          "name": "token",
          "type": "address"
        },
        {
          "internalType": "uint256",
          "name": "runtime",
          "type": "uint256"
        },
        {
          "internalType": "uint256",
          "name": "amount",
          "type": "uint256"
        }
      ],
      "name": "viewBondReturn",
      "outputs": [
        {
          "internalType": "uint256",
          "name": "",
          "type": "uint256"
        }
      ],
      "stateMutability": "view",
      "type": "function"
    },
    {
      "inputs": [
        {
          "internalType": "uint256",
          "name": "balance",
          "type": "uint256"
        },
        {
          "internalType": "address",
          "name": "token",
          "type": "address"
        },
        {
          "internalType": "uint256",
          "name": "yieldQuotientFP",
          "type": "uint256"
        }
      ],
      "name": "viewBorrowInterest",
      "outputs": [
        {
          "internalType": "uint256",
          "name": "",
          "type": "uint256"
        }
      ],
      "stateMutability": "view",
      "type": "function"
    },
    {
      "inputs": [
        {
          "internalType": "address",
          "name": "token",
          "type": "address"
        }
      ],
      "name": "viewBorrowingYield",
      "outputs": [
        {
          "internalType": "uint256",
          "name": "",
          "type": "uint256"
        }
      ],
      "stateMutability": "view",
      "type": "function"
    },
    {
      "inputs": [],
      "name": "weightTotal",
      "outputs": [
        {
          "internalType": "uint256",
          "name": "",
          "type": "uint256"
        }
      ],
      "stateMutability": "view",
      "type": "function"
    },
    {
      "inputs": [
        {
          "internalType": "uint256",
          "name": "bondId",
          "type": "uint256"
        }
      ],
      "name": "withdrawBond",
      "outputs": [],
      "stateMutability": "nonpayable",
      "type": "function"
    },
    {
      "inputs": [
        {
          "internalType": "address",
          "name": "token",
          "type": "address"
        },
        {
          "internalType": "uint256",
          "name": "amount",
          "type": "uint256"
        }
      ],
      "name": "withdrawHourlyBond",
      "outputs": [],
      "stateMutability": "nonpayable",
      "type": "function"
    },
    {
      "inputs": [
        {
          "internalType": "address",
          "name": "",
          "type": "address"
        },
        {
          "internalType": "uint256",
          "name": "",
          "type": "uint256"
        }
      ],
      "name": "withdrawingSpeed",
      "outputs": [
        {
          "internalType": "uint256",
          "name": "",
          "type": "uint256"
        }
      ],
      "stateMutability": "view",
      "type": "function"
    },
    {
      "inputs": [],
      "name": "yieldChangePerSecondFP",
      "outputs": [
        {
          "internalType": "uint256",
          "name": "",
          "type": "uint256"
        }
      ],
      "stateMutability": "view",
      "type": "function"
    },
    {
      "inputs": [
        {
          "internalType": "address",
          "name": "",
          "type": "address"
        },
        {
          "internalType": "uint256",
          "name": "",
          "type": "uint256"
        }
      ],
      "name": "yieldLastUpdated",
      "outputs": [
        {
          "internalType": "uint256",
          "name": "",
          "type": "uint256"
        }
      ],
      "stateMutability": "view",
      "type": "function"
    }
  ],
  "bytecode": "0x60806040526001601e553480156200001657600080fd5b506040516200368d3803806200368d8339810160408190526200003991620000b7565b600080546001600160a01b0319166001600160a01b0383161781556200005e620000b3565b600380546001600160a01b0319166001600160a01b038316908117909155604051919250906000907f8be0079c531659141344cd1fd0a4f28419497f9722a3daafe3b4186f6b6457e0908290a35050620000e7565b3390565b600060208284031215620000c9578081fd5b81516001600160a01b0381168114620000e0578182fd5b9392505050565b61359680620000f76000396000f3fe608060405234801561001057600080fd5b506004361061043c5760003560e01c806381ca660011610235578063c4f7d45d11610135578063e695fa68116100c8578063ee0862bf11610097578063f11f97951161007c578063f11f97951461084e578063f2fde38b14610856578063f884614b146108695761043c565b8063ee0862bf14610828578063ef2cd3b81461083b5761043c565b8063e695fa68146107dc578063e69f8959146107ef578063e7bde5c114610802578063e84bfdf4146108155761043c565b8063d3dc14b211610104578063d3dc14b21461079b578063d5d7ed7f146107ae578063dcaf8029146107b6578063e2e1ca2b146107c95761043c565b8063c4f7d45d14610765578063c76139d014610778578063cacf8d4514610780578063cd3b5dfb146107885761043c565b8063a94c7c34116101c8578063bfedc0bf11610197578063c34316c31161017c578063c34316c31461072a578063c3daab961461074a578063c43a683d1461075d5761043c565b8063bfedc0bf14610704578063c1cea807146107175761043c565b8063a94c7c34146106d9578063a9cc0536146106e1578063aa7e321d146106e9578063b4481652146106f15761043c565b80638da5cb5b116102045780638da5cb5b146106b95780639229e73f146106c1578063a0098d69146106c9578063a8b151a1146106d15761043c565b806381ca66001461066757806383a042291461066f57806383a49c7c146106915780638824cbba146106995761043c565b806332fe7b26116103405780635adbeb15116102d3578063687680ed116102a2578063715018a611610287578063715018a614610644578063773bbb3b1461064c5780637b8b4ee2146106545761043c565b8063687680ed1461061e5780636cd5cd60146106315761043c565b80635adbeb15146105d55780635c275a39146105e85780635f1c17c0146105f057806366941984146106165761043c565b806346b887961161030f57806346b88796146105aa57806348fb27b8146105b257806349f7cff6146105ba57806358d51f91146105cd5761043c565b806332fe7b2614610567578063392f5f641461056f5780633aa58f451461058457806340fe56a9146105975761043c565b80631b669507116103d3578063247ae0a6116103a25780632a0acc6a116103875780632a0acc6a146105445780632a6a897b1461054c5780632fe94def1461055f5761043c565b8063247ae0a61461051e5780632864f401146105315761043c565b80631b669507146104e85780631bc5d81d146104f057806320b15515146104f857806320e8d8191461050b5761043c565b80630f7c43dc1161040f5780630f7c43dc1461049a57806316de7a43146104af5780631744a9b6146104c25780631799f0c3146104d55761043c565b80630196c36114610441578063065d570f1461046a5780630b5505461461047f5780630bba92b314610487575b600080fd5b61045461044f366004612df0565b61087c565b6040516104619190613397565b60405180910390f35b6104726108ad565b604051610461919061335e565b6104546108b2565b610454610495366004612e1b565b6108b8565b6104ad6104a8366004612df0565b610986565b005b6104ad6104bd366004612df0565b6109dc565b6104546104d0366004612d45565b610b25565b6104546104e3366004612d45565b610b37565b610472610b49565b610472610b4e565b610454610506366004612d45565b610b53565b6104ad610519366004612ef5565b610b65565b61045461052c366004612df0565b610c76565b6104ad61053f366004612e89565b610c92565b610472610d29565b6104ad61055a366004612df0565b610d2e565b610472610dab565b610472610db0565b610577610db5565b6040516104619190612f77565b610454610592366004612d45565b610dd1565b6104546105a5366004612df0565b610de3565b610472610dff565b610472610e04565b6104546105c8366004612d45565b610e09565b610454610e1b565b6104546105e3366004612d84565b610e21565b610472610e3c565b6106036105fe366004612f10565b610e41565b6040516104619796959493929190612fc9565b610472610e97565b61045461062c366004612f40565b610e9c565b6104ad61063f366004612edb565b610ec1565b6104ad610fc0565b6104546110a2565b610454610662366004612e4f565b6110a8565b610472611167565b61068261067d366004612d84565b61116c565b604051610461939291906133a0565b610472611198565b6106ac6106a7366004612d45565b61119d565b60405161046191906133b6565b6105776111b2565b6104546111ce565b6104726111d4565b6104546111d9565b6104726111df565b6104726111e4565b6104546111e9565b6105776106ff366004612edb565b6111ef565b610682610712366004612d45565b611217565b610454610725366004612d45565b611238565b61073d610738366004612dbc565b61124a565b604051610461919061303a565b6104ad610758366004612f10565b61126a565b61045461133c565b610454610773366004612df0565b611342565b61047261135e565b610472611363565b610682610796366004612d45565b611368565b6104546107a9366004612df0565b611389565b6104726113a5565b6104546107c4366004612df0565b6113aa565b6104546107d7366004612d45565b6113c6565b6104546107ea366004612f40565b6113d8565b6104546107fd366004612df0565b6113f8565b610454610810366004612d45565b611414565b610454610823366004612df0565b61142a565b6104ad610836366004612df0565b611446565b610454610849366004612df0565b6115ef565b61045461160b565b6104ad610864366004612d45565b611611565b6104ad610877366004612d45565b61175f565b6018602052816000526040600020818154811061089857600080fd5b90600052602060002001600091509150505481565b600381565b60115481565b6000806108c585856117be565b9050600061096086601c60008973ffffffffffffffffffffffffffffffffffffffff1673ffffffffffffffffffffffffffffffffffffffff1681526020019081526020016000208481548110610944577f4e487b7100000000000000000000000000000000000000000000000000000000600052603260045260246000fd5b90600052602060002001548661095a9190613410565b846117ff565b9050640100000000610972858361343c565b61097c9190613428565b9695505050505050565b73ffffffffffffffffffffffffffffffffffffffff8216600090815260096020908152604080832033845290915290206109c08382611b4a565b6109cc83823385611c09565b6109d7338484611dc6565b505050565b73ffffffffffffffffffffffffffffffffffffffff8216600090815260046020526040902054610a0d908290613410565b73ffffffffffffffffffffffffffffffffffffffff831660009081526006602052604090205410610b2157610a40611e82565b73ffffffffffffffffffffffffffffffffffffffff166347e7ef2483836040518363ffffffff1660e01b8152600401610a7a929190613014565b602060405180830381600087803b158015610a9457600080fd5b505af1158015610aa8573d6000803e3d6000fd5b505050506040513d601f19601f82011682018060405250810190610acc9190612ebb565b610b0b576040517f08c379a0000000000000000000000000000000000000000000000000000000008152600401610b0290613301565b60405180910390fd5b610b16823383611ec7565b610b21338383611fd2565b5050565b60066020526000908152604090205481565b60076020526000908152604090205481565b600a81565b600881565b600d6020526000908152604090205481565b6000546040517fd87fefd200000000000000000000000000000000000000000000000000000000815273ffffffffffffffffffffffffffffffffffffffff9091169063d87fefd290610bbd908590859060040161336d565b60206040518083038186803b158015610bd557600080fd5b505afa158015610be9573d6000803e3d6000fd5b505050506040513d601f19601f82011682018060405250810190610c0d9190612ebb565b73ffffffffffffffffffffffffffffffffffffffff909116600090815260026020908152604080832061ffff90951683529390529190912080549115157fffffffffffffffffffffffffffffffffffffffffffffffffffffffffffffff00909216919091179055565b6017602052816000526040600020818154811061089857600080fd5b610c9b33612198565b610cd1576040517f08c379a0000000000000000000000000000000000000000000000000000000008152600401610b0290613045565b73ffffffffffffffffffffffffffffffffffffffff919091166000908152601f6020526040902080547fffffffffffffffffffffffffffffffffffffffffffffffffffffffffffffff001660ff909216919091179055565b606b81565b610d37336121cf565b610d6d576040517f08c379a0000000000000000000000000000000000000000000000000000000008152600401610b02906132ca565b73ffffffffffffffffffffffffffffffffffffffff821660009081526005602052604081208054839290610da2908490613479565b90915550505050565b606981565b606781565b60005473ffffffffffffffffffffffffffffffffffffffff1681565b600c6020526000908152604090205481565b6014602052816000526040600020818154811061089857600080fd5b600681565b606681565b600b6020526000908152604090205481565b60135481565b60208080526000928352604080842090915290825290205481565b606581565b601b60205260009081526040902080546001820154600283015460038401546004850154600586015460069096015473ffffffffffffffffffffffffffffffffffffffff95861696959094169492939192909187565b600181565b600080610eab84602142612206565b9050610eb885828561226d565b95945050505050565b6000546040517f3c9c8f9c00000000000000000000000000000000000000000000000000000000815273ffffffffffffffffffffffffffffffffffffffff90911690633c9c8f9c90610f1790849060040161335e565b60206040518083038186803b158015610f2f57600080fd5b505afa158015610f43573d6000803e3d6000fd5b505050506040513d601f19601f82011682018060405250810190610f679190612d68565b61ffff91909116600090815260016020526040902080547fffffffffffffffffffffffff00000000000000000000000000000000000000001673ffffffffffffffffffffffffffffffffffffffff909216919091179055565b610fc8612284565b73ffffffffffffffffffffffffffffffffffffffff16610fe66111b2565b73ffffffffffffffffffffffffffffffffffffffff1614611033576040517f08c379a0000000000000000000000000000000000000000000000000000000008152600401610b02906131f0565b60035460405160009173ffffffffffffffffffffffffffffffffffffffff16907f8be0079c531659141344cd1fd0a4f28419497f9722a3daafe3b4186f6b6457e0908390a3600380547fffffffffffffffffffffffff0000000000000000000000000000000000000000169055565b600f5481565b73ffffffffffffffffffffffffffffffffffffffff84166000908152600460205260408120546110d9908490613410565b73ffffffffffffffffffffffffffffffffffffffff86166000908152600660205260409020541080159061110f57508360105410155b801561111d5750600f548410155b1561115f5761112f3386868686612288565b3360008181526022602090815260408220805460018101825590835291200182905590915061115f908685611fd2565b949350505050565b606a81565b600960209081526000928352604080842090915290825290208054600182015460029092015490919083565b600981565b601f6020526000908152604090205460ff1681565b60035473ffffffffffffffffffffffffffffffffffffffff1690565b60105481565b600281565b600e5481565b600581565b606881565b601e5481565b60016020526000908152604090205473ffffffffffffffffffffffffffffffffffffffff1681565b600a6020526000908152604090208054600182015460029092015490919083565b60046020526000908152604090205481565b600260209081526000928352604080842090915290825290205460ff1681565b6000818152601b60205260409020805473ffffffffffffffffffffffffffffffffffffffff1633146112c8576040517f08c379a0000000000000000000000000000000000000000000000000000000008152600401610b0290613225565b80600401544211611305576040517f08c379a0000000000000000000000000000000000000000000000000000000008152600401610b0290613293565b61130e81612665565b60018101546002820154610b2191339173ffffffffffffffffffffffffffffffffffffffff90911690611dc6565b60125481565b601a602052816000526040600020818154811061089857600080fd5b606c81565b600481565b60216020526000908152604090208054600182015460029092015490919083565b601c602052816000526040600020818154811061089857600080fd5b600781565b6019602052816000526040600020818154811061089857600080fd5b60056020526000908152604090205481565b6000806113e78460214261293e565b9050610eb88582600001548561226d565b6016602052816000526040600020818154811061089857600080fd5b600061142282602142612206565b90505b919050565b6015602052816000526040600020818154811061089857600080fd5b61144f336121cf565b611485576040517f08c379a0000000000000000000000000000000000000000000000000000000008152600401610b02906132ca565b61148d611e82565b73ffffffffffffffffffffffffffffffffffffffff16635acf6903836040518263ffffffff1660e01b81526004016114c59190612f77565b60206040518083038186803b1580156114dd57600080fd5b505afa1580156114f1573d6000803e3d6000fd5b505050506040513d601f19601f820116820180604052508101906115159190612ebb565b61154b576040517f08c379a0000000000000000000000000000000000000000000000000000000008152600401610b029061325c565b73ffffffffffffffffffffffffffffffffffffffff821660009081526005602052604081208054839290611580908490613410565b909155505073ffffffffffffffffffffffffffffffffffffffff82166000908152600560209081526040808320546004909252909120541015610b21576040517f08c379a0000000000000000000000000000000000000000000000000000000008152600401610b02906130a2565b6022602052816000526040600020818154811061089857600080fd5b60085481565b611619612284565b73ffffffffffffffffffffffffffffffffffffffff166116376111b2565b73ffffffffffffffffffffffffffffffffffffffff1614611684576040517f08c379a0000000000000000000000000000000000000000000000000000000008152600401610b02906131f0565b73ffffffffffffffffffffffffffffffffffffffff81166116d1576040517f08c379a0000000000000000000000000000000000000000000000000000000008152600401610b02906130ff565b60035460405173ffffffffffffffffffffffffffffffffffffffff8084169216907f8be0079c531659141344cd1fd0a4f28419497f9722a3daafe3b4186f6b6457e090600090a3600380547fffffffffffffffffffffffff00000000000000000000000000000000000000001673ffffffffffffffffffffffffffffffffffffffff92909216919091179055565b73ffffffffffffffffffffffffffffffffffffffff8116600090815260096020908152604080832033845290915290206117998282611b4a565b6117a98282338460000154611c09565b60008082556001820181905560029091015550565b73ffffffffffffffffffffffffffffffffffffffff82166000908152601d60205260408120805460115483916117f391613428565b9050610eb88185613428565b73ffffffffffffffffffffffffffffffffffffffff83166000908152601d6020526040812080548390811061185d577f4e487b7100000000000000000000000000000000000000000000000000000000600052603260045260246000fd5b906000526020600020015490506000601a60008673ffffffffffffffffffffffffffffffffffffffff1673ffffffffffffffffffffffffffffffffffffffff16815260200190815260200160002083815481106118e3577f4e487b7100000000000000000000000000000000000000000000000000000000600052603260045260246000fd5b906000526020600020015490506000601254601560008873ffffffffffffffffffffffffffffffffffffffff1673ffffffffffffffffffffffffffffffffffffffff168152602001908152602001600020858154811061196c577f4e487b7100000000000000000000000000000000000000000000000000000000600052603260045260246000fd5b600091825260208083209091015473ffffffffffffffffffffffffffffffffffffffff8a16835260069091526040909120546119a8919061343c565b6119b29190613428565b73ffffffffffffffffffffffffffffffffffffffff871660009081526016602052604081208054929350909186908110611a15577f4e487b7100000000000000000000000000000000000000000000000000000000600052603260045260246000fd5b906000526020600020015490506000601860008973ffffffffffffffffffffffffffffffffffffffff1673ffffffffffffffffffffffffffffffffffffffff1681526020019081526020016000208681548110611a9b577f4e487b7100000000000000000000000000000000000000000000000000000000600052603260045260246000fd5b906000526020600020015490506000601460008a73ffffffffffffffffffffffffffffffffffffffff1673ffffffffffffffffffffffffffffffffffffffff1681526020019081526020016000208781548110611b21577f4e487b7100000000000000000000000000000000000000000000000000000000600052603260045260246000fd5b90600052602060002001549050611b3d86868a878787876129d3565b9998505050505050505050565b600181015480156109d7576000611b6384600a4261293e565b8354815491925090611b779082908561226d565b808555600090611b88908390613479565b73ffffffffffffffffffffffffffffffffffffffff87166000908152600b6020526040812080549293508392909190611bc2908490613410565b909155505073ffffffffffffffffffffffffffffffffffffffff861660009081526004602052604081208054839290611bfc908490613410565b9091555050505050505050565b6000610e10846002015442611c1e9190613479565b611c2891906134c9565b9050806102581015611c66576040517f08c379a0000000000000000000000000000000000000000000000000000000008152600401610b0290613193565b611c6e611e82565b73ffffffffffffffffffffffffffffffffffffffff1663d9caed128685856040518463ffffffff1660e01b8152600401611caa93929190612f98565b602060405180830381600087803b158015611cc457600080fd5b505af1158015611cd8573d6000803e3d6000fd5b505050506040513d601f19601f82011682018060405250810190611cfc9190612ebb565b611d32576040517f08c379a0000000000000000000000000000000000000000000000000000000008152600401610b029061315c565b81846000016000828254611d469190613479565b909155505073ffffffffffffffffffffffffffffffffffffffff85166000908152600b602052604081208054849290611d80908490613479565b909155505073ffffffffffffffffffffffffffffffffffffffff851660009081526004602052604081208054849290611dba908490613479565b90915550505050505050565b73ffffffffffffffffffffffffffffffffffffffff808416600090815260208080526040808320938616835292815282822054601f9091529190205460ff16611e0d612a9f565b73ffffffffffffffffffffffffffffffffffffffff1663a80167118284866040518463ffffffff1660e01b8152600401611e49939291906133f5565b600060405180830381600087803b158015611e6357600080fd5b505af1158015611e77573d6000803e3d6000fd5b505050505050505050565b606560005260016020527f6def5a300acb6fcaa0dab3a41e9d6457b5147a641e641380f8cc4bf5308b16fe5473ffffffffffffffffffffffffffffffffffffffff1690565b73ffffffffffffffffffffffffffffffffffffffff8084166000908152600960209081526040808320938616835292905220611f038482611b4a565b73ffffffffffffffffffffffffffffffffffffffff84166000908152600a60205260409020546001820155611f3a610e10426134c9565b6002820155805482908290600090611f53908490613410565b909155505073ffffffffffffffffffffffffffffffffffffffff84166000908152600b602052604081208054849290611f8d908490613410565b909155505073ffffffffffffffffffffffffffffffffffffffff841660009081526004602052604081208054849290611fc7908490613410565b909155505050505050565b6000611fdc612a9f565b73ffffffffffffffffffffffffffffffffffffffff808616600090815260208080526040808320938816835292815282822054601f909152919020549192509060ff1681156120b2576040517ff542808700000000000000000000000000000000000000000000000000000000815273ffffffffffffffffffffffffffffffffffffffff84169063f54280879061207b908490869089906004016133f5565b600060405180830381600087803b15801561209557600080fd5b505af11580156120a9573d6000803e3d6000fd5b50505050612190565b6040517f583d861600000000000000000000000000000000000000000000000000000000815273ffffffffffffffffffffffffffffffffffffffff84169063583d8616906121089084908a9089906004016133c4565b602060405180830381600087803b15801561212257600080fd5b505af1158015612136573d6000803e3d6000fd5b505050506040513d601f19601f8201168201806040525081019061215a9190612f28565b73ffffffffffffffffffffffffffffffffffffffff808816600090815260208080526040808320938a1683529290522081905591505b505050505050565b73ffffffffffffffffffffffffffffffffffffffff1660009081526002602090815260408083206009845290915290205460ff1690565b73ffffffffffffffffffffffffffffffffffffffff1660009081526002602090815260408083206003845290915290205460ff1690565b73ffffffffffffffffffffffffffffffffffffffff8316600090815260208390526040812060010154819061223b9084613479565b73ffffffffffffffffffffffffffffffffffffffff86166000908152602086905260409020909150610eb89082612ae4565b60008161227a848661343c565b61115f9190613428565b3390565b60008061229586866117be565b9050600061232a87601c60008a73ffffffffffffffffffffffffffffffffffffffff1673ffffffffffffffffffffffffffffffffffffffff1681526020019081526020016000208481548110612314577f4e487b7100000000000000000000000000000000000000000000000000000000600052603260045260246000fd5b90600052602060002001548761095a9190613410565b9050600064010000000061233e878461343c565b6123489190613428565b905084811061265957612359611e82565b73ffffffffffffffffffffffffffffffffffffffff1663b3db428b8a8a896040518463ffffffff1660e01b815260040161239593929190612f98565b602060405180830381600087803b1580156123af57600080fd5b505af11580156123c3573d6000803e3d6000fd5b505050506040513d601f19601f820116820180604052508101906123e79190612ebb565b1561265957600060026123fa8389613410565b6124049190613428565b73ffffffffffffffffffffffffffffffffffffffff8a1660009081526004602052604081208054929350839290919061243e908490613410565b909155505073ffffffffffffffffffffffffffffffffffffffff89166000908152601c602052604090208054829190869081106124a4577f4e487b7100000000000000000000000000000000000000000000000000000000600052603260045260246000fd5b9060005260206000200160008282546124bd9190613410565b909155508890506124ce848961343c565b6124da90610e1061343c565b6124e49190613428565b73ffffffffffffffffffffffffffffffffffffffff8a1660009081526007602052604081208054909190612519908490613410565b9091555050601e805495508590600061253183613490565b91905055506040518060e001604052808b73ffffffffffffffffffffffffffffffffffffffff1681526020018a73ffffffffffffffffffffffffffffffffffffffff16815260200188815260200183815260200189426125919190613410565b815260208082018b905260409182018690526000888152601b8252828120845181547fffffffffffffffffffffffff000000000000000000000000000000000000000090811673ffffffffffffffffffffffffffffffffffffffff92831617835586850151600184018054909216908316179055858501516002830155606086015160038301556080860151600483015560a0860151600583015560c090950151600690910155928c16835260168152818320601790915291206126579190868a612b8d565b505b50505095945050505050565b6001810154600582015473ffffffffffffffffffffffffffffffffffffffff909116906000906126969083906117be565b905060006002846003015485600201546126b09190613410565b6126ba9190613428565b73ffffffffffffffffffffffffffffffffffffffff84166000908152600460205260408120805492935083929091906126f4908490613479565b909155505073ffffffffffffffffffffffffffffffffffffffff83166000908152601c6020526040902080548291908490811061275a577f4e487b7100000000000000000000000000000000000000000000000000000000600052603260045260246000fd5b9060005260206000200160008282546127739190613479565b909155505073ffffffffffffffffffffffffffffffffffffffff83166000908152601860209081526040808320601990925290912060028601546127ba9291908590612b8d565b73ffffffffffffffffffffffffffffffffffffffff831660009081526004602090815260408083205460059092529091205411806128ae57506127fb611e82565b845460038601546040517fd9caed1200000000000000000000000000000000000000000000000000000000815273ffffffffffffffffffffffffffffffffffffffff9384169363d9caed129361285a9389939290911691600401612f98565b602060405180830381600087803b15801561287457600080fd5b505af1158015612888573d6000803e3d6000fd5b505050506040513d601f19601f820116820180604052508101906128ac9190612ebb565b155b15612938578354600385015460405173ffffffffffffffffffffffffffffffffffffffff928316928616917fbcab653cf73e12f7bb78aa625dccb002864f5de7de2518796fb5b82fd6e6ab05916129059190613397565b60405180910390a38354600385015461293891859173ffffffffffffffffffffffffffffffffffffffff90911690612d28565b50505050565b73ffffffffffffffffffffffffffffffffffffffff83166000908152602083815260408083206002810154600182015460048552838620546006865284872054600c875285882054600d9097529490962054600e5493966129a69693959294909391906129d3565b600282015560018101546000906129bd9084613479565b90506129c98282612ae4565b8255509392505050565b8660006129e08842613479565b90506000600854826129f2919061343c565b90508688101580612a205750848610158015612a205750612a138888613479565b612a1d8688613479565b10155b15612a4c57612a2f8184613479565b9250826401000000001115612a475764010000000092505b612a92565b8787118015612a75575085851180612a755750612a698587613479565b612a738989613479565b115b15612a9257612a848184613410565b925083831115612a92578392505b5050979650505050505050565b606c60005260016020527fd80c728dcb954e7539257f5b9090fa0c83e482d978be864c61ec2b155c05c2525473ffffffffffffffffffffffffffffffffffffffff1690565b600080612af3610e10846134c9565b9050612b06640100000000610e1061343c565b600285015485548391612b189161343c565b612b22919061343c565b612b2c9190613428565b91506000612b3c610e1085613428565b90508015612b855760005b80821115612b8357640100000000866002015485612b65919061343c565b612b6f9190613428565b935080612b7b81613490565b915050612b47565b505b505092915050565b8354601154600091612b9e91613428565b90506000612bac848361343c565b90506000858581548110612be9577f4e487b7100000000000000000000000000000000000000000000000000000000600052603260045260246000fd5b906000526020600020015442612bff9190613479565b9050600081612c0e848761343c565b612c189190613428565b9050612c248284613410565b612c2e838361343c565b848a8981548110612c68577f4e487b7100000000000000000000000000000000000000000000000000000000600052603260045260246000fd5b9060005260206000200154612c7d919061343c565b612c879190613410565b612c919190613428565b888781548110612cca577f4e487b7100000000000000000000000000000000000000000000000000000000600052603260045260246000fd5b906000526020600020018190555042878781548110612d12577f4e487b7100000000000000000000000000000000000000000000000000000000600052603260045260246000fd5b6000918252602090912001555050505050505050565b6109d7838383611ec7565b803561ffff8116811461142557600080fd5b600060208284031215612d56578081fd5b8135612d618161353b565b9392505050565b600060208284031215612d79578081fd5b8151612d618161353b565b60008060408385031215612d96578081fd5b8235612da18161353b565b91506020830135612db18161353b565b809150509250929050565b60008060408385031215612dce578182fd5b8235612dd98161353b565b9150612de760208401612d33565b90509250929050565b60008060408385031215612e02578182fd5b8235612e0d8161353b565b946020939093013593505050565b600080600060608486031215612e2f578081fd5b8335612e3a8161353b565b95602085013595506040909401359392505050565b60008060008060808587031215612e64578081fd5b8435612e6f8161353b565b966020860135965060408601359560600135945092505050565b60008060408385031215612e9b578182fd5b8235612ea68161353b565b9150602083013560ff81168114612db1578182fd5b600060208284031215612ecc578081fd5b81518015158114612d61578182fd5b600060208284031215612eec578081fd5b612d6182612d33565b60008060408385031215612f07578182fd5b612da183612d33565b600060208284031215612f21578081fd5b5035919050565b600060208284031215612f39578081fd5b5051919050565b600080600060608486031215612f54578283fd5b833592506020840135612f668161353b565b929592945050506040919091013590565b73ffffffffffffffffffffffffffffffffffffffff91909116815260200190565b73ffffffffffffffffffffffffffffffffffffffff9384168152919092166020820152604081019190915260600190565b73ffffffffffffffffffffffffffffffffffffffff978816815295909616602086015260408501939093526060840191909152608083015260a082015260c081019190915260e00190565b73ffffffffffffffffffffffffffffffffffffffff929092168252602082015260400190565b901515815260200190565b6020808252602e908201527f43616c6c6572206e6f7420617574686f72697a656420746f2073657420696e6360408201527f656e74697665207472616e636865000000000000000000000000000000000000606082015260800190565b6020808252602e908201527f496e73756666696369656e74206361706974616c20746f206c656e642c20747260408201527f7920616761696e206c6174657221000000000000000000000000000000000000606082015260800190565b60208082526026908201527f4f776e61626c653a206e6577206f776e657220697320746865207a65726f206160408201527f6464726573730000000000000000000000000000000000000000000000000000606082015260800190565b60208082526016908201527f496e73756666696369656e74206c697175696469747900000000000000000000604082015260600190565b6020808252603f908201527f5472696564207769746864726177696e67206f7574736964652073756273637260408201527f697074696f6e2063616e63656c6c6174696f6e2074696d652077696e646f7700606082015260800190565b6020808252818101527f4f776e61626c653a2063616c6c6572206973206e6f7420746865206f776e6572604082015260600190565b60208082526012908201527f4e6f7420686f6c646572206f6620626f6e640000000000000000000000000000604082015260600190565b60208082526015908201527f4e6f7420616e20617070726f76656420746f6b656e0000000000000000000000604082015260600190565b60208082526016908201527f626f6e64206973207374696c6c20696d6d617475726500000000000000000000604082015260600190565b60208082526018908201527f4e6f7420616e20617070726f76656420626f72726f7765720000000000000000604082015260600190565b6020808252602d908201527f436f756c64206e6f74207472616e7366657220626f6e64206465706f7369742060408201527f746f6b656e20746f2066756e6400000000000000000000000000000000000000606082015260800190565b61ffff91909116815260200190565b61ffff92909216825273ffffffffffffffffffffffffffffffffffffffff16602082015260400190565b90815260200190565b9283526020830191909152604082015260600190565b60ff91909116815260200190565b60ff93909316835273ffffffffffffffffffffffffffffffffffffffff919091166020830152604082015260600190565b60ff9390931683526020830191909152604082015260600190565b60008219821115613423576134236134dd565b500190565b6000826134375761343761350c565b500490565b6000817fffffffffffffffffffffffffffffffffffffffffffffffffffffffffffffffff0483118215151615613474576134746134dd565b500290565b60008282101561348b5761348b6134dd565b500390565b60007fffffffffffffffffffffffffffffffffffffffffffffffffffffffffffffffff8214156134c2576134c26134dd565b5060010190565b6000826134d8576134d861350c565b500690565b7f4e487b7100000000000000000000000000000000000000000000000000000000600052601160045260246000fd5b7f4e487b7100000000000000000000000000000000000000000000000000000000600052601260045260246000fd5b73ffffffffffffffffffffffffffffffffffffffff8116811461355d57600080fd5b5056fea2646970667358221220bf65d2e29bfb03e8359b8f22a6b477215a039a5fd1a873c339c3ca9b8860f11864736f6c63430008010033",
  "linkReferences": {},
  "deployedLinkReferences": {}
}