{
  "_format": "hh-sol-artifact-1",
  "contractName": "Lending",
  "sourceName": "contracts/Lending.sol",
  "abi": [
    {
      "inputs": [
        {
          "internalType": "address",
          "name": "_roles",
          "type": "address"
        }
      ],
      "stateMutability": "nonpayable",
      "type": "constructor"
    },
    {
      "anonymous": false,
      "inputs": [
        {
          "indexed": true,
          "internalType": "address",
          "name": "token",
          "type": "address"
        },
        {
          "indexed": true,
          "internalType": "address",
          "name": "holder",
          "type": "address"
        },
        {
          "indexed": false,
          "internalType": "uint256",
          "name": "value",
          "type": "uint256"
        }
      ],
      "name": "LiquidityWarning",
      "type": "event"
    },
    {
      "anonymous": false,
      "inputs": [
        {
          "indexed": true,
          "internalType": "address",
          "name": "previousOwner",
          "type": "address"
        },
        {
          "indexed": true,
          "internalType": "address",
          "name": "newOwner",
          "type": "address"
        }
      ],
      "name": "OwnershipTransferred",
      "type": "event"
    },
    {
      "inputs": [],
      "name": "AUTHORIZED_FUND_TRADER",
      "outputs": [
        {
          "internalType": "uint16",
          "name": "",
          "type": "uint16"
        }
      ],
      "stateMutability": "view",
      "type": "function"
    },
    {
      "inputs": [],
      "name": "BORROWER",
      "outputs": [
        {
          "internalType": "uint16",
          "name": "",
          "type": "uint16"
        }
      ],
      "stateMutability": "view",
      "type": "function"
    },
    {
      "inputs": [],
      "name": "FEE_CONTROLLER",
      "outputs": [
        {
          "internalType": "uint16",
          "name": "",
          "type": "uint16"
        }
      ],
      "stateMutability": "view",
      "type": "function"
    },
    {
      "inputs": [],
      "name": "FEE_SOURCE",
      "outputs": [
        {
          "internalType": "uint16",
          "name": "",
          "type": "uint16"
        }
      ],
      "stateMutability": "view",
      "type": "function"
    },
    {
      "inputs": [],
      "name": "FUND",
      "outputs": [
        {
          "internalType": "uint16",
          "name": "",
          "type": "uint16"
        }
      ],
      "stateMutability": "view",
      "type": "function"
    },
    {
      "inputs": [],
      "name": "INCENTIVE_REPORTER",
      "outputs": [
        {
          "internalType": "uint16",
          "name": "",
          "type": "uint16"
        }
      ],
      "stateMutability": "view",
      "type": "function"
    },
    {
      "inputs": [],
      "name": "LENDING",
      "outputs": [
        {
          "internalType": "uint16",
          "name": "",
          "type": "uint16"
        }
      ],
      "stateMutability": "view",
      "type": "function"
    },
    {
      "inputs": [],
      "name": "LIQUIDATOR",
      "outputs": [
        {
          "internalType": "uint16",
          "name": "",
          "type": "uint16"
        }
      ],
      "stateMutability": "view",
      "type": "function"
    },
    {
      "inputs": [],
      "name": "MARGIN_CALLER",
      "outputs": [
        {
          "internalType": "uint16",
          "name": "",
          "type": "uint16"
        }
      ],
      "stateMutability": "view",
      "type": "function"
    },
    {
      "inputs": [],
      "name": "MARGIN_TRADER",
      "outputs": [
        {
          "internalType": "uint16",
          "name": "",
          "type": "uint16"
        }
      ],
      "stateMutability": "view",
      "type": "function"
    },
    {
      "inputs": [],
      "name": "MARGIN_TRADING",
      "outputs": [
        {
          "internalType": "uint16",
          "name": "",
          "type": "uint16"
        }
      ],
      "stateMutability": "view",
      "type": "function"
    },
    {
      "inputs": [],
      "name": "PRICE_CONTROLLER",
      "outputs": [
        {
          "internalType": "uint16",
          "name": "",
          "type": "uint16"
        }
      ],
      "stateMutability": "view",
      "type": "function"
    },
    {
      "inputs": [],
      "name": "ROUTER",
      "outputs": [
        {
          "internalType": "uint16",
          "name": "",
          "type": "uint16"
        }
      ],
      "stateMutability": "view",
      "type": "function"
    },
    {
      "inputs": [],
      "name": "WITHDRAWER",
      "outputs": [
        {
          "internalType": "uint16",
          "name": "",
          "type": "uint16"
        }
      ],
      "stateMutability": "view",
      "type": "function"
    },
    {
      "inputs": [
        {
          "internalType": "uint256",
          "name": "balance",
          "type": "uint256"
        },
        {
          "internalType": "address",
          "name": "token",
          "type": "address"
        },
        {
          "internalType": "uint256",
          "name": "yieldQuotientFP",
          "type": "uint256"
        }
      ],
      "name": "applyBorrowInterest",
      "outputs": [
        {
          "internalType": "uint256",
          "name": "",
          "type": "uint256"
        }
      ],
      "stateMutability": "nonpayable",
      "type": "function"
    },
    {
      "inputs": [
        {
          "internalType": "uint256",
          "name": "",
          "type": "uint256"
        }
      ],
      "name": "bonds",
      "outputs": [
        {
          "internalType": "address",
          "name": "holder",
          "type": "address"
        },
        {
          "internalType": "address",
          "name": "token",
          "type": "address"
        },
        {
          "internalType": "uint256",
          "name": "originalPrice",
          "type": "uint256"
        },
        {
          "internalType": "uint256",
          "name": "returnAmount",
          "type": "uint256"
        },
        {
          "internalType": "uint256",
          "name": "maturityTimestamp",
          "type": "uint256"
        },
        {
          "internalType": "uint256",
          "name": "runtime",
          "type": "uint256"
        },
        {
          "internalType": "uint256",
          "name": "yieldFP",
          "type": "uint256"
        }
      ],
      "stateMutability": "view",
      "type": "function"
    },
    {
      "inputs": [
        {
          "internalType": "address",
          "name": "",
          "type": "address"
        }
      ],
      "name": "borrowYieldAccumulators",
      "outputs": [
        {
          "internalType": "uint256",
          "name": "accumulatorFP",
          "type": "uint256"
        },
        {
          "internalType": "uint256",
          "name": "lastUpdated",
          "type": "uint256"
        },
        {
          "internalType": "uint256",
          "name": "hourlyYieldFP",
          "type": "uint256"
        }
      ],
      "stateMutability": "view",
      "type": "function"
    },
    {
      "inputs": [],
      "name": "borrowingMarkupFP",
      "outputs": [
        {
          "internalType": "uint256",
          "name": "",
          "type": "uint256"
        }
      ],
      "stateMutability": "view",
      "type": "function"
    },
    {
      "inputs": [
        {
          "internalType": "address",
          "name": "token",
          "type": "address"
        },
        {
          "internalType": "uint256",
          "name": "runtime",
          "type": "uint256"
        },
        {
          "internalType": "uint256",
          "name": "amount",
          "type": "uint256"
        },
        {
          "internalType": "uint256",
          "name": "minReturn",
          "type": "uint256"
        }
      ],
      "name": "buyBond",
      "outputs": [
        {
          "internalType": "uint256",
          "name": "bondIndex",
          "type": "uint256"
        }
      ],
      "stateMutability": "nonpayable",
      "type": "function"
    },
    {
      "inputs": [
        {
          "internalType": "address",
          "name": "token",
          "type": "address"
        },
        {
          "internalType": "uint256",
          "name": "amount",
          "type": "uint256"
        }
      ],
      "name": "buyHourlyBondSubscription",
      "outputs": [],
      "stateMutability": "nonpayable",
      "type": "function"
    },
    {
      "inputs": [
        {
          "internalType": "address",
          "name": "",
          "type": "address"
        },
        {
          "internalType": "uint256",
          "name": "",
          "type": "uint256"
        }
      ],
      "name": "buyingSpeed",
      "outputs": [
        {
          "internalType": "uint256",
          "name": "",
          "type": "uint256"
        }
      ],
      "stateMutability": "view",
      "type": "function"
    },
    {
      "inputs": [
        {
          "internalType": "address",
          "name": "token",
          "type": "address"
        }
      ],
      "name": "closeHourlyBondAccount",
      "outputs": [],
      "stateMutability": "nonpayable",
      "type": "function"
    },
    {
      "inputs": [],
      "name": "diffMaxMinRuntime",
      "outputs": [
        {
          "internalType": "uint256",
          "name": "",
          "type": "uint256"
        }
      ],
      "stateMutability": "view",
      "type": "function"
    },
    {
      "inputs": [
        {
          "internalType": "address",
          "name": "",
          "type": "address"
        },
        {
          "internalType": "address",
          "name": "",
          "type": "address"
        }
      ],
      "name": "hourlyBondAccounts",
      "outputs": [
        {
          "internalType": "uint256",
          "name": "amount",
          "type": "uint256"
        },
        {
          "internalType": "uint256",
          "name": "yieldQuotientFP",
          "type": "uint256"
        },
        {
          "internalType": "uint256",
          "name": "moduloHour",
          "type": "uint256"
        }
      ],
      "stateMutability": "view",
      "type": "function"
    },
    {
      "inputs": [
        {
          "internalType": "address",
          "name": "",
          "type": "address"
        }
      ],
      "name": "hourlyBondBuyingSpeed",
      "outputs": [
        {
          "internalType": "uint256",
          "name": "",
          "type": "uint256"
        }
      ],
      "stateMutability": "view",
      "type": "function"
    },
    {
      "inputs": [
        {
          "internalType": "address",
          "name": "",
          "type": "address"
        }
      ],
      "name": "hourlyBondWithdrawingSpeed",
      "outputs": [
        {
          "internalType": "uint256",
          "name": "",
          "type": "uint256"
        }
      ],
      "stateMutability": "view",
      "type": "function"
    },
    {
      "inputs": [
        {
          "internalType": "address",
          "name": "",
          "type": "address"
        }
      ],
      "name": "hourlyBondYieldAccumulators",
      "outputs": [
        {
          "internalType": "uint256",
          "name": "accumulatorFP",
          "type": "uint256"
        },
        {
          "internalType": "uint256",
          "name": "lastUpdated",
          "type": "uint256"
        },
        {
          "internalType": "uint256",
          "name": "hourlyYieldFP",
          "type": "uint256"
        }
      ],
      "stateMutability": "view",
      "type": "function"
    },
    {
      "inputs": [],
      "name": "hourlyMaxYield",
      "outputs": [
        {
          "internalType": "uint256",
          "name": "",
          "type": "uint256"
        }
      ],
      "stateMutability": "view",
      "type": "function"
    },
    {
      "inputs": [
        {
          "internalType": "address",
          "name": "",
          "type": "address"
        },
        {
          "internalType": "uint256",
          "name": "",
          "type": "uint256"
        }
      ],
      "name": "lastBought",
      "outputs": [
        {
          "internalType": "uint256",
          "name": "",
          "type": "uint256"
        }
      ],
      "stateMutability": "view",
      "type": "function"
    },
    {
      "inputs": [
        {
          "internalType": "address",
          "name": "",
          "type": "address"
        },
        {
          "internalType": "uint256",
          "name": "",
          "type": "uint256"
        }
      ],
      "name": "lastWithdrawn",
      "outputs": [
        {
          "internalType": "uint256",
          "name": "",
          "type": "uint256"
        }
      ],
      "stateMutability": "view",
      "type": "function"
    },
    {
      "inputs": [
        {
          "internalType": "address",
          "name": "",
          "type": "address"
        }
      ],
      "name": "lendingTarget",
      "outputs": [
        {
          "internalType": "uint256",
          "name": "",
          "type": "uint256"
        }
      ],
      "stateMutability": "view",
      "type": "function"
    },
    {
      "inputs": [],
      "name": "maxRuntime",
      "outputs": [
        {
          "internalType": "uint256",
          "name": "",
          "type": "uint256"
        }
      ],
      "stateMutability": "view",
      "type": "function"
    },
    {
      "inputs": [
        {
          "internalType": "address",
          "name": "",
          "type": "address"
        },
        {
          "internalType": "uint256",
          "name": "",
          "type": "uint256"
        }
      ],
      "name": "maxYield",
      "outputs": [
        {
          "internalType": "uint256",
          "name": "",
          "type": "uint256"
        }
      ],
      "stateMutability": "view",
      "type": "function"
    },
    {
      "inputs": [],
      "name": "minRuntime",
      "outputs": [
        {
          "internalType": "uint256",
          "name": "",
          "type": "uint256"
        }
      ],
      "stateMutability": "view",
      "type": "function"
    },
    {
      "inputs": [],
      "name": "nextBondIndex",
      "outputs": [
        {
          "internalType": "uint256",
          "name": "",
          "type": "uint256"
        }
      ],
      "stateMutability": "view",
      "type": "function"
    },
    {
      "inputs": [],
      "name": "owner",
      "outputs": [
        {
          "internalType": "address",
          "name": "",
          "type": "address"
        }
      ],
      "stateMutability": "view",
      "type": "function"
    },
    {
      "inputs": [
        {
          "internalType": "address",
          "name": "token",
          "type": "address"
        },
        {
          "internalType": "uint256",
          "name": "amount",
          "type": "uint256"
        }
      ],
      "name": "payOff",
      "outputs": [],
      "stateMutability": "nonpayable",
      "type": "function"
    },
    {
      "inputs": [
        {
          "internalType": "address",
          "name": "token",
          "type": "address"
        },
        {
          "internalType": "uint256",
          "name": "amount",
          "type": "uint256"
        }
      ],
      "name": "registerBorrow",
      "outputs": [],
      "stateMutability": "nonpayable",
      "type": "function"
    },
    {
      "inputs": [],
      "name": "renounceOwnership",
      "outputs": [],
      "stateMutability": "nonpayable",
      "type": "function"
    },
    {
      "inputs": [],
      "name": "roles",
      "outputs": [
        {
          "internalType": "contract Roles",
          "name": "",
          "type": "address"
        }
      ],
      "stateMutability": "view",
      "type": "function"
    },
    {
      "inputs": [
        {
          "internalType": "address",
          "name": "",
          "type": "address"
        },
        {
          "internalType": "uint256",
          "name": "",
          "type": "uint256"
        }
      ],
      "name": "runtimeWeights",
      "outputs": [
        {
          "internalType": "uint256",
          "name": "",
          "type": "uint256"
        }
      ],
      "stateMutability": "view",
      "type": "function"
    },
    {
      "inputs": [
        {
          "internalType": "address",
          "name": "",
          "type": "address"
        }
      ],
      "name": "totalBorrowed",
      "outputs": [
        {
          "internalType": "uint256",
          "name": "",
          "type": "uint256"
        }
      ],
      "stateMutability": "view",
      "type": "function"
    },
    {
      "inputs": [
        {
          "internalType": "address",
          "name": "",
          "type": "address"
        }
      ],
      "name": "totalHourlyBond",
      "outputs": [
        {
          "internalType": "uint256",
          "name": "",
          "type": "uint256"
        }
      ],
      "stateMutability": "view",
      "type": "function"
    },
    {
      "inputs": [
        {
          "internalType": "address",
          "name": "",
          "type": "address"
        }
      ],
      "name": "totalHourlyYieldFP",
      "outputs": [
        {
          "internalType": "uint256",
          "name": "",
          "type": "uint256"
        }
      ],
      "stateMutability": "view",
      "type": "function"
    },
    {
      "inputs": [
        {
          "internalType": "address",
          "name": "",
          "type": "address"
        }
      ],
      "name": "totalLending",
      "outputs": [
        {
          "internalType": "uint256",
          "name": "",
          "type": "uint256"
        }
      ],
      "stateMutability": "view",
      "type": "function"
    },
    {
      "inputs": [
        {
          "internalType": "address",
          "name": "",
          "type": "address"
        },
        {
          "internalType": "uint256",
          "name": "",
          "type": "uint256"
        }
      ],
      "name": "totalLendingPerRuntime",
      "outputs": [
        {
          "internalType": "uint256",
          "name": "",
          "type": "uint256"
        }
      ],
      "stateMutability": "view",
      "type": "function"
    },
    {
      "inputs": [
        {
          "internalType": "address",
          "name": "newOwner",
          "type": "address"
        }
      ],
      "name": "transferOwnership",
      "outputs": [],
      "stateMutability": "nonpayable",
      "type": "function"
    },
    {
      "inputs": [
        {
          "internalType": "address",
          "name": "token",
          "type": "address"
        },
        {
          "internalType": "uint256",
          "name": "runtime",
          "type": "uint256"
        },
        {
          "internalType": "uint256",
          "name": "amount",
          "type": "uint256"
        }
      ],
      "name": "viewBondReturn",
      "outputs": [
        {
          "internalType": "uint256",
          "name": "",
          "type": "uint256"
        }
      ],
      "stateMutability": "view",
      "type": "function"
    },
    {
      "inputs": [
        {
          "internalType": "uint256",
          "name": "balance",
          "type": "uint256"
        },
        {
          "internalType": "address",
          "name": "token",
          "type": "address"
        },
        {
          "internalType": "uint256",
          "name": "yieldQuotientFP",
          "type": "uint256"
        }
      ],
      "name": "viewBorrowInterest",
      "outputs": [
        {
          "internalType": "uint256",
          "name": "",
          "type": "uint256"
        }
      ],
      "stateMutability": "view",
      "type": "function"
    },
    {
      "inputs": [
        {
          "internalType": "address",
          "name": "token",
          "type": "address"
        }
      ],
      "name": "viewBorrowingYield",
      "outputs": [
        {
          "internalType": "uint256",
          "name": "",
          "type": "uint256"
        }
      ],
      "stateMutability": "view",
      "type": "function"
    },
    {
      "inputs": [],
      "name": "weightTotal",
      "outputs": [
        {
          "internalType": "uint256",
          "name": "",
          "type": "uint256"
        }
      ],
      "stateMutability": "view",
      "type": "function"
    },
    {
      "inputs": [
        {
          "internalType": "uint256",
          "name": "bondId",
          "type": "uint256"
        }
      ],
      "name": "withdrawBond",
      "outputs": [],
      "stateMutability": "nonpayable",
      "type": "function"
    },
    {
      "inputs": [
        {
          "internalType": "address",
          "name": "token",
          "type": "address"
        },
        {
          "internalType": "uint256",
          "name": "amount",
          "type": "uint256"
        }
      ],
      "name": "withdrawHourlyBond",
      "outputs": [],
      "stateMutability": "nonpayable",
      "type": "function"
    },
    {
      "inputs": [
        {
          "internalType": "address",
          "name": "",
          "type": "address"
        },
        {
          "internalType": "uint256",
          "name": "",
          "type": "uint256"
        }
      ],
      "name": "withdrawingSpeed",
      "outputs": [
        {
          "internalType": "uint256",
          "name": "",
          "type": "uint256"
        }
      ],
      "stateMutability": "view",
      "type": "function"
    },
    {
      "inputs": [],
      "name": "yieldChangePerSecondFP",
      "outputs": [
        {
          "internalType": "uint256",
          "name": "",
          "type": "uint256"
        }
      ],
      "stateMutability": "view",
      "type": "function"
    },
    {
      "inputs": [
        {
          "internalType": "address",
          "name": "",
          "type": "address"
        },
        {
          "internalType": "uint256",
          "name": "",
          "type": "uint256"
        }
      ],
      "name": "yieldLastUpdated",
      "outputs": [
        {
          "internalType": "uint256",
          "name": "",
          "type": "uint256"
        }
      ],
      "stateMutability": "view",
      "type": "function"
    }
  ],
  "bytecode": "0x60806040523480156200001157600080fd5b5060405162002d4f38038062002d4f8339810160408190526200003491620000b2565b600080546001600160a01b0319166001600160a01b03831617815562000059620000ae565b600180546001600160a01b0319166001600160a01b038316908117909155604051919250906000907f8be0079c531659141344cd1fd0a4f28419497f9722a3daafe3b4186f6b6457e0908290a35050620000e2565b3390565b600060208284031215620000c4578081fd5b81516001600160a01b0381168114620000db578182fd5b9392505050565b612c5d80620000f26000396000f3fe608060405234801561001057600080fd5b50600436106103785760003560e01c806381ca6600116101d3578063cacf8d4511610104578063e69f8959116100a2578063ee0862bf1161007c578063ee0862bf146106a5578063f11f9795146106b8578063f2fde38b146106c0578063f884614b146106d357610378565b8063e69f89591461066c578063e7bde5c11461067f578063e84bfdf41461069257610378565b8063d5d7ed7f116100de578063d5d7ed7f1461062b578063dcaf802914610633578063e2e1ca2b14610646578063e695fa681461065957610378565b8063cacf8d45146105fd578063cd3b5dfb14610605578063d3dc14b21461061857610378565b8063a9cc053611610171578063c1cea8071161014b578063c1cea807146105bc578063c3daab96146105cf578063c43a683d146105e2578063c4f7d45d146105ea57610378565b8063a9cc053614610599578063aa7e321d146105a1578063bfedc0bf146105a957610378565b80639229e73f116101ad5780639229e73f14610579578063a0098d6914610581578063a8b151a114610589578063a94c7c341461059157610378565b806381ca66001461054757806383a042291461054f5780638da5cb5b1461057157610378565b8063392f5f64116102ad5780635c275a391161024b578063687680ed11610225578063687680ed14610511578063715018a614610524578063773bbb3b1461052c5780637b8b4ee21461053457610378565b80635c275a39146104db5780635f1c17c0146104e3578063669419841461050957610378565b806346b887961161028757806346b88796146104b057806348fb27b8146104b857806349f7cff6146104c057806358d51f91146104d357610378565b8063392f5f64146104755780633aa58f451461048a57806340fe56a91461049d57610378565b80631799f0c31161031a578063247ae0a6116102f4578063247ae0a61461043f5780632a6a897b146104525780632fe94def1461046557806332fe7b261461046d57610378565b80631799f0c3146104115780631bc5d81d1461042457806320b155151461042c57610378565b80630bba92b3116103565780630bba92b3146103c35780630f7c43dc146103d657806316de7a43146103eb5780631744a9b6146103fe57610378565b80630196c3611461037d578063065d570f146103a65780630b550546146103bb575b600080fd5b61039061038b3660046125f8565b6106e6565b60405161039d9190612ab8565b60405180910390f35b6103ae610717565b60405161039d9190612aa9565b61039061071c565b6103906103d1366004612623565b610722565b6103e96103e43660046125f8565b6107f0565b005b6103e96103f93660046125f8565b61083b565b61039061040c366004612581565b610979565b61039061041f366004612581565b61098b565b6103ae61099d565b61039061043a366004612581565b6109a2565b61039061044d3660046125f8565b6109b4565b6103e96104603660046125f8565b6109d0565b6103ae610a4d565b6103ae610a52565b61047d610a57565b60405161039d9190612700565b610390610498366004612581565b610a73565b6103906104ab3660046125f8565b610a85565b6103ae610aa1565b6103ae610aa6565b6103906104ce366004612581565b610aab565b610390610abd565b6103ae610ac3565b6104f66104f13660046126b1565b610ac8565b60405161039d9796959493929190612752565b6103ae610b1e565b61039061051f3660046126c9565b610b23565b6103e9610b48565b610390610c2a565b610390610542366004612657565b610c30565b6103ae61106f565b61056261055d3660046125c0565b611074565b60405161039d93929190612ac1565b61047d6110a0565b6103906110bc565b6103ae6110c2565b6103906110c7565b6103ae6110cd565b6103ae6110d2565b6103906110d7565b6105626105b7366004612581565b6110dd565b6103906105ca366004612581565b6110fe565b6103e96105dd3660046126b1565b611110565b610390611485565b6103906105f83660046125f8565b61148b565b6103ae6114a7565b610562610613366004612581565b6114ac565b6103906106263660046125f8565b6114cd565b6103ae6114e9565b6103906106413660046125f8565b6114ee565b610390610654366004612581565b61150a565b6103906106673660046126c9565b61151c565b61039061067a3660046125f8565b61153c565b61039061068d366004612581565b611558565b6103906106a03660046125f8565b61156c565b6103e96106b33660046125f8565b611588565b610390611731565b6103e96106ce366004612581565b611737565b6103e96106e1366004612581565b611885565b6016602052816000526040600020818154811061070257600080fd5b90600052602060002001600091509150505481565b600381565b600f5481565b60008061072f85856118e4565b905060006107ca86601a60008973ffffffffffffffffffffffffffffffffffffffff1673ffffffffffffffffffffffffffffffffffffffff16815260200190815260200160002084815481106107ae577f4e487b7100000000000000000000000000000000000000000000000000000000600052603260045260246000fd5b9060005260206000200154866107c49190612ad7565b84611925565b90506401000000006107dc8583612b03565b6107e69190612aef565b9695505050505050565b73ffffffffffffffffffffffffffffffffffffffff82166000908152600760209081526040808320338452909152902061082a8382611c70565b61083683823385611d2f565b505050565b73ffffffffffffffffffffffffffffffffffffffff821660009081526002602052604090205461086c908290612ad7565b73ffffffffffffffffffffffffffffffffffffffff8316600090815260046020526040902054106109755761089f611eec565b73ffffffffffffffffffffffffffffffffffffffff166347e7ef2483836040518363ffffffff1660e01b81526004016108d99291906127c7565b602060405180830381600087803b1580156108f357600080fd5b505af1158015610907573d6000803e3d6000fd5b505050506040513d601f19601f8201168201806040525081019061092b9190612691565b61096a576040517f08c379a000000000000000000000000000000000000000000000000000000000815260040161096190612a4c565b60405180910390fd5b610975823383611f99565b5050565b60046020526000908152604090205481565b60056020526000908152604090205481565b600881565b600b6020526000908152604090205481565b6015602052816000526040600020818154811061070257600080fd5b6109d9336120a4565b610a0f576040517f08c379a000000000000000000000000000000000000000000000000000000000815260040161096190612a15565b73ffffffffffffffffffffffffffffffffffffffff821660009081526003602052604081208054839290610a44908490612b40565b90915550505050565b606981565b606781565b60005473ffffffffffffffffffffffffffffffffffffffff1681565b600a6020526000908152604090205481565b6012602052816000526040600020818154811061070257600080fd5b600681565b606681565b60096020526000908152604090205481565b60115481565b606581565b601960205260009081526040902080546001820154600283015460038401546004850154600586015460069096015473ffffffffffffffffffffffffffffffffffffffff95861696959094169492939192909187565b600181565b600080610b3284601d4261214e565b9050610b3f8582856121b5565b95945050505050565b610b506121cc565b73ffffffffffffffffffffffffffffffffffffffff16610b6e6110a0565b73ffffffffffffffffffffffffffffffffffffffff1614610bbb576040517f08c379a00000000000000000000000000000000000000000000000000000000081526004016109619061293b565b60015460405160009173ffffffffffffffffffffffffffffffffffffffff16907f8be0079c531659141344cd1fd0a4f28419497f9722a3daafe3b4186f6b6457e0908390a3600180547fffffffffffffffffffffffff0000000000000000000000000000000000000000169055565b600d5481565b73ffffffffffffffffffffffffffffffffffffffff8416600090815260026020526040812054610c61908490612ad7565b73ffffffffffffffffffffffffffffffffffffffff861660009081526004602052604090205410801590610c97575083600e5410155b8015610ca55750600d548410155b15611067576000610cb686866118e4565b90506000610d4b87601a60008a73ffffffffffffffffffffffffffffffffffffffff1673ffffffffffffffffffffffffffffffffffffffff1681526020019081526020016000208481548110610d35577f4e487b7100000000000000000000000000000000000000000000000000000000600052603260045260246000fd5b9060005260206000200154876107c49190612ad7565b90506000640100000000610d5f8784612b03565b610d699190612aef565b905084811061106357610d7a611eec565b73ffffffffffffffffffffffffffffffffffffffff1663b3db428b338a896040518463ffffffff1660e01b8152600401610db693929190612721565b602060405180830381600087803b158015610dd057600080fd5b505af1158015610de4573d6000803e3d6000fd5b505050506040513d601f19601f82011682018060405250810190610e089190612691565b156110635760006002610e1b8389612ad7565b610e259190612aef565b73ffffffffffffffffffffffffffffffffffffffff8a16600090815260026020526040812080549293508392909190610e5f908490612ad7565b909155505073ffffffffffffffffffffffffffffffffffffffff89166000908152601a60205260409020805482919086908110610ec5577f4e487b7100000000000000000000000000000000000000000000000000000000600052603260045260246000fd5b906000526020600020016000828254610ede9190612ad7565b90915550889050610eef8489612b03565b610efb90610e10612b03565b610f059190612aef565b73ffffffffffffffffffffffffffffffffffffffff8a1660009081526005602052604081208054909190610f3a908490612ad7565b9091555050601c8054955085906000610f5283612b57565b90915550506040805160e08101825233815273ffffffffffffffffffffffffffffffffffffffff8b1660208201529081018890526060810183905260808101610f9b8a42612ad7565b815260208082018b90526040918201869052600088815260198252828120845181547fffffffffffffffffffffffff000000000000000000000000000000000000000090811673ffffffffffffffffffffffffffffffffffffffff92831617835586850151600184018054909216908316179055858501516002830155606086015160038301556080860151600483015560a0860151600583015560c090950151600690910155928c16835260148152818320601590915291206110619190868a6121d0565b505b5050505b949350505050565b606a81565b600760209081526000928352604080842090915290825290208054600182015460029092015490919083565b60015473ffffffffffffffffffffffffffffffffffffffff1690565b600e5481565b600281565b600c5481565b600581565b606881565b601c5481565b60086020526000908152604090208054600182015460029092015490919083565b60026020526000908152604090205481565b6000818152601960205260409020805473ffffffffffffffffffffffffffffffffffffffff16331461116e576040517f08c379a000000000000000000000000000000000000000000000000000000000815260040161096190612970565b806004015442116111ab576040517f08c379a0000000000000000000000000000000000000000000000000000000008152600401610961906129de565b6001810154600582015473ffffffffffffffffffffffffffffffffffffffff909116906000906111dc9083906118e4565b905060006002846003015485600201546111f69190612ad7565b6112009190612aef565b73ffffffffffffffffffffffffffffffffffffffff841660009081526002602052604081208054929350839290919061123a908490612b40565b909155505073ffffffffffffffffffffffffffffffffffffffff83166000908152601a602052604090208054829190849081106112a0577f4e487b7100000000000000000000000000000000000000000000000000000000600052603260045260246000fd5b9060005260206000200160008282546112b99190612b40565b909155505073ffffffffffffffffffffffffffffffffffffffff831660009081526016602090815260408083206017909252909120600286015461130092919085906121d0565b73ffffffffffffffffffffffffffffffffffffffff831660009081526002602090815260408083205460039092529091205411806113f45750611341611eec565b845460038601546040517fd9caed1200000000000000000000000000000000000000000000000000000000815273ffffffffffffffffffffffffffffffffffffffff9384169363d9caed12936113a09389939290911691600401612721565b602060405180830381600087803b1580156113ba57600080fd5b505af11580156113ce573d6000803e3d6000fd5b505050506040513d601f19601f820116820180604052508101906113f29190612691565b155b1561147e578354600385015460405173ffffffffffffffffffffffffffffffffffffffff928316928616917fbcab653cf73e12f7bb78aa625dccb002864f5de7de2518796fb5b82fd6e6ab059161144b9190612ab8565b60405180910390a38354600385015461147e91859173ffffffffffffffffffffffffffffffffffffffff9091169061236b565b5050505050565b60105481565b6018602052816000526040600020818154811061070257600080fd5b600481565b601d6020526000908152604090208054600182015460029092015490919083565b601a602052816000526040600020818154811061070257600080fd5b600781565b6017602052816000526040600020818154811061070257600080fd5b60036020526000908152604090205481565b60008061152b84601d42612376565b9050610b3f858260000154856121b5565b6014602052816000526040600020818154811061070257600080fd5b600061156682601d4261214e565b92915050565b6013602052816000526040600020818154811061070257600080fd5b611591336120a4565b6115c7576040517f08c379a000000000000000000000000000000000000000000000000000000000815260040161096190612a15565b6115cf611eec565b73ffffffffffffffffffffffffffffffffffffffff16635acf6903836040518263ffffffff1660e01b81526004016116079190612700565b60206040518083038186803b15801561161f57600080fd5b505afa158015611633573d6000803e3d6000fd5b505050506040513d601f19601f820116820180604052508101906116579190612691565b61168d576040517f08c379a0000000000000000000000000000000000000000000000000000000008152600401610961906129a7565b73ffffffffffffffffffffffffffffffffffffffff8216600090815260036020526040812080548392906116c2908490612ad7565b909155505073ffffffffffffffffffffffffffffffffffffffff82166000908152600360209081526040808320546002909252909120541015610975576040517f08c379a0000000000000000000000000000000000000000000000000000000008152600401610961906127ed565b60065481565b61173f6121cc565b73ffffffffffffffffffffffffffffffffffffffff1661175d6110a0565b73ffffffffffffffffffffffffffffffffffffffff16146117aa576040517f08c379a00000000000000000000000000000000000000000000000000000000081526004016109619061293b565b73ffffffffffffffffffffffffffffffffffffffff81166117f7576040517f08c379a00000000000000000000000000000000000000000000000000000000081526004016109619061284a565b60015460405173ffffffffffffffffffffffffffffffffffffffff8084169216907f8be0079c531659141344cd1fd0a4f28419497f9722a3daafe3b4186f6b6457e090600090a3600180547fffffffffffffffffffffffff00000000000000000000000000000000000000001673ffffffffffffffffffffffffffffffffffffffff92909216919091179055565b73ffffffffffffffffffffffffffffffffffffffff8116600090815260076020908152604080832033845290915290206118bf8282611c70565b6118cf8282338460000154611d2f565b60008082556001820181905560029091015550565b73ffffffffffffffffffffffffffffffffffffffff82166000908152601b602052604081208054600f54839161191991612aef565b9050610b3f8185612aef565b73ffffffffffffffffffffffffffffffffffffffff83166000908152601b60205260408120805483908110611983577f4e487b7100000000000000000000000000000000000000000000000000000000600052603260045260246000fd5b906000526020600020015490506000601860008673ffffffffffffffffffffffffffffffffffffffff1673ffffffffffffffffffffffffffffffffffffffff1681526020019081526020016000208381548110611a09577f4e487b7100000000000000000000000000000000000000000000000000000000600052603260045260246000fd5b906000526020600020015490506000601054601360008873ffffffffffffffffffffffffffffffffffffffff1673ffffffffffffffffffffffffffffffffffffffff1681526020019081526020016000208581548110611a92577f4e487b7100000000000000000000000000000000000000000000000000000000600052603260045260246000fd5b600091825260208083209091015473ffffffffffffffffffffffffffffffffffffffff8a1683526004909152604090912054611ace9190612b03565b611ad89190612aef565b73ffffffffffffffffffffffffffffffffffffffff871660009081526014602052604081208054929350909186908110611b3b577f4e487b7100000000000000000000000000000000000000000000000000000000600052603260045260246000fd5b906000526020600020015490506000601660008973ffffffffffffffffffffffffffffffffffffffff1673ffffffffffffffffffffffffffffffffffffffff1681526020019081526020016000208681548110611bc1577f4e487b7100000000000000000000000000000000000000000000000000000000600052603260045260246000fd5b906000526020600020015490506000601260008a73ffffffffffffffffffffffffffffffffffffffff1673ffffffffffffffffffffffffffffffffffffffff1681526020019081526020016000208781548110611c47577f4e487b7100000000000000000000000000000000000000000000000000000000600052603260045260246000fd5b90600052602060002001549050611c6386868a8787878761240c565b9998505050505050505050565b60018101548015610836576000611c8984600842612376565b8354815491925090611c9d908290856121b5565b808555600090611cae908390612b40565b73ffffffffffffffffffffffffffffffffffffffff8716600090815260096020526040812080549293508392909190611ce8908490612ad7565b909155505073ffffffffffffffffffffffffffffffffffffffff861660009081526002602052604081208054839290611d22908490612ad7565b9091555050505050505050565b6000610e10846002015442611d449190612b40565b611d4e9190612b90565b9050806102581015611d8c576040517f08c379a0000000000000000000000000000000000000000000000000000000008152600401610961906128de565b611d94611eec565b73ffffffffffffffffffffffffffffffffffffffff1663d9caed128685856040518463ffffffff1660e01b8152600401611dd093929190612721565b602060405180830381600087803b158015611dea57600080fd5b505af1158015611dfe573d6000803e3d6000fd5b505050506040513d601f19601f82011682018060405250810190611e229190612691565b611e58576040517f08c379a0000000000000000000000000000000000000000000000000000000008152600401610961906128a7565b81846000016000828254611e6c9190612b40565b909155505073ffffffffffffffffffffffffffffffffffffffff851660009081526009602052604081208054849290611ea6908490612b40565b909155505073ffffffffffffffffffffffffffffffffffffffff851660009081526002602052604081208054849290611ee0908490612b40565b90915550505050505050565b600080546040517f3c9c8f9c00000000000000000000000000000000000000000000000000000000815273ffffffffffffffffffffffffffffffffffffffff90911690633c9c8f9c90611f4490606590600401612aa9565b60206040518083038186803b158015611f5c57600080fd5b505afa158015611f70573d6000803e3d6000fd5b505050506040513d601f19601f82011682018060405250810190611f9491906125a4565b905090565b73ffffffffffffffffffffffffffffffffffffffff8084166000908152600760209081526040808320938616835292905220611fd58482611c70565b73ffffffffffffffffffffffffffffffffffffffff8416600090815260086020526040902054600182015561200c610e1042612b90565b6002820155805482908290600090612025908490612ad7565b909155505073ffffffffffffffffffffffffffffffffffffffff84166000908152600960205260408120805484929061205f908490612ad7565b909155505073ffffffffffffffffffffffffffffffffffffffff841660009081526002602052604081208054849290612099908490612ad7565b909155505050505050565b600080546040517f7ecd187e00000000000000000000000000000000000000000000000000000000815273ffffffffffffffffffffffffffffffffffffffff90911690637ecd187e906120fe90859060039060040161279d565b60206040518083038186803b15801561211657600080fd5b505afa15801561212a573d6000803e3d6000fd5b505050506040513d601f19601f820116820180604052508101906115669190612691565b73ffffffffffffffffffffffffffffffffffffffff831660009081526020839052604081206001015481906121839084612b40565b73ffffffffffffffffffffffffffffffffffffffff86166000908152602086905260409020909150610b3f90826124d8565b6000816121c28486612b03565b6110679190612aef565b3390565b8354600f546000916121e191612aef565b905060006121ef8483612b03565b9050600085858154811061222c577f4e487b7100000000000000000000000000000000000000000000000000000000600052603260045260246000fd5b9060005260206000200154426122429190612b40565b90506000816122518487612b03565b61225b9190612aef565b90506122678284612ad7565b6122718383612b03565b848a89815481106122ab577f4e487b7100000000000000000000000000000000000000000000000000000000600052603260045260246000fd5b90600052602060002001546122c09190612b03565b6122ca9190612ad7565b6122d49190612aef565b88878154811061230d577f4e487b7100000000000000000000000000000000000000000000000000000000600052603260045260246000fd5b906000526020600020018190555042878781548110612355577f4e487b7100000000000000000000000000000000000000000000000000000000600052603260045260246000fd5b6000918252602090912001555050505050505050565b610836838383611f99565b73ffffffffffffffffffffffffffffffffffffffff83166000908152602083815260408083206002808201546001830154918552838620546004865284872054600a875285882054600b9097529490962054600c5493966123df9692959394909392919061240c565b600282015560018101546000906123f69084612b40565b905061240282826124d8565b8255509392505050565b8660006124198842612b40565b905060006006548261242b9190612b03565b905086881015806124595750848610158015612459575061244c8888612b40565b6124568688612b40565b10155b15612485576124688184612b40565b92508264010000000011156124805764010000000092505b6124cb565b87871180156124ae5750858511806124ae57506124a28587612b40565b6124ac8989612b40565b115b156124cb576124bd8184612ad7565b9250838311156124cb578392505b5050979650505050505050565b6000806124e7610e1084612b90565b90506124fa640100000000610e10612b03565b60028501548554839161250c91612b03565b6125169190612b03565b6125209190612aef565b91506000612530610e1085612aef565b905080156125795760005b80821115612577576401000000008660020154856125599190612b03565b6125639190612aef565b93508061256f81612b57565b91505061253b565b505b505092915050565b600060208284031215612592578081fd5b813561259d81612c02565b9392505050565b6000602082840312156125b5578081fd5b815161259d81612c02565b600080604083850312156125d2578081fd5b82356125dd81612c02565b915060208301356125ed81612c02565b809150509250929050565b6000806040838503121561260a578182fd5b823561261581612c02565b946020939093013593505050565b600080600060608486031215612637578081fd5b833561264281612c02565b95602085013595506040909401359392505050565b6000806000806080858703121561266c578081fd5b843561267781612c02565b966020860135965060408601359560600135945092505050565b6000602082840312156126a2578081fd5b8151801515811461259d578182fd5b6000602082840312156126c2578081fd5b5035919050565b6000806000606084860312156126dd578283fd5b8335925060208401356126ef81612c02565b929592945050506040919091013590565b73ffffffffffffffffffffffffffffffffffffffff91909116815260200190565b73ffffffffffffffffffffffffffffffffffffffff9384168152919092166020820152604081019190915260600190565b73ffffffffffffffffffffffffffffffffffffffff978816815295909616602086015260408501939093526060840191909152608083015260a082015260c081019190915260e00190565b73ffffffffffffffffffffffffffffffffffffffff92909216825261ffff16602082015260400190565b73ffffffffffffffffffffffffffffffffffffffff929092168252602082015260400190565b6020808252602e908201527f496e73756666696369656e74206361706974616c20746f206c656e642c20747260408201527f7920616761696e206c6174657221000000000000000000000000000000000000606082015260800190565b60208082526026908201527f4f776e61626c653a206e6577206f776e657220697320746865207a65726f206160408201527f6464726573730000000000000000000000000000000000000000000000000000606082015260800190565b60208082526016908201527f496e73756666696369656e74206c697175696469747900000000000000000000604082015260600190565b6020808252603f908201527f5472696564207769746864726177696e67206f7574736964652073756273637260408201527f697074696f6e2063616e63656c6c6174696f6e2074696d652077696e646f7700606082015260800190565b6020808252818101527f4f776e61626c653a2063616c6c6572206973206e6f7420746865206f776e6572604082015260600190565b60208082526012908201527f4e6f7420686f6c646572206f6620626f6e640000000000000000000000000000604082015260600190565b60208082526015908201527f4e6f7420616e20617070726f76656420746f6b656e0000000000000000000000604082015260600190565b60208082526016908201527f626f6e64206973207374696c6c20696d6d617475726500000000000000000000604082015260600190565b60208082526018908201527f4e6f7420616e20617070726f76656420626f72726f7765720000000000000000604082015260600190565b6020808252602d908201527f436f756c64206e6f74207472616e7366657220626f6e64206465706f7369742060408201527f746f6b656e20746f2066756e6400000000000000000000000000000000000000606082015260800190565b61ffff91909116815260200190565b90815260200190565b9283526020830191909152604082015260600190565b60008219821115612aea57612aea612ba4565b500190565b600082612afe57612afe612bd3565b500490565b6000817fffffffffffffffffffffffffffffffffffffffffffffffffffffffffffffffff0483118215151615612b3b57612b3b612ba4565b500290565b600082821015612b5257612b52612ba4565b500390565b60007fffffffffffffffffffffffffffffffffffffffffffffffffffffffffffffffff821415612b8957612b89612ba4565b5060010190565b600082612b9f57612b9f612bd3565b500690565b7f4e487b7100000000000000000000000000000000000000000000000000000000600052601160045260246000fd5b7f4e487b7100000000000000000000000000000000000000000000000000000000600052601260045260246000fd5b73ffffffffffffffffffffffffffffffffffffffff81168114612c2457600080fd5b5056fea2646970667358221220ff6f5d1e1d69dafab11cb7f5c787f6f30e8c41052deaa698152a4e248269750464736f6c63430008010033",
  "linkReferences": {},
  "deployedLinkReferences": {}
}