{
  "_format": "hh-sol-artifact-1",
  "contractName": "Lending",
  "sourceName": "contracts/Lending.sol",
  "abi": [
    {
      "inputs": [
        {
          "internalType": "address",
          "name": "_roles",
          "type": "address"
        }
      ],
      "stateMutability": "nonpayable",
      "type": "constructor"
    },
    {
      "anonymous": false,
      "inputs": [
        {
          "indexed": true,
          "internalType": "address",
          "name": "token",
          "type": "address"
        },
        {
          "indexed": true,
          "internalType": "address",
          "name": "holder",
          "type": "address"
        },
        {
          "indexed": false,
          "internalType": "uint256",
          "name": "value",
          "type": "uint256"
        }
      ],
      "name": "LiquidityWarning",
      "type": "event"
    },
    {
      "anonymous": false,
      "inputs": [
        {
          "indexed": true,
          "internalType": "address",
          "name": "previousOwner",
          "type": "address"
        },
        {
          "indexed": true,
          "internalType": "address",
          "name": "newOwner",
          "type": "address"
        }
      ],
      "name": "OwnershipTransferred",
      "type": "event"
    },
    {
      "inputs": [
        {
          "internalType": "uint256",
          "name": "balance",
          "type": "uint256"
        },
        {
          "internalType": "address",
          "name": "token",
          "type": "address"
        },
        {
          "internalType": "uint256",
          "name": "yieldQuotientFP",
          "type": "uint256"
        }
      ],
      "name": "applyBorrowInterest",
      "outputs": [
        {
          "internalType": "uint256",
          "name": "",
          "type": "uint256"
        }
      ],
      "stateMutability": "nonpayable",
      "type": "function"
    },
    {
      "inputs": [
        {
          "internalType": "uint256",
          "name": "",
          "type": "uint256"
        }
      ],
      "name": "bonds",
      "outputs": [
        {
          "internalType": "address",
          "name": "holder",
          "type": "address"
        },
        {
          "internalType": "address",
          "name": "token",
          "type": "address"
        },
        {
          "internalType": "uint256",
          "name": "originalPrice",
          "type": "uint256"
        },
        {
          "internalType": "uint256",
          "name": "returnAmount",
          "type": "uint256"
        },
        {
          "internalType": "uint256",
          "name": "maturityTimestamp",
          "type": "uint256"
        },
        {
          "internalType": "uint256",
          "name": "runtime",
          "type": "uint256"
        },
        {
          "internalType": "uint256",
          "name": "yieldFP",
          "type": "uint256"
        }
      ],
      "stateMutability": "view",
      "type": "function"
    },
    {
      "inputs": [
        {
          "internalType": "address",
          "name": "",
          "type": "address"
        }
      ],
      "name": "borrowYieldAccumulators",
      "outputs": [
        {
          "internalType": "uint256",
          "name": "accumulatorFP",
          "type": "uint256"
        },
        {
          "internalType": "uint256",
          "name": "lastUpdated",
          "type": "uint256"
        },
        {
          "internalType": "uint256",
          "name": "hourlyYieldFP",
          "type": "uint256"
        }
      ],
      "stateMutability": "view",
      "type": "function"
    },
    {
      "inputs": [],
      "name": "borrowingMarkupFP",
      "outputs": [
        {
          "internalType": "uint256",
          "name": "",
          "type": "uint256"
        }
      ],
      "stateMutability": "view",
      "type": "function"
    },
    {
      "inputs": [
        {
          "internalType": "address",
          "name": "token",
          "type": "address"
        },
        {
          "internalType": "uint256",
          "name": "runtime",
          "type": "uint256"
        },
        {
          "internalType": "uint256",
          "name": "amount",
          "type": "uint256"
        },
        {
          "internalType": "uint256",
          "name": "minReturn",
          "type": "uint256"
        }
      ],
      "name": "buyBond",
      "outputs": [
        {
          "internalType": "uint256",
          "name": "bondIndex",
          "type": "uint256"
        }
      ],
      "stateMutability": "nonpayable",
      "type": "function"
    },
    {
      "inputs": [
        {
          "internalType": "address",
          "name": "token",
          "type": "address"
        },
        {
          "internalType": "uint256",
          "name": "amount",
          "type": "uint256"
        }
      ],
      "name": "buyHourlyBondSubscription",
      "outputs": [],
      "stateMutability": "nonpayable",
      "type": "function"
    },
    {
      "inputs": [
        {
          "internalType": "address",
          "name": "",
          "type": "address"
        },
        {
          "internalType": "uint256",
          "name": "",
          "type": "uint256"
        }
      ],
      "name": "buyingSpeed",
      "outputs": [
        {
          "internalType": "uint256",
          "name": "",
          "type": "uint256"
        }
      ],
      "stateMutability": "view",
      "type": "function"
    },
    {
      "inputs": [
        {
          "internalType": "address",
          "name": "token",
          "type": "address"
        }
      ],
      "name": "closeHourlyBondAccount",
      "outputs": [],
      "stateMutability": "nonpayable",
      "type": "function"
    },
    {
      "inputs": [],
      "name": "diffMaxMinRuntime",
      "outputs": [
        {
          "internalType": "uint256",
          "name": "",
          "type": "uint256"
        }
      ],
      "stateMutability": "view",
      "type": "function"
    },
    {
      "inputs": [
        {
          "internalType": "address",
          "name": "",
          "type": "address"
        },
        {
          "internalType": "address",
          "name": "",
          "type": "address"
        }
      ],
      "name": "hourlyBondAccounts",
      "outputs": [
        {
          "internalType": "uint256",
          "name": "amount",
          "type": "uint256"
        },
        {
          "internalType": "uint256",
          "name": "yieldQuotientFP",
          "type": "uint256"
        },
        {
          "internalType": "uint256",
          "name": "moduloHour",
          "type": "uint256"
        }
      ],
      "stateMutability": "view",
      "type": "function"
    },
    {
      "inputs": [
        {
          "internalType": "address",
          "name": "",
          "type": "address"
        }
      ],
      "name": "hourlyBondBuyingSpeed",
      "outputs": [
        {
          "internalType": "uint256",
          "name": "",
          "type": "uint256"
        }
      ],
      "stateMutability": "view",
      "type": "function"
    },
    {
      "inputs": [
        {
          "internalType": "address",
          "name": "",
          "type": "address"
        }
      ],
      "name": "hourlyBondWithdrawingSpeed",
      "outputs": [
        {
          "internalType": "uint256",
          "name": "",
          "type": "uint256"
        }
      ],
      "stateMutability": "view",
      "type": "function"
    },
    {
      "inputs": [
        {
          "internalType": "address",
          "name": "",
          "type": "address"
        }
      ],
      "name": "hourlyBondYieldAccumulators",
      "outputs": [
        {
          "internalType": "uint256",
          "name": "accumulatorFP",
          "type": "uint256"
        },
        {
          "internalType": "uint256",
          "name": "lastUpdated",
          "type": "uint256"
        },
        {
          "internalType": "uint256",
          "name": "hourlyYieldFP",
          "type": "uint256"
        }
      ],
      "stateMutability": "view",
      "type": "function"
    },
    {
      "inputs": [],
      "name": "hourlyMaxYield",
      "outputs": [
        {
          "internalType": "uint256",
          "name": "",
          "type": "uint256"
        }
      ],
      "stateMutability": "view",
      "type": "function"
    },
    {
      "inputs": [
        {
          "internalType": "address",
          "name": "",
          "type": "address"
        },
        {
          "internalType": "uint256",
          "name": "",
          "type": "uint256"
        }
      ],
      "name": "lastBought",
      "outputs": [
        {
          "internalType": "uint256",
          "name": "",
          "type": "uint256"
        }
      ],
      "stateMutability": "view",
      "type": "function"
    },
    {
      "inputs": [
        {
          "internalType": "address",
          "name": "",
          "type": "address"
        },
        {
          "internalType": "uint256",
          "name": "",
          "type": "uint256"
        }
      ],
      "name": "lastWithdrawn",
      "outputs": [
        {
          "internalType": "uint256",
          "name": "",
          "type": "uint256"
        }
      ],
      "stateMutability": "view",
      "type": "function"
    },
    {
      "inputs": [
        {
          "internalType": "address",
          "name": "",
          "type": "address"
        }
      ],
      "name": "lendingTarget",
      "outputs": [
        {
          "internalType": "uint256",
          "name": "",
          "type": "uint256"
        }
      ],
      "stateMutability": "view",
      "type": "function"
    },
    {
      "inputs": [],
      "name": "maxRuntime",
      "outputs": [
        {
          "internalType": "uint256",
          "name": "",
          "type": "uint256"
        }
      ],
      "stateMutability": "view",
      "type": "function"
    },
    {
      "inputs": [
        {
          "internalType": "address",
          "name": "",
          "type": "address"
        },
        {
          "internalType": "uint256",
          "name": "",
          "type": "uint256"
        }
      ],
      "name": "maxYield",
      "outputs": [
        {
          "internalType": "uint256",
          "name": "",
          "type": "uint256"
        }
      ],
      "stateMutability": "view",
      "type": "function"
    },
    {
      "inputs": [],
      "name": "minRuntime",
      "outputs": [
        {
          "internalType": "uint256",
          "name": "",
          "type": "uint256"
        }
      ],
      "stateMutability": "view",
      "type": "function"
    },
    {
      "inputs": [],
      "name": "nextBondIndex",
      "outputs": [
        {
          "internalType": "uint256",
          "name": "",
          "type": "uint256"
        }
      ],
      "stateMutability": "view",
      "type": "function"
    },
    {
      "inputs": [],
      "name": "owner",
      "outputs": [
        {
          "internalType": "address",
          "name": "",
          "type": "address"
        }
      ],
      "stateMutability": "view",
      "type": "function"
    },
    {
      "inputs": [
        {
          "internalType": "address",
          "name": "token",
          "type": "address"
        },
        {
          "internalType": "uint256",
          "name": "amount",
          "type": "uint256"
        }
      ],
      "name": "payOff",
      "outputs": [],
      "stateMutability": "nonpayable",
      "type": "function"
    },
    {
      "inputs": [
        {
          "internalType": "address",
          "name": "token",
          "type": "address"
        },
        {
          "internalType": "uint256",
          "name": "amount",
          "type": "uint256"
        }
      ],
      "name": "registerBorrow",
      "outputs": [],
      "stateMutability": "nonpayable",
      "type": "function"
    },
    {
      "inputs": [],
      "name": "renounceOwnership",
      "outputs": [],
      "stateMutability": "nonpayable",
      "type": "function"
    },
    {
      "inputs": [],
      "name": "roles",
      "outputs": [
        {
          "internalType": "contract Roles",
          "name": "",
          "type": "address"
        }
      ],
      "stateMutability": "view",
      "type": "function"
    },
    {
      "inputs": [
        {
          "internalType": "address",
          "name": "",
          "type": "address"
        },
        {
          "internalType": "uint256",
          "name": "",
          "type": "uint256"
        }
      ],
      "name": "runtimeWeights",
      "outputs": [
        {
          "internalType": "uint256",
          "name": "",
          "type": "uint256"
        }
      ],
      "stateMutability": "view",
      "type": "function"
    },
    {
      "inputs": [
        {
          "internalType": "address",
          "name": "",
          "type": "address"
        }
      ],
      "name": "totalBorrowed",
      "outputs": [
        {
          "internalType": "uint256",
          "name": "",
          "type": "uint256"
        }
      ],
      "stateMutability": "view",
      "type": "function"
    },
    {
      "inputs": [
        {
          "internalType": "address",
          "name": "",
          "type": "address"
        }
      ],
      "name": "totalHourlyBond",
      "outputs": [
        {
          "internalType": "uint256",
          "name": "",
          "type": "uint256"
        }
      ],
      "stateMutability": "view",
      "type": "function"
    },
    {
      "inputs": [
        {
          "internalType": "address",
          "name": "",
          "type": "address"
        }
      ],
      "name": "totalHourlyYieldFP",
      "outputs": [
        {
          "internalType": "uint256",
          "name": "",
          "type": "uint256"
        }
      ],
      "stateMutability": "view",
      "type": "function"
    },
    {
      "inputs": [
        {
          "internalType": "address",
          "name": "",
          "type": "address"
        }
      ],
      "name": "totalLending",
      "outputs": [
        {
          "internalType": "uint256",
          "name": "",
          "type": "uint256"
        }
      ],
      "stateMutability": "view",
      "type": "function"
    },
    {
      "inputs": [
        {
          "internalType": "address",
          "name": "",
          "type": "address"
        },
        {
          "internalType": "uint256",
          "name": "",
          "type": "uint256"
        }
      ],
      "name": "totalLendingPerRuntime",
      "outputs": [
        {
          "internalType": "uint256",
          "name": "",
          "type": "uint256"
        }
      ],
      "stateMutability": "view",
      "type": "function"
    },
    {
      "inputs": [
        {
          "internalType": "address",
          "name": "newOwner",
          "type": "address"
        }
      ],
      "name": "transferOwnership",
      "outputs": [],
      "stateMutability": "nonpayable",
      "type": "function"
    },
    {
      "inputs": [
        {
          "internalType": "address",
          "name": "token",
          "type": "address"
        },
        {
          "internalType": "uint256",
          "name": "runtime",
          "type": "uint256"
        },
        {
          "internalType": "uint256",
          "name": "amount",
          "type": "uint256"
        }
      ],
      "name": "viewBondReturn",
      "outputs": [
        {
          "internalType": "uint256",
          "name": "",
          "type": "uint256"
        }
      ],
      "stateMutability": "view",
      "type": "function"
    },
    {
      "inputs": [
        {
          "internalType": "uint256",
          "name": "balance",
          "type": "uint256"
        },
        {
          "internalType": "address",
          "name": "token",
          "type": "address"
        },
        {
          "internalType": "uint256",
          "name": "yieldQuotientFP",
          "type": "uint256"
        }
      ],
      "name": "viewBorrowInterest",
      "outputs": [
        {
          "internalType": "uint256",
          "name": "",
          "type": "uint256"
        }
      ],
      "stateMutability": "view",
      "type": "function"
    },
    {
      "inputs": [
        {
          "internalType": "address",
          "name": "token",
          "type": "address"
        }
      ],
      "name": "viewBorrowingYield",
      "outputs": [
        {
          "internalType": "uint256",
          "name": "",
          "type": "uint256"
        }
      ],
      "stateMutability": "view",
      "type": "function"
    },
    {
      "inputs": [],
      "name": "weightTotal",
      "outputs": [
        {
          "internalType": "uint256",
          "name": "",
          "type": "uint256"
        }
      ],
      "stateMutability": "view",
      "type": "function"
    },
    {
      "inputs": [
        {
          "internalType": "uint256",
          "name": "bondId",
          "type": "uint256"
        }
      ],
      "name": "withdrawBond",
      "outputs": [],
      "stateMutability": "nonpayable",
      "type": "function"
    },
    {
      "inputs": [
        {
          "internalType": "address",
          "name": "token",
          "type": "address"
        },
        {
          "internalType": "uint256",
          "name": "amount",
          "type": "uint256"
        }
      ],
      "name": "withdrawHourlyBond",
      "outputs": [],
      "stateMutability": "nonpayable",
      "type": "function"
    },
    {
      "inputs": [
        {
          "internalType": "address",
          "name": "",
          "type": "address"
        },
        {
          "internalType": "uint256",
          "name": "",
          "type": "uint256"
        }
      ],
      "name": "withdrawingSpeed",
      "outputs": [
        {
          "internalType": "uint256",
          "name": "",
          "type": "uint256"
        }
      ],
      "stateMutability": "view",
      "type": "function"
    },
    {
      "inputs": [],
      "name": "yieldChangePerSecondFP",
      "outputs": [
        {
          "internalType": "uint256",
          "name": "",
          "type": "uint256"
        }
      ],
      "stateMutability": "view",
      "type": "function"
    },
    {
      "inputs": [
        {
          "internalType": "address",
          "name": "",
          "type": "address"
        },
        {
          "internalType": "uint256",
          "name": "",
          "type": "uint256"
        }
      ],
      "name": "yieldLastUpdated",
      "outputs": [
        {
          "internalType": "uint256",
          "name": "",
          "type": "uint256"
        }
      ],
      "stateMutability": "view",
      "type": "function"
    }
  ],
  "bytecode": "0x60806040523480156200001157600080fd5b5060405162002c3b38038062002c3b8339810160408190526200003491620000b2565b600080546001600160a01b0319166001600160a01b03831617815562000059620000ae565b600180546001600160a01b0319166001600160a01b038316908117909155604051919250906000907f8be0079c531659141344cd1fd0a4f28419497f9722a3daafe3b4186f6b6457e0908290a35050620000e2565b3390565b600060208284031215620000c4578081fd5b81516001600160a01b0381168114620000db578182fd5b9392505050565b612b4980620000f26000396000f3fe608060405234801561001057600080fd5b50600436106102de5760003560e01c80638da5cb5b11610186578063d3dc14b2116100e3578063e7bde5c111610097578063f11f979511610071578063f11f9795146105a1578063f2fde38b146105a9578063f884614b146105bc576102de565b8063e7bde5c114610568578063e84bfdf41461057b578063ee0862bf1461058e576102de565b8063e2e1ca2b116100c8578063e2e1ca2b1461052f578063e695fa6814610542578063e69f895914610555576102de565b8063d3dc14b214610509578063dcaf80291461051c576102de565b8063c1cea8071161013a578063c43a683d1161011f578063c43a683d146104db578063c4f7d45d146104e3578063cd3b5dfb146104f6576102de565b8063c1cea807146104b5578063c3daab96146104c8576102de565b8063a8b151a11161016b578063a8b151a114610492578063aa7e321d1461049a578063bfedc0bf146104a2576102de565b80638da5cb5b146104825780639229e73f1461048a576102de565b8063392f5f641161023f5780635f1c17c0116101f3578063773bbb3b116101cd578063773bbb3b146104455780637b8b4ee21461044d57806383a0422914610460576102de565b80635f1c17c014610404578063687680ed1461042a578063715018a61461043d576102de565b806340fe56a91161022457806340fe56a9146103d657806349f7cff6146103e957806358d51f91146103fc576102de565b8063392f5f64146103ae5780633aa58f45146103c3576102de565b80631744a9b61161029657806320b155151161027b57806320b1551514610375578063247ae0a6146103885780632a6a897b1461039b576102de565b80631744a9b61461034f5780631799f0c314610362576102de565b80630bba92b3116102c75780630bba92b3146103145780630f7c43dc1461032757806316de7a431461033c576102de565b80630196c361146102e35780630b5505461461030c575b600080fd5b6102f66102f136600461249a565b6105cf565b6040516103039190612975565b60405180910390f35b6102f6610600565b6102f66103223660046124c5565b610606565b61033a61033536600461249a565b6106d4565b005b61033a61034a36600461249a565b61071f565b6102f661035d366004612423565b61085d565b6102f6610370366004612423565b61086f565b6102f6610383366004612423565b610881565b6102f661039636600461249a565b610893565b61033a6103a936600461249a565b6108af565b6103b661092c565b60405161030391906125a2565b6102f66103d1366004612423565b610948565b6102f66103e436600461249a565b61095a565b6102f66103f7366004612423565b610976565b6102f6610988565b610417610412366004612553565b61098e565b60405161030397969594939291906125f4565b6102f661043836600461256b565b6109e4565b61033a610a09565b6102f6610aeb565b6102f661045b3660046124f9565b610af1565b61047361046e366004612462565b610f30565b6040516103039392919061297e565b6103b6610f5c565b6102f6610f78565b6102f6610f7e565b6102f6610f84565b6104736104b0366004612423565b610f8a565b6102f66104c3366004612423565b610fab565b61033a6104d6366004612553565b610fbd565b6102f6611332565b6102f66104f136600461249a565b611338565b610473610504366004612423565b611354565b6102f661051736600461249a565b611375565b6102f661052a36600461249a565b611391565b6102f661053d366004612423565b6113ad565b6102f661055036600461256b565b6113bf565b6102f661056336600461249a565b6113df565b6102f6610576366004612423565b6113fb565b6102f661058936600461249a565b61140f565b61033a61059c36600461249a565b61142b565b6102f66115d4565b61033a6105b7366004612423565b6115da565b61033a6105ca366004612423565b611728565b601660205281600052604060002081815481106105eb57600080fd5b90600052602060002001600091509150505481565b600f5481565b6000806106138585611787565b905060006106ae86601a60008973ffffffffffffffffffffffffffffffffffffffff1673ffffffffffffffffffffffffffffffffffffffff1681526020019081526020016000208481548110610692577f4e487b7100000000000000000000000000000000000000000000000000000000600052603260045260246000fd5b9060005260206000200154866106a89190612994565b846117c8565b90506401000000006106c085836129c0565b6106ca91906129ac565b9695505050505050565b73ffffffffffffffffffffffffffffffffffffffff82166000908152600760209081526040808320338452909152902061070e8382611b13565b61071a83823385611bd2565b505050565b73ffffffffffffffffffffffffffffffffffffffff8216600090815260026020526040902054610750908290612994565b73ffffffffffffffffffffffffffffffffffffffff83166000908152600460205260409020541061085957610783611d8f565b73ffffffffffffffffffffffffffffffffffffffff166347e7ef2483836040518363ffffffff1660e01b81526004016107bd929190612679565b602060405180830381600087803b1580156107d757600080fd5b505af11580156107eb573d6000803e3d6000fd5b505050506040513d601f19601f8201168201806040525081019061080f9190612533565b61084e576040517f08c379a000000000000000000000000000000000000000000000000000000000815260040161084590612918565b60405180910390fd5b610859823383611e3b565b5050565b60046020526000908152604090205481565b60056020526000908152604090205481565b600b6020526000908152604090205481565b601560205281600052604060002081815481106105eb57600080fd5b6108b833611f46565b6108ee576040517f08c379a0000000000000000000000000000000000000000000000000000000008152600401610845906128e1565b73ffffffffffffffffffffffffffffffffffffffff8216600090815260036020526040812080548392906109239084906129fd565b90915550505050565b60005473ffffffffffffffffffffffffffffffffffffffff1681565b600a6020526000908152604090205481565b601260205281600052604060002081815481106105eb57600080fd5b60096020526000908152604090205481565b60115481565b601960205260009081526040902080546001820154600283015460038401546004850154600586015460069096015473ffffffffffffffffffffffffffffffffffffffff95861696959094169492939192909187565b6000806109f384601d42611ff0565b9050610a00858285612057565b95945050505050565b610a1161206e565b73ffffffffffffffffffffffffffffffffffffffff16610a2f610f5c565b73ffffffffffffffffffffffffffffffffffffffff1614610a7c576040517f08c379a000000000000000000000000000000000000000000000000000000000815260040161084590612807565b60015460405160009173ffffffffffffffffffffffffffffffffffffffff16907f8be0079c531659141344cd1fd0a4f28419497f9722a3daafe3b4186f6b6457e0908390a3600180547fffffffffffffffffffffffff0000000000000000000000000000000000000000169055565b600d5481565b73ffffffffffffffffffffffffffffffffffffffff8416600090815260026020526040812054610b22908490612994565b73ffffffffffffffffffffffffffffffffffffffff861660009081526004602052604090205410801590610b58575083600e5410155b8015610b665750600d548410155b15610f28576000610b778686611787565b90506000610c0c87601a60008a73ffffffffffffffffffffffffffffffffffffffff1673ffffffffffffffffffffffffffffffffffffffff1681526020019081526020016000208481548110610bf6577f4e487b7100000000000000000000000000000000000000000000000000000000600052603260045260246000fd5b9060005260206000200154876106a89190612994565b90506000640100000000610c2087846129c0565b610c2a91906129ac565b9050848110610f2457610c3b611d8f565b73ffffffffffffffffffffffffffffffffffffffff1663b3db428b338a896040518463ffffffff1660e01b8152600401610c77939291906125c3565b602060405180830381600087803b158015610c9157600080fd5b505af1158015610ca5573d6000803e3d6000fd5b505050506040513d601f19601f82011682018060405250810190610cc99190612533565b15610f245760006002610cdc8389612994565b610ce691906129ac565b73ffffffffffffffffffffffffffffffffffffffff8a16600090815260026020526040812080549293508392909190610d20908490612994565b909155505073ffffffffffffffffffffffffffffffffffffffff89166000908152601a60205260409020805482919086908110610d86577f4e487b7100000000000000000000000000000000000000000000000000000000600052603260045260246000fd5b906000526020600020016000828254610d9f9190612994565b90915550889050610db084896129c0565b610dbc90610e106129c0565b610dc691906129ac565b73ffffffffffffffffffffffffffffffffffffffff8a1660009081526005602052604081208054909190610dfb908490612994565b9091555050601c8054955085906000610e1383612a14565b90915550506040805160e08101825233815273ffffffffffffffffffffffffffffffffffffffff8b1660208201529081018890526060810183905260808101610e5c8a42612994565b815260208082018b90526040918201869052600088815260198252828120845181547fffffffffffffffffffffffff000000000000000000000000000000000000000090811673ffffffffffffffffffffffffffffffffffffffff92831617835586850151600184018054909216908316179055858501516002830155606086015160038301556080860151600483015560a0860151600583015560c090950151600690910155928c1683526014815281832060159091529120610f229190868a612072565b505b5050505b949350505050565b600760209081526000928352604080842090915290825290208054600182015460029092015490919083565b60015473ffffffffffffffffffffffffffffffffffffffff1690565b600e5481565b600c5481565b601c5481565b60086020526000908152604090208054600182015460029092015490919083565b60026020526000908152604090205481565b6000818152601960205260409020805473ffffffffffffffffffffffffffffffffffffffff16331461101b576040517f08c379a00000000000000000000000000000000000000000000000000000000081526004016108459061283c565b80600401544211611058576040517f08c379a0000000000000000000000000000000000000000000000000000000008152600401610845906128aa565b6001810154600582015473ffffffffffffffffffffffffffffffffffffffff90911690600090611089908390611787565b905060006002846003015485600201546110a39190612994565b6110ad91906129ac565b73ffffffffffffffffffffffffffffffffffffffff84166000908152600260205260408120805492935083929091906110e79084906129fd565b909155505073ffffffffffffffffffffffffffffffffffffffff83166000908152601a6020526040902080548291908490811061114d577f4e487b7100000000000000000000000000000000000000000000000000000000600052603260045260246000fd5b90600052602060002001600082825461116691906129fd565b909155505073ffffffffffffffffffffffffffffffffffffffff83166000908152601660209081526040808320601790925290912060028601546111ad9291908590612072565b73ffffffffffffffffffffffffffffffffffffffff831660009081526002602090815260408083205460039092529091205411806112a157506111ee611d8f565b845460038601546040517fd9caed1200000000000000000000000000000000000000000000000000000000815273ffffffffffffffffffffffffffffffffffffffff9384169363d9caed129361124d93899392909116916004016125c3565b602060405180830381600087803b15801561126757600080fd5b505af115801561127b573d6000803e3d6000fd5b505050506040513d601f19601f8201168201806040525081019061129f9190612533565b155b1561132b578354600385015460405173ffffffffffffffffffffffffffffffffffffffff928316928616917fbcab653cf73e12f7bb78aa625dccb002864f5de7de2518796fb5b82fd6e6ab05916112f89190612975565b60405180910390a38354600385015461132b91859173ffffffffffffffffffffffffffffffffffffffff9091169061220d565b5050505050565b60105481565b601860205281600052604060002081815481106105eb57600080fd5b601d6020526000908152604090208054600182015460029092015490919083565b601a60205281600052604060002081815481106105eb57600080fd5b601760205281600052604060002081815481106105eb57600080fd5b60036020526000908152604090205481565b6000806113ce84601d42612218565b9050610a0085826000015485612057565b601460205281600052604060002081815481106105eb57600080fd5b600061140982601d42611ff0565b92915050565b601360205281600052604060002081815481106105eb57600080fd5b61143433611f46565b61146a576040517f08c379a0000000000000000000000000000000000000000000000000000000008152600401610845906128e1565b611472611d8f565b73ffffffffffffffffffffffffffffffffffffffff16635acf6903836040518263ffffffff1660e01b81526004016114aa91906125a2565b60206040518083038186803b1580156114c257600080fd5b505afa1580156114d6573d6000803e3d6000fd5b505050506040513d601f19601f820116820180604052508101906114fa9190612533565b611530576040517f08c379a000000000000000000000000000000000000000000000000000000000815260040161084590612873565b73ffffffffffffffffffffffffffffffffffffffff821660009081526003602052604081208054839290611565908490612994565b909155505073ffffffffffffffffffffffffffffffffffffffff82166000908152600360209081526040808320546002909252909120541015610859576040517f08c379a0000000000000000000000000000000000000000000000000000000008152600401610845906126b9565b60065481565b6115e261206e565b73ffffffffffffffffffffffffffffffffffffffff16611600610f5c565b73ffffffffffffffffffffffffffffffffffffffff161461164d576040517f08c379a000000000000000000000000000000000000000000000000000000000815260040161084590612807565b73ffffffffffffffffffffffffffffffffffffffff811661169a576040517f08c379a000000000000000000000000000000000000000000000000000000000815260040161084590612716565b60015460405173ffffffffffffffffffffffffffffffffffffffff8084169216907f8be0079c531659141344cd1fd0a4f28419497f9722a3daafe3b4186f6b6457e090600090a3600180547fffffffffffffffffffffffff00000000000000000000000000000000000000001673ffffffffffffffffffffffffffffffffffffffff92909216919091179055565b73ffffffffffffffffffffffffffffffffffffffff8116600090815260076020908152604080832033845290915290206117628282611b13565b6117728282338460000154611bd2565b60008082556001820181905560029091015550565b73ffffffffffffffffffffffffffffffffffffffff82166000908152601b602052604081208054600f5483916117bc916129ac565b9050610a0081856129ac565b73ffffffffffffffffffffffffffffffffffffffff83166000908152601b60205260408120805483908110611826577f4e487b7100000000000000000000000000000000000000000000000000000000600052603260045260246000fd5b906000526020600020015490506000601860008673ffffffffffffffffffffffffffffffffffffffff1673ffffffffffffffffffffffffffffffffffffffff16815260200190815260200160002083815481106118ac577f4e487b7100000000000000000000000000000000000000000000000000000000600052603260045260246000fd5b906000526020600020015490506000601054601360008873ffffffffffffffffffffffffffffffffffffffff1673ffffffffffffffffffffffffffffffffffffffff1681526020019081526020016000208581548110611935577f4e487b7100000000000000000000000000000000000000000000000000000000600052603260045260246000fd5b600091825260208083209091015473ffffffffffffffffffffffffffffffffffffffff8a168352600490915260409091205461197191906129c0565b61197b91906129ac565b73ffffffffffffffffffffffffffffffffffffffff8716600090815260146020526040812080549293509091869081106119de577f4e487b7100000000000000000000000000000000000000000000000000000000600052603260045260246000fd5b906000526020600020015490506000601660008973ffffffffffffffffffffffffffffffffffffffff1673ffffffffffffffffffffffffffffffffffffffff1681526020019081526020016000208681548110611a64577f4e487b7100000000000000000000000000000000000000000000000000000000600052603260045260246000fd5b906000526020600020015490506000601260008a73ffffffffffffffffffffffffffffffffffffffff1673ffffffffffffffffffffffffffffffffffffffff1681526020019081526020016000208781548110611aea577f4e487b7100000000000000000000000000000000000000000000000000000000600052603260045260246000fd5b90600052602060002001549050611b0686868a878787876122ae565b9998505050505050505050565b6001810154801561071a576000611b2c84600842612218565b8354815491925090611b4090829085612057565b808555600090611b519083906129fd565b73ffffffffffffffffffffffffffffffffffffffff8716600090815260096020526040812080549293508392909190611b8b908490612994565b909155505073ffffffffffffffffffffffffffffffffffffffff861660009081526002602052604081208054839290611bc5908490612994565b9091555050505050505050565b6000610e10846002015442611be791906129fd565b611bf19190612a4d565b9050806102581015611c2f576040517f08c379a0000000000000000000000000000000000000000000000000000000008152600401610845906127aa565b611c37611d8f565b73ffffffffffffffffffffffffffffffffffffffff1663d9caed128685856040518463ffffffff1660e01b8152600401611c73939291906125c3565b602060405180830381600087803b158015611c8d57600080fd5b505af1158015611ca1573d6000803e3d6000fd5b505050506040513d601f19601f82011682018060405250810190611cc59190612533565b611cfb576040517f08c379a000000000000000000000000000000000000000000000000000000000815260040161084590612773565b81846000016000828254611d0f91906129fd565b909155505073ffffffffffffffffffffffffffffffffffffffff851660009081526009602052604081208054849290611d499084906129fd565b909155505073ffffffffffffffffffffffffffffffffffffffff851660009081526002602052604081208054849290611d839084906129fd565b90915550505050505050565b600080546040517f36214c7800000000000000000000000000000000000000000000000000000000815273ffffffffffffffffffffffffffffffffffffffff909116906336214c7890611de690849060040161269f565b60206040518083038186803b158015611dfe57600080fd5b505afa158015611e12573d6000803e3d6000fd5b505050506040513d601f19601f82011682018060405250810190611e369190612446565b905090565b73ffffffffffffffffffffffffffffffffffffffff8084166000908152600760209081526040808320938616835292905220611e778482611b13565b73ffffffffffffffffffffffffffffffffffffffff84166000908152600860205260409020546001820155611eae610e1042612a4d565b6002820155805482908290600090611ec7908490612994565b909155505073ffffffffffffffffffffffffffffffffffffffff841660009081526009602052604081208054849290611f01908490612994565b909155505073ffffffffffffffffffffffffffffffffffffffff841660009081526002602052604081208054849290611f3b908490612994565b909155505050505050565b600080546040517fa716b97f00000000000000000000000000000000000000000000000000000000815273ffffffffffffffffffffffffffffffffffffffff9091169063a716b97f90611fa090859060029060040161263f565b60206040518083038186803b158015611fb857600080fd5b505afa158015611fcc573d6000803e3d6000fd5b505050506040513d601f19601f820116820180604052508101906114099190612533565b73ffffffffffffffffffffffffffffffffffffffff8316600090815260208390526040812060010154819061202590846129fd565b73ffffffffffffffffffffffffffffffffffffffff86166000908152602086905260409020909150610a00908261237a565b60008161206484866129c0565b610f2891906129ac565b3390565b8354600f54600091612083916129ac565b9050600061209184836129c0565b905060008585815481106120ce577f4e487b7100000000000000000000000000000000000000000000000000000000600052603260045260246000fd5b9060005260206000200154426120e491906129fd565b90506000816120f384876129c0565b6120fd91906129ac565b90506121098284612994565b61211383836129c0565b848a898154811061214d577f4e487b7100000000000000000000000000000000000000000000000000000000600052603260045260246000fd5b906000526020600020015461216291906129c0565b61216c9190612994565b61217691906129ac565b8887815481106121af577f4e487b7100000000000000000000000000000000000000000000000000000000600052603260045260246000fd5b9060005260206000200181905550428787815481106121f7577f4e487b7100000000000000000000000000000000000000000000000000000000600052603260045260246000fd5b6000918252602090912001555050505050505050565b61071a838383611e3b565b73ffffffffffffffffffffffffffffffffffffffff83166000908152602083815260408083206002808201546001830154918552838620546004865284872054600a875285882054600b9097529490962054600c549396612281969295939490939291906122ae565b6002820155600181015460009061229890846129fd565b90506122a4828261237a565b8255509392505050565b8660006122bb88426129fd565b90506000600654826122cd91906129c0565b905086881015806122fb57508486101580156122fb57506122ee88886129fd565b6122f886886129fd565b10155b156123275761230a81846129fd565b92508264010000000011156123225764010000000092505b61236d565b8787118015612350575085851180612350575061234485876129fd565b61234e89896129fd565b115b1561236d5761235f8184612994565b92508383111561236d578392505b5050979650505050505050565b600080612389610e1084612a4d565b905061239c640100000000610e106129c0565b6002850154855483916123ae916129c0565b6123b891906129c0565b6123c291906129ac565b915060006123d2610e10856129ac565b9050801561241b5760005b80821115612419576401000000008660020154856123fb91906129c0565b61240591906129ac565b93508061241181612a14565b9150506123dd565b505b505092915050565b600060208284031215612434578081fd5b813561243f81612aee565b9392505050565b600060208284031215612457578081fd5b815161243f81612aee565b60008060408385031215612474578081fd5b823561247f81612aee565b9150602083013561248f81612aee565b809150509250929050565b600080604083850312156124ac578182fd5b82356124b781612aee565b946020939093013593505050565b6000806000606084860312156124d9578081fd5b83356124e481612aee565b95602085013595506040909401359392505050565b6000806000806080858703121561250e578081fd5b843561251981612aee565b966020860135965060408601359560600135945092505050565b600060208284031215612544578081fd5b8151801515811461243f578182fd5b600060208284031215612564578081fd5b5035919050565b60008060006060848603121561257f578283fd5b83359250602084013561259181612aee565b929592945050506040919091013590565b73ffffffffffffffffffffffffffffffffffffffff91909116815260200190565b73ffffffffffffffffffffffffffffffffffffffff9384168152919092166020820152604081019190915260600190565b73ffffffffffffffffffffffffffffffffffffffff978816815295909616602086015260408501939093526060840191909152608083015260a082015260c081019190915260e00190565b73ffffffffffffffffffffffffffffffffffffffff83168152604081016008831061266c5761266c612abf565b8260208301529392505050565b73ffffffffffffffffffffffffffffffffffffffff929092168252602082015260400190565b60208101600683106126b3576126b3612abf565b91905290565b6020808252602e908201527f496e73756666696369656e74206361706974616c20746f206c656e642c20747260408201527f7920616761696e206c6174657221000000000000000000000000000000000000606082015260800190565b60208082526026908201527f4f776e61626c653a206e6577206f776e657220697320746865207a65726f206160408201527f6464726573730000000000000000000000000000000000000000000000000000606082015260800190565b60208082526016908201527f496e73756666696369656e74206c697175696469747900000000000000000000604082015260600190565b6020808252603f908201527f5472696564207769746864726177696e67206f7574736964652073756273637260408201527f697074696f6e2063616e63656c6c6174696f6e2074696d652077696e646f7700606082015260800190565b6020808252818101527f4f776e61626c653a2063616c6c6572206973206e6f7420746865206f776e6572604082015260600190565b60208082526012908201527f4e6f7420686f6c646572206f6620626f6e640000000000000000000000000000604082015260600190565b60208082526015908201527f4e6f7420616e20617070726f76656420746f6b656e0000000000000000000000604082015260600190565b60208082526016908201527f626f6e64206973207374696c6c20696d6d617475726500000000000000000000604082015260600190565b60208082526018908201527f4e6f7420616e20617070726f76656420626f72726f7765720000000000000000604082015260600190565b6020808252602d908201527f436f756c64206e6f74207472616e7366657220626f6e64206465706f7369742060408201527f746f6b656e20746f2066756e6400000000000000000000000000000000000000606082015260800190565b90815260200190565b9283526020830191909152604082015260600190565b600082198211156129a7576129a7612a61565b500190565b6000826129bb576129bb612a90565b500490565b6000817fffffffffffffffffffffffffffffffffffffffffffffffffffffffffffffffff04831182151516156129f8576129f8612a61565b500290565b600082821015612a0f57612a0f612a61565b500390565b60007fffffffffffffffffffffffffffffffffffffffffffffffffffffffffffffffff821415612a4657612a46612a61565b5060010190565b600082612a5c57612a5c612a90565b500690565b7f4e487b7100000000000000000000000000000000000000000000000000000000600052601160045260246000fd5b7f4e487b7100000000000000000000000000000000000000000000000000000000600052601260045260246000fd5b7f4e487b7100000000000000000000000000000000000000000000000000000000600052602160045260246000fd5b73ffffffffffffffffffffffffffffffffffffffff81168114612b1057600080fd5b5056fea26469706673582212205ba639cdc9c25a57ba54f3452534f9d45ee3b894e955e66f801e9db746001c1b64736f6c63430008010033",
  "linkReferences": {},
  "deployedLinkReferences": {}
}