{
  "_format": "hh-sol-artifact-1",
  "contractName": "Lending",
  "sourceName": "contracts/Lending.sol",
  "abi": [
    {
      "inputs": [
        {
          "internalType": "address",
          "name": "_roles",
          "type": "address"
        }
      ],
      "stateMutability": "nonpayable",
      "type": "constructor"
    },
    {
      "anonymous": false,
      "inputs": [
        {
          "indexed": true,
          "internalType": "address",
          "name": "token",
          "type": "address"
        },
        {
          "indexed": true,
          "internalType": "address",
          "name": "holder",
          "type": "address"
        },
        {
          "indexed": false,
          "internalType": "uint256",
          "name": "value",
          "type": "uint256"
        }
      ],
      "name": "LiquidityWarning",
      "type": "event"
    },
    {
      "anonymous": false,
      "inputs": [
        {
          "indexed": true,
          "internalType": "address",
          "name": "previousOwner",
          "type": "address"
        },
        {
          "indexed": true,
          "internalType": "address",
          "name": "newOwner",
          "type": "address"
        }
      ],
      "name": "OwnershipTransferred",
      "type": "event"
    },
    {
      "inputs": [],
      "name": "ADMIN",
      "outputs": [
        {
          "internalType": "uint16",
          "name": "",
          "type": "uint16"
        }
      ],
      "stateMutability": "view",
      "type": "function"
    },
    {
      "inputs": [],
      "name": "AUTHORIZED_FUND_TRADER",
      "outputs": [
        {
          "internalType": "uint16",
          "name": "",
          "type": "uint16"
        }
      ],
      "stateMutability": "view",
      "type": "function"
    },
    {
      "inputs": [],
      "name": "BORROWER",
      "outputs": [
        {
          "internalType": "uint16",
          "name": "",
          "type": "uint16"
        }
      ],
      "stateMutability": "view",
      "type": "function"
    },
    {
      "inputs": [],
      "name": "FEE_CONTROLLER",
      "outputs": [
        {
          "internalType": "uint16",
          "name": "",
          "type": "uint16"
        }
      ],
      "stateMutability": "view",
      "type": "function"
    },
    {
      "inputs": [],
      "name": "FEE_SOURCE",
      "outputs": [
        {
          "internalType": "uint16",
          "name": "",
          "type": "uint16"
        }
      ],
      "stateMutability": "view",
      "type": "function"
    },
    {
      "inputs": [],
      "name": "FUND",
      "outputs": [
        {
          "internalType": "uint16",
          "name": "",
          "type": "uint16"
        }
      ],
      "stateMutability": "view",
      "type": "function"
    },
    {
      "inputs": [],
      "name": "INCENTIVE_REPORTER",
      "outputs": [
        {
          "internalType": "uint16",
          "name": "",
          "type": "uint16"
        }
      ],
      "stateMutability": "view",
      "type": "function"
    },
    {
      "inputs": [],
      "name": "LENDING",
      "outputs": [
        {
          "internalType": "uint16",
          "name": "",
          "type": "uint16"
        }
      ],
      "stateMutability": "view",
      "type": "function"
    },
    {
      "inputs": [],
      "name": "LIQUIDATOR",
      "outputs": [
        {
          "internalType": "uint16",
          "name": "",
          "type": "uint16"
        }
      ],
      "stateMutability": "view",
      "type": "function"
    },
    {
      "inputs": [],
      "name": "MARGIN_CALLER",
      "outputs": [
        {
          "internalType": "uint16",
          "name": "",
          "type": "uint16"
        }
      ],
      "stateMutability": "view",
      "type": "function"
    },
    {
      "inputs": [],
      "name": "MARGIN_TRADER",
      "outputs": [
        {
          "internalType": "uint16",
          "name": "",
          "type": "uint16"
        }
      ],
      "stateMutability": "view",
      "type": "function"
    },
    {
      "inputs": [],
      "name": "MARGIN_TRADING",
      "outputs": [
        {
          "internalType": "uint16",
          "name": "",
          "type": "uint16"
        }
      ],
      "stateMutability": "view",
      "type": "function"
    },
    {
      "inputs": [],
      "name": "PRICE_CONTROLLER",
      "outputs": [
        {
          "internalType": "uint16",
          "name": "",
          "type": "uint16"
        }
      ],
      "stateMutability": "view",
      "type": "function"
    },
    {
      "inputs": [],
      "name": "ROUTER",
      "outputs": [
        {
          "internalType": "uint16",
          "name": "",
          "type": "uint16"
        }
      ],
      "stateMutability": "view",
      "type": "function"
    },
    {
      "inputs": [],
      "name": "TOKEN_ACTIVATOR",
      "outputs": [
        {
          "internalType": "uint16",
          "name": "",
          "type": "uint16"
        }
      ],
      "stateMutability": "view",
      "type": "function"
    },
    {
      "inputs": [],
      "name": "WITHDRAWER",
      "outputs": [
        {
          "internalType": "uint16",
          "name": "",
          "type": "uint16"
        }
      ],
      "stateMutability": "view",
      "type": "function"
    },
    {
      "inputs": [
        {
          "internalType": "uint256",
          "name": "balance",
          "type": "uint256"
        },
        {
          "internalType": "address",
          "name": "token",
          "type": "address"
        },
        {
          "internalType": "uint256",
          "name": "yieldQuotientFP",
          "type": "uint256"
        }
      ],
      "name": "applyBorrowInterest",
      "outputs": [
        {
          "internalType": "uint256",
          "name": "",
          "type": "uint256"
        }
      ],
      "stateMutability": "nonpayable",
      "type": "function"
    },
    {
      "inputs": [
        {
          "internalType": "uint256",
          "name": "",
          "type": "uint256"
        }
      ],
      "name": "bonds",
      "outputs": [
        {
          "internalType": "address",
          "name": "holder",
          "type": "address"
        },
        {
          "internalType": "address",
          "name": "token",
          "type": "address"
        },
        {
          "internalType": "uint256",
          "name": "originalPrice",
          "type": "uint256"
        },
        {
          "internalType": "uint256",
          "name": "returnAmount",
          "type": "uint256"
        },
        {
          "internalType": "uint256",
          "name": "maturityTimestamp",
          "type": "uint256"
        },
        {
          "internalType": "uint256",
          "name": "runtime",
          "type": "uint256"
        },
        {
          "internalType": "uint256",
          "name": "yieldFP",
          "type": "uint256"
        }
      ],
      "stateMutability": "view",
      "type": "function"
    },
    {
      "inputs": [
        {
          "internalType": "address",
          "name": "",
          "type": "address"
        }
      ],
      "name": "borrowYieldAccumulators",
      "outputs": [
        {
          "internalType": "uint256",
          "name": "accumulatorFP",
          "type": "uint256"
        },
        {
          "internalType": "uint256",
          "name": "lastUpdated",
          "type": "uint256"
        },
        {
          "internalType": "uint256",
          "name": "hourlyYieldFP",
          "type": "uint256"
        }
      ],
      "stateMutability": "view",
      "type": "function"
    },
    {
      "inputs": [],
      "name": "borrowingMarkupFP",
      "outputs": [
        {
          "internalType": "uint256",
          "name": "",
          "type": "uint256"
        }
      ],
      "stateMutability": "view",
      "type": "function"
    },
    {
      "inputs": [
        {
          "internalType": "address",
          "name": "token",
          "type": "address"
        },
        {
          "internalType": "uint256",
          "name": "runtime",
          "type": "uint256"
        },
        {
          "internalType": "uint256",
          "name": "amount",
          "type": "uint256"
        },
        {
          "internalType": "uint256",
          "name": "minReturn",
          "type": "uint256"
        }
      ],
      "name": "buyBond",
      "outputs": [
        {
          "internalType": "uint256",
          "name": "bondIndex",
          "type": "uint256"
        }
      ],
      "stateMutability": "nonpayable",
      "type": "function"
    },
    {
      "inputs": [
        {
          "internalType": "address",
          "name": "token",
          "type": "address"
        },
        {
          "internalType": "uint256",
          "name": "amount",
          "type": "uint256"
        }
      ],
      "name": "buyHourlyBondSubscription",
      "outputs": [],
      "stateMutability": "nonpayable",
      "type": "function"
    },
    {
      "inputs": [
        {
          "internalType": "address",
          "name": "",
          "type": "address"
        },
        {
          "internalType": "uint256",
          "name": "",
          "type": "uint256"
        }
      ],
      "name": "buyingSpeed",
      "outputs": [
        {
          "internalType": "uint256",
          "name": "",
          "type": "uint256"
        }
      ],
      "stateMutability": "view",
      "type": "function"
    },
    {
      "inputs": [
        {
          "internalType": "address",
          "name": "token",
          "type": "address"
        }
      ],
      "name": "closeHourlyBondAccount",
      "outputs": [],
      "stateMutability": "nonpayable",
      "type": "function"
    },
    {
      "inputs": [],
      "name": "diffMaxMinRuntime",
      "outputs": [
        {
          "internalType": "uint256",
          "name": "",
          "type": "uint256"
        }
      ],
      "stateMutability": "view",
      "type": "function"
    },
    {
      "inputs": [
        {
          "internalType": "address",
          "name": "",
          "type": "address"
        },
        {
          "internalType": "address",
          "name": "",
          "type": "address"
        }
      ],
      "name": "hourlyBondAccounts",
      "outputs": [
        {
          "internalType": "uint256",
          "name": "amount",
          "type": "uint256"
        },
        {
          "internalType": "uint256",
          "name": "yieldQuotientFP",
          "type": "uint256"
        },
        {
          "internalType": "uint256",
          "name": "moduloHour",
          "type": "uint256"
        }
      ],
      "stateMutability": "view",
      "type": "function"
    },
    {
      "inputs": [
        {
          "internalType": "address",
          "name": "",
          "type": "address"
        }
      ],
      "name": "hourlyBondBuyingSpeed",
      "outputs": [
        {
          "internalType": "uint256",
          "name": "",
          "type": "uint256"
        }
      ],
      "stateMutability": "view",
      "type": "function"
    },
    {
      "inputs": [
        {
          "internalType": "address",
          "name": "",
          "type": "address"
        }
      ],
      "name": "hourlyBondWithdrawingSpeed",
      "outputs": [
        {
          "internalType": "uint256",
          "name": "",
          "type": "uint256"
        }
      ],
      "stateMutability": "view",
      "type": "function"
    },
    {
      "inputs": [
        {
          "internalType": "address",
          "name": "",
          "type": "address"
        }
      ],
      "name": "hourlyBondYieldAccumulators",
      "outputs": [
        {
          "internalType": "uint256",
          "name": "accumulatorFP",
          "type": "uint256"
        },
        {
          "internalType": "uint256",
          "name": "lastUpdated",
          "type": "uint256"
        },
        {
          "internalType": "uint256",
          "name": "hourlyYieldFP",
          "type": "uint256"
        }
      ],
      "stateMutability": "view",
      "type": "function"
    },
    {
      "inputs": [],
      "name": "hourlyMaxYield",
      "outputs": [
        {
          "internalType": "uint256",
          "name": "",
          "type": "uint256"
        }
      ],
      "stateMutability": "view",
      "type": "function"
    },
    {
      "inputs": [
        {
          "internalType": "address",
          "name": "",
          "type": "address"
        },
        {
          "internalType": "uint256",
          "name": "",
          "type": "uint256"
        }
      ],
      "name": "lastBought",
      "outputs": [
        {
          "internalType": "uint256",
          "name": "",
          "type": "uint256"
        }
      ],
      "stateMutability": "view",
      "type": "function"
    },
    {
      "inputs": [
        {
          "internalType": "address",
          "name": "",
          "type": "address"
        },
        {
          "internalType": "uint256",
          "name": "",
          "type": "uint256"
        }
      ],
      "name": "lastWithdrawn",
      "outputs": [
        {
          "internalType": "uint256",
          "name": "",
          "type": "uint256"
        }
      ],
      "stateMutability": "view",
      "type": "function"
    },
    {
      "inputs": [
        {
          "internalType": "address",
          "name": "",
          "type": "address"
        }
      ],
      "name": "lendingTarget",
      "outputs": [
        {
          "internalType": "uint256",
          "name": "",
          "type": "uint256"
        }
      ],
      "stateMutability": "view",
      "type": "function"
    },
    {
      "inputs": [],
      "name": "maxRuntime",
      "outputs": [
        {
          "internalType": "uint256",
          "name": "",
          "type": "uint256"
        }
      ],
      "stateMutability": "view",
      "type": "function"
    },
    {
      "inputs": [
        {
          "internalType": "address",
          "name": "",
          "type": "address"
        },
        {
          "internalType": "uint256",
          "name": "",
          "type": "uint256"
        }
      ],
      "name": "maxYield",
      "outputs": [
        {
          "internalType": "uint256",
          "name": "",
          "type": "uint256"
        }
      ],
      "stateMutability": "view",
      "type": "function"
    },
    {
      "inputs": [],
      "name": "minRuntime",
      "outputs": [
        {
          "internalType": "uint256",
          "name": "",
          "type": "uint256"
        }
      ],
      "stateMutability": "view",
      "type": "function"
    },
    {
      "inputs": [],
      "name": "nextBondIndex",
      "outputs": [
        {
          "internalType": "uint256",
          "name": "",
          "type": "uint256"
        }
      ],
      "stateMutability": "view",
      "type": "function"
    },
    {
      "inputs": [],
      "name": "owner",
      "outputs": [
        {
          "internalType": "address",
          "name": "",
          "type": "address"
        }
      ],
      "stateMutability": "view",
      "type": "function"
    },
    {
      "inputs": [
        {
          "internalType": "address",
          "name": "token",
          "type": "address"
        },
        {
          "internalType": "uint256",
          "name": "amount",
          "type": "uint256"
        }
      ],
      "name": "payOff",
      "outputs": [],
      "stateMutability": "nonpayable",
      "type": "function"
    },
    {
      "inputs": [
        {
          "internalType": "address",
          "name": "token",
          "type": "address"
        },
        {
          "internalType": "uint256",
          "name": "amount",
          "type": "uint256"
        }
      ],
      "name": "registerBorrow",
      "outputs": [],
      "stateMutability": "nonpayable",
      "type": "function"
    },
    {
      "inputs": [],
      "name": "renounceOwnership",
      "outputs": [],
      "stateMutability": "nonpayable",
      "type": "function"
    },
    {
      "inputs": [],
      "name": "roles",
      "outputs": [
        {
          "internalType": "contract Roles",
          "name": "",
          "type": "address"
        }
      ],
      "stateMutability": "view",
      "type": "function"
    },
    {
      "inputs": [
        {
          "internalType": "address",
          "name": "",
          "type": "address"
        },
        {
          "internalType": "uint256",
          "name": "",
          "type": "uint256"
        }
      ],
      "name": "runtimeWeights",
      "outputs": [
        {
          "internalType": "uint256",
          "name": "",
          "type": "uint256"
        }
      ],
      "stateMutability": "view",
      "type": "function"
    },
    {
      "inputs": [
        {
          "internalType": "address",
          "name": "",
          "type": "address"
        }
      ],
      "name": "totalBorrowed",
      "outputs": [
        {
          "internalType": "uint256",
          "name": "",
          "type": "uint256"
        }
      ],
      "stateMutability": "view",
      "type": "function"
    },
    {
      "inputs": [
        {
          "internalType": "address",
          "name": "",
          "type": "address"
        }
      ],
      "name": "totalHourlyBond",
      "outputs": [
        {
          "internalType": "uint256",
          "name": "",
          "type": "uint256"
        }
      ],
      "stateMutability": "view",
      "type": "function"
    },
    {
      "inputs": [
        {
          "internalType": "address",
          "name": "",
          "type": "address"
        }
      ],
      "name": "totalHourlyYieldFP",
      "outputs": [
        {
          "internalType": "uint256",
          "name": "",
          "type": "uint256"
        }
      ],
      "stateMutability": "view",
      "type": "function"
    },
    {
      "inputs": [
        {
          "internalType": "address",
          "name": "",
          "type": "address"
        }
      ],
      "name": "totalLending",
      "outputs": [
        {
          "internalType": "uint256",
          "name": "",
          "type": "uint256"
        }
      ],
      "stateMutability": "view",
      "type": "function"
    },
    {
      "inputs": [
        {
          "internalType": "address",
          "name": "",
          "type": "address"
        },
        {
          "internalType": "uint256",
          "name": "",
          "type": "uint256"
        }
      ],
      "name": "totalLendingPerRuntime",
      "outputs": [
        {
          "internalType": "uint256",
          "name": "",
          "type": "uint256"
        }
      ],
      "stateMutability": "view",
      "type": "function"
    },
    {
      "inputs": [
        {
          "internalType": "address",
          "name": "newOwner",
          "type": "address"
        }
      ],
      "name": "transferOwnership",
      "outputs": [],
      "stateMutability": "nonpayable",
      "type": "function"
    },
    {
      "inputs": [
        {
          "internalType": "address",
          "name": "token",
          "type": "address"
        },
        {
          "internalType": "uint256",
          "name": "runtime",
          "type": "uint256"
        },
        {
          "internalType": "uint256",
          "name": "amount",
          "type": "uint256"
        }
      ],
      "name": "viewBondReturn",
      "outputs": [
        {
          "internalType": "uint256",
          "name": "",
          "type": "uint256"
        }
      ],
      "stateMutability": "view",
      "type": "function"
    },
    {
      "inputs": [
        {
          "internalType": "uint256",
          "name": "balance",
          "type": "uint256"
        },
        {
          "internalType": "address",
          "name": "token",
          "type": "address"
        },
        {
          "internalType": "uint256",
          "name": "yieldQuotientFP",
          "type": "uint256"
        }
      ],
      "name": "viewBorrowInterest",
      "outputs": [
        {
          "internalType": "uint256",
          "name": "",
          "type": "uint256"
        }
      ],
      "stateMutability": "view",
      "type": "function"
    },
    {
      "inputs": [
        {
          "internalType": "address",
          "name": "token",
          "type": "address"
        }
      ],
      "name": "viewBorrowingYield",
      "outputs": [
        {
          "internalType": "uint256",
          "name": "",
          "type": "uint256"
        }
      ],
      "stateMutability": "view",
      "type": "function"
    },
    {
      "inputs": [],
      "name": "weightTotal",
      "outputs": [
        {
          "internalType": "uint256",
          "name": "",
          "type": "uint256"
        }
      ],
      "stateMutability": "view",
      "type": "function"
    },
    {
      "inputs": [
        {
          "internalType": "uint256",
          "name": "bondId",
          "type": "uint256"
        }
      ],
      "name": "withdrawBond",
      "outputs": [],
      "stateMutability": "nonpayable",
      "type": "function"
    },
    {
      "inputs": [
        {
          "internalType": "address",
          "name": "token",
          "type": "address"
        },
        {
          "internalType": "uint256",
          "name": "amount",
          "type": "uint256"
        }
      ],
      "name": "withdrawHourlyBond",
      "outputs": [],
      "stateMutability": "nonpayable",
      "type": "function"
    },
    {
      "inputs": [
        {
          "internalType": "address",
          "name": "",
          "type": "address"
        },
        {
          "internalType": "uint256",
          "name": "",
          "type": "uint256"
        }
      ],
      "name": "withdrawingSpeed",
      "outputs": [
        {
          "internalType": "uint256",
          "name": "",
          "type": "uint256"
        }
      ],
      "stateMutability": "view",
      "type": "function"
    },
    {
      "inputs": [],
      "name": "yieldChangePerSecondFP",
      "outputs": [
        {
          "internalType": "uint256",
          "name": "",
          "type": "uint256"
        }
      ],
      "stateMutability": "view",
      "type": "function"
    },
    {
      "inputs": [
        {
          "internalType": "address",
          "name": "",
          "type": "address"
        },
        {
          "internalType": "uint256",
          "name": "",
          "type": "uint256"
        }
      ],
      "name": "yieldLastUpdated",
      "outputs": [
        {
          "internalType": "uint256",
          "name": "",
          "type": "uint256"
        }
      ],
      "stateMutability": "view",
      "type": "function"
    }
  ],
  "bytecode": "0x60806040523480156200001157600080fd5b5060405162002d7f38038062002d7f8339810160408190526200003491620000b2565b600080546001600160a01b0319166001600160a01b03831617815562000059620000ae565b600180546001600160a01b0319166001600160a01b038316908117909155604051919250906000907f8be0079c531659141344cd1fd0a4f28419497f9722a3daafe3b4186f6b6457e0908290a35050620000e2565b3390565b600060208284031215620000c4578081fd5b81516001600160a01b0381168114620000db578182fd5b9392505050565b612c8d80620000f26000396000f3fe608060405234801561001057600080fd5b506004361061038e5760003560e01c806381ca6600116101de578063c4f7d45d1161010f578063e695fa68116100ad578063ee0862bf1161007c578063ee0862bf146106cb578063f11f9795146106de578063f2fde38b146106e6578063f884614b146106f95761038e565b8063e695fa681461067f578063e69f895914610692578063e7bde5c1146106a5578063e84bfdf4146106b85761038e565b8063d3dc14b2116100e9578063d3dc14b21461063e578063d5d7ed7f14610651578063dcaf802914610659578063e2e1ca2b1461066c5761038e565b8063c4f7d45d14610610578063cacf8d4514610623578063cd3b5dfb1461062b5761038e565b8063a94c7c341161017c578063bfedc0bf11610156578063bfedc0bf146105cf578063c1cea807146105e2578063c3daab96146105f5578063c43a683d146106085761038e565b8063a94c7c34146105b7578063a9cc0536146105bf578063aa7e321d146105c75761038e565b80638da5cb5b116101b85780638da5cb5b146105975780639229e73f1461059f578063a0098d69146105a7578063a8b151a1146105af5761038e565b806381ca66001461056557806383a042291461056d57806383a49c7c1461058f5761038e565b806332fe7b26116102c357806358d51f9111610261578063687680ed11610230578063687680ed1461052f578063715018a614610542578063773bbb3b1461054a5780637b8b4ee2146105525761038e565b806358d51f91146104f15780635c275a39146104f95780635f1c17c01461050157806366941984146105275761038e565b806340fe56a91161029d57806340fe56a9146104bb57806346b88796146104ce57806348fb27b8146104d657806349f7cff6146104de5761038e565b806332fe7b261461048b578063392f5f64146104935780633aa58f45146104a85761038e565b80631799f0c311610330578063247ae0a61161030a578063247ae0a6146104555780632a0acc6a146104685780632a6a897b146104705780632fe94def146104835761038e565b80631799f0c3146104275780631bc5d81d1461043a57806320b15515146104425761038e565b80630bba92b31161036c5780630bba92b3146103d95780630f7c43dc146103ec57806316de7a43146104015780631744a9b6146104145761038e565b80630196c36114610393578063065d570f146103bc5780630b550546146103d1575b600080fd5b6103a66103a1366004612628565b61070c565b6040516103b39190612ae8565b60405180910390f35b6103c461073d565b6040516103b39190612aaf565b6103a6610742565b6103a66103e7366004612653565b610748565b6103ff6103fa366004612628565b610816565b005b6103ff61040f366004612628565b610861565b6103a66104223660046125b1565b61099f565b6103a66104353660046125b1565b6109b1565b6103c46109c3565b6103a66104503660046125b1565b6109c8565b6103a6610463366004612628565b6109da565b6103c46109f6565b6103ff61047e366004612628565b6109fb565b6103c4610a78565b6103c4610a7d565b61049b610a82565b6040516103b39190612730565b6103a66104b63660046125b1565b610a9e565b6103a66104c9366004612628565b610ab0565b6103c4610acc565b6103c4610ad1565b6103a66104ec3660046125b1565b610ad6565b6103a6610ae8565b6103c4610aee565b61051461050f3660046126e1565b610af3565b6040516103b39796959493929190612782565b6103c4610b49565b6103a661053d3660046126f9565b610b4e565b6103ff610b73565b6103a6610c55565b6103a6610560366004612687565b610c5b565b6103c461109a565b61058061057b3660046125f0565b61109f565b6040516103b393929190612af1565b6103c46110cb565b61049b6110d0565b6103a66110ec565b6103c46110f2565b6103a66110f7565b6103c46110fd565b6103c4611102565b6103a6611107565b6105806105dd3660046125b1565b61110d565b6103a66105f03660046125b1565b61112e565b6103ff6106033660046126e1565b611140565b6103a66114b5565b6103a661061e366004612628565b6114bb565b6103c46114d7565b6105806106393660046125b1565b6114dc565b6103a661064c366004612628565b6114fd565b6103c4611519565b6103a6610667366004612628565b61151e565b6103a661067a3660046125b1565b61153a565b6103a661068d3660046126f9565b61154c565b6103a66106a0366004612628565b61156c565b6103a66106b33660046125b1565b611588565b6103a66106c6366004612628565b61159c565b6103ff6106d9366004612628565b6115b8565b6103a6611761565b6103ff6106f43660046125b1565b611767565b6103ff6107073660046125b1565b6118b5565b6016602052816000526040600020818154811061072857600080fd5b90600052602060002001600091509150505481565b600381565b600f5481565b6000806107558585611914565b905060006107f086601a60008973ffffffffffffffffffffffffffffffffffffffff1673ffffffffffffffffffffffffffffffffffffffff16815260200190815260200160002084815481106107d4577f4e487b7100000000000000000000000000000000000000000000000000000000600052603260045260246000fd5b9060005260206000200154866107ea9190612b07565b84611955565b90506401000000006108028583612b33565b61080c9190612b1f565b9695505050505050565b73ffffffffffffffffffffffffffffffffffffffff8216600090815260076020908152604080832033845290915290206108508382611ca0565b61085c83823385611d5f565b505050565b73ffffffffffffffffffffffffffffffffffffffff8216600090815260026020526040902054610892908290612b07565b73ffffffffffffffffffffffffffffffffffffffff83166000908152600460205260409020541061099b576108c5611f1c565b73ffffffffffffffffffffffffffffffffffffffff166347e7ef2483836040518363ffffffff1660e01b81526004016108ff9291906127cd565b602060405180830381600087803b15801561091957600080fd5b505af115801561092d573d6000803e3d6000fd5b505050506040513d601f19601f8201168201806040525081019061095191906126c1565b610990576040517f08c379a000000000000000000000000000000000000000000000000000000000815260040161098790612a52565b60405180910390fd5b61099b823383611fc9565b5050565b60046020526000908152604090205481565b60056020526000908152604090205481565b600881565b600b6020526000908152604090205481565b6015602052816000526040600020818154811061072857600080fd5b606b81565b610a04336120d4565b610a3a576040517f08c379a000000000000000000000000000000000000000000000000000000000815260040161098790612a1b565b73ffffffffffffffffffffffffffffffffffffffff821660009081526003602052604081208054839290610a6f908490612b70565b90915550505050565b606981565b606781565b60005473ffffffffffffffffffffffffffffffffffffffff1681565b600a6020526000908152604090205481565b6012602052816000526040600020818154811061072857600080fd5b600681565b606681565b60096020526000908152604090205481565b60115481565b606581565b601960205260009081526040902080546001820154600283015460038401546004850154600586015460069096015473ffffffffffffffffffffffffffffffffffffffff95861696959094169492939192909187565b600181565b600080610b5d84601d4261217e565b9050610b6a8582856121e5565b95945050505050565b610b7b6121fc565b73ffffffffffffffffffffffffffffffffffffffff16610b996110d0565b73ffffffffffffffffffffffffffffffffffffffff1614610be6576040517f08c379a000000000000000000000000000000000000000000000000000000000815260040161098790612941565b60015460405160009173ffffffffffffffffffffffffffffffffffffffff16907f8be0079c531659141344cd1fd0a4f28419497f9722a3daafe3b4186f6b6457e0908390a3600180547fffffffffffffffffffffffff0000000000000000000000000000000000000000169055565b600d5481565b73ffffffffffffffffffffffffffffffffffffffff8416600090815260026020526040812054610c8c908490612b07565b73ffffffffffffffffffffffffffffffffffffffff861660009081526004602052604090205410801590610cc2575083600e5410155b8015610cd05750600d548410155b15611092576000610ce18686611914565b90506000610d7687601a60008a73ffffffffffffffffffffffffffffffffffffffff1673ffffffffffffffffffffffffffffffffffffffff1681526020019081526020016000208481548110610d60577f4e487b7100000000000000000000000000000000000000000000000000000000600052603260045260246000fd5b9060005260206000200154876107ea9190612b07565b90506000640100000000610d8a8784612b33565b610d949190612b1f565b905084811061108e57610da5611f1c565b73ffffffffffffffffffffffffffffffffffffffff1663b3db428b338a896040518463ffffffff1660e01b8152600401610de193929190612751565b602060405180830381600087803b158015610dfb57600080fd5b505af1158015610e0f573d6000803e3d6000fd5b505050506040513d601f19601f82011682018060405250810190610e3391906126c1565b1561108e5760006002610e468389612b07565b610e509190612b1f565b73ffffffffffffffffffffffffffffffffffffffff8a16600090815260026020526040812080549293508392909190610e8a908490612b07565b909155505073ffffffffffffffffffffffffffffffffffffffff89166000908152601a60205260409020805482919086908110610ef0577f4e487b7100000000000000000000000000000000000000000000000000000000600052603260045260246000fd5b906000526020600020016000828254610f099190612b07565b90915550889050610f1a8489612b33565b610f2690610e10612b33565b610f309190612b1f565b73ffffffffffffffffffffffffffffffffffffffff8a1660009081526005602052604081208054909190610f65908490612b07565b9091555050601c8054955085906000610f7d83612b87565b90915550506040805160e08101825233815273ffffffffffffffffffffffffffffffffffffffff8b1660208201529081018890526060810183905260808101610fc68a42612b07565b815260208082018b90526040918201869052600088815260198252828120845181547fffffffffffffffffffffffff000000000000000000000000000000000000000090811673ffffffffffffffffffffffffffffffffffffffff92831617835586850151600184018054909216908316179055858501516002830155606086015160038301556080860151600483015560a0860151600583015560c090950151600690910155928c168352601481528183206015909152912061108c9190868a612200565b505b5050505b949350505050565b606a81565b600760209081526000928352604080842090915290825290208054600182015460029092015490919083565b600981565b60015473ffffffffffffffffffffffffffffffffffffffff1690565b600e5481565b600281565b600c5481565b600581565b606881565b601c5481565b60086020526000908152604090208054600182015460029092015490919083565b60026020526000908152604090205481565b6000818152601960205260409020805473ffffffffffffffffffffffffffffffffffffffff16331461119e576040517f08c379a000000000000000000000000000000000000000000000000000000000815260040161098790612976565b806004015442116111db576040517f08c379a0000000000000000000000000000000000000000000000000000000008152600401610987906129e4565b6001810154600582015473ffffffffffffffffffffffffffffffffffffffff9091169060009061120c908390611914565b905060006002846003015485600201546112269190612b07565b6112309190612b1f565b73ffffffffffffffffffffffffffffffffffffffff841660009081526002602052604081208054929350839290919061126a908490612b70565b909155505073ffffffffffffffffffffffffffffffffffffffff83166000908152601a602052604090208054829190849081106112d0577f4e487b7100000000000000000000000000000000000000000000000000000000600052603260045260246000fd5b9060005260206000200160008282546112e99190612b70565b909155505073ffffffffffffffffffffffffffffffffffffffff83166000908152601660209081526040808320601790925290912060028601546113309291908590612200565b73ffffffffffffffffffffffffffffffffffffffff831660009081526002602090815260408083205460039092529091205411806114245750611371611f1c565b845460038601546040517fd9caed1200000000000000000000000000000000000000000000000000000000815273ffffffffffffffffffffffffffffffffffffffff9384169363d9caed12936113d09389939290911691600401612751565b602060405180830381600087803b1580156113ea57600080fd5b505af11580156113fe573d6000803e3d6000fd5b505050506040513d601f19601f8201168201806040525081019061142291906126c1565b155b156114ae578354600385015460405173ffffffffffffffffffffffffffffffffffffffff928316928616917fbcab653cf73e12f7bb78aa625dccb002864f5de7de2518796fb5b82fd6e6ab059161147b9190612ae8565b60405180910390a3835460038501546114ae91859173ffffffffffffffffffffffffffffffffffffffff9091169061239b565b5050505050565b60105481565b6018602052816000526040600020818154811061072857600080fd5b600481565b601d6020526000908152604090208054600182015460029092015490919083565b601a602052816000526040600020818154811061072857600080fd5b600781565b6017602052816000526040600020818154811061072857600080fd5b60036020526000908152604090205481565b60008061155b84601d426123a6565b9050610b6a858260000154856121e5565b6014602052816000526040600020818154811061072857600080fd5b600061159682601d4261217e565b92915050565b6013602052816000526040600020818154811061072857600080fd5b6115c1336120d4565b6115f7576040517f08c379a000000000000000000000000000000000000000000000000000000000815260040161098790612a1b565b6115ff611f1c565b73ffffffffffffffffffffffffffffffffffffffff16635acf6903836040518263ffffffff1660e01b81526004016116379190612730565b60206040518083038186803b15801561164f57600080fd5b505afa158015611663573d6000803e3d6000fd5b505050506040513d601f19601f8201168201806040525081019061168791906126c1565b6116bd576040517f08c379a0000000000000000000000000000000000000000000000000000000008152600401610987906129ad565b73ffffffffffffffffffffffffffffffffffffffff8216600090815260036020526040812080548392906116f2908490612b07565b909155505073ffffffffffffffffffffffffffffffffffffffff8216600090815260036020908152604080832054600290925290912054101561099b576040517f08c379a0000000000000000000000000000000000000000000000000000000008152600401610987906127f3565b60065481565b61176f6121fc565b73ffffffffffffffffffffffffffffffffffffffff1661178d6110d0565b73ffffffffffffffffffffffffffffffffffffffff16146117da576040517f08c379a000000000000000000000000000000000000000000000000000000000815260040161098790612941565b73ffffffffffffffffffffffffffffffffffffffff8116611827576040517f08c379a000000000000000000000000000000000000000000000000000000000815260040161098790612850565b60015460405173ffffffffffffffffffffffffffffffffffffffff8084169216907f8be0079c531659141344cd1fd0a4f28419497f9722a3daafe3b4186f6b6457e090600090a3600180547fffffffffffffffffffffffff00000000000000000000000000000000000000001673ffffffffffffffffffffffffffffffffffffffff92909216919091179055565b73ffffffffffffffffffffffffffffffffffffffff8116600090815260076020908152604080832033845290915290206118ef8282611ca0565b6118ff8282338460000154611d5f565b60008082556001820181905560029091015550565b73ffffffffffffffffffffffffffffffffffffffff82166000908152601b602052604081208054600f54839161194991612b1f565b9050610b6a8185612b1f565b73ffffffffffffffffffffffffffffffffffffffff83166000908152601b602052604081208054839081106119b3577f4e487b7100000000000000000000000000000000000000000000000000000000600052603260045260246000fd5b906000526020600020015490506000601860008673ffffffffffffffffffffffffffffffffffffffff1673ffffffffffffffffffffffffffffffffffffffff1681526020019081526020016000208381548110611a39577f4e487b7100000000000000000000000000000000000000000000000000000000600052603260045260246000fd5b906000526020600020015490506000601054601360008873ffffffffffffffffffffffffffffffffffffffff1673ffffffffffffffffffffffffffffffffffffffff1681526020019081526020016000208581548110611ac2577f4e487b7100000000000000000000000000000000000000000000000000000000600052603260045260246000fd5b600091825260208083209091015473ffffffffffffffffffffffffffffffffffffffff8a1683526004909152604090912054611afe9190612b33565b611b089190612b1f565b73ffffffffffffffffffffffffffffffffffffffff871660009081526014602052604081208054929350909186908110611b6b577f4e487b7100000000000000000000000000000000000000000000000000000000600052603260045260246000fd5b906000526020600020015490506000601660008973ffffffffffffffffffffffffffffffffffffffff1673ffffffffffffffffffffffffffffffffffffffff1681526020019081526020016000208681548110611bf1577f4e487b7100000000000000000000000000000000000000000000000000000000600052603260045260246000fd5b906000526020600020015490506000601260008a73ffffffffffffffffffffffffffffffffffffffff1673ffffffffffffffffffffffffffffffffffffffff1681526020019081526020016000208781548110611c77577f4e487b7100000000000000000000000000000000000000000000000000000000600052603260045260246000fd5b90600052602060002001549050611c9386868a8787878761243c565b9998505050505050505050565b6001810154801561085c576000611cb9846008426123a6565b8354815491925090611ccd908290856121e5565b808555600090611cde908390612b70565b73ffffffffffffffffffffffffffffffffffffffff8716600090815260096020526040812080549293508392909190611d18908490612b07565b909155505073ffffffffffffffffffffffffffffffffffffffff861660009081526002602052604081208054839290611d52908490612b07565b9091555050505050505050565b6000610e10846002015442611d749190612b70565b611d7e9190612bc0565b9050806102581015611dbc576040517f08c379a0000000000000000000000000000000000000000000000000000000008152600401610987906128e4565b611dc4611f1c565b73ffffffffffffffffffffffffffffffffffffffff1663d9caed128685856040518463ffffffff1660e01b8152600401611e0093929190612751565b602060405180830381600087803b158015611e1a57600080fd5b505af1158015611e2e573d6000803e3d6000fd5b505050506040513d601f19601f82011682018060405250810190611e5291906126c1565b611e88576040517f08c379a0000000000000000000000000000000000000000000000000000000008152600401610987906128ad565b81846000016000828254611e9c9190612b70565b909155505073ffffffffffffffffffffffffffffffffffffffff851660009081526009602052604081208054849290611ed6908490612b70565b909155505073ffffffffffffffffffffffffffffffffffffffff851660009081526002602052604081208054849290611f10908490612b70565b90915550505050505050565b600080546040517f3c9c8f9c00000000000000000000000000000000000000000000000000000000815273ffffffffffffffffffffffffffffffffffffffff90911690633c9c8f9c90611f7490606590600401612aaf565b60206040518083038186803b158015611f8c57600080fd5b505afa158015611fa0573d6000803e3d6000fd5b505050506040513d601f19601f82011682018060405250810190611fc491906125d4565b905090565b73ffffffffffffffffffffffffffffffffffffffff80841660009081526007602090815260408083209386168352929052206120058482611ca0565b73ffffffffffffffffffffffffffffffffffffffff8416600090815260086020526040902054600182015561203c610e1042612bc0565b6002820155805482908290600090612055908490612b07565b909155505073ffffffffffffffffffffffffffffffffffffffff84166000908152600960205260408120805484929061208f908490612b07565b909155505073ffffffffffffffffffffffffffffffffffffffff8416600090815260026020526040812080548492906120c9908490612b07565b909155505050505050565b600080546040517fd87fefd200000000000000000000000000000000000000000000000000000000815273ffffffffffffffffffffffffffffffffffffffff9091169063d87fefd29061212e906003908690600401612abe565b60206040518083038186803b15801561214657600080fd5b505afa15801561215a573d6000803e3d6000fd5b505050506040513d601f19601f8201168201806040525081019061159691906126c1565b73ffffffffffffffffffffffffffffffffffffffff831660009081526020839052604081206001015481906121b39084612b70565b73ffffffffffffffffffffffffffffffffffffffff86166000908152602086905260409020909150610b6a9082612508565b6000816121f28486612b33565b6110929190612b1f565b3390565b8354600f5460009161221191612b1f565b9050600061221f8483612b33565b9050600085858154811061225c577f4e487b7100000000000000000000000000000000000000000000000000000000600052603260045260246000fd5b9060005260206000200154426122729190612b70565b90506000816122818487612b33565b61228b9190612b1f565b90506122978284612b07565b6122a18383612b33565b848a89815481106122db577f4e487b7100000000000000000000000000000000000000000000000000000000600052603260045260246000fd5b90600052602060002001546122f09190612b33565b6122fa9190612b07565b6123049190612b1f565b88878154811061233d577f4e487b7100000000000000000000000000000000000000000000000000000000600052603260045260246000fd5b906000526020600020018190555042878781548110612385577f4e487b7100000000000000000000000000000000000000000000000000000000600052603260045260246000fd5b6000918252602090912001555050505050505050565b61085c838383611fc9565b73ffffffffffffffffffffffffffffffffffffffff83166000908152602083815260408083206002808201546001830154918552838620546004865284872054600a875285882054600b9097529490962054600c54939661240f9692959394909392919061243c565b600282015560018101546000906124269084612b70565b90506124328282612508565b8255509392505050565b8660006124498842612b70565b905060006006548261245b9190612b33565b905086881015806124895750848610158015612489575061247c8888612b70565b6124868688612b70565b10155b156124b5576124988184612b70565b92508264010000000011156124b05764010000000092505b6124fb565b87871180156124de5750858511806124de57506124d28587612b70565b6124dc8989612b70565b115b156124fb576124ed8184612b07565b9250838311156124fb578392505b5050979650505050505050565b600080612517610e1084612bc0565b905061252a640100000000610e10612b33565b60028501548554839161253c91612b33565b6125469190612b33565b6125509190612b1f565b91506000612560610e1085612b1f565b905080156125a95760005b808211156125a7576401000000008660020154856125899190612b33565b6125939190612b1f565b93508061259f81612b87565b91505061256b565b505b505092915050565b6000602082840312156125c2578081fd5b81356125cd81612c32565b9392505050565b6000602082840312156125e5578081fd5b81516125cd81612c32565b60008060408385031215612602578081fd5b823561260d81612c32565b9150602083013561261d81612c32565b809150509250929050565b6000806040838503121561263a578182fd5b823561264581612c32565b946020939093013593505050565b600080600060608486031215612667578081fd5b833561267281612c32565b95602085013595506040909401359392505050565b6000806000806080858703121561269c578081fd5b84356126a781612c32565b966020860135965060408601359560600135945092505050565b6000602082840312156126d2578081fd5b815180151581146125cd578182fd5b6000602082840312156126f2578081fd5b5035919050565b60008060006060848603121561270d578283fd5b83359250602084013561271f81612c32565b929592945050506040919091013590565b73ffffffffffffffffffffffffffffffffffffffff91909116815260200190565b73ffffffffffffffffffffffffffffffffffffffff9384168152919092166020820152604081019190915260600190565b73ffffffffffffffffffffffffffffffffffffffff978816815295909616602086015260408501939093526060840191909152608083015260a082015260c081019190915260e00190565b73ffffffffffffffffffffffffffffffffffffffff929092168252602082015260400190565b6020808252602e908201527f496e73756666696369656e74206361706974616c20746f206c656e642c20747260408201527f7920616761696e206c6174657221000000000000000000000000000000000000606082015260800190565b60208082526026908201527f4f776e61626c653a206e6577206f776e657220697320746865207a65726f206160408201527f6464726573730000000000000000000000000000000000000000000000000000606082015260800190565b60208082526016908201527f496e73756666696369656e74206c697175696469747900000000000000000000604082015260600190565b6020808252603f908201527f5472696564207769746864726177696e67206f7574736964652073756273637260408201527f697074696f6e2063616e63656c6c6174696f6e2074696d652077696e646f7700606082015260800190565b6020808252818101527f4f776e61626c653a2063616c6c6572206973206e6f7420746865206f776e6572604082015260600190565b60208082526012908201527f4e6f7420686f6c646572206f6620626f6e640000000000000000000000000000604082015260600190565b60208082526015908201527f4e6f7420616e20617070726f76656420746f6b656e0000000000000000000000604082015260600190565b60208082526016908201527f626f6e64206973207374696c6c20696d6d617475726500000000000000000000604082015260600190565b60208082526018908201527f4e6f7420616e20617070726f76656420626f72726f7765720000000000000000604082015260600190565b6020808252602d908201527f436f756c64206e6f74207472616e7366657220626f6e64206465706f7369742060408201527f746f6b656e20746f2066756e6400000000000000000000000000000000000000606082015260800190565b61ffff91909116815260200190565b61ffff92909216825273ffffffffffffffffffffffffffffffffffffffff16602082015260400190565b90815260200190565b9283526020830191909152604082015260600190565b60008219821115612b1a57612b1a612bd4565b500190565b600082612b2e57612b2e612c03565b500490565b6000817fffffffffffffffffffffffffffffffffffffffffffffffffffffffffffffffff0483118215151615612b6b57612b6b612bd4565b500290565b600082821015612b8257612b82612bd4565b500390565b60007fffffffffffffffffffffffffffffffffffffffffffffffffffffffffffffffff821415612bb957612bb9612bd4565b5060010190565b600082612bcf57612bcf612c03565b500690565b7f4e487b7100000000000000000000000000000000000000000000000000000000600052601160045260246000fd5b7f4e487b7100000000000000000000000000000000000000000000000000000000600052601260045260246000fd5b73ffffffffffffffffffffffffffffffffffffffff81168114612c5457600080fd5b5056fea26469706673582212203cf7250532ca49806340fc1a7fd29810e45030c355678c159249de43f3c760dc64736f6c63430008010033",
  "linkReferences": {},
  "deployedLinkReferences": {}
}