{
  "_format": "hh-sol-artifact-1",
  "contractName": "Price",
  "sourceName": "contracts/Price.sol",
  "abi": [
    {
      "inputs": [
        {
          "internalType": "address",
          "name": "_peg",
          "type": "address"
        },
        {
          "internalType": "address",
          "name": "_roles",
          "type": "address"
        }
      ],
      "stateMutability": "nonpayable",
      "type": "constructor"
    },
    {
      "anonymous": false,
      "inputs": [
        {
          "indexed": true,
          "internalType": "address",
          "name": "previousOwner",
          "type": "address"
        },
        {
          "indexed": true,
          "internalType": "address",
          "name": "newOwner",
          "type": "address"
        }
      ],
      "name": "OwnershipTransferred",
      "type": "event"
    },
    {
      "inputs": [
        {
          "internalType": "address",
          "name": "token",
          "type": "address"
        },
        {
          "internalType": "uint256",
          "name": "outAmount",
          "type": "uint256"
        }
      ],
      "name": "getCostInPeg",
      "outputs": [
        {
          "internalType": "uint256",
          "name": "",
          "type": "uint256"
        }
      ],
      "stateMutability": "view",
      "type": "function"
    },
    {
      "inputs": [
        {
          "internalType": "address",
          "name": "token",
          "type": "address"
        },
        {
          "internalType": "uint256",
          "name": "inAmount",
          "type": "uint256"
        }
      ],
      "name": "getCurrentPriceInPeg",
      "outputs": [
        {
          "internalType": "uint256",
          "name": "",
          "type": "uint256"
        }
      ],
      "stateMutability": "view",
      "type": "function"
    },
    {
      "inputs": [
        {
          "internalType": "address",
          "name": "token",
          "type": "address"
        },
        {
          "internalType": "uint256",
          "name": "inAmount",
          "type": "uint256"
        }
      ],
      "name": "getUpdatedPriceInPeg",
      "outputs": [
        {
          "internalType": "uint256",
          "name": "",
          "type": "uint256"
        }
      ],
      "stateMutability": "nonpayable",
      "type": "function"
    },
    {
      "inputs": [
        {
          "internalType": "address",
          "name": "token",
          "type": "address"
        },
        {
          "internalType": "uint256",
          "name": "targetAmount",
          "type": "uint256"
        }
      ],
      "name": "liquidateFromPeg",
      "outputs": [
        {
          "internalType": "uint256",
          "name": "",
          "type": "uint256"
        }
      ],
      "stateMutability": "nonpayable",
      "type": "function"
    },
    {
      "inputs": [
        {
          "internalType": "address",
          "name": "token",
          "type": "address"
        },
        {
          "internalType": "uint256",
          "name": "amount",
          "type": "uint256"
        }
      ],
      "name": "liquidateToPeg",
      "outputs": [
        {
          "internalType": "uint256",
          "name": "",
          "type": "uint256"
        }
      ],
      "stateMutability": "nonpayable",
      "type": "function"
    },
    {
      "inputs": [],
      "name": "owner",
      "outputs": [
        {
          "internalType": "address",
          "name": "",
          "type": "address"
        }
      ],
      "stateMutability": "view",
      "type": "function"
    },
    {
      "inputs": [],
      "name": "peg",
      "outputs": [
        {
          "internalType": "address",
          "name": "",
          "type": "address"
        }
      ],
      "stateMutability": "view",
      "type": "function"
    },
    {
      "inputs": [],
      "name": "renounceOwnership",
      "outputs": [],
      "stateMutability": "nonpayable",
      "type": "function"
    },
    {
      "inputs": [],
      "name": "roles",
      "outputs": [
        {
          "internalType": "contract Roles",
          "name": "",
          "type": "address"
        }
      ],
      "stateMutability": "view",
      "type": "function"
    },
    {
      "inputs": [
        {
          "internalType": "address[]",
          "name": "path",
          "type": "address[]"
        }
      ],
      "name": "setLiquidationPath",
      "outputs": [],
      "stateMutability": "nonpayable",
      "type": "function"
    },
    {
      "inputs": [
        {
          "internalType": "address",
          "name": "newOwner",
          "type": "address"
        }
      ],
      "name": "transferOwnership",
      "outputs": [],
      "stateMutability": "nonpayable",
      "type": "function"
    }
  ],
  "bytecode": "0x60806040523480156200001157600080fd5b506040516200184c3803806200184c8339810160408190526200003491620000ef565b600080546001600160a01b0319166001600160a01b03831617815562000059620000ce565b600180546001600160a01b0319166001600160a01b038316908117909155604051919250906000907f8be0079c531659141344cd1fd0a4f28419497f9722a3daafe3b4186f6b6457e0908290a35050600280546001600160a01b0319166001600160a01b039290921691909117905562000126565b3390565b80516001600160a01b0381168114620000ea57600080fd5b919050565b6000806040838503121562000102578182fd5b6200010d83620000d2565b91506200011d60208401620000d2565b90509250929050565b61171680620001366000396000f3fe608060405234801561001057600080fd5b50600436106100c95760003560e01c80636cd7bc4b11610081578063e47109a91161005b578063e47109a91461015f578063e62db16014610172578063f2fde38b14610185576100c9565b80636cd7bc4b1461013a578063715018a61461014f5780638da5cb5b14610157576100c9565b806337487fd5116100b257806337487fd51461010c578063392f5f641461011f5780634cb7766214610127576100c9565b806305883f7c146100ce5780631f1cb62b146100f7575b600080fd5b6100e16100dc3660046110c5565b610198565b6040516100ee91906114f2565b60405180910390f35b6100ff61049f565b6040516100ee9190611246565b6100e161011a3660046110c5565b6104bb565b6100ff61079a565b6100e16101353660046110c5565b6107b6565b61014d6101483660046110f0565b61088c565b005b61014d610902565b6100ff6109e4565b6100e161016d3660046110c5565b610a00565b6100e16101803660046110c5565b610c3e565b61014d610193366004611086565b610ddd565b60006101a333610f2b565b6101e2576040517f08c379a00000000000000000000000000000000000000000000000000000000081526004016101d9906113a6565b60405180910390fd5b60025473ffffffffffffffffffffffffffffffffffffffff8481169116141561020c575080610499565b73ffffffffffffffffffffffffffffffffffffffff83166000908152600360209081526040808320815160a08101835281548152600182018054845181870281018701909552808552919492938584019390929083018282801561028f57602002820191906000526020600020905b81548152602001906001019080831161027b575b50505050508152602001600282015481526020016003820180548060200260200160405190810160405280929190818152602001828054801561030857602002820191906000526020600020905b815473ffffffffffffffffffffffffffffffffffffffff1681526001909101906020018083116102dd575b505050505081526020016004820180548060200260200160405190810160405280929190818152602001828054801561037757602002820191906000526020600020905b815473ffffffffffffffffffffffffffffffffffffffff16815260019091019060200180831161034c575b5050505050815250509050600061038c610fd5565b73ffffffffffffffffffffffffffffffffffffffff16630aa29f1c600086600086606001516040518563ffffffff1660e01b81526004016103d09493929190611314565b600060405180830381600087803b1580156103ea57600080fd5b505af11580156103fe573d6000803e3d6000fd5b505050506040513d6000823e601f3d9081017fffffffffffffffffffffffffffffffffffffffffffffffffffffffffffffffe0168201604052610444919081019061118e565b9050806001825161045591906115d7565b8151811061048c577f4e487b7100000000000000000000000000000000000000000000000000000000600052603260045260246000fd5b6020026020010151925050505b92915050565b60025473ffffffffffffffffffffffffffffffffffffffff1681565b60006104c633610f2b565b6104fc576040517f08c379a00000000000000000000000000000000000000000000000000000000081526004016101d9906113a6565b60025473ffffffffffffffffffffffffffffffffffffffff84811691161415610526575080610499565b73ffffffffffffffffffffffffffffffffffffffff83166000908152600360209081526040808320815160a0810183528154815260018201805484518187028101870190955280855291949293858401939092908301828280156105a957602002820191906000526020600020905b815481526020019060010190808311610595575b50505050508152602001600282015481526020016003820180548060200260200160405190810160405280929190818152602001828054801561062257602002820191906000526020600020905b815473ffffffffffffffffffffffffffffffffffffffff1681526001909101906020018083116105f7575b505050505081526020016004820180548060200260200160405190810160405280929190818152602001828054801561069157602002820191906000526020600020905b815473ffffffffffffffffffffffffffffffffffffffff168152600190910190602001808311610666575b505050505081525050905060006106a6610fd5565b73ffffffffffffffffffffffffffffffffffffffff16631f2a6743600086600086608001516040518563ffffffff1660e01b81526004016106ea9493929190611314565b600060405180830381600087803b15801561070457600080fd5b505af1158015610718573d6000803e3d6000fd5b505050506040513d6000823e601f3d9081017fffffffffffffffffffffffffffffffffffffffffffffffffffffffffffffffe016820160405261075e919081019061118e565b90508060008151811061048c577f4e487b7100000000000000000000000000000000000000000000000000000000600052603260045260246000fd5b60005473ffffffffffffffffffffffffffffffffffffffff1681565b73ffffffffffffffffffffffffffffffffffffffff8216600090815260036020819052604082209081015460011061081a576040517f08c379a00000000000000000000000000000000000000000000000000000000081526004016101d990611460565b8060010181600201548154811061085a577f4e487b7100000000000000000000000000000000000000000000000000000000600052603260045260246000fd5b906000526020600020015483683635c9adc5dea0000061087a919061159a565b6108849190611586565b949350505050565b610894611082565b73ffffffffffffffffffffffffffffffffffffffff166108b26109e4565b73ffffffffffffffffffffffffffffffffffffffff16146108ff576040517f08c379a00000000000000000000000000000000000000000000000000000000081526004016101d9906114bd565b50565b61090a611082565b73ffffffffffffffffffffffffffffffffffffffff166109286109e4565b73ffffffffffffffffffffffffffffffffffffffff1614610975576040517f08c379a00000000000000000000000000000000000000000000000000000000081526004016101d9906114bd565b60015460405160009173ffffffffffffffffffffffffffffffffffffffff16907f8be0079c531659141344cd1fd0a4f28419497f9722a3daafe3b4186f6b6457e0908390a3600180547fffffffffffffffffffffffff0000000000000000000000000000000000000000169055565b60015473ffffffffffffffffffffffffffffffffffffffff1690565b60025460009073ffffffffffffffffffffffffffffffffffffffff84811691161415610a2d575080610499565b73ffffffffffffffffffffffffffffffffffffffff8316600090815260036020819052604090912090810154600110610a92576040517f08c379a00000000000000000000000000000000000000000000000000000000081526004016101d990611460565b6000610a9c610fd5565b73ffffffffffffffffffffffffffffffffffffffff1663eaa095f8600086856003016040518463ffffffff1660e01b8152600401610adc939291906112a1565b60006040518083038186803b158015610af457600080fd5b505afa158015610b08573d6000803e3d6000fd5b505050506040513d6000823e601f3d9081017fffffffffffffffffffffffffffffffffffffffffffffffffffffffffffffffe0168201604052610b4e919081019061118e565b905060008160018351610b6191906115d7565b81518110610b98577f4e487b7100000000000000000000000000000000000000000000000000000000600052603260045260246000fd5b60200260200101519050826001018054905083600201546001610bbb919061156e565b610bc591906115ee565b600284015580610bde86683635c9adc5dea0000061159a565b610be89190611586565b83600101846002015481548110610c28577f4e487b7100000000000000000000000000000000000000000000000000000000600052603260045260246000fd5b6000918252602090912001559250610499915050565b60025460009073ffffffffffffffffffffffffffffffffffffffff84811691161415610c6b575080610499565b73ffffffffffffffffffffffffffffffffffffffff831660009081526003602052604090206004810154600110610cce576040517f08c379a00000000000000000000000000000000000000000000000000000000081526004016101d990611460565b6000610cd8610fd5565b73ffffffffffffffffffffffffffffffffffffffff166390b931ed600086856004016040518463ffffffff1660e01b8152600401610d18939291906112a1565b60006040518083038186803b158015610d3057600080fd5b505afa158015610d44573d6000803e3d6000fd5b505050506040513d6000823e601f3d9081017fffffffffffffffffffffffffffffffffffffffffffffffffffffffffffffffe0168201604052610d8a919081019061118e565b9050600081600081518110610dc8577f4e487b7100000000000000000000000000000000000000000000000000000000600052603260045260246000fd5b60200260200101519050809350505050610499565b610de5611082565b73ffffffffffffffffffffffffffffffffffffffff16610e036109e4565b73ffffffffffffffffffffffffffffffffffffffff1614610e50576040517f08c379a00000000000000000000000000000000000000000000000000000000081526004016101d9906114bd565b73ffffffffffffffffffffffffffffffffffffffff8116610e9d576040517f08c379a00000000000000000000000000000000000000000000000000000000081526004016101d990611403565b60015460405173ffffffffffffffffffffffffffffffffffffffff8084169216907f8be0079c531659141344cd1fd0a4f28419497f9722a3daafe3b4186f6b6457e090600090a3600180547fffffffffffffffffffffffff00000000000000000000000000000000000000001673ffffffffffffffffffffffffffffffffffffffff92909216919091179055565b600080546040517fa716b97f00000000000000000000000000000000000000000000000000000000815273ffffffffffffffffffffffffffffffffffffffff9091169063a716b97f90610f85908590600590600401611267565b60206040518083038186803b158015610f9d57600080fd5b505afa158015610fb1573d6000803e3d6000fd5b505050506040513d601f19601f820116820180604052508101906104999190611212565b600080546040517f36214c7800000000000000000000000000000000000000000000000000000000815273ffffffffffffffffffffffffffffffffffffffff909116906336214c789061102d9060029060040161138c565b60206040518083038186803b15801561104557600080fd5b505afa158015611059573d6000803e3d6000fd5b505050506040513d601f19601f8201168201806040525081019061107d91906110a9565b905090565b3390565b600060208284031215611097578081fd5b81356110a2816116be565b9392505050565b6000602082840312156110ba578081fd5b81516110a2816116be565b600080604083850312156110d7578081fd5b82356110e2816116be565b946020939093013593505050565b60006020808385031215611102578182fd5b823567ffffffffffffffff811115611118578283fd5b8301601f81018513611128578283fd5b803561113b6111368261154a565b6114fb565b8181528381019083850185840285018601891015611157578687fd5b8694505b8385101561118257803561116e816116be565b83526001949094019391850191850161115b565b50979650505050505050565b600060208083850312156111a0578182fd5b825167ffffffffffffffff8111156111b6578283fd5b8301601f810185136111c6578283fd5b80516111d46111368261154a565b81815283810190838501858402850186018910156111f0578687fd5b8694505b838510156111825780518352600194909401939185019185016111f4565b600060208284031215611223578081fd5b815180151581146110a2578182fd5b6004811061124257611242611660565b9052565b73ffffffffffffffffffffffffffffffffffffffff91909116815260200190565b73ffffffffffffffffffffffffffffffffffffffff83168152604081016008831061129457611294611660565b8260208301529392505050565b6000606082016112b18387611232565b602083810186905260606040850152845491829052848352808320916080850190845b8181101561130657845473ffffffffffffffffffffffffffffffffffffffff16835260019485019492840192016112d4565b509098975050505050505050565b6000608082016113248388611232565b602086818501528560408501526080606085015281855180845260a0860191508287019350845b8181101561137d57845173ffffffffffffffffffffffffffffffffffffffff168352938301939183019160010161134b565b50909998505050505050505050565b60208101600683106113a0576113a0611660565b91905290565b6020808252602f908201527f43616c6c696e6720636f6e7472616374206973206e6f7420617574686f72697a60408201527f656420746f206c69717569646174650000000000000000000000000000000000606082015260800190565b60208082526026908201527f4f776e61626c653a206e6577206f776e657220697320746865207a65726f206160408201527f6464726573730000000000000000000000000000000000000000000000000000606082015260800190565b60208082526026908201527f546f6b656e20646f6573206e6f7420686176652061206c69717569646174696f60408201527f6e20706174680000000000000000000000000000000000000000000000000000606082015260800190565b6020808252818101527f4f776e61626c653a2063616c6c6572206973206e6f7420746865206f776e6572604082015260600190565b90815260200190565b604051601f82017fffffffffffffffffffffffffffffffffffffffffffffffffffffffffffffffe016810167ffffffffffffffff811182821017156115425761154261168f565b604052919050565b600067ffffffffffffffff8211156115645761156461168f565b5060209081020190565b6000821982111561158157611581611602565b500190565b60008261159557611595611631565b500490565b6000817fffffffffffffffffffffffffffffffffffffffffffffffffffffffffffffffff04831182151516156115d2576115d2611602565b500290565b6000828210156115e9576115e9611602565b500390565b6000826115fd576115fd611631565b500690565b7f4e487b7100000000000000000000000000000000000000000000000000000000600052601160045260246000fd5b7f4e487b7100000000000000000000000000000000000000000000000000000000600052601260045260246000fd5b7f4e487b7100000000000000000000000000000000000000000000000000000000600052602160045260246000fd5b7f4e487b7100000000000000000000000000000000000000000000000000000000600052604160045260246000fd5b73ffffffffffffffffffffffffffffffffffffffff811681146108ff57600080fdfea264697066735822122099f7124c3762cf88122d4968470c32ef15e5b40faa8934e8af53d495e06fb9b164736f6c63430008010033",
  "linkReferences": {},
  "deployedLinkReferences": {}
}