{
  "_format": "hh-sol-artifact-1",
  "contractName": "Price",
  "sourceName": "contracts/Price.sol",
  "abi": [
    {
      "inputs": [
        {
          "internalType": "address",
          "name": "_peg",
          "type": "address"
        },
        {
          "internalType": "address",
          "name": "_roles",
          "type": "address"
        }
      ],
      "stateMutability": "nonpayable",
      "type": "constructor"
    },
    {
      "anonymous": false,
      "inputs": [
        {
          "indexed": true,
          "internalType": "address",
          "name": "previousOwner",
          "type": "address"
        },
        {
          "indexed": true,
          "internalType": "address",
          "name": "newOwner",
          "type": "address"
        }
      ],
      "name": "OwnershipTransferred",
      "type": "event"
    },
    {
      "inputs": [],
      "name": "ADMIN",
      "outputs": [
        {
          "internalType": "uint16",
          "name": "",
          "type": "uint16"
        }
      ],
      "stateMutability": "view",
      "type": "function"
    },
    {
      "inputs": [],
      "name": "AUTHORIZED_FUND_TRADER",
      "outputs": [
        {
          "internalType": "uint16",
          "name": "",
          "type": "uint16"
        }
      ],
      "stateMutability": "view",
      "type": "function"
    },
    {
      "inputs": [],
      "name": "BORROWER",
      "outputs": [
        {
          "internalType": "uint16",
          "name": "",
          "type": "uint16"
        }
      ],
      "stateMutability": "view",
      "type": "function"
    },
    {
      "inputs": [],
      "name": "FEE_CONTROLLER",
      "outputs": [
        {
          "internalType": "uint16",
          "name": "",
          "type": "uint16"
        }
      ],
      "stateMutability": "view",
      "type": "function"
    },
    {
      "inputs": [],
      "name": "FEE_SOURCE",
      "outputs": [
        {
          "internalType": "uint16",
          "name": "",
          "type": "uint16"
        }
      ],
      "stateMutability": "view",
      "type": "function"
    },
    {
      "inputs": [],
      "name": "FUND",
      "outputs": [
        {
          "internalType": "uint16",
          "name": "",
          "type": "uint16"
        }
      ],
      "stateMutability": "view",
      "type": "function"
    },
    {
      "inputs": [],
      "name": "INCENTIVE_DISTRIBUTION",
      "outputs": [
        {
          "internalType": "uint16",
          "name": "",
          "type": "uint16"
        }
      ],
      "stateMutability": "view",
      "type": "function"
    },
    {
      "inputs": [],
      "name": "INCENTIVE_REPORTER",
      "outputs": [
        {
          "internalType": "uint16",
          "name": "",
          "type": "uint16"
        }
      ],
      "stateMutability": "view",
      "type": "function"
    },
    {
      "inputs": [],
      "name": "LENDING",
      "outputs": [
        {
          "internalType": "uint16",
          "name": "",
          "type": "uint16"
        }
      ],
      "stateMutability": "view",
      "type": "function"
    },
    {
      "inputs": [],
      "name": "LIQUIDATOR",
      "outputs": [
        {
          "internalType": "uint16",
          "name": "",
          "type": "uint16"
        }
      ],
      "stateMutability": "view",
      "type": "function"
    },
    {
      "inputs": [],
      "name": "MARGIN_CALLER",
      "outputs": [
        {
          "internalType": "uint16",
          "name": "",
          "type": "uint16"
        }
      ],
      "stateMutability": "view",
      "type": "function"
    },
    {
      "inputs": [],
      "name": "MARGIN_TRADER",
      "outputs": [
        {
          "internalType": "uint16",
          "name": "",
          "type": "uint16"
        }
      ],
      "stateMutability": "view",
      "type": "function"
    },
    {
      "inputs": [],
      "name": "MARGIN_TRADING",
      "outputs": [
        {
          "internalType": "uint16",
          "name": "",
          "type": "uint16"
        }
      ],
      "stateMutability": "view",
      "type": "function"
    },
    {
      "inputs": [],
      "name": "PRICE_CONTROLLER",
      "outputs": [
        {
          "internalType": "uint16",
          "name": "",
          "type": "uint16"
        }
      ],
      "stateMutability": "view",
      "type": "function"
    },
    {
      "inputs": [],
      "name": "ROUTER",
      "outputs": [
        {
          "internalType": "uint16",
          "name": "",
          "type": "uint16"
        }
      ],
      "stateMutability": "view",
      "type": "function"
    },
    {
      "inputs": [],
      "name": "TOKEN_ACTIVATOR",
      "outputs": [
        {
          "internalType": "uint16",
          "name": "",
          "type": "uint16"
        }
      ],
      "stateMutability": "view",
      "type": "function"
    },
    {
      "inputs": [],
      "name": "WITHDRAWER",
      "outputs": [
        {
          "internalType": "uint16",
          "name": "",
          "type": "uint16"
        }
      ],
      "stateMutability": "view",
      "type": "function"
    },
    {
      "inputs": [
        {
          "internalType": "address",
          "name": "token",
          "type": "address"
        },
        {
          "internalType": "uint256",
          "name": "outAmount",
          "type": "uint256"
        }
      ],
      "name": "getCostInPeg",
      "outputs": [
        {
          "internalType": "uint256",
          "name": "",
          "type": "uint256"
        }
      ],
      "stateMutability": "view",
      "type": "function"
    },
    {
      "inputs": [
        {
          "internalType": "address",
          "name": "token",
          "type": "address"
        },
        {
          "internalType": "uint256",
          "name": "inAmount",
          "type": "uint256"
        }
      ],
      "name": "getCurrentPriceInPeg",
      "outputs": [
        {
          "internalType": "uint256",
          "name": "",
          "type": "uint256"
        }
      ],
      "stateMutability": "view",
      "type": "function"
    },
    {
      "inputs": [
        {
          "internalType": "address",
          "name": "token",
          "type": "address"
        },
        {
          "internalType": "uint256",
          "name": "inAmount",
          "type": "uint256"
        }
      ],
      "name": "getUpdatedPriceInPeg",
      "outputs": [
        {
          "internalType": "uint256",
          "name": "",
          "type": "uint256"
        }
      ],
      "stateMutability": "nonpayable",
      "type": "function"
    },
    {
      "inputs": [
        {
          "internalType": "address",
          "name": "token",
          "type": "address"
        },
        {
          "internalType": "uint256",
          "name": "targetAmount",
          "type": "uint256"
        }
      ],
      "name": "liquidateFromPeg",
      "outputs": [
        {
          "internalType": "uint256",
          "name": "",
          "type": "uint256"
        }
      ],
      "stateMutability": "nonpayable",
      "type": "function"
    },
    {
      "inputs": [
        {
          "internalType": "address",
          "name": "token",
          "type": "address"
        },
        {
          "internalType": "uint256",
          "name": "amount",
          "type": "uint256"
        }
      ],
      "name": "liquidateToPeg",
      "outputs": [
        {
          "internalType": "uint256",
          "name": "",
          "type": "uint256"
        }
      ],
      "stateMutability": "nonpayable",
      "type": "function"
    },
    {
      "inputs": [
        {
          "internalType": "uint16",
          "name": "",
          "type": "uint16"
        }
      ],
      "name": "mainCharacterCache",
      "outputs": [
        {
          "internalType": "address",
          "name": "",
          "type": "address"
        }
      ],
      "stateMutability": "view",
      "type": "function"
    },
    {
      "inputs": [],
      "name": "owner",
      "outputs": [
        {
          "internalType": "address",
          "name": "",
          "type": "address"
        }
      ],
      "stateMutability": "view",
      "type": "function"
    },
    {
      "inputs": [],
      "name": "peg",
      "outputs": [
        {
          "internalType": "address",
          "name": "",
          "type": "address"
        }
      ],
      "stateMutability": "view",
      "type": "function"
    },
    {
      "inputs": [],
      "name": "renounceOwnership",
      "outputs": [],
      "stateMutability": "nonpayable",
      "type": "function"
    },
    {
      "inputs": [
        {
          "internalType": "address",
          "name": "",
          "type": "address"
        },
        {
          "internalType": "uint16",
          "name": "",
          "type": "uint16"
        }
      ],
      "name": "roleCache",
      "outputs": [
        {
          "internalType": "bool",
          "name": "",
          "type": "bool"
        }
      ],
      "stateMutability": "view",
      "type": "function"
    },
    {
      "inputs": [],
      "name": "roles",
      "outputs": [
        {
          "internalType": "contract Roles",
          "name": "",
          "type": "address"
        }
      ],
      "stateMutability": "view",
      "type": "function"
    },
    {
      "inputs": [
        {
          "internalType": "address[]",
          "name": "path",
          "type": "address[]"
        }
      ],
      "name": "setLiquidationPath",
      "outputs": [],
      "stateMutability": "nonpayable",
      "type": "function"
    },
    {
      "inputs": [
        {
          "internalType": "address",
          "name": "newOwner",
          "type": "address"
        }
      ],
      "name": "transferOwnership",
      "outputs": [],
      "stateMutability": "nonpayable",
      "type": "function"
    },
    {
      "inputs": [
        {
          "internalType": "uint16",
          "name": "role",
          "type": "uint16"
        }
      ],
      "name": "updateMainCharacterCache",
      "outputs": [],
      "stateMutability": "nonpayable",
      "type": "function"
    },
    {
      "inputs": [
        {
          "internalType": "uint16",
          "name": "role",
          "type": "uint16"
        },
        {
          "internalType": "address",
          "name": "contr",
          "type": "address"
        }
      ],
      "name": "updateRoleCache",
      "outputs": [],
      "stateMutability": "nonpayable",
      "type": "function"
    }
  ],
  "bytecode": "0x60806040523480156200001157600080fd5b5060405162001cb238038062001cb28339810160408190526200003491620000ef565b600080546001600160a01b0319166001600160a01b03831617815562000059620000ce565b600380546001600160a01b0319166001600160a01b038316908117909155604051919250906000907f8be0079c531659141344cd1fd0a4f28419497f9722a3daafe3b4186f6b6457e0908290a35050600480546001600160a01b0319166001600160a01b039290921691909117905562000126565b3390565b80516001600160a01b0381168114620000ea57600080fd5b919050565b6000806040838503121562000102578182fd5b6200010d83620000d2565b91506200011d60208401620000d2565b90509250929050565b611b7c80620001366000396000f3fe608060405234801561001057600080fd5b50600436106101f05760003560e01c80636cd7bc4b1161010f578063b4481652116100a2578063d5d7ed7f11610071578063d5d7ed7f1461036c578063e47109a914610374578063e62db16014610387578063f2fde38b1461039a576101f0565b8063b448165214610329578063c34316c31461033c578063c76139d01461035c578063cacf8d4514610364576101f0565b80638da5cb5b116100de5780638da5cb5b14610309578063a0098d6914610311578063a94c7c3414610319578063a9cc053614610321576101f0565b80636cd7bc4b146102de578063715018a6146102f157806381ca6600146102f957806383a49c7c14610301576101f0565b806337487fd5116101875780634cb77662116101565780634cb77662146102a85780635c275a39146102bb57806366941984146102c35780636cd5cd60146102cb576101f0565b806337487fd51461027d578063392f5f641461029057806346b887961461029857806348fb27b8146102a0576101f0565b806320e8d819116101c357806320e8d819146102505780632a0acc6a146102655780632fe94def1461026d57806332fe7b2614610275576101f0565b806305883f7c146101f5578063065d570f1461021e5780631bc5d81d146102335780631f1cb62b1461023b575b600080fd5b6102086102033660046114f3565b6103ad565b6040516102159190611987565b60405180910390f35b6102266106b4565b604051610215919061194e565b6102266106b9565b6102436106be565b60405161021591906116eb565b61026361025e36600461167a565b6106da565b005b6102266107eb565b6102266107f0565b6102266107f5565b61020861028b3660046114f3565b6107fa565b610243610ad9565b610226610af5565b610226610afa565b6102086102b63660046114f3565b610aff565b610226610bd4565b610226610bd9565b6102636102d9366004611660565b610bde565b6102636102ec36600461151e565b610cdd565b610263610d53565b610226610e35565b610226610e3a565b610243610e3f565b610226610e5b565b610226610e60565b610226610e65565b610243610337366004611660565b610e6a565b61034f61034a3660046114bf565b610e92565b604051610215919061170c565b610226610eb2565b610226610eb7565b610226610ebc565b6102086103823660046114f3565b610ec1565b6102086103953660046114f3565b6110fd565b6102636103a8366004611480565b61129c565b60006103b8336113ea565b6103f7576040517f08c379a00000000000000000000000000000000000000000000000000000000081526004016103ee90611802565b60405180910390fd5b60045473ffffffffffffffffffffffffffffffffffffffff848116911614156104215750806106ae565b73ffffffffffffffffffffffffffffffffffffffff83166000908152600560209081526040808320815160a0810183528154815260018201805484518187028101870190955280855291949293858401939092908301828280156104a457602002820191906000526020600020905b815481526020019060010190808311610490575b50505050508152602001600282015481526020016003820180548060200260200160405190810160405280929190818152602001828054801561051d57602002820191906000526020600020905b815473ffffffffffffffffffffffffffffffffffffffff1681526001909101906020018083116104f2575b505050505081526020016004820180548060200260200160405190810160405280929190818152602001828054801561058c57602002820191906000526020600020905b815473ffffffffffffffffffffffffffffffffffffffff168152600190910190602001808311610561575b505050505081525050905060006105a1611425565b73ffffffffffffffffffffffffffffffffffffffff16630aa29f1c600086600086606001516040518563ffffffff1660e01b81526004016105e5949392919061178a565b600060405180830381600087803b1580156105ff57600080fd5b505af1158015610613573d6000803e3d6000fd5b505050506040513d6000823e601f3d9081017fffffffffffffffffffffffffffffffffffffffffffffffffffffffffffffffe016820160405261065991908101906115bc565b9050806001825161066a9190611a6c565b815181106106a1577f4e487b7100000000000000000000000000000000000000000000000000000000600052603260045260246000fd5b6020026020010151925050505b92915050565b600381565b600881565b60045473ffffffffffffffffffffffffffffffffffffffff1681565b6000546040517fd87fefd200000000000000000000000000000000000000000000000000000000815273ffffffffffffffffffffffffffffffffffffffff9091169063d87fefd290610732908590859060040161195d565b60206040518083038186803b15801561074a57600080fd5b505afa15801561075e573d6000803e3d6000fd5b505050506040513d601f19601f820116820180604052508101906107829190611640565b73ffffffffffffffffffffffffffffffffffffffff909116600090815260026020908152604080832061ffff90951683529390529190912080549115157fffffffffffffffffffffffffffffffffffffffffffffffffffffffffffffff00909216919091179055565b606b81565b606981565b606781565b6000610805336113ea565b61083b576040517f08c379a00000000000000000000000000000000000000000000000000000000081526004016103ee90611802565b60045473ffffffffffffffffffffffffffffffffffffffff848116911614156108655750806106ae565b73ffffffffffffffffffffffffffffffffffffffff83166000908152600560209081526040808320815160a0810183528154815260018201805484518187028101870190955280855291949293858401939092908301828280156108e857602002820191906000526020600020905b8154815260200190600101908083116108d4575b50505050508152602001600282015481526020016003820180548060200260200160405190810160405280929190818152602001828054801561096157602002820191906000526020600020905b815473ffffffffffffffffffffffffffffffffffffffff168152600190910190602001808311610936575b50505050508152602001600482018054806020026020016040519081016040528092919081815260200182805480156109d057602002820191906000526020600020905b815473ffffffffffffffffffffffffffffffffffffffff1681526001909101906020018083116109a5575b505050505081525050905060006109e5611425565b73ffffffffffffffffffffffffffffffffffffffff16631f2a6743600086600086608001516040518563ffffffff1660e01b8152600401610a29949392919061178a565b600060405180830381600087803b158015610a4357600080fd5b505af1158015610a57573d6000803e3d6000fd5b505050506040513d6000823e601f3d9081017fffffffffffffffffffffffffffffffffffffffffffffffffffffffffffffffe0168201604052610a9d91908101906115bc565b9050806000815181106106a1577f4e487b7100000000000000000000000000000000000000000000000000000000600052603260045260246000fd5b60005473ffffffffffffffffffffffffffffffffffffffff1681565b600681565b606681565b73ffffffffffffffffffffffffffffffffffffffff821660009081526005602052604081206003810154600110610b62576040517f08c379a00000000000000000000000000000000000000000000000000000000081526004016103ee906118bc565b80600101816002015481548110610ba2577f4e487b7100000000000000000000000000000000000000000000000000000000600052603260045260246000fd5b906000526020600020015483683635c9adc5dea00000610bc29190611a2f565b610bcc9190611a1b565b949350505050565b606581565b600181565b6000546040517f3c9c8f9c00000000000000000000000000000000000000000000000000000000815273ffffffffffffffffffffffffffffffffffffffff90911690633c9c8f9c90610c3490849060040161194e565b60206040518083038186803b158015610c4c57600080fd5b505afa158015610c60573d6000803e3d6000fd5b505050506040513d601f19601f82011682018060405250810190610c8491906114a3565b61ffff91909116600090815260016020526040902080547fffffffffffffffffffffffff00000000000000000000000000000000000000001673ffffffffffffffffffffffffffffffffffffffff909216919091179055565b610ce561146a565b73ffffffffffffffffffffffffffffffffffffffff16610d03610e3f565b73ffffffffffffffffffffffffffffffffffffffff1614610d50576040517f08c379a00000000000000000000000000000000000000000000000000000000081526004016103ee90611919565b50565b610d5b61146a565b73ffffffffffffffffffffffffffffffffffffffff16610d79610e3f565b73ffffffffffffffffffffffffffffffffffffffff1614610dc6576040517f08c379a00000000000000000000000000000000000000000000000000000000081526004016103ee90611919565b60035460405160009173ffffffffffffffffffffffffffffffffffffffff16907f8be0079c531659141344cd1fd0a4f28419497f9722a3daafe3b4186f6b6457e0908390a3600380547fffffffffffffffffffffffff0000000000000000000000000000000000000000169055565b606a81565b600981565b60035473ffffffffffffffffffffffffffffffffffffffff1690565b600281565b600581565b606881565b60016020526000908152604090205473ffffffffffffffffffffffffffffffffffffffff1681565b600260209081526000928352604080842090915290825290205460ff1681565b606c81565b600481565b600781565b60045460009073ffffffffffffffffffffffffffffffffffffffff84811691161415610eee5750806106ae565b73ffffffffffffffffffffffffffffffffffffffff831660009081526005602052604090206003810154600110610f51576040517f08c379a00000000000000000000000000000000000000000000000000000000081526004016103ee906118bc565b6000610f5b611425565b73ffffffffffffffffffffffffffffffffffffffff1663eaa095f8600086856003016040518463ffffffff1660e01b8152600401610f9b93929190611717565b60006040518083038186803b158015610fb357600080fd5b505afa158015610fc7573d6000803e3d6000fd5b505050506040513d6000823e601f3d9081017fffffffffffffffffffffffffffffffffffffffffffffffffffffffffffffffe016820160405261100d91908101906115bc565b9050600081600183516110209190611a6c565b81518110611057577f4e487b7100000000000000000000000000000000000000000000000000000000600052603260045260246000fd5b6020026020010151905082600101805490508360020154600161107a9190611a03565b6110849190611a83565b60028401558061109d86683635c9adc5dea00000611a2f565b6110a79190611a1b565b836001018460020154815481106110e7577f4e487b7100000000000000000000000000000000000000000000000000000000600052603260045260246000fd5b60009182526020909120015592506106ae915050565b60045460009073ffffffffffffffffffffffffffffffffffffffff8481169116141561112a5750806106ae565b73ffffffffffffffffffffffffffffffffffffffff83166000908152600560205260409020600481015460011061118d576040517f08c379a00000000000000000000000000000000000000000000000000000000081526004016103ee906118bc565b6000611197611425565b73ffffffffffffffffffffffffffffffffffffffff166390b931ed600086856004016040518463ffffffff1660e01b81526004016111d793929190611717565b60006040518083038186803b1580156111ef57600080fd5b505afa158015611203573d6000803e3d6000fd5b505050506040513d6000823e601f3d9081017fffffffffffffffffffffffffffffffffffffffffffffffffffffffffffffffe016820160405261124991908101906115bc565b9050600081600081518110611287577f4e487b7100000000000000000000000000000000000000000000000000000000600052603260045260246000fd5b602002602001015190508093505050506106ae565b6112a461146a565b73ffffffffffffffffffffffffffffffffffffffff166112c2610e3f565b73ffffffffffffffffffffffffffffffffffffffff161461130f576040517f08c379a00000000000000000000000000000000000000000000000000000000081526004016103ee90611919565b73ffffffffffffffffffffffffffffffffffffffff811661135c576040517f08c379a00000000000000000000000000000000000000000000000000000000081526004016103ee9061185f565b60035460405173ffffffffffffffffffffffffffffffffffffffff8084169216907f8be0079c531659141344cd1fd0a4f28419497f9722a3daafe3b4186f6b6457e090600090a3600380547fffffffffffffffffffffffff00000000000000000000000000000000000000001673ffffffffffffffffffffffffffffffffffffffff92909216919091179055565b73ffffffffffffffffffffffffffffffffffffffff811660009081526002602090815260408083206006845290915290205460ff165b919050565b606760005260016020527f3df8f088882f8b9ec191c0c401507a494987ab757ec0bcd484b0f744e1857e895473ffffffffffffffffffffffffffffffffffffffff1690565b3390565b803561ffff8116811461142057600080fd5b600060208284031215611491578081fd5b813561149c81611b24565b9392505050565b6000602082840312156114b4578081fd5b815161149c81611b24565b600080604083850312156114d1578081fd5b82356114dc81611b24565b91506114ea6020840161146e565b90509250929050565b60008060408385031215611505578182fd5b823561151081611b24565b946020939093013593505050565b60006020808385031215611530578182fd5b823567ffffffffffffffff811115611546578283fd5b8301601f81018513611556578283fd5b8035611569611564826119df565b611990565b8181528381019083850185840285018601891015611585578687fd5b8694505b838510156115b057803561159c81611b24565b835260019490940193918501918501611589565b50979650505050505050565b600060208083850312156115ce578182fd5b825167ffffffffffffffff8111156115e4578283fd5b8301601f810185136115f4578283fd5b8051611602611564826119df565b818152838101908385018584028501860189101561161e578687fd5b8694505b838510156115b0578051835260019490940193918501918501611622565b600060208284031215611651578081fd5b8151801515811461149c578182fd5b600060208284031215611671578081fd5b61149c8261146e565b6000806040838503121561168c578182fd5b6116958361146e565b915060208301356116a581611b24565b809150509250929050565b600481106116e7577f4e487b7100000000000000000000000000000000000000000000000000000000600052602160045260246000fd5b9052565b73ffffffffffffffffffffffffffffffffffffffff91909116815260200190565b901515815260200190565b60006060820161172783876116b0565b602083810186905260606040850152845491829052848352808320916080850190845b8181101561177c57845473ffffffffffffffffffffffffffffffffffffffff168352600194850194928401920161174a565b509098975050505050505050565b60006080820161179a83886116b0565b602086818501528560408501526080606085015281855180845260a0860191508287019350845b818110156117f357845173ffffffffffffffffffffffffffffffffffffffff16835293830193918301916001016117c1565b50909998505050505050505050565b6020808252602f908201527f43616c6c696e6720636f6e7472616374206973206e6f7420617574686f72697a60408201527f656420746f206c69717569646174650000000000000000000000000000000000606082015260800190565b60208082526026908201527f4f776e61626c653a206e6577206f776e657220697320746865207a65726f206160408201527f6464726573730000000000000000000000000000000000000000000000000000606082015260800190565b60208082526026908201527f546f6b656e20646f6573206e6f7420686176652061206c69717569646174696f60408201527f6e20706174680000000000000000000000000000000000000000000000000000606082015260800190565b6020808252818101527f4f776e61626c653a2063616c6c6572206973206e6f7420746865206f776e6572604082015260600190565b61ffff91909116815260200190565b61ffff92909216825273ffffffffffffffffffffffffffffffffffffffff16602082015260400190565b90815260200190565b604051601f82017fffffffffffffffffffffffffffffffffffffffffffffffffffffffffffffffe016810167ffffffffffffffff811182821017156119d7576119d7611af5565b604052919050565b600067ffffffffffffffff8211156119f9576119f9611af5565b5060209081020190565b60008219821115611a1657611a16611a97565b500190565b600082611a2a57611a2a611ac6565b500490565b6000817fffffffffffffffffffffffffffffffffffffffffffffffffffffffffffffffff0483118215151615611a6757611a67611a97565b500290565b600082821015611a7e57611a7e611a97565b500390565b600082611a9257611a92611ac6565b500690565b7f4e487b7100000000000000000000000000000000000000000000000000000000600052601160045260246000fd5b7f4e487b7100000000000000000000000000000000000000000000000000000000600052601260045260246000fd5b7f4e487b7100000000000000000000000000000000000000000000000000000000600052604160045260246000fd5b73ffffffffffffffffffffffffffffffffffffffff81168114610d5057600080fdfea2646970667358221220205cdada174dbe7225dd6b77e4551e6e8090199c669deeb600905d7d7fd633be64736f6c63430008010033",
  "linkReferences": {},
  "deployedLinkReferences": {}
}