{
  "_format": "hh-sol-artifact-1",
  "contractName": "Price",
  "sourceName": "contracts/Price.sol",
  "abi": [
    {
      "inputs": [
        {
          "internalType": "address",
          "name": "_peg",
          "type": "address"
        },
        {
          "internalType": "address",
          "name": "_roles",
          "type": "address"
        }
      ],
      "stateMutability": "nonpayable",
      "type": "constructor"
    },
    {
      "anonymous": false,
      "inputs": [
        {
          "indexed": true,
          "internalType": "address",
          "name": "previousOwner",
          "type": "address"
        },
        {
          "indexed": true,
          "internalType": "address",
          "name": "newOwner",
          "type": "address"
        }
      ],
      "name": "OwnershipTransferred",
      "type": "event"
    },
    {
      "inputs": [],
      "name": "ADMIN",
      "outputs": [
        {
          "internalType": "uint16",
          "name": "",
          "type": "uint16"
        }
      ],
      "stateMutability": "view",
      "type": "function"
    },
    {
      "inputs": [],
      "name": "AUTHORIZED_FUND_TRADER",
      "outputs": [
        {
          "internalType": "uint16",
          "name": "",
          "type": "uint16"
        }
      ],
      "stateMutability": "view",
      "type": "function"
    },
    {
      "inputs": [],
      "name": "BORROWER",
      "outputs": [
        {
          "internalType": "uint16",
          "name": "",
          "type": "uint16"
        }
      ],
      "stateMutability": "view",
      "type": "function"
    },
    {
      "inputs": [],
      "name": "FEE_CONTROLLER",
      "outputs": [
        {
          "internalType": "uint16",
          "name": "",
          "type": "uint16"
        }
      ],
      "stateMutability": "view",
      "type": "function"
    },
    {
      "inputs": [],
      "name": "FEE_SOURCE",
      "outputs": [
        {
          "internalType": "uint16",
          "name": "",
          "type": "uint16"
        }
      ],
      "stateMutability": "view",
      "type": "function"
    },
    {
      "inputs": [],
      "name": "FUND",
      "outputs": [
        {
          "internalType": "uint16",
          "name": "",
          "type": "uint16"
        }
      ],
      "stateMutability": "view",
      "type": "function"
    },
    {
      "inputs": [],
      "name": "INCENTIVE_DISTRIBUTION",
      "outputs": [
        {
          "internalType": "uint16",
          "name": "",
          "type": "uint16"
        }
      ],
      "stateMutability": "view",
      "type": "function"
    },
    {
      "inputs": [],
      "name": "INCENTIVE_REPORTER",
      "outputs": [
        {
          "internalType": "uint16",
          "name": "",
          "type": "uint16"
        }
      ],
      "stateMutability": "view",
      "type": "function"
    },
    {
      "inputs": [],
      "name": "LENDING",
      "outputs": [
        {
          "internalType": "uint16",
          "name": "",
          "type": "uint16"
        }
      ],
      "stateMutability": "view",
      "type": "function"
    },
    {
      "inputs": [],
      "name": "LIQUIDATOR",
      "outputs": [
        {
          "internalType": "uint16",
          "name": "",
          "type": "uint16"
        }
      ],
      "stateMutability": "view",
      "type": "function"
    },
    {
      "inputs": [],
      "name": "MARGIN_CALLER",
      "outputs": [
        {
          "internalType": "uint16",
          "name": "",
          "type": "uint16"
        }
      ],
      "stateMutability": "view",
      "type": "function"
    },
    {
      "inputs": [],
      "name": "MARGIN_TRADER",
      "outputs": [
        {
          "internalType": "uint16",
          "name": "",
          "type": "uint16"
        }
      ],
      "stateMutability": "view",
      "type": "function"
    },
    {
      "inputs": [],
      "name": "MARGIN_TRADING",
      "outputs": [
        {
          "internalType": "uint16",
          "name": "",
          "type": "uint16"
        }
      ],
      "stateMutability": "view",
      "type": "function"
    },
    {
      "inputs": [],
      "name": "PRICE_CONTROLLER",
      "outputs": [
        {
          "internalType": "uint16",
          "name": "",
          "type": "uint16"
        }
      ],
      "stateMutability": "view",
      "type": "function"
    },
    {
      "inputs": [],
      "name": "ROUTER",
      "outputs": [
        {
          "internalType": "uint16",
          "name": "",
          "type": "uint16"
        }
      ],
      "stateMutability": "view",
      "type": "function"
    },
    {
      "inputs": [],
      "name": "STAKE_PENALIZER",
      "outputs": [
        {
          "internalType": "uint16",
          "name": "",
          "type": "uint16"
        }
      ],
      "stateMutability": "view",
      "type": "function"
    },
    {
      "inputs": [],
      "name": "TOKEN_ACTIVATOR",
      "outputs": [
        {
          "internalType": "uint16",
          "name": "",
          "type": "uint16"
        }
      ],
      "stateMutability": "view",
      "type": "function"
    },
    {
      "inputs": [],
      "name": "WITHDRAWER",
      "outputs": [
        {
          "internalType": "uint16",
          "name": "",
          "type": "uint16"
        }
      ],
      "stateMutability": "view",
      "type": "function"
    },
    {
      "inputs": [
        {
          "internalType": "address",
          "name": "token",
          "type": "address"
        },
        {
          "internalType": "uint256",
          "name": "outAmount",
          "type": "uint256"
        }
      ],
      "name": "getCostInPeg",
      "outputs": [
        {
          "internalType": "uint256",
          "name": "",
          "type": "uint256"
        }
      ],
      "stateMutability": "view",
      "type": "function"
    },
    {
      "inputs": [
        {
          "internalType": "address",
          "name": "token",
          "type": "address"
        },
        {
          "internalType": "uint256",
          "name": "inAmount",
          "type": "uint256"
        }
      ],
      "name": "getCurrentPriceInPeg",
      "outputs": [
        {
          "internalType": "uint256",
          "name": "",
          "type": "uint256"
        }
      ],
      "stateMutability": "view",
      "type": "function"
    },
    {
      "inputs": [
        {
          "internalType": "address",
          "name": "token",
          "type": "address"
        },
        {
          "internalType": "uint256",
          "name": "inAmount",
          "type": "uint256"
        }
      ],
      "name": "getUpdatedPriceInPeg",
      "outputs": [
        {
          "internalType": "uint256",
          "name": "",
          "type": "uint256"
        }
      ],
      "stateMutability": "nonpayable",
      "type": "function"
    },
    {
      "inputs": [
        {
          "internalType": "address",
          "name": "token",
          "type": "address"
        },
        {
          "internalType": "uint256",
          "name": "targetAmount",
          "type": "uint256"
        }
      ],
      "name": "liquidateFromPeg",
      "outputs": [
        {
          "internalType": "uint256",
          "name": "",
          "type": "uint256"
        }
      ],
      "stateMutability": "nonpayable",
      "type": "function"
    },
    {
      "inputs": [
        {
          "internalType": "address",
          "name": "token",
          "type": "address"
        },
        {
          "internalType": "uint256",
          "name": "amount",
          "type": "uint256"
        }
      ],
      "name": "liquidateToPeg",
      "outputs": [
        {
          "internalType": "uint256",
          "name": "",
          "type": "uint256"
        }
      ],
      "stateMutability": "nonpayable",
      "type": "function"
    },
    {
      "inputs": [
        {
          "internalType": "uint16",
          "name": "",
          "type": "uint16"
        }
      ],
      "name": "mainCharacterCache",
      "outputs": [
        {
          "internalType": "address",
          "name": "",
          "type": "address"
        }
      ],
      "stateMutability": "view",
      "type": "function"
    },
    {
      "inputs": [],
      "name": "owner",
      "outputs": [
        {
          "internalType": "address",
          "name": "",
          "type": "address"
        }
      ],
      "stateMutability": "view",
      "type": "function"
    },
    {
      "inputs": [],
      "name": "peg",
      "outputs": [
        {
          "internalType": "address",
          "name": "",
          "type": "address"
        }
      ],
      "stateMutability": "view",
      "type": "function"
    },
    {
      "inputs": [],
      "name": "renounceOwnership",
      "outputs": [],
      "stateMutability": "nonpayable",
      "type": "function"
    },
    {
      "inputs": [
        {
          "internalType": "address",
          "name": "",
          "type": "address"
        },
        {
          "internalType": "uint16",
          "name": "",
          "type": "uint16"
        }
      ],
      "name": "roleCache",
      "outputs": [
        {
          "internalType": "bool",
          "name": "",
          "type": "bool"
        }
      ],
      "stateMutability": "view",
      "type": "function"
    },
    {
      "inputs": [],
      "name": "roles",
      "outputs": [
        {
          "internalType": "contract Roles",
          "name": "",
          "type": "address"
        }
      ],
      "stateMutability": "view",
      "type": "function"
    },
    {
      "inputs": [
        {
          "internalType": "address[]",
          "name": "path",
          "type": "address[]"
        }
      ],
      "name": "setLiquidationPath",
      "outputs": [],
      "stateMutability": "nonpayable",
      "type": "function"
    },
    {
      "inputs": [
        {
          "internalType": "address",
          "name": "newOwner",
          "type": "address"
        }
      ],
      "name": "transferOwnership",
      "outputs": [],
      "stateMutability": "nonpayable",
      "type": "function"
    },
    {
      "inputs": [
        {
          "internalType": "uint16",
          "name": "role",
          "type": "uint16"
        }
      ],
      "name": "updateMainCharacterCache",
      "outputs": [],
      "stateMutability": "nonpayable",
      "type": "function"
    },
    {
      "inputs": [
        {
          "internalType": "uint16",
          "name": "role",
          "type": "uint16"
        },
        {
          "internalType": "address",
          "name": "contr",
          "type": "address"
        }
      ],
      "name": "updateRoleCache",
      "outputs": [],
      "stateMutability": "nonpayable",
      "type": "function"
    }
  ],
  "bytecode": "0x60806040523480156200001157600080fd5b5060405162001cda38038062001cda8339810160408190526200003491620000ef565b600080546001600160a01b0319166001600160a01b03831617815562000059620000ce565b600380546001600160a01b0319166001600160a01b038316908117909155604051919250906000907f8be0079c531659141344cd1fd0a4f28419497f9722a3daafe3b4186f6b6457e0908290a35050600480546001600160a01b0319166001600160a01b039290921691909117905562000126565b3390565b80516001600160a01b0381168114620000ea57600080fd5b919050565b6000806040838503121562000102578182fd5b6200010d83620000d2565b91506200011d60208401620000d2565b90509250929050565b611ba480620001366000396000f3fe608060405234801561001057600080fd5b506004361061020b5760003560e01c80636cd5cd601161012a578063a9cc0536116100bd578063cacf8d451161008c578063e47109a911610071578063e47109a914610397578063e62db160146103aa578063f2fde38b146103bd5761020b565b8063cacf8d4514610387578063d5d7ed7f1461038f5761020b565b8063a9cc053614610344578063b44816521461034c578063c34316c31461035f578063c76139d01461037f5761020b565b806383a49c7c116100f957806383a49c7c146103245780638da5cb5b1461032c578063a0098d6914610334578063a94c7c341461033c5761020b565b80636cd5cd60146102ee5780636cd7bc4b14610301578063715018a61461031457806381ca66001461031c5761020b565b806332fe7b26116101a257806348fb27b81161017157806348fb27b8146102c35780634cb77662146102cb5780635c275a39146102de57806366941984146102e65761020b565b806332fe7b261461029857806337487fd5146102a0578063392f5f64146102b357806346b88796146102bb5761020b565b80631f1cb62b116101de5780631f1cb62b1461025e57806320e8d819146102735780632a0acc6a146102885780632fe94def146102905761020b565b806305883f7c14610210578063065d570f146102395780631b6695071461024e5780631bc5d81d14610256575b600080fd5b61022361021e36600461151b565b6103d0565b60405161023091906119af565b60405180910390f35b6102416106d7565b6040516102309190611976565b6102416106dc565b6102416106e1565b6102666106e6565b6040516102309190611713565b6102866102813660046116a2565b610702565b005b610241610813565b610241610818565b61024161081d565b6102236102ae36600461151b565b610822565b610266610b01565b610241610b1d565b610241610b22565b6102236102d936600461151b565b610b27565b610241610bfc565b610241610c01565b6102866102fc366004611688565b610c06565b61028661030f366004611546565b610d05565b610286610d7b565b610241610e5d565b610241610e62565b610266610e67565b610241610e83565b610241610e88565b610241610e8d565b61026661035a366004611688565b610e92565b61037261036d3660046114e7565b610eba565b6040516102309190611734565b610241610eda565b610241610edf565b610241610ee4565b6102236103a536600461151b565b610ee9565b6102236103b836600461151b565b611125565b6102866103cb3660046114a8565b6112c4565b60006103db33611412565b61041a576040517f08c379a00000000000000000000000000000000000000000000000000000000081526004016104119061182a565b60405180910390fd5b60045473ffffffffffffffffffffffffffffffffffffffff848116911614156104445750806106d1565b73ffffffffffffffffffffffffffffffffffffffff83166000908152600560209081526040808320815160a0810183528154815260018201805484518187028101870190955280855291949293858401939092908301828280156104c757602002820191906000526020600020905b8154815260200190600101908083116104b3575b50505050508152602001600282015481526020016003820180548060200260200160405190810160405280929190818152602001828054801561054057602002820191906000526020600020905b815473ffffffffffffffffffffffffffffffffffffffff168152600190910190602001808311610515575b50505050508152602001600482018054806020026020016040519081016040528092919081815260200182805480156105af57602002820191906000526020600020905b815473ffffffffffffffffffffffffffffffffffffffff168152600190910190602001808311610584575b505050505081525050905060006105c461144d565b73ffffffffffffffffffffffffffffffffffffffff16630aa29f1c600086600086606001516040518563ffffffff1660e01b815260040161060894939291906117b2565b600060405180830381600087803b15801561062257600080fd5b505af1158015610636573d6000803e3d6000fd5b505050506040513d6000823e601f3d9081017fffffffffffffffffffffffffffffffffffffffffffffffffffffffffffffffe016820160405261067c91908101906115e4565b9050806001825161068d9190611a94565b815181106106c4577f4e487b7100000000000000000000000000000000000000000000000000000000600052603260045260246000fd5b6020026020010151925050505b92915050565b600381565b600a81565b600881565b60045473ffffffffffffffffffffffffffffffffffffffff1681565b6000546040517fd87fefd200000000000000000000000000000000000000000000000000000000815273ffffffffffffffffffffffffffffffffffffffff9091169063d87fefd29061075a9085908590600401611985565b60206040518083038186803b15801561077257600080fd5b505afa158015610786573d6000803e3d6000fd5b505050506040513d601f19601f820116820180604052508101906107aa9190611668565b73ffffffffffffffffffffffffffffffffffffffff909116600090815260026020908152604080832061ffff90951683529390529190912080549115157fffffffffffffffffffffffffffffffffffffffffffffffffffffffffffffff00909216919091179055565b606b81565b606981565b606781565b600061082d33611412565b610863576040517f08c379a00000000000000000000000000000000000000000000000000000000081526004016104119061182a565b60045473ffffffffffffffffffffffffffffffffffffffff8481169116141561088d5750806106d1565b73ffffffffffffffffffffffffffffffffffffffff83166000908152600560209081526040808320815160a08101835281548152600182018054845181870281018701909552808552919492938584019390929083018282801561091057602002820191906000526020600020905b8154815260200190600101908083116108fc575b50505050508152602001600282015481526020016003820180548060200260200160405190810160405280929190818152602001828054801561098957602002820191906000526020600020905b815473ffffffffffffffffffffffffffffffffffffffff16815260019091019060200180831161095e575b50505050508152602001600482018054806020026020016040519081016040528092919081815260200182805480156109f857602002820191906000526020600020905b815473ffffffffffffffffffffffffffffffffffffffff1681526001909101906020018083116109cd575b50505050508152505090506000610a0d61144d565b73ffffffffffffffffffffffffffffffffffffffff16631f2a6743600086600086608001516040518563ffffffff1660e01b8152600401610a5194939291906117b2565b600060405180830381600087803b158015610a6b57600080fd5b505af1158015610a7f573d6000803e3d6000fd5b505050506040513d6000823e601f3d9081017fffffffffffffffffffffffffffffffffffffffffffffffffffffffffffffffe0168201604052610ac591908101906115e4565b9050806000815181106106c4577f4e487b7100000000000000000000000000000000000000000000000000000000600052603260045260246000fd5b60005473ffffffffffffffffffffffffffffffffffffffff1681565b600681565b606681565b73ffffffffffffffffffffffffffffffffffffffff821660009081526005602052604081206003810154600110610b8a576040517f08c379a0000000000000000000000000000000000000000000000000000000008152600401610411906118e4565b80600101816002015481548110610bca577f4e487b7100000000000000000000000000000000000000000000000000000000600052603260045260246000fd5b906000526020600020015483683635c9adc5dea00000610bea9190611a57565b610bf49190611a43565b949350505050565b606581565b600181565b6000546040517f3c9c8f9c00000000000000000000000000000000000000000000000000000000815273ffffffffffffffffffffffffffffffffffffffff90911690633c9c8f9c90610c5c908490600401611976565b60206040518083038186803b158015610c7457600080fd5b505afa158015610c88573d6000803e3d6000fd5b505050506040513d601f19601f82011682018060405250810190610cac91906114cb565b61ffff91909116600090815260016020526040902080547fffffffffffffffffffffffff00000000000000000000000000000000000000001673ffffffffffffffffffffffffffffffffffffffff909216919091179055565b610d0d611492565b73ffffffffffffffffffffffffffffffffffffffff16610d2b610e67565b73ffffffffffffffffffffffffffffffffffffffff1614610d78576040517f08c379a000000000000000000000000000000000000000000000000000000000815260040161041190611941565b50565b610d83611492565b73ffffffffffffffffffffffffffffffffffffffff16610da1610e67565b73ffffffffffffffffffffffffffffffffffffffff1614610dee576040517f08c379a000000000000000000000000000000000000000000000000000000000815260040161041190611941565b60035460405160009173ffffffffffffffffffffffffffffffffffffffff16907f8be0079c531659141344cd1fd0a4f28419497f9722a3daafe3b4186f6b6457e0908390a3600380547fffffffffffffffffffffffff0000000000000000000000000000000000000000169055565b606a81565b600981565b60035473ffffffffffffffffffffffffffffffffffffffff1690565b600281565b600581565b606881565b60016020526000908152604090205473ffffffffffffffffffffffffffffffffffffffff1681565b600260209081526000928352604080842090915290825290205460ff1681565b606c81565b600481565b600781565b60045460009073ffffffffffffffffffffffffffffffffffffffff84811691161415610f165750806106d1565b73ffffffffffffffffffffffffffffffffffffffff831660009081526005602052604090206003810154600110610f79576040517f08c379a0000000000000000000000000000000000000000000000000000000008152600401610411906118e4565b6000610f8361144d565b73ffffffffffffffffffffffffffffffffffffffff1663eaa095f8600086856003016040518463ffffffff1660e01b8152600401610fc39392919061173f565b60006040518083038186803b158015610fdb57600080fd5b505afa158015610fef573d6000803e3d6000fd5b505050506040513d6000823e601f3d9081017fffffffffffffffffffffffffffffffffffffffffffffffffffffffffffffffe016820160405261103591908101906115e4565b9050600081600183516110489190611a94565b8151811061107f577f4e487b7100000000000000000000000000000000000000000000000000000000600052603260045260246000fd5b602002602001015190508260010180549050836002015460016110a29190611a2b565b6110ac9190611aab565b6002840155806110c586683635c9adc5dea00000611a57565b6110cf9190611a43565b8360010184600201548154811061110f577f4e487b7100000000000000000000000000000000000000000000000000000000600052603260045260246000fd5b60009182526020909120015592506106d1915050565b60045460009073ffffffffffffffffffffffffffffffffffffffff848116911614156111525750806106d1565b73ffffffffffffffffffffffffffffffffffffffff8316600090815260056020526040902060048101546001106111b5576040517f08c379a0000000000000000000000000000000000000000000000000000000008152600401610411906118e4565b60006111bf61144d565b73ffffffffffffffffffffffffffffffffffffffff166390b931ed600086856004016040518463ffffffff1660e01b81526004016111ff9392919061173f565b60006040518083038186803b15801561121757600080fd5b505afa15801561122b573d6000803e3d6000fd5b505050506040513d6000823e601f3d9081017fffffffffffffffffffffffffffffffffffffffffffffffffffffffffffffffe016820160405261127191908101906115e4565b90506000816000815181106112af577f4e487b7100000000000000000000000000000000000000000000000000000000600052603260045260246000fd5b602002602001015190508093505050506106d1565b6112cc611492565b73ffffffffffffffffffffffffffffffffffffffff166112ea610e67565b73ffffffffffffffffffffffffffffffffffffffff1614611337576040517f08c379a000000000000000000000000000000000000000000000000000000000815260040161041190611941565b73ffffffffffffffffffffffffffffffffffffffff8116611384576040517f08c379a000000000000000000000000000000000000000000000000000000000815260040161041190611887565b60035460405173ffffffffffffffffffffffffffffffffffffffff8084169216907f8be0079c531659141344cd1fd0a4f28419497f9722a3daafe3b4186f6b6457e090600090a3600380547fffffffffffffffffffffffff00000000000000000000000000000000000000001673ffffffffffffffffffffffffffffffffffffffff92909216919091179055565b73ffffffffffffffffffffffffffffffffffffffff811660009081526002602090815260408083206006845290915290205460ff165b919050565b606760005260016020527f3df8f088882f8b9ec191c0c401507a494987ab757ec0bcd484b0f744e1857e895473ffffffffffffffffffffffffffffffffffffffff1690565b3390565b803561ffff8116811461144857600080fd5b6000602082840312156114b9578081fd5b81356114c481611b4c565b9392505050565b6000602082840312156114dc578081fd5b81516114c481611b4c565b600080604083850312156114f9578081fd5b823561150481611b4c565b915061151260208401611496565b90509250929050565b6000806040838503121561152d578182fd5b823561153881611b4c565b946020939093013593505050565b60006020808385031215611558578182fd5b823567ffffffffffffffff81111561156e578283fd5b8301601f8101851361157e578283fd5b803561159161158c82611a07565b6119b8565b81815283810190838501858402850186018910156115ad578687fd5b8694505b838510156115d85780356115c481611b4c565b8352600194909401939185019185016115b1565b50979650505050505050565b600060208083850312156115f6578182fd5b825167ffffffffffffffff81111561160c578283fd5b8301601f8101851361161c578283fd5b805161162a61158c82611a07565b8181528381019083850185840285018601891015611646578687fd5b8694505b838510156115d857805183526001949094019391850191850161164a565b600060208284031215611679578081fd5b815180151581146114c4578182fd5b600060208284031215611699578081fd5b6114c482611496565b600080604083850312156116b4578182fd5b6116bd83611496565b915060208301356116cd81611b4c565b809150509250929050565b6004811061170f577f4e487b7100000000000000000000000000000000000000000000000000000000600052602160045260246000fd5b9052565b73ffffffffffffffffffffffffffffffffffffffff91909116815260200190565b901515815260200190565b60006060820161174f83876116d8565b602083810186905260606040850152845491829052848352808320916080850190845b818110156117a457845473ffffffffffffffffffffffffffffffffffffffff1683526001948501949284019201611772565b509098975050505050505050565b6000608082016117c283886116d8565b602086818501528560408501526080606085015281855180845260a0860191508287019350845b8181101561181b57845173ffffffffffffffffffffffffffffffffffffffff16835293830193918301916001016117e9565b50909998505050505050505050565b6020808252602f908201527f43616c6c696e6720636f6e7472616374206973206e6f7420617574686f72697a60408201527f656420746f206c69717569646174650000000000000000000000000000000000606082015260800190565b60208082526026908201527f4f776e61626c653a206e6577206f776e657220697320746865207a65726f206160408201527f6464726573730000000000000000000000000000000000000000000000000000606082015260800190565b60208082526026908201527f546f6b656e20646f6573206e6f7420686176652061206c69717569646174696f60408201527f6e20706174680000000000000000000000000000000000000000000000000000606082015260800190565b6020808252818101527f4f776e61626c653a2063616c6c6572206973206e6f7420746865206f776e6572604082015260600190565b61ffff91909116815260200190565b61ffff92909216825273ffffffffffffffffffffffffffffffffffffffff16602082015260400190565b90815260200190565b604051601f82017fffffffffffffffffffffffffffffffffffffffffffffffffffffffffffffffe016810167ffffffffffffffff811182821017156119ff576119ff611b1d565b604052919050565b600067ffffffffffffffff821115611a2157611a21611b1d565b5060209081020190565b60008219821115611a3e57611a3e611abf565b500190565b600082611a5257611a52611aee565b500490565b6000817fffffffffffffffffffffffffffffffffffffffffffffffffffffffffffffffff0483118215151615611a8f57611a8f611abf565b500290565b600082821015611aa657611aa6611abf565b500390565b600082611aba57611aba611aee565b500690565b7f4e487b7100000000000000000000000000000000000000000000000000000000600052601160045260246000fd5b7f4e487b7100000000000000000000000000000000000000000000000000000000600052601260045260246000fd5b7f4e487b7100000000000000000000000000000000000000000000000000000000600052604160045260246000fd5b73ffffffffffffffffffffffffffffffffffffffff81168114610d7857600080fdfea2646970667358221220f0c37d8ae67f3e7bfde8a2581daf654755cb8280ac4a85ede21da64b596b137464736f6c63430008010033",
  "linkReferences": {},
  "deployedLinkReferences": {}
}