{
  "_format": "hh-sol-artifact-1",
  "contractName": "Price",
  "sourceName": "contracts/Price.sol",
  "abi": [
    {
      "inputs": [
        {
          "internalType": "address",
          "name": "_peg",
          "type": "address"
        },
        {
          "internalType": "address",
          "name": "_roles",
          "type": "address"
        }
      ],
      "stateMutability": "nonpayable",
      "type": "constructor"
    },
    {
      "anonymous": false,
      "inputs": [
        {
          "indexed": true,
          "internalType": "address",
          "name": "previousOwner",
          "type": "address"
        },
        {
          "indexed": true,
          "internalType": "address",
          "name": "newOwner",
          "type": "address"
        }
      ],
      "name": "OwnershipTransferred",
      "type": "event"
    },
    {
      "inputs": [],
      "name": "AUTHORIZED_FUND_TRADER",
      "outputs": [
        {
          "internalType": "uint16",
          "name": "",
          "type": "uint16"
        }
      ],
      "stateMutability": "view",
      "type": "function"
    },
    {
      "inputs": [],
      "name": "BORROWER",
      "outputs": [
        {
          "internalType": "uint16",
          "name": "",
          "type": "uint16"
        }
      ],
      "stateMutability": "view",
      "type": "function"
    },
    {
      "inputs": [],
      "name": "FEE_CONTROLLER",
      "outputs": [
        {
          "internalType": "uint16",
          "name": "",
          "type": "uint16"
        }
      ],
      "stateMutability": "view",
      "type": "function"
    },
    {
      "inputs": [],
      "name": "FEE_SOURCE",
      "outputs": [
        {
          "internalType": "uint16",
          "name": "",
          "type": "uint16"
        }
      ],
      "stateMutability": "view",
      "type": "function"
    },
    {
      "inputs": [],
      "name": "FUND",
      "outputs": [
        {
          "internalType": "uint16",
          "name": "",
          "type": "uint16"
        }
      ],
      "stateMutability": "view",
      "type": "function"
    },
    {
      "inputs": [],
      "name": "INCENTIVE_REPORTER",
      "outputs": [
        {
          "internalType": "uint16",
          "name": "",
          "type": "uint16"
        }
      ],
      "stateMutability": "view",
      "type": "function"
    },
    {
      "inputs": [],
      "name": "LENDING",
      "outputs": [
        {
          "internalType": "uint16",
          "name": "",
          "type": "uint16"
        }
      ],
      "stateMutability": "view",
      "type": "function"
    },
    {
      "inputs": [],
      "name": "LIQUIDATOR",
      "outputs": [
        {
          "internalType": "uint16",
          "name": "",
          "type": "uint16"
        }
      ],
      "stateMutability": "view",
      "type": "function"
    },
    {
      "inputs": [],
      "name": "MARGIN_CALLER",
      "outputs": [
        {
          "internalType": "uint16",
          "name": "",
          "type": "uint16"
        }
      ],
      "stateMutability": "view",
      "type": "function"
    },
    {
      "inputs": [],
      "name": "MARGIN_TRADER",
      "outputs": [
        {
          "internalType": "uint16",
          "name": "",
          "type": "uint16"
        }
      ],
      "stateMutability": "view",
      "type": "function"
    },
    {
      "inputs": [],
      "name": "MARGIN_TRADING",
      "outputs": [
        {
          "internalType": "uint16",
          "name": "",
          "type": "uint16"
        }
      ],
      "stateMutability": "view",
      "type": "function"
    },
    {
      "inputs": [],
      "name": "PRICE_CONTROLLER",
      "outputs": [
        {
          "internalType": "uint16",
          "name": "",
          "type": "uint16"
        }
      ],
      "stateMutability": "view",
      "type": "function"
    },
    {
      "inputs": [],
      "name": "ROUTER",
      "outputs": [
        {
          "internalType": "uint16",
          "name": "",
          "type": "uint16"
        }
      ],
      "stateMutability": "view",
      "type": "function"
    },
    {
      "inputs": [],
      "name": "TOKEN_ACTIVATOR",
      "outputs": [
        {
          "internalType": "uint16",
          "name": "",
          "type": "uint16"
        }
      ],
      "stateMutability": "view",
      "type": "function"
    },
    {
      "inputs": [],
      "name": "WITHDRAWER",
      "outputs": [
        {
          "internalType": "uint16",
          "name": "",
          "type": "uint16"
        }
      ],
      "stateMutability": "view",
      "type": "function"
    },
    {
      "inputs": [
        {
          "internalType": "address",
          "name": "token",
          "type": "address"
        },
        {
          "internalType": "uint256",
          "name": "outAmount",
          "type": "uint256"
        }
      ],
      "name": "getCostInPeg",
      "outputs": [
        {
          "internalType": "uint256",
          "name": "",
          "type": "uint256"
        }
      ],
      "stateMutability": "view",
      "type": "function"
    },
    {
      "inputs": [
        {
          "internalType": "address",
          "name": "token",
          "type": "address"
        },
        {
          "internalType": "uint256",
          "name": "inAmount",
          "type": "uint256"
        }
      ],
      "name": "getCurrentPriceInPeg",
      "outputs": [
        {
          "internalType": "uint256",
          "name": "",
          "type": "uint256"
        }
      ],
      "stateMutability": "view",
      "type": "function"
    },
    {
      "inputs": [
        {
          "internalType": "address",
          "name": "token",
          "type": "address"
        },
        {
          "internalType": "uint256",
          "name": "inAmount",
          "type": "uint256"
        }
      ],
      "name": "getUpdatedPriceInPeg",
      "outputs": [
        {
          "internalType": "uint256",
          "name": "",
          "type": "uint256"
        }
      ],
      "stateMutability": "nonpayable",
      "type": "function"
    },
    {
      "inputs": [
        {
          "internalType": "address",
          "name": "token",
          "type": "address"
        },
        {
          "internalType": "uint256",
          "name": "targetAmount",
          "type": "uint256"
        }
      ],
      "name": "liquidateFromPeg",
      "outputs": [
        {
          "internalType": "uint256",
          "name": "",
          "type": "uint256"
        }
      ],
      "stateMutability": "nonpayable",
      "type": "function"
    },
    {
      "inputs": [
        {
          "internalType": "address",
          "name": "token",
          "type": "address"
        },
        {
          "internalType": "uint256",
          "name": "amount",
          "type": "uint256"
        }
      ],
      "name": "liquidateToPeg",
      "outputs": [
        {
          "internalType": "uint256",
          "name": "",
          "type": "uint256"
        }
      ],
      "stateMutability": "nonpayable",
      "type": "function"
    },
    {
      "inputs": [],
      "name": "owner",
      "outputs": [
        {
          "internalType": "address",
          "name": "",
          "type": "address"
        }
      ],
      "stateMutability": "view",
      "type": "function"
    },
    {
      "inputs": [],
      "name": "peg",
      "outputs": [
        {
          "internalType": "address",
          "name": "",
          "type": "address"
        }
      ],
      "stateMutability": "view",
      "type": "function"
    },
    {
      "inputs": [],
      "name": "renounceOwnership",
      "outputs": [],
      "stateMutability": "nonpayable",
      "type": "function"
    },
    {
      "inputs": [],
      "name": "roles",
      "outputs": [
        {
          "internalType": "contract Roles",
          "name": "",
          "type": "address"
        }
      ],
      "stateMutability": "view",
      "type": "function"
    },
    {
      "inputs": [
        {
          "internalType": "address[]",
          "name": "path",
          "type": "address[]"
        }
      ],
      "name": "setLiquidationPath",
      "outputs": [],
      "stateMutability": "nonpayable",
      "type": "function"
    },
    {
      "inputs": [
        {
          "internalType": "address",
          "name": "newOwner",
          "type": "address"
        }
      ],
      "name": "transferOwnership",
      "outputs": [],
      "stateMutability": "nonpayable",
      "type": "function"
    }
  ],
  "bytecode": "0x60806040523480156200001157600080fd5b50604051620019de380380620019de8339810160408190526200003491620000ef565b600080546001600160a01b0319166001600160a01b03831617815562000059620000ce565b600180546001600160a01b0319166001600160a01b038316908117909155604051919250906000907f8be0079c531659141344cd1fd0a4f28419497f9722a3daafe3b4186f6b6457e0908290a35050600280546001600160a01b0319166001600160a01b039290921691909117905562000126565b3390565b80516001600160a01b0381168114620000ea57600080fd5b919050565b6000806040838503121562000102578182fd5b6200010d83620000d2565b91506200011d60208401620000d2565b90509250929050565b6118a880620001366000396000f3fe608060405234801561001057600080fd5b50600436106101ae5760003560e01c80636cd7bc4b116100ee578063a94c7c3411610097578063d5d7ed7f11610071578063d5d7ed7f146102c1578063e47109a9146102c9578063e62db160146102dc578063f2fde38b146102ef576101ae565b8063a94c7c34146102a9578063a9cc0536146102b1578063cacf8d45146102b9576101ae565b806383a49c7c116100c857806383a49c7c146102915780638da5cb5b14610299578063a0098d69146102a1576101ae565b80636cd7bc4b1461026c578063715018a61461028157806381ca660014610289576101ae565b806337487fd51161015b57806348fb27b81161013557806348fb27b8146102415780634cb77662146102495780635c275a391461025c5780636694198414610264576101ae565b806337487fd51461021e578063392f5f641461023157806346b8879614610239576101ae565b80631f1cb62b1161018c5780631f1cb62b146101f95780632fe94def1461020e57806332fe7b2614610216576101ae565b806305883f7c146101b3578063065d570f146101dc5780631bc5d81d146101f1575b600080fd5b6101c66101c136600461127a565b610302565b6040516101d391906116b3565b60405180910390f35b6101e4610609565b6040516101d3919061167a565b6101e461060e565b610201610613565b6040516101d39190611422565b6101e461062f565b6101e4610634565b6101c661022c36600461127a565b610639565b610201610918565b6101e4610934565b6101e4610939565b6101c661025736600461127a565b61093e565b6101e4610a14565b6101e4610a19565b61027f61027a3660046112a5565b610a1e565b005b61027f610a94565b6101e4610b76565b6101e4610b7b565b610201610b80565b6101e4610b9c565b6101e4610ba1565b6101e4610ba6565b6101e4610bab565b6101e4610bb0565b6101c66102d736600461127a565b610bb5565b6101c66102ea36600461127a565b610df3565b61027f6102fd36600461123b565b610f92565b600061030d336110e0565b61034c576040517f08c379a00000000000000000000000000000000000000000000000000000000081526004016103439061152e565b60405180910390fd5b60025473ffffffffffffffffffffffffffffffffffffffff84811691161415610376575080610603565b73ffffffffffffffffffffffffffffffffffffffff83166000908152600360209081526040808320815160a0810183528154815260018201805484518187028101870190955280855291949293858401939092908301828280156103f957602002820191906000526020600020905b8154815260200190600101908083116103e5575b50505050508152602001600282015481526020016003820180548060200260200160405190810160405280929190818152602001828054801561047257602002820191906000526020600020905b815473ffffffffffffffffffffffffffffffffffffffff168152600190910190602001808311610447575b50505050508152602001600482018054806020026020016040519081016040528092919081815260200182805480156104e157602002820191906000526020600020905b815473ffffffffffffffffffffffffffffffffffffffff1681526001909101906020018083116104b6575b505050505081525050905060006104f661118a565b73ffffffffffffffffffffffffffffffffffffffff16630aa29f1c600086600086606001516040518563ffffffff1660e01b815260040161053a94939291906114b6565b600060405180830381600087803b15801561055457600080fd5b505af1158015610568573d6000803e3d6000fd5b505050506040513d6000823e601f3d9081017fffffffffffffffffffffffffffffffffffffffffffffffffffffffffffffffe01682016040526105ae9190810190611343565b905080600182516105bf9190611798565b815181106105f6577f4e487b7100000000000000000000000000000000000000000000000000000000600052603260045260246000fd5b6020026020010151925050505b92915050565b600381565b600881565b60025473ffffffffffffffffffffffffffffffffffffffff1681565b606981565b606781565b6000610644336110e0565b61067a576040517f08c379a00000000000000000000000000000000000000000000000000000000081526004016103439061152e565b60025473ffffffffffffffffffffffffffffffffffffffff848116911614156106a4575080610603565b73ffffffffffffffffffffffffffffffffffffffff83166000908152600360209081526040808320815160a08101835281548152600182018054845181870281018701909552808552919492938584019390929083018282801561072757602002820191906000526020600020905b815481526020019060010190808311610713575b5050505050815260200160028201548152602001600382018054806020026020016040519081016040528092919081815260200182805480156107a057602002820191906000526020600020905b815473ffffffffffffffffffffffffffffffffffffffff168152600190910190602001808311610775575b505050505081526020016004820180548060200260200160405190810160405280929190818152602001828054801561080f57602002820191906000526020600020905b815473ffffffffffffffffffffffffffffffffffffffff1681526001909101906020018083116107e4575b5050505050815250509050600061082461118a565b73ffffffffffffffffffffffffffffffffffffffff16631f2a6743600086600086608001516040518563ffffffff1660e01b815260040161086894939291906114b6565b600060405180830381600087803b15801561088257600080fd5b505af1158015610896573d6000803e3d6000fd5b505050506040513d6000823e601f3d9081017fffffffffffffffffffffffffffffffffffffffffffffffffffffffffffffffe01682016040526108dc9190810190611343565b9050806000815181106105f6577f4e487b7100000000000000000000000000000000000000000000000000000000600052603260045260246000fd5b60005473ffffffffffffffffffffffffffffffffffffffff1681565b600681565b606681565b73ffffffffffffffffffffffffffffffffffffffff821660009081526003602081905260408220908101546001106109a2576040517f08c379a0000000000000000000000000000000000000000000000000000000008152600401610343906115e8565b806001018160020154815481106109e2577f4e487b7100000000000000000000000000000000000000000000000000000000600052603260045260246000fd5b906000526020600020015483683635c9adc5dea00000610a02919061175b565b610a0c9190611747565b949350505050565b606581565b600181565b610a26611237565b73ffffffffffffffffffffffffffffffffffffffff16610a44610b80565b73ffffffffffffffffffffffffffffffffffffffff1614610a91576040517f08c379a000000000000000000000000000000000000000000000000000000000815260040161034390611645565b50565b610a9c611237565b73ffffffffffffffffffffffffffffffffffffffff16610aba610b80565b73ffffffffffffffffffffffffffffffffffffffff1614610b07576040517f08c379a000000000000000000000000000000000000000000000000000000000815260040161034390611645565b60015460405160009173ffffffffffffffffffffffffffffffffffffffff16907f8be0079c531659141344cd1fd0a4f28419497f9722a3daafe3b4186f6b6457e0908390a3600180547fffffffffffffffffffffffff0000000000000000000000000000000000000000169055565b606a81565b600981565b60015473ffffffffffffffffffffffffffffffffffffffff1690565b600281565b600581565b606881565b600481565b600781565b60025460009073ffffffffffffffffffffffffffffffffffffffff84811691161415610be2575080610603565b73ffffffffffffffffffffffffffffffffffffffff8316600090815260036020819052604090912090810154600110610c47576040517f08c379a0000000000000000000000000000000000000000000000000000000008152600401610343906115e8565b6000610c5161118a565b73ffffffffffffffffffffffffffffffffffffffff1663eaa095f8600086856003016040518463ffffffff1660e01b8152600401610c9193929190611443565b60006040518083038186803b158015610ca957600080fd5b505afa158015610cbd573d6000803e3d6000fd5b505050506040513d6000823e601f3d9081017fffffffffffffffffffffffffffffffffffffffffffffffffffffffffffffffe0168201604052610d039190810190611343565b905060008160018351610d169190611798565b81518110610d4d577f4e487b7100000000000000000000000000000000000000000000000000000000600052603260045260246000fd5b60200260200101519050826001018054905083600201546001610d70919061172f565b610d7a91906117af565b600284015580610d9386683635c9adc5dea0000061175b565b610d9d9190611747565b83600101846002015481548110610ddd577f4e487b7100000000000000000000000000000000000000000000000000000000600052603260045260246000fd5b6000918252602090912001559250610603915050565b60025460009073ffffffffffffffffffffffffffffffffffffffff84811691161415610e20575080610603565b73ffffffffffffffffffffffffffffffffffffffff831660009081526003602052604090206004810154600110610e83576040517f08c379a0000000000000000000000000000000000000000000000000000000008152600401610343906115e8565b6000610e8d61118a565b73ffffffffffffffffffffffffffffffffffffffff166390b931ed600086856004016040518463ffffffff1660e01b8152600401610ecd93929190611443565b60006040518083038186803b158015610ee557600080fd5b505afa158015610ef9573d6000803e3d6000fd5b505050506040513d6000823e601f3d9081017fffffffffffffffffffffffffffffffffffffffffffffffffffffffffffffffe0168201604052610f3f9190810190611343565b9050600081600081518110610f7d577f4e487b7100000000000000000000000000000000000000000000000000000000600052603260045260246000fd5b60200260200101519050809350505050610603565b610f9a611237565b73ffffffffffffffffffffffffffffffffffffffff16610fb8610b80565b73ffffffffffffffffffffffffffffffffffffffff1614611005576040517f08c379a000000000000000000000000000000000000000000000000000000000815260040161034390611645565b73ffffffffffffffffffffffffffffffffffffffff8116611052576040517f08c379a00000000000000000000000000000000000000000000000000000000081526004016103439061158b565b60015460405173ffffffffffffffffffffffffffffffffffffffff8084169216907f8be0079c531659141344cd1fd0a4f28419497f9722a3daafe3b4186f6b6457e090600090a3600180547fffffffffffffffffffffffff00000000000000000000000000000000000000001673ffffffffffffffffffffffffffffffffffffffff92909216919091179055565b600080546040517fd87fefd200000000000000000000000000000000000000000000000000000000815273ffffffffffffffffffffffffffffffffffffffff9091169063d87fefd29061113a906006908690600401611689565b60206040518083038186803b15801561115257600080fd5b505afa158015611166573d6000803e3d6000fd5b505050506040513d601f19601f8201168201806040525081019061060391906113c7565b600080546040517f3c9c8f9c00000000000000000000000000000000000000000000000000000000815273ffffffffffffffffffffffffffffffffffffffff90911690633c9c8f9c906111e29060679060040161167a565b60206040518083038186803b1580156111fa57600080fd5b505afa15801561120e573d6000803e3d6000fd5b505050506040513d601f19601f82011682018060405250810190611232919061125e565b905090565b3390565b60006020828403121561124c578081fd5b813561125781611850565b9392505050565b60006020828403121561126f578081fd5b815161125781611850565b6000806040838503121561128c578081fd5b823561129781611850565b946020939093013593505050565b600060208083850312156112b7578182fd5b823567ffffffffffffffff8111156112cd578283fd5b8301601f810185136112dd578283fd5b80356112f06112eb8261170b565b6116bc565b818152838101908385018584028501860189101561130c578687fd5b8694505b8385101561133757803561132381611850565b835260019490940193918501918501611310565b50979650505050505050565b60006020808385031215611355578182fd5b825167ffffffffffffffff81111561136b578283fd5b8301601f8101851361137b578283fd5b80516113896112eb8261170b565b81815283810190838501858402850186018910156113a5578687fd5b8694505b838510156113375780518352600194909401939185019185016113a9565b6000602082840312156113d8578081fd5b81518015158114611257578182fd5b6004811061141e577f4e487b7100000000000000000000000000000000000000000000000000000000600052602160045260246000fd5b9052565b73ffffffffffffffffffffffffffffffffffffffff91909116815260200190565b60006060820161145383876113e7565b602083810186905260606040850152845491829052848352808320916080850190845b818110156114a857845473ffffffffffffffffffffffffffffffffffffffff1683526001948501949284019201611476565b509098975050505050505050565b6000608082016114c683886113e7565b602086818501528560408501526080606085015281855180845260a0860191508287019350845b8181101561151f57845173ffffffffffffffffffffffffffffffffffffffff16835293830193918301916001016114ed565b50909998505050505050505050565b6020808252602f908201527f43616c6c696e6720636f6e7472616374206973206e6f7420617574686f72697a60408201527f656420746f206c69717569646174650000000000000000000000000000000000606082015260800190565b60208082526026908201527f4f776e61626c653a206e6577206f776e657220697320746865207a65726f206160408201527f6464726573730000000000000000000000000000000000000000000000000000606082015260800190565b60208082526026908201527f546f6b656e20646f6573206e6f7420686176652061206c69717569646174696f60408201527f6e20706174680000000000000000000000000000000000000000000000000000606082015260800190565b6020808252818101527f4f776e61626c653a2063616c6c6572206973206e6f7420746865206f776e6572604082015260600190565b61ffff91909116815260200190565b61ffff92909216825273ffffffffffffffffffffffffffffffffffffffff16602082015260400190565b90815260200190565b604051601f82017fffffffffffffffffffffffffffffffffffffffffffffffffffffffffffffffe016810167ffffffffffffffff8111828210171561170357611703611821565b604052919050565b600067ffffffffffffffff82111561172557611725611821565b5060209081020190565b60008219821115611742576117426117c3565b500190565b600082611756576117566117f2565b500490565b6000817fffffffffffffffffffffffffffffffffffffffffffffffffffffffffffffffff0483118215151615611793576117936117c3565b500290565b6000828210156117aa576117aa6117c3565b500390565b6000826117be576117be6117f2565b500690565b7f4e487b7100000000000000000000000000000000000000000000000000000000600052601160045260246000fd5b7f4e487b7100000000000000000000000000000000000000000000000000000000600052601260045260246000fd5b7f4e487b7100000000000000000000000000000000000000000000000000000000600052604160045260246000fd5b73ffffffffffffffffffffffffffffffffffffffff81168114610a9157600080fdfea2646970667358221220bb2bc05d562f78722cead9e24e9742f4e0b23559c6bae40332a620cf1a0e312e64736f6c63430008010033",
  "linkReferences": {},
  "deployedLinkReferences": {}
}