{
  "_format": "hh-sol-artifact-1",
  "contractName": "Price",
  "sourceName": "contracts/Price.sol",
  "abi": [
    {
      "inputs": [
        {
          "internalType": "address",
          "name": "_peg",
          "type": "address"
        },
        {
          "internalType": "address",
          "name": "_roles",
          "type": "address"
        }
      ],
      "stateMutability": "nonpayable",
      "type": "constructor"
    },
    {
      "anonymous": false,
      "inputs": [
        {
          "indexed": true,
          "internalType": "address",
          "name": "previousOwner",
          "type": "address"
        },
        {
          "indexed": true,
          "internalType": "address",
          "name": "newOwner",
          "type": "address"
        }
      ],
      "name": "OwnershipTransferred",
      "type": "event"
    },
    {
      "inputs": [],
      "name": "ADMIN",
      "outputs": [
        {
          "internalType": "uint16",
          "name": "",
          "type": "uint16"
        }
      ],
      "stateMutability": "view",
      "type": "function"
    },
    {
      "inputs": [],
      "name": "AUTHORIZED_FUND_TRADER",
      "outputs": [
        {
          "internalType": "uint16",
          "name": "",
          "type": "uint16"
        }
      ],
      "stateMutability": "view",
      "type": "function"
    },
    {
      "inputs": [],
      "name": "BORROWER",
      "outputs": [
        {
          "internalType": "uint16",
          "name": "",
          "type": "uint16"
        }
      ],
      "stateMutability": "view",
      "type": "function"
    },
    {
      "inputs": [],
      "name": "FEE_CONTROLLER",
      "outputs": [
        {
          "internalType": "uint16",
          "name": "",
          "type": "uint16"
        }
      ],
      "stateMutability": "view",
      "type": "function"
    },
    {
      "inputs": [],
      "name": "FEE_SOURCE",
      "outputs": [
        {
          "internalType": "uint16",
          "name": "",
          "type": "uint16"
        }
      ],
      "stateMutability": "view",
      "type": "function"
    },
    {
      "inputs": [],
      "name": "FUND",
      "outputs": [
        {
          "internalType": "uint16",
          "name": "",
          "type": "uint16"
        }
      ],
      "stateMutability": "view",
      "type": "function"
    },
    {
      "inputs": [],
      "name": "INCENTIVE_REPORTER",
      "outputs": [
        {
          "internalType": "uint16",
          "name": "",
          "type": "uint16"
        }
      ],
      "stateMutability": "view",
      "type": "function"
    },
    {
      "inputs": [],
      "name": "LENDING",
      "outputs": [
        {
          "internalType": "uint16",
          "name": "",
          "type": "uint16"
        }
      ],
      "stateMutability": "view",
      "type": "function"
    },
    {
      "inputs": [],
      "name": "LIQUIDATOR",
      "outputs": [
        {
          "internalType": "uint16",
          "name": "",
          "type": "uint16"
        }
      ],
      "stateMutability": "view",
      "type": "function"
    },
    {
      "inputs": [],
      "name": "MARGIN_CALLER",
      "outputs": [
        {
          "internalType": "uint16",
          "name": "",
          "type": "uint16"
        }
      ],
      "stateMutability": "view",
      "type": "function"
    },
    {
      "inputs": [],
      "name": "MARGIN_TRADER",
      "outputs": [
        {
          "internalType": "uint16",
          "name": "",
          "type": "uint16"
        }
      ],
      "stateMutability": "view",
      "type": "function"
    },
    {
      "inputs": [],
      "name": "MARGIN_TRADING",
      "outputs": [
        {
          "internalType": "uint16",
          "name": "",
          "type": "uint16"
        }
      ],
      "stateMutability": "view",
      "type": "function"
    },
    {
      "inputs": [],
      "name": "PRICE_CONTROLLER",
      "outputs": [
        {
          "internalType": "uint16",
          "name": "",
          "type": "uint16"
        }
      ],
      "stateMutability": "view",
      "type": "function"
    },
    {
      "inputs": [],
      "name": "ROUTER",
      "outputs": [
        {
          "internalType": "uint16",
          "name": "",
          "type": "uint16"
        }
      ],
      "stateMutability": "view",
      "type": "function"
    },
    {
      "inputs": [],
      "name": "TOKEN_ACTIVATOR",
      "outputs": [
        {
          "internalType": "uint16",
          "name": "",
          "type": "uint16"
        }
      ],
      "stateMutability": "view",
      "type": "function"
    },
    {
      "inputs": [],
      "name": "WITHDRAWER",
      "outputs": [
        {
          "internalType": "uint16",
          "name": "",
          "type": "uint16"
        }
      ],
      "stateMutability": "view",
      "type": "function"
    },
    {
      "inputs": [
        {
          "internalType": "address",
          "name": "token",
          "type": "address"
        },
        {
          "internalType": "uint256",
          "name": "outAmount",
          "type": "uint256"
        }
      ],
      "name": "getCostInPeg",
      "outputs": [
        {
          "internalType": "uint256",
          "name": "",
          "type": "uint256"
        }
      ],
      "stateMutability": "view",
      "type": "function"
    },
    {
      "inputs": [
        {
          "internalType": "address",
          "name": "token",
          "type": "address"
        },
        {
          "internalType": "uint256",
          "name": "inAmount",
          "type": "uint256"
        }
      ],
      "name": "getCurrentPriceInPeg",
      "outputs": [
        {
          "internalType": "uint256",
          "name": "",
          "type": "uint256"
        }
      ],
      "stateMutability": "view",
      "type": "function"
    },
    {
      "inputs": [
        {
          "internalType": "address",
          "name": "token",
          "type": "address"
        },
        {
          "internalType": "uint256",
          "name": "inAmount",
          "type": "uint256"
        }
      ],
      "name": "getUpdatedPriceInPeg",
      "outputs": [
        {
          "internalType": "uint256",
          "name": "",
          "type": "uint256"
        }
      ],
      "stateMutability": "nonpayable",
      "type": "function"
    },
    {
      "inputs": [
        {
          "internalType": "address",
          "name": "token",
          "type": "address"
        },
        {
          "internalType": "uint256",
          "name": "targetAmount",
          "type": "uint256"
        }
      ],
      "name": "liquidateFromPeg",
      "outputs": [
        {
          "internalType": "uint256",
          "name": "",
          "type": "uint256"
        }
      ],
      "stateMutability": "nonpayable",
      "type": "function"
    },
    {
      "inputs": [
        {
          "internalType": "address",
          "name": "token",
          "type": "address"
        },
        {
          "internalType": "uint256",
          "name": "amount",
          "type": "uint256"
        }
      ],
      "name": "liquidateToPeg",
      "outputs": [
        {
          "internalType": "uint256",
          "name": "",
          "type": "uint256"
        }
      ],
      "stateMutability": "nonpayable",
      "type": "function"
    },
    {
      "inputs": [],
      "name": "owner",
      "outputs": [
        {
          "internalType": "address",
          "name": "",
          "type": "address"
        }
      ],
      "stateMutability": "view",
      "type": "function"
    },
    {
      "inputs": [],
      "name": "peg",
      "outputs": [
        {
          "internalType": "address",
          "name": "",
          "type": "address"
        }
      ],
      "stateMutability": "view",
      "type": "function"
    },
    {
      "inputs": [],
      "name": "renounceOwnership",
      "outputs": [],
      "stateMutability": "nonpayable",
      "type": "function"
    },
    {
      "inputs": [],
      "name": "roles",
      "outputs": [
        {
          "internalType": "contract Roles",
          "name": "",
          "type": "address"
        }
      ],
      "stateMutability": "view",
      "type": "function"
    },
    {
      "inputs": [
        {
          "internalType": "address[]",
          "name": "path",
          "type": "address[]"
        }
      ],
      "name": "setLiquidationPath",
      "outputs": [],
      "stateMutability": "nonpayable",
      "type": "function"
    },
    {
      "inputs": [
        {
          "internalType": "address",
          "name": "newOwner",
          "type": "address"
        }
      ],
      "name": "transferOwnership",
      "outputs": [],
      "stateMutability": "nonpayable",
      "type": "function"
    }
  ],
  "bytecode": "0x60806040523480156200001157600080fd5b50604051620019f6380380620019f68339810160408190526200003491620000ef565b600080546001600160a01b0319166001600160a01b03831617815562000059620000ce565b600180546001600160a01b0319166001600160a01b038316908117909155604051919250906000907f8be0079c531659141344cd1fd0a4f28419497f9722a3daafe3b4186f6b6457e0908290a35050600280546001600160a01b0319166001600160a01b039290921691909117905562000126565b3390565b80516001600160a01b0381168114620000ea57600080fd5b919050565b6000806040838503121562000102578182fd5b6200010d83620000d2565b91506200011d60208401620000d2565b90509250929050565b6118c080620001366000396000f3fe608060405234801561001057600080fd5b50600436106101b95760003560e01c806366941984116100f9578063a94c7c3411610097578063d5d7ed7f11610071578063d5d7ed7f146102d4578063e47109a9146102dc578063e62db160146102ef578063f2fde38b14610302576101b9565b8063a94c7c34146102bc578063a9cc0536146102c4578063cacf8d45146102cc576101b9565b806381ca6600116100d357806381ca66001461029c57806383a49c7c146102a45780638da5cb5b146102ac578063a0098d69146102b4576101b9565b806366941984146102775780636cd7bc4b1461027f578063715018a614610294576101b9565b806332fe7b261161016657806346b887961161014057806346b887961461024c57806348fb27b8146102545780634cb776621461025c5780635c275a391461026f576101b9565b806332fe7b261461022957806337487fd514610231578063392f5f6414610244576101b9565b80631f1cb62b116101975780631f1cb62b146102045780632a0acc6a146102195780632fe94def14610221576101b9565b806305883f7c146101be578063065d570f146101e75780631bc5d81d146101fc575b600080fd5b6101d16101cc366004611292565b610315565b6040516101de91906116cb565b60405180910390f35b6101ef61061c565b6040516101de9190611692565b6101ef610621565b61020c610626565b6040516101de919061143a565b6101ef610642565b6101ef610647565b6101ef61064c565b6101d161023f366004611292565b610651565b61020c610930565b6101ef61094c565b6101ef610951565b6101d161026a366004611292565b610956565b6101ef610a2c565b6101ef610a31565b61029261028d3660046112bd565b610a36565b005b610292610aac565b6101ef610b8e565b6101ef610b93565b61020c610b98565b6101ef610bb4565b6101ef610bb9565b6101ef610bbe565b6101ef610bc3565b6101ef610bc8565b6101d16102ea366004611292565b610bcd565b6101d16102fd366004611292565b610e0b565b610292610310366004611253565b610faa565b6000610320336110f8565b61035f576040517f08c379a000000000000000000000000000000000000000000000000000000000815260040161035690611546565b60405180910390fd5b60025473ffffffffffffffffffffffffffffffffffffffff84811691161415610389575080610616565b73ffffffffffffffffffffffffffffffffffffffff83166000908152600360209081526040808320815160a08101835281548152600182018054845181870281018701909552808552919492938584019390929083018282801561040c57602002820191906000526020600020905b8154815260200190600101908083116103f8575b50505050508152602001600282015481526020016003820180548060200260200160405190810160405280929190818152602001828054801561048557602002820191906000526020600020905b815473ffffffffffffffffffffffffffffffffffffffff16815260019091019060200180831161045a575b50505050508152602001600482018054806020026020016040519081016040528092919081815260200182805480156104f457602002820191906000526020600020905b815473ffffffffffffffffffffffffffffffffffffffff1681526001909101906020018083116104c9575b505050505081525050905060006105096111a2565b73ffffffffffffffffffffffffffffffffffffffff16630aa29f1c600086600086606001516040518563ffffffff1660e01b815260040161054d94939291906114ce565b600060405180830381600087803b15801561056757600080fd5b505af115801561057b573d6000803e3d6000fd5b505050506040513d6000823e601f3d9081017fffffffffffffffffffffffffffffffffffffffffffffffffffffffffffffffe01682016040526105c1919081019061135b565b905080600182516105d291906117b0565b81518110610609577f4e487b7100000000000000000000000000000000000000000000000000000000600052603260045260246000fd5b6020026020010151925050505b92915050565b600381565b600881565b60025473ffffffffffffffffffffffffffffffffffffffff1681565b606b81565b606981565b606781565b600061065c336110f8565b610692576040517f08c379a000000000000000000000000000000000000000000000000000000000815260040161035690611546565b60025473ffffffffffffffffffffffffffffffffffffffff848116911614156106bc575080610616565b73ffffffffffffffffffffffffffffffffffffffff83166000908152600360209081526040808320815160a08101835281548152600182018054845181870281018701909552808552919492938584019390929083018282801561073f57602002820191906000526020600020905b81548152602001906001019080831161072b575b5050505050815260200160028201548152602001600382018054806020026020016040519081016040528092919081815260200182805480156107b857602002820191906000526020600020905b815473ffffffffffffffffffffffffffffffffffffffff16815260019091019060200180831161078d575b505050505081526020016004820180548060200260200160405190810160405280929190818152602001828054801561082757602002820191906000526020600020905b815473ffffffffffffffffffffffffffffffffffffffff1681526001909101906020018083116107fc575b5050505050815250509050600061083c6111a2565b73ffffffffffffffffffffffffffffffffffffffff16631f2a6743600086600086608001516040518563ffffffff1660e01b815260040161088094939291906114ce565b600060405180830381600087803b15801561089a57600080fd5b505af11580156108ae573d6000803e3d6000fd5b505050506040513d6000823e601f3d9081017fffffffffffffffffffffffffffffffffffffffffffffffffffffffffffffffe01682016040526108f4919081019061135b565b905080600081518110610609577f4e487b7100000000000000000000000000000000000000000000000000000000600052603260045260246000fd5b60005473ffffffffffffffffffffffffffffffffffffffff1681565b600681565b606681565b73ffffffffffffffffffffffffffffffffffffffff821660009081526003602081905260408220908101546001106109ba576040517f08c379a000000000000000000000000000000000000000000000000000000000815260040161035690611600565b806001018160020154815481106109fa577f4e487b7100000000000000000000000000000000000000000000000000000000600052603260045260246000fd5b906000526020600020015483683635c9adc5dea00000610a1a9190611773565b610a24919061175f565b949350505050565b606581565b600181565b610a3e61124f565b73ffffffffffffffffffffffffffffffffffffffff16610a5c610b98565b73ffffffffffffffffffffffffffffffffffffffff1614610aa9576040517f08c379a00000000000000000000000000000000000000000000000000000000081526004016103569061165d565b50565b610ab461124f565b73ffffffffffffffffffffffffffffffffffffffff16610ad2610b98565b73ffffffffffffffffffffffffffffffffffffffff1614610b1f576040517f08c379a00000000000000000000000000000000000000000000000000000000081526004016103569061165d565b60015460405160009173ffffffffffffffffffffffffffffffffffffffff16907f8be0079c531659141344cd1fd0a4f28419497f9722a3daafe3b4186f6b6457e0908390a3600180547fffffffffffffffffffffffff0000000000000000000000000000000000000000169055565b606a81565b600981565b60015473ffffffffffffffffffffffffffffffffffffffff1690565b600281565b600581565b606881565b600481565b600781565b60025460009073ffffffffffffffffffffffffffffffffffffffff84811691161415610bfa575080610616565b73ffffffffffffffffffffffffffffffffffffffff8316600090815260036020819052604090912090810154600110610c5f576040517f08c379a000000000000000000000000000000000000000000000000000000000815260040161035690611600565b6000610c696111a2565b73ffffffffffffffffffffffffffffffffffffffff1663eaa095f8600086856003016040518463ffffffff1660e01b8152600401610ca99392919061145b565b60006040518083038186803b158015610cc157600080fd5b505afa158015610cd5573d6000803e3d6000fd5b505050506040513d6000823e601f3d9081017fffffffffffffffffffffffffffffffffffffffffffffffffffffffffffffffe0168201604052610d1b919081019061135b565b905060008160018351610d2e91906117b0565b81518110610d65577f4e487b7100000000000000000000000000000000000000000000000000000000600052603260045260246000fd5b60200260200101519050826001018054905083600201546001610d889190611747565b610d9291906117c7565b600284015580610dab86683635c9adc5dea00000611773565b610db5919061175f565b83600101846002015481548110610df5577f4e487b7100000000000000000000000000000000000000000000000000000000600052603260045260246000fd5b6000918252602090912001559250610616915050565b60025460009073ffffffffffffffffffffffffffffffffffffffff84811691161415610e38575080610616565b73ffffffffffffffffffffffffffffffffffffffff831660009081526003602052604090206004810154600110610e9b576040517f08c379a000000000000000000000000000000000000000000000000000000000815260040161035690611600565b6000610ea56111a2565b73ffffffffffffffffffffffffffffffffffffffff166390b931ed600086856004016040518463ffffffff1660e01b8152600401610ee59392919061145b565b60006040518083038186803b158015610efd57600080fd5b505afa158015610f11573d6000803e3d6000fd5b505050506040513d6000823e601f3d9081017fffffffffffffffffffffffffffffffffffffffffffffffffffffffffffffffe0168201604052610f57919081019061135b565b9050600081600081518110610f95577f4e487b7100000000000000000000000000000000000000000000000000000000600052603260045260246000fd5b60200260200101519050809350505050610616565b610fb261124f565b73ffffffffffffffffffffffffffffffffffffffff16610fd0610b98565b73ffffffffffffffffffffffffffffffffffffffff161461101d576040517f08c379a00000000000000000000000000000000000000000000000000000000081526004016103569061165d565b73ffffffffffffffffffffffffffffffffffffffff811661106a576040517f08c379a0000000000000000000000000000000000000000000000000000000008152600401610356906115a3565b60015460405173ffffffffffffffffffffffffffffffffffffffff8084169216907f8be0079c531659141344cd1fd0a4f28419497f9722a3daafe3b4186f6b6457e090600090a3600180547fffffffffffffffffffffffff00000000000000000000000000000000000000001673ffffffffffffffffffffffffffffffffffffffff92909216919091179055565b600080546040517fd87fefd200000000000000000000000000000000000000000000000000000000815273ffffffffffffffffffffffffffffffffffffffff9091169063d87fefd2906111529060069086906004016116a1565b60206040518083038186803b15801561116a57600080fd5b505afa15801561117e573d6000803e3d6000fd5b505050506040513d601f19601f8201168201806040525081019061061691906113df565b600080546040517f3c9c8f9c00000000000000000000000000000000000000000000000000000000815273ffffffffffffffffffffffffffffffffffffffff90911690633c9c8f9c906111fa90606790600401611692565b60206040518083038186803b15801561121257600080fd5b505afa158015611226573d6000803e3d6000fd5b505050506040513d601f19601f8201168201806040525081019061124a9190611276565b905090565b3390565b600060208284031215611264578081fd5b813561126f81611868565b9392505050565b600060208284031215611287578081fd5b815161126f81611868565b600080604083850312156112a4578081fd5b82356112af81611868565b946020939093013593505050565b600060208083850312156112cf578182fd5b823567ffffffffffffffff8111156112e5578283fd5b8301601f810185136112f5578283fd5b803561130861130382611723565b6116d4565b8181528381019083850185840285018601891015611324578687fd5b8694505b8385101561134f57803561133b81611868565b835260019490940193918501918501611328565b50979650505050505050565b6000602080838503121561136d578182fd5b825167ffffffffffffffff811115611383578283fd5b8301601f81018513611393578283fd5b80516113a161130382611723565b81815283810190838501858402850186018910156113bd578687fd5b8694505b8385101561134f5780518352600194909401939185019185016113c1565b6000602082840312156113f0578081fd5b8151801515811461126f578182fd5b60048110611436577f4e487b7100000000000000000000000000000000000000000000000000000000600052602160045260246000fd5b9052565b73ffffffffffffffffffffffffffffffffffffffff91909116815260200190565b60006060820161146b83876113ff565b602083810186905260606040850152845491829052848352808320916080850190845b818110156114c057845473ffffffffffffffffffffffffffffffffffffffff168352600194850194928401920161148e565b509098975050505050505050565b6000608082016114de83886113ff565b602086818501528560408501526080606085015281855180845260a0860191508287019350845b8181101561153757845173ffffffffffffffffffffffffffffffffffffffff1683529383019391830191600101611505565b50909998505050505050505050565b6020808252602f908201527f43616c6c696e6720636f6e7472616374206973206e6f7420617574686f72697a60408201527f656420746f206c69717569646174650000000000000000000000000000000000606082015260800190565b60208082526026908201527f4f776e61626c653a206e6577206f776e657220697320746865207a65726f206160408201527f6464726573730000000000000000000000000000000000000000000000000000606082015260800190565b60208082526026908201527f546f6b656e20646f6573206e6f7420686176652061206c69717569646174696f60408201527f6e20706174680000000000000000000000000000000000000000000000000000606082015260800190565b6020808252818101527f4f776e61626c653a2063616c6c6572206973206e6f7420746865206f776e6572604082015260600190565b61ffff91909116815260200190565b61ffff92909216825273ffffffffffffffffffffffffffffffffffffffff16602082015260400190565b90815260200190565b604051601f82017fffffffffffffffffffffffffffffffffffffffffffffffffffffffffffffffe016810167ffffffffffffffff8111828210171561171b5761171b611839565b604052919050565b600067ffffffffffffffff82111561173d5761173d611839565b5060209081020190565b6000821982111561175a5761175a6117db565b500190565b60008261176e5761176e61180a565b500490565b6000817fffffffffffffffffffffffffffffffffffffffffffffffffffffffffffffffff04831182151516156117ab576117ab6117db565b500290565b6000828210156117c2576117c26117db565b500390565b6000826117d6576117d661180a565b500690565b7f4e487b7100000000000000000000000000000000000000000000000000000000600052601160045260246000fd5b7f4e487b7100000000000000000000000000000000000000000000000000000000600052601260045260246000fd5b7f4e487b7100000000000000000000000000000000000000000000000000000000600052604160045260246000fd5b73ffffffffffffffffffffffffffffffffffffffff81168114610aa957600080fdfea26469706673582212204fe15caec4365ea79f1384cf17e525ba41cc36e487f4d569d50b9f5e5f6089e864736f6c63430008010033",
  "linkReferences": {},
  "deployedLinkReferences": {}
}