{
  "_format": "hh-sol-artifact-1",
  "contractName": "Price",
  "sourceName": "contracts/Price.sol",
  "abi": [
    {
      "inputs": [
        {
          "internalType": "address",
          "name": "_peg",
          "type": "address"
        },
        {
          "internalType": "address",
          "name": "_roles",
          "type": "address"
        }
      ],
      "stateMutability": "nonpayable",
      "type": "constructor"
    },
    {
      "anonymous": false,
      "inputs": [
        {
          "indexed": true,
          "internalType": "address",
          "name": "previousOwner",
          "type": "address"
        },
        {
          "indexed": true,
          "internalType": "address",
          "name": "newOwner",
          "type": "address"
        }
      ],
      "name": "OwnershipTransferred",
      "type": "event"
    },
    {
      "inputs": [],
      "name": "AUTHORIZED_FUND_TRADER",
      "outputs": [
        {
          "internalType": "uint16",
          "name": "",
          "type": "uint16"
        }
      ],
      "stateMutability": "view",
      "type": "function"
    },
    {
      "inputs": [],
      "name": "BORROWER",
      "outputs": [
        {
          "internalType": "uint16",
          "name": "",
          "type": "uint16"
        }
      ],
      "stateMutability": "view",
      "type": "function"
    },
    {
      "inputs": [],
      "name": "FEE_CONTROLLER",
      "outputs": [
        {
          "internalType": "uint16",
          "name": "",
          "type": "uint16"
        }
      ],
      "stateMutability": "view",
      "type": "function"
    },
    {
      "inputs": [],
      "name": "FEE_SOURCE",
      "outputs": [
        {
          "internalType": "uint16",
          "name": "",
          "type": "uint16"
        }
      ],
      "stateMutability": "view",
      "type": "function"
    },
    {
      "inputs": [],
      "name": "FUND",
      "outputs": [
        {
          "internalType": "uint16",
          "name": "",
          "type": "uint16"
        }
      ],
      "stateMutability": "view",
      "type": "function"
    },
    {
      "inputs": [],
      "name": "INCENTIVE_REPORTER",
      "outputs": [
        {
          "internalType": "uint16",
          "name": "",
          "type": "uint16"
        }
      ],
      "stateMutability": "view",
      "type": "function"
    },
    {
      "inputs": [],
      "name": "LENDING",
      "outputs": [
        {
          "internalType": "uint16",
          "name": "",
          "type": "uint16"
        }
      ],
      "stateMutability": "view",
      "type": "function"
    },
    {
      "inputs": [],
      "name": "LIQUIDATOR",
      "outputs": [
        {
          "internalType": "uint16",
          "name": "",
          "type": "uint16"
        }
      ],
      "stateMutability": "view",
      "type": "function"
    },
    {
      "inputs": [],
      "name": "MARGIN_CALLER",
      "outputs": [
        {
          "internalType": "uint16",
          "name": "",
          "type": "uint16"
        }
      ],
      "stateMutability": "view",
      "type": "function"
    },
    {
      "inputs": [],
      "name": "MARGIN_TRADER",
      "outputs": [
        {
          "internalType": "uint16",
          "name": "",
          "type": "uint16"
        }
      ],
      "stateMutability": "view",
      "type": "function"
    },
    {
      "inputs": [],
      "name": "MARGIN_TRADING",
      "outputs": [
        {
          "internalType": "uint16",
          "name": "",
          "type": "uint16"
        }
      ],
      "stateMutability": "view",
      "type": "function"
    },
    {
      "inputs": [],
      "name": "PRICE_CONTROLLER",
      "outputs": [
        {
          "internalType": "uint16",
          "name": "",
          "type": "uint16"
        }
      ],
      "stateMutability": "view",
      "type": "function"
    },
    {
      "inputs": [],
      "name": "ROUTER",
      "outputs": [
        {
          "internalType": "uint16",
          "name": "",
          "type": "uint16"
        }
      ],
      "stateMutability": "view",
      "type": "function"
    },
    {
      "inputs": [],
      "name": "WITHDRAWER",
      "outputs": [
        {
          "internalType": "uint16",
          "name": "",
          "type": "uint16"
        }
      ],
      "stateMutability": "view",
      "type": "function"
    },
    {
      "inputs": [
        {
          "internalType": "address",
          "name": "token",
          "type": "address"
        },
        {
          "internalType": "uint256",
          "name": "outAmount",
          "type": "uint256"
        }
      ],
      "name": "getCostInPeg",
      "outputs": [
        {
          "internalType": "uint256",
          "name": "",
          "type": "uint256"
        }
      ],
      "stateMutability": "view",
      "type": "function"
    },
    {
      "inputs": [
        {
          "internalType": "address",
          "name": "token",
          "type": "address"
        },
        {
          "internalType": "uint256",
          "name": "inAmount",
          "type": "uint256"
        }
      ],
      "name": "getCurrentPriceInPeg",
      "outputs": [
        {
          "internalType": "uint256",
          "name": "",
          "type": "uint256"
        }
      ],
      "stateMutability": "view",
      "type": "function"
    },
    {
      "inputs": [
        {
          "internalType": "address",
          "name": "token",
          "type": "address"
        },
        {
          "internalType": "uint256",
          "name": "inAmount",
          "type": "uint256"
        }
      ],
      "name": "getUpdatedPriceInPeg",
      "outputs": [
        {
          "internalType": "uint256",
          "name": "",
          "type": "uint256"
        }
      ],
      "stateMutability": "nonpayable",
      "type": "function"
    },
    {
      "inputs": [
        {
          "internalType": "address",
          "name": "token",
          "type": "address"
        },
        {
          "internalType": "uint256",
          "name": "targetAmount",
          "type": "uint256"
        }
      ],
      "name": "liquidateFromPeg",
      "outputs": [
        {
          "internalType": "uint256",
          "name": "",
          "type": "uint256"
        }
      ],
      "stateMutability": "nonpayable",
      "type": "function"
    },
    {
      "inputs": [
        {
          "internalType": "address",
          "name": "token",
          "type": "address"
        },
        {
          "internalType": "uint256",
          "name": "amount",
          "type": "uint256"
        }
      ],
      "name": "liquidateToPeg",
      "outputs": [
        {
          "internalType": "uint256",
          "name": "",
          "type": "uint256"
        }
      ],
      "stateMutability": "nonpayable",
      "type": "function"
    },
    {
      "inputs": [],
      "name": "owner",
      "outputs": [
        {
          "internalType": "address",
          "name": "",
          "type": "address"
        }
      ],
      "stateMutability": "view",
      "type": "function"
    },
    {
      "inputs": [],
      "name": "peg",
      "outputs": [
        {
          "internalType": "address",
          "name": "",
          "type": "address"
        }
      ],
      "stateMutability": "view",
      "type": "function"
    },
    {
      "inputs": [],
      "name": "renounceOwnership",
      "outputs": [],
      "stateMutability": "nonpayable",
      "type": "function"
    },
    {
      "inputs": [],
      "name": "roles",
      "outputs": [
        {
          "internalType": "contract Roles",
          "name": "",
          "type": "address"
        }
      ],
      "stateMutability": "view",
      "type": "function"
    },
    {
      "inputs": [
        {
          "internalType": "address[]",
          "name": "path",
          "type": "address[]"
        }
      ],
      "name": "setLiquidationPath",
      "outputs": [],
      "stateMutability": "nonpayable",
      "type": "function"
    },
    {
      "inputs": [
        {
          "internalType": "address",
          "name": "newOwner",
          "type": "address"
        }
      ],
      "name": "transferOwnership",
      "outputs": [],
      "stateMutability": "nonpayable",
      "type": "function"
    }
  ],
  "bytecode": "0x60806040523480156200001157600080fd5b50604051620019c6380380620019c68339810160408190526200003491620000ef565b600080546001600160a01b0319166001600160a01b03831617815562000059620000ce565b600180546001600160a01b0319166001600160a01b038316908117909155604051919250906000907f8be0079c531659141344cd1fd0a4f28419497f9722a3daafe3b4186f6b6457e0908290a35050600280546001600160a01b0319166001600160a01b039290921691909117905562000126565b3390565b80516001600160a01b0381168114620000ea57600080fd5b919050565b6000806040838503121562000102578182fd5b6200010d83620000d2565b91506200011d60208401620000d2565b90509250929050565b61189080620001366000396000f3fe608060405234801561001057600080fd5b50600436106101a35760003560e01c806366941984116100ee578063a94c7c3411610097578063d5d7ed7f11610071578063d5d7ed7f146102ae578063e47109a9146102b6578063e62db160146102c9578063f2fde38b146102dc576101a3565b8063a94c7c3414610296578063a9cc05361461029e578063cacf8d45146102a6576101a3565b806381ca6600116100c857806381ca66001461027e5780638da5cb5b14610286578063a0098d691461028e576101a3565b806366941984146102595780636cd7bc4b14610261578063715018a614610276576101a3565b806337487fd51161015057806348fb27b81161012a57806348fb27b8146102365780634cb776621461023e5780635c275a3914610251576101a3565b806337487fd514610213578063392f5f641461022657806346b887961461022e576101a3565b80631f1cb62b116101815780631f1cb62b146101ee5780632fe94def1461020357806332fe7b261461020b576101a3565b806305883f7c146101a8578063065d570f146101d15780631bc5d81d146101e6575b600080fd5b6101bb6101b6366004611262565b6102ef565b6040516101c8919061169b565b60405180910390f35b6101d96105f6565b6040516101c8919061168c565b6101d96105fb565b6101f6610600565b6040516101c8919061140a565b6101d961061c565b6101d9610621565b6101bb610221366004611262565b610626565b6101f6610905565b6101d9610921565b6101d9610926565b6101bb61024c366004611262565b61092b565b6101d9610a01565b6101d9610a06565b61027461026f36600461128d565b610a0b565b005b610274610a81565b6101d9610b63565b6101f6610b68565b6101d9610b84565b6101d9610b89565b6101d9610b8e565b6101d9610b93565b6101d9610b98565b6101bb6102c4366004611262565b610b9d565b6101bb6102d7366004611262565b610ddb565b6102746102ea366004611223565b610f7a565b60006102fa336110c8565b610339576040517f08c379a000000000000000000000000000000000000000000000000000000000815260040161033090611540565b60405180910390fd5b60025473ffffffffffffffffffffffffffffffffffffffff848116911614156103635750806105f0565b73ffffffffffffffffffffffffffffffffffffffff83166000908152600360209081526040808320815160a0810183528154815260018201805484518187028101870190955280855291949293858401939092908301828280156103e657602002820191906000526020600020905b8154815260200190600101908083116103d2575b50505050508152602001600282015481526020016003820180548060200260200160405190810160405280929190818152602001828054801561045f57602002820191906000526020600020905b815473ffffffffffffffffffffffffffffffffffffffff168152600190910190602001808311610434575b50505050508152602001600482018054806020026020016040519081016040528092919081815260200182805480156104ce57602002820191906000526020600020905b815473ffffffffffffffffffffffffffffffffffffffff1681526001909101906020018083116104a3575b505050505081525050905060006104e3611172565b73ffffffffffffffffffffffffffffffffffffffff16630aa29f1c600086600086606001516040518563ffffffff1660e01b815260040161052794939291906114c8565b600060405180830381600087803b15801561054157600080fd5b505af1158015610555573d6000803e3d6000fd5b505050506040513d6000823e601f3d9081017fffffffffffffffffffffffffffffffffffffffffffffffffffffffffffffffe016820160405261059b919081019061132b565b905080600182516105ac9190611780565b815181106105e3577f4e487b7100000000000000000000000000000000000000000000000000000000600052603260045260246000fd5b6020026020010151925050505b92915050565b600381565b600881565b60025473ffffffffffffffffffffffffffffffffffffffff1681565b606981565b606781565b6000610631336110c8565b610667576040517f08c379a000000000000000000000000000000000000000000000000000000000815260040161033090611540565b60025473ffffffffffffffffffffffffffffffffffffffff848116911614156106915750806105f0565b73ffffffffffffffffffffffffffffffffffffffff83166000908152600360209081526040808320815160a08101835281548152600182018054845181870281018701909552808552919492938584019390929083018282801561071457602002820191906000526020600020905b815481526020019060010190808311610700575b50505050508152602001600282015481526020016003820180548060200260200160405190810160405280929190818152602001828054801561078d57602002820191906000526020600020905b815473ffffffffffffffffffffffffffffffffffffffff168152600190910190602001808311610762575b50505050508152602001600482018054806020026020016040519081016040528092919081815260200182805480156107fc57602002820191906000526020600020905b815473ffffffffffffffffffffffffffffffffffffffff1681526001909101906020018083116107d1575b50505050508152505090506000610811611172565b73ffffffffffffffffffffffffffffffffffffffff16631f2a6743600086600086608001516040518563ffffffff1660e01b815260040161085594939291906114c8565b600060405180830381600087803b15801561086f57600080fd5b505af1158015610883573d6000803e3d6000fd5b505050506040513d6000823e601f3d9081017fffffffffffffffffffffffffffffffffffffffffffffffffffffffffffffffe01682016040526108c9919081019061132b565b9050806000815181106105e3577f4e487b7100000000000000000000000000000000000000000000000000000000600052603260045260246000fd5b60005473ffffffffffffffffffffffffffffffffffffffff1681565b600681565b606681565b73ffffffffffffffffffffffffffffffffffffffff8216600090815260036020819052604082209081015460011061098f576040517f08c379a0000000000000000000000000000000000000000000000000000000008152600401610330906115fa565b806001018160020154815481106109cf577f4e487b7100000000000000000000000000000000000000000000000000000000600052603260045260246000fd5b906000526020600020015483683635c9adc5dea000006109ef9190611743565b6109f9919061172f565b949350505050565b606581565b600181565b610a1361121f565b73ffffffffffffffffffffffffffffffffffffffff16610a31610b68565b73ffffffffffffffffffffffffffffffffffffffff1614610a7e576040517f08c379a000000000000000000000000000000000000000000000000000000000815260040161033090611657565b50565b610a8961121f565b73ffffffffffffffffffffffffffffffffffffffff16610aa7610b68565b73ffffffffffffffffffffffffffffffffffffffff1614610af4576040517f08c379a000000000000000000000000000000000000000000000000000000000815260040161033090611657565b60015460405160009173ffffffffffffffffffffffffffffffffffffffff16907f8be0079c531659141344cd1fd0a4f28419497f9722a3daafe3b4186f6b6457e0908390a3600180547fffffffffffffffffffffffff0000000000000000000000000000000000000000169055565b606a81565b60015473ffffffffffffffffffffffffffffffffffffffff1690565b600281565b600581565b606881565b600481565b600781565b60025460009073ffffffffffffffffffffffffffffffffffffffff84811691161415610bca5750806105f0565b73ffffffffffffffffffffffffffffffffffffffff8316600090815260036020819052604090912090810154600110610c2f576040517f08c379a0000000000000000000000000000000000000000000000000000000008152600401610330906115fa565b6000610c39611172565b73ffffffffffffffffffffffffffffffffffffffff1663eaa095f8600086856003016040518463ffffffff1660e01b8152600401610c7993929190611455565b60006040518083038186803b158015610c9157600080fd5b505afa158015610ca5573d6000803e3d6000fd5b505050506040513d6000823e601f3d9081017fffffffffffffffffffffffffffffffffffffffffffffffffffffffffffffffe0168201604052610ceb919081019061132b565b905060008160018351610cfe9190611780565b81518110610d35577f4e487b7100000000000000000000000000000000000000000000000000000000600052603260045260246000fd5b60200260200101519050826001018054905083600201546001610d589190611717565b610d629190611797565b600284015580610d7b86683635c9adc5dea00000611743565b610d85919061172f565b83600101846002015481548110610dc5577f4e487b7100000000000000000000000000000000000000000000000000000000600052603260045260246000fd5b60009182526020909120015592506105f0915050565b60025460009073ffffffffffffffffffffffffffffffffffffffff84811691161415610e085750806105f0565b73ffffffffffffffffffffffffffffffffffffffff831660009081526003602052604090206004810154600110610e6b576040517f08c379a0000000000000000000000000000000000000000000000000000000008152600401610330906115fa565b6000610e75611172565b73ffffffffffffffffffffffffffffffffffffffff166390b931ed600086856004016040518463ffffffff1660e01b8152600401610eb593929190611455565b60006040518083038186803b158015610ecd57600080fd5b505afa158015610ee1573d6000803e3d6000fd5b505050506040513d6000823e601f3d9081017fffffffffffffffffffffffffffffffffffffffffffffffffffffffffffffffe0168201604052610f27919081019061132b565b9050600081600081518110610f65577f4e487b7100000000000000000000000000000000000000000000000000000000600052603260045260246000fd5b602002602001015190508093505050506105f0565b610f8261121f565b73ffffffffffffffffffffffffffffffffffffffff16610fa0610b68565b73ffffffffffffffffffffffffffffffffffffffff1614610fed576040517f08c379a000000000000000000000000000000000000000000000000000000000815260040161033090611657565b73ffffffffffffffffffffffffffffffffffffffff811661103a576040517f08c379a00000000000000000000000000000000000000000000000000000000081526004016103309061159d565b60015460405173ffffffffffffffffffffffffffffffffffffffff8084169216907f8be0079c531659141344cd1fd0a4f28419497f9722a3daafe3b4186f6b6457e090600090a3600180547fffffffffffffffffffffffff00000000000000000000000000000000000000001673ffffffffffffffffffffffffffffffffffffffff92909216919091179055565b600080546040517f7ecd187e00000000000000000000000000000000000000000000000000000000815273ffffffffffffffffffffffffffffffffffffffff90911690637ecd187e9061112290859060069060040161142b565b60206040518083038186803b15801561113a57600080fd5b505afa15801561114e573d6000803e3d6000fd5b505050506040513d601f19601f820116820180604052508101906105f091906113af565b600080546040517f3c9c8f9c00000000000000000000000000000000000000000000000000000000815273ffffffffffffffffffffffffffffffffffffffff90911690633c9c8f9c906111ca9060679060040161168c565b60206040518083038186803b1580156111e257600080fd5b505afa1580156111f6573d6000803e3d6000fd5b505050506040513d601f19601f8201168201806040525081019061121a9190611246565b905090565b3390565b600060208284031215611234578081fd5b813561123f81611838565b9392505050565b600060208284031215611257578081fd5b815161123f81611838565b60008060408385031215611274578081fd5b823561127f81611838565b946020939093013593505050565b6000602080838503121561129f578182fd5b823567ffffffffffffffff8111156112b5578283fd5b8301601f810185136112c5578283fd5b80356112d86112d3826116f3565b6116a4565b81815283810190838501858402850186018910156112f4578687fd5b8694505b8385101561131f57803561130b81611838565b8352600194909401939185019185016112f8565b50979650505050505050565b6000602080838503121561133d578182fd5b825167ffffffffffffffff811115611353578283fd5b8301601f81018513611363578283fd5b80516113716112d3826116f3565b818152838101908385018584028501860189101561138d578687fd5b8694505b8385101561131f578051835260019490940193918501918501611391565b6000602082840312156113c0578081fd5b8151801515811461123f578182fd5b60048110611406577f4e487b7100000000000000000000000000000000000000000000000000000000600052602160045260246000fd5b9052565b73ffffffffffffffffffffffffffffffffffffffff91909116815260200190565b73ffffffffffffffffffffffffffffffffffffffff92909216825261ffff16602082015260400190565b60006060820161146583876113cf565b602083810186905260606040850152845491829052848352808320916080850190845b818110156114ba57845473ffffffffffffffffffffffffffffffffffffffff1683526001948501949284019201611488565b509098975050505050505050565b6000608082016114d883886113cf565b602086818501528560408501526080606085015281855180845260a0860191508287019350845b8181101561153157845173ffffffffffffffffffffffffffffffffffffffff16835293830193918301916001016114ff565b50909998505050505050505050565b6020808252602f908201527f43616c6c696e6720636f6e7472616374206973206e6f7420617574686f72697a60408201527f656420746f206c69717569646174650000000000000000000000000000000000606082015260800190565b60208082526026908201527f4f776e61626c653a206e6577206f776e657220697320746865207a65726f206160408201527f6464726573730000000000000000000000000000000000000000000000000000606082015260800190565b60208082526026908201527f546f6b656e20646f6573206e6f7420686176652061206c69717569646174696f60408201527f6e20706174680000000000000000000000000000000000000000000000000000606082015260800190565b6020808252818101527f4f776e61626c653a2063616c6c6572206973206e6f7420746865206f776e6572604082015260600190565b61ffff91909116815260200190565b90815260200190565b604051601f82017fffffffffffffffffffffffffffffffffffffffffffffffffffffffffffffffe016810167ffffffffffffffff811182821017156116eb576116eb611809565b604052919050565b600067ffffffffffffffff82111561170d5761170d611809565b5060209081020190565b6000821982111561172a5761172a6117ab565b500190565b60008261173e5761173e6117da565b500490565b6000817fffffffffffffffffffffffffffffffffffffffffffffffffffffffffffffffff048311821515161561177b5761177b6117ab565b500290565b600082821015611792576117926117ab565b500390565b6000826117a6576117a66117da565b500690565b7f4e487b7100000000000000000000000000000000000000000000000000000000600052601160045260246000fd5b7f4e487b7100000000000000000000000000000000000000000000000000000000600052601260045260246000fd5b7f4e487b7100000000000000000000000000000000000000000000000000000000600052604160045260246000fd5b73ffffffffffffffffffffffffffffffffffffffff81168114610a7e57600080fdfea26469706673582212209cb9577711053e0ca15018f1f4d1491013361f57bf8a2cfc50d9f717c6b2eecc64736f6c63430008010033",
  "linkReferences": {},
  "deployedLinkReferences": {}
}