{
  "_format": "hh-sol-artifact-1",
  "contractName": "Price",
  "sourceName": "contracts/Price.sol",
  "abi": [
    {
      "inputs": [
        {
          "internalType": "address",
          "name": "_peg",
          "type": "address"
        },
        {
          "internalType": "address",
          "name": "_roles",
          "type": "address"
        }
      ],
      "stateMutability": "nonpayable",
      "type": "constructor"
    },
    {
      "anonymous": false,
      "inputs": [
        {
          "indexed": true,
          "internalType": "address",
          "name": "previousOwner",
          "type": "address"
        },
        {
          "indexed": true,
          "internalType": "address",
          "name": "newOwner",
          "type": "address"
        }
      ],
      "name": "OwnershipTransferred",
      "type": "event"
    },
    {
      "inputs": [],
      "name": "ADMIN",
      "outputs": [
        {
          "internalType": "uint16",
          "name": "",
          "type": "uint16"
        }
      ],
      "stateMutability": "view",
      "type": "function"
    },
    {
      "inputs": [],
      "name": "AUTHORIZED_FUND_TRADER",
      "outputs": [
        {
          "internalType": "uint16",
          "name": "",
          "type": "uint16"
        }
      ],
      "stateMutability": "view",
      "type": "function"
    },
    {
      "inputs": [],
      "name": "BORROWER",
      "outputs": [
        {
          "internalType": "uint16",
          "name": "",
          "type": "uint16"
        }
      ],
      "stateMutability": "view",
      "type": "function"
    },
    {
      "inputs": [],
      "name": "FEE_CONTROLLER",
      "outputs": [
        {
          "internalType": "uint16",
          "name": "",
          "type": "uint16"
        }
      ],
      "stateMutability": "view",
      "type": "function"
    },
    {
      "inputs": [],
      "name": "FEE_SOURCE",
      "outputs": [
        {
          "internalType": "uint16",
          "name": "",
          "type": "uint16"
        }
      ],
      "stateMutability": "view",
      "type": "function"
    },
    {
      "inputs": [],
      "name": "FUND",
      "outputs": [
        {
          "internalType": "uint16",
          "name": "",
          "type": "uint16"
        }
      ],
      "stateMutability": "view",
      "type": "function"
    },
    {
      "inputs": [],
      "name": "INCENTIVE_DISTRIBUTION",
      "outputs": [
        {
          "internalType": "uint16",
          "name": "",
          "type": "uint16"
        }
      ],
      "stateMutability": "view",
      "type": "function"
    },
    {
      "inputs": [],
      "name": "INCENTIVE_REPORTER",
      "outputs": [
        {
          "internalType": "uint16",
          "name": "",
          "type": "uint16"
        }
      ],
      "stateMutability": "view",
      "type": "function"
    },
    {
      "inputs": [],
      "name": "LENDING",
      "outputs": [
        {
          "internalType": "uint16",
          "name": "",
          "type": "uint16"
        }
      ],
      "stateMutability": "view",
      "type": "function"
    },
    {
      "inputs": [],
      "name": "LIQUIDATOR",
      "outputs": [
        {
          "internalType": "uint16",
          "name": "",
          "type": "uint16"
        }
      ],
      "stateMutability": "view",
      "type": "function"
    },
    {
      "inputs": [],
      "name": "MARGIN_CALLER",
      "outputs": [
        {
          "internalType": "uint16",
          "name": "",
          "type": "uint16"
        }
      ],
      "stateMutability": "view",
      "type": "function"
    },
    {
      "inputs": [],
      "name": "MARGIN_TRADER",
      "outputs": [
        {
          "internalType": "uint16",
          "name": "",
          "type": "uint16"
        }
      ],
      "stateMutability": "view",
      "type": "function"
    },
    {
      "inputs": [],
      "name": "MARGIN_TRADING",
      "outputs": [
        {
          "internalType": "uint16",
          "name": "",
          "type": "uint16"
        }
      ],
      "stateMutability": "view",
      "type": "function"
    },
    {
      "inputs": [],
      "name": "PRICE_CONTROLLER",
      "outputs": [
        {
          "internalType": "uint16",
          "name": "",
          "type": "uint16"
        }
      ],
      "stateMutability": "view",
      "type": "function"
    },
    {
      "inputs": [],
      "name": "ROUTER",
      "outputs": [
        {
          "internalType": "uint16",
          "name": "",
          "type": "uint16"
        }
      ],
      "stateMutability": "view",
      "type": "function"
    },
    {
      "inputs": [],
      "name": "STAKE_PENALIZER",
      "outputs": [
        {
          "internalType": "uint16",
          "name": "",
          "type": "uint16"
        }
      ],
      "stateMutability": "view",
      "type": "function"
    },
    {
      "inputs": [],
      "name": "TOKEN_ACTIVATOR",
      "outputs": [
        {
          "internalType": "uint16",
          "name": "",
          "type": "uint16"
        }
      ],
      "stateMutability": "view",
      "type": "function"
    },
    {
      "inputs": [],
      "name": "WITHDRAWER",
      "outputs": [
        {
          "internalType": "uint16",
          "name": "",
          "type": "uint16"
        }
      ],
      "stateMutability": "view",
      "type": "function"
    },
    {
      "inputs": [
        {
          "internalType": "address",
          "name": "token",
          "type": "address"
        },
        {
          "internalType": "uint256",
          "name": "outAmount",
          "type": "uint256"
        }
      ],
      "name": "getCostInPeg",
      "outputs": [
        {
          "internalType": "uint256",
          "name": "",
          "type": "uint256"
        }
      ],
      "stateMutability": "view",
      "type": "function"
    },
    {
      "inputs": [
        {
          "internalType": "address",
          "name": "token",
          "type": "address"
        },
        {
          "internalType": "uint256",
          "name": "inAmount",
          "type": "uint256"
        }
      ],
      "name": "getCurrentPriceInPeg",
      "outputs": [
        {
          "internalType": "uint256",
          "name": "",
          "type": "uint256"
        }
      ],
      "stateMutability": "view",
      "type": "function"
    },
    {
      "inputs": [
        {
          "internalType": "address",
          "name": "token",
          "type": "address"
        },
        {
          "internalType": "uint256",
          "name": "inAmount",
          "type": "uint256"
        }
      ],
      "name": "getUpdatedPriceInPeg",
      "outputs": [
        {
          "internalType": "uint256",
          "name": "",
          "type": "uint256"
        }
      ],
      "stateMutability": "nonpayable",
      "type": "function"
    },
    {
      "inputs": [
        {
          "internalType": "address",
          "name": "token",
          "type": "address"
        },
        {
          "internalType": "uint256",
          "name": "targetAmount",
          "type": "uint256"
        }
      ],
      "name": "liquidateFromPeg",
      "outputs": [
        {
          "internalType": "uint256",
          "name": "",
          "type": "uint256"
        }
      ],
      "stateMutability": "nonpayable",
      "type": "function"
    },
    {
      "inputs": [
        {
          "internalType": "address",
          "name": "token",
          "type": "address"
        },
        {
          "internalType": "uint256",
          "name": "amount",
          "type": "uint256"
        }
      ],
      "name": "liquidateToPeg",
      "outputs": [
        {
          "internalType": "uint256",
          "name": "",
          "type": "uint256"
        }
      ],
      "stateMutability": "nonpayable",
      "type": "function"
    },
    {
      "inputs": [],
      "name": "owner",
      "outputs": [
        {
          "internalType": "address",
          "name": "",
          "type": "address"
        }
      ],
      "stateMutability": "view",
      "type": "function"
    },
    {
      "inputs": [],
      "name": "peg",
      "outputs": [
        {
          "internalType": "address",
          "name": "",
          "type": "address"
        }
      ],
      "stateMutability": "view",
      "type": "function"
    },
    {
      "inputs": [],
      "name": "renounceOwnership",
      "outputs": [],
      "stateMutability": "nonpayable",
      "type": "function"
    },
    {
      "inputs": [],
      "name": "roles",
      "outputs": [
        {
          "internalType": "contract Roles",
          "name": "",
          "type": "address"
        }
      ],
      "stateMutability": "view",
      "type": "function"
    },
    {
      "inputs": [
        {
          "internalType": "address[]",
          "name": "path",
          "type": "address[]"
        }
      ],
      "name": "setLiquidationPath",
      "outputs": [],
      "stateMutability": "nonpayable",
      "type": "function"
    },
    {
      "inputs": [
        {
          "internalType": "address",
          "name": "newOwner",
          "type": "address"
        }
      ],
      "name": "transferOwnership",
      "outputs": [],
      "stateMutability": "nonpayable",
      "type": "function"
    }
  ],
  "bytecode": "0x60806040523480156200001157600080fd5b5060405162001a2638038062001a268339810160408190526200003491620000ef565b600080546001600160a01b0319166001600160a01b03831617815562000059620000ce565b600180546001600160a01b0319166001600160a01b038316908117909155604051919250906000907f8be0079c531659141344cd1fd0a4f28419497f9722a3daafe3b4186f6b6457e0908290a35050600280546001600160a01b0319166001600160a01b039290921691909117905562000126565b3390565b80516001600160a01b0381168114620000ea57600080fd5b919050565b6000806040838503121562000102578182fd5b6200010d83620000d2565b91506200011d60208401620000d2565b90509250929050565b6118f080620001366000396000f3fe608060405234801561001057600080fd5b50600436106101cf5760003560e01c80636694198411610104578063a94c7c34116100a2578063d5d7ed7f11610071578063d5d7ed7f146102fa578063e47109a914610302578063e62db16014610315578063f2fde38b14610328576101cf565b8063a94c7c34146102da578063a9cc0536146102e2578063c76139d0146102ea578063cacf8d45146102f2576101cf565b806381ca6600116100de57806381ca6600146102ba57806383a49c7c146102c25780638da5cb5b146102ca578063a0098d69146102d2576101cf565b806366941984146102955780636cd7bc4b1461029d578063715018a6146102b2576101cf565b806332fe7b261161017157806346b887961161014b57806346b887961461026a57806348fb27b8146102725780634cb776621461027a5780635c275a391461028d576101cf565b806332fe7b261461024757806337487fd51461024f578063392f5f6414610262576101cf565b80631bc5d81d116101ad5780631bc5d81d1461021a5780631f1cb62b146102225780632a0acc6a146102375780632fe94def1461023f576101cf565b806305883f7c146101d4578063065d570f146101fd5780631b66950714610212575b600080fd5b6101e76101e23660046112c2565b61033b565b6040516101f491906116fb565b60405180910390f35b610205610642565b6040516101f491906116c2565b610205610647565b61020561064c565b61022a610651565b6040516101f4919061146a565b61020561066d565b610205610672565b610205610677565b6101e761025d3660046112c2565b61067c565b61022a61095b565b610205610977565b61020561097c565b6101e76102883660046112c2565b610981565b610205610a57565b610205610a5c565b6102b06102ab3660046112ed565b610a61565b005b6102b0610ad7565b610205610bb9565b610205610bbe565b61022a610bc3565b610205610bdf565b610205610be4565b610205610be9565b610205610bee565b610205610bf3565b610205610bf8565b6101e76103103660046112c2565b610bfd565b6101e76103233660046112c2565b610e3b565b6102b0610336366004611283565b610fda565b600061034633611128565b610385576040517f08c379a000000000000000000000000000000000000000000000000000000000815260040161037c90611576565b60405180910390fd5b60025473ffffffffffffffffffffffffffffffffffffffff848116911614156103af57508061063c565b73ffffffffffffffffffffffffffffffffffffffff83166000908152600360209081526040808320815160a08101835281548152600182018054845181870281018701909552808552919492938584019390929083018282801561043257602002820191906000526020600020905b81548152602001906001019080831161041e575b5050505050815260200160028201548152602001600382018054806020026020016040519081016040528092919081815260200182805480156104ab57602002820191906000526020600020905b815473ffffffffffffffffffffffffffffffffffffffff168152600190910190602001808311610480575b505050505081526020016004820180548060200260200160405190810160405280929190818152602001828054801561051a57602002820191906000526020600020905b815473ffffffffffffffffffffffffffffffffffffffff1681526001909101906020018083116104ef575b5050505050815250509050600061052f6111d2565b73ffffffffffffffffffffffffffffffffffffffff16630aa29f1c600086600086606001516040518563ffffffff1660e01b815260040161057394939291906114fe565b600060405180830381600087803b15801561058d57600080fd5b505af11580156105a1573d6000803e3d6000fd5b505050506040513d6000823e601f3d9081017fffffffffffffffffffffffffffffffffffffffffffffffffffffffffffffffe01682016040526105e7919081019061138b565b905080600182516105f891906117e0565b8151811061062f577f4e487b7100000000000000000000000000000000000000000000000000000000600052603260045260246000fd5b6020026020010151925050505b92915050565b600381565b600a81565b600881565b60025473ffffffffffffffffffffffffffffffffffffffff1681565b606b81565b606981565b606781565b600061068733611128565b6106bd576040517f08c379a000000000000000000000000000000000000000000000000000000000815260040161037c90611576565b60025473ffffffffffffffffffffffffffffffffffffffff848116911614156106e757508061063c565b73ffffffffffffffffffffffffffffffffffffffff83166000908152600360209081526040808320815160a08101835281548152600182018054845181870281018701909552808552919492938584019390929083018282801561076a57602002820191906000526020600020905b815481526020019060010190808311610756575b5050505050815260200160028201548152602001600382018054806020026020016040519081016040528092919081815260200182805480156107e357602002820191906000526020600020905b815473ffffffffffffffffffffffffffffffffffffffff1681526001909101906020018083116107b8575b505050505081526020016004820180548060200260200160405190810160405280929190818152602001828054801561085257602002820191906000526020600020905b815473ffffffffffffffffffffffffffffffffffffffff168152600190910190602001808311610827575b505050505081525050905060006108676111d2565b73ffffffffffffffffffffffffffffffffffffffff16631f2a6743600086600086608001516040518563ffffffff1660e01b81526004016108ab94939291906114fe565b600060405180830381600087803b1580156108c557600080fd5b505af11580156108d9573d6000803e3d6000fd5b505050506040513d6000823e601f3d9081017fffffffffffffffffffffffffffffffffffffffffffffffffffffffffffffffe016820160405261091f919081019061138b565b90508060008151811061062f577f4e487b7100000000000000000000000000000000000000000000000000000000600052603260045260246000fd5b60005473ffffffffffffffffffffffffffffffffffffffff1681565b600681565b606681565b73ffffffffffffffffffffffffffffffffffffffff821660009081526003602081905260408220908101546001106109e5576040517f08c379a000000000000000000000000000000000000000000000000000000000815260040161037c90611630565b80600101816002015481548110610a25577f4e487b7100000000000000000000000000000000000000000000000000000000600052603260045260246000fd5b906000526020600020015483683635c9adc5dea00000610a4591906117a3565b610a4f919061178f565b949350505050565b606581565b600181565b610a6961127f565b73ffffffffffffffffffffffffffffffffffffffff16610a87610bc3565b73ffffffffffffffffffffffffffffffffffffffff1614610ad4576040517f08c379a000000000000000000000000000000000000000000000000000000000815260040161037c9061168d565b50565b610adf61127f565b73ffffffffffffffffffffffffffffffffffffffff16610afd610bc3565b73ffffffffffffffffffffffffffffffffffffffff1614610b4a576040517f08c379a000000000000000000000000000000000000000000000000000000000815260040161037c9061168d565b60015460405160009173ffffffffffffffffffffffffffffffffffffffff16907f8be0079c531659141344cd1fd0a4f28419497f9722a3daafe3b4186f6b6457e0908390a3600180547fffffffffffffffffffffffff0000000000000000000000000000000000000000169055565b606a81565b600981565b60015473ffffffffffffffffffffffffffffffffffffffff1690565b600281565b600581565b606881565b606c81565b600481565b600781565b60025460009073ffffffffffffffffffffffffffffffffffffffff84811691161415610c2a57508061063c565b73ffffffffffffffffffffffffffffffffffffffff8316600090815260036020819052604090912090810154600110610c8f576040517f08c379a000000000000000000000000000000000000000000000000000000000815260040161037c90611630565b6000610c996111d2565b73ffffffffffffffffffffffffffffffffffffffff1663eaa095f8600086856003016040518463ffffffff1660e01b8152600401610cd99392919061148b565b60006040518083038186803b158015610cf157600080fd5b505afa158015610d05573d6000803e3d6000fd5b505050506040513d6000823e601f3d9081017fffffffffffffffffffffffffffffffffffffffffffffffffffffffffffffffe0168201604052610d4b919081019061138b565b905060008160018351610d5e91906117e0565b81518110610d95577f4e487b7100000000000000000000000000000000000000000000000000000000600052603260045260246000fd5b60200260200101519050826001018054905083600201546001610db89190611777565b610dc291906117f7565b600284015580610ddb86683635c9adc5dea000006117a3565b610de5919061178f565b83600101846002015481548110610e25577f4e487b7100000000000000000000000000000000000000000000000000000000600052603260045260246000fd5b600091825260209091200155925061063c915050565b60025460009073ffffffffffffffffffffffffffffffffffffffff84811691161415610e6857508061063c565b73ffffffffffffffffffffffffffffffffffffffff831660009081526003602052604090206004810154600110610ecb576040517f08c379a000000000000000000000000000000000000000000000000000000000815260040161037c90611630565b6000610ed56111d2565b73ffffffffffffffffffffffffffffffffffffffff166390b931ed600086856004016040518463ffffffff1660e01b8152600401610f159392919061148b565b60006040518083038186803b158015610f2d57600080fd5b505afa158015610f41573d6000803e3d6000fd5b505050506040513d6000823e601f3d9081017fffffffffffffffffffffffffffffffffffffffffffffffffffffffffffffffe0168201604052610f87919081019061138b565b9050600081600081518110610fc5577f4e487b7100000000000000000000000000000000000000000000000000000000600052603260045260246000fd5b6020026020010151905080935050505061063c565b610fe261127f565b73ffffffffffffffffffffffffffffffffffffffff16611000610bc3565b73ffffffffffffffffffffffffffffffffffffffff161461104d576040517f08c379a000000000000000000000000000000000000000000000000000000000815260040161037c9061168d565b73ffffffffffffffffffffffffffffffffffffffff811661109a576040517f08c379a000000000000000000000000000000000000000000000000000000000815260040161037c906115d3565b60015460405173ffffffffffffffffffffffffffffffffffffffff8084169216907f8be0079c531659141344cd1fd0a4f28419497f9722a3daafe3b4186f6b6457e090600090a3600180547fffffffffffffffffffffffff00000000000000000000000000000000000000001673ffffffffffffffffffffffffffffffffffffffff92909216919091179055565b600080546040517fd87fefd200000000000000000000000000000000000000000000000000000000815273ffffffffffffffffffffffffffffffffffffffff9091169063d87fefd2906111829060069086906004016116d1565b60206040518083038186803b15801561119a57600080fd5b505afa1580156111ae573d6000803e3d6000fd5b505050506040513d601f19601f8201168201806040525081019061063c919061140f565b600080546040517f3c9c8f9c00000000000000000000000000000000000000000000000000000000815273ffffffffffffffffffffffffffffffffffffffff90911690633c9c8f9c9061122a906067906004016116c2565b60206040518083038186803b15801561124257600080fd5b505afa158015611256573d6000803e3d6000fd5b505050506040513d601f19601f8201168201806040525081019061127a91906112a6565b905090565b3390565b600060208284031215611294578081fd5b813561129f81611898565b9392505050565b6000602082840312156112b7578081fd5b815161129f81611898565b600080604083850312156112d4578081fd5b82356112df81611898565b946020939093013593505050565b600060208083850312156112ff578182fd5b823567ffffffffffffffff811115611315578283fd5b8301601f81018513611325578283fd5b803561133861133382611753565b611704565b8181528381019083850185840285018601891015611354578687fd5b8694505b8385101561137f57803561136b81611898565b835260019490940193918501918501611358565b50979650505050505050565b6000602080838503121561139d578182fd5b825167ffffffffffffffff8111156113b3578283fd5b8301601f810185136113c3578283fd5b80516113d161133382611753565b81815283810190838501858402850186018910156113ed578687fd5b8694505b8385101561137f5780518352600194909401939185019185016113f1565b600060208284031215611420578081fd5b8151801515811461129f578182fd5b60048110611466577f4e487b7100000000000000000000000000000000000000000000000000000000600052602160045260246000fd5b9052565b73ffffffffffffffffffffffffffffffffffffffff91909116815260200190565b60006060820161149b838761142f565b602083810186905260606040850152845491829052848352808320916080850190845b818110156114f057845473ffffffffffffffffffffffffffffffffffffffff16835260019485019492840192016114be565b509098975050505050505050565b60006080820161150e838861142f565b602086818501528560408501526080606085015281855180845260a0860191508287019350845b8181101561156757845173ffffffffffffffffffffffffffffffffffffffff1683529383019391830191600101611535565b50909998505050505050505050565b6020808252602f908201527f43616c6c696e6720636f6e7472616374206973206e6f7420617574686f72697a60408201527f656420746f206c69717569646174650000000000000000000000000000000000606082015260800190565b60208082526026908201527f4f776e61626c653a206e6577206f776e657220697320746865207a65726f206160408201527f6464726573730000000000000000000000000000000000000000000000000000606082015260800190565b60208082526026908201527f546f6b656e20646f6573206e6f7420686176652061206c69717569646174696f60408201527f6e20706174680000000000000000000000000000000000000000000000000000606082015260800190565b6020808252818101527f4f776e61626c653a2063616c6c6572206973206e6f7420746865206f776e6572604082015260600190565b61ffff91909116815260200190565b61ffff92909216825273ffffffffffffffffffffffffffffffffffffffff16602082015260400190565b90815260200190565b604051601f82017fffffffffffffffffffffffffffffffffffffffffffffffffffffffffffffffe016810167ffffffffffffffff8111828210171561174b5761174b611869565b604052919050565b600067ffffffffffffffff82111561176d5761176d611869565b5060209081020190565b6000821982111561178a5761178a61180b565b500190565b60008261179e5761179e61183a565b500490565b6000817fffffffffffffffffffffffffffffffffffffffffffffffffffffffffffffffff04831182151516156117db576117db61180b565b500290565b6000828210156117f2576117f261180b565b500390565b6000826118065761180661183a565b500690565b7f4e487b7100000000000000000000000000000000000000000000000000000000600052601160045260246000fd5b7f4e487b7100000000000000000000000000000000000000000000000000000000600052601260045260246000fd5b7f4e487b7100000000000000000000000000000000000000000000000000000000600052604160045260246000fd5b73ffffffffffffffffffffffffffffffffffffffff81168114610ad457600080fdfea26469706673582212200da510f08e3ae4b0a7dd7f0f004f7bb3992951bf38c57f14669d104dac84ce3164736f6c63430008010033",
  "linkReferences": {},
  "deployedLinkReferences": {}
}