{
  "_format": "hh-sol-artifact-1",
  "contractName": "Price",
  "sourceName": "contracts/Price.sol",
  "abi": [
    {
      "inputs": [
        {
          "internalType": "address",
          "name": "_peg",
          "type": "address"
        },
        {
          "internalType": "address",
          "name": "_roles",
          "type": "address"
        }
      ],
      "stateMutability": "nonpayable",
      "type": "constructor"
    },
    {
      "anonymous": false,
      "inputs": [
        {
          "indexed": true,
          "internalType": "address",
          "name": "previousOwner",
          "type": "address"
        },
        {
          "indexed": true,
          "internalType": "address",
          "name": "newOwner",
          "type": "address"
        }
      ],
      "name": "OwnershipTransferred",
      "type": "event"
    },
    {
      "inputs": [],
      "name": "ADMIN",
      "outputs": [
        {
          "internalType": "uint16",
          "name": "",
          "type": "uint16"
        }
      ],
      "stateMutability": "view",
      "type": "function"
    },
    {
      "inputs": [],
      "name": "AUTHORIZED_FUND_TRADER",
      "outputs": [
        {
          "internalType": "uint16",
          "name": "",
          "type": "uint16"
        }
      ],
      "stateMutability": "view",
      "type": "function"
    },
    {
      "inputs": [],
      "name": "BORROWER",
      "outputs": [
        {
          "internalType": "uint16",
          "name": "",
          "type": "uint16"
        }
      ],
      "stateMutability": "view",
      "type": "function"
    },
    {
      "inputs": [],
      "name": "FEE_CONTROLLER",
      "outputs": [
        {
          "internalType": "uint16",
          "name": "",
          "type": "uint16"
        }
      ],
      "stateMutability": "view",
      "type": "function"
    },
    {
      "inputs": [],
      "name": "FEE_SOURCE",
      "outputs": [
        {
          "internalType": "uint16",
          "name": "",
          "type": "uint16"
        }
      ],
      "stateMutability": "view",
      "type": "function"
    },
    {
      "inputs": [],
      "name": "FUND",
      "outputs": [
        {
          "internalType": "uint16",
          "name": "",
          "type": "uint16"
        }
      ],
      "stateMutability": "view",
      "type": "function"
    },
    {
      "inputs": [],
      "name": "INCENTIVE_DISTRIBUTION",
      "outputs": [
        {
          "internalType": "uint16",
          "name": "",
          "type": "uint16"
        }
      ],
      "stateMutability": "view",
      "type": "function"
    },
    {
      "inputs": [],
      "name": "INCENTIVE_REPORTER",
      "outputs": [
        {
          "internalType": "uint16",
          "name": "",
          "type": "uint16"
        }
      ],
      "stateMutability": "view",
      "type": "function"
    },
    {
      "inputs": [],
      "name": "LENDING",
      "outputs": [
        {
          "internalType": "uint16",
          "name": "",
          "type": "uint16"
        }
      ],
      "stateMutability": "view",
      "type": "function"
    },
    {
      "inputs": [],
      "name": "LIQUIDATOR",
      "outputs": [
        {
          "internalType": "uint16",
          "name": "",
          "type": "uint16"
        }
      ],
      "stateMutability": "view",
      "type": "function"
    },
    {
      "inputs": [],
      "name": "MARGIN_CALLER",
      "outputs": [
        {
          "internalType": "uint16",
          "name": "",
          "type": "uint16"
        }
      ],
      "stateMutability": "view",
      "type": "function"
    },
    {
      "inputs": [],
      "name": "MARGIN_TRADER",
      "outputs": [
        {
          "internalType": "uint16",
          "name": "",
          "type": "uint16"
        }
      ],
      "stateMutability": "view",
      "type": "function"
    },
    {
      "inputs": [],
      "name": "MARGIN_TRADING",
      "outputs": [
        {
          "internalType": "uint16",
          "name": "",
          "type": "uint16"
        }
      ],
      "stateMutability": "view",
      "type": "function"
    },
    {
      "inputs": [],
      "name": "PRICE_CONTROLLER",
      "outputs": [
        {
          "internalType": "uint16",
          "name": "",
          "type": "uint16"
        }
      ],
      "stateMutability": "view",
      "type": "function"
    },
    {
      "inputs": [],
      "name": "ROUTER",
      "outputs": [
        {
          "internalType": "uint16",
          "name": "",
          "type": "uint16"
        }
      ],
      "stateMutability": "view",
      "type": "function"
    },
    {
      "inputs": [],
      "name": "TOKEN_ACTIVATOR",
      "outputs": [
        {
          "internalType": "uint16",
          "name": "",
          "type": "uint16"
        }
      ],
      "stateMutability": "view",
      "type": "function"
    },
    {
      "inputs": [],
      "name": "WITHDRAWER",
      "outputs": [
        {
          "internalType": "uint16",
          "name": "",
          "type": "uint16"
        }
      ],
      "stateMutability": "view",
      "type": "function"
    },
    {
      "inputs": [
        {
          "internalType": "address",
          "name": "token",
          "type": "address"
        },
        {
          "internalType": "uint256",
          "name": "outAmount",
          "type": "uint256"
        }
      ],
      "name": "getCostInPeg",
      "outputs": [
        {
          "internalType": "uint256",
          "name": "",
          "type": "uint256"
        }
      ],
      "stateMutability": "view",
      "type": "function"
    },
    {
      "inputs": [
        {
          "internalType": "address",
          "name": "token",
          "type": "address"
        },
        {
          "internalType": "uint256",
          "name": "inAmount",
          "type": "uint256"
        }
      ],
      "name": "getCurrentPriceInPeg",
      "outputs": [
        {
          "internalType": "uint256",
          "name": "",
          "type": "uint256"
        }
      ],
      "stateMutability": "view",
      "type": "function"
    },
    {
      "inputs": [
        {
          "internalType": "address",
          "name": "token",
          "type": "address"
        },
        {
          "internalType": "uint256",
          "name": "inAmount",
          "type": "uint256"
        }
      ],
      "name": "getUpdatedPriceInPeg",
      "outputs": [
        {
          "internalType": "uint256",
          "name": "",
          "type": "uint256"
        }
      ],
      "stateMutability": "nonpayable",
      "type": "function"
    },
    {
      "inputs": [
        {
          "internalType": "address",
          "name": "token",
          "type": "address"
        },
        {
          "internalType": "uint256",
          "name": "targetAmount",
          "type": "uint256"
        }
      ],
      "name": "liquidateFromPeg",
      "outputs": [
        {
          "internalType": "uint256",
          "name": "",
          "type": "uint256"
        }
      ],
      "stateMutability": "nonpayable",
      "type": "function"
    },
    {
      "inputs": [
        {
          "internalType": "address",
          "name": "token",
          "type": "address"
        },
        {
          "internalType": "uint256",
          "name": "amount",
          "type": "uint256"
        }
      ],
      "name": "liquidateToPeg",
      "outputs": [
        {
          "internalType": "uint256",
          "name": "",
          "type": "uint256"
        }
      ],
      "stateMutability": "nonpayable",
      "type": "function"
    },
    {
      "inputs": [],
      "name": "owner",
      "outputs": [
        {
          "internalType": "address",
          "name": "",
          "type": "address"
        }
      ],
      "stateMutability": "view",
      "type": "function"
    },
    {
      "inputs": [],
      "name": "peg",
      "outputs": [
        {
          "internalType": "address",
          "name": "",
          "type": "address"
        }
      ],
      "stateMutability": "view",
      "type": "function"
    },
    {
      "inputs": [],
      "name": "renounceOwnership",
      "outputs": [],
      "stateMutability": "nonpayable",
      "type": "function"
    },
    {
      "inputs": [],
      "name": "roles",
      "outputs": [
        {
          "internalType": "contract Roles",
          "name": "",
          "type": "address"
        }
      ],
      "stateMutability": "view",
      "type": "function"
    },
    {
      "inputs": [
        {
          "internalType": "address[]",
          "name": "path",
          "type": "address[]"
        }
      ],
      "name": "setLiquidationPath",
      "outputs": [],
      "stateMutability": "nonpayable",
      "type": "function"
    },
    {
      "inputs": [
        {
          "internalType": "address",
          "name": "newOwner",
          "type": "address"
        }
      ],
      "name": "transferOwnership",
      "outputs": [],
      "stateMutability": "nonpayable",
      "type": "function"
    }
  ],
  "bytecode": "0x60806040523480156200001157600080fd5b5060405162001a0e38038062001a0e8339810160408190526200003491620000ef565b600080546001600160a01b0319166001600160a01b03831617815562000059620000ce565b600180546001600160a01b0319166001600160a01b038316908117909155604051919250906000907f8be0079c531659141344cd1fd0a4f28419497f9722a3daafe3b4186f6b6457e0908290a35050600280546001600160a01b0319166001600160a01b039290921691909117905562000126565b3390565b80516001600160a01b0381168114620000ea57600080fd5b919050565b6000806040838503121562000102578182fd5b6200010d83620000d2565b91506200011d60208401620000d2565b90509250929050565b6118d880620001366000396000f3fe608060405234801561001057600080fd5b50600436106101c45760003560e01c80636cd7bc4b116100f9578063a9cc053611610097578063d5d7ed7f11610071578063d5d7ed7f146102e7578063e47109a9146102ef578063e62db16014610302578063f2fde38b14610315576101c4565b8063a9cc0536146102cf578063c76139d0146102d7578063cacf8d45146102df576101c4565b806383a49c7c116100d357806383a49c7c146102af5780638da5cb5b146102b7578063a0098d69146102bf578063a94c7c34146102c7576101c4565b80636cd7bc4b1461028a578063715018a61461029f57806381ca6600146102a7576101c4565b806337487fd51161016657806348fb27b81161014057806348fb27b81461025f5780634cb77662146102675780635c275a391461027a5780636694198414610282576101c4565b806337487fd51461023c578063392f5f641461024f57806346b8879614610257576101c4565b80631f1cb62b116101a25780631f1cb62b1461020f5780632a0acc6a146102245780632fe94def1461022c57806332fe7b2614610234576101c4565b806305883f7c146101c9578063065d570f146101f25780631bc5d81d14610207575b600080fd5b6101dc6101d73660046112aa565b610328565b6040516101e991906116e3565b60405180910390f35b6101fa61062f565b6040516101e991906116aa565b6101fa610634565b610217610639565b6040516101e99190611452565b6101fa610655565b6101fa61065a565b6101fa61065f565b6101dc61024a3660046112aa565b610664565b610217610943565b6101fa61095f565b6101fa610964565b6101dc6102753660046112aa565b610969565b6101fa610a3f565b6101fa610a44565b61029d6102983660046112d5565b610a49565b005b61029d610abf565b6101fa610ba1565b6101fa610ba6565b610217610bab565b6101fa610bc7565b6101fa610bcc565b6101fa610bd1565b6101fa610bd6565b6101fa610bdb565b6101fa610be0565b6101dc6102fd3660046112aa565b610be5565b6101dc6103103660046112aa565b610e23565b61029d61032336600461126b565b610fc2565b600061033333611110565b610372576040517f08c379a00000000000000000000000000000000000000000000000000000000081526004016103699061155e565b60405180910390fd5b60025473ffffffffffffffffffffffffffffffffffffffff8481169116141561039c575080610629565b73ffffffffffffffffffffffffffffffffffffffff83166000908152600360209081526040808320815160a08101835281548152600182018054845181870281018701909552808552919492938584019390929083018282801561041f57602002820191906000526020600020905b81548152602001906001019080831161040b575b50505050508152602001600282015481526020016003820180548060200260200160405190810160405280929190818152602001828054801561049857602002820191906000526020600020905b815473ffffffffffffffffffffffffffffffffffffffff16815260019091019060200180831161046d575b505050505081526020016004820180548060200260200160405190810160405280929190818152602001828054801561050757602002820191906000526020600020905b815473ffffffffffffffffffffffffffffffffffffffff1681526001909101906020018083116104dc575b5050505050815250509050600061051c6111ba565b73ffffffffffffffffffffffffffffffffffffffff16630aa29f1c600086600086606001516040518563ffffffff1660e01b815260040161056094939291906114e6565b600060405180830381600087803b15801561057a57600080fd5b505af115801561058e573d6000803e3d6000fd5b505050506040513d6000823e601f3d9081017fffffffffffffffffffffffffffffffffffffffffffffffffffffffffffffffe01682016040526105d49190810190611373565b905080600182516105e591906117c8565b8151811061061c577f4e487b7100000000000000000000000000000000000000000000000000000000600052603260045260246000fd5b6020026020010151925050505b92915050565b600381565b600881565b60025473ffffffffffffffffffffffffffffffffffffffff1681565b606b81565b606981565b606781565b600061066f33611110565b6106a5576040517f08c379a00000000000000000000000000000000000000000000000000000000081526004016103699061155e565b60025473ffffffffffffffffffffffffffffffffffffffff848116911614156106cf575080610629565b73ffffffffffffffffffffffffffffffffffffffff83166000908152600360209081526040808320815160a08101835281548152600182018054845181870281018701909552808552919492938584019390929083018282801561075257602002820191906000526020600020905b81548152602001906001019080831161073e575b5050505050815260200160028201548152602001600382018054806020026020016040519081016040528092919081815260200182805480156107cb57602002820191906000526020600020905b815473ffffffffffffffffffffffffffffffffffffffff1681526001909101906020018083116107a0575b505050505081526020016004820180548060200260200160405190810160405280929190818152602001828054801561083a57602002820191906000526020600020905b815473ffffffffffffffffffffffffffffffffffffffff16815260019091019060200180831161080f575b5050505050815250509050600061084f6111ba565b73ffffffffffffffffffffffffffffffffffffffff16631f2a6743600086600086608001516040518563ffffffff1660e01b815260040161089394939291906114e6565b600060405180830381600087803b1580156108ad57600080fd5b505af11580156108c1573d6000803e3d6000fd5b505050506040513d6000823e601f3d9081017fffffffffffffffffffffffffffffffffffffffffffffffffffffffffffffffe01682016040526109079190810190611373565b90508060008151811061061c577f4e487b7100000000000000000000000000000000000000000000000000000000600052603260045260246000fd5b60005473ffffffffffffffffffffffffffffffffffffffff1681565b600681565b606681565b73ffffffffffffffffffffffffffffffffffffffff821660009081526003602081905260408220908101546001106109cd576040517f08c379a000000000000000000000000000000000000000000000000000000000815260040161036990611618565b80600101816002015481548110610a0d577f4e487b7100000000000000000000000000000000000000000000000000000000600052603260045260246000fd5b906000526020600020015483683635c9adc5dea00000610a2d919061178b565b610a379190611777565b949350505050565b606581565b600181565b610a51611267565b73ffffffffffffffffffffffffffffffffffffffff16610a6f610bab565b73ffffffffffffffffffffffffffffffffffffffff1614610abc576040517f08c379a000000000000000000000000000000000000000000000000000000000815260040161036990611675565b50565b610ac7611267565b73ffffffffffffffffffffffffffffffffffffffff16610ae5610bab565b73ffffffffffffffffffffffffffffffffffffffff1614610b32576040517f08c379a000000000000000000000000000000000000000000000000000000000815260040161036990611675565b60015460405160009173ffffffffffffffffffffffffffffffffffffffff16907f8be0079c531659141344cd1fd0a4f28419497f9722a3daafe3b4186f6b6457e0908390a3600180547fffffffffffffffffffffffff0000000000000000000000000000000000000000169055565b606a81565b600981565b60015473ffffffffffffffffffffffffffffffffffffffff1690565b600281565b600581565b606881565b606c81565b600481565b600781565b60025460009073ffffffffffffffffffffffffffffffffffffffff84811691161415610c12575080610629565b73ffffffffffffffffffffffffffffffffffffffff8316600090815260036020819052604090912090810154600110610c77576040517f08c379a000000000000000000000000000000000000000000000000000000000815260040161036990611618565b6000610c816111ba565b73ffffffffffffffffffffffffffffffffffffffff1663eaa095f8600086856003016040518463ffffffff1660e01b8152600401610cc193929190611473565b60006040518083038186803b158015610cd957600080fd5b505afa158015610ced573d6000803e3d6000fd5b505050506040513d6000823e601f3d9081017fffffffffffffffffffffffffffffffffffffffffffffffffffffffffffffffe0168201604052610d339190810190611373565b905060008160018351610d4691906117c8565b81518110610d7d577f4e487b7100000000000000000000000000000000000000000000000000000000600052603260045260246000fd5b60200260200101519050826001018054905083600201546001610da0919061175f565b610daa91906117df565b600284015580610dc386683635c9adc5dea0000061178b565b610dcd9190611777565b83600101846002015481548110610e0d577f4e487b7100000000000000000000000000000000000000000000000000000000600052603260045260246000fd5b6000918252602090912001559250610629915050565b60025460009073ffffffffffffffffffffffffffffffffffffffff84811691161415610e50575080610629565b73ffffffffffffffffffffffffffffffffffffffff831660009081526003602052604090206004810154600110610eb3576040517f08c379a000000000000000000000000000000000000000000000000000000000815260040161036990611618565b6000610ebd6111ba565b73ffffffffffffffffffffffffffffffffffffffff166390b931ed600086856004016040518463ffffffff1660e01b8152600401610efd93929190611473565b60006040518083038186803b158015610f1557600080fd5b505afa158015610f29573d6000803e3d6000fd5b505050506040513d6000823e601f3d9081017fffffffffffffffffffffffffffffffffffffffffffffffffffffffffffffffe0168201604052610f6f9190810190611373565b9050600081600081518110610fad577f4e487b7100000000000000000000000000000000000000000000000000000000600052603260045260246000fd5b60200260200101519050809350505050610629565b610fca611267565b73ffffffffffffffffffffffffffffffffffffffff16610fe8610bab565b73ffffffffffffffffffffffffffffffffffffffff1614611035576040517f08c379a000000000000000000000000000000000000000000000000000000000815260040161036990611675565b73ffffffffffffffffffffffffffffffffffffffff8116611082576040517f08c379a0000000000000000000000000000000000000000000000000000000008152600401610369906115bb565b60015460405173ffffffffffffffffffffffffffffffffffffffff8084169216907f8be0079c531659141344cd1fd0a4f28419497f9722a3daafe3b4186f6b6457e090600090a3600180547fffffffffffffffffffffffff00000000000000000000000000000000000000001673ffffffffffffffffffffffffffffffffffffffff92909216919091179055565b600080546040517fd87fefd200000000000000000000000000000000000000000000000000000000815273ffffffffffffffffffffffffffffffffffffffff9091169063d87fefd29061116a9060069086906004016116b9565b60206040518083038186803b15801561118257600080fd5b505afa158015611196573d6000803e3d6000fd5b505050506040513d601f19601f8201168201806040525081019061062991906113f7565b600080546040517f3c9c8f9c00000000000000000000000000000000000000000000000000000000815273ffffffffffffffffffffffffffffffffffffffff90911690633c9c8f9c90611212906067906004016116aa565b60206040518083038186803b15801561122a57600080fd5b505afa15801561123e573d6000803e3d6000fd5b505050506040513d601f19601f82011682018060405250810190611262919061128e565b905090565b3390565b60006020828403121561127c578081fd5b813561128781611880565b9392505050565b60006020828403121561129f578081fd5b815161128781611880565b600080604083850312156112bc578081fd5b82356112c781611880565b946020939093013593505050565b600060208083850312156112e7578182fd5b823567ffffffffffffffff8111156112fd578283fd5b8301601f8101851361130d578283fd5b803561132061131b8261173b565b6116ec565b818152838101908385018584028501860189101561133c578687fd5b8694505b8385101561136757803561135381611880565b835260019490940193918501918501611340565b50979650505050505050565b60006020808385031215611385578182fd5b825167ffffffffffffffff81111561139b578283fd5b8301601f810185136113ab578283fd5b80516113b961131b8261173b565b81815283810190838501858402850186018910156113d5578687fd5b8694505b838510156113675780518352600194909401939185019185016113d9565b600060208284031215611408578081fd5b81518015158114611287578182fd5b6004811061144e577f4e487b7100000000000000000000000000000000000000000000000000000000600052602160045260246000fd5b9052565b73ffffffffffffffffffffffffffffffffffffffff91909116815260200190565b6000606082016114838387611417565b602083810186905260606040850152845491829052848352808320916080850190845b818110156114d857845473ffffffffffffffffffffffffffffffffffffffff16835260019485019492840192016114a6565b509098975050505050505050565b6000608082016114f68388611417565b602086818501528560408501526080606085015281855180845260a0860191508287019350845b8181101561154f57845173ffffffffffffffffffffffffffffffffffffffff168352938301939183019160010161151d565b50909998505050505050505050565b6020808252602f908201527f43616c6c696e6720636f6e7472616374206973206e6f7420617574686f72697a60408201527f656420746f206c69717569646174650000000000000000000000000000000000606082015260800190565b60208082526026908201527f4f776e61626c653a206e6577206f776e657220697320746865207a65726f206160408201527f6464726573730000000000000000000000000000000000000000000000000000606082015260800190565b60208082526026908201527f546f6b656e20646f6573206e6f7420686176652061206c69717569646174696f60408201527f6e20706174680000000000000000000000000000000000000000000000000000606082015260800190565b6020808252818101527f4f776e61626c653a2063616c6c6572206973206e6f7420746865206f776e6572604082015260600190565b61ffff91909116815260200190565b61ffff92909216825273ffffffffffffffffffffffffffffffffffffffff16602082015260400190565b90815260200190565b604051601f82017fffffffffffffffffffffffffffffffffffffffffffffffffffffffffffffffe016810167ffffffffffffffff8111828210171561173357611733611851565b604052919050565b600067ffffffffffffffff82111561175557611755611851565b5060209081020190565b60008219821115611772576117726117f3565b500190565b60008261178657611786611822565b500490565b6000817fffffffffffffffffffffffffffffffffffffffffffffffffffffffffffffffff04831182151516156117c3576117c36117f3565b500290565b6000828210156117da576117da6117f3565b500390565b6000826117ee576117ee611822565b500690565b7f4e487b7100000000000000000000000000000000000000000000000000000000600052601160045260246000fd5b7f4e487b7100000000000000000000000000000000000000000000000000000000600052601260045260246000fd5b7f4e487b7100000000000000000000000000000000000000000000000000000000600052604160045260246000fd5b73ffffffffffffffffffffffffffffffffffffffff81168114610abc57600080fdfea26469706673582212204d927a67f8b2bb7e48f6face283b7d5d9ac71fe804818f544144657482ea766564736f6c63430008010033",
  "linkReferences": {},
  "deployedLinkReferences": {}
}