{
  "_format": "hh-sol-artifact-1",
  "contractName": "Price",
  "sourceName": "contracts/Price.sol",
  "abi": [
    {
      "inputs": [
        {
          "internalType": "address",
          "name": "_peg",
          "type": "address"
        },
        {
          "internalType": "address",
          "name": "_roles",
          "type": "address"
        }
      ],
      "stateMutability": "nonpayable",
      "type": "constructor"
    },
    {
      "anonymous": false,
      "inputs": [
        {
          "indexed": true,
          "internalType": "address",
          "name": "previousOwner",
          "type": "address"
        },
        {
          "indexed": true,
          "internalType": "address",
          "name": "newOwner",
          "type": "address"
        }
      ],
      "name": "OwnershipTransferred",
      "type": "event"
    },
    {
      "inputs": [
        {
          "internalType": "address",
          "name": "token",
          "type": "address"
        },
        {
          "internalType": "uint256",
          "name": "outAmount",
          "type": "uint256"
        }
      ],
      "name": "getCostInPeg",
      "outputs": [
        {
          "internalType": "uint256",
          "name": "",
          "type": "uint256"
        }
      ],
      "stateMutability": "view",
      "type": "function"
    },
    {
      "inputs": [
        {
          "internalType": "address",
          "name": "token",
          "type": "address"
        },
        {
          "internalType": "uint256",
          "name": "inAmount",
          "type": "uint256"
        }
      ],
      "name": "getCurrentPriceInPeg",
      "outputs": [
        {
          "internalType": "uint256",
          "name": "",
          "type": "uint256"
        }
      ],
      "stateMutability": "view",
      "type": "function"
    },
    {
      "inputs": [
        {
          "internalType": "address",
          "name": "token",
          "type": "address"
        },
        {
          "internalType": "uint256",
          "name": "inAmount",
          "type": "uint256"
        }
      ],
      "name": "getUpdatedPriceInPeg",
      "outputs": [
        {
          "internalType": "uint256",
          "name": "",
          "type": "uint256"
        }
      ],
      "stateMutability": "nonpayable",
      "type": "function"
    },
    {
      "inputs": [
        {
          "internalType": "address",
          "name": "token",
          "type": "address"
        },
        {
          "internalType": "uint256",
          "name": "targetAmount",
          "type": "uint256"
        }
      ],
      "name": "liquidateFromPeg",
      "outputs": [
        {
          "internalType": "uint256",
          "name": "",
          "type": "uint256"
        }
      ],
      "stateMutability": "nonpayable",
      "type": "function"
    },
    {
      "inputs": [
        {
          "internalType": "address",
          "name": "token",
          "type": "address"
        },
        {
          "internalType": "uint256",
          "name": "amount",
          "type": "uint256"
        }
      ],
      "name": "liquidateToPeg",
      "outputs": [
        {
          "internalType": "uint256",
          "name": "",
          "type": "uint256"
        }
      ],
      "stateMutability": "nonpayable",
      "type": "function"
    },
    {
      "inputs": [],
      "name": "owner",
      "outputs": [
        {
          "internalType": "address",
          "name": "",
          "type": "address"
        }
      ],
      "stateMutability": "view",
      "type": "function"
    },
    {
      "inputs": [],
      "name": "peg",
      "outputs": [
        {
          "internalType": "address",
          "name": "",
          "type": "address"
        }
      ],
      "stateMutability": "view",
      "type": "function"
    },
    {
      "inputs": [],
      "name": "renounceOwnership",
      "outputs": [],
      "stateMutability": "nonpayable",
      "type": "function"
    },
    {
      "inputs": [],
      "name": "roles",
      "outputs": [
        {
          "internalType": "contract Roles",
          "name": "",
          "type": "address"
        }
      ],
      "stateMutability": "view",
      "type": "function"
    },
    {
      "inputs": [
        {
          "internalType": "address[]",
          "name": "path",
          "type": "address[]"
        }
      ],
      "name": "setLiquidationPath",
      "outputs": [],
      "stateMutability": "nonpayable",
      "type": "function"
    },
    {
      "inputs": [
        {
          "internalType": "address",
          "name": "newOwner",
          "type": "address"
        }
      ],
      "name": "transferOwnership",
      "outputs": [],
      "stateMutability": "nonpayable",
      "type": "function"
    }
  ],
  "bytecode": "0x60806040523480156200001157600080fd5b50604051620022a7380380620022a7833981810160405281019062000037919062000192565b80806000806101000a81548173ffffffffffffffffffffffffffffffffffffffff021916908373ffffffffffffffffffffffffffffffffffffffff1602179055505060006200008b6200017360201b60201c565b905080600160006101000a81548173ffffffffffffffffffffffffffffffffffffffff021916908373ffffffffffffffffffffffffffffffffffffffff1602179055508073ffffffffffffffffffffffffffffffffffffffff16600073ffffffffffffffffffffffffffffffffffffffff167f8be0079c531659141344cd1fd0a4f28419497f9722a3daafe3b4186f6b6457e060405160405180910390a35081600260006101000a81548173ffffffffffffffffffffffffffffffffffffffff021916908373ffffffffffffffffffffffffffffffffffffffff160217905550505062000221565b600033905090565b6000815190506200018c8162000207565b92915050565b60008060408385031215620001a657600080fd5b6000620001b6858286016200017b565b9250506020620001c9858286016200017b565b9150509250929050565b6000620001e082620001e7565b9050919050565b600073ffffffffffffffffffffffffffffffffffffffff82169050919050565b6200021281620001d3565b81146200021e57600080fd5b50565b61207680620002316000396000f3fe608060405234801561001057600080fd5b50600436106100a95760003560e01c80636cd7bc4b116100715780636cd7bc4b1461017a578063715018a6146101965780638da5cb5b146101a0578063e47109a9146101be578063e62db160146101ee578063f2fde38b1461021e576100a9565b806305883f7c146100ae5780631f1cb62b146100de57806337487fd5146100fc578063392f5f641461012c5780634cb776621461014a575b600080fd5b6100c860048036038101906100c391906115c5565b61023a565b6040516100d59190611a0f565b60405180910390f35b6100e66105b8565b6040516100f3919061188b565b60405180910390f35b610116600480360381019061011191906115c5565b6105de565b6040516101239190611a0f565b60405180910390f35b610134610950565b60405161014191906118cf565b60405180910390f35b610164600480360381019061015f91906115c5565b610974565b6040516101719190611a0f565b60405180910390f35b610194600480360381019061018f9190611601565b610a75565b005b61019e610af4565b005b6101a8610c31565b6040516101b5919061188b565b60405180910390f35b6101d860048036038101906101d391906115c5565b610c5b565b6040516101e59190611a0f565b60405180910390f35b610208600480360381019061020391906115c5565b610ee1565b6040516102159190611a0f565b60405180910390f35b61023860048036038101906102339190611573565b6110c2565b005b60006102453361126e565b610284576040517f08c379a000000000000000000000000000000000000000000000000000000000815260040161027b9061198f565b60405180910390fd5b600260009054906101000a900473ffffffffffffffffffffffffffffffffffffffff1673ffffffffffffffffffffffffffffffffffffffff168373ffffffffffffffffffffffffffffffffffffffff1614156102e2578190506105b2565b6000600360008573ffffffffffffffffffffffffffffffffffffffff1673ffffffffffffffffffffffffffffffffffffffff1681526020019081526020016000206040518060a0016040529081600082015481526020016001820180548060200260200160405190810160405280929190818152602001828054801561038757602002820191906000526020600020905b815481526020019060010190808311610373575b50505050508152602001600282015481526020016003820180548060200260200160405190810160405280929190818152602001828054801561041f57602002820191906000526020600020905b8160009054906101000a900473ffffffffffffffffffffffffffffffffffffffff1673ffffffffffffffffffffffffffffffffffffffff16815260200190600101908083116103d5575b50505050508152602001600482018054806020026020016040519081016040528092919081815260200182805480156104ad57602002820191906000526020600020905b8160009054906101000a900473ffffffffffffffffffffffffffffffffffffffff1673ffffffffffffffffffffffffffffffffffffffff1681526020019060010190808311610463575b505050505081525050905060006104c2611324565b73ffffffffffffffffffffffffffffffffffffffff16630aa29f1c600086600086606001516040518563ffffffff1660e01b81526004016105069493929190611928565b600060405180830381600087803b15801561052057600080fd5b505af1158015610534573d6000803e3d6000fd5b505050506040513d6000823e3d601f19601f8201168201806040525081019061055d9190611642565b9050806001825161056e9190611bff565b815181106105a5577f4e487b7100000000000000000000000000000000000000000000000000000000600052603260045260246000fd5b6020026020010151925050505b92915050565b600260009054906101000a900473ffffffffffffffffffffffffffffffffffffffff1681565b60006105e93361126e565b610628576040517f08c379a000000000000000000000000000000000000000000000000000000000815260040161061f9061198f565b60405180910390fd5b600260009054906101000a900473ffffffffffffffffffffffffffffffffffffffff1673ffffffffffffffffffffffffffffffffffffffff168373ffffffffffffffffffffffffffffffffffffffff1614156106865781905061094a565b6000600360008573ffffffffffffffffffffffffffffffffffffffff1673ffffffffffffffffffffffffffffffffffffffff1681526020019081526020016000206040518060a0016040529081600082015481526020016001820180548060200260200160405190810160405280929190818152602001828054801561072b57602002820191906000526020600020905b815481526020019060010190808311610717575b5050505050815260200160028201548152602001600382018054806020026020016040519081016040528092919081815260200182805480156107c357602002820191906000526020600020905b8160009054906101000a900473ffffffffffffffffffffffffffffffffffffffff1673ffffffffffffffffffffffffffffffffffffffff1681526020019060010190808311610779575b505050505081526020016004820180548060200260200160405190810160405280929190818152602001828054801561085157602002820191906000526020600020905b8160009054906101000a900473ffffffffffffffffffffffffffffffffffffffff1673ffffffffffffffffffffffffffffffffffffffff1681526020019060010190808311610807575b50505050508152505090506000610866611324565b73ffffffffffffffffffffffffffffffffffffffff16631f2a6743600086600086608001516040518563ffffffff1660e01b81526004016108aa9493929190611928565b600060405180830381600087803b1580156108c457600080fd5b505af11580156108d8573d6000803e3d6000fd5b505050506040513d6000823e3d601f19601f820116820180604052508101906109019190611642565b90508060008151811061093d577f4e487b7100000000000000000000000000000000000000000000000000000000600052603260045260246000fd5b6020026020010151925050505b92915050565b60008054906101000a900473ffffffffffffffffffffffffffffffffffffffff1681565b600080600360008573ffffffffffffffffffffffffffffffffffffffff1673ffffffffffffffffffffffffffffffffffffffff16815260200190815260200160002090506001816003018054905011610a02576040517f08c379a00000000000000000000000000000000000000000000000000000000081526004016109f9906119cf565b60405180910390fd5b80600101816002015481548110610a42577f4e487b7100000000000000000000000000000000000000000000000000000000600052603260045260246000fd5b9060005260206000200154683635c9adc5dea0000084610a629190611ba5565b610a6c9190611b74565b91505092915050565b610a7d6113d6565b73ffffffffffffffffffffffffffffffffffffffff16610a9b610c31565b73ffffffffffffffffffffffffffffffffffffffff1614610af1576040517f08c379a0000000000000000000000000000000000000000000000000000000008152600401610ae8906119ef565b60405180910390fd5b50565b610afc6113d6565b73ffffffffffffffffffffffffffffffffffffffff16610b1a610c31565b73ffffffffffffffffffffffffffffffffffffffff1614610b70576040517f08c379a0000000000000000000000000000000000000000000000000000000008152600401610b67906119ef565b60405180910390fd5b600073ffffffffffffffffffffffffffffffffffffffff16600160009054906101000a900473ffffffffffffffffffffffffffffffffffffffff1673ffffffffffffffffffffffffffffffffffffffff167f8be0079c531659141344cd1fd0a4f28419497f9722a3daafe3b4186f6b6457e060405160405180910390a36000600160006101000a81548173ffffffffffffffffffffffffffffffffffffffff021916908373ffffffffffffffffffffffffffffffffffffffff160217905550565b6000600160009054906101000a900473ffffffffffffffffffffffffffffffffffffffff16905090565b6000600260009054906101000a900473ffffffffffffffffffffffffffffffffffffffff1673ffffffffffffffffffffffffffffffffffffffff168373ffffffffffffffffffffffffffffffffffffffff161415610cbb57819050610edb565b6000600360008573ffffffffffffffffffffffffffffffffffffffff1673ffffffffffffffffffffffffffffffffffffffff16815260200190815260200160002090506001816003018054905011610d48576040517f08c379a0000000000000000000000000000000000000000000000000000000008152600401610d3f906119cf565b60405180910390fd5b6000610d52611324565b73ffffffffffffffffffffffffffffffffffffffff1663eaa095f8600086856003016040518463ffffffff1660e01b8152600401610d92939291906118ea565b60006040518083038186803b158015610daa57600080fd5b505afa158015610dbe573d6000803e3d6000fd5b505050506040513d6000823e3d601f19601f82011682018060405250810190610de79190611642565b905060008160018351610dfa9190611bff565b81518110610e31577f4e487b7100000000000000000000000000000000000000000000000000000000600052603260045260246000fd5b60200260200101519050826001018054905060018460020154610e549190611b1e565b610e5e9190611d8b565b83600201819055508085683635c9adc5dea00000610e7c9190611ba5565b610e869190611b74565b83600101846002015481548110610ec6577f4e487b7100000000000000000000000000000000000000000000000000000000600052603260045260246000fd5b90600052602060002001819055508093505050505b92915050565b6000600260009054906101000a900473ffffffffffffffffffffffffffffffffffffffff1673ffffffffffffffffffffffffffffffffffffffff168373ffffffffffffffffffffffffffffffffffffffff161415610f41578190506110bc565b6000600360008573ffffffffffffffffffffffffffffffffffffffff1673ffffffffffffffffffffffffffffffffffffffff16815260200190815260200160002090506001816004018054905011610fce576040517f08c379a0000000000000000000000000000000000000000000000000000000008152600401610fc5906119cf565b60405180910390fd5b6000610fd8611324565b73ffffffffffffffffffffffffffffffffffffffff166390b931ed600086856004016040518463ffffffff1660e01b8152600401611018939291906118ea565b60006040518083038186803b15801561103057600080fd5b505afa158015611044573d6000803e3d6000fd5b505050506040513d6000823e3d601f19601f8201168201806040525081019061106d9190611642565b90506000816000815181106110ab577f4e487b7100000000000000000000000000000000000000000000000000000000600052603260045260246000fd5b602002602001015190508093505050505b92915050565b6110ca6113d6565b73ffffffffffffffffffffffffffffffffffffffff166110e8610c31565b73ffffffffffffffffffffffffffffffffffffffff161461113e576040517f08c379a0000000000000000000000000000000000000000000000000000000008152600401611135906119ef565b60405180910390fd5b600073ffffffffffffffffffffffffffffffffffffffff168173ffffffffffffffffffffffffffffffffffffffff1614156111ae576040517f08c379a00000000000000000000000000000000000000000000000000000000081526004016111a5906119af565b60405180910390fd5b8073ffffffffffffffffffffffffffffffffffffffff16600160009054906101000a900473ffffffffffffffffffffffffffffffffffffffff1673ffffffffffffffffffffffffffffffffffffffff167f8be0079c531659141344cd1fd0a4f28419497f9722a3daafe3b4186f6b6457e060405160405180910390a380600160006101000a81548173ffffffffffffffffffffffffffffffffffffffff021916908373ffffffffffffffffffffffffffffffffffffffff16021790555050565b60008060009054906101000a900473ffffffffffffffffffffffffffffffffffffffff1673ffffffffffffffffffffffffffffffffffffffff1663a716b97f8360056040518363ffffffff1660e01b81526004016112cd9291906118a6565b60206040518083038186803b1580156112e557600080fd5b505afa1580156112f9573d6000803e3d6000fd5b505050506040513d601f19601f8201168201806040525081019061131d9190611683565b9050919050565b60008060009054906101000a900473ffffffffffffffffffffffffffffffffffffffff1673ffffffffffffffffffffffffffffffffffffffff166336214c7860026040518263ffffffff1660e01b81526004016113819190611974565b60206040518083038186803b15801561139957600080fd5b505afa1580156113ad573d6000803e3d6000fd5b505050506040513d601f19601f820116820180604052508101906113d1919061159c565b905090565b600033905090565b60006113f16113ec84611a4f565b611a2a565b9050808382526020820190508285602086028201111561141057600080fd5b60005b85811015611440578161142688826114b6565b845260208401935060208301925050600181019050611413565b5050509392505050565b600061145d61145884611a7b565b611a2a565b9050808382526020820190508285602086028201111561147c57600080fd5b60005b858110156114ac5781611492888261155e565b84526020840193506020830192505060018101905061147f565b5050509392505050565b6000813590506114c581611ffb565b92915050565b6000815190506114da81611ffb565b92915050565b600082601f8301126114f157600080fd5b81356115018482602086016113de565b91505092915050565b600082601f83011261151b57600080fd5b815161152b84826020860161144a565b91505092915050565b60008151905061154381612012565b92915050565b60008135905061155881612029565b92915050565b60008151905061156d81612029565b92915050565b60006020828403121561158557600080fd5b6000611593848285016114b6565b91505092915050565b6000602082840312156115ae57600080fd5b60006115bc848285016114cb565b91505092915050565b600080604083850312156115d857600080fd5b60006115e6858286016114b6565b92505060206115f785828601611549565b9150509250929050565b60006020828403121561161357600080fd5b600082013567ffffffffffffffff81111561162d57600080fd5b611639848285016114e0565b91505092915050565b60006020828403121561165457600080fd5b600082015167ffffffffffffffff81111561166e57600080fd5b61167a8482850161150a565b91505092915050565b60006020828403121561169557600080fd5b60006116a384828501611534565b91505092915050565b60006116b883836116c4565b60208301905092915050565b6116cd81611c53565b82525050565b6116dc81611c53565b82525050565b60006116ed82611acc565b6116f78185611afc565b935061170283611aa7565b8060005b8381101561173357815161171a88826116ac565b975061172583611ae2565b925050600181019050611706565b5085935050505092915050565b600061174b82611ad7565b6117558185611afc565b935061176083611ab7565b8060005b838110156117985761177582611e78565b61177f88826116ac565b975061178a83611aef565b925050600181019050611764565b5085935050505092915050565b6117ae81611cd4565b82525050565b6117bd81611cf8565b82525050565b6117cc81611d0a565b82525050565b6117db81611d1c565b82525050565b6117ea81611d2e565b82525050565b60006117fd602f83611b0d565b915061180882611ea9565b604082019050919050565b6000611820602683611b0d565b915061182b82611ef8565b604082019050919050565b6000611843602683611b0d565b915061184e82611f47565b604082019050919050565b6000611866602083611b0d565b915061187182611f96565b602082019050919050565b61188581611cca565b82525050565b60006020820190506118a060008301846116d3565b92915050565b60006040820190506118bb60008301856116d3565b6118c860208301846117d2565b9392505050565b60006020820190506118e460008301846117a5565b92915050565b60006060820190506118ff60008301866117b4565b61190c602083018561187c565b818103604083015261191e8184611740565b9050949350505050565b600060808201905061193d60008301876117b4565b61194a602083018661187c565b61195760408301856117e1565b818103606083015261196981846116e2565b905095945050505050565b600060208201905061198960008301846117c3565b92915050565b600060208201905081810360008301526119a8816117f0565b9050919050565b600060208201905081810360008301526119c881611813565b9050919050565b600060208201905081810360008301526119e881611836565b9050919050565b60006020820190508181036000830152611a0881611859565b9050919050565b6000602082019050611a24600083018461187c565b92915050565b6000611a34611a45565b9050611a408282611d5a565b919050565b6000604051905090565b600067ffffffffffffffff821115611a6a57611a69611e49565b5b602082029050602081019050919050565b600067ffffffffffffffff821115611a9657611a95611e49565b5b602082029050602081019050919050565b6000819050602082019050919050565b60008190508160005260206000209050919050565b600081519050919050565b600081549050919050565b6000602082019050919050565b6000600182019050919050565b600082825260208201905092915050565b600082825260208201905092915050565b6000611b2982611cca565b9150611b3483611cca565b9250827fffffffffffffffffffffffffffffffffffffffffffffffffffffffffffffffff03821115611b6957611b68611dbc565b5b828201905092915050565b6000611b7f82611cca565b9150611b8a83611cca565b925082611b9a57611b99611deb565b5b828204905092915050565b6000611bb082611cca565b9150611bbb83611cca565b9250817fffffffffffffffffffffffffffffffffffffffffffffffffffffffffffffffff0483118215151615611bf457611bf3611dbc565b5b828202905092915050565b6000611c0a82611cca565b9150611c1583611cca565b925082821015611c2857611c27611dbc565b5b828203905092915050565b600073ffffffffffffffffffffffffffffffffffffffff82169050919050565b6000611c5e82611caa565b9050919050565b60008115159050919050565b6000819050611c7f82611fbf565b919050565b6000819050611c9282611fd3565b919050565b6000819050611ca582611fe7565b919050565b600073ffffffffffffffffffffffffffffffffffffffff82169050919050565b6000819050919050565b6000611cdf82611ce6565b9050919050565b6000611cf182611caa565b9050919050565b6000611d0382611c71565b9050919050565b6000611d1582611c84565b9050919050565b6000611d2782611c97565b9050919050565b6000611d3982611cca565b9050919050565b6000611d53611d4e83611e9c565b611c33565b9050919050565b611d6382611e8b565b810181811067ffffffffffffffff82111715611d8257611d81611e49565b5b80604052505050565b6000611d9682611cca565b9150611da183611cca565b925082611db157611db0611deb565b5b828206905092915050565b7f4e487b7100000000000000000000000000000000000000000000000000000000600052601160045260246000fd5b7f4e487b7100000000000000000000000000000000000000000000000000000000600052601260045260246000fd5b7f4e487b7100000000000000000000000000000000000000000000000000000000600052602160045260246000fd5b7f4e487b7100000000000000000000000000000000000000000000000000000000600052604160045260246000fd5b6000611e848254611d40565b9050919050565b6000601f19601f8301169050919050565b60008160001c9050919050565b7f43616c6c696e6720636f6e7472616374206973206e6f7420617574686f72697a60008201527f656420746f206c69717569646174650000000000000000000000000000000000602082015250565b7f4f776e61626c653a206e6577206f776e657220697320746865207a65726f206160008201527f6464726573730000000000000000000000000000000000000000000000000000602082015250565b7f546f6b656e20646f6573206e6f7420686176652061206c69717569646174696f60008201527f6e20706174680000000000000000000000000000000000000000000000000000602082015250565b7f4f776e61626c653a2063616c6c6572206973206e6f7420746865206f776e6572600082015250565b60048110611fd057611fcf611e1a565b5b50565b60068110611fe457611fe3611e1a565b5b50565b60088110611ff857611ff7611e1a565b5b50565b61200481611c53565b811461200f57600080fd5b50565b61201b81611c65565b811461202657600080fd5b50565b61203281611cca565b811461203d57600080fd5b5056fea2646970667358221220a28900100c19a1c491802c9364bd302d0f1373bcd0687e94d0ac8b822e5b019b64736f6c63430008010033",
  "linkReferences": {},
  "deployedLinkReferences": {}
}