{
  "address": "0x79F6DD33D500A1563449507bfAF863Cf5e4B6E26",
  "abi": [
    {
      "inputs": [
        {
          "internalType": "address[]",
          "name": "_tokens",
          "type": "address[]"
        },
        {
          "internalType": "uint256[]",
          "name": "_amounts",
          "type": "uint256[]"
        },
        {
          "internalType": "uint256",
          "name": "_endTimestamp",
          "type": "uint256"
        },
        {
          "internalType": "address",
          "name": "_roles",
          "type": "address"
        }
      ],
      "stateMutability": "nonpayable",
      "type": "constructor"
    },
    {
      "inputs": [],
      "name": "execute",
      "outputs": [],
      "stateMutability": "nonpayable",
      "type": "function"
    },
    {
      "inputs": [
        {
          "internalType": "uint256",
          "name": "",
          "type": "uint256"
        }
      ],
      "name": "mainCharacterCache",
      "outputs": [
        {
          "internalType": "address",
          "name": "",
          "type": "address"
        }
      ],
      "stateMutability": "view",
      "type": "function"
    },
    {
      "inputs": [],
      "name": "requiredRoles",
      "outputs": [
        {
          "internalType": "uint256[]",
          "name": "required",
          "type": "uint256[]"
        }
      ],
      "stateMutability": "nonpayable",
      "type": "function"
    },
    {
      "inputs": [
        {
          "internalType": "address",
          "name": "",
          "type": "address"
        },
        {
          "internalType": "uint256",
          "name": "",
          "type": "uint256"
        }
      ],
      "name": "roleCache",
      "outputs": [
        {
          "internalType": "bool",
          "name": "",
          "type": "bool"
        }
      ],
      "stateMutability": "view",
      "type": "function"
    },
    {
      "inputs": [],
      "name": "roles",
      "outputs": [
        {
          "internalType": "contract Roles",
          "name": "",
          "type": "address"
        }
      ],
      "stateMutability": "view",
      "type": "function"
    },
    {
      "inputs": [
        {
          "internalType": "uint256",
          "name": "role",
          "type": "uint256"
        }
      ],
      "name": "updateMainCharacterCache",
      "outputs": [],
      "stateMutability": "nonpayable",
      "type": "function"
    },
    {
      "inputs": [
        {
          "internalType": "uint256",
          "name": "role",
          "type": "uint256"
        },
        {
          "internalType": "address",
          "name": "contr",
          "type": "address"
        }
      ],
      "name": "updateRoleCache",
      "outputs": [],
      "stateMutability": "nonpayable",
      "type": "function"
    }
  ],
  "transactionHash": "0x192cad83f85028a4762f45bbcfa8aae6012ebb7143690c044853d06347cf1508",
  "args": [
    [
      "0x2791Bca1f2de4661ED88A30C99A7a9449Aa84174",
      "0x8f3Cf7ad23Cd3CaDbD9735AFf958023239c6A063",
      "0x7ceB23fD6bC0adD59E62ac25578270cFf1b9f619",
      "0x0d500B1d8E8eF31E21C99d1Db9A6444d3ADf1270"
    ],
    [
      "5000000000000000000000",
      "3333333333333333333333",
      "3333333333333333333333",
      "3333333333333333333333"
    ],
    1627150466,
    "0xa94DDbb3Ba629E637F63F54Bae6724c271ccA48f"
  ],
  "solcInputHash": "1f82d74cd54662a637d9cd07d75642c3",
  "bytecode": "0x60a06040523480156200001157600080fd5b5060405162000ae538038062000ae5833981016040819052620000349162000237565b806001600160a01b0381166200009b5760405162461bcd60e51b815260206004820152602260248201527f506c656173652070726f766964652076616c696420726f6c6573206164647265604482015261737360f01b606482015260840160405180910390fd5b60601b6001600160601b0319166080528351620000c0906002906020870190620000e4565b508251620000d69060039060208601906200014e565b505060045550620003939050565b8280548282559060005260206000209081019282156200013c579160200282015b828111156200013c57825182546001600160a01b0319166001600160a01b0390911617825560209092019160019091019062000105565b506200014a9291506200018c565b5090565b8280548282559060005260206000209081019282156200013c579160200282015b828111156200013c5782518255916020019190600101906200016f565b5b808211156200014a57600081556001016200018d565b80516001600160a01b0381168114620001bb57600080fd5b919050565b600082601f830112620001d1578081fd5b81516020620001ea620001e48362000357565b62000324565b80838252828201915082860187848660051b89010111156200020a578586fd5b855b858110156200022a578151845292840192908401906001016200020c565b5090979650505050505050565b600080600080608085870312156200024d578384fd5b84516001600160401b038082111562000264578586fd5b818701915087601f83011262000278578586fd5b815160206200028b620001e48362000357565b8083825282820191508286018c848660051b8901011115620002ab578a8bfd5b8a96505b84871015620002d857620002c381620001a3565b835260019690960195918301918301620002af565b50918a0151919850909350505080821115620002f2578485fd5b506200030187828801620001c0565b935050604085015191506200031960608601620001a3565b905092959194509250565b604051601f8201601f191681016001600160401b03811182821017156200034f576200034f6200037d565b604052919050565b60006001600160401b038211156200037357620003736200037d565b5060051b60200190565b634e487b7160e01b600052604160045260246000fd5b60805160601c610726620003bf60003960008181609c015281816101b501526102e301526107266000f3fe608060405234801561001057600080fd5b506004361061007d5760003560e01c8063614619541161005b57806361461954146100fb5780637a1a04df14610103578063cd28fc8f14610141578063e9c3f77d146101505761007d565b8063071060a614610082578063392f5f6414610097578063447d52ba146100e8575b600080fd5b6100956100903660046105e2565b610186565b005b6100be7f000000000000000000000000000000000000000000000000000000000000000081565b60405173ffffffffffffffffffffffffffffffffffffffff90911681526020015b60405180910390f35b6100956100f63660046105fa565b610297565b6100956103c0565b610131610111366004610597565b600160209081526000928352604080842090915290825290205460ff1681565b60405190151581526020016100df565b60606040516100df9190610629565b6100be61015e3660046105e2565b60006020819052908152604090205473ffffffffffffffffffffffffffffffffffffffff1681565b6040517fb4ed0b6d000000000000000000000000000000000000000000000000000000008152600481018290527f000000000000000000000000000000000000000000000000000000000000000073ffffffffffffffffffffffffffffffffffffffff169063b4ed0b6d9060240160206040518083038186803b15801561020c57600080fd5b505afa158015610220573d6000803e3d6000fd5b505050506040513d601f19601f820116820180604052508101906102449190610574565b60009182526020829052604090912080547fffffffffffffffffffffffff00000000000000000000000000000000000000001673ffffffffffffffffffffffffffffffffffffffff909216919091179055565b6040517f93552a3d0000000000000000000000000000000000000000000000000000000081526004810183905273ffffffffffffffffffffffffffffffffffffffff82811660248301527f000000000000000000000000000000000000000000000000000000000000000016906393552a3d9060440160206040518083038186803b15801561032557600080fd5b505afa158015610339573d6000803e3d6000fd5b505050506040513d601f19601f8201168201806040525081019061035d91906105c2565b73ffffffffffffffffffffffffffffffffffffffff9190911660009081526001602090815260408083209483529390529190912080547fffffffffffffffffffffffffffffffffffffffffffffffffffffffffffffff0016911515919091179055565b60045460005b60025481101561057057606660009081526020527f422cccb7cea5c0e46f340bb7b21b81debac329f72e31669c20ff0f3a05cc2b5b5473ffffffffffffffffffffffffffffffffffffffff1673ffffffffffffffffffffffffffffffffffffffff1663b42f60db60028381548110610467577f4e487b7100000000000000000000000000000000000000000000000000000000600052603260045260246000fd5b6000918252602090912001546003805473ffffffffffffffffffffffffffffffffffffffff90921691859081106104c7577f4e487b7100000000000000000000000000000000000000000000000000000000600052603260045260246000fd5b6000918252602090912001546040517fffffffff0000000000000000000000000000000000000000000000000000000060e085901b16815273ffffffffffffffffffffffffffffffffffffffff9092166004830152602482015260448101859052606401600060405180830381600087803b15801561054557600080fd5b505af1158015610559573d6000803e3d6000fd5b5050505080806105689061066d565b9150506103c6565b5050565b600060208284031215610585578081fd5b8151610590816106cb565b9392505050565b600080604083850312156105a9578081fd5b82356105b4816106cb565b946020939093013593505050565b6000602082840312156105d3578081fd5b81518015158114610590578182fd5b6000602082840312156105f3578081fd5b5035919050565b6000806040838503121561060c578182fd5b82359150602083013561061e816106cb565b809150509250929050565b6020808252825182820181905260009190848201906040850190845b8181101561066157835183529284019291840191600101610645565b50909695505050505050565b60007fffffffffffffffffffffffffffffffffffffffffffffffffffffffffffffffff8214156106c4577f4e487b710000000000000000000000000000000000000000000000000000000081526011600452602481fd5b5060010190565b73ffffffffffffffffffffffffffffffffffffffff811681146106ed57600080fd5b5056fea2646970667358221220e85c792f88ba2db85f5e0f06910b7ad96afa57140df97774d514f5a9723313ae64736f6c63430008030033",
  "devdoc": {
    "kind": "dev",
    "methods": {},
    "version": 1
  },
  "userdoc": {
    "kind": "user",
    "methods": {},
    "version": 1
  },
  "storageLayout": {
    "storage": [
      {
        "astId": 9504,
        "contract": "contracts/controller-actions/IncentivizeLending.sol:IncentivizeLending",
        "label": "mainCharacterCache",
        "offset": 0,
        "slot": "0",
        "type": "t_mapping(t_uint256,t_address)"
      },
      {
        "astId": 9510,
        "contract": "contracts/controller-actions/IncentivizeLending.sol:IncentivizeLending",
        "label": "roleCache",
        "offset": 0,
        "slot": "1",
        "type": "t_mapping(t_address,t_mapping(t_uint256,t_bool))"
      },
      {
        "astId": 11634,
        "contract": "contracts/controller-actions/IncentivizeLending.sol:IncentivizeLending",
        "label": "tokens",
        "offset": 0,
        "slot": "2",
        "type": "t_array(t_address)dyn_storage"
      },
      {
        "astId": 11637,
        "contract": "contracts/controller-actions/IncentivizeLending.sol:IncentivizeLending",
        "label": "amounts",
        "offset": 0,
        "slot": "3",
        "type": "t_array(t_uint256)dyn_storage"
      },
      {
        "astId": 11639,
        "contract": "contracts/controller-actions/IncentivizeLending.sol:IncentivizeLending",
        "label": "endTimestamp",
        "offset": 0,
        "slot": "4",
        "type": "t_uint256"
      }
    ],
    "types": {
      "t_address": {
        "encoding": "inplace",
        "label": "address",
        "numberOfBytes": "20"
      },
      "t_array(t_address)dyn_storage": {
        "base": "t_address",
        "encoding": "dynamic_array",
        "label": "address[]",
        "numberOfBytes": "32"
      },
      "t_array(t_uint256)dyn_storage": {
        "base": "t_uint256",
        "encoding": "dynamic_array",
        "label": "uint256[]",
        "numberOfBytes": "32"
      },
      "t_bool": {
        "encoding": "inplace",
        "label": "bool",
        "numberOfBytes": "1"
      },
      "t_mapping(t_address,t_mapping(t_uint256,t_bool))": {
        "encoding": "mapping",
        "key": "t_address",
        "label": "mapping(address => mapping(uint256 => bool))",
        "numberOfBytes": "32",
        "value": "t_mapping(t_uint256,t_bool)"
      },
      "t_mapping(t_uint256,t_address)": {
        "encoding": "mapping",
        "key": "t_uint256",
        "label": "mapping(uint256 => address)",
        "numberOfBytes": "32",
        "value": "t_address"
      },
      "t_mapping(t_uint256,t_bool)": {
        "encoding": "mapping",
        "key": "t_uint256",
        "label": "mapping(uint256 => bool)",
        "numberOfBytes": "32",
        "value": "t_bool"
      },
      "t_uint256": {
        "encoding": "inplace",
        "label": "uint256",
        "numberOfBytes": "32"
      }
    }
  }
}