{
  "address": "0xb8a63dBb2C5B775067444EaEF60722806524F7FD",
  "abi": [
    {
      "inputs": [
        {
          "internalType": "address",
          "name": "_MFI",
          "type": "address"
        },
        {
          "internalType": "address",
          "name": "_roles",
          "type": "address"
        }
      ],
      "stateMutability": "nonpayable",
      "type": "constructor"
    },
    {
      "inputs": [],
      "name": "MFI",
      "outputs": [
        {
          "internalType": "address",
          "name": "",
          "type": "address"
        }
      ],
      "stateMutability": "view",
      "type": "function"
    },
    {
      "inputs": [
        {
          "internalType": "address",
          "name": "issuer",
          "type": "address"
        }
      ],
      "name": "activateIssuer",
      "outputs": [],
      "stateMutability": "nonpayable",
      "type": "function"
    },
    {
      "inputs": [
        {
          "internalType": "address",
          "name": "issuer",
          "type": "address"
        },
        {
          "internalType": "address",
          "name": "token",
          "type": "address"
        }
      ],
      "name": "activateIssuer",
      "outputs": [],
      "stateMutability": "nonpayable",
      "type": "function"
    },
    {
      "inputs": [
        {
          "internalType": "address",
          "name": "",
          "type": "address"
        }
      ],
      "name": "activeIssuers",
      "outputs": [
        {
          "internalType": "bool",
          "name": "",
          "type": "bool"
        }
      ],
      "stateMutability": "view",
      "type": "function"
    },
    {
      "inputs": [
        {
          "internalType": "address",
          "name": "token",
          "type": "address"
        },
        {
          "internalType": "uint256",
          "name": "amount",
          "type": "uint256"
        },
        {
          "internalType": "uint256",
          "name": "endTimestamp",
          "type": "uint256"
        }
      ],
      "name": "addIncentive",
      "outputs": [],
      "stateMutability": "nonpayable",
      "type": "function"
    },
    {
      "inputs": [
        {
          "internalType": "uint256",
          "name": "balance",
          "type": "uint256"
        },
        {
          "internalType": "address",
          "name": "issuer",
          "type": "address"
        },
        {
          "internalType": "uint256",
          "name": "yieldQuotientFP",
          "type": "uint256"
        }
      ],
      "name": "applyBorrowInterest",
      "outputs": [
        {
          "internalType": "uint256",
          "name": "balanceWithInterest",
          "type": "uint256"
        },
        {
          "internalType": "uint256",
          "name": "accumulatorFP",
          "type": "uint256"
        }
      ],
      "stateMutability": "nonpayable",
      "type": "function"
    },
    {
      "inputs": [
        {
          "internalType": "address",
          "name": "",
          "type": "address"
        }
      ],
      "name": "borrowYieldAccumulators",
      "outputs": [
        {
          "internalType": "uint256",
          "name": "accumulatorFP",
          "type": "uint256"
        },
        {
          "internalType": "uint256",
          "name": "lastUpdated",
          "type": "uint256"
        },
        {
          "internalType": "uint256",
          "name": "hourlyYieldFP",
          "type": "uint256"
        }
      ],
      "stateMutability": "view",
      "type": "function"
    },
    {
      "inputs": [],
      "name": "borrowingFactorPercent",
      "outputs": [
        {
          "internalType": "uint256",
          "name": "",
          "type": "uint256"
        }
      ],
      "stateMutability": "view",
      "type": "function"
    },
    {
      "inputs": [
        {
          "internalType": "address",
          "name": "issuer",
          "type": "address"
        },
        {
          "internalType": "uint256",
          "name": "amount",
          "type": "uint256"
        }
      ],
      "name": "buyHourlyBondSubscription",
      "outputs": [],
      "stateMutability": "nonpayable",
      "type": "function"
    },
    {
      "inputs": [
        {
          "internalType": "address",
          "name": "issuer",
          "type": "address"
        }
      ],
      "name": "closeHourlyBondAccount",
      "outputs": [],
      "stateMutability": "nonpayable",
      "type": "function"
    },
    {
      "inputs": [
        {
          "internalType": "address",
          "name": "issuer",
          "type": "address"
        }
      ],
      "name": "deactivateIssuer",
      "outputs": [],
      "stateMutability": "nonpayable",
      "type": "function"
    },
    {
      "inputs": [
        {
          "internalType": "address",
          "name": "issuer",
          "type": "address"
        }
      ],
      "name": "getUpdatedBorrowYieldAccuFP",
      "outputs": [
        {
          "internalType": "uint256",
          "name": "",
          "type": "uint256"
        }
      ],
      "stateMutability": "nonpayable",
      "type": "function"
    },
    {
      "inputs": [
        {
          "internalType": "uint256",
          "name": "amount",
          "type": "uint256"
        }
      ],
      "name": "haircut",
      "outputs": [],
      "stateMutability": "nonpayable",
      "type": "function"
    },
    {
      "inputs": [
        {
          "internalType": "address",
          "name": "",
          "type": "address"
        }
      ],
      "name": "haircuts",
      "outputs": [
        {
          "internalType": "uint256",
          "name": "",
          "type": "uint256"
        }
      ],
      "stateMutability": "view",
      "type": "function"
    },
    {
      "inputs": [],
      "name": "highRatePerPercent",
      "outputs": [
        {
          "internalType": "uint256",
          "name": "",
          "type": "uint256"
        }
      ],
      "stateMutability": "view",
      "type": "function"
    },
    {
      "inputs": [
        {
          "internalType": "address",
          "name": "",
          "type": "address"
        },
        {
          "internalType": "address",
          "name": "",
          "type": "address"
        }
      ],
      "name": "hourlyBondAccounts",
      "outputs": [
        {
          "internalType": "uint256",
          "name": "amount",
          "type": "uint256"
        },
        {
          "internalType": "uint256",
          "name": "yieldQuotientFP",
          "type": "uint256"
        },
        {
          "internalType": "uint256",
          "name": "moduloHour",
          "type": "uint256"
        },
        {
          "internalType": "uint256",
          "name": "incentiveAllocationStart",
          "type": "uint256"
        }
      ],
      "stateMutability": "view",
      "type": "function"
    },
    {
      "inputs": [
        {
          "internalType": "address",
          "name": "issuer",
          "type": "address"
        }
      ],
      "name": "initBorrowYieldAccumulator",
      "outputs": [],
      "stateMutability": "nonpayable",
      "type": "function"
    },
    {
      "inputs": [
        {
          "internalType": "address",
          "name": "",
          "type": "address"
        }
      ],
      "name": "issuerTokens",
      "outputs": [
        {
          "internalType": "address",
          "name": "",
          "type": "address"
        }
      ],
      "stateMutability": "view",
      "type": "function"
    },
    {
      "inputs": [
        {
          "internalType": "address",
          "name": "",
          "type": "address"
        }
      ],
      "name": "lendingMeta",
      "outputs": [
        {
          "internalType": "uint256",
          "name": "totalLending",
          "type": "uint256"
        },
        {
          "internalType": "uint256",
          "name": "totalBorrowed",
          "type": "uint256"
        },
        {
          "internalType": "uint256",
          "name": "lendingCap",
          "type": "uint256"
        },
        {
          "internalType": "uint256",
          "name": "cumulIncentiveAllocationFP",
          "type": "uint256"
        },
        {
          "internalType": "uint256",
          "name": "incentiveLastUpdated",
          "type": "uint256"
        },
        {
          "internalType": "uint256",
          "name": "incentiveEnd",
          "type": "uint256"
        },
        {
          "internalType": "uint256",
          "name": "incentiveTarget",
          "type": "uint256"
        }
      ],
      "stateMutability": "view",
      "type": "function"
    },
    {
      "inputs": [
        {
          "internalType": "uint256",
          "name": "",
          "type": "uint256"
        }
      ],
      "name": "mainCharacterCache",
      "outputs": [
        {
          "internalType": "address",
          "name": "",
          "type": "address"
        }
      ],
      "stateMutability": "view",
      "type": "function"
    },
    {
      "inputs": [
        {
          "internalType": "address",
          "name": "issuer",
          "type": "address"
        },
        {
          "internalType": "address",
          "name": "holder",
          "type": "address"
        },
        {
          "internalType": "uint256",
          "name": "amount",
          "type": "uint256"
        }
      ],
      "name": "makeFallbackBond",
      "outputs": [],
      "stateMutability": "nonpayable",
      "type": "function"
    },
    {
      "inputs": [],
      "name": "normalRatePerPercent",
      "outputs": [
        {
          "internalType": "uint256",
          "name": "",
          "type": "uint256"
        }
      ],
      "stateMutability": "view",
      "type": "function"
    },
    {
      "inputs": [
        {
          "internalType": "address",
          "name": "issuer",
          "type": "address"
        },
        {
          "internalType": "uint256",
          "name": "amount",
          "type": "uint256"
        }
      ],
      "name": "payOff",
      "outputs": [],
      "stateMutability": "nonpayable",
      "type": "function"
    },
    {
      "inputs": [
        {
          "internalType": "address",
          "name": "issuer",
          "type": "address"
        },
        {
          "internalType": "uint256",
          "name": "amount",
          "type": "uint256"
        }
      ],
      "name": "registerBorrow",
      "outputs": [],
      "stateMutability": "nonpayable",
      "type": "function"
    },
    {
      "inputs": [
        {
          "internalType": "address",
          "name": "issuer",
          "type": "address"
        },
        {
          "internalType": "uint256",
          "name": "amount",
          "type": "uint256"
        }
      ],
      "name": "registerLend",
      "outputs": [],
      "stateMutability": "nonpayable",
      "type": "function"
    },
    {
      "inputs": [
        {
          "internalType": "address",
          "name": "issuer",
          "type": "address"
        },
        {
          "internalType": "uint256",
          "name": "amount",
          "type": "uint256"
        }
      ],
      "name": "registerWithdrawal",
      "outputs": [],
      "stateMutability": "nonpayable",
      "type": "function"
    },
    {
      "inputs": [
        {
          "internalType": "address",
          "name": "",
          "type": "address"
        },
        {
          "internalType": "uint256",
          "name": "",
          "type": "uint256"
        }
      ],
      "name": "roleCache",
      "outputs": [
        {
          "internalType": "bool",
          "name": "",
          "type": "bool"
        }
      ],
      "stateMutability": "view",
      "type": "function"
    },
    {
      "inputs": [],
      "name": "roles",
      "outputs": [
        {
          "internalType": "contract Roles",
          "name": "",
          "type": "address"
        }
      ],
      "stateMutability": "view",
      "type": "function"
    },
    {
      "inputs": [
        {
          "internalType": "uint256",
          "name": "borrowingFactor",
          "type": "uint256"
        }
      ],
      "name": "setBorrowingFactorPercent",
      "outputs": [],
      "stateMutability": "nonpayable",
      "type": "function"
    },
    {
      "inputs": [
        {
          "internalType": "uint256",
          "name": "rate",
          "type": "uint256"
        }
      ],
      "name": "setHighRatePerPercent",
      "outputs": [],
      "stateMutability": "nonpayable",
      "type": "function"
    },
    {
      "inputs": [
        {
          "internalType": "address",
          "name": "issuer",
          "type": "address"
        },
        {
          "internalType": "uint256",
          "name": "aprPercent",
          "type": "uint256"
        }
      ],
      "name": "setHourlyYieldAPR",
      "outputs": [],
      "stateMutability": "nonpayable",
      "type": "function"
    },
    {
      "inputs": [
        {
          "internalType": "address",
          "name": "issuer",
          "type": "address"
        },
        {
          "internalType": "uint256",
          "name": "cap",
          "type": "uint256"
        }
      ],
      "name": "setLendingCap",
      "outputs": [],
      "stateMutability": "nonpayable",
      "type": "function"
    },
    {
      "inputs": [
        {
          "internalType": "uint256",
          "name": "rate",
          "type": "uint256"
        }
      ],
      "name": "setNormalRatePerPercent",
      "outputs": [],
      "stateMutability": "nonpayable",
      "type": "function"
    },
    {
      "inputs": [
        {
          "internalType": "uint256",
          "name": "window",
          "type": "uint256"
        }
      ],
      "name": "setWithdrawalWindow",
      "outputs": [],
      "stateMutability": "nonpayable",
      "type": "function"
    },
    {
      "inputs": [
        {
          "internalType": "address",
          "name": "issuer",
          "type": "address"
        }
      ],
      "name": "updateHourlyYield",
      "outputs": [
        {
          "internalType": "uint256",
          "name": "hourlyYield",
          "type": "uint256"
        }
      ],
      "stateMutability": "nonpayable",
      "type": "function"
    },
    {
      "inputs": [
        {
          "internalType": "uint256",
          "name": "role",
          "type": "uint256"
        }
      ],
      "name": "updateMainCharacterCache",
      "outputs": [],
      "stateMutability": "nonpayable",
      "type": "function"
    },
    {
      "inputs": [
        {
          "internalType": "uint256",
          "name": "role",
          "type": "uint256"
        },
        {
          "internalType": "address",
          "name": "contr",
          "type": "address"
        }
      ],
      "name": "updateRoleCache",
      "outputs": [],
      "stateMutability": "nonpayable",
      "type": "function"
    },
    {
      "inputs": [
        {
          "internalType": "address",
          "name": "issuer",
          "type": "address"
        }
      ],
      "name": "viewAccumulatedBorrowingYieldFP",
      "outputs": [
        {
          "internalType": "uint256",
          "name": "",
          "type": "uint256"
        }
      ],
      "stateMutability": "view",
      "type": "function"
    },
    {
      "inputs": [
        {
          "internalType": "address",
          "name": "issuer",
          "type": "address"
        }
      ],
      "name": "viewBorrowAPRPer10k",
      "outputs": [
        {
          "internalType": "uint256",
          "name": "",
          "type": "uint256"
        }
      ],
      "stateMutability": "view",
      "type": "function"
    },
    {
      "inputs": [
        {
          "internalType": "address",
          "name": "issuer",
          "type": "address"
        }
      ],
      "name": "viewHourlyBondAPRPer10k",
      "outputs": [
        {
          "internalType": "uint256",
          "name": "",
          "type": "uint256"
        }
      ],
      "stateMutability": "view",
      "type": "function"
    },
    {
      "inputs": [
        {
          "internalType": "address",
          "name": "issuer",
          "type": "address"
        },
        {
          "internalType": "address",
          "name": "holder",
          "type": "address"
        }
      ],
      "name": "viewHourlyBondAmount",
      "outputs": [
        {
          "internalType": "uint256",
          "name": "",
          "type": "uint256"
        }
      ],
      "stateMutability": "view",
      "type": "function"
    },
    {
      "inputs": [
        {
          "internalType": "uint256",
          "name": "balance",
          "type": "uint256"
        },
        {
          "internalType": "address",
          "name": "issuer",
          "type": "address"
        },
        {
          "internalType": "uint256",
          "name": "yieldQuotientFP",
          "type": "uint256"
        }
      ],
      "name": "viewWithBorrowInterest",
      "outputs": [
        {
          "internalType": "uint256",
          "name": "",
          "type": "uint256"
        }
      ],
      "stateMutability": "view",
      "type": "function"
    },
    {
      "inputs": [
        {
          "internalType": "address",
          "name": "issuer",
          "type": "address"
        },
        {
          "internalType": "uint256",
          "name": "amount",
          "type": "uint256"
        }
      ],
      "name": "withdrawHourlyBond",
      "outputs": [],
      "stateMutability": "nonpayable",
      "type": "function"
    },
    {
      "inputs": [],
      "name": "withdrawalWindow",
      "outputs": [
        {
          "internalType": "uint256",
          "name": "",
          "type": "uint256"
        }
      ],
      "stateMutability": "view",
      "type": "function"
    }
  ],
  "transactionHash": "0xa01580add6e98a980c642295812072f16bc2b0537b9678c08aaa9e65242cf3a0",
  "args": [
    "0x38389eB214C4AC1CDDa7A7582Ab01e8a9bB548bA",
    "0xb1828378bE0966f0A29B5933D7DC0254F059b617"
  ],
  "solcInputHash": "a08cb513add13ed8d1094fa85991e067",
  "bytecode": "0x60c0604052606460526122386200001f6601000000000000600c620001cd565b6200002b9190620001ac565b620000379190620001ac565b620000439190620001ac565b600255606462000055605282620001ef565b6122386200006c6601000000000000607b620001cd565b620000789190620001ac565b620000849190620001ac565b620000909190620001ac565b6003556104b060075560c8600955348015620000ab57600080fd5b50604051620033f1380380620033f1833981016040819052620000ce9162000175565b806001600160a01b038116620001355760405162461bcd60e51b815260206004820152602260248201527f506c656173652070726f766964652076616c696420726f6c6573206164647265604482015261737360f01b606482015260840160405180910390fd5b6001600160601b0319606091821b811660805292901b90911660a052506200021f565b80516001600160a01b03811681146200017057600080fd5b919050565b6000806040838503121562000188578182fd5b620001938362000158565b9150620001a36020840162000158565b90509250929050565b600082620001c857634e487b7160e01b81526012600452602481fd5b500490565b6000816000190483118215151615620001ea57620001ea62000209565b500290565b60008282101562000204576200020462000209565b500390565b634e487b7160e01b600052601160045260246000fd5b60805160601c60a05160601c6131836200026e6000396000818161078a0152612de60152600081816103e90152818161083a01528181610c7701528181612670015261271501526131836000f3fe608060405234801561001057600080fd5b50600436106102f45760003560e01c806383a0422911610191578063dc683bcf116100e3578063ed29c12b11610097578063f848767311610071578063f8487673146107d2578063f884614b146107e5578063f90889c9146107f8576102f4565b8063ed29c12b14610785578063ee0862bf146107ac578063f51dfe7a146107bf576102f4565b8063e69e2662116100c8578063e69e266214610733578063e9c3f77d1461073c578063ebe64bcc14610772576102f4565b8063dc683bcf146106f8578063e695fa681461070b576102f4565b8063cc4b26a311610145578063d2b489341161011f578063d2b48934146106bf578063d4437dd8146106d2578063db41039f146106e5576102f4565b8063cc4b26a314610659578063cd3b5dfb1461066c578063d19bd0a7146106b6576102f4565b8063ad037af611610176578063ad037af6146105b3578063ae4479dd14610633578063b42f60db14610646576102f4565b806383a042291461054057806391b46e05146105a0576102f4565b806349d0e2ee1161024a57806372d01257116101fe578063797384b2116101d8578063797384b2146104cc5780637a009135146104ff5780637a1a04df14610512576102f4565b806372d012571461049d57806376668b67146104b057806376c308f2146104c3576102f4565b806364f85ab11161022f57806364f85ab1146104575780636d8d36ba146104775780636e60e2491461048a576102f4565b806349d0e2ee146104315780634b86daab14610444576102f4565b806328108026116102ac578063392f5f6411610286578063392f5f64146103e4578063447d52ba1461040b57806346c87f801461041e576102f4565b806328108026146103635780632a6a897b146103be57806336953912146103d1576102f4565b806314189db2116102dd57806314189db21461032157806316de7a4314610347578063267031b81461035a576102f4565b8063071060a6146102f95780630f7c43dc1461030e575b600080fd5b61030c610307366004612f9e565b61080b565b005b61030c61031c366004612f1f565b61091c565b61033461032f366004612e6f565b6109c4565b6040519081526020015b60405180910390f35b61030c610355366004612f1f565b6109fa565b61033460095481565b610399610371366004612e6f565b600a6020526000908152604090205473ffffffffffffffffffffffffffffffffffffffff1681565b60405173ffffffffffffffffffffffffffffffffffffffff909116815260200161033e565b61030c6103cc366004612f1f565b610ab3565b61030c6103df366004612f9e565b610b79565b6103997f000000000000000000000000000000000000000000000000000000000000000081565b61030c610419366004612fb6565b610c2b565b61033461042c366004612e6f565b610d54565b61030c61043f366004612f9e565b610d89565b61030c610452366004612e6f565b610e3b565b610334610465366004612e6f565b600b6020526000908152604090205481565b61030c610485366004612f1f565b610e48565b610334610498366004612ea7565b610fc4565b6103346104ab366004612e6f565b61104b565b6103346104be366004612fda565b611079565b61033460025481565b6104ef6104da366004612e6f565b600c6020526000908152604090205460ff1681565b604051901515815260200161033e565b61030c61050d366004612e6f565b6110c0565b6104ef610520366004612f1f565b600160209081526000928352604080842090915290825290205460ff1681565b61058061054e366004612ea7565b600860209081526000928352604080842090915290825290208054600182015460028301546003909301549192909184565b60408051948552602085019390935291830152606082015260800161033e565b61030c6105ae366004612f9e565b611205565b6105fe6105c1366004612e6f565b6004602081905260009182526040909120805460018201546002830154600384015494840154600585015460069095015493959294919390919087565b604080519788526020880196909652948601939093526060850191909152608084015260a083015260c082015260e00161033e565b61030c610641366004612f1f565b6112b7565b61030c610654366004612f4a565b6113fa565b61030c610667366004612e6f565b611532565b61069b61067a366004612e6f565b60056020526000908152604090208054600182015460029092015490919083565b6040805193845260208401929092529082015260600161033e565b61033460075481565b61030c6106cd366004612f1f565b61170b565b61030c6106e0366004612f9e565b611830565b61030c6106f3366004612edf565b611857565b610334610706366004612e6f565b6118e7565b61071e610719366004612fda565b611924565b6040805192835260208301919091520161033e565b61033460035481565b61039961074a366004612f9e565b60006020819052908152604090205473ffffffffffffffffffffffffffffffffffffffff1681565b61030c610780366004612ea7565b611a46565b6103997f000000000000000000000000000000000000000000000000000000000000000081565b61030c6107ba366004612f1f565b611bc7565b6103346107cd366004612e6f565b611dbd565b61030c6107e0366004612f9e565b611deb565b61030c6107f3366004612e6f565b611e9d565b61030c610806366004612f1f565b611f40565b6040517fb4ed0b6d000000000000000000000000000000000000000000000000000000008152600481018290527f000000000000000000000000000000000000000000000000000000000000000073ffffffffffffffffffffffffffffffffffffffff169063b4ed0b6d9060240160206040518083038186803b15801561089157600080fd5b505afa1580156108a5573d6000803e3d6000fd5b505050506040513d601f19601f820116820180604052508101906108c99190612e8b565b60009182526020829052604090912080547fffffffffffffffffffffffff00000000000000000000000000000000000000001673ffffffffffffffffffffffffffffffffffffffff909216919091179055565b73ffffffffffffffffffffffffffffffffffffffff821660009081526008602090815260408083203380855292529091209061095d90849083908590612152565b80546109a95773ffffffffffffffffffffffffffffffffffffffff8316600090815260086020908152604080832033845290915281208181556001810182905560028101829055600301555b6109b483338461225f565b6109bf833384612436565b505050565b73ffffffffffffffffffffffffffffffffffffffff811660009081526005602052604081206109f3814261248f565b9392505050565b73ffffffffffffffffffffffffffffffffffffffff82166000908152600c602052604090205460ff16610a8e576040517f08c379a000000000000000000000000000000000000000000000000000000000815260206004820152601360248201527f4e6f7420617070726f766564206973737565720000000000000000000000000060448201526064015b60405180910390fd5b610a998233836124d0565b610aa482338361259c565b610aaf82338361261c565b5050565b3360009081526001602090815260408083206003845290915290205460ff16610b38576040517f08c379a000000000000000000000000000000000000000000000000000000000815260206004820152601560248201527f4e6f7420617070726f76656420626f72726f77657200000000000000000000006044820152606401610a85565b73ffffffffffffffffffffffffffffffffffffffff821660009081526004602052604081206001018054839290610b70908490613069565b90915550505050565b33610b8261266c565b73ffffffffffffffffffffffffffffffffffffffff161480610bc0575033610ba8612711565b73ffffffffffffffffffffffffffffffffffffffff16145b610c26576040517f08c379a000000000000000000000000000000000000000000000000000000000815260206004820152601e60248201527f526f6c65733a2063616c6c6572206973206e6f7420746865206f776e657200006044820152606401610a85565b600755565b6040517f93552a3d0000000000000000000000000000000000000000000000000000000081526004810183905273ffffffffffffffffffffffffffffffffffffffff82811660248301527f000000000000000000000000000000000000000000000000000000000000000016906393552a3d9060440160206040518083038186803b158015610cb957600080fd5b505afa158015610ccd573d6000803e3d6000fd5b505050506040513d601f19601f82011682018060405250810190610cf19190612f7e565b73ffffffffffffffffffffffffffffffffffffffff9190911660009081526001602090815260408083209483529390529190912080547fffffffffffffffffffffffffffffffffffffffffffffffffffffffffffffff0016911515919091179055565b73ffffffffffffffffffffffffffffffffffffffff81166000908152600560205260408120610d828161278f565b5492915050565b33610d9261266c565b73ffffffffffffffffffffffffffffffffffffffff161480610dd0575033610db8612711565b73ffffffffffffffffffffffffffffffffffffffff16145b610e36576040517f08c379a000000000000000000000000000000000000000000000000000000000815260206004820152601e60248201527f526f6c65733a2063616c6c6572206973206e6f7420746865206f776e657200006044820152606401610a85565b600355565b610e458182611a46565b50565b336000908152600160209081526040808320600b845290915290205460ff16610ecd576040517f08c379a000000000000000000000000000000000000000000000000000000000815260206004820152601660248201527f4e6f7420616e20617070726f766564206c656e646572000000000000000000006044820152606401610a85565b73ffffffffffffffffffffffffffffffffffffffff82166000908152600c602052604090205460ff16610f5c576040517f08c379a000000000000000000000000000000000000000000000000000000000815260206004820152601360248201527f4e6f7420617070726f76656420697373756572000000000000000000000000006044820152606401610a85565b73ffffffffffffffffffffffffffffffffffffffff82166000908152600460205260409020610f8b81836127c3565b73ffffffffffffffffffffffffffffffffffffffff83166000908152600660205260409020610fbe9084906102586127e0565b50505050565b73ffffffffffffffffffffffffffffffffffffffff8083166000818152600860209081526040808320948616835293815283822060018101549383526006909152928120909291908390611018904261248f565b9050811561103757825461102d908284612912565b9350505050611045565b5050549050611045565b5050505b92915050565b73ffffffffffffffffffffffffffffffffffffffff8116600090815260066020526040812061104590612931565b73ffffffffffffffffffffffffffffffffffffffff8216600090815260056020526040812081906110aa904261248f565b90506110b7858285612912565b95945050505050565b336110c961266c565b73ffffffffffffffffffffffffffffffffffffffff1614806111075750336110ef612711565b73ffffffffffffffffffffffffffffffffffffffff16145b8061112d57503360009081526001602090815260408083206009845290915290205460ff165b6111b9576040517f08c379a000000000000000000000000000000000000000000000000000000000815260206004820152603960248201527f43616c6c6572206973206e6f7420746865206f776e65722c206578656375746f60448201527f72206f7220617574686f72697a656420616374697661746f72000000000000006064820152608401610a85565b73ffffffffffffffffffffffffffffffffffffffff166000908152600c6020526040902080547fffffffffffffffffffffffffffffffffffffffffffffffffffffffffffffff00169055565b3361120e61266c565b73ffffffffffffffffffffffffffffffffffffffff16148061124c575033611234612711565b73ffffffffffffffffffffffffffffffffffffffff16145b6112b2576040517f08c379a000000000000000000000000000000000000000000000000000000000815260206004820152601e60248201527f526f6c65733a2063616c6c6572206973206e6f7420746865206f776e657200006044820152606401610a85565b600955565b336000908152600160209081526040808320600b845290915290205460ff1661133c576040517f08c379a000000000000000000000000000000000000000000000000000000000815260206004820152601660248201527f4e6f7420616e20617070726f766564206c656e646572000000000000000000006044820152606401610a85565b73ffffffffffffffffffffffffffffffffffffffff82166000908152600c602052604090205460ff166113cb576040517f08c379a000000000000000000000000000000000000000000000000000000000815260206004820152601360248201527f4e6f7420617070726f76656420697373756572000000000000000000000000006044820152606401610a85565b73ffffffffffffffffffffffffffffffffffffffff82166000908152600460205260409020610f8b8183612991565b3361140361266c565b73ffffffffffffffffffffffffffffffffffffffff161480611441575033611429612711565b73ffffffffffffffffffffffffffffffffffffffff16145b8061146757503360009081526001602090815260408083206009845290915290205460ff165b6114f3576040517f08c379a000000000000000000000000000000000000000000000000000000000815260206004820152603960248201527f43616c6c6572206973206e6f7420746865206f776e65722c206578656375746f60448201527f72206f7220617574686f72697a656420616374697661746f72000000000000006064820152608401610a85565b73ffffffffffffffffffffffffffffffffffffffff90921660009081526004602081905260409091206005810193909355600683019190915542910155565b3361153b61266c565b73ffffffffffffffffffffffffffffffffffffffff161480611579575033611561612711565b73ffffffffffffffffffffffffffffffffffffffff16145b8061159f57503360009081526001602090815260408083206009845290915290205460ff165b61162b576040517f08c379a000000000000000000000000000000000000000000000000000000000815260206004820152603960248201527f43616c6c6572206973206e6f7420746865206f776e65722c206578656375746f60448201527f72206f7220617574686f72697a656420616374697661746f72000000000000006064820152608401610a85565b73ffffffffffffffffffffffffffffffffffffffff811660009081526005602052604090208054156116b9576040517f08c379a000000000000000000000000000000000000000000000000000000000815260206004820152601360248201527f646f6e27742072652d696e697469616c697a65000000000000000000000000006044820152606401610a85565b6601000000000000808255426001830155612238906064906116dd9060069061302c565b6116e79190613018565b6116f19190613018565b611702906601000000000000613000565b60029091015550565b3361171461266c565b73ffffffffffffffffffffffffffffffffffffffff16148061175257503361173a612711565b73ffffffffffffffffffffffffffffffffffffffff16145b8061177857503360009081526001602090815260408083206009845290915290205460ff165b611804576040517f08c379a000000000000000000000000000000000000000000000000000000000815260206004820152603960248201527f43616c6c6572206973206e6f7420746865206f776e65722c206578656375746f60448201527f72206f7220617574686f72697a656420616374697661746f72000000000000006064820152608401610a85565b73ffffffffffffffffffffffffffffffffffffffff909116600090815260046020526040902060020155565b336000908152600b60205260408120805483929061184f908490613000565b909155505050565b336000908152600160209081526040808320600b845290915290205460ff166118dc576040517f08c379a000000000000000000000000000000000000000000000000000000000815260206004820152601660248201527f4e6f7420616e20617070726f766564206c656e646572000000000000000000006044820152606401610a85565b6109bf83838361259c565b73ffffffffffffffffffffffffffffffffffffffff8116600090815260066020526040812061191a9083906102586127e0565b6002015492915050565b33600090815260016020908152604080832060038452909152812054819060ff166119ab576040517f08c379a000000000000000000000000000000000000000000000000000000000815260206004820152601160248201527f4e6f7420617070726f7665642063616c6c0000000000000000000000000000006044820152606401610a85565b73ffffffffffffffffffffffffffffffffffffffff841660009081526005602052604090206119d98161278f565b805491506119e8868386612912565b925060006119f68785613069565b73ffffffffffffffffffffffffffffffffffffffff871660009081526004602052604081206001810180549394509092849290611a34908490613000565b92505081905550505050935093915050565b33611a4f61266c565b73ffffffffffffffffffffffffffffffffffffffff161480611a8d575033611a75612711565b73ffffffffffffffffffffffffffffffffffffffff16145b80611ab357503360009081526001602090815260408083206009845290915290205460ff165b611b3f576040517f08c379a000000000000000000000000000000000000000000000000000000000815260206004820152603960248201527f43616c6c6572206973206e6f7420746865206f776e65722c206578656375746f60448201527f72206f7220617574686f72697a656420616374697661746f72000000000000006064820152608401610a85565b73ffffffffffffffffffffffffffffffffffffffff9182166000908152600c6020908152604080832080547fffffffffffffffffffffffffffffffffffffffffffffffffffffffffffffff00166001179055600a90915290208054919092167fffffffffffffffffffffffff0000000000000000000000000000000000000000909116179055565b3360009081526001602090815260408083206003845290915290205460ff16611c4c576040517f08c379a000000000000000000000000000000000000000000000000000000000815260206004820152601560248201527f4e6f7420617070726f76656420626f72726f77657200000000000000000000006044820152606401610a85565b73ffffffffffffffffffffffffffffffffffffffff82166000908152600c602052604090205460ff16611cdb576040517f08c379a000000000000000000000000000000000000000000000000000000000815260206004820152601360248201527f4e6f7420617070726f76656420697373756572000000000000000000000000006044820152606401610a85565b73ffffffffffffffffffffffffffffffffffffffff8216600090815260046020526040812060018101805491928492611d15908490613000565b909155505073ffffffffffffffffffffffffffffffffffffffff83166000908152600660205260409020611d4d908490610e106127e0565b506001810154815410156109bf576040517f08c379a000000000000000000000000000000000000000000000000000000000815260206004820152601460248201527f496e73756666696369656e74206c656e64696e670000000000000000000000006044820152606401610a85565b73ffffffffffffffffffffffffffffffffffffffff8116600090815260056020526040812061104590612931565b33611df461266c565b73ffffffffffffffffffffffffffffffffffffffff161480611e32575033611e1a612711565b73ffffffffffffffffffffffffffffffffffffffff16145b611e98576040517f08c379a000000000000000000000000000000000000000000000000000000000815260206004820152601e60248201527f526f6c65733a2063616c6c6572206973206e6f7420746865206f776e657200006044820152606401610a85565b600255565b73ffffffffffffffffffffffffffffffffffffffff8116600090815260086020908152604080832033808552925290912080549091611ee190849084908490612152565b611eec83338361225f565b73ffffffffffffffffffffffffffffffffffffffff8316600090815260086020908152604080832033808552925282208281556001810183905560028101839055600301919091556109bf90849083612436565b33611f4961266c565b73ffffffffffffffffffffffffffffffffffffffff161480611f87575033611f6f612711565b73ffffffffffffffffffffffffffffffffffffffff16145b80611fad57503360009081526001602090815260408083206009845290915290205460ff165b612039576040517f08c379a000000000000000000000000000000000000000000000000000000000815260206004820152603960248201527f43616c6c6572206973206e6f7420746865206f776e65722c206578656375746f60448201527f72206f7220617574686f72697a656420616374697661746f72000000000000006064820152608401610a85565b73ffffffffffffffffffffffffffffffffffffffff821660009081526006602052604090208054612102576000612238606461207c85660100000000000061302c565b6120869190613018565b6120909190613018565b6120a1906601000000000000613000565b604080516060810182526601000000000000815242602080830191825282840194855273ffffffffffffffffffffffffffffffffffffffff8916600090815260069091529290922090518155905160018201559051600290910155506109bf565b600061211184836102586127e0565b905061223860646121228582613000565b61213390660100000000000061302c565b61213d9190613018565b6121479190613018565b600290910155505050565b73ffffffffffffffffffffffffffffffffffffffff8416600090815260046020526040902061218190836127c3565b61218c8484836129ae565b6000610e108460020154426121a19190613069565b6121ab91906130b9565b905080600754101561223f576040517f08c379a000000000000000000000000000000000000000000000000000000000815260206004820152603f60248201527f5472696564207769746864726177696e67206f7574736964652073756273637260448201527f697074696f6e2063616e63656c6c6174696f6e2074696d652077696e646f77006064820152608401610a85565b828460000160008282546122539190613069565b90915550505050505050565b73ffffffffffffffffffffffffffffffffffffffff83166000908152600b602052604090205480158015906122945750600082115b1561232d5773ffffffffffffffffffffffffffffffffffffffff841660009081526004602052604081205490816122cb8185612a6e565b6122d5908661302c565b6122df9190613018565b90506122eb8185613069565b73ffffffffffffffffffffffffffffffffffffffff87166000908152600b6020526040812080549296508392909190612325908490613069565b909155505050505b73ffffffffffffffffffffffffffffffffffffffff8085166000908152600a60205260409020541661239d606560009081526020527f4a7203f705e51df4a56139a9b86b4a0970bed7ab7a3446eaffe2289989c1645c5473ffffffffffffffffffffffffffffffffffffffff1690565b6040517fd9caed1200000000000000000000000000000000000000000000000000000000815273ffffffffffffffffffffffffffffffffffffffff8381166004830152868116602483015260448201869052919091169063d9caed1290606401600060405180830381600087803b15801561241757600080fd5b505af115801561242b573d6000803e3d6000fd5b505050505050505050565b6040805173ffffffffffffffffffffffffffffffffffffffff8581168252602082018490528416917f3397b60e3ca1e9c0c75a033d62ab8731e9b2937c0690ae5d7f1bd37886b19d7d91015b60405180910390a2505050565b6000808360010154836124a29190613069565b90506102588111156124c0576124b88482612a86565b915050611045565b50508154611045565b5092915050565b7f4a7203f705e51df4a56139a9b86b4a0970bed7ab7a3446eaffe2289989c1645c5473ffffffffffffffffffffffffffffffffffffffff8481166000908152600a60205260408082205481517fb3db428b00000000000000000000000000000000000000000000000000000000815287851660048201529084166024820152604481018690529051929093169263b3db428b926064808301939282900301818387803b15801561257f57600080fd5b505af1158015612593573d6000803e3d6000fd5b50505050505050565b73ffffffffffffffffffffffffffffffffffffffff8084166000818152600860209081526040808320948716835293815283822092825260049052919091206125e58184612991565b6125f08583866129ae565b815461260857612602610e10426130b9565b60028301555b828260000160008282546122539190613000565b6040805173ffffffffffffffffffffffffffffffffffffffff8581168252602082018490528416917f8ec70c9430377a4bba035133e27a5b0f3b9951bc080833f6832bcbbb70a96dba9101612482565b60007f000000000000000000000000000000000000000000000000000000000000000073ffffffffffffffffffffffffffffffffffffffff16638da5cb5b6040518163ffffffff1660e01b815260040160206040518083038186803b1580156126d457600080fd5b505afa1580156126e8573d6000803e3d6000fd5b505050506040513d601f19601f8201168201806040525081019061270c9190612e8b565b905090565b60007f000000000000000000000000000000000000000000000000000000000000000073ffffffffffffffffffffffffffffffffffffffff1663c34c08e56040518163ffffffff1660e01b8152600401602060405180830381600087803b15801561277b57600080fd5b505af11580156126e8573d6000803e3d6000fd5b60008160010154426127a19190613069565b9050610258811115610aaf576127b78282612a86565b82554260018301555050565b6127cc82612b9e565b80826000016000828254610b709190613069565b6001820154600090816127f38242613069565b9050838111156129085773ffffffffffffffffffffffffffffffffffffffff8616600090815260056020526040902061282c8683612a86565b865573ffffffffffffffffffffffffffffffffffffffff87166000908152600460205260409020805460018201546128649190612c78565b60028801554260018801556128788261278f565b6128fd61223860646128926601000000000000600661302c565b61289c9190613018565b6128a69190613018565b6128b7906601000000000000613000565b606466010000000000008a600201546128d09190613069565b6009546128dd919061302c565b6128e79190613018565b6128f8906601000000000000613000565b612d07565b826002018190555050505b5092949350505050565b60008161291f848661302c565b6129299190613018565b949350505050565b600281015460009081610e10612950660100000000000061271061302c565b61295c8461271061302c565b6129669190613069565b612974906301e1338061302c565b61297e9190613018565b9050612929660100000000000082613018565b61299a82612b9e565b80826000016000828254610b709190613000565b600182015473ffffffffffffffffffffffffffffffffffffffff841660009081526006602052604081206129e69086906102586127e0565b73ffffffffffffffffffffffffffffffffffffffff861660009081526004602052604090209091508215612a5357612a1f858286612d1f565b84548254612a2f90829086612912565b808755600090612a40908390613069565b9050612a4c8382612991565b5050612a5e565b600380820154908601555b5054600190930192909255505050565b600081831115612a7f575080611045565b5081611045565b600080612a95610e10846130b9565b9050612aaa6601000000000000610e1061302c565b8166010000000000008660020154612ac29190613069565b8654612ace919061302c565b612ad8919061302c565b612ae29190613018565b8454612aee9190613000565b91506000612afe610e1085613018565b90508015612b96578260005b8083118015612b195750806004115b15612b54576601000000000000876002015486612b36919061302c565b612b409190613018565b945080612b4c81613080565b915050612b0a565b506004821115611041576004612b6a8184613069565b612b748387613069565b612b7e919061302c565b612b889190613018565b612b929085613000565b9350505b505092915050565b6000612bae826005015442612a6e565b905060008260060154118015612bc75750816004015481115b15610aaf576000826004015482612bde9190613069565b90506000612c1c846006015485600401548660050154612bfe9190613069565b6006870154612c0d908661302c565b612c179190613018565b612a6e565b905080846006016000828254612c329190613069565b90915550508354612c4a66010000000000008361302c565b612c549190613018565b846003016000828254612c679190613000565b909155505042600485015550505050565b6601000000000000600083612c8e576000612ca4565b83612c9a84606461302c565b612ca49190613018565b90506052811015612ccd57600254612cbc908261302c565b612cc69083613000565b91506124c9565b600354612cdb605283613069565b612ce5919061302c565b600254612cf390605261302c565b612cfd9190613000565b6129299083613000565b600081831115612d18575081611045565b5080611045565b600083600301548360030154612d359190613069565b90508015610fbe578354600090660100000000000090612d55908461302c565b612d5f9190613018565b9050612da9606560009081526020527f4a7203f705e51df4a56139a9b86b4a0970bed7ab7a3446eaffe2289989c1645c5473ffffffffffffffffffffffffffffffffffffffff1690565b6040517fd9caed1200000000000000000000000000000000000000000000000000000000815273ffffffffffffffffffffffffffffffffffffffff7f000000000000000000000000000000000000000000000000000000000000000081166004830152858116602483015260448201849052919091169063d9caed1290606401600060405180830381600087803b158015612e4357600080fd5b505af1158015612e57573d6000803e3d6000fd5b50505050818560030160008282546122539190613000565b600060208284031215612e80578081fd5b81356109f38161312b565b600060208284031215612e9c578081fd5b81516109f38161312b565b60008060408385031215612eb9578081fd5b8235612ec48161312b565b91506020830135612ed48161312b565b809150509250929050565b600080600060608486031215612ef3578081fd5b8335612efe8161312b565b92506020840135612f0e8161312b565b929592945050506040919091013590565b60008060408385031215612f31578182fd5b8235612f3c8161312b565b946020939093013593505050565b600080600060608486031215612f5e578283fd5b8335612f698161312b565b95602085013595506040909401359392505050565b600060208284031215612f8f578081fd5b815180151581146109f3578182fd5b600060208284031215612faf578081fd5b5035919050565b60008060408385031215612fc8578182fd5b823591506020830135612ed48161312b565b600080600060608486031215612fee578283fd5b833592506020840135612f0e8161312b565b60008219821115613013576130136130cd565b500190565b600082613027576130276130fc565b500490565b6000817fffffffffffffffffffffffffffffffffffffffffffffffffffffffffffffffff0483118215151615613064576130646130cd565b500290565b60008282101561307b5761307b6130cd565b500390565b60007fffffffffffffffffffffffffffffffffffffffffffffffffffffffffffffffff8214156130b2576130b26130cd565b5060010190565b6000826130c8576130c86130fc565b500690565b7f4e487b7100000000000000000000000000000000000000000000000000000000600052601160045260246000fd5b7f4e487b7100000000000000000000000000000000000000000000000000000000600052601260045260246000fd5b73ffffffffffffffffffffffffffffffffffffffff81168114610e4557600080fdfea264697066735822122064b4f113c91c6e27596e447d3817efab8cc6a3f3f04857c0d2a18576cf32f5f064736f6c63430008030033",
  "devdoc": {
    "kind": "dev",
    "methods": {
      "applyBorrowInterest(uint256,address,uint256)": {
        "details": "how much interest has accrued to a borrowed balance over time"
      },
      "buyHourlyBondSubscription(address,uint256)": {
        "details": "buy hourly bond subscription"
      },
      "makeFallbackBond(address,address,uint256)": {
        "details": "In a liquidity crunch make a fallback bond until liquidity is good again"
      },
      "payOff(address,uint256)": {
        "details": "gets called by router if loan is extinguished"
      },
      "registerBorrow(address,uint256)": {
        "details": "gets called by router to register if a trader borrows issuers"
      },
      "registerLend(address,uint256)": {
        "details": "gets called when external sources provide lending"
      },
      "registerWithdrawal(address,uint256)": {
        "details": "gets called when external sources pay withdraw their bobnd"
      },
      "updateHourlyYield(address)": {
        "details": "updates yield accumulators for both borrowing and lending issuer address represents a token"
      },
      "viewAccumulatedBorrowingYieldFP(address)": {
        "details": "get the borrow yield for a specific issuer/token"
      },
      "viewBorrowAPRPer10k(address)": {
        "details": "get current borrowing interest per 10k for a token / issuer"
      },
      "viewHourlyBondAPRPer10k(address)": {
        "details": "get current lending APR per 10k for a token / issuer"
      },
      "viewWithBorrowInterest(uint256,address,uint256)": {
        "details": "view function to get balance with borrowing interest applied"
      },
      "withdrawHourlyBond(address,uint256)": {
        "details": "withdraw an hour bond"
      }
    },
    "title": "Manage lending for a variety of bond issuers",
    "version": 1
  },
  "userdoc": {
    "kind": "user",
    "methods": {
      "activateIssuer(address)": {
        "notice": "Make a issuer available for protocol"
      },
      "activateIssuer(address,address)": {
        "notice": "Make issuer != token available for protocol (isol. margin)"
      },
      "activeIssuers(address)": {
        "notice": "map of available issuers"
      },
      "closeHourlyBondAccount(address)": {
        "notice": "Shut down hourly bond account for `issuer`"
      },
      "deactivateIssuer(address)": {
        "notice": "Remove a issuer from trading availability"
      },
      "haircuts(address)": {
        "notice": "In case of shortfall, adjust debt"
      },
      "issuerTokens(address)": {
        "notice": "mapping issuers to tokens (in crossmargin, the issuers are tokens  themselves)"
      },
      "setHourlyYieldAPR(address,uint256)": {
        "notice": "Set hourly yield APR for issuer"
      },
      "setLendingCap(address,uint256)": {
        "notice": "Set lending cap"
      },
      "setWithdrawalWindow(uint256)": {
        "notice": "Set withdrawal window"
      }
    },
    "version": 1
  },
  "storageLayout": {
    "storage": [
      {
        "astId": 9349,
        "contract": "contracts/Lending.sol:Lending",
        "label": "mainCharacterCache",
        "offset": 0,
        "slot": "0",
        "type": "t_mapping(t_uint256,t_address)"
      },
      {
        "astId": 9355,
        "contract": "contracts/Lending.sol:Lending",
        "label": "roleCache",
        "offset": 0,
        "slot": "1",
        "type": "t_mapping(t_address,t_mapping(t_uint256,t_bool))"
      },
      {
        "astId": 1567,
        "contract": "contracts/Lending.sol:Lending",
        "label": "normalRatePerPercent",
        "offset": 0,
        "slot": "2",
        "type": "t_uint256"
      },
      {
        "astId": 1585,
        "contract": "contracts/Lending.sol:Lending",
        "label": "highRatePerPercent",
        "offset": 0,
        "slot": "3",
        "type": "t_uint256"
      },
      {
        "astId": 1612,
        "contract": "contracts/Lending.sol:Lending",
        "label": "lendingMeta",
        "offset": 0,
        "slot": "4",
        "type": "t_mapping(t_address,t_struct(LendingMetadata)1607_storage)"
      },
      {
        "astId": 1618,
        "contract": "contracts/Lending.sol:Lending",
        "label": "borrowYieldAccumulators",
        "offset": 0,
        "slot": "5",
        "type": "t_mapping(t_address,t_struct(YieldAccumulator)1592_storage)"
      },
      {
        "astId": 5416,
        "contract": "contracts/Lending.sol:Lending",
        "label": "hourlyBondYieldAccumulators",
        "offset": 0,
        "slot": "6",
        "type": "t_mapping(t_address,t_struct(YieldAccumulator)1592_storage)"
      },
      {
        "astId": 5422,
        "contract": "contracts/Lending.sol:Lending",
        "label": "withdrawalWindow",
        "offset": 0,
        "slot": "7",
        "type": "t_uint256"
      },
      {
        "astId": 5432,
        "contract": "contracts/Lending.sol:Lending",
        "label": "hourlyBondAccounts",
        "offset": 0,
        "slot": "8",
        "type": "t_mapping(t_address,t_mapping(t_address,t_struct(HourlyBond)5408_storage))"
      },
      {
        "astId": 5435,
        "contract": "contracts/Lending.sol:Lending",
        "label": "borrowingFactorPercent",
        "offset": 0,
        "slot": "9",
        "type": "t_uint256"
      },
      {
        "astId": 6248,
        "contract": "contracts/Lending.sol:Lending",
        "label": "issuerTokens",
        "offset": 0,
        "slot": "10",
        "type": "t_mapping(t_address,t_address)"
      },
      {
        "astId": 6253,
        "contract": "contracts/Lending.sol:Lending",
        "label": "haircuts",
        "offset": 0,
        "slot": "11",
        "type": "t_mapping(t_address,t_uint256)"
      },
      {
        "astId": 6258,
        "contract": "contracts/Lending.sol:Lending",
        "label": "activeIssuers",
        "offset": 0,
        "slot": "12",
        "type": "t_mapping(t_address,t_bool)"
      }
    ],
    "types": {
      "t_address": {
        "encoding": "inplace",
        "label": "address",
        "numberOfBytes": "20"
      },
      "t_bool": {
        "encoding": "inplace",
        "label": "bool",
        "numberOfBytes": "1"
      },
      "t_mapping(t_address,t_address)": {
        "encoding": "mapping",
        "key": "t_address",
        "label": "mapping(address => address)",
        "numberOfBytes": "32",
        "value": "t_address"
      },
      "t_mapping(t_address,t_bool)": {
        "encoding": "mapping",
        "key": "t_address",
        "label": "mapping(address => bool)",
        "numberOfBytes": "32",
        "value": "t_bool"
      },
      "t_mapping(t_address,t_mapping(t_address,t_struct(HourlyBond)5408_storage))": {
        "encoding": "mapping",
        "key": "t_address",
        "label": "mapping(address => mapping(address => struct HourlyBond))",
        "numberOfBytes": "32",
        "value": "t_mapping(t_address,t_struct(HourlyBond)5408_storage)"
      },
      "t_mapping(t_address,t_mapping(t_uint256,t_bool))": {
        "encoding": "mapping",
        "key": "t_address",
        "label": "mapping(address => mapping(uint256 => bool))",
        "numberOfBytes": "32",
        "value": "t_mapping(t_uint256,t_bool)"
      },
      "t_mapping(t_address,t_struct(HourlyBond)5408_storage)": {
        "encoding": "mapping",
        "key": "t_address",
        "label": "mapping(address => struct HourlyBond)",
        "numberOfBytes": "32",
        "value": "t_struct(HourlyBond)5408_storage"
      },
      "t_mapping(t_address,t_struct(LendingMetadata)1607_storage)": {
        "encoding": "mapping",
        "key": "t_address",
        "label": "mapping(address => struct BaseLending.LendingMetadata)",
        "numberOfBytes": "32",
        "value": "t_struct(LendingMetadata)1607_storage"
      },
      "t_mapping(t_address,t_struct(YieldAccumulator)1592_storage)": {
        "encoding": "mapping",
        "key": "t_address",
        "label": "mapping(address => struct BaseLending.YieldAccumulator)",
        "numberOfBytes": "32",
        "value": "t_struct(YieldAccumulator)1592_storage"
      },
      "t_mapping(t_address,t_uint256)": {
        "encoding": "mapping",
        "key": "t_address",
        "label": "mapping(address => uint256)",
        "numberOfBytes": "32",
        "value": "t_uint256"
      },
      "t_mapping(t_uint256,t_address)": {
        "encoding": "mapping",
        "key": "t_uint256",
        "label": "mapping(uint256 => address)",
        "numberOfBytes": "32",
        "value": "t_address"
      },
      "t_mapping(t_uint256,t_bool)": {
        "encoding": "mapping",
        "key": "t_uint256",
        "label": "mapping(uint256 => bool)",
        "numberOfBytes": "32",
        "value": "t_bool"
      },
      "t_struct(HourlyBond)5408_storage": {
        "encoding": "inplace",
        "label": "struct HourlyBond",
        "members": [
          {
            "astId": 5401,
            "contract": "contracts/Lending.sol:Lending",
            "label": "amount",
            "offset": 0,
            "slot": "0",
            "type": "t_uint256"
          },
          {
            "astId": 5403,
            "contract": "contracts/Lending.sol:Lending",
            "label": "yieldQuotientFP",
            "offset": 0,
            "slot": "1",
            "type": "t_uint256"
          },
          {
            "astId": 5405,
            "contract": "contracts/Lending.sol:Lending",
            "label": "moduloHour",
            "offset": 0,
            "slot": "2",
            "type": "t_uint256"
          },
          {
            "astId": 5407,
            "contract": "contracts/Lending.sol:Lending",
            "label": "incentiveAllocationStart",
            "offset": 0,
            "slot": "3",
            "type": "t_uint256"
          }
        ],
        "numberOfBytes": "128"
      },
      "t_struct(LendingMetadata)1607_storage": {
        "encoding": "inplace",
        "label": "struct BaseLending.LendingMetadata",
        "members": [
          {
            "astId": 1594,
            "contract": "contracts/Lending.sol:Lending",
            "label": "totalLending",
            "offset": 0,
            "slot": "0",
            "type": "t_uint256"
          },
          {
            "astId": 1596,
            "contract": "contracts/Lending.sol:Lending",
            "label": "totalBorrowed",
            "offset": 0,
            "slot": "1",
            "type": "t_uint256"
          },
          {
            "astId": 1598,
            "contract": "contracts/Lending.sol:Lending",
            "label": "lendingCap",
            "offset": 0,
            "slot": "2",
            "type": "t_uint256"
          },
          {
            "astId": 1600,
            "contract": "contracts/Lending.sol:Lending",
            "label": "cumulIncentiveAllocationFP",
            "offset": 0,
            "slot": "3",
            "type": "t_uint256"
          },
          {
            "astId": 1602,
            "contract": "contracts/Lending.sol:Lending",
            "label": "incentiveLastUpdated",
            "offset": 0,
            "slot": "4",
            "type": "t_uint256"
          },
          {
            "astId": 1604,
            "contract": "contracts/Lending.sol:Lending",
            "label": "incentiveEnd",
            "offset": 0,
            "slot": "5",
            "type": "t_uint256"
          },
          {
            "astId": 1606,
            "contract": "contracts/Lending.sol:Lending",
            "label": "incentiveTarget",
            "offset": 0,
            "slot": "6",
            "type": "t_uint256"
          }
        ],
        "numberOfBytes": "224"
      },
      "t_struct(YieldAccumulator)1592_storage": {
        "encoding": "inplace",
        "label": "struct BaseLending.YieldAccumulator",
        "members": [
          {
            "astId": 1587,
            "contract": "contracts/Lending.sol:Lending",
            "label": "accumulatorFP",
            "offset": 0,
            "slot": "0",
            "type": "t_uint256"
          },
          {
            "astId": 1589,
            "contract": "contracts/Lending.sol:Lending",
            "label": "lastUpdated",
            "offset": 0,
            "slot": "1",
            "type": "t_uint256"
          },
          {
            "astId": 1591,
            "contract": "contracts/Lending.sol:Lending",
            "label": "hourlyYieldFP",
            "offset": 0,
            "slot": "2",
            "type": "t_uint256"
          }
        ],
        "numberOfBytes": "96"
      },
      "t_uint256": {
        "encoding": "inplace",
        "label": "uint256",
        "numberOfBytes": "32"
      }
    }
  }
}