{
  "address": "0xCB94B2624Ada3346a4169F0DbF8B31d6D3c1cCfB",
  "abi": [
    {
      "inputs": [
        {
          "internalType": "address",
          "name": "_MFI",
          "type": "address"
        },
        {
          "internalType": "address",
          "name": "_roles",
          "type": "address"
        }
      ],
      "stateMutability": "nonpayable",
      "type": "constructor"
    },
    {
      "inputs": [],
      "name": "MFI",
      "outputs": [
        {
          "internalType": "address",
          "name": "",
          "type": "address"
        }
      ],
      "stateMutability": "view",
      "type": "function"
    },
    {
      "inputs": [
        {
          "internalType": "address",
          "name": "issuer",
          "type": "address"
        }
      ],
      "name": "activateIssuer",
      "outputs": [],
      "stateMutability": "nonpayable",
      "type": "function"
    },
    {
      "inputs": [
        {
          "internalType": "address",
          "name": "issuer",
          "type": "address"
        },
        {
          "internalType": "address",
          "name": "token",
          "type": "address"
        }
      ],
      "name": "activateIssuer",
      "outputs": [],
      "stateMutability": "nonpayable",
      "type": "function"
    },
    {
      "inputs": [
        {
          "internalType": "address",
          "name": "",
          "type": "address"
        }
      ],
      "name": "activeIssuers",
      "outputs": [
        {
          "internalType": "bool",
          "name": "",
          "type": "bool"
        }
      ],
      "stateMutability": "view",
      "type": "function"
    },
    {
      "inputs": [
        {
          "internalType": "address",
          "name": "token",
          "type": "address"
        },
        {
          "internalType": "uint256",
          "name": "amount",
          "type": "uint256"
        },
        {
          "internalType": "uint256",
          "name": "endTimestamp",
          "type": "uint256"
        }
      ],
      "name": "addIncentive",
      "outputs": [],
      "stateMutability": "nonpayable",
      "type": "function"
    },
    {
      "inputs": [
        {
          "internalType": "uint256",
          "name": "balance",
          "type": "uint256"
        },
        {
          "internalType": "address",
          "name": "issuer",
          "type": "address"
        },
        {
          "internalType": "uint256",
          "name": "yieldQuotientFP",
          "type": "uint256"
        }
      ],
      "name": "applyBorrowInterest",
      "outputs": [
        {
          "internalType": "uint256",
          "name": "balanceWithInterest",
          "type": "uint256"
        },
        {
          "internalType": "uint256",
          "name": "accumulatorFP",
          "type": "uint256"
        }
      ],
      "stateMutability": "nonpayable",
      "type": "function"
    },
    {
      "inputs": [
        {
          "internalType": "address",
          "name": "",
          "type": "address"
        }
      ],
      "name": "borrowYieldAccumulators",
      "outputs": [
        {
          "internalType": "uint256",
          "name": "accumulatorFP",
          "type": "uint256"
        },
        {
          "internalType": "uint256",
          "name": "lastUpdated",
          "type": "uint256"
        },
        {
          "internalType": "uint256",
          "name": "hourlyYieldFP",
          "type": "uint256"
        }
      ],
      "stateMutability": "view",
      "type": "function"
    },
    {
      "inputs": [],
      "name": "borrowingFactorPercent",
      "outputs": [
        {
          "internalType": "uint256",
          "name": "",
          "type": "uint256"
        }
      ],
      "stateMutability": "view",
      "type": "function"
    },
    {
      "inputs": [
        {
          "internalType": "address",
          "name": "issuer",
          "type": "address"
        },
        {
          "internalType": "uint256",
          "name": "amount",
          "type": "uint256"
        }
      ],
      "name": "buyHourlyBondSubscription",
      "outputs": [],
      "stateMutability": "nonpayable",
      "type": "function"
    },
    {
      "inputs": [
        {
          "internalType": "address",
          "name": "issuer",
          "type": "address"
        }
      ],
      "name": "closeHourlyBondAccount",
      "outputs": [],
      "stateMutability": "nonpayable",
      "type": "function"
    },
    {
      "inputs": [
        {
          "internalType": "address",
          "name": "issuer",
          "type": "address"
        }
      ],
      "name": "deactivateIssuer",
      "outputs": [],
      "stateMutability": "nonpayable",
      "type": "function"
    },
    {
      "inputs": [
        {
          "internalType": "address",
          "name": "issuer",
          "type": "address"
        }
      ],
      "name": "getUpdatedBorrowYieldAccuFP",
      "outputs": [
        {
          "internalType": "uint256",
          "name": "",
          "type": "uint256"
        }
      ],
      "stateMutability": "nonpayable",
      "type": "function"
    },
    {
      "inputs": [
        {
          "internalType": "uint256",
          "name": "amount",
          "type": "uint256"
        }
      ],
      "name": "haircut",
      "outputs": [],
      "stateMutability": "nonpayable",
      "type": "function"
    },
    {
      "inputs": [
        {
          "internalType": "address",
          "name": "",
          "type": "address"
        }
      ],
      "name": "haircuts",
      "outputs": [
        {
          "internalType": "uint256",
          "name": "",
          "type": "uint256"
        }
      ],
      "stateMutability": "view",
      "type": "function"
    },
    {
      "inputs": [],
      "name": "highRatePerPercent",
      "outputs": [
        {
          "internalType": "uint256",
          "name": "",
          "type": "uint256"
        }
      ],
      "stateMutability": "view",
      "type": "function"
    },
    {
      "inputs": [
        {
          "internalType": "address",
          "name": "",
          "type": "address"
        },
        {
          "internalType": "address",
          "name": "",
          "type": "address"
        }
      ],
      "name": "hourlyBondAccounts",
      "outputs": [
        {
          "internalType": "uint256",
          "name": "amount",
          "type": "uint256"
        },
        {
          "internalType": "uint256",
          "name": "yieldQuotientFP",
          "type": "uint256"
        },
        {
          "internalType": "uint256",
          "name": "moduloHour",
          "type": "uint256"
        },
        {
          "internalType": "uint256",
          "name": "incentiveAllocationStart",
          "type": "uint256"
        }
      ],
      "stateMutability": "view",
      "type": "function"
    },
    {
      "inputs": [
        {
          "internalType": "address",
          "name": "issuer",
          "type": "address"
        }
      ],
      "name": "initBorrowYieldAccumulator",
      "outputs": [],
      "stateMutability": "nonpayable",
      "type": "function"
    },
    {
      "inputs": [
        {
          "internalType": "address",
          "name": "",
          "type": "address"
        }
      ],
      "name": "issuerTokens",
      "outputs": [
        {
          "internalType": "address",
          "name": "",
          "type": "address"
        }
      ],
      "stateMutability": "view",
      "type": "function"
    },
    {
      "inputs": [
        {
          "internalType": "address",
          "name": "",
          "type": "address"
        }
      ],
      "name": "lendingMeta",
      "outputs": [
        {
          "internalType": "uint256",
          "name": "totalLending",
          "type": "uint256"
        },
        {
          "internalType": "uint256",
          "name": "totalBorrowed",
          "type": "uint256"
        },
        {
          "internalType": "uint256",
          "name": "lendingCap",
          "type": "uint256"
        },
        {
          "internalType": "uint256",
          "name": "cumulIncentiveAllocationFP",
          "type": "uint256"
        },
        {
          "internalType": "uint256",
          "name": "incentiveLastUpdated",
          "type": "uint256"
        },
        {
          "internalType": "uint256",
          "name": "incentiveEnd",
          "type": "uint256"
        },
        {
          "internalType": "uint256",
          "name": "incentiveTarget",
          "type": "uint256"
        }
      ],
      "stateMutability": "view",
      "type": "function"
    },
    {
      "inputs": [
        {
          "internalType": "uint256",
          "name": "",
          "type": "uint256"
        }
      ],
      "name": "mainCharacterCache",
      "outputs": [
        {
          "internalType": "address",
          "name": "",
          "type": "address"
        }
      ],
      "stateMutability": "view",
      "type": "function"
    },
    {
      "inputs": [
        {
          "internalType": "address",
          "name": "issuer",
          "type": "address"
        },
        {
          "internalType": "address",
          "name": "holder",
          "type": "address"
        },
        {
          "internalType": "uint256",
          "name": "amount",
          "type": "uint256"
        }
      ],
      "name": "makeFallbackBond",
      "outputs": [],
      "stateMutability": "nonpayable",
      "type": "function"
    },
    {
      "inputs": [],
      "name": "normalRatePerPercent",
      "outputs": [
        {
          "internalType": "uint256",
          "name": "",
          "type": "uint256"
        }
      ],
      "stateMutability": "view",
      "type": "function"
    },
    {
      "inputs": [
        {
          "internalType": "address",
          "name": "issuer",
          "type": "address"
        },
        {
          "internalType": "uint256",
          "name": "amount",
          "type": "uint256"
        }
      ],
      "name": "payOff",
      "outputs": [],
      "stateMutability": "nonpayable",
      "type": "function"
    },
    {
      "inputs": [
        {
          "internalType": "address",
          "name": "issuer",
          "type": "address"
        },
        {
          "internalType": "uint256",
          "name": "amount",
          "type": "uint256"
        }
      ],
      "name": "registerBorrow",
      "outputs": [],
      "stateMutability": "nonpayable",
      "type": "function"
    },
    {
      "inputs": [
        {
          "internalType": "address",
          "name": "issuer",
          "type": "address"
        },
        {
          "internalType": "uint256",
          "name": "amount",
          "type": "uint256"
        }
      ],
      "name": "registerLend",
      "outputs": [],
      "stateMutability": "nonpayable",
      "type": "function"
    },
    {
      "inputs": [
        {
          "internalType": "address",
          "name": "issuer",
          "type": "address"
        },
        {
          "internalType": "uint256",
          "name": "amount",
          "type": "uint256"
        }
      ],
      "name": "registerWithdrawal",
      "outputs": [],
      "stateMutability": "nonpayable",
      "type": "function"
    },
    {
      "inputs": [
        {
          "internalType": "address",
          "name": "",
          "type": "address"
        },
        {
          "internalType": "uint256",
          "name": "",
          "type": "uint256"
        }
      ],
      "name": "roleCache",
      "outputs": [
        {
          "internalType": "bool",
          "name": "",
          "type": "bool"
        }
      ],
      "stateMutability": "view",
      "type": "function"
    },
    {
      "inputs": [],
      "name": "roles",
      "outputs": [
        {
          "internalType": "contract Roles",
          "name": "",
          "type": "address"
        }
      ],
      "stateMutability": "view",
      "type": "function"
    },
    {
      "inputs": [
        {
          "internalType": "uint256",
          "name": "borrowingFactor",
          "type": "uint256"
        }
      ],
      "name": "setBorrowingFactorPercent",
      "outputs": [],
      "stateMutability": "nonpayable",
      "type": "function"
    },
    {
      "inputs": [
        {
          "internalType": "uint256",
          "name": "rate",
          "type": "uint256"
        }
      ],
      "name": "setHighRatePerPercent",
      "outputs": [],
      "stateMutability": "nonpayable",
      "type": "function"
    },
    {
      "inputs": [
        {
          "internalType": "address",
          "name": "issuer",
          "type": "address"
        },
        {
          "internalType": "uint256",
          "name": "aprPercent",
          "type": "uint256"
        }
      ],
      "name": "setHourlyYieldAPR",
      "outputs": [],
      "stateMutability": "nonpayable",
      "type": "function"
    },
    {
      "inputs": [
        {
          "internalType": "address",
          "name": "issuer",
          "type": "address"
        },
        {
          "internalType": "uint256",
          "name": "cap",
          "type": "uint256"
        }
      ],
      "name": "setLendingCap",
      "outputs": [],
      "stateMutability": "nonpayable",
      "type": "function"
    },
    {
      "inputs": [
        {
          "internalType": "uint256",
          "name": "rate",
          "type": "uint256"
        }
      ],
      "name": "setNormalRatePerPercent",
      "outputs": [],
      "stateMutability": "nonpayable",
      "type": "function"
    },
    {
      "inputs": [
        {
          "internalType": "uint256",
          "name": "window",
          "type": "uint256"
        }
      ],
      "name": "setWithdrawalWindow",
      "outputs": [],
      "stateMutability": "nonpayable",
      "type": "function"
    },
    {
      "inputs": [
        {
          "internalType": "address",
          "name": "issuer",
          "type": "address"
        }
      ],
      "name": "updateHourlyYield",
      "outputs": [
        {
          "internalType": "uint256",
          "name": "hourlyYield",
          "type": "uint256"
        }
      ],
      "stateMutability": "nonpayable",
      "type": "function"
    },
    {
      "inputs": [
        {
          "internalType": "uint256",
          "name": "role",
          "type": "uint256"
        }
      ],
      "name": "updateMainCharacterCache",
      "outputs": [],
      "stateMutability": "nonpayable",
      "type": "function"
    },
    {
      "inputs": [
        {
          "internalType": "uint256",
          "name": "role",
          "type": "uint256"
        },
        {
          "internalType": "address",
          "name": "contr",
          "type": "address"
        }
      ],
      "name": "updateRoleCache",
      "outputs": [],
      "stateMutability": "nonpayable",
      "type": "function"
    },
    {
      "inputs": [
        {
          "internalType": "address",
          "name": "issuer",
          "type": "address"
        }
      ],
      "name": "viewAccumulatedBorrowingYieldFP",
      "outputs": [
        {
          "internalType": "uint256",
          "name": "",
          "type": "uint256"
        }
      ],
      "stateMutability": "view",
      "type": "function"
    },
    {
      "inputs": [
        {
          "internalType": "address",
          "name": "issuer",
          "type": "address"
        }
      ],
      "name": "viewBorrowAPRPer10k",
      "outputs": [
        {
          "internalType": "uint256",
          "name": "",
          "type": "uint256"
        }
      ],
      "stateMutability": "view",
      "type": "function"
    },
    {
      "inputs": [
        {
          "internalType": "address",
          "name": "issuer",
          "type": "address"
        }
      ],
      "name": "viewHourlyBondAPRPer10k",
      "outputs": [
        {
          "internalType": "uint256",
          "name": "",
          "type": "uint256"
        }
      ],
      "stateMutability": "view",
      "type": "function"
    },
    {
      "inputs": [
        {
          "internalType": "address",
          "name": "issuer",
          "type": "address"
        },
        {
          "internalType": "address",
          "name": "holder",
          "type": "address"
        }
      ],
      "name": "viewHourlyBondAmount",
      "outputs": [
        {
          "internalType": "uint256",
          "name": "",
          "type": "uint256"
        }
      ],
      "stateMutability": "view",
      "type": "function"
    },
    {
      "inputs": [
        {
          "internalType": "uint256",
          "name": "balance",
          "type": "uint256"
        },
        {
          "internalType": "address",
          "name": "issuer",
          "type": "address"
        },
        {
          "internalType": "uint256",
          "name": "yieldQuotientFP",
          "type": "uint256"
        }
      ],
      "name": "viewWithBorrowInterest",
      "outputs": [
        {
          "internalType": "uint256",
          "name": "",
          "type": "uint256"
        }
      ],
      "stateMutability": "view",
      "type": "function"
    },
    {
      "inputs": [
        {
          "internalType": "address",
          "name": "token",
          "type": "address"
        }
      ],
      "name": "viewYearlyIncentivePer10k",
      "outputs": [
        {
          "internalType": "uint256",
          "name": "",
          "type": "uint256"
        }
      ],
      "stateMutability": "view",
      "type": "function"
    },
    {
      "inputs": [
        {
          "internalType": "address",
          "name": "issuer",
          "type": "address"
        },
        {
          "internalType": "uint256",
          "name": "amount",
          "type": "uint256"
        }
      ],
      "name": "withdrawHourlyBond",
      "outputs": [],
      "stateMutability": "nonpayable",
      "type": "function"
    },
    {
      "inputs": [
        {
          "internalType": "address",
          "name": "token",
          "type": "address"
        }
      ],
      "name": "withdrawIncentive",
      "outputs": [],
      "stateMutability": "nonpayable",
      "type": "function"
    },
    {
      "inputs": [],
      "name": "withdrawalWindow",
      "outputs": [
        {
          "internalType": "uint256",
          "name": "",
          "type": "uint256"
        }
      ],
      "stateMutability": "view",
      "type": "function"
    }
  ],
  "transactionHash": "0xa6aed45884b77f570441439ca0460635438e277bb291a9e7cc8849491562e6a3",
  "args": [
    "0x7Bc429a2fA7d71C4693424FDcaB5a2521b9FD343",
    "0xa94DDbb3Ba629E637F63F54Bae6724c271ccA48f"
  ],
  "solcInputHash": "544ae3998411b3016fdb2e034685b9f3",
  "bytecode": "0x60c0604052606460526122386200001f6601000000000000600c620001cd565b6200002b9190620001ac565b620000379190620001ac565b620000439190620001ac565b600255606462000055605282620001ef565b6122386200006c6601000000000000607b620001cd565b620000789190620001ac565b620000849190620001ac565b620000909190620001ac565b6003556104b060075560c8600955348015620000ab57600080fd5b506040516200355238038062003552833981016040819052620000ce9162000175565b806001600160a01b038116620001355760405162461bcd60e51b815260206004820152602260248201527f506c656173652070726f766964652076616c696420726f6c6573206164647265604482015261737360f01b606482015260840160405180910390fd5b6001600160601b0319606091821b811660805292901b90911660a052506200021f565b80516001600160a01b03811681146200017057600080fd5b919050565b6000806040838503121562000188578182fd5b620001938362000158565b9150620001a36020840162000158565b90509250929050565b600082620001c857634e487b7160e01b81526012600452602481fd5b500490565b6000816000190483118215151615620001ea57620001ea62000209565b500290565b60008282101562000204576200020462000209565b500390565b634e487b7160e01b600052601160045260246000fd5b60805160601c60a05160601c6132e46200026e600039600081816107c60152612ca90152600081816103ff0152818161087601528181610cb5015281816127be015261286301526132e46000f3fe608060405234801561001057600080fd5b506004361061030a5760003560e01c806391b46e051161019c578063db41039f116100ee578063ed29c12b11610097578063f848767311610071578063f84876731461080e578063f884614b14610821578063f90889c9146108345761030a565b8063ed29c12b146107c1578063ee0862bf146107e8578063f51dfe7a146107fb5761030a565b8063e69e2662116100c8578063e69e26621461076f578063e9c3f77d14610778578063ebe64bcc146107ae5761030a565b8063db41039f14610721578063dc683bcf14610734578063e695fa68146107475761030a565b8063cc4b26a311610150578063d19bd0a71161012a578063d19bd0a7146106f2578063d2b48934146106fb578063d4437dd81461070e5761030a565b8063cc4b26a314610682578063cd3b5dfb14610695578063cfc14f53146106df5761030a565b8063ae4479dd11610181578063ae4479dd14610649578063b42f60db1461065c578063bfdeb7191461066f5761030a565b806391b46e05146105b6578063ad037af6146105c95761030a565b806349d0e2ee1161026057806376668b67116102095780637a009135116101e35780637a009135146105155780637a1a04df1461052857806383a04229146105565761030a565b806376668b67146104c657806376c308f2146104d9578063797384b2146104e25761030a565b80636d8d36ba1161023a5780636d8d36ba1461048d5780636e60e249146104a057806372d01257146104b35761030a565b806349d0e2ee146104475780634b86daab1461045a57806364f85ab11461046d5761030a565b806328108026116102c2578063392f5f641161029c578063392f5f64146103fa578063447d52ba1461042157806346c87f80146104345761030a565b806328108026146103795780632a6a897b146103d457806336953912146103e75761030a565b806314189db2116102f357806314189db21461033757806316de7a431461035d578063267031b8146103705761030a565b8063071060a61461030f5780630f7c43dc14610324575b600080fd5b61032261031d3660046130ff565b610847565b005b610322610332366004613080565b610958565b61034a610345366004612fc9565b610a00565b6040519081526020015b60405180910390f35b61032261036b366004613080565b610a38565b61034a60095481565b6103af610387366004612fc9565b600a6020526000908152604090205473ffffffffffffffffffffffffffffffffffffffff1681565b60405173ffffffffffffffffffffffffffffffffffffffff9091168152602001610354565b6103226103e2366004613080565b610af1565b6103226103f53660046130ff565b610bb7565b6103af7f000000000000000000000000000000000000000000000000000000000000000081565b61032261042f366004613117565b610c69565b61034a610442366004612fc9565b610d92565b6103226104553660046130ff565b610dc7565b610322610468366004612fc9565b610e79565b61034a61047b366004612fc9565b600b6020526000908152604090205481565b61032261049b366004613080565b610e86565b61034a6104ae366004613008565b611002565b61034a6104c1366004612fc9565b611089565b61034a6104d436600461313b565b6110b7565b61034a60025481565b6105056104f0366004612fc9565b600c6020526000908152604090205460ff1681565b6040519015158152602001610354565b610322610523366004612fc9565b6110fe565b610505610536366004613080565b600160209081526000928352604080842090915290825290205460ff1681565b610596610564366004613008565b600860209081526000928352604080842090915290825290208054600182015460028301546003909301549192909184565b604080519485526020850193909352918301526060820152608001610354565b6103226105c43660046130ff565b611243565b6106146105d7366004612fc9565b6004602081905260009182526040909120805460018201546002830154600384015494840154600585015460069095015493959294919390919087565b604080519788526020880196909652948601939093526060850191909152608084015260a083015260c082015260e001610354565b610322610657366004613080565b6112f5565b61032261066a3660046130ab565b611438565b61034a61067d366004612fc9565b611570565b610322610690366004612fc9565b611615565b6106c46106a3366004612fc9565b60056020526000908152604090208054600182015460029092015490919083565b60408051938452602084019290925290820152606001610354565b6103226106ed366004612fc9565b6117ef565b61034a60075481565b610322610709366004613080565b611859565b61032261071c3660046130ff565b61197e565b61032261072f366004613040565b6119a5565b61034a610742366004612fc9565b611a35565b61075a61075536600461313b565b611a72565b60408051928352602083019190915201610354565b61034a60035481565b6103af6107863660046130ff565b60006020819052908152604090205473ffffffffffffffffffffffffffffffffffffffff1681565b6103226107bc366004613008565b611b94565b6103af7f000000000000000000000000000000000000000000000000000000000000000081565b6103226107f6366004613080565b611d15565b61034a610809366004612fc9565b611f0b565b61032261081c3660046130ff565b611f39565b61032261082f366004612fc9565b611feb565b610322610842366004613080565b61208e565b6040517fb4ed0b6d000000000000000000000000000000000000000000000000000000008152600481018290527f000000000000000000000000000000000000000000000000000000000000000073ffffffffffffffffffffffffffffffffffffffff169063b4ed0b6d9060240160206040518083038186803b1580156108cd57600080fd5b505afa1580156108e1573d6000803e3d6000fd5b505050506040513d601f19601f820116820180604052508101906109059190612fec565b60009182526020829052604090912080547fffffffffffffffffffffffff00000000000000000000000000000000000000001673ffffffffffffffffffffffffffffffffffffffff909216919091179055565b73ffffffffffffffffffffffffffffffffffffffff8216600090815260086020908152604080832033808552925290912090610999908490839085906122a0565b80546109e55773ffffffffffffffffffffffffffffffffffffffff8316600090815260086020908152604080832033845290915281208181556001810182905560028101829055600301555b6109f08333846123ad565b6109fb833384612584565b505050565b73ffffffffffffffffffffffffffffffffffffffff81166000908152600560205260408120610a2f81426125dd565b9150505b919050565b73ffffffffffffffffffffffffffffffffffffffff82166000908152600c602052604090205460ff16610acc576040517f08c379a000000000000000000000000000000000000000000000000000000000815260206004820152601360248201527f4e6f7420617070726f766564206973737565720000000000000000000000000060448201526064015b60405180910390fd5b610ad782338361261e565b610ae28233836126ea565b610aed82338361276a565b5050565b3360009081526001602090815260408083206003845290915290205460ff16610b76576040517f08c379a000000000000000000000000000000000000000000000000000000000815260206004820152601560248201527f4e6f7420617070726f76656420626f72726f77657200000000000000000000006044820152606401610ac3565b73ffffffffffffffffffffffffffffffffffffffff821660009081526004602052604081206001018054839290610bae9084906131ca565b90915550505050565b33610bc06127ba565b73ffffffffffffffffffffffffffffffffffffffff161480610bfe575033610be661285f565b73ffffffffffffffffffffffffffffffffffffffff16145b610c64576040517f08c379a000000000000000000000000000000000000000000000000000000000815260206004820152601e60248201527f526f6c65733a2063616c6c6572206973206e6f7420746865206f776e657200006044820152606401610ac3565b600755565b6040517f93552a3d0000000000000000000000000000000000000000000000000000000081526004810183905273ffffffffffffffffffffffffffffffffffffffff82811660248301527f000000000000000000000000000000000000000000000000000000000000000016906393552a3d9060440160206040518083038186803b158015610cf757600080fd5b505afa158015610d0b573d6000803e3d6000fd5b505050506040513d601f19601f82011682018060405250810190610d2f91906130df565b73ffffffffffffffffffffffffffffffffffffffff9190911660009081526001602090815260408083209483529390529190912080547fffffffffffffffffffffffffffffffffffffffffffffffffffffffffffffff0016911515919091179055565b73ffffffffffffffffffffffffffffffffffffffff81166000908152600560205260408120610dc0816128dd565b5492915050565b33610dd06127ba565b73ffffffffffffffffffffffffffffffffffffffff161480610e0e575033610df661285f565b73ffffffffffffffffffffffffffffffffffffffff16145b610e74576040517f08c379a000000000000000000000000000000000000000000000000000000000815260206004820152601e60248201527f526f6c65733a2063616c6c6572206973206e6f7420746865206f776e657200006044820152606401610ac3565b600355565b610e838182611b94565b50565b336000908152600160209081526040808320600b845290915290205460ff16610f0b576040517f08c379a000000000000000000000000000000000000000000000000000000000815260206004820152601660248201527f4e6f7420616e20617070726f766564206c656e646572000000000000000000006044820152606401610ac3565b73ffffffffffffffffffffffffffffffffffffffff82166000908152600c602052604090205460ff16610f9a576040517f08c379a000000000000000000000000000000000000000000000000000000000815260206004820152601360248201527f4e6f7420617070726f76656420697373756572000000000000000000000000006044820152606401610ac3565b73ffffffffffffffffffffffffffffffffffffffff82166000908152600460205260409020610fc98183612911565b73ffffffffffffffffffffffffffffffffffffffff83166000908152600660205260409020610ffc90849061025861292e565b50505050565b73ffffffffffffffffffffffffffffffffffffffff808316600081815260086020908152604080832094861683529381528382206001810154938352600690915292812090929190839061105690426125dd565b9050811561107557825461106b908284612a61565b9350505050611083565b5050549050611083565b5050505b92915050565b73ffffffffffffffffffffffffffffffffffffffff8116600090815260066020526040812061108390612a80565b73ffffffffffffffffffffffffffffffffffffffff8216600090815260056020526040812081906110e890426125dd565b90506110f5858285612a61565b95945050505050565b336111076127ba565b73ffffffffffffffffffffffffffffffffffffffff16148061114557503361112d61285f565b73ffffffffffffffffffffffffffffffffffffffff16145b8061116b57503360009081526001602090815260408083206009845290915290205460ff165b6111f7576040517f08c379a000000000000000000000000000000000000000000000000000000000815260206004820152603960248201527f43616c6c6572206973206e6f7420746865206f776e65722c206578656375746f60448201527f72206f7220617574686f72697a656420616374697661746f72000000000000006064820152608401610ac3565b73ffffffffffffffffffffffffffffffffffffffff166000908152600c6020526040902080547fffffffffffffffffffffffffffffffffffffffffffffffffffffffffffffff00169055565b3361124c6127ba565b73ffffffffffffffffffffffffffffffffffffffff16148061128a57503361127261285f565b73ffffffffffffffffffffffffffffffffffffffff16145b6112f0576040517f08c379a000000000000000000000000000000000000000000000000000000000815260206004820152601e60248201527f526f6c65733a2063616c6c6572206973206e6f7420746865206f776e657200006044820152606401610ac3565b600955565b336000908152600160209081526040808320600b845290915290205460ff1661137a576040517f08c379a000000000000000000000000000000000000000000000000000000000815260206004820152601660248201527f4e6f7420616e20617070726f766564206c656e646572000000000000000000006044820152606401610ac3565b73ffffffffffffffffffffffffffffffffffffffff82166000908152600c602052604090205460ff16611409576040517f08c379a000000000000000000000000000000000000000000000000000000000815260206004820152601360248201527f4e6f7420617070726f76656420697373756572000000000000000000000000006044820152606401610ac3565b73ffffffffffffffffffffffffffffffffffffffff82166000908152600460205260409020610fc98183612ae0565b336114416127ba565b73ffffffffffffffffffffffffffffffffffffffff16148061147f57503361146761285f565b73ffffffffffffffffffffffffffffffffffffffff16145b806114a557503360009081526001602090815260408083206009845290915290205460ff165b611531576040517f08c379a000000000000000000000000000000000000000000000000000000000815260206004820152603960248201527f43616c6c6572206973206e6f7420746865206f776e65722c206578656375746f60448201527f72206f7220617574686f72697a656420616374697661746f72000000000000006064820152608401610ac3565b73ffffffffffffffffffffffffffffffffffffffff90921660009081526004602081905260409091206005810193909355600683019190915542910155565b73ffffffffffffffffffffffffffffffffffffffff8116600090815260046020526040812060058101544211806115ae575080600501548160040154115b156115bd576000915050610a33565b6000816004015482600501546115d391906131ca565b82549091506115e390829061318d565b6115ee906001613161565b60068301546116029064496cebb80061318d565b61160c9190613179565b92505050610a33565b3361161e6127ba565b73ffffffffffffffffffffffffffffffffffffffff16148061165c57503361164461285f565b73ffffffffffffffffffffffffffffffffffffffff16145b8061168257503360009081526001602090815260408083206009845290915290205460ff165b61170e576040517f08c379a000000000000000000000000000000000000000000000000000000000815260206004820152603960248201527f43616c6c6572206973206e6f7420746865206f776e65722c206578656375746f60448201527f72206f7220617574686f72697a656420616374697661746f72000000000000006064820152608401610ac3565b73ffffffffffffffffffffffffffffffffffffffff8116600090815260056020526040902080541561179c576040517f08c379a000000000000000000000000000000000000000000000000000000000815260206004820152601360248201527f646f6e27742072652d696e697469616c697a65000000000000000000000000006044820152606401610ac3565b6601000000000000808255426001830155612238906103e8906117c19060199061318d565b6117cb9190613179565b6117d59190613179565b6117e6906601000000000000613161565b60029091015550565b73ffffffffffffffffffffffffffffffffffffffff8116600090815260046020526040902061181d81612afd565b73ffffffffffffffffffffffffffffffffffffffff82166000908152600860209081526040808320338085529252909120610aed918390612be2565b336118626127ba565b73ffffffffffffffffffffffffffffffffffffffff1614806118a057503361188861285f565b73ffffffffffffffffffffffffffffffffffffffff16145b806118c657503360009081526001602090815260408083206009845290915290205460ff165b611952576040517f08c379a000000000000000000000000000000000000000000000000000000000815260206004820152603960248201527f43616c6c6572206973206e6f7420746865206f776e65722c206578656375746f60448201527f72206f7220617574686f72697a656420616374697661746f72000000000000006064820152608401610ac3565b73ffffffffffffffffffffffffffffffffffffffff909116600090815260046020526040902060020155565b336000908152600b60205260408120805483929061199d908490613161565b909155505050565b336000908152600160209081526040808320600b845290915290205460ff16611a2a576040517f08c379a000000000000000000000000000000000000000000000000000000000815260206004820152601660248201527f4e6f7420616e20617070726f766564206c656e646572000000000000000000006044820152606401610ac3565b6109fb8383836126ea565b73ffffffffffffffffffffffffffffffffffffffff81166000908152600660205260408120611a6890839061025861292e565b6002015492915050565b33600090815260016020908152604080832060038452909152812054819060ff16611af9576040517f08c379a000000000000000000000000000000000000000000000000000000000815260206004820152601160248201527f4e6f7420617070726f7665642063616c6c0000000000000000000000000000006044820152606401610ac3565b73ffffffffffffffffffffffffffffffffffffffff84166000908152600560205260409020611b27816128dd565b80549150611b36868386612a61565b92506000611b4487856131ca565b73ffffffffffffffffffffffffffffffffffffffff871660009081526004602052604081206001810180549394509092849290611b82908490613161565b92505081905550505050935093915050565b33611b9d6127ba565b73ffffffffffffffffffffffffffffffffffffffff161480611bdb575033611bc361285f565b73ffffffffffffffffffffffffffffffffffffffff16145b80611c0157503360009081526001602090815260408083206009845290915290205460ff165b611c8d576040517f08c379a000000000000000000000000000000000000000000000000000000000815260206004820152603960248201527f43616c6c6572206973206e6f7420746865206f776e65722c206578656375746f60448201527f72206f7220617574686f72697a656420616374697661746f72000000000000006064820152608401610ac3565b73ffffffffffffffffffffffffffffffffffffffff9182166000908152600c6020908152604080832080547fffffffffffffffffffffffffffffffffffffffffffffffffffffffffffffff00166001179055600a90915290208054919092167fffffffffffffffffffffffff0000000000000000000000000000000000000000909116179055565b3360009081526001602090815260408083206003845290915290205460ff16611d9a576040517f08c379a000000000000000000000000000000000000000000000000000000000815260206004820152601560248201527f4e6f7420617070726f76656420626f72726f77657200000000000000000000006044820152606401610ac3565b73ffffffffffffffffffffffffffffffffffffffff82166000908152600c602052604090205460ff16611e29576040517f08c379a000000000000000000000000000000000000000000000000000000000815260206004820152601360248201527f4e6f7420617070726f76656420697373756572000000000000000000000000006044820152606401610ac3565b73ffffffffffffffffffffffffffffffffffffffff8216600090815260046020526040812060018101805491928492611e63908490613161565b909155505073ffffffffffffffffffffffffffffffffffffffff83166000908152600660205260409020611e9b908490610e1061292e565b506001810154815410156109fb576040517f08c379a000000000000000000000000000000000000000000000000000000000815260206004820152601460248201527f496e73756666696369656e74206c656e64696e670000000000000000000000006044820152606401610ac3565b73ffffffffffffffffffffffffffffffffffffffff8116600090815260056020526040812061108390612a80565b33611f426127ba565b73ffffffffffffffffffffffffffffffffffffffff161480611f80575033611f6861285f565b73ffffffffffffffffffffffffffffffffffffffff16145b611fe6576040517f08c379a000000000000000000000000000000000000000000000000000000000815260206004820152601e60248201527f526f6c65733a2063616c6c6572206973206e6f7420746865206f776e657200006044820152606401610ac3565b600255565b73ffffffffffffffffffffffffffffffffffffffff811660009081526008602090815260408083203380855292529091208054909161202f908490849084906122a0565b61203a8333836123ad565b73ffffffffffffffffffffffffffffffffffffffff8316600090815260086020908152604080832033808552925282208281556001810183905560028101839055600301919091556109fb90849083612584565b336120976127ba565b73ffffffffffffffffffffffffffffffffffffffff1614806120d55750336120bd61285f565b73ffffffffffffffffffffffffffffffffffffffff16145b806120fb57503360009081526001602090815260408083206009845290915290205460ff165b612187576040517f08c379a000000000000000000000000000000000000000000000000000000000815260206004820152603960248201527f43616c6c6572206973206e6f7420746865206f776e65722c206578656375746f60448201527f72206f7220617574686f72697a656420616374697661746f72000000000000006064820152608401610ac3565b73ffffffffffffffffffffffffffffffffffffffff82166000908152600660205260409020805461225057600061223860646121ca85660100000000000061318d565b6121d49190613179565b6121de9190613179565b6121ef906601000000000000613161565b604080516060810182526601000000000000815242602080830191825282840194855273ffffffffffffffffffffffffffffffffffffffff8916600090815260069091529290922090518155905160018201559051600290910155506109fb565b600061225f848361025861292e565b905061223860646122708582613161565b61228190660100000000000061318d565b61228b9190613179565b6122959190613179565b600290910155505050565b73ffffffffffffffffffffffffffffffffffffffff841660009081526004602052604090206122cf9083612911565b6122da848483612d32565b6000610e108460020154426122ef91906131ca565b6122f9919061321a565b905080600754101561238d576040517f08c379a000000000000000000000000000000000000000000000000000000000815260206004820152603f60248201527f5472696564207769746864726177696e67206f7574736964652073756273637260448201527f697074696f6e2063616e63656c6c6174696f6e2074696d652077696e646f77006064820152608401610ac3565b828460000160008282546123a191906131ca565b90915550505050505050565b73ffffffffffffffffffffffffffffffffffffffff83166000908152600b602052604090205480158015906123e25750600082115b1561247b5773ffffffffffffffffffffffffffffffffffffffff841660009081526004602052604081205490816124198185612df2565b612423908661318d565b61242d9190613179565b905061243981856131ca565b73ffffffffffffffffffffffffffffffffffffffff87166000908152600b60205260408120805492965083929091906124739084906131ca565b909155505050505b73ffffffffffffffffffffffffffffffffffffffff8085166000908152600a6020526040902054166124eb606560009081526020527f4a7203f705e51df4a56139a9b86b4a0970bed7ab7a3446eaffe2289989c1645c5473ffffffffffffffffffffffffffffffffffffffff1690565b6040517fd9caed1200000000000000000000000000000000000000000000000000000000815273ffffffffffffffffffffffffffffffffffffffff8381166004830152868116602483015260448201869052919091169063d9caed1290606401600060405180830381600087803b15801561256557600080fd5b505af1158015612579573d6000803e3d6000fd5b505050505050505050565b6040805173ffffffffffffffffffffffffffffffffffffffff8581168252602082018490528416917f3397b60e3ca1e9c0c75a033d62ab8731e9b2937c0690ae5d7f1bd37886b19d7d91015b60405180910390a2505050565b6000808360010154836125f091906131ca565b905061025881111561260e576126068482612e0a565b915050611083565b50508154611083565b5092915050565b7f4a7203f705e51df4a56139a9b86b4a0970bed7ab7a3446eaffe2289989c1645c5473ffffffffffffffffffffffffffffffffffffffff8481166000908152600a60205260408082205481517fb3db428b00000000000000000000000000000000000000000000000000000000815287851660048201529084166024820152604481018690529051929093169263b3db428b926064808301939282900301818387803b1580156126cd57600080fd5b505af11580156126e1573d6000803e3d6000fd5b50505050505050565b73ffffffffffffffffffffffffffffffffffffffff8084166000818152600860209081526040808320948716835293815283822092825260049052919091206127338184612ae0565b61273e858386612d32565b815461275657612750610e104261321a565b60028301555b828260000160008282546123a19190613161565b6040805173ffffffffffffffffffffffffffffffffffffffff8581168252602082018490528416917f8ec70c9430377a4bba035133e27a5b0f3b9951bc080833f6832bcbbb70a96dba91016125d0565b60007f000000000000000000000000000000000000000000000000000000000000000073ffffffffffffffffffffffffffffffffffffffff16638da5cb5b6040518163ffffffff1660e01b815260040160206040518083038186803b15801561282257600080fd5b505afa158015612836573d6000803e3d6000fd5b505050506040513d601f19601f8201168201806040525081019061285a9190612fec565b905090565b60007f000000000000000000000000000000000000000000000000000000000000000073ffffffffffffffffffffffffffffffffffffffff1663c34c08e56040518163ffffffff1660e01b8152600401602060405180830381600087803b1580156128c957600080fd5b505af1158015612836573d6000803e3d6000fd5b60008160010154426128ef91906131ca565b9050610258811115610aed576129058282612e0a565b82554260018301555050565b61291a82612afd565b80826000016000828254610bae91906131ca565b60018201546000908161294182426131ca565b905083811115612a575773ffffffffffffffffffffffffffffffffffffffff8616600090815260056020526040902061297a8683612e0a565b865573ffffffffffffffffffffffffffffffffffffffff87166000908152600460205260409020805460018201546129b29190612f22565b60028801554260018801556129c6826128dd565b612a4c6122386103e86129e16601000000000000601961318d565b6129eb9190613179565b6129f59190613179565b612a06906601000000000000613161565b606466010000000000008a60020154612a1f91906131ca565b600954612a2c919061318d565b612a369190613179565b612a47906601000000000000613161565b612fb1565b826002018190555050505b5092949350505050565b600081612a6e848661318d565b612a789190613179565b949350505050565b600281015460009081610e10612a9f660100000000000061271061318d565b612aab8461271061318d565b612ab591906131ca565b612ac3906301e1338061318d565b612acd9190613179565b9050612a78660100000000000082613179565b612ae982612afd565b80826000016000828254610bae9190613161565b6000612b0d826005015442612df2565b905060008260060154118015612b265750816004015481115b15610aed576000826004015482612b3d91906131ca565b90506000612b7b846006015485600401548660050154612b5d91906131ca565b6006870154612b6c908661318d565b612b769190613179565b612df2565b905080846006016000828254612b9191906131ca565b90915550508354612ba3906001613161565b612bb466010000000000008361318d565b612bbe9190613179565b846003016000828254612bd19190613161565b909155505042600485015550505050565b600083600301548360030154612bf891906131ca565b90508015610ffc578354600090660100000000000090612c18908461318d565b612c229190613179565b9050612c6c606560009081526020527f4a7203f705e51df4a56139a9b86b4a0970bed7ab7a3446eaffe2289989c1645c5473ffffffffffffffffffffffffffffffffffffffff1690565b6040517fd9caed1200000000000000000000000000000000000000000000000000000000815273ffffffffffffffffffffffffffffffffffffffff7f000000000000000000000000000000000000000000000000000000000000000081166004830152858116602483015260448201849052919091169063d9caed1290606401600060405180830381600087803b158015612d0657600080fd5b505af1158015612d1a573d6000803e3d6000fd5b50505050818560030160008282546123a19190613161565b600182015473ffffffffffffffffffffffffffffffffffffffff84166000908152600660205260408120612d6a90869061025861292e565b73ffffffffffffffffffffffffffffffffffffffff861660009081526004602052604090209091508215612dd757612da3858286612be2565b84548254612db390829086612a61565b808755600090612dc49083906131ca565b9050612dd08382612ae0565b5050612de2565b600380820154908601555b5054600190930192909255505050565b600081831115612e03575080611083565b5081611083565b600080612e19610e108461321a565b9050612e2e6601000000000000610e1061318d565b8166010000000000008660020154612e4691906131ca565b8654612e52919061318d565b612e5c919061318d565b612e669190613179565b8454612e729190613161565b91506000612e82610e1085613179565b90508015612f1a578260005b8083118015612e9d5750806004115b15612ed8576601000000000000876002015486612eba919061318d565b612ec49190613179565b945080612ed0816131e1565b915050612e8e565b50600482111561107f576004612eee81846131ca565b612ef883876131ca565b612f02919061318d565b612f0c9190613179565b612f169085613161565b9350505b505092915050565b6601000000000000600083612f38576000612f4e565b83612f4484606461318d565b612f4e9190613179565b90506052811015612f7757600254612f66908261318d565b612f709083613161565b9150612617565b600354612f856052836131ca565b612f8f919061318d565b600254612f9d90605261318d565b612fa79190613161565b612a789083613161565b600081831115612fc2575081611083565b5080611083565b600060208284031215612fda578081fd5b8135612fe58161328c565b9392505050565b600060208284031215612ffd578081fd5b8151612fe58161328c565b6000806040838503121561301a578081fd5b82356130258161328c565b915060208301356130358161328c565b809150509250929050565b600080600060608486031215613054578081fd5b833561305f8161328c565b9250602084013561306f8161328c565b929592945050506040919091013590565b60008060408385031215613092578182fd5b823561309d8161328c565b946020939093013593505050565b6000806000606084860312156130bf578283fd5b83356130ca8161328c565b95602085013595506040909401359392505050565b6000602082840312156130f0578081fd5b81518015158114612fe5578182fd5b600060208284031215613110578081fd5b5035919050565b60008060408385031215613129578182fd5b8235915060208301356130358161328c565b60008060006060848603121561314f578283fd5b83359250602084013561306f8161328c565b600082198211156131745761317461322e565b500190565b6000826131885761318861325d565b500490565b6000817fffffffffffffffffffffffffffffffffffffffffffffffffffffffffffffffff04831182151516156131c5576131c561322e565b500290565b6000828210156131dc576131dc61322e565b500390565b60007fffffffffffffffffffffffffffffffffffffffffffffffffffffffffffffffff8214156132135761321361322e565b5060010190565b6000826132295761322961325d565b500690565b7f4e487b7100000000000000000000000000000000000000000000000000000000600052601160045260246000fd5b7f4e487b7100000000000000000000000000000000000000000000000000000000600052601260045260246000fd5b73ffffffffffffffffffffffffffffffffffffffff81168114610e8357600080fdfea2646970667358221220f39c9a5541fe6f55894e0f38224e8a04c28a83a870e26a415f439ede94d0a57564736f6c63430008030033",
  "devdoc": {
    "kind": "dev",
    "methods": {
      "applyBorrowInterest(uint256,address,uint256)": {
        "details": "how much interest has accrued to a borrowed balance over time"
      },
      "buyHourlyBondSubscription(address,uint256)": {
        "details": "buy hourly bond subscription"
      },
      "makeFallbackBond(address,address,uint256)": {
        "details": "In a liquidity crunch make a fallback bond until liquidity is good again"
      },
      "payOff(address,uint256)": {
        "details": "gets called by router if loan is extinguished"
      },
      "registerBorrow(address,uint256)": {
        "details": "gets called by router to register if a trader borrows issuers"
      },
      "registerLend(address,uint256)": {
        "details": "gets called when external sources provide lending"
      },
      "registerWithdrawal(address,uint256)": {
        "details": "gets called when external sources pay withdraw their bobnd"
      },
      "updateHourlyYield(address)": {
        "details": "updates yield accumulators for both borrowing and lending issuer address represents a token"
      },
      "viewAccumulatedBorrowingYieldFP(address)": {
        "details": "get the borrow yield for a specific issuer/token"
      },
      "viewBorrowAPRPer10k(address)": {
        "details": "get current borrowing interest per 10k for a token / issuer"
      },
      "viewHourlyBondAPRPer10k(address)": {
        "details": "get current lending APR per 10k for a token / issuer"
      },
      "viewWithBorrowInterest(uint256,address,uint256)": {
        "details": "view function to get balance with borrowing interest applied"
      },
      "withdrawHourlyBond(address,uint256)": {
        "details": "withdraw an hour bond"
      }
    },
    "title": "Manage lending for a variety of bond issuers",
    "version": 1
  },
  "userdoc": {
    "kind": "user",
    "methods": {
      "activateIssuer(address)": {
        "notice": "Make a issuer available for protocol"
      },
      "activateIssuer(address,address)": {
        "notice": "Make issuer != token available for protocol (isol. margin)"
      },
      "activeIssuers(address)": {
        "notice": "map of available issuers"
      },
      "closeHourlyBondAccount(address)": {
        "notice": "Shut down hourly bond account for `issuer`"
      },
      "deactivateIssuer(address)": {
        "notice": "Remove a issuer from trading availability"
      },
      "haircuts(address)": {
        "notice": "In case of shortfall, adjust debt"
      },
      "issuerTokens(address)": {
        "notice": "mapping issuers to tokens (in crossmargin, the issuers are tokens  themselves)"
      },
      "setHourlyYieldAPR(address,uint256)": {
        "notice": "Set hourly yield APR for issuer"
      },
      "setLendingCap(address,uint256)": {
        "notice": "Set lending cap"
      },
      "setWithdrawalWindow(uint256)": {
        "notice": "Set withdrawal window"
      }
    },
    "version": 1
  },
  "storageLayout": {
    "storage": [
      {
        "astId": 9489,
        "contract": "contracts/Lending.sol:Lending",
        "label": "mainCharacterCache",
        "offset": 0,
        "slot": "0",
        "type": "t_mapping(t_uint256,t_address)"
      },
      {
        "astId": 9495,
        "contract": "contracts/Lending.sol:Lending",
        "label": "roleCache",
        "offset": 0,
        "slot": "1",
        "type": "t_mapping(t_address,t_mapping(t_uint256,t_bool))"
      },
      {
        "astId": 1567,
        "contract": "contracts/Lending.sol:Lending",
        "label": "normalRatePerPercent",
        "offset": 0,
        "slot": "2",
        "type": "t_uint256"
      },
      {
        "astId": 1585,
        "contract": "contracts/Lending.sol:Lending",
        "label": "highRatePerPercent",
        "offset": 0,
        "slot": "3",
        "type": "t_uint256"
      },
      {
        "astId": 1612,
        "contract": "contracts/Lending.sol:Lending",
        "label": "lendingMeta",
        "offset": 0,
        "slot": "4",
        "type": "t_mapping(t_address,t_struct(LendingMetadata)1607_storage)"
      },
      {
        "astId": 1618,
        "contract": "contracts/Lending.sol:Lending",
        "label": "borrowYieldAccumulators",
        "offset": 0,
        "slot": "5",
        "type": "t_mapping(t_address,t_struct(YieldAccumulator)1592_storage)"
      },
      {
        "astId": 5468,
        "contract": "contracts/Lending.sol:Lending",
        "label": "hourlyBondYieldAccumulators",
        "offset": 0,
        "slot": "6",
        "type": "t_mapping(t_address,t_struct(YieldAccumulator)1592_storage)"
      },
      {
        "astId": 5474,
        "contract": "contracts/Lending.sol:Lending",
        "label": "withdrawalWindow",
        "offset": 0,
        "slot": "7",
        "type": "t_uint256"
      },
      {
        "astId": 5484,
        "contract": "contracts/Lending.sol:Lending",
        "label": "hourlyBondAccounts",
        "offset": 0,
        "slot": "8",
        "type": "t_mapping(t_address,t_mapping(t_address,t_struct(HourlyBond)5460_storage))"
      },
      {
        "astId": 5487,
        "contract": "contracts/Lending.sol:Lending",
        "label": "borrowingFactorPercent",
        "offset": 0,
        "slot": "9",
        "type": "t_uint256"
      },
      {
        "astId": 6359,
        "contract": "contracts/Lending.sol:Lending",
        "label": "issuerTokens",
        "offset": 0,
        "slot": "10",
        "type": "t_mapping(t_address,t_address)"
      },
      {
        "astId": 6364,
        "contract": "contracts/Lending.sol:Lending",
        "label": "haircuts",
        "offset": 0,
        "slot": "11",
        "type": "t_mapping(t_address,t_uint256)"
      },
      {
        "astId": 6369,
        "contract": "contracts/Lending.sol:Lending",
        "label": "activeIssuers",
        "offset": 0,
        "slot": "12",
        "type": "t_mapping(t_address,t_bool)"
      }
    ],
    "types": {
      "t_address": {
        "encoding": "inplace",
        "label": "address",
        "numberOfBytes": "20"
      },
      "t_bool": {
        "encoding": "inplace",
        "label": "bool",
        "numberOfBytes": "1"
      },
      "t_mapping(t_address,t_address)": {
        "encoding": "mapping",
        "key": "t_address",
        "label": "mapping(address => address)",
        "numberOfBytes": "32",
        "value": "t_address"
      },
      "t_mapping(t_address,t_bool)": {
        "encoding": "mapping",
        "key": "t_address",
        "label": "mapping(address => bool)",
        "numberOfBytes": "32",
        "value": "t_bool"
      },
      "t_mapping(t_address,t_mapping(t_address,t_struct(HourlyBond)5460_storage))": {
        "encoding": "mapping",
        "key": "t_address",
        "label": "mapping(address => mapping(address => struct HourlyBond))",
        "numberOfBytes": "32",
        "value": "t_mapping(t_address,t_struct(HourlyBond)5460_storage)"
      },
      "t_mapping(t_address,t_mapping(t_uint256,t_bool))": {
        "encoding": "mapping",
        "key": "t_address",
        "label": "mapping(address => mapping(uint256 => bool))",
        "numberOfBytes": "32",
        "value": "t_mapping(t_uint256,t_bool)"
      },
      "t_mapping(t_address,t_struct(HourlyBond)5460_storage)": {
        "encoding": "mapping",
        "key": "t_address",
        "label": "mapping(address => struct HourlyBond)",
        "numberOfBytes": "32",
        "value": "t_struct(HourlyBond)5460_storage"
      },
      "t_mapping(t_address,t_struct(LendingMetadata)1607_storage)": {
        "encoding": "mapping",
        "key": "t_address",
        "label": "mapping(address => struct BaseLending.LendingMetadata)",
        "numberOfBytes": "32",
        "value": "t_struct(LendingMetadata)1607_storage"
      },
      "t_mapping(t_address,t_struct(YieldAccumulator)1592_storage)": {
        "encoding": "mapping",
        "key": "t_address",
        "label": "mapping(address => struct BaseLending.YieldAccumulator)",
        "numberOfBytes": "32",
        "value": "t_struct(YieldAccumulator)1592_storage"
      },
      "t_mapping(t_address,t_uint256)": {
        "encoding": "mapping",
        "key": "t_address",
        "label": "mapping(address => uint256)",
        "numberOfBytes": "32",
        "value": "t_uint256"
      },
      "t_mapping(t_uint256,t_address)": {
        "encoding": "mapping",
        "key": "t_uint256",
        "label": "mapping(uint256 => address)",
        "numberOfBytes": "32",
        "value": "t_address"
      },
      "t_mapping(t_uint256,t_bool)": {
        "encoding": "mapping",
        "key": "t_uint256",
        "label": "mapping(uint256 => bool)",
        "numberOfBytes": "32",
        "value": "t_bool"
      },
      "t_struct(HourlyBond)5460_storage": {
        "encoding": "inplace",
        "label": "struct HourlyBond",
        "members": [
          {
            "astId": 5453,
            "contract": "contracts/Lending.sol:Lending",
            "label": "amount",
            "offset": 0,
            "slot": "0",
            "type": "t_uint256"
          },
          {
            "astId": 5455,
            "contract": "contracts/Lending.sol:Lending",
            "label": "yieldQuotientFP",
            "offset": 0,
            "slot": "1",
            "type": "t_uint256"
          },
          {
            "astId": 5457,
            "contract": "contracts/Lending.sol:Lending",
            "label": "moduloHour",
            "offset": 0,
            "slot": "2",
            "type": "t_uint256"
          },
          {
            "astId": 5459,
            "contract": "contracts/Lending.sol:Lending",
            "label": "incentiveAllocationStart",
            "offset": 0,
            "slot": "3",
            "type": "t_uint256"
          }
        ],
        "numberOfBytes": "128"
      },
      "t_struct(LendingMetadata)1607_storage": {
        "encoding": "inplace",
        "label": "struct BaseLending.LendingMetadata",
        "members": [
          {
            "astId": 1594,
            "contract": "contracts/Lending.sol:Lending",
            "label": "totalLending",
            "offset": 0,
            "slot": "0",
            "type": "t_uint256"
          },
          {
            "astId": 1596,
            "contract": "contracts/Lending.sol:Lending",
            "label": "totalBorrowed",
            "offset": 0,
            "slot": "1",
            "type": "t_uint256"
          },
          {
            "astId": 1598,
            "contract": "contracts/Lending.sol:Lending",
            "label": "lendingCap",
            "offset": 0,
            "slot": "2",
            "type": "t_uint256"
          },
          {
            "astId": 1600,
            "contract": "contracts/Lending.sol:Lending",
            "label": "cumulIncentiveAllocationFP",
            "offset": 0,
            "slot": "3",
            "type": "t_uint256"
          },
          {
            "astId": 1602,
            "contract": "contracts/Lending.sol:Lending",
            "label": "incentiveLastUpdated",
            "offset": 0,
            "slot": "4",
            "type": "t_uint256"
          },
          {
            "astId": 1604,
            "contract": "contracts/Lending.sol:Lending",
            "label": "incentiveEnd",
            "offset": 0,
            "slot": "5",
            "type": "t_uint256"
          },
          {
            "astId": 1606,
            "contract": "contracts/Lending.sol:Lending",
            "label": "incentiveTarget",
            "offset": 0,
            "slot": "6",
            "type": "t_uint256"
          }
        ],
        "numberOfBytes": "224"
      },
      "t_struct(YieldAccumulator)1592_storage": {
        "encoding": "inplace",
        "label": "struct BaseLending.YieldAccumulator",
        "members": [
          {
            "astId": 1587,
            "contract": "contracts/Lending.sol:Lending",
            "label": "accumulatorFP",
            "offset": 0,
            "slot": "0",
            "type": "t_uint256"
          },
          {
            "astId": 1589,
            "contract": "contracts/Lending.sol:Lending",
            "label": "lastUpdated",
            "offset": 0,
            "slot": "1",
            "type": "t_uint256"
          },
          {
            "astId": 1591,
            "contract": "contracts/Lending.sol:Lending",
            "label": "hourlyYieldFP",
            "offset": 0,
            "slot": "2",
            "type": "t_uint256"
          }
        ],
        "numberOfBytes": "96"
      },
      "t_uint256": {
        "encoding": "inplace",
        "label": "uint256",
        "numberOfBytes": "32"
      }
    }
  }
}