{
  "address": "0xc4D44FA9dcb1EA1bf9dc927bB2658d869f27B739",
  "abi": [
    {
      "inputs": [
        {
          "internalType": "address",
          "name": "_MFI",
          "type": "address"
        },
        {
          "internalType": "address",
          "name": "LiquidityToken",
          "type": "address"
        },
        {
          "internalType": "address",
          "name": "_roles",
          "type": "address"
        }
      ],
      "stateMutability": "nonpayable",
      "type": "constructor"
    },
    {
      "inputs": [],
      "name": "MFI",
      "outputs": [
        {
          "internalType": "contract IERC20",
          "name": "",
          "type": "address"
        }
      ],
      "stateMutability": "view",
      "type": "function"
    },
    {
      "inputs": [],
      "name": "cumulativeReward",
      "outputs": [
        {
          "internalType": "uint256",
          "name": "",
          "type": "uint256"
        }
      ],
      "stateMutability": "view",
      "type": "function"
    },
    {
      "inputs": [],
      "name": "lastCumulativeUpdateBlock",
      "outputs": [
        {
          "internalType": "uint256",
          "name": "",
          "type": "uint256"
        }
      ],
      "stateMutability": "view",
      "type": "function"
    },
    {
      "inputs": [
        {
          "internalType": "uint256",
          "name": "rewardPerBlock",
          "type": "uint256"
        }
      ],
      "name": "setTotalRewardPerBlock",
      "outputs": [],
      "stateMutability": "nonpayable",
      "type": "function"
    },
    {
      "inputs": [
        {
          "internalType": "uint256",
          "name": "amount",
          "type": "uint256"
        },
        {
          "internalType": "uint256",
          "name": "duration",
          "type": "uint256"
        }
      ],
      "name": "stake",
      "outputs": [],
      "stateMutability": "nonpayable",
      "type": "function"
    },
    {
      "inputs": [
        {
          "internalType": "address",
          "name": "",
          "type": "address"
        }
      ],
      "name": "stakeAccounts",
      "outputs": [
        {
          "internalType": "uint256",
          "name": "stakeAmount",
          "type": "uint256"
        },
        {
          "internalType": "uint256",
          "name": "stakeWeight",
          "type": "uint256"
        },
        {
          "internalType": "uint256",
          "name": "cumulativeStart",
          "type": "uint256"
        },
        {
          "internalType": "uint256",
          "name": "lockEnd",
          "type": "uint256"
        }
      ],
      "stateMutability": "view",
      "type": "function"
    },
    {
      "inputs": [],
      "name": "stakeToken",
      "outputs": [
        {
          "internalType": "contract IERC20",
          "name": "",
          "type": "address"
        }
      ],
      "stateMutability": "view",
      "type": "function"
    },
    {
      "inputs": [],
      "name": "totalCurrentRewardPerBlock",
      "outputs": [
        {
          "internalType": "uint256",
          "name": "",
          "type": "uint256"
        }
      ],
      "stateMutability": "view",
      "type": "function"
    },
    {
      "inputs": [],
      "name": "totalCurrentWeights",
      "outputs": [
        {
          "internalType": "uint256",
          "name": "",
          "type": "uint256"
        }
      ],
      "stateMutability": "view",
      "type": "function"
    },
    {
      "inputs": [],
      "name": "updateCumulativeReward",
      "outputs": [
        {
          "internalType": "uint256",
          "name": "",
          "type": "uint256"
        }
      ],
      "stateMutability": "nonpayable",
      "type": "function"
    },
    {
      "inputs": [
        {
          "internalType": "address",
          "name": "account",
          "type": "address"
        }
      ],
      "name": "viewRewardAmount",
      "outputs": [
        {
          "internalType": "uint256",
          "name": "",
          "type": "uint256"
        }
      ],
      "stateMutability": "view",
      "type": "function"
    },
    {
      "inputs": [],
      "name": "viewUpdatedCumulativeReward",
      "outputs": [
        {
          "internalType": "uint256",
          "name": "",
          "type": "uint256"
        }
      ],
      "stateMutability": "view",
      "type": "function"
    },
    {
      "inputs": [],
      "name": "withdrawReward",
      "outputs": [],
      "stateMutability": "nonpayable",
      "type": "function"
    },
    {
      "inputs": [
        {
          "internalType": "uint256",
          "name": "amount",
          "type": "uint256"
        }
      ],
      "name": "withdrawStake",
      "outputs": [],
      "stateMutability": "nonpayable",
      "type": "function"
    }
  ],
  "transactionHash": "0xa643b71ee3884b69cf9420cc093136486b02982b48f7297a8d7596ba592cebf6",
  "args": [
    "0x7Bc429a2fA7d71C4693424FDcaB5a2521b9FD343",
    "0x9D640080AF7c81911D87632a7d09Cc4Ab6b133AC",
    "0xa94DDbb3Ba629E637F63F54Bae6724c271ccA48f"
  ],
  "solcInputHash": "145807fe0722963160e7147bca0c6fe9",
  "bytecode": "0x60c060405234801561001057600080fd5b50604051610f61380380610f6183398101604081905261002f9161008b565b606092831b6001600160601b031990811660a0529190921b16608052600080546001600160a01b0319166001600160a01b039092169190911790556100cd565b80516001600160a01b038116811461008657600080fd5b919050565b60008060006060848603121561009f578283fd5b6100a88461006f565b92506100b66020850161006f565b91506100c46040850161006f565b90509250925092565b60805160601c60a05160601c610e5461010d6000396000818161022a015281816106c7015261077701526000818161012e01526104a30152610e546000f3fe608060405234801561001057600080fd5b50600436106100ea5760003560e01c8063c1e4db561161008c578063dbe85f7011610066578063dbe85f70146101bc578063e57466fd146101cf578063ed29c12b14610225578063fb3935ee1461024c576100ea565b8063c1e4db56146101a3578063c885bc58146101ac578063c8d65d59146101b4576100ea565b806351ed6a30116100c857806351ed6a30146101295780635fc754b2146101755780636eb2d89a1461017d5780637b0472f014610190576100ea565b806320ef8c06146100ef57806325d5971f1461010b5780634fbfa2fc14610120575b600080fd5b6100f860035481565b6040519081526020015b60405180910390f35b61011e610119366004610c3b565b610255565b005b6100f860055481565b6101507f000000000000000000000000000000000000000000000000000000000000000081565b60405173ffffffffffffffffffffffffffffffffffffffff9091168152602001610102565b6100f8610349565b61011e61018b366004610c3b565b61036c565b61011e61019e366004610c6b565b610489565b6100f860025481565b61011e6105b1565b6100f86105d4565b6100f86101ca366004610be3565b610603565b6102056101dd366004610be3565b6001602081905260009182526040909120805491810154600282015460039092015490919084565b604080519485526020850193909352918301526060820152608001610102565b6101507f000000000000000000000000000000000000000000000000000000000000000081565b6100f860045481565b33600090815260016020526040902060038101544210156102bd5760405162461bcd60e51b815260206004820152601560248201527f5374616b65206973207374696c6c206c6f636b6564000000000000000000000060448201526064015b60405180910390fd5b6102c73382610637565b80546001820154600091906102dc9085610d4a565b6102e69190610d11565b9050808260010160008282546102fc9190610d87565b9250508190555080600460008282546103159190610d87565b909155505081548390839060009061032e908490610d87565b9091555061033c9050610349565b8260020181905550505050565b60006003544311156103655761035d6105d4565b600255436003555b5060025490565b60008054906101000a900473ffffffffffffffffffffffffffffffffffffffff1673ffffffffffffffffffffffffffffffffffffffff16638da5cb5b6040518163ffffffff1660e01b815260040160206040518083038186803b1580156103d257600080fd5b505afa1580156103e6573d6000803e3d6000fd5b505050506040513d601f19601f8201168201806040525081019061040a9190610bff565b73ffffffffffffffffffffffffffffffffffffffff163373ffffffffffffffffffffffffffffffffffffffff16146104845760405162461bcd60e51b815260206004820152600e60248201527f4e6f7420617574686f72697a656400000000000000000000000000000000000060448201526064016102b4565b600555565b6104cb73ffffffffffffffffffffffffffffffffffffffff7f0000000000000000000000000000000000000000000000000000000000000000163330856107a3565b336000908152600160205260409020805480156104ec576104ec3383610637565b6104f68482610cf9565b825560006276a7008410156105325762278d0084101561052a5762093a80841015610522576000610525565b60015b61052d565b60025b610535565b60035b60ff1690506105448582610d4a565b8360010160008282546105579190610cf9565b9091555061056790508582610d4a565b600460008282546105789190610cf9565b909155506105869050610349565b60028401556105a26105988542610cf9565b8460030154610885565b83600301819055505050505050565b336000818152600160205260409020906105cb9082610637565b60028054910155565b6000600554600354436105e79190610d87565b6105f19190610d4a565b6002546105fe9190610cf9565b905090565b73ffffffffffffffffffffffffffffffffffffffff811660009081526001602052604081206106319061089c565b92915050565b600081600201541161068b5760405162461bcd60e51b815260206004820152601260248201527f4163636f756e74206e6f7420616374697665000000000000000000000000000060448201526064016102b4565b600061075b6106998361089c565b6040517f70a082310000000000000000000000000000000000000000000000000000000081523060048201527f000000000000000000000000000000000000000000000000000000000000000073ffffffffffffffffffffffffffffffffffffffff16906370a082319060240160206040518083038186803b15801561071e57600080fd5b505afa158015610732573d6000803e3d6000fd5b505050506040513d601f19601f820116820180604052508101906107569190610c53565b6108e7565b905061079e73ffffffffffffffffffffffffffffffffffffffff7f00000000000000000000000000000000000000000000000000000000000000001684836108ff565b505050565b60405173ffffffffffffffffffffffffffffffffffffffff8085166024830152831660448201526064810182905261087f9085907f23b872dd00000000000000000000000000000000000000000000000000000000906084015b604080517fffffffffffffffffffffffffffffffffffffffffffffffffffffffffffffffe08184030181529190526020810180517bffffffffffffffffffffffffffffffffffffffffffffffffffffffff167fffffffff0000000000000000000000000000000000000000000000000000000090931692909217909152610955565b50505050565b600081831115610896575081610631565b50919050565b6000806108a76105d4565b905060045460016108b89190610cf9565b600184015460028501546108cc9084610d87565b6108d69190610d4a565b6108e09190610d11565b9392505050565b6000818311156108f8575080610631565b5081610631565b60405173ffffffffffffffffffffffffffffffffffffffff831660248201526044810182905261079e9084907fa9059cbb00000000000000000000000000000000000000000000000000000000906064016107fd565b60006109b7826040518060400160405280602081526020017f5361666545524332303a206c6f772d6c6576656c2063616c6c206661696c65648152508573ffffffffffffffffffffffffffffffffffffffff16610a479092919063ffffffff16565b80519091501561079e57808060200190518101906109d59190610c1b565b61079e5760405162461bcd60e51b815260206004820152602a60248201527f5361666545524332303a204552433230206f7065726174696f6e20646964206e60448201527f6f7420737563636565640000000000000000000000000000000000000000000060648201526084016102b4565b6060610a568484600085610a5e565b949350505050565b606082471015610ad65760405162461bcd60e51b815260206004820152602660248201527f416464726573733a20696e73756666696369656e742062616c616e636520666f60448201527f722063616c6c000000000000000000000000000000000000000000000000000060648201526084016102b4565b843b610b245760405162461bcd60e51b815260206004820152601d60248201527f416464726573733a2063616c6c20746f206e6f6e2d636f6e747261637400000060448201526064016102b4565b6000808673ffffffffffffffffffffffffffffffffffffffff168587604051610b4d9190610c8c565b60006040518083038185875af1925050503d8060008114610b8a576040519150601f19603f3d011682016040523d82523d6000602084013e610b8f565b606091505b5091509150610b9f828286610baa565b979650505050505050565b60608315610bb95750816108e0565b825115610bc95782518084602001fd5b8160405162461bcd60e51b81526004016102b49190610ca8565b600060208284031215610bf4578081fd5b81356108e081610df9565b600060208284031215610c10578081fd5b81516108e081610df9565b600060208284031215610c2c578081fd5b815180151581146108e0578182fd5b600060208284031215610c4c578081fd5b5035919050565b600060208284031215610c64578081fd5b5051919050565b60008060408385031215610c7d578081fd5b50508035926020909101359150565b60008251610c9e818460208701610d9e565b9190910192915050565b6000602082528251806020840152610cc7816040850160208701610d9e565b601f017fffffffffffffffffffffffffffffffffffffffffffffffffffffffffffffffe0169190910160400192915050565b60008219821115610d0c57610d0c610dca565b500190565b600082610d45577f4e487b710000000000000000000000000000000000000000000000000000000081526012600452602481fd5b500490565b6000817fffffffffffffffffffffffffffffffffffffffffffffffffffffffffffffffff0483118215151615610d8257610d82610dca565b500290565b600082821015610d9957610d99610dca565b500390565b60005b83811015610db9578181015183820152602001610da1565b8381111561087f5750506000910152565b7f4e487b7100000000000000000000000000000000000000000000000000000000600052601160045260246000fd5b73ffffffffffffffffffffffffffffffffffffffff81168114610e1b57600080fd5b5056fea264697066735822122022d25165f1424c5badabd68bb98fe703c45e5e403f1f215beb22084f84a34af664736f6c63430008030033",
  "devdoc": {
    "kind": "dev",
    "methods": {},
    "title": "Manaage rewards for liquidity mining",
    "version": 1
  },
  "userdoc": {
    "kind": "user",
    "methods": {
      "MFI()": {
        "notice": "Margenswap (MFI) token address"
      }
    },
    "version": 1
  },
  "storageLayout": {
    "storage": [
      {
        "astId": 10995,
        "contract": "contracts/LiquidityMiningReward.sol:LiquidityMiningReward",
        "label": "roles",
        "offset": 0,
        "slot": "0",
        "type": "t_contract(Roles)10131"
      },
      {
        "astId": 11000,
        "contract": "contracts/LiquidityMiningReward.sol:LiquidityMiningReward",
        "label": "stakeAccounts",
        "offset": 0,
        "slot": "1",
        "type": "t_mapping(t_address,t_struct(StakeAccount)10985_storage)"
      },
      {
        "astId": 11002,
        "contract": "contracts/LiquidityMiningReward.sol:LiquidityMiningReward",
        "label": "cumulativeReward",
        "offset": 0,
        "slot": "2",
        "type": "t_uint256"
      },
      {
        "astId": 11004,
        "contract": "contracts/LiquidityMiningReward.sol:LiquidityMiningReward",
        "label": "lastCumulativeUpdateBlock",
        "offset": 0,
        "slot": "3",
        "type": "t_uint256"
      },
      {
        "astId": 11006,
        "contract": "contracts/LiquidityMiningReward.sol:LiquidityMiningReward",
        "label": "totalCurrentWeights",
        "offset": 0,
        "slot": "4",
        "type": "t_uint256"
      },
      {
        "astId": 11008,
        "contract": "contracts/LiquidityMiningReward.sol:LiquidityMiningReward",
        "label": "totalCurrentRewardPerBlock",
        "offset": 0,
        "slot": "5",
        "type": "t_uint256"
      }
    ],
    "types": {
      "t_address": {
        "encoding": "inplace",
        "label": "address",
        "numberOfBytes": "20"
      },
      "t_contract(Roles)10131": {
        "encoding": "inplace",
        "label": "contract Roles",
        "numberOfBytes": "20"
      },
      "t_mapping(t_address,t_struct(StakeAccount)10985_storage)": {
        "encoding": "mapping",
        "key": "t_address",
        "label": "mapping(address => struct TokenStaking.StakeAccount)",
        "numberOfBytes": "32",
        "value": "t_struct(StakeAccount)10985_storage"
      },
      "t_struct(StakeAccount)10985_storage": {
        "encoding": "inplace",
        "label": "struct TokenStaking.StakeAccount",
        "members": [
          {
            "astId": 10978,
            "contract": "contracts/LiquidityMiningReward.sol:LiquidityMiningReward",
            "label": "stakeAmount",
            "offset": 0,
            "slot": "0",
            "type": "t_uint256"
          },
          {
            "astId": 10980,
            "contract": "contracts/LiquidityMiningReward.sol:LiquidityMiningReward",
            "label": "stakeWeight",
            "offset": 0,
            "slot": "1",
            "type": "t_uint256"
          },
          {
            "astId": 10982,
            "contract": "contracts/LiquidityMiningReward.sol:LiquidityMiningReward",
            "label": "cumulativeStart",
            "offset": 0,
            "slot": "2",
            "type": "t_uint256"
          },
          {
            "astId": 10984,
            "contract": "contracts/LiquidityMiningReward.sol:LiquidityMiningReward",
            "label": "lockEnd",
            "offset": 0,
            "slot": "3",
            "type": "t_uint256"
          }
        ],
        "numberOfBytes": "128"
      },
      "t_uint256": {
        "encoding": "inplace",
        "label": "uint256",
        "numberOfBytes": "32"
      }
    }
  }
}