{
  "address": "0xA12b1f4088f846Aa5f72fa1111b8291f69BD6f28",
  "abi": [
    {
      "inputs": [
        {
          "internalType": "address",
          "name": "_WETH",
          "type": "address"
        },
        {
          "internalType": "address",
          "name": "_amm1Factory",
          "type": "address"
        },
        {
          "internalType": "address",
          "name": "_amm2Factory",
          "type": "address"
        },
        {
          "internalType": "address",
          "name": "_amm3Factory",
          "type": "address"
        },
        {
          "internalType": "bytes32",
          "name": "_amm1InitHash",
          "type": "bytes32"
        },
        {
          "internalType": "bytes32",
          "name": "_amm2InitHash",
          "type": "bytes32"
        },
        {
          "internalType": "bytes32",
          "name": "_amm3InitHash",
          "type": "bytes32"
        },
        {
          "internalType": "address",
          "name": "_roles",
          "type": "address"
        }
      ],
      "stateMutability": "nonpayable",
      "type": "constructor"
    },
    {
      "anonymous": false,
      "inputs": [
        {
          "indexed": true,
          "internalType": "address",
          "name": "trader",
          "type": "address"
        }
      ],
      "name": "AccountUpdated",
      "type": "event"
    },
    {
      "anonymous": false,
      "inputs": [
        {
          "indexed": true,
          "internalType": "address",
          "name": "trader",
          "type": "address"
        },
        {
          "indexed": false,
          "internalType": "address",
          "name": "fromToken",
          "type": "address"
        },
        {
          "indexed": false,
          "internalType": "address",
          "name": "toToken",
          "type": "address"
        },
        {
          "indexed": false,
          "internalType": "uint256",
          "name": "fromAmount",
          "type": "uint256"
        },
        {
          "indexed": false,
          "internalType": "uint256",
          "name": "toAmount",
          "type": "uint256"
        }
      ],
      "name": "MarginTrade",
      "type": "event"
    },
    {
      "inputs": [],
      "name": "WETH",
      "outputs": [
        {
          "internalType": "address",
          "name": "",
          "type": "address"
        }
      ],
      "stateMutability": "view",
      "type": "function"
    },
    {
      "inputs": [],
      "name": "amm1Factory",
      "outputs": [
        {
          "internalType": "address",
          "name": "",
          "type": "address"
        }
      ],
      "stateMutability": "view",
      "type": "function"
    },
    {
      "inputs": [],
      "name": "amm1InitHash",
      "outputs": [
        {
          "internalType": "bytes32",
          "name": "",
          "type": "bytes32"
        }
      ],
      "stateMutability": "view",
      "type": "function"
    },
    {
      "inputs": [],
      "name": "amm2Factory",
      "outputs": [
        {
          "internalType": "address",
          "name": "",
          "type": "address"
        }
      ],
      "stateMutability": "view",
      "type": "function"
    },
    {
      "inputs": [],
      "name": "amm2InitHash",
      "outputs": [
        {
          "internalType": "bytes32",
          "name": "",
          "type": "bytes32"
        }
      ],
      "stateMutability": "view",
      "type": "function"
    },
    {
      "inputs": [],
      "name": "amm3Factory",
      "outputs": [
        {
          "internalType": "address",
          "name": "",
          "type": "address"
        }
      ],
      "stateMutability": "view",
      "type": "function"
    },
    {
      "inputs": [],
      "name": "amm3InitHash",
      "outputs": [
        {
          "internalType": "bytes32",
          "name": "",
          "type": "bytes32"
        }
      ],
      "stateMutability": "view",
      "type": "function"
    },
    {
      "inputs": [
        {
          "internalType": "uint256",
          "name": "amountIn",
          "type": "uint256"
        },
        {
          "internalType": "uint256",
          "name": "amountOutMin",
          "type": "uint256"
        },
        {
          "internalType": "bytes32",
          "name": "amms",
          "type": "bytes32"
        },
        {
          "internalType": "address[]",
          "name": "tokens",
          "type": "address[]"
        }
      ],
      "name": "authorizedSwapExactT4T",
      "outputs": [
        {
          "internalType": "uint256[]",
          "name": "amounts",
          "type": "uint256[]"
        }
      ],
      "stateMutability": "nonpayable",
      "type": "function"
    },
    {
      "inputs": [
        {
          "internalType": "uint256",
          "name": "amountOut",
          "type": "uint256"
        },
        {
          "internalType": "uint256",
          "name": "amountInMax",
          "type": "uint256"
        },
        {
          "internalType": "bytes32",
          "name": "amms",
          "type": "bytes32"
        },
        {
          "internalType": "address[]",
          "name": "tokens",
          "type": "address[]"
        }
      ],
      "name": "authorizedSwapT4ExactT",
      "outputs": [
        {
          "internalType": "uint256[]",
          "name": "amounts",
          "type": "uint256[]"
        }
      ],
      "stateMutability": "nonpayable",
      "type": "function"
    },
    {
      "inputs": [
        {
          "internalType": "address",
          "name": "borrowToken",
          "type": "address"
        },
        {
          "internalType": "uint256",
          "name": "borrowAmount",
          "type": "uint256"
        }
      ],
      "name": "crossBorrow",
      "outputs": [],
      "stateMutability": "nonpayable",
      "type": "function"
    },
    {
      "inputs": [],
      "name": "crossCloseAccount",
      "outputs": [],
      "stateMutability": "nonpayable",
      "type": "function"
    },
    {
      "inputs": [
        {
          "internalType": "address",
          "name": "depositToken",
          "type": "address"
        },
        {
          "internalType": "uint256",
          "name": "depositAmount",
          "type": "uint256"
        }
      ],
      "name": "crossDeposit",
      "outputs": [],
      "stateMutability": "nonpayable",
      "type": "function"
    },
    {
      "inputs": [],
      "name": "crossDepositETH",
      "outputs": [],
      "stateMutability": "payable",
      "type": "function"
    },
    {
      "inputs": [
        {
          "internalType": "address",
          "name": "depositToken",
          "type": "address"
        },
        {
          "internalType": "uint256",
          "name": "depositAmount",
          "type": "uint256"
        },
        {
          "internalType": "address",
          "name": "borrowToken",
          "type": "address"
        },
        {
          "internalType": "uint256",
          "name": "withdrawAmount",
          "type": "uint256"
        }
      ],
      "name": "crossOvercollateralizedBorrow",
      "outputs": [],
      "stateMutability": "nonpayable",
      "type": "function"
    },
    {
      "inputs": [
        {
          "internalType": "address",
          "name": "withdrawToken",
          "type": "address"
        },
        {
          "internalType": "uint256",
          "name": "withdrawAmount",
          "type": "uint256"
        }
      ],
      "name": "crossWithdraw",
      "outputs": [],
      "stateMutability": "nonpayable",
      "type": "function"
    },
    {
      "inputs": [
        {
          "internalType": "uint256",
          "name": "withdrawAmount",
          "type": "uint256"
        }
      ],
      "name": "crossWithdrawETH",
      "outputs": [],
      "stateMutability": "nonpayable",
      "type": "function"
    },
    {
      "inputs": [
        {
          "internalType": "uint256",
          "name": "outAmount",
          "type": "uint256"
        },
        {
          "internalType": "bytes32",
          "name": "amms",
          "type": "bytes32"
        },
        {
          "internalType": "address[]",
          "name": "tokens",
          "type": "address[]"
        }
      ],
      "name": "getAmountsIn",
      "outputs": [
        {
          "internalType": "uint256[]",
          "name": "amounts",
          "type": "uint256[]"
        }
      ],
      "stateMutability": "view",
      "type": "function"
    },
    {
      "inputs": [
        {
          "internalType": "uint256",
          "name": "inAmount",
          "type": "uint256"
        },
        {
          "internalType": "bytes32",
          "name": "amms",
          "type": "bytes32"
        },
        {
          "internalType": "address[]",
          "name": "tokens",
          "type": "address[]"
        }
      ],
      "name": "getAmountsOut",
      "outputs": [
        {
          "internalType": "uint256[]",
          "name": "amounts",
          "type": "uint256[]"
        }
      ],
      "stateMutability": "view",
      "type": "function"
    },
    {
      "inputs": [
        {
          "internalType": "uint256",
          "name": "",
          "type": "uint256"
        }
      ],
      "name": "mainCharacterCache",
      "outputs": [
        {
          "internalType": "address",
          "name": "",
          "type": "address"
        }
      ],
      "stateMutability": "view",
      "type": "function"
    },
    {
      "inputs": [],
      "name": "mswapFeesPer10k",
      "outputs": [
        {
          "internalType": "uint256",
          "name": "",
          "type": "uint256"
        }
      ],
      "stateMutability": "view",
      "type": "function"
    },
    {
      "inputs": [
        {
          "internalType": "address",
          "name": "",
          "type": "address"
        },
        {
          "internalType": "uint256",
          "name": "",
          "type": "uint256"
        }
      ],
      "name": "roleCache",
      "outputs": [
        {
          "internalType": "bool",
          "name": "",
          "type": "bool"
        }
      ],
      "stateMutability": "view",
      "type": "function"
    },
    {
      "inputs": [],
      "name": "roles",
      "outputs": [
        {
          "internalType": "contract Roles",
          "name": "",
          "type": "address"
        }
      ],
      "stateMutability": "view",
      "type": "function"
    },
    {
      "inputs": [
        {
          "internalType": "uint256",
          "name": "amountIn",
          "type": "uint256"
        },
        {
          "internalType": "uint256",
          "name": "amountOutMin",
          "type": "uint256"
        },
        {
          "internalType": "bytes32",
          "name": "amms",
          "type": "bytes32"
        },
        {
          "internalType": "address[]",
          "name": "tokens",
          "type": "address[]"
        },
        {
          "internalType": "uint256",
          "name": "deadline",
          "type": "uint256"
        }
      ],
      "name": "swapExactTokensForTokens",
      "outputs": [
        {
          "internalType": "uint256[]",
          "name": "amounts",
          "type": "uint256[]"
        }
      ],
      "stateMutability": "nonpayable",
      "type": "function"
    },
    {
      "inputs": [
        {
          "internalType": "uint256",
          "name": "amountOut",
          "type": "uint256"
        },
        {
          "internalType": "uint256",
          "name": "amountInMax",
          "type": "uint256"
        },
        {
          "internalType": "bytes32",
          "name": "amms",
          "type": "bytes32"
        },
        {
          "internalType": "address[]",
          "name": "tokens",
          "type": "address[]"
        },
        {
          "internalType": "uint256",
          "name": "deadline",
          "type": "uint256"
        }
      ],
      "name": "swapTokensForExactTokens",
      "outputs": [
        {
          "internalType": "uint256[]",
          "name": "amounts",
          "type": "uint256[]"
        }
      ],
      "stateMutability": "nonpayable",
      "type": "function"
    },
    {
      "inputs": [
        {
          "internalType": "uint256",
          "name": "role",
          "type": "uint256"
        }
      ],
      "name": "updateMainCharacterCache",
      "outputs": [],
      "stateMutability": "nonpayable",
      "type": "function"
    },
    {
      "inputs": [
        {
          "internalType": "uint256",
          "name": "role",
          "type": "uint256"
        },
        {
          "internalType": "address",
          "name": "contr",
          "type": "address"
        }
      ],
      "name": "updateRoleCache",
      "outputs": [],
      "stateMutability": "nonpayable",
      "type": "function"
    }
  ],
  "transactionHash": "0x389d7549422f6edb5e9cb6628cdfadd3025656154c5a235d00f1e882abc46a0d",
  "args": [
    "0x0d500B1d8E8eF31E21C99d1Db9A6444d3ADf1270",
    "0x5757371414417b8C6CAad45bAeF941aBc7d3Ab32",
    "0xc35DADB65012eC5796536bD9864eD8773aBc74C4",
    "0xE7Fb3e833eFE5F9c441105EB65Ef8b261266423B",
    "0x96e8ac4277198ff8b6f785478aa9a39f403cb768dd02cbee326c3e7da348845f",
    "0xe18a34eb0e04b04f7a0ac29a6e80748dca96319b42c54d679cb821dca90c6303",
    "0xf187ed688403aa4f7acfada758d8d53698753b998a3071b06f1b777f4330eaf3",
    "0xa94DDbb3Ba629E637F63F54Bae6724c271ccA48f"
  ],
  "solcInputHash": "145807fe0722963160e7147bca0c6fe9",
  "bytecode": "0x6101206040523480156200001257600080fd5b5060405162003f7c38038062003f7c83398101604081905262000035916200010f565b868686868686866001600160a01b038116620000a25760405162461bcd60e51b815260206004820152602260248201527f506c656173652070726f766964652076616c696420726f6c6573206164647265604482015261737360f01b606482015260840160405180910390fd5b6001600160601b0319606091821b811660805296811b871660a05294851b861660c05292841b851660e0526002919091556003556004559890981b90971661010052506200019b95505050505050565b80516001600160a01b03811681146200010a57600080fd5b919050565b600080600080600080600080610100898b0312156200012c578384fd5b6200013789620000f2565b97506200014760208a01620000f2565b96506200015760408a01620000f2565b95506200016760608a01620000f2565b94506080890151935060a0890151925060c089015191506200018c60e08a01620000f2565b90509295985092959890939650565b60805160601c60a05160601c60c05160601c60e05160601c6101005160601c613d4e6200022e600039600081816103ed01528181610ae70152818161131001528181611409015261147b0152600081816104950152612e3b0152600081816101b80152612f3101526000818161044101526130060152600081816102db015281816105a80152610d4a0152613d4e6000f3fe6080604052600436106101a15760003560e01c806394427b20116100e1578063db4292351161008a578063e3e0626b11610064578063e3e0626b146104e3578063e3ee432714610503578063e9c3f77d14610523578063eedb97c714610559576101a1565b8063db42923514610483578063df7c20f9146104b7578063e2abb5c4146104cd576101a1565b8063b7453e27116100bb578063b7453e271461040f578063b852eb0d1461042f578063cb6067dd14610463576101a1565b806394427b20146103bd578063a75208a8146103c5578063ad5c4648146103db576101a1565b8063351ae6101161014e57806353d7ff9f1161012857806353d7ff9f1461031d578063696986701461033d578063799d34e1146103525780637a1a04df14610372576101a1565b8063351ae610146102a9578063392f5f64146102c9578063447d52ba146102fd576101a1565b80631084bd6d1161017f5780631084bd6d146102465780631306d902146102695780631dce3baa14610289576101a1565b8063059b157a146101a6578063071060a6146101f75780630abb674c14610219575b600080fd5b3480156101b257600080fd5b506101da7f000000000000000000000000000000000000000000000000000000000000000081565b6040516001600160a01b0390911681526020015b60405180910390f35b34801561020357600080fd5b50610217610212366004613990565b610579565b005b34801561022557600080fd5b50610239610234366004613ac2565b610670565b6040516101ee9190613b29565b34801561025257600080fd5b5061025b600a81565b6040519081526020016101ee565b34801561027557600080fd5b506102176102843660046137ea565b6107ef565b34801561029557600080fd5b506102176102a4366004613990565b610a7c565b3480156102b557600080fd5b506102396102c4366004613a63565b610c32565b3480156102d557600080fd5b506101da7f000000000000000000000000000000000000000000000000000000000000000081565b34801561030957600080fd5b506102176103183660046139c0565b610d0b565b34801561032957600080fd5b50610239610338366004613a63565b610e1a565b34801561034957600080fd5b50610217610ee9565b34801561035e57600080fd5b5061023961036d3660046139ef565b6111d5565b34801561037e57600080fd5b506103ad61038d3660046137ea565b600160209081526000928352604080842090915290825290205460ff1681565b60405190151581526020016101ee565b610217611215565b3480156103d157600080fd5b5061025b60025481565b3480156103e757600080fd5b506101da7f000000000000000000000000000000000000000000000000000000000000000081565b34801561041b57600080fd5b5061023961042a3660046139ef565b6114cf565b34801561043b57600080fd5b506101da7f000000000000000000000000000000000000000000000000000000000000000081565b34801561046f57600080fd5b5061021761047e366004613815565b61150f565b34801561048f57600080fd5b506101da7f000000000000000000000000000000000000000000000000000000000000000081565b3480156104c357600080fd5b5061025b60035481565b3480156104d957600080fd5b5061025b60045481565b3480156104ef57600080fd5b506102176104fe3660046137ea565b611900565b34801561050f57600080fd5b5061023961051e366004613ac2565b611a9f565b34801561052f57600080fd5b506101da61053e366004613990565b6000602081905290815260409020546001600160a01b031681565b34801561056557600080fd5b506102176105743660046137ea565b611c08565b6040517fb4ed0b6d000000000000000000000000000000000000000000000000000000008152600481018290527f00000000000000000000000000000000000000000000000000000000000000006001600160a01b03169063b4ed0b6d9060240160206040518083038186803b1580156105f257600080fd5b505afa158015610606573d6000803e3d6000fd5b505050506040513d601f19601f8201168201806040525081019061062a91906137ce565b60009182526020829052604090912080547fffffffffffffffffffffffff0000000000000000000000000000000000000000166001600160a01b03909216919091179055565b606081428110156106c85760405162461bcd60e51b815260206004820152601160248201527f547261646520686173206578706972656400000000000000000000000000000060448201526064015b60405180910390fd5b60006106d389611e78565b9050606061071e6106e4838c613c8b565b89898980806020026020016040519081016040528093929190818152602001838360200280828437600092019190915250611ea292505050565b90945090506107d533888860008161074657634e487b7160e01b600052603260045260246000fd5b905060200201602081019061075b91906137ab565b8989610768600182613c8b565b81811061078557634e487b7160e01b600052603260045260246000fd5b905060200201602081019061079a91906137ab565b8d8860018a516107aa9190613c8b565b815181106107c857634e487b7160e01b600052603260045260246000fd5b60200260200101516121f8565b6107e2848a838a8a6126a0565b5050509695505050505050565b606560009081526020527f4a7203f705e51df4a56139a9b86b4a0970bed7ab7a3446eaffe2289989c1645c546001600160a01b03166040517fb3db428b0000000000000000000000000000000000000000000000000000000081523360048201526001600160a01b03848116602483015260448201849052919091169063b3db428b90606401600060405180830381600087803b15801561088f57600080fd5b505af11580156108a3573d6000803e3d6000fd5b5050505060006108e4606860009081526020527faa071f48f62aaaa1f6320aaa7bd2ad2d552d05160892c14d699d38c9920d5f99546001600160a01b031690565b6040517f52a664d90000000000000000000000000000000000000000000000000000000081523360048201526001600160a01b0385811660248301526044820185905291909116906352a664d990606401602060405180830381600087803b15801561094f57600080fd5b505af1158015610963573d6000803e3d6000fd5b505050506040513d601f19601f8201168201806040525081019061098791906139a8565b90508015610a4c57606660009081526020527f422cccb7cea5c0e46f340bb7b21b81debac329f72e31669c20ff0f3a05cc2b5b546001600160a01b03166040517f2a6a897b0000000000000000000000000000000000000000000000000000000081526001600160a01b038581166004830152602482018490529190911690632a6a897b90604401600060405180830381600087803b158015610a2957600080fd5b505af1158015610a3d573d6000803e3d6000fd5b50505050610a4c83338361291d565b60405133907fe7b1fae3a790ceab07642c09617df79428b02832cd512bbfdd4db50272dcdf3090600090a2505050565b606860009081526020527faa071f48f62aaaa1f6320aaa7bd2ad2d552d05160892c14d699d38c9920d5f99546001600160a01b03166040517fd0eb66530000000000000000000000000000000000000000000000000000000081523360048201526001600160a01b037f00000000000000000000000000000000000000000000000000000000000000008116602483015260448201849052919091169063d0eb665390606401600060405180830381600087803b158015610b3c57600080fd5b505af1158015610b50573d6000803e3d6000fd5b50506065600090815260205250507f4a7203f705e51df4a56139a9b86b4a0970bed7ab7a3446eaffe2289989c1645c546001600160a01b03166040517f4782f779000000000000000000000000000000000000000000000000000000008152336004820152602481018390526001600160a01b039190911690634782f77990604401600060405180830381600087803b158015610bec57600080fd5b505af1158015610c00573d6000803e3d6000fd5b50506040513392507fe7b1fae3a790ceab07642c09617df79428b02832cd512bbfdd4db50272dcdf309150600090a250565b6060610c3d33612969565b610caf5760405162461bcd60e51b815260206004820152603e60248201527f43616c6c696e6720636f6e7472616374206973206e6f7420617574686f72697a60448201527f656420746f20747261646520776974682070726f746f636c2066756e6473000060648201526084016106bf565b6060610cef8786868680806020026020016040519081016040528093929190818152602001838360200280828437600092019190915250611ea292505050565b9092509050610d0182878387876126a0565b5095945050505050565b6040517f93552a3d000000000000000000000000000000000000000000000000000000008152600481018390526001600160a01b0382811660248301527f000000000000000000000000000000000000000000000000000000000000000016906393552a3d9060440160206040518083038186803b158015610d8c57600080fd5b505afa158015610da0573d6000803e3d6000fd5b505050506040513d601f19601f82011682018060405250810190610dc49190613922565b6001600160a01b039190911660009081526001602090815260408083209483529390529190912080547fffffffffffffffffffffffffffffffffffffffffffffffffffffffffffffff0016911515919091179055565b6060610e2533612969565b610e975760405162461bcd60e51b815260206004820152603e60248201527f43616c6c696e6720636f6e7472616374206973206e6f7420617574686f72697a60448201527f656420746f20747261646520776974682070726f746f636c2066756e6473000060648201526084016106bf565b6060610ed7878686868080602002602001604051908101604052809392919081815260200183836020028082843760009201919091525061299792505050565b9092509050610d018287838787612d0f565b600080610f27606860009081526020527faa071f48f62aaaa1f6320aaa7bd2ad2d552d05160892c14d699d38c9920d5f99546001600160a01b031690565b6040517f409fdb720000000000000000000000000000000000000000000000000000000081523360048201526001600160a01b03919091169063409fdb729060240160006040518083038186803b158015610f8157600080fd5b505afa158015610f95573d6000803e3d6000fd5b505050506040513d6000823e601f3d908101601f19168201604052610fbd919081019061385c565b91509150610ffc606860009081526020527faa071f48f62aaaa1f6320aaa7bd2ad2d552d05160892c14d699d38c9920d5f99546001600160a01b031690565b6040517fdb2d904d0000000000000000000000000000000000000000000000000000000081523360048201526001600160a01b03919091169063db2d904d90602401600060405180830381600087803b15801561105857600080fd5b505af115801561106c573d6000803e3d6000fd5b5050505060005b80835111156111a557606560009081526020527f4a7203f705e51df4a56139a9b86b4a0970bed7ab7a3446eaffe2289989c1645c546001600160a01b03166001600160a01b031663d9caed128483815181106110df57634e487b7160e01b600052603260045260246000fd5b60200260200101513385858151811061110857634e487b7160e01b600052603260045260246000fd5b60209081029190910101516040517fffffffff0000000000000000000000000000000000000000000000000000000060e086901b1681526001600160a01b0393841660048201529290911660248301526044820152606401600060405180830381600087803b15801561117a57600080fd5b505af115801561118e573d6000803e3d6000fd5b50505050808061119d90613cb9565b915050611073565b5060405133907fe7b1fae3a790ceab07642c09617df79428b02832cd512bbfdd4db50272dcdf3090600090a25050565b6060610d01858585858080602002602001604051908101604052809392919081815260200183836020028082843760009201919091525061299792505050565b606560009081526020527f4a7203f705e51df4a56139a9b86b4a0970bed7ab7a3446eaffe2289989c1645c546001600160a01b03166001600160a01b031663a6a5f9fe346040518263ffffffff1660e01b81526004016000604051808303818588803b15801561128457600080fd5b505af1158015611298573d6000803e3d6000fd5b505050505060006112da606860009081526020527faa071f48f62aaaa1f6320aaa7bd2ad2d552d05160892c14d699d38c9920d5f99546001600160a01b031690565b6040517f52a664d90000000000000000000000000000000000000000000000000000000081523360048201526001600160a01b037f00000000000000000000000000000000000000000000000000000000000000008116602483015234604483015291909116906352a664d990606401602060405180830381600087803b15801561136457600080fd5b505af1158015611378573d6000803e3d6000fd5b505050506040513d601f19601f8201168201806040525081019061139c91906139a8565b905080156114a157606660009081526020527f422cccb7cea5c0e46f340bb7b21b81debac329f72e31669c20ff0f3a05cc2b5b546001600160a01b03166040517f2a6a897b0000000000000000000000000000000000000000000000000000000081526001600160a01b037f000000000000000000000000000000000000000000000000000000000000000081166004830152602482018490529190911690632a6a897b90604401600060405180830381600087803b15801561145e57600080fd5b505af1158015611472573d6000803e3d6000fd5b505050506114a17f0000000000000000000000000000000000000000000000000000000000000000338361291d565b60405133907fe7b1fae3a790ceab07642c09617df79428b02832cd512bbfdd4db50272dcdf3090600090a250565b6060610d018585858580806020026020016040519081016040528093929190818152602001838360200280828437600092019190915250611ea292505050565b606560009081526020527f4a7203f705e51df4a56139a9b86b4a0970bed7ab7a3446eaffe2289989c1645c546001600160a01b03166040517fb3db428b0000000000000000000000000000000000000000000000000000000081523360048201526001600160a01b03868116602483015260448201869052919091169063b3db428b90606401600060405180830381600087803b1580156115af57600080fd5b505af11580156115c3573d6000803e3d6000fd5b50506066600090815260205250507f422cccb7cea5c0e46f340bb7b21b81debac329f72e31669c20ff0f3a05cc2b5b546001600160a01b03166040517fee0862bf0000000000000000000000000000000000000000000000000000000081526001600160a01b03848116600483015260248201849052919091169063ee0862bf90604401600060405180830381600087803b15801561166157600080fd5b505af1158015611675573d6000803e3d6000fd5b50506068600090815260205250507faa071f48f62aaaa1f6320aaa7bd2ad2d552d05160892c14d699d38c9920d5f99546001600160a01b03166040517f1d84cc180000000000000000000000000000000000000000000000000000000081523360048201526001600160a01b038681166024830152604482018690528481166064830152608482018490529190911690631d84cc189060a401600060405180830381600087803b15801561172857600080fd5b505af115801561173c573d6000803e3d6000fd5b50506066600090815260205250507f422cccb7cea5c0e46f340bb7b21b81debac329f72e31669c20ff0f3a05cc2b5b546001600160a01b03166040517fdc683bcf0000000000000000000000000000000000000000000000000000000081526001600160a01b038481166004830152919091169063dc683bcf90602401602060405180830381600087803b1580156117d357600080fd5b505af11580156117e7573d6000803e3d6000fd5b505050506040513d601f19601f8201168201806040525081019061180b91906139a8565b50606560009081526020527f4a7203f705e51df4a56139a9b86b4a0970bed7ab7a3446eaffe2289989c1645c546001600160a01b03166040517fd9caed120000000000000000000000000000000000000000000000000000000081526001600160a01b03848116600483015233602483015260448201849052919091169063d9caed1290606401600060405180830381600087803b1580156118ac57600080fd5b505af11580156118c0573d6000803e3d6000fd5b505050506118cf823383612dac565b60405133907fe7b1fae3a790ceab07642c09617df79428b02832cd512bbfdd4db50272dcdf3090600090a250505050565b606860009081526020527faa071f48f62aaaa1f6320aaa7bd2ad2d552d05160892c14d699d38c9920d5f99546001600160a01b03166040517fd0eb66530000000000000000000000000000000000000000000000000000000081523360048201526001600160a01b03848116602483015260448201849052919091169063d0eb665390606401600060405180830381600087803b1580156119a057600080fd5b505af11580156119b4573d6000803e3d6000fd5b50506065600090815260205250507f4a7203f705e51df4a56139a9b86b4a0970bed7ab7a3446eaffe2289989c1645c546001600160a01b03166040517fd9caed120000000000000000000000000000000000000000000000000000000081526001600160a01b03848116600483015233602483015260448201849052919091169063d9caed1290606401600060405180830381600087803b158015611a5857600080fd5b505af1158015611a6c573d6000803e3d6000fd5b50506040513392507fe7b1fae3a790ceab07642c09617df79428b02832cd512bbfdd4db50272dcdf309150600090a25050565b60608142811015611af25760405162461bcd60e51b815260206004820152601160248201527f547261646520686173206578706972656400000000000000000000000000000060448201526064016106bf565b6060611b44611b008a612def565b611b0a908b613c34565b8888888080602002602001604051908101604052809392919081815260200183836020028082843760009201919091525061299792505050565b9093509050611bef338787600081611b6c57634e487b7160e01b600052603260045260246000fd5b9050602002016020810190611b8191906137ab565b8888611b8e600182613c8b565b818110611bab57634e487b7160e01b600052603260045260246000fd5b9050602002016020810190611bc091906137ab565b86600081518110611be157634e487b7160e01b600052603260045260246000fd5b60200260200101518d6121f8565b611bfc8389838989612d0f565b50509695505050505050565b606660009081526020527f422cccb7cea5c0e46f340bb7b21b81debac329f72e31669c20ff0f3a05cc2b5b546001600160a01b03166040517fee0862bf0000000000000000000000000000000000000000000000000000000081526001600160a01b03848116600483015260248201849052919091169063ee0862bf90604401600060405180830381600087803b158015611ca257600080fd5b505af1158015611cb6573d6000803e3d6000fd5b50506068600090815260205250507faa071f48f62aaaa1f6320aaa7bd2ad2d552d05160892c14d699d38c9920d5f99546001600160a01b03166040517f498d55eb0000000000000000000000000000000000000000000000000000000081523360048201526001600160a01b03848116602483015260448201849052919091169063498d55eb90606401600060405180830381600087803b158015611d5a57600080fd5b505af1158015611d6e573d6000803e3d6000fd5b50506066600090815260205250507f422cccb7cea5c0e46f340bb7b21b81debac329f72e31669c20ff0f3a05cc2b5b546001600160a01b03166040517fdc683bcf0000000000000000000000000000000000000000000000000000000081526001600160a01b038481166004830152919091169063dc683bcf90602401602060405180830381600087803b158015611e0557600080fd5b505af1158015611e19573d6000803e3d6000fd5b505050506040513d601f19601f82011682018060405250810190611e3d91906139a8565b50611e49823383612dac565b60405133907fe7b1fae3a790ceab07642c09617df79428b02832cd512bbfdd4db50272dcdf3090600090a25050565b6000611e87600a612710613c34565b611e9283600a613c6c565b611e9c9190613c4c565b92915050565b606080600283511015611ef75760405162461bcd60e51b815260206004820152601460248201527f746f6b656e207061746820746f6f2073686f727400000000000000000000000060448201526064016106bf565b825167ffffffffffffffff811115611f1f57634e487b7160e01b600052604160045260246000fd5b604051908082528060200260200182016040528015611f48578160200160208202803683370190505b5091508482600081518110611f6d57634e487b7160e01b600052603260045260246000fd5b60200260200101818152505060018351611f879190613c8b565b67ffffffffffffffff811115611fad57634e487b7160e01b600052604160045260246000fd5b604051908082528060200260200182016040528015611fd6578160200160208202803683370190505b50905060005b60018451611fea9190613c8b565b8110156121ef57600084828151811061201357634e487b7160e01b600052603260045260246000fd5b6020026020010151905060008583600161202d9190613c34565b8151811061204b57634e487b7160e01b600052603260045260246000fd5b60200260200101519050600087846020811061207757634e487b7160e01b600052603260045260246000fd5b1a60f81b7fff000000000000000000000000000000000000000000000000000000000000001615612110578784602081106120c257634e487b7160e01b600052603260045260246000fd5b1a60f81b7effffffffffffffffffffffffffffffffffffffffffffffffffffffffffffff1916600160f81b14612101576120fc8383612dff565b61210b565b61210b8383612ef5565b61211a565b61211a8383612fca565b90508085858151811061213d57634e487b7160e01b600052603260045260246000fd5b60200260200101906001600160a01b031690816001600160a01b03168152505060008061216b83868661309f565b915091506121a188878151811061219257634e487b7160e01b600052603260045260246000fd5b6020026020010151838361317c565b886121ad886001613c34565b815181106121cb57634e487b7160e01b600052603260045260246000fd5b602002602001018181525050505050505080806121e790613cb9565b915050611fdc565b50935093915050565b600080612236606860009081526020527faa071f48f62aaaa1f6320aaa7bd2ad2d552d05160892c14d699d38c9920d5f99546001600160a01b031690565b6040517f3500aa0b0000000000000000000000000000000000000000000000000000000081526001600160a01b0389811660048301528881166024830152878116604483015260648201879052608482018690529190911690633500aa0b9060a4016040805180830381600087803b1580156122b157600080fd5b505af11580156122c5573d6000803e3d6000fd5b505050506040513d601f19601f820116820180604052508101906122e99190613a40565b9092509050811561247d57606660009081526020527f422cccb7cea5c0e46f340bb7b21b81debac329f72e31669c20ff0f3a05cc2b5b546001600160a01b03166040517f2a6a897b0000000000000000000000000000000000000000000000000000000081526001600160a01b038781166004830152602482018590529190911690632a6a897b90604401600060405180830381600087803b15801561238e57600080fd5b505af11580156123a2573d6000803e3d6000fd5b50506066600090815260205250507f422cccb7cea5c0e46f340bb7b21b81debac329f72e31669c20ff0f3a05cc2b5b546001600160a01b03166040517fdc683bcf0000000000000000000000000000000000000000000000000000000081526001600160a01b038781166004830152919091169063dc683bcf90602401602060405180830381600087803b15801561243957600080fd5b505af115801561244d573d6000803e3d6000fd5b505050506040513d601f19601f8201168201806040525081019061247191906139a8565b5061247d85888461291d565b801561260c57606660009081526020527f422cccb7cea5c0e46f340bb7b21b81debac329f72e31669c20ff0f3a05cc2b5b546001600160a01b03166040517fee0862bf0000000000000000000000000000000000000000000000000000000081526001600160a01b03888116600483015260248201849052919091169063ee0862bf90604401600060405180830381600087803b15801561251d57600080fd5b505af1158015612531573d6000803e3d6000fd5b50506066600090815260205250507f422cccb7cea5c0e46f340bb7b21b81debac329f72e31669c20ff0f3a05cc2b5b546001600160a01b03166040517fdc683bcf0000000000000000000000000000000000000000000000000000000081526001600160a01b038881166004830152919091169063dc683bcf90602401602060405180830381600087803b1580156125c857600080fd5b505af11580156125dc573d6000803e3d6000fd5b505050506040513d601f19601f8201168201806040525081019061260091906139a8565b5061260c868883612dac565b6040516001600160a01b038816907fe7b1fae3a790ceab07642c09617df79428b02832cd512bbfdd4db50272dcdf3090600090a2604080516001600160a01b038881168252878116602083015291810186905260608101859052908816907f610a6fcfd0e5da3e1f98054761ba753182ff6f350467da719cae9d94e5f541369060800160405180910390a250505050505050565b8385600187516126b09190613c8b565b815181106126ce57634e487b7160e01b600052603260045260246000fd5b6020026020010151101561274a5760405162461bcd60e51b815260206004820152602860248201527f4d617267696e526f757465723a20494e53554646494349454e545f4f5554505560448201527f545f414d4f554e5400000000000000000000000000000000000000000000000060648201526084016106bf565b606560009081526020527f4a7203f705e51df4a56139a9b86b4a0970bed7ab7a3446eaffe2289989c1645c546001600160a01b03166001600160a01b031663d9caed12838360008181106127ae57634e487b7160e01b600052603260045260246000fd5b90506020020160208101906127c391906137ab565b856000815181106127e457634e487b7160e01b600052603260045260246000fd5b60200260200101518860008151811061280d57634e487b7160e01b600052603260045260246000fd5b60209081029190910101516040517fffffffff0000000000000000000000000000000000000000000000000000000060e086901b1681526001600160a01b0393841660048201529290911660248301526044820152606401600060405180830381600087803b15801561287f57600080fd5b505af1158015612893573d6000803e3d6000fd5b505050506128de85848484808060200260200160405190810160405280939291908181526020018383602002808284376000920191909152506128d992506128e5915050565b61329d565b5050505050565b606560009081526020527f4a7203f705e51df4a56139a9b86b4a0970bed7ab7a3446eaffe2289989c1645c546001600160a01b031690565b604080516001600160a01b038581168252602082018490528416917f3397b60e3ca1e9c0c75a033d62ab8731e9b2937c0690ae5d7f1bd37886b19d7d91015b60405180910390a2505050565b6001600160a01b03811660009081526001602090815260408083206007845290915290205460ff165b919050565b6060806002835110156129ec5760405162461bcd60e51b815260206004820152601460248201527f746f6b656e207061746820746f6f2073686f727400000000000000000000000060448201526064016106bf565b825167ffffffffffffffff811115612a1457634e487b7160e01b600052604160045260246000fd5b604051908082528060200260200182016040528015612a3d578160200160208202803683370190505b509150848260018451612a509190613c8b565b81518110612a6e57634e487b7160e01b600052603260045260246000fd5b60200260200101818152505060018351612a889190613c8b565b67ffffffffffffffff811115612aae57634e487b7160e01b600052604160045260246000fd5b604051908082528060200260200182016040528015612ad7578160200160208202803683370190505b509050600060018451612aea9190613c8b565b90505b80156121ef57600084612b01600184613c8b565b81518110612b1f57634e487b7160e01b600052603260045260246000fd5b602002602001015190506000858381518110612b4b57634e487b7160e01b600052603260045260246000fd5b60200260200101519050600087600185612b659190613c8b565b60208110612b8357634e487b7160e01b600052603260045260246000fd5b1a60f81b7fff000000000000000000000000000000000000000000000000000000000000001615612c265787612bba600186613c8b565b60208110612bd857634e487b7160e01b600052603260045260246000fd5b1a60f81b7effffffffffffffffffffffffffffffffffffffffffffffffffffffffffffff1916600160f81b14612c1757612c128383612dff565b612c21565b612c218383612ef5565b612c30565b612c308383612fca565b90508085612c3f600187613c8b565b81518110612c5d57634e487b7160e01b600052603260045260246000fd5b60200260200101906001600160a01b031690816001600160a01b031681525050600080612c8b83868661309f565b91509150612cc1888781518110612cb257634e487b7160e01b600052603260045260246000fd5b602002602001015183836134cb565b88612ccd600189613c8b565b81518110612ceb57634e487b7160e01b600052603260045260246000fd5b60200260200101818152505050505050508080612d0790613ca2565b915050612aed565b8385600081518110612d3157634e487b7160e01b600052603260045260246000fd5b6020026020010151111561274a5760405162461bcd60e51b8152602060048201526024808201527f4d617267696e526f757465723a204558434553534956455f494e5055545f414d60448201527f4f554e540000000000000000000000000000000000000000000000000000000060648201526084016106bf565b604080516001600160a01b038581168252602082018490528416917f8ec70c9430377a4bba035133e27a5b0f3b9951bc080833f6832bcbbb70a96dba910161295c565b6000612710611e9283600a613c6c565b6000806000612e0e85856135f1565b6040516bffffffffffffffffffffffff19606084811b8216602084015283901b16603482015291935091507f00000000000000000000000000000000000000000000000000000000000000009060480160405160208183030381529060405280519060200120600454604051602001612ed4939291907fff00000000000000000000000000000000000000000000000000000000000000815260609390931b6bffffffffffffffffffffffff191660018401526015830191909152603582015260550190565b60408051601f19818403018152919052805160209091012095945050505050565b6000806000612f0485856135f1565b6040516bffffffffffffffffffffffff19606084811b8216602084015283901b16603482015291935091507f00000000000000000000000000000000000000000000000000000000000000009060480160405160208183030381529060405280519060200120600354604051602001612ed4939291907fff00000000000000000000000000000000000000000000000000000000000000815260609390931b6bffffffffffffffffffffffff191660018401526015830191909152603582015260550190565b6000806000612fd985856135f1565b6040516bffffffffffffffffffffffff19606084811b8216602084015283901b16603482015291935091507f00000000000000000000000000000000000000000000000000000000000000009060480160405160208183030381529060405280519060200120600254604051602001612ed4939291907fff00000000000000000000000000000000000000000000000000000000000000815260609390931b6bffffffffffffffffffffffff191660018401526015830191909152603582015260550190565b60008060006130ae85856135f1565b509050600080876001600160a01b0316630902f1ac6040518163ffffffff1660e01b815260040160606040518083038186803b1580156130ed57600080fd5b505afa158015613101573d6000803e3d6000fd5b505050506040513d601f19601f820116820180604052508101906131259190613942565b506dffffffffffffffffffffffffffff1691506dffffffffffffffffffffffffffff169150826001600160a01b0316876001600160a01b03161461316a57808261316d565b81815b90999098509650505050505050565b60008084116131cd5760405162461bcd60e51b815260206004820152601960248201527f494e53554646494349454e545f494e5055545f414d4f554e540000000000000060448201526064016106bf565b6000831180156131dd5750600082115b61324f5760405162461bcd60e51b815260206004820152602860248201527f556e697377617056324c6962726172793a20494e53554646494349454e545f4c60448201527f495155494449545900000000000000000000000000000000000000000000000060648201526084016106bf565b600061325d856103e5613c6c565b9050600061326b8483613c6c565b905060008261327c876103e8613c6c565b6132869190613c34565b90506132928183613c4c565b979650505050505050565b60005b83518110156128de576000808483815181106132cc57634e487b7160e01b600052603260045260246000fd5b6020026020010151858460016132e29190613c34565b8151811061330057634e487b7160e01b600052603260045260246000fd5b602002602001015191509150600061331883836135f1565b509050600088613329866001613c34565b8151811061334757634e487b7160e01b600052603260045260246000fd5b60200260200101519050600080836001600160a01b0316866001600160a01b03161461337557826000613379565b6000835b91509150600060018b5161338d9190613c8b565b881061339957886133cc565b8a6133a5896001613c34565b815181106133c357634e487b7160e01b600052603260045260246000fd5b60200260200101515b905060008b89815181106133f057634e487b7160e01b600052603260045260246000fd5b60200260200101519050806001600160a01b031663022c0d9f858585600067ffffffffffffffff81111561343457634e487b7160e01b600052604160045260246000fd5b6040519080825280601f01601f19166020018201604052801561345e576020820181803683370190505b506040518563ffffffff1660e01b815260040161347e9493929190613b6d565b600060405180830381600087803b15801561349857600080fd5b505af11580156134ac573d6000803e3d6000fd5b50505050505050505050505080806134c390613cb9565b9150506132a0565b600080841161351c5760405162461bcd60e51b815260206004820152601a60248201527f494e53554646494349454e545f4f55545055545f414d4f554e5400000000000060448201526064016106bf565b60008311801561352c5750600082115b61359e5760405162461bcd60e51b815260206004820152602860248201527f556e697377617056324c6962726172793a20494e53554646494349454e545f4c60448201527f495155494449545900000000000000000000000000000000000000000000000060648201526084016106bf565b60006135aa8585613c6c565b6135b6906103e8613c6c565b905060006135c48685613c8b565b6135d0906103e5613c6c565b90506135dc8183613c4c565b6135e7906001613c34565b9695505050505050565b600080826001600160a01b0316846001600160a01b031614156136565760405162461bcd60e51b815260206004820152601260248201527f4964656e746963616c206164647265737321000000000000000000000000000060448201526064016106bf565b826001600160a01b0316846001600160a01b031610613676578284613679565b83835b90925090506001600160a01b0382166136d45760405162461bcd60e51b815260206004820152600d60248201527f5a65726f2061646472657373210000000000000000000000000000000000000060448201526064016106bf565b9250929050565b60008083601f8401126136ec578182fd5b50813567ffffffffffffffff811115613703578182fd5b6020830191508360208260051b85010111156136d457600080fd5b600082601f83011261372e578081fd5b8151602061374361373e83613c10565b613bdf565b80838252828201915082860187848660051b8901011115613762578586fd5b855b8581101561378057815184529284019290840190600101613764565b5090979650505050505050565b80516dffffffffffffffffffffffffffff8116811461299257600080fd5b6000602082840312156137bc578081fd5b81356137c781613d00565b9392505050565b6000602082840312156137df578081fd5b81516137c781613d00565b600080604083850312156137fc578081fd5b823561380781613d00565b946020939093013593505050565b6000806000806080858703121561382a578182fd5b843561383581613d00565b935060208501359250604085013561384c81613d00565b9396929550929360600135925050565b6000806040838503121561386e578182fd5b825167ffffffffffffffff80821115613885578384fd5b818501915085601f830112613898578384fd5b815160206138a861373e83613c10565b8083825282820191508286018a848660051b89010111156138c7578889fd5b8896505b848710156138f25780516138de81613d00565b8352600196909601959183019183016138cb565b509188015191965090935050508082111561390b578283fd5b506139188582860161371e565b9150509250929050565b600060208284031215613933578081fd5b815180151581146137c7578182fd5b600080600060608486031215613956578283fd5b61395f8461378d565b925061396d6020850161378d565b9150604084015163ffffffff81168114613985578182fd5b809150509250925092565b6000602082840312156139a1578081fd5b5035919050565b6000602082840312156139b9578081fd5b5051919050565b600080604083850312156139d2578182fd5b8235915060208301356139e481613d00565b809150509250929050565b60008060008060608587031215613a04578384fd5b8435935060208501359250604085013567ffffffffffffffff811115613a28578283fd5b613a34878288016136db565b95989497509550505050565b60008060408385031215613a52578182fd5b505080516020909101519092909150565b600080600080600060808688031215613a7a578283fd5b853594506020860135935060408601359250606086013567ffffffffffffffff811115613aa5578182fd5b613ab1888289016136db565b969995985093965092949392505050565b60008060008060008060a08789031215613ada578384fd5b863595506020870135945060408701359350606087013567ffffffffffffffff811115613b05578182fd5b613b1189828a016136db565b979a9699509497949695608090950135949350505050565b6020808252825182820181905260009190848201906040850190845b81811015613b6157835183529284019291840191600101613b45565b50909695505050505050565b6000858252602085818401526001600160a01b0385166040840152608060608401528351806080850152825b81811015613bb55785810183015185820160a001528201613b99565b81811115613bc6578360a083870101525b50601f01601f19169290920160a0019695505050505050565b604051601f8201601f1916810167ffffffffffffffff81118282101715613c0857613c08613cea565b604052919050565b600067ffffffffffffffff821115613c2a57613c2a613cea565b5060051b60200190565b60008219821115613c4757613c47613cd4565b500190565b600082613c6757634e487b7160e01b81526012600452602481fd5b500490565b6000816000190483118215151615613c8657613c86613cd4565b500290565b600082821015613c9d57613c9d613cd4565b500390565b600081613cb157613cb1613cd4565b506000190190565b6000600019821415613ccd57613ccd613cd4565b5060010190565b634e487b7160e01b600052601160045260246000fd5b634e487b7160e01b600052604160045260246000fd5b6001600160a01b0381168114613d1557600080fd5b5056fea2646970667358221220075267a3233da60ef2d6208279b676f0cfba72b06a3b91ac13d26e138b6c620f64736f6c63430008030033",
  "devdoc": {
    "kind": "dev",
    "methods": {
      "crossOvercollateralizedBorrow(address,uint256,address,uint256)": {
        "details": "caution: the account still has to have a positive balaance at the end of the withdraw. So an underwater account may not be able to withdraw"
      }
    },
    "title": "Top level transaction controller",
    "version": 1
  },
  "userdoc": {
    "kind": "user",
    "methods": {
      "authorizedSwapExactT4T(uint256,uint256,bytes32,address[])": {
        "notice": "make swaps on AMM using protocol funds, only for authorized contracts"
      },
      "crossBorrow(address,uint256)": {
        "notice": "borrow into cross margin trading account"
      },
      "crossCloseAccount()": {
        "notice": "close an account that is no longer borrowing and return gains"
      },
      "crossDeposit(address,uint256)": {
        "notice": "traders call this to deposit funds on cross margin"
      },
      "crossDepositETH()": {
        "notice": "deposit wrapped ehtereum into cross margin account"
      },
      "crossOvercollateralizedBorrow(address,uint256,address,uint256)": {
        "notice": "convenience function to perform overcollateralized borrowing against a cross margin account."
      },
      "crossWithdraw(address,uint256)": {
        "notice": "withdraw deposits/earnings from cross margin account"
      },
      "crossWithdrawETH(uint256)": {
        "notice": "withdraw ethereum from cross margin account"
      },
      "swapExactTokensForTokens(uint256,uint256,bytes32,address[],uint256)": {
        "notice": "entry point for swapping tokens held in cross margin account"
      },
      "swapTokensForExactTokens(uint256,uint256,bytes32,address[],uint256)": {
        "notice": "entry point for swapping tokens held in cross margin account"
      }
    },
    "version": 1
  },
  "storageLayout": {
    "storage": [
      {
        "astId": 9489,
        "contract": "contracts/MarginRouter.sol:MarginRouter",
        "label": "mainCharacterCache",
        "offset": 0,
        "slot": "0",
        "type": "t_mapping(t_uint256,t_address)"
      },
      {
        "astId": 9495,
        "contract": "contracts/MarginRouter.sol:MarginRouter",
        "label": "roleCache",
        "offset": 0,
        "slot": "1",
        "type": "t_mapping(t_address,t_mapping(t_uint256,t_bool))"
      },
      {
        "astId": 22335,
        "contract": "contracts/MarginRouter.sol:MarginRouter",
        "label": "amm1InitHash",
        "offset": 0,
        "slot": "2",
        "type": "t_bytes32"
      },
      {
        "astId": 22337,
        "contract": "contracts/MarginRouter.sol:MarginRouter",
        "label": "amm2InitHash",
        "offset": 0,
        "slot": "3",
        "type": "t_bytes32"
      },
      {
        "astId": 22339,
        "contract": "contracts/MarginRouter.sol:MarginRouter",
        "label": "amm3InitHash",
        "offset": 0,
        "slot": "4",
        "type": "t_bytes32"
      }
    ],
    "types": {
      "t_address": {
        "encoding": "inplace",
        "label": "address",
        "numberOfBytes": "20"
      },
      "t_bool": {
        "encoding": "inplace",
        "label": "bool",
        "numberOfBytes": "1"
      },
      "t_bytes32": {
        "encoding": "inplace",
        "label": "bytes32",
        "numberOfBytes": "32"
      },
      "t_mapping(t_address,t_mapping(t_uint256,t_bool))": {
        "encoding": "mapping",
        "key": "t_address",
        "label": "mapping(address => mapping(uint256 => bool))",
        "numberOfBytes": "32",
        "value": "t_mapping(t_uint256,t_bool)"
      },
      "t_mapping(t_uint256,t_address)": {
        "encoding": "mapping",
        "key": "t_uint256",
        "label": "mapping(uint256 => address)",
        "numberOfBytes": "32",
        "value": "t_address"
      },
      "t_mapping(t_uint256,t_bool)": {
        "encoding": "mapping",
        "key": "t_uint256",
        "label": "mapping(uint256 => bool)",
        "numberOfBytes": "32",
        "value": "t_bool"
      },
      "t_uint256": {
        "encoding": "inplace",
        "label": "uint256",
        "numberOfBytes": "32"
      }
    }
  }
}