{
  "address": "0xBc4f35f44fFC68786B485Bd60a4B40cF4d3C3E03",
  "abi": [
    {
      "inputs": [
        {
          "internalType": "address",
          "name": "_WETH",
          "type": "address"
        },
        {
          "internalType": "address",
          "name": "_amm1Factory",
          "type": "address"
        },
        {
          "internalType": "address",
          "name": "_amm2Factory",
          "type": "address"
        },
        {
          "internalType": "address",
          "name": "_amm3Factory",
          "type": "address"
        },
        {
          "internalType": "bytes32",
          "name": "_amm1InitHash",
          "type": "bytes32"
        },
        {
          "internalType": "bytes32",
          "name": "_amm2InitHash",
          "type": "bytes32"
        },
        {
          "internalType": "bytes32",
          "name": "_amm3InitHash",
          "type": "bytes32"
        },
        {
          "internalType": "address",
          "name": "_roles",
          "type": "address"
        }
      ],
      "stateMutability": "nonpayable",
      "type": "constructor"
    },
    {
      "anonymous": false,
      "inputs": [
        {
          "indexed": true,
          "internalType": "address",
          "name": "trader",
          "type": "address"
        }
      ],
      "name": "AccountUpdated",
      "type": "event"
    },
    {
      "anonymous": false,
      "inputs": [
        {
          "indexed": true,
          "internalType": "address",
          "name": "trader",
          "type": "address"
        },
        {
          "indexed": false,
          "internalType": "address",
          "name": "fromToken",
          "type": "address"
        },
        {
          "indexed": false,
          "internalType": "address",
          "name": "toToken",
          "type": "address"
        },
        {
          "indexed": false,
          "internalType": "uint256",
          "name": "fromAmount",
          "type": "uint256"
        },
        {
          "indexed": false,
          "internalType": "uint256",
          "name": "toAmount",
          "type": "uint256"
        }
      ],
      "name": "MarginTrade",
      "type": "event"
    },
    {
      "inputs": [],
      "name": "WETH",
      "outputs": [
        {
          "internalType": "address",
          "name": "",
          "type": "address"
        }
      ],
      "stateMutability": "view",
      "type": "function"
    },
    {
      "inputs": [],
      "name": "amm1Factory",
      "outputs": [
        {
          "internalType": "address",
          "name": "",
          "type": "address"
        }
      ],
      "stateMutability": "view",
      "type": "function"
    },
    {
      "inputs": [],
      "name": "amm1InitHash",
      "outputs": [
        {
          "internalType": "bytes32",
          "name": "",
          "type": "bytes32"
        }
      ],
      "stateMutability": "view",
      "type": "function"
    },
    {
      "inputs": [],
      "name": "amm2Factory",
      "outputs": [
        {
          "internalType": "address",
          "name": "",
          "type": "address"
        }
      ],
      "stateMutability": "view",
      "type": "function"
    },
    {
      "inputs": [],
      "name": "amm2InitHash",
      "outputs": [
        {
          "internalType": "bytes32",
          "name": "",
          "type": "bytes32"
        }
      ],
      "stateMutability": "view",
      "type": "function"
    },
    {
      "inputs": [],
      "name": "amm3Factory",
      "outputs": [
        {
          "internalType": "address",
          "name": "",
          "type": "address"
        }
      ],
      "stateMutability": "view",
      "type": "function"
    },
    {
      "inputs": [],
      "name": "amm3InitHash",
      "outputs": [
        {
          "internalType": "bytes32",
          "name": "",
          "type": "bytes32"
        }
      ],
      "stateMutability": "view",
      "type": "function"
    },
    {
      "inputs": [
        {
          "internalType": "uint256",
          "name": "amountIn",
          "type": "uint256"
        },
        {
          "internalType": "uint256",
          "name": "amountOutMin",
          "type": "uint256"
        },
        {
          "internalType": "bytes32",
          "name": "amms",
          "type": "bytes32"
        },
        {
          "internalType": "address[]",
          "name": "tokens",
          "type": "address[]"
        }
      ],
      "name": "authorizedSwapExactT4T",
      "outputs": [
        {
          "internalType": "uint256[]",
          "name": "amounts",
          "type": "uint256[]"
        }
      ],
      "stateMutability": "nonpayable",
      "type": "function"
    },
    {
      "inputs": [
        {
          "internalType": "uint256",
          "name": "amountOut",
          "type": "uint256"
        },
        {
          "internalType": "uint256",
          "name": "amountInMax",
          "type": "uint256"
        },
        {
          "internalType": "bytes32",
          "name": "amms",
          "type": "bytes32"
        },
        {
          "internalType": "address[]",
          "name": "tokens",
          "type": "address[]"
        }
      ],
      "name": "authorizedSwapT4ExactT",
      "outputs": [
        {
          "internalType": "uint256[]",
          "name": "amounts",
          "type": "uint256[]"
        }
      ],
      "stateMutability": "nonpayable",
      "type": "function"
    },
    {
      "inputs": [
        {
          "internalType": "address",
          "name": "borrowToken",
          "type": "address"
        },
        {
          "internalType": "uint256",
          "name": "borrowAmount",
          "type": "uint256"
        }
      ],
      "name": "crossBorrow",
      "outputs": [],
      "stateMutability": "nonpayable",
      "type": "function"
    },
    {
      "inputs": [],
      "name": "crossCloseAccount",
      "outputs": [],
      "stateMutability": "nonpayable",
      "type": "function"
    },
    {
      "inputs": [
        {
          "internalType": "address",
          "name": "depositToken",
          "type": "address"
        },
        {
          "internalType": "uint256",
          "name": "depositAmount",
          "type": "uint256"
        }
      ],
      "name": "crossDeposit",
      "outputs": [],
      "stateMutability": "nonpayable",
      "type": "function"
    },
    {
      "inputs": [],
      "name": "crossDepositETH",
      "outputs": [],
      "stateMutability": "payable",
      "type": "function"
    },
    {
      "inputs": [
        {
          "internalType": "address",
          "name": "depositToken",
          "type": "address"
        },
        {
          "internalType": "uint256",
          "name": "depositAmount",
          "type": "uint256"
        },
        {
          "internalType": "address",
          "name": "borrowToken",
          "type": "address"
        },
        {
          "internalType": "uint256",
          "name": "withdrawAmount",
          "type": "uint256"
        }
      ],
      "name": "crossOvercollateralizedBorrow",
      "outputs": [],
      "stateMutability": "nonpayable",
      "type": "function"
    },
    {
      "inputs": [
        {
          "internalType": "address",
          "name": "withdrawToken",
          "type": "address"
        },
        {
          "internalType": "uint256",
          "name": "withdrawAmount",
          "type": "uint256"
        }
      ],
      "name": "crossWithdraw",
      "outputs": [],
      "stateMutability": "nonpayable",
      "type": "function"
    },
    {
      "inputs": [
        {
          "internalType": "uint256",
          "name": "withdrawAmount",
          "type": "uint256"
        }
      ],
      "name": "crossWithdrawETH",
      "outputs": [],
      "stateMutability": "nonpayable",
      "type": "function"
    },
    {
      "inputs": [
        {
          "internalType": "uint256",
          "name": "outAmount",
          "type": "uint256"
        },
        {
          "internalType": "bytes32",
          "name": "amms",
          "type": "bytes32"
        },
        {
          "internalType": "address[]",
          "name": "tokens",
          "type": "address[]"
        }
      ],
      "name": "getAmountsIn",
      "outputs": [
        {
          "internalType": "uint256[]",
          "name": "amounts",
          "type": "uint256[]"
        }
      ],
      "stateMutability": "view",
      "type": "function"
    },
    {
      "inputs": [
        {
          "internalType": "uint256",
          "name": "inAmount",
          "type": "uint256"
        },
        {
          "internalType": "bytes32",
          "name": "amms",
          "type": "bytes32"
        },
        {
          "internalType": "address[]",
          "name": "tokens",
          "type": "address[]"
        }
      ],
      "name": "getAmountsOut",
      "outputs": [
        {
          "internalType": "uint256[]",
          "name": "amounts",
          "type": "uint256[]"
        }
      ],
      "stateMutability": "view",
      "type": "function"
    },
    {
      "inputs": [
        {
          "internalType": "uint256",
          "name": "",
          "type": "uint256"
        }
      ],
      "name": "mainCharacterCache",
      "outputs": [
        {
          "internalType": "address",
          "name": "",
          "type": "address"
        }
      ],
      "stateMutability": "view",
      "type": "function"
    },
    {
      "inputs": [],
      "name": "mswapFeesPer10k",
      "outputs": [
        {
          "internalType": "uint256",
          "name": "",
          "type": "uint256"
        }
      ],
      "stateMutability": "view",
      "type": "function"
    },
    {
      "inputs": [
        {
          "internalType": "address",
          "name": "",
          "type": "address"
        },
        {
          "internalType": "uint256",
          "name": "",
          "type": "uint256"
        }
      ],
      "name": "roleCache",
      "outputs": [
        {
          "internalType": "bool",
          "name": "",
          "type": "bool"
        }
      ],
      "stateMutability": "view",
      "type": "function"
    },
    {
      "inputs": [],
      "name": "roles",
      "outputs": [
        {
          "internalType": "contract Roles",
          "name": "",
          "type": "address"
        }
      ],
      "stateMutability": "view",
      "type": "function"
    },
    {
      "inputs": [
        {
          "internalType": "uint256",
          "name": "amountIn",
          "type": "uint256"
        },
        {
          "internalType": "uint256",
          "name": "amountOutMin",
          "type": "uint256"
        },
        {
          "internalType": "bytes32",
          "name": "amms",
          "type": "bytes32"
        },
        {
          "internalType": "address[]",
          "name": "tokens",
          "type": "address[]"
        },
        {
          "internalType": "uint256",
          "name": "deadline",
          "type": "uint256"
        }
      ],
      "name": "swapExactTokensForTokens",
      "outputs": [
        {
          "internalType": "uint256[]",
          "name": "amounts",
          "type": "uint256[]"
        }
      ],
      "stateMutability": "nonpayable",
      "type": "function"
    },
    {
      "inputs": [
        {
          "internalType": "uint256",
          "name": "amountOut",
          "type": "uint256"
        },
        {
          "internalType": "uint256",
          "name": "amountInMax",
          "type": "uint256"
        },
        {
          "internalType": "bytes32",
          "name": "amms",
          "type": "bytes32"
        },
        {
          "internalType": "address[]",
          "name": "tokens",
          "type": "address[]"
        },
        {
          "internalType": "uint256",
          "name": "deadline",
          "type": "uint256"
        }
      ],
      "name": "swapTokensForExactTokens",
      "outputs": [
        {
          "internalType": "uint256[]",
          "name": "amounts",
          "type": "uint256[]"
        }
      ],
      "stateMutability": "nonpayable",
      "type": "function"
    },
    {
      "inputs": [
        {
          "internalType": "uint256",
          "name": "role",
          "type": "uint256"
        }
      ],
      "name": "updateMainCharacterCache",
      "outputs": [],
      "stateMutability": "nonpayable",
      "type": "function"
    },
    {
      "inputs": [
        {
          "internalType": "uint256",
          "name": "role",
          "type": "uint256"
        },
        {
          "internalType": "address",
          "name": "contr",
          "type": "address"
        }
      ],
      "name": "updateRoleCache",
      "outputs": [],
      "stateMutability": "nonpayable",
      "type": "function"
    }
  ],
  "transactionHash": "0x2d4bb7c1a3c888356d2bbb2e9ecf28647222723363df72840e0904e41d92f190",
  "args": [
    "0x0d500B1d8E8eF31E21C99d1Db9A6444d3ADf1270",
    "0x5757371414417b8C6CAad45bAeF941aBc7d3Ab32",
    "0xc35DADB65012eC5796536bD9864eD8773aBc74C4",
    "0xE7Fb3e833eFE5F9c441105EB65Ef8b261266423B",
    "0x96e8ac4277198ff8b6f785478aa9a39f403cb768dd02cbee326c3e7da348845f",
    "0xe18a34eb0e04b04f7a0ac29a6e80748dca96319b42c54d679cb821dca90c6303",
    "0xf187ed688403aa4f7acfada758d8d53698753b998a3071b06f1b777f4330eaf3",
    "0xb1828378bE0966f0A29B5933D7DC0254F059b617"
  ],
  "solcInputHash": "a08cb513add13ed8d1094fa85991e067",
  "bytecode": "0x6101206040523480156200001257600080fd5b506040516200467d3803806200467d83398101604081905262000035916200010f565b868686868686866001600160a01b038116620000a25760405162461bcd60e51b815260206004820152602260248201527f506c656173652070726f766964652076616c696420726f6c6573206164647265604482015261737360f01b606482015260840160405180910390fd5b6001600160601b0319606091821b811660805296811b871660a05294851b861660c05292841b851660e0526002919091556003556004559890981b90971661010052506200019b95505050505050565b80516001600160a01b03811681146200010a57600080fd5b919050565b600080600080600080600080610100898b0312156200012c578384fd5b6200013789620000f2565b97506200014760208a01620000f2565b96506200015760408a01620000f2565b95506200016760608a01620000f2565b94506080890151935060a0890151925060c089015191506200018c60e08a01620000f2565b90509295985092959890939650565b60805160601c60a05160601c60c05160601c60e05160601c6101005160601c61444f6200022e600039600081816103fa01528181610b9d015281816114db015281816115ee01526116600152600081816104a201526132e40152600081816101b8015261341e01526000818161044e01526135190152600081816102e8015281816105c20152610e41015261444f6000f3fe6080604052600436106101a15760003560e01c806394427b20116100e1578063db4292351161008a578063e3e0626b11610064578063e3e0626b146104f0578063e3ee432714610510578063e9c3f77d14610530578063eedb97c714610573576101a1565b8063db42923514610490578063df7c20f9146104c4578063e2abb5c4146104da576101a1565b8063b7453e27116100bb578063b7453e271461041c578063b852eb0d1461043c578063cb6067dd14610470576101a1565b806394427b20146103ca578063a75208a8146103d2578063ad5c4648146103e8576101a1565b8063351ae6101161014e57806353d7ff9f1161012857806353d7ff9f1461032a578063696986701461034a578063799d34e11461035f5780637a1a04df1461037f576101a1565b8063351ae610146102b6578063392f5f64146102d6578063447d52ba1461030a576101a1565b80631084bd6d1161017f5780631084bd6d146102535780631306d902146102765780631dce3baa14610296576101a1565b8063059b157a146101a6578063071060a6146102045780630abb674c14610226575b600080fd5b3480156101b257600080fd5b506101da7f000000000000000000000000000000000000000000000000000000000000000081565b60405173ffffffffffffffffffffffffffffffffffffffff90911681526020015b60405180910390f35b34801561021057600080fd5b5061022461021f366004613fe1565b610593565b005b34801561023257600080fd5b50610246610241366004614113565b6106a4565b6040516101fb919061417a565b34801561025f57600080fd5b50610268600a81565b6040519081526020016101fb565b34801561028257600080fd5b50610224610291366004613e3b565b61083d565b3480156102a257600080fd5b506102246102b1366004613fe1565b610b18565b3480156102c257600080fd5b506102466102d13660046140b4565b610d02565b3480156102e257600080fd5b506101da7f000000000000000000000000000000000000000000000000000000000000000081565b34801561031657600080fd5b50610224610325366004614011565b610df5565b34801561033657600080fd5b506102466103453660046140b4565b610f1e565b34801561035657600080fd5b50610224611007565b34801561036b57600080fd5b5061024661037a366004614040565b61136c565b34801561038b57600080fd5b506103ba61039a366004613e3b565b600160209081526000928352604080842090915290825290205460ff1681565b60405190151581526020016101fb565b6102246113ac565b3480156103de57600080fd5b5061026860025481565b3480156103f457600080fd5b506101da7f000000000000000000000000000000000000000000000000000000000000000081565b34801561042857600080fd5b50610246610437366004614040565b6116b4565b34801561044857600080fd5b506101da7f000000000000000000000000000000000000000000000000000000000000000081565b34801561047c57600080fd5b5061022461048b366004613e66565b6116f4565b34801561049c57600080fd5b506101da7f000000000000000000000000000000000000000000000000000000000000000081565b3480156104d057600080fd5b5061026860035481565b3480156104e657600080fd5b5061026860045481565b3480156104fc57600080fd5b5061022461050b366004613e3b565b611b67565b34801561051c57600080fd5b5061024661052b366004614113565b611d3a565b34801561053c57600080fd5b506101da61054b366004613fe1565b60006020819052908152604090205473ffffffffffffffffffffffffffffffffffffffff1681565b34801561057f57600080fd5b5061022461058e366004613e3b565b611ebd565b6040517fb4ed0b6d000000000000000000000000000000000000000000000000000000008152600481018290527f000000000000000000000000000000000000000000000000000000000000000073ffffffffffffffffffffffffffffffffffffffff169063b4ed0b6d9060240160206040518083038186803b15801561061957600080fd5b505afa15801561062d573d6000803e3d6000fd5b505050506040513d601f19601f820116820180604052508101906106519190613e1f565b60009182526020829052604090912080547fffffffffffffffffffffffff00000000000000000000000000000000000000001673ffffffffffffffffffffffffffffffffffffffff909216919091179055565b60608142811015610716576040517f08c379a000000000000000000000000000000000000000000000000000000000815260206004820152601160248201527f547261646520686173206578706972656400000000000000000000000000000060448201526064015b60405180910390fd5b60006107218961217b565b9050606061076c610732838c614343565b898989808060200260200160405190810160405280939291908181526020018383602002808284376000920191909152506121a592505050565b909450905061082333888860008161079457634e487b7160e01b600052603260045260246000fd5b90506020020160208101906107a99190613dfc565b89896107b6600182614343565b8181106107d357634e487b7160e01b600052603260045260246000fd5b90506020020160208101906107e89190613dfc565b8d8860018a516107f89190614343565b8151811061081657634e487b7160e01b600052603260045260246000fd5b602002602001015161252f565b610830848a838a8a612a73565b5050509695505050505050565b606560009081526020527f4a7203f705e51df4a56139a9b86b4a0970bed7ab7a3446eaffe2289989c1645c5473ffffffffffffffffffffffffffffffffffffffff166040517fb3db428b00000000000000000000000000000000000000000000000000000000815233600482015273ffffffffffffffffffffffffffffffffffffffff848116602483015260448201849052919091169063b3db428b90606401600060405180830381600087803b1580156108f757600080fd5b505af115801561090b573d6000803e3d6000fd5b505050506000610959606860009081526020527faa071f48f62aaaa1f6320aaa7bd2ad2d552d05160892c14d699d38c9920d5f995473ffffffffffffffffffffffffffffffffffffffff1690565b6040517f52a664d900000000000000000000000000000000000000000000000000000000815233600482015273ffffffffffffffffffffffffffffffffffffffff85811660248301526044820185905291909116906352a664d990606401602060405180830381600087803b1580156109d157600080fd5b505af11580156109e5573d6000803e3d6000fd5b505050506040513d601f19601f82011682018060405250810190610a099190613ff9565b90508015610ae857606660009081526020527f422cccb7cea5c0e46f340bb7b21b81debac329f72e31669c20ff0f3a05cc2b5b5473ffffffffffffffffffffffffffffffffffffffff166040517f2a6a897b00000000000000000000000000000000000000000000000000000000815273ffffffffffffffffffffffffffffffffffffffff8581166004830152602482018490529190911690632a6a897b90604401600060405180830381600087803b158015610ac557600080fd5b505af1158015610ad9573d6000803e3d6000fd5b50505050610ae8833383612d3e565b60405133907fe7b1fae3a790ceab07642c09617df79428b02832cd512bbfdd4db50272dcdf3090600090a2505050565b606860009081526020527faa071f48f62aaaa1f6320aaa7bd2ad2d552d05160892c14d699d38c9920d5f995473ffffffffffffffffffffffffffffffffffffffff166040517fd0eb665300000000000000000000000000000000000000000000000000000000815233600482015273ffffffffffffffffffffffffffffffffffffffff7f00000000000000000000000000000000000000000000000000000000000000008116602483015260448201849052919091169063d0eb665390606401600060405180830381600087803b158015610bf257600080fd5b505af1158015610c06573d6000803e3d6000fd5b50506065600090815260205250507f4a7203f705e51df4a56139a9b86b4a0970bed7ab7a3446eaffe2289989c1645c5473ffffffffffffffffffffffffffffffffffffffff166040517f4782f7790000000000000000000000000000000000000000000000000000000081523360048201526024810183905273ffffffffffffffffffffffffffffffffffffffff9190911690634782f77990604401600060405180830381600087803b158015610cbc57600080fd5b505af1158015610cd0573d6000803e3d6000fd5b50506040513392507fe7b1fae3a790ceab07642c09617df79428b02832cd512bbfdd4db50272dcdf309150600090a250565b6060610d0d33612d97565b610d99576040517f08c379a000000000000000000000000000000000000000000000000000000000815260206004820152603e60248201527f43616c6c696e6720636f6e7472616374206973206e6f7420617574686f72697a60448201527f656420746f20747261646520776974682070726f746f636c2066756e64730000606482015260840161070d565b6060610dd987868686808060200260200160405190810160405280939291908181526020018383602002808284376000920191909152506121a592505050565b9092509050610deb8287838787612a73565b5095945050505050565b6040517f93552a3d0000000000000000000000000000000000000000000000000000000081526004810183905273ffffffffffffffffffffffffffffffffffffffff82811660248301527f000000000000000000000000000000000000000000000000000000000000000016906393552a3d9060440160206040518083038186803b158015610e8357600080fd5b505afa158015610e97573d6000803e3d6000fd5b505050506040513d601f19601f82011682018060405250810190610ebb9190613f73565b73ffffffffffffffffffffffffffffffffffffffff9190911660009081526001602090815260408083209483529390529190912080547fffffffffffffffffffffffffffffffffffffffffffffffffffffffffffffff0016911515919091179055565b6060610f2933612d97565b610fb5576040517f08c379a000000000000000000000000000000000000000000000000000000000815260206004820152603e60248201527f43616c6c696e6720636f6e7472616374206973206e6f7420617574686f72697a60448201527f656420746f20747261646520776974682070726f746f636c2066756e64730000606482015260840161070d565b6060610ff58786868680806020026020016040519081016040528093929190818152602001838360200280828437600092019190915250612dd292505050565b9092509050610deb828783878761317e565b600080611052606860009081526020527faa071f48f62aaaa1f6320aaa7bd2ad2d552d05160892c14d699d38c9920d5f995473ffffffffffffffffffffffffffffffffffffffff1690565b6040517f409fdb7200000000000000000000000000000000000000000000000000000000815233600482015273ffffffffffffffffffffffffffffffffffffffff919091169063409fdb729060240160006040518083038186803b1580156110b957600080fd5b505afa1580156110cd573d6000803e3d6000fd5b505050506040513d6000823e601f3d9081017fffffffffffffffffffffffffffffffffffffffffffffffffffffffffffffffe01682016040526111139190810190613ead565b9150915061115f606860009081526020527faa071f48f62aaaa1f6320aaa7bd2ad2d552d05160892c14d699d38c9920d5f995473ffffffffffffffffffffffffffffffffffffffff1690565b6040517fdb2d904d00000000000000000000000000000000000000000000000000000000815233600482015273ffffffffffffffffffffffffffffffffffffffff919091169063db2d904d90602401600060405180830381600087803b1580156111c857600080fd5b505af11580156111dc573d6000803e3d6000fd5b5050505060005b808351111561133c57606560009081526020527f4a7203f705e51df4a56139a9b86b4a0970bed7ab7a3446eaffe2289989c1645c5473ffffffffffffffffffffffffffffffffffffffff1673ffffffffffffffffffffffffffffffffffffffff1663d9caed1284838151811061126957634e487b7160e01b600052603260045260246000fd5b60200260200101513385858151811061129257634e487b7160e01b600052603260045260246000fd5b60209081029190910101516040517fffffffff0000000000000000000000000000000000000000000000000000000060e086901b16815273ffffffffffffffffffffffffffffffffffffffff93841660048201529290911660248301526044820152606401600060405180830381600087803b15801561131157600080fd5b505af1158015611325573d6000803e3d6000fd5b5050505080806113349061438f565b9150506111e3565b5060405133907fe7b1fae3a790ceab07642c09617df79428b02832cd512bbfdd4db50272dcdf3090600090a25050565b6060610deb8585858580806020026020016040519081016040528093929190818152602001838360200280828437600092019190915250612dd292505050565b606560009081526020527f4a7203f705e51df4a56139a9b86b4a0970bed7ab7a3446eaffe2289989c1645c5473ffffffffffffffffffffffffffffffffffffffff1673ffffffffffffffffffffffffffffffffffffffff1663a6a5f9fe346040518263ffffffff1660e01b81526004016000604051808303818588803b15801561143557600080fd5b505af1158015611449573d6000803e3d6000fd5b50505050506000611498606860009081526020527faa071f48f62aaaa1f6320aaa7bd2ad2d552d05160892c14d699d38c9920d5f995473ffffffffffffffffffffffffffffffffffffffff1690565b6040517f52a664d900000000000000000000000000000000000000000000000000000000815233600482015273ffffffffffffffffffffffffffffffffffffffff7f00000000000000000000000000000000000000000000000000000000000000008116602483015234604483015291909116906352a664d990606401602060405180830381600087803b15801561152f57600080fd5b505af1158015611543573d6000803e3d6000fd5b505050506040513d601f19601f820116820180604052508101906115679190613ff9565b9050801561168657606660009081526020527f422cccb7cea5c0e46f340bb7b21b81debac329f72e31669c20ff0f3a05cc2b5b5473ffffffffffffffffffffffffffffffffffffffff166040517f2a6a897b00000000000000000000000000000000000000000000000000000000815273ffffffffffffffffffffffffffffffffffffffff7f000000000000000000000000000000000000000000000000000000000000000081166004830152602482018490529190911690632a6a897b90604401600060405180830381600087803b15801561164357600080fd5b505af1158015611657573d6000803e3d6000fd5b505050506116867f00000000000000000000000000000000000000000000000000000000000000003383612d3e565b60405133907fe7b1fae3a790ceab07642c09617df79428b02832cd512bbfdd4db50272dcdf3090600090a250565b6060610deb85858585808060200260200160405190810160405280939291908181526020018383602002808284376000920191909152506121a592505050565b606560009081526020527f4a7203f705e51df4a56139a9b86b4a0970bed7ab7a3446eaffe2289989c1645c5473ffffffffffffffffffffffffffffffffffffffff166040517fb3db428b00000000000000000000000000000000000000000000000000000000815233600482015273ffffffffffffffffffffffffffffffffffffffff868116602483015260448201869052919091169063b3db428b90606401600060405180830381600087803b1580156117ae57600080fd5b505af11580156117c2573d6000803e3d6000fd5b50506066600090815260205250507f422cccb7cea5c0e46f340bb7b21b81debac329f72e31669c20ff0f3a05cc2b5b5473ffffffffffffffffffffffffffffffffffffffff166040517fee0862bf00000000000000000000000000000000000000000000000000000000815273ffffffffffffffffffffffffffffffffffffffff848116600483015260248201849052919091169063ee0862bf90604401600060405180830381600087803b15801561187a57600080fd5b505af115801561188e573d6000803e3d6000fd5b50506068600090815260205250507faa071f48f62aaaa1f6320aaa7bd2ad2d552d05160892c14d699d38c9920d5f995473ffffffffffffffffffffffffffffffffffffffff166040517f1d84cc1800000000000000000000000000000000000000000000000000000000815233600482015273ffffffffffffffffffffffffffffffffffffffff8681166024830152604482018690528481166064830152608482018490529190911690631d84cc189060a401600060405180830381600087803b15801561195b57600080fd5b505af115801561196f573d6000803e3d6000fd5b50506066600090815260205250507f422cccb7cea5c0e46f340bb7b21b81debac329f72e31669c20ff0f3a05cc2b5b5473ffffffffffffffffffffffffffffffffffffffff166040517fdc683bcf00000000000000000000000000000000000000000000000000000000815273ffffffffffffffffffffffffffffffffffffffff8481166004830152919091169063dc683bcf90602401602060405180830381600087803b158015611a2057600080fd5b505af1158015611a34573d6000803e3d6000fd5b505050506040513d601f19601f82011682018060405250810190611a589190613ff9565b50606560009081526020527f4a7203f705e51df4a56139a9b86b4a0970bed7ab7a3446eaffe2289989c1645c5473ffffffffffffffffffffffffffffffffffffffff166040517fd9caed1200000000000000000000000000000000000000000000000000000000815273ffffffffffffffffffffffffffffffffffffffff848116600483015233602483015260448201849052919091169063d9caed1290606401600060405180830381600087803b158015611b1357600080fd5b505af1158015611b27573d6000803e3d6000fd5b50505050611b36823383613235565b60405133907fe7b1fae3a790ceab07642c09617df79428b02832cd512bbfdd4db50272dcdf3090600090a250505050565b606860009081526020527faa071f48f62aaaa1f6320aaa7bd2ad2d552d05160892c14d699d38c9920d5f995473ffffffffffffffffffffffffffffffffffffffff166040517fd0eb665300000000000000000000000000000000000000000000000000000000815233600482015273ffffffffffffffffffffffffffffffffffffffff848116602483015260448201849052919091169063d0eb665390606401600060405180830381600087803b158015611c2157600080fd5b505af1158015611c35573d6000803e3d6000fd5b50506065600090815260205250507f4a7203f705e51df4a56139a9b86b4a0970bed7ab7a3446eaffe2289989c1645c5473ffffffffffffffffffffffffffffffffffffffff166040517fd9caed1200000000000000000000000000000000000000000000000000000000815273ffffffffffffffffffffffffffffffffffffffff848116600483015233602483015260448201849052919091169063d9caed1290606401600060405180830381600087803b158015611cf357600080fd5b505af1158015611d07573d6000803e3d6000fd5b50506040513392507fe7b1fae3a790ceab07642c09617df79428b02832cd512bbfdd4db50272dcdf309150600090a25050565b60608142811015611da7576040517f08c379a000000000000000000000000000000000000000000000000000000000815260206004820152601160248201527f5472616465206861732065787069726564000000000000000000000000000000604482015260640161070d565b6060611df9611db58a613285565b611dbf908b6142ce565b88888880806020026020016040519081016040528093929190818152602001838360200280828437600092019190915250612dd292505050565b9093509050611ea4338787600081611e2157634e487b7160e01b600052603260045260246000fd5b9050602002016020810190611e369190613dfc565b8888611e43600182614343565b818110611e6057634e487b7160e01b600052603260045260246000fd5b9050602002016020810190611e759190613dfc565b86600081518110611e9657634e487b7160e01b600052603260045260246000fd5b60200260200101518d61252f565b611eb1838983898961317e565b50509695505050505050565b606660009081526020527f422cccb7cea5c0e46f340bb7b21b81debac329f72e31669c20ff0f3a05cc2b5b5473ffffffffffffffffffffffffffffffffffffffff166040517fee0862bf00000000000000000000000000000000000000000000000000000000815273ffffffffffffffffffffffffffffffffffffffff848116600483015260248201849052919091169063ee0862bf90604401600060405180830381600087803b158015611f7157600080fd5b505af1158015611f85573d6000803e3d6000fd5b50506068600090815260205250507faa071f48f62aaaa1f6320aaa7bd2ad2d552d05160892c14d699d38c9920d5f995473ffffffffffffffffffffffffffffffffffffffff166040517f498d55eb00000000000000000000000000000000000000000000000000000000815233600482015273ffffffffffffffffffffffffffffffffffffffff848116602483015260448201849052919091169063498d55eb90606401600060405180830381600087803b15801561204357600080fd5b505af1158015612057573d6000803e3d6000fd5b50506066600090815260205250507f422cccb7cea5c0e46f340bb7b21b81debac329f72e31669c20ff0f3a05cc2b5b5473ffffffffffffffffffffffffffffffffffffffff166040517fdc683bcf00000000000000000000000000000000000000000000000000000000815273ffffffffffffffffffffffffffffffffffffffff8481166004830152919091169063dc683bcf90602401602060405180830381600087803b15801561210857600080fd5b505af115801561211c573d6000803e3d6000fd5b505050506040513d601f19601f820116820180604052508101906121409190613ff9565b5061214c823383613235565b60405133907fe7b1fae3a790ceab07642c09617df79428b02832cd512bbfdd4db50272dcdf3090600090a25050565b600061218a600a6127106142ce565b61219583600a614306565b61219f91906142e6565b92915050565b606080600283511015612214576040517f08c379a000000000000000000000000000000000000000000000000000000000815260206004820152601460248201527f746f6b656e207061746820746f6f2073686f7274000000000000000000000000604482015260640161070d565b825167ffffffffffffffff81111561223c57634e487b7160e01b600052604160045260246000fd5b604051908082528060200260200182016040528015612265578160200160208202803683370190505b509150848260008151811061228a57634e487b7160e01b600052603260045260246000fd5b602002602001018181525050600183516122a49190614343565b67ffffffffffffffff8111156122ca57634e487b7160e01b600052604160045260246000fd5b6040519080825280602002602001820160405280156122f3578160200160208202803683370190505b50905060005b600184516123079190614343565b81101561252657600084828151811061233057634e487b7160e01b600052603260045260246000fd5b6020026020010151905060008583600161234a91906142ce565b8151811061236857634e487b7160e01b600052603260045260246000fd5b60200260200101519050600087846020811061239457634e487b7160e01b600052603260045260246000fd5b1a60f81b7fff00000000000000000000000000000000000000000000000000000000000000161561242d578784602081106123df57634e487b7160e01b600052603260045260246000fd5b1a60f81b7effffffffffffffffffffffffffffffffffffffffffffffffffffffffffffff1916600160f81b1461241e576124198383613295565b612428565b61242883836133cf565b612437565b61243783836134ca565b90508085858151811061245a57634e487b7160e01b600052603260045260246000fd5b602002602001019073ffffffffffffffffffffffffffffffffffffffff16908173ffffffffffffffffffffffffffffffffffffffff16815250506000806124a28386866135c5565b915091506124d88887815181106124c957634e487b7160e01b600052603260045260246000fd5b602002602001015183836136c9565b886124e48860016142ce565b8151811061250257634e487b7160e01b600052603260045260246000fd5b6020026020010181815250505050505050808061251e9061438f565b9150506122f9565b50935093915050565b60008061257a606860009081526020527faa071f48f62aaaa1f6320aaa7bd2ad2d552d05160892c14d699d38c9920d5f995473ffffffffffffffffffffffffffffffffffffffff1690565b6040517f3500aa0b00000000000000000000000000000000000000000000000000000000815273ffffffffffffffffffffffffffffffffffffffff89811660048301528881166024830152878116604483015260648201879052608482018690529190911690633500aa0b9060a4016040805180830381600087803b15801561260257600080fd5b505af1158015612616573d6000803e3d6000fd5b505050506040513d601f19601f8201168201806040525081019061263a9190614091565b9092509050811561280257606660009081526020527f422cccb7cea5c0e46f340bb7b21b81debac329f72e31669c20ff0f3a05cc2b5b5473ffffffffffffffffffffffffffffffffffffffff166040517f2a6a897b00000000000000000000000000000000000000000000000000000000815273ffffffffffffffffffffffffffffffffffffffff8781166004830152602482018590529190911690632a6a897b90604401600060405180830381600087803b1580156126f957600080fd5b505af115801561270d573d6000803e3d6000fd5b50506066600090815260205250507f422cccb7cea5c0e46f340bb7b21b81debac329f72e31669c20ff0f3a05cc2b5b5473ffffffffffffffffffffffffffffffffffffffff166040517fdc683bcf00000000000000000000000000000000000000000000000000000000815273ffffffffffffffffffffffffffffffffffffffff8781166004830152919091169063dc683bcf90602401602060405180830381600087803b1580156127be57600080fd5b505af11580156127d2573d6000803e3d6000fd5b505050506040513d601f19601f820116820180604052508101906127f69190613ff9565b50612802858884612d3e565b80156129c557606660009081526020527f422cccb7cea5c0e46f340bb7b21b81debac329f72e31669c20ff0f3a05cc2b5b5473ffffffffffffffffffffffffffffffffffffffff166040517fee0862bf00000000000000000000000000000000000000000000000000000000815273ffffffffffffffffffffffffffffffffffffffff888116600483015260248201849052919091169063ee0862bf90604401600060405180830381600087803b1580156128bc57600080fd5b505af11580156128d0573d6000803e3d6000fd5b50506066600090815260205250507f422cccb7cea5c0e46f340bb7b21b81debac329f72e31669c20ff0f3a05cc2b5b5473ffffffffffffffffffffffffffffffffffffffff166040517fdc683bcf00000000000000000000000000000000000000000000000000000000815273ffffffffffffffffffffffffffffffffffffffff8881166004830152919091169063dc683bcf90602401602060405180830381600087803b15801561298157600080fd5b505af1158015612995573d6000803e3d6000fd5b505050506040513d601f19601f820116820180604052508101906129b99190613ff9565b506129c5868883613235565b60405173ffffffffffffffffffffffffffffffffffffffff8816907fe7b1fae3a790ceab07642c09617df79428b02832cd512bbfdd4db50272dcdf3090600090a26040805173ffffffffffffffffffffffffffffffffffffffff8881168252878116602083015291810186905260608101859052908816907f610a6fcfd0e5da3e1f98054761ba753182ff6f350467da719cae9d94e5f541369060800160405180910390a250505050505050565b838560018751612a839190614343565b81518110612aa157634e487b7160e01b600052603260045260246000fd5b60200260200101511015612b37576040517f08c379a000000000000000000000000000000000000000000000000000000000815260206004820152602860248201527f4d617267696e526f757465723a20494e53554646494349454e545f4f5554505560448201527f545f414d4f554e54000000000000000000000000000000000000000000000000606482015260840161070d565b606560009081526020527f4a7203f705e51df4a56139a9b86b4a0970bed7ab7a3446eaffe2289989c1645c5473ffffffffffffffffffffffffffffffffffffffff1673ffffffffffffffffffffffffffffffffffffffff1663d9caed1283836000818110612bb557634e487b7160e01b600052603260045260246000fd5b9050602002016020810190612bca9190613dfc565b85600081518110612beb57634e487b7160e01b600052603260045260246000fd5b602002602001015188600081518110612c1457634e487b7160e01b600052603260045260246000fd5b60209081029190910101516040517fffffffff0000000000000000000000000000000000000000000000000000000060e086901b16815273ffffffffffffffffffffffffffffffffffffffff93841660048201529290911660248301526044820152606401600060405180830381600087803b158015612c9357600080fd5b505af1158015612ca7573d6000803e3d6000fd5b50505050612cf28584848480806020026020016040519081016040528093929190818152602001838360200280828437600092019190915250612ced9250612cf9915050565b61381e565b5050505050565b606560009081526020527f4a7203f705e51df4a56139a9b86b4a0970bed7ab7a3446eaffe2289989c1645c5473ffffffffffffffffffffffffffffffffffffffff1690565b6040805173ffffffffffffffffffffffffffffffffffffffff8581168252602082018490528416917f3397b60e3ca1e9c0c75a033d62ab8731e9b2937c0690ae5d7f1bd37886b19d7d91015b60405180910390a2505050565b73ffffffffffffffffffffffffffffffffffffffff811660009081526001602090815260408083206007845290915290205460ff165b919050565b606080600283511015612e41576040517f08c379a000000000000000000000000000000000000000000000000000000000815260206004820152601460248201527f746f6b656e207061746820746f6f2073686f7274000000000000000000000000604482015260640161070d565b825167ffffffffffffffff811115612e6957634e487b7160e01b600052604160045260246000fd5b604051908082528060200260200182016040528015612e92578160200160208202803683370190505b509150848260018451612ea59190614343565b81518110612ec357634e487b7160e01b600052603260045260246000fd5b60200260200101818152505060018351612edd9190614343565b67ffffffffffffffff811115612f0357634e487b7160e01b600052604160045260246000fd5b604051908082528060200260200182016040528015612f2c578160200160208202803683370190505b509050600060018451612f3f9190614343565b90505b801561252657600084612f56600184614343565b81518110612f7457634e487b7160e01b600052603260045260246000fd5b602002602001015190506000858381518110612fa057634e487b7160e01b600052603260045260246000fd5b60200260200101519050600087600185612fba9190614343565b60208110612fd857634e487b7160e01b600052603260045260246000fd5b1a60f81b7fff00000000000000000000000000000000000000000000000000000000000000161561307b578761300f600186614343565b6020811061302d57634e487b7160e01b600052603260045260246000fd5b1a60f81b7effffffffffffffffffffffffffffffffffffffffffffffffffffffffffffff1916600160f81b1461306c576130678383613295565b613076565b61307683836133cf565b613085565b61308583836134ca565b90508085613094600187614343565b815181106130b257634e487b7160e01b600052603260045260246000fd5b602002602001019073ffffffffffffffffffffffffffffffffffffffff16908173ffffffffffffffffffffffffffffffffffffffff16815250506000806130fa8386866135c5565b9150915061313088878151811061312157634e487b7160e01b600052603260045260246000fd5b60200260200101518383613a73565b8861313c600189614343565b8151811061315a57634e487b7160e01b600052603260045260246000fd5b602002602001018181525050505050505080806131769061435a565b915050612f42565b83856000815181106131a057634e487b7160e01b600052603260045260246000fd5b60200260200101511115612b37576040517f08c379a0000000000000000000000000000000000000000000000000000000008152602060048201526024808201527f4d617267696e526f757465723a204558434553534956455f494e5055545f414d60448201527f4f554e5400000000000000000000000000000000000000000000000000000000606482015260840161070d565b6040805173ffffffffffffffffffffffffffffffffffffffff8581168252602082018490528416917f8ec70c9430377a4bba035133e27a5b0f3b9951bc080833f6832bcbbb70a96dba9101612d8a565b600061271061219583600a614306565b60008060006132a48585613bcd565b6040517fffffffffffffffffffffffffffffffffffffffff000000000000000000000000606084811b8216602084015283901b16603482015291935091507f00000000000000000000000000000000000000000000000000000000000000009060480160405160208183030381529060405280519060200120600454604051602001613390939291907fff00000000000000000000000000000000000000000000000000000000000000815260609390931b7fffffffffffffffffffffffffffffffffffffffff0000000000000000000000001660018401526015830191909152603582015260550190565b604080517fffffffffffffffffffffffffffffffffffffffffffffffffffffffffffffffe0818403018152919052805160209091012095945050505050565b60008060006133de8585613bcd565b6040517fffffffffffffffffffffffffffffffffffffffff000000000000000000000000606084811b8216602084015283901b16603482015291935091507f00000000000000000000000000000000000000000000000000000000000000009060480160405160208183030381529060405280519060200120600354604051602001613390939291907fff00000000000000000000000000000000000000000000000000000000000000815260609390931b7fffffffffffffffffffffffffffffffffffffffff0000000000000000000000001660018401526015830191909152603582015260550190565b60008060006134d98585613bcd565b6040517fffffffffffffffffffffffffffffffffffffffff000000000000000000000000606084811b8216602084015283901b16603482015291935091507f00000000000000000000000000000000000000000000000000000000000000009060480160405160208183030381529060405280519060200120600254604051602001613390939291907fff00000000000000000000000000000000000000000000000000000000000000815260609390931b7fffffffffffffffffffffffffffffffffffffffff0000000000000000000000001660018401526015830191909152603582015260550190565b60008060006135d48585613bcd565b5090506000808773ffffffffffffffffffffffffffffffffffffffff16630902f1ac6040518163ffffffff1660e01b815260040160606040518083038186803b15801561362057600080fd5b505afa158015613634573d6000803e3d6000fd5b505050506040513d601f19601f820116820180604052508101906136589190613f93565b506dffffffffffffffffffffffffffff1691506dffffffffffffffffffffffffffff1691508273ffffffffffffffffffffffffffffffffffffffff168773ffffffffffffffffffffffffffffffffffffffff16146136b75780826136ba565b81815b90999098509650505050505050565b6000808411613734576040517f08c379a000000000000000000000000000000000000000000000000000000000815260206004820152601960248201527f494e53554646494349454e545f494e5055545f414d4f554e5400000000000000604482015260640161070d565b6000831180156137445750600082115b6137d0576040517f08c379a000000000000000000000000000000000000000000000000000000000815260206004820152602860248201527f556e697377617056324c6962726172793a20494e53554646494349454e545f4c60448201527f4951554944495459000000000000000000000000000000000000000000000000606482015260840161070d565b60006137de856103e5614306565b905060006137ec8483614306565b90506000826137fd876103e8614306565b61380791906142ce565b905061381381836142e6565b979650505050505050565b60005b8351811015612cf25760008084838151811061384d57634e487b7160e01b600052603260045260246000fd5b60200260200101518584600161386391906142ce565b8151811061388157634e487b7160e01b600052603260045260246000fd5b60200260200101519150915060006138998383613bcd565b5090506000886138aa8660016142ce565b815181106138c857634e487b7160e01b600052603260045260246000fd5b602002602001015190506000808373ffffffffffffffffffffffffffffffffffffffff168673ffffffffffffffffffffffffffffffffffffffff161461391057826000613914565b6000835b91509150600060018b516139289190614343565b88106139345788613967565b8a6139408960016142ce565b8151811061395e57634e487b7160e01b600052603260045260246000fd5b60200260200101515b905060008b898151811061398b57634e487b7160e01b600052603260045260246000fd5b602002602001015190508073ffffffffffffffffffffffffffffffffffffffff1663022c0d9f858585600067ffffffffffffffff8111156139dc57634e487b7160e01b600052604160045260246000fd5b6040519080825280601f01601f191660200182016040528015613a06576020820181803683370190505b506040518563ffffffff1660e01b8152600401613a2694939291906141be565b600060405180830381600087803b158015613a4057600080fd5b505af1158015613a54573d6000803e3d6000fd5b5050505050505050505050508080613a6b9061438f565b915050613821565b6000808411613ade576040517f08c379a000000000000000000000000000000000000000000000000000000000815260206004820152601a60248201527f494e53554646494349454e545f4f55545055545f414d4f554e54000000000000604482015260640161070d565b600083118015613aee5750600082115b613b7a576040517f08c379a000000000000000000000000000000000000000000000000000000000815260206004820152602860248201527f556e697377617056324c6962726172793a20494e53554646494349454e545f4c60448201527f4951554944495459000000000000000000000000000000000000000000000000606482015260840161070d565b6000613b868585614306565b613b92906103e8614306565b90506000613ba08685614343565b613bac906103e5614306565b9050613bb881836142e6565b613bc39060016142ce565b9695505050505050565b6000808273ffffffffffffffffffffffffffffffffffffffff168473ffffffffffffffffffffffffffffffffffffffff161415613c66576040517f08c379a000000000000000000000000000000000000000000000000000000000815260206004820152601260248201527f4964656e746963616c2061646472657373210000000000000000000000000000604482015260640161070d565b8273ffffffffffffffffffffffffffffffffffffffff168473ffffffffffffffffffffffffffffffffffffffff1610613ca0578284613ca3565b83835b909250905073ffffffffffffffffffffffffffffffffffffffff8216613d25576040517f08c379a000000000000000000000000000000000000000000000000000000000815260206004820152600d60248201527f5a65726f20616464726573732100000000000000000000000000000000000000604482015260640161070d565b9250929050565b60008083601f840112613d3d578182fd5b50813567ffffffffffffffff811115613d54578182fd5b6020830191508360208260051b8501011115613d2557600080fd5b600082601f830112613d7f578081fd5b81516020613d94613d8f836142aa565b61425b565b80838252828201915082860187848660051b8901011115613db3578586fd5b855b85811015613dd157815184529284019290840190600101613db5565b5090979650505050505050565b80516dffffffffffffffffffffffffffff81168114612dcd57600080fd5b600060208284031215613e0d578081fd5b8135613e18816143f4565b9392505050565b600060208284031215613e30578081fd5b8151613e18816143f4565b60008060408385031215613e4d578081fd5b8235613e58816143f4565b946020939093013593505050565b60008060008060808587031215613e7b578182fd5b8435613e86816143f4565b9350602085013592506040850135613e9d816143f4565b9396929550929360600135925050565b60008060408385031215613ebf578182fd5b825167ffffffffffffffff80821115613ed6578384fd5b818501915085601f830112613ee9578384fd5b81516020613ef9613d8f836142aa565b8083825282820191508286018a848660051b8901011115613f18578889fd5b8896505b84871015613f43578051613f2f816143f4565b835260019690960195918301918301613f1c565b5091880151919650909350505080821115613f5c578283fd5b50613f6985828601613d6f565b9150509250929050565b600060208284031215613f84578081fd5b81518015158114613e18578182fd5b600080600060608486031215613fa7578283fd5b613fb084613dde565b9250613fbe60208501613dde565b9150604084015163ffffffff81168114613fd6578182fd5b809150509250925092565b600060208284031215613ff2578081fd5b5035919050565b60006020828403121561400a578081fd5b5051919050565b60008060408385031215614023578182fd5b823591506020830135614035816143f4565b809150509250929050565b60008060008060608587031215614055578384fd5b8435935060208501359250604085013567ffffffffffffffff811115614079578283fd5b61408587828801613d2c565b95989497509550505050565b600080604083850312156140a3578182fd5b505080516020909101519092909150565b6000806000806000608086880312156140cb578283fd5b853594506020860135935060408601359250606086013567ffffffffffffffff8111156140f6578182fd5b61410288828901613d2c565b969995985093965092949392505050565b60008060008060008060a0878903121561412b578384fd5b863595506020870135945060408701359350606087013567ffffffffffffffff811115614156578182fd5b61416289828a01613d2c565b979a9699509497949695608090950135949350505050565b6020808252825182820181905260009190848201906040850190845b818110156141b257835183529284019291840191600101614196565b50909695505050505050565b60008582526020858184015273ffffffffffffffffffffffffffffffffffffffff85166040840152608060608401528351806080850152825b818110156142135785810183015185820160a0015282016141f7565b81811115614224578360a083870101525b50601f017fffffffffffffffffffffffffffffffffffffffffffffffffffffffffffffffe0169290920160a0019695505050505050565b604051601f82017fffffffffffffffffffffffffffffffffffffffffffffffffffffffffffffffe016810167ffffffffffffffff811182821017156142a2576142a26143de565b604052919050565b600067ffffffffffffffff8211156142c4576142c46143de565b5060051b60200190565b600082198211156142e1576142e16143c8565b500190565b60008261430157634e487b7160e01b81526012600452602481fd5b500490565b6000817fffffffffffffffffffffffffffffffffffffffffffffffffffffffffffffffff048311821515161561433e5761433e6143c8565b500290565b600082821015614355576143556143c8565b500390565b600081614369576143696143c8565b507fffffffffffffffffffffffffffffffffffffffffffffffffffffffffffffffff0190565b60007fffffffffffffffffffffffffffffffffffffffffffffffffffffffffffffffff8214156143c1576143c16143c8565b5060010190565b634e487b7160e01b600052601160045260246000fd5b634e487b7160e01b600052604160045260246000fd5b73ffffffffffffffffffffffffffffffffffffffff8116811461441657600080fd5b5056fea2646970667358221220b1638155709f724bd38601d052bba87241a84707c703ec3af5d1c27985f04cb064736f6c63430008030033",
  "devdoc": {
    "kind": "dev",
    "methods": {
      "crossOvercollateralizedBorrow(address,uint256,address,uint256)": {
        "details": "caution: the account still has to have a positive balaance at the end of the withdraw. So an underwater account may not be able to withdraw"
      }
    },
    "title": "Top level transaction controller",
    "version": 1
  },
  "userdoc": {
    "kind": "user",
    "methods": {
      "authorizedSwapExactT4T(uint256,uint256,bytes32,address[])": {
        "notice": "make swaps on AMM using protocol funds, only for authorized contracts"
      },
      "crossBorrow(address,uint256)": {
        "notice": "borrow into cross margin trading account"
      },
      "crossCloseAccount()": {
        "notice": "close an account that is no longer borrowing and return gains"
      },
      "crossDeposit(address,uint256)": {
        "notice": "traders call this to deposit funds on cross margin"
      },
      "crossDepositETH()": {
        "notice": "deposit wrapped ehtereum into cross margin account"
      },
      "crossOvercollateralizedBorrow(address,uint256,address,uint256)": {
        "notice": "convenience function to perform overcollateralized borrowing against a cross margin account."
      },
      "crossWithdraw(address,uint256)": {
        "notice": "withdraw deposits/earnings from cross margin account"
      },
      "crossWithdrawETH(uint256)": {
        "notice": "withdraw ethereum from cross margin account"
      },
      "swapExactTokensForTokens(uint256,uint256,bytes32,address[],uint256)": {
        "notice": "entry point for swapping tokens held in cross margin account"
      },
      "swapTokensForExactTokens(uint256,uint256,bytes32,address[],uint256)": {
        "notice": "entry point for swapping tokens held in cross margin account"
      }
    },
    "version": 1
  },
  "storageLayout": {
    "storage": [
      {
        "astId": 9349,
        "contract": "contracts/MarginRouter.sol:MarginRouter",
        "label": "mainCharacterCache",
        "offset": 0,
        "slot": "0",
        "type": "t_mapping(t_uint256,t_address)"
      },
      {
        "astId": 9355,
        "contract": "contracts/MarginRouter.sol:MarginRouter",
        "label": "roleCache",
        "offset": 0,
        "slot": "1",
        "type": "t_mapping(t_address,t_mapping(t_uint256,t_bool))"
      },
      {
        "astId": 21738,
        "contract": "contracts/MarginRouter.sol:MarginRouter",
        "label": "amm1InitHash",
        "offset": 0,
        "slot": "2",
        "type": "t_bytes32"
      },
      {
        "astId": 21740,
        "contract": "contracts/MarginRouter.sol:MarginRouter",
        "label": "amm2InitHash",
        "offset": 0,
        "slot": "3",
        "type": "t_bytes32"
      },
      {
        "astId": 21742,
        "contract": "contracts/MarginRouter.sol:MarginRouter",
        "label": "amm3InitHash",
        "offset": 0,
        "slot": "4",
        "type": "t_bytes32"
      }
    ],
    "types": {
      "t_address": {
        "encoding": "inplace",
        "label": "address",
        "numberOfBytes": "20"
      },
      "t_bool": {
        "encoding": "inplace",
        "label": "bool",
        "numberOfBytes": "1"
      },
      "t_bytes32": {
        "encoding": "inplace",
        "label": "bytes32",
        "numberOfBytes": "32"
      },
      "t_mapping(t_address,t_mapping(t_uint256,t_bool))": {
        "encoding": "mapping",
        "key": "t_address",
        "label": "mapping(address => mapping(uint256 => bool))",
        "numberOfBytes": "32",
        "value": "t_mapping(t_uint256,t_bool)"
      },
      "t_mapping(t_uint256,t_address)": {
        "encoding": "mapping",
        "key": "t_uint256",
        "label": "mapping(uint256 => address)",
        "numberOfBytes": "32",
        "value": "t_address"
      },
      "t_mapping(t_uint256,t_bool)": {
        "encoding": "mapping",
        "key": "t_uint256",
        "label": "mapping(uint256 => bool)",
        "numberOfBytes": "32",
        "value": "t_bool"
      },
      "t_uint256": {
        "encoding": "inplace",
        "label": "uint256",
        "numberOfBytes": "32"
      }
    }
  }
}