{
  "address": "0xb1828378bE0966f0A29B5933D7DC0254F059b617",
  "abi": [
    {
      "inputs": [],
      "stateMutability": "nonpayable",
      "type": "constructor"
    },
    {
      "anonymous": false,
      "inputs": [
        {
          "indexed": true,
          "internalType": "address",
          "name": "previousOwner",
          "type": "address"
        },
        {
          "indexed": true,
          "internalType": "address",
          "name": "newOwner",
          "type": "address"
        }
      ],
      "name": "OwnershipTransferred",
      "type": "event"
    },
    {
      "inputs": [],
      "name": "executor",
      "outputs": [
        {
          "internalType": "address",
          "name": "exec",
          "type": "address"
        }
      ],
      "stateMutability": "nonpayable",
      "type": "function"
    },
    {
      "inputs": [
        {
          "internalType": "uint256",
          "name": "role",
          "type": "uint256"
        },
        {
          "internalType": "address",
          "name": "contr",
          "type": "address"
        }
      ],
      "name": "getRole",
      "outputs": [
        {
          "internalType": "bool",
          "name": "",
          "type": "bool"
        }
      ],
      "stateMutability": "view",
      "type": "function"
    },
    {
      "inputs": [
        {
          "internalType": "uint256",
          "name": "role",
          "type": "uint256"
        },
        {
          "internalType": "address",
          "name": "actor",
          "type": "address"
        }
      ],
      "name": "giveRole",
      "outputs": [],
      "stateMutability": "nonpayable",
      "type": "function"
    },
    {
      "inputs": [
        {
          "internalType": "uint256",
          "name": "",
          "type": "uint256"
        }
      ],
      "name": "mainCharacters",
      "outputs": [
        {
          "internalType": "address",
          "name": "",
          "type": "address"
        }
      ],
      "stateMutability": "view",
      "type": "function"
    },
    {
      "inputs": [],
      "name": "owner",
      "outputs": [
        {
          "internalType": "address",
          "name": "",
          "type": "address"
        }
      ],
      "stateMutability": "view",
      "type": "function"
    },
    {
      "inputs": [
        {
          "internalType": "uint256",
          "name": "role",
          "type": "uint256"
        },
        {
          "internalType": "address",
          "name": "actor",
          "type": "address"
        }
      ],
      "name": "removeRole",
      "outputs": [],
      "stateMutability": "nonpayable",
      "type": "function"
    },
    {
      "inputs": [],
      "name": "renounceOwnership",
      "outputs": [],
      "stateMutability": "nonpayable",
      "type": "function"
    },
    {
      "inputs": [
        {
          "internalType": "address",
          "name": "",
          "type": "address"
        },
        {
          "internalType": "uint256",
          "name": "",
          "type": "uint256"
        }
      ],
      "name": "roles",
      "outputs": [
        {
          "internalType": "bool",
          "name": "",
          "type": "bool"
        }
      ],
      "stateMutability": "view",
      "type": "function"
    },
    {
      "inputs": [
        {
          "internalType": "uint256",
          "name": "role",
          "type": "uint256"
        },
        {
          "internalType": "address",
          "name": "actor",
          "type": "address"
        }
      ],
      "name": "setMainCharacter",
      "outputs": [],
      "stateMutability": "nonpayable",
      "type": "function"
    },
    {
      "inputs": [
        {
          "internalType": "address",
          "name": "newOwner",
          "type": "address"
        }
      ],
      "name": "transferOwnership",
      "outputs": [],
      "stateMutability": "nonpayable",
      "type": "function"
    }
  ],
  "transactionHash": "0x97bbd9a1f14825a82a74b992704e5a8159fa8a952a4012f0c7a65bdd453550ef",
  "args": [],
  "solcInputHash": "a08cb513add13ed8d1094fa85991e067",
  "bytecode": "0x608060405234801561001057600080fd5b50600080546001600160a01b031916339081178255604051909182917f8be0079c531659141344cd1fd0a4f28419497f9722a3daafe3b4186f6b6457e0908290a35033600090815260016020818152604080842060098552909152909120805460ff19169091179055610ad4806100886000396000f3fe608060405234801561001057600080fd5b50600436106100be5760003560e01c806393552a3d11610076578063c34c08e51161005b578063c34c08e5146101d3578063f0723d97146101db578063f2fde38b14610209576100be565b806393552a3d1461014a578063b4ed0b6d1461019d576100be565b80634d537769116100a75780634d537769146100eb578063715018a6146100fe5780638da5cb5b14610106576100be565b806325398f83146100c35780633238405b146100d8575b600080fd5b6100d66100d1366004610a4a565b61021c565b005b6100d66100e6366004610a4a565b61038c565b6100d66100f9366004610a4a565b6104f2565b6100d6610655565b60005473ffffffffffffffffffffffffffffffffffffffff165b60405173ffffffffffffffffffffffffffffffffffffffff90911681526020015b60405180910390f35b61018d610158366004610a4a565b73ffffffffffffffffffffffffffffffffffffffff166000908152600160209081526040808320938352929052205460ff1690565b6040519015158152602001610141565b6101206101ab366004610a32565b60026020526000908152604090205473ffffffffffffffffffffffffffffffffffffffff1681565b610120610745565b61018d6101e9366004610a07565b600160209081526000928352604080842090915290825290205460ff1681565b6100d66102173660046109c8565b610817565b3361023c60005473ffffffffffffffffffffffffffffffffffffffff1690565b73ffffffffffffffffffffffffffffffffffffffff16148061027a575033610262610745565b73ffffffffffffffffffffffffffffffffffffffff16145b806102c657506103ea60005260026020527fdbe5cd5858d8b8ba8ddaf6817490b63aa346482dc8fac5b92758c8d2c1b981535473ffffffffffffffffffffffffffffffffffffffff1633145b610331576040517f08c379a000000000000000000000000000000000000000000000000000000000815260206004820152601e60248201527f526f6c65733a2063616c6c6572206973206e6f7420746865206f776e6572000060448201526064015b60405180910390fd5b73ffffffffffffffffffffffffffffffffffffffff16600090815260016020818152604080842094845293905291902080547fffffffffffffffffffffffffffffffffffffffffffffffffffffffffffffff00169091179055565b336103ac60005473ffffffffffffffffffffffffffffffffffffffff1690565b73ffffffffffffffffffffffffffffffffffffffff1614806103ea5750336103d2610745565b73ffffffffffffffffffffffffffffffffffffffff16145b8061043657506103ea60005260026020527fdbe5cd5858d8b8ba8ddaf6817490b63aa346482dc8fac5b92758c8d2c1b981535473ffffffffffffffffffffffffffffffffffffffff1633145b61049c576040517f08c379a000000000000000000000000000000000000000000000000000000000815260206004820152601e60248201527f526f6c65733a2063616c6c6572206973206e6f7420746865206f776e657200006044820152606401610328565b73ffffffffffffffffffffffffffffffffffffffff1660009081526001602090815260408083209383529290522080547fffffffffffffffffffffffffffffffffffffffffffffffffffffffffffffff00169055565b3361051260005473ffffffffffffffffffffffffffffffffffffffff1690565b73ffffffffffffffffffffffffffffffffffffffff161480610550575033610538610745565b73ffffffffffffffffffffffffffffffffffffffff16145b8061059c57506103ea60005260026020527fdbe5cd5858d8b8ba8ddaf6817490b63aa346482dc8fac5b92758c8d2c1b981535473ffffffffffffffffffffffffffffffffffffffff1633145b610602576040517f08c379a000000000000000000000000000000000000000000000000000000000815260206004820152601e60248201527f526f6c65733a2063616c6c6572206973206e6f7420746865206f776e657200006044820152606401610328565b60009182526002602052604090912080547fffffffffffffffffffffffff00000000000000000000000000000000000000001673ffffffffffffffffffffffffffffffffffffffff909216919091179055565b60005473ffffffffffffffffffffffffffffffffffffffff1633146106d6576040517f08c379a000000000000000000000000000000000000000000000000000000000815260206004820181905260248201527f4f776e61626c653a2063616c6c6572206973206e6f7420746865206f776e65726044820152606401610328565b6000805460405173ffffffffffffffffffffffffffffffffffffffff909116907f8be0079c531659141344cd1fd0a4f28419497f9722a3daafe3b4186f6b6457e0908390a3600080547fffffffffffffffffffffffff0000000000000000000000000000000000000000169055565b6103ea600090815260026020527fdbe5cd5858d8b8ba8ddaf6817490b63aa346482dc8fac5b92758c8d2c1b981535473ffffffffffffffffffffffffffffffffffffffff168015610813578073ffffffffffffffffffffffffffffffffffffffff16636b60a09b6040518163ffffffff1660e01b8152600401602060405180830381600087803b1580156107d857600080fd5b505af11580156107ec573d6000803e3d6000fd5b505050506040513d601f19601f8201168201806040525081019061081091906109eb565b91505b5090565b60005473ffffffffffffffffffffffffffffffffffffffff163314610898576040517f08c379a000000000000000000000000000000000000000000000000000000000815260206004820181905260248201527f4f776e61626c653a2063616c6c6572206973206e6f7420746865206f776e65726044820152606401610328565b73ffffffffffffffffffffffffffffffffffffffff811661093b576040517f08c379a000000000000000000000000000000000000000000000000000000000815260206004820152602660248201527f4f776e61626c653a206e6577206f776e657220697320746865207a65726f206160448201527f64647265737300000000000000000000000000000000000000000000000000006064820152608401610328565b6000805460405173ffffffffffffffffffffffffffffffffffffffff808516939216917f8be0079c531659141344cd1fd0a4f28419497f9722a3daafe3b4186f6b6457e091a3600080547fffffffffffffffffffffffff00000000000000000000000000000000000000001673ffffffffffffffffffffffffffffffffffffffff92909216919091179055565b6000602082840312156109d9578081fd5b81356109e481610a79565b9392505050565b6000602082840312156109fc578081fd5b81516109e481610a79565b60008060408385031215610a19578081fd5b8235610a2481610a79565b946020939093013593505050565b600060208284031215610a43578081fd5b5035919050565b60008060408385031215610a5c578182fd5b823591506020830135610a6e81610a79565b809150509250929050565b73ffffffffffffffffffffffffffffffffffffffff81168114610a9b57600080fd5b5056fea264697066735822122063f18eda6c0064e0a9b7cea268ce044d948a3634bb9013c6d895c86e9bdc82bb64736f6c63430008030033",
  "devdoc": {
    "kind": "dev",
    "methods": {
      "executor()": {
        "details": "current executor"
      },
      "owner()": {
        "details": "Returns the address of the current owner."
      },
      "renounceOwnership()": {
        "details": "Leaves the contract without owner. It will not be possible to call `onlyOwner` functions anymore. Can only be called by the current owner. NOTE: Renouncing ownership will leave the contract without an owner, thereby removing any functionality that is only available to the owner."
      },
      "transferOwnership(address)": {
        "details": "Transfers ownership of the contract to a new account (`newOwner`). Can only be called by the current owner."
      }
    },
    "title": "Manage permissions of contracts and ownership of everything owned by a multisig wallet (0xEED9D1c6B4cdEcB3af070D85bfd394E7aF179CBd) during beta and will then be transfered to governance https://github.com/marginswap/governance",
    "version": 1
  },
  "userdoc": {
    "kind": "user",
    "methods": {},
    "version": 1
  },
  "storageLayout": {
    "storage": [
      {
        "astId": 7,
        "contract": "contracts/Roles.sol:Roles",
        "label": "_owner",
        "offset": 0,
        "slot": "0",
        "type": "t_address"
      },
      {
        "astId": 9847,
        "contract": "contracts/Roles.sol:Roles",
        "label": "roles",
        "offset": 0,
        "slot": "1",
        "type": "t_mapping(t_address,t_mapping(t_uint256,t_bool))"
      },
      {
        "astId": 9851,
        "contract": "contracts/Roles.sol:Roles",
        "label": "mainCharacters",
        "offset": 0,
        "slot": "2",
        "type": "t_mapping(t_uint256,t_address)"
      }
    ],
    "types": {
      "t_address": {
        "encoding": "inplace",
        "label": "address",
        "numberOfBytes": "20"
      },
      "t_bool": {
        "encoding": "inplace",
        "label": "bool",
        "numberOfBytes": "1"
      },
      "t_mapping(t_address,t_mapping(t_uint256,t_bool))": {
        "encoding": "mapping",
        "key": "t_address",
        "label": "mapping(address => mapping(uint256 => bool))",
        "numberOfBytes": "32",
        "value": "t_mapping(t_uint256,t_bool)"
      },
      "t_mapping(t_uint256,t_address)": {
        "encoding": "mapping",
        "key": "t_uint256",
        "label": "mapping(uint256 => address)",
        "numberOfBytes": "32",
        "value": "t_address"
      },
      "t_mapping(t_uint256,t_bool)": {
        "encoding": "mapping",
        "key": "t_uint256",
        "label": "mapping(uint256 => bool)",
        "numberOfBytes": "32",
        "value": "t_bool"
      },
      "t_uint256": {
        "encoding": "inplace",
        "label": "uint256",
        "numberOfBytes": "32"
      }
    }
  }
}