{
  "address": "0x180e31e8da4d4bb0301b669fba54f3c2cb86eb61",
  "abi": [
    {
      "inputs": [
        {
          "internalType": "address",
          "name": "_rewardsToken",
          "type": "address"
        },
        {
          "internalType": "address",
          "name": "_stakingToken",
          "type": "address"
        },
        {
          "internalType": "address",
          "name": "legacyContract",
          "type": "address"
        }
      ],
      "stateMutability": "nonpayable",
      "type": "constructor"
    },
    {
      "anonymous": false,
      "inputs": [
        {
          "indexed": true,
          "internalType": "address",
          "name": "previousOwner",
          "type": "address"
        },
        {
          "indexed": true,
          "internalType": "address",
          "name": "newOwner",
          "type": "address"
        }
      ],
      "name": "OwnershipTransferred",
      "type": "event"
    },
    {
      "anonymous": false,
      "inputs": [
        {
          "indexed": false,
          "internalType": "address",
          "name": "token",
          "type": "address"
        },
        {
          "indexed": false,
          "internalType": "uint256",
          "name": "amount",
          "type": "uint256"
        }
      ],
      "name": "Recovered",
      "type": "event"
    },
    {
      "anonymous": false,
      "inputs": [
        {
          "indexed": false,
          "internalType": "uint256",
          "name": "reward",
          "type": "uint256"
        }
      ],
      "name": "RewardAdded",
      "type": "event"
    },
    {
      "anonymous": false,
      "inputs": [
        {
          "indexed": true,
          "internalType": "address",
          "name": "user",
          "type": "address"
        },
        {
          "indexed": false,
          "internalType": "uint256",
          "name": "reward",
          "type": "uint256"
        }
      ],
      "name": "RewardPaid",
      "type": "event"
    },
    {
      "anonymous": false,
      "inputs": [
        {
          "indexed": false,
          "internalType": "uint256",
          "name": "newDuration",
          "type": "uint256"
        }
      ],
      "name": "RewardsDurationUpdated",
      "type": "event"
    },
    {
      "anonymous": false,
      "inputs": [
        {
          "indexed": true,
          "internalType": "address",
          "name": "user",
          "type": "address"
        },
        {
          "indexed": false,
          "internalType": "uint256",
          "name": "amount",
          "type": "uint256"
        }
      ],
      "name": "Staked",
      "type": "event"
    },
    {
      "anonymous": false,
      "inputs": [
        {
          "indexed": true,
          "internalType": "address",
          "name": "user",
          "type": "address"
        },
        {
          "indexed": false,
          "internalType": "uint256",
          "name": "amount",
          "type": "uint256"
        }
      ],
      "name": "Withdrawn",
      "type": "event"
    },
    {
      "inputs": [
        {
          "internalType": "address",
          "name": "account",
          "type": "address"
        }
      ],
      "name": "balanceOf",
      "outputs": [
        {
          "internalType": "uint256",
          "name": "",
          "type": "uint256"
        }
      ],
      "stateMutability": "view",
      "type": "function"
    },
    {
      "inputs": [],
      "name": "getRewardForDuration",
      "outputs": [
        {
          "internalType": "uint256",
          "name": "",
          "type": "uint256"
        }
      ],
      "stateMutability": "view",
      "type": "function"
    },
    {
      "inputs": [],
      "name": "lastTimeRewardApplicable",
      "outputs": [
        {
          "internalType": "uint256",
          "name": "",
          "type": "uint256"
        }
      ],
      "stateMutability": "view",
      "type": "function"
    },
    {
      "inputs": [],
      "name": "lastUpdateTime",
      "outputs": [
        {
          "internalType": "uint256",
          "name": "",
          "type": "uint256"
        }
      ],
      "stateMutability": "view",
      "type": "function"
    },
    {
      "inputs": [],
      "name": "legacyCarry",
      "outputs": [
        {
          "internalType": "uint256",
          "name": "",
          "type": "uint256"
        }
      ],
      "stateMutability": "view",
      "type": "function"
    },
    {
      "inputs": [
        {
          "internalType": "address",
          "name": "",
          "type": "address"
        }
      ],
      "name": "legacyStakeAccounts",
      "outputs": [
        {
          "internalType": "uint256",
          "name": "stakeAmount",
          "type": "uint256"
        },
        {
          "internalType": "uint256",
          "name": "stakeWeight",
          "type": "uint256"
        },
        {
          "internalType": "uint256",
          "name": "cumulativeStart",
          "type": "uint256"
        },
        {
          "internalType": "uint256",
          "name": "lockEnd",
          "type": "uint256"
        }
      ],
      "stateMutability": "view",
      "type": "function"
    },
    {
      "inputs": [],
      "name": "lockTime",
      "outputs": [
        {
          "internalType": "uint256",
          "name": "",
          "type": "uint256"
        }
      ],
      "stateMutability": "view",
      "type": "function"
    },
    {
      "inputs": [
        {
          "internalType": "address[]",
          "name": "accounts",
          "type": "address[]"
        }
      ],
      "name": "migrate",
      "outputs": [],
      "stateMutability": "nonpayable",
      "type": "function"
    },
    {
      "inputs": [
        {
          "internalType": "address",
          "name": "",
          "type": "address"
        }
      ],
      "name": "migrated",
      "outputs": [
        {
          "internalType": "bool",
          "name": "",
          "type": "bool"
        }
      ],
      "stateMutability": "view",
      "type": "function"
    },
    {
      "inputs": [
        {
          "internalType": "uint256",
          "name": "reward",
          "type": "uint256"
        }
      ],
      "name": "notifyRewardAmount",
      "outputs": [],
      "stateMutability": "nonpayable",
      "type": "function"
    },
    {
      "inputs": [],
      "name": "owner",
      "outputs": [
        {
          "internalType": "address",
          "name": "",
          "type": "address"
        }
      ],
      "stateMutability": "view",
      "type": "function"
    },
    {
      "inputs": [],
      "name": "periodFinish",
      "outputs": [
        {
          "internalType": "uint256",
          "name": "",
          "type": "uint256"
        }
      ],
      "stateMutability": "view",
      "type": "function"
    },
    {
      "inputs": [
        {
          "internalType": "address",
          "name": "tokenAddress",
          "type": "address"
        },
        {
          "internalType": "uint256",
          "name": "tokenAmount",
          "type": "uint256"
        }
      ],
      "name": "recoverERC20",
      "outputs": [],
      "stateMutability": "nonpayable",
      "type": "function"
    },
    {
      "inputs": [],
      "name": "renounceOwnership",
      "outputs": [],
      "stateMutability": "nonpayable",
      "type": "function"
    },
    {
      "inputs": [],
      "name": "rewardPerToken",
      "outputs": [
        {
          "internalType": "uint256",
          "name": "",
          "type": "uint256"
        }
      ],
      "stateMutability": "view",
      "type": "function"
    },
    {
      "inputs": [],
      "name": "rewardPerTokenStored",
      "outputs": [
        {
          "internalType": "uint256",
          "name": "",
          "type": "uint256"
        }
      ],
      "stateMutability": "view",
      "type": "function"
    },
    {
      "inputs": [],
      "name": "rewardRate",
      "outputs": [
        {
          "internalType": "uint256",
          "name": "",
          "type": "uint256"
        }
      ],
      "stateMutability": "view",
      "type": "function"
    },
    {
      "inputs": [
        {
          "internalType": "address",
          "name": "",
          "type": "address"
        }
      ],
      "name": "rewards",
      "outputs": [
        {
          "internalType": "uint256",
          "name": "",
          "type": "uint256"
        }
      ],
      "stateMutability": "view",
      "type": "function"
    },
    {
      "inputs": [],
      "name": "rewardsDuration",
      "outputs": [
        {
          "internalType": "uint256",
          "name": "",
          "type": "uint256"
        }
      ],
      "stateMutability": "view",
      "type": "function"
    },
    {
      "inputs": [],
      "name": "rewardsToken",
      "outputs": [
        {
          "internalType": "contract IERC20",
          "name": "",
          "type": "address"
        }
      ],
      "stateMutability": "view",
      "type": "function"
    },
    {
      "inputs": [
        {
          "internalType": "uint256",
          "name": "t",
          "type": "uint256"
        }
      ],
      "name": "setLockTime",
      "outputs": [],
      "stateMutability": "nonpayable",
      "type": "function"
    },
    {
      "inputs": [
        {
          "internalType": "uint256",
          "name": "_rewardsDuration",
          "type": "uint256"
        }
      ],
      "name": "setRewardsDuration",
      "outputs": [],
      "stateMutability": "nonpayable",
      "type": "function"
    },
    {
      "inputs": [
        {
          "internalType": "uint256",
          "name": "amount",
          "type": "uint256"
        }
      ],
      "name": "stake",
      "outputs": [],
      "stateMutability": "nonpayable",
      "type": "function"
    },
    {
      "inputs": [
        {
          "internalType": "address",
          "name": "",
          "type": "address"
        }
      ],
      "name": "stakeStart",
      "outputs": [
        {
          "internalType": "uint256",
          "name": "",
          "type": "uint256"
        }
      ],
      "stateMutability": "view",
      "type": "function"
    },
    {
      "inputs": [],
      "name": "stakingToken",
      "outputs": [
        {
          "internalType": "contract IERC20",
          "name": "",
          "type": "address"
        }
      ],
      "stateMutability": "view",
      "type": "function"
    },
    {
      "inputs": [],
      "name": "startingWeights",
      "outputs": [
        {
          "internalType": "uint256",
          "name": "",
          "type": "uint256"
        }
      ],
      "stateMutability": "view",
      "type": "function"
    },
    {
      "inputs": [],
      "name": "totalSupply",
      "outputs": [
        {
          "internalType": "uint256",
          "name": "",
          "type": "uint256"
        }
      ],
      "stateMutability": "view",
      "type": "function"
    },
    {
      "inputs": [
        {
          "internalType": "address",
          "name": "newOwner",
          "type": "address"
        }
      ],
      "name": "transferOwnership",
      "outputs": [],
      "stateMutability": "nonpayable",
      "type": "function"
    },
    {
      "inputs": [
        {
          "internalType": "uint256",
          "name": "timestamp",
          "type": "uint256"
        }
      ],
      "name": "updatePeriodFinish",
      "outputs": [],
      "stateMutability": "nonpayable",
      "type": "function"
    },
    {
      "inputs": [
        {
          "internalType": "address",
          "name": "",
          "type": "address"
        }
      ],
      "name": "userRewardPerTokenPaid",
      "outputs": [
        {
          "internalType": "uint256",
          "name": "",
          "type": "uint256"
        }
      ],
      "stateMutability": "view",
      "type": "function"
    },
    {
      "inputs": [
        {
          "internalType": "address",
          "name": "account",
          "type": "address"
        }
      ],
      "name": "viewRewardAmount",
      "outputs": [
        {
          "internalType": "uint256",
          "name": "",
          "type": "uint256"
        }
      ],
      "stateMutability": "view",
      "type": "function"
    },
    {
      "inputs": [],
      "name": "withdrawReward",
      "outputs": [],
      "stateMutability": "nonpayable",
      "type": "function"
    },
    {
      "inputs": [
        {
          "internalType": "uint256",
          "name": "amount",
          "type": "uint256"
        }
      ],
      "name": "withdrawStake",
      "outputs": [],
      "stateMutability": "nonpayable",
      "type": "function"
    }
  ],
  "transactionHash": "0xf00cea88a5fff2e8ea9d0cb9b6aa51746d664432720ef29bb287ccb650f3b878",
  "args": [
    "0x7Bc429a2fA7d71C4693424FDcaB5a2521b9FD343",
    "0x7Bc429a2fA7d71C4693424FDcaB5a2521b9FD343",
    "0x6002830D2f02D987B18d01A1CCce842ae09899d5"
  ],
  "solcInputHash": "fd35843ab470d3c36ea3bbd2f8bd3ba5",
  "bytecode": "0x60806040526000600555600060065562278d0060075562278d00600a553480156200002957600080fd5b50604051620021f2380380620021f28339810160408190526200004c91620000f2565b6001600081815581546001600160a01b031916339081179092556040518291907f8be0079c531659141344cd1fd0a4f28419497f9722a3daafe3b4186f6b6457e0908290a350600380546001600160a01b039485166001600160a01b0319918216179091556004805493851693821693909317909255600280549190931691161790556200013b565b80516001600160a01b0381168114620000ed57600080fd5b919050565b60008060006060848603121562000107578283fd5b6200011284620000d5565b92506200012260208501620000d5565b91506200013260408501620000d5565b90509250925092565b6120a7806200014b6000396000f3fe608060405234801561001057600080fd5b506004361061020b5760003560e01c806380faa57d1161012a578063c885bc58116100bd578063d1af0c7d1161008c578063df136d6511610071578063df136d6514610480578063ebe2b12b14610489578063f2fde38b146104925761020b565b8063d1af0c7d1461045a578063dbe85f701461046d5761020b565b8063c885bc581461042e578063c8f33c9114610436578063cc1a378f1461043f578063cd3daf9d146104525761020b565b8063a204cf85116100f9578063a204cf85146103f6578063a694fc3a146103ff578063ae04d45d14610412578063be7b51cc146104255761020b565b806380faa57d146103aa5780638980f11f146103b25780638b876347146103c55780638da5cb5b146103e55761020b565b80633c6b16ab116101a257806370a082311161017157806370a082311461035b578063715018a61461036e57806372f702f3146103765780637b0a47ee146103a15761020b565b80633c6b16ab146102ad5780634ba0a5ee146102c0578063556f6e6b146102f3578063568a2d98146103065761020b565b80631c1f78eb116101de5780631c1f78eb1461027457806325d5971f1461027c5780632e558d6914610291578063386a9525146102a45761020b565b80630700037d146102105780630d6680871461024357806312a7f6611461024c57806318160ddd1461026c575b600080fd5b61023061021e366004611d93565b600c6020526000908152604090205481565b6040519081526020015b60405180910390f35b610230600a5481565b61023061025a366004611d93565b600d6020526000908152604090205481565b6102306104a5565b6102306104ac565b61028f61028a366004611e66565b6104ca565b005b61028f61029f366004611dd6565b610803565b61023060075481565b61028f6102bb366004611e66565b610c79565b6102e36102ce366004611d93565b600e6020526000908152604090205460ff1681565b604051901515815260200161023a565b61028f610301366004611e66565b610eff565b61033b610314366004611d93565b60106020526000908152604090208054600182015460028301546003909301549192909184565b60408051948552602085019390935291830152606082015260800161023a565b610230610369366004611d93565b610fbb565b61028f610fda565b600454610389906001600160a01b031681565b6040516001600160a01b03909116815260200161023a565b61023060065481565b610230611096565b61028f6103c0366004611dad565b6110a4565b6102306103d3366004611d93565b600b6020526000908152604090205481565b6001546001600160a01b0316610389565b610230600f5481565b61028f61040d366004611e66565b61116a565b61028f610420366004611e66565b611329565b61023060115481565b61028f611388565b61023060085481565b61028f61044d366004611e66565b6114ac565b6102306115de565b600354610389906001600160a01b031681565b61023061047b366004611d93565b611632565b61023060095481565b61023060055481565b61028f6104a0366004611d93565b6116a4565b6012545b90565b60006104c56007546006546117ee90919063ffffffff16565b905090565b600260005414156105225760405162461bcd60e51b815260206004820152601f60248201527f5265656e7472616e637947756172643a207265656e7472616e742063616c6c0060448201526064015b60405180910390fd5b6002600055336105306115de565b60095561053b611096565b6008556001600160a01b038116156105825761055681611632565b6001600160a01b0382166000908152600c6020908152604080832093909355600954600b909152919020555b600082116105d25760405162461bcd60e51b815260206004820152601160248201527f43616e6e6f7420776974686472617720300000000000000000000000000000006044820152606401610519565b600a54336000908152600d60205260409020546105ef9190611f38565b4210156105fb57600080fd5b6012546106089083611801565b601255336000908152601360205260409020546106259083611801565b33600090815260136020908152604080832093909355600e9052205460ff16156107ad576002546040517fe57466fd00000000000000000000000000000000000000000000000000000000815233600482015260009182916001600160a01b039091169063e57466fd9060240160806040518083038186803b1580156106aa57600080fd5b505afa1580156106be573d6000803e3d6000fd5b505050506040513d601f19601f820116820180604052508101906106e29190611e96565b50909350909150506801a055690d9db8000082106107425760405162461bcd60e51b815260206004820152601560248201527f4d696772617465206163636f756e7420666972737400000000000000000000006044820152606401610519565b33600090815260106020908152604080832081516080810183528154815260018201549381019390935260028101549183019190915260030154606082015261078a9061180d565b905084811061079c57600094506107a9565b6107a68186611fc6565b94505b5050505b6004546107c4906001600160a01b031633846119b7565b60405182815233907f7084f5476618d8e60b11ef0d7d3f06914655adb8793e28ff7f018d4c76d505d5906020015b60405180910390a250506001600055565b6001546001600160a01b0316331461085d5760405162461bcd60e51b815260206004820181905260248201527f4f776e61626c653a2063616c6c6572206973206e6f7420746865206f776e65726044820152606401610519565b600260009054906101000a90046001600160a01b03166001600160a01b031663fb3935ee6040518163ffffffff1660e01b815260040160206040518083038186803b1580156108ab57600080fd5b505afa1580156108bf573d6000803e3d6000fd5b505050506040513d601f19601f820116820180604052508101906108e39190611e7e565b600f819055600254604080517f8275198200000000000000000000000000000000000000000000000000000000815290516000926001600160a01b0316916382751982916004808301926020929190829003018186803b15801561094657600080fd5b505afa15801561095a573d6000803e3d6000fd5b505050506040513d601f19601f8201168201806040525081019061097e9190611e7e565b90506000805b80851115610c715760008686838181106109c7577f4e487b7100000000000000000000000000000000000000000000000000000000600052603260045260246000fd5b90506020020160208101906109dc9190611d93565b9050610a096040518060800160405280600081526020016000815260200160008152602001600081525090565b6002546040517fe57466fd0000000000000000000000000000000000000000000000000000000081526001600160a01b0384811660048301529091169063e57466fd9060240160806040518083038186803b158015610a6757600080fd5b505afa158015610a7b573d6000803e3d6000fd5b505050506040513d601f19601f82011682018060405250810190610a9f9190611e96565b606085015260408401526020830152808252601254610abe9082611a83565b6012556001600160a01b038316600090815260136020526040902054610ae49082611a83565b6001600160a01b038416600090815260136020526040902055600a546060830151610b0f9190611fc6565b6001600160a01b0384166000908152600d6020908152604080832093909355600e815282822080547fffffffffffffffffffffffffffffffffffffffffffffffffffffffffffffff00166001908117909155601082529183902085518155908501519181019190915590830151600282015560608301516003909101819055421015610c42576000428360600151610ba79190611fc6565b905062278d00811115610c4057600060036276a700610bc68482611fc6565b8b87602001518c610bd79190611f89565b610be19190611f50565b610beb9190611f89565b610bf59190611f50565b610bff9190611f50565b6001600160a01b0386166000908152600c6020526040812080549293508392909190610c2c908490611f38565b90915550610c3c90508188611f38565b9650505b505b8460116000828254610c549190611f38565b925050819055505050508080610c6990612009565b915050610984565b505050505050565b6001546001600160a01b03163314610cd35760405162461bcd60e51b815260206004820181905260248201527f4f776e61626c653a2063616c6c6572206973206e6f7420746865206f776e65726044820152606401610519565b6000610cdd6115de565b600955610ce8611096565b6008556001600160a01b03811615610d2f57610d0381611632565b6001600160a01b0382166000908152600c6020908152604080832093909355600954600b909152919020555b60115415610d4c57601154610d449083611fc6565b600060115591505b6005544210610d6b57600754610d63908390611a8f565b600655610db4565b600554600090610d7b9042611801565b90506000610d94600654836117ee90919063ffffffff16565b600754909150610dae90610da88684611a83565b90611a8f565b60065550505b6003546040517f70a082310000000000000000000000000000000000000000000000000000000081523060048201526000916001600160a01b0316906370a082319060240160206040518083038186803b158015610e1157600080fd5b505afa158015610e25573d6000803e3d6000fd5b505050506040513d601f19601f82011682018060405250810190610e499190611e7e565b9050610e6060075482611a8f90919063ffffffff16565b6006541115610eb15760405162461bcd60e51b815260206004820152601860248201527f50726f76696465642072657761726420746f6f206869676800000000000000006044820152606401610519565b426008819055600754610ec49190611a83565b6005556040518381527fde88a922e0d3b88b24e9623efeb464919c6bf9f66857a65e2bfcf2ce87a9433d9060200160405180910390a1505050565b6001546001600160a01b03163314610f595760405162461bcd60e51b815260206004820181905260248201527f4f776e61626c653a2063616c6c6572206973206e6f7420746865206f776e65726044820152606401610519565b6000610f636115de565b600955610f6e611096565b6008556001600160a01b03811615610fb557610f8981611632565b6001600160a01b0382166000908152600c6020908152604080832093909355600954600b909152919020555b50600555565b6001600160a01b0381166000908152601360205260409020545b919050565b6001546001600160a01b031633146110345760405162461bcd60e51b815260206004820181905260248201527f4f776e61626c653a2063616c6c6572206973206e6f7420746865206f776e65726044820152606401610519565b6001546040516000916001600160a01b0316907f8be0079c531659141344cd1fd0a4f28419497f9722a3daafe3b4186f6b6457e0908390a3600180547fffffffffffffffffffffffff0000000000000000000000000000000000000000169055565b60006104c542600554611a9b565b6001546001600160a01b031633146110fe5760405162461bcd60e51b815260206004820181905260248201527f4f776e61626c653a2063616c6c6572206973206e6f7420746865206f776e65726044820152606401610519565b6111246111136001546001600160a01b031690565b6001600160a01b03841690836119b7565b604080516001600160a01b0384168152602081018390527f8c1256b8896378cd5044f80c202f9772b9d77dc85c8a6eb51967210b09bfaa28910160405180910390a15050565b600260005414156111bd5760405162461bcd60e51b815260206004820152601f60248201527f5265656e7472616e637947756172643a207265656e7472616e742063616c6c006044820152606401610519565b6002600055336111cb6115de565b6009556111d6611096565b6008556001600160a01b0381161561121d576111f181611632565b6001600160a01b0382166000908152600c6020908152604080832093909355600954600b909152919020555b6000821161126d5760405162461bcd60e51b815260206004820152600e60248201527f43616e6e6f74207374616b6520300000000000000000000000000000000000006044820152606401610519565b60125461127a9083611a83565b601255336000908152601360205260409020546112979083611a83565b336000818152601360205260409020919091556004546112c4916001600160a01b03909116903085611ab1565b60405182815233907f9e71bc8eea02a63969f509818f2dafb9254532904319f9dbda79b67bd34a5f3d9060200160405180910390a2336000908152600d602052604090205461132057336000908152600d602052604090204290555b50506001600055565b6001546001600160a01b031633146113835760405162461bcd60e51b815260206004820181905260248201527f4f776e61626c653a2063616c6c6572206973206e6f7420746865206f776e65726044820152606401610519565b600a55565b600260005414156113db5760405162461bcd60e51b815260206004820152601f60248201527f5265656e7472616e637947756172643a207265656e7472616e742063616c6c006044820152606401610519565b6002600055336113e96115de565b6009556113f4611096565b6008556001600160a01b0381161561143b5761140f81611632565b6001600160a01b0382166000908152600c6020908152604080832093909355600954600b909152919020555b336000908152600c6020526040902054801561132057336000818152600c602052604081205560035461147a916001600160a01b0390911690836119b7565b60405181815233907fe2403640ba68fed3a2f88b7557551d1993f84b99bb10ff833f0cf8db0c5e0486906020016107f2565b6001546001600160a01b031633146115065760405162461bcd60e51b815260206004820181905260248201527f4f776e61626c653a2063616c6c6572206973206e6f7420746865206f776e65726044820152606401610519565b60055442116115a35760405162461bcd60e51b815260206004820152605860248201527f50726576696f7573207265776172647320706572696f64206d7573742062652060448201527f636f6d706c657465206265666f7265206368616e67696e67207468652064757260648201527f6174696f6e20666f7220746865206e657720706572696f640000000000000000608482015260a401610519565b60078190556040518181527ffb46ca5a5e06d4540d6387b930a7c978bce0db5f449ec6b3f5d07c6e1d44f2d39060200160405180910390a150565b6000601254600014156115f457506009546104a9565b6104c5611629601254610da8670de0b6b3a764000061162360065461162360085461161d611096565b90611801565b906117ee565b60095490611a83565b6001600160a01b0381166000908152600c6020908152604080832054600b90925282205461169e919061169890670de0b6b3a764000090610da8906116799061161d6115de565b6001600160a01b038816600090815260136020526040902054906117ee565b90611a83565b92915050565b6001546001600160a01b031633146116fe5760405162461bcd60e51b815260206004820181905260248201527f4f776e61626c653a2063616c6c6572206973206e6f7420746865206f776e65726044820152606401610519565b6001600160a01b03811661177a5760405162461bcd60e51b815260206004820152602660248201527f4f776e61626c653a206e6577206f776e657220697320746865207a65726f206160448201527f64647265737300000000000000000000000000000000000000000000000000006064820152608401610519565b6001546040516001600160a01b038084169216907f8be0079c531659141344cd1fd0a4f28419497f9722a3daafe3b4186f6b6457e090600090a3600180547fffffffffffffffffffffffff0000000000000000000000000000000000000000166001600160a01b0392909216919091179055565b60006117fa8284611f89565b9392505050565b60006117fa8284611fc6565b600080600260009054906101000a90046001600160a01b03166001600160a01b031663c8d65d596040518163ffffffff1660e01b815260040160206040518083038186803b15801561185e57600080fd5b505afa158015611872573d6000803e3d6000fd5b505050506040513d601f19601f820116820180604052508101906118969190611e7e565b90506000600f5460016118a99190611f38565b602085015160408601516118bd9085611fc6565b6118c79190611f89565b6118d19190611f50565b90506000600260009054906101000a90046001600160a01b03166001600160a01b031663fb3935ee6040518163ffffffff1660e01b815260040160206040518083038186803b15801561192357600080fd5b505afa158015611937573d6000803e3d6000fd5b505050506040513d601f19601f8201168201806040525081019061195b9190611e7e565b611966906001611f38565b6020860151604087015161197a9086611fc6565b6119849190611f89565b61198e9190611f50565b90508082106119a35760009350505050610fd5565b6119ad8282611fc6565b9350505050610fd5565b6040516001600160a01b038316602482015260448101829052611a7e9084907fa9059cbb00000000000000000000000000000000000000000000000000000000906064015b604080517fffffffffffffffffffffffffffffffffffffffffffffffffffffffffffffffe08184030181529190526020810180517bffffffffffffffffffffffffffffffffffffffffffffffffffffffff167fffffffff0000000000000000000000000000000000000000000000000000000090931692909217909152611b08565b505050565b60006117fa8284611f38565b60006117fa8284611f50565b6000818310611aaa57816117fa565b5090919050565b6040516001600160a01b0380851660248301528316604482015260648101829052611b029085907f23b872dd00000000000000000000000000000000000000000000000000000000906084016119fc565b50505050565b6000611b5d826040518060400160405280602081526020017f5361666545524332303a206c6f772d6c6576656c2063616c6c206661696c6564815250856001600160a01b0316611bed9092919063ffffffff16565b805190915015611a7e5780806020019051810190611b7b9190611e46565b611a7e5760405162461bcd60e51b815260206004820152602a60248201527f5361666545524332303a204552433230206f7065726174696f6e20646964206e60448201527f6f742073756363656564000000000000000000000000000000000000000000006064820152608401610519565b6060611bfc8484600085611c04565b949350505050565b606082471015611c7c5760405162461bcd60e51b815260206004820152602660248201527f416464726573733a20696e73756666696369656e742062616c616e636520666f60448201527f722063616c6c00000000000000000000000000000000000000000000000000006064820152608401610519565b843b611cca5760405162461bcd60e51b815260206004820152601d60248201527f416464726573733a2063616c6c20746f206e6f6e2d636f6e74726163740000006044820152606401610519565b600080866001600160a01b03168587604051611ce69190611ecb565b60006040518083038185875af1925050503d8060008114611d23576040519150601f19603f3d011682016040523d82523d6000602084013e611d28565b606091505b5091509150611d38828286611d43565b979650505050505050565b60608315611d525750816117fa565b825115611d625782518084602001fd5b8160405162461bcd60e51b81526004016105199190611ee7565b80356001600160a01b0381168114610fd557600080fd5b600060208284031215611da4578081fd5b6117fa82611d7c565b60008060408385031215611dbf578081fd5b611dc883611d7c565b946020939093013593505050565b60008060208385031215611de8578182fd5b823567ffffffffffffffff80821115611dff578384fd5b818501915085601f830112611e12578384fd5b813581811115611e20578485fd5b8660208260051b8501011115611e34578485fd5b60209290920196919550909350505050565b600060208284031215611e57578081fd5b815180151581146117fa578182fd5b600060208284031215611e77578081fd5b5035919050565b600060208284031215611e8f578081fd5b5051919050565b60008060008060808587031215611eab578182fd5b505082516020840151604085015160609095015191969095509092509050565b60008251611edd818460208701611fdd565b9190910192915050565b6000602082528251806020840152611f06816040850160208701611fdd565b601f017fffffffffffffffffffffffffffffffffffffffffffffffffffffffffffffffe0169190910160400192915050565b60008219821115611f4b57611f4b612042565b500190565b600082611f84577f4e487b710000000000000000000000000000000000000000000000000000000081526012600452602481fd5b500490565b6000817fffffffffffffffffffffffffffffffffffffffffffffffffffffffffffffffff0483118215151615611fc157611fc1612042565b500290565b600082821015611fd857611fd8612042565b500390565b60005b83811015611ff8578181015183820152602001611fe0565b83811115611b025750506000910152565b60007fffffffffffffffffffffffffffffffffffffffffffffffffffffffffffffffff82141561203b5761203b612042565b5060010190565b7f4e487b7100000000000000000000000000000000000000000000000000000000600052601160045260246000fdfea2646970667358221220665e6045dc536be3860da71f2d7e42195dcc7eac1bd466680666ec319b53076464736f6c63430008030033",
  "devdoc": {
    "kind": "dev",
    "methods": {
      "owner()": {
        "details": "Returns the address of the current owner."
      },
      "renounceOwnership()": {
        "details": "Leaves the contract without owner. It will not be possible to call `onlyOwner` functions anymore. Can only be called by the current owner. NOTE: Renouncing ownership will leave the contract without an owner, thereby removing any functionality that is only available to the owner."
      },
      "transferOwnership(address)": {
        "details": "Transfers ownership of the contract to a new account (`newOwner`). Can only be called by the current owner."
      }
    },
    "version": 1
  },
  "userdoc": {
    "kind": "user",
    "methods": {},
    "version": 1
  },
  "storageLayout": {
    "storage": [
      {
        "astId": 120,
        "contract": "contracts/Staking.sol:Staking",
        "label": "_status",
        "offset": 0,
        "slot": "0",
        "type": "t_uint256"
      },
      {
        "astId": 7,
        "contract": "contracts/Staking.sol:Staking",
        "label": "_owner",
        "offset": 0,
        "slot": "1",
        "type": "t_address"
      },
      {
        "astId": 11438,
        "contract": "contracts/Staking.sol:Staking",
        "label": "legacy",
        "offset": 0,
        "slot": "2",
        "type": "t_contract(TokenStaking)12891"
      },
      {
        "astId": 11441,
        "contract": "contracts/Staking.sol:Staking",
        "label": "rewardsToken",
        "offset": 0,
        "slot": "3",
        "type": "t_contract(IERC20)227"
      },
      {
        "astId": 11444,
        "contract": "contracts/Staking.sol:Staking",
        "label": "stakingToken",
        "offset": 0,
        "slot": "4",
        "type": "t_contract(IERC20)227"
      },
      {
        "astId": 11447,
        "contract": "contracts/Staking.sol:Staking",
        "label": "periodFinish",
        "offset": 0,
        "slot": "5",
        "type": "t_uint256"
      },
      {
        "astId": 11450,
        "contract": "contracts/Staking.sol:Staking",
        "label": "rewardRate",
        "offset": 0,
        "slot": "6",
        "type": "t_uint256"
      },
      {
        "astId": 11453,
        "contract": "contracts/Staking.sol:Staking",
        "label": "rewardsDuration",
        "offset": 0,
        "slot": "7",
        "type": "t_uint256"
      },
      {
        "astId": 11455,
        "contract": "contracts/Staking.sol:Staking",
        "label": "lastUpdateTime",
        "offset": 0,
        "slot": "8",
        "type": "t_uint256"
      },
      {
        "astId": 11457,
        "contract": "contracts/Staking.sol:Staking",
        "label": "rewardPerTokenStored",
        "offset": 0,
        "slot": "9",
        "type": "t_uint256"
      },
      {
        "astId": 11460,
        "contract": "contracts/Staking.sol:Staking",
        "label": "lockTime",
        "offset": 0,
        "slot": "10",
        "type": "t_uint256"
      },
      {
        "astId": 11464,
        "contract": "contracts/Staking.sol:Staking",
        "label": "userRewardPerTokenPaid",
        "offset": 0,
        "slot": "11",
        "type": "t_mapping(t_address,t_uint256)"
      },
      {
        "astId": 11468,
        "contract": "contracts/Staking.sol:Staking",
        "label": "rewards",
        "offset": 0,
        "slot": "12",
        "type": "t_mapping(t_address,t_uint256)"
      },
      {
        "astId": 11472,
        "contract": "contracts/Staking.sol:Staking",
        "label": "stakeStart",
        "offset": 0,
        "slot": "13",
        "type": "t_mapping(t_address,t_uint256)"
      },
      {
        "astId": 11476,
        "contract": "contracts/Staking.sol:Staking",
        "label": "migrated",
        "offset": 0,
        "slot": "14",
        "type": "t_mapping(t_address,t_bool)"
      },
      {
        "astId": 11485,
        "contract": "contracts/Staking.sol:Staking",
        "label": "startingWeights",
        "offset": 0,
        "slot": "15",
        "type": "t_uint256"
      },
      {
        "astId": 11490,
        "contract": "contracts/Staking.sol:Staking",
        "label": "legacyStakeAccounts",
        "offset": 0,
        "slot": "16",
        "type": "t_mapping(t_address,t_struct(StakeAccount)12362_storage)"
      },
      {
        "astId": 11492,
        "contract": "contracts/Staking.sol:Staking",
        "label": "legacyCarry",
        "offset": 0,
        "slot": "17",
        "type": "t_uint256"
      },
      {
        "astId": 11494,
        "contract": "contracts/Staking.sol:Staking",
        "label": "_totalSupply",
        "offset": 0,
        "slot": "18",
        "type": "t_uint256"
      },
      {
        "astId": 11498,
        "contract": "contracts/Staking.sol:Staking",
        "label": "_balances",
        "offset": 0,
        "slot": "19",
        "type": "t_mapping(t_address,t_uint256)"
      }
    ],
    "types": {
      "t_address": {
        "encoding": "inplace",
        "label": "address",
        "numberOfBytes": "20"
      },
      "t_bool": {
        "encoding": "inplace",
        "label": "bool",
        "numberOfBytes": "1"
      },
      "t_contract(IERC20)227": {
        "encoding": "inplace",
        "label": "contract IERC20",
        "numberOfBytes": "20"
      },
      "t_contract(TokenStaking)12891": {
        "encoding": "inplace",
        "label": "contract TokenStaking",
        "numberOfBytes": "20"
      },
      "t_mapping(t_address,t_bool)": {
        "encoding": "mapping",
        "key": "t_address",
        "label": "mapping(address => bool)",
        "numberOfBytes": "32",
        "value": "t_bool"
      },
      "t_mapping(t_address,t_struct(StakeAccount)12362_storage)": {
        "encoding": "mapping",
        "key": "t_address",
        "label": "mapping(address => struct StakeAccount)",
        "numberOfBytes": "32",
        "value": "t_struct(StakeAccount)12362_storage"
      },
      "t_mapping(t_address,t_uint256)": {
        "encoding": "mapping",
        "key": "t_address",
        "label": "mapping(address => uint256)",
        "numberOfBytes": "32",
        "value": "t_uint256"
      },
      "t_struct(StakeAccount)12362_storage": {
        "encoding": "inplace",
        "label": "struct StakeAccount",
        "members": [
          {
            "astId": 12355,
            "contract": "contracts/Staking.sol:Staking",
            "label": "stakeAmount",
            "offset": 0,
            "slot": "0",
            "type": "t_uint256"
          },
          {
            "astId": 12357,
            "contract": "contracts/Staking.sol:Staking",
            "label": "stakeWeight",
            "offset": 0,
            "slot": "1",
            "type": "t_uint256"
          },
          {
            "astId": 12359,
            "contract": "contracts/Staking.sol:Staking",
            "label": "cumulativeStart",
            "offset": 0,
            "slot": "2",
            "type": "t_uint256"
          },
          {
            "astId": 12361,
            "contract": "contracts/Staking.sol:Staking",
            "label": "lockEnd",
            "offset": 0,
            "slot": "3",
            "type": "t_uint256"
          }
        ],
        "numberOfBytes": "128"
      },
      "t_uint256": {
        "encoding": "inplace",
        "label": "uint256",
        "numberOfBytes": "32"
      }
    }
  }
}