{
  "address": "0xEf13Ff3E1749606c11623C8b8064761ba70248e3",
  "abi": [
    {
      "inputs": [
        {
          "internalType": "address",
          "name": "_WETH",
          "type": "address"
        },
        {
          "internalType": "address",
          "name": "_amm1Factory",
          "type": "address"
        },
        {
          "internalType": "address",
          "name": "_amm2Factory",
          "type": "address"
        },
        {
          "internalType": "address",
          "name": "_amm3Factory",
          "type": "address"
        },
        {
          "internalType": "bytes32",
          "name": "_amm1InitHash",
          "type": "bytes32"
        },
        {
          "internalType": "bytes32",
          "name": "_amm2InitHash",
          "type": "bytes32"
        },
        {
          "internalType": "bytes32",
          "name": "_amm3InitHash",
          "type": "bytes32"
        },
        {
          "internalType": "uint256",
          "name": "_feeBase",
          "type": "uint256"
        },
        {
          "internalType": "address",
          "name": "_roles",
          "type": "address"
        }
      ],
      "stateMutability": "nonpayable",
      "type": "constructor"
    },
    {
      "anonymous": false,
      "inputs": [
        {
          "indexed": true,
          "internalType": "address",
          "name": "trader",
          "type": "address"
        }
      ],
      "name": "AccountUpdated",
      "type": "event"
    },
    {
      "anonymous": false,
      "inputs": [
        {
          "indexed": true,
          "internalType": "address",
          "name": "trader",
          "type": "address"
        },
        {
          "indexed": false,
          "internalType": "address",
          "name": "fromToken",
          "type": "address"
        },
        {
          "indexed": false,
          "internalType": "address",
          "name": "toToken",
          "type": "address"
        },
        {
          "indexed": false,
          "internalType": "uint256",
          "name": "fromAmount",
          "type": "uint256"
        },
        {
          "indexed": false,
          "internalType": "uint256",
          "name": "toAmount",
          "type": "uint256"
        }
      ],
      "name": "MarginTrade",
      "type": "event"
    },
    {
      "anonymous": false,
      "inputs": [
        {
          "indexed": false,
          "internalType": "uint256",
          "name": "orderId",
          "type": "uint256"
        },
        {
          "indexed": false,
          "internalType": "address",
          "name": "fromToken",
          "type": "address"
        },
        {
          "indexed": false,
          "internalType": "address",
          "name": "toToken",
          "type": "address"
        },
        {
          "indexed": false,
          "internalType": "uint256",
          "name": "inAmount",
          "type": "uint256"
        },
        {
          "indexed": false,
          "internalType": "uint256",
          "name": "outAmout",
          "type": "uint256"
        },
        {
          "indexed": false,
          "internalType": "address",
          "name": "maker",
          "type": "address"
        },
        {
          "indexed": false,
          "internalType": "uint256",
          "name": "expiration",
          "type": "uint256"
        }
      ],
      "name": "OrderMade",
      "type": "event"
    },
    {
      "anonymous": false,
      "inputs": [
        {
          "indexed": false,
          "internalType": "uint256",
          "name": "orderId",
          "type": "uint256"
        },
        {
          "indexed": true,
          "internalType": "address",
          "name": "taker",
          "type": "address"
        },
        {
          "indexed": false,
          "internalType": "uint256",
          "name": "remainingInAmount",
          "type": "uint256"
        },
        {
          "indexed": false,
          "internalType": "uint256",
          "name": "amountTaken",
          "type": "uint256"
        }
      ],
      "name": "OrderTaken",
      "type": "event"
    },
    {
      "inputs": [],
      "name": "WETH",
      "outputs": [
        {
          "internalType": "address",
          "name": "",
          "type": "address"
        }
      ],
      "stateMutability": "view",
      "type": "function"
    },
    {
      "inputs": [],
      "name": "amm1Factory",
      "outputs": [
        {
          "internalType": "address",
          "name": "",
          "type": "address"
        }
      ],
      "stateMutability": "view",
      "type": "function"
    },
    {
      "inputs": [],
      "name": "amm1InitHash",
      "outputs": [
        {
          "internalType": "bytes32",
          "name": "",
          "type": "bytes32"
        }
      ],
      "stateMutability": "view",
      "type": "function"
    },
    {
      "inputs": [],
      "name": "amm2Factory",
      "outputs": [
        {
          "internalType": "address",
          "name": "",
          "type": "address"
        }
      ],
      "stateMutability": "view",
      "type": "function"
    },
    {
      "inputs": [],
      "name": "amm2InitHash",
      "outputs": [
        {
          "internalType": "bytes32",
          "name": "",
          "type": "bytes32"
        }
      ],
      "stateMutability": "view",
      "type": "function"
    },
    {
      "inputs": [],
      "name": "amm3Factory",
      "outputs": [
        {
          "internalType": "address",
          "name": "",
          "type": "address"
        }
      ],
      "stateMutability": "view",
      "type": "function"
    },
    {
      "inputs": [],
      "name": "amm3InitHash",
      "outputs": [
        {
          "internalType": "bytes32",
          "name": "",
          "type": "bytes32"
        }
      ],
      "stateMutability": "view",
      "type": "function"
    },
    {
      "inputs": [
        {
          "internalType": "uint256",
          "name": "amountIn",
          "type": "uint256"
        },
        {
          "internalType": "uint256",
          "name": "amountOutMin",
          "type": "uint256"
        },
        {
          "internalType": "bytes32",
          "name": "amms",
          "type": "bytes32"
        },
        {
          "internalType": "address[]",
          "name": "tokens",
          "type": "address[]"
        }
      ],
      "name": "authorizedSwapExactT4T",
      "outputs": [
        {
          "internalType": "uint256[]",
          "name": "amounts",
          "type": "uint256[]"
        }
      ],
      "stateMutability": "nonpayable",
      "type": "function"
    },
    {
      "inputs": [
        {
          "internalType": "uint256",
          "name": "amountOut",
          "type": "uint256"
        },
        {
          "internalType": "uint256",
          "name": "amountInMax",
          "type": "uint256"
        },
        {
          "internalType": "bytes32",
          "name": "amms",
          "type": "bytes32"
        },
        {
          "internalType": "address[]",
          "name": "tokens",
          "type": "address[]"
        }
      ],
      "name": "authorizedSwapT4ExactT",
      "outputs": [
        {
          "internalType": "uint256[]",
          "name": "amounts",
          "type": "uint256[]"
        }
      ],
      "stateMutability": "nonpayable",
      "type": "function"
    },
    {
      "inputs": [
        {
          "internalType": "address",
          "name": "borrowToken",
          "type": "address"
        },
        {
          "internalType": "uint256",
          "name": "borrowAmount",
          "type": "uint256"
        }
      ],
      "name": "crossBorrow",
      "outputs": [],
      "stateMutability": "nonpayable",
      "type": "function"
    },
    {
      "inputs": [],
      "name": "crossCloseAccount",
      "outputs": [],
      "stateMutability": "nonpayable",
      "type": "function"
    },
    {
      "inputs": [
        {
          "internalType": "address",
          "name": "depositToken",
          "type": "address"
        },
        {
          "internalType": "uint256",
          "name": "depositAmount",
          "type": "uint256"
        }
      ],
      "name": "crossDeposit",
      "outputs": [],
      "stateMutability": "nonpayable",
      "type": "function"
    },
    {
      "inputs": [],
      "name": "crossDepositETH",
      "outputs": [],
      "stateMutability": "payable",
      "type": "function"
    },
    {
      "inputs": [
        {
          "internalType": "address",
          "name": "depositToken",
          "type": "address"
        },
        {
          "internalType": "uint256",
          "name": "depositAmount",
          "type": "uint256"
        },
        {
          "internalType": "address",
          "name": "borrowToken",
          "type": "address"
        },
        {
          "internalType": "uint256",
          "name": "withdrawAmount",
          "type": "uint256"
        }
      ],
      "name": "crossOvercollateralizedBorrow",
      "outputs": [],
      "stateMutability": "nonpayable",
      "type": "function"
    },
    {
      "inputs": [
        {
          "internalType": "address",
          "name": "withdrawToken",
          "type": "address"
        },
        {
          "internalType": "uint256",
          "name": "withdrawAmount",
          "type": "uint256"
        }
      ],
      "name": "crossWithdraw",
      "outputs": [],
      "stateMutability": "nonpayable",
      "type": "function"
    },
    {
      "inputs": [
        {
          "internalType": "uint256",
          "name": "withdrawAmount",
          "type": "uint256"
        }
      ],
      "name": "crossWithdrawETH",
      "outputs": [],
      "stateMutability": "nonpayable",
      "type": "function"
    },
    {
      "inputs": [],
      "name": "feeBase",
      "outputs": [
        {
          "internalType": "uint256",
          "name": "",
          "type": "uint256"
        }
      ],
      "stateMutability": "view",
      "type": "function"
    },
    {
      "inputs": [
        {
          "internalType": "uint256",
          "name": "outAmount",
          "type": "uint256"
        },
        {
          "internalType": "bytes32",
          "name": "amms",
          "type": "bytes32"
        },
        {
          "internalType": "address[]",
          "name": "tokens",
          "type": "address[]"
        }
      ],
      "name": "getAmountsIn",
      "outputs": [
        {
          "internalType": "uint256[]",
          "name": "amounts",
          "type": "uint256[]"
        }
      ],
      "stateMutability": "view",
      "type": "function"
    },
    {
      "inputs": [
        {
          "internalType": "uint256",
          "name": "inAmount",
          "type": "uint256"
        },
        {
          "internalType": "bytes32",
          "name": "amms",
          "type": "bytes32"
        },
        {
          "internalType": "address[]",
          "name": "tokens",
          "type": "address[]"
        }
      ],
      "name": "getAmountsOut",
      "outputs": [
        {
          "internalType": "uint256[]",
          "name": "amounts",
          "type": "uint256[]"
        }
      ],
      "stateMutability": "view",
      "type": "function"
    },
    {
      "inputs": [],
      "name": "getPendingOrders",
      "outputs": [
        {
          "internalType": "uint256[]",
          "name": "",
          "type": "uint256[]"
        }
      ],
      "stateMutability": "view",
      "type": "function"
    },
    {
      "inputs": [
        {
          "internalType": "uint256",
          "name": "orderId",
          "type": "uint256"
        }
      ],
      "name": "invalidateOrder",
      "outputs": [],
      "stateMutability": "nonpayable",
      "type": "function"
    },
    {
      "inputs": [
        {
          "internalType": "uint256",
          "name": "",
          "type": "uint256"
        }
      ],
      "name": "mainCharacterCache",
      "outputs": [
        {
          "internalType": "address",
          "name": "",
          "type": "address"
        }
      ],
      "stateMutability": "view",
      "type": "function"
    },
    {
      "inputs": [
        {
          "internalType": "address",
          "name": "_fromToken",
          "type": "address"
        },
        {
          "internalType": "address",
          "name": "_toToken",
          "type": "address"
        },
        {
          "internalType": "uint256",
          "name": "_inAmount",
          "type": "uint256"
        },
        {
          "internalType": "uint256",
          "name": "_outAmount",
          "type": "uint256"
        },
        {
          "internalType": "uint256",
          "name": "_expiration",
          "type": "uint256"
        }
      ],
      "name": "makeOrder",
      "outputs": [],
      "stateMutability": "nonpayable",
      "type": "function"
    },
    {
      "inputs": [],
      "name": "mswapFeesPer10k",
      "outputs": [
        {
          "internalType": "uint256",
          "name": "",
          "type": "uint256"
        }
      ],
      "stateMutability": "view",
      "type": "function"
    },
    {
      "inputs": [
        {
          "internalType": "uint256",
          "name": "",
          "type": "uint256"
        }
      ],
      "name": "orders",
      "outputs": [
        {
          "internalType": "address",
          "name": "fromToken",
          "type": "address"
        },
        {
          "internalType": "address",
          "name": "toToken",
          "type": "address"
        },
        {
          "internalType": "uint256",
          "name": "inAmount",
          "type": "uint256"
        },
        {
          "internalType": "uint256",
          "name": "outAmount",
          "type": "uint256"
        },
        {
          "internalType": "address",
          "name": "maker",
          "type": "address"
        },
        {
          "internalType": "uint256",
          "name": "expiration",
          "type": "uint256"
        }
      ],
      "stateMutability": "view",
      "type": "function"
    },
    {
      "inputs": [
        {
          "internalType": "address",
          "name": "",
          "type": "address"
        },
        {
          "internalType": "uint256",
          "name": "",
          "type": "uint256"
        }
      ],
      "name": "roleCache",
      "outputs": [
        {
          "internalType": "bool",
          "name": "",
          "type": "bool"
        }
      ],
      "stateMutability": "view",
      "type": "function"
    },
    {
      "inputs": [],
      "name": "roles",
      "outputs": [
        {
          "internalType": "contract Roles",
          "name": "",
          "type": "address"
        }
      ],
      "stateMutability": "view",
      "type": "function"
    },
    {
      "inputs": [
        {
          "internalType": "uint256",
          "name": "amountIn",
          "type": "uint256"
        },
        {
          "internalType": "uint256",
          "name": "amountOutMin",
          "type": "uint256"
        },
        {
          "internalType": "bytes32",
          "name": "amms",
          "type": "bytes32"
        },
        {
          "internalType": "address[]",
          "name": "tokens",
          "type": "address[]"
        },
        {
          "internalType": "uint256",
          "name": "deadline",
          "type": "uint256"
        }
      ],
      "name": "swapExactTokensForTokens",
      "outputs": [
        {
          "internalType": "uint256[]",
          "name": "amounts",
          "type": "uint256[]"
        }
      ],
      "stateMutability": "nonpayable",
      "type": "function"
    },
    {
      "inputs": [
        {
          "internalType": "uint256",
          "name": "amountOut",
          "type": "uint256"
        },
        {
          "internalType": "uint256",
          "name": "amountInMax",
          "type": "uint256"
        },
        {
          "internalType": "bytes32",
          "name": "amms",
          "type": "bytes32"
        },
        {
          "internalType": "address[]",
          "name": "tokens",
          "type": "address[]"
        },
        {
          "internalType": "uint256",
          "name": "deadline",
          "type": "uint256"
        }
      ],
      "name": "swapTokensForExactTokens",
      "outputs": [
        {
          "internalType": "uint256[]",
          "name": "amounts",
          "type": "uint256[]"
        }
      ],
      "stateMutability": "nonpayable",
      "type": "function"
    },
    {
      "inputs": [
        {
          "internalType": "uint256",
          "name": "orderId",
          "type": "uint256"
        },
        {
          "internalType": "uint256",
          "name": "maxInAmount",
          "type": "uint256"
        }
      ],
      "name": "takeOrder",
      "outputs": [],
      "stateMutability": "nonpayable",
      "type": "function"
    },
    {
      "inputs": [
        {
          "internalType": "uint256",
          "name": "orderId",
          "type": "uint256"
        },
        {
          "internalType": "bytes32",
          "name": "amms",
          "type": "bytes32"
        },
        {
          "internalType": "address[]",
          "name": "tokens",
          "type": "address[]"
        }
      ],
      "name": "takeOrderOnAMM",
      "outputs": [],
      "stateMutability": "nonpayable",
      "type": "function"
    },
    {
      "inputs": [
        {
          "internalType": "uint256",
          "name": "role",
          "type": "uint256"
        }
      ],
      "name": "updateMainCharacterCache",
      "outputs": [],
      "stateMutability": "nonpayable",
      "type": "function"
    },
    {
      "inputs": [
        {
          "internalType": "uint256",
          "name": "role",
          "type": "uint256"
        },
        {
          "internalType": "address",
          "name": "contr",
          "type": "address"
        }
      ],
      "name": "updateRoleCache",
      "outputs": [],
      "stateMutability": "nonpayable",
      "type": "function"
    }
  ],
  "transactionHash": "0xecf9c8a410ce8df2642f334d936b7de0751d5b664ef89d4229702de8ebb2d9ca",
  "args": [
    "0xbb4CdB9CBd36B01bD1cBaEBF2De08d9173bc095c",
    "0xcA143Ce32Fe78f1f7019d7d551a6402fC5350c73",
    "0x0841BD0B734E4F5853f0dD8d7Ea041c241fb0Da6",
    "0x0000000000000000000000000000000000000000",
    "0x00fb7f630766e6a796048ea87d01acd3068e8ff67d078148a3fa3f4a84f69bd5",
    "0xf4ccce374816856d11f00e4069e7cada164065686fbef53c6167a63ec2fd8c5b",
    "0x0000000000000000000000000000000000000000000000000000000000000000",
    9975,
    "0x106c1a7D4C5F3844F9aC92B2DE7A1B5C94DE4811"
  ],
  "solcInputHash": "540b646b9ab3d3a00000910437e428fb",
  "bytecode": "0x61014060405260016008553480156200001757600080fd5b5060405162004781380380620047818339810160408190526200003a916200011a565b87878787878787876001600160a01b038116620000a85760405162461bcd60e51b815260206004820152602260248201527f506c656173652070726f766964652076616c696420726f6c6573206164647265604482015261737360f01b606482015260840160405180910390fd5b6001600160601b0319606091821b811660805297811b881660a05295861b871660c05293851b861660e052600292909255600355600455610100529990991b9098166101205250620001b09650505050505050565b80516001600160a01b03811681146200011557600080fd5b919050565b60008060008060008060008060006101208a8c03121562000139578485fd5b620001448a620000fd565b98506200015460208b01620000fd565b97506200016460408b01620000fd565b96506200017460608b01620000fd565b955060808a0151945060a08a0151935060c08a0151925060e08a01519150620001a16101008b01620000fd565b90509295985092959850929598565b60805160601c60a05160601c60c05160601c60e05160601c610100516101205160601c6145256200025c600039600081816105a201528181610bb101528181611d1101528181611dc10152611e35015260008181610499015281816136d60152613b2101526000818161064a015261342101526000818161020501526134b40152600081816105f6015261352601526000818161034801528181610744015261128c01526145256000f3fe6080604052600436106101ee5760003560e01c80638c98b7f61161010d578063b852eb0d116100a0578063e2abb5c41161006f578063e2abb5c414610682578063e3e0626b14610698578063e3ee4327146106b8578063e9c3f77d146106d8578063eedb97c71461070e576101ee565b8063b852eb0d146105e4578063cb6067dd14610618578063db42923514610638578063df7c20f91461066c576101ee565b8063a75208a8116100dc578063a75208a8146104db578063a85c38ef146104f1578063ad5c464814610590578063b7453e27146105c4576101ee565b80638c98b7f61461045f57806394427b201461047f57806395e911a814610487578063a1c66570146104bb576101ee565b8063392f5f64116101855780636d626290116101545780636d626290146103bf578063799d34e1146103df5780637a1a04df146103ff5780637c3506241461044a576101ee565b8063392f5f6414610336578063447d52ba1461036a57806353d7ff9f1461038a57806369698670146103aa576101ee565b80631306d902116101c15780631306d902146102b65780631dce3baa146102d65780632eab93cb146102f6578063351ae61014610316576101ee565b8063059b157a146101f3578063071060a6146102445780630abb674c146102665780631084bd6d14610293575b600080fd5b3480156101ff57600080fd5b506102277f000000000000000000000000000000000000000000000000000000000000000081565b6040516001600160a01b0390911681526020015b60405180910390f35b34801561025057600080fd5b5061026461025f366004613fe6565b61072e565b005b34801561027257600080fd5b50610286610281366004614139565b6107f4565b60405161023b919061423c565b34801561029f57600080fd5b506102a8600a81565b60405190815260200161023b565b3480156102c257600080fd5b506102646102d1366004613e40565b610a0c565b3480156102e257600080fd5b506102646102f1366004613fe6565b610b98565b34801561030257600080fd5b50610264610311366004614096565b610ca4565b34801561032257600080fd5b506102866103313660046140da565b6111e3565b34801561034257600080fd5b506102277f000000000000000000000000000000000000000000000000000000000000000081565b34801561037657600080fd5b50610264610385366004614016565b611266565b34801561039657600080fd5b506102866103a53660046140da565b61133e565b3480156103b657600080fd5b506102646113b7565b3480156103cb57600080fd5b506102646103da366004613df0565b61159a565b3480156103eb57600080fd5b506102866103fa366004614045565b6116e6565b34801561040b57600080fd5b5061043a61041a366004613e40565b600160209081526000928352604080842090915290825290205460ff1681565b604051901515815260200161023b565b34801561045657600080fd5b50610286611726565b34801561046b57600080fd5b5061026461047a366004614045565b611737565b610264611c9b565b34801561049357600080fd5b506102a87f000000000000000000000000000000000000000000000000000000000000000081565b3480156104c757600080fd5b506102646104d6366004613fe6565b611e77565b3480156104e757600080fd5b506102a860025481565b3480156104fd57600080fd5b5061055161050c366004613fe6565b6007602052600090815260409020805460018201546002830154600384015460048501546005909501546001600160a01b039485169593851694929391929091169086565b604080516001600160a01b03978816815295871660208701528501939093526060840191909152909216608082015260a081019190915260c00161023b565b34801561059c57600080fd5b506102277f000000000000000000000000000000000000000000000000000000000000000081565b3480156105d057600080fd5b506102866105df366004614045565b611f3c565b3480156105f057600080fd5b506102277f000000000000000000000000000000000000000000000000000000000000000081565b34801561062457600080fd5b50610264610633366004613e6b565b611f7c565b34801561064457600080fd5b506102277f000000000000000000000000000000000000000000000000000000000000000081565b34801561067857600080fd5b506102a860035481565b34801561068e57600080fd5b506102a860045481565b3480156106a457600080fd5b506102646106b3366004613e40565b6121e6565b3480156106c457600080fd5b506102866106d3366004614139565b6122d5565b3480156106e457600080fd5b506102276106f3366004613fe6565b6000602081905290815260409020546001600160a01b031681565b34801561071a57600080fd5b50610264610729366004613e40565b6124a6565b60405163b4ed0b6d60e01b8152600481018290527f00000000000000000000000000000000000000000000000000000000000000006001600160a01b03169063b4ed0b6d9060240160206040518083038186803b15801561078e57600080fd5b505afa1580156107a2573d6000803e3d6000fd5b505050506040513d601f19601f820116820180604052508101906107c69190613dd4565b60009182526020829052604090912080546001600160a01b0319166001600160a01b03909216919091179055565b606081428110156108405760405162461bcd60e51b8152602060048201526011602482015270151c985919481a185cc8195e1c1a5c9959607a1b60448201526064015b60405180910390fd5b600061084b89612624565b9050606061089661085c838c614442565b8989898080602002602001604051908101604052809392919081815260200183836020028082843760009201919091525061264e92505050565b909450905061094d3388886000816108be57634e487b7160e01b600052603260045260246000fd5b90506020020160208101906108d39190613db8565b89896108e0600182614442565b8181106108fd57634e487b7160e01b600052603260045260246000fd5b90506020020160208101906109129190613db8565b8d8860018a516109229190614442565b8151811061094057634e487b7160e01b600052603260045260246000fd5b602002602001015161296b565b61095a848a838a8a612c93565b610962612e64565b6001600160a01b031663d9caed128888600081811061099157634e487b7160e01b600052603260045260246000fd5b90506020020160208101906109a69190613db8565b6109ae612e9c565b856040518463ffffffff1660e01b81526004016109cd939291906141ff565b600060405180830381600087803b1580156109e757600080fd5b505af11580156109fb573d6000803e3d6000fd5b505050505050509695505050505050565b610a14612e64565b6001600160a01b031663b3db428b3384846040518463ffffffff1660e01b8152600401610a43939291906141ff565b600060405180830381600087803b158015610a5d57600080fd5b505af1158015610a71573d6000803e3d6000fd5b505050506000610a7f612ed4565b6001600160a01b03166352a664d93385856040518463ffffffff1660e01b8152600401610aae939291906141ff565b602060405180830381600087803b158015610ac857600080fd5b505af1158015610adc573d6000803e3d6000fd5b505050506040513d601f19601f82011682018060405250810190610b009190613ffe565b90508015610b7a57610b10612f0c565b6001600160a01b0316632a6a897b84836040518363ffffffff1660e01b8152600401610b3d929190614223565b600060405180830381600087803b158015610b5757600080fd5b505af1158015610b6b573d6000803e3d6000fd5b50505050610b7a833383612f44565b60405133906000805160206144d083398151915290600090a2505050565b610ba0612ed4565b6001600160a01b031663d0eb6653337f0000000000000000000000000000000000000000000000000000000000000000846040518463ffffffff1660e01b8152600401610bef939291906141ff565b600060405180830381600087803b158015610c0957600080fd5b505af1158015610c1d573d6000803e3d6000fd5b50505050610c29612e64565b6001600160a01b0316634782f77933836040518363ffffffff1660e01b8152600401610c56929190614223565b600060405180830381600087803b158015610c7057600080fd5b505af1158015610c84573d6000803e3d6000fd5b50506040513392506000805160206144d08339815191529150600090a250565b60008281526007602052604090206002810154610cf35760405162461bcd60e51b815260206004820152600d60248201526c34b73b30b634b21037b93232b960991b6044820152606401610837565b60058101541580610d08575042816005015410155b610d445760405162461bcd60e51b815260206004820152600d60248201526c1bdc99195c88195e1c1a5c9959609a1b6044820152606401610837565b6000610d54838360020154612f8c565b90508160020154811415610d6f57610d6d600585612fa4565b505b60008260020154836003015483610d869190614423565b610d909190614403565b90506000610d9d83612fb7565b600485015485546001870154929350610dd1926001600160a01b03928316929182169116610dcb85886143eb565b8661296b565b60018401548454610dfb9133916001600160a01b03918216911685610df68689614442565b61296b565b6000610e05612ed4565b6004868101546040516307da4a9960e21b81526001600160a01b0391821692810192909252919250600091831690631f692a649060240160206040518083038186803b158015610e5457600080fd5b505afa158015610e68573d6000803e3d6000fd5b505050506040513d601f19601f82011682018060405250810190610e8c9190613ffe565b6040516307da4a9960e21b81523360048201529091506000906001600160a01b03841690631f692a649060240160206040518083038186803b158015610ed157600080fd5b505afa158015610ee5573d6000803e3d6000fd5b505050506040513d601f19601f82011682018060405250810190610f099190613ffe565b60048881015460405163a17ab52760e01b81526001600160a01b039182169281019290925291925060009185169063a17ab5279060240160206040518083038186803b158015610f5857600080fd5b505afa158015610f6c573d6000803e3d6000fd5b505050506040513d601f19601f82011682018060405250810190610f909190613ffe565b60405163a17ab52760e01b81523360048201529091506000906001600160a01b0386169063a17ab5279060240160206040518083038186803b158015610fd557600080fd5b505afa158015610fe9573d6000803e3d6000fd5b505050506040513d601f19601f8201168201806040525081019061100d9190613ffe565b9050606e8461101d846064614423565b6110279190614403565b116110745760405162461bcd60e51b815260206004820152601e60248201527f4d616b65722062616c616e636520746f6f206c6f7720746f20747261646500006044820152606401610837565b606e83611082836064614423565b61108c9190614403565b116110d95760405162461bcd60e51b815260206004820152601e60248201527f54616b65722062616c616e636520746f6f206c6f7720746f20747261646500006044820152606401610837565b878960020160008282546110ed9190614442565b92505081905550868960030160008282546111089190614442565b909155506111169050612e64565b89546001600160a01b039182169163d9caed129116611133612e9c565b61113e8a6002614423565b6040518463ffffffff1660e01b815260040161115c939291906141ff565b600060405180830381600087803b15801561117657600080fd5b505af115801561118a573d6000803e3d6000fd5b50505060028a0154604080518e8152602081019290925281018a90523391507ff1f421281ef88a22fb183db507ab0909e31346a50a36ff791b7e8bd046ff54d09060600160405180910390a25050505050505050505050565b60606111ee33612fc7565b61120a5760405162461bcd60e51b815260040161083790614280565b606061124a878686868080602002602001604051908101604052809392919081815260200183836020028082843760009201919091525061264e92505050565b909250905061125c8287838787612c93565b5095945050505050565b6040516393552a3d60e01b8152600481018390526001600160a01b0382811660248301527f000000000000000000000000000000000000000000000000000000000000000016906393552a3d9060440160206040518083038186803b1580156112ce57600080fd5b505afa1580156112e2573d6000803e3d6000fd5b505050506040513d601f19601f820116820180604052508101906113069190613f78565b6001600160a01b0391909116600090815260016020908152604080832094835293905291909120805460ff1916911515919091179055565b606061134933612fc7565b6113655760405162461bcd60e51b815260040161083790614280565b60606113a58786868680806020026020016040519081016040528093929190818152602001838360200280828437600092019190915250612ff592505050565b909250905061125c8287838787613334565b6000806113c2612ed4565b60405163204fedb960e11b81523360048201526001600160a01b03919091169063409fdb729060240160006040518083038186803b15801561140357600080fd5b505afa158015611417573d6000803e3d6000fd5b505050506040513d6000823e601f3d908101601f1916820160405261143f9190810190613eb2565b9150915061144b612ed4565b60405163db2d904d60e01b81523360048201526001600160a01b03919091169063db2d904d90602401600060405180830381600087803b15801561148e57600080fd5b505af11580156114a2573d6000803e3d6000fd5b5050505060005b808351111561157c576114ba612e64565b6001600160a01b031663d9caed128483815181106114e857634e487b7160e01b600052603260045260246000fd5b60200260200101513385858151811061151157634e487b7160e01b600052603260045260246000fd5b60200260200101516040518463ffffffff1660e01b8152600401611537939291906141ff565b600060405180830381600087803b15801561155157600080fd5b505af1158015611565573d6000803e3d6000fd5b50505050808061157490614470565b9150506114a9565b5060405133906000805160206144d083398151915290600090a25050565b6040805160c0810182526001600160a01b038088168252868116602080840191825283850188815260608501888152336080870181815260a088018a81526008805460009081526007909752958a9020985189549089166001600160a01b0319918216178a55965160018a018054918a16918916919091179055935160028901559151600388015590516004870180549190961694169390931790935591516005909301929092555491517f3581f86351475b96adc884b14bf733128b4cf4d8a9fd303db8b5bbc4a9be6d50926116b2929091899189918991899189909687526001600160a01b03958616602088015293851660408701526060860192909252608085015290911660a083015260c082015260e00190565b60405180910390a16008546116c9906005906133b8565b50600880549060006116da83614470565b91905055505050505050565b606061125c8585858580806020026020016040519081016040528093929190818152602001838360200280828437600092019190915250612ff592505050565b606061173260056133c4565b905090565b600084815260076020526040902060028101546117865760405162461bcd60e51b815260206004820152600d60248201526c34b73b30b634b21037b93232b960991b6044820152606401610837565b6005810154158061179b575042816005015410155b6117d75760405162461bcd60e51b815260206004820152600d60248201526c1bdc99195c88195e1c1a5c9959609a1b6044820152606401610837565b6117e2600586612fa4565b508282600081811061180457634e487b7160e01b600052603260045260246000fd5b90506020020160208101906118199190613db8565b81546001600160a01b0390811691161480156118835750828261183d600182614442565b81811061185a57634e487b7160e01b600052603260045260246000fd5b905060200201602081019061186f9190613db8565b60018201546001600160a01b039081169116145b6118c75760405162461bcd60e51b81526020600482015260156024820152740a8e4c2c8d2dcce40e0c2e8d040dad2e6dac2e8c6d605b1b6044820152606401610837565b60006118d68260020154612624565b90506000806119288385600201546118ee9190614442565b8888888080602002602001604051908101604052809392919081815260200183836020028082843760009201919091525061264e92505050565b600486015491935091506119c1906001600160a01b0316878760008161195e57634e487b7160e01b600052603260045260246000fd5b90506020020160208101906119739190613db8565b8888611980600182614442565b81811061199d57634e487b7160e01b600052603260045260246000fd5b90506020020160208101906119b29190613db8565b8760020154886003015461296b565b6119d2828560030154838989612c93565b6000846003015483600185516119e89190614442565b81518110611a0657634e487b7160e01b600052603260045260246000fd5b6020026020010151611a189190614442565b90506000611a24612ed4565b60018701546040516352a664d960e01b81526001600160a01b03928316926352a664d992611a5c9233929091169087906004016141ff565b602060405180830381600087803b158015611a7657600080fd5b505af1158015611a8a573d6000803e3d6000fd5b505050506040513d601f19601f82011682018060405250810190611aae9190613ffe565b90508015611b3e57611abe612f0c565b6001870154604051632a6a897b60e01b81526001600160a01b0392831692632a6a897b92611af3929116908590600401614223565b600060405180830381600087803b158015611b0d57600080fd5b505af1158015611b21573d6000803e3d6000fd5b5050506001870154611b3e91506001600160a01b03163384612f44565b611b46612e64565b6001600160a01b031663d9caed1289896000818110611b7557634e487b7160e01b600052603260045260246000fd5b9050602002016020810190611b8a9190613db8565b611b92612e9c565b886040518463ffffffff1660e01b8152600401611bb1939291906141ff565b600060405180830381600087803b158015611bcb57600080fd5b505af1158015611bdf573d6000803e3d6000fd5b50506040513392506000805160206144d08339815191529150600090a26000866002018190555060008660030181905550336001600160a01b03167ff1f421281ef88a22fb183db507ab0909e31346a50a36ff791b7e8bd046ff54d08b600087600081518110611c5f57634e487b7160e01b600052603260045260246000fd5b6020026020010151604051611c87939291909283526020830191909152604082015260600190565b60405180910390a250505050505050505050565b611ca3612e64565b6001600160a01b031663a6a5f9fe346040518263ffffffff1660e01b81526004016000604051808303818588803b158015611cdd57600080fd5b505af1158015611cf1573d6000803e3d6000fd5b50505050506000611d00612ed4565b6001600160a01b03166352a664d9337f0000000000000000000000000000000000000000000000000000000000000000346040518463ffffffff1660e01b8152600401611d4f939291906141ff565b602060405180830381600087803b158015611d6957600080fd5b505af1158015611d7d573d6000803e3d6000fd5b505050506040513d601f19601f82011682018060405250810190611da19190613ffe565b90508015611e5b57611db1612f0c565b6001600160a01b0316632a6a897b7f0000000000000000000000000000000000000000000000000000000000000000836040518363ffffffff1660e01b8152600401611dfe929190614223565b600060405180830381600087803b158015611e1857600080fd5b505af1158015611e2c573d6000803e3d6000fd5b50505050611e5b7f00000000000000000000000000000000000000000000000000000000000000003383612f44565b60405133906000805160206144d083398151915290600090a250565b600081815260076020526040902060048101546001600160a01b03163314611ed85760405162461bcd60e51b81526020600482015260146024820152733737ba1030baba3437b934bd32b21036b0b5b2b960611b6044820152606401610837565b6000600282018190556003820181905560408051848152602081018390529081019190915233907ff1f421281ef88a22fb183db507ab0909e31346a50a36ff791b7e8bd046ff54d09060600160405180910390a2611f37600583612fa4565b505050565b606061125c858585858080602002602001604051908101604052809392919081815260200183836020028082843760009201919091525061264e92505050565b611f84612e64565b6001600160a01b031663b3db428b3386866040518463ffffffff1660e01b8152600401611fb3939291906141ff565b600060405180830381600087803b158015611fcd57600080fd5b505af1158015611fe1573d6000803e3d6000fd5b50505050611fed612f0c565b6001600160a01b031663ee0862bf83836040518363ffffffff1660e01b815260040161201a929190614223565b600060405180830381600087803b15801561203457600080fd5b505af1158015612048573d6000803e3d6000fd5b50505050612054612ed4565b6040516303b0998360e31b81523360048201526001600160a01b038681166024830152604482018690528481166064830152608482018490529190911690631d84cc189060a401600060405180830381600087803b1580156120b557600080fd5b505af11580156120c9573d6000803e3d6000fd5b505050506120d5612f0c565b60405163dc683bcf60e01b81526001600160a01b038481166004830152919091169063dc683bcf90602401602060405180830381600087803b15801561211a57600080fd5b505af115801561212e573d6000803e3d6000fd5b505050506040513d601f19601f820116820180604052508101906121529190613ffe565b5061215b612e64565b6001600160a01b031663d9caed128333846040518463ffffffff1660e01b815260040161218a939291906141ff565b600060405180830381600087803b1580156121a457600080fd5b505af11580156121b8573d6000803e3d6000fd5b505050506121c78233836133d1565b60405133906000805160206144d083398151915290600090a250505050565b6121ee612ed4565b6001600160a01b031663d0eb66533384846040518463ffffffff1660e01b815260040161221d939291906141ff565b600060405180830381600087803b15801561223757600080fd5b505af115801561224b573d6000803e3d6000fd5b50505050612257612e64565b6001600160a01b031663d9caed128333846040518463ffffffff1660e01b8152600401612286939291906141ff565b600060405180830381600087803b1580156122a057600080fd5b505af11580156122b4573d6000803e3d6000fd5b50506040513392506000805160206144d08339815191529150600090a25050565b6060814281101561231c5760405162461bcd60e51b8152602060048201526011602482015270151c985919481a185cc8195e1c1a5c9959607a1b6044820152606401610837565b606060006123298a612fb7565b9050612372612338828c6143eb565b89898980806020026020016040519081016040528093929190818152602001838360200280828437600092019190915250612ff592505050565b909450915061241d33888860008161239a57634e487b7160e01b600052603260045260246000fd5b90506020020160208101906123af9190613db8565b89896123bc600182614442565b8181106123d957634e487b7160e01b600052603260045260246000fd5b90506020020160208101906123ee9190613db8565b8760008151811061240f57634e487b7160e01b600052603260045260246000fd5b60200260200101518e61296b565b61242a848a848a8a613334565b612432612e64565b6001600160a01b031663d9caed12888861244d600182614442565b81811061246a57634e487b7160e01b600052603260045260246000fd5b905060200201602081019061247f9190613db8565b612487612e9c565b846040518463ffffffff1660e01b81526004016109cd939291906141ff565b6124ae612f0c565b6001600160a01b031663ee0862bf83836040518363ffffffff1660e01b81526004016124db929190614223565b600060405180830381600087803b1580156124f557600080fd5b505af1158015612509573d6000803e3d6000fd5b50505050612515612ed4565b6001600160a01b031663498d55eb3384846040518463ffffffff1660e01b8152600401612544939291906141ff565b600060405180830381600087803b15801561255e57600080fd5b505af1158015612572573d6000803e3d6000fd5b5050505061257e612f0c565b60405163dc683bcf60e01b81526001600160a01b038481166004830152919091169063dc683bcf90602401602060405180830381600087803b1580156125c357600080fd5b505af11580156125d7573d6000803e3d6000fd5b505050506040513d601f19601f820116820180604052508101906125fb9190613ffe565b506126078233836133d1565b60405133906000805160206144d083398151915290600090a25050565b6000612633600a6127106143eb565b61263e83600a614423565b6126489190614403565b92915050565b60608060028351101561269a5760405162461bcd60e51b81526020600482015260146024820152731d1bdad95b881c185d1a081d1bdbc81cda1bdc9d60621b6044820152606401610837565b825167ffffffffffffffff8111156126c257634e487b7160e01b600052604160045260246000fd5b6040519080825280602002602001820160405280156126eb578160200160208202803683370190505b509150848260008151811061271057634e487b7160e01b600052603260045260246000fd5b6020026020010181815250506001835161272a9190614442565b67ffffffffffffffff81111561275057634e487b7160e01b600052604160045260246000fd5b604051908082528060200260200182016040528015612779578160200160208202803683370190505b50905060005b6001845161278d9190614442565b8110156129625760008482815181106127b657634e487b7160e01b600052603260045260246000fd5b602002602001015190506000858360016127d091906143eb565b815181106127ee57634e487b7160e01b600052603260045260246000fd5b60200260200101519050600087846020811061281a57634e487b7160e01b600052603260045260246000fd5b1a60f81b6001600160f81b031916156128835787846020811061284d57634e487b7160e01b600052603260045260246000fd5b1a60f81b6001600160f81b031916600160f81b146128745761286f838361340c565b61287e565b61287e838361349f565b61288d565b61288d8383613511565b9050808585815181106128b057634e487b7160e01b600052603260045260246000fd5b60200260200101906001600160a01b031690816001600160a01b0316815250506000806128de838686613583565b9150915061291488878151811061290557634e487b7160e01b600052603260045260246000fd5b60200260200101518383613652565b886129208860016143eb565b8151811061293e57634e487b7160e01b600052603260045260246000fd5b6020026020010181815250505050505050808061295a90614470565b91505061277f565b50935093915050565b600080612976612ed4565b604051633500aa0b60e01b81526001600160a01b0389811660048301528881166024830152878116604483015260648201879052608482018690529190911690633500aa0b9060a4016040805180830381600087803b1580156129d857600080fd5b505af11580156129ec573d6000803e3d6000fd5b505050506040513d601f19601f82011682018060405250810190612a1091906140b7565b90925090508115612b1357612a23612f0c565b6001600160a01b0316632a6a897b86846040518363ffffffff1660e01b8152600401612a50929190614223565b600060405180830381600087803b158015612a6a57600080fd5b505af1158015612a7e573d6000803e3d6000fd5b50505050612a8a612f0c565b60405163dc683bcf60e01b81526001600160a01b038781166004830152919091169063dc683bcf90602401602060405180830381600087803b158015612acf57600080fd5b505af1158015612ae3573d6000803e3d6000fd5b505050506040513d601f19601f82011682018060405250810190612b079190613ffe565b50612b13858884612f44565b8015612c1157612b21612f0c565b6001600160a01b031663ee0862bf87836040518363ffffffff1660e01b8152600401612b4e929190614223565b600060405180830381600087803b158015612b6857600080fd5b505af1158015612b7c573d6000803e3d6000fd5b50505050612b88612f0c565b60405163dc683bcf60e01b81526001600160a01b038881166004830152919091169063dc683bcf90602401602060405180830381600087803b158015612bcd57600080fd5b505af1158015612be1573d6000803e3d6000fd5b505050506040513d601f19601f82011682018060405250810190612c059190613ffe565b50612c118688836133d1565b6040516001600160a01b038816906000805160206144d083398151915290600090a2604080516001600160a01b038881168252878116602083015291810186905260608101859052908816907f610a6fcfd0e5da3e1f98054761ba753182ff6f350467da719cae9d94e5f541369060800160405180910390a250505050505050565b838560018751612ca39190614442565b81518110612cc157634e487b7160e01b600052603260045260246000fd5b60200260200101511015612d285760405162461bcd60e51b815260206004820152602860248201527f4d617267696e526f757465723a20494e53554646494349454e545f4f555450556044820152671517d05353d5539560c21b6064820152608401610837565b612d30612e64565b6001600160a01b031663d9caed1283836000818110612d5f57634e487b7160e01b600052603260045260246000fd5b9050602002016020810190612d749190613db8565b85600081518110612d9557634e487b7160e01b600052603260045260246000fd5b602002602001015188600081518110612dbe57634e487b7160e01b600052603260045260246000fd5b60200260200101516040518463ffffffff1660e01b8152600401612de4939291906141ff565b600060405180830381600087803b158015612dfe57600080fd5b505af1158015612e12573d6000803e3d6000fd5b50505050612e5d8584848480806020026020016040519081016040528093929190818152602001838360200280828437600092019190915250612e589250612e64915050565b61373b565b5050505050565b606560009081526020527f4a7203f705e51df4a56139a9b86b4a0970bed7ab7a3446eaffe2289989c1645c546001600160a01b031690565b606e60009081526020527f6ce4024642c4779dc119f2ece9b9cc34663ef4cfd6a7942d809a7de1813aca7d546001600160a01b031690565b606860009081526020527faa071f48f62aaaa1f6320aaa7bd2ad2d552d05160892c14d699d38c9920d5f99546001600160a01b031690565b606660009081526020527f422cccb7cea5c0e46f340bb7b21b81debac329f72e31669c20ff0f3a05cc2b5b546001600160a01b031690565b816001600160a01b03167f3397b60e3ca1e9c0c75a033d62ab8731e9b2937c0690ae5d7f1bd37886b19d7d8483604051612f7f929190614223565b60405180910390a2505050565b600081831115612f9d575080612648565b5090919050565b6000612fb08383613969565b9392505050565b600061271061263e83600a614423565b6001600160a01b03811660009081526001602090815260408083206007845290915290205460ff165b919050565b6060806002835110156130415760405162461bcd60e51b81526020600482015260146024820152731d1bdad95b881c185d1a081d1bdbc81cda1bdc9d60621b6044820152606401610837565b825167ffffffffffffffff81111561306957634e487b7160e01b600052604160045260246000fd5b604051908082528060200260200182016040528015613092578160200160208202803683370190505b5091508482600184516130a59190614442565b815181106130c357634e487b7160e01b600052603260045260246000fd5b602002602001018181525050600183516130dd9190614442565b67ffffffffffffffff81111561310357634e487b7160e01b600052604160045260246000fd5b60405190808252806020026020018201604052801561312c578160200160208202803683370190505b50905060006001845161313f9190614442565b90505b801561296257600084613156600184614442565b8151811061317457634e487b7160e01b600052603260045260246000fd5b6020026020010151905060008583815181106131a057634e487b7160e01b600052603260045260246000fd5b602002602001015190506000876001856131ba9190614442565b602081106131d857634e487b7160e01b600052603260045260246000fd5b1a60f81b6001600160f81b0319161561324b57876131f7600186614442565b6020811061321557634e487b7160e01b600052603260045260246000fd5b1a60f81b6001600160f81b031916600160f81b1461323c57613237838361340c565b613246565b613246838361349f565b613255565b6132558383613511565b90508085613264600187614442565b8151811061328257634e487b7160e01b600052603260045260246000fd5b60200260200101906001600160a01b031690816001600160a01b0316815250506000806132b0838686613583565b915091506132e68887815181106132d757634e487b7160e01b600052603260045260246000fd5b60200260200101518383613a86565b886132f2600189614442565b8151811061331057634e487b7160e01b600052603260045260246000fd5b6020026020010181815250505050505050808061332c90614459565b915050613142565b838560008151811061335657634e487b7160e01b600052603260045260246000fd5b60200260200101511115612d285760405162461bcd60e51b8152602060048201526024808201527f4d617267696e526f757465723a204558434553534956455f494e5055545f414d60448201526313d5539560e21b6064820152608401610837565b6000612fb08383613b75565b60606000612fb083613bc4565b816001600160a01b03167f8ec70c9430377a4bba035133e27a5b0f3b9951bc080833f6832bcbbb70a96dba8483604051612f7f929190614223565b600080600061341b8585613c20565b915091507f000000000000000000000000000000000000000000000000000000000000000082826040516020016134539291906141a0565b6040516020818303038152906040528051906020012060045460405160200161347e939291906141c7565b60408051601f19818403018152919052805160209091012095945050505050565b60008060006134ae8585613c20565b915091507f000000000000000000000000000000000000000000000000000000000000000082826040516020016134e69291906141a0565b6040516020818303038152906040528051906020012060035460405160200161347e939291906141c7565b60008060006135208585613c20565b915091507f000000000000000000000000000000000000000000000000000000000000000082826040516020016135589291906141a0565b6040516020818303038152906040528051906020012060025460405160200161347e939291906141c7565b60008060006135928585613c20565b509050600080876001600160a01b0316630902f1ac6040518163ffffffff1660e01b815260040160606040518083038186803b1580156135d157600080fd5b505afa1580156135e5573d6000803e3d6000fd5b505050506040513d601f19601f820116820180604052508101906136099190613f98565b506001600160701b031691506001600160701b03169150826001600160a01b0316876001600160a01b031614613640578082613643565b81815b90999098509650505050505050565b60008084116136a35760405162461bcd60e51b815260206004820152601960248201527f494e53554646494349454e545f494e5055545f414d4f554e54000000000000006044820152606401610837565b6000831180156136b35750600082115b6136cf5760405162461bcd60e51b8152600401610837906142dd565b60006136fb7f000000000000000000000000000000000000000000000000000000000000000086614423565b905060006137098483614423565b905060008261371a87612710614423565b61372491906143eb565b90506137308183614403565b979650505050505050565b60005b8351811015612e5d5760008084838151811061376a57634e487b7160e01b600052603260045260246000fd5b60200260200101518584600161378091906143eb565b8151811061379e57634e487b7160e01b600052603260045260246000fd5b60200260200101519150915060006137b68383613c20565b5090506000886137c78660016143eb565b815181106137e557634e487b7160e01b600052603260045260246000fd5b60200260200101519050600080836001600160a01b0316866001600160a01b03161461381357826000613817565b6000835b91509150600060018b5161382b9190614442565b8810613837578861386a565b8a6138438960016143eb565b8151811061386157634e487b7160e01b600052603260045260246000fd5b60200260200101515b905060008b898151811061388e57634e487b7160e01b600052603260045260246000fd5b60200260200101519050806001600160a01b031663022c0d9f858585600067ffffffffffffffff8111156138d257634e487b7160e01b600052604160045260246000fd5b6040519080825280601f01601f1916602001820160405280156138fc576020820181803683370190505b506040518563ffffffff1660e01b815260040161391c9493929190614325565b600060405180830381600087803b15801561393657600080fd5b505af115801561394a573d6000803e3d6000fd5b505050505050505050505050808061396190614470565b91505061373e565b60008181526001830160205260408120548015613a7c57600061398d600183614442565b85549091506000906139a190600190614442565b9050818114613a225760008660000182815481106139cf57634e487b7160e01b600052603260045260246000fd5b9060005260206000200154905080876000018481548110613a0057634e487b7160e01b600052603260045260246000fd5b6000918252602080832090910192909255918252600188019052604090208390555b8554869080613a4157634e487b7160e01b600052603160045260246000fd5b600190038181906000526020600020016000905590558560010160008681526020019081526020016000206000905560019350505050612648565b6000915050612648565b6000808411613ad75760405162461bcd60e51b815260206004820152601a60248201527f494e53554646494349454e545f4f55545055545f414d4f554e540000000000006044820152606401610837565b600083118015613ae75750600082115b613b035760405162461bcd60e51b8152600401610837906142dd565b6000613b0f8585614423565b613b1b90612710614423565b905060007f0000000000000000000000000000000000000000000000000000000000000000613b4a8786614442565b613b549190614423565b9050613b608183614403565b613b6b9060016143eb565b9695505050505050565b6000818152600183016020526040812054613bbc57508154600181810184556000848152602080822090930184905584548482528286019093526040902091909155612648565b506000612648565b606081600001805480602002602001604051908101604052809291908181526020018280548015613c1457602002820191906000526020600020905b815481526020019060010190808311613c00575b50505050509050919050565b600080826001600160a01b0316846001600160a01b03161415613c7a5760405162461bcd60e51b81526020600482015260126024820152714964656e746963616c20616464726573732160701b6044820152606401610837565b826001600160a01b0316846001600160a01b031610613c9a578284613c9d565b83835b90925090506001600160a01b038216613ce85760405162461bcd60e51b815260206004820152600d60248201526c5a65726f20616464726573732160981b6044820152606401610837565b9250929050565b60008083601f840112613d00578182fd5b50813567ffffffffffffffff811115613d17578182fd5b6020830191508360208260051b8501011115613ce857600080fd5b600082601f830112613d42578081fd5b81516020613d57613d52836143c7565b614396565b80838252828201915082860187848660051b8901011115613d76578586fd5b855b85811015613d9457815184529284019290840190600101613d78565b5090979650505050505050565b80516001600160701b0381168114612ff057600080fd5b600060208284031215613dc9578081fd5b8135612fb0816144b7565b600060208284031215613de5578081fd5b8151612fb0816144b7565b600080600080600060a08688031215613e07578081fd5b8535613e12816144b7565b94506020860135613e22816144b7565b94979496505050506040830135926060810135926080909101359150565b60008060408385031215613e52578182fd5b8235613e5d816144b7565b946020939093013593505050565b60008060008060808587031215613e80578384fd5b8435613e8b816144b7565b9350602085013592506040850135613ea2816144b7565b9396929550929360600135925050565b60008060408385031215613ec4578182fd5b825167ffffffffffffffff80821115613edb578384fd5b818501915085601f830112613eee578384fd5b81516020613efe613d52836143c7565b8083825282820191508286018a848660051b8901011115613f1d578889fd5b8896505b84871015613f48578051613f34816144b7565b835260019690960195918301918301613f21565b5091880151919650909350505080821115613f61578283fd5b50613f6e85828601613d32565b9150509250929050565b600060208284031215613f89578081fd5b81518015158114612fb0578182fd5b600080600060608486031215613fac578283fd5b613fb584613da1565b9250613fc360208501613da1565b9150604084015163ffffffff81168114613fdb578182fd5b809150509250925092565b600060208284031215613ff7578081fd5b5035919050565b60006020828403121561400f578081fd5b5051919050565b60008060408385031215614028578182fd5b82359150602083013561403a816144b7565b809150509250929050565b6000806000806060858703121561405a578182fd5b8435935060208501359250604085013567ffffffffffffffff81111561407e578283fd5b61408a87828801613cef565b95989497509550505050565b600080604083850312156140a8578182fd5b50508035926020909101359150565b600080604083850312156140c9578182fd5b505080516020909101519092909150565b6000806000806000608086880312156140f1578283fd5b853594506020860135935060408601359250606086013567ffffffffffffffff81111561411c578182fd5b61412888828901613cef565b969995985093965092949392505050565b60008060008060008060a08789031215614151578384fd5b863595506020870135945060408701359350606087013567ffffffffffffffff81111561417c578182fd5b61418889828a01613cef565b979a9699509497949695608090950135949350505050565b6bffffffffffffffffffffffff19606093841b811682529190921b16601482015260280190565b6001600160f81b0319815260609390931b6bffffffffffffffffffffffff191660018401526015830191909152603582015260550190565b6001600160a01b039384168152919092166020820152604081019190915260600190565b6001600160a01b03929092168252602082015260400190565b6020808252825182820181905260009190848201906040850190845b8181101561427457835183529284019291840191600101614258565b50909695505050505050565b6020808252603e908201527f43616c6c696e6720636f6e7472616374206973206e6f7420617574686f72697a60408201527f656420746f20747261646520776974682070726f746f636c2066756e64730000606082015260800190565b60208082526028908201527f556e697377617056324c6962726172793a20494e53554646494349454e545f4c604082015267495155494449545960c01b606082015260800190565b60008582526020858184015260018060a01b0385166040840152608060608401528351806080850152825b8181101561436c5785810183015185820160a001528201614350565b8181111561437d578360a083870101525b50601f01601f19169290920160a0019695505050505050565b604051601f8201601f1916810167ffffffffffffffff811182821017156143bf576143bf6144a1565b604052919050565b600067ffffffffffffffff8211156143e1576143e16144a1565b5060051b60200190565b600082198211156143fe576143fe61448b565b500190565b60008261441e57634e487b7160e01b81526012600452602481fd5b500490565b600081600019048311821515161561443d5761443d61448b565b500290565b6000828210156144545761445461448b565b500390565b6000816144685761446861448b565b506000190190565b60006000198214156144845761448461448b565b5060010190565b634e487b7160e01b600052601160045260246000fd5b634e487b7160e01b600052604160045260246000fd5b6001600160a01b03811681146144cc57600080fd5b5056fee7b1fae3a790ceab07642c09617df79428b02832cd512bbfdd4db50272dcdf30a2646970667358221220bd0d51fad78d40e5fa378f7b7c371d7a45c491c8263a86984ba9b7114b6f793e64736f6c63430008030033",
  "devdoc": {
    "kind": "dev",
    "methods": {
      "crossOvercollateralizedBorrow(address,uint256,address,uint256)": {
        "details": "caution: the account still has to have a positive balaance at the end of the withdraw. So an underwater account may not be able to withdraw"
      }
    },
    "title": "Top level transaction controller",
    "version": 1
  },
  "userdoc": {
    "kind": "user",
    "methods": {
      "authorizedSwapExactT4T(uint256,uint256,bytes32,address[])": {
        "notice": "make swaps on AMM using protocol funds, only for authorized contracts"
      },
      "crossBorrow(address,uint256)": {
        "notice": "borrow into cross margin trading account"
      },
      "crossCloseAccount()": {
        "notice": "close an account that is no longer borrowing and return gains"
      },
      "crossDeposit(address,uint256)": {
        "notice": "traders call this to deposit funds on cross margin"
      },
      "crossDepositETH()": {
        "notice": "deposit wrapped ehtereum into cross margin account"
      },
      "crossOvercollateralizedBorrow(address,uint256,address,uint256)": {
        "notice": "convenience function to perform overcollateralized borrowing against a cross margin account."
      },
      "crossWithdraw(address,uint256)": {
        "notice": "withdraw deposits/earnings from cross margin account"
      },
      "crossWithdrawETH(uint256)": {
        "notice": "withdraw ethereum from cross margin account"
      },
      "swapExactTokensForTokens(uint256,uint256,bytes32,address[],uint256)": {
        "notice": "entry point for swapping tokens held in cross margin account"
      },
      "swapTokensForExactTokens(uint256,uint256,bytes32,address[],uint256)": {
        "notice": "entry point for swapping tokens held in cross margin account"
      }
    },
    "version": 1
  },
  "storageLayout": {
    "storage": [
      {
        "astId": 11794,
        "contract": "contracts/MarginRouter.sol:MarginRouter",
        "label": "mainCharacterCache",
        "offset": 0,
        "slot": "0",
        "type": "t_mapping(t_uint256,t_address)"
      },
      {
        "astId": 11800,
        "contract": "contracts/MarginRouter.sol:MarginRouter",
        "label": "roleCache",
        "offset": 0,
        "slot": "1",
        "type": "t_mapping(t_address,t_mapping(t_uint256,t_bool))"
      },
      {
        "astId": 26293,
        "contract": "contracts/MarginRouter.sol:MarginRouter",
        "label": "amm1InitHash",
        "offset": 0,
        "slot": "2",
        "type": "t_bytes32"
      },
      {
        "astId": 26295,
        "contract": "contracts/MarginRouter.sol:MarginRouter",
        "label": "amm2InitHash",
        "offset": 0,
        "slot": "3",
        "type": "t_bytes32"
      },
      {
        "astId": 26297,
        "contract": "contracts/MarginRouter.sol:MarginRouter",
        "label": "amm3InitHash",
        "offset": 0,
        "slot": "4",
        "type": "t_bytes32"
      },
      {
        "astId": 9143,
        "contract": "contracts/MarginRouter.sol:MarginRouter",
        "label": "pendingOrders",
        "offset": 0,
        "slot": "5",
        "type": "t_struct(UintSet)1679_storage"
      },
      {
        "astId": 9166,
        "contract": "contracts/MarginRouter.sol:MarginRouter",
        "label": "orders",
        "offset": 0,
        "slot": "7",
        "type": "t_mapping(t_uint256,t_struct(Order)9161_storage)"
      },
      {
        "astId": 9169,
        "contract": "contracts/MarginRouter.sol:MarginRouter",
        "label": "nextOrderId",
        "offset": 0,
        "slot": "8",
        "type": "t_uint256"
      }
    ],
    "types": {
      "t_address": {
        "encoding": "inplace",
        "label": "address",
        "numberOfBytes": "20"
      },
      "t_array(t_bytes32)dyn_storage": {
        "base": "t_bytes32",
        "encoding": "dynamic_array",
        "label": "bytes32[]",
        "numberOfBytes": "32"
      },
      "t_bool": {
        "encoding": "inplace",
        "label": "bool",
        "numberOfBytes": "1"
      },
      "t_bytes32": {
        "encoding": "inplace",
        "label": "bytes32",
        "numberOfBytes": "32"
      },
      "t_mapping(t_address,t_mapping(t_uint256,t_bool))": {
        "encoding": "mapping",
        "key": "t_address",
        "label": "mapping(address => mapping(uint256 => bool))",
        "numberOfBytes": "32",
        "value": "t_mapping(t_uint256,t_bool)"
      },
      "t_mapping(t_bytes32,t_uint256)": {
        "encoding": "mapping",
        "key": "t_bytes32",
        "label": "mapping(bytes32 => uint256)",
        "numberOfBytes": "32",
        "value": "t_uint256"
      },
      "t_mapping(t_uint256,t_address)": {
        "encoding": "mapping",
        "key": "t_uint256",
        "label": "mapping(uint256 => address)",
        "numberOfBytes": "32",
        "value": "t_address"
      },
      "t_mapping(t_uint256,t_bool)": {
        "encoding": "mapping",
        "key": "t_uint256",
        "label": "mapping(uint256 => bool)",
        "numberOfBytes": "32",
        "value": "t_bool"
      },
      "t_mapping(t_uint256,t_struct(Order)9161_storage)": {
        "encoding": "mapping",
        "key": "t_uint256",
        "label": "mapping(uint256 => struct MarginRouter.Order)",
        "numberOfBytes": "32",
        "value": "t_struct(Order)9161_storage"
      },
      "t_struct(Order)9161_storage": {
        "encoding": "inplace",
        "label": "struct MarginRouter.Order",
        "members": [
          {
            "astId": 9150,
            "contract": "contracts/MarginRouter.sol:MarginRouter",
            "label": "fromToken",
            "offset": 0,
            "slot": "0",
            "type": "t_address"
          },
          {
            "astId": 9152,
            "contract": "contracts/MarginRouter.sol:MarginRouter",
            "label": "toToken",
            "offset": 0,
            "slot": "1",
            "type": "t_address"
          },
          {
            "astId": 9154,
            "contract": "contracts/MarginRouter.sol:MarginRouter",
            "label": "inAmount",
            "offset": 0,
            "slot": "2",
            "type": "t_uint256"
          },
          {
            "astId": 9156,
            "contract": "contracts/MarginRouter.sol:MarginRouter",
            "label": "outAmount",
            "offset": 0,
            "slot": "3",
            "type": "t_uint256"
          },
          {
            "astId": 9158,
            "contract": "contracts/MarginRouter.sol:MarginRouter",
            "label": "maker",
            "offset": 0,
            "slot": "4",
            "type": "t_address"
          },
          {
            "astId": 9160,
            "contract": "contracts/MarginRouter.sol:MarginRouter",
            "label": "expiration",
            "offset": 0,
            "slot": "5",
            "type": "t_uint256"
          }
        ],
        "numberOfBytes": "192"
      },
      "t_struct(Set)1221_storage": {
        "encoding": "inplace",
        "label": "struct EnumerableSet.Set",
        "members": [
          {
            "astId": 1216,
            "contract": "contracts/MarginRouter.sol:MarginRouter",
            "label": "_values",
            "offset": 0,
            "slot": "0",
            "type": "t_array(t_bytes32)dyn_storage"
          },
          {
            "astId": 1220,
            "contract": "contracts/MarginRouter.sol:MarginRouter",
            "label": "_indexes",
            "offset": 0,
            "slot": "1",
            "type": "t_mapping(t_bytes32,t_uint256)"
          }
        ],
        "numberOfBytes": "64"
      },
      "t_struct(UintSet)1679_storage": {
        "encoding": "inplace",
        "label": "struct EnumerableSet.UintSet",
        "members": [
          {
            "astId": 1678,
            "contract": "contracts/MarginRouter.sol:MarginRouter",
            "label": "_inner",
            "offset": 0,
            "slot": "0",
            "type": "t_struct(Set)1221_storage"
          }
        ],
        "numberOfBytes": "64"
      },
      "t_uint256": {
        "encoding": "inplace",
        "label": "uint256",
        "numberOfBytes": "32"
      }
    }
  }
}