{
  "address": "0x88D7C739c43EC0da72B9317BB4193e98BC530bBd",
  "abi": [
    {
      "inputs": [
        {
          "internalType": "address",
          "name": "_MFI",
          "type": "address"
        },
        {
          "internalType": "uint256",
          "name": "initialRewardPerBlock",
          "type": "uint256"
        },
        {
          "internalType": "address",
          "name": "_roles",
          "type": "address"
        }
      ],
      "stateMutability": "nonpayable",
      "type": "constructor"
    },
    {
      "inputs": [],
      "name": "MFI",
      "outputs": [
        {
          "internalType": "contract IERC20",
          "name": "",
          "type": "address"
        }
      ],
      "stateMutability": "view",
      "type": "function"
    },
    {
      "inputs": [
        {
          "internalType": "uint256",
          "name": "amount",
          "type": "uint256"
        }
      ],
      "name": "add2RewardTarget",
      "outputs": [],
      "stateMutability": "nonpayable",
      "type": "function"
    },
    {
      "inputs": [],
      "name": "cumulativeReward",
      "outputs": [
        {
          "internalType": "uint256",
          "name": "",
          "type": "uint256"
        }
      ],
      "stateMutability": "view",
      "type": "function"
    },
    {
      "inputs": [],
      "name": "lastCumulativeUpdateBlock",
      "outputs": [
        {
          "internalType": "uint256",
          "name": "",
          "type": "uint256"
        }
      ],
      "stateMutability": "view",
      "type": "function"
    },
    {
      "inputs": [
        {
          "internalType": "uint256",
          "name": "amount",
          "type": "uint256"
        },
        {
          "internalType": "address",
          "name": "recipient",
          "type": "address"
        }
      ],
      "name": "removeFromRewardTarget",
      "outputs": [],
      "stateMutability": "nonpayable",
      "type": "function"
    },
    {
      "inputs": [],
      "name": "rewardTarget",
      "outputs": [
        {
          "internalType": "uint256",
          "name": "",
          "type": "uint256"
        }
      ],
      "stateMutability": "view",
      "type": "function"
    },
    {
      "inputs": [
        {
          "internalType": "uint256",
          "name": "rewardPerBlock",
          "type": "uint256"
        }
      ],
      "name": "setTotalRewardPerBlock",
      "outputs": [],
      "stateMutability": "nonpayable",
      "type": "function"
    },
    {
      "inputs": [
        {
          "internalType": "uint256",
          "name": "amount",
          "type": "uint256"
        },
        {
          "internalType": "uint256",
          "name": "duration",
          "type": "uint256"
        }
      ],
      "name": "stake",
      "outputs": [],
      "stateMutability": "nonpayable",
      "type": "function"
    },
    {
      "inputs": [
        {
          "internalType": "address",
          "name": "",
          "type": "address"
        }
      ],
      "name": "stakeAccounts",
      "outputs": [
        {
          "internalType": "uint256",
          "name": "stakeAmount",
          "type": "uint256"
        },
        {
          "internalType": "uint256",
          "name": "stakeWeight",
          "type": "uint256"
        },
        {
          "internalType": "uint256",
          "name": "cumulativeStart",
          "type": "uint256"
        },
        {
          "internalType": "uint256",
          "name": "lockEnd",
          "type": "uint256"
        }
      ],
      "stateMutability": "view",
      "type": "function"
    },
    {
      "inputs": [],
      "name": "stakeToken",
      "outputs": [
        {
          "internalType": "contract IERC20",
          "name": "",
          "type": "address"
        }
      ],
      "stateMutability": "view",
      "type": "function"
    },
    {
      "inputs": [],
      "name": "totalCurrentRewardPerBlock",
      "outputs": [
        {
          "internalType": "uint256",
          "name": "",
          "type": "uint256"
        }
      ],
      "stateMutability": "view",
      "type": "function"
    },
    {
      "inputs": [],
      "name": "totalCurrentWeights",
      "outputs": [
        {
          "internalType": "uint256",
          "name": "",
          "type": "uint256"
        }
      ],
      "stateMutability": "view",
      "type": "function"
    },
    {
      "inputs": [],
      "name": "updateCumulativeReward",
      "outputs": [
        {
          "internalType": "uint256",
          "name": "",
          "type": "uint256"
        }
      ],
      "stateMutability": "nonpayable",
      "type": "function"
    },
    {
      "inputs": [
        {
          "internalType": "address",
          "name": "account",
          "type": "address"
        }
      ],
      "name": "viewRewardAmount",
      "outputs": [
        {
          "internalType": "uint256",
          "name": "",
          "type": "uint256"
        }
      ],
      "stateMutability": "view",
      "type": "function"
    },
    {
      "inputs": [],
      "name": "viewUpdatedCumulativeReward",
      "outputs": [
        {
          "internalType": "uint256",
          "name": "",
          "type": "uint256"
        }
      ],
      "stateMutability": "view",
      "type": "function"
    },
    {
      "inputs": [],
      "name": "withdrawReward",
      "outputs": [],
      "stateMutability": "nonpayable",
      "type": "function"
    },
    {
      "inputs": [
        {
          "internalType": "uint256",
          "name": "amount",
          "type": "uint256"
        }
      ],
      "name": "withdrawStake",
      "outputs": [],
      "stateMutability": "nonpayable",
      "type": "function"
    }
  ],
  "transactionHash": "0x34eba8811e582bfbd2631910975bbbb737de5d697d251296209a4a2fa55a0346",
  "args": [
    "0x37bdFd6eD491Ee0E0fe2ce49de2cb573880E3734",
    "86805555555555555",
    "0x106c1a7D4C5F3844F9aC92B2DE7A1B5C94DE4811"
  ],
  "solcInputHash": "d766484993fafb9f7e66a10fe2148d76",
  "bytecode": "0x60c060405234801561001057600080fd5b5060405161123438038061123483398101604081905261002f9161008f565b60609290921b6001600160601b03191660a0819052608052600080546001600160a01b0319166001600160a01b0390931692909217909155436003556005556100ca565b80516001600160a01b038116811461008a57600080fd5b919050565b6000806000606084860312156100a3578283fd5b6100ac84610073565b9250602084015191506100c160408501610073565b90509250925092565b60805160601c60a05160601c61111c6101186000396000818161027d0152818161043f015281816108ab01528181610a8c0152610b1d0152600081816101720152610790015261111c6000f3fe608060405234801561001057600080fd5b506004361061011b5760003560e01c806382751982116100b2578063c8d65d5911610081578063e57466fd11610066578063e57466fd14610222578063ed29c12b14610278578063fb3935ee1461029f5761011b565b8063c8d65d5914610207578063dbe85f701461020f5761011b565b806382751982146101da578063b675e13c146101e3578063c1e4db56146101f6578063c885bc58146101ff5761011b565b806351ed6a30116100ee57806351ed6a301461016d5780635fc754b2146101ac5780636eb2d89a146101b45780637b0472f0146101c75761011b565b80631bef6b701461012057806320ef8c061461013557806325d5971f146101515780634fbfa2fc14610164575b600080fd5b61013361012e366004610f11565b6102a8565b005b61013e60035481565b6040519081526020015b60405180910390f35b61013361015f366004610ee1565b6104de565b61013e60055481565b6101947f000000000000000000000000000000000000000000000000000000000000000081565b6040516001600160a01b039091168152602001610148565b61013e6105cd565b6101336101c2366004610ee1565b6105f0565b6101336101d5366004610f40565b610783565b61013e60065481565b6101336101f1366004610ee1565b61089e565b61013e60025481565b6101336108f6565b61013e610919565b61013e61021d366004610e89565b610953565b610258610230366004610e89565b6001602081905260009182526040909120805491810154600282015460039092015490919084565b604080519485526020850193909352918301526060820152608001610148565b6101947f000000000000000000000000000000000000000000000000000000000000000081565b61013e60045481565b60008054906101000a90046001600160a01b03166001600160a01b0316638da5cb5b6040518163ffffffff1660e01b815260040160206040518083038186803b1580156102f457600080fd5b505afa158015610308573d6000803e3d6000fd5b505050506040513d601f19601f8201168201806040525081019061032c9190610ea5565b6001600160a01b0316336001600160a01b031614806103e1575060008054906101000a90046001600160a01b03166001600160a01b031663c34c08e56040518163ffffffff1660e01b8152600401602060405180830381600087803b15801561039457600080fd5b505af11580156103a8573d6000803e3d6000fd5b505050506040513d601f19601f820116820180604052508101906103cc9190610ea5565b6001600160a01b0316336001600160a01b0316145b6104325760405162461bcd60e51b815260206004820152600e60248201527f4e6f7420617574686f72697a656400000000000000000000000000000000000060448201526064015b60405180910390fd5b6104666001600160a01b037f000000000000000000000000000000000000000000000000000000000000000016828461097a565b61046e6105cd565b508160066000828254610481919061105c565b909155505060025460065410156104da5760405162461bcd60e51b815260206004820152601960248201527f547279696e6720746f2072656d6f766520746f6f206d756368000000000000006044820152606401610429565b5050565b33600090815260016020526040902060038101544210156105415760405162461bcd60e51b815260206004820152601560248201527f5374616b65206973207374696c6c206c6f636b656400000000000000000000006044820152606401610429565b61054b3382610a46565b8054600182015460009190610560908561101f565b61056a9190610fe6565b905080826001016000828254610580919061105c565b925050819055508060046000828254610599919061105c565b90915550508154839083906000906105b290849061105c565b909155506105c090506105cd565b8260020181905550505050565b60006003544311156105e9576105e1610919565b600255436003555b5060025490565b60008054906101000a90046001600160a01b03166001600160a01b0316638da5cb5b6040518163ffffffff1660e01b815260040160206040518083038186803b15801561063c57600080fd5b505afa158015610650573d6000803e3d6000fd5b505050506040513d601f19601f820116820180604052508101906106749190610ea5565b6001600160a01b0316336001600160a01b03161480610729575060008054906101000a90046001600160a01b03166001600160a01b031663c34c08e56040518163ffffffff1660e01b8152600401602060405180830381600087803b1580156106dc57600080fd5b505af11580156106f0573d6000803e3d6000fd5b505050506040513d601f19601f820116820180604052508101906107149190610ea5565b6001600160a01b0316336001600160a01b0316145b6107755760405162461bcd60e51b815260206004820152600e60248201527f4e6f7420617574686f72697a65640000000000000000000000000000000000006044820152606401610429565b61077d6105cd565b50600555565b6107b86001600160a01b037f000000000000000000000000000000000000000000000000000000000000000016333085610b44565b336000908152600160205260409020805480156107d9576107d93383610a46565b6107e38482610fce565b825560006276a70084101561081f5762278d008410156108175762093a8084101561080f576000610812565b60015b61081a565b60025b610822565b60035b60ff169050610831858261101f565b8360010160008282546108449190610fce565b909155506108549050858261101f565b600460008282546108659190610fce565b9091555061087390506105cd565b600284015561088f6108858542610fce565b8460030154610b9b565b83600301819055505050505050565b6108d36001600160a01b037f000000000000000000000000000000000000000000000000000000000000000016333084610b44565b6108db6105cd565b5080600660008282546108ee9190610fce565b909155505050565b336000818152600160205260409020906109109082610a46565b60028054910155565b600061094e60065460055460035443610932919061105c565b61093c919061101f565b6002546109499190610fce565b610bb2565b905090565b6001600160a01b038116600090815260016020526040812061097490610bca565b92915050565b6040516001600160a01b038316602482015260448101829052610a419084907fa9059cbb00000000000000000000000000000000000000000000000000000000906064015b604080517fffffffffffffffffffffffffffffffffffffffffffffffffffffffffffffffe08184030181529190526020810180517bffffffffffffffffffffffffffffffffffffffffffffffffffffffff167fffffffff0000000000000000000000000000000000000000000000000000000090931692909217909152610c15565b505050565b6001810154156104da576000610b0e610a5e83610bca565b6040517f70a082310000000000000000000000000000000000000000000000000000000081523060048201527f00000000000000000000000000000000000000000000000000000000000000006001600160a01b0316906370a082319060240160206040518083038186803b158015610ad657600080fd5b505afa158015610aea573d6000803e3d6000fd5b505050506040513d601f19601f820116820180604052508101906109499190610ef9565b9050610a416001600160a01b037f000000000000000000000000000000000000000000000000000000000000000016848361097a565b6040516001600160a01b0380851660248301528316604482015260648101829052610b959085907f23b872dd00000000000000000000000000000000000000000000000000000000906084016109bf565b50505050565b600081831115610bac575081610974565b50919050565b600081831115610bc3575080610974565b5081610974565b600080610bd5610919565b90506004546001610be69190610fce565b60018401546002850154610bfa908461105c565b610c04919061101f565b610c0e9190610fe6565b9392505050565b6000610c6a826040518060400160405280602081526020017f5361666545524332303a206c6f772d6c6576656c2063616c6c206661696c6564815250856001600160a01b0316610cfa9092919063ffffffff16565b805190915015610a415780806020019051810190610c889190610ec1565b610a415760405162461bcd60e51b815260206004820152602a60248201527f5361666545524332303a204552433230206f7065726174696f6e20646964206e60448201527f6f742073756363656564000000000000000000000000000000000000000000006064820152608401610429565b6060610d098484600085610d11565b949350505050565b606082471015610d895760405162461bcd60e51b815260206004820152602660248201527f416464726573733a20696e73756666696369656e742062616c616e636520666f60448201527f722063616c6c00000000000000000000000000000000000000000000000000006064820152608401610429565b843b610dd75760405162461bcd60e51b815260206004820152601d60248201527f416464726573733a2063616c6c20746f206e6f6e2d636f6e74726163740000006044820152606401610429565b600080866001600160a01b03168587604051610df39190610f61565b60006040518083038185875af1925050503d8060008114610e30576040519150601f19603f3d011682016040523d82523d6000602084013e610e35565b606091505b5091509150610e45828286610e50565b979650505050505050565b60608315610e5f575081610c0e565b825115610e6f5782518084602001fd5b8160405162461bcd60e51b81526004016104299190610f7d565b600060208284031215610e9a578081fd5b8135610c0e816110ce565b600060208284031215610eb6578081fd5b8151610c0e816110ce565b600060208284031215610ed2578081fd5b81518015158114610c0e578182fd5b600060208284031215610ef2578081fd5b5035919050565b600060208284031215610f0a578081fd5b5051919050565b60008060408385031215610f23578081fd5b823591506020830135610f35816110ce565b809150509250929050565b60008060408385031215610f52578182fd5b50508035926020909101359150565b60008251610f73818460208701611073565b9190910192915050565b6000602082528251806020840152610f9c816040850160208701611073565b601f017fffffffffffffffffffffffffffffffffffffffffffffffffffffffffffffffe0169190910160400192915050565b60008219821115610fe157610fe161109f565b500190565b60008261101a577f4e487b710000000000000000000000000000000000000000000000000000000081526012600452602481fd5b500490565b6000817fffffffffffffffffffffffffffffffffffffffffffffffffffffffffffffffff04831182151516156110575761105761109f565b500290565b60008282101561106e5761106e61109f565b500390565b60005b8381101561108e578181015183820152602001611076565b83811115610b955750506000910152565b7f4e487b7100000000000000000000000000000000000000000000000000000000600052601160045260246000fd5b6001600160a01b03811681146110e357600080fd5b5056fea2646970667358221220fcb74f2e37af945e41eb0df4a2eb6e34a2601f0d825e2a865fa8ce565ac7a9e864736f6c63430008030033",
  "devdoc": {
    "kind": "dev",
    "methods": {},
    "version": 1
  },
  "userdoc": {
    "kind": "user",
    "methods": {
      "MFI()": {
        "notice": "Margenswap (MFI) token address"
      }
    },
    "version": 1
  },
  "storageLayout": {
    "storage": [
      {
        "astId": 11019,
        "contract": "contracts/MFIStaking.sol:MFIStaking",
        "label": "roles",
        "offset": 0,
        "slot": "0",
        "type": "t_contract(Roles)10152"
      },
      {
        "astId": 11024,
        "contract": "contracts/MFIStaking.sol:MFIStaking",
        "label": "stakeAccounts",
        "offset": 0,
        "slot": "1",
        "type": "t_mapping(t_address,t_struct(StakeAccount)11009_storage)"
      },
      {
        "astId": 11026,
        "contract": "contracts/MFIStaking.sol:MFIStaking",
        "label": "cumulativeReward",
        "offset": 0,
        "slot": "2",
        "type": "t_uint256"
      },
      {
        "astId": 11028,
        "contract": "contracts/MFIStaking.sol:MFIStaking",
        "label": "lastCumulativeUpdateBlock",
        "offset": 0,
        "slot": "3",
        "type": "t_uint256"
      },
      {
        "astId": 11030,
        "contract": "contracts/MFIStaking.sol:MFIStaking",
        "label": "totalCurrentWeights",
        "offset": 0,
        "slot": "4",
        "type": "t_uint256"
      },
      {
        "astId": 11032,
        "contract": "contracts/MFIStaking.sol:MFIStaking",
        "label": "totalCurrentRewardPerBlock",
        "offset": 0,
        "slot": "5",
        "type": "t_uint256"
      },
      {
        "astId": 11034,
        "contract": "contracts/MFIStaking.sol:MFIStaking",
        "label": "rewardTarget",
        "offset": 0,
        "slot": "6",
        "type": "t_uint256"
      }
    ],
    "types": {
      "t_address": {
        "encoding": "inplace",
        "label": "address",
        "numberOfBytes": "20"
      },
      "t_contract(Roles)10152": {
        "encoding": "inplace",
        "label": "contract Roles",
        "numberOfBytes": "20"
      },
      "t_mapping(t_address,t_struct(StakeAccount)11009_storage)": {
        "encoding": "mapping",
        "key": "t_address",
        "label": "mapping(address => struct TokenStaking.StakeAccount)",
        "numberOfBytes": "32",
        "value": "t_struct(StakeAccount)11009_storage"
      },
      "t_struct(StakeAccount)11009_storage": {
        "encoding": "inplace",
        "label": "struct TokenStaking.StakeAccount",
        "members": [
          {
            "astId": 11002,
            "contract": "contracts/MFIStaking.sol:MFIStaking",
            "label": "stakeAmount",
            "offset": 0,
            "slot": "0",
            "type": "t_uint256"
          },
          {
            "astId": 11004,
            "contract": "contracts/MFIStaking.sol:MFIStaking",
            "label": "stakeWeight",
            "offset": 0,
            "slot": "1",
            "type": "t_uint256"
          },
          {
            "astId": 11006,
            "contract": "contracts/MFIStaking.sol:MFIStaking",
            "label": "cumulativeStart",
            "offset": 0,
            "slot": "2",
            "type": "t_uint256"
          },
          {
            "astId": 11008,
            "contract": "contracts/MFIStaking.sol:MFIStaking",
            "label": "lockEnd",
            "offset": 0,
            "slot": "3",
            "type": "t_uint256"
          }
        ],
        "numberOfBytes": "128"
      },
      "t_uint256": {
        "encoding": "inplace",
        "label": "uint256",
        "numberOfBytes": "32"
      }
    }
  }
}