{
  "address": "0xf3DB7c12d203D1E1B9bAf709d1287928108Cb752",
  "abi": [
    {
      "inputs": [
        {
          "internalType": "address",
          "name": "_peg",
          "type": "address"
        },
        {
          "internalType": "address",
          "name": "_amm1Factory",
          "type": "address"
        },
        {
          "internalType": "address",
          "name": "_amm2Factory",
          "type": "address"
        },
        {
          "internalType": "address",
          "name": "_amm3Factory",
          "type": "address"
        },
        {
          "internalType": "bytes32",
          "name": "_amm1InitHash",
          "type": "bytes32"
        },
        {
          "internalType": "bytes32",
          "name": "_amm2InitHash",
          "type": "bytes32"
        },
        {
          "internalType": "bytes32",
          "name": "_amm3InitHash",
          "type": "bytes32"
        },
        {
          "internalType": "uint256",
          "name": "_feeBase",
          "type": "uint256"
        },
        {
          "internalType": "address",
          "name": "_roles",
          "type": "address"
        }
      ],
      "stateMutability": "nonpayable",
      "type": "constructor"
    },
    {
      "inputs": [],
      "name": "UPDATE_RATE_PERMIL",
      "outputs": [
        {
          "internalType": "uint256",
          "name": "",
          "type": "uint256"
        }
      ],
      "stateMutability": "view",
      "type": "function"
    },
    {
      "inputs": [
        {
          "internalType": "uint256",
          "name": "_priceUpdateWindow",
          "type": "uint256"
        },
        {
          "internalType": "uint256",
          "name": "_updateRatePermil",
          "type": "uint256"
        },
        {
          "internalType": "uint256",
          "name": "_voluntaryUpdateWindow",
          "type": "uint256"
        }
      ],
      "name": "addVolatilitySetting",
      "outputs": [],
      "stateMutability": "nonpayable",
      "type": "function"
    },
    {
      "inputs": [],
      "name": "amm1Factory",
      "outputs": [
        {
          "internalType": "address",
          "name": "",
          "type": "address"
        }
      ],
      "stateMutability": "view",
      "type": "function"
    },
    {
      "inputs": [],
      "name": "amm1InitHash",
      "outputs": [
        {
          "internalType": "bytes32",
          "name": "",
          "type": "bytes32"
        }
      ],
      "stateMutability": "view",
      "type": "function"
    },
    {
      "inputs": [],
      "name": "amm2Factory",
      "outputs": [
        {
          "internalType": "address",
          "name": "",
          "type": "address"
        }
      ],
      "stateMutability": "view",
      "type": "function"
    },
    {
      "inputs": [],
      "name": "amm2InitHash",
      "outputs": [
        {
          "internalType": "bytes32",
          "name": "",
          "type": "bytes32"
        }
      ],
      "stateMutability": "view",
      "type": "function"
    },
    {
      "inputs": [],
      "name": "amm3Factory",
      "outputs": [
        {
          "internalType": "address",
          "name": "",
          "type": "address"
        }
      ],
      "stateMutability": "view",
      "type": "function"
    },
    {
      "inputs": [],
      "name": "amm3InitHash",
      "outputs": [
        {
          "internalType": "bytes32",
          "name": "",
          "type": "bytes32"
        }
      ],
      "stateMutability": "view",
      "type": "function"
    },
    {
      "inputs": [
        {
          "internalType": "uint256",
          "name": "index",
          "type": "uint256"
        }
      ],
      "name": "chooseVolatilitySetting",
      "outputs": [],
      "stateMutability": "nonpayable",
      "type": "function"
    },
    {
      "inputs": [],
      "name": "feeBase",
      "outputs": [
        {
          "internalType": "uint256",
          "name": "",
          "type": "uint256"
        }
      ],
      "stateMutability": "view",
      "type": "function"
    },
    {
      "inputs": [
        {
          "internalType": "address",
          "name": "token",
          "type": "address"
        },
        {
          "internalType": "uint256",
          "name": "inAmount",
          "type": "uint256"
        }
      ],
      "name": "getCurrentPrice",
      "outputs": [
        {
          "internalType": "uint256",
          "name": "",
          "type": "uint256"
        }
      ],
      "stateMutability": "nonpayable",
      "type": "function"
    },
    {
      "inputs": [
        {
          "internalType": "address",
          "name": "token",
          "type": "address"
        },
        {
          "internalType": "uint256",
          "name": "inAmount",
          "type": "uint256"
        },
        {
          "internalType": "bool",
          "name": "voluntary",
          "type": "bool"
        }
      ],
      "name": "getCurrentPriceInPeg",
      "outputs": [
        {
          "internalType": "uint256",
          "name": "priceInPeg",
          "type": "uint256"
        }
      ],
      "stateMutability": "nonpayable",
      "type": "function"
    },
    {
      "inputs": [
        {
          "internalType": "uint256",
          "name": "",
          "type": "uint256"
        }
      ],
      "name": "mainCharacterCache",
      "outputs": [
        {
          "internalType": "address",
          "name": "",
          "type": "address"
        }
      ],
      "stateMutability": "view",
      "type": "function"
    },
    {
      "inputs": [
        {
          "internalType": "address",
          "name": "",
          "type": "address"
        }
      ],
      "name": "oracles",
      "outputs": [
        {
          "internalType": "contract IOracle",
          "name": "",
          "type": "address"
        }
      ],
      "stateMutability": "view",
      "type": "function"
    },
    {
      "inputs": [
        {
          "internalType": "address",
          "name": "",
          "type": "address"
        },
        {
          "internalType": "address",
          "name": "",
          "type": "address"
        }
      ],
      "name": "pairPrices",
      "outputs": [
        {
          "internalType": "uint256",
          "name": "cumulative",
          "type": "uint256"
        },
        {
          "internalType": "uint256",
          "name": "lastUpdated",
          "type": "uint256"
        },
        {
          "internalType": "uint256",
          "name": "priceFP",
          "type": "uint256"
        }
      ],
      "stateMutability": "view",
      "type": "function"
    },
    {
      "inputs": [],
      "name": "peg",
      "outputs": [
        {
          "internalType": "address",
          "name": "",
          "type": "address"
        }
      ],
      "stateMutability": "view",
      "type": "function"
    },
    {
      "inputs": [],
      "name": "priceUpdateWindow",
      "outputs": [
        {
          "internalType": "uint256",
          "name": "",
          "type": "uint256"
        }
      ],
      "stateMutability": "view",
      "type": "function"
    },
    {
      "inputs": [
        {
          "internalType": "address",
          "name": "",
          "type": "address"
        },
        {
          "internalType": "uint256",
          "name": "",
          "type": "uint256"
        }
      ],
      "name": "roleCache",
      "outputs": [
        {
          "internalType": "bool",
          "name": "",
          "type": "bool"
        }
      ],
      "stateMutability": "view",
      "type": "function"
    },
    {
      "inputs": [],
      "name": "roles",
      "outputs": [
        {
          "internalType": "contract Roles",
          "name": "",
          "type": "address"
        }
      ],
      "stateMutability": "view",
      "type": "function"
    },
    {
      "inputs": [
        {
          "internalType": "bytes32",
          "name": "amms",
          "type": "bytes32"
        },
        {
          "internalType": "address[]",
          "name": "tokens",
          "type": "address[]"
        }
      ],
      "name": "setLiquidationPath",
      "outputs": [],
      "stateMutability": "nonpayable",
      "type": "function"
    },
    {
      "inputs": [
        {
          "internalType": "address",
          "name": "token",
          "type": "address"
        },
        {
          "internalType": "address",
          "name": "oracle",
          "type": "address"
        }
      ],
      "name": "setPriceOracle",
      "outputs": [],
      "stateMutability": "nonpayable",
      "type": "function"
    },
    {
      "inputs": [
        {
          "internalType": "uint16",
          "name": "window",
          "type": "uint16"
        },
        {
          "internalType": "uint256",
          "name": "voluntaryWindow",
          "type": "uint256"
        }
      ],
      "name": "setPriceUpdateWindow",
      "outputs": [],
      "stateMutability": "nonpayable",
      "type": "function"
    },
    {
      "inputs": [
        {
          "internalType": "uint256",
          "name": "rate",
          "type": "uint256"
        }
      ],
      "name": "setUpdateRate",
      "outputs": [],
      "stateMutability": "nonpayable",
      "type": "function"
    },
    {
      "inputs": [
        {
          "internalType": "address",
          "name": "",
          "type": "address"
        }
      ],
      "name": "tokenPrices",
      "outputs": [
        {
          "internalType": "uint256",
          "name": "lastUpdated",
          "type": "uint256"
        },
        {
          "internalType": "uint256",
          "name": "priceFP",
          "type": "uint256"
        },
        {
          "internalType": "bytes32",
          "name": "amms",
          "type": "bytes32"
        },
        {
          "internalType": "bytes32",
          "name": "inverseAmms",
          "type": "bytes32"
        }
      ],
      "stateMutability": "view",
      "type": "function"
    },
    {
      "inputs": [
        {
          "internalType": "uint256",
          "name": "role",
          "type": "uint256"
        }
      ],
      "name": "updateMainCharacterCache",
      "outputs": [],
      "stateMutability": "nonpayable",
      "type": "function"
    },
    {
      "inputs": [
        {
          "internalType": "uint256",
          "name": "role",
          "type": "uint256"
        },
        {
          "internalType": "address",
          "name": "contr",
          "type": "address"
        }
      ],
      "name": "updateRoleCache",
      "outputs": [],
      "stateMutability": "nonpayable",
      "type": "function"
    },
    {
      "inputs": [
        {
          "internalType": "address",
          "name": "token",
          "type": "address"
        },
        {
          "internalType": "uint256",
          "name": "inAmount",
          "type": "uint256"
        }
      ],
      "name": "viewCurrentPrice",
      "outputs": [
        {
          "internalType": "uint256",
          "name": "",
          "type": "uint256"
        }
      ],
      "stateMutability": "view",
      "type": "function"
    },
    {
      "inputs": [
        {
          "internalType": "address",
          "name": "token",
          "type": "address"
        },
        {
          "internalType": "uint256",
          "name": "inAmount",
          "type": "uint256"
        }
      ],
      "name": "viewCurrentPriceInPeg",
      "outputs": [
        {
          "internalType": "uint256",
          "name": "priceInPeg",
          "type": "uint256"
        }
      ],
      "stateMutability": "view",
      "type": "function"
    },
    {
      "inputs": [
        {
          "internalType": "uint256",
          "name": "",
          "type": "uint256"
        }
      ],
      "name": "volatilitySettings",
      "outputs": [
        {
          "internalType": "uint256",
          "name": "priceUpdateWindow",
          "type": "uint256"
        },
        {
          "internalType": "uint256",
          "name": "updateRatePermil",
          "type": "uint256"
        },
        {
          "internalType": "uint256",
          "name": "voluntaryUpdateWindow",
          "type": "uint256"
        }
      ],
      "stateMutability": "view",
      "type": "function"
    },
    {
      "inputs": [],
      "name": "voluntaryUpdateWindow",
      "outputs": [
        {
          "internalType": "uint256",
          "name": "",
          "type": "uint256"
        }
      ],
      "stateMutability": "view",
      "type": "function"
    }
  ],
  "transactionHash": "0x34d4217f83724a12c61f5654a0f9982ece9c18ded9ebc613644e35d97de83490",
  "args": [
    "0x55d398326f99059fF775485246999027B3197955",
    "0xcA143Ce32Fe78f1f7019d7d551a6402fC5350c73",
    "0x0841BD0B734E4F5853f0dD8d7Ea041c241fb0Da6",
    "0x0000000000000000000000000000000000000000",
    "0x00fb7f630766e6a796048ea87d01acd3068e8ff67d078148a3fa3f4a84f69bd5",
    "0xf4ccce374816856d11f00e4069e7cada164065686fbef53c6167a63ec2fd8c5b",
    "0x0000000000000000000000000000000000000000000000000000000000000000",
    9975,
    "0x106c1a7D4C5F3844F9aC92B2DE7A1B5C94DE4811"
  ],
  "solcInputHash": "540b646b9ab3d3a00000910437e428fb",
  "bytecode": "0x6101406040526104b060085561012c600955610190600a553480156200002457600080fd5b50604051620021b7380380620021b7833981016040819052620000479162000127565b8888888888888888886001600160a01b038116620000b65760405162461bcd60e51b815260206004820152602260248201527f506c656173652070726f766964652076616c696420726f6c6573206164647265604482015261737360f01b606482015260840160405180910390fd5b6001600160601b0319606091821b811660805297811b881660a05295861b871660c05293851b861660e052600292909255600355600455610100529190911b166101205250620001bd975050505050505050565b80516001600160a01b03811681146200012257600080fd5b919050565b60008060008060008060008060006101208a8c03121562000146578485fd5b620001518a6200010a565b98506200016160208b016200010a565b97506200017160408b016200010a565b96506200018160608b016200010a565b955060808a0151945060a08a0151935060c08a0151925060e08a01519150620001ae6101008b016200010a565b90509295985092959850929598565b60805160601c60a05160601c60c05160601c60e05160601c610100516101205160601c611f5c6200025b60003960008181610271015281816106d2015281816107f90152610c810152600061042d015260006104dc0152600081816101e401526118420152600081816104a201526118e80152600081816103020152818161057501528181610ad20152818161111201526111aa0152611f5c6000f3fe608060405234801561001057600080fd5b50600436106101da5760003560e01c80637a1a04df11610104578063b852eb0d116100a2578063e2abb5c411610071578063e2abb5c414610507578063e9c3f77d14610510578063f04c686514610539578063f3f5f9b51461054c576101da565b8063b852eb0d1461049d578063bc70c666146104c4578063db429235146104d7578063df7c20f9146104fe576101da565b80639c56522c116100de5780639c56522c1461044f578063a20ec49314610458578063a75208a81461046b578063addd509914610474576101da565b80637a1a04df146103955780638dc6a529146103d357806395e911a814610428576101da565b8063392f5f641161017c57806354554b581161014b57806354554b581461034957806360b3fa401461035c57806367a74ddc1461036f5780636c54df5214610382576101da565b8063392f5f64146102fd5780633ed456fa14610324578063447d52ba1461032d578063519bda8514610340576101da565b806313be93f6116101b857806313be93f6146102595780631f1cb62b1461026c578063204120bc146102935780632b23f857146102ea576101da565b8063059b157a146101df578063071060a614610223578063093a483a14610238575b600080fd5b6102067f000000000000000000000000000000000000000000000000000000000000000081565b6040516001600160a01b0390911681526020015b60405180910390f35b610236610231366004611d05565b61055f565b005b61024b610246366004611b44565b610625565b60405190815260200161021a565b61024b610267366004611b44565b610756565b6102067f000000000000000000000000000000000000000000000000000000000000000081565b6102ca6102a1366004611ad4565b600560208190526000918252604090912080546001820154600383015492909301549092919084565b60408051948552602085019390935291830152606082015260800161021a565b6102366102f8366004611bcc565b610769565b6102067f000000000000000000000000000000000000000000000000000000000000000081565b61024b60085481565b61023661033b366004611d35565b610aac565b61024b600a5481565b610236610357366004611d05565b610b84565b61024b61036a366004611b6f565b610bd2565b61023661037d366004611b0c565b610dbd565b61024b610390366004611b44565b610e43565b6103c36103a3366004611b44565b600160209081526000928352604080842090915290825290205460ff1681565b604051901515815260200161021a565b61040d6103e1366004611b0c565b600660209081526000928352604080842090915290825290208054600182015460029092015490919083565b6040805193845260208401929092529082015260600161021a565b61024b7f000000000000000000000000000000000000000000000000000000000000000081565b61024b60095481565b610236610466366004611ce2565b610e51565b61024b60025481565b610206610482366004611ad4565b6007602052600090815260409020546001600160a01b031681565b6102067f000000000000000000000000000000000000000000000000000000000000000081565b61040d6104d2366004611d05565b610ea8565b6102067f000000000000000000000000000000000000000000000000000000000000000081565b61024b60035481565b61024b60045481565b61020661051e366004611d05565b6000602081905290815260409020546001600160a01b031681565b610236610547366004611d05565b610edb565b61023661055a366004611d59565b611022565b60405163b4ed0b6d60e01b8152600481018290527f00000000000000000000000000000000000000000000000000000000000000006001600160a01b03169063b4ed0b6d9060240160206040518083038186803b1580156105bf57600080fd5b505afa1580156105d3573d6000803e3d6000fd5b505050506040513d601f19601f820116820180604052508101906105f79190611af0565b60009182526020829052604090912080546001600160a01b0319166001600160a01b03909216919091179055565b6001600160a01b0380831660009081526007602052604081205490911680156106d0576040516309df49fb60e11b81526001600160a01b038581166004830152602482018590528216906313be93f69060440160206040518083038186803b15801561069057600080fd5b505afa1580156106a4573d6000803e3d6000fd5b505050506040513d601f19601f820116820180604052508101906106c89190611d1d565b915050610750565b7f00000000000000000000000000000000000000000000000000000000000000006001600160a01b0316846001600160a01b031614156107135782915050610750565b6001600160a01b03841660009081526005602052604090206001810154600160701b61073f8287611e83565b6107499190611e63565b935050505b505b92915050565b60006107628383610625565b9392505050565b3361077261110e565b6001600160a01b0316148061079657503361078b6111a6565b6001600160a01b0316145b806107a557506107a533611217565b6107ca5760405162461bcd60e51b81526004016107c190611db7565b60405180910390fd5b6000816000815181106107ed57634e487b7160e01b600052603260045260246000fd5b602002602001015190507f00000000000000000000000000000000000000000000000000000000000000006001600160a01b0316816001600160a01b031614610aa7576001600160a01b03811660009081526005602090815260409091206003810185905583519091610867916002840191860190611a38565b50825167ffffffffffffffff81111561089057634e487b7160e01b600052604160045260246000fd5b6040519080825280602002602001820160405280156108b9578160200160208202803683370190505b5080516108d0916004840191602090910190611a38565b506000805b80600186516108e49190611ea2565b11156109e05761097285828151811061090d57634e487b7160e01b600052603260045260246000fd5b6020026020010151868360016109239190611e4b565b8151811061094157634e487b7160e01b600052603260045260246000fd5b602002602001015188846020811061096957634e487b7160e01b600052603260045260246000fd5b1a60f81b611245565b600081600287516109839190611ea2565b61098d9190611ea2565b610998906008611e83565b8783602081106109b857634e487b7160e01b600052603260045260246000fd5b1a60f81b6001600160f81b031916901c929092179150806109d881611eb9565b9150506108d5565b506005820181905560005b8085511115610a9257846001828751610a049190611ea2565b610a0e9190611ea2565b81518110610a2c57634e487b7160e01b600052603260045260246000fd5b6020026020010151836004018281548110610a5757634e487b7160e01b600052603260045260246000fd5b600091825260209091200180546001600160a01b0319166001600160a01b039290921691909117905580610a8a81611eb9565b9150506109eb565b50610a9d84866114b3565b6001830155504290555b505050565b6040516393552a3d60e01b8152600481018390526001600160a01b0382811660248301527f000000000000000000000000000000000000000000000000000000000000000016906393552a3d9060440160206040518083038186803b158015610b1457600080fd5b505afa158015610b28573d6000803e3d6000fd5b505050506040513d601f19601f82011682018060405250810190610b4c9190611bb0565b6001600160a01b0391909116600090815260016020908152604080832094835293905291909120805460ff1916911515919091179055565b33610b8d61110e565b6001600160a01b03161480610bb1575033610ba66111a6565b6001600160a01b0316145b610bcd5760405162461bcd60e51b81526004016107c190611e14565b600a55565b6001600160a01b038084166000908152600760205260408120549091168015610c7f5760405163362a6fa960e11b81526001600160a01b03868116600483015260248201869052821690636c54df5290604401602060405180830381600087803b158015610c3f57600080fd5b505af1158015610c53573d6000803e3d6000fd5b505050506040513d601f19601f82011682018060405250810190610c779190611d1d565b915050610762565b7f00000000000000000000000000000000000000000000000000000000000000006001600160a01b0316856001600160a01b03161415610cc25783915050610762565b6001600160a01b03851660009081526005602052604081208054909190610ce99042611ea2565b9050600854811180610cfd57506001820154155b80610d115750848015610d11575060095481115b15610d93576000610d8283600201805480602002602001604051908101604052809291908181526020018280548015610d7357602002820191906000526020600020905b81546001600160a01b03168152600190910190602001808311610d55575b505050505084600301546114b3565b9050610d918382600a546117c3565b505b600160701b826001015487610da89190611e83565b610db29190611e63565b979650505050505050565b33610dc661110e565b6001600160a01b03161480610dea575033610ddf6111a6565b6001600160a01b0316145b80610df95750610df933611217565b610e155760405162461bcd60e51b81526004016107c190611db7565b6001600160a01b03918216600090815260076020526040902080546001600160a01b03191691909216179055565b600061076283836001610bd2565b33610e5a61110e565b6001600160a01b03161480610e7e575033610e736111a6565b6001600160a01b0316145b610e9a5760405162461bcd60e51b81526004016107c190611e14565b61ffff909116600855600955565b600b8181548110610eb857600080fd5b600091825260209091206003909102018054600182015460029092015490925083565b33610ee461110e565b6001600160a01b03161480610f08575033610efd6111a6565b6001600160a01b0316145b80610f56575033610f4b6103e960009081526020527f236f539bf6e1b3b15a335e3cd157d360bc4be88c071635c19ba8a82b4f665e9f546001600160a01b031690565b6001600160a01b0316145b610fc85760405162461bcd60e51b815260206004820152603860248201527f43616c6c6572206973206e6f7420746865206f776e65722c206578656375746f60448201527f72206f7220617574686f72697a65642064697361626c6572000000000000000060648201526084016107c1565b6000600b8281548110610feb57634e487b7160e01b600052603260045260246000fd5b9060005260206000209060030201905060008160010154111561101e576001810154600a55805460085560028101546009555b5050565b3361102b61110e565b6001600160a01b0316148061104f5750336110446111a6565b6001600160a01b0316145b61106b5760405162461bcd60e51b81526004016107c190611e14565b60408051606081018252938452602084019283528301908152600b805460018101825560009190915292517f0175b7a638427703f0dbe7bb9bbf987a2551717b34e79f33b5b1008d1fa01db960039094029384015590517f0175b7a638427703f0dbe7bb9bbf987a2551717b34e79f33b5b1008d1fa01dba830155517f0175b7a638427703f0dbe7bb9bbf987a2551717b34e79f33b5b1008d1fa01dbb90910155565b60007f00000000000000000000000000000000000000000000000000000000000000006001600160a01b0316638da5cb5b6040518163ffffffff1660e01b815260040160206040518083038186803b15801561116957600080fd5b505afa15801561117d573d6000803e3d6000fd5b505050506040513d601f19601f820116820180604052508101906111a19190611af0565b905090565b60007f00000000000000000000000000000000000000000000000000000000000000006001600160a01b031663c34c08e56040518163ffffffff1660e01b8152600401602060405180830381600087803b15801561120357600080fd5b505af115801561117d573d6000803e3d6000fd5b6001600160a01b03811660009081526001602090815260408083206009845290915290205460ff165b919050565b60006001600160f81b031982161561126657611261848461180b565b611270565b61127084846118b1565b6001600160a01b0380821660009081526006602090815260408083209389168352929052206001810154919250906114ac576000806000846001600160a01b0316630902f1ac6040518163ffffffff1660e01b815260040160606040518083038186803b1580156112e057600080fd5b505afa1580156112f4573d6000803e3d6000fd5b505050506040513d601f19601f820116820180604052508101906113189190611c9f565b63ffffffff1692509250925060006113308989611936565b509050806001600160a01b0316896001600160a01b031614156113fa57836001600160701b0316836001600160701b0316600160701b6113709190611e83565b61137a9190611e63565b8560020181905550856001600160a01b0316635909c0d56040518163ffffffff1660e01b815260040160206040518083038186803b1580156113bb57600080fd5b505afa1580156113cf573d6000803e3d6000fd5b505050506040513d601f19601f820116820180604052508101906113f39190611d1d565b85556114a3565b826001600160701b0316846001600160701b0316600160701b61141d9190611e83565b6114279190611e63565b8560020181905550856001600160a01b0316635a3d54936040518163ffffffff1660e01b815260040160206040518083038186803b15801561146857600080fd5b505afa15801561147c573d6000803e3d6000fd5b505050506040513d601f19601f820116820180604052508101906114a09190611d1d565b85555b50600184015550505b5050505050565b600160701b60005b600184516114c99190611ea2565b81101561074e5760008482815181106114f257634e487b7160e01b600052603260045260246000fd5b6020026020010151905060008583600161150c9190611e4b565b8151811061152a57634e487b7160e01b600052603260045260246000fd5b60200260200101519050600085846020811061155657634e487b7160e01b600052603260045260246000fd5b1a60f81b6001600160f81b0319161561157857611573838361180b565b611582565b61158283836118b1565b6001600160a01b03808216600081815260066020908152604080832094891683529390528281208351630240bc6b60e21b81529351949550939092630902f1ac916004808301926060929190829003018186803b1580156115e257600080fd5b505afa1580156115f6573d6000803e3d6000fd5b505050506040513d601f19601f8201168201806040525081019061161a9190611c9f565b63ffffffff169250505060008260010154826116369190611ea2565b905060095481111561179957600061164e8787611936565b5090506000816001600160a01b0316886001600160a01b0316146116e257856001600160a01b0316635a3d54936040518163ffffffff1660e01b815260040160206040518083038186803b1580156116a557600080fd5b505afa1580156116b9573d6000803e3d6000fd5b505050506040513d601f19601f820116820180604052508101906116dd9190611d1d565b611753565b856001600160a01b0316635909c0d56040518163ffffffff1660e01b815260040160206040518083038186803b15801561171b57600080fd5b505afa15801561172f573d6000803e3d6000fd5b505050506040513d601f19601f820116820180604052508101906117539190611d1d565b90506000838660000154836117689190611ea2565b6117729190611e63565b905061177e8b82611a05565b60028701919091559085556001850184905598506117aa9050565b6117a7888460020154611a05565b97505b50505050505080806117bb90611eb9565b9150506114bb565b6103e86117d08284611e83565b6117dc836103e8611ea2565b85600101546117eb9190611e83565b6117f59190611e4b565b6117ff9190611e63565b60018401555050429055565b600080600061181a8585611936565b6040516001600160601b0319606084811b8216602084015283901b16603482015291935091507f0000000000000000000000000000000000000000000000000000000000000000906048016040516020818303038152906040528051906020012060035460405160200161189093929190611d84565b60408051601f19818403018152919052805160209091012095945050505050565b60008060006118c08585611936565b6040516001600160601b0319606084811b8216602084015283901b16603482015291935091507f0000000000000000000000000000000000000000000000000000000000000000906048016040516020818303038152906040528051906020012060025460405160200161189093929190611d84565b600080826001600160a01b0316846001600160a01b031614156119905760405162461bcd60e51b81526020600482015260126024820152714964656e746963616c20616464726573732160701b60448201526064016107c1565b826001600160a01b0316846001600160a01b0316106119b05782846119b3565b83835b90925090506001600160a01b0382166119fe5760405162461bcd60e51b815260206004820152600d60248201526c5a65726f20616464726573732160981b60448201526064016107c1565b9250929050565b6000600160601b611a1861010084611e63565b611a2461010086611e63565b611a2e9190611e83565b6107629190611e63565b828054828255906000526020600020908101928215611a8d579160200282015b82811115611a8d57825182546001600160a01b0319166001600160a01b03909116178255602090920191600190910190611a58565b50611a99929150611a9d565b5090565b5b80821115611a995760008155600101611a9e565b803561124081611f00565b80516001600160701b038116811461124057600080fd5b600060208284031215611ae5578081fd5b813561076281611f00565b600060208284031215611b01578081fd5b815161076281611f00565b60008060408385031215611b1e578081fd5b8235611b2981611f00565b91506020830135611b3981611f00565b809150509250929050565b60008060408385031215611b56578182fd5b8235611b6181611f00565b946020939093013593505050565b600080600060608486031215611b83578081fd5b8335611b8e81611f00565b9250602084013591506040840135611ba581611f18565b809150509250925092565b600060208284031215611bc1578081fd5b815161076281611f18565b60008060408385031215611bde578182fd5b8235915060208084013567ffffffffffffffff80821115611bfd578384fd5b818601915086601f830112611c10578384fd5b813581811115611c2257611c22611eea565b8060051b604051601f19603f83011681018181108582111715611c4757611c47611eea565b604052828152858101935084860182860187018b1015611c65578788fd5b8795505b83861015611c8e57611c7a81611ab2565b855260019590950194938601938601611c69565b508096505050505050509250929050565b600080600060608486031215611cb3578283fd5b611cbc84611abd565b9250611cca60208501611abd565b9150604084015163ffffffff81168114611ba5578182fd5b60008060408385031215611cf4578182fd5b823561ffff81168114611b61578283fd5b600060208284031215611d16578081fd5b5035919050565b600060208284031215611d2e578081fd5b5051919050565b60008060408385031215611d47578182fd5b823591506020830135611b3981611f00565b600080600060608486031215611d6d578283fd5b505081359360208301359350604090920135919050565b6001600160f81b0319815260609390931b6001600160601b03191660018401526015830191909152603582015260550190565b60208082526039908201527f43616c6c6572206973206e6f7420746865206f776e65722c206578656375746f60408201527f72206f7220617574686f72697a656420616374697661746f7200000000000000606082015260800190565b6020808252601e908201527f526f6c65733a2063616c6c6572206973206e6f7420746865206f776e65720000604082015260600190565b60008219821115611e5e57611e5e611ed4565b500190565b600082611e7e57634e487b7160e01b81526012600452602481fd5b500490565b6000816000190483118215151615611e9d57611e9d611ed4565b500290565b600082821015611eb457611eb4611ed4565b500390565b6000600019821415611ecd57611ecd611ed4565b5060010190565b634e487b7160e01b600052601160045260246000fd5b634e487b7160e01b600052604160045260246000fd5b6001600160a01b0381168114611f1557600080fd5b50565b8015158114611f1557600080fdfea2646970667358221220e6896ae0e34dfaa432e5887c5e396b336fea2410edfc6f46fe0720a0db17b05264736f6c63430008030033",
  "devdoc": {
    "kind": "dev",
    "methods": {},
    "version": 1
  },
  "userdoc": {
    "kind": "user",
    "methods": {
      "addVolatilitySetting(uint256,uint256,uint256)": {
        "notice": "Add a new volatility setting"
      },
      "chooseVolatilitySetting(uint256)": {
        "notice": "Choose a volatitlity setting"
      },
      "priceUpdateWindow()": {
        "notice": "update window in blocks"
      },
      "setLiquidationPath(bytes32,address[])": {
        "notice": "add path from token to current liquidation peg"
      },
      "setPriceOracle(address,address)": {
        "notice": "Set price oracle"
      },
      "setPriceUpdateWindow(uint16,uint256)": {
        "notice": "Set window for price updates"
      },
      "setUpdateRate(uint256)": {
        "notice": "Set rate for updates"
      },
      "viewCurrentPriceInPeg(address,uint256)": {
        "notice": "Get view of current price of token in peg"
      }
    },
    "version": 1
  },
  "storageLayout": {
    "storage": [
      {
        "astId": 11794,
        "contract": "contracts/TwapOracle.sol:TwapOracle",
        "label": "mainCharacterCache",
        "offset": 0,
        "slot": "0",
        "type": "t_mapping(t_uint256,t_address)"
      },
      {
        "astId": 11800,
        "contract": "contracts/TwapOracle.sol:TwapOracle",
        "label": "roleCache",
        "offset": 0,
        "slot": "1",
        "type": "t_mapping(t_address,t_mapping(t_uint256,t_bool))"
      },
      {
        "astId": 26293,
        "contract": "contracts/TwapOracle.sol:TwapOracle",
        "label": "amm1InitHash",
        "offset": 0,
        "slot": "2",
        "type": "t_bytes32"
      },
      {
        "astId": 26295,
        "contract": "contracts/TwapOracle.sol:TwapOracle",
        "label": "amm2InitHash",
        "offset": 0,
        "slot": "3",
        "type": "t_bytes32"
      },
      {
        "astId": 26297,
        "contract": "contracts/TwapOracle.sol:TwapOracle",
        "label": "amm3InitHash",
        "offset": 0,
        "slot": "4",
        "type": "t_bytes32"
      },
      {
        "astId": 10750,
        "contract": "contracts/TwapOracle.sol:TwapOracle",
        "label": "tokenPrices",
        "offset": 0,
        "slot": "5",
        "type": "t_mapping(t_address,t_struct(TokenPrice)10704_storage)"
      },
      {
        "astId": 10757,
        "contract": "contracts/TwapOracle.sol:TwapOracle",
        "label": "pairPrices",
        "offset": 0,
        "slot": "6",
        "type": "t_mapping(t_address,t_mapping(t_address,t_struct(PairPrice)10718_storage))"
      },
      {
        "astId": 10762,
        "contract": "contracts/TwapOracle.sol:TwapOracle",
        "label": "oracles",
        "offset": 0,
        "slot": "7",
        "type": "t_mapping(t_address,t_contract(IOracle)26197)"
      },
      {
        "astId": 10766,
        "contract": "contracts/TwapOracle.sol:TwapOracle",
        "label": "priceUpdateWindow",
        "offset": 0,
        "slot": "8",
        "type": "t_uint256"
      },
      {
        "astId": 10769,
        "contract": "contracts/TwapOracle.sol:TwapOracle",
        "label": "voluntaryUpdateWindow",
        "offset": 0,
        "slot": "9",
        "type": "t_uint256"
      },
      {
        "astId": 10772,
        "contract": "contracts/TwapOracle.sol:TwapOracle",
        "label": "UPDATE_RATE_PERMIL",
        "offset": 0,
        "slot": "10",
        "type": "t_uint256"
      },
      {
        "astId": 10776,
        "contract": "contracts/TwapOracle.sol:TwapOracle",
        "label": "volatilitySettings",
        "offset": 0,
        "slot": "11",
        "type": "t_array(t_struct(VolatilitySetting)10711_storage)dyn_storage"
      }
    ],
    "types": {
      "t_address": {
        "encoding": "inplace",
        "label": "address",
        "numberOfBytes": "20"
      },
      "t_array(t_address)dyn_storage": {
        "base": "t_address",
        "encoding": "dynamic_array",
        "label": "address[]",
        "numberOfBytes": "32"
      },
      "t_array(t_struct(VolatilitySetting)10711_storage)dyn_storage": {
        "base": "t_struct(VolatilitySetting)10711_storage",
        "encoding": "dynamic_array",
        "label": "struct VolatilitySetting[]",
        "numberOfBytes": "32"
      },
      "t_bool": {
        "encoding": "inplace",
        "label": "bool",
        "numberOfBytes": "1"
      },
      "t_bytes32": {
        "encoding": "inplace",
        "label": "bytes32",
        "numberOfBytes": "32"
      },
      "t_contract(IOracle)26197": {
        "encoding": "inplace",
        "label": "contract IOracle",
        "numberOfBytes": "20"
      },
      "t_mapping(t_address,t_contract(IOracle)26197)": {
        "encoding": "mapping",
        "key": "t_address",
        "label": "mapping(address => contract IOracle)",
        "numberOfBytes": "32",
        "value": "t_contract(IOracle)26197"
      },
      "t_mapping(t_address,t_mapping(t_address,t_struct(PairPrice)10718_storage))": {
        "encoding": "mapping",
        "key": "t_address",
        "label": "mapping(address => mapping(address => struct PairPrice))",
        "numberOfBytes": "32",
        "value": "t_mapping(t_address,t_struct(PairPrice)10718_storage)"
      },
      "t_mapping(t_address,t_mapping(t_uint256,t_bool))": {
        "encoding": "mapping",
        "key": "t_address",
        "label": "mapping(address => mapping(uint256 => bool))",
        "numberOfBytes": "32",
        "value": "t_mapping(t_uint256,t_bool)"
      },
      "t_mapping(t_address,t_struct(PairPrice)10718_storage)": {
        "encoding": "mapping",
        "key": "t_address",
        "label": "mapping(address => struct PairPrice)",
        "numberOfBytes": "32",
        "value": "t_struct(PairPrice)10718_storage"
      },
      "t_mapping(t_address,t_struct(TokenPrice)10704_storage)": {
        "encoding": "mapping",
        "key": "t_address",
        "label": "mapping(address => struct TokenPrice)",
        "numberOfBytes": "32",
        "value": "t_struct(TokenPrice)10704_storage"
      },
      "t_mapping(t_uint256,t_address)": {
        "encoding": "mapping",
        "key": "t_uint256",
        "label": "mapping(uint256 => address)",
        "numberOfBytes": "32",
        "value": "t_address"
      },
      "t_mapping(t_uint256,t_bool)": {
        "encoding": "mapping",
        "key": "t_uint256",
        "label": "mapping(uint256 => bool)",
        "numberOfBytes": "32",
        "value": "t_bool"
      },
      "t_struct(PairPrice)10718_storage": {
        "encoding": "inplace",
        "label": "struct PairPrice",
        "members": [
          {
            "astId": 10713,
            "contract": "contracts/TwapOracle.sol:TwapOracle",
            "label": "cumulative",
            "offset": 0,
            "slot": "0",
            "type": "t_uint256"
          },
          {
            "astId": 10715,
            "contract": "contracts/TwapOracle.sol:TwapOracle",
            "label": "lastUpdated",
            "offset": 0,
            "slot": "1",
            "type": "t_uint256"
          },
          {
            "astId": 10717,
            "contract": "contracts/TwapOracle.sol:TwapOracle",
            "label": "priceFP",
            "offset": 0,
            "slot": "2",
            "type": "t_uint256"
          }
        ],
        "numberOfBytes": "96"
      },
      "t_struct(TokenPrice)10704_storage": {
        "encoding": "inplace",
        "label": "struct TokenPrice",
        "members": [
          {
            "astId": 10691,
            "contract": "contracts/TwapOracle.sol:TwapOracle",
            "label": "lastUpdated",
            "offset": 0,
            "slot": "0",
            "type": "t_uint256"
          },
          {
            "astId": 10693,
            "contract": "contracts/TwapOracle.sol:TwapOracle",
            "label": "priceFP",
            "offset": 0,
            "slot": "1",
            "type": "t_uint256"
          },
          {
            "astId": 10696,
            "contract": "contracts/TwapOracle.sol:TwapOracle",
            "label": "liquidationTokens",
            "offset": 0,
            "slot": "2",
            "type": "t_array(t_address)dyn_storage"
          },
          {
            "astId": 10698,
            "contract": "contracts/TwapOracle.sol:TwapOracle",
            "label": "amms",
            "offset": 0,
            "slot": "3",
            "type": "t_bytes32"
          },
          {
            "astId": 10701,
            "contract": "contracts/TwapOracle.sol:TwapOracle",
            "label": "inverseLiquidationTokens",
            "offset": 0,
            "slot": "4",
            "type": "t_array(t_address)dyn_storage"
          },
          {
            "astId": 10703,
            "contract": "contracts/TwapOracle.sol:TwapOracle",
            "label": "inverseAmms",
            "offset": 0,
            "slot": "5",
            "type": "t_bytes32"
          }
        ],
        "numberOfBytes": "192"
      },
      "t_struct(VolatilitySetting)10711_storage": {
        "encoding": "inplace",
        "label": "struct VolatilitySetting",
        "members": [
          {
            "astId": 10706,
            "contract": "contracts/TwapOracle.sol:TwapOracle",
            "label": "priceUpdateWindow",
            "offset": 0,
            "slot": "0",
            "type": "t_uint256"
          },
          {
            "astId": 10708,
            "contract": "contracts/TwapOracle.sol:TwapOracle",
            "label": "updateRatePermil",
            "offset": 0,
            "slot": "1",
            "type": "t_uint256"
          },
          {
            "astId": 10710,
            "contract": "contracts/TwapOracle.sol:TwapOracle",
            "label": "voluntaryUpdateWindow",
            "offset": 0,
            "slot": "2",
            "type": "t_uint256"
          }
        ],
        "numberOfBytes": "96"
      },
      "t_uint256": {
        "encoding": "inplace",
        "label": "uint256",
        "numberOfBytes": "32"
      }
    }
  }
}