{
  "_format": "hh-sol-artifact-1",
  "contractName": "LiquidityMiningRewardTest",
  "sourceName": "contracts/tests/LiquidityMiningRewardTest.sol",
  "abi": [
    {
      "inputs": [],
      "stateMutability": "nonpayable",
      "type": "constructor"
    },
    {
      "inputs": [],
      "name": "AUTHORIZED_FUND_TRADER",
      "outputs": [
        {
          "internalType": "uint16",
          "name": "",
          "type": "uint16"
        }
      ],
      "stateMutability": "view",
      "type": "function"
    },
    {
      "inputs": [],
      "name": "BORROWER",
      "outputs": [
        {
          "internalType": "uint16",
          "name": "",
          "type": "uint16"
        }
      ],
      "stateMutability": "view",
      "type": "function"
    },
    {
      "inputs": [],
      "name": "FEE_CONTROLLER",
      "outputs": [
        {
          "internalType": "uint16",
          "name": "",
          "type": "uint16"
        }
      ],
      "stateMutability": "view",
      "type": "function"
    },
    {
      "inputs": [],
      "name": "FEE_SOURCE",
      "outputs": [
        {
          "internalType": "uint16",
          "name": "",
          "type": "uint16"
        }
      ],
      "stateMutability": "view",
      "type": "function"
    },
    {
      "inputs": [],
      "name": "FUND",
      "outputs": [
        {
          "internalType": "uint16",
          "name": "",
          "type": "uint16"
        }
      ],
      "stateMutability": "view",
      "type": "function"
    },
    {
      "inputs": [],
      "name": "INCENTIVE_REPORTER",
      "outputs": [
        {
          "internalType": "uint16",
          "name": "",
          "type": "uint16"
        }
      ],
      "stateMutability": "view",
      "type": "function"
    },
    {
      "inputs": [],
      "name": "LENDING",
      "outputs": [
        {
          "internalType": "uint16",
          "name": "",
          "type": "uint16"
        }
      ],
      "stateMutability": "view",
      "type": "function"
    },
    {
      "inputs": [],
      "name": "LIQUIDATOR",
      "outputs": [
        {
          "internalType": "uint16",
          "name": "",
          "type": "uint16"
        }
      ],
      "stateMutability": "view",
      "type": "function"
    },
    {
      "inputs": [],
      "name": "MARGIN_CALLER",
      "outputs": [
        {
          "internalType": "uint16",
          "name": "",
          "type": "uint16"
        }
      ],
      "stateMutability": "view",
      "type": "function"
    },
    {
      "inputs": [],
      "name": "MARGIN_TRADER",
      "outputs": [
        {
          "internalType": "uint16",
          "name": "",
          "type": "uint16"
        }
      ],
      "stateMutability": "view",
      "type": "function"
    },
    {
      "inputs": [],
      "name": "MARGIN_TRADING",
      "outputs": [
        {
          "internalType": "uint16",
          "name": "",
          "type": "uint16"
        }
      ],
      "stateMutability": "view",
      "type": "function"
    },
    {
      "inputs": [],
      "name": "PRICE_CONTROLLER",
      "outputs": [
        {
          "internalType": "uint16",
          "name": "",
          "type": "uint16"
        }
      ],
      "stateMutability": "view",
      "type": "function"
    },
    {
      "inputs": [],
      "name": "ROUTER",
      "outputs": [
        {
          "internalType": "uint16",
          "name": "",
          "type": "uint16"
        }
      ],
      "stateMutability": "view",
      "type": "function"
    },
    {
      "inputs": [],
      "name": "TOKEN_ACTIVATOR",
      "outputs": [
        {
          "internalType": "uint16",
          "name": "",
          "type": "uint16"
        }
      ],
      "stateMutability": "view",
      "type": "function"
    },
    {
      "inputs": [],
      "name": "WITHDRAWER",
      "outputs": [
        {
          "internalType": "uint16",
          "name": "",
          "type": "uint16"
        }
      ],
      "stateMutability": "view",
      "type": "function"
    },
    {
      "inputs": [],
      "name": "rewardBalance",
      "outputs": [
        {
          "internalType": "uint24",
          "name": "balance",
          "type": "uint24"
        }
      ],
      "stateMutability": "view",
      "type": "function"
    },
    {
      "inputs": [
        {
          "internalType": "uint256",
          "name": "amount",
          "type": "uint256"
        }
      ],
      "name": "stake",
      "outputs": [
        {
          "internalType": "uint256",
          "name": "stakeBalance",
          "type": "uint256"
        }
      ],
      "stateMutability": "nonpayable",
      "type": "function"
    },
    {
      "inputs": [],
      "name": "stakeAmount",
      "outputs": [
        {
          "internalType": "uint256",
          "name": "amount",
          "type": "uint256"
        }
      ],
      "stateMutability": "view",
      "type": "function"
    },
    {
      "inputs": [],
      "name": "updateReward",
      "outputs": [],
      "stateMutability": "nonpayable",
      "type": "function"
    },
    {
      "inputs": [
        {
          "internalType": "uint256",
          "name": "expectedReward",
          "type": "uint256"
        }
      ],
      "name": "withdrawReward",
      "outputs": [
        {
          "internalType": "uint256",
          "name": "stakeBalance",
          "type": "uint256"
        },
        {
          "internalType": "uint256",
          "name": "incentiveBalance",
          "type": "uint256"
        }
      ],
      "stateMutability": "nonpayable",
      "type": "function"
    },
    {
      "inputs": [
        {
          "internalType": "uint256",
          "name": "amount",
          "type": "uint256"
        }
      ],
      "name": "withdrawStake",
      "outputs": [
        {
          "internalType": "uint256",
          "name": "stakeBalance",
          "type": "uint256"
        },
        {
          "internalType": "uint256",
          "name": "incentiveBalance",
          "type": "uint256"
        }
      ],
      "stateMutability": "nonpayable",
      "type": "function"
    }
  ],
  "bytecode": "0x60806040523480156200001157600080fd5b5060006040516200002290620004f1565b604051809103906000f0801580156200003f573d6000803e3d6000fd5b509050600073c02aaa39b223fe8d0a0e5c4f27ead9083c756cc2826040516200006890620004ff565b620000759291906200054b565b604051809103906000f08015801562000092573d6000803e3d6000fd5b50604051637d71b8ef60e11b81529091506001600160a01b0383169063fae371de90620000c790606590859060040162000659565b600060405180830381600087803b158015620000e257600080fd5b505af1158015620000f7573d6000803e3d6000fd5b5050505060405162000109906200050d565b6200011490620005d8565b604051809103906000f08015801562000131573d6000803e3d6000fd5b50600180546001600160a01b0319166001600160a01b0392831617908190556040516340c10f1960e01b81529116906340c10f19906200018290849069152d02c7e14af68000009060040162000589565b600060405180830381600087803b1580156200019d57600080fd5b505af1158015620001b2573d6000803e3d6000fd5b505060015460405163068e716960e11b81526001600160a01b038086169450630d1ce2d29350620001e892169060040162000537565b600060405180830381600087803b1580156200020357600080fd5b505af115801562000218573d6000803e3d6000fd5b50506001546040516001600160a01b039091169250610fa0915084906200023f906200051b565b6200024d93929190620005a2565b604051809103906000f0801580156200026a573d6000803e3d6000fd5b50600380546001600160a01b0319166001600160a01b039283161790819055604051635b55041f60e11b81528483169263b6aa083e92620002b692600192919091169060040162000659565b600060405180830381600087803b158015620002d157600080fd5b505af1158015620002e6573d6000803e3d6000fd5b50506003546040516310c30e7960e21b81526001600160a01b03909116925063430c39e49150620003209060009060c890600401620005c5565b600060405180830381600087803b1580156200033b57600080fd5b505af115801562000350573d6000803e3d6000fd5b5050505060405162000362906200050d565b6200036d9062000619565b604051809103906000f0801580156200038a573d6000803e3d6000fd5b50600080546001600160a01b0319166001600160a01b0392831617908190556040516340c10f1960e01b81529116906340c10f1990620003db90309069043c33c19375648000009060040162000589565b600060405180830381600087803b158015620003f657600080fd5b505af11580156200040b573d6000803e3d6000fd5b50506003546000546001600160a01b0391821693501690506200043060014262000676565b6040516200043e9062000529565b6200044c9392919062000565565b604051809103906000f08015801562000469573d6000803e3d6000fd5b50600280546001600160a01b0319166001600160a01b039283161790819055604051635b55041f60e11b81528483169263b6aa083e92620004b592600892919091169060040162000659565b600060405180830381600087803b158015620004d057600080fd5b505af1158015620004e5573d6000803e3d6000fd5b5050505050506200069a565b610913806200156783390190565b6116ba8062001e7a83390190565b612442806200353483390190565b611c1a806200597683390190565b6112f7806200759083390190565b6001600160a01b0391909116815260200190565b6001600160a01b0392831681529116602082015260400190565b6001600160a01b039384168152919092166020820152604081019190915260600190565b6001600160a01b03929092168252602082015260400190565b6001600160a01b0393841681526020810192909252909116604082015260600190565b60ff929092168252602082015260400190565b6040808252600c908201526b2932bbb0b932102a37b5b2b760a11b60608201526080602082018190526003908201526252455760e81b60a082015260c00190565b6040808252600b908201526a29ba30b5b2902a37b5b2b760a91b60608201526080602082018190526003908201526253544b60e81b60a082015260c00190565b61ffff9290921682526001600160a01b0316602082015260400190565b6000828210156200069557634e487b7160e01b81526011600452602481fd5b500390565b610ebd80620006aa6000396000f3fe608060405234801561001057600080fd5b50600436106101775760003560e01c806366941984116100d8578063a94c7c341161008c578063cacf8d4511610066578063cacf8d451461026b578063d5d7ed7f14610273578063f36c0a721461027b57610177565b8063a94c7c3414610246578063a9cc05361461024e578063aa5c3ab41461025657610177565b806383a49c7c116100bd57806383a49c7c14610223578063a0098d691461022b578063a694fc3a1461023357610177565b8063669419841461021357806381ca66001461021b57610177565b806346b887961161012f578063523a3f0811610114578063523a3f08146101e35780635c275a39146101f657806360c7dc47146101fe57610177565b806346b88796146101d357806348fb27b8146101db57610177565b806325d5971f1161016057806325d5971f146101a25780632fe94def146101c357806332fe7b26146101cb57610177565b8063065d570f1461017c5780631bc5d81d1461019a575b600080fd5b610184610285565b6040516101919190610d95565b60405180910390f35b61018461028a565b6101b56101b0366004610c8f565b61028f565b604051610191929190610dbd565b610184610466565b61018461046b565b610184610470565b610184610475565b6101b56101f1366004610c8f565b61047a565b610184610781565b610206610786565b6040516101919190610db4565b610184610832565b610184610837565b61018461083c565b610184610841565b610206610241366004610c8f565b610846565b610184610b09565b610184610b0e565b61025e610b13565b6040516101919190610da4565b610184610bd3565b610184610bd8565b610283610bdd565b005b600381565b600881565b600254600090819073ffffffffffffffffffffffffffffffffffffffff166325d5971f6102c485670de0b6b3a7640000610e04565b6040518263ffffffff1660e01b81526004016102e09190610db4565b600060405180830381600087803b1580156102fa57600080fd5b505af115801561030e573d6000803e3d6000fd5b50506000546040517f70a0823100000000000000000000000000000000000000000000000000000000815273ffffffffffffffffffffffffffffffffffffffff90911692506370a082319150610368903090600401610cbf565b60206040518083038186803b15801561038057600080fd5b505afa158015610394573d6000803e3d6000fd5b505050506040513d601f19601f820116820180604052508101906103b89190610ca7565b6001546040517f70a0823100000000000000000000000000000000000000000000000000000000815291935073ffffffffffffffffffffffffffffffffffffffff16906370a082319061040f903090600401610cbf565b60206040518083038186803b15801561042757600080fd5b505afa15801561043b573d6000803e3d6000fd5b505050506040513d601f19601f8201168201806040525081019061045f9190610ca7565b9050915091565b606981565b606781565b600681565b606681565b6001546040517f70a082310000000000000000000000000000000000000000000000000000000081526000918291829173ffffffffffffffffffffffffffffffffffffffff16906370a08231906104d5903090600401610cbf565b60206040518083038186803b1580156104ed57600080fd5b505afa158015610501573d6000803e3d6000fd5b505050506040513d601f19601f820116820180604052508101906105259190610ca7565b9050600260009054906101000a900473ffffffffffffffffffffffffffffffffffffffff1673ffffffffffffffffffffffffffffffffffffffff1663c885bc586040518163ffffffff1660e01b8152600401602060405180830381600087803b15801561059157600080fd5b505af11580156105a5573d6000803e3d6000fd5b505050506040513d601f19601f820116820180604052508101906105c99190610ca7565b506000546040517f70a0823100000000000000000000000000000000000000000000000000000000815273ffffffffffffffffffffffffffffffffffffffff909116906370a0823190610620903090600401610cbf565b60206040518083038186803b15801561063857600080fd5b505afa15801561064c573d6000803e3d6000fd5b505050506040513d601f19601f820116820180604052508101906106709190610ca7565b6001546040517f70a0823100000000000000000000000000000000000000000000000000000000815291945073ffffffffffffffffffffffffffffffffffffffff16906370a08231906106c7903090600401610cbf565b60206040518083038186803b1580156106df57600080fd5b505afa1580156106f3573d6000803e3d6000fd5b505050506040513d601f19601f820116820180604052508101906107179190610ca7565b915060006107258284610e41565b905061073985670de0b6b3a7640000610e04565b811161077a576040517f08c379a000000000000000000000000000000000000000000000000000000000815260040161077190610d5e565b60405180910390fd5b5050915091565b606581565b6002546040517fe5afa56600000000000000000000000000000000000000000000000000000000815260009173ffffffffffffffffffffffffffffffffffffffff169063e5afa566906107dd903090600401610cbf565b60206040518083038186803b1580156107f557600080fd5b505afa158015610809573d6000803e3d6000fd5b505050506040513d601f19601f8201168201806040525081019061082d9190610ca7565b905090565b600181565b606a81565b600981565b600281565b6000805460025473ffffffffffffffffffffffffffffffffffffffff9182169163095ea7b3911661087f85670de0b6b3a7640000610e04565b6040518363ffffffff1660e01b815260040161089c929190610ce0565b602060405180830381600087803b1580156108b657600080fd5b505af11580156108ca573d6000803e3d6000fd5b505050506040513d601f19601f820116820180604052508101906108ee9190610c68565b5060025473ffffffffffffffffffffffffffffffffffffffff1663cb82cc8f61091f84670de0b6b3a7640000610e04565b6040518263ffffffff1660e01b815260040161093b9190610db4565b600060405180830381600087803b15801561095557600080fd5b505af1158015610969573d6000803e3d6000fd5b50506000546040517f70a0823100000000000000000000000000000000000000000000000000000000815273ffffffffffffffffffffffffffffffffffffffff90911692506370a0823191506109c3903090600401610cbf565b60206040518083038186803b1580156109db57600080fd5b505afa1580156109ef573d6000803e3d6000fd5b505050506040513d601f19601f82011682018060405250810190610a139190610ca7565b9050610a2782670de0b6b3a7640000610e04565b6002546040517fe5afa56600000000000000000000000000000000000000000000000000000000815273ffffffffffffffffffffffffffffffffffffffff9091169063e5afa56690610a7d903090600401610cbf565b60206040518083038186803b158015610a9557600080fd5b505afa158015610aa9573d6000803e3d6000fd5b505050506040513d601f19601f82011682018060405250810190610acd9190610ca7565b14610b04576040517f08c379a000000000000000000000000000000000000000000000000000000000815260040161077190610d27565b919050565b600581565b606881565b6003546040517f98239023000000000000000000000000000000000000000000000000000000008152600091670de0b6b3a76400009173ffffffffffffffffffffffffffffffffffffffff90911690639823902390610b79908590600190600401610d14565b60206040518083038186803b158015610b9157600080fd5b505afa158015610ba5573d6000803e3d6000fd5b505050506040513d601f19601f82011682018060405250810190610bc99190610ca7565b61082d9190610dcb565b600481565b600781565b6003546040517feb3b6cec00000000000000000000000000000000000000000000000000000000815273ffffffffffffffffffffffffffffffffffffffff9091169063eb3b6cec90610c3490600090600401610d06565b600060405180830381600087803b158015610c4e57600080fd5b505af1158015610c62573d6000803e3d6000fd5b50505050565b600060208284031215610c79578081fd5b81518015158114610c88578182fd5b9392505050565b600060208284031215610ca0578081fd5b5035919050565b600060208284031215610cb8578081fd5b5051919050565b73ffffffffffffffffffffffffffffffffffffffff91909116815260200190565b73ffffffffffffffffffffffffffffffffffffffff929092168252602082015260400190565b60ff91909116815260200190565b60ff929092168252602082015260400190565b60208082526016908201527f496e636f7272656374207374616b6520616d6f756e7400000000000000000000604082015260600190565b6020808252601a908201527f52657761726420646964206e6f742067726f7720656e6f756768000000000000604082015260600190565b61ffff91909116815260200190565b62ffffff91909116815260200190565b90815260200190565b918252602082015260400190565b600082610dff577f4e487b710000000000000000000000000000000000000000000000000000000081526012600452602481fd5b500490565b6000817fffffffffffffffffffffffffffffffffffffffffffffffffffffffffffffffff0483118215151615610e3c57610e3c610e58565b500290565b600082821015610e5357610e53610e58565b500390565b7f4e487b7100000000000000000000000000000000000000000000000000000000600052601160045260246000fdfea26469706673582212202c2528dc404c8d7b726a5a545b7e81000ab60046386296b4588fdcef3b84441964736f6c63430008010033608060405234801561001057600080fd5b50600061001b610091565b600080546001600160a01b0319166001600160a01b0383169081178255604051929350917f8be0079c531659141344cd1fd0a4f28419497f9722a3daafe3b4186f6b6457e0908290a35033600090815260016020818152604080842060098552909152909120805460ff19169091179055610095565b3390565b61086f806100a46000396000f3fe608060405234801561001057600080fd5b50600436106100a35760003560e01c80639b44225b11610076578063d87fefd21161005b578063d87fefd214610129578063f2fde38b1461013c578063fae371de1461014f576100a3565b80639b44225b14610103578063b6aa083e14610116576100a3565b80633c9c8f9c146100a857806353b15901146100d1578063715018a6146100f15780638da5cb5b146100fb575b600080fd5b6100bb6100b6366004610738565b610162565b6040516100c8919061077b565b60405180910390f35b6100e46100df366004610706565b61018a565b6040516100c8919061079c565b6100f96101aa565b005b6100bb610295565b6100f9610111366004610752565b6102b1565b6100f9610124366004610752565b61037f565b6100e4610137366004610752565b610452565b6100f961014a3660046106e5565b61048d565b6100f961015d366004610752565b6105da565b60026020526000908152604090205473ffffffffffffffffffffffffffffffffffffffff1681565b600160209081526000928352604080842090915290825290205460ff1681565b6101b26106a6565b73ffffffffffffffffffffffffffffffffffffffff166101d0610295565b73ffffffffffffffffffffffffffffffffffffffff1614610226576040517f08c379a000000000000000000000000000000000000000000000000000000000815260040161021d90610804565b60405180910390fd5b6000805460405173ffffffffffffffffffffffffffffffffffffffff909116907f8be0079c531659141344cd1fd0a4f28419497f9722a3daafe3b4186f6b6457e0908390a3600080547fffffffffffffffffffffffff0000000000000000000000000000000000000000169055565b60005473ffffffffffffffffffffffffffffffffffffffff1690565b6102b96106a6565b73ffffffffffffffffffffffffffffffffffffffff166102d7610295565b73ffffffffffffffffffffffffffffffffffffffff1614610324576040517f08c379a000000000000000000000000000000000000000000000000000000000815260040161021d90610804565b73ffffffffffffffffffffffffffffffffffffffff16600090815260016020908152604080832061ffff90941683529290522080547fffffffffffffffffffffffffffffffffffffffffffffffffffffffffffffff00169055565b6103876106a6565b73ffffffffffffffffffffffffffffffffffffffff166103a5610295565b73ffffffffffffffffffffffffffffffffffffffff16146103f2576040517f08c379a000000000000000000000000000000000000000000000000000000000815260040161021d90610804565b73ffffffffffffffffffffffffffffffffffffffff16600090815260016020818152604080842061ffff909516845293905291902080547fffffffffffffffffffffffffffffffffffffffffffffffffffffffffffffff00169091179055565b73ffffffffffffffffffffffffffffffffffffffff16600090815260016020908152604080832061ffff949094168352929052205460ff1690565b6104956106a6565b73ffffffffffffffffffffffffffffffffffffffff166104b3610295565b73ffffffffffffffffffffffffffffffffffffffff1614610500576040517f08c379a000000000000000000000000000000000000000000000000000000000815260040161021d90610804565b73ffffffffffffffffffffffffffffffffffffffff811661054d576040517f08c379a000000000000000000000000000000000000000000000000000000000815260040161021d906107a7565b6000805460405173ffffffffffffffffffffffffffffffffffffffff808516939216917f8be0079c531659141344cd1fd0a4f28419497f9722a3daafe3b4186f6b6457e091a3600080547fffffffffffffffffffffffff00000000000000000000000000000000000000001673ffffffffffffffffffffffffffffffffffffffff92909216919091179055565b6105e26106a6565b73ffffffffffffffffffffffffffffffffffffffff16610600610295565b73ffffffffffffffffffffffffffffffffffffffff161461064d576040517f08c379a000000000000000000000000000000000000000000000000000000000815260040161021d90610804565b61ffff91909116600090815260026020526040902080547fffffffffffffffffffffffff00000000000000000000000000000000000000001673ffffffffffffffffffffffffffffffffffffffff909216919091179055565b3390565b803573ffffffffffffffffffffffffffffffffffffffff811681146106ce57600080fd5b919050565b803561ffff811681146106ce57600080fd5b6000602082840312156106f6578081fd5b6106ff826106aa565b9392505050565b60008060408385031215610718578081fd5b610721836106aa565b915061072f602084016106d3565b90509250929050565b600060208284031215610749578081fd5b6106ff826106d3565b60008060408385031215610764578182fd5b61076d836106d3565b915061072f602084016106aa565b73ffffffffffffffffffffffffffffffffffffffff91909116815260200190565b901515815260200190565b60208082526026908201527f4f776e61626c653a206e6577206f776e657220697320746865207a65726f206160408201527f6464726573730000000000000000000000000000000000000000000000000000606082015260800190565b6020808252818101527f4f776e61626c653a2063616c6c6572206973206e6f7420746865206f776e657260408201526060019056fea2646970667358221220e9bbcdc203d2c2958f53efd6f1f36c72fdd5e84dd3b29abae1dc2da5a013be1164736f6c6343000801003360806040523480156200001157600080fd5b50604051620016ba380380620016ba8339810160408190526200003491620000ef565b600080546001600160a01b0319166001600160a01b03831617815562000059620000ce565b600380546001600160a01b0319166001600160a01b038316908117909155604051919250906000907f8be0079c531659141344cd1fd0a4f28419497f9722a3daafe3b4186f6b6457e0908290a35050600480546001600160a01b0319166001600160a01b039290921691909117905562000126565b3390565b80516001600160a01b0381168114620000ea57600080fd5b919050565b6000806040838503121562000102578182fd5b6200010d83620000d2565b91506200011d60208401620000d2565b90509250929050565b61158480620001366000396000f3fe6080604052600436106102195760003560e01c8063715018a61161011d578063ad5c4648116100b0578063c76139d01161007f578063d5d7ed7f11610064578063d5d7ed7f1461053c578063d9caed1214610551578063f2fde38b1461057157610219565b8063c76139d014610512578063cacf8d451461052757610219565b8063ad5c46481461049d578063b3db428b146104b2578063b4481652146104d2578063c34316c3146104f257610219565b8063a0098d69116100ec578063a0098d6914610456578063a6a5f9fe1461046b578063a94c7c3414610473578063a9cc05361461048857610219565b8063715018a61461040257806381ca66001461041757806383a49c7c1461042c5780638da5cb5b1461044157610219565b806346b88796116101b05780635acf69031161017f578063669419841161016457806366941984146103ad57806368173bcf146103c25780636cd5cd60146103e257610219565b80635acf6903146103785780635c275a391461039857610219565b806346b88796146103015780634782f7791461031657806347e7ef241461033657806348fb27b81461036357610219565b80632a0acc6a116101ec5780632a0acc6a146102a05780632fe94def146102b557806332fe7b26146102ca578063392f5f64146102df57610219565b8063065d570f1461021e5780630d1ce2d2146102495780631bc5d81d1461026b57806320e8d81914610280575b600080fd5b34801561022a57600080fd5b50610233610591565b60405161024091906114e7565b60405180910390f35b34801561025557600080fd5b50610269610264366004611106565b610596565b005b34801561027757600080fd5b5061023361062d565b34801561028c57600080fd5b5061026961029b366004611217565b610632565b3480156102ac57600080fd5b50610233610743565b3480156102c157600080fd5b50610233610748565b3480156102d657600080fd5b5061023361074d565b3480156102eb57600080fd5b506102f4610752565b604051610240919061124d565b34801561030d57600080fd5b5061023361076e565b34801561032257600080fd5b506102696103313660046111b2565b610773565b34801561034257600080fd5b506103566103513660046111b2565b610881565b60405161024091906112c5565b34801561036f57600080fd5b5061023361098f565b34801561038457600080fd5b50610356610393366004611106565b610994565b3480156103a457600080fd5b506102336109a9565b3480156103b957600080fd5b506102336109ae565b3480156103ce57600080fd5b506102696103dd366004611106565b6109b3565b3480156103ee57600080fd5b506102696103fd3660046111fd565b610a3e565b34801561040e57600080fd5b50610269610b3d565b34801561042357600080fd5b50610233610c1f565b34801561043857600080fd5b50610233610c24565b34801561044d57600080fd5b506102f4610c29565b34801561046257600080fd5b50610233610c45565b610269610c4a565b34801561047f57600080fd5b50610233610cd0565b34801561049457600080fd5b50610233610cd5565b3480156104a957600080fd5b506102f4610cda565b3480156104be57600080fd5b506103566104cd36600461113e565b610cf6565b3480156104de57600080fd5b506102f46104ed3660046111fd565b610e44565b3480156104fe57600080fd5b5061035661050d36600461117e565b610e6c565b34801561051e57600080fd5b50610233610e8c565b34801561053357600080fd5b50610233610e91565b34801561054857600080fd5b50610233610e96565b34801561055d57600080fd5b5061035661056c36600461113e565b610e9b565b34801561057d57600080fd5b5061026961058c366004611106565b610f30565b600381565b61059f3361107e565b6105de576040517f08c379a00000000000000000000000000000000000000000000000000000000081526004016105d590611307565b60405180910390fd5b73ffffffffffffffffffffffffffffffffffffffff16600090815260056020526040902080547fffffffffffffffffffffffffffffffffffffffffffffffffffffffffffffff00166001179055565b600881565b6000546040517fd87fefd200000000000000000000000000000000000000000000000000000000815273ffffffffffffffffffffffffffffffffffffffff9091169063d87fefd29061068a90859085906004016114f6565b60206040518083038186803b1580156106a257600080fd5b505afa1580156106b6573d6000803e3d6000fd5b505050506040513d601f19601f820116820180604052508101906106da91906111dd565b73ffffffffffffffffffffffffffffffffffffffff909116600090815260026020908152604080832061ffff90951683529390529190912080549115157fffffffffffffffffffffffffffffffffffffffffffffffffffffffffffffff00909216919091179055565b606b81565b606981565b606781565b60005473ffffffffffffffffffffffffffffffffffffffff1681565b600681565b61077c336110b9565b6107b2576040517f08c379a00000000000000000000000000000000000000000000000000000000081526004016105d590611364565b600480546040517f2e1a7d4d00000000000000000000000000000000000000000000000000000000815273ffffffffffffffffffffffffffffffffffffffff90911691632e1a7d4d9161080791859101611520565b600060405180830381600087803b15801561082157600080fd5b505af1158015610835573d6000803e3d6000fd5b505060405173ffffffffffffffffffffffffffffffffffffffff8516925083156108fc02915083906000818181858888f1935050505015801561087c573d6000803e3d6000fd5b505050565b73ffffffffffffffffffffffffffffffffffffffff821660009081526005602052604081205460ff166108e0576040517f08c379a00000000000000000000000000000000000000000000000000000000081526004016105d5906112d0565b6040517f23b872dd00000000000000000000000000000000000000000000000000000000815273ffffffffffffffffffffffffffffffffffffffff8416906323b872dd906109369033903090879060040161126e565b602060405180830381600087803b15801561095057600080fd5b505af1158015610964573d6000803e3d6000fd5b505050506040513d601f19601f8201168201806040525081019061098891906111dd565b9392505050565b606681565b60056020526000908152604090205460ff1681565b606581565b600181565b6109bc3361107e565b6109f2576040517f08c379a00000000000000000000000000000000000000000000000000000000081526004016105d590611307565b73ffffffffffffffffffffffffffffffffffffffff16600090815260056020526040902080547fffffffffffffffffffffffffffffffffffffffffffffffffffffffffffffff00169055565b6000546040517f3c9c8f9c00000000000000000000000000000000000000000000000000000000815273ffffffffffffffffffffffffffffffffffffffff90911690633c9c8f9c90610a949084906004016114e7565b60206040518083038186803b158015610aac57600080fd5b505afa158015610ac0573d6000803e3d6000fd5b505050506040513d601f19601f82011682018060405250810190610ae49190611122565b61ffff91909116600090815260016020526040902080547fffffffffffffffffffffffff00000000000000000000000000000000000000001673ffffffffffffffffffffffffffffffffffffffff909216919091179055565b610b456110f0565b73ffffffffffffffffffffffffffffffffffffffff16610b63610c29565b73ffffffffffffffffffffffffffffffffffffffff1614610bb0576040517f08c379a00000000000000000000000000000000000000000000000000000000081526004016105d590611455565b60035460405160009173ffffffffffffffffffffffffffffffffffffffff16907f8be0079c531659141344cd1fd0a4f28419497f9722a3daafe3b4186f6b6457e0908390a3600380547fffffffffffffffffffffffff0000000000000000000000000000000000000000169055565b606a81565b600981565b60035473ffffffffffffffffffffffffffffffffffffffff1690565b600281565b60048054604080517fd0e30db0000000000000000000000000000000000000000000000000000000008152905173ffffffffffffffffffffffffffffffffffffffff9092169263d0e30db0923492808301926000929182900301818588803b158015610cb557600080fd5b505af1158015610cc9573d6000803e3d6000fd5b5050505050565b600581565b606881565b60045473ffffffffffffffffffffffffffffffffffffffff1681565b73ffffffffffffffffffffffffffffffffffffffff821660009081526005602052604081205460ff16610d55576040517f08c379a00000000000000000000000000000000000000000000000000000000081526004016105d5906112d0565b610d5e336110b9565b610d94576040517f08c379a00000000000000000000000000000000000000000000000000000000081526004016105d59061148a565b6040517f23b872dd00000000000000000000000000000000000000000000000000000000815273ffffffffffffffffffffffffffffffffffffffff8416906323b872dd90610dea9087903090879060040161126e565b602060405180830381600087803b158015610e0457600080fd5b505af1158015610e18573d6000803e3d6000fd5b505050506040513d601f19601f82011682018060405250810190610e3c91906111dd565b949350505050565b60016020526000908152604090205473ffffffffffffffffffffffffffffffffffffffff1681565b600260209081526000928352604080842090915290825290205460ff1681565b606c81565b600481565b600781565b6000610ea6336110b9565b610edc576040517f08c379a00000000000000000000000000000000000000000000000000000000081526004016105d5906113f8565b6040517fa9059cbb00000000000000000000000000000000000000000000000000000000815273ffffffffffffffffffffffffffffffffffffffff85169063a9059cbb90610dea908690869060040161129f565b610f386110f0565b73ffffffffffffffffffffffffffffffffffffffff16610f56610c29565b73ffffffffffffffffffffffffffffffffffffffff1614610fa3576040517f08c379a00000000000000000000000000000000000000000000000000000000081526004016105d590611455565b73ffffffffffffffffffffffffffffffffffffffff8116610ff0576040517f08c379a00000000000000000000000000000000000000000000000000000000081526004016105d59061139b565b60035460405173ffffffffffffffffffffffffffffffffffffffff8084169216907f8be0079c531659141344cd1fd0a4f28419497f9722a3daafe3b4186f6b6457e090600090a3600380547fffffffffffffffffffffffff00000000000000000000000000000000000000001673ffffffffffffffffffffffffffffffffffffffff92909216919091179055565b73ffffffffffffffffffffffffffffffffffffffff811660009081526002602090815260408083206009845290915290205460ff165b919050565b73ffffffffffffffffffffffffffffffffffffffff1660009081526002602090815260408083206001845290915290205460ff1690565b3390565b803561ffff811681146110b457600080fd5b600060208284031215611117578081fd5b813561098881611529565b600060208284031215611133578081fd5b815161098881611529565b600080600060608486031215611152578182fd5b833561115d81611529565b9250602084013561116d81611529565b929592945050506040919091013590565b60008060408385031215611190578182fd5b823561119b81611529565b91506111a9602084016110f4565b90509250929050565b600080604083850312156111c4578182fd5b82356111cf81611529565b946020939093013593505050565b6000602082840312156111ee578081fd5b81518015158114610988578182fd5b60006020828403121561120e578081fd5b610988826110f4565b60008060408385031215611229578182fd5b611232836110f4565b9150602083013561124281611529565b809150509250929050565b73ffffffffffffffffffffffffffffffffffffffff91909116815260200190565b73ffffffffffffffffffffffffffffffffffffffff9384168152919092166020820152604081019190915260600190565b73ffffffffffffffffffffffffffffffffffffffff929092168252602082015260400190565b901515815260200190565b6020808252601b908201527f4465706f73697420746f6b656e206973206e6f74206163746976650000000000604082015260600190565b60208082526029908201527f41646472657373206e6f7420617574686f72697a656420746f2061637469766160408201527f746520746f6b656e730000000000000000000000000000000000000000000000606082015260800190565b6020808252601a908201527f4e6f7420617574686f72697a656420746f207769746864726177000000000000604082015260600190565b60208082526026908201527f4f776e61626c653a206e6577206f776e657220697320746865207a65726f206160408201527f6464726573730000000000000000000000000000000000000000000000000000606082015260800190565b60208082526023908201527f436f6e7472616374206e6f7420617574686f72697a656420746f20776974686460408201527f7261770000000000000000000000000000000000000000000000000000000000606082015260800190565b6020808252818101527f4f776e61626c653a2063616c6c6572206973206e6f7420746865206f776e6572604082015260600190565b60208082526022908201527f436f6e7472616374206e6f7420617574686f72697a656420746f206465706f7360408201527f6974000000000000000000000000000000000000000000000000000000000000606082015260800190565b61ffff91909116815260200190565b61ffff92909216825273ffffffffffffffffffffffffffffffffffffffff16602082015260400190565b90815260200190565b73ffffffffffffffffffffffffffffffffffffffff8116811461154b57600080fd5b5056fea2646970667358221220a22b753d396879aa1437a9bd51c44fdd969a0758dfd37e0a3c39a90c9178930e64736f6c6343000801003360806040523480156200001157600080fd5b5060405162002442380380620024428339810160408190526200003491620003d6565b8151829082906200004d9060059060208501906200027d565b508051620000639060069060208401906200027d565b50506007805460ff191690555062000086600062000080620000ec565b620000f0565b620000b57f9f2df0fed2c77648de5860a4cc508cd0818c85b8b8a1ab4ceeef8d981c8956a662000080620000ec565b620000e47f65d7a28e3265b37a6474929f336521b332c1681b933f6cb9f3376673440d862a62000080620000ec565b505062000490565b3390565b6200010782826200013360201b62000a171760201c565b60008281526001602090815260409091206200012e91839062000a2162000143821b17901c565b505050565b6200013f828262000163565b5050565b60006200015a836001600160a01b038416620001ed565b90505b92915050565b6200016f82826200023c565b6200013f576000828152602081815260408083206001600160a01b03851684529091529020805460ff19166001179055620001a9620000ec565b6001600160a01b0316816001600160a01b0316837f2f8788117e7eff1d82e926ec794901d17c78024a50270940304540a733656f0d60405160405180910390a45050565b6000620001fb838362000265565b62000233575081546001818101845560008481526020808220909301849055845484825282860190935260409020919091556200015d565b5060006200015d565b6000918252602082815260408084206001600160a01b0393909316845291905290205460ff1690565b60009081526001919091016020526040902054151590565b8280546200028b906200043d565b90600052602060002090601f016020900481019282620002af5760008555620002fa565b82601f10620002ca57805160ff1916838001178555620002fa565b82800160010185558215620002fa579182015b82811115620002fa578251825591602001919060010190620002dd565b50620003089291506200030c565b5090565b5b808211156200030857600081556001016200030d565b600082601f83011262000334578081fd5b81516001600160401b03808211156200035157620003516200047a565b604051601f8301601f19908116603f011681019082821181831017156200037c576200037c6200047a565b8160405283815260209250868385880101111562000398578485fd5b8491505b83821015620003bb57858201830151818301840152908201906200039c565b83821115620003cc57848385830101525b9695505050505050565b60008060408385031215620003e9578182fd5b82516001600160401b038082111562000400578384fd5b6200040e8683870162000323565b9350602085015191508082111562000424578283fd5b50620004338582860162000323565b9150509250929050565b6002810460018216806200045257607f821691505b602082108114156200047457634e487b7160e01b600052602260045260246000fd5b50919050565b634e487b7160e01b600052604160045260246000fd5b611fa280620004a06000396000f3fe608060405234801561001057600080fd5b50600436106101b95760003560e01c806370a08231116100f9578063a457c2d711610097578063d539139311610071578063d539139314610367578063d547741f1461036f578063dd62ed3e14610382578063e63ab1e914610395576101b9565b8063a457c2d71461032e578063a9059cbb14610341578063ca15c87314610354576101b9565b80639010d07c116100d35780639010d07c146102eb57806391d148541461030b57806395d89b411461031e578063a217fddf14610326576101b9565b806370a08231146102bd57806379cc6790146102d05780638456cb59146102e3576101b9565b8063313ce567116101665780633f4ba83a116101405780633f4ba83a1461028757806340c10f191461028f57806342966c68146102a25780635c975abb146102b5576101b9565b8063313ce5671461024c57806336568abe146102615780633950935114610274576101b9565b806323b872dd1161019757806323b872dd14610211578063248a9ca3146102245780632f2ff15d14610237576101b9565b806306fdde03146101be578063095ea7b3146101dc57806318160ddd146101fc575b600080fd5b6101c661039d565b6040516101d3919061170c565b60405180910390f35b6101ef6101ea366004611653565b61042f565b6040516101d391906116f8565b61020461044d565b6040516101d39190611703565b6101ef61021f366004611618565b610453565b61020461023236600461167c565b610534565b61024a610245366004611694565b61054c565b005b610254610573565b6040516101d39190611eac565b61024a61026f366004611694565b610578565b6101ef610282366004611653565b6105f2565b61024a61064e565b61024a61029d366004611653565b6106ba565b61024a6102b036600461167c565b610726565b6101ef61073a565b6102046102cb3660046115cc565b610743565b61024a6102de366004611653565b61076b565b61024a6107d5565b6102fe6102f93660046116b6565b61083f565b6040516101d391906116d7565b6101ef610319366004611694565b61085e565b6101c6610894565b6102046108a3565b6101ef61033c366004611653565b6108a8565b6101ef61034f366004611653565b61094a565b61020461036236600461167c565b61095e565b610204610975565b61024a61037d366004611694565b610999565b6102046103903660046115e6565b6109bb565b6102046109f3565b6060600580546103ac90611ee9565b80601f01602080910402602001604051908101604052809291908181526020018280546103d890611ee9565b80156104255780601f106103fa57610100808354040283529160200191610425565b820191906000526020600020905b81548152906001019060200180831161040857829003601f168201915b5050505050905090565b600061044361043c610a43565b8484610a47565b5060015b92915050565b60045490565b6000610460848484610b56565b73ffffffffffffffffffffffffffffffffffffffff841660009081526003602052604081208161048e610a43565b73ffffffffffffffffffffffffffffffffffffffff1673ffffffffffffffffffffffffffffffffffffffff1681526020019081526020016000205490508281101561050e576040517f08c379a000000000000000000000000000000000000000000000000000000000815260040161050590611ad3565b60405180910390fd5b6105298561051a610a43565b6105248685611ed2565b610a47565b506001949350505050565b6000818152602081905260409020600101545b919050565b6105568282610d1a565b600082815260016020526040902061056e9082610a21565b505050565b601290565b610580610a43565b73ffffffffffffffffffffffffffffffffffffffff168173ffffffffffffffffffffffffffffffffffffffff16146105e4576040517f08c379a000000000000000000000000000000000000000000000000000000000815260040161050590611dbb565b6105ee8282610d64565b5050565b60006104436105ff610a43565b84846003600061060d610a43565b73ffffffffffffffffffffffffffffffffffffffff908116825260208083019390935260409182016000908120918b16815292529020546105249190611eba565b61067a7f65d7a28e3265b37a6474929f336521b332c1681b933f6cb9f3376673440d862a610319610a43565b6106b0576040517f08c379a000000000000000000000000000000000000000000000000000000000815260040161050590611928565b6106b8610e2c565b565b6106e67f9f2df0fed2c77648de5860a4cc508cd0818c85b8b8a1ab4ceeef8d981c8956a6610319610a43565b61071c576040517f08c379a000000000000000000000000000000000000000000000000000000000815260040161050590611b30565b6105ee8282610ed2565b610737610731610a43565b82610fd3565b50565b60075460ff1690565b73ffffffffffffffffffffffffffffffffffffffff1660009081526002602052604090205490565b600061077983610390610a43565b9050818110156107b5576040517f08c379a000000000000000000000000000000000000000000000000000000000815260040161050590611b8d565b6107cb836107c1610a43565b6105248585611ed2565b61056e8383610fd3565b6108017f65d7a28e3265b37a6474929f336521b332c1681b933f6cb9f3376673440d862a610319610a43565b610837576040517f08c379a000000000000000000000000000000000000000000000000000000000815260040161050590611d01565b6106b8611121565b600082815260016020526040812061085790836111b4565b9392505050565b60009182526020828152604080842073ffffffffffffffffffffffffffffffffffffffff93909316845291905290205460ff1690565b6060600680546103ac90611ee9565b600081565b600080600360006108b7610a43565b73ffffffffffffffffffffffffffffffffffffffff9081168252602080830193909352604091820160009081209188168152925290205490508281101561092a576040517f08c379a000000000000000000000000000000000000000000000000000000000815260040161050590611d5e565b610940610935610a43565b856105248685611ed2565b5060019392505050565b6000610443610957610a43565b8484610b56565b6000818152600160205260408120610447906111c0565b7f9f2df0fed2c77648de5860a4cc508cd0818c85b8b8a1ab4ceeef8d981c8956a681565b6109a382826111cb565b600082815260016020526040902061056e908261120d565b73ffffffffffffffffffffffffffffffffffffffff918216600090815260036020908152604080832093909416825291909152205490565b7f65d7a28e3265b37a6474929f336521b332c1681b933f6cb9f3376673440d862a81565b6105ee828261122f565b60006108578373ffffffffffffffffffffffffffffffffffffffff84166112f9565b3390565b73ffffffffffffffffffffffffffffffffffffffff8316610a94576040517f08c379a000000000000000000000000000000000000000000000000000000000815260040161050590611ca4565b73ffffffffffffffffffffffffffffffffffffffff8216610ae1576040517f08c379a000000000000000000000000000000000000000000000000000000000815260040161050590611985565b73ffffffffffffffffffffffffffffffffffffffff80841660008181526003602090815260408083209487168084529490915290819020849055517f8c5be1e5ebec7d5bd14f71427d1e84f3dd0314c0f7b2291e5b200ac8c7c3b92590610b49908590611703565b60405180910390a3505050565b73ffffffffffffffffffffffffffffffffffffffff8316610ba3576040517f08c379a000000000000000000000000000000000000000000000000000000000815260040161050590611c47565b73ffffffffffffffffffffffffffffffffffffffff8216610bf0576040517f08c379a0000000000000000000000000000000000000000000000000000000008152600401610505906117da565b610bfb838383611343565b73ffffffffffffffffffffffffffffffffffffffff831660009081526002602052604090205481811015610c5b576040517f08c379a0000000000000000000000000000000000000000000000000000000008152600401610505906119e2565b610c658282611ed2565b73ffffffffffffffffffffffffffffffffffffffff8086166000908152600260205260408082209390935590851681529081208054849290610ca8908490611eba565b925050819055508273ffffffffffffffffffffffffffffffffffffffff168473ffffffffffffffffffffffffffffffffffffffff167fddf252ad1be2c89b69c2b068fc378daa952ba7f163c4a11628f55a4df523b3ef84604051610d0c9190611703565b60405180910390a350505050565b610d2e610d2683610534565b610319610a43565b610a17576040517f08c379a000000000000000000000000000000000000000000000000000000000815260040161050590611837565b610d6e828261085e565b156105ee5760008281526020818152604080832073ffffffffffffffffffffffffffffffffffffffff85168452909152902080547fffffffffffffffffffffffffffffffffffffffffffffffffffffffffffffff00169055610dce610a43565b73ffffffffffffffffffffffffffffffffffffffff168173ffffffffffffffffffffffffffffffffffffffff16837ff6391f5c32d9c69d2a47ea670b442974b53935d1edc7fd64eb21e047a839171b60405160405180910390a45050565b610e3461073a565b610e6a576040517f08c379a000000000000000000000000000000000000000000000000000000000815260040161050590611894565b600780547fffffffffffffffffffffffffffffffffffffffffffffffffffffffffffffff001690557f5db9ee0a495bf2e6ff9c91a7834c1ba4fdd244a5e8aa4e537bd38aeae4b073aa610ebb610a43565b604051610ec891906116d7565b60405180910390a1565b73ffffffffffffffffffffffffffffffffffffffff8216610f1f576040517f08c379a000000000000000000000000000000000000000000000000000000000815260040161050590611e18565b610f2b60008383611343565b8060046000828254610f3d9190611eba565b909155505073ffffffffffffffffffffffffffffffffffffffff821660009081526002602052604081208054839290610f77908490611eba565b909155505060405173ffffffffffffffffffffffffffffffffffffffff8316906000907fddf252ad1be2c89b69c2b068fc378daa952ba7f163c4a11628f55a4df523b3ef90610fc7908590611703565b60405180910390a35050565b73ffffffffffffffffffffffffffffffffffffffff8216611020576040517f08c379a000000000000000000000000000000000000000000000000000000000815260040161050590611bea565b61102c82600083611343565b73ffffffffffffffffffffffffffffffffffffffff82166000908152600260205260409020548181101561108c576040517f08c379a0000000000000000000000000000000000000000000000000000000008152600401610505906118cb565b6110968282611ed2565b73ffffffffffffffffffffffffffffffffffffffff8416600090815260026020526040812091909155600480548492906110d1908490611ed2565b909155505060405160009073ffffffffffffffffffffffffffffffffffffffff8516907fddf252ad1be2c89b69c2b068fc378daa952ba7f163c4a11628f55a4df523b3ef90610b49908690611703565b61112961073a565b15611160576040517f08c379a000000000000000000000000000000000000000000000000000000000815260040161050590611a9c565b600780547fffffffffffffffffffffffffffffffffffffffffffffffffffffffffffffff001660011790557f62e78cea01bee320cd4e420270b5ea74000d11b0c9f74754ebdbfc544b05a258610ebb610a43565b6000610857838361134e565b6000610447826113da565b6111d7610d2683610534565b6105e4576040517f08c379a000000000000000000000000000000000000000000000000000000000815260040161050590611a3f565b60006108578373ffffffffffffffffffffffffffffffffffffffff84166113de565b611239828261085e565b6105ee5760008281526020818152604080832073ffffffffffffffffffffffffffffffffffffffff85168452909152902080547fffffffffffffffffffffffffffffffffffffffffffffffffffffffffffffff0016600117905561129b610a43565b73ffffffffffffffffffffffffffffffffffffffff168173ffffffffffffffffffffffffffffffffffffffff16837f2f8788117e7eff1d82e926ec794901d17c78024a50270940304540a733656f0d60405160405180910390a45050565b60006113058383611546565b61133b57508154600181810184556000848152602080822090930184905584548482528286019093526040902091909155610447565b506000610447565b61056e83838361155e565b8154600090821061138b576040517f08c379a00000000000000000000000000000000000000000000000000000000081526004016105059061177d565b8260000182815481106113c7577f4e487b7100000000000000000000000000000000000000000000000000000000600052603260045260246000fd5b9060005260206000200154905092915050565b5490565b6000818152600183016020526040812054801561153c576000611402600183611ed2565b855490915060009061141690600190611ed2565b90506000866000018281548110611456577f4e487b7100000000000000000000000000000000000000000000000000000000600052603260045260246000fd5b90600052602060002001549050808760000184815481106114a0577f4e487b7100000000000000000000000000000000000000000000000000000000600052603260045260246000fd5b6000918252602090912001556114b7836001611eba565b60008281526001890160205260409020558654879080611500577f4e487b7100000000000000000000000000000000000000000000000000000000600052603160045260246000fd5b60019003818190600052602060002001600090559055866001016000878152602001908152602001600020600090556001945050505050610447565b6000915050610447565b60009081526001919091016020526040902054151590565b61156983838361056e565b61157161073a565b1561056e576040517f08c379a000000000000000000000000000000000000000000000000000000000815260040161050590611e4f565b803573ffffffffffffffffffffffffffffffffffffffff8116811461054757600080fd5b6000602082840312156115dd578081fd5b610857826115a8565b600080604083850312156115f8578081fd5b611601836115a8565b915061160f602084016115a8565b90509250929050565b60008060006060848603121561162c578081fd5b611635846115a8565b9250611643602085016115a8565b9150604084013590509250925092565b60008060408385031215611665578182fd5b61166e836115a8565b946020939093013593505050565b60006020828403121561168d578081fd5b5035919050565b600080604083850312156116a6578182fd5b8235915061160f602084016115a8565b600080604083850312156116c8578182fd5b50508035926020909101359150565b73ffffffffffffffffffffffffffffffffffffffff91909116815260200190565b901515815260200190565b90815260200190565b6000602080835283518082850152825b818110156117385785810183015185820160400152820161171c565b818111156117495783604083870101525b50601f017fffffffffffffffffffffffffffffffffffffffffffffffffffffffffffffffe016929092016040019392505050565b60208082526022908201527f456e756d657261626c655365743a20696e646578206f7574206f6620626f756e60408201527f6473000000000000000000000000000000000000000000000000000000000000606082015260800190565b60208082526023908201527f45524332303a207472616e7366657220746f20746865207a65726f206164647260408201527f6573730000000000000000000000000000000000000000000000000000000000606082015260800190565b6020808252602f908201527f416363657373436f6e74726f6c3a2073656e646572206d75737420626520616e60408201527f2061646d696e20746f206772616e740000000000000000000000000000000000606082015260800190565b60208082526014908201527f5061757361626c653a206e6f7420706175736564000000000000000000000000604082015260600190565b60208082526022908201527f45524332303a206275726e20616d6f756e7420657863656564732062616c616e60408201527f6365000000000000000000000000000000000000000000000000000000000000606082015260800190565b60208082526039908201527f45524332305072657365744d696e7465725061757365723a206d75737420686160408201527f76652070617573657220726f6c6520746f20756e706175736500000000000000606082015260800190565b60208082526022908201527f45524332303a20617070726f766520746f20746865207a65726f20616464726560408201527f7373000000000000000000000000000000000000000000000000000000000000606082015260800190565b60208082526026908201527f45524332303a207472616e7366657220616d6f756e742065786365656473206260408201527f616c616e63650000000000000000000000000000000000000000000000000000606082015260800190565b60208082526030908201527f416363657373436f6e74726f6c3a2073656e646572206d75737420626520616e60408201527f2061646d696e20746f207265766f6b6500000000000000000000000000000000606082015260800190565b60208082526010908201527f5061757361626c653a2070617573656400000000000000000000000000000000604082015260600190565b60208082526028908201527f45524332303a207472616e7366657220616d6f756e742065786365656473206160408201527f6c6c6f77616e6365000000000000000000000000000000000000000000000000606082015260800190565b60208082526036908201527f45524332305072657365744d696e7465725061757365723a206d75737420686160408201527f7665206d696e74657220726f6c6520746f206d696e7400000000000000000000606082015260800190565b60208082526024908201527f45524332303a206275726e20616d6f756e74206578636565647320616c6c6f7760408201527f616e636500000000000000000000000000000000000000000000000000000000606082015260800190565b60208082526021908201527f45524332303a206275726e2066726f6d20746865207a65726f2061646472657360408201527f7300000000000000000000000000000000000000000000000000000000000000606082015260800190565b60208082526025908201527f45524332303a207472616e736665722066726f6d20746865207a65726f20616460408201527f6472657373000000000000000000000000000000000000000000000000000000606082015260800190565b60208082526024908201527f45524332303a20617070726f76652066726f6d20746865207a65726f2061646460408201527f7265737300000000000000000000000000000000000000000000000000000000606082015260800190565b60208082526037908201527f45524332305072657365744d696e7465725061757365723a206d75737420686160408201527f76652070617573657220726f6c6520746f207061757365000000000000000000606082015260800190565b60208082526025908201527f45524332303a2064656372656173656420616c6c6f77616e63652062656c6f7760408201527f207a65726f000000000000000000000000000000000000000000000000000000606082015260800190565b6020808252602f908201527f416363657373436f6e74726f6c3a2063616e206f6e6c792072656e6f756e636560408201527f20726f6c657320666f722073656c660000000000000000000000000000000000606082015260800190565b6020808252601f908201527f45524332303a206d696e7420746f20746865207a65726f206164647265737300604082015260600190565b6020808252602a908201527f45524332305061757361626c653a20746f6b656e207472616e7366657220776860408201527f696c652070617573656400000000000000000000000000000000000000000000606082015260800190565b60ff91909116815260200190565b60008219821115611ecd57611ecd611f3d565b500190565b600082821015611ee457611ee4611f3d565b500390565b600281046001821680611efd57607f821691505b60208210811415611f37577f4e487b7100000000000000000000000000000000000000000000000000000000600052602260045260246000fd5b50919050565b7f4e487b7100000000000000000000000000000000000000000000000000000000600052601160045260246000fdfea2646970667358221220d2118cc61289e300d9a7c10709184500480d92f81f0d29148bbfca08095c5cef64736f6c6343000801003360806040526001600d553480156200001657600080fd5b5060405162001c1a38038062001c1a83398101604081905262000039916200011b565b600080546001600160a01b0319166001600160a01b0383161781556200005e620000fa565b600380546001600160a01b0319166001600160a01b038316908117909155604051919250906000907f8be0079c531659141344cd1fd0a4f28419497f9722a3daafe3b4186f6b6457e0908290a350600480546001600160a01b0319166001600160a01b038516179055620000db82670de0b6b3a76400006200017c565b600555620000ed62015180426200015b565b60065550620001a8915050565b3390565b80516001600160a01b03811681146200011657600080fd5b919050565b60008060006060848603121562000130578283fd5b6200013b84620000fe565b9250602084015191506200015260408501620000fe565b90509250925092565b6000826200017757634e487b7160e01b81526012600452602481fd5b500490565b6000816000190483118215151615620001a357634e487b7160e01b81526011600452602481fd5b500290565b611a6280620001b86000396000f3fe608060405234801561001057600080fd5b50600436106102dd5760003560e01c806381ca660011610186578063b4481652116100e3578063cacf8d4511610097578063eb3b6cec11610071578063eb3b6cec14610518578063f2fde38b1461052b578063f54280871461053e576102dd565b8063cacf8d45146104f5578063d56b1054146104fd578063d5d7ed7f14610510576102dd565b8063c63f5ab7116100c8578063c63f5ab7146104c7578063c6de9d5d146104da578063c76139d0146104ed576102dd565b8063b448165214610494578063c34316c3146104a7576102dd565b8063a0098d691161013a578063a888c2cd1161011f578063a888c2cd14610462578063a94c7c3414610484578063a9cc05361461048c576102dd565b8063a0098d6914610447578063a80167111461044f576102dd565b80638da5cb5b1161016b5780638da5cb5b14610424578063982390231461042c578063a0021cf11461043f576102dd565b806381ca66001461041457806383a49c7c1461041c576102dd565b8063392f5f641161023f5780635c275a39116101f35780636cd5cd60116101cd5780636cd5cd60146103e6578063715018a6146103f95780637fad8a1814610401576102dd565b80635c275a39146103ce57806366941984146103d6578063678337f8146103de576102dd565b806346b887961161022457806346b88796146103ab57806348fb27b8146103b3578063583d8616146103bb576102dd565b8063392f5f6414610383578063430c39e414610398576102dd565b80631bc5d81d116102965780632a0acc6a1161027b5780632a0acc6a1461036b5780632fe94def1461037357806332fe7b261461037b576102dd565b80631bc5d81d1461035057806320e8d81914610358576102dd565b806317eef6f3116102c757806317eef6f31461032057806318e843b71461032857806319f51afb1461033b576102dd565b8062fae52b146102e2578063065d570f1461030b575b600080fd5b6102f56102f0366004611579565b610551565b60405161030291906118c8565b60405180910390f35b610313610563565b604051610302919061188f565b6102f5610568565b6102f5610336366004611579565b61056e565b61034e6103493660046115d1565b610580565b005b610313610653565b61034e61036636600461152b565b610658565b610313610769565b61031361076e565b610313610773565b61038b610778565b604051610302919061162c565b61034e6103a63660046115d1565b610794565b61031361084a565b61031361084f565b6102f56103c9366004611593565b610854565b610313610996565b61031361099b565b6102f56109a0565b61034e6103f4366004611511565b6109a6565b61034e610aa5565b6102f561040f366004611579565b610b87565b610313610b99565b610313610b9e565b61038b610ba3565b6102f561043a3660046115d1565b610bbf565b6102f5610bd8565b610313610bde565b61034e61045d3660046115fa565b610be3565b610475610470366004611561565b610c8a565b604051610302939291906118d1565b610313610cc1565b610313610cc6565b61038b6104a2366004611511565b610ccb565b6104ba6104b53660046114bd565b610cf3565b604051610302919061167e565b6102f56104d5366004611579565b610d13565b61034e6104e83660046115d1565b610d25565b610313610dc7565b610313610dcc565b6102f561050b3660046115d1565b610dd1565b610313610e3b565b61034e610526366004611579565b610e40565b61034e610539366004611485565b610e4c565b61034e61054c3660046115fa565b610f9a565b60096020526000908152604090205481565b600381565b60055481565b60076020526000908152604090205481565b610588611076565b73ffffffffffffffffffffffffffffffffffffffff166105a6610ba3565b73ffffffffffffffffffffffffffffffffffffffff16146105fc576040517f08c379a00000000000000000000000000000000000000000000000000000000081526004016105f390611743565b60405180910390fd5b60ff82166000908152600a6020526040902054610645576040517f08c379a00000000000000000000000000000000000000000000000000000000081526004016105f3906117d5565b61064f828261107a565b5050565b600881565b6000546040517fd87fefd200000000000000000000000000000000000000000000000000000000815273ffffffffffffffffffffffffffffffffffffffff9091169063d87fefd2906106b0908590859060040161189e565b60206040518083038186803b1580156106c857600080fd5b505afa1580156106dc573d6000803e3d6000fd5b505050506040513d601f19601f8201168201806040525081019061070091906114f1565b73ffffffffffffffffffffffffffffffffffffffff909116600090815260026020908152604080832061ffff90951683529390529190912080549115157fffffffffffffffffffffffffffffffffffffffffffffffffffffffffffffff00909216919091179055565b606b81565b606981565b606781565b60005473ffffffffffffffffffffffffffffffffffffffff1681565b61079c611076565b73ffffffffffffffffffffffffffffffffffffffff166107ba610ba3565b73ffffffffffffffffffffffffffffffffffffffff1614610807576040517f08c379a00000000000000000000000000000000000000000000000000000000081526004016105f390611743565b610811828261107a565b61081d61384042611915565b60ff9092166000908152600a6020908152604080832094909455600b905291909120640100000000905550565b600681565b606681565b600061085f33611118565b610895576040517f08c379a00000000000000000000000000000000000000000000000000000000081526004016105f390611778565b6005541561098b576108a684611153565b60ff8416600090815260096020526040812080548492906108c89084906118fd565b90915550506040805160608101825260ff86166000908152600b602090815283822054835273ffffffffffffffffffffffffffffffffffffffff878116828501908152848601888152600d80548652600c9094529584209451855551600180860180547fffffffffffffffffffffffff0000000000000000000000000000000000000000169290931691909117909155935160029093019290925581546109709084906118fd565b9091555050600d546109849060019061198b565b905061098f565b5060005b9392505050565b606581565b600181565b60085481565b6000546040517f3c9c8f9c00000000000000000000000000000000000000000000000000000000815273ffffffffffffffffffffffffffffffffffffffff90911690633c9c8f9c906109fc90849060040161188f565b60206040518083038186803b158015610a1457600080fd5b505afa158015610a28573d6000803e3d6000fd5b505050506040513d601f19601f82011682018060405250810190610a4c91906114a1565b61ffff91909116600090815260016020526040902080547fffffffffffffffffffffffff00000000000000000000000000000000000000001673ffffffffffffffffffffffffffffffffffffffff909216919091179055565b610aad611076565b73ffffffffffffffffffffffffffffffffffffffff16610acb610ba3565b73ffffffffffffffffffffffffffffffffffffffff1614610b18576040517f08c379a00000000000000000000000000000000000000000000000000000000081526004016105f390611743565b60035460405160009173ffffffffffffffffffffffffffffffffffffffff16907f8be0079c531659141344cd1fd0a4f28419497f9722a3daafe3b4186f6b6457e0908390a3600380547fffffffffffffffffffffffff0000000000000000000000000000000000000000169055565b600b6020526000908152604090205481565b606a81565b600981565b60035473ffffffffffffffffffffffffffffffffffffffff1690565b6000818152600c6020526040812061098f9084906111e5565b600d5481565b600281565b610bec33611118565b610c22576040517f08c379a00000000000000000000000000000000000000000000000000000000081526004016105f390611778565b610c2b83611153565b60ff831660009081526009602052604081208054839290610c4d90849061198b565b90915550506000828152600c60205260409020610c6a8482611226565b5081816002016000828254610c7f919061198b565b909155505050505050565b600c60205260009081526040902080546001820154600290920154909173ffffffffffffffffffffffffffffffffffffffff169083565b600581565b606881565b60016020526000908152604090205473ffffffffffffffffffffffffffffffffffffffff1681565b600260209081526000928352604080842090915290825290205460ff1681565b600a6020526000908152604090205481565b610d2e33611118565b610d64576040517f08c379a00000000000000000000000000000000000000000000000000000000081526004016105f390611778565b610d6d82611153565b6000818152600c60205260409020805415610dc257610d8c8382611226565b506001810180547fffffffffffffffffffffffff0000000000000000000000000000000000000000169055600080825560028201555b505050565b606c81565b600481565b6000610ddc33611118565b610e12576040517f08c379a00000000000000000000000000000000000000000000000000000000081526004016105f390611778565b610e1b83611153565b6000828152600c60205260409020610e338482611226565b949350505050565b600781565b610e4981611153565b50565b610e54611076565b73ffffffffffffffffffffffffffffffffffffffff16610e72610ba3565b73ffffffffffffffffffffffffffffffffffffffff1614610ebf576040517f08c379a00000000000000000000000000000000000000000000000000000000081526004016105f390611743565b73ffffffffffffffffffffffffffffffffffffffff8116610f0c576040517f08c379a00000000000000000000000000000000000000000000000000000000081526004016105f390611689565b60035460405173ffffffffffffffffffffffffffffffffffffffff8084169216907f8be0079c531659141344cd1fd0a4f28419497f9722a3daafe3b4186f6b6457e090600090a3600380547fffffffffffffffffffffffff00000000000000000000000000000000000000001673ffffffffffffffffffffffffffffffffffffffff92909216919091179055565b610fa333611118565b610fd9576040517f08c379a00000000000000000000000000000000000000000000000000000000081526004016105f390611778565b60055415610dc257610fea83611153565b60ff83166000908152600960205260408120805483929061100c9084906118fd565b90915550506000828152600c602052604090208054611057576040517f08c379a00000000000000000000000000000000000000000000000000000000081526004016105f3906116e6565b6110618482611226565b5081816002016000828254610c7f91906118fd565b3390565b60ff82166000908152600760205260409020548111156110cd5760ff82166000908152600760205260409020546110b1908261198b565b600860008282546110c291906118fd565b909155506111029050565b60ff82166000908152600760205260409020546110eb90829061198b565b600860008282546110fc919061198b565b90915550505b60ff909116600090815260076020526040902055565b73ffffffffffffffffffffffffffffffffffffffff811660009081526002602090815260408083206008845290915290205460ff165b919050565b600061116161384042611915565b905061116b61133e565b60ff82166000908152600a602052604081205490611189828461198b565b905080156111cd578061119b856113a5565b6111a5919061194e565b60ff85166000908152600b6020526040812080549091906111c79084906118fd565b90915550505b505060ff9091166000908152600a6020526040902055565b805460ff83166000908152600b602052604081205490916401000000009161120d919061198b565b836002015461121c919061194e565b61098f9190611915565b600061123283836111e5565b905061123c61141d565b6004805460018501546040517fd9caed1200000000000000000000000000000000000000000000000000000000815273ffffffffffffffffffffffffffffffffffffffff9485169463d9caed129461129d948216939091169187910161164d565b602060405180830381600087803b1580156112b757600080fd5b505af11580156112cb573d6000803e3d6000fd5b505050506040513d601f19601f820116820180604052508101906112ef91906114f1565b611325576040517f08c379a00000000000000000000000000000000000000000000000000000000081526004016105f390611832565b60ff9092166000908152600b6020526040902054905590565b600061134d6201518042611915565b905060006006548261135f919061198b565b905060005b8181101561139e576103e86103e760055461137f919061194e565b6113899190611915565b60055580611396816119a2565b915050611364565b5050600655565b6000806113b761384062015180611915565b60085460ff85166000908152600760205260409020546005546113df9064010000000061194e565b6113e9919061194e565b6113f39190611915565b6113fd9190611915565b60ff841660009081526009602052604090205490915061098f9082611915565b606560005260016020527f6def5a300acb6fcaa0dab3a41e9d6457b5147a641e641380f8cc4bf5308b16fe5473ffffffffffffffffffffffffffffffffffffffff1690565b803561ffff8116811461114e57600080fd5b803560ff8116811461114e57600080fd5b600060208284031215611496578081fd5b813561098f81611a0a565b6000602082840312156114b2578081fd5b815161098f81611a0a565b600080604083850312156114cf578081fd5b82356114da81611a0a565b91506114e860208401611462565b90509250929050565b600060208284031215611502578081fd5b8151801515811461098f578182fd5b600060208284031215611522578081fd5b61098f82611462565b6000806040838503121561153d578182fd5b61154683611462565b9150602083013561155681611a0a565b809150509250929050565b600060208284031215611572578081fd5b5035919050565b60006020828403121561158a578081fd5b61098f82611474565b6000806000606084860312156115a7578081fd5b6115b084611474565b925060208401356115c081611a0a565b929592945050506040919091013590565b600080604083850312156115e3578182fd5b6115ec83611474565b946020939093013593505050565b60008060006060848603121561160e578283fd5b61161784611474565b95602085013595506040909401359392505050565b73ffffffffffffffffffffffffffffffffffffffff91909116815260200190565b73ffffffffffffffffffffffffffffffffffffffff9384168152919092166020820152604081019190915260600190565b901515815260200190565b60208082526026908201527f4f776e61626c653a206e6577206f776e657220697320746865207a65726f206160408201527f6464726573730000000000000000000000000000000000000000000000000000606082015260800190565b60208082526023908201527f547279696e6720746f2061646420746f206e6f6e2d6578697374616e7420636c60408201527f61696d0000000000000000000000000000000000000000000000000000000000606082015260800190565b6020808252818101527f4f776e61626c653a2063616c6c6572206973206e6f7420746865206f776e6572604082015260600190565b6020808252602c908201527f436f6e7472616374206e6f7420617574686f72697a656420746f207265706f7260408201527f7420696e63656e74697665730000000000000000000000000000000000000000606082015260800190565b60208082526033908201527f5472616e636865206973206e6f7420696e697469616c697a65642c20706c656160408201527f736520696e697469616c697a6520666972737400000000000000000000000000606082015260800190565b60208082526036908201527f5468657265207365656d7320746f2062652061206c61636b206f66204d46492060408201527f696e2074686520696e63656e746976652066756e642100000000000000000000606082015260800190565b61ffff91909116815260200190565b61ffff92909216825273ffffffffffffffffffffffffffffffffffffffff16602082015260400190565b90815260200190565b92835273ffffffffffffffffffffffffffffffffffffffff919091166020830152604082015260600190565b60008219821115611910576119106119db565b500190565b600082611949577f4e487b710000000000000000000000000000000000000000000000000000000081526012600452602481fd5b500490565b6000817fffffffffffffffffffffffffffffffffffffffffffffffffffffffffffffffff0483118215151615611986576119866119db565b500290565b60008282101561199d5761199d6119db565b500390565b60007fffffffffffffffffffffffffffffffffffffffffffffffffffffffffffffffff8214156119d4576119d46119db565b5060010190565b7f4e487b7100000000000000000000000000000000000000000000000000000000600052601160045260246000fd5b73ffffffffffffffffffffffffffffffffffffffff81168114610e4957600080fdfea2646970667358221220859115251f8cf36939e9daccfde6893f4ac9c0d4c051950eddfa3125e4ccb03264736f6c63430008010033608060405234801561001057600080fd5b506040516112f73803806112f783398101604081905261002f916100db565b60006100396100bb565b600080546001600160a01b0319166001600160a01b0383169081178255604051929350917f8be0079c531659141344cd1fd0a4f28419497f9722a3daafe3b4186f6b6457e0908290a350600480546001600160a01b039485166001600160a01b0319918216179091556001805493909416921691909117909155600555610116565b3390565b80516001600160a01b03811681146100d657600080fd5b919050565b6000806000606084860312156100ef578283fd5b6100f8846100bf565b9250610106602085016100bf565b9150604084015190509250925092565b6111d2806101256000396000f3fe608060405234801561001057600080fd5b50600436106100c95760003560e01c8063c1a3b9fa11610081578063dc5c66f91161005b578063dc5c66f914610154578063e5afa56614610167578063f2fde38b1461017a576100c9565b8063c1a3b9fa14610124578063c885bc5814610139578063cb82cc8f14610141576100c9565b806351ed6a30116100b257806351ed6a30146100f6578063715018a6146101145780638da5cb5b1461011c576100c9565b806325d5971f146100ce5780634176edfa146100e3575b600080fd5b6100e16100dc366004610d36565b61018d565b005b6100e16100f1366004610ce2565b610371565b6100fe61042b565b60405161010b9190610d82565b60405180910390f35b6100e1610447565b6100fe610529565b61012c610545565b60405161010b9190611109565b61012c61054b565b6100e161014f366004610d36565b610642565b61012c610162366004610ce2565b610877565b61012c610175366004610ce2565b610889565b6100e1610188366004610ce2565b61089b565b33600090815260036020526040902054818110156101e0576040517f08c379a00000000000000000000000000000000000000000000000000000000081526004016101d790610eaa565b60405180910390fd5b6001546102049073ffffffffffffffffffffffffffffffffffffffff1633846109e8565b61020e828261112a565b33600090815260036020526040902055808214156102d35760048054336000908152600260205260408082205490517fc6de9d5d00000000000000000000000000000000000000000000000000000000815273ffffffffffffffffffffffffffffffffffffffff9093169363c6de9d5d9361028b93929101610e2b565b600060405180830381600087803b1580156102a557600080fd5b505af11580156102b9573d6000803e3d6000fd5b5050336000908152600260205260408120555061036d9050565b60048054336000908152600260205260408082205490517fa801671100000000000000000000000000000000000000000000000000000000815273ffffffffffffffffffffffffffffffffffffffff9093169363a80167119361033a939291889101610e3e565b600060405180830381600087803b15801561035457600080fd5b505af1158015610368573d6000803e3d6000fd5b505050505b5050565b610379610a8e565b73ffffffffffffffffffffffffffffffffffffffff16610397610529565b73ffffffffffffffffffffffffffffffffffffffff16146103e4576040517f08c379a00000000000000000000000000000000000000000000000000000000081526004016101d790611009565b600480547fffffffffffffffffffffffff00000000000000000000000000000000000000001673ffffffffffffffffffffffffffffffffffffffff92909216919091179055565b60015473ffffffffffffffffffffffffffffffffffffffff1681565b61044f610a8e565b73ffffffffffffffffffffffffffffffffffffffff1661046d610529565b73ffffffffffffffffffffffffffffffffffffffff16146104ba576040517f08c379a00000000000000000000000000000000000000000000000000000000081526004016101d790611009565b6000805460405173ffffffffffffffffffffffffffffffffffffffff909116907f8be0079c531659141344cd1fd0a4f28419497f9722a3daafe3b4186f6b6457e0908390a3600080547fffffffffffffffffffffffff0000000000000000000000000000000000000000169055565b60005473ffffffffffffffffffffffffffffffffffffffff1690565b60055481565b3360009081526002602052604081205480610592576040517f08c379a00000000000000000000000000000000000000000000000000000000081526004016101d790610fd2565b600480546040517fd56b105400000000000000000000000000000000000000000000000000000000815273ffffffffffffffffffffffffffffffffffffffff9091169163d56b1054916105ea91600091869101610e2b565b602060405180830381600087803b15801561060457600080fd5b505af1158015610618573d6000803e3d6000fd5b505050506040513d601f19601f8201168201806040525081019061063c9190610d4e565b91505090565b600554421161067d576040517f08c379a00000000000000000000000000000000000000000000000000000000081526004016101d790610f3e565b6001546106a29073ffffffffffffffffffffffffffffffffffffffff16333084610a92565b33600090815260026020526040902054156107555760048054336000908152600260205260408082205490517ff542808700000000000000000000000000000000000000000000000000000000815273ffffffffffffffffffffffffffffffffffffffff9093169363f54280879361071e939291879101610e3e565b600060405180830381600087803b15801561073857600080fd5b505af115801561074c573d6000803e3d6000fd5b50505050610850565b600480546040517f583d861600000000000000000000000000000000000000000000000000000000815260009273ffffffffffffffffffffffffffffffffffffffff9092169163583d8616916107b19185913391889101610dfa565b602060405180830381600087803b1580156107cb57600080fd5b505af11580156107df573d6000803e3d6000fd5b505050506040513d601f19601f820116820180604052508101906108039190610d4e565b33600090815260026020526040902081905590508061084e576040517f08c379a00000000000000000000000000000000000000000000000000000000081526004016101d79061103e565b505b336000908152600360205260408120805483929061086f908490611112565b909155505050565b60026020526000908152604090205481565b60036020526000908152604090205481565b6108a3610a8e565b73ffffffffffffffffffffffffffffffffffffffff166108c1610529565b73ffffffffffffffffffffffffffffffffffffffff161461090e576040517f08c379a00000000000000000000000000000000000000000000000000000000081526004016101d790611009565b73ffffffffffffffffffffffffffffffffffffffff811661095b576040517f08c379a00000000000000000000000000000000000000000000000000000000081526004016101d790610ee1565b6000805460405173ffffffffffffffffffffffffffffffffffffffff808516939216917f8be0079c531659141344cd1fd0a4f28419497f9722a3daafe3b4186f6b6457e091a3600080547fffffffffffffffffffffffff00000000000000000000000000000000000000001673ffffffffffffffffffffffffffffffffffffffff92909216919091179055565b610a898363a9059cbb60e01b8484604051602401610a07929190610dd4565b604080517fffffffffffffffffffffffffffffffffffffffffffffffffffffffffffffffe08184030181529190526020810180517bffffffffffffffffffffffffffffffffffffffffffffffffffffffff167fffffffff0000000000000000000000000000000000000000000000000000000090931692909217909152610ab9565b505050565b3390565b610ab3846323b872dd60e01b858585604051602401610a0793929190610da3565b50505050565b6000610b1b826040518060400160405280602081526020017f5361666545524332303a206c6f772d6c6576656c2063616c6c206661696c65648152508573ffffffffffffffffffffffffffffffffffffffff16610b6f9092919063ffffffff16565b805190915015610a895780806020019051810190610b399190610d16565b610a89576040517f08c379a00000000000000000000000000000000000000000000000000000000081526004016101d7906110ac565b6060610b7e8484600085610b88565b90505b9392505050565b606082471015610bc4576040517f08c379a00000000000000000000000000000000000000000000000000000000081526004016101d790610f75565b610bcd85610c89565b610c03576040517f08c379a00000000000000000000000000000000000000000000000000000000081526004016101d790611075565b6000808673ffffffffffffffffffffffffffffffffffffffff168587604051610c2c9190610d66565b60006040518083038185875af1925050503d8060008114610c69576040519150601f19603f3d011682016040523d82523d6000602084013e610c6e565b606091505b5091509150610c7e828286610c8f565b979650505050505050565b3b151590565b60608315610c9e575081610b81565b825115610cae5782518084602001fd5b816040517f08c379a00000000000000000000000000000000000000000000000000000000081526004016101d79190610e59565b600060208284031215610cf3578081fd5b813573ffffffffffffffffffffffffffffffffffffffff81168114610b81578182fd5b600060208284031215610d27578081fd5b81518015158114610b81578182fd5b600060208284031215610d47578081fd5b5035919050565b600060208284031215610d5f578081fd5b5051919050565b60008251610d78818460208701611141565b9190910192915050565b73ffffffffffffffffffffffffffffffffffffffff91909116815260200190565b73ffffffffffffffffffffffffffffffffffffffff9384168152919092166020820152604081019190915260600190565b73ffffffffffffffffffffffffffffffffffffffff929092168252602082015260400190565b60ff93909316835273ffffffffffffffffffffffffffffffffffffffff919091166020830152604082015260600190565b60ff929092168252602082015260400190565b60ff9390931683526020830191909152604082015260600190565b6000602082528251806020840152610e78816040850160208701611141565b601f017fffffffffffffffffffffffffffffffffffffffffffffffffffffffffffffffe0169190910160400192915050565b6020808252601c908201527f4e6f7420656e6f756768207374616b6520746f20776974686472617700000000604082015260600190565b60208082526026908201527f4f776e61626c653a206e6577206f776e657220697320746865207a65726f206160408201527f6464726573730000000000000000000000000000000000000000000000000000606082015260800190565b6020808252601c908201527f496e63656e74697665206861736e277420737461727465642079657400000000604082015260600190565b60208082526026908201527f416464726573733a20696e73756666696369656e742062616c616e636520666f60408201527f722063616c6c0000000000000000000000000000000000000000000000000000606082015260800190565b60208082526013908201527f4e6f207265676973746572656420636c61696d00000000000000000000000000604082015260600190565b6020808252818101527f4f776e61626c653a2063616c6c6572206973206e6f7420746865206f776e6572604082015260600190565b6020808252601e908201527f446973747269627574696f6e206973206f766572206f72207061757365640000604082015260600190565b6020808252601d908201527f416464726573733a2063616c6c20746f206e6f6e2d636f6e7472616374000000604082015260600190565b6020808252602a908201527f5361666545524332303a204552433230206f7065726174696f6e20646964206e60408201527f6f74207375636365656400000000000000000000000000000000000000000000606082015260800190565b90815260200190565b600082198211156111255761112561116d565b500190565b60008282101561113c5761113c61116d565b500390565b60005b8381101561115c578181015183820152602001611144565b83811115610ab35750506000910152565b7f4e487b7100000000000000000000000000000000000000000000000000000000600052601160045260246000fdfea26469706673582212205a6a0e55a3b4bab5c9d79bcfe13511e6c7b896efc05335e2359fe9ac8ac56d9f64736f6c63430008010033",
  "linkReferences": {},
  "deployedLinkReferences": {}
}