{
  "_format": "hh-sol-artifact-1",
  "contractName": "LiquidityMiningRewardTest",
  "sourceName": "contracts/tests/LiquidityMiningRewardTest.sol",
  "abi": [
    {
      "inputs": [],
      "stateMutability": "nonpayable",
      "type": "constructor"
    },
    {
      "inputs": [],
      "name": "AUTHORIZED_FUND_TRADER",
      "outputs": [
        {
          "internalType": "uint16",
          "name": "",
          "type": "uint16"
        }
      ],
      "stateMutability": "view",
      "type": "function"
    },
    {
      "inputs": [],
      "name": "BORROWER",
      "outputs": [
        {
          "internalType": "uint16",
          "name": "",
          "type": "uint16"
        }
      ],
      "stateMutability": "view",
      "type": "function"
    },
    {
      "inputs": [],
      "name": "FEE_CONTROLLER",
      "outputs": [
        {
          "internalType": "uint16",
          "name": "",
          "type": "uint16"
        }
      ],
      "stateMutability": "view",
      "type": "function"
    },
    {
      "inputs": [],
      "name": "FEE_SOURCE",
      "outputs": [
        {
          "internalType": "uint16",
          "name": "",
          "type": "uint16"
        }
      ],
      "stateMutability": "view",
      "type": "function"
    },
    {
      "inputs": [],
      "name": "FUND",
      "outputs": [
        {
          "internalType": "uint16",
          "name": "",
          "type": "uint16"
        }
      ],
      "stateMutability": "view",
      "type": "function"
    },
    {
      "inputs": [],
      "name": "INCENTIVE_REPORTER",
      "outputs": [
        {
          "internalType": "uint16",
          "name": "",
          "type": "uint16"
        }
      ],
      "stateMutability": "view",
      "type": "function"
    },
    {
      "inputs": [],
      "name": "LENDING",
      "outputs": [
        {
          "internalType": "uint16",
          "name": "",
          "type": "uint16"
        }
      ],
      "stateMutability": "view",
      "type": "function"
    },
    {
      "inputs": [],
      "name": "LIQUIDATOR",
      "outputs": [
        {
          "internalType": "uint16",
          "name": "",
          "type": "uint16"
        }
      ],
      "stateMutability": "view",
      "type": "function"
    },
    {
      "inputs": [],
      "name": "MARGIN_CALLER",
      "outputs": [
        {
          "internalType": "uint16",
          "name": "",
          "type": "uint16"
        }
      ],
      "stateMutability": "view",
      "type": "function"
    },
    {
      "inputs": [],
      "name": "MARGIN_TRADER",
      "outputs": [
        {
          "internalType": "uint16",
          "name": "",
          "type": "uint16"
        }
      ],
      "stateMutability": "view",
      "type": "function"
    },
    {
      "inputs": [],
      "name": "MARGIN_TRADING",
      "outputs": [
        {
          "internalType": "uint16",
          "name": "",
          "type": "uint16"
        }
      ],
      "stateMutability": "view",
      "type": "function"
    },
    {
      "inputs": [],
      "name": "PRICE_CONTROLLER",
      "outputs": [
        {
          "internalType": "uint16",
          "name": "",
          "type": "uint16"
        }
      ],
      "stateMutability": "view",
      "type": "function"
    },
    {
      "inputs": [],
      "name": "ROUTER",
      "outputs": [
        {
          "internalType": "uint16",
          "name": "",
          "type": "uint16"
        }
      ],
      "stateMutability": "view",
      "type": "function"
    },
    {
      "inputs": [],
      "name": "TOKEN_ACTIVATOR",
      "outputs": [
        {
          "internalType": "uint16",
          "name": "",
          "type": "uint16"
        }
      ],
      "stateMutability": "view",
      "type": "function"
    },
    {
      "inputs": [],
      "name": "WITHDRAWER",
      "outputs": [
        {
          "internalType": "uint16",
          "name": "",
          "type": "uint16"
        }
      ],
      "stateMutability": "view",
      "type": "function"
    },
    {
      "inputs": [],
      "name": "rewardBalance",
      "outputs": [
        {
          "internalType": "uint24",
          "name": "balance",
          "type": "uint24"
        }
      ],
      "stateMutability": "view",
      "type": "function"
    },
    {
      "inputs": [
        {
          "internalType": "uint256",
          "name": "amount",
          "type": "uint256"
        }
      ],
      "name": "stake",
      "outputs": [
        {
          "internalType": "uint256",
          "name": "stakeBalance",
          "type": "uint256"
        }
      ],
      "stateMutability": "nonpayable",
      "type": "function"
    },
    {
      "inputs": [],
      "name": "stakeAmount",
      "outputs": [
        {
          "internalType": "uint256",
          "name": "amount",
          "type": "uint256"
        }
      ],
      "stateMutability": "view",
      "type": "function"
    },
    {
      "inputs": [],
      "name": "updateReward",
      "outputs": [],
      "stateMutability": "nonpayable",
      "type": "function"
    },
    {
      "inputs": [
        {
          "internalType": "uint256",
          "name": "expectedReward",
          "type": "uint256"
        }
      ],
      "name": "withdrawReward",
      "outputs": [
        {
          "internalType": "uint256",
          "name": "stakeBalance",
          "type": "uint256"
        },
        {
          "internalType": "uint256",
          "name": "incentiveBalance",
          "type": "uint256"
        }
      ],
      "stateMutability": "nonpayable",
      "type": "function"
    },
    {
      "inputs": [
        {
          "internalType": "uint256",
          "name": "amount",
          "type": "uint256"
        }
      ],
      "name": "withdrawStake",
      "outputs": [
        {
          "internalType": "uint256",
          "name": "stakeBalance",
          "type": "uint256"
        },
        {
          "internalType": "uint256",
          "name": "incentiveBalance",
          "type": "uint256"
        }
      ],
      "stateMutability": "nonpayable",
      "type": "function"
    }
  ],
  "bytecode": "0x60806040523480156200001157600080fd5b5060006040516200002290620004f1565b604051809103906000f0801580156200003f573d6000803e3d6000fd5b509050600073c02aaa39b223fe8d0a0e5c4f27ead9083c756cc2826040516200006890620004ff565b620000759291906200054b565b604051809103906000f08015801562000092573d6000803e3d6000fd5b50604051637d71b8ef60e11b81529091506001600160a01b0383169063fae371de90620000c790606590859060040162000659565b600060405180830381600087803b158015620000e257600080fd5b505af1158015620000f7573d6000803e3d6000fd5b5050505060405162000109906200050d565b6200011490620005d8565b604051809103906000f08015801562000131573d6000803e3d6000fd5b50600180546001600160a01b0319166001600160a01b0392831617908190556040516340c10f1960e01b81529116906340c10f19906200018290849069152d02c7e14af68000009060040162000589565b600060405180830381600087803b1580156200019d57600080fd5b505af1158015620001b2573d6000803e3d6000fd5b505060015460405163068e716960e11b81526001600160a01b038086169450630d1ce2d29350620001e892169060040162000537565b600060405180830381600087803b1580156200020357600080fd5b505af115801562000218573d6000803e3d6000fd5b50506001546040516001600160a01b039091169250610fa0915084906200023f906200051b565b6200024d93929190620005a2565b604051809103906000f0801580156200026a573d6000803e3d6000fd5b50600380546001600160a01b0319166001600160a01b039283161790819055604051635b55041f60e11b81528483169263b6aa083e92620002b692600192919091169060040162000659565b600060405180830381600087803b158015620002d157600080fd5b505af1158015620002e6573d6000803e3d6000fd5b50506003546040516310c30e7960e21b81526001600160a01b03909116925063430c39e49150620003209060009060c890600401620005c5565b600060405180830381600087803b1580156200033b57600080fd5b505af115801562000350573d6000803e3d6000fd5b5050505060405162000362906200050d565b6200036d9062000619565b604051809103906000f0801580156200038a573d6000803e3d6000fd5b50600080546001600160a01b0319166001600160a01b0392831617908190556040516340c10f1960e01b81529116906340c10f1990620003db90309069043c33c19375648000009060040162000589565b600060405180830381600087803b158015620003f657600080fd5b505af11580156200040b573d6000803e3d6000fd5b50506003546000546001600160a01b0391821693501690506200043060014262000676565b6040516200043e9062000529565b6200044c9392919062000565565b604051809103906000f08015801562000469573d6000803e3d6000fd5b50600280546001600160a01b0319166001600160a01b039283161790819055604051635b55041f60e11b81528483169263b6aa083e92620004b592600892919091169060040162000659565b600060405180830381600087803b158015620004d057600080fd5b505af1158015620004e5573d6000803e3d6000fd5b5050505050506200069a565b610913806200156783390190565b61131b8062001e7a83390190565b612442806200319583390190565b61190c80620055d783390190565b6112f78062006ee383390190565b6001600160a01b0391909116815260200190565b6001600160a01b0392831681529116602082015260400190565b6001600160a01b039384168152919092166020820152604081019190915260600190565b6001600160a01b03929092168252602082015260400190565b6001600160a01b0393841681526020810192909252909116604082015260600190565b60ff929092168252602082015260400190565b6040808252600c908201526b2932bbb0b932102a37b5b2b760a11b60608201526080602082018190526003908201526252455760e81b60a082015260c00190565b6040808252600b908201526a29ba30b5b2902a37b5b2b760a91b60608201526080602082018190526003908201526253544b60e81b60a082015260c00190565b61ffff9290921682526001600160a01b0316602082015260400190565b6000828210156200069557634e487b7160e01b81526011600452602481fd5b500390565b610ebd80620006aa6000396000f3fe608060405234801561001057600080fd5b50600436106101775760003560e01c806366941984116100d8578063a94c7c341161008c578063cacf8d4511610066578063cacf8d451461026b578063d5d7ed7f14610273578063f36c0a721461027b57610177565b8063a94c7c3414610246578063a9cc05361461024e578063aa5c3ab41461025657610177565b806383a49c7c116100bd57806383a49c7c14610223578063a0098d691461022b578063a694fc3a1461023357610177565b8063669419841461021357806381ca66001461021b57610177565b806346b887961161012f578063523a3f0811610114578063523a3f08146101e35780635c275a39146101f657806360c7dc47146101fe57610177565b806346b88796146101d357806348fb27b8146101db57610177565b806325d5971f1161016057806325d5971f146101a25780632fe94def146101c357806332fe7b26146101cb57610177565b8063065d570f1461017c5780631bc5d81d1461019a575b600080fd5b610184610285565b6040516101919190610d95565b60405180910390f35b61018461028a565b6101b56101b0366004610c8f565b61028f565b604051610191929190610dbd565b610184610466565b61018461046b565b610184610470565b610184610475565b6101b56101f1366004610c8f565b61047a565b610184610781565b610206610786565b6040516101919190610db4565b610184610832565b610184610837565b61018461083c565b610184610841565b610206610241366004610c8f565b610846565b610184610b09565b610184610b0e565b61025e610b13565b6040516101919190610da4565b610184610bd3565b610184610bd8565b610283610bdd565b005b600381565b600881565b600254600090819073ffffffffffffffffffffffffffffffffffffffff166325d5971f6102c485670de0b6b3a7640000610e04565b6040518263ffffffff1660e01b81526004016102e09190610db4565b600060405180830381600087803b1580156102fa57600080fd5b505af115801561030e573d6000803e3d6000fd5b50506000546040517f70a0823100000000000000000000000000000000000000000000000000000000815273ffffffffffffffffffffffffffffffffffffffff90911692506370a082319150610368903090600401610cbf565b60206040518083038186803b15801561038057600080fd5b505afa158015610394573d6000803e3d6000fd5b505050506040513d601f19601f820116820180604052508101906103b89190610ca7565b6001546040517f70a0823100000000000000000000000000000000000000000000000000000000815291935073ffffffffffffffffffffffffffffffffffffffff16906370a082319061040f903090600401610cbf565b60206040518083038186803b15801561042757600080fd5b505afa15801561043b573d6000803e3d6000fd5b505050506040513d601f19601f8201168201806040525081019061045f9190610ca7565b9050915091565b606981565b606781565b600681565b606681565b6001546040517f70a082310000000000000000000000000000000000000000000000000000000081526000918291829173ffffffffffffffffffffffffffffffffffffffff16906370a08231906104d5903090600401610cbf565b60206040518083038186803b1580156104ed57600080fd5b505afa158015610501573d6000803e3d6000fd5b505050506040513d601f19601f820116820180604052508101906105259190610ca7565b9050600260009054906101000a900473ffffffffffffffffffffffffffffffffffffffff1673ffffffffffffffffffffffffffffffffffffffff1663c885bc586040518163ffffffff1660e01b8152600401602060405180830381600087803b15801561059157600080fd5b505af11580156105a5573d6000803e3d6000fd5b505050506040513d601f19601f820116820180604052508101906105c99190610ca7565b506000546040517f70a0823100000000000000000000000000000000000000000000000000000000815273ffffffffffffffffffffffffffffffffffffffff909116906370a0823190610620903090600401610cbf565b60206040518083038186803b15801561063857600080fd5b505afa15801561064c573d6000803e3d6000fd5b505050506040513d601f19601f820116820180604052508101906106709190610ca7565b6001546040517f70a0823100000000000000000000000000000000000000000000000000000000815291945073ffffffffffffffffffffffffffffffffffffffff16906370a08231906106c7903090600401610cbf565b60206040518083038186803b1580156106df57600080fd5b505afa1580156106f3573d6000803e3d6000fd5b505050506040513d601f19601f820116820180604052508101906107179190610ca7565b915060006107258284610e41565b905061073985670de0b6b3a7640000610e04565b811161077a576040517f08c379a000000000000000000000000000000000000000000000000000000000815260040161077190610d5e565b60405180910390fd5b5050915091565b606581565b6002546040517fe5afa56600000000000000000000000000000000000000000000000000000000815260009173ffffffffffffffffffffffffffffffffffffffff169063e5afa566906107dd903090600401610cbf565b60206040518083038186803b1580156107f557600080fd5b505afa158015610809573d6000803e3d6000fd5b505050506040513d601f19601f8201168201806040525081019061082d9190610ca7565b905090565b600181565b606a81565b600981565b600281565b6000805460025473ffffffffffffffffffffffffffffffffffffffff9182169163095ea7b3911661087f85670de0b6b3a7640000610e04565b6040518363ffffffff1660e01b815260040161089c929190610ce0565b602060405180830381600087803b1580156108b657600080fd5b505af11580156108ca573d6000803e3d6000fd5b505050506040513d601f19601f820116820180604052508101906108ee9190610c68565b5060025473ffffffffffffffffffffffffffffffffffffffff1663cb82cc8f61091f84670de0b6b3a7640000610e04565b6040518263ffffffff1660e01b815260040161093b9190610db4565b600060405180830381600087803b15801561095557600080fd5b505af1158015610969573d6000803e3d6000fd5b50506000546040517f70a0823100000000000000000000000000000000000000000000000000000000815273ffffffffffffffffffffffffffffffffffffffff90911692506370a0823191506109c3903090600401610cbf565b60206040518083038186803b1580156109db57600080fd5b505afa1580156109ef573d6000803e3d6000fd5b505050506040513d601f19601f82011682018060405250810190610a139190610ca7565b9050610a2782670de0b6b3a7640000610e04565b6002546040517fe5afa56600000000000000000000000000000000000000000000000000000000815273ffffffffffffffffffffffffffffffffffffffff9091169063e5afa56690610a7d903090600401610cbf565b60206040518083038186803b158015610a9557600080fd5b505afa158015610aa9573d6000803e3d6000fd5b505050506040513d601f19601f82011682018060405250810190610acd9190610ca7565b14610b04576040517f08c379a000000000000000000000000000000000000000000000000000000000815260040161077190610d27565b919050565b600581565b606881565b6003546040517f98239023000000000000000000000000000000000000000000000000000000008152600091670de0b6b3a76400009173ffffffffffffffffffffffffffffffffffffffff90911690639823902390610b79908590600190600401610d14565b60206040518083038186803b158015610b9157600080fd5b505afa158015610ba5573d6000803e3d6000fd5b505050506040513d601f19601f82011682018060405250810190610bc99190610ca7565b61082d9190610dcb565b600481565b600781565b6003546040517feb3b6cec00000000000000000000000000000000000000000000000000000000815273ffffffffffffffffffffffffffffffffffffffff9091169063eb3b6cec90610c3490600090600401610d06565b600060405180830381600087803b158015610c4e57600080fd5b505af1158015610c62573d6000803e3d6000fd5b50505050565b600060208284031215610c79578081fd5b81518015158114610c88578182fd5b9392505050565b600060208284031215610ca0578081fd5b5035919050565b600060208284031215610cb8578081fd5b5051919050565b73ffffffffffffffffffffffffffffffffffffffff91909116815260200190565b73ffffffffffffffffffffffffffffffffffffffff929092168252602082015260400190565b60ff91909116815260200190565b60ff929092168252602082015260400190565b60208082526016908201527f496e636f7272656374207374616b6520616d6f756e7400000000000000000000604082015260600190565b6020808252601a908201527f52657761726420646964206e6f742067726f7720656e6f756768000000000000604082015260600190565b61ffff91909116815260200190565b62ffffff91909116815260200190565b90815260200190565b918252602082015260400190565b600082610dff577f4e487b710000000000000000000000000000000000000000000000000000000081526012600452602481fd5b500490565b6000817fffffffffffffffffffffffffffffffffffffffffffffffffffffffffffffffff0483118215151615610e3c57610e3c610e58565b500290565b600082821015610e5357610e53610e58565b500390565b7f4e487b7100000000000000000000000000000000000000000000000000000000600052601160045260246000fdfea2646970667358221220b1b26d8a443b52fecadac083a098027dd0268ef4250512cdde9f9c290ed0740464736f6c63430008010033608060405234801561001057600080fd5b50600061001b610091565b600080546001600160a01b0319166001600160a01b0383169081178255604051929350917f8be0079c531659141344cd1fd0a4f28419497f9722a3daafe3b4186f6b6457e0908290a35033600090815260016020818152604080842060098552909152909120805460ff19169091179055610095565b3390565b61086f806100a46000396000f3fe608060405234801561001057600080fd5b50600436106100a35760003560e01c80639b44225b11610076578063d87fefd21161005b578063d87fefd214610129578063f2fde38b1461013c578063fae371de1461014f576100a3565b80639b44225b14610103578063b6aa083e14610116576100a3565b80633c9c8f9c146100a857806353b15901146100d1578063715018a6146100f15780638da5cb5b146100fb575b600080fd5b6100bb6100b6366004610738565b610162565b6040516100c8919061077b565b60405180910390f35b6100e46100df366004610706565b61018a565b6040516100c8919061079c565b6100f96101aa565b005b6100bb610295565b6100f9610111366004610752565b6102b1565b6100f9610124366004610752565b61037f565b6100e4610137366004610752565b610452565b6100f961014a3660046106e5565b61048d565b6100f961015d366004610752565b6105da565b60026020526000908152604090205473ffffffffffffffffffffffffffffffffffffffff1681565b600160209081526000928352604080842090915290825290205460ff1681565b6101b26106a6565b73ffffffffffffffffffffffffffffffffffffffff166101d0610295565b73ffffffffffffffffffffffffffffffffffffffff1614610226576040517f08c379a000000000000000000000000000000000000000000000000000000000815260040161021d90610804565b60405180910390fd5b6000805460405173ffffffffffffffffffffffffffffffffffffffff909116907f8be0079c531659141344cd1fd0a4f28419497f9722a3daafe3b4186f6b6457e0908390a3600080547fffffffffffffffffffffffff0000000000000000000000000000000000000000169055565b60005473ffffffffffffffffffffffffffffffffffffffff1690565b6102b96106a6565b73ffffffffffffffffffffffffffffffffffffffff166102d7610295565b73ffffffffffffffffffffffffffffffffffffffff1614610324576040517f08c379a000000000000000000000000000000000000000000000000000000000815260040161021d90610804565b73ffffffffffffffffffffffffffffffffffffffff16600090815260016020908152604080832061ffff90941683529290522080547fffffffffffffffffffffffffffffffffffffffffffffffffffffffffffffff00169055565b6103876106a6565b73ffffffffffffffffffffffffffffffffffffffff166103a5610295565b73ffffffffffffffffffffffffffffffffffffffff16146103f2576040517f08c379a000000000000000000000000000000000000000000000000000000000815260040161021d90610804565b73ffffffffffffffffffffffffffffffffffffffff16600090815260016020818152604080842061ffff909516845293905291902080547fffffffffffffffffffffffffffffffffffffffffffffffffffffffffffffff00169091179055565b73ffffffffffffffffffffffffffffffffffffffff16600090815260016020908152604080832061ffff949094168352929052205460ff1690565b6104956106a6565b73ffffffffffffffffffffffffffffffffffffffff166104b3610295565b73ffffffffffffffffffffffffffffffffffffffff1614610500576040517f08c379a000000000000000000000000000000000000000000000000000000000815260040161021d90610804565b73ffffffffffffffffffffffffffffffffffffffff811661054d576040517f08c379a000000000000000000000000000000000000000000000000000000000815260040161021d906107a7565b6000805460405173ffffffffffffffffffffffffffffffffffffffff808516939216917f8be0079c531659141344cd1fd0a4f28419497f9722a3daafe3b4186f6b6457e091a3600080547fffffffffffffffffffffffff00000000000000000000000000000000000000001673ffffffffffffffffffffffffffffffffffffffff92909216919091179055565b6105e26106a6565b73ffffffffffffffffffffffffffffffffffffffff16610600610295565b73ffffffffffffffffffffffffffffffffffffffff161461064d576040517f08c379a000000000000000000000000000000000000000000000000000000000815260040161021d90610804565b61ffff91909116600090815260026020526040902080547fffffffffffffffffffffffff00000000000000000000000000000000000000001673ffffffffffffffffffffffffffffffffffffffff909216919091179055565b3390565b803573ffffffffffffffffffffffffffffffffffffffff811681146106ce57600080fd5b919050565b803561ffff811681146106ce57600080fd5b6000602082840312156106f6578081fd5b6106ff826106aa565b9392505050565b60008060408385031215610718578081fd5b610721836106aa565b915061072f602084016106d3565b90509250929050565b600060208284031215610749578081fd5b6106ff826106d3565b60008060408385031215610764578182fd5b61076d836106d3565b915061072f602084016106aa565b73ffffffffffffffffffffffffffffffffffffffff91909116815260200190565b901515815260200190565b60208082526026908201527f4f776e61626c653a206e6577206f776e657220697320746865207a65726f206160408201527f6464726573730000000000000000000000000000000000000000000000000000606082015260800190565b6020808252818101527f4f776e61626c653a2063616c6c6572206973206e6f7420746865206f776e657260408201526060019056fea2646970667358221220e9bbcdc203d2c2958f53efd6f1f36c72fdd5e84dd3b29abae1dc2da5a013be1164736f6c63430008010033608060405234801561001057600080fd5b5060405161131b38038061131b83398101604081905261002f916100e6565b600080546001600160a01b0319166001600160a01b0383161781556100526100c6565b600180546001600160a01b0319166001600160a01b038316908117909155604051919250906000907f8be0079c531659141344cd1fd0a4f28419497f9722a3daafe3b4186f6b6457e0908290a35050600280546001600160a01b0319166001600160a01b0392909216919091179055610118565b3390565b80516001600160a01b03811681146100e157600080fd5b919050565b600080604083850312156100f8578182fd5b610101836100ca565b915061010f602084016100ca565b90509250929050565b6111f4806101276000396000f3fe6080604052600436106101b75760003560e01c8063715018a6116100ec578063a9cc05361161008a578063cacf8d4511610064578063cacf8d451461041b578063d5d7ed7f14610430578063d9caed1214610445578063f2fde38b14610465576101b7565b8063a9cc0536146103d1578063ad5c4648146103e6578063b3db428b146103fb576101b7565b80638da5cb5b116100c65780638da5cb5b1461038a578063a0098d691461039f578063a6a5f9fe146103b4578063a94c7c34146103bc576101b7565b8063715018a61461034b57806381ca66001461036057806383a49c7c14610375576101b7565b80634782f779116101595780635acf6903116101335780635acf6903146102e15780635c275a3914610301578063669419841461031657806368173bcf1461032b576101b7565b80634782f7791461027f57806347e7ef241461029f57806348fb27b8146102cc576101b7565b80632fe94def116101955780632fe94def1461021e57806332fe7b2614610233578063392f5f641461024857806346b887961461026a576101b7565b8063065d570f146101bc5780630d1ce2d2146101e75780631bc5d81d14610209575b600080fd5b3480156101c857600080fd5b506101d1610485565b6040516101de919061117c565b60405180910390f35b3480156101f357600080fd5b50610207610202366004610e44565b61048a565b005b34801561021557600080fd5b506101d1610521565b34801561022a57600080fd5b506101d1610526565b34801561023f57600080fd5b506101d161052b565b34801561025457600080fd5b5061025d610530565b6040516101de9190610ee2565b34801561027657600080fd5b506101d161054c565b34801561028b57600080fd5b5061020761029a366004610e99565b610551565b3480156102ab57600080fd5b506102bf6102ba366004610e99565b610660565b6040516101de9190610f5a565b3480156102d857600080fd5b506101d161076e565b3480156102ed57600080fd5b506102bf6102fc366004610e44565b610773565b34801561030d57600080fd5b506101d1610788565b34801561032257600080fd5b506101d161078d565b34801561033757600080fd5b50610207610346366004610e44565b610792565b34801561035757600080fd5b5061020761081d565b34801561036c57600080fd5b506101d16108ff565b34801561038157600080fd5b506101d1610904565b34801561039657600080fd5b5061025d610909565b3480156103ab57600080fd5b506101d1610925565b61020761092a565b3480156103c857600080fd5b506101d16109af565b3480156103dd57600080fd5b506101d16109b4565b3480156103f257600080fd5b5061025d6109b9565b34801561040757600080fd5b506102bf610416366004610e5e565b6109d5565b34801561042757600080fd5b506101d1610b23565b34801561043c57600080fd5b506101d1610b28565b34801561045157600080fd5b506102bf610460366004610e5e565b610b2d565b34801561047157600080fd5b50610207610480366004610e44565b610bc2565b600381565b61049333610d10565b6104d2576040517f08c379a00000000000000000000000000000000000000000000000000000000081526004016104c990610f9c565b60405180910390fd5b73ffffffffffffffffffffffffffffffffffffffff16600090815260036020526040902080547fffffffffffffffffffffffffffffffffffffffffffffffffffffffffffffff00166001179055565b600881565b606981565b606781565b60005473ffffffffffffffffffffffffffffffffffffffff1681565b600681565b61055a33610dc2565b610590576040517f08c379a00000000000000000000000000000000000000000000000000000000081526004016104c990610ff9565b6002546040517f2e1a7d4d00000000000000000000000000000000000000000000000000000000815273ffffffffffffffffffffffffffffffffffffffff90911690632e1a7d4d906105e69084906004016111b5565b600060405180830381600087803b15801561060057600080fd5b505af1158015610614573d6000803e3d6000fd5b505060405173ffffffffffffffffffffffffffffffffffffffff8516925083156108fc02915083906000818181858888f1935050505015801561065b573d6000803e3d6000fd5b505050565b73ffffffffffffffffffffffffffffffffffffffff821660009081526003602052604081205460ff166106bf576040517f08c379a00000000000000000000000000000000000000000000000000000000081526004016104c990610f65565b6040517f23b872dd00000000000000000000000000000000000000000000000000000000815273ffffffffffffffffffffffffffffffffffffffff8416906323b872dd9061071590339030908790600401610f03565b602060405180830381600087803b15801561072f57600080fd5b505af1158015610743573d6000803e3d6000fd5b505050506040513d601f19601f820116820180604052508101906107679190610ec2565b9392505050565b606681565b60036020526000908152604090205460ff1681565b606581565b600181565b61079b33610d10565b6107d1576040517f08c379a00000000000000000000000000000000000000000000000000000000081526004016104c990610f9c565b73ffffffffffffffffffffffffffffffffffffffff16600090815260036020526040902080547fffffffffffffffffffffffffffffffffffffffffffffffffffffffffffffff00169055565b610825610e1c565b73ffffffffffffffffffffffffffffffffffffffff16610843610909565b73ffffffffffffffffffffffffffffffffffffffff1614610890576040517f08c379a00000000000000000000000000000000000000000000000000000000081526004016104c9906110ea565b60015460405160009173ffffffffffffffffffffffffffffffffffffffff16907f8be0079c531659141344cd1fd0a4f28419497f9722a3daafe3b4186f6b6457e0908390a3600180547fffffffffffffffffffffffff0000000000000000000000000000000000000000169055565b606a81565b600981565b60015473ffffffffffffffffffffffffffffffffffffffff1690565b600281565b600260009054906101000a900473ffffffffffffffffffffffffffffffffffffffff1673ffffffffffffffffffffffffffffffffffffffff1663d0e30db0346040518263ffffffff1660e01b81526004016000604051808303818588803b15801561099457600080fd5b505af11580156109a8573d6000803e3d6000fd5b5050505050565b600581565b606881565b60025473ffffffffffffffffffffffffffffffffffffffff1681565b73ffffffffffffffffffffffffffffffffffffffff821660009081526003602052604081205460ff16610a34576040517f08c379a00000000000000000000000000000000000000000000000000000000081526004016104c990610f65565b610a3d33610dc2565b610a73576040517f08c379a00000000000000000000000000000000000000000000000000000000081526004016104c99061111f565b6040517f23b872dd00000000000000000000000000000000000000000000000000000000815273ffffffffffffffffffffffffffffffffffffffff8416906323b872dd90610ac990879030908790600401610f03565b602060405180830381600087803b158015610ae357600080fd5b505af1158015610af7573d6000803e3d6000fd5b505050506040513d601f19601f82011682018060405250810190610b1b9190610ec2565b949350505050565b600481565b600781565b6000610b3833610dc2565b610b6e576040517f08c379a00000000000000000000000000000000000000000000000000000000081526004016104c99061108d565b6040517fa9059cbb00000000000000000000000000000000000000000000000000000000815273ffffffffffffffffffffffffffffffffffffffff85169063a9059cbb90610ac99086908690600401610f34565b610bca610e1c565b73ffffffffffffffffffffffffffffffffffffffff16610be8610909565b73ffffffffffffffffffffffffffffffffffffffff1614610c35576040517f08c379a00000000000000000000000000000000000000000000000000000000081526004016104c9906110ea565b73ffffffffffffffffffffffffffffffffffffffff8116610c82576040517f08c379a00000000000000000000000000000000000000000000000000000000081526004016104c990611030565b60015460405173ffffffffffffffffffffffffffffffffffffffff8084169216907f8be0079c531659141344cd1fd0a4f28419497f9722a3daafe3b4186f6b6457e090600090a3600180547fffffffffffffffffffffffff00000000000000000000000000000000000000001673ffffffffffffffffffffffffffffffffffffffff92909216919091179055565b600080546040517fd87fefd200000000000000000000000000000000000000000000000000000000815273ffffffffffffffffffffffffffffffffffffffff9091169063d87fefd290610d6a90600990869060040161118b565b60206040518083038186803b158015610d8257600080fd5b505afa158015610d96573d6000803e3d6000fd5b505050506040513d601f19601f82011682018060405250810190610dba9190610ec2565b90505b919050565b600080546040517fd87fefd200000000000000000000000000000000000000000000000000000000815273ffffffffffffffffffffffffffffffffffffffff9091169063d87fefd290610d6a90600190869060040161118b565b3390565b803573ffffffffffffffffffffffffffffffffffffffff81168114610dbd57600080fd5b600060208284031215610e55578081fd5b61076782610e20565b600080600060608486031215610e72578182fd5b610e7b84610e20565b9250610e8960208501610e20565b9150604084013590509250925092565b60008060408385031215610eab578182fd5b610eb483610e20565b946020939093013593505050565b600060208284031215610ed3578081fd5b81518015158114610767578182fd5b73ffffffffffffffffffffffffffffffffffffffff91909116815260200190565b73ffffffffffffffffffffffffffffffffffffffff9384168152919092166020820152604081019190915260600190565b73ffffffffffffffffffffffffffffffffffffffff929092168252602082015260400190565b901515815260200190565b6020808252601b908201527f4465706f73697420746f6b656e206973206e6f74206163746976650000000000604082015260600190565b60208082526029908201527f41646472657373206e6f7420617574686f72697a656420746f2061637469766160408201527f746520746f6b656e730000000000000000000000000000000000000000000000606082015260800190565b6020808252601a908201527f4e6f7420617574686f72697a656420746f207769746864726177000000000000604082015260600190565b60208082526026908201527f4f776e61626c653a206e6577206f776e657220697320746865207a65726f206160408201527f6464726573730000000000000000000000000000000000000000000000000000606082015260800190565b60208082526023908201527f436f6e7472616374206e6f7420617574686f72697a656420746f20776974686460408201527f7261770000000000000000000000000000000000000000000000000000000000606082015260800190565b6020808252818101527f4f776e61626c653a2063616c6c6572206973206e6f7420746865206f776e6572604082015260600190565b60208082526022908201527f436f6e7472616374206e6f7420617574686f72697a656420746f206465706f7360408201527f6974000000000000000000000000000000000000000000000000000000000000606082015260800190565b61ffff91909116815260200190565b61ffff92909216825273ffffffffffffffffffffffffffffffffffffffff16602082015260400190565b9081526020019056fea2646970667358221220684e83e235401f11e8ec16ece376b6a9094b5a5e663db73a23102ebde0fb97da64736f6c6343000801003360806040523480156200001157600080fd5b5060405162002442380380620024428339810160408190526200003491620003d6565b8151829082906200004d9060059060208501906200027d565b508051620000639060069060208401906200027d565b50506007805460ff191690555062000086600062000080620000ec565b620000f0565b620000b57f9f2df0fed2c77648de5860a4cc508cd0818c85b8b8a1ab4ceeef8d981c8956a662000080620000ec565b620000e47f65d7a28e3265b37a6474929f336521b332c1681b933f6cb9f3376673440d862a62000080620000ec565b505062000490565b3390565b6200010782826200013360201b62000a171760201c565b60008281526001602090815260409091206200012e91839062000a2162000143821b17901c565b505050565b6200013f828262000163565b5050565b60006200015a836001600160a01b038416620001ed565b90505b92915050565b6200016f82826200023c565b6200013f576000828152602081815260408083206001600160a01b03851684529091529020805460ff19166001179055620001a9620000ec565b6001600160a01b0316816001600160a01b0316837f2f8788117e7eff1d82e926ec794901d17c78024a50270940304540a733656f0d60405160405180910390a45050565b6000620001fb838362000265565b62000233575081546001818101845560008481526020808220909301849055845484825282860190935260409020919091556200015d565b5060006200015d565b6000918252602082815260408084206001600160a01b0393909316845291905290205460ff1690565b60009081526001919091016020526040902054151590565b8280546200028b906200043d565b90600052602060002090601f016020900481019282620002af5760008555620002fa565b82601f10620002ca57805160ff1916838001178555620002fa565b82800160010185558215620002fa579182015b82811115620002fa578251825591602001919060010190620002dd565b50620003089291506200030c565b5090565b5b808211156200030857600081556001016200030d565b600082601f83011262000334578081fd5b81516001600160401b03808211156200035157620003516200047a565b604051601f8301601f19908116603f011681019082821181831017156200037c576200037c6200047a565b8160405283815260209250868385880101111562000398578485fd5b8491505b83821015620003bb57858201830151818301840152908201906200039c565b83821115620003cc57848385830101525b9695505050505050565b60008060408385031215620003e9578182fd5b82516001600160401b038082111562000400578384fd5b6200040e8683870162000323565b9350602085015191508082111562000424578283fd5b50620004338582860162000323565b9150509250929050565b6002810460018216806200045257607f821691505b602082108114156200047457634e487b7160e01b600052602260045260246000fd5b50919050565b634e487b7160e01b600052604160045260246000fd5b611fa280620004a06000396000f3fe608060405234801561001057600080fd5b50600436106101b95760003560e01c806370a08231116100f9578063a457c2d711610097578063d539139311610071578063d539139314610367578063d547741f1461036f578063dd62ed3e14610382578063e63ab1e914610395576101b9565b8063a457c2d71461032e578063a9059cbb14610341578063ca15c87314610354576101b9565b80639010d07c116100d35780639010d07c146102eb57806391d148541461030b57806395d89b411461031e578063a217fddf14610326576101b9565b806370a08231146102bd57806379cc6790146102d05780638456cb59146102e3576101b9565b8063313ce567116101665780633f4ba83a116101405780633f4ba83a1461028757806340c10f191461028f57806342966c68146102a25780635c975abb146102b5576101b9565b8063313ce5671461024c57806336568abe146102615780633950935114610274576101b9565b806323b872dd1161019757806323b872dd14610211578063248a9ca3146102245780632f2ff15d14610237576101b9565b806306fdde03146101be578063095ea7b3146101dc57806318160ddd146101fc575b600080fd5b6101c661039d565b6040516101d3919061170c565b60405180910390f35b6101ef6101ea366004611653565b61042f565b6040516101d391906116f8565b61020461044d565b6040516101d39190611703565b6101ef61021f366004611618565b610453565b61020461023236600461167c565b610534565b61024a610245366004611694565b61054c565b005b610254610573565b6040516101d39190611eac565b61024a61026f366004611694565b610578565b6101ef610282366004611653565b6105f2565b61024a61064e565b61024a61029d366004611653565b6106ba565b61024a6102b036600461167c565b610726565b6101ef61073a565b6102046102cb3660046115cc565b610743565b61024a6102de366004611653565b61076b565b61024a6107d5565b6102fe6102f93660046116b6565b61083f565b6040516101d391906116d7565b6101ef610319366004611694565b61085e565b6101c6610894565b6102046108a3565b6101ef61033c366004611653565b6108a8565b6101ef61034f366004611653565b61094a565b61020461036236600461167c565b61095e565b610204610975565b61024a61037d366004611694565b610999565b6102046103903660046115e6565b6109bb565b6102046109f3565b6060600580546103ac90611ee9565b80601f01602080910402602001604051908101604052809291908181526020018280546103d890611ee9565b80156104255780601f106103fa57610100808354040283529160200191610425565b820191906000526020600020905b81548152906001019060200180831161040857829003601f168201915b5050505050905090565b600061044361043c610a43565b8484610a47565b5060015b92915050565b60045490565b6000610460848484610b56565b73ffffffffffffffffffffffffffffffffffffffff841660009081526003602052604081208161048e610a43565b73ffffffffffffffffffffffffffffffffffffffff1673ffffffffffffffffffffffffffffffffffffffff1681526020019081526020016000205490508281101561050e576040517f08c379a000000000000000000000000000000000000000000000000000000000815260040161050590611ad3565b60405180910390fd5b6105298561051a610a43565b6105248685611ed2565b610a47565b506001949350505050565b6000818152602081905260409020600101545b919050565b6105568282610d1a565b600082815260016020526040902061056e9082610a21565b505050565b601290565b610580610a43565b73ffffffffffffffffffffffffffffffffffffffff168173ffffffffffffffffffffffffffffffffffffffff16146105e4576040517f08c379a000000000000000000000000000000000000000000000000000000000815260040161050590611dbb565b6105ee8282610d64565b5050565b60006104436105ff610a43565b84846003600061060d610a43565b73ffffffffffffffffffffffffffffffffffffffff908116825260208083019390935260409182016000908120918b16815292529020546105249190611eba565b61067a7f65d7a28e3265b37a6474929f336521b332c1681b933f6cb9f3376673440d862a610319610a43565b6106b0576040517f08c379a000000000000000000000000000000000000000000000000000000000815260040161050590611928565b6106b8610e2c565b565b6106e67f9f2df0fed2c77648de5860a4cc508cd0818c85b8b8a1ab4ceeef8d981c8956a6610319610a43565b61071c576040517f08c379a000000000000000000000000000000000000000000000000000000000815260040161050590611b30565b6105ee8282610ed2565b610737610731610a43565b82610fd3565b50565b60075460ff1690565b73ffffffffffffffffffffffffffffffffffffffff1660009081526002602052604090205490565b600061077983610390610a43565b9050818110156107b5576040517f08c379a000000000000000000000000000000000000000000000000000000000815260040161050590611b8d565b6107cb836107c1610a43565b6105248585611ed2565b61056e8383610fd3565b6108017f65d7a28e3265b37a6474929f336521b332c1681b933f6cb9f3376673440d862a610319610a43565b610837576040517f08c379a000000000000000000000000000000000000000000000000000000000815260040161050590611d01565b6106b8611121565b600082815260016020526040812061085790836111b4565b9392505050565b60009182526020828152604080842073ffffffffffffffffffffffffffffffffffffffff93909316845291905290205460ff1690565b6060600680546103ac90611ee9565b600081565b600080600360006108b7610a43565b73ffffffffffffffffffffffffffffffffffffffff9081168252602080830193909352604091820160009081209188168152925290205490508281101561092a576040517f08c379a000000000000000000000000000000000000000000000000000000000815260040161050590611d5e565b610940610935610a43565b856105248685611ed2565b5060019392505050565b6000610443610957610a43565b8484610b56565b6000818152600160205260408120610447906111c0565b7f9f2df0fed2c77648de5860a4cc508cd0818c85b8b8a1ab4ceeef8d981c8956a681565b6109a382826111cb565b600082815260016020526040902061056e908261120d565b73ffffffffffffffffffffffffffffffffffffffff918216600090815260036020908152604080832093909416825291909152205490565b7f65d7a28e3265b37a6474929f336521b332c1681b933f6cb9f3376673440d862a81565b6105ee828261122f565b60006108578373ffffffffffffffffffffffffffffffffffffffff84166112f9565b3390565b73ffffffffffffffffffffffffffffffffffffffff8316610a94576040517f08c379a000000000000000000000000000000000000000000000000000000000815260040161050590611ca4565b73ffffffffffffffffffffffffffffffffffffffff8216610ae1576040517f08c379a000000000000000000000000000000000000000000000000000000000815260040161050590611985565b73ffffffffffffffffffffffffffffffffffffffff80841660008181526003602090815260408083209487168084529490915290819020849055517f8c5be1e5ebec7d5bd14f71427d1e84f3dd0314c0f7b2291e5b200ac8c7c3b92590610b49908590611703565b60405180910390a3505050565b73ffffffffffffffffffffffffffffffffffffffff8316610ba3576040517f08c379a000000000000000000000000000000000000000000000000000000000815260040161050590611c47565b73ffffffffffffffffffffffffffffffffffffffff8216610bf0576040517f08c379a0000000000000000000000000000000000000000000000000000000008152600401610505906117da565b610bfb838383611343565b73ffffffffffffffffffffffffffffffffffffffff831660009081526002602052604090205481811015610c5b576040517f08c379a0000000000000000000000000000000000000000000000000000000008152600401610505906119e2565b610c658282611ed2565b73ffffffffffffffffffffffffffffffffffffffff8086166000908152600260205260408082209390935590851681529081208054849290610ca8908490611eba565b925050819055508273ffffffffffffffffffffffffffffffffffffffff168473ffffffffffffffffffffffffffffffffffffffff167fddf252ad1be2c89b69c2b068fc378daa952ba7f163c4a11628f55a4df523b3ef84604051610d0c9190611703565b60405180910390a350505050565b610d2e610d2683610534565b610319610a43565b610a17576040517f08c379a000000000000000000000000000000000000000000000000000000000815260040161050590611837565b610d6e828261085e565b156105ee5760008281526020818152604080832073ffffffffffffffffffffffffffffffffffffffff85168452909152902080547fffffffffffffffffffffffffffffffffffffffffffffffffffffffffffffff00169055610dce610a43565b73ffffffffffffffffffffffffffffffffffffffff168173ffffffffffffffffffffffffffffffffffffffff16837ff6391f5c32d9c69d2a47ea670b442974b53935d1edc7fd64eb21e047a839171b60405160405180910390a45050565b610e3461073a565b610e6a576040517f08c379a000000000000000000000000000000000000000000000000000000000815260040161050590611894565b600780547fffffffffffffffffffffffffffffffffffffffffffffffffffffffffffffff001690557f5db9ee0a495bf2e6ff9c91a7834c1ba4fdd244a5e8aa4e537bd38aeae4b073aa610ebb610a43565b604051610ec891906116d7565b60405180910390a1565b73ffffffffffffffffffffffffffffffffffffffff8216610f1f576040517f08c379a000000000000000000000000000000000000000000000000000000000815260040161050590611e18565b610f2b60008383611343565b8060046000828254610f3d9190611eba565b909155505073ffffffffffffffffffffffffffffffffffffffff821660009081526002602052604081208054839290610f77908490611eba565b909155505060405173ffffffffffffffffffffffffffffffffffffffff8316906000907fddf252ad1be2c89b69c2b068fc378daa952ba7f163c4a11628f55a4df523b3ef90610fc7908590611703565b60405180910390a35050565b73ffffffffffffffffffffffffffffffffffffffff8216611020576040517f08c379a000000000000000000000000000000000000000000000000000000000815260040161050590611bea565b61102c82600083611343565b73ffffffffffffffffffffffffffffffffffffffff82166000908152600260205260409020548181101561108c576040517f08c379a0000000000000000000000000000000000000000000000000000000008152600401610505906118cb565b6110968282611ed2565b73ffffffffffffffffffffffffffffffffffffffff8416600090815260026020526040812091909155600480548492906110d1908490611ed2565b909155505060405160009073ffffffffffffffffffffffffffffffffffffffff8516907fddf252ad1be2c89b69c2b068fc378daa952ba7f163c4a11628f55a4df523b3ef90610b49908690611703565b61112961073a565b15611160576040517f08c379a000000000000000000000000000000000000000000000000000000000815260040161050590611a9c565b600780547fffffffffffffffffffffffffffffffffffffffffffffffffffffffffffffff001660011790557f62e78cea01bee320cd4e420270b5ea74000d11b0c9f74754ebdbfc544b05a258610ebb610a43565b6000610857838361134e565b6000610447826113da565b6111d7610d2683610534565b6105e4576040517f08c379a000000000000000000000000000000000000000000000000000000000815260040161050590611a3f565b60006108578373ffffffffffffffffffffffffffffffffffffffff84166113de565b611239828261085e565b6105ee5760008281526020818152604080832073ffffffffffffffffffffffffffffffffffffffff85168452909152902080547fffffffffffffffffffffffffffffffffffffffffffffffffffffffffffffff0016600117905561129b610a43565b73ffffffffffffffffffffffffffffffffffffffff168173ffffffffffffffffffffffffffffffffffffffff16837f2f8788117e7eff1d82e926ec794901d17c78024a50270940304540a733656f0d60405160405180910390a45050565b60006113058383611546565b61133b57508154600181810184556000848152602080822090930184905584548482528286019093526040902091909155610447565b506000610447565b61056e83838361155e565b8154600090821061138b576040517f08c379a00000000000000000000000000000000000000000000000000000000081526004016105059061177d565b8260000182815481106113c7577f4e487b7100000000000000000000000000000000000000000000000000000000600052603260045260246000fd5b9060005260206000200154905092915050565b5490565b6000818152600183016020526040812054801561153c576000611402600183611ed2565b855490915060009061141690600190611ed2565b90506000866000018281548110611456577f4e487b7100000000000000000000000000000000000000000000000000000000600052603260045260246000fd5b90600052602060002001549050808760000184815481106114a0577f4e487b7100000000000000000000000000000000000000000000000000000000600052603260045260246000fd5b6000918252602090912001556114b7836001611eba565b60008281526001890160205260409020558654879080611500577f4e487b7100000000000000000000000000000000000000000000000000000000600052603160045260246000fd5b60019003818190600052602060002001600090559055866001016000878152602001908152602001600020600090556001945050505050610447565b6000915050610447565b60009081526001919091016020526040902054151590565b61156983838361056e565b61157161073a565b1561056e576040517f08c379a000000000000000000000000000000000000000000000000000000000815260040161050590611e4f565b803573ffffffffffffffffffffffffffffffffffffffff8116811461054757600080fd5b6000602082840312156115dd578081fd5b610857826115a8565b600080604083850312156115f8578081fd5b611601836115a8565b915061160f602084016115a8565b90509250929050565b60008060006060848603121561162c578081fd5b611635846115a8565b9250611643602085016115a8565b9150604084013590509250925092565b60008060408385031215611665578182fd5b61166e836115a8565b946020939093013593505050565b60006020828403121561168d578081fd5b5035919050565b600080604083850312156116a6578182fd5b8235915061160f602084016115a8565b600080604083850312156116c8578182fd5b50508035926020909101359150565b73ffffffffffffffffffffffffffffffffffffffff91909116815260200190565b901515815260200190565b90815260200190565b6000602080835283518082850152825b818110156117385785810183015185820160400152820161171c565b818111156117495783604083870101525b50601f017fffffffffffffffffffffffffffffffffffffffffffffffffffffffffffffffe016929092016040019392505050565b60208082526022908201527f456e756d657261626c655365743a20696e646578206f7574206f6620626f756e60408201527f6473000000000000000000000000000000000000000000000000000000000000606082015260800190565b60208082526023908201527f45524332303a207472616e7366657220746f20746865207a65726f206164647260408201527f6573730000000000000000000000000000000000000000000000000000000000606082015260800190565b6020808252602f908201527f416363657373436f6e74726f6c3a2073656e646572206d75737420626520616e60408201527f2061646d696e20746f206772616e740000000000000000000000000000000000606082015260800190565b60208082526014908201527f5061757361626c653a206e6f7420706175736564000000000000000000000000604082015260600190565b60208082526022908201527f45524332303a206275726e20616d6f756e7420657863656564732062616c616e60408201527f6365000000000000000000000000000000000000000000000000000000000000606082015260800190565b60208082526039908201527f45524332305072657365744d696e7465725061757365723a206d75737420686160408201527f76652070617573657220726f6c6520746f20756e706175736500000000000000606082015260800190565b60208082526022908201527f45524332303a20617070726f766520746f20746865207a65726f20616464726560408201527f7373000000000000000000000000000000000000000000000000000000000000606082015260800190565b60208082526026908201527f45524332303a207472616e7366657220616d6f756e742065786365656473206260408201527f616c616e63650000000000000000000000000000000000000000000000000000606082015260800190565b60208082526030908201527f416363657373436f6e74726f6c3a2073656e646572206d75737420626520616e60408201527f2061646d696e20746f207265766f6b6500000000000000000000000000000000606082015260800190565b60208082526010908201527f5061757361626c653a2070617573656400000000000000000000000000000000604082015260600190565b60208082526028908201527f45524332303a207472616e7366657220616d6f756e742065786365656473206160408201527f6c6c6f77616e6365000000000000000000000000000000000000000000000000606082015260800190565b60208082526036908201527f45524332305072657365744d696e7465725061757365723a206d75737420686160408201527f7665206d696e74657220726f6c6520746f206d696e7400000000000000000000606082015260800190565b60208082526024908201527f45524332303a206275726e20616d6f756e74206578636565647320616c6c6f7760408201527f616e636500000000000000000000000000000000000000000000000000000000606082015260800190565b60208082526021908201527f45524332303a206275726e2066726f6d20746865207a65726f2061646472657360408201527f7300000000000000000000000000000000000000000000000000000000000000606082015260800190565b60208082526025908201527f45524332303a207472616e736665722066726f6d20746865207a65726f20616460408201527f6472657373000000000000000000000000000000000000000000000000000000606082015260800190565b60208082526024908201527f45524332303a20617070726f76652066726f6d20746865207a65726f2061646460408201527f7265737300000000000000000000000000000000000000000000000000000000606082015260800190565b60208082526037908201527f45524332305072657365744d696e7465725061757365723a206d75737420686160408201527f76652070617573657220726f6c6520746f207061757365000000000000000000606082015260800190565b60208082526025908201527f45524332303a2064656372656173656420616c6c6f77616e63652062656c6f7760408201527f207a65726f000000000000000000000000000000000000000000000000000000606082015260800190565b6020808252602f908201527f416363657373436f6e74726f6c3a2063616e206f6e6c792072656e6f756e636560408201527f20726f6c657320666f722073656c660000000000000000000000000000000000606082015260800190565b6020808252601f908201527f45524332303a206d696e7420746f20746865207a65726f206164647265737300604082015260600190565b6020808252602a908201527f45524332305061757361626c653a20746f6b656e207472616e7366657220776860408201527f696c652070617573656400000000000000000000000000000000000000000000606082015260800190565b60ff91909116815260200190565b60008219821115611ecd57611ecd611f3d565b500190565b600082821015611ee457611ee4611f3d565b500390565b600281046001821680611efd57607f821691505b60208210811415611f37577f4e487b7100000000000000000000000000000000000000000000000000000000600052602260045260246000fd5b50919050565b7f4e487b7100000000000000000000000000000000000000000000000000000000600052601160045260246000fdfea2646970667358221220d2118cc61289e300d9a7c10709184500480d92f81f0d29148bbfca08095c5cef64736f6c6343000801003360806040526001600b553480156200001657600080fd5b506040516200190c3803806200190c83398101604081905262000039916200011b565b600080546001600160a01b0319166001600160a01b0383161781556200005e620000fa565b600180546001600160a01b0319166001600160a01b038316908117909155604051919250906000907f8be0079c531659141344cd1fd0a4f28419497f9722a3daafe3b4186f6b6457e0908290a350600280546001600160a01b0319166001600160a01b038516179055620000db82670de0b6b3a76400006200017c565b600355620000ed62015180426200015b565b60045550620001a8915050565b3390565b80516001600160a01b03811681146200011657600080fd5b919050565b60008060006060848603121562000130578283fd5b6200013b84620000fe565b9250602084015191506200015260408501620000fe565b90509250925092565b6000826200017757634e487b7160e01b81526012600452602481fd5b500490565b6000816000190483118215151615620001a357634e487b7160e01b81526011600452602481fd5b500290565b61175480620001b86000396000f3fe608060405234801561001057600080fd5b506004361061025b5760003560e01c806381ca660011610145578063a9cc0536116100bd578063d56b10541161008c578063eb3b6cec11610071578063eb3b6cec1461042d578063f2fde38b14610440578063f5428087146104535761025b565b8063d56b105414610412578063d5d7ed7f146104255761025b565b8063a9cc0536146103dc578063c63f5ab7146103e4578063c6de9d5d146103f7578063cacf8d451461040a5761025b565b8063a0021cf111610114578063a8016711116100f9578063a80167111461039f578063a888c2cd146103b2578063a94c7c34146103d45761025b565b8063a0021cf11461038f578063a0098d69146103975761025b565b806381ca66001461036457806383a49c7c1461036c5780638da5cb5b14610374578063982390231461037c5761025b565b8063430c39e4116101d85780635c275a39116101a7578063678337f81161018c578063678337f814610341578063715018a6146103495780637fad8a18146103515761025b565b80635c275a391461033157806366941984146103395761025b565b8063430c39e4146102fb57806346b887961461030e57806348fb27b814610316578063583d86161461031e5761025b565b806319f51afb1161022f5780632fe94def116102145780632fe94def146102d657806332fe7b26146102de578063392f5f64146102e65761025b565b806319f51afb146102b95780631bc5d81d146102ce5761025b565b8062fae52b14610260578063065d570f1461028957806317eef6f31461029e57806318e843b7146102a6575b600080fd5b61027361026e366004611276565b610466565b60405161028091906115ba565b60405180910390f35b610291610478565b6040516102809190611581565b61027361047d565b6102736102b4366004611276565b610483565b6102cc6102c73660046112ce565b610495565b005b610291610568565b61029161056d565b610291610572565b6102ee610577565b6040516102809190611329565b6102cc6103093660046112ce565b610593565b610291610649565b61029161064e565b61027361032c366004611290565b610653565b610291610795565b61029161079a565b61027361079f565b6102cc6107a5565b61027361035f366004611276565b610887565b610291610899565b61029161089e565b6102ee6108a3565b61027361038a3660046112ce565b6108bf565b6102736108d8565b6102916108de565b6102cc6103ad3660046112f7565b6108e3565b6103c56103c036600461125e565b61098a565b604051610280939291906115c3565b6102916109c1565b6102916109c6565b6102736103f2366004611276565b6109cb565b6102cc6104053660046112ce565b6109dd565b610291610a7f565b6102736104203660046112ce565b610a84565b610291610aee565b6102cc61043b366004611276565b610af3565b6102cc61044e366004611206565b610aff565b6102cc6104613660046112f7565b610c4d565b60076020526000908152604090205481565b600381565b60035481565b60056020526000908152604090205481565b61049d610d29565b73ffffffffffffffffffffffffffffffffffffffff166104bb6108a3565b73ffffffffffffffffffffffffffffffffffffffff1614610511576040517f08c379a000000000000000000000000000000000000000000000000000000000815260040161050890611435565b60405180910390fd5b60ff821660009081526008602052604090205461055a576040517f08c379a0000000000000000000000000000000000000000000000000000000008152600401610508906114c7565b6105648282610d2d565b5050565b600881565b606981565b606781565b60005473ffffffffffffffffffffffffffffffffffffffff1681565b61059b610d29565b73ffffffffffffffffffffffffffffffffffffffff166105b96108a3565b73ffffffffffffffffffffffffffffffffffffffff1614610606576040517f08c379a000000000000000000000000000000000000000000000000000000000815260040161050890611435565b6106108282610d2d565b61061c61384042611607565b60ff9092166000908152600860209081526040808320949094556009905291909120640100000000905550565b600681565b606681565b600061065e33610dcb565b610694576040517f08c379a00000000000000000000000000000000000000000000000000000000081526004016105089061146a565b6003541561078a576106a584610e7d565b60ff8416600090815260076020526040812080548492906106c79084906115ef565b90915550506040805160608101825260ff861660009081526009602090815283822054835273ffffffffffffffffffffffffffffffffffffffff878116828501908152848601888152600b80548652600a9094529584209451855551600180860180547fffffffffffffffffffffffff00000000000000000000000000000000000000001692909316919091179091559351600290930192909255815461076f9084906115ef565b9091555050600b546107839060019061167d565b905061078e565b5060005b9392505050565b606581565b600181565b60065481565b6107ad610d29565b73ffffffffffffffffffffffffffffffffffffffff166107cb6108a3565b73ffffffffffffffffffffffffffffffffffffffff1614610818576040517f08c379a000000000000000000000000000000000000000000000000000000000815260040161050890611435565b60015460405160009173ffffffffffffffffffffffffffffffffffffffff16907f8be0079c531659141344cd1fd0a4f28419497f9722a3daafe3b4186f6b6457e0908390a3600180547fffffffffffffffffffffffff0000000000000000000000000000000000000000169055565b60096020526000908152604090205481565b606a81565b600981565b60015473ffffffffffffffffffffffffffffffffffffffff1690565b6000818152600a6020526040812061078e908490610f0f565b600b5481565b600281565b6108ec33610dcb565b610922576040517f08c379a00000000000000000000000000000000000000000000000000000000081526004016105089061146a565b61092b83610e7d565b60ff83166000908152600760205260408120805483929061094d90849061167d565b90915550506000828152600a6020526040902061096a8482610f50565b508181600201600082825461097f919061167d565b909155505050505050565b600a60205260009081526040902080546001820154600290920154909173ffffffffffffffffffffffffffffffffffffffff169083565b600581565b606881565b60086020526000908152604090205481565b6109e633610dcb565b610a1c576040517f08c379a00000000000000000000000000000000000000000000000000000000081526004016105089061146a565b610a2582610e7d565b6000818152600a60205260409020805415610a7a57610a448382610f50565b506001810180547fffffffffffffffffffffffff0000000000000000000000000000000000000000169055600080825560028201555b505050565b600481565b6000610a8f33610dcb565b610ac5576040517f08c379a00000000000000000000000000000000000000000000000000000000081526004016105089061146a565b610ace83610e7d565b6000828152600a60205260409020610ae68482610f50565b949350505050565b600781565b610afc81610e7d565b50565b610b07610d29565b73ffffffffffffffffffffffffffffffffffffffff16610b256108a3565b73ffffffffffffffffffffffffffffffffffffffff1614610b72576040517f08c379a000000000000000000000000000000000000000000000000000000000815260040161050890611435565b73ffffffffffffffffffffffffffffffffffffffff8116610bbf576040517f08c379a00000000000000000000000000000000000000000000000000000000081526004016105089061137b565b60015460405173ffffffffffffffffffffffffffffffffffffffff8084169216907f8be0079c531659141344cd1fd0a4f28419497f9722a3daafe3b4186f6b6457e090600090a3600180547fffffffffffffffffffffffff00000000000000000000000000000000000000001673ffffffffffffffffffffffffffffffffffffffff92909216919091179055565b610c5633610dcb565b610c8c576040517f08c379a00000000000000000000000000000000000000000000000000000000081526004016105089061146a565b60035415610a7a57610c9d83610e7d565b60ff831660009081526007602052604081208054839290610cbf9084906115ef565b90915550506000828152600a602052604090208054610d0a576040517f08c379a0000000000000000000000000000000000000000000000000000000008152600401610508906113d8565b610d148482610f50565b508181600201600082825461097f91906115ef565b3390565b60ff8216600090815260056020526040902054811115610d805760ff8216600090815260056020526040902054610d64908261167d565b60066000828254610d7591906115ef565b90915550610db59050565b60ff8216600090815260056020526040902054610d9e90829061167d565b60066000828254610daf919061167d565b90915550505b60ff909116600090815260056020526040902055565b600080546040517fd87fefd200000000000000000000000000000000000000000000000000000000815273ffffffffffffffffffffffffffffffffffffffff9091169063d87fefd290610e25906008908690600401611590565b60206040518083038186803b158015610e3d57600080fd5b505afa158015610e51573d6000803e3d6000fd5b505050506040513d601f19601f82011682018060405250810190610e75919061123e565b90505b919050565b6000610e8b61384042611607565b9050610e95611069565b60ff821660009081526008602052604081205490610eb3828461167d565b90508015610ef75780610ec5856110d0565b610ecf9190611640565b60ff851660009081526009602052604081208054909190610ef19084906115ef565b90915550505b505060ff909116600090815260086020526040902055565b805460ff8316600090815260096020526040812054909164010000000091610f37919061167d565b8360020154610f469190611640565b61078e9190611607565b6000610f5c8383610f0f565b9050610f66611148565b60025460018401546040517fd9caed1200000000000000000000000000000000000000000000000000000000815273ffffffffffffffffffffffffffffffffffffffff9384169363d9caed1293610fc89390821692911690869060040161134a565b602060405180830381600087803b158015610fe257600080fd5b505af1158015610ff6573d6000803e3d6000fd5b505050506040513d601f19601f8201168201806040525081019061101a919061123e565b611050576040517f08c379a000000000000000000000000000000000000000000000000000000000815260040161050890611524565b60ff909216600090815260096020526040902054905590565b60006110786201518042611607565b905060006004548261108a919061167d565b905060005b818110156110c9576103e86103e76003546110aa9190611640565b6110b49190611607565b600355806110c181611694565b91505061108f565b5050600455565b6000806110e261384062015180611607565b60065460ff851660009081526005602052604090205460035461110a90640100000000611640565b6111149190611640565b61111e9190611607565b6111289190611607565b60ff841660009081526007602052604090205490915061078e9082611607565b600080546040517f3c9c8f9c00000000000000000000000000000000000000000000000000000000815273ffffffffffffffffffffffffffffffffffffffff90911690633c9c8f9c906111a090606590600401611581565b60206040518083038186803b1580156111b857600080fd5b505afa1580156111cc573d6000803e3d6000fd5b505050506040513d601f19601f820116820180604052508101906111f09190611222565b905090565b803560ff81168114610e7857600080fd5b600060208284031215611217578081fd5b813561078e816116fc565b600060208284031215611233578081fd5b815161078e816116fc565b60006020828403121561124f578081fd5b8151801515811461078e578182fd5b60006020828403121561126f578081fd5b5035919050565b600060208284031215611287578081fd5b61078e826111f5565b6000806000606084860312156112a4578182fd5b6112ad846111f5565b925060208401356112bd816116fc565b929592945050506040919091013590565b600080604083850312156112e0578182fd5b6112e9836111f5565b946020939093013593505050565b60008060006060848603121561130b578283fd5b611314846111f5565b95602085013595506040909401359392505050565b73ffffffffffffffffffffffffffffffffffffffff91909116815260200190565b73ffffffffffffffffffffffffffffffffffffffff9384168152919092166020820152604081019190915260600190565b60208082526026908201527f4f776e61626c653a206e6577206f776e657220697320746865207a65726f206160408201527f6464726573730000000000000000000000000000000000000000000000000000606082015260800190565b60208082526023908201527f547279696e6720746f2061646420746f206e6f6e2d6578697374616e7420636c60408201527f61696d0000000000000000000000000000000000000000000000000000000000606082015260800190565b6020808252818101527f4f776e61626c653a2063616c6c6572206973206e6f7420746865206f776e6572604082015260600190565b6020808252602c908201527f436f6e7472616374206e6f7420617574686f72697a656420746f207265706f7260408201527f7420696e63656e74697665730000000000000000000000000000000000000000606082015260800190565b60208082526033908201527f5472616e636865206973206e6f7420696e697469616c697a65642c20706c656160408201527f736520696e697469616c697a6520666972737400000000000000000000000000606082015260800190565b60208082526036908201527f5468657265207365656d7320746f2062652061206c61636b206f66204d46492060408201527f696e2074686520696e63656e746976652066756e642100000000000000000000606082015260800190565b61ffff91909116815260200190565b61ffff92909216825273ffffffffffffffffffffffffffffffffffffffff16602082015260400190565b90815260200190565b92835273ffffffffffffffffffffffffffffffffffffffff919091166020830152604082015260600190565b60008219821115611602576116026116cd565b500190565b60008261163b577f4e487b710000000000000000000000000000000000000000000000000000000081526012600452602481fd5b500490565b6000817fffffffffffffffffffffffffffffffffffffffffffffffffffffffffffffffff0483118215151615611678576116786116cd565b500290565b60008282101561168f5761168f6116cd565b500390565b60007fffffffffffffffffffffffffffffffffffffffffffffffffffffffffffffffff8214156116c6576116c66116cd565b5060010190565b7f4e487b7100000000000000000000000000000000000000000000000000000000600052601160045260246000fd5b73ffffffffffffffffffffffffffffffffffffffff81168114610afc57600080fdfea2646970667358221220f152c6b851490cce2736fd924bfa207a06ddf267671e3524bc42048a2818c5a464736f6c63430008010033608060405234801561001057600080fd5b506040516112f73803806112f783398101604081905261002f916100db565b60006100396100bb565b600080546001600160a01b0319166001600160a01b0383169081178255604051929350917f8be0079c531659141344cd1fd0a4f28419497f9722a3daafe3b4186f6b6457e0908290a350600480546001600160a01b039485166001600160a01b0319918216179091556001805493909416921691909117909155600555610116565b3390565b80516001600160a01b03811681146100d657600080fd5b919050565b6000806000606084860312156100ef578283fd5b6100f8846100bf565b9250610106602085016100bf565b9150604084015190509250925092565b6111d2806101256000396000f3fe608060405234801561001057600080fd5b50600436106100c95760003560e01c8063c1a3b9fa11610081578063dc5c66f91161005b578063dc5c66f914610154578063e5afa56614610167578063f2fde38b1461017a576100c9565b8063c1a3b9fa14610124578063c885bc5814610139578063cb82cc8f14610141576100c9565b806351ed6a30116100b257806351ed6a30146100f6578063715018a6146101145780638da5cb5b1461011c576100c9565b806325d5971f146100ce5780634176edfa146100e3575b600080fd5b6100e16100dc366004610d36565b61018d565b005b6100e16100f1366004610ce2565b610371565b6100fe61042b565b60405161010b9190610d82565b60405180910390f35b6100e1610447565b6100fe610529565b61012c610545565b60405161010b9190611109565b61012c61054b565b6100e161014f366004610d36565b610642565b61012c610162366004610ce2565b610877565b61012c610175366004610ce2565b610889565b6100e1610188366004610ce2565b61089b565b33600090815260036020526040902054818110156101e0576040517f08c379a00000000000000000000000000000000000000000000000000000000081526004016101d790610eaa565b60405180910390fd5b6001546102049073ffffffffffffffffffffffffffffffffffffffff1633846109e8565b61020e828261112a565b33600090815260036020526040902055808214156102d35760048054336000908152600260205260408082205490517fc6de9d5d00000000000000000000000000000000000000000000000000000000815273ffffffffffffffffffffffffffffffffffffffff9093169363c6de9d5d9361028b93929101610e2b565b600060405180830381600087803b1580156102a557600080fd5b505af11580156102b9573d6000803e3d6000fd5b5050336000908152600260205260408120555061036d9050565b60048054336000908152600260205260408082205490517fa801671100000000000000000000000000000000000000000000000000000000815273ffffffffffffffffffffffffffffffffffffffff9093169363a80167119361033a939291889101610e3e565b600060405180830381600087803b15801561035457600080fd5b505af1158015610368573d6000803e3d6000fd5b505050505b5050565b610379610a8e565b73ffffffffffffffffffffffffffffffffffffffff16610397610529565b73ffffffffffffffffffffffffffffffffffffffff16146103e4576040517f08c379a00000000000000000000000000000000000000000000000000000000081526004016101d790611009565b600480547fffffffffffffffffffffffff00000000000000000000000000000000000000001673ffffffffffffffffffffffffffffffffffffffff92909216919091179055565b60015473ffffffffffffffffffffffffffffffffffffffff1681565b61044f610a8e565b73ffffffffffffffffffffffffffffffffffffffff1661046d610529565b73ffffffffffffffffffffffffffffffffffffffff16146104ba576040517f08c379a00000000000000000000000000000000000000000000000000000000081526004016101d790611009565b6000805460405173ffffffffffffffffffffffffffffffffffffffff909116907f8be0079c531659141344cd1fd0a4f28419497f9722a3daafe3b4186f6b6457e0908390a3600080547fffffffffffffffffffffffff0000000000000000000000000000000000000000169055565b60005473ffffffffffffffffffffffffffffffffffffffff1690565b60055481565b3360009081526002602052604081205480610592576040517f08c379a00000000000000000000000000000000000000000000000000000000081526004016101d790610fd2565b600480546040517fd56b105400000000000000000000000000000000000000000000000000000000815273ffffffffffffffffffffffffffffffffffffffff9091169163d56b1054916105ea91600091869101610e2b565b602060405180830381600087803b15801561060457600080fd5b505af1158015610618573d6000803e3d6000fd5b505050506040513d601f19601f8201168201806040525081019061063c9190610d4e565b91505090565b600554421161067d576040517f08c379a00000000000000000000000000000000000000000000000000000000081526004016101d790610f3e565b6001546106a29073ffffffffffffffffffffffffffffffffffffffff16333084610a92565b33600090815260026020526040902054156107555760048054336000908152600260205260408082205490517ff542808700000000000000000000000000000000000000000000000000000000815273ffffffffffffffffffffffffffffffffffffffff9093169363f54280879361071e939291879101610e3e565b600060405180830381600087803b15801561073857600080fd5b505af115801561074c573d6000803e3d6000fd5b50505050610850565b600480546040517f583d861600000000000000000000000000000000000000000000000000000000815260009273ffffffffffffffffffffffffffffffffffffffff9092169163583d8616916107b19185913391889101610dfa565b602060405180830381600087803b1580156107cb57600080fd5b505af11580156107df573d6000803e3d6000fd5b505050506040513d601f19601f820116820180604052508101906108039190610d4e565b33600090815260026020526040902081905590508061084e576040517f08c379a00000000000000000000000000000000000000000000000000000000081526004016101d79061103e565b505b336000908152600360205260408120805483929061086f908490611112565b909155505050565b60026020526000908152604090205481565b60036020526000908152604090205481565b6108a3610a8e565b73ffffffffffffffffffffffffffffffffffffffff166108c1610529565b73ffffffffffffffffffffffffffffffffffffffff161461090e576040517f08c379a00000000000000000000000000000000000000000000000000000000081526004016101d790611009565b73ffffffffffffffffffffffffffffffffffffffff811661095b576040517f08c379a00000000000000000000000000000000000000000000000000000000081526004016101d790610ee1565b6000805460405173ffffffffffffffffffffffffffffffffffffffff808516939216917f8be0079c531659141344cd1fd0a4f28419497f9722a3daafe3b4186f6b6457e091a3600080547fffffffffffffffffffffffff00000000000000000000000000000000000000001673ffffffffffffffffffffffffffffffffffffffff92909216919091179055565b610a898363a9059cbb60e01b8484604051602401610a07929190610dd4565b604080517fffffffffffffffffffffffffffffffffffffffffffffffffffffffffffffffe08184030181529190526020810180517bffffffffffffffffffffffffffffffffffffffffffffffffffffffff167fffffffff0000000000000000000000000000000000000000000000000000000090931692909217909152610ab9565b505050565b3390565b610ab3846323b872dd60e01b858585604051602401610a0793929190610da3565b50505050565b6000610b1b826040518060400160405280602081526020017f5361666545524332303a206c6f772d6c6576656c2063616c6c206661696c65648152508573ffffffffffffffffffffffffffffffffffffffff16610b6f9092919063ffffffff16565b805190915015610a895780806020019051810190610b399190610d16565b610a89576040517f08c379a00000000000000000000000000000000000000000000000000000000081526004016101d7906110ac565b6060610b7e8484600085610b88565b90505b9392505050565b606082471015610bc4576040517f08c379a00000000000000000000000000000000000000000000000000000000081526004016101d790610f75565b610bcd85610c89565b610c03576040517f08c379a00000000000000000000000000000000000000000000000000000000081526004016101d790611075565b6000808673ffffffffffffffffffffffffffffffffffffffff168587604051610c2c9190610d66565b60006040518083038185875af1925050503d8060008114610c69576040519150601f19603f3d011682016040523d82523d6000602084013e610c6e565b606091505b5091509150610c7e828286610c8f565b979650505050505050565b3b151590565b60608315610c9e575081610b81565b825115610cae5782518084602001fd5b816040517f08c379a00000000000000000000000000000000000000000000000000000000081526004016101d79190610e59565b600060208284031215610cf3578081fd5b813573ffffffffffffffffffffffffffffffffffffffff81168114610b81578182fd5b600060208284031215610d27578081fd5b81518015158114610b81578182fd5b600060208284031215610d47578081fd5b5035919050565b600060208284031215610d5f578081fd5b5051919050565b60008251610d78818460208701611141565b9190910192915050565b73ffffffffffffffffffffffffffffffffffffffff91909116815260200190565b73ffffffffffffffffffffffffffffffffffffffff9384168152919092166020820152604081019190915260600190565b73ffffffffffffffffffffffffffffffffffffffff929092168252602082015260400190565b60ff93909316835273ffffffffffffffffffffffffffffffffffffffff919091166020830152604082015260600190565b60ff929092168252602082015260400190565b60ff9390931683526020830191909152604082015260600190565b6000602082528251806020840152610e78816040850160208701611141565b601f017fffffffffffffffffffffffffffffffffffffffffffffffffffffffffffffffe0169190910160400192915050565b6020808252601c908201527f4e6f7420656e6f756768207374616b6520746f20776974686472617700000000604082015260600190565b60208082526026908201527f4f776e61626c653a206e6577206f776e657220697320746865207a65726f206160408201527f6464726573730000000000000000000000000000000000000000000000000000606082015260800190565b6020808252601c908201527f496e63656e74697665206861736e277420737461727465642079657400000000604082015260600190565b60208082526026908201527f416464726573733a20696e73756666696369656e742062616c616e636520666f60408201527f722063616c6c0000000000000000000000000000000000000000000000000000606082015260800190565b60208082526013908201527f4e6f207265676973746572656420636c61696d00000000000000000000000000604082015260600190565b6020808252818101527f4f776e61626c653a2063616c6c6572206973206e6f7420746865206f776e6572604082015260600190565b6020808252601e908201527f446973747269627574696f6e206973206f766572206f72207061757365640000604082015260600190565b6020808252601d908201527f416464726573733a2063616c6c20746f206e6f6e2d636f6e7472616374000000604082015260600190565b6020808252602a908201527f5361666545524332303a204552433230206f7065726174696f6e20646964206e60408201527f6f74207375636365656400000000000000000000000000000000000000000000606082015260800190565b90815260200190565b600082198211156111255761112561116d565b500190565b60008282101561113c5761113c61116d565b500390565b60005b8381101561115c578181015183820152602001611144565b83811115610ab35750506000910152565b7f4e487b7100000000000000000000000000000000000000000000000000000000600052601160045260246000fdfea2646970667358221220906314854c39d694c34074803c3efa1eeb9b767526b2752220fd7fec529812d364736f6c63430008010033",
  "linkReferences": {},
  "deployedLinkReferences": {}
}