{
  "_format": "hh-sol-artifact-1",
  "contractName": "Fund",
  "sourceName": "contracts/Fund.sol",
  "abi": [
    {
      "inputs": [
        {
          "internalType": "address",
          "name": "_WETH",
          "type": "address"
        },
        {
          "internalType": "address",
          "name": "_roles",
          "type": "address"
        }
      ],
      "stateMutability": "nonpayable",
      "type": "constructor"
    },
    {
      "anonymous": false,
      "inputs": [
        {
          "indexed": true,
          "internalType": "address",
          "name": "previousOwner",
          "type": "address"
        },
        {
          "indexed": true,
          "internalType": "address",
          "name": "newOwner",
          "type": "address"
        }
      ],
      "name": "OwnershipTransferred",
      "type": "event"
    },
    {
      "inputs": [],
      "name": "ADMIN",
      "outputs": [
        {
          "internalType": "uint16",
          "name": "",
          "type": "uint16"
        }
      ],
      "stateMutability": "view",
      "type": "function"
    },
    {
      "inputs": [],
      "name": "AUTHORIZED_FUND_TRADER",
      "outputs": [
        {
          "internalType": "uint16",
          "name": "",
          "type": "uint16"
        }
      ],
      "stateMutability": "view",
      "type": "function"
    },
    {
      "inputs": [],
      "name": "BORROWER",
      "outputs": [
        {
          "internalType": "uint16",
          "name": "",
          "type": "uint16"
        }
      ],
      "stateMutability": "view",
      "type": "function"
    },
    {
      "inputs": [],
      "name": "FEE_CONTROLLER",
      "outputs": [
        {
          "internalType": "uint16",
          "name": "",
          "type": "uint16"
        }
      ],
      "stateMutability": "view",
      "type": "function"
    },
    {
      "inputs": [],
      "name": "FEE_SOURCE",
      "outputs": [
        {
          "internalType": "uint16",
          "name": "",
          "type": "uint16"
        }
      ],
      "stateMutability": "view",
      "type": "function"
    },
    {
      "inputs": [],
      "name": "FUND",
      "outputs": [
        {
          "internalType": "uint16",
          "name": "",
          "type": "uint16"
        }
      ],
      "stateMutability": "view",
      "type": "function"
    },
    {
      "inputs": [],
      "name": "INCENTIVE_DISTRIBUTION",
      "outputs": [
        {
          "internalType": "uint16",
          "name": "",
          "type": "uint16"
        }
      ],
      "stateMutability": "view",
      "type": "function"
    },
    {
      "inputs": [],
      "name": "INCENTIVE_REPORTER",
      "outputs": [
        {
          "internalType": "uint16",
          "name": "",
          "type": "uint16"
        }
      ],
      "stateMutability": "view",
      "type": "function"
    },
    {
      "inputs": [],
      "name": "LENDING",
      "outputs": [
        {
          "internalType": "uint16",
          "name": "",
          "type": "uint16"
        }
      ],
      "stateMutability": "view",
      "type": "function"
    },
    {
      "inputs": [],
      "name": "LIQUIDATOR",
      "outputs": [
        {
          "internalType": "uint16",
          "name": "",
          "type": "uint16"
        }
      ],
      "stateMutability": "view",
      "type": "function"
    },
    {
      "inputs": [],
      "name": "MARGIN_CALLER",
      "outputs": [
        {
          "internalType": "uint16",
          "name": "",
          "type": "uint16"
        }
      ],
      "stateMutability": "view",
      "type": "function"
    },
    {
      "inputs": [],
      "name": "MARGIN_TRADER",
      "outputs": [
        {
          "internalType": "uint16",
          "name": "",
          "type": "uint16"
        }
      ],
      "stateMutability": "view",
      "type": "function"
    },
    {
      "inputs": [],
      "name": "MARGIN_TRADING",
      "outputs": [
        {
          "internalType": "uint16",
          "name": "",
          "type": "uint16"
        }
      ],
      "stateMutability": "view",
      "type": "function"
    },
    {
      "inputs": [],
      "name": "PRICE_CONTROLLER",
      "outputs": [
        {
          "internalType": "uint16",
          "name": "",
          "type": "uint16"
        }
      ],
      "stateMutability": "view",
      "type": "function"
    },
    {
      "inputs": [],
      "name": "ROUTER",
      "outputs": [
        {
          "internalType": "uint16",
          "name": "",
          "type": "uint16"
        }
      ],
      "stateMutability": "view",
      "type": "function"
    },
    {
      "inputs": [],
      "name": "TOKEN_ACTIVATOR",
      "outputs": [
        {
          "internalType": "uint16",
          "name": "",
          "type": "uint16"
        }
      ],
      "stateMutability": "view",
      "type": "function"
    },
    {
      "inputs": [],
      "name": "WETH",
      "outputs": [
        {
          "internalType": "address",
          "name": "",
          "type": "address"
        }
      ],
      "stateMutability": "view",
      "type": "function"
    },
    {
      "inputs": [],
      "name": "WITHDRAWER",
      "outputs": [
        {
          "internalType": "uint16",
          "name": "",
          "type": "uint16"
        }
      ],
      "stateMutability": "view",
      "type": "function"
    },
    {
      "inputs": [
        {
          "internalType": "address",
          "name": "token",
          "type": "address"
        }
      ],
      "name": "activateToken",
      "outputs": [],
      "stateMutability": "nonpayable",
      "type": "function"
    },
    {
      "inputs": [
        {
          "internalType": "address",
          "name": "",
          "type": "address"
        }
      ],
      "name": "activeTokens",
      "outputs": [
        {
          "internalType": "bool",
          "name": "",
          "type": "bool"
        }
      ],
      "stateMutability": "view",
      "type": "function"
    },
    {
      "inputs": [
        {
          "internalType": "address",
          "name": "token",
          "type": "address"
        }
      ],
      "name": "deactivateToken",
      "outputs": [],
      "stateMutability": "nonpayable",
      "type": "function"
    },
    {
      "inputs": [
        {
          "internalType": "address",
          "name": "depositToken",
          "type": "address"
        },
        {
          "internalType": "uint256",
          "name": "depositAmount",
          "type": "uint256"
        }
      ],
      "name": "deposit",
      "outputs": [
        {
          "internalType": "bool",
          "name": "",
          "type": "bool"
        }
      ],
      "stateMutability": "nonpayable",
      "type": "function"
    },
    {
      "inputs": [
        {
          "internalType": "address",
          "name": "sender",
          "type": "address"
        },
        {
          "internalType": "address",
          "name": "depositToken",
          "type": "address"
        },
        {
          "internalType": "uint256",
          "name": "depositAmount",
          "type": "uint256"
        }
      ],
      "name": "depositFor",
      "outputs": [
        {
          "internalType": "bool",
          "name": "",
          "type": "bool"
        }
      ],
      "stateMutability": "nonpayable",
      "type": "function"
    },
    {
      "inputs": [],
      "name": "depositToWETH",
      "outputs": [],
      "stateMutability": "payable",
      "type": "function"
    },
    {
      "inputs": [
        {
          "internalType": "uint16",
          "name": "",
          "type": "uint16"
        }
      ],
      "name": "mainCharacterCache",
      "outputs": [
        {
          "internalType": "address",
          "name": "",
          "type": "address"
        }
      ],
      "stateMutability": "view",
      "type": "function"
    },
    {
      "inputs": [],
      "name": "owner",
      "outputs": [
        {
          "internalType": "address",
          "name": "",
          "type": "address"
        }
      ],
      "stateMutability": "view",
      "type": "function"
    },
    {
      "inputs": [],
      "name": "renounceOwnership",
      "outputs": [],
      "stateMutability": "nonpayable",
      "type": "function"
    },
    {
      "inputs": [
        {
          "internalType": "address",
          "name": "",
          "type": "address"
        },
        {
          "internalType": "uint16",
          "name": "",
          "type": "uint16"
        }
      ],
      "name": "roleCache",
      "outputs": [
        {
          "internalType": "bool",
          "name": "",
          "type": "bool"
        }
      ],
      "stateMutability": "view",
      "type": "function"
    },
    {
      "inputs": [],
      "name": "roles",
      "outputs": [
        {
          "internalType": "contract Roles",
          "name": "",
          "type": "address"
        }
      ],
      "stateMutability": "view",
      "type": "function"
    },
    {
      "inputs": [
        {
          "internalType": "address",
          "name": "newOwner",
          "type": "address"
        }
      ],
      "name": "transferOwnership",
      "outputs": [],
      "stateMutability": "nonpayable",
      "type": "function"
    },
    {
      "inputs": [
        {
          "internalType": "uint16",
          "name": "role",
          "type": "uint16"
        }
      ],
      "name": "updateMainCharacterCache",
      "outputs": [],
      "stateMutability": "nonpayable",
      "type": "function"
    },
    {
      "inputs": [
        {
          "internalType": "uint16",
          "name": "role",
          "type": "uint16"
        },
        {
          "internalType": "address",
          "name": "contr",
          "type": "address"
        }
      ],
      "name": "updateRoleCache",
      "outputs": [],
      "stateMutability": "nonpayable",
      "type": "function"
    },
    {
      "inputs": [
        {
          "internalType": "address",
          "name": "withdrawalToken",
          "type": "address"
        },
        {
          "internalType": "address",
          "name": "recipient",
          "type": "address"
        },
        {
          "internalType": "uint256",
          "name": "withdrawalAmount",
          "type": "uint256"
        }
      ],
      "name": "withdraw",
      "outputs": [
        {
          "internalType": "bool",
          "name": "",
          "type": "bool"
        }
      ],
      "stateMutability": "nonpayable",
      "type": "function"
    },
    {
      "inputs": [
        {
          "internalType": "address",
          "name": "recipient",
          "type": "address"
        },
        {
          "internalType": "uint256",
          "name": "withdrawalAmount",
          "type": "uint256"
        }
      ],
      "name": "withdrawETH",
      "outputs": [],
      "stateMutability": "nonpayable",
      "type": "function"
    }
  ],
  "bytecode": "0x60806040523480156200001157600080fd5b50604051620016ba380380620016ba8339810160408190526200003491620000ef565b600080546001600160a01b0319166001600160a01b03831617815562000059620000ce565b600380546001600160a01b0319166001600160a01b038316908117909155604051919250906000907f8be0079c531659141344cd1fd0a4f28419497f9722a3daafe3b4186f6b6457e0908290a35050600480546001600160a01b0319166001600160a01b039290921691909117905562000126565b3390565b80516001600160a01b0381168114620000ea57600080fd5b919050565b6000806040838503121562000102578182fd5b6200010d83620000d2565b91506200011d60208401620000d2565b90509250929050565b61158480620001366000396000f3fe6080604052600436106102195760003560e01c8063715018a61161011d578063ad5c4648116100b0578063c76139d01161007f578063d5d7ed7f11610064578063d5d7ed7f1461053c578063d9caed1214610551578063f2fde38b1461057157610219565b8063c76139d014610512578063cacf8d451461052757610219565b8063ad5c46481461049d578063b3db428b146104b2578063b4481652146104d2578063c34316c3146104f257610219565b8063a0098d69116100ec578063a0098d6914610456578063a6a5f9fe1461046b578063a94c7c3414610473578063a9cc05361461048857610219565b8063715018a61461040257806381ca66001461041757806383a49c7c1461042c5780638da5cb5b1461044157610219565b806346b88796116101b05780635acf69031161017f578063669419841161016457806366941984146103ad57806368173bcf146103c25780636cd5cd60146103e257610219565b80635acf6903146103785780635c275a391461039857610219565b806346b88796146103015780634782f7791461031657806347e7ef241461033657806348fb27b81461036357610219565b80632a0acc6a116101ec5780632a0acc6a146102a05780632fe94def146102b557806332fe7b26146102ca578063392f5f64146102df57610219565b8063065d570f1461021e5780630d1ce2d2146102495780631bc5d81d1461026b57806320e8d81914610280575b600080fd5b34801561022a57600080fd5b50610233610591565b60405161024091906114e7565b60405180910390f35b34801561025557600080fd5b50610269610264366004611106565b610596565b005b34801561027757600080fd5b5061023361062d565b34801561028c57600080fd5b5061026961029b366004611217565b610632565b3480156102ac57600080fd5b50610233610743565b3480156102c157600080fd5b50610233610748565b3480156102d657600080fd5b5061023361074d565b3480156102eb57600080fd5b506102f4610752565b604051610240919061124d565b34801561030d57600080fd5b5061023361076e565b34801561032257600080fd5b506102696103313660046111b2565b610773565b34801561034257600080fd5b506103566103513660046111b2565b610881565b60405161024091906112c5565b34801561036f57600080fd5b5061023361098f565b34801561038457600080fd5b50610356610393366004611106565b610994565b3480156103a457600080fd5b506102336109a9565b3480156103b957600080fd5b506102336109ae565b3480156103ce57600080fd5b506102696103dd366004611106565b6109b3565b3480156103ee57600080fd5b506102696103fd3660046111fd565b610a3e565b34801561040e57600080fd5b50610269610b3d565b34801561042357600080fd5b50610233610c1f565b34801561043857600080fd5b50610233610c24565b34801561044d57600080fd5b506102f4610c29565b34801561046257600080fd5b50610233610c45565b610269610c4a565b34801561047f57600080fd5b50610233610cd0565b34801561049457600080fd5b50610233610cd5565b3480156104a957600080fd5b506102f4610cda565b3480156104be57600080fd5b506103566104cd36600461113e565b610cf6565b3480156104de57600080fd5b506102f46104ed3660046111fd565b610e44565b3480156104fe57600080fd5b5061035661050d36600461117e565b610e6c565b34801561051e57600080fd5b50610233610e8c565b34801561053357600080fd5b50610233610e91565b34801561054857600080fd5b50610233610e96565b34801561055d57600080fd5b5061035661056c36600461113e565b610e9b565b34801561057d57600080fd5b5061026961058c366004611106565b610f30565b600381565b61059f3361107e565b6105de576040517f08c379a00000000000000000000000000000000000000000000000000000000081526004016105d590611307565b60405180910390fd5b73ffffffffffffffffffffffffffffffffffffffff16600090815260056020526040902080547fffffffffffffffffffffffffffffffffffffffffffffffffffffffffffffff00166001179055565b600881565b6000546040517fd87fefd200000000000000000000000000000000000000000000000000000000815273ffffffffffffffffffffffffffffffffffffffff9091169063d87fefd29061068a90859085906004016114f6565b60206040518083038186803b1580156106a257600080fd5b505afa1580156106b6573d6000803e3d6000fd5b505050506040513d601f19601f820116820180604052508101906106da91906111dd565b73ffffffffffffffffffffffffffffffffffffffff909116600090815260026020908152604080832061ffff90951683529390529190912080549115157fffffffffffffffffffffffffffffffffffffffffffffffffffffffffffffff00909216919091179055565b606b81565b606981565b606781565b60005473ffffffffffffffffffffffffffffffffffffffff1681565b600681565b61077c336110b9565b6107b2576040517f08c379a00000000000000000000000000000000000000000000000000000000081526004016105d590611364565b600480546040517f2e1a7d4d00000000000000000000000000000000000000000000000000000000815273ffffffffffffffffffffffffffffffffffffffff90911691632e1a7d4d9161080791859101611520565b600060405180830381600087803b15801561082157600080fd5b505af1158015610835573d6000803e3d6000fd5b505060405173ffffffffffffffffffffffffffffffffffffffff8516925083156108fc02915083906000818181858888f1935050505015801561087c573d6000803e3d6000fd5b505050565b73ffffffffffffffffffffffffffffffffffffffff821660009081526005602052604081205460ff166108e0576040517f08c379a00000000000000000000000000000000000000000000000000000000081526004016105d5906112d0565b6040517f23b872dd00000000000000000000000000000000000000000000000000000000815273ffffffffffffffffffffffffffffffffffffffff8416906323b872dd906109369033903090879060040161126e565b602060405180830381600087803b15801561095057600080fd5b505af1158015610964573d6000803e3d6000fd5b505050506040513d601f19601f8201168201806040525081019061098891906111dd565b9392505050565b606681565b60056020526000908152604090205460ff1681565b606581565b600181565b6109bc3361107e565b6109f2576040517f08c379a00000000000000000000000000000000000000000000000000000000081526004016105d590611307565b73ffffffffffffffffffffffffffffffffffffffff16600090815260056020526040902080547fffffffffffffffffffffffffffffffffffffffffffffffffffffffffffffff00169055565b6000546040517f3c9c8f9c00000000000000000000000000000000000000000000000000000000815273ffffffffffffffffffffffffffffffffffffffff90911690633c9c8f9c90610a949084906004016114e7565b60206040518083038186803b158015610aac57600080fd5b505afa158015610ac0573d6000803e3d6000fd5b505050506040513d601f19601f82011682018060405250810190610ae49190611122565b61ffff91909116600090815260016020526040902080547fffffffffffffffffffffffff00000000000000000000000000000000000000001673ffffffffffffffffffffffffffffffffffffffff909216919091179055565b610b456110f0565b73ffffffffffffffffffffffffffffffffffffffff16610b63610c29565b73ffffffffffffffffffffffffffffffffffffffff1614610bb0576040517f08c379a00000000000000000000000000000000000000000000000000000000081526004016105d590611455565b60035460405160009173ffffffffffffffffffffffffffffffffffffffff16907f8be0079c531659141344cd1fd0a4f28419497f9722a3daafe3b4186f6b6457e0908390a3600380547fffffffffffffffffffffffff0000000000000000000000000000000000000000169055565b606a81565b600981565b60035473ffffffffffffffffffffffffffffffffffffffff1690565b600281565b60048054604080517fd0e30db0000000000000000000000000000000000000000000000000000000008152905173ffffffffffffffffffffffffffffffffffffffff9092169263d0e30db0923492808301926000929182900301818588803b158015610cb557600080fd5b505af1158015610cc9573d6000803e3d6000fd5b5050505050565b600581565b606881565b60045473ffffffffffffffffffffffffffffffffffffffff1681565b73ffffffffffffffffffffffffffffffffffffffff821660009081526005602052604081205460ff16610d55576040517f08c379a00000000000000000000000000000000000000000000000000000000081526004016105d5906112d0565b610d5e336110b9565b610d94576040517f08c379a00000000000000000000000000000000000000000000000000000000081526004016105d59061148a565b6040517f23b872dd00000000000000000000000000000000000000000000000000000000815273ffffffffffffffffffffffffffffffffffffffff8416906323b872dd90610dea9087903090879060040161126e565b602060405180830381600087803b158015610e0457600080fd5b505af1158015610e18573d6000803e3d6000fd5b505050506040513d601f19601f82011682018060405250810190610e3c91906111dd565b949350505050565b60016020526000908152604090205473ffffffffffffffffffffffffffffffffffffffff1681565b600260209081526000928352604080842090915290825290205460ff1681565b606c81565b600481565b600781565b6000610ea6336110b9565b610edc576040517f08c379a00000000000000000000000000000000000000000000000000000000081526004016105d5906113f8565b6040517fa9059cbb00000000000000000000000000000000000000000000000000000000815273ffffffffffffffffffffffffffffffffffffffff85169063a9059cbb90610dea908690869060040161129f565b610f386110f0565b73ffffffffffffffffffffffffffffffffffffffff16610f56610c29565b73ffffffffffffffffffffffffffffffffffffffff1614610fa3576040517f08c379a00000000000000000000000000000000000000000000000000000000081526004016105d590611455565b73ffffffffffffffffffffffffffffffffffffffff8116610ff0576040517f08c379a00000000000000000000000000000000000000000000000000000000081526004016105d59061139b565b60035460405173ffffffffffffffffffffffffffffffffffffffff8084169216907f8be0079c531659141344cd1fd0a4f28419497f9722a3daafe3b4186f6b6457e090600090a3600380547fffffffffffffffffffffffff00000000000000000000000000000000000000001673ffffffffffffffffffffffffffffffffffffffff92909216919091179055565b73ffffffffffffffffffffffffffffffffffffffff811660009081526002602090815260408083206009845290915290205460ff165b919050565b73ffffffffffffffffffffffffffffffffffffffff1660009081526002602090815260408083206001845290915290205460ff1690565b3390565b803561ffff811681146110b457600080fd5b600060208284031215611117578081fd5b813561098881611529565b600060208284031215611133578081fd5b815161098881611529565b600080600060608486031215611152578182fd5b833561115d81611529565b9250602084013561116d81611529565b929592945050506040919091013590565b60008060408385031215611190578182fd5b823561119b81611529565b91506111a9602084016110f4565b90509250929050565b600080604083850312156111c4578182fd5b82356111cf81611529565b946020939093013593505050565b6000602082840312156111ee578081fd5b81518015158114610988578182fd5b60006020828403121561120e578081fd5b610988826110f4565b60008060408385031215611229578182fd5b611232836110f4565b9150602083013561124281611529565b809150509250929050565b73ffffffffffffffffffffffffffffffffffffffff91909116815260200190565b73ffffffffffffffffffffffffffffffffffffffff9384168152919092166020820152604081019190915260600190565b73ffffffffffffffffffffffffffffffffffffffff929092168252602082015260400190565b901515815260200190565b6020808252601b908201527f4465706f73697420746f6b656e206973206e6f74206163746976650000000000604082015260600190565b60208082526029908201527f41646472657373206e6f7420617574686f72697a656420746f2061637469766160408201527f746520746f6b656e730000000000000000000000000000000000000000000000606082015260800190565b6020808252601a908201527f4e6f7420617574686f72697a656420746f207769746864726177000000000000604082015260600190565b60208082526026908201527f4f776e61626c653a206e6577206f776e657220697320746865207a65726f206160408201527f6464726573730000000000000000000000000000000000000000000000000000606082015260800190565b60208082526023908201527f436f6e7472616374206e6f7420617574686f72697a656420746f20776974686460408201527f7261770000000000000000000000000000000000000000000000000000000000606082015260800190565b6020808252818101527f4f776e61626c653a2063616c6c6572206973206e6f7420746865206f776e6572604082015260600190565b60208082526022908201527f436f6e7472616374206e6f7420617574686f72697a656420746f206465706f7360408201527f6974000000000000000000000000000000000000000000000000000000000000606082015260800190565b61ffff91909116815260200190565b61ffff92909216825273ffffffffffffffffffffffffffffffffffffffff16602082015260400190565b90815260200190565b73ffffffffffffffffffffffffffffffffffffffff8116811461154b57600080fd5b5056fea2646970667358221220a22b753d396879aa1437a9bd51c44fdd969a0758dfd37e0a3c39a90c9178930e64736f6c63430008010033",
  "linkReferences": {},
  "deployedLinkReferences": {}
}