{
  "_format": "hh-sol-artifact-1",
  "contractName": "Fund",
  "sourceName": "contracts/Fund.sol",
  "abi": [
    {
      "inputs": [
        {
          "internalType": "address",
          "name": "_WETH",
          "type": "address"
        },
        {
          "internalType": "address",
          "name": "_roles",
          "type": "address"
        }
      ],
      "stateMutability": "nonpayable",
      "type": "constructor"
    },
    {
      "anonymous": false,
      "inputs": [
        {
          "indexed": true,
          "internalType": "address",
          "name": "previousOwner",
          "type": "address"
        },
        {
          "indexed": true,
          "internalType": "address",
          "name": "newOwner",
          "type": "address"
        }
      ],
      "name": "OwnershipTransferred",
      "type": "event"
    },
    {
      "inputs": [],
      "name": "ADMIN",
      "outputs": [
        {
          "internalType": "uint16",
          "name": "",
          "type": "uint16"
        }
      ],
      "stateMutability": "view",
      "type": "function"
    },
    {
      "inputs": [],
      "name": "AUTHORIZED_FUND_TRADER",
      "outputs": [
        {
          "internalType": "uint16",
          "name": "",
          "type": "uint16"
        }
      ],
      "stateMutability": "view",
      "type": "function"
    },
    {
      "inputs": [],
      "name": "BORROWER",
      "outputs": [
        {
          "internalType": "uint16",
          "name": "",
          "type": "uint16"
        }
      ],
      "stateMutability": "view",
      "type": "function"
    },
    {
      "inputs": [],
      "name": "FEE_CONTROLLER",
      "outputs": [
        {
          "internalType": "uint16",
          "name": "",
          "type": "uint16"
        }
      ],
      "stateMutability": "view",
      "type": "function"
    },
    {
      "inputs": [],
      "name": "FEE_SOURCE",
      "outputs": [
        {
          "internalType": "uint16",
          "name": "",
          "type": "uint16"
        }
      ],
      "stateMutability": "view",
      "type": "function"
    },
    {
      "inputs": [],
      "name": "FUND",
      "outputs": [
        {
          "internalType": "uint16",
          "name": "",
          "type": "uint16"
        }
      ],
      "stateMutability": "view",
      "type": "function"
    },
    {
      "inputs": [],
      "name": "INCENTIVE_REPORTER",
      "outputs": [
        {
          "internalType": "uint16",
          "name": "",
          "type": "uint16"
        }
      ],
      "stateMutability": "view",
      "type": "function"
    },
    {
      "inputs": [],
      "name": "LENDING",
      "outputs": [
        {
          "internalType": "uint16",
          "name": "",
          "type": "uint16"
        }
      ],
      "stateMutability": "view",
      "type": "function"
    },
    {
      "inputs": [],
      "name": "LIQUIDATOR",
      "outputs": [
        {
          "internalType": "uint16",
          "name": "",
          "type": "uint16"
        }
      ],
      "stateMutability": "view",
      "type": "function"
    },
    {
      "inputs": [],
      "name": "MARGIN_CALLER",
      "outputs": [
        {
          "internalType": "uint16",
          "name": "",
          "type": "uint16"
        }
      ],
      "stateMutability": "view",
      "type": "function"
    },
    {
      "inputs": [],
      "name": "MARGIN_TRADER",
      "outputs": [
        {
          "internalType": "uint16",
          "name": "",
          "type": "uint16"
        }
      ],
      "stateMutability": "view",
      "type": "function"
    },
    {
      "inputs": [],
      "name": "MARGIN_TRADING",
      "outputs": [
        {
          "internalType": "uint16",
          "name": "",
          "type": "uint16"
        }
      ],
      "stateMutability": "view",
      "type": "function"
    },
    {
      "inputs": [],
      "name": "PRICE_CONTROLLER",
      "outputs": [
        {
          "internalType": "uint16",
          "name": "",
          "type": "uint16"
        }
      ],
      "stateMutability": "view",
      "type": "function"
    },
    {
      "inputs": [],
      "name": "ROUTER",
      "outputs": [
        {
          "internalType": "uint16",
          "name": "",
          "type": "uint16"
        }
      ],
      "stateMutability": "view",
      "type": "function"
    },
    {
      "inputs": [],
      "name": "TOKEN_ACTIVATOR",
      "outputs": [
        {
          "internalType": "uint16",
          "name": "",
          "type": "uint16"
        }
      ],
      "stateMutability": "view",
      "type": "function"
    },
    {
      "inputs": [],
      "name": "WETH",
      "outputs": [
        {
          "internalType": "address",
          "name": "",
          "type": "address"
        }
      ],
      "stateMutability": "view",
      "type": "function"
    },
    {
      "inputs": [],
      "name": "WITHDRAWER",
      "outputs": [
        {
          "internalType": "uint16",
          "name": "",
          "type": "uint16"
        }
      ],
      "stateMutability": "view",
      "type": "function"
    },
    {
      "inputs": [
        {
          "internalType": "address",
          "name": "token",
          "type": "address"
        }
      ],
      "name": "activateToken",
      "outputs": [],
      "stateMutability": "nonpayable",
      "type": "function"
    },
    {
      "inputs": [
        {
          "internalType": "address",
          "name": "",
          "type": "address"
        }
      ],
      "name": "activeTokens",
      "outputs": [
        {
          "internalType": "bool",
          "name": "",
          "type": "bool"
        }
      ],
      "stateMutability": "view",
      "type": "function"
    },
    {
      "inputs": [
        {
          "internalType": "address",
          "name": "token",
          "type": "address"
        }
      ],
      "name": "deactivateToken",
      "outputs": [],
      "stateMutability": "nonpayable",
      "type": "function"
    },
    {
      "inputs": [
        {
          "internalType": "address",
          "name": "depositToken",
          "type": "address"
        },
        {
          "internalType": "uint256",
          "name": "depositAmount",
          "type": "uint256"
        }
      ],
      "name": "deposit",
      "outputs": [
        {
          "internalType": "bool",
          "name": "",
          "type": "bool"
        }
      ],
      "stateMutability": "nonpayable",
      "type": "function"
    },
    {
      "inputs": [
        {
          "internalType": "address",
          "name": "sender",
          "type": "address"
        },
        {
          "internalType": "address",
          "name": "depositToken",
          "type": "address"
        },
        {
          "internalType": "uint256",
          "name": "depositAmount",
          "type": "uint256"
        }
      ],
      "name": "depositFor",
      "outputs": [
        {
          "internalType": "bool",
          "name": "",
          "type": "bool"
        }
      ],
      "stateMutability": "nonpayable",
      "type": "function"
    },
    {
      "inputs": [],
      "name": "depositToWETH",
      "outputs": [],
      "stateMutability": "payable",
      "type": "function"
    },
    {
      "inputs": [],
      "name": "owner",
      "outputs": [
        {
          "internalType": "address",
          "name": "",
          "type": "address"
        }
      ],
      "stateMutability": "view",
      "type": "function"
    },
    {
      "inputs": [],
      "name": "renounceOwnership",
      "outputs": [],
      "stateMutability": "nonpayable",
      "type": "function"
    },
    {
      "inputs": [],
      "name": "roles",
      "outputs": [
        {
          "internalType": "contract Roles",
          "name": "",
          "type": "address"
        }
      ],
      "stateMutability": "view",
      "type": "function"
    },
    {
      "inputs": [
        {
          "internalType": "address",
          "name": "newOwner",
          "type": "address"
        }
      ],
      "name": "transferOwnership",
      "outputs": [],
      "stateMutability": "nonpayable",
      "type": "function"
    },
    {
      "inputs": [
        {
          "internalType": "address",
          "name": "withdrawalToken",
          "type": "address"
        },
        {
          "internalType": "address",
          "name": "recipient",
          "type": "address"
        },
        {
          "internalType": "uint256",
          "name": "withdrawalAmount",
          "type": "uint256"
        }
      ],
      "name": "withdraw",
      "outputs": [
        {
          "internalType": "bool",
          "name": "",
          "type": "bool"
        }
      ],
      "stateMutability": "nonpayable",
      "type": "function"
    },
    {
      "inputs": [
        {
          "internalType": "address",
          "name": "recipient",
          "type": "address"
        },
        {
          "internalType": "uint256",
          "name": "withdrawalAmount",
          "type": "uint256"
        }
      ],
      "name": "withdrawETH",
      "outputs": [],
      "stateMutability": "nonpayable",
      "type": "function"
    }
  ],
  "bytecode": "0x608060405234801561001057600080fd5b5060405161134038038061134083398101604081905261002f916100e6565b600080546001600160a01b0319166001600160a01b0383161781556100526100c6565b600180546001600160a01b0319166001600160a01b038316908117909155604051919250906000907f8be0079c531659141344cd1fd0a4f28419497f9722a3daafe3b4186f6b6457e0908290a35050600280546001600160a01b0319166001600160a01b0392909216919091179055610118565b3390565b80516001600160a01b03811681146100e157600080fd5b919050565b600080604083850312156100f8578182fd5b610101836100ca565b915061010f602084016100ca565b90509250929050565b611219806101276000396000f3fe6080604052600436106101c25760003560e01c806368173bcf116100f7578063a94c7c3411610095578063cacf8d4511610064578063cacf8d451461043b578063d5d7ed7f14610450578063d9caed1214610465578063f2fde38b14610485576101c2565b8063a94c7c34146103dc578063a9cc0536146103f1578063ad5c464814610406578063b3db428b1461041b576101c2565b806383a49c7c116100d157806383a49c7c146103955780638da5cb5b146103aa578063a0098d69146103bf578063a6a5f9fe146103d4576101c2565b806368173bcf1461034b578063715018a61461036b57806381ca660014610380576101c2565b806346b887961161016457806348fb27b81161013e57806348fb27b8146102ec5780635acf6903146103015780635c275a39146103215780636694198414610336576101c2565b806346b887961461028a5780634782f7791461029f57806347e7ef24146102bf576101c2565b80632a0acc6a116101a05780632a0acc6a146102295780632fe94def1461023e57806332fe7b2614610253578063392f5f6414610268576101c2565b8063065d570f146101c75780630d1ce2d2146101f25780631bc5d81d14610214575b600080fd5b3480156101d357600080fd5b506101dc6104a5565b6040516101e991906111a1565b60405180910390f35b3480156101fe57600080fd5b5061021261020d366004610e69565b6104aa565b005b34801561022057600080fd5b506101dc610541565b34801561023557600080fd5b506101dc610546565b34801561024a57600080fd5b506101dc61054b565b34801561025f57600080fd5b506101dc610550565b34801561027457600080fd5b5061027d610555565b6040516101e99190610f07565b34801561029657600080fd5b506101dc610571565b3480156102ab57600080fd5b506102126102ba366004610ebe565b610576565b3480156102cb57600080fd5b506102df6102da366004610ebe565b610685565b6040516101e99190610f7f565b3480156102f857600080fd5b506101dc610793565b34801561030d57600080fd5b506102df61031c366004610e69565b610798565b34801561032d57600080fd5b506101dc6107ad565b34801561034257600080fd5b506101dc6107b2565b34801561035757600080fd5b50610212610366366004610e69565b6107b7565b34801561037757600080fd5b50610212610842565b34801561038c57600080fd5b506101dc610924565b3480156103a157600080fd5b506101dc610929565b3480156103b657600080fd5b5061027d61092e565b3480156103cb57600080fd5b506101dc61094a565b61021261094f565b3480156103e857600080fd5b506101dc6109d4565b3480156103fd57600080fd5b506101dc6109d9565b34801561041257600080fd5b5061027d6109de565b34801561042757600080fd5b506102df610436366004610e83565b6109fa565b34801561044757600080fd5b506101dc610b48565b34801561045c57600080fd5b506101dc610b4d565b34801561047157600080fd5b506102df610480366004610e83565b610b52565b34801561049157600080fd5b506102126104a0366004610e69565b610be7565b600381565b6104b333610d35565b6104f2576040517f08c379a00000000000000000000000000000000000000000000000000000000081526004016104e990610fc1565b60405180910390fd5b73ffffffffffffffffffffffffffffffffffffffff16600090815260036020526040902080547fffffffffffffffffffffffffffffffffffffffffffffffffffffffffffffff00166001179055565b600881565b606b81565b606981565b606781565b60005473ffffffffffffffffffffffffffffffffffffffff1681565b600681565b61057f33610de7565b6105b5576040517f08c379a00000000000000000000000000000000000000000000000000000000081526004016104e99061101e565b6002546040517f2e1a7d4d00000000000000000000000000000000000000000000000000000000815273ffffffffffffffffffffffffffffffffffffffff90911690632e1a7d4d9061060b9084906004016111da565b600060405180830381600087803b15801561062557600080fd5b505af1158015610639573d6000803e3d6000fd5b505060405173ffffffffffffffffffffffffffffffffffffffff8516925083156108fc02915083906000818181858888f19350505050158015610680573d6000803e3d6000fd5b505050565b73ffffffffffffffffffffffffffffffffffffffff821660009081526003602052604081205460ff166106e4576040517f08c379a00000000000000000000000000000000000000000000000000000000081526004016104e990610f8a565b6040517f23b872dd00000000000000000000000000000000000000000000000000000000815273ffffffffffffffffffffffffffffffffffffffff8416906323b872dd9061073a90339030908790600401610f28565b602060405180830381600087803b15801561075457600080fd5b505af1158015610768573d6000803e3d6000fd5b505050506040513d601f19601f8201168201806040525081019061078c9190610ee7565b9392505050565b606681565b60036020526000908152604090205460ff1681565b606581565b600181565b6107c033610d35565b6107f6576040517f08c379a00000000000000000000000000000000000000000000000000000000081526004016104e990610fc1565b73ffffffffffffffffffffffffffffffffffffffff16600090815260036020526040902080547fffffffffffffffffffffffffffffffffffffffffffffffffffffffffffffff00169055565b61084a610e41565b73ffffffffffffffffffffffffffffffffffffffff1661086861092e565b73ffffffffffffffffffffffffffffffffffffffff16146108b5576040517f08c379a00000000000000000000000000000000000000000000000000000000081526004016104e99061110f565b60015460405160009173ffffffffffffffffffffffffffffffffffffffff16907f8be0079c531659141344cd1fd0a4f28419497f9722a3daafe3b4186f6b6457e0908390a3600180547fffffffffffffffffffffffff0000000000000000000000000000000000000000169055565b606a81565b600981565b60015473ffffffffffffffffffffffffffffffffffffffff1690565b600281565b600260009054906101000a900473ffffffffffffffffffffffffffffffffffffffff1673ffffffffffffffffffffffffffffffffffffffff1663d0e30db0346040518263ffffffff1660e01b81526004016000604051808303818588803b1580156109b957600080fd5b505af11580156109cd573d6000803e3d6000fd5b5050505050565b600581565b606881565b60025473ffffffffffffffffffffffffffffffffffffffff1681565b73ffffffffffffffffffffffffffffffffffffffff821660009081526003602052604081205460ff16610a59576040517f08c379a00000000000000000000000000000000000000000000000000000000081526004016104e990610f8a565b610a6233610de7565b610a98576040517f08c379a00000000000000000000000000000000000000000000000000000000081526004016104e990611144565b6040517f23b872dd00000000000000000000000000000000000000000000000000000000815273ffffffffffffffffffffffffffffffffffffffff8416906323b872dd90610aee90879030908790600401610f28565b602060405180830381600087803b158015610b0857600080fd5b505af1158015610b1c573d6000803e3d6000fd5b505050506040513d601f19601f82011682018060405250810190610b409190610ee7565b949350505050565b600481565b600781565b6000610b5d33610de7565b610b93576040517f08c379a00000000000000000000000000000000000000000000000000000000081526004016104e9906110b2565b6040517fa9059cbb00000000000000000000000000000000000000000000000000000000815273ffffffffffffffffffffffffffffffffffffffff85169063a9059cbb90610aee9086908690600401610f59565b610bef610e41565b73ffffffffffffffffffffffffffffffffffffffff16610c0d61092e565b73ffffffffffffffffffffffffffffffffffffffff1614610c5a576040517f08c379a00000000000000000000000000000000000000000000000000000000081526004016104e99061110f565b73ffffffffffffffffffffffffffffffffffffffff8116610ca7576040517f08c379a00000000000000000000000000000000000000000000000000000000081526004016104e990611055565b60015460405173ffffffffffffffffffffffffffffffffffffffff8084169216907f8be0079c531659141344cd1fd0a4f28419497f9722a3daafe3b4186f6b6457e090600090a3600180547fffffffffffffffffffffffff00000000000000000000000000000000000000001673ffffffffffffffffffffffffffffffffffffffff92909216919091179055565b600080546040517fd87fefd200000000000000000000000000000000000000000000000000000000815273ffffffffffffffffffffffffffffffffffffffff9091169063d87fefd290610d8f9060099086906004016111b0565b60206040518083038186803b158015610da757600080fd5b505afa158015610dbb573d6000803e3d6000fd5b505050506040513d601f19601f82011682018060405250810190610ddf9190610ee7565b90505b919050565b600080546040517fd87fefd200000000000000000000000000000000000000000000000000000000815273ffffffffffffffffffffffffffffffffffffffff9091169063d87fefd290610d8f9060019086906004016111b0565b3390565b803573ffffffffffffffffffffffffffffffffffffffff81168114610de257600080fd5b600060208284031215610e7a578081fd5b61078c82610e45565b600080600060608486031215610e97578182fd5b610ea084610e45565b9250610eae60208501610e45565b9150604084013590509250925092565b60008060408385031215610ed0578182fd5b610ed983610e45565b946020939093013593505050565b600060208284031215610ef8578081fd5b8151801515811461078c578182fd5b73ffffffffffffffffffffffffffffffffffffffff91909116815260200190565b73ffffffffffffffffffffffffffffffffffffffff9384168152919092166020820152604081019190915260600190565b73ffffffffffffffffffffffffffffffffffffffff929092168252602082015260400190565b901515815260200190565b6020808252601b908201527f4465706f73697420746f6b656e206973206e6f74206163746976650000000000604082015260600190565b60208082526029908201527f41646472657373206e6f7420617574686f72697a656420746f2061637469766160408201527f746520746f6b656e730000000000000000000000000000000000000000000000606082015260800190565b6020808252601a908201527f4e6f7420617574686f72697a656420746f207769746864726177000000000000604082015260600190565b60208082526026908201527f4f776e61626c653a206e6577206f776e657220697320746865207a65726f206160408201527f6464726573730000000000000000000000000000000000000000000000000000606082015260800190565b60208082526023908201527f436f6e7472616374206e6f7420617574686f72697a656420746f20776974686460408201527f7261770000000000000000000000000000000000000000000000000000000000606082015260800190565b6020808252818101527f4f776e61626c653a2063616c6c6572206973206e6f7420746865206f776e6572604082015260600190565b60208082526022908201527f436f6e7472616374206e6f7420617574686f72697a656420746f206465706f7360408201527f6974000000000000000000000000000000000000000000000000000000000000606082015260800190565b61ffff91909116815260200190565b61ffff92909216825273ffffffffffffffffffffffffffffffffffffffff16602082015260400190565b9081526020019056fea26469706673582212209ad86f6d2cf4bc8e621ec30e96df8498105d1dd2ce3ffb35c40baa6c0e156bc064736f6c63430008010033",
  "linkReferences": {},
  "deployedLinkReferences": {}
}