{
  "_format": "hh-sol-artifact-1",
  "contractName": "Fund",
  "sourceName": "contracts/Fund.sol",
  "abi": [
    {
      "inputs": [
        {
          "internalType": "address",
          "name": "_WETH",
          "type": "address"
        },
        {
          "internalType": "address",
          "name": "_roles",
          "type": "address"
        }
      ],
      "stateMutability": "nonpayable",
      "type": "constructor"
    },
    {
      "anonymous": false,
      "inputs": [
        {
          "indexed": true,
          "internalType": "address",
          "name": "previousOwner",
          "type": "address"
        },
        {
          "indexed": true,
          "internalType": "address",
          "name": "newOwner",
          "type": "address"
        }
      ],
      "name": "OwnershipTransferred",
      "type": "event"
    },
    {
      "inputs": [],
      "name": "AUTHORIZED_FUND_TRADER",
      "outputs": [
        {
          "internalType": "uint16",
          "name": "",
          "type": "uint16"
        }
      ],
      "stateMutability": "view",
      "type": "function"
    },
    {
      "inputs": [],
      "name": "BORROWER",
      "outputs": [
        {
          "internalType": "uint16",
          "name": "",
          "type": "uint16"
        }
      ],
      "stateMutability": "view",
      "type": "function"
    },
    {
      "inputs": [],
      "name": "FEE_CONTROLLER",
      "outputs": [
        {
          "internalType": "uint16",
          "name": "",
          "type": "uint16"
        }
      ],
      "stateMutability": "view",
      "type": "function"
    },
    {
      "inputs": [],
      "name": "FEE_SOURCE",
      "outputs": [
        {
          "internalType": "uint16",
          "name": "",
          "type": "uint16"
        }
      ],
      "stateMutability": "view",
      "type": "function"
    },
    {
      "inputs": [],
      "name": "FUND",
      "outputs": [
        {
          "internalType": "uint16",
          "name": "",
          "type": "uint16"
        }
      ],
      "stateMutability": "view",
      "type": "function"
    },
    {
      "inputs": [],
      "name": "INCENTIVE_REPORTER",
      "outputs": [
        {
          "internalType": "uint16",
          "name": "",
          "type": "uint16"
        }
      ],
      "stateMutability": "view",
      "type": "function"
    },
    {
      "inputs": [],
      "name": "LENDING",
      "outputs": [
        {
          "internalType": "uint16",
          "name": "",
          "type": "uint16"
        }
      ],
      "stateMutability": "view",
      "type": "function"
    },
    {
      "inputs": [],
      "name": "LIQUIDATOR",
      "outputs": [
        {
          "internalType": "uint16",
          "name": "",
          "type": "uint16"
        }
      ],
      "stateMutability": "view",
      "type": "function"
    },
    {
      "inputs": [],
      "name": "MARGIN_CALLER",
      "outputs": [
        {
          "internalType": "uint16",
          "name": "",
          "type": "uint16"
        }
      ],
      "stateMutability": "view",
      "type": "function"
    },
    {
      "inputs": [],
      "name": "MARGIN_TRADER",
      "outputs": [
        {
          "internalType": "uint16",
          "name": "",
          "type": "uint16"
        }
      ],
      "stateMutability": "view",
      "type": "function"
    },
    {
      "inputs": [],
      "name": "MARGIN_TRADING",
      "outputs": [
        {
          "internalType": "uint16",
          "name": "",
          "type": "uint16"
        }
      ],
      "stateMutability": "view",
      "type": "function"
    },
    {
      "inputs": [],
      "name": "PRICE_CONTROLLER",
      "outputs": [
        {
          "internalType": "uint16",
          "name": "",
          "type": "uint16"
        }
      ],
      "stateMutability": "view",
      "type": "function"
    },
    {
      "inputs": [],
      "name": "ROUTER",
      "outputs": [
        {
          "internalType": "uint16",
          "name": "",
          "type": "uint16"
        }
      ],
      "stateMutability": "view",
      "type": "function"
    },
    {
      "inputs": [],
      "name": "WETH",
      "outputs": [
        {
          "internalType": "address",
          "name": "",
          "type": "address"
        }
      ],
      "stateMutability": "view",
      "type": "function"
    },
    {
      "inputs": [],
      "name": "WITHDRAWER",
      "outputs": [
        {
          "internalType": "uint16",
          "name": "",
          "type": "uint16"
        }
      ],
      "stateMutability": "view",
      "type": "function"
    },
    {
      "inputs": [
        {
          "internalType": "address",
          "name": "",
          "type": "address"
        }
      ],
      "name": "activeTokens",
      "outputs": [
        {
          "internalType": "bool",
          "name": "",
          "type": "bool"
        }
      ],
      "stateMutability": "view",
      "type": "function"
    },
    {
      "inputs": [
        {
          "internalType": "uint256",
          "name": "",
          "type": "uint256"
        }
      ],
      "name": "approvedTokens",
      "outputs": [
        {
          "internalType": "address",
          "name": "",
          "type": "address"
        }
      ],
      "stateMutability": "view",
      "type": "function"
    },
    {
      "inputs": [
        {
          "internalType": "address",
          "name": "depositToken",
          "type": "address"
        },
        {
          "internalType": "uint256",
          "name": "depositAmount",
          "type": "uint256"
        }
      ],
      "name": "deposit",
      "outputs": [
        {
          "internalType": "bool",
          "name": "",
          "type": "bool"
        }
      ],
      "stateMutability": "nonpayable",
      "type": "function"
    },
    {
      "inputs": [
        {
          "internalType": "address",
          "name": "sender",
          "type": "address"
        },
        {
          "internalType": "address",
          "name": "depositToken",
          "type": "address"
        },
        {
          "internalType": "uint256",
          "name": "depositAmount",
          "type": "uint256"
        }
      ],
      "name": "depositFor",
      "outputs": [
        {
          "internalType": "bool",
          "name": "",
          "type": "bool"
        }
      ],
      "stateMutability": "nonpayable",
      "type": "function"
    },
    {
      "inputs": [],
      "name": "depositToWETH",
      "outputs": [],
      "stateMutability": "payable",
      "type": "function"
    },
    {
      "inputs": [],
      "name": "owner",
      "outputs": [
        {
          "internalType": "address",
          "name": "",
          "type": "address"
        }
      ],
      "stateMutability": "view",
      "type": "function"
    },
    {
      "inputs": [],
      "name": "renounceOwnership",
      "outputs": [],
      "stateMutability": "nonpayable",
      "type": "function"
    },
    {
      "inputs": [],
      "name": "roles",
      "outputs": [
        {
          "internalType": "contract Roles",
          "name": "",
          "type": "address"
        }
      ],
      "stateMutability": "view",
      "type": "function"
    },
    {
      "inputs": [
        {
          "internalType": "address",
          "name": "newOwner",
          "type": "address"
        }
      ],
      "name": "transferOwnership",
      "outputs": [],
      "stateMutability": "nonpayable",
      "type": "function"
    },
    {
      "inputs": [
        {
          "internalType": "address",
          "name": "withdrawalToken",
          "type": "address"
        },
        {
          "internalType": "address",
          "name": "recipient",
          "type": "address"
        },
        {
          "internalType": "uint256",
          "name": "withdrawalAmount",
          "type": "uint256"
        }
      ],
      "name": "withdraw",
      "outputs": [
        {
          "internalType": "bool",
          "name": "",
          "type": "bool"
        }
      ],
      "stateMutability": "nonpayable",
      "type": "function"
    },
    {
      "inputs": [
        {
          "internalType": "address",
          "name": "recipient",
          "type": "address"
        },
        {
          "internalType": "uint256",
          "name": "withdrawalAmount",
          "type": "uint256"
        }
      ],
      "name": "withdrawETH",
      "outputs": [],
      "stateMutability": "nonpayable",
      "type": "function"
    }
  ],
  "bytecode": "0x608060405234801561001057600080fd5b5060405161114a38038061114a83398101604081905261002f916100e6565b600080546001600160a01b0319166001600160a01b0383161781556100526100c6565b600180546001600160a01b0319166001600160a01b038316908117909155604051919250906000907f8be0079c531659141344cd1fd0a4f28419497f9722a3daafe3b4186f6b6457e0908290a35050600280546001600160a01b0319166001600160a01b0392909216919091179055610118565b3390565b80516001600160a01b03811681146100e157600080fd5b919050565b600080604083850312156100f8578182fd5b610101836100ca565b915061010f602084016100ca565b90509250929050565b611023806101276000396000f3fe6080604052600436106101a15760003560e01c8063715018a6116100e1578063a9cc05361161008a578063cacf8d4511610064578063cacf8d45146103d0578063d5d7ed7f146103e5578063d9caed12146103fa578063f2fde38b1461041a576101a1565b8063a9cc053614610386578063ad5c46481461039b578063b3db428b146103b0576101a1565b8063a0098d69116100bb578063a0098d6914610354578063a6a5f9fe14610369578063a94c7c3414610371576101a1565b8063715018a61461031557806381ca66001461032a5780638da5cb5b1461033f576101a1565b806346b887961161014e57806348fb27b81161012857806348fb27b8146102b65780635acf6903146102cb5780635c275a39146102eb5780636694198414610300576101a1565b806346b88796146102525780634782f7791461026757806347e7ef2414610289576101a1565b80632fe94def1161017f5780632fe94def1461021357806332fe7b2614610228578063392f5f641461023d576101a1565b8063065d570f146101a65780631bc5d81d146101d15780631dafede0146101e6575b600080fd5b3480156101b257600080fd5b506101bb61043a565b6040516101c89190610fd5565b60405180910390f35b3480156101dd57600080fd5b506101bb61043f565b3480156101f257600080fd5b50610206610201366004610d56565b610444565b6040516101c89190610d6e565b34801561021f57600080fd5b506101bb61047b565b34801561023457600080fd5b506101bb610480565b34801561024957600080fd5b50610206610485565b34801561025e57600080fd5b506101bb6104a1565b34801561027357600080fd5b50610287610282366004610d0d565b6104a6565b005b34801561029557600080fd5b506102a96102a4366004610d0d565b6105be565b6040516101c89190610e10565b3480156102c257600080fd5b506101bb6106cc565b3480156102d757600080fd5b506102a96102e6366004610cb8565b6106d1565b3480156102f757600080fd5b506101bb6106e6565b34801561030c57600080fd5b506101bb6106eb565b34801561032157600080fd5b506102876106f0565b34801561033657600080fd5b506101bb6107d2565b34801561034b57600080fd5b506102066107d7565b34801561036057600080fd5b506101bb6107f3565b6102876107f8565b34801561037d57600080fd5b506101bb61087d565b34801561039257600080fd5b506101bb610882565b3480156103a757600080fd5b50610206610887565b3480156103bc57600080fd5b506102a96103cb366004610cd2565b6108a3565b3480156103dc57600080fd5b506101bb6109f1565b3480156103f157600080fd5b506101bb6109f6565b34801561040657600080fd5b506102a9610415366004610cd2565b6109fb565b34801561042657600080fd5b50610287610435366004610cb8565b610a90565b600381565b600881565b6003818154811061045457600080fd5b60009182526020909120015473ffffffffffffffffffffffffffffffffffffffff16905081565b606981565b606781565b60005473ffffffffffffffffffffffffffffffffffffffff1681565b600681565b6104af33610bde565b6104ee576040517f08c379a00000000000000000000000000000000000000000000000000000000081526004016104e590610e52565b60405180910390fd5b6002546040517f2e1a7d4d00000000000000000000000000000000000000000000000000000000815273ffffffffffffffffffffffffffffffffffffffff90911690632e1a7d4d90610544908490600401610fe4565b600060405180830381600087803b15801561055e57600080fd5b505af1158015610572573d6000803e3d6000fd5b505060405173ffffffffffffffffffffffffffffffffffffffff8516925083156108fc02915083906000818181858888f193505050501580156105b9573d6000803e3d6000fd5b505050565b73ffffffffffffffffffffffffffffffffffffffff821660009081526004602052604081205460ff1661061d576040517f08c379a00000000000000000000000000000000000000000000000000000000081526004016104e590610e1b565b6040517f23b872dd00000000000000000000000000000000000000000000000000000000815273ffffffffffffffffffffffffffffffffffffffff8416906323b872dd9061067390339030908790600401610d8f565b602060405180830381600087803b15801561068d57600080fd5b505af11580156106a1573d6000803e3d6000fd5b505050506040513d601f19601f820116820180604052508101906106c59190610d36565b9392505050565b606681565b60046020526000908152604090205460ff1681565b606581565b600181565b6106f8610c90565b73ffffffffffffffffffffffffffffffffffffffff166107166107d7565b73ffffffffffffffffffffffffffffffffffffffff1614610763576040517f08c379a00000000000000000000000000000000000000000000000000000000081526004016104e590610f43565b60015460405160009173ffffffffffffffffffffffffffffffffffffffff16907f8be0079c531659141344cd1fd0a4f28419497f9722a3daafe3b4186f6b6457e0908390a3600180547fffffffffffffffffffffffff0000000000000000000000000000000000000000169055565b606a81565b60015473ffffffffffffffffffffffffffffffffffffffff1690565b600281565b600260009054906101000a900473ffffffffffffffffffffffffffffffffffffffff1673ffffffffffffffffffffffffffffffffffffffff1663d0e30db0346040518263ffffffff1660e01b81526004016000604051808303818588803b15801561086257600080fd5b505af1158015610876573d6000803e3d6000fd5b5050505050565b600581565b606881565b60025473ffffffffffffffffffffffffffffffffffffffff1681565b73ffffffffffffffffffffffffffffffffffffffff821660009081526004602052604081205460ff16610902576040517f08c379a00000000000000000000000000000000000000000000000000000000081526004016104e590610e1b565b61090b33610bde565b610941576040517f08c379a00000000000000000000000000000000000000000000000000000000081526004016104e590610f78565b6040517f23b872dd00000000000000000000000000000000000000000000000000000000815273ffffffffffffffffffffffffffffffffffffffff8416906323b872dd9061099790879030908790600401610d8f565b602060405180830381600087803b1580156109b157600080fd5b505af11580156109c5573d6000803e3d6000fd5b505050506040513d601f19601f820116820180604052508101906109e99190610d36565b949350505050565b600481565b600781565b6000610a0633610bde565b610a3c576040517f08c379a00000000000000000000000000000000000000000000000000000000081526004016104e590610ee6565b6040517fa9059cbb00000000000000000000000000000000000000000000000000000000815273ffffffffffffffffffffffffffffffffffffffff85169063a9059cbb906109979086908690600401610dea565b610a98610c90565b73ffffffffffffffffffffffffffffffffffffffff16610ab66107d7565b73ffffffffffffffffffffffffffffffffffffffff1614610b03576040517f08c379a00000000000000000000000000000000000000000000000000000000081526004016104e590610f43565b73ffffffffffffffffffffffffffffffffffffffff8116610b50576040517f08c379a00000000000000000000000000000000000000000000000000000000081526004016104e590610e89565b60015460405173ffffffffffffffffffffffffffffffffffffffff8084169216907f8be0079c531659141344cd1fd0a4f28419497f9722a3daafe3b4186f6b6457e090600090a3600180547fffffffffffffffffffffffff00000000000000000000000000000000000000001673ffffffffffffffffffffffffffffffffffffffff92909216919091179055565b600080546040517f7ecd187e00000000000000000000000000000000000000000000000000000000815273ffffffffffffffffffffffffffffffffffffffff90911690637ecd187e90610c38908590600190600401610dc0565b60206040518083038186803b158015610c5057600080fd5b505afa158015610c64573d6000803e3d6000fd5b505050506040513d601f19601f82011682018060405250810190610c889190610d36565b90505b919050565b3390565b803573ffffffffffffffffffffffffffffffffffffffff81168114610c8b57600080fd5b600060208284031215610cc9578081fd5b6106c582610c94565b600080600060608486031215610ce6578182fd5b610cef84610c94565b9250610cfd60208501610c94565b9150604084013590509250925092565b60008060408385031215610d1f578182fd5b610d2883610c94565b946020939093013593505050565b600060208284031215610d47578081fd5b815180151581146106c5578182fd5b600060208284031215610d67578081fd5b5035919050565b73ffffffffffffffffffffffffffffffffffffffff91909116815260200190565b73ffffffffffffffffffffffffffffffffffffffff9384168152919092166020820152604081019190915260600190565b73ffffffffffffffffffffffffffffffffffffffff92909216825261ffff16602082015260400190565b73ffffffffffffffffffffffffffffffffffffffff929092168252602082015260400190565b901515815260200190565b6020808252601b908201527f4465706f73697420746f6b656e206973206e6f74206163746976650000000000604082015260600190565b6020808252601a908201527f4e6f7420617574686f72697a656420746f207769746864726177000000000000604082015260600190565b60208082526026908201527f4f776e61626c653a206e6577206f776e657220697320746865207a65726f206160408201527f6464726573730000000000000000000000000000000000000000000000000000606082015260800190565b60208082526023908201527f436f6e7472616374206e6f7420617574686f72697a656420746f20776974686460408201527f7261770000000000000000000000000000000000000000000000000000000000606082015260800190565b6020808252818101527f4f776e61626c653a2063616c6c6572206973206e6f7420746865206f776e6572604082015260600190565b60208082526022908201527f436f6e7472616374206e6f7420617574686f72697a656420746f206465706f7360408201527f6974000000000000000000000000000000000000000000000000000000000000606082015260800190565b61ffff91909116815260200190565b9081526020019056fea26469706673582212203a650dcde227e00d49cefd68db8bf119c97cd666938fc151acf3ac176c8e54f664736f6c63430008010033",
  "linkReferences": {},
  "deployedLinkReferences": {}
}