{
  "_format": "hh-sol-artifact-1",
  "contractName": "Fund",
  "sourceName": "contracts/Fund.sol",
  "abi": [
    {
      "inputs": [
        {
          "internalType": "address",
          "name": "_WETH",
          "type": "address"
        },
        {
          "internalType": "address",
          "name": "_roles",
          "type": "address"
        }
      ],
      "stateMutability": "nonpayable",
      "type": "constructor"
    },
    {
      "anonymous": false,
      "inputs": [
        {
          "indexed": true,
          "internalType": "address",
          "name": "previousOwner",
          "type": "address"
        },
        {
          "indexed": true,
          "internalType": "address",
          "name": "newOwner",
          "type": "address"
        }
      ],
      "name": "OwnershipTransferred",
      "type": "event"
    },
    {
      "inputs": [],
      "name": "WETH",
      "outputs": [
        {
          "internalType": "address",
          "name": "",
          "type": "address"
        }
      ],
      "stateMutability": "view",
      "type": "function"
    },
    {
      "inputs": [
        {
          "internalType": "address",
          "name": "",
          "type": "address"
        }
      ],
      "name": "activeTokens",
      "outputs": [
        {
          "internalType": "bool",
          "name": "",
          "type": "bool"
        }
      ],
      "stateMutability": "view",
      "type": "function"
    },
    {
      "inputs": [
        {
          "internalType": "uint256",
          "name": "",
          "type": "uint256"
        }
      ],
      "name": "approvedTokens",
      "outputs": [
        {
          "internalType": "address",
          "name": "",
          "type": "address"
        }
      ],
      "stateMutability": "view",
      "type": "function"
    },
    {
      "inputs": [
        {
          "internalType": "address",
          "name": "depositToken",
          "type": "address"
        },
        {
          "internalType": "uint256",
          "name": "depositAmount",
          "type": "uint256"
        }
      ],
      "name": "deposit",
      "outputs": [
        {
          "internalType": "bool",
          "name": "",
          "type": "bool"
        }
      ],
      "stateMutability": "nonpayable",
      "type": "function"
    },
    {
      "inputs": [
        {
          "internalType": "address",
          "name": "sender",
          "type": "address"
        },
        {
          "internalType": "address",
          "name": "depositToken",
          "type": "address"
        },
        {
          "internalType": "uint256",
          "name": "depositAmount",
          "type": "uint256"
        }
      ],
      "name": "depositFor",
      "outputs": [
        {
          "internalType": "bool",
          "name": "",
          "type": "bool"
        }
      ],
      "stateMutability": "nonpayable",
      "type": "function"
    },
    {
      "inputs": [],
      "name": "depositToWETH",
      "outputs": [],
      "stateMutability": "payable",
      "type": "function"
    },
    {
      "inputs": [],
      "name": "owner",
      "outputs": [
        {
          "internalType": "address",
          "name": "",
          "type": "address"
        }
      ],
      "stateMutability": "view",
      "type": "function"
    },
    {
      "inputs": [],
      "name": "renounceOwnership",
      "outputs": [],
      "stateMutability": "nonpayable",
      "type": "function"
    },
    {
      "inputs": [],
      "name": "roles",
      "outputs": [
        {
          "internalType": "contract Roles",
          "name": "",
          "type": "address"
        }
      ],
      "stateMutability": "view",
      "type": "function"
    },
    {
      "inputs": [
        {
          "internalType": "address",
          "name": "newOwner",
          "type": "address"
        }
      ],
      "name": "transferOwnership",
      "outputs": [],
      "stateMutability": "nonpayable",
      "type": "function"
    },
    {
      "inputs": [
        {
          "internalType": "address",
          "name": "withdrawalToken",
          "type": "address"
        },
        {
          "internalType": "address",
          "name": "recipient",
          "type": "address"
        },
        {
          "internalType": "uint256",
          "name": "withdrawalAmount",
          "type": "uint256"
        }
      ],
      "name": "withdraw",
      "outputs": [
        {
          "internalType": "bool",
          "name": "",
          "type": "bool"
        }
      ],
      "stateMutability": "nonpayable",
      "type": "function"
    },
    {
      "inputs": [
        {
          "internalType": "address",
          "name": "recipient",
          "type": "address"
        },
        {
          "internalType": "uint256",
          "name": "withdrawalAmount",
          "type": "uint256"
        }
      ],
      "name": "withdrawETH",
      "outputs": [],
      "stateMutability": "nonpayable",
      "type": "function"
    }
  ],
  "bytecode": "0x60806040523480156200001157600080fd5b506040516200157338038062001573833981810160405281019062000037919062000192565b80806000806101000a81548173ffffffffffffffffffffffffffffffffffffffff021916908373ffffffffffffffffffffffffffffffffffffffff1602179055505060006200008b6200017360201b60201c565b905080600160006101000a81548173ffffffffffffffffffffffffffffffffffffffff021916908373ffffffffffffffffffffffffffffffffffffffff1602179055508073ffffffffffffffffffffffffffffffffffffffff16600073ffffffffffffffffffffffffffffffffffffffff167f8be0079c531659141344cd1fd0a4f28419497f9722a3daafe3b4186f6b6457e060405160405180910390a35081600260006101000a81548173ffffffffffffffffffffffffffffffffffffffff021916908373ffffffffffffffffffffffffffffffffffffffff160217905550505062000221565b600033905090565b6000815190506200018c8162000207565b92915050565b60008060408385031215620001a657600080fd5b6000620001b6858286016200017b565b9250506020620001c9858286016200017b565b9150509250929050565b6000620001e082620001e7565b9050919050565b600073ffffffffffffffffffffffffffffffffffffffff82169050919050565b6200021281620001d3565b81146200021e57600080fd5b50565b61134280620002316000396000f3fe6080604052600436106100a75760003560e01c80638da5cb5b116100645780638da5cb5b146101ce578063a6a5f9fe146101f9578063ad5c464814610203578063b3db428b1461022e578063d9caed121461026b578063f2fde38b146102a8576100a7565b80631dafede0146100ac578063392f5f64146100e95780634782f7791461011457806347e7ef241461013d5780635acf69031461017a578063715018a6146101b7575b600080fd5b3480156100b857600080fd5b506100d360048036038101906100ce9190610d7f565b6102d1565b6040516100e09190610ec5565b60405180910390f35b3480156100f557600080fd5b506100fe610310565b60405161010b9190610f84565b60405180910390f35b34801561012057600080fd5b5061013b60048036038101906101369190610d1a565b610334565b005b34801561014957600080fd5b50610164600480360381019061015f9190610d1a565b610454565b6040516101719190610f69565b60405180910390f35b34801561018657600080fd5b506101a1600480360381019061019c9190610ca2565b610579565b6040516101ae9190610f69565b60405180910390f35b3480156101c357600080fd5b506101cc610599565b005b3480156101da57600080fd5b506101e36106d6565b6040516101f09190610ec5565b60405180910390f35b610201610700565b005b34801561020f57600080fd5b50610218610785565b6040516102259190610ec5565b60405180910390f35b34801561023a57600080fd5b5061025560048036038101906102509190610ccb565b6107ab565b6040516102629190610f69565b60405180910390f35b34801561027757600080fd5b50610292600480360381019061028d9190610ccb565b610919565b60405161029f9190610f69565b60405180910390f35b3480156102b457600080fd5b506102cf60048036038101906102ca9190610ca2565b6109f9565b005b600381815481106102e157600080fd5b906000526020600020016000915054906101000a900473ffffffffffffffffffffffffffffffffffffffff1681565b60008054906101000a900473ffffffffffffffffffffffffffffffffffffffff1681565b61033d33610ba5565b61037c576040517f08c379a000000000000000000000000000000000000000000000000000000000815260040161037390610fbf565b60405180910390fd5b600260009054906101000a900473ffffffffffffffffffffffffffffffffffffffff1673ffffffffffffffffffffffffffffffffffffffff16632e1a7d4d826040518263ffffffff1660e01b81526004016103d7919061105f565b600060405180830381600087803b1580156103f157600080fd5b505af1158015610405573d6000803e3d6000fd5b505050508173ffffffffffffffffffffffffffffffffffffffff166108fc829081150290604051600060405180830381858888f1935050505015801561044f573d6000803e3d6000fd5b505050565b6000600460008473ffffffffffffffffffffffffffffffffffffffff1673ffffffffffffffffffffffffffffffffffffffff16815260200190815260200160002060009054906101000a900460ff166104e2576040517f08c379a00000000000000000000000000000000000000000000000000000000081526004016104d990610f9f565b60405180910390fd5b8273ffffffffffffffffffffffffffffffffffffffff166323b872dd3330856040518463ffffffff1660e01b815260040161051f93929190610ee0565b602060405180830381600087803b15801561053957600080fd5b505af115801561054d573d6000803e3d6000fd5b505050506040513d601f19601f820116820180604052508101906105719190610d56565b905092915050565b60046020528060005260406000206000915054906101000a900460ff1681565b6105a1610c5b565b73ffffffffffffffffffffffffffffffffffffffff166105bf6106d6565b73ffffffffffffffffffffffffffffffffffffffff1614610615576040517f08c379a000000000000000000000000000000000000000000000000000000000815260040161060c9061101f565b60405180910390fd5b600073ffffffffffffffffffffffffffffffffffffffff16600160009054906101000a900473ffffffffffffffffffffffffffffffffffffffff1673ffffffffffffffffffffffffffffffffffffffff167f8be0079c531659141344cd1fd0a4f28419497f9722a3daafe3b4186f6b6457e060405160405180910390a36000600160006101000a81548173ffffffffffffffffffffffffffffffffffffffff021916908373ffffffffffffffffffffffffffffffffffffffff160217905550565b6000600160009054906101000a900473ffffffffffffffffffffffffffffffffffffffff16905090565b600260009054906101000a900473ffffffffffffffffffffffffffffffffffffffff1673ffffffffffffffffffffffffffffffffffffffff1663d0e30db0346040518263ffffffff1660e01b81526004016000604051808303818588803b15801561076a57600080fd5b505af115801561077e573d6000803e3d6000fd5b5050505050565b600260009054906101000a900473ffffffffffffffffffffffffffffffffffffffff1681565b6000600460008473ffffffffffffffffffffffffffffffffffffffff1673ffffffffffffffffffffffffffffffffffffffff16815260200190815260200160002060009054906101000a900460ff16610839576040517f08c379a000000000000000000000000000000000000000000000000000000000815260040161083090610f9f565b60405180910390fd5b61084233610ba5565b610881576040517f08c379a00000000000000000000000000000000000000000000000000000000081526004016108789061103f565b60405180910390fd5b8273ffffffffffffffffffffffffffffffffffffffff166323b872dd8530856040518463ffffffff1660e01b81526004016108be93929190610ee0565b602060405180830381600087803b1580156108d857600080fd5b505af11580156108ec573d6000803e3d6000fd5b505050506040513d601f19601f820116820180604052508101906109109190610d56565b90509392505050565b600061092433610ba5565b610963576040517f08c379a000000000000000000000000000000000000000000000000000000000815260040161095a90610fff565b60405180910390fd5b8373ffffffffffffffffffffffffffffffffffffffff1663a9059cbb84846040518363ffffffff1660e01b815260040161099e929190610f40565b602060405180830381600087803b1580156109b857600080fd5b505af11580156109cc573d6000803e3d6000fd5b505050506040513d601f19601f820116820180604052508101906109f09190610d56565b90509392505050565b610a01610c5b565b73ffffffffffffffffffffffffffffffffffffffff16610a1f6106d6565b73ffffffffffffffffffffffffffffffffffffffff1614610a75576040517f08c379a0000000000000000000000000000000000000000000000000000000008152600401610a6c9061101f565b60405180910390fd5b600073ffffffffffffffffffffffffffffffffffffffff168173ffffffffffffffffffffffffffffffffffffffff161415610ae5576040517f08c379a0000000000000000000000000000000000000000000000000000000008152600401610adc90610fdf565b60405180910390fd5b8073ffffffffffffffffffffffffffffffffffffffff16600160009054906101000a900473ffffffffffffffffffffffffffffffffffffffff1673ffffffffffffffffffffffffffffffffffffffff167f8be0079c531659141344cd1fd0a4f28419497f9722a3daafe3b4186f6b6457e060405160405180910390a380600160006101000a81548173ffffffffffffffffffffffffffffffffffffffff021916908373ffffffffffffffffffffffffffffffffffffffff16021790555050565b60008060009054906101000a900473ffffffffffffffffffffffffffffffffffffffff1673ffffffffffffffffffffffffffffffffffffffff1663a716b97f8360006040518363ffffffff1660e01b8152600401610c04929190610f17565b60206040518083038186803b158015610c1c57600080fd5b505afa158015610c30573d6000803e3d6000fd5b505050506040513d601f19601f82011682018060405250810190610c549190610d56565b9050919050565b600033905090565b600081359050610c72816112c7565b92915050565b600081519050610c87816112de565b92915050565b600081359050610c9c816112f5565b92915050565b600060208284031215610cb457600080fd5b6000610cc284828501610c63565b91505092915050565b600080600060608486031215610ce057600080fd5b6000610cee86828701610c63565b9350506020610cff86828701610c63565b9250506040610d1086828701610c8d565b9150509250925092565b60008060408385031215610d2d57600080fd5b6000610d3b85828601610c63565b9250506020610d4c85828601610c8d565b9150509250929050565b600060208284031215610d6857600080fd5b6000610d7684828501610c78565b91505092915050565b600060208284031215610d9157600080fd5b6000610d9f84828501610c8d565b91505092915050565b610db18161108b565b82525050565b610dc08161109d565b82525050565b610dcf816110e6565b82525050565b610dde8161110a565b82525050565b6000610df1601b8361107a565b9150610dfc8261114b565b602082019050919050565b6000610e14601a8361107a565b9150610e1f82611174565b602082019050919050565b6000610e3760268361107a565b9150610e428261119d565b604082019050919050565b6000610e5a60238361107a565b9150610e65826111ec565b604082019050919050565b6000610e7d60208361107a565b9150610e888261123b565b602082019050919050565b6000610ea060228361107a565b9150610eab82611264565b604082019050919050565b610ebf816110dc565b82525050565b6000602082019050610eda6000830184610da8565b92915050565b6000606082019050610ef56000830186610da8565b610f026020830185610da8565b610f0f6040830184610eb6565b949350505050565b6000604082019050610f2c6000830185610da8565b610f396020830184610dd5565b9392505050565b6000604082019050610f556000830185610da8565b610f626020830184610eb6565b9392505050565b6000602082019050610f7e6000830184610db7565b92915050565b6000602082019050610f996000830184610dc6565b92915050565b60006020820190508181036000830152610fb881610de4565b9050919050565b60006020820190508181036000830152610fd881610e07565b9050919050565b60006020820190508181036000830152610ff881610e2a565b9050919050565b6000602082019050818103600083015261101881610e4d565b9050919050565b6000602082019050818103600083015261103881610e70565b9050919050565b6000602082019050818103600083015261105881610e93565b9050919050565b60006020820190506110746000830184610eb6565b92915050565b600082825260208201905092915050565b6000611096826110bc565b9050919050565b60008115159050919050565b60008190506110b7826112b3565b919050565b600073ffffffffffffffffffffffffffffffffffffffff82169050919050565b6000819050919050565b60006110f1826110f8565b9050919050565b6000611103826110bc565b9050919050565b6000611115826110a9565b9050919050565b7f4e487b7100000000000000000000000000000000000000000000000000000000600052602160045260246000fd5b7f4465706f73697420746f6b656e206973206e6f74206163746976650000000000600082015250565b7f4e6f7420617574686f72697a656420746f207769746864726177000000000000600082015250565b7f4f776e61626c653a206e6577206f776e657220697320746865207a65726f206160008201527f6464726573730000000000000000000000000000000000000000000000000000602082015250565b7f436f6e7472616374206e6f7420617574686f72697a656420746f20776974686460008201527f7261770000000000000000000000000000000000000000000000000000000000602082015250565b7f4f776e61626c653a2063616c6c6572206973206e6f7420746865206f776e6572600082015250565b7f436f6e7472616374206e6f7420617574686f72697a656420746f206465706f7360008201527f6974000000000000000000000000000000000000000000000000000000000000602082015250565b600881106112c4576112c361111c565b5b50565b6112d08161108b565b81146112db57600080fd5b50565b6112e78161109d565b81146112f257600080fd5b50565b6112fe816110dc565b811461130957600080fd5b5056fea264697066735822122055147c6ef1714ed951c278cf3d105d93847aa52bb24c523286d05d72601964bd64736f6c63430008010033",
  "linkReferences": {},
  "deployedLinkReferences": {}
}