{
  "_format": "hh-sol-artifact-1",
  "contractName": "Fund",
  "sourceName": "contracts/Fund.sol",
  "abi": [
    {
      "inputs": [
        {
          "internalType": "address",
          "name": "_WETH",
          "type": "address"
        },
        {
          "internalType": "address",
          "name": "_roles",
          "type": "address"
        }
      ],
      "stateMutability": "nonpayable",
      "type": "constructor"
    },
    {
      "anonymous": false,
      "inputs": [
        {
          "indexed": true,
          "internalType": "address",
          "name": "previousOwner",
          "type": "address"
        },
        {
          "indexed": true,
          "internalType": "address",
          "name": "newOwner",
          "type": "address"
        }
      ],
      "name": "OwnershipTransferred",
      "type": "event"
    },
    {
      "inputs": [],
      "name": "ADMIN",
      "outputs": [
        {
          "internalType": "uint16",
          "name": "",
          "type": "uint16"
        }
      ],
      "stateMutability": "view",
      "type": "function"
    },
    {
      "inputs": [],
      "name": "AUTHORIZED_FUND_TRADER",
      "outputs": [
        {
          "internalType": "uint16",
          "name": "",
          "type": "uint16"
        }
      ],
      "stateMutability": "view",
      "type": "function"
    },
    {
      "inputs": [],
      "name": "BORROWER",
      "outputs": [
        {
          "internalType": "uint16",
          "name": "",
          "type": "uint16"
        }
      ],
      "stateMutability": "view",
      "type": "function"
    },
    {
      "inputs": [],
      "name": "FEE_CONTROLLER",
      "outputs": [
        {
          "internalType": "uint16",
          "name": "",
          "type": "uint16"
        }
      ],
      "stateMutability": "view",
      "type": "function"
    },
    {
      "inputs": [],
      "name": "FEE_SOURCE",
      "outputs": [
        {
          "internalType": "uint16",
          "name": "",
          "type": "uint16"
        }
      ],
      "stateMutability": "view",
      "type": "function"
    },
    {
      "inputs": [],
      "name": "FUND",
      "outputs": [
        {
          "internalType": "uint16",
          "name": "",
          "type": "uint16"
        }
      ],
      "stateMutability": "view",
      "type": "function"
    },
    {
      "inputs": [],
      "name": "INCENTIVE_DISTRIBUTION",
      "outputs": [
        {
          "internalType": "uint16",
          "name": "",
          "type": "uint16"
        }
      ],
      "stateMutability": "view",
      "type": "function"
    },
    {
      "inputs": [],
      "name": "INCENTIVE_REPORTER",
      "outputs": [
        {
          "internalType": "uint16",
          "name": "",
          "type": "uint16"
        }
      ],
      "stateMutability": "view",
      "type": "function"
    },
    {
      "inputs": [],
      "name": "LENDING",
      "outputs": [
        {
          "internalType": "uint16",
          "name": "",
          "type": "uint16"
        }
      ],
      "stateMutability": "view",
      "type": "function"
    },
    {
      "inputs": [],
      "name": "LIQUIDATOR",
      "outputs": [
        {
          "internalType": "uint16",
          "name": "",
          "type": "uint16"
        }
      ],
      "stateMutability": "view",
      "type": "function"
    },
    {
      "inputs": [],
      "name": "MARGIN_CALLER",
      "outputs": [
        {
          "internalType": "uint16",
          "name": "",
          "type": "uint16"
        }
      ],
      "stateMutability": "view",
      "type": "function"
    },
    {
      "inputs": [],
      "name": "MARGIN_TRADER",
      "outputs": [
        {
          "internalType": "uint16",
          "name": "",
          "type": "uint16"
        }
      ],
      "stateMutability": "view",
      "type": "function"
    },
    {
      "inputs": [],
      "name": "MARGIN_TRADING",
      "outputs": [
        {
          "internalType": "uint16",
          "name": "",
          "type": "uint16"
        }
      ],
      "stateMutability": "view",
      "type": "function"
    },
    {
      "inputs": [],
      "name": "PRICE_CONTROLLER",
      "outputs": [
        {
          "internalType": "uint16",
          "name": "",
          "type": "uint16"
        }
      ],
      "stateMutability": "view",
      "type": "function"
    },
    {
      "inputs": [],
      "name": "ROUTER",
      "outputs": [
        {
          "internalType": "uint16",
          "name": "",
          "type": "uint16"
        }
      ],
      "stateMutability": "view",
      "type": "function"
    },
    {
      "inputs": [],
      "name": "STAKE_PENALIZER",
      "outputs": [
        {
          "internalType": "uint16",
          "name": "",
          "type": "uint16"
        }
      ],
      "stateMutability": "view",
      "type": "function"
    },
    {
      "inputs": [],
      "name": "TOKEN_ACTIVATOR",
      "outputs": [
        {
          "internalType": "uint16",
          "name": "",
          "type": "uint16"
        }
      ],
      "stateMutability": "view",
      "type": "function"
    },
    {
      "inputs": [],
      "name": "WETH",
      "outputs": [
        {
          "internalType": "address",
          "name": "",
          "type": "address"
        }
      ],
      "stateMutability": "view",
      "type": "function"
    },
    {
      "inputs": [],
      "name": "WITHDRAWER",
      "outputs": [
        {
          "internalType": "uint16",
          "name": "",
          "type": "uint16"
        }
      ],
      "stateMutability": "view",
      "type": "function"
    },
    {
      "inputs": [
        {
          "internalType": "address",
          "name": "token",
          "type": "address"
        }
      ],
      "name": "activateToken",
      "outputs": [],
      "stateMutability": "nonpayable",
      "type": "function"
    },
    {
      "inputs": [
        {
          "internalType": "address",
          "name": "",
          "type": "address"
        }
      ],
      "name": "activeTokens",
      "outputs": [
        {
          "internalType": "bool",
          "name": "",
          "type": "bool"
        }
      ],
      "stateMutability": "view",
      "type": "function"
    },
    {
      "inputs": [
        {
          "internalType": "address",
          "name": "token",
          "type": "address"
        }
      ],
      "name": "deactivateToken",
      "outputs": [],
      "stateMutability": "nonpayable",
      "type": "function"
    },
    {
      "inputs": [
        {
          "internalType": "address",
          "name": "depositToken",
          "type": "address"
        },
        {
          "internalType": "uint256",
          "name": "depositAmount",
          "type": "uint256"
        }
      ],
      "name": "deposit",
      "outputs": [
        {
          "internalType": "bool",
          "name": "",
          "type": "bool"
        }
      ],
      "stateMutability": "nonpayable",
      "type": "function"
    },
    {
      "inputs": [
        {
          "internalType": "address",
          "name": "sender",
          "type": "address"
        },
        {
          "internalType": "address",
          "name": "depositToken",
          "type": "address"
        },
        {
          "internalType": "uint256",
          "name": "depositAmount",
          "type": "uint256"
        }
      ],
      "name": "depositFor",
      "outputs": [
        {
          "internalType": "bool",
          "name": "",
          "type": "bool"
        }
      ],
      "stateMutability": "nonpayable",
      "type": "function"
    },
    {
      "inputs": [],
      "name": "depositToWETH",
      "outputs": [],
      "stateMutability": "payable",
      "type": "function"
    },
    {
      "inputs": [
        {
          "internalType": "uint16",
          "name": "",
          "type": "uint16"
        }
      ],
      "name": "mainCharacterCache",
      "outputs": [
        {
          "internalType": "address",
          "name": "",
          "type": "address"
        }
      ],
      "stateMutability": "view",
      "type": "function"
    },
    {
      "inputs": [],
      "name": "owner",
      "outputs": [
        {
          "internalType": "address",
          "name": "",
          "type": "address"
        }
      ],
      "stateMutability": "view",
      "type": "function"
    },
    {
      "inputs": [],
      "name": "renounceOwnership",
      "outputs": [],
      "stateMutability": "nonpayable",
      "type": "function"
    },
    {
      "inputs": [
        {
          "internalType": "address",
          "name": "",
          "type": "address"
        },
        {
          "internalType": "uint16",
          "name": "",
          "type": "uint16"
        }
      ],
      "name": "roleCache",
      "outputs": [
        {
          "internalType": "bool",
          "name": "",
          "type": "bool"
        }
      ],
      "stateMutability": "view",
      "type": "function"
    },
    {
      "inputs": [],
      "name": "roles",
      "outputs": [
        {
          "internalType": "contract Roles",
          "name": "",
          "type": "address"
        }
      ],
      "stateMutability": "view",
      "type": "function"
    },
    {
      "inputs": [
        {
          "internalType": "address",
          "name": "newOwner",
          "type": "address"
        }
      ],
      "name": "transferOwnership",
      "outputs": [],
      "stateMutability": "nonpayable",
      "type": "function"
    },
    {
      "inputs": [
        {
          "internalType": "uint16",
          "name": "role",
          "type": "uint16"
        }
      ],
      "name": "updateMainCharacterCache",
      "outputs": [],
      "stateMutability": "nonpayable",
      "type": "function"
    },
    {
      "inputs": [
        {
          "internalType": "uint16",
          "name": "role",
          "type": "uint16"
        },
        {
          "internalType": "address",
          "name": "contr",
          "type": "address"
        }
      ],
      "name": "updateRoleCache",
      "outputs": [],
      "stateMutability": "nonpayable",
      "type": "function"
    },
    {
      "inputs": [
        {
          "internalType": "address",
          "name": "withdrawalToken",
          "type": "address"
        },
        {
          "internalType": "address",
          "name": "recipient",
          "type": "address"
        },
        {
          "internalType": "uint256",
          "name": "withdrawalAmount",
          "type": "uint256"
        }
      ],
      "name": "withdraw",
      "outputs": [
        {
          "internalType": "bool",
          "name": "",
          "type": "bool"
        }
      ],
      "stateMutability": "nonpayable",
      "type": "function"
    },
    {
      "inputs": [
        {
          "internalType": "address",
          "name": "recipient",
          "type": "address"
        },
        {
          "internalType": "uint256",
          "name": "withdrawalAmount",
          "type": "uint256"
        }
      ],
      "name": "withdrawETH",
      "outputs": [],
      "stateMutability": "nonpayable",
      "type": "function"
    }
  ],
  "bytecode": "0x60806040523480156200001157600080fd5b50604051620016ef380380620016ef8339810160408190526200003491620000ef565b600080546001600160a01b0319166001600160a01b03831617815562000059620000ce565b600380546001600160a01b0319166001600160a01b038316908117909155604051919250906000907f8be0079c531659141344cd1fd0a4f28419497f9722a3daafe3b4186f6b6457e0908290a35050600480546001600160a01b0319166001600160a01b039290921691909117905562000126565b3390565b80516001600160a01b0381168114620000ea57600080fd5b919050565b6000806040838503121562000102578182fd5b6200010d83620000d2565b91506200011d60208401620000d2565b90509250929050565b6115b980620001366000396000f3fe6080604052600436106102345760003560e01c80636cd5cd6011610138578063ad5c4648116100b0578063c76139d01161007f578063d5d7ed7f11610064578063d5d7ed7f1461056c578063d9caed1214610581578063f2fde38b146105a157610234565b8063c76139d014610542578063cacf8d451461055757610234565b8063ad5c4648146104cd578063b3db428b146104e2578063b448165214610502578063c34316c31461052257610234565b80638da5cb5b11610107578063a6a5f9fe116100ec578063a6a5f9fe1461049b578063a94c7c34146104a3578063a9cc0536146104b857610234565b80638da5cb5b14610471578063a0098d691461048657610234565b80636cd5cd6014610412578063715018a61461043257806381ca66001461044757806383a49c7c1461045c57610234565b8063392f5f64116101cb57806348fb27b81161019a5780635c275a391161017f5780635c275a39146103c857806366941984146103dd57806368173bcf146103f257610234565b806348fb27b8146103935780635acf6903146103a857610234565b8063392f5f641461030f57806346b88796146103315780634782f7791461034657806347e7ef241461036657610234565b806320e8d8191161020757806320e8d819146102b05780632a0acc6a146102d05780632fe94def146102e557806332fe7b26146102fa57610234565b8063065d570f146102395780630d1ce2d2146102645780631b669507146102865780631bc5d81d1461029b575b600080fd5b34801561024557600080fd5b5061024e6105c1565b60405161025b919061151c565b60405180910390f35b34801561027057600080fd5b5061028461027f36600461113b565b6105c6565b005b34801561029257600080fd5b5061024e61065d565b3480156102a757600080fd5b5061024e610662565b3480156102bc57600080fd5b506102846102cb36600461124c565b610667565b3480156102dc57600080fd5b5061024e610778565b3480156102f157600080fd5b5061024e61077d565b34801561030657600080fd5b5061024e610782565b34801561031b57600080fd5b50610324610787565b60405161025b9190611282565b34801561033d57600080fd5b5061024e6107a3565b34801561035257600080fd5b506102846103613660046111e7565b6107a8565b34801561037257600080fd5b506103866103813660046111e7565b6108b6565b60405161025b91906112fa565b34801561039f57600080fd5b5061024e6109c4565b3480156103b457600080fd5b506103866103c336600461113b565b6109c9565b3480156103d457600080fd5b5061024e6109de565b3480156103e957600080fd5b5061024e6109e3565b3480156103fe57600080fd5b5061028461040d36600461113b565b6109e8565b34801561041e57600080fd5b5061028461042d366004611232565b610a73565b34801561043e57600080fd5b50610284610b72565b34801561045357600080fd5b5061024e610c54565b34801561046857600080fd5b5061024e610c59565b34801561047d57600080fd5b50610324610c5e565b34801561049257600080fd5b5061024e610c7a565b610284610c7f565b3480156104af57600080fd5b5061024e610d05565b3480156104c457600080fd5b5061024e610d0a565b3480156104d957600080fd5b50610324610d0f565b3480156104ee57600080fd5b506103866104fd366004611173565b610d2b565b34801561050e57600080fd5b5061032461051d366004611232565b610e79565b34801561052e57600080fd5b5061038661053d3660046111b3565b610ea1565b34801561054e57600080fd5b5061024e610ec1565b34801561056357600080fd5b5061024e610ec6565b34801561057857600080fd5b5061024e610ecb565b34801561058d57600080fd5b5061038661059c366004611173565b610ed0565b3480156105ad57600080fd5b506102846105bc36600461113b565b610f65565b600381565b6105cf336110b3565b61060e576040517f08c379a00000000000000000000000000000000000000000000000000000000081526004016106059061133c565b60405180910390fd5b73ffffffffffffffffffffffffffffffffffffffff16600090815260056020526040902080547fffffffffffffffffffffffffffffffffffffffffffffffffffffffffffffff00166001179055565b600a81565b600881565b6000546040517fd87fefd200000000000000000000000000000000000000000000000000000000815273ffffffffffffffffffffffffffffffffffffffff9091169063d87fefd2906106bf908590859060040161152b565b60206040518083038186803b1580156106d757600080fd5b505afa1580156106eb573d6000803e3d6000fd5b505050506040513d601f19601f8201168201806040525081019061070f9190611212565b73ffffffffffffffffffffffffffffffffffffffff909116600090815260026020908152604080832061ffff90951683529390529190912080549115157fffffffffffffffffffffffffffffffffffffffffffffffffffffffffffffff00909216919091179055565b606b81565b606981565b606781565b60005473ffffffffffffffffffffffffffffffffffffffff1681565b600681565b6107b1336110ee565b6107e7576040517f08c379a000000000000000000000000000000000000000000000000000000000815260040161060590611399565b600480546040517f2e1a7d4d00000000000000000000000000000000000000000000000000000000815273ffffffffffffffffffffffffffffffffffffffff90911691632e1a7d4d9161083c91859101611555565b600060405180830381600087803b15801561085657600080fd5b505af115801561086a573d6000803e3d6000fd5b505060405173ffffffffffffffffffffffffffffffffffffffff8516925083156108fc02915083906000818181858888f193505050501580156108b1573d6000803e3d6000fd5b505050565b73ffffffffffffffffffffffffffffffffffffffff821660009081526005602052604081205460ff16610915576040517f08c379a000000000000000000000000000000000000000000000000000000000815260040161060590611305565b6040517f23b872dd00000000000000000000000000000000000000000000000000000000815273ffffffffffffffffffffffffffffffffffffffff8416906323b872dd9061096b903390309087906004016112a3565b602060405180830381600087803b15801561098557600080fd5b505af1158015610999573d6000803e3d6000fd5b505050506040513d601f19601f820116820180604052508101906109bd9190611212565b9392505050565b606681565b60056020526000908152604090205460ff1681565b606581565b600181565b6109f1336110b3565b610a27576040517f08c379a00000000000000000000000000000000000000000000000000000000081526004016106059061133c565b73ffffffffffffffffffffffffffffffffffffffff16600090815260056020526040902080547fffffffffffffffffffffffffffffffffffffffffffffffffffffffffffffff00169055565b6000546040517f3c9c8f9c00000000000000000000000000000000000000000000000000000000815273ffffffffffffffffffffffffffffffffffffffff90911690633c9c8f9c90610ac990849060040161151c565b60206040518083038186803b158015610ae157600080fd5b505afa158015610af5573d6000803e3d6000fd5b505050506040513d601f19601f82011682018060405250810190610b199190611157565b61ffff91909116600090815260016020526040902080547fffffffffffffffffffffffff00000000000000000000000000000000000000001673ffffffffffffffffffffffffffffffffffffffff909216919091179055565b610b7a611125565b73ffffffffffffffffffffffffffffffffffffffff16610b98610c5e565b73ffffffffffffffffffffffffffffffffffffffff1614610be5576040517f08c379a00000000000000000000000000000000000000000000000000000000081526004016106059061148a565b60035460405160009173ffffffffffffffffffffffffffffffffffffffff16907f8be0079c531659141344cd1fd0a4f28419497f9722a3daafe3b4186f6b6457e0908390a3600380547fffffffffffffffffffffffff0000000000000000000000000000000000000000169055565b606a81565b600981565b60035473ffffffffffffffffffffffffffffffffffffffff1690565b600281565b60048054604080517fd0e30db0000000000000000000000000000000000000000000000000000000008152905173ffffffffffffffffffffffffffffffffffffffff9092169263d0e30db0923492808301926000929182900301818588803b158015610cea57600080fd5b505af1158015610cfe573d6000803e3d6000fd5b5050505050565b600581565b606881565b60045473ffffffffffffffffffffffffffffffffffffffff1681565b73ffffffffffffffffffffffffffffffffffffffff821660009081526005602052604081205460ff16610d8a576040517f08c379a000000000000000000000000000000000000000000000000000000000815260040161060590611305565b610d93336110ee565b610dc9576040517f08c379a0000000000000000000000000000000000000000000000000000000008152600401610605906114bf565b6040517f23b872dd00000000000000000000000000000000000000000000000000000000815273ffffffffffffffffffffffffffffffffffffffff8416906323b872dd90610e1f908790309087906004016112a3565b602060405180830381600087803b158015610e3957600080fd5b505af1158015610e4d573d6000803e3d6000fd5b505050506040513d601f19601f82011682018060405250810190610e719190611212565b949350505050565b60016020526000908152604090205473ffffffffffffffffffffffffffffffffffffffff1681565b600260209081526000928352604080842090915290825290205460ff1681565b606c81565b600481565b600781565b6000610edb336110ee565b610f11576040517f08c379a00000000000000000000000000000000000000000000000000000000081526004016106059061142d565b6040517fa9059cbb00000000000000000000000000000000000000000000000000000000815273ffffffffffffffffffffffffffffffffffffffff85169063a9059cbb90610e1f90869086906004016112d4565b610f6d611125565b73ffffffffffffffffffffffffffffffffffffffff16610f8b610c5e565b73ffffffffffffffffffffffffffffffffffffffff1614610fd8576040517f08c379a00000000000000000000000000000000000000000000000000000000081526004016106059061148a565b73ffffffffffffffffffffffffffffffffffffffff8116611025576040517f08c379a0000000000000000000000000000000000000000000000000000000008152600401610605906113d0565b60035460405173ffffffffffffffffffffffffffffffffffffffff8084169216907f8be0079c531659141344cd1fd0a4f28419497f9722a3daafe3b4186f6b6457e090600090a3600380547fffffffffffffffffffffffff00000000000000000000000000000000000000001673ffffffffffffffffffffffffffffffffffffffff92909216919091179055565b73ffffffffffffffffffffffffffffffffffffffff811660009081526002602090815260408083206009845290915290205460ff165b919050565b73ffffffffffffffffffffffffffffffffffffffff1660009081526002602090815260408083206001845290915290205460ff1690565b3390565b803561ffff811681146110e957600080fd5b60006020828403121561114c578081fd5b81356109bd8161155e565b600060208284031215611168578081fd5b81516109bd8161155e565b600080600060608486031215611187578182fd5b83356111928161155e565b925060208401356111a28161155e565b929592945050506040919091013590565b600080604083850312156111c5578182fd5b82356111d08161155e565b91506111de60208401611129565b90509250929050565b600080604083850312156111f9578182fd5b82356112048161155e565b946020939093013593505050565b600060208284031215611223578081fd5b815180151581146109bd578182fd5b600060208284031215611243578081fd5b6109bd82611129565b6000806040838503121561125e578182fd5b61126783611129565b915060208301356112778161155e565b809150509250929050565b73ffffffffffffffffffffffffffffffffffffffff91909116815260200190565b73ffffffffffffffffffffffffffffffffffffffff9384168152919092166020820152604081019190915260600190565b73ffffffffffffffffffffffffffffffffffffffff929092168252602082015260400190565b901515815260200190565b6020808252601b908201527f4465706f73697420746f6b656e206973206e6f74206163746976650000000000604082015260600190565b60208082526029908201527f41646472657373206e6f7420617574686f72697a656420746f2061637469766160408201527f746520746f6b656e730000000000000000000000000000000000000000000000606082015260800190565b6020808252601a908201527f4e6f7420617574686f72697a656420746f207769746864726177000000000000604082015260600190565b60208082526026908201527f4f776e61626c653a206e6577206f776e657220697320746865207a65726f206160408201527f6464726573730000000000000000000000000000000000000000000000000000606082015260800190565b60208082526023908201527f436f6e7472616374206e6f7420617574686f72697a656420746f20776974686460408201527f7261770000000000000000000000000000000000000000000000000000000000606082015260800190565b6020808252818101527f4f776e61626c653a2063616c6c6572206973206e6f7420746865206f776e6572604082015260600190565b60208082526022908201527f436f6e7472616374206e6f7420617574686f72697a656420746f206465706f7360408201527f6974000000000000000000000000000000000000000000000000000000000000606082015260800190565b61ffff91909116815260200190565b61ffff92909216825273ffffffffffffffffffffffffffffffffffffffff16602082015260400190565b90815260200190565b73ffffffffffffffffffffffffffffffffffffffff8116811461158057600080fd5b5056fea2646970667358221220d1e01e50ad8555b428cc39be30bfc4bea3ae5f2ecc70b06015a09e3cd4e9a21c64736f6c63430008010033",
  "linkReferences": {},
  "deployedLinkReferences": {}
}