{
  "address": "0x9B7C61b132d4AaE9df5FB89CEdA297E22760A48A",
  "abi": [
    {
      "inputs": [
        {
          "internalType": "address",
          "name": "_peg",
          "type": "address"
        },
        {
          "internalType": "address",
          "name": "_amm1Factory",
          "type": "address"
        },
        {
          "internalType": "address",
          "name": "_amm2Factory",
          "type": "address"
        },
        {
          "internalType": "address",
          "name": "_amm3Factory",
          "type": "address"
        },
        {
          "internalType": "bytes32",
          "name": "_amm1InitHash",
          "type": "bytes32"
        },
        {
          "internalType": "bytes32",
          "name": "_amm2InitHash",
          "type": "bytes32"
        },
        {
          "internalType": "bytes32",
          "name": "_amm3InitHash",
          "type": "bytes32"
        },
        {
          "internalType": "uint256",
          "name": "_feeBase",
          "type": "uint256"
        },
        {
          "internalType": "address",
          "name": "_roles",
          "type": "address"
        }
      ],
      "stateMutability": "nonpayable",
      "type": "constructor"
    },
    {
      "anonymous": false,
      "inputs": [
        {
          "indexed": false,
          "internalType": "address",
          "name": "account",
          "type": "address"
        }
      ],
      "name": "AccountLiquidated",
      "type": "event"
    },
    {
      "anonymous": false,
      "inputs": [
        {
          "indexed": false,
          "internalType": "uint256",
          "name": "amount",
          "type": "uint256"
        }
      ],
      "name": "LiquidationShortfall",
      "type": "event"
    },
    {
      "inputs": [],
      "name": "MAINTAINER_CUT_PERCENT",
      "outputs": [
        {
          "internalType": "uint256",
          "name": "",
          "type": "uint256"
        }
      ],
      "stateMutability": "view",
      "type": "function"
    },
    {
      "inputs": [],
      "name": "UPDATE_RATE_PERMIL",
      "outputs": [
        {
          "internalType": "uint256",
          "name": "",
          "type": "uint256"
        }
      ],
      "stateMutability": "view",
      "type": "function"
    },
    {
      "inputs": [
        {
          "internalType": "uint256",
          "name": "_priceUpdateWindow",
          "type": "uint256"
        },
        {
          "internalType": "uint256",
          "name": "_updateRatePermil",
          "type": "uint256"
        },
        {
          "internalType": "uint256",
          "name": "_voluntaryUpdateWindow",
          "type": "uint256"
        }
      ],
      "name": "addVolatilitySetting",
      "outputs": [],
      "stateMutability": "nonpayable",
      "type": "function"
    },
    {
      "inputs": [],
      "name": "amm1Factory",
      "outputs": [
        {
          "internalType": "address",
          "name": "",
          "type": "address"
        }
      ],
      "stateMutability": "view",
      "type": "function"
    },
    {
      "inputs": [],
      "name": "amm1InitHash",
      "outputs": [
        {
          "internalType": "bytes32",
          "name": "",
          "type": "bytes32"
        }
      ],
      "stateMutability": "view",
      "type": "function"
    },
    {
      "inputs": [],
      "name": "amm2Factory",
      "outputs": [
        {
          "internalType": "address",
          "name": "",
          "type": "address"
        }
      ],
      "stateMutability": "view",
      "type": "function"
    },
    {
      "inputs": [],
      "name": "amm2InitHash",
      "outputs": [
        {
          "internalType": "bytes32",
          "name": "",
          "type": "bytes32"
        }
      ],
      "stateMutability": "view",
      "type": "function"
    },
    {
      "inputs": [],
      "name": "amm3Factory",
      "outputs": [
        {
          "internalType": "address",
          "name": "",
          "type": "address"
        }
      ],
      "stateMutability": "view",
      "type": "function"
    },
    {
      "inputs": [],
      "name": "amm3InitHash",
      "outputs": [
        {
          "internalType": "bytes32",
          "name": "",
          "type": "bytes32"
        }
      ],
      "stateMutability": "view",
      "type": "function"
    },
    {
      "inputs": [],
      "name": "avgLiquidationPerCall",
      "outputs": [
        {
          "internalType": "uint256",
          "name": "",
          "type": "uint256"
        }
      ],
      "stateMutability": "view",
      "type": "function"
    },
    {
      "inputs": [
        {
          "internalType": "address",
          "name": "trader",
          "type": "address"
        }
      ],
      "name": "canBeLiquidated",
      "outputs": [
        {
          "internalType": "bool",
          "name": "",
          "type": "bool"
        }
      ],
      "stateMutability": "view",
      "type": "function"
    },
    {
      "inputs": [
        {
          "internalType": "uint256",
          "name": "index",
          "type": "uint256"
        }
      ],
      "name": "chooseVolatilitySetting",
      "outputs": [],
      "stateMutability": "nonpayable",
      "type": "function"
    },
    {
      "inputs": [],
      "name": "coolingOffPeriod",
      "outputs": [
        {
          "internalType": "uint256",
          "name": "",
          "type": "uint256"
        }
      ],
      "stateMutability": "view",
      "type": "function"
    },
    {
      "inputs": [
        {
          "internalType": "address[]",
          "name": "liquidatedAccounts",
          "type": "address[]"
        }
      ],
      "name": "disburseLiqStakeAttacks",
      "outputs": [],
      "stateMutability": "nonpayable",
      "type": "function"
    },
    {
      "inputs": [],
      "name": "failureThreshold",
      "outputs": [
        {
          "internalType": "uint256",
          "name": "",
          "type": "uint256"
        }
      ],
      "stateMutability": "view",
      "type": "function"
    },
    {
      "inputs": [],
      "name": "feeBase",
      "outputs": [
        {
          "internalType": "uint256",
          "name": "",
          "type": "uint256"
        }
      ],
      "stateMutability": "view",
      "type": "function"
    },
    {
      "inputs": [
        {
          "internalType": "address",
          "name": "trader",
          "type": "address"
        }
      ],
      "name": "getBorrowAmounts",
      "outputs": [
        {
          "internalType": "address[]",
          "name": "borrowTokens",
          "type": "address[]"
        },
        {
          "internalType": "uint256[]",
          "name": "borrowAmounts",
          "type": "uint256[]"
        }
      ],
      "stateMutability": "view",
      "type": "function"
    },
    {
      "inputs": [
        {
          "internalType": "address",
          "name": "token",
          "type": "address"
        },
        {
          "internalType": "uint256",
          "name": "inAmount",
          "type": "uint256"
        },
        {
          "internalType": "bool",
          "name": "voluntary",
          "type": "bool"
        }
      ],
      "name": "getCurrentPriceInPeg",
      "outputs": [
        {
          "internalType": "uint256",
          "name": "priceInPeg",
          "type": "uint256"
        }
      ],
      "stateMutability": "nonpayable",
      "type": "function"
    },
    {
      "inputs": [
        {
          "internalType": "address",
          "name": "trader",
          "type": "address"
        }
      ],
      "name": "getHoldingAmounts",
      "outputs": [
        {
          "internalType": "address[]",
          "name": "holdingTokens",
          "type": "address[]"
        },
        {
          "internalType": "uint256[]",
          "name": "holdingAmounts",
          "type": "uint256[]"
        }
      ],
      "stateMutability": "view",
      "type": "function"
    },
    {
      "inputs": [],
      "name": "leveragePercent",
      "outputs": [
        {
          "internalType": "uint256",
          "name": "",
          "type": "uint256"
        }
      ],
      "stateMutability": "view",
      "type": "function"
    },
    {
      "inputs": [],
      "name": "liqStakeAttackWindow",
      "outputs": [
        {
          "internalType": "uint256",
          "name": "",
          "type": "uint256"
        }
      ],
      "stateMutability": "view",
      "type": "function"
    },
    {
      "inputs": [
        {
          "internalType": "address[]",
          "name": "liquidationCandidates",
          "type": "address[]"
        }
      ],
      "name": "liquidate",
      "outputs": [
        {
          "internalType": "uint256",
          "name": "maintainerCut",
          "type": "uint256"
        }
      ],
      "stateMutability": "nonpayable",
      "type": "function"
    },
    {
      "inputs": [],
      "name": "liquidationThresholdPercent",
      "outputs": [
        {
          "internalType": "uint256",
          "name": "",
          "type": "uint256"
        }
      ],
      "stateMutability": "view",
      "type": "function"
    },
    {
      "inputs": [
        {
          "internalType": "uint256",
          "name": "",
          "type": "uint256"
        }
      ],
      "name": "mainCharacterCache",
      "outputs": [
        {
          "internalType": "address",
          "name": "",
          "type": "address"
        }
      ],
      "stateMutability": "view",
      "type": "function"
    },
    {
      "inputs": [
        {
          "internalType": "address",
          "name": "",
          "type": "address"
        }
      ],
      "name": "maintenanceFailures",
      "outputs": [
        {
          "internalType": "uint256",
          "name": "",
          "type": "uint256"
        }
      ],
      "stateMutability": "view",
      "type": "function"
    },
    {
      "inputs": [
        {
          "internalType": "address",
          "name": "",
          "type": "address"
        }
      ],
      "name": "oracles",
      "outputs": [
        {
          "internalType": "contract IOracle",
          "name": "",
          "type": "address"
        }
      ],
      "stateMutability": "view",
      "type": "function"
    },
    {
      "inputs": [
        {
          "internalType": "address",
          "name": "",
          "type": "address"
        },
        {
          "internalType": "address",
          "name": "",
          "type": "address"
        }
      ],
      "name": "pairPrices",
      "outputs": [
        {
          "internalType": "uint256",
          "name": "cumulative",
          "type": "uint256"
        },
        {
          "internalType": "uint256",
          "name": "lastUpdated",
          "type": "uint256"
        },
        {
          "internalType": "uint256",
          "name": "priceFP",
          "type": "uint256"
        }
      ],
      "stateMutability": "view",
      "type": "function"
    },
    {
      "inputs": [],
      "name": "peg",
      "outputs": [
        {
          "internalType": "address",
          "name": "",
          "type": "address"
        }
      ],
      "stateMutability": "view",
      "type": "function"
    },
    {
      "inputs": [],
      "name": "priceUpdateWindow",
      "outputs": [
        {
          "internalType": "uint256",
          "name": "",
          "type": "uint256"
        }
      ],
      "stateMutability": "view",
      "type": "function"
    },
    {
      "inputs": [
        {
          "internalType": "address",
          "name": "trader",
          "type": "address"
        },
        {
          "internalType": "address",
          "name": "borrowToken",
          "type": "address"
        },
        {
          "internalType": "uint256",
          "name": "borrowAmount",
          "type": "uint256"
        }
      ],
      "name": "registerBorrow",
      "outputs": [],
      "stateMutability": "nonpayable",
      "type": "function"
    },
    {
      "inputs": [
        {
          "internalType": "address",
          "name": "trader",
          "type": "address"
        },
        {
          "internalType": "address",
          "name": "token",
          "type": "address"
        },
        {
          "internalType": "uint256",
          "name": "depositAmount",
          "type": "uint256"
        }
      ],
      "name": "registerDeposit",
      "outputs": [
        {
          "internalType": "uint256",
          "name": "extinguishableDebt",
          "type": "uint256"
        }
      ],
      "stateMutability": "nonpayable",
      "type": "function"
    },
    {
      "inputs": [
        {
          "internalType": "address",
          "name": "trader",
          "type": "address"
        }
      ],
      "name": "registerLiquidation",
      "outputs": [],
      "stateMutability": "nonpayable",
      "type": "function"
    },
    {
      "inputs": [
        {
          "internalType": "address",
          "name": "trader",
          "type": "address"
        }
      ],
      "name": "registerLiquidatorLiquidation",
      "outputs": [],
      "stateMutability": "nonpayable",
      "type": "function"
    },
    {
      "inputs": [
        {
          "internalType": "address",
          "name": "trader",
          "type": "address"
        },
        {
          "internalType": "address",
          "name": "depositToken",
          "type": "address"
        },
        {
          "internalType": "uint256",
          "name": "depositAmount",
          "type": "uint256"
        },
        {
          "internalType": "address",
          "name": "borrowToken",
          "type": "address"
        },
        {
          "internalType": "uint256",
          "name": "withdrawAmount",
          "type": "uint256"
        }
      ],
      "name": "registerOvercollateralizedBorrow",
      "outputs": [],
      "stateMutability": "nonpayable",
      "type": "function"
    },
    {
      "inputs": [
        {
          "internalType": "address",
          "name": "trader",
          "type": "address"
        },
        {
          "internalType": "address",
          "name": "borrowToken",
          "type": "address"
        },
        {
          "internalType": "uint256",
          "name": "borrowAmount",
          "type": "uint256"
        }
      ],
      "name": "registerRawBorrow",
      "outputs": [],
      "stateMutability": "nonpayable",
      "type": "function"
    },
    {
      "inputs": [
        {
          "internalType": "address",
          "name": "trader",
          "type": "address"
        },
        {
          "internalType": "address",
          "name": "tokenFrom",
          "type": "address"
        },
        {
          "internalType": "address",
          "name": "tokenTo",
          "type": "address"
        },
        {
          "internalType": "uint256",
          "name": "inAmount",
          "type": "uint256"
        },
        {
          "internalType": "uint256",
          "name": "outAmount",
          "type": "uint256"
        }
      ],
      "name": "registerTradeAndBorrow",
      "outputs": [
        {
          "internalType": "uint256",
          "name": "extinguishableDebt",
          "type": "uint256"
        },
        {
          "internalType": "uint256",
          "name": "borrowAmount",
          "type": "uint256"
        }
      ],
      "stateMutability": "nonpayable",
      "type": "function"
    },
    {
      "inputs": [
        {
          "internalType": "address",
          "name": "trader",
          "type": "address"
        },
        {
          "internalType": "address",
          "name": "withdrawToken",
          "type": "address"
        },
        {
          "internalType": "uint256",
          "name": "withdrawAmount",
          "type": "uint256"
        }
      ],
      "name": "registerWithdrawal",
      "outputs": [],
      "stateMutability": "nonpayable",
      "type": "function"
    },
    {
      "inputs": [
        {
          "internalType": "address",
          "name": "",
          "type": "address"
        },
        {
          "internalType": "uint256",
          "name": "",
          "type": "uint256"
        }
      ],
      "name": "roleCache",
      "outputs": [
        {
          "internalType": "bool",
          "name": "",
          "type": "bool"
        }
      ],
      "stateMutability": "view",
      "type": "function"
    },
    {
      "inputs": [],
      "name": "roles",
      "outputs": [
        {
          "internalType": "contract Roles",
          "name": "",
          "type": "address"
        }
      ],
      "stateMutability": "view",
      "type": "function"
    },
    {
      "inputs": [
        {
          "internalType": "uint256",
          "name": "blocks",
          "type": "uint256"
        }
      ],
      "name": "setCoolingOffPeriod",
      "outputs": [],
      "stateMutability": "nonpayable",
      "type": "function"
    },
    {
      "inputs": [
        {
          "internalType": "uint256",
          "name": "threshFactor",
          "type": "uint256"
        }
      ],
      "name": "setFailureThreshold",
      "outputs": [],
      "stateMutability": "nonpayable",
      "type": "function"
    },
    {
      "inputs": [
        {
          "internalType": "uint256",
          "name": "_leveragePercent",
          "type": "uint256"
        }
      ],
      "name": "setLeveragePercent",
      "outputs": [],
      "stateMutability": "nonpayable",
      "type": "function"
    },
    {
      "inputs": [
        {
          "internalType": "uint256",
          "name": "window",
          "type": "uint256"
        }
      ],
      "name": "setLiqStakeAttackWindow",
      "outputs": [],
      "stateMutability": "nonpayable",
      "type": "function"
    },
    {
      "inputs": [
        {
          "internalType": "bytes32",
          "name": "amms",
          "type": "bytes32"
        },
        {
          "internalType": "address[]",
          "name": "tokens",
          "type": "address[]"
        }
      ],
      "name": "setLiquidationPath",
      "outputs": [],
      "stateMutability": "nonpayable",
      "type": "function"
    },
    {
      "inputs": [
        {
          "internalType": "uint256",
          "name": "threshold",
          "type": "uint256"
        }
      ],
      "name": "setLiquidationThresholdPercent",
      "outputs": [],
      "stateMutability": "nonpayable",
      "type": "function"
    },
    {
      "inputs": [
        {
          "internalType": "uint256",
          "name": "cut",
          "type": "uint256"
        }
      ],
      "name": "setMaintainerCutPercent",
      "outputs": [],
      "stateMutability": "nonpayable",
      "type": "function"
    },
    {
      "inputs": [
        {
          "internalType": "address",
          "name": "token",
          "type": "address"
        },
        {
          "internalType": "address",
          "name": "oracle",
          "type": "address"
        }
      ],
      "name": "setPriceOracle",
      "outputs": [],
      "stateMutability": "nonpayable",
      "type": "function"
    },
    {
      "inputs": [
        {
          "internalType": "uint16",
          "name": "window",
          "type": "uint16"
        },
        {
          "internalType": "uint256",
          "name": "voluntaryWindow",
          "type": "uint256"
        }
      ],
      "name": "setPriceUpdateWindow",
      "outputs": [],
      "stateMutability": "nonpayable",
      "type": "function"
    },
    {
      "inputs": [
        {
          "internalType": "address",
          "name": "token",
          "type": "address"
        },
        {
          "internalType": "uint256",
          "name": "cap",
          "type": "uint256"
        }
      ],
      "name": "setTokenCap",
      "outputs": [],
      "stateMutability": "nonpayable",
      "type": "function"
    },
    {
      "inputs": [
        {
          "internalType": "uint256",
          "name": "rate",
          "type": "uint256"
        }
      ],
      "name": "setUpdateRate",
      "outputs": [],
      "stateMutability": "nonpayable",
      "type": "function"
    },
    {
      "inputs": [
        {
          "internalType": "address",
          "name": "",
          "type": "address"
        }
      ],
      "name": "stakeAttackRecords",
      "outputs": [
        {
          "internalType": "uint256",
          "name": "blockNum",
          "type": "uint256"
        },
        {
          "internalType": "address",
          "name": "loser",
          "type": "address"
        },
        {
          "internalType": "uint256",
          "name": "amount",
          "type": "uint256"
        },
        {
          "internalType": "address",
          "name": "stakeAttacker",
          "type": "address"
        }
      ],
      "stateMutability": "view",
      "type": "function"
    },
    {
      "inputs": [
        {
          "internalType": "address",
          "name": "",
          "type": "address"
        }
      ],
      "name": "tokenCaps",
      "outputs": [
        {
          "internalType": "uint256",
          "name": "",
          "type": "uint256"
        }
      ],
      "stateMutability": "view",
      "type": "function"
    },
    {
      "inputs": [
        {
          "internalType": "address",
          "name": "",
          "type": "address"
        }
      ],
      "name": "tokenPrices",
      "outputs": [
        {
          "internalType": "uint256",
          "name": "lastUpdated",
          "type": "uint256"
        },
        {
          "internalType": "uint256",
          "name": "priceFP",
          "type": "uint256"
        },
        {
          "internalType": "bytes32",
          "name": "amms",
          "type": "bytes32"
        },
        {
          "internalType": "bytes32",
          "name": "inverseAmms",
          "type": "bytes32"
        }
      ],
      "stateMutability": "view",
      "type": "function"
    },
    {
      "inputs": [
        {
          "internalType": "address",
          "name": "",
          "type": "address"
        }
      ],
      "name": "totalLong",
      "outputs": [
        {
          "internalType": "uint256",
          "name": "",
          "type": "uint256"
        }
      ],
      "stateMutability": "view",
      "type": "function"
    },
    {
      "inputs": [
        {
          "internalType": "uint256",
          "name": "role",
          "type": "uint256"
        }
      ],
      "name": "updateMainCharacterCache",
      "outputs": [],
      "stateMutability": "nonpayable",
      "type": "function"
    },
    {
      "inputs": [
        {
          "internalType": "uint256",
          "name": "role",
          "type": "uint256"
        },
        {
          "internalType": "address",
          "name": "contr",
          "type": "address"
        }
      ],
      "name": "updateRoleCache",
      "outputs": [],
      "stateMutability": "nonpayable",
      "type": "function"
    },
    {
      "inputs": [
        {
          "internalType": "address",
          "name": "trader",
          "type": "address"
        },
        {
          "internalType": "address",
          "name": "token",
          "type": "address"
        }
      ],
      "name": "viewBalanceInToken",
      "outputs": [
        {
          "internalType": "uint256",
          "name": "",
          "type": "uint256"
        }
      ],
      "stateMutability": "view",
      "type": "function"
    },
    {
      "inputs": [
        {
          "internalType": "address",
          "name": "token",
          "type": "address"
        },
        {
          "internalType": "uint256",
          "name": "inAmount",
          "type": "uint256"
        }
      ],
      "name": "viewCurrentPriceInPeg",
      "outputs": [
        {
          "internalType": "uint256",
          "name": "priceInPeg",
          "type": "uint256"
        }
      ],
      "stateMutability": "view",
      "type": "function"
    },
    {
      "inputs": [
        {
          "internalType": "address",
          "name": "trader",
          "type": "address"
        }
      ],
      "name": "viewHoldingsInPeg",
      "outputs": [
        {
          "internalType": "uint256",
          "name": "",
          "type": "uint256"
        }
      ],
      "stateMutability": "view",
      "type": "function"
    },
    {
      "inputs": [
        {
          "internalType": "address",
          "name": "trader",
          "type": "address"
        }
      ],
      "name": "viewLoanInPeg",
      "outputs": [
        {
          "internalType": "uint256",
          "name": "amount",
          "type": "uint256"
        }
      ],
      "stateMutability": "view",
      "type": "function"
    },
    {
      "inputs": [
        {
          "internalType": "uint256",
          "name": "",
          "type": "uint256"
        }
      ],
      "name": "volatilitySettings",
      "outputs": [
        {
          "internalType": "uint256",
          "name": "priceUpdateWindow",
          "type": "uint256"
        },
        {
          "internalType": "uint256",
          "name": "updateRatePermil",
          "type": "uint256"
        },
        {
          "internalType": "uint256",
          "name": "voluntaryUpdateWindow",
          "type": "uint256"
        }
      ],
      "stateMutability": "view",
      "type": "function"
    },
    {
      "inputs": [],
      "name": "voluntaryUpdateWindow",
      "outputs": [
        {
          "internalType": "uint256",
          "name": "",
          "type": "uint256"
        }
      ],
      "stateMutability": "view",
      "type": "function"
    }
  ],
  "transactionHash": "0x3126106efb9fc10ab7eb51ab259e4b51117c8625401294f004f7cae9420dad76",
  "args": [
    "0xc7198437980c041c805A1EDcbA50c1Ce5db95118",
    "0xefa94DE7a4656D787667C749f7E1223D71E9FD88",
    "0xc35DADB65012eC5796536bD9864eD8773aBc74C4",
    "0x3587B8c0136c2C3605a9E5B03ab54Da3e4044b50",
    "0x40231f6b438bce0797c9ada29b718a87ea0a5cea3fe9a771abdd76bd41a3e545",
    "0xe18a34eb0e04b04f7a0ac29a6e80748dca96319b42c54d679cb821dca90c6303",
    "0x81dbf51ab39dc634785936a3b34def28bf8007e6dfa30d4284c4b8547cb47a51",
    9970,
    "0xA7b937f2601353f8116872f3CbeBB56D8300A9A3"
  ],
  "solcInputHash": "177459222520c2cada5f3985c2d48197",
  "bytecode": "0x6101406040526104b060085561012c600955610190600a5561012c600c556073600d55600a601155600a60175560056018556005601955600a601a553480156200004857600080fd5b5060405162005a5738038062005a578339810160408190526200006b916200014b565b8888888888888888886001600160a01b038116620000da5760405162461bcd60e51b815260206004820152602260248201527f506c656173652070726f766964652076616c696420726f6c6573206164647265604482015261737360f01b606482015260840160405180910390fd5b6001600160601b0319606091821b811660805297811b881660a05295861b871660c05293851b861660e052600292909255600355600455610100529190911b166101205250620001e1975050505050505050565b80516001600160a01b03811681146200014657600080fd5b919050565b60008060008060008060008060006101208a8c0312156200016a578485fd5b620001758a6200012e565b98506200018560208b016200012e565b97506200019560408b016200012e565b9650620001a560608b016200012e565b955060808a0151945060a08a0151935060c08a0151925060e08a01519150620001d26101008b016200012e565b90509295985092959850929598565b60805160601c60a05160601c60c05160601c60e05160601c610100516101205160601c6157ae620002a96000396000818161049d01528181610c7a01528181610f3b01528181611a1201528181611eb80152818161211e0152818161225d01528181612c7201528181614a490152614b8201526000610744015260006109340152600081816103c4015261481201526000818161082e01526148b801526000818161059b01528181610a3d0152818161163901528181612e3e0152612ed601526157ae6000f3fe608060405234801561001057600080fd5b50600436106103ba5760003560e01c80637ab877b7116101f4578063badb50481161011a578063df7c20f9116100ad578063ef859fc81161007c578063ef859fc8146109b1578063f04c6865146109ee578063f3f5f9b514610a01578063f99fd97c14610a14576103ba565b8063df7c20f914610956578063e0f3871f1461095f578063e2abb5c41461097f578063e9c3f77d14610988576103ba565b8063d0eb6653116100e9578063d0eb6653146108f6578063d510c53514610909578063db2d904d1461091c578063db4292351461092f576103ba565b8063badb504814610850578063bc70c666146108bd578063c73afac2146108d0578063c74303aa146108e3576103ba565b8063a371891911610192578063a985994b11610161578063a985994b146107da578063addd5099146107ed578063b25b454814610816578063b852eb0d14610829576103ba565b8063a371891914610795578063a53ac0d9146107a8578063a75208a8146107b1578063a75697a5146107ba576103ba565b806395e911a8116101ce57806395e911a81461073f5780639c56522c14610766578063a17ab5271461076f578063a20ec49314610782576103ba565b80637ab877b7146106ce5780637d100e84146106e15780638dc6a529146106ea576103ba565b80633500aa0b116102e4578063519bda851161027757806360b3fa401161024657806360b3fa40146106715780636585b5a61461068457806367a74ddc1461068d5780637a1a04df146106a0576103ba565b8063519bda851461063957806352a664d914610642578063538edb291461065557806354554b581461065e576103ba565b8063447d52ba116102b3578063447d52ba146105e757806347788cd0146105fa578063498d55eb1461061d5780634aa4aca314610630576103ba565b80633500aa0b1461056e578063392f5f64146105965780633ed456fa146105bd578063409fdb72146105c6576103ba565b80631d84cc181161035c57806320c271261161032b57806320c27126146105295780632b23f857146105495780632febaa741461055c578063320d2fa014610565576103ba565b80631d84cc18146104855780631f1cb62b146104985780631f692a64146104bf578063204120bc146104d2576103ba565b8063093a483a11610398578063093a483a1461042b57806310d584341461044c57806316317e7e1461045f5780631d47e4a314610472576103ba565b8063059b157a146103bf578063071060a61461040357806307c2017514610418575b600080fd5b6103e67f000000000000000000000000000000000000000000000000000000000000000081565b6040516001600160a01b0390911681526020015b60405180910390f35b610416610411366004615372565b610a27565b005b6104166104263660046151dd565b610aed565b61043e610439366004615144565b610bcd565b6040519081526020016103fa565b61041661045a366004615372565b610cfe565b61041661046d366004615372565b610d55565b610416610480366004615144565b610da3565b6104166104933660046150ea565b610e17565b6103e67f000000000000000000000000000000000000000000000000000000000000000081565b61043e6104cd366004614fe0565b610e7f565b6105096104e0366004614fe0565b600560208190526000918252604090912080546001820154600383015492909301549092919084565b6040805194855260208501939093529183015260608201526080016103fa565b61043e610537366004614fe0565b60106020526000908152604090205481565b6104166105573660046152c7565b610eb4565b61043e60115481565b61043e600d5481565b61058161057c366004615050565b6111ee565b604080519283526020830191909152016103fa565b6103e67f000000000000000000000000000000000000000000000000000000000000000081565b61043e60085481565b6105d96105d4366004614fe0565b61149c565b6040516103fa92919061548d565b6104166105f53660046153a2565b611613565b61060d610608366004614fe0565b6116eb565b60405190151581526020016103fa565b61041661062b3660046150aa565b611752565b61043e60185481565b61043e600a5481565b61043e6106503660046150aa565b6117ab565b61043e60195481565b61041661066c366004615372565b611915565b61043e61067f36600461519c565b611963565b61043e60175481565b61041661069b366004615018565b611b50565b61060d6106ae366004615144565b600160209081526000928352604080842090915290825290205460ff1681565b6104166106dc366004614fe0565b611bd6565b61043e601a5481565b6107246106f8366004615018565b600660209081526000928352604080842090915290825290208054600182015460029092015490919083565b604080519384526020840192909252908201526060016103fa565b61043e7f000000000000000000000000000000000000000000000000000000000000000081565b61043e60095481565b61043e61077d366004614fe0565b611c32565b61041661079036600461534f565b611c5a565b6104166107a3366004615372565b611cb1565b61043e600c5481565b61043e60025481565b61043e6107c8366004614fe0565b60156020526000908152604090205481565b61043e6107e83660046151dd565b611cff565b6103e66107fb366004614fe0565b6007602052600090815260409020546001600160a01b031681565b6104166108243660046150aa565b612401565b6103e67f000000000000000000000000000000000000000000000000000000000000000081565b61089261085e366004614fe0565b601660205260009081526040902080546001820154600283015460039093015491926001600160a01b039182169290911684565b604080519485526001600160a01b0393841660208601528401919091521660608201526080016103fa565b6107246108cb366004615372565b6125af565b6104166108de366004615372565b6125e2565b6104166108f1366004615372565b612630565b6104166109043660046150aa565b61267e565b6105d9610917366004614fe0565b6126f6565b61041661092a366004614fe0565b6128e9565b6103e67f000000000000000000000000000000000000000000000000000000000000000081565b61043e60035481565b61043e61096d366004614fe0565b600f6020526000908152604090205481565b61043e60045481565b6103e6610996366004615372565b6000602081905290815260409020546001600160a01b031681565b61043e6109bf366004615018565b6001600160a01b039182166000908152600e602090815260408083209390941682526005909201909152205490565b6104166109fc366004615372565b612985565b610416610a0f3660046153e9565b612ac9565b610416610a22366004615372565b612bb5565b60405163b4ed0b6d60e01b8152600481018290527f00000000000000000000000000000000000000000000000000000000000000006001600160a01b03169063b4ed0b6d9060240160206040518083038186803b158015610a8757600080fd5b505afa158015610a9b573d6000803e3d6000fd5b505050506040513d601f19601f82011682018060405250810190610abf9190614ffc565b60009182526020829052604090912080546001600160a01b0319166001600160a01b03909216919091179055565b60005b8082511115610bc9576000828281518110610b1b57634e487b7160e01b600052603260045260246000fd5b60200260200101519050600060166000836001600160a01b03166001600160a01b0316815260200190815260200160002090506018548160000154610b6091906156a0565b431115610bb457610b7081612c03565b506001600160a01b03821660009081526016602052604081208181556001810180546001600160a01b03199081169091556002820192909255600301805490911690555b50508080610bc19061570e565b915050610af0565b5050565b6001600160a01b038083166000908152600760205260408120549091168015610c78576040516309df49fb60e11b81526001600160a01b038581166004830152602482018590528216906313be93f69060440160206040518083038186803b158015610c3857600080fd5b505afa158015610c4c573d6000803e3d6000fd5b505050506040513d601f19601f82011682018060405250810190610c70919061538a565b915050610cf8565b7f00000000000000000000000000000000000000000000000000000000000000006001600160a01b0316846001600160a01b03161415610cbb5782915050610cf8565b6001600160a01b03841660009081526005602052604090206001810154600160701b610ce782876156d8565b610cf191906156b8565b935050505b505b92915050565b33610d07612e3a565b6001600160a01b03161480610d2b575033610d20612ed2565b6001600160a01b0316145b610d505760405162461bcd60e51b8152600401610d4790615599565b60405180910390fd5b601a55565b33610d5e612e3a565b6001600160a01b03161480610d82575033610d77612ed2565b6001600160a01b0316145b610d9e5760405162461bcd60e51b8152600401610d4790615599565b600d55565b33610dac612e3a565b6001600160a01b03161480610dd0575033610dc5612ed2565b6001600160a01b0316145b80610ddf5750610ddf33612f43565b610dfb5760405162461bcd60e51b8152600401610d4790615505565b6001600160a01b039091166000908152600f6020526040902055565b610e2033612f6d565b610e3c5760405162461bcd60e51b8152600401610d4790615562565b6001600160a01b0385166000908152600e60205260409020610e5f818686612f97565b610e6a818484613012565b610e7581848461308d565b4390555050505050565b6001600160a01b0381166000908152600e60205260408120610eab6001820160028301600384016131a4565b9150505b919050565b33610ebd612e3a565b6001600160a01b03161480610ee1575033610ed6612ed2565b6001600160a01b0316145b80610ef05750610ef033612f43565b610f0c5760405162461bcd60e51b8152600401610d4790615505565b600081600081518110610f2f57634e487b7160e01b600052603260045260246000fd5b602002602001015190507f00000000000000000000000000000000000000000000000000000000000000006001600160a01b0316816001600160a01b0316146111e9576001600160a01b03811660009081526005602090815260409091206003810185905583519091610fa9916002840191860190614eb6565b50825167ffffffffffffffff811115610fd257634e487b7160e01b600052604160045260246000fd5b604051908082528060200260200182016040528015610ffb578160200160208202803683370190505b508051611012916004840191602090910190614eb6565b506000805b806001865161102691906156f7565b1115611122576110b485828151811061104f57634e487b7160e01b600052603260045260246000fd5b60200260200101518683600161106591906156a0565b8151811061108357634e487b7160e01b600052603260045260246000fd5b60200260200101518884602081106110ab57634e487b7160e01b600052603260045260246000fd5b1a60f81b613231565b600081600287516110c591906156f7565b6110cf91906156f7565b6110da9060086156d8565b8783602081106110fa57634e487b7160e01b600052603260045260246000fd5b1a60f81b6001600160f81b031916901c9290921791508061111a8161570e565b915050611017565b506005820181905560005b80855111156111d45784600182875161114691906156f7565b61115091906156f7565b8151811061116e57634e487b7160e01b600052603260045260246000fd5b602002602001015183600401828154811061119957634e487b7160e01b600052603260045260246000fd5b600091825260209091200180546001600160a01b0319166001600160a01b0392909216919091179055806111cc8161570e565b91505061112d565b506111df848661349f565b6001830155504290555b505050565b6000806111fa33612f6d565b6112465760405162461bcd60e51b815260206004820181905260248201527f43616c6c696e6720636f6e74722e206e6f7420616e20617574686f72697a65646044820152606401610d47565b6001600160a01b038088166000908152600e6020908152604080832093891683526002840190915290205415611370576000806112816137af565b6001600160a01b0389811660009081526002860160209081526040808320546003890190925291829020549151631cd2bf4d60e31b8152939092169263e695fa68926112d49290918d9190600401615607565b6040805180830381600087803b1580156112ed57600080fd5b505af1158015611301573d6000803e3d6000fd5b505050506040513d601f19601f8201168201806040525081019061132591906153c6565b6001600160a01b038a1660009081526002860160209081526040808320859055600388019091529020819055909250905061136086836137e7565b945061136d8389876137ff565b50505b6001600160a01b03871660009081526005820160205260409020548590808211156113a5579050806113a281886156f7565b93505b838711156113e5576113b784886156f7565b6001600160a01b038a16600090815260106020526040812080549091906113df9084906156f7565b90915550505b84861115611425576113f785876156f7565b6001600160a01b0389166000908152601060205260408120805490919061141f9084906156a0565b90915550505b6001600160a01b038816600090815260106020908152604080832054600f9092529091205410156114685760405162461bcd60e51b8152600401610d47906155d0565b61147e838a8a856114798a8c6156f7565b613a49565b831561148f5761148f838a86613a95565b5050509550959350505050565b6001600160a01b0381166000908152600e602090815260409182902060048101805484518185028101850190955280855260609485949092919083018282801561150f57602002820191906000526020600020905b81546001600160a01b031681526001909101906020018083116114f1575b5050506004840154929550505067ffffffffffffffff81111561154257634e487b7160e01b600052604160045260246000fd5b60405190808252806020026020018201604052801561156b578160200160208202803683370190505b50915060005b808451111561160c57600084828151811061159c57634e487b7160e01b600052603260045260246000fd5b60200260200101519050826005016000826001600160a01b03166001600160a01b03168152602001908152602001600020548483815181106115ee57634e487b7160e01b600052603260045260246000fd5b602090810291909101015250806116048161570e565b915050611571565b5050915091565b6040516393552a3d60e01b8152600481018390526001600160a01b0382811660248301527f000000000000000000000000000000000000000000000000000000000000000016906393552a3d9060440160206040518083038186803b15801561167b57600080fd5b505afa15801561168f573d6000803e3d6000fd5b505050506040513d601f19601f820116820180604052508101906116b391906152ab565b6001600160a01b0391909116600090815260016020908152604080832094835293905291909120805460ff1916911515919091179055565b6001600160a01b0381166000908152600e60205260408120816117186001830160028401600385016131a4565b9050600061172c8360040184600501613c99565b90506117398160646156d8565b82600d5461174791906156d8565b101595945050505050565b61175b33612f6d565b6117775760405162461bcd60e51b8152600401610d4790615562565b6001600160a01b0383166000908152600e6020526040902061179a818484613d24565b6117a5818484613012565b50505050565b60006117b633612f6d565b6117d25760405162461bcd60e51b8152600401610d4790615562565b6001600160a01b038085166000908152600e6020908152604080832043815593871683526002840190915290205480156118f2576000806118116137af565b6001600160a01b03888116600090815260038701602052604090819020549051631cd2bf4d60e31b8152929091169163e695fa68916118569187918c91600401615607565b6040805180830381600087803b15801561186f57600080fd5b505af1158015611883573d6000803e3d6000fd5b505050506040513d601f19601f820116820180604052508101906118a791906153c6565b6001600160a01b0389166000908152600287016020908152604080832085905560038901909152902081905590925090506118e286836137e7565b94506118ef8488876137ff565b50505b60006118fe84866156f7565b905061190b838783612f97565b5050509392505050565b3361191e612e3a565b6001600160a01b03161480611942575033611937612ed2565b6001600160a01b0316145b61195e5760405162461bcd60e51b8152600401610d4790615599565b600a55565b6001600160a01b038084166000908152600760205260408120549091168015611a105760405163362a6fa960e11b81526001600160a01b03868116600483015260248201869052821690636c54df5290604401602060405180830381600087803b1580156119d057600080fd5b505af11580156119e4573d6000803e3d6000fd5b505050506040513d601f19601f82011682018060405250810190611a08919061538a565b915050611b49565b7f00000000000000000000000000000000000000000000000000000000000000006001600160a01b0316856001600160a01b03161415611a535783915050611b49565b6001600160a01b03851660009081526005602052604081208054909190611a7a90426156f7565b9050600854811180611a8e57506001820154155b80611aa25750848015611aa2575060095481115b15611b24576000611b1383600201805480602002602001604051908101604052809291908181526020018280548015611b0457602002820191906000526020600020905b81546001600160a01b03168152600190910190602001808311611ae6575b5050505050846003015461349f565b9050611b228382600a54613dca565b505b600160701b826001015487611b3991906156d8565b611b4391906156b8565b93505050505b9392505050565b33611b59612e3a565b6001600160a01b03161480611b7d575033611b72612ed2565b6001600160a01b0316145b80611b8c5750611b8c33612f43565b611ba85760405162461bcd60e51b8152600401610d4790615505565b6001600160a01b03918216600090815260076020526040902080546001600160a01b03191691909216179055565b3360009081526001602090815260408083206006845290915290205460ff16611c115760405162461bcd60e51b8152600401610d4790615562565b6001600160a01b0381166000908152600e60205260409020610bc981613e12565b6001600160a01b0381166000908152600e60205260408120610eab6004820160058301613c99565b33611c63612e3a565b6001600160a01b03161480611c87575033611c7c612ed2565b6001600160a01b0316145b611ca35760405162461bcd60e51b8152600401610d4790615599565b61ffff909116600855600955565b33611cba612e3a565b6001600160a01b03161480611cde575033611cd3612ed2565b6001600160a01b0316145b611cfa5760405162461bcd60e51b8152600401610d4790615599565b601855565b6000333214611d765760405162461bcd60e51b815260206004820152603a60248201527f43757272656e746c79206e6f20696e7465726d656469617269657320616c6c6f60448201527f77656420666f7220746869732066756e6374696f6e2063616c6c0000000000006064820152608401610d47565b6000611d80613f66565b604051633d91e5e760e11b81523360048201526001600160a01b039190911690637b23cbce90602401602060405180830381600087803b158015611dc357600080fd5b505af1158015611dd7573d6000803e3d6000fd5b505050506040513d601f19601f82011682018060405250810190611dfb91906152ab565b905060008180611e0e5750611e0e613f9e565b9050611e1a848361404b565b92506000611e266144c8565b90506000611e3261459e565b9050611e4060136000614f1b565b600060646019546064611e5391906156a0565b611e5d90846156d8565b611e6791906156b8565b905082811115611f69577f3555ffae7677eb42103f0b9e11b61c758f452fae446684dec7a363dd38ab58fc611e9c84836156f7565b60405190815260200160405180910390a1838015611f665750807f00000000000000000000000000000000000000000000000000000000000000006001600160a01b03166370a08231611eed61466c565b6040516001600160e01b031960e084901b1681526001600160a01b03909116600482015260240160206040518083038186803b158015611f2c57600080fd5b505afa158015611f40573d6000803e3d6000fd5b505050506040513d601f19601f82011682018060405250810190611f64919061538a565b115b93505b600084611fed57611f78613f66565b6001600160a01b0316631a38de1d6040518163ffffffff1660e01b8152600401602060405180830381600087803b158015611fb257600080fd5b505af1158015611fc6573d6000803e3d6000fd5b505050506040513d601f19601f82011682018060405250810190611fea9190614ffc565b90505b60005b60145481101561220e5760006014828154811061201d57634e487b7160e01b600052603260045260246000fd5b60009182526020808320909101546001600160a01b0316808352600e909152604082209092509061204d826146a4565b9050600061205a836146b6565b9050600060646019548361206e91906156d8565b61207891906156b8565b9050612084818e6156a0565b9c508a6120d9576001600160a01b03858116600090815260166020526040902060028101839055600381018054336001600160a01b031991821617909155438255600190910180549091169189169190911790555b600060646120e88460656156d8565b6120f291906156b8565b6120fc90836156a0565b9050808411156121b05761210e61466c565b6001600160a01b031663d9caed127f00000000000000000000000000000000000000000000000000000000000000008861214885896156f7565b6040516001600160e01b031960e086901b1681526001600160a01b0393841660048201529290911660248301526044820152606401600060405180830381600087803b15801561219757600080fd5b505af11580156121ab573d6000803e3d6000fd5b505050505b6040516001600160a01b03871681527f1d2cc4c8661a04a00b4e727426220501b36d85bb330947642c2d4320667028cf9060200160405180910390a16121f585613e12565b50505050505080806122069061570e565b915050611ff0565b50606487601754606361222191906156d8565b61222b91906156a0565b61223591906156b8565b60175584156122d15761224661466c565b604051636ce5768960e11b81526001600160a01b037f000000000000000000000000000000000000000000000000000000000000000081166004830152336024830152604482018a9052919091169063d9caed1290606401600060405180830381600087803b1580156122b857600080fd5b505af11580156122cc573d6000803e3d6000fd5b505050505b60006122db613f66565b6001600160a01b0316631a38de1d6040518163ffffffff1660e01b8152600401602060405180830381600087803b15801561231557600080fd5b505af1158015612329573d6000803e3d6000fd5b505050506040513d601f19601f8201168201806040525081019061234d9190614ffc565b905086156123c7576001600160a01b0381166000908152601560205260409020548810156123a8576001600160a01b038116600090815260156020526040812080548a929061239d9084906156f7565b909155506123c29050565b6001600160a01b0381166000908152601560205260408120555b6123f5565b6001600160a01b038116600090815260156020526040812080548a92906123ef9084906156a0565b90915550505b50505050505050919050565b3361240a612e3a565b6001600160a01b0316148061242e575033612423612ed2565b6001600160a01b0316145b61244a5760405162461bcd60e51b8152600401610d4790615599565b6001600160a01b038381166000908152600e6020908152604082206001808201805491820181558452919092200180546001600160a01b031916928516929092179091556124966137af565b604051628d90ff60e71b81526001600160a01b03858116600483015291909116906346c87f8090602401602060405180830381600087803b1580156124da57600080fd5b505af11580156124ee573d6000803e3d6000fd5b505050506040513d601f19601f82011682018060405250810190612512919061538a565b6001600160a01b0384166000908152600383016020908152604080832093909355600284019052208290556125456137af565b60405163ee0862bf60e01b81526001600160a01b03858116600483015260248201859052919091169063ee0862bf90604401600060405180830381600087803b15801561259157600080fd5b505af11580156125a5573d6000803e3d6000fd5b5050505050505050565b600b81815481106125bf57600080fd5b600091825260209091206003909102018054600182015460029092015490925083565b336125eb612e3a565b6001600160a01b0316148061260f575033612604612ed2565b6001600160a01b0316145b61262b5760405162461bcd60e51b8152600401610d4790615599565b601955565b33612639612e3a565b6001600160a01b0316148061265d575033612652612ed2565b6001600160a01b0316145b6126795760405162461bcd60e51b8152600401610d4790615599565b600c55565b61268733612f6d565b6126d35760405162461bcd60e51b815260206004820152601c60248201527f43616c6c696e6720636f6e7472206e6f7420617574686f72697a6564000000006044820152606401610d47565b6001600160a01b0383166000908152600e602052604090206117a581848461308d565b6001600160a01b0381166000908152600e602090815260409182902060018101805484518185028101850190955280855260609485949092919083018282801561276957602002820191906000526020600020905b81546001600160a01b0316815260019091019060200180831161274b575b5050506001840154929550505067ffffffffffffffff81111561279c57634e487b7160e01b600052604160045260246000fd5b6040519080825280602002602001820160405280156127c5578160200160208202803683370190505b50915060005b808451111561160c5760008482815181106127f657634e487b7160e01b600052603260045260246000fd5b602002602001015190506128086137af565b6001600160a01b03828116600090815260028601602090815260408083205460038901909252918290205491516376668b6760e01b815293909216926376668b679261285b929091869190600401615607565b60206040518083038186803b15801561287357600080fd5b505afa158015612887573d6000803e3d6000fd5b505050506040513d601f19601f820116820180604052508101906128ab919061538a565b8483815181106128cb57634e487b7160e01b600052603260045260246000fd5b602090810291909101015250806128e18161570e565b9150506127cb565b6128f233612f6d565b61290e5760405162461bcd60e51b8152600401610d4790615562565b6001600160a01b0381166000908152600e6020526040902061292f816146b6565b1561297c5760405162461bcd60e51b815260206004820152601a60248201527f43616e2774206c69717569646174653a20626f72726f77696e670000000000006044820152606401610d47565b610bc981613e12565b3361298e612e3a565b6001600160a01b031614806129b25750336129a7612ed2565b6001600160a01b0316145b80612a005750336129f56103e960009081526020527f236f539bf6e1b3b15a335e3cd157d360bc4be88c071635c19ba8a82b4f665e9f546001600160a01b031690565b6001600160a01b0316145b612a725760405162461bcd60e51b815260206004820152603860248201527f43616c6c6572206973206e6f7420746865206f776e65722c206578656375746f60448201527f72206f7220617574686f72697a65642064697361626c657200000000000000006064820152608401610d47565b6000600b8281548110612a9557634e487b7160e01b600052603260045260246000fd5b90600052602060002090600302019050600081600101541115610bc9576001810154600a5580546008556002015460095550565b33612ad2612e3a565b6001600160a01b03161480612af6575033612aeb612ed2565b6001600160a01b0316145b612b125760405162461bcd60e51b8152600401610d4790615599565b60408051606081018252938452602084019283528301908152600b805460018101825560009190915292517f0175b7a638427703f0dbe7bb9bbf987a2551717b34e79f33b5b1008d1fa01db960039094029384015590517f0175b7a638427703f0dbe7bb9bbf987a2551717b34e79f33b5b1008d1fa01dba830155517f0175b7a638427703f0dbe7bb9bbf987a2551717b34e79f33b5b1008d1fa01dbb90910155565b33612bbe612e3a565b6001600160a01b03161480612be2575033612bd7612ed2565b6001600160a01b0316145b612bfe5760405162461bcd60e51b8152600401610d4790615599565b601155565b600281015460009015610eaf578154600090612c2b90612c2390436156f7565b6018546137e7565b90506000601854828560020154612c4291906156d8565b612c4c91906156b8565b9050612c5661466c565b6003850154604051636ce5768960e11b81526001600160a01b037f00000000000000000000000000000000000000000000000000000000000000008116600483015291821660248201526044810184905291169063d9caed1290606401600060405180830381600087803b158015612ccd57600080fd5b505af1158015612ce1573d6000803e3d6000fd5b505050506000612cef613f66565b905060006017546001612d0291906156a0565b83836001600160a01b0316630ad691506040518163ffffffff1660e01b815260040160206040518083038186803b158015612d3c57600080fd5b505afa158015612d50573d6000803e3d6000fd5b505050506040513d601f19601f82011682018060405250810190612d74919061538a565b612d7e91906156d8565b612d8891906156b8565b60018701546003880154604051630a45bc1b60e01b81526001600160a01b039283166004820152602481018490529082166044820152919250831690630a45bc1b90606401602060405180830381600087803b158015612de757600080fd5b505af1158015612dfb573d6000803e3d6000fd5b505050506040513d601f19601f82011682018060405250810190612e1f919061538a565b50828660020154612e3091906156f7565b9695505050505050565b60007f00000000000000000000000000000000000000000000000000000000000000006001600160a01b0316638da5cb5b6040518163ffffffff1660e01b815260040160206040518083038186803b158015612e9557600080fd5b505afa158015612ea9573d6000803e3d6000fd5b505050506040513d601f19601f82011682018060405250810190612ecd9190614ffc565b905090565b60007f00000000000000000000000000000000000000000000000000000000000000006001600160a01b031663c34c08e56040518163ffffffff1660e01b8152600401602060405180830381600087803b158015612f2f57600080fd5b505af1158015612ea9573d6000803e3d6000fd5b6001600160a01b031660009081526001602090815260408083206009845290915290205460ff1690565b6001600160a01b031660009081526001602090815260408083206004845290915290205460ff1690565b612fa2838383613d24565b6001600160a01b03821660009081526010602052604081208054839290612fca9084906156a0565b90915550506001600160a01b038216600090815260106020908152604080832054600f9092529091205410156111e95760405162461bcd60e51b8152600401610d47906155d0565b6001600160a01b0382166000908152601060205260408120805483929061303a9084906156a0565b90915550506001600160a01b038216600090815260106020908152604080832054600f9092529091205410156130825760405162461bcd60e51b8152600401610d47906155d0565b6111e9838383613a95565b601154835461309c91906156a0565b43116130ea5760405162461bcd60e51b815260206004820181905260248201527f4e6f207769746864726177616c20736f6f6e206166746572206465706f7369746044820152606401610d47565b6001600160a01b038216600090815260106020526040812080548392906131129084906156f7565b90915550506001600160a01b038216600090815260058401602052604090205461313d9082906156f7565b6001600160a01b0383166000908152600585016020526040902055613161836146cc565b6111e95760405162461bcd60e51b8152602060048201526014602482015273496e73756666696369656e742062616c616e636560601b6044820152606401610d47565b8254600090815b818110156132285760008682815481106131d557634e487b7160e01b600052603260045260246000fd5b60009182526020808320909101546001600160a01b03168083529088905260409091205490915061320890829087614718565b61321290856156a0565b93505080806132209061570e565b9150506131ab565b50509392505050565b60006001600160f81b03198216156132525761324d84846147db565b61325c565b61325c8484614881565b6001600160a01b038082166000908152600660209081526040808320938916835292905220600181015491925090613498576000806000846001600160a01b0316630902f1ac6040518163ffffffff1660e01b815260040160606040518083038186803b1580156132cc57600080fd5b505afa1580156132e0573d6000803e3d6000fd5b505050506040513d601f19601f82011682018060405250810190613304919061530c565b63ffffffff16925092509250600061331c8989614906565b509050806001600160a01b0316896001600160a01b031614156133e657836001600160701b0316836001600160701b0316600160701b61335c91906156d8565b61336691906156b8565b8560020181905550856001600160a01b0316635909c0d56040518163ffffffff1660e01b815260040160206040518083038186803b1580156133a757600080fd5b505afa1580156133bb573d6000803e3d6000fd5b505050506040513d601f19601f820116820180604052508101906133df919061538a565b855561348f565b826001600160701b0316846001600160701b0316600160701b61340991906156d8565b61341391906156b8565b8560020181905550856001600160a01b0316635a3d54936040518163ffffffff1660e01b815260040160206040518083038186803b15801561345457600080fd5b505afa158015613468573d6000803e3d6000fd5b505050506040513d601f19601f8201168201806040525081019061348c919061538a565b85555b50600184015550505b5050505050565b600160701b60005b600184516134b591906156f7565b811015610cf65760008482815181106134de57634e487b7160e01b600052603260045260246000fd5b602002602001015190506000858360016134f891906156a0565b8151811061351657634e487b7160e01b600052603260045260246000fd5b60200260200101519050600085846020811061354257634e487b7160e01b600052603260045260246000fd5b1a60f81b6001600160f81b031916156135645761355f83836147db565b61356e565b61356e8383614881565b6001600160a01b03808216600081815260066020908152604080832094891683529390528281208351630240bc6b60e21b81529351949550939092630902f1ac916004808301926060929190829003018186803b1580156135ce57600080fd5b505afa1580156135e2573d6000803e3d6000fd5b505050506040513d601f19601f82011682018060405250810190613606919061530c565b63ffffffff1692505050600082600101548261362291906156f7565b905060095481111561378557600061363a8787614906565b5090506000816001600160a01b0316886001600160a01b0316146136ce57856001600160a01b0316635a3d54936040518163ffffffff1660e01b815260040160206040518083038186803b15801561369157600080fd5b505afa1580156136a5573d6000803e3d6000fd5b505050506040513d601f19601f820116820180604052508101906136c9919061538a565b61373f565b856001600160a01b0316635909c0d56040518163ffffffff1660e01b815260040160206040518083038186803b15801561370757600080fd5b505afa15801561371b573d6000803e3d6000fd5b505050506040513d601f19601f8201168201806040525081019061373f919061538a565b905060008386600001548361375491906156f7565b61375e91906156b8565b905061376a8b826149d5565b60028701919091559085556001850184905598506137969050565b6137938884600201546149d5565b97505b50505050505080806137a79061570e565b9150506134a7565b606660009081526020527f422cccb7cea5c0e46f340bb7b21b81debac329f72e31669c20ff0f3a05cc2b5b546001600160a01b031690565b6000818311156137f8575080610cf8565b5081610cf8565b60008061380a6137af565b6001600160a01b03858116600090815260028801602090815260408083205460038b0190925291829020549151631cd2bf4d60e31b8152939092169263e695fa689261385d929091899190600401615607565b6040805180830381600087803b15801561387657600080fd5b505af115801561388a573d6000803e3d6000fd5b505050506040513d601f19601f820116820180604052508101906138ae91906153c6565b909250905060006138bf84846156f7565b6001600160a01b0386166000908152600288016020526040902081905590508015613906576001600160a01b03851660009081526003870160205260409020829055613a41565b6001600160a01b038516600090815260038701602052604081208190556001870154815b808211156139fa57600089600101828154811061395757634e487b7160e01b600052603260045260246000fd5b6000918252602090912001546001600160a01b039081169150891681141561398257600193506139e7565b83156139e757808a60010160018461399a91906156f7565b815481106139b857634e487b7160e01b600052603260045260246000fd5b9060005260206000200160006101000a8154816001600160a01b0302191690836001600160a01b031602179055505b50806139f28161570e565b91505061392a565b5087600101805480613a1c57634e487b7160e01b600052603160045260246000fd5b600082815260209020810160001990810180546001600160a01b031916905501905550505b505050505050565b6001600160a01b0384166000908152600586016020526040902054613a6f9083906156f7565b6001600160a01b0385166000908152600587016020526040902055613498858483613d24565b6001600160a01b0382166000908152600384016020526040902054613b97576001838101805491820181556000908152602090200180546001600160a01b0319166001600160a01b038416179055613aeb6137af565b604051628d90ff60e71b81526001600160a01b03848116600483015291909116906346c87f8090602401602060405180830381600087803b158015613b2f57600080fd5b505af1158015613b43573d6000803e3d6000fd5b505050506040513d601f19601f82011682018060405250810190613b67919061538a565b6001600160a01b038316600090815260038501602090815260408083209390935560028601905220819055613c90565b600080613ba26137af565b6001600160a01b03858116600090815260028801602090815260408083205460038b0190925291829020549151631cd2bf4d60e31b8152939092169263e695fa6892613bf5929091899190600401615607565b6040805180830381600087803b158015613c0e57600080fd5b505af1158015613c22573d6000803e3d6000fd5b505050506040513d601f19601f82011682018060405250810190613c4691906153c6565b6001600160a01b038616600090815260038801602052604090208190559092509050613c7283836156a0565b6001600160a01b038516600090815260028701602052604090205550505b613161836146cc565b8154600090815b81811015613d1c576000858281548110613cca57634e487b7160e01b600052603260045260246000fd5b60009182526020808320909101546001600160a01b031680835290879052604090912054909150613cfc908290610bcd565b613d0690856156a0565b9350508080613d149061570e565b915050613ca0565b505092915050565b6001600160a01b038216600090815260068401602052604090205460ff16613d9657600483018054600180820183556000928352602080842090920180546001600160a01b0319166001600160a01b0387169081179091558352600686019091526040909120805460ff191690911790555b6001600160a01b038216600090815260058401602052604081208054839290613dc09084906156a0565b9091555050505050565b6103e8613dd782846156d8565b613de3836103e86156f7565b8560010154613df291906156d8565b613dfc91906156a0565b613e0691906156b8565b60018401555050429055565b600181015460005b80821115613e8b576000836001018281548110613e4757634e487b7160e01b600052603260045260246000fd5b60009182526020808320909101546001600160a01b031682526002860181526040808320839055600387019091528120555080613e838161570e565b915050613e1a565b5050600481015460005b80821115613f49576000836004018281548110613ec257634e487b7160e01b600052603260045260246000fd5b60009182526020808320909101546001600160a01b0316808352600587018252604080842054601090935283208054919450919290613f029084906156f7565b90915550506001600160a01b031660009081526005840160209081526040808320839055600686019091529020805460ff1916905580613f418161570e565b915050613e95565b50613f58600183016000614f1b565b610bc9600483016000614f1b565b606b60009081526020527f2dc7a963308417ad45132da282495eb244f38a7db03940a4d808be607669c622546001600160a01b031690565b600080613fa9613f66565b6001600160a01b031663b0411f466040518163ffffffff1660e01b8152600401604080518083038186803b158015613fe057600080fd5b505afa158015613ff4573d6000803e3d6000fd5b505050506040513d601f19601f82011682018060405250810190614018919061516f565b509050601754601a5461402b91906156d8565b6001600160a01b0390911660009081526015602052604090205411905090565b60408051600080825260208201928390529051909161406d9160139190614eb6565b50604080516000815260208101918290525161408b91601491614eb6565b5060005b8084511115610cf65760008482815181106140ba57634e487b7160e01b600052603260045260246000fd5b602002602001015190506000600e6000836001600160a01b03166001600160a01b0316815260200190815260200160002090506140f681614a08565b1561447e576014805460018101825560009182527fce6d7b5282bd9a3661ae061feed1dbda4e52ab073b1f9285be6e155d9c38d4ec0180546001600160a01b0319166001600160a01b0385161790556004820154905b8082111561426857600083600401828154811061417957634e487b7160e01b600052603260045260246000fd5b60009182526020808320909101546001600160a01b031680835260129091526040909120600281015491925090431461421d576001600160a01b03821660008181526005870160205260408120546001808501919091558184554360028501556013805491820181559091527f66de8ffda797e3de9c05e8fc57b3bf0ec28a930d40b0d285d93c06501cf6a0900180546001600160a01b0319169091179055614253565b6001600160a01b03821660009081526005860160205260408120546001830180549192909161424d9084906156a0565b90915550505b505080806142609061570e565b91505061414c565b5050600181015460005b8082111561447b57600083600101828154811061429f57634e487b7160e01b600052603260045260246000fd5b60009182526020808320909101546001600160a01b0316808352601290915260408220909250906142ce6137af565b6001600160a01b03848116600090815260028901602090815260408083205460038c0190925291829020549151631cd2bf4d60e31b8152939092169263e695fa6892614321929091889190600401615607565b6040805180830381600087803b15801561433a57600080fd5b505af115801561434e573d6000803e3d6000fd5b505050506040513d601f19601f8201168201806040525081019061437291906153c6565b50905061437d6137af565b604051632a6a897b60e01b81526001600160a01b038581166004830152602482018490529190911690632a6a897b90604401600060405180830381600087803b1580156143c957600080fd5b505af11580156143dd573d6000803e3d6000fd5b505050504382600201541461444b57600060018381018290558284554360028501556013805491820181559091527f66de8ffda797e3de9c05e8fc57b3bf0ec28a930d40b0d285d93c06501cf6a0900180546001600160a01b0319166001600160a01b038516179055614465565b8082600001600082825461445f91906156a0565b90915550505b50505080806144739061570e565b915050614272565b50505b6001600160a01b038216600090815260166020526040902085156144b2576144a581612c03565b6144af90866156a0565b94505b50505080806144c09061570e565b91505061408f565b601354600090815b80821115614599576000601382815481106144fb57634e487b7160e01b600052603260045260246000fd5b60009182526020808320909101546001600160a01b03168083526012909152604090912080546001820154929350909111156145845780546001820154600091614544916156f7565b90506145508382614a45565b61455a90876156a0565b6001600160a01b038416600090815260126020526040812081815560018101829055600201559550505b505080806145919061570e565b9150506144d0565b505090565b601354600090815b80821115614599576000601382815481106145d157634e487b7160e01b600052603260045260246000fd5b60009182526020808320909101546001600160a01b031680835260129091526040909120600181015481549293509091111561465757614624828260010154836000015461461f91906156f7565b614b7e565b61462e90866156a0565b6001600160a01b0383166000908152601260205260408120818155600181018290556002015594505b505080806146649061570e565b9150506145a6565b606560009081526020527f4a7203f705e51df4a56139a9b86b4a0970bed7ab7a3446eaffe2289989c1645c546001600160a01b031690565b6000610cf88260040183600501614ca6565b6000610cf8826001018360020184600301614d29565b6000806146d8836146b6565b905060006146e5846146a4565b9050600c54826146f591906156d8565b6064600c5461470491906156f7565b61470e90836156d8565b1015949350505050565b6000806147236137af565b604051630a0c4ed960e11b81526001600160a01b03878116600483015291909116906314189db29060240160206040518083038186803b15801561476657600080fd5b505afa15801561477a573d6000803e3d6000fd5b505050506040513d601f19601f8201168201806040525081019061479e919061538a565b6001600160a01b038616600090815260208590526040812054919250906147c583876156d8565b6147cf91906156b8565b9050612e308682610bcd565b60008060006147ea8585614906565b6040516001600160601b0319606084811b8216602084015283901b16603482015291935091507f000000000000000000000000000000000000000000000000000000000000000090604801604051602081830303815290604052805190602001206003546040516020016148609392919061545a565b60408051601f19818403018152919052805160209091012095945050505050565b60008060006148908585614906565b6040516001600160601b0319606084811b8216602084015283901b16603482015291935091507f000000000000000000000000000000000000000000000000000000000000000090604801604051602081830303815290604052805190602001206002546040516020016148609392919061545a565b600080826001600160a01b0316846001600160a01b031614156149605760405162461bcd60e51b81526020600482015260126024820152714964656e746963616c20616464726573732160701b6044820152606401610d47565b826001600160a01b0316846001600160a01b031610614980578284614983565b83835b90925090506001600160a01b0382166149ce5760405162461bcd60e51b815260206004820152600d60248201526c5a65726f20616464726573732160981b6044820152606401610d47565b9250929050565b6000600160601b6149e8610100846156b8565b6149f4610100866156b8565b6149fe91906156d8565b611b4991906156b8565b600080614a14836146b6565b90506000614a21846146a4565b905081600d54614a3191906156d8565b614a3c8260646156d8565b10949350505050565b60007f00000000000000000000000000000000000000000000000000000000000000006001600160a01b0316836001600160a01b03161415614a88575080610cf8565b6001600160a01b038316600090815260056020526040812090614aa9614dad565b6001600160a01b031663351ae6108560008560030154866002016040518563ffffffff1660e01b8152600401614ae29493929190615626565b600060405180830381600087803b158015614afc57600080fd5b505af1158015614b10573d6000803e3d6000fd5b505050506040513d6000823e601f3d908101601f19168201604052614b389190810190615218565b905060008160018351614b4b91906156f7565b81518110614b6957634e487b7160e01b600052603260045260246000fd5b60200260200101519050809350505050610cf8565b60007f00000000000000000000000000000000000000000000000000000000000000006001600160a01b0316836001600160a01b03161415614bc1575080610cf8565b6001600160a01b038316600090815260056020526040812090614be2614dad565b6001600160a01b03166353d7ff9f856000198560030154866004016040518563ffffffff1660e01b8152600401614c1c9493929190615626565b600060405180830381600087803b158015614c3657600080fd5b505af1158015614c4a573d6000803e3d6000fd5b505050506040513d6000823e601f3d908101601f19168201604052614c729190810190615218565b905080600081518110614c9557634e487b7160e01b600052603260045260246000fd5b602002602001015192505050610cf8565b8154600090815b81811015613d1c576000858281548110614cd757634e487b7160e01b600052603260045260246000fd5b60009182526020808320909101546001600160a01b031680835290879052604090912054909150614d09908290614de5565b614d1390856156a0565b9350508080614d219061570e565b915050614cad565b8254600090815b81811015613228576000868281548110614d5a57634e487b7160e01b600052603260045260246000fd5b60009182526020808320909101546001600160a01b031680835290889052604090912054909150614d8d90829087614df3565b614d9790856156a0565b9350508080614da59061570e565b915050614d30565b606760009081526020527f682158d08466d11c566d5712d4396197fdd67e65be71d83c97ef719ec468867b546001600160a01b031690565b6000611b4983836000611963565b600080614dfe6137af565b604051630a0c4ed960e11b81526001600160a01b03878116600483015291909116906314189db29060240160206040518083038186803b158015614e4157600080fd5b505afa158015614e55573d6000803e3d6000fd5b505050506040513d601f19601f82011682018060405250810190614e79919061538a565b6001600160a01b03861660009081526020859052604081205491925090614ea083876156d8565b614eaa91906156b8565b9050612e308682614de5565b828054828255906000526020600020908101928215614f0b579160200282015b82811115614f0b57825182546001600160a01b0319166001600160a01b03909116178255602090920191600190910190614ed6565b50614f17929150614f3c565b5090565b5080546000825590600052602060002090810190614f399190614f3c565b50565b5b80821115614f175760008155600101614f3d565b600082601f830112614f61578081fd5b81356020614f76614f718361567c565b61564b565b80838252828201915082860187848660051b8901011115614f95578586fd5b855b85811015614fbc578135614faa81615755565b84529284019290840190600101614f97565b5090979650505050505050565b80516001600160701b0381168114610eaf57600080fd5b600060208284031215614ff1578081fd5b8135611b4981615755565b60006020828403121561500d578081fd5b8151611b4981615755565b6000806040838503121561502a578081fd5b823561503581615755565b9150602083013561504581615755565b809150509250929050565b600080600080600060a08688031215615067578081fd5b853561507281615755565b9450602086013561508281615755565b9350604086013561509281615755565b94979396509394606081013594506080013592915050565b6000806000606084860312156150be578283fd5b83356150c981615755565b925060208401356150d981615755565b929592945050506040919091013590565b600080600080600060a08688031215615101578081fd5b853561510c81615755565b9450602086013561511c81615755565b935060408601359250606086013561513381615755565b949793965091946080013592915050565b60008060408385031215615156578182fd5b823561516181615755565b946020939093013593505050565b60008060408385031215615181578182fd5b825161518c81615755565b6020939093015192949293505050565b6000806000606084860312156151b0578081fd5b83356151bb81615755565b92506020840135915060408401356151d28161576a565b809150509250925092565b6000602082840312156151ee578081fd5b813567ffffffffffffffff811115615204578182fd5b61521084828501614f51565b949350505050565b6000602080838503121561522a578182fd5b825167ffffffffffffffff811115615240578283fd5b8301601f81018513615250578283fd5b805161525e614f718261567c565b80828252848201915084840188868560051b870101111561527d578687fd5b8694505b8385101561529f578051835260019490940193918501918501615281565b50979650505050505050565b6000602082840312156152bc578081fd5b8151611b498161576a565b600080604083850312156152d9578182fd5b82359150602083013567ffffffffffffffff8111156152f6578182fd5b61530285828601614f51565b9150509250929050565b600080600060608486031215615320578081fd5b61532984614fc9565b925061533760208501614fc9565b9150604084015163ffffffff811681146151d2578182fd5b60008060408385031215615361578182fd5b823561ffff81168114615161578283fd5b600060208284031215615383578081fd5b5035919050565b60006020828403121561539b578081fd5b5051919050565b600080604083850312156153b4578182fd5b82359150602083013561504581615755565b600080604083850312156153d8578182fd5b505080516020909101519092909150565b6000806000606084860312156153fd578081fd5b505081359360208301359350604090920135919050565b6000815480845260208085019450838352808320835b8381101561544f5781546001600160a01b03168752958201956001918201910161542a565b509495945050505050565b6001600160f81b0319815260609390931b6001600160601b03191660018401526015830191909152603582015260550190565b604080825283519082018190526000906020906060840190828701845b828110156154d15781516001600160a01b03168452602084019350908401906001016154aa565b50505083810382850152845180825285830191830190845b81811015614fbc578351835292840192918401916001016154e9565b60208082526039908201527f43616c6c6572206973206e6f7420746865206f776e65722c206578656375746f60408201527f72206f7220617574686f72697a656420616374697661746f7200000000000000606082015260800190565b6020808252601d908201527f43616c6c696e6720636f6e74722e206e6f7420617574686f72697a6564000000604082015260600190565b6020808252601e908201527f526f6c65733a2063616c6c6572206973206e6f7420746865206f776e65720000604082015260600190565b60208082526018908201527f4578636565647320676c6f62616c20746f6b656e206361700000000000000000604082015260600190565b9283526001600160a01b03919091166020830152604082015260600190565b600085825284602083015283604083015260806060830152612e306080830184615414565b604051601f8201601f1916810167ffffffffffffffff811182821017156156745761567461573f565b604052919050565b600067ffffffffffffffff8211156156965761569661573f565b5060051b60200190565b600082198211156156b3576156b3615729565b500190565b6000826156d357634e487b7160e01b81526012600452602481fd5b500490565b60008160001904831182151516156156f2576156f2615729565b500290565b60008282101561570957615709615729565b500390565b600060001982141561572257615722615729565b5060010190565b634e487b7160e01b600052601160045260246000fd5b634e487b7160e01b600052604160045260246000fd5b6001600160a01b0381168114614f3957600080fd5b8015158114614f3957600080fdfea2646970667358221220b05282f3b9337c8917df91239ee6657165d6f96ba73bf38b97bb38288aad741164736f6c63430008030033",
  "devdoc": {
    "kind": "dev",
    "methods": {
      "canBeLiquidated(address)": {
        "details": "can this trader be liquidated?"
      },
      "getBorrowAmounts(address)": {
        "details": "view function to display account borrowing state"
      },
      "getHoldingAmounts(address)": {
        "details": "view function to display account held assets state"
      },
      "registerBorrow(address,address,uint256)": {
        "details": "gets called by router to affirm borrowing event"
      },
      "registerDeposit(address,address,uint256)": {
        "details": "gets called by router to affirm a deposit to an account"
      },
      "registerLiquidation(address)": {
        "details": "can get called by router to register the dissolution of an account"
      },
      "registerLiquidatorLiquidation(address)": {
        "details": "can get called by external liquidator"
      },
      "registerOvercollateralizedBorrow(address,address,uint256,address,uint256)": {
        "details": "overcollateralized borrowing on a cross margin account, called by router"
      },
      "registerTradeAndBorrow(address,address,address,uint256,uint256)": {
        "details": "gets called by router to register a trade and borrow and extinguish as necessary"
      },
      "registerWithdrawal(address,address,uint256)": {
        "details": "gets called by router to affirm withdrawal of tokens from account"
      },
      "setCoolingOffPeriod(uint256)": {
        "details": "setter for cooling off period for withdrawing funds after deposit"
      },
      "setLeveragePercent(uint256)": {
        "details": "admin function to set leverage"
      },
      "setLiquidationThresholdPercent(uint256)": {
        "details": "admin function to set liquidation threshold"
      },
      "setTokenCap(address,uint256)": {
        "details": "admin function to set the token cap"
      },
      "viewBalanceInToken(address,address)": {
        "details": "currently holding in this token"
      },
      "viewHoldingsInPeg(address)": {
        "details": "total of assets of account, expressed in reference currency"
      },
      "viewLoanInPeg(address)": {
        "details": "view function to get loan amount in peg"
      }
    },
    "version": 1
  },
  "userdoc": {
    "kind": "user",
    "methods": {
      "addVolatilitySetting(uint256,uint256,uint256)": {
        "notice": "Add a new volatility setting"
      },
      "chooseVolatilitySetting(uint256)": {
        "notice": "Choose a volatitlity setting"
      },
      "disburseLiqStakeAttacks(address[])": {
        "notice": "Disburse liquidity stake attacks"
      },
      "liquidate(address[])": {
        "notice": "called by maintenance stakers to liquidate accounts below liquidation threshold"
      },
      "priceUpdateWindow()": {
        "notice": "update window in blocks"
      },
      "setFailureThreshold(uint256)": {
        "notice": "Set failure threshold"
      },
      "setLiqStakeAttackWindow(uint256)": {
        "notice": "Set liquidity stake attack window"
      },
      "setLiquidationPath(bytes32,address[])": {
        "notice": "add path from token to current liquidation peg"
      },
      "setMaintainerCutPercent(uint256)": {
        "notice": "Set maintainer's percent cut"
      },
      "setPriceOracle(address,address)": {
        "notice": "Set price oracle"
      },
      "setPriceUpdateWindow(uint16,uint256)": {
        "notice": "Set window for price updates"
      },
      "setUpdateRate(uint256)": {
        "notice": "Set rate for updates"
      },
      "viewCurrentPriceInPeg(address,uint256)": {
        "notice": "Get view of current price of token in peg"
      }
    },
    "version": 1
  },
  "storageLayout": {
    "storage": [
      {
        "astId": 10085,
        "contract": "contracts/CrossMarginTrading.sol:CrossMarginTrading",
        "label": "mainCharacterCache",
        "offset": 0,
        "slot": "0",
        "type": "t_mapping(t_uint256,t_address)"
      },
      {
        "astId": 10091,
        "contract": "contracts/CrossMarginTrading.sol:CrossMarginTrading",
        "label": "roleCache",
        "offset": 0,
        "slot": "1",
        "type": "t_mapping(t_address,t_mapping(t_uint256,t_bool))"
      },
      {
        "astId": 24179,
        "contract": "contracts/CrossMarginTrading.sol:CrossMarginTrading",
        "label": "amm1InitHash",
        "offset": 0,
        "slot": "2",
        "type": "t_bytes32"
      },
      {
        "astId": 24181,
        "contract": "contracts/CrossMarginTrading.sol:CrossMarginTrading",
        "label": "amm2InitHash",
        "offset": 0,
        "slot": "3",
        "type": "t_bytes32"
      },
      {
        "astId": 24183,
        "contract": "contracts/CrossMarginTrading.sol:CrossMarginTrading",
        "label": "amm3InitHash",
        "offset": 0,
        "slot": "4",
        "type": "t_bytes32"
      },
      {
        "astId": 9041,
        "contract": "contracts/CrossMarginTrading.sol:CrossMarginTrading",
        "label": "tokenPrices",
        "offset": 0,
        "slot": "5",
        "type": "t_mapping(t_address,t_struct(TokenPrice)8995_storage)"
      },
      {
        "astId": 9048,
        "contract": "contracts/CrossMarginTrading.sol:CrossMarginTrading",
        "label": "pairPrices",
        "offset": 0,
        "slot": "6",
        "type": "t_mapping(t_address,t_mapping(t_address,t_struct(PairPrice)9009_storage))"
      },
      {
        "astId": 9053,
        "contract": "contracts/CrossMarginTrading.sol:CrossMarginTrading",
        "label": "oracles",
        "offset": 0,
        "slot": "7",
        "type": "t_mapping(t_address,t_contract(IOracle)24095)"
      },
      {
        "astId": 9057,
        "contract": "contracts/CrossMarginTrading.sol:CrossMarginTrading",
        "label": "priceUpdateWindow",
        "offset": 0,
        "slot": "8",
        "type": "t_uint256"
      },
      {
        "astId": 9060,
        "contract": "contracts/CrossMarginTrading.sol:CrossMarginTrading",
        "label": "voluntaryUpdateWindow",
        "offset": 0,
        "slot": "9",
        "type": "t_uint256"
      },
      {
        "astId": 9063,
        "contract": "contracts/CrossMarginTrading.sol:CrossMarginTrading",
        "label": "UPDATE_RATE_PERMIL",
        "offset": 0,
        "slot": "10",
        "type": "t_uint256"
      },
      {
        "astId": 9067,
        "contract": "contracts/CrossMarginTrading.sol:CrossMarginTrading",
        "label": "volatilitySettings",
        "offset": 0,
        "slot": "11",
        "type": "t_array(t_struct(VolatilitySetting)9002_storage)dyn_storage"
      },
      {
        "astId": 2344,
        "contract": "contracts/CrossMarginTrading.sol:CrossMarginTrading",
        "label": "leveragePercent",
        "offset": 0,
        "slot": "12",
        "type": "t_uint256"
      },
      {
        "astId": 2348,
        "contract": "contracts/CrossMarginTrading.sol:CrossMarginTrading",
        "label": "liquidationThresholdPercent",
        "offset": 0,
        "slot": "13",
        "type": "t_uint256"
      },
      {
        "astId": 2354,
        "contract": "contracts/CrossMarginTrading.sol:CrossMarginTrading",
        "label": "marginAccounts",
        "offset": 0,
        "slot": "14",
        "type": "t_mapping(t_address,t_struct(CrossMarginAccount)2336_storage)"
      },
      {
        "astId": 2359,
        "contract": "contracts/CrossMarginTrading.sol:CrossMarginTrading",
        "label": "tokenCaps",
        "offset": 0,
        "slot": "15",
        "type": "t_mapping(t_address,t_uint256)"
      },
      {
        "astId": 2364,
        "contract": "contracts/CrossMarginTrading.sol:CrossMarginTrading",
        "label": "totalLong",
        "offset": 0,
        "slot": "16",
        "type": "t_mapping(t_address,t_uint256)"
      },
      {
        "astId": 2367,
        "contract": "contracts/CrossMarginTrading.sol:CrossMarginTrading",
        "label": "coolingOffPeriod",
        "offset": 0,
        "slot": "17",
        "type": "t_uint256"
      },
      {
        "astId": 3238,
        "contract": "contracts/CrossMarginTrading.sol:CrossMarginTrading",
        "label": "liquidationAmounts",
        "offset": 0,
        "slot": "18",
        "type": "t_mapping(t_address,t_struct(Liquidation)3224_storage)"
      },
      {
        "astId": 3241,
        "contract": "contracts/CrossMarginTrading.sol:CrossMarginTrading",
        "label": "liquidationTokens",
        "offset": 0,
        "slot": "19",
        "type": "t_array(t_address)dyn_storage"
      },
      {
        "astId": 3244,
        "contract": "contracts/CrossMarginTrading.sol:CrossMarginTrading",
        "label": "tradersToLiquidate",
        "offset": 0,
        "slot": "20",
        "type": "t_array(t_address)dyn_storage"
      },
      {
        "astId": 3248,
        "contract": "contracts/CrossMarginTrading.sol:CrossMarginTrading",
        "label": "maintenanceFailures",
        "offset": 0,
        "slot": "21",
        "type": "t_mapping(t_address,t_uint256)"
      },
      {
        "astId": 3253,
        "contract": "contracts/CrossMarginTrading.sol:CrossMarginTrading",
        "label": "stakeAttackRecords",
        "offset": 0,
        "slot": "22",
        "type": "t_mapping(t_address,t_struct(AccountLiqRecord)3233_storage)"
      },
      {
        "astId": 3256,
        "contract": "contracts/CrossMarginTrading.sol:CrossMarginTrading",
        "label": "avgLiquidationPerCall",
        "offset": 0,
        "slot": "23",
        "type": "t_uint256"
      },
      {
        "astId": 3259,
        "contract": "contracts/CrossMarginTrading.sol:CrossMarginTrading",
        "label": "liqStakeAttackWindow",
        "offset": 0,
        "slot": "24",
        "type": "t_uint256"
      },
      {
        "astId": 3262,
        "contract": "contracts/CrossMarginTrading.sol:CrossMarginTrading",
        "label": "MAINTAINER_CUT_PERCENT",
        "offset": 0,
        "slot": "25",
        "type": "t_uint256"
      },
      {
        "astId": 3265,
        "contract": "contracts/CrossMarginTrading.sol:CrossMarginTrading",
        "label": "failureThreshold",
        "offset": 0,
        "slot": "26",
        "type": "t_uint256"
      }
    ],
    "types": {
      "t_address": {
        "encoding": "inplace",
        "label": "address",
        "numberOfBytes": "20"
      },
      "t_array(t_address)dyn_storage": {
        "base": "t_address",
        "encoding": "dynamic_array",
        "label": "address[]",
        "numberOfBytes": "32"
      },
      "t_array(t_struct(VolatilitySetting)9002_storage)dyn_storage": {
        "base": "t_struct(VolatilitySetting)9002_storage",
        "encoding": "dynamic_array",
        "label": "struct VolatilitySetting[]",
        "numberOfBytes": "32"
      },
      "t_bool": {
        "encoding": "inplace",
        "label": "bool",
        "numberOfBytes": "1"
      },
      "t_bytes32": {
        "encoding": "inplace",
        "label": "bytes32",
        "numberOfBytes": "32"
      },
      "t_contract(IOracle)24095": {
        "encoding": "inplace",
        "label": "contract IOracle",
        "numberOfBytes": "20"
      },
      "t_mapping(t_address,t_bool)": {
        "encoding": "mapping",
        "key": "t_address",
        "label": "mapping(address => bool)",
        "numberOfBytes": "32",
        "value": "t_bool"
      },
      "t_mapping(t_address,t_contract(IOracle)24095)": {
        "encoding": "mapping",
        "key": "t_address",
        "label": "mapping(address => contract IOracle)",
        "numberOfBytes": "32",
        "value": "t_contract(IOracle)24095"
      },
      "t_mapping(t_address,t_mapping(t_address,t_struct(PairPrice)9009_storage))": {
        "encoding": "mapping",
        "key": "t_address",
        "label": "mapping(address => mapping(address => struct PairPrice))",
        "numberOfBytes": "32",
        "value": "t_mapping(t_address,t_struct(PairPrice)9009_storage)"
      },
      "t_mapping(t_address,t_mapping(t_uint256,t_bool))": {
        "encoding": "mapping",
        "key": "t_address",
        "label": "mapping(address => mapping(uint256 => bool))",
        "numberOfBytes": "32",
        "value": "t_mapping(t_uint256,t_bool)"
      },
      "t_mapping(t_address,t_struct(AccountLiqRecord)3233_storage)": {
        "encoding": "mapping",
        "key": "t_address",
        "label": "mapping(address => struct CrossMarginLiquidation.AccountLiqRecord)",
        "numberOfBytes": "32",
        "value": "t_struct(AccountLiqRecord)3233_storage"
      },
      "t_mapping(t_address,t_struct(CrossMarginAccount)2336_storage)": {
        "encoding": "mapping",
        "key": "t_address",
        "label": "mapping(address => struct CrossMarginAccount)",
        "numberOfBytes": "32",
        "value": "t_struct(CrossMarginAccount)2336_storage"
      },
      "t_mapping(t_address,t_struct(Liquidation)3224_storage)": {
        "encoding": "mapping",
        "key": "t_address",
        "label": "mapping(address => struct CrossMarginLiquidation.Liquidation)",
        "numberOfBytes": "32",
        "value": "t_struct(Liquidation)3224_storage"
      },
      "t_mapping(t_address,t_struct(PairPrice)9009_storage)": {
        "encoding": "mapping",
        "key": "t_address",
        "label": "mapping(address => struct PairPrice)",
        "numberOfBytes": "32",
        "value": "t_struct(PairPrice)9009_storage"
      },
      "t_mapping(t_address,t_struct(TokenPrice)8995_storage)": {
        "encoding": "mapping",
        "key": "t_address",
        "label": "mapping(address => struct TokenPrice)",
        "numberOfBytes": "32",
        "value": "t_struct(TokenPrice)8995_storage"
      },
      "t_mapping(t_address,t_uint256)": {
        "encoding": "mapping",
        "key": "t_address",
        "label": "mapping(address => uint256)",
        "numberOfBytes": "32",
        "value": "t_uint256"
      },
      "t_mapping(t_uint256,t_address)": {
        "encoding": "mapping",
        "key": "t_uint256",
        "label": "mapping(uint256 => address)",
        "numberOfBytes": "32",
        "value": "t_address"
      },
      "t_mapping(t_uint256,t_bool)": {
        "encoding": "mapping",
        "key": "t_uint256",
        "label": "mapping(uint256 => bool)",
        "numberOfBytes": "32",
        "value": "t_bool"
      },
      "t_struct(AccountLiqRecord)3233_storage": {
        "encoding": "inplace",
        "label": "struct CrossMarginLiquidation.AccountLiqRecord",
        "members": [
          {
            "astId": 3226,
            "contract": "contracts/CrossMarginTrading.sol:CrossMarginTrading",
            "label": "blockNum",
            "offset": 0,
            "slot": "0",
            "type": "t_uint256"
          },
          {
            "astId": 3228,
            "contract": "contracts/CrossMarginTrading.sol:CrossMarginTrading",
            "label": "loser",
            "offset": 0,
            "slot": "1",
            "type": "t_address"
          },
          {
            "astId": 3230,
            "contract": "contracts/CrossMarginTrading.sol:CrossMarginTrading",
            "label": "amount",
            "offset": 0,
            "slot": "2",
            "type": "t_uint256"
          },
          {
            "astId": 3232,
            "contract": "contracts/CrossMarginTrading.sol:CrossMarginTrading",
            "label": "stakeAttacker",
            "offset": 0,
            "slot": "3",
            "type": "t_address"
          }
        ],
        "numberOfBytes": "128"
      },
      "t_struct(CrossMarginAccount)2336_storage": {
        "encoding": "inplace",
        "label": "struct CrossMarginAccount",
        "members": [
          {
            "astId": 2313,
            "contract": "contracts/CrossMarginTrading.sol:CrossMarginTrading",
            "label": "lastDepositBlock",
            "offset": 0,
            "slot": "0",
            "type": "t_uint256"
          },
          {
            "astId": 2316,
            "contract": "contracts/CrossMarginTrading.sol:CrossMarginTrading",
            "label": "borrowTokens",
            "offset": 0,
            "slot": "1",
            "type": "t_array(t_address)dyn_storage"
          },
          {
            "astId": 2320,
            "contract": "contracts/CrossMarginTrading.sol:CrossMarginTrading",
            "label": "borrowed",
            "offset": 0,
            "slot": "2",
            "type": "t_mapping(t_address,t_uint256)"
          },
          {
            "astId": 2324,
            "contract": "contracts/CrossMarginTrading.sol:CrossMarginTrading",
            "label": "borrowedYieldQuotientsFP",
            "offset": 0,
            "slot": "3",
            "type": "t_mapping(t_address,t_uint256)"
          },
          {
            "astId": 2327,
            "contract": "contracts/CrossMarginTrading.sol:CrossMarginTrading",
            "label": "holdingTokens",
            "offset": 0,
            "slot": "4",
            "type": "t_array(t_address)dyn_storage"
          },
          {
            "astId": 2331,
            "contract": "contracts/CrossMarginTrading.sol:CrossMarginTrading",
            "label": "holdings",
            "offset": 0,
            "slot": "5",
            "type": "t_mapping(t_address,t_uint256)"
          },
          {
            "astId": 2335,
            "contract": "contracts/CrossMarginTrading.sol:CrossMarginTrading",
            "label": "holdsToken",
            "offset": 0,
            "slot": "6",
            "type": "t_mapping(t_address,t_bool)"
          }
        ],
        "numberOfBytes": "224"
      },
      "t_struct(Liquidation)3224_storage": {
        "encoding": "inplace",
        "label": "struct CrossMarginLiquidation.Liquidation",
        "members": [
          {
            "astId": 3219,
            "contract": "contracts/CrossMarginTrading.sol:CrossMarginTrading",
            "label": "buy",
            "offset": 0,
            "slot": "0",
            "type": "t_uint256"
          },
          {
            "astId": 3221,
            "contract": "contracts/CrossMarginTrading.sol:CrossMarginTrading",
            "label": "sell",
            "offset": 0,
            "slot": "1",
            "type": "t_uint256"
          },
          {
            "astId": 3223,
            "contract": "contracts/CrossMarginTrading.sol:CrossMarginTrading",
            "label": "blockNum",
            "offset": 0,
            "slot": "2",
            "type": "t_uint256"
          }
        ],
        "numberOfBytes": "96"
      },
      "t_struct(PairPrice)9009_storage": {
        "encoding": "inplace",
        "label": "struct PairPrice",
        "members": [
          {
            "astId": 9004,
            "contract": "contracts/CrossMarginTrading.sol:CrossMarginTrading",
            "label": "cumulative",
            "offset": 0,
            "slot": "0",
            "type": "t_uint256"
          },
          {
            "astId": 9006,
            "contract": "contracts/CrossMarginTrading.sol:CrossMarginTrading",
            "label": "lastUpdated",
            "offset": 0,
            "slot": "1",
            "type": "t_uint256"
          },
          {
            "astId": 9008,
            "contract": "contracts/CrossMarginTrading.sol:CrossMarginTrading",
            "label": "priceFP",
            "offset": 0,
            "slot": "2",
            "type": "t_uint256"
          }
        ],
        "numberOfBytes": "96"
      },
      "t_struct(TokenPrice)8995_storage": {
        "encoding": "inplace",
        "label": "struct TokenPrice",
        "members": [
          {
            "astId": 8982,
            "contract": "contracts/CrossMarginTrading.sol:CrossMarginTrading",
            "label": "lastUpdated",
            "offset": 0,
            "slot": "0",
            "type": "t_uint256"
          },
          {
            "astId": 8984,
            "contract": "contracts/CrossMarginTrading.sol:CrossMarginTrading",
            "label": "priceFP",
            "offset": 0,
            "slot": "1",
            "type": "t_uint256"
          },
          {
            "astId": 8987,
            "contract": "contracts/CrossMarginTrading.sol:CrossMarginTrading",
            "label": "liquidationTokens",
            "offset": 0,
            "slot": "2",
            "type": "t_array(t_address)dyn_storage"
          },
          {
            "astId": 8989,
            "contract": "contracts/CrossMarginTrading.sol:CrossMarginTrading",
            "label": "amms",
            "offset": 0,
            "slot": "3",
            "type": "t_bytes32"
          },
          {
            "astId": 8992,
            "contract": "contracts/CrossMarginTrading.sol:CrossMarginTrading",
            "label": "inverseLiquidationTokens",
            "offset": 0,
            "slot": "4",
            "type": "t_array(t_address)dyn_storage"
          },
          {
            "astId": 8994,
            "contract": "contracts/CrossMarginTrading.sol:CrossMarginTrading",
            "label": "inverseAmms",
            "offset": 0,
            "slot": "5",
            "type": "t_bytes32"
          }
        ],
        "numberOfBytes": "192"
      },
      "t_struct(VolatilitySetting)9002_storage": {
        "encoding": "inplace",
        "label": "struct VolatilitySetting",
        "members": [
          {
            "astId": 8997,
            "contract": "contracts/CrossMarginTrading.sol:CrossMarginTrading",
            "label": "priceUpdateWindow",
            "offset": 0,
            "slot": "0",
            "type": "t_uint256"
          },
          {
            "astId": 8999,
            "contract": "contracts/CrossMarginTrading.sol:CrossMarginTrading",
            "label": "updateRatePermil",
            "offset": 0,
            "slot": "1",
            "type": "t_uint256"
          },
          {
            "astId": 9001,
            "contract": "contracts/CrossMarginTrading.sol:CrossMarginTrading",
            "label": "voluntaryUpdateWindow",
            "offset": 0,
            "slot": "2",
            "type": "t_uint256"
          }
        ],
        "numberOfBytes": "96"
      },
      "t_uint256": {
        "encoding": "inplace",
        "label": "uint256",
        "numberOfBytes": "32"
      }
    }
  }
}