{
  "address": "0xaD11eac49460BcE3BB5dcB341AdAD2c8711Cf487",
  "abi": [
    {
      "inputs": [
        {
          "internalType": "address",
          "name": "_roles",
          "type": "address"
        }
      ],
      "stateMutability": "nonpayable",
      "type": "constructor"
    },
    {
      "inputs": [
        {
          "internalType": "uint256",
          "name": "",
          "type": "uint256"
        }
      ],
      "name": "allCharacters",
      "outputs": [
        {
          "internalType": "uint256",
          "name": "",
          "type": "uint256"
        }
      ],
      "stateMutability": "view",
      "type": "function"
    },
    {
      "inputs": [],
      "name": "allManagedContracts",
      "outputs": [
        {
          "internalType": "address[]",
          "name": "",
          "type": "address[]"
        }
      ],
      "stateMutability": "view",
      "type": "function"
    },
    {
      "inputs": [
        {
          "internalType": "uint256",
          "name": "",
          "type": "uint256"
        }
      ],
      "name": "allRoles",
      "outputs": [
        {
          "internalType": "uint256",
          "name": "",
          "type": "uint256"
        }
      ],
      "stateMutability": "view",
      "type": "function"
    },
    {
      "inputs": [],
      "name": "currentExecutor",
      "outputs": [
        {
          "internalType": "address",
          "name": "",
          "type": "address"
        }
      ],
      "stateMutability": "view",
      "type": "function"
    },
    {
      "inputs": [
        {
          "internalType": "address",
          "name": "contr",
          "type": "address"
        }
      ],
      "name": "disableContract",
      "outputs": [],
      "stateMutability": "nonpayable",
      "type": "function"
    },
    {
      "inputs": [
        {
          "internalType": "address",
          "name": "executor",
          "type": "address"
        }
      ],
      "name": "executeAsOwner",
      "outputs": [],
      "stateMutability": "nonpayable",
      "type": "function"
    },
    {
      "inputs": [
        {
          "internalType": "uint256",
          "name": "role",
          "type": "uint256"
        },
        {
          "internalType": "address",
          "name": "actor",
          "type": "address"
        }
      ],
      "name": "giveRole",
      "outputs": [],
      "stateMutability": "nonpayable",
      "type": "function"
    },
    {
      "inputs": [
        {
          "internalType": "uint256",
          "name": "",
          "type": "uint256"
        }
      ],
      "name": "knownCharacters",
      "outputs": [
        {
          "internalType": "bool",
          "name": "",
          "type": "bool"
        }
      ],
      "stateMutability": "view",
      "type": "function"
    },
    {
      "inputs": [
        {
          "internalType": "uint256",
          "name": "",
          "type": "uint256"
        }
      ],
      "name": "knownRoles",
      "outputs": [
        {
          "internalType": "bool",
          "name": "",
          "type": "bool"
        }
      ],
      "stateMutability": "view",
      "type": "function"
    },
    {
      "inputs": [
        {
          "internalType": "uint256",
          "name": "",
          "type": "uint256"
        }
      ],
      "name": "mainCharacterCache",
      "outputs": [
        {
          "internalType": "address",
          "name": "",
          "type": "address"
        }
      ],
      "stateMutability": "view",
      "type": "function"
    },
    {
      "inputs": [
        {
          "internalType": "address",
          "name": "contr",
          "type": "address"
        },
        {
          "internalType": "uint256[]",
          "name": "charactersPlayed",
          "type": "uint256[]"
        },
        {
          "internalType": "uint256[]",
          "name": "rolesPlayed",
          "type": "uint256[]"
        }
      ],
      "name": "manageContract",
      "outputs": [],
      "stateMutability": "nonpayable",
      "type": "function"
    },
    {
      "inputs": [
        {
          "internalType": "uint256",
          "name": "",
          "type": "uint256"
        }
      ],
      "name": "managedContracts",
      "outputs": [
        {
          "internalType": "address",
          "name": "",
          "type": "address"
        }
      ],
      "stateMutability": "view",
      "type": "function"
    },
    {
      "inputs": [
        {
          "internalType": "uint256",
          "name": "role",
          "type": "uint256"
        },
        {
          "internalType": "address",
          "name": "actor",
          "type": "address"
        }
      ],
      "name": "removeRole",
      "outputs": [],
      "stateMutability": "nonpayable",
      "type": "function"
    },
    {
      "inputs": [
        {
          "internalType": "address",
          "name": "",
          "type": "address"
        },
        {
          "internalType": "uint256",
          "name": "",
          "type": "uint256"
        }
      ],
      "name": "roleCache",
      "outputs": [
        {
          "internalType": "bool",
          "name": "",
          "type": "bool"
        }
      ],
      "stateMutability": "view",
      "type": "function"
    },
    {
      "inputs": [],
      "name": "roles",
      "outputs": [
        {
          "internalType": "contract Roles",
          "name": "",
          "type": "address"
        }
      ],
      "stateMutability": "view",
      "type": "function"
    },
    {
      "inputs": [
        {
          "internalType": "uint256",
          "name": "role",
          "type": "uint256"
        },
        {
          "internalType": "address",
          "name": "actor",
          "type": "address"
        }
      ],
      "name": "setMainCharacter",
      "outputs": [],
      "stateMutability": "nonpayable",
      "type": "function"
    },
    {
      "inputs": [
        {
          "internalType": "address",
          "name": "contr",
          "type": "address"
        }
      ],
      "name": "updateCaches",
      "outputs": [],
      "stateMutability": "nonpayable",
      "type": "function"
    },
    {
      "inputs": [
        {
          "internalType": "uint256",
          "name": "character",
          "type": "uint256"
        }
      ],
      "name": "updateMainCharacterCache",
      "outputs": [],
      "stateMutability": "nonpayable",
      "type": "function"
    },
    {
      "inputs": [
        {
          "internalType": "uint256",
          "name": "role",
          "type": "uint256"
        },
        {
          "internalType": "address",
          "name": "contr",
          "type": "address"
        }
      ],
      "name": "updateRoleCache",
      "outputs": [],
      "stateMutability": "nonpayable",
      "type": "function"
    }
  ],
  "transactionHash": "0x4348d19fb47462eea723f2406deed3909ddafc1fe34382c770731b3a8b12dcae",
  "args": [
    "0xA7b937f2601353f8116872f3CbeBB56D8300A9A3"
  ],
  "solcInputHash": "177459222520c2cada5f3985c2d48197",
  "bytecode": "0x60a060405234801561001057600080fd5b506040516116e03803806116e083398101604081905261002f916100ab565b806001600160a01b0381166100955760405162461bcd60e51b815260206004820152602260248201527f506c656173652070726f766964652076616c696420726f6c6573206164647265604482015261737360f01b606482015260840160405180910390fd5b60601b6001600160601b031916608052506100d9565b6000602082840312156100bc578081fd5b81516001600160a01b03811681146100d2578182fd5b9392505050565b60805160601c6115b8610128600039600081816101d801528181610bd201528181610c6a01528181610d6101528181610e2701528181610ee001528181610f55015261109601526115b86000f3fe608060405234801561001057600080fd5b50600436106101215760003560e01c80635d4ef0b8116100ad578063a154ce8211610071578063a154ce82146102b2578063a1fdc458146102c5578063e9c3f77d146102d8578063f19990d714610301578063f1ce598e1461032457610121565b80635d4ef0b8146102385780636b60a09b1461024b578063713dade21461025e5780637a1a04df14610271578063840c53bd1461029f57610121565b80632be5c6c0116100f45780632be5c6c01461018d5780633238405b146101c0578063392f5f64146101d3578063447d52ba146102125780634d5377691461022557610121565b8063071060a6146101265780631023d3e01461013b57806317b7b61b1461015957806325398f831461017a575b600080fd5b6101396101343660046113b3565b610337565b005b6101436103e5565b60405161015091906113fa565b60405180910390f35b61016c6101673660046113b3565b610447565b604051908152602001610150565b6101396101883660046113cb565b610468565b6101b061019b3660046113b3565b60056020526000908152604090205460ff1681565b6040519015158152602001610150565b6101396101ce3660046113cb565b6104c8565b6101fa7f000000000000000000000000000000000000000000000000000000000000000081565b6040516001600160a01b039091168152602001610150565b6101396102203660046113cb565b610535565b6101396102333660046113cb565b6105ec565b610139610246366004611262565b61063f565b6002546101fa906001600160a01b031681565b61013961026c366004611223565b610785565b6101b061027f3660046112d5565b600160209081526000928352604080842090915290825290205460ff1681565b61016c6102ad3660046113b3565b61093b565b6101396102c0366004611223565b61094b565b6101396102d3366004611223565b6109ba565b6101fa6102e63660046113b3565b6000602081905290815260409020546001600160a01b031681565b6101b061030f3660046113b3565b60046020526000908152604090205460ff1681565b6101fa6103323660046113b3565b610ba4565b60035460005b808211156103e0576003818154811061036657634e487b7160e01b600052603260045260246000fd5b600091825260209091200154604051630388305360e11b8152600481018590526001600160a01b039091169063071060a690602401600060405180830381600087803b1580156103b557600080fd5b505af11580156103c9573d6000803e3d6000fd5b5050505080806103d890611530565b91505061033d565b505050565b6060600380548060200260200160405190810160405280929190818152602001828054801561043d57602002820191906000526020600020905b81546001600160a01b0316815260019091019060200180831161041f575b5050505050905090565b6006818154811061045757600080fd5b600091825260209091200154905081565b33610471610bce565b6001600160a01b0316148061049557503361048a610c66565b6001600160a01b0316145b6104ba5760405162461bcd60e51b81526004016104b190611447565b60405180910390fd5b6104c48282610cd7565b5050565b336104d1610bce565b6001600160a01b031614806104f55750336104ea610c66565b6001600160a01b0316145b8061050f575033610504610dc8565b6001600160a01b0316145b61052b5760405162461bcd60e51b81526004016104b19061147e565b6104c48282610e01565b60035460005b808211156105e6576003818154811061056457634e487b7160e01b600052603260045260246000fd5b60009182526020909120015460405163223ea95d60e11b8152600481018690526001600160a01b0385811660248301529091169063447d52ba90604401600060405180830381600087803b1580156105bb57600080fd5b505af11580156105cf573d6000803e3d6000fd5b5050505080806105de90611530565b91505061053b565b50505050565b336105f5610bce565b6001600160a01b0316148061061957503361060e610c66565b6001600160a01b0316145b6106355760405162461bcd60e51b81526004016104b190611447565b6104c48282610e56565b33610648610bce565b6001600160a01b0316148061066c575033610661610c66565b6001600160a01b0316145b6106885760405162461bcd60e51b81526004016104b190611447565b6003805460018101825560009182527fc2575a0e9e593c00f959f8c92f12db2869c3395a3b0502d05e2516446f71f85b0180546001600160a01b0319166001600160a01b0386161790558251905b8082111561072757600084828151811061070057634e487b7160e01b600052603260045260246000fd5b602002602001015190506107148187610e56565b508061071f81611530565b9150506106d6565b5050805160005b8082111561077f57600083828151811061075857634e487b7160e01b600052603260045260246000fd5b6020026020010151905061076c8187610cd7565b508061077781611530565b91505061072e565b506105e6845b60065460005b8082111561083157826001600160a01b031663071060a6600683815481106107c357634e487b7160e01b600052603260045260246000fd5b90600052602060002001546040518263ffffffff1660e01b81526004016107ec91815260200190565b600060405180830381600087803b15801561080657600080fd5b505af115801561081a573d6000803e3d6000fd5b50505050808061082990611530565b91505061078b565b505060075460005b808211156103e05760005b60035481101561092857836001600160a01b031663447d52ba6007848154811061087e57634e487b7160e01b600052603260045260246000fd5b9060005260206000200154600384815481106108aa57634e487b7160e01b600052603260045260246000fd5b60009182526020909120015460405160e084901b6001600160e01b031916815260048101929092526001600160a01b03166024820152604401600060405180830381600087803b1580156108fd57600080fd5b505af1158015610911573d6000803e3d6000fd5b50505050808061092090611530565b915050610844565b508061093381611530565b915050610839565b6007818154811061045757600080fd5b33610954610bce565b6001600160a01b0316148061097857503361096d610c66565b6001600160a01b0316145b80610992575033610987610dc8565b6001600160a01b0316145b6109ae5760405162461bcd60e51b81526004016104b19061147e565b6109b781610f45565b50565b336109c3610bce565b6001600160a01b031614806109e75750336109dc610c66565b6001600160a01b0316145b610a035760405162461bcd60e51b81526004016104b190611447565b6000816001600160a01b031663cd28fc8f6040518163ffffffff1660e01b8152600401600060405180830381600087803b158015610a4057600080fd5b505af1158015610a54573d6000803e3d6000fd5b505050506040513d6000823e601f3d908101601f19168201604052610a7c9190810190611300565b905060005b8082511115610acd57610abb828281518110610aad57634e487b7160e01b600052603260045260246000fd5b602002602001015184610cd7565b80610ac581611530565b915050610a81565b50610ad782610785565b600280546001600160a01b0319166001600160a01b03841690811790915560408051631851865560e21b8152905163614619549160048082019260009290919082900301818387803b158015610b2c57600080fd5b505af1158015610b40573d6000803e3d6000fd5b5050600280546001600160a01b03191690555050805160005b808211156105e657610b92838281518110610b8457634e487b7160e01b600052603260045260246000fd5b602002602001015185610e01565b80610b9c81611530565b915050610b59565b60038181548110610bb457600080fd5b6000918252602090912001546001600160a01b0316905081565b60007f00000000000000000000000000000000000000000000000000000000000000006001600160a01b0316638da5cb5b6040518163ffffffff1660e01b815260040160206040518083038186803b158015610c2957600080fd5b505afa158015610c3d573d6000803e3d6000fd5b505050506040513d601f19601f82011682018060405250810190610c619190611246565b905090565b60007f00000000000000000000000000000000000000000000000000000000000000006001600160a01b031663c34c08e56040518163ffffffff1660e01b8152600401602060405180830381600087803b158015610cc357600080fd5b505af1158015610c3d573d6000803e3d6000fd5b60008281526005602052604090205460ff16610d3b576000828152600560205260408120805460ff191660019081179091556007805491820181559091527fa66cc928b5edb82af9bd49922954155ab7b0942694bea4ce44661d9a8736c688018290555b6040516325398f8360e01b8152600481018390526001600160a01b0382811660248301527f000000000000000000000000000000000000000000000000000000000000000016906325398f83906044015b600060405180830381600087803b158015610da657600080fd5b505af1158015610dba573d6000803e3d6000fd5b505050506104c48282610535565b6103e960009081526020527f236f539bf6e1b3b15a335e3cd157d360bc4be88c071635c19ba8a82b4f665e9f546001600160a01b031690565b604051633238405b60e01b8152600481018390526001600160a01b0382811660248301527f00000000000000000000000000000000000000000000000000000000000000001690633238405b90604401610d8c565b60008281526004602052604090205460ff16610eba576000828152600460205260408120805460ff191660019081179091556006805491820181559091527ff652222313e28459528d920b65115c16c04f3efc82aaedc97be59f3f377c0d3f018290555b604051634d53776960e01b8152600481018390526001600160a01b0382811660248301527f00000000000000000000000000000000000000000000000000000000000000001690634d53776990604401600060405180830381600087803b158015610f2457600080fd5b505af1158015610f38573d6000803e3d6000fd5b505050506104c482610337565b60075460005b8082111561107a577f00000000000000000000000000000000000000000000000000000000000000006001600160a01b03166393552a3d60078381548110610fa357634e487b7160e01b600052603260045260246000fd5b9060005260206000200154856040518363ffffffff1660e01b8152600401610fde9291909182526001600160a01b0316602082015260400190565b60206040518083038186803b158015610ff657600080fd5b505afa15801561100a573d6000803e3d6000fd5b505050506040513d601f19601f8201168201806040525081019061102e9190611393565b15611068576110686007828154811061105757634e487b7160e01b600052603260045260246000fd5b906000526020600020015484610e01565b8061107281611530565b915050610f4b565b505060065460005b808211156103e057826001600160a01b03167f00000000000000000000000000000000000000000000000000000000000000006001600160a01b031663b4ed0b6d600684815481106110e457634e487b7160e01b600052603260045260246000fd5b90600052602060002001546040518263ffffffff1660e01b815260040161110d91815260200190565b60206040518083038186803b15801561112557600080fd5b505afa158015611139573d6000803e3d6000fd5b505050506040513d601f19601f8201168201806040525081019061115d9190611246565b6001600160a01b031614156111a2576111a26006828154811061119057634e487b7160e01b600052603260045260246000fd5b90600052602060002001546000610e56565b806111ac81611530565b915050611082565b600082601f8301126111c4578081fd5b813560206111d96111d48361150c565b6114db565b80838252828201915082860187848660051b89010111156111f8578586fd5b855b85811015611216578135845292840192908401906001016111fa565b5090979650505050505050565b600060208284031215611234578081fd5b813561123f8161156d565b9392505050565b600060208284031215611257578081fd5b815161123f8161156d565b600080600060608486031215611276578182fd5b83356112818161156d565b9250602084013567ffffffffffffffff8082111561129d578384fd5b6112a9878388016111b4565b935060408601359150808211156112be578283fd5b506112cb868287016111b4565b9150509250925092565b600080604083850312156112e7578182fd5b82356112f28161156d565b946020939093013593505050565b60006020808385031215611312578182fd5b825167ffffffffffffffff811115611328578283fd5b8301601f81018513611338578283fd5b80516113466111d48261150c565b80828252848201915084840188868560051b8701011115611365578687fd5b8694505b83851015611387578051835260019490940193918501918501611369565b50979650505050505050565b6000602082840312156113a4578081fd5b8151801515811461123f578182fd5b6000602082840312156113c4578081fd5b5035919050565b600080604083850312156113dd578182fd5b8235915060208301356113ef8161156d565b809150509250929050565b6020808252825182820181905260009190848201906040850190845b8181101561143b5783516001600160a01b031683529284019291840191600101611416565b50909695505050505050565b6020808252601e908201527f526f6c65733a2063616c6c6572206973206e6f7420746865206f776e65720000604082015260600190565b60208082526038908201527f43616c6c6572206973206e6f7420746865206f776e65722c206578656375746f60408201527f72206f7220617574686f72697a65642064697361626c65720000000000000000606082015260800190565b604051601f8201601f1916810167ffffffffffffffff8111828210171561150457611504611557565b604052919050565b600067ffffffffffffffff82111561152657611526611557565b5060051b60200190565b600060001982141561155057634e487b7160e01b81526011600452602481fd5b5060010190565b634e487b7160e01b600052604160045260246000fd5b6001600160a01b03811681146109b757600080fdfea2646970667358221220e5508a67b11ee72de054a8f1af5771a0e55e7162afe70d5ccd383d00c52b30c764736f6c63430008030033",
  "devdoc": {
    "kind": "dev",
    "methods": {},
    "title": "Provides a single point of reference to verify integrity of the roles structure and facilitate governance actions within our system as well as performing cache invalidation for roles and inter-contract relationships",
    "version": 1
  },
  "userdoc": {
    "kind": "user",
    "methods": {
      "disableContract(address)": {
        "notice": "Remove roles and permissions for contract"
      },
      "giveRole(uint256,address)": {
        "notice": "Activate role"
      },
      "manageContract(address,uint256[],uint256[])": {
        "notice": "Orchestrate roles and permission for contract"
      },
      "removeRole(uint256,address)": {
        "notice": "Disable role"
      }
    },
    "version": 1
  },
  "storageLayout": {
    "storage": [
      {
        "astId": 10085,
        "contract": "contracts/DependencyController.sol:DependencyController",
        "label": "mainCharacterCache",
        "offset": 0,
        "slot": "0",
        "type": "t_mapping(t_uint256,t_address)"
      },
      {
        "astId": 10091,
        "contract": "contracts/DependencyController.sol:DependencyController",
        "label": "roleCache",
        "offset": 0,
        "slot": "1",
        "type": "t_mapping(t_address,t_mapping(t_uint256,t_bool))"
      },
      {
        "astId": 5171,
        "contract": "contracts/DependencyController.sol:DependencyController",
        "label": "currentExecutor",
        "offset": 0,
        "slot": "2",
        "type": "t_address"
      },
      {
        "astId": 5174,
        "contract": "contracts/DependencyController.sol:DependencyController",
        "label": "managedContracts",
        "offset": 0,
        "slot": "3",
        "type": "t_array(t_address)dyn_storage"
      },
      {
        "astId": 5178,
        "contract": "contracts/DependencyController.sol:DependencyController",
        "label": "knownCharacters",
        "offset": 0,
        "slot": "4",
        "type": "t_mapping(t_uint256,t_bool)"
      },
      {
        "astId": 5182,
        "contract": "contracts/DependencyController.sol:DependencyController",
        "label": "knownRoles",
        "offset": 0,
        "slot": "5",
        "type": "t_mapping(t_uint256,t_bool)"
      },
      {
        "astId": 5185,
        "contract": "contracts/DependencyController.sol:DependencyController",
        "label": "allCharacters",
        "offset": 0,
        "slot": "6",
        "type": "t_array(t_uint256)dyn_storage"
      },
      {
        "astId": 5188,
        "contract": "contracts/DependencyController.sol:DependencyController",
        "label": "allRoles",
        "offset": 0,
        "slot": "7",
        "type": "t_array(t_uint256)dyn_storage"
      }
    ],
    "types": {
      "t_address": {
        "encoding": "inplace",
        "label": "address",
        "numberOfBytes": "20"
      },
      "t_array(t_address)dyn_storage": {
        "base": "t_address",
        "encoding": "dynamic_array",
        "label": "address[]",
        "numberOfBytes": "32"
      },
      "t_array(t_uint256)dyn_storage": {
        "base": "t_uint256",
        "encoding": "dynamic_array",
        "label": "uint256[]",
        "numberOfBytes": "32"
      },
      "t_bool": {
        "encoding": "inplace",
        "label": "bool",
        "numberOfBytes": "1"
      },
      "t_mapping(t_address,t_mapping(t_uint256,t_bool))": {
        "encoding": "mapping",
        "key": "t_address",
        "label": "mapping(address => mapping(uint256 => bool))",
        "numberOfBytes": "32",
        "value": "t_mapping(t_uint256,t_bool)"
      },
      "t_mapping(t_uint256,t_address)": {
        "encoding": "mapping",
        "key": "t_uint256",
        "label": "mapping(uint256 => address)",
        "numberOfBytes": "32",
        "value": "t_address"
      },
      "t_mapping(t_uint256,t_bool)": {
        "encoding": "mapping",
        "key": "t_uint256",
        "label": "mapping(uint256 => bool)",
        "numberOfBytes": "32",
        "value": "t_bool"
      },
      "t_uint256": {
        "encoding": "inplace",
        "label": "uint256",
        "numberOfBytes": "32"
      }
    }
  }
}