{
  "address": "0xe6fe59966cBaf23726cb6513d410877FEC9ca4CF",
  "abi": [
    {
      "inputs": [
        {
          "internalType": "address",
          "name": "_roles",
          "type": "address"
        }
      ],
      "stateMutability": "nonpayable",
      "type": "constructor"
    },
    {
      "inputs": [
        {
          "internalType": "address",
          "name": "issuer",
          "type": "address"
        }
      ],
      "name": "activateIssuer",
      "outputs": [],
      "stateMutability": "nonpayable",
      "type": "function"
    },
    {
      "inputs": [
        {
          "internalType": "address",
          "name": "issuer",
          "type": "address"
        },
        {
          "internalType": "address",
          "name": "token",
          "type": "address"
        }
      ],
      "name": "activateIssuer",
      "outputs": [],
      "stateMutability": "nonpayable",
      "type": "function"
    },
    {
      "inputs": [
        {
          "internalType": "address",
          "name": "",
          "type": "address"
        }
      ],
      "name": "activeIssuers",
      "outputs": [
        {
          "internalType": "bool",
          "name": "",
          "type": "bool"
        }
      ],
      "stateMutability": "view",
      "type": "function"
    },
    {
      "inputs": [
        {
          "internalType": "uint256",
          "name": "balance",
          "type": "uint256"
        },
        {
          "internalType": "address",
          "name": "issuer",
          "type": "address"
        },
        {
          "internalType": "uint256",
          "name": "yieldQuotientFP",
          "type": "uint256"
        }
      ],
      "name": "applyBorrowInterest",
      "outputs": [
        {
          "internalType": "uint256",
          "name": "balanceWithInterest",
          "type": "uint256"
        },
        {
          "internalType": "uint256",
          "name": "accumulatorFP",
          "type": "uint256"
        }
      ],
      "stateMutability": "nonpayable",
      "type": "function"
    },
    {
      "inputs": [
        {
          "internalType": "address",
          "name": "",
          "type": "address"
        }
      ],
      "name": "borrowYieldAccumulators",
      "outputs": [
        {
          "internalType": "uint256",
          "name": "accumulatorFP",
          "type": "uint256"
        },
        {
          "internalType": "uint256",
          "name": "lastUpdated",
          "type": "uint256"
        },
        {
          "internalType": "uint256",
          "name": "hourlyYieldFP",
          "type": "uint256"
        }
      ],
      "stateMutability": "view",
      "type": "function"
    },
    {
      "inputs": [],
      "name": "borrowingFactorPercent",
      "outputs": [
        {
          "internalType": "uint256",
          "name": "",
          "type": "uint256"
        }
      ],
      "stateMutability": "view",
      "type": "function"
    },
    {
      "inputs": [
        {
          "internalType": "address",
          "name": "issuer",
          "type": "address"
        },
        {
          "internalType": "uint256",
          "name": "amount",
          "type": "uint256"
        }
      ],
      "name": "buyHourlyBondSubscription",
      "outputs": [],
      "stateMutability": "nonpayable",
      "type": "function"
    },
    {
      "inputs": [
        {
          "internalType": "address",
          "name": "issuer",
          "type": "address"
        }
      ],
      "name": "closeHourlyBondAccount",
      "outputs": [],
      "stateMutability": "nonpayable",
      "type": "function"
    },
    {
      "inputs": [
        {
          "internalType": "address",
          "name": "issuer",
          "type": "address"
        }
      ],
      "name": "deactivateIssuer",
      "outputs": [],
      "stateMutability": "nonpayable",
      "type": "function"
    },
    {
      "inputs": [
        {
          "internalType": "address",
          "name": "issuer",
          "type": "address"
        }
      ],
      "name": "getUpdatedBorrowYieldAccuFP",
      "outputs": [
        {
          "internalType": "uint256",
          "name": "",
          "type": "uint256"
        }
      ],
      "stateMutability": "nonpayable",
      "type": "function"
    },
    {
      "inputs": [
        {
          "internalType": "uint256",
          "name": "amount",
          "type": "uint256"
        }
      ],
      "name": "haircut",
      "outputs": [],
      "stateMutability": "nonpayable",
      "type": "function"
    },
    {
      "inputs": [
        {
          "internalType": "address",
          "name": "",
          "type": "address"
        }
      ],
      "name": "haircuts",
      "outputs": [
        {
          "internalType": "uint256",
          "name": "",
          "type": "uint256"
        }
      ],
      "stateMutability": "view",
      "type": "function"
    },
    {
      "inputs": [],
      "name": "highRatePerPercent",
      "outputs": [
        {
          "internalType": "uint256",
          "name": "",
          "type": "uint256"
        }
      ],
      "stateMutability": "view",
      "type": "function"
    },
    {
      "inputs": [
        {
          "internalType": "address",
          "name": "",
          "type": "address"
        },
        {
          "internalType": "address",
          "name": "",
          "type": "address"
        }
      ],
      "name": "hourlyBondAccounts",
      "outputs": [
        {
          "internalType": "uint256",
          "name": "amount",
          "type": "uint256"
        },
        {
          "internalType": "uint256",
          "name": "yieldQuotientFP",
          "type": "uint256"
        },
        {
          "internalType": "uint256",
          "name": "moduloHour",
          "type": "uint256"
        }
      ],
      "stateMutability": "view",
      "type": "function"
    },
    {
      "inputs": [
        {
          "internalType": "address",
          "name": "issuer",
          "type": "address"
        }
      ],
      "name": "initBorrowYieldAccumulator",
      "outputs": [],
      "stateMutability": "nonpayable",
      "type": "function"
    },
    {
      "inputs": [
        {
          "internalType": "address",
          "name": "",
          "type": "address"
        }
      ],
      "name": "issuerTokens",
      "outputs": [
        {
          "internalType": "address",
          "name": "",
          "type": "address"
        }
      ],
      "stateMutability": "view",
      "type": "function"
    },
    {
      "inputs": [
        {
          "internalType": "address",
          "name": "",
          "type": "address"
        }
      ],
      "name": "lendingMeta",
      "outputs": [
        {
          "internalType": "uint256",
          "name": "totalLending",
          "type": "uint256"
        },
        {
          "internalType": "uint256",
          "name": "totalBorrowed",
          "type": "uint256"
        },
        {
          "internalType": "uint256",
          "name": "lendingCap",
          "type": "uint256"
        }
      ],
      "stateMutability": "view",
      "type": "function"
    },
    {
      "inputs": [
        {
          "internalType": "uint256",
          "name": "",
          "type": "uint256"
        }
      ],
      "name": "mainCharacterCache",
      "outputs": [
        {
          "internalType": "address",
          "name": "",
          "type": "address"
        }
      ],
      "stateMutability": "view",
      "type": "function"
    },
    {
      "inputs": [
        {
          "internalType": "address",
          "name": "issuer",
          "type": "address"
        },
        {
          "internalType": "address",
          "name": "holder",
          "type": "address"
        },
        {
          "internalType": "uint256",
          "name": "amount",
          "type": "uint256"
        }
      ],
      "name": "makeFallbackBond",
      "outputs": [],
      "stateMutability": "nonpayable",
      "type": "function"
    },
    {
      "inputs": [],
      "name": "normalRatePerPercent",
      "outputs": [
        {
          "internalType": "uint256",
          "name": "",
          "type": "uint256"
        }
      ],
      "stateMutability": "view",
      "type": "function"
    },
    {
      "inputs": [
        {
          "internalType": "address",
          "name": "issuer",
          "type": "address"
        },
        {
          "internalType": "uint256",
          "name": "amount",
          "type": "uint256"
        }
      ],
      "name": "payOff",
      "outputs": [],
      "stateMutability": "nonpayable",
      "type": "function"
    },
    {
      "inputs": [
        {
          "internalType": "address",
          "name": "issuer",
          "type": "address"
        },
        {
          "internalType": "uint256",
          "name": "amount",
          "type": "uint256"
        }
      ],
      "name": "registerBorrow",
      "outputs": [],
      "stateMutability": "nonpayable",
      "type": "function"
    },
    {
      "inputs": [
        {
          "internalType": "address",
          "name": "issuer",
          "type": "address"
        },
        {
          "internalType": "uint256",
          "name": "amount",
          "type": "uint256"
        }
      ],
      "name": "registerLend",
      "outputs": [],
      "stateMutability": "nonpayable",
      "type": "function"
    },
    {
      "inputs": [
        {
          "internalType": "address",
          "name": "issuer",
          "type": "address"
        },
        {
          "internalType": "uint256",
          "name": "amount",
          "type": "uint256"
        }
      ],
      "name": "registerWithdrawal",
      "outputs": [],
      "stateMutability": "nonpayable",
      "type": "function"
    },
    {
      "inputs": [
        {
          "internalType": "address",
          "name": "",
          "type": "address"
        },
        {
          "internalType": "uint256",
          "name": "",
          "type": "uint256"
        }
      ],
      "name": "roleCache",
      "outputs": [
        {
          "internalType": "bool",
          "name": "",
          "type": "bool"
        }
      ],
      "stateMutability": "view",
      "type": "function"
    },
    {
      "inputs": [],
      "name": "roles",
      "outputs": [
        {
          "internalType": "contract Roles",
          "name": "",
          "type": "address"
        }
      ],
      "stateMutability": "view",
      "type": "function"
    },
    {
      "inputs": [
        {
          "internalType": "uint256",
          "name": "borrowingFactor",
          "type": "uint256"
        }
      ],
      "name": "setBorrowingFactorPercent",
      "outputs": [],
      "stateMutability": "nonpayable",
      "type": "function"
    },
    {
      "inputs": [
        {
          "internalType": "uint256",
          "name": "rate",
          "type": "uint256"
        }
      ],
      "name": "setHighRatePerPercent",
      "outputs": [],
      "stateMutability": "nonpayable",
      "type": "function"
    },
    {
      "inputs": [
        {
          "internalType": "address",
          "name": "issuer",
          "type": "address"
        },
        {
          "internalType": "uint256",
          "name": "aprPercent",
          "type": "uint256"
        }
      ],
      "name": "setHourlyYieldAPR",
      "outputs": [],
      "stateMutability": "nonpayable",
      "type": "function"
    },
    {
      "inputs": [
        {
          "internalType": "address",
          "name": "issuer",
          "type": "address"
        },
        {
          "internalType": "uint256",
          "name": "cap",
          "type": "uint256"
        }
      ],
      "name": "setLendingCap",
      "outputs": [],
      "stateMutability": "nonpayable",
      "type": "function"
    },
    {
      "inputs": [
        {
          "internalType": "uint256",
          "name": "rate",
          "type": "uint256"
        }
      ],
      "name": "setNormalRatePerPercent",
      "outputs": [],
      "stateMutability": "nonpayable",
      "type": "function"
    },
    {
      "inputs": [
        {
          "internalType": "uint256",
          "name": "window",
          "type": "uint256"
        }
      ],
      "name": "setWithdrawalWindow",
      "outputs": [],
      "stateMutability": "nonpayable",
      "type": "function"
    },
    {
      "inputs": [
        {
          "internalType": "address",
          "name": "issuer",
          "type": "address"
        }
      ],
      "name": "updateHourlyYield",
      "outputs": [
        {
          "internalType": "uint256",
          "name": "hourlyYield",
          "type": "uint256"
        }
      ],
      "stateMutability": "nonpayable",
      "type": "function"
    },
    {
      "inputs": [
        {
          "internalType": "uint256",
          "name": "role",
          "type": "uint256"
        }
      ],
      "name": "updateMainCharacterCache",
      "outputs": [],
      "stateMutability": "nonpayable",
      "type": "function"
    },
    {
      "inputs": [
        {
          "internalType": "uint256",
          "name": "role",
          "type": "uint256"
        },
        {
          "internalType": "address",
          "name": "contr",
          "type": "address"
        }
      ],
      "name": "updateRoleCache",
      "outputs": [],
      "stateMutability": "nonpayable",
      "type": "function"
    },
    {
      "inputs": [
        {
          "internalType": "address",
          "name": "issuer",
          "type": "address"
        }
      ],
      "name": "viewAccumulatedBorrowingYieldFP",
      "outputs": [
        {
          "internalType": "uint256",
          "name": "",
          "type": "uint256"
        }
      ],
      "stateMutability": "view",
      "type": "function"
    },
    {
      "inputs": [
        {
          "internalType": "address",
          "name": "issuer",
          "type": "address"
        }
      ],
      "name": "viewBorrowAPRPer10k",
      "outputs": [
        {
          "internalType": "uint256",
          "name": "",
          "type": "uint256"
        }
      ],
      "stateMutability": "view",
      "type": "function"
    },
    {
      "inputs": [
        {
          "internalType": "address",
          "name": "issuer",
          "type": "address"
        }
      ],
      "name": "viewHourlyBondAPRPer10k",
      "outputs": [
        {
          "internalType": "uint256",
          "name": "",
          "type": "uint256"
        }
      ],
      "stateMutability": "view",
      "type": "function"
    },
    {
      "inputs": [
        {
          "internalType": "address",
          "name": "issuer",
          "type": "address"
        },
        {
          "internalType": "address",
          "name": "holder",
          "type": "address"
        }
      ],
      "name": "viewHourlyBondAmount",
      "outputs": [
        {
          "internalType": "uint256",
          "name": "",
          "type": "uint256"
        }
      ],
      "stateMutability": "view",
      "type": "function"
    },
    {
      "inputs": [
        {
          "internalType": "uint256",
          "name": "balance",
          "type": "uint256"
        },
        {
          "internalType": "address",
          "name": "issuer",
          "type": "address"
        },
        {
          "internalType": "uint256",
          "name": "yieldQuotientFP",
          "type": "uint256"
        }
      ],
      "name": "viewWithBorrowInterest",
      "outputs": [
        {
          "internalType": "uint256",
          "name": "",
          "type": "uint256"
        }
      ],
      "stateMutability": "view",
      "type": "function"
    },
    {
      "inputs": [
        {
          "internalType": "address",
          "name": "issuer",
          "type": "address"
        },
        {
          "internalType": "uint256",
          "name": "amount",
          "type": "uint256"
        }
      ],
      "name": "withdrawHourlyBond",
      "outputs": [],
      "stateMutability": "nonpayable",
      "type": "function"
    },
    {
      "inputs": [],
      "name": "withdrawalWindow",
      "outputs": [
        {
          "internalType": "uint256",
          "name": "",
          "type": "uint256"
        }
      ],
      "stateMutability": "view",
      "type": "function"
    }
  ],
  "transactionHash": "0x22d02aa8a6d63d855471a8692bd189217377b9334074d03b5f3c1a4de2cb5762",
  "args": [
    "0xb8a63dBb2C5B775067444EaEF60722806524F7FD"
  ],
  "solcInputHash": "49fa39efe792e8097386d041699fb9c7",
  "bytecode": "0x60a0604052606460526122386200001f6601000000000000600c6200019d565b6200002b91906200017c565b6200003791906200017c565b6200004391906200017c565b600255606462000055605282620001bf565b6122386200006c6601000000000000607b6200019d565b6200007891906200017c565b6200008491906200017c565b6200009091906200017c565b6003556104b060075560c8600955348015620000ab57600080fd5b5060405162002f5d38038062002f5d833981016040819052620000ce916200014c565b806001600160a01b038116620001355760405162461bcd60e51b815260206004820152602260248201527f506c656173652070726f766964652076616c696420726f6c6573206164647265604482015261737360f01b606482015260840160405180910390fd5b60601b6001600160601b03191660805250620001ef565b6000602082840312156200015e578081fd5b81516001600160a01b038116811462000175578182fd5b9392505050565b6000826200019857634e487b7160e01b81526012600452602481fd5b500490565b6000816000190483118215151615620001ba57620001ba620001d9565b500290565b600082821015620001d457620001d4620001d9565b500390565b634e487b7160e01b600052601160045260246000fd5b60805160601c612d336200022a600039600081816103d30152818161077301528181610bad0152818161258401526126290152612d336000f3fe608060405234801561001057600080fd5b50600436106102de5760003560e01c80637a1a04df11610186578063db41039f116100e3578063ebe64bcc11610097578063f848767311610071578063f84876731461070b578063f884614b1461071e578063f90889c914610731576102de565b8063ebe64bcc146106d2578063ee0862bf146106e5578063f51dfe7a146106f8576102de565b8063e695fa68116100c8578063e695fa681461066b578063e69e266214610693578063e9c3f77d1461069c576102de565b8063db41039f14610645578063dc683bcf14610658576102de565b8063cc4b26a31161013a578063d19bd0a71161011f578063d19bd0a714610616578063d2b489341461061f578063d4437dd814610632576102de565b8063cc4b26a3146105d4578063cd3b5dfb146105e7576102de565b806391b46e051161016b57806391b46e051461057f578063ad037af614610592578063ae4479dd146105c1576102de565b80637a1a04df146104fc57806383a042291461052a576102de565b806346c87f801161023f5780636e60e249116101f357806376c308f2116101cd57806376c308f2146104ad578063797384b2146104b65780637a009135146104e9576102de565b80636e60e2491461047457806372d012571461048757806376668b671461049a576102de565b80634b86daab116102245780634b86daab1461042e57806364f85ab1146104415780636d8d36ba14610461576102de565b806346c87f801461040857806349d0e2ee1461041b576102de565b80632810802611610296578063369539121161027b57806336953912146103bb578063392f5f64146103ce578063447d52ba146103f5576102de565b8063281080261461034d5780632a6a897b146103a8576102de565b806314189db2116102c757806314189db21461030b57806316de7a4314610331578063267031b814610344576102de565b8063071060a6146102e35780630f7c43dc146102f8575b600080fd5b6102f66102f1366004612b4e565b610744565b005b6102f6610306366004612b03565b610855565b61031e610319366004612a53565b6108fa565b6040519081526020015b60405180910390f35b6102f661033f366004612b03565b610930565b61031e60095481565b61038361035b366004612a53565b600a6020526000908152604090205473ffffffffffffffffffffffffffffffffffffffff1681565b60405173ffffffffffffffffffffffffffffffffffffffff9091168152602001610328565b6102f66103b6366004612b03565b6109e9565b6102f66103c9366004612b4e565b610aaf565b6103837f000000000000000000000000000000000000000000000000000000000000000081565b6102f6610403366004612b66565b610b61565b61031e610416366004612a53565b610c8a565b6102f6610429366004612b4e565b610cbf565b6102f661043c366004612a53565b610d71565b61031e61044f366004612a53565b600b6020526000908152604090205481565b6102f661046f366004612b03565b610d7e565b61031e610482366004612a8b565b610f09565b61031e610495366004612a53565b610f90565b61031e6104a8366004612b8a565b610fbe565b61031e60025481565b6104d96104c4366004612a53565b600c6020526000908152604090205460ff1681565b6040519015158152602001610328565b6102f66104f7366004612a53565b611005565b6104d961050a366004612b03565b600160209081526000928352604080842090915290825290205460ff1681565b610564610538366004612a8b565b600860209081526000928352604080842090915290825290208054600182015460029092015490919083565b60408051938452602084019290925290820152606001610328565b6102f661058d366004612b4e565b61114a565b6105646105a0366004612a53565b60046020526000908152604090208054600182015460029092015490919083565b6102f66105cf366004612b03565b6111fc565b6102f66105e2366004612a53565b611349565b6105646105f5366004612a53565b60056020526000908152604090208054600182015460029092015490919083565b61031e60075481565b6102f661062d366004612b03565b611522565b6102f6610640366004612b4e565b611647565b6102f6610653366004612ac3565b61166e565b61031e610666366004612a53565b6116fe565b61067e610679366004612b8a565b61173b565b60408051928352602083019190915201610328565b61031e60035481565b6103836106aa366004612b4e565b60006020819052908152604090205473ffffffffffffffffffffffffffffffffffffffff1681565b6102f66106e0366004612a8b565b61185d565b6102f66106f3366004612b03565b6119de565b61031e610706366004612a53565b611bd4565b6102f6610719366004612b4e565b611c02565b6102f661072c366004612a53565b611cb4565b6102f661073f366004612b03565b611d53565b6040517fb4ed0b6d000000000000000000000000000000000000000000000000000000008152600481018290527f000000000000000000000000000000000000000000000000000000000000000073ffffffffffffffffffffffffffffffffffffffff169063b4ed0b6d9060240160206040518083038186803b1580156107ca57600080fd5b505afa1580156107de573d6000803e3d6000fd5b505050506040513d601f19601f820116820180604052508101906108029190612a6f565b60009182526020829052604090912080547fffffffffffffffffffffffff00000000000000000000000000000000000000001673ffffffffffffffffffffffffffffffffffffffff909216919091179055565b73ffffffffffffffffffffffffffffffffffffffff82166000908152600860209081526040808320338452909152902061088f8382611f65565b61089a83828461200d565b80546108df5773ffffffffffffffffffffffffffffffffffffffff83166000908152600860209081526040808320338452909152812081815560018101829055600201555b6108ea833384612119565b6108f58333846122f0565b505050565b73ffffffffffffffffffffffffffffffffffffffff811660009081526005602052604081206109298142612349565b9392505050565b73ffffffffffffffffffffffffffffffffffffffff82166000908152600c602052604090205460ff166109c4576040517f08c379a000000000000000000000000000000000000000000000000000000000815260206004820152601360248201527f4e6f7420617070726f766564206973737565720000000000000000000000000060448201526064015b60405180910390fd5b6109cf82338361238a565b6109da823383612456565b6109e5823383612530565b5050565b3360009081526001602090815260408083206003845290915290205460ff16610a6e576040517f08c379a000000000000000000000000000000000000000000000000000000000815260206004820152601560248201527f4e6f7420617070726f76656420626f72726f776572000000000000000000000060448201526064016109bb565b73ffffffffffffffffffffffffffffffffffffffff821660009081526004602052604081206001018054839290610aa6908490612c19565b90915550505050565b33610ab8612580565b73ffffffffffffffffffffffffffffffffffffffff161480610af6575033610ade612625565b73ffffffffffffffffffffffffffffffffffffffff16145b610b5c576040517f08c379a000000000000000000000000000000000000000000000000000000000815260206004820152601e60248201527f526f6c65733a2063616c6c6572206973206e6f7420746865206f776e6572000060448201526064016109bb565b600755565b6040517f93552a3d0000000000000000000000000000000000000000000000000000000081526004810183905273ffffffffffffffffffffffffffffffffffffffff82811660248301527f000000000000000000000000000000000000000000000000000000000000000016906393552a3d9060440160206040518083038186803b158015610bef57600080fd5b505afa158015610c03573d6000803e3d6000fd5b505050506040513d601f19601f82011682018060405250810190610c279190612b2e565b73ffffffffffffffffffffffffffffffffffffffff9190911660009081526001602090815260408083209483529390529190912080547fffffffffffffffffffffffffffffffffffffffffffffffffffffffffffffff0016911515919091179055565b73ffffffffffffffffffffffffffffffffffffffff81166000908152600560205260408120610cb8816126a3565b5492915050565b33610cc8612580565b73ffffffffffffffffffffffffffffffffffffffff161480610d06575033610cee612625565b73ffffffffffffffffffffffffffffffffffffffff16145b610d6c576040517f08c379a000000000000000000000000000000000000000000000000000000000815260206004820152601e60248201527f526f6c65733a2063616c6c6572206973206e6f7420746865206f776e6572000060448201526064016109bb565b600355565b610d7b818261185d565b50565b336000908152600160209081526040808320600b845290915290205460ff16610e03576040517f08c379a000000000000000000000000000000000000000000000000000000000815260206004820152601660248201527f4e6f7420616e20617070726f766564206c656e6465720000000000000000000060448201526064016109bb565b73ffffffffffffffffffffffffffffffffffffffff82166000908152600c602052604090205460ff16610e92576040517f08c379a000000000000000000000000000000000000000000000000000000000815260206004820152601360248201527f4e6f7420617070726f766564206973737565720000000000000000000000000060448201526064016109bb565b73ffffffffffffffffffffffffffffffffffffffff82166000908152600460205260408120805490918391839190610ecb908490612c19565b909155505073ffffffffffffffffffffffffffffffffffffffff83166000908152600660205260409020610f039084906102586126d7565b50505050565b73ffffffffffffffffffffffffffffffffffffffff8083166000818152600860209081526040808320948616835293815283822060018101549383526006909152928120909291908390610f5d9042612349565b90508115610f7c578254610f72908284612809565b9350505050610f8a565b5050549050610f8a565b5050505b92915050565b73ffffffffffffffffffffffffffffffffffffffff81166000908152600660205260408120610f8a90612828565b73ffffffffffffffffffffffffffffffffffffffff821660009081526005602052604081208190610fef9042612349565b9050610ffc858285612809565b95945050505050565b3361100e612580565b73ffffffffffffffffffffffffffffffffffffffff16148061104c575033611034612625565b73ffffffffffffffffffffffffffffffffffffffff16145b8061107257503360009081526001602090815260408083206009845290915290205460ff165b6110fe576040517f08c379a000000000000000000000000000000000000000000000000000000000815260206004820152603960248201527f43616c6c6572206973206e6f7420746865206f776e65722c206578656375746f60448201527f72206f7220617574686f72697a656420616374697661746f720000000000000060648201526084016109bb565b73ffffffffffffffffffffffffffffffffffffffff166000908152600c6020526040902080547fffffffffffffffffffffffffffffffffffffffffffffffffffffffffffffff00169055565b33611153612580565b73ffffffffffffffffffffffffffffffffffffffff161480611191575033611179612625565b73ffffffffffffffffffffffffffffffffffffffff16145b6111f7576040517f08c379a000000000000000000000000000000000000000000000000000000000815260206004820152601e60248201527f526f6c65733a2063616c6c6572206973206e6f7420746865206f776e6572000060448201526064016109bb565b600955565b336000908152600160209081526040808320600b845290915290205460ff16611281576040517f08c379a000000000000000000000000000000000000000000000000000000000815260206004820152601660248201527f4e6f7420616e20617070726f766564206c656e6465720000000000000000000060448201526064016109bb565b73ffffffffffffffffffffffffffffffffffffffff82166000908152600c602052604090205460ff16611310576040517f08c379a000000000000000000000000000000000000000000000000000000000815260206004820152601360248201527f4e6f7420617070726f766564206973737565720000000000000000000000000060448201526064016109bb565b73ffffffffffffffffffffffffffffffffffffffff82166000908152600460205260408120805490918391839190610ecb908490612bb0565b33611352612580565b73ffffffffffffffffffffffffffffffffffffffff161480611390575033611378612625565b73ffffffffffffffffffffffffffffffffffffffff16145b806113b657503360009081526001602090815260408083206009845290915290205460ff165b611442576040517f08c379a000000000000000000000000000000000000000000000000000000000815260206004820152603960248201527f43616c6c6572206973206e6f7420746865206f776e65722c206578656375746f60448201527f72206f7220617574686f72697a656420616374697661746f720000000000000060648201526084016109bb565b73ffffffffffffffffffffffffffffffffffffffff811660009081526005602052604090208054156114d0576040517f08c379a000000000000000000000000000000000000000000000000000000000815260206004820152601360248201527f646f6e27742072652d696e697469616c697a650000000000000000000000000060448201526064016109bb565b6601000000000000808255426001830155612238906064906114f490600690612bdc565b6114fe9190612bc8565b6115089190612bc8565b611519906601000000000000612bb0565b60029091015550565b3361152b612580565b73ffffffffffffffffffffffffffffffffffffffff161480611569575033611551612625565b73ffffffffffffffffffffffffffffffffffffffff16145b8061158f57503360009081526001602090815260408083206009845290915290205460ff165b61161b576040517f08c379a000000000000000000000000000000000000000000000000000000000815260206004820152603960248201527f43616c6c6572206973206e6f7420746865206f776e65722c206578656375746f60448201527f72206f7220617574686f72697a656420616374697661746f720000000000000060648201526084016109bb565b73ffffffffffffffffffffffffffffffffffffffff909116600090815260046020526040902060020155565b336000908152600b602052604081208054839290611666908490612bb0565b909155505050565b336000908152600160209081526040808320600b845290915290205460ff166116f3576040517f08c379a000000000000000000000000000000000000000000000000000000000815260206004820152601660248201527f4e6f7420616e20617070726f766564206c656e6465720000000000000000000060448201526064016109bb565b6108f5838383612456565b73ffffffffffffffffffffffffffffffffffffffff811660009081526006602052604081206117319083906102586126d7565b6002015492915050565b33600090815260016020908152604080832060038452909152812054819060ff166117c2576040517f08c379a000000000000000000000000000000000000000000000000000000000815260206004820152601160248201527f4e6f7420617070726f7665642063616c6c00000000000000000000000000000060448201526064016109bb565b73ffffffffffffffffffffffffffffffffffffffff841660009081526005602052604090206117f0816126a3565b805491506117ff868386612809565b9250600061180d8785612c19565b73ffffffffffffffffffffffffffffffffffffffff87166000908152600460205260408120600181018054939450909284929061184b908490612bb0565b92505081905550505050935093915050565b33611866612580565b73ffffffffffffffffffffffffffffffffffffffff1614806118a457503361188c612625565b73ffffffffffffffffffffffffffffffffffffffff16145b806118ca57503360009081526001602090815260408083206009845290915290205460ff165b611956576040517f08c379a000000000000000000000000000000000000000000000000000000000815260206004820152603960248201527f43616c6c6572206973206e6f7420746865206f776e65722c206578656375746f60448201527f72206f7220617574686f72697a656420616374697661746f720000000000000060648201526084016109bb565b73ffffffffffffffffffffffffffffffffffffffff9182166000908152600c6020908152604080832080547fffffffffffffffffffffffffffffffffffffffffffffffffffffffffffffff00166001179055600a90915290208054919092167fffffffffffffffffffffffff0000000000000000000000000000000000000000909116179055565b3360009081526001602090815260408083206003845290915290205460ff16611a63576040517f08c379a000000000000000000000000000000000000000000000000000000000815260206004820152601560248201527f4e6f7420617070726f76656420626f72726f776572000000000000000000000060448201526064016109bb565b73ffffffffffffffffffffffffffffffffffffffff82166000908152600c602052604090205460ff16611af2576040517f08c379a000000000000000000000000000000000000000000000000000000000815260206004820152601360248201527f4e6f7420617070726f766564206973737565720000000000000000000000000060448201526064016109bb565b73ffffffffffffffffffffffffffffffffffffffff8216600090815260046020526040812060018101805491928492611b2c908490612bb0565b909155505073ffffffffffffffffffffffffffffffffffffffff83166000908152600660205260409020611b64908490610e106126d7565b506001810154815410156108f5576040517f08c379a000000000000000000000000000000000000000000000000000000000815260206004820152601460248201527f496e73756666696369656e74206c656e64696e6700000000000000000000000060448201526064016109bb565b73ffffffffffffffffffffffffffffffffffffffff81166000908152600560205260408120610f8a90612828565b33611c0b612580565b73ffffffffffffffffffffffffffffffffffffffff161480611c49575033611c31612625565b73ffffffffffffffffffffffffffffffffffffffff16145b611caf576040517f08c379a000000000000000000000000000000000000000000000000000000000815260206004820152601e60248201527f526f6c65733a2063616c6c6572206973206e6f7420746865206f776e6572000060448201526064016109bb565b600255565b73ffffffffffffffffffffffffffffffffffffffff811660009081526008602090815260408083203384529091529020611cee8282611f65565b8054611cfb83838361200d565b611d06833383612119565b73ffffffffffffffffffffffffffffffffffffffff83166000908152600860209081526040808320338085529252822082815560018101839055600201919091556108f5908490836122f0565b33611d5c612580565b73ffffffffffffffffffffffffffffffffffffffff161480611d9a575033611d82612625565b73ffffffffffffffffffffffffffffffffffffffff16145b80611dc057503360009081526001602090815260408083206009845290915290205460ff165b611e4c576040517f08c379a000000000000000000000000000000000000000000000000000000000815260206004820152603960248201527f43616c6c6572206973206e6f7420746865206f776e65722c206578656375746f60448201527f72206f7220617574686f72697a656420616374697661746f720000000000000060648201526084016109bb565b73ffffffffffffffffffffffffffffffffffffffff821660009081526006602052604090208054611f155760006122386064611e8f856601000000000000612bdc565b611e999190612bc8565b611ea39190612bc8565b611eb4906601000000000000612bb0565b604080516060810182526601000000000000815242602080830191825282840194855273ffffffffffffffffffffffffffffffffffffffff8916600090815260069091529290922090518155905160018201559051600290910155506108f5565b6000611f2484836102586126d7565b90506122386064611f358582612bb0565b611f46906601000000000000612bdc565b611f509190612bc8565b611f5a9190612bc8565b600290910155505050565b600181015473ffffffffffffffffffffffffffffffffffffffff83166000908152600660205260408120611f9d9085906102586126d7565b90508115610f035782548154611fb590829085612809565b808555600090611fc6908390612c19565b73ffffffffffffffffffffffffffffffffffffffff8716600090815260046020526040812080549293508392909190612000908490612bb0565b9091555050505050505050565b6000610e108360020154426120229190612c19565b61202c9190612c69565b90508060075410156120c0576040517f08c379a000000000000000000000000000000000000000000000000000000000815260206004820152603f60248201527f5472696564207769746864726177696e67206f7574736964652073756273637260448201527f697074696f6e2063616e63656c6c6174696f6e2074696d652077696e646f770060648201526084016109bb565b818360000160008282546120d49190612c19565b909155505073ffffffffffffffffffffffffffffffffffffffff84166000908152600460205260408120805484929061210e908490612c19565b909155505050505050565b73ffffffffffffffffffffffffffffffffffffffff83166000908152600b6020526040902054801580159061214e5750600082115b156121e75773ffffffffffffffffffffffffffffffffffffffff841660009081526004602052604081205490816121858185612888565b61218f9086612bdc565b6121999190612bc8565b90506121a58185612c19565b73ffffffffffffffffffffffffffffffffffffffff87166000908152600b60205260408120805492965083929091906121df908490612c19565b909155505050505b73ffffffffffffffffffffffffffffffffffffffff8085166000908152600a602052604090205416612257606560009081526020527f4a7203f705e51df4a56139a9b86b4a0970bed7ab7a3446eaffe2289989c1645c5473ffffffffffffffffffffffffffffffffffffffff1690565b6040517fd9caed1200000000000000000000000000000000000000000000000000000000815273ffffffffffffffffffffffffffffffffffffffff8381166004830152868116602483015260448201869052919091169063d9caed1290606401600060405180830381600087803b1580156122d157600080fd5b505af11580156122e5573d6000803e3d6000fd5b505050505050505050565b6040805173ffffffffffffffffffffffffffffffffffffffff8581168252602082018490528416917f3397b60e3ca1e9c0c75a033d62ab8731e9b2937c0690ae5d7f1bd37886b19d7d91015b60405180910390a2505050565b60008083600101548361235c9190612c19565b905061025881111561237a5761237284826128a0565b915050610f8a565b50508154610f8a565b5092915050565b7f4a7203f705e51df4a56139a9b86b4a0970bed7ab7a3446eaffe2289989c1645c5473ffffffffffffffffffffffffffffffffffffffff8481166000908152600a60205260408082205481517fb3db428b00000000000000000000000000000000000000000000000000000000815287851660048201529084166024820152604481018690529051929093169263b3db428b926064808301939282900301818387803b15801561243957600080fd5b505af115801561244d573d6000803e3d6000fd5b50505050505050565b73ffffffffffffffffffffffffffffffffffffffff80841660009081526008602090815260408083209386168352929052206124928482611f65565b73ffffffffffffffffffffffffffffffffffffffff841660009081526006602052604090208054600183015581546124d6576124d0610e1042612c69565b60028301555b828260000160008282546124ea9190612bb0565b909155505073ffffffffffffffffffffffffffffffffffffffff851660009081526004602052604081208054859290612524908490612bb0565b90915550505050505050565b6040805173ffffffffffffffffffffffffffffffffffffffff8581168252602082018490528416917f8ec70c9430377a4bba035133e27a5b0f3b9951bc080833f6832bcbbb70a96dba910161233c565b60007f000000000000000000000000000000000000000000000000000000000000000073ffffffffffffffffffffffffffffffffffffffff16638da5cb5b6040518163ffffffff1660e01b815260040160206040518083038186803b1580156125e857600080fd5b505afa1580156125fc573d6000803e3d6000fd5b505050506040513d601f19601f820116820180604052508101906126209190612a6f565b905090565b60007f000000000000000000000000000000000000000000000000000000000000000073ffffffffffffffffffffffffffffffffffffffff1663c34c08e56040518163ffffffff1660e01b8152600401602060405180830381600087803b15801561268f57600080fd5b505af11580156125fc573d6000803e3d6000fd5b60008160010154426126b59190612c19565b90506102588111156109e5576126cb82826128a0565b82554260018301555050565b6001820154600090816126ea8242612c19565b9050838111156127ff5773ffffffffffffffffffffffffffffffffffffffff8616600090815260056020526040902061272386836128a0565b865573ffffffffffffffffffffffffffffffffffffffff871660009081526004602052604090208054600182015461275b91906129b8565b600288015542600188015561276f826126a3565b6127f4612238606461278966010000000000006006612bdc565b6127939190612bc8565b61279d9190612bc8565b6127ae906601000000000000612bb0565b606466010000000000008a600201546127c79190612c19565b6009546127d49190612bdc565b6127de9190612bc8565b6127ef906601000000000000612bb0565b612a3b565b826002018190555050505b5092949350505050565b6000816128168486612bdc565b6128209190612bc8565b949350505050565b600281015460009081610e106128476601000000000000612710612bdc565b61285384612710612bdc565b61285d9190612c19565b61286b906301e13380612bdc565b6128759190612bc8565b9050612820660100000000000082612bc8565b600081831115612899575080610f8a565b5081610f8a565b6000806128af610e1084612c69565b90506128c46601000000000000610e10612bdc565b81660100000000000086600201546128dc9190612c19565b86546128e89190612bdc565b6128f29190612bdc565b6128fc9190612bc8565b84546129089190612bb0565b91506000612918610e1085612bc8565b905080156129b0578260005b80831180156129335750806004115b1561296e5766010000000000008760020154866129509190612bdc565b61295a9190612bc8565b94508061296681612c30565b915050612924565b506004821115610f865760046129848184612c19565b61298e8387612c19565b6129989190612bdc565b6129a29190612bc8565b6129ac9085612bb0565b9350505b505092915050565b66010000000000006000836129ce846064612bdc565b6129d89190612bc8565b90506052811015612a01576002546129f09082612bdc565b6129fa9083612bb0565b9150612383565b600354612a0f605283612c19565b612a199190612bdc565b600254612a27906052612bdc565b612a319190612bb0565b6128209083612bb0565b600081831115612a4c575081610f8a565b5080610f8a565b600060208284031215612a64578081fd5b813561092981612cdb565b600060208284031215612a80578081fd5b815161092981612cdb565b60008060408385031215612a9d578081fd5b8235612aa881612cdb565b91506020830135612ab881612cdb565b809150509250929050565b600080600060608486031215612ad7578081fd5b8335612ae281612cdb565b92506020840135612af281612cdb565b929592945050506040919091013590565b60008060408385031215612b15578182fd5b8235612b2081612cdb565b946020939093013593505050565b600060208284031215612b3f578081fd5b81518015158114610929578182fd5b600060208284031215612b5f578081fd5b5035919050565b60008060408385031215612b78578182fd5b823591506020830135612ab881612cdb565b600080600060608486031215612b9e578283fd5b833592506020840135612af281612cdb565b60008219821115612bc357612bc3612c7d565b500190565b600082612bd757612bd7612cac565b500490565b6000817fffffffffffffffffffffffffffffffffffffffffffffffffffffffffffffffff0483118215151615612c1457612c14612c7d565b500290565b600082821015612c2b57612c2b612c7d565b500390565b60007fffffffffffffffffffffffffffffffffffffffffffffffffffffffffffffffff821415612c6257612c62612c7d565b5060010190565b600082612c7857612c78612cac565b500690565b7f4e487b7100000000000000000000000000000000000000000000000000000000600052601160045260246000fd5b7f4e487b7100000000000000000000000000000000000000000000000000000000600052601260045260246000fd5b73ffffffffffffffffffffffffffffffffffffffff81168114610d7b57600080fdfea264697066735822122085395f629425627007f5d72b3f62fb0b853b7d74e9a3b8bdd33c68928b5d43ef64736f6c63430008030033",
  "devdoc": {
    "kind": "dev",
    "methods": {
      "applyBorrowInterest(uint256,address,uint256)": {
        "details": "how much interest has accrued to a borrowed balance over time"
      },
      "buyHourlyBondSubscription(address,uint256)": {
        "details": "buy hourly bond subscription"
      },
      "makeFallbackBond(address,address,uint256)": {
        "details": "In a liquidity crunch make a fallback bond until liquidity is good again"
      },
      "payOff(address,uint256)": {
        "details": "gets called by router if loan is extinguished"
      },
      "registerBorrow(address,uint256)": {
        "details": "gets called by router to register if a trader borrows issuers"
      },
      "registerLend(address,uint256)": {
        "details": "gets called when external sources provide lending"
      },
      "registerWithdrawal(address,uint256)": {
        "details": "gets called when external sources pay withdraw their bobnd"
      },
      "updateHourlyYield(address)": {
        "details": "updates yield accumulators for both borrowing and lending issuer address represents a token"
      },
      "viewAccumulatedBorrowingYieldFP(address)": {
        "details": "get the borrow yield for a specific issuer/token"
      },
      "viewBorrowAPRPer10k(address)": {
        "details": "get current borrowing interest per 10k for a token / issuer"
      },
      "viewHourlyBondAPRPer10k(address)": {
        "details": "get current lending APR per 10k for a token / issuer"
      },
      "viewWithBorrowInterest(uint256,address,uint256)": {
        "details": "view function to get balance with borrowing interest applied"
      },
      "withdrawHourlyBond(address,uint256)": {
        "details": "withdraw an hour bond"
      }
    },
    "title": "Manage lending for a variety of bond issuers",
    "version": 1
  },
  "userdoc": {
    "kind": "user",
    "methods": {
      "activateIssuer(address)": {
        "notice": "Make a issuer available for protocol"
      },
      "activateIssuer(address,address)": {
        "notice": "Make issuer != token available for protocol (isol. margin)"
      },
      "activeIssuers(address)": {
        "notice": "map of available issuers"
      },
      "closeHourlyBondAccount(address)": {
        "notice": "Shut down hourly bond account for `issuer`"
      },
      "deactivateIssuer(address)": {
        "notice": "Remove a issuer from trading availability"
      },
      "haircuts(address)": {
        "notice": "In case of shortfall, adjust debt"
      },
      "issuerTokens(address)": {
        "notice": "mapping issuers to tokens (in crossmargin, the issuers are tokens  themselves)"
      },
      "setHourlyYieldAPR(address,uint256)": {
        "notice": "Set hourly yield APR for issuer"
      },
      "setLendingCap(address,uint256)": {
        "notice": "Set lending cap"
      },
      "setWithdrawalWindow(uint256)": {
        "notice": "Set withdrawal window"
      }
    },
    "version": 1
  },
  "storageLayout": {
    "storage": [
      {
        "astId": 9045,
        "contract": "contracts/Lending.sol:Lending",
        "label": "mainCharacterCache",
        "offset": 0,
        "slot": "0",
        "type": "t_mapping(t_uint256,t_address)"
      },
      {
        "astId": 9051,
        "contract": "contracts/Lending.sol:Lending",
        "label": "roleCache",
        "offset": 0,
        "slot": "1",
        "type": "t_mapping(t_address,t_mapping(t_uint256,t_bool))"
      },
      {
        "astId": 1567,
        "contract": "contracts/Lending.sol:Lending",
        "label": "normalRatePerPercent",
        "offset": 0,
        "slot": "2",
        "type": "t_uint256"
      },
      {
        "astId": 1585,
        "contract": "contracts/Lending.sol:Lending",
        "label": "highRatePerPercent",
        "offset": 0,
        "slot": "3",
        "type": "t_uint256"
      },
      {
        "astId": 1604,
        "contract": "contracts/Lending.sol:Lending",
        "label": "lendingMeta",
        "offset": 0,
        "slot": "4",
        "type": "t_mapping(t_address,t_struct(LendingMetadata)1599_storage)"
      },
      {
        "astId": 1610,
        "contract": "contracts/Lending.sol:Lending",
        "label": "borrowYieldAccumulators",
        "offset": 0,
        "slot": "5",
        "type": "t_mapping(t_address,t_struct(YieldAccumulator)1592_storage)"
      },
      {
        "astId": 5395,
        "contract": "contracts/Lending.sol:Lending",
        "label": "hourlyBondYieldAccumulators",
        "offset": 0,
        "slot": "6",
        "type": "t_mapping(t_address,t_struct(YieldAccumulator)1592_storage)"
      },
      {
        "astId": 5401,
        "contract": "contracts/Lending.sol:Lending",
        "label": "withdrawalWindow",
        "offset": 0,
        "slot": "7",
        "type": "t_uint256"
      },
      {
        "astId": 5411,
        "contract": "contracts/Lending.sol:Lending",
        "label": "hourlyBondAccounts",
        "offset": 0,
        "slot": "8",
        "type": "t_mapping(t_address,t_mapping(t_address,t_struct(HourlyBond)5387_storage))"
      },
      {
        "astId": 5414,
        "contract": "contracts/Lending.sol:Lending",
        "label": "borrowingFactorPercent",
        "offset": 0,
        "slot": "9",
        "type": "t_uint256"
      },
      {
        "astId": 6072,
        "contract": "contracts/Lending.sol:Lending",
        "label": "issuerTokens",
        "offset": 0,
        "slot": "10",
        "type": "t_mapping(t_address,t_address)"
      },
      {
        "astId": 6077,
        "contract": "contracts/Lending.sol:Lending",
        "label": "haircuts",
        "offset": 0,
        "slot": "11",
        "type": "t_mapping(t_address,t_uint256)"
      },
      {
        "astId": 6082,
        "contract": "contracts/Lending.sol:Lending",
        "label": "activeIssuers",
        "offset": 0,
        "slot": "12",
        "type": "t_mapping(t_address,t_bool)"
      }
    ],
    "types": {
      "t_address": {
        "encoding": "inplace",
        "label": "address",
        "numberOfBytes": "20"
      },
      "t_bool": {
        "encoding": "inplace",
        "label": "bool",
        "numberOfBytes": "1"
      },
      "t_mapping(t_address,t_address)": {
        "encoding": "mapping",
        "key": "t_address",
        "label": "mapping(address => address)",
        "numberOfBytes": "32",
        "value": "t_address"
      },
      "t_mapping(t_address,t_bool)": {
        "encoding": "mapping",
        "key": "t_address",
        "label": "mapping(address => bool)",
        "numberOfBytes": "32",
        "value": "t_bool"
      },
      "t_mapping(t_address,t_mapping(t_address,t_struct(HourlyBond)5387_storage))": {
        "encoding": "mapping",
        "key": "t_address",
        "label": "mapping(address => mapping(address => struct HourlyBond))",
        "numberOfBytes": "32",
        "value": "t_mapping(t_address,t_struct(HourlyBond)5387_storage)"
      },
      "t_mapping(t_address,t_mapping(t_uint256,t_bool))": {
        "encoding": "mapping",
        "key": "t_address",
        "label": "mapping(address => mapping(uint256 => bool))",
        "numberOfBytes": "32",
        "value": "t_mapping(t_uint256,t_bool)"
      },
      "t_mapping(t_address,t_struct(HourlyBond)5387_storage)": {
        "encoding": "mapping",
        "key": "t_address",
        "label": "mapping(address => struct HourlyBond)",
        "numberOfBytes": "32",
        "value": "t_struct(HourlyBond)5387_storage"
      },
      "t_mapping(t_address,t_struct(LendingMetadata)1599_storage)": {
        "encoding": "mapping",
        "key": "t_address",
        "label": "mapping(address => struct BaseLending.LendingMetadata)",
        "numberOfBytes": "32",
        "value": "t_struct(LendingMetadata)1599_storage"
      },
      "t_mapping(t_address,t_struct(YieldAccumulator)1592_storage)": {
        "encoding": "mapping",
        "key": "t_address",
        "label": "mapping(address => struct BaseLending.YieldAccumulator)",
        "numberOfBytes": "32",
        "value": "t_struct(YieldAccumulator)1592_storage"
      },
      "t_mapping(t_address,t_uint256)": {
        "encoding": "mapping",
        "key": "t_address",
        "label": "mapping(address => uint256)",
        "numberOfBytes": "32",
        "value": "t_uint256"
      },
      "t_mapping(t_uint256,t_address)": {
        "encoding": "mapping",
        "key": "t_uint256",
        "label": "mapping(uint256 => address)",
        "numberOfBytes": "32",
        "value": "t_address"
      },
      "t_mapping(t_uint256,t_bool)": {
        "encoding": "mapping",
        "key": "t_uint256",
        "label": "mapping(uint256 => bool)",
        "numberOfBytes": "32",
        "value": "t_bool"
      },
      "t_struct(HourlyBond)5387_storage": {
        "encoding": "inplace",
        "label": "struct HourlyBond",
        "members": [
          {
            "astId": 5382,
            "contract": "contracts/Lending.sol:Lending",
            "label": "amount",
            "offset": 0,
            "slot": "0",
            "type": "t_uint256"
          },
          {
            "astId": 5384,
            "contract": "contracts/Lending.sol:Lending",
            "label": "yieldQuotientFP",
            "offset": 0,
            "slot": "1",
            "type": "t_uint256"
          },
          {
            "astId": 5386,
            "contract": "contracts/Lending.sol:Lending",
            "label": "moduloHour",
            "offset": 0,
            "slot": "2",
            "type": "t_uint256"
          }
        ],
        "numberOfBytes": "96"
      },
      "t_struct(LendingMetadata)1599_storage": {
        "encoding": "inplace",
        "label": "struct BaseLending.LendingMetadata",
        "members": [
          {
            "astId": 1594,
            "contract": "contracts/Lending.sol:Lending",
            "label": "totalLending",
            "offset": 0,
            "slot": "0",
            "type": "t_uint256"
          },
          {
            "astId": 1596,
            "contract": "contracts/Lending.sol:Lending",
            "label": "totalBorrowed",
            "offset": 0,
            "slot": "1",
            "type": "t_uint256"
          },
          {
            "astId": 1598,
            "contract": "contracts/Lending.sol:Lending",
            "label": "lendingCap",
            "offset": 0,
            "slot": "2",
            "type": "t_uint256"
          }
        ],
        "numberOfBytes": "96"
      },
      "t_struct(YieldAccumulator)1592_storage": {
        "encoding": "inplace",
        "label": "struct BaseLending.YieldAccumulator",
        "members": [
          {
            "astId": 1587,
            "contract": "contracts/Lending.sol:Lending",
            "label": "accumulatorFP",
            "offset": 0,
            "slot": "0",
            "type": "t_uint256"
          },
          {
            "astId": 1589,
            "contract": "contracts/Lending.sol:Lending",
            "label": "lastUpdated",
            "offset": 0,
            "slot": "1",
            "type": "t_uint256"
          },
          {
            "astId": 1591,
            "contract": "contracts/Lending.sol:Lending",
            "label": "hourlyYieldFP",
            "offset": 0,
            "slot": "2",
            "type": "t_uint256"
          }
        ],
        "numberOfBytes": "96"
      },
      "t_uint256": {
        "encoding": "inplace",
        "label": "uint256",
        "numberOfBytes": "32"
      }
    }
  }
}