{
  "address": "0xb78a7d9b8FdbC7ea732519e5f3f175d17C7c00C1",
  "abi": [
    {
      "inputs": [
        {
          "internalType": "address",
          "name": "_MFI",
          "type": "address"
        },
        {
          "internalType": "address",
          "name": "_roles",
          "type": "address"
        }
      ],
      "stateMutability": "nonpayable",
      "type": "constructor"
    },
    {
      "inputs": [],
      "name": "MFI",
      "outputs": [
        {
          "internalType": "address",
          "name": "",
          "type": "address"
        }
      ],
      "stateMutability": "view",
      "type": "function"
    },
    {
      "inputs": [
        {
          "internalType": "address",
          "name": "issuer",
          "type": "address"
        }
      ],
      "name": "activateIssuer",
      "outputs": [],
      "stateMutability": "nonpayable",
      "type": "function"
    },
    {
      "inputs": [
        {
          "internalType": "address",
          "name": "issuer",
          "type": "address"
        },
        {
          "internalType": "address",
          "name": "token",
          "type": "address"
        }
      ],
      "name": "activateIssuer",
      "outputs": [],
      "stateMutability": "nonpayable",
      "type": "function"
    },
    {
      "inputs": [
        {
          "internalType": "address",
          "name": "",
          "type": "address"
        }
      ],
      "name": "activeIssuers",
      "outputs": [
        {
          "internalType": "bool",
          "name": "",
          "type": "bool"
        }
      ],
      "stateMutability": "view",
      "type": "function"
    },
    {
      "inputs": [
        {
          "internalType": "address",
          "name": "token",
          "type": "address"
        },
        {
          "internalType": "uint256",
          "name": "amount",
          "type": "uint256"
        },
        {
          "internalType": "uint256",
          "name": "endTimestamp",
          "type": "uint256"
        }
      ],
      "name": "addIncentive",
      "outputs": [],
      "stateMutability": "nonpayable",
      "type": "function"
    },
    {
      "inputs": [
        {
          "internalType": "uint256",
          "name": "balance",
          "type": "uint256"
        },
        {
          "internalType": "address",
          "name": "issuer",
          "type": "address"
        },
        {
          "internalType": "uint256",
          "name": "yieldQuotientFP",
          "type": "uint256"
        }
      ],
      "name": "applyBorrowInterest",
      "outputs": [
        {
          "internalType": "uint256",
          "name": "balanceWithInterest",
          "type": "uint256"
        },
        {
          "internalType": "uint256",
          "name": "accumulatorFP",
          "type": "uint256"
        }
      ],
      "stateMutability": "nonpayable",
      "type": "function"
    },
    {
      "inputs": [
        {
          "internalType": "address",
          "name": "",
          "type": "address"
        }
      ],
      "name": "borrowYieldAccumulators",
      "outputs": [
        {
          "internalType": "uint256",
          "name": "accumulatorFP",
          "type": "uint256"
        },
        {
          "internalType": "uint256",
          "name": "lastUpdated",
          "type": "uint256"
        },
        {
          "internalType": "uint256",
          "name": "hourlyYieldFP",
          "type": "uint256"
        }
      ],
      "stateMutability": "view",
      "type": "function"
    },
    {
      "inputs": [],
      "name": "borrowingFactorPercent",
      "outputs": [
        {
          "internalType": "uint256",
          "name": "",
          "type": "uint256"
        }
      ],
      "stateMutability": "view",
      "type": "function"
    },
    {
      "inputs": [
        {
          "internalType": "address",
          "name": "issuer",
          "type": "address"
        },
        {
          "internalType": "uint256",
          "name": "amount",
          "type": "uint256"
        }
      ],
      "name": "buyHourlyBondSubscription",
      "outputs": [],
      "stateMutability": "nonpayable",
      "type": "function"
    },
    {
      "inputs": [
        {
          "internalType": "address",
          "name": "issuer",
          "type": "address"
        }
      ],
      "name": "closeHourlyBondAccount",
      "outputs": [],
      "stateMutability": "nonpayable",
      "type": "function"
    },
    {
      "inputs": [
        {
          "internalType": "address",
          "name": "issuer",
          "type": "address"
        }
      ],
      "name": "deactivateIssuer",
      "outputs": [],
      "stateMutability": "nonpayable",
      "type": "function"
    },
    {
      "inputs": [
        {
          "internalType": "address",
          "name": "issuer",
          "type": "address"
        }
      ],
      "name": "getUpdatedBorrowYieldAccuFP",
      "outputs": [
        {
          "internalType": "uint256",
          "name": "",
          "type": "uint256"
        }
      ],
      "stateMutability": "nonpayable",
      "type": "function"
    },
    {
      "inputs": [
        {
          "internalType": "uint256",
          "name": "amount",
          "type": "uint256"
        }
      ],
      "name": "haircut",
      "outputs": [],
      "stateMutability": "nonpayable",
      "type": "function"
    },
    {
      "inputs": [
        {
          "internalType": "address",
          "name": "",
          "type": "address"
        }
      ],
      "name": "haircuts",
      "outputs": [
        {
          "internalType": "uint256",
          "name": "",
          "type": "uint256"
        }
      ],
      "stateMutability": "view",
      "type": "function"
    },
    {
      "inputs": [],
      "name": "highRatePerPercent",
      "outputs": [
        {
          "internalType": "uint256",
          "name": "",
          "type": "uint256"
        }
      ],
      "stateMutability": "view",
      "type": "function"
    },
    {
      "inputs": [
        {
          "internalType": "address",
          "name": "",
          "type": "address"
        },
        {
          "internalType": "address",
          "name": "",
          "type": "address"
        }
      ],
      "name": "hourlyBondAccounts",
      "outputs": [
        {
          "internalType": "uint256",
          "name": "amount",
          "type": "uint256"
        },
        {
          "internalType": "uint256",
          "name": "yieldQuotientFP",
          "type": "uint256"
        },
        {
          "internalType": "uint256",
          "name": "moduloHour",
          "type": "uint256"
        },
        {
          "internalType": "uint256",
          "name": "incentiveAllocationStart",
          "type": "uint256"
        }
      ],
      "stateMutability": "view",
      "type": "function"
    },
    {
      "inputs": [
        {
          "internalType": "address",
          "name": "issuer",
          "type": "address"
        }
      ],
      "name": "initBorrowYieldAccumulator",
      "outputs": [],
      "stateMutability": "nonpayable",
      "type": "function"
    },
    {
      "inputs": [
        {
          "internalType": "address",
          "name": "",
          "type": "address"
        }
      ],
      "name": "issuerTokens",
      "outputs": [
        {
          "internalType": "address",
          "name": "",
          "type": "address"
        }
      ],
      "stateMutability": "view",
      "type": "function"
    },
    {
      "inputs": [
        {
          "internalType": "address",
          "name": "",
          "type": "address"
        }
      ],
      "name": "lendingMeta",
      "outputs": [
        {
          "internalType": "uint256",
          "name": "totalLending",
          "type": "uint256"
        },
        {
          "internalType": "uint256",
          "name": "totalBorrowed",
          "type": "uint256"
        },
        {
          "internalType": "uint256",
          "name": "lendingCap",
          "type": "uint256"
        },
        {
          "internalType": "uint256",
          "name": "cumulIncentiveAllocationFP",
          "type": "uint256"
        },
        {
          "internalType": "uint256",
          "name": "incentiveLastUpdated",
          "type": "uint256"
        },
        {
          "internalType": "uint256",
          "name": "incentiveEnd",
          "type": "uint256"
        },
        {
          "internalType": "uint256",
          "name": "incentiveTarget",
          "type": "uint256"
        }
      ],
      "stateMutability": "view",
      "type": "function"
    },
    {
      "inputs": [
        {
          "internalType": "uint256",
          "name": "",
          "type": "uint256"
        }
      ],
      "name": "mainCharacterCache",
      "outputs": [
        {
          "internalType": "address",
          "name": "",
          "type": "address"
        }
      ],
      "stateMutability": "view",
      "type": "function"
    },
    {
      "inputs": [
        {
          "internalType": "address",
          "name": "issuer",
          "type": "address"
        },
        {
          "internalType": "address",
          "name": "holder",
          "type": "address"
        },
        {
          "internalType": "uint256",
          "name": "amount",
          "type": "uint256"
        }
      ],
      "name": "makeFallbackBond",
      "outputs": [],
      "stateMutability": "nonpayable",
      "type": "function"
    },
    {
      "inputs": [],
      "name": "normalRatePerPercent",
      "outputs": [
        {
          "internalType": "uint256",
          "name": "",
          "type": "uint256"
        }
      ],
      "stateMutability": "view",
      "type": "function"
    },
    {
      "inputs": [
        {
          "internalType": "address",
          "name": "issuer",
          "type": "address"
        },
        {
          "internalType": "uint256",
          "name": "amount",
          "type": "uint256"
        }
      ],
      "name": "payOff",
      "outputs": [],
      "stateMutability": "nonpayable",
      "type": "function"
    },
    {
      "inputs": [
        {
          "internalType": "address",
          "name": "issuer",
          "type": "address"
        },
        {
          "internalType": "uint256",
          "name": "amount",
          "type": "uint256"
        }
      ],
      "name": "registerBorrow",
      "outputs": [],
      "stateMutability": "nonpayable",
      "type": "function"
    },
    {
      "inputs": [
        {
          "internalType": "address",
          "name": "issuer",
          "type": "address"
        },
        {
          "internalType": "uint256",
          "name": "amount",
          "type": "uint256"
        }
      ],
      "name": "registerLend",
      "outputs": [],
      "stateMutability": "nonpayable",
      "type": "function"
    },
    {
      "inputs": [
        {
          "internalType": "address",
          "name": "issuer",
          "type": "address"
        },
        {
          "internalType": "uint256",
          "name": "amount",
          "type": "uint256"
        }
      ],
      "name": "registerWithdrawal",
      "outputs": [],
      "stateMutability": "nonpayable",
      "type": "function"
    },
    {
      "inputs": [
        {
          "internalType": "address",
          "name": "",
          "type": "address"
        },
        {
          "internalType": "uint256",
          "name": "",
          "type": "uint256"
        }
      ],
      "name": "roleCache",
      "outputs": [
        {
          "internalType": "bool",
          "name": "",
          "type": "bool"
        }
      ],
      "stateMutability": "view",
      "type": "function"
    },
    {
      "inputs": [],
      "name": "roles",
      "outputs": [
        {
          "internalType": "contract Roles",
          "name": "",
          "type": "address"
        }
      ],
      "stateMutability": "view",
      "type": "function"
    },
    {
      "inputs": [
        {
          "internalType": "uint256",
          "name": "borrowingFactor",
          "type": "uint256"
        }
      ],
      "name": "setBorrowingFactorPercent",
      "outputs": [],
      "stateMutability": "nonpayable",
      "type": "function"
    },
    {
      "inputs": [
        {
          "internalType": "uint256",
          "name": "rate",
          "type": "uint256"
        }
      ],
      "name": "setHighRatePerPercent",
      "outputs": [],
      "stateMutability": "nonpayable",
      "type": "function"
    },
    {
      "inputs": [
        {
          "internalType": "address",
          "name": "issuer",
          "type": "address"
        },
        {
          "internalType": "uint256",
          "name": "aprPercent",
          "type": "uint256"
        }
      ],
      "name": "setHourlyYieldAPR",
      "outputs": [],
      "stateMutability": "nonpayable",
      "type": "function"
    },
    {
      "inputs": [
        {
          "internalType": "address",
          "name": "issuer",
          "type": "address"
        },
        {
          "internalType": "uint256",
          "name": "cap",
          "type": "uint256"
        }
      ],
      "name": "setLendingCap",
      "outputs": [],
      "stateMutability": "nonpayable",
      "type": "function"
    },
    {
      "inputs": [
        {
          "internalType": "uint256",
          "name": "rate",
          "type": "uint256"
        }
      ],
      "name": "setNormalRatePerPercent",
      "outputs": [],
      "stateMutability": "nonpayable",
      "type": "function"
    },
    {
      "inputs": [
        {
          "internalType": "uint256",
          "name": "window",
          "type": "uint256"
        }
      ],
      "name": "setWithdrawalWindow",
      "outputs": [],
      "stateMutability": "nonpayable",
      "type": "function"
    },
    {
      "inputs": [
        {
          "internalType": "address",
          "name": "issuer",
          "type": "address"
        }
      ],
      "name": "updateHourlyYield",
      "outputs": [
        {
          "internalType": "uint256",
          "name": "hourlyYield",
          "type": "uint256"
        }
      ],
      "stateMutability": "nonpayable",
      "type": "function"
    },
    {
      "inputs": [
        {
          "internalType": "uint256",
          "name": "role",
          "type": "uint256"
        }
      ],
      "name": "updateMainCharacterCache",
      "outputs": [],
      "stateMutability": "nonpayable",
      "type": "function"
    },
    {
      "inputs": [
        {
          "internalType": "uint256",
          "name": "role",
          "type": "uint256"
        },
        {
          "internalType": "address",
          "name": "contr",
          "type": "address"
        }
      ],
      "name": "updateRoleCache",
      "outputs": [],
      "stateMutability": "nonpayable",
      "type": "function"
    },
    {
      "inputs": [
        {
          "internalType": "address",
          "name": "issuer",
          "type": "address"
        }
      ],
      "name": "viewAccumulatedBorrowingYieldFP",
      "outputs": [
        {
          "internalType": "uint256",
          "name": "",
          "type": "uint256"
        }
      ],
      "stateMutability": "view",
      "type": "function"
    },
    {
      "inputs": [
        {
          "internalType": "address",
          "name": "issuer",
          "type": "address"
        }
      ],
      "name": "viewBorrowAPRPer10k",
      "outputs": [
        {
          "internalType": "uint256",
          "name": "",
          "type": "uint256"
        }
      ],
      "stateMutability": "view",
      "type": "function"
    },
    {
      "inputs": [
        {
          "internalType": "address",
          "name": "issuer",
          "type": "address"
        }
      ],
      "name": "viewHourlyBondAPRPer10k",
      "outputs": [
        {
          "internalType": "uint256",
          "name": "",
          "type": "uint256"
        }
      ],
      "stateMutability": "view",
      "type": "function"
    },
    {
      "inputs": [
        {
          "internalType": "address",
          "name": "issuer",
          "type": "address"
        },
        {
          "internalType": "address",
          "name": "holder",
          "type": "address"
        }
      ],
      "name": "viewHourlyBondAmount",
      "outputs": [
        {
          "internalType": "uint256",
          "name": "",
          "type": "uint256"
        }
      ],
      "stateMutability": "view",
      "type": "function"
    },
    {
      "inputs": [
        {
          "internalType": "uint256",
          "name": "balance",
          "type": "uint256"
        },
        {
          "internalType": "address",
          "name": "issuer",
          "type": "address"
        },
        {
          "internalType": "uint256",
          "name": "yieldQuotientFP",
          "type": "uint256"
        }
      ],
      "name": "viewWithBorrowInterest",
      "outputs": [
        {
          "internalType": "uint256",
          "name": "",
          "type": "uint256"
        }
      ],
      "stateMutability": "view",
      "type": "function"
    },
    {
      "inputs": [
        {
          "internalType": "address",
          "name": "token",
          "type": "address"
        }
      ],
      "name": "viewYearlyIncentivePer10k",
      "outputs": [
        {
          "internalType": "uint256",
          "name": "",
          "type": "uint256"
        }
      ],
      "stateMutability": "view",
      "type": "function"
    },
    {
      "inputs": [
        {
          "internalType": "address",
          "name": "issuer",
          "type": "address"
        },
        {
          "internalType": "uint256",
          "name": "amount",
          "type": "uint256"
        }
      ],
      "name": "withdrawHourlyBond",
      "outputs": [],
      "stateMutability": "nonpayable",
      "type": "function"
    },
    {
      "inputs": [
        {
          "internalType": "address",
          "name": "token",
          "type": "address"
        }
      ],
      "name": "withdrawIncentive",
      "outputs": [],
      "stateMutability": "nonpayable",
      "type": "function"
    },
    {
      "inputs": [],
      "name": "withdrawalWindow",
      "outputs": [
        {
          "internalType": "uint256",
          "name": "",
          "type": "uint256"
        }
      ],
      "stateMutability": "view",
      "type": "function"
    }
  ],
  "transactionHash": "0x53e7ee2054d3e0f7b23691d5184cde18cb7c67a0a96f54e2096fd6bc8c517348",
  "args": [
    "0x23292e9BA8434e59E6BAC1907bA7425211c4DE27",
    "0xb8a63dBb2C5B775067444EaEF60722806524F7FD"
  ],
  "solcInputHash": "bb468b0809fec263caef1dc4fdd1da46",
  "bytecode": "0x60c0604052606460526122386200001f6601000000000000600c620001cd565b6200002b9190620001ac565b620000379190620001ac565b620000439190620001ac565b600255606462000055605282620001ef565b6122386200006c6601000000000000607b620001cd565b620000789190620001ac565b620000849190620001ac565b620000909190620001ac565b6003556104b060075560c8600955348015620000ab57600080fd5b5060405162002e9238038062002e92833981016040819052620000ce9162000175565b806001600160a01b038116620001355760405162461bcd60e51b815260206004820152602260248201527f506c656173652070726f766964652076616c696420726f6c6573206164647265604482015261737360f01b606482015260840160405180910390fd5b6001600160601b0319606091821b811660805292901b90911660a052506200021f565b80516001600160a01b03811681146200017057600080fd5b919050565b6000806040838503121562000188578182fd5b620001938362000158565b9150620001a36020840162000158565b90509250929050565b600082620001c857634e487b7160e01b81526012600452602481fd5b500490565b6000816000190483118215151615620001ea57620001ea62000209565b500290565b60008282101562000204576200020462000209565b500390565b634e487b7160e01b600052601160045260246000fd5b60805160601c60a05160601c612c246200026e6000396000818161079f01526126100152600081816103e50152818161084f01528181610bbe01528181612173015261220b0152612c246000f3fe608060405234801561001057600080fd5b506004361061030a5760003560e01c806391b46e051161019c578063db41039f116100ee578063ed29c12b11610097578063f848767311610071578063f8487673146107e7578063f884614b146107fa578063f90889c91461080d5761030a565b8063ed29c12b1461079a578063ee0862bf146107c1578063f51dfe7a146107d45761030a565b8063e69e2662116100c8578063e69e266214610755578063e9c3f77d1461075e578063ebe64bcc146107875761030a565b8063db41039f14610707578063dc683bcf1461071a578063e695fa681461072d5761030a565b8063cc4b26a311610150578063d19bd0a71161012a578063d19bd0a7146106d8578063d2b48934146106e1578063d4437dd8146106f45761030a565b8063cc4b26a314610668578063cd3b5dfb1461067b578063cfc14f53146106c55761030a565b8063ae4479dd11610181578063ae4479dd1461062f578063b42f60db14610642578063bfdeb719146106555761030a565b806391b46e051461059c578063ad037af6146105af5761030a565b806349d0e2ee1161026057806376668b67116102095780637a009135116101e35780637a009135146104fb5780637a1a04df1461050e57806383a042291461053c5761030a565b806376668b67146104ac57806376c308f2146104bf578063797384b2146104c85761030a565b80636d8d36ba1161023a5780636d8d36ba146104735780636e60e2491461048657806372d01257146104995761030a565b806349d0e2ee1461042d5780634b86daab1461044057806364f85ab1146104535761030a565b806328108026116102c2578063392f5f641161029c578063392f5f64146103e0578063447d52ba1461040757806346c87f801461041a5761030a565b806328108026146103795780632a6a897b146103ba57806336953912146103cd5761030a565b806314189db2116102f357806314189db21461033757806316de7a431461035d578063267031b8146103705761030a565b8063071060a61461030f5780630f7c43dc14610324575b600080fd5b61032261031d366004612a4c565b610820565b005b6103226103323660046129cd565b610917565b61034a610345366004612916565b6109a5565b6040519081526020015b60405180910390f35b61032261036b3660046129cd565b6109d0565b61034a60095481565b6103a2610387366004612916565b600a602052600090815260409020546001600160a01b031681565b6040516001600160a01b039091168152602001610354565b6103226103c83660046129cd565b610a62565b6103226103db366004612a4c565b610b01565b6103a27f000000000000000000000000000000000000000000000000000000000000000081565b610322610415366004612a64565b610b7f565b61034a610428366004612916565b610c70565b61032261043b366004612a4c565b610c98565b61032261044e366004612916565b610d16565b61034a610461366004612916565b600b6020526000908152604090205481565b6103226104813660046129cd565b610d23565b61034a610494366004612955565b610e44565b61034a6104a7366004612916565b610ebe565b61034a6104ba366004612a88565b610edf565b61034a60025481565b6104eb6104d6366004612916565b600c6020526000908152604090205460ff1681565b6040519015158152602001610354565b610322610509366004612916565b610f19565b6104eb61051c3660046129cd565b600160209081526000928352604080842090915290825290205460ff1681565b61057c61054a366004612955565b600860209081526000928352604080842090915290825290208054600182015460028301546003909301549192909184565b604080519485526020850193909352918301526060820152608001610354565b6103226105aa366004612a4c565b610fff565b6105fa6105bd366004612916565b6004602081905260009182526040909120805460018201546002830154600384015494840154600585015460069095015493959294919390919087565b604080519788526020880196909652948601939093526060850191909152608084015260a083015260c082015260e001610354565b61032261063d3660046129cd565b61107d565b6103226106503660046129f8565b611172565b61034a610663366004612916565b611269565b610322610676366004612916565b611301565b6106aa610689366004612916565b60056020526000908152604090208054600182015460029092015490919083565b60408051938452602084019290925290820152606001610354565b6103226106d3366004612916565b611480565b61034a60075481565b6103226106ef3660046129cd565b6114d0565b610322610702366004612a4c565b6115b4565b61032261071536600461298d565b6115db565b61034a610728366004612916565b611651565b61074061073b366004612a88565b611681565b60408051928352602083019190915201610354565b61034a60035481565b6103a261076c366004612a4c565b6000602081905290815260409020546001600160a01b031681565b610322610795366004612955565b61176f565b6103a27f000000000000000000000000000000000000000000000000000000000000000081565b6103226107cf3660046129cd565b611891565b61034a6107e2366004612916565b611a12565b6103226107f5366004612a4c565b611a33565b610322610808366004612916565b611ab1565b61032261081b3660046129cd565b611b3a565b6040517fb4ed0b6d000000000000000000000000000000000000000000000000000000008152600481018290527f00000000000000000000000000000000000000000000000000000000000000006001600160a01b03169063b4ed0b6d9060240160206040518083038186803b15801561089957600080fd5b505afa1580156108ad573d6000803e3d6000fd5b505050506040513d601f19601f820116820180604052508101906108d19190612939565b60009182526020829052604090912080547fffffffffffffffffffffffff0000000000000000000000000000000000000000166001600160a01b03909216919091179055565b6001600160a01b03821660009081526008602090815260408083203380855292529091209061094b90849083908590611cfe565b805461098a576001600160a01b038316600090815260086020908152604080832033845290915281208181556001810182905560028101829055600301555b610995833384611de4565b6109a0833384611f6d565b505050565b6001600160a01b03811660009081526005602052604081206109c78142611fb9565b9150505b919050565b6001600160a01b0382166000908152600c602052604090205460ff16610a3d5760405162461bcd60e51b815260206004820152601360248201527f4e6f7420617070726f766564206973737565720000000000000000000000000060448201526064015b60405180910390fd5b610a48823383611ffa565b610a538233836120b9565b610a5e82338361212c565b5050565b3360009081526001602090815260408083206003845290915290205460ff16610acd5760405162461bcd60e51b815260206004820152601560248201527f4e6f7420617070726f76656420626f72726f77657200000000000000000000006044820152606401610a34565b6001600160a01b03821660009081526004602052604081206001018054839290610af8908490612b17565b90915550505050565b33610b0a61216f565b6001600160a01b03161480610b2e575033610b23612207565b6001600160a01b0316145b610b7a5760405162461bcd60e51b815260206004820152601e60248201527f526f6c65733a2063616c6c6572206973206e6f7420746865206f776e657200006044820152606401610a34565b600755565b6040517f93552a3d000000000000000000000000000000000000000000000000000000008152600481018390526001600160a01b0382811660248301527f000000000000000000000000000000000000000000000000000000000000000016906393552a3d9060440160206040518083038186803b158015610c0057600080fd5b505afa158015610c14573d6000803e3d6000fd5b505050506040513d601f19601f82011682018060405250810190610c389190612a2c565b6001600160a01b0391909116600090815260016020908152604080832094835293905291909120805460ff1916911515919091179055565b6001600160a01b0381166000908152600560205260408120610c9181612278565b5492915050565b33610ca161216f565b6001600160a01b03161480610cc5575033610cba612207565b6001600160a01b0316145b610d115760405162461bcd60e51b815260206004820152601e60248201527f526f6c65733a2063616c6c6572206973206e6f7420746865206f776e657200006044820152606401610a34565b600355565b610d20818261176f565b50565b336000908152600160209081526040808320600b845290915290205460ff16610d8e5760405162461bcd60e51b815260206004820152601660248201527f4e6f7420616e20617070726f766564206c656e646572000000000000000000006044820152606401610a34565b6001600160a01b0382166000908152600c602052604090205460ff16610df65760405162461bcd60e51b815260206004820152601360248201527f4e6f7420617070726f76656420697373756572000000000000000000000000006044820152606401610a34565b6001600160a01b0382166000908152600460205260409020610e1881836122ac565b6001600160a01b0383166000908152600660205260409020610e3e9084906102586122c9565b50505050565b6001600160a01b038083166000818152600860209081526040808320948616835293815283822060018101549383526006909152928120909291908390610e8b9042611fb9565b90508115610eaa578254610ea09082846123e2565b9350505050610eb8565b5050549050610eb8565b5050505b92915050565b6001600160a01b0381166000908152600660205260408120610eb890612401565b6001600160a01b03821660009081526005602052604081208190610f039042611fb9565b9050610f108582856123e2565b95945050505050565b33610f2261216f565b6001600160a01b03161480610f46575033610f3b612207565b6001600160a01b0316145b80610f6c57503360009081526001602090815260408083206009845290915290205460ff165b610fde5760405162461bcd60e51b815260206004820152603960248201527f43616c6c6572206973206e6f7420746865206f776e65722c206578656375746f60448201527f72206f7220617574686f72697a656420616374697661746f72000000000000006064820152608401610a34565b6001600160a01b03166000908152600c60205260409020805460ff19169055565b3361100861216f565b6001600160a01b0316148061102c575033611021612207565b6001600160a01b0316145b6110785760405162461bcd60e51b815260206004820152601e60248201527f526f6c65733a2063616c6c6572206973206e6f7420746865206f776e657200006044820152606401610a34565b600955565b336000908152600160209081526040808320600b845290915290205460ff166110e85760405162461bcd60e51b815260206004820152601660248201527f4e6f7420616e20617070726f766564206c656e646572000000000000000000006044820152606401610a34565b6001600160a01b0382166000908152600c602052604090205460ff166111505760405162461bcd60e51b815260206004820152601360248201527f4e6f7420617070726f76656420697373756572000000000000000000000000006044820152606401610a34565b6001600160a01b0382166000908152600460205260409020610e188183612461565b3361117b61216f565b6001600160a01b0316148061119f575033611194612207565b6001600160a01b0316145b806111c557503360009081526001602090815260408083206009845290915290205460ff165b6112375760405162461bcd60e51b815260206004820152603960248201527f43616c6c6572206973206e6f7420746865206f776e65722c206578656375746f60448201527f72206f7220617574686f72697a656420616374697661746f72000000000000006064820152608401610a34565b6001600160a01b0390921660009081526004602081905260409091206005810193909355600683019190915542910155565b6001600160a01b0381166000908152600460205260408120600581015442118061129a575080600501548160040154115b156112a95760009150506109cb565b6000816004015482600501546112bf9190612b17565b82549091506112cf908290612ada565b6112da906001612aae565b60068301546112ee9064496cebb800612ada565b6112f89190612ac6565b925050506109cb565b3361130a61216f565b6001600160a01b0316148061132e575033611323612207565b6001600160a01b0316145b8061135457503360009081526001602090815260408083206009845290915290205460ff165b6113c65760405162461bcd60e51b815260206004820152603960248201527f43616c6c6572206973206e6f7420746865206f776e65722c206578656375746f60448201527f72206f7220617574686f72697a656420616374697661746f72000000000000006064820152608401610a34565b6001600160a01b038116600090815260056020526040902080541561142d5760405162461bcd60e51b815260206004820152601360248201527f646f6e27742072652d696e697469616c697a65000000000000000000000000006044820152606401610a34565b6601000000000000808255426001830155612238906103e89061145290601990612ada565b61145c9190612ac6565b6114669190612ac6565b611477906601000000000000612aae565b60029091015550565b6001600160a01b03811660009081526004602052604090206114a18161247e565b6001600160a01b0382166000908152600860209081526040808320338085529252909120610a5e918390612563565b336114d961216f565b6001600160a01b031614806114fd5750336114f2612207565b6001600160a01b0316145b8061152357503360009081526001602090815260408083206009845290915290205460ff165b6115955760405162461bcd60e51b815260206004820152603960248201527f43616c6c6572206973206e6f7420746865206f776e65722c206578656375746f60448201527f72206f7220617574686f72697a656420616374697661746f72000000000000006064820152608401610a34565b6001600160a01b03909116600090815260046020526040902060020155565b336000908152600b6020526040812080548392906115d3908490612aae565b909155505050565b336000908152600160209081526040808320600b845290915290205460ff166116465760405162461bcd60e51b815260206004820152601660248201527f4e6f7420616e20617070726f766564206c656e646572000000000000000000006044820152606401610a34565b6109a08383836120b9565b6001600160a01b03811660009081526006602052604081206116779083906102586122c9565b6002015492915050565b33600090815260016020908152604080832060038452909152812054819060ff166116ee5760405162461bcd60e51b815260206004820152601160248201527f4e6f7420617070726f7665642063616c6c0000000000000000000000000000006044820152606401610a34565b6001600160a01b038416600090815260056020526040902061170f81612278565b8054915061171e8683866123e2565b9250600061172c8785612b17565b6001600160a01b0387166000908152600460205260408120600181018054939450909284929061175d908490612aae565b92505081905550505050935093915050565b3361177861216f565b6001600160a01b0316148061179c575033611791612207565b6001600160a01b0316145b806117c257503360009081526001602090815260408083206009845290915290205460ff165b6118345760405162461bcd60e51b815260206004820152603960248201527f43616c6c6572206973206e6f7420746865206f776e65722c206578656375746f60448201527f72206f7220617574686f72697a656420616374697661746f72000000000000006064820152608401610a34565b6001600160a01b039182166000908152600c60209081526040808320805460ff19166001179055600a90915290208054919092167fffffffffffffffffffffffff0000000000000000000000000000000000000000909116179055565b3360009081526001602090815260408083206003845290915290205460ff166118fc5760405162461bcd60e51b815260206004820152601560248201527f4e6f7420617070726f76656420626f72726f77657200000000000000000000006044820152606401610a34565b6001600160a01b0382166000908152600c602052604090205460ff166119645760405162461bcd60e51b815260206004820152601360248201527f4e6f7420617070726f76656420697373756572000000000000000000000000006044820152606401610a34565b6001600160a01b038216600090815260046020526040812060018101805491928492611991908490612aae565b90915550506001600160a01b03831660009081526006602052604090206119bc908490610e106122c9565b506001810154815410156109a05760405162461bcd60e51b815260206004820152601460248201527f496e73756666696369656e74206c656e64696e670000000000000000000000006044820152606401610a34565b6001600160a01b0381166000908152600560205260408120610eb890612401565b33611a3c61216f565b6001600160a01b03161480611a60575033611a55612207565b6001600160a01b0316145b611aac5760405162461bcd60e51b815260206004820152601e60248201527f526f6c65733a2063616c6c6572206973206e6f7420746865206f776e657200006044820152606401610a34565b600255565b6001600160a01b038116600090815260086020908152604080832033808552925290912080549091611ae890849084908490611cfe565b611af3833383611de4565b6001600160a01b038316600090815260086020908152604080832033808552925282208281556001810183905560028101839055600301919091556109a090849083611f6d565b33611b4361216f565b6001600160a01b03161480611b67575033611b5c612207565b6001600160a01b0316145b80611b8d57503360009081526001602090815260408083206009845290915290205460ff165b611bff5760405162461bcd60e51b815260206004820152603960248201527f43616c6c6572206973206e6f7420746865206f776e65722c206578656375746f60448201527f72206f7220617574686f72697a656420616374697661746f72000000000000006064820152608401610a34565b6001600160a01b03821660009081526006602052604090208054611cae5760006122386064611c35856601000000000000612ada565b611c3f9190612ac6565b611c499190612ac6565b611c5a906601000000000000612aae565b60408051606081018252660100000000000081524260208083019182528284019485526001600160a01b038916600090815260069091529290922090518155905160018201559051600290910155506109a0565b6000611cbd84836102586122c9565b90506122386064611cce8582612aae565b611cdf906601000000000000612ada565b611ce99190612ac6565b611cf39190612ac6565b600290910155505050565b6001600160a01b0384166000908152600460205260409020611d2090836122ac565b611d2b848483612699565b6000610e10846002015442611d409190612b17565b611d4a9190612b67565b9050806007541015611dc45760405162461bcd60e51b815260206004820152603f60248201527f5472696564207769746864726177696e67206f7574736964652073756273637260448201527f697074696f6e2063616e63656c6c6174696f6e2074696d652077696e646f77006064820152608401610a34565b82846000016000828254611dd89190612b17565b90915550505050505050565b6001600160a01b0383166000908152600b60205260409020548015801590611e0c5750600082115b15611e8b576001600160a01b0384166000908152600460205260408120549081611e36818561273f565b611e409086612ada565b611e4a9190612ac6565b9050611e568185612b17565b6001600160a01b0387166000908152600b6020526040812080549296508392909190611e83908490612b17565b909155505050505b6001600160a01b038085166000908152600a602052604090205416611ee1606560009081526020527f4a7203f705e51df4a56139a9b86b4a0970bed7ab7a3446eaffe2289989c1645c546001600160a01b031690565b6040517fd9caed120000000000000000000000000000000000000000000000000000000081526001600160a01b038381166004830152868116602483015260448201869052919091169063d9caed1290606401600060405180830381600087803b158015611f4e57600080fd5b505af1158015611f62573d6000803e3d6000fd5b505050505050505050565b604080516001600160a01b038581168252602082018490528416917f3397b60e3ca1e9c0c75a033d62ab8731e9b2937c0690ae5d7f1bd37886b19d7d91015b60405180910390a2505050565b600080836001015483611fcc9190612b17565b9050610258811115611fea57611fe28482612757565b915050610eb8565b50508154610eb8565b5092915050565b7f4a7203f705e51df4a56139a9b86b4a0970bed7ab7a3446eaffe2289989c1645c546001600160a01b038481166000908152600a60205260408082205481517fb3db428b00000000000000000000000000000000000000000000000000000000815287851660048201529084166024820152604481018690529051929093169263b3db428b926064808301939282900301818387803b15801561209c57600080fd5b505af11580156120b0573d6000803e3d6000fd5b50505050505050565b6001600160a01b038084166000818152600860209081526040808320948716835293815283822092825260049052919091206120f58184612461565b612100858386612699565b815461211857612112610e1042612b67565b60028301555b82826000016000828254611dd89190612aae565b604080516001600160a01b038581168252602082018490528416917f8ec70c9430377a4bba035133e27a5b0f3b9951bc080833f6832bcbbb70a96dba9101611fac565b60007f00000000000000000000000000000000000000000000000000000000000000006001600160a01b0316638da5cb5b6040518163ffffffff1660e01b815260040160206040518083038186803b1580156121ca57600080fd5b505afa1580156121de573d6000803e3d6000fd5b505050506040513d601f19601f820116820180604052508101906122029190612939565b905090565b60007f00000000000000000000000000000000000000000000000000000000000000006001600160a01b031663c34c08e56040518163ffffffff1660e01b8152600401602060405180830381600087803b15801561226457600080fd5b505af11580156121de573d6000803e3d6000fd5b600081600101544261228a9190612b17565b9050610258811115610a5e576122a08282612757565b82554260018301555050565b6122b58261247e565b80826000016000828254610af89190612b17565b6001820154600090816122dc8242612b17565b9050838111156123d8576001600160a01b03861660009081526005602052604090206123088683612757565b86556001600160a01b038716600090815260046020526040902080546001820154612333919061286f565b600288015542600188015561234782612278565b6123cd6122386103e861236266010000000000006019612ada565b61236c9190612ac6565b6123769190612ac6565b612387906601000000000000612aae565b606466010000000000008a600201546123a09190612b17565b6009546123ad9190612ada565b6123b79190612ac6565b6123c8906601000000000000612aae565b6128fe565b826002018190555050505b5092949350505050565b6000816123ef8486612ada565b6123f99190612ac6565b949350505050565b600281015460009081610e106124206601000000000000612710612ada565b61242c84612710612ada565b6124369190612b17565b612444906301e13380612ada565b61244e9190612ac6565b90506123f9660100000000000082612ac6565b61246a8261247e565b80826000016000828254610af89190612aae565b600061248e82600501544261273f565b9050600082600601541180156124a75750816004015481115b15610a5e5760008260040154826124be9190612b17565b905060006124fc8460060154856004015486600501546124de9190612b17565b60068701546124ed9086612ada565b6124f79190612ac6565b61273f565b9050808460060160008282546125129190612b17565b90915550508354612524906001612aae565b612535660100000000000083612ada565b61253f9190612ac6565b8460030160008282546125529190612aae565b909155505042600485015550505050565b6000836003015483600301546125799190612b17565b90508015610e3e5783546000906601000000000000906125999084612ada565b6125a39190612ac6565b90506125e0606560009081526020527f4a7203f705e51df4a56139a9b86b4a0970bed7ab7a3446eaffe2289989c1645c546001600160a01b031690565b6040517fd9caed120000000000000000000000000000000000000000000000000000000081526001600160a01b037f000000000000000000000000000000000000000000000000000000000000000081166004830152858116602483015260448201849052919091169063d9caed1290606401600060405180830381600087803b15801561266d57600080fd5b505af1158015612681573d6000803e3d6000fd5b5050505081856003016000828254611dd89190612aae565b60018201546001600160a01b03841660009081526006602052604081206126c49086906102586122c9565b6001600160a01b03861660009081526004602052604090209091508215612724576126f0858286612563565b84548254612700908290866123e2565b808755600090612711908390612b17565b905061271d8382612461565b505061272f565b600380820154908601555b5054600190930192909255505050565b600081831115612750575080610eb8565b5081610eb8565b600080612766610e1084612b67565b905061277b6601000000000000610e10612ada565b81660100000000000086600201546127939190612b17565b865461279f9190612ada565b6127a99190612ada565b6127b39190612ac6565b84546127bf9190612aae565b915060006127cf610e1085612ac6565b90508015612867578260005b80831180156127ea5750806004115b156128255766010000000000008760020154866128079190612ada565b6128119190612ac6565b94508061281d81612b2e565b9150506127db565b506004821115610eb457600461283b8184612b17565b6128458387612b17565b61284f9190612ada565b6128599190612ac6565b6128639085612aae565b9350505b505092915050565b660100000000000060008361288557600061289b565b83612891846064612ada565b61289b9190612ac6565b905060528110156128c4576002546128b39082612ada565b6128bd9083612aae565b9150611ff3565b6003546128d2605283612b17565b6128dc9190612ada565b6002546128ea906052612ada565b6128f49190612aae565b6123f99083612aae565b60008183111561290f575081610eb8565b5080610eb8565b600060208284031215612927578081fd5b813561293281612bd9565b9392505050565b60006020828403121561294a578081fd5b815161293281612bd9565b60008060408385031215612967578081fd5b823561297281612bd9565b9150602083013561298281612bd9565b809150509250929050565b6000806000606084860312156129a1578081fd5b83356129ac81612bd9565b925060208401356129bc81612bd9565b929592945050506040919091013590565b600080604083850312156129df578182fd5b82356129ea81612bd9565b946020939093013593505050565b600080600060608486031215612a0c578283fd5b8335612a1781612bd9565b95602085013595506040909401359392505050565b600060208284031215612a3d578081fd5b81518015158114612932578182fd5b600060208284031215612a5d578081fd5b5035919050565b60008060408385031215612a76578182fd5b82359150602083013561298281612bd9565b600080600060608486031215612a9c578283fd5b8335925060208401356129bc81612bd9565b60008219821115612ac157612ac1612b7b565b500190565b600082612ad557612ad5612baa565b500490565b6000817fffffffffffffffffffffffffffffffffffffffffffffffffffffffffffffffff0483118215151615612b1257612b12612b7b565b500290565b600082821015612b2957612b29612b7b565b500390565b60007fffffffffffffffffffffffffffffffffffffffffffffffffffffffffffffffff821415612b6057612b60612b7b565b5060010190565b600082612b7657612b76612baa565b500690565b7f4e487b7100000000000000000000000000000000000000000000000000000000600052601160045260246000fd5b7f4e487b7100000000000000000000000000000000000000000000000000000000600052601260045260246000fd5b6001600160a01b0381168114610d2057600080fdfea26469706673582212208a451470ba8ee8ff877e735ffaac79f28bd8ba5c62f6730bd169f0963e1d946e64736f6c63430008030033",
  "devdoc": {
    "kind": "dev",
    "methods": {
      "applyBorrowInterest(uint256,address,uint256)": {
        "details": "how much interest has accrued to a borrowed balance over time"
      },
      "buyHourlyBondSubscription(address,uint256)": {
        "details": "buy hourly bond subscription"
      },
      "makeFallbackBond(address,address,uint256)": {
        "details": "In a liquidity crunch make a fallback bond until liquidity is good again"
      },
      "payOff(address,uint256)": {
        "details": "gets called by router if loan is extinguished"
      },
      "registerBorrow(address,uint256)": {
        "details": "gets called by router to register if a trader borrows issuers"
      },
      "registerLend(address,uint256)": {
        "details": "gets called when external sources provide lending"
      },
      "registerWithdrawal(address,uint256)": {
        "details": "gets called when external sources pay withdraw their bobnd"
      },
      "updateHourlyYield(address)": {
        "details": "updates yield accumulators for both borrowing and lending issuer address represents a token"
      },
      "viewAccumulatedBorrowingYieldFP(address)": {
        "details": "get the borrow yield for a specific issuer/token"
      },
      "viewBorrowAPRPer10k(address)": {
        "details": "get current borrowing interest per 10k for a token / issuer"
      },
      "viewHourlyBondAPRPer10k(address)": {
        "details": "get current lending APR per 10k for a token / issuer"
      },
      "viewWithBorrowInterest(uint256,address,uint256)": {
        "details": "view function to get balance with borrowing interest applied"
      },
      "withdrawHourlyBond(address,uint256)": {
        "details": "withdraw an hour bond"
      }
    },
    "title": "Manage lending for a variety of bond issuers",
    "version": 1
  },
  "userdoc": {
    "kind": "user",
    "methods": {
      "activateIssuer(address)": {
        "notice": "Make a issuer available for protocol"
      },
      "activateIssuer(address,address)": {
        "notice": "Make issuer != token available for protocol (isol. margin)"
      },
      "activeIssuers(address)": {
        "notice": "map of available issuers"
      },
      "closeHourlyBondAccount(address)": {
        "notice": "Shut down hourly bond account for `issuer`"
      },
      "deactivateIssuer(address)": {
        "notice": "Remove a issuer from trading availability"
      },
      "haircuts(address)": {
        "notice": "In case of shortfall, adjust debt"
      },
      "issuerTokens(address)": {
        "notice": "mapping issuers to tokens (in crossmargin, the issuers are tokens  themselves)"
      },
      "setHourlyYieldAPR(address,uint256)": {
        "notice": "Set hourly yield APR for issuer"
      },
      "setLendingCap(address,uint256)": {
        "notice": "Set lending cap"
      },
      "setWithdrawalWindow(uint256)": {
        "notice": "Set withdrawal window"
      }
    },
    "version": 1
  },
  "storageLayout": {
    "storage": [
      {
        "astId": 9498,
        "contract": "contracts/Lending.sol:Lending",
        "label": "mainCharacterCache",
        "offset": 0,
        "slot": "0",
        "type": "t_mapping(t_uint256,t_address)"
      },
      {
        "astId": 9504,
        "contract": "contracts/Lending.sol:Lending",
        "label": "roleCache",
        "offset": 0,
        "slot": "1",
        "type": "t_mapping(t_address,t_mapping(t_uint256,t_bool))"
      },
      {
        "astId": 1567,
        "contract": "contracts/Lending.sol:Lending",
        "label": "normalRatePerPercent",
        "offset": 0,
        "slot": "2",
        "type": "t_uint256"
      },
      {
        "astId": 1585,
        "contract": "contracts/Lending.sol:Lending",
        "label": "highRatePerPercent",
        "offset": 0,
        "slot": "3",
        "type": "t_uint256"
      },
      {
        "astId": 1612,
        "contract": "contracts/Lending.sol:Lending",
        "label": "lendingMeta",
        "offset": 0,
        "slot": "4",
        "type": "t_mapping(t_address,t_struct(LendingMetadata)1607_storage)"
      },
      {
        "astId": 1618,
        "contract": "contracts/Lending.sol:Lending",
        "label": "borrowYieldAccumulators",
        "offset": 0,
        "slot": "5",
        "type": "t_mapping(t_address,t_struct(YieldAccumulator)1592_storage)"
      },
      {
        "astId": 5477,
        "contract": "contracts/Lending.sol:Lending",
        "label": "hourlyBondYieldAccumulators",
        "offset": 0,
        "slot": "6",
        "type": "t_mapping(t_address,t_struct(YieldAccumulator)1592_storage)"
      },
      {
        "astId": 5483,
        "contract": "contracts/Lending.sol:Lending",
        "label": "withdrawalWindow",
        "offset": 0,
        "slot": "7",
        "type": "t_uint256"
      },
      {
        "astId": 5493,
        "contract": "contracts/Lending.sol:Lending",
        "label": "hourlyBondAccounts",
        "offset": 0,
        "slot": "8",
        "type": "t_mapping(t_address,t_mapping(t_address,t_struct(HourlyBond)5469_storage))"
      },
      {
        "astId": 5496,
        "contract": "contracts/Lending.sol:Lending",
        "label": "borrowingFactorPercent",
        "offset": 0,
        "slot": "9",
        "type": "t_uint256"
      },
      {
        "astId": 6368,
        "contract": "contracts/Lending.sol:Lending",
        "label": "issuerTokens",
        "offset": 0,
        "slot": "10",
        "type": "t_mapping(t_address,t_address)"
      },
      {
        "astId": 6373,
        "contract": "contracts/Lending.sol:Lending",
        "label": "haircuts",
        "offset": 0,
        "slot": "11",
        "type": "t_mapping(t_address,t_uint256)"
      },
      {
        "astId": 6378,
        "contract": "contracts/Lending.sol:Lending",
        "label": "activeIssuers",
        "offset": 0,
        "slot": "12",
        "type": "t_mapping(t_address,t_bool)"
      }
    ],
    "types": {
      "t_address": {
        "encoding": "inplace",
        "label": "address",
        "numberOfBytes": "20"
      },
      "t_bool": {
        "encoding": "inplace",
        "label": "bool",
        "numberOfBytes": "1"
      },
      "t_mapping(t_address,t_address)": {
        "encoding": "mapping",
        "key": "t_address",
        "label": "mapping(address => address)",
        "numberOfBytes": "32",
        "value": "t_address"
      },
      "t_mapping(t_address,t_bool)": {
        "encoding": "mapping",
        "key": "t_address",
        "label": "mapping(address => bool)",
        "numberOfBytes": "32",
        "value": "t_bool"
      },
      "t_mapping(t_address,t_mapping(t_address,t_struct(HourlyBond)5469_storage))": {
        "encoding": "mapping",
        "key": "t_address",
        "label": "mapping(address => mapping(address => struct HourlyBond))",
        "numberOfBytes": "32",
        "value": "t_mapping(t_address,t_struct(HourlyBond)5469_storage)"
      },
      "t_mapping(t_address,t_mapping(t_uint256,t_bool))": {
        "encoding": "mapping",
        "key": "t_address",
        "label": "mapping(address => mapping(uint256 => bool))",
        "numberOfBytes": "32",
        "value": "t_mapping(t_uint256,t_bool)"
      },
      "t_mapping(t_address,t_struct(HourlyBond)5469_storage)": {
        "encoding": "mapping",
        "key": "t_address",
        "label": "mapping(address => struct HourlyBond)",
        "numberOfBytes": "32",
        "value": "t_struct(HourlyBond)5469_storage"
      },
      "t_mapping(t_address,t_struct(LendingMetadata)1607_storage)": {
        "encoding": "mapping",
        "key": "t_address",
        "label": "mapping(address => struct BaseLending.LendingMetadata)",
        "numberOfBytes": "32",
        "value": "t_struct(LendingMetadata)1607_storage"
      },
      "t_mapping(t_address,t_struct(YieldAccumulator)1592_storage)": {
        "encoding": "mapping",
        "key": "t_address",
        "label": "mapping(address => struct BaseLending.YieldAccumulator)",
        "numberOfBytes": "32",
        "value": "t_struct(YieldAccumulator)1592_storage"
      },
      "t_mapping(t_address,t_uint256)": {
        "encoding": "mapping",
        "key": "t_address",
        "label": "mapping(address => uint256)",
        "numberOfBytes": "32",
        "value": "t_uint256"
      },
      "t_mapping(t_uint256,t_address)": {
        "encoding": "mapping",
        "key": "t_uint256",
        "label": "mapping(uint256 => address)",
        "numberOfBytes": "32",
        "value": "t_address"
      },
      "t_mapping(t_uint256,t_bool)": {
        "encoding": "mapping",
        "key": "t_uint256",
        "label": "mapping(uint256 => bool)",
        "numberOfBytes": "32",
        "value": "t_bool"
      },
      "t_struct(HourlyBond)5469_storage": {
        "encoding": "inplace",
        "label": "struct HourlyBond",
        "members": [
          {
            "astId": 5462,
            "contract": "contracts/Lending.sol:Lending",
            "label": "amount",
            "offset": 0,
            "slot": "0",
            "type": "t_uint256"
          },
          {
            "astId": 5464,
            "contract": "contracts/Lending.sol:Lending",
            "label": "yieldQuotientFP",
            "offset": 0,
            "slot": "1",
            "type": "t_uint256"
          },
          {
            "astId": 5466,
            "contract": "contracts/Lending.sol:Lending",
            "label": "moduloHour",
            "offset": 0,
            "slot": "2",
            "type": "t_uint256"
          },
          {
            "astId": 5468,
            "contract": "contracts/Lending.sol:Lending",
            "label": "incentiveAllocationStart",
            "offset": 0,
            "slot": "3",
            "type": "t_uint256"
          }
        ],
        "numberOfBytes": "128"
      },
      "t_struct(LendingMetadata)1607_storage": {
        "encoding": "inplace",
        "label": "struct BaseLending.LendingMetadata",
        "members": [
          {
            "astId": 1594,
            "contract": "contracts/Lending.sol:Lending",
            "label": "totalLending",
            "offset": 0,
            "slot": "0",
            "type": "t_uint256"
          },
          {
            "astId": 1596,
            "contract": "contracts/Lending.sol:Lending",
            "label": "totalBorrowed",
            "offset": 0,
            "slot": "1",
            "type": "t_uint256"
          },
          {
            "astId": 1598,
            "contract": "contracts/Lending.sol:Lending",
            "label": "lendingCap",
            "offset": 0,
            "slot": "2",
            "type": "t_uint256"
          },
          {
            "astId": 1600,
            "contract": "contracts/Lending.sol:Lending",
            "label": "cumulIncentiveAllocationFP",
            "offset": 0,
            "slot": "3",
            "type": "t_uint256"
          },
          {
            "astId": 1602,
            "contract": "contracts/Lending.sol:Lending",
            "label": "incentiveLastUpdated",
            "offset": 0,
            "slot": "4",
            "type": "t_uint256"
          },
          {
            "astId": 1604,
            "contract": "contracts/Lending.sol:Lending",
            "label": "incentiveEnd",
            "offset": 0,
            "slot": "5",
            "type": "t_uint256"
          },
          {
            "astId": 1606,
            "contract": "contracts/Lending.sol:Lending",
            "label": "incentiveTarget",
            "offset": 0,
            "slot": "6",
            "type": "t_uint256"
          }
        ],
        "numberOfBytes": "224"
      },
      "t_struct(YieldAccumulator)1592_storage": {
        "encoding": "inplace",
        "label": "struct BaseLending.YieldAccumulator",
        "members": [
          {
            "astId": 1587,
            "contract": "contracts/Lending.sol:Lending",
            "label": "accumulatorFP",
            "offset": 0,
            "slot": "0",
            "type": "t_uint256"
          },
          {
            "astId": 1589,
            "contract": "contracts/Lending.sol:Lending",
            "label": "lastUpdated",
            "offset": 0,
            "slot": "1",
            "type": "t_uint256"
          },
          {
            "astId": 1591,
            "contract": "contracts/Lending.sol:Lending",
            "label": "hourlyYieldFP",
            "offset": 0,
            "slot": "2",
            "type": "t_uint256"
          }
        ],
        "numberOfBytes": "96"
      },
      "t_uint256": {
        "encoding": "inplace",
        "label": "uint256",
        "numberOfBytes": "32"
      }
    }
  }
}