{
  "address": "0x9d2abbaFDFC8D851669dF5D671Bc967427897223",
  "abi": [
    {
      "inputs": [
        {
          "internalType": "address",
          "name": "_WETH",
          "type": "address"
        },
        {
          "internalType": "address",
          "name": "_amm1Factory",
          "type": "address"
        },
        {
          "internalType": "address",
          "name": "_amm2Factory",
          "type": "address"
        },
        {
          "internalType": "bytes32",
          "name": "_amm1InitHash",
          "type": "bytes32"
        },
        {
          "internalType": "bytes32",
          "name": "_amm2InitHash",
          "type": "bytes32"
        }
      ],
      "stateMutability": "nonpayable",
      "type": "constructor"
    },
    {
      "inputs": [],
      "name": "WETH",
      "outputs": [
        {
          "internalType": "address",
          "name": "",
          "type": "address"
        }
      ],
      "stateMutability": "view",
      "type": "function"
    },
    {
      "inputs": [],
      "name": "amm1Factory",
      "outputs": [
        {
          "internalType": "address",
          "name": "",
          "type": "address"
        }
      ],
      "stateMutability": "view",
      "type": "function"
    },
    {
      "inputs": [],
      "name": "amm1InitHash",
      "outputs": [
        {
          "internalType": "bytes32",
          "name": "",
          "type": "bytes32"
        }
      ],
      "stateMutability": "view",
      "type": "function"
    },
    {
      "inputs": [],
      "name": "amm2Factory",
      "outputs": [
        {
          "internalType": "address",
          "name": "",
          "type": "address"
        }
      ],
      "stateMutability": "view",
      "type": "function"
    },
    {
      "inputs": [],
      "name": "amm2InitHash",
      "outputs": [
        {
          "internalType": "bytes32",
          "name": "",
          "type": "bytes32"
        }
      ],
      "stateMutability": "view",
      "type": "function"
    },
    {
      "inputs": [
        {
          "internalType": "uint256",
          "name": "outAmount",
          "type": "uint256"
        },
        {
          "internalType": "bytes32",
          "name": "amms",
          "type": "bytes32"
        },
        {
          "internalType": "address[]",
          "name": "tokens",
          "type": "address[]"
        }
      ],
      "name": "getAmountsIn",
      "outputs": [
        {
          "internalType": "uint256[]",
          "name": "amounts",
          "type": "uint256[]"
        }
      ],
      "stateMutability": "view",
      "type": "function"
    },
    {
      "inputs": [
        {
          "internalType": "uint256",
          "name": "inAmount",
          "type": "uint256"
        },
        {
          "internalType": "bytes32",
          "name": "amms",
          "type": "bytes32"
        },
        {
          "internalType": "address[]",
          "name": "tokens",
          "type": "address[]"
        }
      ],
      "name": "getAmountsOut",
      "outputs": [
        {
          "internalType": "uint256[]",
          "name": "amounts",
          "type": "uint256[]"
        }
      ],
      "stateMutability": "view",
      "type": "function"
    },
    {
      "inputs": [
        {
          "internalType": "uint256",
          "name": "amountOut",
          "type": "uint256"
        },
        {
          "internalType": "bytes32",
          "name": "amms",
          "type": "bytes32"
        },
        {
          "internalType": "address[]",
          "name": "tokens",
          "type": "address[]"
        },
        {
          "internalType": "address",
          "name": "to",
          "type": "address"
        },
        {
          "internalType": "uint256",
          "name": "deadline",
          "type": "uint256"
        }
      ],
      "name": "swapETHForExactTokens",
      "outputs": [
        {
          "internalType": "uint256[]",
          "name": "amounts",
          "type": "uint256[]"
        }
      ],
      "stateMutability": "payable",
      "type": "function"
    },
    {
      "inputs": [
        {
          "internalType": "uint256",
          "name": "amountOutMin",
          "type": "uint256"
        },
        {
          "internalType": "bytes32",
          "name": "amms",
          "type": "bytes32"
        },
        {
          "internalType": "address[]",
          "name": "tokens",
          "type": "address[]"
        },
        {
          "internalType": "address",
          "name": "to",
          "type": "address"
        },
        {
          "internalType": "uint256",
          "name": "deadline",
          "type": "uint256"
        }
      ],
      "name": "swapExactETHForTokens",
      "outputs": [
        {
          "internalType": "uint256[]",
          "name": "amounts",
          "type": "uint256[]"
        }
      ],
      "stateMutability": "payable",
      "type": "function"
    },
    {
      "inputs": [
        {
          "internalType": "uint256",
          "name": "amountIn",
          "type": "uint256"
        },
        {
          "internalType": "uint256",
          "name": "amountOutMin",
          "type": "uint256"
        },
        {
          "internalType": "bytes32",
          "name": "amms",
          "type": "bytes32"
        },
        {
          "internalType": "address[]",
          "name": "tokens",
          "type": "address[]"
        },
        {
          "internalType": "address",
          "name": "to",
          "type": "address"
        },
        {
          "internalType": "uint256",
          "name": "deadline",
          "type": "uint256"
        }
      ],
      "name": "swapExactTokensForETH",
      "outputs": [
        {
          "internalType": "uint256[]",
          "name": "amounts",
          "type": "uint256[]"
        }
      ],
      "stateMutability": "nonpayable",
      "type": "function"
    },
    {
      "inputs": [
        {
          "internalType": "uint256",
          "name": "amountIn",
          "type": "uint256"
        },
        {
          "internalType": "uint256",
          "name": "amountOutMin",
          "type": "uint256"
        },
        {
          "internalType": "bytes32",
          "name": "amms",
          "type": "bytes32"
        },
        {
          "internalType": "address[]",
          "name": "tokens",
          "type": "address[]"
        },
        {
          "internalType": "address",
          "name": "to",
          "type": "address"
        },
        {
          "internalType": "uint256",
          "name": "deadline",
          "type": "uint256"
        }
      ],
      "name": "swapExactTokensForTokens",
      "outputs": [
        {
          "internalType": "uint256[]",
          "name": "amounts",
          "type": "uint256[]"
        }
      ],
      "stateMutability": "nonpayable",
      "type": "function"
    },
    {
      "inputs": [
        {
          "internalType": "uint256",
          "name": "amountOut",
          "type": "uint256"
        },
        {
          "internalType": "uint256",
          "name": "amountInMax",
          "type": "uint256"
        },
        {
          "internalType": "bytes32",
          "name": "amms",
          "type": "bytes32"
        },
        {
          "internalType": "address[]",
          "name": "tokens",
          "type": "address[]"
        },
        {
          "internalType": "address",
          "name": "to",
          "type": "address"
        },
        {
          "internalType": "uint256",
          "name": "deadline",
          "type": "uint256"
        }
      ],
      "name": "swapTokensForExactETH",
      "outputs": [
        {
          "internalType": "uint256[]",
          "name": "amounts",
          "type": "uint256[]"
        }
      ],
      "stateMutability": "nonpayable",
      "type": "function"
    },
    {
      "inputs": [
        {
          "internalType": "uint256",
          "name": "amountOut",
          "type": "uint256"
        },
        {
          "internalType": "uint256",
          "name": "amountInMax",
          "type": "uint256"
        },
        {
          "internalType": "bytes32",
          "name": "amms",
          "type": "bytes32"
        },
        {
          "internalType": "address[]",
          "name": "tokens",
          "type": "address[]"
        },
        {
          "internalType": "address",
          "name": "to",
          "type": "address"
        },
        {
          "internalType": "uint256",
          "name": "deadline",
          "type": "uint256"
        }
      ],
      "name": "swapTokensForExactTokens",
      "outputs": [
        {
          "internalType": "uint256[]",
          "name": "amounts",
          "type": "uint256[]"
        }
      ],
      "stateMutability": "nonpayable",
      "type": "function"
    },
    {
      "stateMutability": "payable",
      "type": "receive"
    }
  ],
  "transactionHash": "0xba9304bafc08d4785e14408e7c2fd647925825a76d130468b650de06a7710d0e",
  "args": [
    "0xB31f66AA3C1e785363F0875A1B74E27b85FD66c7",
    "0xefa94DE7a4656D787667C749f7E1223D71E9FD88",
    "0xBB6e8C136ca537874a6808dBFC5DaebEd9a57554",
    "0x40231f6b438bce0797c9ada29b718a87ea0a5cea3fe9a771abdd76bd41a3e545",
    "0x81dbf51ab39dc634785936a3b34def28bf8007e6dfa30d4284c4b8547cb47a51"
  ],
  "solcInputHash": "49fa39efe792e8097386d041699fb9c7",
  "bytecode": "0x60e06040523480156200001157600080fd5b5060405162002f2438038062002f24833981016040819052620000349162000082565b6001600160601b0319606094851b811660805292841b831660a05260009190915560015591901b1660c052620000de565b80516001600160a01b03811681146200007d57600080fd5b919050565b600080600080600060a086880312156200009a578081fd5b620000a58662000065565b9450620000b56020870162000065565b9350620000c56040870162000065565b6060870151608090970151959894975095949392505050565b60805160601c60a05160601c60c05160601c612dba6200016a6000396000818160f301528181610276015281816103970152818161063601528181610ad601528181610d1301528181610ed401528181610f7d0152818161112c015281816112e2015261138b01526000818161014701526120190152600081816102ca01526121530152612dba6000f3fe6080604052600436106100d65760003560e01c8063a75208a81161007f578063b852eb0d11610059578063b852eb0d146102b8578063d51dc254146102ec578063d7bd007c146102ff578063df7c20f91461031257610130565b8063a75208a814610240578063ad5c464814610264578063b7453e271461029857610130565b8063799d34e1116100b0578063799d34e1146101e05780637f4da6d4146102005780639b6b1ce71461022057610130565b8063059b157a146101355780632c8c29dd1461019357806336e1437b146101c057610130565b36610130573373ffffffffffffffffffffffffffffffffffffffff7f0000000000000000000000000000000000000000000000000000000000000000161461012e57634e487b7160e01b600052600160045260246000fd5b005b600080fd5b34801561014157600080fd5b506101697f000000000000000000000000000000000000000000000000000000000000000081565b60405173ffffffffffffffffffffffffffffffffffffffff90911681526020015b60405180910390f35b34801561019f57600080fd5b506101b36101ae366004612ad7565b610328565b60405161018a9190612bb6565b3480156101cc57600080fd5b506101b36101db366004612ad7565b610740565b3480156101ec57600080fd5b506101b36101fb366004612a18565b6108e9565b34801561020c57600080fd5b506101b361021b366004612ad7565b610933565b34801561022c57600080fd5b506101b361023b366004612ad7565b610a6c565b34801561024c57600080fd5b5061025660005481565b60405190815260200161018a565b34801561027057600080fd5b506101697f000000000000000000000000000000000000000000000000000000000000000081565b3480156102a457600080fd5b506101b36102b3366004612a18565b610c7e565b3480156102c457600080fd5b506101697f000000000000000000000000000000000000000000000000000000000000000081565b6101b36102fa366004612a69565b610cbe565b6101b361030d366004612a69565b6110d7565b34801561031e57600080fd5b5061025660015481565b606081428110156103805760405162461bcd60e51b815260206004820152601160248201527f547261646520686173206578706972656400000000000000000000000000000060448201526064015b60405180910390fd5b73ffffffffffffffffffffffffffffffffffffffff7f00000000000000000000000000000000000000000000000000000000000000001686866103c4600182612cbd565b8181106103e157634e487b7160e01b600052603260045260246000fd5b90506020020160208101906103f69190612990565b73ffffffffffffffffffffffffffffffffffffffff16146104595760405162461bcd60e51b815260206004820152601860248201527f53706f74526f757465723a20494e56414c49445f5041544800000000000000006044820152606401610377565b60606104998a8989898080602002602001604051908101604052809392919081815260200183836020028082843760009201919091525061156e92505050565b81519194509150899084906104b090600190612cbd565b815181106104ce57634e487b7160e01b600052603260045260246000fd5b6020026020010151101561054a5760405162461bcd60e51b815260206004820152602660248201527f53706f74526f757465723a20494e53554646494349454e545f4f55545055545f60448201527f414d4f554e5400000000000000000000000000000000000000000000000000006064820152608401610377565b6105f4338260008151811061056f57634e487b7160e01b600052603260045260246000fd5b60200260200101518560008151811061059857634e487b7160e01b600052603260045260246000fd5b60200260200101518a8a60008181106105c157634e487b7160e01b600052603260045260246000fd5b90506020020160208101906105d69190612990565b73ffffffffffffffffffffffffffffffffffffffff1692919061187f565b610634838289898080602002602001604051908101604052809392919081815260200183836020028082843760009201919091525030925061191a915050565b7f000000000000000000000000000000000000000000000000000000000000000073ffffffffffffffffffffffffffffffffffffffff16632e1a7d4d846001865161067f9190612cbd565b8151811061069d57634e487b7160e01b600052603260045260246000fd5b60200260200101516040518263ffffffff1660e01b81526004016106c391815260200190565b600060405180830381600087803b1580156106dd57600080fd5b505af11580156106f1573d6000803e3d6000fd5b505050506107338584600186516107089190612cbd565b8151811061072657634e487b7160e01b600052603260045260246000fd5b6020026020010151611b76565b5050979650505050505050565b606081428110156107935760405162461bcd60e51b815260206004820152601160248201527f54726164652068617320657870697265640000000000000000000000000000006044820152606401610377565b60606107d38a8989898080602002602001604051908101604052809392919081815260200183836020028082843760009201919091525061156e92505050565b81519194509150899084906107ea90600190612cbd565b8151811061080857634e487b7160e01b600052603260045260246000fd5b602002602001015110156108845760405162461bcd60e51b815260206004820152602660248201527f53706f74526f757465723a20494e53554646494349454e545f4f55545055545f60448201527f414d4f554e5400000000000000000000000000000000000000000000000000006064820152608401610377565b6108a9338260008151811061056f57634e487b7160e01b600052603260045260246000fd5b61073383828989808060200260200160405190810160405280939291908181526020018383602002808284376000920191909152508b925061191a915050565b60606109298585858580806020026020016040519081016040528093929190818152602001838360200280828437600092019190915250611ca192505050565b5095945050505050565b606081428110156109865760405162461bcd60e51b815260206004820152601160248201527f54726164652068617320657870697265640000000000000000000000000000006044820152606401610377565b60606109c68a89898980806020026020016040519081016040528093929190818152602001838360200280828437600092019190915250611ca192505050565b809250819450505088836000815181106109f057634e487b7160e01b600052603260045260246000fd5b602002602001015111156108845760405162461bcd60e51b815260206004820152602260248201527f53706f74526f757465723a204558434553534956455f494e5055545f414d4f5560448201527f4e540000000000000000000000000000000000000000000000000000000000006064820152608401610377565b60608142811015610abf5760405162461bcd60e51b815260206004820152601160248201527f54726164652068617320657870697265640000000000000000000000000000006044820152606401610377565b73ffffffffffffffffffffffffffffffffffffffff7f0000000000000000000000000000000000000000000000000000000000000000168686610b03600182612cbd565b818110610b2057634e487b7160e01b600052603260045260246000fd5b9050602002016020810190610b359190612990565b73ffffffffffffffffffffffffffffffffffffffff1614610b985760405162461bcd60e51b815260206004820152601860248201527f53706f74526f757465723a20494e56414c49445f5041544800000000000000006044820152606401610377565b6060610bd88a89898980806020026020016040519081016040528093929190818152602001838360200280828437600092019190915250611ca192505050565b80925081945050508883600081518110610c0257634e487b7160e01b600052603260045260246000fd5b6020026020010151111561054a5760405162461bcd60e51b815260206004820152602260248201527f53706f74526f757465723a204558434553534956455f494e5055545f414d4f5560448201527f4e540000000000000000000000000000000000000000000000000000000000006064820152608401610377565b6060610929858585858080602002602001604051908101604052809392919081815260200183836020028082843760009201919091525061156e92505050565b60608142811015610d115760405162461bcd60e51b815260206004820152601160248201527f54726164652068617320657870697265640000000000000000000000000000006044820152606401610377565b7f000000000000000000000000000000000000000000000000000000000000000073ffffffffffffffffffffffffffffffffffffffff1686866000818110610d6957634e487b7160e01b600052603260045260246000fd5b9050602002016020810190610d7e9190612990565b73ffffffffffffffffffffffffffffffffffffffff1614610de15760405162461bcd60e51b815260206004820152601860248201527f53706f74526f757465723a20494e56414c49445f5041544800000000000000006044820152606401610377565b6060610e21348989898080602002602001604051908101604052809392919081815260200183836020028082843760009201919091525061156e92505050565b8151919450915089908490610e3890600190612cbd565b81518110610e5657634e487b7160e01b600052603260045260246000fd5b60200260200101511015610ed25760405162461bcd60e51b815260206004820152602660248201527f53706f74526f757465723a20494e53554646494349454e545f4f55545055545f60448201527f414d4f554e5400000000000000000000000000000000000000000000000000006064820152608401610377565b7f000000000000000000000000000000000000000000000000000000000000000073ffffffffffffffffffffffffffffffffffffffff1663d0e30db084600081518110610f2f57634e487b7160e01b600052603260045260246000fd5b60200260200101516040518263ffffffff1660e01b81526004016000604051808303818588803b158015610f6257600080fd5b505af1158015610f76573d6000803e3d6000fd5b50505050507f000000000000000000000000000000000000000000000000000000000000000073ffffffffffffffffffffffffffffffffffffffff1663a9059cbb82600081518110610fd857634e487b7160e01b600052603260045260246000fd5b6020026020010151346040518363ffffffff1660e01b815260040161101f92919073ffffffffffffffffffffffffffffffffffffffff929092168252602082015260400190565b602060405180830381600087803b15801561103957600080fd5b505af115801561104d573d6000803e3d6000fd5b505050506040513d601f19601f8201168201806040525081019061107191906129aa565b61108b57634e487b7160e01b600052600160045260246000fd5b6110cb83828989808060200260200160405190810160405280939291908181526020018383602002808284376000920191909152508b925061191a915050565b50509695505050505050565b6060814281101561112a5760405162461bcd60e51b815260206004820152601160248201527f54726164652068617320657870697265640000000000000000000000000000006044820152606401610377565b7f000000000000000000000000000000000000000000000000000000000000000073ffffffffffffffffffffffffffffffffffffffff168686600081811061118257634e487b7160e01b600052603260045260246000fd5b90506020020160208101906111979190612990565b73ffffffffffffffffffffffffffffffffffffffff16146111fa5760405162461bcd60e51b815260206004820152601860248201527f53706f74526f757465723a20494e56414c49445f5041544800000000000000006044820152606401610377565b606061123a8989898980806020026020016040519081016040528093929190818152602001838360200280828437600092019190915250611ca192505050565b8092508194505050348360008151811061126457634e487b7160e01b600052603260045260246000fd5b602002602001015111156112e05760405162461bcd60e51b815260206004820152602260248201527f53706f74526f757465723a204558434553534956455f494e5055545f414d4f5560448201527f4e540000000000000000000000000000000000000000000000000000000000006064820152608401610377565b7f000000000000000000000000000000000000000000000000000000000000000073ffffffffffffffffffffffffffffffffffffffff1663d0e30db08460008151811061133d57634e487b7160e01b600052603260045260246000fd5b60200260200101516040518263ffffffff1660e01b81526004016000604051808303818588803b15801561137057600080fd5b505af1158015611384573d6000803e3d6000fd5b50505050507f000000000000000000000000000000000000000000000000000000000000000073ffffffffffffffffffffffffffffffffffffffff1663a9059cbb826000815181106113e657634e487b7160e01b600052603260045260246000fd5b60200260200101518560008151811061140f57634e487b7160e01b600052603260045260246000fd5b60200260200101516040518363ffffffff1660e01b815260040161145592919073ffffffffffffffffffffffffffffffffffffffff929092168252602082015260400190565b602060405180830381600087803b15801561146f57600080fd5b505af1158015611483573d6000803e3d6000fd5b505050506040513d601f19601f820116820180604052508101906114a791906129aa565b6114c157634e487b7160e01b600052600160045260246000fd5b61150183828989808060200260200160405190810160405280939291908181526020018383602002808284376000920191909152508b925061191a915050565b8260008151811061152257634e487b7160e01b600052603260045260246000fd5b60200260200101513411156110cb576110cb338460008151811061155657634e487b7160e01b600052603260045260246000fd5b6020026020010151346115699190612cbd565b611b76565b6060806002835110156115c35760405162461bcd60e51b815260206004820152601460248201527f746f6b656e207061746820746f6f2073686f72740000000000000000000000006044820152606401610377565b825167ffffffffffffffff8111156115eb57634e487b7160e01b600052604160045260246000fd5b604051908082528060200260200182016040528015611614578160200160208202803683370190505b509150848260008151811061163957634e487b7160e01b600052603260045260246000fd5b602002602001018181525050600183516116539190612cbd565b67ffffffffffffffff81111561167957634e487b7160e01b600052604160045260246000fd5b6040519080825280602002602001820160405280156116a2578160200160208202803683370190505b50905060005b600184516116b69190612cbd565b8110156118765760008482815181106116df57634e487b7160e01b600052603260045260246000fd5b602002602001015190506000858360016116f99190612c48565b8151811061171757634e487b7160e01b600052603260045260246000fd5b60200260200101519050600087846020811061174357634e487b7160e01b600052603260045260246000fd5b1a60f81b7fff00000000000000000000000000000000000000000000000000000000000000161561177d576117788383611fca565b611787565b6117878383612104565b9050808585815181106117aa57634e487b7160e01b600052603260045260246000fd5b602002602001019073ffffffffffffffffffffffffffffffffffffffff16908173ffffffffffffffffffffffffffffffffffffffff16815250506000806117f28386866121ff565b9150915061182888878151811061181957634e487b7160e01b600052603260045260246000fd5b60200260200101518383612303565b88611834886001612c48565b8151811061185257634e487b7160e01b600052603260045260246000fd5b6020026020010181815250505050505050808061186e90612d35565b9150506116a8565b50935093915050565b6040805173ffffffffffffffffffffffffffffffffffffffff85811660248301528416604482015260648082018490528251808303909101815260849091019091526020810180517bffffffffffffffffffffffffffffffffffffffffffffffffffffffff167f23b872dd00000000000000000000000000000000000000000000000000000000179052611914908590612424565b50505050565b60005b8351811015611b6f5760008084838151811061194957634e487b7160e01b600052603260045260246000fd5b60200260200101518584600161195f9190612c48565b8151811061197d57634e487b7160e01b600052603260045260246000fd5b60200260200101519150915060006119958383612516565b5090506000886119a6866001612c48565b815181106119c457634e487b7160e01b600052603260045260246000fd5b602002602001015190506000808373ffffffffffffffffffffffffffffffffffffffff168673ffffffffffffffffffffffffffffffffffffffff1614611a0c57826000611a10565b6000835b91509150600060018b51611a249190612cbd565b8810611a305788611a63565b8a611a3c896001612c48565b81518110611a5a57634e487b7160e01b600052603260045260246000fd5b60200260200101515b905060008b8981518110611a8757634e487b7160e01b600052603260045260246000fd5b602002602001015190508073ffffffffffffffffffffffffffffffffffffffff1663022c0d9f858585600067ffffffffffffffff811115611ad857634e487b7160e01b600052604160045260246000fd5b6040519080825280601f01601f191660200182016040528015611b02576020820181803683370190505b506040518563ffffffff1660e01b8152600401611b229493929190612c0d565b600060405180830381600087803b158015611b3c57600080fd5b505af1158015611b50573d6000803e3d6000fd5b5050505050505050505050508080611b6790612d35565b91505061191d565b5050505050565b80471015611bc65760405162461bcd60e51b815260206004820152601d60248201527f416464726573733a20696e73756666696369656e742062616c616e63650000006044820152606401610377565b60008273ffffffffffffffffffffffffffffffffffffffff168260405160006040518083038185875af1925050503d8060008114611c20576040519150601f19603f3d011682016040523d82523d6000602084013e611c25565b606091505b5050905080611c9c5760405162461bcd60e51b815260206004820152603a60248201527f416464726573733a20756e61626c6520746f2073656e642076616c75652c207260448201527f6563697069656e74206d617920686176652072657665727465640000000000006064820152608401610377565b505050565b606080600283511015611cf65760405162461bcd60e51b815260206004820152601460248201527f746f6b656e207061746820746f6f2073686f72740000000000000000000000006044820152606401610377565b825167ffffffffffffffff811115611d1e57634e487b7160e01b600052604160045260246000fd5b604051908082528060200260200182016040528015611d47578160200160208202803683370190505b509150848260018451611d5a9190612cbd565b81518110611d7857634e487b7160e01b600052603260045260246000fd5b60200260200101818152505060018351611d929190612cbd565b67ffffffffffffffff811115611db857634e487b7160e01b600052604160045260246000fd5b604051908082528060200260200182016040528015611de1578160200160208202803683370190505b509050600060018451611df49190612cbd565b90505b801561187657600084611e0b600184612cbd565b81518110611e2957634e487b7160e01b600052603260045260246000fd5b602002602001015190506000858381518110611e5557634e487b7160e01b600052603260045260246000fd5b60200260200101519050600087600185611e6f9190612cbd565b60208110611e8d57634e487b7160e01b600052603260045260246000fd5b1a60f81b7fff000000000000000000000000000000000000000000000000000000000000001615611ec757611ec28383611fca565b611ed1565b611ed18383612104565b90508085611ee0600187612cbd565b81518110611efe57634e487b7160e01b600052603260045260246000fd5b602002602001019073ffffffffffffffffffffffffffffffffffffffff16908173ffffffffffffffffffffffffffffffffffffffff1681525050600080611f468386866121ff565b91509150611f7c888781518110611f6d57634e487b7160e01b600052603260045260246000fd5b60200260200101518383612641565b88611f88600189612cbd565b81518110611fa657634e487b7160e01b600052603260045260246000fd5b60200260200101818152505050505050508080611fc290612d00565b915050611df7565b6000806000611fd98585612516565b6040517fffffffffffffffffffffffffffffffffffffffff000000000000000000000000606084811b8216602084015283901b16603482015291935091507f000000000000000000000000000000000000000000000000000000000000000090604801604051602081830303815290604052805190602001206001546040516020016120c5939291907fff00000000000000000000000000000000000000000000000000000000000000815260609390931b7fffffffffffffffffffffffffffffffffffffffff0000000000000000000000001660018401526015830191909152603582015260550190565b604080517fffffffffffffffffffffffffffffffffffffffffffffffffffffffffffffffe0818403018152919052805160209091012095945050505050565b60008060006121138585612516565b6040517fffffffffffffffffffffffffffffffffffffffff000000000000000000000000606084811b8216602084015283901b16603482015291935091507f000000000000000000000000000000000000000000000000000000000000000090604801604051602081830303815290604052805190602001206000546040516020016120c5939291907fff00000000000000000000000000000000000000000000000000000000000000815260609390931b7fffffffffffffffffffffffffffffffffffffffff0000000000000000000000001660018401526015830191909152603582015260550190565b600080600061220e8585612516565b5090506000808773ffffffffffffffffffffffffffffffffffffffff16630902f1ac6040518163ffffffff1660e01b815260040160606040518083038186803b15801561225a57600080fd5b505afa15801561226e573d6000803e3d6000fd5b505050506040513d601f19601f8201168201806040525081019061229291906129ca565b506dffffffffffffffffffffffffffff1691506dffffffffffffffffffffffffffff1691508273ffffffffffffffffffffffffffffffffffffffff168773ffffffffffffffffffffffffffffffffffffffff16146122f15780826122f4565b81815b90999098509650505050505050565b60008084116123545760405162461bcd60e51b815260206004820152601960248201527f494e53554646494349454e545f494e5055545f414d4f554e54000000000000006044820152606401610377565b6000831180156123645750600082115b6123d65760405162461bcd60e51b815260206004820152602860248201527f556e697377617056324c6962726172793a20494e53554646494349454e545f4c60448201527f49515549444954590000000000000000000000000000000000000000000000006064820152608401610377565b60006123e4856103e5612c80565b905060006123f28483612c80565b9050600082612403876103e8612c80565b61240d9190612c48565b90506124198183612c60565b979650505050505050565b6000612486826040518060400160405280602081526020017f5361666545524332303a206c6f772d6c6576656c2063616c6c206661696c65648152508573ffffffffffffffffffffffffffffffffffffffff166127679092919063ffffffff16565b805190915015611c9c57808060200190518101906124a491906129aa565b611c9c5760405162461bcd60e51b815260206004820152602a60248201527f5361666545524332303a204552433230206f7065726174696f6e20646964206e60448201527f6f742073756363656564000000000000000000000000000000000000000000006064820152608401610377565b6000808273ffffffffffffffffffffffffffffffffffffffff168473ffffffffffffffffffffffffffffffffffffffff1614156125955760405162461bcd60e51b815260206004820152601260248201527f4964656e746963616c20616464726573732100000000000000000000000000006044820152606401610377565b8273ffffffffffffffffffffffffffffffffffffffff168473ffffffffffffffffffffffffffffffffffffffff16106125cf5782846125d2565b83835b909250905073ffffffffffffffffffffffffffffffffffffffff821661263a5760405162461bcd60e51b815260206004820152600d60248201527f5a65726f206164647265737321000000000000000000000000000000000000006044820152606401610377565b9250929050565b60008084116126925760405162461bcd60e51b815260206004820152601a60248201527f494e53554646494349454e545f4f55545055545f414d4f554e540000000000006044820152606401610377565b6000831180156126a25750600082115b6127145760405162461bcd60e51b815260206004820152602860248201527f556e697377617056324c6962726172793a20494e53554646494349454e545f4c60448201527f49515549444954590000000000000000000000000000000000000000000000006064820152608401610377565b60006127208585612c80565b61272c906103e8612c80565b9050600061273a8685612cbd565b612746906103e5612c80565b90506127528183612c60565b61275d906001612c48565b9695505050505050565b60606127768484600085612780565b90505b9392505050565b6060824710156127f85760405162461bcd60e51b815260206004820152602660248201527f416464726573733a20696e73756666696369656e742062616c616e636520666f60448201527f722063616c6c00000000000000000000000000000000000000000000000000006064820152608401610377565b612801856128c8565b61284d5760405162461bcd60e51b815260206004820152601d60248201527f416464726573733a2063616c6c20746f206e6f6e2d636f6e74726163740000006044820152606401610377565b6000808673ffffffffffffffffffffffffffffffffffffffff1685876040516128769190612b9a565b60006040518083038185875af1925050503d80600081146128b3576040519150601f19603f3d011682016040523d82523d6000602084013e6128b8565b606091505b50915091506124198282866128d2565b803b15155b919050565b606083156128e1575081612779565b8251156128f15782518084602001fd5b8160405162461bcd60e51b81526004016103779190612bfa565b803573ffffffffffffffffffffffffffffffffffffffff811681146128cd57600080fd5b60008083601f840112612940578182fd5b50813567ffffffffffffffff811115612957578182fd5b6020830191508360208260051b850101111561263a57600080fd5b80516dffffffffffffffffffffffffffff811681146128cd57600080fd5b6000602082840312156129a1578081fd5b6127798261290b565b6000602082840312156129bb578081fd5b81518015158114612779578182fd5b6000806000606084860312156129de578182fd5b6129e784612972565b92506129f560208501612972565b9150604084015163ffffffff81168114612a0d578182fd5b809150509250925092565b60008060008060608587031215612a2d578081fd5b8435935060208501359250604085013567ffffffffffffffff811115612a51578182fd5b612a5d8782880161292f565b95989497509550505050565b60008060008060008060a08789031215612a81578182fd5b8635955060208701359450604087013567ffffffffffffffff811115612aa5578283fd5b612ab189828a0161292f565b9095509350612ac490506060880161290b565b9150608087013590509295509295509295565b600080600080600080600060c0888a031215612af1578081fd5b873596506020880135955060408801359450606088013567ffffffffffffffff811115612b1c578182fd5b612b288a828b0161292f565b9095509350612b3b90506080890161290b565b915060a0880135905092959891949750929550565b60008151808452612b68816020860160208601612cd4565b601f017fffffffffffffffffffffffffffffffffffffffffffffffffffffffffffffffe0169290920160200192915050565b60008251612bac818460208701612cd4565b9190910192915050565b6020808252825182820181905260009190848201906040850190845b81811015612bee57835183529284019291840191600101612bd2565b50909695505050505050565b6000602082526127796020830184612b50565b600085825284602083015273ffffffffffffffffffffffffffffffffffffffff841660408301526080606083015261275d6080830184612b50565b60008219821115612c5b57612c5b612d6e565b500190565b600082612c7b57634e487b7160e01b81526012600452602481fd5b500490565b6000817fffffffffffffffffffffffffffffffffffffffffffffffffffffffffffffffff0483118215151615612cb857612cb8612d6e565b500290565b600082821015612ccf57612ccf612d6e565b500390565b60005b83811015612cef578181015183820152602001612cd7565b838111156119145750506000910152565b600081612d0f57612d0f612d6e565b507fffffffffffffffffffffffffffffffffffffffffffffffffffffffffffffffff0190565b60007fffffffffffffffffffffffffffffffffffffffffffffffffffffffffffffffff821415612d6757612d67612d6e565b5060010190565b634e487b7160e01b600052601160045260246000fdfea2646970667358221220413946794fa56d8125d34d4392bedc31afc0f76ea577ae5a115b4938a194cbb464736f6c63430008030033",
  "devdoc": {
    "kind": "dev",
    "methods": {},
    "title": "Router for spot trading on uniswap and sushiswap jointly the paramater amms represents the choice of amm pair along the route it is a bytes32 value where amms[i] == 0 for uniswap and amms[i] == 1 for sushi",
    "version": 1
  },
  "userdoc": {
    "kind": "user",
    "methods": {},
    "version": 1
  },
  "storageLayout": {
    "storage": [
      {
        "astId": 21397,
        "contract": "contracts/SpotRouter.sol:SpotRouter",
        "label": "amm1InitHash",
        "offset": 0,
        "slot": "0",
        "type": "t_bytes32"
      },
      {
        "astId": 21399,
        "contract": "contracts/SpotRouter.sol:SpotRouter",
        "label": "amm2InitHash",
        "offset": 0,
        "slot": "1",
        "type": "t_bytes32"
      }
    ],
    "types": {
      "t_bytes32": {
        "encoding": "inplace",
        "label": "bytes32",
        "numberOfBytes": "32"
      }
    }
  }
}