{
  "address": "0x227d079da8E13C0e73FD77EE49f1957517026424",
  "abi": [
    {
      "inputs": [
        {
          "internalType": "address",
          "name": "_WETH",
          "type": "address"
        },
        {
          "internalType": "address",
          "name": "_amm1Factory",
          "type": "address"
        },
        {
          "internalType": "address",
          "name": "_amm2Factory",
          "type": "address"
        },
        {
          "internalType": "address",
          "name": "_amm3Factory",
          "type": "address"
        },
        {
          "internalType": "bytes32",
          "name": "_amm1InitHash",
          "type": "bytes32"
        },
        {
          "internalType": "bytes32",
          "name": "_amm2InitHash",
          "type": "bytes32"
        },
        {
          "internalType": "bytes32",
          "name": "_amm3InitHash",
          "type": "bytes32"
        },
        {
          "internalType": "uint256",
          "name": "_feeBase",
          "type": "uint256"
        }
      ],
      "stateMutability": "nonpayable",
      "type": "constructor"
    },
    {
      "anonymous": false,
      "inputs": [
        {
          "indexed": true,
          "internalType": "address",
          "name": "trader",
          "type": "address"
        },
        {
          "indexed": false,
          "internalType": "address",
          "name": "fromToken",
          "type": "address"
        },
        {
          "indexed": false,
          "internalType": "address",
          "name": "toToken",
          "type": "address"
        },
        {
          "indexed": false,
          "internalType": "uint256",
          "name": "fromAmount",
          "type": "uint256"
        },
        {
          "indexed": false,
          "internalType": "uint256",
          "name": "toAmount",
          "type": "uint256"
        }
      ],
      "name": "SpotTrade",
      "type": "event"
    },
    {
      "inputs": [],
      "name": "WETH",
      "outputs": [
        {
          "internalType": "address",
          "name": "",
          "type": "address"
        }
      ],
      "stateMutability": "view",
      "type": "function"
    },
    {
      "inputs": [],
      "name": "amm1Factory",
      "outputs": [
        {
          "internalType": "address",
          "name": "",
          "type": "address"
        }
      ],
      "stateMutability": "view",
      "type": "function"
    },
    {
      "inputs": [],
      "name": "amm1InitHash",
      "outputs": [
        {
          "internalType": "bytes32",
          "name": "",
          "type": "bytes32"
        }
      ],
      "stateMutability": "view",
      "type": "function"
    },
    {
      "inputs": [],
      "name": "amm2Factory",
      "outputs": [
        {
          "internalType": "address",
          "name": "",
          "type": "address"
        }
      ],
      "stateMutability": "view",
      "type": "function"
    },
    {
      "inputs": [],
      "name": "amm2InitHash",
      "outputs": [
        {
          "internalType": "bytes32",
          "name": "",
          "type": "bytes32"
        }
      ],
      "stateMutability": "view",
      "type": "function"
    },
    {
      "inputs": [],
      "name": "amm3Factory",
      "outputs": [
        {
          "internalType": "address",
          "name": "",
          "type": "address"
        }
      ],
      "stateMutability": "view",
      "type": "function"
    },
    {
      "inputs": [],
      "name": "amm3InitHash",
      "outputs": [
        {
          "internalType": "bytes32",
          "name": "",
          "type": "bytes32"
        }
      ],
      "stateMutability": "view",
      "type": "function"
    },
    {
      "inputs": [],
      "name": "feeBase",
      "outputs": [
        {
          "internalType": "uint256",
          "name": "",
          "type": "uint256"
        }
      ],
      "stateMutability": "view",
      "type": "function"
    },
    {
      "inputs": [
        {
          "internalType": "uint256",
          "name": "outAmount",
          "type": "uint256"
        },
        {
          "internalType": "bytes32",
          "name": "amms",
          "type": "bytes32"
        },
        {
          "internalType": "address[]",
          "name": "tokens",
          "type": "address[]"
        }
      ],
      "name": "getAmountsIn",
      "outputs": [
        {
          "internalType": "uint256[]",
          "name": "amounts",
          "type": "uint256[]"
        }
      ],
      "stateMutability": "view",
      "type": "function"
    },
    {
      "inputs": [
        {
          "internalType": "uint256",
          "name": "inAmount",
          "type": "uint256"
        },
        {
          "internalType": "bytes32",
          "name": "amms",
          "type": "bytes32"
        },
        {
          "internalType": "address[]",
          "name": "tokens",
          "type": "address[]"
        }
      ],
      "name": "getAmountsOut",
      "outputs": [
        {
          "internalType": "uint256[]",
          "name": "amounts",
          "type": "uint256[]"
        }
      ],
      "stateMutability": "view",
      "type": "function"
    },
    {
      "inputs": [
        {
          "internalType": "uint256",
          "name": "amountOut",
          "type": "uint256"
        },
        {
          "internalType": "bytes32",
          "name": "amms",
          "type": "bytes32"
        },
        {
          "internalType": "address[]",
          "name": "tokens",
          "type": "address[]"
        },
        {
          "internalType": "address",
          "name": "to",
          "type": "address"
        },
        {
          "internalType": "uint256",
          "name": "deadline",
          "type": "uint256"
        }
      ],
      "name": "swapETHForExactTokens",
      "outputs": [
        {
          "internalType": "uint256[]",
          "name": "amounts",
          "type": "uint256[]"
        }
      ],
      "stateMutability": "payable",
      "type": "function"
    },
    {
      "inputs": [
        {
          "internalType": "uint256",
          "name": "amountOutMin",
          "type": "uint256"
        },
        {
          "internalType": "bytes32",
          "name": "amms",
          "type": "bytes32"
        },
        {
          "internalType": "address[]",
          "name": "tokens",
          "type": "address[]"
        },
        {
          "internalType": "address",
          "name": "to",
          "type": "address"
        },
        {
          "internalType": "uint256",
          "name": "deadline",
          "type": "uint256"
        }
      ],
      "name": "swapExactETHForTokens",
      "outputs": [
        {
          "internalType": "uint256[]",
          "name": "amounts",
          "type": "uint256[]"
        }
      ],
      "stateMutability": "payable",
      "type": "function"
    },
    {
      "inputs": [
        {
          "internalType": "uint256",
          "name": "amountIn",
          "type": "uint256"
        },
        {
          "internalType": "uint256",
          "name": "amountOutMin",
          "type": "uint256"
        },
        {
          "internalType": "bytes32",
          "name": "amms",
          "type": "bytes32"
        },
        {
          "internalType": "address[]",
          "name": "tokens",
          "type": "address[]"
        },
        {
          "internalType": "address",
          "name": "to",
          "type": "address"
        },
        {
          "internalType": "uint256",
          "name": "deadline",
          "type": "uint256"
        }
      ],
      "name": "swapExactTokensForETH",
      "outputs": [
        {
          "internalType": "uint256[]",
          "name": "amounts",
          "type": "uint256[]"
        }
      ],
      "stateMutability": "nonpayable",
      "type": "function"
    },
    {
      "inputs": [
        {
          "internalType": "uint256",
          "name": "amountIn",
          "type": "uint256"
        },
        {
          "internalType": "uint256",
          "name": "amountOutMin",
          "type": "uint256"
        },
        {
          "internalType": "bytes32",
          "name": "amms",
          "type": "bytes32"
        },
        {
          "internalType": "address[]",
          "name": "tokens",
          "type": "address[]"
        },
        {
          "internalType": "address",
          "name": "to",
          "type": "address"
        },
        {
          "internalType": "uint256",
          "name": "deadline",
          "type": "uint256"
        }
      ],
      "name": "swapExactTokensForTokens",
      "outputs": [
        {
          "internalType": "uint256[]",
          "name": "amounts",
          "type": "uint256[]"
        }
      ],
      "stateMutability": "nonpayable",
      "type": "function"
    },
    {
      "inputs": [
        {
          "internalType": "uint256",
          "name": "amountOut",
          "type": "uint256"
        },
        {
          "internalType": "uint256",
          "name": "amountInMax",
          "type": "uint256"
        },
        {
          "internalType": "bytes32",
          "name": "amms",
          "type": "bytes32"
        },
        {
          "internalType": "address[]",
          "name": "tokens",
          "type": "address[]"
        },
        {
          "internalType": "address",
          "name": "to",
          "type": "address"
        },
        {
          "internalType": "uint256",
          "name": "deadline",
          "type": "uint256"
        }
      ],
      "name": "swapTokensForExactETH",
      "outputs": [
        {
          "internalType": "uint256[]",
          "name": "amounts",
          "type": "uint256[]"
        }
      ],
      "stateMutability": "nonpayable",
      "type": "function"
    },
    {
      "inputs": [
        {
          "internalType": "uint256",
          "name": "amountOut",
          "type": "uint256"
        },
        {
          "internalType": "uint256",
          "name": "amountInMax",
          "type": "uint256"
        },
        {
          "internalType": "bytes32",
          "name": "amms",
          "type": "bytes32"
        },
        {
          "internalType": "address[]",
          "name": "tokens",
          "type": "address[]"
        },
        {
          "internalType": "address",
          "name": "to",
          "type": "address"
        },
        {
          "internalType": "uint256",
          "name": "deadline",
          "type": "uint256"
        }
      ],
      "name": "swapTokensForExactTokens",
      "outputs": [
        {
          "internalType": "uint256[]",
          "name": "amounts",
          "type": "uint256[]"
        }
      ],
      "stateMutability": "nonpayable",
      "type": "function"
    },
    {
      "stateMutability": "payable",
      "type": "receive"
    }
  ],
  "transactionHash": "0x30366cd0243fbe38d71fe1f8e164ee687778f8f035527a4299d84a24c9a38c83",
  "args": [
    "0xB31f66AA3C1e785363F0875A1B74E27b85FD66c7",
    "0xefa94DE7a4656D787667C749f7E1223D71E9FD88",
    "0xc35DADB65012eC5796536bD9864eD8773aBc74C4",
    "0x3587B8c0136c2C3605a9E5B03ab54Da3e4044b50",
    "0x40231f6b438bce0797c9ada29b718a87ea0a5cea3fe9a771abdd76bd41a3e545",
    "0xe18a34eb0e04b04f7a0ac29a6e80748dca96319b42c54d679cb821dca90c6303",
    "0x81dbf51ab39dc634785936a3b34def28bf8007e6dfa30d4284c4b8547cb47a51",
    9970
  ],
  "solcInputHash": "177459222520c2cada5f3985c2d48197",
  "bytecode": "0x6101206040523480156200001257600080fd5b5060405162002c6438038062002c64833981016040819052620000359162000092565b6001600160601b0319606097881b811660805295871b861660a05293861b851660c05260009290925560015560025560e05291901b166101005262000115565b80516001600160a01b03811681146200008d57600080fd5b919050565b600080600080600080600080610100898b031215620000af578384fd5b620000ba8962000075565b9750620000ca60208a0162000075565b9650620000da60408a0162000075565b9550620000ea60608a0162000075565b94506080890151935060a0890151925060c0890151915060e089015190509295985092959890939650565b60805160601c60a05160601c60c05160601c60e0516101005160601c612a95620001cf60003960008181610107015281816102b1015281816103e3015281816105e201528181610a5b01528181610bd501528181610cf601528181610d92015281816110260152818161113c01526111d80152600081816102390152818161207a015261231b01526000818161035f0152611dc501526000818161015b0152611e580152600081816103050152611eca0152612a956000f3fe6080604052600436106100f75760003560e01c8063ad5c46481161008a578063d7bd007c11610059578063d7bd007c1461033a578063db4292351461034d578063df7c20f914610381578063e2abb5c41461039757610144565b8063ad5c46481461029f578063b7453e27146102d3578063b852eb0d146102f3578063d51dc2541461032757610144565b80637f4da6d4116100c65780637f4da6d41461020757806395e911a8146102275780639b6b1ce714610269578063a75208a81461028957610144565b8063059b157a146101495780632c8c29dd1461019a57806336e1437b146101c7578063799d34e1146101e757610144565b3661014457336001600160a01b037f0000000000000000000000000000000000000000000000000000000000000000161461014257634e487b7160e01b600052600160045260246000fd5b005b600080fd5b34801561015557600080fd5b5061017d7f000000000000000000000000000000000000000000000000000000000000000081565b6040516001600160a01b0390911681526020015b60405180910390f35b3480156101a657600080fd5b506101ba6101b53660046126a7565b6103ad565b60405161019191906127c7565b3480156101d357600080fd5b506101ba6101e23660046126a7565b61080e565b3480156101f357600080fd5b506101ba6102023660046125e8565b610931565b34801561021357600080fd5b506101ba6102223660046126a7565b61097b565b34801561023357600080fd5b5061025b7f000000000000000000000000000000000000000000000000000000000000000081565b604051908152602001610191565b34801561027557600080fd5b506101ba6102843660046126a7565b610a2e565b34801561029557600080fd5b5061025b60005481565b3480156102ab57600080fd5b5061017d7f000000000000000000000000000000000000000000000000000000000000000081565b3480156102df57600080fd5b506101ba6102ee3660046125e8565b610b70565b3480156102ff57600080fd5b5061017d7f000000000000000000000000000000000000000000000000000000000000000081565b6101ba610335366004612639565b610bb0565b6101ba610348366004612639565b611001565b34801561035957600080fd5b5061017d7f000000000000000000000000000000000000000000000000000000000000000081565b34801561038d57600080fd5b5061025b60015481565b3480156103a357600080fd5b5061025b60025481565b606081428110156103d95760405162461bcd60e51b81526004016103d0906128e3565b60405180910390fd5b6001600160a01b037f00000000000000000000000000000000000000000000000000000000000000001686866104106001826129d4565b81811061042d57634e487b7160e01b600052603260045260246000fd5b90506020020160208101906104429190612560565b6001600160a01b0316146104685760405162461bcd60e51b81526004016103d09061281e565b60606104a88a898989808060200260200160405190810160405280939291908181526020018383602002808284376000920191909152506113a192505050565b81519194509150899084906104bf906001906129d4565b815181106104dd57634e487b7160e01b600052603260045260246000fd5b602002602001015110156105035760405162461bcd60e51b81526004016103d09061289d565b6105a0338260008151811061052857634e487b7160e01b600052603260045260246000fd5b60200260200101518560008151811061055157634e487b7160e01b600052603260045260246000fd5b60200260200101518a8a600081811061057a57634e487b7160e01b600052603260045260246000fd5b905060200201602081019061058f9190612560565b6001600160a01b03169291906116be565b6105e0838289898080602002602001604051908101604052809392919081815260200183836020028082843760009201919091525030925061171e915050565b7f00000000000000000000000000000000000000000000000000000000000000006001600160a01b0316632e1a7d4d846001865161061e91906129d4565b8151811061063c57634e487b7160e01b600052603260045260246000fd5b60200260200101516040518263ffffffff1660e01b815260040161066291815260200190565b600060405180830381600087803b15801561067c57600080fd5b505af1158015610690573d6000803e3d6000fd5b505050506106d28584600186516106a791906129d4565b815181106106c557634e487b7160e01b600052603260045260246000fd5b6020026020010151611953565b337f83488e4733b2f3ed20b8189f656b48646559d07db7be658c641f0d8bfec2b0f9888860008161071357634e487b7160e01b600052603260045260246000fd5b90506020020160208101906107289190612560565b89896107356001826129d4565b81811061075257634e487b7160e01b600052603260045260246000fd5b90506020020160208101906107679190612560565b8660008151811061078857634e487b7160e01b600052603260045260246000fd5b6020026020010151876001895161079f91906129d4565b815181106107bd57634e487b7160e01b600052603260045260246000fd5b60200260200101516040516107f994939291906001600160a01b0394851681529290931660208301526040820152606081019190915260800190565b60405180910390a25050979650505050505050565b606081428110156108315760405162461bcd60e51b81526004016103d0906128e3565b60606108718a898989808060200260200160405190810160405280939291908181526020018383602002808284376000920191909152506113a192505050565b8151919450915089908490610888906001906129d4565b815181106108a657634e487b7160e01b600052603260045260246000fd5b602002602001015110156108cc5760405162461bcd60e51b81526004016103d09061289d565b6108f1338260008151811061052857634e487b7160e01b600052603260045260246000fd5b6106d283828989808060200260200160405190810160405280939291908181526020018383602002808284376000920191909152508b925061171e915050565b60606109718585858580806020026020016040519081016040528093929190818152602001838360200280828437600092019190915250611a7192505050565b5095945050505050565b6060814281101561099e5760405162461bcd60e51b81526004016103d0906128e3565b60606109de8a89898980806020026020016040519081016040528093929190818152602001838360200280828437600092019190915250611a7192505050565b80925081945050508883600081518110610a0857634e487b7160e01b600052603260045260246000fd5b602002602001015111156108cc5760405162461bcd60e51b81526004016103d09061290e565b60608142811015610a515760405162461bcd60e51b81526004016103d0906128e3565b6001600160a01b037f0000000000000000000000000000000000000000000000000000000000000000168686610a886001826129d4565b818110610aa557634e487b7160e01b600052603260045260246000fd5b9050602002016020810190610aba9190612560565b6001600160a01b031614610ae05760405162461bcd60e51b81526004016103d09061281e565b6060610b208a89898980806020026020016040519081016040528093929190818152602001838360200280828437600092019190915250611a7192505050565b80925081945050508883600081518110610b4a57634e487b7160e01b600052603260045260246000fd5b602002602001015111156105035760405162461bcd60e51b81526004016103d09061290e565b606061097185858585808060200260200160405190810160405280939291908181526020018383602002808284376000920191909152506113a192505050565b60608142811015610bd35760405162461bcd60e51b81526004016103d0906128e3565b7f00000000000000000000000000000000000000000000000000000000000000006001600160a01b031686866000818110610c1e57634e487b7160e01b600052603260045260246000fd5b9050602002016020810190610c339190612560565b6001600160a01b031614610c595760405162461bcd60e51b81526004016103d09061281e565b6060610c9934898989808060200260200160405190810160405280939291908181526020018383602002808284376000920191909152506113a192505050565b8151919450915089908490610cb0906001906129d4565b81518110610cce57634e487b7160e01b600052603260045260246000fd5b60200260200101511015610cf45760405162461bcd60e51b81526004016103d09061289d565b7f00000000000000000000000000000000000000000000000000000000000000006001600160a01b031663d0e30db084600081518110610d4457634e487b7160e01b600052603260045260246000fd5b60200260200101516040518263ffffffff1660e01b81526004016000604051808303818588803b158015610d7757600080fd5b505af1158015610d8b573d6000803e3d6000fd5b50505050507f00000000000000000000000000000000000000000000000000000000000000006001600160a01b031663a9059cbb82600081518110610de057634e487b7160e01b600052603260045260246000fd5b6020026020010151346040518363ffffffff1660e01b8152600401610e1a9291906001600160a01b03929092168252602082015260400190565b602060405180830381600087803b158015610e3457600080fd5b505af1158015610e48573d6000803e3d6000fd5b505050506040513d601f19601f82011682018060405250810190610e6c919061257a565b610e8657634e487b7160e01b600052600160045260246000fd5b610ec683828989808060200260200160405190810160405280939291908181526020018383602002808284376000920191909152508b925061171e915050565b337f83488e4733b2f3ed20b8189f656b48646559d07db7be658c641f0d8bfec2b0f98888600081610f0757634e487b7160e01b600052603260045260246000fd5b9050602002016020810190610f1c9190612560565b8989610f296001826129d4565b818110610f4657634e487b7160e01b600052603260045260246000fd5b9050602002016020810190610f5b9190612560565b86600081518110610f7c57634e487b7160e01b600052603260045260246000fd5b60200260200101518760018951610f9391906129d4565b81518110610fb157634e487b7160e01b600052603260045260246000fd5b6020026020010151604051610fed94939291906001600160a01b0394851681529290931660208301526040820152606081019190915260800190565b60405180910390a250509695505050505050565b606081428110156110245760405162461bcd60e51b81526004016103d0906128e3565b7f00000000000000000000000000000000000000000000000000000000000000006001600160a01b03168686600081811061106f57634e487b7160e01b600052603260045260246000fd5b90506020020160208101906110849190612560565b6001600160a01b0316146110aa5760405162461bcd60e51b81526004016103d09061281e565b60606110ea8989898980806020026020016040519081016040528093929190818152602001838360200280828437600092019190915250611a7192505050565b8092508194505050348360008151811061111457634e487b7160e01b600052603260045260246000fd5b6020026020010151111561113a5760405162461bcd60e51b81526004016103d09061290e565b7f00000000000000000000000000000000000000000000000000000000000000006001600160a01b031663d0e30db08460008151811061118a57634e487b7160e01b600052603260045260246000fd5b60200260200101516040518263ffffffff1660e01b81526004016000604051808303818588803b1580156111bd57600080fd5b505af11580156111d1573d6000803e3d6000fd5b50505050507f00000000000000000000000000000000000000000000000000000000000000006001600160a01b031663a9059cbb8260008151811061122657634e487b7160e01b600052603260045260246000fd5b60200260200101518560008151811061124f57634e487b7160e01b600052603260045260246000fd5b60200260200101516040518363ffffffff1660e01b81526004016112889291906001600160a01b03929092168252602082015260400190565b602060405180830381600087803b1580156112a257600080fd5b505af11580156112b6573d6000803e3d6000fd5b505050506040513d601f19601f820116820180604052508101906112da919061257a565b6112f457634e487b7160e01b600052600160045260246000fd5b61133483828989808060200260200160405190810160405280939291908181526020018383602002808284376000920191909152508b925061171e915050565b8260008151811061135557634e487b7160e01b600052603260045260246000fd5b6020026020010151341115610ec657610ec6338460008151811061138957634e487b7160e01b600052603260045260246000fd5b60200260200101513461139c91906129d4565b611953565b6060806002835110156113ed5760405162461bcd60e51b81526020600482015260146024820152731d1bdad95b881c185d1a081d1bdbc81cda1bdc9d60621b60448201526064016103d0565b825167ffffffffffffffff81111561141557634e487b7160e01b600052604160045260246000fd5b60405190808252806020026020018201604052801561143e578160200160208202803683370190505b509150848260008151811061146357634e487b7160e01b600052603260045260246000fd5b6020026020010181815250506001835161147d91906129d4565b67ffffffffffffffff8111156114a357634e487b7160e01b600052604160045260246000fd5b6040519080825280602002602001820160405280156114cc578160200160208202803683370190505b50905060005b600184516114e091906129d4565b8110156116b557600084828151811061150957634e487b7160e01b600052603260045260246000fd5b60200260200101519050600085836001611523919061297d565b8151811061154157634e487b7160e01b600052603260045260246000fd5b60200260200101519050600087846020811061156d57634e487b7160e01b600052603260045260246000fd5b1a60f81b6001600160f81b031916156115d6578784602081106115a057634e487b7160e01b600052603260045260246000fd5b1a60f81b6001600160f81b031916600160f81b146115c7576115c28383611db0565b6115d1565b6115d18383611e43565b6115e0565b6115e08383611eb5565b90508085858151811061160357634e487b7160e01b600052603260045260246000fd5b60200260200101906001600160a01b031690816001600160a01b031681525050600080611631838686611f27565b9150915061166788878151811061165857634e487b7160e01b600052603260045260246000fd5b60200260200101518383611ff6565b8861167388600161297d565b8151811061169157634e487b7160e01b600052603260045260246000fd5b602002602001018181525050505050505080806116ad90612a2e565b9150506114d2565b50935093915050565b604080516001600160a01b0385811660248301528416604482015260648082018490528251808303909101815260849091019091526020810180516001600160e01b03166323b872dd60e01b1790526117189085906120df565b50505050565b60005b835181101561194c5760008084838151811061174d57634e487b7160e01b600052603260045260246000fd5b602002602001015185846001611763919061297d565b8151811061178157634e487b7160e01b600052603260045260246000fd5b602002602001015191509150600061179983836121b1565b5090506000886117aa86600161297d565b815181106117c857634e487b7160e01b600052603260045260246000fd5b60200260200101519050600080836001600160a01b0316866001600160a01b0316146117f6578260006117fa565b6000835b91509150600060018b5161180e91906129d4565b881061181a578861184d565b8a61182689600161297d565b8151811061184457634e487b7160e01b600052603260045260246000fd5b60200260200101515b905060008b898151811061187157634e487b7160e01b600052603260045260246000fd5b60200260200101519050806001600160a01b031663022c0d9f858585600067ffffffffffffffff8111156118b557634e487b7160e01b600052604160045260246000fd5b6040519080825280601f01601f1916602001820160405280156118df576020820181803683370190505b506040518563ffffffff1660e01b81526004016118ff9493929190612950565b600060405180830381600087803b15801561191957600080fd5b505af115801561192d573d6000803e3d6000fd5b505050505050505050505050808061194490612a2e565b915050611721565b5050505050565b804710156119a35760405162461bcd60e51b815260206004820152601d60248201527f416464726573733a20696e73756666696369656e742062616c616e636500000060448201526064016103d0565b6000826001600160a01b03168260405160006040518083038185875af1925050503d80600081146119f0576040519150601f19603f3d011682016040523d82523d6000602084013e6119f5565b606091505b5050905080611a6c5760405162461bcd60e51b815260206004820152603a60248201527f416464726573733a20756e61626c6520746f2073656e642076616c75652c207260448201527f6563697069656e74206d6179206861766520726576657274656400000000000060648201526084016103d0565b505050565b606080600283511015611abd5760405162461bcd60e51b81526020600482015260146024820152731d1bdad95b881c185d1a081d1bdbc81cda1bdc9d60621b60448201526064016103d0565b825167ffffffffffffffff811115611ae557634e487b7160e01b600052604160045260246000fd5b604051908082528060200260200182016040528015611b0e578160200160208202803683370190505b509150848260018451611b2191906129d4565b81518110611b3f57634e487b7160e01b600052603260045260246000fd5b60200260200101818152505060018351611b5991906129d4565b67ffffffffffffffff811115611b7f57634e487b7160e01b600052604160045260246000fd5b604051908082528060200260200182016040528015611ba8578160200160208202803683370190505b509050600060018451611bbb91906129d4565b90505b80156116b557600084611bd26001846129d4565b81518110611bf057634e487b7160e01b600052603260045260246000fd5b602002602001015190506000858381518110611c1c57634e487b7160e01b600052603260045260246000fd5b60200260200101519050600087600185611c3691906129d4565b60208110611c5457634e487b7160e01b600052603260045260246000fd5b1a60f81b6001600160f81b03191615611cc75787611c736001866129d4565b60208110611c9157634e487b7160e01b600052603260045260246000fd5b1a60f81b6001600160f81b031916600160f81b14611cb857611cb38383611db0565b611cc2565b611cc28383611e43565b611cd1565b611cd18383611eb5565b90508085611ce06001876129d4565b81518110611cfe57634e487b7160e01b600052603260045260246000fd5b60200260200101906001600160a01b031690816001600160a01b031681525050600080611d2c838686611f27565b91509150611d62888781518110611d5357634e487b7160e01b600052603260045260246000fd5b60200260200101518383612280565b88611d6e6001896129d4565b81518110611d8c57634e487b7160e01b600052603260045260246000fd5b60200260200101818152505050505050508080611da890612a17565b915050611bbe565b6000806000611dbf85856121b1565b915091507f00000000000000000000000000000000000000000000000000000000000000008282604051602001611df792919061274c565b60405160208183030381529060405280519060200120600254604051602001611e229392919061278f565b60408051601f19818403018152919052805160209091012095945050505050565b6000806000611e5285856121b1565b915091507f00000000000000000000000000000000000000000000000000000000000000008282604051602001611e8a92919061274c565b60405160208183030381529060405280519060200120600154604051602001611e229392919061278f565b6000806000611ec485856121b1565b915091507f00000000000000000000000000000000000000000000000000000000000000008282604051602001611efc92919061274c565b60405160208183030381529060405280519060200120600054604051602001611e229392919061278f565b6000806000611f3685856121b1565b509050600080876001600160a01b0316630902f1ac6040518163ffffffff1660e01b815260040160606040518083038186803b158015611f7557600080fd5b505afa158015611f89573d6000803e3d6000fd5b505050506040513d601f19601f82011682018060405250810190611fad919061259a565b506001600160701b031691506001600160701b03169150826001600160a01b0316876001600160a01b031614611fe4578082611fe7565b81815b90999098509650505050505050565b60008084116120475760405162461bcd60e51b815260206004820152601960248201527f494e53554646494349454e545f494e5055545f414d4f554e540000000000000060448201526064016103d0565b6000831180156120575750600082115b6120735760405162461bcd60e51b81526004016103d090612855565b600061209f7f0000000000000000000000000000000000000000000000000000000000000000866129b5565b905060006120ad84836129b5565b90506000826120be876127106129b5565b6120c8919061297d565b90506120d48183612995565b979650505050505050565b6000612134826040518060400160405280602081526020017f5361666545524332303a206c6f772d6c6576656c2063616c6c206661696c6564815250856001600160a01b031661236f9092919063ffffffff16565b805190915015611a6c5780806020019051810190612152919061257a565b611a6c5760405162461bcd60e51b815260206004820152602a60248201527f5361666545524332303a204552433230206f7065726174696f6e20646964206e6044820152691bdd081cdd58d8d9595960b21b60648201526084016103d0565b600080826001600160a01b0316846001600160a01b0316141561220b5760405162461bcd60e51b81526020600482015260126024820152714964656e746963616c20616464726573732160701b60448201526064016103d0565b826001600160a01b0316846001600160a01b03161061222b57828461222e565b83835b90925090506001600160a01b0382166122795760405162461bcd60e51b815260206004820152600d60248201526c5a65726f20616464726573732160981b60448201526064016103d0565b9250929050565b60008084116122d15760405162461bcd60e51b815260206004820152601a60248201527f494e53554646494349454e545f4f55545055545f414d4f554e5400000000000060448201526064016103d0565b6000831180156122e15750600082115b6122fd5760405162461bcd60e51b81526004016103d090612855565b600061230985856129b5565b612315906127106129b5565b905060007f000000000000000000000000000000000000000000000000000000000000000061234487866129d4565b61234e91906129b5565b905061235a8183612995565b61236590600161297d565b9695505050505050565b606061237e8484600085612388565b90505b9392505050565b6060824710156123e95760405162461bcd60e51b815260206004820152602660248201527f416464726573733a20696e73756666696369656e742062616c616e636520666f6044820152651c8818d85b1b60d21b60648201526084016103d0565b6123f2856124ac565b61243e5760405162461bcd60e51b815260206004820152601d60248201527f416464726573733a2063616c6c20746f206e6f6e2d636f6e747261637400000060448201526064016103d0565b600080866001600160a01b0316858760405161245a9190612773565b60006040518083038185875af1925050503d8060008114612497576040519150601f19603f3d011682016040523d82523d6000602084013e61249c565b606091505b50915091506120d48282866124b6565b803b15155b919050565b606083156124c5575081612381565b8251156124d55782518084602001fd5b8160405162461bcd60e51b81526004016103d0919061280b565b80356001600160a01b03811681146124b157600080fd5b60008083601f840112612517578182fd5b50813567ffffffffffffffff81111561252e578182fd5b6020830191508360208260051b850101111561227957600080fd5b80516001600160701b03811681146124b157600080fd5b600060208284031215612571578081fd5b612381826124ef565b60006020828403121561258b578081fd5b81518015158114612381578182fd5b6000806000606084860312156125ae578182fd5b6125b784612549565b92506125c560208501612549565b9150604084015163ffffffff811681146125dd578182fd5b809150509250925092565b600080600080606085870312156125fd578081fd5b8435935060208501359250604085013567ffffffffffffffff811115612621578182fd5b61262d87828801612506565b95989497509550505050565b60008060008060008060a08789031215612651578182fd5b8635955060208701359450604087013567ffffffffffffffff811115612675578283fd5b61268189828a01612506565b90955093506126949050606088016124ef565b9150608087013590509295509295509295565b600080600080600080600060c0888a0312156126c1578081fd5b873596506020880135955060408801359450606088013567ffffffffffffffff8111156126ec578182fd5b6126f88a828b01612506565b909550935061270b9050608089016124ef565b915060a0880135905092959891949750929550565b600081518084526127388160208601602086016129eb565b601f01601f19169290920160200192915050565b6bffffffffffffffffffffffff19606093841b811682529190921b16601482015260280190565b600082516127858184602087016129eb565b9190910192915050565b6001600160f81b0319815260609390931b6bffffffffffffffffffffffff191660018401526015830191909152603582015260550190565b6020808252825182820181905260009190848201906040850190845b818110156127ff578351835292840192918401916001016127e3565b50909695505050505050565b6000602082526123816020830184612720565b60208082526018908201527f53706f74526f757465723a20494e56414c49445f504154480000000000000000604082015260600190565b60208082526028908201527f556e697377617056324c6962726172793a20494e53554646494349454e545f4c604082015267495155494449545960c01b606082015260800190565b60208082526026908201527f53706f74526f757465723a20494e53554646494349454e545f4f55545055545f604082015265105353d5539560d21b606082015260800190565b602080825260119082015270151c985919481a185cc8195e1c1a5c9959607a1b604082015260600190565b60208082526022908201527f53706f74526f757465723a204558434553534956455f494e5055545f414d4f55604082015261139560f21b606082015260800190565b600085825284602083015260018060a01b0384166040830152608060608301526123656080830184612720565b6000821982111561299057612990612a49565b500190565b6000826129b057634e487b7160e01b81526012600452602481fd5b500490565b60008160001904831182151516156129cf576129cf612a49565b500290565b6000828210156129e6576129e6612a49565b500390565b60005b83811015612a065781810151838201526020016129ee565b838111156117185750506000910152565b600081612a2657612a26612a49565b506000190190565b6000600019821415612a4257612a42612a49565b5060010190565b634e487b7160e01b600052601160045260246000fdfea26469706673582212207a3eff2cb717d9da989eda42f489b55a8dc58ff78df47899265e09dd458832a264736f6c63430008030033",
  "devdoc": {
    "kind": "dev",
    "methods": {},
    "title": "Router for spot trading on uniswap and sushiswap jointly the paramater amms represents the choice of amm pair along the route it is a bytes32 value where amms[i] == 0 for uniswap and amms[i] == 1 for sushi",
    "version": 1
  },
  "userdoc": {
    "kind": "user",
    "methods": {},
    "version": 1
  },
  "storageLayout": {
    "storage": [
      {
        "astId": 24179,
        "contract": "contracts/SpotRouter.sol:SpotRouter",
        "label": "amm1InitHash",
        "offset": 0,
        "slot": "0",
        "type": "t_bytes32"
      },
      {
        "astId": 24181,
        "contract": "contracts/SpotRouter.sol:SpotRouter",
        "label": "amm2InitHash",
        "offset": 0,
        "slot": "1",
        "type": "t_bytes32"
      },
      {
        "astId": 24183,
        "contract": "contracts/SpotRouter.sol:SpotRouter",
        "label": "amm3InitHash",
        "offset": 0,
        "slot": "2",
        "type": "t_bytes32"
      }
    ],
    "types": {
      "t_bytes32": {
        "encoding": "inplace",
        "label": "bytes32",
        "numberOfBytes": "32"
      }
    }
  }
}