{
  "address": "0x9fE46736679d2D9a65F0992F2272dE9f3c7fa6e0",
  "abi": [
    {
      "inputs": [
        {
          "internalType": "address",
          "name": "_roles",
          "type": "address"
        }
      ],
      "stateMutability": "nonpayable",
      "type": "constructor"
    },
    {
      "anonymous": false,
      "inputs": [
        {
          "indexed": false,
          "internalType": "uint256",
          "name": "amount",
          "type": "uint256"
        }
      ],
      "name": "LiquidationShortfall",
      "type": "event"
    },
    {
      "anonymous": false,
      "inputs": [
        {
          "indexed": true,
          "internalType": "address",
          "name": "previousOwner",
          "type": "address"
        },
        {
          "indexed": true,
          "internalType": "address",
          "name": "newOwner",
          "type": "address"
        }
      ],
      "name": "OwnershipTransferred",
      "type": "event"
    },
    {
      "inputs": [],
      "name": "ADMIN",
      "outputs": [
        {
          "internalType": "uint16",
          "name": "",
          "type": "uint16"
        }
      ],
      "stateMutability": "view",
      "type": "function"
    },
    {
      "inputs": [],
      "name": "AUTHORIZED_FUND_TRADER",
      "outputs": [
        {
          "internalType": "uint16",
          "name": "",
          "type": "uint16"
        }
      ],
      "stateMutability": "view",
      "type": "function"
    },
    {
      "inputs": [],
      "name": "BORROWER",
      "outputs": [
        {
          "internalType": "uint16",
          "name": "",
          "type": "uint16"
        }
      ],
      "stateMutability": "view",
      "type": "function"
    },
    {
      "inputs": [],
      "name": "FEE_CONTROLLER",
      "outputs": [
        {
          "internalType": "uint16",
          "name": "",
          "type": "uint16"
        }
      ],
      "stateMutability": "view",
      "type": "function"
    },
    {
      "inputs": [],
      "name": "FEE_SOURCE",
      "outputs": [
        {
          "internalType": "uint16",
          "name": "",
          "type": "uint16"
        }
      ],
      "stateMutability": "view",
      "type": "function"
    },
    {
      "inputs": [],
      "name": "FUND",
      "outputs": [
        {
          "internalType": "uint16",
          "name": "",
          "type": "uint16"
        }
      ],
      "stateMutability": "view",
      "type": "function"
    },
    {
      "inputs": [],
      "name": "INCENTIVE_DISTRIBUTION",
      "outputs": [
        {
          "internalType": "uint16",
          "name": "",
          "type": "uint16"
        }
      ],
      "stateMutability": "view",
      "type": "function"
    },
    {
      "inputs": [],
      "name": "INCENTIVE_REPORTER",
      "outputs": [
        {
          "internalType": "uint16",
          "name": "",
          "type": "uint16"
        }
      ],
      "stateMutability": "view",
      "type": "function"
    },
    {
      "inputs": [],
      "name": "LENDING",
      "outputs": [
        {
          "internalType": "uint16",
          "name": "",
          "type": "uint16"
        }
      ],
      "stateMutability": "view",
      "type": "function"
    },
    {
      "inputs": [],
      "name": "LIQUIDATOR",
      "outputs": [
        {
          "internalType": "uint16",
          "name": "",
          "type": "uint16"
        }
      ],
      "stateMutability": "view",
      "type": "function"
    },
    {
      "inputs": [],
      "name": "MARGIN_CALLER",
      "outputs": [
        {
          "internalType": "uint16",
          "name": "",
          "type": "uint16"
        }
      ],
      "stateMutability": "view",
      "type": "function"
    },
    {
      "inputs": [],
      "name": "MARGIN_TRADER",
      "outputs": [
        {
          "internalType": "uint16",
          "name": "",
          "type": "uint16"
        }
      ],
      "stateMutability": "view",
      "type": "function"
    },
    {
      "inputs": [],
      "name": "MARGIN_TRADING",
      "outputs": [
        {
          "internalType": "uint16",
          "name": "",
          "type": "uint16"
        }
      ],
      "stateMutability": "view",
      "type": "function"
    },
    {
      "inputs": [],
      "name": "PRICE_CONTROLLER",
      "outputs": [
        {
          "internalType": "uint16",
          "name": "",
          "type": "uint16"
        }
      ],
      "stateMutability": "view",
      "type": "function"
    },
    {
      "inputs": [],
      "name": "ROUTER",
      "outputs": [
        {
          "internalType": "uint16",
          "name": "",
          "type": "uint16"
        }
      ],
      "stateMutability": "view",
      "type": "function"
    },
    {
      "inputs": [],
      "name": "TOKEN_ACTIVATOR",
      "outputs": [
        {
          "internalType": "uint16",
          "name": "",
          "type": "uint16"
        }
      ],
      "stateMutability": "view",
      "type": "function"
    },
    {
      "inputs": [],
      "name": "WITHDRAWER",
      "outputs": [
        {
          "internalType": "uint16",
          "name": "",
          "type": "uint16"
        }
      ],
      "stateMutability": "view",
      "type": "function"
    },
    {
      "inputs": [
        {
          "internalType": "address[]",
          "name": "liquidationCandidates",
          "type": "address[]"
        },
        {
          "internalType": "address",
          "name": "currentCaller",
          "type": "address"
        }
      ],
      "name": "callMargin",
      "outputs": [
        {
          "internalType": "uint256",
          "name": "marginCallerCut",
          "type": "uint256"
        }
      ],
      "stateMutability": "nonpayable",
      "type": "function"
    },
    {
      "inputs": [
        {
          "internalType": "address",
          "name": "trader",
          "type": "address"
        }
      ],
      "name": "getBorrowAmounts",
      "outputs": [
        {
          "internalType": "address[]",
          "name": "borrowTokens",
          "type": "address[]"
        },
        {
          "internalType": "uint256[]",
          "name": "borrowAmounts",
          "type": "uint256[]"
        }
      ],
      "stateMutability": "view",
      "type": "function"
    },
    {
      "inputs": [
        {
          "internalType": "address",
          "name": "trader",
          "type": "address"
        }
      ],
      "name": "getHoldingAmounts",
      "outputs": [
        {
          "internalType": "address[]",
          "name": "holdingTokens",
          "type": "address[]"
        },
        {
          "internalType": "uint256[]",
          "name": "holdingAmounts",
          "type": "uint256[]"
        }
      ],
      "stateMutability": "view",
      "type": "function"
    },
    {
      "inputs": [
        {
          "internalType": "address",
          "name": "trader",
          "type": "address"
        },
        {
          "internalType": "address",
          "name": "token",
          "type": "address"
        },
        {
          "internalType": "uint256",
          "name": "amount",
          "type": "uint256"
        }
      ],
      "name": "getTradeBorrowAmount",
      "outputs": [
        {
          "internalType": "uint256",
          "name": "borrowAmount",
          "type": "uint256"
        }
      ],
      "stateMutability": "view",
      "type": "function"
    },
    {
      "inputs": [],
      "name": "leverage",
      "outputs": [
        {
          "internalType": "uint256",
          "name": "",
          "type": "uint256"
        }
      ],
      "stateMutability": "view",
      "type": "function"
    },
    {
      "inputs": [],
      "name": "liquidationThresholdPercent",
      "outputs": [
        {
          "internalType": "uint256",
          "name": "",
          "type": "uint256"
        }
      ],
      "stateMutability": "view",
      "type": "function"
    },
    {
      "inputs": [],
      "name": "owner",
      "outputs": [
        {
          "internalType": "address",
          "name": "",
          "type": "address"
        }
      ],
      "stateMutability": "view",
      "type": "function"
    },
    {
      "inputs": [
        {
          "internalType": "address",
          "name": "trader",
          "type": "address"
        },
        {
          "internalType": "address",
          "name": "borrowToken",
          "type": "address"
        },
        {
          "internalType": "uint256",
          "name": "borrowAmount",
          "type": "uint256"
        }
      ],
      "name": "registerBorrow",
      "outputs": [],
      "stateMutability": "nonpayable",
      "type": "function"
    },
    {
      "inputs": [
        {
          "internalType": "address",
          "name": "trader",
          "type": "address"
        },
        {
          "internalType": "address",
          "name": "token",
          "type": "address"
        },
        {
          "internalType": "uint256",
          "name": "depositAmount",
          "type": "uint256"
        }
      ],
      "name": "registerDeposit",
      "outputs": [
        {
          "internalType": "uint256",
          "name": "extinguishableDebt",
          "type": "uint256"
        }
      ],
      "stateMutability": "nonpayable",
      "type": "function"
    },
    {
      "inputs": [
        {
          "internalType": "address",
          "name": "trader",
          "type": "address"
        },
        {
          "internalType": "address",
          "name": "tokenFrom",
          "type": "address"
        },
        {
          "internalType": "address",
          "name": "tokenTo",
          "type": "address"
        },
        {
          "internalType": "uint256",
          "name": "inAmount",
          "type": "uint256"
        },
        {
          "internalType": "uint256",
          "name": "outAmount",
          "type": "uint256"
        }
      ],
      "name": "registerTradeAndBorrow",
      "outputs": [
        {
          "internalType": "uint256",
          "name": "extinguishableDebt",
          "type": "uint256"
        },
        {
          "internalType": "uint256",
          "name": "borrowAmount",
          "type": "uint256"
        }
      ],
      "stateMutability": "nonpayable",
      "type": "function"
    },
    {
      "inputs": [
        {
          "internalType": "address",
          "name": "trader",
          "type": "address"
        },
        {
          "internalType": "address",
          "name": "withdrawToken",
          "type": "address"
        },
        {
          "internalType": "uint256",
          "name": "withdrawAmount",
          "type": "uint256"
        }
      ],
      "name": "registerWithdrawal",
      "outputs": [],
      "stateMutability": "nonpayable",
      "type": "function"
    },
    {
      "inputs": [],
      "name": "renounceOwnership",
      "outputs": [],
      "stateMutability": "nonpayable",
      "type": "function"
    },
    {
      "inputs": [],
      "name": "roles",
      "outputs": [
        {
          "internalType": "contract Roles",
          "name": "",
          "type": "address"
        }
      ],
      "stateMutability": "view",
      "type": "function"
    },
    {
      "inputs": [
        {
          "internalType": "uint256",
          "name": "_leverage",
          "type": "uint256"
        }
      ],
      "name": "setLeverage",
      "outputs": [],
      "stateMutability": "nonpayable",
      "type": "function"
    },
    {
      "inputs": [
        {
          "internalType": "uint256",
          "name": "threshold",
          "type": "uint256"
        }
      ],
      "name": "setLiquidationThresholdPercent",
      "outputs": [],
      "stateMutability": "nonpayable",
      "type": "function"
    },
    {
      "inputs": [
        {
          "internalType": "address",
          "name": "token",
          "type": "address"
        },
        {
          "internalType": "uint256",
          "name": "cap",
          "type": "uint256"
        }
      ],
      "name": "setTokenCap",
      "outputs": [],
      "stateMutability": "nonpayable",
      "type": "function"
    },
    {
      "inputs": [
        {
          "internalType": "address",
          "name": "",
          "type": "address"
        }
      ],
      "name": "tokenCaps",
      "outputs": [
        {
          "internalType": "uint256",
          "name": "",
          "type": "uint256"
        }
      ],
      "stateMutability": "view",
      "type": "function"
    },
    {
      "inputs": [
        {
          "internalType": "address",
          "name": "",
          "type": "address"
        }
      ],
      "name": "totalLong",
      "outputs": [
        {
          "internalType": "uint256",
          "name": "",
          "type": "uint256"
        }
      ],
      "stateMutability": "view",
      "type": "function"
    },
    {
      "inputs": [
        {
          "internalType": "address",
          "name": "",
          "type": "address"
        }
      ],
      "name": "totalShort",
      "outputs": [
        {
          "internalType": "uint256",
          "name": "",
          "type": "uint256"
        }
      ],
      "stateMutability": "view",
      "type": "function"
    },
    {
      "inputs": [
        {
          "internalType": "address",
          "name": "newOwner",
          "type": "address"
        }
      ],
      "name": "transferOwnership",
      "outputs": [],
      "stateMutability": "nonpayable",
      "type": "function"
    }
  ],
  "transactionHash": "0xe552ffc757091cd9ec72089e8f366620e4afe469c3476b1f27a428b55485baf9",
  "args": [
    "0x866eAFC9A8558Fb36C468ac572c72a50a1fE0FA4"
  ],
  "solcInputHash": "8bb334f16016ad7c7643d1215e32bec2",
  "bytecode": "0x60806040526050600d553480156200001657600080fd5b5060405162003c8938038062003c898339810160408190526200003991620000bc565b600080546001600160a01b0319166001600160a01b0383161781556200005e620000b8565b600180546001600160a01b0319166001600160a01b038316908117909155604051919250906000907f8be0079c531659141344cd1fd0a4f28419497f9722a3daafe3b4186f6b6457e0908290a350506014600355620000ec565b3390565b600060208284031215620000ce578081fd5b81516001600160a01b0381168114620000e5578182fd5b9392505050565b613b8d80620000fc6000396000f3fe608060405234801561001057600080fd5b50600436106102775760003560e01c80635c275a3911610160578063a94c7c34116100d8578063d0eb66531161008c578063d5d7ed7f11610071578063d5d7ed7f14610469578063e0f3871f14610471578063f2fde38b1461048457610277565b8063d0eb665314610443578063d510c5351461045657610277565b8063bc44dcbc116100bd578063bc44dcbc14610420578063c76139d014610433578063cacf8d451461043b57610277565b8063a94c7c3414610410578063a9cc05361461041857610277565b806379575b231161012f57806383a49c7c1161011457806383a49c7c146103f85780638da5cb5b14610400578063a0098d691461040857610277565b806379575b23146103dd57806381ca6600146103f057610277565b80635c275a39146103b25780636612ce35146103ba57806366941984146103cd578063715018a6146103d557610277565b806332fe7b26116101f3578063409fdb72116101c257806348fb27b8116101a757806348fb27b814610384578063498d55eb1461038c57806352a664d91461039f57610277565b8063409fdb721461035b57806346b887961461037c57610277565b806332fe7b261461030a5780633500aa0b14610312578063387ccdc614610333578063392f5f641461034657610277565b806320c271261161024a5780632c86d98e1161022f5780632c86d98e146102f25780632fe94def146102fa578063320d2fa01461030257610277565b806320c27126146102ca5780632a0acc6a146102ea57610277565b8063065d570f1461027c57806316317e7e1461029a5780631bc5d81d146102af5780631d47e4a3146102b7575b600080fd5b610284610497565b604051610291919061397d565b60405180910390f35b6102ad6102a83660046134f1565b61049c565b005b61028461051d565b6102ad6102c53660046133b0565b610522565b6102dd6102d83660046132d7565b61058a565b60405161029191906139b6565b61028461059c565b6102dd6105a1565b6102846105a7565b6102dd6105ac565b6102846105b2565b610325610320366004613316565b6105b7565b6040516102919291906139eb565b6102dd6103413660046133db565b6108cb565b61034e610ce4565b6040516102919190613521565b61036e6103693660046132d7565b610d00565b604051610291929190613599565b610284610ef6565b610284610efb565b6102ad61039a366004613370565b610f00565b6102dd6103ad366004613370565b61108f565b610284611254565b6102dd6103c8366004613370565b611259565b61028461131d565b6102ad611322565b6102ad6103eb3660046134f1565b611404565b61028461147c565b610284611481565b61034e611486565b6102846114a2565b6102846114a7565b6102846114ac565b6102dd61042e3660046132d7565b6114b1565b6102846114c3565b6102846114c8565b6102ad610451366004613370565b6114cd565b61036e6104643660046132d7565b6115f0565b610284611868565b6102dd61047f3660046132d7565b61186d565b6102ad6104923660046132d7565b61187f565b600381565b6104a46119cd565b73ffffffffffffffffffffffffffffffffffffffff166104c2611486565b73ffffffffffffffffffffffffffffffffffffffff1614610518576040517f08c379a000000000000000000000000000000000000000000000000000000000815260040161050f90613831565b60405180910390fd5b600355565b600881565b61052b336119d1565b610561576040517f08c379a000000000000000000000000000000000000000000000000000000000815260040161050f90613629565b73ffffffffffffffffffffffffffffffffffffffff909116600090815260056020526040902055565b60076020526000908152604090205481565b606b81565b60025481565b606981565b60035481565b606781565b6000806105c333611a83565b6105f9576040517f08c379a000000000000000000000000000000000000000000000000000000000815260040161050f90613686565b73ffffffffffffffffffffffffffffffffffffffff8088166000908152600460209081526040808320938916835260018401909152902054156106b15773ffffffffffffffffffffffffffffffffffffffff86166000908152600182016020526040902054610669908590611adc565b9250610676818785611af6565b73ffffffffffffffffffffffffffffffffffffffff8616600090815260066020526040812080548592906106ab908490613a87565b90915550505b73ffffffffffffffffffffffffffffffffffffffff8716600090815260076020526040812080548792906106e6908490613a87565b909155506106f690508385613a87565b73ffffffffffffffffffffffffffffffffffffffff87166000908152600760205260408120805490919061072b9084906139f9565b909155505073ffffffffffffffffffffffffffffffffffffffff8616600090815260076020908152604080832054600590925290912054101561079a576040517f08c379a000000000000000000000000000000000000000000000000000000000815260040161050f90613866565b73ffffffffffffffffffffffffffffffffffffffff8716600090815260048201602052604090205485908111156108b2575073ffffffffffffffffffffffffffffffffffffffff871660009081526004820160205260409020546107fe8187613a87565b73ffffffffffffffffffffffffffffffffffffffff89166000908152600660205260408120805492955085929091906108389084906139f9565b909155505073ffffffffffffffffffffffffffffffffffffffff881660009081526006602090815260408083205460059092529091205410156108a7576040517f08c379a000000000000000000000000000000000000000000000000000000000815260040161050f90613866565b6108b2828985611c6d565b6108bf8289898489611f10565b50509550959350505050565b6000806108d6611f7d565b73ffffffffffffffffffffffffffffffffffffffff16637b23cbce336040518263ffffffff1660e01b815260040161090e9190613521565b602060405180830381600087803b15801561092857600080fd5b505af115801561093c573d6000803e3d6000fd5b505050506040513d601f19601f8201168201806040525081019061096091906134d1565b9050600061096e858361202a565b905061097a81846139f9565b9250600061098661277b565b905060006109926128d8565b9050818111156109dd577f3555ffae7677eb42103f0b9e11b61c758f452fae446684dec7a363dd38ab58fc6109c78383613a87565b6040516109d491906139b6565b60405180910390a15b60005b600b54811015610cd9576000600b8281548110610a26577f4e487b7100000000000000000000000000000000000000000000000000000000600052603260045260246000fd5b600091825260208083209091015473ffffffffffffffffffffffffffffffffffffffff1680835260049091526040822090925090610a6382612a2e565b90506000610a7083612a40565b9050600060028054606460035485610a889190613a4a565b610a929190613a11565b610a9c9190613a11565b610aa69190613a11565b90508915610abf57610ab8818c6139f9565b9a50610b22565b73ffffffffffffffffffffffffffffffffffffffff8581166000908152600c60205260409020600181018390556002810180547fffffffffffffffffffffffff000000000000000000000000000000000000000016928f16929092179091554390555b610b2c82826139f9565b8310610c6657610b3a612a53565b73ffffffffffffffffffffffffffffffffffffffff1663d9caed12610b5d612aab565b73ffffffffffffffffffffffffffffffffffffffff16631f1cb62b6040518163ffffffff1660e01b815260040160206040518083038186803b158015610ba257600080fd5b505afa158015610bb6573d6000803e3d6000fd5b505050506040513d601f19601f82011682018060405250810190610bda91906132fa565b8784610be68789613a87565b610bf09190613a87565b6040518463ffffffff1660e01b8152600401610c0e93929190613542565b602060405180830381600087803b158015610c2857600080fd5b505af1158015610c3c573d6000803e3d6000fd5b505050506040513d601f19601f82011682018060405250810190610c6091906134d1565b50610cb8565b600083610c7383856139f9565b610c7d9190613a87565b90507f3555ffae7677eb42103f0b9e11b61c758f452fae446684dec7a363dd38ab58fc81604051610cae91906139b6565b60405180910390a1505b610cc184612b03565b50505050508080610cd190613a9e565b9150506109e0565b505050505092915050565b60005473ffffffffffffffffffffffffffffffffffffffff1681565b73ffffffffffffffffffffffffffffffffffffffff8116600090815260046020908152604091829020600381018054845181850281018501909552808552606094859490929190830182828015610d8d57602002820191906000526020600020905b815473ffffffffffffffffffffffffffffffffffffffff168152600190910190602001808311610d62575b5050506003840154929550505067ffffffffffffffff811115610dd9577f4e487b7100000000000000000000000000000000000000000000000000000000600052604160045260246000fd5b604051908082528060200260200182016040528015610e02578160200160208202803683370190505b50915060005b8084511115610eef576000848281518110610e4c577f4e487b7100000000000000000000000000000000000000000000000000000000600052603260045260246000fd5b602002602001015190508260040160008273ffffffffffffffffffffffffffffffffffffffff1673ffffffffffffffffffffffffffffffffffffffff16815260200190815260200160002054848381518110610ed1577f4e487b7100000000000000000000000000000000000000000000000000000000600052603260045260246000fd5b60209081029190910101525080610ee781613a9e565b915050610e08565b5050915091565b600681565b606681565b610f0933611a83565b610f3f576040517f08c379a000000000000000000000000000000000000000000000000000000000815260040161050f90613920565b73ffffffffffffffffffffffffffffffffffffffff821660009081526006602052604081208054839290610f749084906139f9565b909155505073ffffffffffffffffffffffffffffffffffffffff821660009081526007602052604081208054839290610fae9084906139f9565b909155505073ffffffffffffffffffffffffffffffffffffffff821660009081526006602090815260408083205460059092529091205410801590611023575073ffffffffffffffffffffffffffffffffffffffff821660009081526007602090815260408083205460059092529091205410155b611059576040517f08c379a000000000000000000000000000000000000000000000000000000000815260040161050f90613866565b73ffffffffffffffffffffffffffffffffffffffff83166000908152600460205260409020611089818484611c6d565b50505050565b600061109a33611a83565b6110d0576040517f08c379a000000000000000000000000000000000000000000000000000000000815260040161050f90613920565b73ffffffffffffffffffffffffffffffffffffffff8316600090815260076020526040812080548492906111059084906139f9565b909155505073ffffffffffffffffffffffffffffffffffffffff83166000908152600760209081526040808320546005909252909120541015611174576040517f08c379a000000000000000000000000000000000000000000000000000000000815260040161050f90613866565b73ffffffffffffffffffffffffffffffffffffffff841660009081526004602052604090206111a4818585612c7f565b73ffffffffffffffffffffffffffffffffffffffff841660009081526001820160205260409020541561124c5773ffffffffffffffffffffffffffffffffffffffff84166000908152600182016020526040902054611204908490611adc565b9150611211818584611af6565b73ffffffffffffffffffffffffffffffffffffffff841660009081526006602052604081208054849290611246908490613a87565b90915550505b509392505050565b606581565b600061126433611a83565b61129a576040517f08c379a000000000000000000000000000000000000000000000000000000000815260040161050f90613777565b73ffffffffffffffffffffffffffffffffffffffff8085166000908152600460208181526040808420948816845291840190529020546112da9084613a87565b91506112e7818584612d24565b61124c576040517f08c379a000000000000000000000000000000000000000000000000000000000815260040161050f906136e3565b600181565b61132a6119cd565b73ffffffffffffffffffffffffffffffffffffffff16611348611486565b73ffffffffffffffffffffffffffffffffffffffff1614611395576040517f08c379a000000000000000000000000000000000000000000000000000000000815260040161050f90613831565b60015460405160009173ffffffffffffffffffffffffffffffffffffffff16907f8be0079c531659141344cd1fd0a4f28419497f9722a3daafe3b4186f6b6457e0908390a3600180547fffffffffffffffffffffffff0000000000000000000000000000000000000000169055565b61140c6119cd565b73ffffffffffffffffffffffffffffffffffffffff1661142a611486565b73ffffffffffffffffffffffffffffffffffffffff1614611477576040517f08c379a000000000000000000000000000000000000000000000000000000000815260040161050f90613831565b600255565b606a81565b600981565b60015473ffffffffffffffffffffffffffffffffffffffff1690565b600281565b600581565b606881565b60066020526000908152604090205481565b606c81565b600481565b6114d633611a83565b61150c576040517f08c379a000000000000000000000000000000000000000000000000000000000815260040161050f90613920565b73ffffffffffffffffffffffffffffffffffffffff80841660009081526004602090815260408083209386168352600790915281208054849290611551908490613a87565b909155505073ffffffffffffffffffffffffffffffffffffffff83166000908152600482016020526040902054611589908390613a87565b73ffffffffffffffffffffffffffffffffffffffff841660009081526004830160205260409020556115ba81612d56565b611089576040517f08c379a000000000000000000000000000000000000000000000000000000000815260040161050f906137d4565b73ffffffffffffffffffffffffffffffffffffffff8116600090815260046020908152604091829020805483518184028101840190945280845260609384939091839183018282801561167957602002820191906000526020600020905b815473ffffffffffffffffffffffffffffffffffffffff16815260019091019060200180831161164e575b50508454939650505067ffffffffffffffff82111590506116c3577f4e487b7100000000000000000000000000000000000000000000000000000000600052604160045260246000fd5b6040519080825280602002602001820160405280156116ec578160200160208202803683370190505b50915060005b8084511115610eef576000848281518110611736577f4e487b7100000000000000000000000000000000000000000000000000000000600052603260045260246000fd5b60200260200101519050611748612da1565b73ffffffffffffffffffffffffffffffffffffffff828116600090815260018601602090815260408083205460028901909252918290205491517f687680ed000000000000000000000000000000000000000000000000000000008152939092169263687680ed926117c19290918691906004016139bf565b60206040518083038186803b1580156117d957600080fd5b505afa1580156117ed573d6000803e3d6000fd5b505050506040513d601f19601f820116820180604052508101906118119190613509565b84838151811061184a577f4e487b7100000000000000000000000000000000000000000000000000000000600052603260045260246000fd5b6020908102919091010152508061186081613a9e565b9150506116f2565b600781565b60056020526000908152604090205481565b6118876119cd565b73ffffffffffffffffffffffffffffffffffffffff166118a5611486565b73ffffffffffffffffffffffffffffffffffffffff16146118f2576040517f08c379a000000000000000000000000000000000000000000000000000000000815260040161050f90613831565b73ffffffffffffffffffffffffffffffffffffffff811661193f576040517f08c379a000000000000000000000000000000000000000000000000000000000815260040161050f9061371a565b60015460405173ffffffffffffffffffffffffffffffffffffffff8084169216907f8be0079c531659141344cd1fd0a4f28419497f9722a3daafe3b4186f6b6457e090600090a3600180547fffffffffffffffffffffffff00000000000000000000000000000000000000001673ffffffffffffffffffffffffffffffffffffffff92909216919091179055565b3390565b600080546040517fd87fefd200000000000000000000000000000000000000000000000000000000815273ffffffffffffffffffffffffffffffffffffffff9091169063d87fefd290611a2b90600990869060040161398c565b60206040518083038186803b158015611a4357600080fd5b505afa158015611a57573d6000803e3d6000fd5b505050506040513d601f19601f82011682018060405250810190611a7b91906134d1565b90505b919050565b600080546040517fd87fefd200000000000000000000000000000000000000000000000000000000815273ffffffffffffffffffffffffffffffffffffffff9091169063d87fefd290611a2b906004908690820161398c565b600081831115611aed575080611af0565b50815b92915050565b611afe612da1565b73ffffffffffffffffffffffffffffffffffffffff838116600090815260018601602090815260408083205460028901909252918290205491517fe695fa68000000000000000000000000000000000000000000000000000000008152939092169263e695fa6892611b779290918791906004016139bf565b602060405180830381600087803b158015611b9157600080fd5b505af1158015611ba5573d6000803e3d6000fd5b505050506040513d601f19601f82011682018060405250810190611bc99190613509565b73ffffffffffffffffffffffffffffffffffffffff831660009081526001850160205260409020819055611bfe908290613a87565b73ffffffffffffffffffffffffffffffffffffffff831660009081526001850160209081526040808320939093556004860190522054611c3f908290613a87565b73ffffffffffffffffffffffffffffffffffffffff9092166000908152600490930160205250604090912055565b611c778383612df9565b611d885782546001810184556000848152602090200180547fffffffffffffffffffffffff00000000000000000000000000000000000000001673ffffffffffffffffffffffffffffffffffffffff8416179055611cd3612da1565b73ffffffffffffffffffffffffffffffffffffffff1663e7bde5c1836040518263ffffffff1660e01b8152600401611d0b9190613521565b60206040518083038186803b158015611d2357600080fd5b505afa158015611d37573d6000803e3d6000fd5b505050506040513d601f19601f82011682018060405250810190611d5b9190613509565b73ffffffffffffffffffffffffffffffffffffffff83166000908152600285016020526040902055611e84565b611d90612da1565b73ffffffffffffffffffffffffffffffffffffffff838116600090815260018601602090815260408083205460028901909252918290205491517fe695fa68000000000000000000000000000000000000000000000000000000008152939092169263e695fa6892611e099290918791906004016139bf565b602060405180830381600087803b158015611e2357600080fd5b505af1158015611e37573d6000803e3d6000fd5b505050506040513d601f19601f82011682018060405250810190611e5b9190613509565b73ffffffffffffffffffffffffffffffffffffffff831660009081526001850160205260409020555b73ffffffffffffffffffffffffffffffffffffffff8216600090815260018401602052604081208054839290611ebb9084906139f9565b90915550611ecc9050838383612c7f565b611ed583612d56565b611f0b576040517f08c379a000000000000000000000000000000000000000000000000000000000815260040161050f906138c3565b505050565b73ffffffffffffffffffffffffffffffffffffffff84166000908152600486016020526040902054611f43908390613a87565b73ffffffffffffffffffffffffffffffffffffffff85166000908152600487016020526040902055611f76858483612c7f565b5050505050565b600080546040517f3c9c8f9c00000000000000000000000000000000000000000000000000000000815273ffffffffffffffffffffffffffffffffffffffff90911690633c9c8f9c90611fd590606b9060040161397d565b60206040518083038186803b158015611fed57600080fd5b505afa158015612001573d6000803e3d6000fd5b505050506040513d601f19601f8201168201806040525081019061202591906132fa565b905090565b60408051600080825260208201928390529051909161204c9160099190613217565b50604080516000815260208101918290525161206a91600a91613217565b50604080516000815260208101918290525161208891600b91613217565b5060005b80845111156127745760008482815181106120d0577f4e487b7100000000000000000000000000000000000000000000000000000000600052603260045260246000fd5b602002602001015190506000600460008373ffffffffffffffffffffffffffffffffffffffff1673ffffffffffffffffffffffffffffffffffffffff168152602001908152602001600020905061212681612e27565b1561253557600b805460018101825560009182527f0175b7a638427703f0dbe7bb9bbf987a2551717b34e79f33b5b1008d1fa01db90180547fffffffffffffffffffffffff00000000000000000000000000000000000000001673ffffffffffffffffffffffffffffffffffffffff85161790555b60038201548110156123135760008260030182815481106121e5577f4e487b7100000000000000000000000000000000000000000000000000000000600052603260045260246000fd5b600091825260208083209091015473ffffffffffffffffffffffffffffffffffffffff168083526008909152604090912060028101549192509043146122bb5773ffffffffffffffffffffffffffffffffffffffff821660008181526004860160205260408120546001808501919091558184554360028501556009805491820181559091527f6e1540171b6c0c960b71a7020d9f60077f6af931a8bbf590da0223dacf75c7af0180547fffffffffffffffffffffffff00000000000000000000000000000000000000001690911790556122fe565b73ffffffffffffffffffffffffffffffffffffffff82166000908152600485016020526040812054600183018054919290916122f89084906139f9565b90915550505b5050808061230b90613a9e565b91505061219b565b5060005b815481101561253357600082600001828154811061235e577f4e487b7100000000000000000000000000000000000000000000000000000000600052603260045260246000fd5b600091825260208083209091015473ffffffffffffffffffffffffffffffffffffffff168083526008909152604082209092509061239a612da1565b73ffffffffffffffffffffffffffffffffffffffff1663e7bde5c1846040518263ffffffff1660e01b81526004016123d29190613521565b60206040518083038186803b1580156123ea57600080fd5b505afa1580156123fe573d6000803e3d6000fd5b505050506040513d601f19601f820116820180604052508101906124229190613509565b73ffffffffffffffffffffffffffffffffffffffff8416600090815260028701602090815260408083205460018a019092528220549293509091612467908490613a4a565b6124719190613a11565b9050438360020154146125025760006001848101829055828555436002860155600a805491820181559091527fc65a7bb8d6351c1cf70c95a316cc6a92839c986682d98bc35f958f4883f9d2a80180547fffffffffffffffffffffffff00000000000000000000000000000000000000001673ffffffffffffffffffffffffffffffffffffffff861617905561251c565b8083600001600082825461251691906139f9565b90915550505b50505050808061252b90613a9e565b915050612317565b505b73ffffffffffffffffffffffffffffffffffffffff82166000908152600c6020526040902060018101541580159061256a5750855b1561275e578054600090612595906125834360016139f9565b61258d9190613a87565b600d54611adc565b90506000600d548360010154836125ac9190613a4a565b6125b69190613a11565b90506125c0612a53565b73ffffffffffffffffffffffffffffffffffffffff1663d9caed126125e3612aab565b73ffffffffffffffffffffffffffffffffffffffff16631f1cb62b6040518163ffffffff1660e01b815260040160206040518083038186803b15801561262857600080fd5b505afa15801561263c573d6000803e3d6000fd5b505050506040513d601f19601f8201168201806040525081019061266091906132fa565b60028601546040517fffffffff0000000000000000000000000000000000000000000000000000000060e085901b1681526126b7929173ffffffffffffffffffffffffffffffffffffffff16908690600401613542565b602060405180830381600087803b1580156126d157600080fd5b505af11580156126e5573d6000803e3d6000fd5b505050506040513d601f19601f8201168201806040525081019061270991906134d1565b5080836001015461271a9190613a87565b61272490886139f9565b6000600185018190556002850180547fffffffffffffffffffffffff00000000000000000000000000000000000000001690558455965050505b505050808061276c90613a9e565b91505061208c565b5092915050565b6000805b6009548110156128d4576000600982815481106127c5577f4e487b7100000000000000000000000000000000000000000000000000000000600052603260045260246000fd5b600091825260208083209091015473ffffffffffffffffffffffffffffffffffffffff168083526008909152604090912080546001820154929350909111156128bf578054600182015460009161281b91613a87565b9050612825612aab565b73ffffffffffffffffffffffffffffffffffffffff166305883f7c84836040518363ffffffff1660e01b815260040161285f929190613573565b602060405180830381600087803b15801561287957600080fd5b505af115801561288d573d6000803e3d6000fd5b505050506040513d601f19601f820116820180604052508101906128b19190613509565b6128bb90866139f9565b9450505b505080806128cc90613a9e565b91505061277f565b5090565b6000805b600a548110156128d4576000600a8281548110612922577f4e487b7100000000000000000000000000000000000000000000000000000000600052603260045260246000fd5b600091825260208083209091015473ffffffffffffffffffffffffffffffffffffffff16808352600890915260409091206001810154815492935090911115612a195761296d612aab565b73ffffffffffffffffffffffffffffffffffffffff166305883f7c838360010154846000015461299d9190613a87565b6040518363ffffffff1660e01b81526004016129ba929190613573565b602060405180830381600087803b1580156129d457600080fd5b505af11580156129e8573d6000803e3d6000fd5b505050506040513d601f19601f82011682018060405250810190612a0c9190613509565b612a1690856139f9565b93505b50508080612a2690613a9e565b9150506128dc565b6000611a7b8260030183600401612e81565b6000611a7b826001810160028201612fcf565b600080546040517f3c9c8f9c00000000000000000000000000000000000000000000000000000000815273ffffffffffffffffffffffffffffffffffffffff90911690633c9c8f9c90611fd59060659060040161397d565b600080546040517f3c9c8f9c00000000000000000000000000000000000000000000000000000000815273ffffffffffffffffffffffffffffffffffffffff90911690633c9c8f9c90611fd590606a9060040161397d565b60005b8154811015612b9e576000826000018281548110612b4d577f4e487b7100000000000000000000000000000000000000000000000000000000600052603260045260246000fd5b600091825260208083209091015473ffffffffffffffffffffffffffffffffffffffff1682526001850181526040808320839055600286019091528120555080612b9681613a9e565b915050612b06565b5060005b6003820154811015612c62576000826003018281548110612bec577f4e487b7100000000000000000000000000000000000000000000000000000000600052603260045260246000fd5b600091825260208083209091015473ffffffffffffffffffffffffffffffffffffffff168252600485018152604080832083905560058601909152902080547fffffffffffffffffffffffffffffffffffffffffffffffffffffffffffffff001690555080612c5a81613a9e565b915050612ba2565b50612c6e81600061329d565b612c7c60038201600061329d565b50565b612c898383613077565b612ce357600383018054600181018255600091825260209091200180547fffffffffffffffffffffffff00000000000000000000000000000000000000001673ffffffffffffffffffffffffffffffffffffffff84161790555b73ffffffffffffffffffffffffffffffffffffffff8216600090815260048401602052604081208054839290612d1a9084906139f9565b9091555050505050565b73ffffffffffffffffffffffffffffffffffffffff821660009081526004840160205260409020548111159392505050565b600080612d6283612a40565b90506000612d6f84612a2e565b905060025482612d7f9190613a4a565b600254612d8d9060016139f9565b612d979083613a4a565b1015949350505050565b600080546040517f3c9c8f9c00000000000000000000000000000000000000000000000000000000815273ffffffffffffffffffffffffffffffffffffffff90911690633c9c8f9c90611fd59060669060040161397d565b73ffffffffffffffffffffffffffffffffffffffff1660009081526002919091016020526040902054151590565b600080612e3383612a40565b90506000612e4084612a2e565b9050816003546002546064612e559190613a4a565b612e5f91906139f9565b612e699190613a4a565b600254612e769083613a4a565b612d97906064613a4a565b6000805b8354811015612774576000848281548110612ec9577f4e487b7100000000000000000000000000000000000000000000000000000000600052603260045260246000fd5b60009182526020909120015473ffffffffffffffffffffffffffffffffffffffff169050612ef5612aab565b73ffffffffffffffffffffffffffffffffffffffff828116600090815260208790526040908190205490517fe47109a9000000000000000000000000000000000000000000000000000000008152929091169163e47109a991612f5d91859190600401613573565b602060405180830381600087803b158015612f7757600080fd5b505af1158015612f8b573d6000803e3d6000fd5b505050506040513d601f19601f82011682018060405250810190612faf9190613509565b612fb990846139f9565b9250508080612fc790613a9e565b915050612e85565b6000805b845481101561124c576000858281548110613017577f4e487b7100000000000000000000000000000000000000000000000000000000600052603260045260246000fd5b600091825260208083209091015473ffffffffffffffffffffffffffffffffffffffff1680835290879052604090912054909150613057908290866130a6565b61306190846139f9565b925050808061306f90613a9e565b915050612fd3565b73ffffffffffffffffffffffffffffffffffffffff166000908152600591909101602052604090205460ff1690565b6000806130b1612da1565b73ffffffffffffffffffffffffffffffffffffffff1663e7bde5c1866040518263ffffffff1660e01b81526004016130e99190613521565b60206040518083038186803b15801561310157600080fd5b505afa158015613115573d6000803e3d6000fd5b505050506040513d601f19601f820116820180604052508101906131399190613509565b73ffffffffffffffffffffffffffffffffffffffff86166000908152602085905260408120549192509061316d8387613a4a565b6131779190613a11565b9050613181612aab565b73ffffffffffffffffffffffffffffffffffffffff1663e47109a987836040518363ffffffff1660e01b81526004016131bb929190613573565b602060405180830381600087803b1580156131d557600080fd5b505af11580156131e9573d6000803e3d6000fd5b505050506040513d601f19601f8201168201806040525081019061320d9190613509565b9695505050505050565b828054828255906000526020600020908101928215613291579160200282015b8281111561329157825182547fffffffffffffffffffffffff00000000000000000000000000000000000000001673ffffffffffffffffffffffffffffffffffffffff909116178255602090920191600190910190613237565b506128d49291506132b7565b5080546000825590600052602060002090810190612c7c91905b5b808211156128d457600081556001016132b8565b8035611a7e81613b35565b6000602082840312156132e8578081fd5b81356132f381613b35565b9392505050565b60006020828403121561330b578081fd5b81516132f381613b35565b600080600080600060a0868803121561332d578081fd5b853561333881613b35565b9450602086013561334881613b35565b9350604086013561335881613b35565b94979396509394606081013594506080013592915050565b600080600060608486031215613384578283fd5b833561338f81613b35565b9250602084013561339f81613b35565b929592945050506040919091013590565b600080604083850312156133c2578182fd5b82356133cd81613b35565b946020939093013593505050565b600080604083850312156133ed578182fd5b823567ffffffffffffffff80821115613404578384fd5b818501915085601f830112613417578384fd5b813560208282111561342b5761342b613b06565b8082026040517fffffffffffffffffffffffffffffffffffffffffffffffffffffffffffffffe0603f8301168101818110868211171561346d5761346d613b06565b604052838152828101945085830182870184018b101561348b578889fd5b8896505b848710156134b4576134a0816132cc565b86526001969096019594830194830161348f565b5096506134c490508782016132cc565b9450505050509250929050565b6000602082840312156134e2578081fd5b815180151581146132f3578182fd5b600060208284031215613502578081fd5b5035919050565b60006020828403121561351a578081fd5b5051919050565b73ffffffffffffffffffffffffffffffffffffffff91909116815260200190565b73ffffffffffffffffffffffffffffffffffffffff9384168152919092166020820152604081019190915260600190565b73ffffffffffffffffffffffffffffffffffffffff929092168252602082015260400190565b604080825283519082018190526000906020906060840190828701845b828110156135e857815173ffffffffffffffffffffffffffffffffffffffff16845292840192908401906001016135b6565b50505083810382850152845180825285830191830190845b8181101561361c57835183529284019291840191600101613600565b5090979650505050505050565b60208082526026908201527f43616c6c6572206e6f7420617574686f72697a656420746f2073657420746f6b60408201527f656e206361700000000000000000000000000000000000000000000000000000606082015260800190565b60208082526039908201527f43616c6c696e6720636f6e7472616374206973206e6f7420616e20617574686f60408201527f72697a6564206d617267696e20747261646572206167656e7400000000000000606082015260800190565b60208082526018908201527f43616e277420626f72726f772066756c6c20616d6f756e740000000000000000604082015260600190565b60208082526026908201527f4f776e61626c653a206e6577206f776e657220697320746865207a65726f206160408201527f6464726573730000000000000000000000000000000000000000000000000000606082015260800190565b60208082526033908201527f43616c6c696e6720636f6e7472616374206973206e6f7420616e20617574686f60408201527f72697a6564206d617267696e2074726164657200000000000000000000000000606082015260800190565b60208082526026908201527f4163636f756e742062616c616e636520697320746f6f206c6f7720746f20776960408201527f7468647261770000000000000000000000000000000000000000000000000000606082015260800190565b6020808252818101527f4f776e61626c653a2063616c6c6572206973206e6f7420746865206f776e6572604082015260600190565b60208082526039908201527f457863656564696e6720676c6f62616c206578706f737572652063617020746f60408201527f20746f6b656e202d2d2074727920616761696e206c6174657200000000000000606082015260800190565b60208082526022908201527f43616e277420626f72726f773a20696e73756666696369656e742062616c616e60408201527f6365000000000000000000000000000000000000000000000000000000000000606082015260800190565b6020808252602a908201527f43616c6c696e6720636f6e7472616374206e6f7420617574686f72697a65642060408201527f746f206465706f73697400000000000000000000000000000000000000000000606082015260800190565b61ffff91909116815260200190565b61ffff92909216825273ffffffffffffffffffffffffffffffffffffffff16602082015260400190565b90815260200190565b92835273ffffffffffffffffffffffffffffffffffffffff919091166020830152604082015260600190565b918252602082015260400190565b60008219821115613a0c57613a0c613ad7565b500190565b600082613a45577f4e487b710000000000000000000000000000000000000000000000000000000081526012600452602481fd5b500490565b6000817fffffffffffffffffffffffffffffffffffffffffffffffffffffffffffffffff0483118215151615613a8257613a82613ad7565b500290565b600082821015613a9957613a99613ad7565b500390565b60007fffffffffffffffffffffffffffffffffffffffffffffffffffffffffffffffff821415613ad057613ad0613ad7565b5060010190565b7f4e487b7100000000000000000000000000000000000000000000000000000000600052601160045260246000fd5b7f4e487b7100000000000000000000000000000000000000000000000000000000600052604160045260246000fd5b73ffffffffffffffffffffffffffffffffffffffff81168114612c7c57600080fdfea26469706673582212201ef0e940c4b88e8b2658ad476a57c031337d41ca370cfec26b092378e60915e264736f6c63430008010033",
  "devdoc": {
    "kind": "dev",
    "methods": {
      "owner()": {
        "details": "Returns the address of the current owner."
      },
      "renounceOwnership()": {
        "details": "Leaves the contract without owner. It will not be possible to call `onlyOwner` functions anymore. Can only be called by the current owner. NOTE: Renouncing ownership will leave the contract without an owner, thereby removing any functionality that is only available to the owner."
      },
      "transferOwnership(address)": {
        "details": "Transfers ownership of the contract to a new account (`newOwner`). Can only be called by the current owner."
      }
    },
    "version": 1
  },
  "userdoc": {
    "kind": "user",
    "methods": {},
    "version": 1
  },
  "storageLayout": {
    "storage": [
      {
        "astId": 9085,
        "contract": "contracts/CrossMarginTrading.sol:CrossMarginTrading",
        "label": "roles",
        "offset": 0,
        "slot": "0",
        "type": "t_contract(Roles)9424"
      },
      {
        "astId": 381,
        "contract": "contracts/CrossMarginTrading.sol:CrossMarginTrading",
        "label": "_owner",
        "offset": 0,
        "slot": "1",
        "type": "t_address"
      },
      {
        "astId": 4152,
        "contract": "contracts/CrossMarginTrading.sol:CrossMarginTrading",
        "label": "leverage",
        "offset": 0,
        "slot": "2",
        "type": "t_uint256"
      },
      {
        "astId": 4154,
        "contract": "contracts/CrossMarginTrading.sol:CrossMarginTrading",
        "label": "liquidationThresholdPercent",
        "offset": 0,
        "slot": "3",
        "type": "t_uint256"
      },
      {
        "astId": 4159,
        "contract": "contracts/CrossMarginTrading.sol:CrossMarginTrading",
        "label": "marginAccounts",
        "offset": 0,
        "slot": "4",
        "type": "t_mapping(t_address,t_struct(CrossMarginAccount)4142_storage)"
      },
      {
        "astId": 4163,
        "contract": "contracts/CrossMarginTrading.sol:CrossMarginTrading",
        "label": "tokenCaps",
        "offset": 0,
        "slot": "5",
        "type": "t_mapping(t_address,t_uint256)"
      },
      {
        "astId": 4167,
        "contract": "contracts/CrossMarginTrading.sol:CrossMarginTrading",
        "label": "totalShort",
        "offset": 0,
        "slot": "6",
        "type": "t_mapping(t_address,t_uint256)"
      },
      {
        "astId": 4171,
        "contract": "contracts/CrossMarginTrading.sol:CrossMarginTrading",
        "label": "totalLong",
        "offset": 0,
        "slot": "7",
        "type": "t_mapping(t_address,t_uint256)"
      },
      {
        "astId": 5291,
        "contract": "contracts/CrossMarginTrading.sol:CrossMarginTrading",
        "label": "liquidationAmounts",
        "offset": 0,
        "slot": "8",
        "type": "t_mapping(t_address,t_struct(Liquidation)5286_storage)"
      },
      {
        "astId": 5294,
        "contract": "contracts/CrossMarginTrading.sol:CrossMarginTrading",
        "label": "sellTokens",
        "offset": 0,
        "slot": "9",
        "type": "t_array(t_address)dyn_storage"
      },
      {
        "astId": 5297,
        "contract": "contracts/CrossMarginTrading.sol:CrossMarginTrading",
        "label": "buyTokens",
        "offset": 0,
        "slot": "10",
        "type": "t_array(t_address)dyn_storage"
      },
      {
        "astId": 5300,
        "contract": "contracts/CrossMarginTrading.sol:CrossMarginTrading",
        "label": "tradersToLiquidate",
        "offset": 0,
        "slot": "11",
        "type": "t_array(t_address)dyn_storage"
      },
      {
        "astId": 5312,
        "contract": "contracts/CrossMarginTrading.sol:CrossMarginTrading",
        "label": "stakeAttackRecords",
        "offset": 0,
        "slot": "12",
        "type": "t_mapping(t_address,t_struct(MCRecord)5307_storage)"
      },
      {
        "astId": 5315,
        "contract": "contracts/CrossMarginTrading.sol:CrossMarginTrading",
        "label": "mcAttackWindow",
        "offset": 0,
        "slot": "13",
        "type": "t_uint256"
      }
    ],
    "types": {
      "t_address": {
        "encoding": "inplace",
        "label": "address",
        "numberOfBytes": "20"
      },
      "t_array(t_address)dyn_storage": {
        "base": "t_address",
        "encoding": "dynamic_array",
        "label": "address[]",
        "numberOfBytes": "32"
      },
      "t_bool": {
        "encoding": "inplace",
        "label": "bool",
        "numberOfBytes": "1"
      },
      "t_contract(Roles)9424": {
        "encoding": "inplace",
        "label": "contract Roles",
        "numberOfBytes": "20"
      },
      "t_mapping(t_address,t_bool)": {
        "encoding": "mapping",
        "key": "t_address",
        "label": "mapping(address => bool)",
        "numberOfBytes": "32",
        "value": "t_bool"
      },
      "t_mapping(t_address,t_struct(CrossMarginAccount)4142_storage)": {
        "encoding": "mapping",
        "key": "t_address",
        "label": "mapping(address => struct CrossMarginAccount)",
        "numberOfBytes": "32",
        "value": "t_struct(CrossMarginAccount)4142_storage"
      },
      "t_mapping(t_address,t_struct(Liquidation)5286_storage)": {
        "encoding": "mapping",
        "key": "t_address",
        "label": "mapping(address => struct CrossMarginTrading.Liquidation)",
        "numberOfBytes": "32",
        "value": "t_struct(Liquidation)5286_storage"
      },
      "t_mapping(t_address,t_struct(MCRecord)5307_storage)": {
        "encoding": "mapping",
        "key": "t_address",
        "label": "mapping(address => struct CrossMarginTrading.MCRecord)",
        "numberOfBytes": "32",
        "value": "t_struct(MCRecord)5307_storage"
      },
      "t_mapping(t_address,t_uint256)": {
        "encoding": "mapping",
        "key": "t_address",
        "label": "mapping(address => uint256)",
        "numberOfBytes": "32",
        "value": "t_uint256"
      },
      "t_struct(CrossMarginAccount)4142_storage": {
        "encoding": "inplace",
        "label": "struct CrossMarginAccount",
        "members": [
          {
            "astId": 4122,
            "contract": "contracts/CrossMarginTrading.sol:CrossMarginTrading",
            "label": "borrowTokens",
            "offset": 0,
            "slot": "0",
            "type": "t_array(t_address)dyn_storage"
          },
          {
            "astId": 4126,
            "contract": "contracts/CrossMarginTrading.sol:CrossMarginTrading",
            "label": "borrowed",
            "offset": 0,
            "slot": "1",
            "type": "t_mapping(t_address,t_uint256)"
          },
          {
            "astId": 4130,
            "contract": "contracts/CrossMarginTrading.sol:CrossMarginTrading",
            "label": "borrowedYieldQuotientsFP",
            "offset": 0,
            "slot": "2",
            "type": "t_mapping(t_address,t_uint256)"
          },
          {
            "astId": 4133,
            "contract": "contracts/CrossMarginTrading.sol:CrossMarginTrading",
            "label": "holdingTokens",
            "offset": 0,
            "slot": "3",
            "type": "t_array(t_address)dyn_storage"
          },
          {
            "astId": 4137,
            "contract": "contracts/CrossMarginTrading.sol:CrossMarginTrading",
            "label": "holdings",
            "offset": 0,
            "slot": "4",
            "type": "t_mapping(t_address,t_uint256)"
          },
          {
            "astId": 4141,
            "contract": "contracts/CrossMarginTrading.sol:CrossMarginTrading",
            "label": "holdsToken",
            "offset": 0,
            "slot": "5",
            "type": "t_mapping(t_address,t_bool)"
          }
        ],
        "numberOfBytes": "192"
      },
      "t_struct(Liquidation)5286_storage": {
        "encoding": "inplace",
        "label": "struct CrossMarginTrading.Liquidation",
        "members": [
          {
            "astId": 5281,
            "contract": "contracts/CrossMarginTrading.sol:CrossMarginTrading",
            "label": "buy",
            "offset": 0,
            "slot": "0",
            "type": "t_uint256"
          },
          {
            "astId": 5283,
            "contract": "contracts/CrossMarginTrading.sol:CrossMarginTrading",
            "label": "sell",
            "offset": 0,
            "slot": "1",
            "type": "t_uint256"
          },
          {
            "astId": 5285,
            "contract": "contracts/CrossMarginTrading.sol:CrossMarginTrading",
            "label": "blockNum",
            "offset": 0,
            "slot": "2",
            "type": "t_uint256"
          }
        ],
        "numberOfBytes": "96"
      },
      "t_struct(MCRecord)5307_storage": {
        "encoding": "inplace",
        "label": "struct CrossMarginTrading.MCRecord",
        "members": [
          {
            "astId": 5302,
            "contract": "contracts/CrossMarginTrading.sol:CrossMarginTrading",
            "label": "blockNum",
            "offset": 0,
            "slot": "0",
            "type": "t_uint256"
          },
          {
            "astId": 5304,
            "contract": "contracts/CrossMarginTrading.sol:CrossMarginTrading",
            "label": "amount",
            "offset": 0,
            "slot": "1",
            "type": "t_uint256"
          },
          {
            "astId": 5306,
            "contract": "contracts/CrossMarginTrading.sol:CrossMarginTrading",
            "label": "stakeAttacker",
            "offset": 0,
            "slot": "2",
            "type": "t_address"
          }
        ],
        "numberOfBytes": "96"
      },
      "t_uint256": {
        "encoding": "inplace",
        "label": "uint256",
        "numberOfBytes": "32"
      }
    }
  }
}