{
  "address": "0xDc64a140Aa3E981100a9becA4E685f962f0cF6C9",
  "abi": [
    {
      "inputs": [
        {
          "internalType": "address",
          "name": "_MFI",
          "type": "address"
        },
        {
          "internalType": "uint256",
          "name": "startingDailyDistributionWithoutDecimals",
          "type": "uint256"
        },
        {
          "internalType": "address",
          "name": "_roles",
          "type": "address"
        }
      ],
      "stateMutability": "nonpayable",
      "type": "constructor"
    },
    {
      "anonymous": false,
      "inputs": [
        {
          "indexed": true,
          "internalType": "address",
          "name": "previousOwner",
          "type": "address"
        },
        {
          "indexed": true,
          "internalType": "address",
          "name": "newOwner",
          "type": "address"
        }
      ],
      "name": "OwnershipTransferred",
      "type": "event"
    },
    {
      "inputs": [],
      "name": "ADMIN",
      "outputs": [
        {
          "internalType": "uint16",
          "name": "",
          "type": "uint16"
        }
      ],
      "stateMutability": "view",
      "type": "function"
    },
    {
      "inputs": [],
      "name": "AUTHORIZED_FUND_TRADER",
      "outputs": [
        {
          "internalType": "uint16",
          "name": "",
          "type": "uint16"
        }
      ],
      "stateMutability": "view",
      "type": "function"
    },
    {
      "inputs": [],
      "name": "BORROWER",
      "outputs": [
        {
          "internalType": "uint16",
          "name": "",
          "type": "uint16"
        }
      ],
      "stateMutability": "view",
      "type": "function"
    },
    {
      "inputs": [],
      "name": "FEE_CONTROLLER",
      "outputs": [
        {
          "internalType": "uint16",
          "name": "",
          "type": "uint16"
        }
      ],
      "stateMutability": "view",
      "type": "function"
    },
    {
      "inputs": [],
      "name": "FEE_SOURCE",
      "outputs": [
        {
          "internalType": "uint16",
          "name": "",
          "type": "uint16"
        }
      ],
      "stateMutability": "view",
      "type": "function"
    },
    {
      "inputs": [],
      "name": "FUND",
      "outputs": [
        {
          "internalType": "uint16",
          "name": "",
          "type": "uint16"
        }
      ],
      "stateMutability": "view",
      "type": "function"
    },
    {
      "inputs": [],
      "name": "INCENTIVE_DISTRIBUTION",
      "outputs": [
        {
          "internalType": "uint16",
          "name": "",
          "type": "uint16"
        }
      ],
      "stateMutability": "view",
      "type": "function"
    },
    {
      "inputs": [],
      "name": "INCENTIVE_REPORTER",
      "outputs": [
        {
          "internalType": "uint16",
          "name": "",
          "type": "uint16"
        }
      ],
      "stateMutability": "view",
      "type": "function"
    },
    {
      "inputs": [],
      "name": "LENDING",
      "outputs": [
        {
          "internalType": "uint16",
          "name": "",
          "type": "uint16"
        }
      ],
      "stateMutability": "view",
      "type": "function"
    },
    {
      "inputs": [],
      "name": "LIQUIDATOR",
      "outputs": [
        {
          "internalType": "uint16",
          "name": "",
          "type": "uint16"
        }
      ],
      "stateMutability": "view",
      "type": "function"
    },
    {
      "inputs": [],
      "name": "MARGIN_CALLER",
      "outputs": [
        {
          "internalType": "uint16",
          "name": "",
          "type": "uint16"
        }
      ],
      "stateMutability": "view",
      "type": "function"
    },
    {
      "inputs": [],
      "name": "MARGIN_TRADER",
      "outputs": [
        {
          "internalType": "uint16",
          "name": "",
          "type": "uint16"
        }
      ],
      "stateMutability": "view",
      "type": "function"
    },
    {
      "inputs": [],
      "name": "MARGIN_TRADING",
      "outputs": [
        {
          "internalType": "uint16",
          "name": "",
          "type": "uint16"
        }
      ],
      "stateMutability": "view",
      "type": "function"
    },
    {
      "inputs": [],
      "name": "PRICE_CONTROLLER",
      "outputs": [
        {
          "internalType": "uint16",
          "name": "",
          "type": "uint16"
        }
      ],
      "stateMutability": "view",
      "type": "function"
    },
    {
      "inputs": [],
      "name": "ROUTER",
      "outputs": [
        {
          "internalType": "uint16",
          "name": "",
          "type": "uint16"
        }
      ],
      "stateMutability": "view",
      "type": "function"
    },
    {
      "inputs": [],
      "name": "TOKEN_ACTIVATOR",
      "outputs": [
        {
          "internalType": "uint16",
          "name": "",
          "type": "uint16"
        }
      ],
      "stateMutability": "view",
      "type": "function"
    },
    {
      "inputs": [],
      "name": "WITHDRAWER",
      "outputs": [
        {
          "internalType": "uint16",
          "name": "",
          "type": "uint16"
        }
      ],
      "stateMutability": "view",
      "type": "function"
    },
    {
      "inputs": [
        {
          "internalType": "uint8",
          "name": "tranche",
          "type": "uint8"
        },
        {
          "internalType": "uint256",
          "name": "claimId",
          "type": "uint256"
        },
        {
          "internalType": "uint256",
          "name": "additionalAmount",
          "type": "uint256"
        }
      ],
      "name": "addToClaimAmount",
      "outputs": [],
      "stateMutability": "nonpayable",
      "type": "function"
    },
    {
      "inputs": [
        {
          "internalType": "uint8",
          "name": "",
          "type": "uint8"
        }
      ],
      "name": "aggregatePeriodicRewardRateFP",
      "outputs": [
        {
          "internalType": "uint256",
          "name": "",
          "type": "uint256"
        }
      ],
      "stateMutability": "view",
      "type": "function"
    },
    {
      "inputs": [
        {
          "internalType": "uint256",
          "name": "",
          "type": "uint256"
        }
      ],
      "name": "claims",
      "outputs": [
        {
          "internalType": "uint256",
          "name": "startingRewardRateFP",
          "type": "uint256"
        },
        {
          "internalType": "address",
          "name": "recipient",
          "type": "address"
        },
        {
          "internalType": "uint256",
          "name": "amount",
          "type": "uint256"
        }
      ],
      "stateMutability": "view",
      "type": "function"
    },
    {
      "inputs": [],
      "name": "currentDailyDistribution",
      "outputs": [
        {
          "internalType": "uint256",
          "name": "",
          "type": "uint256"
        }
      ],
      "stateMutability": "view",
      "type": "function"
    },
    {
      "inputs": [
        {
          "internalType": "uint8",
          "name": "",
          "type": "uint8"
        }
      ],
      "name": "currentPeriodTotals",
      "outputs": [
        {
          "internalType": "uint256",
          "name": "",
          "type": "uint256"
        }
      ],
      "stateMutability": "view",
      "type": "function"
    },
    {
      "inputs": [
        {
          "internalType": "uint8",
          "name": "tranche",
          "type": "uint8"
        },
        {
          "internalType": "uint256",
          "name": "claimId",
          "type": "uint256"
        }
      ],
      "name": "endClaim",
      "outputs": [],
      "stateMutability": "nonpayable",
      "type": "function"
    },
    {
      "inputs": [
        {
          "internalType": "uint8",
          "name": "tranche",
          "type": "uint8"
        }
      ],
      "name": "forcePeriodTotalUpdate",
      "outputs": [],
      "stateMutability": "nonpayable",
      "type": "function"
    },
    {
      "inputs": [
        {
          "internalType": "uint8",
          "name": "tranche",
          "type": "uint8"
        },
        {
          "internalType": "uint256",
          "name": "share",
          "type": "uint256"
        }
      ],
      "name": "initTranche",
      "outputs": [],
      "stateMutability": "nonpayable",
      "type": "function"
    },
    {
      "inputs": [
        {
          "internalType": "uint8",
          "name": "",
          "type": "uint8"
        }
      ],
      "name": "lastUpdatedPeriods",
      "outputs": [
        {
          "internalType": "uint256",
          "name": "",
          "type": "uint256"
        }
      ],
      "stateMutability": "view",
      "type": "function"
    },
    {
      "inputs": [],
      "name": "nextClaimId",
      "outputs": [
        {
          "internalType": "uint256",
          "name": "",
          "type": "uint256"
        }
      ],
      "stateMutability": "view",
      "type": "function"
    },
    {
      "inputs": [],
      "name": "owner",
      "outputs": [
        {
          "internalType": "address",
          "name": "",
          "type": "address"
        }
      ],
      "stateMutability": "view",
      "type": "function"
    },
    {
      "inputs": [],
      "name": "renounceOwnership",
      "outputs": [],
      "stateMutability": "nonpayable",
      "type": "function"
    },
    {
      "inputs": [],
      "name": "roles",
      "outputs": [
        {
          "internalType": "contract Roles",
          "name": "",
          "type": "address"
        }
      ],
      "stateMutability": "view",
      "type": "function"
    },
    {
      "inputs": [
        {
          "internalType": "uint8",
          "name": "tranche",
          "type": "uint8"
        },
        {
          "internalType": "uint256",
          "name": "share",
          "type": "uint256"
        }
      ],
      "name": "setTrancheShare",
      "outputs": [],
      "stateMutability": "nonpayable",
      "type": "function"
    },
    {
      "inputs": [
        {
          "internalType": "uint8",
          "name": "tranche",
          "type": "uint8"
        },
        {
          "internalType": "address",
          "name": "recipient",
          "type": "address"
        },
        {
          "internalType": "uint256",
          "name": "claimAmount",
          "type": "uint256"
        }
      ],
      "name": "startClaim",
      "outputs": [
        {
          "internalType": "uint256",
          "name": "",
          "type": "uint256"
        }
      ],
      "stateMutability": "nonpayable",
      "type": "function"
    },
    {
      "inputs": [
        {
          "internalType": "uint8",
          "name": "tranche",
          "type": "uint8"
        },
        {
          "internalType": "uint256",
          "name": "claimId",
          "type": "uint256"
        },
        {
          "internalType": "uint256",
          "name": "subtractAmount",
          "type": "uint256"
        }
      ],
      "name": "subtractFromClaimAmount",
      "outputs": [],
      "stateMutability": "nonpayable",
      "type": "function"
    },
    {
      "inputs": [
        {
          "internalType": "uint8",
          "name": "",
          "type": "uint8"
        }
      ],
      "name": "trancheShare",
      "outputs": [
        {
          "internalType": "uint256",
          "name": "",
          "type": "uint256"
        }
      ],
      "stateMutability": "view",
      "type": "function"
    },
    {
      "inputs": [],
      "name": "trancheShareTotal",
      "outputs": [
        {
          "internalType": "uint256",
          "name": "",
          "type": "uint256"
        }
      ],
      "stateMutability": "view",
      "type": "function"
    },
    {
      "inputs": [
        {
          "internalType": "address",
          "name": "newOwner",
          "type": "address"
        }
      ],
      "name": "transferOwnership",
      "outputs": [],
      "stateMutability": "nonpayable",
      "type": "function"
    },
    {
      "inputs": [
        {
          "internalType": "uint8",
          "name": "tranche",
          "type": "uint8"
        },
        {
          "internalType": "uint256",
          "name": "claimId",
          "type": "uint256"
        }
      ],
      "name": "viewRewardAmount",
      "outputs": [
        {
          "internalType": "uint256",
          "name": "",
          "type": "uint256"
        }
      ],
      "stateMutability": "view",
      "type": "function"
    },
    {
      "inputs": [
        {
          "internalType": "uint8",
          "name": "tranche",
          "type": "uint8"
        },
        {
          "internalType": "uint256",
          "name": "claimId",
          "type": "uint256"
        }
      ],
      "name": "withdrawReward",
      "outputs": [
        {
          "internalType": "uint256",
          "name": "",
          "type": "uint256"
        }
      ],
      "stateMutability": "nonpayable",
      "type": "function"
    }
  ],
  "transactionHash": "0xcf61437d80184b602ec8e962b0092ac5b5f6255f2bc314dc32db9259db423e13",
  "args": [
    "0xAa4e3edb11AFa93c41db59842b29de64b72E355B",
    4000,
    "0x5FbDB2315678afecb367f032d93F642f64180aa3"
  ],
  "solcInputHash": "8c921e6c2c5339f5fd0c9f2117ed580b",
  "bytecode": "0x60806040526001600b553480156200001657600080fd5b506040516200195c3803806200195c83398101604081905262000039916200011b565b600080546001600160a01b0319166001600160a01b0383161781556200005e620000fa565b600180546001600160a01b0319166001600160a01b038316908117909155604051919250906000907f8be0079c531659141344cd1fd0a4f28419497f9722a3daafe3b4186f6b6457e0908290a350600280546001600160a01b0319166001600160a01b038516179055620000db82670de0b6b3a76400006200017c565b600355620000ed62015180426200015b565b60045550620001a8915050565b3390565b80516001600160a01b03811681146200011657600080fd5b919050565b60008060006060848603121562000130578283fd5b6200013b84620000fe565b9250602084015191506200015260408501620000fe565b90509250925092565b6000826200017757634e487b7160e01b81526012600452602481fd5b500490565b6000816000190483118215151615620001a357634e487b7160e01b81526011600452602481fd5b500290565b6117a480620001b86000396000f3fe608060405234801561001057600080fd5b50600436106102915760003560e01c806381ca660011610160578063a9cc0536116100d8578063d56b10541161008c578063eb3b6cec11610071578063eb3b6cec14610473578063f2fde38b14610486578063f54280871461049957610291565b8063d56b105414610458578063d5d7ed7f1461046b57610291565b8063c6de9d5d116100bd578063c6de9d5d14610435578063c76139d014610448578063cacf8d451461045057610291565b8063a9cc05361461041a578063c63f5ab71461042257610291565b8063a0021cf11161012f578063a801671111610114578063a8016711146103dd578063a888c2cd146103f0578063a94c7c341461041257610291565b8063a0021cf1146103cd578063a0098d69146103d557610291565b806381ca6600146103a257806383a49c7c146103aa5780638da5cb5b146103b257806398239023146103ba57610291565b8063392f5f641161020e5780635c275a39116101c2578063678337f8116101a7578063678337f81461037f578063715018a6146103875780637fad8a181461038f57610291565b80635c275a391461036f578063669419841461037757610291565b806346b88796116101f357806346b887961461034c57806348fb27b814610354578063583d86161461035c57610291565b8063392f5f6414610324578063430c39e41461033957610291565b806319f51afb116102655780632a0acc6a1161024a5780632a0acc6a1461030c5780632fe94def1461031457806332fe7b261461031c57610291565b806319f51afb146102ef5780631bc5d81d1461030457610291565b8062fae52b14610296578063065d570f146102bf57806317eef6f3146102d457806318e843b7146102dc575b600080fd5b6102a96102a43660046112c6565b6104ac565b6040516102b6919061160a565b60405180910390f35b6102c76104be565b6040516102b691906115d1565b6102a96104c3565b6102a96102ea3660046112c6565b6104c9565b6103026102fd36600461131e565b6104db565b005b6102c76105ae565b6102c76105b3565b6102c76105b8565b6102c76105bd565b61032c6105c2565b6040516102b69190611379565b61030261034736600461131e565b6105de565b6102c7610694565b6102c7610699565b6102a961036a3660046112e0565b61069e565b6102c76107e0565b6102c76107e5565b6102a96107ea565b6103026107f0565b6102a961039d3660046112c6565b6108d2565b6102c76108e4565b6102c76108e9565b61032c6108ee565b6102a96103c836600461131e565b61090a565b6102a9610923565b6102c7610929565b6103026103eb366004611347565b61092e565b6104036103fe3660046112ae565b6109d5565b6040516102b693929190611613565b6102c7610a0c565b6102c7610a11565b6102a96104303660046112c6565b610a16565b61030261044336600461131e565b610a28565b6102c7610aca565b6102c7610acf565b6102a961046636600461131e565b610ad4565b6102c7610b3e565b6103026104813660046112c6565b610b43565b610302610494366004611256565b610b4f565b6103026104a7366004611347565b610c9d565b60076020526000908152604090205481565b600381565b60035481565b60056020526000908152604090205481565b6104e3610d79565b73ffffffffffffffffffffffffffffffffffffffff166105016108ee565b73ffffffffffffffffffffffffffffffffffffffff1614610557576040517f08c379a000000000000000000000000000000000000000000000000000000000815260040161054e90611485565b60405180910390fd5b60ff82166000908152600860205260409020546105a0576040517f08c379a000000000000000000000000000000000000000000000000000000000815260040161054e90611517565b6105aa8282610d7d565b5050565b600881565b606b81565b606981565b606781565b60005473ffffffffffffffffffffffffffffffffffffffff1681565b6105e6610d79565b73ffffffffffffffffffffffffffffffffffffffff166106046108ee565b73ffffffffffffffffffffffffffffffffffffffff1614610651576040517f08c379a000000000000000000000000000000000000000000000000000000000815260040161054e90611485565b61065b8282610d7d565b61066761384042611657565b60ff9092166000908152600860209081526040808320949094556009905291909120640100000000905550565b600681565b606681565b60006106a933610e1b565b6106df576040517f08c379a000000000000000000000000000000000000000000000000000000000815260040161054e906114ba565b600354156107d5576106f084610ecd565b60ff84166000908152600760205260408120805484929061071290849061163f565b90915550506040805160608101825260ff861660009081526009602090815283822054835273ffffffffffffffffffffffffffffffffffffffff878116828501908152848601888152600b80548652600a9094529584209451855551600180860180547fffffffffffffffffffffffff0000000000000000000000000000000000000000169290931691909117909155935160029093019290925581546107ba90849061163f565b9091555050600b546107ce906001906116cd565b90506107d9565b5060005b9392505050565b606581565b600181565b60065481565b6107f8610d79565b73ffffffffffffffffffffffffffffffffffffffff166108166108ee565b73ffffffffffffffffffffffffffffffffffffffff1614610863576040517f08c379a000000000000000000000000000000000000000000000000000000000815260040161054e90611485565b60015460405160009173ffffffffffffffffffffffffffffffffffffffff16907f8be0079c531659141344cd1fd0a4f28419497f9722a3daafe3b4186f6b6457e0908390a3600180547fffffffffffffffffffffffff0000000000000000000000000000000000000000169055565b60096020526000908152604090205481565b606a81565b600981565b60015473ffffffffffffffffffffffffffffffffffffffff1690565b6000818152600a602052604081206107d9908490610f5f565b600b5481565b600281565b61093733610e1b565b61096d576040517f08c379a000000000000000000000000000000000000000000000000000000000815260040161054e906114ba565b61097683610ecd565b60ff8316600090815260076020526040812080548392906109989084906116cd565b90915550506000828152600a602052604090206109b58482610fa0565b50818160020160008282546109ca91906116cd565b909155505050505050565b600a60205260009081526040902080546001820154600290920154909173ffffffffffffffffffffffffffffffffffffffff169083565b600581565b606881565b60086020526000908152604090205481565b610a3133610e1b565b610a67576040517f08c379a000000000000000000000000000000000000000000000000000000000815260040161054e906114ba565b610a7082610ecd565b6000818152600a60205260409020805415610ac557610a8f8382610fa0565b506001810180547fffffffffffffffffffffffff0000000000000000000000000000000000000000169055600080825560028201555b505050565b606c81565b600481565b6000610adf33610e1b565b610b15576040517f08c379a000000000000000000000000000000000000000000000000000000000815260040161054e906114ba565b610b1e83610ecd565b6000828152600a60205260409020610b368482610fa0565b949350505050565b600781565b610b4c81610ecd565b50565b610b57610d79565b73ffffffffffffffffffffffffffffffffffffffff16610b756108ee565b73ffffffffffffffffffffffffffffffffffffffff1614610bc2576040517f08c379a000000000000000000000000000000000000000000000000000000000815260040161054e90611485565b73ffffffffffffffffffffffffffffffffffffffff8116610c0f576040517f08c379a000000000000000000000000000000000000000000000000000000000815260040161054e906113cb565b60015460405173ffffffffffffffffffffffffffffffffffffffff8084169216907f8be0079c531659141344cd1fd0a4f28419497f9722a3daafe3b4186f6b6457e090600090a3600180547fffffffffffffffffffffffff00000000000000000000000000000000000000001673ffffffffffffffffffffffffffffffffffffffff92909216919091179055565b610ca633610e1b565b610cdc576040517f08c379a000000000000000000000000000000000000000000000000000000000815260040161054e906114ba565b60035415610ac557610ced83610ecd565b60ff831660009081526007602052604081208054839290610d0f90849061163f565b90915550506000828152600a602052604090208054610d5a576040517f08c379a000000000000000000000000000000000000000000000000000000000815260040161054e90611428565b610d648482610fa0565b50818160020160008282546109ca919061163f565b3390565b60ff8216600090815260056020526040902054811115610dd05760ff8216600090815260056020526040902054610db490826116cd565b60066000828254610dc5919061163f565b90915550610e059050565b60ff8216600090815260056020526040902054610dee9082906116cd565b60066000828254610dff91906116cd565b90915550505b60ff909116600090815260056020526040902055565b600080546040517fd87fefd200000000000000000000000000000000000000000000000000000000815273ffffffffffffffffffffffffffffffffffffffff9091169063d87fefd290610e759060089086906004016115e0565b60206040518083038186803b158015610e8d57600080fd5b505afa158015610ea1573d6000803e3d6000fd5b505050506040513d601f19601f82011682018060405250810190610ec5919061128e565b90505b919050565b6000610edb61384042611657565b9050610ee56110b9565b60ff821660009081526008602052604081205490610f0382846116cd565b90508015610f475780610f1585611120565b610f1f9190611690565b60ff851660009081526009602052604081208054909190610f4190849061163f565b90915550505b505060ff909116600090815260086020526040902055565b805460ff8316600090815260096020526040812054909164010000000091610f8791906116cd565b8360020154610f969190611690565b6107d99190611657565b6000610fac8383610f5f565b9050610fb6611198565b60025460018401546040517fd9caed1200000000000000000000000000000000000000000000000000000000815273ffffffffffffffffffffffffffffffffffffffff9384169363d9caed12936110189390821692911690869060040161139a565b602060405180830381600087803b15801561103257600080fd5b505af1158015611046573d6000803e3d6000fd5b505050506040513d601f19601f8201168201806040525081019061106a919061128e565b6110a0576040517f08c379a000000000000000000000000000000000000000000000000000000000815260040161054e90611574565b60ff909216600090815260096020526040902054905590565b60006110c86201518042611657565b90506000600454826110da91906116cd565b905060005b81811015611119576103e86103e76003546110fa9190611690565b6111049190611657565b60035580611111816116e4565b9150506110df565b5050600455565b60008061113261384062015180611657565b60065460ff851660009081526005602052604090205460035461115a90640100000000611690565b6111649190611690565b61116e9190611657565b6111789190611657565b60ff84166000908152600760205260409020549091506107d99082611657565b600080546040517f3c9c8f9c00000000000000000000000000000000000000000000000000000000815273ffffffffffffffffffffffffffffffffffffffff90911690633c9c8f9c906111f0906065906004016115d1565b60206040518083038186803b15801561120857600080fd5b505afa15801561121c573d6000803e3d6000fd5b505050506040513d601f19601f820116820180604052508101906112409190611272565b905090565b803560ff81168114610ec857600080fd5b600060208284031215611267578081fd5b81356107d98161174c565b600060208284031215611283578081fd5b81516107d98161174c565b60006020828403121561129f578081fd5b815180151581146107d9578182fd5b6000602082840312156112bf578081fd5b5035919050565b6000602082840312156112d7578081fd5b6107d982611245565b6000806000606084860312156112f4578182fd5b6112fd84611245565b9250602084013561130d8161174c565b929592945050506040919091013590565b60008060408385031215611330578182fd5b61133983611245565b946020939093013593505050565b60008060006060848603121561135b578283fd5b61136484611245565b95602085013595506040909401359392505050565b73ffffffffffffffffffffffffffffffffffffffff91909116815260200190565b73ffffffffffffffffffffffffffffffffffffffff9384168152919092166020820152604081019190915260600190565b60208082526026908201527f4f776e61626c653a206e6577206f776e657220697320746865207a65726f206160408201527f6464726573730000000000000000000000000000000000000000000000000000606082015260800190565b60208082526023908201527f547279696e6720746f2061646420746f206e6f6e2d6578697374616e7420636c60408201527f61696d0000000000000000000000000000000000000000000000000000000000606082015260800190565b6020808252818101527f4f776e61626c653a2063616c6c6572206973206e6f7420746865206f776e6572604082015260600190565b6020808252602c908201527f436f6e7472616374206e6f7420617574686f72697a656420746f207265706f7260408201527f7420696e63656e74697665730000000000000000000000000000000000000000606082015260800190565b60208082526033908201527f5472616e636865206973206e6f7420696e697469616c697a65642c20706c656160408201527f736520696e697469616c697a6520666972737400000000000000000000000000606082015260800190565b60208082526036908201527f5468657265207365656d7320746f2062652061206c61636b206f66204d46492060408201527f696e2074686520696e63656e746976652066756e642100000000000000000000606082015260800190565b61ffff91909116815260200190565b61ffff92909216825273ffffffffffffffffffffffffffffffffffffffff16602082015260400190565b90815260200190565b92835273ffffffffffffffffffffffffffffffffffffffff919091166020830152604082015260600190565b600082198211156116525761165261171d565b500190565b60008261168b577f4e487b710000000000000000000000000000000000000000000000000000000081526012600452602481fd5b500490565b6000817fffffffffffffffffffffffffffffffffffffffffffffffffffffffffffffffff04831182151516156116c8576116c861171d565b500290565b6000828210156116df576116df61171d565b500390565b60007fffffffffffffffffffffffffffffffffffffffffffffffffffffffffffffffff8214156117165761171661171d565b5060010190565b7f4e487b7100000000000000000000000000000000000000000000000000000000600052601160045260246000fd5b73ffffffffffffffffffffffffffffffffffffffff81168114610b4c57600080fdfea26469706673582212201d5b4510e506c1c1ce53cc4e02f945b0aa0d4b79fd2cbc87c10cf54e8906229c64736f6c63430008010033",
  "devdoc": {
    "kind": "dev",
    "methods": {
      "owner()": {
        "details": "Returns the address of the current owner."
      },
      "renounceOwnership()": {
        "details": "Leaves the contract without owner. It will not be possible to call `onlyOwner` functions anymore. Can only be called by the current owner. NOTE: Renouncing ownership will leave the contract without an owner, thereby removing any functionality that is only available to the owner."
      },
      "transferOwnership(address)": {
        "details": "Transfers ownership of the contract to a new account (`newOwner`). Can only be called by the current owner."
      }
    },
    "version": 1
  },
  "userdoc": {
    "kind": "user",
    "methods": {},
    "version": 1
  },
  "storageLayout": {
    "storage": [
      {
        "astId": 9426,
        "contract": "contracts/IncentiveDistribution.sol:IncentiveDistribution",
        "label": "roles",
        "offset": 0,
        "slot": "0",
        "type": "t_contract(Roles)9765"
      },
      {
        "astId": 381,
        "contract": "contracts/IncentiveDistribution.sol:IncentiveDistribution",
        "label": "_owner",
        "offset": 0,
        "slot": "1",
        "type": "t_address"
      },
      {
        "astId": 6675,
        "contract": "contracts/IncentiveDistribution.sol:IncentiveDistribution",
        "label": "MFI",
        "offset": 0,
        "slot": "2",
        "type": "t_address"
      },
      {
        "astId": 6711,
        "contract": "contracts/IncentiveDistribution.sol:IncentiveDistribution",
        "label": "currentDailyDistribution",
        "offset": 0,
        "slot": "3",
        "type": "t_uint256"
      },
      {
        "astId": 6713,
        "contract": "contracts/IncentiveDistribution.sol:IncentiveDistribution",
        "label": "lastDailyDistributionUpdate",
        "offset": 0,
        "slot": "4",
        "type": "t_uint256"
      },
      {
        "astId": 6717,
        "contract": "contracts/IncentiveDistribution.sol:IncentiveDistribution",
        "label": "trancheShare",
        "offset": 0,
        "slot": "5",
        "type": "t_mapping(t_uint8,t_uint256)"
      },
      {
        "astId": 6719,
        "contract": "contracts/IncentiveDistribution.sol:IncentiveDistribution",
        "label": "trancheShareTotal",
        "offset": 0,
        "slot": "6",
        "type": "t_uint256"
      },
      {
        "astId": 6723,
        "contract": "contracts/IncentiveDistribution.sol:IncentiveDistribution",
        "label": "currentPeriodTotals",
        "offset": 0,
        "slot": "7",
        "type": "t_mapping(t_uint8,t_uint256)"
      },
      {
        "astId": 6727,
        "contract": "contracts/IncentiveDistribution.sol:IncentiveDistribution",
        "label": "lastUpdatedPeriods",
        "offset": 0,
        "slot": "8",
        "type": "t_mapping(t_uint8,t_uint256)"
      },
      {
        "astId": 6731,
        "contract": "contracts/IncentiveDistribution.sol:IncentiveDistribution",
        "label": "aggregatePeriodicRewardRateFP",
        "offset": 0,
        "slot": "9",
        "type": "t_mapping(t_uint8,t_uint256)"
      },
      {
        "astId": 6736,
        "contract": "contracts/IncentiveDistribution.sol:IncentiveDistribution",
        "label": "claims",
        "offset": 0,
        "slot": "10",
        "type": "t_mapping(t_uint256,t_struct(Claim)6653_storage)"
      },
      {
        "astId": 6739,
        "contract": "contracts/IncentiveDistribution.sol:IncentiveDistribution",
        "label": "nextClaimId",
        "offset": 0,
        "slot": "11",
        "type": "t_uint256"
      }
    ],
    "types": {
      "t_address": {
        "encoding": "inplace",
        "label": "address",
        "numberOfBytes": "20"
      },
      "t_contract(Roles)9765": {
        "encoding": "inplace",
        "label": "contract Roles",
        "numberOfBytes": "20"
      },
      "t_mapping(t_uint256,t_struct(Claim)6653_storage)": {
        "encoding": "mapping",
        "key": "t_uint256",
        "label": "mapping(uint256 => struct Claim)",
        "numberOfBytes": "32",
        "value": "t_struct(Claim)6653_storage"
      },
      "t_mapping(t_uint8,t_uint256)": {
        "encoding": "mapping",
        "key": "t_uint8",
        "label": "mapping(uint8 => uint256)",
        "numberOfBytes": "32",
        "value": "t_uint256"
      },
      "t_struct(Claim)6653_storage": {
        "encoding": "inplace",
        "label": "struct Claim",
        "members": [
          {
            "astId": 6648,
            "contract": "contracts/IncentiveDistribution.sol:IncentiveDistribution",
            "label": "startingRewardRateFP",
            "offset": 0,
            "slot": "0",
            "type": "t_uint256"
          },
          {
            "astId": 6650,
            "contract": "contracts/IncentiveDistribution.sol:IncentiveDistribution",
            "label": "recipient",
            "offset": 0,
            "slot": "1",
            "type": "t_address"
          },
          {
            "astId": 6652,
            "contract": "contracts/IncentiveDistribution.sol:IncentiveDistribution",
            "label": "amount",
            "offset": 0,
            "slot": "2",
            "type": "t_uint256"
          }
        ],
        "numberOfBytes": "96"
      },
      "t_uint256": {
        "encoding": "inplace",
        "label": "uint256",
        "numberOfBytes": "32"
      },
      "t_uint8": {
        "encoding": "inplace",
        "label": "uint8",
        "numberOfBytes": "1"
      }
    }
  }
}