{
  "_format": "hh-sol-artifact-1",
  "contractName": "Admin",
  "sourceName": "contracts/Admin.sol",
  "abi": [
    {
      "inputs": [
        {
          "internalType": "uint256",
          "name": "_feesPer10k",
          "type": "uint256"
        },
        {
          "internalType": "address",
          "name": "_MFI",
          "type": "address"
        },
        {
          "internalType": "address",
          "name": "_roles",
          "type": "address"
        }
      ],
      "stateMutability": "nonpayable",
      "type": "constructor"
    },
    {
      "anonymous": false,
      "inputs": [
        {
          "indexed": true,
          "internalType": "address",
          "name": "previousOwner",
          "type": "address"
        },
        {
          "indexed": true,
          "internalType": "address",
          "name": "newOwner",
          "type": "address"
        }
      ],
      "name": "OwnershipTransferred",
      "type": "event"
    },
    {
      "inputs": [],
      "name": "ADMIN",
      "outputs": [
        {
          "internalType": "uint16",
          "name": "",
          "type": "uint16"
        }
      ],
      "stateMutability": "view",
      "type": "function"
    },
    {
      "inputs": [],
      "name": "AUTHORIZED_FUND_TRADER",
      "outputs": [
        {
          "internalType": "uint16",
          "name": "",
          "type": "uint16"
        }
      ],
      "stateMutability": "view",
      "type": "function"
    },
    {
      "inputs": [],
      "name": "BORROWER",
      "outputs": [
        {
          "internalType": "uint16",
          "name": "",
          "type": "uint16"
        }
      ],
      "stateMutability": "view",
      "type": "function"
    },
    {
      "inputs": [],
      "name": "FEE_CONTROLLER",
      "outputs": [
        {
          "internalType": "uint16",
          "name": "",
          "type": "uint16"
        }
      ],
      "stateMutability": "view",
      "type": "function"
    },
    {
      "inputs": [],
      "name": "FEE_SOURCE",
      "outputs": [
        {
          "internalType": "uint16",
          "name": "",
          "type": "uint16"
        }
      ],
      "stateMutability": "view",
      "type": "function"
    },
    {
      "inputs": [],
      "name": "FUND",
      "outputs": [
        {
          "internalType": "uint16",
          "name": "",
          "type": "uint16"
        }
      ],
      "stateMutability": "view",
      "type": "function"
    },
    {
      "inputs": [],
      "name": "INCENTIVE_DISTRIBUTION",
      "outputs": [
        {
          "internalType": "uint16",
          "name": "",
          "type": "uint16"
        }
      ],
      "stateMutability": "view",
      "type": "function"
    },
    {
      "inputs": [],
      "name": "INCENTIVE_REPORTER",
      "outputs": [
        {
          "internalType": "uint16",
          "name": "",
          "type": "uint16"
        }
      ],
      "stateMutability": "view",
      "type": "function"
    },
    {
      "inputs": [],
      "name": "LENDING",
      "outputs": [
        {
          "internalType": "uint16",
          "name": "",
          "type": "uint16"
        }
      ],
      "stateMutability": "view",
      "type": "function"
    },
    {
      "inputs": [],
      "name": "LIQUIDATOR",
      "outputs": [
        {
          "internalType": "uint16",
          "name": "",
          "type": "uint16"
        }
      ],
      "stateMutability": "view",
      "type": "function"
    },
    {
      "inputs": [],
      "name": "MARGIN_CALLER",
      "outputs": [
        {
          "internalType": "uint16",
          "name": "",
          "type": "uint16"
        }
      ],
      "stateMutability": "view",
      "type": "function"
    },
    {
      "inputs": [],
      "name": "MARGIN_TRADER",
      "outputs": [
        {
          "internalType": "uint16",
          "name": "",
          "type": "uint16"
        }
      ],
      "stateMutability": "view",
      "type": "function"
    },
    {
      "inputs": [],
      "name": "MARGIN_TRADING",
      "outputs": [
        {
          "internalType": "uint16",
          "name": "",
          "type": "uint16"
        }
      ],
      "stateMutability": "view",
      "type": "function"
    },
    {
      "inputs": [],
      "name": "PRICE_CONTROLLER",
      "outputs": [
        {
          "internalType": "uint16",
          "name": "",
          "type": "uint16"
        }
      ],
      "stateMutability": "view",
      "type": "function"
    },
    {
      "inputs": [],
      "name": "ROUTER",
      "outputs": [
        {
          "internalType": "uint16",
          "name": "",
          "type": "uint16"
        }
      ],
      "stateMutability": "view",
      "type": "function"
    },
    {
      "inputs": [],
      "name": "STAKE_PENALIZER",
      "outputs": [
        {
          "internalType": "uint16",
          "name": "",
          "type": "uint16"
        }
      ],
      "stateMutability": "view",
      "type": "function"
    },
    {
      "inputs": [],
      "name": "TOKEN_ACTIVATOR",
      "outputs": [
        {
          "internalType": "uint16",
          "name": "",
          "type": "uint16"
        }
      ],
      "stateMutability": "view",
      "type": "function"
    },
    {
      "inputs": [],
      "name": "WITHDRAWER",
      "outputs": [
        {
          "internalType": "uint16",
          "name": "",
          "type": "uint16"
        }
      ],
      "stateMutability": "view",
      "type": "function"
    },
    {
      "inputs": [
        {
          "internalType": "address",
          "name": "forStaker",
          "type": "address"
        },
        {
          "internalType": "address",
          "name": "delegate",
          "type": "address"
        }
      ],
      "name": "addDelegate",
      "outputs": [],
      "stateMutability": "nonpayable",
      "type": "function"
    },
    {
      "inputs": [
        {
          "internalType": "address",
          "name": "token",
          "type": "address"
        },
        {
          "internalType": "uint256",
          "name": "amount",
          "type": "uint256"
        }
      ],
      "name": "addTradingFees",
      "outputs": [
        {
          "internalType": "uint256",
          "name": "fees",
          "type": "uint256"
        }
      ],
      "stateMutability": "nonpayable",
      "type": "function"
    },
    {
      "inputs": [
        {
          "internalType": "address",
          "name": "",
          "type": "address"
        }
      ],
      "name": "claimIds",
      "outputs": [
        {
          "internalType": "uint256",
          "name": "",
          "type": "uint256"
        }
      ],
      "stateMutability": "view",
      "type": "function"
    },
    {
      "inputs": [
        {
          "internalType": "address",
          "name": "",
          "type": "address"
        }
      ],
      "name": "collectedFees",
      "outputs": [
        {
          "internalType": "uint256",
          "name": "",
          "type": "uint256"
        }
      ],
      "stateMutability": "view",
      "type": "function"
    },
    {
      "inputs": [
        {
          "internalType": "uint256",
          "name": "amount",
          "type": "uint256"
        }
      ],
      "name": "depositMaintenanceStake",
      "outputs": [],
      "stateMutability": "nonpayable",
      "type": "function"
    },
    {
      "inputs": [
        {
          "internalType": "uint256",
          "name": "amount",
          "type": "uint256"
        }
      ],
      "name": "depositStake",
      "outputs": [],
      "stateMutability": "nonpayable",
      "type": "function"
    },
    {
      "inputs": [],
      "name": "getUpdatedCurrentStaker",
      "outputs": [
        {
          "internalType": "address",
          "name": "",
          "type": "address"
        }
      ],
      "stateMutability": "nonpayable",
      "type": "function"
    },
    {
      "inputs": [
        {
          "internalType": "address",
          "name": "caller",
          "type": "address"
        }
      ],
      "name": "isAuthorizedStaker",
      "outputs": [
        {
          "internalType": "bool",
          "name": "isAuthorized",
          "type": "bool"
        }
      ],
      "stateMutability": "nonpayable",
      "type": "function"
    },
    {
      "inputs": [
        {
          "internalType": "uint16",
          "name": "",
          "type": "uint16"
        }
      ],
      "name": "mainCharacterCache",
      "outputs": [
        {
          "internalType": "address",
          "name": "",
          "type": "address"
        }
      ],
      "stateMutability": "view",
      "type": "function"
    },
    {
      "inputs": [
        {
          "internalType": "address",
          "name": "",
          "type": "address"
        },
        {
          "internalType": "address",
          "name": "",
          "type": "address"
        }
      ],
      "name": "maintenanceDelegateTo",
      "outputs": [
        {
          "internalType": "bool",
          "name": "",
          "type": "bool"
        }
      ],
      "stateMutability": "view",
      "type": "function"
    },
    {
      "inputs": [],
      "name": "maintenanceStakePerBlock",
      "outputs": [
        {
          "internalType": "uint256",
          "name": "",
          "type": "uint256"
        }
      ],
      "stateMutability": "view",
      "type": "function"
    },
    {
      "inputs": [
        {
          "internalType": "address",
          "name": "",
          "type": "address"
        }
      ],
      "name": "nextMaintenanceStaker",
      "outputs": [
        {
          "internalType": "address",
          "name": "",
          "type": "address"
        }
      ],
      "stateMutability": "view",
      "type": "function"
    },
    {
      "inputs": [],
      "name": "owner",
      "outputs": [
        {
          "internalType": "address",
          "name": "",
          "type": "address"
        }
      ],
      "stateMutability": "view",
      "type": "function"
    },
    {
      "inputs": [
        {
          "internalType": "address",
          "name": "maintainer",
          "type": "address"
        },
        {
          "internalType": "uint256",
          "name": "penalty",
          "type": "uint256"
        },
        {
          "internalType": "address",
          "name": "recipient",
          "type": "address"
        }
      ],
      "name": "penalizeMaintenanceStake",
      "outputs": [
        {
          "internalType": "uint256",
          "name": "stakeTaken",
          "type": "uint256"
        }
      ],
      "stateMutability": "nonpayable",
      "type": "function"
    },
    {
      "inputs": [
        {
          "internalType": "address",
          "name": "forStaker",
          "type": "address"
        },
        {
          "internalType": "address",
          "name": "delegate",
          "type": "address"
        }
      ],
      "name": "removeDelegate",
      "outputs": [],
      "stateMutability": "nonpayable",
      "type": "function"
    },
    {
      "inputs": [],
      "name": "renounceOwnership",
      "outputs": [],
      "stateMutability": "nonpayable",
      "type": "function"
    },
    {
      "inputs": [
        {
          "internalType": "address",
          "name": "",
          "type": "address"
        },
        {
          "internalType": "uint16",
          "name": "",
          "type": "uint16"
        }
      ],
      "name": "roleCache",
      "outputs": [
        {
          "internalType": "bool",
          "name": "",
          "type": "bool"
        }
      ],
      "stateMutability": "view",
      "type": "function"
    },
    {
      "inputs": [],
      "name": "roles",
      "outputs": [
        {
          "internalType": "contract Roles",
          "name": "",
          "type": "address"
        }
      ],
      "stateMutability": "view",
      "type": "function"
    },
    {
      "inputs": [
        {
          "internalType": "uint256",
          "name": "amount",
          "type": "uint256"
        }
      ],
      "name": "setMaintenanceStakePerBlock",
      "outputs": [],
      "stateMutability": "nonpayable",
      "type": "function"
    },
    {
      "inputs": [
        {
          "internalType": "address",
          "name": "",
          "type": "address"
        }
      ],
      "name": "stakes",
      "outputs": [
        {
          "internalType": "uint256",
          "name": "",
          "type": "uint256"
        }
      ],
      "stateMutability": "view",
      "type": "function"
    },
    {
      "inputs": [
        {
          "internalType": "address",
          "name": "token",
          "type": "address"
        },
        {
          "internalType": "uint256",
          "name": "amount",
          "type": "uint256"
        }
      ],
      "name": "subtractTradingFees",
      "outputs": [
        {
          "internalType": "uint256",
          "name": "fees",
          "type": "uint256"
        }
      ],
      "stateMutability": "nonpayable",
      "type": "function"
    },
    {
      "inputs": [],
      "name": "totalStakes",
      "outputs": [
        {
          "internalType": "uint256",
          "name": "",
          "type": "uint256"
        }
      ],
      "stateMutability": "view",
      "type": "function"
    },
    {
      "inputs": [
        {
          "internalType": "address",
          "name": "newOwner",
          "type": "address"
        }
      ],
      "name": "transferOwnership",
      "outputs": [],
      "stateMutability": "nonpayable",
      "type": "function"
    },
    {
      "inputs": [
        {
          "internalType": "uint16",
          "name": "role",
          "type": "uint16"
        }
      ],
      "name": "updateMainCharacterCache",
      "outputs": [],
      "stateMutability": "nonpayable",
      "type": "function"
    },
    {
      "inputs": [
        {
          "internalType": "uint16",
          "name": "role",
          "type": "uint16"
        },
        {
          "internalType": "address",
          "name": "contr",
          "type": "address"
        }
      ],
      "name": "updateRoleCache",
      "outputs": [],
      "stateMutability": "nonpayable",
      "type": "function"
    },
    {
      "inputs": [
        {
          "internalType": "uint256",
          "name": "amount",
          "type": "uint256"
        }
      ],
      "name": "withdrawStake",
      "outputs": [],
      "stateMutability": "nonpayable",
      "type": "function"
    }
  ],
  "bytecode": "0x60806040523480156200001157600080fd5b5060405162002220380380620022208339810160408190526200003491620000fe565b600080546001600160a01b0319166001600160a01b03831617815562000059620000dd565b600380546001600160a01b0319166001600160a01b038316908117909155604051919250906000907f8be0079c531659141344cd1fd0a4f28419497f9722a3daafe3b4186f6b6457e0908290a35050600480546001600160a01b0319166001600160a01b0392909216919091179055600855670de0b6b3a7640000600a556200013e565b3390565b80516001600160a01b0381168114620000f957600080fd5b919050565b60008060006060848603121562000113578283fd5b835192506200012560208501620000e1565b91506200013560408501620000e1565b90509250925092565b6120d2806200014e6000396000f3fe608060405234801561001057600080fd5b50600436106102f45760003560e01c806367cbf42d11610191578063bf9befb1116100e3578063cb82cc8f11610097578063dc5c66f911610071578063dc5c66f91461053b578063e909ebfa1461054e578063f2fde38b14610561576102f4565b8063cb82cc8f1461050d578063d5d7ed7f14610520578063d8715ca714610528576102f4565b8063c3fff5d9116100c8578063c3fff5d9146104ea578063c76139d0146104fd578063cacf8d4514610505576102f4565b8063bf9befb1146104cf578063c34316c3146104d7576102f4565b806383a49c7c11610145578063a94c7c341161011f578063a94c7c34146104ac578063a9cc0536146104b4578063b4481652146104bc576102f4565b806383a49c7c146104945780638da5cb5b1461049c578063a0098d69146104a4576102f4565b8063715018a611610176578063715018a6146104715780637b23cbce1461047957806381ca66001461048c576102f4565b806367cbf42d1461044b5780636cd5cd601461045e576102f4565b8063219f951d1161024a578063392f5f64116101fe57806348fb27b8116101d857806348fb27b8146104335780635c275a391461043b5780636694198414610443576102f4565b8063392f5f64146104105780633f0e9edf1461041857806346b887961461042b576102f4565b80632a0acc6a1161022f5780632a0acc6a146103f85780632fe94def1461040057806332fe7b2614610408576102f4565b8063219f951d146103d257806325d5971f146103e5576102f4565b806316934fc4116102ac5780631bc5d81d116102865780631bc5d81d146103a45780631cead9a7146103ac57806320e8d819146103bf576102f4565b806316934fc4146103745780631a38de1d146103875780631b6695071461039c576102f4565b8063065d570f116102dd578063065d570f146103375780630a45bc1b1461034c5780630ad691501461036c576102f4565b8063020d308d146102f9578063055cfe531461030e575b600080fd5b61030c6103073660046119f7565b610574565b005b61032161031c3660046119f7565b610663565b60405161032e9190611ba6565b60405180910390f35b61033f610683565b60405161032e9190611f64565b61035f61035a366004611a8e565b610688565b60405161032e9190611f9d565b61035f610737565b61035f6103823660046119bf565b61073d565b61038f61074f565b60405161032e9190611b54565b61033f610916565b61033f61091b565b61035f6103ba3660046119bf565b610920565b61030c6103cd366004611b09565b610932565b61030c6103e0366004611b24565b610a43565b61030c6103f3366004611b24565b610b3c565b61033f610b87565b61033f610b8c565b61033f610b91565b61038f610b96565b61035f610426366004611a63565b610bb2565b61033f610c60565b61033f610c65565b61033f610c6a565b61033f610c6f565b61035f610459366004611a63565b610c74565b61030c61046c366004611aef565b610cc6565b61030c610dc5565b6103216104873660046119bf565b610ea7565b61033f610f26565b61033f610f2b565b61038f610f30565b61033f610f4c565b61033f610f51565b61033f610f56565b61038f6104ca366004611aef565b610f5b565b61035f610f83565b6103216104e5366004611a2f565b610f89565b61038f6104f83660046119bf565b610fa9565b61033f610fd1565b61033f610fd6565b61030c61051b366004611b24565b610fdb565b61033f610fe5565b61030c610536366004611b24565b610fea565b61035f6105493660046119bf565b611062565b61030c61055c3660046119f7565b611074565b61030c61056f3660046119bf565b61115d565b3373ffffffffffffffffffffffffffffffffffffffff831614806105c8575073ffffffffffffffffffffffffffffffffffffffff82166000908152600c6020908152604080832033845290915290205460ff165b610607576040517f08c379a00000000000000000000000000000000000000000000000000000000081526004016105fe90611d27565b60405180910390fd5b73ffffffffffffffffffffffffffffffffffffffff9182166000908152600c60209081526040808320939094168252919091522080547fffffffffffffffffffffffffffffffffffffffffffffffffffffffffffffff00169055565b600c60209081526000928352604080842090915290825290205460ff1681565b600381565b6000610693336112ab565b6106c9576040517f08c379a00000000000000000000000000000000000000000000000000000000081526004016105fe90611c10565b73ffffffffffffffffffffffffffffffffffffffff8416600090815260056020526040902054831115610722575073ffffffffffffffffffffffffffffffffffffffff8316600090815260056020526040902054610725565b50815b61073084828461135d565b9392505050565b600a5481565b60056020526000908152604090205481565b60005b600d5473ffffffffffffffffffffffffffffffffffffffff16600090815260056020526040902054600a54600f5461078a9043612034565b6107949190611ff7565b106108f957600d5473ffffffffffffffffffffffffffffffffffffffff16600090815260056020526040902054600a54111561084857600d805473ffffffffffffffffffffffffffffffffffffffff9081166000908152600b602052604080822054600e548416835281832080549185167fffffffffffffffffffffffff000000000000000000000000000000000000000092831681179091558554909416835291208054821690558254161790556108f4565b600a54600d5473ffffffffffffffffffffffffffffffffffffffff1660009081526005602052604090205461087d9190611fbe565b600f600082825461088e9190611fa6565b9091555050600d8054600e80547fffffffffffffffffffffffff000000000000000000000000000000000000000090811673ffffffffffffffffffffffffffffffffffffffff8085169182179093556000908152600b6020526040902054921691161790555b610752565b50600d5473ffffffffffffffffffffffffffffffffffffffff1690565b600a81565b600881565b60096020526000908152604090205481565b6000546040517fd87fefd200000000000000000000000000000000000000000000000000000000815273ffffffffffffffffffffffffffffffffffffffff9091169063d87fefd29061098a9085908590600401611f73565b60206040518083038186803b1580156109a257600080fd5b505afa1580156109b6573d6000803e3d6000fd5b505050506040513d601f19601f820116820180604052508101906109da9190611acf565b73ffffffffffffffffffffffffffffffffffffffff909116600090815260026020908152604080832061ffff90951683529390529190912080549115157fffffffffffffffffffffffffffffffffffffffffffffffffffffffffffffff00909216919091179055565b600a5433600090815260056020526040902054610a609083611fa6565b1015610a98576040517f08c379a00000000000000000000000000000000000000000000000000000000081526004016105fe90611cca565b610aa23382611606565b336000908152600b602052604090205473ffffffffffffffffffffffffffffffffffffffff16610b3957610ad461074f565b336000818152600b6020526040808220805473ffffffffffffffffffffffffffffffffffffffff9586167fffffffffffffffffffffffff000000000000000000000000000000000000000091821617909155600e549094168252902080549092161790555b50565b610b4533610ea7565b15610b7c576040517f08c379a00000000000000000000000000000000000000000000000000000000081526004016105fe90611f07565b610b3933823361135d565b606b81565b606981565b606781565b60005473ffffffffffffffffffffffffffffffffffffffff1681565b6000610bbd336118e8565b610bf3576040517f08c379a00000000000000000000000000000000000000000000000000000000081526004016105fe90611ed0565b600854610c0290612710611fa6565b82600854610c109190611ff7565b610c1a9190611fbe565b73ffffffffffffffffffffffffffffffffffffffff8416600090815260096020526040812080549293508392909190610c54908490611fa6565b90915550909392505050565b600681565b606681565b606581565b600181565b6000610c7f336118e8565b610cb5576040517f08c379a00000000000000000000000000000000000000000000000000000000081526004016105fe90611ed0565b61271082600854610c109190611ff7565b6000546040517f3c9c8f9c00000000000000000000000000000000000000000000000000000000815273ffffffffffffffffffffffffffffffffffffffff90911690633c9c8f9c90610d1c908490600401611f64565b60206040518083038186803b158015610d3457600080fd5b505afa158015610d48573d6000803e3d6000fd5b505050506040513d601f19601f82011682018060405250810190610d6c91906119db565b61ffff91909116600090815260016020526040902080547fffffffffffffffffffffffff00000000000000000000000000000000000000001673ffffffffffffffffffffffffffffffffffffffff909216919091179055565b610dcd61191f565b73ffffffffffffffffffffffffffffffffffffffff16610deb610f30565b73ffffffffffffffffffffffffffffffffffffffff1614610e38576040517f08c379a00000000000000000000000000000000000000000000000000000000081526004016105fe90611d84565b60035460405160009173ffffffffffffffffffffffffffffffffffffffff16907f8be0079c531659141344cd1fd0a4f28419497f9722a3daafe3b4186f6b6457e0908390a3600380547fffffffffffffffffffffffff0000000000000000000000000000000000000000169055565b600080610eb261074f565b90508273ffffffffffffffffffffffffffffffffffffffff168173ffffffffffffffffffffffffffffffffffffffff161480610730575073ffffffffffffffffffffffffffffffffffffffff8082166000908152600c602090815260408083209387168352929052205460ff169392505050565b606a81565b600981565b60035473ffffffffffffffffffffffffffffffffffffffff1690565b600281565b600581565b606881565b60016020526000908152604090205473ffffffffffffffffffffffffffffffffffffffff1681565b60065481565b600260209081526000928352604080842090915290825290205460ff1681565b600b6020526000908152604090205473ffffffffffffffffffffffffffffffffffffffff1681565b606c81565b600481565b610b393382611606565b600781565b610ff261191f565b73ffffffffffffffffffffffffffffffffffffffff16611010610f30565b73ffffffffffffffffffffffffffffffffffffffff161461105d576040517f08c379a00000000000000000000000000000000000000000000000000000000081526004016105fe90611d84565b600a55565b60076020526000908152604090205481565b3373ffffffffffffffffffffffffffffffffffffffff831614806110c8575073ffffffffffffffffffffffffffffffffffffffff82166000908152600c6020908152604080832033845290915290205460ff165b6110fe576040517f08c379a00000000000000000000000000000000000000000000000000000000081526004016105fe90611d27565b73ffffffffffffffffffffffffffffffffffffffff9182166000908152600c60209081526040808320939094168252919091522080547fffffffffffffffffffffffffffffffffffffffffffffffffffffffffffffff00166001179055565b61116561191f565b73ffffffffffffffffffffffffffffffffffffffff16611183610f30565b73ffffffffffffffffffffffffffffffffffffffff16146111d0576040517f08c379a00000000000000000000000000000000000000000000000000000000081526004016105fe90611d84565b73ffffffffffffffffffffffffffffffffffffffff811661121d576040517f08c379a00000000000000000000000000000000000000000000000000000000081526004016105fe90611c6d565b60035460405173ffffffffffffffffffffffffffffffffffffffff8084169216907f8be0079c531659141344cd1fd0a4f28419497f9722a3daafe3b4186f6b6457e090600090a3600380547fffffffffffffffffffffffff00000000000000000000000000000000000000001673ffffffffffffffffffffffffffffffffffffffff92909216919091179055565b600080546040517fd87fefd200000000000000000000000000000000000000000000000000000000815273ffffffffffffffffffffffffffffffffffffffff9091169063d87fefd29061130590600a908690600401611f73565b60206040518083038186803b15801561131d57600080fd5b505afa158015611331573d6000803e3d6000fd5b505050506040513d601f19601f820116820180604052508101906113559190611acf565b90505b919050565b73ffffffffffffffffffffffffffffffffffffffff83166000908152600560205260408120805490849055600680549192859261139b908490612034565b909155506113a99050611923565b600480546040517fd9caed1200000000000000000000000000000000000000000000000000000000815273ffffffffffffffffffffffffffffffffffffffff9384169363d9caed129361140493909116918791899101611b75565b602060405180830381600087803b15801561141e57600080fd5b505af1158015611432573d6000803e3d6000fd5b505050506040513d601f19601f820116820180604052508101906114569190611acf565b61148c576040517f08c379a00000000000000000000000000000000000000000000000000000000081526004016105fe90611e73565b8281141561155e5761149c611968565b73ffffffffffffffffffffffffffffffffffffffff8581166000908152600760205260408082205490517fc6de9d5d000000000000000000000000000000000000000000000000000000008152939092169263c6de9d5d926115019291600401611be2565b600060405180830381600087803b15801561151b57600080fd5b505af115801561152f573d6000803e3d6000fd5b50505073ffffffffffffffffffffffffffffffffffffffff851660009081526007602052604081205550611600565b611566611968565b73ffffffffffffffffffffffffffffffffffffffff8581166000908152600760205260408082205490517fa8016711000000000000000000000000000000000000000000000000000000008152939092169263a8016711926115cd92918890600401611bf5565b600060405180830381600087803b1580156115e757600080fd5b505af11580156115fb573d6000803e3d6000fd5b505050505b50505050565b61160e611923565b600480546040517fb3db428b00000000000000000000000000000000000000000000000000000000815273ffffffffffffffffffffffffffffffffffffffff9384169363b3db428b93611668938893921691879101611b75565b602060405180830381600087803b15801561168257600080fd5b505af1158015611696573d6000803e3d6000fd5b505050506040513d601f19601f820116820180604052508101906116ba9190611acf565b6116f0576040517f08c379a00000000000000000000000000000000000000000000000000000000081526004016105fe90611df0565b336000908152600560205260408120805483929061170f908490611fa6565b9250508190555080600660008282546117289190611fa6565b909155505073ffffffffffffffffffffffffffffffffffffffff8216600090815260076020526040902054156117fe57611760611968565b73ffffffffffffffffffffffffffffffffffffffff8381166000908152600760205260408082205490517ff5428087000000000000000000000000000000000000000000000000000000008152939092169263f5428087926117c792918690600401611bf5565b600060405180830381600087803b1580156117e157600080fd5b505af11580156117f5573d6000803e3d6000fd5b505050506118e4565b6000611808611968565b73ffffffffffffffffffffffffffffffffffffffff1663583d8616600085856040518463ffffffff1660e01b815260040161184593929190611bb1565b602060405180830381600087803b15801561185f57600080fd5b505af1158015611873573d6000803e3d6000fd5b505050506040513d601f19601f820116820180604052508101906118979190611b3c565b3360009081526007602052604090208190559050806118e2576040517f08c379a00000000000000000000000000000000000000000000000000000000081526004016105fe90611db9565b505b5050565b73ffffffffffffffffffffffffffffffffffffffff1660009081526002602090815260408083206005845290915290205460ff1690565b3390565b606560005260016020527f6def5a300acb6fcaa0dab3a41e9d6457b5147a641e641380f8cc4bf5308b16fe5473ffffffffffffffffffffffffffffffffffffffff1690565b606c60005260016020527fd80c728dcb954e7539257f5b9090fa0c83e482d978be864c61ec2b155c05c2525473ffffffffffffffffffffffffffffffffffffffff1690565b803561ffff8116811461135857600080fd5b6000602082840312156119d0578081fd5b81356107308161207a565b6000602082840312156119ec578081fd5b81516107308161207a565b60008060408385031215611a09578081fd5b8235611a148161207a565b91506020830135611a248161207a565b809150509250929050565b60008060408385031215611a41578182fd5b8235611a4c8161207a565b9150611a5a602084016119ad565b90509250929050565b60008060408385031215611a75578182fd5b8235611a808161207a565b946020939093013593505050565b600080600060608486031215611aa2578081fd5b8335611aad8161207a565b9250602084013591506040840135611ac48161207a565b809150509250925092565b600060208284031215611ae0578081fd5b81518015158114610730578182fd5b600060208284031215611b00578081fd5b610730826119ad565b60008060408385031215611b1b578182fd5b611a14836119ad565b600060208284031215611b35578081fd5b5035919050565b600060208284031215611b4d578081fd5b5051919050565b73ffffffffffffffffffffffffffffffffffffffff91909116815260200190565b73ffffffffffffffffffffffffffffffffffffffff9384168152919092166020820152604081019190915260600190565b901515815260200190565b60ff93909316835273ffffffffffffffffffffffffffffffffffffffff919091166020830152604082015260600190565b60ff929092168252602082015260400190565b60ff9390931683526020830191909152604082015260600190565b6020808252602d908201527f6d73672e73656e646572206e6f7420617574686f72697a656420746f2070656e60408201527f616c697a65207374616b65727300000000000000000000000000000000000000606082015260800190565b60208082526026908201527f4f776e61626c653a206e6577206f776e657220697320746865207a65726f206160408201527f6464726573730000000000000000000000000000000000000000000000000000606082015260800190565b60208082526029908201527f496e73756666696369656e74207374616b6520746f2063616c6c206576656e2060408201527f6f6e6520626c6f636b0000000000000000000000000000000000000000000000606082015260800190565b60208082526030908201527f6d73672e73656e646572206e6f7420617574686f72697a656420746f2064656c60408201527f656761746520666f72207374616b657200000000000000000000000000000000606082015260800190565b6020808252818101527f4f776e61626c653a2063616c6c6572206973206e6f7420746865206f776e6572604082015260600190565b6020808252601e908201527f446973747269627574696f6e206973206f766572206f72207061757365640000604082015260600190565b60208082526047908201527f436f756c64206e6f74206465706f736974207374616b652066756e647320287060408201527f657268617073206d616b6520616c6c6f77616e636520746f2066756e6420636f60608201527f6e74726163743f00000000000000000000000000000000000000000000000000608082015260a00190565b60208082526032908201527f496e73756666696369656e742066756e6473202d2d20736f6d657468696e672060408201527f77656e74207265616c6c792077726f6e672e0000000000000000000000000000606082015260800190565b6020808252601d908201527f4e6f7420617574686f72697a656420746f20736f757263652066656573000000604082015260600190565b60208082526031908201527f596f752063616e2774207769746864726177207768696c6520796f752772652060408201527f617574686f72697a6564207374616b6572000000000000000000000000000000606082015260800190565b61ffff91909116815260200190565b61ffff92909216825273ffffffffffffffffffffffffffffffffffffffff16602082015260400190565b90815260200190565b60008219821115611fb957611fb961204b565b500190565b600082611ff2577f4e487b710000000000000000000000000000000000000000000000000000000081526012600452602481fd5b500490565b6000817fffffffffffffffffffffffffffffffffffffffffffffffffffffffffffffffff048311821515161561202f5761202f61204b565b500290565b6000828210156120465761204661204b565b500390565b7f4e487b7100000000000000000000000000000000000000000000000000000000600052601160045260246000fd5b73ffffffffffffffffffffffffffffffffffffffff81168114610b3957600080fdfea26469706673582212201d688bb2aa3b6ae2f51891c2443aa2d6b106c65d14b0ec4efc0fbf17daa51a0864736f6c63430008010033",
  "linkReferences": {},
  "deployedLinkReferences": {}
}