{
  "_format": "hh-sol-artifact-1",
  "contractName": "Admin",
  "sourceName": "contracts/Admin.sol",
  "abi": [
    {
      "inputs": [
        {
          "internalType": "uint256",
          "name": "_feesPer10k",
          "type": "uint256"
        },
        {
          "internalType": "address",
          "name": "_MFI",
          "type": "address"
        },
        {
          "internalType": "address",
          "name": "_roles",
          "type": "address"
        }
      ],
      "stateMutability": "nonpayable",
      "type": "constructor"
    },
    {
      "anonymous": false,
      "inputs": [
        {
          "indexed": true,
          "internalType": "address",
          "name": "previousOwner",
          "type": "address"
        },
        {
          "indexed": true,
          "internalType": "address",
          "name": "newOwner",
          "type": "address"
        }
      ],
      "name": "OwnershipTransferred",
      "type": "event"
    },
    {
      "inputs": [],
      "name": "ADMIN",
      "outputs": [
        {
          "internalType": "uint16",
          "name": "",
          "type": "uint16"
        }
      ],
      "stateMutability": "view",
      "type": "function"
    },
    {
      "inputs": [],
      "name": "AUTHORIZED_FUND_TRADER",
      "outputs": [
        {
          "internalType": "uint16",
          "name": "",
          "type": "uint16"
        }
      ],
      "stateMutability": "view",
      "type": "function"
    },
    {
      "inputs": [],
      "name": "BORROWER",
      "outputs": [
        {
          "internalType": "uint16",
          "name": "",
          "type": "uint16"
        }
      ],
      "stateMutability": "view",
      "type": "function"
    },
    {
      "inputs": [],
      "name": "FEE_CONTROLLER",
      "outputs": [
        {
          "internalType": "uint16",
          "name": "",
          "type": "uint16"
        }
      ],
      "stateMutability": "view",
      "type": "function"
    },
    {
      "inputs": [],
      "name": "FEE_SOURCE",
      "outputs": [
        {
          "internalType": "uint16",
          "name": "",
          "type": "uint16"
        }
      ],
      "stateMutability": "view",
      "type": "function"
    },
    {
      "inputs": [],
      "name": "FUND",
      "outputs": [
        {
          "internalType": "uint16",
          "name": "",
          "type": "uint16"
        }
      ],
      "stateMutability": "view",
      "type": "function"
    },
    {
      "inputs": [],
      "name": "INCENTIVE_DISTRIBUTION",
      "outputs": [
        {
          "internalType": "uint16",
          "name": "",
          "type": "uint16"
        }
      ],
      "stateMutability": "view",
      "type": "function"
    },
    {
      "inputs": [],
      "name": "INCENTIVE_REPORTER",
      "outputs": [
        {
          "internalType": "uint16",
          "name": "",
          "type": "uint16"
        }
      ],
      "stateMutability": "view",
      "type": "function"
    },
    {
      "inputs": [],
      "name": "LENDING",
      "outputs": [
        {
          "internalType": "uint16",
          "name": "",
          "type": "uint16"
        }
      ],
      "stateMutability": "view",
      "type": "function"
    },
    {
      "inputs": [],
      "name": "LIQUIDATOR",
      "outputs": [
        {
          "internalType": "uint16",
          "name": "",
          "type": "uint16"
        }
      ],
      "stateMutability": "view",
      "type": "function"
    },
    {
      "inputs": [],
      "name": "MARGIN_CALLER",
      "outputs": [
        {
          "internalType": "uint16",
          "name": "",
          "type": "uint16"
        }
      ],
      "stateMutability": "view",
      "type": "function"
    },
    {
      "inputs": [],
      "name": "MARGIN_TRADER",
      "outputs": [
        {
          "internalType": "uint16",
          "name": "",
          "type": "uint16"
        }
      ],
      "stateMutability": "view",
      "type": "function"
    },
    {
      "inputs": [],
      "name": "MARGIN_TRADING",
      "outputs": [
        {
          "internalType": "uint16",
          "name": "",
          "type": "uint16"
        }
      ],
      "stateMutability": "view",
      "type": "function"
    },
    {
      "inputs": [],
      "name": "PRICE_CONTROLLER",
      "outputs": [
        {
          "internalType": "uint16",
          "name": "",
          "type": "uint16"
        }
      ],
      "stateMutability": "view",
      "type": "function"
    },
    {
      "inputs": [],
      "name": "ROUTER",
      "outputs": [
        {
          "internalType": "uint16",
          "name": "",
          "type": "uint16"
        }
      ],
      "stateMutability": "view",
      "type": "function"
    },
    {
      "inputs": [],
      "name": "TOKEN_ACTIVATOR",
      "outputs": [
        {
          "internalType": "uint16",
          "name": "",
          "type": "uint16"
        }
      ],
      "stateMutability": "view",
      "type": "function"
    },
    {
      "inputs": [],
      "name": "WITHDRAWER",
      "outputs": [
        {
          "internalType": "uint16",
          "name": "",
          "type": "uint16"
        }
      ],
      "stateMutability": "view",
      "type": "function"
    },
    {
      "inputs": [
        {
          "internalType": "address",
          "name": "forStaker",
          "type": "address"
        },
        {
          "internalType": "address",
          "name": "delegate",
          "type": "address"
        }
      ],
      "name": "addDelegate",
      "outputs": [],
      "stateMutability": "nonpayable",
      "type": "function"
    },
    {
      "inputs": [
        {
          "internalType": "address",
          "name": "token",
          "type": "address"
        },
        {
          "internalType": "uint256",
          "name": "amount",
          "type": "uint256"
        }
      ],
      "name": "addTradingFees",
      "outputs": [
        {
          "internalType": "uint256",
          "name": "fees",
          "type": "uint256"
        }
      ],
      "stateMutability": "nonpayable",
      "type": "function"
    },
    {
      "inputs": [
        {
          "internalType": "address",
          "name": "",
          "type": "address"
        }
      ],
      "name": "claimIds",
      "outputs": [
        {
          "internalType": "uint256",
          "name": "",
          "type": "uint256"
        }
      ],
      "stateMutability": "view",
      "type": "function"
    },
    {
      "inputs": [
        {
          "internalType": "address",
          "name": "",
          "type": "address"
        }
      ],
      "name": "collectedFees",
      "outputs": [
        {
          "internalType": "uint256",
          "name": "",
          "type": "uint256"
        }
      ],
      "stateMutability": "view",
      "type": "function"
    },
    {
      "inputs": [
        {
          "internalType": "uint256",
          "name": "amount",
          "type": "uint256"
        }
      ],
      "name": "depositMaintenanceStake",
      "outputs": [],
      "stateMutability": "nonpayable",
      "type": "function"
    },
    {
      "inputs": [
        {
          "internalType": "uint256",
          "name": "amount",
          "type": "uint256"
        }
      ],
      "name": "depositStake",
      "outputs": [],
      "stateMutability": "nonpayable",
      "type": "function"
    },
    {
      "inputs": [
        {
          "internalType": "address",
          "name": "caller",
          "type": "address"
        }
      ],
      "name": "isAuthorizedStaker",
      "outputs": [
        {
          "internalType": "bool",
          "name": "isAuthorized",
          "type": "bool"
        }
      ],
      "stateMutability": "nonpayable",
      "type": "function"
    },
    {
      "inputs": [
        {
          "internalType": "address",
          "name": "",
          "type": "address"
        },
        {
          "internalType": "address",
          "name": "",
          "type": "address"
        }
      ],
      "name": "maintenanceDelegateTo",
      "outputs": [
        {
          "internalType": "bool",
          "name": "",
          "type": "bool"
        }
      ],
      "stateMutability": "view",
      "type": "function"
    },
    {
      "inputs": [],
      "name": "maintenanceStakePerBlock",
      "outputs": [
        {
          "internalType": "uint256",
          "name": "",
          "type": "uint256"
        }
      ],
      "stateMutability": "view",
      "type": "function"
    },
    {
      "inputs": [
        {
          "internalType": "address",
          "name": "",
          "type": "address"
        }
      ],
      "name": "maintenanceStakes",
      "outputs": [
        {
          "internalType": "uint256",
          "name": "stake",
          "type": "uint256"
        },
        {
          "internalType": "address",
          "name": "nextStaker",
          "type": "address"
        }
      ],
      "stateMutability": "view",
      "type": "function"
    },
    {
      "inputs": [],
      "name": "owner",
      "outputs": [
        {
          "internalType": "address",
          "name": "",
          "type": "address"
        }
      ],
      "stateMutability": "view",
      "type": "function"
    },
    {
      "inputs": [
        {
          "internalType": "address",
          "name": "forStaker",
          "type": "address"
        },
        {
          "internalType": "address",
          "name": "delegate",
          "type": "address"
        }
      ],
      "name": "removeDelegate",
      "outputs": [],
      "stateMutability": "nonpayable",
      "type": "function"
    },
    {
      "inputs": [],
      "name": "renounceOwnership",
      "outputs": [],
      "stateMutability": "nonpayable",
      "type": "function"
    },
    {
      "inputs": [],
      "name": "roles",
      "outputs": [
        {
          "internalType": "contract Roles",
          "name": "",
          "type": "address"
        }
      ],
      "stateMutability": "view",
      "type": "function"
    },
    {
      "inputs": [
        {
          "internalType": "uint256",
          "name": "amount",
          "type": "uint256"
        }
      ],
      "name": "setMaintenanceStakePerBlock",
      "outputs": [],
      "stateMutability": "nonpayable",
      "type": "function"
    },
    {
      "inputs": [
        {
          "internalType": "address",
          "name": "",
          "type": "address"
        }
      ],
      "name": "stakes",
      "outputs": [
        {
          "internalType": "uint256",
          "name": "",
          "type": "uint256"
        }
      ],
      "stateMutability": "view",
      "type": "function"
    },
    {
      "inputs": [
        {
          "internalType": "address",
          "name": "token",
          "type": "address"
        },
        {
          "internalType": "uint256",
          "name": "amount",
          "type": "uint256"
        }
      ],
      "name": "subtractTradingFees",
      "outputs": [
        {
          "internalType": "uint256",
          "name": "fees",
          "type": "uint256"
        }
      ],
      "stateMutability": "nonpayable",
      "type": "function"
    },
    {
      "inputs": [],
      "name": "totalStakes",
      "outputs": [
        {
          "internalType": "uint256",
          "name": "",
          "type": "uint256"
        }
      ],
      "stateMutability": "view",
      "type": "function"
    },
    {
      "inputs": [
        {
          "internalType": "address",
          "name": "newOwner",
          "type": "address"
        }
      ],
      "name": "transferOwnership",
      "outputs": [],
      "stateMutability": "nonpayable",
      "type": "function"
    },
    {
      "inputs": [
        {
          "internalType": "uint256",
          "name": "amount",
          "type": "uint256"
        }
      ],
      "name": "withdrawStake",
      "outputs": [],
      "stateMutability": "nonpayable",
      "type": "function"
    }
  ],
  "bytecode": "0x60806040523480156200001157600080fd5b5060405162001c4238038062001c428339810160408190526200003491620000fe565b600080546001600160a01b0319166001600160a01b03831617815562000059620000dd565b600180546001600160a01b0319166001600160a01b038316908117909155604051919250906000907f8be0079c531659141344cd1fd0a4f28419497f9722a3daafe3b4186f6b6457e0908290a35050600280546001600160a01b0319166001600160a01b0392909216919091179055600655670de0b6b3a76400006008556200013e565b3390565b80516001600160a01b0381168114620000f957600080fd5b919050565b60008060006060848603121562000113578283fd5b835192506200012560208501620000e1565b91506200013560408501620000e1565b90509250925092565b611af4806200014e6000396000f3fe608060405234801561001057600080fd5b50600436106102775760003560e01c80636694198411610160578063a9cc0536116100d8578063d5d7ed7f1161008c578063dc5c66f911610071578063dc5c66f91461045d578063e909ebfa14610470578063f2fde38b1461048357610277565b8063d5d7ed7f14610442578063d8715ca71461044a57610277565b8063c76139d0116100bd578063c76139d01461041f578063cacf8d4514610427578063cb82cc8f1461042f57610277565b8063a9cc05361461040f578063bf9befb11461041757610277565b806381ca66001161012f5780638da5cb5b116101145780638da5cb5b146103f7578063a0098d69146103ff578063a94c7c341461040757610277565b806381ca6600146103e757806383a49c7c146103ef57610277565b806366941984146103b157806367cbf42d146103b9578063715018a6146103cc5780637b23cbce146103d457610277565b80632a0acc6a116101f35780633f0e9edf116101c257806346b88796116101a757806346b887961461039957806348fb27b8146103a15780635c275a39146103a957610277565b80633f0e9edf14610365578063423595e81461037857610277565b80632a0acc6a146103385780632fe94def1461034057806332fe7b2614610348578063392f5f641461035057610277565b806316934fc41161024a5780631cead9a71161022f5780631cead9a7146102ff578063219f951d1461031257806325d5971f1461032557610277565b806316934fc4146102e45780631bc5d81d146102f757610277565b8063020d308d1461027c578063055cfe5314610291578063065d570f146102ba5780630ad69150146102cf575b600080fd5b61028f61028a366004611559565b610496565b005b6102a461029f366004611559565b610585565b6040516102b1919061165e565b60405180910390f35b6102c26105a5565b6040516102b19190611962565b6102d76105aa565b6040516102b1919061199b565b6102d76102f2366004611521565b6105b0565b6102c26105c2565b6102d761030d366004611521565b6105c7565b61028f6103203660046115dc565b6105d9565b61028f6103333660046115dc565b6106d4565b6102c26106de565b6102c26106e3565b6102c26106e8565b6103586106ed565b6040516102b1919061160c565b6102d7610373366004611591565b610709565b61038b610386366004611521565b6107b7565b6040516102b19291906119a4565b6102c26107e6565b6102c26107eb565b6102c26107f0565b6102c26107f5565b6102d76103c7366004611591565b6107fa565b61028f61084c565b6102a46103e2366004611521565b61092e565b6102c26109ae565b6102c26109b3565b6103586109b8565b6102c26109d4565b6102c26109d9565b6102c26109de565b6102d76109e3565b6102c26109e9565b6102c26109ee565b61028f61043d3660046115dc565b6109f3565b6102c26109fd565b61028f6104583660046115dc565b610a02565b6102d761046b366004611521565b610a7a565b61028f61047e366004611559565b610a8c565b61028f610491366004611521565b610b75565b3373ffffffffffffffffffffffffffffffffffffffff831614806104ea575073ffffffffffffffffffffffffffffffffffffffff82166000908152600a6020908152604080832033845290915290205460ff165b610529576040517f08c379a000000000000000000000000000000000000000000000000000000000815260040161052090611782565b60405180910390fd5b73ffffffffffffffffffffffffffffffffffffffff9182166000908152600a60209081526040808320939094168252919091522080547fffffffffffffffffffffffffffffffffffffffffffffffffffffffffffffff00169055565b600a60209081526000928352604080842090915290825290205460ff1681565b600381565b60085481565b60036020526000908152604090205481565b600881565b60076020526000908152604090205481565b600854336000908152600960205260409020546105f690836119c8565b101561062e576040517f08c379a000000000000000000000000000000000000000000000000000000000815260040161052090611725565b6106383382610cc3565b336000908152600960205260409020546106d157336000908152600960205260409020819055610666610fa7565b336000818152600960205260408082206001908101805473ffffffffffffffffffffffffffffffffffffffff9687167fffffffffffffffffffffffff000000000000000000000000000000000000000091821617909155600c54909516835291200180549092161790555b50565b6106d133826110c1565b606b81565b606981565b606781565b60005473ffffffffffffffffffffffffffffffffffffffff1681565b600061071433611368565b61074a576040517f08c379a00000000000000000000000000000000000000000000000000000000081526004016105209061192b565b600654610759906127106119c8565b826006546107679190611a19565b61077191906119e0565b73ffffffffffffffffffffffffffffffffffffffff84166000908152600760205260408120805492935083929091906107ab9084906119c8565b90915550909392505050565b6009602052600090815260409020805460019091015473ffffffffffffffffffffffffffffffffffffffff1682565b600681565b606681565b606581565b600181565b600061080533611368565b61083b576040517f08c379a00000000000000000000000000000000000000000000000000000000081526004016105209061192b565b612710826006546107679190611a19565b610854611418565b73ffffffffffffffffffffffffffffffffffffffff166108726109b8565b73ffffffffffffffffffffffffffffffffffffffff16146108bf576040517f08c379a0000000000000000000000000000000000000000000000000000000008152600401610520906117df565b60015460405160009173ffffffffffffffffffffffffffffffffffffffff16907f8be0079c531659141344cd1fd0a4f28419497f9722a3daafe3b4186f6b6457e0908390a3600180547fffffffffffffffffffffffff0000000000000000000000000000000000000000169055565b600080610939610fa7565b90508273ffffffffffffffffffffffffffffffffffffffff168173ffffffffffffffffffffffffffffffffffffffff1614806109a7575073ffffffffffffffffffffffffffffffffffffffff8082166000908152600a602090815260408083209387168352929052205460ff165b9392505050565b606a81565b600981565b60015473ffffffffffffffffffffffffffffffffffffffff1690565b600281565b600581565b606881565b60045481565b606c81565b600481565b6106d13382610cc3565b600781565b610a0a611418565b73ffffffffffffffffffffffffffffffffffffffff16610a286109b8565b73ffffffffffffffffffffffffffffffffffffffff1614610a75576040517f08c379a0000000000000000000000000000000000000000000000000000000008152600401610520906117df565b600855565b60056020526000908152604090205481565b3373ffffffffffffffffffffffffffffffffffffffff83161480610ae0575073ffffffffffffffffffffffffffffffffffffffff82166000908152600a6020908152604080832033845290915290205460ff165b610b16576040517f08c379a000000000000000000000000000000000000000000000000000000000815260040161052090611782565b73ffffffffffffffffffffffffffffffffffffffff9182166000908152600a60209081526040808320939094168252919091522080547fffffffffffffffffffffffffffffffffffffffffffffffffffffffffffffff00166001179055565b610b7d611418565b73ffffffffffffffffffffffffffffffffffffffff16610b9b6109b8565b73ffffffffffffffffffffffffffffffffffffffff1614610be8576040517f08c379a0000000000000000000000000000000000000000000000000000000008152600401610520906117df565b73ffffffffffffffffffffffffffffffffffffffff8116610c35576040517f08c379a0000000000000000000000000000000000000000000000000000000008152600401610520906116c8565b60015460405173ffffffffffffffffffffffffffffffffffffffff8084169216907f8be0079c531659141344cd1fd0a4f28419497f9722a3daafe3b4186f6b6457e090600090a3600180547fffffffffffffffffffffffff00000000000000000000000000000000000000001673ffffffffffffffffffffffffffffffffffffffff92909216919091179055565b610ccb61141c565b6002546040517fb3db428b00000000000000000000000000000000000000000000000000000000815273ffffffffffffffffffffffffffffffffffffffff9283169263b3db428b92610d2792879290911690869060040161162d565b602060405180830381600087803b158015610d4157600080fd5b505af1158015610d55573d6000803e3d6000fd5b505050506040513d601f19601f82011682018060405250810190610d7991906115bc565b610daf576040517f08c379a00000000000000000000000000000000000000000000000000000000081526004016105209061184b565b3360009081526003602052604081208054839290610dce9084906119c8565b925050819055508060046000828254610de791906119c8565b909155505073ffffffffffffffffffffffffffffffffffffffff821660009081526005602052604090205415610ebd57610e1f6114c9565b73ffffffffffffffffffffffffffffffffffffffff8381166000908152600560205260408082205490517ff5428087000000000000000000000000000000000000000000000000000000008152939092169263f542808792610e86929186906004016116ad565b600060405180830381600087803b158015610ea057600080fd5b505af1158015610eb4573d6000803e3d6000fd5b50505050610fa3565b6000610ec76114c9565b73ffffffffffffffffffffffffffffffffffffffff1663583d8616600085856040518463ffffffff1660e01b8152600401610f0493929190611669565b602060405180830381600087803b158015610f1e57600080fd5b505af1158015610f32573d6000803e3d6000fd5b505050506040513d601f19601f82011682018060405250810190610f5691906115f4565b336000908152600560205260409020819055905080610fa1576040517f08c379a000000000000000000000000000000000000000000000000000000000815260040161052090611814565b505b5050565b60005b600b5473ffffffffffffffffffffffffffffffffffffffff16600090815260096020526040902054600854600d54610fe29043611a56565b610fec9190611a19565b106110a457600854600b5473ffffffffffffffffffffffffffffffffffffffff1660009081526009602052604090205461102691906119e0565b600d600082825461103791906119c8565b9091555050600b8054600c80547fffffffffffffffffffffffff000000000000000000000000000000000000000090811673ffffffffffffffffffffffffffffffffffffffff80851691821790935560009081526009602052604090206001015492169116179055610faa565b50600b5473ffffffffffffffffffffffffffffffffffffffff1690565b73ffffffffffffffffffffffffffffffffffffffff8216600090815260036020526040812080549083905560048054919284926110ff908490611a56565b9091555061110d905061141c565b6002546040517fd9caed1200000000000000000000000000000000000000000000000000000000815273ffffffffffffffffffffffffffffffffffffffff9283169263d9caed1292611168929116908790879060040161162d565b602060405180830381600087803b15801561118257600080fd5b505af1158015611196573d6000803e3d6000fd5b505050506040513d601f19601f820116820180604052508101906111ba91906115bc565b6111f0576040517f08c379a0000000000000000000000000000000000000000000000000000000008152600401610520906118ce565b818114156112c2576112006114c9565b73ffffffffffffffffffffffffffffffffffffffff8481166000908152600560205260408082205490517fc6de9d5d000000000000000000000000000000000000000000000000000000008152939092169263c6de9d5d92611265929160040161169a565b600060405180830381600087803b15801561127f57600080fd5b505af1158015611293573d6000803e3d6000fd5b50505073ffffffffffffffffffffffffffffffffffffffff841660009081526005602052604081205550610fa1565b6112ca6114c9565b73ffffffffffffffffffffffffffffffffffffffff8481166000908152600560205260408082205490517fa8016711000000000000000000000000000000000000000000000000000000008152939092169263a801671192611331929187906004016116ad565b600060405180830381600087803b15801561134b57600080fd5b505af115801561135f573d6000803e3d6000fd5b50505050505050565b600080546040517fd87fefd200000000000000000000000000000000000000000000000000000000815273ffffffffffffffffffffffffffffffffffffffff9091169063d87fefd2906113c2906005908690600401611971565b60206040518083038186803b1580156113da57600080fd5b505afa1580156113ee573d6000803e3d6000fd5b505050506040513d601f19601f8201168201806040525081019061141291906115bc565b92915050565b3390565b600080546040517f3c9c8f9c00000000000000000000000000000000000000000000000000000000815273ffffffffffffffffffffffffffffffffffffffff90911690633c9c8f9c9061147490606590600401611962565b60206040518083038186803b15801561148c57600080fd5b505afa1580156114a0573d6000803e3d6000fd5b505050506040513d601f19601f820116820180604052508101906114c4919061153d565b905090565b600080546040517f3c9c8f9c00000000000000000000000000000000000000000000000000000000815273ffffffffffffffffffffffffffffffffffffffff90911690633c9c8f9c9061147490606c90600401611962565b600060208284031215611532578081fd5b81356109a781611a9c565b60006020828403121561154e578081fd5b81516109a781611a9c565b6000806040838503121561156b578081fd5b823561157681611a9c565b9150602083013561158681611a9c565b809150509250929050565b600080604083850312156115a3578182fd5b82356115ae81611a9c565b946020939093013593505050565b6000602082840312156115cd578081fd5b815180151581146109a7578182fd5b6000602082840312156115ed578081fd5b5035919050565b600060208284031215611605578081fd5b5051919050565b73ffffffffffffffffffffffffffffffffffffffff91909116815260200190565b73ffffffffffffffffffffffffffffffffffffffff9384168152919092166020820152604081019190915260600190565b901515815260200190565b60ff93909316835273ffffffffffffffffffffffffffffffffffffffff919091166020830152604082015260600190565b60ff929092168252602082015260400190565b60ff9390931683526020830191909152604082015260600190565b60208082526026908201527f4f776e61626c653a206e6577206f776e657220697320746865207a65726f206160408201527f6464726573730000000000000000000000000000000000000000000000000000606082015260800190565b60208082526029908201527f496e73756666696369656e74207374616b6520746f2063616c6c206576656e2060408201527f6f6e6520626c6f636b0000000000000000000000000000000000000000000000606082015260800190565b60208082526030908201527f6d73672e73656e646572206e6f7420617574686f72697a656420746f2064656c60408201527f656761746520666f72207374616b657200000000000000000000000000000000606082015260800190565b6020808252818101527f4f776e61626c653a2063616c6c6572206973206e6f7420746865206f776e6572604082015260600190565b6020808252601e908201527f446973747269627574696f6e206973206f766572206f72207061757365640000604082015260600190565b60208082526047908201527f436f756c64206e6f74206465706f736974207374616b652066756e647320287060408201527f657268617073206d616b6520616c6c6f77616e636520746f2066756e6420636f60608201527f6e74726163743f00000000000000000000000000000000000000000000000000608082015260a00190565b60208082526032908201527f496e73756666696369656e742066756e6473202d2d20736f6d657468696e672060408201527f77656e74207265616c6c792077726f6e672e0000000000000000000000000000606082015260800190565b6020808252601d908201527f4e6f7420617574686f72697a656420746f20736f757263652066656573000000604082015260600190565b61ffff91909116815260200190565b61ffff92909216825273ffffffffffffffffffffffffffffffffffffffff16602082015260400190565b90815260200190565b91825273ffffffffffffffffffffffffffffffffffffffff16602082015260400190565b600082198211156119db576119db611a6d565b500190565b600082611a14577f4e487b710000000000000000000000000000000000000000000000000000000081526012600452602481fd5b500490565b6000817fffffffffffffffffffffffffffffffffffffffffffffffffffffffffffffffff0483118215151615611a5157611a51611a6d565b500290565b600082821015611a6857611a68611a6d565b500390565b7f4e487b7100000000000000000000000000000000000000000000000000000000600052601160045260246000fd5b73ffffffffffffffffffffffffffffffffffffffff811681146106d157600080fdfea2646970667358221220fff89b95b842be29d107328e72514549647fe5542cb3747888767a076fd2c1d564736f6c63430008010033",
  "linkReferences": {},
  "deployedLinkReferences": {}
}