{
  "_format": "hh-sol-artifact-1",
  "contractName": "Admin",
  "sourceName": "contracts/Admin.sol",
  "abi": [
    {
      "inputs": [
        {
          "internalType": "uint256",
          "name": "_feesPer10k",
          "type": "uint256"
        },
        {
          "internalType": "address",
          "name": "_MFI",
          "type": "address"
        },
        {
          "internalType": "address",
          "name": "_roles",
          "type": "address"
        }
      ],
      "stateMutability": "nonpayable",
      "type": "constructor"
    },
    {
      "anonymous": false,
      "inputs": [
        {
          "indexed": true,
          "internalType": "address",
          "name": "previousOwner",
          "type": "address"
        },
        {
          "indexed": true,
          "internalType": "address",
          "name": "newOwner",
          "type": "address"
        }
      ],
      "name": "OwnershipTransferred",
      "type": "event"
    },
    {
      "inputs": [],
      "name": "ADMIN",
      "outputs": [
        {
          "internalType": "uint16",
          "name": "",
          "type": "uint16"
        }
      ],
      "stateMutability": "view",
      "type": "function"
    },
    {
      "inputs": [],
      "name": "AUTHORIZED_FUND_TRADER",
      "outputs": [
        {
          "internalType": "uint16",
          "name": "",
          "type": "uint16"
        }
      ],
      "stateMutability": "view",
      "type": "function"
    },
    {
      "inputs": [],
      "name": "BORROWER",
      "outputs": [
        {
          "internalType": "uint16",
          "name": "",
          "type": "uint16"
        }
      ],
      "stateMutability": "view",
      "type": "function"
    },
    {
      "inputs": [],
      "name": "FEE_CONTROLLER",
      "outputs": [
        {
          "internalType": "uint16",
          "name": "",
          "type": "uint16"
        }
      ],
      "stateMutability": "view",
      "type": "function"
    },
    {
      "inputs": [],
      "name": "FEE_SOURCE",
      "outputs": [
        {
          "internalType": "uint16",
          "name": "",
          "type": "uint16"
        }
      ],
      "stateMutability": "view",
      "type": "function"
    },
    {
      "inputs": [],
      "name": "FUND",
      "outputs": [
        {
          "internalType": "uint16",
          "name": "",
          "type": "uint16"
        }
      ],
      "stateMutability": "view",
      "type": "function"
    },
    {
      "inputs": [],
      "name": "INCENTIVE_DISTRIBUTION",
      "outputs": [
        {
          "internalType": "uint16",
          "name": "",
          "type": "uint16"
        }
      ],
      "stateMutability": "view",
      "type": "function"
    },
    {
      "inputs": [],
      "name": "INCENTIVE_REPORTER",
      "outputs": [
        {
          "internalType": "uint16",
          "name": "",
          "type": "uint16"
        }
      ],
      "stateMutability": "view",
      "type": "function"
    },
    {
      "inputs": [],
      "name": "LENDING",
      "outputs": [
        {
          "internalType": "uint16",
          "name": "",
          "type": "uint16"
        }
      ],
      "stateMutability": "view",
      "type": "function"
    },
    {
      "inputs": [],
      "name": "LIQUIDATOR",
      "outputs": [
        {
          "internalType": "uint16",
          "name": "",
          "type": "uint16"
        }
      ],
      "stateMutability": "view",
      "type": "function"
    },
    {
      "inputs": [],
      "name": "MARGIN_CALLER",
      "outputs": [
        {
          "internalType": "uint16",
          "name": "",
          "type": "uint16"
        }
      ],
      "stateMutability": "view",
      "type": "function"
    },
    {
      "inputs": [],
      "name": "MARGIN_TRADER",
      "outputs": [
        {
          "internalType": "uint16",
          "name": "",
          "type": "uint16"
        }
      ],
      "stateMutability": "view",
      "type": "function"
    },
    {
      "inputs": [],
      "name": "MARGIN_TRADING",
      "outputs": [
        {
          "internalType": "uint16",
          "name": "",
          "type": "uint16"
        }
      ],
      "stateMutability": "view",
      "type": "function"
    },
    {
      "inputs": [],
      "name": "PRICE_CONTROLLER",
      "outputs": [
        {
          "internalType": "uint16",
          "name": "",
          "type": "uint16"
        }
      ],
      "stateMutability": "view",
      "type": "function"
    },
    {
      "inputs": [],
      "name": "ROUTER",
      "outputs": [
        {
          "internalType": "uint16",
          "name": "",
          "type": "uint16"
        }
      ],
      "stateMutability": "view",
      "type": "function"
    },
    {
      "inputs": [],
      "name": "TOKEN_ACTIVATOR",
      "outputs": [
        {
          "internalType": "uint16",
          "name": "",
          "type": "uint16"
        }
      ],
      "stateMutability": "view",
      "type": "function"
    },
    {
      "inputs": [],
      "name": "WITHDRAWER",
      "outputs": [
        {
          "internalType": "uint16",
          "name": "",
          "type": "uint16"
        }
      ],
      "stateMutability": "view",
      "type": "function"
    },
    {
      "inputs": [
        {
          "internalType": "address",
          "name": "forStaker",
          "type": "address"
        },
        {
          "internalType": "address",
          "name": "delegate",
          "type": "address"
        }
      ],
      "name": "addDelegate",
      "outputs": [],
      "stateMutability": "nonpayable",
      "type": "function"
    },
    {
      "inputs": [
        {
          "internalType": "address",
          "name": "token",
          "type": "address"
        },
        {
          "internalType": "uint256",
          "name": "amount",
          "type": "uint256"
        }
      ],
      "name": "addTradingFees",
      "outputs": [
        {
          "internalType": "uint256",
          "name": "fees",
          "type": "uint256"
        }
      ],
      "stateMutability": "nonpayable",
      "type": "function"
    },
    {
      "inputs": [
        {
          "internalType": "address",
          "name": "",
          "type": "address"
        }
      ],
      "name": "claimIds",
      "outputs": [
        {
          "internalType": "uint256",
          "name": "",
          "type": "uint256"
        }
      ],
      "stateMutability": "view",
      "type": "function"
    },
    {
      "inputs": [
        {
          "internalType": "address",
          "name": "",
          "type": "address"
        }
      ],
      "name": "collectedFees",
      "outputs": [
        {
          "internalType": "uint256",
          "name": "",
          "type": "uint256"
        }
      ],
      "stateMutability": "view",
      "type": "function"
    },
    {
      "inputs": [
        {
          "internalType": "uint256",
          "name": "amount",
          "type": "uint256"
        }
      ],
      "name": "depositMaintenanceStake",
      "outputs": [],
      "stateMutability": "nonpayable",
      "type": "function"
    },
    {
      "inputs": [
        {
          "internalType": "uint256",
          "name": "amount",
          "type": "uint256"
        }
      ],
      "name": "depositStake",
      "outputs": [],
      "stateMutability": "nonpayable",
      "type": "function"
    },
    {
      "inputs": [
        {
          "internalType": "address",
          "name": "caller",
          "type": "address"
        }
      ],
      "name": "isAuthorizedStaker",
      "outputs": [
        {
          "internalType": "bool",
          "name": "isAuthorized",
          "type": "bool"
        }
      ],
      "stateMutability": "nonpayable",
      "type": "function"
    },
    {
      "inputs": [
        {
          "internalType": "uint16",
          "name": "",
          "type": "uint16"
        }
      ],
      "name": "mainCharacterCache",
      "outputs": [
        {
          "internalType": "address",
          "name": "",
          "type": "address"
        }
      ],
      "stateMutability": "view",
      "type": "function"
    },
    {
      "inputs": [
        {
          "internalType": "address",
          "name": "",
          "type": "address"
        },
        {
          "internalType": "address",
          "name": "",
          "type": "address"
        }
      ],
      "name": "maintenanceDelegateTo",
      "outputs": [
        {
          "internalType": "bool",
          "name": "",
          "type": "bool"
        }
      ],
      "stateMutability": "view",
      "type": "function"
    },
    {
      "inputs": [],
      "name": "maintenanceStakePerBlock",
      "outputs": [
        {
          "internalType": "uint256",
          "name": "",
          "type": "uint256"
        }
      ],
      "stateMutability": "view",
      "type": "function"
    },
    {
      "inputs": [
        {
          "internalType": "address",
          "name": "",
          "type": "address"
        }
      ],
      "name": "maintenanceStakes",
      "outputs": [
        {
          "internalType": "uint256",
          "name": "stake",
          "type": "uint256"
        },
        {
          "internalType": "address",
          "name": "nextStaker",
          "type": "address"
        }
      ],
      "stateMutability": "view",
      "type": "function"
    },
    {
      "inputs": [],
      "name": "owner",
      "outputs": [
        {
          "internalType": "address",
          "name": "",
          "type": "address"
        }
      ],
      "stateMutability": "view",
      "type": "function"
    },
    {
      "inputs": [
        {
          "internalType": "address",
          "name": "forStaker",
          "type": "address"
        },
        {
          "internalType": "address",
          "name": "delegate",
          "type": "address"
        }
      ],
      "name": "removeDelegate",
      "outputs": [],
      "stateMutability": "nonpayable",
      "type": "function"
    },
    {
      "inputs": [],
      "name": "renounceOwnership",
      "outputs": [],
      "stateMutability": "nonpayable",
      "type": "function"
    },
    {
      "inputs": [
        {
          "internalType": "address",
          "name": "",
          "type": "address"
        },
        {
          "internalType": "uint16",
          "name": "",
          "type": "uint16"
        }
      ],
      "name": "roleCache",
      "outputs": [
        {
          "internalType": "bool",
          "name": "",
          "type": "bool"
        }
      ],
      "stateMutability": "view",
      "type": "function"
    },
    {
      "inputs": [],
      "name": "roles",
      "outputs": [
        {
          "internalType": "contract Roles",
          "name": "",
          "type": "address"
        }
      ],
      "stateMutability": "view",
      "type": "function"
    },
    {
      "inputs": [
        {
          "internalType": "uint256",
          "name": "amount",
          "type": "uint256"
        }
      ],
      "name": "setMaintenanceStakePerBlock",
      "outputs": [],
      "stateMutability": "nonpayable",
      "type": "function"
    },
    {
      "inputs": [
        {
          "internalType": "address",
          "name": "",
          "type": "address"
        }
      ],
      "name": "stakes",
      "outputs": [
        {
          "internalType": "uint256",
          "name": "",
          "type": "uint256"
        }
      ],
      "stateMutability": "view",
      "type": "function"
    },
    {
      "inputs": [
        {
          "internalType": "address",
          "name": "token",
          "type": "address"
        },
        {
          "internalType": "uint256",
          "name": "amount",
          "type": "uint256"
        }
      ],
      "name": "subtractTradingFees",
      "outputs": [
        {
          "internalType": "uint256",
          "name": "fees",
          "type": "uint256"
        }
      ],
      "stateMutability": "nonpayable",
      "type": "function"
    },
    {
      "inputs": [],
      "name": "totalStakes",
      "outputs": [
        {
          "internalType": "uint256",
          "name": "",
          "type": "uint256"
        }
      ],
      "stateMutability": "view",
      "type": "function"
    },
    {
      "inputs": [
        {
          "internalType": "address",
          "name": "newOwner",
          "type": "address"
        }
      ],
      "name": "transferOwnership",
      "outputs": [],
      "stateMutability": "nonpayable",
      "type": "function"
    },
    {
      "inputs": [
        {
          "internalType": "uint16",
          "name": "role",
          "type": "uint16"
        }
      ],
      "name": "updateMainCharacterCache",
      "outputs": [],
      "stateMutability": "nonpayable",
      "type": "function"
    },
    {
      "inputs": [
        {
          "internalType": "uint16",
          "name": "role",
          "type": "uint16"
        },
        {
          "internalType": "address",
          "name": "contr",
          "type": "address"
        }
      ],
      "name": "updateRoleCache",
      "outputs": [],
      "stateMutability": "nonpayable",
      "type": "function"
    },
    {
      "inputs": [
        {
          "internalType": "uint256",
          "name": "amount",
          "type": "uint256"
        }
      ],
      "name": "withdrawStake",
      "outputs": [],
      "stateMutability": "nonpayable",
      "type": "function"
    }
  ],
  "bytecode": "0x60806040523480156200001157600080fd5b5060405162001ecb38038062001ecb8339810160408190526200003491620000fe565b600080546001600160a01b0319166001600160a01b03831617815562000059620000dd565b600380546001600160a01b0319166001600160a01b038316908117909155604051919250906000907f8be0079c531659141344cd1fd0a4f28419497f9722a3daafe3b4186f6b6457e0908290a35050600480546001600160a01b0319166001600160a01b0392909216919091179055600855670de0b6b3a7640000600a556200013e565b3390565b80516001600160a01b0381168114620000f957600080fd5b919050565b60008060006060848603121562000113578283fd5b835192506200012560208501620000e1565b91506200013560408501620000e1565b90509250925092565b611d7d806200014e6000396000f3fe608060405234801561001057600080fd5b50600436106102d35760003560e01c806367cbf42d11610186578063b4481652116100e3578063cb82cc8f11610097578063dc5c66f911610071578063dc5c66f914610505578063e909ebfa14610518578063f2fde38b1461052b576102d3565b8063cb82cc8f146104d7578063d5d7ed7f146104ea578063d8715ca7146104f2576102d3565b8063c34316c3116100c8578063c34316c3146104b4578063c76139d0146104c7578063cacf8d45146104cf576102d3565b8063b448165214610499578063bf9befb1146104ac576102d3565b806383a49c7c1161013a578063a0098d691161011f578063a0098d6914610481578063a94c7c3414610489578063a9cc053614610491576102d3565b806383a49c7c146104715780638da5cb5b14610479576102d3565b8063715018a61161016b578063715018a61461044e5780637b23cbce1461045657806381ca660014610469576102d3565b806367cbf42d146104285780636cd5cd601461043b576102d3565b80632a0acc6a11610234578063423595e8116101e857806348fb27b8116101cd57806348fb27b8146104105780635c275a39146104185780636694198414610420576102d3565b8063423595e8146103e757806346b8879614610408576102d3565b806332fe7b261161021957806332fe7b26146103b7578063392f5f64146103bf5780633f0e9edf146103d4576102d3565b80632a0acc6a146103a75780632fe94def146103af576102d3565b80631bc5d81d1161028b57806320e8d8191161027057806320e8d8191461036e578063219f951d1461038157806325d5971f14610394576102d3565b80631bc5d81d146103535780631cead9a71461035b576102d3565b8063065d570f116102bc578063065d570f146103165780630ad691501461032b57806316934fc414610340576102d3565b8063020d308d146102d8578063055cfe53146102ed575b600080fd5b6102eb6102e6366004611779565b61053e565b005b6103006102fb366004611779565b61062d565b60405161030d91906118e7565b60405180910390f35b61031e61064d565b60405161030d9190611beb565b610333610652565b60405161030d9190611c24565b61033361034e366004611741565b610658565b61031e61066a565b610333610369366004611741565b61066f565b6102eb61037c36600461184a565b610681565b6102eb61038f366004611865565b610792565b6102eb6103a2366004611865565b61088d565b61031e610897565b61031e61089c565b61031e6108a1565b6103c76108a6565b60405161030d9190611895565b6103336103e23660046117e5565b6108c2565b6103fa6103f5366004611741565b610970565b60405161030d929190611c2d565b61031e61099f565b61031e6109a4565b61031e6109a9565b61031e6109ae565b6103336104363660046117e5565b6109b3565b6102eb610449366004611830565b610a05565b6102eb610b04565b610300610464366004611741565b610be6565b61031e610c66565b61031e610c6b565b6103c7610c70565b61031e610c8c565b61031e610c91565b61031e610c96565b6103c76104a7366004611830565b610c9b565b610333610cc3565b6103006104c23660046117b1565b610cc9565b61031e610ce9565b61031e610cee565b6102eb6104e5366004611865565b610cf3565b61031e610cfd565b6102eb610500366004611865565b610d02565b610333610513366004611741565b610d7a565b6102eb610526366004611779565b610d8c565b6102eb610539366004611741565b610e75565b3373ffffffffffffffffffffffffffffffffffffffff83161480610592575073ffffffffffffffffffffffffffffffffffffffff82166000908152600c6020908152604080832033845290915290205460ff165b6105d1576040517f08c379a00000000000000000000000000000000000000000000000000000000081526004016105c890611a0b565b60405180910390fd5b73ffffffffffffffffffffffffffffffffffffffff9182166000908152600c60209081526040808320939094168252919091522080547fffffffffffffffffffffffffffffffffffffffffffffffffffffffffffffff00169055565b600c60209081526000928352604080842090915290825290205460ff1681565b600381565b600a5481565b60056020526000908152604090205481565b600881565b60096020526000908152604090205481565b6000546040517fd87fefd200000000000000000000000000000000000000000000000000000000815273ffffffffffffffffffffffffffffffffffffffff9091169063d87fefd2906106d99085908590600401611bfa565b60206040518083038186803b1580156106f157600080fd5b505afa158015610705573d6000803e3d6000fd5b505050506040513d601f19601f820116820180604052508101906107299190611810565b73ffffffffffffffffffffffffffffffffffffffff909116600090815260026020908152604080832061ffff90951683529390529190912080549115157fffffffffffffffffffffffffffffffffffffffffffffffffffffffffffffff00909216919091179055565b600a54336000908152600b60205260409020546107af9083611c51565b10156107e7576040517f08c379a00000000000000000000000000000000000000000000000000000000081526004016105c8906119ae565b6107f13382610fc3565b336000908152600b602052604090205461088a57336000908152600b6020526040902081905561081f6112a5565b336000818152600b60205260408082206001908101805473ffffffffffffffffffffffffffffffffffffffff9687167fffffffffffffffffffffffff000000000000000000000000000000000000000091821617909155600e54909516835291200180549092161790555b50565b61088a33826113bf565b606b81565b606981565b606781565b60005473ffffffffffffffffffffffffffffffffffffffff1681565b60006108cd33611666565b610903576040517f08c379a00000000000000000000000000000000000000000000000000000000081526004016105c890611bb4565b60085461091290612710611c51565b826008546109209190611ca2565b61092a9190611c69565b73ffffffffffffffffffffffffffffffffffffffff8416600090815260096020526040812080549293508392909190610964908490611c51565b90915550909392505050565b600b602052600090815260409020805460019091015473ffffffffffffffffffffffffffffffffffffffff1682565b600681565b606681565b606581565b600181565b60006109be33611666565b6109f4576040517f08c379a00000000000000000000000000000000000000000000000000000000081526004016105c890611bb4565b612710826008546109209190611ca2565b6000546040517f3c9c8f9c00000000000000000000000000000000000000000000000000000000815273ffffffffffffffffffffffffffffffffffffffff90911690633c9c8f9c90610a5b908490600401611beb565b60206040518083038186803b158015610a7357600080fd5b505afa158015610a87573d6000803e3d6000fd5b505050506040513d601f19601f82011682018060405250810190610aab919061175d565b61ffff91909116600090815260016020526040902080547fffffffffffffffffffffffff00000000000000000000000000000000000000001673ffffffffffffffffffffffffffffffffffffffff909216919091179055565b610b0c6116a1565b73ffffffffffffffffffffffffffffffffffffffff16610b2a610c70565b73ffffffffffffffffffffffffffffffffffffffff1614610b77576040517f08c379a00000000000000000000000000000000000000000000000000000000081526004016105c890611a68565b60035460405160009173ffffffffffffffffffffffffffffffffffffffff16907f8be0079c531659141344cd1fd0a4f28419497f9722a3daafe3b4186f6b6457e0908390a3600380547fffffffffffffffffffffffff0000000000000000000000000000000000000000169055565b600080610bf16112a5565b90508273ffffffffffffffffffffffffffffffffffffffff168173ffffffffffffffffffffffffffffffffffffffff161480610c5f575073ffffffffffffffffffffffffffffffffffffffff8082166000908152600c602090815260408083209387168352929052205460ff165b9392505050565b606a81565b600981565b60035473ffffffffffffffffffffffffffffffffffffffff1690565b600281565b600581565b606881565b60016020526000908152604090205473ffffffffffffffffffffffffffffffffffffffff1681565b60065481565b600260209081526000928352604080842090915290825290205460ff1681565b606c81565b600481565b61088a3382610fc3565b600781565b610d0a6116a1565b73ffffffffffffffffffffffffffffffffffffffff16610d28610c70565b73ffffffffffffffffffffffffffffffffffffffff1614610d75576040517f08c379a00000000000000000000000000000000000000000000000000000000081526004016105c890611a68565b600a55565b60076020526000908152604090205481565b3373ffffffffffffffffffffffffffffffffffffffff83161480610de0575073ffffffffffffffffffffffffffffffffffffffff82166000908152600c6020908152604080832033845290915290205460ff165b610e16576040517f08c379a00000000000000000000000000000000000000000000000000000000081526004016105c890611a0b565b73ffffffffffffffffffffffffffffffffffffffff9182166000908152600c60209081526040808320939094168252919091522080547fffffffffffffffffffffffffffffffffffffffffffffffffffffffffffffff00166001179055565b610e7d6116a1565b73ffffffffffffffffffffffffffffffffffffffff16610e9b610c70565b73ffffffffffffffffffffffffffffffffffffffff1614610ee8576040517f08c379a00000000000000000000000000000000000000000000000000000000081526004016105c890611a68565b73ffffffffffffffffffffffffffffffffffffffff8116610f35576040517f08c379a00000000000000000000000000000000000000000000000000000000081526004016105c890611951565b60035460405173ffffffffffffffffffffffffffffffffffffffff8084169216907f8be0079c531659141344cd1fd0a4f28419497f9722a3daafe3b4186f6b6457e090600090a3600380547fffffffffffffffffffffffff00000000000000000000000000000000000000001673ffffffffffffffffffffffffffffffffffffffff92909216919091179055565b610fcb6116a5565b600480546040517fb3db428b00000000000000000000000000000000000000000000000000000000815273ffffffffffffffffffffffffffffffffffffffff9384169363b3db428b936110259388939216918791016118b6565b602060405180830381600087803b15801561103f57600080fd5b505af1158015611053573d6000803e3d6000fd5b505050506040513d601f19601f820116820180604052508101906110779190611810565b6110ad576040517f08c379a00000000000000000000000000000000000000000000000000000000081526004016105c890611ad4565b33600090815260056020526040812080548392906110cc908490611c51565b9250508190555080600660008282546110e59190611c51565b909155505073ffffffffffffffffffffffffffffffffffffffff8216600090815260076020526040902054156111bb5761111d6116ea565b73ffffffffffffffffffffffffffffffffffffffff8381166000908152600760205260408082205490517ff5428087000000000000000000000000000000000000000000000000000000008152939092169263f54280879261118492918690600401611936565b600060405180830381600087803b15801561119e57600080fd5b505af11580156111b2573d6000803e3d6000fd5b505050506112a1565b60006111c56116ea565b73ffffffffffffffffffffffffffffffffffffffff1663583d8616600085856040518463ffffffff1660e01b8152600401611202939291906118f2565b602060405180830381600087803b15801561121c57600080fd5b505af1158015611230573d6000803e3d6000fd5b505050506040513d601f19601f82011682018060405250810190611254919061187d565b33600090815260076020526040902081905590508061129f576040517f08c379a00000000000000000000000000000000000000000000000000000000081526004016105c890611a9d565b505b5050565b60005b600d5473ffffffffffffffffffffffffffffffffffffffff166000908152600b6020526040902054600a54600f546112e09043611cdf565b6112ea9190611ca2565b106113a257600a54600d5473ffffffffffffffffffffffffffffffffffffffff166000908152600b60205260409020546113249190611c69565b600f60008282546113359190611c51565b9091555050600d8054600e80547fffffffffffffffffffffffff000000000000000000000000000000000000000090811673ffffffffffffffffffffffffffffffffffffffff8085169182179093556000908152600b6020526040902060010154921691161790556112a8565b50600d5473ffffffffffffffffffffffffffffffffffffffff1690565b73ffffffffffffffffffffffffffffffffffffffff8216600090815260056020526040812080549083905560068054919284926113fd908490611cdf565b9091555061140b90506116a5565b600480546040517fd9caed1200000000000000000000000000000000000000000000000000000000815273ffffffffffffffffffffffffffffffffffffffff9384169363d9caed1293611466939091169188918891016118b6565b602060405180830381600087803b15801561148057600080fd5b505af1158015611494573d6000803e3d6000fd5b505050506040513d601f19601f820116820180604052508101906114b89190611810565b6114ee576040517f08c379a00000000000000000000000000000000000000000000000000000000081526004016105c890611b57565b818114156115c0576114fe6116ea565b73ffffffffffffffffffffffffffffffffffffffff8481166000908152600760205260408082205490517fc6de9d5d000000000000000000000000000000000000000000000000000000008152939092169263c6de9d5d926115639291600401611923565b600060405180830381600087803b15801561157d57600080fd5b505af1158015611591573d6000803e3d6000fd5b50505073ffffffffffffffffffffffffffffffffffffffff84166000908152600760205260408120555061129f565b6115c86116ea565b73ffffffffffffffffffffffffffffffffffffffff8481166000908152600760205260408082205490517fa8016711000000000000000000000000000000000000000000000000000000008152939092169263a80167119261162f92918790600401611936565b600060405180830381600087803b15801561164957600080fd5b505af115801561165d573d6000803e3d6000fd5b50505050505050565b73ffffffffffffffffffffffffffffffffffffffff811660009081526002602090815260408083206005845290915290205460ff165b919050565b3390565b606560005260016020527f6def5a300acb6fcaa0dab3a41e9d6457b5147a641e641380f8cc4bf5308b16fe5473ffffffffffffffffffffffffffffffffffffffff1690565b606c60005260016020527fd80c728dcb954e7539257f5b9090fa0c83e482d978be864c61ec2b155c05c2525473ffffffffffffffffffffffffffffffffffffffff1690565b803561ffff8116811461169c57600080fd5b600060208284031215611752578081fd5b8135610c5f81611d25565b60006020828403121561176e578081fd5b8151610c5f81611d25565b6000806040838503121561178b578081fd5b823561179681611d25565b915060208301356117a681611d25565b809150509250929050565b600080604083850312156117c3578182fd5b82356117ce81611d25565b91506117dc6020840161172f565b90509250929050565b600080604083850312156117f7578182fd5b823561180281611d25565b946020939093013593505050565b600060208284031215611821578081fd5b81518015158114610c5f578182fd5b600060208284031215611841578081fd5b610c5f8261172f565b6000806040838503121561185c578182fd5b6117968361172f565b600060208284031215611876578081fd5b5035919050565b60006020828403121561188e578081fd5b5051919050565b73ffffffffffffffffffffffffffffffffffffffff91909116815260200190565b73ffffffffffffffffffffffffffffffffffffffff9384168152919092166020820152604081019190915260600190565b901515815260200190565b60ff93909316835273ffffffffffffffffffffffffffffffffffffffff919091166020830152604082015260600190565b60ff929092168252602082015260400190565b60ff9390931683526020830191909152604082015260600190565b60208082526026908201527f4f776e61626c653a206e6577206f776e657220697320746865207a65726f206160408201527f6464726573730000000000000000000000000000000000000000000000000000606082015260800190565b60208082526029908201527f496e73756666696369656e74207374616b6520746f2063616c6c206576656e2060408201527f6f6e6520626c6f636b0000000000000000000000000000000000000000000000606082015260800190565b60208082526030908201527f6d73672e73656e646572206e6f7420617574686f72697a656420746f2064656c60408201527f656761746520666f72207374616b657200000000000000000000000000000000606082015260800190565b6020808252818101527f4f776e61626c653a2063616c6c6572206973206e6f7420746865206f776e6572604082015260600190565b6020808252601e908201527f446973747269627574696f6e206973206f766572206f72207061757365640000604082015260600190565b60208082526047908201527f436f756c64206e6f74206465706f736974207374616b652066756e647320287060408201527f657268617073206d616b6520616c6c6f77616e636520746f2066756e6420636f60608201527f6e74726163743f00000000000000000000000000000000000000000000000000608082015260a00190565b60208082526032908201527f496e73756666696369656e742066756e6473202d2d20736f6d657468696e672060408201527f77656e74207265616c6c792077726f6e672e0000000000000000000000000000606082015260800190565b6020808252601d908201527f4e6f7420617574686f72697a656420746f20736f757263652066656573000000604082015260600190565b61ffff91909116815260200190565b61ffff92909216825273ffffffffffffffffffffffffffffffffffffffff16602082015260400190565b90815260200190565b91825273ffffffffffffffffffffffffffffffffffffffff16602082015260400190565b60008219821115611c6457611c64611cf6565b500190565b600082611c9d577f4e487b710000000000000000000000000000000000000000000000000000000081526012600452602481fd5b500490565b6000817fffffffffffffffffffffffffffffffffffffffffffffffffffffffffffffffff0483118215151615611cda57611cda611cf6565b500290565b600082821015611cf157611cf1611cf6565b500390565b7f4e487b7100000000000000000000000000000000000000000000000000000000600052601160045260246000fd5b73ffffffffffffffffffffffffffffffffffffffff8116811461088a57600080fdfea2646970667358221220c7d8d0154d131791995a71e877109e0b02598fd00d27751095d2a03751a21c7264736f6c63430008010033",
  "linkReferences": {},
  "deployedLinkReferences": {}
}