{
  "_format": "hh-sol-artifact-1",
  "contractName": "Admin",
  "sourceName": "contracts/Admin.sol",
  "abi": [
    {
      "inputs": [
        {
          "internalType": "uint256",
          "name": "_feesPer10k",
          "type": "uint256"
        },
        {
          "internalType": "address",
          "name": "_MFI",
          "type": "address"
        },
        {
          "internalType": "address",
          "name": "_roles",
          "type": "address"
        }
      ],
      "stateMutability": "nonpayable",
      "type": "constructor"
    },
    {
      "anonymous": false,
      "inputs": [
        {
          "indexed": true,
          "internalType": "address",
          "name": "previousOwner",
          "type": "address"
        },
        {
          "indexed": true,
          "internalType": "address",
          "name": "newOwner",
          "type": "address"
        }
      ],
      "name": "OwnershipTransferred",
      "type": "event"
    },
    {
      "inputs": [],
      "name": "ADMIN",
      "outputs": [
        {
          "internalType": "uint16",
          "name": "",
          "type": "uint16"
        }
      ],
      "stateMutability": "view",
      "type": "function"
    },
    {
      "inputs": [],
      "name": "AUTHORIZED_FUND_TRADER",
      "outputs": [
        {
          "internalType": "uint16",
          "name": "",
          "type": "uint16"
        }
      ],
      "stateMutability": "view",
      "type": "function"
    },
    {
      "inputs": [],
      "name": "BORROWER",
      "outputs": [
        {
          "internalType": "uint16",
          "name": "",
          "type": "uint16"
        }
      ],
      "stateMutability": "view",
      "type": "function"
    },
    {
      "inputs": [],
      "name": "FEE_CONTROLLER",
      "outputs": [
        {
          "internalType": "uint16",
          "name": "",
          "type": "uint16"
        }
      ],
      "stateMutability": "view",
      "type": "function"
    },
    {
      "inputs": [],
      "name": "FEE_SOURCE",
      "outputs": [
        {
          "internalType": "uint16",
          "name": "",
          "type": "uint16"
        }
      ],
      "stateMutability": "view",
      "type": "function"
    },
    {
      "inputs": [],
      "name": "FUND",
      "outputs": [
        {
          "internalType": "uint16",
          "name": "",
          "type": "uint16"
        }
      ],
      "stateMutability": "view",
      "type": "function"
    },
    {
      "inputs": [],
      "name": "INCENTIVE_DISTRIBUTION",
      "outputs": [
        {
          "internalType": "uint16",
          "name": "",
          "type": "uint16"
        }
      ],
      "stateMutability": "view",
      "type": "function"
    },
    {
      "inputs": [],
      "name": "INCENTIVE_REPORTER",
      "outputs": [
        {
          "internalType": "uint16",
          "name": "",
          "type": "uint16"
        }
      ],
      "stateMutability": "view",
      "type": "function"
    },
    {
      "inputs": [],
      "name": "LENDING",
      "outputs": [
        {
          "internalType": "uint16",
          "name": "",
          "type": "uint16"
        }
      ],
      "stateMutability": "view",
      "type": "function"
    },
    {
      "inputs": [],
      "name": "LIQUIDATOR",
      "outputs": [
        {
          "internalType": "uint16",
          "name": "",
          "type": "uint16"
        }
      ],
      "stateMutability": "view",
      "type": "function"
    },
    {
      "inputs": [],
      "name": "MARGIN_CALLER",
      "outputs": [
        {
          "internalType": "uint16",
          "name": "",
          "type": "uint16"
        }
      ],
      "stateMutability": "view",
      "type": "function"
    },
    {
      "inputs": [],
      "name": "MARGIN_TRADER",
      "outputs": [
        {
          "internalType": "uint16",
          "name": "",
          "type": "uint16"
        }
      ],
      "stateMutability": "view",
      "type": "function"
    },
    {
      "inputs": [],
      "name": "MARGIN_TRADING",
      "outputs": [
        {
          "internalType": "uint16",
          "name": "",
          "type": "uint16"
        }
      ],
      "stateMutability": "view",
      "type": "function"
    },
    {
      "inputs": [],
      "name": "PRICE_CONTROLLER",
      "outputs": [
        {
          "internalType": "uint16",
          "name": "",
          "type": "uint16"
        }
      ],
      "stateMutability": "view",
      "type": "function"
    },
    {
      "inputs": [],
      "name": "ROUTER",
      "outputs": [
        {
          "internalType": "uint16",
          "name": "",
          "type": "uint16"
        }
      ],
      "stateMutability": "view",
      "type": "function"
    },
    {
      "inputs": [],
      "name": "STAKE_PENALIZER",
      "outputs": [
        {
          "internalType": "uint16",
          "name": "",
          "type": "uint16"
        }
      ],
      "stateMutability": "view",
      "type": "function"
    },
    {
      "inputs": [],
      "name": "TOKEN_ACTIVATOR",
      "outputs": [
        {
          "internalType": "uint16",
          "name": "",
          "type": "uint16"
        }
      ],
      "stateMutability": "view",
      "type": "function"
    },
    {
      "inputs": [],
      "name": "WITHDRAWER",
      "outputs": [
        {
          "internalType": "uint16",
          "name": "",
          "type": "uint16"
        }
      ],
      "stateMutability": "view",
      "type": "function"
    },
    {
      "inputs": [
        {
          "internalType": "address",
          "name": "forStaker",
          "type": "address"
        },
        {
          "internalType": "address",
          "name": "delegate",
          "type": "address"
        }
      ],
      "name": "addDelegate",
      "outputs": [],
      "stateMutability": "nonpayable",
      "type": "function"
    },
    {
      "inputs": [
        {
          "internalType": "address",
          "name": "token",
          "type": "address"
        },
        {
          "internalType": "uint256",
          "name": "amount",
          "type": "uint256"
        }
      ],
      "name": "addTradingFees",
      "outputs": [
        {
          "internalType": "uint256",
          "name": "fees",
          "type": "uint256"
        }
      ],
      "stateMutability": "nonpayable",
      "type": "function"
    },
    {
      "inputs": [
        {
          "internalType": "address",
          "name": "",
          "type": "address"
        }
      ],
      "name": "claimIds",
      "outputs": [
        {
          "internalType": "uint256",
          "name": "",
          "type": "uint256"
        }
      ],
      "stateMutability": "view",
      "type": "function"
    },
    {
      "inputs": [
        {
          "internalType": "address",
          "name": "",
          "type": "address"
        }
      ],
      "name": "collectedFees",
      "outputs": [
        {
          "internalType": "uint256",
          "name": "",
          "type": "uint256"
        }
      ],
      "stateMutability": "view",
      "type": "function"
    },
    {
      "inputs": [
        {
          "internalType": "uint256",
          "name": "amount",
          "type": "uint256"
        }
      ],
      "name": "depositMaintenanceStake",
      "outputs": [],
      "stateMutability": "nonpayable",
      "type": "function"
    },
    {
      "inputs": [
        {
          "internalType": "uint256",
          "name": "amount",
          "type": "uint256"
        }
      ],
      "name": "depositStake",
      "outputs": [],
      "stateMutability": "nonpayable",
      "type": "function"
    },
    {
      "inputs": [
        {
          "internalType": "address",
          "name": "caller",
          "type": "address"
        }
      ],
      "name": "isAuthorizedStaker",
      "outputs": [
        {
          "internalType": "bool",
          "name": "isAuthorized",
          "type": "bool"
        }
      ],
      "stateMutability": "nonpayable",
      "type": "function"
    },
    {
      "inputs": [
        {
          "internalType": "address",
          "name": "",
          "type": "address"
        },
        {
          "internalType": "address",
          "name": "",
          "type": "address"
        }
      ],
      "name": "maintenanceDelegateTo",
      "outputs": [
        {
          "internalType": "bool",
          "name": "",
          "type": "bool"
        }
      ],
      "stateMutability": "view",
      "type": "function"
    },
    {
      "inputs": [],
      "name": "maintenanceStakePerBlock",
      "outputs": [
        {
          "internalType": "uint256",
          "name": "",
          "type": "uint256"
        }
      ],
      "stateMutability": "view",
      "type": "function"
    },
    {
      "inputs": [
        {
          "internalType": "address",
          "name": "",
          "type": "address"
        }
      ],
      "name": "nextMaintenanceStaker",
      "outputs": [
        {
          "internalType": "address",
          "name": "",
          "type": "address"
        }
      ],
      "stateMutability": "view",
      "type": "function"
    },
    {
      "inputs": [],
      "name": "owner",
      "outputs": [
        {
          "internalType": "address",
          "name": "",
          "type": "address"
        }
      ],
      "stateMutability": "view",
      "type": "function"
    },
    {
      "inputs": [
        {
          "internalType": "address",
          "name": "maintainer",
          "type": "address"
        },
        {
          "internalType": "uint256",
          "name": "penalty",
          "type": "uint256"
        },
        {
          "internalType": "address",
          "name": "recipient",
          "type": "address"
        }
      ],
      "name": "penalizeMaintenanceStake",
      "outputs": [
        {
          "internalType": "uint256",
          "name": "stakeTaken",
          "type": "uint256"
        }
      ],
      "stateMutability": "nonpayable",
      "type": "function"
    },
    {
      "inputs": [
        {
          "internalType": "address",
          "name": "forStaker",
          "type": "address"
        },
        {
          "internalType": "address",
          "name": "delegate",
          "type": "address"
        }
      ],
      "name": "removeDelegate",
      "outputs": [],
      "stateMutability": "nonpayable",
      "type": "function"
    },
    {
      "inputs": [],
      "name": "renounceOwnership",
      "outputs": [],
      "stateMutability": "nonpayable",
      "type": "function"
    },
    {
      "inputs": [],
      "name": "roles",
      "outputs": [
        {
          "internalType": "contract Roles",
          "name": "",
          "type": "address"
        }
      ],
      "stateMutability": "view",
      "type": "function"
    },
    {
      "inputs": [
        {
          "internalType": "uint256",
          "name": "amount",
          "type": "uint256"
        }
      ],
      "name": "setMaintenanceStakePerBlock",
      "outputs": [],
      "stateMutability": "nonpayable",
      "type": "function"
    },
    {
      "inputs": [
        {
          "internalType": "address",
          "name": "",
          "type": "address"
        }
      ],
      "name": "stakes",
      "outputs": [
        {
          "internalType": "uint256",
          "name": "",
          "type": "uint256"
        }
      ],
      "stateMutability": "view",
      "type": "function"
    },
    {
      "inputs": [
        {
          "internalType": "address",
          "name": "token",
          "type": "address"
        },
        {
          "internalType": "uint256",
          "name": "amount",
          "type": "uint256"
        }
      ],
      "name": "subtractTradingFees",
      "outputs": [
        {
          "internalType": "uint256",
          "name": "fees",
          "type": "uint256"
        }
      ],
      "stateMutability": "nonpayable",
      "type": "function"
    },
    {
      "inputs": [],
      "name": "totalStakes",
      "outputs": [
        {
          "internalType": "uint256",
          "name": "",
          "type": "uint256"
        }
      ],
      "stateMutability": "view",
      "type": "function"
    },
    {
      "inputs": [
        {
          "internalType": "address",
          "name": "newOwner",
          "type": "address"
        }
      ],
      "name": "transferOwnership",
      "outputs": [],
      "stateMutability": "nonpayable",
      "type": "function"
    },
    {
      "inputs": [
        {
          "internalType": "uint256",
          "name": "amount",
          "type": "uint256"
        }
      ],
      "name": "withdrawStake",
      "outputs": [],
      "stateMutability": "nonpayable",
      "type": "function"
    }
  ],
  "bytecode": "0x60806040523480156200001157600080fd5b5060405162001f5038038062001f508339810160408190526200003491620000fe565b600080546001600160a01b0319166001600160a01b03831617815562000059620000dd565b600180546001600160a01b0319166001600160a01b038316908117909155604051919250906000907f8be0079c531659141344cd1fd0a4f28419497f9722a3daafe3b4186f6b6457e0908290a35050600280546001600160a01b0319166001600160a01b0392909216919091179055600655670de0b6b3a76400006008556200013e565b3390565b80516001600160a01b0381168114620000f957600080fd5b919050565b60008060006060848603121562000113578283fd5b835192506200012560208501620000e1565b91506200013560408501620000e1565b90509250925092565b611e02806200014e6000396000f3fe608060405234801561001057600080fd5b50600436106102ad5760003560e01c8063669419841161017b578063bf9befb1116100d8578063d5d7ed7f1161008c578063dc5c66f911610071578063dc5c66f9146104a0578063e909ebfa146104b3578063f2fde38b146104c6576102ad565b8063d5d7ed7f14610485578063d8715ca71461048d576102ad565b8063c76139d0116100bd578063c76139d014610462578063cacf8d451461046a578063cb82cc8f14610472576102ad565b8063bf9befb114610447578063c3fff5d91461044f576102ad565b806383a49c7c1161012f578063a0098d6911610114578063a0098d691461042f578063a94c7c3414610437578063a9cc05361461043f576102ad565b806383a49c7c1461041f5780638da5cb5b14610427576102ad565b8063715018a611610160578063715018a6146103fc5780637b23cbce1461040457806381ca660014610417576102ad565b806366941984146103e157806367cbf42d146103e9576102ad565b8063219f951d11610229578063392f5f64116101dd57806346b88796116101c257806346b88796146103c957806348fb27b8146103d15780635c275a39146103d9576102ad565b8063392f5f64146103a15780633f0e9edf146103b6576102ad565b80632a0acc6a1161020e5780632a0acc6a146103895780632fe94def1461039157806332fe7b2614610399576102ad565b8063219f951d1461036357806325d5971f14610376576102ad565b80630ad69150116102805780631b669507116102655780631b669507146103405780631bc5d81d146103485780631cead9a714610350576102ad565b80630ad691501461032557806316934fc41461032d576102ad565b8063020d308d146102b2578063055cfe53146102c7578063065d570f146102f05780630a45bc1b14610305575b600080fd5b6102c56102c0366004611790565b6104d9565b005b6102da6102d5366004611790565b6105c8565b6040516102e791906118d6565b60405180910390f35b6102f86105e8565b6040516102e79190611c94565b6103186103133660046117f3565b6105ed565b6040516102e79190611ccd565b61031861069c565b61031861033b366004611758565b6106a2565b6102f86106b4565b6102f86106b9565b61031861035e366004611758565b6106be565b6102c5610371366004611854565b6106d0565b6102c5610384366004611854565b6107c9565b6102f8610814565b6102f8610819565b6102f861081e565b6103a9610823565b6040516102e79190611884565b6103186103c43660046117c8565b61083f565b6102f86108ed565b6102f86108f2565b6102f86108f7565b6102f86108fc565b6103186103f73660046117c8565b610901565b6102c5610953565b6102da610412366004611758565b610a35565b6102f8610ab4565b6102f8610ab9565b6103a9610abe565b6102f8610ada565b6102f8610adf565b6102f8610ae4565b610318610ae9565b6103a961045d366004611758565b610aef565b6102f8610b17565b6102f8610b1c565b6102c5610480366004611854565b610b21565b6102f8610b2b565b6102c561049b366004611854565b610b30565b6103186104ae366004611758565b610ba8565b6102c56104c1366004611790565b610bba565b6102c56104d4366004611758565b610ca3565b3373ffffffffffffffffffffffffffffffffffffffff8316148061052d575073ffffffffffffffffffffffffffffffffffffffff82166000908152600a6020908152604080832033845290915290205460ff165b61056c576040517f08c379a000000000000000000000000000000000000000000000000000000000815260040161056390611a57565b60405180910390fd5b73ffffffffffffffffffffffffffffffffffffffff9182166000908152600a60209081526040808320939094168252919091522080547fffffffffffffffffffffffffffffffffffffffffffffffffffffffffffffff00169055565b600a60209081526000928352604080842090915290825290205460ff1681565b600381565b60006105f833610df1565b61062e576040517f08c379a000000000000000000000000000000000000000000000000000000000815260040161056390611940565b73ffffffffffffffffffffffffffffffffffffffff8416600090815260036020526040902054831115610687575073ffffffffffffffffffffffffffffffffffffffff831660009081526003602052604090205461068a565b50815b610695848284610ea1565b9392505050565b60085481565b60036020526000908152604090205481565b600a81565b600881565b60076020526000908152604090205481565b600854336000908152600360205260409020546106ed9083611cd6565b1015610725576040517f08c379a0000000000000000000000000000000000000000000000000000000008152600401610563906119fa565b61072f338261114a565b3360009081526009602052604090205473ffffffffffffffffffffffffffffffffffffffff166107c65761076161142e565b33600081815260096020526040808220805473ffffffffffffffffffffffffffffffffffffffff9586167fffffffffffffffffffffffff000000000000000000000000000000000000000091821617909155600c549094168252902080549092161790555b50565b6107d233610a35565b15610809576040517f08c379a000000000000000000000000000000000000000000000000000000000815260040161056390611c37565b6107c6338233610ea1565b606b81565b606981565b606781565b60005473ffffffffffffffffffffffffffffffffffffffff1681565b600061084a336115f5565b610880576040517f08c379a000000000000000000000000000000000000000000000000000000000815260040161056390611c00565b60065461088f90612710611cd6565b8260065461089d9190611d27565b6108a79190611cee565b73ffffffffffffffffffffffffffffffffffffffff84166000908152600760205260408120805492935083929091906108e1908490611cd6565b90915550909392505050565b600681565b606681565b606581565b600181565b600061090c336115f5565b610942576040517f08c379a000000000000000000000000000000000000000000000000000000000815260040161056390611c00565b6127108260065461089d9190611d27565b61095b61164f565b73ffffffffffffffffffffffffffffffffffffffff16610979610abe565b73ffffffffffffffffffffffffffffffffffffffff16146109c6576040517f08c379a000000000000000000000000000000000000000000000000000000000815260040161056390611ab4565b60015460405160009173ffffffffffffffffffffffffffffffffffffffff16907f8be0079c531659141344cd1fd0a4f28419497f9722a3daafe3b4186f6b6457e0908390a3600180547fffffffffffffffffffffffff0000000000000000000000000000000000000000169055565b600080610a4061142e565b90508273ffffffffffffffffffffffffffffffffffffffff168173ffffffffffffffffffffffffffffffffffffffff161480610695575073ffffffffffffffffffffffffffffffffffffffff8082166000908152600a602090815260408083209387168352929052205460ff169392505050565b606a81565b600981565b60015473ffffffffffffffffffffffffffffffffffffffff1690565b600281565b600581565b606881565b60045481565b60096020526000908152604090205473ffffffffffffffffffffffffffffffffffffffff1681565b606c81565b600481565b6107c6338261114a565b600781565b610b3861164f565b73ffffffffffffffffffffffffffffffffffffffff16610b56610abe565b73ffffffffffffffffffffffffffffffffffffffff1614610ba3576040517f08c379a000000000000000000000000000000000000000000000000000000000815260040161056390611ab4565b600855565b60056020526000908152604090205481565b3373ffffffffffffffffffffffffffffffffffffffff83161480610c0e575073ffffffffffffffffffffffffffffffffffffffff82166000908152600a6020908152604080832033845290915290205460ff165b610c44576040517f08c379a000000000000000000000000000000000000000000000000000000000815260040161056390611a57565b73ffffffffffffffffffffffffffffffffffffffff9182166000908152600a60209081526040808320939094168252919091522080547fffffffffffffffffffffffffffffffffffffffffffffffffffffffffffffff00166001179055565b610cab61164f565b73ffffffffffffffffffffffffffffffffffffffff16610cc9610abe565b73ffffffffffffffffffffffffffffffffffffffff1614610d16576040517f08c379a000000000000000000000000000000000000000000000000000000000815260040161056390611ab4565b73ffffffffffffffffffffffffffffffffffffffff8116610d63576040517f08c379a00000000000000000000000000000000000000000000000000000000081526004016105639061199d565b60015460405173ffffffffffffffffffffffffffffffffffffffff8084169216907f8be0079c531659141344cd1fd0a4f28419497f9722a3daafe3b4186f6b6457e090600090a3600180547fffffffffffffffffffffffff00000000000000000000000000000000000000001673ffffffffffffffffffffffffffffffffffffffff92909216919091179055565b600080546040517fd87fefd200000000000000000000000000000000000000000000000000000000815273ffffffffffffffffffffffffffffffffffffffff9091169063d87fefd290610e4b90600a908690600401611ca3565b60206040518083038186803b158015610e6357600080fd5b505afa158015610e77573d6000803e3d6000fd5b505050506040513d601f19601f82011682018060405250810190610e9b9190611834565b92915050565b73ffffffffffffffffffffffffffffffffffffffff831660009081526003602052604081208054908490556004805491928592610edf908490611d64565b90915550610eed9050611653565b6002546040517fd9caed1200000000000000000000000000000000000000000000000000000000815273ffffffffffffffffffffffffffffffffffffffff9283169263d9caed1292610f4892911690869088906004016118a5565b602060405180830381600087803b158015610f6257600080fd5b505af1158015610f76573d6000803e3d6000fd5b505050506040513d601f19601f82011682018060405250810190610f9a9190611834565b610fd0576040517f08c379a000000000000000000000000000000000000000000000000000000000815260040161056390611ba3565b828114156110a257610fe0611700565b73ffffffffffffffffffffffffffffffffffffffff8581166000908152600560205260408082205490517fc6de9d5d000000000000000000000000000000000000000000000000000000008152939092169263c6de9d5d926110459291600401611912565b600060405180830381600087803b15801561105f57600080fd5b505af1158015611073573d6000803e3d6000fd5b50505073ffffffffffffffffffffffffffffffffffffffff851660009081526005602052604081205550611144565b6110aa611700565b73ffffffffffffffffffffffffffffffffffffffff8581166000908152600560205260408082205490517fa8016711000000000000000000000000000000000000000000000000000000008152939092169263a80167119261111192918890600401611925565b600060405180830381600087803b15801561112b57600080fd5b505af115801561113f573d6000803e3d6000fd5b505050505b50505050565b611152611653565b6002546040517fb3db428b00000000000000000000000000000000000000000000000000000000815273ffffffffffffffffffffffffffffffffffffffff9283169263b3db428b926111ae9287929091169086906004016118a5565b602060405180830381600087803b1580156111c857600080fd5b505af11580156111dc573d6000803e3d6000fd5b505050506040513d601f19601f820116820180604052508101906112009190611834565b611236576040517f08c379a000000000000000000000000000000000000000000000000000000000815260040161056390611b20565b3360009081526003602052604081208054839290611255908490611cd6565b92505081905550806004600082825461126e9190611cd6565b909155505073ffffffffffffffffffffffffffffffffffffffff821660009081526005602052604090205415611344576112a6611700565b73ffffffffffffffffffffffffffffffffffffffff8381166000908152600560205260408082205490517ff5428087000000000000000000000000000000000000000000000000000000008152939092169263f54280879261130d92918690600401611925565b600060405180830381600087803b15801561132757600080fd5b505af115801561133b573d6000803e3d6000fd5b5050505061142a565b600061134e611700565b73ffffffffffffffffffffffffffffffffffffffff1663583d8616600085856040518463ffffffff1660e01b815260040161138b939291906118e1565b602060405180830381600087803b1580156113a557600080fd5b505af11580156113b9573d6000803e3d6000fd5b505050506040513d601f19601f820116820180604052508101906113dd919061186c565b336000908152600560205260409020819055905080611428576040517f08c379a000000000000000000000000000000000000000000000000000000000815260040161056390611ae9565b505b5050565b60005b600b5473ffffffffffffffffffffffffffffffffffffffff16600090815260036020526040902054600854600d546114699043611d64565b6114739190611d27565b106115d857600b5473ffffffffffffffffffffffffffffffffffffffff16600090815260036020526040902054600854111561152757600b805473ffffffffffffffffffffffffffffffffffffffff90811660009081526009602052604080822054600c548416835281832080549185167fffffffffffffffffffffffff000000000000000000000000000000000000000092831681179091558554909416835291208054821690558254161790556115d3565b600854600b5473ffffffffffffffffffffffffffffffffffffffff1660009081526003602052604090205461155c9190611cee565b600d600082825461156d9190611cd6565b9091555050600b8054600c80547fffffffffffffffffffffffff000000000000000000000000000000000000000090811673ffffffffffffffffffffffffffffffffffffffff808516918217909355600090815260096020526040902054921691161790555b611431565b50600b5473ffffffffffffffffffffffffffffffffffffffff1690565b600080546040517fd87fefd200000000000000000000000000000000000000000000000000000000815273ffffffffffffffffffffffffffffffffffffffff9091169063d87fefd290610e4b906005908690600401611ca3565b3390565b600080546040517f3c9c8f9c00000000000000000000000000000000000000000000000000000000815273ffffffffffffffffffffffffffffffffffffffff90911690633c9c8f9c906116ab90606590600401611c94565b60206040518083038186803b1580156116c357600080fd5b505afa1580156116d7573d6000803e3d6000fd5b505050506040513d601f19601f820116820180604052508101906116fb9190611774565b905090565b600080546040517f3c9c8f9c00000000000000000000000000000000000000000000000000000000815273ffffffffffffffffffffffffffffffffffffffff90911690633c9c8f9c906116ab90606c90600401611c94565b600060208284031215611769578081fd5b813561069581611daa565b600060208284031215611785578081fd5b815161069581611daa565b600080604083850312156117a2578081fd5b82356117ad81611daa565b915060208301356117bd81611daa565b809150509250929050565b600080604083850312156117da578182fd5b82356117e581611daa565b946020939093013593505050565b600080600060608486031215611807578081fd5b833561181281611daa565b925060208401359150604084013561182981611daa565b809150509250925092565b600060208284031215611845578081fd5b81518015158114610695578182fd5b600060208284031215611865578081fd5b5035919050565b60006020828403121561187d578081fd5b5051919050565b73ffffffffffffffffffffffffffffffffffffffff91909116815260200190565b73ffffffffffffffffffffffffffffffffffffffff9384168152919092166020820152604081019190915260600190565b901515815260200190565b60ff93909316835273ffffffffffffffffffffffffffffffffffffffff919091166020830152604082015260600190565b60ff929092168252602082015260400190565b60ff9390931683526020830191909152604082015260600190565b6020808252602d908201527f6d73672e73656e646572206e6f7420617574686f72697a656420746f2070656e60408201527f616c697a65207374616b65727300000000000000000000000000000000000000606082015260800190565b60208082526026908201527f4f776e61626c653a206e6577206f776e657220697320746865207a65726f206160408201527f6464726573730000000000000000000000000000000000000000000000000000606082015260800190565b60208082526029908201527f496e73756666696369656e74207374616b6520746f2063616c6c206576656e2060408201527f6f6e6520626c6f636b0000000000000000000000000000000000000000000000606082015260800190565b60208082526030908201527f6d73672e73656e646572206e6f7420617574686f72697a656420746f2064656c60408201527f656761746520666f72207374616b657200000000000000000000000000000000606082015260800190565b6020808252818101527f4f776e61626c653a2063616c6c6572206973206e6f7420746865206f776e6572604082015260600190565b6020808252601e908201527f446973747269627574696f6e206973206f766572206f72207061757365640000604082015260600190565b60208082526047908201527f436f756c64206e6f74206465706f736974207374616b652066756e647320287060408201527f657268617073206d616b6520616c6c6f77616e636520746f2066756e6420636f60608201527f6e74726163743f00000000000000000000000000000000000000000000000000608082015260a00190565b60208082526032908201527f496e73756666696369656e742066756e6473202d2d20736f6d657468696e672060408201527f77656e74207265616c6c792077726f6e672e0000000000000000000000000000606082015260800190565b6020808252601d908201527f4e6f7420617574686f72697a656420746f20736f757263652066656573000000604082015260600190565b60208082526031908201527f596f752063616e2774207769746864726177207768696c6520796f752772652060408201527f617574686f72697a6564207374616b6572000000000000000000000000000000606082015260800190565b61ffff91909116815260200190565b61ffff92909216825273ffffffffffffffffffffffffffffffffffffffff16602082015260400190565b90815260200190565b60008219821115611ce957611ce9611d7b565b500190565b600082611d22577f4e487b710000000000000000000000000000000000000000000000000000000081526012600452602481fd5b500490565b6000817fffffffffffffffffffffffffffffffffffffffffffffffffffffffffffffffff0483118215151615611d5f57611d5f611d7b565b500290565b600082821015611d7657611d76611d7b565b500390565b7f4e487b7100000000000000000000000000000000000000000000000000000000600052601160045260246000fd5b73ffffffffffffffffffffffffffffffffffffffff811681146107c657600080fdfea2646970667358221220a6bfaae069f30ef027467aea95029c2ae4f5da87755fb4c168683e3e7e86b74964736f6c63430008010033",
  "linkReferences": {},
  "deployedLinkReferences": {}
}