{
  "_format": "hh-sol-artifact-1",
  "contractName": "Admin",
  "sourceName": "contracts/Admin.sol",
  "abi": [
    {
      "inputs": [
        {
          "internalType": "uint256",
          "name": "_feesPer10k",
          "type": "uint256"
        },
        {
          "internalType": "address",
          "name": "_MFI",
          "type": "address"
        },
        {
          "internalType": "address",
          "name": "_roles",
          "type": "address"
        }
      ],
      "stateMutability": "nonpayable",
      "type": "constructor"
    },
    {
      "anonymous": false,
      "inputs": [
        {
          "indexed": true,
          "internalType": "address",
          "name": "previousOwner",
          "type": "address"
        },
        {
          "indexed": true,
          "internalType": "address",
          "name": "newOwner",
          "type": "address"
        }
      ],
      "name": "OwnershipTransferred",
      "type": "event"
    },
    {
      "inputs": [],
      "name": "AUTHORIZED_FUND_TRADER",
      "outputs": [
        {
          "internalType": "uint16",
          "name": "",
          "type": "uint16"
        }
      ],
      "stateMutability": "view",
      "type": "function"
    },
    {
      "inputs": [],
      "name": "BORROWER",
      "outputs": [
        {
          "internalType": "uint16",
          "name": "",
          "type": "uint16"
        }
      ],
      "stateMutability": "view",
      "type": "function"
    },
    {
      "inputs": [],
      "name": "FEE_CONTROLLER",
      "outputs": [
        {
          "internalType": "uint16",
          "name": "",
          "type": "uint16"
        }
      ],
      "stateMutability": "view",
      "type": "function"
    },
    {
      "inputs": [],
      "name": "FEE_SOURCE",
      "outputs": [
        {
          "internalType": "uint16",
          "name": "",
          "type": "uint16"
        }
      ],
      "stateMutability": "view",
      "type": "function"
    },
    {
      "inputs": [],
      "name": "FUND",
      "outputs": [
        {
          "internalType": "uint16",
          "name": "",
          "type": "uint16"
        }
      ],
      "stateMutability": "view",
      "type": "function"
    },
    {
      "inputs": [],
      "name": "INCENTIVE_REPORTER",
      "outputs": [
        {
          "internalType": "uint16",
          "name": "",
          "type": "uint16"
        }
      ],
      "stateMutability": "view",
      "type": "function"
    },
    {
      "inputs": [],
      "name": "LENDING",
      "outputs": [
        {
          "internalType": "uint16",
          "name": "",
          "type": "uint16"
        }
      ],
      "stateMutability": "view",
      "type": "function"
    },
    {
      "inputs": [],
      "name": "LIQUIDATOR",
      "outputs": [
        {
          "internalType": "uint16",
          "name": "",
          "type": "uint16"
        }
      ],
      "stateMutability": "view",
      "type": "function"
    },
    {
      "inputs": [],
      "name": "MARGIN_CALLER",
      "outputs": [
        {
          "internalType": "uint16",
          "name": "",
          "type": "uint16"
        }
      ],
      "stateMutability": "view",
      "type": "function"
    },
    {
      "inputs": [],
      "name": "MARGIN_TRADER",
      "outputs": [
        {
          "internalType": "uint16",
          "name": "",
          "type": "uint16"
        }
      ],
      "stateMutability": "view",
      "type": "function"
    },
    {
      "inputs": [],
      "name": "MARGIN_TRADING",
      "outputs": [
        {
          "internalType": "uint16",
          "name": "",
          "type": "uint16"
        }
      ],
      "stateMutability": "view",
      "type": "function"
    },
    {
      "inputs": [],
      "name": "PRICE_CONTROLLER",
      "outputs": [
        {
          "internalType": "uint16",
          "name": "",
          "type": "uint16"
        }
      ],
      "stateMutability": "view",
      "type": "function"
    },
    {
      "inputs": [],
      "name": "ROUTER",
      "outputs": [
        {
          "internalType": "uint16",
          "name": "",
          "type": "uint16"
        }
      ],
      "stateMutability": "view",
      "type": "function"
    },
    {
      "inputs": [],
      "name": "WITHDRAWER",
      "outputs": [
        {
          "internalType": "uint16",
          "name": "",
          "type": "uint16"
        }
      ],
      "stateMutability": "view",
      "type": "function"
    },
    {
      "inputs": [
        {
          "internalType": "address",
          "name": "forStaker",
          "type": "address"
        },
        {
          "internalType": "address",
          "name": "delegate",
          "type": "address"
        }
      ],
      "name": "addDelegate",
      "outputs": [],
      "stateMutability": "nonpayable",
      "type": "function"
    },
    {
      "inputs": [
        {
          "internalType": "address",
          "name": "token",
          "type": "address"
        },
        {
          "internalType": "uint256",
          "name": "amount",
          "type": "uint256"
        }
      ],
      "name": "addTradingFees",
      "outputs": [
        {
          "internalType": "uint256",
          "name": "fees",
          "type": "uint256"
        }
      ],
      "stateMutability": "nonpayable",
      "type": "function"
    },
    {
      "inputs": [
        {
          "internalType": "address[]",
          "name": "traders",
          "type": "address[]"
        }
      ],
      "name": "callMargin",
      "outputs": [
        {
          "internalType": "uint256",
          "name": "mcFees",
          "type": "uint256"
        }
      ],
      "stateMutability": "nonpayable",
      "type": "function"
    },
    {
      "inputs": [
        {
          "internalType": "address",
          "name": "",
          "type": "address"
        }
      ],
      "name": "collectedFees",
      "outputs": [
        {
          "internalType": "uint256",
          "name": "",
          "type": "uint256"
        }
      ],
      "stateMutability": "view",
      "type": "function"
    },
    {
      "inputs": [
        {
          "internalType": "uint256",
          "name": "amount",
          "type": "uint256"
        }
      ],
      "name": "marginCallerStake",
      "outputs": [],
      "stateMutability": "nonpayable",
      "type": "function"
    },
    {
      "inputs": [
        {
          "internalType": "address",
          "name": "",
          "type": "address"
        },
        {
          "internalType": "address",
          "name": "",
          "type": "address"
        }
      ],
      "name": "mcDelegatedTo",
      "outputs": [
        {
          "internalType": "bool",
          "name": "",
          "type": "bool"
        }
      ],
      "stateMutability": "view",
      "type": "function"
    },
    {
      "inputs": [
        {
          "internalType": "address",
          "name": "",
          "type": "address"
        }
      ],
      "name": "mcStakes",
      "outputs": [
        {
          "internalType": "uint256",
          "name": "stake",
          "type": "uint256"
        },
        {
          "internalType": "address",
          "name": "nextStaker",
          "type": "address"
        }
      ],
      "stateMutability": "view",
      "type": "function"
    },
    {
      "inputs": [],
      "name": "owner",
      "outputs": [
        {
          "internalType": "address",
          "name": "",
          "type": "address"
        }
      ],
      "stateMutability": "view",
      "type": "function"
    },
    {
      "inputs": [
        {
          "internalType": "address",
          "name": "forStaker",
          "type": "address"
        },
        {
          "internalType": "address",
          "name": "delegate",
          "type": "address"
        }
      ],
      "name": "removeDelegate",
      "outputs": [],
      "stateMutability": "nonpayable",
      "type": "function"
    },
    {
      "inputs": [],
      "name": "renounceOwnership",
      "outputs": [],
      "stateMutability": "nonpayable",
      "type": "function"
    },
    {
      "inputs": [],
      "name": "roles",
      "outputs": [
        {
          "internalType": "contract Roles",
          "name": "",
          "type": "address"
        }
      ],
      "stateMutability": "view",
      "type": "function"
    },
    {
      "inputs": [
        {
          "internalType": "uint256",
          "name": "amount",
          "type": "uint256"
        }
      ],
      "name": "stake",
      "outputs": [],
      "stateMutability": "nonpayable",
      "type": "function"
    },
    {
      "inputs": [
        {
          "internalType": "address",
          "name": "",
          "type": "address"
        }
      ],
      "name": "stakes",
      "outputs": [
        {
          "internalType": "uint256",
          "name": "",
          "type": "uint256"
        }
      ],
      "stateMutability": "view",
      "type": "function"
    },
    {
      "inputs": [
        {
          "internalType": "address",
          "name": "token",
          "type": "address"
        },
        {
          "internalType": "uint256",
          "name": "amount",
          "type": "uint256"
        }
      ],
      "name": "subtractTradingFees",
      "outputs": [
        {
          "internalType": "uint256",
          "name": "fees",
          "type": "uint256"
        }
      ],
      "stateMutability": "nonpayable",
      "type": "function"
    },
    {
      "inputs": [],
      "name": "totalStakes",
      "outputs": [
        {
          "internalType": "uint256",
          "name": "",
          "type": "uint256"
        }
      ],
      "stateMutability": "view",
      "type": "function"
    },
    {
      "inputs": [
        {
          "internalType": "address",
          "name": "newOwner",
          "type": "address"
        }
      ],
      "name": "transferOwnership",
      "outputs": [],
      "stateMutability": "nonpayable",
      "type": "function"
    },
    {
      "inputs": [
        {
          "internalType": "uint256",
          "name": "amount",
          "type": "uint256"
        },
        {
          "internalType": "address",
          "name": "recipient",
          "type": "address"
        }
      ],
      "name": "unstake",
      "outputs": [],
      "stateMutability": "nonpayable",
      "type": "function"
    }
  ],
  "bytecode": "0x60806040523480156200001157600080fd5b50604051620019dd380380620019dd8339810160408190526200003491620000fe565b600080546001600160a01b0319166001600160a01b03831617815562000059620000dd565b600180546001600160a01b0319166001600160a01b038316908117909155604051919250906000907f8be0079c531659141344cd1fd0a4f28419497f9722a3daafe3b4186f6b6457e0908290a35050600280546001600160a01b0319166001600160a01b0392909216919091179055600555670de0b6b3a76400006007556200013e565b3390565b80516001600160a01b0381168114620000f957600080fd5b919050565b60008060006060848603121562000113578283fd5b835192506200012560208501620000e1565b91506200013560408501620000e1565b90509250925092565b61188f806200014e6000396000f3fe608060405234801561001057600080fd5b50600436106101e55760003560e01c806367cbf42d1161010f578063a94c7c34116100a2578063d5d7ed7f11610071578063d5d7ed7f1461037d578063e909ebfa14610385578063ed95eda014610398578063f2fde38b146103ab576101e5565b8063a94c7c341461035d578063a9cc053614610365578063bf9befb11461036d578063cacf8d4514610375576101e5565b80638381e182116100de5780638381e182146103275780638da5cb5b1461033a578063a0098d6914610342578063a694fc3a1461034a576101e5565b806367cbf42d146102e4578063715018a6146102f757806381ca6600146102ff57806381fe803914610307576101e5565b806332fe7b261161018757806348fb27b81161015657806348fb27b8146102ab57806356fc9124146102b35780635c275a39146102d457806366941984146102dc576101e5565b806332fe7b2614610273578063392f5f641461027b5780633f0e9edf1461029057806346b88796146102a3576101e5565b80631bc5d81d116101c35780631bc5d81d1461023d5780631cead9a7146102455780632c00d4a7146102585780632fe94def1461026b576101e5565b8063020d308d146101ea578063065d570f146101ff57806316934fc41461021d575b600080fd5b6101fd6101f8366004611178565b6103be565b005b6102076104ad565b60405161021491906116f8565b60405180910390f35b61023061022b366004611139565b6104b2565b6040516102149190611707565b6102076104c4565b610230610253366004611139565b6104c9565b6101fd6102663660046112df565b6104db565b6102076105d6565b6102076105db565b6102836105e0565b6040516102149190611333565b61023061029e3660046111b0565b6105fc565b6102076106aa565b6102076106af565b6102c66102c1366004611139565b6106b4565b604051610214929190611710565b6102076106e3565b6102076106e8565b6102306102f23660046111b0565b6106ed565b6101fd61073f565b610207610821565b61031a610315366004611178565b610826565b604051610214919061142d565b6101fd61033536600461130f565b610846565b610283610973565b61020761098f565b6101fd6103583660046112df565b610994565b61020761099e565b6102076109a3565b6102306109a8565b6102076109ae565b6102076109b3565b6101fd610393366004611178565b6109b8565b6102306103a63660046111db565b610aa1565b6101fd6103b9366004611139565b610bde565b3373ffffffffffffffffffffffffffffffffffffffff83161480610412575073ffffffffffffffffffffffffffffffffffffffff8216600090815260096020908152604080832033845290915290205460ff165b610451576040517f08c379a00000000000000000000000000000000000000000000000000000000081526004016104489061154f565b60405180910390fd5b73ffffffffffffffffffffffffffffffffffffffff9182166000908152600960209081526040808320939094168252919091522080547fffffffffffffffffffffffffffffffffffffffffffffffffffffffffffffff00169055565b600381565b60036020526000908152604090205481565b600881565b60066020526000908152604090205481565b600754336000908152600860205260409020546104f89083611734565b1015610530576040517f08c379a0000000000000000000000000000000000000000000000000000000008152600401610448906114f2565b61053a3382610d2c565b336000908152600860205260409020546105d357336000908152600860205260409020819055610568610e59565b336000818152600860205260408082206001908101805473ffffffffffffffffffffffffffffffffffffffff9687167fffffffffffffffffffffffff000000000000000000000000000000000000000091821617909155600b54909516835291200180549092161790555b50565b606981565b606781565b60005473ffffffffffffffffffffffffffffffffffffffff1681565b600061060733610f73565b61063d576040517f08c379a0000000000000000000000000000000000000000000000000000000008152600401610448906116c1565b60055461064c90612710611734565b8260055461065a9190611785565b610664919061174c565b73ffffffffffffffffffffffffffffffffffffffff841660009081526006602052604081208054929350839290919061069e908490611734565b90915550909392505050565b600681565b606681565b6008602052600090815260409020805460019091015473ffffffffffffffffffffffffffffffffffffffff1682565b606581565b600181565b60006106f833610f73565b61072e576040517f08c379a0000000000000000000000000000000000000000000000000000000008152600401610448906116c1565b6127108260055461065a9190611785565b610747611025565b73ffffffffffffffffffffffffffffffffffffffff16610765610973565b73ffffffffffffffffffffffffffffffffffffffff16146107b2576040517f08c379a0000000000000000000000000000000000000000000000000000000008152600401610448906115ac565b60015460405160009173ffffffffffffffffffffffffffffffffffffffff16907f8be0079c531659141344cd1fd0a4f28419497f9722a3daafe3b4186f6b6457e0908390a3600180547fffffffffffffffffffffffff0000000000000000000000000000000000000000169055565b606a81565b600960209081526000928352604080842090915290825290205460ff1681565b33600090815260036020526040812080548492906108659084906117c2565b92505081905550816004600082825461087e91906117c2565b9091555061088c9050611029565b6002546040517fd9caed1200000000000000000000000000000000000000000000000000000000815273ffffffffffffffffffffffffffffffffffffffff9283169263d9caed12926108e79291169085908790600401611354565b602060405180830381600087803b15801561090157600080fd5b505af1158015610915573d6000803e3d6000fd5b505050506040513d601f19601f8201168201806040525081019061093991906112bf565b61096f576040517f08c379a000000000000000000000000000000000000000000000000000000000815260040161044890611664565b5050565b60015473ffffffffffffffffffffffffffffffffffffffff1690565b600281565b6105d33382610d2c565b600581565b606881565b60045481565b600481565b600781565b3373ffffffffffffffffffffffffffffffffffffffff83161480610a0c575073ffffffffffffffffffffffffffffffffffffffff8216600090815260096020908152604080832033845290915290205460ff165b610a42576040517f08c379a00000000000000000000000000000000000000000000000000000000081526004016104489061154f565b73ffffffffffffffffffffffffffffffffffffffff9182166000908152600960209081526040808320939094168252919091522080547fffffffffffffffffffffffffffffffffffffffffffffffffffffffffffffff00166001179055565b6000333214610adc576040517f08c379a000000000000000000000000000000000000000000000000000000000815260040161044890611438565b6000610ae6610e59565b9050600073ffffffffffffffffffffffffffffffffffffffff8216331480610b3e575073ffffffffffffffffffffffffffffffffffffffff8216600090815260096020908152604080832033845290915290205460ff165b9050610b486110d6565b73ffffffffffffffffffffffffffffffffffffffff166395f23a628533846040518463ffffffff1660e01b8152600401610b84939291906113af565b602060405180830381600087803b158015610b9e57600080fd5b505af1158015610bb2573d6000803e3d6000fd5b505050506040513d601f19601f82011682018060405250810190610bd691906112f7565b949350505050565b610be6611025565b73ffffffffffffffffffffffffffffffffffffffff16610c04610973565b73ffffffffffffffffffffffffffffffffffffffff1614610c51576040517f08c379a0000000000000000000000000000000000000000000000000000000008152600401610448906115ac565b73ffffffffffffffffffffffffffffffffffffffff8116610c9e576040517f08c379a000000000000000000000000000000000000000000000000000000000815260040161044890611495565b60015460405173ffffffffffffffffffffffffffffffffffffffff8084169216907f8be0079c531659141344cd1fd0a4f28419497f9722a3daafe3b4186f6b6457e090600090a3600180547fffffffffffffffffffffffff00000000000000000000000000000000000000001673ffffffffffffffffffffffffffffffffffffffff92909216919091179055565b610d34611029565b6002546040517fb3db428b00000000000000000000000000000000000000000000000000000000815273ffffffffffffffffffffffffffffffffffffffff9283169263b3db428b92610d90928792909116908690600401611354565b602060405180830381600087803b158015610daa57600080fd5b505af1158015610dbe573d6000803e3d6000fd5b505050506040513d601f19601f82011682018060405250810190610de291906112bf565b610e18576040517f08c379a0000000000000000000000000000000000000000000000000000000008152600401610448906115e1565b3360009081526003602052604081208054839290610e37908490611734565b925050819055508060046000828254610e509190611734565b90915550505050565b60005b600a5473ffffffffffffffffffffffffffffffffffffffff16600090815260086020526040902054600754600c54610e9490436117c2565b610e9e9190611785565b10610f5657600754600a5473ffffffffffffffffffffffffffffffffffffffff16600090815260086020526040902054610ed8919061174c565b600c6000828254610ee99190611734565b9091555050600a8054600b80547fffffffffffffffffffffffff000000000000000000000000000000000000000090811673ffffffffffffffffffffffffffffffffffffffff80851691821790935560009081526008602052604090206001015492169116179055610e5c565b50600a5473ffffffffffffffffffffffffffffffffffffffff1690565b600080546040517f7ecd187e00000000000000000000000000000000000000000000000000000000815273ffffffffffffffffffffffffffffffffffffffff90911690637ecd187e90610fcd908590600590600401611385565b60206040518083038186803b158015610fe557600080fd5b505afa158015610ff9573d6000803e3d6000fd5b505050506040513d601f19601f8201168201806040525081019061101d91906112bf565b90505b919050565b3390565b600080546040517f3c9c8f9c00000000000000000000000000000000000000000000000000000000815273ffffffffffffffffffffffffffffffffffffffff90911690633c9c8f9c90611081906065906004016116f8565b60206040518083038186803b15801561109957600080fd5b505afa1580156110ad573d6000803e3d6000fd5b505050506040513d601f19601f820116820180604052508101906110d1919061115c565b905090565b600080546040517f3c9c8f9c00000000000000000000000000000000000000000000000000000000815273ffffffffffffffffffffffffffffffffffffffff90911690633c9c8f9c90611081906068906004016116f8565b803561102081611837565b60006020828403121561114a578081fd5b813561115581611837565b9392505050565b60006020828403121561116d578081fd5b815161115581611837565b6000806040838503121561118a578081fd5b823561119581611837565b915060208301356111a581611837565b809150509250929050565b600080604083850312156111c2578182fd5b82356111cd81611837565b946020939093013593505050565b600060208083850312156111ed578182fd5b823567ffffffffffffffff80821115611204578384fd5b818501915085601f830112611217578384fd5b81358181111561122957611229611808565b8381026040517fffffffffffffffffffffffffffffffffffffffffffffffffffffffffffffffe0603f8301168101818110858211171561126b5761126b611808565b604052828152858101935084860182860187018a1015611289578788fd5b8795505b838610156112b25761129e8161112e565b85526001959095019493860193860161128d565b5098975050505050505050565b6000602082840312156112d0578081fd5b81518015158114611155578182fd5b6000602082840312156112f0578081fd5b5035919050565b600060208284031215611308578081fd5b5051919050565b60008060408385031215611321578182fd5b8235915060208301356111a581611837565b73ffffffffffffffffffffffffffffffffffffffff91909116815260200190565b73ffffffffffffffffffffffffffffffffffffffff9384168152919092166020820152604081019190915260600190565b73ffffffffffffffffffffffffffffffffffffffff92909216825261ffff16602082015260400190565b606080825284519082018190526000906020906080840190828801845b828110156113fe57815173ffffffffffffffffffffffffffffffffffffffff16845292840192908401906001016113cc565b50505073ffffffffffffffffffffffffffffffffffffffff959095169083015250901515604090910152919050565b901515815260200190565b6020808252603a908201527f43757272656e746c79206e6f20696e7465726d656469617269657320616c6c6f60408201527f77656420666f7220746869732066756e6374696f6e2063616c6c000000000000606082015260800190565b60208082526026908201527f4f776e61626c653a206e6577206f776e657220697320746865207a65726f206160408201527f6464726573730000000000000000000000000000000000000000000000000000606082015260800190565b60208082526029908201527f496e73756666696369656e74207374616b6520746f2063616c6c206576656e2060408201527f6f6e6520626c6f636b0000000000000000000000000000000000000000000000606082015260800190565b60208082526030908201527f6d73672e73656e646572206e6f7420617574686f72697a656420746f2064656c60408201527f656761746520666f72207374616b657200000000000000000000000000000000606082015260800190565b6020808252818101527f4f776e61626c653a2063616c6c6572206973206e6f7420746865206f776e6572604082015260600190565b60208082526047908201527f436f756c64206e6f74206465706f736974207374616b652066756e647320287060408201527f657268617073206d616b6520616c6c6f77616e636520746f2066756e6420636f60608201527f6e74726163743f00000000000000000000000000000000000000000000000000608082015260a00190565b60208082526032908201527f496e73756666696369656e742066756e6473202d2d20736f6d657468696e672060408201527f77656e74207265616c6c792077726f6e672e0000000000000000000000000000606082015260800190565b6020808252601d908201527f4e6f7420617574686f72697a656420746f20736f757263652066656573000000604082015260600190565b61ffff91909116815260200190565b90815260200190565b91825273ffffffffffffffffffffffffffffffffffffffff16602082015260400190565b60008219821115611747576117476117d9565b500190565b600082611780577f4e487b710000000000000000000000000000000000000000000000000000000081526012600452602481fd5b500490565b6000817fffffffffffffffffffffffffffffffffffffffffffffffffffffffffffffffff04831182151516156117bd576117bd6117d9565b500290565b6000828210156117d4576117d46117d9565b500390565b7f4e487b7100000000000000000000000000000000000000000000000000000000600052601160045260246000fd5b7f4e487b7100000000000000000000000000000000000000000000000000000000600052604160045260246000fd5b73ffffffffffffffffffffffffffffffffffffffff811681146105d357600080fdfea26469706673582212208e14db518efecf7e665b7a19ea802d9c58a919bc4776fc3395c952acc975b8e064736f6c63430008010033",
  "linkReferences": {},
  "deployedLinkReferences": {}
}