{
  "_format": "hh-sol-artifact-1",
  "contractName": "Admin",
  "sourceName": "contracts/Admin.sol",
  "abi": [
    {
      "inputs": [
        {
          "internalType": "uint256",
          "name": "_feesPer10k",
          "type": "uint256"
        },
        {
          "internalType": "address",
          "name": "_MFI",
          "type": "address"
        },
        {
          "internalType": "address",
          "name": "_roles",
          "type": "address"
        }
      ],
      "stateMutability": "nonpayable",
      "type": "constructor"
    },
    {
      "anonymous": false,
      "inputs": [
        {
          "indexed": true,
          "internalType": "address",
          "name": "previousOwner",
          "type": "address"
        },
        {
          "indexed": true,
          "internalType": "address",
          "name": "newOwner",
          "type": "address"
        }
      ],
      "name": "OwnershipTransferred",
      "type": "event"
    },
    {
      "inputs": [
        {
          "internalType": "address",
          "name": "forStaker",
          "type": "address"
        },
        {
          "internalType": "address",
          "name": "delegate",
          "type": "address"
        }
      ],
      "name": "addDelegate",
      "outputs": [],
      "stateMutability": "nonpayable",
      "type": "function"
    },
    {
      "inputs": [
        {
          "internalType": "address",
          "name": "token",
          "type": "address"
        },
        {
          "internalType": "uint256",
          "name": "amount",
          "type": "uint256"
        }
      ],
      "name": "addTradingFees",
      "outputs": [
        {
          "internalType": "uint256",
          "name": "fees",
          "type": "uint256"
        }
      ],
      "stateMutability": "nonpayable",
      "type": "function"
    },
    {
      "inputs": [
        {
          "internalType": "address[]",
          "name": "traders",
          "type": "address[]"
        }
      ],
      "name": "callMargin",
      "outputs": [],
      "stateMutability": "nonpayable",
      "type": "function"
    },
    {
      "inputs": [
        {
          "internalType": "address",
          "name": "",
          "type": "address"
        }
      ],
      "name": "collectedFees",
      "outputs": [
        {
          "internalType": "uint256",
          "name": "",
          "type": "uint256"
        }
      ],
      "stateMutability": "view",
      "type": "function"
    },
    {
      "inputs": [
        {
          "internalType": "uint256",
          "name": "amount",
          "type": "uint256"
        }
      ],
      "name": "marginCallerStake",
      "outputs": [],
      "stateMutability": "nonpayable",
      "type": "function"
    },
    {
      "inputs": [
        {
          "internalType": "address",
          "name": "",
          "type": "address"
        },
        {
          "internalType": "address",
          "name": "",
          "type": "address"
        }
      ],
      "name": "mcDelegatedTo",
      "outputs": [
        {
          "internalType": "bool",
          "name": "",
          "type": "bool"
        }
      ],
      "stateMutability": "view",
      "type": "function"
    },
    {
      "inputs": [
        {
          "internalType": "address",
          "name": "",
          "type": "address"
        }
      ],
      "name": "mcStakes",
      "outputs": [
        {
          "internalType": "uint256",
          "name": "stake",
          "type": "uint256"
        },
        {
          "internalType": "address",
          "name": "nextStaker",
          "type": "address"
        }
      ],
      "stateMutability": "view",
      "type": "function"
    },
    {
      "inputs": [],
      "name": "owner",
      "outputs": [
        {
          "internalType": "address",
          "name": "",
          "type": "address"
        }
      ],
      "stateMutability": "view",
      "type": "function"
    },
    {
      "inputs": [
        {
          "internalType": "address",
          "name": "forStaker",
          "type": "address"
        },
        {
          "internalType": "address",
          "name": "delegate",
          "type": "address"
        }
      ],
      "name": "removeDelegate",
      "outputs": [],
      "stateMutability": "nonpayable",
      "type": "function"
    },
    {
      "inputs": [],
      "name": "renounceOwnership",
      "outputs": [],
      "stateMutability": "nonpayable",
      "type": "function"
    },
    {
      "inputs": [],
      "name": "roles",
      "outputs": [
        {
          "internalType": "contract Roles",
          "name": "",
          "type": "address"
        }
      ],
      "stateMutability": "view",
      "type": "function"
    },
    {
      "inputs": [
        {
          "internalType": "uint256",
          "name": "amount",
          "type": "uint256"
        }
      ],
      "name": "stake",
      "outputs": [],
      "stateMutability": "nonpayable",
      "type": "function"
    },
    {
      "inputs": [
        {
          "internalType": "address",
          "name": "",
          "type": "address"
        }
      ],
      "name": "stakes",
      "outputs": [
        {
          "internalType": "uint256",
          "name": "",
          "type": "uint256"
        }
      ],
      "stateMutability": "view",
      "type": "function"
    },
    {
      "inputs": [
        {
          "internalType": "address",
          "name": "token",
          "type": "address"
        },
        {
          "internalType": "uint256",
          "name": "amount",
          "type": "uint256"
        }
      ],
      "name": "subtractTradingFees",
      "outputs": [
        {
          "internalType": "uint256",
          "name": "fees",
          "type": "uint256"
        }
      ],
      "stateMutability": "nonpayable",
      "type": "function"
    },
    {
      "inputs": [],
      "name": "totalStakes",
      "outputs": [
        {
          "internalType": "uint256",
          "name": "",
          "type": "uint256"
        }
      ],
      "stateMutability": "view",
      "type": "function"
    },
    {
      "inputs": [
        {
          "internalType": "address",
          "name": "newOwner",
          "type": "address"
        }
      ],
      "name": "transferOwnership",
      "outputs": [],
      "stateMutability": "nonpayable",
      "type": "function"
    },
    {
      "inputs": [
        {
          "internalType": "uint256",
          "name": "amount",
          "type": "uint256"
        },
        {
          "internalType": "address",
          "name": "recipient",
          "type": "address"
        }
      ],
      "name": "unstake",
      "outputs": [],
      "stateMutability": "nonpayable",
      "type": "function"
    }
  ],
  "bytecode": "0x60806040523480156200001157600080fd5b50604051620027af380380620027af8339818101604052810190620000379190620001c0565b80806000806101000a81548173ffffffffffffffffffffffffffffffffffffffff021916908373ffffffffffffffffffffffffffffffffffffffff1602179055505060006200008b6200018a60201b60201c565b905080600160006101000a81548173ffffffffffffffffffffffffffffffffffffffff021916908373ffffffffffffffffffffffffffffffffffffffff1602179055508073ffffffffffffffffffffffffffffffffffffffff16600073ffffffffffffffffffffffffffffffffffffffff167f8be0079c531659141344cd1fd0a4f28419497f9722a3daafe3b4186f6b6457e060405160405180910390a35081600260006101000a81548173ffffffffffffffffffffffffffffffffffffffff021916908373ffffffffffffffffffffffffffffffffffffffff16021790555082600581905550670de0b6b3a764000060078190555050505062000288565b600033905090565b600081519050620001a38162000254565b92915050565b600081519050620001ba816200026e565b92915050565b600080600060608486031215620001d657600080fd5b6000620001e686828701620001a9565b9350506020620001f98682870162000192565b92505060406200020c8682870162000192565b9150509250925092565b600062000223826200022a565b9050919050565b600073ffffffffffffffffffffffffffffffffffffffff82169050919050565b6000819050919050565b6200025f8162000216565b81146200026b57600080fd5b50565b62000279816200024a565b81146200028557600080fd5b50565b61251780620002986000396000f3fe608060405234801561001057600080fd5b506004361061010b5760003560e01c8063715018a6116100a2578063a694fc3a11610071578063a694fc3a146102cb578063bf9befb1146102e7578063e909ebfa14610305578063ed95eda014610321578063f2fde38b1461033d5761010b565b8063715018a61461025757806381fe8039146102615780638381e182146102915780638da5cb5b146102ad5761010b565b8063392f5f64116100de578063392f5f64146101a85780633f0e9edf146101c657806356fc9124146101f657806367cbf42d146102275761010b565b8063020d308d1461011057806316934fc41461012c5780631cead9a71461015c5780632c00d4a71461018c575b600080fd5b61012a600480360381019061012591906118fb565b610359565b005b610146600480360381019061014191906118a9565b6104f1565b6040516101539190611e7a565b60405180910390f35b610176600480360381019061017191906118a9565b610509565b6040516101839190611e7a565b60405180910390f35b6101a660048036038101906101a191906119dd565b610521565b005b6101b061077e565b6040516101bd9190611d44565b60405180910390f35b6101e060048036038101906101db9190611937565b6107a2565b6040516101ed9190611e7a565b60405180910390f35b610210600480360381019061020b91906118a9565b610872565b60405161021e929190611e95565b60405180910390f35b610241600480360381019061023c9190611937565b6108b6565b60405161024e9190611e7a565b60405180910390f35b61025f610979565b005b61027b600480360381019061027691906118fb565b610ab6565b6040516102889190611d29565b60405180910390f35b6102ab60048036038101906102a69190611a2f565b610ae5565b005b6102b5610c4f565b6040516102c29190611c62565b60405180910390f35b6102e560048036038101906102e091906119dd565b610c79565b005b6102ef610c86565b6040516102fc9190611e7a565b60405180910390f35b61031f600480360381019061031a91906118fb565b610c8c565b005b61033b60048036038101906103369190611973565b610e24565b005b610357600480360381019061035291906118a9565b61100b565b005b8173ffffffffffffffffffffffffffffffffffffffff163373ffffffffffffffffffffffffffffffffffffffff1614806104195750600960008373ffffffffffffffffffffffffffffffffffffffff1673ffffffffffffffffffffffffffffffffffffffff16815260200190815260200160002060003373ffffffffffffffffffffffffffffffffffffffff1673ffffffffffffffffffffffffffffffffffffffff16815260200190815260200160002060009054906101000a900460ff165b610458576040517f08c379a000000000000000000000000000000000000000000000000000000000815260040161044f90611dda565b60405180910390fd5b6000600960008473ffffffffffffffffffffffffffffffffffffffff1673ffffffffffffffffffffffffffffffffffffffff16815260200190815260200160002060008373ffffffffffffffffffffffffffffffffffffffff1673ffffffffffffffffffffffffffffffffffffffff16815260200190815260200160002060006101000a81548160ff0219169083151502179055505050565b60036020528060005260406000206000915090505481565b60066020528060005260406000206000915090505481565b600754600860003373ffffffffffffffffffffffffffffffffffffffff1673ffffffffffffffffffffffffffffffffffffffff16815260200190815260200160002060000154826105729190611f59565b10156105b3576040517f08c379a00000000000000000000000000000000000000000000000000000000081526004016105aa90611dba565b60405180910390fd5b6105bd33826111b7565b6000600860003373ffffffffffffffffffffffffffffffffffffffff1673ffffffffffffffffffffffffffffffffffffffff16815260200190815260200160002060000154141561077b5780600860003373ffffffffffffffffffffffffffffffffffffffff1673ffffffffffffffffffffffffffffffffffffffff16815260200190815260200160002060000181905550610657611321565b600860003373ffffffffffffffffffffffffffffffffffffffff1673ffffffffffffffffffffffffffffffffffffffff16815260200190815260200160002060010160006101000a81548173ffffffffffffffffffffffffffffffffffffffff021916908373ffffffffffffffffffffffffffffffffffffffff1602179055503360086000600b60009054906101000a900473ffffffffffffffffffffffffffffffffffffffff1673ffffffffffffffffffffffffffffffffffffffff1673ffffffffffffffffffffffffffffffffffffffff16815260200190815260200160002060010160006101000a81548173ffffffffffffffffffffffffffffffffffffffff021916908373ffffffffffffffffffffffffffffffffffffffff1602179055505b50565b60008054906101000a900473ffffffffffffffffffffffffffffffffffffffff1681565b60006107ad33611588565b6107ec576040517f08c379a00000000000000000000000000000000000000000000000000000000081526004016107e390611e5a565b60405180910390fd5b6005546127106107fc9190611f59565b8260055461080a9190611fe0565b6108149190611faf565b905080600660008573ffffffffffffffffffffffffffffffffffffffff1673ffffffffffffffffffffffffffffffffffffffff16815260200190815260200160002060008282546108659190611f59565b9250508190555092915050565b60086020528060005260406000206000915090508060000154908060010160009054906101000a900473ffffffffffffffffffffffffffffffffffffffff16905082565b60006108c133611588565b610900576040517f08c379a00000000000000000000000000000000000000000000000000000000081526004016108f790611e5a565b60405180910390fd5b612710826005546109119190611fe0565b61091b9190611faf565b905080600660008573ffffffffffffffffffffffffffffffffffffffff1673ffffffffffffffffffffffffffffffffffffffff168152602001908152602001600020600082825461096c9190611f59565b9250508190555092915050565b61098161163e565b73ffffffffffffffffffffffffffffffffffffffff1661099f610c4f565b73ffffffffffffffffffffffffffffffffffffffff16146109f5576040517f08c379a00000000000000000000000000000000000000000000000000000000081526004016109ec90611dfa565b60405180910390fd5b600073ffffffffffffffffffffffffffffffffffffffff16600160009054906101000a900473ffffffffffffffffffffffffffffffffffffffff1673ffffffffffffffffffffffffffffffffffffffff167f8be0079c531659141344cd1fd0a4f28419497f9722a3daafe3b4186f6b6457e060405160405180910390a36000600160006101000a81548173ffffffffffffffffffffffffffffffffffffffff021916908373ffffffffffffffffffffffffffffffffffffffff160217905550565b60096020528160005260406000206020528060005260406000206000915091509054906101000a900460ff1681565b81600360003373ffffffffffffffffffffffffffffffffffffffff1673ffffffffffffffffffffffffffffffffffffffff1681526020019081526020016000206000828254610b34919061203a565b925050819055508160046000828254610b4d919061203a565b92505081905550610b5c611646565b73ffffffffffffffffffffffffffffffffffffffff1663d9caed12600260009054906101000a900473ffffffffffffffffffffffffffffffffffffffff1683856040518463ffffffff1660e01b8152600401610bba93929190611c7d565b602060405180830381600087803b158015610bd457600080fd5b505af1158015610be8573d6000803e3d6000fd5b505050506040513d601f19601f82011682018060405250810190610c0c91906119b4565b610c4b576040517f08c379a0000000000000000000000000000000000000000000000000000000008152600401610c4290611e3a565b60405180910390fd5b5050565b6000600160009054906101000a900473ffffffffffffffffffffffffffffffffffffffff16905090565b610c8333826111b7565b50565b60045481565b8173ffffffffffffffffffffffffffffffffffffffff163373ffffffffffffffffffffffffffffffffffffffff161480610d4c5750600960008373ffffffffffffffffffffffffffffffffffffffff1673ffffffffffffffffffffffffffffffffffffffff16815260200190815260200160002060003373ffffffffffffffffffffffffffffffffffffffff1673ffffffffffffffffffffffffffffffffffffffff16815260200190815260200160002060009054906101000a900460ff165b610d8b576040517f08c379a0000000000000000000000000000000000000000000000000000000008152600401610d8290611dda565b60405180910390fd5b6001600960008473ffffffffffffffffffffffffffffffffffffffff1673ffffffffffffffffffffffffffffffffffffffff16815260200190815260200160002060008373ffffffffffffffffffffffffffffffffffffffff1673ffffffffffffffffffffffffffffffffffffffff16815260200190815260200160002060006101000a81548160ff0219169083151502179055505050565b3273ffffffffffffffffffffffffffffffffffffffff163373ffffffffffffffffffffffffffffffffffffffff1614610e92576040517f08c379a0000000000000000000000000000000000000000000000000000000008152600401610e8990611d7a565b60405180910390fd5b6000610e9c611321565b905060003373ffffffffffffffffffffffffffffffffffffffff168273ffffffffffffffffffffffffffffffffffffffff161480610f605750600960008373ffffffffffffffffffffffffffffffffffffffff1673ffffffffffffffffffffffffffffffffffffffff16815260200190815260200160002060003373ffffffffffffffffffffffffffffffffffffffff1673ffffffffffffffffffffffffffffffffffffffff16815260200190815260200160002060009054906101000a900460ff165b90506000610f6c6116f8565b73ffffffffffffffffffffffffffffffffffffffff166315dc6a2885610f90611321565b33866040518563ffffffff1660e01b8152600401610fb19493929190611cdd565b602060405180830381600087803b158015610fcb57600080fd5b505af1158015610fdf573d6000803e3d6000fd5b505050506040513d601f19601f820116820180604052508101906110039190611a06565b905050505050565b61101361163e565b73ffffffffffffffffffffffffffffffffffffffff16611031610c4f565b73ffffffffffffffffffffffffffffffffffffffff1614611087576040517f08c379a000000000000000000000000000000000000000000000000000000000815260040161107e90611dfa565b60405180910390fd5b600073ffffffffffffffffffffffffffffffffffffffff168173ffffffffffffffffffffffffffffffffffffffff1614156110f7576040517f08c379a00000000000000000000000000000000000000000000000000000000081526004016110ee90611d9a565b60405180910390fd5b8073ffffffffffffffffffffffffffffffffffffffff16600160009054906101000a900473ffffffffffffffffffffffffffffffffffffffff1673ffffffffffffffffffffffffffffffffffffffff167f8be0079c531659141344cd1fd0a4f28419497f9722a3daafe3b4186f6b6457e060405160405180910390a380600160006101000a81548173ffffffffffffffffffffffffffffffffffffffff021916908373ffffffffffffffffffffffffffffffffffffffff16021790555050565b6111bf611646565b73ffffffffffffffffffffffffffffffffffffffff1663b3db428b83600260009054906101000a900473ffffffffffffffffffffffffffffffffffffffff16846040518463ffffffff1660e01b815260040161121d93929190611c7d565b602060405180830381600087803b15801561123757600080fd5b505af115801561124b573d6000803e3d6000fd5b505050506040513d601f19601f8201168201806040525081019061126f91906119b4565b6112ae576040517f08c379a00000000000000000000000000000000000000000000000000000000081526004016112a590611e1a565b60405180910390fd5b80600360003373ffffffffffffffffffffffffffffffffffffffff1673ffffffffffffffffffffffffffffffffffffffff16815260200190815260200160002060008282546112fd9190611f59565b9250508190555080600460008282546113169190611f59565b925050819055505050565b60005b60086000600a60009054906101000a900473ffffffffffffffffffffffffffffffffffffffff1673ffffffffffffffffffffffffffffffffffffffff1673ffffffffffffffffffffffffffffffffffffffff16815260200190815260200160002060000154600754600c544361139a919061203a565b6113a49190611fe0565b106115605760075460086000600a60009054906101000a900473ffffffffffffffffffffffffffffffffffffffff1673ffffffffffffffffffffffffffffffffffffffff1673ffffffffffffffffffffffffffffffffffffffff1681526020019081526020016000206000015461141b9190611faf565b600c600082825461142c9190611f59565b92505081905550600a60009054906101000a900473ffffffffffffffffffffffffffffffffffffffff16600b60006101000a81548173ffffffffffffffffffffffffffffffffffffffff021916908373ffffffffffffffffffffffffffffffffffffffff16021790555060086000600a60009054906101000a900473ffffffffffffffffffffffffffffffffffffffff1673ffffffffffffffffffffffffffffffffffffffff1673ffffffffffffffffffffffffffffffffffffffff16815260200190815260200160002060010160009054906101000a900473ffffffffffffffffffffffffffffffffffffffff16600a60006101000a81548173ffffffffffffffffffffffffffffffffffffffff021916908373ffffffffffffffffffffffffffffffffffffffff160217905550611324565b600a60009054906101000a900473ffffffffffffffffffffffffffffffffffffffff16905090565b60008060009054906101000a900473ffffffffffffffffffffffffffffffffffffffff1673ffffffffffffffffffffffffffffffffffffffff1663a716b97f8360046040518363ffffffff1660e01b81526004016115e7929190611cb4565b60206040518083038186803b1580156115ff57600080fd5b505afa158015611613573d6000803e3d6000fd5b505050506040513d601f19601f8201168201806040525081019061163791906119b4565b9050919050565b600033905090565b60008060009054906101000a900473ffffffffffffffffffffffffffffffffffffffff1673ffffffffffffffffffffffffffffffffffffffff166336214c7860006040518263ffffffff1660e01b81526004016116a39190611d5f565b60206040518083038186803b1580156116bb57600080fd5b505afa1580156116cf573d6000803e3d6000fd5b505050506040513d601f19601f820116820180604052508101906116f391906118d2565b905090565b60008060009054906101000a900473ffffffffffffffffffffffffffffffffffffffff1673ffffffffffffffffffffffffffffffffffffffff166336214c7860036040518263ffffffff1660e01b81526004016117559190611d5f565b60206040518083038186803b15801561176d57600080fd5b505afa158015611781573d6000803e3d6000fd5b505050506040513d601f19601f820116820180604052508101906117a591906118d2565b905090565b60006117bd6117b884611ee3565b611ebe565b905080838252602082019050828560208602820111156117dc57600080fd5b60005b8581101561180c57816117f28882611816565b8452602084019350602083019250506001810190506117df565b5050509392505050565b6000813590506118258161249c565b92915050565b60008151905061183a8161249c565b92915050565b600082601f83011261185157600080fd5b81356118618482602086016117aa565b91505092915050565b600081519050611879816124b3565b92915050565b60008135905061188e816124ca565b92915050565b6000815190506118a3816124ca565b92915050565b6000602082840312156118bb57600080fd5b60006118c984828501611816565b91505092915050565b6000602082840312156118e457600080fd5b60006118f28482850161182b565b91505092915050565b6000806040838503121561190e57600080fd5b600061191c85828601611816565b925050602061192d85828601611816565b9150509250929050565b6000806040838503121561194a57600080fd5b600061195885828601611816565b92505060206119698582860161187f565b9150509250929050565b60006020828403121561198557600080fd5b600082013567ffffffffffffffff81111561199f57600080fd5b6119ab84828501611840565b91505092915050565b6000602082840312156119c657600080fd5b60006119d48482850161186a565b91505092915050565b6000602082840312156119ef57600080fd5b60006119fd8482850161187f565b91505092915050565b600060208284031215611a1857600080fd5b6000611a2684828501611894565b91505092915050565b60008060408385031215611a4257600080fd5b6000611a508582860161187f565b9250506020611a6185828601611816565b9150509250929050565b6000611a778383611a83565b60208301905092915050565b611a8c8161206e565b82525050565b611a9b8161206e565b82525050565b6000611aac82611f1f565b611ab68185611f37565b9350611ac183611f0f565b8060005b83811015611af2578151611ad98882611a6b565b9750611ae483611f2a565b925050600181019050611ac5565b5085935050505092915050565b611b0881612080565b82525050565b611b17816120dc565b82525050565b611b2681612100565b82525050565b611b3581612112565b82525050565b6000611b48603a83611f48565b9150611b5382612222565b604082019050919050565b6000611b6b602683611f48565b9150611b7682612271565b604082019050919050565b6000611b8e602983611f48565b9150611b99826122c0565b604082019050919050565b6000611bb1603083611f48565b9150611bbc8261230f565b604082019050919050565b6000611bd4602083611f48565b9150611bdf8261235e565b602082019050919050565b6000611bf7604783611f48565b9150611c0282612387565b606082019050919050565b6000611c1a603283611f48565b9150611c25826123fc565b604082019050919050565b6000611c3d601d83611f48565b9150611c488261244b565b602082019050919050565b611c5c816120d2565b82525050565b6000602082019050611c776000830184611a92565b92915050565b6000606082019050611c926000830186611a92565b611c9f6020830185611a92565b611cac6040830184611c53565b949350505050565b6000604082019050611cc96000830185611a92565b611cd66020830184611b2c565b9392505050565b60006080820190508181036000830152611cf78187611aa1565b9050611d066020830186611a92565b611d136040830185611a92565b611d206060830184611aff565b95945050505050565b6000602082019050611d3e6000830184611aff565b92915050565b6000602082019050611d596000830184611b0e565b92915050565b6000602082019050611d746000830184611b1d565b92915050565b60006020820190508181036000830152611d9381611b3b565b9050919050565b60006020820190508181036000830152611db381611b5e565b9050919050565b60006020820190508181036000830152611dd381611b81565b9050919050565b60006020820190508181036000830152611df381611ba4565b9050919050565b60006020820190508181036000830152611e1381611bc7565b9050919050565b60006020820190508181036000830152611e3381611bea565b9050919050565b60006020820190508181036000830152611e5381611c0d565b9050919050565b60006020820190508181036000830152611e7381611c30565b9050919050565b6000602082019050611e8f6000830184611c53565b92915050565b6000604082019050611eaa6000830185611c53565b611eb76020830184611a92565b9392505050565b6000611ec8611ed9565b9050611ed48282612124565b919050565b6000604051905090565b600067ffffffffffffffff821115611efe57611efd6121e2565b5b602082029050602081019050919050565b6000819050602082019050919050565b600081519050919050565b6000602082019050919050565b600082825260208201905092915050565b600082825260208201905092915050565b6000611f64826120d2565b9150611f6f836120d2565b9250827fffffffffffffffffffffffffffffffffffffffffffffffffffffffffffffffff03821115611fa457611fa3612155565b5b828201905092915050565b6000611fba826120d2565b9150611fc5836120d2565b925082611fd557611fd4612184565b5b828204905092915050565b6000611feb826120d2565b9150611ff6836120d2565b9250817fffffffffffffffffffffffffffffffffffffffffffffffffffffffffffffffff048311821515161561202f5761202e612155565b5b828202905092915050565b6000612045826120d2565b9150612050836120d2565b92508282101561206357612062612155565b5b828203905092915050565b6000612079826120b2565b9050919050565b60008115159050919050565b600081905061209a82612474565b919050565b60008190506120ad82612488565b919050565b600073ffffffffffffffffffffffffffffffffffffffff82169050919050565b6000819050919050565b60006120e7826120ee565b9050919050565b60006120f9826120b2565b9050919050565b600061210b8261208c565b9050919050565b600061211d8261209f565b9050919050565b61212d82612211565b810181811067ffffffffffffffff8211171561214c5761214b6121e2565b5b80604052505050565b7f4e487b7100000000000000000000000000000000000000000000000000000000600052601160045260246000fd5b7f4e487b7100000000000000000000000000000000000000000000000000000000600052601260045260246000fd5b7f4e487b7100000000000000000000000000000000000000000000000000000000600052602160045260246000fd5b7f4e487b7100000000000000000000000000000000000000000000000000000000600052604160045260246000fd5b6000601f19601f8301169050919050565b7f43757272656e746c79206e6f20696e7465726d656469617269657320616c6c6f60008201527f77656420666f7220746869732066756e6374696f6e2063616c6c000000000000602082015250565b7f4f776e61626c653a206e6577206f776e657220697320746865207a65726f206160008201527f6464726573730000000000000000000000000000000000000000000000000000602082015250565b7f496e73756666696369656e74207374616b6520746f2063616c6c206576656e2060008201527f6f6e6520626c6f636b0000000000000000000000000000000000000000000000602082015250565b7f6d73672e73656e646572206e6f7420617574686f72697a656420746f2064656c60008201527f656761746520666f72207374616b657200000000000000000000000000000000602082015250565b7f4f776e61626c653a2063616c6c6572206973206e6f7420746865206f776e6572600082015250565b7f436f756c64206e6f74206465706f736974207374616b652066756e647320287060008201527f657268617073206d616b6520616c6c6f77616e636520746f2066756e6420636f60208201527f6e74726163743f00000000000000000000000000000000000000000000000000604082015250565b7f496e73756666696369656e742066756e6473202d2d20736f6d657468696e672060008201527f77656e74207265616c6c792077726f6e672e0000000000000000000000000000602082015250565b7f4e6f7420617574686f72697a656420746f20736f757263652066656573000000600082015250565b60068110612485576124846121b3565b5b50565b60088110612499576124986121b3565b5b50565b6124a58161206e565b81146124b057600080fd5b50565b6124bc81612080565b81146124c757600080fd5b50565b6124d3816120d2565b81146124de57600080fd5b5056fea26469706673582212202c7085a7978d9a41214b46ab50380cad56d57d34918b54a2cf6d24906f2dbb2664736f6c63430008010033",
  "linkReferences": {},
  "deployedLinkReferences": {}
}