{
  "_format": "hh-sol-artifact-1",
  "contractName": "Admin",
  "sourceName": "contracts/Admin.sol",
  "abi": [
    {
      "inputs": [
        {
          "internalType": "uint256",
          "name": "_feesPer10k",
          "type": "uint256"
        },
        {
          "internalType": "address",
          "name": "_MFI",
          "type": "address"
        },
        {
          "internalType": "address",
          "name": "_roles",
          "type": "address"
        }
      ],
      "stateMutability": "nonpayable",
      "type": "constructor"
    },
    {
      "anonymous": false,
      "inputs": [
        {
          "indexed": true,
          "internalType": "address",
          "name": "previousOwner",
          "type": "address"
        },
        {
          "indexed": true,
          "internalType": "address",
          "name": "newOwner",
          "type": "address"
        }
      ],
      "name": "OwnershipTransferred",
      "type": "event"
    },
    {
      "inputs": [],
      "name": "ADMIN",
      "outputs": [
        {
          "internalType": "uint16",
          "name": "",
          "type": "uint16"
        }
      ],
      "stateMutability": "view",
      "type": "function"
    },
    {
      "inputs": [],
      "name": "AUTHORIZED_FUND_TRADER",
      "outputs": [
        {
          "internalType": "uint16",
          "name": "",
          "type": "uint16"
        }
      ],
      "stateMutability": "view",
      "type": "function"
    },
    {
      "inputs": [],
      "name": "BORROWER",
      "outputs": [
        {
          "internalType": "uint16",
          "name": "",
          "type": "uint16"
        }
      ],
      "stateMutability": "view",
      "type": "function"
    },
    {
      "inputs": [],
      "name": "FEE_CONTROLLER",
      "outputs": [
        {
          "internalType": "uint16",
          "name": "",
          "type": "uint16"
        }
      ],
      "stateMutability": "view",
      "type": "function"
    },
    {
      "inputs": [],
      "name": "FEE_SOURCE",
      "outputs": [
        {
          "internalType": "uint16",
          "name": "",
          "type": "uint16"
        }
      ],
      "stateMutability": "view",
      "type": "function"
    },
    {
      "inputs": [],
      "name": "FUND",
      "outputs": [
        {
          "internalType": "uint16",
          "name": "",
          "type": "uint16"
        }
      ],
      "stateMutability": "view",
      "type": "function"
    },
    {
      "inputs": [],
      "name": "INCENTIVE_DISTRIBUTION",
      "outputs": [
        {
          "internalType": "uint16",
          "name": "",
          "type": "uint16"
        }
      ],
      "stateMutability": "view",
      "type": "function"
    },
    {
      "inputs": [],
      "name": "INCENTIVE_REPORTER",
      "outputs": [
        {
          "internalType": "uint16",
          "name": "",
          "type": "uint16"
        }
      ],
      "stateMutability": "view",
      "type": "function"
    },
    {
      "inputs": [],
      "name": "LENDING",
      "outputs": [
        {
          "internalType": "uint16",
          "name": "",
          "type": "uint16"
        }
      ],
      "stateMutability": "view",
      "type": "function"
    },
    {
      "inputs": [],
      "name": "LIQUIDATOR",
      "outputs": [
        {
          "internalType": "uint16",
          "name": "",
          "type": "uint16"
        }
      ],
      "stateMutability": "view",
      "type": "function"
    },
    {
      "inputs": [],
      "name": "MARGIN_CALLER",
      "outputs": [
        {
          "internalType": "uint16",
          "name": "",
          "type": "uint16"
        }
      ],
      "stateMutability": "view",
      "type": "function"
    },
    {
      "inputs": [],
      "name": "MARGIN_TRADER",
      "outputs": [
        {
          "internalType": "uint16",
          "name": "",
          "type": "uint16"
        }
      ],
      "stateMutability": "view",
      "type": "function"
    },
    {
      "inputs": [],
      "name": "MARGIN_TRADING",
      "outputs": [
        {
          "internalType": "uint16",
          "name": "",
          "type": "uint16"
        }
      ],
      "stateMutability": "view",
      "type": "function"
    },
    {
      "inputs": [],
      "name": "PRICE_CONTROLLER",
      "outputs": [
        {
          "internalType": "uint16",
          "name": "",
          "type": "uint16"
        }
      ],
      "stateMutability": "view",
      "type": "function"
    },
    {
      "inputs": [],
      "name": "ROUTER",
      "outputs": [
        {
          "internalType": "uint16",
          "name": "",
          "type": "uint16"
        }
      ],
      "stateMutability": "view",
      "type": "function"
    },
    {
      "inputs": [],
      "name": "STAKE_PENALIZER",
      "outputs": [
        {
          "internalType": "uint16",
          "name": "",
          "type": "uint16"
        }
      ],
      "stateMutability": "view",
      "type": "function"
    },
    {
      "inputs": [],
      "name": "TOKEN_ACTIVATOR",
      "outputs": [
        {
          "internalType": "uint16",
          "name": "",
          "type": "uint16"
        }
      ],
      "stateMutability": "view",
      "type": "function"
    },
    {
      "inputs": [],
      "name": "WITHDRAWER",
      "outputs": [
        {
          "internalType": "uint16",
          "name": "",
          "type": "uint16"
        }
      ],
      "stateMutability": "view",
      "type": "function"
    },
    {
      "inputs": [
        {
          "internalType": "address",
          "name": "forStaker",
          "type": "address"
        },
        {
          "internalType": "address",
          "name": "delegate",
          "type": "address"
        }
      ],
      "name": "addDelegate",
      "outputs": [],
      "stateMutability": "nonpayable",
      "type": "function"
    },
    {
      "inputs": [
        {
          "internalType": "address",
          "name": "token",
          "type": "address"
        },
        {
          "internalType": "uint256",
          "name": "amount",
          "type": "uint256"
        }
      ],
      "name": "addTradingFees",
      "outputs": [
        {
          "internalType": "uint256",
          "name": "fees",
          "type": "uint256"
        }
      ],
      "stateMutability": "nonpayable",
      "type": "function"
    },
    {
      "inputs": [
        {
          "internalType": "address",
          "name": "",
          "type": "address"
        }
      ],
      "name": "claimIds",
      "outputs": [
        {
          "internalType": "uint256",
          "name": "",
          "type": "uint256"
        }
      ],
      "stateMutability": "view",
      "type": "function"
    },
    {
      "inputs": [
        {
          "internalType": "address",
          "name": "",
          "type": "address"
        }
      ],
      "name": "collectedFees",
      "outputs": [
        {
          "internalType": "uint256",
          "name": "",
          "type": "uint256"
        }
      ],
      "stateMutability": "view",
      "type": "function"
    },
    {
      "inputs": [
        {
          "internalType": "uint256",
          "name": "amount",
          "type": "uint256"
        }
      ],
      "name": "depositMaintenanceStake",
      "outputs": [],
      "stateMutability": "nonpayable",
      "type": "function"
    },
    {
      "inputs": [
        {
          "internalType": "uint256",
          "name": "amount",
          "type": "uint256"
        }
      ],
      "name": "depositStake",
      "outputs": [],
      "stateMutability": "nonpayable",
      "type": "function"
    },
    {
      "inputs": [],
      "name": "getUpdatedCurrentStaker",
      "outputs": [
        {
          "internalType": "address",
          "name": "",
          "type": "address"
        }
      ],
      "stateMutability": "nonpayable",
      "type": "function"
    },
    {
      "inputs": [
        {
          "internalType": "address",
          "name": "caller",
          "type": "address"
        }
      ],
      "name": "isAuthorizedStaker",
      "outputs": [
        {
          "internalType": "bool",
          "name": "isAuthorized",
          "type": "bool"
        }
      ],
      "stateMutability": "nonpayable",
      "type": "function"
    },
    {
      "inputs": [
        {
          "internalType": "address",
          "name": "",
          "type": "address"
        },
        {
          "internalType": "address",
          "name": "",
          "type": "address"
        }
      ],
      "name": "maintenanceDelegateTo",
      "outputs": [
        {
          "internalType": "bool",
          "name": "",
          "type": "bool"
        }
      ],
      "stateMutability": "view",
      "type": "function"
    },
    {
      "inputs": [],
      "name": "maintenanceStakePerBlock",
      "outputs": [
        {
          "internalType": "uint256",
          "name": "",
          "type": "uint256"
        }
      ],
      "stateMutability": "view",
      "type": "function"
    },
    {
      "inputs": [
        {
          "internalType": "address",
          "name": "",
          "type": "address"
        }
      ],
      "name": "nextMaintenanceStaker",
      "outputs": [
        {
          "internalType": "address",
          "name": "",
          "type": "address"
        }
      ],
      "stateMutability": "view",
      "type": "function"
    },
    {
      "inputs": [],
      "name": "owner",
      "outputs": [
        {
          "internalType": "address",
          "name": "",
          "type": "address"
        }
      ],
      "stateMutability": "view",
      "type": "function"
    },
    {
      "inputs": [
        {
          "internalType": "address",
          "name": "maintainer",
          "type": "address"
        },
        {
          "internalType": "uint256",
          "name": "penalty",
          "type": "uint256"
        },
        {
          "internalType": "address",
          "name": "recipient",
          "type": "address"
        }
      ],
      "name": "penalizeMaintenanceStake",
      "outputs": [
        {
          "internalType": "uint256",
          "name": "stakeTaken",
          "type": "uint256"
        }
      ],
      "stateMutability": "nonpayable",
      "type": "function"
    },
    {
      "inputs": [
        {
          "internalType": "address",
          "name": "forStaker",
          "type": "address"
        },
        {
          "internalType": "address",
          "name": "delegate",
          "type": "address"
        }
      ],
      "name": "removeDelegate",
      "outputs": [],
      "stateMutability": "nonpayable",
      "type": "function"
    },
    {
      "inputs": [],
      "name": "renounceOwnership",
      "outputs": [],
      "stateMutability": "nonpayable",
      "type": "function"
    },
    {
      "inputs": [],
      "name": "roles",
      "outputs": [
        {
          "internalType": "contract Roles",
          "name": "",
          "type": "address"
        }
      ],
      "stateMutability": "view",
      "type": "function"
    },
    {
      "inputs": [
        {
          "internalType": "uint256",
          "name": "amount",
          "type": "uint256"
        }
      ],
      "name": "setMaintenanceStakePerBlock",
      "outputs": [],
      "stateMutability": "nonpayable",
      "type": "function"
    },
    {
      "inputs": [
        {
          "internalType": "address",
          "name": "",
          "type": "address"
        }
      ],
      "name": "stakes",
      "outputs": [
        {
          "internalType": "uint256",
          "name": "",
          "type": "uint256"
        }
      ],
      "stateMutability": "view",
      "type": "function"
    },
    {
      "inputs": [
        {
          "internalType": "address",
          "name": "token",
          "type": "address"
        },
        {
          "internalType": "uint256",
          "name": "amount",
          "type": "uint256"
        }
      ],
      "name": "subtractTradingFees",
      "outputs": [
        {
          "internalType": "uint256",
          "name": "fees",
          "type": "uint256"
        }
      ],
      "stateMutability": "nonpayable",
      "type": "function"
    },
    {
      "inputs": [],
      "name": "totalStakes",
      "outputs": [
        {
          "internalType": "uint256",
          "name": "",
          "type": "uint256"
        }
      ],
      "stateMutability": "view",
      "type": "function"
    },
    {
      "inputs": [
        {
          "internalType": "address",
          "name": "newOwner",
          "type": "address"
        }
      ],
      "name": "transferOwnership",
      "outputs": [],
      "stateMutability": "nonpayable",
      "type": "function"
    },
    {
      "inputs": [
        {
          "internalType": "uint256",
          "name": "amount",
          "type": "uint256"
        }
      ],
      "name": "withdrawStake",
      "outputs": [],
      "stateMutability": "nonpayable",
      "type": "function"
    }
  ],
  "bytecode": "0x60806040523480156200001157600080fd5b5060405162001f7338038062001f738339810160408190526200003491620000fe565b600080546001600160a01b0319166001600160a01b03831617815562000059620000dd565b600180546001600160a01b0319166001600160a01b038316908117909155604051919250906000907f8be0079c531659141344cd1fd0a4f28419497f9722a3daafe3b4186f6b6457e0908290a35050600280546001600160a01b0319166001600160a01b0392909216919091179055600655670de0b6b3a76400006008556200013e565b3390565b80516001600160a01b0381168114620000f957600080fd5b919050565b60008060006060848603121562000113578283fd5b835192506200012560208501620000e1565b91506200013560408501620000e1565b90509250925092565b611e25806200014e6000396000f3fe608060405234801561001057600080fd5b50600436106102c85760003560e01c8063669419841161017b578063bf9befb1116100d8578063d5d7ed7f1161008c578063dc5c66f911610071578063dc5c66f9146104c3578063e909ebfa146104d6578063f2fde38b146104e9576102c8565b8063d5d7ed7f146104a8578063d8715ca7146104b0576102c8565b8063c76139d0116100bd578063c76139d014610485578063cacf8d451461048d578063cb82cc8f14610495576102c8565b8063bf9befb11461046a578063c3fff5d914610472576102c8565b806383a49c7c1161012f578063a0098d6911610114578063a0098d6914610452578063a94c7c341461045a578063a9cc053614610462576102c8565b806383a49c7c146104425780638da5cb5b1461044a576102c8565b8063715018a611610160578063715018a61461041f5780637b23cbce1461042757806381ca66001461043a576102c8565b8063669419841461040457806367cbf42d1461040c576102c8565b8063219f951d11610229578063392f5f64116101dd57806346b88796116101c257806346b88796146103ec57806348fb27b8146103f45780635c275a39146103fc576102c8565b8063392f5f64146103d15780633f0e9edf146103d9576102c8565b80632a0acc6a1161020e5780632a0acc6a146103b95780632fe94def146103c157806332fe7b26146103c9576102c8565b8063219f951d1461039357806325d5971f146103a6576102c8565b806316934fc4116102805780631b669507116102655780631b669507146103705780631bc5d81d146103785780631cead9a714610380576102c8565b806316934fc4146103485780631a38de1d1461035b576102c8565b8063065d570f116102b1578063065d570f1461030b5780630a45bc1b146103205780630ad6915014610340576102c8565b8063020d308d146102cd578063055cfe53146102e2575b600080fd5b6102e06102db3660046117b3565b6104fc565b005b6102f56102f03660046117b3565b6105eb565b60405161030291906118f9565b60405180910390f35b61031361060b565b6040516103029190611cb7565b61033361032e366004611816565b610610565b6040516103029190611cf0565b6103336106bf565b61033361035636600461177b565b6106c5565b6103636106d7565b60405161030291906118a7565b61031361089e565b6103136108a3565b61033361038e36600461177b565b6108a8565b6102e06103a1366004611877565b6108ba565b6102e06103b4366004611877565b6109b3565b6103136109fe565b610313610a03565b610313610a08565b610363610a0d565b6103336103e73660046117eb565b610a29565b610313610ad7565b610313610adc565b610313610ae1565b610313610ae6565b61033361041a3660046117eb565b610aeb565b6102e0610b3d565b6102f561043536600461177b565b610c1f565b610313610c9e565b610313610ca3565b610363610ca8565b610313610cc4565b610313610cc9565b610313610cce565b610333610cd3565b61036361048036600461177b565b610cd9565b610313610d01565b610313610d06565b6102e06104a3366004611877565b610d0b565b610313610d15565b6102e06104be366004611877565b610d1a565b6103336104d136600461177b565b610d92565b6102e06104e43660046117b3565b610da4565b6102e06104f736600461177b565b610e8d565b3373ffffffffffffffffffffffffffffffffffffffff83161480610550575073ffffffffffffffffffffffffffffffffffffffff82166000908152600a6020908152604080832033845290915290205460ff165b61058f576040517f08c379a000000000000000000000000000000000000000000000000000000000815260040161058690611a7a565b60405180910390fd5b73ffffffffffffffffffffffffffffffffffffffff9182166000908152600a60209081526040808320939094168252919091522080547fffffffffffffffffffffffffffffffffffffffffffffffffffffffffffffff00169055565b600a60209081526000928352604080842090915290825290205460ff1681565b600381565b600061061b33610fdb565b610651576040517f08c379a000000000000000000000000000000000000000000000000000000000815260040161058690611963565b73ffffffffffffffffffffffffffffffffffffffff84166000908152600360205260409020548311156106aa575073ffffffffffffffffffffffffffffffffffffffff83166000908152600360205260409020546106ad565b50815b6106b884828461108b565b9392505050565b60085481565b60036020526000908152604090205481565b60005b600b5473ffffffffffffffffffffffffffffffffffffffff16600090815260036020526040902054600854600d546107129043611d87565b61071c9190611d4a565b1061088157600b5473ffffffffffffffffffffffffffffffffffffffff1660009081526003602052604090205460085411156107d057600b805473ffffffffffffffffffffffffffffffffffffffff90811660009081526009602052604080822054600c548416835281832080549185167fffffffffffffffffffffffff0000000000000000000000000000000000000000928316811790915585549094168352912080548216905582541617905561087c565b600854600b5473ffffffffffffffffffffffffffffffffffffffff166000908152600360205260409020546108059190611d11565b600d60008282546108169190611cf9565b9091555050600b8054600c80547fffffffffffffffffffffffff000000000000000000000000000000000000000090811673ffffffffffffffffffffffffffffffffffffffff808516918217909355600090815260096020526040902054921691161790555b6106da565b50600b5473ffffffffffffffffffffffffffffffffffffffff1690565b600a81565b600881565b60076020526000908152604090205481565b600854336000908152600360205260409020546108d79083611cf9565b101561090f576040517f08c379a000000000000000000000000000000000000000000000000000000000815260040161058690611a1d565b6109193382611334565b3360009081526009602052604090205473ffffffffffffffffffffffffffffffffffffffff166109b05761094b6106d7565b33600081815260096020526040808220805473ffffffffffffffffffffffffffffffffffffffff9586167fffffffffffffffffffffffff000000000000000000000000000000000000000091821617909155600c549094168252902080549092161790555b50565b6109bc33610c1f565b156109f3576040517f08c379a000000000000000000000000000000000000000000000000000000000815260040161058690611c5a565b6109b033823361108b565b606b81565b606981565b606781565b60005473ffffffffffffffffffffffffffffffffffffffff1681565b6000610a3433611618565b610a6a576040517f08c379a000000000000000000000000000000000000000000000000000000000815260040161058690611c23565b600654610a7990612710611cf9565b82600654610a879190611d4a565b610a919190611d11565b73ffffffffffffffffffffffffffffffffffffffff8416600090815260076020526040812080549293508392909190610acb908490611cf9565b90915550909392505050565b600681565b606681565b606581565b600181565b6000610af633611618565b610b2c576040517f08c379a000000000000000000000000000000000000000000000000000000000815260040161058690611c23565b61271082600654610a879190611d4a565b610b45611672565b73ffffffffffffffffffffffffffffffffffffffff16610b63610ca8565b73ffffffffffffffffffffffffffffffffffffffff1614610bb0576040517f08c379a000000000000000000000000000000000000000000000000000000000815260040161058690611ad7565b60015460405160009173ffffffffffffffffffffffffffffffffffffffff16907f8be0079c531659141344cd1fd0a4f28419497f9722a3daafe3b4186f6b6457e0908390a3600180547fffffffffffffffffffffffff0000000000000000000000000000000000000000169055565b600080610c2a6106d7565b90508273ffffffffffffffffffffffffffffffffffffffff168173ffffffffffffffffffffffffffffffffffffffff1614806106b8575073ffffffffffffffffffffffffffffffffffffffff8082166000908152600a602090815260408083209387168352929052205460ff169392505050565b606a81565b600981565b60015473ffffffffffffffffffffffffffffffffffffffff1690565b600281565b600581565b606881565b60045481565b60096020526000908152604090205473ffffffffffffffffffffffffffffffffffffffff1681565b606c81565b600481565b6109b03382611334565b600781565b610d22611672565b73ffffffffffffffffffffffffffffffffffffffff16610d40610ca8565b73ffffffffffffffffffffffffffffffffffffffff1614610d8d576040517f08c379a000000000000000000000000000000000000000000000000000000000815260040161058690611ad7565b600855565b60056020526000908152604090205481565b3373ffffffffffffffffffffffffffffffffffffffff83161480610df8575073ffffffffffffffffffffffffffffffffffffffff82166000908152600a6020908152604080832033845290915290205460ff165b610e2e576040517f08c379a000000000000000000000000000000000000000000000000000000000815260040161058690611a7a565b73ffffffffffffffffffffffffffffffffffffffff9182166000908152600a60209081526040808320939094168252919091522080547fffffffffffffffffffffffffffffffffffffffffffffffffffffffffffffff00166001179055565b610e95611672565b73ffffffffffffffffffffffffffffffffffffffff16610eb3610ca8565b73ffffffffffffffffffffffffffffffffffffffff1614610f00576040517f08c379a000000000000000000000000000000000000000000000000000000000815260040161058690611ad7565b73ffffffffffffffffffffffffffffffffffffffff8116610f4d576040517f08c379a0000000000000000000000000000000000000000000000000000000008152600401610586906119c0565b60015460405173ffffffffffffffffffffffffffffffffffffffff8084169216907f8be0079c531659141344cd1fd0a4f28419497f9722a3daafe3b4186f6b6457e090600090a3600180547fffffffffffffffffffffffff00000000000000000000000000000000000000001673ffffffffffffffffffffffffffffffffffffffff92909216919091179055565b600080546040517fd87fefd200000000000000000000000000000000000000000000000000000000815273ffffffffffffffffffffffffffffffffffffffff9091169063d87fefd29061103590600a908690600401611cc6565b60206040518083038186803b15801561104d57600080fd5b505afa158015611061573d6000803e3d6000fd5b505050506040513d601f19601f820116820180604052508101906110859190611857565b92915050565b73ffffffffffffffffffffffffffffffffffffffff8316600090815260036020526040812080549084905560048054919285926110c9908490611d87565b909155506110d79050611676565b6002546040517fd9caed1200000000000000000000000000000000000000000000000000000000815273ffffffffffffffffffffffffffffffffffffffff9283169263d9caed129261113292911690869088906004016118c8565b602060405180830381600087803b15801561114c57600080fd5b505af1158015611160573d6000803e3d6000fd5b505050506040513d601f19601f820116820180604052508101906111849190611857565b6111ba576040517f08c379a000000000000000000000000000000000000000000000000000000000815260040161058690611bc6565b8281141561128c576111ca611723565b73ffffffffffffffffffffffffffffffffffffffff8581166000908152600560205260408082205490517fc6de9d5d000000000000000000000000000000000000000000000000000000008152939092169263c6de9d5d9261122f9291600401611935565b600060405180830381600087803b15801561124957600080fd5b505af115801561125d573d6000803e3d6000fd5b50505073ffffffffffffffffffffffffffffffffffffffff85166000908152600560205260408120555061132e565b611294611723565b73ffffffffffffffffffffffffffffffffffffffff8581166000908152600560205260408082205490517fa8016711000000000000000000000000000000000000000000000000000000008152939092169263a8016711926112fb92918890600401611948565b600060405180830381600087803b15801561131557600080fd5b505af1158015611329573d6000803e3d6000fd5b505050505b50505050565b61133c611676565b6002546040517fb3db428b00000000000000000000000000000000000000000000000000000000815273ffffffffffffffffffffffffffffffffffffffff9283169263b3db428b926113989287929091169086906004016118c8565b602060405180830381600087803b1580156113b257600080fd5b505af11580156113c6573d6000803e3d6000fd5b505050506040513d601f19601f820116820180604052508101906113ea9190611857565b611420576040517f08c379a000000000000000000000000000000000000000000000000000000000815260040161058690611b43565b336000908152600360205260408120805483929061143f908490611cf9565b9250508190555080600460008282546114589190611cf9565b909155505073ffffffffffffffffffffffffffffffffffffffff82166000908152600560205260409020541561152e57611490611723565b73ffffffffffffffffffffffffffffffffffffffff8381166000908152600560205260408082205490517ff5428087000000000000000000000000000000000000000000000000000000008152939092169263f5428087926114f792918690600401611948565b600060405180830381600087803b15801561151157600080fd5b505af1158015611525573d6000803e3d6000fd5b50505050611614565b6000611538611723565b73ffffffffffffffffffffffffffffffffffffffff1663583d8616600085856040518463ffffffff1660e01b815260040161157593929190611904565b602060405180830381600087803b15801561158f57600080fd5b505af11580156115a3573d6000803e3d6000fd5b505050506040513d601f19601f820116820180604052508101906115c7919061188f565b336000908152600560205260409020819055905080611612576040517f08c379a000000000000000000000000000000000000000000000000000000000815260040161058690611b0c565b505b5050565b600080546040517fd87fefd200000000000000000000000000000000000000000000000000000000815273ffffffffffffffffffffffffffffffffffffffff9091169063d87fefd290611035906005908690600401611cc6565b3390565b600080546040517f3c9c8f9c00000000000000000000000000000000000000000000000000000000815273ffffffffffffffffffffffffffffffffffffffff90911690633c9c8f9c906116ce90606590600401611cb7565b60206040518083038186803b1580156116e657600080fd5b505afa1580156116fa573d6000803e3d6000fd5b505050506040513d601f19601f8201168201806040525081019061171e9190611797565b905090565b600080546040517f3c9c8f9c00000000000000000000000000000000000000000000000000000000815273ffffffffffffffffffffffffffffffffffffffff90911690633c9c8f9c906116ce90606c90600401611cb7565b60006020828403121561178c578081fd5b81356106b881611dcd565b6000602082840312156117a8578081fd5b81516106b881611dcd565b600080604083850312156117c5578081fd5b82356117d081611dcd565b915060208301356117e081611dcd565b809150509250929050565b600080604083850312156117fd578182fd5b823561180881611dcd565b946020939093013593505050565b60008060006060848603121561182a578081fd5b833561183581611dcd565b925060208401359150604084013561184c81611dcd565b809150509250925092565b600060208284031215611868578081fd5b815180151581146106b8578182fd5b600060208284031215611888578081fd5b5035919050565b6000602082840312156118a0578081fd5b5051919050565b73ffffffffffffffffffffffffffffffffffffffff91909116815260200190565b73ffffffffffffffffffffffffffffffffffffffff9384168152919092166020820152604081019190915260600190565b901515815260200190565b60ff93909316835273ffffffffffffffffffffffffffffffffffffffff919091166020830152604082015260600190565b60ff929092168252602082015260400190565b60ff9390931683526020830191909152604082015260600190565b6020808252602d908201527f6d73672e73656e646572206e6f7420617574686f72697a656420746f2070656e60408201527f616c697a65207374616b65727300000000000000000000000000000000000000606082015260800190565b60208082526026908201527f4f776e61626c653a206e6577206f776e657220697320746865207a65726f206160408201527f6464726573730000000000000000000000000000000000000000000000000000606082015260800190565b60208082526029908201527f496e73756666696369656e74207374616b6520746f2063616c6c206576656e2060408201527f6f6e6520626c6f636b0000000000000000000000000000000000000000000000606082015260800190565b60208082526030908201527f6d73672e73656e646572206e6f7420617574686f72697a656420746f2064656c60408201527f656761746520666f72207374616b657200000000000000000000000000000000606082015260800190565b6020808252818101527f4f776e61626c653a2063616c6c6572206973206e6f7420746865206f776e6572604082015260600190565b6020808252601e908201527f446973747269627574696f6e206973206f766572206f72207061757365640000604082015260600190565b60208082526047908201527f436f756c64206e6f74206465706f736974207374616b652066756e647320287060408201527f657268617073206d616b6520616c6c6f77616e636520746f2066756e6420636f60608201527f6e74726163743f00000000000000000000000000000000000000000000000000608082015260a00190565b60208082526032908201527f496e73756666696369656e742066756e6473202d2d20736f6d657468696e672060408201527f77656e74207265616c6c792077726f6e672e0000000000000000000000000000606082015260800190565b6020808252601d908201527f4e6f7420617574686f72697a656420746f20736f757263652066656573000000604082015260600190565b60208082526031908201527f596f752063616e2774207769746864726177207768696c6520796f752772652060408201527f617574686f72697a6564207374616b6572000000000000000000000000000000606082015260800190565b61ffff91909116815260200190565b61ffff92909216825273ffffffffffffffffffffffffffffffffffffffff16602082015260400190565b90815260200190565b60008219821115611d0c57611d0c611d9e565b500190565b600082611d45577f4e487b710000000000000000000000000000000000000000000000000000000081526012600452602481fd5b500490565b6000817fffffffffffffffffffffffffffffffffffffffffffffffffffffffffffffffff0483118215151615611d8257611d82611d9e565b500290565b600082821015611d9957611d99611d9e565b500390565b7f4e487b7100000000000000000000000000000000000000000000000000000000600052601160045260246000fd5b73ffffffffffffffffffffffffffffffffffffffff811681146109b057600080fdfea26469706673582212200142f8e920d6cd8a7a9d7977dddf9cca76d27be9042e11fbbd5177a96a76329764736f6c63430008010033",
  "linkReferences": {},
  "deployedLinkReferences": {}
}