{
  "_format": "hh-sol-artifact-1",
  "contractName": "Admin",
  "sourceName": "contracts/Admin.sol",
  "abi": [
    {
      "inputs": [
        {
          "internalType": "uint256",
          "name": "_feesPer10k",
          "type": "uint256"
        },
        {
          "internalType": "address",
          "name": "_MFI",
          "type": "address"
        },
        {
          "internalType": "address",
          "name": "_incentiveDistributor",
          "type": "address"
        },
        {
          "internalType": "address",
          "name": "_roles",
          "type": "address"
        }
      ],
      "stateMutability": "nonpayable",
      "type": "constructor"
    },
    {
      "anonymous": false,
      "inputs": [
        {
          "indexed": true,
          "internalType": "address",
          "name": "previousOwner",
          "type": "address"
        },
        {
          "indexed": true,
          "internalType": "address",
          "name": "newOwner",
          "type": "address"
        }
      ],
      "name": "OwnershipTransferred",
      "type": "event"
    },
    {
      "inputs": [],
      "name": "ADMIN",
      "outputs": [
        {
          "internalType": "uint16",
          "name": "",
          "type": "uint16"
        }
      ],
      "stateMutability": "view",
      "type": "function"
    },
    {
      "inputs": [],
      "name": "AUTHORIZED_FUND_TRADER",
      "outputs": [
        {
          "internalType": "uint16",
          "name": "",
          "type": "uint16"
        }
      ],
      "stateMutability": "view",
      "type": "function"
    },
    {
      "inputs": [],
      "name": "BORROWER",
      "outputs": [
        {
          "internalType": "uint16",
          "name": "",
          "type": "uint16"
        }
      ],
      "stateMutability": "view",
      "type": "function"
    },
    {
      "inputs": [],
      "name": "FEE_CONTROLLER",
      "outputs": [
        {
          "internalType": "uint16",
          "name": "",
          "type": "uint16"
        }
      ],
      "stateMutability": "view",
      "type": "function"
    },
    {
      "inputs": [],
      "name": "FEE_SOURCE",
      "outputs": [
        {
          "internalType": "uint16",
          "name": "",
          "type": "uint16"
        }
      ],
      "stateMutability": "view",
      "type": "function"
    },
    {
      "inputs": [],
      "name": "FUND",
      "outputs": [
        {
          "internalType": "uint16",
          "name": "",
          "type": "uint16"
        }
      ],
      "stateMutability": "view",
      "type": "function"
    },
    {
      "inputs": [],
      "name": "INCENTIVE_REPORTER",
      "outputs": [
        {
          "internalType": "uint16",
          "name": "",
          "type": "uint16"
        }
      ],
      "stateMutability": "view",
      "type": "function"
    },
    {
      "inputs": [],
      "name": "LENDING",
      "outputs": [
        {
          "internalType": "uint16",
          "name": "",
          "type": "uint16"
        }
      ],
      "stateMutability": "view",
      "type": "function"
    },
    {
      "inputs": [],
      "name": "LIQUIDATOR",
      "outputs": [
        {
          "internalType": "uint16",
          "name": "",
          "type": "uint16"
        }
      ],
      "stateMutability": "view",
      "type": "function"
    },
    {
      "inputs": [],
      "name": "MARGIN_CALLER",
      "outputs": [
        {
          "internalType": "uint16",
          "name": "",
          "type": "uint16"
        }
      ],
      "stateMutability": "view",
      "type": "function"
    },
    {
      "inputs": [],
      "name": "MARGIN_TRADER",
      "outputs": [
        {
          "internalType": "uint16",
          "name": "",
          "type": "uint16"
        }
      ],
      "stateMutability": "view",
      "type": "function"
    },
    {
      "inputs": [],
      "name": "MARGIN_TRADING",
      "outputs": [
        {
          "internalType": "uint16",
          "name": "",
          "type": "uint16"
        }
      ],
      "stateMutability": "view",
      "type": "function"
    },
    {
      "inputs": [],
      "name": "PRICE_CONTROLLER",
      "outputs": [
        {
          "internalType": "uint16",
          "name": "",
          "type": "uint16"
        }
      ],
      "stateMutability": "view",
      "type": "function"
    },
    {
      "inputs": [],
      "name": "ROUTER",
      "outputs": [
        {
          "internalType": "uint16",
          "name": "",
          "type": "uint16"
        }
      ],
      "stateMutability": "view",
      "type": "function"
    },
    {
      "inputs": [],
      "name": "TOKEN_ACTIVATOR",
      "outputs": [
        {
          "internalType": "uint16",
          "name": "",
          "type": "uint16"
        }
      ],
      "stateMutability": "view",
      "type": "function"
    },
    {
      "inputs": [],
      "name": "WITHDRAWER",
      "outputs": [
        {
          "internalType": "uint16",
          "name": "",
          "type": "uint16"
        }
      ],
      "stateMutability": "view",
      "type": "function"
    },
    {
      "inputs": [
        {
          "internalType": "address",
          "name": "forStaker",
          "type": "address"
        },
        {
          "internalType": "address",
          "name": "delegate",
          "type": "address"
        }
      ],
      "name": "addDelegate",
      "outputs": [],
      "stateMutability": "nonpayable",
      "type": "function"
    },
    {
      "inputs": [
        {
          "internalType": "address",
          "name": "token",
          "type": "address"
        },
        {
          "internalType": "uint256",
          "name": "amount",
          "type": "uint256"
        }
      ],
      "name": "addTradingFees",
      "outputs": [
        {
          "internalType": "uint256",
          "name": "fees",
          "type": "uint256"
        }
      ],
      "stateMutability": "nonpayable",
      "type": "function"
    },
    {
      "inputs": [
        {
          "internalType": "address",
          "name": "",
          "type": "address"
        }
      ],
      "name": "claimIds",
      "outputs": [
        {
          "internalType": "uint256",
          "name": "",
          "type": "uint256"
        }
      ],
      "stateMutability": "view",
      "type": "function"
    },
    {
      "inputs": [
        {
          "internalType": "address",
          "name": "",
          "type": "address"
        }
      ],
      "name": "collectedFees",
      "outputs": [
        {
          "internalType": "uint256",
          "name": "",
          "type": "uint256"
        }
      ],
      "stateMutability": "view",
      "type": "function"
    },
    {
      "inputs": [
        {
          "internalType": "uint256",
          "name": "amount",
          "type": "uint256"
        }
      ],
      "name": "depositMaintenanceStake",
      "outputs": [],
      "stateMutability": "nonpayable",
      "type": "function"
    },
    {
      "inputs": [
        {
          "internalType": "uint256",
          "name": "amount",
          "type": "uint256"
        }
      ],
      "name": "depositStake",
      "outputs": [],
      "stateMutability": "nonpayable",
      "type": "function"
    },
    {
      "inputs": [
        {
          "internalType": "address",
          "name": "caller",
          "type": "address"
        }
      ],
      "name": "isAuthorizedStaker",
      "outputs": [
        {
          "internalType": "bool",
          "name": "isAuthorized",
          "type": "bool"
        }
      ],
      "stateMutability": "nonpayable",
      "type": "function"
    },
    {
      "inputs": [
        {
          "internalType": "address",
          "name": "",
          "type": "address"
        },
        {
          "internalType": "address",
          "name": "",
          "type": "address"
        }
      ],
      "name": "maintenanceDelegateTo",
      "outputs": [
        {
          "internalType": "bool",
          "name": "",
          "type": "bool"
        }
      ],
      "stateMutability": "view",
      "type": "function"
    },
    {
      "inputs": [],
      "name": "maintenanceStakePerBlock",
      "outputs": [
        {
          "internalType": "uint256",
          "name": "",
          "type": "uint256"
        }
      ],
      "stateMutability": "view",
      "type": "function"
    },
    {
      "inputs": [
        {
          "internalType": "address",
          "name": "",
          "type": "address"
        }
      ],
      "name": "maintenanceStakes",
      "outputs": [
        {
          "internalType": "uint256",
          "name": "stake",
          "type": "uint256"
        },
        {
          "internalType": "address",
          "name": "nextStaker",
          "type": "address"
        }
      ],
      "stateMutability": "view",
      "type": "function"
    },
    {
      "inputs": [],
      "name": "owner",
      "outputs": [
        {
          "internalType": "address",
          "name": "",
          "type": "address"
        }
      ],
      "stateMutability": "view",
      "type": "function"
    },
    {
      "inputs": [
        {
          "internalType": "address",
          "name": "forStaker",
          "type": "address"
        },
        {
          "internalType": "address",
          "name": "delegate",
          "type": "address"
        }
      ],
      "name": "removeDelegate",
      "outputs": [],
      "stateMutability": "nonpayable",
      "type": "function"
    },
    {
      "inputs": [],
      "name": "renounceOwnership",
      "outputs": [],
      "stateMutability": "nonpayable",
      "type": "function"
    },
    {
      "inputs": [],
      "name": "roles",
      "outputs": [
        {
          "internalType": "contract Roles",
          "name": "",
          "type": "address"
        }
      ],
      "stateMutability": "view",
      "type": "function"
    },
    {
      "inputs": [
        {
          "internalType": "uint256",
          "name": "amount",
          "type": "uint256"
        }
      ],
      "name": "setMaintenanceStakePerBlock",
      "outputs": [],
      "stateMutability": "nonpayable",
      "type": "function"
    },
    {
      "inputs": [
        {
          "internalType": "address",
          "name": "",
          "type": "address"
        }
      ],
      "name": "stakes",
      "outputs": [
        {
          "internalType": "uint256",
          "name": "",
          "type": "uint256"
        }
      ],
      "stateMutability": "view",
      "type": "function"
    },
    {
      "inputs": [
        {
          "internalType": "address",
          "name": "token",
          "type": "address"
        },
        {
          "internalType": "uint256",
          "name": "amount",
          "type": "uint256"
        }
      ],
      "name": "subtractTradingFees",
      "outputs": [
        {
          "internalType": "uint256",
          "name": "fees",
          "type": "uint256"
        }
      ],
      "stateMutability": "nonpayable",
      "type": "function"
    },
    {
      "inputs": [],
      "name": "totalStakes",
      "outputs": [
        {
          "internalType": "uint256",
          "name": "",
          "type": "uint256"
        }
      ],
      "stateMutability": "view",
      "type": "function"
    },
    {
      "inputs": [
        {
          "internalType": "address",
          "name": "newOwner",
          "type": "address"
        }
      ],
      "name": "transferOwnership",
      "outputs": [],
      "stateMutability": "nonpayable",
      "type": "function"
    },
    {
      "inputs": [
        {
          "internalType": "uint256",
          "name": "amount",
          "type": "uint256"
        }
      ],
      "name": "withdrawStake",
      "outputs": [],
      "stateMutability": "nonpayable",
      "type": "function"
    }
  ],
  "bytecode": "0x60806040523480156200001157600080fd5b5060405162001beb38038062001beb83398101604081905262000034916200010c565b600080546001600160a01b0319166001600160a01b03831617815562000059620000eb565b600180546001600160a01b0319166001600160a01b038316908117909155604051919250906000907f8be0079c531659141344cd1fd0a4f28419497f9722a3daafe3b4186f6b6457e0908290a35050600280546001600160a01b03199081166001600160a01b0394851617909155600793909355670de0b6b3a76400006009556006805490931691161790556200015f565b3390565b80516001600160a01b03811681146200010757600080fd5b919050565b6000806000806080858703121562000122578384fd5b845193506200013460208601620000ef565b92506200014460408601620000ef565b91506200015460608601620000ef565b905092959194509250565b611a7c806200016f6000396000f3fe608060405234801561001057600080fd5b506004361061025c5760003560e01c80636694198411610145578063a9cc0536116100bd578063d5d7ed7f1161008c578063dc5c66f911610071578063dc5c66f91461043a578063e909ebfa1461044d578063f2fde38b146104605761025c565b8063d5d7ed7f1461041f578063d8715ca7146104275761025c565b8063a9cc0536146103f4578063bf9befb1146103fc578063cacf8d4514610404578063cb82cc8f1461040c5761025c565b806381ca6600116101145780638da5cb5b116100f95780638da5cb5b146103dc578063a0098d69146103e4578063a94c7c34146103ec5761025c565b806381ca6600146103cc57806383a49c7c146103d45761025c565b8063669419841461039657806367cbf42d1461039e578063715018a6146103b15780637b23cbce146103b95761025c565b80632a0acc6a116101d85780633f0e9edf116101a757806346b887961161018c57806346b887961461037e57806348fb27b8146103865780635c275a391461038e5761025c565b80633f0e9edf1461034a578063423595e81461035d5761025c565b80632a0acc6a1461031d5780632fe94def1461032557806332fe7b261461032d578063392f5f64146103355761025c565b806316934fc41161022f5780631cead9a7116102145780631cead9a7146102e4578063219f951d146102f757806325d5971f1461030a5761025c565b806316934fc4146102c95780631bc5d81d146102dc5761025c565b8063020d308d14610261578063055cfe5314610276578063065d570f1461029f5780630ad69150146102b4575b600080fd5b61027461026f3660046114e1565b610473565b005b6102896102843660046114e1565b610562565b60405161029691906115e6565b60405180910390f35b6102a7610582565b60405161029691906118ea565b6102bc610587565b6040516102969190611923565b6102bc6102d73660046114a9565b61058d565b6102a761059f565b6102bc6102f23660046114a9565b6105a4565b610274610305366004611564565b6105b6565b610274610318366004611564565b6106b1565b6102a76106bb565b6102a76106c0565b6102a76106c5565b61033d6106ca565b6040516102969190611594565b6102bc610358366004611519565b6106e6565b61037061036b3660046114a9565b610794565b60405161029692919061192c565b6102a76107c3565b6102a76107c8565b6102a76107cd565b6102a76107d2565b6102bc6103ac366004611519565b6107d7565b610274610829565b6102896103c73660046114a9565b61090b565b6102a761098b565b6102a7610990565b61033d610995565b6102a76109b1565b6102a76109b6565b6102a76109bb565b6102bc6109c0565b6102a76109c6565b61027461041a366004611564565b6109cb565b6102a76109d5565b610274610435366004611564565b6109da565b6102bc6104483660046114a9565b610a52565b61027461045b3660046114e1565b610a64565b61027461046e3660046114a9565b610b4d565b3373ffffffffffffffffffffffffffffffffffffffff831614806104c7575073ffffffffffffffffffffffffffffffffffffffff82166000908152600b6020908152604080832033845290915290205460ff165b610506576040517f08c379a00000000000000000000000000000000000000000000000000000000081526004016104fd9061170a565b60405180910390fd5b73ffffffffffffffffffffffffffffffffffffffff9182166000908152600b60209081526040808320939094168252919091522080547fffffffffffffffffffffffffffffffffffffffffffffffffffffffffffffff00169055565b600b60209081526000928352604080842090915290825290205460ff1681565b600381565b60095481565b60036020526000908152604090205481565b600881565b60086020526000908152604090205481565b600954336000908152600a60205260409020546105d39083611950565b101561060b576040517f08c379a00000000000000000000000000000000000000000000000000000000081526004016104fd906116ad565b6106153382610c9b565b336000908152600a60205260409020546106ae57336000908152600a60205260409020819055610643610f8f565b336000818152600a60205260408082206001908101805473ffffffffffffffffffffffffffffffffffffffff9687167fffffffffffffffffffffffff000000000000000000000000000000000000000091821617909155600d54909516835291200180549092161790555b50565b6106ae33826110a9565b606b81565b606981565b606781565b60005473ffffffffffffffffffffffffffffffffffffffff1681565b60006106f133611348565b610727576040517f08c379a00000000000000000000000000000000000000000000000000000000081526004016104fd906118b3565b60075461073690612710611950565b8260075461074491906119a1565b61074e9190611968565b73ffffffffffffffffffffffffffffffffffffffff8416600090815260086020526040812080549293508392909190610788908490611950565b90915550909392505050565b600a602052600090815260409020805460019091015473ffffffffffffffffffffffffffffffffffffffff1682565b600681565b606681565b606581565b600181565b60006107e233611348565b610818576040517f08c379a00000000000000000000000000000000000000000000000000000000081526004016104fd906118b3565b6127108260075461074491906119a1565b6108316113f8565b73ffffffffffffffffffffffffffffffffffffffff1661084f610995565b73ffffffffffffffffffffffffffffffffffffffff161461089c576040517f08c379a00000000000000000000000000000000000000000000000000000000081526004016104fd90611767565b60015460405160009173ffffffffffffffffffffffffffffffffffffffff16907f8be0079c531659141344cd1fd0a4f28419497f9722a3daafe3b4186f6b6457e0908390a3600180547fffffffffffffffffffffffff0000000000000000000000000000000000000000169055565b600080610916610f8f565b90508273ffffffffffffffffffffffffffffffffffffffff168173ffffffffffffffffffffffffffffffffffffffff161480610984575073ffffffffffffffffffffffffffffffffffffffff8082166000908152600b602090815260408083209387168352929052205460ff165b9392505050565b606a81565b600981565b60015473ffffffffffffffffffffffffffffffffffffffff1690565b600281565b600581565b606881565b60045481565b600481565b6106ae3382610c9b565b600781565b6109e26113f8565b73ffffffffffffffffffffffffffffffffffffffff16610a00610995565b73ffffffffffffffffffffffffffffffffffffffff1614610a4d576040517f08c379a00000000000000000000000000000000000000000000000000000000081526004016104fd90611767565b600955565b60056020526000908152604090205481565b3373ffffffffffffffffffffffffffffffffffffffff83161480610ab8575073ffffffffffffffffffffffffffffffffffffffff82166000908152600b6020908152604080832033845290915290205460ff165b610aee576040517f08c379a00000000000000000000000000000000000000000000000000000000081526004016104fd9061170a565b73ffffffffffffffffffffffffffffffffffffffff9182166000908152600b60209081526040808320939094168252919091522080547fffffffffffffffffffffffffffffffffffffffffffffffffffffffffffffff00166001179055565b610b556113f8565b73ffffffffffffffffffffffffffffffffffffffff16610b73610995565b73ffffffffffffffffffffffffffffffffffffffff1614610bc0576040517f08c379a00000000000000000000000000000000000000000000000000000000081526004016104fd90611767565b73ffffffffffffffffffffffffffffffffffffffff8116610c0d576040517f08c379a00000000000000000000000000000000000000000000000000000000081526004016104fd90611650565b60015460405173ffffffffffffffffffffffffffffffffffffffff8084169216907f8be0079c531659141344cd1fd0a4f28419497f9722a3daafe3b4186f6b6457e090600090a3600180547fffffffffffffffffffffffff00000000000000000000000000000000000000001673ffffffffffffffffffffffffffffffffffffffff92909216919091179055565b610ca36113fc565b6002546040517fb3db428b00000000000000000000000000000000000000000000000000000000815273ffffffffffffffffffffffffffffffffffffffff9283169263b3db428b92610cff9287929091169086906004016115b5565b602060405180830381600087803b158015610d1957600080fd5b505af1158015610d2d573d6000803e3d6000fd5b505050506040513d601f19601f82011682018060405250810190610d519190611544565b610d87576040517f08c379a00000000000000000000000000000000000000000000000000000000081526004016104fd906117d3565b3360009081526003602052604081208054839290610da6908490611950565b925050819055508060046000828254610dbf9190611950565b909155505073ffffffffffffffffffffffffffffffffffffffff821660009081526005602052604090205415610e915760065473ffffffffffffffffffffffffffffffffffffffff8381166000908152600560205260408082205490517ff5428087000000000000000000000000000000000000000000000000000000008152929093169263f542808792610e5a9291908690600401611635565b600060405180830381600087803b158015610e7457600080fd5b505af1158015610e88573d6000803e3d6000fd5b50505050610f8b565b6006546040517f583d861600000000000000000000000000000000000000000000000000000000815260009173ffffffffffffffffffffffffffffffffffffffff169063583d861690610eec908490879087906004016115f1565b602060405180830381600087803b158015610f0657600080fd5b505af1158015610f1a573d6000803e3d6000fd5b505050506040513d601f19601f82011682018060405250810190610f3e919061157c565b336000908152600560205260409020819055905080610f89576040517f08c379a00000000000000000000000000000000000000000000000000000000081526004016104fd9061179c565b505b5050565b60005b600c5473ffffffffffffffffffffffffffffffffffffffff166000908152600a6020526040902054600954600e54610fca90436119de565b610fd491906119a1565b1061108c57600954600c5473ffffffffffffffffffffffffffffffffffffffff166000908152600a602052604090205461100e9190611968565b600e600082825461101f9190611950565b9091555050600c8054600d80547fffffffffffffffffffffffff000000000000000000000000000000000000000090811673ffffffffffffffffffffffffffffffffffffffff8085169182179093556000908152600a602052604090206001015492169116179055610f92565b50600c5473ffffffffffffffffffffffffffffffffffffffff1690565b73ffffffffffffffffffffffffffffffffffffffff8216600090815260036020526040812080549083905560048054919284926110e79084906119de565b909155506110f590506113fc565b6002546040517fd9caed1200000000000000000000000000000000000000000000000000000000815273ffffffffffffffffffffffffffffffffffffffff9283169263d9caed129261115092911690879087906004016115b5565b602060405180830381600087803b15801561116a57600080fd5b505af115801561117e573d6000803e3d6000fd5b505050506040513d601f19601f820116820180604052508101906111a29190611544565b6111d8576040517f08c379a00000000000000000000000000000000000000000000000000000000081526004016104fd90611856565b818114156112a65760065473ffffffffffffffffffffffffffffffffffffffff8481166000908152600560205260408082205490517fc6de9d5d000000000000000000000000000000000000000000000000000000008152929093169263c6de9d5d92611249929190600401611622565b600060405180830381600087803b15801561126357600080fd5b505af1158015611277573d6000803e3d6000fd5b50505073ffffffffffffffffffffffffffffffffffffffff841660009081526005602052604081205550610f89565b60065473ffffffffffffffffffffffffffffffffffffffff8481166000908152600560205260408082205490517fa8016711000000000000000000000000000000000000000000000000000000008152929093169263a8016711926113119291908790600401611635565b600060405180830381600087803b15801561132b57600080fd5b505af115801561133f573d6000803e3d6000fd5b50505050505050565b600080546040517fd87fefd200000000000000000000000000000000000000000000000000000000815273ffffffffffffffffffffffffffffffffffffffff9091169063d87fefd2906113a29060059086906004016118f9565b60206040518083038186803b1580156113ba57600080fd5b505afa1580156113ce573d6000803e3d6000fd5b505050506040513d601f19601f820116820180604052508101906113f29190611544565b92915050565b3390565b600080546040517f3c9c8f9c00000000000000000000000000000000000000000000000000000000815273ffffffffffffffffffffffffffffffffffffffff90911690633c9c8f9c90611454906065906004016118ea565b60206040518083038186803b15801561146c57600080fd5b505afa158015611480573d6000803e3d6000fd5b505050506040513d601f19601f820116820180604052508101906114a491906114c5565b905090565b6000602082840312156114ba578081fd5b813561098481611a24565b6000602082840312156114d6578081fd5b815161098481611a24565b600080604083850312156114f3578081fd5b82356114fe81611a24565b9150602083013561150e81611a24565b809150509250929050565b6000806040838503121561152b578182fd5b823561153681611a24565b946020939093013593505050565b600060208284031215611555578081fd5b81518015158114610984578182fd5b600060208284031215611575578081fd5b5035919050565b60006020828403121561158d578081fd5b5051919050565b73ffffffffffffffffffffffffffffffffffffffff91909116815260200190565b73ffffffffffffffffffffffffffffffffffffffff9384168152919092166020820152604081019190915260600190565b901515815260200190565b60ff93909316835273ffffffffffffffffffffffffffffffffffffffff919091166020830152604082015260600190565b60ff929092168252602082015260400190565b60ff9390931683526020830191909152604082015260600190565b60208082526026908201527f4f776e61626c653a206e6577206f776e657220697320746865207a65726f206160408201527f6464726573730000000000000000000000000000000000000000000000000000606082015260800190565b60208082526029908201527f496e73756666696369656e74207374616b6520746f2063616c6c206576656e2060408201527f6f6e6520626c6f636b0000000000000000000000000000000000000000000000606082015260800190565b60208082526030908201527f6d73672e73656e646572206e6f7420617574686f72697a656420746f2064656c60408201527f656761746520666f72207374616b657200000000000000000000000000000000606082015260800190565b6020808252818101527f4f776e61626c653a2063616c6c6572206973206e6f7420746865206f776e6572604082015260600190565b6020808252601e908201527f446973747269627574696f6e206973206f766572206f72207061757365640000604082015260600190565b60208082526047908201527f436f756c64206e6f74206465706f736974207374616b652066756e647320287060408201527f657268617073206d616b6520616c6c6f77616e636520746f2066756e6420636f60608201527f6e74726163743f00000000000000000000000000000000000000000000000000608082015260a00190565b60208082526032908201527f496e73756666696369656e742066756e6473202d2d20736f6d657468696e672060408201527f77656e74207265616c6c792077726f6e672e0000000000000000000000000000606082015260800190565b6020808252601d908201527f4e6f7420617574686f72697a656420746f20736f757263652066656573000000604082015260600190565b61ffff91909116815260200190565b61ffff92909216825273ffffffffffffffffffffffffffffffffffffffff16602082015260400190565b90815260200190565b91825273ffffffffffffffffffffffffffffffffffffffff16602082015260400190565b60008219821115611963576119636119f5565b500190565b60008261199c577f4e487b710000000000000000000000000000000000000000000000000000000081526012600452602481fd5b500490565b6000817fffffffffffffffffffffffffffffffffffffffffffffffffffffffffffffffff04831182151516156119d9576119d96119f5565b500290565b6000828210156119f0576119f06119f5565b500390565b7f4e487b7100000000000000000000000000000000000000000000000000000000600052601160045260246000fd5b73ffffffffffffffffffffffffffffffffffffffff811681146106ae57600080fdfea264697066735822122025d5e2a3d7164f1ad91a7ed108d17ff1e776cc233dfc046de2f5b3571a2ebd9364736f6c63430008010033",
  "linkReferences": {},
  "deployedLinkReferences": {}
}