{
  "_format": "hh-sol-artifact-1",
  "contractName": "CrossMarginTrading",
  "sourceName": "contracts/CrossMarginTrading.sol",
  "abi": [
    {
      "inputs": [
        {
          "internalType": "address",
          "name": "_roles",
          "type": "address"
        }
      ],
      "stateMutability": "nonpayable",
      "type": "constructor"
    },
    {
      "anonymous": false,
      "inputs": [
        {
          "indexed": false,
          "internalType": "uint256",
          "name": "amount",
          "type": "uint256"
        }
      ],
      "name": "LiquidationShortfall",
      "type": "event"
    },
    {
      "anonymous": false,
      "inputs": [
        {
          "indexed": true,
          "internalType": "address",
          "name": "previousOwner",
          "type": "address"
        },
        {
          "indexed": true,
          "internalType": "address",
          "name": "newOwner",
          "type": "address"
        }
      ],
      "name": "OwnershipTransferred",
      "type": "event"
    },
    {
      "inputs": [],
      "name": "AUTHORIZED_FUND_TRADER",
      "outputs": [
        {
          "internalType": "uint16",
          "name": "",
          "type": "uint16"
        }
      ],
      "stateMutability": "view",
      "type": "function"
    },
    {
      "inputs": [],
      "name": "BORROWER",
      "outputs": [
        {
          "internalType": "uint16",
          "name": "",
          "type": "uint16"
        }
      ],
      "stateMutability": "view",
      "type": "function"
    },
    {
      "inputs": [],
      "name": "FEE_CONTROLLER",
      "outputs": [
        {
          "internalType": "uint16",
          "name": "",
          "type": "uint16"
        }
      ],
      "stateMutability": "view",
      "type": "function"
    },
    {
      "inputs": [],
      "name": "FEE_SOURCE",
      "outputs": [
        {
          "internalType": "uint16",
          "name": "",
          "type": "uint16"
        }
      ],
      "stateMutability": "view",
      "type": "function"
    },
    {
      "inputs": [],
      "name": "FUND",
      "outputs": [
        {
          "internalType": "uint16",
          "name": "",
          "type": "uint16"
        }
      ],
      "stateMutability": "view",
      "type": "function"
    },
    {
      "inputs": [],
      "name": "INCENTIVE_REPORTER",
      "outputs": [
        {
          "internalType": "uint16",
          "name": "",
          "type": "uint16"
        }
      ],
      "stateMutability": "view",
      "type": "function"
    },
    {
      "inputs": [],
      "name": "LENDING",
      "outputs": [
        {
          "internalType": "uint16",
          "name": "",
          "type": "uint16"
        }
      ],
      "stateMutability": "view",
      "type": "function"
    },
    {
      "inputs": [],
      "name": "LIQUIDATOR",
      "outputs": [
        {
          "internalType": "uint16",
          "name": "",
          "type": "uint16"
        }
      ],
      "stateMutability": "view",
      "type": "function"
    },
    {
      "inputs": [],
      "name": "MARGIN_CALLER",
      "outputs": [
        {
          "internalType": "uint16",
          "name": "",
          "type": "uint16"
        }
      ],
      "stateMutability": "view",
      "type": "function"
    },
    {
      "inputs": [],
      "name": "MARGIN_TRADER",
      "outputs": [
        {
          "internalType": "uint16",
          "name": "",
          "type": "uint16"
        }
      ],
      "stateMutability": "view",
      "type": "function"
    },
    {
      "inputs": [],
      "name": "MARGIN_TRADING",
      "outputs": [
        {
          "internalType": "uint16",
          "name": "",
          "type": "uint16"
        }
      ],
      "stateMutability": "view",
      "type": "function"
    },
    {
      "inputs": [],
      "name": "PRICE_CONTROLLER",
      "outputs": [
        {
          "internalType": "uint16",
          "name": "",
          "type": "uint16"
        }
      ],
      "stateMutability": "view",
      "type": "function"
    },
    {
      "inputs": [],
      "name": "ROUTER",
      "outputs": [
        {
          "internalType": "uint16",
          "name": "",
          "type": "uint16"
        }
      ],
      "stateMutability": "view",
      "type": "function"
    },
    {
      "inputs": [],
      "name": "TOKEN_ACTIVATOR",
      "outputs": [
        {
          "internalType": "uint16",
          "name": "",
          "type": "uint16"
        }
      ],
      "stateMutability": "view",
      "type": "function"
    },
    {
      "inputs": [],
      "name": "WITHDRAWER",
      "outputs": [
        {
          "internalType": "uint16",
          "name": "",
          "type": "uint16"
        }
      ],
      "stateMutability": "view",
      "type": "function"
    },
    {
      "inputs": [
        {
          "internalType": "address[]",
          "name": "liquidationCandidates",
          "type": "address[]"
        },
        {
          "internalType": "address",
          "name": "currentCaller",
          "type": "address"
        },
        {
          "internalType": "bool",
          "name": "isAuthorized",
          "type": "bool"
        }
      ],
      "name": "callMargin",
      "outputs": [
        {
          "internalType": "uint256",
          "name": "marginCallerCut",
          "type": "uint256"
        }
      ],
      "stateMutability": "nonpayable",
      "type": "function"
    },
    {
      "inputs": [
        {
          "internalType": "address",
          "name": "trader",
          "type": "address"
        }
      ],
      "name": "getBorrowAmounts",
      "outputs": [
        {
          "internalType": "address[]",
          "name": "borrowTokens",
          "type": "address[]"
        },
        {
          "internalType": "uint256[]",
          "name": "borrowAmounts",
          "type": "uint256[]"
        }
      ],
      "stateMutability": "view",
      "type": "function"
    },
    {
      "inputs": [
        {
          "internalType": "address",
          "name": "trader",
          "type": "address"
        }
      ],
      "name": "getHoldingAmounts",
      "outputs": [
        {
          "internalType": "address[]",
          "name": "holdingTokens",
          "type": "address[]"
        },
        {
          "internalType": "uint256[]",
          "name": "holdingAmounts",
          "type": "uint256[]"
        }
      ],
      "stateMutability": "view",
      "type": "function"
    },
    {
      "inputs": [
        {
          "internalType": "address",
          "name": "trader",
          "type": "address"
        },
        {
          "internalType": "address",
          "name": "token",
          "type": "address"
        },
        {
          "internalType": "uint256",
          "name": "amount",
          "type": "uint256"
        }
      ],
      "name": "getTradeBorrowAmount",
      "outputs": [
        {
          "internalType": "uint256",
          "name": "borrowAmount",
          "type": "uint256"
        }
      ],
      "stateMutability": "view",
      "type": "function"
    },
    {
      "inputs": [],
      "name": "leverage",
      "outputs": [
        {
          "internalType": "uint256",
          "name": "",
          "type": "uint256"
        }
      ],
      "stateMutability": "view",
      "type": "function"
    },
    {
      "inputs": [],
      "name": "liquidationThresholdPercent",
      "outputs": [
        {
          "internalType": "uint256",
          "name": "",
          "type": "uint256"
        }
      ],
      "stateMutability": "view",
      "type": "function"
    },
    {
      "inputs": [],
      "name": "owner",
      "outputs": [
        {
          "internalType": "address",
          "name": "",
          "type": "address"
        }
      ],
      "stateMutability": "view",
      "type": "function"
    },
    {
      "inputs": [
        {
          "internalType": "address",
          "name": "trader",
          "type": "address"
        },
        {
          "internalType": "address",
          "name": "borrowToken",
          "type": "address"
        },
        {
          "internalType": "uint256",
          "name": "borrowAmount",
          "type": "uint256"
        }
      ],
      "name": "registerBorrow",
      "outputs": [],
      "stateMutability": "nonpayable",
      "type": "function"
    },
    {
      "inputs": [
        {
          "internalType": "address",
          "name": "trader",
          "type": "address"
        },
        {
          "internalType": "address",
          "name": "token",
          "type": "address"
        },
        {
          "internalType": "uint256",
          "name": "depositAmount",
          "type": "uint256"
        }
      ],
      "name": "registerDeposit",
      "outputs": [
        {
          "internalType": "uint256",
          "name": "extinguishableDebt",
          "type": "uint256"
        }
      ],
      "stateMutability": "nonpayable",
      "type": "function"
    },
    {
      "inputs": [
        {
          "internalType": "address",
          "name": "trader",
          "type": "address"
        },
        {
          "internalType": "address",
          "name": "tokenFrom",
          "type": "address"
        },
        {
          "internalType": "address",
          "name": "tokenTo",
          "type": "address"
        },
        {
          "internalType": "uint256",
          "name": "inAmount",
          "type": "uint256"
        },
        {
          "internalType": "uint256",
          "name": "outAmount",
          "type": "uint256"
        }
      ],
      "name": "registerTradeAndBorrow",
      "outputs": [
        {
          "internalType": "uint256",
          "name": "extinguishableDebt",
          "type": "uint256"
        },
        {
          "internalType": "uint256",
          "name": "borrowAmount",
          "type": "uint256"
        }
      ],
      "stateMutability": "nonpayable",
      "type": "function"
    },
    {
      "inputs": [
        {
          "internalType": "address",
          "name": "trader",
          "type": "address"
        },
        {
          "internalType": "address",
          "name": "withdrawToken",
          "type": "address"
        },
        {
          "internalType": "uint256",
          "name": "withdrawAmount",
          "type": "uint256"
        }
      ],
      "name": "registerWithdrawal",
      "outputs": [],
      "stateMutability": "nonpayable",
      "type": "function"
    },
    {
      "inputs": [],
      "name": "renounceOwnership",
      "outputs": [],
      "stateMutability": "nonpayable",
      "type": "function"
    },
    {
      "inputs": [],
      "name": "roles",
      "outputs": [
        {
          "internalType": "contract Roles",
          "name": "",
          "type": "address"
        }
      ],
      "stateMutability": "view",
      "type": "function"
    },
    {
      "inputs": [
        {
          "internalType": "uint256",
          "name": "_leverage",
          "type": "uint256"
        }
      ],
      "name": "setLeverage",
      "outputs": [],
      "stateMutability": "nonpayable",
      "type": "function"
    },
    {
      "inputs": [
        {
          "internalType": "uint256",
          "name": "threshold",
          "type": "uint256"
        }
      ],
      "name": "setLiquidationThresholdPercent",
      "outputs": [],
      "stateMutability": "nonpayable",
      "type": "function"
    },
    {
      "inputs": [
        {
          "internalType": "address",
          "name": "token",
          "type": "address"
        },
        {
          "internalType": "uint256",
          "name": "cap",
          "type": "uint256"
        }
      ],
      "name": "setTokenCap",
      "outputs": [],
      "stateMutability": "nonpayable",
      "type": "function"
    },
    {
      "inputs": [
        {
          "internalType": "address",
          "name": "",
          "type": "address"
        }
      ],
      "name": "tokenCaps",
      "outputs": [
        {
          "internalType": "uint256",
          "name": "",
          "type": "uint256"
        }
      ],
      "stateMutability": "view",
      "type": "function"
    },
    {
      "inputs": [
        {
          "internalType": "address",
          "name": "",
          "type": "address"
        }
      ],
      "name": "totalLong",
      "outputs": [
        {
          "internalType": "uint256",
          "name": "",
          "type": "uint256"
        }
      ],
      "stateMutability": "view",
      "type": "function"
    },
    {
      "inputs": [
        {
          "internalType": "address",
          "name": "",
          "type": "address"
        }
      ],
      "name": "totalShort",
      "outputs": [
        {
          "internalType": "uint256",
          "name": "",
          "type": "uint256"
        }
      ],
      "stateMutability": "view",
      "type": "function"
    },
    {
      "inputs": [
        {
          "internalType": "address",
          "name": "newOwner",
          "type": "address"
        }
      ],
      "name": "transferOwnership",
      "outputs": [],
      "stateMutability": "nonpayable",
      "type": "function"
    }
  ],
  "bytecode": "0x60806040526050600d553480156200001657600080fd5b5060405162003c6738038062003c678339810160408190526200003991620000bc565b600080546001600160a01b0319166001600160a01b0383161781556200005e620000b8565b600180546001600160a01b0319166001600160a01b038316908117909155604051919250906000907f8be0079c531659141344cd1fd0a4f28419497f9722a3daafe3b4186f6b6457e0908290a350506014600355620000ec565b3390565b600060208284031215620000ce578081fd5b81516001600160a01b0381168114620000e5578182fd5b9392505050565b613b6b80620000fc6000396000f3fe608060405234801561001057600080fd5b50600436106102415760003560e01c80636612ce3511610145578063a94c7c34116100bd578063d0eb66531161008c578063d5d7ed7f11610071578063d5d7ed7f14610423578063e0f3871f1461042b578063f2fde38b1461043e57610241565b8063d0eb6653146103fd578063d510c5351461041057610241565b8063a94c7c34146103d2578063a9cc0536146103da578063bc44dcbc146103e2578063cacf8d45146103f557610241565b806381ca6600116101145780638da5cb5b116100f95780638da5cb5b146103af57806395f23a62146103b7578063a0098d69146103ca57610241565b806381ca66001461039f57806383a49c7c146103a757610241565b80636612ce3514610369578063669419841461037c578063715018a61461038457806379575b231461038c57610241565b806332fe7b26116101d857806346b88796116101a7578063498d55eb1161018c578063498d55eb1461033b57806352a664d91461034e5780635c275a391461036157610241565b806346b887961461032b57806348fb27b81461033357610241565b806332fe7b26146102cc5780633500aa0b146102d4578063392f5f64146102f5578063409fdb721461030a57610241565b806320c271261161021457806320c27126146102945780632c86d98e146102b45780632fe94def146102bc578063320d2fa0146102c457610241565b8063065d570f1461024657806316317e7e146102645780631bc5d81d146102795780631d47e4a314610281575b600080fd5b61024e610451565b60405161025b919061394d565b60405180910390f35b610277610272366004613464565b610456565b005b61024e6104d7565b61027761028f366004613317565b6104dc565b6102a76102a236600461323e565b610544565b60405161025b9190613986565b6102a7610556565b61024e61055c565b6102a7610561565b61024e610567565b6102e76102e236600461327d565b61056c565b60405161025b9291906139bb565b6102fd610880565b60405161025b9190613494565b61031d61031836600461323e565b61089c565b60405161025b92919061350c565b61024e610a92565b61024e610a97565b6102776103493660046132d7565b610a9c565b6102a761035c3660046132d7565b610c2b565b61024e610df0565b6102a76103773660046132d7565b610df5565b61024e610eb9565b610277610ebe565b61027761039a366004613464565b610fa0565b61024e611018565b61024e61101d565b6102fd611022565b6102a76103c5366004613342565b61103e565b61024e611401565b61024e611406565b61024e61140b565b6102a76103f036600461323e565b611410565b61024e611422565b61027761040b3660046132d7565b611427565b61031d61041e36600461323e565b61154a565b61024e6117c2565b6102a761043936600461323e565b6117c7565b61027761044c36600461323e565b6117d9565b600381565b61045e611927565b73ffffffffffffffffffffffffffffffffffffffff1661047c611022565b73ffffffffffffffffffffffffffffffffffffffff16146104d2576040517f08c379a00000000000000000000000000000000000000000000000000000000081526004016104c9906137a4565b60405180910390fd5b600355565b600881565b6104e53361192b565b61051b576040517f08c379a00000000000000000000000000000000000000000000000000000000081526004016104c99061359c565b73ffffffffffffffffffffffffffffffffffffffff909116600090815260056020526040902055565b60076020526000908152604090205481565b60025481565b606981565b60035481565b606781565b600080610578336119dd565b6105ae576040517f08c379a00000000000000000000000000000000000000000000000000000000081526004016104c9906135f9565b73ffffffffffffffffffffffffffffffffffffffff8088166000908152600460209081526040808320938916835260018401909152902054156106665773ffffffffffffffffffffffffffffffffffffffff8616600090815260018201602052604090205461061e908590611a36565b925061062b818785611a50565b73ffffffffffffffffffffffffffffffffffffffff861660009081526006602052604081208054859290610660908490613a57565b90915550505b73ffffffffffffffffffffffffffffffffffffffff87166000908152600760205260408120805487929061069b908490613a57565b909155506106ab90508385613a57565b73ffffffffffffffffffffffffffffffffffffffff8716600090815260076020526040812080549091906106e09084906139c9565b909155505073ffffffffffffffffffffffffffffffffffffffff8616600090815260076020908152604080832054600590925290912054101561074f576040517f08c379a00000000000000000000000000000000000000000000000000000000081526004016104c990613836565b73ffffffffffffffffffffffffffffffffffffffff871660009081526004820160205260409020548590811115610867575073ffffffffffffffffffffffffffffffffffffffff871660009081526004820160205260409020546107b38187613a57565b73ffffffffffffffffffffffffffffffffffffffff89166000908152600660205260408120805492955085929091906107ed9084906139c9565b909155505073ffffffffffffffffffffffffffffffffffffffff8816600090815260066020908152604080832054600590925290912054101561085c576040517f08c379a00000000000000000000000000000000000000000000000000000000081526004016104c990613836565b610867828985611bc7565b6108748289898489611e6a565b50509550959350505050565b60005473ffffffffffffffffffffffffffffffffffffffff1681565b73ffffffffffffffffffffffffffffffffffffffff811660009081526004602090815260409182902060038101805484518185028101850190955280855260609485949092919083018282801561092957602002820191906000526020600020905b815473ffffffffffffffffffffffffffffffffffffffff1681526001909101906020018083116108fe575b5050506003840154929550505067ffffffffffffffff811115610975577f4e487b7100000000000000000000000000000000000000000000000000000000600052604160045260246000fd5b60405190808252806020026020018201604052801561099e578160200160208202803683370190505b50915060005b8084511115610a8b5760008482815181106109e8577f4e487b7100000000000000000000000000000000000000000000000000000000600052603260045260246000fd5b602002602001015190508260040160008273ffffffffffffffffffffffffffffffffffffffff1673ffffffffffffffffffffffffffffffffffffffff16815260200190815260200160002054848381518110610a6d577f4e487b7100000000000000000000000000000000000000000000000000000000600052603260045260246000fd5b60209081029190910101525080610a8381613a6e565b9150506109a4565b5050915091565b600681565b606681565b610aa5336119dd565b610adb576040517f08c379a00000000000000000000000000000000000000000000000000000000081526004016104c9906138f0565b73ffffffffffffffffffffffffffffffffffffffff821660009081526006602052604081208054839290610b109084906139c9565b909155505073ffffffffffffffffffffffffffffffffffffffff821660009081526007602052604081208054839290610b4a9084906139c9565b909155505073ffffffffffffffffffffffffffffffffffffffff821660009081526006602090815260408083205460059092529091205410801590610bbf575073ffffffffffffffffffffffffffffffffffffffff821660009081526007602090815260408083205460059092529091205410155b610bf5576040517f08c379a00000000000000000000000000000000000000000000000000000000081526004016104c990613836565b73ffffffffffffffffffffffffffffffffffffffff83166000908152600460205260409020610c25818484611bc7565b50505050565b6000610c36336119dd565b610c6c576040517f08c379a00000000000000000000000000000000000000000000000000000000081526004016104c9906138f0565b73ffffffffffffffffffffffffffffffffffffffff831660009081526007602052604081208054849290610ca19084906139c9565b909155505073ffffffffffffffffffffffffffffffffffffffff83166000908152600760209081526040808320546005909252909120541015610d10576040517f08c379a00000000000000000000000000000000000000000000000000000000081526004016104c990613836565b73ffffffffffffffffffffffffffffffffffffffff84166000908152600460205260409020610d40818585611ed7565b73ffffffffffffffffffffffffffffffffffffffff8416600090815260018201602052604090205415610de85773ffffffffffffffffffffffffffffffffffffffff84166000908152600182016020526040902054610da0908490611a36565b9150610dad818584611a50565b73ffffffffffffffffffffffffffffffffffffffff841660009081526006602052604081208054849290610de2908490613a57565b90915550505b509392505050565b606581565b6000610e00336119dd565b610e36576040517f08c379a00000000000000000000000000000000000000000000000000000000081526004016104c9906136ea565b73ffffffffffffffffffffffffffffffffffffffff808516600090815260046020818152604080842094881684529184019052902054610e769084613a57565b9150610e83818584611f7c565b610de8576040517f08c379a00000000000000000000000000000000000000000000000000000000081526004016104c990613656565b600181565b610ec6611927565b73ffffffffffffffffffffffffffffffffffffffff16610ee4611022565b73ffffffffffffffffffffffffffffffffffffffff1614610f31576040517f08c379a00000000000000000000000000000000000000000000000000000000081526004016104c9906137a4565b60015460405160009173ffffffffffffffffffffffffffffffffffffffff16907f8be0079c531659141344cd1fd0a4f28419497f9722a3daafe3b4186f6b6457e0908390a3600180547fffffffffffffffffffffffff0000000000000000000000000000000000000000169055565b610fa8611927565b73ffffffffffffffffffffffffffffffffffffffff16610fc6611022565b73ffffffffffffffffffffffffffffffffffffffff1614611013576040517f08c379a00000000000000000000000000000000000000000000000000000000081526004016104c9906137a4565b600255565b606a81565b600981565b60015473ffffffffffffffffffffffffffffffffffffffff1690565b600061104933611fae565b61107f576040517f08c379a00000000000000000000000000000000000000000000000000000000081526004016104c9906137d9565b600061108b8584612008565b905061109781836139c9565b915060006110a3612759565b905060006110af6128b6565b9050818111156110fa577f3555ffae7677eb42103f0b9e11b61c758f452fae446684dec7a363dd38ab58fc6110e48383613a57565b6040516110f19190613986565b60405180910390a15b60005b600b548110156113f6576000600b8281548110611143577f4e487b7100000000000000000000000000000000000000000000000000000000600052603260045260246000fd5b600091825260208083209091015473ffffffffffffffffffffffffffffffffffffffff168083526004909152604082209092509061118082612a0c565b9050600061118d83612a1e565b90506000600280546064600354856111a59190613a1a565b6111af91906139e1565b6111b991906139e1565b6111c391906139e1565b90508a156111dc576111d5818b6139c9565b995061123f565b73ffffffffffffffffffffffffffffffffffffffff8581166000908152600c60205260409020600181018390556002810180547fffffffffffffffffffffffff000000000000000000000000000000000000000016928f16929092179091554390555b61124982826139c9565b831061138357611257612a31565b73ffffffffffffffffffffffffffffffffffffffff1663d9caed1261127a612ade565b73ffffffffffffffffffffffffffffffffffffffff16631f1cb62b6040518163ffffffff1660e01b815260040160206040518083038186803b1580156112bf57600080fd5b505afa1580156112d3573d6000803e3d6000fd5b505050506040513d601f19601f820116820180604052508101906112f79190613261565b87846113038789613a57565b61130d9190613a57565b6040518463ffffffff1660e01b815260040161132b939291906134b5565b602060405180830381600087803b15801561134557600080fd5b505af1158015611359573d6000803e3d6000fd5b505050506040513d601f19601f8201168201806040525081019061137d9190613448565b506113d5565b60008361139083856139c9565b61139a9190613a57565b90507f3555ffae7677eb42103f0b9e11b61c758f452fae446684dec7a363dd38ab58fc816040516113cb9190613986565b60405180910390a1505b6113de84612b36565b505050505080806113ee90613a6e565b9150506110fd565b505050509392505050565b600281565b600581565b606881565b60066020526000908152604090205481565b600481565b611430336119dd565b611466576040517f08c379a00000000000000000000000000000000000000000000000000000000081526004016104c9906138f0565b73ffffffffffffffffffffffffffffffffffffffff808416600090815260046020908152604080832093861683526007909152812080548492906114ab908490613a57565b909155505073ffffffffffffffffffffffffffffffffffffffff831660009081526004820160205260409020546114e3908390613a57565b73ffffffffffffffffffffffffffffffffffffffff8416600090815260048301602052604090205561151481612cb2565b610c25576040517f08c379a00000000000000000000000000000000000000000000000000000000081526004016104c990613747565b73ffffffffffffffffffffffffffffffffffffffff811660009081526004602090815260409182902080548351818402810184019094528084526060938493909183918301828280156115d357602002820191906000526020600020905b815473ffffffffffffffffffffffffffffffffffffffff1681526001909101906020018083116115a8575b50508454939650505067ffffffffffffffff821115905061161d577f4e487b7100000000000000000000000000000000000000000000000000000000600052604160045260246000fd5b604051908082528060200260200182016040528015611646578160200160208202803683370190505b50915060005b8084511115610a8b576000848281518110611690577f4e487b7100000000000000000000000000000000000000000000000000000000600052603260045260246000fd5b602002602001015190506116a2612cfd565b73ffffffffffffffffffffffffffffffffffffffff828116600090815260018601602090815260408083205460028901909252918290205491517f687680ed000000000000000000000000000000000000000000000000000000008152939092169263687680ed9261171b92909186919060040161398f565b60206040518083038186803b15801561173357600080fd5b505afa158015611747573d6000803e3d6000fd5b505050506040513d601f19601f8201168201806040525081019061176b919061347c565b8483815181106117a4577f4e487b7100000000000000000000000000000000000000000000000000000000600052603260045260246000fd5b602090810291909101015250806117ba81613a6e565b91505061164c565b600781565b60056020526000908152604090205481565b6117e1611927565b73ffffffffffffffffffffffffffffffffffffffff166117ff611022565b73ffffffffffffffffffffffffffffffffffffffff161461184c576040517f08c379a00000000000000000000000000000000000000000000000000000000081526004016104c9906137a4565b73ffffffffffffffffffffffffffffffffffffffff8116611899576040517f08c379a00000000000000000000000000000000000000000000000000000000081526004016104c99061368d565b60015460405173ffffffffffffffffffffffffffffffffffffffff8084169216907f8be0079c531659141344cd1fd0a4f28419497f9722a3daafe3b4186f6b6457e090600090a3600180547fffffffffffffffffffffffff00000000000000000000000000000000000000001673ffffffffffffffffffffffffffffffffffffffff92909216919091179055565b3390565b600080546040517fd87fefd200000000000000000000000000000000000000000000000000000000815273ffffffffffffffffffffffffffffffffffffffff9091169063d87fefd29061198590600990869060040161395c565b60206040518083038186803b15801561199d57600080fd5b505afa1580156119b1573d6000803e3d6000fd5b505050506040513d601f19601f820116820180604052508101906119d59190613448565b90505b919050565b600080546040517fd87fefd200000000000000000000000000000000000000000000000000000000815273ffffffffffffffffffffffffffffffffffffffff9091169063d87fefd290611985906004908690820161395c565b600081831115611a47575080611a4a565b50815b92915050565b611a58612cfd565b73ffffffffffffffffffffffffffffffffffffffff838116600090815260018601602090815260408083205460028901909252918290205491517fe695fa68000000000000000000000000000000000000000000000000000000008152939092169263e695fa6892611ad192909187919060040161398f565b602060405180830381600087803b158015611aeb57600080fd5b505af1158015611aff573d6000803e3d6000fd5b505050506040513d601f19601f82011682018060405250810190611b23919061347c565b73ffffffffffffffffffffffffffffffffffffffff831660009081526001850160205260409020819055611b58908290613a57565b73ffffffffffffffffffffffffffffffffffffffff831660009081526001850160209081526040808320939093556004860190522054611b99908290613a57565b73ffffffffffffffffffffffffffffffffffffffff9092166000908152600490930160205250604090912055565b611bd18383612d55565b611ce25782546001810184556000848152602090200180547fffffffffffffffffffffffff00000000000000000000000000000000000000001673ffffffffffffffffffffffffffffffffffffffff8416179055611c2d612cfd565b73ffffffffffffffffffffffffffffffffffffffff1663e7bde5c1836040518263ffffffff1660e01b8152600401611c659190613494565b60206040518083038186803b158015611c7d57600080fd5b505afa158015611c91573d6000803e3d6000fd5b505050506040513d601f19601f82011682018060405250810190611cb5919061347c565b73ffffffffffffffffffffffffffffffffffffffff83166000908152600285016020526040902055611dde565b611cea612cfd565b73ffffffffffffffffffffffffffffffffffffffff838116600090815260018601602090815260408083205460028901909252918290205491517fe695fa68000000000000000000000000000000000000000000000000000000008152939092169263e695fa6892611d6392909187919060040161398f565b602060405180830381600087803b158015611d7d57600080fd5b505af1158015611d91573d6000803e3d6000fd5b505050506040513d601f19601f82011682018060405250810190611db5919061347c565b73ffffffffffffffffffffffffffffffffffffffff831660009081526001850160205260409020555b73ffffffffffffffffffffffffffffffffffffffff8216600090815260018401602052604081208054839290611e159084906139c9565b90915550611e269050838383611ed7565b611e2f83612cb2565b611e65576040517f08c379a00000000000000000000000000000000000000000000000000000000081526004016104c990613893565b505050565b73ffffffffffffffffffffffffffffffffffffffff84166000908152600486016020526040902054611e9d908390613a57565b73ffffffffffffffffffffffffffffffffffffffff85166000908152600487016020526040902055611ed0858483611ed7565b5050505050565b611ee18383612d83565b611f3b57600383018054600181018255600091825260209091200180547fffffffffffffffffffffffff00000000000000000000000000000000000000001673ffffffffffffffffffffffffffffffffffffffff84161790555b73ffffffffffffffffffffffffffffffffffffffff8216600090815260048401602052604081208054839290611f729084906139c9565b9091555050505050565b73ffffffffffffffffffffffffffffffffffffffff821660009081526004840160205260409020548111159392505050565b600080546040517fd87fefd200000000000000000000000000000000000000000000000000000000815273ffffffffffffffffffffffffffffffffffffffff9091169063d87fefd29061198590600290869060040161395c565b60408051600080825260208201928390529051909161202a9160099190613173565b50604080516000815260208101918290525161204891600a91613173565b50604080516000815260208101918290525161206691600b91613173565b5060005b80845111156127525760008482815181106120ae577f4e487b7100000000000000000000000000000000000000000000000000000000600052603260045260246000fd5b602002602001015190506000600460008373ffffffffffffffffffffffffffffffffffffffff1673ffffffffffffffffffffffffffffffffffffffff168152602001908152602001600020905061210481612db2565b1561251357600b805460018101825560009182527f0175b7a638427703f0dbe7bb9bbf987a2551717b34e79f33b5b1008d1fa01db90180547fffffffffffffffffffffffff00000000000000000000000000000000000000001673ffffffffffffffffffffffffffffffffffffffff85161790555b60038201548110156122f15760008260030182815481106121c3577f4e487b7100000000000000000000000000000000000000000000000000000000600052603260045260246000fd5b600091825260208083209091015473ffffffffffffffffffffffffffffffffffffffff168083526008909152604090912060028101549192509043146122995773ffffffffffffffffffffffffffffffffffffffff821660008181526004860160205260408120546001808501919091558184554360028501556009805491820181559091527f6e1540171b6c0c960b71a7020d9f60077f6af931a8bbf590da0223dacf75c7af0180547fffffffffffffffffffffffff00000000000000000000000000000000000000001690911790556122dc565b73ffffffffffffffffffffffffffffffffffffffff82166000908152600485016020526040812054600183018054919290916122d69084906139c9565b90915550505b505080806122e990613a6e565b915050612179565b5060005b815481101561251157600082600001828154811061233c577f4e487b7100000000000000000000000000000000000000000000000000000000600052603260045260246000fd5b600091825260208083209091015473ffffffffffffffffffffffffffffffffffffffff1680835260089091526040822090925090612378612cfd565b73ffffffffffffffffffffffffffffffffffffffff1663e7bde5c1846040518263ffffffff1660e01b81526004016123b09190613494565b60206040518083038186803b1580156123c857600080fd5b505afa1580156123dc573d6000803e3d6000fd5b505050506040513d601f19601f82011682018060405250810190612400919061347c565b73ffffffffffffffffffffffffffffffffffffffff8416600090815260028701602090815260408083205460018a019092528220549293509091612445908490613a1a565b61244f91906139e1565b9050438360020154146124e05760006001848101829055828555436002860155600a805491820181559091527fc65a7bb8d6351c1cf70c95a316cc6a92839c986682d98bc35f958f4883f9d2a80180547fffffffffffffffffffffffff00000000000000000000000000000000000000001673ffffffffffffffffffffffffffffffffffffffff86161790556124fa565b808360000160008282546124f491906139c9565b90915550505b50505050808061250990613a6e565b9150506122f5565b505b73ffffffffffffffffffffffffffffffffffffffff82166000908152600c602052604090206001810154158015906125485750855b1561273c578054600090612573906125614360016139c9565b61256b9190613a57565b600d54611a36565b90506000600d5483600101548361258a9190613a1a565b61259491906139e1565b905061259e612a31565b73ffffffffffffffffffffffffffffffffffffffff1663d9caed126125c1612ade565b73ffffffffffffffffffffffffffffffffffffffff16631f1cb62b6040518163ffffffff1660e01b815260040160206040518083038186803b15801561260657600080fd5b505afa15801561261a573d6000803e3d6000fd5b505050506040513d601f19601f8201168201806040525081019061263e9190613261565b60028601546040517fffffffff0000000000000000000000000000000000000000000000000000000060e085901b168152612695929173ffffffffffffffffffffffffffffffffffffffff169086906004016134b5565b602060405180830381600087803b1580156126af57600080fd5b505af11580156126c3573d6000803e3d6000fd5b505050506040513d601f19601f820116820180604052508101906126e79190613448565b508083600101546126f89190613a57565b61270290886139c9565b6000600185018190556002850180547fffffffffffffffffffffffff00000000000000000000000000000000000000001690558455965050505b505050808061274a90613a6e565b91505061206a565b5092915050565b6000805b6009548110156128b2576000600982815481106127a3577f4e487b7100000000000000000000000000000000000000000000000000000000600052603260045260246000fd5b600091825260208083209091015473ffffffffffffffffffffffffffffffffffffffff1680835260089091526040909120805460018201549293509091111561289d57805460018201546000916127f991613a57565b9050612803612ade565b73ffffffffffffffffffffffffffffffffffffffff166305883f7c84836040518363ffffffff1660e01b815260040161283d9291906134e6565b602060405180830381600087803b15801561285757600080fd5b505af115801561286b573d6000803e3d6000fd5b505050506040513d601f19601f8201168201806040525081019061288f919061347c565b61289990866139c9565b9450505b505080806128aa90613a6e565b91505061275d565b5090565b6000805b600a548110156128b2576000600a8281548110612900577f4e487b7100000000000000000000000000000000000000000000000000000000600052603260045260246000fd5b600091825260208083209091015473ffffffffffffffffffffffffffffffffffffffff168083526008909152604090912060018101548154929350909111156129f75761294b612ade565b73ffffffffffffffffffffffffffffffffffffffff166305883f7c838360010154846000015461297b9190613a57565b6040518363ffffffff1660e01b81526004016129989291906134e6565b602060405180830381600087803b1580156129b257600080fd5b505af11580156129c6573d6000803e3d6000fd5b505050506040513d601f19601f820116820180604052508101906129ea919061347c565b6129f490856139c9565b93505b50508080612a0490613a6e565b9150506128ba565b60006119d58260030183600401612e0c565b60006119d5826001810160028201612f5a565b600080546040517f3c9c8f9c00000000000000000000000000000000000000000000000000000000815273ffffffffffffffffffffffffffffffffffffffff90911690633c9c8f9c90612a899060659060040161394d565b60206040518083038186803b158015612aa157600080fd5b505afa158015612ab5573d6000803e3d6000fd5b505050506040513d601f19601f82011682018060405250810190612ad99190613261565b905090565b600080546040517f3c9c8f9c00000000000000000000000000000000000000000000000000000000815273ffffffffffffffffffffffffffffffffffffffff90911690633c9c8f9c90612a8990606a9060040161394d565b60005b8154811015612bd1576000826000018281548110612b80577f4e487b7100000000000000000000000000000000000000000000000000000000600052603260045260246000fd5b600091825260208083209091015473ffffffffffffffffffffffffffffffffffffffff1682526001850181526040808320839055600286019091528120555080612bc981613a6e565b915050612b39565b5060005b6003820154811015612c95576000826003018281548110612c1f577f4e487b7100000000000000000000000000000000000000000000000000000000600052603260045260246000fd5b600091825260208083209091015473ffffffffffffffffffffffffffffffffffffffff168252600485018152604080832083905560058601909152902080547fffffffffffffffffffffffffffffffffffffffffffffffffffffffffffffff001690555080612c8d81613a6e565b915050612bd5565b50612ca18160006131f9565b612caf6003820160006131f9565b50565b600080612cbe83612a1e565b90506000612ccb84612a0c565b905060025482612cdb9190613a1a565b600254612ce99060016139c9565b612cf39083613a1a565b1015949350505050565b600080546040517f3c9c8f9c00000000000000000000000000000000000000000000000000000000815273ffffffffffffffffffffffffffffffffffffffff90911690633c9c8f9c90612a899060669060040161394d565b73ffffffffffffffffffffffffffffffffffffffff1660009081526002919091016020526040902054151590565b73ffffffffffffffffffffffffffffffffffffffff166000908152600591909101602052604090205460ff1690565b600080612dbe83612a1e565b90506000612dcb84612a0c565b9050816003546002546064612de09190613a1a565b612dea91906139c9565b612df49190613a1a565b600254612e019083613a1a565b612cf3906064613a1a565b6000805b8354811015612752576000848281548110612e54577f4e487b7100000000000000000000000000000000000000000000000000000000600052603260045260246000fd5b60009182526020909120015473ffffffffffffffffffffffffffffffffffffffff169050612e80612ade565b73ffffffffffffffffffffffffffffffffffffffff828116600090815260208790526040908190205490517fe47109a9000000000000000000000000000000000000000000000000000000008152929091169163e47109a991612ee8918591906004016134e6565b602060405180830381600087803b158015612f0257600080fd5b505af1158015612f16573d6000803e3d6000fd5b505050506040513d601f19601f82011682018060405250810190612f3a919061347c565b612f4490846139c9565b9250508080612f5290613a6e565b915050612e10565b6000805b8454811015610de8576000858281548110612fa2577f4e487b7100000000000000000000000000000000000000000000000000000000600052603260045260246000fd5b600091825260208083209091015473ffffffffffffffffffffffffffffffffffffffff1680835290879052604090912054909150612fe290829086613002565b612fec90846139c9565b9250508080612ffa90613a6e565b915050612f5e565b60008061300d612cfd565b73ffffffffffffffffffffffffffffffffffffffff1663e7bde5c1866040518263ffffffff1660e01b81526004016130459190613494565b60206040518083038186803b15801561305d57600080fd5b505afa158015613071573d6000803e3d6000fd5b505050506040513d601f19601f82011682018060405250810190613095919061347c565b73ffffffffffffffffffffffffffffffffffffffff8616600090815260208590526040812054919250906130c98387613a1a565b6130d391906139e1565b90506130dd612ade565b73ffffffffffffffffffffffffffffffffffffffff1663e47109a987836040518363ffffffff1660e01b81526004016131179291906134e6565b602060405180830381600087803b15801561313157600080fd5b505af1158015613145573d6000803e3d6000fd5b505050506040513d601f19601f82011682018060405250810190613169919061347c565b9695505050505050565b8280548282559060005260206000209081019282156131ed579160200282015b828111156131ed57825182547fffffffffffffffffffffffff00000000000000000000000000000000000000001673ffffffffffffffffffffffffffffffffffffffff909116178255602090920191600190910190613193565b506128b2929150613213565b5080546000825590600052602060002090810190612caf91905b5b808211156128b25760008155600101613214565b80356119d881613b05565b80356119d881613b27565b60006020828403121561324f578081fd5b813561325a81613b05565b9392505050565b600060208284031215613272578081fd5b815161325a81613b05565b600080600080600060a08688031215613294578081fd5b853561329f81613b05565b945060208601356132af81613b05565b935060408601356132bf81613b05565b94979396509394606081013594506080013592915050565b6000806000606084860312156132eb578283fd5b83356132f681613b05565b9250602084013561330681613b05565b929592945050506040919091013590565b60008060408385031215613329578182fd5b823561333481613b05565b946020939093013593505050565b600080600060608486031215613356578283fd5b833567ffffffffffffffff8082111561336d578485fd5b818601915086601f830112613380578485fd5b813560208282111561339457613394613ad6565b8082026040517fffffffffffffffffffffffffffffffffffffffffffffffffffffffffffffffe0603f830116810181811086821117156133d6576133d6613ad6565b604052838152828101945085830182870184018c10156133f457898afd5b8996505b8487101561341d5761340981613228565b8652600196909601959483019483016133f8565b50975061342d9050888201613228565b95505050505061343f60408501613233565b90509250925092565b600060208284031215613459578081fd5b815161325a81613b27565b600060208284031215613475578081fd5b5035919050565b60006020828403121561348d578081fd5b5051919050565b73ffffffffffffffffffffffffffffffffffffffff91909116815260200190565b73ffffffffffffffffffffffffffffffffffffffff9384168152919092166020820152604081019190915260600190565b73ffffffffffffffffffffffffffffffffffffffff929092168252602082015260400190565b604080825283519082018190526000906020906060840190828701845b8281101561355b57815173ffffffffffffffffffffffffffffffffffffffff1684529284019290840190600101613529565b50505083810382850152845180825285830191830190845b8181101561358f57835183529284019291840191600101613573565b5090979650505050505050565b60208082526026908201527f43616c6c6572206e6f7420617574686f72697a656420746f2073657420746f6b60408201527f656e206361700000000000000000000000000000000000000000000000000000606082015260800190565b60208082526039908201527f43616c6c696e6720636f6e7472616374206973206e6f7420616e20617574686f60408201527f72697a6564206d617267696e20747261646572206167656e7400000000000000606082015260800190565b60208082526018908201527f43616e277420626f72726f772066756c6c20616d6f756e740000000000000000604082015260600190565b60208082526026908201527f4f776e61626c653a206e6577206f776e657220697320746865207a65726f206160408201527f6464726573730000000000000000000000000000000000000000000000000000606082015260800190565b60208082526033908201527f43616c6c696e6720636f6e7472616374206973206e6f7420616e20617574686f60408201527f72697a6564206d617267696e2074726164657200000000000000000000000000606082015260800190565b60208082526026908201527f4163636f756e742062616c616e636520697320746f6f206c6f7720746f20776960408201527f7468647261770000000000000000000000000000000000000000000000000000606082015260800190565b6020808252818101527f4f776e61626c653a2063616c6c6572206973206e6f7420746865206f776e6572604082015260600190565b6020808252602f908201527f43616c6c696e67206164647265737320646f65736e27742068617665206d617260408201527f67696e2063616c6c657220726f6c650000000000000000000000000000000000606082015260800190565b60208082526039908201527f457863656564696e6720676c6f62616c206578706f737572652063617020746f60408201527f20746f6b656e202d2d2074727920616761696e206c6174657200000000000000606082015260800190565b60208082526022908201527f43616e277420626f72726f773a20696e73756666696369656e742062616c616e60408201527f6365000000000000000000000000000000000000000000000000000000000000606082015260800190565b6020808252602a908201527f43616c6c696e6720636f6e7472616374206e6f7420617574686f72697a65642060408201527f746f206465706f73697400000000000000000000000000000000000000000000606082015260800190565b61ffff91909116815260200190565b61ffff92909216825273ffffffffffffffffffffffffffffffffffffffff16602082015260400190565b90815260200190565b92835273ffffffffffffffffffffffffffffffffffffffff919091166020830152604082015260600190565b918252602082015260400190565b600082198211156139dc576139dc613aa7565b500190565b600082613a15577f4e487b710000000000000000000000000000000000000000000000000000000081526012600452602481fd5b500490565b6000817fffffffffffffffffffffffffffffffffffffffffffffffffffffffffffffffff0483118215151615613a5257613a52613aa7565b500290565b600082821015613a6957613a69613aa7565b500390565b60007fffffffffffffffffffffffffffffffffffffffffffffffffffffffffffffffff821415613aa057613aa0613aa7565b5060010190565b7f4e487b7100000000000000000000000000000000000000000000000000000000600052601160045260246000fd5b7f4e487b7100000000000000000000000000000000000000000000000000000000600052604160045260246000fd5b73ffffffffffffffffffffffffffffffffffffffff81168114612caf57600080fd5b8015158114612caf57600080fdfea2646970667358221220c1d4c1c1966ababee1eba81650df459164dc7f78920d5f1eb9fcc3f3e6f4ac5f64736f6c63430008010033",
  "linkReferences": {},
  "deployedLinkReferences": {}
}