{
  "_format": "hh-sol-artifact-1",
  "contractName": "CrossMarginTrading",
  "sourceName": "contracts/CrossMarginTrading.sol",
  "abi": [
    {
      "inputs": [
        {
          "internalType": "address",
          "name": "_roles",
          "type": "address"
        }
      ],
      "stateMutability": "nonpayable",
      "type": "constructor"
    },
    {
      "anonymous": false,
      "inputs": [
        {
          "indexed": false,
          "internalType": "uint256",
          "name": "amount",
          "type": "uint256"
        }
      ],
      "name": "LiquidationShortfall",
      "type": "event"
    },
    {
      "anonymous": false,
      "inputs": [
        {
          "indexed": true,
          "internalType": "address",
          "name": "previousOwner",
          "type": "address"
        },
        {
          "indexed": true,
          "internalType": "address",
          "name": "newOwner",
          "type": "address"
        }
      ],
      "name": "OwnershipTransferred",
      "type": "event"
    },
    {
      "inputs": [],
      "name": "ADMIN",
      "outputs": [
        {
          "internalType": "uint16",
          "name": "",
          "type": "uint16"
        }
      ],
      "stateMutability": "view",
      "type": "function"
    },
    {
      "inputs": [],
      "name": "AUTHORIZED_FUND_TRADER",
      "outputs": [
        {
          "internalType": "uint16",
          "name": "",
          "type": "uint16"
        }
      ],
      "stateMutability": "view",
      "type": "function"
    },
    {
      "inputs": [],
      "name": "BORROWER",
      "outputs": [
        {
          "internalType": "uint16",
          "name": "",
          "type": "uint16"
        }
      ],
      "stateMutability": "view",
      "type": "function"
    },
    {
      "inputs": [],
      "name": "FEE_CONTROLLER",
      "outputs": [
        {
          "internalType": "uint16",
          "name": "",
          "type": "uint16"
        }
      ],
      "stateMutability": "view",
      "type": "function"
    },
    {
      "inputs": [],
      "name": "FEE_SOURCE",
      "outputs": [
        {
          "internalType": "uint16",
          "name": "",
          "type": "uint16"
        }
      ],
      "stateMutability": "view",
      "type": "function"
    },
    {
      "inputs": [],
      "name": "FUND",
      "outputs": [
        {
          "internalType": "uint16",
          "name": "",
          "type": "uint16"
        }
      ],
      "stateMutability": "view",
      "type": "function"
    },
    {
      "inputs": [],
      "name": "INCENTIVE_DISTRIBUTION",
      "outputs": [
        {
          "internalType": "uint16",
          "name": "",
          "type": "uint16"
        }
      ],
      "stateMutability": "view",
      "type": "function"
    },
    {
      "inputs": [],
      "name": "INCENTIVE_REPORTER",
      "outputs": [
        {
          "internalType": "uint16",
          "name": "",
          "type": "uint16"
        }
      ],
      "stateMutability": "view",
      "type": "function"
    },
    {
      "inputs": [],
      "name": "LENDING",
      "outputs": [
        {
          "internalType": "uint16",
          "name": "",
          "type": "uint16"
        }
      ],
      "stateMutability": "view",
      "type": "function"
    },
    {
      "inputs": [],
      "name": "LIQUIDATOR",
      "outputs": [
        {
          "internalType": "uint16",
          "name": "",
          "type": "uint16"
        }
      ],
      "stateMutability": "view",
      "type": "function"
    },
    {
      "inputs": [],
      "name": "MARGIN_CALLER",
      "outputs": [
        {
          "internalType": "uint16",
          "name": "",
          "type": "uint16"
        }
      ],
      "stateMutability": "view",
      "type": "function"
    },
    {
      "inputs": [],
      "name": "MARGIN_TRADER",
      "outputs": [
        {
          "internalType": "uint16",
          "name": "",
          "type": "uint16"
        }
      ],
      "stateMutability": "view",
      "type": "function"
    },
    {
      "inputs": [],
      "name": "MARGIN_TRADING",
      "outputs": [
        {
          "internalType": "uint16",
          "name": "",
          "type": "uint16"
        }
      ],
      "stateMutability": "view",
      "type": "function"
    },
    {
      "inputs": [],
      "name": "PRICE_CONTROLLER",
      "outputs": [
        {
          "internalType": "uint16",
          "name": "",
          "type": "uint16"
        }
      ],
      "stateMutability": "view",
      "type": "function"
    },
    {
      "inputs": [],
      "name": "ROUTER",
      "outputs": [
        {
          "internalType": "uint16",
          "name": "",
          "type": "uint16"
        }
      ],
      "stateMutability": "view",
      "type": "function"
    },
    {
      "inputs": [],
      "name": "TOKEN_ACTIVATOR",
      "outputs": [
        {
          "internalType": "uint16",
          "name": "",
          "type": "uint16"
        }
      ],
      "stateMutability": "view",
      "type": "function"
    },
    {
      "inputs": [],
      "name": "WITHDRAWER",
      "outputs": [
        {
          "internalType": "uint16",
          "name": "",
          "type": "uint16"
        }
      ],
      "stateMutability": "view",
      "type": "function"
    },
    {
      "inputs": [
        {
          "internalType": "address[]",
          "name": "liquidationCandidates",
          "type": "address[]"
        },
        {
          "internalType": "address",
          "name": "currentCaller",
          "type": "address"
        }
      ],
      "name": "callMargin",
      "outputs": [
        {
          "internalType": "uint256",
          "name": "marginCallerCut",
          "type": "uint256"
        }
      ],
      "stateMutability": "nonpayable",
      "type": "function"
    },
    {
      "inputs": [],
      "name": "coolingOffPeriod",
      "outputs": [
        {
          "internalType": "uint256",
          "name": "",
          "type": "uint256"
        }
      ],
      "stateMutability": "view",
      "type": "function"
    },
    {
      "inputs": [
        {
          "internalType": "address",
          "name": "trader",
          "type": "address"
        }
      ],
      "name": "getBorrowAmounts",
      "outputs": [
        {
          "internalType": "address[]",
          "name": "borrowTokens",
          "type": "address[]"
        },
        {
          "internalType": "uint256[]",
          "name": "borrowAmounts",
          "type": "uint256[]"
        }
      ],
      "stateMutability": "view",
      "type": "function"
    },
    {
      "inputs": [
        {
          "internalType": "address",
          "name": "trader",
          "type": "address"
        }
      ],
      "name": "getHoldingAmounts",
      "outputs": [
        {
          "internalType": "address[]",
          "name": "holdingTokens",
          "type": "address[]"
        },
        {
          "internalType": "uint256[]",
          "name": "holdingAmounts",
          "type": "uint256[]"
        }
      ],
      "stateMutability": "view",
      "type": "function"
    },
    {
      "inputs": [
        {
          "internalType": "address",
          "name": "trader",
          "type": "address"
        },
        {
          "internalType": "address",
          "name": "token",
          "type": "address"
        },
        {
          "internalType": "uint256",
          "name": "amount",
          "type": "uint256"
        }
      ],
      "name": "getTradeBorrowAmount",
      "outputs": [
        {
          "internalType": "uint256",
          "name": "borrowAmount",
          "type": "uint256"
        }
      ],
      "stateMutability": "view",
      "type": "function"
    },
    {
      "inputs": [],
      "name": "leverage",
      "outputs": [
        {
          "internalType": "uint256",
          "name": "",
          "type": "uint256"
        }
      ],
      "stateMutability": "view",
      "type": "function"
    },
    {
      "inputs": [],
      "name": "liquidationThresholdPercent",
      "outputs": [
        {
          "internalType": "uint256",
          "name": "",
          "type": "uint256"
        }
      ],
      "stateMutability": "view",
      "type": "function"
    },
    {
      "inputs": [],
      "name": "owner",
      "outputs": [
        {
          "internalType": "address",
          "name": "",
          "type": "address"
        }
      ],
      "stateMutability": "view",
      "type": "function"
    },
    {
      "inputs": [
        {
          "internalType": "address",
          "name": "trader",
          "type": "address"
        },
        {
          "internalType": "address",
          "name": "borrowToken",
          "type": "address"
        },
        {
          "internalType": "uint256",
          "name": "borrowAmount",
          "type": "uint256"
        }
      ],
      "name": "registerBorrow",
      "outputs": [],
      "stateMutability": "nonpayable",
      "type": "function"
    },
    {
      "inputs": [
        {
          "internalType": "address",
          "name": "trader",
          "type": "address"
        },
        {
          "internalType": "address",
          "name": "token",
          "type": "address"
        },
        {
          "internalType": "uint256",
          "name": "depositAmount",
          "type": "uint256"
        }
      ],
      "name": "registerDeposit",
      "outputs": [
        {
          "internalType": "uint256",
          "name": "extinguishableDebt",
          "type": "uint256"
        }
      ],
      "stateMutability": "nonpayable",
      "type": "function"
    },
    {
      "inputs": [
        {
          "internalType": "address",
          "name": "trader",
          "type": "address"
        },
        {
          "internalType": "address",
          "name": "tokenFrom",
          "type": "address"
        },
        {
          "internalType": "address",
          "name": "tokenTo",
          "type": "address"
        },
        {
          "internalType": "uint256",
          "name": "inAmount",
          "type": "uint256"
        },
        {
          "internalType": "uint256",
          "name": "outAmount",
          "type": "uint256"
        }
      ],
      "name": "registerTradeAndBorrow",
      "outputs": [
        {
          "internalType": "uint256",
          "name": "extinguishableDebt",
          "type": "uint256"
        },
        {
          "internalType": "uint256",
          "name": "borrowAmount",
          "type": "uint256"
        }
      ],
      "stateMutability": "nonpayable",
      "type": "function"
    },
    {
      "inputs": [
        {
          "internalType": "address",
          "name": "trader",
          "type": "address"
        },
        {
          "internalType": "address",
          "name": "withdrawToken",
          "type": "address"
        },
        {
          "internalType": "uint256",
          "name": "withdrawAmount",
          "type": "uint256"
        }
      ],
      "name": "registerWithdrawal",
      "outputs": [],
      "stateMutability": "nonpayable",
      "type": "function"
    },
    {
      "inputs": [],
      "name": "renounceOwnership",
      "outputs": [],
      "stateMutability": "nonpayable",
      "type": "function"
    },
    {
      "inputs": [],
      "name": "roles",
      "outputs": [
        {
          "internalType": "contract Roles",
          "name": "",
          "type": "address"
        }
      ],
      "stateMutability": "view",
      "type": "function"
    },
    {
      "inputs": [
        {
          "internalType": "uint256",
          "name": "blocks",
          "type": "uint256"
        }
      ],
      "name": "setCoolingOffPeriod",
      "outputs": [],
      "stateMutability": "nonpayable",
      "type": "function"
    },
    {
      "inputs": [
        {
          "internalType": "uint256",
          "name": "_leverage",
          "type": "uint256"
        }
      ],
      "name": "setLeverage",
      "outputs": [],
      "stateMutability": "nonpayable",
      "type": "function"
    },
    {
      "inputs": [
        {
          "internalType": "uint256",
          "name": "threshold",
          "type": "uint256"
        }
      ],
      "name": "setLiquidationThresholdPercent",
      "outputs": [],
      "stateMutability": "nonpayable",
      "type": "function"
    },
    {
      "inputs": [
        {
          "internalType": "address",
          "name": "token",
          "type": "address"
        },
        {
          "internalType": "uint256",
          "name": "cap",
          "type": "uint256"
        }
      ],
      "name": "setTokenCap",
      "outputs": [],
      "stateMutability": "nonpayable",
      "type": "function"
    },
    {
      "inputs": [
        {
          "internalType": "address",
          "name": "",
          "type": "address"
        }
      ],
      "name": "tokenCaps",
      "outputs": [
        {
          "internalType": "uint256",
          "name": "",
          "type": "uint256"
        }
      ],
      "stateMutability": "view",
      "type": "function"
    },
    {
      "inputs": [
        {
          "internalType": "address",
          "name": "",
          "type": "address"
        }
      ],
      "name": "totalLong",
      "outputs": [
        {
          "internalType": "uint256",
          "name": "",
          "type": "uint256"
        }
      ],
      "stateMutability": "view",
      "type": "function"
    },
    {
      "inputs": [
        {
          "internalType": "address",
          "name": "",
          "type": "address"
        }
      ],
      "name": "totalShort",
      "outputs": [
        {
          "internalType": "uint256",
          "name": "",
          "type": "uint256"
        }
      ],
      "stateMutability": "view",
      "type": "function"
    },
    {
      "inputs": [
        {
          "internalType": "address",
          "name": "newOwner",
          "type": "address"
        }
      ],
      "name": "transferOwnership",
      "outputs": [],
      "stateMutability": "nonpayable",
      "type": "function"
    }
  ],
  "bytecode": "0x60806040526050600e553480156200001657600080fd5b5060405162003e5e38038062003e5e8339810160408190526200003991620000c1565b600080546001600160a01b0319166001600160a01b0383161781556200005e620000bd565b600180546001600160a01b0319166001600160a01b038316908117909155604051919250906000907f8be0079c531659141344cd1fd0a4f28419497f9722a3daafe3b4186f6b6457e0908290a3505060146003819055600855620000f1565b3390565b600060208284031215620000d3578081fd5b81516001600160a01b0381168114620000ea578182fd5b9392505050565b613d5d80620001016000396000f3fe608060405234801561001057600080fd5b50600436106102ad5760003560e01c80635c275a391161017b578063a9cc0536116100d8578063d510c5351161008c578063e0f3871f11610071578063e0f3871f146104af578063f2fde38b146104c2578063f99fd97c146104d5576102ad565b8063d510c53514610494578063d5d7ed7f146104a7576102ad565b8063c76139d0116100bd578063c76139d014610471578063cacf8d4514610479578063d0eb665314610481576102ad565b8063a9cc053614610456578063bc44dcbc1461045e576102ad565b806381ca66001161012f5780638da5cb5b116101145780638da5cb5b1461043e578063a0098d6914610446578063a94c7c341461044e576102ad565b806381ca66001461042e57806383a49c7c14610436576102ad565b80636694198411610160578063669419841461040b578063715018a61461041357806379575b231461041b576102ad565b80635c275a39146103f05780636612ce35146103f8576102ad565b8063320d2fa011610229578063409fdb72116101dd57806348fb27b8116101c257806348fb27b8146103c2578063498d55eb146103ca57806352a664d9146103dd576102ad565b8063409fdb721461039957806346b88796146103ba576102ad565b80633500aa0b1161020e5780633500aa0b14610350578063387ccdc614610371578063392f5f6414610384576102ad565b8063320d2fa01461034057806332fe7b2614610348576102ad565b806320c27126116102805780632c86d98e116102655780632c86d98e146103285780632fe94def146103305780632febaa7414610338576102ad565b806320c27126146103005780632a0acc6a14610320576102ad565b8063065d570f146102b257806316317e7e146102d05780631bc5d81d146102e55780631d47e4a3146102ed575b600080fd5b6102ba6104e8565b6040516102c79190613b4d565b60405180910390f35b6102e36102de36600461363e565b6104ed565b005b6102ba61056e565b6102e36102fb3660046134fd565b610573565b61031361030e366004613424565b6105db565b6040516102c79190613b86565b6102ba6105ed565b6103136105f2565b6102ba6105f8565b6103136105fd565b610313610603565b6102ba610609565b61036361035e366004613463565b61060e565b6040516102c7929190613bbb565b61031361037f366004613528565b610922565b61038c610d3b565b6040516102c7919061366e565b6103ac6103a7366004613424565b610d57565b6040516102c79291906136e6565b6102ba610f4d565b6102ba610f52565b6102e36103d83660046134bd565b610f57565b6103136103eb3660046134bd565b6110e6565b6102ba6112ad565b6103136104063660046134bd565b6112b2565b6102ba611380565b6102e3611385565b6102e361042936600461363e565b611467565b6102ba6114df565b6102ba6114e4565b61038c6114e9565b6102ba611505565b6102ba61150a565b6102ba61150f565b61031361046c366004613424565b611514565b6102ba611526565b6102ba61152b565b6102e361048f3660046134bd565b611530565b6103ac6104a2366004613424565b6116af565b6102ba61192d565b6103136104bd366004613424565b611932565b6102e36104d0366004613424565b611944565b6102e36104e336600461363e565b611a92565b600381565b6104f5611b0a565b73ffffffffffffffffffffffffffffffffffffffff166105136114e9565b73ffffffffffffffffffffffffffffffffffffffff1614610569576040517f08c379a000000000000000000000000000000000000000000000000000000000815260040161056090613a01565b60405180910390fd5b600355565b600881565b61057c33611b0e565b6105b2576040517f08c379a000000000000000000000000000000000000000000000000000000000815260040161056090613776565b73ffffffffffffffffffffffffffffffffffffffff909116600090815260056020526040902055565b60076020526000908152604090205481565b606b81565b60025481565b606981565b60085481565b60035481565b606781565b60008061061a33611bc0565b610650576040517f08c379a0000000000000000000000000000000000000000000000000000000008152600401610560906137d3565b73ffffffffffffffffffffffffffffffffffffffff8088166000908152600460209081526040808320938916835260028401909152902054156107085773ffffffffffffffffffffffffffffffffffffffff861660009081526002820160205260409020546106c0908590611c19565b92506106cd818785611c33565b73ffffffffffffffffffffffffffffffffffffffff861660009081526006602052604081208054859290610702908490613c57565b90915550505b73ffffffffffffffffffffffffffffffffffffffff87166000908152600760205260408120805487929061073d908490613c57565b9091555061074d90508385613c57565b73ffffffffffffffffffffffffffffffffffffffff871660009081526007602052604081208054909190610782908490613bc9565b909155505073ffffffffffffffffffffffffffffffffffffffff861660009081526007602090815260408083205460059092529091205410156107f1576040517f08c379a000000000000000000000000000000000000000000000000000000000815260040161056090613a36565b73ffffffffffffffffffffffffffffffffffffffff871660009081526005820160205260409020548590811115610909575073ffffffffffffffffffffffffffffffffffffffff871660009081526005820160205260409020546108558187613c57565b73ffffffffffffffffffffffffffffffffffffffff891660009081526006602052604081208054929550859290919061088f908490613bc9565b909155505073ffffffffffffffffffffffffffffffffffffffff881660009081526006602090815260408083205460059092529091205410156108fe576040517f08c379a000000000000000000000000000000000000000000000000000000000815260040161056090613a36565b610909828985611daa565b6109168289898489612051565b50509550959350505050565b60008061092d6120be565b73ffffffffffffffffffffffffffffffffffffffff16637b23cbce336040518263ffffffff1660e01b8152600401610965919061366e565b602060405180830381600087803b15801561097f57600080fd5b505af1158015610993573d6000803e3d6000fd5b505050506040513d601f19601f820116820180604052508101906109b7919061361e565b905060006109c5858361216b565b90506109d18184613bc9565b925060006109dd6128bf565b905060006109e9612a1c565b905081811115610a34577f3555ffae7677eb42103f0b9e11b61c758f452fae446684dec7a363dd38ab58fc610a1e8383613c57565b604051610a2b9190613b86565b60405180910390a15b60005b600c54811015610d30576000600c8281548110610a7d577f4e487b7100000000000000000000000000000000000000000000000000000000600052603260045260246000fd5b600091825260208083209091015473ffffffffffffffffffffffffffffffffffffffff1680835260049091526040822090925090610aba82612b72565b90506000610ac783612b84565b9050600060028054606460035485610adf9190613c1a565b610ae99190613be1565b610af39190613be1565b610afd9190613be1565b90508915610b1657610b0f818c613bc9565b9a50610b79565b73ffffffffffffffffffffffffffffffffffffffff8581166000908152600d60205260409020600181018390556002810180547fffffffffffffffffffffffff000000000000000000000000000000000000000016928f16929092179091554390555b610b838282613bc9565b8310610cbd57610b91612b9a565b73ffffffffffffffffffffffffffffffffffffffff1663d9caed12610bb4612bf2565b73ffffffffffffffffffffffffffffffffffffffff16631f1cb62b6040518163ffffffff1660e01b815260040160206040518083038186803b158015610bf957600080fd5b505afa158015610c0d573d6000803e3d6000fd5b505050506040513d601f19601f82011682018060405250810190610c319190613447565b8784610c3d8789613c57565b610c479190613c57565b6040518463ffffffff1660e01b8152600401610c659392919061368f565b602060405180830381600087803b158015610c7f57600080fd5b505af1158015610c93573d6000803e3d6000fd5b505050506040513d601f19601f82011682018060405250810190610cb7919061361e565b50610d0f565b600083610cca8385613bc9565b610cd49190613c57565b90507f3555ffae7677eb42103f0b9e11b61c758f452fae446684dec7a363dd38ab58fc81604051610d059190613b86565b60405180910390a1505b610d1884612c4a565b50505050508080610d2890613c6e565b915050610a37565b505050505092915050565b60005473ffffffffffffffffffffffffffffffffffffffff1681565b73ffffffffffffffffffffffffffffffffffffffff8116600090815260046020818152604092839020918201805484518184028101840190955280855260609485949390929190830182828015610de457602002820191906000526020600020905b815473ffffffffffffffffffffffffffffffffffffffff168152600190910190602001808311610db9575b5050506004840154929550505067ffffffffffffffff811115610e30577f4e487b7100000000000000000000000000000000000000000000000000000000600052604160045260246000fd5b604051908082528060200260200182016040528015610e59578160200160208202803683370190505b50915060005b8084511115610f46576000848281518110610ea3577f4e487b7100000000000000000000000000000000000000000000000000000000600052603260045260246000fd5b602002602001015190508260050160008273ffffffffffffffffffffffffffffffffffffffff1673ffffffffffffffffffffffffffffffffffffffff16815260200190815260200160002054848381518110610f28577f4e487b7100000000000000000000000000000000000000000000000000000000600052603260045260246000fd5b60209081029190910101525080610f3e81613c6e565b915050610e5f565b5050915091565b600681565b606681565b610f6033611bc0565b610f96576040517f08c379a000000000000000000000000000000000000000000000000000000000815260040161056090613af0565b73ffffffffffffffffffffffffffffffffffffffff821660009081526006602052604081208054839290610fcb908490613bc9565b909155505073ffffffffffffffffffffffffffffffffffffffff821660009081526007602052604081208054839290611005908490613bc9565b909155505073ffffffffffffffffffffffffffffffffffffffff82166000908152600660209081526040808320546005909252909120541080159061107a575073ffffffffffffffffffffffffffffffffffffffff821660009081526007602090815260408083205460059092529091205410155b6110b0576040517f08c379a000000000000000000000000000000000000000000000000000000000815260040161056090613a36565b73ffffffffffffffffffffffffffffffffffffffff831660009081526004602052604090206110e0818484611daa565b50505050565b60006110f133611bc0565b611127576040517f08c379a000000000000000000000000000000000000000000000000000000000815260040161056090613af0565b73ffffffffffffffffffffffffffffffffffffffff83166000908152600760205260408120805484929061115c908490613bc9565b909155505073ffffffffffffffffffffffffffffffffffffffff831660009081526007602090815260408083205460059092529091205410156111cb576040517f08c379a000000000000000000000000000000000000000000000000000000000815260040161056090613a36565b73ffffffffffffffffffffffffffffffffffffffff841660009081526004602052604090206111fb818585612dcc565b73ffffffffffffffffffffffffffffffffffffffff84166000908152600282016020526040902054156112a35773ffffffffffffffffffffffffffffffffffffffff8416600090815260028201602052604090205461125b908490611c19565b9150611268818584611c33565b73ffffffffffffffffffffffffffffffffffffffff84166000908152600660205260408120805484929061129d908490613c57565b90915550505b4390559392505050565b606581565b60006112bd33611bc0565b6112f3576040517f08c379a0000000000000000000000000000000000000000000000000000000008152600401610560906138c4565b73ffffffffffffffffffffffffffffffffffffffff80851660009081526004602090815260408083209387168352600584019091529020546113359084613c57565b9150611342818584612e71565b611378576040517f08c379a000000000000000000000000000000000000000000000000000000000815260040161056090613830565b509392505050565b600181565b61138d611b0a565b73ffffffffffffffffffffffffffffffffffffffff166113ab6114e9565b73ffffffffffffffffffffffffffffffffffffffff16146113f8576040517f08c379a000000000000000000000000000000000000000000000000000000000815260040161056090613a01565b60015460405160009173ffffffffffffffffffffffffffffffffffffffff16907f8be0079c531659141344cd1fd0a4f28419497f9722a3daafe3b4186f6b6457e0908390a3600180547fffffffffffffffffffffffff0000000000000000000000000000000000000000169055565b61146f611b0a565b73ffffffffffffffffffffffffffffffffffffffff1661148d6114e9565b73ffffffffffffffffffffffffffffffffffffffff16146114da576040517f08c379a000000000000000000000000000000000000000000000000000000000815260040161056090613a01565b600255565b606a81565b600981565b60015473ffffffffffffffffffffffffffffffffffffffff1690565b600281565b600581565b606881565b60066020526000908152604090205481565b606c81565b600481565b61153933611bc0565b61156f576040517f08c379a000000000000000000000000000000000000000000000000000000000815260040161056090613af0565b73ffffffffffffffffffffffffffffffffffffffff8316600090815260046020526040902060085481546115a39190613bc9565b43116115db576040517f08c379a00000000000000000000000000000000000000000000000000000000081526004016105609061397e565b73ffffffffffffffffffffffffffffffffffffffff831660009081526007602052604081208054849290611610908490613c57565b909155505073ffffffffffffffffffffffffffffffffffffffff83166000908152600582016020526040902054611648908390613c57565b73ffffffffffffffffffffffffffffffffffffffff8416600090815260058301602052604090205561167981612ea3565b6110e0576040517f08c379a000000000000000000000000000000000000000000000000000000000815260040161056090613921565b73ffffffffffffffffffffffffffffffffffffffff811660009081526004602090815260409182902060018101805484518185028101850190955280855260609485949092919083018282801561173c57602002820191906000526020600020905b815473ffffffffffffffffffffffffffffffffffffffff168152600190910190602001808311611711575b5050506001840154929550505067ffffffffffffffff811115611788577f4e487b7100000000000000000000000000000000000000000000000000000000600052604160045260246000fd5b6040519080825280602002602001820160405280156117b1578160200160208202803683370190505b50915060005b8084511115610f465760008482815181106117fb577f4e487b7100000000000000000000000000000000000000000000000000000000600052603260045260246000fd5b6020026020010151905061180d612eee565b73ffffffffffffffffffffffffffffffffffffffff828116600090815260028601602090815260408083205460038901909252918290205491517f687680ed000000000000000000000000000000000000000000000000000000008152939092169263687680ed92611886929091869190600401613b8f565b60206040518083038186803b15801561189e57600080fd5b505afa1580156118b2573d6000803e3d6000fd5b505050506040513d601f19601f820116820180604052508101906118d69190613656565b84838151811061190f577f4e487b7100000000000000000000000000000000000000000000000000000000600052603260045260246000fd5b6020908102919091010152508061192581613c6e565b9150506117b7565b600781565b60056020526000908152604090205481565b61194c611b0a565b73ffffffffffffffffffffffffffffffffffffffff1661196a6114e9565b73ffffffffffffffffffffffffffffffffffffffff16146119b7576040517f08c379a000000000000000000000000000000000000000000000000000000000815260040161056090613a01565b73ffffffffffffffffffffffffffffffffffffffff8116611a04576040517f08c379a000000000000000000000000000000000000000000000000000000000815260040161056090613867565b60015460405173ffffffffffffffffffffffffffffffffffffffff8084169216907f8be0079c531659141344cd1fd0a4f28419497f9722a3daafe3b4186f6b6457e090600090a3600180547fffffffffffffffffffffffff00000000000000000000000000000000000000001673ffffffffffffffffffffffffffffffffffffffff92909216919091179055565b611a9a611b0a565b73ffffffffffffffffffffffffffffffffffffffff16611ab86114e9565b73ffffffffffffffffffffffffffffffffffffffff1614611b05576040517f08c379a000000000000000000000000000000000000000000000000000000000815260040161056090613a01565b600855565b3390565b600080546040517fd87fefd200000000000000000000000000000000000000000000000000000000815273ffffffffffffffffffffffffffffffffffffffff9091169063d87fefd290611b68906009908690600401613b5c565b60206040518083038186803b158015611b8057600080fd5b505afa158015611b94573d6000803e3d6000fd5b505050506040513d601f19601f82011682018060405250810190611bb8919061361e565b90505b919050565b600080546040517fd87fefd200000000000000000000000000000000000000000000000000000000815273ffffffffffffffffffffffffffffffffffffffff9091169063d87fefd290611b689060049086908201613b5c565b600081831115611c2a575080611c2d565b50815b92915050565b611c3b612eee565b73ffffffffffffffffffffffffffffffffffffffff838116600090815260028601602090815260408083205460038901909252918290205491517fe695fa68000000000000000000000000000000000000000000000000000000008152939092169263e695fa6892611cb4929091879190600401613b8f565b602060405180830381600087803b158015611cce57600080fd5b505af1158015611ce2573d6000803e3d6000fd5b505050506040513d601f19601f82011682018060405250810190611d069190613656565b73ffffffffffffffffffffffffffffffffffffffff831660009081526002850160205260409020819055611d3b908290613c57565b73ffffffffffffffffffffffffffffffffffffffff831660009081526002850160209081526040808320939093556005860190522054611d7c908290613c57565b73ffffffffffffffffffffffffffffffffffffffff9092166000908152600590930160205250604090912055565b611db48383612f46565b611ec9576001838101805491820181556000908152602090200180547fffffffffffffffffffffffff00000000000000000000000000000000000000001673ffffffffffffffffffffffffffffffffffffffff8416179055611e14612eee565b73ffffffffffffffffffffffffffffffffffffffff1663e7bde5c1836040518263ffffffff1660e01b8152600401611e4c919061366e565b60206040518083038186803b158015611e6457600080fd5b505afa158015611e78573d6000803e3d6000fd5b505050506040513d601f19601f82011682018060405250810190611e9c9190613656565b73ffffffffffffffffffffffffffffffffffffffff83166000908152600385016020526040902055611fc5565b611ed1612eee565b73ffffffffffffffffffffffffffffffffffffffff838116600090815260028601602090815260408083205460038901909252918290205491517fe695fa68000000000000000000000000000000000000000000000000000000008152939092169263e695fa6892611f4a929091879190600401613b8f565b602060405180830381600087803b158015611f6457600080fd5b505af1158015611f78573d6000803e3d6000fd5b505050506040513d601f19601f82011682018060405250810190611f9c9190613656565b73ffffffffffffffffffffffffffffffffffffffff831660009081526002850160205260409020555b73ffffffffffffffffffffffffffffffffffffffff8216600090815260028401602052604081208054839290611ffc908490613bc9565b9091555061200d9050838383612dcc565b61201683612ea3565b61204c576040517f08c379a000000000000000000000000000000000000000000000000000000000815260040161056090613a93565b505050565b73ffffffffffffffffffffffffffffffffffffffff84166000908152600586016020526040902054612084908390613c57565b73ffffffffffffffffffffffffffffffffffffffff851660009081526005870160205260409020556120b7858483612dcc565b5050505050565b600080546040517f3c9c8f9c00000000000000000000000000000000000000000000000000000000815273ffffffffffffffffffffffffffffffffffffffff90911690633c9c8f9c9061211690606b90600401613b4d565b60206040518083038186803b15801561212e57600080fd5b505afa158015612142573d6000803e3d6000fd5b505050506040513d601f19601f820116820180604052508101906121669190613447565b905090565b60408051600080825260208201928390529051909161218d91600a9190613364565b5060408051600081526020810191829052516121ab91600b91613364565b5060408051600081526020810191829052516121c991600c91613364565b5060005b80845111156128b8576000848281518110612211577f4e487b7100000000000000000000000000000000000000000000000000000000600052603260045260246000fd5b602002602001015190506000600460008373ffffffffffffffffffffffffffffffffffffffff1673ffffffffffffffffffffffffffffffffffffffff168152602001908152602001600020905061226781612f74565b1561267957600c805460018101825560009182527fdf6966c971051c3d54ec59162606531493a51404a002842f56009d7e5cf4a8c70180547fffffffffffffffffffffffff00000000000000000000000000000000000000001673ffffffffffffffffffffffffffffffffffffffff85161790555b6004820154811015612454576000826004018281548110612326577f4e487b7100000000000000000000000000000000000000000000000000000000600052603260045260246000fd5b600091825260208083209091015473ffffffffffffffffffffffffffffffffffffffff168083526009909152604090912060028101549192509043146123fc5773ffffffffffffffffffffffffffffffffffffffff82166000818152600586016020526040812054600180850191909155818455436002850155600a805491820181559091527fc65a7bb8d6351c1cf70c95a316cc6a92839c986682d98bc35f958f4883f9d2a80180547fffffffffffffffffffffffff000000000000000000000000000000000000000016909117905561243f565b73ffffffffffffffffffffffffffffffffffffffff8216600090815260058501602052604081205460018301805491929091612439908490613bc9565b90915550505b5050808061244c90613c6e565b9150506122dc565b5060005b60018201548110156126775760008260010182815481106124a2577f4e487b7100000000000000000000000000000000000000000000000000000000600052603260045260246000fd5b600091825260208083209091015473ffffffffffffffffffffffffffffffffffffffff16808352600990915260408220909250906124de612eee565b73ffffffffffffffffffffffffffffffffffffffff1663e7bde5c1846040518263ffffffff1660e01b8152600401612516919061366e565b60206040518083038186803b15801561252e57600080fd5b505afa158015612542573d6000803e3d6000fd5b505050506040513d601f19601f820116820180604052508101906125669190613656565b73ffffffffffffffffffffffffffffffffffffffff8416600090815260038701602090815260408083205460028a0190925282205492935090916125ab908490613c1a565b6125b59190613be1565b9050438360020154146126465760006001848101829055828555436002860155600b805491820181559091527f0175b7a638427703f0dbe7bb9bbf987a2551717b34e79f33b5b1008d1fa01db90180547fffffffffffffffffffffffff00000000000000000000000000000000000000001673ffffffffffffffffffffffffffffffffffffffff8616179055612660565b8083600001600082825461265a9190613bc9565b90915550505b50505050808061266f90613c6e565b915050612458565b505b73ffffffffffffffffffffffffffffffffffffffff82166000908152600d602052604090206001810154158015906126ae5750855b156128a25780546000906126d9906126c7436001613bc9565b6126d19190613c57565b600e54611c19565b90506000600e548360010154836126f09190613c1a565b6126fa9190613be1565b9050612704612b9a565b73ffffffffffffffffffffffffffffffffffffffff1663d9caed12612727612bf2565b73ffffffffffffffffffffffffffffffffffffffff16631f1cb62b6040518163ffffffff1660e01b815260040160206040518083038186803b15801561276c57600080fd5b505afa158015612780573d6000803e3d6000fd5b505050506040513d601f19601f820116820180604052508101906127a49190613447565b60028601546040517fffffffff0000000000000000000000000000000000000000000000000000000060e085901b1681526127fb929173ffffffffffffffffffffffffffffffffffffffff1690869060040161368f565b602060405180830381600087803b15801561281557600080fd5b505af1158015612829573d6000803e3d6000fd5b505050506040513d601f19601f8201168201806040525081019061284d919061361e565b5080836001015461285e9190613c57565b6128689088613bc9565b6000600185018190556002850180547fffffffffffffffffffffffff00000000000000000000000000000000000000001690558455965050505b50505080806128b090613c6e565b9150506121cd565b5092915050565b6000805b600a54811015612a18576000600a8281548110612909577f4e487b7100000000000000000000000000000000000000000000000000000000600052603260045260246000fd5b600091825260208083209091015473ffffffffffffffffffffffffffffffffffffffff16808352600990915260409091208054600182015492935090911115612a03578054600182015460009161295f91613c57565b9050612969612bf2565b73ffffffffffffffffffffffffffffffffffffffff166305883f7c84836040518363ffffffff1660e01b81526004016129a39291906136c0565b602060405180830381600087803b1580156129bd57600080fd5b505af11580156129d1573d6000803e3d6000fd5b505050506040513d601f19601f820116820180604052508101906129f59190613656565b6129ff9086613bc9565b9450505b50508080612a1090613c6e565b9150506128c3565b5090565b6000805b600b54811015612a18576000600b8281548110612a66577f4e487b7100000000000000000000000000000000000000000000000000000000600052603260045260246000fd5b600091825260208083209091015473ffffffffffffffffffffffffffffffffffffffff16808352600990915260409091206001810154815492935090911115612b5d57612ab1612bf2565b73ffffffffffffffffffffffffffffffffffffffff166305883f7c8383600101548460000154612ae19190613c57565b6040518363ffffffff1660e01b8152600401612afe9291906136c0565b602060405180830381600087803b158015612b1857600080fd5b505af1158015612b2c573d6000803e3d6000fd5b505050506040513d601f19601f82011682018060405250810190612b509190613656565b612b5a9085613bc9565b93505b50508080612b6a90613c6e565b915050612a20565b6000611bb88260040183600501612fce565b6000611bb882600101836002018460030161311c565b600080546040517f3c9c8f9c00000000000000000000000000000000000000000000000000000000815273ffffffffffffffffffffffffffffffffffffffff90911690633c9c8f9c9061211690606590600401613b4d565b600080546040517f3c9c8f9c00000000000000000000000000000000000000000000000000000000815273ffffffffffffffffffffffffffffffffffffffff90911690633c9c8f9c9061211690606a90600401613b4d565b60005b6001820154811015612ce8576000826001018281548110612c97577f4e487b7100000000000000000000000000000000000000000000000000000000600052603260045260246000fd5b600091825260208083209091015473ffffffffffffffffffffffffffffffffffffffff1682526002850181526040808320839055600386019091528120555080612ce081613c6e565b915050612c4d565b5060005b6004820154811015612dac576000826004018281548110612d36577f4e487b7100000000000000000000000000000000000000000000000000000000600052603260045260246000fd5b600091825260208083209091015473ffffffffffffffffffffffffffffffffffffffff168252600585018152604080832083905560068601909152902080547fffffffffffffffffffffffffffffffffffffffffffffffffffffffffffffff001690555080612da481613c6e565b915050612cec565b50612dbb6001820160006133ea565b612dc96004820160006133ea565b50565b612dd683836131c4565b612e3057600483018054600181018255600091825260209091200180547fffffffffffffffffffffffff00000000000000000000000000000000000000001673ffffffffffffffffffffffffffffffffffffffff84161790555b73ffffffffffffffffffffffffffffffffffffffff8216600090815260058401602052604081208054839290612e67908490613bc9565b9091555050505050565b73ffffffffffffffffffffffffffffffffffffffff821660009081526005840160205260409020548111159392505050565b600080612eaf83612b84565b90506000612ebc84612b72565b905060025482612ecc9190613c1a565b600254612eda906001613bc9565b612ee49083613c1a565b1015949350505050565b600080546040517f3c9c8f9c00000000000000000000000000000000000000000000000000000000815273ffffffffffffffffffffffffffffffffffffffff90911690633c9c8f9c9061211690606690600401613b4d565b73ffffffffffffffffffffffffffffffffffffffff1660009081526003919091016020526040902054151590565b600080612f8083612b84565b90506000612f8d84612b72565b9050816003546002546064612fa29190613c1a565b612fac9190613bc9565b612fb69190613c1a565b600254612fc39083613c1a565b612ee4906064613c1a565b6000805b83548110156128b8576000848281548110613016577f4e487b7100000000000000000000000000000000000000000000000000000000600052603260045260246000fd5b60009182526020909120015473ffffffffffffffffffffffffffffffffffffffff169050613042612bf2565b73ffffffffffffffffffffffffffffffffffffffff828116600090815260208790526040908190205490517fe47109a9000000000000000000000000000000000000000000000000000000008152929091169163e47109a9916130aa918591906004016136c0565b602060405180830381600087803b1580156130c457600080fd5b505af11580156130d8573d6000803e3d6000fd5b505050506040513d601f19601f820116820180604052508101906130fc9190613656565b6131069084613bc9565b925050808061311490613c6e565b915050612fd2565b6000805b8454811015611378576000858281548110613164577f4e487b7100000000000000000000000000000000000000000000000000000000600052603260045260246000fd5b600091825260208083209091015473ffffffffffffffffffffffffffffffffffffffff16808352908790526040909120549091506131a4908290866131f3565b6131ae9084613bc9565b92505080806131bc90613c6e565b915050613120565b73ffffffffffffffffffffffffffffffffffffffff166000908152600691909101602052604090205460ff1690565b6000806131fe612eee565b73ffffffffffffffffffffffffffffffffffffffff1663e7bde5c1866040518263ffffffff1660e01b8152600401613236919061366e565b60206040518083038186803b15801561324e57600080fd5b505afa158015613262573d6000803e3d6000fd5b505050506040513d601f19601f820116820180604052508101906132869190613656565b73ffffffffffffffffffffffffffffffffffffffff8616600090815260208590526040812054919250906132ba8387613c1a565b6132c49190613be1565b90506132ce612bf2565b73ffffffffffffffffffffffffffffffffffffffff1663e47109a987836040518363ffffffff1660e01b81526004016133089291906136c0565b602060405180830381600087803b15801561332257600080fd5b505af1158015613336573d6000803e3d6000fd5b505050506040513d601f19601f8201168201806040525081019061335a9190613656565b9695505050505050565b8280548282559060005260206000209081019282156133de579160200282015b828111156133de57825182547fffffffffffffffffffffffff00000000000000000000000000000000000000001673ffffffffffffffffffffffffffffffffffffffff909116178255602090920191600190910190613384565b50612a18929150613404565b5080546000825590600052602060002090810190612dc991905b5b80821115612a185760008155600101613405565b8035611bbb81613d05565b600060208284031215613435578081fd5b813561344081613d05565b9392505050565b600060208284031215613458578081fd5b815161344081613d05565b600080600080600060a0868803121561347a578081fd5b853561348581613d05565b9450602086013561349581613d05565b935060408601356134a581613d05565b94979396509394606081013594506080013592915050565b6000806000606084860312156134d1578283fd5b83356134dc81613d05565b925060208401356134ec81613d05565b929592945050506040919091013590565b6000806040838503121561350f578182fd5b823561351a81613d05565b946020939093013593505050565b6000806040838503121561353a578182fd5b823567ffffffffffffffff80821115613551578384fd5b818501915085601f830112613564578384fd5b813560208282111561357857613578613cd6565b8082026040517fffffffffffffffffffffffffffffffffffffffffffffffffffffffffffffffe0603f830116810181811086821117156135ba576135ba613cd6565b604052838152828101945085830182870184018b10156135d8578889fd5b8896505b84871015613601576135ed81613419565b8652600196909601959483019483016135dc565b5096506136119050878201613419565b9450505050509250929050565b60006020828403121561362f578081fd5b81518015158114613440578182fd5b60006020828403121561364f578081fd5b5035919050565b600060208284031215613667578081fd5b5051919050565b73ffffffffffffffffffffffffffffffffffffffff91909116815260200190565b73ffffffffffffffffffffffffffffffffffffffff9384168152919092166020820152604081019190915260600190565b73ffffffffffffffffffffffffffffffffffffffff929092168252602082015260400190565b604080825283519082018190526000906020906060840190828701845b8281101561373557815173ffffffffffffffffffffffffffffffffffffffff1684529284019290840190600101613703565b50505083810382850152845180825285830191830190845b818110156137695783518352928401929184019160010161374d565b5090979650505050505050565b60208082526026908201527f43616c6c6572206e6f7420617574686f72697a656420746f2073657420746f6b60408201527f656e206361700000000000000000000000000000000000000000000000000000606082015260800190565b60208082526039908201527f43616c6c696e6720636f6e7472616374206973206e6f7420616e20617574686f60408201527f72697a6564206d617267696e20747261646572206167656e7400000000000000606082015260800190565b60208082526018908201527f43616e277420626f72726f772066756c6c20616d6f756e740000000000000000604082015260600190565b60208082526026908201527f4f776e61626c653a206e6577206f776e657220697320746865207a65726f206160408201527f6464726573730000000000000000000000000000000000000000000000000000606082015260800190565b60208082526033908201527f43616c6c696e6720636f6e7472616374206973206e6f7420616e20617574686f60408201527f72697a6564206d617267696e2074726164657200000000000000000000000000606082015260800190565b60208082526026908201527f4163636f756e742062616c616e636520697320746f6f206c6f7720746f20776960408201527f7468647261770000000000000000000000000000000000000000000000000000606082015260800190565b60208082526052908201527f546f2070726576656e742061747461636b7320796f75206d757374207761697460408201527f20756e74696c20796f757220636f6f6c696e67206f666620706572696f64206960608201527f73206f76657220746f2077697468647261770000000000000000000000000000608082015260a00190565b6020808252818101527f4f776e61626c653a2063616c6c6572206973206e6f7420746865206f776e6572604082015260600190565b60208082526039908201527f457863656564696e6720676c6f62616c206578706f737572652063617020746f60408201527f20746f6b656e202d2d2074727920616761696e206c6174657200000000000000606082015260800190565b60208082526022908201527f43616e277420626f72726f773a20696e73756666696369656e742062616c616e60408201527f6365000000000000000000000000000000000000000000000000000000000000606082015260800190565b6020808252602a908201527f43616c6c696e6720636f6e7472616374206e6f7420617574686f72697a65642060408201527f746f206465706f73697400000000000000000000000000000000000000000000606082015260800190565b61ffff91909116815260200190565b61ffff92909216825273ffffffffffffffffffffffffffffffffffffffff16602082015260400190565b90815260200190565b92835273ffffffffffffffffffffffffffffffffffffffff919091166020830152604082015260600190565b918252602082015260400190565b60008219821115613bdc57613bdc613ca7565b500190565b600082613c15577f4e487b710000000000000000000000000000000000000000000000000000000081526012600452602481fd5b500490565b6000817fffffffffffffffffffffffffffffffffffffffffffffffffffffffffffffffff0483118215151615613c5257613c52613ca7565b500290565b600082821015613c6957613c69613ca7565b500390565b60007fffffffffffffffffffffffffffffffffffffffffffffffffffffffffffffffff821415613ca057613ca0613ca7565b5060010190565b7f4e487b7100000000000000000000000000000000000000000000000000000000600052601160045260246000fd5b7f4e487b7100000000000000000000000000000000000000000000000000000000600052604160045260246000fd5b73ffffffffffffffffffffffffffffffffffffffff81168114612dc957600080fdfea26469706673582212203e6e6a6c03d7a77342de6ef8d65e213d31ec9ea1bf1abde312c1cc0ae76b9d1264736f6c63430008010033",
  "linkReferences": {},
  "deployedLinkReferences": {}
}