{
  "_format": "hh-sol-artifact-1",
  "contractName": "CrossMarginTrading",
  "sourceName": "contracts/CrossMarginTrading.sol",
  "abi": [
    {
      "inputs": [
        {
          "internalType": "address",
          "name": "_roles",
          "type": "address"
        }
      ],
      "stateMutability": "nonpayable",
      "type": "constructor"
    },
    {
      "anonymous": false,
      "inputs": [
        {
          "indexed": false,
          "internalType": "uint256",
          "name": "amount",
          "type": "uint256"
        }
      ],
      "name": "LiquidationShortfall",
      "type": "event"
    },
    {
      "anonymous": false,
      "inputs": [
        {
          "indexed": true,
          "internalType": "address",
          "name": "previousOwner",
          "type": "address"
        },
        {
          "indexed": true,
          "internalType": "address",
          "name": "newOwner",
          "type": "address"
        }
      ],
      "name": "OwnershipTransferred",
      "type": "event"
    },
    {
      "inputs": [],
      "name": "AUTHORIZED_FUND_TRADER",
      "outputs": [
        {
          "internalType": "uint16",
          "name": "",
          "type": "uint16"
        }
      ],
      "stateMutability": "view",
      "type": "function"
    },
    {
      "inputs": [],
      "name": "BORROWER",
      "outputs": [
        {
          "internalType": "uint16",
          "name": "",
          "type": "uint16"
        }
      ],
      "stateMutability": "view",
      "type": "function"
    },
    {
      "inputs": [],
      "name": "FEE_CONTROLLER",
      "outputs": [
        {
          "internalType": "uint16",
          "name": "",
          "type": "uint16"
        }
      ],
      "stateMutability": "view",
      "type": "function"
    },
    {
      "inputs": [],
      "name": "FEE_SOURCE",
      "outputs": [
        {
          "internalType": "uint16",
          "name": "",
          "type": "uint16"
        }
      ],
      "stateMutability": "view",
      "type": "function"
    },
    {
      "inputs": [],
      "name": "FUND",
      "outputs": [
        {
          "internalType": "uint16",
          "name": "",
          "type": "uint16"
        }
      ],
      "stateMutability": "view",
      "type": "function"
    },
    {
      "inputs": [],
      "name": "INCENTIVE_REPORTER",
      "outputs": [
        {
          "internalType": "uint16",
          "name": "",
          "type": "uint16"
        }
      ],
      "stateMutability": "view",
      "type": "function"
    },
    {
      "inputs": [],
      "name": "LENDING",
      "outputs": [
        {
          "internalType": "uint16",
          "name": "",
          "type": "uint16"
        }
      ],
      "stateMutability": "view",
      "type": "function"
    },
    {
      "inputs": [],
      "name": "LIQUIDATOR",
      "outputs": [
        {
          "internalType": "uint16",
          "name": "",
          "type": "uint16"
        }
      ],
      "stateMutability": "view",
      "type": "function"
    },
    {
      "inputs": [],
      "name": "MARGIN_CALLER",
      "outputs": [
        {
          "internalType": "uint16",
          "name": "",
          "type": "uint16"
        }
      ],
      "stateMutability": "view",
      "type": "function"
    },
    {
      "inputs": [],
      "name": "MARGIN_TRADER",
      "outputs": [
        {
          "internalType": "uint16",
          "name": "",
          "type": "uint16"
        }
      ],
      "stateMutability": "view",
      "type": "function"
    },
    {
      "inputs": [],
      "name": "MARGIN_TRADING",
      "outputs": [
        {
          "internalType": "uint16",
          "name": "",
          "type": "uint16"
        }
      ],
      "stateMutability": "view",
      "type": "function"
    },
    {
      "inputs": [],
      "name": "PRICE_CONTROLLER",
      "outputs": [
        {
          "internalType": "uint16",
          "name": "",
          "type": "uint16"
        }
      ],
      "stateMutability": "view",
      "type": "function"
    },
    {
      "inputs": [],
      "name": "ROUTER",
      "outputs": [
        {
          "internalType": "uint16",
          "name": "",
          "type": "uint16"
        }
      ],
      "stateMutability": "view",
      "type": "function"
    },
    {
      "inputs": [],
      "name": "TOKEN_ACTIVATOR",
      "outputs": [
        {
          "internalType": "uint16",
          "name": "",
          "type": "uint16"
        }
      ],
      "stateMutability": "view",
      "type": "function"
    },
    {
      "inputs": [],
      "name": "WITHDRAWER",
      "outputs": [
        {
          "internalType": "uint16",
          "name": "",
          "type": "uint16"
        }
      ],
      "stateMutability": "view",
      "type": "function"
    },
    {
      "inputs": [
        {
          "internalType": "address[]",
          "name": "liquidationCandidates",
          "type": "address[]"
        },
        {
          "internalType": "address",
          "name": "currentCaller",
          "type": "address"
        },
        {
          "internalType": "bool",
          "name": "isAuthorized",
          "type": "bool"
        }
      ],
      "name": "callMargin",
      "outputs": [
        {
          "internalType": "uint256",
          "name": "marginCallerCut",
          "type": "uint256"
        }
      ],
      "stateMutability": "nonpayable",
      "type": "function"
    },
    {
      "inputs": [
        {
          "internalType": "address",
          "name": "trader",
          "type": "address"
        }
      ],
      "name": "getBorrowAmounts",
      "outputs": [
        {
          "internalType": "address[]",
          "name": "borrowTokens",
          "type": "address[]"
        },
        {
          "internalType": "uint256[]",
          "name": "borrowAmounts",
          "type": "uint256[]"
        }
      ],
      "stateMutability": "view",
      "type": "function"
    },
    {
      "inputs": [
        {
          "internalType": "address",
          "name": "trader",
          "type": "address"
        }
      ],
      "name": "getHoldingAmounts",
      "outputs": [
        {
          "internalType": "address[]",
          "name": "holdingTokens",
          "type": "address[]"
        },
        {
          "internalType": "uint256[]",
          "name": "holdingAmounts",
          "type": "uint256[]"
        }
      ],
      "stateMutability": "view",
      "type": "function"
    },
    {
      "inputs": [
        {
          "internalType": "address",
          "name": "trader",
          "type": "address"
        },
        {
          "internalType": "address",
          "name": "token",
          "type": "address"
        },
        {
          "internalType": "uint256",
          "name": "amount",
          "type": "uint256"
        }
      ],
      "name": "getTradeBorrowAmount",
      "outputs": [
        {
          "internalType": "uint256",
          "name": "borrowAmount",
          "type": "uint256"
        }
      ],
      "stateMutability": "view",
      "type": "function"
    },
    {
      "inputs": [],
      "name": "leverage",
      "outputs": [
        {
          "internalType": "uint256",
          "name": "",
          "type": "uint256"
        }
      ],
      "stateMutability": "view",
      "type": "function"
    },
    {
      "inputs": [],
      "name": "liquidationThresholdPercent",
      "outputs": [
        {
          "internalType": "uint256",
          "name": "",
          "type": "uint256"
        }
      ],
      "stateMutability": "view",
      "type": "function"
    },
    {
      "inputs": [],
      "name": "owner",
      "outputs": [
        {
          "internalType": "address",
          "name": "",
          "type": "address"
        }
      ],
      "stateMutability": "view",
      "type": "function"
    },
    {
      "inputs": [
        {
          "internalType": "address",
          "name": "trader",
          "type": "address"
        },
        {
          "internalType": "address",
          "name": "borrowToken",
          "type": "address"
        },
        {
          "internalType": "uint256",
          "name": "borrowAmount",
          "type": "uint256"
        }
      ],
      "name": "registerBorrow",
      "outputs": [],
      "stateMutability": "nonpayable",
      "type": "function"
    },
    {
      "inputs": [
        {
          "internalType": "address",
          "name": "trader",
          "type": "address"
        },
        {
          "internalType": "address",
          "name": "token",
          "type": "address"
        },
        {
          "internalType": "uint256",
          "name": "depositAmount",
          "type": "uint256"
        }
      ],
      "name": "registerDeposit",
      "outputs": [
        {
          "internalType": "uint256",
          "name": "extinguishableDebt",
          "type": "uint256"
        }
      ],
      "stateMutability": "nonpayable",
      "type": "function"
    },
    {
      "inputs": [
        {
          "internalType": "address",
          "name": "trader",
          "type": "address"
        },
        {
          "internalType": "address",
          "name": "debtToken",
          "type": "address"
        },
        {
          "internalType": "uint256",
          "name": "extinguishAmount",
          "type": "uint256"
        }
      ],
      "name": "registerPayOff",
      "outputs": [],
      "stateMutability": "nonpayable",
      "type": "function"
    },
    {
      "inputs": [
        {
          "internalType": "address",
          "name": "trader",
          "type": "address"
        },
        {
          "internalType": "address",
          "name": "tokenFrom",
          "type": "address"
        },
        {
          "internalType": "address",
          "name": "tokenTo",
          "type": "address"
        },
        {
          "internalType": "uint256",
          "name": "inAmount",
          "type": "uint256"
        },
        {
          "internalType": "uint256",
          "name": "outAmount",
          "type": "uint256"
        }
      ],
      "name": "registerTradeAndBorrow",
      "outputs": [
        {
          "internalType": "uint256",
          "name": "extinguishableDebt",
          "type": "uint256"
        },
        {
          "internalType": "uint256",
          "name": "borrowAmount",
          "type": "uint256"
        }
      ],
      "stateMutability": "nonpayable",
      "type": "function"
    },
    {
      "inputs": [
        {
          "internalType": "address",
          "name": "trader",
          "type": "address"
        },
        {
          "internalType": "address",
          "name": "withdrawToken",
          "type": "address"
        },
        {
          "internalType": "uint256",
          "name": "withdrawAmount",
          "type": "uint256"
        }
      ],
      "name": "registerWithdrawal",
      "outputs": [],
      "stateMutability": "nonpayable",
      "type": "function"
    },
    {
      "inputs": [],
      "name": "renounceOwnership",
      "outputs": [],
      "stateMutability": "nonpayable",
      "type": "function"
    },
    {
      "inputs": [],
      "name": "roles",
      "outputs": [
        {
          "internalType": "contract Roles",
          "name": "",
          "type": "address"
        }
      ],
      "stateMutability": "view",
      "type": "function"
    },
    {
      "inputs": [
        {
          "internalType": "uint256",
          "name": "_leverage",
          "type": "uint256"
        }
      ],
      "name": "setLeverage",
      "outputs": [],
      "stateMutability": "nonpayable",
      "type": "function"
    },
    {
      "inputs": [
        {
          "internalType": "uint256",
          "name": "threshold",
          "type": "uint256"
        }
      ],
      "name": "setLiquidationThresholdPercent",
      "outputs": [],
      "stateMutability": "nonpayable",
      "type": "function"
    },
    {
      "inputs": [
        {
          "internalType": "address",
          "name": "token",
          "type": "address"
        },
        {
          "internalType": "uint256",
          "name": "cap",
          "type": "uint256"
        }
      ],
      "name": "setTokenCap",
      "outputs": [],
      "stateMutability": "nonpayable",
      "type": "function"
    },
    {
      "inputs": [
        {
          "internalType": "address",
          "name": "",
          "type": "address"
        }
      ],
      "name": "tokenCaps",
      "outputs": [
        {
          "internalType": "uint256",
          "name": "",
          "type": "uint256"
        }
      ],
      "stateMutability": "view",
      "type": "function"
    },
    {
      "inputs": [
        {
          "internalType": "address",
          "name": "",
          "type": "address"
        }
      ],
      "name": "totalLong",
      "outputs": [
        {
          "internalType": "uint256",
          "name": "",
          "type": "uint256"
        }
      ],
      "stateMutability": "view",
      "type": "function"
    },
    {
      "inputs": [
        {
          "internalType": "address",
          "name": "",
          "type": "address"
        }
      ],
      "name": "totalShort",
      "outputs": [
        {
          "internalType": "uint256",
          "name": "",
          "type": "uint256"
        }
      ],
      "stateMutability": "view",
      "type": "function"
    },
    {
      "inputs": [
        {
          "internalType": "address",
          "name": "newOwner",
          "type": "address"
        }
      ],
      "name": "transferOwnership",
      "outputs": [],
      "stateMutability": "nonpayable",
      "type": "function"
    }
  ],
  "bytecode": "0x60806040526050600d553480156200001657600080fd5b5060405162003d3e38038062003d3e8339810160408190526200003991620000bc565b600080546001600160a01b0319166001600160a01b0383161781556200005e620000b8565b600180546001600160a01b0319166001600160a01b038316908117909155604051919250906000907f8be0079c531659141344cd1fd0a4f28419497f9722a3daafe3b4186f6b6457e0908290a350506014600355620000ec565b3390565b600060208284031215620000ce578081fd5b81516001600160a01b0381168114620000e5578182fd5b9392505050565b613c4280620000fc6000396000f3fe608060405234801561001057600080fd5b506004361061025c5760003560e01c80636694198411610145578063a9cc0536116100bd578063d0eb66531161008c578063d5d7ed7f11610071578063d5d7ed7f14610451578063e0f3871f14610459578063f2fde38b1461046c5761025c565b8063d0eb66531461042b578063d510c5351461043e5761025c565b8063a9cc0536146103f5578063b25777ad146103fd578063bc44dcbc14610410578063cacf8d45146104235761025c565b806383a49c7c1161011457806395f23a62116100f957806395f23a62146103d2578063a0098d69146103e5578063a94c7c34146103ed5761025c565b806383a49c7c146103c25780638da5cb5b146103ca5761025c565b80636694198414610397578063715018a61461039f57806379575b23146103a757806381ca6600146103ba5761025c565b80633500aa0b116101d857806348fb27b8116101a757806352a664d91161018c57806352a664d9146103695780635c275a391461037c5780636612ce35146103845761025c565b806348fb27b81461034e578063498d55eb146103565761025c565b80633500aa0b146102ef578063392f5f6414610310578063409fdb721461032557806346b88796146103465761025c565b806320c271261161022f5780632fe94def116102145780632fe94def146102d7578063320d2fa0146102df57806332fe7b26146102e75761025c565b806320c27126146102af5780632c86d98e146102cf5761025c565b8063065d570f1461026157806316317e7e1461027f5780631bc5d81d146102945780631d47e4a31461029c575b600080fd5b61026961047f565b6040516102769190613a24565b60405180910390f35b61029261028d36600461353b565b610484565b005b610269610505565b6102926102aa3660046133ee565b61050a565b6102c26102bd366004613315565b610572565b6040516102769190613a5d565b6102c2610584565b61026961058a565b6102c261058f565b610269610595565b6103026102fd366004613354565b61059a565b604051610276929190613a92565b6103186108ae565b604051610276919061356b565b610338610333366004613315565b6108ca565b6040516102769291906135e3565b610269610ac0565b610269610ac5565b6102926103643660046133ae565b610aca565b6102c26103773660046133ae565b610c59565b610269610e1e565b6102c26103923660046133ae565b610e23565b610269610ee7565b610292610eec565b6102926103b536600461353b565b610fce565b610269611046565b61026961104b565b610318611050565b6102c26103e0366004613419565b61106c565b61026961142f565b610269611434565b610269611439565b61029261040b3660046133ae565b61143e565b6102c261041e366004613315565b6114ec565b6102696114fe565b6102926104393660046133ae565b611503565b61033861044c366004613315565b611626565b61026961189e565b6102c2610467366004613315565b6118a3565b61029261047a366004613315565b6118b5565b600381565b61048c611a03565b73ffffffffffffffffffffffffffffffffffffffff166104aa611050565b73ffffffffffffffffffffffffffffffffffffffff1614610500576040517f08c379a00000000000000000000000000000000000000000000000000000000081526004016104f79061387b565b60405180910390fd5b600355565b600881565b61051333611a07565b610549576040517f08c379a00000000000000000000000000000000000000000000000000000000081526004016104f790613673565b73ffffffffffffffffffffffffffffffffffffffff909116600090815260056020526040902055565b60076020526000908152604090205481565b60025481565b606981565b60035481565b606781565b6000806105a633611ab9565b6105dc576040517f08c379a00000000000000000000000000000000000000000000000000000000081526004016104f7906136d0565b73ffffffffffffffffffffffffffffffffffffffff8088166000908152600460209081526040808320938916835260018401909152902054156106945773ffffffffffffffffffffffffffffffffffffffff8616600090815260018201602052604090205461064c908590611b12565b9250610659818785611b2c565b73ffffffffffffffffffffffffffffffffffffffff86166000908152600660205260408120805485929061068e908490613b2e565b90915550505b73ffffffffffffffffffffffffffffffffffffffff8716600090815260076020526040812080548792906106c9908490613b2e565b909155506106d990508385613b2e565b73ffffffffffffffffffffffffffffffffffffffff87166000908152600760205260408120805490919061070e908490613aa0565b909155505073ffffffffffffffffffffffffffffffffffffffff8616600090815260076020908152604080832054600590925290912054101561077d576040517f08c379a00000000000000000000000000000000000000000000000000000000081526004016104f79061390d565b73ffffffffffffffffffffffffffffffffffffffff871660009081526004820160205260409020548590811115610895575073ffffffffffffffffffffffffffffffffffffffff871660009081526004820160205260409020546107e18187613b2e565b73ffffffffffffffffffffffffffffffffffffffff891660009081526006602052604081208054929550859290919061081b908490613aa0565b909155505073ffffffffffffffffffffffffffffffffffffffff8816600090815260066020908152604080832054600590925290912054101561088a576040517f08c379a00000000000000000000000000000000000000000000000000000000081526004016104f79061390d565b610895828985611ca3565b6108a28289898489611f41565b50509550959350505050565b60005473ffffffffffffffffffffffffffffffffffffffff1681565b73ffffffffffffffffffffffffffffffffffffffff811660009081526004602090815260409182902060038101805484518185028101850190955280855260609485949092919083018282801561095757602002820191906000526020600020905b815473ffffffffffffffffffffffffffffffffffffffff16815260019091019060200180831161092c575b5050506003840154929550505067ffffffffffffffff8111156109a3577f4e487b7100000000000000000000000000000000000000000000000000000000600052604160045260246000fd5b6040519080825280602002602001820160405280156109cc578160200160208202803683370190505b50915060005b8084511115610ab9576000848281518110610a16577f4e487b7100000000000000000000000000000000000000000000000000000000600052603260045260246000fd5b602002602001015190508260040160008273ffffffffffffffffffffffffffffffffffffffff1673ffffffffffffffffffffffffffffffffffffffff16815260200190815260200160002054848381518110610a9b577f4e487b7100000000000000000000000000000000000000000000000000000000600052603260045260246000fd5b60209081029190910101525080610ab181613b45565b9150506109d2565b5050915091565b600681565b606681565b610ad333611ab9565b610b09576040517f08c379a00000000000000000000000000000000000000000000000000000000081526004016104f7906139c7565b73ffffffffffffffffffffffffffffffffffffffff821660009081526006602052604081208054839290610b3e908490613aa0565b909155505073ffffffffffffffffffffffffffffffffffffffff821660009081526007602052604081208054839290610b78908490613aa0565b909155505073ffffffffffffffffffffffffffffffffffffffff821660009081526006602090815260408083205460059092529091205410801590610bed575073ffffffffffffffffffffffffffffffffffffffff821660009081526007602090815260408083205460059092529091205410155b610c23576040517f08c379a00000000000000000000000000000000000000000000000000000000081526004016104f79061390d565b73ffffffffffffffffffffffffffffffffffffffff83166000908152600460205260409020610c53818484611ca3565b50505050565b6000610c6433611ab9565b610c9a576040517f08c379a00000000000000000000000000000000000000000000000000000000081526004016104f7906139c7565b73ffffffffffffffffffffffffffffffffffffffff831660009081526007602052604081208054849290610ccf908490613aa0565b909155505073ffffffffffffffffffffffffffffffffffffffff83166000908152600760209081526040808320546005909252909120541015610d3e576040517f08c379a00000000000000000000000000000000000000000000000000000000081526004016104f79061390d565b73ffffffffffffffffffffffffffffffffffffffff84166000908152600460205260409020610d6e818585611fae565b73ffffffffffffffffffffffffffffffffffffffff8416600090815260018201602052604090205415610e165773ffffffffffffffffffffffffffffffffffffffff84166000908152600182016020526040902054610dce908490611b12565b9150610ddb818584611b2c565b73ffffffffffffffffffffffffffffffffffffffff841660009081526006602052604081208054849290610e10908490613b2e565b90915550505b509392505050565b606581565b6000610e2e33611ab9565b610e64576040517f08c379a00000000000000000000000000000000000000000000000000000000081526004016104f7906137c1565b73ffffffffffffffffffffffffffffffffffffffff808516600090815260046020818152604080842094881684529184019052902054610ea49084613b2e565b9150610eb1818584612053565b610e16576040517f08c379a00000000000000000000000000000000000000000000000000000000081526004016104f79061372d565b600181565b610ef4611a03565b73ffffffffffffffffffffffffffffffffffffffff16610f12611050565b73ffffffffffffffffffffffffffffffffffffffff1614610f5f576040517f08c379a00000000000000000000000000000000000000000000000000000000081526004016104f79061387b565b60015460405160009173ffffffffffffffffffffffffffffffffffffffff16907f8be0079c531659141344cd1fd0a4f28419497f9722a3daafe3b4186f6b6457e0908390a3600180547fffffffffffffffffffffffff0000000000000000000000000000000000000000169055565b610fd6611a03565b73ffffffffffffffffffffffffffffffffffffffff16610ff4611050565b73ffffffffffffffffffffffffffffffffffffffff1614611041576040517f08c379a00000000000000000000000000000000000000000000000000000000081526004016104f79061387b565b600255565b606a81565b600981565b60015473ffffffffffffffffffffffffffffffffffffffff1690565b600061107733612085565b6110ad576040517f08c379a00000000000000000000000000000000000000000000000000000000081526004016104f7906138b0565b60006110b985846120df565b90506110c58183613aa0565b915060006110d1612830565b905060006110dd61298d565b905081811115611128577f3555ffae7677eb42103f0b9e11b61c758f452fae446684dec7a363dd38ab58fc6111128383613b2e565b60405161111f9190613a5d565b60405180910390a15b60005b600b54811015611424576000600b8281548110611171577f4e487b7100000000000000000000000000000000000000000000000000000000600052603260045260246000fd5b600091825260208083209091015473ffffffffffffffffffffffffffffffffffffffff16808352600490915260408220909250906111ae82612ae3565b905060006111bb83612af5565b90506000600280546064600354856111d39190613af1565b6111dd9190613ab8565b6111e79190613ab8565b6111f19190613ab8565b90508a1561120a57611203818b613aa0565b995061126d565b73ffffffffffffffffffffffffffffffffffffffff8581166000908152600c60205260409020600181018390556002810180547fffffffffffffffffffffffff000000000000000000000000000000000000000016928f16929092179091554390555b6112778282613aa0565b83106113b157611285612b08565b73ffffffffffffffffffffffffffffffffffffffff1663d9caed126112a8612bb5565b73ffffffffffffffffffffffffffffffffffffffff16631f1cb62b6040518163ffffffff1660e01b815260040160206040518083038186803b1580156112ed57600080fd5b505afa158015611301573d6000803e3d6000fd5b505050506040513d601f19601f820116820180604052508101906113259190613338565b87846113318789613b2e565b61133b9190613b2e565b6040518463ffffffff1660e01b81526004016113599392919061358c565b602060405180830381600087803b15801561137357600080fd5b505af1158015611387573d6000803e3d6000fd5b505050506040513d601f19601f820116820180604052508101906113ab919061351f565b50611403565b6000836113be8385613aa0565b6113c89190613b2e565b90507f3555ffae7677eb42103f0b9e11b61c758f452fae446684dec7a363dd38ab58fc816040516113f99190613a5d565b60405180910390a1505b61140c84612c0d565b5050505050808061141c90613b45565b91505061112b565b505050509392505050565b600281565b600581565b606881565b61144733611ab9565b61147d576040517f08c379a00000000000000000000000000000000000000000000000000000000081526004016104f7906139c7565b73ffffffffffffffffffffffffffffffffffffffff8216600090815260066020526040812080548392906114b2908490613b2e565b909155505073ffffffffffffffffffffffffffffffffffffffff831660009081526004602052604090206114e7908383611b2c565b505050565b60066020526000908152604090205481565b600481565b61150c33611ab9565b611542576040517f08c379a00000000000000000000000000000000000000000000000000000000081526004016104f7906139c7565b73ffffffffffffffffffffffffffffffffffffffff80841660009081526004602090815260408083209386168352600790915281208054849290611587908490613b2e565b909155505073ffffffffffffffffffffffffffffffffffffffff831660009081526004820160205260409020546115bf908390613b2e565b73ffffffffffffffffffffffffffffffffffffffff841660009081526004830160205260409020556115f081612d89565b610c53576040517f08c379a00000000000000000000000000000000000000000000000000000000081526004016104f79061381e565b73ffffffffffffffffffffffffffffffffffffffff811660009081526004602090815260409182902080548351818402810184019094528084526060938493909183918301828280156116af57602002820191906000526020600020905b815473ffffffffffffffffffffffffffffffffffffffff168152600190910190602001808311611684575b50508454939650505067ffffffffffffffff82111590506116f9577f4e487b7100000000000000000000000000000000000000000000000000000000600052604160045260246000fd5b604051908082528060200260200182016040528015611722578160200160208202803683370190505b50915060005b8084511115610ab957600084828151811061176c577f4e487b7100000000000000000000000000000000000000000000000000000000600052603260045260246000fd5b6020026020010151905061177e612dd4565b73ffffffffffffffffffffffffffffffffffffffff828116600090815260018601602090815260408083205460028901909252918290205491517f687680ed000000000000000000000000000000000000000000000000000000008152939092169263687680ed926117f7929091869190600401613a66565b60206040518083038186803b15801561180f57600080fd5b505afa158015611823573d6000803e3d6000fd5b505050506040513d601f19601f820116820180604052508101906118479190613553565b848381518110611880577f4e487b7100000000000000000000000000000000000000000000000000000000600052603260045260246000fd5b6020908102919091010152508061189681613b45565b915050611728565b600781565b60056020526000908152604090205481565b6118bd611a03565b73ffffffffffffffffffffffffffffffffffffffff166118db611050565b73ffffffffffffffffffffffffffffffffffffffff1614611928576040517f08c379a00000000000000000000000000000000000000000000000000000000081526004016104f79061387b565b73ffffffffffffffffffffffffffffffffffffffff8116611975576040517f08c379a00000000000000000000000000000000000000000000000000000000081526004016104f790613764565b60015460405173ffffffffffffffffffffffffffffffffffffffff8084169216907f8be0079c531659141344cd1fd0a4f28419497f9722a3daafe3b4186f6b6457e090600090a3600180547fffffffffffffffffffffffff00000000000000000000000000000000000000001673ffffffffffffffffffffffffffffffffffffffff92909216919091179055565b3390565b600080546040517fd87fefd200000000000000000000000000000000000000000000000000000000815273ffffffffffffffffffffffffffffffffffffffff9091169063d87fefd290611a61906009908690600401613a33565b60206040518083038186803b158015611a7957600080fd5b505afa158015611a8d573d6000803e3d6000fd5b505050506040513d601f19601f82011682018060405250810190611ab1919061351f565b90505b919050565b600080546040517fd87fefd200000000000000000000000000000000000000000000000000000000815273ffffffffffffffffffffffffffffffffffffffff9091169063d87fefd290611a619060049086908201613a33565b600081831115611b23575080611b26565b50815b92915050565b611b34612dd4565b73ffffffffffffffffffffffffffffffffffffffff838116600090815260018601602090815260408083205460028901909252918290205491517fe695fa68000000000000000000000000000000000000000000000000000000008152939092169263e695fa6892611bad929091879190600401613a66565b602060405180830381600087803b158015611bc757600080fd5b505af1158015611bdb573d6000803e3d6000fd5b505050506040513d601f19601f82011682018060405250810190611bff9190613553565b73ffffffffffffffffffffffffffffffffffffffff831660009081526001850160205260409020819055611c34908290613b2e565b73ffffffffffffffffffffffffffffffffffffffff831660009081526001850160209081526040808320939093556004860190522054611c75908290613b2e565b73ffffffffffffffffffffffffffffffffffffffff9092166000908152600490930160205250604090912055565b611cad8383612e2c565b611dbe5782546001810184556000848152602090200180547fffffffffffffffffffffffff00000000000000000000000000000000000000001673ffffffffffffffffffffffffffffffffffffffff8416179055611d09612dd4565b73ffffffffffffffffffffffffffffffffffffffff1663e7bde5c1836040518263ffffffff1660e01b8152600401611d41919061356b565b60206040518083038186803b158015611d5957600080fd5b505afa158015611d6d573d6000803e3d6000fd5b505050506040513d601f19601f82011682018060405250810190611d919190613553565b73ffffffffffffffffffffffffffffffffffffffff83166000908152600285016020526040902055611eba565b611dc6612dd4565b73ffffffffffffffffffffffffffffffffffffffff838116600090815260018601602090815260408083205460028901909252918290205491517fe695fa68000000000000000000000000000000000000000000000000000000008152939092169263e695fa6892611e3f929091879190600401613a66565b602060405180830381600087803b158015611e5957600080fd5b505af1158015611e6d573d6000803e3d6000fd5b505050506040513d601f19601f82011682018060405250810190611e919190613553565b73ffffffffffffffffffffffffffffffffffffffff831660009081526001850160205260409020555b73ffffffffffffffffffffffffffffffffffffffff8216600090815260018401602052604081208054839290611ef1908490613aa0565b90915550611f029050838383611fae565b611f0b83612d89565b6114e7576040517f08c379a00000000000000000000000000000000000000000000000000000000081526004016104f79061396a565b73ffffffffffffffffffffffffffffffffffffffff84166000908152600486016020526040902054611f74908390613b2e565b73ffffffffffffffffffffffffffffffffffffffff85166000908152600487016020526040902055611fa7858483611fae565b5050505050565b611fb88383612e5a565b61201257600383018054600181018255600091825260209091200180547fffffffffffffffffffffffff00000000000000000000000000000000000000001673ffffffffffffffffffffffffffffffffffffffff84161790555b73ffffffffffffffffffffffffffffffffffffffff8216600090815260048401602052604081208054839290612049908490613aa0565b9091555050505050565b73ffffffffffffffffffffffffffffffffffffffff821660009081526004840160205260409020548111159392505050565b600080546040517fd87fefd200000000000000000000000000000000000000000000000000000000815273ffffffffffffffffffffffffffffffffffffffff9091169063d87fefd290611a61906002908690600401613a33565b604080516000808252602082019283905290519091612101916009919061324a565b50604080516000815260208101918290525161211f91600a9161324a565b50604080516000815260208101918290525161213d91600b9161324a565b5060005b8084511115612829576000848281518110612185577f4e487b7100000000000000000000000000000000000000000000000000000000600052603260045260246000fd5b602002602001015190506000600460008373ffffffffffffffffffffffffffffffffffffffff1673ffffffffffffffffffffffffffffffffffffffff16815260200190815260200160002090506121db81612e89565b156125ea57600b805460018101825560009182527f0175b7a638427703f0dbe7bb9bbf987a2551717b34e79f33b5b1008d1fa01db90180547fffffffffffffffffffffffff00000000000000000000000000000000000000001673ffffffffffffffffffffffffffffffffffffffff85161790555b60038201548110156123c857600082600301828154811061229a577f4e487b7100000000000000000000000000000000000000000000000000000000600052603260045260246000fd5b600091825260208083209091015473ffffffffffffffffffffffffffffffffffffffff168083526008909152604090912060028101549192509043146123705773ffffffffffffffffffffffffffffffffffffffff821660008181526004860160205260408120546001808501919091558184554360028501556009805491820181559091527f6e1540171b6c0c960b71a7020d9f60077f6af931a8bbf590da0223dacf75c7af0180547fffffffffffffffffffffffff00000000000000000000000000000000000000001690911790556123b3565b73ffffffffffffffffffffffffffffffffffffffff82166000908152600485016020526040812054600183018054919290916123ad908490613aa0565b90915550505b505080806123c090613b45565b915050612250565b5060005b81548110156125e8576000826000018281548110612413577f4e487b7100000000000000000000000000000000000000000000000000000000600052603260045260246000fd5b600091825260208083209091015473ffffffffffffffffffffffffffffffffffffffff168083526008909152604082209092509061244f612dd4565b73ffffffffffffffffffffffffffffffffffffffff1663e7bde5c1846040518263ffffffff1660e01b8152600401612487919061356b565b60206040518083038186803b15801561249f57600080fd5b505afa1580156124b3573d6000803e3d6000fd5b505050506040513d601f19601f820116820180604052508101906124d79190613553565b73ffffffffffffffffffffffffffffffffffffffff8416600090815260028701602090815260408083205460018a01909252822054929350909161251c908490613af1565b6125269190613ab8565b9050438360020154146125b75760006001848101829055828555436002860155600a805491820181559091527fc65a7bb8d6351c1cf70c95a316cc6a92839c986682d98bc35f958f4883f9d2a80180547fffffffffffffffffffffffff00000000000000000000000000000000000000001673ffffffffffffffffffffffffffffffffffffffff86161790556125d1565b808360000160008282546125cb9190613aa0565b90915550505b5050505080806125e090613b45565b9150506123cc565b505b73ffffffffffffffffffffffffffffffffffffffff82166000908152600c6020526040902060018101541580159061261f5750855b1561281357805460009061264a90612638436001613aa0565b6126429190613b2e565b600d54611b12565b90506000600d548360010154836126619190613af1565b61266b9190613ab8565b9050612675612b08565b73ffffffffffffffffffffffffffffffffffffffff1663d9caed12612698612bb5565b73ffffffffffffffffffffffffffffffffffffffff16631f1cb62b6040518163ffffffff1660e01b815260040160206040518083038186803b1580156126dd57600080fd5b505afa1580156126f1573d6000803e3d6000fd5b505050506040513d601f19601f820116820180604052508101906127159190613338565b60028601546040517fffffffff0000000000000000000000000000000000000000000000000000000060e085901b16815261276c929173ffffffffffffffffffffffffffffffffffffffff1690869060040161358c565b602060405180830381600087803b15801561278657600080fd5b505af115801561279a573d6000803e3d6000fd5b505050506040513d601f19601f820116820180604052508101906127be919061351f565b508083600101546127cf9190613b2e565b6127d99088613aa0565b6000600185018190556002850180547fffffffffffffffffffffffff00000000000000000000000000000000000000001690558455965050505b505050808061282190613b45565b915050612141565b5092915050565b6000805b6009548110156129895760006009828154811061287a577f4e487b7100000000000000000000000000000000000000000000000000000000600052603260045260246000fd5b600091825260208083209091015473ffffffffffffffffffffffffffffffffffffffff1680835260089091526040909120805460018201549293509091111561297457805460018201546000916128d091613b2e565b90506128da612bb5565b73ffffffffffffffffffffffffffffffffffffffff166305883f7c84836040518363ffffffff1660e01b81526004016129149291906135bd565b602060405180830381600087803b15801561292e57600080fd5b505af1158015612942573d6000803e3d6000fd5b505050506040513d601f19601f820116820180604052508101906129669190613553565b6129709086613aa0565b9450505b5050808061298190613b45565b915050612834565b5090565b6000805b600a54811015612989576000600a82815481106129d7577f4e487b7100000000000000000000000000000000000000000000000000000000600052603260045260246000fd5b600091825260208083209091015473ffffffffffffffffffffffffffffffffffffffff16808352600890915260409091206001810154815492935090911115612ace57612a22612bb5565b73ffffffffffffffffffffffffffffffffffffffff166305883f7c8383600101548460000154612a529190613b2e565b6040518363ffffffff1660e01b8152600401612a6f9291906135bd565b602060405180830381600087803b158015612a8957600080fd5b505af1158015612a9d573d6000803e3d6000fd5b505050506040513d601f19601f82011682018060405250810190612ac19190613553565b612acb9085613aa0565b93505b50508080612adb90613b45565b915050612991565b6000611ab18260030183600401612ee3565b6000611ab1826001810160028201613031565b600080546040517f3c9c8f9c00000000000000000000000000000000000000000000000000000000815273ffffffffffffffffffffffffffffffffffffffff90911690633c9c8f9c90612b6090606590600401613a24565b60206040518083038186803b158015612b7857600080fd5b505afa158015612b8c573d6000803e3d6000fd5b505050506040513d601f19601f82011682018060405250810190612bb09190613338565b905090565b600080546040517f3c9c8f9c00000000000000000000000000000000000000000000000000000000815273ffffffffffffffffffffffffffffffffffffffff90911690633c9c8f9c90612b6090606a90600401613a24565b60005b8154811015612ca8576000826000018281548110612c57577f4e487b7100000000000000000000000000000000000000000000000000000000600052603260045260246000fd5b600091825260208083209091015473ffffffffffffffffffffffffffffffffffffffff1682526001850181526040808320839055600286019091528120555080612ca081613b45565b915050612c10565b5060005b6003820154811015612d6c576000826003018281548110612cf6577f4e487b7100000000000000000000000000000000000000000000000000000000600052603260045260246000fd5b600091825260208083209091015473ffffffffffffffffffffffffffffffffffffffff168252600485018152604080832083905560058601909152902080547fffffffffffffffffffffffffffffffffffffffffffffffffffffffffffffff001690555080612d6481613b45565b915050612cac565b50612d788160006132d0565b612d866003820160006132d0565b50565b600080612d9583612af5565b90506000612da284612ae3565b905060025482612db29190613af1565b600254612dc0906001613aa0565b612dca9083613af1565b1015949350505050565b600080546040517f3c9c8f9c00000000000000000000000000000000000000000000000000000000815273ffffffffffffffffffffffffffffffffffffffff90911690633c9c8f9c90612b6090606690600401613a24565b73ffffffffffffffffffffffffffffffffffffffff1660009081526002919091016020526040902054151590565b73ffffffffffffffffffffffffffffffffffffffff166000908152600591909101602052604090205460ff1690565b600080612e9583612af5565b90506000612ea284612ae3565b9050816003546002546064612eb79190613af1565b612ec19190613aa0565b612ecb9190613af1565b600254612ed89083613af1565b612dca906064613af1565b6000805b8354811015612829576000848281548110612f2b577f4e487b7100000000000000000000000000000000000000000000000000000000600052603260045260246000fd5b60009182526020909120015473ffffffffffffffffffffffffffffffffffffffff169050612f57612bb5565b73ffffffffffffffffffffffffffffffffffffffff828116600090815260208790526040908190205490517fe47109a9000000000000000000000000000000000000000000000000000000008152929091169163e47109a991612fbf918591906004016135bd565b602060405180830381600087803b158015612fd957600080fd5b505af1158015612fed573d6000803e3d6000fd5b505050506040513d601f19601f820116820180604052508101906130119190613553565b61301b9084613aa0565b925050808061302990613b45565b915050612ee7565b6000805b8454811015610e16576000858281548110613079577f4e487b7100000000000000000000000000000000000000000000000000000000600052603260045260246000fd5b600091825260208083209091015473ffffffffffffffffffffffffffffffffffffffff16808352908790526040909120549091506130b9908290866130d9565b6130c39084613aa0565b92505080806130d190613b45565b915050613035565b6000806130e4612dd4565b73ffffffffffffffffffffffffffffffffffffffff1663e7bde5c1866040518263ffffffff1660e01b815260040161311c919061356b565b60206040518083038186803b15801561313457600080fd5b505afa158015613148573d6000803e3d6000fd5b505050506040513d601f19601f8201168201806040525081019061316c9190613553565b73ffffffffffffffffffffffffffffffffffffffff8616600090815260208590526040812054919250906131a08387613af1565b6131aa9190613ab8565b90506131b4612bb5565b73ffffffffffffffffffffffffffffffffffffffff1663e47109a987836040518363ffffffff1660e01b81526004016131ee9291906135bd565b602060405180830381600087803b15801561320857600080fd5b505af115801561321c573d6000803e3d6000fd5b505050506040513d601f19601f820116820180604052508101906132409190613553565b9695505050505050565b8280548282559060005260206000209081019282156132c4579160200282015b828111156132c457825182547fffffffffffffffffffffffff00000000000000000000000000000000000000001673ffffffffffffffffffffffffffffffffffffffff90911617825560209092019160019091019061326a565b506129899291506132ea565b5080546000825590600052602060002090810190612d8691905b5b8082111561298957600081556001016132eb565b8035611ab481613bdc565b8035611ab481613bfe565b600060208284031215613326578081fd5b813561333181613bdc565b9392505050565b600060208284031215613349578081fd5b815161333181613bdc565b600080600080600060a0868803121561336b578081fd5b853561337681613bdc565b9450602086013561338681613bdc565b9350604086013561339681613bdc565b94979396509394606081013594506080013592915050565b6000806000606084860312156133c2578283fd5b83356133cd81613bdc565b925060208401356133dd81613bdc565b929592945050506040919091013590565b60008060408385031215613400578182fd5b823561340b81613bdc565b946020939093013593505050565b60008060006060848603121561342d578283fd5b833567ffffffffffffffff80821115613444578485fd5b818601915086601f830112613457578485fd5b813560208282111561346b5761346b613bad565b8082026040517fffffffffffffffffffffffffffffffffffffffffffffffffffffffffffffffe0603f830116810181811086821117156134ad576134ad613bad565b604052838152828101945085830182870184018c10156134cb57898afd5b8996505b848710156134f4576134e0816132ff565b8652600196909601959483019483016134cf565b50975061350490508882016132ff565b9550505050506135166040850161330a565b90509250925092565b600060208284031215613530578081fd5b815161333181613bfe565b60006020828403121561354c578081fd5b5035919050565b600060208284031215613564578081fd5b5051919050565b73ffffffffffffffffffffffffffffffffffffffff91909116815260200190565b73ffffffffffffffffffffffffffffffffffffffff9384168152919092166020820152604081019190915260600190565b73ffffffffffffffffffffffffffffffffffffffff929092168252602082015260400190565b604080825283519082018190526000906020906060840190828701845b8281101561363257815173ffffffffffffffffffffffffffffffffffffffff1684529284019290840190600101613600565b50505083810382850152845180825285830191830190845b818110156136665783518352928401929184019160010161364a565b5090979650505050505050565b60208082526026908201527f43616c6c6572206e6f7420617574686f72697a656420746f2073657420746f6b60408201527f656e206361700000000000000000000000000000000000000000000000000000606082015260800190565b60208082526039908201527f43616c6c696e6720636f6e7472616374206973206e6f7420616e20617574686f60408201527f72697a6564206d617267696e20747261646572206167656e7400000000000000606082015260800190565b60208082526018908201527f43616e277420626f72726f772066756c6c20616d6f756e740000000000000000604082015260600190565b60208082526026908201527f4f776e61626c653a206e6577206f776e657220697320746865207a65726f206160408201527f6464726573730000000000000000000000000000000000000000000000000000606082015260800190565b60208082526033908201527f43616c6c696e6720636f6e7472616374206973206e6f7420616e20617574686f60408201527f72697a6564206d617267696e2074726164657200000000000000000000000000606082015260800190565b60208082526026908201527f4163636f756e742062616c616e636520697320746f6f206c6f7720746f20776960408201527f7468647261770000000000000000000000000000000000000000000000000000606082015260800190565b6020808252818101527f4f776e61626c653a2063616c6c6572206973206e6f7420746865206f776e6572604082015260600190565b6020808252602f908201527f43616c6c696e67206164647265737320646f65736e27742068617665206d617260408201527f67696e2063616c6c657220726f6c650000000000000000000000000000000000606082015260800190565b60208082526039908201527f457863656564696e6720676c6f62616c206578706f737572652063617020746f60408201527f20746f6b656e202d2d2074727920616761696e206c6174657200000000000000606082015260800190565b60208082526022908201527f43616e277420626f72726f773a20696e73756666696369656e742062616c616e60408201527f6365000000000000000000000000000000000000000000000000000000000000606082015260800190565b6020808252602a908201527f43616c6c696e6720636f6e7472616374206e6f7420617574686f72697a65642060408201527f746f206465706f73697400000000000000000000000000000000000000000000606082015260800190565b61ffff91909116815260200190565b61ffff92909216825273ffffffffffffffffffffffffffffffffffffffff16602082015260400190565b90815260200190565b92835273ffffffffffffffffffffffffffffffffffffffff919091166020830152604082015260600190565b918252602082015260400190565b60008219821115613ab357613ab3613b7e565b500190565b600082613aec577f4e487b710000000000000000000000000000000000000000000000000000000081526012600452602481fd5b500490565b6000817fffffffffffffffffffffffffffffffffffffffffffffffffffffffffffffffff0483118215151615613b2957613b29613b7e565b500290565b600082821015613b4057613b40613b7e565b500390565b60007fffffffffffffffffffffffffffffffffffffffffffffffffffffffffffffffff821415613b7757613b77613b7e565b5060010190565b7f4e487b7100000000000000000000000000000000000000000000000000000000600052601160045260246000fd5b7f4e487b7100000000000000000000000000000000000000000000000000000000600052604160045260246000fd5b73ffffffffffffffffffffffffffffffffffffffff81168114612d8657600080fd5b8015158114612d8657600080fdfea26469706673582212202e630c1124ff607289b9db5e70822968076bbcba10722d08eb35260fe332355764736f6c63430008010033",
  "linkReferences": {},
  "deployedLinkReferences": {}
}