{
  "_format": "hh-sol-artifact-1",
  "contractName": "CrossMarginTrading",
  "sourceName": "contracts/CrossMarginTrading.sol",
  "abi": [
    {
      "inputs": [
        {
          "internalType": "address",
          "name": "_roles",
          "type": "address"
        }
      ],
      "stateMutability": "nonpayable",
      "type": "constructor"
    },
    {
      "anonymous": false,
      "inputs": [
        {
          "indexed": false,
          "internalType": "uint256",
          "name": "amount",
          "type": "uint256"
        }
      ],
      "name": "LiquidationShortfall",
      "type": "event"
    },
    {
      "anonymous": false,
      "inputs": [
        {
          "indexed": true,
          "internalType": "address",
          "name": "previousOwner",
          "type": "address"
        },
        {
          "indexed": true,
          "internalType": "address",
          "name": "newOwner",
          "type": "address"
        }
      ],
      "name": "OwnershipTransferred",
      "type": "event"
    },
    {
      "inputs": [],
      "name": "AUTHORIZED_FUND_TRADER",
      "outputs": [
        {
          "internalType": "uint16",
          "name": "",
          "type": "uint16"
        }
      ],
      "stateMutability": "view",
      "type": "function"
    },
    {
      "inputs": [],
      "name": "BORROWER",
      "outputs": [
        {
          "internalType": "uint16",
          "name": "",
          "type": "uint16"
        }
      ],
      "stateMutability": "view",
      "type": "function"
    },
    {
      "inputs": [],
      "name": "FEE_CONTROLLER",
      "outputs": [
        {
          "internalType": "uint16",
          "name": "",
          "type": "uint16"
        }
      ],
      "stateMutability": "view",
      "type": "function"
    },
    {
      "inputs": [],
      "name": "FEE_SOURCE",
      "outputs": [
        {
          "internalType": "uint16",
          "name": "",
          "type": "uint16"
        }
      ],
      "stateMutability": "view",
      "type": "function"
    },
    {
      "inputs": [],
      "name": "FUND",
      "outputs": [
        {
          "internalType": "uint16",
          "name": "",
          "type": "uint16"
        }
      ],
      "stateMutability": "view",
      "type": "function"
    },
    {
      "inputs": [],
      "name": "INCENTIVE_REPORTER",
      "outputs": [
        {
          "internalType": "uint16",
          "name": "",
          "type": "uint16"
        }
      ],
      "stateMutability": "view",
      "type": "function"
    },
    {
      "inputs": [],
      "name": "LENDING",
      "outputs": [
        {
          "internalType": "uint16",
          "name": "",
          "type": "uint16"
        }
      ],
      "stateMutability": "view",
      "type": "function"
    },
    {
      "inputs": [],
      "name": "LIQUIDATOR",
      "outputs": [
        {
          "internalType": "uint16",
          "name": "",
          "type": "uint16"
        }
      ],
      "stateMutability": "view",
      "type": "function"
    },
    {
      "inputs": [],
      "name": "MARGIN_CALLER",
      "outputs": [
        {
          "internalType": "uint16",
          "name": "",
          "type": "uint16"
        }
      ],
      "stateMutability": "view",
      "type": "function"
    },
    {
      "inputs": [],
      "name": "MARGIN_TRADER",
      "outputs": [
        {
          "internalType": "uint16",
          "name": "",
          "type": "uint16"
        }
      ],
      "stateMutability": "view",
      "type": "function"
    },
    {
      "inputs": [],
      "name": "MARGIN_TRADING",
      "outputs": [
        {
          "internalType": "uint16",
          "name": "",
          "type": "uint16"
        }
      ],
      "stateMutability": "view",
      "type": "function"
    },
    {
      "inputs": [],
      "name": "PRICE_CONTROLLER",
      "outputs": [
        {
          "internalType": "uint16",
          "name": "",
          "type": "uint16"
        }
      ],
      "stateMutability": "view",
      "type": "function"
    },
    {
      "inputs": [],
      "name": "ROUTER",
      "outputs": [
        {
          "internalType": "uint16",
          "name": "",
          "type": "uint16"
        }
      ],
      "stateMutability": "view",
      "type": "function"
    },
    {
      "inputs": [],
      "name": "WITHDRAWER",
      "outputs": [
        {
          "internalType": "uint16",
          "name": "",
          "type": "uint16"
        }
      ],
      "stateMutability": "view",
      "type": "function"
    },
    {
      "inputs": [
        {
          "internalType": "address[]",
          "name": "liquidationCandidates",
          "type": "address[]"
        },
        {
          "internalType": "address",
          "name": "currentCaller",
          "type": "address"
        },
        {
          "internalType": "bool",
          "name": "isAuthorized",
          "type": "bool"
        }
      ],
      "name": "callMargin",
      "outputs": [
        {
          "internalType": "uint256",
          "name": "marginCallerCut",
          "type": "uint256"
        }
      ],
      "stateMutability": "nonpayable",
      "type": "function"
    },
    {
      "inputs": [
        {
          "internalType": "address",
          "name": "trader",
          "type": "address"
        }
      ],
      "name": "getBorrowAmounts",
      "outputs": [
        {
          "internalType": "address[]",
          "name": "borrowTokens",
          "type": "address[]"
        },
        {
          "internalType": "uint256[]",
          "name": "borrowAmounts",
          "type": "uint256[]"
        }
      ],
      "stateMutability": "view",
      "type": "function"
    },
    {
      "inputs": [
        {
          "internalType": "address",
          "name": "trader",
          "type": "address"
        }
      ],
      "name": "getHoldingAmounts",
      "outputs": [
        {
          "internalType": "address[]",
          "name": "holdingTokens",
          "type": "address[]"
        },
        {
          "internalType": "uint256[]",
          "name": "holdingAmounts",
          "type": "uint256[]"
        }
      ],
      "stateMutability": "view",
      "type": "function"
    },
    {
      "inputs": [
        {
          "internalType": "address",
          "name": "trader",
          "type": "address"
        },
        {
          "internalType": "address",
          "name": "token",
          "type": "address"
        },
        {
          "internalType": "uint256",
          "name": "amount",
          "type": "uint256"
        }
      ],
      "name": "getTradeBorrowAmount",
      "outputs": [
        {
          "internalType": "uint256",
          "name": "borrowAmount",
          "type": "uint256"
        }
      ],
      "stateMutability": "view",
      "type": "function"
    },
    {
      "inputs": [],
      "name": "leverage",
      "outputs": [
        {
          "internalType": "uint256",
          "name": "",
          "type": "uint256"
        }
      ],
      "stateMutability": "view",
      "type": "function"
    },
    {
      "inputs": [],
      "name": "liquidationThresholdPercent",
      "outputs": [
        {
          "internalType": "uint256",
          "name": "",
          "type": "uint256"
        }
      ],
      "stateMutability": "view",
      "type": "function"
    },
    {
      "inputs": [],
      "name": "owner",
      "outputs": [
        {
          "internalType": "address",
          "name": "",
          "type": "address"
        }
      ],
      "stateMutability": "view",
      "type": "function"
    },
    {
      "inputs": [
        {
          "internalType": "address",
          "name": "trader",
          "type": "address"
        },
        {
          "internalType": "address",
          "name": "borrowToken",
          "type": "address"
        },
        {
          "internalType": "uint256",
          "name": "borrowAmount",
          "type": "uint256"
        }
      ],
      "name": "registerBorrow",
      "outputs": [],
      "stateMutability": "nonpayable",
      "type": "function"
    },
    {
      "inputs": [
        {
          "internalType": "address",
          "name": "trader",
          "type": "address"
        },
        {
          "internalType": "address",
          "name": "token",
          "type": "address"
        },
        {
          "internalType": "uint256",
          "name": "depositAmount",
          "type": "uint256"
        }
      ],
      "name": "registerDeposit",
      "outputs": [
        {
          "internalType": "uint256",
          "name": "extinguishableDebt",
          "type": "uint256"
        }
      ],
      "stateMutability": "nonpayable",
      "type": "function"
    },
    {
      "inputs": [
        {
          "internalType": "address",
          "name": "trader",
          "type": "address"
        },
        {
          "internalType": "address",
          "name": "debtToken",
          "type": "address"
        },
        {
          "internalType": "uint256",
          "name": "extinguishAmount",
          "type": "uint256"
        }
      ],
      "name": "registerPayOff",
      "outputs": [],
      "stateMutability": "nonpayable",
      "type": "function"
    },
    {
      "inputs": [
        {
          "internalType": "address",
          "name": "trader",
          "type": "address"
        },
        {
          "internalType": "address",
          "name": "tokenFrom",
          "type": "address"
        },
        {
          "internalType": "address",
          "name": "tokenTo",
          "type": "address"
        },
        {
          "internalType": "uint256",
          "name": "inAmount",
          "type": "uint256"
        },
        {
          "internalType": "uint256",
          "name": "outAmount",
          "type": "uint256"
        }
      ],
      "name": "registerTradeAndBorrow",
      "outputs": [
        {
          "internalType": "uint256",
          "name": "borrowAmount",
          "type": "uint256"
        }
      ],
      "stateMutability": "nonpayable",
      "type": "function"
    },
    {
      "inputs": [
        {
          "internalType": "address",
          "name": "trader",
          "type": "address"
        },
        {
          "internalType": "address",
          "name": "withdrawToken",
          "type": "address"
        },
        {
          "internalType": "uint256",
          "name": "withdrawAmount",
          "type": "uint256"
        }
      ],
      "name": "registerWithdrawal",
      "outputs": [],
      "stateMutability": "nonpayable",
      "type": "function"
    },
    {
      "inputs": [],
      "name": "renounceOwnership",
      "outputs": [],
      "stateMutability": "nonpayable",
      "type": "function"
    },
    {
      "inputs": [],
      "name": "roles",
      "outputs": [
        {
          "internalType": "contract Roles",
          "name": "",
          "type": "address"
        }
      ],
      "stateMutability": "view",
      "type": "function"
    },
    {
      "inputs": [
        {
          "internalType": "uint256",
          "name": "_leverage",
          "type": "uint256"
        }
      ],
      "name": "setLeverage",
      "outputs": [],
      "stateMutability": "nonpayable",
      "type": "function"
    },
    {
      "inputs": [
        {
          "internalType": "uint256",
          "name": "threshold",
          "type": "uint256"
        }
      ],
      "name": "setLiquidationThresholdPercent",
      "outputs": [],
      "stateMutability": "nonpayable",
      "type": "function"
    },
    {
      "inputs": [
        {
          "internalType": "address",
          "name": "newOwner",
          "type": "address"
        }
      ],
      "name": "transferOwnership",
      "outputs": [],
      "stateMutability": "nonpayable",
      "type": "function"
    }
  ],
  "bytecode": "0x60806040526050600a553480156200001657600080fd5b50604051620035c0380380620035c08339810160408190526200003991620000bc565b600080546001600160a01b0319166001600160a01b0383161781556200005e620000b8565b600180546001600160a01b0319166001600160a01b038316908117909155604051919250906000907f8be0079c531659141344cd1fd0a4f28419497f9722a3daafe3b4186f6b6457e0908290a350506014600355620000ec565b3390565b600060208284031215620000ce578081fd5b81516001600160a01b0381168114620000e5578182fd5b9392505050565b6134c480620000fc6000396000f3fe608060405234801561001057600080fd5b50600436106101e55760003560e01c80636612ce351161010f578063a94c7c34116100a2578063d0eb665311610071578063d0eb665314610365578063d510c53514610378578063d5d7ed7f1461038b578063f2fde38b14610393576101e5565b8063a94c7c341461033a578063a9cc053614610342578063b25777ad1461034a578063cacf8d451461035d576101e5565b806381ca6600116100de57806381ca66001461030f5780638da5cb5b1461031757806395f23a621461031f578063a0098d6914610332576101e5565b80636612ce35146102d957806366941984146102ec578063715018a6146102f457806379575b23146102fc576101e5565b80633500aa0b1161018757806348fb27b81161015657806348fb27b8146102a3578063498d55eb146102ab57806352a664d9146102be5780635c275a39146102d1576101e5565b80633500aa0b14610252578063392f5f6414610265578063409fdb721461027a57806346b887961461029b576101e5565b80632c86d98e116101c35780632c86d98e146102255780632fe94def1461023a578063320d2fa01461024257806332fe7b261461024a576101e5565b8063065d570f146101ea57806316317e7e146102085780631bc5d81d1461021d575b600080fd5b6101f26103a6565b6040516101ff91906132de565b60405180910390f35b61021b610216366004612e85565b6103ab565b005b6101f261042c565b61022d610431565b6040516101ff91906132ed565b6101f2610437565b61022d61043c565b6101f2610442565b61022d610260366004612cc9565b610447565b61026d61051f565b6040516101ff9190612eb5565b61028d610288366004612c8a565b61053b565b6040516101ff929190612f57565b6101f2610731565b6101f2610736565b61021b6102b9366004612d23565b61073b565b61022d6102cc366004612d23565b6107b0565b6101f261088c565b61022d6102e7366004612d23565b610891565b6101f2610955565b61021b61095a565b61021b61030a366004612e85565b610a3c565b6101f2610ab4565b61026d610ab9565b61022d61032d366004612d63565b610ad5565b6101f2610e98565b6101f2610e9d565b6101f2610ea2565b61021b610358366004612d23565b610ea7565b6101f2610f1b565b61021b610373366004612d23565b610f20565b61028d610386366004612c8a565b611007565b6101f261127f565b61021b6103a1366004612c8a565b611284565b600381565b6103b36113d2565b73ffffffffffffffffffffffffffffffffffffffff166103d1610ab9565b73ffffffffffffffffffffffffffffffffffffffff1614610427576040517f08c379a000000000000000000000000000000000000000000000000000000000815260040161041e90613192565b60405180910390fd5b600355565b600881565b60025481565b606981565b60035481565b606781565b6000610452336113d6565b610488576040517f08c379a000000000000000000000000000000000000000000000000000000000815260040161041e90612fe7565b73ffffffffffffffffffffffffffffffffffffffff8087166000908152600460208181526040808420948a16845291840190529020548490811115610507575073ffffffffffffffffffffffffffffffffffffffff861660009081526004820160205260409020546104fa81866133b0565b9250610507828885611487565b6105148288888488611725565b505095945050505050565b60005473ffffffffffffffffffffffffffffffffffffffff1681565b73ffffffffffffffffffffffffffffffffffffffff81166000908152600460209081526040918290206003810180548451818502810185019095528085526060948594909291908301828280156105c857602002820191906000526020600020905b815473ffffffffffffffffffffffffffffffffffffffff16815260019091019060200180831161059d575b5050506003840154929550505067ffffffffffffffff811115610614577f4e487b7100000000000000000000000000000000000000000000000000000000600052604160045260246000fd5b60405190808252806020026020018201604052801561063d578160200160208202803683370190505b50915060005b808451111561072a576000848281518110610687577f4e487b7100000000000000000000000000000000000000000000000000000000600052603260045260246000fd5b602002602001015190508260040160008273ffffffffffffffffffffffffffffffffffffffff1673ffffffffffffffffffffffffffffffffffffffff1681526020019081526020016000205484838151811061070c577f4e487b7100000000000000000000000000000000000000000000000000000000600052603260045260246000fd5b60209081029190910101525080610722816133c7565b915050610643565b5050915091565b600681565b606681565b610744336113d6565b61077a576040517f08c379a000000000000000000000000000000000000000000000000000000000815260040161041e90613281565b73ffffffffffffffffffffffffffffffffffffffff831660009081526004602052604090206107aa818484611487565b50505050565b60006107bb336113d6565b6107f1576040517f08c379a000000000000000000000000000000000000000000000000000000000815260040161041e90613281565b73ffffffffffffffffffffffffffffffffffffffff84166000908152600460205260409020610821818585611792565b73ffffffffffffffffffffffffffffffffffffffff84166000908152600182016020526040902054156108845773ffffffffffffffffffffffffffffffffffffffff84166000908152600182016020526040902054610881908490611837565b91505b509392505050565b606581565b600061089c336113d6565b6108d2576040517f08c379a000000000000000000000000000000000000000000000000000000000815260040161041e906130d8565b73ffffffffffffffffffffffffffffffffffffffff80851660009081526004602081815260408084209488168452918401905290205461091290846133b0565b915061091f818584611851565b610884576040517f08c379a000000000000000000000000000000000000000000000000000000000815260040161041e90613044565b600181565b6109626113d2565b73ffffffffffffffffffffffffffffffffffffffff16610980610ab9565b73ffffffffffffffffffffffffffffffffffffffff16146109cd576040517f08c379a000000000000000000000000000000000000000000000000000000000815260040161041e90613192565b60015460405160009173ffffffffffffffffffffffffffffffffffffffff16907f8be0079c531659141344cd1fd0a4f28419497f9722a3daafe3b4186f6b6457e0908390a3600180547fffffffffffffffffffffffff0000000000000000000000000000000000000000169055565b610a446113d2565b73ffffffffffffffffffffffffffffffffffffffff16610a62610ab9565b73ffffffffffffffffffffffffffffffffffffffff1614610aaf576040517f08c379a000000000000000000000000000000000000000000000000000000000815260040161041e90613192565b600255565b606a81565b60015473ffffffffffffffffffffffffffffffffffffffff1690565b6000610ae033611883565b610b16576040517f08c379a000000000000000000000000000000000000000000000000000000000815260040161041e906131c7565b6000610b2285846118dd565b9050610b2e8183613322565b91506000610b3a61202e565b90506000610b4661218b565b905081811115610b91577f3555ffae7677eb42103f0b9e11b61c758f452fae446684dec7a363dd38ab58fc610b7b83836133b0565b604051610b8891906132ed565b60405180910390a15b60005b600854811015610e8d57600060088281548110610bda577f4e487b7100000000000000000000000000000000000000000000000000000000600052603260045260246000fd5b600091825260208083209091015473ffffffffffffffffffffffffffffffffffffffff1680835260049091526040822090925090610c17826122e1565b90506000610c24836122f3565b9050600060028054606460035485610c3c9190613373565b610c46919061333a565b610c50919061333a565b610c5a919061333a565b90508a15610c7357610c6c818b613322565b9950610cd6565b73ffffffffffffffffffffffffffffffffffffffff8581166000908152600960205260409020600181018390556002810180547fffffffffffffffffffffffff000000000000000000000000000000000000000016928f16929092179091554390555b610ce08282613322565b8310610e1a57610cee612306565b73ffffffffffffffffffffffffffffffffffffffff1663d9caed12610d116123b3565b73ffffffffffffffffffffffffffffffffffffffff16631f1cb62b6040518163ffffffff1660e01b815260040160206040518083038186803b158015610d5657600080fd5b505afa158015610d6a573d6000803e3d6000fd5b505050506040513d601f19601f82011682018060405250810190610d8e9190612cad565b8784610d9a87896133b0565b610da491906133b0565b6040518463ffffffff1660e01b8152600401610dc293929190612ed6565b602060405180830381600087803b158015610ddc57600080fd5b505af1158015610df0573d6000803e3d6000fd5b505050506040513d601f19601f82011682018060405250810190610e149190612e69565b50610e6c565b600083610e278385613322565b610e3191906133b0565b90507f3555ffae7677eb42103f0b9e11b61c758f452fae446684dec7a363dd38ab58fc81604051610e6291906132ed565b60405180910390a1505b610e758461240b565b50505050508080610e85906133c7565b915050610b94565b505050509392505050565b600281565b600581565b606881565b610eb0336113d6565b610ee6576040517f08c379a000000000000000000000000000000000000000000000000000000000815260040161041e90613281565b73ffffffffffffffffffffffffffffffffffffffff83166000908152600460205260409020610f16908383612587565b505050565b600481565b610f29336113d6565b610f5f576040517f08c379a000000000000000000000000000000000000000000000000000000000815260040161041e90613281565b73ffffffffffffffffffffffffffffffffffffffff808416600090815260046020818152604080842094871684529184019052902054610fa09083906133b0565b73ffffffffffffffffffffffffffffffffffffffff84166000908152600483016020526040902055610fd1816126fe565b6107aa576040517f08c379a000000000000000000000000000000000000000000000000000000000815260040161041e90613135565b73ffffffffffffffffffffffffffffffffffffffff8116600090815260046020908152604091829020805483518184028101840190945280845260609384939091839183018282801561109057602002820191906000526020600020905b815473ffffffffffffffffffffffffffffffffffffffff168152600190910190602001808311611065575b50508454939650505067ffffffffffffffff82111590506110da577f4e487b7100000000000000000000000000000000000000000000000000000000600052604160045260246000fd5b604051908082528060200260200182016040528015611103578160200160208202803683370190505b50915060005b808451111561072a57600084828151811061114d577f4e487b7100000000000000000000000000000000000000000000000000000000600052603260045260246000fd5b6020026020010151905061115f612749565b73ffffffffffffffffffffffffffffffffffffffff828116600090815260018601602090815260408083205460028901909252918290205491517f687680ed000000000000000000000000000000000000000000000000000000008152939092169263687680ed926111d89290918691906004016132f6565b60206040518083038186803b1580156111f057600080fd5b505afa158015611204573d6000803e3d6000fd5b505050506040513d601f19601f820116820180604052508101906112289190612e9d565b848381518110611261577f4e487b7100000000000000000000000000000000000000000000000000000000600052603260045260246000fd5b60209081029190910101525080611277816133c7565b915050611109565b600781565b61128c6113d2565b73ffffffffffffffffffffffffffffffffffffffff166112aa610ab9565b73ffffffffffffffffffffffffffffffffffffffff16146112f7576040517f08c379a000000000000000000000000000000000000000000000000000000000815260040161041e90613192565b73ffffffffffffffffffffffffffffffffffffffff8116611344576040517f08c379a000000000000000000000000000000000000000000000000000000000815260040161041e9061307b565b60015460405173ffffffffffffffffffffffffffffffffffffffff8084169216907f8be0079c531659141344cd1fd0a4f28419497f9722a3daafe3b4186f6b6457e090600090a3600180547fffffffffffffffffffffffff00000000000000000000000000000000000000001673ffffffffffffffffffffffffffffffffffffffff92909216919091179055565b3390565b600080546040517f7ecd187e00000000000000000000000000000000000000000000000000000000815273ffffffffffffffffffffffffffffffffffffffff90911690637ecd187e9061142f9085906004908101612f07565b60206040518083038186803b15801561144757600080fd5b505afa15801561145b573d6000803e3d6000fd5b505050506040513d601f19601f8201168201806040525081019061147f9190612e69565b90505b919050565b61149183836127a1565b6115a25782546001810184556000848152602090200180547fffffffffffffffffffffffff00000000000000000000000000000000000000001673ffffffffffffffffffffffffffffffffffffffff84161790556114ed612749565b73ffffffffffffffffffffffffffffffffffffffff1663e7bde5c1836040518263ffffffff1660e01b81526004016115259190612eb5565b60206040518083038186803b15801561153d57600080fd5b505afa158015611551573d6000803e3d6000fd5b505050506040513d601f19601f820116820180604052508101906115759190612e9d565b73ffffffffffffffffffffffffffffffffffffffff8316600090815260028501602052604090205561169e565b6115aa612749565b73ffffffffffffffffffffffffffffffffffffffff838116600090815260018601602090815260408083205460028901909252918290205491517fe695fa68000000000000000000000000000000000000000000000000000000008152939092169263e695fa68926116239290918791906004016132f6565b602060405180830381600087803b15801561163d57600080fd5b505af1158015611651573d6000803e3d6000fd5b505050506040513d601f19601f820116820180604052508101906116759190612e9d565b73ffffffffffffffffffffffffffffffffffffffff831660009081526001850160205260409020555b73ffffffffffffffffffffffffffffffffffffffff82166000908152600184016020526040812080548392906116d5908490613322565b909155506116e69050838383611792565b6116ef836126fe565b610f16576040517f08c379a000000000000000000000000000000000000000000000000000000000815260040161041e90613224565b73ffffffffffffffffffffffffffffffffffffffff841660009081526004860160205260409020546117589083906133b0565b73ffffffffffffffffffffffffffffffffffffffff8516600090815260048701602052604090205561178b858483611792565b5050505050565b61179c83836127cf565b6117f657600383018054600181018255600091825260209091200180547fffffffffffffffffffffffff00000000000000000000000000000000000000001673ffffffffffffffffffffffffffffffffffffffff84161790555b73ffffffffffffffffffffffffffffffffffffffff821660009081526004840160205260408120805483929061182d908490613322565b9091555050505050565b60008183111561184857508061184b565b50815b92915050565b73ffffffffffffffffffffffffffffffffffffffff821660009081526004840160205260409020548111159392505050565b600080546040517f7ecd187e00000000000000000000000000000000000000000000000000000000815273ffffffffffffffffffffffffffffffffffffffff90911690637ecd187e9061142f908590600290600401612f07565b6040805160008082526020820192839052905190916118ff9160069190612bbf565b50604080516000815260208101918290525161191d91600791612bbf565b50604080516000815260208101918290525161193b91600891612bbf565b5060005b8084511115612027576000848281518110611983577f4e487b7100000000000000000000000000000000000000000000000000000000600052603260045260246000fd5b602002602001015190506000600460008373ffffffffffffffffffffffffffffffffffffffff1673ffffffffffffffffffffffffffffffffffffffff16815260200190815260200160002090506119d9816127fe565b15611de8576008805460018101825560009182527ff3f7a9fe364faab93b216da50a3214154f22a0a2b415b23a84c8169e8b636ee30180547fffffffffffffffffffffffff00000000000000000000000000000000000000001673ffffffffffffffffffffffffffffffffffffffff85161790555b6003820154811015611bc6576000826003018281548110611a98577f4e487b7100000000000000000000000000000000000000000000000000000000600052603260045260246000fd5b600091825260208083209091015473ffffffffffffffffffffffffffffffffffffffff16808352600590915260409091206002810154919250904314611b6e5773ffffffffffffffffffffffffffffffffffffffff821660008181526004860160205260408120546001808501919091558184554360028501556006805491820181559091527ff652222313e28459528d920b65115c16c04f3efc82aaedc97be59f3f377c0d3f0180547fffffffffffffffffffffffff0000000000000000000000000000000000000000169091179055611bb1565b73ffffffffffffffffffffffffffffffffffffffff8216600090815260048501602052604081205460018301805491929091611bab908490613322565b90915550505b50508080611bbe906133c7565b915050611a4e565b5060005b8154811015611de6576000826000018281548110611c11577f4e487b7100000000000000000000000000000000000000000000000000000000600052603260045260246000fd5b600091825260208083209091015473ffffffffffffffffffffffffffffffffffffffff1680835260059091526040822090925090611c4d612749565b73ffffffffffffffffffffffffffffffffffffffff1663e7bde5c1846040518263ffffffff1660e01b8152600401611c859190612eb5565b60206040518083038186803b158015611c9d57600080fd5b505afa158015611cb1573d6000803e3d6000fd5b505050506040513d601f19601f82011682018060405250810190611cd59190612e9d565b73ffffffffffffffffffffffffffffffffffffffff8416600090815260028701602090815260408083205460018a019092528220549293509091611d1a908490613373565b611d24919061333a565b905043836002015414611db557600060018481018290558285554360028601556007805491820181559091527fa66cc928b5edb82af9bd49922954155ab7b0942694bea4ce44661d9a8736c6880180547fffffffffffffffffffffffff00000000000000000000000000000000000000001673ffffffffffffffffffffffffffffffffffffffff8616179055611dcf565b80836000016000828254611dc99190613322565b90915550505b505050508080611dde906133c7565b915050611bca565b505b73ffffffffffffffffffffffffffffffffffffffff82166000908152600960205260409020600181015415801590611e1d5750855b15612011578054600090611e4890611e36436001613322565b611e4091906133b0565b600a54611837565b90506000600a54836001015483611e5f9190613373565b611e69919061333a565b9050611e73612306565b73ffffffffffffffffffffffffffffffffffffffff1663d9caed12611e966123b3565b73ffffffffffffffffffffffffffffffffffffffff16631f1cb62b6040518163ffffffff1660e01b815260040160206040518083038186803b158015611edb57600080fd5b505afa158015611eef573d6000803e3d6000fd5b505050506040513d601f19601f82011682018060405250810190611f139190612cad565b60028601546040517fffffffff0000000000000000000000000000000000000000000000000000000060e085901b168152611f6a929173ffffffffffffffffffffffffffffffffffffffff16908690600401612ed6565b602060405180830381600087803b158015611f8457600080fd5b505af1158015611f98573d6000803e3d6000fd5b505050506040513d601f19601f82011682018060405250810190611fbc9190612e69565b50808360010154611fcd91906133b0565b611fd79088613322565b6000600185018190556002850180547fffffffffffffffffffffffff00000000000000000000000000000000000000001690558455965050505b505050808061201f906133c7565b91505061193f565b5092915050565b6000805b60065481101561218757600060068281548110612078577f4e487b7100000000000000000000000000000000000000000000000000000000600052603260045260246000fd5b600091825260208083209091015473ffffffffffffffffffffffffffffffffffffffff1680835260059091526040909120805460018201549293509091111561217257805460018201546000916120ce916133b0565b90506120d86123b3565b73ffffffffffffffffffffffffffffffffffffffff166305883f7c84836040518363ffffffff1660e01b8152600401612112929190612f31565b602060405180830381600087803b15801561212c57600080fd5b505af1158015612140573d6000803e3d6000fd5b505050506040513d601f19601f820116820180604052508101906121649190612e9d565b61216e9086613322565b9450505b5050808061217f906133c7565b915050612032565b5090565b6000805b600754811015612187576000600782815481106121d5577f4e487b7100000000000000000000000000000000000000000000000000000000600052603260045260246000fd5b600091825260208083209091015473ffffffffffffffffffffffffffffffffffffffff168083526005909152604090912060018101548154929350909111156122cc576122206123b3565b73ffffffffffffffffffffffffffffffffffffffff166305883f7c838360010154846000015461225091906133b0565b6040518363ffffffff1660e01b815260040161226d929190612f31565b602060405180830381600087803b15801561228757600080fd5b505af115801561229b573d6000803e3d6000fd5b505050506040513d601f19601f820116820180604052508101906122bf9190612e9d565b6122c99085613322565b93505b505080806122d9906133c7565b91505061218f565b600061147f8260030183600401612858565b600061147f8260018101600282016129a6565b600080546040517f3c9c8f9c00000000000000000000000000000000000000000000000000000000815273ffffffffffffffffffffffffffffffffffffffff90911690633c9c8f9c9061235e906065906004016132de565b60206040518083038186803b15801561237657600080fd5b505afa15801561238a573d6000803e3d6000fd5b505050506040513d601f19601f820116820180604052508101906123ae9190612cad565b905090565b600080546040517f3c9c8f9c00000000000000000000000000000000000000000000000000000000815273ffffffffffffffffffffffffffffffffffffffff90911690633c9c8f9c9061235e90606a906004016132de565b60005b81548110156124a6576000826000018281548110612455577f4e487b7100000000000000000000000000000000000000000000000000000000600052603260045260246000fd5b600091825260208083209091015473ffffffffffffffffffffffffffffffffffffffff168252600185018152604080832083905560028601909152812055508061249e816133c7565b91505061240e565b5060005b600382015481101561256a5760008260030182815481106124f4577f4e487b7100000000000000000000000000000000000000000000000000000000600052603260045260246000fd5b600091825260208083209091015473ffffffffffffffffffffffffffffffffffffffff168252600485018152604080832083905560058601909152902080547fffffffffffffffffffffffffffffffffffffffffffffffffffffffffffffff001690555080612562816133c7565b9150506124aa565b50612576816000612c45565b612584600382016000612c45565b50565b61258f612749565b73ffffffffffffffffffffffffffffffffffffffff838116600090815260018601602090815260408083205460028901909252918290205491517fe695fa68000000000000000000000000000000000000000000000000000000008152939092169263e695fa68926126089290918791906004016132f6565b602060405180830381600087803b15801561262257600080fd5b505af1158015612636573d6000803e3d6000fd5b505050506040513d601f19601f8201168201806040525081019061265a9190612e9d565b73ffffffffffffffffffffffffffffffffffffffff83166000908152600185016020526040902081905561268f9082906133b0565b73ffffffffffffffffffffffffffffffffffffffff8316600090815260018501602090815260408083209390935560048601905220546126d09082906133b0565b73ffffffffffffffffffffffffffffffffffffffff9092166000908152600490930160205250604090912055565b60008061270a836122f3565b90506000612717846122e1565b9050600254826127279190613373565b600254612735906001613322565b61273f9083613373565b1015949350505050565b600080546040517f3c9c8f9c00000000000000000000000000000000000000000000000000000000815273ffffffffffffffffffffffffffffffffffffffff90911690633c9c8f9c9061235e906066906004016132de565b73ffffffffffffffffffffffffffffffffffffffff1660009081526002919091016020526040902054151590565b73ffffffffffffffffffffffffffffffffffffffff166000908152600591909101602052604090205460ff1690565b60008061280a836122f3565b90506000612817846122e1565b905081600354600254606461282c9190613373565b6128369190613322565b6128409190613373565b60025461284d9083613373565b61273f906064613373565b6000805b83548110156120275760008482815481106128a0577f4e487b7100000000000000000000000000000000000000000000000000000000600052603260045260246000fd5b60009182526020909120015473ffffffffffffffffffffffffffffffffffffffff1690506128cc6123b3565b73ffffffffffffffffffffffffffffffffffffffff828116600090815260208790526040908190205490517fe47109a9000000000000000000000000000000000000000000000000000000008152929091169163e47109a99161293491859190600401612f31565b602060405180830381600087803b15801561294e57600080fd5b505af1158015612962573d6000803e3d6000fd5b505050506040513d601f19601f820116820180604052508101906129869190612e9d565b6129909084613322565b925050808061299e906133c7565b91505061285c565b6000805b84548110156108845760008582815481106129ee577f4e487b7100000000000000000000000000000000000000000000000000000000600052603260045260246000fd5b600091825260208083209091015473ffffffffffffffffffffffffffffffffffffffff1680835290879052604090912054909150612a2e90829086612a4e565b612a389084613322565b9250508080612a46906133c7565b9150506129aa565b600080612a59612749565b73ffffffffffffffffffffffffffffffffffffffff1663e7bde5c1866040518263ffffffff1660e01b8152600401612a919190612eb5565b60206040518083038186803b158015612aa957600080fd5b505afa158015612abd573d6000803e3d6000fd5b505050506040513d601f19601f82011682018060405250810190612ae19190612e9d565b73ffffffffffffffffffffffffffffffffffffffff861660009081526020859052604081205491925090612b158387613373565b612b1f919061333a565b9050612b296123b3565b73ffffffffffffffffffffffffffffffffffffffff1663e47109a987836040518363ffffffff1660e01b8152600401612b63929190612f31565b602060405180830381600087803b158015612b7d57600080fd5b505af1158015612b91573d6000803e3d6000fd5b505050506040513d601f19601f82011682018060405250810190612bb59190612e9d565b9695505050505050565b828054828255906000526020600020908101928215612c39579160200282015b82811115612c3957825182547fffffffffffffffffffffffff00000000000000000000000000000000000000001673ffffffffffffffffffffffffffffffffffffffff909116178255602090920191600190910190612bdf565b50612187929150612c5f565b508054600082559060005260206000209081019061258491905b5b808211156121875760008155600101612c60565b80356114828161345e565b803561148281613480565b600060208284031215612c9b578081fd5b8135612ca68161345e565b9392505050565b600060208284031215612cbe578081fd5b8151612ca68161345e565b600080600080600060a08688031215612ce0578081fd5b8535612ceb8161345e565b94506020860135612cfb8161345e565b93506040860135612d0b8161345e565b94979396509394606081013594506080013592915050565b600080600060608486031215612d37578283fd5b8335612d428161345e565b92506020840135612d528161345e565b929592945050506040919091013590565b600080600060608486031215612d77578283fd5b833567ffffffffffffffff80821115612d8e578485fd5b818601915086601f830112612da1578485fd5b8135602082821115612db557612db561342f565b8082026040517fffffffffffffffffffffffffffffffffffffffffffffffffffffffffffffffe0603f83011681018181108682111715612df757612df761342f565b604052838152828101945085830182870184018c1015612e1557898afd5b8996505b84871015612e3e57612e2a81612c74565b865260019690960195948301948301612e19565b509750612e4e9050888201612c74565b955050505050612e6060408501612c7f565b90509250925092565b600060208284031215612e7a578081fd5b8151612ca681613480565b600060208284031215612e96578081fd5b5035919050565b600060208284031215612eae578081fd5b5051919050565b73ffffffffffffffffffffffffffffffffffffffff91909116815260200190565b73ffffffffffffffffffffffffffffffffffffffff9384168152919092166020820152604081019190915260600190565b73ffffffffffffffffffffffffffffffffffffffff92909216825261ffff16602082015260400190565b73ffffffffffffffffffffffffffffffffffffffff929092168252602082015260400190565b604080825283519082018190526000906020906060840190828701845b82811015612fa657815173ffffffffffffffffffffffffffffffffffffffff1684529284019290840190600101612f74565b50505083810382850152845180825285830191830190845b81811015612fda57835183529284019291840191600101612fbe565b5090979650505050505050565b60208082526039908201527f43616c6c696e6720636f6e7472616374206973206e6f7420616e20617574686f60408201527f72697a6564206d617267696e20747261646572206167656e7400000000000000606082015260800190565b60208082526018908201527f43616e277420626f72726f772066756c6c20616d6f756e740000000000000000604082015260600190565b60208082526026908201527f4f776e61626c653a206e6577206f776e657220697320746865207a65726f206160408201527f6464726573730000000000000000000000000000000000000000000000000000606082015260800190565b60208082526033908201527f43616c6c696e6720636f6e7472616374206973206e6f7420616e20617574686f60408201527f72697a6564206d617267696e2074726164657200000000000000000000000000606082015260800190565b60208082526026908201527f4163636f756e742062616c616e636520697320746f6f206c6f7720746f20776960408201527f7468647261770000000000000000000000000000000000000000000000000000606082015260800190565b6020808252818101527f4f776e61626c653a2063616c6c6572206973206e6f7420746865206f776e6572604082015260600190565b6020808252602f908201527f43616c6c696e67206164647265737320646f65736e27742068617665206d617260408201527f67696e2063616c6c657220726f6c650000000000000000000000000000000000606082015260800190565b60208082526022908201527f43616e277420626f72726f773a20696e73756666696369656e742062616c616e60408201527f6365000000000000000000000000000000000000000000000000000000000000606082015260800190565b6020808252602a908201527f43616c6c696e6720636f6e7472616374206e6f7420617574686f72697a65642060408201527f746f206465706f73697400000000000000000000000000000000000000000000606082015260800190565b61ffff91909116815260200190565b90815260200190565b92835273ffffffffffffffffffffffffffffffffffffffff919091166020830152604082015260600190565b6000821982111561333557613335613400565b500190565b60008261336e577f4e487b710000000000000000000000000000000000000000000000000000000081526012600452602481fd5b500490565b6000817fffffffffffffffffffffffffffffffffffffffffffffffffffffffffffffffff04831182151516156133ab576133ab613400565b500290565b6000828210156133c2576133c2613400565b500390565b60007fffffffffffffffffffffffffffffffffffffffffffffffffffffffffffffffff8214156133f9576133f9613400565b5060010190565b7f4e487b7100000000000000000000000000000000000000000000000000000000600052601160045260246000fd5b7f4e487b7100000000000000000000000000000000000000000000000000000000600052604160045260246000fd5b73ffffffffffffffffffffffffffffffffffffffff8116811461258457600080fd5b801515811461258457600080fdfea264697066735822122094d334c2fbf88cf907360459b547f2cf9eceecf742cdc08cb787ddaba2cf2f2764736f6c63430008010033",
  "linkReferences": {},
  "deployedLinkReferences": {}
}