{
  "_format": "hh-sol-artifact-1",
  "contractName": "CrossMarginTrading",
  "sourceName": "contracts/CrossMarginTrading.sol",
  "abi": [
    {
      "inputs": [
        {
          "internalType": "address",
          "name": "_roles",
          "type": "address"
        }
      ],
      "stateMutability": "nonpayable",
      "type": "constructor"
    },
    {
      "anonymous": false,
      "inputs": [
        {
          "indexed": false,
          "internalType": "uint256",
          "name": "amount",
          "type": "uint256"
        }
      ],
      "name": "LiquidationShortfall",
      "type": "event"
    },
    {
      "anonymous": false,
      "inputs": [
        {
          "indexed": true,
          "internalType": "address",
          "name": "previousOwner",
          "type": "address"
        },
        {
          "indexed": true,
          "internalType": "address",
          "name": "newOwner",
          "type": "address"
        }
      ],
      "name": "OwnershipTransferred",
      "type": "event"
    },
    {
      "inputs": [],
      "name": "ADMIN",
      "outputs": [
        {
          "internalType": "uint16",
          "name": "",
          "type": "uint16"
        }
      ],
      "stateMutability": "view",
      "type": "function"
    },
    {
      "inputs": [],
      "name": "AUTHORIZED_FUND_TRADER",
      "outputs": [
        {
          "internalType": "uint16",
          "name": "",
          "type": "uint16"
        }
      ],
      "stateMutability": "view",
      "type": "function"
    },
    {
      "inputs": [],
      "name": "BORROWER",
      "outputs": [
        {
          "internalType": "uint16",
          "name": "",
          "type": "uint16"
        }
      ],
      "stateMutability": "view",
      "type": "function"
    },
    {
      "inputs": [],
      "name": "FEE_CONTROLLER",
      "outputs": [
        {
          "internalType": "uint16",
          "name": "",
          "type": "uint16"
        }
      ],
      "stateMutability": "view",
      "type": "function"
    },
    {
      "inputs": [],
      "name": "FEE_SOURCE",
      "outputs": [
        {
          "internalType": "uint16",
          "name": "",
          "type": "uint16"
        }
      ],
      "stateMutability": "view",
      "type": "function"
    },
    {
      "inputs": [],
      "name": "FUND",
      "outputs": [
        {
          "internalType": "uint16",
          "name": "",
          "type": "uint16"
        }
      ],
      "stateMutability": "view",
      "type": "function"
    },
    {
      "inputs": [],
      "name": "INCENTIVE_DISTRIBUTION",
      "outputs": [
        {
          "internalType": "uint16",
          "name": "",
          "type": "uint16"
        }
      ],
      "stateMutability": "view",
      "type": "function"
    },
    {
      "inputs": [],
      "name": "INCENTIVE_REPORTER",
      "outputs": [
        {
          "internalType": "uint16",
          "name": "",
          "type": "uint16"
        }
      ],
      "stateMutability": "view",
      "type": "function"
    },
    {
      "inputs": [],
      "name": "LENDING",
      "outputs": [
        {
          "internalType": "uint16",
          "name": "",
          "type": "uint16"
        }
      ],
      "stateMutability": "view",
      "type": "function"
    },
    {
      "inputs": [],
      "name": "LIQUIDATOR",
      "outputs": [
        {
          "internalType": "uint16",
          "name": "",
          "type": "uint16"
        }
      ],
      "stateMutability": "view",
      "type": "function"
    },
    {
      "inputs": [],
      "name": "MARGIN_CALLER",
      "outputs": [
        {
          "internalType": "uint16",
          "name": "",
          "type": "uint16"
        }
      ],
      "stateMutability": "view",
      "type": "function"
    },
    {
      "inputs": [],
      "name": "MARGIN_TRADER",
      "outputs": [
        {
          "internalType": "uint16",
          "name": "",
          "type": "uint16"
        }
      ],
      "stateMutability": "view",
      "type": "function"
    },
    {
      "inputs": [],
      "name": "MARGIN_TRADING",
      "outputs": [
        {
          "internalType": "uint16",
          "name": "",
          "type": "uint16"
        }
      ],
      "stateMutability": "view",
      "type": "function"
    },
    {
      "inputs": [],
      "name": "PRICE_CONTROLLER",
      "outputs": [
        {
          "internalType": "uint16",
          "name": "",
          "type": "uint16"
        }
      ],
      "stateMutability": "view",
      "type": "function"
    },
    {
      "inputs": [],
      "name": "ROUTER",
      "outputs": [
        {
          "internalType": "uint16",
          "name": "",
          "type": "uint16"
        }
      ],
      "stateMutability": "view",
      "type": "function"
    },
    {
      "inputs": [],
      "name": "STAKE_PENALIZER",
      "outputs": [
        {
          "internalType": "uint16",
          "name": "",
          "type": "uint16"
        }
      ],
      "stateMutability": "view",
      "type": "function"
    },
    {
      "inputs": [],
      "name": "TOKEN_ACTIVATOR",
      "outputs": [
        {
          "internalType": "uint16",
          "name": "",
          "type": "uint16"
        }
      ],
      "stateMutability": "view",
      "type": "function"
    },
    {
      "inputs": [],
      "name": "WITHDRAWER",
      "outputs": [
        {
          "internalType": "uint16",
          "name": "",
          "type": "uint16"
        }
      ],
      "stateMutability": "view",
      "type": "function"
    },
    {
      "inputs": [],
      "name": "coolingOffPeriod",
      "outputs": [
        {
          "internalType": "uint256",
          "name": "",
          "type": "uint256"
        }
      ],
      "stateMutability": "view",
      "type": "function"
    },
    {
      "inputs": [
        {
          "internalType": "address[]",
          "name": "liquidatedAccounts",
          "type": "address[]"
        }
      ],
      "name": "disburseMCAttacks",
      "outputs": [],
      "stateMutability": "nonpayable",
      "type": "function"
    },
    {
      "inputs": [
        {
          "internalType": "address",
          "name": "trader",
          "type": "address"
        }
      ],
      "name": "getBorrowAmounts",
      "outputs": [
        {
          "internalType": "address[]",
          "name": "borrowTokens",
          "type": "address[]"
        },
        {
          "internalType": "uint256[]",
          "name": "borrowAmounts",
          "type": "uint256[]"
        }
      ],
      "stateMutability": "view",
      "type": "function"
    },
    {
      "inputs": [
        {
          "internalType": "address",
          "name": "trader",
          "type": "address"
        }
      ],
      "name": "getHoldingAmounts",
      "outputs": [
        {
          "internalType": "address[]",
          "name": "holdingTokens",
          "type": "address[]"
        },
        {
          "internalType": "uint256[]",
          "name": "holdingAmounts",
          "type": "uint256[]"
        }
      ],
      "stateMutability": "view",
      "type": "function"
    },
    {
      "inputs": [
        {
          "internalType": "address",
          "name": "trader",
          "type": "address"
        },
        {
          "internalType": "address",
          "name": "token",
          "type": "address"
        },
        {
          "internalType": "uint256",
          "name": "amount",
          "type": "uint256"
        }
      ],
      "name": "getTradeBorrowAmount",
      "outputs": [
        {
          "internalType": "uint256",
          "name": "borrowAmount",
          "type": "uint256"
        }
      ],
      "stateMutability": "view",
      "type": "function"
    },
    {
      "inputs": [],
      "name": "leverage",
      "outputs": [
        {
          "internalType": "uint256",
          "name": "",
          "type": "uint256"
        }
      ],
      "stateMutability": "view",
      "type": "function"
    },
    {
      "inputs": [
        {
          "internalType": "address[]",
          "name": "liquidationCandidates",
          "type": "address[]"
        },
        {
          "internalType": "address",
          "name": "currentCaller",
          "type": "address"
        }
      ],
      "name": "liquidate",
      "outputs": [
        {
          "internalType": "uint256",
          "name": "maintainerCut",
          "type": "uint256"
        }
      ],
      "stateMutability": "nonpayable",
      "type": "function"
    },
    {
      "inputs": [],
      "name": "liquidationThresholdPercent",
      "outputs": [
        {
          "internalType": "uint256",
          "name": "",
          "type": "uint256"
        }
      ],
      "stateMutability": "view",
      "type": "function"
    },
    {
      "inputs": [],
      "name": "owner",
      "outputs": [
        {
          "internalType": "address",
          "name": "",
          "type": "address"
        }
      ],
      "stateMutability": "view",
      "type": "function"
    },
    {
      "inputs": [
        {
          "internalType": "address",
          "name": "trader",
          "type": "address"
        },
        {
          "internalType": "address",
          "name": "borrowToken",
          "type": "address"
        },
        {
          "internalType": "uint256",
          "name": "borrowAmount",
          "type": "uint256"
        }
      ],
      "name": "registerBorrow",
      "outputs": [],
      "stateMutability": "nonpayable",
      "type": "function"
    },
    {
      "inputs": [
        {
          "internalType": "address",
          "name": "trader",
          "type": "address"
        },
        {
          "internalType": "address",
          "name": "token",
          "type": "address"
        },
        {
          "internalType": "uint256",
          "name": "depositAmount",
          "type": "uint256"
        }
      ],
      "name": "registerDeposit",
      "outputs": [
        {
          "internalType": "uint256",
          "name": "extinguishableDebt",
          "type": "uint256"
        }
      ],
      "stateMutability": "nonpayable",
      "type": "function"
    },
    {
      "inputs": [
        {
          "internalType": "address",
          "name": "trader",
          "type": "address"
        },
        {
          "internalType": "address",
          "name": "tokenFrom",
          "type": "address"
        },
        {
          "internalType": "address",
          "name": "tokenTo",
          "type": "address"
        },
        {
          "internalType": "uint256",
          "name": "inAmount",
          "type": "uint256"
        },
        {
          "internalType": "uint256",
          "name": "outAmount",
          "type": "uint256"
        }
      ],
      "name": "registerTradeAndBorrow",
      "outputs": [
        {
          "internalType": "uint256",
          "name": "extinguishableDebt",
          "type": "uint256"
        },
        {
          "internalType": "uint256",
          "name": "borrowAmount",
          "type": "uint256"
        }
      ],
      "stateMutability": "nonpayable",
      "type": "function"
    },
    {
      "inputs": [
        {
          "internalType": "address",
          "name": "trader",
          "type": "address"
        },
        {
          "internalType": "address",
          "name": "withdrawToken",
          "type": "address"
        },
        {
          "internalType": "uint256",
          "name": "withdrawAmount",
          "type": "uint256"
        }
      ],
      "name": "registerWithdrawal",
      "outputs": [],
      "stateMutability": "nonpayable",
      "type": "function"
    },
    {
      "inputs": [],
      "name": "renounceOwnership",
      "outputs": [],
      "stateMutability": "nonpayable",
      "type": "function"
    },
    {
      "inputs": [],
      "name": "roles",
      "outputs": [
        {
          "internalType": "contract Roles",
          "name": "",
          "type": "address"
        }
      ],
      "stateMutability": "view",
      "type": "function"
    },
    {
      "inputs": [
        {
          "internalType": "uint256",
          "name": "blocks",
          "type": "uint256"
        }
      ],
      "name": "setCoolingOffPeriod",
      "outputs": [],
      "stateMutability": "nonpayable",
      "type": "function"
    },
    {
      "inputs": [
        {
          "internalType": "uint256",
          "name": "_leverage",
          "type": "uint256"
        }
      ],
      "name": "setLeverage",
      "outputs": [],
      "stateMutability": "nonpayable",
      "type": "function"
    },
    {
      "inputs": [
        {
          "internalType": "uint256",
          "name": "threshold",
          "type": "uint256"
        }
      ],
      "name": "setLiquidationThresholdPercent",
      "outputs": [],
      "stateMutability": "nonpayable",
      "type": "function"
    },
    {
      "inputs": [
        {
          "internalType": "address",
          "name": "token",
          "type": "address"
        },
        {
          "internalType": "uint256",
          "name": "cap",
          "type": "uint256"
        }
      ],
      "name": "setTokenCap",
      "outputs": [],
      "stateMutability": "nonpayable",
      "type": "function"
    },
    {
      "inputs": [
        {
          "internalType": "address",
          "name": "",
          "type": "address"
        }
      ],
      "name": "tokenCaps",
      "outputs": [
        {
          "internalType": "uint256",
          "name": "",
          "type": "uint256"
        }
      ],
      "stateMutability": "view",
      "type": "function"
    },
    {
      "inputs": [
        {
          "internalType": "address",
          "name": "",
          "type": "address"
        }
      ],
      "name": "totalLong",
      "outputs": [
        {
          "internalType": "uint256",
          "name": "",
          "type": "uint256"
        }
      ],
      "stateMutability": "view",
      "type": "function"
    },
    {
      "inputs": [
        {
          "internalType": "address",
          "name": "",
          "type": "address"
        }
      ],
      "name": "totalShort",
      "outputs": [
        {
          "internalType": "uint256",
          "name": "",
          "type": "uint256"
        }
      ],
      "stateMutability": "view",
      "type": "function"
    },
    {
      "inputs": [
        {
          "internalType": "address",
          "name": "newOwner",
          "type": "address"
        }
      ],
      "name": "transferOwnership",
      "outputs": [],
      "stateMutability": "nonpayable",
      "type": "function"
    }
  ],
  "bytecode": "0x6080604052600a600e556005600f553480156200001b57600080fd5b506040516200421f3803806200421f8339810160408190526200003e91620000c6565b600080546001600160a01b0319166001600160a01b03831617815562000063620000c2565b600180546001600160a01b0319166001600160a01b038316908117909155604051919250906000907f8be0079c531659141344cd1fd0a4f28419497f9722a3daafe3b4186f6b6457e0908290a3505060146003819055600855620000f6565b3390565b600060208284031215620000d8578081fd5b81516001600160a01b0381168114620000ef578182fd5b9392505050565b61411980620001066000396000f3fe608060405234801561001057600080fd5b50600436106102d35760003560e01c80635c275a3911610186578063a94c7c34116100e3578063d0eb665311610097578063e0f3871f11610071578063e0f3871f146104f0578063f2fde38b14610503578063f99fd97c14610516576102d3565b8063d0eb6653146104c2578063d510c535146104d5578063d5d7ed7f146104e8576102d3565b8063bc44dcbc116100c8578063bc44dcbc1461049f578063c76139d0146104b2578063cacf8d45146104ba576102d3565b8063a94c7c341461048f578063a9cc053614610497576102d3565b806381ca66001161013a5780638da5cb5b1161011f5780638da5cb5b1461046c578063a0098d6914610474578063a12f52951461047c576102d3565b806381ca66001461045c57806383a49c7c14610464576102d3565b8063669419841161016b5780636694198414610439578063715018a61461044157806379575b2314610449576102d3565b80635c275a391461041e5780636612ce3514610426576102d3565b80632febaa7411610234578063409fdb72116101e857806348fb27b8116101cd57806348fb27b8146103f0578063498d55eb146103f857806352a664d91461040b576102d3565b8063409fdb72146103c757806346b88796146103e8576102d3565b806332fe7b261161021957806332fe7b26146103895780633500aa0b14610391578063392f5f64146103b2576102d3565b80632febaa7414610379578063320d2fa014610381576102d3565b80631d47e4a31161028b5780632a0acc6a116102705780632a0acc6a146103615780632c86d98e146103695780632fe94def14610371576102d3565b80631d47e4a31461033b57806320c271261461034e576102d3565b806316317e7e116102bc57806316317e7e146103165780631b6695071461032b5780631bc5d81d14610333576102d3565b8063065d570f146102d85780630f0f5436146102f6575b600080fd5b6102e0610529565b6040516102ed9190613f09565b60405180910390f35b61030961030436600461395a565b61052e565b6040516102ed9190613f42565b6103296103243660046139ca565b610a26565b005b6102e0610aa7565b6102e0610aac565b6103296103493660046138f4565b610ab1565b61030961035c36600461381b565b610b19565b6102e0610b2b565b610309610b30565b6102e0610b36565b610309610b3b565b610309610b41565b6102e0610b47565b6103a461039f36600461385a565b610b4c565b6040516102ed929190613f77565b6103ba610e60565b6040516102ed91906139fa565b6103da6103d536600461381b565b610e7c565b6040516102ed929190613aa2565b6102e0611072565b6102e0611077565b6103296104063660046138b4565b61107c565b6103096104193660046138b4565b61120b565b6102e06113d2565b6103096104343660046138b4565b6113d7565b6102e06114a5565b6103296114aa565b6103296104573660046139ca565b61158c565b6102e0611604565b6102e0611609565b6103ba61160e565b6102e061162a565b61032961048a36600461391f565b61162f565b6102e06116f9565b6102e06116fe565b6103096104ad36600461381b565b611703565b6102e0611715565b6102e061171a565b6103296104d03660046138b4565b61171f565b6103da6104e336600461381b565b61189e565b6102e0611b1c565b6103096104fe36600461381b565b611b21565b61032961051136600461381b565b611b33565b6103296105243660046139ca565b611c81565b600381565b600080610539611cf9565b73ffffffffffffffffffffffffffffffffffffffff16637b23cbce336040518263ffffffff1660e01b815260040161057191906139fa565b602060405180830381600087803b15801561058b57600080fd5b505af115801561059f573d6000803e3d6000fd5b505050506040513d601f19601f820116820180604052508101906105c391906139aa565b905060006105d18583611da6565b90506105dd8184613f85565b925060006105e9612312565b905060006105f561246f565b905081811115610640577f3555ffae7677eb42103f0b9e11b61c758f452fae446684dec7a363dd38ab58fc61062a8383614013565b6040516106379190613f42565b60405180910390a15b60005b600c548110156109f1576000600c8281548110610689577f4e487b7100000000000000000000000000000000000000000000000000000000600052603260045260246000fd5b600091825260208083209091015473ffffffffffffffffffffffffffffffffffffffff16808352600490915260408220909250906106c6826125c5565b905060006106d3836125df565b9050600060326106e5836103e8613fd6565b6106ef9190613f9d565b9050891561070857610701818c613f85565b9a5061083a565b73ffffffffffffffffffffffffffffffffffffffff8581166000908152600d60205260409020600281018390556003810180547fffffffffffffffffffffffff000000000000000000000000000000000000000016928f1692909217909155438155610772611cf9565b73ffffffffffffffffffffffffffffffffffffffff16631a38de1d6040518163ffffffff1660e01b8152600401602060405180830381600087803b1580156107b957600080fd5b505af11580156107cd573d6000803e3d6000fd5b505050506040513d601f19601f820116820180604052508101906107f1919061383e565b60019190910180547fffffffffffffffffffffffff00000000000000000000000000000000000000001673ffffffffffffffffffffffffffffffffffffffff9092169190911790555b6108448282613f85565b831061097e576108526125f5565b73ffffffffffffffffffffffffffffffffffffffff1663d9caed1261087561264d565b73ffffffffffffffffffffffffffffffffffffffff16631f1cb62b6040518163ffffffff1660e01b815260040160206040518083038186803b1580156108ba57600080fd5b505afa1580156108ce573d6000803e3d6000fd5b505050506040513d601f19601f820116820180604052508101906108f2919061383e565b87846108fe8789614013565b6109089190614013565b6040518463ffffffff1660e01b815260040161092693929190613a1b565b602060405180830381600087803b15801561094057600080fd5b505af1158015610954573d6000803e3d6000fd5b505050506040513d601f19601f8201168201806040525081019061097891906139aa565b506109d0565b60008361098b8385613f85565b6109959190614013565b90507f3555ffae7677eb42103f0b9e11b61c758f452fae446684dec7a363dd38ab58fc816040516109c69190613f42565b60405180910390a1505b6109d9846126a5565b505050505080806109e99061402a565b915050610643565b50606485600e546063610a049190613fd6565b610a0e9190613f85565b610a189190613f9d565b600e55509295945050505050565b610a2e612827565b73ffffffffffffffffffffffffffffffffffffffff16610a4c61160e565b73ffffffffffffffffffffffffffffffffffffffff1614610aa2576040517f08c379a0000000000000000000000000000000000000000000000000000000008152600401610a9990613dbd565b60405180910390fd5b600355565b600a81565b600881565b610aba3361282b565b610af0576040517f08c379a0000000000000000000000000000000000000000000000000000000008152600401610a9990613b32565b73ffffffffffffffffffffffffffffffffffffffff909116600090815260056020526040902055565b60076020526000908152604090205481565b606b81565b60025481565b606981565b60085481565b60035481565b606781565b600080610b58336128d5565b610b8e576040517f08c379a0000000000000000000000000000000000000000000000000000000008152600401610a9990613b8f565b73ffffffffffffffffffffffffffffffffffffffff808816600090815260046020908152604080832093891683526002840190915290205415610c465773ffffffffffffffffffffffffffffffffffffffff86166000908152600282016020526040902054610bfe90859061292e565b9250610c0b818785612948565b73ffffffffffffffffffffffffffffffffffffffff861660009081526006602052604081208054859290610c40908490614013565b90915550505b73ffffffffffffffffffffffffffffffffffffffff871660009081526007602052604081208054879290610c7b908490614013565b90915550610c8b90508385614013565b73ffffffffffffffffffffffffffffffffffffffff871660009081526007602052604081208054909190610cc0908490613f85565b909155505073ffffffffffffffffffffffffffffffffffffffff86166000908152600760209081526040808320546005909252909120541015610d2f576040517f08c379a0000000000000000000000000000000000000000000000000000000008152600401610a9990613df2565b73ffffffffffffffffffffffffffffffffffffffff871660009081526005820160205260409020548590811115610e47575073ffffffffffffffffffffffffffffffffffffffff87166000908152600582016020526040902054610d938187614013565b73ffffffffffffffffffffffffffffffffffffffff8916600090815260066020526040812080549295508592909190610dcd908490613f85565b909155505073ffffffffffffffffffffffffffffffffffffffff88166000908152600660209081526040808320546005909252909120541015610e3c576040517f08c379a0000000000000000000000000000000000000000000000000000000008152600401610a9990613df2565b610e47828985612abf565b610e548289898489612d66565b50509550959350505050565b60005473ffffffffffffffffffffffffffffffffffffffff1681565b73ffffffffffffffffffffffffffffffffffffffff8116600090815260046020818152604092839020918201805484518184028101840190955280855260609485949390929190830182828015610f0957602002820191906000526020600020905b815473ffffffffffffffffffffffffffffffffffffffff168152600190910190602001808311610ede575b5050506004840154929550505067ffffffffffffffff811115610f55577f4e487b7100000000000000000000000000000000000000000000000000000000600052604160045260246000fd5b604051908082528060200260200182016040528015610f7e578160200160208202803683370190505b50915060005b808451111561106b576000848281518110610fc8577f4e487b7100000000000000000000000000000000000000000000000000000000600052603260045260246000fd5b602002602001015190508260050160008273ffffffffffffffffffffffffffffffffffffffff1673ffffffffffffffffffffffffffffffffffffffff1681526020019081526020016000205484838151811061104d577f4e487b7100000000000000000000000000000000000000000000000000000000600052603260045260246000fd5b602090810291909101015250806110638161402a565b915050610f84565b5050915091565b600681565b606681565b611085336128d5565b6110bb576040517f08c379a0000000000000000000000000000000000000000000000000000000008152600401610a9990613eac565b73ffffffffffffffffffffffffffffffffffffffff8216600090815260066020526040812080548392906110f0908490613f85565b909155505073ffffffffffffffffffffffffffffffffffffffff82166000908152600760205260408120805483929061112a908490613f85565b909155505073ffffffffffffffffffffffffffffffffffffffff82166000908152600660209081526040808320546005909252909120541080159061119f575073ffffffffffffffffffffffffffffffffffffffff821660009081526007602090815260408083205460059092529091205410155b6111d5576040517f08c379a0000000000000000000000000000000000000000000000000000000008152600401610a9990613df2565b73ffffffffffffffffffffffffffffffffffffffff83166000908152600460205260409020611205818484612abf565b50505050565b6000611216336128d5565b61124c576040517f08c379a0000000000000000000000000000000000000000000000000000000008152600401610a9990613eac565b73ffffffffffffffffffffffffffffffffffffffff831660009081526007602052604081208054849290611281908490613f85565b909155505073ffffffffffffffffffffffffffffffffffffffff831660009081526007602090815260408083205460059092529091205410156112f0576040517f08c379a0000000000000000000000000000000000000000000000000000000008152600401610a9990613df2565b73ffffffffffffffffffffffffffffffffffffffff84166000908152600460205260409020611320818585612dd3565b73ffffffffffffffffffffffffffffffffffffffff84166000908152600282016020526040902054156113c85773ffffffffffffffffffffffffffffffffffffffff8416600090815260028201602052604090205461138090849061292e565b915061138d818584612948565b73ffffffffffffffffffffffffffffffffffffffff8416600090815260066020526040812080548492906113c2908490614013565b90915550505b4390559392505050565b606581565b60006113e2336128d5565b611418576040517f08c379a0000000000000000000000000000000000000000000000000000000008152600401610a9990613c80565b73ffffffffffffffffffffffffffffffffffffffff808516600090815260046020908152604080832093871683526005840190915290205461145a9084614013565b9150611467818584612e78565b61149d576040517f08c379a0000000000000000000000000000000000000000000000000000000008152600401610a9990613bec565b509392505050565b600181565b6114b2612827565b73ffffffffffffffffffffffffffffffffffffffff166114d061160e565b73ffffffffffffffffffffffffffffffffffffffff161461151d576040517f08c379a0000000000000000000000000000000000000000000000000000000008152600401610a9990613dbd565b60015460405160009173ffffffffffffffffffffffffffffffffffffffff16907f8be0079c531659141344cd1fd0a4f28419497f9722a3daafe3b4186f6b6457e0908390a3600180547fffffffffffffffffffffffff0000000000000000000000000000000000000000169055565b611594612827565b73ffffffffffffffffffffffffffffffffffffffff166115b261160e565b73ffffffffffffffffffffffffffffffffffffffff16146115ff576040517f08c379a0000000000000000000000000000000000000000000000000000000008152600401610a9990613dbd565b600255565b606a81565b600981565b60015473ffffffffffffffffffffffffffffffffffffffff1690565b600281565b60005b80825111156116f5576000600d600084848151811061167a577f4e487b7100000000000000000000000000000000000000000000000000000000600052603260045260246000fd5b602002602001015173ffffffffffffffffffffffffffffffffffffffff1673ffffffffffffffffffffffffffffffffffffffff1681526020019081526020016000209050600f5481600001546116d09190613f85565b4311156116e2576116e081612eaa565b505b50806116ed8161402a565b915050611632565b5050565b600581565b606881565b60066020526000908152604090205481565b606c81565b600481565b611728336128d5565b61175e576040517f08c379a0000000000000000000000000000000000000000000000000000000008152600401610a9990613eac565b73ffffffffffffffffffffffffffffffffffffffff8316600090815260046020526040902060085481546117929190613f85565b43116117ca576040517f08c379a0000000000000000000000000000000000000000000000000000000008152600401610a9990613d3a565b73ffffffffffffffffffffffffffffffffffffffff8316600090815260076020526040812080548492906117ff908490614013565b909155505073ffffffffffffffffffffffffffffffffffffffff83166000908152600582016020526040902054611837908390614013565b73ffffffffffffffffffffffffffffffffffffffff8416600090815260058301602052604090205561186881613209565b611205576040517f08c379a0000000000000000000000000000000000000000000000000000000008152600401610a9990613cdd565b73ffffffffffffffffffffffffffffffffffffffff811660009081526004602090815260409182902060018101805484518185028101850190955280855260609485949092919083018282801561192b57602002820191906000526020600020905b815473ffffffffffffffffffffffffffffffffffffffff168152600190910190602001808311611900575b5050506001840154929550505067ffffffffffffffff811115611977577f4e487b7100000000000000000000000000000000000000000000000000000000600052604160045260246000fd5b6040519080825280602002602001820160405280156119a0578160200160208202803683370190505b50915060005b808451111561106b5760008482815181106119ea577f4e487b7100000000000000000000000000000000000000000000000000000000600052603260045260246000fd5b602002602001015190506119fc613254565b73ffffffffffffffffffffffffffffffffffffffff828116600090815260028601602090815260408083205460038901909252918290205491517f687680ed000000000000000000000000000000000000000000000000000000008152939092169263687680ed92611a75929091869190600401613f4b565b60206040518083038186803b158015611a8d57600080fd5b505afa158015611aa1573d6000803e3d6000fd5b505050506040513d601f19601f82011682018060405250810190611ac591906139e2565b848381518110611afe577f4e487b7100000000000000000000000000000000000000000000000000000000600052603260045260246000fd5b60209081029190910101525080611b148161402a565b9150506119a6565b600781565b60056020526000908152604090205481565b611b3b612827565b73ffffffffffffffffffffffffffffffffffffffff16611b5961160e565b73ffffffffffffffffffffffffffffffffffffffff1614611ba6576040517f08c379a0000000000000000000000000000000000000000000000000000000008152600401610a9990613dbd565b73ffffffffffffffffffffffffffffffffffffffff8116611bf3576040517f08c379a0000000000000000000000000000000000000000000000000000000008152600401610a9990613c23565b60015460405173ffffffffffffffffffffffffffffffffffffffff8084169216907f8be0079c531659141344cd1fd0a4f28419497f9722a3daafe3b4186f6b6457e090600090a3600180547fffffffffffffffffffffffff00000000000000000000000000000000000000001673ffffffffffffffffffffffffffffffffffffffff92909216919091179055565b611c89612827565b73ffffffffffffffffffffffffffffffffffffffff16611ca761160e565b73ffffffffffffffffffffffffffffffffffffffff1614611cf4576040517f08c379a0000000000000000000000000000000000000000000000000000000008152600401610a9990613dbd565b600855565b600080546040517f3c9c8f9c00000000000000000000000000000000000000000000000000000000815273ffffffffffffffffffffffffffffffffffffffff90911690633c9c8f9c90611d5190606b90600401613f09565b60206040518083038186803b158015611d6957600080fd5b505afa158015611d7d573d6000803e3d6000fd5b505050506040513d601f19601f82011682018060405250810190611da1919061383e565b905090565b604080516000808252602082019283905290519091611dc891600a9190613699565b506040805160008152602081019182905251611de691600b91613699565b506040805160008152602081019182905251611e0491600c91613699565b5060005b808451111561230b576000848281518110611e4c577f4e487b7100000000000000000000000000000000000000000000000000000000600052603260045260246000fd5b602002602001015190506000600460008373ffffffffffffffffffffffffffffffffffffffff1673ffffffffffffffffffffffffffffffffffffffff1681526020019081526020016000209050611ea2816132ac565b156122b457600c805460018101825560009182527fdf6966c971051c3d54ec59162606531493a51404a002842f56009d7e5cf4a8c70180547fffffffffffffffffffffffff00000000000000000000000000000000000000001673ffffffffffffffffffffffffffffffffffffffff85161790555b600482015481101561208f576000826004018281548110611f61577f4e487b7100000000000000000000000000000000000000000000000000000000600052603260045260246000fd5b600091825260208083209091015473ffffffffffffffffffffffffffffffffffffffff168083526009909152604090912060028101549192509043146120375773ffffffffffffffffffffffffffffffffffffffff82166000818152600586016020526040812054600180850191909155818455436002850155600a805491820181559091527fc65a7bb8d6351c1cf70c95a316cc6a92839c986682d98bc35f958f4883f9d2a80180547fffffffffffffffffffffffff000000000000000000000000000000000000000016909117905561207a565b73ffffffffffffffffffffffffffffffffffffffff8216600090815260058501602052604081205460018301805491929091612074908490613f85565b90915550505b505080806120879061402a565b915050611f17565b5060005b60018201548110156122b25760008260010182815481106120dd577f4e487b7100000000000000000000000000000000000000000000000000000000600052603260045260246000fd5b600091825260208083209091015473ffffffffffffffffffffffffffffffffffffffff1680835260099091526040822090925090612119613254565b73ffffffffffffffffffffffffffffffffffffffff1663e7bde5c1846040518263ffffffff1660e01b815260040161215191906139fa565b60206040518083038186803b15801561216957600080fd5b505afa15801561217d573d6000803e3d6000fd5b505050506040513d601f19601f820116820180604052508101906121a191906139e2565b73ffffffffffffffffffffffffffffffffffffffff8416600090815260038701602090815260408083205460028a0190925282205492935090916121e6908490613fd6565b6121f09190613f9d565b9050438360020154146122815760006001848101829055828555436002860155600b805491820181559091527f0175b7a638427703f0dbe7bb9bbf987a2551717b34e79f33b5b1008d1fa01db90180547fffffffffffffffffffffffff00000000000000000000000000000000000000001673ffffffffffffffffffffffffffffffffffffffff861617905561229b565b808360000160008282546122959190613f85565b90915550505b5050505080806122aa9061402a565b915050612093565b505b73ffffffffffffffffffffffffffffffffffffffff82166000908152600d6020526040902085156122f5576122e881612eaa565b6122f29086613f85565b94505b50505080806123039061402a565b915050611e08565b5092915050565b6000805b600a5481101561246b576000600a828154811061235c577f4e487b7100000000000000000000000000000000000000000000000000000000600052603260045260246000fd5b600091825260208083209091015473ffffffffffffffffffffffffffffffffffffffff1680835260099091526040909120805460018201549293509091111561245657805460018201546000916123b291614013565b90506123bc61264d565b73ffffffffffffffffffffffffffffffffffffffff166305883f7c84836040518363ffffffff1660e01b81526004016123f6929190613a4c565b602060405180830381600087803b15801561241057600080fd5b505af1158015612424573d6000803e3d6000fd5b505050506040513d601f19601f8201168201806040525081019061244891906139e2565b6124529086613f85565b9450505b505080806124639061402a565b915050612316565b5090565b6000805b600b5481101561246b576000600b82815481106124b9577f4e487b7100000000000000000000000000000000000000000000000000000000600052603260045260246000fd5b600091825260208083209091015473ffffffffffffffffffffffffffffffffffffffff168083526009909152604090912060018101548154929350909111156125b05761250461264d565b73ffffffffffffffffffffffffffffffffffffffff166305883f7c83836001015484600001546125349190614013565b6040518363ffffffff1660e01b8152600401612551929190613a4c565b602060405180830381600087803b15801561256b57600080fd5b505af115801561257f573d6000803e3d6000fd5b505050506040513d601f19601f820116820180604052508101906125a391906139e2565b6125ad9085613f85565b93505b505080806125bd9061402a565b915050612473565b60006125d782600401836005016132df565b90505b919050565b60006125d782600101836002018460030161342d565b600080546040517f3c9c8f9c00000000000000000000000000000000000000000000000000000000815273ffffffffffffffffffffffffffffffffffffffff90911690633c9c8f9c90611d5190606590600401613f09565b600080546040517f3c9c8f9c00000000000000000000000000000000000000000000000000000000815273ffffffffffffffffffffffffffffffffffffffff90911690633c9c8f9c90611d5190606a90600401613f09565b60005b60018201548110156127435760008260010182815481106126f2577f4e487b7100000000000000000000000000000000000000000000000000000000600052603260045260246000fd5b600091825260208083209091015473ffffffffffffffffffffffffffffffffffffffff168252600285018152604080832083905560038601909152812055508061273b8161402a565b9150506126a8565b5060005b6004820154811015612807576000826004018281548110612791577f4e487b7100000000000000000000000000000000000000000000000000000000600052603260045260246000fd5b600091825260208083209091015473ffffffffffffffffffffffffffffffffffffffff168252600585018152604080832083905560068601909152902080547fffffffffffffffffffffffffffffffffffffffffffffffffffffffffffffff0016905550806127ff8161402a565b915050612747565b5061281660018201600061371f565b61282460048201600061371f565b50565b3390565b600080546040517fd87fefd200000000000000000000000000000000000000000000000000000000815273ffffffffffffffffffffffffffffffffffffffff9091169063d87fefd290612885906009908690600401613f18565b60206040518083038186803b15801561289d57600080fd5b505afa1580156128b1573d6000803e3d6000fd5b505050506040513d601f19601f820116820180604052508101906125d791906139aa565b600080546040517fd87fefd200000000000000000000000000000000000000000000000000000000815273ffffffffffffffffffffffffffffffffffffffff9091169063d87fefd2906128859060049086908201613f18565b60008183111561293f575080612942565b50815b92915050565b612950613254565b73ffffffffffffffffffffffffffffffffffffffff838116600090815260028601602090815260408083205460038901909252918290205491517fe695fa68000000000000000000000000000000000000000000000000000000008152939092169263e695fa68926129c9929091879190600401613f4b565b602060405180830381600087803b1580156129e357600080fd5b505af11580156129f7573d6000803e3d6000fd5b505050506040513d601f19601f82011682018060405250810190612a1b91906139e2565b73ffffffffffffffffffffffffffffffffffffffff831660009081526002850160205260409020819055612a50908290614013565b73ffffffffffffffffffffffffffffffffffffffff831660009081526002850160209081526040808320939093556005860190522054612a91908290614013565b73ffffffffffffffffffffffffffffffffffffffff9092166000908152600590930160205250604090912055565b612ac983836134d5565b612bde576001838101805491820181556000908152602090200180547fffffffffffffffffffffffff00000000000000000000000000000000000000001673ffffffffffffffffffffffffffffffffffffffff8416179055612b29613254565b73ffffffffffffffffffffffffffffffffffffffff1663e7bde5c1836040518263ffffffff1660e01b8152600401612b6191906139fa565b60206040518083038186803b158015612b7957600080fd5b505afa158015612b8d573d6000803e3d6000fd5b505050506040513d601f19601f82011682018060405250810190612bb191906139e2565b73ffffffffffffffffffffffffffffffffffffffff83166000908152600385016020526040902055612cda565b612be6613254565b73ffffffffffffffffffffffffffffffffffffffff838116600090815260028601602090815260408083205460038901909252918290205491517fe695fa68000000000000000000000000000000000000000000000000000000008152939092169263e695fa6892612c5f929091879190600401613f4b565b602060405180830381600087803b158015612c7957600080fd5b505af1158015612c8d573d6000803e3d6000fd5b505050506040513d601f19601f82011682018060405250810190612cb191906139e2565b73ffffffffffffffffffffffffffffffffffffffff831660009081526002850160205260409020555b73ffffffffffffffffffffffffffffffffffffffff8216600090815260028401602052604081208054839290612d11908490613f85565b90915550612d229050838383612dd3565b612d2b83613209565b612d61576040517f08c379a0000000000000000000000000000000000000000000000000000000008152600401610a9990613e4f565b505050565b73ffffffffffffffffffffffffffffffffffffffff84166000908152600586016020526040902054612d99908390614013565b73ffffffffffffffffffffffffffffffffffffffff85166000908152600587016020526040902055612dcc858483612dd3565b5050505050565b612ddd8383613503565b612e3757600483018054600181018255600091825260209091200180547fffffffffffffffffffffffff00000000000000000000000000000000000000001673ffffffffffffffffffffffffffffffffffffffff84161790555b73ffffffffffffffffffffffffffffffffffffffff8216600090815260058401602052604081208054839290612e6e908490613f85565b9091555050505050565b73ffffffffffffffffffffffffffffffffffffffff821660009081526005840160205260409020548111159392505050565b6002810154600090156125da578154600090612edd90612ecb436001613f85565b612ed59190614013565b600f5461292e565b90506000600f54846002015483612ef49190613fd6565b612efe9190613f9d565b9050612f086125f5565b73ffffffffffffffffffffffffffffffffffffffff1663d9caed12612f2b61264d565b73ffffffffffffffffffffffffffffffffffffffff16631f1cb62b6040518163ffffffff1660e01b815260040160206040518083038186803b158015612f7057600080fd5b505afa158015612f84573d6000803e3d6000fd5b505050506040513d601f19601f82011682018060405250810190612fa8919061383e565b60038701546040517fffffffff0000000000000000000000000000000000000000000000000000000060e085901b168152612fff929173ffffffffffffffffffffffffffffffffffffffff16908690600401613a1b565b602060405180830381600087803b15801561301957600080fd5b505af115801561302d573d6000803e3d6000fd5b505050506040513d601f19601f8201168201806040525081019061305191906139aa565b50600061305c611cf9565b90506000600e54838373ffffffffffffffffffffffffffffffffffffffff16630ad691506040518163ffffffff1660e01b815260040160206040518083038186803b1580156130aa57600080fd5b505afa1580156130be573d6000803e3d6000fd5b505050506040513d601f19601f820116820180604052508101906130e291906139e2565b6130ec9190613fd6565b6130f69190613f9d565b600187015460038801546040517f0a45bc1b00000000000000000000000000000000000000000000000000000000815292935073ffffffffffffffffffffffffffffffffffffffff80861693630a45bc1b9361315d93908316928792911690600401613a72565b602060405180830381600087803b15801561317757600080fd5b505af115801561318b573d6000803e3d6000fd5b505050506040513d601f19601f820116820180604052508101906131af91906139e2565b506000600287018190556003870180547fffffffffffffffffffffffff000000000000000000000000000000000000000090811690915581885560018801805490911690556131ff908490614013565b9695505050505050565b600080613215836125df565b90506000613222846125c5565b9050600254826132329190613fd6565b600254613240906001613f85565b61324a9083613fd6565b1015949350505050565b600080546040517f3c9c8f9c00000000000000000000000000000000000000000000000000000000815273ffffffffffffffffffffffffffffffffffffffff90911690633c9c8f9c90611d5190606690600401613f09565b6000806132b8836125df565b905060006132c5846125c5565b90506132d38261044c613fd6565b61324a826103e8613fd6565b6000805b835481101561230b576000848281548110613327577f4e487b7100000000000000000000000000000000000000000000000000000000600052603260045260246000fd5b60009182526020909120015473ffffffffffffffffffffffffffffffffffffffff16905061335361264d565b73ffffffffffffffffffffffffffffffffffffffff828116600090815260208790526040908190205490517fe47109a9000000000000000000000000000000000000000000000000000000008152929091169163e47109a9916133bb91859190600401613a4c565b602060405180830381600087803b1580156133d557600080fd5b505af11580156133e9573d6000803e3d6000fd5b505050506040513d601f19601f8201168201806040525081019061340d91906139e2565b6134179084613f85565b92505080806134259061402a565b9150506132e3565b6000805b845481101561149d576000858281548110613475577f4e487b7100000000000000000000000000000000000000000000000000000000600052603260045260246000fd5b600091825260208083209091015473ffffffffffffffffffffffffffffffffffffffff16808352908790526040909120549091506134b590829086613532565b6134bf9084613f85565b92505080806134cd9061402a565b915050613431565b73ffffffffffffffffffffffffffffffffffffffff1660009081526003919091016020526040902054151590565b73ffffffffffffffffffffffffffffffffffffffff166000908152600691909101602052604090205460ff1690565b60008061353d613254565b73ffffffffffffffffffffffffffffffffffffffff1663e7bde5c1866040518263ffffffff1660e01b815260040161357591906139fa565b60206040518083038186803b15801561358d57600080fd5b505afa1580156135a1573d6000803e3d6000fd5b505050506040513d601f19601f820116820180604052508101906135c591906139e2565b73ffffffffffffffffffffffffffffffffffffffff8616600090815260208590526040812054919250906135f98387613fd6565b6136039190613f9d565b905061360d61264d565b73ffffffffffffffffffffffffffffffffffffffff1663e47109a987836040518363ffffffff1660e01b8152600401613647929190613a4c565b602060405180830381600087803b15801561366157600080fd5b505af1158015613675573d6000803e3d6000fd5b505050506040513d601f19601f820116820180604052508101906131ff91906139e2565b828054828255906000526020600020908101928215613713579160200282015b8281111561371357825182547fffffffffffffffffffffffff00000000000000000000000000000000000000001673ffffffffffffffffffffffffffffffffffffffff9091161782556020909201916001909101906136b9565b5061246b929150613739565b508054600082559060005260206000209081019061282491905b5b8082111561246b576000815560010161373a565b80356125da816140c1565b600082601f830112613769578081fd5b8135602067ffffffffffffffff8083111561378657613786614092565b8183026040517fffffffffffffffffffffffffffffffffffffffffffffffffffffffffffffffe0603f830116810181811084821117156137c8576137c8614092565b604052848152838101925086840182880185018910156137e6578687fd5b8692505b8583101561380f576137fb8161374e565b8452928401926001929092019184016137ea565b50979650505050505050565b60006020828403121561382c578081fd5b8135613837816140c1565b9392505050565b60006020828403121561384f578081fd5b8151613837816140c1565b600080600080600060a08688031215613871578081fd5b853561387c816140c1565b9450602086013561388c816140c1565b9350604086013561389c816140c1565b94979396509394606081013594506080013592915050565b6000806000606084860312156138c8578283fd5b83356138d3816140c1565b925060208401356138e3816140c1565b929592945050506040919091013590565b60008060408385031215613906578182fd5b8235613911816140c1565b946020939093013593505050565b600060208284031215613930578081fd5b813567ffffffffffffffff811115613946578182fd5b61395284828501613759565b949350505050565b6000806040838503121561396c578182fd5b823567ffffffffffffffff811115613982578283fd5b61398e85828601613759565b925050602083013561399f816140c1565b809150509250929050565b6000602082840312156139bb578081fd5b81518015158114613837578182fd5b6000602082840312156139db578081fd5b5035919050565b6000602082840312156139f3578081fd5b5051919050565b73ffffffffffffffffffffffffffffffffffffffff91909116815260200190565b73ffffffffffffffffffffffffffffffffffffffff9384168152919092166020820152604081019190915260600190565b73ffffffffffffffffffffffffffffffffffffffff929092168252602082015260400190565b73ffffffffffffffffffffffffffffffffffffffff93841681526020810192909252909116604082015260600190565b604080825283519082018190526000906020906060840190828701845b82811015613af157815173ffffffffffffffffffffffffffffffffffffffff1684529284019290840190600101613abf565b50505083810382850152845180825285830191830190845b81811015613b2557835183529284019291840191600101613b09565b5090979650505050505050565b60208082526026908201527f43616c6c6572206e6f7420617574686f72697a656420746f2073657420746f6b60408201527f656e206361700000000000000000000000000000000000000000000000000000606082015260800190565b60208082526039908201527f43616c6c696e6720636f6e7472616374206973206e6f7420616e20617574686f60408201527f72697a6564206d617267696e20747261646572206167656e7400000000000000606082015260800190565b60208082526018908201527f43616e277420626f72726f772066756c6c20616d6f756e740000000000000000604082015260600190565b60208082526026908201527f4f776e61626c653a206e6577206f776e657220697320746865207a65726f206160408201527f6464726573730000000000000000000000000000000000000000000000000000606082015260800190565b60208082526033908201527f43616c6c696e6720636f6e7472616374206973206e6f7420616e20617574686f60408201527f72697a6564206d617267696e2074726164657200000000000000000000000000606082015260800190565b60208082526026908201527f4163636f756e742062616c616e636520697320746f6f206c6f7720746f20776960408201527f7468647261770000000000000000000000000000000000000000000000000000606082015260800190565b60208082526052908201527f546f2070726576656e742061747461636b7320796f75206d757374207761697460408201527f20756e74696c20796f757220636f6f6c696e67206f666620706572696f64206960608201527f73206f76657220746f2077697468647261770000000000000000000000000000608082015260a00190565b6020808252818101527f4f776e61626c653a2063616c6c6572206973206e6f7420746865206f776e6572604082015260600190565b60208082526039908201527f457863656564696e6720676c6f62616c206578706f737572652063617020746f60408201527f20746f6b656e202d2d2074727920616761696e206c6174657200000000000000606082015260800190565b60208082526022908201527f43616e277420626f72726f773a20696e73756666696369656e742062616c616e60408201527f6365000000000000000000000000000000000000000000000000000000000000606082015260800190565b6020808252602a908201527f43616c6c696e6720636f6e7472616374206e6f7420617574686f72697a65642060408201527f746f206465706f73697400000000000000000000000000000000000000000000606082015260800190565b61ffff91909116815260200190565b61ffff92909216825273ffffffffffffffffffffffffffffffffffffffff16602082015260400190565b90815260200190565b92835273ffffffffffffffffffffffffffffffffffffffff919091166020830152604082015260600190565b918252602082015260400190565b60008219821115613f9857613f98614063565b500190565b600082613fd1577f4e487b710000000000000000000000000000000000000000000000000000000081526012600452602481fd5b500490565b6000817fffffffffffffffffffffffffffffffffffffffffffffffffffffffffffffffff048311821515161561400e5761400e614063565b500290565b60008282101561402557614025614063565b500390565b60007fffffffffffffffffffffffffffffffffffffffffffffffffffffffffffffffff82141561405c5761405c614063565b5060010190565b7f4e487b7100000000000000000000000000000000000000000000000000000000600052601160045260246000fd5b7f4e487b7100000000000000000000000000000000000000000000000000000000600052604160045260246000fd5b73ffffffffffffffffffffffffffffffffffffffff8116811461282457600080fdfea2646970667358221220b8fe12410dbcd2082f16a1589fe04be081a9b66652d74185821462737f0f671764736f6c63430008010033",
  "linkReferences": {},
  "deployedLinkReferences": {}
}