{
  "_format": "hh-sol-artifact-1",
  "contractName": "CrossMarginTrading",
  "sourceName": "contracts/CrossMarginTrading.sol",
  "abi": [
    {
      "inputs": [
        {
          "internalType": "address",
          "name": "_roles",
          "type": "address"
        }
      ],
      "stateMutability": "nonpayable",
      "type": "constructor"
    },
    {
      "anonymous": false,
      "inputs": [
        {
          "indexed": false,
          "internalType": "uint256",
          "name": "amount",
          "type": "uint256"
        }
      ],
      "name": "LiquidationShortfall",
      "type": "event"
    },
    {
      "anonymous": false,
      "inputs": [
        {
          "indexed": true,
          "internalType": "address",
          "name": "previousOwner",
          "type": "address"
        },
        {
          "indexed": true,
          "internalType": "address",
          "name": "newOwner",
          "type": "address"
        }
      ],
      "name": "OwnershipTransferred",
      "type": "event"
    },
    {
      "inputs": [],
      "name": "ADMIN",
      "outputs": [
        {
          "internalType": "uint16",
          "name": "",
          "type": "uint16"
        }
      ],
      "stateMutability": "view",
      "type": "function"
    },
    {
      "inputs": [],
      "name": "AUTHORIZED_FUND_TRADER",
      "outputs": [
        {
          "internalType": "uint16",
          "name": "",
          "type": "uint16"
        }
      ],
      "stateMutability": "view",
      "type": "function"
    },
    {
      "inputs": [],
      "name": "BORROWER",
      "outputs": [
        {
          "internalType": "uint16",
          "name": "",
          "type": "uint16"
        }
      ],
      "stateMutability": "view",
      "type": "function"
    },
    {
      "inputs": [],
      "name": "FEE_CONTROLLER",
      "outputs": [
        {
          "internalType": "uint16",
          "name": "",
          "type": "uint16"
        }
      ],
      "stateMutability": "view",
      "type": "function"
    },
    {
      "inputs": [],
      "name": "FEE_SOURCE",
      "outputs": [
        {
          "internalType": "uint16",
          "name": "",
          "type": "uint16"
        }
      ],
      "stateMutability": "view",
      "type": "function"
    },
    {
      "inputs": [],
      "name": "FUND",
      "outputs": [
        {
          "internalType": "uint16",
          "name": "",
          "type": "uint16"
        }
      ],
      "stateMutability": "view",
      "type": "function"
    },
    {
      "inputs": [],
      "name": "INCENTIVE_DISTRIBUTION",
      "outputs": [
        {
          "internalType": "uint16",
          "name": "",
          "type": "uint16"
        }
      ],
      "stateMutability": "view",
      "type": "function"
    },
    {
      "inputs": [],
      "name": "INCENTIVE_REPORTER",
      "outputs": [
        {
          "internalType": "uint16",
          "name": "",
          "type": "uint16"
        }
      ],
      "stateMutability": "view",
      "type": "function"
    },
    {
      "inputs": [],
      "name": "LENDING",
      "outputs": [
        {
          "internalType": "uint16",
          "name": "",
          "type": "uint16"
        }
      ],
      "stateMutability": "view",
      "type": "function"
    },
    {
      "inputs": [],
      "name": "LIQUIDATOR",
      "outputs": [
        {
          "internalType": "uint16",
          "name": "",
          "type": "uint16"
        }
      ],
      "stateMutability": "view",
      "type": "function"
    },
    {
      "inputs": [],
      "name": "MARGIN_CALLER",
      "outputs": [
        {
          "internalType": "uint16",
          "name": "",
          "type": "uint16"
        }
      ],
      "stateMutability": "view",
      "type": "function"
    },
    {
      "inputs": [],
      "name": "MARGIN_TRADER",
      "outputs": [
        {
          "internalType": "uint16",
          "name": "",
          "type": "uint16"
        }
      ],
      "stateMutability": "view",
      "type": "function"
    },
    {
      "inputs": [],
      "name": "MARGIN_TRADING",
      "outputs": [
        {
          "internalType": "uint16",
          "name": "",
          "type": "uint16"
        }
      ],
      "stateMutability": "view",
      "type": "function"
    },
    {
      "inputs": [],
      "name": "PRICE_CONTROLLER",
      "outputs": [
        {
          "internalType": "uint16",
          "name": "",
          "type": "uint16"
        }
      ],
      "stateMutability": "view",
      "type": "function"
    },
    {
      "inputs": [],
      "name": "ROUTER",
      "outputs": [
        {
          "internalType": "uint16",
          "name": "",
          "type": "uint16"
        }
      ],
      "stateMutability": "view",
      "type": "function"
    },
    {
      "inputs": [],
      "name": "STAKE_PENALIZER",
      "outputs": [
        {
          "internalType": "uint16",
          "name": "",
          "type": "uint16"
        }
      ],
      "stateMutability": "view",
      "type": "function"
    },
    {
      "inputs": [],
      "name": "TOKEN_ACTIVATOR",
      "outputs": [
        {
          "internalType": "uint16",
          "name": "",
          "type": "uint16"
        }
      ],
      "stateMutability": "view",
      "type": "function"
    },
    {
      "inputs": [],
      "name": "WITHDRAWER",
      "outputs": [
        {
          "internalType": "uint16",
          "name": "",
          "type": "uint16"
        }
      ],
      "stateMutability": "view",
      "type": "function"
    },
    {
      "inputs": [
        {
          "internalType": "address[]",
          "name": "liquidationCandidates",
          "type": "address[]"
        },
        {
          "internalType": "address",
          "name": "currentCaller",
          "type": "address"
        }
      ],
      "name": "callMargin",
      "outputs": [
        {
          "internalType": "uint256",
          "name": "marginCallerCut",
          "type": "uint256"
        }
      ],
      "stateMutability": "nonpayable",
      "type": "function"
    },
    {
      "inputs": [
        {
          "internalType": "address[]",
          "name": "liquidatedAccounts",
          "type": "address[]"
        }
      ],
      "name": "disburseMCAttacks",
      "outputs": [],
      "stateMutability": "nonpayable",
      "type": "function"
    },
    {
      "inputs": [
        {
          "internalType": "address",
          "name": "trader",
          "type": "address"
        }
      ],
      "name": "getBorrowAmounts",
      "outputs": [
        {
          "internalType": "address[]",
          "name": "borrowTokens",
          "type": "address[]"
        },
        {
          "internalType": "uint256[]",
          "name": "borrowAmounts",
          "type": "uint256[]"
        }
      ],
      "stateMutability": "view",
      "type": "function"
    },
    {
      "inputs": [
        {
          "internalType": "address",
          "name": "trader",
          "type": "address"
        }
      ],
      "name": "getHoldingAmounts",
      "outputs": [
        {
          "internalType": "address[]",
          "name": "holdingTokens",
          "type": "address[]"
        },
        {
          "internalType": "uint256[]",
          "name": "holdingAmounts",
          "type": "uint256[]"
        }
      ],
      "stateMutability": "view",
      "type": "function"
    },
    {
      "inputs": [
        {
          "internalType": "address",
          "name": "trader",
          "type": "address"
        },
        {
          "internalType": "address",
          "name": "token",
          "type": "address"
        },
        {
          "internalType": "uint256",
          "name": "amount",
          "type": "uint256"
        }
      ],
      "name": "getTradeBorrowAmount",
      "outputs": [
        {
          "internalType": "uint256",
          "name": "borrowAmount",
          "type": "uint256"
        }
      ],
      "stateMutability": "view",
      "type": "function"
    },
    {
      "inputs": [],
      "name": "leverage",
      "outputs": [
        {
          "internalType": "uint256",
          "name": "",
          "type": "uint256"
        }
      ],
      "stateMutability": "view",
      "type": "function"
    },
    {
      "inputs": [],
      "name": "liquidationThresholdPercent",
      "outputs": [
        {
          "internalType": "uint256",
          "name": "",
          "type": "uint256"
        }
      ],
      "stateMutability": "view",
      "type": "function"
    },
    {
      "inputs": [],
      "name": "owner",
      "outputs": [
        {
          "internalType": "address",
          "name": "",
          "type": "address"
        }
      ],
      "stateMutability": "view",
      "type": "function"
    },
    {
      "inputs": [
        {
          "internalType": "address",
          "name": "trader",
          "type": "address"
        },
        {
          "internalType": "address",
          "name": "borrowToken",
          "type": "address"
        },
        {
          "internalType": "uint256",
          "name": "borrowAmount",
          "type": "uint256"
        }
      ],
      "name": "registerBorrow",
      "outputs": [],
      "stateMutability": "nonpayable",
      "type": "function"
    },
    {
      "inputs": [
        {
          "internalType": "address",
          "name": "trader",
          "type": "address"
        },
        {
          "internalType": "address",
          "name": "token",
          "type": "address"
        },
        {
          "internalType": "uint256",
          "name": "depositAmount",
          "type": "uint256"
        }
      ],
      "name": "registerDeposit",
      "outputs": [
        {
          "internalType": "uint256",
          "name": "extinguishableDebt",
          "type": "uint256"
        }
      ],
      "stateMutability": "nonpayable",
      "type": "function"
    },
    {
      "inputs": [
        {
          "internalType": "address",
          "name": "trader",
          "type": "address"
        },
        {
          "internalType": "address",
          "name": "tokenFrom",
          "type": "address"
        },
        {
          "internalType": "address",
          "name": "tokenTo",
          "type": "address"
        },
        {
          "internalType": "uint256",
          "name": "inAmount",
          "type": "uint256"
        },
        {
          "internalType": "uint256",
          "name": "outAmount",
          "type": "uint256"
        }
      ],
      "name": "registerTradeAndBorrow",
      "outputs": [
        {
          "internalType": "uint256",
          "name": "extinguishableDebt",
          "type": "uint256"
        },
        {
          "internalType": "uint256",
          "name": "borrowAmount",
          "type": "uint256"
        }
      ],
      "stateMutability": "nonpayable",
      "type": "function"
    },
    {
      "inputs": [
        {
          "internalType": "address",
          "name": "trader",
          "type": "address"
        },
        {
          "internalType": "address",
          "name": "withdrawToken",
          "type": "address"
        },
        {
          "internalType": "uint256",
          "name": "withdrawAmount",
          "type": "uint256"
        }
      ],
      "name": "registerWithdrawal",
      "outputs": [],
      "stateMutability": "nonpayable",
      "type": "function"
    },
    {
      "inputs": [],
      "name": "renounceOwnership",
      "outputs": [],
      "stateMutability": "nonpayable",
      "type": "function"
    },
    {
      "inputs": [],
      "name": "roles",
      "outputs": [
        {
          "internalType": "contract Roles",
          "name": "",
          "type": "address"
        }
      ],
      "stateMutability": "view",
      "type": "function"
    },
    {
      "inputs": [
        {
          "internalType": "uint256",
          "name": "_leverage",
          "type": "uint256"
        }
      ],
      "name": "setLeverage",
      "outputs": [],
      "stateMutability": "nonpayable",
      "type": "function"
    },
    {
      "inputs": [
        {
          "internalType": "uint256",
          "name": "threshold",
          "type": "uint256"
        }
      ],
      "name": "setLiquidationThresholdPercent",
      "outputs": [],
      "stateMutability": "nonpayable",
      "type": "function"
    },
    {
      "inputs": [
        {
          "internalType": "address",
          "name": "token",
          "type": "address"
        },
        {
          "internalType": "uint256",
          "name": "cap",
          "type": "uint256"
        }
      ],
      "name": "setTokenCap",
      "outputs": [],
      "stateMutability": "nonpayable",
      "type": "function"
    },
    {
      "inputs": [
        {
          "internalType": "address",
          "name": "",
          "type": "address"
        }
      ],
      "name": "tokenCaps",
      "outputs": [
        {
          "internalType": "uint256",
          "name": "",
          "type": "uint256"
        }
      ],
      "stateMutability": "view",
      "type": "function"
    },
    {
      "inputs": [
        {
          "internalType": "address",
          "name": "",
          "type": "address"
        }
      ],
      "name": "totalLong",
      "outputs": [
        {
          "internalType": "uint256",
          "name": "",
          "type": "uint256"
        }
      ],
      "stateMutability": "view",
      "type": "function"
    },
    {
      "inputs": [
        {
          "internalType": "address",
          "name": "",
          "type": "address"
        }
      ],
      "name": "totalShort",
      "outputs": [
        {
          "internalType": "uint256",
          "name": "",
          "type": "uint256"
        }
      ],
      "stateMutability": "view",
      "type": "function"
    },
    {
      "inputs": [
        {
          "internalType": "address",
          "name": "newOwner",
          "type": "address"
        }
      ],
      "name": "transferOwnership",
      "outputs": [],
      "stateMutability": "nonpayable",
      "type": "function"
    }
  ],
  "bytecode": "0x6080604052600a600d556005600e553480156200001b57600080fd5b506040516200409b3803806200409b8339810160408190526200003e91620000c1565b600080546001600160a01b0319166001600160a01b03831617815562000063620000bd565b600180546001600160a01b0319166001600160a01b038316908117909155604051919250906000907f8be0079c531659141344cd1fd0a4f28419497f9722a3daafe3b4186f6b6457e0908290a350506014600355620000f1565b3390565b600060208284031215620000d3578081fd5b81516001600160a01b0381168114620000ea578182fd5b9392505050565b613f9a80620001016000396000f3fe608060405234801561001057600080fd5b50600436106102ad5760003560e01c80635c275a391161017b578063a94c7c34116100d8578063d0eb66531161008c578063d5d7ed7f11610071578063d5d7ed7f146104ba578063e0f3871f146104c2578063f2fde38b146104d5576102ad565b8063d0eb665314610494578063d510c535146104a7576102ad565b8063bc44dcbc116100bd578063bc44dcbc14610471578063c76139d014610484578063cacf8d451461048c576102ad565b8063a94c7c3414610461578063a9cc053614610469576102ad565b806381ca66001161012f5780638da5cb5b116101145780638da5cb5b1461043e578063a0098d6914610446578063a12f52951461044e576102ad565b806381ca66001461042e57806383a49c7c14610436576102ad565b80636694198411610160578063669419841461040b578063715018a61461041357806379575b231461041b576102ad565b80635c275a39146103f05780636612ce35146103f8576102ad565b8063320d2fa011610229578063409fdb72116101dd57806348fb27b8116101c257806348fb27b8146103c2578063498d55eb146103ca57806352a664d9146103dd576102ad565b8063409fdb721461039957806346b88796146103ba576102ad565b80633500aa0b1161020e5780633500aa0b14610350578063387ccdc614610371578063392f5f6414610384576102ad565b8063320d2fa01461034057806332fe7b2614610348576102ad565b80631d47e4a3116102805780632a0acc6a116102655780632a0acc6a146103285780632c86d98e146103305780632fe94def14610338576102ad565b80631d47e4a3146102f557806320c2712614610308576102ad565b8063065d570f146102b257806316317e7e146102d05780631b669507146102e55780631bc5d81d146102ed575b600080fd5b6102ba6104e8565b6040516102c79190613d8a565b60405180910390f35b6102e36102de3660046138ce565b6104ed565b005b6102ba61056e565b6102ba610573565b6102e36103033660046137f8565b610578565b61031b61031636600461371f565b6105e0565b6040516102c79190613dc3565b6102ba6105f2565b61031b6105f7565b6102ba6105fd565b61031b610602565b6102ba610608565b61036361035e36600461375e565b61060d565b6040516102c7929190613df8565b61031b61037f36600461385e565b610921565b61038c610e33565b6040516102c791906138fe565b6103ac6103a736600461371f565b610e4f565b6040516102c79291906139a6565b6102ba611045565b6102ba61104a565b6102e36103d83660046137b8565b61104f565b61031b6103eb3660046137b8565b6111de565b6102ba6113a3565b61031b6104063660046137b8565b6113a8565b6102ba61146c565b6102e3611471565b6102e36104293660046138ce565b611553565b6102ba6115cb565b6102ba6115d0565b61038c6115d5565b6102ba6115f1565b6102e361045c366004613823565b6115f6565b6102ba6116c0565b6102ba6116c5565b61031b61047f36600461371f565b6116ca565b6102ba6116dc565b6102ba6116e1565b6102e36104a23660046137b8565b6116e6565b6103ac6104b536600461371f565b611809565b6102ba611a81565b61031b6104d036600461371f565b611a86565b6102e36104e336600461371f565b611a98565b600381565b6104f5611be6565b73ffffffffffffffffffffffffffffffffffffffff166105136115d5565b73ffffffffffffffffffffffffffffffffffffffff1614610569576040517f08c379a000000000000000000000000000000000000000000000000000000000815260040161056090613c3e565b60405180910390fd5b600355565b600a81565b600881565b61058133611bea565b6105b7576040517f08c379a000000000000000000000000000000000000000000000000000000000815260040161056090613a36565b73ffffffffffffffffffffffffffffffffffffffff909116600090815260056020526040902055565b60076020526000908152604090205481565b606b81565b60025481565b606981565b60035481565b606781565b60008061061933611c9c565b61064f576040517f08c379a000000000000000000000000000000000000000000000000000000000815260040161056090613a93565b73ffffffffffffffffffffffffffffffffffffffff8088166000908152600460209081526040808320938916835260018401909152902054156107075773ffffffffffffffffffffffffffffffffffffffff861660009081526001820160205260409020546106bf908590611cf5565b92506106cc818785611d0f565b73ffffffffffffffffffffffffffffffffffffffff861660009081526006602052604081208054859290610701908490613e94565b90915550505b73ffffffffffffffffffffffffffffffffffffffff87166000908152600760205260408120805487929061073c908490613e94565b9091555061074c90508385613e94565b73ffffffffffffffffffffffffffffffffffffffff871660009081526007602052604081208054909190610781908490613e06565b909155505073ffffffffffffffffffffffffffffffffffffffff861660009081526007602090815260408083205460059092529091205410156107f0576040517f08c379a000000000000000000000000000000000000000000000000000000000815260040161056090613c73565b73ffffffffffffffffffffffffffffffffffffffff871660009081526004820160205260409020548590811115610908575073ffffffffffffffffffffffffffffffffffffffff871660009081526004820160205260409020546108548187613e94565b73ffffffffffffffffffffffffffffffffffffffff891660009081526006602052604081208054929550859290919061088e908490613e06565b909155505073ffffffffffffffffffffffffffffffffffffffff881660009081526006602090815260408083205460059092529091205410156108fd576040517f08c379a000000000000000000000000000000000000000000000000000000000815260040161056090613c73565b610908828985611e86565b6109158289898489612129565b50509550959350505050565b60008061092c612196565b73ffffffffffffffffffffffffffffffffffffffff16637b23cbce336040518263ffffffff1660e01b815260040161096491906138fe565b602060405180830381600087803b15801561097e57600080fd5b505af1158015610992573d6000803e3d6000fd5b505050506040513d601f19601f820116820180604052508101906109b691906138ae565b905060006109c48583612243565b90506109d08184613e06565b925060006109dc6127ac565b905060006109e8612909565b905081811115610a33577f3555ffae7677eb42103f0b9e11b61c758f452fae446684dec7a363dd38ab58fc610a1d8383613e94565b604051610a2a9190613dc3565b60405180910390a15b60005b600b54811015610dfe576000600b8281548110610a7c577f4e487b7100000000000000000000000000000000000000000000000000000000600052603260045260246000fd5b600091825260208083209091015473ffffffffffffffffffffffffffffffffffffffff1680835260049091526040822090925090610ab982612a5f565b90506000610ac683612a71565b9050600060028054606460035485610ade9190613e57565b610ae89190613e1e565b610af29190613e1e565b610afc9190613e1e565b90508915610b1557610b0e818c613e06565b9a50610c47565b73ffffffffffffffffffffffffffffffffffffffff8581166000908152600c60205260409020600281018390556003810180547fffffffffffffffffffffffff000000000000000000000000000000000000000016928f1692909217909155438155610b7f612196565b73ffffffffffffffffffffffffffffffffffffffff16631a38de1d6040518163ffffffff1660e01b8152600401602060405180830381600087803b158015610bc657600080fd5b505af1158015610bda573d6000803e3d6000fd5b505050506040513d601f19601f82011682018060405250810190610bfe9190613742565b60019190910180547fffffffffffffffffffffffff00000000000000000000000000000000000000001673ffffffffffffffffffffffffffffffffffffffff9092169190911790555b610c518282613e06565b8310610d8b57610c5f612a84565b73ffffffffffffffffffffffffffffffffffffffff1663d9caed12610c82612adc565b73ffffffffffffffffffffffffffffffffffffffff16631f1cb62b6040518163ffffffff1660e01b815260040160206040518083038186803b158015610cc757600080fd5b505afa158015610cdb573d6000803e3d6000fd5b505050506040513d601f19601f82011682018060405250810190610cff9190613742565b8784610d0b8789613e94565b610d159190613e94565b6040518463ffffffff1660e01b8152600401610d339392919061391f565b602060405180830381600087803b158015610d4d57600080fd5b505af1158015610d61573d6000803e3d6000fd5b505050506040513d601f19601f82011682018060405250810190610d8591906138ae565b50610ddd565b600083610d988385613e06565b610da29190613e94565b90507f3555ffae7677eb42103f0b9e11b61c758f452fae446684dec7a363dd38ab58fc81604051610dd39190613dc3565b60405180910390a1505b610de684612b34565b50505050508080610df690613eab565b915050610a36565b50606485600d546063610e119190613e57565b610e1b9190613e06565b610e259190613e1e565b600d55509295945050505050565b60005473ffffffffffffffffffffffffffffffffffffffff1681565b73ffffffffffffffffffffffffffffffffffffffff8116600090815260046020908152604091829020600381018054845181850281018501909552808552606094859490929190830182828015610edc57602002820191906000526020600020905b815473ffffffffffffffffffffffffffffffffffffffff168152600190910190602001808311610eb1575b5050506003840154929550505067ffffffffffffffff811115610f28577f4e487b7100000000000000000000000000000000000000000000000000000000600052604160045260246000fd5b604051908082528060200260200182016040528015610f51578160200160208202803683370190505b50915060005b808451111561103e576000848281518110610f9b577f4e487b7100000000000000000000000000000000000000000000000000000000600052603260045260246000fd5b602002602001015190508260040160008273ffffffffffffffffffffffffffffffffffffffff1673ffffffffffffffffffffffffffffffffffffffff16815260200190815260200160002054848381518110611020577f4e487b7100000000000000000000000000000000000000000000000000000000600052603260045260246000fd5b6020908102919091010152508061103681613eab565b915050610f57565b5050915091565b600681565b606681565b61105833611c9c565b61108e576040517f08c379a000000000000000000000000000000000000000000000000000000000815260040161056090613d2d565b73ffffffffffffffffffffffffffffffffffffffff8216600090815260066020526040812080548392906110c3908490613e06565b909155505073ffffffffffffffffffffffffffffffffffffffff8216600090815260076020526040812080548392906110fd908490613e06565b909155505073ffffffffffffffffffffffffffffffffffffffff821660009081526006602090815260408083205460059092529091205410801590611172575073ffffffffffffffffffffffffffffffffffffffff821660009081526007602090815260408083205460059092529091205410155b6111a8576040517f08c379a000000000000000000000000000000000000000000000000000000000815260040161056090613c73565b73ffffffffffffffffffffffffffffffffffffffff831660009081526004602052604090206111d8818484611e86565b50505050565b60006111e933611c9c565b61121f576040517f08c379a000000000000000000000000000000000000000000000000000000000815260040161056090613d2d565b73ffffffffffffffffffffffffffffffffffffffff831660009081526007602052604081208054849290611254908490613e06565b909155505073ffffffffffffffffffffffffffffffffffffffff831660009081526007602090815260408083205460059092529091205410156112c3576040517f08c379a000000000000000000000000000000000000000000000000000000000815260040161056090613c73565b73ffffffffffffffffffffffffffffffffffffffff841660009081526004602052604090206112f3818585612cb0565b73ffffffffffffffffffffffffffffffffffffffff841660009081526001820160205260409020541561139b5773ffffffffffffffffffffffffffffffffffffffff84166000908152600182016020526040902054611353908490611cf5565b9150611360818584611d0f565b73ffffffffffffffffffffffffffffffffffffffff841660009081526006602052604081208054849290611395908490613e94565b90915550505b509392505050565b606581565b60006113b333611c9c565b6113e9576040517f08c379a000000000000000000000000000000000000000000000000000000000815260040161056090613b84565b73ffffffffffffffffffffffffffffffffffffffff8085166000908152600460208181526040808420948816845291840190529020546114299084613e94565b9150611436818584612d55565b61139b576040517f08c379a000000000000000000000000000000000000000000000000000000000815260040161056090613af0565b600181565b611479611be6565b73ffffffffffffffffffffffffffffffffffffffff166114976115d5565b73ffffffffffffffffffffffffffffffffffffffff16146114e4576040517f08c379a000000000000000000000000000000000000000000000000000000000815260040161056090613c3e565b60015460405160009173ffffffffffffffffffffffffffffffffffffffff16907f8be0079c531659141344cd1fd0a4f28419497f9722a3daafe3b4186f6b6457e0908390a3600180547fffffffffffffffffffffffff0000000000000000000000000000000000000000169055565b61155b611be6565b73ffffffffffffffffffffffffffffffffffffffff166115796115d5565b73ffffffffffffffffffffffffffffffffffffffff16146115c6576040517f08c379a000000000000000000000000000000000000000000000000000000000815260040161056090613c3e565b600255565b606a81565b600981565b60015473ffffffffffffffffffffffffffffffffffffffff1690565b600281565b60005b80825111156116bc576000600c6000848481518110611641577f4e487b7100000000000000000000000000000000000000000000000000000000600052603260045260246000fd5b602002602001015173ffffffffffffffffffffffffffffffffffffffff1673ffffffffffffffffffffffffffffffffffffffff1681526020019081526020016000209050600e5481600001546116979190613e06565b4311156116a9576116a781612d87565b505b50806116b481613eab565b9150506115f9565b5050565b600581565b606881565b60066020526000908152604090205481565b606c81565b600481565b6116ef33611c9c565b611725576040517f08c379a000000000000000000000000000000000000000000000000000000000815260040161056090613d2d565b73ffffffffffffffffffffffffffffffffffffffff8084166000908152600460209081526040808320938616835260079091528120805484929061176a908490613e94565b909155505073ffffffffffffffffffffffffffffffffffffffff831660009081526004820160205260409020546117a2908390613e94565b73ffffffffffffffffffffffffffffffffffffffff841660009081526004830160205260409020556117d3816130e6565b6111d8576040517f08c379a000000000000000000000000000000000000000000000000000000000815260040161056090613be1565b73ffffffffffffffffffffffffffffffffffffffff8116600090815260046020908152604091829020805483518184028101840190945280845260609384939091839183018282801561189257602002820191906000526020600020905b815473ffffffffffffffffffffffffffffffffffffffff168152600190910190602001808311611867575b50508454939650505067ffffffffffffffff82111590506118dc577f4e487b7100000000000000000000000000000000000000000000000000000000600052604160045260246000fd5b604051908082528060200260200182016040528015611905578160200160208202803683370190505b50915060005b808451111561103e57600084828151811061194f577f4e487b7100000000000000000000000000000000000000000000000000000000600052603260045260246000fd5b60200260200101519050611961613131565b73ffffffffffffffffffffffffffffffffffffffff828116600090815260018601602090815260408083205460028901909252918290205491517f687680ed000000000000000000000000000000000000000000000000000000008152939092169263687680ed926119da929091869190600401613dcc565b60206040518083038186803b1580156119f257600080fd5b505afa158015611a06573d6000803e3d6000fd5b505050506040513d601f19601f82011682018060405250810190611a2a91906138e6565b848381518110611a63577f4e487b7100000000000000000000000000000000000000000000000000000000600052603260045260246000fd5b60209081029190910101525080611a7981613eab565b91505061190b565b600781565b60056020526000908152604090205481565b611aa0611be6565b73ffffffffffffffffffffffffffffffffffffffff16611abe6115d5565b73ffffffffffffffffffffffffffffffffffffffff1614611b0b576040517f08c379a000000000000000000000000000000000000000000000000000000000815260040161056090613c3e565b73ffffffffffffffffffffffffffffffffffffffff8116611b58576040517f08c379a000000000000000000000000000000000000000000000000000000000815260040161056090613b27565b60015460405173ffffffffffffffffffffffffffffffffffffffff8084169216907f8be0079c531659141344cd1fd0a4f28419497f9722a3daafe3b4186f6b6457e090600090a3600180547fffffffffffffffffffffffff00000000000000000000000000000000000000001673ffffffffffffffffffffffffffffffffffffffff92909216919091179055565b3390565b600080546040517fd87fefd200000000000000000000000000000000000000000000000000000000815273ffffffffffffffffffffffffffffffffffffffff9091169063d87fefd290611c44906009908690600401613d99565b60206040518083038186803b158015611c5c57600080fd5b505afa158015611c70573d6000803e3d6000fd5b505050506040513d601f19601f82011682018060405250810190611c9491906138ae565b90505b919050565b600080546040517fd87fefd200000000000000000000000000000000000000000000000000000000815273ffffffffffffffffffffffffffffffffffffffff9091169063d87fefd290611c449060049086908201613d99565b600081831115611d06575080611d09565b50815b92915050565b611d17613131565b73ffffffffffffffffffffffffffffffffffffffff838116600090815260018601602090815260408083205460028901909252918290205491517fe695fa68000000000000000000000000000000000000000000000000000000008152939092169263e695fa6892611d90929091879190600401613dcc565b602060405180830381600087803b158015611daa57600080fd5b505af1158015611dbe573d6000803e3d6000fd5b505050506040513d601f19601f82011682018060405250810190611de291906138e6565b73ffffffffffffffffffffffffffffffffffffffff831660009081526001850160205260409020819055611e17908290613e94565b73ffffffffffffffffffffffffffffffffffffffff831660009081526001850160209081526040808320939093556004860190522054611e58908290613e94565b73ffffffffffffffffffffffffffffffffffffffff9092166000908152600490930160205250604090912055565b611e908383613189565b611fa15782546001810184556000848152602090200180547fffffffffffffffffffffffff00000000000000000000000000000000000000001673ffffffffffffffffffffffffffffffffffffffff8416179055611eec613131565b73ffffffffffffffffffffffffffffffffffffffff1663e7bde5c1836040518263ffffffff1660e01b8152600401611f2491906138fe565b60206040518083038186803b158015611f3c57600080fd5b505afa158015611f50573d6000803e3d6000fd5b505050506040513d601f19601f82011682018060405250810190611f7491906138e6565b73ffffffffffffffffffffffffffffffffffffffff8316600090815260028501602052604090205561209d565b611fa9613131565b73ffffffffffffffffffffffffffffffffffffffff838116600090815260018601602090815260408083205460028901909252918290205491517fe695fa68000000000000000000000000000000000000000000000000000000008152939092169263e695fa6892612022929091879190600401613dcc565b602060405180830381600087803b15801561203c57600080fd5b505af1158015612050573d6000803e3d6000fd5b505050506040513d601f19601f8201168201806040525081019061207491906138e6565b73ffffffffffffffffffffffffffffffffffffffff831660009081526001850160205260409020555b73ffffffffffffffffffffffffffffffffffffffff82166000908152600184016020526040812080548392906120d4908490613e06565b909155506120e59050838383612cb0565b6120ee836130e6565b612124576040517f08c379a000000000000000000000000000000000000000000000000000000000815260040161056090613cd0565b505050565b73ffffffffffffffffffffffffffffffffffffffff8416600090815260048601602052604090205461215c908390613e94565b73ffffffffffffffffffffffffffffffffffffffff8516600090815260048701602052604090205561218f858483612cb0565b5050505050565b600080546040517f3c9c8f9c00000000000000000000000000000000000000000000000000000000815273ffffffffffffffffffffffffffffffffffffffff90911690633c9c8f9c906121ee90606b90600401613d8a565b60206040518083038186803b15801561220657600080fd5b505afa15801561221a573d6000803e3d6000fd5b505050506040513d601f19601f8201168201806040525081019061223e9190613742565b905090565b604080516000808252602082019283905290519091612265916009919061359d565b50604080516000815260208101918290525161228391600a9161359d565b5060408051600081526020810191829052516122a191600b9161359d565b5060005b80845111156127a55760008482815181106122e9577f4e487b7100000000000000000000000000000000000000000000000000000000600052603260045260246000fd5b602002602001015190506000600460008373ffffffffffffffffffffffffffffffffffffffff1673ffffffffffffffffffffffffffffffffffffffff168152602001908152602001600020905061233f816131b7565b1561274e57600b805460018101825560009182527f0175b7a638427703f0dbe7bb9bbf987a2551717b34e79f33b5b1008d1fa01db90180547fffffffffffffffffffffffff00000000000000000000000000000000000000001673ffffffffffffffffffffffffffffffffffffffff85161790555b600382015481101561252c5760008260030182815481106123fe577f4e487b7100000000000000000000000000000000000000000000000000000000600052603260045260246000fd5b600091825260208083209091015473ffffffffffffffffffffffffffffffffffffffff168083526008909152604090912060028101549192509043146124d45773ffffffffffffffffffffffffffffffffffffffff821660008181526004860160205260408120546001808501919091558184554360028501556009805491820181559091527f6e1540171b6c0c960b71a7020d9f60077f6af931a8bbf590da0223dacf75c7af0180547fffffffffffffffffffffffff0000000000000000000000000000000000000000169091179055612517565b73ffffffffffffffffffffffffffffffffffffffff8216600090815260048501602052604081205460018301805491929091612511908490613e06565b90915550505b5050808061252490613eab565b9150506123b4565b5060005b815481101561274c576000826000018281548110612577577f4e487b7100000000000000000000000000000000000000000000000000000000600052603260045260246000fd5b600091825260208083209091015473ffffffffffffffffffffffffffffffffffffffff16808352600890915260408220909250906125b3613131565b73ffffffffffffffffffffffffffffffffffffffff1663e7bde5c1846040518263ffffffff1660e01b81526004016125eb91906138fe565b60206040518083038186803b15801561260357600080fd5b505afa158015612617573d6000803e3d6000fd5b505050506040513d601f19601f8201168201806040525081019061263b91906138e6565b73ffffffffffffffffffffffffffffffffffffffff8416600090815260028701602090815260408083205460018a019092528220549293509091612680908490613e57565b61268a9190613e1e565b90504383600201541461271b5760006001848101829055828555436002860155600a805491820181559091527fc65a7bb8d6351c1cf70c95a316cc6a92839c986682d98bc35f958f4883f9d2a80180547fffffffffffffffffffffffff00000000000000000000000000000000000000001673ffffffffffffffffffffffffffffffffffffffff8616179055612735565b8083600001600082825461272f9190613e06565b90915550505b50505050808061274490613eab565b915050612530565b505b73ffffffffffffffffffffffffffffffffffffffff82166000908152600c60205260409020851561278f5761278281612d87565b61278c9086613e06565b94505b505050808061279d90613eab565b9150506122a5565b5092915050565b6000805b600954811015612905576000600982815481106127f6577f4e487b7100000000000000000000000000000000000000000000000000000000600052603260045260246000fd5b600091825260208083209091015473ffffffffffffffffffffffffffffffffffffffff168083526008909152604090912080546001820154929350909111156128f0578054600182015460009161284c91613e94565b9050612856612adc565b73ffffffffffffffffffffffffffffffffffffffff166305883f7c84836040518363ffffffff1660e01b8152600401612890929190613950565b602060405180830381600087803b1580156128aa57600080fd5b505af11580156128be573d6000803e3d6000fd5b505050506040513d601f19601f820116820180604052508101906128e291906138e6565b6128ec9086613e06565b9450505b505080806128fd90613eab565b9150506127b0565b5090565b6000805b600a54811015612905576000600a8281548110612953577f4e487b7100000000000000000000000000000000000000000000000000000000600052603260045260246000fd5b600091825260208083209091015473ffffffffffffffffffffffffffffffffffffffff16808352600890915260409091206001810154815492935090911115612a4a5761299e612adc565b73ffffffffffffffffffffffffffffffffffffffff166305883f7c83836001015484600001546129ce9190613e94565b6040518363ffffffff1660e01b81526004016129eb929190613950565b602060405180830381600087803b158015612a0557600080fd5b505af1158015612a19573d6000803e3d6000fd5b505050506040513d601f19601f82011682018060405250810190612a3d91906138e6565b612a479085613e06565b93505b50508080612a5790613eab565b91505061290d565b6000611c948260030183600401613211565b6000611c9482600181016002820161335f565b600080546040517f3c9c8f9c00000000000000000000000000000000000000000000000000000000815273ffffffffffffffffffffffffffffffffffffffff90911690633c9c8f9c906121ee90606590600401613d8a565b600080546040517f3c9c8f9c00000000000000000000000000000000000000000000000000000000815273ffffffffffffffffffffffffffffffffffffffff90911690633c9c8f9c906121ee90606a90600401613d8a565b60005b8154811015612bcf576000826000018281548110612b7e577f4e487b7100000000000000000000000000000000000000000000000000000000600052603260045260246000fd5b600091825260208083209091015473ffffffffffffffffffffffffffffffffffffffff1682526001850181526040808320839055600286019091528120555080612bc781613eab565b915050612b37565b5060005b6003820154811015612c93576000826003018281548110612c1d577f4e487b7100000000000000000000000000000000000000000000000000000000600052603260045260246000fd5b600091825260208083209091015473ffffffffffffffffffffffffffffffffffffffff168252600485018152604080832083905560058601909152902080547fffffffffffffffffffffffffffffffffffffffffffffffffffffffffffffff001690555080612c8b81613eab565b915050612bd3565b50612c9f816000613623565b612cad600382016000613623565b50565b612cba8383613407565b612d1457600383018054600181018255600091825260209091200180547fffffffffffffffffffffffff00000000000000000000000000000000000000001673ffffffffffffffffffffffffffffffffffffffff84161790555b73ffffffffffffffffffffffffffffffffffffffff8216600090815260048401602052604081208054839290612d4b908490613e06565b9091555050505050565b73ffffffffffffffffffffffffffffffffffffffff821660009081526004840160205260409020548111159392505050565b600281015460009015611c97578154600090612dba90612da8436001613e06565b612db29190613e94565b600e54611cf5565b90506000600e54846002015483612dd19190613e57565b612ddb9190613e1e565b9050612de5612a84565b73ffffffffffffffffffffffffffffffffffffffff1663d9caed12612e08612adc565b73ffffffffffffffffffffffffffffffffffffffff16631f1cb62b6040518163ffffffff1660e01b815260040160206040518083038186803b158015612e4d57600080fd5b505afa158015612e61573d6000803e3d6000fd5b505050506040513d601f19601f82011682018060405250810190612e859190613742565b60038701546040517fffffffff0000000000000000000000000000000000000000000000000000000060e085901b168152612edc929173ffffffffffffffffffffffffffffffffffffffff1690869060040161391f565b602060405180830381600087803b158015612ef657600080fd5b505af1158015612f0a573d6000803e3d6000fd5b505050506040513d601f19601f82011682018060405250810190612f2e91906138ae565b506000612f39612196565b90506000600d54838373ffffffffffffffffffffffffffffffffffffffff16630ad691506040518163ffffffff1660e01b815260040160206040518083038186803b158015612f8757600080fd5b505afa158015612f9b573d6000803e3d6000fd5b505050506040513d601f19601f82011682018060405250810190612fbf91906138e6565b612fc99190613e57565b612fd39190613e1e565b600187015460038801546040517f0a45bc1b00000000000000000000000000000000000000000000000000000000815292935073ffffffffffffffffffffffffffffffffffffffff80861693630a45bc1b9361303a93908316928792911690600401613976565b602060405180830381600087803b15801561305457600080fd5b505af1158015613068573d6000803e3d6000fd5b505050506040513d601f19601f8201168201806040525081019061308c91906138e6565b506000600287018190556003870180547fffffffffffffffffffffffff000000000000000000000000000000000000000090811690915581885560018801805490911690556130dc908490613e94565b9695505050505050565b6000806130f283612a71565b905060006130ff84612a5f565b90506002548261310f9190613e57565b60025461311d906001613e06565b6131279083613e57565b1015949350505050565b600080546040517f3c9c8f9c00000000000000000000000000000000000000000000000000000000815273ffffffffffffffffffffffffffffffffffffffff90911690633c9c8f9c906121ee90606690600401613d8a565b73ffffffffffffffffffffffffffffffffffffffff1660009081526002919091016020526040902054151590565b6000806131c383612a71565b905060006131d084612a5f565b90508160035460025460646131e59190613e57565b6131ef9190613e06565b6131f99190613e57565b6002546132069083613e57565b613127906064613e57565b6000805b83548110156127a5576000848281548110613259577f4e487b7100000000000000000000000000000000000000000000000000000000600052603260045260246000fd5b60009182526020909120015473ffffffffffffffffffffffffffffffffffffffff169050613285612adc565b73ffffffffffffffffffffffffffffffffffffffff828116600090815260208790526040908190205490517fe47109a9000000000000000000000000000000000000000000000000000000008152929091169163e47109a9916132ed91859190600401613950565b602060405180830381600087803b15801561330757600080fd5b505af115801561331b573d6000803e3d6000fd5b505050506040513d601f19601f8201168201806040525081019061333f91906138e6565b6133499084613e06565b925050808061335790613eab565b915050613215565b6000805b845481101561139b5760008582815481106133a7577f4e487b7100000000000000000000000000000000000000000000000000000000600052603260045260246000fd5b600091825260208083209091015473ffffffffffffffffffffffffffffffffffffffff16808352908790526040909120549091506133e790829086613436565b6133f19084613e06565b92505080806133ff90613eab565b915050613363565b73ffffffffffffffffffffffffffffffffffffffff166000908152600591909101602052604090205460ff1690565b600080613441613131565b73ffffffffffffffffffffffffffffffffffffffff1663e7bde5c1866040518263ffffffff1660e01b815260040161347991906138fe565b60206040518083038186803b15801561349157600080fd5b505afa1580156134a5573d6000803e3d6000fd5b505050506040513d601f19601f820116820180604052508101906134c991906138e6565b73ffffffffffffffffffffffffffffffffffffffff8616600090815260208590526040812054919250906134fd8387613e57565b6135079190613e1e565b9050613511612adc565b73ffffffffffffffffffffffffffffffffffffffff1663e47109a987836040518363ffffffff1660e01b815260040161354b929190613950565b602060405180830381600087803b15801561356557600080fd5b505af1158015613579573d6000803e3d6000fd5b505050506040513d601f19601f820116820180604052508101906130dc91906138e6565b828054828255906000526020600020908101928215613617579160200282015b8281111561361757825182547fffffffffffffffffffffffff00000000000000000000000000000000000000001673ffffffffffffffffffffffffffffffffffffffff9091161782556020909201916001909101906135bd565b5061290592915061363d565b5080546000825590600052602060002090810190612cad91905b5b80821115612905576000815560010161363e565b8035611c9781613f42565b600082601f83011261366d578081fd5b8135602067ffffffffffffffff8083111561368a5761368a613f13565b8183026040517fffffffffffffffffffffffffffffffffffffffffffffffffffffffffffffffe0603f830116810181811084821117156136cc576136cc613f13565b604052848152838101925086840182880185018910156136ea578687fd5b8692505b85831015613713576136ff81613652565b8452928401926001929092019184016136ee565b50979650505050505050565b600060208284031215613730578081fd5b813561373b81613f42565b9392505050565b600060208284031215613753578081fd5b815161373b81613f42565b600080600080600060a08688031215613775578081fd5b853561378081613f42565b9450602086013561379081613f42565b935060408601356137a081613f42565b94979396509394606081013594506080013592915050565b6000806000606084860312156137cc578283fd5b83356137d781613f42565b925060208401356137e781613f42565b929592945050506040919091013590565b6000806040838503121561380a578182fd5b823561381581613f42565b946020939093013593505050565b600060208284031215613834578081fd5b813567ffffffffffffffff81111561384a578182fd5b6138568482850161365d565b949350505050565b60008060408385031215613870578182fd5b823567ffffffffffffffff811115613886578283fd5b6138928582860161365d565b92505060208301356138a381613f42565b809150509250929050565b6000602082840312156138bf578081fd5b8151801515811461373b578182fd5b6000602082840312156138df578081fd5b5035919050565b6000602082840312156138f7578081fd5b5051919050565b73ffffffffffffffffffffffffffffffffffffffff91909116815260200190565b73ffffffffffffffffffffffffffffffffffffffff9384168152919092166020820152604081019190915260600190565b73ffffffffffffffffffffffffffffffffffffffff929092168252602082015260400190565b73ffffffffffffffffffffffffffffffffffffffff93841681526020810192909252909116604082015260600190565b604080825283519082018190526000906020906060840190828701845b828110156139f557815173ffffffffffffffffffffffffffffffffffffffff16845292840192908401906001016139c3565b50505083810382850152845180825285830191830190845b81811015613a2957835183529284019291840191600101613a0d565b5090979650505050505050565b60208082526026908201527f43616c6c6572206e6f7420617574686f72697a656420746f2073657420746f6b60408201527f656e206361700000000000000000000000000000000000000000000000000000606082015260800190565b60208082526039908201527f43616c6c696e6720636f6e7472616374206973206e6f7420616e20617574686f60408201527f72697a6564206d617267696e20747261646572206167656e7400000000000000606082015260800190565b60208082526018908201527f43616e277420626f72726f772066756c6c20616d6f756e740000000000000000604082015260600190565b60208082526026908201527f4f776e61626c653a206e6577206f776e657220697320746865207a65726f206160408201527f6464726573730000000000000000000000000000000000000000000000000000606082015260800190565b60208082526033908201527f43616c6c696e6720636f6e7472616374206973206e6f7420616e20617574686f60408201527f72697a6564206d617267696e2074726164657200000000000000000000000000606082015260800190565b60208082526026908201527f4163636f756e742062616c616e636520697320746f6f206c6f7720746f20776960408201527f7468647261770000000000000000000000000000000000000000000000000000606082015260800190565b6020808252818101527f4f776e61626c653a2063616c6c6572206973206e6f7420746865206f776e6572604082015260600190565b60208082526039908201527f457863656564696e6720676c6f62616c206578706f737572652063617020746f60408201527f20746f6b656e202d2d2074727920616761696e206c6174657200000000000000606082015260800190565b60208082526022908201527f43616e277420626f72726f773a20696e73756666696369656e742062616c616e60408201527f6365000000000000000000000000000000000000000000000000000000000000606082015260800190565b6020808252602a908201527f43616c6c696e6720636f6e7472616374206e6f7420617574686f72697a65642060408201527f746f206465706f73697400000000000000000000000000000000000000000000606082015260800190565b61ffff91909116815260200190565b61ffff92909216825273ffffffffffffffffffffffffffffffffffffffff16602082015260400190565b90815260200190565b92835273ffffffffffffffffffffffffffffffffffffffff919091166020830152604082015260600190565b918252602082015260400190565b60008219821115613e1957613e19613ee4565b500190565b600082613e52577f4e487b710000000000000000000000000000000000000000000000000000000081526012600452602481fd5b500490565b6000817fffffffffffffffffffffffffffffffffffffffffffffffffffffffffffffffff0483118215151615613e8f57613e8f613ee4565b500290565b600082821015613ea657613ea6613ee4565b500390565b60007fffffffffffffffffffffffffffffffffffffffffffffffffffffffffffffffff821415613edd57613edd613ee4565b5060010190565b7f4e487b7100000000000000000000000000000000000000000000000000000000600052601160045260246000fd5b7f4e487b7100000000000000000000000000000000000000000000000000000000600052604160045260246000fd5b73ffffffffffffffffffffffffffffffffffffffff81168114612cad57600080fdfea2646970667358221220c2f20293d31ba7b07fd660ba7a749ef34c5397dad6d5a693f29004f9730d39c164736f6c63430008010033",
  "linkReferences": {},
  "deployedLinkReferences": {}
}