{
  "_format": "hh-sol-artifact-1",
  "contractName": "CrossMarginTrading",
  "sourceName": "contracts/CrossMarginTrading.sol",
  "abi": [
    {
      "inputs": [
        {
          "internalType": "address",
          "name": "_roles",
          "type": "address"
        }
      ],
      "stateMutability": "nonpayable",
      "type": "constructor"
    },
    {
      "anonymous": false,
      "inputs": [
        {
          "indexed": false,
          "internalType": "uint256",
          "name": "amount",
          "type": "uint256"
        }
      ],
      "name": "LiquidationShortfall",
      "type": "event"
    },
    {
      "anonymous": false,
      "inputs": [
        {
          "indexed": true,
          "internalType": "address",
          "name": "previousOwner",
          "type": "address"
        },
        {
          "indexed": true,
          "internalType": "address",
          "name": "newOwner",
          "type": "address"
        }
      ],
      "name": "OwnershipTransferred",
      "type": "event"
    },
    {
      "inputs": [
        {
          "internalType": "address[]",
          "name": "liquidationCandidates",
          "type": "address[]"
        },
        {
          "internalType": "address",
          "name": "currentCaller",
          "type": "address"
        },
        {
          "internalType": "bool",
          "name": "isAuthorized",
          "type": "bool"
        }
      ],
      "name": "callMargin",
      "outputs": [
        {
          "internalType": "uint256",
          "name": "marginCallerCut",
          "type": "uint256"
        }
      ],
      "stateMutability": "nonpayable",
      "type": "function"
    },
    {
      "inputs": [
        {
          "internalType": "address",
          "name": "trader",
          "type": "address"
        }
      ],
      "name": "getBorrowAmounts",
      "outputs": [
        {
          "internalType": "address[]",
          "name": "borrowTokens",
          "type": "address[]"
        },
        {
          "internalType": "uint256[]",
          "name": "borrowAmounts",
          "type": "uint256[]"
        }
      ],
      "stateMutability": "view",
      "type": "function"
    },
    {
      "inputs": [
        {
          "internalType": "address",
          "name": "trader",
          "type": "address"
        }
      ],
      "name": "getHoldingAmounts",
      "outputs": [
        {
          "internalType": "address[]",
          "name": "holdingTokens",
          "type": "address[]"
        },
        {
          "internalType": "uint256[]",
          "name": "holdingAmounts",
          "type": "uint256[]"
        }
      ],
      "stateMutability": "view",
      "type": "function"
    },
    {
      "inputs": [
        {
          "internalType": "address",
          "name": "trader",
          "type": "address"
        },
        {
          "internalType": "address",
          "name": "token",
          "type": "address"
        },
        {
          "internalType": "uint256",
          "name": "amount",
          "type": "uint256"
        }
      ],
      "name": "getTradeBorrowAmount",
      "outputs": [
        {
          "internalType": "uint256",
          "name": "borrowAmount",
          "type": "uint256"
        }
      ],
      "stateMutability": "view",
      "type": "function"
    },
    {
      "inputs": [],
      "name": "leverage",
      "outputs": [
        {
          "internalType": "uint256",
          "name": "",
          "type": "uint256"
        }
      ],
      "stateMutability": "view",
      "type": "function"
    },
    {
      "inputs": [],
      "name": "liquidationThresholdPercent",
      "outputs": [
        {
          "internalType": "uint256",
          "name": "",
          "type": "uint256"
        }
      ],
      "stateMutability": "view",
      "type": "function"
    },
    {
      "inputs": [],
      "name": "owner",
      "outputs": [
        {
          "internalType": "address",
          "name": "",
          "type": "address"
        }
      ],
      "stateMutability": "view",
      "type": "function"
    },
    {
      "inputs": [
        {
          "internalType": "address",
          "name": "trader",
          "type": "address"
        },
        {
          "internalType": "address",
          "name": "borrowToken",
          "type": "address"
        },
        {
          "internalType": "uint256",
          "name": "borrowAmount",
          "type": "uint256"
        }
      ],
      "name": "registerBorrow",
      "outputs": [],
      "stateMutability": "nonpayable",
      "type": "function"
    },
    {
      "inputs": [
        {
          "internalType": "address",
          "name": "trader",
          "type": "address"
        },
        {
          "internalType": "address",
          "name": "token",
          "type": "address"
        },
        {
          "internalType": "uint256",
          "name": "depositAmount",
          "type": "uint256"
        }
      ],
      "name": "registerDeposit",
      "outputs": [
        {
          "internalType": "uint256",
          "name": "extinguishableDebt",
          "type": "uint256"
        }
      ],
      "stateMutability": "nonpayable",
      "type": "function"
    },
    {
      "inputs": [
        {
          "internalType": "address",
          "name": "trader",
          "type": "address"
        },
        {
          "internalType": "address",
          "name": "debtToken",
          "type": "address"
        },
        {
          "internalType": "uint256",
          "name": "extinguishAmount",
          "type": "uint256"
        }
      ],
      "name": "registerPayOff",
      "outputs": [],
      "stateMutability": "nonpayable",
      "type": "function"
    },
    {
      "inputs": [
        {
          "internalType": "address",
          "name": "trader",
          "type": "address"
        },
        {
          "internalType": "address",
          "name": "tokenFrom",
          "type": "address"
        },
        {
          "internalType": "address",
          "name": "tokenTo",
          "type": "address"
        },
        {
          "internalType": "uint256",
          "name": "inAmount",
          "type": "uint256"
        },
        {
          "internalType": "uint256",
          "name": "outAmount",
          "type": "uint256"
        }
      ],
      "name": "registerTradeAndBorrow",
      "outputs": [
        {
          "internalType": "uint256",
          "name": "borrowAmount",
          "type": "uint256"
        }
      ],
      "stateMutability": "nonpayable",
      "type": "function"
    },
    {
      "inputs": [
        {
          "internalType": "address",
          "name": "trader",
          "type": "address"
        },
        {
          "internalType": "address",
          "name": "withdrawToken",
          "type": "address"
        },
        {
          "internalType": "uint256",
          "name": "withdrawAmount",
          "type": "uint256"
        }
      ],
      "name": "registerWithdrawal",
      "outputs": [],
      "stateMutability": "nonpayable",
      "type": "function"
    },
    {
      "inputs": [],
      "name": "renounceOwnership",
      "outputs": [],
      "stateMutability": "nonpayable",
      "type": "function"
    },
    {
      "inputs": [],
      "name": "roles",
      "outputs": [
        {
          "internalType": "contract Roles",
          "name": "",
          "type": "address"
        }
      ],
      "stateMutability": "view",
      "type": "function"
    },
    {
      "inputs": [
        {
          "internalType": "uint256",
          "name": "_leverage",
          "type": "uint256"
        }
      ],
      "name": "setLeverage",
      "outputs": [],
      "stateMutability": "nonpayable",
      "type": "function"
    },
    {
      "inputs": [
        {
          "internalType": "uint256",
          "name": "threshold",
          "type": "uint256"
        }
      ],
      "name": "setLiquidationThresholdPercent",
      "outputs": [],
      "stateMutability": "nonpayable",
      "type": "function"
    },
    {
      "inputs": [
        {
          "internalType": "address",
          "name": "newOwner",
          "type": "address"
        }
      ],
      "name": "transferOwnership",
      "outputs": [],
      "stateMutability": "nonpayable",
      "type": "function"
    }
  ],
  "bytecode": "0x60806040526050600a553480156200001657600080fd5b506040516200347d3803806200347d8339810160408190526200003991620000bc565b600080546001600160a01b0319166001600160a01b0383161781556200005e620000b8565b600180546001600160a01b0319166001600160a01b038316908117909155604051919250906000907f8be0079c531659141344cd1fd0a4f28419497f9722a3daafe3b4186f6b6457e0908290a350506014600355620000ec565b3390565b600060208284031215620000ce578081fd5b81516001600160a01b0381168114620000e5578182fd5b9392505050565b61338180620000fc6000396000f3fe608060405234801561001057600080fd5b506004361061011b5760003560e01c80636612ce35116100b257806395f23a6211610081578063d0eb665311610066578063d0eb665314610226578063d510c53514610239578063f2fde38b1461024c5761011b565b806395f23a6214610200578063b25777ad146102135761011b565b80636612ce35146101ca578063715018a6146101dd57806379575b23146101e55780638da5cb5b146101f85761011b565b8063392f5f64116100ee578063392f5f641461016e578063409fdb7214610183578063498d55eb146101a457806352a664d9146101b75761011b565b806316317e7e146101205780632c86d98e14610135578063320d2fa0146101535780633500aa0b1461015b575b600080fd5b61013361012e366004612cf8565b61025f565b005b61013d6102e0565b60405161014a919061317b565b60405180910390f35b61013d6102e6565b61013d610169366004612b3c565b6102ec565b6101766103c4565b60405161014a9190612d28565b610196610191366004612afd565b6103e0565b60405161014a929190612dda565b6101336101b2366004612b96565b6105d6565b61013d6101c5366004612b96565b61064b565b61013d6101d8366004612b96565b610727565b6101336107eb565b6101336101f3366004612cf8565b6108cd565b610176610945565b61013d61020e366004612bd6565b610961565b610133610221366004612b96565b610d24565b610133610234366004612b96565b610d98565b610196610247366004612afd565b610e7f565b61013361025a366004612afd565b6110f7565b610267611245565b73ffffffffffffffffffffffffffffffffffffffff16610285610945565b73ffffffffffffffffffffffffffffffffffffffff16146102db576040517f08c379a00000000000000000000000000000000000000000000000000000000081526004016102d29061302f565b60405180910390fd5b600355565b60025481565b60035481565b60006102f733611249565b61032d576040517f08c379a00000000000000000000000000000000000000000000000000000000081526004016102d290612e84565b73ffffffffffffffffffffffffffffffffffffffff8087166000908152600460208181526040808420948a168452918401905290205484908111156103ac575073ffffffffffffffffffffffffffffffffffffffff8616600090815260048201602052604090205461039f818661323e565b92506103ac8288856112fb565b6103b98288888488611599565b505095945050505050565b60005473ffffffffffffffffffffffffffffffffffffffff1681565b73ffffffffffffffffffffffffffffffffffffffff811660009081526004602090815260409182902060038101805484518185028101850190955280855260609485949092919083018282801561046d57602002820191906000526020600020905b815473ffffffffffffffffffffffffffffffffffffffff168152600190910190602001808311610442575b5050506003840154929550505067ffffffffffffffff8111156104b9577f4e487b7100000000000000000000000000000000000000000000000000000000600052604160045260246000fd5b6040519080825280602002602001820160405280156104e2578160200160208202803683370190505b50915060005b80845111156105cf57600084828151811061052c577f4e487b7100000000000000000000000000000000000000000000000000000000600052603260045260246000fd5b602002602001015190508260040160008273ffffffffffffffffffffffffffffffffffffffff1673ffffffffffffffffffffffffffffffffffffffff168152602001908152602001600020548483815181106105b1577f4e487b7100000000000000000000000000000000000000000000000000000000600052603260045260246000fd5b602090810291909101015250806105c781613255565b9150506104e8565b5050915091565b6105df33611249565b610615576040517f08c379a00000000000000000000000000000000000000000000000000000000081526004016102d29061311e565b73ffffffffffffffffffffffffffffffffffffffff831660009081526004602052604090206106458184846112fb565b50505050565b600061065633611249565b61068c576040517f08c379a00000000000000000000000000000000000000000000000000000000081526004016102d29061311e565b73ffffffffffffffffffffffffffffffffffffffff841660009081526004602052604090206106bc818585611606565b73ffffffffffffffffffffffffffffffffffffffff841660009081526001820160205260409020541561071f5773ffffffffffffffffffffffffffffffffffffffff8416600090815260018201602052604090205461071c9084906116ab565b91505b509392505050565b600061073233611249565b610768576040517f08c379a00000000000000000000000000000000000000000000000000000000081526004016102d290612f75565b73ffffffffffffffffffffffffffffffffffffffff8085166000908152600460208181526040808420948816845291840190529020546107a8908461323e565b91506107b58185846116c5565b61071f576040517f08c379a00000000000000000000000000000000000000000000000000000000081526004016102d290612ee1565b6107f3611245565b73ffffffffffffffffffffffffffffffffffffffff16610811610945565b73ffffffffffffffffffffffffffffffffffffffff161461085e576040517f08c379a00000000000000000000000000000000000000000000000000000000081526004016102d29061302f565b60015460405160009173ffffffffffffffffffffffffffffffffffffffff16907f8be0079c531659141344cd1fd0a4f28419497f9722a3daafe3b4186f6b6457e0908390a3600180547fffffffffffffffffffffffff0000000000000000000000000000000000000000169055565b6108d5611245565b73ffffffffffffffffffffffffffffffffffffffff166108f3610945565b73ffffffffffffffffffffffffffffffffffffffff1614610940576040517f08c379a00000000000000000000000000000000000000000000000000000000081526004016102d29061302f565b600255565b60015473ffffffffffffffffffffffffffffffffffffffff1690565b600061096c336116f7565b6109a2576040517f08c379a00000000000000000000000000000000000000000000000000000000081526004016102d290613064565b60006109ae8584611751565b90506109ba81836131b0565b915060006109c6611ea2565b905060006109d2611fff565b905081811115610a1d577f3555ffae7677eb42103f0b9e11b61c758f452fae446684dec7a363dd38ab58fc610a07838361323e565b604051610a14919061317b565b60405180910390a15b60005b600854811015610d1957600060088281548110610a66577f4e487b7100000000000000000000000000000000000000000000000000000000600052603260045260246000fd5b600091825260208083209091015473ffffffffffffffffffffffffffffffffffffffff1680835260049091526040822090925090610aa382612155565b90506000610ab083612167565b9050600060028054606460035485610ac89190613201565b610ad291906131c8565b610adc91906131c8565b610ae691906131c8565b90508a15610aff57610af8818b6131b0565b9950610b62565b73ffffffffffffffffffffffffffffffffffffffff8581166000908152600960205260409020600181018390556002810180547fffffffffffffffffffffffff000000000000000000000000000000000000000016928f16929092179091554390555b610b6c82826131b0565b8310610ca657610b7a61217a565b73ffffffffffffffffffffffffffffffffffffffff1663d9caed12610b9d612226565b73ffffffffffffffffffffffffffffffffffffffff16631f1cb62b6040518163ffffffff1660e01b815260040160206040518083038186803b158015610be257600080fd5b505afa158015610bf6573d6000803e3d6000fd5b505050506040513d601f19601f82011682018060405250810190610c1a9190612b20565b8784610c26878961323e565b610c30919061323e565b6040518463ffffffff1660e01b8152600401610c4e93929190612d49565b602060405180830381600087803b158015610c6857600080fd5b505af1158015610c7c573d6000803e3d6000fd5b505050506040513d601f19601f82011682018060405250810190610ca09190612cdc565b50610cf8565b600083610cb383856131b0565b610cbd919061323e565b90507f3555ffae7677eb42103f0b9e11b61c758f452fae446684dec7a363dd38ab58fc81604051610cee919061317b565b60405180910390a1505b610d018461227e565b50505050508080610d1190613255565b915050610a20565b505050509392505050565b610d2d33611249565b610d63576040517f08c379a00000000000000000000000000000000000000000000000000000000081526004016102d29061311e565b73ffffffffffffffffffffffffffffffffffffffff83166000908152600460205260409020610d939083836123fa565b505050565b610da133611249565b610dd7576040517f08c379a00000000000000000000000000000000000000000000000000000000081526004016102d29061311e565b73ffffffffffffffffffffffffffffffffffffffff808416600090815260046020818152604080842094871684529184019052902054610e1890839061323e565b73ffffffffffffffffffffffffffffffffffffffff84166000908152600483016020526040902055610e4981612571565b610645576040517f08c379a00000000000000000000000000000000000000000000000000000000081526004016102d290612fd2565b73ffffffffffffffffffffffffffffffffffffffff81166000908152600460209081526040918290208054835181840281018401909452808452606093849390918391830182828015610f0857602002820191906000526020600020905b815473ffffffffffffffffffffffffffffffffffffffff168152600190910190602001808311610edd575b50508454939650505067ffffffffffffffff8211159050610f52577f4e487b7100000000000000000000000000000000000000000000000000000000600052604160045260246000fd5b604051908082528060200260200182016040528015610f7b578160200160208202803683370190505b50915060005b80845111156105cf576000848281518110610fc5577f4e487b7100000000000000000000000000000000000000000000000000000000600052603260045260246000fd5b60200260200101519050610fd76125bc565b73ffffffffffffffffffffffffffffffffffffffff828116600090815260018601602090815260408083205460028901909252918290205491517f687680ed000000000000000000000000000000000000000000000000000000008152939092169263687680ed92611050929091869190600401613184565b60206040518083038186803b15801561106857600080fd5b505afa15801561107c573d6000803e3d6000fd5b505050506040513d601f19601f820116820180604052508101906110a09190612d10565b8483815181106110d9577f4e487b7100000000000000000000000000000000000000000000000000000000600052603260045260246000fd5b602090810291909101015250806110ef81613255565b915050610f81565b6110ff611245565b73ffffffffffffffffffffffffffffffffffffffff1661111d610945565b73ffffffffffffffffffffffffffffffffffffffff161461116a576040517f08c379a00000000000000000000000000000000000000000000000000000000081526004016102d29061302f565b73ffffffffffffffffffffffffffffffffffffffff81166111b7576040517f08c379a00000000000000000000000000000000000000000000000000000000081526004016102d290612f18565b60015460405173ffffffffffffffffffffffffffffffffffffffff8084169216907f8be0079c531659141344cd1fd0a4f28419497f9722a3daafe3b4186f6b6457e090600090a3600180547fffffffffffffffffffffffff00000000000000000000000000000000000000001673ffffffffffffffffffffffffffffffffffffffff92909216919091179055565b3390565b600080546040517fa716b97f00000000000000000000000000000000000000000000000000000000815273ffffffffffffffffffffffffffffffffffffffff9091169063a716b97f906112a3908590600390600401612d7a565b60206040518083038186803b1580156112bb57600080fd5b505afa1580156112cf573d6000803e3d6000fd5b505050506040513d601f19601f820116820180604052508101906112f39190612cdc565b90505b919050565b6113058383612614565b6114165782546001810184556000848152602090200180547fffffffffffffffffffffffff00000000000000000000000000000000000000001673ffffffffffffffffffffffffffffffffffffffff84161790556113616125bc565b73ffffffffffffffffffffffffffffffffffffffff1663e7bde5c1836040518263ffffffff1660e01b81526004016113999190612d28565b60206040518083038186803b1580156113b157600080fd5b505afa1580156113c5573d6000803e3d6000fd5b505050506040513d601f19601f820116820180604052508101906113e99190612d10565b73ffffffffffffffffffffffffffffffffffffffff83166000908152600285016020526040902055611512565b61141e6125bc565b73ffffffffffffffffffffffffffffffffffffffff838116600090815260018601602090815260408083205460028901909252918290205491517fe695fa68000000000000000000000000000000000000000000000000000000008152939092169263e695fa6892611497929091879190600401613184565b602060405180830381600087803b1580156114b157600080fd5b505af11580156114c5573d6000803e3d6000fd5b505050506040513d601f19601f820116820180604052508101906114e99190612d10565b73ffffffffffffffffffffffffffffffffffffffff831660009081526001850160205260409020555b73ffffffffffffffffffffffffffffffffffffffff82166000908152600184016020526040812080548392906115499084906131b0565b9091555061155a9050838383611606565b61156383612571565b610d93576040517f08c379a00000000000000000000000000000000000000000000000000000000081526004016102d2906130c1565b73ffffffffffffffffffffffffffffffffffffffff841660009081526004860160205260409020546115cc90839061323e565b73ffffffffffffffffffffffffffffffffffffffff851660009081526004870160205260409020556115ff858483611606565b5050505050565b6116108383612642565b61166a57600383018054600181018255600091825260209091200180547fffffffffffffffffffffffff00000000000000000000000000000000000000001673ffffffffffffffffffffffffffffffffffffffff84161790555b73ffffffffffffffffffffffffffffffffffffffff82166000908152600484016020526040812080548392906116a19084906131b0565b9091555050505050565b6000818311156116bc5750806116bf565b50815b92915050565b73ffffffffffffffffffffffffffffffffffffffff821660009081526004840160205260409020548111159392505050565b600080546040517fa716b97f00000000000000000000000000000000000000000000000000000000815273ffffffffffffffffffffffffffffffffffffffff9091169063a716b97f906112a3908590600190600401612d7a565b6040805160008082526020820192839052905190916117739160069190612a32565b50604080516000815260208101918290525161179191600791612a32565b5060408051600081526020810191829052516117af91600891612a32565b5060005b8084511115611e9b5760008482815181106117f7577f4e487b7100000000000000000000000000000000000000000000000000000000600052603260045260246000fd5b602002602001015190506000600460008373ffffffffffffffffffffffffffffffffffffffff1673ffffffffffffffffffffffffffffffffffffffff168152602001908152602001600020905061184d81612671565b15611c5c576008805460018101825560009182527ff3f7a9fe364faab93b216da50a3214154f22a0a2b415b23a84c8169e8b636ee30180547fffffffffffffffffffffffff00000000000000000000000000000000000000001673ffffffffffffffffffffffffffffffffffffffff85161790555b6003820154811015611a3a57600082600301828154811061190c577f4e487b7100000000000000000000000000000000000000000000000000000000600052603260045260246000fd5b600091825260208083209091015473ffffffffffffffffffffffffffffffffffffffff168083526005909152604090912060028101549192509043146119e25773ffffffffffffffffffffffffffffffffffffffff821660008181526004860160205260408120546001808501919091558184554360028501556006805491820181559091527ff652222313e28459528d920b65115c16c04f3efc82aaedc97be59f3f377c0d3f0180547fffffffffffffffffffffffff0000000000000000000000000000000000000000169091179055611a25565b73ffffffffffffffffffffffffffffffffffffffff8216600090815260048501602052604081205460018301805491929091611a1f9084906131b0565b90915550505b50508080611a3290613255565b9150506118c2565b5060005b8154811015611c5a576000826000018281548110611a85577f4e487b7100000000000000000000000000000000000000000000000000000000600052603260045260246000fd5b600091825260208083209091015473ffffffffffffffffffffffffffffffffffffffff1680835260059091526040822090925090611ac16125bc565b73ffffffffffffffffffffffffffffffffffffffff1663e7bde5c1846040518263ffffffff1660e01b8152600401611af99190612d28565b60206040518083038186803b158015611b1157600080fd5b505afa158015611b25573d6000803e3d6000fd5b505050506040513d601f19601f82011682018060405250810190611b499190612d10565b73ffffffffffffffffffffffffffffffffffffffff8416600090815260028701602090815260408083205460018a019092528220549293509091611b8e908490613201565b611b9891906131c8565b905043836002015414611c2957600060018481018290558285554360028601556007805491820181559091527fa66cc928b5edb82af9bd49922954155ab7b0942694bea4ce44661d9a8736c6880180547fffffffffffffffffffffffff00000000000000000000000000000000000000001673ffffffffffffffffffffffffffffffffffffffff8616179055611c43565b80836000016000828254611c3d91906131b0565b90915550505b505050508080611c5290613255565b915050611a3e565b505b73ffffffffffffffffffffffffffffffffffffffff82166000908152600960205260409020600181015415801590611c915750855b15611e85578054600090611cbc90611caa4360016131b0565b611cb4919061323e565b600a546116ab565b90506000600a54836001015483611cd39190613201565b611cdd91906131c8565b9050611ce761217a565b73ffffffffffffffffffffffffffffffffffffffff1663d9caed12611d0a612226565b73ffffffffffffffffffffffffffffffffffffffff16631f1cb62b6040518163ffffffff1660e01b815260040160206040518083038186803b158015611d4f57600080fd5b505afa158015611d63573d6000803e3d6000fd5b505050506040513d601f19601f82011682018060405250810190611d879190612b20565b60028601546040517fffffffff0000000000000000000000000000000000000000000000000000000060e085901b168152611dde929173ffffffffffffffffffffffffffffffffffffffff16908690600401612d49565b602060405180830381600087803b158015611df857600080fd5b505af1158015611e0c573d6000803e3d6000fd5b505050506040513d601f19601f82011682018060405250810190611e309190612cdc565b50808360010154611e41919061323e565b611e4b90886131b0565b6000600185018190556002850180547fffffffffffffffffffffffff00000000000000000000000000000000000000001690558455965050505b5050508080611e9390613255565b9150506117b3565b5092915050565b6000805b600654811015611ffb57600060068281548110611eec577f4e487b7100000000000000000000000000000000000000000000000000000000600052603260045260246000fd5b600091825260208083209091015473ffffffffffffffffffffffffffffffffffffffff16808352600590915260409091208054600182015492935090911115611fe65780546001820154600091611f429161323e565b9050611f4c612226565b73ffffffffffffffffffffffffffffffffffffffff166305883f7c84836040518363ffffffff1660e01b8152600401611f86929190612db4565b602060405180830381600087803b158015611fa057600080fd5b505af1158015611fb4573d6000803e3d6000fd5b505050506040513d601f19601f82011682018060405250810190611fd89190612d10565b611fe290866131b0565b9450505b50508080611ff390613255565b915050611ea6565b5090565b6000805b600754811015611ffb57600060078281548110612049577f4e487b7100000000000000000000000000000000000000000000000000000000600052603260045260246000fd5b600091825260208083209091015473ffffffffffffffffffffffffffffffffffffffff1680835260059091526040909120600181015481549293509091111561214057612094612226565b73ffffffffffffffffffffffffffffffffffffffff166305883f7c83836001015484600001546120c4919061323e565b6040518363ffffffff1660e01b81526004016120e1929190612db4565b602060405180830381600087803b1580156120fb57600080fd5b505af115801561210f573d6000803e3d6000fd5b505050506040513d601f19601f820116820180604052508101906121339190612d10565b61213d90856131b0565b93505b5050808061214d90613255565b915050612003565b60006112f382600301836004016126cb565b60006112f3826001810160028201612819565b600080546040517f36214c7800000000000000000000000000000000000000000000000000000000815273ffffffffffffffffffffffffffffffffffffffff909116906336214c78906121d1908490600401612e6a565b60206040518083038186803b1580156121e957600080fd5b505afa1580156121fd573d6000803e3d6000fd5b505050506040513d601f19601f820116820180604052508101906122219190612b20565b905090565b600080546040517f36214c7800000000000000000000000000000000000000000000000000000000815273ffffffffffffffffffffffffffffffffffffffff909116906336214c78906121d190600590600401612e6a565b60005b81548110156123195760008260000182815481106122c8577f4e487b7100000000000000000000000000000000000000000000000000000000600052603260045260246000fd5b600091825260208083209091015473ffffffffffffffffffffffffffffffffffffffff168252600185018152604080832083905560028601909152812055508061231181613255565b915050612281565b5060005b60038201548110156123dd576000826003018281548110612367577f4e487b7100000000000000000000000000000000000000000000000000000000600052603260045260246000fd5b600091825260208083209091015473ffffffffffffffffffffffffffffffffffffffff168252600485018152604080832083905560058601909152902080547fffffffffffffffffffffffffffffffffffffffffffffffffffffffffffffff0016905550806123d581613255565b91505061231d565b506123e9816000612ab8565b6123f7600382016000612ab8565b50565b6124026125bc565b73ffffffffffffffffffffffffffffffffffffffff838116600090815260018601602090815260408083205460028901909252918290205491517fe695fa68000000000000000000000000000000000000000000000000000000008152939092169263e695fa689261247b929091879190600401613184565b602060405180830381600087803b15801561249557600080fd5b505af11580156124a9573d6000803e3d6000fd5b505050506040513d601f19601f820116820180604052508101906124cd9190612d10565b73ffffffffffffffffffffffffffffffffffffffff83166000908152600185016020526040902081905561250290829061323e565b73ffffffffffffffffffffffffffffffffffffffff83166000908152600185016020908152604080832093909355600486019052205461254390829061323e565b73ffffffffffffffffffffffffffffffffffffffff9092166000908152600490930160205250604090912055565b60008061257d83612167565b9050600061258a84612155565b90506002548261259a9190613201565b6002546125a89060016131b0565b6125b29083613201565b1015949350505050565b600080546040517f36214c7800000000000000000000000000000000000000000000000000000000815273ffffffffffffffffffffffffffffffffffffffff909116906336214c78906121d190600190600401612e6a565b73ffffffffffffffffffffffffffffffffffffffff1660009081526002919091016020526040902054151590565b73ffffffffffffffffffffffffffffffffffffffff166000908152600591909101602052604090205460ff1690565b60008061267d83612167565b9050600061268a84612155565b905081600354600254606461269f9190613201565b6126a991906131b0565b6126b39190613201565b6002546126c09083613201565b6125b2906064613201565b6000805b8354811015611e9b576000848281548110612713577f4e487b7100000000000000000000000000000000000000000000000000000000600052603260045260246000fd5b60009182526020909120015473ffffffffffffffffffffffffffffffffffffffff16905061273f612226565b73ffffffffffffffffffffffffffffffffffffffff828116600090815260208790526040908190205490517fe47109a9000000000000000000000000000000000000000000000000000000008152929091169163e47109a9916127a791859190600401612db4565b602060405180830381600087803b1580156127c157600080fd5b505af11580156127d5573d6000803e3d6000fd5b505050506040513d601f19601f820116820180604052508101906127f99190612d10565b61280390846131b0565b925050808061281190613255565b9150506126cf565b6000805b845481101561071f576000858281548110612861577f4e487b7100000000000000000000000000000000000000000000000000000000600052603260045260246000fd5b600091825260208083209091015473ffffffffffffffffffffffffffffffffffffffff16808352908790526040909120549091506128a1908290866128c1565b6128ab90846131b0565b92505080806128b990613255565b91505061281d565b6000806128cc6125bc565b73ffffffffffffffffffffffffffffffffffffffff1663e7bde5c1866040518263ffffffff1660e01b81526004016129049190612d28565b60206040518083038186803b15801561291c57600080fd5b505afa158015612930573d6000803e3d6000fd5b505050506040513d601f19601f820116820180604052508101906129549190612d10565b73ffffffffffffffffffffffffffffffffffffffff8616600090815260208590526040812054919250906129888387613201565b61299291906131c8565b905061299c612226565b73ffffffffffffffffffffffffffffffffffffffff1663e47109a987836040518363ffffffff1660e01b81526004016129d6929190612db4565b602060405180830381600087803b1580156129f057600080fd5b505af1158015612a04573d6000803e3d6000fd5b505050506040513d601f19601f82011682018060405250810190612a289190612d10565b9695505050505050565b828054828255906000526020600020908101928215612aac579160200282015b82811115612aac57825182547fffffffffffffffffffffffff00000000000000000000000000000000000000001673ffffffffffffffffffffffffffffffffffffffff909116178255602090920191600190910190612a52565b50611ffb929150612ad2565b50805460008255906000526020600020908101906123f791905b5b80821115611ffb5760008155600101612ad3565b80356112f68161331b565b80356112f68161333d565b600060208284031215612b0e578081fd5b8135612b198161331b565b9392505050565b600060208284031215612b31578081fd5b8151612b198161331b565b600080600080600060a08688031215612b53578081fd5b8535612b5e8161331b565b94506020860135612b6e8161331b565b93506040860135612b7e8161331b565b94979396509394606081013594506080013592915050565b600080600060608486031215612baa578283fd5b8335612bb58161331b565b92506020840135612bc58161331b565b929592945050506040919091013590565b600080600060608486031215612bea578283fd5b833567ffffffffffffffff80821115612c01578485fd5b818601915086601f830112612c14578485fd5b8135602082821115612c2857612c286132ec565b8082026040517fffffffffffffffffffffffffffffffffffffffffffffffffffffffffffffffe0603f83011681018181108682111715612c6a57612c6a6132ec565b604052838152828101945085830182870184018c1015612c8857898afd5b8996505b84871015612cb157612c9d81612ae7565b865260019690960195948301948301612c8c565b509750612cc19050888201612ae7565b955050505050612cd360408501612af2565b90509250925092565b600060208284031215612ced578081fd5b8151612b198161333d565b600060208284031215612d09578081fd5b5035919050565b600060208284031215612d21578081fd5b5051919050565b73ffffffffffffffffffffffffffffffffffffffff91909116815260200190565b73ffffffffffffffffffffffffffffffffffffffff9384168152919092166020820152604081019190915260600190565b73ffffffffffffffffffffffffffffffffffffffff831681526040810160088310612da757612da76132bd565b8260208301529392505050565b73ffffffffffffffffffffffffffffffffffffffff929092168252602082015260400190565b604080825283519082018190526000906020906060840190828701845b82811015612e2957815173ffffffffffffffffffffffffffffffffffffffff1684529284019290840190600101612df7565b50505083810382850152845180825285830191830190845b81811015612e5d57835183529284019291840191600101612e41565b5090979650505050505050565b6020810160068310612e7e57612e7e6132bd565b91905290565b60208082526039908201527f43616c6c696e6720636f6e7472616374206973206e6f7420616e20617574686f60408201527f72697a6564206d617267696e20747261646572206167656e7400000000000000606082015260800190565b60208082526018908201527f43616e277420626f72726f772066756c6c20616d6f756e740000000000000000604082015260600190565b60208082526026908201527f4f776e61626c653a206e6577206f776e657220697320746865207a65726f206160408201527f6464726573730000000000000000000000000000000000000000000000000000606082015260800190565b60208082526033908201527f43616c6c696e6720636f6e7472616374206973206e6f7420616e20617574686f60408201527f72697a6564206d617267696e2074726164657200000000000000000000000000606082015260800190565b60208082526026908201527f4163636f756e742062616c616e636520697320746f6f206c6f7720746f20776960408201527f7468647261770000000000000000000000000000000000000000000000000000606082015260800190565b6020808252818101527f4f776e61626c653a2063616c6c6572206973206e6f7420746865206f776e6572604082015260600190565b6020808252602f908201527f43616c6c696e67206164647265737320646f65736e27742068617665206d617260408201527f67696e2063616c6c657220726f6c650000000000000000000000000000000000606082015260800190565b60208082526022908201527f43616e277420626f72726f773a20696e73756666696369656e742062616c616e60408201527f6365000000000000000000000000000000000000000000000000000000000000606082015260800190565b6020808252602a908201527f43616c6c696e6720636f6e7472616374206e6f7420617574686f72697a65642060408201527f746f206465706f73697400000000000000000000000000000000000000000000606082015260800190565b90815260200190565b92835273ffffffffffffffffffffffffffffffffffffffff919091166020830152604082015260600190565b600082198211156131c3576131c361328e565b500190565b6000826131fc577f4e487b710000000000000000000000000000000000000000000000000000000081526012600452602481fd5b500490565b6000817fffffffffffffffffffffffffffffffffffffffffffffffffffffffffffffffff04831182151516156132395761323961328e565b500290565b6000828210156132505761325061328e565b500390565b60007fffffffffffffffffffffffffffffffffffffffffffffffffffffffffffffffff8214156132875761328761328e565b5060010190565b7f4e487b7100000000000000000000000000000000000000000000000000000000600052601160045260246000fd5b7f4e487b7100000000000000000000000000000000000000000000000000000000600052602160045260246000fd5b7f4e487b7100000000000000000000000000000000000000000000000000000000600052604160045260246000fd5b73ffffffffffffffffffffffffffffffffffffffff811681146123f757600080fd5b80151581146123f757600080fdfea26469706673582212208fa7c3e8ab56fb6c68c7dfec2977cf3efda0333d9bc8aa94a135eb454ab645b364736f6c63430008010033",
  "linkReferences": {},
  "deployedLinkReferences": {}
}