{
  "_format": "hh-sol-artifact-1",
  "contractName": "CrossMarginTrading",
  "sourceName": "contracts/CrossMarginTrading.sol",
  "abi": [
    {
      "inputs": [
        {
          "internalType": "address",
          "name": "_roles",
          "type": "address"
        }
      ],
      "stateMutability": "nonpayable",
      "type": "constructor"
    },
    {
      "anonymous": false,
      "inputs": [
        {
          "indexed": false,
          "internalType": "uint256",
          "name": "amount",
          "type": "uint256"
        }
      ],
      "name": "LiquidationShortfall",
      "type": "event"
    },
    {
      "anonymous": false,
      "inputs": [
        {
          "indexed": true,
          "internalType": "address",
          "name": "previousOwner",
          "type": "address"
        },
        {
          "indexed": true,
          "internalType": "address",
          "name": "newOwner",
          "type": "address"
        }
      ],
      "name": "OwnershipTransferred",
      "type": "event"
    },
    {
      "inputs": [],
      "name": "ADMIN",
      "outputs": [
        {
          "internalType": "uint16",
          "name": "",
          "type": "uint16"
        }
      ],
      "stateMutability": "view",
      "type": "function"
    },
    {
      "inputs": [],
      "name": "AUTHORIZED_FUND_TRADER",
      "outputs": [
        {
          "internalType": "uint16",
          "name": "",
          "type": "uint16"
        }
      ],
      "stateMutability": "view",
      "type": "function"
    },
    {
      "inputs": [],
      "name": "BORROWER",
      "outputs": [
        {
          "internalType": "uint16",
          "name": "",
          "type": "uint16"
        }
      ],
      "stateMutability": "view",
      "type": "function"
    },
    {
      "inputs": [],
      "name": "FEE_CONTROLLER",
      "outputs": [
        {
          "internalType": "uint16",
          "name": "",
          "type": "uint16"
        }
      ],
      "stateMutability": "view",
      "type": "function"
    },
    {
      "inputs": [],
      "name": "FEE_SOURCE",
      "outputs": [
        {
          "internalType": "uint16",
          "name": "",
          "type": "uint16"
        }
      ],
      "stateMutability": "view",
      "type": "function"
    },
    {
      "inputs": [],
      "name": "FUND",
      "outputs": [
        {
          "internalType": "uint16",
          "name": "",
          "type": "uint16"
        }
      ],
      "stateMutability": "view",
      "type": "function"
    },
    {
      "inputs": [],
      "name": "INCENTIVE_DISTRIBUTION",
      "outputs": [
        {
          "internalType": "uint16",
          "name": "",
          "type": "uint16"
        }
      ],
      "stateMutability": "view",
      "type": "function"
    },
    {
      "inputs": [],
      "name": "INCENTIVE_REPORTER",
      "outputs": [
        {
          "internalType": "uint16",
          "name": "",
          "type": "uint16"
        }
      ],
      "stateMutability": "view",
      "type": "function"
    },
    {
      "inputs": [],
      "name": "LENDING",
      "outputs": [
        {
          "internalType": "uint16",
          "name": "",
          "type": "uint16"
        }
      ],
      "stateMutability": "view",
      "type": "function"
    },
    {
      "inputs": [],
      "name": "LIQUIDATOR",
      "outputs": [
        {
          "internalType": "uint16",
          "name": "",
          "type": "uint16"
        }
      ],
      "stateMutability": "view",
      "type": "function"
    },
    {
      "inputs": [],
      "name": "MARGIN_CALLER",
      "outputs": [
        {
          "internalType": "uint16",
          "name": "",
          "type": "uint16"
        }
      ],
      "stateMutability": "view",
      "type": "function"
    },
    {
      "inputs": [],
      "name": "MARGIN_TRADER",
      "outputs": [
        {
          "internalType": "uint16",
          "name": "",
          "type": "uint16"
        }
      ],
      "stateMutability": "view",
      "type": "function"
    },
    {
      "inputs": [],
      "name": "MARGIN_TRADING",
      "outputs": [
        {
          "internalType": "uint16",
          "name": "",
          "type": "uint16"
        }
      ],
      "stateMutability": "view",
      "type": "function"
    },
    {
      "inputs": [],
      "name": "PRICE_CONTROLLER",
      "outputs": [
        {
          "internalType": "uint16",
          "name": "",
          "type": "uint16"
        }
      ],
      "stateMutability": "view",
      "type": "function"
    },
    {
      "inputs": [],
      "name": "ROUTER",
      "outputs": [
        {
          "internalType": "uint16",
          "name": "",
          "type": "uint16"
        }
      ],
      "stateMutability": "view",
      "type": "function"
    },
    {
      "inputs": [],
      "name": "STAKE_PENALIZER",
      "outputs": [
        {
          "internalType": "uint16",
          "name": "",
          "type": "uint16"
        }
      ],
      "stateMutability": "view",
      "type": "function"
    },
    {
      "inputs": [],
      "name": "TOKEN_ACTIVATOR",
      "outputs": [
        {
          "internalType": "uint16",
          "name": "",
          "type": "uint16"
        }
      ],
      "stateMutability": "view",
      "type": "function"
    },
    {
      "inputs": [],
      "name": "WITHDRAWER",
      "outputs": [
        {
          "internalType": "uint16",
          "name": "",
          "type": "uint16"
        }
      ],
      "stateMutability": "view",
      "type": "function"
    },
    {
      "inputs": [],
      "name": "coolingOffPeriod",
      "outputs": [
        {
          "internalType": "uint256",
          "name": "",
          "type": "uint256"
        }
      ],
      "stateMutability": "view",
      "type": "function"
    },
    {
      "inputs": [
        {
          "internalType": "address[]",
          "name": "liquidatedAccounts",
          "type": "address[]"
        }
      ],
      "name": "disburseMCAttacks",
      "outputs": [],
      "stateMutability": "nonpayable",
      "type": "function"
    },
    {
      "inputs": [
        {
          "internalType": "address",
          "name": "trader",
          "type": "address"
        }
      ],
      "name": "getBorrowAmounts",
      "outputs": [
        {
          "internalType": "address[]",
          "name": "borrowTokens",
          "type": "address[]"
        },
        {
          "internalType": "uint256[]",
          "name": "borrowAmounts",
          "type": "uint256[]"
        }
      ],
      "stateMutability": "view",
      "type": "function"
    },
    {
      "inputs": [
        {
          "internalType": "address",
          "name": "trader",
          "type": "address"
        }
      ],
      "name": "getHoldingAmounts",
      "outputs": [
        {
          "internalType": "address[]",
          "name": "holdingTokens",
          "type": "address[]"
        },
        {
          "internalType": "uint256[]",
          "name": "holdingAmounts",
          "type": "uint256[]"
        }
      ],
      "stateMutability": "view",
      "type": "function"
    },
    {
      "inputs": [
        {
          "internalType": "address",
          "name": "trader",
          "type": "address"
        },
        {
          "internalType": "address",
          "name": "token",
          "type": "address"
        },
        {
          "internalType": "uint256",
          "name": "amount",
          "type": "uint256"
        }
      ],
      "name": "getTradeBorrowAmount",
      "outputs": [
        {
          "internalType": "uint256",
          "name": "borrowAmount",
          "type": "uint256"
        }
      ],
      "stateMutability": "view",
      "type": "function"
    },
    {
      "inputs": [],
      "name": "leverage",
      "outputs": [
        {
          "internalType": "uint256",
          "name": "",
          "type": "uint256"
        }
      ],
      "stateMutability": "view",
      "type": "function"
    },
    {
      "inputs": [
        {
          "internalType": "address[]",
          "name": "liquidationCandidates",
          "type": "address[]"
        },
        {
          "internalType": "address",
          "name": "currentCaller",
          "type": "address"
        }
      ],
      "name": "liquidate",
      "outputs": [
        {
          "internalType": "uint256",
          "name": "maintainerCut",
          "type": "uint256"
        }
      ],
      "stateMutability": "nonpayable",
      "type": "function"
    },
    {
      "inputs": [],
      "name": "liquidationThresholdPercent",
      "outputs": [
        {
          "internalType": "uint256",
          "name": "",
          "type": "uint256"
        }
      ],
      "stateMutability": "view",
      "type": "function"
    },
    {
      "inputs": [
        {
          "internalType": "uint16",
          "name": "",
          "type": "uint16"
        }
      ],
      "name": "mainCharacterCache",
      "outputs": [
        {
          "internalType": "address",
          "name": "",
          "type": "address"
        }
      ],
      "stateMutability": "view",
      "type": "function"
    },
    {
      "inputs": [],
      "name": "owner",
      "outputs": [
        {
          "internalType": "address",
          "name": "",
          "type": "address"
        }
      ],
      "stateMutability": "view",
      "type": "function"
    },
    {
      "inputs": [
        {
          "internalType": "address",
          "name": "trader",
          "type": "address"
        },
        {
          "internalType": "address",
          "name": "borrowToken",
          "type": "address"
        },
        {
          "internalType": "uint256",
          "name": "borrowAmount",
          "type": "uint256"
        }
      ],
      "name": "registerBorrow",
      "outputs": [],
      "stateMutability": "nonpayable",
      "type": "function"
    },
    {
      "inputs": [
        {
          "internalType": "address",
          "name": "trader",
          "type": "address"
        },
        {
          "internalType": "address",
          "name": "token",
          "type": "address"
        },
        {
          "internalType": "uint256",
          "name": "depositAmount",
          "type": "uint256"
        }
      ],
      "name": "registerDeposit",
      "outputs": [
        {
          "internalType": "uint256",
          "name": "extinguishableDebt",
          "type": "uint256"
        }
      ],
      "stateMutability": "nonpayable",
      "type": "function"
    },
    {
      "inputs": [
        {
          "internalType": "address",
          "name": "trader",
          "type": "address"
        },
        {
          "internalType": "address",
          "name": "tokenFrom",
          "type": "address"
        },
        {
          "internalType": "address",
          "name": "tokenTo",
          "type": "address"
        },
        {
          "internalType": "uint256",
          "name": "inAmount",
          "type": "uint256"
        },
        {
          "internalType": "uint256",
          "name": "outAmount",
          "type": "uint256"
        }
      ],
      "name": "registerTradeAndBorrow",
      "outputs": [
        {
          "internalType": "uint256",
          "name": "extinguishableDebt",
          "type": "uint256"
        },
        {
          "internalType": "uint256",
          "name": "borrowAmount",
          "type": "uint256"
        }
      ],
      "stateMutability": "nonpayable",
      "type": "function"
    },
    {
      "inputs": [
        {
          "internalType": "address",
          "name": "trader",
          "type": "address"
        },
        {
          "internalType": "address",
          "name": "withdrawToken",
          "type": "address"
        },
        {
          "internalType": "uint256",
          "name": "withdrawAmount",
          "type": "uint256"
        }
      ],
      "name": "registerWithdrawal",
      "outputs": [],
      "stateMutability": "nonpayable",
      "type": "function"
    },
    {
      "inputs": [],
      "name": "renounceOwnership",
      "outputs": [],
      "stateMutability": "nonpayable",
      "type": "function"
    },
    {
      "inputs": [
        {
          "internalType": "address",
          "name": "",
          "type": "address"
        },
        {
          "internalType": "uint16",
          "name": "",
          "type": "uint16"
        }
      ],
      "name": "roleCache",
      "outputs": [
        {
          "internalType": "bool",
          "name": "",
          "type": "bool"
        }
      ],
      "stateMutability": "view",
      "type": "function"
    },
    {
      "inputs": [],
      "name": "roles",
      "outputs": [
        {
          "internalType": "contract Roles",
          "name": "",
          "type": "address"
        }
      ],
      "stateMutability": "view",
      "type": "function"
    },
    {
      "inputs": [
        {
          "internalType": "uint256",
          "name": "blocks",
          "type": "uint256"
        }
      ],
      "name": "setCoolingOffPeriod",
      "outputs": [],
      "stateMutability": "nonpayable",
      "type": "function"
    },
    {
      "inputs": [
        {
          "internalType": "uint256",
          "name": "_leverage",
          "type": "uint256"
        }
      ],
      "name": "setLeverage",
      "outputs": [],
      "stateMutability": "nonpayable",
      "type": "function"
    },
    {
      "inputs": [
        {
          "internalType": "uint256",
          "name": "threshold",
          "type": "uint256"
        }
      ],
      "name": "setLiquidationThresholdPercent",
      "outputs": [],
      "stateMutability": "nonpayable",
      "type": "function"
    },
    {
      "inputs": [
        {
          "internalType": "address",
          "name": "token",
          "type": "address"
        },
        {
          "internalType": "uint256",
          "name": "cap",
          "type": "uint256"
        }
      ],
      "name": "setTokenCap",
      "outputs": [],
      "stateMutability": "nonpayable",
      "type": "function"
    },
    {
      "inputs": [
        {
          "internalType": "address",
          "name": "",
          "type": "address"
        }
      ],
      "name": "tokenCaps",
      "outputs": [
        {
          "internalType": "uint256",
          "name": "",
          "type": "uint256"
        }
      ],
      "stateMutability": "view",
      "type": "function"
    },
    {
      "inputs": [
        {
          "internalType": "address",
          "name": "",
          "type": "address"
        }
      ],
      "name": "totalLong",
      "outputs": [
        {
          "internalType": "uint256",
          "name": "",
          "type": "uint256"
        }
      ],
      "stateMutability": "view",
      "type": "function"
    },
    {
      "inputs": [
        {
          "internalType": "address",
          "name": "",
          "type": "address"
        }
      ],
      "name": "totalShort",
      "outputs": [
        {
          "internalType": "uint256",
          "name": "",
          "type": "uint256"
        }
      ],
      "stateMutability": "view",
      "type": "function"
    },
    {
      "inputs": [
        {
          "internalType": "address",
          "name": "newOwner",
          "type": "address"
        }
      ],
      "name": "transferOwnership",
      "outputs": [],
      "stateMutability": "nonpayable",
      "type": "function"
    },
    {
      "inputs": [
        {
          "internalType": "uint16",
          "name": "role",
          "type": "uint16"
        }
      ],
      "name": "updateMainCharacterCache",
      "outputs": [],
      "stateMutability": "nonpayable",
      "type": "function"
    },
    {
      "inputs": [
        {
          "internalType": "uint16",
          "name": "role",
          "type": "uint16"
        },
        {
          "internalType": "address",
          "name": "contr",
          "type": "address"
        }
      ],
      "name": "updateRoleCache",
      "outputs": [],
      "stateMutability": "nonpayable",
      "type": "function"
    }
  ],
  "bytecode": "0x6080604052600a60105560056011553480156200001b57600080fd5b506040516200445c3803806200445c8339810160408190526200003e91620000c6565b600080546001600160a01b0319166001600160a01b03831617815562000063620000c2565b600380546001600160a01b0319166001600160a01b038316908117909155604051919250906000907f8be0079c531659141344cd1fd0a4f28419497f9722a3daafe3b4186f6b6457e0908290a3505060146005819055600a55620000f6565b3390565b600060208284031215620000d8578081fd5b81516001600160a01b0381168114620000ef578182fd5b9392505050565b61435680620001066000396000f3fe608060405234801561001057600080fd5b50600436106102ff5760003560e01c80636612ce351161019c578063a9cc0536116100ee578063d0eb665311610097578063e0f3871f11610071578063e0f3871f14610575578063f2fde38b14610588578063f99fd97c1461059b576102ff565b8063d0eb665314610547578063d510c5351461055a578063d5d7ed7f1461056d576102ff565b8063c34316c3116100c8578063c34316c314610517578063c76139d014610537578063cacf8d451461053f576102ff565b8063a9cc0536146104e9578063b4481652146104f1578063bc44dcbc14610504576102ff565b806381ca660011610150578063a0098d691161012a578063a0098d69146104c6578063a12f5295146104ce578063a94c7c34146104e1576102ff565b806381ca6600146104ae57806383a49c7c146104b65780638da5cb5b146104be576102ff565b80636cd5cd60116101815780636cd5cd6014610480578063715018a61461049357806379575b231461049b576102ff565b80636612ce35146104655780636694198414610478576102ff565b80632febaa7411610255578063409fdb7211610209578063498d55eb116101e3578063498d55eb1461043757806352a664d91461044a5780635c275a391461045d576102ff565b8063409fdb721461040657806346b887961461042757806348fb27b81461042f576102ff565b806332fe7b261161023a57806332fe7b26146103c85780633500aa0b146103d0578063392f5f64146103f1576102ff565b80632febaa74146103b8578063320d2fa0146103c0576102ff565b80631d47e4a3116102b75780632a0acc6a116102915780632a0acc6a146103a05780632c86d98e146103a85780632fe94def146103b0576102ff565b80631d47e4a31461036757806320c271261461037a57806320e8d8191461038d576102ff565b806316317e7e116102e857806316317e7e146103425780631b669507146103575780631bc5d81d1461035f576102ff565b8063065d570f146103045780630f0f543614610322575b600080fd5b61030c6105ae565b6040516103199190614146565b60405180910390f35b610335610330366004613b47565b6105b3565b604051610319919061417f565b610355610350366004613bfc565b610aab565b005b61030c610b2c565b61030c610b31565b610355610375366004613ae1565b610b36565b6103356103883660046139d4565b610b9e565b61035561039b366004613bd1565b610bb0565b61030c610cc1565b610335610cc6565b61030c610ccc565b610335610cd1565b610335610cd7565b61030c610cdd565b6103e36103de366004613a13565b610ce2565b6040516103199291906141b4565b6103f9610ff6565b6040516103199190613c2c565b6104196104143660046139d4565b611012565b604051610319929190613cd4565b61030c611208565b61030c61120d565b610355610445366004613a6d565b611212565b610335610458366004613a6d565b6113a1565b61030c611568565b610335610473366004613a6d565b61156d565b61030c61163b565b61035561048e366004613bb7565b611640565b61035561173f565b6103556104a9366004613bfc565b611821565b61030c611899565b61030c61189e565b6103f96118a3565b61030c6118bf565b6103556104dc366004613b0c565b6118c4565b61030c61198e565b61030c611993565b6103f96104ff366004613bb7565b611998565b6103356105123660046139d4565b6119c0565b61052a610525366004613aad565b6119d2565b6040516103199190613d64565b61030c6119f2565b61030c6119f7565b610355610555366004613a6d565b6119fc565b6104196105683660046139d4565b611b7b565b61030c611df9565b6103356105833660046139d4565b611dfe565b6103556105963660046139d4565b611e10565b6103556105a9366004613bfc565b611f5e565b600381565b6000806105be611fd6565b73ffffffffffffffffffffffffffffffffffffffff16637b23cbce336040518263ffffffff1660e01b81526004016105f69190613c2c565b602060405180830381600087803b15801561061057600080fd5b505af1158015610624573d6000803e3d6000fd5b505050506040513d601f19601f820116820180604052508101906106489190613b97565b90506000610656858361201b565b905061066281846141c2565b9250600061066e612587565b9050600061067a6126e4565b9050818111156106c5577f3555ffae7677eb42103f0b9e11b61c758f452fae446684dec7a363dd38ab58fc6106af8383614250565b6040516106bc919061417f565b60405180910390a15b60005b600e54811015610a76576000600e828154811061070e577f4e487b7100000000000000000000000000000000000000000000000000000000600052603260045260246000fd5b600091825260208083209091015473ffffffffffffffffffffffffffffffffffffffff168083526006909152604082209092509061074b8261283a565b9050600061075883612854565b90506000603261076a836103e8614213565b61077491906141da565b9050891561078d57610786818c6141c2565b9a506108bf565b73ffffffffffffffffffffffffffffffffffffffff8581166000908152600f60205260409020600281018390556003810180547fffffffffffffffffffffffff000000000000000000000000000000000000000016928f16929092179091554381556107f7611fd6565b73ffffffffffffffffffffffffffffffffffffffff16631a38de1d6040518163ffffffff1660e01b8152600401602060405180830381600087803b15801561083e57600080fd5b505af1158015610852573d6000803e3d6000fd5b505050506040513d601f19601f8201168201806040525081019061087691906139f7565b60019190910180547fffffffffffffffffffffffff00000000000000000000000000000000000000001673ffffffffffffffffffffffffffffffffffffffff9092169190911790555b6108c982826141c2565b8310610a03576108d761286a565b73ffffffffffffffffffffffffffffffffffffffff1663d9caed126108fa6128af565b73ffffffffffffffffffffffffffffffffffffffff16631f1cb62b6040518163ffffffff1660e01b815260040160206040518083038186803b15801561093f57600080fd5b505afa158015610953573d6000803e3d6000fd5b505050506040513d601f19601f8201168201806040525081019061097791906139f7565b87846109838789614250565b61098d9190614250565b6040518463ffffffff1660e01b81526004016109ab93929190613c4d565b602060405180830381600087803b1580156109c557600080fd5b505af11580156109d9573d6000803e3d6000fd5b505050506040513d601f19601f820116820180604052508101906109fd9190613b97565b50610a55565b600083610a1083856141c2565b610a1a9190614250565b90507f3555ffae7677eb42103f0b9e11b61c758f452fae446684dec7a363dd38ab58fc81604051610a4b919061417f565b60405180910390a1505b610a5e846128f4565b50505050508080610a6e90614267565b9150506106c8565b506064856010546063610a899190614213565b610a9391906141c2565b610a9d91906141da565b601055509295945050505050565b610ab3612a76565b73ffffffffffffffffffffffffffffffffffffffff16610ad16118a3565b73ffffffffffffffffffffffffffffffffffffffff1614610b27576040517f08c379a0000000000000000000000000000000000000000000000000000000008152600401610b1e90613ffa565b60405180910390fd5b600555565b600a81565b600881565b610b3f33612a7a565b610b75576040517f08c379a0000000000000000000000000000000000000000000000000000000008152600401610b1e90613d6f565b73ffffffffffffffffffffffffffffffffffffffff909116600090815260076020526040902055565b60096020526000908152604090205481565b6000546040517fd87fefd200000000000000000000000000000000000000000000000000000000815273ffffffffffffffffffffffffffffffffffffffff9091169063d87fefd290610c089085908590600401614155565b60206040518083038186803b158015610c2057600080fd5b505afa158015610c34573d6000803e3d6000fd5b505050506040513d601f19601f82011682018060405250810190610c589190613b97565b73ffffffffffffffffffffffffffffffffffffffff909116600090815260026020908152604080832061ffff90951683529390529190912080549115157fffffffffffffffffffffffffffffffffffffffffffffffffffffffffffffff00909216919091179055565b606b81565b60045481565b606981565b600a5481565b60055481565b606781565b600080610cee33612ab1565b610d24576040517f08c379a0000000000000000000000000000000000000000000000000000000008152600401610b1e90613dcc565b73ffffffffffffffffffffffffffffffffffffffff808816600090815260066020908152604080832093891683526002840190915290205415610ddc5773ffffffffffffffffffffffffffffffffffffffff86166000908152600282016020526040902054610d94908590612ae8565b9250610da1818785612b02565b73ffffffffffffffffffffffffffffffffffffffff861660009081526008602052604081208054859290610dd6908490614250565b90915550505b73ffffffffffffffffffffffffffffffffffffffff871660009081526009602052604081208054879290610e11908490614250565b90915550610e2190508385614250565b73ffffffffffffffffffffffffffffffffffffffff871660009081526009602052604081208054909190610e569084906141c2565b909155505073ffffffffffffffffffffffffffffffffffffffff86166000908152600960209081526040808320546007909252909120541015610ec5576040517f08c379a0000000000000000000000000000000000000000000000000000000008152600401610b1e9061402f565b73ffffffffffffffffffffffffffffffffffffffff871660009081526005820160205260409020548590811115610fdd575073ffffffffffffffffffffffffffffffffffffffff87166000908152600582016020526040902054610f298187614250565b73ffffffffffffffffffffffffffffffffffffffff8916600090815260086020526040812080549295508592909190610f639084906141c2565b909155505073ffffffffffffffffffffffffffffffffffffffff88166000908152600860209081526040808320546007909252909120541015610fd2576040517f08c379a0000000000000000000000000000000000000000000000000000000008152600401610b1e9061402f565b610fdd828985612c79565b610fea8289898489612f20565b50509550959350505050565b60005473ffffffffffffffffffffffffffffffffffffffff1681565b73ffffffffffffffffffffffffffffffffffffffff811660009081526006602090815260409182902060048101805484518185028101850190955280855260609485949092919083018282801561109f57602002820191906000526020600020905b815473ffffffffffffffffffffffffffffffffffffffff168152600190910190602001808311611074575b5050506004840154929550505067ffffffffffffffff8111156110eb577f4e487b7100000000000000000000000000000000000000000000000000000000600052604160045260246000fd5b604051908082528060200260200182016040528015611114578160200160208202803683370190505b50915060005b808451111561120157600084828151811061115e577f4e487b7100000000000000000000000000000000000000000000000000000000600052603260045260246000fd5b602002602001015190508260050160008273ffffffffffffffffffffffffffffffffffffffff1673ffffffffffffffffffffffffffffffffffffffff168152602001908152602001600020548483815181106111e3577f4e487b7100000000000000000000000000000000000000000000000000000000600052603260045260246000fd5b602090810291909101015250806111f981614267565b91505061111a565b5050915091565b600681565b606681565b61121b33612ab1565b611251576040517f08c379a0000000000000000000000000000000000000000000000000000000008152600401610b1e906140e9565b73ffffffffffffffffffffffffffffffffffffffff8216600090815260086020526040812080548392906112869084906141c2565b909155505073ffffffffffffffffffffffffffffffffffffffff8216600090815260096020526040812080548392906112c09084906141c2565b909155505073ffffffffffffffffffffffffffffffffffffffff821660009081526008602090815260408083205460079092529091205410801590611335575073ffffffffffffffffffffffffffffffffffffffff821660009081526009602090815260408083205460079092529091205410155b61136b576040517f08c379a0000000000000000000000000000000000000000000000000000000008152600401610b1e9061402f565b73ffffffffffffffffffffffffffffffffffffffff8316600090815260066020526040902061139b818484612c79565b50505050565b60006113ac33612ab1565b6113e2576040517f08c379a0000000000000000000000000000000000000000000000000000000008152600401610b1e906140e9565b73ffffffffffffffffffffffffffffffffffffffff8316600090815260096020526040812080548492906114179084906141c2565b909155505073ffffffffffffffffffffffffffffffffffffffff83166000908152600960209081526040808320546007909252909120541015611486576040517f08c379a0000000000000000000000000000000000000000000000000000000008152600401610b1e9061402f565b73ffffffffffffffffffffffffffffffffffffffff841660009081526006602052604090206114b6818585612f8d565b73ffffffffffffffffffffffffffffffffffffffff841660009081526002820160205260409020541561155e5773ffffffffffffffffffffffffffffffffffffffff84166000908152600282016020526040902054611516908490612ae8565b9150611523818584612b02565b73ffffffffffffffffffffffffffffffffffffffff841660009081526008602052604081208054849290611558908490614250565b90915550505b4390559392505050565b606581565b600061157833612ab1565b6115ae576040517f08c379a0000000000000000000000000000000000000000000000000000000008152600401610b1e90613ebd565b73ffffffffffffffffffffffffffffffffffffffff80851660009081526006602090815260408083209387168352600584019091529020546115f09084614250565b91506115fd818584613032565b611633576040517f08c379a0000000000000000000000000000000000000000000000000000000008152600401610b1e90613e29565b509392505050565b600181565b6000546040517f3c9c8f9c00000000000000000000000000000000000000000000000000000000815273ffffffffffffffffffffffffffffffffffffffff90911690633c9c8f9c90611696908490600401614146565b60206040518083038186803b1580156116ae57600080fd5b505afa1580156116c2573d6000803e3d6000fd5b505050506040513d601f19601f820116820180604052508101906116e691906139f7565b61ffff91909116600090815260016020526040902080547fffffffffffffffffffffffff00000000000000000000000000000000000000001673ffffffffffffffffffffffffffffffffffffffff909216919091179055565b611747612a76565b73ffffffffffffffffffffffffffffffffffffffff166117656118a3565b73ffffffffffffffffffffffffffffffffffffffff16146117b2576040517f08c379a0000000000000000000000000000000000000000000000000000000008152600401610b1e90613ffa565b60035460405160009173ffffffffffffffffffffffffffffffffffffffff16907f8be0079c531659141344cd1fd0a4f28419497f9722a3daafe3b4186f6b6457e0908390a3600380547fffffffffffffffffffffffff0000000000000000000000000000000000000000169055565b611829612a76565b73ffffffffffffffffffffffffffffffffffffffff166118476118a3565b73ffffffffffffffffffffffffffffffffffffffff1614611894576040517f08c379a0000000000000000000000000000000000000000000000000000000008152600401610b1e90613ffa565b600455565b606a81565b600981565b60035473ffffffffffffffffffffffffffffffffffffffff1690565b600281565b60005b808251111561198a576000600f600084848151811061190f577f4e487b7100000000000000000000000000000000000000000000000000000000600052603260045260246000fd5b602002602001015173ffffffffffffffffffffffffffffffffffffffff1673ffffffffffffffffffffffffffffffffffffffff1681526020019081526020016000209050601154816000015461196591906141c2565b4311156119775761197581613064565b505b508061198281614267565b9150506118c7565b5050565b600581565b606881565b60016020526000908152604090205473ffffffffffffffffffffffffffffffffffffffff1681565b60086020526000908152604090205481565b600260209081526000928352604080842090915290825290205460ff1681565b606c81565b600481565b611a0533612ab1565b611a3b576040517f08c379a0000000000000000000000000000000000000000000000000000000008152600401610b1e906140e9565b73ffffffffffffffffffffffffffffffffffffffff83166000908152600660205260409020600a548154611a6f91906141c2565b4311611aa7576040517f08c379a0000000000000000000000000000000000000000000000000000000008152600401610b1e90613f77565b73ffffffffffffffffffffffffffffffffffffffff831660009081526009602052604081208054849290611adc908490614250565b909155505073ffffffffffffffffffffffffffffffffffffffff83166000908152600582016020526040902054611b14908390614250565b73ffffffffffffffffffffffffffffffffffffffff84166000908152600583016020526040902055611b45816133c3565b61139b576040517f08c379a0000000000000000000000000000000000000000000000000000000008152600401610b1e90613f1a565b73ffffffffffffffffffffffffffffffffffffffff8116600090815260066020908152604091829020600181018054845181850281018501909552808552606094859490929190830182828015611c0857602002820191906000526020600020905b815473ffffffffffffffffffffffffffffffffffffffff168152600190910190602001808311611bdd575b5050506001840154929550505067ffffffffffffffff811115611c54577f4e487b7100000000000000000000000000000000000000000000000000000000600052604160045260246000fd5b604051908082528060200260200182016040528015611c7d578160200160208202803683370190505b50915060005b8084511115611201576000848281518110611cc7577f4e487b7100000000000000000000000000000000000000000000000000000000600052603260045260246000fd5b60200260200101519050611cd961340e565b73ffffffffffffffffffffffffffffffffffffffff828116600090815260028601602090815260408083205460038901909252918290205491517f687680ed000000000000000000000000000000000000000000000000000000008152939092169263687680ed92611d52929091869190600401614188565b60206040518083038186803b158015611d6a57600080fd5b505afa158015611d7e573d6000803e3d6000fd5b505050506040513d601f19601f82011682018060405250810190611da29190613c14565b848381518110611ddb577f4e487b7100000000000000000000000000000000000000000000000000000000600052603260045260246000fd5b60209081029190910101525080611df181614267565b915050611c83565b600781565b60076020526000908152604090205481565b611e18612a76565b73ffffffffffffffffffffffffffffffffffffffff16611e366118a3565b73ffffffffffffffffffffffffffffffffffffffff1614611e83576040517f08c379a0000000000000000000000000000000000000000000000000000000008152600401610b1e90613ffa565b73ffffffffffffffffffffffffffffffffffffffff8116611ed0576040517f08c379a0000000000000000000000000000000000000000000000000000000008152600401610b1e90613e60565b60035460405173ffffffffffffffffffffffffffffffffffffffff8084169216907f8be0079c531659141344cd1fd0a4f28419497f9722a3daafe3b4186f6b6457e090600090a3600380547fffffffffffffffffffffffff00000000000000000000000000000000000000001673ffffffffffffffffffffffffffffffffffffffff92909216919091179055565b611f66612a76565b73ffffffffffffffffffffffffffffffffffffffff16611f846118a3565b73ffffffffffffffffffffffffffffffffffffffff1614611fd1576040517f08c379a0000000000000000000000000000000000000000000000000000000008152600401610b1e90613ffa565b600a55565b606b60005260016020527fd70e245266dfd722d237312ada32b3921705992efb298b14480ba0acaaa0765a5473ffffffffffffffffffffffffffffffffffffffff1690565b60408051600080825260208201928390529051909161203d91600c9190613840565b50604080516000815260208101918290525161205b91600d91613840565b50604080516000815260208101918290525161207991600e91613840565b5060005b80845111156125805760008482815181106120c1577f4e487b7100000000000000000000000000000000000000000000000000000000600052603260045260246000fd5b602002602001015190506000600660008373ffffffffffffffffffffffffffffffffffffffff1673ffffffffffffffffffffffffffffffffffffffff168152602001908152602001600020905061211781613453565b1561252957600e805460018101825560009182527fbb7b4a454dc3493923482f07822329ed19e8244eff582cc204f8554c3620c3fd0180547fffffffffffffffffffffffff00000000000000000000000000000000000000001673ffffffffffffffffffffffffffffffffffffffff85161790555b60048201548110156123045760008260040182815481106121d6577f4e487b7100000000000000000000000000000000000000000000000000000000600052603260045260246000fd5b600091825260208083209091015473ffffffffffffffffffffffffffffffffffffffff16808352600b909152604090912060028101549192509043146122ac5773ffffffffffffffffffffffffffffffffffffffff82166000818152600586016020526040812054600180850191909155818455436002850155600c805491820181559091527fdf6966c971051c3d54ec59162606531493a51404a002842f56009d7e5cf4a8c70180547fffffffffffffffffffffffff00000000000000000000000000000000000000001690911790556122ef565b73ffffffffffffffffffffffffffffffffffffffff82166000908152600585016020526040812054600183018054919290916122e99084906141c2565b90915550505b505080806122fc90614267565b91505061218c565b5060005b6001820154811015612527576000826001018281548110612352577f4e487b7100000000000000000000000000000000000000000000000000000000600052603260045260246000fd5b600091825260208083209091015473ffffffffffffffffffffffffffffffffffffffff16808352600b909152604082209092509061238e61340e565b73ffffffffffffffffffffffffffffffffffffffff1663e7bde5c1846040518263ffffffff1660e01b81526004016123c69190613c2c565b60206040518083038186803b1580156123de57600080fd5b505afa1580156123f2573d6000803e3d6000fd5b505050506040513d601f19601f820116820180604052508101906124169190613c14565b73ffffffffffffffffffffffffffffffffffffffff8416600090815260038701602090815260408083205460028a01909252822054929350909161245b908490614213565b61246591906141da565b9050438360020154146124f65760006001848101829055828555436002860155600d805491820181559091527fd7b6990105719101dabeb77144f2a3385c8033acd3af97e9423a695e81ad1eb50180547fffffffffffffffffffffffff00000000000000000000000000000000000000001673ffffffffffffffffffffffffffffffffffffffff8616179055612510565b8083600001600082825461250a91906141c2565b90915550505b50505050808061251f90614267565b915050612308565b505b73ffffffffffffffffffffffffffffffffffffffff82166000908152600f60205260409020851561256a5761255d81613064565b61256790866141c2565b94505b505050808061257890614267565b91505061207d565b5092915050565b6000805b600c548110156126e0576000600c82815481106125d1577f4e487b7100000000000000000000000000000000000000000000000000000000600052603260045260246000fd5b600091825260208083209091015473ffffffffffffffffffffffffffffffffffffffff16808352600b909152604090912080546001820154929350909111156126cb578054600182015460009161262791614250565b90506126316128af565b73ffffffffffffffffffffffffffffffffffffffff166305883f7c84836040518363ffffffff1660e01b815260040161266b929190613c7e565b602060405180830381600087803b15801561268557600080fd5b505af1158015612699573d6000803e3d6000fd5b505050506040513d601f19601f820116820180604052508101906126bd9190613c14565b6126c790866141c2565b9450505b505080806126d890614267565b91505061258b565b5090565b6000805b600d548110156126e0576000600d828154811061272e577f4e487b7100000000000000000000000000000000000000000000000000000000600052603260045260246000fd5b600091825260208083209091015473ffffffffffffffffffffffffffffffffffffffff16808352600b90915260409091206001810154815492935090911115612825576127796128af565b73ffffffffffffffffffffffffffffffffffffffff166305883f7c83836001015484600001546127a99190614250565b6040518363ffffffff1660e01b81526004016127c6929190613c7e565b602060405180830381600087803b1580156127e057600080fd5b505af11580156127f4573d6000803e3d6000fd5b505050506040513d601f19601f820116820180604052508101906128189190613c14565b61282290856141c2565b93505b5050808061283290614267565b9150506126e8565b600061284c8260040183600501613486565b90505b919050565b600061284c8260010183600201846003016135d4565b606560005260016020527f6def5a300acb6fcaa0dab3a41e9d6457b5147a641e641380f8cc4bf5308b16fe5473ffffffffffffffffffffffffffffffffffffffff1690565b606a60005260016020527fdd2cb9885bc4a6b7d63bce617b9a4981fb4dfc6d1957489e794070560e4e930d5473ffffffffffffffffffffffffffffffffffffffff1690565b60005b6001820154811015612992576000826001018281548110612941577f4e487b7100000000000000000000000000000000000000000000000000000000600052603260045260246000fd5b600091825260208083209091015473ffffffffffffffffffffffffffffffffffffffff168252600285018152604080832083905560038601909152812055508061298a81614267565b9150506128f7565b5060005b6004820154811015612a565760008260040182815481106129e0577f4e487b7100000000000000000000000000000000000000000000000000000000600052603260045260246000fd5b600091825260208083209091015473ffffffffffffffffffffffffffffffffffffffff168252600585018152604080832083905560068601909152902080547fffffffffffffffffffffffffffffffffffffffffffffffffffffffffffffff001690555080612a4e81614267565b915050612996565b50612a656001820160006138c6565b612a736004820160006138c6565b50565b3390565b73ffffffffffffffffffffffffffffffffffffffff1660009081526002602090815260408083206009845290915290205460ff1690565b73ffffffffffffffffffffffffffffffffffffffff1660009081526002602090815260408083206004845290915290205460ff1690565b600081831115612af9575080612afc565b50815b92915050565b612b0a61340e565b73ffffffffffffffffffffffffffffffffffffffff838116600090815260028601602090815260408083205460038901909252918290205491517fe695fa68000000000000000000000000000000000000000000000000000000008152939092169263e695fa6892612b83929091879190600401614188565b602060405180830381600087803b158015612b9d57600080fd5b505af1158015612bb1573d6000803e3d6000fd5b505050506040513d601f19601f82011682018060405250810190612bd59190613c14565b73ffffffffffffffffffffffffffffffffffffffff831660009081526002850160205260409020819055612c0a908290614250565b73ffffffffffffffffffffffffffffffffffffffff831660009081526002850160209081526040808320939093556005860190522054612c4b908290614250565b73ffffffffffffffffffffffffffffffffffffffff9092166000908152600590930160205250604090912055565b612c83838361367c565b612d98576001838101805491820181556000908152602090200180547fffffffffffffffffffffffff00000000000000000000000000000000000000001673ffffffffffffffffffffffffffffffffffffffff8416179055612ce361340e565b73ffffffffffffffffffffffffffffffffffffffff1663e7bde5c1836040518263ffffffff1660e01b8152600401612d1b9190613c2c565b60206040518083038186803b158015612d3357600080fd5b505afa158015612d47573d6000803e3d6000fd5b505050506040513d601f19601f82011682018060405250810190612d6b9190613c14565b73ffffffffffffffffffffffffffffffffffffffff83166000908152600385016020526040902055612e94565b612da061340e565b73ffffffffffffffffffffffffffffffffffffffff838116600090815260028601602090815260408083205460038901909252918290205491517fe695fa68000000000000000000000000000000000000000000000000000000008152939092169263e695fa6892612e19929091879190600401614188565b602060405180830381600087803b158015612e3357600080fd5b505af1158015612e47573d6000803e3d6000fd5b505050506040513d601f19601f82011682018060405250810190612e6b9190613c14565b73ffffffffffffffffffffffffffffffffffffffff831660009081526002850160205260409020555b73ffffffffffffffffffffffffffffffffffffffff8216600090815260028401602052604081208054839290612ecb9084906141c2565b90915550612edc9050838383612f8d565b612ee5836133c3565b612f1b576040517f08c379a0000000000000000000000000000000000000000000000000000000008152600401610b1e9061408c565b505050565b73ffffffffffffffffffffffffffffffffffffffff84166000908152600586016020526040902054612f53908390614250565b73ffffffffffffffffffffffffffffffffffffffff85166000908152600587016020526040902055612f86858483612f8d565b5050505050565b612f9783836136aa565b612ff157600483018054600181018255600091825260209091200180547fffffffffffffffffffffffff00000000000000000000000000000000000000001673ffffffffffffffffffffffffffffffffffffffff84161790555b73ffffffffffffffffffffffffffffffffffffffff82166000908152600584016020526040812080548392906130289084906141c2565b9091555050505050565b73ffffffffffffffffffffffffffffffffffffffff821660009081526005840160205260409020548111159392505050565b60028101546000901561284f578154600090613097906130854360016141c2565b61308f9190614250565b601154612ae8565b905060006011548460020154836130ae9190614213565b6130b891906141da565b90506130c261286a565b73ffffffffffffffffffffffffffffffffffffffff1663d9caed126130e56128af565b73ffffffffffffffffffffffffffffffffffffffff16631f1cb62b6040518163ffffffff1660e01b815260040160206040518083038186803b15801561312a57600080fd5b505afa15801561313e573d6000803e3d6000fd5b505050506040513d601f19601f8201168201806040525081019061316291906139f7565b60038701546040517fffffffff0000000000000000000000000000000000000000000000000000000060e085901b1681526131b9929173ffffffffffffffffffffffffffffffffffffffff16908690600401613c4d565b602060405180830381600087803b1580156131d357600080fd5b505af11580156131e7573d6000803e3d6000fd5b505050506040513d601f19601f8201168201806040525081019061320b9190613b97565b506000613216611fd6565b90506000601054838373ffffffffffffffffffffffffffffffffffffffff16630ad691506040518163ffffffff1660e01b815260040160206040518083038186803b15801561326457600080fd5b505afa158015613278573d6000803e3d6000fd5b505050506040513d601f19601f8201168201806040525081019061329c9190613c14565b6132a69190614213565b6132b091906141da565b600187015460038801546040517f0a45bc1b00000000000000000000000000000000000000000000000000000000815292935073ffffffffffffffffffffffffffffffffffffffff80861693630a45bc1b9361331793908316928792911690600401613ca4565b602060405180830381600087803b15801561333157600080fd5b505af1158015613345573d6000803e3d6000fd5b505050506040513d601f19601f820116820180604052508101906133699190613c14565b506000600287018190556003870180547fffffffffffffffffffffffff000000000000000000000000000000000000000090811690915581885560018801805490911690556133b9908490614250565b9695505050505050565b6000806133cf83612854565b905060006133dc8461283a565b9050600454826133ec9190614213565b6004546133fa9060016141c2565b6134049083614213565b1015949350505050565b606660005260016020527f8a7727369fa1a496cab5c3debb1ff9323f499df74f8bfc03a975054ef960ee6d5473ffffffffffffffffffffffffffffffffffffffff1690565b60008061345f83612854565b9050600061346c8461283a565b905061347a8261044c614213565b613404826103e8614213565b6000805b83548110156125805760008482815481106134ce577f4e487b7100000000000000000000000000000000000000000000000000000000600052603260045260246000fd5b60009182526020909120015473ffffffffffffffffffffffffffffffffffffffff1690506134fa6128af565b73ffffffffffffffffffffffffffffffffffffffff828116600090815260208790526040908190205490517fe47109a9000000000000000000000000000000000000000000000000000000008152929091169163e47109a99161356291859190600401613c7e565b602060405180830381600087803b15801561357c57600080fd5b505af1158015613590573d6000803e3d6000fd5b505050506040513d601f19601f820116820180604052508101906135b49190613c14565b6135be90846141c2565b92505080806135cc90614267565b91505061348a565b6000805b845481101561163357600085828154811061361c577f4e487b7100000000000000000000000000000000000000000000000000000000600052603260045260246000fd5b600091825260208083209091015473ffffffffffffffffffffffffffffffffffffffff168083529087905260409091205490915061365c908290866136d9565b61366690846141c2565b925050808061367490614267565b9150506135d8565b73ffffffffffffffffffffffffffffffffffffffff1660009081526003919091016020526040902054151590565b73ffffffffffffffffffffffffffffffffffffffff166000908152600691909101602052604090205460ff1690565b6000806136e461340e565b73ffffffffffffffffffffffffffffffffffffffff1663e7bde5c1866040518263ffffffff1660e01b815260040161371c9190613c2c565b60206040518083038186803b15801561373457600080fd5b505afa158015613748573d6000803e3d6000fd5b505050506040513d601f19601f8201168201806040525081019061376c9190613c14565b73ffffffffffffffffffffffffffffffffffffffff8616600090815260208590526040812054919250906137a08387614213565b6137aa91906141da565b90506137b46128af565b73ffffffffffffffffffffffffffffffffffffffff1663e47109a987836040518363ffffffff1660e01b81526004016137ee929190613c7e565b602060405180830381600087803b15801561380857600080fd5b505af115801561381c573d6000803e3d6000fd5b505050506040513d601f19601f820116820180604052508101906133b99190613c14565b8280548282559060005260206000209081019282156138ba579160200282015b828111156138ba57825182547fffffffffffffffffffffffff00000000000000000000000000000000000000001673ffffffffffffffffffffffffffffffffffffffff909116178255602090920191600190910190613860565b506126e09291506138e0565b5080546000825590600052602060002090810190612a7391905b5b808211156126e057600081556001016138e1565b803561284f816142fe565b600082601f830112613910578081fd5b8135602067ffffffffffffffff8083111561392d5761392d6142cf565b8183026040517fffffffffffffffffffffffffffffffffffffffffffffffffffffffffffffffe0603f8301168101818110848211171561396f5761396f6142cf565b6040528481528381019250868401828801850189101561398d578687fd5b8692505b858310156139b6576139a2816138f5565b845292840192600192909201918401613991565b50979650505050505050565b803561ffff8116811461284f57600080fd5b6000602082840312156139e5578081fd5b81356139f0816142fe565b9392505050565b600060208284031215613a08578081fd5b81516139f0816142fe565b600080600080600060a08688031215613a2a578081fd5b8535613a35816142fe565b94506020860135613a45816142fe565b93506040860135613a55816142fe565b94979396509394606081013594506080013592915050565b600080600060608486031215613a81578283fd5b8335613a8c816142fe565b92506020840135613a9c816142fe565b929592945050506040919091013590565b60008060408385031215613abf578182fd5b8235613aca816142fe565b9150613ad8602084016139c2565b90509250929050565b60008060408385031215613af3578182fd5b8235613afe816142fe565b946020939093013593505050565b600060208284031215613b1d578081fd5b813567ffffffffffffffff811115613b33578182fd5b613b3f84828501613900565b949350505050565b60008060408385031215613b59578182fd5b823567ffffffffffffffff811115613b6f578283fd5b613b7b85828601613900565b9250506020830135613b8c816142fe565b809150509250929050565b600060208284031215613ba8578081fd5b815180151581146139f0578182fd5b600060208284031215613bc8578081fd5b6139f0826139c2565b60008060408385031215613be3578182fd5b613bec836139c2565b91506020830135613b8c816142fe565b600060208284031215613c0d578081fd5b5035919050565b600060208284031215613c25578081fd5b5051919050565b73ffffffffffffffffffffffffffffffffffffffff91909116815260200190565b73ffffffffffffffffffffffffffffffffffffffff9384168152919092166020820152604081019190915260600190565b73ffffffffffffffffffffffffffffffffffffffff929092168252602082015260400190565b73ffffffffffffffffffffffffffffffffffffffff93841681526020810192909252909116604082015260600190565b604080825283519082018190526000906020906060840190828701845b82811015613d2357815173ffffffffffffffffffffffffffffffffffffffff1684529284019290840190600101613cf1565b50505083810382850152845180825285830191830190845b81811015613d5757835183529284019291840191600101613d3b565b5090979650505050505050565b901515815260200190565b60208082526026908201527f43616c6c6572206e6f7420617574686f72697a656420746f2073657420746f6b60408201527f656e206361700000000000000000000000000000000000000000000000000000606082015260800190565b60208082526039908201527f43616c6c696e6720636f6e7472616374206973206e6f7420616e20617574686f60408201527f72697a6564206d617267696e20747261646572206167656e7400000000000000606082015260800190565b60208082526018908201527f43616e277420626f72726f772066756c6c20616d6f756e740000000000000000604082015260600190565b60208082526026908201527f4f776e61626c653a206e6577206f776e657220697320746865207a65726f206160408201527f6464726573730000000000000000000000000000000000000000000000000000606082015260800190565b60208082526033908201527f43616c6c696e6720636f6e7472616374206973206e6f7420616e20617574686f60408201527f72697a6564206d617267696e2074726164657200000000000000000000000000606082015260800190565b60208082526026908201527f4163636f756e742062616c616e636520697320746f6f206c6f7720746f20776960408201527f7468647261770000000000000000000000000000000000000000000000000000606082015260800190565b60208082526052908201527f546f2070726576656e742061747461636b7320796f75206d757374207761697460408201527f20756e74696c20796f757220636f6f6c696e67206f666620706572696f64206960608201527f73206f76657220746f2077697468647261770000000000000000000000000000608082015260a00190565b6020808252818101527f4f776e61626c653a2063616c6c6572206973206e6f7420746865206f776e6572604082015260600190565b60208082526039908201527f457863656564696e6720676c6f62616c206578706f737572652063617020746f60408201527f20746f6b656e202d2d2074727920616761696e206c6174657200000000000000606082015260800190565b60208082526022908201527f43616e277420626f72726f773a20696e73756666696369656e742062616c616e60408201527f6365000000000000000000000000000000000000000000000000000000000000606082015260800190565b6020808252602a908201527f43616c6c696e6720636f6e7472616374206e6f7420617574686f72697a65642060408201527f746f206465706f73697400000000000000000000000000000000000000000000606082015260800190565b61ffff91909116815260200190565b61ffff92909216825273ffffffffffffffffffffffffffffffffffffffff16602082015260400190565b90815260200190565b92835273ffffffffffffffffffffffffffffffffffffffff919091166020830152604082015260600190565b918252602082015260400190565b600082198211156141d5576141d56142a0565b500190565b60008261420e577f4e487b710000000000000000000000000000000000000000000000000000000081526012600452602481fd5b500490565b6000817fffffffffffffffffffffffffffffffffffffffffffffffffffffffffffffffff048311821515161561424b5761424b6142a0565b500290565b600082821015614262576142626142a0565b500390565b60007fffffffffffffffffffffffffffffffffffffffffffffffffffffffffffffffff821415614299576142996142a0565b5060010190565b7f4e487b7100000000000000000000000000000000000000000000000000000000600052601160045260246000fd5b7f4e487b7100000000000000000000000000000000000000000000000000000000600052604160045260246000fd5b73ffffffffffffffffffffffffffffffffffffffff81168114612a7357600080fdfea2646970667358221220a5ee8f333518cff41431a9b13a087bdf6f138faa68a5da07f57bbca5b3a57c6064736f6c63430008010033",
  "linkReferences": {},
  "deployedLinkReferences": {}
}