{
  "_format": "hh-sol-artifact-1",
  "contractName": "CrossMarginTrading",
  "sourceName": "contracts/CrossMarginTrading.sol",
  "abi": [
    {
      "inputs": [
        {
          "internalType": "address",
          "name": "_roles",
          "type": "address"
        }
      ],
      "stateMutability": "nonpayable",
      "type": "constructor"
    },
    {
      "anonymous": false,
      "inputs": [
        {
          "indexed": false,
          "internalType": "uint256",
          "name": "amount",
          "type": "uint256"
        }
      ],
      "name": "LiquidationShortfall",
      "type": "event"
    },
    {
      "anonymous": false,
      "inputs": [
        {
          "indexed": true,
          "internalType": "address",
          "name": "previousOwner",
          "type": "address"
        },
        {
          "indexed": true,
          "internalType": "address",
          "name": "newOwner",
          "type": "address"
        }
      ],
      "name": "OwnershipTransferred",
      "type": "event"
    },
    {
      "inputs": [],
      "name": "ADMIN",
      "outputs": [
        {
          "internalType": "uint16",
          "name": "",
          "type": "uint16"
        }
      ],
      "stateMutability": "view",
      "type": "function"
    },
    {
      "inputs": [],
      "name": "AUTHORIZED_FUND_TRADER",
      "outputs": [
        {
          "internalType": "uint16",
          "name": "",
          "type": "uint16"
        }
      ],
      "stateMutability": "view",
      "type": "function"
    },
    {
      "inputs": [],
      "name": "BORROWER",
      "outputs": [
        {
          "internalType": "uint16",
          "name": "",
          "type": "uint16"
        }
      ],
      "stateMutability": "view",
      "type": "function"
    },
    {
      "inputs": [],
      "name": "FEE_CONTROLLER",
      "outputs": [
        {
          "internalType": "uint16",
          "name": "",
          "type": "uint16"
        }
      ],
      "stateMutability": "view",
      "type": "function"
    },
    {
      "inputs": [],
      "name": "FEE_SOURCE",
      "outputs": [
        {
          "internalType": "uint16",
          "name": "",
          "type": "uint16"
        }
      ],
      "stateMutability": "view",
      "type": "function"
    },
    {
      "inputs": [],
      "name": "FUND",
      "outputs": [
        {
          "internalType": "uint16",
          "name": "",
          "type": "uint16"
        }
      ],
      "stateMutability": "view",
      "type": "function"
    },
    {
      "inputs": [],
      "name": "INCENTIVE_DISTRIBUTION",
      "outputs": [
        {
          "internalType": "uint16",
          "name": "",
          "type": "uint16"
        }
      ],
      "stateMutability": "view",
      "type": "function"
    },
    {
      "inputs": [],
      "name": "INCENTIVE_REPORTER",
      "outputs": [
        {
          "internalType": "uint16",
          "name": "",
          "type": "uint16"
        }
      ],
      "stateMutability": "view",
      "type": "function"
    },
    {
      "inputs": [],
      "name": "LENDING",
      "outputs": [
        {
          "internalType": "uint16",
          "name": "",
          "type": "uint16"
        }
      ],
      "stateMutability": "view",
      "type": "function"
    },
    {
      "inputs": [],
      "name": "LIQUIDATOR",
      "outputs": [
        {
          "internalType": "uint16",
          "name": "",
          "type": "uint16"
        }
      ],
      "stateMutability": "view",
      "type": "function"
    },
    {
      "inputs": [],
      "name": "MARGIN_CALLER",
      "outputs": [
        {
          "internalType": "uint16",
          "name": "",
          "type": "uint16"
        }
      ],
      "stateMutability": "view",
      "type": "function"
    },
    {
      "inputs": [],
      "name": "MARGIN_TRADER",
      "outputs": [
        {
          "internalType": "uint16",
          "name": "",
          "type": "uint16"
        }
      ],
      "stateMutability": "view",
      "type": "function"
    },
    {
      "inputs": [],
      "name": "MARGIN_TRADING",
      "outputs": [
        {
          "internalType": "uint16",
          "name": "",
          "type": "uint16"
        }
      ],
      "stateMutability": "view",
      "type": "function"
    },
    {
      "inputs": [],
      "name": "PRICE_CONTROLLER",
      "outputs": [
        {
          "internalType": "uint16",
          "name": "",
          "type": "uint16"
        }
      ],
      "stateMutability": "view",
      "type": "function"
    },
    {
      "inputs": [],
      "name": "ROUTER",
      "outputs": [
        {
          "internalType": "uint16",
          "name": "",
          "type": "uint16"
        }
      ],
      "stateMutability": "view",
      "type": "function"
    },
    {
      "inputs": [],
      "name": "STAKE_PENALIZER",
      "outputs": [
        {
          "internalType": "uint16",
          "name": "",
          "type": "uint16"
        }
      ],
      "stateMutability": "view",
      "type": "function"
    },
    {
      "inputs": [],
      "name": "TOKEN_ACTIVATOR",
      "outputs": [
        {
          "internalType": "uint16",
          "name": "",
          "type": "uint16"
        }
      ],
      "stateMutability": "view",
      "type": "function"
    },
    {
      "inputs": [],
      "name": "WITHDRAWER",
      "outputs": [
        {
          "internalType": "uint16",
          "name": "",
          "type": "uint16"
        }
      ],
      "stateMutability": "view",
      "type": "function"
    },
    {
      "inputs": [
        {
          "internalType": "address[]",
          "name": "liquidationCandidates",
          "type": "address[]"
        },
        {
          "internalType": "address",
          "name": "currentCaller",
          "type": "address"
        }
      ],
      "name": "callMargin",
      "outputs": [
        {
          "internalType": "uint256",
          "name": "marginCallerCut",
          "type": "uint256"
        }
      ],
      "stateMutability": "nonpayable",
      "type": "function"
    },
    {
      "inputs": [
        {
          "internalType": "address",
          "name": "trader",
          "type": "address"
        }
      ],
      "name": "getBorrowAmounts",
      "outputs": [
        {
          "internalType": "address[]",
          "name": "borrowTokens",
          "type": "address[]"
        },
        {
          "internalType": "uint256[]",
          "name": "borrowAmounts",
          "type": "uint256[]"
        }
      ],
      "stateMutability": "view",
      "type": "function"
    },
    {
      "inputs": [
        {
          "internalType": "address",
          "name": "trader",
          "type": "address"
        }
      ],
      "name": "getHoldingAmounts",
      "outputs": [
        {
          "internalType": "address[]",
          "name": "holdingTokens",
          "type": "address[]"
        },
        {
          "internalType": "uint256[]",
          "name": "holdingAmounts",
          "type": "uint256[]"
        }
      ],
      "stateMutability": "view",
      "type": "function"
    },
    {
      "inputs": [
        {
          "internalType": "address",
          "name": "trader",
          "type": "address"
        },
        {
          "internalType": "address",
          "name": "token",
          "type": "address"
        },
        {
          "internalType": "uint256",
          "name": "amount",
          "type": "uint256"
        }
      ],
      "name": "getTradeBorrowAmount",
      "outputs": [
        {
          "internalType": "uint256",
          "name": "borrowAmount",
          "type": "uint256"
        }
      ],
      "stateMutability": "view",
      "type": "function"
    },
    {
      "inputs": [],
      "name": "leverage",
      "outputs": [
        {
          "internalType": "uint256",
          "name": "",
          "type": "uint256"
        }
      ],
      "stateMutability": "view",
      "type": "function"
    },
    {
      "inputs": [],
      "name": "liquidationThresholdPercent",
      "outputs": [
        {
          "internalType": "uint256",
          "name": "",
          "type": "uint256"
        }
      ],
      "stateMutability": "view",
      "type": "function"
    },
    {
      "inputs": [],
      "name": "owner",
      "outputs": [
        {
          "internalType": "address",
          "name": "",
          "type": "address"
        }
      ],
      "stateMutability": "view",
      "type": "function"
    },
    {
      "inputs": [
        {
          "internalType": "address",
          "name": "trader",
          "type": "address"
        },
        {
          "internalType": "address",
          "name": "borrowToken",
          "type": "address"
        },
        {
          "internalType": "uint256",
          "name": "borrowAmount",
          "type": "uint256"
        }
      ],
      "name": "registerBorrow",
      "outputs": [],
      "stateMutability": "nonpayable",
      "type": "function"
    },
    {
      "inputs": [
        {
          "internalType": "address",
          "name": "trader",
          "type": "address"
        },
        {
          "internalType": "address",
          "name": "token",
          "type": "address"
        },
        {
          "internalType": "uint256",
          "name": "depositAmount",
          "type": "uint256"
        }
      ],
      "name": "registerDeposit",
      "outputs": [
        {
          "internalType": "uint256",
          "name": "extinguishableDebt",
          "type": "uint256"
        }
      ],
      "stateMutability": "nonpayable",
      "type": "function"
    },
    {
      "inputs": [
        {
          "internalType": "address",
          "name": "trader",
          "type": "address"
        },
        {
          "internalType": "address",
          "name": "tokenFrom",
          "type": "address"
        },
        {
          "internalType": "address",
          "name": "tokenTo",
          "type": "address"
        },
        {
          "internalType": "uint256",
          "name": "inAmount",
          "type": "uint256"
        },
        {
          "internalType": "uint256",
          "name": "outAmount",
          "type": "uint256"
        }
      ],
      "name": "registerTradeAndBorrow",
      "outputs": [
        {
          "internalType": "uint256",
          "name": "extinguishableDebt",
          "type": "uint256"
        },
        {
          "internalType": "uint256",
          "name": "borrowAmount",
          "type": "uint256"
        }
      ],
      "stateMutability": "nonpayable",
      "type": "function"
    },
    {
      "inputs": [
        {
          "internalType": "address",
          "name": "trader",
          "type": "address"
        },
        {
          "internalType": "address",
          "name": "withdrawToken",
          "type": "address"
        },
        {
          "internalType": "uint256",
          "name": "withdrawAmount",
          "type": "uint256"
        }
      ],
      "name": "registerWithdrawal",
      "outputs": [],
      "stateMutability": "nonpayable",
      "type": "function"
    },
    {
      "inputs": [],
      "name": "renounceOwnership",
      "outputs": [],
      "stateMutability": "nonpayable",
      "type": "function"
    },
    {
      "inputs": [],
      "name": "roles",
      "outputs": [
        {
          "internalType": "contract Roles",
          "name": "",
          "type": "address"
        }
      ],
      "stateMutability": "view",
      "type": "function"
    },
    {
      "inputs": [
        {
          "internalType": "uint256",
          "name": "_leverage",
          "type": "uint256"
        }
      ],
      "name": "setLeverage",
      "outputs": [],
      "stateMutability": "nonpayable",
      "type": "function"
    },
    {
      "inputs": [
        {
          "internalType": "uint256",
          "name": "threshold",
          "type": "uint256"
        }
      ],
      "name": "setLiquidationThresholdPercent",
      "outputs": [],
      "stateMutability": "nonpayable",
      "type": "function"
    },
    {
      "inputs": [
        {
          "internalType": "address",
          "name": "token",
          "type": "address"
        },
        {
          "internalType": "uint256",
          "name": "cap",
          "type": "uint256"
        }
      ],
      "name": "setTokenCap",
      "outputs": [],
      "stateMutability": "nonpayable",
      "type": "function"
    },
    {
      "inputs": [
        {
          "internalType": "address",
          "name": "",
          "type": "address"
        }
      ],
      "name": "tokenCaps",
      "outputs": [
        {
          "internalType": "uint256",
          "name": "",
          "type": "uint256"
        }
      ],
      "stateMutability": "view",
      "type": "function"
    },
    {
      "inputs": [
        {
          "internalType": "address",
          "name": "",
          "type": "address"
        }
      ],
      "name": "totalLong",
      "outputs": [
        {
          "internalType": "uint256",
          "name": "",
          "type": "uint256"
        }
      ],
      "stateMutability": "view",
      "type": "function"
    },
    {
      "inputs": [
        {
          "internalType": "address",
          "name": "",
          "type": "address"
        }
      ],
      "name": "totalShort",
      "outputs": [
        {
          "internalType": "uint256",
          "name": "",
          "type": "uint256"
        }
      ],
      "stateMutability": "view",
      "type": "function"
    },
    {
      "inputs": [
        {
          "internalType": "address",
          "name": "newOwner",
          "type": "address"
        }
      ],
      "name": "transferOwnership",
      "outputs": [],
      "stateMutability": "nonpayable",
      "type": "function"
    }
  ],
  "bytecode": "0x60806040526050600d553480156200001657600080fd5b5060405162003cb138038062003cb18339810160408190526200003991620000bc565b600080546001600160a01b0319166001600160a01b0383161781556200005e620000b8565b600180546001600160a01b0319166001600160a01b038316908117909155604051919250906000907f8be0079c531659141344cd1fd0a4f28419497f9722a3daafe3b4186f6b6457e0908290a350506014600355620000ec565b3390565b600060208284031215620000ce578081fd5b81516001600160a01b0381168114620000e5578182fd5b9392505050565b613bb580620000fc6000396000f3fe608060405234801561001057600080fd5b50600436106102925760003560e01c80635c275a3911610160578063a94c7c34116100d8578063d0eb66531161008c578063d5d7ed7f11610071578063d5d7ed7f1461048c578063e0f3871f14610494578063f2fde38b146104a757610292565b8063d0eb665314610466578063d510c5351461047957610292565b8063bc44dcbc116100bd578063bc44dcbc14610443578063c76139d014610456578063cacf8d451461045e57610292565b8063a94c7c3414610433578063a9cc05361461043b57610292565b806379575b231161012f57806383a49c7c1161011457806383a49c7c1461041b5780638da5cb5b14610423578063a0098d691461042b57610292565b806379575b231461040057806381ca66001461041357610292565b80635c275a39146103d55780636612ce35146103dd57806366941984146103f0578063715018a6146103f857610292565b8063320d2fa01161020e578063409fdb72116101c257806348fb27b8116101a757806348fb27b8146103a7578063498d55eb146103af57806352a664d9146103c257610292565b8063409fdb721461037e57806346b887961461039f57610292565b80633500aa0b116101f35780633500aa0b14610335578063387ccdc614610356578063392f5f641461036957610292565b8063320d2fa01461032557806332fe7b261461032d57610292565b80631d47e4a3116102655780632a0acc6a1161024a5780632a0acc6a1461030d5780632c86d98e146103155780632fe94def1461031d57610292565b80631d47e4a3146102da57806320c27126146102ed57610292565b8063065d570f1461029757806316317e7e146102b55780631b669507146102ca5780631bc5d81d146102d2575b600080fd5b61029f6104ba565b6040516102ac91906139a5565b60405180910390f35b6102c86102c3366004613519565b6104bf565b005b61029f610540565b61029f610545565b6102c86102e83660046133d8565b61054a565b6103006102fb3660046132ff565b6105b2565b6040516102ac91906139de565b61029f6105c4565b6103006105c9565b61029f6105cf565b6103006105d4565b61029f6105da565b61034861034336600461333e565b6105df565b6040516102ac929190613a13565b610300610364366004613403565b6108f3565b610371610d0c565b6040516102ac9190613549565b61039161038c3660046132ff565b610d28565b6040516102ac9291906135c1565b61029f610f1e565b61029f610f23565b6102c86103bd366004613398565b610f28565b6103006103d0366004613398565b6110b7565b61029f61127c565b6103006103eb366004613398565b611281565b61029f611345565b6102c861134a565b6102c861040e366004613519565b61142c565b61029f6114a4565b61029f6114a9565b6103716114ae565b61029f6114ca565b61029f6114cf565b61029f6114d4565b6103006104513660046132ff565b6114d9565b61029f6114eb565b61029f6114f0565b6102c8610474366004613398565b6114f5565b6103916104873660046132ff565b611618565b61029f611890565b6103006104a23660046132ff565b611895565b6102c86104b53660046132ff565b6118a7565b600381565b6104c76119f5565b73ffffffffffffffffffffffffffffffffffffffff166104e56114ae565b73ffffffffffffffffffffffffffffffffffffffff161461053b576040517f08c379a000000000000000000000000000000000000000000000000000000000815260040161053290613859565b60405180910390fd5b600355565b600a81565b600881565b610553336119f9565b610589576040517f08c379a000000000000000000000000000000000000000000000000000000000815260040161053290613651565b73ffffffffffffffffffffffffffffffffffffffff909116600090815260056020526040902055565b60076020526000908152604090205481565b606b81565b60025481565b606981565b60035481565b606781565b6000806105eb33611aab565b610621576040517f08c379a0000000000000000000000000000000000000000000000000000000008152600401610532906136ae565b73ffffffffffffffffffffffffffffffffffffffff8088166000908152600460209081526040808320938916835260018401909152902054156106d95773ffffffffffffffffffffffffffffffffffffffff86166000908152600182016020526040902054610691908590611b04565b925061069e818785611b1e565b73ffffffffffffffffffffffffffffffffffffffff8616600090815260066020526040812080548592906106d3908490613aaf565b90915550505b73ffffffffffffffffffffffffffffffffffffffff87166000908152600760205260408120805487929061070e908490613aaf565b9091555061071e90508385613aaf565b73ffffffffffffffffffffffffffffffffffffffff871660009081526007602052604081208054909190610753908490613a21565b909155505073ffffffffffffffffffffffffffffffffffffffff861660009081526007602090815260408083205460059092529091205410156107c2576040517f08c379a00000000000000000000000000000000000000000000000000000000081526004016105329061388e565b73ffffffffffffffffffffffffffffffffffffffff8716600090815260048201602052604090205485908111156108da575073ffffffffffffffffffffffffffffffffffffffff871660009081526004820160205260409020546108268187613aaf565b73ffffffffffffffffffffffffffffffffffffffff8916600090815260066020526040812080549295508592909190610860908490613a21565b909155505073ffffffffffffffffffffffffffffffffffffffff881660009081526006602090815260408083205460059092529091205410156108cf576040517f08c379a00000000000000000000000000000000000000000000000000000000081526004016105329061388e565b6108da828985611c95565b6108e78289898489611f38565b50509550959350505050565b6000806108fe611fa5565b73ffffffffffffffffffffffffffffffffffffffff16637b23cbce336040518263ffffffff1660e01b81526004016109369190613549565b602060405180830381600087803b15801561095057600080fd5b505af1158015610964573d6000803e3d6000fd5b505050506040513d601f19601f8201168201806040525081019061098891906134f9565b905060006109968583612052565b90506109a28184613a21565b925060006109ae6127a3565b905060006109ba612900565b905081811115610a05577f3555ffae7677eb42103f0b9e11b61c758f452fae446684dec7a363dd38ab58fc6109ef8383613aaf565b6040516109fc91906139de565b60405180910390a15b60005b600b54811015610d01576000600b8281548110610a4e577f4e487b7100000000000000000000000000000000000000000000000000000000600052603260045260246000fd5b600091825260208083209091015473ffffffffffffffffffffffffffffffffffffffff1680835260049091526040822090925090610a8b82612a56565b90506000610a9883612a68565b9050600060028054606460035485610ab09190613a72565b610aba9190613a39565b610ac49190613a39565b610ace9190613a39565b90508915610ae757610ae0818c613a21565b9a50610b4a565b73ffffffffffffffffffffffffffffffffffffffff8581166000908152600c60205260409020600181018390556002810180547fffffffffffffffffffffffff000000000000000000000000000000000000000016928f16929092179091554390555b610b548282613a21565b8310610c8e57610b62612a7b565b73ffffffffffffffffffffffffffffffffffffffff1663d9caed12610b85612ad3565b73ffffffffffffffffffffffffffffffffffffffff16631f1cb62b6040518163ffffffff1660e01b815260040160206040518083038186803b158015610bca57600080fd5b505afa158015610bde573d6000803e3d6000fd5b505050506040513d601f19601f82011682018060405250810190610c029190613322565b8784610c0e8789613aaf565b610c189190613aaf565b6040518463ffffffff1660e01b8152600401610c369392919061356a565b602060405180830381600087803b158015610c5057600080fd5b505af1158015610c64573d6000803e3d6000fd5b505050506040513d601f19601f82011682018060405250810190610c8891906134f9565b50610ce0565b600083610c9b8385613a21565b610ca59190613aaf565b90507f3555ffae7677eb42103f0b9e11b61c758f452fae446684dec7a363dd38ab58fc81604051610cd691906139de565b60405180910390a1505b610ce984612b2b565b50505050508080610cf990613ac6565b915050610a08565b505050505092915050565b60005473ffffffffffffffffffffffffffffffffffffffff1681565b73ffffffffffffffffffffffffffffffffffffffff8116600090815260046020908152604091829020600381018054845181850281018501909552808552606094859490929190830182828015610db557602002820191906000526020600020905b815473ffffffffffffffffffffffffffffffffffffffff168152600190910190602001808311610d8a575b5050506003840154929550505067ffffffffffffffff811115610e01577f4e487b7100000000000000000000000000000000000000000000000000000000600052604160045260246000fd5b604051908082528060200260200182016040528015610e2a578160200160208202803683370190505b50915060005b8084511115610f17576000848281518110610e74577f4e487b7100000000000000000000000000000000000000000000000000000000600052603260045260246000fd5b602002602001015190508260040160008273ffffffffffffffffffffffffffffffffffffffff1673ffffffffffffffffffffffffffffffffffffffff16815260200190815260200160002054848381518110610ef9577f4e487b7100000000000000000000000000000000000000000000000000000000600052603260045260246000fd5b60209081029190910101525080610f0f81613ac6565b915050610e30565b5050915091565b600681565b606681565b610f3133611aab565b610f67576040517f08c379a000000000000000000000000000000000000000000000000000000000815260040161053290613948565b73ffffffffffffffffffffffffffffffffffffffff821660009081526006602052604081208054839290610f9c908490613a21565b909155505073ffffffffffffffffffffffffffffffffffffffff821660009081526007602052604081208054839290610fd6908490613a21565b909155505073ffffffffffffffffffffffffffffffffffffffff82166000908152600660209081526040808320546005909252909120541080159061104b575073ffffffffffffffffffffffffffffffffffffffff821660009081526007602090815260408083205460059092529091205410155b611081576040517f08c379a00000000000000000000000000000000000000000000000000000000081526004016105329061388e565b73ffffffffffffffffffffffffffffffffffffffff831660009081526004602052604090206110b1818484611c95565b50505050565b60006110c233611aab565b6110f8576040517f08c379a000000000000000000000000000000000000000000000000000000000815260040161053290613948565b73ffffffffffffffffffffffffffffffffffffffff83166000908152600760205260408120805484929061112d908490613a21565b909155505073ffffffffffffffffffffffffffffffffffffffff8316600090815260076020908152604080832054600590925290912054101561119c576040517f08c379a00000000000000000000000000000000000000000000000000000000081526004016105329061388e565b73ffffffffffffffffffffffffffffffffffffffff841660009081526004602052604090206111cc818585612ca7565b73ffffffffffffffffffffffffffffffffffffffff84166000908152600182016020526040902054156112745773ffffffffffffffffffffffffffffffffffffffff8416600090815260018201602052604090205461122c908490611b04565b9150611239818584611b1e565b73ffffffffffffffffffffffffffffffffffffffff84166000908152600660205260408120805484929061126e908490613aaf565b90915550505b509392505050565b606581565b600061128c33611aab565b6112c2576040517f08c379a00000000000000000000000000000000000000000000000000000000081526004016105329061379f565b73ffffffffffffffffffffffffffffffffffffffff8085166000908152600460208181526040808420948816845291840190529020546113029084613aaf565b915061130f818584612d4c565b611274576040517f08c379a00000000000000000000000000000000000000000000000000000000081526004016105329061370b565b600181565b6113526119f5565b73ffffffffffffffffffffffffffffffffffffffff166113706114ae565b73ffffffffffffffffffffffffffffffffffffffff16146113bd576040517f08c379a000000000000000000000000000000000000000000000000000000000815260040161053290613859565b60015460405160009173ffffffffffffffffffffffffffffffffffffffff16907f8be0079c531659141344cd1fd0a4f28419497f9722a3daafe3b4186f6b6457e0908390a3600180547fffffffffffffffffffffffff0000000000000000000000000000000000000000169055565b6114346119f5565b73ffffffffffffffffffffffffffffffffffffffff166114526114ae565b73ffffffffffffffffffffffffffffffffffffffff161461149f576040517f08c379a000000000000000000000000000000000000000000000000000000000815260040161053290613859565b600255565b606a81565b600981565b60015473ffffffffffffffffffffffffffffffffffffffff1690565b600281565b600581565b606881565b60066020526000908152604090205481565b606c81565b600481565b6114fe33611aab565b611534576040517f08c379a000000000000000000000000000000000000000000000000000000000815260040161053290613948565b73ffffffffffffffffffffffffffffffffffffffff80841660009081526004602090815260408083209386168352600790915281208054849290611579908490613aaf565b909155505073ffffffffffffffffffffffffffffffffffffffff831660009081526004820160205260409020546115b1908390613aaf565b73ffffffffffffffffffffffffffffffffffffffff841660009081526004830160205260409020556115e281612d7e565b6110b1576040517f08c379a0000000000000000000000000000000000000000000000000000000008152600401610532906137fc565b73ffffffffffffffffffffffffffffffffffffffff811660009081526004602090815260409182902080548351818402810184019094528084526060938493909183918301828280156116a157602002820191906000526020600020905b815473ffffffffffffffffffffffffffffffffffffffff168152600190910190602001808311611676575b50508454939650505067ffffffffffffffff82111590506116eb577f4e487b7100000000000000000000000000000000000000000000000000000000600052604160045260246000fd5b604051908082528060200260200182016040528015611714578160200160208202803683370190505b50915060005b8084511115610f1757600084828151811061175e577f4e487b7100000000000000000000000000000000000000000000000000000000600052603260045260246000fd5b60200260200101519050611770612dc9565b73ffffffffffffffffffffffffffffffffffffffff828116600090815260018601602090815260408083205460028901909252918290205491517f687680ed000000000000000000000000000000000000000000000000000000008152939092169263687680ed926117e99290918691906004016139e7565b60206040518083038186803b15801561180157600080fd5b505afa158015611815573d6000803e3d6000fd5b505050506040513d601f19601f820116820180604052508101906118399190613531565b848381518110611872577f4e487b7100000000000000000000000000000000000000000000000000000000600052603260045260246000fd5b6020908102919091010152508061188881613ac6565b91505061171a565b600781565b60056020526000908152604090205481565b6118af6119f5565b73ffffffffffffffffffffffffffffffffffffffff166118cd6114ae565b73ffffffffffffffffffffffffffffffffffffffff161461191a576040517f08c379a000000000000000000000000000000000000000000000000000000000815260040161053290613859565b73ffffffffffffffffffffffffffffffffffffffff8116611967576040517f08c379a000000000000000000000000000000000000000000000000000000000815260040161053290613742565b60015460405173ffffffffffffffffffffffffffffffffffffffff8084169216907f8be0079c531659141344cd1fd0a4f28419497f9722a3daafe3b4186f6b6457e090600090a3600180547fffffffffffffffffffffffff00000000000000000000000000000000000000001673ffffffffffffffffffffffffffffffffffffffff92909216919091179055565b3390565b600080546040517fd87fefd200000000000000000000000000000000000000000000000000000000815273ffffffffffffffffffffffffffffffffffffffff9091169063d87fefd290611a539060099086906004016139b4565b60206040518083038186803b158015611a6b57600080fd5b505afa158015611a7f573d6000803e3d6000fd5b505050506040513d601f19601f82011682018060405250810190611aa391906134f9565b90505b919050565b600080546040517fd87fefd200000000000000000000000000000000000000000000000000000000815273ffffffffffffffffffffffffffffffffffffffff9091169063d87fefd290611a5390600490869082016139b4565b600081831115611b15575080611b18565b50815b92915050565b611b26612dc9565b73ffffffffffffffffffffffffffffffffffffffff838116600090815260018601602090815260408083205460028901909252918290205491517fe695fa68000000000000000000000000000000000000000000000000000000008152939092169263e695fa6892611b9f9290918791906004016139e7565b602060405180830381600087803b158015611bb957600080fd5b505af1158015611bcd573d6000803e3d6000fd5b505050506040513d601f19601f82011682018060405250810190611bf19190613531565b73ffffffffffffffffffffffffffffffffffffffff831660009081526001850160205260409020819055611c26908290613aaf565b73ffffffffffffffffffffffffffffffffffffffff831660009081526001850160209081526040808320939093556004860190522054611c67908290613aaf565b73ffffffffffffffffffffffffffffffffffffffff9092166000908152600490930160205250604090912055565b611c9f8383612e21565b611db05782546001810184556000848152602090200180547fffffffffffffffffffffffff00000000000000000000000000000000000000001673ffffffffffffffffffffffffffffffffffffffff8416179055611cfb612dc9565b73ffffffffffffffffffffffffffffffffffffffff1663e7bde5c1836040518263ffffffff1660e01b8152600401611d339190613549565b60206040518083038186803b158015611d4b57600080fd5b505afa158015611d5f573d6000803e3d6000fd5b505050506040513d601f19601f82011682018060405250810190611d839190613531565b73ffffffffffffffffffffffffffffffffffffffff83166000908152600285016020526040902055611eac565b611db8612dc9565b73ffffffffffffffffffffffffffffffffffffffff838116600090815260018601602090815260408083205460028901909252918290205491517fe695fa68000000000000000000000000000000000000000000000000000000008152939092169263e695fa6892611e319290918791906004016139e7565b602060405180830381600087803b158015611e4b57600080fd5b505af1158015611e5f573d6000803e3d6000fd5b505050506040513d601f19601f82011682018060405250810190611e839190613531565b73ffffffffffffffffffffffffffffffffffffffff831660009081526001850160205260409020555b73ffffffffffffffffffffffffffffffffffffffff8216600090815260018401602052604081208054839290611ee3908490613a21565b90915550611ef49050838383612ca7565b611efd83612d7e565b611f33576040517f08c379a0000000000000000000000000000000000000000000000000000000008152600401610532906138eb565b505050565b73ffffffffffffffffffffffffffffffffffffffff84166000908152600486016020526040902054611f6b908390613aaf565b73ffffffffffffffffffffffffffffffffffffffff85166000908152600487016020526040902055611f9e858483612ca7565b5050505050565b600080546040517f3c9c8f9c00000000000000000000000000000000000000000000000000000000815273ffffffffffffffffffffffffffffffffffffffff90911690633c9c8f9c90611ffd90606b906004016139a5565b60206040518083038186803b15801561201557600080fd5b505afa158015612029573d6000803e3d6000fd5b505050506040513d601f19601f8201168201806040525081019061204d9190613322565b905090565b604080516000808252602082019283905290519091612074916009919061323f565b50604080516000815260208101918290525161209291600a9161323f565b5060408051600081526020810191829052516120b091600b9161323f565b5060005b808451111561279c5760008482815181106120f8577f4e487b7100000000000000000000000000000000000000000000000000000000600052603260045260246000fd5b602002602001015190506000600460008373ffffffffffffffffffffffffffffffffffffffff1673ffffffffffffffffffffffffffffffffffffffff168152602001908152602001600020905061214e81612e4f565b1561255d57600b805460018101825560009182527f0175b7a638427703f0dbe7bb9bbf987a2551717b34e79f33b5b1008d1fa01db90180547fffffffffffffffffffffffff00000000000000000000000000000000000000001673ffffffffffffffffffffffffffffffffffffffff85161790555b600382015481101561233b57600082600301828154811061220d577f4e487b7100000000000000000000000000000000000000000000000000000000600052603260045260246000fd5b600091825260208083209091015473ffffffffffffffffffffffffffffffffffffffff168083526008909152604090912060028101549192509043146122e35773ffffffffffffffffffffffffffffffffffffffff821660008181526004860160205260408120546001808501919091558184554360028501556009805491820181559091527f6e1540171b6c0c960b71a7020d9f60077f6af931a8bbf590da0223dacf75c7af0180547fffffffffffffffffffffffff0000000000000000000000000000000000000000169091179055612326565b73ffffffffffffffffffffffffffffffffffffffff8216600090815260048501602052604081205460018301805491929091612320908490613a21565b90915550505b5050808061233390613ac6565b9150506121c3565b5060005b815481101561255b576000826000018281548110612386577f4e487b7100000000000000000000000000000000000000000000000000000000600052603260045260246000fd5b600091825260208083209091015473ffffffffffffffffffffffffffffffffffffffff16808352600890915260408220909250906123c2612dc9565b73ffffffffffffffffffffffffffffffffffffffff1663e7bde5c1846040518263ffffffff1660e01b81526004016123fa9190613549565b60206040518083038186803b15801561241257600080fd5b505afa158015612426573d6000803e3d6000fd5b505050506040513d601f19601f8201168201806040525081019061244a9190613531565b73ffffffffffffffffffffffffffffffffffffffff8416600090815260028701602090815260408083205460018a01909252822054929350909161248f908490613a72565b6124999190613a39565b90504383600201541461252a5760006001848101829055828555436002860155600a805491820181559091527fc65a7bb8d6351c1cf70c95a316cc6a92839c986682d98bc35f958f4883f9d2a80180547fffffffffffffffffffffffff00000000000000000000000000000000000000001673ffffffffffffffffffffffffffffffffffffffff8616179055612544565b8083600001600082825461253e9190613a21565b90915550505b50505050808061255390613ac6565b91505061233f565b505b73ffffffffffffffffffffffffffffffffffffffff82166000908152600c602052604090206001810154158015906125925750855b156127865780546000906125bd906125ab436001613a21565b6125b59190613aaf565b600d54611b04565b90506000600d548360010154836125d49190613a72565b6125de9190613a39565b90506125e8612a7b565b73ffffffffffffffffffffffffffffffffffffffff1663d9caed1261260b612ad3565b73ffffffffffffffffffffffffffffffffffffffff16631f1cb62b6040518163ffffffff1660e01b815260040160206040518083038186803b15801561265057600080fd5b505afa158015612664573d6000803e3d6000fd5b505050506040513d601f19601f820116820180604052508101906126889190613322565b60028601546040517fffffffff0000000000000000000000000000000000000000000000000000000060e085901b1681526126df929173ffffffffffffffffffffffffffffffffffffffff1690869060040161356a565b602060405180830381600087803b1580156126f957600080fd5b505af115801561270d573d6000803e3d6000fd5b505050506040513d601f19601f8201168201806040525081019061273191906134f9565b508083600101546127429190613aaf565b61274c9088613a21565b6000600185018190556002850180547fffffffffffffffffffffffff00000000000000000000000000000000000000001690558455965050505b505050808061279490613ac6565b9150506120b4565b5092915050565b6000805b6009548110156128fc576000600982815481106127ed577f4e487b7100000000000000000000000000000000000000000000000000000000600052603260045260246000fd5b600091825260208083209091015473ffffffffffffffffffffffffffffffffffffffff168083526008909152604090912080546001820154929350909111156128e7578054600182015460009161284391613aaf565b905061284d612ad3565b73ffffffffffffffffffffffffffffffffffffffff166305883f7c84836040518363ffffffff1660e01b815260040161288792919061359b565b602060405180830381600087803b1580156128a157600080fd5b505af11580156128b5573d6000803e3d6000fd5b505050506040513d601f19601f820116820180604052508101906128d99190613531565b6128e39086613a21565b9450505b505080806128f490613ac6565b9150506127a7565b5090565b6000805b600a548110156128fc576000600a828154811061294a577f4e487b7100000000000000000000000000000000000000000000000000000000600052603260045260246000fd5b600091825260208083209091015473ffffffffffffffffffffffffffffffffffffffff16808352600890915260409091206001810154815492935090911115612a4157612995612ad3565b73ffffffffffffffffffffffffffffffffffffffff166305883f7c83836001015484600001546129c59190613aaf565b6040518363ffffffff1660e01b81526004016129e292919061359b565b602060405180830381600087803b1580156129fc57600080fd5b505af1158015612a10573d6000803e3d6000fd5b505050506040513d601f19601f82011682018060405250810190612a349190613531565b612a3e9085613a21565b93505b50508080612a4e90613ac6565b915050612904565b6000611aa38260030183600401612ea9565b6000611aa3826001810160028201612ff7565b600080546040517f3c9c8f9c00000000000000000000000000000000000000000000000000000000815273ffffffffffffffffffffffffffffffffffffffff90911690633c9c8f9c90611ffd906065906004016139a5565b600080546040517f3c9c8f9c00000000000000000000000000000000000000000000000000000000815273ffffffffffffffffffffffffffffffffffffffff90911690633c9c8f9c90611ffd90606a906004016139a5565b60005b8154811015612bc6576000826000018281548110612b75577f4e487b7100000000000000000000000000000000000000000000000000000000600052603260045260246000fd5b600091825260208083209091015473ffffffffffffffffffffffffffffffffffffffff1682526001850181526040808320839055600286019091528120555080612bbe81613ac6565b915050612b2e565b5060005b6003820154811015612c8a576000826003018281548110612c14577f4e487b7100000000000000000000000000000000000000000000000000000000600052603260045260246000fd5b600091825260208083209091015473ffffffffffffffffffffffffffffffffffffffff168252600485018152604080832083905560058601909152902080547fffffffffffffffffffffffffffffffffffffffffffffffffffffffffffffff001690555080612c8281613ac6565b915050612bca565b50612c968160006132c5565b612ca46003820160006132c5565b50565b612cb1838361309f565b612d0b57600383018054600181018255600091825260209091200180547fffffffffffffffffffffffff00000000000000000000000000000000000000001673ffffffffffffffffffffffffffffffffffffffff84161790555b73ffffffffffffffffffffffffffffffffffffffff8216600090815260048401602052604081208054839290612d42908490613a21565b9091555050505050565b73ffffffffffffffffffffffffffffffffffffffff821660009081526004840160205260409020548111159392505050565b600080612d8a83612a68565b90506000612d9784612a56565b905060025482612da79190613a72565b600254612db5906001613a21565b612dbf9083613a72565b1015949350505050565b600080546040517f3c9c8f9c00000000000000000000000000000000000000000000000000000000815273ffffffffffffffffffffffffffffffffffffffff90911690633c9c8f9c90611ffd906066906004016139a5565b73ffffffffffffffffffffffffffffffffffffffff1660009081526002919091016020526040902054151590565b600080612e5b83612a68565b90506000612e6884612a56565b9050816003546002546064612e7d9190613a72565b612e879190613a21565b612e919190613a72565b600254612e9e9083613a72565b612dbf906064613a72565b6000805b835481101561279c576000848281548110612ef1577f4e487b7100000000000000000000000000000000000000000000000000000000600052603260045260246000fd5b60009182526020909120015473ffffffffffffffffffffffffffffffffffffffff169050612f1d612ad3565b73ffffffffffffffffffffffffffffffffffffffff828116600090815260208790526040908190205490517fe47109a9000000000000000000000000000000000000000000000000000000008152929091169163e47109a991612f859185919060040161359b565b602060405180830381600087803b158015612f9f57600080fd5b505af1158015612fb3573d6000803e3d6000fd5b505050506040513d601f19601f82011682018060405250810190612fd79190613531565b612fe19084613a21565b9250508080612fef90613ac6565b915050612ead565b6000805b845481101561127457600085828154811061303f577f4e487b7100000000000000000000000000000000000000000000000000000000600052603260045260246000fd5b600091825260208083209091015473ffffffffffffffffffffffffffffffffffffffff168083529087905260409091205490915061307f908290866130ce565b6130899084613a21565b925050808061309790613ac6565b915050612ffb565b73ffffffffffffffffffffffffffffffffffffffff166000908152600591909101602052604090205460ff1690565b6000806130d9612dc9565b73ffffffffffffffffffffffffffffffffffffffff1663e7bde5c1866040518263ffffffff1660e01b81526004016131119190613549565b60206040518083038186803b15801561312957600080fd5b505afa15801561313d573d6000803e3d6000fd5b505050506040513d601f19601f820116820180604052508101906131619190613531565b73ffffffffffffffffffffffffffffffffffffffff8616600090815260208590526040812054919250906131958387613a72565b61319f9190613a39565b90506131a9612ad3565b73ffffffffffffffffffffffffffffffffffffffff1663e47109a987836040518363ffffffff1660e01b81526004016131e392919061359b565b602060405180830381600087803b1580156131fd57600080fd5b505af1158015613211573d6000803e3d6000fd5b505050506040513d601f19601f820116820180604052508101906132359190613531565b9695505050505050565b8280548282559060005260206000209081019282156132b9579160200282015b828111156132b957825182547fffffffffffffffffffffffff00000000000000000000000000000000000000001673ffffffffffffffffffffffffffffffffffffffff90911617825560209092019160019091019061325f565b506128fc9291506132df565b5080546000825590600052602060002090810190612ca491905b5b808211156128fc57600081556001016132e0565b8035611aa681613b5d565b600060208284031215613310578081fd5b813561331b81613b5d565b9392505050565b600060208284031215613333578081fd5b815161331b81613b5d565b600080600080600060a08688031215613355578081fd5b853561336081613b5d565b9450602086013561337081613b5d565b9350604086013561338081613b5d565b94979396509394606081013594506080013592915050565b6000806000606084860312156133ac578283fd5b83356133b781613b5d565b925060208401356133c781613b5d565b929592945050506040919091013590565b600080604083850312156133ea578182fd5b82356133f581613b5d565b946020939093013593505050565b60008060408385031215613415578182fd5b823567ffffffffffffffff8082111561342c578384fd5b818501915085601f83011261343f578384fd5b813560208282111561345357613453613b2e565b8082026040517fffffffffffffffffffffffffffffffffffffffffffffffffffffffffffffffe0603f8301168101818110868211171561349557613495613b2e565b604052838152828101945085830182870184018b10156134b3578889fd5b8896505b848710156134dc576134c8816132f4565b8652600196909601959483019483016134b7565b5096506134ec90508782016132f4565b9450505050509250929050565b60006020828403121561350a578081fd5b8151801515811461331b578182fd5b60006020828403121561352a578081fd5b5035919050565b600060208284031215613542578081fd5b5051919050565b73ffffffffffffffffffffffffffffffffffffffff91909116815260200190565b73ffffffffffffffffffffffffffffffffffffffff9384168152919092166020820152604081019190915260600190565b73ffffffffffffffffffffffffffffffffffffffff929092168252602082015260400190565b604080825283519082018190526000906020906060840190828701845b8281101561361057815173ffffffffffffffffffffffffffffffffffffffff16845292840192908401906001016135de565b50505083810382850152845180825285830191830190845b8181101561364457835183529284019291840191600101613628565b5090979650505050505050565b60208082526026908201527f43616c6c6572206e6f7420617574686f72697a656420746f2073657420746f6b60408201527f656e206361700000000000000000000000000000000000000000000000000000606082015260800190565b60208082526039908201527f43616c6c696e6720636f6e7472616374206973206e6f7420616e20617574686f60408201527f72697a6564206d617267696e20747261646572206167656e7400000000000000606082015260800190565b60208082526018908201527f43616e277420626f72726f772066756c6c20616d6f756e740000000000000000604082015260600190565b60208082526026908201527f4f776e61626c653a206e6577206f776e657220697320746865207a65726f206160408201527f6464726573730000000000000000000000000000000000000000000000000000606082015260800190565b60208082526033908201527f43616c6c696e6720636f6e7472616374206973206e6f7420616e20617574686f60408201527f72697a6564206d617267696e2074726164657200000000000000000000000000606082015260800190565b60208082526026908201527f4163636f756e742062616c616e636520697320746f6f206c6f7720746f20776960408201527f7468647261770000000000000000000000000000000000000000000000000000606082015260800190565b6020808252818101527f4f776e61626c653a2063616c6c6572206973206e6f7420746865206f776e6572604082015260600190565b60208082526039908201527f457863656564696e6720676c6f62616c206578706f737572652063617020746f60408201527f20746f6b656e202d2d2074727920616761696e206c6174657200000000000000606082015260800190565b60208082526022908201527f43616e277420626f72726f773a20696e73756666696369656e742062616c616e60408201527f6365000000000000000000000000000000000000000000000000000000000000606082015260800190565b6020808252602a908201527f43616c6c696e6720636f6e7472616374206e6f7420617574686f72697a65642060408201527f746f206465706f73697400000000000000000000000000000000000000000000606082015260800190565b61ffff91909116815260200190565b61ffff92909216825273ffffffffffffffffffffffffffffffffffffffff16602082015260400190565b90815260200190565b92835273ffffffffffffffffffffffffffffffffffffffff919091166020830152604082015260600190565b918252602082015260400190565b60008219821115613a3457613a34613aff565b500190565b600082613a6d577f4e487b710000000000000000000000000000000000000000000000000000000081526012600452602481fd5b500490565b6000817fffffffffffffffffffffffffffffffffffffffffffffffffffffffffffffffff0483118215151615613aaa57613aaa613aff565b500290565b600082821015613ac157613ac1613aff565b500390565b60007fffffffffffffffffffffffffffffffffffffffffffffffffffffffffffffffff821415613af857613af8613aff565b5060010190565b7f4e487b7100000000000000000000000000000000000000000000000000000000600052601160045260246000fd5b7f4e487b7100000000000000000000000000000000000000000000000000000000600052604160045260246000fd5b73ffffffffffffffffffffffffffffffffffffffff81168114612ca457600080fdfea26469706673582212203247ea736142692a32447d9ab1cc67946f85d56eef9adcbe7f7b277fe6a6903264736f6c63430008010033",
  "linkReferences": {},
  "deployedLinkReferences": {}
}