{
  "_format": "hh-sol-artifact-1",
  "contractName": "CrossMarginTrading",
  "sourceName": "contracts/CrossMarginTrading.sol",
  "abi": [
    {
      "inputs": [
        {
          "internalType": "address",
          "name": "_roles",
          "type": "address"
        }
      ],
      "stateMutability": "nonpayable",
      "type": "constructor"
    },
    {
      "anonymous": false,
      "inputs": [
        {
          "indexed": false,
          "internalType": "uint256",
          "name": "amount",
          "type": "uint256"
        }
      ],
      "name": "LiquidationShortfall",
      "type": "event"
    },
    {
      "anonymous": false,
      "inputs": [
        {
          "indexed": true,
          "internalType": "address",
          "name": "previousOwner",
          "type": "address"
        },
        {
          "indexed": true,
          "internalType": "address",
          "name": "newOwner",
          "type": "address"
        }
      ],
      "name": "OwnershipTransferred",
      "type": "event"
    },
    {
      "inputs": [],
      "name": "ADMIN",
      "outputs": [
        {
          "internalType": "uint16",
          "name": "",
          "type": "uint16"
        }
      ],
      "stateMutability": "view",
      "type": "function"
    },
    {
      "inputs": [],
      "name": "AUTHORIZED_FUND_TRADER",
      "outputs": [
        {
          "internalType": "uint16",
          "name": "",
          "type": "uint16"
        }
      ],
      "stateMutability": "view",
      "type": "function"
    },
    {
      "inputs": [],
      "name": "BORROWER",
      "outputs": [
        {
          "internalType": "uint16",
          "name": "",
          "type": "uint16"
        }
      ],
      "stateMutability": "view",
      "type": "function"
    },
    {
      "inputs": [],
      "name": "FEE_CONTROLLER",
      "outputs": [
        {
          "internalType": "uint16",
          "name": "",
          "type": "uint16"
        }
      ],
      "stateMutability": "view",
      "type": "function"
    },
    {
      "inputs": [],
      "name": "FEE_SOURCE",
      "outputs": [
        {
          "internalType": "uint16",
          "name": "",
          "type": "uint16"
        }
      ],
      "stateMutability": "view",
      "type": "function"
    },
    {
      "inputs": [],
      "name": "FUND",
      "outputs": [
        {
          "internalType": "uint16",
          "name": "",
          "type": "uint16"
        }
      ],
      "stateMutability": "view",
      "type": "function"
    },
    {
      "inputs": [],
      "name": "INCENTIVE_DISTRIBUTION",
      "outputs": [
        {
          "internalType": "uint16",
          "name": "",
          "type": "uint16"
        }
      ],
      "stateMutability": "view",
      "type": "function"
    },
    {
      "inputs": [],
      "name": "INCENTIVE_REPORTER",
      "outputs": [
        {
          "internalType": "uint16",
          "name": "",
          "type": "uint16"
        }
      ],
      "stateMutability": "view",
      "type": "function"
    },
    {
      "inputs": [],
      "name": "LENDING",
      "outputs": [
        {
          "internalType": "uint16",
          "name": "",
          "type": "uint16"
        }
      ],
      "stateMutability": "view",
      "type": "function"
    },
    {
      "inputs": [],
      "name": "LIQUIDATOR",
      "outputs": [
        {
          "internalType": "uint16",
          "name": "",
          "type": "uint16"
        }
      ],
      "stateMutability": "view",
      "type": "function"
    },
    {
      "inputs": [],
      "name": "MARGIN_CALLER",
      "outputs": [
        {
          "internalType": "uint16",
          "name": "",
          "type": "uint16"
        }
      ],
      "stateMutability": "view",
      "type": "function"
    },
    {
      "inputs": [],
      "name": "MARGIN_TRADER",
      "outputs": [
        {
          "internalType": "uint16",
          "name": "",
          "type": "uint16"
        }
      ],
      "stateMutability": "view",
      "type": "function"
    },
    {
      "inputs": [],
      "name": "MARGIN_TRADING",
      "outputs": [
        {
          "internalType": "uint16",
          "name": "",
          "type": "uint16"
        }
      ],
      "stateMutability": "view",
      "type": "function"
    },
    {
      "inputs": [],
      "name": "PRICE_CONTROLLER",
      "outputs": [
        {
          "internalType": "uint16",
          "name": "",
          "type": "uint16"
        }
      ],
      "stateMutability": "view",
      "type": "function"
    },
    {
      "inputs": [],
      "name": "ROUTER",
      "outputs": [
        {
          "internalType": "uint16",
          "name": "",
          "type": "uint16"
        }
      ],
      "stateMutability": "view",
      "type": "function"
    },
    {
      "inputs": [],
      "name": "TOKEN_ACTIVATOR",
      "outputs": [
        {
          "internalType": "uint16",
          "name": "",
          "type": "uint16"
        }
      ],
      "stateMutability": "view",
      "type": "function"
    },
    {
      "inputs": [],
      "name": "WITHDRAWER",
      "outputs": [
        {
          "internalType": "uint16",
          "name": "",
          "type": "uint16"
        }
      ],
      "stateMutability": "view",
      "type": "function"
    },
    {
      "inputs": [
        {
          "internalType": "address[]",
          "name": "liquidationCandidates",
          "type": "address[]"
        },
        {
          "internalType": "address",
          "name": "currentCaller",
          "type": "address"
        }
      ],
      "name": "callMargin",
      "outputs": [
        {
          "internalType": "uint256",
          "name": "marginCallerCut",
          "type": "uint256"
        }
      ],
      "stateMutability": "nonpayable",
      "type": "function"
    },
    {
      "inputs": [
        {
          "internalType": "address",
          "name": "trader",
          "type": "address"
        }
      ],
      "name": "getBorrowAmounts",
      "outputs": [
        {
          "internalType": "address[]",
          "name": "borrowTokens",
          "type": "address[]"
        },
        {
          "internalType": "uint256[]",
          "name": "borrowAmounts",
          "type": "uint256[]"
        }
      ],
      "stateMutability": "view",
      "type": "function"
    },
    {
      "inputs": [
        {
          "internalType": "address",
          "name": "trader",
          "type": "address"
        }
      ],
      "name": "getHoldingAmounts",
      "outputs": [
        {
          "internalType": "address[]",
          "name": "holdingTokens",
          "type": "address[]"
        },
        {
          "internalType": "uint256[]",
          "name": "holdingAmounts",
          "type": "uint256[]"
        }
      ],
      "stateMutability": "view",
      "type": "function"
    },
    {
      "inputs": [
        {
          "internalType": "address",
          "name": "trader",
          "type": "address"
        },
        {
          "internalType": "address",
          "name": "token",
          "type": "address"
        },
        {
          "internalType": "uint256",
          "name": "amount",
          "type": "uint256"
        }
      ],
      "name": "getTradeBorrowAmount",
      "outputs": [
        {
          "internalType": "uint256",
          "name": "borrowAmount",
          "type": "uint256"
        }
      ],
      "stateMutability": "view",
      "type": "function"
    },
    {
      "inputs": [],
      "name": "leverage",
      "outputs": [
        {
          "internalType": "uint256",
          "name": "",
          "type": "uint256"
        }
      ],
      "stateMutability": "view",
      "type": "function"
    },
    {
      "inputs": [],
      "name": "liquidationThresholdPercent",
      "outputs": [
        {
          "internalType": "uint256",
          "name": "",
          "type": "uint256"
        }
      ],
      "stateMutability": "view",
      "type": "function"
    },
    {
      "inputs": [
        {
          "internalType": "uint16",
          "name": "",
          "type": "uint16"
        }
      ],
      "name": "mainCharacterCache",
      "outputs": [
        {
          "internalType": "address",
          "name": "",
          "type": "address"
        }
      ],
      "stateMutability": "view",
      "type": "function"
    },
    {
      "inputs": [],
      "name": "owner",
      "outputs": [
        {
          "internalType": "address",
          "name": "",
          "type": "address"
        }
      ],
      "stateMutability": "view",
      "type": "function"
    },
    {
      "inputs": [
        {
          "internalType": "address",
          "name": "trader",
          "type": "address"
        },
        {
          "internalType": "address",
          "name": "borrowToken",
          "type": "address"
        },
        {
          "internalType": "uint256",
          "name": "borrowAmount",
          "type": "uint256"
        }
      ],
      "name": "registerBorrow",
      "outputs": [],
      "stateMutability": "nonpayable",
      "type": "function"
    },
    {
      "inputs": [
        {
          "internalType": "address",
          "name": "trader",
          "type": "address"
        },
        {
          "internalType": "address",
          "name": "token",
          "type": "address"
        },
        {
          "internalType": "uint256",
          "name": "depositAmount",
          "type": "uint256"
        }
      ],
      "name": "registerDeposit",
      "outputs": [
        {
          "internalType": "uint256",
          "name": "extinguishableDebt",
          "type": "uint256"
        }
      ],
      "stateMutability": "nonpayable",
      "type": "function"
    },
    {
      "inputs": [
        {
          "internalType": "address",
          "name": "trader",
          "type": "address"
        },
        {
          "internalType": "address",
          "name": "tokenFrom",
          "type": "address"
        },
        {
          "internalType": "address",
          "name": "tokenTo",
          "type": "address"
        },
        {
          "internalType": "uint256",
          "name": "inAmount",
          "type": "uint256"
        },
        {
          "internalType": "uint256",
          "name": "outAmount",
          "type": "uint256"
        }
      ],
      "name": "registerTradeAndBorrow",
      "outputs": [
        {
          "internalType": "uint256",
          "name": "extinguishableDebt",
          "type": "uint256"
        },
        {
          "internalType": "uint256",
          "name": "borrowAmount",
          "type": "uint256"
        }
      ],
      "stateMutability": "nonpayable",
      "type": "function"
    },
    {
      "inputs": [
        {
          "internalType": "address",
          "name": "trader",
          "type": "address"
        },
        {
          "internalType": "address",
          "name": "withdrawToken",
          "type": "address"
        },
        {
          "internalType": "uint256",
          "name": "withdrawAmount",
          "type": "uint256"
        }
      ],
      "name": "registerWithdrawal",
      "outputs": [],
      "stateMutability": "nonpayable",
      "type": "function"
    },
    {
      "inputs": [],
      "name": "renounceOwnership",
      "outputs": [],
      "stateMutability": "nonpayable",
      "type": "function"
    },
    {
      "inputs": [
        {
          "internalType": "address",
          "name": "",
          "type": "address"
        },
        {
          "internalType": "uint16",
          "name": "",
          "type": "uint16"
        }
      ],
      "name": "roleCache",
      "outputs": [
        {
          "internalType": "bool",
          "name": "",
          "type": "bool"
        }
      ],
      "stateMutability": "view",
      "type": "function"
    },
    {
      "inputs": [],
      "name": "roles",
      "outputs": [
        {
          "internalType": "contract Roles",
          "name": "",
          "type": "address"
        }
      ],
      "stateMutability": "view",
      "type": "function"
    },
    {
      "inputs": [
        {
          "internalType": "uint256",
          "name": "_leverage",
          "type": "uint256"
        }
      ],
      "name": "setLeverage",
      "outputs": [],
      "stateMutability": "nonpayable",
      "type": "function"
    },
    {
      "inputs": [
        {
          "internalType": "uint256",
          "name": "threshold",
          "type": "uint256"
        }
      ],
      "name": "setLiquidationThresholdPercent",
      "outputs": [],
      "stateMutability": "nonpayable",
      "type": "function"
    },
    {
      "inputs": [
        {
          "internalType": "address",
          "name": "token",
          "type": "address"
        },
        {
          "internalType": "uint256",
          "name": "cap",
          "type": "uint256"
        }
      ],
      "name": "setTokenCap",
      "outputs": [],
      "stateMutability": "nonpayable",
      "type": "function"
    },
    {
      "inputs": [
        {
          "internalType": "address",
          "name": "",
          "type": "address"
        }
      ],
      "name": "tokenCaps",
      "outputs": [
        {
          "internalType": "uint256",
          "name": "",
          "type": "uint256"
        }
      ],
      "stateMutability": "view",
      "type": "function"
    },
    {
      "inputs": [
        {
          "internalType": "address",
          "name": "",
          "type": "address"
        }
      ],
      "name": "totalLong",
      "outputs": [
        {
          "internalType": "uint256",
          "name": "",
          "type": "uint256"
        }
      ],
      "stateMutability": "view",
      "type": "function"
    },
    {
      "inputs": [
        {
          "internalType": "address",
          "name": "",
          "type": "address"
        }
      ],
      "name": "totalShort",
      "outputs": [
        {
          "internalType": "uint256",
          "name": "",
          "type": "uint256"
        }
      ],
      "stateMutability": "view",
      "type": "function"
    },
    {
      "inputs": [
        {
          "internalType": "address",
          "name": "newOwner",
          "type": "address"
        }
      ],
      "name": "transferOwnership",
      "outputs": [],
      "stateMutability": "nonpayable",
      "type": "function"
    },
    {
      "inputs": [
        {
          "internalType": "uint16",
          "name": "role",
          "type": "uint16"
        }
      ],
      "name": "updateMainCharacterCache",
      "outputs": [],
      "stateMutability": "nonpayable",
      "type": "function"
    },
    {
      "inputs": [
        {
          "internalType": "uint16",
          "name": "role",
          "type": "uint16"
        },
        {
          "internalType": "address",
          "name": "contr",
          "type": "address"
        }
      ],
      "name": "updateRoleCache",
      "outputs": [],
      "stateMutability": "nonpayable",
      "type": "function"
    }
  ],
  "bytecode": "0x60806040526050600f553480156200001657600080fd5b5060405162003f0038038062003f008339810160408190526200003991620000bc565b600080546001600160a01b0319166001600160a01b0383161781556200005e620000b8565b600380546001600160a01b0319166001600160a01b038316908117909155604051919250906000907f8be0079c531659141344cd1fd0a4f28419497f9722a3daafe3b4186f6b6457e0908290a350506014600555620000ec565b3390565b600060208284031215620000ce578081fd5b81516001600160a01b0381168114620000e5578182fd5b9392505050565b613e0480620000fc6000396000f3fe608060405234801561001057600080fd5b50600436106102d35760003560e01c80636612ce3511610186578063a9cc0536116100e3578063cacf8d4511610097578063d5d7ed7f11610071578063d5d7ed7f1461051e578063e0f3871f14610526578063f2fde38b14610539576102d3565b8063cacf8d45146104f0578063d0eb6653146104f8578063d510c5351461050b576102d3565b8063bc44dcbc116100c8578063bc44dcbc146104b5578063c34316c3146104c8578063c76139d0146104e8576102d3565b8063a9cc05361461049a578063b4481652146104a2576102d3565b806381ca66001161013a5780638da5cb5b1161011f5780638da5cb5b14610482578063a0098d691461048a578063a94c7c3414610492576102d3565b806381ca66001461047257806383a49c7c1461047a576102d3565b80636cd5cd601161016b5780636cd5cd6014610444578063715018a61461045757806379575b231461045f576102d3565b80636612ce3514610429578063669419841461043c576102d3565b806332fe7b261161023457806346b88796116101e8578063498d55eb116101cd578063498d55eb146103fb57806352a664d91461040e5780635c275a3914610421576102d3565b806346b88796146103eb57806348fb27b8146103f3576102d3565b8063387ccdc611610219578063387ccdc6146103a2578063392f5f64146103b5578063409fdb72146103ca576102d3565b806332fe7b26146103795780633500aa0b14610381576102d3565b806320e8d8191161028b5780632c86d98e116102705780632c86d98e146103615780632fe94def14610369578063320d2fa014610371576102d3565b806320e8d819146103465780632a0acc6a14610359576102d3565b80631bc5d81d116102bc5780631bc5d81d1461030b5780631d47e4a31461031357806320c2712614610326576102d3565b8063065d570f146102d857806316317e7e146102f6575b600080fd5b6102e061054c565b6040516102ed9190613bf4565b60405180910390f35b61030961030436600461375d565b610551565b005b6102e06105d2565b6103096103213660046135cc565b6105d7565b6103396103343660046134bf565b61063f565b6040516102ed9190613c2d565b610309610354366004613727565b610651565b6102e0610762565b610339610767565b6102e061076d565b610339610772565b6102e0610778565b61039461038f3660046134fe565b61077d565b6040516102ed929190613c62565b6103396103b03660046135f7565b610a91565b6103bd610eab565b6040516102ed919061378d565b6103dd6103d83660046134bf565b610ec7565b6040516102ed929190613805565b6102e06110bd565b6102e06110c2565b610309610409366004613558565b6110c7565b61033961041c366004613558565b611256565b6102e061141b565b610339610437366004613558565b611420565b6102e06114e6565b61030961045236600461370d565b6114eb565b6103096115ea565b61030961046d36600461375d565b6116cc565b6102e0611744565b6102e0611749565b6103bd61174e565b6102e061176a565b6102e061176f565b6102e0611774565b6103bd6104b036600461370d565b611779565b6103396104c33660046134bf565b6117a1565b6104db6104d6366004613598565b6117b3565b6040516102ed9190613895565b6102e06117d3565b6102e06117d8565b610309610506366004613558565b6117dd565b6103dd6105193660046134bf565b611900565b6102e0611b78565b6103396105343660046134bf565b611b7d565b6103096105473660046134bf565b611b8f565b600381565b610559611cdd565b73ffffffffffffffffffffffffffffffffffffffff1661057761174e565b73ffffffffffffffffffffffffffffffffffffffff16146105cd576040517f08c379a00000000000000000000000000000000000000000000000000000000081526004016105c490613aa8565b60405180910390fd5b600555565b600881565b6105e033611ce1565b610616576040517f08c379a00000000000000000000000000000000000000000000000000000000081526004016105c4906138a0565b73ffffffffffffffffffffffffffffffffffffffff909116600090815260076020526040902055565b60096020526000908152604090205481565b6000546040517fd87fefd200000000000000000000000000000000000000000000000000000000815273ffffffffffffffffffffffffffffffffffffffff9091169063d87fefd2906106a99085908590600401613c03565b60206040518083038186803b1580156106c157600080fd5b505afa1580156106d5573d6000803e3d6000fd5b505050506040513d601f19601f820116820180604052508101906106f991906136ed565b73ffffffffffffffffffffffffffffffffffffffff909116600090815260026020908152604080832061ffff90951683529390529190912080549115157fffffffffffffffffffffffffffffffffffffffffffffffffffffffffffffff00909216919091179055565b606b81565b60045481565b606981565b60055481565b606781565b60008061078933611d1c565b6107bf576040517f08c379a00000000000000000000000000000000000000000000000000000000081526004016105c4906138fd565b73ffffffffffffffffffffffffffffffffffffffff8088166000908152600660209081526040808320938916835260018401909152902054156108775773ffffffffffffffffffffffffffffffffffffffff8616600090815260018201602052604090205461082f908590611d53565b925061083c818785611d6d565b73ffffffffffffffffffffffffffffffffffffffff861660009081526008602052604081208054859290610871908490613cfe565b90915550505b73ffffffffffffffffffffffffffffffffffffffff8716600090815260096020526040812080548792906108ac908490613cfe565b909155506108bc90508385613cfe565b73ffffffffffffffffffffffffffffffffffffffff8716600090815260096020526040812080549091906108f1908490613c70565b909155505073ffffffffffffffffffffffffffffffffffffffff86166000908152600960209081526040808320546007909252909120541015610960576040517f08c379a00000000000000000000000000000000000000000000000000000000081526004016105c490613add565b73ffffffffffffffffffffffffffffffffffffffff871660009081526004820160205260409020548590811115610a78575073ffffffffffffffffffffffffffffffffffffffff871660009081526004820160205260409020546109c48187613cfe565b73ffffffffffffffffffffffffffffffffffffffff89166000908152600860205260408120805492955085929091906109fe908490613c70565b909155505073ffffffffffffffffffffffffffffffffffffffff88166000908152600860209081526040808320546007909252909120541015610a6d576040517f08c379a00000000000000000000000000000000000000000000000000000000081526004016105c490613add565b610a78828985611ee4565b610a858289898489612187565b50509550959350505050565b600080610a9c6121f4565b73ffffffffffffffffffffffffffffffffffffffff16637b23cbce336040518263ffffffff1660e01b8152600401610ad4919061378d565b602060405180830381600087803b158015610aee57600080fd5b505af1158015610b02573d6000803e3d6000fd5b505050506040513d601f19601f82011682018060405250810190610b2691906136ed565b90506000610b348583612239565b9050610b408184613c70565b92506000610b4c61298a565b90506000610b58612ae7565b905081811115610ba3577f3555ffae7677eb42103f0b9e11b61c758f452fae446684dec7a363dd38ab58fc610b8d8383613cfe565b604051610b9a9190613c2d565b60405180910390a15b60005b600d54811015610ea0576000600d8281548110610bec577f4e487b7100000000000000000000000000000000000000000000000000000000600052603260045260246000fd5b600091825260208083209091015473ffffffffffffffffffffffffffffffffffffffff1680835260069091526040822090925090610c2982612c3d565b90506000610c3683612c4f565b905060006002600454606460055485610c4f9190613cc1565b610c599190613c88565b610c639190613c88565b610c6d9190613c88565b90508915610c8657610c7f818c613c70565b9a50610ce9565b73ffffffffffffffffffffffffffffffffffffffff8581166000908152600e60205260409020600181018390556002810180547fffffffffffffffffffffffff000000000000000000000000000000000000000016928f16929092179091554390555b610cf38282613c70565b8310610e2d57610d01612c62565b73ffffffffffffffffffffffffffffffffffffffff1663d9caed12610d24612ca7565b73ffffffffffffffffffffffffffffffffffffffff16631f1cb62b6040518163ffffffff1660e01b815260040160206040518083038186803b158015610d6957600080fd5b505afa158015610d7d573d6000803e3d6000fd5b505050506040513d601f19601f82011682018060405250810190610da191906134e2565b8784610dad8789613cfe565b610db79190613cfe565b6040518463ffffffff1660e01b8152600401610dd5939291906137ae565b602060405180830381600087803b158015610def57600080fd5b505af1158015610e03573d6000803e3d6000fd5b505050506040513d601f19601f82011682018060405250810190610e2791906136ed565b50610e7f565b600083610e3a8385613c70565b610e449190613cfe565b90507f3555ffae7677eb42103f0b9e11b61c758f452fae446684dec7a363dd38ab58fc81604051610e759190613c2d565b60405180910390a1505b610e8884612cec565b50505050508080610e9890613d15565b915050610ba6565b505050505092915050565b60005473ffffffffffffffffffffffffffffffffffffffff1681565b73ffffffffffffffffffffffffffffffffffffffff8116600090815260066020908152604091829020600381018054845181850281018501909552808552606094859490929190830182828015610f5457602002820191906000526020600020905b815473ffffffffffffffffffffffffffffffffffffffff168152600190910190602001808311610f29575b5050506003840154929550505067ffffffffffffffff811115610fa0577f4e487b7100000000000000000000000000000000000000000000000000000000600052604160045260246000fd5b604051908082528060200260200182016040528015610fc9578160200160208202803683370190505b50915060005b80845111156110b6576000848281518110611013577f4e487b7100000000000000000000000000000000000000000000000000000000600052603260045260246000fd5b602002602001015190508260040160008273ffffffffffffffffffffffffffffffffffffffff1673ffffffffffffffffffffffffffffffffffffffff16815260200190815260200160002054848381518110611098577f4e487b7100000000000000000000000000000000000000000000000000000000600052603260045260246000fd5b602090810291909101015250806110ae81613d15565b915050610fcf565b5050915091565b600681565b606681565b6110d033611d1c565b611106576040517f08c379a00000000000000000000000000000000000000000000000000000000081526004016105c490613b97565b73ffffffffffffffffffffffffffffffffffffffff82166000908152600860205260408120805483929061113b908490613c70565b909155505073ffffffffffffffffffffffffffffffffffffffff821660009081526009602052604081208054839290611175908490613c70565b909155505073ffffffffffffffffffffffffffffffffffffffff8216600090815260086020908152604080832054600790925290912054108015906111ea575073ffffffffffffffffffffffffffffffffffffffff821660009081526009602090815260408083205460079092529091205410155b611220576040517f08c379a00000000000000000000000000000000000000000000000000000000081526004016105c490613add565b73ffffffffffffffffffffffffffffffffffffffff83166000908152600660205260409020611250818484611ee4565b50505050565b600061126133611d1c565b611297576040517f08c379a00000000000000000000000000000000000000000000000000000000081526004016105c490613b97565b73ffffffffffffffffffffffffffffffffffffffff8316600090815260096020526040812080548492906112cc908490613c70565b909155505073ffffffffffffffffffffffffffffffffffffffff8316600090815260096020908152604080832054600790925290912054101561133b576040517f08c379a00000000000000000000000000000000000000000000000000000000081526004016105c490613add565b73ffffffffffffffffffffffffffffffffffffffff8416600090815260066020526040902061136b818585612e68565b73ffffffffffffffffffffffffffffffffffffffff84166000908152600182016020526040902054156114135773ffffffffffffffffffffffffffffffffffffffff841660009081526001820160205260409020546113cb908490611d53565b91506113d8818584611d6d565b73ffffffffffffffffffffffffffffffffffffffff84166000908152600860205260408120805484929061140d908490613cfe565b90915550505b509392505050565b606581565b600061142b33611d1c565b611461576040517f08c379a00000000000000000000000000000000000000000000000000000000081526004016105c4906139ee565b73ffffffffffffffffffffffffffffffffffffffff80851660009081526006602090815260408083209387168352600484019091529020546114a39084613cfe565b91506114b0818584612f0d565b611413576040517f08c379a00000000000000000000000000000000000000000000000000000000081526004016105c49061395a565b600181565b6000546040517f3c9c8f9c00000000000000000000000000000000000000000000000000000000815273ffffffffffffffffffffffffffffffffffffffff90911690633c9c8f9c90611541908490600401613bf4565b60206040518083038186803b15801561155957600080fd5b505afa15801561156d573d6000803e3d6000fd5b505050506040513d601f19601f8201168201806040525081019061159191906134e2565b61ffff91909116600090815260016020526040902080547fffffffffffffffffffffffff00000000000000000000000000000000000000001673ffffffffffffffffffffffffffffffffffffffff909216919091179055565b6115f2611cdd565b73ffffffffffffffffffffffffffffffffffffffff1661161061174e565b73ffffffffffffffffffffffffffffffffffffffff161461165d576040517f08c379a00000000000000000000000000000000000000000000000000000000081526004016105c490613aa8565b60035460405160009173ffffffffffffffffffffffffffffffffffffffff16907f8be0079c531659141344cd1fd0a4f28419497f9722a3daafe3b4186f6b6457e0908390a3600380547fffffffffffffffffffffffff0000000000000000000000000000000000000000169055565b6116d4611cdd565b73ffffffffffffffffffffffffffffffffffffffff166116f261174e565b73ffffffffffffffffffffffffffffffffffffffff161461173f576040517f08c379a00000000000000000000000000000000000000000000000000000000081526004016105c490613aa8565b600455565b606a81565b600981565b60035473ffffffffffffffffffffffffffffffffffffffff1690565b600281565b600581565b606881565b60016020526000908152604090205473ffffffffffffffffffffffffffffffffffffffff1681565b60086020526000908152604090205481565b600260209081526000928352604080842090915290825290205460ff1681565b606c81565b600481565b6117e633611d1c565b61181c576040517f08c379a00000000000000000000000000000000000000000000000000000000081526004016105c490613b97565b73ffffffffffffffffffffffffffffffffffffffff80841660009081526006602090815260408083209386168352600990915281208054849290611861908490613cfe565b909155505073ffffffffffffffffffffffffffffffffffffffff83166000908152600482016020526040902054611899908390613cfe565b73ffffffffffffffffffffffffffffffffffffffff841660009081526004830160205260409020556118ca81612f3f565b611250576040517f08c379a00000000000000000000000000000000000000000000000000000000081526004016105c490613a4b565b73ffffffffffffffffffffffffffffffffffffffff8116600090815260066020908152604091829020805483518184028101840190945280845260609384939091839183018282801561198957602002820191906000526020600020905b815473ffffffffffffffffffffffffffffffffffffffff16815260019091019060200180831161195e575b50508454939650505067ffffffffffffffff82111590506119d3577f4e487b7100000000000000000000000000000000000000000000000000000000600052604160045260246000fd5b6040519080825280602002602001820160405280156119fc578160200160208202803683370190505b50915060005b80845111156110b6576000848281518110611a46577f4e487b7100000000000000000000000000000000000000000000000000000000600052603260045260246000fd5b60200260200101519050611a58612f8a565b73ffffffffffffffffffffffffffffffffffffffff828116600090815260018601602090815260408083205460028901909252918290205491517f687680ed000000000000000000000000000000000000000000000000000000008152939092169263687680ed92611ad1929091869190600401613c36565b60206040518083038186803b158015611ae957600080fd5b505afa158015611afd573d6000803e3d6000fd5b505050506040513d601f19601f82011682018060405250810190611b219190613775565b848381518110611b5a577f4e487b7100000000000000000000000000000000000000000000000000000000600052603260045260246000fd5b60209081029190910101525080611b7081613d15565b915050611a02565b600781565b60076020526000908152604090205481565b611b97611cdd565b73ffffffffffffffffffffffffffffffffffffffff16611bb561174e565b73ffffffffffffffffffffffffffffffffffffffff1614611c02576040517f08c379a00000000000000000000000000000000000000000000000000000000081526004016105c490613aa8565b73ffffffffffffffffffffffffffffffffffffffff8116611c4f576040517f08c379a00000000000000000000000000000000000000000000000000000000081526004016105c490613991565b60035460405173ffffffffffffffffffffffffffffffffffffffff8084169216907f8be0079c531659141344cd1fd0a4f28419497f9722a3daafe3b4186f6b6457e090600090a3600380547fffffffffffffffffffffffff00000000000000000000000000000000000000001673ffffffffffffffffffffffffffffffffffffffff92909216919091179055565b3390565b73ffffffffffffffffffffffffffffffffffffffff811660009081526002602090815260408083206009845290915290205460ff165b919050565b73ffffffffffffffffffffffffffffffffffffffff1660009081526002602090815260408083206004845290915290205460ff1690565b600081831115611d64575080611d67565b50815b92915050565b611d75612f8a565b73ffffffffffffffffffffffffffffffffffffffff838116600090815260018601602090815260408083205460028901909252918290205491517fe695fa68000000000000000000000000000000000000000000000000000000008152939092169263e695fa6892611dee929091879190600401613c36565b602060405180830381600087803b158015611e0857600080fd5b505af1158015611e1c573d6000803e3d6000fd5b505050506040513d601f19601f82011682018060405250810190611e409190613775565b73ffffffffffffffffffffffffffffffffffffffff831660009081526001850160205260409020819055611e75908290613cfe565b73ffffffffffffffffffffffffffffffffffffffff831660009081526001850160209081526040808320939093556004860190522054611eb6908290613cfe565b73ffffffffffffffffffffffffffffffffffffffff9092166000908152600490930160205250604090912055565b611eee8383612fcf565b611fff5782546001810184556000848152602090200180547fffffffffffffffffffffffff00000000000000000000000000000000000000001673ffffffffffffffffffffffffffffffffffffffff8416179055611f4a612f8a565b73ffffffffffffffffffffffffffffffffffffffff1663e7bde5c1836040518263ffffffff1660e01b8152600401611f82919061378d565b60206040518083038186803b158015611f9a57600080fd5b505afa158015611fae573d6000803e3d6000fd5b505050506040513d601f19601f82011682018060405250810190611fd29190613775565b73ffffffffffffffffffffffffffffffffffffffff831660009081526002850160205260409020556120fb565b612007612f8a565b73ffffffffffffffffffffffffffffffffffffffff838116600090815260018601602090815260408083205460028901909252918290205491517fe695fa68000000000000000000000000000000000000000000000000000000008152939092169263e695fa6892612080929091879190600401613c36565b602060405180830381600087803b15801561209a57600080fd5b505af11580156120ae573d6000803e3d6000fd5b505050506040513d601f19601f820116820180604052508101906120d29190613775565b73ffffffffffffffffffffffffffffffffffffffff831660009081526001850160205260409020555b73ffffffffffffffffffffffffffffffffffffffff8216600090815260018401602052604081208054839290612132908490613c70565b909155506121439050838383612e68565b61214c83612f3f565b612182576040517f08c379a00000000000000000000000000000000000000000000000000000000081526004016105c490613b3a565b505050565b73ffffffffffffffffffffffffffffffffffffffff841660009081526004860160205260409020546121ba908390613cfe565b73ffffffffffffffffffffffffffffffffffffffff851660009081526004870160205260409020556121ed858483612e68565b5050505050565b606b60005260016020527fd70e245266dfd722d237312ada32b3921705992efb298b14480ba0acaaa0765a5473ffffffffffffffffffffffffffffffffffffffff1690565b60408051600080825260208201928390529051909161225b91600b91906133ed565b50604080516000815260208101918290525161227991600c916133ed565b50604080516000815260208101918290525161229791600d916133ed565b5060005b80845111156129835760008482815181106122df577f4e487b7100000000000000000000000000000000000000000000000000000000600052603260045260246000fd5b602002602001015190506000600660008373ffffffffffffffffffffffffffffffffffffffff1673ffffffffffffffffffffffffffffffffffffffff168152602001908152602001600020905061233581612ffd565b1561274457600d805460018101825560009182527fd7b6990105719101dabeb77144f2a3385c8033acd3af97e9423a695e81ad1eb50180547fffffffffffffffffffffffff00000000000000000000000000000000000000001673ffffffffffffffffffffffffffffffffffffffff85161790555b60038201548110156125225760008260030182815481106123f4577f4e487b7100000000000000000000000000000000000000000000000000000000600052603260045260246000fd5b600091825260208083209091015473ffffffffffffffffffffffffffffffffffffffff16808352600a909152604090912060028101549192509043146124ca5773ffffffffffffffffffffffffffffffffffffffff82166000818152600486016020526040812054600180850191909155818455436002850155600b805491820181559091527f0175b7a638427703f0dbe7bb9bbf987a2551717b34e79f33b5b1008d1fa01db90180547fffffffffffffffffffffffff000000000000000000000000000000000000000016909117905561250d565b73ffffffffffffffffffffffffffffffffffffffff8216600090815260048501602052604081205460018301805491929091612507908490613c70565b90915550505b5050808061251a90613d15565b9150506123aa565b5060005b815481101561274257600082600001828154811061256d577f4e487b7100000000000000000000000000000000000000000000000000000000600052603260045260246000fd5b600091825260208083209091015473ffffffffffffffffffffffffffffffffffffffff16808352600a90915260408220909250906125a9612f8a565b73ffffffffffffffffffffffffffffffffffffffff1663e7bde5c1846040518263ffffffff1660e01b81526004016125e1919061378d565b60206040518083038186803b1580156125f957600080fd5b505afa15801561260d573d6000803e3d6000fd5b505050506040513d601f19601f820116820180604052508101906126319190613775565b73ffffffffffffffffffffffffffffffffffffffff8416600090815260028701602090815260408083205460018a019092528220549293509091612676908490613cc1565b6126809190613c88565b9050438360020154146127115760006001848101829055828555436002860155600c805491820181559091527fdf6966c971051c3d54ec59162606531493a51404a002842f56009d7e5cf4a8c70180547fffffffffffffffffffffffff00000000000000000000000000000000000000001673ffffffffffffffffffffffffffffffffffffffff861617905561272b565b808360000160008282546127259190613c70565b90915550505b50505050808061273a90613d15565b915050612526565b505b73ffffffffffffffffffffffffffffffffffffffff82166000908152600e602052604090206001810154158015906127795750855b1561296d5780546000906127a490612792436001613c70565b61279c9190613cfe565b600f54611d53565b90506000600f548360010154836127bb9190613cc1565b6127c59190613c88565b90506127cf612c62565b73ffffffffffffffffffffffffffffffffffffffff1663d9caed126127f2612ca7565b73ffffffffffffffffffffffffffffffffffffffff16631f1cb62b6040518163ffffffff1660e01b815260040160206040518083038186803b15801561283757600080fd5b505afa15801561284b573d6000803e3d6000fd5b505050506040513d601f19601f8201168201806040525081019061286f91906134e2565b60028601546040517fffffffff0000000000000000000000000000000000000000000000000000000060e085901b1681526128c6929173ffffffffffffffffffffffffffffffffffffffff169086906004016137ae565b602060405180830381600087803b1580156128e057600080fd5b505af11580156128f4573d6000803e3d6000fd5b505050506040513d601f19601f8201168201806040525081019061291891906136ed565b508083600101546129299190613cfe565b6129339088613c70565b6000600185018190556002850180547fffffffffffffffffffffffff00000000000000000000000000000000000000001690558455965050505b505050808061297b90613d15565b91505061229b565b5092915050565b6000805b600b54811015612ae3576000600b82815481106129d4577f4e487b7100000000000000000000000000000000000000000000000000000000600052603260045260246000fd5b600091825260208083209091015473ffffffffffffffffffffffffffffffffffffffff16808352600a90915260409091208054600182015492935090911115612ace5780546001820154600091612a2a91613cfe565b9050612a34612ca7565b73ffffffffffffffffffffffffffffffffffffffff166305883f7c84836040518363ffffffff1660e01b8152600401612a6e9291906137df565b602060405180830381600087803b158015612a8857600080fd5b505af1158015612a9c573d6000803e3d6000fd5b505050506040513d601f19601f82011682018060405250810190612ac09190613775565b612aca9086613c70565b9450505b50508080612adb90613d15565b91505061298e565b5090565b6000805b600c54811015612ae3576000600c8281548110612b31577f4e487b7100000000000000000000000000000000000000000000000000000000600052603260045260246000fd5b600091825260208083209091015473ffffffffffffffffffffffffffffffffffffffff16808352600a90915260409091206001810154815492935090911115612c2857612b7c612ca7565b73ffffffffffffffffffffffffffffffffffffffff166305883f7c8383600101548460000154612bac9190613cfe565b6040518363ffffffff1660e01b8152600401612bc99291906137df565b602060405180830381600087803b158015612be357600080fd5b505af1158015612bf7573d6000803e3d6000fd5b505050506040513d601f19601f82011682018060405250810190612c1b9190613775565b612c259085613c70565b93505b50508080612c3590613d15565b915050612aeb565b6000611d678260030183600401613057565b6000611d678260018101600282016131a5565b606560005260016020527f6def5a300acb6fcaa0dab3a41e9d6457b5147a641e641380f8cc4bf5308b16fe5473ffffffffffffffffffffffffffffffffffffffff1690565b606a60005260016020527fdd2cb9885bc4a6b7d63bce617b9a4981fb4dfc6d1957489e794070560e4e930d5473ffffffffffffffffffffffffffffffffffffffff1690565b60005b8154811015612d87576000826000018281548110612d36577f4e487b7100000000000000000000000000000000000000000000000000000000600052603260045260246000fd5b600091825260208083209091015473ffffffffffffffffffffffffffffffffffffffff1682526001850181526040808320839055600286019091528120555080612d7f81613d15565b915050612cef565b5060005b6003820154811015612e4b576000826003018281548110612dd5577f4e487b7100000000000000000000000000000000000000000000000000000000600052603260045260246000fd5b600091825260208083209091015473ffffffffffffffffffffffffffffffffffffffff168252600485018152604080832083905560058601909152902080547fffffffffffffffffffffffffffffffffffffffffffffffffffffffffffffff001690555080612e4381613d15565b915050612d8b565b50612e57816000613473565b612e65600382016000613473565b50565b612e72838361324d565b612ecc57600383018054600181018255600091825260209091200180547fffffffffffffffffffffffff00000000000000000000000000000000000000001673ffffffffffffffffffffffffffffffffffffffff84161790555b73ffffffffffffffffffffffffffffffffffffffff8216600090815260048401602052604081208054839290612f03908490613c70565b9091555050505050565b73ffffffffffffffffffffffffffffffffffffffff821660009081526004840160205260409020548111159392505050565b600080612f4b83612c4f565b90506000612f5884612c3d565b905060045482612f689190613cc1565b600454612f76906001613c70565b612f809083613cc1565b1015949350505050565b606660005260016020527f8a7727369fa1a496cab5c3debb1ff9323f499df74f8bfc03a975054ef960ee6d5473ffffffffffffffffffffffffffffffffffffffff1690565b73ffffffffffffffffffffffffffffffffffffffff1660009081526002919091016020526040902054151590565b60008061300983612c4f565b9050600061301684612c3d565b905081600554600454606461302b9190613cc1565b6130359190613c70565b61303f9190613cc1565b60045461304c9083613cc1565b612f80906064613cc1565b6000805b835481101561298357600084828154811061309f577f4e487b7100000000000000000000000000000000000000000000000000000000600052603260045260246000fd5b60009182526020909120015473ffffffffffffffffffffffffffffffffffffffff1690506130cb612ca7565b73ffffffffffffffffffffffffffffffffffffffff828116600090815260208790526040908190205490517fe47109a9000000000000000000000000000000000000000000000000000000008152929091169163e47109a991613133918591906004016137df565b602060405180830381600087803b15801561314d57600080fd5b505af1158015613161573d6000803e3d6000fd5b505050506040513d601f19601f820116820180604052508101906131859190613775565b61318f9084613c70565b925050808061319d90613d15565b91505061305b565b6000805b84548110156114135760008582815481106131ed577f4e487b7100000000000000000000000000000000000000000000000000000000600052603260045260246000fd5b600091825260208083209091015473ffffffffffffffffffffffffffffffffffffffff168083529087905260409091205490915061322d9082908661327c565b6132379084613c70565b925050808061324590613d15565b9150506131a9565b73ffffffffffffffffffffffffffffffffffffffff166000908152600591909101602052604090205460ff1690565b600080613287612f8a565b73ffffffffffffffffffffffffffffffffffffffff1663e7bde5c1866040518263ffffffff1660e01b81526004016132bf919061378d565b60206040518083038186803b1580156132d757600080fd5b505afa1580156132eb573d6000803e3d6000fd5b505050506040513d601f19601f8201168201806040525081019061330f9190613775565b73ffffffffffffffffffffffffffffffffffffffff8616600090815260208590526040812054919250906133438387613cc1565b61334d9190613c88565b9050613357612ca7565b73ffffffffffffffffffffffffffffffffffffffff1663e47109a987836040518363ffffffff1660e01b81526004016133919291906137df565b602060405180830381600087803b1580156133ab57600080fd5b505af11580156133bf573d6000803e3d6000fd5b505050506040513d601f19601f820116820180604052508101906133e39190613775565b9695505050505050565b828054828255906000526020600020908101928215613467579160200282015b8281111561346757825182547fffffffffffffffffffffffff00000000000000000000000000000000000000001673ffffffffffffffffffffffffffffffffffffffff90911617825560209092019160019091019061340d565b50612ae392915061348d565b5080546000825590600052602060002090810190612e6591905b5b80821115612ae3576000815560010161348e565b8035611d1781613dac565b803561ffff81168114611d1757600080fd5b6000602082840312156134d0578081fd5b81356134db81613dac565b9392505050565b6000602082840312156134f3578081fd5b81516134db81613dac565b600080600080600060a08688031215613515578081fd5b853561352081613dac565b9450602086013561353081613dac565b9350604086013561354081613dac565b94979396509394606081013594506080013592915050565b60008060006060848603121561356c578283fd5b833561357781613dac565b9250602084013561358781613dac565b929592945050506040919091013590565b600080604083850312156135aa578182fd5b82356135b581613dac565b91506135c3602084016134ad565b90509250929050565b600080604083850312156135de578182fd5b82356135e981613dac565b946020939093013593505050565b60008060408385031215613609578182fd5b823567ffffffffffffffff80821115613620578384fd5b818501915085601f830112613633578384fd5b813560208282111561364757613647613d7d565b8082026040517fffffffffffffffffffffffffffffffffffffffffffffffffffffffffffffffe0603f8301168101818110868211171561368957613689613d7d565b604052838152828101945085830182870184018b10156136a7578889fd5b8896505b848710156136d0576136bc816134a2565b8652600196909601959483019483016136ab565b5096506136e090508782016134a2565b9450505050509250929050565b6000602082840312156136fe578081fd5b815180151581146134db578182fd5b60006020828403121561371e578081fd5b6134db826134ad565b60008060408385031215613739578182fd5b613742836134ad565b9150602083013561375281613dac565b809150509250929050565b60006020828403121561376e578081fd5b5035919050565b600060208284031215613786578081fd5b5051919050565b73ffffffffffffffffffffffffffffffffffffffff91909116815260200190565b73ffffffffffffffffffffffffffffffffffffffff9384168152919092166020820152604081019190915260600190565b73ffffffffffffffffffffffffffffffffffffffff929092168252602082015260400190565b604080825283519082018190526000906020906060840190828701845b8281101561385457815173ffffffffffffffffffffffffffffffffffffffff1684529284019290840190600101613822565b50505083810382850152845180825285830191830190845b818110156138885783518352928401929184019160010161386c565b5090979650505050505050565b901515815260200190565b60208082526026908201527f43616c6c6572206e6f7420617574686f72697a656420746f2073657420746f6b60408201527f656e206361700000000000000000000000000000000000000000000000000000606082015260800190565b60208082526039908201527f43616c6c696e6720636f6e7472616374206973206e6f7420616e20617574686f60408201527f72697a6564206d617267696e20747261646572206167656e7400000000000000606082015260800190565b60208082526018908201527f43616e277420626f72726f772066756c6c20616d6f756e740000000000000000604082015260600190565b60208082526026908201527f4f776e61626c653a206e6577206f776e657220697320746865207a65726f206160408201527f6464726573730000000000000000000000000000000000000000000000000000606082015260800190565b60208082526033908201527f43616c6c696e6720636f6e7472616374206973206e6f7420616e20617574686f60408201527f72697a6564206d617267696e2074726164657200000000000000000000000000606082015260800190565b60208082526026908201527f4163636f756e742062616c616e636520697320746f6f206c6f7720746f20776960408201527f7468647261770000000000000000000000000000000000000000000000000000606082015260800190565b6020808252818101527f4f776e61626c653a2063616c6c6572206973206e6f7420746865206f776e6572604082015260600190565b60208082526039908201527f457863656564696e6720676c6f62616c206578706f737572652063617020746f60408201527f20746f6b656e202d2d2074727920616761696e206c6174657200000000000000606082015260800190565b60208082526022908201527f43616e277420626f72726f773a20696e73756666696369656e742062616c616e60408201527f6365000000000000000000000000000000000000000000000000000000000000606082015260800190565b6020808252602a908201527f43616c6c696e6720636f6e7472616374206e6f7420617574686f72697a65642060408201527f746f206465706f73697400000000000000000000000000000000000000000000606082015260800190565b61ffff91909116815260200190565b61ffff92909216825273ffffffffffffffffffffffffffffffffffffffff16602082015260400190565b90815260200190565b92835273ffffffffffffffffffffffffffffffffffffffff919091166020830152604082015260600190565b918252602082015260400190565b60008219821115613c8357613c83613d4e565b500190565b600082613cbc577f4e487b710000000000000000000000000000000000000000000000000000000081526012600452602481fd5b500490565b6000817fffffffffffffffffffffffffffffffffffffffffffffffffffffffffffffffff0483118215151615613cf957613cf9613d4e565b500290565b600082821015613d1057613d10613d4e565b500390565b60007fffffffffffffffffffffffffffffffffffffffffffffffffffffffffffffffff821415613d4757613d47613d4e565b5060010190565b7f4e487b7100000000000000000000000000000000000000000000000000000000600052601160045260246000fd5b7f4e487b7100000000000000000000000000000000000000000000000000000000600052604160045260246000fd5b73ffffffffffffffffffffffffffffffffffffffff81168114612e6557600080fdfea26469706673582212206f5066bf2c067a11e5b85e63522d91e25cdcd5bbb1d49d413ce6bb09429eb3f464736f6c63430008010033",
  "linkReferences": {},
  "deployedLinkReferences": {}
}