{
  "_format": "hh-sol-artifact-1",
  "contractName": "CrossMarginTrading",
  "sourceName": "contracts/CrossMarginTrading.sol",
  "abi": [
    {
      "inputs": [
        {
          "internalType": "address",
          "name": "_roles",
          "type": "address"
        }
      ],
      "stateMutability": "nonpayable",
      "type": "constructor"
    },
    {
      "anonymous": false,
      "inputs": [
        {
          "indexed": false,
          "internalType": "uint256",
          "name": "amount",
          "type": "uint256"
        }
      ],
      "name": "LiquidationShortfall",
      "type": "event"
    },
    {
      "anonymous": false,
      "inputs": [
        {
          "indexed": true,
          "internalType": "address",
          "name": "previousOwner",
          "type": "address"
        },
        {
          "indexed": true,
          "internalType": "address",
          "name": "newOwner",
          "type": "address"
        }
      ],
      "name": "OwnershipTransferred",
      "type": "event"
    },
    {
      "inputs": [],
      "name": "ADMIN",
      "outputs": [
        {
          "internalType": "uint16",
          "name": "",
          "type": "uint16"
        }
      ],
      "stateMutability": "view",
      "type": "function"
    },
    {
      "inputs": [],
      "name": "AUTHORIZED_FUND_TRADER",
      "outputs": [
        {
          "internalType": "uint16",
          "name": "",
          "type": "uint16"
        }
      ],
      "stateMutability": "view",
      "type": "function"
    },
    {
      "inputs": [],
      "name": "BORROWER",
      "outputs": [
        {
          "internalType": "uint16",
          "name": "",
          "type": "uint16"
        }
      ],
      "stateMutability": "view",
      "type": "function"
    },
    {
      "inputs": [],
      "name": "FEE_CONTROLLER",
      "outputs": [
        {
          "internalType": "uint16",
          "name": "",
          "type": "uint16"
        }
      ],
      "stateMutability": "view",
      "type": "function"
    },
    {
      "inputs": [],
      "name": "FEE_SOURCE",
      "outputs": [
        {
          "internalType": "uint16",
          "name": "",
          "type": "uint16"
        }
      ],
      "stateMutability": "view",
      "type": "function"
    },
    {
      "inputs": [],
      "name": "FUND",
      "outputs": [
        {
          "internalType": "uint16",
          "name": "",
          "type": "uint16"
        }
      ],
      "stateMutability": "view",
      "type": "function"
    },
    {
      "inputs": [],
      "name": "INCENTIVE_DISTRIBUTION",
      "outputs": [
        {
          "internalType": "uint16",
          "name": "",
          "type": "uint16"
        }
      ],
      "stateMutability": "view",
      "type": "function"
    },
    {
      "inputs": [],
      "name": "INCENTIVE_REPORTER",
      "outputs": [
        {
          "internalType": "uint16",
          "name": "",
          "type": "uint16"
        }
      ],
      "stateMutability": "view",
      "type": "function"
    },
    {
      "inputs": [],
      "name": "LENDING",
      "outputs": [
        {
          "internalType": "uint16",
          "name": "",
          "type": "uint16"
        }
      ],
      "stateMutability": "view",
      "type": "function"
    },
    {
      "inputs": [],
      "name": "LIQUIDATOR",
      "outputs": [
        {
          "internalType": "uint16",
          "name": "",
          "type": "uint16"
        }
      ],
      "stateMutability": "view",
      "type": "function"
    },
    {
      "inputs": [],
      "name": "MARGIN_CALLER",
      "outputs": [
        {
          "internalType": "uint16",
          "name": "",
          "type": "uint16"
        }
      ],
      "stateMutability": "view",
      "type": "function"
    },
    {
      "inputs": [],
      "name": "MARGIN_TRADER",
      "outputs": [
        {
          "internalType": "uint16",
          "name": "",
          "type": "uint16"
        }
      ],
      "stateMutability": "view",
      "type": "function"
    },
    {
      "inputs": [],
      "name": "MARGIN_TRADING",
      "outputs": [
        {
          "internalType": "uint16",
          "name": "",
          "type": "uint16"
        }
      ],
      "stateMutability": "view",
      "type": "function"
    },
    {
      "inputs": [],
      "name": "PRICE_CONTROLLER",
      "outputs": [
        {
          "internalType": "uint16",
          "name": "",
          "type": "uint16"
        }
      ],
      "stateMutability": "view",
      "type": "function"
    },
    {
      "inputs": [],
      "name": "ROUTER",
      "outputs": [
        {
          "internalType": "uint16",
          "name": "",
          "type": "uint16"
        }
      ],
      "stateMutability": "view",
      "type": "function"
    },
    {
      "inputs": [],
      "name": "TOKEN_ACTIVATOR",
      "outputs": [
        {
          "internalType": "uint16",
          "name": "",
          "type": "uint16"
        }
      ],
      "stateMutability": "view",
      "type": "function"
    },
    {
      "inputs": [],
      "name": "WITHDRAWER",
      "outputs": [
        {
          "internalType": "uint16",
          "name": "",
          "type": "uint16"
        }
      ],
      "stateMutability": "view",
      "type": "function"
    },
    {
      "inputs": [
        {
          "internalType": "address",
          "name": "trader",
          "type": "address"
        }
      ],
      "name": "getBorrowAmounts",
      "outputs": [
        {
          "internalType": "address[]",
          "name": "borrowTokens",
          "type": "address[]"
        },
        {
          "internalType": "uint256[]",
          "name": "borrowAmounts",
          "type": "uint256[]"
        }
      ],
      "stateMutability": "view",
      "type": "function"
    },
    {
      "inputs": [
        {
          "internalType": "address",
          "name": "trader",
          "type": "address"
        }
      ],
      "name": "getHoldingAmounts",
      "outputs": [
        {
          "internalType": "address[]",
          "name": "holdingTokens",
          "type": "address[]"
        },
        {
          "internalType": "uint256[]",
          "name": "holdingAmounts",
          "type": "uint256[]"
        }
      ],
      "stateMutability": "view",
      "type": "function"
    },
    {
      "inputs": [
        {
          "internalType": "address",
          "name": "trader",
          "type": "address"
        },
        {
          "internalType": "address",
          "name": "token",
          "type": "address"
        },
        {
          "internalType": "uint256",
          "name": "amount",
          "type": "uint256"
        }
      ],
      "name": "getTradeBorrowAmount",
      "outputs": [
        {
          "internalType": "uint256",
          "name": "borrowAmount",
          "type": "uint256"
        }
      ],
      "stateMutability": "view",
      "type": "function"
    },
    {
      "inputs": [],
      "name": "leverage",
      "outputs": [
        {
          "internalType": "uint256",
          "name": "",
          "type": "uint256"
        }
      ],
      "stateMutability": "view",
      "type": "function"
    },
    {
      "inputs": [
        {
          "internalType": "address[]",
          "name": "liquidationCandidates",
          "type": "address[]"
        },
        {
          "internalType": "address",
          "name": "currentCaller",
          "type": "address"
        }
      ],
      "name": "liquidate",
      "outputs": [
        {
          "internalType": "uint256",
          "name": "maintainerCut",
          "type": "uint256"
        }
      ],
      "stateMutability": "nonpayable",
      "type": "function"
    },
    {
      "inputs": [],
      "name": "liquidationThresholdPercent",
      "outputs": [
        {
          "internalType": "uint256",
          "name": "",
          "type": "uint256"
        }
      ],
      "stateMutability": "view",
      "type": "function"
    },
    {
      "inputs": [],
      "name": "owner",
      "outputs": [
        {
          "internalType": "address",
          "name": "",
          "type": "address"
        }
      ],
      "stateMutability": "view",
      "type": "function"
    },
    {
      "inputs": [
        {
          "internalType": "address",
          "name": "trader",
          "type": "address"
        },
        {
          "internalType": "address",
          "name": "borrowToken",
          "type": "address"
        },
        {
          "internalType": "uint256",
          "name": "borrowAmount",
          "type": "uint256"
        }
      ],
      "name": "registerBorrow",
      "outputs": [],
      "stateMutability": "nonpayable",
      "type": "function"
    },
    {
      "inputs": [
        {
          "internalType": "address",
          "name": "trader",
          "type": "address"
        },
        {
          "internalType": "address",
          "name": "token",
          "type": "address"
        },
        {
          "internalType": "uint256",
          "name": "depositAmount",
          "type": "uint256"
        }
      ],
      "name": "registerDeposit",
      "outputs": [
        {
          "internalType": "uint256",
          "name": "extinguishableDebt",
          "type": "uint256"
        }
      ],
      "stateMutability": "nonpayable",
      "type": "function"
    },
    {
      "inputs": [
        {
          "internalType": "address",
          "name": "trader",
          "type": "address"
        },
        {
          "internalType": "address",
          "name": "tokenFrom",
          "type": "address"
        },
        {
          "internalType": "address",
          "name": "tokenTo",
          "type": "address"
        },
        {
          "internalType": "uint256",
          "name": "inAmount",
          "type": "uint256"
        },
        {
          "internalType": "uint256",
          "name": "outAmount",
          "type": "uint256"
        }
      ],
      "name": "registerTradeAndBorrow",
      "outputs": [
        {
          "internalType": "uint256",
          "name": "extinguishableDebt",
          "type": "uint256"
        },
        {
          "internalType": "uint256",
          "name": "borrowAmount",
          "type": "uint256"
        }
      ],
      "stateMutability": "nonpayable",
      "type": "function"
    },
    {
      "inputs": [
        {
          "internalType": "address",
          "name": "trader",
          "type": "address"
        },
        {
          "internalType": "address",
          "name": "withdrawToken",
          "type": "address"
        },
        {
          "internalType": "uint256",
          "name": "withdrawAmount",
          "type": "uint256"
        }
      ],
      "name": "registerWithdrawal",
      "outputs": [],
      "stateMutability": "nonpayable",
      "type": "function"
    },
    {
      "inputs": [],
      "name": "renounceOwnership",
      "outputs": [],
      "stateMutability": "nonpayable",
      "type": "function"
    },
    {
      "inputs": [],
      "name": "roles",
      "outputs": [
        {
          "internalType": "contract Roles",
          "name": "",
          "type": "address"
        }
      ],
      "stateMutability": "view",
      "type": "function"
    },
    {
      "inputs": [
        {
          "internalType": "uint256",
          "name": "_leverage",
          "type": "uint256"
        }
      ],
      "name": "setLeverage",
      "outputs": [],
      "stateMutability": "nonpayable",
      "type": "function"
    },
    {
      "inputs": [
        {
          "internalType": "uint256",
          "name": "threshold",
          "type": "uint256"
        }
      ],
      "name": "setLiquidationThresholdPercent",
      "outputs": [],
      "stateMutability": "nonpayable",
      "type": "function"
    },
    {
      "inputs": [
        {
          "internalType": "address",
          "name": "token",
          "type": "address"
        },
        {
          "internalType": "uint256",
          "name": "cap",
          "type": "uint256"
        }
      ],
      "name": "setTokenCap",
      "outputs": [],
      "stateMutability": "nonpayable",
      "type": "function"
    },
    {
      "inputs": [
        {
          "internalType": "address",
          "name": "",
          "type": "address"
        }
      ],
      "name": "tokenCaps",
      "outputs": [
        {
          "internalType": "uint256",
          "name": "",
          "type": "uint256"
        }
      ],
      "stateMutability": "view",
      "type": "function"
    },
    {
      "inputs": [
        {
          "internalType": "address",
          "name": "",
          "type": "address"
        }
      ],
      "name": "totalLong",
      "outputs": [
        {
          "internalType": "uint256",
          "name": "",
          "type": "uint256"
        }
      ],
      "stateMutability": "view",
      "type": "function"
    },
    {
      "inputs": [
        {
          "internalType": "address",
          "name": "",
          "type": "address"
        }
      ],
      "name": "totalShort",
      "outputs": [
        {
          "internalType": "uint256",
          "name": "",
          "type": "uint256"
        }
      ],
      "stateMutability": "view",
      "type": "function"
    },
    {
      "inputs": [
        {
          "internalType": "address",
          "name": "newOwner",
          "type": "address"
        }
      ],
      "name": "transferOwnership",
      "outputs": [],
      "stateMutability": "nonpayable",
      "type": "function"
    }
  ],
  "bytecode": "0x60806040526050600d553480156200001657600080fd5b5060405162003c6238038062003c628339810160408190526200003991620000bc565b600080546001600160a01b0319166001600160a01b0383161781556200005e620000b8565b600180546001600160a01b0319166001600160a01b038316908117909155604051919250906000907f8be0079c531659141344cd1fd0a4f28419497f9722a3daafe3b4186f6b6457e0908290a350506014600355620000ec565b3390565b600060208284031215620000ce578081fd5b81516001600160a01b0381168114620000e5578182fd5b9392505050565b613b6680620000fc6000396000f3fe608060405234801561001057600080fd5b50600436106102775760003560e01c80635c275a3911610160578063a94c7c34116100d8578063d0eb66531161008c578063d5d7ed7f11610071578063d5d7ed7f14610469578063e0f3871f14610471578063f2fde38b1461048457610277565b8063d0eb665314610443578063d510c5351461045657610277565b8063bc44dcbc116100bd578063bc44dcbc14610420578063c76139d014610433578063cacf8d451461043b57610277565b8063a94c7c3414610410578063a9cc05361461041857610277565b806379575b231161012f57806383a49c7c1161011457806383a49c7c146103f85780638da5cb5b14610400578063a0098d691461040857610277565b806379575b23146103dd57806381ca6600146103f057610277565b80635c275a39146103b25780636612ce35146103ba57806366941984146103cd578063715018a6146103d557610277565b8063320d2fa0116101f3578063409fdb72116101c257806348fb27b8116101a757806348fb27b814610384578063498d55eb1461038c57806352a664d91461039f57610277565b8063409fdb721461035b57806346b887961461037c57610277565b8063320d2fa01461031557806332fe7b261461031d5780633500aa0b14610325578063392f5f641461034657610277565b80631d47e4a31161024a5780632a0acc6a1161022f5780632a0acc6a146102fd5780632c86d98e146103055780632fe94def1461030d57610277565b80631d47e4a3146102d757806320c27126146102ea57610277565b8063065d570f1461027c5780630f0f54361461029a57806316317e7e146102ba5780631bc5d81d146102cf575b600080fd5b610284610497565b6040516102919190613956565b60405180910390f35b6102ad6102a83660046133b4565b61049c565b604051610291919061398f565b6102cd6102c83660046134ca565b6108b5565b005b610284610936565b6102cd6102e5366004613389565b61093b565b6102ad6102f83660046132b0565b6109a3565b6102846109b5565b6102ad6109ba565b6102846109c0565b6102ad6109c5565b6102846109cb565b6103386103333660046132ef565b6109d0565b6040516102919291906139c4565b61034e610ce4565b60405161029191906134fa565b61036e6103693660046132b0565b610d00565b604051610291929190613572565b610284610ef6565b610284610efb565b6102cd61039a366004613349565b610f00565b6102ad6103ad366004613349565b61108f565b610284611254565b6102ad6103c8366004613349565b611259565b61028461131d565b6102cd611322565b6102cd6103eb3660046134ca565b611404565b61028461147c565b610284611481565b61034e611486565b6102846114a2565b6102846114a7565b6102846114ac565b6102ad61042e3660046132b0565b6114b1565b6102846114c3565b6102846114c8565b6102cd610451366004613349565b6114cd565b61036e6104643660046132b0565b6115f0565b610284611868565b6102ad61047f3660046132b0565b61186d565b6102cd6104923660046132b0565b61187f565b600381565b6000806104a76119cd565b73ffffffffffffffffffffffffffffffffffffffff16637b23cbce336040518263ffffffff1660e01b81526004016104df91906134fa565b602060405180830381600087803b1580156104f957600080fd5b505af115801561050d573d6000803e3d6000fd5b505050506040513d601f19601f8201168201806040525081019061053191906134aa565b9050600061053f8583611a7a565b905061054b81846139d2565b925060006105576121cb565b90506000610563612328565b9050818111156105ae577f3555ffae7677eb42103f0b9e11b61c758f452fae446684dec7a363dd38ab58fc6105988383613a60565b6040516105a5919061398f565b60405180910390a15b60005b600b548110156108aa576000600b82815481106105f7577f4e487b7100000000000000000000000000000000000000000000000000000000600052603260045260246000fd5b600091825260208083209091015473ffffffffffffffffffffffffffffffffffffffff16808352600490915260408220909250906106348261247e565b9050600061064183612498565b90506000600280546064600354856106599190613a23565b61066391906139ea565b61066d91906139ea565b61067791906139ea565b9050891561069057610689818c6139d2565b9a506106f3565b73ffffffffffffffffffffffffffffffffffffffff8581166000908152600c60205260409020600181018390556002810180547fffffffffffffffffffffffff000000000000000000000000000000000000000016928f16929092179091554390555b6106fd82826139d2565b83106108375761070b6124ab565b73ffffffffffffffffffffffffffffffffffffffff1663d9caed1261072e612503565b73ffffffffffffffffffffffffffffffffffffffff16631f1cb62b6040518163ffffffff1660e01b815260040160206040518083038186803b15801561077357600080fd5b505afa158015610787573d6000803e3d6000fd5b505050506040513d601f19601f820116820180604052508101906107ab91906132d3565b87846107b78789613a60565b6107c19190613a60565b6040518463ffffffff1660e01b81526004016107df9392919061351b565b602060405180830381600087803b1580156107f957600080fd5b505af115801561080d573d6000803e3d6000fd5b505050506040513d601f19601f8201168201806040525081019061083191906134aa565b50610889565b60008361084483856139d2565b61084e9190613a60565b90507f3555ffae7677eb42103f0b9e11b61c758f452fae446684dec7a363dd38ab58fc8160405161087f919061398f565b60405180910390a1505b6108928461255b565b505050505080806108a290613a77565b9150506105b1565b505050505092915050565b6108bd6126d7565b73ffffffffffffffffffffffffffffffffffffffff166108db611486565b73ffffffffffffffffffffffffffffffffffffffff1614610931576040517f08c379a00000000000000000000000000000000000000000000000000000000081526004016109289061380a565b60405180910390fd5b600355565b600881565b610944336126db565b61097a576040517f08c379a000000000000000000000000000000000000000000000000000000000815260040161092890613602565b73ffffffffffffffffffffffffffffffffffffffff909116600090815260056020526040902055565b60076020526000908152604090205481565b606b81565b60025481565b606981565b60035481565b606781565b6000806109dc33612785565b610a12576040517f08c379a00000000000000000000000000000000000000000000000000000000081526004016109289061365f565b73ffffffffffffffffffffffffffffffffffffffff808816600090815260046020908152604080832093891683526001840190915290205415610aca5773ffffffffffffffffffffffffffffffffffffffff86166000908152600182016020526040902054610a829085906127de565b9250610a8f8187856127f8565b73ffffffffffffffffffffffffffffffffffffffff861660009081526006602052604081208054859290610ac4908490613a60565b90915550505b73ffffffffffffffffffffffffffffffffffffffff871660009081526007602052604081208054879290610aff908490613a60565b90915550610b0f90508385613a60565b73ffffffffffffffffffffffffffffffffffffffff871660009081526007602052604081208054909190610b449084906139d2565b909155505073ffffffffffffffffffffffffffffffffffffffff86166000908152600760209081526040808320546005909252909120541015610bb3576040517f08c379a00000000000000000000000000000000000000000000000000000000081526004016109289061383f565b73ffffffffffffffffffffffffffffffffffffffff871660009081526004820160205260409020548590811115610ccb575073ffffffffffffffffffffffffffffffffffffffff87166000908152600482016020526040902054610c178187613a60565b73ffffffffffffffffffffffffffffffffffffffff8916600090815260066020526040812080549295508592909190610c519084906139d2565b909155505073ffffffffffffffffffffffffffffffffffffffff88166000908152600660209081526040808320546005909252909120541015610cc0576040517f08c379a00000000000000000000000000000000000000000000000000000000081526004016109289061383f565b610ccb82898561296f565b610cd88289898489612c12565b50509550959350505050565b60005473ffffffffffffffffffffffffffffffffffffffff1681565b73ffffffffffffffffffffffffffffffffffffffff8116600090815260046020908152604091829020600381018054845181850281018501909552808552606094859490929190830182828015610d8d57602002820191906000526020600020905b815473ffffffffffffffffffffffffffffffffffffffff168152600190910190602001808311610d62575b5050506003840154929550505067ffffffffffffffff811115610dd9577f4e487b7100000000000000000000000000000000000000000000000000000000600052604160045260246000fd5b604051908082528060200260200182016040528015610e02578160200160208202803683370190505b50915060005b8084511115610eef576000848281518110610e4c577f4e487b7100000000000000000000000000000000000000000000000000000000600052603260045260246000fd5b602002602001015190508260040160008273ffffffffffffffffffffffffffffffffffffffff1673ffffffffffffffffffffffffffffffffffffffff16815260200190815260200160002054848381518110610ed1577f4e487b7100000000000000000000000000000000000000000000000000000000600052603260045260246000fd5b60209081029190910101525080610ee781613a77565b915050610e08565b5050915091565b600681565b606681565b610f0933612785565b610f3f576040517f08c379a0000000000000000000000000000000000000000000000000000000008152600401610928906138f9565b73ffffffffffffffffffffffffffffffffffffffff821660009081526006602052604081208054839290610f749084906139d2565b909155505073ffffffffffffffffffffffffffffffffffffffff821660009081526007602052604081208054839290610fae9084906139d2565b909155505073ffffffffffffffffffffffffffffffffffffffff821660009081526006602090815260408083205460059092529091205410801590611023575073ffffffffffffffffffffffffffffffffffffffff821660009081526007602090815260408083205460059092529091205410155b611059576040517f08c379a00000000000000000000000000000000000000000000000000000000081526004016109289061383f565b73ffffffffffffffffffffffffffffffffffffffff8316600090815260046020526040902061108981848461296f565b50505050565b600061109a33612785565b6110d0576040517f08c379a0000000000000000000000000000000000000000000000000000000008152600401610928906138f9565b73ffffffffffffffffffffffffffffffffffffffff8316600090815260076020526040812080548492906111059084906139d2565b909155505073ffffffffffffffffffffffffffffffffffffffff83166000908152600760209081526040808320546005909252909120541015611174576040517f08c379a00000000000000000000000000000000000000000000000000000000081526004016109289061383f565b73ffffffffffffffffffffffffffffffffffffffff841660009081526004602052604090206111a4818585612c7f565b73ffffffffffffffffffffffffffffffffffffffff841660009081526001820160205260409020541561124c5773ffffffffffffffffffffffffffffffffffffffff841660009081526001820160205260409020546112049084906127de565b91506112118185846127f8565b73ffffffffffffffffffffffffffffffffffffffff841660009081526006602052604081208054849290611246908490613a60565b90915550505b509392505050565b606581565b600061126433612785565b61129a576040517f08c379a000000000000000000000000000000000000000000000000000000000815260040161092890613750565b73ffffffffffffffffffffffffffffffffffffffff8085166000908152600460208181526040808420948816845291840190529020546112da9084613a60565b91506112e7818584612d24565b61124c576040517f08c379a0000000000000000000000000000000000000000000000000000000008152600401610928906136bc565b600181565b61132a6126d7565b73ffffffffffffffffffffffffffffffffffffffff16611348611486565b73ffffffffffffffffffffffffffffffffffffffff1614611395576040517f08c379a00000000000000000000000000000000000000000000000000000000081526004016109289061380a565b60015460405160009173ffffffffffffffffffffffffffffffffffffffff16907f8be0079c531659141344cd1fd0a4f28419497f9722a3daafe3b4186f6b6457e0908390a3600180547fffffffffffffffffffffffff0000000000000000000000000000000000000000169055565b61140c6126d7565b73ffffffffffffffffffffffffffffffffffffffff1661142a611486565b73ffffffffffffffffffffffffffffffffffffffff1614611477576040517f08c379a00000000000000000000000000000000000000000000000000000000081526004016109289061380a565b600255565b606a81565b600981565b60015473ffffffffffffffffffffffffffffffffffffffff1690565b600281565b600581565b606881565b60066020526000908152604090205481565b606c81565b600481565b6114d633612785565b61150c576040517f08c379a0000000000000000000000000000000000000000000000000000000008152600401610928906138f9565b73ffffffffffffffffffffffffffffffffffffffff80841660009081526004602090815260408083209386168352600790915281208054849290611551908490613a60565b909155505073ffffffffffffffffffffffffffffffffffffffff83166000908152600482016020526040902054611589908390613a60565b73ffffffffffffffffffffffffffffffffffffffff841660009081526004830160205260409020556115ba81612d56565b611089576040517f08c379a0000000000000000000000000000000000000000000000000000000008152600401610928906137ad565b73ffffffffffffffffffffffffffffffffffffffff8116600090815260046020908152604091829020805483518184028101840190945280845260609384939091839183018282801561167957602002820191906000526020600020905b815473ffffffffffffffffffffffffffffffffffffffff16815260019091019060200180831161164e575b50508454939650505067ffffffffffffffff82111590506116c3577f4e487b7100000000000000000000000000000000000000000000000000000000600052604160045260246000fd5b6040519080825280602002602001820160405280156116ec578160200160208202803683370190505b50915060005b8084511115610eef576000848281518110611736577f4e487b7100000000000000000000000000000000000000000000000000000000600052603260045260246000fd5b60200260200101519050611748612da1565b73ffffffffffffffffffffffffffffffffffffffff828116600090815260018601602090815260408083205460028901909252918290205491517f687680ed000000000000000000000000000000000000000000000000000000008152939092169263687680ed926117c1929091869190600401613998565b60206040518083038186803b1580156117d957600080fd5b505afa1580156117ed573d6000803e3d6000fd5b505050506040513d601f19601f8201168201806040525081019061181191906134e2565b84838151811061184a577f4e487b7100000000000000000000000000000000000000000000000000000000600052603260045260246000fd5b6020908102919091010152508061186081613a77565b9150506116f2565b600781565b60056020526000908152604090205481565b6118876126d7565b73ffffffffffffffffffffffffffffffffffffffff166118a5611486565b73ffffffffffffffffffffffffffffffffffffffff16146118f2576040517f08c379a00000000000000000000000000000000000000000000000000000000081526004016109289061380a565b73ffffffffffffffffffffffffffffffffffffffff811661193f576040517f08c379a0000000000000000000000000000000000000000000000000000000008152600401610928906136f3565b60015460405173ffffffffffffffffffffffffffffffffffffffff8084169216907f8be0079c531659141344cd1fd0a4f28419497f9722a3daafe3b4186f6b6457e090600090a3600180547fffffffffffffffffffffffff00000000000000000000000000000000000000001673ffffffffffffffffffffffffffffffffffffffff92909216919091179055565b600080546040517f3c9c8f9c00000000000000000000000000000000000000000000000000000000815273ffffffffffffffffffffffffffffffffffffffff90911690633c9c8f9c90611a2590606b90600401613956565b60206040518083038186803b158015611a3d57600080fd5b505afa158015611a51573d6000803e3d6000fd5b505050506040513d601f19601f82011682018060405250810190611a7591906132d3565b905090565b604080516000808252602082019283905290519091611a9c91600991906131f0565b506040805160008152602081019182905251611aba91600a916131f0565b506040805160008152602081019182905251611ad891600b916131f0565b5060005b80845111156121c4576000848281518110611b20577f4e487b7100000000000000000000000000000000000000000000000000000000600052603260045260246000fd5b602002602001015190506000600460008373ffffffffffffffffffffffffffffffffffffffff1673ffffffffffffffffffffffffffffffffffffffff1681526020019081526020016000209050611b7681612df9565b15611f8557600b805460018101825560009182527f0175b7a638427703f0dbe7bb9bbf987a2551717b34e79f33b5b1008d1fa01db90180547fffffffffffffffffffffffff00000000000000000000000000000000000000001673ffffffffffffffffffffffffffffffffffffffff85161790555b6003820154811015611d63576000826003018281548110611c35577f4e487b7100000000000000000000000000000000000000000000000000000000600052603260045260246000fd5b600091825260208083209091015473ffffffffffffffffffffffffffffffffffffffff16808352600890915260409091206002810154919250904314611d0b5773ffffffffffffffffffffffffffffffffffffffff821660008181526004860160205260408120546001808501919091558184554360028501556009805491820181559091527f6e1540171b6c0c960b71a7020d9f60077f6af931a8bbf590da0223dacf75c7af0180547fffffffffffffffffffffffff0000000000000000000000000000000000000000169091179055611d4e565b73ffffffffffffffffffffffffffffffffffffffff8216600090815260048501602052604081205460018301805491929091611d489084906139d2565b90915550505b50508080611d5b90613a77565b915050611beb565b5060005b8154811015611f83576000826000018281548110611dae577f4e487b7100000000000000000000000000000000000000000000000000000000600052603260045260246000fd5b600091825260208083209091015473ffffffffffffffffffffffffffffffffffffffff1680835260089091526040822090925090611dea612da1565b73ffffffffffffffffffffffffffffffffffffffff1663e7bde5c1846040518263ffffffff1660e01b8152600401611e2291906134fa565b60206040518083038186803b158015611e3a57600080fd5b505afa158015611e4e573d6000803e3d6000fd5b505050506040513d601f19601f82011682018060405250810190611e7291906134e2565b73ffffffffffffffffffffffffffffffffffffffff8416600090815260028701602090815260408083205460018a019092528220549293509091611eb7908490613a23565b611ec191906139ea565b905043836002015414611f525760006001848101829055828555436002860155600a805491820181559091527fc65a7bb8d6351c1cf70c95a316cc6a92839c986682d98bc35f958f4883f9d2a80180547fffffffffffffffffffffffff00000000000000000000000000000000000000001673ffffffffffffffffffffffffffffffffffffffff8616179055611f6c565b80836000016000828254611f6691906139d2565b90915550505b505050508080611f7b90613a77565b915050611d67565b505b73ffffffffffffffffffffffffffffffffffffffff82166000908152600c60205260409020600181015415801590611fba5750855b156121ae578054600090611fe590611fd34360016139d2565b611fdd9190613a60565b600d546127de565b90506000600d54836001015483611ffc9190613a23565b61200691906139ea565b90506120106124ab565b73ffffffffffffffffffffffffffffffffffffffff1663d9caed12612033612503565b73ffffffffffffffffffffffffffffffffffffffff16631f1cb62b6040518163ffffffff1660e01b815260040160206040518083038186803b15801561207857600080fd5b505afa15801561208c573d6000803e3d6000fd5b505050506040513d601f19601f820116820180604052508101906120b091906132d3565b60028601546040517fffffffff0000000000000000000000000000000000000000000000000000000060e085901b168152612107929173ffffffffffffffffffffffffffffffffffffffff1690869060040161351b565b602060405180830381600087803b15801561212157600080fd5b505af1158015612135573d6000803e3d6000fd5b505050506040513d601f19601f8201168201806040525081019061215991906134aa565b5080836001015461216a9190613a60565b61217490886139d2565b6000600185018190556002850180547fffffffffffffffffffffffff00000000000000000000000000000000000000001690558455965050505b50505080806121bc90613a77565b915050611adc565b5092915050565b6000805b60095481101561232457600060098281548110612215577f4e487b7100000000000000000000000000000000000000000000000000000000600052603260045260246000fd5b600091825260208083209091015473ffffffffffffffffffffffffffffffffffffffff1680835260089091526040909120805460018201549293509091111561230f578054600182015460009161226b91613a60565b9050612275612503565b73ffffffffffffffffffffffffffffffffffffffff166305883f7c84836040518363ffffffff1660e01b81526004016122af92919061354c565b602060405180830381600087803b1580156122c957600080fd5b505af11580156122dd573d6000803e3d6000fd5b505050506040513d601f19601f8201168201806040525081019061230191906134e2565b61230b90866139d2565b9450505b5050808061231c90613a77565b9150506121cf565b5090565b6000805b600a54811015612324576000600a8281548110612372577f4e487b7100000000000000000000000000000000000000000000000000000000600052603260045260246000fd5b600091825260208083209091015473ffffffffffffffffffffffffffffffffffffffff16808352600890915260409091206001810154815492935090911115612469576123bd612503565b73ffffffffffffffffffffffffffffffffffffffff166305883f7c83836001015484600001546123ed9190613a60565b6040518363ffffffff1660e01b815260040161240a92919061354c565b602060405180830381600087803b15801561242457600080fd5b505af1158015612438573d6000803e3d6000fd5b505050506040513d601f19601f8201168201806040525081019061245c91906134e2565b61246690856139d2565b93505b5050808061247690613a77565b91505061232c565b60006124908260030183600401612e2c565b90505b919050565b6000612490826001810160028201612f7a565b600080546040517f3c9c8f9c00000000000000000000000000000000000000000000000000000000815273ffffffffffffffffffffffffffffffffffffffff90911690633c9c8f9c90611a2590606590600401613956565b600080546040517f3c9c8f9c00000000000000000000000000000000000000000000000000000000815273ffffffffffffffffffffffffffffffffffffffff90911690633c9c8f9c90611a2590606a90600401613956565b60005b81548110156125f65760008260000182815481106125a5577f4e487b7100000000000000000000000000000000000000000000000000000000600052603260045260246000fd5b600091825260208083209091015473ffffffffffffffffffffffffffffffffffffffff16825260018501815260408083208390556002860190915281205550806125ee81613a77565b91505061255e565b5060005b60038201548110156126ba576000826003018281548110612644577f4e487b7100000000000000000000000000000000000000000000000000000000600052603260045260246000fd5b600091825260208083209091015473ffffffffffffffffffffffffffffffffffffffff168252600485018152604080832083905560058601909152902080547fffffffffffffffffffffffffffffffffffffffffffffffffffffffffffffff0016905550806126b281613a77565b9150506125fa565b506126c6816000613276565b6126d4600382016000613276565b50565b3390565b600080546040517fd87fefd200000000000000000000000000000000000000000000000000000000815273ffffffffffffffffffffffffffffffffffffffff9091169063d87fefd290612735906009908690600401613965565b60206040518083038186803b15801561274d57600080fd5b505afa158015612761573d6000803e3d6000fd5b505050506040513d601f19601f8201168201806040525081019061249091906134aa565b600080546040517fd87fefd200000000000000000000000000000000000000000000000000000000815273ffffffffffffffffffffffffffffffffffffffff9091169063d87fefd2906127359060049086908201613965565b6000818311156127ef5750806127f2565b50815b92915050565b612800612da1565b73ffffffffffffffffffffffffffffffffffffffff838116600090815260018601602090815260408083205460028901909252918290205491517fe695fa68000000000000000000000000000000000000000000000000000000008152939092169263e695fa6892612879929091879190600401613998565b602060405180830381600087803b15801561289357600080fd5b505af11580156128a7573d6000803e3d6000fd5b505050506040513d601f19601f820116820180604052508101906128cb91906134e2565b73ffffffffffffffffffffffffffffffffffffffff831660009081526001850160205260409020819055612900908290613a60565b73ffffffffffffffffffffffffffffffffffffffff831660009081526001850160209081526040808320939093556004860190522054612941908290613a60565b73ffffffffffffffffffffffffffffffffffffffff9092166000908152600490930160205250604090912055565b6129798383613022565b612a8a5782546001810184556000848152602090200180547fffffffffffffffffffffffff00000000000000000000000000000000000000001673ffffffffffffffffffffffffffffffffffffffff84161790556129d5612da1565b73ffffffffffffffffffffffffffffffffffffffff1663e7bde5c1836040518263ffffffff1660e01b8152600401612a0d91906134fa565b60206040518083038186803b158015612a2557600080fd5b505afa158015612a39573d6000803e3d6000fd5b505050506040513d601f19601f82011682018060405250810190612a5d91906134e2565b73ffffffffffffffffffffffffffffffffffffffff83166000908152600285016020526040902055612b86565b612a92612da1565b73ffffffffffffffffffffffffffffffffffffffff838116600090815260018601602090815260408083205460028901909252918290205491517fe695fa68000000000000000000000000000000000000000000000000000000008152939092169263e695fa6892612b0b929091879190600401613998565b602060405180830381600087803b158015612b2557600080fd5b505af1158015612b39573d6000803e3d6000fd5b505050506040513d601f19601f82011682018060405250810190612b5d91906134e2565b73ffffffffffffffffffffffffffffffffffffffff831660009081526001850160205260409020555b73ffffffffffffffffffffffffffffffffffffffff8216600090815260018401602052604081208054839290612bbd9084906139d2565b90915550612bce9050838383612c7f565b612bd783612d56565b612c0d576040517f08c379a00000000000000000000000000000000000000000000000000000000081526004016109289061389c565b505050565b73ffffffffffffffffffffffffffffffffffffffff84166000908152600486016020526040902054612c45908390613a60565b73ffffffffffffffffffffffffffffffffffffffff85166000908152600487016020526040902055612c78858483612c7f565b5050505050565b612c898383613050565b612ce357600383018054600181018255600091825260209091200180547fffffffffffffffffffffffff00000000000000000000000000000000000000001673ffffffffffffffffffffffffffffffffffffffff84161790555b73ffffffffffffffffffffffffffffffffffffffff8216600090815260048401602052604081208054839290612d1a9084906139d2565b9091555050505050565b73ffffffffffffffffffffffffffffffffffffffff821660009081526004840160205260409020548111159392505050565b600080612d6283612498565b90506000612d6f8461247e565b905060025482612d7f9190613a23565b600254612d8d9060016139d2565b612d979083613a23565b1015949350505050565b600080546040517f3c9c8f9c00000000000000000000000000000000000000000000000000000000815273ffffffffffffffffffffffffffffffffffffffff90911690633c9c8f9c90611a2590606690600401613956565b600080612e0583612498565b90506000612e128461247e565b9050612e208261044c613a23565b612d97826103e8613a23565b6000805b83548110156121c4576000848281548110612e74577f4e487b7100000000000000000000000000000000000000000000000000000000600052603260045260246000fd5b60009182526020909120015473ffffffffffffffffffffffffffffffffffffffff169050612ea0612503565b73ffffffffffffffffffffffffffffffffffffffff828116600090815260208790526040908190205490517fe47109a9000000000000000000000000000000000000000000000000000000008152929091169163e47109a991612f089185919060040161354c565b602060405180830381600087803b158015612f2257600080fd5b505af1158015612f36573d6000803e3d6000fd5b505050506040513d601f19601f82011682018060405250810190612f5a91906134e2565b612f6490846139d2565b9250508080612f7290613a77565b915050612e30565b6000805b845481101561124c576000858281548110612fc2577f4e487b7100000000000000000000000000000000000000000000000000000000600052603260045260246000fd5b600091825260208083209091015473ffffffffffffffffffffffffffffffffffffffff16808352908790526040909120549091506130029082908661307f565b61300c90846139d2565b925050808061301a90613a77565b915050612f7e565b73ffffffffffffffffffffffffffffffffffffffff1660009081526002919091016020526040902054151590565b73ffffffffffffffffffffffffffffffffffffffff166000908152600591909101602052604090205460ff1690565b60008061308a612da1565b73ffffffffffffffffffffffffffffffffffffffff1663e7bde5c1866040518263ffffffff1660e01b81526004016130c291906134fa565b60206040518083038186803b1580156130da57600080fd5b505afa1580156130ee573d6000803e3d6000fd5b505050506040513d601f19601f8201168201806040525081019061311291906134e2565b73ffffffffffffffffffffffffffffffffffffffff8616600090815260208590526040812054919250906131468387613a23565b61315091906139ea565b905061315a612503565b73ffffffffffffffffffffffffffffffffffffffff1663e47109a987836040518363ffffffff1660e01b815260040161319492919061354c565b602060405180830381600087803b1580156131ae57600080fd5b505af11580156131c2573d6000803e3d6000fd5b505050506040513d601f19601f820116820180604052508101906131e691906134e2565b9695505050505050565b82805482825590600052602060002090810192821561326a579160200282015b8281111561326a57825182547fffffffffffffffffffffffff00000000000000000000000000000000000000001673ffffffffffffffffffffffffffffffffffffffff909116178255602090920191600190910190613210565b50612324929150613290565b50805460008255906000526020600020908101906126d491905b5b808211156123245760008155600101613291565b803561249381613b0e565b6000602082840312156132c1578081fd5b81356132cc81613b0e565b9392505050565b6000602082840312156132e4578081fd5b81516132cc81613b0e565b600080600080600060a08688031215613306578081fd5b853561331181613b0e565b9450602086013561332181613b0e565b9350604086013561333181613b0e565b94979396509394606081013594506080013592915050565b60008060006060848603121561335d578283fd5b833561336881613b0e565b9250602084013561337881613b0e565b929592945050506040919091013590565b6000806040838503121561339b578182fd5b82356133a681613b0e565b946020939093013593505050565b600080604083850312156133c6578182fd5b823567ffffffffffffffff808211156133dd578384fd5b818501915085601f8301126133f0578384fd5b813560208282111561340457613404613adf565b8082026040517fffffffffffffffffffffffffffffffffffffffffffffffffffffffffffffffe0603f8301168101818110868211171561344657613446613adf565b604052838152828101945085830182870184018b1015613464578889fd5b8896505b8487101561348d57613479816132a5565b865260019690960195948301948301613468565b50965061349d90508782016132a5565b9450505050509250929050565b6000602082840312156134bb578081fd5b815180151581146132cc578182fd5b6000602082840312156134db578081fd5b5035919050565b6000602082840312156134f3578081fd5b5051919050565b73ffffffffffffffffffffffffffffffffffffffff91909116815260200190565b73ffffffffffffffffffffffffffffffffffffffff9384168152919092166020820152604081019190915260600190565b73ffffffffffffffffffffffffffffffffffffffff929092168252602082015260400190565b604080825283519082018190526000906020906060840190828701845b828110156135c157815173ffffffffffffffffffffffffffffffffffffffff168452928401929084019060010161358f565b50505083810382850152845180825285830191830190845b818110156135f5578351835292840192918401916001016135d9565b5090979650505050505050565b60208082526026908201527f43616c6c6572206e6f7420617574686f72697a656420746f2073657420746f6b60408201527f656e206361700000000000000000000000000000000000000000000000000000606082015260800190565b60208082526039908201527f43616c6c696e6720636f6e7472616374206973206e6f7420616e20617574686f60408201527f72697a6564206d617267696e20747261646572206167656e7400000000000000606082015260800190565b60208082526018908201527f43616e277420626f72726f772066756c6c20616d6f756e740000000000000000604082015260600190565b60208082526026908201527f4f776e61626c653a206e6577206f776e657220697320746865207a65726f206160408201527f6464726573730000000000000000000000000000000000000000000000000000606082015260800190565b60208082526033908201527f43616c6c696e6720636f6e7472616374206973206e6f7420616e20617574686f60408201527f72697a6564206d617267696e2074726164657200000000000000000000000000606082015260800190565b60208082526026908201527f4163636f756e742062616c616e636520697320746f6f206c6f7720746f20776960408201527f7468647261770000000000000000000000000000000000000000000000000000606082015260800190565b6020808252818101527f4f776e61626c653a2063616c6c6572206973206e6f7420746865206f776e6572604082015260600190565b60208082526039908201527f457863656564696e6720676c6f62616c206578706f737572652063617020746f60408201527f20746f6b656e202d2d2074727920616761696e206c6174657200000000000000606082015260800190565b60208082526022908201527f43616e277420626f72726f773a20696e73756666696369656e742062616c616e60408201527f6365000000000000000000000000000000000000000000000000000000000000606082015260800190565b6020808252602a908201527f43616c6c696e6720636f6e7472616374206e6f7420617574686f72697a65642060408201527f746f206465706f73697400000000000000000000000000000000000000000000606082015260800190565b61ffff91909116815260200190565b61ffff92909216825273ffffffffffffffffffffffffffffffffffffffff16602082015260400190565b90815260200190565b92835273ffffffffffffffffffffffffffffffffffffffff919091166020830152604082015260600190565b918252602082015260400190565b600082198211156139e5576139e5613ab0565b500190565b600082613a1e577f4e487b710000000000000000000000000000000000000000000000000000000081526012600452602481fd5b500490565b6000817fffffffffffffffffffffffffffffffffffffffffffffffffffffffffffffffff0483118215151615613a5b57613a5b613ab0565b500290565b600082821015613a7257613a72613ab0565b500390565b60007fffffffffffffffffffffffffffffffffffffffffffffffffffffffffffffffff821415613aa957613aa9613ab0565b5060010190565b7f4e487b7100000000000000000000000000000000000000000000000000000000600052601160045260246000fd5b7f4e487b7100000000000000000000000000000000000000000000000000000000600052604160045260246000fd5b73ffffffffffffffffffffffffffffffffffffffff811681146126d457600080fdfea2646970667358221220425ed81071290c1a31e7b9c0e9dfd09e5cdcf85ce3d0a924b58ca2209658e16764736f6c63430008010033",
  "linkReferences": {},
  "deployedLinkReferences": {}
}