{
  "_format": "hh-sol-artifact-1",
  "contractName": "CrossMarginTrading",
  "sourceName": "contracts/CrossMarginTrading.sol",
  "abi": [
    {
      "inputs": [
        {
          "internalType": "address",
          "name": "_roles",
          "type": "address"
        }
      ],
      "stateMutability": "nonpayable",
      "type": "constructor"
    },
    {
      "anonymous": false,
      "inputs": [
        {
          "indexed": false,
          "internalType": "uint256",
          "name": "amount",
          "type": "uint256"
        }
      ],
      "name": "LiquidationShortfall",
      "type": "event"
    },
    {
      "anonymous": false,
      "inputs": [
        {
          "indexed": true,
          "internalType": "address",
          "name": "previousOwner",
          "type": "address"
        },
        {
          "indexed": true,
          "internalType": "address",
          "name": "newOwner",
          "type": "address"
        }
      ],
      "name": "OwnershipTransferred",
      "type": "event"
    },
    {
      "inputs": [],
      "name": "ADMIN",
      "outputs": [
        {
          "internalType": "uint16",
          "name": "",
          "type": "uint16"
        }
      ],
      "stateMutability": "view",
      "type": "function"
    },
    {
      "inputs": [],
      "name": "AUTHORIZED_FUND_TRADER",
      "outputs": [
        {
          "internalType": "uint16",
          "name": "",
          "type": "uint16"
        }
      ],
      "stateMutability": "view",
      "type": "function"
    },
    {
      "inputs": [],
      "name": "BORROWER",
      "outputs": [
        {
          "internalType": "uint16",
          "name": "",
          "type": "uint16"
        }
      ],
      "stateMutability": "view",
      "type": "function"
    },
    {
      "inputs": [],
      "name": "FEE_CONTROLLER",
      "outputs": [
        {
          "internalType": "uint16",
          "name": "",
          "type": "uint16"
        }
      ],
      "stateMutability": "view",
      "type": "function"
    },
    {
      "inputs": [],
      "name": "FEE_SOURCE",
      "outputs": [
        {
          "internalType": "uint16",
          "name": "",
          "type": "uint16"
        }
      ],
      "stateMutability": "view",
      "type": "function"
    },
    {
      "inputs": [],
      "name": "FUND",
      "outputs": [
        {
          "internalType": "uint16",
          "name": "",
          "type": "uint16"
        }
      ],
      "stateMutability": "view",
      "type": "function"
    },
    {
      "inputs": [],
      "name": "INCENTIVE_REPORTER",
      "outputs": [
        {
          "internalType": "uint16",
          "name": "",
          "type": "uint16"
        }
      ],
      "stateMutability": "view",
      "type": "function"
    },
    {
      "inputs": [],
      "name": "LENDING",
      "outputs": [
        {
          "internalType": "uint16",
          "name": "",
          "type": "uint16"
        }
      ],
      "stateMutability": "view",
      "type": "function"
    },
    {
      "inputs": [],
      "name": "LIQUIDATOR",
      "outputs": [
        {
          "internalType": "uint16",
          "name": "",
          "type": "uint16"
        }
      ],
      "stateMutability": "view",
      "type": "function"
    },
    {
      "inputs": [],
      "name": "MARGIN_CALLER",
      "outputs": [
        {
          "internalType": "uint16",
          "name": "",
          "type": "uint16"
        }
      ],
      "stateMutability": "view",
      "type": "function"
    },
    {
      "inputs": [],
      "name": "MARGIN_TRADER",
      "outputs": [
        {
          "internalType": "uint16",
          "name": "",
          "type": "uint16"
        }
      ],
      "stateMutability": "view",
      "type": "function"
    },
    {
      "inputs": [],
      "name": "MARGIN_TRADING",
      "outputs": [
        {
          "internalType": "uint16",
          "name": "",
          "type": "uint16"
        }
      ],
      "stateMutability": "view",
      "type": "function"
    },
    {
      "inputs": [],
      "name": "PRICE_CONTROLLER",
      "outputs": [
        {
          "internalType": "uint16",
          "name": "",
          "type": "uint16"
        }
      ],
      "stateMutability": "view",
      "type": "function"
    },
    {
      "inputs": [],
      "name": "ROUTER",
      "outputs": [
        {
          "internalType": "uint16",
          "name": "",
          "type": "uint16"
        }
      ],
      "stateMutability": "view",
      "type": "function"
    },
    {
      "inputs": [],
      "name": "TOKEN_ACTIVATOR",
      "outputs": [
        {
          "internalType": "uint16",
          "name": "",
          "type": "uint16"
        }
      ],
      "stateMutability": "view",
      "type": "function"
    },
    {
      "inputs": [],
      "name": "WITHDRAWER",
      "outputs": [
        {
          "internalType": "uint16",
          "name": "",
          "type": "uint16"
        }
      ],
      "stateMutability": "view",
      "type": "function"
    },
    {
      "inputs": [
        {
          "internalType": "address[]",
          "name": "liquidationCandidates",
          "type": "address[]"
        },
        {
          "internalType": "address",
          "name": "currentCaller",
          "type": "address"
        }
      ],
      "name": "callMargin",
      "outputs": [
        {
          "internalType": "uint256",
          "name": "marginCallerCut",
          "type": "uint256"
        }
      ],
      "stateMutability": "nonpayable",
      "type": "function"
    },
    {
      "inputs": [
        {
          "internalType": "address",
          "name": "trader",
          "type": "address"
        }
      ],
      "name": "getBorrowAmounts",
      "outputs": [
        {
          "internalType": "address[]",
          "name": "borrowTokens",
          "type": "address[]"
        },
        {
          "internalType": "uint256[]",
          "name": "borrowAmounts",
          "type": "uint256[]"
        }
      ],
      "stateMutability": "view",
      "type": "function"
    },
    {
      "inputs": [
        {
          "internalType": "address",
          "name": "trader",
          "type": "address"
        }
      ],
      "name": "getHoldingAmounts",
      "outputs": [
        {
          "internalType": "address[]",
          "name": "holdingTokens",
          "type": "address[]"
        },
        {
          "internalType": "uint256[]",
          "name": "holdingAmounts",
          "type": "uint256[]"
        }
      ],
      "stateMutability": "view",
      "type": "function"
    },
    {
      "inputs": [
        {
          "internalType": "address",
          "name": "trader",
          "type": "address"
        },
        {
          "internalType": "address",
          "name": "token",
          "type": "address"
        },
        {
          "internalType": "uint256",
          "name": "amount",
          "type": "uint256"
        }
      ],
      "name": "getTradeBorrowAmount",
      "outputs": [
        {
          "internalType": "uint256",
          "name": "borrowAmount",
          "type": "uint256"
        }
      ],
      "stateMutability": "view",
      "type": "function"
    },
    {
      "inputs": [],
      "name": "leverage",
      "outputs": [
        {
          "internalType": "uint256",
          "name": "",
          "type": "uint256"
        }
      ],
      "stateMutability": "view",
      "type": "function"
    },
    {
      "inputs": [],
      "name": "liquidationThresholdPercent",
      "outputs": [
        {
          "internalType": "uint256",
          "name": "",
          "type": "uint256"
        }
      ],
      "stateMutability": "view",
      "type": "function"
    },
    {
      "inputs": [],
      "name": "owner",
      "outputs": [
        {
          "internalType": "address",
          "name": "",
          "type": "address"
        }
      ],
      "stateMutability": "view",
      "type": "function"
    },
    {
      "inputs": [
        {
          "internalType": "address",
          "name": "trader",
          "type": "address"
        },
        {
          "internalType": "address",
          "name": "borrowToken",
          "type": "address"
        },
        {
          "internalType": "uint256",
          "name": "borrowAmount",
          "type": "uint256"
        }
      ],
      "name": "registerBorrow",
      "outputs": [],
      "stateMutability": "nonpayable",
      "type": "function"
    },
    {
      "inputs": [
        {
          "internalType": "address",
          "name": "trader",
          "type": "address"
        },
        {
          "internalType": "address",
          "name": "token",
          "type": "address"
        },
        {
          "internalType": "uint256",
          "name": "depositAmount",
          "type": "uint256"
        }
      ],
      "name": "registerDeposit",
      "outputs": [
        {
          "internalType": "uint256",
          "name": "extinguishableDebt",
          "type": "uint256"
        }
      ],
      "stateMutability": "nonpayable",
      "type": "function"
    },
    {
      "inputs": [
        {
          "internalType": "address",
          "name": "trader",
          "type": "address"
        },
        {
          "internalType": "address",
          "name": "debtToken",
          "type": "address"
        },
        {
          "internalType": "uint256",
          "name": "extinguishAmount",
          "type": "uint256"
        }
      ],
      "name": "registerPayOff",
      "outputs": [],
      "stateMutability": "nonpayable",
      "type": "function"
    },
    {
      "inputs": [
        {
          "internalType": "address",
          "name": "trader",
          "type": "address"
        },
        {
          "internalType": "address",
          "name": "tokenFrom",
          "type": "address"
        },
        {
          "internalType": "address",
          "name": "tokenTo",
          "type": "address"
        },
        {
          "internalType": "uint256",
          "name": "inAmount",
          "type": "uint256"
        },
        {
          "internalType": "uint256",
          "name": "outAmount",
          "type": "uint256"
        }
      ],
      "name": "registerTradeAndBorrow",
      "outputs": [
        {
          "internalType": "uint256",
          "name": "borrowAmount",
          "type": "uint256"
        }
      ],
      "stateMutability": "nonpayable",
      "type": "function"
    },
    {
      "inputs": [
        {
          "internalType": "address",
          "name": "trader",
          "type": "address"
        },
        {
          "internalType": "address",
          "name": "withdrawToken",
          "type": "address"
        },
        {
          "internalType": "uint256",
          "name": "withdrawAmount",
          "type": "uint256"
        }
      ],
      "name": "registerWithdrawal",
      "outputs": [],
      "stateMutability": "nonpayable",
      "type": "function"
    },
    {
      "inputs": [],
      "name": "renounceOwnership",
      "outputs": [],
      "stateMutability": "nonpayable",
      "type": "function"
    },
    {
      "inputs": [],
      "name": "roles",
      "outputs": [
        {
          "internalType": "contract Roles",
          "name": "",
          "type": "address"
        }
      ],
      "stateMutability": "view",
      "type": "function"
    },
    {
      "inputs": [
        {
          "internalType": "uint256",
          "name": "_leverage",
          "type": "uint256"
        }
      ],
      "name": "setLeverage",
      "outputs": [],
      "stateMutability": "nonpayable",
      "type": "function"
    },
    {
      "inputs": [
        {
          "internalType": "uint256",
          "name": "threshold",
          "type": "uint256"
        }
      ],
      "name": "setLiquidationThresholdPercent",
      "outputs": [],
      "stateMutability": "nonpayable",
      "type": "function"
    },
    {
      "inputs": [
        {
          "internalType": "address",
          "name": "newOwner",
          "type": "address"
        }
      ],
      "name": "transferOwnership",
      "outputs": [],
      "stateMutability": "nonpayable",
      "type": "function"
    }
  ],
  "bytecode": "0x60806040526050600a553480156200001657600080fd5b50604051620035d2380380620035d28339810160408190526200003991620000bc565b600080546001600160a01b0319166001600160a01b0383161781556200005e620000b8565b600180546001600160a01b0319166001600160a01b038316908117909155604051919250906000907f8be0079c531659141344cd1fd0a4f28419497f9722a3daafe3b4186f6b6457e0908290a350506014600355620000ec565b3390565b600060208284031215620000ce578081fd5b81516001600160a01b0381168114620000e5578182fd5b9392505050565b6134d680620000fc6000396000f3fe608060405234801561001057600080fd5b506004361061020b5760003560e01c80635c275a391161012a578063a0098d69116100bd578063cacf8d451161008c578063d510c53511610071578063d510c535146103ae578063d5d7ed7f146103c1578063f2fde38b146103c95761020b565b8063cacf8d4514610393578063d0eb66531461039b5761020b565b8063a0098d6914610368578063a94c7c3414610370578063a9cc053614610378578063b25777ad146103805761020b565b806379575b23116100f957806379575b231461033d57806381ca66001461035057806383a49c7c146103585780638da5cb5b146103605761020b565b80635c275a39146103125780636612ce351461031a578063669419841461032d578063715018a6146103355761020b565b80633500aa0b116101a257806346b887961161017157806346b88796146102dc57806348fb27b8146102e4578063498d55eb146102ec57806352a664d9146102ff5761020b565b80633500aa0b14610280578063387ccdc614610293578063392f5f64146102a6578063409fdb72146102bb5761020b565b80632c86d98e116101de5780632c86d98e146102535780632fe94def14610268578063320d2fa01461027057806332fe7b26146102785761020b565b8063065d570f1461021057806316317e7e1461022e5780631bc5d81d146102435780632a0acc6a1461024b575b600080fd5b6102186103dc565b60405161022591906132d4565b60405180910390f35b61024161023c366004612f02565b6103e1565b005b610218610462565b610218610467565b61025b61046c565b604051610225919061330d565b610218610472565b61025b610477565b61021861047d565b61025b61028e366004612d52565b610482565b61025b6102a1366004612dec565b61055a565b6102ae610973565b6040516102259190612f32565b6102ce6102c9366004612d13565b61098f565b604051610225929190612faa565b610218610b85565b610218610b8a565b6102416102fa366004612dac565b610b8f565b61025b61030d366004612dac565b610c04565b610218610ce0565b61025b610328366004612dac565b610ce5565b610218610da9565b610241610dae565b61024161034b366004612f02565b610e90565b610218610f08565b610218610f0d565b6102ae610f12565b610218610f2e565b610218610f33565b610218610f38565b61024161038e366004612dac565b610f3d565b610218610fb1565b6102416103a9366004612dac565b610fb6565b6102ce6103bc366004612d13565b61109d565b610218611315565b6102416103d7366004612d13565b61131a565b600381565b6103e9611468565b73ffffffffffffffffffffffffffffffffffffffff16610407610f12565b73ffffffffffffffffffffffffffffffffffffffff161461045d576040517f08c379a0000000000000000000000000000000000000000000000000000000008152600401610454906131e5565b60405180910390fd5b600355565b600881565b606b81565b60025481565b606981565b60035481565b606781565b600061048d3361146c565b6104c3576040517f08c379a00000000000000000000000000000000000000000000000000000000081526004016104549061303a565b73ffffffffffffffffffffffffffffffffffffffff8087166000908152600460208181526040808420948a16845291840190529020548490811115610542575073ffffffffffffffffffffffffffffffffffffffff8616600090815260048201602052604090205461053581866133d0565b925061054282888561151d565b61054f82888884886117bb565b505095945050505050565b600080610565611828565b73ffffffffffffffffffffffffffffffffffffffff16637b23cbce336040518263ffffffff1660e01b815260040161059d9190612f32565b602060405180830381600087803b1580156105b757600080fd5b505af11580156105cb573d6000803e3d6000fd5b505050506040513d601f19601f820116820180604052508101906105ef9190612ee2565b905060006105fd85836118d5565b90506106098184613342565b92506000610615612026565b90506000610621612183565b90508181111561066c577f3555ffae7677eb42103f0b9e11b61c758f452fae446684dec7a363dd38ab58fc61065683836133d0565b604051610663919061330d565b60405180910390a15b60005b600854811015610968576000600882815481106106b5577f4e487b7100000000000000000000000000000000000000000000000000000000600052603260045260246000fd5b600091825260208083209091015473ffffffffffffffffffffffffffffffffffffffff16808352600490915260408220909250906106f2826122d9565b905060006106ff836122eb565b90506000600280546064600354856107179190613393565b610721919061335a565b61072b919061335a565b610735919061335a565b9050891561074e57610747818c613342565b9a506107b1565b73ffffffffffffffffffffffffffffffffffffffff8581166000908152600960205260409020600181018390556002810180547fffffffffffffffffffffffff000000000000000000000000000000000000000016928f16929092179091554390555b6107bb8282613342565b83106108f5576107c96122fe565b73ffffffffffffffffffffffffffffffffffffffff1663d9caed126107ec612356565b73ffffffffffffffffffffffffffffffffffffffff16631f1cb62b6040518163ffffffff1660e01b815260040160206040518083038186803b15801561083157600080fd5b505afa158015610845573d6000803e3d6000fd5b505050506040513d601f19601f820116820180604052508101906108699190612d36565b878461087587896133d0565b61087f91906133d0565b6040518463ffffffff1660e01b815260040161089d93929190612f53565b602060405180830381600087803b1580156108b757600080fd5b505af11580156108cb573d6000803e3d6000fd5b505050506040513d601f19601f820116820180604052508101906108ef9190612ee2565b50610947565b6000836109028385613342565b61090c91906133d0565b90507f3555ffae7677eb42103f0b9e11b61c758f452fae446684dec7a363dd38ab58fc8160405161093d919061330d565b60405180910390a1505b610950846123ae565b50505050508080610960906133e7565b91505061066f565b505050505092915050565b60005473ffffffffffffffffffffffffffffffffffffffff1681565b73ffffffffffffffffffffffffffffffffffffffff8116600090815260046020908152604091829020600381018054845181850281018501909552808552606094859490929190830182828015610a1c57602002820191906000526020600020905b815473ffffffffffffffffffffffffffffffffffffffff1681526001909101906020018083116109f1575b5050506003840154929550505067ffffffffffffffff811115610a68577f4e487b7100000000000000000000000000000000000000000000000000000000600052604160045260246000fd5b604051908082528060200260200182016040528015610a91578160200160208202803683370190505b50915060005b8084511115610b7e576000848281518110610adb577f4e487b7100000000000000000000000000000000000000000000000000000000600052603260045260246000fd5b602002602001015190508260040160008273ffffffffffffffffffffffffffffffffffffffff1673ffffffffffffffffffffffffffffffffffffffff16815260200190815260200160002054848381518110610b60577f4e487b7100000000000000000000000000000000000000000000000000000000600052603260045260246000fd5b60209081029190910101525080610b76816133e7565b915050610a97565b5050915091565b600681565b606681565b610b983361146c565b610bce576040517f08c379a000000000000000000000000000000000000000000000000000000000815260040161045490613277565b73ffffffffffffffffffffffffffffffffffffffff83166000908152600460205260409020610bfe81848461151d565b50505050565b6000610c0f3361146c565b610c45576040517f08c379a000000000000000000000000000000000000000000000000000000000815260040161045490613277565b73ffffffffffffffffffffffffffffffffffffffff84166000908152600460205260409020610c7581858561252a565b73ffffffffffffffffffffffffffffffffffffffff8416600090815260018201602052604090205415610cd85773ffffffffffffffffffffffffffffffffffffffff84166000908152600182016020526040902054610cd59084906125cf565b91505b509392505050565b606581565b6000610cf03361146c565b610d26576040517f08c379a00000000000000000000000000000000000000000000000000000000081526004016104549061312b565b73ffffffffffffffffffffffffffffffffffffffff808516600090815260046020818152604080842094881684529184019052902054610d6690846133d0565b9150610d738185846125e9565b610cd8576040517f08c379a000000000000000000000000000000000000000000000000000000000815260040161045490613097565b600181565b610db6611468565b73ffffffffffffffffffffffffffffffffffffffff16610dd4610f12565b73ffffffffffffffffffffffffffffffffffffffff1614610e21576040517f08c379a0000000000000000000000000000000000000000000000000000000008152600401610454906131e5565b60015460405160009173ffffffffffffffffffffffffffffffffffffffff16907f8be0079c531659141344cd1fd0a4f28419497f9722a3daafe3b4186f6b6457e0908390a3600180547fffffffffffffffffffffffff0000000000000000000000000000000000000000169055565b610e98611468565b73ffffffffffffffffffffffffffffffffffffffff16610eb6610f12565b73ffffffffffffffffffffffffffffffffffffffff1614610f03576040517f08c379a0000000000000000000000000000000000000000000000000000000008152600401610454906131e5565b600255565b606a81565b600981565b60015473ffffffffffffffffffffffffffffffffffffffff1690565b600281565b600581565b606881565b610f463361146c565b610f7c576040517f08c379a000000000000000000000000000000000000000000000000000000000815260040161045490613277565b73ffffffffffffffffffffffffffffffffffffffff83166000908152600460205260409020610fac90838361261b565b505050565b600481565b610fbf3361146c565b610ff5576040517f08c379a000000000000000000000000000000000000000000000000000000000815260040161045490613277565b73ffffffffffffffffffffffffffffffffffffffff8084166000908152600460208181526040808420948716845291840190529020546110369083906133d0565b73ffffffffffffffffffffffffffffffffffffffff8416600090815260048301602052604090205561106781612792565b610bfe576040517f08c379a000000000000000000000000000000000000000000000000000000000815260040161045490613188565b73ffffffffffffffffffffffffffffffffffffffff8116600090815260046020908152604091829020805483518184028101840190945280845260609384939091839183018282801561112657602002820191906000526020600020905b815473ffffffffffffffffffffffffffffffffffffffff1681526001909101906020018083116110fb575b50508454939650505067ffffffffffffffff8211159050611170577f4e487b7100000000000000000000000000000000000000000000000000000000600052604160045260246000fd5b604051908082528060200260200182016040528015611199578160200160208202803683370190505b50915060005b8084511115610b7e5760008482815181106111e3577f4e487b7100000000000000000000000000000000000000000000000000000000600052603260045260246000fd5b602002602001015190506111f56127dd565b73ffffffffffffffffffffffffffffffffffffffff828116600090815260018601602090815260408083205460028901909252918290205491517f687680ed000000000000000000000000000000000000000000000000000000008152939092169263687680ed9261126e929091869190600401613316565b60206040518083038186803b15801561128657600080fd5b505afa15801561129a573d6000803e3d6000fd5b505050506040513d601f19601f820116820180604052508101906112be9190612f1a565b8483815181106112f7577f4e487b7100000000000000000000000000000000000000000000000000000000600052603260045260246000fd5b6020908102919091010152508061130d816133e7565b91505061119f565b600781565b611322611468565b73ffffffffffffffffffffffffffffffffffffffff16611340610f12565b73ffffffffffffffffffffffffffffffffffffffff161461138d576040517f08c379a0000000000000000000000000000000000000000000000000000000008152600401610454906131e5565b73ffffffffffffffffffffffffffffffffffffffff81166113da576040517f08c379a0000000000000000000000000000000000000000000000000000000008152600401610454906130ce565b60015460405173ffffffffffffffffffffffffffffffffffffffff8084169216907f8be0079c531659141344cd1fd0a4f28419497f9722a3daafe3b4186f6b6457e090600090a3600180547fffffffffffffffffffffffff00000000000000000000000000000000000000001673ffffffffffffffffffffffffffffffffffffffff92909216919091179055565b3390565b600080546040517fd87fefd200000000000000000000000000000000000000000000000000000000815273ffffffffffffffffffffffffffffffffffffffff9091169063d87fefd2906114c590600490869082016132e3565b60206040518083038186803b1580156114dd57600080fd5b505afa1580156114f1573d6000803e3d6000fd5b505050506040513d601f19601f820116820180604052508101906115159190612ee2565b90505b919050565b6115278383612835565b6116385782546001810184556000848152602090200180547fffffffffffffffffffffffff00000000000000000000000000000000000000001673ffffffffffffffffffffffffffffffffffffffff84161790556115836127dd565b73ffffffffffffffffffffffffffffffffffffffff1663e7bde5c1836040518263ffffffff1660e01b81526004016115bb9190612f32565b60206040518083038186803b1580156115d357600080fd5b505afa1580156115e7573d6000803e3d6000fd5b505050506040513d601f19601f8201168201806040525081019061160b9190612f1a565b73ffffffffffffffffffffffffffffffffffffffff83166000908152600285016020526040902055611734565b6116406127dd565b73ffffffffffffffffffffffffffffffffffffffff838116600090815260018601602090815260408083205460028901909252918290205491517fe695fa68000000000000000000000000000000000000000000000000000000008152939092169263e695fa68926116b9929091879190600401613316565b602060405180830381600087803b1580156116d357600080fd5b505af11580156116e7573d6000803e3d6000fd5b505050506040513d601f19601f8201168201806040525081019061170b9190612f1a565b73ffffffffffffffffffffffffffffffffffffffff831660009081526001850160205260409020555b73ffffffffffffffffffffffffffffffffffffffff821660009081526001840160205260408120805483929061176b908490613342565b9091555061177c905083838361252a565b61178583612792565b610fac576040517f08c379a00000000000000000000000000000000000000000000000000000000081526004016104549061321a565b73ffffffffffffffffffffffffffffffffffffffff841660009081526004860160205260409020546117ee9083906133d0565b73ffffffffffffffffffffffffffffffffffffffff8516600090815260048701602052604090205561182185848361252a565b5050505050565b600080546040517f3c9c8f9c00000000000000000000000000000000000000000000000000000000815273ffffffffffffffffffffffffffffffffffffffff90911690633c9c8f9c9061188090606b906004016132d4565b60206040518083038186803b15801561189857600080fd5b505afa1580156118ac573d6000803e3d6000fd5b505050506040513d601f19601f820116820180604052508101906118d09190612d36565b905090565b6040805160008082526020820192839052905190916118f79160069190612c53565b50604080516000815260208101918290525161191591600791612c53565b50604080516000815260208101918290525161193391600891612c53565b5060005b808451111561201f57600084828151811061197b577f4e487b7100000000000000000000000000000000000000000000000000000000600052603260045260246000fd5b602002602001015190506000600460008373ffffffffffffffffffffffffffffffffffffffff1673ffffffffffffffffffffffffffffffffffffffff16815260200190815260200160002090506119d181612863565b15611de0576008805460018101825560009182527ff3f7a9fe364faab93b216da50a3214154f22a0a2b415b23a84c8169e8b636ee30180547fffffffffffffffffffffffff00000000000000000000000000000000000000001673ffffffffffffffffffffffffffffffffffffffff85161790555b6003820154811015611bbe576000826003018281548110611a90577f4e487b7100000000000000000000000000000000000000000000000000000000600052603260045260246000fd5b600091825260208083209091015473ffffffffffffffffffffffffffffffffffffffff16808352600590915260409091206002810154919250904314611b665773ffffffffffffffffffffffffffffffffffffffff821660008181526004860160205260408120546001808501919091558184554360028501556006805491820181559091527ff652222313e28459528d920b65115c16c04f3efc82aaedc97be59f3f377c0d3f0180547fffffffffffffffffffffffff0000000000000000000000000000000000000000169091179055611ba9565b73ffffffffffffffffffffffffffffffffffffffff8216600090815260048501602052604081205460018301805491929091611ba3908490613342565b90915550505b50508080611bb6906133e7565b915050611a46565b5060005b8154811015611dde576000826000018281548110611c09577f4e487b7100000000000000000000000000000000000000000000000000000000600052603260045260246000fd5b600091825260208083209091015473ffffffffffffffffffffffffffffffffffffffff1680835260059091526040822090925090611c456127dd565b73ffffffffffffffffffffffffffffffffffffffff1663e7bde5c1846040518263ffffffff1660e01b8152600401611c7d9190612f32565b60206040518083038186803b158015611c9557600080fd5b505afa158015611ca9573d6000803e3d6000fd5b505050506040513d601f19601f82011682018060405250810190611ccd9190612f1a565b73ffffffffffffffffffffffffffffffffffffffff8416600090815260028701602090815260408083205460018a019092528220549293509091611d12908490613393565b611d1c919061335a565b905043836002015414611dad57600060018481018290558285554360028601556007805491820181559091527fa66cc928b5edb82af9bd49922954155ab7b0942694bea4ce44661d9a8736c6880180547fffffffffffffffffffffffff00000000000000000000000000000000000000001673ffffffffffffffffffffffffffffffffffffffff8616179055611dc7565b80836000016000828254611dc19190613342565b90915550505b505050508080611dd6906133e7565b915050611bc2565b505b73ffffffffffffffffffffffffffffffffffffffff82166000908152600960205260409020600181015415801590611e155750855b15612009578054600090611e4090611e2e436001613342565b611e3891906133d0565b600a546125cf565b90506000600a54836001015483611e579190613393565b611e61919061335a565b9050611e6b6122fe565b73ffffffffffffffffffffffffffffffffffffffff1663d9caed12611e8e612356565b73ffffffffffffffffffffffffffffffffffffffff16631f1cb62b6040518163ffffffff1660e01b815260040160206040518083038186803b158015611ed357600080fd5b505afa158015611ee7573d6000803e3d6000fd5b505050506040513d601f19601f82011682018060405250810190611f0b9190612d36565b60028601546040517fffffffff0000000000000000000000000000000000000000000000000000000060e085901b168152611f62929173ffffffffffffffffffffffffffffffffffffffff16908690600401612f53565b602060405180830381600087803b158015611f7c57600080fd5b505af1158015611f90573d6000803e3d6000fd5b505050506040513d601f19601f82011682018060405250810190611fb49190612ee2565b50808360010154611fc591906133d0565b611fcf9088613342565b6000600185018190556002850180547fffffffffffffffffffffffff00000000000000000000000000000000000000001690558455965050505b5050508080612017906133e7565b915050611937565b5092915050565b6000805b60065481101561217f57600060068281548110612070577f4e487b7100000000000000000000000000000000000000000000000000000000600052603260045260246000fd5b600091825260208083209091015473ffffffffffffffffffffffffffffffffffffffff1680835260059091526040909120805460018201549293509091111561216a57805460018201546000916120c6916133d0565b90506120d0612356565b73ffffffffffffffffffffffffffffffffffffffff166305883f7c84836040518363ffffffff1660e01b815260040161210a929190612f84565b602060405180830381600087803b15801561212457600080fd5b505af1158015612138573d6000803e3d6000fd5b505050506040513d601f19601f8201168201806040525081019061215c9190612f1a565b6121669086613342565b9450505b50508080612177906133e7565b91505061202a565b5090565b6000805b60075481101561217f576000600782815481106121cd577f4e487b7100000000000000000000000000000000000000000000000000000000600052603260045260246000fd5b600091825260208083209091015473ffffffffffffffffffffffffffffffffffffffff168083526005909152604090912060018101548154929350909111156122c457612218612356565b73ffffffffffffffffffffffffffffffffffffffff166305883f7c838360010154846000015461224891906133d0565b6040518363ffffffff1660e01b8152600401612265929190612f84565b602060405180830381600087803b15801561227f57600080fd5b505af1158015612293573d6000803e3d6000fd5b505050506040513d601f19601f820116820180604052508101906122b79190612f1a565b6122c19085613342565b93505b505080806122d1906133e7565b915050612187565b600061151582600301836004016128bd565b6000611515826001810160028201612a0b565b600080546040517f3c9c8f9c00000000000000000000000000000000000000000000000000000000815273ffffffffffffffffffffffffffffffffffffffff90911690633c9c8f9c90611880906065906004016132d4565b600080546040517f3c9c8f9c00000000000000000000000000000000000000000000000000000000815273ffffffffffffffffffffffffffffffffffffffff90911690633c9c8f9c9061188090606a906004016132d4565b60005b81548110156124495760008260000182815481106123f8577f4e487b7100000000000000000000000000000000000000000000000000000000600052603260045260246000fd5b600091825260208083209091015473ffffffffffffffffffffffffffffffffffffffff1682526001850181526040808320839055600286019091528120555080612441816133e7565b9150506123b1565b5060005b600382015481101561250d576000826003018281548110612497577f4e487b7100000000000000000000000000000000000000000000000000000000600052603260045260246000fd5b600091825260208083209091015473ffffffffffffffffffffffffffffffffffffffff168252600485018152604080832083905560058601909152902080547fffffffffffffffffffffffffffffffffffffffffffffffffffffffffffffff001690555080612505816133e7565b91505061244d565b50612519816000612cd9565b612527600382016000612cd9565b50565b6125348383612ab3565b61258e57600383018054600181018255600091825260209091200180547fffffffffffffffffffffffff00000000000000000000000000000000000000001673ffffffffffffffffffffffffffffffffffffffff84161790555b73ffffffffffffffffffffffffffffffffffffffff82166000908152600484016020526040812080548392906125c5908490613342565b9091555050505050565b6000818311156125e05750806125e3565b50815b92915050565b73ffffffffffffffffffffffffffffffffffffffff821660009081526004840160205260409020548111159392505050565b6126236127dd565b73ffffffffffffffffffffffffffffffffffffffff838116600090815260018601602090815260408083205460028901909252918290205491517fe695fa68000000000000000000000000000000000000000000000000000000008152939092169263e695fa689261269c929091879190600401613316565b602060405180830381600087803b1580156126b657600080fd5b505af11580156126ca573d6000803e3d6000fd5b505050506040513d601f19601f820116820180604052508101906126ee9190612f1a565b73ffffffffffffffffffffffffffffffffffffffff8316600090815260018501602052604090208190556127239082906133d0565b73ffffffffffffffffffffffffffffffffffffffff8316600090815260018501602090815260408083209390935560048601905220546127649082906133d0565b73ffffffffffffffffffffffffffffffffffffffff9092166000908152600490930160205250604090912055565b60008061279e836122eb565b905060006127ab846122d9565b9050600254826127bb9190613393565b6002546127c9906001613342565b6127d39083613393565b1015949350505050565b600080546040517f3c9c8f9c00000000000000000000000000000000000000000000000000000000815273ffffffffffffffffffffffffffffffffffffffff90911690633c9c8f9c90611880906066906004016132d4565b73ffffffffffffffffffffffffffffffffffffffff1660009081526002919091016020526040902054151590565b60008061286f836122eb565b9050600061287c846122d9565b90508160035460025460646128919190613393565b61289b9190613342565b6128a59190613393565b6002546128b29083613393565b6127d3906064613393565b6000805b835481101561201f576000848281548110612905577f4e487b7100000000000000000000000000000000000000000000000000000000600052603260045260246000fd5b60009182526020909120015473ffffffffffffffffffffffffffffffffffffffff169050612931612356565b73ffffffffffffffffffffffffffffffffffffffff828116600090815260208790526040908190205490517fe47109a9000000000000000000000000000000000000000000000000000000008152929091169163e47109a99161299991859190600401612f84565b602060405180830381600087803b1580156129b357600080fd5b505af11580156129c7573d6000803e3d6000fd5b505050506040513d601f19601f820116820180604052508101906129eb9190612f1a565b6129f59084613342565b9250508080612a03906133e7565b9150506128c1565b6000805b8454811015610cd8576000858281548110612a53577f4e487b7100000000000000000000000000000000000000000000000000000000600052603260045260246000fd5b600091825260208083209091015473ffffffffffffffffffffffffffffffffffffffff1680835290879052604090912054909150612a9390829086612ae2565b612a9d9084613342565b9250508080612aab906133e7565b915050612a0f565b73ffffffffffffffffffffffffffffffffffffffff166000908152600591909101602052604090205460ff1690565b600080612aed6127dd565b73ffffffffffffffffffffffffffffffffffffffff1663e7bde5c1866040518263ffffffff1660e01b8152600401612b259190612f32565b60206040518083038186803b158015612b3d57600080fd5b505afa158015612b51573d6000803e3d6000fd5b505050506040513d601f19601f82011682018060405250810190612b759190612f1a565b73ffffffffffffffffffffffffffffffffffffffff861660009081526020859052604081205491925090612ba98387613393565b612bb3919061335a565b9050612bbd612356565b73ffffffffffffffffffffffffffffffffffffffff1663e47109a987836040518363ffffffff1660e01b8152600401612bf7929190612f84565b602060405180830381600087803b158015612c1157600080fd5b505af1158015612c25573d6000803e3d6000fd5b505050506040513d601f19601f82011682018060405250810190612c499190612f1a565b9695505050505050565b828054828255906000526020600020908101928215612ccd579160200282015b82811115612ccd57825182547fffffffffffffffffffffffff00000000000000000000000000000000000000001673ffffffffffffffffffffffffffffffffffffffff909116178255602090920191600190910190612c73565b5061217f929150612cf3565b508054600082559060005260206000209081019061252791905b5b8082111561217f5760008155600101612cf4565b80356115188161347e565b600060208284031215612d24578081fd5b8135612d2f8161347e565b9392505050565b600060208284031215612d47578081fd5b8151612d2f8161347e565b600080600080600060a08688031215612d69578081fd5b8535612d748161347e565b94506020860135612d848161347e565b93506040860135612d948161347e565b94979396509394606081013594506080013592915050565b600080600060608486031215612dc0578283fd5b8335612dcb8161347e565b92506020840135612ddb8161347e565b929592945050506040919091013590565b60008060408385031215612dfe578182fd5b823567ffffffffffffffff80821115612e15578384fd5b818501915085601f830112612e28578384fd5b8135602082821115612e3c57612e3c61344f565b8082026040517fffffffffffffffffffffffffffffffffffffffffffffffffffffffffffffffe0603f83011681018181108682111715612e7e57612e7e61344f565b604052838152828101945085830182870184018b1015612e9c578889fd5b8896505b84871015612ec557612eb181612d08565b865260019690960195948301948301612ea0565b509650612ed59050878201612d08565b9450505050509250929050565b600060208284031215612ef3578081fd5b81518015158114612d2f578182fd5b600060208284031215612f13578081fd5b5035919050565b600060208284031215612f2b578081fd5b5051919050565b73ffffffffffffffffffffffffffffffffffffffff91909116815260200190565b73ffffffffffffffffffffffffffffffffffffffff9384168152919092166020820152604081019190915260600190565b73ffffffffffffffffffffffffffffffffffffffff929092168252602082015260400190565b604080825283519082018190526000906020906060840190828701845b82811015612ff957815173ffffffffffffffffffffffffffffffffffffffff1684529284019290840190600101612fc7565b50505083810382850152845180825285830191830190845b8181101561302d57835183529284019291840191600101613011565b5090979650505050505050565b60208082526039908201527f43616c6c696e6720636f6e7472616374206973206e6f7420616e20617574686f60408201527f72697a6564206d617267696e20747261646572206167656e7400000000000000606082015260800190565b60208082526018908201527f43616e277420626f72726f772066756c6c20616d6f756e740000000000000000604082015260600190565b60208082526026908201527f4f776e61626c653a206e6577206f776e657220697320746865207a65726f206160408201527f6464726573730000000000000000000000000000000000000000000000000000606082015260800190565b60208082526033908201527f43616c6c696e6720636f6e7472616374206973206e6f7420616e20617574686f60408201527f72697a6564206d617267696e2074726164657200000000000000000000000000606082015260800190565b60208082526026908201527f4163636f756e742062616c616e636520697320746f6f206c6f7720746f20776960408201527f7468647261770000000000000000000000000000000000000000000000000000606082015260800190565b6020808252818101527f4f776e61626c653a2063616c6c6572206973206e6f7420746865206f776e6572604082015260600190565b60208082526022908201527f43616e277420626f72726f773a20696e73756666696369656e742062616c616e60408201527f6365000000000000000000000000000000000000000000000000000000000000606082015260800190565b6020808252602a908201527f43616c6c696e6720636f6e7472616374206e6f7420617574686f72697a65642060408201527f746f206465706f73697400000000000000000000000000000000000000000000606082015260800190565b61ffff91909116815260200190565b61ffff92909216825273ffffffffffffffffffffffffffffffffffffffff16602082015260400190565b90815260200190565b92835273ffffffffffffffffffffffffffffffffffffffff919091166020830152604082015260600190565b6000821982111561335557613355613420565b500190565b60008261338e577f4e487b710000000000000000000000000000000000000000000000000000000081526012600452602481fd5b500490565b6000817fffffffffffffffffffffffffffffffffffffffffffffffffffffffffffffffff04831182151516156133cb576133cb613420565b500290565b6000828210156133e2576133e2613420565b500390565b60007fffffffffffffffffffffffffffffffffffffffffffffffffffffffffffffffff82141561341957613419613420565b5060010190565b7f4e487b7100000000000000000000000000000000000000000000000000000000600052601160045260246000fd5b7f4e487b7100000000000000000000000000000000000000000000000000000000600052604160045260246000fd5b73ffffffffffffffffffffffffffffffffffffffff8116811461252757600080fdfea264697066735822122085f9efc7c7e24443543d7108d1915cc86a52f423f3827c65d227114ededb4dd564736f6c63430008010033",
  "linkReferences": {},
  "deployedLinkReferences": {}
}