{
  "_format": "hh-sol-artifact-1",
  "contractName": "CrossMarginTrading",
  "sourceName": "contracts/CrossMarginTrading.sol",
  "abi": [
    {
      "inputs": [
        {
          "internalType": "address",
          "name": "_roles",
          "type": "address"
        }
      ],
      "stateMutability": "nonpayable",
      "type": "constructor"
    },
    {
      "anonymous": false,
      "inputs": [
        {
          "indexed": false,
          "internalType": "uint256",
          "name": "amount",
          "type": "uint256"
        }
      ],
      "name": "LiquidationShortfall",
      "type": "event"
    },
    {
      "anonymous": false,
      "inputs": [
        {
          "indexed": true,
          "internalType": "address",
          "name": "previousOwner",
          "type": "address"
        },
        {
          "indexed": true,
          "internalType": "address",
          "name": "newOwner",
          "type": "address"
        }
      ],
      "name": "OwnershipTransferred",
      "type": "event"
    },
    {
      "inputs": [
        {
          "internalType": "address[]",
          "name": "liquidationCandidates",
          "type": "address[]"
        },
        {
          "internalType": "address",
          "name": "responsibleStaker",
          "type": "address"
        },
        {
          "internalType": "address",
          "name": "currentCaller",
          "type": "address"
        },
        {
          "internalType": "bool",
          "name": "isAuthorized",
          "type": "bool"
        }
      ],
      "name": "callMargin",
      "outputs": [
        {
          "internalType": "uint256",
          "name": "marginCallerCut",
          "type": "uint256"
        }
      ],
      "stateMutability": "nonpayable",
      "type": "function"
    },
    {
      "inputs": [
        {
          "internalType": "address",
          "name": "trader",
          "type": "address"
        }
      ],
      "name": "getBorrowAmounts",
      "outputs": [
        {
          "internalType": "address[]",
          "name": "borrowTokens",
          "type": "address[]"
        },
        {
          "internalType": "uint256[]",
          "name": "borrowAmounts",
          "type": "uint256[]"
        }
      ],
      "stateMutability": "view",
      "type": "function"
    },
    {
      "inputs": [
        {
          "internalType": "address",
          "name": "trader",
          "type": "address"
        }
      ],
      "name": "getHoldingAmounts",
      "outputs": [
        {
          "internalType": "address[]",
          "name": "holdingTokens",
          "type": "address[]"
        },
        {
          "internalType": "uint256[]",
          "name": "holdingAmounts",
          "type": "uint256[]"
        }
      ],
      "stateMutability": "view",
      "type": "function"
    },
    {
      "inputs": [
        {
          "internalType": "address",
          "name": "trader",
          "type": "address"
        },
        {
          "internalType": "address",
          "name": "token",
          "type": "address"
        },
        {
          "internalType": "uint256",
          "name": "amount",
          "type": "uint256"
        }
      ],
      "name": "getTradeBorrowAmount",
      "outputs": [
        {
          "internalType": "uint256",
          "name": "borrowAmount",
          "type": "uint256"
        }
      ],
      "stateMutability": "nonpayable",
      "type": "function"
    },
    {
      "inputs": [],
      "name": "leverage",
      "outputs": [
        {
          "internalType": "uint256",
          "name": "",
          "type": "uint256"
        }
      ],
      "stateMutability": "view",
      "type": "function"
    },
    {
      "inputs": [],
      "name": "liquidationThresholdPercent",
      "outputs": [
        {
          "internalType": "uint256",
          "name": "",
          "type": "uint256"
        }
      ],
      "stateMutability": "view",
      "type": "function"
    },
    {
      "inputs": [],
      "name": "owner",
      "outputs": [
        {
          "internalType": "address",
          "name": "",
          "type": "address"
        }
      ],
      "stateMutability": "view",
      "type": "function"
    },
    {
      "inputs": [
        {
          "internalType": "address",
          "name": "trader",
          "type": "address"
        },
        {
          "internalType": "address",
          "name": "borrowToken",
          "type": "address"
        },
        {
          "internalType": "uint256",
          "name": "borrowAmount",
          "type": "uint256"
        }
      ],
      "name": "registerBorrow",
      "outputs": [],
      "stateMutability": "nonpayable",
      "type": "function"
    },
    {
      "inputs": [
        {
          "internalType": "address",
          "name": "trader",
          "type": "address"
        },
        {
          "internalType": "address",
          "name": "token",
          "type": "address"
        },
        {
          "internalType": "uint256",
          "name": "depositAmount",
          "type": "uint256"
        }
      ],
      "name": "registerDeposit",
      "outputs": [
        {
          "internalType": "uint256",
          "name": "extinguishableDebt",
          "type": "uint256"
        }
      ],
      "stateMutability": "nonpayable",
      "type": "function"
    },
    {
      "inputs": [
        {
          "internalType": "address",
          "name": "trader",
          "type": "address"
        },
        {
          "internalType": "address",
          "name": "debtToken",
          "type": "address"
        },
        {
          "internalType": "uint256",
          "name": "extinguishAmount",
          "type": "uint256"
        }
      ],
      "name": "registerPayOff",
      "outputs": [],
      "stateMutability": "nonpayable",
      "type": "function"
    },
    {
      "inputs": [
        {
          "internalType": "address",
          "name": "trader",
          "type": "address"
        },
        {
          "internalType": "address",
          "name": "tokenFrom",
          "type": "address"
        },
        {
          "internalType": "address",
          "name": "tokenTo",
          "type": "address"
        },
        {
          "internalType": "uint256",
          "name": "inAmount",
          "type": "uint256"
        },
        {
          "internalType": "uint256",
          "name": "outAmount",
          "type": "uint256"
        }
      ],
      "name": "registerTradeAndBorrow",
      "outputs": [
        {
          "internalType": "uint256",
          "name": "borrowAmount",
          "type": "uint256"
        }
      ],
      "stateMutability": "nonpayable",
      "type": "function"
    },
    {
      "inputs": [
        {
          "internalType": "address",
          "name": "trader",
          "type": "address"
        },
        {
          "internalType": "address",
          "name": "withdrawToken",
          "type": "address"
        },
        {
          "internalType": "uint256",
          "name": "withdrawAmount",
          "type": "uint256"
        }
      ],
      "name": "registerWithdrawal",
      "outputs": [],
      "stateMutability": "nonpayable",
      "type": "function"
    },
    {
      "inputs": [],
      "name": "renounceOwnership",
      "outputs": [],
      "stateMutability": "nonpayable",
      "type": "function"
    },
    {
      "inputs": [],
      "name": "roles",
      "outputs": [
        {
          "internalType": "contract Roles",
          "name": "",
          "type": "address"
        }
      ],
      "stateMutability": "view",
      "type": "function"
    },
    {
      "inputs": [
        {
          "internalType": "uint256",
          "name": "_leverage",
          "type": "uint256"
        }
      ],
      "name": "setLeverage",
      "outputs": [],
      "stateMutability": "nonpayable",
      "type": "function"
    },
    {
      "inputs": [
        {
          "internalType": "uint256",
          "name": "threshold",
          "type": "uint256"
        }
      ],
      "name": "setLiquidationThresholdPercent",
      "outputs": [],
      "stateMutability": "nonpayable",
      "type": "function"
    },
    {
      "inputs": [
        {
          "internalType": "address",
          "name": "newOwner",
          "type": "address"
        }
      ],
      "name": "transferOwnership",
      "outputs": [],
      "stateMutability": "nonpayable",
      "type": "function"
    }
  ],
  "bytecode": "0x60806040526050600a553480156200001657600080fd5b506040516200499f3803806200499f83398181016040528101906200003c91906200015d565b80806000806101000a81548173ffffffffffffffffffffffffffffffffffffffff021916908373ffffffffffffffffffffffffffffffffffffffff160217905550506000620000906200013e60201b60201c565b905080600160006101000a81548173ffffffffffffffffffffffffffffffffffffffff021916908373ffffffffffffffffffffffffffffffffffffffff1602179055508073ffffffffffffffffffffffffffffffffffffffff16600073ffffffffffffffffffffffffffffffffffffffff167f8be0079c531659141344cd1fd0a4f28419497f9722a3daafe3b4186f6b6457e060405160405180910390a350601460038190555050620001d7565b600033905090565b6000815190506200015781620001bd565b92915050565b6000602082840312156200017057600080fd5b6000620001808482850162000146565b91505092915050565b600062000196826200019d565b9050919050565b600073ffffffffffffffffffffffffffffffffffffffff82169050919050565b620001c88162000189565b8114620001d457600080fd5b50565b6147b880620001e76000396000f3fe608060405234801561001057600080fd5b506004361061010b5760003560e01c806352a664d9116100a25780638da5cb5b116100715780638da5cb5b146102b9578063b25777ad146102d7578063d0eb6653146102f3578063d510c5351461030f578063f2fde38b146103405761010b565b806352a664d9146102335780636612ce3514610263578063715018a61461029357806379575b231461029d5761010b565b80633500aa0b116100de5780633500aa0b14610198578063392f5f64146101c8578063409fdb72146101e6578063498d55eb146102175761010b565b806315dc6a281461011057806316317e7e146101405780632c86d98e1461015c578063320d2fa01461017a575b600080fd5b61012a60048036038101906101259190613aab565b61035c565b6040516101379190614062565b60405180910390f35b61015a60048036038101906101559190613b4f565b610776565b005b6101646107fc565b6040516101719190614062565b60405180910390f35b610182610802565b60405161018f9190614062565b60405180910390f35b6101b260048036038101906101ad91906139e5565b610808565b6040516101bf9190614062565b60405180910390f35b6101d0610959565b6040516101dd9190613f0c565b60405180910390f35b61020060048036038101906101fb9190613993565b61097d565b60405161020e929190613ed5565b60405180910390f35b610231600480360381019061022c9190613a5c565b610bb9565b005b61024d60048036038101906102489190613a5c565b610c55565b60405161025a9190614062565b60405180910390f35b61027d60048036038101906102789190613a5c565b610d8d565b60405161028a9190614062565b60405180910390f35b61029b610ebb565b005b6102b760048036038101906102b29190613b4f565b610ff8565b005b6102c161107e565b6040516102ce9190613e31565b60405180910390f35b6102f160048036038101906102ec9190613a5c565b6110a8565b005b61030d60048036038101906103089190613a5c565b61113e565b005b61032960048036038101906103249190613993565b6112a9565b604051610337929190613ed5565b60405180910390f35b61035a60048036038101906103559190613993565b6115b9565b005b600061036733611765565b6103a6576040517f08c379a000000000000000000000000000000000000000000000000000000000815260040161039d90614002565b60405180910390fd5b60006103b2868461181b565b905080826103c09190614188565b915060006103cc6121e4565b905060006103d8612389565b905081811115610425577f3555ffae7677eb42103f0b9e11b61c758f452fae446684dec7a363dd38ab58fc828261040f9190614269565b60405161041c9190614062565b60405180910390a15b60005b80600880549050111561076a57600060088281548110610471577f4e487b7100000000000000000000000000000000000000000000000000000000600052603260045260246000fd5b9060005260206000200160009054906101000a900473ffffffffffffffffffffffffffffffffffffffff1690506000600460008373ffffffffffffffffffffffffffffffffffffffff1673ffffffffffffffffffffffffffffffffffffffff168152602001908152602001600020905060006104ec82612528565b905060006104f983612541565b9050600060028054606460035485610511919061420f565b61051b91906141de565b61052591906141de565b61052f91906141de565b90508a1561054a57808a6105439190614188565b99506105e4565b6000600960008773ffffffffffffffffffffffffffffffffffffffff1673ffffffffffffffffffffffffffffffffffffffff16815260200190815260200160002090508181600101819055508c8160020160006101000a81548173ffffffffffffffffffffffffffffffffffffffff021916908373ffffffffffffffffffffffffffffffffffffffff160217905550438160000181905550505b81816105f09190614188565b831061072c576105fe61255e565b73ffffffffffffffffffffffffffffffffffffffff1663d9caed12610621612610565b73ffffffffffffffffffffffffffffffffffffffff16631f1cb62b6040518163ffffffff1660e01b815260040160206040518083038186803b15801561066657600080fd5b505afa15801561067a573d6000803e3d6000fd5b505050506040513d601f19601f8201168201806040525081019061069e91906139bc565b878486886106ac9190614269565b6106b69190614269565b6040518463ffffffff1660e01b81526004016106d493929190613e4c565b602060405180830381600087803b1580156106ee57600080fd5b505af1158015610702573d6000803e3d6000fd5b505050506040513d601f19601f820116820180604052508101906107269190613b26565b50610749565b600083828461073b9190614188565b6107459190614269565b9050505b610752846126c2565b5050505050808061076290614384565b915050610428565b50505050949350505050565b61077e612938565b73ffffffffffffffffffffffffffffffffffffffff1661079c61107e565b73ffffffffffffffffffffffffffffffffffffffff16146107f2576040517f08c379a00000000000000000000000000000000000000000000000000000000081526004016107e990613fe2565b60405180910390fd5b8060038190555050565b60025481565b60035481565b600061081333612940565b610852576040517f08c379a000000000000000000000000000000000000000000000000000000000815260040161084990613f42565b60405180910390fd5b6000600460008873ffffffffffffffffffffffffffffffffffffffff1673ffffffffffffffffffffffffffffffffffffffff168152602001908152602001600020905060008490508160040160008873ffffffffffffffffffffffffffffffffffffffff1673ffffffffffffffffffffffffffffffffffffffff16815260200190815260200160002054851115610941578160040160008873ffffffffffffffffffffffffffffffffffffffff1673ffffffffffffffffffffffffffffffffffffffff16815260200190815260200160002054905080856109339190614269565b92506109408288856129f6565b5b61094e8288888488612d51565b505095945050505050565b60008054906101000a900473ffffffffffffffffffffffffffffffffffffffff1681565b6060806000600460008573ffffffffffffffffffffffffffffffffffffffff1673ffffffffffffffffffffffffffffffffffffffff168152602001908152602001600020905080600301805480602002602001604051908101604052809291908181526020018280548015610a4757602002820191906000526020600020905b8160009054906101000a900473ffffffffffffffffffffffffffffffffffffffff1673ffffffffffffffffffffffffffffffffffffffff16815260200190600101908083116109fd575b50505050509250806003018054905067ffffffffffffffff811115610a95577f4e487b7100000000000000000000000000000000000000000000000000000000600052604160045260246000fd5b604051908082528060200260200182016040528015610ac35781602001602082028036833780820191505090505b50915060005b8084511115610bb2576000848281518110610b0d577f4e487b7100000000000000000000000000000000000000000000000000000000600052603260045260246000fd5b602002602001015190508260040160008273ffffffffffffffffffffffffffffffffffffffff1673ffffffffffffffffffffffffffffffffffffffff16815260200190815260200160002054848381518110610b92577f4e487b7100000000000000000000000000000000000000000000000000000000600052603260045260246000fd5b602002602001018181525050508080610baa90614384565b915050610ac9565b5050915091565b610bc233612940565b610c01576040517f08c379a0000000000000000000000000000000000000000000000000000000008152600401610bf890614042565b60405180910390fd5b6000600460008573ffffffffffffffffffffffffffffffffffffffff1673ffffffffffffffffffffffffffffffffffffffff1681526020019081526020016000209050610c4f8184846129f6565b50505050565b6000610c6033612940565b610c9f576040517f08c379a0000000000000000000000000000000000000000000000000000000008152600401610c9690614042565b60405180910390fd5b6000600460008673ffffffffffffffffffffffffffffffffffffffff1673ffffffffffffffffffffffffffffffffffffffff1681526020019081526020016000209050610ced818585612df5565b60008160010160008673ffffffffffffffffffffffffffffffffffffffff1673ffffffffffffffffffffffffffffffffffffffff168152602001908152602001600020541115610d8557610d82838260010160008773ffffffffffffffffffffffffffffffffffffffff1673ffffffffffffffffffffffffffffffffffffffff16815260200190815260200160002054612ec6565b91505b509392505050565b6000610d9833612940565b610dd7576040517f08c379a0000000000000000000000000000000000000000000000000000000008152600401610dce90613fa2565b60405180910390fd5b6000600460008673ffffffffffffffffffffffffffffffffffffffff1673ffffffffffffffffffffffffffffffffffffffff16815260200190815260200160002090508060040160008573ffffffffffffffffffffffffffffffffffffffff1673ffffffffffffffffffffffffffffffffffffffff1681526020019081526020016000205483610e679190614269565b9150610e74818584612ee2565b610eb3576040517f08c379a0000000000000000000000000000000000000000000000000000000008152600401610eaa90613f62565b60405180910390fd5b509392505050565b610ec3612938565b73ffffffffffffffffffffffffffffffffffffffff16610ee161107e565b73ffffffffffffffffffffffffffffffffffffffff1614610f37576040517f08c379a0000000000000000000000000000000000000000000000000000000008152600401610f2e90613fe2565b60405180910390fd5b600073ffffffffffffffffffffffffffffffffffffffff16600160009054906101000a900473ffffffffffffffffffffffffffffffffffffffff1673ffffffffffffffffffffffffffffffffffffffff167f8be0079c531659141344cd1fd0a4f28419497f9722a3daafe3b4186f6b6457e060405160405180910390a36000600160006101000a81548173ffffffffffffffffffffffffffffffffffffffff021916908373ffffffffffffffffffffffffffffffffffffffff160217905550565b611000612938565b73ffffffffffffffffffffffffffffffffffffffff1661101e61107e565b73ffffffffffffffffffffffffffffffffffffffff1614611074576040517f08c379a000000000000000000000000000000000000000000000000000000000815260040161106b90613fe2565b60405180910390fd5b8060028190555050565b6000600160009054906101000a900473ffffffffffffffffffffffffffffffffffffffff16905090565b6110b133612940565b6110f0576040517f08c379a00000000000000000000000000000000000000000000000000000000081526004016110e790614042565b60405180910390fd5b611139600460008573ffffffffffffffffffffffffffffffffffffffff1673ffffffffffffffffffffffffffffffffffffffff1681526020019081526020016000208383612f32565b505050565b61114733612940565b611186576040517f08c379a000000000000000000000000000000000000000000000000000000000815260040161117d90614042565b60405180910390fd5b6000600460008573ffffffffffffffffffffffffffffffffffffffff1673ffffffffffffffffffffffffffffffffffffffff1681526020019081526020016000209050818160040160008573ffffffffffffffffffffffffffffffffffffffff1673ffffffffffffffffffffffffffffffffffffffff168152602001908152602001600020546112169190614269565b8160040160008573ffffffffffffffffffffffffffffffffffffffff1673ffffffffffffffffffffffffffffffffffffffff16815260200190815260200160002081905550611264816131b8565b6112a3576040517f08c379a000000000000000000000000000000000000000000000000000000000815260040161129a90613fc2565b60405180910390fd5b50505050565b6060806000600460008573ffffffffffffffffffffffffffffffffffffffff1673ffffffffffffffffffffffffffffffffffffffff16815260200190815260200160002090508060000180548060200260200160405190810160405280929190818152602001828054801561137357602002820191906000526020600020905b8160009054906101000a900473ffffffffffffffffffffffffffffffffffffffff1673ffffffffffffffffffffffffffffffffffffffff1681526020019060010190808311611329575b50505050509250806000018054905067ffffffffffffffff8111156113c1577f4e487b7100000000000000000000000000000000000000000000000000000000600052604160045260246000fd5b6040519080825280602002602001820160405280156113ef5781602001602082028036833780820191505090505b50915060005b80845111156115b2576000848281518110611439577f4e487b7100000000000000000000000000000000000000000000000000000000600052603260045260246000fd5b6020026020010151905061144b613206565b73ffffffffffffffffffffffffffffffffffffffff1663687680ed8460010160008473ffffffffffffffffffffffffffffffffffffffff1673ffffffffffffffffffffffffffffffffffffffff16815260200190815260200160002054838660020160008673ffffffffffffffffffffffffffffffffffffffff1673ffffffffffffffffffffffffffffffffffffffff168152602001908152602001600020546040518463ffffffff1660e01b81526004016115099392919061407d565b60206040518083038186803b15801561152157600080fd5b505afa158015611535573d6000803e3d6000fd5b505050506040513d601f19601f820116820180604052508101906115599190613b78565b848381518110611592577f4e487b7100000000000000000000000000000000000000000000000000000000600052603260045260246000fd5b6020026020010181815250505080806115aa90614384565b9150506113f5565b5050915091565b6115c1612938565b73ffffffffffffffffffffffffffffffffffffffff166115df61107e565b73ffffffffffffffffffffffffffffffffffffffff1614611635576040517f08c379a000000000000000000000000000000000000000000000000000000000815260040161162c90613fe2565b60405180910390fd5b600073ffffffffffffffffffffffffffffffffffffffff168173ffffffffffffffffffffffffffffffffffffffff1614156116a5576040517f08c379a000000000000000000000000000000000000000000000000000000000815260040161169c90613f82565b60405180910390fd5b8073ffffffffffffffffffffffffffffffffffffffff16600160009054906101000a900473ffffffffffffffffffffffffffffffffffffffff1673ffffffffffffffffffffffffffffffffffffffff167f8be0079c531659141344cd1fd0a4f28419497f9722a3daafe3b4186f6b6457e060405160405180910390a380600160006101000a81548173ffffffffffffffffffffffffffffffffffffffff021916908373ffffffffffffffffffffffffffffffffffffffff16021790555050565b60008060009054906101000a900473ffffffffffffffffffffffffffffffffffffffff1673ffffffffffffffffffffffffffffffffffffffff1663a716b97f8360016040518363ffffffff1660e01b81526004016117c4929190613e83565b60206040518083038186803b1580156117dc57600080fd5b505afa1580156117f0573d6000803e3d6000fd5b505050506040513d601f19601f820116820180604052508101906118149190613b26565b9050919050565b60008067ffffffffffffffff81111561185d577f4e487b7100000000000000000000000000000000000000000000000000000000600052604160045260246000fd5b60405190808252806020026020018201604052801561188b5781602001602082028036833780820191505090505b50600690805190602001906118a19291906137b7565b50600067ffffffffffffffff8111156118e3577f4e487b7100000000000000000000000000000000000000000000000000000000600052604160045260246000fd5b6040519080825280602002602001820160405280156119115781602001602082028036833780820191505090505b50600790805190602001906119279291906137b7565b50600067ffffffffffffffff811115611969577f4e487b7100000000000000000000000000000000000000000000000000000000600052604160045260246000fd5b6040519080825280602002602001820160405280156119975781602001602082028036833780820191505090505b50600890805190602001906119ad9291906137b7565b5060005b80845111156121dd5760008482815181106119f5577f4e487b7100000000000000000000000000000000000000000000000000000000600052603260045260246000fd5b602002602001015190506000600460008373ffffffffffffffffffffffffffffffffffffffff1673ffffffffffffffffffffffffffffffffffffffff1681526020019081526020016000209050611a4b816132b8565b15611f6b576008829080600181540180825580915050600190039060005260206000200160009091909190916101000a81548173ffffffffffffffffffffffffffffffffffffffff021916908373ffffffffffffffffffffffffffffffffffffffff16021790555060005b8082600301805490501115611cb5576000826003018281548110611b03577f4e487b7100000000000000000000000000000000000000000000000000000000600052603260045260246000fd5b9060005260206000200160009054906101000a900473ffffffffffffffffffffffffffffffffffffffff1690506000600560008373ffffffffffffffffffffffffffffffffffffffff1673ffffffffffffffffffffffffffffffffffffffff168152602001908152602001600020905043816002015414611c43578360040160008373ffffffffffffffffffffffffffffffffffffffff1673ffffffffffffffffffffffffffffffffffffffff168152602001908152602001600020548160010181905550600081600001819055504381600201819055506006829080600181540180825580915050600190039060005260206000200160009091909190916101000a81548173ffffffffffffffffffffffffffffffffffffffff021916908373ffffffffffffffffffffffffffffffffffffffff160217905550611ca0565b8360040160008373ffffffffffffffffffffffffffffffffffffffff1673ffffffffffffffffffffffffffffffffffffffff16815260200190815260200160002054816001016000828254611c989190614188565b925050819055505b50508080611cad90614384565b915050611ab6565b5060005b8082600001805490501115611f69576000826000018281548110611d06577f4e487b7100000000000000000000000000000000000000000000000000000000600052603260045260246000fd5b9060005260206000200160009054906101000a900473ffffffffffffffffffffffffffffffffffffffff1690506000600560008373ffffffffffffffffffffffffffffffffffffffff1673ffffffffffffffffffffffffffffffffffffffff16815260200190815260200160002090506000611d80613206565b73ffffffffffffffffffffffffffffffffffffffff1663e7bde5c1846040518263ffffffff1660e01b8152600401611db89190613e31565b60206040518083038186803b158015611dd057600080fd5b505afa158015611de4573d6000803e3d6000fd5b505050506040513d601f19601f82011682018060405250810190611e089190613b78565b905060008560020160008573ffffffffffffffffffffffffffffffffffffffff1673ffffffffffffffffffffffffffffffffffffffff16815260200190815260200160002054828760010160008773ffffffffffffffffffffffffffffffffffffffff1673ffffffffffffffffffffffffffffffffffffffff16815260200190815260200160002054611e9b919061420f565b611ea591906141de565b905043836002015414611f3657600083600101819055508083600001819055504383600201819055506007849080600181540180825580915050600190039060005260206000200160009091909190916101000a81548173ffffffffffffffffffffffffffffffffffffffff021916908373ffffffffffffffffffffffffffffffffffffffff160217905550611f52565b80836000016000828254611f4a9190614188565b925050819055505b505050508080611f6190614384565b915050611cb9565b505b6000600960008473ffffffffffffffffffffffffffffffffffffffff1673ffffffffffffffffffffffffffffffffffffffff168152602001908152602001600020905060008160010154118015611fbf5750855b156121c7576000611fed8260000154436001611fdb9190614188565b611fe59190614269565b600a54612ec6565b90506000600a54836001015483612004919061420f565b61200e91906141de565b905061201861255e565b73ffffffffffffffffffffffffffffffffffffffff1663d9caed1261203b612610565b73ffffffffffffffffffffffffffffffffffffffff16631f1cb62b6040518163ffffffff1660e01b815260040160206040518083038186803b15801561208057600080fd5b505afa158015612094573d6000803e3d6000fd5b505050506040513d601f19601f820116820180604052508101906120b891906139bc565b8560020160009054906101000a900473ffffffffffffffffffffffffffffffffffffffff16846040518463ffffffff1660e01b81526004016120fc93929190613e4c565b602060405180830381600087803b15801561211657600080fd5b505af115801561212a573d6000803e3d6000fd5b505050506040513d601f19601f8201168201806040525081019061214e9190613b26565b5080836001015461215f9190614269565b8761216a9190614188565b96506000836001018190555060008360020160006101000a81548173ffffffffffffffffffffffffffffffffffffffff021916908373ffffffffffffffffffffffffffffffffffffffff1602179055506000836000018190555050505b50505080806121d590614384565b9150506119b1565b5092915050565b600080600090505b80600680549050111561238557600060068281548110612235577f4e487b7100000000000000000000000000000000000000000000000000000000600052603260045260246000fd5b9060005260206000200160009054906101000a900473ffffffffffffffffffffffffffffffffffffffff1690506000600560008373ffffffffffffffffffffffffffffffffffffffff1673ffffffffffffffffffffffffffffffffffffffff1681526020019081526020016000209050806000015481600101541115612370576000816000015482600101546122cb9190614269565b90506122d5612610565b73ffffffffffffffffffffffffffffffffffffffff166305883f7c84836040518363ffffffff1660e01b815260040161230f929190613eac565b602060405180830381600087803b15801561232957600080fd5b505af115801561233d573d6000803e3d6000fd5b505050506040513d601f19601f820116820180604052508101906123619190613b78565b8561236c9190614188565b9450505b5050808061237d90614384565b9150506121ec565b5090565b600080600090505b806007805490501115612524576000600782815481106123da577f4e487b7100000000000000000000000000000000000000000000000000000000600052603260045260246000fd5b9060005260206000200160009054906101000a900473ffffffffffffffffffffffffffffffffffffffff1690506000600560008373ffffffffffffffffffffffffffffffffffffffff1673ffffffffffffffffffffffffffffffffffffffff168152602001908152602001600020905080600101548160000154111561250f57612462612610565b73ffffffffffffffffffffffffffffffffffffffff166305883f7c83836001015484600001546124929190614269565b6040518363ffffffff1660e01b81526004016124af929190613eac565b602060405180830381600087803b1580156124c957600080fd5b505af11580156124dd573d6000803e3d6000fd5b505050506040513d601f19601f820116820180604052508101906125019190613b78565b8461250c9190614188565b93505b5050808061251c90614384565b915050612391565b5090565b600061253a826003018360040161331f565b9050919050565b6000612557826000018360010184600201613495565b9050919050565b60008060009054906101000a900473ffffffffffffffffffffffffffffffffffffffff1673ffffffffffffffffffffffffffffffffffffffff166336214c7860006040518263ffffffff1660e01b81526004016125bb9190613f27565b60206040518083038186803b1580156125d357600080fd5b505afa1580156125e7573d6000803e3d6000fd5b505050506040513d601f19601f8201168201806040525081019061260b91906139bc565b905090565b60008060009054906101000a900473ffffffffffffffffffffffffffffffffffffffff1673ffffffffffffffffffffffffffffffffffffffff166336214c7860056040518263ffffffff1660e01b815260040161266d9190613f27565b60206040518083038186803b15801561268557600080fd5b505afa158015612699573d6000803e3d6000fd5b505050506040513d601f19601f820116820180604052508101906126bd91906139bc565b905090565b60005b80826000018054905011156127e1576000826000018281548110612712577f4e487b7100000000000000000000000000000000000000000000000000000000600052603260045260246000fd5b9060005260206000200160009054906101000a900473ffffffffffffffffffffffffffffffffffffffff16905060008360010160008373ffffffffffffffffffffffffffffffffffffffff1673ffffffffffffffffffffffffffffffffffffffff1681526020019081526020016000208190555060008360020160008373ffffffffffffffffffffffffffffffffffffffff1673ffffffffffffffffffffffffffffffffffffffff168152602001908152602001600020819055505080806127d990614384565b9150506126c5565b5060005b8082600301805490501115612914576000826003018281548110612832577f4e487b7100000000000000000000000000000000000000000000000000000000600052603260045260246000fd5b9060005260206000200160009054906101000a900473ffffffffffffffffffffffffffffffffffffffff16905060008360040160008373ffffffffffffffffffffffffffffffffffffffff1673ffffffffffffffffffffffffffffffffffffffff1681526020019081526020016000208190555060008360050160008373ffffffffffffffffffffffffffffffffffffffff1673ffffffffffffffffffffffffffffffffffffffff16815260200190815260200160002060006101000a81548160ff02191690831515021790555050808061290c90614384565b9150506127e5565b508060000160006129259190613841565b8060030160006129359190613841565b50565b600033905090565b60008060009054906101000a900473ffffffffffffffffffffffffffffffffffffffff1673ffffffffffffffffffffffffffffffffffffffff1663a716b97f8360036040518363ffffffff1660e01b815260040161299f929190613e83565b60206040518083038186803b1580156129b757600080fd5b505afa1580156129cb573d6000803e3d6000fd5b505050506040513d601f19601f820116820180604052508101906129ef9190613b26565b9050919050565b612a008383613583565b612b435782600001829080600181540180825580915050600190039060005260206000200160009091909190916101000a81548173ffffffffffffffffffffffffffffffffffffffff021916908373ffffffffffffffffffffffffffffffffffffffff160217905550612a71613206565b73ffffffffffffffffffffffffffffffffffffffff1663e7bde5c1836040518263ffffffff1660e01b8152600401612aa99190613e31565b60206040518083038186803b158015612ac157600080fd5b505afa158015612ad5573d6000803e3d6000fd5b505050506040513d601f19601f82011682018060405250810190612af99190613b78565b8360020160008473ffffffffffffffffffffffffffffffffffffffff1673ffffffffffffffffffffffffffffffffffffffff16815260200190815260200160002081905550612ca1565b612b4b613206565b73ffffffffffffffffffffffffffffffffffffffff1663e695fa688460010160008573ffffffffffffffffffffffffffffffffffffffff1673ffffffffffffffffffffffffffffffffffffffff16815260200190815260200160002054848660020160008773ffffffffffffffffffffffffffffffffffffffff1673ffffffffffffffffffffffffffffffffffffffff168152602001908152602001600020546040518463ffffffff1660e01b8152600401612c099392919061407d565b602060405180830381600087803b158015612c2357600080fd5b505af1158015612c37573d6000803e3d6000fd5b505050506040513d601f19601f82011682018060405250810190612c5b9190613b78565b8360010160008473ffffffffffffffffffffffffffffffffffffffff1673ffffffffffffffffffffffffffffffffffffffff168152602001908152602001600020819055505b808360010160008473ffffffffffffffffffffffffffffffffffffffff1673ffffffffffffffffffffffffffffffffffffffff1681526020019081526020016000206000828254612cf29190614188565b92505081905550612d04838383612df5565b612d0d836131b8565b612d4c576040517f08c379a0000000000000000000000000000000000000000000000000000000008152600401612d4390614022565b60405180910390fd5b505050565b818560040160008673ffffffffffffffffffffffffffffffffffffffff1673ffffffffffffffffffffffffffffffffffffffff16815260200190815260200160002054612d9e9190614269565b8560040160008673ffffffffffffffffffffffffffffffffffffffff1673ffffffffffffffffffffffffffffffffffffffff16815260200190815260200160002081905550612dee858483612df5565b5050505050565b612dff83836135d1565b612e695782600301829080600181540180825580915050600190039060005260206000200160009091909190916101000a81548173ffffffffffffffffffffffffffffffffffffffff021916908373ffffffffffffffffffffffffffffffffffffffff1602179055505b808360040160008473ffffffffffffffffffffffffffffffffffffffff1673ffffffffffffffffffffffffffffffffffffffff1681526020019081526020016000206000828254612eba9190614188565b92505081905550505050565b600081831115612ed857819050612edc565b8290505b92915050565b6000818460040160008573ffffffffffffffffffffffffffffffffffffffff1673ffffffffffffffffffffffffffffffffffffffff16815260200190815260200160002054101590509392505050565b612f3a613206565b73ffffffffffffffffffffffffffffffffffffffff1663e695fa688460010160008573ffffffffffffffffffffffffffffffffffffffff1673ffffffffffffffffffffffffffffffffffffffff16815260200190815260200160002054848660020160008773ffffffffffffffffffffffffffffffffffffffff1673ffffffffffffffffffffffffffffffffffffffff168152602001908152602001600020546040518463ffffffff1660e01b8152600401612ff89392919061407d565b602060405180830381600087803b15801561301257600080fd5b505af1158015613026573d6000803e3d6000fd5b505050506040513d601f19601f8201168201806040525081019061304a9190613b78565b8360010160008473ffffffffffffffffffffffffffffffffffffffff1673ffffffffffffffffffffffffffffffffffffffff16815260200190815260200160002081905550808360010160008473ffffffffffffffffffffffffffffffffffffffff1673ffffffffffffffffffffffffffffffffffffffff168152602001908152602001600020546130dc9190614269565b8360010160008473ffffffffffffffffffffffffffffffffffffffff1673ffffffffffffffffffffffffffffffffffffffff16815260200190815260200160002081905550808360040160008473ffffffffffffffffffffffffffffffffffffffff1673ffffffffffffffffffffffffffffffffffffffff1681526020019081526020016000205461316e9190614269565b8360040160008473ffffffffffffffffffffffffffffffffffffffff1673ffffffffffffffffffffffffffffffffffffffff16815260200190815260200160002081905550505050565b6000806131c483612541565b905060006131d184612528565b9050600254826131e1919061420f565b60016002546131f09190614188565b826131fb919061420f565b101592505050919050565b60008060009054906101000a900473ffffffffffffffffffffffffffffffffffffffff1673ffffffffffffffffffffffffffffffffffffffff166336214c7860016040518263ffffffff1660e01b81526004016132639190613f27565b60206040518083038186803b15801561327b57600080fd5b505afa15801561328f573d6000803e3d6000fd5b505050506040513d601f19601f820116820180604052508101906132b391906139bc565b905090565b6000806132c483612541565b905060006132d184612528565b90508160035460025460646132e6919061420f565b6132f09190614188565b6132fa919061420f565b60646002548361330a919061420f565b613314919061420f565b101592505050919050565b600080600090505b838054905081101561348e57600084828154811061336e577f4e487b7100000000000000000000000000000000000000000000000000000000600052603260045260246000fd5b9060005260206000200160009054906101000a900473ffffffffffffffffffffffffffffffffffffffff1690506133a3612610565b73ffffffffffffffffffffffffffffffffffffffff1663e47109a9828660008573ffffffffffffffffffffffffffffffffffffffff1673ffffffffffffffffffffffffffffffffffffffff168152602001908152602001600020546040518363ffffffff1660e01b815260040161341b929190613eac565b602060405180830381600087803b15801561343557600080fd5b505af1158015613449573d6000803e3d6000fd5b505050506040513d601f19601f8201168201806040525081019061346d9190613b78565b836134789190614188565b925050808061348690614384565b915050613327565b5092915050565b600080600090505b848054905081101561357b5760008582815481106134e4577f4e487b7100000000000000000000000000000000000000000000000000000000600052603260045260246000fd5b9060005260206000200160009054906101000a900473ffffffffffffffffffffffffffffffffffffffff16905061355a818660008473ffffffffffffffffffffffffffffffffffffffff1673ffffffffffffffffffffffffffffffffffffffff168152602001908152602001600020548661362a565b836135659190614188565b925050808061357390614384565b91505061349d565b509392505050565b6000808360020160008473ffffffffffffffffffffffffffffffffffffffff1673ffffffffffffffffffffffffffffffffffffffff1681526020019081526020016000205411905092915050565b60008260050160008373ffffffffffffffffffffffffffffffffffffffff1673ffffffffffffffffffffffffffffffffffffffff16815260200190815260200160002060009054906101000a900460ff16905092915050565b600080613635613206565b73ffffffffffffffffffffffffffffffffffffffff1663e7bde5c1866040518263ffffffff1660e01b815260040161366d9190613e31565b60206040518083038186803b15801561368557600080fd5b505afa158015613699573d6000803e3d6000fd5b505050506040513d601f19601f820116820180604052508101906136bd9190613b78565b905060008360008773ffffffffffffffffffffffffffffffffffffffff1673ffffffffffffffffffffffffffffffffffffffff16815260200190815260200160002054828661370c919061420f565b61371691906141de565b9050613720612610565b73ffffffffffffffffffffffffffffffffffffffff1663e47109a987836040518363ffffffff1660e01b815260040161375a929190613eac565b602060405180830381600087803b15801561377457600080fd5b505af1158015613788573d6000803e3d6000fd5b505050506040513d601f19601f820116820180604052508101906137ac9190613b78565b925050509392505050565b828054828255906000526020600020908101928215613830579160200282015b8281111561382f5782518260006101000a81548173ffffffffffffffffffffffffffffffffffffffff021916908373ffffffffffffffffffffffffffffffffffffffff160217905550916020019190600101906137d7565b5b50905061383d9190613862565b5090565b508054600082559060005260206000209081019061385f9190613862565b50565b5b8082111561387b576000816000905550600101613863565b5090565b600061389261388d846140d9565b6140b4565b905080838252602082019050828560208602820111156138b157600080fd5b60005b858110156138e157816138c788826138eb565b8452602084019350602083019250506001810190506138b4565b5050509392505050565b6000813590506138fa8161473d565b92915050565b60008151905061390f8161473d565b92915050565b600082601f83011261392657600080fd5b813561393684826020860161387f565b91505092915050565b60008135905061394e81614754565b92915050565b60008151905061396381614754565b92915050565b6000813590506139788161476b565b92915050565b60008151905061398d8161476b565b92915050565b6000602082840312156139a557600080fd5b60006139b3848285016138eb565b91505092915050565b6000602082840312156139ce57600080fd5b60006139dc84828501613900565b91505092915050565b600080600080600060a086880312156139fd57600080fd5b6000613a0b888289016138eb565b9550506020613a1c888289016138eb565b9450506040613a2d888289016138eb565b9350506060613a3e88828901613969565b9250506080613a4f88828901613969565b9150509295509295909350565b600080600060608486031215613a7157600080fd5b6000613a7f868287016138eb565b9350506020613a90868287016138eb565b9250506040613aa186828701613969565b9150509250925092565b60008060008060808587031215613ac157600080fd5b600085013567ffffffffffffffff811115613adb57600080fd5b613ae787828801613915565b9450506020613af8878288016138eb565b9350506040613b09878288016138eb565b9250506060613b1a8782880161393f565b91505092959194509250565b600060208284031215613b3857600080fd5b6000613b4684828501613954565b91505092915050565b600060208284031215613b6157600080fd5b6000613b6f84828501613969565b91505092915050565b600060208284031215613b8a57600080fd5b6000613b988482850161397e565b91505092915050565b6000613bad8383613bd1565b60208301905092915050565b6000613bc58383613e13565b60208301905092915050565b613bda8161429d565b82525050565b613be98161429d565b82525050565b6000613bfa82614125565b613c048185614155565b9350613c0f83614105565b8060005b83811015613c40578151613c278882613ba1565b9750613c328361413b565b925050600181019050613c13565b5085935050505092915050565b6000613c5882614130565b613c628185614166565b9350613c6d83614115565b8060005b83811015613c9e578151613c858882613bb9565b9750613c9083614148565b925050600181019050613c71565b5085935050505092915050565b613cb48161430b565b82525050565b613cc38161432f565b82525050565b613cd281614341565b82525050565b6000613ce5603983614177565b9150613cf08261449a565b604082019050919050565b6000613d08601883614177565b9150613d13826144e9565b602082019050919050565b6000613d2b602683614177565b9150613d3682614512565b604082019050919050565b6000613d4e603383614177565b9150613d5982614561565b604082019050919050565b6000613d71602683614177565b9150613d7c826145b0565b604082019050919050565b6000613d94602083614177565b9150613d9f826145ff565b602082019050919050565b6000613db7602f83614177565b9150613dc282614628565b604082019050919050565b6000613dda602283614177565b9150613de582614677565b604082019050919050565b6000613dfd602a83614177565b9150613e08826146c6565b604082019050919050565b613e1c81614301565b82525050565b613e2b81614301565b82525050565b6000602082019050613e466000830184613be0565b92915050565b6000606082019050613e616000830186613be0565b613e6e6020830185613be0565b613e7b6040830184613e22565b949350505050565b6000604082019050613e986000830185613be0565b613ea56020830184613cc9565b9392505050565b6000604082019050613ec16000830185613be0565b613ece6020830184613e22565b9392505050565b60006040820190508181036000830152613eef8185613bef565b90508181036020830152613f038184613c4d565b90509392505050565b6000602082019050613f216000830184613cab565b92915050565b6000602082019050613f3c6000830184613cba565b92915050565b60006020820190508181036000830152613f5b81613cd8565b9050919050565b60006020820190508181036000830152613f7b81613cfb565b9050919050565b60006020820190508181036000830152613f9b81613d1e565b9050919050565b60006020820190508181036000830152613fbb81613d41565b9050919050565b60006020820190508181036000830152613fdb81613d64565b9050919050565b60006020820190508181036000830152613ffb81613d87565b9050919050565b6000602082019050818103600083015261401b81613daa565b9050919050565b6000602082019050818103600083015261403b81613dcd565b9050919050565b6000602082019050818103600083015261405b81613df0565b9050919050565b60006020820190506140776000830184613e22565b92915050565b60006060820190506140926000830186613e22565b61409f6020830185613be0565b6140ac6040830184613e22565b949350505050565b60006140be6140cf565b90506140ca8282614353565b919050565b6000604051905090565b600067ffffffffffffffff8211156140f4576140f361445a565b5b602082029050602081019050919050565b6000819050602082019050919050565b6000819050602082019050919050565b600081519050919050565b600081519050919050565b6000602082019050919050565b6000602082019050919050565b600082825260208201905092915050565b600082825260208201905092915050565b600082825260208201905092915050565b600061419382614301565b915061419e83614301565b9250827fffffffffffffffffffffffffffffffffffffffffffffffffffffffffffffffff038211156141d3576141d26143cd565b5b828201905092915050565b60006141e982614301565b91506141f483614301565b925082614204576142036143fc565b5b828204905092915050565b600061421a82614301565b915061422583614301565b9250817fffffffffffffffffffffffffffffffffffffffffffffffffffffffffffffffff048311821515161561425e5761425d6143cd565b5b828202905092915050565b600061427482614301565b915061427f83614301565b925082821015614292576142916143cd565b5b828203905092915050565b60006142a8826142e1565b9050919050565b60008115159050919050565b60008190506142c982614715565b919050565b60008190506142dc82614729565b919050565b600073ffffffffffffffffffffffffffffffffffffffff82169050919050565b6000819050919050565b60006143168261431d565b9050919050565b6000614328826142e1565b9050919050565b600061433a826142bb565b9050919050565b600061434c826142ce565b9050919050565b61435c82614489565b810181811067ffffffffffffffff8211171561437b5761437a61445a565b5b80604052505050565b600061438f82614301565b91507fffffffffffffffffffffffffffffffffffffffffffffffffffffffffffffffff8214156143c2576143c16143cd565b5b600182019050919050565b7f4e487b7100000000000000000000000000000000000000000000000000000000600052601160045260246000fd5b7f4e487b7100000000000000000000000000000000000000000000000000000000600052601260045260246000fd5b7f4e487b7100000000000000000000000000000000000000000000000000000000600052602160045260246000fd5b7f4e487b7100000000000000000000000000000000000000000000000000000000600052604160045260246000fd5b6000601f19601f8301169050919050565b7f43616c6c696e6720636f6e7472616374206973206e6f7420616e20617574686f60008201527f72697a6564206d617267696e20747261646572206167656e7400000000000000602082015250565b7f43616e277420626f72726f772066756c6c20616d6f756e740000000000000000600082015250565b7f4f776e61626c653a206e6577206f776e657220697320746865207a65726f206160008201527f6464726573730000000000000000000000000000000000000000000000000000602082015250565b7f43616c6c696e6720636f6e7472616374206973206e6f7420616e20617574686f60008201527f72697a6564206d617267696e2074726164657200000000000000000000000000602082015250565b7f4163636f756e742062616c616e636520697320746f6f206c6f7720746f20776960008201527f7468647261770000000000000000000000000000000000000000000000000000602082015250565b7f4f776e61626c653a2063616c6c6572206973206e6f7420746865206f776e6572600082015250565b7f43616c6c696e67206164647265737320646f65736e27742068617665206d617260008201527f67696e2063616c6c657220726f6c650000000000000000000000000000000000602082015250565b7f43616e277420626f72726f773a20696e73756666696369656e742062616c616e60008201527f6365000000000000000000000000000000000000000000000000000000000000602082015250565b7f43616c6c696e6720636f6e7472616374206e6f7420617574686f72697a65642060008201527f746f206465706f73697400000000000000000000000000000000000000000000602082015250565b600681106147265761472561442b565b5b50565b6008811061473a5761473961442b565b5b50565b6147468161429d565b811461475157600080fd5b50565b61475d816142af565b811461476857600080fd5b50565b61477481614301565b811461477f57600080fd5b5056fea2646970667358221220b478fb1c396c766c1b4ec9aa1a5e3a14afa910c84babf7623ffe13564c42982364736f6c63430008010033",
  "linkReferences": {},
  "deployedLinkReferences": {}
}