{
  "_format": "hh-sol-artifact-1",
  "contractName": "CrossMarginTrading",
  "sourceName": "contracts/CrossMarginTrading.sol",
  "abi": [
    {
      "inputs": [
        {
          "internalType": "address",
          "name": "_roles",
          "type": "address"
        }
      ],
      "stateMutability": "nonpayable",
      "type": "constructor"
    },
    {
      "anonymous": false,
      "inputs": [
        {
          "indexed": false,
          "internalType": "uint256",
          "name": "amount",
          "type": "uint256"
        }
      ],
      "name": "LiquidationShortfall",
      "type": "event"
    },
    {
      "anonymous": false,
      "inputs": [
        {
          "indexed": true,
          "internalType": "address",
          "name": "previousOwner",
          "type": "address"
        },
        {
          "indexed": true,
          "internalType": "address",
          "name": "newOwner",
          "type": "address"
        }
      ],
      "name": "OwnershipTransferred",
      "type": "event"
    },
    {
      "inputs": [],
      "name": "AUTHORIZED_FUND_TRADER",
      "outputs": [
        {
          "internalType": "uint16",
          "name": "",
          "type": "uint16"
        }
      ],
      "stateMutability": "view",
      "type": "function"
    },
    {
      "inputs": [],
      "name": "BORROWER",
      "outputs": [
        {
          "internalType": "uint16",
          "name": "",
          "type": "uint16"
        }
      ],
      "stateMutability": "view",
      "type": "function"
    },
    {
      "inputs": [],
      "name": "FEE_CONTROLLER",
      "outputs": [
        {
          "internalType": "uint16",
          "name": "",
          "type": "uint16"
        }
      ],
      "stateMutability": "view",
      "type": "function"
    },
    {
      "inputs": [],
      "name": "FEE_SOURCE",
      "outputs": [
        {
          "internalType": "uint16",
          "name": "",
          "type": "uint16"
        }
      ],
      "stateMutability": "view",
      "type": "function"
    },
    {
      "inputs": [],
      "name": "FUND",
      "outputs": [
        {
          "internalType": "uint16",
          "name": "",
          "type": "uint16"
        }
      ],
      "stateMutability": "view",
      "type": "function"
    },
    {
      "inputs": [],
      "name": "INCENTIVE_REPORTER",
      "outputs": [
        {
          "internalType": "uint16",
          "name": "",
          "type": "uint16"
        }
      ],
      "stateMutability": "view",
      "type": "function"
    },
    {
      "inputs": [],
      "name": "LENDING",
      "outputs": [
        {
          "internalType": "uint16",
          "name": "",
          "type": "uint16"
        }
      ],
      "stateMutability": "view",
      "type": "function"
    },
    {
      "inputs": [],
      "name": "LIQUIDATOR",
      "outputs": [
        {
          "internalType": "uint16",
          "name": "",
          "type": "uint16"
        }
      ],
      "stateMutability": "view",
      "type": "function"
    },
    {
      "inputs": [],
      "name": "MARGIN_CALLER",
      "outputs": [
        {
          "internalType": "uint16",
          "name": "",
          "type": "uint16"
        }
      ],
      "stateMutability": "view",
      "type": "function"
    },
    {
      "inputs": [],
      "name": "MARGIN_TRADER",
      "outputs": [
        {
          "internalType": "uint16",
          "name": "",
          "type": "uint16"
        }
      ],
      "stateMutability": "view",
      "type": "function"
    },
    {
      "inputs": [],
      "name": "MARGIN_TRADING",
      "outputs": [
        {
          "internalType": "uint16",
          "name": "",
          "type": "uint16"
        }
      ],
      "stateMutability": "view",
      "type": "function"
    },
    {
      "inputs": [],
      "name": "PRICE_CONTROLLER",
      "outputs": [
        {
          "internalType": "uint16",
          "name": "",
          "type": "uint16"
        }
      ],
      "stateMutability": "view",
      "type": "function"
    },
    {
      "inputs": [],
      "name": "ROUTER",
      "outputs": [
        {
          "internalType": "uint16",
          "name": "",
          "type": "uint16"
        }
      ],
      "stateMutability": "view",
      "type": "function"
    },
    {
      "inputs": [],
      "name": "TOKEN_ACTIVATOR",
      "outputs": [
        {
          "internalType": "uint16",
          "name": "",
          "type": "uint16"
        }
      ],
      "stateMutability": "view",
      "type": "function"
    },
    {
      "inputs": [],
      "name": "WITHDRAWER",
      "outputs": [
        {
          "internalType": "uint16",
          "name": "",
          "type": "uint16"
        }
      ],
      "stateMutability": "view",
      "type": "function"
    },
    {
      "inputs": [
        {
          "internalType": "address[]",
          "name": "liquidationCandidates",
          "type": "address[]"
        },
        {
          "internalType": "address",
          "name": "currentCaller",
          "type": "address"
        },
        {
          "internalType": "bool",
          "name": "isAuthorized",
          "type": "bool"
        }
      ],
      "name": "callMargin",
      "outputs": [
        {
          "internalType": "uint256",
          "name": "marginCallerCut",
          "type": "uint256"
        }
      ],
      "stateMutability": "nonpayable",
      "type": "function"
    },
    {
      "inputs": [
        {
          "internalType": "address",
          "name": "trader",
          "type": "address"
        }
      ],
      "name": "getBorrowAmounts",
      "outputs": [
        {
          "internalType": "address[]",
          "name": "borrowTokens",
          "type": "address[]"
        },
        {
          "internalType": "uint256[]",
          "name": "borrowAmounts",
          "type": "uint256[]"
        }
      ],
      "stateMutability": "view",
      "type": "function"
    },
    {
      "inputs": [
        {
          "internalType": "address",
          "name": "trader",
          "type": "address"
        }
      ],
      "name": "getHoldingAmounts",
      "outputs": [
        {
          "internalType": "address[]",
          "name": "holdingTokens",
          "type": "address[]"
        },
        {
          "internalType": "uint256[]",
          "name": "holdingAmounts",
          "type": "uint256[]"
        }
      ],
      "stateMutability": "view",
      "type": "function"
    },
    {
      "inputs": [
        {
          "internalType": "address",
          "name": "trader",
          "type": "address"
        },
        {
          "internalType": "address",
          "name": "token",
          "type": "address"
        },
        {
          "internalType": "uint256",
          "name": "amount",
          "type": "uint256"
        }
      ],
      "name": "getTradeBorrowAmount",
      "outputs": [
        {
          "internalType": "uint256",
          "name": "borrowAmount",
          "type": "uint256"
        }
      ],
      "stateMutability": "view",
      "type": "function"
    },
    {
      "inputs": [],
      "name": "leverage",
      "outputs": [
        {
          "internalType": "uint256",
          "name": "",
          "type": "uint256"
        }
      ],
      "stateMutability": "view",
      "type": "function"
    },
    {
      "inputs": [],
      "name": "liquidationThresholdPercent",
      "outputs": [
        {
          "internalType": "uint256",
          "name": "",
          "type": "uint256"
        }
      ],
      "stateMutability": "view",
      "type": "function"
    },
    {
      "inputs": [],
      "name": "owner",
      "outputs": [
        {
          "internalType": "address",
          "name": "",
          "type": "address"
        }
      ],
      "stateMutability": "view",
      "type": "function"
    },
    {
      "inputs": [
        {
          "internalType": "address",
          "name": "trader",
          "type": "address"
        },
        {
          "internalType": "address",
          "name": "borrowToken",
          "type": "address"
        },
        {
          "internalType": "uint256",
          "name": "borrowAmount",
          "type": "uint256"
        }
      ],
      "name": "registerBorrow",
      "outputs": [],
      "stateMutability": "nonpayable",
      "type": "function"
    },
    {
      "inputs": [
        {
          "internalType": "address",
          "name": "trader",
          "type": "address"
        },
        {
          "internalType": "address",
          "name": "token",
          "type": "address"
        },
        {
          "internalType": "uint256",
          "name": "depositAmount",
          "type": "uint256"
        }
      ],
      "name": "registerDeposit",
      "outputs": [
        {
          "internalType": "uint256",
          "name": "extinguishableDebt",
          "type": "uint256"
        }
      ],
      "stateMutability": "nonpayable",
      "type": "function"
    },
    {
      "inputs": [
        {
          "internalType": "address",
          "name": "trader",
          "type": "address"
        },
        {
          "internalType": "address",
          "name": "debtToken",
          "type": "address"
        },
        {
          "internalType": "uint256",
          "name": "extinguishAmount",
          "type": "uint256"
        }
      ],
      "name": "registerPayOff",
      "outputs": [],
      "stateMutability": "nonpayable",
      "type": "function"
    },
    {
      "inputs": [
        {
          "internalType": "address",
          "name": "trader",
          "type": "address"
        },
        {
          "internalType": "address",
          "name": "tokenFrom",
          "type": "address"
        },
        {
          "internalType": "address",
          "name": "tokenTo",
          "type": "address"
        },
        {
          "internalType": "uint256",
          "name": "inAmount",
          "type": "uint256"
        },
        {
          "internalType": "uint256",
          "name": "outAmount",
          "type": "uint256"
        }
      ],
      "name": "registerTradeAndBorrow",
      "outputs": [
        {
          "internalType": "uint256",
          "name": "borrowAmount",
          "type": "uint256"
        }
      ],
      "stateMutability": "nonpayable",
      "type": "function"
    },
    {
      "inputs": [
        {
          "internalType": "address",
          "name": "trader",
          "type": "address"
        },
        {
          "internalType": "address",
          "name": "withdrawToken",
          "type": "address"
        },
        {
          "internalType": "uint256",
          "name": "withdrawAmount",
          "type": "uint256"
        }
      ],
      "name": "registerWithdrawal",
      "outputs": [],
      "stateMutability": "nonpayable",
      "type": "function"
    },
    {
      "inputs": [],
      "name": "renounceOwnership",
      "outputs": [],
      "stateMutability": "nonpayable",
      "type": "function"
    },
    {
      "inputs": [],
      "name": "roles",
      "outputs": [
        {
          "internalType": "contract Roles",
          "name": "",
          "type": "address"
        }
      ],
      "stateMutability": "view",
      "type": "function"
    },
    {
      "inputs": [
        {
          "internalType": "uint256",
          "name": "_leverage",
          "type": "uint256"
        }
      ],
      "name": "setLeverage",
      "outputs": [],
      "stateMutability": "nonpayable",
      "type": "function"
    },
    {
      "inputs": [
        {
          "internalType": "uint256",
          "name": "threshold",
          "type": "uint256"
        }
      ],
      "name": "setLiquidationThresholdPercent",
      "outputs": [],
      "stateMutability": "nonpayable",
      "type": "function"
    },
    {
      "inputs": [
        {
          "internalType": "address",
          "name": "newOwner",
          "type": "address"
        }
      ],
      "name": "transferOwnership",
      "outputs": [],
      "stateMutability": "nonpayable",
      "type": "function"
    }
  ],
  "bytecode": "0x60806040526050600a553480156200001657600080fd5b50604051620035d8380380620035d88339810160408190526200003991620000bc565b600080546001600160a01b0319166001600160a01b0383161781556200005e620000b8565b600180546001600160a01b0319166001600160a01b038316908117909155604051919250906000907f8be0079c531659141344cd1fd0a4f28419497f9722a3daafe3b4186f6b6457e0908290a350506014600355620000ec565b3390565b600060208284031215620000ce578081fd5b81516001600160a01b0381168114620000e5578182fd5b9392505050565b6134dc80620000fc6000396000f3fe608060405234801561001057600080fd5b50600436106101f05760003560e01c8063669419841161010f578063a94c7c34116100a2578063d0eb665311610071578063d0eb665314610378578063d510c5351461038b578063d5d7ed7f1461039e578063f2fde38b146103a6576101f0565b8063a94c7c341461034d578063a9cc053614610355578063b25777ad1461035d578063cacf8d4514610370576101f0565b806383a49c7c116100de57806383a49c7c146103225780638da5cb5b1461032a57806395f23a6214610332578063a0098d6914610345576101f0565b806366941984146102f7578063715018a6146102ff57806379575b231461030757806381ca66001461031a576101f0565b8063392f5f6411610187578063498d55eb11610156578063498d55eb146102b657806352a664d9146102c95780635c275a39146102dc5780636612ce35146102e4576101f0565b8063392f5f6414610270578063409fdb721461028557806346b88796146102a657806348fb27b8146102ae576101f0565b80632fe94def116101c35780632fe94def14610245578063320d2fa01461024d57806332fe7b26146102555780633500aa0b1461025d576101f0565b8063065d570f146101f557806316317e7e146102135780631bc5d81d146102285780632c86d98e14610230575b600080fd5b6101fd6103b9565b60405161020a91906132cc565b60405180910390f35b610226610221366004612e9d565b6103be565b005b6101fd61043f565b610238610444565b60405161020a9190613305565b6101fd61044a565b61023861044f565b6101fd610455565b61023861026b366004612ce1565b61045a565b610278610532565b60405161020a9190612ecd565b610298610293366004612ca2565b61054e565b60405161020a929190612f45565b6101fd610744565b6101fd610749565b6102266102c4366004612d3b565b61074e565b6102386102d7366004612d3b565b6107c3565b6101fd61089f565b6102386102f2366004612d3b565b6108a4565b6101fd610968565b61022661096d565b610226610315366004612e9d565b610a4f565b6101fd610ac7565b6101fd610acc565b610278610ad1565b610238610340366004612d7b565b610aed565b6101fd610eb0565b6101fd610eb5565b6101fd610eba565b61022661036b366004612d3b565b610ebf565b6101fd610f33565b610226610386366004612d3b565b610f38565b610298610399366004612ca2565b61101f565b6101fd611297565b6102266103b4366004612ca2565b61129c565b600381565b6103c66113ea565b73ffffffffffffffffffffffffffffffffffffffff166103e4610ad1565b73ffffffffffffffffffffffffffffffffffffffff161461043a576040517f08c379a000000000000000000000000000000000000000000000000000000000815260040161043190613180565b60405180910390fd5b600355565b600881565b60025481565b606981565b60035481565b606781565b6000610465336113ee565b61049b576040517f08c379a000000000000000000000000000000000000000000000000000000000815260040161043190612fd5565b73ffffffffffffffffffffffffffffffffffffffff8087166000908152600460208181526040808420948a1684529184019052902054849081111561051a575073ffffffffffffffffffffffffffffffffffffffff8616600090815260048201602052604090205461050d81866133c8565b925061051a82888561149f565b610527828888848861173d565b505095945050505050565b60005473ffffffffffffffffffffffffffffffffffffffff1681565b73ffffffffffffffffffffffffffffffffffffffff81166000908152600460209081526040918290206003810180548451818502810185019095528085526060948594909291908301828280156105db57602002820191906000526020600020905b815473ffffffffffffffffffffffffffffffffffffffff1681526001909101906020018083116105b0575b5050506003840154929550505067ffffffffffffffff811115610627577f4e487b7100000000000000000000000000000000000000000000000000000000600052604160045260246000fd5b604051908082528060200260200182016040528015610650578160200160208202803683370190505b50915060005b808451111561073d57600084828151811061069a577f4e487b7100000000000000000000000000000000000000000000000000000000600052603260045260246000fd5b602002602001015190508260040160008273ffffffffffffffffffffffffffffffffffffffff1673ffffffffffffffffffffffffffffffffffffffff1681526020019081526020016000205484838151811061071f577f4e487b7100000000000000000000000000000000000000000000000000000000600052603260045260246000fd5b60209081029190910101525080610735816133df565b915050610656565b5050915091565b600681565b606681565b610757336113ee565b61078d576040517f08c379a00000000000000000000000000000000000000000000000000000000081526004016104319061326f565b73ffffffffffffffffffffffffffffffffffffffff831660009081526004602052604090206107bd81848461149f565b50505050565b60006107ce336113ee565b610804576040517f08c379a00000000000000000000000000000000000000000000000000000000081526004016104319061326f565b73ffffffffffffffffffffffffffffffffffffffff841660009081526004602052604090206108348185856117aa565b73ffffffffffffffffffffffffffffffffffffffff84166000908152600182016020526040902054156108975773ffffffffffffffffffffffffffffffffffffffff8416600090815260018201602052604090205461089490849061184f565b91505b509392505050565b606581565b60006108af336113ee565b6108e5576040517f08c379a0000000000000000000000000000000000000000000000000000000008152600401610431906130c6565b73ffffffffffffffffffffffffffffffffffffffff80851660009081526004602081815260408084209488168452918401905290205461092590846133c8565b9150610932818584611869565b610897576040517f08c379a000000000000000000000000000000000000000000000000000000000815260040161043190613032565b600181565b6109756113ea565b73ffffffffffffffffffffffffffffffffffffffff16610993610ad1565b73ffffffffffffffffffffffffffffffffffffffff16146109e0576040517f08c379a000000000000000000000000000000000000000000000000000000000815260040161043190613180565b60015460405160009173ffffffffffffffffffffffffffffffffffffffff16907f8be0079c531659141344cd1fd0a4f28419497f9722a3daafe3b4186f6b6457e0908390a3600180547fffffffffffffffffffffffff0000000000000000000000000000000000000000169055565b610a576113ea565b73ffffffffffffffffffffffffffffffffffffffff16610a75610ad1565b73ffffffffffffffffffffffffffffffffffffffff1614610ac2576040517f08c379a000000000000000000000000000000000000000000000000000000000815260040161043190613180565b600255565b606a81565b600981565b60015473ffffffffffffffffffffffffffffffffffffffff1690565b6000610af83361189b565b610b2e576040517f08c379a0000000000000000000000000000000000000000000000000000000008152600401610431906131b5565b6000610b3a85846118f5565b9050610b46818361333a565b91506000610b52612046565b90506000610b5e6121a3565b905081811115610ba9577f3555ffae7677eb42103f0b9e11b61c758f452fae446684dec7a363dd38ab58fc610b9383836133c8565b604051610ba09190613305565b60405180910390a15b60005b600854811015610ea557600060088281548110610bf2577f4e487b7100000000000000000000000000000000000000000000000000000000600052603260045260246000fd5b600091825260208083209091015473ffffffffffffffffffffffffffffffffffffffff1680835260049091526040822090925090610c2f826122f9565b90506000610c3c8361230b565b9050600060028054606460035485610c54919061338b565b610c5e9190613352565b610c689190613352565b610c729190613352565b90508a15610c8b57610c84818b61333a565b9950610cee565b73ffffffffffffffffffffffffffffffffffffffff8581166000908152600960205260409020600181018390556002810180547fffffffffffffffffffffffff000000000000000000000000000000000000000016928f16929092179091554390555b610cf8828261333a565b8310610e3257610d0661231e565b73ffffffffffffffffffffffffffffffffffffffff1663d9caed12610d296123cb565b73ffffffffffffffffffffffffffffffffffffffff16631f1cb62b6040518163ffffffff1660e01b815260040160206040518083038186803b158015610d6e57600080fd5b505afa158015610d82573d6000803e3d6000fd5b505050506040513d601f19601f82011682018060405250810190610da69190612cc5565b8784610db287896133c8565b610dbc91906133c8565b6040518463ffffffff1660e01b8152600401610dda93929190612eee565b602060405180830381600087803b158015610df457600080fd5b505af1158015610e08573d6000803e3d6000fd5b505050506040513d601f19601f82011682018060405250810190610e2c9190612e81565b50610e84565b600083610e3f838561333a565b610e4991906133c8565b90507f3555ffae7677eb42103f0b9e11b61c758f452fae446684dec7a363dd38ab58fc81604051610e7a9190613305565b60405180910390a1505b610e8d84612423565b50505050508080610e9d906133df565b915050610bac565b505050509392505050565b600281565b600581565b606881565b610ec8336113ee565b610efe576040517f08c379a00000000000000000000000000000000000000000000000000000000081526004016104319061326f565b73ffffffffffffffffffffffffffffffffffffffff83166000908152600460205260409020610f2e90838361259f565b505050565b600481565b610f41336113ee565b610f77576040517f08c379a00000000000000000000000000000000000000000000000000000000081526004016104319061326f565b73ffffffffffffffffffffffffffffffffffffffff808416600090815260046020818152604080842094871684529184019052902054610fb89083906133c8565b73ffffffffffffffffffffffffffffffffffffffff84166000908152600483016020526040902055610fe981612716565b6107bd576040517f08c379a000000000000000000000000000000000000000000000000000000000815260040161043190613123565b73ffffffffffffffffffffffffffffffffffffffff811660009081526004602090815260409182902080548351818402810184019094528084526060938493909183918301828280156110a857602002820191906000526020600020905b815473ffffffffffffffffffffffffffffffffffffffff16815260019091019060200180831161107d575b50508454939650505067ffffffffffffffff82111590506110f2577f4e487b7100000000000000000000000000000000000000000000000000000000600052604160045260246000fd5b60405190808252806020026020018201604052801561111b578160200160208202803683370190505b50915060005b808451111561073d576000848281518110611165577f4e487b7100000000000000000000000000000000000000000000000000000000600052603260045260246000fd5b60200260200101519050611177612761565b73ffffffffffffffffffffffffffffffffffffffff828116600090815260018601602090815260408083205460028901909252918290205491517f687680ed000000000000000000000000000000000000000000000000000000008152939092169263687680ed926111f092909186919060040161330e565b60206040518083038186803b15801561120857600080fd5b505afa15801561121c573d6000803e3d6000fd5b505050506040513d601f19601f820116820180604052508101906112409190612eb5565b848381518110611279577f4e487b7100000000000000000000000000000000000000000000000000000000600052603260045260246000fd5b6020908102919091010152508061128f816133df565b915050611121565b600781565b6112a46113ea565b73ffffffffffffffffffffffffffffffffffffffff166112c2610ad1565b73ffffffffffffffffffffffffffffffffffffffff161461130f576040517f08c379a000000000000000000000000000000000000000000000000000000000815260040161043190613180565b73ffffffffffffffffffffffffffffffffffffffff811661135c576040517f08c379a000000000000000000000000000000000000000000000000000000000815260040161043190613069565b60015460405173ffffffffffffffffffffffffffffffffffffffff8084169216907f8be0079c531659141344cd1fd0a4f28419497f9722a3daafe3b4186f6b6457e090600090a3600180547fffffffffffffffffffffffff00000000000000000000000000000000000000001673ffffffffffffffffffffffffffffffffffffffff92909216919091179055565b3390565b600080546040517fd87fefd200000000000000000000000000000000000000000000000000000000815273ffffffffffffffffffffffffffffffffffffffff9091169063d87fefd29061144790600490869082016132db565b60206040518083038186803b15801561145f57600080fd5b505afa158015611473573d6000803e3d6000fd5b505050506040513d601f19601f820116820180604052508101906114979190612e81565b90505b919050565b6114a983836127b9565b6115ba5782546001810184556000848152602090200180547fffffffffffffffffffffffff00000000000000000000000000000000000000001673ffffffffffffffffffffffffffffffffffffffff8416179055611505612761565b73ffffffffffffffffffffffffffffffffffffffff1663e7bde5c1836040518263ffffffff1660e01b815260040161153d9190612ecd565b60206040518083038186803b15801561155557600080fd5b505afa158015611569573d6000803e3d6000fd5b505050506040513d601f19601f8201168201806040525081019061158d9190612eb5565b73ffffffffffffffffffffffffffffffffffffffff831660009081526002850160205260409020556116b6565b6115c2612761565b73ffffffffffffffffffffffffffffffffffffffff838116600090815260018601602090815260408083205460028901909252918290205491517fe695fa68000000000000000000000000000000000000000000000000000000008152939092169263e695fa689261163b92909187919060040161330e565b602060405180830381600087803b15801561165557600080fd5b505af1158015611669573d6000803e3d6000fd5b505050506040513d601f19601f8201168201806040525081019061168d9190612eb5565b73ffffffffffffffffffffffffffffffffffffffff831660009081526001850160205260409020555b73ffffffffffffffffffffffffffffffffffffffff82166000908152600184016020526040812080548392906116ed90849061333a565b909155506116fe90508383836117aa565b61170783612716565b610f2e576040517f08c379a000000000000000000000000000000000000000000000000000000000815260040161043190613212565b73ffffffffffffffffffffffffffffffffffffffff841660009081526004860160205260409020546117709083906133c8565b73ffffffffffffffffffffffffffffffffffffffff851660009081526004870160205260409020556117a38584836117aa565b5050505050565b6117b483836127e7565b61180e57600383018054600181018255600091825260209091200180547fffffffffffffffffffffffff00000000000000000000000000000000000000001673ffffffffffffffffffffffffffffffffffffffff84161790555b73ffffffffffffffffffffffffffffffffffffffff821660009081526004840160205260408120805483929061184590849061333a565b9091555050505050565b600081831115611860575080611863565b50815b92915050565b73ffffffffffffffffffffffffffffffffffffffff821660009081526004840160205260409020548111159392505050565b600080546040517fd87fefd200000000000000000000000000000000000000000000000000000000815273ffffffffffffffffffffffffffffffffffffffff9091169063d87fefd2906114479060029086906004016132db565b6040805160008082526020820192839052905190916119179160069190612bd7565b50604080516000815260208101918290525161193591600791612bd7565b50604080516000815260208101918290525161195391600891612bd7565b5060005b808451111561203f57600084828151811061199b577f4e487b7100000000000000000000000000000000000000000000000000000000600052603260045260246000fd5b602002602001015190506000600460008373ffffffffffffffffffffffffffffffffffffffff1673ffffffffffffffffffffffffffffffffffffffff16815260200190815260200160002090506119f181612816565b15611e00576008805460018101825560009182527ff3f7a9fe364faab93b216da50a3214154f22a0a2b415b23a84c8169e8b636ee30180547fffffffffffffffffffffffff00000000000000000000000000000000000000001673ffffffffffffffffffffffffffffffffffffffff85161790555b6003820154811015611bde576000826003018281548110611ab0577f4e487b7100000000000000000000000000000000000000000000000000000000600052603260045260246000fd5b600091825260208083209091015473ffffffffffffffffffffffffffffffffffffffff16808352600590915260409091206002810154919250904314611b865773ffffffffffffffffffffffffffffffffffffffff821660008181526004860160205260408120546001808501919091558184554360028501556006805491820181559091527ff652222313e28459528d920b65115c16c04f3efc82aaedc97be59f3f377c0d3f0180547fffffffffffffffffffffffff0000000000000000000000000000000000000000169091179055611bc9565b73ffffffffffffffffffffffffffffffffffffffff8216600090815260048501602052604081205460018301805491929091611bc390849061333a565b90915550505b50508080611bd6906133df565b915050611a66565b5060005b8154811015611dfe576000826000018281548110611c29577f4e487b7100000000000000000000000000000000000000000000000000000000600052603260045260246000fd5b600091825260208083209091015473ffffffffffffffffffffffffffffffffffffffff1680835260059091526040822090925090611c65612761565b73ffffffffffffffffffffffffffffffffffffffff1663e7bde5c1846040518263ffffffff1660e01b8152600401611c9d9190612ecd565b60206040518083038186803b158015611cb557600080fd5b505afa158015611cc9573d6000803e3d6000fd5b505050506040513d601f19601f82011682018060405250810190611ced9190612eb5565b73ffffffffffffffffffffffffffffffffffffffff8416600090815260028701602090815260408083205460018a019092528220549293509091611d3290849061338b565b611d3c9190613352565b905043836002015414611dcd57600060018481018290558285554360028601556007805491820181559091527fa66cc928b5edb82af9bd49922954155ab7b0942694bea4ce44661d9a8736c6880180547fffffffffffffffffffffffff00000000000000000000000000000000000000001673ffffffffffffffffffffffffffffffffffffffff8616179055611de7565b80836000016000828254611de1919061333a565b90915550505b505050508080611df6906133df565b915050611be2565b505b73ffffffffffffffffffffffffffffffffffffffff82166000908152600960205260409020600181015415801590611e355750855b15612029578054600090611e6090611e4e43600161333a565b611e5891906133c8565b600a5461184f565b90506000600a54836001015483611e77919061338b565b611e819190613352565b9050611e8b61231e565b73ffffffffffffffffffffffffffffffffffffffff1663d9caed12611eae6123cb565b73ffffffffffffffffffffffffffffffffffffffff16631f1cb62b6040518163ffffffff1660e01b815260040160206040518083038186803b158015611ef357600080fd5b505afa158015611f07573d6000803e3d6000fd5b505050506040513d601f19601f82011682018060405250810190611f2b9190612cc5565b60028601546040517fffffffff0000000000000000000000000000000000000000000000000000000060e085901b168152611f82929173ffffffffffffffffffffffffffffffffffffffff16908690600401612eee565b602060405180830381600087803b158015611f9c57600080fd5b505af1158015611fb0573d6000803e3d6000fd5b505050506040513d601f19601f82011682018060405250810190611fd49190612e81565b50808360010154611fe591906133c8565b611fef908861333a565b6000600185018190556002850180547fffffffffffffffffffffffff00000000000000000000000000000000000000001690558455965050505b5050508080612037906133df565b915050611957565b5092915050565b6000805b60065481101561219f57600060068281548110612090577f4e487b7100000000000000000000000000000000000000000000000000000000600052603260045260246000fd5b600091825260208083209091015473ffffffffffffffffffffffffffffffffffffffff1680835260059091526040909120805460018201549293509091111561218a57805460018201546000916120e6916133c8565b90506120f06123cb565b73ffffffffffffffffffffffffffffffffffffffff166305883f7c84836040518363ffffffff1660e01b815260040161212a929190612f1f565b602060405180830381600087803b15801561214457600080fd5b505af1158015612158573d6000803e3d6000fd5b505050506040513d601f19601f8201168201806040525081019061217c9190612eb5565b612186908661333a565b9450505b50508080612197906133df565b91505061204a565b5090565b6000805b60075481101561219f576000600782815481106121ed577f4e487b7100000000000000000000000000000000000000000000000000000000600052603260045260246000fd5b600091825260208083209091015473ffffffffffffffffffffffffffffffffffffffff168083526005909152604090912060018101548154929350909111156122e4576122386123cb565b73ffffffffffffffffffffffffffffffffffffffff166305883f7c838360010154846000015461226891906133c8565b6040518363ffffffff1660e01b8152600401612285929190612f1f565b602060405180830381600087803b15801561229f57600080fd5b505af11580156122b3573d6000803e3d6000fd5b505050506040513d601f19601f820116820180604052508101906122d79190612eb5565b6122e1908561333a565b93505b505080806122f1906133df565b9150506121a7565b60006114978260030183600401612870565b60006114978260018101600282016129be565b600080546040517f3c9c8f9c00000000000000000000000000000000000000000000000000000000815273ffffffffffffffffffffffffffffffffffffffff90911690633c9c8f9c90612376906065906004016132cc565b60206040518083038186803b15801561238e57600080fd5b505afa1580156123a2573d6000803e3d6000fd5b505050506040513d601f19601f820116820180604052508101906123c69190612cc5565b905090565b600080546040517f3c9c8f9c00000000000000000000000000000000000000000000000000000000815273ffffffffffffffffffffffffffffffffffffffff90911690633c9c8f9c9061237690606a906004016132cc565b60005b81548110156124be57600082600001828154811061246d577f4e487b7100000000000000000000000000000000000000000000000000000000600052603260045260246000fd5b600091825260208083209091015473ffffffffffffffffffffffffffffffffffffffff16825260018501815260408083208390556002860190915281205550806124b6816133df565b915050612426565b5060005b600382015481101561258257600082600301828154811061250c577f4e487b7100000000000000000000000000000000000000000000000000000000600052603260045260246000fd5b600091825260208083209091015473ffffffffffffffffffffffffffffffffffffffff168252600485018152604080832083905560058601909152902080547fffffffffffffffffffffffffffffffffffffffffffffffffffffffffffffff00169055508061257a816133df565b9150506124c2565b5061258e816000612c5d565b61259c600382016000612c5d565b50565b6125a7612761565b73ffffffffffffffffffffffffffffffffffffffff838116600090815260018601602090815260408083205460028901909252918290205491517fe695fa68000000000000000000000000000000000000000000000000000000008152939092169263e695fa689261262092909187919060040161330e565b602060405180830381600087803b15801561263a57600080fd5b505af115801561264e573d6000803e3d6000fd5b505050506040513d601f19601f820116820180604052508101906126729190612eb5565b73ffffffffffffffffffffffffffffffffffffffff8316600090815260018501602052604090208190556126a79082906133c8565b73ffffffffffffffffffffffffffffffffffffffff8316600090815260018501602090815260408083209390935560048601905220546126e89082906133c8565b73ffffffffffffffffffffffffffffffffffffffff9092166000908152600490930160205250604090912055565b6000806127228361230b565b9050600061272f846122f9565b90506002548261273f919061338b565b60025461274d90600161333a565b612757908361338b565b1015949350505050565b600080546040517f3c9c8f9c00000000000000000000000000000000000000000000000000000000815273ffffffffffffffffffffffffffffffffffffffff90911690633c9c8f9c90612376906066906004016132cc565b73ffffffffffffffffffffffffffffffffffffffff1660009081526002919091016020526040902054151590565b73ffffffffffffffffffffffffffffffffffffffff166000908152600591909101602052604090205460ff1690565b6000806128228361230b565b9050600061282f846122f9565b9050816003546002546064612844919061338b565b61284e919061333a565b612858919061338b565b600254612865908361338b565b61275790606461338b565b6000805b835481101561203f5760008482815481106128b8577f4e487b7100000000000000000000000000000000000000000000000000000000600052603260045260246000fd5b60009182526020909120015473ffffffffffffffffffffffffffffffffffffffff1690506128e46123cb565b73ffffffffffffffffffffffffffffffffffffffff828116600090815260208790526040908190205490517fe47109a9000000000000000000000000000000000000000000000000000000008152929091169163e47109a99161294c91859190600401612f1f565b602060405180830381600087803b15801561296657600080fd5b505af115801561297a573d6000803e3d6000fd5b505050506040513d601f19601f8201168201806040525081019061299e9190612eb5565b6129a8908461333a565b92505080806129b6906133df565b915050612874565b6000805b8454811015610897576000858281548110612a06577f4e487b7100000000000000000000000000000000000000000000000000000000600052603260045260246000fd5b600091825260208083209091015473ffffffffffffffffffffffffffffffffffffffff1680835290879052604090912054909150612a4690829086612a66565b612a50908461333a565b9250508080612a5e906133df565b9150506129c2565b600080612a71612761565b73ffffffffffffffffffffffffffffffffffffffff1663e7bde5c1866040518263ffffffff1660e01b8152600401612aa99190612ecd565b60206040518083038186803b158015612ac157600080fd5b505afa158015612ad5573d6000803e3d6000fd5b505050506040513d601f19601f82011682018060405250810190612af99190612eb5565b73ffffffffffffffffffffffffffffffffffffffff861660009081526020859052604081205491925090612b2d838761338b565b612b379190613352565b9050612b416123cb565b73ffffffffffffffffffffffffffffffffffffffff1663e47109a987836040518363ffffffff1660e01b8152600401612b7b929190612f1f565b602060405180830381600087803b158015612b9557600080fd5b505af1158015612ba9573d6000803e3d6000fd5b505050506040513d601f19601f82011682018060405250810190612bcd9190612eb5565b9695505050505050565b828054828255906000526020600020908101928215612c51579160200282015b82811115612c5157825182547fffffffffffffffffffffffff00000000000000000000000000000000000000001673ffffffffffffffffffffffffffffffffffffffff909116178255602090920191600190910190612bf7565b5061219f929150612c77565b508054600082559060005260206000209081019061259c91905b5b8082111561219f5760008155600101612c78565b803561149a81613476565b803561149a81613498565b600060208284031215612cb3578081fd5b8135612cbe81613476565b9392505050565b600060208284031215612cd6578081fd5b8151612cbe81613476565b600080600080600060a08688031215612cf8578081fd5b8535612d0381613476565b94506020860135612d1381613476565b93506040860135612d2381613476565b94979396509394606081013594506080013592915050565b600080600060608486031215612d4f578283fd5b8335612d5a81613476565b92506020840135612d6a81613476565b929592945050506040919091013590565b600080600060608486031215612d8f578283fd5b833567ffffffffffffffff80821115612da6578485fd5b818601915086601f830112612db9578485fd5b8135602082821115612dcd57612dcd613447565b8082026040517fffffffffffffffffffffffffffffffffffffffffffffffffffffffffffffffe0603f83011681018181108682111715612e0f57612e0f613447565b604052838152828101945085830182870184018c1015612e2d57898afd5b8996505b84871015612e5657612e4281612c8c565b865260019690960195948301948301612e31565b509750612e669050888201612c8c565b955050505050612e7860408501612c97565b90509250925092565b600060208284031215612e92578081fd5b8151612cbe81613498565b600060208284031215612eae578081fd5b5035919050565b600060208284031215612ec6578081fd5b5051919050565b73ffffffffffffffffffffffffffffffffffffffff91909116815260200190565b73ffffffffffffffffffffffffffffffffffffffff9384168152919092166020820152604081019190915260600190565b73ffffffffffffffffffffffffffffffffffffffff929092168252602082015260400190565b604080825283519082018190526000906020906060840190828701845b82811015612f9457815173ffffffffffffffffffffffffffffffffffffffff1684529284019290840190600101612f62565b50505083810382850152845180825285830191830190845b81811015612fc857835183529284019291840191600101612fac565b5090979650505050505050565b60208082526039908201527f43616c6c696e6720636f6e7472616374206973206e6f7420616e20617574686f60408201527f72697a6564206d617267696e20747261646572206167656e7400000000000000606082015260800190565b60208082526018908201527f43616e277420626f72726f772066756c6c20616d6f756e740000000000000000604082015260600190565b60208082526026908201527f4f776e61626c653a206e6577206f776e657220697320746865207a65726f206160408201527f6464726573730000000000000000000000000000000000000000000000000000606082015260800190565b60208082526033908201527f43616c6c696e6720636f6e7472616374206973206e6f7420616e20617574686f60408201527f72697a6564206d617267696e2074726164657200000000000000000000000000606082015260800190565b60208082526026908201527f4163636f756e742062616c616e636520697320746f6f206c6f7720746f20776960408201527f7468647261770000000000000000000000000000000000000000000000000000606082015260800190565b6020808252818101527f4f776e61626c653a2063616c6c6572206973206e6f7420746865206f776e6572604082015260600190565b6020808252602f908201527f43616c6c696e67206164647265737320646f65736e27742068617665206d617260408201527f67696e2063616c6c657220726f6c650000000000000000000000000000000000606082015260800190565b60208082526022908201527f43616e277420626f72726f773a20696e73756666696369656e742062616c616e60408201527f6365000000000000000000000000000000000000000000000000000000000000606082015260800190565b6020808252602a908201527f43616c6c696e6720636f6e7472616374206e6f7420617574686f72697a65642060408201527f746f206465706f73697400000000000000000000000000000000000000000000606082015260800190565b61ffff91909116815260200190565b61ffff92909216825273ffffffffffffffffffffffffffffffffffffffff16602082015260400190565b90815260200190565b92835273ffffffffffffffffffffffffffffffffffffffff919091166020830152604082015260600190565b6000821982111561334d5761334d613418565b500190565b600082613386577f4e487b710000000000000000000000000000000000000000000000000000000081526012600452602481fd5b500490565b6000817fffffffffffffffffffffffffffffffffffffffffffffffffffffffffffffffff04831182151516156133c3576133c3613418565b500290565b6000828210156133da576133da613418565b500390565b60007fffffffffffffffffffffffffffffffffffffffffffffffffffffffffffffffff82141561341157613411613418565b5060010190565b7f4e487b7100000000000000000000000000000000000000000000000000000000600052601160045260246000fd5b7f4e487b7100000000000000000000000000000000000000000000000000000000600052604160045260246000fd5b73ffffffffffffffffffffffffffffffffffffffff8116811461259c57600080fd5b801515811461259c57600080fdfea2646970667358221220462ab2980dd906aad73c6f1c44deee8d40f9abf049181d0d022f9f67d474c5d564736f6c63430008010033",
  "linkReferences": {},
  "deployedLinkReferences": {}
}