{
  "_format": "hh-sol-artifact-1",
  "contractName": "V1",
  "sourceName": "contracts/V1.sol",
  "abi": [
    {
      "inputs": [
        {
          "internalType": "address",
          "name": "targetOwner",
          "type": "address"
        },
        {
          "internalType": "address",
          "name": "WETH",
          "type": "address"
        },
        {
          "internalType": "uint256",
          "name": "feesPer10k",
          "type": "uint256"
        },
        {
          "internalType": "address",
          "name": "MFI",
          "type": "address"
        },
        {
          "internalType": "address",
          "name": "uniswapFactory",
          "type": "address"
        },
        {
          "internalType": "address",
          "name": "sushiswapFactory",
          "type": "address"
        },
        {
          "internalType": "address",
          "name": "peg",
          "type": "address"
        }
      ],
      "stateMutability": "nonpayable",
      "type": "constructor"
    },
    {
      "anonymous": false,
      "inputs": [
        {
          "indexed": true,
          "internalType": "address",
          "name": "previousOwner",
          "type": "address"
        },
        {
          "indexed": true,
          "internalType": "address",
          "name": "newOwner",
          "type": "address"
        }
      ],
      "name": "OwnershipTransferred",
      "type": "event"
    },
    {
      "inputs": [],
      "name": "admin",
      "outputs": [
        {
          "internalType": "contract Admin",
          "name": "",
          "type": "address"
        }
      ],
      "stateMutability": "view",
      "type": "function"
    },
    {
      "inputs": [],
      "name": "crossMarginTrading",
      "outputs": [
        {
          "internalType": "contract CrossMarginTrading",
          "name": "",
          "type": "address"
        }
      ],
      "stateMutability": "view",
      "type": "function"
    },
    {
      "inputs": [],
      "name": "fund",
      "outputs": [
        {
          "internalType": "contract Fund",
          "name": "",
          "type": "address"
        }
      ],
      "stateMutability": "view",
      "type": "function"
    },
    {
      "inputs": [],
      "name": "lending",
      "outputs": [
        {
          "internalType": "contract Lending",
          "name": "",
          "type": "address"
        }
      ],
      "stateMutability": "view",
      "type": "function"
    },
    {
      "inputs": [],
      "name": "marginRouter",
      "outputs": [
        {
          "internalType": "contract MarginRouter",
          "name": "",
          "type": "address"
        }
      ],
      "stateMutability": "view",
      "type": "function"
    },
    {
      "inputs": [],
      "name": "owner",
      "outputs": [
        {
          "internalType": "address",
          "name": "",
          "type": "address"
        }
      ],
      "stateMutability": "view",
      "type": "function"
    },
    {
      "inputs": [],
      "name": "price",
      "outputs": [
        {
          "internalType": "contract Price",
          "name": "",
          "type": "address"
        }
      ],
      "stateMutability": "view",
      "type": "function"
    },
    {
      "inputs": [],
      "name": "renounceOwnership",
      "outputs": [],
      "stateMutability": "nonpayable",
      "type": "function"
    },
    {
      "inputs": [],
      "name": "roles",
      "outputs": [
        {
          "internalType": "contract Roles",
          "name": "",
          "type": "address"
        }
      ],
      "stateMutability": "view",
      "type": "function"
    },
    {
      "inputs": [
        {
          "internalType": "address",
          "name": "newOwner",
          "type": "address"
        }
      ],
      "name": "transferOwnership",
      "outputs": [],
      "stateMutability": "nonpayable",
      "type": "function"
    }
  ],
  "bytecode": "0x60806040523480156200001157600080fd5b506040516200f5043803806200f504833981016040819052620000349162000582565b600062000040620004ff565b600080546001600160a01b0319166001600160a01b0383169081178255604051929350917f8be0079c531659141344cd1fd0a4f28419497f9722a3daafe3b4186f6b6457e0908290a350604051620000989062000503565b604051809103906000f080158015620000b5573d6000803e3d6000fd5b50600180546001600160a01b0319166001600160a01b03928316179081905560405188929190911690620000e99062000511565b620000f692919062000621565b604051809103906000f08015801562000113573d6000803e3d6000fd5b50600280546001600160a01b0319166001600160a01b03928316179081905560405163f2fde38b60e01b815291169063f2fde38b9062000158908a906004016200060d565b600060405180830381600087803b1580156200017357600080fd5b505af115801562000188573d6000803e3d6000fd5b50506001546040518893508792506001600160a01b0390911690620001ad906200051f565b620001bb9392919062000666565b604051809103906000f080158015620001d8573d6000803e3d6000fd5b50600380546001600160a01b0319166001600160a01b03928316179081905560405163f2fde38b60e01b815291169063f2fde38b906200021d908a906004016200060d565b600060405180830381600087803b1580156200023857600080fd5b505af11580156200024d573d6000803e3d6000fd5b50506001546040516001600160a01b0390911692506200026e91506200052d565b6200027a91906200060d565b604051809103906000f08015801562000297573d6000803e3d6000fd5b50600480546001600160a01b0319166001600160a01b039283161780825560405163f2fde38b60e01b815292169163f2fde38b91620002d9918b91016200060d565b600060405180830381600087803b158015620002f457600080fd5b505af115801562000309573d6000803e3d6000fd5b50506001546040516001600160a01b0390911692506200032a91506200053b565b6200033691906200060d565b604051809103906000f08015801562000353573d6000803e3d6000fd5b50600580546001600160a01b0319166001600160a01b03928316179081905560405163f2fde38b60e01b815291169063f2fde38b9062000398908a906004016200060d565b600060405180830381600087803b158015620003b357600080fd5b505af1158015620003c8573d6000803e3d6000fd5b505060015460405186935085925089916001600160a01b031690620003ed9062000549565b620003fc94939291906200063b565b604051809103906000f08015801562000419573d6000803e3d6000fd5b50600680546001600160a01b0319166001600160a01b03928316179055600154604051839291909116906200044e9062000557565b6200045b92919062000621565b604051809103906000f08015801562000478573d6000803e3d6000fd5b50600780546001600160a01b0319166001600160a01b0392831617905560015460405163f2fde38b60e01b815291169063f2fde38b90620004be908a906004016200060d565b600060405180830381600087803b158015620004d957600080fd5b505af1158015620004ee573d6000803e3d6000fd5b505050505050505050505062000685565b3390565b6108ef8062000c0b83390190565b61114a80620014fa83390190565b6119dd806200264483390190565b6135c0806200402183390190565b612d4f80620075e183390190565b61380e806200a33083390190565b6119c6806200db3e83390190565b80516001600160a01b03811681146200057d57600080fd5b919050565b600080600080600080600060e0888a0312156200059d578283fd5b620005a88862000565565b9650620005b86020890162000565565b955060408801519450620005cf6060890162000565565b9350620005df6080890162000565565b9250620005ef60a0890162000565565b9150620005ff60c0890162000565565b905092959891949750929550565b6001600160a01b0391909116815260200190565b6001600160a01b0392831681529116602082015260400190565b6001600160a01b03948516815292841660208401529083166040830152909116606082015260800190565b9283526001600160a01b03918216602084015216604082015260600190565b61057680620006956000396000f3fe608060405234801561001057600080fd5b50600436106100be5760003560e01c80639dabd88d11610076578063b60d42881161005b578063b60d428814610113578063f2fde38b1461011b578063f851a4401461012e576100be565b80639dabd88d14610103578063a035b1fe1461010b576100be565b8063715018a6116100a7578063715018a6146100e95780638da5cb5b146100f357806395e97eee146100fb576100be565b806323ee5e7a146100c3578063392f5f64146100e1575b600080fd5b6100cb610136565b6040516100d8919061048d565b60405180910390f35b6100cb610152565b6100f161016e565b005b6100cb610259565b6100cb610275565b6100cb610291565b6100cb6102ad565b6100cb6102c9565b6100f1610129366004610452565b6102e5565b6100cb610432565b60065473ffffffffffffffffffffffffffffffffffffffff1681565b60015473ffffffffffffffffffffffffffffffffffffffff1681565b61017661044e565b73ffffffffffffffffffffffffffffffffffffffff16610194610259565b73ffffffffffffffffffffffffffffffffffffffff16146101ea576040517f08c379a00000000000000000000000000000000000000000000000000000000081526004016101e19061050b565b60405180910390fd5b6000805460405173ffffffffffffffffffffffffffffffffffffffff909116907f8be0079c531659141344cd1fd0a4f28419497f9722a3daafe3b4186f6b6457e0908390a3600080547fffffffffffffffffffffffff0000000000000000000000000000000000000000169055565b60005473ffffffffffffffffffffffffffffffffffffffff1690565b60055473ffffffffffffffffffffffffffffffffffffffff1681565b60045473ffffffffffffffffffffffffffffffffffffffff1681565b60075473ffffffffffffffffffffffffffffffffffffffff1681565b60025473ffffffffffffffffffffffffffffffffffffffff1681565b6102ed61044e565b73ffffffffffffffffffffffffffffffffffffffff1661030b610259565b73ffffffffffffffffffffffffffffffffffffffff1614610358576040517f08c379a00000000000000000000000000000000000000000000000000000000081526004016101e19061050b565b73ffffffffffffffffffffffffffffffffffffffff81166103a5576040517f08c379a00000000000000000000000000000000000000000000000000000000081526004016101e1906104ae565b6000805460405173ffffffffffffffffffffffffffffffffffffffff808516939216917f8be0079c531659141344cd1fd0a4f28419497f9722a3daafe3b4186f6b6457e091a3600080547fffffffffffffffffffffffff00000000000000000000000000000000000000001673ffffffffffffffffffffffffffffffffffffffff92909216919091179055565b60035473ffffffffffffffffffffffffffffffffffffffff1681565b3390565b600060208284031215610463578081fd5b813573ffffffffffffffffffffffffffffffffffffffff81168114610486578182fd5b9392505050565b73ffffffffffffffffffffffffffffffffffffffff91909116815260200190565b60208082526026908201527f4f776e61626c653a206e6577206f776e657220697320746865207a65726f206160408201527f6464726573730000000000000000000000000000000000000000000000000000606082015260800190565b6020808252818101527f4f776e61626c653a2063616c6c6572206973206e6f7420746865206f776e657260408201526060019056fea26469706673582212209bed6b08858b9139faaacdcfcd374dc9d348359da22d78afac63a4118d40682164736f6c63430008010033608060405234801561001057600080fd5b50600061001b61006a565b600080546001600160a01b0319166001600160a01b0383169081178255604051929350917f8be0079c531659141344cd1fd0a4f28419497f9722a3daafe3b4186f6b6457e0908290a35061006e565b3390565b6108728061007d6000396000f3fe608060405234801561001057600080fd5b50600436106100a35760003560e01c80638da5cb5b11610076578063b6aa083e1161005b578063b6aa083e14610129578063f2fde38b1461013c578063fae371de1461014f576100a3565b80638da5cb5b1461010e5780639b44225b14610116576100a3565b80633c9c8f9c146100a857806353b15901146100d1578063715018a6146100f15780637ecd187e146100fb575b600080fd5b6100bb6100b636600461073b565b610162565b6040516100c8919061077e565b60405180910390f35b6100e46100df366004610709565b61018a565b6040516100c8919061079f565b6100f96101aa565b005b6100e4610109366004610709565b610295565b6100bb6102d3565b6100f9610124366004610755565b6102ef565b6100f9610137366004610755565b6103bd565b6100f961014a3660046106e8565b610490565b6100f961015d366004610755565b6105dd565b60026020526000908152604090205473ffffffffffffffffffffffffffffffffffffffff1681565b600160209081526000928352604080842090915290825290205460ff1681565b6101b26106a9565b73ffffffffffffffffffffffffffffffffffffffff166101d06102d3565b73ffffffffffffffffffffffffffffffffffffffff1614610226576040517f08c379a000000000000000000000000000000000000000000000000000000000815260040161021d90610807565b60405180910390fd5b6000805460405173ffffffffffffffffffffffffffffffffffffffff909116907f8be0079c531659141344cd1fd0a4f28419497f9722a3daafe3b4186f6b6457e0908390a3600080547fffffffffffffffffffffffff0000000000000000000000000000000000000000169055565b73ffffffffffffffffffffffffffffffffffffffff8216600090815260016020908152604080832061ffff8516845290915290205460ff1692915050565b60005473ffffffffffffffffffffffffffffffffffffffff1690565b6102f76106a9565b73ffffffffffffffffffffffffffffffffffffffff166103156102d3565b73ffffffffffffffffffffffffffffffffffffffff1614610362576040517f08c379a000000000000000000000000000000000000000000000000000000000815260040161021d90610807565b73ffffffffffffffffffffffffffffffffffffffff16600090815260016020908152604080832061ffff90941683529290522080547fffffffffffffffffffffffffffffffffffffffffffffffffffffffffffffff00169055565b6103c56106a9565b73ffffffffffffffffffffffffffffffffffffffff166103e36102d3565b73ffffffffffffffffffffffffffffffffffffffff1614610430576040517f08c379a000000000000000000000000000000000000000000000000000000000815260040161021d90610807565b73ffffffffffffffffffffffffffffffffffffffff16600090815260016020818152604080842061ffff909516845293905291902080547fffffffffffffffffffffffffffffffffffffffffffffffffffffffffffffff00169091179055565b6104986106a9565b73ffffffffffffffffffffffffffffffffffffffff166104b66102d3565b73ffffffffffffffffffffffffffffffffffffffff1614610503576040517f08c379a000000000000000000000000000000000000000000000000000000000815260040161021d90610807565b73ffffffffffffffffffffffffffffffffffffffff8116610550576040517f08c379a000000000000000000000000000000000000000000000000000000000815260040161021d906107aa565b6000805460405173ffffffffffffffffffffffffffffffffffffffff808516939216917f8be0079c531659141344cd1fd0a4f28419497f9722a3daafe3b4186f6b6457e091a3600080547fffffffffffffffffffffffff00000000000000000000000000000000000000001673ffffffffffffffffffffffffffffffffffffffff92909216919091179055565b6105e56106a9565b73ffffffffffffffffffffffffffffffffffffffff166106036102d3565b73ffffffffffffffffffffffffffffffffffffffff1614610650576040517f08c379a000000000000000000000000000000000000000000000000000000000815260040161021d90610807565b61ffff91909116600090815260026020526040902080547fffffffffffffffffffffffff00000000000000000000000000000000000000001673ffffffffffffffffffffffffffffffffffffffff909216919091179055565b3390565b803573ffffffffffffffffffffffffffffffffffffffff811681146106d157600080fd5b919050565b803561ffff811681146106d157600080fd5b6000602082840312156106f9578081fd5b610702826106ad565b9392505050565b6000806040838503121561071b578081fd5b610724836106ad565b9150610732602084016106d6565b90509250929050565b60006020828403121561074c578081fd5b610702826106d6565b60008060408385031215610767578182fd5b610770836106d6565b9150610732602084016106ad565b73ffffffffffffffffffffffffffffffffffffffff91909116815260200190565b901515815260200190565b60208082526026908201527f4f776e61626c653a206e6577206f776e657220697320746865207a65726f206160408201527f6464726573730000000000000000000000000000000000000000000000000000606082015260800190565b6020808252818101527f4f776e61626c653a2063616c6c6572206973206e6f7420746865206f776e657260408201526060019056fea2646970667358221220af6de711c2beda4b83f61205768acc2815114cc5069babe8932dc40903f5249364736f6c63430008010033608060405234801561001057600080fd5b5060405161114a38038061114a83398101604081905261002f916100e6565b600080546001600160a01b0319166001600160a01b0383161781556100526100c6565b600180546001600160a01b0319166001600160a01b038316908117909155604051919250906000907f8be0079c531659141344cd1fd0a4f28419497f9722a3daafe3b4186f6b6457e0908290a35050600280546001600160a01b0319166001600160a01b0392909216919091179055610118565b3390565b80516001600160a01b03811681146100e157600080fd5b919050565b600080604083850312156100f8578182fd5b610101836100ca565b915061010f602084016100ca565b90509250929050565b611023806101276000396000f3fe6080604052600436106101a15760003560e01c8063715018a6116100e1578063a9cc05361161008a578063cacf8d4511610064578063cacf8d45146103d0578063d5d7ed7f146103e5578063d9caed12146103fa578063f2fde38b1461041a576101a1565b8063a9cc053614610386578063ad5c46481461039b578063b3db428b146103b0576101a1565b8063a0098d69116100bb578063a0098d6914610354578063a6a5f9fe14610369578063a94c7c3414610371576101a1565b8063715018a61461031557806381ca66001461032a5780638da5cb5b1461033f576101a1565b806346b887961161014e57806348fb27b81161012857806348fb27b8146102b65780635acf6903146102cb5780635c275a39146102eb5780636694198414610300576101a1565b806346b88796146102525780634782f7791461026757806347e7ef2414610289576101a1565b80632fe94def1161017f5780632fe94def1461021357806332fe7b2614610228578063392f5f641461023d576101a1565b8063065d570f146101a65780631bc5d81d146101d15780631dafede0146101e6575b600080fd5b3480156101b257600080fd5b506101bb61043a565b6040516101c89190610fd5565b60405180910390f35b3480156101dd57600080fd5b506101bb61043f565b3480156101f257600080fd5b50610206610201366004610d56565b610444565b6040516101c89190610d6e565b34801561021f57600080fd5b506101bb61047b565b34801561023457600080fd5b506101bb610480565b34801561024957600080fd5b50610206610485565b34801561025e57600080fd5b506101bb6104a1565b34801561027357600080fd5b50610287610282366004610d0d565b6104a6565b005b34801561029557600080fd5b506102a96102a4366004610d0d565b6105be565b6040516101c89190610e10565b3480156102c257600080fd5b506101bb6106cc565b3480156102d757600080fd5b506102a96102e6366004610cb8565b6106d1565b3480156102f757600080fd5b506101bb6106e6565b34801561030c57600080fd5b506101bb6106eb565b34801561032157600080fd5b506102876106f0565b34801561033657600080fd5b506101bb6107d2565b34801561034b57600080fd5b506102066107d7565b34801561036057600080fd5b506101bb6107f3565b6102876107f8565b34801561037d57600080fd5b506101bb61087d565b34801561039257600080fd5b506101bb610882565b3480156103a757600080fd5b50610206610887565b3480156103bc57600080fd5b506102a96103cb366004610cd2565b6108a3565b3480156103dc57600080fd5b506101bb6109f1565b3480156103f157600080fd5b506101bb6109f6565b34801561040657600080fd5b506102a9610415366004610cd2565b6109fb565b34801561042657600080fd5b50610287610435366004610cb8565b610a90565b600381565b600881565b6003818154811061045457600080fd5b60009182526020909120015473ffffffffffffffffffffffffffffffffffffffff16905081565b606981565b606781565b60005473ffffffffffffffffffffffffffffffffffffffff1681565b600681565b6104af33610bde565b6104ee576040517f08c379a00000000000000000000000000000000000000000000000000000000081526004016104e590610e52565b60405180910390fd5b6002546040517f2e1a7d4d00000000000000000000000000000000000000000000000000000000815273ffffffffffffffffffffffffffffffffffffffff90911690632e1a7d4d90610544908490600401610fe4565b600060405180830381600087803b15801561055e57600080fd5b505af1158015610572573d6000803e3d6000fd5b505060405173ffffffffffffffffffffffffffffffffffffffff8516925083156108fc02915083906000818181858888f193505050501580156105b9573d6000803e3d6000fd5b505050565b73ffffffffffffffffffffffffffffffffffffffff821660009081526004602052604081205460ff1661061d576040517f08c379a00000000000000000000000000000000000000000000000000000000081526004016104e590610e1b565b6040517f23b872dd00000000000000000000000000000000000000000000000000000000815273ffffffffffffffffffffffffffffffffffffffff8416906323b872dd9061067390339030908790600401610d8f565b602060405180830381600087803b15801561068d57600080fd5b505af11580156106a1573d6000803e3d6000fd5b505050506040513d601f19601f820116820180604052508101906106c59190610d36565b9392505050565b606681565b60046020526000908152604090205460ff1681565b606581565b600181565b6106f8610c90565b73ffffffffffffffffffffffffffffffffffffffff166107166107d7565b73ffffffffffffffffffffffffffffffffffffffff1614610763576040517f08c379a00000000000000000000000000000000000000000000000000000000081526004016104e590610f43565b60015460405160009173ffffffffffffffffffffffffffffffffffffffff16907f8be0079c531659141344cd1fd0a4f28419497f9722a3daafe3b4186f6b6457e0908390a3600180547fffffffffffffffffffffffff0000000000000000000000000000000000000000169055565b606a81565b60015473ffffffffffffffffffffffffffffffffffffffff1690565b600281565b600260009054906101000a900473ffffffffffffffffffffffffffffffffffffffff1673ffffffffffffffffffffffffffffffffffffffff1663d0e30db0346040518263ffffffff1660e01b81526004016000604051808303818588803b15801561086257600080fd5b505af1158015610876573d6000803e3d6000fd5b5050505050565b600581565b606881565b60025473ffffffffffffffffffffffffffffffffffffffff1681565b73ffffffffffffffffffffffffffffffffffffffff821660009081526004602052604081205460ff16610902576040517f08c379a00000000000000000000000000000000000000000000000000000000081526004016104e590610e1b565b61090b33610bde565b610941576040517f08c379a00000000000000000000000000000000000000000000000000000000081526004016104e590610f78565b6040517f23b872dd00000000000000000000000000000000000000000000000000000000815273ffffffffffffffffffffffffffffffffffffffff8416906323b872dd9061099790879030908790600401610d8f565b602060405180830381600087803b1580156109b157600080fd5b505af11580156109c5573d6000803e3d6000fd5b505050506040513d601f19601f820116820180604052508101906109e99190610d36565b949350505050565b600481565b600781565b6000610a0633610bde565b610a3c576040517f08c379a00000000000000000000000000000000000000000000000000000000081526004016104e590610ee6565b6040517fa9059cbb00000000000000000000000000000000000000000000000000000000815273ffffffffffffffffffffffffffffffffffffffff85169063a9059cbb906109979086908690600401610dea565b610a98610c90565b73ffffffffffffffffffffffffffffffffffffffff16610ab66107d7565b73ffffffffffffffffffffffffffffffffffffffff1614610b03576040517f08c379a00000000000000000000000000000000000000000000000000000000081526004016104e590610f43565b73ffffffffffffffffffffffffffffffffffffffff8116610b50576040517f08c379a00000000000000000000000000000000000000000000000000000000081526004016104e590610e89565b60015460405173ffffffffffffffffffffffffffffffffffffffff8084169216907f8be0079c531659141344cd1fd0a4f28419497f9722a3daafe3b4186f6b6457e090600090a3600180547fffffffffffffffffffffffff00000000000000000000000000000000000000001673ffffffffffffffffffffffffffffffffffffffff92909216919091179055565b600080546040517f7ecd187e00000000000000000000000000000000000000000000000000000000815273ffffffffffffffffffffffffffffffffffffffff90911690637ecd187e90610c38908590600190600401610dc0565b60206040518083038186803b158015610c5057600080fd5b505afa158015610c64573d6000803e3d6000fd5b505050506040513d601f19601f82011682018060405250810190610c889190610d36565b90505b919050565b3390565b803573ffffffffffffffffffffffffffffffffffffffff81168114610c8b57600080fd5b600060208284031215610cc9578081fd5b6106c582610c94565b600080600060608486031215610ce6578182fd5b610cef84610c94565b9250610cfd60208501610c94565b9150604084013590509250925092565b60008060408385031215610d1f578182fd5b610d2883610c94565b946020939093013593505050565b600060208284031215610d47578081fd5b815180151581146106c5578182fd5b600060208284031215610d67578081fd5b5035919050565b73ffffffffffffffffffffffffffffffffffffffff91909116815260200190565b73ffffffffffffffffffffffffffffffffffffffff9384168152919092166020820152604081019190915260600190565b73ffffffffffffffffffffffffffffffffffffffff92909216825261ffff16602082015260400190565b73ffffffffffffffffffffffffffffffffffffffff929092168252602082015260400190565b901515815260200190565b6020808252601b908201527f4465706f73697420746f6b656e206973206e6f74206163746976650000000000604082015260600190565b6020808252601a908201527f4e6f7420617574686f72697a656420746f207769746864726177000000000000604082015260600190565b60208082526026908201527f4f776e61626c653a206e6577206f776e657220697320746865207a65726f206160408201527f6464726573730000000000000000000000000000000000000000000000000000606082015260800190565b60208082526023908201527f436f6e7472616374206e6f7420617574686f72697a656420746f20776974686460408201527f7261770000000000000000000000000000000000000000000000000000000000606082015260800190565b6020808252818101527f4f776e61626c653a2063616c6c6572206973206e6f7420746865206f776e6572604082015260600190565b60208082526022908201527f436f6e7472616374206e6f7420617574686f72697a656420746f206465706f7360408201527f6974000000000000000000000000000000000000000000000000000000000000606082015260800190565b61ffff91909116815260200190565b9081526020019056fea26469706673582212203a650dcde227e00d49cefd68db8bf119c97cd666938fc151acf3ac176c8e54f664736f6c6343000801003360806040523480156200001157600080fd5b50604051620019dd380380620019dd8339810160408190526200003491620000fe565b600080546001600160a01b0319166001600160a01b03831617815562000059620000dd565b600180546001600160a01b0319166001600160a01b038316908117909155604051919250906000907f8be0079c531659141344cd1fd0a4f28419497f9722a3daafe3b4186f6b6457e0908290a35050600280546001600160a01b0319166001600160a01b0392909216919091179055600555670de0b6b3a76400006007556200013e565b3390565b80516001600160a01b0381168114620000f957600080fd5b919050565b60008060006060848603121562000113578283fd5b835192506200012560208501620000e1565b91506200013560408501620000e1565b90509250925092565b61188f806200014e6000396000f3fe608060405234801561001057600080fd5b50600436106101e55760003560e01c806367cbf42d1161010f578063a94c7c34116100a2578063d5d7ed7f11610071578063d5d7ed7f1461037d578063e909ebfa14610385578063ed95eda014610398578063f2fde38b146103ab576101e5565b8063a94c7c341461035d578063a9cc053614610365578063bf9befb11461036d578063cacf8d4514610375576101e5565b80638381e182116100de5780638381e182146103275780638da5cb5b1461033a578063a0098d6914610342578063a694fc3a1461034a576101e5565b806367cbf42d146102e4578063715018a6146102f757806381ca6600146102ff57806381fe803914610307576101e5565b806332fe7b261161018757806348fb27b81161015657806348fb27b8146102ab57806356fc9124146102b35780635c275a39146102d457806366941984146102dc576101e5565b806332fe7b2614610273578063392f5f641461027b5780633f0e9edf1461029057806346b88796146102a3576101e5565b80631bc5d81d116101c35780631bc5d81d1461023d5780631cead9a7146102455780632c00d4a7146102585780632fe94def1461026b576101e5565b8063020d308d146101ea578063065d570f146101ff57806316934fc41461021d575b600080fd5b6101fd6101f8366004611178565b6103be565b005b6102076104ad565b60405161021491906116f8565b60405180910390f35b61023061022b366004611139565b6104b2565b6040516102149190611707565b6102076104c4565b610230610253366004611139565b6104c9565b6101fd6102663660046112df565b6104db565b6102076105d6565b6102076105db565b6102836105e0565b6040516102149190611333565b61023061029e3660046111b0565b6105fc565b6102076106aa565b6102076106af565b6102c66102c1366004611139565b6106b4565b604051610214929190611710565b6102076106e3565b6102076106e8565b6102306102f23660046111b0565b6106ed565b6101fd61073f565b610207610821565b61031a610315366004611178565b610826565b604051610214919061142d565b6101fd61033536600461130f565b610846565b610283610973565b61020761098f565b6101fd6103583660046112df565b610994565b61020761099e565b6102076109a3565b6102306109a8565b6102076109ae565b6102076109b3565b6101fd610393366004611178565b6109b8565b6102306103a63660046111db565b610aa1565b6101fd6103b9366004611139565b610bde565b3373ffffffffffffffffffffffffffffffffffffffff83161480610412575073ffffffffffffffffffffffffffffffffffffffff8216600090815260096020908152604080832033845290915290205460ff165b610451576040517f08c379a00000000000000000000000000000000000000000000000000000000081526004016104489061154f565b60405180910390fd5b73ffffffffffffffffffffffffffffffffffffffff9182166000908152600960209081526040808320939094168252919091522080547fffffffffffffffffffffffffffffffffffffffffffffffffffffffffffffff00169055565b600381565b60036020526000908152604090205481565b600881565b60066020526000908152604090205481565b600754336000908152600860205260409020546104f89083611734565b1015610530576040517f08c379a0000000000000000000000000000000000000000000000000000000008152600401610448906114f2565b61053a3382610d2c565b336000908152600860205260409020546105d357336000908152600860205260409020819055610568610e59565b336000818152600860205260408082206001908101805473ffffffffffffffffffffffffffffffffffffffff9687167fffffffffffffffffffffffff000000000000000000000000000000000000000091821617909155600b54909516835291200180549092161790555b50565b606981565b606781565b60005473ffffffffffffffffffffffffffffffffffffffff1681565b600061060733610f73565b61063d576040517f08c379a0000000000000000000000000000000000000000000000000000000008152600401610448906116c1565b60055461064c90612710611734565b8260055461065a9190611785565b610664919061174c565b73ffffffffffffffffffffffffffffffffffffffff841660009081526006602052604081208054929350839290919061069e908490611734565b90915550909392505050565b600681565b606681565b6008602052600090815260409020805460019091015473ffffffffffffffffffffffffffffffffffffffff1682565b606581565b600181565b60006106f833610f73565b61072e576040517f08c379a0000000000000000000000000000000000000000000000000000000008152600401610448906116c1565b6127108260055461065a9190611785565b610747611025565b73ffffffffffffffffffffffffffffffffffffffff16610765610973565b73ffffffffffffffffffffffffffffffffffffffff16146107b2576040517f08c379a0000000000000000000000000000000000000000000000000000000008152600401610448906115ac565b60015460405160009173ffffffffffffffffffffffffffffffffffffffff16907f8be0079c531659141344cd1fd0a4f28419497f9722a3daafe3b4186f6b6457e0908390a3600180547fffffffffffffffffffffffff0000000000000000000000000000000000000000169055565b606a81565b600960209081526000928352604080842090915290825290205460ff1681565b33600090815260036020526040812080548492906108659084906117c2565b92505081905550816004600082825461087e91906117c2565b9091555061088c9050611029565b6002546040517fd9caed1200000000000000000000000000000000000000000000000000000000815273ffffffffffffffffffffffffffffffffffffffff9283169263d9caed12926108e79291169085908790600401611354565b602060405180830381600087803b15801561090157600080fd5b505af1158015610915573d6000803e3d6000fd5b505050506040513d601f19601f8201168201806040525081019061093991906112bf565b61096f576040517f08c379a000000000000000000000000000000000000000000000000000000000815260040161044890611664565b5050565b60015473ffffffffffffffffffffffffffffffffffffffff1690565b600281565b6105d33382610d2c565b600581565b606881565b60045481565b600481565b600781565b3373ffffffffffffffffffffffffffffffffffffffff83161480610a0c575073ffffffffffffffffffffffffffffffffffffffff8216600090815260096020908152604080832033845290915290205460ff165b610a42576040517f08c379a00000000000000000000000000000000000000000000000000000000081526004016104489061154f565b73ffffffffffffffffffffffffffffffffffffffff9182166000908152600960209081526040808320939094168252919091522080547fffffffffffffffffffffffffffffffffffffffffffffffffffffffffffffff00166001179055565b6000333214610adc576040517f08c379a000000000000000000000000000000000000000000000000000000000815260040161044890611438565b6000610ae6610e59565b9050600073ffffffffffffffffffffffffffffffffffffffff8216331480610b3e575073ffffffffffffffffffffffffffffffffffffffff8216600090815260096020908152604080832033845290915290205460ff165b9050610b486110d6565b73ffffffffffffffffffffffffffffffffffffffff166395f23a628533846040518463ffffffff1660e01b8152600401610b84939291906113af565b602060405180830381600087803b158015610b9e57600080fd5b505af1158015610bb2573d6000803e3d6000fd5b505050506040513d601f19601f82011682018060405250810190610bd691906112f7565b949350505050565b610be6611025565b73ffffffffffffffffffffffffffffffffffffffff16610c04610973565b73ffffffffffffffffffffffffffffffffffffffff1614610c51576040517f08c379a0000000000000000000000000000000000000000000000000000000008152600401610448906115ac565b73ffffffffffffffffffffffffffffffffffffffff8116610c9e576040517f08c379a000000000000000000000000000000000000000000000000000000000815260040161044890611495565b60015460405173ffffffffffffffffffffffffffffffffffffffff8084169216907f8be0079c531659141344cd1fd0a4f28419497f9722a3daafe3b4186f6b6457e090600090a3600180547fffffffffffffffffffffffff00000000000000000000000000000000000000001673ffffffffffffffffffffffffffffffffffffffff92909216919091179055565b610d34611029565b6002546040517fb3db428b00000000000000000000000000000000000000000000000000000000815273ffffffffffffffffffffffffffffffffffffffff9283169263b3db428b92610d90928792909116908690600401611354565b602060405180830381600087803b158015610daa57600080fd5b505af1158015610dbe573d6000803e3d6000fd5b505050506040513d601f19601f82011682018060405250810190610de291906112bf565b610e18576040517f08c379a0000000000000000000000000000000000000000000000000000000008152600401610448906115e1565b3360009081526003602052604081208054839290610e37908490611734565b925050819055508060046000828254610e509190611734565b90915550505050565b60005b600a5473ffffffffffffffffffffffffffffffffffffffff16600090815260086020526040902054600754600c54610e9490436117c2565b610e9e9190611785565b10610f5657600754600a5473ffffffffffffffffffffffffffffffffffffffff16600090815260086020526040902054610ed8919061174c565b600c6000828254610ee99190611734565b9091555050600a8054600b80547fffffffffffffffffffffffff000000000000000000000000000000000000000090811673ffffffffffffffffffffffffffffffffffffffff80851691821790935560009081526008602052604090206001015492169116179055610e5c565b50600a5473ffffffffffffffffffffffffffffffffffffffff1690565b600080546040517f7ecd187e00000000000000000000000000000000000000000000000000000000815273ffffffffffffffffffffffffffffffffffffffff90911690637ecd187e90610fcd908590600590600401611385565b60206040518083038186803b158015610fe557600080fd5b505afa158015610ff9573d6000803e3d6000fd5b505050506040513d601f19601f8201168201806040525081019061101d91906112bf565b90505b919050565b3390565b600080546040517f3c9c8f9c00000000000000000000000000000000000000000000000000000000815273ffffffffffffffffffffffffffffffffffffffff90911690633c9c8f9c90611081906065906004016116f8565b60206040518083038186803b15801561109957600080fd5b505afa1580156110ad573d6000803e3d6000fd5b505050506040513d601f19601f820116820180604052508101906110d1919061115c565b905090565b600080546040517f3c9c8f9c00000000000000000000000000000000000000000000000000000000815273ffffffffffffffffffffffffffffffffffffffff90911690633c9c8f9c90611081906068906004016116f8565b803561102081611837565b60006020828403121561114a578081fd5b813561115581611837565b9392505050565b60006020828403121561116d578081fd5b815161115581611837565b6000806040838503121561118a578081fd5b823561119581611837565b915060208301356111a581611837565b809150509250929050565b600080604083850312156111c2578182fd5b82356111cd81611837565b946020939093013593505050565b600060208083850312156111ed578182fd5b823567ffffffffffffffff80821115611204578384fd5b818501915085601f830112611217578384fd5b81358181111561122957611229611808565b8381026040517fffffffffffffffffffffffffffffffffffffffffffffffffffffffffffffffe0603f8301168101818110858211171561126b5761126b611808565b604052828152858101935084860182860187018a1015611289578788fd5b8795505b838610156112b25761129e8161112e565b85526001959095019493860193860161128d565b5098975050505050505050565b6000602082840312156112d0578081fd5b81518015158114611155578182fd5b6000602082840312156112f0578081fd5b5035919050565b600060208284031215611308578081fd5b5051919050565b60008060408385031215611321578182fd5b8235915060208301356111a581611837565b73ffffffffffffffffffffffffffffffffffffffff91909116815260200190565b73ffffffffffffffffffffffffffffffffffffffff9384168152919092166020820152604081019190915260600190565b73ffffffffffffffffffffffffffffffffffffffff92909216825261ffff16602082015260400190565b606080825284519082018190526000906020906080840190828801845b828110156113fe57815173ffffffffffffffffffffffffffffffffffffffff16845292840192908401906001016113cc565b50505073ffffffffffffffffffffffffffffffffffffffff959095169083015250901515604090910152919050565b901515815260200190565b6020808252603a908201527f43757272656e746c79206e6f20696e7465726d656469617269657320616c6c6f60408201527f77656420666f7220746869732066756e6374696f6e2063616c6c000000000000606082015260800190565b60208082526026908201527f4f776e61626c653a206e6577206f776e657220697320746865207a65726f206160408201527f6464726573730000000000000000000000000000000000000000000000000000606082015260800190565b60208082526029908201527f496e73756666696369656e74207374616b6520746f2063616c6c206576656e2060408201527f6f6e6520626c6f636b0000000000000000000000000000000000000000000000606082015260800190565b60208082526030908201527f6d73672e73656e646572206e6f7420617574686f72697a656420746f2064656c60408201527f656761746520666f72207374616b657200000000000000000000000000000000606082015260800190565b6020808252818101527f4f776e61626c653a2063616c6c6572206973206e6f7420746865206f776e6572604082015260600190565b60208082526047908201527f436f756c64206e6f74206465706f736974207374616b652066756e647320287060408201527f657268617073206d616b6520616c6c6f77616e636520746f2066756e6420636f60608201527f6e74726163743f00000000000000000000000000000000000000000000000000608082015260a00190565b60208082526032908201527f496e73756666696369656e742066756e6473202d2d20736f6d657468696e672060408201527f77656e74207265616c6c792077726f6e672e0000000000000000000000000000606082015260800190565b6020808252601d908201527f4e6f7420617574686f72697a656420746f20736f757263652066656573000000604082015260600190565b61ffff91909116815260200190565b90815260200190565b91825273ffffffffffffffffffffffffffffffffffffffff16602082015260400190565b60008219821115611747576117476117d9565b500190565b600082611780577f4e487b710000000000000000000000000000000000000000000000000000000081526012600452602481fd5b500490565b6000817fffffffffffffffffffffffffffffffffffffffffffffffffffffffffffffffff04831182151516156117bd576117bd6117d9565b500290565b6000828210156117d4576117d46117d9565b500390565b7f4e487b7100000000000000000000000000000000000000000000000000000000600052601160045260246000fd5b7f4e487b7100000000000000000000000000000000000000000000000000000000600052604160045260246000fd5b73ffffffffffffffffffffffffffffffffffffffff811681146105d357600080fdfea26469706673582212208e14db518efecf7e665b7a19ea802d9c58a919bc4776fc3395c952acc975b8e064736f6c6343000801003360806040526050600a553480156200001657600080fd5b50604051620035c0380380620035c08339810160408190526200003991620000bc565b600080546001600160a01b0319166001600160a01b0383161781556200005e620000b8565b600180546001600160a01b0319166001600160a01b038316908117909155604051919250906000907f8be0079c531659141344cd1fd0a4f28419497f9722a3daafe3b4186f6b6457e0908290a350506014600355620000ec565b3390565b600060208284031215620000ce578081fd5b81516001600160a01b0381168114620000e5578182fd5b9392505050565b6134c480620000fc6000396000f3fe608060405234801561001057600080fd5b50600436106101e55760003560e01c80636612ce351161010f578063a94c7c34116100a2578063d0eb665311610071578063d0eb665314610365578063d510c53514610378578063d5d7ed7f1461038b578063f2fde38b14610393576101e5565b8063a94c7c341461033a578063a9cc053614610342578063b25777ad1461034a578063cacf8d451461035d576101e5565b806381ca6600116100de57806381ca66001461030f5780638da5cb5b1461031757806395f23a621461031f578063a0098d6914610332576101e5565b80636612ce35146102d957806366941984146102ec578063715018a6146102f457806379575b23146102fc576101e5565b80633500aa0b1161018757806348fb27b81161015657806348fb27b8146102a3578063498d55eb146102ab57806352a664d9146102be5780635c275a39146102d1576101e5565b80633500aa0b14610252578063392f5f6414610265578063409fdb721461027a57806346b887961461029b576101e5565b80632c86d98e116101c35780632c86d98e146102255780632fe94def1461023a578063320d2fa01461024257806332fe7b261461024a576101e5565b8063065d570f146101ea57806316317e7e146102085780631bc5d81d1461021d575b600080fd5b6101f26103a6565b6040516101ff91906132de565b60405180910390f35b61021b610216366004612e85565b6103ab565b005b6101f261042c565b61022d610431565b6040516101ff91906132ed565b6101f2610437565b61022d61043c565b6101f2610442565b61022d610260366004612cc9565b610447565b61026d61051f565b6040516101ff9190612eb5565b61028d610288366004612c8a565b61053b565b6040516101ff929190612f57565b6101f2610731565b6101f2610736565b61021b6102b9366004612d23565b61073b565b61022d6102cc366004612d23565b6107b0565b6101f261088c565b61022d6102e7366004612d23565b610891565b6101f2610955565b61021b61095a565b61021b61030a366004612e85565b610a3c565b6101f2610ab4565b61026d610ab9565b61022d61032d366004612d63565b610ad5565b6101f2610e98565b6101f2610e9d565b6101f2610ea2565b61021b610358366004612d23565b610ea7565b6101f2610f1b565b61021b610373366004612d23565b610f20565b61028d610386366004612c8a565b611007565b6101f261127f565b61021b6103a1366004612c8a565b611284565b600381565b6103b36113d2565b73ffffffffffffffffffffffffffffffffffffffff166103d1610ab9565b73ffffffffffffffffffffffffffffffffffffffff1614610427576040517f08c379a000000000000000000000000000000000000000000000000000000000815260040161041e90613192565b60405180910390fd5b600355565b600881565b60025481565b606981565b60035481565b606781565b6000610452336113d6565b610488576040517f08c379a000000000000000000000000000000000000000000000000000000000815260040161041e90612fe7565b73ffffffffffffffffffffffffffffffffffffffff8087166000908152600460208181526040808420948a16845291840190529020548490811115610507575073ffffffffffffffffffffffffffffffffffffffff861660009081526004820160205260409020546104fa81866133b0565b9250610507828885611487565b6105148288888488611725565b505095945050505050565b60005473ffffffffffffffffffffffffffffffffffffffff1681565b73ffffffffffffffffffffffffffffffffffffffff81166000908152600460209081526040918290206003810180548451818502810185019095528085526060948594909291908301828280156105c857602002820191906000526020600020905b815473ffffffffffffffffffffffffffffffffffffffff16815260019091019060200180831161059d575b5050506003840154929550505067ffffffffffffffff811115610614577f4e487b7100000000000000000000000000000000000000000000000000000000600052604160045260246000fd5b60405190808252806020026020018201604052801561063d578160200160208202803683370190505b50915060005b808451111561072a576000848281518110610687577f4e487b7100000000000000000000000000000000000000000000000000000000600052603260045260246000fd5b602002602001015190508260040160008273ffffffffffffffffffffffffffffffffffffffff1673ffffffffffffffffffffffffffffffffffffffff1681526020019081526020016000205484838151811061070c577f4e487b7100000000000000000000000000000000000000000000000000000000600052603260045260246000fd5b60209081029190910101525080610722816133c7565b915050610643565b5050915091565b600681565b606681565b610744336113d6565b61077a576040517f08c379a000000000000000000000000000000000000000000000000000000000815260040161041e90613281565b73ffffffffffffffffffffffffffffffffffffffff831660009081526004602052604090206107aa818484611487565b50505050565b60006107bb336113d6565b6107f1576040517f08c379a000000000000000000000000000000000000000000000000000000000815260040161041e90613281565b73ffffffffffffffffffffffffffffffffffffffff84166000908152600460205260409020610821818585611792565b73ffffffffffffffffffffffffffffffffffffffff84166000908152600182016020526040902054156108845773ffffffffffffffffffffffffffffffffffffffff84166000908152600182016020526040902054610881908490611837565b91505b509392505050565b606581565b600061089c336113d6565b6108d2576040517f08c379a000000000000000000000000000000000000000000000000000000000815260040161041e906130d8565b73ffffffffffffffffffffffffffffffffffffffff80851660009081526004602081815260408084209488168452918401905290205461091290846133b0565b915061091f818584611851565b610884576040517f08c379a000000000000000000000000000000000000000000000000000000000815260040161041e90613044565b600181565b6109626113d2565b73ffffffffffffffffffffffffffffffffffffffff16610980610ab9565b73ffffffffffffffffffffffffffffffffffffffff16146109cd576040517f08c379a000000000000000000000000000000000000000000000000000000000815260040161041e90613192565b60015460405160009173ffffffffffffffffffffffffffffffffffffffff16907f8be0079c531659141344cd1fd0a4f28419497f9722a3daafe3b4186f6b6457e0908390a3600180547fffffffffffffffffffffffff0000000000000000000000000000000000000000169055565b610a446113d2565b73ffffffffffffffffffffffffffffffffffffffff16610a62610ab9565b73ffffffffffffffffffffffffffffffffffffffff1614610aaf576040517f08c379a000000000000000000000000000000000000000000000000000000000815260040161041e90613192565b600255565b606a81565b60015473ffffffffffffffffffffffffffffffffffffffff1690565b6000610ae033611883565b610b16576040517f08c379a000000000000000000000000000000000000000000000000000000000815260040161041e906131c7565b6000610b2285846118dd565b9050610b2e8183613322565b91506000610b3a61202e565b90506000610b4661218b565b905081811115610b91577f3555ffae7677eb42103f0b9e11b61c758f452fae446684dec7a363dd38ab58fc610b7b83836133b0565b604051610b8891906132ed565b60405180910390a15b60005b600854811015610e8d57600060088281548110610bda577f4e487b7100000000000000000000000000000000000000000000000000000000600052603260045260246000fd5b600091825260208083209091015473ffffffffffffffffffffffffffffffffffffffff1680835260049091526040822090925090610c17826122e1565b90506000610c24836122f3565b9050600060028054606460035485610c3c9190613373565b610c46919061333a565b610c50919061333a565b610c5a919061333a565b90508a15610c7357610c6c818b613322565b9950610cd6565b73ffffffffffffffffffffffffffffffffffffffff8581166000908152600960205260409020600181018390556002810180547fffffffffffffffffffffffff000000000000000000000000000000000000000016928f16929092179091554390555b610ce08282613322565b8310610e1a57610cee612306565b73ffffffffffffffffffffffffffffffffffffffff1663d9caed12610d116123b3565b73ffffffffffffffffffffffffffffffffffffffff16631f1cb62b6040518163ffffffff1660e01b815260040160206040518083038186803b158015610d5657600080fd5b505afa158015610d6a573d6000803e3d6000fd5b505050506040513d601f19601f82011682018060405250810190610d8e9190612cad565b8784610d9a87896133b0565b610da491906133b0565b6040518463ffffffff1660e01b8152600401610dc293929190612ed6565b602060405180830381600087803b158015610ddc57600080fd5b505af1158015610df0573d6000803e3d6000fd5b505050506040513d601f19601f82011682018060405250810190610e149190612e69565b50610e6c565b600083610e278385613322565b610e3191906133b0565b90507f3555ffae7677eb42103f0b9e11b61c758f452fae446684dec7a363dd38ab58fc81604051610e6291906132ed565b60405180910390a1505b610e758461240b565b50505050508080610e85906133c7565b915050610b94565b505050509392505050565b600281565b600581565b606881565b610eb0336113d6565b610ee6576040517f08c379a000000000000000000000000000000000000000000000000000000000815260040161041e90613281565b73ffffffffffffffffffffffffffffffffffffffff83166000908152600460205260409020610f16908383612587565b505050565b600481565b610f29336113d6565b610f5f576040517f08c379a000000000000000000000000000000000000000000000000000000000815260040161041e90613281565b73ffffffffffffffffffffffffffffffffffffffff808416600090815260046020818152604080842094871684529184019052902054610fa09083906133b0565b73ffffffffffffffffffffffffffffffffffffffff84166000908152600483016020526040902055610fd1816126fe565b6107aa576040517f08c379a000000000000000000000000000000000000000000000000000000000815260040161041e90613135565b73ffffffffffffffffffffffffffffffffffffffff8116600090815260046020908152604091829020805483518184028101840190945280845260609384939091839183018282801561109057602002820191906000526020600020905b815473ffffffffffffffffffffffffffffffffffffffff168152600190910190602001808311611065575b50508454939650505067ffffffffffffffff82111590506110da577f4e487b7100000000000000000000000000000000000000000000000000000000600052604160045260246000fd5b604051908082528060200260200182016040528015611103578160200160208202803683370190505b50915060005b808451111561072a57600084828151811061114d577f4e487b7100000000000000000000000000000000000000000000000000000000600052603260045260246000fd5b6020026020010151905061115f612749565b73ffffffffffffffffffffffffffffffffffffffff828116600090815260018601602090815260408083205460028901909252918290205491517f687680ed000000000000000000000000000000000000000000000000000000008152939092169263687680ed926111d89290918691906004016132f6565b60206040518083038186803b1580156111f057600080fd5b505afa158015611204573d6000803e3d6000fd5b505050506040513d601f19601f820116820180604052508101906112289190612e9d565b848381518110611261577f4e487b7100000000000000000000000000000000000000000000000000000000600052603260045260246000fd5b60209081029190910101525080611277816133c7565b915050611109565b600781565b61128c6113d2565b73ffffffffffffffffffffffffffffffffffffffff166112aa610ab9565b73ffffffffffffffffffffffffffffffffffffffff16146112f7576040517f08c379a000000000000000000000000000000000000000000000000000000000815260040161041e90613192565b73ffffffffffffffffffffffffffffffffffffffff8116611344576040517f08c379a000000000000000000000000000000000000000000000000000000000815260040161041e9061307b565b60015460405173ffffffffffffffffffffffffffffffffffffffff8084169216907f8be0079c531659141344cd1fd0a4f28419497f9722a3daafe3b4186f6b6457e090600090a3600180547fffffffffffffffffffffffff00000000000000000000000000000000000000001673ffffffffffffffffffffffffffffffffffffffff92909216919091179055565b3390565b600080546040517f7ecd187e00000000000000000000000000000000000000000000000000000000815273ffffffffffffffffffffffffffffffffffffffff90911690637ecd187e9061142f9085906004908101612f07565b60206040518083038186803b15801561144757600080fd5b505afa15801561145b573d6000803e3d6000fd5b505050506040513d601f19601f8201168201806040525081019061147f9190612e69565b90505b919050565b61149183836127a1565b6115a25782546001810184556000848152602090200180547fffffffffffffffffffffffff00000000000000000000000000000000000000001673ffffffffffffffffffffffffffffffffffffffff84161790556114ed612749565b73ffffffffffffffffffffffffffffffffffffffff1663e7bde5c1836040518263ffffffff1660e01b81526004016115259190612eb5565b60206040518083038186803b15801561153d57600080fd5b505afa158015611551573d6000803e3d6000fd5b505050506040513d601f19601f820116820180604052508101906115759190612e9d565b73ffffffffffffffffffffffffffffffffffffffff8316600090815260028501602052604090205561169e565b6115aa612749565b73ffffffffffffffffffffffffffffffffffffffff838116600090815260018601602090815260408083205460028901909252918290205491517fe695fa68000000000000000000000000000000000000000000000000000000008152939092169263e695fa68926116239290918791906004016132f6565b602060405180830381600087803b15801561163d57600080fd5b505af1158015611651573d6000803e3d6000fd5b505050506040513d601f19601f820116820180604052508101906116759190612e9d565b73ffffffffffffffffffffffffffffffffffffffff831660009081526001850160205260409020555b73ffffffffffffffffffffffffffffffffffffffff82166000908152600184016020526040812080548392906116d5908490613322565b909155506116e69050838383611792565b6116ef836126fe565b610f16576040517f08c379a000000000000000000000000000000000000000000000000000000000815260040161041e90613224565b73ffffffffffffffffffffffffffffffffffffffff841660009081526004860160205260409020546117589083906133b0565b73ffffffffffffffffffffffffffffffffffffffff8516600090815260048701602052604090205561178b858483611792565b5050505050565b61179c83836127cf565b6117f657600383018054600181018255600091825260209091200180547fffffffffffffffffffffffff00000000000000000000000000000000000000001673ffffffffffffffffffffffffffffffffffffffff84161790555b73ffffffffffffffffffffffffffffffffffffffff821660009081526004840160205260408120805483929061182d908490613322565b9091555050505050565b60008183111561184857508061184b565b50815b92915050565b73ffffffffffffffffffffffffffffffffffffffff821660009081526004840160205260409020548111159392505050565b600080546040517f7ecd187e00000000000000000000000000000000000000000000000000000000815273ffffffffffffffffffffffffffffffffffffffff90911690637ecd187e9061142f908590600290600401612f07565b6040805160008082526020820192839052905190916118ff9160069190612bbf565b50604080516000815260208101918290525161191d91600791612bbf565b50604080516000815260208101918290525161193b91600891612bbf565b5060005b8084511115612027576000848281518110611983577f4e487b7100000000000000000000000000000000000000000000000000000000600052603260045260246000fd5b602002602001015190506000600460008373ffffffffffffffffffffffffffffffffffffffff1673ffffffffffffffffffffffffffffffffffffffff16815260200190815260200160002090506119d9816127fe565b15611de8576008805460018101825560009182527ff3f7a9fe364faab93b216da50a3214154f22a0a2b415b23a84c8169e8b636ee30180547fffffffffffffffffffffffff00000000000000000000000000000000000000001673ffffffffffffffffffffffffffffffffffffffff85161790555b6003820154811015611bc6576000826003018281548110611a98577f4e487b7100000000000000000000000000000000000000000000000000000000600052603260045260246000fd5b600091825260208083209091015473ffffffffffffffffffffffffffffffffffffffff16808352600590915260409091206002810154919250904314611b6e5773ffffffffffffffffffffffffffffffffffffffff821660008181526004860160205260408120546001808501919091558184554360028501556006805491820181559091527ff652222313e28459528d920b65115c16c04f3efc82aaedc97be59f3f377c0d3f0180547fffffffffffffffffffffffff0000000000000000000000000000000000000000169091179055611bb1565b73ffffffffffffffffffffffffffffffffffffffff8216600090815260048501602052604081205460018301805491929091611bab908490613322565b90915550505b50508080611bbe906133c7565b915050611a4e565b5060005b8154811015611de6576000826000018281548110611c11577f4e487b7100000000000000000000000000000000000000000000000000000000600052603260045260246000fd5b600091825260208083209091015473ffffffffffffffffffffffffffffffffffffffff1680835260059091526040822090925090611c4d612749565b73ffffffffffffffffffffffffffffffffffffffff1663e7bde5c1846040518263ffffffff1660e01b8152600401611c859190612eb5565b60206040518083038186803b158015611c9d57600080fd5b505afa158015611cb1573d6000803e3d6000fd5b505050506040513d601f19601f82011682018060405250810190611cd59190612e9d565b73ffffffffffffffffffffffffffffffffffffffff8416600090815260028701602090815260408083205460018a019092528220549293509091611d1a908490613373565b611d24919061333a565b905043836002015414611db557600060018481018290558285554360028601556007805491820181559091527fa66cc928b5edb82af9bd49922954155ab7b0942694bea4ce44661d9a8736c6880180547fffffffffffffffffffffffff00000000000000000000000000000000000000001673ffffffffffffffffffffffffffffffffffffffff8616179055611dcf565b80836000016000828254611dc99190613322565b90915550505b505050508080611dde906133c7565b915050611bca565b505b73ffffffffffffffffffffffffffffffffffffffff82166000908152600960205260409020600181015415801590611e1d5750855b15612011578054600090611e4890611e36436001613322565b611e4091906133b0565b600a54611837565b90506000600a54836001015483611e5f9190613373565b611e69919061333a565b9050611e73612306565b73ffffffffffffffffffffffffffffffffffffffff1663d9caed12611e966123b3565b73ffffffffffffffffffffffffffffffffffffffff16631f1cb62b6040518163ffffffff1660e01b815260040160206040518083038186803b158015611edb57600080fd5b505afa158015611eef573d6000803e3d6000fd5b505050506040513d601f19601f82011682018060405250810190611f139190612cad565b60028601546040517fffffffff0000000000000000000000000000000000000000000000000000000060e085901b168152611f6a929173ffffffffffffffffffffffffffffffffffffffff16908690600401612ed6565b602060405180830381600087803b158015611f8457600080fd5b505af1158015611f98573d6000803e3d6000fd5b505050506040513d601f19601f82011682018060405250810190611fbc9190612e69565b50808360010154611fcd91906133b0565b611fd79088613322565b6000600185018190556002850180547fffffffffffffffffffffffff00000000000000000000000000000000000000001690558455965050505b505050808061201f906133c7565b91505061193f565b5092915050565b6000805b60065481101561218757600060068281548110612078577f4e487b7100000000000000000000000000000000000000000000000000000000600052603260045260246000fd5b600091825260208083209091015473ffffffffffffffffffffffffffffffffffffffff1680835260059091526040909120805460018201549293509091111561217257805460018201546000916120ce916133b0565b90506120d86123b3565b73ffffffffffffffffffffffffffffffffffffffff166305883f7c84836040518363ffffffff1660e01b8152600401612112929190612f31565b602060405180830381600087803b15801561212c57600080fd5b505af1158015612140573d6000803e3d6000fd5b505050506040513d601f19601f820116820180604052508101906121649190612e9d565b61216e9086613322565b9450505b5050808061217f906133c7565b915050612032565b5090565b6000805b600754811015612187576000600782815481106121d5577f4e487b7100000000000000000000000000000000000000000000000000000000600052603260045260246000fd5b600091825260208083209091015473ffffffffffffffffffffffffffffffffffffffff168083526005909152604090912060018101548154929350909111156122cc576122206123b3565b73ffffffffffffffffffffffffffffffffffffffff166305883f7c838360010154846000015461225091906133b0565b6040518363ffffffff1660e01b815260040161226d929190612f31565b602060405180830381600087803b15801561228757600080fd5b505af115801561229b573d6000803e3d6000fd5b505050506040513d601f19601f820116820180604052508101906122bf9190612e9d565b6122c99085613322565b93505b505080806122d9906133c7565b91505061218f565b600061147f8260030183600401612858565b600061147f8260018101600282016129a6565b600080546040517f3c9c8f9c00000000000000000000000000000000000000000000000000000000815273ffffffffffffffffffffffffffffffffffffffff90911690633c9c8f9c9061235e906065906004016132de565b60206040518083038186803b15801561237657600080fd5b505afa15801561238a573d6000803e3d6000fd5b505050506040513d601f19601f820116820180604052508101906123ae9190612cad565b905090565b600080546040517f3c9c8f9c00000000000000000000000000000000000000000000000000000000815273ffffffffffffffffffffffffffffffffffffffff90911690633c9c8f9c9061235e90606a906004016132de565b60005b81548110156124a6576000826000018281548110612455577f4e487b7100000000000000000000000000000000000000000000000000000000600052603260045260246000fd5b600091825260208083209091015473ffffffffffffffffffffffffffffffffffffffff168252600185018152604080832083905560028601909152812055508061249e816133c7565b91505061240e565b5060005b600382015481101561256a5760008260030182815481106124f4577f4e487b7100000000000000000000000000000000000000000000000000000000600052603260045260246000fd5b600091825260208083209091015473ffffffffffffffffffffffffffffffffffffffff168252600485018152604080832083905560058601909152902080547fffffffffffffffffffffffffffffffffffffffffffffffffffffffffffffff001690555080612562816133c7565b9150506124aa565b50612576816000612c45565b612584600382016000612c45565b50565b61258f612749565b73ffffffffffffffffffffffffffffffffffffffff838116600090815260018601602090815260408083205460028901909252918290205491517fe695fa68000000000000000000000000000000000000000000000000000000008152939092169263e695fa68926126089290918791906004016132f6565b602060405180830381600087803b15801561262257600080fd5b505af1158015612636573d6000803e3d6000fd5b505050506040513d601f19601f8201168201806040525081019061265a9190612e9d565b73ffffffffffffffffffffffffffffffffffffffff83166000908152600185016020526040902081905561268f9082906133b0565b73ffffffffffffffffffffffffffffffffffffffff8316600090815260018501602090815260408083209390935560048601905220546126d09082906133b0565b73ffffffffffffffffffffffffffffffffffffffff9092166000908152600490930160205250604090912055565b60008061270a836122f3565b90506000612717846122e1565b9050600254826127279190613373565b600254612735906001613322565b61273f9083613373565b1015949350505050565b600080546040517f3c9c8f9c00000000000000000000000000000000000000000000000000000000815273ffffffffffffffffffffffffffffffffffffffff90911690633c9c8f9c9061235e906066906004016132de565b73ffffffffffffffffffffffffffffffffffffffff1660009081526002919091016020526040902054151590565b73ffffffffffffffffffffffffffffffffffffffff166000908152600591909101602052604090205460ff1690565b60008061280a836122f3565b90506000612817846122e1565b905081600354600254606461282c9190613373565b6128369190613322565b6128409190613373565b60025461284d9083613373565b61273f906064613373565b6000805b83548110156120275760008482815481106128a0577f4e487b7100000000000000000000000000000000000000000000000000000000600052603260045260246000fd5b60009182526020909120015473ffffffffffffffffffffffffffffffffffffffff1690506128cc6123b3565b73ffffffffffffffffffffffffffffffffffffffff828116600090815260208790526040908190205490517fe47109a9000000000000000000000000000000000000000000000000000000008152929091169163e47109a99161293491859190600401612f31565b602060405180830381600087803b15801561294e57600080fd5b505af1158015612962573d6000803e3d6000fd5b505050506040513d601f19601f820116820180604052508101906129869190612e9d565b6129909084613322565b925050808061299e906133c7565b91505061285c565b6000805b84548110156108845760008582815481106129ee577f4e487b7100000000000000000000000000000000000000000000000000000000600052603260045260246000fd5b600091825260208083209091015473ffffffffffffffffffffffffffffffffffffffff1680835290879052604090912054909150612a2e90829086612a4e565b612a389084613322565b9250508080612a46906133c7565b9150506129aa565b600080612a59612749565b73ffffffffffffffffffffffffffffffffffffffff1663e7bde5c1866040518263ffffffff1660e01b8152600401612a919190612eb5565b60206040518083038186803b158015612aa957600080fd5b505afa158015612abd573d6000803e3d6000fd5b505050506040513d601f19601f82011682018060405250810190612ae19190612e9d565b73ffffffffffffffffffffffffffffffffffffffff861660009081526020859052604081205491925090612b158387613373565b612b1f919061333a565b9050612b296123b3565b73ffffffffffffffffffffffffffffffffffffffff1663e47109a987836040518363ffffffff1660e01b8152600401612b63929190612f31565b602060405180830381600087803b158015612b7d57600080fd5b505af1158015612b91573d6000803e3d6000fd5b505050506040513d601f19601f82011682018060405250810190612bb59190612e9d565b9695505050505050565b828054828255906000526020600020908101928215612c39579160200282015b82811115612c3957825182547fffffffffffffffffffffffff00000000000000000000000000000000000000001673ffffffffffffffffffffffffffffffffffffffff909116178255602090920191600190910190612bdf565b50612187929150612c5f565b508054600082559060005260206000209081019061258491905b5b808211156121875760008155600101612c60565b80356114828161345e565b803561148281613480565b600060208284031215612c9b578081fd5b8135612ca68161345e565b9392505050565b600060208284031215612cbe578081fd5b8151612ca68161345e565b600080600080600060a08688031215612ce0578081fd5b8535612ceb8161345e565b94506020860135612cfb8161345e565b93506040860135612d0b8161345e565b94979396509394606081013594506080013592915050565b600080600060608486031215612d37578283fd5b8335612d428161345e565b92506020840135612d528161345e565b929592945050506040919091013590565b600080600060608486031215612d77578283fd5b833567ffffffffffffffff80821115612d8e578485fd5b818601915086601f830112612da1578485fd5b8135602082821115612db557612db561342f565b8082026040517fffffffffffffffffffffffffffffffffffffffffffffffffffffffffffffffe0603f83011681018181108682111715612df757612df761342f565b604052838152828101945085830182870184018c1015612e1557898afd5b8996505b84871015612e3e57612e2a81612c74565b865260019690960195948301948301612e19565b509750612e4e9050888201612c74565b955050505050612e6060408501612c7f565b90509250925092565b600060208284031215612e7a578081fd5b8151612ca681613480565b600060208284031215612e96578081fd5b5035919050565b600060208284031215612eae578081fd5b5051919050565b73ffffffffffffffffffffffffffffffffffffffff91909116815260200190565b73ffffffffffffffffffffffffffffffffffffffff9384168152919092166020820152604081019190915260600190565b73ffffffffffffffffffffffffffffffffffffffff92909216825261ffff16602082015260400190565b73ffffffffffffffffffffffffffffffffffffffff929092168252602082015260400190565b604080825283519082018190526000906020906060840190828701845b82811015612fa657815173ffffffffffffffffffffffffffffffffffffffff1684529284019290840190600101612f74565b50505083810382850152845180825285830191830190845b81811015612fda57835183529284019291840191600101612fbe565b5090979650505050505050565b60208082526039908201527f43616c6c696e6720636f6e7472616374206973206e6f7420616e20617574686f60408201527f72697a6564206d617267696e20747261646572206167656e7400000000000000606082015260800190565b60208082526018908201527f43616e277420626f72726f772066756c6c20616d6f756e740000000000000000604082015260600190565b60208082526026908201527f4f776e61626c653a206e6577206f776e657220697320746865207a65726f206160408201527f6464726573730000000000000000000000000000000000000000000000000000606082015260800190565b60208082526033908201527f43616c6c696e6720636f6e7472616374206973206e6f7420616e20617574686f60408201527f72697a6564206d617267696e2074726164657200000000000000000000000000606082015260800190565b60208082526026908201527f4163636f756e742062616c616e636520697320746f6f206c6f7720746f20776960408201527f7468647261770000000000000000000000000000000000000000000000000000606082015260800190565b6020808252818101527f4f776e61626c653a2063616c6c6572206973206e6f7420746865206f776e6572604082015260600190565b6020808252602f908201527f43616c6c696e67206164647265737320646f65736e27742068617665206d617260408201527f67696e2063616c6c657220726f6c650000000000000000000000000000000000606082015260800190565b60208082526022908201527f43616e277420626f72726f773a20696e73756666696369656e742062616c616e60408201527f6365000000000000000000000000000000000000000000000000000000000000606082015260800190565b6020808252602a908201527f43616c6c696e6720636f6e7472616374206e6f7420617574686f72697a65642060408201527f746f206465706f73697400000000000000000000000000000000000000000000606082015260800190565b61ffff91909116815260200190565b90815260200190565b92835273ffffffffffffffffffffffffffffffffffffffff919091166020830152604082015260600190565b6000821982111561333557613335613400565b500190565b60008261336e577f4e487b710000000000000000000000000000000000000000000000000000000081526012600452602481fd5b500490565b6000817fffffffffffffffffffffffffffffffffffffffffffffffffffffffffffffffff04831182151516156133ab576133ab613400565b500290565b6000828210156133c2576133c2613400565b500390565b60007fffffffffffffffffffffffffffffffffffffffffffffffffffffffffffffffff8214156133f9576133f9613400565b5060010190565b7f4e487b7100000000000000000000000000000000000000000000000000000000600052601160045260246000fd5b7f4e487b7100000000000000000000000000000000000000000000000000000000600052604160045260246000fd5b73ffffffffffffffffffffffffffffffffffffffff8116811461258457600080fd5b801515811461258457600080fdfea264697066735822122094d334c2fbf88cf907360459b547f2cf9eceecf742cdc08cb787ddaba2cf2f2764736f6c6343000801003360806040523480156200001157600080fd5b5060405162002d4f38038062002d4f8339810160408190526200003491620000b2565b600080546001600160a01b0319166001600160a01b03831617815562000059620000ae565b600180546001600160a01b0319166001600160a01b038316908117909155604051919250906000907f8be0079c531659141344cd1fd0a4f28419497f9722a3daafe3b4186f6b6457e0908290a35050620000e2565b3390565b600060208284031215620000c4578081fd5b81516001600160a01b0381168114620000db578182fd5b9392505050565b612c5d80620000f26000396000f3fe608060405234801561001057600080fd5b50600436106103785760003560e01c806381ca6600116101d3578063cacf8d4511610104578063e69f8959116100a2578063ee0862bf1161007c578063ee0862bf146106a5578063f11f9795146106b8578063f2fde38b146106c0578063f884614b146106d357610378565b8063e69f89591461066c578063e7bde5c11461067f578063e84bfdf41461069257610378565b8063d5d7ed7f116100de578063d5d7ed7f1461062b578063dcaf802914610633578063e2e1ca2b14610646578063e695fa681461065957610378565b8063cacf8d45146105fd578063cd3b5dfb14610605578063d3dc14b21461061857610378565b8063a9cc053611610171578063c1cea8071161014b578063c1cea807146105bc578063c3daab96146105cf578063c43a683d146105e2578063c4f7d45d146105ea57610378565b8063a9cc053614610599578063aa7e321d146105a1578063bfedc0bf146105a957610378565b80639229e73f116101ad5780639229e73f14610579578063a0098d6914610581578063a8b151a114610589578063a94c7c341461059157610378565b806381ca66001461054757806383a042291461054f5780638da5cb5b1461057157610378565b8063392f5f64116102ad5780635c275a391161024b578063687680ed11610225578063687680ed14610511578063715018a614610524578063773bbb3b1461052c5780637b8b4ee21461053457610378565b80635c275a39146104db5780635f1c17c0146104e3578063669419841461050957610378565b806346b887961161028757806346b88796146104b057806348fb27b8146104b857806349f7cff6146104c057806358d51f91146104d357610378565b8063392f5f64146104755780633aa58f451461048a57806340fe56a91461049d57610378565b80631799f0c31161031a578063247ae0a6116102f4578063247ae0a61461043f5780632a6a897b146104525780632fe94def1461046557806332fe7b261461046d57610378565b80631799f0c3146104115780631bc5d81d1461042457806320b155151461042c57610378565b80630bba92b3116103565780630bba92b3146103c35780630f7c43dc146103d657806316de7a43146103eb5780631744a9b6146103fe57610378565b80630196c3611461037d578063065d570f146103a65780630b550546146103bb575b600080fd5b61039061038b3660046125f8565b6106e6565b60405161039d9190612ab8565b60405180910390f35b6103ae610717565b60405161039d9190612aa9565b61039061071c565b6103906103d1366004612623565b610722565b6103e96103e43660046125f8565b6107f0565b005b6103e96103f93660046125f8565b61083b565b61039061040c366004612581565b610979565b61039061041f366004612581565b61098b565b6103ae61099d565b61039061043a366004612581565b6109a2565b61039061044d3660046125f8565b6109b4565b6103e96104603660046125f8565b6109d0565b6103ae610a4d565b6103ae610a52565b61047d610a57565b60405161039d9190612700565b610390610498366004612581565b610a73565b6103906104ab3660046125f8565b610a85565b6103ae610aa1565b6103ae610aa6565b6103906104ce366004612581565b610aab565b610390610abd565b6103ae610ac3565b6104f66104f13660046126b1565b610ac8565b60405161039d9796959493929190612752565b6103ae610b1e565b61039061051f3660046126c9565b610b23565b6103e9610b48565b610390610c2a565b610390610542366004612657565b610c30565b6103ae61106f565b61056261055d3660046125c0565b611074565b60405161039d93929190612ac1565b61047d6110a0565b6103906110bc565b6103ae6110c2565b6103906110c7565b6103ae6110cd565b6103ae6110d2565b6103906110d7565b6105626105b7366004612581565b6110dd565b6103906105ca366004612581565b6110fe565b6103e96105dd3660046126b1565b611110565b610390611485565b6103906105f83660046125f8565b61148b565b6103ae6114a7565b610562610613366004612581565b6114ac565b6103906106263660046125f8565b6114cd565b6103ae6114e9565b6103906106413660046125f8565b6114ee565b610390610654366004612581565b61150a565b6103906106673660046126c9565b61151c565b61039061067a3660046125f8565b61153c565b61039061068d366004612581565b611558565b6103906106a03660046125f8565b61156c565b6103e96106b33660046125f8565b611588565b610390611731565b6103e96106ce366004612581565b611737565b6103e96106e1366004612581565b611885565b6016602052816000526040600020818154811061070257600080fd5b90600052602060002001600091509150505481565b600381565b600f5481565b60008061072f85856118e4565b905060006107ca86601a60008973ffffffffffffffffffffffffffffffffffffffff1673ffffffffffffffffffffffffffffffffffffffff16815260200190815260200160002084815481106107ae577f4e487b7100000000000000000000000000000000000000000000000000000000600052603260045260246000fd5b9060005260206000200154866107c49190612ad7565b84611925565b90506401000000006107dc8583612b03565b6107e69190612aef565b9695505050505050565b73ffffffffffffffffffffffffffffffffffffffff82166000908152600760209081526040808320338452909152902061082a8382611c70565b61083683823385611d2f565b505050565b73ffffffffffffffffffffffffffffffffffffffff821660009081526002602052604090205461086c908290612ad7565b73ffffffffffffffffffffffffffffffffffffffff8316600090815260046020526040902054106109755761089f611eec565b73ffffffffffffffffffffffffffffffffffffffff166347e7ef2483836040518363ffffffff1660e01b81526004016108d99291906127c7565b602060405180830381600087803b1580156108f357600080fd5b505af1158015610907573d6000803e3d6000fd5b505050506040513d601f19601f8201168201806040525081019061092b9190612691565b61096a576040517f08c379a000000000000000000000000000000000000000000000000000000000815260040161096190612a4c565b60405180910390fd5b610975823383611f99565b5050565b60046020526000908152604090205481565b60056020526000908152604090205481565b600881565b600b6020526000908152604090205481565b6015602052816000526040600020818154811061070257600080fd5b6109d9336120a4565b610a0f576040517f08c379a000000000000000000000000000000000000000000000000000000000815260040161096190612a15565b73ffffffffffffffffffffffffffffffffffffffff821660009081526003602052604081208054839290610a44908490612b40565b90915550505050565b606981565b606781565b60005473ffffffffffffffffffffffffffffffffffffffff1681565b600a6020526000908152604090205481565b6012602052816000526040600020818154811061070257600080fd5b600681565b606681565b60096020526000908152604090205481565b60115481565b606581565b601960205260009081526040902080546001820154600283015460038401546004850154600586015460069096015473ffffffffffffffffffffffffffffffffffffffff95861696959094169492939192909187565b600181565b600080610b3284601d4261214e565b9050610b3f8582856121b5565b95945050505050565b610b506121cc565b73ffffffffffffffffffffffffffffffffffffffff16610b6e6110a0565b73ffffffffffffffffffffffffffffffffffffffff1614610bbb576040517f08c379a00000000000000000000000000000000000000000000000000000000081526004016109619061293b565b60015460405160009173ffffffffffffffffffffffffffffffffffffffff16907f8be0079c531659141344cd1fd0a4f28419497f9722a3daafe3b4186f6b6457e0908390a3600180547fffffffffffffffffffffffff0000000000000000000000000000000000000000169055565b600d5481565b73ffffffffffffffffffffffffffffffffffffffff8416600090815260026020526040812054610c61908490612ad7565b73ffffffffffffffffffffffffffffffffffffffff861660009081526004602052604090205410801590610c97575083600e5410155b8015610ca55750600d548410155b15611067576000610cb686866118e4565b90506000610d4b87601a60008a73ffffffffffffffffffffffffffffffffffffffff1673ffffffffffffffffffffffffffffffffffffffff1681526020019081526020016000208481548110610d35577f4e487b7100000000000000000000000000000000000000000000000000000000600052603260045260246000fd5b9060005260206000200154876107c49190612ad7565b90506000640100000000610d5f8784612b03565b610d699190612aef565b905084811061106357610d7a611eec565b73ffffffffffffffffffffffffffffffffffffffff1663b3db428b338a896040518463ffffffff1660e01b8152600401610db693929190612721565b602060405180830381600087803b158015610dd057600080fd5b505af1158015610de4573d6000803e3d6000fd5b505050506040513d601f19601f82011682018060405250810190610e089190612691565b156110635760006002610e1b8389612ad7565b610e259190612aef565b73ffffffffffffffffffffffffffffffffffffffff8a16600090815260026020526040812080549293508392909190610e5f908490612ad7565b909155505073ffffffffffffffffffffffffffffffffffffffff89166000908152601a60205260409020805482919086908110610ec5577f4e487b7100000000000000000000000000000000000000000000000000000000600052603260045260246000fd5b906000526020600020016000828254610ede9190612ad7565b90915550889050610eef8489612b03565b610efb90610e10612b03565b610f059190612aef565b73ffffffffffffffffffffffffffffffffffffffff8a1660009081526005602052604081208054909190610f3a908490612ad7565b9091555050601c8054955085906000610f5283612b57565b90915550506040805160e08101825233815273ffffffffffffffffffffffffffffffffffffffff8b1660208201529081018890526060810183905260808101610f9b8a42612ad7565b815260208082018b90526040918201869052600088815260198252828120845181547fffffffffffffffffffffffff000000000000000000000000000000000000000090811673ffffffffffffffffffffffffffffffffffffffff92831617835586850151600184018054909216908316179055858501516002830155606086015160038301556080860151600483015560a0860151600583015560c090950151600690910155928c16835260148152818320601590915291206110619190868a6121d0565b505b5050505b949350505050565b606a81565b600760209081526000928352604080842090915290825290208054600182015460029092015490919083565b60015473ffffffffffffffffffffffffffffffffffffffff1690565b600e5481565b600281565b600c5481565b600581565b606881565b601c5481565b60086020526000908152604090208054600182015460029092015490919083565b60026020526000908152604090205481565b6000818152601960205260409020805473ffffffffffffffffffffffffffffffffffffffff16331461116e576040517f08c379a000000000000000000000000000000000000000000000000000000000815260040161096190612970565b806004015442116111ab576040517f08c379a0000000000000000000000000000000000000000000000000000000008152600401610961906129de565b6001810154600582015473ffffffffffffffffffffffffffffffffffffffff909116906000906111dc9083906118e4565b905060006002846003015485600201546111f69190612ad7565b6112009190612aef565b73ffffffffffffffffffffffffffffffffffffffff841660009081526002602052604081208054929350839290919061123a908490612b40565b909155505073ffffffffffffffffffffffffffffffffffffffff83166000908152601a602052604090208054829190849081106112a0577f4e487b7100000000000000000000000000000000000000000000000000000000600052603260045260246000fd5b9060005260206000200160008282546112b99190612b40565b909155505073ffffffffffffffffffffffffffffffffffffffff831660009081526016602090815260408083206017909252909120600286015461130092919085906121d0565b73ffffffffffffffffffffffffffffffffffffffff831660009081526002602090815260408083205460039092529091205411806113f45750611341611eec565b845460038601546040517fd9caed1200000000000000000000000000000000000000000000000000000000815273ffffffffffffffffffffffffffffffffffffffff9384169363d9caed12936113a09389939290911691600401612721565b602060405180830381600087803b1580156113ba57600080fd5b505af11580156113ce573d6000803e3d6000fd5b505050506040513d601f19601f820116820180604052508101906113f29190612691565b155b1561147e578354600385015460405173ffffffffffffffffffffffffffffffffffffffff928316928616917fbcab653cf73e12f7bb78aa625dccb002864f5de7de2518796fb5b82fd6e6ab059161144b9190612ab8565b60405180910390a38354600385015461147e91859173ffffffffffffffffffffffffffffffffffffffff9091169061236b565b5050505050565b60105481565b6018602052816000526040600020818154811061070257600080fd5b600481565b601d6020526000908152604090208054600182015460029092015490919083565b601a602052816000526040600020818154811061070257600080fd5b600781565b6017602052816000526040600020818154811061070257600080fd5b60036020526000908152604090205481565b60008061152b84601d42612376565b9050610b3f858260000154856121b5565b6014602052816000526040600020818154811061070257600080fd5b600061156682601d4261214e565b92915050565b6013602052816000526040600020818154811061070257600080fd5b611591336120a4565b6115c7576040517f08c379a000000000000000000000000000000000000000000000000000000000815260040161096190612a15565b6115cf611eec565b73ffffffffffffffffffffffffffffffffffffffff16635acf6903836040518263ffffffff1660e01b81526004016116079190612700565b60206040518083038186803b15801561161f57600080fd5b505afa158015611633573d6000803e3d6000fd5b505050506040513d601f19601f820116820180604052508101906116579190612691565b61168d576040517f08c379a0000000000000000000000000000000000000000000000000000000008152600401610961906129a7565b73ffffffffffffffffffffffffffffffffffffffff8216600090815260036020526040812080548392906116c2908490612ad7565b909155505073ffffffffffffffffffffffffffffffffffffffff82166000908152600360209081526040808320546002909252909120541015610975576040517f08c379a0000000000000000000000000000000000000000000000000000000008152600401610961906127ed565b60065481565b61173f6121cc565b73ffffffffffffffffffffffffffffffffffffffff1661175d6110a0565b73ffffffffffffffffffffffffffffffffffffffff16146117aa576040517f08c379a00000000000000000000000000000000000000000000000000000000081526004016109619061293b565b73ffffffffffffffffffffffffffffffffffffffff81166117f7576040517f08c379a00000000000000000000000000000000000000000000000000000000081526004016109619061284a565b60015460405173ffffffffffffffffffffffffffffffffffffffff8084169216907f8be0079c531659141344cd1fd0a4f28419497f9722a3daafe3b4186f6b6457e090600090a3600180547fffffffffffffffffffffffff00000000000000000000000000000000000000001673ffffffffffffffffffffffffffffffffffffffff92909216919091179055565b73ffffffffffffffffffffffffffffffffffffffff8116600090815260076020908152604080832033845290915290206118bf8282611c70565b6118cf8282338460000154611d2f565b60008082556001820181905560029091015550565b73ffffffffffffffffffffffffffffffffffffffff82166000908152601b602052604081208054600f54839161191991612aef565b9050610b3f8185612aef565b73ffffffffffffffffffffffffffffffffffffffff83166000908152601b60205260408120805483908110611983577f4e487b7100000000000000000000000000000000000000000000000000000000600052603260045260246000fd5b906000526020600020015490506000601860008673ffffffffffffffffffffffffffffffffffffffff1673ffffffffffffffffffffffffffffffffffffffff1681526020019081526020016000208381548110611a09577f4e487b7100000000000000000000000000000000000000000000000000000000600052603260045260246000fd5b906000526020600020015490506000601054601360008873ffffffffffffffffffffffffffffffffffffffff1673ffffffffffffffffffffffffffffffffffffffff1681526020019081526020016000208581548110611a92577f4e487b7100000000000000000000000000000000000000000000000000000000600052603260045260246000fd5b600091825260208083209091015473ffffffffffffffffffffffffffffffffffffffff8a1683526004909152604090912054611ace9190612b03565b611ad89190612aef565b73ffffffffffffffffffffffffffffffffffffffff871660009081526014602052604081208054929350909186908110611b3b577f4e487b7100000000000000000000000000000000000000000000000000000000600052603260045260246000fd5b906000526020600020015490506000601660008973ffffffffffffffffffffffffffffffffffffffff1673ffffffffffffffffffffffffffffffffffffffff1681526020019081526020016000208681548110611bc1577f4e487b7100000000000000000000000000000000000000000000000000000000600052603260045260246000fd5b906000526020600020015490506000601260008a73ffffffffffffffffffffffffffffffffffffffff1673ffffffffffffffffffffffffffffffffffffffff1681526020019081526020016000208781548110611c47577f4e487b7100000000000000000000000000000000000000000000000000000000600052603260045260246000fd5b90600052602060002001549050611c6386868a8787878761240c565b9998505050505050505050565b60018101548015610836576000611c8984600842612376565b8354815491925090611c9d908290856121b5565b808555600090611cae908390612b40565b73ffffffffffffffffffffffffffffffffffffffff8716600090815260096020526040812080549293508392909190611ce8908490612ad7565b909155505073ffffffffffffffffffffffffffffffffffffffff861660009081526002602052604081208054839290611d22908490612ad7565b9091555050505050505050565b6000610e10846002015442611d449190612b40565b611d4e9190612b90565b9050806102581015611d8c576040517f08c379a0000000000000000000000000000000000000000000000000000000008152600401610961906128de565b611d94611eec565b73ffffffffffffffffffffffffffffffffffffffff1663d9caed128685856040518463ffffffff1660e01b8152600401611dd093929190612721565b602060405180830381600087803b158015611dea57600080fd5b505af1158015611dfe573d6000803e3d6000fd5b505050506040513d601f19601f82011682018060405250810190611e229190612691565b611e58576040517f08c379a0000000000000000000000000000000000000000000000000000000008152600401610961906128a7565b81846000016000828254611e6c9190612b40565b909155505073ffffffffffffffffffffffffffffffffffffffff851660009081526009602052604081208054849290611ea6908490612b40565b909155505073ffffffffffffffffffffffffffffffffffffffff851660009081526002602052604081208054849290611ee0908490612b40565b90915550505050505050565b600080546040517f3c9c8f9c00000000000000000000000000000000000000000000000000000000815273ffffffffffffffffffffffffffffffffffffffff90911690633c9c8f9c90611f4490606590600401612aa9565b60206040518083038186803b158015611f5c57600080fd5b505afa158015611f70573d6000803e3d6000fd5b505050506040513d601f19601f82011682018060405250810190611f9491906125a4565b905090565b73ffffffffffffffffffffffffffffffffffffffff8084166000908152600760209081526040808320938616835292905220611fd58482611c70565b73ffffffffffffffffffffffffffffffffffffffff8416600090815260086020526040902054600182015561200c610e1042612b90565b6002820155805482908290600090612025908490612ad7565b909155505073ffffffffffffffffffffffffffffffffffffffff84166000908152600960205260408120805484929061205f908490612ad7565b909155505073ffffffffffffffffffffffffffffffffffffffff841660009081526002602052604081208054849290612099908490612ad7565b909155505050505050565b600080546040517f7ecd187e00000000000000000000000000000000000000000000000000000000815273ffffffffffffffffffffffffffffffffffffffff90911690637ecd187e906120fe90859060039060040161279d565b60206040518083038186803b15801561211657600080fd5b505afa15801561212a573d6000803e3d6000fd5b505050506040513d601f19601f820116820180604052508101906115669190612691565b73ffffffffffffffffffffffffffffffffffffffff831660009081526020839052604081206001015481906121839084612b40565b73ffffffffffffffffffffffffffffffffffffffff86166000908152602086905260409020909150610b3f90826124d8565b6000816121c28486612b03565b6110679190612aef565b3390565b8354600f546000916121e191612aef565b905060006121ef8483612b03565b9050600085858154811061222c577f4e487b7100000000000000000000000000000000000000000000000000000000600052603260045260246000fd5b9060005260206000200154426122429190612b40565b90506000816122518487612b03565b61225b9190612aef565b90506122678284612ad7565b6122718383612b03565b848a89815481106122ab577f4e487b7100000000000000000000000000000000000000000000000000000000600052603260045260246000fd5b90600052602060002001546122c09190612b03565b6122ca9190612ad7565b6122d49190612aef565b88878154811061230d577f4e487b7100000000000000000000000000000000000000000000000000000000600052603260045260246000fd5b906000526020600020018190555042878781548110612355577f4e487b7100000000000000000000000000000000000000000000000000000000600052603260045260246000fd5b6000918252602090912001555050505050505050565b610836838383611f99565b73ffffffffffffffffffffffffffffffffffffffff83166000908152602083815260408083206002808201546001830154918552838620546004865284872054600a875285882054600b9097529490962054600c5493966123df9692959394909392919061240c565b600282015560018101546000906123f69084612b40565b905061240282826124d8565b8255509392505050565b8660006124198842612b40565b905060006006548261242b9190612b03565b905086881015806124595750848610158015612459575061244c8888612b40565b6124568688612b40565b10155b15612485576124688184612b40565b92508264010000000011156124805764010000000092505b6124cb565b87871180156124ae5750858511806124ae57506124a28587612b40565b6124ac8989612b40565b115b156124cb576124bd8184612ad7565b9250838311156124cb578392505b5050979650505050505050565b6000806124e7610e1084612b90565b90506124fa640100000000610e10612b03565b60028501548554839161250c91612b03565b6125169190612b03565b6125209190612aef565b91506000612530610e1085612aef565b905080156125795760005b80821115612577576401000000008660020154856125599190612b03565b6125639190612aef565b93508061256f81612b57565b91505061253b565b505b505092915050565b600060208284031215612592578081fd5b813561259d81612c02565b9392505050565b6000602082840312156125b5578081fd5b815161259d81612c02565b600080604083850312156125d2578081fd5b82356125dd81612c02565b915060208301356125ed81612c02565b809150509250929050565b6000806040838503121561260a578182fd5b823561261581612c02565b946020939093013593505050565b600080600060608486031215612637578081fd5b833561264281612c02565b95602085013595506040909401359392505050565b6000806000806080858703121561266c578081fd5b843561267781612c02565b966020860135965060408601359560600135945092505050565b6000602082840312156126a2578081fd5b8151801515811461259d578182fd5b6000602082840312156126c2578081fd5b5035919050565b6000806000606084860312156126dd578283fd5b8335925060208401356126ef81612c02565b929592945050506040919091013590565b73ffffffffffffffffffffffffffffffffffffffff91909116815260200190565b73ffffffffffffffffffffffffffffffffffffffff9384168152919092166020820152604081019190915260600190565b73ffffffffffffffffffffffffffffffffffffffff978816815295909616602086015260408501939093526060840191909152608083015260a082015260c081019190915260e00190565b73ffffffffffffffffffffffffffffffffffffffff92909216825261ffff16602082015260400190565b73ffffffffffffffffffffffffffffffffffffffff929092168252602082015260400190565b6020808252602e908201527f496e73756666696369656e74206361706974616c20746f206c656e642c20747260408201527f7920616761696e206c6174657221000000000000000000000000000000000000606082015260800190565b60208082526026908201527f4f776e61626c653a206e6577206f776e657220697320746865207a65726f206160408201527f6464726573730000000000000000000000000000000000000000000000000000606082015260800190565b60208082526016908201527f496e73756666696369656e74206c697175696469747900000000000000000000604082015260600190565b6020808252603f908201527f5472696564207769746864726177696e67206f7574736964652073756273637260408201527f697074696f6e2063616e63656c6c6174696f6e2074696d652077696e646f7700606082015260800190565b6020808252818101527f4f776e61626c653a2063616c6c6572206973206e6f7420746865206f776e6572604082015260600190565b60208082526012908201527f4e6f7420686f6c646572206f6620626f6e640000000000000000000000000000604082015260600190565b60208082526015908201527f4e6f7420616e20617070726f76656420746f6b656e0000000000000000000000604082015260600190565b60208082526016908201527f626f6e64206973207374696c6c20696d6d617475726500000000000000000000604082015260600190565b60208082526018908201527f4e6f7420616e20617070726f76656420626f72726f7765720000000000000000604082015260600190565b6020808252602d908201527f436f756c64206e6f74207472616e7366657220626f6e64206465706f7369742060408201527f746f6b656e20746f2066756e6400000000000000000000000000000000000000606082015260800190565b61ffff91909116815260200190565b90815260200190565b9283526020830191909152604082015260600190565b60008219821115612aea57612aea612ba4565b500190565b600082612afe57612afe612bd3565b500490565b6000817fffffffffffffffffffffffffffffffffffffffffffffffffffffffffffffffff0483118215151615612b3b57612b3b612ba4565b500290565b600082821015612b5257612b52612ba4565b500390565b60007fffffffffffffffffffffffffffffffffffffffffffffffffffffffffffffffff821415612b8957612b89612ba4565b5060010190565b600082612b9f57612b9f612bd3565b500690565b7f4e487b7100000000000000000000000000000000000000000000000000000000600052601160045260246000fd5b7f4e487b7100000000000000000000000000000000000000000000000000000000600052601260045260246000fd5b73ffffffffffffffffffffffffffffffffffffffff81168114612c2457600080fd5b5056fea2646970667358221220ff6f5d1e1d69dafab11cb7f5c787f6f30e8c41052deaa698152a4e248269750464736f6c6343000801003360806040523480156200001157600080fd5b506040516200380e3803806200380e8339810160408190526200003491620000e9565b600080546001600160a01b03199081166001600160a01b03938416178255600160208190527fa6eef7e35abe7026729641147f7915573c7e97b47efa546f5f6e3230263bcb4980548316978516979097179096559490527fcc69885fda6bcc1a4ace058b4a62bf5e179ea78fd58a1ccd71c22cc9b688792f805485169382169390931790925560028054909316911617905562000145565b80516001600160a01b0381168114620000e457600080fd5b919050565b60008060008060808587031215620000ff578384fd5b6200010a85620000cc565b93506200011a60208601620000cc565b92506200012a60408601620000cc565b91506200013a60608601620000cc565b905092959194509250565b6136b980620001556000396000f3fe6080604052600436106101ac5760003560e01c80635c275a39116100ec578063a94c7c341161008a578063d5d7ed7f11610064578063d5d7ed7f14610411578063e3e0626b14610426578063eaa095f814610446578063eedb97c714610466576101ac565b8063a94c7c34146103d2578063a9cc0536146103e7578063cacf8d45146103fc576101ac565b806390b931ed116100c657806390b931ed1461037557806394427b2014610395578063a0098d691461039d578063a5f9a362146103b2576101ac565b80635c275a3914610336578063669419841461034b57806381ca660014610360576101ac565b80632233c43611610159578063392f5f6411610133578063392f5f64146102ca57806346b88796146102ec57806348eb4f3e1461030157806348fb27b814610321576101ac565b80632233c436146102805780632fe94def146102a057806332fe7b26146102b5576101ac565b80631bc5d81d1161018a5780631bc5d81d1461022b5780631dce3baa146102405780631f2a674314610260576101ac565b8063065d570f146101b15780630aa29f1c146101dc5780631306d90214610209575b600080fd5b3480156101bd57600080fd5b506101c6610486565b6040516101d39190613473565b60405180910390f35b3480156101e857600080fd5b506101fc6101f7366004612cc1565b61048b565b6040516101d39190612f90565b34801561021557600080fd5b50610229610224366004612c1e565b610589565b005b34801561023757600080fd5b506101c661081e565b34801561024c57600080fd5b5061022961025b366004612de3565b610823565b34801561026c57600080fd5b506101fc61027b366004612cc1565b610969565b34801561028c57600080fd5b506101fc61029b366004612d27565b610a52565b3480156102ac57600080fd5b506101c6610e75565b3480156102c157600080fd5b506101c6610e7a565b3480156102d657600080fd5b506102df610e7f565b6040516101d39190612fd4565b3480156102f857600080fd5b506101c6610e9b565b34801561030d57600080fd5b5061022961031c366004612c1e565b610ea0565b34801561032d57600080fd5b506101c6610fc7565b34801561034257600080fd5b506101c6610fcc565b34801561035757600080fd5b506101c6610fd1565b34801561036c57600080fd5b506101c6610fd6565b34801561038157600080fd5b506101fc610390366004612c69565b610fdb565b6102296110cd565b3480156103a957600080fd5b506101c6611328565b3480156103be57600080fd5b506101fc6103cd366004612d27565b61132d565b3480156103de57600080fd5b506101c661167d565b3480156103f357600080fd5b506101c6611682565b34801561040857600080fd5b506101c6611687565b34801561041d57600080fd5b506101c661168c565b34801561043257600080fd5b50610229610441366004612c1e565b611691565b34801561045257600080fd5b506101fc610461366004612c69565b611810565b34801561047257600080fd5b50610229610481366004612c1e565b6118f8565b600381565b6060610496336119e9565b6104d5576040517f08c379a00000000000000000000000000000000000000000000000000000000081526004016104cc90613052565b60405180910390fd5b61057d60016000886003811115610515577f4e487b7100000000000000000000000000000000000000000000000000000000600052602160045260246000fd5b600381111561054d577f4e487b7100000000000000000000000000000000000000000000000000000000600052602160045260246000fd5b815260208101919091526040016000205473ffffffffffffffffffffffffffffffffffffffff1686868686611a9b565b90505b95945050505050565b3332146105c2576040517f08c379a00000000000000000000000000000000000000000000000000000000081526004016104cc90612ff5565b6105ca611dac565b73ffffffffffffffffffffffffffffffffffffffff1663b3db428b3384846040518463ffffffff1660e01b815260040161060693929190612f0f565b602060405180830381600087803b15801561062057600080fd5b505af1158015610634573d6000803e3d6000fd5b505050506040513d601f19601f820116820180604052508101906106589190612c49565b61068e576040517f08c379a00000000000000000000000000000000000000000000000000000000081526004016104cc90613291565b6000610698611e59565b73ffffffffffffffffffffffffffffffffffffffff166352a664d93385856040518463ffffffff1660e01b81526004016106d493929190612f0f565b602060405180830381600087803b1580156106ee57600080fd5b505af1158015610702573d6000803e3d6000fd5b505050506040513d601f19601f820116820180604052508101906107269190612dfb565b9050801561081957610736611e59565b73ffffffffffffffffffffffffffffffffffffffff1663b25777ad3385846040518463ffffffff1660e01b815260040161077293929190612f0f565b600060405180830381600087803b15801561078c57600080fd5b505af11580156107a0573d6000803e3d6000fd5b505050506107ac611eb1565b73ffffffffffffffffffffffffffffffffffffffff16632a6a897b84836040518363ffffffff1660e01b81526004016107e6929190612f6a565b600060405180830381600087803b15801561080057600080fd5b505af1158015610814573d6000803e3d6000fd5b505050505b505050565b600881565b33321461085c576040517f08c379a00000000000000000000000000000000000000000000000000000000081526004016104cc90612ff5565b610864611e59565b6002546040517fd0eb665300000000000000000000000000000000000000000000000000000000815273ffffffffffffffffffffffffffffffffffffffff9283169263d0eb6653926108c0923392909116908690600401612f0f565b600060405180830381600087803b1580156108da57600080fd5b505af11580156108ee573d6000803e3d6000fd5b505050506108fa611dac565b73ffffffffffffffffffffffffffffffffffffffff16634782f77933836040518363ffffffff1660e01b8152600401610934929190612f6a565b600060405180830381600087803b15801561094e57600080fd5b505af1158015610962573d6000803e3d6000fd5b5050505050565b6060610974336119e9565b6109aa576040517f08c379a00000000000000000000000000000000000000000000000000000000081526004016104cc90613052565b61057d600160008860038111156109ea577f4e487b7100000000000000000000000000000000000000000000000000000000600052602160045260246000fd5b6003811115610a22577f4e487b7100000000000000000000000000000000000000000000000000000000600052602160045260246000fd5b815260208101919091526040016000205473ffffffffffffffffffffffffffffffffffffffff1686868686611f09565b6060333214610a8d576040517f08c379a00000000000000000000000000000000000000000000000000000000081526004016104cc90612ff5565b8142811015610ac8576040517f08c379a00000000000000000000000000000000000000000000000000000000081526004016104cc906130af565b6000610ad2611fc6565b73ffffffffffffffffffffffffffffffffffffffff166367cbf42d8787610afa6001826135ad565b818110610b30577f4e487b7100000000000000000000000000000000000000000000000000000000600052603260045260246000fd5b9050602002016020810190610b459190612bdf565b8a6040518363ffffffff1660e01b8152600401610b63929190612f6a565b602060405180830381600087803b158015610b7d57600080fd5b505af1158015610b91573d6000803e3d6000fd5b505050506040513d601f19601f82011682018060405250810190610bb59190612dfb565b9050610c68600160008b6003811115610bf7577f4e487b7100000000000000000000000000000000000000000000000000000000600052602160045260246000fd5b6003811115610c2f577f4e487b7100000000000000000000000000000000000000000000000000000000600052602160045260246000fd5b815260208101919091526040016000205473ffffffffffffffffffffffffffffffffffffffff16610c60838b61351f565b898989611f09565b925060008686610c796001826135ad565b818110610caf577f4e487b7100000000000000000000000000000000000000000000000000000000600052603260045260246000fd5b9050602002016020810190610cc49190612bdf565b90506000610cd0611e59565b73ffffffffffffffffffffffffffffffffffffffff16633500aa0b338a8a6000818110610d26577f4e487b7100000000000000000000000000000000000000000000000000000000600052603260045260246000fd5b9050602002016020810190610d3b9190612bdf565b8589600081518110610d76577f4e487b7100000000000000000000000000000000000000000000000000000000600052603260045260246000fd5b60200260200101518f6040518663ffffffff1660e01b8152600401610d9f959493929190612ece565b602060405180830381600087803b158015610db957600080fd5b505af1158015610dcd573d6000803e3d6000fd5b505050506040513d601f19601f82011682018060405250810190610df19190612dfb565b9050610dfb611eb1565b73ffffffffffffffffffffffffffffffffffffffff1663ee0862bf83836040518363ffffffff1660e01b8152600401610e35929190612f6a565b600060405180830381600087803b158015610e4f57600080fd5b505af1158015610e63573d6000803e3d6000fd5b50505050505050509695505050505050565b606981565b606781565b60005473ffffffffffffffffffffffffffffffffffffffff1681565b600681565b333214610ed9576040517f08c379a00000000000000000000000000000000000000000000000000000000081526004016104cc90612ff5565b610ee1611e59565b73ffffffffffffffffffffffffffffffffffffffff1663b25777ad3384846040518463ffffffff1660e01b8152600401610f1d93929190612f0f565b600060405180830381600087803b158015610f3757600080fd5b505af1158015610f4b573d6000803e3d6000fd5b50505050610f57611eb1565b73ffffffffffffffffffffffffffffffffffffffff16632a6a897b83836040518363ffffffff1660e01b8152600401610f91929190612f6a565b600060405180830381600087803b158015610fab57600080fd5b505af1158015610fbf573d6000803e3d6000fd5b505050505050565b606681565b606581565b600181565b606a81565b606060006001600087600381111561101c577f4e487b7100000000000000000000000000000000000000000000000000000000600052602160045260246000fd5b6003811115611054577f4e487b7100000000000000000000000000000000000000000000000000000000600052602160045260246000fd5b815260200190815260200160002060009054906101000a900473ffffffffffffffffffffffffffffffffffffffff1690506110c3818686868080602002602001604051908101604052809392919081815260200183836020028082843760009201919091525061201e92505050565b9695505050505050565b333214611106576040517f08c379a00000000000000000000000000000000000000000000000000000000081526004016104cc90612ff5565b61110e611dac565b73ffffffffffffffffffffffffffffffffffffffff1663a6a5f9fe346040518263ffffffff1660e01b81526004016000604051808303818588803b15801561115557600080fd5b505af1158015611169573d6000803e3d6000fd5b50505050506000611178611e59565b6002546040517f52a664d900000000000000000000000000000000000000000000000000000000815273ffffffffffffffffffffffffffffffffffffffff928316926352a664d9926111d4923392909116903490600401612f0f565b602060405180830381600087803b1580156111ee57600080fd5b505af1158015611202573d6000803e3d6000fd5b505050506040513d601f19601f820116820180604052508101906112269190612dfb565b9050801561132557611236611e59565b6002546040517fb25777ad00000000000000000000000000000000000000000000000000000000815273ffffffffffffffffffffffffffffffffffffffff9283169263b25777ad92611292923392909116908690600401612f0f565b600060405180830381600087803b1580156112ac57600080fd5b505af11580156112c0573d6000803e3d6000fd5b505050506112cc611eb1565b6002546040517f2a6a897b00000000000000000000000000000000000000000000000000000000815273ffffffffffffffffffffffffffffffffffffffff92831692632a6a897b92610934929116908590600401612f6a565b50565b600281565b6060333214611368576040517f08c379a00000000000000000000000000000000000000000000000000000000081526004016104cc90612ff5565b81428110156113a3576040517f08c379a00000000000000000000000000000000000000000000000000000000081526004016104cc906130af565b60006113ad611fc6565b73ffffffffffffffffffffffffffffffffffffffff16633f0e9edf87876000818110611402577f4e487b7100000000000000000000000000000000000000000000000000000000600052603260045260246000fd5b90506020020160208101906114179190612bdf565b8a6040518363ffffffff1660e01b8152600401611435929190612f6a565b602060405180830381600087803b15801561144f57600080fd5b505af1158015611463573d6000803e3d6000fd5b505050506040513d601f19601f820116820180604052508101906114879190612dfb565b905061153a600160008b60038111156114c9577f4e487b7100000000000000000000000000000000000000000000000000000000600052602160045260246000fd5b6003811115611501577f4e487b7100000000000000000000000000000000000000000000000000000000600052602160045260246000fd5b815260208101919091526040016000205473ffffffffffffffffffffffffffffffffffffffff16611532838b6135ad565b898989611a9b565b92506000868661154b6001826135ad565b818110611581577f4e487b7100000000000000000000000000000000000000000000000000000000600052603260045260246000fd5b90506020020160208101906115969190612bdf565b905060006115a2611e59565b73ffffffffffffffffffffffffffffffffffffffff16633500aa0b338a8a60008181106115f8577f4e487b7100000000000000000000000000000000000000000000000000000000600052603260045260246000fd5b905060200201602081019061160d9190612bdf565b858e8a60018c5161161e91906135ad565b81518110611655577f4e487b7100000000000000000000000000000000000000000000000000000000600052603260045260246000fd5b60200260200101516040518663ffffffff1660e01b8152600401610d9f959493929190612ece565b600581565b606881565b600481565b600781565b3332146116ca576040517f08c379a00000000000000000000000000000000000000000000000000000000081526004016104cc90612ff5565b6116d2611e59565b73ffffffffffffffffffffffffffffffffffffffff1663d0eb66533384846040518463ffffffff1660e01b815260040161170e93929190612f0f565b600060405180830381600087803b15801561172857600080fd5b505af115801561173c573d6000803e3d6000fd5b50505050611748611dac565b73ffffffffffffffffffffffffffffffffffffffff1663d9caed128333846040518463ffffffff1660e01b815260040161178493929190612f0f565b602060405180830381600087803b15801561179e57600080fd5b505af11580156117b2573d6000803e3d6000fd5b505050506040513d601f19601f820116820180604052508101906117d69190612c49565b61180c576040517f08c379a00000000000000000000000000000000000000000000000000000000081526004016104cc906132ee565b5050565b6060600060016000876003811115611851577f4e487b7100000000000000000000000000000000000000000000000000000000600052602160045260246000fd5b6003811115611889577f4e487b7100000000000000000000000000000000000000000000000000000000600052602160045260246000fd5b815260200190815260200160002060009054906101000a900473ffffffffffffffffffffffffffffffffffffffff1690506110c3818686868080602002602001604051908101604052809392919081815260200183836020028082843760009201919091525061228892505050565b333214611931576040517f08c379a00000000000000000000000000000000000000000000000000000000081526004016104cc90612ff5565b611939611eb1565b73ffffffffffffffffffffffffffffffffffffffff1663ee0862bf83836040518363ffffffff1660e01b8152600401611973929190612f6a565b600060405180830381600087803b15801561198d57600080fd5b505af11580156119a1573d6000803e3d6000fd5b505050506119ad611e59565b73ffffffffffffffffffffffffffffffffffffffff1663498d55eb3384846040518463ffffffff1660e01b8152600401610f9193929190612f0f565b600080546040517f7ecd187e00000000000000000000000000000000000000000000000000000000815273ffffffffffffffffffffffffffffffffffffffff90911690637ecd187e90611a43908590600790600401612f40565b60206040518083038186803b158015611a5b57600080fd5b505afa158015611a6f573d6000803e3d6000fd5b505050506040513d601f19601f82011682018060405250810190611a939190612c49565b90505b919050565b6060611adb868685858080602002602001604051908101604052809392919081815260200183836020028082843760009201919091525061228892505050565b9050838160018351611aed91906135ad565b81518110611b24577f4e487b7100000000000000000000000000000000000000000000000000000000600052603260045260246000fd5b60200260200101511015611b64576040517f08c379a00000000000000000000000000000000000000000000000000000000081526004016104cc90613416565b611b6c611dac565b73ffffffffffffffffffffffffffffffffffffffff1663d9caed1284846000818110611bc1577f4e487b7100000000000000000000000000000000000000000000000000000000600052603260045260246000fd5b9050602002016020810190611bd69190612bdf565b611c7d8987876000818110611c14577f4e487b7100000000000000000000000000000000000000000000000000000000600052603260045260246000fd5b9050602002016020810190611c299190612bdf565b88886001818110611c63577f4e487b7100000000000000000000000000000000000000000000000000000000600052603260045260246000fd5b9050602002016020810190611c789190612bdf565b6124d2565b84600081518110611cb7577f4e487b7100000000000000000000000000000000000000000000000000000000600052603260045260246000fd5b60200260200101516040518463ffffffff1660e01b8152600401611cdd93929190612f0f565b602060405180830381600087803b158015611cf757600080fd5b505af1158015611d0b573d6000803e3d6000fd5b505050506040513d601f19601f82011682018060405250810190611d2f9190612c49565b611d65576040517f08c379a00000000000000000000000000000000000000000000000000000000081526004016104cc906131a0565b6105808682858580806020026020016040519081016040528093929190818152602001838360200280828437600092019190915250611da79250611dac915050565b612544565b600080546040517f3c9c8f9c00000000000000000000000000000000000000000000000000000000815273ffffffffffffffffffffffffffffffffffffffff90911690633c9c8f9c90611e0490606590600401613473565b60206040518083038186803b158015611e1c57600080fd5b505afa158015611e30573d6000803e3d6000fd5b505050506040513d601f19601f82011682018060405250810190611e549190612c02565b905090565b600080546040517f3c9c8f9c00000000000000000000000000000000000000000000000000000000815273ffffffffffffffffffffffffffffffffffffffff90911690633c9c8f9c90611e0490606890600401613473565b600080546040517f3c9c8f9c00000000000000000000000000000000000000000000000000000000815273ffffffffffffffffffffffffffffffffffffffff90911690633c9c8f9c90611e0490606690600401613473565b6060611f49868685858080602002602001604051908101604052809392919081815260200183836020028082843760009201919091525061201e92505050565b90508381600081518110611f86577f4e487b7100000000000000000000000000000000000000000000000000000000600052603260045260246000fd5b60200260200101511115611b64576040517f08c379a00000000000000000000000000000000000000000000000000000000081526004016104cc90613325565b600080546040517f3c9c8f9c00000000000000000000000000000000000000000000000000000000815273ffffffffffffffffffffffffffffffffffffffff90911690633c9c8f9c90611e0490606990600401613473565b606060028251101561205c576040517f08c379a00000000000000000000000000000000000000000000000000000000081526004016104cc906131fd565b815167ffffffffffffffff81111561209d577f4e487b7100000000000000000000000000000000000000000000000000000000600052604160045260246000fd5b6040519080825280602002602001820160405280156120c6578160200160208202803683370190505b5090508281600183516120d991906135ad565b81518110612110577f4e487b7100000000000000000000000000000000000000000000000000000000600052603260045260246000fd5b60200260200101818152505060006001835161212c91906135ad565b90505b8015612280576000806121cd87866121486001876135ad565b8151811061217f577f4e487b7100000000000000000000000000000000000000000000000000000000600052603260045260246000fd5b60200260200101518786815181106121c0577f4e487b7100000000000000000000000000000000000000000000000000000000600052603260045260246000fd5b60200260200101516127c9565b9150915061221c84848151811061220d577f4e487b7100000000000000000000000000000000000000000000000000000000600052603260045260246000fd5b602002602001015183836128d7565b846122286001866135ad565b8151811061225f577f4e487b7100000000000000000000000000000000000000000000000000000000600052603260045260246000fd5b60200260200101818152505050508080612278906135c4565b91505061212f565b509392505050565b60606002825110156122c6576040517f08c379a00000000000000000000000000000000000000000000000000000000081526004016104cc906131fd565b815167ffffffffffffffff811115612307577f4e487b7100000000000000000000000000000000000000000000000000000000600052604160045260246000fd5b604051908082528060200260200182016040528015612330578160200160208202803683370190505b509050828160008151811061236e577f4e487b7100000000000000000000000000000000000000000000000000000000600052603260045260246000fd5b60200260200101818152505060005b6001835161238b91906135ad565b8110156122805760008061241f878685815181106123d2577f4e487b7100000000000000000000000000000000000000000000000000000000600052603260045260246000fd5b6020026020010151878660016123e8919061351f565b815181106121c0577f4e487b7100000000000000000000000000000000000000000000000000000000600052603260045260246000fd5b9150915061246e84848151811061245f577f4e487b7100000000000000000000000000000000000000000000000000000000600052603260045260246000fd5b602002602001015183836129a2565b8461247a85600161351f565b815181106124b1577f4e487b7100000000000000000000000000000000000000000000000000000000600052603260045260246000fd5b602002602001018181525050505080806124ca906135f9565b91505061237d565b60008060006124e18585612a71565b915091508582826040516020016124f9929190612e13565b60405160208183030381529060405280519060200120604051602001612520929190612e4d565b6040516020818303038152906040528051906020012060601c925050509392505050565b60005b6001835161255591906135ad565b81101561096257600080848381518110612598577f4e487b7100000000000000000000000000000000000000000000000000000000600052603260045260246000fd5b6020026020010151858460016125ae919061351f565b815181106125e5577f4e487b7100000000000000000000000000000000000000000000000000000000600052603260045260246000fd5b60200260200101519150915060006125fd8383612a71565b50905060008761260e86600161351f565b81518110612645577f4e487b7100000000000000000000000000000000000000000000000000000000600052603260045260246000fd5b602002602001015190506000808373ffffffffffffffffffffffffffffffffffffffff168673ffffffffffffffffffffffffffffffffffffffff161461268d57826000612691565b6000835b91509150600060028a516126a591906135ad565b88106126b15788612706565b6127068c878c6126c28c600261351f565b815181106126f9577f4e487b7100000000000000000000000000000000000000000000000000000000600052603260045260246000fd5b60200260200101516124d2565b90506127138c88886124d2565b73ffffffffffffffffffffffffffffffffffffffff1663022c0d9f84848460006040519080825280601f01601f19166020018201604052801561275d576020820181803683370190505b506040518563ffffffff1660e01b815260040161277d9493929190613482565b600060405180830381600087803b15801561279757600080fd5b505af11580156127ab573d6000803e3d6000fd5b505050505050505050505080806127c1906135f9565b915050612547565b60008060006127d88585612a71565b5090506000806127e98888886124d2565b73ffffffffffffffffffffffffffffffffffffffff16630902f1ac6040518163ffffffff1660e01b815260040160606040518083038186803b15801561282e57600080fd5b505afa158015612842573d6000803e3d6000fd5b505050506040513d601f19601f820116820180604052508101906128669190612d95565b506dffffffffffffffffffffffffffff1691506dffffffffffffffffffffffffffff1691508273ffffffffffffffffffffffffffffffffffffffff168773ffffffffffffffffffffffffffffffffffffffff16146128c55780826128c8565b81815b90999098509650505050505050565b6000808411612912576040517f08c379a00000000000000000000000000000000000000000000000000000000081526004016104cc906130e6565b6000831180156129225750600082115b612958576040517f08c379a00000000000000000000000000000000000000000000000000000000081526004016104cc90613234565b60006129648585613570565b612970906103e8613570565b905060006103e561298187866135ad565b61298b91906135ad565b90506129978183613537565b6110c390600161351f565b60008084116129dd576040517f08c379a00000000000000000000000000000000000000000000000000000000081526004016104cc906133b9565b6000831180156129ed5750600082115b612a23576040517f08c379a00000000000000000000000000000000000000000000000000000000081526004016104cc90613234565b6000612a31856103e5613570565b90506000612a3f8483613570565b9050600082612a50876103e8613570565b612a5a919061351f565b9050612a668183613537565b979650505050505050565b6000808273ffffffffffffffffffffffffffffffffffffffff168473ffffffffffffffffffffffffffffffffffffffff161415612ada576040517f08c379a00000000000000000000000000000000000000000000000000000000081526004016104cc90613143565b8273ffffffffffffffffffffffffffffffffffffffff168473ffffffffffffffffffffffffffffffffffffffff1610612b14578284612b17565b83835b909250905073ffffffffffffffffffffffffffffffffffffffff8216612b69576040517f08c379a00000000000000000000000000000000000000000000000000000000081526004016104cc90613382565b9250929050565b60008083601f840112612b81578182fd5b50813567ffffffffffffffff811115612b98578182fd5b6020830191508360208083028501011115612b6957600080fd5b803560048110611a9657600080fd5b80516dffffffffffffffffffffffffffff81168114611a9657600080fd5b600060208284031215612bf0578081fd5b8135612bfb81613661565b9392505050565b600060208284031215612c13578081fd5b8151612bfb81613661565b60008060408385031215612c30578081fd5b8235612c3b81613661565b946020939093013593505050565b600060208284031215612c5a578081fd5b81518015158114612bfb578182fd5b60008060008060608587031215612c7e578182fd5b612c8785612bb2565b935060208501359250604085013567ffffffffffffffff811115612ca9578283fd5b612cb587828801612b70565b95989497509550505050565b600080600080600060808688031215612cd8578081fd5b612ce186612bb2565b94506020860135935060408601359250606086013567ffffffffffffffff811115612d0a578182fd5b612d1688828901612b70565b969995985093965092949392505050565b60008060008060008060a08789031215612d3f578081fd5b612d4887612bb2565b95506020870135945060408701359350606087013567ffffffffffffffff811115612d71578182fd5b612d7d89828a01612b70565b979a9699509497949695608090950135949350505050565b600080600060608486031215612da9578283fd5b612db284612bc1565b9250612dc060208501612bc1565b9150604084015163ffffffff81168114612dd8578182fd5b809150509250925092565b600060208284031215612df4578081fd5b5035919050565b600060208284031215612e0c578081fd5b5051919050565b7fffffffffffffffffffffffffffffffffffffffff000000000000000000000000606093841b811682529190921b16601482015260280190565b7fff00000000000000000000000000000000000000000000000000000000000000815260609290921b7fffffffffffffffffffffffffffffffffffffffff00000000000000000000000016600183015260158201527f96e8ac4277198ff8b6f785478aa9a39f403cb768dd02cbee326c3e7da348845f603582015260550190565b73ffffffffffffffffffffffffffffffffffffffff958616815293851660208501529190931660408301526060820192909252608081019190915260a00190565b73ffffffffffffffffffffffffffffffffffffffff9384168152919092166020820152604081019190915260600190565b73ffffffffffffffffffffffffffffffffffffffff92909216825261ffff16602082015260400190565b73ffffffffffffffffffffffffffffffffffffffff929092168252602082015260400190565b6020808252825182820181905260009190848201906040850190845b81811015612fc857835183529284019291840191600101612fac565b50909695505050505050565b73ffffffffffffffffffffffffffffffffffffffff91909116815260200190565b6020808252603a908201527f43757272656e746c79206e6f20696e7465726d656469617269657320616c6c6f60408201527f77656420666f7220746869732066756e6374696f6e2063616c6c000000000000606082015260800190565b6020808252603e908201527f43616c6c696e6720636f6e7472616374206973206e6f7420617574686f72697a60408201527f656420746f20747261646520776974682070726f746f636c2066756e64730000606082015260800190565b60208082526018908201527f556e69737761705632526f757465723a20455850495245440000000000000000604082015260600190565b6020808252602c908201527f556e697377617056324c6962726172793a20494e53554646494349454e545f4f60408201527f55545055545f414d4f554e540000000000000000000000000000000000000000606082015260800190565b60208082526025908201527f556e697377617056324c6962726172793a204944454e544943414c5f4144445260408201527f4553534553000000000000000000000000000000000000000000000000000000606082015260800190565b60208082526028908201527f4d617267696e526f757465723a20496e73756666696369656e74206c656e646960408201527f6e672066756e6473000000000000000000000000000000000000000000000000606082015260800190565b6020808252601e908201527f556e697377617056324c6962726172793a20494e56414c49445f504154480000604082015260600190565b60208082526028908201527f556e697377617056324c6962726172793a20494e53554646494349454e545f4c60408201527f4951554944495459000000000000000000000000000000000000000000000000606082015260800190565b60208082526029908201527f43616e6e6f74207472616e73666572206465706f73697420746f206d6172676960408201527f6e206163636f756e740000000000000000000000000000000000000000000000606082015260800190565b6020808252601c908201527f436f756c64206e6f742077697468647261772066726f6d2066756e6400000000604082015260600190565b60208082526027908201527f556e69737761705632526f757465723a204558434553534956455f494e50555460408201527f5f414d4f554e5400000000000000000000000000000000000000000000000000606082015260800190565b6020808252601e908201527f556e697377617056324c6962726172793a205a45524f5f414444524553530000604082015260600190565b6020808252602b908201527f556e697377617056324c6962726172793a20494e53554646494349454e545f4960408201527f4e5055545f414d4f554e54000000000000000000000000000000000000000000606082015260800190565b60208082526028908201527f4d617267696e526f757465723a20494e53554646494349454e545f4f5554505560408201527f545f414d4f554e54000000000000000000000000000000000000000000000000606082015260800190565b61ffff91909116815260200190565b60008582526020858184015273ffffffffffffffffffffffffffffffffffffffff85166040840152608060608401528351806080850152825b818110156134d75785810183015185820160a0015282016134bb565b818111156134e8578360a083870101525b50601f017fffffffffffffffffffffffffffffffffffffffffffffffffffffffffffffffe0169290920160a0019695505050505050565b6000821982111561353257613532613632565b500190565b60008261356b577f4e487b710000000000000000000000000000000000000000000000000000000081526012600452602481fd5b500490565b6000817fffffffffffffffffffffffffffffffffffffffffffffffffffffffffffffffff04831182151516156135a8576135a8613632565b500290565b6000828210156135bf576135bf613632565b500390565b6000816135d3576135d3613632565b507fffffffffffffffffffffffffffffffffffffffffffffffffffffffffffffffff0190565b60007fffffffffffffffffffffffffffffffffffffffffffffffffffffffffffffffff82141561362b5761362b613632565b5060010190565b7f4e487b7100000000000000000000000000000000000000000000000000000000600052601160045260246000fd5b73ffffffffffffffffffffffffffffffffffffffff8116811461132557600080fdfea264697066735822122041ed59ce6b51cfcb0d57f4fef737c2b0f3145da9d9bf6060da79e52106139b0f64736f6c6343000801003360806040523480156200001157600080fd5b50604051620019c6380380620019c68339810160408190526200003491620000ef565b600080546001600160a01b0319166001600160a01b03831617815562000059620000ce565b600180546001600160a01b0319166001600160a01b038316908117909155604051919250906000907f8be0079c531659141344cd1fd0a4f28419497f9722a3daafe3b4186f6b6457e0908290a35050600280546001600160a01b0319166001600160a01b039290921691909117905562000126565b3390565b80516001600160a01b0381168114620000ea57600080fd5b919050565b6000806040838503121562000102578182fd5b6200010d83620000d2565b91506200011d60208401620000d2565b90509250929050565b61189080620001366000396000f3fe608060405234801561001057600080fd5b50600436106101a35760003560e01c806366941984116100ee578063a94c7c3411610097578063d5d7ed7f11610071578063d5d7ed7f146102ae578063e47109a9146102b6578063e62db160146102c9578063f2fde38b146102dc576101a3565b8063a94c7c3414610296578063a9cc05361461029e578063cacf8d45146102a6576101a3565b806381ca6600116100c857806381ca66001461027e5780638da5cb5b14610286578063a0098d691461028e576101a3565b806366941984146102595780636cd7bc4b14610261578063715018a614610276576101a3565b806337487fd51161015057806348fb27b81161012a57806348fb27b8146102365780634cb776621461023e5780635c275a3914610251576101a3565b806337487fd514610213578063392f5f641461022657806346b887961461022e576101a3565b80631f1cb62b116101815780631f1cb62b146101ee5780632fe94def1461020357806332fe7b261461020b576101a3565b806305883f7c146101a8578063065d570f146101d15780631bc5d81d146101e6575b600080fd5b6101bb6101b6366004611262565b6102ef565b6040516101c8919061169b565b60405180910390f35b6101d96105f6565b6040516101c8919061168c565b6101d96105fb565b6101f6610600565b6040516101c8919061140a565b6101d961061c565b6101d9610621565b6101bb610221366004611262565b610626565b6101f6610905565b6101d9610921565b6101d9610926565b6101bb61024c366004611262565b61092b565b6101d9610a01565b6101d9610a06565b61027461026f36600461128d565b610a0b565b005b610274610a81565b6101d9610b63565b6101f6610b68565b6101d9610b84565b6101d9610b89565b6101d9610b8e565b6101d9610b93565b6101d9610b98565b6101bb6102c4366004611262565b610b9d565b6101bb6102d7366004611262565b610ddb565b6102746102ea366004611223565b610f7a565b60006102fa336110c8565b610339576040517f08c379a000000000000000000000000000000000000000000000000000000000815260040161033090611540565b60405180910390fd5b60025473ffffffffffffffffffffffffffffffffffffffff848116911614156103635750806105f0565b73ffffffffffffffffffffffffffffffffffffffff83166000908152600360209081526040808320815160a0810183528154815260018201805484518187028101870190955280855291949293858401939092908301828280156103e657602002820191906000526020600020905b8154815260200190600101908083116103d2575b50505050508152602001600282015481526020016003820180548060200260200160405190810160405280929190818152602001828054801561045f57602002820191906000526020600020905b815473ffffffffffffffffffffffffffffffffffffffff168152600190910190602001808311610434575b50505050508152602001600482018054806020026020016040519081016040528092919081815260200182805480156104ce57602002820191906000526020600020905b815473ffffffffffffffffffffffffffffffffffffffff1681526001909101906020018083116104a3575b505050505081525050905060006104e3611172565b73ffffffffffffffffffffffffffffffffffffffff16630aa29f1c600086600086606001516040518563ffffffff1660e01b815260040161052794939291906114c8565b600060405180830381600087803b15801561054157600080fd5b505af1158015610555573d6000803e3d6000fd5b505050506040513d6000823e601f3d9081017fffffffffffffffffffffffffffffffffffffffffffffffffffffffffffffffe016820160405261059b919081019061132b565b905080600182516105ac9190611780565b815181106105e3577f4e487b7100000000000000000000000000000000000000000000000000000000600052603260045260246000fd5b6020026020010151925050505b92915050565b600381565b600881565b60025473ffffffffffffffffffffffffffffffffffffffff1681565b606981565b606781565b6000610631336110c8565b610667576040517f08c379a000000000000000000000000000000000000000000000000000000000815260040161033090611540565b60025473ffffffffffffffffffffffffffffffffffffffff848116911614156106915750806105f0565b73ffffffffffffffffffffffffffffffffffffffff83166000908152600360209081526040808320815160a08101835281548152600182018054845181870281018701909552808552919492938584019390929083018282801561071457602002820191906000526020600020905b815481526020019060010190808311610700575b50505050508152602001600282015481526020016003820180548060200260200160405190810160405280929190818152602001828054801561078d57602002820191906000526020600020905b815473ffffffffffffffffffffffffffffffffffffffff168152600190910190602001808311610762575b50505050508152602001600482018054806020026020016040519081016040528092919081815260200182805480156107fc57602002820191906000526020600020905b815473ffffffffffffffffffffffffffffffffffffffff1681526001909101906020018083116107d1575b50505050508152505090506000610811611172565b73ffffffffffffffffffffffffffffffffffffffff16631f2a6743600086600086608001516040518563ffffffff1660e01b815260040161085594939291906114c8565b600060405180830381600087803b15801561086f57600080fd5b505af1158015610883573d6000803e3d6000fd5b505050506040513d6000823e601f3d9081017fffffffffffffffffffffffffffffffffffffffffffffffffffffffffffffffe01682016040526108c9919081019061132b565b9050806000815181106105e3577f4e487b7100000000000000000000000000000000000000000000000000000000600052603260045260246000fd5b60005473ffffffffffffffffffffffffffffffffffffffff1681565b600681565b606681565b73ffffffffffffffffffffffffffffffffffffffff8216600090815260036020819052604082209081015460011061098f576040517f08c379a0000000000000000000000000000000000000000000000000000000008152600401610330906115fa565b806001018160020154815481106109cf577f4e487b7100000000000000000000000000000000000000000000000000000000600052603260045260246000fd5b906000526020600020015483683635c9adc5dea000006109ef9190611743565b6109f9919061172f565b949350505050565b606581565b600181565b610a1361121f565b73ffffffffffffffffffffffffffffffffffffffff16610a31610b68565b73ffffffffffffffffffffffffffffffffffffffff1614610a7e576040517f08c379a000000000000000000000000000000000000000000000000000000000815260040161033090611657565b50565b610a8961121f565b73ffffffffffffffffffffffffffffffffffffffff16610aa7610b68565b73ffffffffffffffffffffffffffffffffffffffff1614610af4576040517f08c379a000000000000000000000000000000000000000000000000000000000815260040161033090611657565b60015460405160009173ffffffffffffffffffffffffffffffffffffffff16907f8be0079c531659141344cd1fd0a4f28419497f9722a3daafe3b4186f6b6457e0908390a3600180547fffffffffffffffffffffffff0000000000000000000000000000000000000000169055565b606a81565b60015473ffffffffffffffffffffffffffffffffffffffff1690565b600281565b600581565b606881565b600481565b600781565b60025460009073ffffffffffffffffffffffffffffffffffffffff84811691161415610bca5750806105f0565b73ffffffffffffffffffffffffffffffffffffffff8316600090815260036020819052604090912090810154600110610c2f576040517f08c379a0000000000000000000000000000000000000000000000000000000008152600401610330906115fa565b6000610c39611172565b73ffffffffffffffffffffffffffffffffffffffff1663eaa095f8600086856003016040518463ffffffff1660e01b8152600401610c7993929190611455565b60006040518083038186803b158015610c9157600080fd5b505afa158015610ca5573d6000803e3d6000fd5b505050506040513d6000823e601f3d9081017fffffffffffffffffffffffffffffffffffffffffffffffffffffffffffffffe0168201604052610ceb919081019061132b565b905060008160018351610cfe9190611780565b81518110610d35577f4e487b7100000000000000000000000000000000000000000000000000000000600052603260045260246000fd5b60200260200101519050826001018054905083600201546001610d589190611717565b610d629190611797565b600284015580610d7b86683635c9adc5dea00000611743565b610d85919061172f565b83600101846002015481548110610dc5577f4e487b7100000000000000000000000000000000000000000000000000000000600052603260045260246000fd5b60009182526020909120015592506105f0915050565b60025460009073ffffffffffffffffffffffffffffffffffffffff84811691161415610e085750806105f0565b73ffffffffffffffffffffffffffffffffffffffff831660009081526003602052604090206004810154600110610e6b576040517f08c379a0000000000000000000000000000000000000000000000000000000008152600401610330906115fa565b6000610e75611172565b73ffffffffffffffffffffffffffffffffffffffff166390b931ed600086856004016040518463ffffffff1660e01b8152600401610eb593929190611455565b60006040518083038186803b158015610ecd57600080fd5b505afa158015610ee1573d6000803e3d6000fd5b505050506040513d6000823e601f3d9081017fffffffffffffffffffffffffffffffffffffffffffffffffffffffffffffffe0168201604052610f27919081019061132b565b9050600081600081518110610f65577f4e487b7100000000000000000000000000000000000000000000000000000000600052603260045260246000fd5b602002602001015190508093505050506105f0565b610f8261121f565b73ffffffffffffffffffffffffffffffffffffffff16610fa0610b68565b73ffffffffffffffffffffffffffffffffffffffff1614610fed576040517f08c379a000000000000000000000000000000000000000000000000000000000815260040161033090611657565b73ffffffffffffffffffffffffffffffffffffffff811661103a576040517f08c379a00000000000000000000000000000000000000000000000000000000081526004016103309061159d565b60015460405173ffffffffffffffffffffffffffffffffffffffff8084169216907f8be0079c531659141344cd1fd0a4f28419497f9722a3daafe3b4186f6b6457e090600090a3600180547fffffffffffffffffffffffff00000000000000000000000000000000000000001673ffffffffffffffffffffffffffffffffffffffff92909216919091179055565b600080546040517f7ecd187e00000000000000000000000000000000000000000000000000000000815273ffffffffffffffffffffffffffffffffffffffff90911690637ecd187e9061112290859060069060040161142b565b60206040518083038186803b15801561113a57600080fd5b505afa15801561114e573d6000803e3d6000fd5b505050506040513d601f19601f820116820180604052508101906105f091906113af565b600080546040517f3c9c8f9c00000000000000000000000000000000000000000000000000000000815273ffffffffffffffffffffffffffffffffffffffff90911690633c9c8f9c906111ca9060679060040161168c565b60206040518083038186803b1580156111e257600080fd5b505afa1580156111f6573d6000803e3d6000fd5b505050506040513d601f19601f8201168201806040525081019061121a9190611246565b905090565b3390565b600060208284031215611234578081fd5b813561123f81611838565b9392505050565b600060208284031215611257578081fd5b815161123f81611838565b60008060408385031215611274578081fd5b823561127f81611838565b946020939093013593505050565b6000602080838503121561129f578182fd5b823567ffffffffffffffff8111156112b5578283fd5b8301601f810185136112c5578283fd5b80356112d86112d3826116f3565b6116a4565b81815283810190838501858402850186018910156112f4578687fd5b8694505b8385101561131f57803561130b81611838565b8352600194909401939185019185016112f8565b50979650505050505050565b6000602080838503121561133d578182fd5b825167ffffffffffffffff811115611353578283fd5b8301601f81018513611363578283fd5b80516113716112d3826116f3565b818152838101908385018584028501860189101561138d578687fd5b8694505b8385101561131f578051835260019490940193918501918501611391565b6000602082840312156113c0578081fd5b8151801515811461123f578182fd5b60048110611406577f4e487b7100000000000000000000000000000000000000000000000000000000600052602160045260246000fd5b9052565b73ffffffffffffffffffffffffffffffffffffffff91909116815260200190565b73ffffffffffffffffffffffffffffffffffffffff92909216825261ffff16602082015260400190565b60006060820161146583876113cf565b602083810186905260606040850152845491829052848352808320916080850190845b818110156114ba57845473ffffffffffffffffffffffffffffffffffffffff1683526001948501949284019201611488565b509098975050505050505050565b6000608082016114d883886113cf565b602086818501528560408501526080606085015281855180845260a0860191508287019350845b8181101561153157845173ffffffffffffffffffffffffffffffffffffffff16835293830193918301916001016114ff565b50909998505050505050505050565b6020808252602f908201527f43616c6c696e6720636f6e7472616374206973206e6f7420617574686f72697a60408201527f656420746f206c69717569646174650000000000000000000000000000000000606082015260800190565b60208082526026908201527f4f776e61626c653a206e6577206f776e657220697320746865207a65726f206160408201527f6464726573730000000000000000000000000000000000000000000000000000606082015260800190565b60208082526026908201527f546f6b656e20646f6573206e6f7420686176652061206c69717569646174696f60408201527f6e20706174680000000000000000000000000000000000000000000000000000606082015260800190565b6020808252818101527f4f776e61626c653a2063616c6c6572206973206e6f7420746865206f776e6572604082015260600190565b61ffff91909116815260200190565b90815260200190565b604051601f82017fffffffffffffffffffffffffffffffffffffffffffffffffffffffffffffffe016810167ffffffffffffffff811182821017156116eb576116eb611809565b604052919050565b600067ffffffffffffffff82111561170d5761170d611809565b5060209081020190565b6000821982111561172a5761172a6117ab565b500190565b60008261173e5761173e6117da565b500490565b6000817fffffffffffffffffffffffffffffffffffffffffffffffffffffffffffffffff048311821515161561177b5761177b6117ab565b500290565b600082821015611792576117926117ab565b500390565b6000826117a6576117a66117da565b500690565b7f4e487b7100000000000000000000000000000000000000000000000000000000600052601160045260246000fd5b7f4e487b7100000000000000000000000000000000000000000000000000000000600052601260045260246000fd5b7f4e487b7100000000000000000000000000000000000000000000000000000000600052604160045260246000fd5b73ffffffffffffffffffffffffffffffffffffffff81168114610a7e57600080fdfea26469706673582212209cb9577711053e0ca15018f1f4d1491013361f57bf8a2cfc50d9f717c6b2eecc64736f6c63430008010033",
  "linkReferences": {},
  "deployedLinkReferences": {}
}