{
  "_format": "hh-sol-artifact-1",
  "contractName": "V1",
  "sourceName": "contracts/V1.sol",
  "abi": [
    {
      "inputs": [
        {
          "internalType": "address",
          "name": "targetOwner",
          "type": "address"
        },
        {
          "internalType": "address",
          "name": "WETH",
          "type": "address"
        },
        {
          "internalType": "uint256",
          "name": "feesPer10k",
          "type": "uint256"
        },
        {
          "internalType": "address",
          "name": "MFI",
          "type": "address"
        },
        {
          "internalType": "address",
          "name": "uniswapFactory",
          "type": "address"
        },
        {
          "internalType": "address",
          "name": "sushiswapFactory",
          "type": "address"
        },
        {
          "internalType": "address",
          "name": "peg",
          "type": "address"
        }
      ],
      "stateMutability": "nonpayable",
      "type": "constructor"
    },
    {
      "anonymous": false,
      "inputs": [
        {
          "indexed": true,
          "internalType": "address",
          "name": "previousOwner",
          "type": "address"
        },
        {
          "indexed": true,
          "internalType": "address",
          "name": "newOwner",
          "type": "address"
        }
      ],
      "name": "OwnershipTransferred",
      "type": "event"
    },
    {
      "inputs": [],
      "name": "admin",
      "outputs": [
        {
          "internalType": "contract Admin",
          "name": "",
          "type": "address"
        }
      ],
      "stateMutability": "view",
      "type": "function"
    },
    {
      "inputs": [],
      "name": "crossMarginTrading",
      "outputs": [
        {
          "internalType": "contract CrossMarginTrading",
          "name": "",
          "type": "address"
        }
      ],
      "stateMutability": "view",
      "type": "function"
    },
    {
      "inputs": [],
      "name": "fund",
      "outputs": [
        {
          "internalType": "contract Fund",
          "name": "",
          "type": "address"
        }
      ],
      "stateMutability": "view",
      "type": "function"
    },
    {
      "inputs": [],
      "name": "lending",
      "outputs": [
        {
          "internalType": "contract Lending",
          "name": "",
          "type": "address"
        }
      ],
      "stateMutability": "view",
      "type": "function"
    },
    {
      "inputs": [],
      "name": "marginRouter",
      "outputs": [
        {
          "internalType": "contract MarginRouter",
          "name": "",
          "type": "address"
        }
      ],
      "stateMutability": "view",
      "type": "function"
    },
    {
      "inputs": [],
      "name": "owner",
      "outputs": [
        {
          "internalType": "address",
          "name": "",
          "type": "address"
        }
      ],
      "stateMutability": "view",
      "type": "function"
    },
    {
      "inputs": [],
      "name": "price",
      "outputs": [
        {
          "internalType": "contract Price",
          "name": "",
          "type": "address"
        }
      ],
      "stateMutability": "view",
      "type": "function"
    },
    {
      "inputs": [],
      "name": "renounceOwnership",
      "outputs": [],
      "stateMutability": "nonpayable",
      "type": "function"
    },
    {
      "inputs": [],
      "name": "roles",
      "outputs": [
        {
          "internalType": "contract Roles",
          "name": "",
          "type": "address"
        }
      ],
      "stateMutability": "view",
      "type": "function"
    },
    {
      "inputs": [
        {
          "internalType": "address",
          "name": "newOwner",
          "type": "address"
        }
      ],
      "name": "transferOwnership",
      "outputs": [],
      "stateMutability": "nonpayable",
      "type": "function"
    }
  ],
  "bytecode": "0x60806040523480156200001157600080fd5b506040516200f7573803806200f757833981016040819052620000349162000582565b600062000040620004ff565b600080546001600160a01b0319166001600160a01b0383169081178255604051929350917f8be0079c531659141344cd1fd0a4f28419497f9722a3daafe3b4186f6b6457e0908290a350604051620000989062000503565b604051809103906000f080158015620000b5573d6000803e3d6000fd5b50600180546001600160a01b0319166001600160a01b03928316179081905560405188929190911690620000e99062000511565b620000f692919062000621565b604051809103906000f08015801562000113573d6000803e3d6000fd5b50600280546001600160a01b0319166001600160a01b03928316179081905560405163f2fde38b60e01b815291169063f2fde38b9062000158908a906004016200060d565b600060405180830381600087803b1580156200017357600080fd5b505af115801562000188573d6000803e3d6000fd5b50506001546040518893508792506001600160a01b0390911690620001ad906200051f565b620001bb9392919062000666565b604051809103906000f080158015620001d8573d6000803e3d6000fd5b50600380546001600160a01b0319166001600160a01b03928316179081905560405163f2fde38b60e01b815291169063f2fde38b906200021d908a906004016200060d565b600060405180830381600087803b1580156200023857600080fd5b505af11580156200024d573d6000803e3d6000fd5b50506001546040516001600160a01b0390911692506200026e91506200052d565b6200027a91906200060d565b604051809103906000f08015801562000297573d6000803e3d6000fd5b50600480546001600160a01b0319166001600160a01b039283161780825560405163f2fde38b60e01b815292169163f2fde38b91620002d9918b91016200060d565b600060405180830381600087803b158015620002f457600080fd5b505af115801562000309573d6000803e3d6000fd5b50506001546040516001600160a01b0390911692506200032a91506200053b565b6200033691906200060d565b604051809103906000f08015801562000353573d6000803e3d6000fd5b50600580546001600160a01b0319166001600160a01b03928316179081905560405163f2fde38b60e01b815291169063f2fde38b9062000398908a906004016200060d565b600060405180830381600087803b158015620003b357600080fd5b505af1158015620003c8573d6000803e3d6000fd5b505060015460405186935085925089916001600160a01b031690620003ed9062000549565b620003fc94939291906200063b565b604051809103906000f08015801562000419573d6000803e3d6000fd5b50600680546001600160a01b0319166001600160a01b03928316179055600154604051839291909116906200044e9062000557565b6200045b92919062000621565b604051809103906000f08015801562000478573d6000803e3d6000fd5b50600780546001600160a01b0319166001600160a01b0392831617905560015460405163f2fde38b60e01b815291169063f2fde38b90620004be908a906004016200060d565b600060405180830381600087803b158015620004d957600080fd5b505af1158015620004ee573d6000803e3d6000fd5b505050505050505050505062000685565b3390565b6108ec8062000c0b83390190565b61131b80620014f783390190565b6119f5806200281283390190565b6135d8806200420783390190565b612d6780620077df83390190565b613833806200a54683390190565b6119de806200dd7983390190565b80516001600160a01b03811681146200057d57600080fd5b919050565b600080600080600080600060e0888a0312156200059d578283fd5b620005a88862000565565b9650620005b86020890162000565565b955060408801519450620005cf6060890162000565565b9350620005df6080890162000565565b9250620005ef60a0890162000565565b9150620005ff60c0890162000565565b905092959891949750929550565b6001600160a01b0391909116815260200190565b6001600160a01b0392831681529116602082015260400190565b6001600160a01b03948516815292841660208401529083166040830152909116606082015260800190565b9283526001600160a01b03918216602084015216604082015260600190565b61057680620006956000396000f3fe608060405234801561001057600080fd5b50600436106100be5760003560e01c80639dabd88d11610076578063b60d42881161005b578063b60d428814610113578063f2fde38b1461011b578063f851a4401461012e576100be565b80639dabd88d14610103578063a035b1fe1461010b576100be565b8063715018a6116100a7578063715018a6146100e95780638da5cb5b146100f357806395e97eee146100fb576100be565b806323ee5e7a146100c3578063392f5f64146100e1575b600080fd5b6100cb610136565b6040516100d8919061048d565b60405180910390f35b6100cb610152565b6100f161016e565b005b6100cb610259565b6100cb610275565b6100cb610291565b6100cb6102ad565b6100cb6102c9565b6100f1610129366004610452565b6102e5565b6100cb610432565b60065473ffffffffffffffffffffffffffffffffffffffff1681565b60015473ffffffffffffffffffffffffffffffffffffffff1681565b61017661044e565b73ffffffffffffffffffffffffffffffffffffffff16610194610259565b73ffffffffffffffffffffffffffffffffffffffff16146101ea576040517f08c379a00000000000000000000000000000000000000000000000000000000081526004016101e19061050b565b60405180910390fd5b6000805460405173ffffffffffffffffffffffffffffffffffffffff909116907f8be0079c531659141344cd1fd0a4f28419497f9722a3daafe3b4186f6b6457e0908390a3600080547fffffffffffffffffffffffff0000000000000000000000000000000000000000169055565b60005473ffffffffffffffffffffffffffffffffffffffff1690565b60055473ffffffffffffffffffffffffffffffffffffffff1681565b60045473ffffffffffffffffffffffffffffffffffffffff1681565b60075473ffffffffffffffffffffffffffffffffffffffff1681565b60025473ffffffffffffffffffffffffffffffffffffffff1681565b6102ed61044e565b73ffffffffffffffffffffffffffffffffffffffff1661030b610259565b73ffffffffffffffffffffffffffffffffffffffff1614610358576040517f08c379a00000000000000000000000000000000000000000000000000000000081526004016101e19061050b565b73ffffffffffffffffffffffffffffffffffffffff81166103a5576040517f08c379a00000000000000000000000000000000000000000000000000000000081526004016101e1906104ae565b6000805460405173ffffffffffffffffffffffffffffffffffffffff808516939216917f8be0079c531659141344cd1fd0a4f28419497f9722a3daafe3b4186f6b6457e091a3600080547fffffffffffffffffffffffff00000000000000000000000000000000000000001673ffffffffffffffffffffffffffffffffffffffff92909216919091179055565b60035473ffffffffffffffffffffffffffffffffffffffff1681565b3390565b600060208284031215610463578081fd5b813573ffffffffffffffffffffffffffffffffffffffff81168114610486578182fd5b9392505050565b73ffffffffffffffffffffffffffffffffffffffff91909116815260200190565b60208082526026908201527f4f776e61626c653a206e6577206f776e657220697320746865207a65726f206160408201527f6464726573730000000000000000000000000000000000000000000000000000606082015260800190565b6020808252818101527f4f776e61626c653a2063616c6c6572206973206e6f7420746865206f776e657260408201526060019056fea26469706673582212204bbf15df619fce44c97065c5e7f6e80301fcd42d5bad5c1b1f85b3cef3197eb964736f6c63430008010033608060405234801561001057600080fd5b50600061001b61006a565b600080546001600160a01b0319166001600160a01b0383169081178255604051929350917f8be0079c531659141344cd1fd0a4f28419497f9722a3daafe3b4186f6b6457e0908290a35061006e565b3390565b61086f8061007d6000396000f3fe608060405234801561001057600080fd5b50600436106100a35760003560e01c80639b44225b11610076578063d87fefd21161005b578063d87fefd214610129578063f2fde38b1461013c578063fae371de1461014f576100a3565b80639b44225b14610103578063b6aa083e14610116576100a3565b80633c9c8f9c146100a857806353b15901146100d1578063715018a6146100f15780638da5cb5b146100fb575b600080fd5b6100bb6100b6366004610738565b610162565b6040516100c8919061077b565b60405180910390f35b6100e46100df366004610706565b61018a565b6040516100c8919061079c565b6100f96101aa565b005b6100bb610295565b6100f9610111366004610752565b6102b1565b6100f9610124366004610752565b61037f565b6100e4610137366004610752565b610452565b6100f961014a3660046106e5565b61048d565b6100f961015d366004610752565b6105da565b60026020526000908152604090205473ffffffffffffffffffffffffffffffffffffffff1681565b600160209081526000928352604080842090915290825290205460ff1681565b6101b26106a6565b73ffffffffffffffffffffffffffffffffffffffff166101d0610295565b73ffffffffffffffffffffffffffffffffffffffff1614610226576040517f08c379a000000000000000000000000000000000000000000000000000000000815260040161021d90610804565b60405180910390fd5b6000805460405173ffffffffffffffffffffffffffffffffffffffff909116907f8be0079c531659141344cd1fd0a4f28419497f9722a3daafe3b4186f6b6457e0908390a3600080547fffffffffffffffffffffffff0000000000000000000000000000000000000000169055565b60005473ffffffffffffffffffffffffffffffffffffffff1690565b6102b96106a6565b73ffffffffffffffffffffffffffffffffffffffff166102d7610295565b73ffffffffffffffffffffffffffffffffffffffff1614610324576040517f08c379a000000000000000000000000000000000000000000000000000000000815260040161021d90610804565b73ffffffffffffffffffffffffffffffffffffffff16600090815260016020908152604080832061ffff90941683529290522080547fffffffffffffffffffffffffffffffffffffffffffffffffffffffffffffff00169055565b6103876106a6565b73ffffffffffffffffffffffffffffffffffffffff166103a5610295565b73ffffffffffffffffffffffffffffffffffffffff16146103f2576040517f08c379a000000000000000000000000000000000000000000000000000000000815260040161021d90610804565b73ffffffffffffffffffffffffffffffffffffffff16600090815260016020818152604080842061ffff909516845293905291902080547fffffffffffffffffffffffffffffffffffffffffffffffffffffffffffffff00169091179055565b73ffffffffffffffffffffffffffffffffffffffff16600090815260016020908152604080832061ffff949094168352929052205460ff1690565b6104956106a6565b73ffffffffffffffffffffffffffffffffffffffff166104b3610295565b73ffffffffffffffffffffffffffffffffffffffff1614610500576040517f08c379a000000000000000000000000000000000000000000000000000000000815260040161021d90610804565b73ffffffffffffffffffffffffffffffffffffffff811661054d576040517f08c379a000000000000000000000000000000000000000000000000000000000815260040161021d906107a7565b6000805460405173ffffffffffffffffffffffffffffffffffffffff808516939216917f8be0079c531659141344cd1fd0a4f28419497f9722a3daafe3b4186f6b6457e091a3600080547fffffffffffffffffffffffff00000000000000000000000000000000000000001673ffffffffffffffffffffffffffffffffffffffff92909216919091179055565b6105e26106a6565b73ffffffffffffffffffffffffffffffffffffffff16610600610295565b73ffffffffffffffffffffffffffffffffffffffff161461064d576040517f08c379a000000000000000000000000000000000000000000000000000000000815260040161021d90610804565b61ffff91909116600090815260026020526040902080547fffffffffffffffffffffffff00000000000000000000000000000000000000001673ffffffffffffffffffffffffffffffffffffffff909216919091179055565b3390565b803573ffffffffffffffffffffffffffffffffffffffff811681146106ce57600080fd5b919050565b803561ffff811681146106ce57600080fd5b6000602082840312156106f6578081fd5b6106ff826106aa565b9392505050565b60008060408385031215610718578081fd5b610721836106aa565b915061072f602084016106d3565b90509250929050565b600060208284031215610749578081fd5b6106ff826106d3565b60008060408385031215610764578182fd5b61076d836106d3565b915061072f602084016106aa565b73ffffffffffffffffffffffffffffffffffffffff91909116815260200190565b901515815260200190565b60208082526026908201527f4f776e61626c653a206e6577206f776e657220697320746865207a65726f206160408201527f6464726573730000000000000000000000000000000000000000000000000000606082015260800190565b6020808252818101527f4f776e61626c653a2063616c6c6572206973206e6f7420746865206f776e657260408201526060019056fea26469706673582212209240b3ff837b487b146a66ceca550691f355bae525ff69676bd64b0fbbc48e2364736f6c63430008010033608060405234801561001057600080fd5b5060405161131b38038061131b83398101604081905261002f916100e6565b600080546001600160a01b0319166001600160a01b0383161781556100526100c6565b600180546001600160a01b0319166001600160a01b038316908117909155604051919250906000907f8be0079c531659141344cd1fd0a4f28419497f9722a3daafe3b4186f6b6457e0908290a35050600280546001600160a01b0319166001600160a01b0392909216919091179055610118565b3390565b80516001600160a01b03811681146100e157600080fd5b919050565b600080604083850312156100f8578182fd5b610101836100ca565b915061010f602084016100ca565b90509250929050565b6111f4806101276000396000f3fe6080604052600436106101b75760003560e01c8063715018a6116100ec578063a9cc05361161008a578063cacf8d4511610064578063cacf8d451461041b578063d5d7ed7f14610430578063d9caed1214610445578063f2fde38b14610465576101b7565b8063a9cc0536146103d1578063ad5c4648146103e6578063b3db428b146103fb576101b7565b80638da5cb5b116100c65780638da5cb5b1461038a578063a0098d691461039f578063a6a5f9fe146103b4578063a94c7c34146103bc576101b7565b8063715018a61461034b57806381ca66001461036057806383a49c7c14610375576101b7565b80634782f779116101595780635acf6903116101335780635acf6903146102e15780635c275a3914610301578063669419841461031657806368173bcf1461032b576101b7565b80634782f7791461027f57806347e7ef241461029f57806348fb27b8146102cc576101b7565b80632fe94def116101955780632fe94def1461021e57806332fe7b2614610233578063392f5f641461024857806346b887961461026a576101b7565b8063065d570f146101bc5780630d1ce2d2146101e75780631bc5d81d14610209575b600080fd5b3480156101c857600080fd5b506101d1610485565b6040516101de919061117c565b60405180910390f35b3480156101f357600080fd5b50610207610202366004610e44565b61048a565b005b34801561021557600080fd5b506101d1610521565b34801561022a57600080fd5b506101d1610526565b34801561023f57600080fd5b506101d161052b565b34801561025457600080fd5b5061025d610530565b6040516101de9190610ee2565b34801561027657600080fd5b506101d161054c565b34801561028b57600080fd5b5061020761029a366004610e99565b610551565b3480156102ab57600080fd5b506102bf6102ba366004610e99565b610660565b6040516101de9190610f5a565b3480156102d857600080fd5b506101d161076e565b3480156102ed57600080fd5b506102bf6102fc366004610e44565b610773565b34801561030d57600080fd5b506101d1610788565b34801561032257600080fd5b506101d161078d565b34801561033757600080fd5b50610207610346366004610e44565b610792565b34801561035757600080fd5b5061020761081d565b34801561036c57600080fd5b506101d16108ff565b34801561038157600080fd5b506101d1610904565b34801561039657600080fd5b5061025d610909565b3480156103ab57600080fd5b506101d1610925565b61020761092a565b3480156103c857600080fd5b506101d16109af565b3480156103dd57600080fd5b506101d16109b4565b3480156103f257600080fd5b5061025d6109b9565b34801561040757600080fd5b506102bf610416366004610e5e565b6109d5565b34801561042757600080fd5b506101d1610b23565b34801561043c57600080fd5b506101d1610b28565b34801561045157600080fd5b506102bf610460366004610e5e565b610b2d565b34801561047157600080fd5b50610207610480366004610e44565b610bc2565b600381565b61049333610d10565b6104d2576040517f08c379a00000000000000000000000000000000000000000000000000000000081526004016104c990610f9c565b60405180910390fd5b73ffffffffffffffffffffffffffffffffffffffff16600090815260036020526040902080547fffffffffffffffffffffffffffffffffffffffffffffffffffffffffffffff00166001179055565b600881565b606981565b606781565b60005473ffffffffffffffffffffffffffffffffffffffff1681565b600681565b61055a33610dc2565b610590576040517f08c379a00000000000000000000000000000000000000000000000000000000081526004016104c990610ff9565b6002546040517f2e1a7d4d00000000000000000000000000000000000000000000000000000000815273ffffffffffffffffffffffffffffffffffffffff90911690632e1a7d4d906105e69084906004016111b5565b600060405180830381600087803b15801561060057600080fd5b505af1158015610614573d6000803e3d6000fd5b505060405173ffffffffffffffffffffffffffffffffffffffff8516925083156108fc02915083906000818181858888f1935050505015801561065b573d6000803e3d6000fd5b505050565b73ffffffffffffffffffffffffffffffffffffffff821660009081526003602052604081205460ff166106bf576040517f08c379a00000000000000000000000000000000000000000000000000000000081526004016104c990610f65565b6040517f23b872dd00000000000000000000000000000000000000000000000000000000815273ffffffffffffffffffffffffffffffffffffffff8416906323b872dd9061071590339030908790600401610f03565b602060405180830381600087803b15801561072f57600080fd5b505af1158015610743573d6000803e3d6000fd5b505050506040513d601f19601f820116820180604052508101906107679190610ec2565b9392505050565b606681565b60036020526000908152604090205460ff1681565b606581565b600181565b61079b33610d10565b6107d1576040517f08c379a00000000000000000000000000000000000000000000000000000000081526004016104c990610f9c565b73ffffffffffffffffffffffffffffffffffffffff16600090815260036020526040902080547fffffffffffffffffffffffffffffffffffffffffffffffffffffffffffffff00169055565b610825610e1c565b73ffffffffffffffffffffffffffffffffffffffff16610843610909565b73ffffffffffffffffffffffffffffffffffffffff1614610890576040517f08c379a00000000000000000000000000000000000000000000000000000000081526004016104c9906110ea565b60015460405160009173ffffffffffffffffffffffffffffffffffffffff16907f8be0079c531659141344cd1fd0a4f28419497f9722a3daafe3b4186f6b6457e0908390a3600180547fffffffffffffffffffffffff0000000000000000000000000000000000000000169055565b606a81565b600981565b60015473ffffffffffffffffffffffffffffffffffffffff1690565b600281565b600260009054906101000a900473ffffffffffffffffffffffffffffffffffffffff1673ffffffffffffffffffffffffffffffffffffffff1663d0e30db0346040518263ffffffff1660e01b81526004016000604051808303818588803b15801561099457600080fd5b505af11580156109a8573d6000803e3d6000fd5b5050505050565b600581565b606881565b60025473ffffffffffffffffffffffffffffffffffffffff1681565b73ffffffffffffffffffffffffffffffffffffffff821660009081526003602052604081205460ff16610a34576040517f08c379a00000000000000000000000000000000000000000000000000000000081526004016104c990610f65565b610a3d33610dc2565b610a73576040517f08c379a00000000000000000000000000000000000000000000000000000000081526004016104c99061111f565b6040517f23b872dd00000000000000000000000000000000000000000000000000000000815273ffffffffffffffffffffffffffffffffffffffff8416906323b872dd90610ac990879030908790600401610f03565b602060405180830381600087803b158015610ae357600080fd5b505af1158015610af7573d6000803e3d6000fd5b505050506040513d601f19601f82011682018060405250810190610b1b9190610ec2565b949350505050565b600481565b600781565b6000610b3833610dc2565b610b6e576040517f08c379a00000000000000000000000000000000000000000000000000000000081526004016104c99061108d565b6040517fa9059cbb00000000000000000000000000000000000000000000000000000000815273ffffffffffffffffffffffffffffffffffffffff85169063a9059cbb90610ac99086908690600401610f34565b610bca610e1c565b73ffffffffffffffffffffffffffffffffffffffff16610be8610909565b73ffffffffffffffffffffffffffffffffffffffff1614610c35576040517f08c379a00000000000000000000000000000000000000000000000000000000081526004016104c9906110ea565b73ffffffffffffffffffffffffffffffffffffffff8116610c82576040517f08c379a00000000000000000000000000000000000000000000000000000000081526004016104c990611030565b60015460405173ffffffffffffffffffffffffffffffffffffffff8084169216907f8be0079c531659141344cd1fd0a4f28419497f9722a3daafe3b4186f6b6457e090600090a3600180547fffffffffffffffffffffffff00000000000000000000000000000000000000001673ffffffffffffffffffffffffffffffffffffffff92909216919091179055565b600080546040517fd87fefd200000000000000000000000000000000000000000000000000000000815273ffffffffffffffffffffffffffffffffffffffff9091169063d87fefd290610d6a90600990869060040161118b565b60206040518083038186803b158015610d8257600080fd5b505afa158015610d96573d6000803e3d6000fd5b505050506040513d601f19601f82011682018060405250810190610dba9190610ec2565b90505b919050565b600080546040517fd87fefd200000000000000000000000000000000000000000000000000000000815273ffffffffffffffffffffffffffffffffffffffff9091169063d87fefd290610d6a90600190869060040161118b565b3390565b803573ffffffffffffffffffffffffffffffffffffffff81168114610dbd57600080fd5b600060208284031215610e55578081fd5b61076782610e20565b600080600060608486031215610e72578182fd5b610e7b84610e20565b9250610e8960208501610e20565b9150604084013590509250925092565b60008060408385031215610eab578182fd5b610eb483610e20565b946020939093013593505050565b600060208284031215610ed3578081fd5b81518015158114610767578182fd5b73ffffffffffffffffffffffffffffffffffffffff91909116815260200190565b73ffffffffffffffffffffffffffffffffffffffff9384168152919092166020820152604081019190915260600190565b73ffffffffffffffffffffffffffffffffffffffff929092168252602082015260400190565b901515815260200190565b6020808252601b908201527f4465706f73697420746f6b656e206973206e6f74206163746976650000000000604082015260600190565b60208082526029908201527f41646472657373206e6f7420617574686f72697a656420746f2061637469766160408201527f746520746f6b656e730000000000000000000000000000000000000000000000606082015260800190565b6020808252601a908201527f4e6f7420617574686f72697a656420746f207769746864726177000000000000604082015260600190565b60208082526026908201527f4f776e61626c653a206e6577206f776e657220697320746865207a65726f206160408201527f6464726573730000000000000000000000000000000000000000000000000000606082015260800190565b60208082526023908201527f436f6e7472616374206e6f7420617574686f72697a656420746f20776974686460408201527f7261770000000000000000000000000000000000000000000000000000000000606082015260800190565b6020808252818101527f4f776e61626c653a2063616c6c6572206973206e6f7420746865206f776e6572604082015260600190565b60208082526022908201527f436f6e7472616374206e6f7420617574686f72697a656420746f206465706f7360408201527f6974000000000000000000000000000000000000000000000000000000000000606082015260800190565b61ffff91909116815260200190565b61ffff92909216825273ffffffffffffffffffffffffffffffffffffffff16602082015260400190565b9081526020019056fea2646970667358221220cc2a316fa94bfe4ee5d87df5130b8c4aae2ae19843c82641e9773b585905bc2564736f6c6343000801003360806040523480156200001157600080fd5b50604051620019f5380380620019f58339810160408190526200003491620000fe565b600080546001600160a01b0319166001600160a01b03831617815562000059620000dd565b600180546001600160a01b0319166001600160a01b038316908117909155604051919250906000907f8be0079c531659141344cd1fd0a4f28419497f9722a3daafe3b4186f6b6457e0908290a35050600280546001600160a01b0319166001600160a01b0392909216919091179055600555670de0b6b3a76400006007556200013e565b3390565b80516001600160a01b0381168114620000f957600080fd5b919050565b60008060006060848603121562000113578283fd5b835192506200012560208501620000e1565b91506200013560408501620000e1565b90509250925092565b6118a7806200014e6000396000f3fe608060405234801561001057600080fd5b50600436106101f05760003560e01c8063715018a61161010f578063a94c7c34116100a2578063d5d7ed7f11610071578063d5d7ed7f14610390578063e909ebfa14610398578063ed95eda0146103ab578063f2fde38b146103be576101f0565b8063a94c7c3414610370578063a9cc053614610378578063bf9befb114610380578063cacf8d4514610388576101f0565b806383a49c7c116100de57806383a49c7c146103455780638da5cb5b1461034d578063a0098d6914610355578063a694fc3a1461035d576101f0565b8063715018a61461030257806381ca66001461030a57806381fe8039146103125780638381e18214610332576101f0565b8063392f5f641161018757806356fc91241161015657806356fc9124146102be5780635c275a39146102df57806366941984146102e757806367cbf42d146102ef576101f0565b8063392f5f64146102865780633f0e9edf1461029b57806346b88796146102ae57806348fb27b8146102b6576101f0565b80631cead9a7116101c35780631cead9a7146102505780632c00d4a7146102635780632fe94def1461027657806332fe7b261461027e576101f0565b8063020d308d146101f5578063065d570f1461020a57806316934fc4146102285780631bc5d81d14610248575b600080fd5b610208610203366004611190565b6103d1565b005b6102126104c0565b60405161021f91906116e6565b60405180910390f35b61023b610236366004611151565b6104c5565b60405161021f919061171f565b6102126104d7565b61023b61025e366004611151565b6104dc565b6102086102713660046112f7565b6104ee565b6102126105e9565b6102126105ee565b61028e6105f3565b60405161021f919061134b565b61023b6102a93660046111c8565b61060f565b6102126106bd565b6102126106c2565b6102d16102cc366004611151565b6106c7565b60405161021f929190611728565b6102126106f6565b6102126106fb565b61023b6102fd3660046111c8565b610700565b610208610752565b610212610834565b610325610320366004611190565b610839565b60405161021f919061141b565b610208610340366004611327565b610859565b610212610986565b61028e61098b565b6102126109a7565b61020861036b3660046112f7565b6109ac565b6102126109b6565b6102126109bb565b61023b6109c0565b6102126109c6565b6102126109cb565b6102086103a6366004611190565b6109d0565b61023b6103b93660046111f3565b610ab9565b6102086103cc366004611151565b610bf6565b3373ffffffffffffffffffffffffffffffffffffffff83161480610425575073ffffffffffffffffffffffffffffffffffffffff8216600090815260096020908152604080832033845290915290205460ff165b610464576040517f08c379a000000000000000000000000000000000000000000000000000000000815260040161045b9061153d565b60405180910390fd5b73ffffffffffffffffffffffffffffffffffffffff9182166000908152600960209081526040808320939094168252919091522080547fffffffffffffffffffffffffffffffffffffffffffffffffffffffffffffff00169055565b600381565b60036020526000908152604090205481565b600881565b60066020526000908152604090205481565b6007543360009081526008602052604090205461050b908361174c565b1015610543576040517f08c379a000000000000000000000000000000000000000000000000000000000815260040161045b906114e0565b61054d3382610d44565b336000908152600860205260409020546105e65733600090815260086020526040902081905561057b610e71565b336000818152600860205260408082206001908101805473ffffffffffffffffffffffffffffffffffffffff9687167fffffffffffffffffffffffff000000000000000000000000000000000000000091821617909155600b54909516835291200180549092161790555b50565b606981565b606781565b60005473ffffffffffffffffffffffffffffffffffffffff1681565b600061061a33610f8b565b610650576040517f08c379a000000000000000000000000000000000000000000000000000000000815260040161045b906116af565b60055461065f9061271061174c565b8260055461066d919061179d565b6106779190611764565b73ffffffffffffffffffffffffffffffffffffffff84166000908152600660205260408120805492935083929091906106b190849061174c565b90915550909392505050565b600681565b606681565b6008602052600090815260409020805460019091015473ffffffffffffffffffffffffffffffffffffffff1682565b606581565b600181565b600061070b33610f8b565b610741576040517f08c379a000000000000000000000000000000000000000000000000000000000815260040161045b906116af565b6127108260055461066d919061179d565b61075a61103d565b73ffffffffffffffffffffffffffffffffffffffff1661077861098b565b73ffffffffffffffffffffffffffffffffffffffff16146107c5576040517f08c379a000000000000000000000000000000000000000000000000000000000815260040161045b9061159a565b60015460405160009173ffffffffffffffffffffffffffffffffffffffff16907f8be0079c531659141344cd1fd0a4f28419497f9722a3daafe3b4186f6b6457e0908390a3600180547fffffffffffffffffffffffff0000000000000000000000000000000000000000169055565b606a81565b600960209081526000928352604080842090915290825290205460ff1681565b33600090815260036020526040812080548492906108789084906117da565b92505081905550816004600082825461089191906117da565b9091555061089f9050611041565b6002546040517fd9caed1200000000000000000000000000000000000000000000000000000000815273ffffffffffffffffffffffffffffffffffffffff9283169263d9caed12926108fa929116908590879060040161136c565b602060405180830381600087803b15801561091457600080fd5b505af1158015610928573d6000803e3d6000fd5b505050506040513d601f19601f8201168201806040525081019061094c91906112d7565b610982576040517f08c379a000000000000000000000000000000000000000000000000000000000815260040161045b90611652565b5050565b600981565b60015473ffffffffffffffffffffffffffffffffffffffff1690565b600281565b6105e63382610d44565b600581565b606881565b60045481565b600481565b600781565b3373ffffffffffffffffffffffffffffffffffffffff83161480610a24575073ffffffffffffffffffffffffffffffffffffffff8216600090815260096020908152604080832033845290915290205460ff165b610a5a576040517f08c379a000000000000000000000000000000000000000000000000000000000815260040161045b9061153d565b73ffffffffffffffffffffffffffffffffffffffff9182166000908152600960209081526040808320939094168252919091522080547fffffffffffffffffffffffffffffffffffffffffffffffffffffffffffffff00166001179055565b6000333214610af4576040517f08c379a000000000000000000000000000000000000000000000000000000000815260040161045b90611426565b6000610afe610e71565b9050600073ffffffffffffffffffffffffffffffffffffffff8216331480610b56575073ffffffffffffffffffffffffffffffffffffffff8216600090815260096020908152604080832033845290915290205460ff165b9050610b606110ee565b73ffffffffffffffffffffffffffffffffffffffff166395f23a628533846040518463ffffffff1660e01b8152600401610b9c9392919061139d565b602060405180830381600087803b158015610bb657600080fd5b505af1158015610bca573d6000803e3d6000fd5b505050506040513d601f19601f82011682018060405250810190610bee919061130f565b949350505050565b610bfe61103d565b73ffffffffffffffffffffffffffffffffffffffff16610c1c61098b565b73ffffffffffffffffffffffffffffffffffffffff1614610c69576040517f08c379a000000000000000000000000000000000000000000000000000000000815260040161045b9061159a565b73ffffffffffffffffffffffffffffffffffffffff8116610cb6576040517f08c379a000000000000000000000000000000000000000000000000000000000815260040161045b90611483565b60015460405173ffffffffffffffffffffffffffffffffffffffff8084169216907f8be0079c531659141344cd1fd0a4f28419497f9722a3daafe3b4186f6b6457e090600090a3600180547fffffffffffffffffffffffff00000000000000000000000000000000000000001673ffffffffffffffffffffffffffffffffffffffff92909216919091179055565b610d4c611041565b6002546040517fb3db428b00000000000000000000000000000000000000000000000000000000815273ffffffffffffffffffffffffffffffffffffffff9283169263b3db428b92610da892879290911690869060040161136c565b602060405180830381600087803b158015610dc257600080fd5b505af1158015610dd6573d6000803e3d6000fd5b505050506040513d601f19601f82011682018060405250810190610dfa91906112d7565b610e30576040517f08c379a000000000000000000000000000000000000000000000000000000000815260040161045b906115cf565b3360009081526003602052604081208054839290610e4f90849061174c565b925050819055508060046000828254610e68919061174c565b90915550505050565b60005b600a5473ffffffffffffffffffffffffffffffffffffffff16600090815260086020526040902054600754600c54610eac90436117da565b610eb6919061179d565b10610f6e57600754600a5473ffffffffffffffffffffffffffffffffffffffff16600090815260086020526040902054610ef09190611764565b600c6000828254610f01919061174c565b9091555050600a8054600b80547fffffffffffffffffffffffff000000000000000000000000000000000000000090811673ffffffffffffffffffffffffffffffffffffffff80851691821790935560009081526008602052604090206001015492169116179055610e74565b50600a5473ffffffffffffffffffffffffffffffffffffffff1690565b600080546040517fd87fefd200000000000000000000000000000000000000000000000000000000815273ffffffffffffffffffffffffffffffffffffffff9091169063d87fefd290610fe59060059086906004016116f5565b60206040518083038186803b158015610ffd57600080fd5b505afa158015611011573d6000803e3d6000fd5b505050506040513d601f19601f8201168201806040525081019061103591906112d7565b90505b919050565b3390565b600080546040517f3c9c8f9c00000000000000000000000000000000000000000000000000000000815273ffffffffffffffffffffffffffffffffffffffff90911690633c9c8f9c90611099906065906004016116e6565b60206040518083038186803b1580156110b157600080fd5b505afa1580156110c5573d6000803e3d6000fd5b505050506040513d601f19601f820116820180604052508101906110e99190611174565b905090565b600080546040517f3c9c8f9c00000000000000000000000000000000000000000000000000000000815273ffffffffffffffffffffffffffffffffffffffff90911690633c9c8f9c90611099906068906004016116e6565b80356110388161184f565b600060208284031215611162578081fd5b813561116d8161184f565b9392505050565b600060208284031215611185578081fd5b815161116d8161184f565b600080604083850312156111a2578081fd5b82356111ad8161184f565b915060208301356111bd8161184f565b809150509250929050565b600080604083850312156111da578182fd5b82356111e58161184f565b946020939093013593505050565b60006020808385031215611205578182fd5b823567ffffffffffffffff8082111561121c578384fd5b818501915085601f83011261122f578384fd5b81358181111561124157611241611820565b8381026040517fffffffffffffffffffffffffffffffffffffffffffffffffffffffffffffffe0603f8301168101818110858211171561128357611283611820565b604052828152858101935084860182860187018a10156112a1578788fd5b8795505b838610156112ca576112b681611146565b8552600195909501949386019386016112a5565b5098975050505050505050565b6000602082840312156112e8578081fd5b8151801515811461116d578182fd5b600060208284031215611308578081fd5b5035919050565b600060208284031215611320578081fd5b5051919050565b60008060408385031215611339578182fd5b8235915060208301356111bd8161184f565b73ffffffffffffffffffffffffffffffffffffffff91909116815260200190565b73ffffffffffffffffffffffffffffffffffffffff9384168152919092166020820152604081019190915260600190565b606080825284519082018190526000906020906080840190828801845b828110156113ec57815173ffffffffffffffffffffffffffffffffffffffff16845292840192908401906001016113ba565b50505073ffffffffffffffffffffffffffffffffffffffff959095169083015250901515604090910152919050565b901515815260200190565b6020808252603a908201527f43757272656e746c79206e6f20696e7465726d656469617269657320616c6c6f60408201527f77656420666f7220746869732066756e6374696f6e2063616c6c000000000000606082015260800190565b60208082526026908201527f4f776e61626c653a206e6577206f776e657220697320746865207a65726f206160408201527f6464726573730000000000000000000000000000000000000000000000000000606082015260800190565b60208082526029908201527f496e73756666696369656e74207374616b6520746f2063616c6c206576656e2060408201527f6f6e6520626c6f636b0000000000000000000000000000000000000000000000606082015260800190565b60208082526030908201527f6d73672e73656e646572206e6f7420617574686f72697a656420746f2064656c60408201527f656761746520666f72207374616b657200000000000000000000000000000000606082015260800190565b6020808252818101527f4f776e61626c653a2063616c6c6572206973206e6f7420746865206f776e6572604082015260600190565b60208082526047908201527f436f756c64206e6f74206465706f736974207374616b652066756e647320287060408201527f657268617073206d616b6520616c6c6f77616e636520746f2066756e6420636f60608201527f6e74726163743f00000000000000000000000000000000000000000000000000608082015260a00190565b60208082526032908201527f496e73756666696369656e742066756e6473202d2d20736f6d657468696e672060408201527f77656e74207265616c6c792077726f6e672e0000000000000000000000000000606082015260800190565b6020808252601d908201527f4e6f7420617574686f72697a656420746f20736f757263652066656573000000604082015260600190565b61ffff91909116815260200190565b61ffff92909216825273ffffffffffffffffffffffffffffffffffffffff16602082015260400190565b90815260200190565b91825273ffffffffffffffffffffffffffffffffffffffff16602082015260400190565b6000821982111561175f5761175f6117f1565b500190565b600082611798577f4e487b710000000000000000000000000000000000000000000000000000000081526012600452602481fd5b500490565b6000817fffffffffffffffffffffffffffffffffffffffffffffffffffffffffffffffff04831182151516156117d5576117d56117f1565b500290565b6000828210156117ec576117ec6117f1565b500390565b7f4e487b7100000000000000000000000000000000000000000000000000000000600052601160045260246000fd5b7f4e487b7100000000000000000000000000000000000000000000000000000000600052604160045260246000fd5b73ffffffffffffffffffffffffffffffffffffffff811681146105e657600080fdfea26469706673582212208a342a3b531ffca14e83605aaac01452112f37a9263eda569d28a61888188d9264736f6c6343000801003360806040526050600a553480156200001657600080fd5b50604051620035d8380380620035d88339810160408190526200003991620000bc565b600080546001600160a01b0319166001600160a01b0383161781556200005e620000b8565b600180546001600160a01b0319166001600160a01b038316908117909155604051919250906000907f8be0079c531659141344cd1fd0a4f28419497f9722a3daafe3b4186f6b6457e0908290a350506014600355620000ec565b3390565b600060208284031215620000ce578081fd5b81516001600160a01b0381168114620000e5578182fd5b9392505050565b6134dc80620000fc6000396000f3fe608060405234801561001057600080fd5b50600436106101f05760003560e01c8063669419841161010f578063a94c7c34116100a2578063d0eb665311610071578063d0eb665314610378578063d510c5351461038b578063d5d7ed7f1461039e578063f2fde38b146103a6576101f0565b8063a94c7c341461034d578063a9cc053614610355578063b25777ad1461035d578063cacf8d4514610370576101f0565b806383a49c7c116100de57806383a49c7c146103225780638da5cb5b1461032a57806395f23a6214610332578063a0098d6914610345576101f0565b806366941984146102f7578063715018a6146102ff57806379575b231461030757806381ca66001461031a576101f0565b8063392f5f6411610187578063498d55eb11610156578063498d55eb146102b657806352a664d9146102c95780635c275a39146102dc5780636612ce35146102e4576101f0565b8063392f5f6414610270578063409fdb721461028557806346b88796146102a657806348fb27b8146102ae576101f0565b80632fe94def116101c35780632fe94def14610245578063320d2fa01461024d57806332fe7b26146102555780633500aa0b1461025d576101f0565b8063065d570f146101f557806316317e7e146102135780631bc5d81d146102285780632c86d98e14610230575b600080fd5b6101fd6103b9565b60405161020a91906132cc565b60405180910390f35b610226610221366004612e9d565b6103be565b005b6101fd61043f565b610238610444565b60405161020a9190613305565b6101fd61044a565b61023861044f565b6101fd610455565b61023861026b366004612ce1565b61045a565b610278610532565b60405161020a9190612ecd565b610298610293366004612ca2565b61054e565b60405161020a929190612f45565b6101fd610744565b6101fd610749565b6102266102c4366004612d3b565b61074e565b6102386102d7366004612d3b565b6107c3565b6101fd61089f565b6102386102f2366004612d3b565b6108a4565b6101fd610968565b61022661096d565b610226610315366004612e9d565b610a4f565b6101fd610ac7565b6101fd610acc565b610278610ad1565b610238610340366004612d7b565b610aed565b6101fd610eb0565b6101fd610eb5565b6101fd610eba565b61022661036b366004612d3b565b610ebf565b6101fd610f33565b610226610386366004612d3b565b610f38565b610298610399366004612ca2565b61101f565b6101fd611297565b6102266103b4366004612ca2565b61129c565b600381565b6103c66113ea565b73ffffffffffffffffffffffffffffffffffffffff166103e4610ad1565b73ffffffffffffffffffffffffffffffffffffffff161461043a576040517f08c379a000000000000000000000000000000000000000000000000000000000815260040161043190613180565b60405180910390fd5b600355565b600881565b60025481565b606981565b60035481565b606781565b6000610465336113ee565b61049b576040517f08c379a000000000000000000000000000000000000000000000000000000000815260040161043190612fd5565b73ffffffffffffffffffffffffffffffffffffffff8087166000908152600460208181526040808420948a1684529184019052902054849081111561051a575073ffffffffffffffffffffffffffffffffffffffff8616600090815260048201602052604090205461050d81866133c8565b925061051a82888561149f565b610527828888848861173d565b505095945050505050565b60005473ffffffffffffffffffffffffffffffffffffffff1681565b73ffffffffffffffffffffffffffffffffffffffff81166000908152600460209081526040918290206003810180548451818502810185019095528085526060948594909291908301828280156105db57602002820191906000526020600020905b815473ffffffffffffffffffffffffffffffffffffffff1681526001909101906020018083116105b0575b5050506003840154929550505067ffffffffffffffff811115610627577f4e487b7100000000000000000000000000000000000000000000000000000000600052604160045260246000fd5b604051908082528060200260200182016040528015610650578160200160208202803683370190505b50915060005b808451111561073d57600084828151811061069a577f4e487b7100000000000000000000000000000000000000000000000000000000600052603260045260246000fd5b602002602001015190508260040160008273ffffffffffffffffffffffffffffffffffffffff1673ffffffffffffffffffffffffffffffffffffffff1681526020019081526020016000205484838151811061071f577f4e487b7100000000000000000000000000000000000000000000000000000000600052603260045260246000fd5b60209081029190910101525080610735816133df565b915050610656565b5050915091565b600681565b606681565b610757336113ee565b61078d576040517f08c379a00000000000000000000000000000000000000000000000000000000081526004016104319061326f565b73ffffffffffffffffffffffffffffffffffffffff831660009081526004602052604090206107bd81848461149f565b50505050565b60006107ce336113ee565b610804576040517f08c379a00000000000000000000000000000000000000000000000000000000081526004016104319061326f565b73ffffffffffffffffffffffffffffffffffffffff841660009081526004602052604090206108348185856117aa565b73ffffffffffffffffffffffffffffffffffffffff84166000908152600182016020526040902054156108975773ffffffffffffffffffffffffffffffffffffffff8416600090815260018201602052604090205461089490849061184f565b91505b509392505050565b606581565b60006108af336113ee565b6108e5576040517f08c379a0000000000000000000000000000000000000000000000000000000008152600401610431906130c6565b73ffffffffffffffffffffffffffffffffffffffff80851660009081526004602081815260408084209488168452918401905290205461092590846133c8565b9150610932818584611869565b610897576040517f08c379a000000000000000000000000000000000000000000000000000000000815260040161043190613032565b600181565b6109756113ea565b73ffffffffffffffffffffffffffffffffffffffff16610993610ad1565b73ffffffffffffffffffffffffffffffffffffffff16146109e0576040517f08c379a000000000000000000000000000000000000000000000000000000000815260040161043190613180565b60015460405160009173ffffffffffffffffffffffffffffffffffffffff16907f8be0079c531659141344cd1fd0a4f28419497f9722a3daafe3b4186f6b6457e0908390a3600180547fffffffffffffffffffffffff0000000000000000000000000000000000000000169055565b610a576113ea565b73ffffffffffffffffffffffffffffffffffffffff16610a75610ad1565b73ffffffffffffffffffffffffffffffffffffffff1614610ac2576040517f08c379a000000000000000000000000000000000000000000000000000000000815260040161043190613180565b600255565b606a81565b600981565b60015473ffffffffffffffffffffffffffffffffffffffff1690565b6000610af83361189b565b610b2e576040517f08c379a0000000000000000000000000000000000000000000000000000000008152600401610431906131b5565b6000610b3a85846118f5565b9050610b46818361333a565b91506000610b52612046565b90506000610b5e6121a3565b905081811115610ba9577f3555ffae7677eb42103f0b9e11b61c758f452fae446684dec7a363dd38ab58fc610b9383836133c8565b604051610ba09190613305565b60405180910390a15b60005b600854811015610ea557600060088281548110610bf2577f4e487b7100000000000000000000000000000000000000000000000000000000600052603260045260246000fd5b600091825260208083209091015473ffffffffffffffffffffffffffffffffffffffff1680835260049091526040822090925090610c2f826122f9565b90506000610c3c8361230b565b9050600060028054606460035485610c54919061338b565b610c5e9190613352565b610c689190613352565b610c729190613352565b90508a15610c8b57610c84818b61333a565b9950610cee565b73ffffffffffffffffffffffffffffffffffffffff8581166000908152600960205260409020600181018390556002810180547fffffffffffffffffffffffff000000000000000000000000000000000000000016928f16929092179091554390555b610cf8828261333a565b8310610e3257610d0661231e565b73ffffffffffffffffffffffffffffffffffffffff1663d9caed12610d296123cb565b73ffffffffffffffffffffffffffffffffffffffff16631f1cb62b6040518163ffffffff1660e01b815260040160206040518083038186803b158015610d6e57600080fd5b505afa158015610d82573d6000803e3d6000fd5b505050506040513d601f19601f82011682018060405250810190610da69190612cc5565b8784610db287896133c8565b610dbc91906133c8565b6040518463ffffffff1660e01b8152600401610dda93929190612eee565b602060405180830381600087803b158015610df457600080fd5b505af1158015610e08573d6000803e3d6000fd5b505050506040513d601f19601f82011682018060405250810190610e2c9190612e81565b50610e84565b600083610e3f838561333a565b610e4991906133c8565b90507f3555ffae7677eb42103f0b9e11b61c758f452fae446684dec7a363dd38ab58fc81604051610e7a9190613305565b60405180910390a1505b610e8d84612423565b50505050508080610e9d906133df565b915050610bac565b505050509392505050565b600281565b600581565b606881565b610ec8336113ee565b610efe576040517f08c379a00000000000000000000000000000000000000000000000000000000081526004016104319061326f565b73ffffffffffffffffffffffffffffffffffffffff83166000908152600460205260409020610f2e90838361259f565b505050565b600481565b610f41336113ee565b610f77576040517f08c379a00000000000000000000000000000000000000000000000000000000081526004016104319061326f565b73ffffffffffffffffffffffffffffffffffffffff808416600090815260046020818152604080842094871684529184019052902054610fb89083906133c8565b73ffffffffffffffffffffffffffffffffffffffff84166000908152600483016020526040902055610fe981612716565b6107bd576040517f08c379a000000000000000000000000000000000000000000000000000000000815260040161043190613123565b73ffffffffffffffffffffffffffffffffffffffff811660009081526004602090815260409182902080548351818402810184019094528084526060938493909183918301828280156110a857602002820191906000526020600020905b815473ffffffffffffffffffffffffffffffffffffffff16815260019091019060200180831161107d575b50508454939650505067ffffffffffffffff82111590506110f2577f4e487b7100000000000000000000000000000000000000000000000000000000600052604160045260246000fd5b60405190808252806020026020018201604052801561111b578160200160208202803683370190505b50915060005b808451111561073d576000848281518110611165577f4e487b7100000000000000000000000000000000000000000000000000000000600052603260045260246000fd5b60200260200101519050611177612761565b73ffffffffffffffffffffffffffffffffffffffff828116600090815260018601602090815260408083205460028901909252918290205491517f687680ed000000000000000000000000000000000000000000000000000000008152939092169263687680ed926111f092909186919060040161330e565b60206040518083038186803b15801561120857600080fd5b505afa15801561121c573d6000803e3d6000fd5b505050506040513d601f19601f820116820180604052508101906112409190612eb5565b848381518110611279577f4e487b7100000000000000000000000000000000000000000000000000000000600052603260045260246000fd5b6020908102919091010152508061128f816133df565b915050611121565b600781565b6112a46113ea565b73ffffffffffffffffffffffffffffffffffffffff166112c2610ad1565b73ffffffffffffffffffffffffffffffffffffffff161461130f576040517f08c379a000000000000000000000000000000000000000000000000000000000815260040161043190613180565b73ffffffffffffffffffffffffffffffffffffffff811661135c576040517f08c379a000000000000000000000000000000000000000000000000000000000815260040161043190613069565b60015460405173ffffffffffffffffffffffffffffffffffffffff8084169216907f8be0079c531659141344cd1fd0a4f28419497f9722a3daafe3b4186f6b6457e090600090a3600180547fffffffffffffffffffffffff00000000000000000000000000000000000000001673ffffffffffffffffffffffffffffffffffffffff92909216919091179055565b3390565b600080546040517fd87fefd200000000000000000000000000000000000000000000000000000000815273ffffffffffffffffffffffffffffffffffffffff9091169063d87fefd29061144790600490869082016132db565b60206040518083038186803b15801561145f57600080fd5b505afa158015611473573d6000803e3d6000fd5b505050506040513d601f19601f820116820180604052508101906114979190612e81565b90505b919050565b6114a983836127b9565b6115ba5782546001810184556000848152602090200180547fffffffffffffffffffffffff00000000000000000000000000000000000000001673ffffffffffffffffffffffffffffffffffffffff8416179055611505612761565b73ffffffffffffffffffffffffffffffffffffffff1663e7bde5c1836040518263ffffffff1660e01b815260040161153d9190612ecd565b60206040518083038186803b15801561155557600080fd5b505afa158015611569573d6000803e3d6000fd5b505050506040513d601f19601f8201168201806040525081019061158d9190612eb5565b73ffffffffffffffffffffffffffffffffffffffff831660009081526002850160205260409020556116b6565b6115c2612761565b73ffffffffffffffffffffffffffffffffffffffff838116600090815260018601602090815260408083205460028901909252918290205491517fe695fa68000000000000000000000000000000000000000000000000000000008152939092169263e695fa689261163b92909187919060040161330e565b602060405180830381600087803b15801561165557600080fd5b505af1158015611669573d6000803e3d6000fd5b505050506040513d601f19601f8201168201806040525081019061168d9190612eb5565b73ffffffffffffffffffffffffffffffffffffffff831660009081526001850160205260409020555b73ffffffffffffffffffffffffffffffffffffffff82166000908152600184016020526040812080548392906116ed90849061333a565b909155506116fe90508383836117aa565b61170783612716565b610f2e576040517f08c379a000000000000000000000000000000000000000000000000000000000815260040161043190613212565b73ffffffffffffffffffffffffffffffffffffffff841660009081526004860160205260409020546117709083906133c8565b73ffffffffffffffffffffffffffffffffffffffff851660009081526004870160205260409020556117a38584836117aa565b5050505050565b6117b483836127e7565b61180e57600383018054600181018255600091825260209091200180547fffffffffffffffffffffffff00000000000000000000000000000000000000001673ffffffffffffffffffffffffffffffffffffffff84161790555b73ffffffffffffffffffffffffffffffffffffffff821660009081526004840160205260408120805483929061184590849061333a565b9091555050505050565b600081831115611860575080611863565b50815b92915050565b73ffffffffffffffffffffffffffffffffffffffff821660009081526004840160205260409020548111159392505050565b600080546040517fd87fefd200000000000000000000000000000000000000000000000000000000815273ffffffffffffffffffffffffffffffffffffffff9091169063d87fefd2906114479060029086906004016132db565b6040805160008082526020820192839052905190916119179160069190612bd7565b50604080516000815260208101918290525161193591600791612bd7565b50604080516000815260208101918290525161195391600891612bd7565b5060005b808451111561203f57600084828151811061199b577f4e487b7100000000000000000000000000000000000000000000000000000000600052603260045260246000fd5b602002602001015190506000600460008373ffffffffffffffffffffffffffffffffffffffff1673ffffffffffffffffffffffffffffffffffffffff16815260200190815260200160002090506119f181612816565b15611e00576008805460018101825560009182527ff3f7a9fe364faab93b216da50a3214154f22a0a2b415b23a84c8169e8b636ee30180547fffffffffffffffffffffffff00000000000000000000000000000000000000001673ffffffffffffffffffffffffffffffffffffffff85161790555b6003820154811015611bde576000826003018281548110611ab0577f4e487b7100000000000000000000000000000000000000000000000000000000600052603260045260246000fd5b600091825260208083209091015473ffffffffffffffffffffffffffffffffffffffff16808352600590915260409091206002810154919250904314611b865773ffffffffffffffffffffffffffffffffffffffff821660008181526004860160205260408120546001808501919091558184554360028501556006805491820181559091527ff652222313e28459528d920b65115c16c04f3efc82aaedc97be59f3f377c0d3f0180547fffffffffffffffffffffffff0000000000000000000000000000000000000000169091179055611bc9565b73ffffffffffffffffffffffffffffffffffffffff8216600090815260048501602052604081205460018301805491929091611bc390849061333a565b90915550505b50508080611bd6906133df565b915050611a66565b5060005b8154811015611dfe576000826000018281548110611c29577f4e487b7100000000000000000000000000000000000000000000000000000000600052603260045260246000fd5b600091825260208083209091015473ffffffffffffffffffffffffffffffffffffffff1680835260059091526040822090925090611c65612761565b73ffffffffffffffffffffffffffffffffffffffff1663e7bde5c1846040518263ffffffff1660e01b8152600401611c9d9190612ecd565b60206040518083038186803b158015611cb557600080fd5b505afa158015611cc9573d6000803e3d6000fd5b505050506040513d601f19601f82011682018060405250810190611ced9190612eb5565b73ffffffffffffffffffffffffffffffffffffffff8416600090815260028701602090815260408083205460018a019092528220549293509091611d3290849061338b565b611d3c9190613352565b905043836002015414611dcd57600060018481018290558285554360028601556007805491820181559091527fa66cc928b5edb82af9bd49922954155ab7b0942694bea4ce44661d9a8736c6880180547fffffffffffffffffffffffff00000000000000000000000000000000000000001673ffffffffffffffffffffffffffffffffffffffff8616179055611de7565b80836000016000828254611de1919061333a565b90915550505b505050508080611df6906133df565b915050611be2565b505b73ffffffffffffffffffffffffffffffffffffffff82166000908152600960205260409020600181015415801590611e355750855b15612029578054600090611e6090611e4e43600161333a565b611e5891906133c8565b600a5461184f565b90506000600a54836001015483611e77919061338b565b611e819190613352565b9050611e8b61231e565b73ffffffffffffffffffffffffffffffffffffffff1663d9caed12611eae6123cb565b73ffffffffffffffffffffffffffffffffffffffff16631f1cb62b6040518163ffffffff1660e01b815260040160206040518083038186803b158015611ef357600080fd5b505afa158015611f07573d6000803e3d6000fd5b505050506040513d601f19601f82011682018060405250810190611f2b9190612cc5565b60028601546040517fffffffff0000000000000000000000000000000000000000000000000000000060e085901b168152611f82929173ffffffffffffffffffffffffffffffffffffffff16908690600401612eee565b602060405180830381600087803b158015611f9c57600080fd5b505af1158015611fb0573d6000803e3d6000fd5b505050506040513d601f19601f82011682018060405250810190611fd49190612e81565b50808360010154611fe591906133c8565b611fef908861333a565b6000600185018190556002850180547fffffffffffffffffffffffff00000000000000000000000000000000000000001690558455965050505b5050508080612037906133df565b915050611957565b5092915050565b6000805b60065481101561219f57600060068281548110612090577f4e487b7100000000000000000000000000000000000000000000000000000000600052603260045260246000fd5b600091825260208083209091015473ffffffffffffffffffffffffffffffffffffffff1680835260059091526040909120805460018201549293509091111561218a57805460018201546000916120e6916133c8565b90506120f06123cb565b73ffffffffffffffffffffffffffffffffffffffff166305883f7c84836040518363ffffffff1660e01b815260040161212a929190612f1f565b602060405180830381600087803b15801561214457600080fd5b505af1158015612158573d6000803e3d6000fd5b505050506040513d601f19601f8201168201806040525081019061217c9190612eb5565b612186908661333a565b9450505b50508080612197906133df565b91505061204a565b5090565b6000805b60075481101561219f576000600782815481106121ed577f4e487b7100000000000000000000000000000000000000000000000000000000600052603260045260246000fd5b600091825260208083209091015473ffffffffffffffffffffffffffffffffffffffff168083526005909152604090912060018101548154929350909111156122e4576122386123cb565b73ffffffffffffffffffffffffffffffffffffffff166305883f7c838360010154846000015461226891906133c8565b6040518363ffffffff1660e01b8152600401612285929190612f1f565b602060405180830381600087803b15801561229f57600080fd5b505af11580156122b3573d6000803e3d6000fd5b505050506040513d601f19601f820116820180604052508101906122d79190612eb5565b6122e1908561333a565b93505b505080806122f1906133df565b9150506121a7565b60006114978260030183600401612870565b60006114978260018101600282016129be565b600080546040517f3c9c8f9c00000000000000000000000000000000000000000000000000000000815273ffffffffffffffffffffffffffffffffffffffff90911690633c9c8f9c90612376906065906004016132cc565b60206040518083038186803b15801561238e57600080fd5b505afa1580156123a2573d6000803e3d6000fd5b505050506040513d601f19601f820116820180604052508101906123c69190612cc5565b905090565b600080546040517f3c9c8f9c00000000000000000000000000000000000000000000000000000000815273ffffffffffffffffffffffffffffffffffffffff90911690633c9c8f9c9061237690606a906004016132cc565b60005b81548110156124be57600082600001828154811061246d577f4e487b7100000000000000000000000000000000000000000000000000000000600052603260045260246000fd5b600091825260208083209091015473ffffffffffffffffffffffffffffffffffffffff16825260018501815260408083208390556002860190915281205550806124b6816133df565b915050612426565b5060005b600382015481101561258257600082600301828154811061250c577f4e487b7100000000000000000000000000000000000000000000000000000000600052603260045260246000fd5b600091825260208083209091015473ffffffffffffffffffffffffffffffffffffffff168252600485018152604080832083905560058601909152902080547fffffffffffffffffffffffffffffffffffffffffffffffffffffffffffffff00169055508061257a816133df565b9150506124c2565b5061258e816000612c5d565b61259c600382016000612c5d565b50565b6125a7612761565b73ffffffffffffffffffffffffffffffffffffffff838116600090815260018601602090815260408083205460028901909252918290205491517fe695fa68000000000000000000000000000000000000000000000000000000008152939092169263e695fa689261262092909187919060040161330e565b602060405180830381600087803b15801561263a57600080fd5b505af115801561264e573d6000803e3d6000fd5b505050506040513d601f19601f820116820180604052508101906126729190612eb5565b73ffffffffffffffffffffffffffffffffffffffff8316600090815260018501602052604090208190556126a79082906133c8565b73ffffffffffffffffffffffffffffffffffffffff8316600090815260018501602090815260408083209390935560048601905220546126e89082906133c8565b73ffffffffffffffffffffffffffffffffffffffff9092166000908152600490930160205250604090912055565b6000806127228361230b565b9050600061272f846122f9565b90506002548261273f919061338b565b60025461274d90600161333a565b612757908361338b565b1015949350505050565b600080546040517f3c9c8f9c00000000000000000000000000000000000000000000000000000000815273ffffffffffffffffffffffffffffffffffffffff90911690633c9c8f9c90612376906066906004016132cc565b73ffffffffffffffffffffffffffffffffffffffff1660009081526002919091016020526040902054151590565b73ffffffffffffffffffffffffffffffffffffffff166000908152600591909101602052604090205460ff1690565b6000806128228361230b565b9050600061282f846122f9565b9050816003546002546064612844919061338b565b61284e919061333a565b612858919061338b565b600254612865908361338b565b61275790606461338b565b6000805b835481101561203f5760008482815481106128b8577f4e487b7100000000000000000000000000000000000000000000000000000000600052603260045260246000fd5b60009182526020909120015473ffffffffffffffffffffffffffffffffffffffff1690506128e46123cb565b73ffffffffffffffffffffffffffffffffffffffff828116600090815260208790526040908190205490517fe47109a9000000000000000000000000000000000000000000000000000000008152929091169163e47109a99161294c91859190600401612f1f565b602060405180830381600087803b15801561296657600080fd5b505af115801561297a573d6000803e3d6000fd5b505050506040513d601f19601f8201168201806040525081019061299e9190612eb5565b6129a8908461333a565b92505080806129b6906133df565b915050612874565b6000805b8454811015610897576000858281548110612a06577f4e487b7100000000000000000000000000000000000000000000000000000000600052603260045260246000fd5b600091825260208083209091015473ffffffffffffffffffffffffffffffffffffffff1680835290879052604090912054909150612a4690829086612a66565b612a50908461333a565b9250508080612a5e906133df565b9150506129c2565b600080612a71612761565b73ffffffffffffffffffffffffffffffffffffffff1663e7bde5c1866040518263ffffffff1660e01b8152600401612aa99190612ecd565b60206040518083038186803b158015612ac157600080fd5b505afa158015612ad5573d6000803e3d6000fd5b505050506040513d601f19601f82011682018060405250810190612af99190612eb5565b73ffffffffffffffffffffffffffffffffffffffff861660009081526020859052604081205491925090612b2d838761338b565b612b379190613352565b9050612b416123cb565b73ffffffffffffffffffffffffffffffffffffffff1663e47109a987836040518363ffffffff1660e01b8152600401612b7b929190612f1f565b602060405180830381600087803b158015612b9557600080fd5b505af1158015612ba9573d6000803e3d6000fd5b505050506040513d601f19601f82011682018060405250810190612bcd9190612eb5565b9695505050505050565b828054828255906000526020600020908101928215612c51579160200282015b82811115612c5157825182547fffffffffffffffffffffffff00000000000000000000000000000000000000001673ffffffffffffffffffffffffffffffffffffffff909116178255602090920191600190910190612bf7565b5061219f929150612c77565b508054600082559060005260206000209081019061259c91905b5b8082111561219f5760008155600101612c78565b803561149a81613476565b803561149a81613498565b600060208284031215612cb3578081fd5b8135612cbe81613476565b9392505050565b600060208284031215612cd6578081fd5b8151612cbe81613476565b600080600080600060a08688031215612cf8578081fd5b8535612d0381613476565b94506020860135612d1381613476565b93506040860135612d2381613476565b94979396509394606081013594506080013592915050565b600080600060608486031215612d4f578283fd5b8335612d5a81613476565b92506020840135612d6a81613476565b929592945050506040919091013590565b600080600060608486031215612d8f578283fd5b833567ffffffffffffffff80821115612da6578485fd5b818601915086601f830112612db9578485fd5b8135602082821115612dcd57612dcd613447565b8082026040517fffffffffffffffffffffffffffffffffffffffffffffffffffffffffffffffe0603f83011681018181108682111715612e0f57612e0f613447565b604052838152828101945085830182870184018c1015612e2d57898afd5b8996505b84871015612e5657612e4281612c8c565b865260019690960195948301948301612e31565b509750612e669050888201612c8c565b955050505050612e7860408501612c97565b90509250925092565b600060208284031215612e92578081fd5b8151612cbe81613498565b600060208284031215612eae578081fd5b5035919050565b600060208284031215612ec6578081fd5b5051919050565b73ffffffffffffffffffffffffffffffffffffffff91909116815260200190565b73ffffffffffffffffffffffffffffffffffffffff9384168152919092166020820152604081019190915260600190565b73ffffffffffffffffffffffffffffffffffffffff929092168252602082015260400190565b604080825283519082018190526000906020906060840190828701845b82811015612f9457815173ffffffffffffffffffffffffffffffffffffffff1684529284019290840190600101612f62565b50505083810382850152845180825285830191830190845b81811015612fc857835183529284019291840191600101612fac565b5090979650505050505050565b60208082526039908201527f43616c6c696e6720636f6e7472616374206973206e6f7420616e20617574686f60408201527f72697a6564206d617267696e20747261646572206167656e7400000000000000606082015260800190565b60208082526018908201527f43616e277420626f72726f772066756c6c20616d6f756e740000000000000000604082015260600190565b60208082526026908201527f4f776e61626c653a206e6577206f776e657220697320746865207a65726f206160408201527f6464726573730000000000000000000000000000000000000000000000000000606082015260800190565b60208082526033908201527f43616c6c696e6720636f6e7472616374206973206e6f7420616e20617574686f60408201527f72697a6564206d617267696e2074726164657200000000000000000000000000606082015260800190565b60208082526026908201527f4163636f756e742062616c616e636520697320746f6f206c6f7720746f20776960408201527f7468647261770000000000000000000000000000000000000000000000000000606082015260800190565b6020808252818101527f4f776e61626c653a2063616c6c6572206973206e6f7420746865206f776e6572604082015260600190565b6020808252602f908201527f43616c6c696e67206164647265737320646f65736e27742068617665206d617260408201527f67696e2063616c6c657220726f6c650000000000000000000000000000000000606082015260800190565b60208082526022908201527f43616e277420626f72726f773a20696e73756666696369656e742062616c616e60408201527f6365000000000000000000000000000000000000000000000000000000000000606082015260800190565b6020808252602a908201527f43616c6c696e6720636f6e7472616374206e6f7420617574686f72697a65642060408201527f746f206465706f73697400000000000000000000000000000000000000000000606082015260800190565b61ffff91909116815260200190565b61ffff92909216825273ffffffffffffffffffffffffffffffffffffffff16602082015260400190565b90815260200190565b92835273ffffffffffffffffffffffffffffffffffffffff919091166020830152604082015260600190565b6000821982111561334d5761334d613418565b500190565b600082613386577f4e487b710000000000000000000000000000000000000000000000000000000081526012600452602481fd5b500490565b6000817fffffffffffffffffffffffffffffffffffffffffffffffffffffffffffffffff04831182151516156133c3576133c3613418565b500290565b6000828210156133da576133da613418565b500390565b60007fffffffffffffffffffffffffffffffffffffffffffffffffffffffffffffffff82141561341157613411613418565b5060010190565b7f4e487b7100000000000000000000000000000000000000000000000000000000600052601160045260246000fd5b7f4e487b7100000000000000000000000000000000000000000000000000000000600052604160045260246000fd5b73ffffffffffffffffffffffffffffffffffffffff8116811461259c57600080fd5b801515811461259c57600080fdfea2646970667358221220462ab2980dd906aad73c6f1c44deee8d40f9abf049181d0d022f9f67d474c5d564736f6c6343000801003360806040523480156200001157600080fd5b5060405162002d6738038062002d678339810160408190526200003491620000b2565b600080546001600160a01b0319166001600160a01b03831617815562000059620000ae565b600180546001600160a01b0319166001600160a01b038316908117909155604051919250906000907f8be0079c531659141344cd1fd0a4f28419497f9722a3daafe3b4186f6b6457e0908290a35050620000e2565b3390565b600060208284031215620000c4578081fd5b81516001600160a01b0381168114620000db578182fd5b9392505050565b612c7580620000f26000396000f3fe608060405234801561001057600080fd5b50600436106103835760003560e01c806381ca6600116101de578063c4f7d45d1161010f578063e695fa68116100ad578063ee0862bf1161007c578063ee0862bf146106b8578063f11f9795146106cb578063f2fde38b146106d3578063f884614b146106e657610383565b8063e695fa681461066c578063e69f89591461067f578063e7bde5c114610692578063e84bfdf4146106a557610383565b8063d3dc14b2116100e9578063d3dc14b21461062b578063d5d7ed7f1461063e578063dcaf802914610646578063e2e1ca2b1461065957610383565b8063c4f7d45d146105fd578063cacf8d4514610610578063cd3b5dfb1461061857610383565b8063a94c7c341161017c578063bfedc0bf11610156578063bfedc0bf146105bc578063c1cea807146105cf578063c3daab96146105e2578063c43a683d146105f557610383565b8063a94c7c34146105a4578063a9cc0536146105ac578063aa7e321d146105b457610383565b80638da5cb5b116101b85780638da5cb5b146105845780639229e73f1461058c578063a0098d6914610594578063a8b151a11461059c57610383565b806381ca66001461055257806383a042291461055a57806383a49c7c1461057c57610383565b8063392f5f64116102b85780635c275a3911610256578063687680ed11610230578063687680ed1461051c578063715018a61461052f578063773bbb3b146105375780637b8b4ee21461053f57610383565b80635c275a39146104e65780635f1c17c0146104ee578063669419841461051457610383565b806346b887961161029257806346b88796146104bb57806348fb27b8146104c357806349f7cff6146104cb57806358d51f91146104de57610383565b8063392f5f64146104805780633aa58f451461049557806340fe56a9146104a857610383565b80631799f0c311610325578063247ae0a6116102ff578063247ae0a61461044a5780632a6a897b1461045d5780632fe94def1461047057806332fe7b261461047857610383565b80631799f0c31461041c5780631bc5d81d1461042f57806320b155151461043757610383565b80630bba92b3116103615780630bba92b3146103ce5780630f7c43dc146103e157806316de7a43146103f65780631744a9b61461040957610383565b80630196c36114610388578063065d570f146103b15780630b550546146103c6575b600080fd5b61039b610396366004612610565b6106f9565b6040516103a89190612ad0565b60405180910390f35b6103b961072a565b6040516103a89190612a97565b61039b61072f565b61039b6103dc36600461263b565b610735565b6103f46103ef366004612610565b610803565b005b6103f4610404366004612610565b61084e565b61039b610417366004612599565b61098c565b61039b61042a366004612599565b61099e565b6103b96109b0565b61039b610445366004612599565b6109b5565b61039b610458366004612610565b6109c7565b6103f461046b366004612610565b6109e3565b6103b9610a60565b6103b9610a65565b610488610a6a565b6040516103a89190612718565b61039b6104a3366004612599565b610a86565b61039b6104b6366004612610565b610a98565b6103b9610ab4565b6103b9610ab9565b61039b6104d9366004612599565b610abe565b61039b610ad0565b6103b9610ad6565b6105016104fc3660046126c9565b610adb565b6040516103a8979695949392919061276a565b6103b9610b31565b61039b61052a3660046126e1565b610b36565b6103f4610b5b565b61039b610c3d565b61039b61054d36600461266f565b610c43565b6103b9611082565b61056d6105683660046125d8565b611087565b6040516103a893929190612ad9565b6103b96110b3565b6104886110b8565b61039b6110d4565b6103b96110da565b61039b6110df565b6103b96110e5565b6103b96110ea565b61039b6110ef565b61056d6105ca366004612599565b6110f5565b61039b6105dd366004612599565b611116565b6103f46105f03660046126c9565b611128565b61039b61149d565b61039b61060b366004612610565b6114a3565b6103b96114bf565b61056d610626366004612599565b6114c4565b61039b610639366004612610565b6114e5565b6103b9611501565b61039b610654366004612610565b611506565b61039b610667366004612599565b611522565b61039b61067a3660046126e1565b611534565b61039b61068d366004612610565b611554565b61039b6106a0366004612599565b611570565b61039b6106b3366004612610565b611584565b6103f46106c6366004612610565b6115a0565b61039b611749565b6103f46106e1366004612599565b61174f565b6103f46106f4366004612599565b61189d565b6016602052816000526040600020818154811061071557600080fd5b90600052602060002001600091509150505481565b600381565b600f5481565b60008061074285856118fc565b905060006107dd86601a60008973ffffffffffffffffffffffffffffffffffffffff1673ffffffffffffffffffffffffffffffffffffffff16815260200190815260200160002084815481106107c1577f4e487b7100000000000000000000000000000000000000000000000000000000600052603260045260246000fd5b9060005260206000200154866107d79190612aef565b8461193d565b90506401000000006107ef8583612b1b565b6107f99190612b07565b9695505050505050565b73ffffffffffffffffffffffffffffffffffffffff82166000908152600760209081526040808320338452909152902061083d8382611c88565b61084983823385611d47565b505050565b73ffffffffffffffffffffffffffffffffffffffff821660009081526002602052604090205461087f908290612aef565b73ffffffffffffffffffffffffffffffffffffffff831660009081526004602052604090205410610988576108b2611f04565b73ffffffffffffffffffffffffffffffffffffffff166347e7ef2483836040518363ffffffff1660e01b81526004016108ec9291906127b5565b602060405180830381600087803b15801561090657600080fd5b505af115801561091a573d6000803e3d6000fd5b505050506040513d601f19601f8201168201806040525081019061093e91906126a9565b61097d576040517f08c379a000000000000000000000000000000000000000000000000000000000815260040161097490612a3a565b60405180910390fd5b610988823383611fb1565b5050565b60046020526000908152604090205481565b60056020526000908152604090205481565b600881565b600b6020526000908152604090205481565b6015602052816000526040600020818154811061071557600080fd5b6109ec336120bc565b610a22576040517f08c379a000000000000000000000000000000000000000000000000000000000815260040161097490612a03565b73ffffffffffffffffffffffffffffffffffffffff821660009081526003602052604081208054839290610a57908490612b58565b90915550505050565b606981565b606781565b60005473ffffffffffffffffffffffffffffffffffffffff1681565b600a6020526000908152604090205481565b6012602052816000526040600020818154811061071557600080fd5b600681565b606681565b60096020526000908152604090205481565b60115481565b606581565b601960205260009081526040902080546001820154600283015460038401546004850154600586015460069096015473ffffffffffffffffffffffffffffffffffffffff95861696959094169492939192909187565b600181565b600080610b4584601d42612166565b9050610b528582856121cd565b95945050505050565b610b636121e4565b73ffffffffffffffffffffffffffffffffffffffff16610b816110b8565b73ffffffffffffffffffffffffffffffffffffffff1614610bce576040517f08c379a000000000000000000000000000000000000000000000000000000000815260040161097490612929565b60015460405160009173ffffffffffffffffffffffffffffffffffffffff16907f8be0079c531659141344cd1fd0a4f28419497f9722a3daafe3b4186f6b6457e0908390a3600180547fffffffffffffffffffffffff0000000000000000000000000000000000000000169055565b600d5481565b73ffffffffffffffffffffffffffffffffffffffff8416600090815260026020526040812054610c74908490612aef565b73ffffffffffffffffffffffffffffffffffffffff861660009081526004602052604090205410801590610caa575083600e5410155b8015610cb85750600d548410155b1561107a576000610cc986866118fc565b90506000610d5e87601a60008a73ffffffffffffffffffffffffffffffffffffffff1673ffffffffffffffffffffffffffffffffffffffff1681526020019081526020016000208481548110610d48577f4e487b7100000000000000000000000000000000000000000000000000000000600052603260045260246000fd5b9060005260206000200154876107d79190612aef565b90506000640100000000610d728784612b1b565b610d7c9190612b07565b905084811061107657610d8d611f04565b73ffffffffffffffffffffffffffffffffffffffff1663b3db428b338a896040518463ffffffff1660e01b8152600401610dc993929190612739565b602060405180830381600087803b158015610de357600080fd5b505af1158015610df7573d6000803e3d6000fd5b505050506040513d601f19601f82011682018060405250810190610e1b91906126a9565b156110765760006002610e2e8389612aef565b610e389190612b07565b73ffffffffffffffffffffffffffffffffffffffff8a16600090815260026020526040812080549293508392909190610e72908490612aef565b909155505073ffffffffffffffffffffffffffffffffffffffff89166000908152601a60205260409020805482919086908110610ed8577f4e487b7100000000000000000000000000000000000000000000000000000000600052603260045260246000fd5b906000526020600020016000828254610ef19190612aef565b90915550889050610f028489612b1b565b610f0e90610e10612b1b565b610f189190612b07565b73ffffffffffffffffffffffffffffffffffffffff8a1660009081526005602052604081208054909190610f4d908490612aef565b9091555050601c8054955085906000610f6583612b6f565b90915550506040805160e08101825233815273ffffffffffffffffffffffffffffffffffffffff8b1660208201529081018890526060810183905260808101610fae8a42612aef565b815260208082018b90526040918201869052600088815260198252828120845181547fffffffffffffffffffffffff000000000000000000000000000000000000000090811673ffffffffffffffffffffffffffffffffffffffff92831617835586850151600184018054909216908316179055858501516002830155606086015160038301556080860151600483015560a0860151600583015560c090950151600690910155928c16835260148152818320601590915291206110749190868a6121e8565b505b5050505b949350505050565b606a81565b600760209081526000928352604080842090915290825290208054600182015460029092015490919083565b600981565b60015473ffffffffffffffffffffffffffffffffffffffff1690565b600e5481565b600281565b600c5481565b600581565b606881565b601c5481565b60086020526000908152604090208054600182015460029092015490919083565b60026020526000908152604090205481565b6000818152601960205260409020805473ffffffffffffffffffffffffffffffffffffffff163314611186576040517f08c379a00000000000000000000000000000000000000000000000000000000081526004016109749061295e565b806004015442116111c3576040517f08c379a0000000000000000000000000000000000000000000000000000000008152600401610974906129cc565b6001810154600582015473ffffffffffffffffffffffffffffffffffffffff909116906000906111f49083906118fc565b9050600060028460030154856002015461120e9190612aef565b6112189190612b07565b73ffffffffffffffffffffffffffffffffffffffff8416600090815260026020526040812080549293508392909190611252908490612b58565b909155505073ffffffffffffffffffffffffffffffffffffffff83166000908152601a602052604090208054829190849081106112b8577f4e487b7100000000000000000000000000000000000000000000000000000000600052603260045260246000fd5b9060005260206000200160008282546112d19190612b58565b909155505073ffffffffffffffffffffffffffffffffffffffff831660009081526016602090815260408083206017909252909120600286015461131892919085906121e8565b73ffffffffffffffffffffffffffffffffffffffff8316600090815260026020908152604080832054600390925290912054118061140c5750611359611f04565b845460038601546040517fd9caed1200000000000000000000000000000000000000000000000000000000815273ffffffffffffffffffffffffffffffffffffffff9384169363d9caed12936113b89389939290911691600401612739565b602060405180830381600087803b1580156113d257600080fd5b505af11580156113e6573d6000803e3d6000fd5b505050506040513d601f19601f8201168201806040525081019061140a91906126a9565b155b15611496578354600385015460405173ffffffffffffffffffffffffffffffffffffffff928316928616917fbcab653cf73e12f7bb78aa625dccb002864f5de7de2518796fb5b82fd6e6ab05916114639190612ad0565b60405180910390a38354600385015461149691859173ffffffffffffffffffffffffffffffffffffffff90911690612383565b5050505050565b60105481565b6018602052816000526040600020818154811061071557600080fd5b600481565b601d6020526000908152604090208054600182015460029092015490919083565b601a602052816000526040600020818154811061071557600080fd5b600781565b6017602052816000526040600020818154811061071557600080fd5b60036020526000908152604090205481565b60008061154384601d4261238e565b9050610b52858260000154856121cd565b6014602052816000526040600020818154811061071557600080fd5b600061157e82601d42612166565b92915050565b6013602052816000526040600020818154811061071557600080fd5b6115a9336120bc565b6115df576040517f08c379a000000000000000000000000000000000000000000000000000000000815260040161097490612a03565b6115e7611f04565b73ffffffffffffffffffffffffffffffffffffffff16635acf6903836040518263ffffffff1660e01b815260040161161f9190612718565b60206040518083038186803b15801561163757600080fd5b505afa15801561164b573d6000803e3d6000fd5b505050506040513d601f19601f8201168201806040525081019061166f91906126a9565b6116a5576040517f08c379a000000000000000000000000000000000000000000000000000000000815260040161097490612995565b73ffffffffffffffffffffffffffffffffffffffff8216600090815260036020526040812080548392906116da908490612aef565b909155505073ffffffffffffffffffffffffffffffffffffffff82166000908152600360209081526040808320546002909252909120541015610988576040517f08c379a0000000000000000000000000000000000000000000000000000000008152600401610974906127db565b60065481565b6117576121e4565b73ffffffffffffffffffffffffffffffffffffffff166117756110b8565b73ffffffffffffffffffffffffffffffffffffffff16146117c2576040517f08c379a000000000000000000000000000000000000000000000000000000000815260040161097490612929565b73ffffffffffffffffffffffffffffffffffffffff811661180f576040517f08c379a000000000000000000000000000000000000000000000000000000000815260040161097490612838565b60015460405173ffffffffffffffffffffffffffffffffffffffff8084169216907f8be0079c531659141344cd1fd0a4f28419497f9722a3daafe3b4186f6b6457e090600090a3600180547fffffffffffffffffffffffff00000000000000000000000000000000000000001673ffffffffffffffffffffffffffffffffffffffff92909216919091179055565b73ffffffffffffffffffffffffffffffffffffffff8116600090815260076020908152604080832033845290915290206118d78282611c88565b6118e78282338460000154611d47565b60008082556001820181905560029091015550565b73ffffffffffffffffffffffffffffffffffffffff82166000908152601b602052604081208054600f54839161193191612b07565b9050610b528185612b07565b73ffffffffffffffffffffffffffffffffffffffff83166000908152601b6020526040812080548390811061199b577f4e487b7100000000000000000000000000000000000000000000000000000000600052603260045260246000fd5b906000526020600020015490506000601860008673ffffffffffffffffffffffffffffffffffffffff1673ffffffffffffffffffffffffffffffffffffffff1681526020019081526020016000208381548110611a21577f4e487b7100000000000000000000000000000000000000000000000000000000600052603260045260246000fd5b906000526020600020015490506000601054601360008873ffffffffffffffffffffffffffffffffffffffff1673ffffffffffffffffffffffffffffffffffffffff1681526020019081526020016000208581548110611aaa577f4e487b7100000000000000000000000000000000000000000000000000000000600052603260045260246000fd5b600091825260208083209091015473ffffffffffffffffffffffffffffffffffffffff8a1683526004909152604090912054611ae69190612b1b565b611af09190612b07565b73ffffffffffffffffffffffffffffffffffffffff871660009081526014602052604081208054929350909186908110611b53577f4e487b7100000000000000000000000000000000000000000000000000000000600052603260045260246000fd5b906000526020600020015490506000601660008973ffffffffffffffffffffffffffffffffffffffff1673ffffffffffffffffffffffffffffffffffffffff1681526020019081526020016000208681548110611bd9577f4e487b7100000000000000000000000000000000000000000000000000000000600052603260045260246000fd5b906000526020600020015490506000601260008a73ffffffffffffffffffffffffffffffffffffffff1673ffffffffffffffffffffffffffffffffffffffff1681526020019081526020016000208781548110611c5f577f4e487b7100000000000000000000000000000000000000000000000000000000600052603260045260246000fd5b90600052602060002001549050611c7b86868a87878787612424565b9998505050505050505050565b60018101548015610849576000611ca18460084261238e565b8354815491925090611cb5908290856121cd565b808555600090611cc6908390612b58565b73ffffffffffffffffffffffffffffffffffffffff8716600090815260096020526040812080549293508392909190611d00908490612aef565b909155505073ffffffffffffffffffffffffffffffffffffffff861660009081526002602052604081208054839290611d3a908490612aef565b9091555050505050505050565b6000610e10846002015442611d5c9190612b58565b611d669190612ba8565b9050806102581015611da4576040517f08c379a0000000000000000000000000000000000000000000000000000000008152600401610974906128cc565b611dac611f04565b73ffffffffffffffffffffffffffffffffffffffff1663d9caed128685856040518463ffffffff1660e01b8152600401611de893929190612739565b602060405180830381600087803b158015611e0257600080fd5b505af1158015611e16573d6000803e3d6000fd5b505050506040513d601f19601f82011682018060405250810190611e3a91906126a9565b611e70576040517f08c379a000000000000000000000000000000000000000000000000000000000815260040161097490612895565b81846000016000828254611e849190612b58565b909155505073ffffffffffffffffffffffffffffffffffffffff851660009081526009602052604081208054849290611ebe908490612b58565b909155505073ffffffffffffffffffffffffffffffffffffffff851660009081526002602052604081208054849290611ef8908490612b58565b90915550505050505050565b600080546040517f3c9c8f9c00000000000000000000000000000000000000000000000000000000815273ffffffffffffffffffffffffffffffffffffffff90911690633c9c8f9c90611f5c90606590600401612a97565b60206040518083038186803b158015611f7457600080fd5b505afa158015611f88573d6000803e3d6000fd5b505050506040513d601f19601f82011682018060405250810190611fac91906125bc565b905090565b73ffffffffffffffffffffffffffffffffffffffff8084166000908152600760209081526040808320938616835292905220611fed8482611c88565b73ffffffffffffffffffffffffffffffffffffffff84166000908152600860205260409020546001820155612024610e1042612ba8565b600282015580548290829060009061203d908490612aef565b909155505073ffffffffffffffffffffffffffffffffffffffff841660009081526009602052604081208054849290612077908490612aef565b909155505073ffffffffffffffffffffffffffffffffffffffff8416600090815260026020526040812080548492906120b1908490612aef565b909155505050505050565b600080546040517fd87fefd200000000000000000000000000000000000000000000000000000000815273ffffffffffffffffffffffffffffffffffffffff9091169063d87fefd290612116906003908690600401612aa6565b60206040518083038186803b15801561212e57600080fd5b505afa158015612142573d6000803e3d6000fd5b505050506040513d601f19601f8201168201806040525081019061157e91906126a9565b73ffffffffffffffffffffffffffffffffffffffff8316600090815260208390526040812060010154819061219b9084612b58565b73ffffffffffffffffffffffffffffffffffffffff86166000908152602086905260409020909150610b5290826124f0565b6000816121da8486612b1b565b61107a9190612b07565b3390565b8354600f546000916121f991612b07565b905060006122078483612b1b565b90506000858581548110612244577f4e487b7100000000000000000000000000000000000000000000000000000000600052603260045260246000fd5b90600052602060002001544261225a9190612b58565b90506000816122698487612b1b565b6122739190612b07565b905061227f8284612aef565b6122898383612b1b565b848a89815481106122c3577f4e487b7100000000000000000000000000000000000000000000000000000000600052603260045260246000fd5b90600052602060002001546122d89190612b1b565b6122e29190612aef565b6122ec9190612b07565b888781548110612325577f4e487b7100000000000000000000000000000000000000000000000000000000600052603260045260246000fd5b90600052602060002001819055504287878154811061236d577f4e487b7100000000000000000000000000000000000000000000000000000000600052603260045260246000fd5b6000918252602090912001555050505050505050565b610849838383611fb1565b73ffffffffffffffffffffffffffffffffffffffff83166000908152602083815260408083206002808201546001830154918552838620546004865284872054600a875285882054600b9097529490962054600c5493966123f796929593949093929190612424565b6002820155600181015460009061240e9084612b58565b905061241a82826124f0565b8255509392505050565b8660006124318842612b58565b90506000600654826124439190612b1b565b90508688101580612471575084861015801561247157506124648888612b58565b61246e8688612b58565b10155b1561249d576124808184612b58565b92508264010000000011156124985764010000000092505b6124e3565b87871180156124c65750858511806124c657506124ba8587612b58565b6124c48989612b58565b115b156124e3576124d58184612aef565b9250838311156124e3578392505b5050979650505050505050565b6000806124ff610e1084612ba8565b9050612512640100000000610e10612b1b565b60028501548554839161252491612b1b565b61252e9190612b1b565b6125389190612b07565b91506000612548610e1085612b07565b905080156125915760005b8082111561258f576401000000008660020154856125719190612b1b565b61257b9190612b07565b93508061258781612b6f565b915050612553565b505b505092915050565b6000602082840312156125aa578081fd5b81356125b581612c1a565b9392505050565b6000602082840312156125cd578081fd5b81516125b581612c1a565b600080604083850312156125ea578081fd5b82356125f581612c1a565b9150602083013561260581612c1a565b809150509250929050565b60008060408385031215612622578182fd5b823561262d81612c1a565b946020939093013593505050565b60008060006060848603121561264f578081fd5b833561265a81612c1a565b95602085013595506040909401359392505050565b60008060008060808587031215612684578081fd5b843561268f81612c1a565b966020860135965060408601359560600135945092505050565b6000602082840312156126ba578081fd5b815180151581146125b5578182fd5b6000602082840312156126da578081fd5b5035919050565b6000806000606084860312156126f5578283fd5b83359250602084013561270781612c1a565b929592945050506040919091013590565b73ffffffffffffffffffffffffffffffffffffffff91909116815260200190565b73ffffffffffffffffffffffffffffffffffffffff9384168152919092166020820152604081019190915260600190565b73ffffffffffffffffffffffffffffffffffffffff978816815295909616602086015260408501939093526060840191909152608083015260a082015260c081019190915260e00190565b73ffffffffffffffffffffffffffffffffffffffff929092168252602082015260400190565b6020808252602e908201527f496e73756666696369656e74206361706974616c20746f206c656e642c20747260408201527f7920616761696e206c6174657221000000000000000000000000000000000000606082015260800190565b60208082526026908201527f4f776e61626c653a206e6577206f776e657220697320746865207a65726f206160408201527f6464726573730000000000000000000000000000000000000000000000000000606082015260800190565b60208082526016908201527f496e73756666696369656e74206c697175696469747900000000000000000000604082015260600190565b6020808252603f908201527f5472696564207769746864726177696e67206f7574736964652073756273637260408201527f697074696f6e2063616e63656c6c6174696f6e2074696d652077696e646f7700606082015260800190565b6020808252818101527f4f776e61626c653a2063616c6c6572206973206e6f7420746865206f776e6572604082015260600190565b60208082526012908201527f4e6f7420686f6c646572206f6620626f6e640000000000000000000000000000604082015260600190565b60208082526015908201527f4e6f7420616e20617070726f76656420746f6b656e0000000000000000000000604082015260600190565b60208082526016908201527f626f6e64206973207374696c6c20696d6d617475726500000000000000000000604082015260600190565b60208082526018908201527f4e6f7420616e20617070726f76656420626f72726f7765720000000000000000604082015260600190565b6020808252602d908201527f436f756c64206e6f74207472616e7366657220626f6e64206465706f7369742060408201527f746f6b656e20746f2066756e6400000000000000000000000000000000000000606082015260800190565b61ffff91909116815260200190565b61ffff92909216825273ffffffffffffffffffffffffffffffffffffffff16602082015260400190565b90815260200190565b9283526020830191909152604082015260600190565b60008219821115612b0257612b02612bbc565b500190565b600082612b1657612b16612beb565b500490565b6000817fffffffffffffffffffffffffffffffffffffffffffffffffffffffffffffffff0483118215151615612b5357612b53612bbc565b500290565b600082821015612b6a57612b6a612bbc565b500390565b60007fffffffffffffffffffffffffffffffffffffffffffffffffffffffffffffffff821415612ba157612ba1612bbc565b5060010190565b600082612bb757612bb7612beb565b500690565b7f4e487b7100000000000000000000000000000000000000000000000000000000600052601160045260246000fd5b7f4e487b7100000000000000000000000000000000000000000000000000000000600052601260045260246000fd5b73ffffffffffffffffffffffffffffffffffffffff81168114612c3c57600080fd5b5056fea2646970667358221220e4f4c6f24983db71b3f4dfae08fc709be959446c26535047492c6b34f7c7d54e64736f6c6343000801003360806040523480156200001157600080fd5b5060405162003833380380620038338339810160408190526200003491620000e9565b600080546001600160a01b03199081166001600160a01b03938416178255600160208190527fa6eef7e35abe7026729641147f7915573c7e97b47efa546f5f6e3230263bcb4980548316978516979097179096559490527fcc69885fda6bcc1a4ace058b4a62bf5e179ea78fd58a1ccd71c22cc9b688792f805485169382169390931790925560028054909316911617905562000145565b80516001600160a01b0381168114620000e457600080fd5b919050565b60008060008060808587031215620000ff578384fd5b6200010a85620000cc565b93506200011a60208601620000cc565b92506200012a60408601620000cc565b91506200013a60608601620000cc565b905092959194509250565b6136de80620001556000396000f3fe6080604052600436106101b75760003560e01c806366941984116100ec578063a94c7c341161008a578063d5d7ed7f11610064578063d5d7ed7f14610431578063e3e0626b14610446578063eaa095f814610466578063eedb97c714610486576101b7565b8063a94c7c34146103f2578063a9cc053614610407578063cacf8d451461041c576101b7565b806390b931ed116100c657806390b931ed1461039557806394427b20146103b5578063a0098d69146103bd578063a5f9a362146103d2576101b7565b8063669419841461035657806381ca66001461036b57806383a49c7c14610380576101b7565b80632fe94def1161015957806346b887961161013357806346b88796146102f757806348eb4f3e1461030c57806348fb27b81461032c5780635c275a3914610341576101b7565b80632fe94def146102ab57806332fe7b26146102c0578063392f5f64146102d5576101b7565b80631bc5d81d116101955780631bc5d81d146102365780631dce3baa1461024b5780631f2a67431461026b5780632233c4361461028b576101b7565b8063065d570f146101bc5780630aa29f1c146101e75780631306d90214610214575b600080fd5b3480156101c857600080fd5b506101d16104a6565b6040516101de919061346e565b60405180910390f35b3480156101f357600080fd5b50610207610202366004612ce6565b6104ab565b6040516101de9190612f8b565b34801561022057600080fd5b5061023461022f366004612c43565b6105a9565b005b34801561024257600080fd5b506101d161083e565b34801561025757600080fd5b50610234610266366004612e08565b610843565b34801561027757600080fd5b50610207610286366004612ce6565b610989565b34801561029757600080fd5b506102076102a6366004612d4c565b610a72565b3480156102b757600080fd5b506101d1610e95565b3480156102cc57600080fd5b506101d1610e9a565b3480156102e157600080fd5b506102ea610e9f565b6040516101de9190612fcf565b34801561030357600080fd5b506101d1610ebb565b34801561031857600080fd5b50610234610327366004612c43565b610ec0565b34801561033857600080fd5b506101d1610fe7565b34801561034d57600080fd5b506101d1610fec565b34801561036257600080fd5b506101d1610ff1565b34801561037757600080fd5b506101d1610ff6565b34801561038c57600080fd5b506101d1610ffb565b3480156103a157600080fd5b506102076103b0366004612c8e565b611000565b6102346110f2565b3480156103c957600080fd5b506101d161134d565b3480156103de57600080fd5b506102076103ed366004612d4c565b611352565b3480156103fe57600080fd5b506101d16116a2565b34801561041357600080fd5b506101d16116a7565b34801561042857600080fd5b506101d16116ac565b34801561043d57600080fd5b506101d16116b1565b34801561045257600080fd5b50610234610461366004612c43565b6116b6565b34801561047257600080fd5b50610207610481366004612c8e565b611835565b34801561049257600080fd5b506102346104a1366004612c43565b61191d565b600381565b60606104b633611a0e565b6104f5576040517f08c379a00000000000000000000000000000000000000000000000000000000081526004016104ec9061304d565b60405180910390fd5b61059d60016000886003811115610535577f4e487b7100000000000000000000000000000000000000000000000000000000600052602160045260246000fd5b600381111561056d577f4e487b7100000000000000000000000000000000000000000000000000000000600052602160045260246000fd5b815260208101919091526040016000205473ffffffffffffffffffffffffffffffffffffffff1686868686611ac0565b90505b95945050505050565b3332146105e2576040517f08c379a00000000000000000000000000000000000000000000000000000000081526004016104ec90612ff0565b6105ea611dd1565b73ffffffffffffffffffffffffffffffffffffffff1663b3db428b3384846040518463ffffffff1660e01b815260040161062693929190612f34565b602060405180830381600087803b15801561064057600080fd5b505af1158015610654573d6000803e3d6000fd5b505050506040513d601f19601f820116820180604052508101906106789190612c6e565b6106ae576040517f08c379a00000000000000000000000000000000000000000000000000000000081526004016104ec9061328c565b60006106b8611e7e565b73ffffffffffffffffffffffffffffffffffffffff166352a664d93385856040518463ffffffff1660e01b81526004016106f493929190612f34565b602060405180830381600087803b15801561070e57600080fd5b505af1158015610722573d6000803e3d6000fd5b505050506040513d601f19601f820116820180604052508101906107469190612e20565b9050801561083957610756611e7e565b73ffffffffffffffffffffffffffffffffffffffff1663b25777ad3385846040518463ffffffff1660e01b815260040161079293929190612f34565b600060405180830381600087803b1580156107ac57600080fd5b505af11580156107c0573d6000803e3d6000fd5b505050506107cc611ed6565b73ffffffffffffffffffffffffffffffffffffffff16632a6a897b84836040518363ffffffff1660e01b8152600401610806929190612f65565b600060405180830381600087803b15801561082057600080fd5b505af1158015610834573d6000803e3d6000fd5b505050505b505050565b600881565b33321461087c576040517f08c379a00000000000000000000000000000000000000000000000000000000081526004016104ec90612ff0565b610884611e7e565b6002546040517fd0eb665300000000000000000000000000000000000000000000000000000000815273ffffffffffffffffffffffffffffffffffffffff9283169263d0eb6653926108e0923392909116908690600401612f34565b600060405180830381600087803b1580156108fa57600080fd5b505af115801561090e573d6000803e3d6000fd5b5050505061091a611dd1565b73ffffffffffffffffffffffffffffffffffffffff16634782f77933836040518363ffffffff1660e01b8152600401610954929190612f65565b600060405180830381600087803b15801561096e57600080fd5b505af1158015610982573d6000803e3d6000fd5b5050505050565b606061099433611a0e565b6109ca576040517f08c379a00000000000000000000000000000000000000000000000000000000081526004016104ec9061304d565b61059d60016000886003811115610a0a577f4e487b7100000000000000000000000000000000000000000000000000000000600052602160045260246000fd5b6003811115610a42577f4e487b7100000000000000000000000000000000000000000000000000000000600052602160045260246000fd5b815260208101919091526040016000205473ffffffffffffffffffffffffffffffffffffffff1686868686611f2e565b6060333214610aad576040517f08c379a00000000000000000000000000000000000000000000000000000000081526004016104ec90612ff0565b8142811015610ae8576040517f08c379a00000000000000000000000000000000000000000000000000000000081526004016104ec906130aa565b6000610af2611feb565b73ffffffffffffffffffffffffffffffffffffffff166367cbf42d8787610b1a6001826135d2565b818110610b50577f4e487b7100000000000000000000000000000000000000000000000000000000600052603260045260246000fd5b9050602002016020810190610b659190612c04565b8a6040518363ffffffff1660e01b8152600401610b83929190612f65565b602060405180830381600087803b158015610b9d57600080fd5b505af1158015610bb1573d6000803e3d6000fd5b505050506040513d601f19601f82011682018060405250810190610bd59190612e20565b9050610c88600160008b6003811115610c17577f4e487b7100000000000000000000000000000000000000000000000000000000600052602160045260246000fd5b6003811115610c4f577f4e487b7100000000000000000000000000000000000000000000000000000000600052602160045260246000fd5b815260208101919091526040016000205473ffffffffffffffffffffffffffffffffffffffff16610c80838b613544565b898989611f2e565b925060008686610c996001826135d2565b818110610ccf577f4e487b7100000000000000000000000000000000000000000000000000000000600052603260045260246000fd5b9050602002016020810190610ce49190612c04565b90506000610cf0611e7e565b73ffffffffffffffffffffffffffffffffffffffff16633500aa0b338a8a6000818110610d46577f4e487b7100000000000000000000000000000000000000000000000000000000600052603260045260246000fd5b9050602002016020810190610d5b9190612c04565b8589600081518110610d96577f4e487b7100000000000000000000000000000000000000000000000000000000600052603260045260246000fd5b60200260200101518f6040518663ffffffff1660e01b8152600401610dbf959493929190612ef3565b602060405180830381600087803b158015610dd957600080fd5b505af1158015610ded573d6000803e3d6000fd5b505050506040513d601f19601f82011682018060405250810190610e119190612e20565b9050610e1b611ed6565b73ffffffffffffffffffffffffffffffffffffffff1663ee0862bf83836040518363ffffffff1660e01b8152600401610e55929190612f65565b600060405180830381600087803b158015610e6f57600080fd5b505af1158015610e83573d6000803e3d6000fd5b50505050505050509695505050505050565b606981565b606781565b60005473ffffffffffffffffffffffffffffffffffffffff1681565b600681565b333214610ef9576040517f08c379a00000000000000000000000000000000000000000000000000000000081526004016104ec90612ff0565b610f01611e7e565b73ffffffffffffffffffffffffffffffffffffffff1663b25777ad3384846040518463ffffffff1660e01b8152600401610f3d93929190612f34565b600060405180830381600087803b158015610f5757600080fd5b505af1158015610f6b573d6000803e3d6000fd5b50505050610f77611ed6565b73ffffffffffffffffffffffffffffffffffffffff16632a6a897b83836040518363ffffffff1660e01b8152600401610fb1929190612f65565b600060405180830381600087803b158015610fcb57600080fd5b505af1158015610fdf573d6000803e3d6000fd5b505050505050565b606681565b606581565b600181565b606a81565b600981565b6060600060016000876003811115611041577f4e487b7100000000000000000000000000000000000000000000000000000000600052602160045260246000fd5b6003811115611079577f4e487b7100000000000000000000000000000000000000000000000000000000600052602160045260246000fd5b815260200190815260200160002060009054906101000a900473ffffffffffffffffffffffffffffffffffffffff1690506110e8818686868080602002602001604051908101604052809392919081815260200183836020028082843760009201919091525061204392505050565b9695505050505050565b33321461112b576040517f08c379a00000000000000000000000000000000000000000000000000000000081526004016104ec90612ff0565b611133611dd1565b73ffffffffffffffffffffffffffffffffffffffff1663a6a5f9fe346040518263ffffffff1660e01b81526004016000604051808303818588803b15801561117a57600080fd5b505af115801561118e573d6000803e3d6000fd5b5050505050600061119d611e7e565b6002546040517f52a664d900000000000000000000000000000000000000000000000000000000815273ffffffffffffffffffffffffffffffffffffffff928316926352a664d9926111f9923392909116903490600401612f34565b602060405180830381600087803b15801561121357600080fd5b505af1158015611227573d6000803e3d6000fd5b505050506040513d601f19601f8201168201806040525081019061124b9190612e20565b9050801561134a5761125b611e7e565b6002546040517fb25777ad00000000000000000000000000000000000000000000000000000000815273ffffffffffffffffffffffffffffffffffffffff9283169263b25777ad926112b7923392909116908690600401612f34565b600060405180830381600087803b1580156112d157600080fd5b505af11580156112e5573d6000803e3d6000fd5b505050506112f1611ed6565b6002546040517f2a6a897b00000000000000000000000000000000000000000000000000000000815273ffffffffffffffffffffffffffffffffffffffff92831692632a6a897b92610954929116908590600401612f65565b50565b600281565b606033321461138d576040517f08c379a00000000000000000000000000000000000000000000000000000000081526004016104ec90612ff0565b81428110156113c8576040517f08c379a00000000000000000000000000000000000000000000000000000000081526004016104ec906130aa565b60006113d2611feb565b73ffffffffffffffffffffffffffffffffffffffff16633f0e9edf87876000818110611427577f4e487b7100000000000000000000000000000000000000000000000000000000600052603260045260246000fd5b905060200201602081019061143c9190612c04565b8a6040518363ffffffff1660e01b815260040161145a929190612f65565b602060405180830381600087803b15801561147457600080fd5b505af1158015611488573d6000803e3d6000fd5b505050506040513d601f19601f820116820180604052508101906114ac9190612e20565b905061155f600160008b60038111156114ee577f4e487b7100000000000000000000000000000000000000000000000000000000600052602160045260246000fd5b6003811115611526577f4e487b7100000000000000000000000000000000000000000000000000000000600052602160045260246000fd5b815260208101919091526040016000205473ffffffffffffffffffffffffffffffffffffffff16611557838b6135d2565b898989611ac0565b9250600086866115706001826135d2565b8181106115a6577f4e487b7100000000000000000000000000000000000000000000000000000000600052603260045260246000fd5b90506020020160208101906115bb9190612c04565b905060006115c7611e7e565b73ffffffffffffffffffffffffffffffffffffffff16633500aa0b338a8a600081811061161d577f4e487b7100000000000000000000000000000000000000000000000000000000600052603260045260246000fd5b90506020020160208101906116329190612c04565b858e8a60018c5161164391906135d2565b8151811061167a577f4e487b7100000000000000000000000000000000000000000000000000000000600052603260045260246000fd5b60200260200101516040518663ffffffff1660e01b8152600401610dbf959493929190612ef3565b600581565b606881565b600481565b600781565b3332146116ef576040517f08c379a00000000000000000000000000000000000000000000000000000000081526004016104ec90612ff0565b6116f7611e7e565b73ffffffffffffffffffffffffffffffffffffffff1663d0eb66533384846040518463ffffffff1660e01b815260040161173393929190612f34565b600060405180830381600087803b15801561174d57600080fd5b505af1158015611761573d6000803e3d6000fd5b5050505061176d611dd1565b73ffffffffffffffffffffffffffffffffffffffff1663d9caed128333846040518463ffffffff1660e01b81526004016117a993929190612f34565b602060405180830381600087803b1580156117c357600080fd5b505af11580156117d7573d6000803e3d6000fd5b505050506040513d601f19601f820116820180604052508101906117fb9190612c6e565b611831576040517f08c379a00000000000000000000000000000000000000000000000000000000081526004016104ec906132e9565b5050565b6060600060016000876003811115611876577f4e487b7100000000000000000000000000000000000000000000000000000000600052602160045260246000fd5b60038111156118ae577f4e487b7100000000000000000000000000000000000000000000000000000000600052602160045260246000fd5b815260200190815260200160002060009054906101000a900473ffffffffffffffffffffffffffffffffffffffff1690506110e881868686808060200260200160405190810160405280939291908181526020018383602002808284376000920191909152506122ad92505050565b333214611956576040517f08c379a00000000000000000000000000000000000000000000000000000000081526004016104ec90612ff0565b61195e611ed6565b73ffffffffffffffffffffffffffffffffffffffff1663ee0862bf83836040518363ffffffff1660e01b8152600401611998929190612f65565b600060405180830381600087803b1580156119b257600080fd5b505af11580156119c6573d6000803e3d6000fd5b505050506119d2611e7e565b73ffffffffffffffffffffffffffffffffffffffff1663498d55eb3384846040518463ffffffff1660e01b8152600401610fb193929190612f34565b600080546040517fd87fefd200000000000000000000000000000000000000000000000000000000815273ffffffffffffffffffffffffffffffffffffffff9091169063d87fefd290611a6890600790869060040161347d565b60206040518083038186803b158015611a8057600080fd5b505afa158015611a94573d6000803e3d6000fd5b505050506040513d601f19601f82011682018060405250810190611ab89190612c6e565b90505b919050565b6060611b0086868585808060200260200160405190810160405280939291908181526020018383602002808284376000920191909152506122ad92505050565b9050838160018351611b1291906135d2565b81518110611b49577f4e487b7100000000000000000000000000000000000000000000000000000000600052603260045260246000fd5b60200260200101511015611b89576040517f08c379a00000000000000000000000000000000000000000000000000000000081526004016104ec90613411565b611b91611dd1565b73ffffffffffffffffffffffffffffffffffffffff1663d9caed1284846000818110611be6577f4e487b7100000000000000000000000000000000000000000000000000000000600052603260045260246000fd5b9050602002016020810190611bfb9190612c04565b611ca28987876000818110611c39577f4e487b7100000000000000000000000000000000000000000000000000000000600052603260045260246000fd5b9050602002016020810190611c4e9190612c04565b88886001818110611c88577f4e487b7100000000000000000000000000000000000000000000000000000000600052603260045260246000fd5b9050602002016020810190611c9d9190612c04565b6124f7565b84600081518110611cdc577f4e487b7100000000000000000000000000000000000000000000000000000000600052603260045260246000fd5b60200260200101516040518463ffffffff1660e01b8152600401611d0293929190612f34565b602060405180830381600087803b158015611d1c57600080fd5b505af1158015611d30573d6000803e3d6000fd5b505050506040513d601f19601f82011682018060405250810190611d549190612c6e565b611d8a576040517f08c379a00000000000000000000000000000000000000000000000000000000081526004016104ec9061319b565b6105a08682858580806020026020016040519081016040528093929190818152602001838360200280828437600092019190915250611dcc9250611dd1915050565b612569565b600080546040517f3c9c8f9c00000000000000000000000000000000000000000000000000000000815273ffffffffffffffffffffffffffffffffffffffff90911690633c9c8f9c90611e299060659060040161346e565b60206040518083038186803b158015611e4157600080fd5b505afa158015611e55573d6000803e3d6000fd5b505050506040513d601f19601f82011682018060405250810190611e799190612c27565b905090565b600080546040517f3c9c8f9c00000000000000000000000000000000000000000000000000000000815273ffffffffffffffffffffffffffffffffffffffff90911690633c9c8f9c90611e299060689060040161346e565b600080546040517f3c9c8f9c00000000000000000000000000000000000000000000000000000000815273ffffffffffffffffffffffffffffffffffffffff90911690633c9c8f9c90611e299060669060040161346e565b6060611f6e868685858080602002602001604051908101604052809392919081815260200183836020028082843760009201919091525061204392505050565b90508381600081518110611fab577f4e487b7100000000000000000000000000000000000000000000000000000000600052603260045260246000fd5b60200260200101511115611b89576040517f08c379a00000000000000000000000000000000000000000000000000000000081526004016104ec90613320565b600080546040517f3c9c8f9c00000000000000000000000000000000000000000000000000000000815273ffffffffffffffffffffffffffffffffffffffff90911690633c9c8f9c90611e299060699060040161346e565b6060600282511015612081576040517f08c379a00000000000000000000000000000000000000000000000000000000081526004016104ec906131f8565b815167ffffffffffffffff8111156120c2577f4e487b7100000000000000000000000000000000000000000000000000000000600052604160045260246000fd5b6040519080825280602002602001820160405280156120eb578160200160208202803683370190505b5090508281600183516120fe91906135d2565b81518110612135577f4e487b7100000000000000000000000000000000000000000000000000000000600052603260045260246000fd5b60200260200101818152505060006001835161215191906135d2565b90505b80156122a5576000806121f2878661216d6001876135d2565b815181106121a4577f4e487b7100000000000000000000000000000000000000000000000000000000600052603260045260246000fd5b60200260200101518786815181106121e5577f4e487b7100000000000000000000000000000000000000000000000000000000600052603260045260246000fd5b60200260200101516127ee565b91509150612241848481518110612232577f4e487b7100000000000000000000000000000000000000000000000000000000600052603260045260246000fd5b602002602001015183836128fc565b8461224d6001866135d2565b81518110612284577f4e487b7100000000000000000000000000000000000000000000000000000000600052603260045260246000fd5b6020026020010181815250505050808061229d906135e9565b915050612154565b509392505050565b60606002825110156122eb576040517f08c379a00000000000000000000000000000000000000000000000000000000081526004016104ec906131f8565b815167ffffffffffffffff81111561232c577f4e487b7100000000000000000000000000000000000000000000000000000000600052604160045260246000fd5b604051908082528060200260200182016040528015612355578160200160208202803683370190505b5090508281600081518110612393577f4e487b7100000000000000000000000000000000000000000000000000000000600052603260045260246000fd5b60200260200101818152505060005b600183516123b091906135d2565b8110156122a557600080612444878685815181106123f7577f4e487b7100000000000000000000000000000000000000000000000000000000600052603260045260246000fd5b60200260200101518786600161240d9190613544565b815181106121e5577f4e487b7100000000000000000000000000000000000000000000000000000000600052603260045260246000fd5b91509150612493848481518110612484577f4e487b7100000000000000000000000000000000000000000000000000000000600052603260045260246000fd5b602002602001015183836129c7565b8461249f856001613544565b815181106124d6577f4e487b7100000000000000000000000000000000000000000000000000000000600052603260045260246000fd5b602002602001018181525050505080806124ef9061361e565b9150506123a2565b60008060006125068585612a96565b9150915085828260405160200161251e929190612e38565b60405160208183030381529060405280519060200120604051602001612545929190612e72565b6040516020818303038152906040528051906020012060601c925050509392505050565b60005b6001835161257a91906135d2565b811015610982576000808483815181106125bd577f4e487b7100000000000000000000000000000000000000000000000000000000600052603260045260246000fd5b6020026020010151858460016125d39190613544565b8151811061260a577f4e487b7100000000000000000000000000000000000000000000000000000000600052603260045260246000fd5b60200260200101519150915060006126228383612a96565b509050600087612633866001613544565b8151811061266a577f4e487b7100000000000000000000000000000000000000000000000000000000600052603260045260246000fd5b602002602001015190506000808373ffffffffffffffffffffffffffffffffffffffff168673ffffffffffffffffffffffffffffffffffffffff16146126b2578260006126b6565b6000835b91509150600060028a516126ca91906135d2565b88106126d6578861272b565b61272b8c878c6126e78c6002613544565b8151811061271e577f4e487b7100000000000000000000000000000000000000000000000000000000600052603260045260246000fd5b60200260200101516124f7565b90506127388c88886124f7565b73ffffffffffffffffffffffffffffffffffffffff1663022c0d9f84848460006040519080825280601f01601f191660200182016040528015612782576020820181803683370190505b506040518563ffffffff1660e01b81526004016127a294939291906134a7565b600060405180830381600087803b1580156127bc57600080fd5b505af11580156127d0573d6000803e3d6000fd5b505050505050505050505080806127e69061361e565b91505061256c565b60008060006127fd8585612a96565b50905060008061280e8888886124f7565b73ffffffffffffffffffffffffffffffffffffffff16630902f1ac6040518163ffffffff1660e01b815260040160606040518083038186803b15801561285357600080fd5b505afa158015612867573d6000803e3d6000fd5b505050506040513d601f19601f8201168201806040525081019061288b9190612dba565b506dffffffffffffffffffffffffffff1691506dffffffffffffffffffffffffffff1691508273ffffffffffffffffffffffffffffffffffffffff168773ffffffffffffffffffffffffffffffffffffffff16146128ea5780826128ed565b81815b90999098509650505050505050565b6000808411612937576040517f08c379a00000000000000000000000000000000000000000000000000000000081526004016104ec906130e1565b6000831180156129475750600082115b61297d576040517f08c379a00000000000000000000000000000000000000000000000000000000081526004016104ec9061322f565b60006129898585613595565b612995906103e8613595565b905060006103e56129a687866135d2565b6129b091906135d2565b90506129bc818361355c565b6110e8906001613544565b6000808411612a02576040517f08c379a00000000000000000000000000000000000000000000000000000000081526004016104ec906133b4565b600083118015612a125750600082115b612a48576040517f08c379a00000000000000000000000000000000000000000000000000000000081526004016104ec9061322f565b6000612a56856103e5613595565b90506000612a648483613595565b9050600082612a75876103e8613595565b612a7f9190613544565b9050612a8b818361355c565b979650505050505050565b6000808273ffffffffffffffffffffffffffffffffffffffff168473ffffffffffffffffffffffffffffffffffffffff161415612aff576040517f08c379a00000000000000000000000000000000000000000000000000000000081526004016104ec9061313e565b8273ffffffffffffffffffffffffffffffffffffffff168473ffffffffffffffffffffffffffffffffffffffff1610612b39578284612b3c565b83835b909250905073ffffffffffffffffffffffffffffffffffffffff8216612b8e576040517f08c379a00000000000000000000000000000000000000000000000000000000081526004016104ec9061337d565b9250929050565b60008083601f840112612ba6578182fd5b50813567ffffffffffffffff811115612bbd578182fd5b6020830191508360208083028501011115612b8e57600080fd5b803560048110611abb57600080fd5b80516dffffffffffffffffffffffffffff81168114611abb57600080fd5b600060208284031215612c15578081fd5b8135612c2081613686565b9392505050565b600060208284031215612c38578081fd5b8151612c2081613686565b60008060408385031215612c55578081fd5b8235612c6081613686565b946020939093013593505050565b600060208284031215612c7f578081fd5b81518015158114612c20578182fd5b60008060008060608587031215612ca3578182fd5b612cac85612bd7565b935060208501359250604085013567ffffffffffffffff811115612cce578283fd5b612cda87828801612b95565b95989497509550505050565b600080600080600060808688031215612cfd578081fd5b612d0686612bd7565b94506020860135935060408601359250606086013567ffffffffffffffff811115612d2f578182fd5b612d3b88828901612b95565b969995985093965092949392505050565b60008060008060008060a08789031215612d64578081fd5b612d6d87612bd7565b95506020870135945060408701359350606087013567ffffffffffffffff811115612d96578182fd5b612da289828a01612b95565b979a9699509497949695608090950135949350505050565b600080600060608486031215612dce578283fd5b612dd784612be6565b9250612de560208501612be6565b9150604084015163ffffffff81168114612dfd578182fd5b809150509250925092565b600060208284031215612e19578081fd5b5035919050565b600060208284031215612e31578081fd5b5051919050565b7fffffffffffffffffffffffffffffffffffffffff000000000000000000000000606093841b811682529190921b16601482015260280190565b7fff00000000000000000000000000000000000000000000000000000000000000815260609290921b7fffffffffffffffffffffffffffffffffffffffff00000000000000000000000016600183015260158201527f96e8ac4277198ff8b6f785478aa9a39f403cb768dd02cbee326c3e7da348845f603582015260550190565b73ffffffffffffffffffffffffffffffffffffffff958616815293851660208501529190931660408301526060820192909252608081019190915260a00190565b73ffffffffffffffffffffffffffffffffffffffff9384168152919092166020820152604081019190915260600190565b73ffffffffffffffffffffffffffffffffffffffff929092168252602082015260400190565b6020808252825182820181905260009190848201906040850190845b81811015612fc357835183529284019291840191600101612fa7565b50909695505050505050565b73ffffffffffffffffffffffffffffffffffffffff91909116815260200190565b6020808252603a908201527f43757272656e746c79206e6f20696e7465726d656469617269657320616c6c6f60408201527f77656420666f7220746869732066756e6374696f6e2063616c6c000000000000606082015260800190565b6020808252603e908201527f43616c6c696e6720636f6e7472616374206973206e6f7420617574686f72697a60408201527f656420746f20747261646520776974682070726f746f636c2066756e64730000606082015260800190565b60208082526018908201527f556e69737761705632526f757465723a20455850495245440000000000000000604082015260600190565b6020808252602c908201527f556e697377617056324c6962726172793a20494e53554646494349454e545f4f60408201527f55545055545f414d4f554e540000000000000000000000000000000000000000606082015260800190565b60208082526025908201527f556e697377617056324c6962726172793a204944454e544943414c5f4144445260408201527f4553534553000000000000000000000000000000000000000000000000000000606082015260800190565b60208082526028908201527f4d617267696e526f757465723a20496e73756666696369656e74206c656e646960408201527f6e672066756e6473000000000000000000000000000000000000000000000000606082015260800190565b6020808252601e908201527f556e697377617056324c6962726172793a20494e56414c49445f504154480000604082015260600190565b60208082526028908201527f556e697377617056324c6962726172793a20494e53554646494349454e545f4c60408201527f4951554944495459000000000000000000000000000000000000000000000000606082015260800190565b60208082526029908201527f43616e6e6f74207472616e73666572206465706f73697420746f206d6172676960408201527f6e206163636f756e740000000000000000000000000000000000000000000000606082015260800190565b6020808252601c908201527f436f756c64206e6f742077697468647261772066726f6d2066756e6400000000604082015260600190565b60208082526027908201527f556e69737761705632526f757465723a204558434553534956455f494e50555460408201527f5f414d4f554e5400000000000000000000000000000000000000000000000000606082015260800190565b6020808252601e908201527f556e697377617056324c6962726172793a205a45524f5f414444524553530000604082015260600190565b6020808252602b908201527f556e697377617056324c6962726172793a20494e53554646494349454e545f4960408201527f4e5055545f414d4f554e54000000000000000000000000000000000000000000606082015260800190565b60208082526028908201527f4d617267696e526f757465723a20494e53554646494349454e545f4f5554505560408201527f545f414d4f554e54000000000000000000000000000000000000000000000000606082015260800190565b61ffff91909116815260200190565b61ffff92909216825273ffffffffffffffffffffffffffffffffffffffff16602082015260400190565b60008582526020858184015273ffffffffffffffffffffffffffffffffffffffff85166040840152608060608401528351806080850152825b818110156134fc5785810183015185820160a0015282016134e0565b8181111561350d578360a083870101525b50601f017fffffffffffffffffffffffffffffffffffffffffffffffffffffffffffffffe0169290920160a0019695505050505050565b6000821982111561355757613557613657565b500190565b600082613590577f4e487b710000000000000000000000000000000000000000000000000000000081526012600452602481fd5b500490565b6000817fffffffffffffffffffffffffffffffffffffffffffffffffffffffffffffffff04831182151516156135cd576135cd613657565b500290565b6000828210156135e4576135e4613657565b500390565b6000816135f8576135f8613657565b507fffffffffffffffffffffffffffffffffffffffffffffffffffffffffffffffff0190565b60007fffffffffffffffffffffffffffffffffffffffffffffffffffffffffffffffff82141561365057613650613657565b5060010190565b7f4e487b7100000000000000000000000000000000000000000000000000000000600052601160045260246000fd5b73ffffffffffffffffffffffffffffffffffffffff8116811461134a57600080fdfea2646970667358221220981f04c00f87fad255c44b1cd62c89549cc33a62715c4440182eabcc7e9a6f4f64736f6c6343000801003360806040523480156200001157600080fd5b50604051620019de380380620019de8339810160408190526200003491620000ef565b600080546001600160a01b0319166001600160a01b03831617815562000059620000ce565b600180546001600160a01b0319166001600160a01b038316908117909155604051919250906000907f8be0079c531659141344cd1fd0a4f28419497f9722a3daafe3b4186f6b6457e0908290a35050600280546001600160a01b0319166001600160a01b039290921691909117905562000126565b3390565b80516001600160a01b0381168114620000ea57600080fd5b919050565b6000806040838503121562000102578182fd5b6200010d83620000d2565b91506200011d60208401620000d2565b90509250929050565b6118a880620001366000396000f3fe608060405234801561001057600080fd5b50600436106101ae5760003560e01c80636cd7bc4b116100ee578063a94c7c3411610097578063d5d7ed7f11610071578063d5d7ed7f146102c1578063e47109a9146102c9578063e62db160146102dc578063f2fde38b146102ef576101ae565b8063a94c7c34146102a9578063a9cc0536146102b1578063cacf8d45146102b9576101ae565b806383a49c7c116100c857806383a49c7c146102915780638da5cb5b14610299578063a0098d69146102a1576101ae565b80636cd7bc4b1461026c578063715018a61461028157806381ca660014610289576101ae565b806337487fd51161015b57806348fb27b81161013557806348fb27b8146102415780634cb77662146102495780635c275a391461025c5780636694198414610264576101ae565b806337487fd51461021e578063392f5f641461023157806346b8879614610239576101ae565b80631f1cb62b1161018c5780631f1cb62b146101f95780632fe94def1461020e57806332fe7b2614610216576101ae565b806305883f7c146101b3578063065d570f146101dc5780631bc5d81d146101f1575b600080fd5b6101c66101c136600461127a565b610302565b6040516101d391906116b3565b60405180910390f35b6101e4610609565b6040516101d3919061167a565b6101e461060e565b610201610613565b6040516101d39190611422565b6101e461062f565b6101e4610634565b6101c661022c36600461127a565b610639565b610201610918565b6101e4610934565b6101e4610939565b6101c661025736600461127a565b61093e565b6101e4610a14565b6101e4610a19565b61027f61027a3660046112a5565b610a1e565b005b61027f610a94565b6101e4610b76565b6101e4610b7b565b610201610b80565b6101e4610b9c565b6101e4610ba1565b6101e4610ba6565b6101e4610bab565b6101e4610bb0565b6101c66102d736600461127a565b610bb5565b6101c66102ea36600461127a565b610df3565b61027f6102fd36600461123b565b610f92565b600061030d336110e0565b61034c576040517f08c379a00000000000000000000000000000000000000000000000000000000081526004016103439061152e565b60405180910390fd5b60025473ffffffffffffffffffffffffffffffffffffffff84811691161415610376575080610603565b73ffffffffffffffffffffffffffffffffffffffff83166000908152600360209081526040808320815160a0810183528154815260018201805484518187028101870190955280855291949293858401939092908301828280156103f957602002820191906000526020600020905b8154815260200190600101908083116103e5575b50505050508152602001600282015481526020016003820180548060200260200160405190810160405280929190818152602001828054801561047257602002820191906000526020600020905b815473ffffffffffffffffffffffffffffffffffffffff168152600190910190602001808311610447575b50505050508152602001600482018054806020026020016040519081016040528092919081815260200182805480156104e157602002820191906000526020600020905b815473ffffffffffffffffffffffffffffffffffffffff1681526001909101906020018083116104b6575b505050505081525050905060006104f661118a565b73ffffffffffffffffffffffffffffffffffffffff16630aa29f1c600086600086606001516040518563ffffffff1660e01b815260040161053a94939291906114b6565b600060405180830381600087803b15801561055457600080fd5b505af1158015610568573d6000803e3d6000fd5b505050506040513d6000823e601f3d9081017fffffffffffffffffffffffffffffffffffffffffffffffffffffffffffffffe01682016040526105ae9190810190611343565b905080600182516105bf9190611798565b815181106105f6577f4e487b7100000000000000000000000000000000000000000000000000000000600052603260045260246000fd5b6020026020010151925050505b92915050565b600381565b600881565b60025473ffffffffffffffffffffffffffffffffffffffff1681565b606981565b606781565b6000610644336110e0565b61067a576040517f08c379a00000000000000000000000000000000000000000000000000000000081526004016103439061152e565b60025473ffffffffffffffffffffffffffffffffffffffff848116911614156106a4575080610603565b73ffffffffffffffffffffffffffffffffffffffff83166000908152600360209081526040808320815160a08101835281548152600182018054845181870281018701909552808552919492938584019390929083018282801561072757602002820191906000526020600020905b815481526020019060010190808311610713575b5050505050815260200160028201548152602001600382018054806020026020016040519081016040528092919081815260200182805480156107a057602002820191906000526020600020905b815473ffffffffffffffffffffffffffffffffffffffff168152600190910190602001808311610775575b505050505081526020016004820180548060200260200160405190810160405280929190818152602001828054801561080f57602002820191906000526020600020905b815473ffffffffffffffffffffffffffffffffffffffff1681526001909101906020018083116107e4575b5050505050815250509050600061082461118a565b73ffffffffffffffffffffffffffffffffffffffff16631f2a6743600086600086608001516040518563ffffffff1660e01b815260040161086894939291906114b6565b600060405180830381600087803b15801561088257600080fd5b505af1158015610896573d6000803e3d6000fd5b505050506040513d6000823e601f3d9081017fffffffffffffffffffffffffffffffffffffffffffffffffffffffffffffffe01682016040526108dc9190810190611343565b9050806000815181106105f6577f4e487b7100000000000000000000000000000000000000000000000000000000600052603260045260246000fd5b60005473ffffffffffffffffffffffffffffffffffffffff1681565b600681565b606681565b73ffffffffffffffffffffffffffffffffffffffff821660009081526003602081905260408220908101546001106109a2576040517f08c379a0000000000000000000000000000000000000000000000000000000008152600401610343906115e8565b806001018160020154815481106109e2577f4e487b7100000000000000000000000000000000000000000000000000000000600052603260045260246000fd5b906000526020600020015483683635c9adc5dea00000610a02919061175b565b610a0c9190611747565b949350505050565b606581565b600181565b610a26611237565b73ffffffffffffffffffffffffffffffffffffffff16610a44610b80565b73ffffffffffffffffffffffffffffffffffffffff1614610a91576040517f08c379a000000000000000000000000000000000000000000000000000000000815260040161034390611645565b50565b610a9c611237565b73ffffffffffffffffffffffffffffffffffffffff16610aba610b80565b73ffffffffffffffffffffffffffffffffffffffff1614610b07576040517f08c379a000000000000000000000000000000000000000000000000000000000815260040161034390611645565b60015460405160009173ffffffffffffffffffffffffffffffffffffffff16907f8be0079c531659141344cd1fd0a4f28419497f9722a3daafe3b4186f6b6457e0908390a3600180547fffffffffffffffffffffffff0000000000000000000000000000000000000000169055565b606a81565b600981565b60015473ffffffffffffffffffffffffffffffffffffffff1690565b600281565b600581565b606881565b600481565b600781565b60025460009073ffffffffffffffffffffffffffffffffffffffff84811691161415610be2575080610603565b73ffffffffffffffffffffffffffffffffffffffff8316600090815260036020819052604090912090810154600110610c47576040517f08c379a0000000000000000000000000000000000000000000000000000000008152600401610343906115e8565b6000610c5161118a565b73ffffffffffffffffffffffffffffffffffffffff1663eaa095f8600086856003016040518463ffffffff1660e01b8152600401610c9193929190611443565b60006040518083038186803b158015610ca957600080fd5b505afa158015610cbd573d6000803e3d6000fd5b505050506040513d6000823e601f3d9081017fffffffffffffffffffffffffffffffffffffffffffffffffffffffffffffffe0168201604052610d039190810190611343565b905060008160018351610d169190611798565b81518110610d4d577f4e487b7100000000000000000000000000000000000000000000000000000000600052603260045260246000fd5b60200260200101519050826001018054905083600201546001610d70919061172f565b610d7a91906117af565b600284015580610d9386683635c9adc5dea0000061175b565b610d9d9190611747565b83600101846002015481548110610ddd577f4e487b7100000000000000000000000000000000000000000000000000000000600052603260045260246000fd5b6000918252602090912001559250610603915050565b60025460009073ffffffffffffffffffffffffffffffffffffffff84811691161415610e20575080610603565b73ffffffffffffffffffffffffffffffffffffffff831660009081526003602052604090206004810154600110610e83576040517f08c379a0000000000000000000000000000000000000000000000000000000008152600401610343906115e8565b6000610e8d61118a565b73ffffffffffffffffffffffffffffffffffffffff166390b931ed600086856004016040518463ffffffff1660e01b8152600401610ecd93929190611443565b60006040518083038186803b158015610ee557600080fd5b505afa158015610ef9573d6000803e3d6000fd5b505050506040513d6000823e601f3d9081017fffffffffffffffffffffffffffffffffffffffffffffffffffffffffffffffe0168201604052610f3f9190810190611343565b9050600081600081518110610f7d577f4e487b7100000000000000000000000000000000000000000000000000000000600052603260045260246000fd5b60200260200101519050809350505050610603565b610f9a611237565b73ffffffffffffffffffffffffffffffffffffffff16610fb8610b80565b73ffffffffffffffffffffffffffffffffffffffff1614611005576040517f08c379a000000000000000000000000000000000000000000000000000000000815260040161034390611645565b73ffffffffffffffffffffffffffffffffffffffff8116611052576040517f08c379a00000000000000000000000000000000000000000000000000000000081526004016103439061158b565b60015460405173ffffffffffffffffffffffffffffffffffffffff8084169216907f8be0079c531659141344cd1fd0a4f28419497f9722a3daafe3b4186f6b6457e090600090a3600180547fffffffffffffffffffffffff00000000000000000000000000000000000000001673ffffffffffffffffffffffffffffffffffffffff92909216919091179055565b600080546040517fd87fefd200000000000000000000000000000000000000000000000000000000815273ffffffffffffffffffffffffffffffffffffffff9091169063d87fefd29061113a906006908690600401611689565b60206040518083038186803b15801561115257600080fd5b505afa158015611166573d6000803e3d6000fd5b505050506040513d601f19601f8201168201806040525081019061060391906113c7565b600080546040517f3c9c8f9c00000000000000000000000000000000000000000000000000000000815273ffffffffffffffffffffffffffffffffffffffff90911690633c9c8f9c906111e29060679060040161167a565b60206040518083038186803b1580156111fa57600080fd5b505afa15801561120e573d6000803e3d6000fd5b505050506040513d601f19601f82011682018060405250810190611232919061125e565b905090565b3390565b60006020828403121561124c578081fd5b813561125781611850565b9392505050565b60006020828403121561126f578081fd5b815161125781611850565b6000806040838503121561128c578081fd5b823561129781611850565b946020939093013593505050565b600060208083850312156112b7578182fd5b823567ffffffffffffffff8111156112cd578283fd5b8301601f810185136112dd578283fd5b80356112f06112eb8261170b565b6116bc565b818152838101908385018584028501860189101561130c578687fd5b8694505b8385101561133757803561132381611850565b835260019490940193918501918501611310565b50979650505050505050565b60006020808385031215611355578182fd5b825167ffffffffffffffff81111561136b578283fd5b8301601f8101851361137b578283fd5b80516113896112eb8261170b565b81815283810190838501858402850186018910156113a5578687fd5b8694505b838510156113375780518352600194909401939185019185016113a9565b6000602082840312156113d8578081fd5b81518015158114611257578182fd5b6004811061141e577f4e487b7100000000000000000000000000000000000000000000000000000000600052602160045260246000fd5b9052565b73ffffffffffffffffffffffffffffffffffffffff91909116815260200190565b60006060820161145383876113e7565b602083810186905260606040850152845491829052848352808320916080850190845b818110156114a857845473ffffffffffffffffffffffffffffffffffffffff1683526001948501949284019201611476565b509098975050505050505050565b6000608082016114c683886113e7565b602086818501528560408501526080606085015281855180845260a0860191508287019350845b8181101561151f57845173ffffffffffffffffffffffffffffffffffffffff16835293830193918301916001016114ed565b50909998505050505050505050565b6020808252602f908201527f43616c6c696e6720636f6e7472616374206973206e6f7420617574686f72697a60408201527f656420746f206c69717569646174650000000000000000000000000000000000606082015260800190565b60208082526026908201527f4f776e61626c653a206e6577206f776e657220697320746865207a65726f206160408201527f6464726573730000000000000000000000000000000000000000000000000000606082015260800190565b60208082526026908201527f546f6b656e20646f6573206e6f7420686176652061206c69717569646174696f60408201527f6e20706174680000000000000000000000000000000000000000000000000000606082015260800190565b6020808252818101527f4f776e61626c653a2063616c6c6572206973206e6f7420746865206f776e6572604082015260600190565b61ffff91909116815260200190565b61ffff92909216825273ffffffffffffffffffffffffffffffffffffffff16602082015260400190565b90815260200190565b604051601f82017fffffffffffffffffffffffffffffffffffffffffffffffffffffffffffffffe016810167ffffffffffffffff8111828210171561170357611703611821565b604052919050565b600067ffffffffffffffff82111561172557611725611821565b5060209081020190565b60008219821115611742576117426117c3565b500190565b600082611756576117566117f2565b500490565b6000817fffffffffffffffffffffffffffffffffffffffffffffffffffffffffffffffff0483118215151615611793576117936117c3565b500290565b6000828210156117aa576117aa6117c3565b500390565b6000826117be576117be6117f2565b500690565b7f4e487b7100000000000000000000000000000000000000000000000000000000600052601160045260246000fd5b7f4e487b7100000000000000000000000000000000000000000000000000000000600052601260045260246000fd5b7f4e487b7100000000000000000000000000000000000000000000000000000000600052604160045260246000fd5b73ffffffffffffffffffffffffffffffffffffffff81168114610a9157600080fdfea2646970667358221220baea46c6cfe0be549531379210accda356793484a934f9da4ed247775eac3c5064736f6c63430008010033",
  "linkReferences": {},
  "deployedLinkReferences": {}
}