{
  "_format": "hh-sol-artifact-1",
  "contractName": "V1",
  "sourceName": "contracts/V1.sol",
  "abi": [
    {
      "inputs": [
        {
          "internalType": "address",
          "name": "targetOwner",
          "type": "address"
        },
        {
          "internalType": "address",
          "name": "WETH",
          "type": "address"
        },
        {
          "internalType": "uint256",
          "name": "feesPer10k",
          "type": "uint256"
        },
        {
          "internalType": "address",
          "name": "MFI",
          "type": "address"
        },
        {
          "internalType": "address",
          "name": "uniswapFactory",
          "type": "address"
        },
        {
          "internalType": "address",
          "name": "sushiswapFactory",
          "type": "address"
        },
        {
          "internalType": "address",
          "name": "peg",
          "type": "address"
        }
      ],
      "stateMutability": "nonpayable",
      "type": "constructor"
    },
    {
      "anonymous": false,
      "inputs": [
        {
          "indexed": true,
          "internalType": "address",
          "name": "previousOwner",
          "type": "address"
        },
        {
          "indexed": true,
          "internalType": "address",
          "name": "newOwner",
          "type": "address"
        }
      ],
      "name": "OwnershipTransferred",
      "type": "event"
    },
    {
      "inputs": [],
      "name": "admin",
      "outputs": [
        {
          "internalType": "contract Admin",
          "name": "",
          "type": "address"
        }
      ],
      "stateMutability": "view",
      "type": "function"
    },
    {
      "inputs": [],
      "name": "crossMarginTrading",
      "outputs": [
        {
          "internalType": "contract CrossMarginTrading",
          "name": "",
          "type": "address"
        }
      ],
      "stateMutability": "view",
      "type": "function"
    },
    {
      "inputs": [],
      "name": "fund",
      "outputs": [
        {
          "internalType": "contract Fund",
          "name": "",
          "type": "address"
        }
      ],
      "stateMutability": "view",
      "type": "function"
    },
    {
      "inputs": [],
      "name": "lending",
      "outputs": [
        {
          "internalType": "contract Lending",
          "name": "",
          "type": "address"
        }
      ],
      "stateMutability": "view",
      "type": "function"
    },
    {
      "inputs": [],
      "name": "marginRouter",
      "outputs": [
        {
          "internalType": "contract MarginRouter",
          "name": "",
          "type": "address"
        }
      ],
      "stateMutability": "view",
      "type": "function"
    },
    {
      "inputs": [],
      "name": "owner",
      "outputs": [
        {
          "internalType": "address",
          "name": "",
          "type": "address"
        }
      ],
      "stateMutability": "view",
      "type": "function"
    },
    {
      "inputs": [],
      "name": "price",
      "outputs": [
        {
          "internalType": "contract Price",
          "name": "",
          "type": "address"
        }
      ],
      "stateMutability": "view",
      "type": "function"
    },
    {
      "inputs": [],
      "name": "renounceOwnership",
      "outputs": [],
      "stateMutability": "nonpayable",
      "type": "function"
    },
    {
      "inputs": [],
      "name": "roles",
      "outputs": [
        {
          "internalType": "contract Roles",
          "name": "",
          "type": "address"
        }
      ],
      "stateMutability": "view",
      "type": "function"
    },
    {
      "inputs": [
        {
          "internalType": "address",
          "name": "newOwner",
          "type": "address"
        }
      ],
      "name": "transferOwnership",
      "outputs": [],
      "stateMutability": "nonpayable",
      "type": "function"
    }
  ],
  "bytecode": "0x60806040523480156200001157600080fd5b506040516200f3863803806200f386833981016040819052620000349162000b6e565b60006200004062000aeb565b600080546001600160a01b0319166001600160a01b0383169081178255604051929350917f8be0079c531659141344cd1fd0a4f28419497f9722a3daafe3b4186f6b6457e0908290a350604051620000989062000aef565b604051809103906000f080158015620000b5573d6000803e3d6000fd5b50600180546001600160a01b0319166001600160a01b03928316179081905560405188929190911690620000e99062000afd565b620000f692919062000c0d565b604051809103906000f08015801562000113573d6000803e3d6000fd5b50600280546001600160a01b0319166001600160a01b03928316179081905560405163f2fde38b60e01b815291169063f2fde38b9062000158908a9060040162000bf9565b600060405180830381600087803b1580156200017357600080fd5b505af115801562000188573d6000803e3d6000fd5b5050600154600254604051633f1609ef60e01b81526001600160a01b039283169450633f1609ef9350620001c492600092169060040162000c52565b600060405180830381600087803b158015620001df57600080fd5b505af1158015620001f4573d6000803e3d6000fd5b50506001546040518893508792506001600160a01b0390911690620002199062000b0b565b620002279392919062000c98565b604051809103906000f08015801562000244573d6000803e3d6000fd5b50600380546001600160a01b0319166001600160a01b03928316179081905560405163f2fde38b60e01b815291169063f2fde38b9062000289908a9060040162000bf9565b600060405180830381600087803b158015620002a457600080fd5b505af1158015620002b9573d6000803e3d6000fd5b5050600154600354604051633f1609ef60e01b81526001600160a01b039283169450633f1609ef9350620002f4926004921690820162000c52565b600060405180830381600087803b1580156200030f57600080fd5b505af115801562000324573d6000803e3d6000fd5b50506001546040516001600160a01b03909116925062000345915062000b19565b62000351919062000bf9565b604051809103906000f0801580156200036e573d6000803e3d6000fd5b50600480546001600160a01b0319166001600160a01b039283161780825560405163f2fde38b60e01b815292169163f2fde38b91620003b0918b910162000bf9565b600060405180830381600087803b158015620003cb57600080fd5b505af1158015620003e0573d6000803e3d6000fd5b505060015460048054604051633f1609ef60e01b81526001600160a01b039384169550633f1609ef94506200041c936003939216910162000c52565b600060405180830381600087803b1580156200043757600080fd5b505af11580156200044c573d6000803e3d6000fd5b50506001546040516001600160a01b0390911692506200046d915062000b27565b62000479919062000bf9565b604051809103906000f08015801562000496573d6000803e3d6000fd5b50600580546001600160a01b0319166001600160a01b03928316179081905560405163f2fde38b60e01b815291169063f2fde38b90620004db908a9060040162000bf9565b600060405180830381600087803b158015620004f657600080fd5b505af11580156200050b573d6000803e3d6000fd5b505060018054600554604051633f1609ef60e01b81526001600160a01b039283169550633f1609ef94506200054893929091169060040162000c52565b600060405180830381600087803b1580156200056357600080fd5b505af115801562000578573d6000803e3d6000fd5b505060015460405186935085925089916001600160a01b0316906200059d9062000b35565b620005ac949392919062000c27565b604051809103906000f080158015620005c9573d6000803e3d6000fd5b50600680546001600160a01b0319166001600160a01b039283161790819055600154604051633f1609ef60e01b815290831692633f1609ef926200061892600292919091169060040162000c52565b600060405180830381600087803b1580156200063357600080fd5b505af115801562000648573d6000803e3d6000fd5b50506001546040518493506001600160a01b0390911691506200066b9062000b43565b6200067892919062000c0d565b604051809103906000f08015801562000695573d6000803e3d6000fd5b50600780546001600160a01b0319166001600160a01b039283161790819055600154604051633f1609ef60e01b815290831692633f1609ef92620006e492600592919091169060040162000c52565b600060405180830381600087803b158015620006ff57600080fd5b505af115801562000714573d6000803e3d6000fd5b50506001546003546040516346cd9bd160e01b81526001600160a01b0392831694506346cd9bd193506200075092600092169060040162000c81565b600060405180830381600087803b1580156200076b57600080fd5b505af115801562000780573d6000803e3d6000fd5b50506001546006546040516346cd9bd160e01b81526001600160a01b0392831694506346cd9bd19350620007bc92600092169060040162000c81565b600060405180830381600087803b158015620007d757600080fd5b505af1158015620007ec573d6000803e3d6000fd5b50506001546005546040516346cd9bd160e01b81526001600160a01b0392831694506346cd9bd193506200082892600092169060040162000c81565b600060405180830381600087803b1580156200084357600080fd5b505af115801562000858573d6000803e3d6000fd5b5050600154600480546040516346cd9bd160e01b81526001600160a01b0393841695506346cd9bd1945062000894936000939216910162000c81565b600060405180830381600087803b158015620008af57600080fd5b505af1158015620008c4573d6000803e3d6000fd5b5050600180546003546040516346cd9bd160e01b81526001600160a01b0392831695506346cd9bd194506200090193929091169060040162000c81565b600060405180830381600087803b1580156200091c57600080fd5b505af115801562000931573d6000803e3d6000fd5b50506001546006546040516346cd9bd160e01b81526001600160a01b0392831694506346cd9bd193506200096d92600292169060040162000c81565b600060405180830381600087803b1580156200098857600080fd5b505af11580156200099d573d6000803e3d6000fd5b50506001546006546040516346cd9bd160e01b81526001600160a01b0392831694506346cd9bd19350620009d992600392169060040162000c81565b600060405180830381600087803b158015620009f457600080fd5b505af115801562000a09573d6000803e3d6000fd5b50506001546006546040516346cd9bd160e01b81526001600160a01b0392831694506346cd9bd1935062000a44926004921690820162000c81565b600060405180830381600087803b15801562000a5f57600080fd5b505af115801562000a74573d6000803e3d6000fd5b505060015460405163f2fde38b60e01b81526001600160a01b03909116925063f2fde38b915062000aaa908a9060040162000bf9565b600060405180830381600087803b15801562000ac557600080fd5b505af115801562000ada573d6000803e3d6000fd5b505050505050505050505062000ccd565b3390565b610a76806200125383390190565b610f1e8062001cc983390190565b6118988062002be783390190565b61347d806200447f83390190565b612c3b80620078fc83390190565b613603806200a53783390190565b61184c806200db3a83390190565b80516001600160a01b038116811462000b6957600080fd5b919050565b600080600080600080600060e0888a03121562000b89578283fd5b62000b948862000b51565b965062000ba46020890162000b51565b95506040880151945062000bbb6060890162000b51565b935062000bcb6080890162000b51565b925062000bdb60a0890162000b51565b915062000beb60c0890162000b51565b905092959891949750929550565b6001600160a01b0391909116815260200190565b6001600160a01b0392831681529116602082015260400190565b6001600160a01b03948516815292841660208401529083166040830152909116606082015260800190565b604081016006841062000c695762000c6962000cb7565b9281526001600160a01b039190911660209091015290565b604081016008841062000c695762000c6962000cb7565b9283526001600160a01b03918216602084015216604082015260600190565b634e487b7160e01b600052602160045260246000fd5b6105768062000cdd6000396000f3fe608060405234801561001057600080fd5b50600436106100be5760003560e01c80639dabd88d11610076578063b60d42881161005b578063b60d428814610113578063f2fde38b1461011b578063f851a4401461012e576100be565b80639dabd88d14610103578063a035b1fe1461010b576100be565b8063715018a6116100a7578063715018a6146100e95780638da5cb5b146100f357806395e97eee146100fb576100be565b806323ee5e7a146100c3578063392f5f64146100e1575b600080fd5b6100cb610136565b6040516100d8919061048d565b60405180910390f35b6100cb610152565b6100f161016e565b005b6100cb610259565b6100cb610275565b6100cb610291565b6100cb6102ad565b6100cb6102c9565b6100f1610129366004610452565b6102e5565b6100cb610432565b60065473ffffffffffffffffffffffffffffffffffffffff1681565b60015473ffffffffffffffffffffffffffffffffffffffff1681565b61017661044e565b73ffffffffffffffffffffffffffffffffffffffff16610194610259565b73ffffffffffffffffffffffffffffffffffffffff16146101ea576040517f08c379a00000000000000000000000000000000000000000000000000000000081526004016101e19061050b565b60405180910390fd5b6000805460405173ffffffffffffffffffffffffffffffffffffffff909116907f8be0079c531659141344cd1fd0a4f28419497f9722a3daafe3b4186f6b6457e0908390a3600080547fffffffffffffffffffffffff0000000000000000000000000000000000000000169055565b60005473ffffffffffffffffffffffffffffffffffffffff1690565b60055473ffffffffffffffffffffffffffffffffffffffff1681565b60045473ffffffffffffffffffffffffffffffffffffffff1681565b60075473ffffffffffffffffffffffffffffffffffffffff1681565b60025473ffffffffffffffffffffffffffffffffffffffff1681565b6102ed61044e565b73ffffffffffffffffffffffffffffffffffffffff1661030b610259565b73ffffffffffffffffffffffffffffffffffffffff1614610358576040517f08c379a00000000000000000000000000000000000000000000000000000000081526004016101e19061050b565b73ffffffffffffffffffffffffffffffffffffffff81166103a5576040517f08c379a00000000000000000000000000000000000000000000000000000000081526004016101e1906104ae565b6000805460405173ffffffffffffffffffffffffffffffffffffffff808516939216917f8be0079c531659141344cd1fd0a4f28419497f9722a3daafe3b4186f6b6457e091a3600080547fffffffffffffffffffffffff00000000000000000000000000000000000000001673ffffffffffffffffffffffffffffffffffffffff92909216919091179055565b60035473ffffffffffffffffffffffffffffffffffffffff1681565b3390565b600060208284031215610463578081fd5b813573ffffffffffffffffffffffffffffffffffffffff81168114610486578182fd5b9392505050565b73ffffffffffffffffffffffffffffffffffffffff91909116815260200190565b60208082526026908201527f4f776e61626c653a206e6577206f776e657220697320746865207a65726f206160408201527f6464726573730000000000000000000000000000000000000000000000000000606082015260800190565b6020808252818101527f4f776e61626c653a2063616c6c6572206973206e6f7420746865206f776e657260408201526060019056fea26469706673582212205ebc84ca90e830d4cd1ab05b63184956969ce880a23eb85a43c816172f8c6ecf64736f6c63430008010033608060405234801561001057600080fd5b50600061001b61006a565b600080546001600160a01b0319166001600160a01b0383169081178255604051929350917f8be0079c531659141344cd1fd0a4f28419497f9722a3daafe3b4186f6b6457e0908290a35061006e565b3390565b6109f98061007d6000396000f3fe608060405234801561001057600080fd5b50600436106100a35760003560e01c8063715018a6116100765780638da5cb5b1161005b5780638da5cb5b14610134578063a716b97f1461013c578063f2fde38b1461014f576100a3565b8063715018a6146101195780638a1713c614610121576100a3565b80630b886c19146100a857806336214c78146100d15780633f1609ef146100f157806346cd9bd114610106575b600080fd5b6100bb6100b6366004610875565b610162565b6040516100c89190610926565b60405180910390f35b6100e46100df3660046108a7565b610182565b6040516100c89190610905565b6101046100ff3660046108c1565b6101aa565b005b6101046101143660046108ea565b6102ec565b61010461043a565b61010461012f3660046108ea565b61051c565b6100e46105ee565b6100bb61014a366004610875565b61060a565b61010461015d366004610854565b6106bc565b600160209081526000928352604080842090915290825290205460ff1681565b60026020526000908152604090205473ffffffffffffffffffffffffffffffffffffffff1681565b6101b2610809565b73ffffffffffffffffffffffffffffffffffffffff166101d06105ee565b73ffffffffffffffffffffffffffffffffffffffff1614610226576040517f08c379a000000000000000000000000000000000000000000000000000000000815260040161021d9061098e565b60405180910390fd5b8060026000846005811115610264577f4e487b7100000000000000000000000000000000000000000000000000000000600052602160045260246000fd5b600581111561029c577f4e487b7100000000000000000000000000000000000000000000000000000000600052602160045260246000fd5b815260200190815260200160002060006101000a81548173ffffffffffffffffffffffffffffffffffffffff021916908373ffffffffffffffffffffffffffffffffffffffff1602179055505050565b6102f4610809565b73ffffffffffffffffffffffffffffffffffffffff166103126105ee565b73ffffffffffffffffffffffffffffffffffffffff161461035f576040517f08c379a000000000000000000000000000000000000000000000000000000000815260040161021d9061098e565b73ffffffffffffffffffffffffffffffffffffffff81166000908152600160208190526040822090918460078111156103c1577f4e487b7100000000000000000000000000000000000000000000000000000000600052602160045260246000fd5b60078111156103f9577f4e487b7100000000000000000000000000000000000000000000000000000000600052602160045260246000fd5b8152602081019190915260400160002080547fffffffffffffffffffffffffffffffffffffffffffffffffffffffffffffff00169115159190911790555050565b610442610809565b73ffffffffffffffffffffffffffffffffffffffff166104606105ee565b73ffffffffffffffffffffffffffffffffffffffff16146104ad576040517f08c379a000000000000000000000000000000000000000000000000000000000815260040161021d9061098e565b6000805460405173ffffffffffffffffffffffffffffffffffffffff909116907f8be0079c531659141344cd1fd0a4f28419497f9722a3daafe3b4186f6b6457e0908390a3600080547fffffffffffffffffffffffff0000000000000000000000000000000000000000169055565b610524610809565b73ffffffffffffffffffffffffffffffffffffffff166105426105ee565b73ffffffffffffffffffffffffffffffffffffffff161461058f576040517f08c379a000000000000000000000000000000000000000000000000000000000815260040161021d9061098e565b73ffffffffffffffffffffffffffffffffffffffff81166000908152600160205260408120818460078111156103c1577f4e487b7100000000000000000000000000000000000000000000000000000000600052602160045260246000fd5b60005473ffffffffffffffffffffffffffffffffffffffff1690565b73ffffffffffffffffffffffffffffffffffffffff8216600090815260016020526040812081836007811115610669577f4e487b7100000000000000000000000000000000000000000000000000000000600052602160045260246000fd5b60078111156106a1577f4e487b7100000000000000000000000000000000000000000000000000000000600052602160045260246000fd5b815260208101919091526040016000205460ff169392505050565b6106c4610809565b73ffffffffffffffffffffffffffffffffffffffff166106e26105ee565b73ffffffffffffffffffffffffffffffffffffffff161461072f576040517f08c379a000000000000000000000000000000000000000000000000000000000815260040161021d9061098e565b73ffffffffffffffffffffffffffffffffffffffff811661077c576040517f08c379a000000000000000000000000000000000000000000000000000000000815260040161021d90610931565b6000805460405173ffffffffffffffffffffffffffffffffffffffff808516939216917f8be0079c531659141344cd1fd0a4f28419497f9722a3daafe3b4186f6b6457e091a3600080547fffffffffffffffffffffffff00000000000000000000000000000000000000001673ffffffffffffffffffffffffffffffffffffffff92909216919091179055565b3390565b803573ffffffffffffffffffffffffffffffffffffffff8116811461083157600080fd5b919050565b80356006811061083157600080fd5b80356008811061083157600080fd5b600060208284031215610865578081fd5b61086e8261080d565b9392505050565b60008060408385031215610887578081fd5b6108908361080d565b915061089e60208401610845565b90509250929050565b6000602082840312156108b8578081fd5b61086e82610836565b600080604083850312156108d3578182fd5b6108dc83610836565b915061089e6020840161080d565b600080604083850312156108fc578182fd5b6108dc83610845565b73ffffffffffffffffffffffffffffffffffffffff91909116815260200190565b901515815260200190565b60208082526026908201527f4f776e61626c653a206e6577206f776e657220697320746865207a65726f206160408201527f6464726573730000000000000000000000000000000000000000000000000000606082015260800190565b6020808252818101527f4f776e61626c653a2063616c6c6572206973206e6f7420746865206f776e657260408201526060019056fea264697066735822122081ac2694290f3ddf0a82f93a999a63b35d67fc228c9da1bd63bd2afe7726bf2c64736f6c63430008010033608060405234801561001057600080fd5b50604051610f1e380380610f1e83398101604081905261002f916100e6565b600080546001600160a01b0319166001600160a01b0383161781556100526100c6565b600180546001600160a01b0319166001600160a01b038316908117909155604051919250906000907f8be0079c531659141344cd1fd0a4f28419497f9722a3daafe3b4186f6b6457e0908290a35050600280546001600160a01b0319166001600160a01b0392909216919091179055610118565b3390565b80516001600160a01b03811681146100e157600080fd5b919050565b600080604083850312156100f8578182fd5b610101836100ca565b915061010f602084016100ca565b90509250929050565b610df7806101276000396000f3fe6080604052600436106100c75760003560e01c80638da5cb5b11610074578063b3db428b1161004e578063b3db428b146101cd578063d9caed12146101ed578063f2fde38b1461020d576100c7565b80638da5cb5b1461019b578063a6a5f9fe146101b0578063ad5c4648146101b8576100c7565b806347e7ef24116100a557806347e7ef24146101395780635acf690314610166578063715018a614610186576100c7565b80631dafede0146100cc578063392f5f64146101025780634782f77914610117575b600080fd5b3480156100d857600080fd5b506100ec6100e7366004610b02565b61022d565b6040516100f99190610b1a565b60405180910390f35b34801561010e57600080fd5b506100ec610264565b34801561012357600080fd5b50610137610132366004610ab9565b610280565b005b34801561014557600080fd5b50610159610154366004610ab9565b610398565b6040516100f99190610bf3565b34801561017257600080fd5b50610159610181366004610a64565b6104a6565b34801561019257600080fd5b506101376104bb565b3480156101a757600080fd5b506100ec61059d565b6101376105b9565b3480156101c457600080fd5b506100ec61063e565b3480156101d957600080fd5b506101596101e8366004610a7e565b61065a565b3480156101f957600080fd5b50610159610208366004610a7e565b6107a8565b34801561021957600080fd5b50610137610228366004610a64565b61083d565b6003818154811061023d57600080fd5b60009182526020909120015473ffffffffffffffffffffffffffffffffffffffff16905081565b60005473ffffffffffffffffffffffffffffffffffffffff1681565b6102893361098b565b6102c8576040517f08c379a00000000000000000000000000000000000000000000000000000000081526004016102bf90610c35565b60405180910390fd5b6002546040517f2e1a7d4d00000000000000000000000000000000000000000000000000000000815273ffffffffffffffffffffffffffffffffffffffff90911690632e1a7d4d9061031e908490600401610db8565b600060405180830381600087803b15801561033857600080fd5b505af115801561034c573d6000803e3d6000fd5b505060405173ffffffffffffffffffffffffffffffffffffffff8516925083156108fc02915083906000818181858888f19350505050158015610393573d6000803e3d6000fd5b505050565b73ffffffffffffffffffffffffffffffffffffffff821660009081526004602052604081205460ff166103f7576040517f08c379a00000000000000000000000000000000000000000000000000000000081526004016102bf90610bfe565b6040517f23b872dd00000000000000000000000000000000000000000000000000000000815273ffffffffffffffffffffffffffffffffffffffff8416906323b872dd9061044d90339030908790600401610b3b565b602060405180830381600087803b15801561046757600080fd5b505af115801561047b573d6000803e3d6000fd5b505050506040513d601f19601f8201168201806040525081019061049f9190610ae2565b9392505050565b60046020526000908152604090205460ff1681565b6104c3610a3c565b73ffffffffffffffffffffffffffffffffffffffff166104e161059d565b73ffffffffffffffffffffffffffffffffffffffff161461052e576040517f08c379a00000000000000000000000000000000000000000000000000000000081526004016102bf90610d26565b60015460405160009173ffffffffffffffffffffffffffffffffffffffff16907f8be0079c531659141344cd1fd0a4f28419497f9722a3daafe3b4186f6b6457e0908390a3600180547fffffffffffffffffffffffff0000000000000000000000000000000000000000169055565b60015473ffffffffffffffffffffffffffffffffffffffff1690565b600260009054906101000a900473ffffffffffffffffffffffffffffffffffffffff1673ffffffffffffffffffffffffffffffffffffffff1663d0e30db0346040518263ffffffff1660e01b81526004016000604051808303818588803b15801561062357600080fd5b505af1158015610637573d6000803e3d6000fd5b5050505050565b60025473ffffffffffffffffffffffffffffffffffffffff1681565b73ffffffffffffffffffffffffffffffffffffffff821660009081526004602052604081205460ff166106b9576040517f08c379a00000000000000000000000000000000000000000000000000000000081526004016102bf90610bfe565b6106c23361098b565b6106f8576040517f08c379a00000000000000000000000000000000000000000000000000000000081526004016102bf90610d5b565b6040517f23b872dd00000000000000000000000000000000000000000000000000000000815273ffffffffffffffffffffffffffffffffffffffff8416906323b872dd9061074e90879030908790600401610b3b565b602060405180830381600087803b15801561076857600080fd5b505af115801561077c573d6000803e3d6000fd5b505050506040513d601f19601f820116820180604052508101906107a09190610ae2565b949350505050565b60006107b33361098b565b6107e9576040517f08c379a00000000000000000000000000000000000000000000000000000000081526004016102bf90610cc9565b6040517fa9059cbb00000000000000000000000000000000000000000000000000000000815273ffffffffffffffffffffffffffffffffffffffff85169063a9059cbb9061074e9086908690600401610bcd565b610845610a3c565b73ffffffffffffffffffffffffffffffffffffffff1661086361059d565b73ffffffffffffffffffffffffffffffffffffffff16146108b0576040517f08c379a00000000000000000000000000000000000000000000000000000000081526004016102bf90610d26565b73ffffffffffffffffffffffffffffffffffffffff81166108fd576040517f08c379a00000000000000000000000000000000000000000000000000000000081526004016102bf90610c6c565b60015460405173ffffffffffffffffffffffffffffffffffffffff8084169216907f8be0079c531659141344cd1fd0a4f28419497f9722a3daafe3b4186f6b6457e090600090a3600180547fffffffffffffffffffffffff00000000000000000000000000000000000000001673ffffffffffffffffffffffffffffffffffffffff92909216919091179055565b600080546040517fa716b97f00000000000000000000000000000000000000000000000000000000815273ffffffffffffffffffffffffffffffffffffffff9091169063a716b97f906109e49085908590600401610b6c565b60206040518083038186803b1580156109fc57600080fd5b505afa158015610a10573d6000803e3d6000fd5b505050506040513d601f19601f82011682018060405250810190610a349190610ae2565b90505b919050565b3390565b803573ffffffffffffffffffffffffffffffffffffffff81168114610a3757600080fd5b600060208284031215610a75578081fd5b61049f82610a40565b600080600060608486031215610a92578182fd5b610a9b84610a40565b9250610aa960208501610a40565b9150604084013590509250925092565b60008060408385031215610acb578182fd5b610ad483610a40565b946020939093013593505050565b600060208284031215610af3578081fd5b8151801515811461049f578182fd5b600060208284031215610b13578081fd5b5035919050565b73ffffffffffffffffffffffffffffffffffffffff91909116815260200190565b73ffffffffffffffffffffffffffffffffffffffff9384168152919092166020820152604081019190915260600190565b73ffffffffffffffffffffffffffffffffffffffff831681526040810160088310610bc0577f4e487b7100000000000000000000000000000000000000000000000000000000600052602160045260246000fd5b8260208301529392505050565b73ffffffffffffffffffffffffffffffffffffffff929092168252602082015260400190565b901515815260200190565b6020808252601b908201527f4465706f73697420746f6b656e206973206e6f74206163746976650000000000604082015260600190565b6020808252601a908201527f4e6f7420617574686f72697a656420746f207769746864726177000000000000604082015260600190565b60208082526026908201527f4f776e61626c653a206e6577206f776e657220697320746865207a65726f206160408201527f6464726573730000000000000000000000000000000000000000000000000000606082015260800190565b60208082526023908201527f436f6e7472616374206e6f7420617574686f72697a656420746f20776974686460408201527f7261770000000000000000000000000000000000000000000000000000000000606082015260800190565b6020808252818101527f4f776e61626c653a2063616c6c6572206973206e6f7420746865206f776e6572604082015260600190565b60208082526022908201527f436f6e7472616374206e6f7420617574686f72697a656420746f206465706f7360408201527f6974000000000000000000000000000000000000000000000000000000000000606082015260800190565b9081526020019056fea264697066735822122029efd0c06ac5f6e4eca52aaa2cb90a33eb626820bd4fd8d00966f8dd7612b58f64736f6c6343000801003360806040523480156200001157600080fd5b5060405162001898380380620018988339810160408190526200003491620000fe565b600080546001600160a01b0319166001600160a01b03831617815562000059620000dd565b600180546001600160a01b0319166001600160a01b038316908117909155604051919250906000907f8be0079c531659141344cd1fd0a4f28419497f9722a3daafe3b4186f6b6457e0908290a35050600280546001600160a01b0319166001600160a01b0392909216919091179055600555670de0b6b3a76400006007556200013e565b3390565b80516001600160a01b0381168114620000f957600080fd5b919050565b60008060006060848603121562000113578283fd5b835192506200012560208501620000e1565b91506200013560408501620000e1565b90509250925092565b61174a806200014e6000396000f3fe608060405234801561001057600080fd5b506004361061011b5760003560e01c8063715018a6116100b2578063a694fc3a11610081578063e909ebfa11610066578063e909ebfa1461023e578063ed95eda014610251578063f2fde38b146102645761011b565b8063a694fc3a14610223578063bf9befb1146102365761011b565b8063715018a6146101e057806381fe8039146101e85780638381e182146102085780638da5cb5b1461021b5761011b565b8063392f5f64116100ee578063392f5f64146101845780633f0e9edf1461019957806356fc9124146101ac57806367cbf42d146101cd5761011b565b8063020d308d1461012057806316934fc4146101355780631cead9a71461015e5780632c00d4a714610171575b600080fd5b61013361012e366004610fe9565b610277565b005b610148610143366004610faa565b610366565b6040516101559190611593565b60405180910390f35b61014861016c366004610faa565b610378565b61013361017f366004611150565b61038a565b61018c610485565b60405161015591906111a4565b6101486101a7366004611021565b6104a1565b6101bf6101ba366004610faa565b61054f565b60405161015592919061159c565b6101486101db366004611021565b61057e565b6101336105d0565b6101fb6101f6366004610fe9565b6106b2565b60405161015591906112ae565b610133610216366004611180565b6106d2565b61018c6107ff565b610133610231366004611150565b61081b565b610148610825565b61013361024c366004610fe9565b61082b565b61014861025f36600461104c565b610914565b610133610272366004610faa565b610a51565b3373ffffffffffffffffffffffffffffffffffffffff831614806102cb575073ffffffffffffffffffffffffffffffffffffffff8216600090815260096020908152604080832033845290915290205460ff165b61030a576040517f08c379a0000000000000000000000000000000000000000000000000000000008152600401610301906113ea565b60405180910390fd5b73ffffffffffffffffffffffffffffffffffffffff9182166000908152600960209081526040808320939094168252919091522080547fffffffffffffffffffffffffffffffffffffffffffffffffffffffffffffff00169055565b60036020526000908152604090205481565b60066020526000908152604090205481565b600754336000908152600860205260409020546103a790836115c0565b10156103df576040517f08c379a00000000000000000000000000000000000000000000000000000000081526004016103019061138d565b6103e93382610b9f565b3360009081526008602052604090205461048257336000908152600860205260409020819055610417610ccc565b336000818152600860205260408082206001908101805473ffffffffffffffffffffffffffffffffffffffff9687167fffffffffffffffffffffffff000000000000000000000000000000000000000091821617909155600b54909516835291200180549092161790555b50565b60005473ffffffffffffffffffffffffffffffffffffffff1681565b60006104ac33610de6565b6104e2576040517f08c379a00000000000000000000000000000000000000000000000000000000081526004016103019061155c565b6005546104f1906127106115c0565b826005546104ff9190611611565b61050991906115d8565b73ffffffffffffffffffffffffffffffffffffffff84166000908152600660205260408120805492935083929091906105439084906115c0565b90915550909392505050565b6008602052600090815260409020805460019091015473ffffffffffffffffffffffffffffffffffffffff1682565b600061058933610de6565b6105bf576040517f08c379a00000000000000000000000000000000000000000000000000000000081526004016103019061155c565b612710826005546104ff9190611611565b6105d8610e97565b73ffffffffffffffffffffffffffffffffffffffff166105f66107ff565b73ffffffffffffffffffffffffffffffffffffffff1614610643576040517f08c379a000000000000000000000000000000000000000000000000000000000815260040161030190611447565b60015460405160009173ffffffffffffffffffffffffffffffffffffffff16907f8be0079c531659141344cd1fd0a4f28419497f9722a3daafe3b4186f6b6457e0908390a3600180547fffffffffffffffffffffffff0000000000000000000000000000000000000000169055565b600960209081526000928352604080842090915290825290205460ff1681565b33600090815260036020526040812080548492906106f190849061164e565b92505081905550816004600082825461070a919061164e565b909155506107189050610e9b565b6002546040517fd9caed1200000000000000000000000000000000000000000000000000000000815273ffffffffffffffffffffffffffffffffffffffff9283169263d9caed129261077392911690859087906004016111c5565b602060405180830381600087803b15801561078d57600080fd5b505af11580156107a1573d6000803e3d6000fd5b505050506040513d601f19601f820116820180604052508101906107c59190611130565b6107fb576040517f08c379a0000000000000000000000000000000000000000000000000000000008152600401610301906114ff565b5050565b60015473ffffffffffffffffffffffffffffffffffffffff1690565b6104823382610b9f565b60045481565b3373ffffffffffffffffffffffffffffffffffffffff8316148061087f575073ffffffffffffffffffffffffffffffffffffffff8216600090815260096020908152604080832033845290915290205460ff165b6108b5576040517f08c379a0000000000000000000000000000000000000000000000000000000008152600401610301906113ea565b73ffffffffffffffffffffffffffffffffffffffff9182166000908152600960209081526040808320939094168252919091522080547fffffffffffffffffffffffffffffffffffffffffffffffffffffffffffffff00166001179055565b600033321461094f576040517f08c379a0000000000000000000000000000000000000000000000000000000008152600401610301906112d3565b6000610959610ccc565b9050600073ffffffffffffffffffffffffffffffffffffffff82163314806109b1575073ffffffffffffffffffffffffffffffffffffffff8216600090815260096020908152604080832033845290915290205460ff165b90506109bb610f47565b73ffffffffffffffffffffffffffffffffffffffff166395f23a628533846040518463ffffffff1660e01b81526004016109f793929190611230565b602060405180830381600087803b158015610a1157600080fd5b505af1158015610a25573d6000803e3d6000fd5b505050506040513d601f19601f82011682018060405250810190610a499190611168565b949350505050565b610a59610e97565b73ffffffffffffffffffffffffffffffffffffffff16610a776107ff565b73ffffffffffffffffffffffffffffffffffffffff1614610ac4576040517f08c379a000000000000000000000000000000000000000000000000000000000815260040161030190611447565b73ffffffffffffffffffffffffffffffffffffffff8116610b11576040517f08c379a000000000000000000000000000000000000000000000000000000000815260040161030190611330565b60015460405173ffffffffffffffffffffffffffffffffffffffff8084169216907f8be0079c531659141344cd1fd0a4f28419497f9722a3daafe3b4186f6b6457e090600090a3600180547fffffffffffffffffffffffff00000000000000000000000000000000000000001673ffffffffffffffffffffffffffffffffffffffff92909216919091179055565b610ba7610e9b565b6002546040517fb3db428b00000000000000000000000000000000000000000000000000000000815273ffffffffffffffffffffffffffffffffffffffff9283169263b3db428b92610c039287929091169086906004016111c5565b602060405180830381600087803b158015610c1d57600080fd5b505af1158015610c31573d6000803e3d6000fd5b505050506040513d601f19601f82011682018060405250810190610c559190611130565b610c8b576040517f08c379a00000000000000000000000000000000000000000000000000000000081526004016103019061147c565b3360009081526003602052604081208054839290610caa9084906115c0565b925050819055508060046000828254610cc391906115c0565b90915550505050565b60005b600a5473ffffffffffffffffffffffffffffffffffffffff16600090815260086020526040902054600754600c54610d07904361164e565b610d119190611611565b10610dc957600754600a5473ffffffffffffffffffffffffffffffffffffffff16600090815260086020526040902054610d4b91906115d8565b600c6000828254610d5c91906115c0565b9091555050600a8054600b80547fffffffffffffffffffffffff000000000000000000000000000000000000000090811673ffffffffffffffffffffffffffffffffffffffff80851691821790935560009081526008602052604090206001015492169116179055610ccf565b50600a5473ffffffffffffffffffffffffffffffffffffffff1690565b600080546040517fa716b97f00000000000000000000000000000000000000000000000000000000815273ffffffffffffffffffffffffffffffffffffffff9091169063a716b97f90610e3f90859060049081016111f6565b60206040518083038186803b158015610e5757600080fd5b505afa158015610e6b573d6000803e3d6000fd5b505050506040513d601f19601f82011682018060405250810190610e8f9190611130565b90505b919050565b3390565b600080546040517f36214c7800000000000000000000000000000000000000000000000000000000815273ffffffffffffffffffffffffffffffffffffffff909116906336214c7890610ef29084906004016112b9565b60206040518083038186803b158015610f0a57600080fd5b505afa158015610f1e573d6000803e3d6000fd5b505050506040513d601f19601f82011682018060405250810190610f429190610fcd565b905090565b600080546040517f36214c7800000000000000000000000000000000000000000000000000000000815273ffffffffffffffffffffffffffffffffffffffff909116906336214c7890610ef2906003906004016112b9565b8035610e92816116f2565b600060208284031215610fbb578081fd5b8135610fc6816116f2565b9392505050565b600060208284031215610fde578081fd5b8151610fc6816116f2565b60008060408385031215610ffb578081fd5b8235611006816116f2565b91506020830135611016816116f2565b809150509250929050565b60008060408385031215611033578182fd5b823561103e816116f2565b946020939093013593505050565b6000602080838503121561105e578182fd5b823567ffffffffffffffff80821115611075578384fd5b818501915085601f830112611088578384fd5b81358181111561109a5761109a6116c3565b8381026040517fffffffffffffffffffffffffffffffffffffffffffffffffffffffffffffffe0603f830116810181811085821117156110dc576110dc6116c3565b604052828152858101935084860182860187018a10156110fa578788fd5b8795505b838610156111235761110f81610f9f565b8552600195909501949386019386016110fe565b5098975050505050505050565b600060208284031215611141578081fd5b81518015158114610fc6578182fd5b600060208284031215611161578081fd5b5035919050565b600060208284031215611179578081fd5b5051919050565b60008060408385031215611192578182fd5b823591506020830135611016816116f2565b73ffffffffffffffffffffffffffffffffffffffff91909116815260200190565b73ffffffffffffffffffffffffffffffffffffffff9384168152919092166020820152604081019190915260600190565b73ffffffffffffffffffffffffffffffffffffffff83168152604081016008831061122357611223611694565b8260208301529392505050565b606080825284519082018190526000906020906080840190828801845b8281101561127f57815173ffffffffffffffffffffffffffffffffffffffff168452928401929084019060010161124d565b50505073ffffffffffffffffffffffffffffffffffffffff959095169083015250901515604090910152919050565b901515815260200190565b60208101600683106112cd576112cd611694565b91905290565b6020808252603a908201527f43757272656e746c79206e6f20696e7465726d656469617269657320616c6c6f60408201527f77656420666f7220746869732066756e6374696f6e2063616c6c000000000000606082015260800190565b60208082526026908201527f4f776e61626c653a206e6577206f776e657220697320746865207a65726f206160408201527f6464726573730000000000000000000000000000000000000000000000000000606082015260800190565b60208082526029908201527f496e73756666696369656e74207374616b6520746f2063616c6c206576656e2060408201527f6f6e6520626c6f636b0000000000000000000000000000000000000000000000606082015260800190565b60208082526030908201527f6d73672e73656e646572206e6f7420617574686f72697a656420746f2064656c60408201527f656761746520666f72207374616b657200000000000000000000000000000000606082015260800190565b6020808252818101527f4f776e61626c653a2063616c6c6572206973206e6f7420746865206f776e6572604082015260600190565b60208082526047908201527f436f756c64206e6f74206465706f736974207374616b652066756e647320287060408201527f657268617073206d616b6520616c6c6f77616e636520746f2066756e6420636f60608201527f6e74726163743f00000000000000000000000000000000000000000000000000608082015260a00190565b60208082526032908201527f496e73756666696369656e742066756e6473202d2d20736f6d657468696e672060408201527f77656e74207265616c6c792077726f6e672e0000000000000000000000000000606082015260800190565b6020808252601d908201527f4e6f7420617574686f72697a656420746f20736f757263652066656573000000604082015260600190565b90815260200190565b91825273ffffffffffffffffffffffffffffffffffffffff16602082015260400190565b600082198211156115d3576115d3611665565b500190565b60008261160c577f4e487b710000000000000000000000000000000000000000000000000000000081526012600452602481fd5b500490565b6000817fffffffffffffffffffffffffffffffffffffffffffffffffffffffffffffffff048311821515161561164957611649611665565b500290565b60008282101561166057611660611665565b500390565b7f4e487b7100000000000000000000000000000000000000000000000000000000600052601160045260246000fd5b7f4e487b7100000000000000000000000000000000000000000000000000000000600052602160045260246000fd5b7f4e487b7100000000000000000000000000000000000000000000000000000000600052604160045260246000fd5b73ffffffffffffffffffffffffffffffffffffffff8116811461048257600080fdfea2646970667358221220e2bb1b758ec0a514cb91bddfdf4c912d56da8c6b29ed32af65b4e4286743efee64736f6c6343000801003360806040526050600a553480156200001657600080fd5b506040516200347d3803806200347d8339810160408190526200003991620000bc565b600080546001600160a01b0319166001600160a01b0383161781556200005e620000b8565b600180546001600160a01b0319166001600160a01b038316908117909155604051919250906000907f8be0079c531659141344cd1fd0a4f28419497f9722a3daafe3b4186f6b6457e0908290a350506014600355620000ec565b3390565b600060208284031215620000ce578081fd5b81516001600160a01b0381168114620000e5578182fd5b9392505050565b61338180620000fc6000396000f3fe608060405234801561001057600080fd5b506004361061011b5760003560e01c80636612ce35116100b257806395f23a6211610081578063d0eb665311610066578063d0eb665314610226578063d510c53514610239578063f2fde38b1461024c5761011b565b806395f23a6214610200578063b25777ad146102135761011b565b80636612ce35146101ca578063715018a6146101dd57806379575b23146101e55780638da5cb5b146101f85761011b565b8063392f5f64116100ee578063392f5f641461016e578063409fdb7214610183578063498d55eb146101a457806352a664d9146101b75761011b565b806316317e7e146101205780632c86d98e14610135578063320d2fa0146101535780633500aa0b1461015b575b600080fd5b61013361012e366004612cf8565b61025f565b005b61013d6102e0565b60405161014a919061317b565b60405180910390f35b61013d6102e6565b61013d610169366004612b3c565b6102ec565b6101766103c4565b60405161014a9190612d28565b610196610191366004612afd565b6103e0565b60405161014a929190612dda565b6101336101b2366004612b96565b6105d6565b61013d6101c5366004612b96565b61064b565b61013d6101d8366004612b96565b610727565b6101336107eb565b6101336101f3366004612cf8565b6108cd565b610176610945565b61013d61020e366004612bd6565b610961565b610133610221366004612b96565b610d24565b610133610234366004612b96565b610d98565b610196610247366004612afd565b610e7f565b61013361025a366004612afd565b6110f7565b610267611245565b73ffffffffffffffffffffffffffffffffffffffff16610285610945565b73ffffffffffffffffffffffffffffffffffffffff16146102db576040517f08c379a00000000000000000000000000000000000000000000000000000000081526004016102d29061302f565b60405180910390fd5b600355565b60025481565b60035481565b60006102f733611249565b61032d576040517f08c379a00000000000000000000000000000000000000000000000000000000081526004016102d290612e84565b73ffffffffffffffffffffffffffffffffffffffff8087166000908152600460208181526040808420948a168452918401905290205484908111156103ac575073ffffffffffffffffffffffffffffffffffffffff8616600090815260048201602052604090205461039f818661323e565b92506103ac8288856112fb565b6103b98288888488611599565b505095945050505050565b60005473ffffffffffffffffffffffffffffffffffffffff1681565b73ffffffffffffffffffffffffffffffffffffffff811660009081526004602090815260409182902060038101805484518185028101850190955280855260609485949092919083018282801561046d57602002820191906000526020600020905b815473ffffffffffffffffffffffffffffffffffffffff168152600190910190602001808311610442575b5050506003840154929550505067ffffffffffffffff8111156104b9577f4e487b7100000000000000000000000000000000000000000000000000000000600052604160045260246000fd5b6040519080825280602002602001820160405280156104e2578160200160208202803683370190505b50915060005b80845111156105cf57600084828151811061052c577f4e487b7100000000000000000000000000000000000000000000000000000000600052603260045260246000fd5b602002602001015190508260040160008273ffffffffffffffffffffffffffffffffffffffff1673ffffffffffffffffffffffffffffffffffffffff168152602001908152602001600020548483815181106105b1577f4e487b7100000000000000000000000000000000000000000000000000000000600052603260045260246000fd5b602090810291909101015250806105c781613255565b9150506104e8565b5050915091565b6105df33611249565b610615576040517f08c379a00000000000000000000000000000000000000000000000000000000081526004016102d29061311e565b73ffffffffffffffffffffffffffffffffffffffff831660009081526004602052604090206106458184846112fb565b50505050565b600061065633611249565b61068c576040517f08c379a00000000000000000000000000000000000000000000000000000000081526004016102d29061311e565b73ffffffffffffffffffffffffffffffffffffffff841660009081526004602052604090206106bc818585611606565b73ffffffffffffffffffffffffffffffffffffffff841660009081526001820160205260409020541561071f5773ffffffffffffffffffffffffffffffffffffffff8416600090815260018201602052604090205461071c9084906116ab565b91505b509392505050565b600061073233611249565b610768576040517f08c379a00000000000000000000000000000000000000000000000000000000081526004016102d290612f75565b73ffffffffffffffffffffffffffffffffffffffff8085166000908152600460208181526040808420948816845291840190529020546107a8908461323e565b91506107b58185846116c5565b61071f576040517f08c379a00000000000000000000000000000000000000000000000000000000081526004016102d290612ee1565b6107f3611245565b73ffffffffffffffffffffffffffffffffffffffff16610811610945565b73ffffffffffffffffffffffffffffffffffffffff161461085e576040517f08c379a00000000000000000000000000000000000000000000000000000000081526004016102d29061302f565b60015460405160009173ffffffffffffffffffffffffffffffffffffffff16907f8be0079c531659141344cd1fd0a4f28419497f9722a3daafe3b4186f6b6457e0908390a3600180547fffffffffffffffffffffffff0000000000000000000000000000000000000000169055565b6108d5611245565b73ffffffffffffffffffffffffffffffffffffffff166108f3610945565b73ffffffffffffffffffffffffffffffffffffffff1614610940576040517f08c379a00000000000000000000000000000000000000000000000000000000081526004016102d29061302f565b600255565b60015473ffffffffffffffffffffffffffffffffffffffff1690565b600061096c336116f7565b6109a2576040517f08c379a00000000000000000000000000000000000000000000000000000000081526004016102d290613064565b60006109ae8584611751565b90506109ba81836131b0565b915060006109c6611ea2565b905060006109d2611fff565b905081811115610a1d577f3555ffae7677eb42103f0b9e11b61c758f452fae446684dec7a363dd38ab58fc610a07838361323e565b604051610a14919061317b565b60405180910390a15b60005b600854811015610d1957600060088281548110610a66577f4e487b7100000000000000000000000000000000000000000000000000000000600052603260045260246000fd5b600091825260208083209091015473ffffffffffffffffffffffffffffffffffffffff1680835260049091526040822090925090610aa382612155565b90506000610ab083612167565b9050600060028054606460035485610ac89190613201565b610ad291906131c8565b610adc91906131c8565b610ae691906131c8565b90508a15610aff57610af8818b6131b0565b9950610b62565b73ffffffffffffffffffffffffffffffffffffffff8581166000908152600960205260409020600181018390556002810180547fffffffffffffffffffffffff000000000000000000000000000000000000000016928f16929092179091554390555b610b6c82826131b0565b8310610ca657610b7a61217a565b73ffffffffffffffffffffffffffffffffffffffff1663d9caed12610b9d612226565b73ffffffffffffffffffffffffffffffffffffffff16631f1cb62b6040518163ffffffff1660e01b815260040160206040518083038186803b158015610be257600080fd5b505afa158015610bf6573d6000803e3d6000fd5b505050506040513d601f19601f82011682018060405250810190610c1a9190612b20565b8784610c26878961323e565b610c30919061323e565b6040518463ffffffff1660e01b8152600401610c4e93929190612d49565b602060405180830381600087803b158015610c6857600080fd5b505af1158015610c7c573d6000803e3d6000fd5b505050506040513d601f19601f82011682018060405250810190610ca09190612cdc565b50610cf8565b600083610cb383856131b0565b610cbd919061323e565b90507f3555ffae7677eb42103f0b9e11b61c758f452fae446684dec7a363dd38ab58fc81604051610cee919061317b565b60405180910390a1505b610d018461227e565b50505050508080610d1190613255565b915050610a20565b505050509392505050565b610d2d33611249565b610d63576040517f08c379a00000000000000000000000000000000000000000000000000000000081526004016102d29061311e565b73ffffffffffffffffffffffffffffffffffffffff83166000908152600460205260409020610d939083836123fa565b505050565b610da133611249565b610dd7576040517f08c379a00000000000000000000000000000000000000000000000000000000081526004016102d29061311e565b73ffffffffffffffffffffffffffffffffffffffff808416600090815260046020818152604080842094871684529184019052902054610e1890839061323e565b73ffffffffffffffffffffffffffffffffffffffff84166000908152600483016020526040902055610e4981612571565b610645576040517f08c379a00000000000000000000000000000000000000000000000000000000081526004016102d290612fd2565b73ffffffffffffffffffffffffffffffffffffffff81166000908152600460209081526040918290208054835181840281018401909452808452606093849390918391830182828015610f0857602002820191906000526020600020905b815473ffffffffffffffffffffffffffffffffffffffff168152600190910190602001808311610edd575b50508454939650505067ffffffffffffffff8211159050610f52577f4e487b7100000000000000000000000000000000000000000000000000000000600052604160045260246000fd5b604051908082528060200260200182016040528015610f7b578160200160208202803683370190505b50915060005b80845111156105cf576000848281518110610fc5577f4e487b7100000000000000000000000000000000000000000000000000000000600052603260045260246000fd5b60200260200101519050610fd76125bc565b73ffffffffffffffffffffffffffffffffffffffff828116600090815260018601602090815260408083205460028901909252918290205491517f687680ed000000000000000000000000000000000000000000000000000000008152939092169263687680ed92611050929091869190600401613184565b60206040518083038186803b15801561106857600080fd5b505afa15801561107c573d6000803e3d6000fd5b505050506040513d601f19601f820116820180604052508101906110a09190612d10565b8483815181106110d9577f4e487b7100000000000000000000000000000000000000000000000000000000600052603260045260246000fd5b602090810291909101015250806110ef81613255565b915050610f81565b6110ff611245565b73ffffffffffffffffffffffffffffffffffffffff1661111d610945565b73ffffffffffffffffffffffffffffffffffffffff161461116a576040517f08c379a00000000000000000000000000000000000000000000000000000000081526004016102d29061302f565b73ffffffffffffffffffffffffffffffffffffffff81166111b7576040517f08c379a00000000000000000000000000000000000000000000000000000000081526004016102d290612f18565b60015460405173ffffffffffffffffffffffffffffffffffffffff8084169216907f8be0079c531659141344cd1fd0a4f28419497f9722a3daafe3b4186f6b6457e090600090a3600180547fffffffffffffffffffffffff00000000000000000000000000000000000000001673ffffffffffffffffffffffffffffffffffffffff92909216919091179055565b3390565b600080546040517fa716b97f00000000000000000000000000000000000000000000000000000000815273ffffffffffffffffffffffffffffffffffffffff9091169063a716b97f906112a3908590600390600401612d7a565b60206040518083038186803b1580156112bb57600080fd5b505afa1580156112cf573d6000803e3d6000fd5b505050506040513d601f19601f820116820180604052508101906112f39190612cdc565b90505b919050565b6113058383612614565b6114165782546001810184556000848152602090200180547fffffffffffffffffffffffff00000000000000000000000000000000000000001673ffffffffffffffffffffffffffffffffffffffff84161790556113616125bc565b73ffffffffffffffffffffffffffffffffffffffff1663e7bde5c1836040518263ffffffff1660e01b81526004016113999190612d28565b60206040518083038186803b1580156113b157600080fd5b505afa1580156113c5573d6000803e3d6000fd5b505050506040513d601f19601f820116820180604052508101906113e99190612d10565b73ffffffffffffffffffffffffffffffffffffffff83166000908152600285016020526040902055611512565b61141e6125bc565b73ffffffffffffffffffffffffffffffffffffffff838116600090815260018601602090815260408083205460028901909252918290205491517fe695fa68000000000000000000000000000000000000000000000000000000008152939092169263e695fa6892611497929091879190600401613184565b602060405180830381600087803b1580156114b157600080fd5b505af11580156114c5573d6000803e3d6000fd5b505050506040513d601f19601f820116820180604052508101906114e99190612d10565b73ffffffffffffffffffffffffffffffffffffffff831660009081526001850160205260409020555b73ffffffffffffffffffffffffffffffffffffffff82166000908152600184016020526040812080548392906115499084906131b0565b9091555061155a9050838383611606565b61156383612571565b610d93576040517f08c379a00000000000000000000000000000000000000000000000000000000081526004016102d2906130c1565b73ffffffffffffffffffffffffffffffffffffffff841660009081526004860160205260409020546115cc90839061323e565b73ffffffffffffffffffffffffffffffffffffffff851660009081526004870160205260409020556115ff858483611606565b5050505050565b6116108383612642565b61166a57600383018054600181018255600091825260209091200180547fffffffffffffffffffffffff00000000000000000000000000000000000000001673ffffffffffffffffffffffffffffffffffffffff84161790555b73ffffffffffffffffffffffffffffffffffffffff82166000908152600484016020526040812080548392906116a19084906131b0565b9091555050505050565b6000818311156116bc5750806116bf565b50815b92915050565b73ffffffffffffffffffffffffffffffffffffffff821660009081526004840160205260409020548111159392505050565b600080546040517fa716b97f00000000000000000000000000000000000000000000000000000000815273ffffffffffffffffffffffffffffffffffffffff9091169063a716b97f906112a3908590600190600401612d7a565b6040805160008082526020820192839052905190916117739160069190612a32565b50604080516000815260208101918290525161179191600791612a32565b5060408051600081526020810191829052516117af91600891612a32565b5060005b8084511115611e9b5760008482815181106117f7577f4e487b7100000000000000000000000000000000000000000000000000000000600052603260045260246000fd5b602002602001015190506000600460008373ffffffffffffffffffffffffffffffffffffffff1673ffffffffffffffffffffffffffffffffffffffff168152602001908152602001600020905061184d81612671565b15611c5c576008805460018101825560009182527ff3f7a9fe364faab93b216da50a3214154f22a0a2b415b23a84c8169e8b636ee30180547fffffffffffffffffffffffff00000000000000000000000000000000000000001673ffffffffffffffffffffffffffffffffffffffff85161790555b6003820154811015611a3a57600082600301828154811061190c577f4e487b7100000000000000000000000000000000000000000000000000000000600052603260045260246000fd5b600091825260208083209091015473ffffffffffffffffffffffffffffffffffffffff168083526005909152604090912060028101549192509043146119e25773ffffffffffffffffffffffffffffffffffffffff821660008181526004860160205260408120546001808501919091558184554360028501556006805491820181559091527ff652222313e28459528d920b65115c16c04f3efc82aaedc97be59f3f377c0d3f0180547fffffffffffffffffffffffff0000000000000000000000000000000000000000169091179055611a25565b73ffffffffffffffffffffffffffffffffffffffff8216600090815260048501602052604081205460018301805491929091611a1f9084906131b0565b90915550505b50508080611a3290613255565b9150506118c2565b5060005b8154811015611c5a576000826000018281548110611a85577f4e487b7100000000000000000000000000000000000000000000000000000000600052603260045260246000fd5b600091825260208083209091015473ffffffffffffffffffffffffffffffffffffffff1680835260059091526040822090925090611ac16125bc565b73ffffffffffffffffffffffffffffffffffffffff1663e7bde5c1846040518263ffffffff1660e01b8152600401611af99190612d28565b60206040518083038186803b158015611b1157600080fd5b505afa158015611b25573d6000803e3d6000fd5b505050506040513d601f19601f82011682018060405250810190611b499190612d10565b73ffffffffffffffffffffffffffffffffffffffff8416600090815260028701602090815260408083205460018a019092528220549293509091611b8e908490613201565b611b9891906131c8565b905043836002015414611c2957600060018481018290558285554360028601556007805491820181559091527fa66cc928b5edb82af9bd49922954155ab7b0942694bea4ce44661d9a8736c6880180547fffffffffffffffffffffffff00000000000000000000000000000000000000001673ffffffffffffffffffffffffffffffffffffffff8616179055611c43565b80836000016000828254611c3d91906131b0565b90915550505b505050508080611c5290613255565b915050611a3e565b505b73ffffffffffffffffffffffffffffffffffffffff82166000908152600960205260409020600181015415801590611c915750855b15611e85578054600090611cbc90611caa4360016131b0565b611cb4919061323e565b600a546116ab565b90506000600a54836001015483611cd39190613201565b611cdd91906131c8565b9050611ce761217a565b73ffffffffffffffffffffffffffffffffffffffff1663d9caed12611d0a612226565b73ffffffffffffffffffffffffffffffffffffffff16631f1cb62b6040518163ffffffff1660e01b815260040160206040518083038186803b158015611d4f57600080fd5b505afa158015611d63573d6000803e3d6000fd5b505050506040513d601f19601f82011682018060405250810190611d879190612b20565b60028601546040517fffffffff0000000000000000000000000000000000000000000000000000000060e085901b168152611dde929173ffffffffffffffffffffffffffffffffffffffff16908690600401612d49565b602060405180830381600087803b158015611df857600080fd5b505af1158015611e0c573d6000803e3d6000fd5b505050506040513d601f19601f82011682018060405250810190611e309190612cdc565b50808360010154611e41919061323e565b611e4b90886131b0565b6000600185018190556002850180547fffffffffffffffffffffffff00000000000000000000000000000000000000001690558455965050505b5050508080611e9390613255565b9150506117b3565b5092915050565b6000805b600654811015611ffb57600060068281548110611eec577f4e487b7100000000000000000000000000000000000000000000000000000000600052603260045260246000fd5b600091825260208083209091015473ffffffffffffffffffffffffffffffffffffffff16808352600590915260409091208054600182015492935090911115611fe65780546001820154600091611f429161323e565b9050611f4c612226565b73ffffffffffffffffffffffffffffffffffffffff166305883f7c84836040518363ffffffff1660e01b8152600401611f86929190612db4565b602060405180830381600087803b158015611fa057600080fd5b505af1158015611fb4573d6000803e3d6000fd5b505050506040513d601f19601f82011682018060405250810190611fd89190612d10565b611fe290866131b0565b9450505b50508080611ff390613255565b915050611ea6565b5090565b6000805b600754811015611ffb57600060078281548110612049577f4e487b7100000000000000000000000000000000000000000000000000000000600052603260045260246000fd5b600091825260208083209091015473ffffffffffffffffffffffffffffffffffffffff1680835260059091526040909120600181015481549293509091111561214057612094612226565b73ffffffffffffffffffffffffffffffffffffffff166305883f7c83836001015484600001546120c4919061323e565b6040518363ffffffff1660e01b81526004016120e1929190612db4565b602060405180830381600087803b1580156120fb57600080fd5b505af115801561210f573d6000803e3d6000fd5b505050506040513d601f19601f820116820180604052508101906121339190612d10565b61213d90856131b0565b93505b5050808061214d90613255565b915050612003565b60006112f382600301836004016126cb565b60006112f3826001810160028201612819565b600080546040517f36214c7800000000000000000000000000000000000000000000000000000000815273ffffffffffffffffffffffffffffffffffffffff909116906336214c78906121d1908490600401612e6a565b60206040518083038186803b1580156121e957600080fd5b505afa1580156121fd573d6000803e3d6000fd5b505050506040513d601f19601f820116820180604052508101906122219190612b20565b905090565b600080546040517f36214c7800000000000000000000000000000000000000000000000000000000815273ffffffffffffffffffffffffffffffffffffffff909116906336214c78906121d190600590600401612e6a565b60005b81548110156123195760008260000182815481106122c8577f4e487b7100000000000000000000000000000000000000000000000000000000600052603260045260246000fd5b600091825260208083209091015473ffffffffffffffffffffffffffffffffffffffff168252600185018152604080832083905560028601909152812055508061231181613255565b915050612281565b5060005b60038201548110156123dd576000826003018281548110612367577f4e487b7100000000000000000000000000000000000000000000000000000000600052603260045260246000fd5b600091825260208083209091015473ffffffffffffffffffffffffffffffffffffffff168252600485018152604080832083905560058601909152902080547fffffffffffffffffffffffffffffffffffffffffffffffffffffffffffffff0016905550806123d581613255565b91505061231d565b506123e9816000612ab8565b6123f7600382016000612ab8565b50565b6124026125bc565b73ffffffffffffffffffffffffffffffffffffffff838116600090815260018601602090815260408083205460028901909252918290205491517fe695fa68000000000000000000000000000000000000000000000000000000008152939092169263e695fa689261247b929091879190600401613184565b602060405180830381600087803b15801561249557600080fd5b505af11580156124a9573d6000803e3d6000fd5b505050506040513d601f19601f820116820180604052508101906124cd9190612d10565b73ffffffffffffffffffffffffffffffffffffffff83166000908152600185016020526040902081905561250290829061323e565b73ffffffffffffffffffffffffffffffffffffffff83166000908152600185016020908152604080832093909355600486019052205461254390829061323e565b73ffffffffffffffffffffffffffffffffffffffff9092166000908152600490930160205250604090912055565b60008061257d83612167565b9050600061258a84612155565b90506002548261259a9190613201565b6002546125a89060016131b0565b6125b29083613201565b1015949350505050565b600080546040517f36214c7800000000000000000000000000000000000000000000000000000000815273ffffffffffffffffffffffffffffffffffffffff909116906336214c78906121d190600190600401612e6a565b73ffffffffffffffffffffffffffffffffffffffff1660009081526002919091016020526040902054151590565b73ffffffffffffffffffffffffffffffffffffffff166000908152600591909101602052604090205460ff1690565b60008061267d83612167565b9050600061268a84612155565b905081600354600254606461269f9190613201565b6126a991906131b0565b6126b39190613201565b6002546126c09083613201565b6125b2906064613201565b6000805b8354811015611e9b576000848281548110612713577f4e487b7100000000000000000000000000000000000000000000000000000000600052603260045260246000fd5b60009182526020909120015473ffffffffffffffffffffffffffffffffffffffff16905061273f612226565b73ffffffffffffffffffffffffffffffffffffffff828116600090815260208790526040908190205490517fe47109a9000000000000000000000000000000000000000000000000000000008152929091169163e47109a9916127a791859190600401612db4565b602060405180830381600087803b1580156127c157600080fd5b505af11580156127d5573d6000803e3d6000fd5b505050506040513d601f19601f820116820180604052508101906127f99190612d10565b61280390846131b0565b925050808061281190613255565b9150506126cf565b6000805b845481101561071f576000858281548110612861577f4e487b7100000000000000000000000000000000000000000000000000000000600052603260045260246000fd5b600091825260208083209091015473ffffffffffffffffffffffffffffffffffffffff16808352908790526040909120549091506128a1908290866128c1565b6128ab90846131b0565b92505080806128b990613255565b91505061281d565b6000806128cc6125bc565b73ffffffffffffffffffffffffffffffffffffffff1663e7bde5c1866040518263ffffffff1660e01b81526004016129049190612d28565b60206040518083038186803b15801561291c57600080fd5b505afa158015612930573d6000803e3d6000fd5b505050506040513d601f19601f820116820180604052508101906129549190612d10565b73ffffffffffffffffffffffffffffffffffffffff8616600090815260208590526040812054919250906129888387613201565b61299291906131c8565b905061299c612226565b73ffffffffffffffffffffffffffffffffffffffff1663e47109a987836040518363ffffffff1660e01b81526004016129d6929190612db4565b602060405180830381600087803b1580156129f057600080fd5b505af1158015612a04573d6000803e3d6000fd5b505050506040513d601f19601f82011682018060405250810190612a289190612d10565b9695505050505050565b828054828255906000526020600020908101928215612aac579160200282015b82811115612aac57825182547fffffffffffffffffffffffff00000000000000000000000000000000000000001673ffffffffffffffffffffffffffffffffffffffff909116178255602090920191600190910190612a52565b50611ffb929150612ad2565b50805460008255906000526020600020908101906123f791905b5b80821115611ffb5760008155600101612ad3565b80356112f68161331b565b80356112f68161333d565b600060208284031215612b0e578081fd5b8135612b198161331b565b9392505050565b600060208284031215612b31578081fd5b8151612b198161331b565b600080600080600060a08688031215612b53578081fd5b8535612b5e8161331b565b94506020860135612b6e8161331b565b93506040860135612b7e8161331b565b94979396509394606081013594506080013592915050565b600080600060608486031215612baa578283fd5b8335612bb58161331b565b92506020840135612bc58161331b565b929592945050506040919091013590565b600080600060608486031215612bea578283fd5b833567ffffffffffffffff80821115612c01578485fd5b818601915086601f830112612c14578485fd5b8135602082821115612c2857612c286132ec565b8082026040517fffffffffffffffffffffffffffffffffffffffffffffffffffffffffffffffe0603f83011681018181108682111715612c6a57612c6a6132ec565b604052838152828101945085830182870184018c1015612c8857898afd5b8996505b84871015612cb157612c9d81612ae7565b865260019690960195948301948301612c8c565b509750612cc19050888201612ae7565b955050505050612cd360408501612af2565b90509250925092565b600060208284031215612ced578081fd5b8151612b198161333d565b600060208284031215612d09578081fd5b5035919050565b600060208284031215612d21578081fd5b5051919050565b73ffffffffffffffffffffffffffffffffffffffff91909116815260200190565b73ffffffffffffffffffffffffffffffffffffffff9384168152919092166020820152604081019190915260600190565b73ffffffffffffffffffffffffffffffffffffffff831681526040810160088310612da757612da76132bd565b8260208301529392505050565b73ffffffffffffffffffffffffffffffffffffffff929092168252602082015260400190565b604080825283519082018190526000906020906060840190828701845b82811015612e2957815173ffffffffffffffffffffffffffffffffffffffff1684529284019290840190600101612df7565b50505083810382850152845180825285830191830190845b81811015612e5d57835183529284019291840191600101612e41565b5090979650505050505050565b6020810160068310612e7e57612e7e6132bd565b91905290565b60208082526039908201527f43616c6c696e6720636f6e7472616374206973206e6f7420616e20617574686f60408201527f72697a6564206d617267696e20747261646572206167656e7400000000000000606082015260800190565b60208082526018908201527f43616e277420626f72726f772066756c6c20616d6f756e740000000000000000604082015260600190565b60208082526026908201527f4f776e61626c653a206e6577206f776e657220697320746865207a65726f206160408201527f6464726573730000000000000000000000000000000000000000000000000000606082015260800190565b60208082526033908201527f43616c6c696e6720636f6e7472616374206973206e6f7420616e20617574686f60408201527f72697a6564206d617267696e2074726164657200000000000000000000000000606082015260800190565b60208082526026908201527f4163636f756e742062616c616e636520697320746f6f206c6f7720746f20776960408201527f7468647261770000000000000000000000000000000000000000000000000000606082015260800190565b6020808252818101527f4f776e61626c653a2063616c6c6572206973206e6f7420746865206f776e6572604082015260600190565b6020808252602f908201527f43616c6c696e67206164647265737320646f65736e27742068617665206d617260408201527f67696e2063616c6c657220726f6c650000000000000000000000000000000000606082015260800190565b60208082526022908201527f43616e277420626f72726f773a20696e73756666696369656e742062616c616e60408201527f6365000000000000000000000000000000000000000000000000000000000000606082015260800190565b6020808252602a908201527f43616c6c696e6720636f6e7472616374206e6f7420617574686f72697a65642060408201527f746f206465706f73697400000000000000000000000000000000000000000000606082015260800190565b90815260200190565b92835273ffffffffffffffffffffffffffffffffffffffff919091166020830152604082015260600190565b600082198211156131c3576131c361328e565b500190565b6000826131fc577f4e487b710000000000000000000000000000000000000000000000000000000081526012600452602481fd5b500490565b6000817fffffffffffffffffffffffffffffffffffffffffffffffffffffffffffffffff04831182151516156132395761323961328e565b500290565b6000828210156132505761325061328e565b500390565b60007fffffffffffffffffffffffffffffffffffffffffffffffffffffffffffffffff8214156132875761328761328e565b5060010190565b7f4e487b7100000000000000000000000000000000000000000000000000000000600052601160045260246000fd5b7f4e487b7100000000000000000000000000000000000000000000000000000000600052602160045260246000fd5b7f4e487b7100000000000000000000000000000000000000000000000000000000600052604160045260246000fd5b73ffffffffffffffffffffffffffffffffffffffff811681146123f757600080fd5b80151581146123f757600080fdfea26469706673582212208fa7c3e8ab56fb6c68c7dfec2977cf3efda0333d9bc8aa94a135eb454ab645b364736f6c6343000801003360806040523480156200001157600080fd5b5060405162002c3b38038062002c3b8339810160408190526200003491620000b2565b600080546001600160a01b0319166001600160a01b03831617815562000059620000ae565b600180546001600160a01b0319166001600160a01b038316908117909155604051919250906000907f8be0079c531659141344cd1fd0a4f28419497f9722a3daafe3b4186f6b6457e0908290a35050620000e2565b3390565b600060208284031215620000c4578081fd5b81516001600160a01b0381168114620000db578182fd5b9392505050565b612b4980620000f26000396000f3fe608060405234801561001057600080fd5b50600436106102de5760003560e01c80638da5cb5b11610186578063d3dc14b2116100e3578063e7bde5c111610097578063f11f979511610071578063f11f9795146105a1578063f2fde38b146105a9578063f884614b146105bc576102de565b8063e7bde5c114610568578063e84bfdf41461057b578063ee0862bf1461058e576102de565b8063e2e1ca2b116100c8578063e2e1ca2b1461052f578063e695fa6814610542578063e69f895914610555576102de565b8063d3dc14b214610509578063dcaf80291461051c576102de565b8063c1cea8071161013a578063c43a683d1161011f578063c43a683d146104db578063c4f7d45d146104e3578063cd3b5dfb146104f6576102de565b8063c1cea807146104b5578063c3daab96146104c8576102de565b8063a8b151a11161016b578063a8b151a114610492578063aa7e321d1461049a578063bfedc0bf146104a2576102de565b80638da5cb5b146104825780639229e73f1461048a576102de565b8063392f5f641161023f5780635f1c17c0116101f3578063773bbb3b116101cd578063773bbb3b146104455780637b8b4ee21461044d57806383a0422914610460576102de565b80635f1c17c014610404578063687680ed1461042a578063715018a61461043d576102de565b806340fe56a91161022457806340fe56a9146103d657806349f7cff6146103e957806358d51f91146103fc576102de565b8063392f5f64146103ae5780633aa58f45146103c3576102de565b80631744a9b61161029657806320b155151161027b57806320b1551514610375578063247ae0a6146103885780632a6a897b1461039b576102de565b80631744a9b61461034f5780631799f0c314610362576102de565b80630bba92b3116102c75780630bba92b3146103145780630f7c43dc1461032757806316de7a431461033c576102de565b80630196c361146102e35780630b5505461461030c575b600080fd5b6102f66102f136600461249a565b6105cf565b6040516103039190612975565b60405180910390f35b6102f6610600565b6102f66103223660046124c5565b610606565b61033a61033536600461249a565b6106d4565b005b61033a61034a36600461249a565b61071f565b6102f661035d366004612423565b61085d565b6102f6610370366004612423565b61086f565b6102f6610383366004612423565b610881565b6102f661039636600461249a565b610893565b61033a6103a936600461249a565b6108af565b6103b661092c565b60405161030391906125a2565b6102f66103d1366004612423565b610948565b6102f66103e436600461249a565b61095a565b6102f66103f7366004612423565b610976565b6102f6610988565b610417610412366004612553565b61098e565b60405161030397969594939291906125f4565b6102f661043836600461256b565b6109e4565b61033a610a09565b6102f6610aeb565b6102f661045b3660046124f9565b610af1565b61047361046e366004612462565b610f30565b6040516103039392919061297e565b6103b6610f5c565b6102f6610f78565b6102f6610f7e565b6102f6610f84565b6104736104b0366004612423565b610f8a565b6102f66104c3366004612423565b610fab565b61033a6104d6366004612553565b610fbd565b6102f6611332565b6102f66104f136600461249a565b611338565b610473610504366004612423565b611354565b6102f661051736600461249a565b611375565b6102f661052a36600461249a565b611391565b6102f661053d366004612423565b6113ad565b6102f661055036600461256b565b6113bf565b6102f661056336600461249a565b6113df565b6102f6610576366004612423565b6113fb565b6102f661058936600461249a565b61140f565b61033a61059c36600461249a565b61142b565b6102f66115d4565b61033a6105b7366004612423565b6115da565b61033a6105ca366004612423565b611728565b601660205281600052604060002081815481106105eb57600080fd5b90600052602060002001600091509150505481565b600f5481565b6000806106138585611787565b905060006106ae86601a60008973ffffffffffffffffffffffffffffffffffffffff1673ffffffffffffffffffffffffffffffffffffffff1681526020019081526020016000208481548110610692577f4e487b7100000000000000000000000000000000000000000000000000000000600052603260045260246000fd5b9060005260206000200154866106a89190612994565b846117c8565b90506401000000006106c085836129c0565b6106ca91906129ac565b9695505050505050565b73ffffffffffffffffffffffffffffffffffffffff82166000908152600760209081526040808320338452909152902061070e8382611b13565b61071a83823385611bd2565b505050565b73ffffffffffffffffffffffffffffffffffffffff8216600090815260026020526040902054610750908290612994565b73ffffffffffffffffffffffffffffffffffffffff83166000908152600460205260409020541061085957610783611d8f565b73ffffffffffffffffffffffffffffffffffffffff166347e7ef2483836040518363ffffffff1660e01b81526004016107bd929190612679565b602060405180830381600087803b1580156107d757600080fd5b505af11580156107eb573d6000803e3d6000fd5b505050506040513d601f19601f8201168201806040525081019061080f9190612533565b61084e576040517f08c379a000000000000000000000000000000000000000000000000000000000815260040161084590612918565b60405180910390fd5b610859823383611e3b565b5050565b60046020526000908152604090205481565b60056020526000908152604090205481565b600b6020526000908152604090205481565b601560205281600052604060002081815481106105eb57600080fd5b6108b833611f46565b6108ee576040517f08c379a0000000000000000000000000000000000000000000000000000000008152600401610845906128e1565b73ffffffffffffffffffffffffffffffffffffffff8216600090815260036020526040812080548392906109239084906129fd565b90915550505050565b60005473ffffffffffffffffffffffffffffffffffffffff1681565b600a6020526000908152604090205481565b601260205281600052604060002081815481106105eb57600080fd5b60096020526000908152604090205481565b60115481565b601960205260009081526040902080546001820154600283015460038401546004850154600586015460069096015473ffffffffffffffffffffffffffffffffffffffff95861696959094169492939192909187565b6000806109f384601d42611ff0565b9050610a00858285612057565b95945050505050565b610a1161206e565b73ffffffffffffffffffffffffffffffffffffffff16610a2f610f5c565b73ffffffffffffffffffffffffffffffffffffffff1614610a7c576040517f08c379a000000000000000000000000000000000000000000000000000000000815260040161084590612807565b60015460405160009173ffffffffffffffffffffffffffffffffffffffff16907f8be0079c531659141344cd1fd0a4f28419497f9722a3daafe3b4186f6b6457e0908390a3600180547fffffffffffffffffffffffff0000000000000000000000000000000000000000169055565b600d5481565b73ffffffffffffffffffffffffffffffffffffffff8416600090815260026020526040812054610b22908490612994565b73ffffffffffffffffffffffffffffffffffffffff861660009081526004602052604090205410801590610b58575083600e5410155b8015610b665750600d548410155b15610f28576000610b778686611787565b90506000610c0c87601a60008a73ffffffffffffffffffffffffffffffffffffffff1673ffffffffffffffffffffffffffffffffffffffff1681526020019081526020016000208481548110610bf6577f4e487b7100000000000000000000000000000000000000000000000000000000600052603260045260246000fd5b9060005260206000200154876106a89190612994565b90506000640100000000610c2087846129c0565b610c2a91906129ac565b9050848110610f2457610c3b611d8f565b73ffffffffffffffffffffffffffffffffffffffff1663b3db428b338a896040518463ffffffff1660e01b8152600401610c77939291906125c3565b602060405180830381600087803b158015610c9157600080fd5b505af1158015610ca5573d6000803e3d6000fd5b505050506040513d601f19601f82011682018060405250810190610cc99190612533565b15610f245760006002610cdc8389612994565b610ce691906129ac565b73ffffffffffffffffffffffffffffffffffffffff8a16600090815260026020526040812080549293508392909190610d20908490612994565b909155505073ffffffffffffffffffffffffffffffffffffffff89166000908152601a60205260409020805482919086908110610d86577f4e487b7100000000000000000000000000000000000000000000000000000000600052603260045260246000fd5b906000526020600020016000828254610d9f9190612994565b90915550889050610db084896129c0565b610dbc90610e106129c0565b610dc691906129ac565b73ffffffffffffffffffffffffffffffffffffffff8a1660009081526005602052604081208054909190610dfb908490612994565b9091555050601c8054955085906000610e1383612a14565b90915550506040805160e08101825233815273ffffffffffffffffffffffffffffffffffffffff8b1660208201529081018890526060810183905260808101610e5c8a42612994565b815260208082018b90526040918201869052600088815260198252828120845181547fffffffffffffffffffffffff000000000000000000000000000000000000000090811673ffffffffffffffffffffffffffffffffffffffff92831617835586850151600184018054909216908316179055858501516002830155606086015160038301556080860151600483015560a0860151600583015560c090950151600690910155928c1683526014815281832060159091529120610f229190868a612072565b505b5050505b949350505050565b600760209081526000928352604080842090915290825290208054600182015460029092015490919083565b60015473ffffffffffffffffffffffffffffffffffffffff1690565b600e5481565b600c5481565b601c5481565b60086020526000908152604090208054600182015460029092015490919083565b60026020526000908152604090205481565b6000818152601960205260409020805473ffffffffffffffffffffffffffffffffffffffff16331461101b576040517f08c379a00000000000000000000000000000000000000000000000000000000081526004016108459061283c565b80600401544211611058576040517f08c379a0000000000000000000000000000000000000000000000000000000008152600401610845906128aa565b6001810154600582015473ffffffffffffffffffffffffffffffffffffffff90911690600090611089908390611787565b905060006002846003015485600201546110a39190612994565b6110ad91906129ac565b73ffffffffffffffffffffffffffffffffffffffff84166000908152600260205260408120805492935083929091906110e79084906129fd565b909155505073ffffffffffffffffffffffffffffffffffffffff83166000908152601a6020526040902080548291908490811061114d577f4e487b7100000000000000000000000000000000000000000000000000000000600052603260045260246000fd5b90600052602060002001600082825461116691906129fd565b909155505073ffffffffffffffffffffffffffffffffffffffff83166000908152601660209081526040808320601790925290912060028601546111ad9291908590612072565b73ffffffffffffffffffffffffffffffffffffffff831660009081526002602090815260408083205460039092529091205411806112a157506111ee611d8f565b845460038601546040517fd9caed1200000000000000000000000000000000000000000000000000000000815273ffffffffffffffffffffffffffffffffffffffff9384169363d9caed129361124d93899392909116916004016125c3565b602060405180830381600087803b15801561126757600080fd5b505af115801561127b573d6000803e3d6000fd5b505050506040513d601f19601f8201168201806040525081019061129f9190612533565b155b1561132b578354600385015460405173ffffffffffffffffffffffffffffffffffffffff928316928616917fbcab653cf73e12f7bb78aa625dccb002864f5de7de2518796fb5b82fd6e6ab05916112f89190612975565b60405180910390a38354600385015461132b91859173ffffffffffffffffffffffffffffffffffffffff9091169061220d565b5050505050565b60105481565b601860205281600052604060002081815481106105eb57600080fd5b601d6020526000908152604090208054600182015460029092015490919083565b601a60205281600052604060002081815481106105eb57600080fd5b601760205281600052604060002081815481106105eb57600080fd5b60036020526000908152604090205481565b6000806113ce84601d42612218565b9050610a0085826000015485612057565b601460205281600052604060002081815481106105eb57600080fd5b600061140982601d42611ff0565b92915050565b601360205281600052604060002081815481106105eb57600080fd5b61143433611f46565b61146a576040517f08c379a0000000000000000000000000000000000000000000000000000000008152600401610845906128e1565b611472611d8f565b73ffffffffffffffffffffffffffffffffffffffff16635acf6903836040518263ffffffff1660e01b81526004016114aa91906125a2565b60206040518083038186803b1580156114c257600080fd5b505afa1580156114d6573d6000803e3d6000fd5b505050506040513d601f19601f820116820180604052508101906114fa9190612533565b611530576040517f08c379a000000000000000000000000000000000000000000000000000000000815260040161084590612873565b73ffffffffffffffffffffffffffffffffffffffff821660009081526003602052604081208054839290611565908490612994565b909155505073ffffffffffffffffffffffffffffffffffffffff82166000908152600360209081526040808320546002909252909120541015610859576040517f08c379a0000000000000000000000000000000000000000000000000000000008152600401610845906126b9565b60065481565b6115e261206e565b73ffffffffffffffffffffffffffffffffffffffff16611600610f5c565b73ffffffffffffffffffffffffffffffffffffffff161461164d576040517f08c379a000000000000000000000000000000000000000000000000000000000815260040161084590612807565b73ffffffffffffffffffffffffffffffffffffffff811661169a576040517f08c379a000000000000000000000000000000000000000000000000000000000815260040161084590612716565b60015460405173ffffffffffffffffffffffffffffffffffffffff8084169216907f8be0079c531659141344cd1fd0a4f28419497f9722a3daafe3b4186f6b6457e090600090a3600180547fffffffffffffffffffffffff00000000000000000000000000000000000000001673ffffffffffffffffffffffffffffffffffffffff92909216919091179055565b73ffffffffffffffffffffffffffffffffffffffff8116600090815260076020908152604080832033845290915290206117628282611b13565b6117728282338460000154611bd2565b60008082556001820181905560029091015550565b73ffffffffffffffffffffffffffffffffffffffff82166000908152601b602052604081208054600f5483916117bc916129ac565b9050610a0081856129ac565b73ffffffffffffffffffffffffffffffffffffffff83166000908152601b60205260408120805483908110611826577f4e487b7100000000000000000000000000000000000000000000000000000000600052603260045260246000fd5b906000526020600020015490506000601860008673ffffffffffffffffffffffffffffffffffffffff1673ffffffffffffffffffffffffffffffffffffffff16815260200190815260200160002083815481106118ac577f4e487b7100000000000000000000000000000000000000000000000000000000600052603260045260246000fd5b906000526020600020015490506000601054601360008873ffffffffffffffffffffffffffffffffffffffff1673ffffffffffffffffffffffffffffffffffffffff1681526020019081526020016000208581548110611935577f4e487b7100000000000000000000000000000000000000000000000000000000600052603260045260246000fd5b600091825260208083209091015473ffffffffffffffffffffffffffffffffffffffff8a168352600490915260409091205461197191906129c0565b61197b91906129ac565b73ffffffffffffffffffffffffffffffffffffffff8716600090815260146020526040812080549293509091869081106119de577f4e487b7100000000000000000000000000000000000000000000000000000000600052603260045260246000fd5b906000526020600020015490506000601660008973ffffffffffffffffffffffffffffffffffffffff1673ffffffffffffffffffffffffffffffffffffffff1681526020019081526020016000208681548110611a64577f4e487b7100000000000000000000000000000000000000000000000000000000600052603260045260246000fd5b906000526020600020015490506000601260008a73ffffffffffffffffffffffffffffffffffffffff1673ffffffffffffffffffffffffffffffffffffffff1681526020019081526020016000208781548110611aea577f4e487b7100000000000000000000000000000000000000000000000000000000600052603260045260246000fd5b90600052602060002001549050611b0686868a878787876122ae565b9998505050505050505050565b6001810154801561071a576000611b2c84600842612218565b8354815491925090611b4090829085612057565b808555600090611b519083906129fd565b73ffffffffffffffffffffffffffffffffffffffff8716600090815260096020526040812080549293508392909190611b8b908490612994565b909155505073ffffffffffffffffffffffffffffffffffffffff861660009081526002602052604081208054839290611bc5908490612994565b9091555050505050505050565b6000610e10846002015442611be791906129fd565b611bf19190612a4d565b9050806102581015611c2f576040517f08c379a0000000000000000000000000000000000000000000000000000000008152600401610845906127aa565b611c37611d8f565b73ffffffffffffffffffffffffffffffffffffffff1663d9caed128685856040518463ffffffff1660e01b8152600401611c73939291906125c3565b602060405180830381600087803b158015611c8d57600080fd5b505af1158015611ca1573d6000803e3d6000fd5b505050506040513d601f19601f82011682018060405250810190611cc59190612533565b611cfb576040517f08c379a000000000000000000000000000000000000000000000000000000000815260040161084590612773565b81846000016000828254611d0f91906129fd565b909155505073ffffffffffffffffffffffffffffffffffffffff851660009081526009602052604081208054849290611d499084906129fd565b909155505073ffffffffffffffffffffffffffffffffffffffff851660009081526002602052604081208054849290611d839084906129fd565b90915550505050505050565b600080546040517f36214c7800000000000000000000000000000000000000000000000000000000815273ffffffffffffffffffffffffffffffffffffffff909116906336214c7890611de690849060040161269f565b60206040518083038186803b158015611dfe57600080fd5b505afa158015611e12573d6000803e3d6000fd5b505050506040513d601f19601f82011682018060405250810190611e369190612446565b905090565b73ffffffffffffffffffffffffffffffffffffffff8084166000908152600760209081526040808320938616835292905220611e778482611b13565b73ffffffffffffffffffffffffffffffffffffffff84166000908152600860205260409020546001820155611eae610e1042612a4d565b6002820155805482908290600090611ec7908490612994565b909155505073ffffffffffffffffffffffffffffffffffffffff841660009081526009602052604081208054849290611f01908490612994565b909155505073ffffffffffffffffffffffffffffffffffffffff841660009081526002602052604081208054849290611f3b908490612994565b909155505050505050565b600080546040517fa716b97f00000000000000000000000000000000000000000000000000000000815273ffffffffffffffffffffffffffffffffffffffff9091169063a716b97f90611fa090859060029060040161263f565b60206040518083038186803b158015611fb857600080fd5b505afa158015611fcc573d6000803e3d6000fd5b505050506040513d601f19601f820116820180604052508101906114099190612533565b73ffffffffffffffffffffffffffffffffffffffff8316600090815260208390526040812060010154819061202590846129fd565b73ffffffffffffffffffffffffffffffffffffffff86166000908152602086905260409020909150610a00908261237a565b60008161206484866129c0565b610f2891906129ac565b3390565b8354600f54600091612083916129ac565b9050600061209184836129c0565b905060008585815481106120ce577f4e487b7100000000000000000000000000000000000000000000000000000000600052603260045260246000fd5b9060005260206000200154426120e491906129fd565b90506000816120f384876129c0565b6120fd91906129ac565b90506121098284612994565b61211383836129c0565b848a898154811061214d577f4e487b7100000000000000000000000000000000000000000000000000000000600052603260045260246000fd5b906000526020600020015461216291906129c0565b61216c9190612994565b61217691906129ac565b8887815481106121af577f4e487b7100000000000000000000000000000000000000000000000000000000600052603260045260246000fd5b9060005260206000200181905550428787815481106121f7577f4e487b7100000000000000000000000000000000000000000000000000000000600052603260045260246000fd5b6000918252602090912001555050505050505050565b61071a838383611e3b565b73ffffffffffffffffffffffffffffffffffffffff83166000908152602083815260408083206002808201546001830154918552838620546004865284872054600a875285882054600b9097529490962054600c549396612281969295939490939291906122ae565b6002820155600181015460009061229890846129fd565b90506122a4828261237a565b8255509392505050565b8660006122bb88426129fd565b90506000600654826122cd91906129c0565b905086881015806122fb57508486101580156122fb57506122ee88886129fd565b6122f886886129fd565b10155b156123275761230a81846129fd565b92508264010000000011156123225764010000000092505b61236d565b8787118015612350575085851180612350575061234485876129fd565b61234e89896129fd565b115b1561236d5761235f8184612994565b92508383111561236d578392505b5050979650505050505050565b600080612389610e1084612a4d565b905061239c640100000000610e106129c0565b6002850154855483916123ae916129c0565b6123b891906129c0565b6123c291906129ac565b915060006123d2610e10856129ac565b9050801561241b5760005b80821115612419576401000000008660020154856123fb91906129c0565b61240591906129ac565b93508061241181612a14565b9150506123dd565b505b505092915050565b600060208284031215612434578081fd5b813561243f81612aee565b9392505050565b600060208284031215612457578081fd5b815161243f81612aee565b60008060408385031215612474578081fd5b823561247f81612aee565b9150602083013561248f81612aee565b809150509250929050565b600080604083850312156124ac578182fd5b82356124b781612aee565b946020939093013593505050565b6000806000606084860312156124d9578081fd5b83356124e481612aee565b95602085013595506040909401359392505050565b6000806000806080858703121561250e578081fd5b843561251981612aee565b966020860135965060408601359560600135945092505050565b600060208284031215612544578081fd5b8151801515811461243f578182fd5b600060208284031215612564578081fd5b5035919050565b60008060006060848603121561257f578283fd5b83359250602084013561259181612aee565b929592945050506040919091013590565b73ffffffffffffffffffffffffffffffffffffffff91909116815260200190565b73ffffffffffffffffffffffffffffffffffffffff9384168152919092166020820152604081019190915260600190565b73ffffffffffffffffffffffffffffffffffffffff978816815295909616602086015260408501939093526060840191909152608083015260a082015260c081019190915260e00190565b73ffffffffffffffffffffffffffffffffffffffff83168152604081016008831061266c5761266c612abf565b8260208301529392505050565b73ffffffffffffffffffffffffffffffffffffffff929092168252602082015260400190565b60208101600683106126b3576126b3612abf565b91905290565b6020808252602e908201527f496e73756666696369656e74206361706974616c20746f206c656e642c20747260408201527f7920616761696e206c6174657221000000000000000000000000000000000000606082015260800190565b60208082526026908201527f4f776e61626c653a206e6577206f776e657220697320746865207a65726f206160408201527f6464726573730000000000000000000000000000000000000000000000000000606082015260800190565b60208082526016908201527f496e73756666696369656e74206c697175696469747900000000000000000000604082015260600190565b6020808252603f908201527f5472696564207769746864726177696e67206f7574736964652073756273637260408201527f697074696f6e2063616e63656c6c6174696f6e2074696d652077696e646f7700606082015260800190565b6020808252818101527f4f776e61626c653a2063616c6c6572206973206e6f7420746865206f776e6572604082015260600190565b60208082526012908201527f4e6f7420686f6c646572206f6620626f6e640000000000000000000000000000604082015260600190565b60208082526015908201527f4e6f7420616e20617070726f76656420746f6b656e0000000000000000000000604082015260600190565b60208082526016908201527f626f6e64206973207374696c6c20696d6d617475726500000000000000000000604082015260600190565b60208082526018908201527f4e6f7420616e20617070726f76656420626f72726f7765720000000000000000604082015260600190565b6020808252602d908201527f436f756c64206e6f74207472616e7366657220626f6e64206465706f7369742060408201527f746f6b656e20746f2066756e6400000000000000000000000000000000000000606082015260800190565b90815260200190565b9283526020830191909152604082015260600190565b600082198211156129a7576129a7612a61565b500190565b6000826129bb576129bb612a90565b500490565b6000817fffffffffffffffffffffffffffffffffffffffffffffffffffffffffffffffff04831182151516156129f8576129f8612a61565b500290565b600082821015612a0f57612a0f612a61565b500390565b60007fffffffffffffffffffffffffffffffffffffffffffffffffffffffffffffffff821415612a4657612a46612a61565b5060010190565b600082612a5c57612a5c612a90565b500690565b7f4e487b7100000000000000000000000000000000000000000000000000000000600052601160045260246000fd5b7f4e487b7100000000000000000000000000000000000000000000000000000000600052601260045260246000fd5b7f4e487b7100000000000000000000000000000000000000000000000000000000600052602160045260246000fd5b73ffffffffffffffffffffffffffffffffffffffff81168114612b1057600080fd5b5056fea26469706673582212205ba639cdc9c25a57ba54f3452534f9d45ee3b894e955e66f801e9db746001c1b64736f6c6343000801003360806040523480156200001157600080fd5b5060405162003603380380620036038339810160408190526200003491620000e9565b600080546001600160a01b03199081166001600160a01b03938416178255600160208190527fa6eef7e35abe7026729641147f7915573c7e97b47efa546f5f6e3230263bcb4980548316978516979097179096559490527fcc69885fda6bcc1a4ace058b4a62bf5e179ea78fd58a1ccd71c22cc9b688792f805485169382169390931790925560028054909316911617905562000145565b80516001600160a01b0381168114620000e457600080fd5b919050565b60008060008060808587031215620000ff578384fd5b6200010a85620000cc565b93506200011a60208601620000cc565b92506200012a60408601620000cc565b91506200013a60608601620000cc565b905092959194509250565b6134ae80620001556000396000f3fe6080604052600436106100d25760003560e01c806348eb4f3e1161007f578063a5f9a36211610059578063a5f9a362146101f9578063e3e0626b14610219578063eaa095f814610239578063eedb97c714610259576100d2565b806348eb4f3e146101b157806390b931ed146101d157806394427b20146101f1576100d2565b80631f2a6743116100b05780631f2a67431461014f5780632233c4361461016f578063392f5f641461018f576100d2565b80630aa29f1c146100d75780631306d9021461010d5780631dce3baa1461012f575b600080fd5b3480156100e357600080fd5b506100f76100f2366004612a6c565b610279565b6040516101049190612d4b565b60405180910390f35b34801561011957600080fd5b5061012d6101283660046129c9565b610377565b005b34801561013b57600080fd5b5061012d61014a366004612b8e565b61060c565b34801561015b57600080fd5b506100f761016a366004612a6c565b610752565b34801561017b57600080fd5b506100f761018a366004612ad2565b61083b565b34801561019b57600080fd5b506101a4610c5e565b6040516101049190612d8f565b3480156101bd57600080fd5b5061012d6101cc3660046129c9565b610c7a565b3480156101dd57600080fd5b506100f76101ec366004612a14565b610da1565b61012d610e93565b34801561020557600080fd5b506100f7610214366004612ad2565b6110ee565b34801561022557600080fd5b5061012d6102343660046129c9565b61143e565b34801561024557600080fd5b506100f7610254366004612a14565b6115bd565b34801561026557600080fd5b5061012d6102743660046129c9565b6116a5565b606061028433611796565b6102c3576040517f08c379a00000000000000000000000000000000000000000000000000000000081526004016102ba90612e27565b60405180910390fd5b61036b60016000886003811115610303577f4e487b7100000000000000000000000000000000000000000000000000000000600052602160045260246000fd5b600381111561033b577f4e487b7100000000000000000000000000000000000000000000000000000000600052602160045260246000fd5b815260208101919091526040016000205473ffffffffffffffffffffffffffffffffffffffff1686868686611848565b90505b95945050505050565b3332146103b0576040517f08c379a00000000000000000000000000000000000000000000000000000000081526004016102ba90612dca565b6103b8611b59565b73ffffffffffffffffffffffffffffffffffffffff1663b3db428b3384846040518463ffffffff1660e01b81526004016103f493929190612cba565b602060405180830381600087803b15801561040e57600080fd5b505af1158015610422573d6000803e3d6000fd5b505050506040513d601f19601f8201168201806040525081019061044691906129f4565b61047c576040517f08c379a00000000000000000000000000000000000000000000000000000000081526004016102ba90613066565b6000610486611c05565b73ffffffffffffffffffffffffffffffffffffffff166352a664d93385856040518463ffffffff1660e01b81526004016104c293929190612cba565b602060405180830381600087803b1580156104dc57600080fd5b505af11580156104f0573d6000803e3d6000fd5b505050506040513d601f19601f820116820180604052508101906105149190612ba6565b9050801561060757610524611c05565b73ffffffffffffffffffffffffffffffffffffffff1663b25777ad3385846040518463ffffffff1660e01b815260040161056093929190612cba565b600060405180830381600087803b15801561057a57600080fd5b505af115801561058e573d6000803e3d6000fd5b5050505061059a611c5d565b73ffffffffffffffffffffffffffffffffffffffff16632a6a897b84836040518363ffffffff1660e01b81526004016105d4929190612d25565b600060405180830381600087803b1580156105ee57600080fd5b505af1158015610602573d6000803e3d6000fd5b505050505b505050565b333214610645576040517f08c379a00000000000000000000000000000000000000000000000000000000081526004016102ba90612dca565b61064d611c05565b6002546040517fd0eb665300000000000000000000000000000000000000000000000000000000815273ffffffffffffffffffffffffffffffffffffffff9283169263d0eb6653926106a9923392909116908690600401612cba565b600060405180830381600087803b1580156106c357600080fd5b505af11580156106d7573d6000803e3d6000fd5b505050506106e3611b59565b73ffffffffffffffffffffffffffffffffffffffff16634782f77933836040518363ffffffff1660e01b815260040161071d929190612d25565b600060405180830381600087803b15801561073757600080fd5b505af115801561074b573d6000803e3d6000fd5b5050505050565b606061075d33611796565b610793576040517f08c379a00000000000000000000000000000000000000000000000000000000081526004016102ba90612e27565b61036b600160008860038111156107d3577f4e487b7100000000000000000000000000000000000000000000000000000000600052602160045260246000fd5b600381111561080b577f4e487b7100000000000000000000000000000000000000000000000000000000600052602160045260246000fd5b815260208101919091526040016000205473ffffffffffffffffffffffffffffffffffffffff1686868686611cb5565b6060333214610876576040517f08c379a00000000000000000000000000000000000000000000000000000000081526004016102ba90612dca565b81428110156108b1576040517f08c379a00000000000000000000000000000000000000000000000000000000081526004016102ba90612e84565b60006108bb611d72565b73ffffffffffffffffffffffffffffffffffffffff166367cbf42d87876108e3600182613373565b818110610919577f4e487b7100000000000000000000000000000000000000000000000000000000600052603260045260246000fd5b905060200201602081019061092e919061298a565b8a6040518363ffffffff1660e01b815260040161094c929190612d25565b602060405180830381600087803b15801561096657600080fd5b505af115801561097a573d6000803e3d6000fd5b505050506040513d601f19601f8201168201806040525081019061099e9190612ba6565b9050610a51600160008b60038111156109e0577f4e487b7100000000000000000000000000000000000000000000000000000000600052602160045260246000fd5b6003811115610a18577f4e487b7100000000000000000000000000000000000000000000000000000000600052602160045260246000fd5b815260208101919091526040016000205473ffffffffffffffffffffffffffffffffffffffff16610a49838b6132e5565b898989611cb5565b925060008686610a62600182613373565b818110610a98577f4e487b7100000000000000000000000000000000000000000000000000000000600052603260045260246000fd5b9050602002016020810190610aad919061298a565b90506000610ab9611c05565b73ffffffffffffffffffffffffffffffffffffffff16633500aa0b338a8a6000818110610b0f577f4e487b7100000000000000000000000000000000000000000000000000000000600052603260045260246000fd5b9050602002016020810190610b24919061298a565b8589600081518110610b5f577f4e487b7100000000000000000000000000000000000000000000000000000000600052603260045260246000fd5b60200260200101518f6040518663ffffffff1660e01b8152600401610b88959493929190612c79565b602060405180830381600087803b158015610ba257600080fd5b505af1158015610bb6573d6000803e3d6000fd5b505050506040513d601f19601f82011682018060405250810190610bda9190612ba6565b9050610be4611c5d565b73ffffffffffffffffffffffffffffffffffffffff1663ee0862bf83836040518363ffffffff1660e01b8152600401610c1e929190612d25565b600060405180830381600087803b158015610c3857600080fd5b505af1158015610c4c573d6000803e3d6000fd5b50505050505050509695505050505050565b60005473ffffffffffffffffffffffffffffffffffffffff1681565b333214610cb3576040517f08c379a00000000000000000000000000000000000000000000000000000000081526004016102ba90612dca565b610cbb611c05565b73ffffffffffffffffffffffffffffffffffffffff1663b25777ad3384846040518463ffffffff1660e01b8152600401610cf793929190612cba565b600060405180830381600087803b158015610d1157600080fd5b505af1158015610d25573d6000803e3d6000fd5b50505050610d31611c5d565b73ffffffffffffffffffffffffffffffffffffffff16632a6a897b83836040518363ffffffff1660e01b8152600401610d6b929190612d25565b600060405180830381600087803b158015610d8557600080fd5b505af1158015610d99573d6000803e3d6000fd5b505050505050565b6060600060016000876003811115610de2577f4e487b7100000000000000000000000000000000000000000000000000000000600052602160045260246000fd5b6003811115610e1a577f4e487b7100000000000000000000000000000000000000000000000000000000600052602160045260246000fd5b815260200190815260200160002060009054906101000a900473ffffffffffffffffffffffffffffffffffffffff169050610e898186868680806020026020016040519081016040528093929190818152602001838360200280828437600092019190915250611dc992505050565b9695505050505050565b333214610ecc576040517f08c379a00000000000000000000000000000000000000000000000000000000081526004016102ba90612dca565b610ed4611b59565b73ffffffffffffffffffffffffffffffffffffffff1663a6a5f9fe346040518263ffffffff1660e01b81526004016000604051808303818588803b158015610f1b57600080fd5b505af1158015610f2f573d6000803e3d6000fd5b50505050506000610f3e611c05565b6002546040517f52a664d900000000000000000000000000000000000000000000000000000000815273ffffffffffffffffffffffffffffffffffffffff928316926352a664d992610f9a923392909116903490600401612cba565b602060405180830381600087803b158015610fb457600080fd5b505af1158015610fc8573d6000803e3d6000fd5b505050506040513d601f19601f82011682018060405250810190610fec9190612ba6565b905080156110eb57610ffc611c05565b6002546040517fb25777ad00000000000000000000000000000000000000000000000000000000815273ffffffffffffffffffffffffffffffffffffffff9283169263b25777ad92611058923392909116908690600401612cba565b600060405180830381600087803b15801561107257600080fd5b505af1158015611086573d6000803e3d6000fd5b50505050611092611c5d565b6002546040517f2a6a897b00000000000000000000000000000000000000000000000000000000815273ffffffffffffffffffffffffffffffffffffffff92831692632a6a897b9261071d929116908590600401612d25565b50565b6060333214611129576040517f08c379a00000000000000000000000000000000000000000000000000000000081526004016102ba90612dca565b8142811015611164576040517f08c379a00000000000000000000000000000000000000000000000000000000081526004016102ba90612e84565b600061116e611d72565b73ffffffffffffffffffffffffffffffffffffffff16633f0e9edf878760008181106111c3577f4e487b7100000000000000000000000000000000000000000000000000000000600052603260045260246000fd5b90506020020160208101906111d8919061298a565b8a6040518363ffffffff1660e01b81526004016111f6929190612d25565b602060405180830381600087803b15801561121057600080fd5b505af1158015611224573d6000803e3d6000fd5b505050506040513d601f19601f820116820180604052508101906112489190612ba6565b90506112fb600160008b600381111561128a577f4e487b7100000000000000000000000000000000000000000000000000000000600052602160045260246000fd5b60038111156112c2577f4e487b7100000000000000000000000000000000000000000000000000000000600052602160045260246000fd5b815260208101919091526040016000205473ffffffffffffffffffffffffffffffffffffffff166112f3838b613373565b898989611848565b92506000868661130c600182613373565b818110611342577f4e487b7100000000000000000000000000000000000000000000000000000000600052603260045260246000fd5b9050602002016020810190611357919061298a565b90506000611363611c05565b73ffffffffffffffffffffffffffffffffffffffff16633500aa0b338a8a60008181106113b9577f4e487b7100000000000000000000000000000000000000000000000000000000600052603260045260246000fd5b90506020020160208101906113ce919061298a565b858e8a60018c516113df9190613373565b81518110611416577f4e487b7100000000000000000000000000000000000000000000000000000000600052603260045260246000fd5b60200260200101516040518663ffffffff1660e01b8152600401610b88959493929190612c79565b333214611477576040517f08c379a00000000000000000000000000000000000000000000000000000000081526004016102ba90612dca565b61147f611c05565b73ffffffffffffffffffffffffffffffffffffffff1663d0eb66533384846040518463ffffffff1660e01b81526004016114bb93929190612cba565b600060405180830381600087803b1580156114d557600080fd5b505af11580156114e9573d6000803e3d6000fd5b505050506114f5611b59565b73ffffffffffffffffffffffffffffffffffffffff1663d9caed128333846040518463ffffffff1660e01b815260040161153193929190612cba565b602060405180830381600087803b15801561154b57600080fd5b505af115801561155f573d6000803e3d6000fd5b505050506040513d601f19601f8201168201806040525081019061158391906129f4565b6115b9576040517f08c379a00000000000000000000000000000000000000000000000000000000081526004016102ba906130c3565b5050565b60606000600160008760038111156115fe577f4e487b7100000000000000000000000000000000000000000000000000000000600052602160045260246000fd5b6003811115611636577f4e487b7100000000000000000000000000000000000000000000000000000000600052602160045260246000fd5b815260200190815260200160002060009054906101000a900473ffffffffffffffffffffffffffffffffffffffff169050610e89818686868080602002602001604051908101604052809392919081815260200183836020028082843760009201919091525061203392505050565b3332146116de576040517f08c379a00000000000000000000000000000000000000000000000000000000081526004016102ba90612dca565b6116e6611c5d565b73ffffffffffffffffffffffffffffffffffffffff1663ee0862bf83836040518363ffffffff1660e01b8152600401611720929190612d25565b600060405180830381600087803b15801561173a57600080fd5b505af115801561174e573d6000803e3d6000fd5b5050505061175a611c05565b73ffffffffffffffffffffffffffffffffffffffff1663498d55eb3384846040518463ffffffff1660e01b8152600401610d6b93929190612cba565b600080546040517fa716b97f00000000000000000000000000000000000000000000000000000000815273ffffffffffffffffffffffffffffffffffffffff9091169063a716b97f906117f0908590600690600401612ceb565b60206040518083038186803b15801561180857600080fd5b505afa15801561181c573d6000803e3d6000fd5b505050506040513d601f19601f8201168201806040525081019061184091906129f4565b90505b919050565b6060611888868685858080602002602001604051908101604052809392919081815260200183836020028082843760009201919091525061203392505050565b905083816001835161189a9190613373565b815181106118d1577f4e487b7100000000000000000000000000000000000000000000000000000000600052603260045260246000fd5b60200260200101511015611911576040517f08c379a00000000000000000000000000000000000000000000000000000000081526004016102ba906131eb565b611919611b59565b73ffffffffffffffffffffffffffffffffffffffff1663d9caed128484600081811061196e577f4e487b7100000000000000000000000000000000000000000000000000000000600052603260045260246000fd5b9050602002016020810190611983919061298a565b611a2a89878760008181106119c1577f4e487b7100000000000000000000000000000000000000000000000000000000600052603260045260246000fd5b90506020020160208101906119d6919061298a565b88886001818110611a10577f4e487b7100000000000000000000000000000000000000000000000000000000600052603260045260246000fd5b9050602002016020810190611a25919061298a565b61227d565b84600081518110611a64577f4e487b7100000000000000000000000000000000000000000000000000000000600052603260045260246000fd5b60200260200101516040518463ffffffff1660e01b8152600401611a8a93929190612cba565b602060405180830381600087803b158015611aa457600080fd5b505af1158015611ab8573d6000803e3d6000fd5b505050506040513d601f19601f82011682018060405250810190611adc91906129f4565b611b12576040517f08c379a00000000000000000000000000000000000000000000000000000000081526004016102ba90612f75565b61036e8682858580806020026020016040519081016040528093929190818152602001838360200280828437600092019190915250611b549250611b59915050565b6122ef565b600080546040517f36214c7800000000000000000000000000000000000000000000000000000000815273ffffffffffffffffffffffffffffffffffffffff909116906336214c7890611bb0908490600401612db0565b60206040518083038186803b158015611bc857600080fd5b505afa158015611bdc573d6000803e3d6000fd5b505050506040513d601f19601f82011682018060405250810190611c0091906129ad565b905090565b600080546040517f36214c7800000000000000000000000000000000000000000000000000000000815273ffffffffffffffffffffffffffffffffffffffff909116906336214c7890611bb090600390600401612db0565b600080546040517f36214c7800000000000000000000000000000000000000000000000000000000815273ffffffffffffffffffffffffffffffffffffffff909116906336214c7890611bb090600190600401612db0565b6060611cf58686858580806020026020016040519081016040528093929190818152602001838360200280828437600092019190915250611dc992505050565b90508381600081518110611d32577f4e487b7100000000000000000000000000000000000000000000000000000000600052603260045260246000fd5b60200260200101511115611911576040517f08c379a00000000000000000000000000000000000000000000000000000000081526004016102ba906130fa565b600080546040517f36214c7800000000000000000000000000000000000000000000000000000000815273ffffffffffffffffffffffffffffffffffffffff909116906336214c7890611bb0906004908101612db0565b6060600282511015611e07576040517f08c379a00000000000000000000000000000000000000000000000000000000081526004016102ba90612fd2565b815167ffffffffffffffff811115611e48577f4e487b7100000000000000000000000000000000000000000000000000000000600052604160045260246000fd5b604051908082528060200260200182016040528015611e71578160200160208202803683370190505b509050828160018351611e849190613373565b81518110611ebb577f4e487b7100000000000000000000000000000000000000000000000000000000600052603260045260246000fd5b602002602001018181525050600060018351611ed79190613373565b90505b801561202b57600080611f788786611ef3600187613373565b81518110611f2a577f4e487b7100000000000000000000000000000000000000000000000000000000600052603260045260246000fd5b6020026020010151878681518110611f6b577f4e487b7100000000000000000000000000000000000000000000000000000000600052603260045260246000fd5b6020026020010151612574565b91509150611fc7848481518110611fb8577f4e487b7100000000000000000000000000000000000000000000000000000000600052603260045260246000fd5b60200260200101518383612682565b84611fd3600186613373565b8151811061200a577f4e487b7100000000000000000000000000000000000000000000000000000000600052603260045260246000fd5b602002602001018181525050505080806120239061338a565b915050611eda565b509392505050565b6060600282511015612071576040517f08c379a00000000000000000000000000000000000000000000000000000000081526004016102ba90612fd2565b815167ffffffffffffffff8111156120b2577f4e487b7100000000000000000000000000000000000000000000000000000000600052604160045260246000fd5b6040519080825280602002602001820160405280156120db578160200160208202803683370190505b5090508281600081518110612119577f4e487b7100000000000000000000000000000000000000000000000000000000600052603260045260246000fd5b60200260200101818152505060005b600183516121369190613373565b81101561202b576000806121ca8786858151811061217d577f4e487b7100000000000000000000000000000000000000000000000000000000600052603260045260246000fd5b60200260200101518786600161219391906132e5565b81518110611f6b577f4e487b7100000000000000000000000000000000000000000000000000000000600052603260045260246000fd5b9150915061221984848151811061220a577f4e487b7100000000000000000000000000000000000000000000000000000000600052603260045260246000fd5b6020026020010151838361274d565b846122258560016132e5565b8151811061225c577f4e487b7100000000000000000000000000000000000000000000000000000000600052603260045260246000fd5b60200260200101818152505050508080612275906133bf565b915050612128565b600080600061228c858561281c565b915091508582826040516020016122a4929190612bbe565b604051602081830303815290604052805190602001206040516020016122cb929190612bf8565b6040516020818303038152906040528051906020012060601c925050509392505050565b60005b600183516123009190613373565b81101561074b57600080848381518110612343577f4e487b7100000000000000000000000000000000000000000000000000000000600052603260045260246000fd5b60200260200101518584600161235991906132e5565b81518110612390577f4e487b7100000000000000000000000000000000000000000000000000000000600052603260045260246000fd5b60200260200101519150915060006123a8838361281c565b5090506000876123b98660016132e5565b815181106123f0577f4e487b7100000000000000000000000000000000000000000000000000000000600052603260045260246000fd5b602002602001015190506000808373ffffffffffffffffffffffffffffffffffffffff168673ffffffffffffffffffffffffffffffffffffffff16146124385782600061243c565b6000835b91509150600060028a516124509190613373565b881061245c57886124b1565b6124b18c878c61246d8c60026132e5565b815181106124a4577f4e487b7100000000000000000000000000000000000000000000000000000000600052603260045260246000fd5b602002602001015161227d565b90506124be8c888861227d565b73ffffffffffffffffffffffffffffffffffffffff1663022c0d9f84848460006040519080825280601f01601f191660200182016040528015612508576020820181803683370190505b506040518563ffffffff1660e01b81526004016125289493929190613248565b600060405180830381600087803b15801561254257600080fd5b505af1158015612556573d6000803e3d6000fd5b5050505050505050505050808061256c906133bf565b9150506122f2565b6000806000612583858561281c565b50905060008061259488888861227d565b73ffffffffffffffffffffffffffffffffffffffff16630902f1ac6040518163ffffffff1660e01b815260040160606040518083038186803b1580156125d957600080fd5b505afa1580156125ed573d6000803e3d6000fd5b505050506040513d601f19601f820116820180604052508101906126119190612b40565b506dffffffffffffffffffffffffffff1691506dffffffffffffffffffffffffffff1691508273ffffffffffffffffffffffffffffffffffffffff168773ffffffffffffffffffffffffffffffffffffffff1614612670578082612673565b81815b90999098509650505050505050565b60008084116126bd576040517f08c379a00000000000000000000000000000000000000000000000000000000081526004016102ba90612ebb565b6000831180156126cd5750600082115b612703576040517f08c379a00000000000000000000000000000000000000000000000000000000081526004016102ba90613009565b600061270f8585613336565b61271b906103e8613336565b905060006103e561272c8786613373565b6127369190613373565b905061274281836132fd565b610e899060016132e5565b6000808411612788576040517f08c379a00000000000000000000000000000000000000000000000000000000081526004016102ba9061318e565b6000831180156127985750600082115b6127ce576040517f08c379a00000000000000000000000000000000000000000000000000000000081526004016102ba90613009565b60006127dc856103e5613336565b905060006127ea8483613336565b90506000826127fb876103e8613336565b61280591906132e5565b905061281181836132fd565b979650505050505050565b6000808273ffffffffffffffffffffffffffffffffffffffff168473ffffffffffffffffffffffffffffffffffffffff161415612885576040517f08c379a00000000000000000000000000000000000000000000000000000000081526004016102ba90612f18565b8273ffffffffffffffffffffffffffffffffffffffff168473ffffffffffffffffffffffffffffffffffffffff16106128bf5782846128c2565b83835b909250905073ffffffffffffffffffffffffffffffffffffffff8216612914576040517f08c379a00000000000000000000000000000000000000000000000000000000081526004016102ba90613157565b9250929050565b60008083601f84011261292c578182fd5b50813567ffffffffffffffff811115612943578182fd5b602083019150836020808302850101111561291457600080fd5b80356004811061184357600080fd5b80516dffffffffffffffffffffffffffff8116811461184357600080fd5b60006020828403121561299b578081fd5b81356129a681613456565b9392505050565b6000602082840312156129be578081fd5b81516129a681613456565b600080604083850312156129db578081fd5b82356129e681613456565b946020939093013593505050565b600060208284031215612a05578081fd5b815180151581146129a6578182fd5b60008060008060608587031215612a29578182fd5b612a328561295d565b935060208501359250604085013567ffffffffffffffff811115612a54578283fd5b612a608782880161291b565b95989497509550505050565b600080600080600060808688031215612a83578081fd5b612a8c8661295d565b94506020860135935060408601359250606086013567ffffffffffffffff811115612ab5578182fd5b612ac18882890161291b565b969995985093965092949392505050565b60008060008060008060a08789031215612aea578081fd5b612af38761295d565b95506020870135945060408701359350606087013567ffffffffffffffff811115612b1c578182fd5b612b2889828a0161291b565b979a9699509497949695608090950135949350505050565b600080600060608486031215612b54578283fd5b612b5d8461296c565b9250612b6b6020850161296c565b9150604084015163ffffffff81168114612b83578182fd5b809150509250925092565b600060208284031215612b9f578081fd5b5035919050565b600060208284031215612bb7578081fd5b5051919050565b7fffffffffffffffffffffffffffffffffffffffff000000000000000000000000606093841b811682529190921b16601482015260280190565b7fff00000000000000000000000000000000000000000000000000000000000000815260609290921b7fffffffffffffffffffffffffffffffffffffffff00000000000000000000000016600183015260158201527f96e8ac4277198ff8b6f785478aa9a39f403cb768dd02cbee326c3e7da348845f603582015260550190565b73ffffffffffffffffffffffffffffffffffffffff958616815293851660208501529190931660408301526060820192909252608081019190915260a00190565b73ffffffffffffffffffffffffffffffffffffffff9384168152919092166020820152604081019190915260600190565b73ffffffffffffffffffffffffffffffffffffffff831681526040810160088310612d1857612d18613427565b8260208301529392505050565b73ffffffffffffffffffffffffffffffffffffffff929092168252602082015260400190565b6020808252825182820181905260009190848201906040850190845b81811015612d8357835183529284019291840191600101612d67565b50909695505050505050565b73ffffffffffffffffffffffffffffffffffffffff91909116815260200190565b6020810160068310612dc457612dc4613427565b91905290565b6020808252603a908201527f43757272656e746c79206e6f20696e7465726d656469617269657320616c6c6f60408201527f77656420666f7220746869732066756e6374696f6e2063616c6c000000000000606082015260800190565b6020808252603e908201527f43616c6c696e6720636f6e7472616374206973206e6f7420617574686f72697a60408201527f656420746f20747261646520776974682070726f746f636c2066756e64730000606082015260800190565b60208082526018908201527f556e69737761705632526f757465723a20455850495245440000000000000000604082015260600190565b6020808252602c908201527f556e697377617056324c6962726172793a20494e53554646494349454e545f4f60408201527f55545055545f414d4f554e540000000000000000000000000000000000000000606082015260800190565b60208082526025908201527f556e697377617056324c6962726172793a204944454e544943414c5f4144445260408201527f4553534553000000000000000000000000000000000000000000000000000000606082015260800190565b60208082526028908201527f4d617267696e526f757465723a20496e73756666696369656e74206c656e646960408201527f6e672066756e6473000000000000000000000000000000000000000000000000606082015260800190565b6020808252601e908201527f556e697377617056324c6962726172793a20494e56414c49445f504154480000604082015260600190565b60208082526028908201527f556e697377617056324c6962726172793a20494e53554646494349454e545f4c60408201527f4951554944495459000000000000000000000000000000000000000000000000606082015260800190565b60208082526029908201527f43616e6e6f74207472616e73666572206465706f73697420746f206d6172676960408201527f6e206163636f756e740000000000000000000000000000000000000000000000606082015260800190565b6020808252601c908201527f436f756c64206e6f742077697468647261772066726f6d2066756e6400000000604082015260600190565b60208082526027908201527f556e69737761705632526f757465723a204558434553534956455f494e50555460408201527f5f414d4f554e5400000000000000000000000000000000000000000000000000606082015260800190565b6020808252601e908201527f556e697377617056324c6962726172793a205a45524f5f414444524553530000604082015260600190565b6020808252602b908201527f556e697377617056324c6962726172793a20494e53554646494349454e545f4960408201527f4e5055545f414d4f554e54000000000000000000000000000000000000000000606082015260800190565b60208082526028908201527f4d617267696e526f757465723a20494e53554646494349454e545f4f5554505560408201527f545f414d4f554e54000000000000000000000000000000000000000000000000606082015260800190565b60008582526020858184015273ffffffffffffffffffffffffffffffffffffffff85166040840152608060608401528351806080850152825b8181101561329d5785810183015185820160a001528201613281565b818111156132ae578360a083870101525b50601f017fffffffffffffffffffffffffffffffffffffffffffffffffffffffffffffffe0169290920160a0019695505050505050565b600082198211156132f8576132f86133f8565b500190565b600082613331577f4e487b710000000000000000000000000000000000000000000000000000000081526012600452602481fd5b500490565b6000817fffffffffffffffffffffffffffffffffffffffffffffffffffffffffffffffff048311821515161561336e5761336e6133f8565b500290565b600082821015613385576133856133f8565b500390565b600081613399576133996133f8565b507fffffffffffffffffffffffffffffffffffffffffffffffffffffffffffffffff0190565b60007fffffffffffffffffffffffffffffffffffffffffffffffffffffffffffffffff8214156133f1576133f16133f8565b5060010190565b7f4e487b7100000000000000000000000000000000000000000000000000000000600052601160045260246000fd5b7f4e487b7100000000000000000000000000000000000000000000000000000000600052602160045260246000fd5b73ffffffffffffffffffffffffffffffffffffffff811681146110eb57600080fdfea2646970667358221220733c2083135db7e782fd7c2018a7229b6f8302c6153bad8575b50dfa8c0e972364736f6c6343000801003360806040523480156200001157600080fd5b506040516200184c3803806200184c8339810160408190526200003491620000ef565b600080546001600160a01b0319166001600160a01b03831617815562000059620000ce565b600180546001600160a01b0319166001600160a01b038316908117909155604051919250906000907f8be0079c531659141344cd1fd0a4f28419497f9722a3daafe3b4186f6b6457e0908290a35050600280546001600160a01b0319166001600160a01b039290921691909117905562000126565b3390565b80516001600160a01b0381168114620000ea57600080fd5b919050565b6000806040838503121562000102578182fd5b6200010d83620000d2565b91506200011d60208401620000d2565b90509250929050565b61171680620001366000396000f3fe608060405234801561001057600080fd5b50600436106100c95760003560e01c80636cd7bc4b11610081578063e47109a91161005b578063e47109a91461015f578063e62db16014610172578063f2fde38b14610185576100c9565b80636cd7bc4b1461013a578063715018a61461014f5780638da5cb5b14610157576100c9565b806337487fd5116100b257806337487fd51461010c578063392f5f641461011f5780634cb7766214610127576100c9565b806305883f7c146100ce5780631f1cb62b146100f7575b600080fd5b6100e16100dc3660046110c5565b610198565b6040516100ee91906114f2565b60405180910390f35b6100ff61049f565b6040516100ee9190611246565b6100e161011a3660046110c5565b6104bb565b6100ff61079a565b6100e16101353660046110c5565b6107b6565b61014d6101483660046110f0565b61088c565b005b61014d610902565b6100ff6109e4565b6100e161016d3660046110c5565b610a00565b6100e16101803660046110c5565b610c3e565b61014d610193366004611086565b610ddd565b60006101a333610f2b565b6101e2576040517f08c379a00000000000000000000000000000000000000000000000000000000081526004016101d9906113a6565b60405180910390fd5b60025473ffffffffffffffffffffffffffffffffffffffff8481169116141561020c575080610499565b73ffffffffffffffffffffffffffffffffffffffff83166000908152600360209081526040808320815160a08101835281548152600182018054845181870281018701909552808552919492938584019390929083018282801561028f57602002820191906000526020600020905b81548152602001906001019080831161027b575b50505050508152602001600282015481526020016003820180548060200260200160405190810160405280929190818152602001828054801561030857602002820191906000526020600020905b815473ffffffffffffffffffffffffffffffffffffffff1681526001909101906020018083116102dd575b505050505081526020016004820180548060200260200160405190810160405280929190818152602001828054801561037757602002820191906000526020600020905b815473ffffffffffffffffffffffffffffffffffffffff16815260019091019060200180831161034c575b5050505050815250509050600061038c610fd5565b73ffffffffffffffffffffffffffffffffffffffff16630aa29f1c600086600086606001516040518563ffffffff1660e01b81526004016103d09493929190611314565b600060405180830381600087803b1580156103ea57600080fd5b505af11580156103fe573d6000803e3d6000fd5b505050506040513d6000823e601f3d9081017fffffffffffffffffffffffffffffffffffffffffffffffffffffffffffffffe0168201604052610444919081019061118e565b9050806001825161045591906115d7565b8151811061048c577f4e487b7100000000000000000000000000000000000000000000000000000000600052603260045260246000fd5b6020026020010151925050505b92915050565b60025473ffffffffffffffffffffffffffffffffffffffff1681565b60006104c633610f2b565b6104fc576040517f08c379a00000000000000000000000000000000000000000000000000000000081526004016101d9906113a6565b60025473ffffffffffffffffffffffffffffffffffffffff84811691161415610526575080610499565b73ffffffffffffffffffffffffffffffffffffffff83166000908152600360209081526040808320815160a0810183528154815260018201805484518187028101870190955280855291949293858401939092908301828280156105a957602002820191906000526020600020905b815481526020019060010190808311610595575b50505050508152602001600282015481526020016003820180548060200260200160405190810160405280929190818152602001828054801561062257602002820191906000526020600020905b815473ffffffffffffffffffffffffffffffffffffffff1681526001909101906020018083116105f7575b505050505081526020016004820180548060200260200160405190810160405280929190818152602001828054801561069157602002820191906000526020600020905b815473ffffffffffffffffffffffffffffffffffffffff168152600190910190602001808311610666575b505050505081525050905060006106a6610fd5565b73ffffffffffffffffffffffffffffffffffffffff16631f2a6743600086600086608001516040518563ffffffff1660e01b81526004016106ea9493929190611314565b600060405180830381600087803b15801561070457600080fd5b505af1158015610718573d6000803e3d6000fd5b505050506040513d6000823e601f3d9081017fffffffffffffffffffffffffffffffffffffffffffffffffffffffffffffffe016820160405261075e919081019061118e565b90508060008151811061048c577f4e487b7100000000000000000000000000000000000000000000000000000000600052603260045260246000fd5b60005473ffffffffffffffffffffffffffffffffffffffff1681565b73ffffffffffffffffffffffffffffffffffffffff8216600090815260036020819052604082209081015460011061081a576040517f08c379a00000000000000000000000000000000000000000000000000000000081526004016101d990611460565b8060010181600201548154811061085a577f4e487b7100000000000000000000000000000000000000000000000000000000600052603260045260246000fd5b906000526020600020015483683635c9adc5dea0000061087a919061159a565b6108849190611586565b949350505050565b610894611082565b73ffffffffffffffffffffffffffffffffffffffff166108b26109e4565b73ffffffffffffffffffffffffffffffffffffffff16146108ff576040517f08c379a00000000000000000000000000000000000000000000000000000000081526004016101d9906114bd565b50565b61090a611082565b73ffffffffffffffffffffffffffffffffffffffff166109286109e4565b73ffffffffffffffffffffffffffffffffffffffff1614610975576040517f08c379a00000000000000000000000000000000000000000000000000000000081526004016101d9906114bd565b60015460405160009173ffffffffffffffffffffffffffffffffffffffff16907f8be0079c531659141344cd1fd0a4f28419497f9722a3daafe3b4186f6b6457e0908390a3600180547fffffffffffffffffffffffff0000000000000000000000000000000000000000169055565b60015473ffffffffffffffffffffffffffffffffffffffff1690565b60025460009073ffffffffffffffffffffffffffffffffffffffff84811691161415610a2d575080610499565b73ffffffffffffffffffffffffffffffffffffffff8316600090815260036020819052604090912090810154600110610a92576040517f08c379a00000000000000000000000000000000000000000000000000000000081526004016101d990611460565b6000610a9c610fd5565b73ffffffffffffffffffffffffffffffffffffffff1663eaa095f8600086856003016040518463ffffffff1660e01b8152600401610adc939291906112a1565b60006040518083038186803b158015610af457600080fd5b505afa158015610b08573d6000803e3d6000fd5b505050506040513d6000823e601f3d9081017fffffffffffffffffffffffffffffffffffffffffffffffffffffffffffffffe0168201604052610b4e919081019061118e565b905060008160018351610b6191906115d7565b81518110610b98577f4e487b7100000000000000000000000000000000000000000000000000000000600052603260045260246000fd5b60200260200101519050826001018054905083600201546001610bbb919061156e565b610bc591906115ee565b600284015580610bde86683635c9adc5dea0000061159a565b610be89190611586565b83600101846002015481548110610c28577f4e487b7100000000000000000000000000000000000000000000000000000000600052603260045260246000fd5b6000918252602090912001559250610499915050565b60025460009073ffffffffffffffffffffffffffffffffffffffff84811691161415610c6b575080610499565b73ffffffffffffffffffffffffffffffffffffffff831660009081526003602052604090206004810154600110610cce576040517f08c379a00000000000000000000000000000000000000000000000000000000081526004016101d990611460565b6000610cd8610fd5565b73ffffffffffffffffffffffffffffffffffffffff166390b931ed600086856004016040518463ffffffff1660e01b8152600401610d18939291906112a1565b60006040518083038186803b158015610d3057600080fd5b505afa158015610d44573d6000803e3d6000fd5b505050506040513d6000823e601f3d9081017fffffffffffffffffffffffffffffffffffffffffffffffffffffffffffffffe0168201604052610d8a919081019061118e565b9050600081600081518110610dc8577f4e487b7100000000000000000000000000000000000000000000000000000000600052603260045260246000fd5b60200260200101519050809350505050610499565b610de5611082565b73ffffffffffffffffffffffffffffffffffffffff16610e036109e4565b73ffffffffffffffffffffffffffffffffffffffff1614610e50576040517f08c379a00000000000000000000000000000000000000000000000000000000081526004016101d9906114bd565b73ffffffffffffffffffffffffffffffffffffffff8116610e9d576040517f08c379a00000000000000000000000000000000000000000000000000000000081526004016101d990611403565b60015460405173ffffffffffffffffffffffffffffffffffffffff8084169216907f8be0079c531659141344cd1fd0a4f28419497f9722a3daafe3b4186f6b6457e090600090a3600180547fffffffffffffffffffffffff00000000000000000000000000000000000000001673ffffffffffffffffffffffffffffffffffffffff92909216919091179055565b600080546040517fa716b97f00000000000000000000000000000000000000000000000000000000815273ffffffffffffffffffffffffffffffffffffffff9091169063a716b97f90610f85908590600590600401611267565b60206040518083038186803b158015610f9d57600080fd5b505afa158015610fb1573d6000803e3d6000fd5b505050506040513d601f19601f820116820180604052508101906104999190611212565b600080546040517f36214c7800000000000000000000000000000000000000000000000000000000815273ffffffffffffffffffffffffffffffffffffffff909116906336214c789061102d9060029060040161138c565b60206040518083038186803b15801561104557600080fd5b505afa158015611059573d6000803e3d6000fd5b505050506040513d601f19601f8201168201806040525081019061107d91906110a9565b905090565b3390565b600060208284031215611097578081fd5b81356110a2816116be565b9392505050565b6000602082840312156110ba578081fd5b81516110a2816116be565b600080604083850312156110d7578081fd5b82356110e2816116be565b946020939093013593505050565b60006020808385031215611102578182fd5b823567ffffffffffffffff811115611118578283fd5b8301601f81018513611128578283fd5b803561113b6111368261154a565b6114fb565b8181528381019083850185840285018601891015611157578687fd5b8694505b8385101561118257803561116e816116be565b83526001949094019391850191850161115b565b50979650505050505050565b600060208083850312156111a0578182fd5b825167ffffffffffffffff8111156111b6578283fd5b8301601f810185136111c6578283fd5b80516111d46111368261154a565b81815283810190838501858402850186018910156111f0578687fd5b8694505b838510156111825780518352600194909401939185019185016111f4565b600060208284031215611223578081fd5b815180151581146110a2578182fd5b6004811061124257611242611660565b9052565b73ffffffffffffffffffffffffffffffffffffffff91909116815260200190565b73ffffffffffffffffffffffffffffffffffffffff83168152604081016008831061129457611294611660565b8260208301529392505050565b6000606082016112b18387611232565b602083810186905260606040850152845491829052848352808320916080850190845b8181101561130657845473ffffffffffffffffffffffffffffffffffffffff16835260019485019492840192016112d4565b509098975050505050505050565b6000608082016113248388611232565b602086818501528560408501526080606085015281855180845260a0860191508287019350845b8181101561137d57845173ffffffffffffffffffffffffffffffffffffffff168352938301939183019160010161134b565b50909998505050505050505050565b60208101600683106113a0576113a0611660565b91905290565b6020808252602f908201527f43616c6c696e6720636f6e7472616374206973206e6f7420617574686f72697a60408201527f656420746f206c69717569646174650000000000000000000000000000000000606082015260800190565b60208082526026908201527f4f776e61626c653a206e6577206f776e657220697320746865207a65726f206160408201527f6464726573730000000000000000000000000000000000000000000000000000606082015260800190565b60208082526026908201527f546f6b656e20646f6573206e6f7420686176652061206c69717569646174696f60408201527f6e20706174680000000000000000000000000000000000000000000000000000606082015260800190565b6020808252818101527f4f776e61626c653a2063616c6c6572206973206e6f7420746865206f776e6572604082015260600190565b90815260200190565b604051601f82017fffffffffffffffffffffffffffffffffffffffffffffffffffffffffffffffe016810167ffffffffffffffff811182821017156115425761154261168f565b604052919050565b600067ffffffffffffffff8211156115645761156461168f565b5060209081020190565b6000821982111561158157611581611602565b500190565b60008261159557611595611631565b500490565b6000817fffffffffffffffffffffffffffffffffffffffffffffffffffffffffffffffff04831182151516156115d2576115d2611602565b500290565b6000828210156115e9576115e9611602565b500390565b6000826115fd576115fd611631565b500690565b7f4e487b7100000000000000000000000000000000000000000000000000000000600052601160045260246000fd5b7f4e487b7100000000000000000000000000000000000000000000000000000000600052601260045260246000fd5b7f4e487b7100000000000000000000000000000000000000000000000000000000600052602160045260246000fd5b7f4e487b7100000000000000000000000000000000000000000000000000000000600052604160045260246000fd5b73ffffffffffffffffffffffffffffffffffffffff811681146108ff57600080fdfea264697066735822122099f7124c3762cf88122d4968470c32ef15e5b40faa8934e8af53d495e06fb9b164736f6c63430008010033",
  "linkReferences": {},
  "deployedLinkReferences": {}
}