{
  "_format": "hh-sol-artifact-1",
  "contractName": "RoleAware",
  "sourceName": "contracts/RoleAware.sol",
  "abi": [
    {
      "inputs": [
        {
          "internalType": "address",
          "name": "_roles",
          "type": "address"
        }
      ],
      "stateMutability": "nonpayable",
      "type": "constructor"
    },
    {
      "inputs": [],
      "name": "ADMIN",
      "outputs": [
        {
          "internalType": "uint16",
          "name": "",
          "type": "uint16"
        }
      ],
      "stateMutability": "view",
      "type": "function"
    },
    {
      "inputs": [],
      "name": "AUTHORIZED_FUND_TRADER",
      "outputs": [
        {
          "internalType": "uint16",
          "name": "",
          "type": "uint16"
        }
      ],
      "stateMutability": "view",
      "type": "function"
    },
    {
      "inputs": [],
      "name": "BORROWER",
      "outputs": [
        {
          "internalType": "uint16",
          "name": "",
          "type": "uint16"
        }
      ],
      "stateMutability": "view",
      "type": "function"
    },
    {
      "inputs": [],
      "name": "FEE_CONTROLLER",
      "outputs": [
        {
          "internalType": "uint16",
          "name": "",
          "type": "uint16"
        }
      ],
      "stateMutability": "view",
      "type": "function"
    },
    {
      "inputs": [],
      "name": "FEE_SOURCE",
      "outputs": [
        {
          "internalType": "uint16",
          "name": "",
          "type": "uint16"
        }
      ],
      "stateMutability": "view",
      "type": "function"
    },
    {
      "inputs": [],
      "name": "FUND",
      "outputs": [
        {
          "internalType": "uint16",
          "name": "",
          "type": "uint16"
        }
      ],
      "stateMutability": "view",
      "type": "function"
    },
    {
      "inputs": [],
      "name": "INCENTIVE_DISTRIBUTION",
      "outputs": [
        {
          "internalType": "uint16",
          "name": "",
          "type": "uint16"
        }
      ],
      "stateMutability": "view",
      "type": "function"
    },
    {
      "inputs": [],
      "name": "INCENTIVE_REPORTER",
      "outputs": [
        {
          "internalType": "uint16",
          "name": "",
          "type": "uint16"
        }
      ],
      "stateMutability": "view",
      "type": "function"
    },
    {
      "inputs": [],
      "name": "LENDING",
      "outputs": [
        {
          "internalType": "uint16",
          "name": "",
          "type": "uint16"
        }
      ],
      "stateMutability": "view",
      "type": "function"
    },
    {
      "inputs": [],
      "name": "LIQUIDATOR",
      "outputs": [
        {
          "internalType": "uint16",
          "name": "",
          "type": "uint16"
        }
      ],
      "stateMutability": "view",
      "type": "function"
    },
    {
      "inputs": [],
      "name": "MARGIN_CALLER",
      "outputs": [
        {
          "internalType": "uint16",
          "name": "",
          "type": "uint16"
        }
      ],
      "stateMutability": "view",
      "type": "function"
    },
    {
      "inputs": [],
      "name": "MARGIN_TRADER",
      "outputs": [
        {
          "internalType": "uint16",
          "name": "",
          "type": "uint16"
        }
      ],
      "stateMutability": "view",
      "type": "function"
    },
    {
      "inputs": [],
      "name": "MARGIN_TRADING",
      "outputs": [
        {
          "internalType": "uint16",
          "name": "",
          "type": "uint16"
        }
      ],
      "stateMutability": "view",
      "type": "function"
    },
    {
      "inputs": [],
      "name": "PRICE_CONTROLLER",
      "outputs": [
        {
          "internalType": "uint16",
          "name": "",
          "type": "uint16"
        }
      ],
      "stateMutability": "view",
      "type": "function"
    },
    {
      "inputs": [],
      "name": "ROUTER",
      "outputs": [
        {
          "internalType": "uint16",
          "name": "",
          "type": "uint16"
        }
      ],
      "stateMutability": "view",
      "type": "function"
    },
    {
      "inputs": [],
      "name": "TOKEN_ACTIVATOR",
      "outputs": [
        {
          "internalType": "uint16",
          "name": "",
          "type": "uint16"
        }
      ],
      "stateMutability": "view",
      "type": "function"
    },
    {
      "inputs": [],
      "name": "WITHDRAWER",
      "outputs": [
        {
          "internalType": "uint16",
          "name": "",
          "type": "uint16"
        }
      ],
      "stateMutability": "view",
      "type": "function"
    },
    {
      "inputs": [
        {
          "internalType": "uint16",
          "name": "",
          "type": "uint16"
        }
      ],
      "name": "mainCharacterCache",
      "outputs": [
        {
          "internalType": "address",
          "name": "",
          "type": "address"
        }
      ],
      "stateMutability": "view",
      "type": "function"
    },
    {
      "inputs": [
        {
          "internalType": "address",
          "name": "",
          "type": "address"
        },
        {
          "internalType": "uint16",
          "name": "",
          "type": "uint16"
        }
      ],
      "name": "roleCache",
      "outputs": [
        {
          "internalType": "bool",
          "name": "",
          "type": "bool"
        }
      ],
      "stateMutability": "view",
      "type": "function"
    },
    {
      "inputs": [],
      "name": "roles",
      "outputs": [
        {
          "internalType": "contract Roles",
          "name": "",
          "type": "address"
        }
      ],
      "stateMutability": "view",
      "type": "function"
    },
    {
      "inputs": [
        {
          "internalType": "uint16",
          "name": "role",
          "type": "uint16"
        }
      ],
      "name": "updateMainCharacterCache",
      "outputs": [],
      "stateMutability": "nonpayable",
      "type": "function"
    },
    {
      "inputs": [
        {
          "internalType": "uint16",
          "name": "role",
          "type": "uint16"
        },
        {
          "internalType": "address",
          "name": "contr",
          "type": "address"
        }
      ],
      "name": "updateRoleCache",
      "outputs": [],
      "stateMutability": "nonpayable",
      "type": "function"
    }
  ],
  "bytecode": "0x608060405234801561001057600080fd5b5060405161078d38038061078d83398101604081905261002f91610054565b600080546001600160a01b0319166001600160a01b0392909216919091179055610082565b600060208284031215610065578081fd5b81516001600160a01b038116811461007b578182fd5b9392505050565b6106fc806100916000396000f3fe608060405234801561001057600080fd5b50600436106101825760003560e01c80636cd5cd60116100d8578063a9cc05361161008c578063c76139d011610066578063c76139d01461027d578063cacf8d4514610285578063d5d7ed7f1461028d57610182565b8063a9cc053614610242578063b44816521461024a578063c34316c31461025d57610182565b806383a49c7c116100bd57806383a49c7c1461022a578063a0098d6914610232578063a94c7c341461023a57610182565b80636cd5cd601461020f57806381ca66001461022257610182565b806332fe7b261161013a57806348fb27b81161011457806348fb27b8146101f75780635c275a39146101ff578063669419841461020757610182565b806332fe7b26146101d2578063392f5f64146101da57806346b88796146101ef57610182565b806320e8d8191161016b57806320e8d819146101ad5780632a0acc6a146101c25780632fe94def146101ca57610182565b8063065d570f146101875780631bc5d81d146101a5575b600080fd5b61018f610295565b60405161019c9190610668565b60405180910390f35b61018f61029a565b6101c06101bb366004610606565b61029f565b005b61018f6103b0565b61018f6103b5565b61018f6103ba565b6101e26103bf565b60405161019c919061063c565b61018f6103db565b61018f6103e0565b61018f6103e5565b61018f6103ea565b6101c061021d3660046105ec565b6103ef565b61018f6104ee565b61018f6104f3565b61018f6104f8565b61018f6104fd565b61018f610502565b6101e26102583660046105ec565b610507565b61027061026b366004610598565b61052f565b60405161019c919061065d565b61018f61054f565b61018f610554565b61018f610559565b600381565b600881565b6000546040517fd87fefd200000000000000000000000000000000000000000000000000000000815273ffffffffffffffffffffffffffffffffffffffff9091169063d87fefd2906102f79085908590600401610677565b60206040518083038186803b15801561030f57600080fd5b505afa158015610323573d6000803e3d6000fd5b505050506040513d601f19601f8201168201806040525081019061034791906105cc565b73ffffffffffffffffffffffffffffffffffffffff909116600090815260026020908152604080832061ffff90951683529390529190912080549115157fffffffffffffffffffffffffffffffffffffffffffffffffffffffffffffff00909216919091179055565b606b81565b606981565b606781565b60005473ffffffffffffffffffffffffffffffffffffffff1681565b600681565b606681565b606581565b600181565b6000546040517f3c9c8f9c00000000000000000000000000000000000000000000000000000000815273ffffffffffffffffffffffffffffffffffffffff90911690633c9c8f9c90610445908490600401610668565b60206040518083038186803b15801561045d57600080fd5b505afa158015610471573d6000803e3d6000fd5b505050506040513d601f19601f820116820180604052508101906104959190610575565b61ffff91909116600090815260016020526040902080547fffffffffffffffffffffffff00000000000000000000000000000000000000001673ffffffffffffffffffffffffffffffffffffffff909216919091179055565b606a81565b600981565b600281565b600581565b606881565b60016020526000908152604090205473ffffffffffffffffffffffffffffffffffffffff1681565b600260209081526000928352604080842090915290825290205460ff1681565b606c81565b600481565b600781565b803561ffff8116811461057057600080fd5b919050565b600060208284031215610586578081fd5b8151610591816106a1565b9392505050565b600080604083850312156105aa578081fd5b82356105b5816106a1565b91506105c36020840161055e565b90509250929050565b6000602082840312156105dd578081fd5b81518015158114610591578182fd5b6000602082840312156105fd578081fd5b6105918261055e565b60008060408385031215610618578182fd5b6106218361055e565b91506020830135610631816106a1565b809150509250929050565b73ffffffffffffffffffffffffffffffffffffffff91909116815260200190565b901515815260200190565b61ffff91909116815260200190565b61ffff92909216825273ffffffffffffffffffffffffffffffffffffffff16602082015260400190565b73ffffffffffffffffffffffffffffffffffffffff811681146106c357600080fd5b5056fea264697066735822122052771ab60bb737d5440e71ab02062bcfe02a8e94d433082375d2af00a947d94164736f6c63430008010033",
  "linkReferences": {},
  "deployedLinkReferences": {}
}