{
  "_format": "hh-sol-artifact-1",
  "contractName": "TokenAdmin",
  "sourceName": "contracts/TokenAdmin.sol",
  "abi": [
    {
      "inputs": [
        {
          "internalType": "uint256",
          "name": "lendingTargetPortion",
          "type": "uint256"
        },
        {
          "internalType": "uint256",
          "name": "borrowingTargetPortion",
          "type": "uint256"
        },
        {
          "internalType": "address",
          "name": "_roles",
          "type": "address"
        }
      ],
      "stateMutability": "nonpayable",
      "type": "constructor"
    },
    {
      "anonymous": false,
      "inputs": [
        {
          "indexed": true,
          "internalType": "address",
          "name": "previousOwner",
          "type": "address"
        },
        {
          "indexed": true,
          "internalType": "address",
          "name": "newOwner",
          "type": "address"
        }
      ],
      "name": "OwnershipTransferred",
      "type": "event"
    },
    {
      "inputs": [],
      "name": "ADMIN",
      "outputs": [
        {
          "internalType": "uint16",
          "name": "",
          "type": "uint16"
        }
      ],
      "stateMutability": "view",
      "type": "function"
    },
    {
      "inputs": [],
      "name": "AUTHORIZED_FUND_TRADER",
      "outputs": [
        {
          "internalType": "uint16",
          "name": "",
          "type": "uint16"
        }
      ],
      "stateMutability": "view",
      "type": "function"
    },
    {
      "inputs": [],
      "name": "BORROWER",
      "outputs": [
        {
          "internalType": "uint16",
          "name": "",
          "type": "uint16"
        }
      ],
      "stateMutability": "view",
      "type": "function"
    },
    {
      "inputs": [],
      "name": "FEE_CONTROLLER",
      "outputs": [
        {
          "internalType": "uint16",
          "name": "",
          "type": "uint16"
        }
      ],
      "stateMutability": "view",
      "type": "function"
    },
    {
      "inputs": [],
      "name": "FEE_SOURCE",
      "outputs": [
        {
          "internalType": "uint16",
          "name": "",
          "type": "uint16"
        }
      ],
      "stateMutability": "view",
      "type": "function"
    },
    {
      "inputs": [],
      "name": "FUND",
      "outputs": [
        {
          "internalType": "uint16",
          "name": "",
          "type": "uint16"
        }
      ],
      "stateMutability": "view",
      "type": "function"
    },
    {
      "inputs": [],
      "name": "INCENTIVE_DISTRIBUTION",
      "outputs": [
        {
          "internalType": "uint16",
          "name": "",
          "type": "uint16"
        }
      ],
      "stateMutability": "view",
      "type": "function"
    },
    {
      "inputs": [],
      "name": "INCENTIVE_REPORTER",
      "outputs": [
        {
          "internalType": "uint16",
          "name": "",
          "type": "uint16"
        }
      ],
      "stateMutability": "view",
      "type": "function"
    },
    {
      "inputs": [],
      "name": "LENDING",
      "outputs": [
        {
          "internalType": "uint16",
          "name": "",
          "type": "uint16"
        }
      ],
      "stateMutability": "view",
      "type": "function"
    },
    {
      "inputs": [],
      "name": "LIQUIDATOR",
      "outputs": [
        {
          "internalType": "uint16",
          "name": "",
          "type": "uint16"
        }
      ],
      "stateMutability": "view",
      "type": "function"
    },
    {
      "inputs": [],
      "name": "MARGIN_CALLER",
      "outputs": [
        {
          "internalType": "uint16",
          "name": "",
          "type": "uint16"
        }
      ],
      "stateMutability": "view",
      "type": "function"
    },
    {
      "inputs": [],
      "name": "MARGIN_TRADER",
      "outputs": [
        {
          "internalType": "uint16",
          "name": "",
          "type": "uint16"
        }
      ],
      "stateMutability": "view",
      "type": "function"
    },
    {
      "inputs": [],
      "name": "MARGIN_TRADING",
      "outputs": [
        {
          "internalType": "uint16",
          "name": "",
          "type": "uint16"
        }
      ],
      "stateMutability": "view",
      "type": "function"
    },
    {
      "inputs": [],
      "name": "PRICE_CONTROLLER",
      "outputs": [
        {
          "internalType": "uint16",
          "name": "",
          "type": "uint16"
        }
      ],
      "stateMutability": "view",
      "type": "function"
    },
    {
      "inputs": [],
      "name": "ROUTER",
      "outputs": [
        {
          "internalType": "uint16",
          "name": "",
          "type": "uint16"
        }
      ],
      "stateMutability": "view",
      "type": "function"
    },
    {
      "inputs": [],
      "name": "TOKEN_ACTIVATOR",
      "outputs": [
        {
          "internalType": "uint16",
          "name": "",
          "type": "uint16"
        }
      ],
      "stateMutability": "view",
      "type": "function"
    },
    {
      "inputs": [],
      "name": "WITHDRAWER",
      "outputs": [
        {
          "internalType": "uint16",
          "name": "",
          "type": "uint16"
        }
      ],
      "stateMutability": "view",
      "type": "function"
    },
    {
      "inputs": [
        {
          "internalType": "address",
          "name": "token",
          "type": "address"
        },
        {
          "internalType": "uint256",
          "name": "exposureCap",
          "type": "uint256"
        },
        {
          "internalType": "uint256",
          "name": "incentiveWeight",
          "type": "uint256"
        }
      ],
      "name": "activateToken",
      "outputs": [],
      "stateMutability": "nonpayable",
      "type": "function"
    },
    {
      "inputs": [
        {
          "internalType": "address",
          "name": "token",
          "type": "address"
        },
        {
          "internalType": "uint256",
          "name": "exposureCap",
          "type": "uint256"
        }
      ],
      "name": "changeTokenCap",
      "outputs": [],
      "stateMutability": "nonpayable",
      "type": "function"
    },
    {
      "inputs": [
        {
          "internalType": "address",
          "name": "token",
          "type": "address"
        },
        {
          "internalType": "uint256",
          "name": "tokenWeight",
          "type": "uint256"
        }
      ],
      "name": "changeTokenIncentiveWeight",
      "outputs": [],
      "stateMutability": "nonpayable",
      "type": "function"
    },
    {
      "inputs": [
        {
          "internalType": "uint256",
          "name": "",
          "type": "uint256"
        }
      ],
      "name": "incentiveTokens",
      "outputs": [
        {
          "internalType": "address",
          "name": "",
          "type": "address"
        }
      ],
      "stateMutability": "view",
      "type": "function"
    },
    {
      "inputs": [],
      "name": "nextTrancheIndex",
      "outputs": [
        {
          "internalType": "uint8",
          "name": "",
          "type": "uint8"
        }
      ],
      "stateMutability": "view",
      "type": "function"
    },
    {
      "inputs": [],
      "name": "owner",
      "outputs": [
        {
          "internalType": "address",
          "name": "",
          "type": "address"
        }
      ],
      "stateMutability": "view",
      "type": "function"
    },
    {
      "inputs": [
        {
          "internalType": "address",
          "name": "newOwner",
          "type": "address"
        }
      ],
      "name": "relinquishOwnershipOfDistributor",
      "outputs": [],
      "stateMutability": "nonpayable",
      "type": "function"
    },
    {
      "inputs": [],
      "name": "renounceOwnership",
      "outputs": [],
      "stateMutability": "nonpayable",
      "type": "function"
    },
    {
      "inputs": [],
      "name": "roles",
      "outputs": [
        {
          "internalType": "contract Roles",
          "name": "",
          "type": "address"
        }
      ],
      "stateMutability": "view",
      "type": "function"
    },
    {
      "inputs": [
        {
          "internalType": "uint256",
          "name": "portion",
          "type": "uint256"
        }
      ],
      "name": "setBorrowingTargetPortion",
      "outputs": [],
      "stateMutability": "nonpayable",
      "type": "function"
    },
    {
      "inputs": [
        {
          "internalType": "uint256",
          "name": "portion",
          "type": "uint256"
        }
      ],
      "name": "setLendingTargetPortion",
      "outputs": [],
      "stateMutability": "nonpayable",
      "type": "function"
    },
    {
      "inputs": [
        {
          "internalType": "address",
          "name": "",
          "type": "address"
        }
      ],
      "name": "tokenBorrowingTranches",
      "outputs": [
        {
          "internalType": "uint8",
          "name": "",
          "type": "uint8"
        }
      ],
      "stateMutability": "view",
      "type": "function"
    },
    {
      "inputs": [
        {
          "internalType": "address",
          "name": "",
          "type": "address"
        }
      ],
      "name": "tokenLendingTranches",
      "outputs": [
        {
          "internalType": "uint8",
          "name": "",
          "type": "uint8"
        }
      ],
      "stateMutability": "view",
      "type": "function"
    },
    {
      "inputs": [
        {
          "internalType": "address",
          "name": "",
          "type": "address"
        }
      ],
      "name": "tokenWeights",
      "outputs": [
        {
          "internalType": "uint256",
          "name": "",
          "type": "uint256"
        }
      ],
      "stateMutability": "view",
      "type": "function"
    },
    {
      "inputs": [],
      "name": "totalBorrowingTargetPortion",
      "outputs": [
        {
          "internalType": "uint256",
          "name": "",
          "type": "uint256"
        }
      ],
      "stateMutability": "view",
      "type": "function"
    },
    {
      "inputs": [],
      "name": "totalLendingTargetPortion",
      "outputs": [
        {
          "internalType": "uint256",
          "name": "",
          "type": "uint256"
        }
      ],
      "stateMutability": "view",
      "type": "function"
    },
    {
      "inputs": [],
      "name": "totalTokenWeights",
      "outputs": [
        {
          "internalType": "uint256",
          "name": "",
          "type": "uint256"
        }
      ],
      "stateMutability": "view",
      "type": "function"
    },
    {
      "inputs": [
        {
          "internalType": "address",
          "name": "newOwner",
          "type": "address"
        }
      ],
      "name": "transferOwnership",
      "outputs": [],
      "stateMutability": "nonpayable",
      "type": "function"
    }
  ],
  "bytecode": "0x60806040526009805460ff1916601417905534801561001d57600080fd5b50604051611a50380380611a5083398101604081905261003c916100c0565b600080546001600160a01b0319166001600160a01b03831617815561005f6100bc565b600180546001600160a01b0319166001600160a01b038316908117909155604051919250906000907f8be0079c531659141344cd1fd0a4f28419497f9722a3daafe3b4186f6b6457e0908290a35050600291909155600355610104565b3390565b6000806000606084860312156100d4578283fd5b83516020850151604086015191945092506001600160a01b03811681146100f9578182fd5b809150509250925092565b61193d806101136000396000f3fe608060405234801561001057600080fd5b50600436106102415760003560e01c8063715018a611610145578063bc2b28af116100bd578063dc8f5fac1161008c578063e15ac98a11610071578063e15ac98a146103e8578063f1c27000146103fb578063f2fde38b1461040357610241565b8063dc8f5fac146103cd578063dcc75604146103d557610241565b8063bc2b28af146103ad578063c76139d0146103b5578063cacf8d45146103bd578063d5d7ed7f146103c557610241565b80638da5cb5b11610114578063a94c7c34116100f9578063a94c7c341461038a578063a9cc053614610392578063ab2f3ad41461039a57610241565b80638da5cb5b1461037a578063a0098d691461038257610241565b8063715018a61461034f5780637bad080a1461035757806381ca66001461036a57806383a49c7c1461037257610241565b8063392f5f64116101d85780635686fb4e116101a75780635c275a391161018c5780635c275a391461032c57806366941984146103345780636d9d55ce1461033c57610241565b80635686fb4e146103065780635be072f21461031957610241565b8063392f5f64146102d957806346b88796146102e157806348fb27b8146102e9578063543eeef9146102f157610241565b80632a0acc6a116102145780632a0acc6a146102a15780632a3e4dc2146102a95780632fe94def146102c957806332fe7b26146102d157610241565b8063065d570f146102465780630c977ed2146102645780631531841b146102845780631bc5d81d14610299575b600080fd5b61024e610416565b60405161025b91906117b5565b60405180910390f35b6102776102723660046115ad565b61041b565b60405161025b91906117cd565b6102976102923660046115e5565b610430565b005b61024e610524565b61024e610529565b6102bc6102b7366004611664565b61052e565b60405161025b919061167c565b61024e610565565b61024e61056a565b6102bc61056f565b61024e61058b565b61024e610590565b6102f9610595565b60405161025b91906117c4565b610297610314366004611610565b61059b565b610297610327366004611664565b610bff565b61024e610c77565b61024e610c7c565b61029761034a3660046115ad565b610c81565b610297610d69565b6102776103653660046115ad565b610e4b565b61024e610e60565b61024e610e65565b6102bc610e6a565b61024e610e86565b61024e610e8b565b61024e610e90565b6102f96103a83660046115ad565b610e95565b6102f9610ea7565b61024e610ead565b61024e610eb2565b61024e610eb7565b6102f9610ebc565b6102976103e3366004611664565b610ec2565b6102976103f63660046115e5565b610f3a565b61027761102a565b6102976104113660046115ad565b611033565b600381565b60086020526000908152604090205460ff1681565b610438611181565b73ffffffffffffffffffffffffffffffffffffffff16610456610e6a565b73ffffffffffffffffffffffffffffffffffffffff16146104ac576040517f08c379a00000000000000000000000000000000000000000000000000000000081526004016104a390611780565b60405180910390fd5b6104b4611185565b73ffffffffffffffffffffffffffffffffffffffff16631d47e4a383836040518363ffffffff1660e01b81526004016104ee92919061169d565b600060405180830381600087803b15801561050857600080fd5b505af115801561051c573d6000803e3d6000fd5b505050505050565b600881565b606b81565b6004818154811061053e57600080fd5b60009182526020909120015473ffffffffffffffffffffffffffffffffffffffff16905081565b606981565b606781565b60005473ffffffffffffffffffffffffffffffffffffffff1681565b600681565b606681565b60035481565b6105a3611181565b73ffffffffffffffffffffffffffffffffffffffff166105c1610e6a565b73ffffffffffffffffffffffffffffffffffffffff161461060e576040517f08c379a00000000000000000000000000000000000000000000000000000000081526004016104a390611780565b610616611232565b73ffffffffffffffffffffffffffffffffffffffff16635acf6903846040518263ffffffff1660e01b815260040161064e919061167c565b60206040518083038186803b15801561066657600080fd5b505afa15801561067a573d6000803e3d6000fd5b505050506040513d601f19601f8201168201806040525081019061069e9190611644565b156106d5576040517f08c379a00000000000000000000000000000000000000000000000000000000081526004016104a390611749565b6106dd611232565b73ffffffffffffffffffffffffffffffffffffffff16630d1ce2d2846040518263ffffffff1660e01b8152600401610715919061167c565b600060405180830381600087803b15801561072f57600080fd5b505af1158015610743573d6000803e3d6000fd5b5050505061074f611185565b73ffffffffffffffffffffffffffffffffffffffff16631d47e4a384846040518363ffffffff1660e01b815260040161078992919061169d565b600060405180830381600087803b1580156107a357600080fd5b505af11580156107b7573d6000803e3d6000fd5b505050506000811115610bfa5780600660008282546107d691906117ee565b909155505073ffffffffffffffffffffffffffffffffffffffff8316600090815260056020526040812082905561080b61128a565b9050600061081b836002546112e2565b6009546040517f430c39e400000000000000000000000000000000000000000000000000000000815291925073ffffffffffffffffffffffffffffffffffffffff84169163430c39e4916108799160ff9091169085906004016117db565b600060405180830381600087803b15801561089357600080fd5b505af11580156108a7573d6000803e3d6000fd5b505060095473ffffffffffffffffffffffffffffffffffffffff8816600090815260076020526040902080547fffffffffffffffffffffffffffffffffffffffffffffffffffffffffffffff001660ff9092169190911790555061090b9050611303565b6009546040517f2864f40100000000000000000000000000000000000000000000000000000000815273ffffffffffffffffffffffffffffffffffffffff9290921691632864f4019161096691899160ff16906004016116c3565b600060405180830381600087803b15801561098057600080fd5b505af1158015610994573d6000803e3d6000fd5b50506009805460ff169250905060006109ac83611893565b91906101000a81548160ff021916908360ff1602179055505060006109d3846003546112e2565b6009546040517f430c39e400000000000000000000000000000000000000000000000000000000815291925073ffffffffffffffffffffffffffffffffffffffff85169163430c39e491610a319160ff9091169085906004016117db565b600060405180830381600087803b158015610a4b57600080fd5b505af1158015610a5f573d6000803e3d6000fd5b505060095473ffffffffffffffffffffffffffffffffffffffff8916600090815260086020526040902080547fffffffffffffffffffffffffffffffffffffffffffffffffffffffffffffff001660ff90921691909117905550610ac3905061135b565b6009546040517f2864f40100000000000000000000000000000000000000000000000000000000815273ffffffffffffffffffffffffffffffffffffffff9290921691632864f40191610b1e918a9160ff16906004016116c3565b600060405180830381600087803b158015610b3857600080fd5b505af1158015610b4c573d6000803e3d6000fd5b50506009805460ff16925090506000610b6483611893565b91906101000a81548160ff021916908360ff16021790555050610b86836113b3565b5050600480546001810182556000919091527f8a35acfbc15ff81a39ae7d344fd709f28e8600b4aa8c65c6b64bfe7fe36bd19b0180547fffffffffffffffffffffffff00000000000000000000000000000000000000001673ffffffffffffffffffffffffffffffffffffffff8616179055505b505050565b610c07611181565b73ffffffffffffffffffffffffffffffffffffffff16610c25610e6a565b73ffffffffffffffffffffffffffffffffffffffff1614610c72576040517f08c379a00000000000000000000000000000000000000000000000000000000081526004016104a390611780565b600255565b606581565b600181565b610c89611181565b73ffffffffffffffffffffffffffffffffffffffff16610ca7610e6a565b73ffffffffffffffffffffffffffffffffffffffff1614610cf4576040517f08c379a00000000000000000000000000000000000000000000000000000000081526004016104a390611780565b610cfc61128a565b73ffffffffffffffffffffffffffffffffffffffff1663f2fde38b826040518263ffffffff1660e01b8152600401610d34919061167c565b600060405180830381600087803b158015610d4e57600080fd5b505af1158015610d62573d6000803e3d6000fd5b5050505050565b610d71611181565b73ffffffffffffffffffffffffffffffffffffffff16610d8f610e6a565b73ffffffffffffffffffffffffffffffffffffffff1614610ddc576040517f08c379a00000000000000000000000000000000000000000000000000000000081526004016104a390611780565b60015460405160009173ffffffffffffffffffffffffffffffffffffffff16907f8be0079c531659141344cd1fd0a4f28419497f9722a3daafe3b4186f6b6457e0908390a3600180547fffffffffffffffffffffffff0000000000000000000000000000000000000000169055565b60076020526000908152604090205460ff1681565b606a81565b600981565b60015473ffffffffffffffffffffffffffffffffffffffff1690565b600281565b600581565b606881565b60056020526000908152604090205481565b60025481565b606c81565b600481565b600781565b60065481565b610eca611181565b73ffffffffffffffffffffffffffffffffffffffff16610ee8610e6a565b73ffffffffffffffffffffffffffffffffffffffff1614610f35576040517f08c379a00000000000000000000000000000000000000000000000000000000081526004016104a390611780565b600355565b610f42611181565b73ffffffffffffffffffffffffffffffffffffffff16610f60610e6a565b73ffffffffffffffffffffffffffffffffffffffff1614610fad576040517f08c379a00000000000000000000000000000000000000000000000000000000081526004016104a390611780565b73ffffffffffffffffffffffffffffffffffffffff8216600090815260056020526040902054600654610fe19083906117ee565b610feb919061187c565b60065573ffffffffffffffffffffffffffffffffffffffff8216600090815260056020526040902081905561102661102161128a565b6113b3565b5050565b60095460ff1681565b61103b611181565b73ffffffffffffffffffffffffffffffffffffffff16611059610e6a565b73ffffffffffffffffffffffffffffffffffffffff16146110a6576040517f08c379a00000000000000000000000000000000000000000000000000000000081526004016104a390611780565b73ffffffffffffffffffffffffffffffffffffffff81166110f3576040517f08c379a00000000000000000000000000000000000000000000000000000000081526004016104a3906116ec565b60015460405173ffffffffffffffffffffffffffffffffffffffff8084169216907f8be0079c531659141344cd1fd0a4f28419497f9722a3daafe3b4186f6b6457e090600090a3600180547fffffffffffffffffffffffff00000000000000000000000000000000000000001673ffffffffffffffffffffffffffffffffffffffff92909216919091179055565b3390565b600080546040517f3c9c8f9c00000000000000000000000000000000000000000000000000000000815273ffffffffffffffffffffffffffffffffffffffff90911690633c9c8f9c906111dd906068906004016117b5565b60206040518083038186803b1580156111f557600080fd5b505afa158015611209573d6000803e3d6000fd5b505050506040513d601f19601f8201168201806040525081019061122d91906115c9565b905090565b600080546040517f3c9c8f9c00000000000000000000000000000000000000000000000000000000815273ffffffffffffffffffffffffffffffffffffffff90911690633c9c8f9c906111dd906065906004016117b5565b600080546040517f3c9c8f9c00000000000000000000000000000000000000000000000000000000815273ffffffffffffffffffffffffffffffffffffffff90911690633c9c8f9c906111dd90606c906004016117b5565b6006546000906112f2838561183f565b6112fc9190611806565b9392505050565b600080546040517f3c9c8f9c00000000000000000000000000000000000000000000000000000000815273ffffffffffffffffffffffffffffffffffffffff90911690633c9c8f9c906111dd906066906004016117b5565b600080546040517f3c9c8f9c00000000000000000000000000000000000000000000000000000000815273ffffffffffffffffffffffffffffffffffffffff90911690633c9c8f9c906111dd906067906004016117b5565b60005b60045460ff8216101561102657600060048260ff1681548110611402577f4e487b7100000000000000000000000000000000000000000000000000000000600052603260045260246000fd5b600091825260208083209091015473ffffffffffffffffffffffffffffffffffffffff168083526005909152604082205460025491935091906114469083906112e2565b73ffffffffffffffffffffffffffffffffffffffff848116600090815260076020526040908190205490517f19f51afb000000000000000000000000000000000000000000000000000000008152929350908716916319f51afb916114b59160ff9091169085906004016117db565b600060405180830381600087803b1580156114cf57600080fd5b505af11580156114e3573d6000803e3d6000fd5b5050505060006114f5836003546112e2565b73ffffffffffffffffffffffffffffffffffffffff858116600090815260086020526040908190205490517f19f51afb000000000000000000000000000000000000000000000000000000008152929350908816916319f51afb916115649160ff9091169085906004016117db565b600060405180830381600087803b15801561157e57600080fd5b505af1158015611592573d6000803e3d6000fd5b505050505050505080806115a590611893565b9150506113b6565b6000602082840312156115be578081fd5b81356112fc816118e2565b6000602082840312156115da578081fd5b81516112fc816118e2565b600080604083850312156115f7578081fd5b8235611602816118e2565b946020939093013593505050565b600080600060608486031215611624578081fd5b833561162f816118e2565b95602085013595506040909401359392505050565b600060208284031215611655578081fd5b815180151581146112fc578182fd5b600060208284031215611675578081fd5b5035919050565b73ffffffffffffffffffffffffffffffffffffffff91909116815260200190565b73ffffffffffffffffffffffffffffffffffffffff929092168252602082015260400190565b73ffffffffffffffffffffffffffffffffffffffff92909216825260ff16602082015260400190565b60208082526026908201527f4f776e61626c653a206e6577206f776e657220697320746865207a65726f206160408201527f6464726573730000000000000000000000000000000000000000000000000000606082015260800190565b60208082526017908201527f546f6b656e20616c726561647920697320616374697665000000000000000000604082015260600190565b6020808252818101527f4f776e61626c653a2063616c6c6572206973206e6f7420746865206f776e6572604082015260600190565b61ffff91909116815260200190565b90815260200190565b60ff91909116815260200190565b60ff929092168252602082015260400190565b60008219821115611801576118016118b3565b500190565b60008261183a577f4e487b710000000000000000000000000000000000000000000000000000000081526012600452602481fd5b500490565b6000817fffffffffffffffffffffffffffffffffffffffffffffffffffffffffffffffff0483118215151615611877576118776118b3565b500290565b60008282101561188e5761188e6118b3565b500390565b600060ff821660ff8114156118aa576118aa6118b3565b60010192915050565b7f4e487b7100000000000000000000000000000000000000000000000000000000600052601160045260246000fd5b73ffffffffffffffffffffffffffffffffffffffff8116811461190457600080fd5b5056fea264697066735822122089c30d911b22800692a6a52eecbd9f6b2a9e863307c4c8f4f2dbc44d2dbd2ab164736f6c63430008010033",
  "linkReferences": {},
  "deployedLinkReferences": {}
}