{
  "_format": "hh-sol-artifact-1",
  "contractName": "TokenAdmin",
  "sourceName": "contracts/TokenAdmin.sol",
  "abi": [
    {
      "inputs": [
        {
          "internalType": "uint256",
          "name": "lendingTargetPortion",
          "type": "uint256"
        },
        {
          "internalType": "uint256",
          "name": "borrowingTargetPortion",
          "type": "uint256"
        },
        {
          "internalType": "address",
          "name": "_roles",
          "type": "address"
        }
      ],
      "stateMutability": "nonpayable",
      "type": "constructor"
    },
    {
      "anonymous": false,
      "inputs": [
        {
          "indexed": true,
          "internalType": "address",
          "name": "previousOwner",
          "type": "address"
        },
        {
          "indexed": true,
          "internalType": "address",
          "name": "newOwner",
          "type": "address"
        }
      ],
      "name": "OwnershipTransferred",
      "type": "event"
    },
    {
      "inputs": [],
      "name": "ADMIN",
      "outputs": [
        {
          "internalType": "uint16",
          "name": "",
          "type": "uint16"
        }
      ],
      "stateMutability": "view",
      "type": "function"
    },
    {
      "inputs": [],
      "name": "AUTHORIZED_FUND_TRADER",
      "outputs": [
        {
          "internalType": "uint16",
          "name": "",
          "type": "uint16"
        }
      ],
      "stateMutability": "view",
      "type": "function"
    },
    {
      "inputs": [],
      "name": "BORROWER",
      "outputs": [
        {
          "internalType": "uint16",
          "name": "",
          "type": "uint16"
        }
      ],
      "stateMutability": "view",
      "type": "function"
    },
    {
      "inputs": [],
      "name": "FEE_CONTROLLER",
      "outputs": [
        {
          "internalType": "uint16",
          "name": "",
          "type": "uint16"
        }
      ],
      "stateMutability": "view",
      "type": "function"
    },
    {
      "inputs": [],
      "name": "FEE_SOURCE",
      "outputs": [
        {
          "internalType": "uint16",
          "name": "",
          "type": "uint16"
        }
      ],
      "stateMutability": "view",
      "type": "function"
    },
    {
      "inputs": [],
      "name": "FUND",
      "outputs": [
        {
          "internalType": "uint16",
          "name": "",
          "type": "uint16"
        }
      ],
      "stateMutability": "view",
      "type": "function"
    },
    {
      "inputs": [],
      "name": "INCENTIVE_DISTRIBUTION",
      "outputs": [
        {
          "internalType": "uint16",
          "name": "",
          "type": "uint16"
        }
      ],
      "stateMutability": "view",
      "type": "function"
    },
    {
      "inputs": [],
      "name": "INCENTIVE_REPORTER",
      "outputs": [
        {
          "internalType": "uint16",
          "name": "",
          "type": "uint16"
        }
      ],
      "stateMutability": "view",
      "type": "function"
    },
    {
      "inputs": [],
      "name": "LENDING",
      "outputs": [
        {
          "internalType": "uint16",
          "name": "",
          "type": "uint16"
        }
      ],
      "stateMutability": "view",
      "type": "function"
    },
    {
      "inputs": [],
      "name": "LIQUIDATOR",
      "outputs": [
        {
          "internalType": "uint16",
          "name": "",
          "type": "uint16"
        }
      ],
      "stateMutability": "view",
      "type": "function"
    },
    {
      "inputs": [],
      "name": "MARGIN_CALLER",
      "outputs": [
        {
          "internalType": "uint16",
          "name": "",
          "type": "uint16"
        }
      ],
      "stateMutability": "view",
      "type": "function"
    },
    {
      "inputs": [],
      "name": "MARGIN_TRADER",
      "outputs": [
        {
          "internalType": "uint16",
          "name": "",
          "type": "uint16"
        }
      ],
      "stateMutability": "view",
      "type": "function"
    },
    {
      "inputs": [],
      "name": "MARGIN_TRADING",
      "outputs": [
        {
          "internalType": "uint16",
          "name": "",
          "type": "uint16"
        }
      ],
      "stateMutability": "view",
      "type": "function"
    },
    {
      "inputs": [],
      "name": "PRICE_CONTROLLER",
      "outputs": [
        {
          "internalType": "uint16",
          "name": "",
          "type": "uint16"
        }
      ],
      "stateMutability": "view",
      "type": "function"
    },
    {
      "inputs": [],
      "name": "ROUTER",
      "outputs": [
        {
          "internalType": "uint16",
          "name": "",
          "type": "uint16"
        }
      ],
      "stateMutability": "view",
      "type": "function"
    },
    {
      "inputs": [],
      "name": "STAKE_PENALIZER",
      "outputs": [
        {
          "internalType": "uint16",
          "name": "",
          "type": "uint16"
        }
      ],
      "stateMutability": "view",
      "type": "function"
    },
    {
      "inputs": [],
      "name": "TOKEN_ACTIVATOR",
      "outputs": [
        {
          "internalType": "uint16",
          "name": "",
          "type": "uint16"
        }
      ],
      "stateMutability": "view",
      "type": "function"
    },
    {
      "inputs": [],
      "name": "WITHDRAWER",
      "outputs": [
        {
          "internalType": "uint16",
          "name": "",
          "type": "uint16"
        }
      ],
      "stateMutability": "view",
      "type": "function"
    },
    {
      "inputs": [
        {
          "internalType": "address",
          "name": "token",
          "type": "address"
        },
        {
          "internalType": "uint256",
          "name": "exposureCap",
          "type": "uint256"
        },
        {
          "internalType": "uint256",
          "name": "incentiveWeight",
          "type": "uint256"
        }
      ],
      "name": "activateToken",
      "outputs": [],
      "stateMutability": "nonpayable",
      "type": "function"
    },
    {
      "inputs": [
        {
          "internalType": "address",
          "name": "token",
          "type": "address"
        },
        {
          "internalType": "uint256",
          "name": "exposureCap",
          "type": "uint256"
        }
      ],
      "name": "changeTokenCap",
      "outputs": [],
      "stateMutability": "nonpayable",
      "type": "function"
    },
    {
      "inputs": [
        {
          "internalType": "address",
          "name": "token",
          "type": "address"
        },
        {
          "internalType": "uint256",
          "name": "tokenWeight",
          "type": "uint256"
        }
      ],
      "name": "changeTokenIncentiveWeight",
      "outputs": [],
      "stateMutability": "nonpayable",
      "type": "function"
    },
    {
      "inputs": [
        {
          "internalType": "uint256",
          "name": "",
          "type": "uint256"
        }
      ],
      "name": "incentiveTokens",
      "outputs": [
        {
          "internalType": "address",
          "name": "",
          "type": "address"
        }
      ],
      "stateMutability": "view",
      "type": "function"
    },
    {
      "inputs": [
        {
          "internalType": "uint16",
          "name": "",
          "type": "uint16"
        }
      ],
      "name": "mainCharacterCache",
      "outputs": [
        {
          "internalType": "address",
          "name": "",
          "type": "address"
        }
      ],
      "stateMutability": "view",
      "type": "function"
    },
    {
      "inputs": [],
      "name": "nextTrancheIndex",
      "outputs": [
        {
          "internalType": "uint8",
          "name": "",
          "type": "uint8"
        }
      ],
      "stateMutability": "view",
      "type": "function"
    },
    {
      "inputs": [],
      "name": "owner",
      "outputs": [
        {
          "internalType": "address",
          "name": "",
          "type": "address"
        }
      ],
      "stateMutability": "view",
      "type": "function"
    },
    {
      "inputs": [
        {
          "internalType": "address",
          "name": "newOwner",
          "type": "address"
        }
      ],
      "name": "relinquishOwnershipOfDistributor",
      "outputs": [],
      "stateMutability": "nonpayable",
      "type": "function"
    },
    {
      "inputs": [],
      "name": "renounceOwnership",
      "outputs": [],
      "stateMutability": "nonpayable",
      "type": "function"
    },
    {
      "inputs": [
        {
          "internalType": "address",
          "name": "",
          "type": "address"
        },
        {
          "internalType": "uint16",
          "name": "",
          "type": "uint16"
        }
      ],
      "name": "roleCache",
      "outputs": [
        {
          "internalType": "bool",
          "name": "",
          "type": "bool"
        }
      ],
      "stateMutability": "view",
      "type": "function"
    },
    {
      "inputs": [],
      "name": "roles",
      "outputs": [
        {
          "internalType": "contract Roles",
          "name": "",
          "type": "address"
        }
      ],
      "stateMutability": "view",
      "type": "function"
    },
    {
      "inputs": [
        {
          "internalType": "uint256",
          "name": "portion",
          "type": "uint256"
        }
      ],
      "name": "setBorrowingTargetPortion",
      "outputs": [],
      "stateMutability": "nonpayable",
      "type": "function"
    },
    {
      "inputs": [
        {
          "internalType": "uint256",
          "name": "portion",
          "type": "uint256"
        }
      ],
      "name": "setLendingTargetPortion",
      "outputs": [],
      "stateMutability": "nonpayable",
      "type": "function"
    },
    {
      "inputs": [
        {
          "internalType": "address",
          "name": "",
          "type": "address"
        }
      ],
      "name": "tokenBorrowingTranches",
      "outputs": [
        {
          "internalType": "uint8",
          "name": "",
          "type": "uint8"
        }
      ],
      "stateMutability": "view",
      "type": "function"
    },
    {
      "inputs": [
        {
          "internalType": "address",
          "name": "",
          "type": "address"
        }
      ],
      "name": "tokenLendingTranches",
      "outputs": [
        {
          "internalType": "uint8",
          "name": "",
          "type": "uint8"
        }
      ],
      "stateMutability": "view",
      "type": "function"
    },
    {
      "inputs": [
        {
          "internalType": "address",
          "name": "",
          "type": "address"
        }
      ],
      "name": "tokenWeights",
      "outputs": [
        {
          "internalType": "uint256",
          "name": "",
          "type": "uint256"
        }
      ],
      "stateMutability": "view",
      "type": "function"
    },
    {
      "inputs": [],
      "name": "totalBorrowingTargetPortion",
      "outputs": [
        {
          "internalType": "uint256",
          "name": "",
          "type": "uint256"
        }
      ],
      "stateMutability": "view",
      "type": "function"
    },
    {
      "inputs": [],
      "name": "totalLendingTargetPortion",
      "outputs": [
        {
          "internalType": "uint256",
          "name": "",
          "type": "uint256"
        }
      ],
      "stateMutability": "view",
      "type": "function"
    },
    {
      "inputs": [],
      "name": "totalTokenWeights",
      "outputs": [
        {
          "internalType": "uint256",
          "name": "",
          "type": "uint256"
        }
      ],
      "stateMutability": "view",
      "type": "function"
    },
    {
      "inputs": [
        {
          "internalType": "address",
          "name": "newOwner",
          "type": "address"
        }
      ],
      "name": "transferOwnership",
      "outputs": [],
      "stateMutability": "nonpayable",
      "type": "function"
    },
    {
      "inputs": [
        {
          "internalType": "uint16",
          "name": "role",
          "type": "uint16"
        }
      ],
      "name": "updateMainCharacterCache",
      "outputs": [],
      "stateMutability": "nonpayable",
      "type": "function"
    },
    {
      "inputs": [
        {
          "internalType": "uint16",
          "name": "role",
          "type": "uint16"
        },
        {
          "internalType": "address",
          "name": "contr",
          "type": "address"
        }
      ],
      "name": "updateRoleCache",
      "outputs": [],
      "stateMutability": "nonpayable",
      "type": "function"
    }
  ],
  "bytecode": "0x6080604052600b805460ff191660141790553480156200001e57600080fd5b5060405162001dbc38038062001dbc8339810160408190526200004191620000c8565b600080546001600160a01b0319166001600160a01b03831617815562000066620000c4565b600380546001600160a01b0319166001600160a01b038316908117909155604051919250906000907f8be0079c531659141344cd1fd0a4f28419497f9722a3daafe3b4186f6b6457e0908290a350506004919091556005556200010e565b3390565b600080600060608486031215620000dd578283fd5b83516020850151604086015191945092506001600160a01b038116811462000103578182fd5b809150509250925092565b611c9e806200011e6000396000f3fe608060405234801561001057600080fd5b50600436106102c85760003560e01c8063715018a61161017b578063bc2b28af116100d8578063dc8f5fac1161008c578063e15ac98a11610071578063e15ac98a146104d0578063f1c27000146104e3578063f2fde38b146104eb576102c8565b8063dc8f5fac146104b5578063dcc75604146104bd576102c8565b8063c76139d0116100bd578063c76139d01461049d578063cacf8d45146104a5578063d5d7ed7f146104ad576102c8565b8063bc2b28af14610475578063c34316c31461047d576102c8565b8063a0098d691161012f578063a9cc053611610114578063a9cc053614610447578063ab2f3ad41461044f578063b448165214610462576102c8565b8063a0098d6914610437578063a94c7c341461043f576102c8565b806381ca66001161016057806381ca66001461041f57806383a49c7c146104275780638da5cb5b1461042f576102c8565b8063715018a6146104045780637bad080a1461040c576102c8565b8063392f5f64116102295780635be072f2116101dd57806366941984116101c257806366941984146103d65780636cd5cd60146103de5780636d9d55ce146103f1576102c8565b80635be072f2146103bb5780635c275a39146103ce576102c8565b806348fb27b81161020e57806348fb27b81461038b578063543eeef9146103935780635686fb4e146103a8576102c8565b8063392f5f641461037b57806346b8879614610383576102c8565b806320e8d819116102805780632a3e4dc2116102655780632a3e4dc21461034b5780632fe94def1461036b57806332fe7b2614610373576102c8565b806320e8d819146103305780632a0acc6a14610343576102c8565b80631531841b116102b15780631531841b1461030b5780631b669507146103205780631bc5d81d14610328576102c8565b8063065d570f146102cd5780630c977ed2146102eb575b600080fd5b6102d56104fe565b6040516102e29190611aec565b60405180910390f35b6102fe6102f9366004611855565b610503565b6040516102e29190611b2e565b61031e6103193660046118c1565b610518565b005b6102d561060c565b6102d5610611565b61031e61033e36600461195a565b610616565b6102d5610727565b61035e610359366004611990565b61072c565b6040516102e291906119a8565b6102d5610763565b6102d5610768565b61035e61076d565b6102d5610789565b6102d561078e565b61039b610793565b6040516102e29190611b25565b61031e6103b63660046118ec565b610799565b61031e6103c9366004611990565b610dfd565b6102d5610e75565b6102d5610e7a565b61031e6103ec366004611940565b610e7f565b61031e6103ff366004611855565b610f7e565b61031e611066565b6102fe61041a366004611855565b611148565b6102d561115d565b6102d5611162565b61035e611167565b6102d5611183565b6102d5611188565b6102d561118d565b61039b61045d366004611855565b611192565b61035e610470366004611940565b6111a4565b61039b6111cc565b61049061048b36600461188d565b6111d2565b6040516102e29190611a18565b6102d56111f2565b6102d56111f7565b6102d56111fc565b61039b611201565b61031e6104cb366004611990565b611207565b61031e6104de3660046118c1565b61127f565b6102fe61136f565b61031e6104f9366004611855565b611378565b600381565b600a6020526000908152604090205460ff1681565b6105206114c6565b73ffffffffffffffffffffffffffffffffffffffff1661053e611167565b73ffffffffffffffffffffffffffffffffffffffff1614610594576040517f08c379a000000000000000000000000000000000000000000000000000000000815260040161058b90611ab7565b60405180910390fd5b61059c6114ca565b73ffffffffffffffffffffffffffffffffffffffff16631d47e4a383836040518363ffffffff1660e01b81526004016105d69291906119c9565b600060405180830381600087803b1580156105f057600080fd5b505af1158015610604573d6000803e3d6000fd5b505050505050565b600a81565b600881565b6000546040517fd87fefd200000000000000000000000000000000000000000000000000000000815273ffffffffffffffffffffffffffffffffffffffff9091169063d87fefd29061066e9085908590600401611afb565b60206040518083038186803b15801561068657600080fd5b505afa15801561069a573d6000803e3d6000fd5b505050506040513d601f19601f820116820180604052508101906106be9190611920565b73ffffffffffffffffffffffffffffffffffffffff909116600090815260026020908152604080832061ffff90951683529390529190912080549115157fffffffffffffffffffffffffffffffffffffffffffffffffffffffffffffff00909216919091179055565b606b81565b6006818154811061073c57600080fd5b60009182526020909120015473ffffffffffffffffffffffffffffffffffffffff16905081565b606981565b606781565b60005473ffffffffffffffffffffffffffffffffffffffff1681565b600681565b606681565b60055481565b6107a16114c6565b73ffffffffffffffffffffffffffffffffffffffff166107bf611167565b73ffffffffffffffffffffffffffffffffffffffff161461080c576040517f08c379a000000000000000000000000000000000000000000000000000000000815260040161058b90611ab7565b61081461150f565b73ffffffffffffffffffffffffffffffffffffffff16635acf6903846040518263ffffffff1660e01b815260040161084c91906119a8565b60206040518083038186803b15801561086457600080fd5b505afa158015610878573d6000803e3d6000fd5b505050506040513d601f19601f8201168201806040525081019061089c9190611920565b156108d3576040517f08c379a000000000000000000000000000000000000000000000000000000000815260040161058b90611a80565b6108db61150f565b73ffffffffffffffffffffffffffffffffffffffff16630d1ce2d2846040518263ffffffff1660e01b815260040161091391906119a8565b600060405180830381600087803b15801561092d57600080fd5b505af1158015610941573d6000803e3d6000fd5b5050505061094d6114ca565b73ffffffffffffffffffffffffffffffffffffffff16631d47e4a384846040518363ffffffff1660e01b81526004016109879291906119c9565b600060405180830381600087803b1580156109a157600080fd5b505af11580156109b5573d6000803e3d6000fd5b505050506000811115610df85780600860008282546109d49190611b4f565b909155505073ffffffffffffffffffffffffffffffffffffffff83166000908152600760205260408120829055610a09611554565b90506000610a1983600454611599565b600b546040517f430c39e400000000000000000000000000000000000000000000000000000000815291925073ffffffffffffffffffffffffffffffffffffffff84169163430c39e491610a779160ff909116908590600401611b3c565b600060405180830381600087803b158015610a9157600080fd5b505af1158015610aa5573d6000803e3d6000fd5b5050600b5473ffffffffffffffffffffffffffffffffffffffff8816600090815260096020526040902080547fffffffffffffffffffffffffffffffffffffffffffffffffffffffffffffff001660ff90921691909117905550610b0990506115ba565b600b546040517f2864f40100000000000000000000000000000000000000000000000000000000815273ffffffffffffffffffffffffffffffffffffffff9290921691632864f40191610b6491899160ff16906004016119ef565b600060405180830381600087803b158015610b7e57600080fd5b505af1158015610b92573d6000803e3d6000fd5b5050600b805460ff16925090506000610baa83611bf4565b91906101000a81548160ff021916908360ff160217905550506000610bd184600554611599565b600b546040517f430c39e400000000000000000000000000000000000000000000000000000000815291925073ffffffffffffffffffffffffffffffffffffffff85169163430c39e491610c2f9160ff909116908590600401611b3c565b600060405180830381600087803b158015610c4957600080fd5b505af1158015610c5d573d6000803e3d6000fd5b5050600b5473ffffffffffffffffffffffffffffffffffffffff89166000908152600a6020526040902080547fffffffffffffffffffffffffffffffffffffffffffffffffffffffffffffff001660ff90921691909117905550610cc190506115ff565b600b546040517f2864f40100000000000000000000000000000000000000000000000000000000815273ffffffffffffffffffffffffffffffffffffffff9290921691632864f40191610d1c918a9160ff16906004016119ef565b600060405180830381600087803b158015610d3657600080fd5b505af1158015610d4a573d6000803e3d6000fd5b5050600b805460ff16925090506000610d6283611bf4565b91906101000a81548160ff021916908360ff16021790555050610d8483611644565b5050600680546001810182556000919091527ff652222313e28459528d920b65115c16c04f3efc82aaedc97be59f3f377c0d3f0180547fffffffffffffffffffffffff00000000000000000000000000000000000000001673ffffffffffffffffffffffffffffffffffffffff8616179055505b505050565b610e056114c6565b73ffffffffffffffffffffffffffffffffffffffff16610e23611167565b73ffffffffffffffffffffffffffffffffffffffff1614610e70576040517f08c379a000000000000000000000000000000000000000000000000000000000815260040161058b90611ab7565b600455565b606581565b600181565b6000546040517f3c9c8f9c00000000000000000000000000000000000000000000000000000000815273ffffffffffffffffffffffffffffffffffffffff90911690633c9c8f9c90610ed5908490600401611aec565b60206040518083038186803b158015610eed57600080fd5b505afa158015610f01573d6000803e3d6000fd5b505050506040513d601f19601f82011682018060405250810190610f259190611871565b61ffff91909116600090815260016020526040902080547fffffffffffffffffffffffff00000000000000000000000000000000000000001673ffffffffffffffffffffffffffffffffffffffff909216919091179055565b610f866114c6565b73ffffffffffffffffffffffffffffffffffffffff16610fa4611167565b73ffffffffffffffffffffffffffffffffffffffff1614610ff1576040517f08c379a000000000000000000000000000000000000000000000000000000000815260040161058b90611ab7565b610ff9611554565b73ffffffffffffffffffffffffffffffffffffffff1663f2fde38b826040518263ffffffff1660e01b815260040161103191906119a8565b600060405180830381600087803b15801561104b57600080fd5b505af115801561105f573d6000803e3d6000fd5b5050505050565b61106e6114c6565b73ffffffffffffffffffffffffffffffffffffffff1661108c611167565b73ffffffffffffffffffffffffffffffffffffffff16146110d9576040517f08c379a000000000000000000000000000000000000000000000000000000000815260040161058b90611ab7565b60035460405160009173ffffffffffffffffffffffffffffffffffffffff16907f8be0079c531659141344cd1fd0a4f28419497f9722a3daafe3b4186f6b6457e0908390a3600380547fffffffffffffffffffffffff0000000000000000000000000000000000000000169055565b60096020526000908152604090205460ff1681565b606a81565b600981565b60035473ffffffffffffffffffffffffffffffffffffffff1690565b600281565b600581565b606881565b60076020526000908152604090205481565b60016020526000908152604090205473ffffffffffffffffffffffffffffffffffffffff1681565b60045481565b600260209081526000928352604080842090915290825290205460ff1681565b606c81565b600481565b600781565b60085481565b61120f6114c6565b73ffffffffffffffffffffffffffffffffffffffff1661122d611167565b73ffffffffffffffffffffffffffffffffffffffff161461127a576040517f08c379a000000000000000000000000000000000000000000000000000000000815260040161058b90611ab7565b600555565b6112876114c6565b73ffffffffffffffffffffffffffffffffffffffff166112a5611167565b73ffffffffffffffffffffffffffffffffffffffff16146112f2576040517f08c379a000000000000000000000000000000000000000000000000000000000815260040161058b90611ab7565b73ffffffffffffffffffffffffffffffffffffffff8216600090815260076020526040902054600854611326908390611b4f565b6113309190611bdd565b60085573ffffffffffffffffffffffffffffffffffffffff8216600090815260076020526040902081905561136b611366611554565b611644565b5050565b600b5460ff1681565b6113806114c6565b73ffffffffffffffffffffffffffffffffffffffff1661139e611167565b73ffffffffffffffffffffffffffffffffffffffff16146113eb576040517f08c379a000000000000000000000000000000000000000000000000000000000815260040161058b90611ab7565b73ffffffffffffffffffffffffffffffffffffffff8116611438576040517f08c379a000000000000000000000000000000000000000000000000000000000815260040161058b90611a23565b60035460405173ffffffffffffffffffffffffffffffffffffffff8084169216907f8be0079c531659141344cd1fd0a4f28419497f9722a3daafe3b4186f6b6457e090600090a3600380547fffffffffffffffffffffffff00000000000000000000000000000000000000001673ffffffffffffffffffffffffffffffffffffffff92909216919091179055565b3390565b606860005260016020527ff284ef79b1311865905aedf2d88775d1e3bf6a2b09002616cb4dc1af77e578f45473ffffffffffffffffffffffffffffffffffffffff1690565b606560005260016020527f6def5a300acb6fcaa0dab3a41e9d6457b5147a641e641380f8cc4bf5308b16fe5473ffffffffffffffffffffffffffffffffffffffff1690565b606c60005260016020527fd80c728dcb954e7539257f5b9090fa0c83e482d978be864c61ec2b155c05c2525473ffffffffffffffffffffffffffffffffffffffff1690565b6008546000906115a98385611ba0565b6115b39190611b67565b9392505050565b606660005260016020527f8a7727369fa1a496cab5c3debb1ff9323f499df74f8bfc03a975054ef960ee6d5473ffffffffffffffffffffffffffffffffffffffff1690565b606760005260016020527f3df8f088882f8b9ec191c0c401507a494987ab757ec0bcd484b0f744e1857e895473ffffffffffffffffffffffffffffffffffffffff1690565b60005b60065460ff8216101561136b57600060068260ff1681548110611693577f4e487b7100000000000000000000000000000000000000000000000000000000600052603260045260246000fd5b600091825260208083209091015473ffffffffffffffffffffffffffffffffffffffff168083526007909152604082205460045491935091906116d7908390611599565b73ffffffffffffffffffffffffffffffffffffffff848116600090815260096020526040908190205490517f19f51afb000000000000000000000000000000000000000000000000000000008152929350908716916319f51afb916117469160ff909116908590600401611b3c565b600060405180830381600087803b15801561176057600080fd5b505af1158015611774573d6000803e3d6000fd5b50505050600061178683600554611599565b73ffffffffffffffffffffffffffffffffffffffff8581166000908152600a6020526040908190205490517f19f51afb000000000000000000000000000000000000000000000000000000008152929350908816916319f51afb916117f59160ff909116908590600401611b3c565b600060405180830381600087803b15801561180f57600080fd5b505af1158015611823573d6000803e3d6000fd5b5050505050505050808061183690611bf4565b915050611647565b803561ffff8116811461185057600080fd5b919050565b600060208284031215611866578081fd5b81356115b381611c43565b600060208284031215611882578081fd5b81516115b381611c43565b6000806040838503121561189f578081fd5b82356118aa81611c43565b91506118b86020840161183e565b90509250929050565b600080604083850312156118d3578182fd5b82356118de81611c43565b946020939093013593505050565b600080600060608486031215611900578081fd5b833561190b81611c43565b95602085013595506040909401359392505050565b600060208284031215611931578081fd5b815180151581146115b3578182fd5b600060208284031215611951578081fd5b6115b38261183e565b6000806040838503121561196c578182fd5b6119758361183e565b9150602083013561198581611c43565b809150509250929050565b6000602082840312156119a1578081fd5b5035919050565b73ffffffffffffffffffffffffffffffffffffffff91909116815260200190565b73ffffffffffffffffffffffffffffffffffffffff929092168252602082015260400190565b73ffffffffffffffffffffffffffffffffffffffff92909216825260ff16602082015260400190565b901515815260200190565b60208082526026908201527f4f776e61626c653a206e6577206f776e657220697320746865207a65726f206160408201527f6464726573730000000000000000000000000000000000000000000000000000606082015260800190565b60208082526017908201527f546f6b656e20616c726561647920697320616374697665000000000000000000604082015260600190565b6020808252818101527f4f776e61626c653a2063616c6c6572206973206e6f7420746865206f776e6572604082015260600190565b61ffff91909116815260200190565b61ffff92909216825273ffffffffffffffffffffffffffffffffffffffff16602082015260400190565b90815260200190565b60ff91909116815260200190565b60ff929092168252602082015260400190565b60008219821115611b6257611b62611c14565b500190565b600082611b9b577f4e487b710000000000000000000000000000000000000000000000000000000081526012600452602481fd5b500490565b6000817fffffffffffffffffffffffffffffffffffffffffffffffffffffffffffffffff0483118215151615611bd857611bd8611c14565b500290565b600082821015611bef57611bef611c14565b500390565b600060ff821660ff811415611c0b57611c0b611c14565b60010192915050565b7f4e487b7100000000000000000000000000000000000000000000000000000000600052601160045260246000fd5b73ffffffffffffffffffffffffffffffffffffffff81168114611c6557600080fd5b5056fea26469706673582212205c0bbc01eaec2c2f6b9ee157ec14b106bbc450510198fe9648d7833ee850caf164736f6c63430008010033",
  "linkReferences": {},
  "deployedLinkReferences": {}
}