{
  "_format": "hh-sol-artifact-1",
  "contractName": "TokenAdmin",
  "sourceName": "contracts/TokenAdmin.sol",
  "abi": [
    {
      "inputs": [
        {
          "internalType": "uint256",
          "name": "lendingTargetPortion",
          "type": "uint256"
        },
        {
          "internalType": "uint256",
          "name": "borrowingTargetPortion",
          "type": "uint256"
        },
        {
          "internalType": "address",
          "name": "_roles",
          "type": "address"
        }
      ],
      "stateMutability": "nonpayable",
      "type": "constructor"
    },
    {
      "anonymous": false,
      "inputs": [
        {
          "indexed": true,
          "internalType": "address",
          "name": "previousOwner",
          "type": "address"
        },
        {
          "indexed": true,
          "internalType": "address",
          "name": "newOwner",
          "type": "address"
        }
      ],
      "name": "OwnershipTransferred",
      "type": "event"
    },
    {
      "inputs": [],
      "name": "ADMIN",
      "outputs": [
        {
          "internalType": "uint16",
          "name": "",
          "type": "uint16"
        }
      ],
      "stateMutability": "view",
      "type": "function"
    },
    {
      "inputs": [],
      "name": "AUTHORIZED_FUND_TRADER",
      "outputs": [
        {
          "internalType": "uint16",
          "name": "",
          "type": "uint16"
        }
      ],
      "stateMutability": "view",
      "type": "function"
    },
    {
      "inputs": [],
      "name": "BORROWER",
      "outputs": [
        {
          "internalType": "uint16",
          "name": "",
          "type": "uint16"
        }
      ],
      "stateMutability": "view",
      "type": "function"
    },
    {
      "inputs": [],
      "name": "FEE_CONTROLLER",
      "outputs": [
        {
          "internalType": "uint16",
          "name": "",
          "type": "uint16"
        }
      ],
      "stateMutability": "view",
      "type": "function"
    },
    {
      "inputs": [],
      "name": "FEE_SOURCE",
      "outputs": [
        {
          "internalType": "uint16",
          "name": "",
          "type": "uint16"
        }
      ],
      "stateMutability": "view",
      "type": "function"
    },
    {
      "inputs": [],
      "name": "FUND",
      "outputs": [
        {
          "internalType": "uint16",
          "name": "",
          "type": "uint16"
        }
      ],
      "stateMutability": "view",
      "type": "function"
    },
    {
      "inputs": [],
      "name": "INCENTIVE_DISTRIBUTION",
      "outputs": [
        {
          "internalType": "uint16",
          "name": "",
          "type": "uint16"
        }
      ],
      "stateMutability": "view",
      "type": "function"
    },
    {
      "inputs": [],
      "name": "INCENTIVE_REPORTER",
      "outputs": [
        {
          "internalType": "uint16",
          "name": "",
          "type": "uint16"
        }
      ],
      "stateMutability": "view",
      "type": "function"
    },
    {
      "inputs": [],
      "name": "LENDING",
      "outputs": [
        {
          "internalType": "uint16",
          "name": "",
          "type": "uint16"
        }
      ],
      "stateMutability": "view",
      "type": "function"
    },
    {
      "inputs": [],
      "name": "LIQUIDATOR",
      "outputs": [
        {
          "internalType": "uint16",
          "name": "",
          "type": "uint16"
        }
      ],
      "stateMutability": "view",
      "type": "function"
    },
    {
      "inputs": [],
      "name": "MARGIN_CALLER",
      "outputs": [
        {
          "internalType": "uint16",
          "name": "",
          "type": "uint16"
        }
      ],
      "stateMutability": "view",
      "type": "function"
    },
    {
      "inputs": [],
      "name": "MARGIN_TRADER",
      "outputs": [
        {
          "internalType": "uint16",
          "name": "",
          "type": "uint16"
        }
      ],
      "stateMutability": "view",
      "type": "function"
    },
    {
      "inputs": [],
      "name": "MARGIN_TRADING",
      "outputs": [
        {
          "internalType": "uint16",
          "name": "",
          "type": "uint16"
        }
      ],
      "stateMutability": "view",
      "type": "function"
    },
    {
      "inputs": [],
      "name": "PRICE_CONTROLLER",
      "outputs": [
        {
          "internalType": "uint16",
          "name": "",
          "type": "uint16"
        }
      ],
      "stateMutability": "view",
      "type": "function"
    },
    {
      "inputs": [],
      "name": "ROUTER",
      "outputs": [
        {
          "internalType": "uint16",
          "name": "",
          "type": "uint16"
        }
      ],
      "stateMutability": "view",
      "type": "function"
    },
    {
      "inputs": [],
      "name": "TOKEN_ACTIVATOR",
      "outputs": [
        {
          "internalType": "uint16",
          "name": "",
          "type": "uint16"
        }
      ],
      "stateMutability": "view",
      "type": "function"
    },
    {
      "inputs": [],
      "name": "WITHDRAWER",
      "outputs": [
        {
          "internalType": "uint16",
          "name": "",
          "type": "uint16"
        }
      ],
      "stateMutability": "view",
      "type": "function"
    },
    {
      "inputs": [
        {
          "internalType": "address",
          "name": "token",
          "type": "address"
        },
        {
          "internalType": "uint256",
          "name": "exposureCap",
          "type": "uint256"
        },
        {
          "internalType": "uint256",
          "name": "incentiveWeight",
          "type": "uint256"
        }
      ],
      "name": "activateToken",
      "outputs": [],
      "stateMutability": "nonpayable",
      "type": "function"
    },
    {
      "inputs": [
        {
          "internalType": "uint256",
          "name": "",
          "type": "uint256"
        }
      ],
      "name": "incentiveTokens",
      "outputs": [
        {
          "internalType": "address",
          "name": "",
          "type": "address"
        }
      ],
      "stateMutability": "view",
      "type": "function"
    },
    {
      "inputs": [
        {
          "internalType": "uint16",
          "name": "",
          "type": "uint16"
        }
      ],
      "name": "mainCharacterCache",
      "outputs": [
        {
          "internalType": "address",
          "name": "",
          "type": "address"
        }
      ],
      "stateMutability": "view",
      "type": "function"
    },
    {
      "inputs": [],
      "name": "nextTrancheIndex",
      "outputs": [
        {
          "internalType": "uint8",
          "name": "",
          "type": "uint8"
        }
      ],
      "stateMutability": "view",
      "type": "function"
    },
    {
      "inputs": [],
      "name": "owner",
      "outputs": [
        {
          "internalType": "address",
          "name": "",
          "type": "address"
        }
      ],
      "stateMutability": "view",
      "type": "function"
    },
    {
      "inputs": [
        {
          "internalType": "address",
          "name": "newOwner",
          "type": "address"
        }
      ],
      "name": "relinquishOwnershipOfDistributor",
      "outputs": [],
      "stateMutability": "nonpayable",
      "type": "function"
    },
    {
      "inputs": [],
      "name": "renounceOwnership",
      "outputs": [],
      "stateMutability": "nonpayable",
      "type": "function"
    },
    {
      "inputs": [
        {
          "internalType": "address",
          "name": "",
          "type": "address"
        },
        {
          "internalType": "uint16",
          "name": "",
          "type": "uint16"
        }
      ],
      "name": "roleCache",
      "outputs": [
        {
          "internalType": "bool",
          "name": "",
          "type": "bool"
        }
      ],
      "stateMutability": "view",
      "type": "function"
    },
    {
      "inputs": [],
      "name": "roles",
      "outputs": [
        {
          "internalType": "contract Roles",
          "name": "",
          "type": "address"
        }
      ],
      "stateMutability": "view",
      "type": "function"
    },
    {
      "inputs": [
        {
          "internalType": "uint256",
          "name": "portion",
          "type": "uint256"
        }
      ],
      "name": "setBorrowingTargetPortion",
      "outputs": [],
      "stateMutability": "nonpayable",
      "type": "function"
    },
    {
      "inputs": [
        {
          "internalType": "uint256",
          "name": "portion",
          "type": "uint256"
        }
      ],
      "name": "setLendingTargetPortion",
      "outputs": [],
      "stateMutability": "nonpayable",
      "type": "function"
    },
    {
      "inputs": [
        {
          "internalType": "address",
          "name": "",
          "type": "address"
        }
      ],
      "name": "tokenBorrowingTranches",
      "outputs": [
        {
          "internalType": "uint8",
          "name": "",
          "type": "uint8"
        }
      ],
      "stateMutability": "view",
      "type": "function"
    },
    {
      "inputs": [
        {
          "internalType": "address",
          "name": "",
          "type": "address"
        }
      ],
      "name": "tokenLendingTranches",
      "outputs": [
        {
          "internalType": "uint8",
          "name": "",
          "type": "uint8"
        }
      ],
      "stateMutability": "view",
      "type": "function"
    },
    {
      "inputs": [
        {
          "internalType": "address",
          "name": "",
          "type": "address"
        }
      ],
      "name": "tokenWeights",
      "outputs": [
        {
          "internalType": "uint256",
          "name": "",
          "type": "uint256"
        }
      ],
      "stateMutability": "view",
      "type": "function"
    },
    {
      "inputs": [],
      "name": "totalBorrowingTargetPortion",
      "outputs": [
        {
          "internalType": "uint256",
          "name": "",
          "type": "uint256"
        }
      ],
      "stateMutability": "view",
      "type": "function"
    },
    {
      "inputs": [],
      "name": "totalLendingTargetPortion",
      "outputs": [
        {
          "internalType": "uint256",
          "name": "",
          "type": "uint256"
        }
      ],
      "stateMutability": "view",
      "type": "function"
    },
    {
      "inputs": [],
      "name": "totalTokenWeights",
      "outputs": [
        {
          "internalType": "uint256",
          "name": "",
          "type": "uint256"
        }
      ],
      "stateMutability": "view",
      "type": "function"
    },
    {
      "inputs": [
        {
          "internalType": "address",
          "name": "newOwner",
          "type": "address"
        }
      ],
      "name": "transferOwnership",
      "outputs": [],
      "stateMutability": "nonpayable",
      "type": "function"
    },
    {
      "inputs": [
        {
          "internalType": "uint16",
          "name": "role",
          "type": "uint16"
        }
      ],
      "name": "updateMainCharacterCache",
      "outputs": [],
      "stateMutability": "nonpayable",
      "type": "function"
    },
    {
      "inputs": [
        {
          "internalType": "uint16",
          "name": "role",
          "type": "uint16"
        },
        {
          "internalType": "address",
          "name": "contr",
          "type": "address"
        }
      ],
      "name": "updateRoleCache",
      "outputs": [],
      "stateMutability": "nonpayable",
      "type": "function"
    }
  ],
  "bytecode": "0x6080604052600b805460ff1916601417905534801561001d57600080fd5b5060405161181d38038061181d83398101604081905261003c916100c0565b600080546001600160a01b0319166001600160a01b03831617815561005f6100bc565b600380546001600160a01b0319166001600160a01b038316908117909155604051919250906000907f8be0079c531659141344cd1fd0a4f28419497f9722a3daafe3b4186f6b6457e0908290a35050600491909155600555610104565b3390565b6000806000606084860312156100d4578283fd5b83516020850151604086015191945092506001600160a01b03811681146100f9578182fd5b809150509250925092565b61170a806101136000396000f3fe608060405234801561001057600080fd5b50600436106102775760003560e01c8063715018a611610160578063b4481652116100d8578063d5d7ed7f1161008c578063dcc7560411610071578063dcc7560414610451578063f1c2700014610464578063f2fde38b1461046c57610277565b8063d5d7ed7f14610441578063dc8f5fac1461044957610277565b8063c34316c3116100bd578063c34316c314610411578063c76139d014610431578063cacf8d451461043957610277565b8063b4481652146103f6578063bc2b28af1461040957610277565b80638da5cb5b1161012f578063a94c7c3411610114578063a94c7c34146103d3578063a9cc0536146103db578063ab2f3ad4146103e357610277565b80638da5cb5b146103c3578063a0098d69146103cb57610277565b8063715018a6146103985780637bad080a146103a057806381ca6600146103b357806383a49c7c146103bb57610277565b806346b88796116101f35780635be072f2116101c257806366941984116101a7578063669419841461036a5780636cd5cd60146103725780636d9d55ce1461038557610277565b80635be072f21461034f5780635c275a391461036257610277565b806346b887961461031757806348fb27b81461031f578063543eeef9146103275780635686fb4e1461033c57610277565b80632a0acc6a1161024a5780632fe94def1161022f5780632fe94def146102ff57806332fe7b2614610307578063392f5f641461030f57610277565b80632a0acc6a146102d75780632a3e4dc2146102df57610277565b8063065d570f1461027c5780630c977ed21461029a5780631bc5d81d146102ba57806320e8d819146102c2575b600080fd5b61028461047f565b604051610291919061156f565b60405180910390f35b6102ad6102a8366004611363565b610484565b60405161029191906115b1565b610284610499565b6102d56102d036600461143d565b61049e565b005b6102846105af565b6102f26102ed366004611473565b6105b4565b604051610291919061148b565b6102846105eb565b6102846105f0565b6102f26105f5565b610284610611565b610284610616565b61032f61061b565b60405161029191906115a8565b6102d561034a3660046113cf565b610621565b6102d561035d366004611473565b610c7f565b610284610cf7565b610284610cfc565b6102d5610380366004611423565b610d01565b6102d5610393366004611363565b610e00565b6102d5610ee8565b6102ad6103ae366004611363565b610fca565b610284610fdf565b610284610fe4565b6102f2610fe9565b610284611005565b61028461100a565b61028461100f565b61032f6103f1366004611363565b611014565b6102f2610404366004611423565b611026565b61032f61104e565b61042461041f36600461139b565b611054565b60405161029191906114d2565b610284611074565b610284611079565b61028461107e565b61032f611083565b6102d561045f366004611473565b611089565b6102ad611101565b6102d561047a366004611363565b61110a565b600381565b600a6020526000908152604090205460ff1681565b600881565b6000546040517fd87fefd200000000000000000000000000000000000000000000000000000000815273ffffffffffffffffffffffffffffffffffffffff9091169063d87fefd2906104f6908590859060040161157e565b60206040518083038186803b15801561050e57600080fd5b505afa158015610522573d6000803e3d6000fd5b505050506040513d601f19601f820116820180604052508101906105469190611403565b73ffffffffffffffffffffffffffffffffffffffff909116600090815260026020908152604080832061ffff90951683529390529190912080549115157fffffffffffffffffffffffffffffffffffffffffffffffffffffffffffffff00909216919091179055565b606b81565b600681815481106105c457600080fd5b60009182526020909120015473ffffffffffffffffffffffffffffffffffffffff16905081565b606981565b606781565b60005473ffffffffffffffffffffffffffffffffffffffff1681565b600681565b606681565b60055481565b610629611258565b73ffffffffffffffffffffffffffffffffffffffff16610647610fe9565b73ffffffffffffffffffffffffffffffffffffffff161461069d576040517f08c379a00000000000000000000000000000000000000000000000000000000081526004016106949061153a565b60405180910390fd5b6106a561125c565b73ffffffffffffffffffffffffffffffffffffffff16630d1ce2d2846040518263ffffffff1660e01b81526004016106dd919061148b565b600060405180830381600087803b1580156106f757600080fd5b505af115801561070b573d6000803e3d6000fd5b505050506107176112a1565b73ffffffffffffffffffffffffffffffffffffffff16631d47e4a384846040518363ffffffff1660e01b81526004016107519291906114ac565b600060405180830381600087803b15801561076b57600080fd5b505af115801561077f573d6000803e3d6000fd5b505050506000811115610c7a57806008600082825461079e91906115d2565b909155505073ffffffffffffffffffffffffffffffffffffffff831660009081526007602052604081208290556107d36112e6565b905060006107e38360045461132b565b600b546040517f430c39e400000000000000000000000000000000000000000000000000000000815291925073ffffffffffffffffffffffffffffffffffffffff84169163430c39e4916108419160ff9091169085906004016115bf565b600060405180830381600087803b15801561085b57600080fd5b505af115801561086f573d6000803e3d6000fd5b5050600b805473ffffffffffffffffffffffffffffffffffffffff8916600090815260096020526040812080547fffffffffffffffffffffffffffffffffffffffffffffffffffffffffffffff001660ff938416179055825490911693509091506108d983611660565b91906101000a81548160ff021916908360ff1602179055505060006109008460055461132b565b600b546040517f430c39e400000000000000000000000000000000000000000000000000000000815291925073ffffffffffffffffffffffffffffffffffffffff85169163430c39e49161095e9160ff9091169085906004016115bf565b600060405180830381600087803b15801561097857600080fd5b505af115801561098c573d6000803e3d6000fd5b5050600b805473ffffffffffffffffffffffffffffffffffffffff8a166000908152600a6020526040812080547fffffffffffffffffffffffffffffffffffffffffffffffffffffffffffffff001660ff938416179055825490911693509091506109f683611660565b91906101000a81548160ff021916908360ff1602179055505060005b60065460ff82161015610c0557600060068260ff1681548110610a5e577f4e487b7100000000000000000000000000000000000000000000000000000000600052603260045260246000fd5b600091825260208083209091015473ffffffffffffffffffffffffffffffffffffffff16808352600790915260409091205460045491925090610aa290829061132b565b73ffffffffffffffffffffffffffffffffffffffff838116600090815260096020526040908190205490517f19f51afb000000000000000000000000000000000000000000000000000000008152929750908816916319f51afb91610b119160ff9091169089906004016115bf565b600060405180830381600087803b158015610b2b57600080fd5b505af1158015610b3f573d6000803e3d6000fd5b50505050610b4f8160055461132b565b73ffffffffffffffffffffffffffffffffffffffff8381166000908152600a6020526040908190205490517f19f51afb000000000000000000000000000000000000000000000000000000008152929650908816916319f51afb91610bbe9160ff9091169088906004016115bf565b600060405180830381600087803b158015610bd857600080fd5b505af1158015610bec573d6000803e3d6000fd5b5050505050508080610bfd90611660565b915050610a12565b5050600680546001810182556000919091527ff652222313e28459528d920b65115c16c04f3efc82aaedc97be59f3f377c0d3f0180547fffffffffffffffffffffffff00000000000000000000000000000000000000001673ffffffffffffffffffffffffffffffffffffffff871617905550505b505050565b610c87611258565b73ffffffffffffffffffffffffffffffffffffffff16610ca5610fe9565b73ffffffffffffffffffffffffffffffffffffffff1614610cf2576040517f08c379a00000000000000000000000000000000000000000000000000000000081526004016106949061153a565b600455565b606581565b600181565b6000546040517f3c9c8f9c00000000000000000000000000000000000000000000000000000000815273ffffffffffffffffffffffffffffffffffffffff90911690633c9c8f9c90610d5790849060040161156f565b60206040518083038186803b158015610d6f57600080fd5b505afa158015610d83573d6000803e3d6000fd5b505050506040513d601f19601f82011682018060405250810190610da7919061137f565b61ffff91909116600090815260016020526040902080547fffffffffffffffffffffffff00000000000000000000000000000000000000001673ffffffffffffffffffffffffffffffffffffffff909216919091179055565b610e08611258565b73ffffffffffffffffffffffffffffffffffffffff16610e26610fe9565b73ffffffffffffffffffffffffffffffffffffffff1614610e73576040517f08c379a00000000000000000000000000000000000000000000000000000000081526004016106949061153a565b610e7b6112e6565b73ffffffffffffffffffffffffffffffffffffffff1663f2fde38b826040518263ffffffff1660e01b8152600401610eb3919061148b565b600060405180830381600087803b158015610ecd57600080fd5b505af1158015610ee1573d6000803e3d6000fd5b5050505050565b610ef0611258565b73ffffffffffffffffffffffffffffffffffffffff16610f0e610fe9565b73ffffffffffffffffffffffffffffffffffffffff1614610f5b576040517f08c379a00000000000000000000000000000000000000000000000000000000081526004016106949061153a565b60035460405160009173ffffffffffffffffffffffffffffffffffffffff16907f8be0079c531659141344cd1fd0a4f28419497f9722a3daafe3b4186f6b6457e0908390a3600380547fffffffffffffffffffffffff0000000000000000000000000000000000000000169055565b60096020526000908152604090205460ff1681565b606a81565b600981565b60035473ffffffffffffffffffffffffffffffffffffffff1690565b600281565b600581565b606881565b60076020526000908152604090205481565b60016020526000908152604090205473ffffffffffffffffffffffffffffffffffffffff1681565b60045481565b600260209081526000928352604080842090915290825290205460ff1681565b606c81565b600481565b600781565b60085481565b611091611258565b73ffffffffffffffffffffffffffffffffffffffff166110af610fe9565b73ffffffffffffffffffffffffffffffffffffffff16146110fc576040517f08c379a00000000000000000000000000000000000000000000000000000000081526004016106949061153a565b600555565b600b5460ff1681565b611112611258565b73ffffffffffffffffffffffffffffffffffffffff16611130610fe9565b73ffffffffffffffffffffffffffffffffffffffff161461117d576040517f08c379a00000000000000000000000000000000000000000000000000000000081526004016106949061153a565b73ffffffffffffffffffffffffffffffffffffffff81166111ca576040517f08c379a0000000000000000000000000000000000000000000000000000000008152600401610694906114dd565b60035460405173ffffffffffffffffffffffffffffffffffffffff8084169216907f8be0079c531659141344cd1fd0a4f28419497f9722a3daafe3b4186f6b6457e090600090a3600380547fffffffffffffffffffffffff00000000000000000000000000000000000000001673ffffffffffffffffffffffffffffffffffffffff92909216919091179055565b3390565b606560005260016020527f6def5a300acb6fcaa0dab3a41e9d6457b5147a641e641380f8cc4bf5308b16fe5473ffffffffffffffffffffffffffffffffffffffff1690565b606860005260016020527ff284ef79b1311865905aedf2d88775d1e3bf6a2b09002616cb4dc1af77e578f45473ffffffffffffffffffffffffffffffffffffffff1690565b606c60005260016020527fd80c728dcb954e7539257f5b9090fa0c83e482d978be864c61ec2b155c05c2525473ffffffffffffffffffffffffffffffffffffffff1690565b60085460009061133b8385611623565b61134591906115ea565b9392505050565b803561ffff8116811461135e57600080fd5b919050565b600060208284031215611374578081fd5b8135611345816116af565b600060208284031215611390578081fd5b8151611345816116af565b600080604083850312156113ad578081fd5b82356113b8816116af565b91506113c66020840161134c565b90509250929050565b6000806000606084860312156113e3578081fd5b83356113ee816116af565b95602085013595506040909401359392505050565b600060208284031215611414578081fd5b81518015158114611345578182fd5b600060208284031215611434578081fd5b6113458261134c565b6000806040838503121561144f578182fd5b6114588361134c565b91506020830135611468816116af565b809150509250929050565b600060208284031215611484578081fd5b5035919050565b73ffffffffffffffffffffffffffffffffffffffff91909116815260200190565b73ffffffffffffffffffffffffffffffffffffffff929092168252602082015260400190565b901515815260200190565b60208082526026908201527f4f776e61626c653a206e6577206f776e657220697320746865207a65726f206160408201527f6464726573730000000000000000000000000000000000000000000000000000606082015260800190565b6020808252818101527f4f776e61626c653a2063616c6c6572206973206e6f7420746865206f776e6572604082015260600190565b61ffff91909116815260200190565b61ffff92909216825273ffffffffffffffffffffffffffffffffffffffff16602082015260400190565b90815260200190565b60ff91909116815260200190565b60ff929092168252602082015260400190565b600082198211156115e5576115e5611680565b500190565b60008261161e577f4e487b710000000000000000000000000000000000000000000000000000000081526012600452602481fd5b500490565b6000817fffffffffffffffffffffffffffffffffffffffffffffffffffffffffffffffff048311821515161561165b5761165b611680565b500290565b600060ff821660ff81141561167757611677611680565b60010192915050565b7f4e487b7100000000000000000000000000000000000000000000000000000000600052601160045260246000fd5b73ffffffffffffffffffffffffffffffffffffffff811681146116d157600080fd5b5056fea26469706673582212206fa08f17a07c64b80c62341d10905131b72236786de504297c59727dca8fb24064736f6c63430008010033",
  "linkReferences": {},
  "deployedLinkReferences": {}
}