{
  "_format": "hh-sol-artifact-1",
  "contractName": "TokenAdmin",
  "sourceName": "contracts/TokenAdmin.sol",
  "abi": [
    {
      "inputs": [
        {
          "internalType": "uint256",
          "name": "lendingTargetPortion",
          "type": "uint256"
        },
        {
          "internalType": "uint256",
          "name": "borrowingTargetPortion",
          "type": "uint256"
        },
        {
          "internalType": "address",
          "name": "_roles",
          "type": "address"
        }
      ],
      "stateMutability": "nonpayable",
      "type": "constructor"
    },
    {
      "anonymous": false,
      "inputs": [
        {
          "indexed": true,
          "internalType": "address",
          "name": "previousOwner",
          "type": "address"
        },
        {
          "indexed": true,
          "internalType": "address",
          "name": "newOwner",
          "type": "address"
        }
      ],
      "name": "OwnershipTransferred",
      "type": "event"
    },
    {
      "inputs": [],
      "name": "ADMIN",
      "outputs": [
        {
          "internalType": "uint16",
          "name": "",
          "type": "uint16"
        }
      ],
      "stateMutability": "view",
      "type": "function"
    },
    {
      "inputs": [],
      "name": "AUTHORIZED_FUND_TRADER",
      "outputs": [
        {
          "internalType": "uint16",
          "name": "",
          "type": "uint16"
        }
      ],
      "stateMutability": "view",
      "type": "function"
    },
    {
      "inputs": [],
      "name": "BORROWER",
      "outputs": [
        {
          "internalType": "uint16",
          "name": "",
          "type": "uint16"
        }
      ],
      "stateMutability": "view",
      "type": "function"
    },
    {
      "inputs": [],
      "name": "FEE_CONTROLLER",
      "outputs": [
        {
          "internalType": "uint16",
          "name": "",
          "type": "uint16"
        }
      ],
      "stateMutability": "view",
      "type": "function"
    },
    {
      "inputs": [],
      "name": "FEE_SOURCE",
      "outputs": [
        {
          "internalType": "uint16",
          "name": "",
          "type": "uint16"
        }
      ],
      "stateMutability": "view",
      "type": "function"
    },
    {
      "inputs": [],
      "name": "FUND",
      "outputs": [
        {
          "internalType": "uint16",
          "name": "",
          "type": "uint16"
        }
      ],
      "stateMutability": "view",
      "type": "function"
    },
    {
      "inputs": [],
      "name": "INCENTIVE_DISTRIBUTION",
      "outputs": [
        {
          "internalType": "uint16",
          "name": "",
          "type": "uint16"
        }
      ],
      "stateMutability": "view",
      "type": "function"
    },
    {
      "inputs": [],
      "name": "INCENTIVE_REPORTER",
      "outputs": [
        {
          "internalType": "uint16",
          "name": "",
          "type": "uint16"
        }
      ],
      "stateMutability": "view",
      "type": "function"
    },
    {
      "inputs": [],
      "name": "LENDING",
      "outputs": [
        {
          "internalType": "uint16",
          "name": "",
          "type": "uint16"
        }
      ],
      "stateMutability": "view",
      "type": "function"
    },
    {
      "inputs": [],
      "name": "LIQUIDATOR",
      "outputs": [
        {
          "internalType": "uint16",
          "name": "",
          "type": "uint16"
        }
      ],
      "stateMutability": "view",
      "type": "function"
    },
    {
      "inputs": [],
      "name": "MARGIN_CALLER",
      "outputs": [
        {
          "internalType": "uint16",
          "name": "",
          "type": "uint16"
        }
      ],
      "stateMutability": "view",
      "type": "function"
    },
    {
      "inputs": [],
      "name": "MARGIN_TRADER",
      "outputs": [
        {
          "internalType": "uint16",
          "name": "",
          "type": "uint16"
        }
      ],
      "stateMutability": "view",
      "type": "function"
    },
    {
      "inputs": [],
      "name": "MARGIN_TRADING",
      "outputs": [
        {
          "internalType": "uint16",
          "name": "",
          "type": "uint16"
        }
      ],
      "stateMutability": "view",
      "type": "function"
    },
    {
      "inputs": [],
      "name": "PRICE_CONTROLLER",
      "outputs": [
        {
          "internalType": "uint16",
          "name": "",
          "type": "uint16"
        }
      ],
      "stateMutability": "view",
      "type": "function"
    },
    {
      "inputs": [],
      "name": "ROUTER",
      "outputs": [
        {
          "internalType": "uint16",
          "name": "",
          "type": "uint16"
        }
      ],
      "stateMutability": "view",
      "type": "function"
    },
    {
      "inputs": [],
      "name": "STAKE_PENALIZER",
      "outputs": [
        {
          "internalType": "uint16",
          "name": "",
          "type": "uint16"
        }
      ],
      "stateMutability": "view",
      "type": "function"
    },
    {
      "inputs": [],
      "name": "TOKEN_ACTIVATOR",
      "outputs": [
        {
          "internalType": "uint16",
          "name": "",
          "type": "uint16"
        }
      ],
      "stateMutability": "view",
      "type": "function"
    },
    {
      "inputs": [],
      "name": "WITHDRAWER",
      "outputs": [
        {
          "internalType": "uint16",
          "name": "",
          "type": "uint16"
        }
      ],
      "stateMutability": "view",
      "type": "function"
    },
    {
      "inputs": [
        {
          "internalType": "address",
          "name": "token",
          "type": "address"
        },
        {
          "internalType": "uint256",
          "name": "exposureCap",
          "type": "uint256"
        },
        {
          "internalType": "uint256",
          "name": "incentiveWeight",
          "type": "uint256"
        }
      ],
      "name": "activateToken",
      "outputs": [],
      "stateMutability": "nonpayable",
      "type": "function"
    },
    {
      "inputs": [
        {
          "internalType": "address",
          "name": "token",
          "type": "address"
        },
        {
          "internalType": "uint256",
          "name": "exposureCap",
          "type": "uint256"
        }
      ],
      "name": "changeTokenCap",
      "outputs": [],
      "stateMutability": "nonpayable",
      "type": "function"
    },
    {
      "inputs": [
        {
          "internalType": "address",
          "name": "token",
          "type": "address"
        },
        {
          "internalType": "uint256",
          "name": "tokenWeight",
          "type": "uint256"
        }
      ],
      "name": "changeTokenIncentiveWeight",
      "outputs": [],
      "stateMutability": "nonpayable",
      "type": "function"
    },
    {
      "inputs": [
        {
          "internalType": "uint256",
          "name": "",
          "type": "uint256"
        }
      ],
      "name": "incentiveTokens",
      "outputs": [
        {
          "internalType": "address",
          "name": "",
          "type": "address"
        }
      ],
      "stateMutability": "view",
      "type": "function"
    },
    {
      "inputs": [],
      "name": "nextTrancheIndex",
      "outputs": [
        {
          "internalType": "uint8",
          "name": "",
          "type": "uint8"
        }
      ],
      "stateMutability": "view",
      "type": "function"
    },
    {
      "inputs": [],
      "name": "owner",
      "outputs": [
        {
          "internalType": "address",
          "name": "",
          "type": "address"
        }
      ],
      "stateMutability": "view",
      "type": "function"
    },
    {
      "inputs": [
        {
          "internalType": "address",
          "name": "newOwner",
          "type": "address"
        }
      ],
      "name": "relinquishOwnershipOfDistributor",
      "outputs": [],
      "stateMutability": "nonpayable",
      "type": "function"
    },
    {
      "inputs": [],
      "name": "renounceOwnership",
      "outputs": [],
      "stateMutability": "nonpayable",
      "type": "function"
    },
    {
      "inputs": [],
      "name": "roles",
      "outputs": [
        {
          "internalType": "contract Roles",
          "name": "",
          "type": "address"
        }
      ],
      "stateMutability": "view",
      "type": "function"
    },
    {
      "inputs": [
        {
          "internalType": "uint256",
          "name": "portion",
          "type": "uint256"
        }
      ],
      "name": "setBorrowingTargetPortion",
      "outputs": [],
      "stateMutability": "nonpayable",
      "type": "function"
    },
    {
      "inputs": [
        {
          "internalType": "uint256",
          "name": "portion",
          "type": "uint256"
        }
      ],
      "name": "setLendingTargetPortion",
      "outputs": [],
      "stateMutability": "nonpayable",
      "type": "function"
    },
    {
      "inputs": [
        {
          "internalType": "address",
          "name": "",
          "type": "address"
        }
      ],
      "name": "tokenBorrowingTranches",
      "outputs": [
        {
          "internalType": "uint8",
          "name": "",
          "type": "uint8"
        }
      ],
      "stateMutability": "view",
      "type": "function"
    },
    {
      "inputs": [
        {
          "internalType": "address",
          "name": "",
          "type": "address"
        }
      ],
      "name": "tokenLendingTranches",
      "outputs": [
        {
          "internalType": "uint8",
          "name": "",
          "type": "uint8"
        }
      ],
      "stateMutability": "view",
      "type": "function"
    },
    {
      "inputs": [
        {
          "internalType": "address",
          "name": "",
          "type": "address"
        }
      ],
      "name": "tokenWeights",
      "outputs": [
        {
          "internalType": "uint256",
          "name": "",
          "type": "uint256"
        }
      ],
      "stateMutability": "view",
      "type": "function"
    },
    {
      "inputs": [],
      "name": "totalBorrowingTargetPortion",
      "outputs": [
        {
          "internalType": "uint256",
          "name": "",
          "type": "uint256"
        }
      ],
      "stateMutability": "view",
      "type": "function"
    },
    {
      "inputs": [],
      "name": "totalLendingTargetPortion",
      "outputs": [
        {
          "internalType": "uint256",
          "name": "",
          "type": "uint256"
        }
      ],
      "stateMutability": "view",
      "type": "function"
    },
    {
      "inputs": [],
      "name": "totalTokenWeights",
      "outputs": [
        {
          "internalType": "uint256",
          "name": "",
          "type": "uint256"
        }
      ],
      "stateMutability": "view",
      "type": "function"
    },
    {
      "inputs": [
        {
          "internalType": "address",
          "name": "newOwner",
          "type": "address"
        }
      ],
      "name": "transferOwnership",
      "outputs": [],
      "stateMutability": "nonpayable",
      "type": "function"
    }
  ],
  "bytecode": "0x60806040526009805460ff1916601417905534801561001d57600080fd5b50604051611a78380380611a7883398101604081905261003c916100c0565b600080546001600160a01b0319166001600160a01b03831617815561005f6100bc565b600180546001600160a01b0319166001600160a01b038316908117909155604051919250906000907f8be0079c531659141344cd1fd0a4f28419497f9722a3daafe3b4186f6b6457e0908290a35050600291909155600355610104565b3390565b6000806000606084860312156100d4578283fd5b83516020850151604086015191945092506001600160a01b03811681146100f9578182fd5b809150509250925092565b611965806101136000396000f3fe608060405234801561001057600080fd5b506004361061025c5760003560e01c8063715018a611610145578063bc2b28af116100bd578063dc8f5fac1161008c578063e15ac98a11610071578063e15ac98a1461040b578063f1c270001461041e578063f2fde38b146104265761025c565b8063dc8f5fac146103f0578063dcc75604146103f85761025c565b8063bc2b28af146103d0578063c76139d0146103d8578063cacf8d45146103e0578063d5d7ed7f146103e85761025c565b80638da5cb5b11610114578063a94c7c34116100f9578063a94c7c34146103ad578063a9cc0536146103b5578063ab2f3ad4146103bd5761025c565b80638da5cb5b1461039d578063a0098d69146103a55761025c565b8063715018a6146103725780637bad080a1461037a57806381ca66001461038d57806383a49c7c146103955761025c565b8063392f5f64116101d85780635686fb4e116101a75780635c275a391161018c5780635c275a391461034f57806366941984146103575780636d9d55ce1461035f5761025c565b80635686fb4e146103295780635be072f21461033c5761025c565b8063392f5f64146102fc57806346b887961461030457806348fb27b81461030c578063543eeef9146103145761025c565b80631bc5d81d1161022f5780632a3e4dc2116102145780632a3e4dc2146102cc5780632fe94def146102ec57806332fe7b26146102f45761025c565b80631bc5d81d146102bc5780632a0acc6a146102c45761025c565b8063065d570f146102615780630c977ed21461027f5780631531841b1461029f5780631b669507146102b4575b600080fd5b610269610439565b60405161027691906117dd565b60405180910390f35b61029261028d3660046115d5565b61043e565b60405161027691906117f5565b6102b26102ad36600461160d565b610453565b005b610269610547565b61026961054c565b610269610551565b6102df6102da36600461168c565b610556565b60405161027691906116a4565b61026961058d565b610269610592565b6102df610597565b6102696105b3565b6102696105b8565b61031c6105bd565b60405161027691906117ec565b6102b2610337366004611638565b6105c3565b6102b261034a36600461168c565b610c27565b610269610c9f565b610269610ca4565b6102b261036d3660046115d5565b610ca9565b6102b2610d91565b6102926103883660046115d5565b610e73565b610269610e88565b610269610e8d565b6102df610e92565b610269610eae565b610269610eb3565b610269610eb8565b61031c6103cb3660046115d5565b610ebd565b61031c610ecf565b610269610ed5565b610269610eda565b610269610edf565b61031c610ee4565b6102b261040636600461168c565b610eea565b6102b261041936600461160d565b610f62565b610292611052565b6102b26104343660046115d5565b61105b565b600381565b60086020526000908152604090205460ff1681565b61045b6111a9565b73ffffffffffffffffffffffffffffffffffffffff16610479610e92565b73ffffffffffffffffffffffffffffffffffffffff16146104cf576040517f08c379a00000000000000000000000000000000000000000000000000000000081526004016104c6906117a8565b60405180910390fd5b6104d76111ad565b73ffffffffffffffffffffffffffffffffffffffff16631d47e4a383836040518363ffffffff1660e01b81526004016105119291906116c5565b600060405180830381600087803b15801561052b57600080fd5b505af115801561053f573d6000803e3d6000fd5b505050505050565b600a81565b600881565b606b81565b6004818154811061056657600080fd5b60009182526020909120015473ffffffffffffffffffffffffffffffffffffffff16905081565b606981565b606781565b60005473ffffffffffffffffffffffffffffffffffffffff1681565b600681565b606681565b60035481565b6105cb6111a9565b73ffffffffffffffffffffffffffffffffffffffff166105e9610e92565b73ffffffffffffffffffffffffffffffffffffffff1614610636576040517f08c379a00000000000000000000000000000000000000000000000000000000081526004016104c6906117a8565b61063e61125a565b73ffffffffffffffffffffffffffffffffffffffff16635acf6903846040518263ffffffff1660e01b815260040161067691906116a4565b60206040518083038186803b15801561068e57600080fd5b505afa1580156106a2573d6000803e3d6000fd5b505050506040513d601f19601f820116820180604052508101906106c6919061166c565b156106fd576040517f08c379a00000000000000000000000000000000000000000000000000000000081526004016104c690611771565b61070561125a565b73ffffffffffffffffffffffffffffffffffffffff16630d1ce2d2846040518263ffffffff1660e01b815260040161073d91906116a4565b600060405180830381600087803b15801561075757600080fd5b505af115801561076b573d6000803e3d6000fd5b505050506107776111ad565b73ffffffffffffffffffffffffffffffffffffffff16631d47e4a384846040518363ffffffff1660e01b81526004016107b19291906116c5565b600060405180830381600087803b1580156107cb57600080fd5b505af11580156107df573d6000803e3d6000fd5b505050506000811115610c225780600660008282546107fe9190611816565b909155505073ffffffffffffffffffffffffffffffffffffffff831660009081526005602052604081208290556108336112b2565b905060006108438360025461130a565b6009546040517f430c39e400000000000000000000000000000000000000000000000000000000815291925073ffffffffffffffffffffffffffffffffffffffff84169163430c39e4916108a19160ff909116908590600401611803565b600060405180830381600087803b1580156108bb57600080fd5b505af11580156108cf573d6000803e3d6000fd5b505060095473ffffffffffffffffffffffffffffffffffffffff8816600090815260076020526040902080547fffffffffffffffffffffffffffffffffffffffffffffffffffffffffffffff001660ff90921691909117905550610933905061132b565b6009546040517f2864f40100000000000000000000000000000000000000000000000000000000815273ffffffffffffffffffffffffffffffffffffffff9290921691632864f4019161098e91899160ff16906004016116eb565b600060405180830381600087803b1580156109a857600080fd5b505af11580156109bc573d6000803e3d6000fd5b50506009805460ff169250905060006109d4836118bb565b91906101000a81548160ff021916908360ff1602179055505060006109fb8460035461130a565b6009546040517f430c39e400000000000000000000000000000000000000000000000000000000815291925073ffffffffffffffffffffffffffffffffffffffff85169163430c39e491610a599160ff909116908590600401611803565b600060405180830381600087803b158015610a7357600080fd5b505af1158015610a87573d6000803e3d6000fd5b505060095473ffffffffffffffffffffffffffffffffffffffff8916600090815260086020526040902080547fffffffffffffffffffffffffffffffffffffffffffffffffffffffffffffff001660ff90921691909117905550610aeb9050611383565b6009546040517f2864f40100000000000000000000000000000000000000000000000000000000815273ffffffffffffffffffffffffffffffffffffffff9290921691632864f40191610b46918a9160ff16906004016116eb565b600060405180830381600087803b158015610b6057600080fd5b505af1158015610b74573d6000803e3d6000fd5b50506009805460ff16925090506000610b8c836118bb565b91906101000a81548160ff021916908360ff16021790555050610bae836113db565b5050600480546001810182556000919091527f8a35acfbc15ff81a39ae7d344fd709f28e8600b4aa8c65c6b64bfe7fe36bd19b0180547fffffffffffffffffffffffff00000000000000000000000000000000000000001673ffffffffffffffffffffffffffffffffffffffff8616179055505b505050565b610c2f6111a9565b73ffffffffffffffffffffffffffffffffffffffff16610c4d610e92565b73ffffffffffffffffffffffffffffffffffffffff1614610c9a576040517f08c379a00000000000000000000000000000000000000000000000000000000081526004016104c6906117a8565b600255565b606581565b600181565b610cb16111a9565b73ffffffffffffffffffffffffffffffffffffffff16610ccf610e92565b73ffffffffffffffffffffffffffffffffffffffff1614610d1c576040517f08c379a00000000000000000000000000000000000000000000000000000000081526004016104c6906117a8565b610d246112b2565b73ffffffffffffffffffffffffffffffffffffffff1663f2fde38b826040518263ffffffff1660e01b8152600401610d5c91906116a4565b600060405180830381600087803b158015610d7657600080fd5b505af1158015610d8a573d6000803e3d6000fd5b5050505050565b610d996111a9565b73ffffffffffffffffffffffffffffffffffffffff16610db7610e92565b73ffffffffffffffffffffffffffffffffffffffff1614610e04576040517f08c379a00000000000000000000000000000000000000000000000000000000081526004016104c6906117a8565b60015460405160009173ffffffffffffffffffffffffffffffffffffffff16907f8be0079c531659141344cd1fd0a4f28419497f9722a3daafe3b4186f6b6457e0908390a3600180547fffffffffffffffffffffffff0000000000000000000000000000000000000000169055565b60076020526000908152604090205460ff1681565b606a81565b600981565b60015473ffffffffffffffffffffffffffffffffffffffff1690565b600281565b600581565b606881565b60056020526000908152604090205481565b60025481565b606c81565b600481565b600781565b60065481565b610ef26111a9565b73ffffffffffffffffffffffffffffffffffffffff16610f10610e92565b73ffffffffffffffffffffffffffffffffffffffff1614610f5d576040517f08c379a00000000000000000000000000000000000000000000000000000000081526004016104c6906117a8565b600355565b610f6a6111a9565b73ffffffffffffffffffffffffffffffffffffffff16610f88610e92565b73ffffffffffffffffffffffffffffffffffffffff1614610fd5576040517f08c379a00000000000000000000000000000000000000000000000000000000081526004016104c6906117a8565b73ffffffffffffffffffffffffffffffffffffffff8216600090815260056020526040902054600654611009908390611816565b61101391906118a4565b60065573ffffffffffffffffffffffffffffffffffffffff8216600090815260056020526040902081905561104e6110496112b2565b6113db565b5050565b60095460ff1681565b6110636111a9565b73ffffffffffffffffffffffffffffffffffffffff16611081610e92565b73ffffffffffffffffffffffffffffffffffffffff16146110ce576040517f08c379a00000000000000000000000000000000000000000000000000000000081526004016104c6906117a8565b73ffffffffffffffffffffffffffffffffffffffff811661111b576040517f08c379a00000000000000000000000000000000000000000000000000000000081526004016104c690611714565b60015460405173ffffffffffffffffffffffffffffffffffffffff8084169216907f8be0079c531659141344cd1fd0a4f28419497f9722a3daafe3b4186f6b6457e090600090a3600180547fffffffffffffffffffffffff00000000000000000000000000000000000000001673ffffffffffffffffffffffffffffffffffffffff92909216919091179055565b3390565b600080546040517f3c9c8f9c00000000000000000000000000000000000000000000000000000000815273ffffffffffffffffffffffffffffffffffffffff90911690633c9c8f9c90611205906068906004016117dd565b60206040518083038186803b15801561121d57600080fd5b505afa158015611231573d6000803e3d6000fd5b505050506040513d601f19601f8201168201806040525081019061125591906115f1565b905090565b600080546040517f3c9c8f9c00000000000000000000000000000000000000000000000000000000815273ffffffffffffffffffffffffffffffffffffffff90911690633c9c8f9c90611205906065906004016117dd565b600080546040517f3c9c8f9c00000000000000000000000000000000000000000000000000000000815273ffffffffffffffffffffffffffffffffffffffff90911690633c9c8f9c9061120590606c906004016117dd565b60065460009061131a8385611867565b611324919061182e565b9392505050565b600080546040517f3c9c8f9c00000000000000000000000000000000000000000000000000000000815273ffffffffffffffffffffffffffffffffffffffff90911690633c9c8f9c90611205906066906004016117dd565b600080546040517f3c9c8f9c00000000000000000000000000000000000000000000000000000000815273ffffffffffffffffffffffffffffffffffffffff90911690633c9c8f9c90611205906067906004016117dd565b60005b60045460ff8216101561104e57600060048260ff168154811061142a577f4e487b7100000000000000000000000000000000000000000000000000000000600052603260045260246000fd5b600091825260208083209091015473ffffffffffffffffffffffffffffffffffffffff1680835260059091526040822054600254919350919061146e90839061130a565b73ffffffffffffffffffffffffffffffffffffffff848116600090815260076020526040908190205490517f19f51afb000000000000000000000000000000000000000000000000000000008152929350908716916319f51afb916114dd9160ff909116908590600401611803565b600060405180830381600087803b1580156114f757600080fd5b505af115801561150b573d6000803e3d6000fd5b50505050600061151d8360035461130a565b73ffffffffffffffffffffffffffffffffffffffff858116600090815260086020526040908190205490517f19f51afb000000000000000000000000000000000000000000000000000000008152929350908816916319f51afb9161158c9160ff909116908590600401611803565b600060405180830381600087803b1580156115a657600080fd5b505af11580156115ba573d6000803e3d6000fd5b505050505050505080806115cd906118bb565b9150506113de565b6000602082840312156115e6578081fd5b81356113248161190a565b600060208284031215611602578081fd5b81516113248161190a565b6000806040838503121561161f578081fd5b823561162a8161190a565b946020939093013593505050565b60008060006060848603121561164c578081fd5b83356116578161190a565b95602085013595506040909401359392505050565b60006020828403121561167d578081fd5b81518015158114611324578182fd5b60006020828403121561169d578081fd5b5035919050565b73ffffffffffffffffffffffffffffffffffffffff91909116815260200190565b73ffffffffffffffffffffffffffffffffffffffff929092168252602082015260400190565b73ffffffffffffffffffffffffffffffffffffffff92909216825260ff16602082015260400190565b60208082526026908201527f4f776e61626c653a206e6577206f776e657220697320746865207a65726f206160408201527f6464726573730000000000000000000000000000000000000000000000000000606082015260800190565b60208082526017908201527f546f6b656e20616c726561647920697320616374697665000000000000000000604082015260600190565b6020808252818101527f4f776e61626c653a2063616c6c6572206973206e6f7420746865206f776e6572604082015260600190565b61ffff91909116815260200190565b90815260200190565b60ff91909116815260200190565b60ff929092168252602082015260400190565b60008219821115611829576118296118db565b500190565b600082611862577f4e487b710000000000000000000000000000000000000000000000000000000081526012600452602481fd5b500490565b6000817fffffffffffffffffffffffffffffffffffffffffffffffffffffffffffffffff048311821515161561189f5761189f6118db565b500290565b6000828210156118b6576118b66118db565b500390565b600060ff821660ff8114156118d2576118d26118db565b60010192915050565b7f4e487b7100000000000000000000000000000000000000000000000000000000600052601160045260246000fd5b73ffffffffffffffffffffffffffffffffffffffff8116811461192c57600080fd5b5056fea264697066735822122070161b992d038ddb5f17fdfe768453e9bb0014e196b7402997d7e157b31457ff64736f6c63430008010033",
  "linkReferences": {},
  "deployedLinkReferences": {}
}