{
  "_format": "hh-sol-artifact-1",
  "contractName": "TokenAdmin",
  "sourceName": "contracts/TokenAdmin.sol",
  "abi": [
    {
      "inputs": [
        {
          "internalType": "uint256",
          "name": "lendingTargetPortion",
          "type": "uint256"
        },
        {
          "internalType": "uint256",
          "name": "borrowingTargetPortion",
          "type": "uint256"
        },
        {
          "internalType": "address",
          "name": "_roles",
          "type": "address"
        }
      ],
      "stateMutability": "nonpayable",
      "type": "constructor"
    },
    {
      "anonymous": false,
      "inputs": [
        {
          "indexed": true,
          "internalType": "address",
          "name": "previousOwner",
          "type": "address"
        },
        {
          "indexed": true,
          "internalType": "address",
          "name": "newOwner",
          "type": "address"
        }
      ],
      "name": "OwnershipTransferred",
      "type": "event"
    },
    {
      "inputs": [],
      "name": "ADMIN",
      "outputs": [
        {
          "internalType": "uint16",
          "name": "",
          "type": "uint16"
        }
      ],
      "stateMutability": "view",
      "type": "function"
    },
    {
      "inputs": [],
      "name": "AUTHORIZED_FUND_TRADER",
      "outputs": [
        {
          "internalType": "uint16",
          "name": "",
          "type": "uint16"
        }
      ],
      "stateMutability": "view",
      "type": "function"
    },
    {
      "inputs": [],
      "name": "BORROWER",
      "outputs": [
        {
          "internalType": "uint16",
          "name": "",
          "type": "uint16"
        }
      ],
      "stateMutability": "view",
      "type": "function"
    },
    {
      "inputs": [],
      "name": "FEE_CONTROLLER",
      "outputs": [
        {
          "internalType": "uint16",
          "name": "",
          "type": "uint16"
        }
      ],
      "stateMutability": "view",
      "type": "function"
    },
    {
      "inputs": [],
      "name": "FEE_SOURCE",
      "outputs": [
        {
          "internalType": "uint16",
          "name": "",
          "type": "uint16"
        }
      ],
      "stateMutability": "view",
      "type": "function"
    },
    {
      "inputs": [],
      "name": "FUND",
      "outputs": [
        {
          "internalType": "uint16",
          "name": "",
          "type": "uint16"
        }
      ],
      "stateMutability": "view",
      "type": "function"
    },
    {
      "inputs": [],
      "name": "INCENTIVE_DISTRIBUTION",
      "outputs": [
        {
          "internalType": "uint16",
          "name": "",
          "type": "uint16"
        }
      ],
      "stateMutability": "view",
      "type": "function"
    },
    {
      "inputs": [],
      "name": "INCENTIVE_REPORTER",
      "outputs": [
        {
          "internalType": "uint16",
          "name": "",
          "type": "uint16"
        }
      ],
      "stateMutability": "view",
      "type": "function"
    },
    {
      "inputs": [],
      "name": "LENDING",
      "outputs": [
        {
          "internalType": "uint16",
          "name": "",
          "type": "uint16"
        }
      ],
      "stateMutability": "view",
      "type": "function"
    },
    {
      "inputs": [],
      "name": "LIQUIDATOR",
      "outputs": [
        {
          "internalType": "uint16",
          "name": "",
          "type": "uint16"
        }
      ],
      "stateMutability": "view",
      "type": "function"
    },
    {
      "inputs": [],
      "name": "MARGIN_CALLER",
      "outputs": [
        {
          "internalType": "uint16",
          "name": "",
          "type": "uint16"
        }
      ],
      "stateMutability": "view",
      "type": "function"
    },
    {
      "inputs": [],
      "name": "MARGIN_TRADER",
      "outputs": [
        {
          "internalType": "uint16",
          "name": "",
          "type": "uint16"
        }
      ],
      "stateMutability": "view",
      "type": "function"
    },
    {
      "inputs": [],
      "name": "MARGIN_TRADING",
      "outputs": [
        {
          "internalType": "uint16",
          "name": "",
          "type": "uint16"
        }
      ],
      "stateMutability": "view",
      "type": "function"
    },
    {
      "inputs": [],
      "name": "PRICE_CONTROLLER",
      "outputs": [
        {
          "internalType": "uint16",
          "name": "",
          "type": "uint16"
        }
      ],
      "stateMutability": "view",
      "type": "function"
    },
    {
      "inputs": [],
      "name": "ROUTER",
      "outputs": [
        {
          "internalType": "uint16",
          "name": "",
          "type": "uint16"
        }
      ],
      "stateMutability": "view",
      "type": "function"
    },
    {
      "inputs": [],
      "name": "TOKEN_ACTIVATOR",
      "outputs": [
        {
          "internalType": "uint16",
          "name": "",
          "type": "uint16"
        }
      ],
      "stateMutability": "view",
      "type": "function"
    },
    {
      "inputs": [],
      "name": "WITHDRAWER",
      "outputs": [
        {
          "internalType": "uint16",
          "name": "",
          "type": "uint16"
        }
      ],
      "stateMutability": "view",
      "type": "function"
    },
    {
      "inputs": [
        {
          "internalType": "address",
          "name": "token",
          "type": "address"
        },
        {
          "internalType": "uint256",
          "name": "exposureCap",
          "type": "uint256"
        },
        {
          "internalType": "uint256",
          "name": "incentiveWeight",
          "type": "uint256"
        }
      ],
      "name": "activateToken",
      "outputs": [],
      "stateMutability": "nonpayable",
      "type": "function"
    },
    {
      "inputs": [
        {
          "internalType": "uint256",
          "name": "",
          "type": "uint256"
        }
      ],
      "name": "incentiveTokens",
      "outputs": [
        {
          "internalType": "address",
          "name": "",
          "type": "address"
        }
      ],
      "stateMutability": "view",
      "type": "function"
    },
    {
      "inputs": [],
      "name": "nextTrancheIndex",
      "outputs": [
        {
          "internalType": "uint8",
          "name": "",
          "type": "uint8"
        }
      ],
      "stateMutability": "view",
      "type": "function"
    },
    {
      "inputs": [],
      "name": "owner",
      "outputs": [
        {
          "internalType": "address",
          "name": "",
          "type": "address"
        }
      ],
      "stateMutability": "view",
      "type": "function"
    },
    {
      "inputs": [
        {
          "internalType": "address",
          "name": "newOwner",
          "type": "address"
        }
      ],
      "name": "relinquishOwnershipOfDistributor",
      "outputs": [],
      "stateMutability": "nonpayable",
      "type": "function"
    },
    {
      "inputs": [],
      "name": "renounceOwnership",
      "outputs": [],
      "stateMutability": "nonpayable",
      "type": "function"
    },
    {
      "inputs": [],
      "name": "roles",
      "outputs": [
        {
          "internalType": "contract Roles",
          "name": "",
          "type": "address"
        }
      ],
      "stateMutability": "view",
      "type": "function"
    },
    {
      "inputs": [
        {
          "internalType": "uint256",
          "name": "portion",
          "type": "uint256"
        }
      ],
      "name": "setBorrowingTargetPortion",
      "outputs": [],
      "stateMutability": "nonpayable",
      "type": "function"
    },
    {
      "inputs": [
        {
          "internalType": "uint256",
          "name": "portion",
          "type": "uint256"
        }
      ],
      "name": "setLendingTargetPortion",
      "outputs": [],
      "stateMutability": "nonpayable",
      "type": "function"
    },
    {
      "inputs": [
        {
          "internalType": "address",
          "name": "",
          "type": "address"
        }
      ],
      "name": "tokenBorrowingTranches",
      "outputs": [
        {
          "internalType": "uint8",
          "name": "",
          "type": "uint8"
        }
      ],
      "stateMutability": "view",
      "type": "function"
    },
    {
      "inputs": [
        {
          "internalType": "address",
          "name": "",
          "type": "address"
        }
      ],
      "name": "tokenLendingTranches",
      "outputs": [
        {
          "internalType": "uint8",
          "name": "",
          "type": "uint8"
        }
      ],
      "stateMutability": "view",
      "type": "function"
    },
    {
      "inputs": [
        {
          "internalType": "address",
          "name": "",
          "type": "address"
        }
      ],
      "name": "tokenWeights",
      "outputs": [
        {
          "internalType": "uint256",
          "name": "",
          "type": "uint256"
        }
      ],
      "stateMutability": "view",
      "type": "function"
    },
    {
      "inputs": [],
      "name": "totalBorrowingTargetPortion",
      "outputs": [
        {
          "internalType": "uint256",
          "name": "",
          "type": "uint256"
        }
      ],
      "stateMutability": "view",
      "type": "function"
    },
    {
      "inputs": [],
      "name": "totalLendingTargetPortion",
      "outputs": [
        {
          "internalType": "uint256",
          "name": "",
          "type": "uint256"
        }
      ],
      "stateMutability": "view",
      "type": "function"
    },
    {
      "inputs": [],
      "name": "totalTokenWeights",
      "outputs": [
        {
          "internalType": "uint256",
          "name": "",
          "type": "uint256"
        }
      ],
      "stateMutability": "view",
      "type": "function"
    },
    {
      "inputs": [
        {
          "internalType": "address",
          "name": "newOwner",
          "type": "address"
        }
      ],
      "name": "transferOwnership",
      "outputs": [],
      "stateMutability": "nonpayable",
      "type": "function"
    }
  ],
  "bytecode": "0x60806040526009805460ff1916601417905534801561001d57600080fd5b5060405161149e38038061149e83398101604081905261003c916100c0565b600080546001600160a01b0319166001600160a01b03831617815561005f6100bc565b600180546001600160a01b0319166001600160a01b038316908117909155604051919250906000907f8be0079c531659141344cd1fd0a4f28419497f9722a3daafe3b4186f6b6457e0908290a35050600291909155600355610104565b3390565b6000806000606084860312156100d4578283fd5b83516020850151604086015191945092506001600160a01b03811681146100f9578182fd5b809150509250925092565b61138b806101136000396000f3fe608060405234801561001057600080fd5b506004361061020b5760003560e01c8063715018a61161012a578063ab2f3ad4116100bd578063d5d7ed7f1161008c578063dcc7560411610071578063dcc756041461038c578063f1c270001461039f578063f2fde38b146103a75761020b565b8063d5d7ed7f1461037c578063dc8f5fac146103845761020b565b8063ab2f3ad414610351578063bc2b28af14610364578063c76139d01461036c578063cacf8d45146103745761020b565b80638da5cb5b116100f95780638da5cb5b14610331578063a0098d6914610339578063a94c7c3414610341578063a9cc0536146103495761020b565b8063715018a6146103065780637bad080a1461030e57806381ca66001461032157806383a49c7c146103295761020b565b806346b88796116101a25780635be072f2116101715780635be072f2146102d05780635c275a39146102e357806366941984146102eb5780636d9d55ce146102f35761020b565b806346b887961461029657806348fb27b81461029e578063543eeef9146102a65780635686fb4e146102bb5761020b565b80632a3e4dc2116101de5780632a3e4dc21461025e5780632fe94def1461027e57806332fe7b2614610286578063392f5f641461028e5761020b565b8063065d570f146102105780630c977ed21461022e5780631bc5d81d1461024e5780632a0acc6a14610256575b600080fd5b6102186103ba565b604051610225919061121a565b60405180910390f35b61024161023c3660046110bd565b6103bf565b6040516102259190611232565b6102186103d4565b6102186103d9565b61027161026c366004611129565b6103de565b6040516102259190611141565b610218610415565b61021861041a565b61027161041f565b61021861043b565b610218610440565b6102ae610445565b6040516102259190611229565b6102ce6102c93660046110f5565b61044b565b005b6102ce6102de366004611129565b610aa9565b610218610b21565b610218610b26565b6102ce6103013660046110bd565b610b2b565b6102ce610c13565b61024161031c3660046110bd565b610cf5565b610218610d0a565b610218610d0f565b610271610d14565b610218610d30565b610218610d35565b610218610d3a565b6102ae61035f3660046110bd565b610d3f565b6102ae610d51565b610218610d57565b610218610d5c565b610218610d61565b6102ae610d66565b6102ce61039a366004611129565b610d6c565b610241610de4565b6102ce6103b53660046110bd565b610ded565b600381565b60086020526000908152604090205460ff1681565b600881565b606b81565b600481815481106103ee57600080fd5b60009182526020909120015473ffffffffffffffffffffffffffffffffffffffff16905081565b606981565b606781565b60005473ffffffffffffffffffffffffffffffffffffffff1681565b600681565b606681565b60035481565b610453610f3b565b73ffffffffffffffffffffffffffffffffffffffff16610471610d14565b73ffffffffffffffffffffffffffffffffffffffff16146104c7576040517f08c379a00000000000000000000000000000000000000000000000000000000081526004016104be906111e5565b60405180910390fd5b6104cf610f3f565b73ffffffffffffffffffffffffffffffffffffffff16630d1ce2d2846040518263ffffffff1660e01b81526004016105079190611141565b600060405180830381600087803b15801561052157600080fd5b505af1158015610535573d6000803e3d6000fd5b50505050610541610fec565b73ffffffffffffffffffffffffffffffffffffffff16631d47e4a384846040518363ffffffff1660e01b815260040161057b929190611162565b600060405180830381600087803b15801561059557600080fd5b505af11580156105a9573d6000803e3d6000fd5b505050506000811115610aa45780600660008282546105c89190611253565b909155505073ffffffffffffffffffffffffffffffffffffffff831660009081526005602052604081208290556105fd611044565b9050600061060d8360025461109c565b6009546040517f430c39e400000000000000000000000000000000000000000000000000000000815291925073ffffffffffffffffffffffffffffffffffffffff84169163430c39e49161066b9160ff909116908590600401611240565b600060405180830381600087803b15801561068557600080fd5b505af1158015610699573d6000803e3d6000fd5b50506009805473ffffffffffffffffffffffffffffffffffffffff8916600090815260076020526040812080547fffffffffffffffffffffffffffffffffffffffffffffffffffffffffffffff001660ff93841617905582549091169350909150610703836112e1565b91906101000a81548160ff021916908360ff16021790555050600061072a8460035461109c565b6009546040517f430c39e400000000000000000000000000000000000000000000000000000000815291925073ffffffffffffffffffffffffffffffffffffffff85169163430c39e4916107889160ff909116908590600401611240565b600060405180830381600087803b1580156107a257600080fd5b505af11580156107b6573d6000803e3d6000fd5b50506009805473ffffffffffffffffffffffffffffffffffffffff8a16600090815260086020526040812080547fffffffffffffffffffffffffffffffffffffffffffffffffffffffffffffff001660ff93841617905582549091169350909150610820836112e1565b91906101000a81548160ff021916908360ff1602179055505060005b60045460ff82161015610a2f57600060048260ff1681548110610888577f4e487b7100000000000000000000000000000000000000000000000000000000600052603260045260246000fd5b600091825260208083209091015473ffffffffffffffffffffffffffffffffffffffff168083526005909152604090912054600254919250906108cc90829061109c565b73ffffffffffffffffffffffffffffffffffffffff838116600090815260076020526040908190205490517f19f51afb000000000000000000000000000000000000000000000000000000008152929750908816916319f51afb9161093b9160ff909116908990600401611240565b600060405180830381600087803b15801561095557600080fd5b505af1158015610969573d6000803e3d6000fd5b505050506109798160035461109c565b73ffffffffffffffffffffffffffffffffffffffff838116600090815260086020526040908190205490517f19f51afb000000000000000000000000000000000000000000000000000000008152929650908816916319f51afb916109e89160ff909116908890600401611240565b600060405180830381600087803b158015610a0257600080fd5b505af1158015610a16573d6000803e3d6000fd5b5050505050508080610a27906112e1565b91505061083c565b5050600480546001810182556000919091527f8a35acfbc15ff81a39ae7d344fd709f28e8600b4aa8c65c6b64bfe7fe36bd19b0180547fffffffffffffffffffffffff00000000000000000000000000000000000000001673ffffffffffffffffffffffffffffffffffffffff871617905550505b505050565b610ab1610f3b565b73ffffffffffffffffffffffffffffffffffffffff16610acf610d14565b73ffffffffffffffffffffffffffffffffffffffff1614610b1c576040517f08c379a00000000000000000000000000000000000000000000000000000000081526004016104be906111e5565b600255565b606581565b600181565b610b33610f3b565b73ffffffffffffffffffffffffffffffffffffffff16610b51610d14565b73ffffffffffffffffffffffffffffffffffffffff1614610b9e576040517f08c379a00000000000000000000000000000000000000000000000000000000081526004016104be906111e5565b610ba6611044565b73ffffffffffffffffffffffffffffffffffffffff1663f2fde38b826040518263ffffffff1660e01b8152600401610bde9190611141565b600060405180830381600087803b158015610bf857600080fd5b505af1158015610c0c573d6000803e3d6000fd5b5050505050565b610c1b610f3b565b73ffffffffffffffffffffffffffffffffffffffff16610c39610d14565b73ffffffffffffffffffffffffffffffffffffffff1614610c86576040517f08c379a00000000000000000000000000000000000000000000000000000000081526004016104be906111e5565b60015460405160009173ffffffffffffffffffffffffffffffffffffffff16907f8be0079c531659141344cd1fd0a4f28419497f9722a3daafe3b4186f6b6457e0908390a3600180547fffffffffffffffffffffffff0000000000000000000000000000000000000000169055565b60076020526000908152604090205460ff1681565b606a81565b600981565b60015473ffffffffffffffffffffffffffffffffffffffff1690565b600281565b600581565b606881565b60056020526000908152604090205481565b60025481565b606c81565b600481565b600781565b60065481565b610d74610f3b565b73ffffffffffffffffffffffffffffffffffffffff16610d92610d14565b73ffffffffffffffffffffffffffffffffffffffff1614610ddf576040517f08c379a00000000000000000000000000000000000000000000000000000000081526004016104be906111e5565b600355565b60095460ff1681565b610df5610f3b565b73ffffffffffffffffffffffffffffffffffffffff16610e13610d14565b73ffffffffffffffffffffffffffffffffffffffff1614610e60576040517f08c379a00000000000000000000000000000000000000000000000000000000081526004016104be906111e5565b73ffffffffffffffffffffffffffffffffffffffff8116610ead576040517f08c379a00000000000000000000000000000000000000000000000000000000081526004016104be90611188565b60015460405173ffffffffffffffffffffffffffffffffffffffff8084169216907f8be0079c531659141344cd1fd0a4f28419497f9722a3daafe3b4186f6b6457e090600090a3600180547fffffffffffffffffffffffff00000000000000000000000000000000000000001673ffffffffffffffffffffffffffffffffffffffff92909216919091179055565b3390565b600080546040517f3c9c8f9c00000000000000000000000000000000000000000000000000000000815273ffffffffffffffffffffffffffffffffffffffff90911690633c9c8f9c90610f979060659060040161121a565b60206040518083038186803b158015610faf57600080fd5b505afa158015610fc3573d6000803e3d6000fd5b505050506040513d601f19601f82011682018060405250810190610fe791906110d9565b905090565b600080546040517f3c9c8f9c00000000000000000000000000000000000000000000000000000000815273ffffffffffffffffffffffffffffffffffffffff90911690633c9c8f9c90610f979060689060040161121a565b600080546040517f3c9c8f9c00000000000000000000000000000000000000000000000000000000815273ffffffffffffffffffffffffffffffffffffffff90911690633c9c8f9c90610f9790606c9060040161121a565b6006546000906110ac83856112a4565b6110b6919061126b565b9392505050565b6000602082840312156110ce578081fd5b81356110b681611330565b6000602082840312156110ea578081fd5b81516110b681611330565b600080600060608486031215611109578182fd5b833561111481611330565b95602085013595506040909401359392505050565b60006020828403121561113a578081fd5b5035919050565b73ffffffffffffffffffffffffffffffffffffffff91909116815260200190565b73ffffffffffffffffffffffffffffffffffffffff929092168252602082015260400190565b60208082526026908201527f4f776e61626c653a206e6577206f776e657220697320746865207a65726f206160408201527f6464726573730000000000000000000000000000000000000000000000000000606082015260800190565b6020808252818101527f4f776e61626c653a2063616c6c6572206973206e6f7420746865206f776e6572604082015260600190565b61ffff91909116815260200190565b90815260200190565b60ff91909116815260200190565b60ff929092168252602082015260400190565b6000821982111561126657611266611301565b500190565b60008261129f577f4e487b710000000000000000000000000000000000000000000000000000000081526012600452602481fd5b500490565b6000817fffffffffffffffffffffffffffffffffffffffffffffffffffffffffffffffff04831182151516156112dc576112dc611301565b500290565b600060ff821660ff8114156112f8576112f8611301565b60010192915050565b7f4e487b7100000000000000000000000000000000000000000000000000000000600052601160045260246000fd5b73ffffffffffffffffffffffffffffffffffffffff8116811461135257600080fd5b5056fea2646970667358221220747d393f2fbd1711ed75641f00a62d1ecddda5f020232a8aad2695fb9cbe79f464736f6c63430008010033",
  "linkReferences": {},
  "deployedLinkReferences": {}
}