{
  "address": "0x64184c48f2cD779DAb3167a0f6AC10ab258f6ca3",
  "abi": [
    {
      "inputs": [
        {
          "internalType": "address",
          "name": "_peg",
          "type": "address"
        },
        {
          "internalType": "address",
          "name": "_roles",
          "type": "address"
        }
      ],
      "stateMutability": "nonpayable",
      "type": "constructor"
    },
    {
      "anonymous": false,
      "inputs": [
        {
          "indexed": false,
          "internalType": "address",
          "name": "account",
          "type": "address"
        }
      ],
      "name": "AccountLiquidated",
      "type": "event"
    },
    {
      "anonymous": false,
      "inputs": [
        {
          "indexed": false,
          "internalType": "uint256",
          "name": "amount",
          "type": "uint256"
        }
      ],
      "name": "LiquidationShortfall",
      "type": "event"
    },
    {
      "inputs": [],
      "name": "MAINTAINER_CUT_PERCENT",
      "outputs": [
        {
          "internalType": "uint256",
          "name": "",
          "type": "uint256"
        }
      ],
      "stateMutability": "view",
      "type": "function"
    },
    {
      "inputs": [],
      "name": "UPDATE_RATE_PERMIL",
      "outputs": [
        {
          "internalType": "uint256",
          "name": "",
          "type": "uint256"
        }
      ],
      "stateMutability": "view",
      "type": "function"
    },
    {
      "inputs": [
        {
          "internalType": "uint256",
          "name": "_priceUpdateWindow",
          "type": "uint256"
        },
        {
          "internalType": "uint256",
          "name": "_updateRatePermil",
          "type": "uint256"
        },
        {
          "internalType": "uint256",
          "name": "_voluntaryUpdateWindow",
          "type": "uint256"
        }
      ],
      "name": "addVolatilitySetting",
      "outputs": [],
      "stateMutability": "nonpayable",
      "type": "function"
    },
    {
      "inputs": [],
      "name": "avgLiquidationPerCall",
      "outputs": [
        {
          "internalType": "uint256",
          "name": "",
          "type": "uint256"
        }
      ],
      "stateMutability": "view",
      "type": "function"
    },
    {
      "inputs": [
        {
          "internalType": "address",
          "name": "trader",
          "type": "address"
        }
      ],
      "name": "canBeLiquidated",
      "outputs": [
        {
          "internalType": "bool",
          "name": "",
          "type": "bool"
        }
      ],
      "stateMutability": "view",
      "type": "function"
    },
    {
      "inputs": [
        {
          "internalType": "uint256",
          "name": "index",
          "type": "uint256"
        }
      ],
      "name": "chooseVolatilitySetting",
      "outputs": [],
      "stateMutability": "nonpayable",
      "type": "function"
    },
    {
      "inputs": [],
      "name": "coolingOffPeriod",
      "outputs": [
        {
          "internalType": "uint256",
          "name": "",
          "type": "uint256"
        }
      ],
      "stateMutability": "view",
      "type": "function"
    },
    {
      "inputs": [
        {
          "internalType": "address[]",
          "name": "liquidatedAccounts",
          "type": "address[]"
        }
      ],
      "name": "disburseLiqStakeAttacks",
      "outputs": [],
      "stateMutability": "nonpayable",
      "type": "function"
    },
    {
      "inputs": [],
      "name": "failureThreshold",
      "outputs": [
        {
          "internalType": "uint256",
          "name": "",
          "type": "uint256"
        }
      ],
      "stateMutability": "view",
      "type": "function"
    },
    {
      "inputs": [
        {
          "internalType": "address",
          "name": "trader",
          "type": "address"
        }
      ],
      "name": "getBorrowAmounts",
      "outputs": [
        {
          "internalType": "address[]",
          "name": "borrowTokens",
          "type": "address[]"
        },
        {
          "internalType": "uint256[]",
          "name": "borrowAmounts",
          "type": "uint256[]"
        }
      ],
      "stateMutability": "view",
      "type": "function"
    },
    {
      "inputs": [
        {
          "internalType": "address",
          "name": "token",
          "type": "address"
        },
        {
          "internalType": "uint256",
          "name": "inAmount",
          "type": "uint256"
        },
        {
          "internalType": "bool",
          "name": "voluntary",
          "type": "bool"
        }
      ],
      "name": "getCurrentPriceInPeg",
      "outputs": [
        {
          "internalType": "uint256",
          "name": "priceInPeg",
          "type": "uint256"
        }
      ],
      "stateMutability": "nonpayable",
      "type": "function"
    },
    {
      "inputs": [
        {
          "internalType": "address",
          "name": "trader",
          "type": "address"
        }
      ],
      "name": "getHoldingAmounts",
      "outputs": [
        {
          "internalType": "address[]",
          "name": "holdingTokens",
          "type": "address[]"
        },
        {
          "internalType": "uint256[]",
          "name": "holdingAmounts",
          "type": "uint256[]"
        }
      ],
      "stateMutability": "view",
      "type": "function"
    },
    {
      "inputs": [],
      "name": "leveragePercent",
      "outputs": [
        {
          "internalType": "uint256",
          "name": "",
          "type": "uint256"
        }
      ],
      "stateMutability": "view",
      "type": "function"
    },
    {
      "inputs": [],
      "name": "liqStakeAttackWindow",
      "outputs": [
        {
          "internalType": "uint256",
          "name": "",
          "type": "uint256"
        }
      ],
      "stateMutability": "view",
      "type": "function"
    },
    {
      "inputs": [
        {
          "internalType": "address[]",
          "name": "liquidationCandidates",
          "type": "address[]"
        }
      ],
      "name": "liquidate",
      "outputs": [
        {
          "internalType": "uint256",
          "name": "maintainerCut",
          "type": "uint256"
        }
      ],
      "stateMutability": "nonpayable",
      "type": "function"
    },
    {
      "inputs": [],
      "name": "liquidationThresholdPercent",
      "outputs": [
        {
          "internalType": "uint256",
          "name": "",
          "type": "uint256"
        }
      ],
      "stateMutability": "view",
      "type": "function"
    },
    {
      "inputs": [
        {
          "internalType": "uint256",
          "name": "",
          "type": "uint256"
        }
      ],
      "name": "mainCharacterCache",
      "outputs": [
        {
          "internalType": "address",
          "name": "",
          "type": "address"
        }
      ],
      "stateMutability": "view",
      "type": "function"
    },
    {
      "inputs": [
        {
          "internalType": "address",
          "name": "",
          "type": "address"
        }
      ],
      "name": "maintenanceFailures",
      "outputs": [
        {
          "internalType": "uint256",
          "name": "",
          "type": "uint256"
        }
      ],
      "stateMutability": "view",
      "type": "function"
    },
    {
      "inputs": [
        {
          "internalType": "address",
          "name": "",
          "type": "address"
        },
        {
          "internalType": "address",
          "name": "",
          "type": "address"
        }
      ],
      "name": "pairPrices",
      "outputs": [
        {
          "internalType": "uint256",
          "name": "cumulative",
          "type": "uint256"
        },
        {
          "internalType": "uint256",
          "name": "lastUpdated",
          "type": "uint256"
        },
        {
          "internalType": "uint256",
          "name": "priceFP",
          "type": "uint256"
        }
      ],
      "stateMutability": "view",
      "type": "function"
    },
    {
      "inputs": [],
      "name": "peg",
      "outputs": [
        {
          "internalType": "address",
          "name": "",
          "type": "address"
        }
      ],
      "stateMutability": "view",
      "type": "function"
    },
    {
      "inputs": [],
      "name": "priceUpdateWindow",
      "outputs": [
        {
          "internalType": "uint256",
          "name": "",
          "type": "uint256"
        }
      ],
      "stateMutability": "view",
      "type": "function"
    },
    {
      "inputs": [
        {
          "internalType": "address",
          "name": "trader",
          "type": "address"
        },
        {
          "internalType": "address",
          "name": "borrowToken",
          "type": "address"
        },
        {
          "internalType": "uint256",
          "name": "borrowAmount",
          "type": "uint256"
        }
      ],
      "name": "registerBorrow",
      "outputs": [],
      "stateMutability": "nonpayable",
      "type": "function"
    },
    {
      "inputs": [
        {
          "internalType": "address",
          "name": "trader",
          "type": "address"
        },
        {
          "internalType": "address",
          "name": "token",
          "type": "address"
        },
        {
          "internalType": "uint256",
          "name": "depositAmount",
          "type": "uint256"
        }
      ],
      "name": "registerDeposit",
      "outputs": [
        {
          "internalType": "uint256",
          "name": "extinguishableDebt",
          "type": "uint256"
        }
      ],
      "stateMutability": "nonpayable",
      "type": "function"
    },
    {
      "inputs": [
        {
          "internalType": "address",
          "name": "trader",
          "type": "address"
        }
      ],
      "name": "registerLiquidation",
      "outputs": [],
      "stateMutability": "nonpayable",
      "type": "function"
    },
    {
      "inputs": [
        {
          "internalType": "address",
          "name": "trader",
          "type": "address"
        },
        {
          "internalType": "address",
          "name": "depositToken",
          "type": "address"
        },
        {
          "internalType": "uint256",
          "name": "depositAmount",
          "type": "uint256"
        },
        {
          "internalType": "address",
          "name": "borrowToken",
          "type": "address"
        },
        {
          "internalType": "uint256",
          "name": "withdrawAmount",
          "type": "uint256"
        }
      ],
      "name": "registerOvercollateralizedBorrow",
      "outputs": [],
      "stateMutability": "nonpayable",
      "type": "function"
    },
    {
      "inputs": [
        {
          "internalType": "address",
          "name": "trader",
          "type": "address"
        },
        {
          "internalType": "address",
          "name": "tokenFrom",
          "type": "address"
        },
        {
          "internalType": "address",
          "name": "tokenTo",
          "type": "address"
        },
        {
          "internalType": "uint256",
          "name": "inAmount",
          "type": "uint256"
        },
        {
          "internalType": "uint256",
          "name": "outAmount",
          "type": "uint256"
        }
      ],
      "name": "registerTradeAndBorrow",
      "outputs": [
        {
          "internalType": "uint256",
          "name": "extinguishableDebt",
          "type": "uint256"
        },
        {
          "internalType": "uint256",
          "name": "borrowAmount",
          "type": "uint256"
        }
      ],
      "stateMutability": "nonpayable",
      "type": "function"
    },
    {
      "inputs": [
        {
          "internalType": "address",
          "name": "trader",
          "type": "address"
        },
        {
          "internalType": "address",
          "name": "withdrawToken",
          "type": "address"
        },
        {
          "internalType": "uint256",
          "name": "withdrawAmount",
          "type": "uint256"
        }
      ],
      "name": "registerWithdrawal",
      "outputs": [],
      "stateMutability": "nonpayable",
      "type": "function"
    },
    {
      "inputs": [
        {
          "internalType": "address",
          "name": "",
          "type": "address"
        },
        {
          "internalType": "uint256",
          "name": "",
          "type": "uint256"
        }
      ],
      "name": "roleCache",
      "outputs": [
        {
          "internalType": "bool",
          "name": "",
          "type": "bool"
        }
      ],
      "stateMutability": "view",
      "type": "function"
    },
    {
      "inputs": [],
      "name": "roles",
      "outputs": [
        {
          "internalType": "contract Roles",
          "name": "",
          "type": "address"
        }
      ],
      "stateMutability": "view",
      "type": "function"
    },
    {
      "inputs": [
        {
          "internalType": "uint256",
          "name": "blocks",
          "type": "uint256"
        }
      ],
      "name": "setCoolingOffPeriod",
      "outputs": [],
      "stateMutability": "nonpayable",
      "type": "function"
    },
    {
      "inputs": [
        {
          "internalType": "uint256",
          "name": "threshFactor",
          "type": "uint256"
        }
      ],
      "name": "setFailureThreshold",
      "outputs": [],
      "stateMutability": "nonpayable",
      "type": "function"
    },
    {
      "inputs": [
        {
          "internalType": "uint256",
          "name": "_leveragePercent",
          "type": "uint256"
        }
      ],
      "name": "setLeveragePercent",
      "outputs": [],
      "stateMutability": "nonpayable",
      "type": "function"
    },
    {
      "inputs": [
        {
          "internalType": "uint256",
          "name": "window",
          "type": "uint256"
        }
      ],
      "name": "setLiqStakeAttackWindow",
      "outputs": [],
      "stateMutability": "nonpayable",
      "type": "function"
    },
    {
      "inputs": [
        {
          "internalType": "bytes32",
          "name": "amms",
          "type": "bytes32"
        },
        {
          "internalType": "address[]",
          "name": "tokens",
          "type": "address[]"
        }
      ],
      "name": "setLiquidationPath",
      "outputs": [],
      "stateMutability": "nonpayable",
      "type": "function"
    },
    {
      "inputs": [
        {
          "internalType": "uint256",
          "name": "threshold",
          "type": "uint256"
        }
      ],
      "name": "setLiquidationThresholdPercent",
      "outputs": [],
      "stateMutability": "nonpayable",
      "type": "function"
    },
    {
      "inputs": [
        {
          "internalType": "uint256",
          "name": "cut",
          "type": "uint256"
        }
      ],
      "name": "setMaintainerCutPercent",
      "outputs": [],
      "stateMutability": "nonpayable",
      "type": "function"
    },
    {
      "inputs": [
        {
          "internalType": "uint16",
          "name": "window",
          "type": "uint16"
        },
        {
          "internalType": "uint256",
          "name": "voluntaryWindow",
          "type": "uint256"
        }
      ],
      "name": "setPriceUpdateWindow",
      "outputs": [],
      "stateMutability": "nonpayable",
      "type": "function"
    },
    {
      "inputs": [
        {
          "internalType": "address",
          "name": "token",
          "type": "address"
        },
        {
          "internalType": "uint256",
          "name": "cap",
          "type": "uint256"
        }
      ],
      "name": "setTokenCap",
      "outputs": [],
      "stateMutability": "nonpayable",
      "type": "function"
    },
    {
      "inputs": [
        {
          "internalType": "uint256",
          "name": "rate",
          "type": "uint256"
        }
      ],
      "name": "setUpdateRate",
      "outputs": [],
      "stateMutability": "nonpayable",
      "type": "function"
    },
    {
      "inputs": [
        {
          "internalType": "address",
          "name": "",
          "type": "address"
        }
      ],
      "name": "stakeAttackRecords",
      "outputs": [
        {
          "internalType": "uint256",
          "name": "blockNum",
          "type": "uint256"
        },
        {
          "internalType": "address",
          "name": "loser",
          "type": "address"
        },
        {
          "internalType": "uint256",
          "name": "amount",
          "type": "uint256"
        },
        {
          "internalType": "address",
          "name": "stakeAttacker",
          "type": "address"
        }
      ],
      "stateMutability": "view",
      "type": "function"
    },
    {
      "inputs": [
        {
          "internalType": "address",
          "name": "",
          "type": "address"
        }
      ],
      "name": "tokenCaps",
      "outputs": [
        {
          "internalType": "uint256",
          "name": "",
          "type": "uint256"
        }
      ],
      "stateMutability": "view",
      "type": "function"
    },
    {
      "inputs": [
        {
          "internalType": "address",
          "name": "",
          "type": "address"
        }
      ],
      "name": "tokenPrices",
      "outputs": [
        {
          "internalType": "uint256",
          "name": "lastUpdated",
          "type": "uint256"
        },
        {
          "internalType": "uint256",
          "name": "priceFP",
          "type": "uint256"
        },
        {
          "internalType": "bytes32",
          "name": "amms",
          "type": "bytes32"
        },
        {
          "internalType": "bytes32",
          "name": "inverseAmms",
          "type": "bytes32"
        }
      ],
      "stateMutability": "view",
      "type": "function"
    },
    {
      "inputs": [
        {
          "internalType": "address",
          "name": "",
          "type": "address"
        }
      ],
      "name": "totalLong",
      "outputs": [
        {
          "internalType": "uint256",
          "name": "",
          "type": "uint256"
        }
      ],
      "stateMutability": "view",
      "type": "function"
    },
    {
      "inputs": [
        {
          "internalType": "address",
          "name": "",
          "type": "address"
        }
      ],
      "name": "totalShort",
      "outputs": [
        {
          "internalType": "uint256",
          "name": "",
          "type": "uint256"
        }
      ],
      "stateMutability": "view",
      "type": "function"
    },
    {
      "inputs": [
        {
          "internalType": "uint256",
          "name": "role",
          "type": "uint256"
        }
      ],
      "name": "updateMainCharacterCache",
      "outputs": [],
      "stateMutability": "nonpayable",
      "type": "function"
    },
    {
      "inputs": [
        {
          "internalType": "uint256",
          "name": "role",
          "type": "uint256"
        },
        {
          "internalType": "address",
          "name": "contr",
          "type": "address"
        }
      ],
      "name": "updateRoleCache",
      "outputs": [],
      "stateMutability": "nonpayable",
      "type": "function"
    },
    {
      "inputs": [
        {
          "internalType": "address",
          "name": "trader",
          "type": "address"
        },
        {
          "internalType": "address",
          "name": "token",
          "type": "address"
        }
      ],
      "name": "viewBalanceInToken",
      "outputs": [
        {
          "internalType": "uint256",
          "name": "",
          "type": "uint256"
        }
      ],
      "stateMutability": "view",
      "type": "function"
    },
    {
      "inputs": [
        {
          "internalType": "address",
          "name": "token",
          "type": "address"
        },
        {
          "internalType": "uint256",
          "name": "inAmount",
          "type": "uint256"
        }
      ],
      "name": "viewCurrentPriceInPeg",
      "outputs": [
        {
          "internalType": "uint256",
          "name": "priceInPeg",
          "type": "uint256"
        }
      ],
      "stateMutability": "view",
      "type": "function"
    },
    {
      "inputs": [
        {
          "internalType": "address",
          "name": "trader",
          "type": "address"
        }
      ],
      "name": "viewHoldingsInPeg",
      "outputs": [
        {
          "internalType": "uint256",
          "name": "",
          "type": "uint256"
        }
      ],
      "stateMutability": "view",
      "type": "function"
    },
    {
      "inputs": [
        {
          "internalType": "address",
          "name": "trader",
          "type": "address"
        }
      ],
      "name": "viewLoanInPeg",
      "outputs": [
        {
          "internalType": "uint256",
          "name": "amount",
          "type": "uint256"
        }
      ],
      "stateMutability": "view",
      "type": "function"
    },
    {
      "inputs": [
        {
          "internalType": "uint256",
          "name": "",
          "type": "uint256"
        }
      ],
      "name": "volatilitySettings",
      "outputs": [
        {
          "internalType": "uint256",
          "name": "priceUpdateWindow",
          "type": "uint256"
        },
        {
          "internalType": "uint256",
          "name": "updateRatePermil",
          "type": "uint256"
        },
        {
          "internalType": "uint256",
          "name": "voluntaryUpdateWindow",
          "type": "uint256"
        }
      ],
      "stateMutability": "view",
      "type": "function"
    },
    {
      "inputs": [],
      "name": "voluntaryUpdateWindow",
      "outputs": [
        {
          "internalType": "uint256",
          "name": "",
          "type": "uint256"
        }
      ],
      "stateMutability": "view",
      "type": "function"
    }
  ],
  "transactionHash": "0x289915fdbf26cc53fd66ff6f955863c2eda3962d14cee7a3409e78ddd21d8cab",
  "args": [
    "0xdAC17F958D2ee523a2206206994597C13D831ec7",
    "0xC6D13A49cdC5Afc7798dd0eBA7698DB9BFCc1D8c"
  ],
  "solcInputHash": "303ba8554ee4618a0d01f112b9fe3933",
  "bytecode": "0x60c060405261096060045561012c60055561019060065561012c6008556073600955600a600e55600a60155560056016556005601755600a6018553480156200004757600080fd5b5060405162005e0438038062005e048339810160408190526200006a9162000112565b81816001600160a01b038116620000d25760405162461bcd60e51b815260206004820152602260248201527f506c656173652070726f766964652076616c696420726f6c6573206164647265604482015261737360f01b606482015260840160405180910390fd5b6001600160601b0319606091821b811660805291901b1660a05250620001499050565b80516001600160a01b03811681146200010d57600080fd5b919050565b6000806040838503121562000125578182fd5b6200013083620000f5565b91506200014060208401620000f5565b90509250929050565b60805160601c60a05160601c615c3b620001c9600039600081816103f001528181610ab101528181610eef015281816119fa01528181612058015281816121ff01528181612c5201528181614ee1015261506b015260008181610504015281816108ed0152818161168101528181612e5e0152612ef60152615c3b6000f3fe608060405234801561001057600080fd5b506004361061034c5760003560e01c806360b3fa40116101bd578063bc44dcbc116100f9578063db2d904d116100a2578063ef859fc81161007c578063ef859fc814610848578063f04c686514610885578063f3f5f9b514610898578063f99fd97c146108ab5761034c565b8063db2d904d146107ec578063e0f3871f146107ff578063e9c3f77d1461081f5761034c565b8063c74303aa116100d3578063c74303aa146107b3578063d0eb6653146107c6578063d510c535146107d95761034c565b8063bc44dcbc1461076d578063bc70c6661461078d578063c73afac2146107a05761034c565b8063a17ab52711610166578063a53ac0d911610140578063a53ac0d9146106c4578063a75697a5146106cd578063a985994b146106ed578063badb5048146107005761034c565b8063a17ab5271461068b578063a20ec4931461069e578063a3718919146106b15761034c565b80637d100e84116101975780637d100e84146106245780638dc6a5291461062d5780639c56522c146106825761034c565b806360b3fa40146105da5780636585b5a6146105ed5780637a1a04df146105f65761034c565b8063320d2fa01161028c57806347788cd011610235578063519bda851161020f578063519bda85146105a257806352a664d9146105ab578063538edb29146105be57806354554b58146105c75761034c565b806347788cd014610563578063498d55eb146105865780634aa4aca3146105995761034c565b80633ed456fa116102665780633ed456fa14610526578063409fdb721461052f578063447d52ba146105505761034c565b8063320d2fa0146104ce5780633500aa0b146104d7578063392f5f64146104ff5761034c565b80631d84cc18116102f9578063204120bc116102d3578063204120bc1461043d57806320c27126146104925780632b23f857146104b25780632febaa74146104c55761034c565b80631d84cc18146103d85780631f1cb62b146103eb5780631f692a641461042a5761034c565b806310d584341161032a57806310d584341461039f57806316317e7e146103b25780631d47e4a3146103c55761034c565b8063071060a61461035157806307c2017514610366578063093a483a14610379575b600080fd5b61036461035f3660046158f9565b6108be565b005b610364610374366004615764565b6109b5565b61038c6103873660046156cb565b610aad565b6040519081526020015b60405180910390f35b6103646103ad3660046158f9565b610b36565b6103646103c03660046158f9565b610bb9565b6103646103d33660046156cb565b610c37565b6103646103e6366004615671565b610d18565b6104127f000000000000000000000000000000000000000000000000000000000000000081565b6040516001600160a01b039091168152602001610396565b61038c610438366004615567565b610dc6565b61047261044b366004615567565b60026020526000908152604090208054600182015460038301546005909301549192909184565b604080519485526020850193909352918301526060820152608001610396565b61038c6104a0366004615567565b600d6020526000908152604090205481565b6103646104c036600461584e565b610dfb565b61038c600e5481565b61038c60095481565b6104ea6104e53660046155d7565b6111d1565b60408051928352602083019190915201610396565b6104127f000000000000000000000000000000000000000000000000000000000000000081565b61038c60045481565b61054261053d366004615567565b6114cb565b6040516103969291906159e1565b61036461055e366004615929565b611642565b610576610571366004615567565b611751565b6040519015158152602001610396565b610364610594366004615631565b6117b8565b61038c60165481565b61038c60065481565b61038c6105b9366004615631565b611857565b61038c60175481565b6103646105d53660046158f9565b611978565b61038c6105e8366004615723565b6119f6565b61038c60155481565b6105766106043660046156cb565b600160209081526000928352604080842090915290825290205460ff1681565b61038c60185481565b61066761063b36600461559f565b600360209081526000928352604080842090915290825290208054600182015460029092015490919083565b60408051938452602084019290925290820152606001610396565b61038c60055481565b61038c610699366004615567565b611b3a565b6103646106ac3660046158d6565b611b62565b6103646106bf3660046158f9565b611be9565b61038c60085481565b61038c6106db366004615567565b60136020526000908152604090205481565b61038c6106fb366004615764565b611c67565b61074261070e366004615567565b601460205260009081526040902080546001820154600283015460039093015491926001600160a01b039182169290911684565b604080519485526001600160a01b039384166020860152840191909152166060820152608001610396565b61038c61077b366004615567565b600c6020526000908152604090205481565b61066761079b3660046158f9565b6123d6565b6103646107ae3660046158f9565b612409565b6103646107c13660046158f9565b612487565b6103646107d4366004615631565b612505565b6105426107e7366004615567565b612593565b6103646107fa366004615567565b6127d7565b61038c61080d366004615567565b600b6020526000908152604090205481565b61041261082d3660046158f9565b6000602081905290815260409020546001600160a01b031681565b61038c61085636600461559f565b6001600160a01b039182166000908152600a602090815260408083209390941682526005909201909152205490565b6103646108933660046158f9565b6128b9565b6103646108a6366004615970565b6129fd565b6103646108b93660046158f9565b612b19565b6040517fb4ed0b6d000000000000000000000000000000000000000000000000000000008152600481018290527f00000000000000000000000000000000000000000000000000000000000000006001600160a01b03169063b4ed0b6d9060240160206040518083038186803b15801561093757600080fd5b505afa15801561094b573d6000803e3d6000fd5b505050506040513d601f19601f8201168201806040525081019061096f9190615583565b60009182526020829052604090912080547fffffffffffffffffffffffff0000000000000000000000000000000000000000166001600160a01b03909216919091179055565b60005b8082511115610aa95760008282815181106109e357634e487b7160e01b600052603260045260246000fd5b60200260200101519050600060146000836001600160a01b03166001600160a01b0316815260200190815260200160002090506016548160000154610a289190615af1565b431115610a9457610a3881612b97565b506001600160a01b03821660009081526014602052604081208181556001810180547fffffffffffffffffffffffff00000000000000000000000000000000000000009081169091556002820192909255600301805490911690555b50508080610aa190615b7d565b9150506109b8565b5050565b60007f00000000000000000000000000000000000000000000000000000000000000006001600160a01b0316836001600160a01b03161415610af0575080610b30565b6001600160a01b0383166000908152600260205260409020600181015468010000000000000000610b218286615b29565b610b2b9190615b09565b925050505b92915050565b33610b3f612e5a565b6001600160a01b03161480610b63575033610b58612ef2565b6001600160a01b0316145b610bb45760405162461bcd60e51b815260206004820152601e60248201527f526f6c65733a2063616c6c6572206973206e6f7420746865206f776e6572000060448201526064015b60405180910390fd5b601855565b33610bc2612e5a565b6001600160a01b03161480610be6575033610bdb612ef2565b6001600160a01b0316145b610c325760405162461bcd60e51b815260206004820152601e60248201527f526f6c65733a2063616c6c6572206973206e6f7420746865206f776e657200006044820152606401610bab565b600955565b33610c40612e5a565b6001600160a01b03161480610c64575033610c59612ef2565b6001600160a01b0316145b80610c8a57503360009081526001602090815260408083206009845290915290205460ff165b610cfc5760405162461bcd60e51b815260206004820152603960248201527f43616c6c6572206973206e6f7420746865206f776e65722c206578656375746f60448201527f72206f7220617574686f72697a656420616374697661746f72000000000000006064820152608401610bab565b6001600160a01b039091166000908152600b6020526040902055565b3360009081526001602090815260408083206004845290915290205460ff16610d835760405162461bcd60e51b815260206004820152601d60248201527f43616c6c696e6720636f6e74722e206e6f7420617574686f72697a65640000006044820152606401610bab565b6001600160a01b0385166000908152600a60205260409020610da6818686612f63565b610db181848461300e565b610dbc818484613115565b4390555050505050565b6001600160a01b0381166000908152600a60205260408120610df2600182016002830160038401613235565b9150505b919050565b33610e04612e5a565b6001600160a01b03161480610e28575033610e1d612ef2565b6001600160a01b0316145b80610e4e57503360009081526001602090815260408083206009845290915290205460ff165b610ec05760405162461bcd60e51b815260206004820152603960248201527f43616c6c6572206973206e6f7420746865206f776e65722c206578656375746f60448201527f72206f7220617574686f72697a656420616374697661746f72000000000000006064820152608401610bab565b600081600081518110610ee357634e487b7160e01b600052603260045260246000fd5b602002602001015190507f00000000000000000000000000000000000000000000000000000000000000006001600160a01b0316816001600160a01b0316146111cc576001600160a01b03811660009081526002602081815260409092206003810186905584519092610f5c9284019190860190615422565b50825167ffffffffffffffff811115610f8557634e487b7160e01b600052604160045260246000fd5b604051908082528060200260200182016040528015610fae578160200160208202803683370190505b508051610fc5916004840191602090910190615422565b506000805b8060018651610fd99190615b66565b11156110ed5761106785828151811061100257634e487b7160e01b600052603260045260246000fd5b6020026020010151868360016110189190615af1565b8151811061103657634e487b7160e01b600052603260045260246000fd5b602002602001015188846020811061105e57634e487b7160e01b600052603260045260246000fd5b1a60f81b6132b9565b600081600287516110789190615b66565b6110829190615b66565b61108d906008615b29565b8783602081106110ad57634e487b7160e01b600052603260045260246000fd5b1a60f81b7fff0000000000000000000000000000000000000000000000000000000000000016901c929092179150806110e581615b7d565b915050610fca565b506005820181905560005b80855111156111b7578460018287516111119190615b66565b61111b9190615b66565b8151811061113957634e487b7160e01b600052603260045260246000fd5b602002602001015183600401828154811061116457634e487b7160e01b600052603260045260246000fd5b600091825260209091200180547fffffffffffffffffffffffff0000000000000000000000000000000000000000166001600160a01b0392909216919091179055806111af81615b7d565b9150506110f8565b506111c28486613553565b6001830155504290555b505050565b33600090815260016020908152604080832060048452909152812054819060ff1661123e5760405162461bcd60e51b815260206004820181905260248201527f43616c6c696e6720636f6e74722e206e6f7420616e20617574686f72697a65646044820152606401610bab565b6001600160a01b038088166000908152600a60209081526040808320938916835260028401909152902054156112cf576001600160a01b038616600090815260028201602052604090205461129490859061387c565b92506112a1818785613894565b6001600160a01b0386166000908152600c6020526040812080548592906112c9908490615b66565b90915550505b6001600160a01b0387166000908152600582016020526040902054859080821115611304579050806113018188615b66565b93505b83871115611344576113168488615b66565b6001600160a01b038a166000908152600d60205260408120805490919061133e908490615b66565b90915550505b84861115611384576113568587615b66565b6001600160a01b0389166000908152600d60205260408120805490919061137e908490615af1565b90915550505b6001600160a01b0388166000908152600d6020908152604080832054600b9092529091205410156113f75760405162461bcd60e51b815260206004820152601860248201527f4578636565647320676c6f62616c20746f6b656e2063617000000000000000006044820152606401610bab565b61140d838a8a856114088a8c615b66565b613b99565b83156114be576001600160a01b0389166000908152600c60205260408120805486929061143b908490615af1565b90915550506001600160a01b0389166000908152600c6020908152604080832054600b9092529091205410156114b35760405162461bcd60e51b815260206004820152601860248201527f4578636565647320676c6f62616c20746f6b656e2063617000000000000000006044820152606401610bab565b6114be838a86613bec565b5050509550959350505050565b6001600160a01b0381166000908152600a602090815260409182902060048101805484518185028101850190955280855260609485949092919083018282801561153e57602002820191906000526020600020905b81546001600160a01b03168152600190910190602001808311611520575b5050506004840154929550505067ffffffffffffffff81111561157157634e487b7160e01b600052604160045260246000fd5b60405190808252806020026020018201604052801561159a578160200160208202803683370190505b50915060005b808451111561163b5760008482815181106115cb57634e487b7160e01b600052603260045260246000fd5b60200260200101519050826005016000826001600160a01b03166001600160a01b031681526020019081526020016000205484838151811061161d57634e487b7160e01b600052603260045260246000fd5b6020908102919091010152508061163381615b7d565b9150506115a0565b5050915091565b6040517f93552a3d000000000000000000000000000000000000000000000000000000008152600481018390526001600160a01b0382811660248301527f000000000000000000000000000000000000000000000000000000000000000016906393552a3d9060440160206040518083038186803b1580156116c357600080fd5b505afa1580156116d7573d6000803e3d6000fd5b505050506040513d601f19601f820116820180604052508101906116fb9190615832565b6001600160a01b039190911660009081526001602090815260408083209483529390529190912080547fffffffffffffffffffffffffffffffffffffffffffffffffffffffffffffff0016911515919091179055565b6001600160a01b0381166000908152600a602052604081208161177e600183016002840160038501613235565b905060006117928360040184600501613ea6565b9050816009546117a29190615b29565b6117ad826064615b29565b101595945050505050565b3360009081526001602090815260408083206004845290915290205460ff166118235760405162461bcd60e51b815260206004820152601d60248201527f43616c6c696e6720636f6e74722e206e6f7420617574686f72697a65640000006044820152606401610bab565b6001600160a01b0383166000908152600a60205260409020611846818484613f31565b61185181848461300e565b50505050565b3360009081526001602090815260408083206004845290915281205460ff166118c25760405162461bcd60e51b815260206004820152601d60248201527f43616c6c696e6720636f6e74722e206e6f7420617574686f72697a65640000006044820152606401610bab565b6001600160a01b038085166000908152600a6020908152604080832043815593871683526002840190915290205415611956576001600160a01b038416600090815260028201602052604090205461191b90849061387c565b9150611928818584613894565b6001600160a01b0384166000908152600c602052604081208054849290611950908490615b66565b90915550505b60006119628385615b66565b905061196f828683612f63565b50509392505050565b33611981612e5a565b6001600160a01b031614806119a557503361199a612ef2565b6001600160a01b0316145b6119f15760405162461bcd60e51b815260206004820152601e60248201527f526f6c65733a2063616c6c6572206973206e6f7420746865206f776e657200006044820152606401610bab565b600655565b60007f00000000000000000000000000000000000000000000000000000000000000006001600160a01b0316846001600160a01b03161415611a39575081611b33565b6001600160a01b03841660009081526002602052604081208054909190611a609042615b66565b9050600454811180611a7457506001820154155b80611a885750838015611a88575060055481115b15611b0a576000611af983600201805480602002602001604051908101604052809291908181526020018280548015611aea57602002820191906000526020600020905b81546001600160a01b03168152600190910190602001808311611acc575b50505050508460030154613553565b9050611b08838260065461400d565b505b68010000000000000000826001015486611b249190615b29565b611b2e9190615b09565b925050505b9392505050565b6001600160a01b0381166000908152600a60205260408120610df26004820160058301613ea6565b33611b6b612e5a565b6001600160a01b03161480611b8f575033611b84612ef2565b6001600160a01b0316145b611bdb5760405162461bcd60e51b815260206004820152601e60248201527f526f6c65733a2063616c6c6572206973206e6f7420746865206f776e657200006044820152606401610bab565b61ffff909116600455600555565b33611bf2612e5a565b6001600160a01b03161480611c16575033611c0b612ef2565b6001600160a01b0316145b611c625760405162461bcd60e51b815260206004820152601e60248201527f526f6c65733a2063616c6c6572206973206e6f7420746865206f776e657200006044820152606401610bab565b601655565b6000333214611cde5760405162461bcd60e51b815260206004820152603a60248201527f43757272656e746c79206e6f20696e7465726d656469617269657320616c6c6f60448201527f77656420666f7220746869732066756e6374696f6e2063616c6c0000000000006064820152608401610bab565b6000611d1b606b60009081526020527f2dc7a963308417ad45132da282495eb244f38a7db03940a4d808be607669c622546001600160a01b031690565b6040517f7b23cbce0000000000000000000000000000000000000000000000000000000081523360048201526001600160a01b039190911690637b23cbce90602401602060405180830381600087803b158015611d7757600080fd5b505af1158015611d8b573d6000803e3d6000fd5b505050506040513d601f19601f82011682018060405250810190611daf9190615832565b905060008180611dc25750611dc2614055565b9050611dce8483614135565b92506000611dda6146b5565b90506000611de6614797565b9050600060646017546064611dfb9190615af1565b611e059084615b29565b611e0f9190615b09565b905082811115611e56577f3555ffae7677eb42103f0b9e11b61c758f452fae446684dec7a363dd38ab58fc611e448483615b66565b60405190815260200160405180910390a15b600084611f0757606b60009081526020527f2dc7a963308417ad45132da282495eb244f38a7db03940a4d808be607669c622546001600160a01b03166001600160a01b0316631a38de1d6040518163ffffffff1660e01b8152600401602060405180830381600087803b158015611ecc57600080fd5b505af1158015611ee0573d6000803e3d6000fd5b505050506040513d601f19601f82011682018060405250810190611f049190615583565b90505b60005b60125481101561216a57600060128281548110611f3757634e487b7160e01b600052603260045260246000fd5b60009182526020808320909101546001600160a01b0316808352600a9091526040822090925090611f6782614872565b90506000611f7483614884565b90506000606460175483611f889190615b29565b611f929190615b09565b9050611f9e818e615af1565b9c508a61200b576001600160a01b03858116600090815260146020526040902060028101839055600381018054337fffffffffffffffffffffffff000000000000000000000000000000000000000091821617909155438255600190910180549091169189169190911790555b6120158282615af1565b83111561210d57606560009081526020527f4a7203f705e51df4a56139a9b86b4a0970bed7ab7a3446eaffe2289989c1645c546001600160a01b031663d9caed127f000000000000000000000000000000000000000000000000000000000000000087846120838789615b66565b61208d9190615b66565b6040517fffffffff0000000000000000000000000000000000000000000000000000000060e086901b1681526001600160a01b0393841660048201529290911660248301526044820152606401600060405180830381600087803b1580156120f457600080fd5b505af1158015612108573d6000803e3d6000fd5b505050505b6040516001600160a01b03861681527f1d2cc4c8661a04a00b4e727426220501b36d85bb330947642c2d4320667028cf9060200160405180910390a16121528461489a565b5050505050808061216290615b7d565b915050611f0a565b50606487601554606361217d9190615b29565b6121879190615af1565b6121919190615b09565b601555841561227357606560009081526020527f4a7203f705e51df4a56139a9b86b4a0970bed7ab7a3446eaffe2289989c1645c546001600160a01b03166040517fd9caed120000000000000000000000000000000000000000000000000000000081526001600160a01b037f000000000000000000000000000000000000000000000000000000000000000081166004830152336024830152604482018a9052919091169063d9caed1290606401600060405180830381600087803b15801561225a57600080fd5b505af115801561226e573d6000803e3d6000fd5b505050505b60006122b0606b60009081526020527f2dc7a963308417ad45132da282495eb244f38a7db03940a4d808be607669c622546001600160a01b031690565b6001600160a01b0316631a38de1d6040518163ffffffff1660e01b8152600401602060405180830381600087803b1580156122ea57600080fd5b505af11580156122fe573d6000803e3d6000fd5b505050506040513d601f19601f820116820180604052508101906123229190615583565b9050861561239c576001600160a01b03811660009081526013602052604090205488101561237d576001600160a01b038116600090815260136020526040812080548a9290612372908490615b66565b909155506123979050565b6001600160a01b0381166000908152601360205260408120555b6123ca565b6001600160a01b038116600090815260136020526040812080548a92906123c4908490615af1565b90915550505b50505050505050919050565b600781815481106123e657600080fd5b600091825260209091206003909102018054600182015460029092015490925083565b33612412612e5a565b6001600160a01b0316148061243657503361242b612ef2565b6001600160a01b0316145b6124825760405162461bcd60e51b815260206004820152601e60248201527f526f6c65733a2063616c6c6572206973206e6f7420746865206f776e657200006044820152606401610bab565b601755565b33612490612e5a565b6001600160a01b031614806124b45750336124a9612ef2565b6001600160a01b0316145b6125005760405162461bcd60e51b815260206004820152601e60248201527f526f6c65733a2063616c6c6572206973206e6f7420746865206f776e657200006044820152606401610bab565b600855565b3360009081526001602090815260408083206004845290915290205460ff166125705760405162461bcd60e51b815260206004820152601c60248201527f43616c6c696e6720636f6e7472206e6f7420617574686f72697a6564000000006044820152606401610bab565b6001600160a01b0383166000908152600a60205260409020611851818484613115565b6001600160a01b0381166000908152600a602090815260409182902060018101805484518185028101850190955280855260609485949092919083018282801561260657602002820191906000526020600020905b81546001600160a01b031681526001909101906020018083116125e8575b5050506001840154929550505067ffffffffffffffff81111561263957634e487b7160e01b600052604160045260246000fd5b604051908082528060200260200182016040528015612662578160200160208202803683370190505b50915060005b808451111561163b57600084828151811061269357634e487b7160e01b600052603260045260246000fd5b602002602001015190506126d8606660009081526020527f422cccb7cea5c0e46f340bb7b21b81debac329f72e31669c20ff0f3a05cc2b5b546001600160a01b031690565b6001600160a01b03828116600081815260028701602090815260408083205460038a01909252918290205491517f76668b670000000000000000000000000000000000000000000000000000000081526004810191909152602481019290925260448201529116906376668b679060640160206040518083038186803b15801561276157600080fd5b505afa158015612775573d6000803e3d6000fd5b505050506040513d601f19601f820116820180604052508101906127999190615911565b8483815181106127b957634e487b7160e01b600052603260045260246000fd5b602090810291909101015250806127cf81615b7d565b915050612668565b3360009081526001602090815260408083206004845290915290205460ff166128425760405162461bcd60e51b815260206004820152601d60248201527f43616c6c696e6720636f6e74722e206e6f7420617574686f72697a65640000006044820152606401610bab565b6001600160a01b0381166000908152600a6020526040902061286381614884565b156128b05760405162461bcd60e51b815260206004820152601a60248201527f43616e2774206c69717569646174653a20626f72726f77696e670000000000006044820152606401610bab565b610aa98161489a565b336128c2612e5a565b6001600160a01b031614806128e65750336128db612ef2565b6001600160a01b0316145b806129345750336129296103e960009081526020527f236f539bf6e1b3b15a335e3cd157d360bc4be88c071635c19ba8a82b4f665e9f546001600160a01b031690565b6001600160a01b0316145b6129a65760405162461bcd60e51b815260206004820152603860248201527f43616c6c6572206973206e6f7420746865206f776e65722c206578656375746f60448201527f72206f7220617574686f72697a65642064697361626c657200000000000000006064820152608401610bab565b6000600782815481106129c957634e487b7160e01b600052603260045260246000fd5b90600052602060002090600302019050600081600101541115610aa957600181015460065580546004556002015460055550565b33612a06612e5a565b6001600160a01b03161480612a2a575033612a1f612ef2565b6001600160a01b0316145b612a765760405162461bcd60e51b815260206004820152601e60248201527f526f6c65733a2063616c6c6572206973206e6f7420746865206f776e657200006044820152606401610bab565b604080516060810182529384526020840192835283019081526007805460018101825560009190915292517fa66cc928b5edb82af9bd49922954155ab7b0942694bea4ce44661d9a8736c68860039094029384015590517fa66cc928b5edb82af9bd49922954155ab7b0942694bea4ce44661d9a8736c689830155517fa66cc928b5edb82af9bd49922954155ab7b0942694bea4ce44661d9a8736c68a90910155565b33612b22612e5a565b6001600160a01b03161480612b46575033612b3b612ef2565b6001600160a01b0316145b612b925760405162461bcd60e51b815260206004820152601e60248201527f526f6c65733a2063616c6c6572206973206e6f7420746865206f776e657200006044820152606401610bab565b600e55565b600281015460009015610df6578154600090612bbf90612bb79043615b66565b60165461387c565b90506000601654828560020154612bd69190615b29565b612be09190615b09565b9050612c1d606560009081526020527f4a7203f705e51df4a56139a9b86b4a0970bed7ab7a3446eaffe2289989c1645c546001600160a01b031690565b60038501546040517fd9caed120000000000000000000000000000000000000000000000000000000081526001600160a01b037f00000000000000000000000000000000000000000000000000000000000000008116600483015291821660248201526044810184905291169063d9caed1290606401600060405180830381600087803b158015612cad57600080fd5b505af1158015612cc1573d6000803e3d6000fd5b505050506000612d02606b60009081526020527f2dc7a963308417ad45132da282495eb244f38a7db03940a4d808be607669c622546001600160a01b031690565b9050600060155483836001600160a01b0316630ad691506040518163ffffffff1660e01b815260040160206040518083038186803b158015612d4357600080fd5b505afa158015612d57573d6000803e3d6000fd5b505050506040513d601f19601f82011682018060405250810190612d7b9190615911565b612d859190615b29565b612d8f9190615b09565b600187015460038801546040517f0a45bc1b0000000000000000000000000000000000000000000000000000000081526001600160a01b039283166004820152602481018490529082166044820152919250831690630a45bc1b90606401602060405180830381600087803b158015612e0757600080fd5b505af1158015612e1b573d6000803e3d6000fd5b505050506040513d601f19601f82011682018060405250810190612e3f9190615911565b50828660020154612e509190615b66565b9695505050505050565b60007f00000000000000000000000000000000000000000000000000000000000000006001600160a01b0316638da5cb5b6040518163ffffffff1660e01b815260040160206040518083038186803b158015612eb557600080fd5b505afa158015612ec9573d6000803e3d6000fd5b505050506040513d601f19601f82011682018060405250810190612eed9190615583565b905090565b60007f00000000000000000000000000000000000000000000000000000000000000006001600160a01b031663c34c08e56040518163ffffffff1660e01b8152600401602060405180830381600087803b158015612f4f57600080fd5b505af1158015612ec9573d6000803e3d6000fd5b612f6e838383613f31565b6001600160a01b0382166000908152600d602052604081208054839290612f96908490615af1565b90915550506001600160a01b0382166000908152600d6020908152604080832054600b9092529091205410156111cc5760405162461bcd60e51b815260206004820152601860248201527f4578636565647320676c6f62616c20746f6b656e2063617000000000000000006044820152606401610bab565b6001600160a01b0382166000908152600c602052604081208054839290613036908490615af1565b90915550506001600160a01b0382166000908152600d602052604081208054839290613063908490615af1565b90915550506001600160a01b0382166000908152600c6020908152604080832054600b90925290912054108015906130be57506001600160a01b0382166000908152600d6020908152604080832054600b9092529091205410155b61310a5760405162461bcd60e51b815260206004820152601860248201527f4578636565647320676c6f62616c20746f6b656e2063617000000000000000006044820152606401610bab565b6111cc838383613bec565b600e5483546131249190615af1565b43116131725760405162461bcd60e51b815260206004820181905260248201527f4e6f207769746864726177616c20736f6f6e206166746572206465706f7369746044820152606401610bab565b6001600160a01b0382166000908152600d60205260408120805483929061319a908490615b66565b90915550506001600160a01b03821660009081526005840160205260409020546131c5908290615b66565b6001600160a01b03831660009081526005850160205260409020556131e983614a48565b6111cc5760405162461bcd60e51b815260206004820152601460248201527f496e73756666696369656e742062616c616e63650000000000000000000000006044820152606401610bab565b8254600090815b8181101561196f57600086828154811061326657634e487b7160e01b600052603260045260246000fd5b60009182526020808320909101546001600160a01b03168083529088905260409091205490915061329990829087614a94565b6132a39085615af1565b93505080806132b190615b7d565b91505061323c565b60007fff000000000000000000000000000000000000000000000000000000000000008216156132f2576132ed8484614ba3565b6132fc565b6132fc8484614cca565b9050600080826001600160a01b0316630902f1ac6040518163ffffffff1660e01b815260040160606040518083038186803b15801561333a57600080fd5b505afa15801561334e573d6000803e3d6000fd5b505050506040513d601f19601f820116820180604052508101906133729190615893565b506001600160a01b038086166000908152600360209081526040808320938c1683529290529081209294509092506133aa8888614db6565b509050806001600160a01b0316886001600160a01b0316141561348757836dffffffffffffffffffffffffffff16836dffffffffffffffffffffffffffff16680100000000000000006133fd9190615b29565b6134079190615b09565b8260020181905550846001600160a01b0316635909c0d56040518163ffffffff1660e01b815260040160206040518083038186803b15801561344857600080fd5b505afa15801561345c573d6000803e3d6000fd5b505050506040513d601f19601f820116820180604052508101906134809190615911565b8255613543565b826dffffffffffffffffffffffffffff16846dffffffffffffffffffffffffffff16680100000000000000006134bd9190615b29565b6134c79190615b09565b8260020181905550846001600160a01b0316635a3d54936040518163ffffffff1660e01b815260040160206040518083038186803b15801561350857600080fd5b505afa15801561351c573d6000803e3d6000fd5b505050506040513d601f19601f820116820180604052508101906135409190615911565b82555b5042600190910155505050505050565b6801000000000000000060005b6001845161356e9190615b66565b81101561387557600084828151811061359757634e487b7160e01b600052603260045260246000fd5b602002602001015190506000858360016135b19190615af1565b815181106135cf57634e487b7160e01b600052603260045260246000fd5b6020026020010151905060008584602081106135fb57634e487b7160e01b600052603260045260246000fd5b1a60f81b7fff000000000000000000000000000000000000000000000000000000000000001615613635576136308383614ba3565b61363f565b61363f8383614cca565b6001600160a01b03808216600090815260036020908152604080832093881683529290529081206001810154929350916136799042615b66565b90506005548111156138365760006136918686614db6565b5090506000816001600160a01b0316876001600160a01b03161461372557846001600160a01b0316635a3d54936040518163ffffffff1660e01b815260040160206040518083038186803b1580156136e857600080fd5b505afa1580156136fc573d6000803e3d6000fd5b505050506040513d601f19601f820116820180604052508101906137209190615911565b613796565b846001600160a01b0316635909c0d56040518163ffffffff1660e01b815260040160206040518083038186803b15801561375e57600080fd5b505afa158015613772573d6000803e3d6000fd5b505050506040513d601f19601f820116820180604052508101906137969190615911565b84549091508114156137cd576801000000000000000084600201548a6137bc9190615b29565b6137c69190615b09565b9850613829565b835460009084906137de9084615b66565b6137f19068010000000000000000615b29565b6137fb9190615b09565b60028601819055905068010000000000000000613818828c615b29565b6138229190615b09565b8286559950505b505042600183015561385d565b680100000000000000008260020154886138509190615b29565b61385a9190615b09565b96505b5050505050808061386d90615b7d565b915050613560565b5092915050565b60008183111561388d575080610b30565b5081610b30565b6000806138d2606660009081526020527f422cccb7cea5c0e46f340bb7b21b81debac329f72e31669c20ff0f3a05cc2b5b546001600160a01b031690565b6001600160a01b03858116600081815260028901602090815260408083205460038c01909252918290205491517fe695fa6800000000000000000000000000000000000000000000000000000000815260048101919091526024810192909252604482015291169063e695fa68906064016040805180830381600087803b15801561395c57600080fd5b505af1158015613970573d6000803e3d6000fd5b505050506040513d601f19601f82011682018060405250810190613994919061594d565b909250905060006139a58484615b66565b6001600160a01b0386166000908152600288016020908152604080832084905560058a019091529020549091506139dd908590615b66565b6001600160a01b03861660009081526005880160205260409020558015613a20576001600160a01b03851660009081526003870160205260409020829055613b91565b6001600160a01b038516600090815260038701602052604081208190556001870154815b80821115613b14576000896001018281548110613a7157634e487b7160e01b600052603260045260246000fd5b6000918252602090912001546001600160a01b0390811691508916811415613a9c5760019350613b01565b8315613b0157808a600101600184613ab49190615b66565b81548110613ad257634e487b7160e01b600052603260045260246000fd5b9060005260206000200160006101000a8154816001600160a01b0302191690836001600160a01b031602179055505b5080613b0c81615b7d565b915050613a44565b5087600101805480613b3657634e487b7160e01b600052603160045260246000fd5b60008281526020902081017fffffffffffffffffffffffffffffffffffffffffffffffffffffffffffffffff90810180547fffffffffffffffffffffffff000000000000000000000000000000000000000016905501905550505b505050505050565b6001600160a01b0384166000908152600586016020526040902054613bbf908390615b66565b6001600160a01b0385166000908152600587016020526040902055613be5858483613f31565b5050505050565b6001600160a01b0382166000908152600384016020526040902054613d53576001838101805491820181556000908152602090200180547fffffffffffffffffffffffff0000000000000000000000000000000000000000166001600160a01b038416179055613c8d606660009081526020527f422cccb7cea5c0e46f340bb7b21b81debac329f72e31669c20ff0f3a05cc2b5b546001600160a01b031690565b6040517f46c87f800000000000000000000000000000000000000000000000000000000081526001600160a01b03848116600483015291909116906346c87f8090602401602060405180830381600087803b158015613ceb57600080fd5b505af1158015613cff573d6000803e3d6000fd5b505050506040513d601f19601f82011682018060405250810190613d239190615911565b6001600160a01b038316600090815260038501602090815260408083209390935560028601905220819055613e9d565b600080613d91606660009081526020527f422cccb7cea5c0e46f340bb7b21b81debac329f72e31669c20ff0f3a05cc2b5b546001600160a01b031690565b6001600160a01b03858116600081815260028901602090815260408083205460038c01909252918290205491517fe695fa6800000000000000000000000000000000000000000000000000000000815260048101919091526024810192909252604482015291169063e695fa68906064016040805180830381600087803b158015613e1b57600080fd5b505af1158015613e2f573d6000803e3d6000fd5b505050506040513d601f19601f82011682018060405250810190613e53919061594d565b6001600160a01b038616600090815260038801602052604090208190559092509050613e7f8383615af1565b6001600160a01b038516600090815260028701602052604090205550505b6131e983614a48565b8154600090815b81811015613f29576000858281548110613ed757634e487b7160e01b600052603260045260246000fd5b60009182526020808320909101546001600160a01b031680835290879052604090912054909150613f09908290610aad565b613f139085615af1565b9350508080613f2190615b7d565b915050613ead565b505092915050565b6001600160a01b038216600090815260068401602052604090205460ff16613fd957600483018054600180820183556000928352602080842090920180547fffffffffffffffffffffffff0000000000000000000000000000000000000000166001600160a01b038716908117909155835260068601909152604090912080547fffffffffffffffffffffffffffffffffffffffffffffffffffffffffffffff001690911790555b6001600160a01b038216600090815260058401602052604081208054839290614003908490615af1565b9091555050505050565b6103e861401a8284615b29565b614026836103e8615b66565b85600101546140359190615b29565b61403f9190615af1565b6140499190615b09565b60018401555050429055565b600080614093606b60009081526020527f2dc7a963308417ad45132da282495eb244f38a7db03940a4d808be607669c622546001600160a01b031690565b6001600160a01b031663b0411f466040518163ffffffff1660e01b8152600401604080518083038186803b1580156140ca57600080fd5b505afa1580156140de573d6000803e3d6000fd5b505050506040513d601f19601f8201168201806040525081019061410291906156f6565b5090506015546018546141159190615b29565b6001600160a01b0390911660009081526013602052604090205411905090565b6040805160008082526020820192839052905190916141579160109190615422565b50604080516000815260208101918290525161417591601191615422565b50604080516000815260208101918290525161419391601291615422565b5060005b80845111156138755760008482815181106141c257634e487b7160e01b600052603260045260246000fd5b602002602001015190506000600a6000836001600160a01b03166001600160a01b0316815260200190815260200160002090506141fe81614ea0565b1561466b576012805460018101825560009182527fbb8a6a4669ba250d26cd7a459eca9d215f8307e33aebe50379bc5a3617ec34440180547fffffffffffffffffffffffff0000000000000000000000000000000000000000166001600160a01b0385161790556004820154905b808211156143a057600083600401828154811061429957634e487b7160e01b600052603260045260246000fd5b60009182526020808320909101546001600160a01b0316808352600f90915260409091206002810154919250904314614355576001600160a01b03821660008181526005870160205260408120546001808501919091558184554360028501556010805491820181559091527f1b6847dc741a1b0cd08d278845f9d819d87b734759afb55fe2de5cb82a9ae6720180547fffffffffffffffffffffffff000000000000000000000000000000000000000016909117905561438b565b6001600160a01b038216600090815260058601602052604081205460018301805491929091614385908490615af1565b90915550505b5050808061439890615b7d565b91505061426c565b5050600181015460005b808211156146685760008360010182815481106143d757634e487b7160e01b600052603260045260246000fd5b60009182526020808320909101546001600160a01b0316808352600f9091526040822090925090614439606660009081526020527f422cccb7cea5c0e46f340bb7b21b81debac329f72e31669c20ff0f3a05cc2b5b546001600160a01b031690565b6001600160a01b03848116600081815260028a01602090815260408083205460038d01909252918290205491517fe695fa6800000000000000000000000000000000000000000000000000000000815260048101919091526024810192909252604482015291169063e695fa68906064016040805180830381600087803b1580156144c357600080fd5b505af11580156144d7573d6000803e3d6000fd5b505050506040513d601f19601f820116820180604052508101906144fb919061594d565b509050614539606660009081526020527f422cccb7cea5c0e46f340bb7b21b81debac329f72e31669c20ff0f3a05cc2b5b546001600160a01b031690565b6040517f2a6a897b0000000000000000000000000000000000000000000000000000000081526001600160a01b038581166004830152602482018490529190911690632a6a897b90604401600060405180830381600087803b15801561459e57600080fd5b505af11580156145b2573d6000803e3d6000fd5b505050504382600201541461463857600060018381018290558284554360028501556011805491820181559091527f31ecc21a745e3968a04e9570e4425bc18fa8019c68028196b546d1669c200c680180547fffffffffffffffffffffffff0000000000000000000000000000000000000000166001600160a01b038516179055614652565b8082600001600082825461464c9190615af1565b90915550505b505050808061466090615b7d565b9150506143aa565b50505b6001600160a01b0382166000908152601460205260409020851561469f5761469281612b97565b61469c9086615af1565b94505b50505080806146ad90615b7d565b915050614197565b601054600090815b80821115614786576000601082815481106146e857634e487b7160e01b600052603260045260246000fd5b60009182526020808320909101546001600160a01b0316808352600f90915260409091208054600182015492935090911115614771578054600182015460009161473191615b66565b905061473d8382614edd565b6147479087615af1565b6001600160a01b0384166000908152600f6020526040812081815560018101829055600201559550505b5050808061477e90615b7d565b9150506146bd565b506147936010600061549b565b5090565b601154600090815b80821115614865576000601182815481106147ca57634e487b7160e01b600052603260045260246000fd5b60009182526020808320909101546001600160a01b0316808352600f909152604090912060018101548154929350909111156148505761481d82826001015483600001546148189190615b66565b615067565b6148279086615af1565b6001600160a01b0383166000908152600f60205260408120818155600181018290556002015594505b5050808061485d90615b7d565b91505061479f565b506147936011600061549b565b6000610b3082600401836005016151fe565b6000610b30826001018360020184600301615281565b600181015460005b8082111561494f5760008360010182815481106148cf57634e487b7160e01b600052603260045260246000fd5b60009182526020808320909101546001600160a01b0316808352600287018252604080842054600c9093528320805491945091929061490f908490615b66565b90915550506001600160a01b031660009081526002840160209081526040808320839055600386019091528120558061494781615b7d565b9150506148a2565b5050600481015460005b80821115614a2b57600083600401828154811061498657634e487b7160e01b600052603260045260246000fd5b60009182526020808320909101546001600160a01b0316808352600587018252604080842054600d909352832080549194509192906149c6908490615b66565b90915550506001600160a01b03166000908152600584016020908152604080832083905560068601909152902080547fffffffffffffffffffffffffffffffffffffffffffffffffffffffffffffff0016905580614a2381615b7d565b915050614959565b50614a3a60018301600061549b565b610aa960048301600061549b565b600080614a5483614884565b90506000614a6184614872565b905060085482614a719190615b29565b6064600854614a809190615b66565b614a8a9083615b29565b1015949350505050565b600080614ad2606660009081526020527f422cccb7cea5c0e46f340bb7b21b81debac329f72e31669c20ff0f3a05cc2b5b546001600160a01b031690565b6040517f14189db20000000000000000000000000000000000000000000000000000000081526001600160a01b03878116600483015291909116906314189db29060240160206040518083038186803b158015614b2e57600080fd5b505afa158015614b42573d6000803e3d6000fd5b505050506040513d601f19601f82011682018060405250810190614b669190615911565b6001600160a01b03861660009081526020859052604081205491925090614b8d8387615b29565b614b979190615b09565b9050611b2e8682610aad565b6000806000614bb28585614db6565b60408051606084811b7fffffffffffffffffffffffffffffffffffffffff0000000000000000000000009081166020808501919091529185901b166034830152825160288184030181526048830190935282519201919091207fff0000000000000000000000000000000000000000000000000000000000000060688301527fc0aee478e3658e2610c5f7a4a2e1777ce9e4f2ac0000000000000000000000006069830152607d8201527fe18a34eb0e04b04f7a0ac29a6e80748dca96319b42c54d679cb821dca90c6303609d820152919350915060bd015b604080517fffffffffffffffffffffffffffffffffffffffffffffffffffffffffffffffe0818403018152919052805160209091012095945050505050565b6000806000614cd98585614db6565b60408051606084811b7fffffffffffffffffffffffffffffffffffffffff0000000000000000000000009081166020808501919091529185901b166034830152825160288184030181526048830190935282519201919091207fff0000000000000000000000000000000000000000000000000000000000000060688301527f5c69bee701ef814a2b6a3edd4b1652cb9cc5aa6f0000000000000000000000006069830152607d8201527f96e8ac4277198ff8b6f785478aa9a39f403cb768dd02cbee326c3e7da348845f609d820152919350915060bd01614c8b565b600080826001600160a01b0316846001600160a01b03161415614e1b5760405162461bcd60e51b815260206004820152601260248201527f4964656e746963616c20616464726573732100000000000000000000000000006044820152606401610bab565b826001600160a01b0316846001600160a01b031610614e3b578284614e3e565b83835b90925090506001600160a01b038216614e995760405162461bcd60e51b815260206004820152600d60248201527f5a65726f206164647265737321000000000000000000000000000000000000006044820152606401610bab565b9250929050565b600080614eac83614884565b90506000614eb984614872565b905081600954614ec99190615b29565b614ed4826064615b29565b10949350505050565b60007f00000000000000000000000000000000000000000000000000000000000000006001600160a01b0316836001600160a01b03161415614f20575080610b30565b6001600160a01b038316600090815260026020526040812090614f74606760009081526020527f682158d08466d11c566d5712d4396197fdd67e65be71d83c97ef719ec468867b546001600160a01b031690565b6001600160a01b031663351ae6108560008560030154866002016040518563ffffffff1660e01b8152600401614fad9493929190615a59565b600060405180830381600087803b158015614fc757600080fd5b505af1158015614fdb573d6000803e3d6000fd5b505050506040513d6000823e601f3d9081017fffffffffffffffffffffffffffffffffffffffffffffffffffffffffffffffe0168201604052615021919081019061579f565b9050600081600183516150349190615b66565b8151811061505257634e487b7160e01b600052603260045260246000fd5b60200260200101519050809350505050610b30565b60007f00000000000000000000000000000000000000000000000000000000000000006001600160a01b0316836001600160a01b031614156150aa575080610b30565b6001600160a01b0383166000908152600260205260408120906150fe606760009081526020527f682158d08466d11c566d5712d4396197fdd67e65be71d83c97ef719ec468867b546001600160a01b031690565b6001600160a01b03166353d7ff9f857fffffffffffffffffffffffffffffffffffffffffffffffffffffffffffffffff8560030154866004016040518563ffffffff1660e01b81526004016151569493929190615a59565b600060405180830381600087803b15801561517057600080fd5b505af1158015615184573d6000803e3d6000fd5b505050506040513d6000823e601f3d9081017fffffffffffffffffffffffffffffffffffffffffffffffffffffffffffffffe01682016040526151ca919081019061579f565b9050806000815181106151ed57634e487b7160e01b600052603260045260246000fd5b602002602001015192505050610b30565b8154600090815b81811015613f2957600085828154811061522f57634e487b7160e01b600052603260045260246000fd5b60009182526020808320909101546001600160a01b031680835290879052604090912054909150615261908290615305565b61526b9085615af1565b935050808061527990615b7d565b915050615205565b8254600090815b8181101561196f5760008682815481106152b257634e487b7160e01b600052603260045260246000fd5b60009182526020808320909101546001600160a01b0316808352908890526040909120549091506152e590829087615313565b6152ef9085615af1565b93505080806152fd90615b7d565b915050615288565b6000611b33838360006119f6565b600080615351606660009081526020527f422cccb7cea5c0e46f340bb7b21b81debac329f72e31669c20ff0f3a05cc2b5b546001600160a01b031690565b6040517f14189db20000000000000000000000000000000000000000000000000000000081526001600160a01b03878116600483015291909116906314189db29060240160206040518083038186803b1580156153ad57600080fd5b505afa1580156153c1573d6000803e3d6000fd5b505050506040513d601f19601f820116820180604052508101906153e59190615911565b6001600160a01b0386166000908152602085905260408120549192509061540c8387615b29565b6154169190615b09565b9050611b2e8682615305565b82805482825590600052602060002090810192821561548f579160200282015b8281111561548f57825182547fffffffffffffffffffffffff0000000000000000000000000000000000000000166001600160a01b03909116178255602090920191600190910190615442565b506147939291506154bc565b50805460008255906000526020600020908101906154b991906154bc565b50565b5b8082111561479357600081556001016154bd565b600082601f8301126154e1578081fd5b813560206154f66154f183615acd565b615a7e565b80838252828201915082860187848660051b8901011115615515578586fd5b855b8581101561553c57813561552a81615be2565b84529284019290840190600101615517565b5090979650505050505050565b80516dffffffffffffffffffffffffffff81168114610df657600080fd5b600060208284031215615578578081fd5b8135611b3381615be2565b600060208284031215615594578081fd5b8151611b3381615be2565b600080604083850312156155b1578081fd5b82356155bc81615be2565b915060208301356155cc81615be2565b809150509250929050565b600080600080600060a086880312156155ee578081fd5b85356155f981615be2565b9450602086013561560981615be2565b9350604086013561561981615be2565b94979396509394606081013594506080013592915050565b600080600060608486031215615645578283fd5b833561565081615be2565b9250602084013561566081615be2565b929592945050506040919091013590565b600080600080600060a08688031215615688578081fd5b853561569381615be2565b945060208601356156a381615be2565b93506040860135925060608601356156ba81615be2565b949793965091946080013592915050565b600080604083850312156156dd578182fd5b82356156e881615be2565b946020939093013593505050565b60008060408385031215615708578182fd5b825161571381615be2565b6020939093015192949293505050565b600080600060608486031215615737578081fd5b833561574281615be2565b925060208401359150604084013561575981615bf7565b809150509250925092565b600060208284031215615775578081fd5b813567ffffffffffffffff81111561578b578182fd5b615797848285016154d1565b949350505050565b600060208083850312156157b1578182fd5b825167ffffffffffffffff8111156157c7578283fd5b8301601f810185136157d7578283fd5b80516157e56154f182615acd565b80828252848201915084840188868560051b8701011115615804578687fd5b8694505b83851015615826578051835260019490940193918501918501615808565b50979650505050505050565b600060208284031215615843578081fd5b8151611b3381615bf7565b60008060408385031215615860578182fd5b82359150602083013567ffffffffffffffff81111561587d578182fd5b615889858286016154d1565b9150509250929050565b6000806000606084860312156158a7578081fd5b6158b084615549565b92506158be60208501615549565b9150604084015163ffffffff81168114615759578182fd5b600080604083850312156158e8578182fd5b823561ffff811681146156e8578283fd5b60006020828403121561590a578081fd5b5035919050565b600060208284031215615922578081fd5b5051919050565b6000806040838503121561593b578182fd5b8235915060208301356155cc81615be2565b6000806040838503121561595f578182fd5b505080516020909101519092909150565b600080600060608486031215615984578081fd5b505081359360208301359350604090920135919050565b6000815480845260208085019450838352808320835b838110156159d65781546001600160a01b0316875295820195600191820191016159b1565b509495945050505050565b604080825283519082018190526000906020906060840190828701845b82811015615a255781516001600160a01b03168452602084019350908401906001016159fe565b50505083810382850152845180825285830191830190845b8181101561553c57835183529284019291840191600101615a3d565b600085825284602083015283604083015260806060830152612e50608083018461599b565b604051601f82017fffffffffffffffffffffffffffffffffffffffffffffffffffffffffffffffe016810167ffffffffffffffff81118282101715615ac557615ac5615bcc565b604052919050565b600067ffffffffffffffff821115615ae757615ae7615bcc565b5060051b60200190565b60008219821115615b0457615b04615bb6565b500190565b600082615b2457634e487b7160e01b81526012600452602481fd5b500490565b6000817fffffffffffffffffffffffffffffffffffffffffffffffffffffffffffffffff0483118215151615615b6157615b61615bb6565b500290565b600082821015615b7857615b78615bb6565b500390565b60007fffffffffffffffffffffffffffffffffffffffffffffffffffffffffffffffff821415615baf57615baf615bb6565b5060010190565b634e487b7160e01b600052601160045260246000fd5b634e487b7160e01b600052604160045260246000fd5b6001600160a01b03811681146154b957600080fd5b80151581146154b957600080fdfea2646970667358221220444a1908b7f6feca5af90e91964520d885945bd3ecf37bb1250599395dbed1c264736f6c63430008030033",
  "devdoc": {
    "kind": "dev",
    "methods": {
      "canBeLiquidated(address)": {
        "details": "can this trader be liquidated?"
      },
      "getBorrowAmounts(address)": {
        "details": "view function to display account borrowing state"
      },
      "getHoldingAmounts(address)": {
        "details": "view function to display account held assets state"
      },
      "registerBorrow(address,address,uint256)": {
        "details": "gets called by router to affirm borrowing event"
      },
      "registerDeposit(address,address,uint256)": {
        "details": "gets called by router to affirm a deposit to an account"
      },
      "registerLiquidation(address)": {
        "details": "can get called by router to register the dissolution of an account"
      },
      "registerOvercollateralizedBorrow(address,address,uint256,address,uint256)": {
        "details": "overcollateralized borrowing on a cross margin account, called by router"
      },
      "registerTradeAndBorrow(address,address,address,uint256,uint256)": {
        "details": "gets called by router to register a trade and borrow and extinguish as necessary"
      },
      "registerWithdrawal(address,address,uint256)": {
        "details": "gets called by router to affirm withdrawal of tokens from account"
      },
      "setCoolingOffPeriod(uint256)": {
        "details": "setter for cooling off period for withdrawing funds after deposit"
      },
      "setLeveragePercent(uint256)": {
        "details": "admin function to set leverage"
      },
      "setLiquidationThresholdPercent(uint256)": {
        "details": "admin function to set liquidation threshold"
      },
      "setTokenCap(address,uint256)": {
        "details": "admin function to set the token cap"
      },
      "viewBalanceInToken(address,address)": {
        "details": "currently holding in this token"
      },
      "viewHoldingsInPeg(address)": {
        "details": "total of assets of account, expressed in reference currency"
      },
      "viewLoanInPeg(address)": {
        "details": "view function to get loan amount in peg"
      }
    },
    "version": 1
  },
  "userdoc": {
    "kind": "user",
    "methods": {
      "addVolatilitySetting(uint256,uint256,uint256)": {
        "notice": "Add a new volatility setting"
      },
      "chooseVolatilitySetting(uint256)": {
        "notice": "Choose a volatitlity setting"
      },
      "disburseLiqStakeAttacks(address[])": {
        "notice": "Disburse liquidity stake attacks"
      },
      "liquidate(address[])": {
        "notice": "called by maintenance stakers to liquidate accounts below liquidation threshold"
      },
      "priceUpdateWindow()": {
        "notice": "update window in blocks"
      },
      "setFailureThreshold(uint256)": {
        "notice": "Set failure threshold"
      },
      "setLiqStakeAttackWindow(uint256)": {
        "notice": "Set liquidity stake attack window"
      },
      "setLiquidationPath(bytes32,address[])": {
        "notice": "add path from token to current liquidation peg"
      },
      "setMaintainerCutPercent(uint256)": {
        "notice": "Set maintainer's percent cut"
      },
      "setPriceUpdateWindow(uint16,uint256)": {
        "notice": "Set window for price updates"
      },
      "setUpdateRate(uint256)": {
        "notice": "Set rate for updates"
      },
      "viewCurrentPriceInPeg(address,uint256)": {
        "notice": "Get view of current price of token in peg"
      }
    },
    "version": 1
  },
  "storageLayout": {
    "storage": [
      {
        "astId": 12076,
        "contract": "contracts/CrossMarginTrading.sol:CrossMarginTrading",
        "label": "mainCharacterCache",
        "offset": 0,
        "slot": "0",
        "type": "t_mapping(t_uint256,t_address)"
      },
      {
        "astId": 12082,
        "contract": "contracts/CrossMarginTrading.sol:CrossMarginTrading",
        "label": "roleCache",
        "offset": 0,
        "slot": "1",
        "type": "t_mapping(t_address,t_mapping(t_uint256,t_bool))"
      },
      {
        "astId": 11123,
        "contract": "contracts/CrossMarginTrading.sol:CrossMarginTrading",
        "label": "tokenPrices",
        "offset": 0,
        "slot": "2",
        "type": "t_mapping(t_address,t_struct(TokenPrice)11094_storage)"
      },
      {
        "astId": 11130,
        "contract": "contracts/CrossMarginTrading.sol:CrossMarginTrading",
        "label": "pairPrices",
        "offset": 0,
        "slot": "3",
        "type": "t_mapping(t_address,t_mapping(t_address,t_struct(PairPrice)11108_storage))"
      },
      {
        "astId": 11134,
        "contract": "contracts/CrossMarginTrading.sol:CrossMarginTrading",
        "label": "priceUpdateWindow",
        "offset": 0,
        "slot": "4",
        "type": "t_uint256"
      },
      {
        "astId": 11137,
        "contract": "contracts/CrossMarginTrading.sol:CrossMarginTrading",
        "label": "voluntaryUpdateWindow",
        "offset": 0,
        "slot": "5",
        "type": "t_uint256"
      },
      {
        "astId": 11140,
        "contract": "contracts/CrossMarginTrading.sol:CrossMarginTrading",
        "label": "UPDATE_RATE_PERMIL",
        "offset": 0,
        "slot": "6",
        "type": "t_uint256"
      },
      {
        "astId": 11144,
        "contract": "contracts/CrossMarginTrading.sol:CrossMarginTrading",
        "label": "volatilitySettings",
        "offset": 0,
        "slot": "7",
        "type": "t_array(t_struct(VolatilitySetting)11101_storage)dyn_storage"
      },
      {
        "astId": 2585,
        "contract": "contracts/CrossMarginTrading.sol:CrossMarginTrading",
        "label": "leveragePercent",
        "offset": 0,
        "slot": "8",
        "type": "t_uint256"
      },
      {
        "astId": 2589,
        "contract": "contracts/CrossMarginTrading.sol:CrossMarginTrading",
        "label": "liquidationThresholdPercent",
        "offset": 0,
        "slot": "9",
        "type": "t_uint256"
      },
      {
        "astId": 2595,
        "contract": "contracts/CrossMarginTrading.sol:CrossMarginTrading",
        "label": "marginAccounts",
        "offset": 0,
        "slot": "10",
        "type": "t_mapping(t_address,t_struct(CrossMarginAccount)2577_storage)"
      },
      {
        "astId": 2600,
        "contract": "contracts/CrossMarginTrading.sol:CrossMarginTrading",
        "label": "tokenCaps",
        "offset": 0,
        "slot": "11",
        "type": "t_mapping(t_address,t_uint256)"
      },
      {
        "astId": 2605,
        "contract": "contracts/CrossMarginTrading.sol:CrossMarginTrading",
        "label": "totalShort",
        "offset": 0,
        "slot": "12",
        "type": "t_mapping(t_address,t_uint256)"
      },
      {
        "astId": 2610,
        "contract": "contracts/CrossMarginTrading.sol:CrossMarginTrading",
        "label": "totalLong",
        "offset": 0,
        "slot": "13",
        "type": "t_mapping(t_address,t_uint256)"
      },
      {
        "astId": 2613,
        "contract": "contracts/CrossMarginTrading.sol:CrossMarginTrading",
        "label": "coolingOffPeriod",
        "offset": 0,
        "slot": "14",
        "type": "t_uint256"
      },
      {
        "astId": 3504,
        "contract": "contracts/CrossMarginTrading.sol:CrossMarginTrading",
        "label": "liquidationAmounts",
        "offset": 0,
        "slot": "15",
        "type": "t_mapping(t_address,t_struct(Liquidation)3490_storage)"
      },
      {
        "astId": 3507,
        "contract": "contracts/CrossMarginTrading.sol:CrossMarginTrading",
        "label": "sellTokens",
        "offset": 0,
        "slot": "16",
        "type": "t_array(t_address)dyn_storage"
      },
      {
        "astId": 3510,
        "contract": "contracts/CrossMarginTrading.sol:CrossMarginTrading",
        "label": "buyTokens",
        "offset": 0,
        "slot": "17",
        "type": "t_array(t_address)dyn_storage"
      },
      {
        "astId": 3513,
        "contract": "contracts/CrossMarginTrading.sol:CrossMarginTrading",
        "label": "tradersToLiquidate",
        "offset": 0,
        "slot": "18",
        "type": "t_array(t_address)dyn_storage"
      },
      {
        "astId": 3517,
        "contract": "contracts/CrossMarginTrading.sol:CrossMarginTrading",
        "label": "maintenanceFailures",
        "offset": 0,
        "slot": "19",
        "type": "t_mapping(t_address,t_uint256)"
      },
      {
        "astId": 3522,
        "contract": "contracts/CrossMarginTrading.sol:CrossMarginTrading",
        "label": "stakeAttackRecords",
        "offset": 0,
        "slot": "20",
        "type": "t_mapping(t_address,t_struct(AccountLiqRecord)3499_storage)"
      },
      {
        "astId": 3525,
        "contract": "contracts/CrossMarginTrading.sol:CrossMarginTrading",
        "label": "avgLiquidationPerCall",
        "offset": 0,
        "slot": "21",
        "type": "t_uint256"
      },
      {
        "astId": 3528,
        "contract": "contracts/CrossMarginTrading.sol:CrossMarginTrading",
        "label": "liqStakeAttackWindow",
        "offset": 0,
        "slot": "22",
        "type": "t_uint256"
      },
      {
        "astId": 3531,
        "contract": "contracts/CrossMarginTrading.sol:CrossMarginTrading",
        "label": "MAINTAINER_CUT_PERCENT",
        "offset": 0,
        "slot": "23",
        "type": "t_uint256"
      },
      {
        "astId": 3534,
        "contract": "contracts/CrossMarginTrading.sol:CrossMarginTrading",
        "label": "failureThreshold",
        "offset": 0,
        "slot": "24",
        "type": "t_uint256"
      }
    ],
    "types": {
      "t_address": {
        "encoding": "inplace",
        "label": "address",
        "numberOfBytes": "20"
      },
      "t_array(t_address)dyn_storage": {
        "base": "t_address",
        "encoding": "dynamic_array",
        "label": "address[]",
        "numberOfBytes": "32"
      },
      "t_array(t_struct(VolatilitySetting)11101_storage)dyn_storage": {
        "base": "t_struct(VolatilitySetting)11101_storage",
        "encoding": "dynamic_array",
        "label": "struct VolatilitySetting[]",
        "numberOfBytes": "32"
      },
      "t_bool": {
        "encoding": "inplace",
        "label": "bool",
        "numberOfBytes": "1"
      },
      "t_bytes32": {
        "encoding": "inplace",
        "label": "bytes32",
        "numberOfBytes": "32"
      },
      "t_mapping(t_address,t_bool)": {
        "encoding": "mapping",
        "key": "t_address",
        "label": "mapping(address => bool)",
        "numberOfBytes": "32",
        "value": "t_bool"
      },
      "t_mapping(t_address,t_mapping(t_address,t_struct(PairPrice)11108_storage))": {
        "encoding": "mapping",
        "key": "t_address",
        "label": "mapping(address => mapping(address => struct PairPrice))",
        "numberOfBytes": "32",
        "value": "t_mapping(t_address,t_struct(PairPrice)11108_storage)"
      },
      "t_mapping(t_address,t_mapping(t_uint256,t_bool))": {
        "encoding": "mapping",
        "key": "t_address",
        "label": "mapping(address => mapping(uint256 => bool))",
        "numberOfBytes": "32",
        "value": "t_mapping(t_uint256,t_bool)"
      },
      "t_mapping(t_address,t_struct(AccountLiqRecord)3499_storage)": {
        "encoding": "mapping",
        "key": "t_address",
        "label": "mapping(address => struct CrossMarginLiquidation.AccountLiqRecord)",
        "numberOfBytes": "32",
        "value": "t_struct(AccountLiqRecord)3499_storage"
      },
      "t_mapping(t_address,t_struct(CrossMarginAccount)2577_storage)": {
        "encoding": "mapping",
        "key": "t_address",
        "label": "mapping(address => struct CrossMarginAccount)",
        "numberOfBytes": "32",
        "value": "t_struct(CrossMarginAccount)2577_storage"
      },
      "t_mapping(t_address,t_struct(Liquidation)3490_storage)": {
        "encoding": "mapping",
        "key": "t_address",
        "label": "mapping(address => struct CrossMarginLiquidation.Liquidation)",
        "numberOfBytes": "32",
        "value": "t_struct(Liquidation)3490_storage"
      },
      "t_mapping(t_address,t_struct(PairPrice)11108_storage)": {
        "encoding": "mapping",
        "key": "t_address",
        "label": "mapping(address => struct PairPrice)",
        "numberOfBytes": "32",
        "value": "t_struct(PairPrice)11108_storage"
      },
      "t_mapping(t_address,t_struct(TokenPrice)11094_storage)": {
        "encoding": "mapping",
        "key": "t_address",
        "label": "mapping(address => struct TokenPrice)",
        "numberOfBytes": "32",
        "value": "t_struct(TokenPrice)11094_storage"
      },
      "t_mapping(t_address,t_uint256)": {
        "encoding": "mapping",
        "key": "t_address",
        "label": "mapping(address => uint256)",
        "numberOfBytes": "32",
        "value": "t_uint256"
      },
      "t_mapping(t_uint256,t_address)": {
        "encoding": "mapping",
        "key": "t_uint256",
        "label": "mapping(uint256 => address)",
        "numberOfBytes": "32",
        "value": "t_address"
      },
      "t_mapping(t_uint256,t_bool)": {
        "encoding": "mapping",
        "key": "t_uint256",
        "label": "mapping(uint256 => bool)",
        "numberOfBytes": "32",
        "value": "t_bool"
      },
      "t_struct(AccountLiqRecord)3499_storage": {
        "encoding": "inplace",
        "label": "struct CrossMarginLiquidation.AccountLiqRecord",
        "members": [
          {
            "astId": 3492,
            "contract": "contracts/CrossMarginTrading.sol:CrossMarginTrading",
            "label": "blockNum",
            "offset": 0,
            "slot": "0",
            "type": "t_uint256"
          },
          {
            "astId": 3494,
            "contract": "contracts/CrossMarginTrading.sol:CrossMarginTrading",
            "label": "loser",
            "offset": 0,
            "slot": "1",
            "type": "t_address"
          },
          {
            "astId": 3496,
            "contract": "contracts/CrossMarginTrading.sol:CrossMarginTrading",
            "label": "amount",
            "offset": 0,
            "slot": "2",
            "type": "t_uint256"
          },
          {
            "astId": 3498,
            "contract": "contracts/CrossMarginTrading.sol:CrossMarginTrading",
            "label": "stakeAttacker",
            "offset": 0,
            "slot": "3",
            "type": "t_address"
          }
        ],
        "numberOfBytes": "128"
      },
      "t_struct(CrossMarginAccount)2577_storage": {
        "encoding": "inplace",
        "label": "struct CrossMarginAccount",
        "members": [
          {
            "astId": 2554,
            "contract": "contracts/CrossMarginTrading.sol:CrossMarginTrading",
            "label": "lastDepositBlock",
            "offset": 0,
            "slot": "0",
            "type": "t_uint256"
          },
          {
            "astId": 2557,
            "contract": "contracts/CrossMarginTrading.sol:CrossMarginTrading",
            "label": "borrowTokens",
            "offset": 0,
            "slot": "1",
            "type": "t_array(t_address)dyn_storage"
          },
          {
            "astId": 2561,
            "contract": "contracts/CrossMarginTrading.sol:CrossMarginTrading",
            "label": "borrowed",
            "offset": 0,
            "slot": "2",
            "type": "t_mapping(t_address,t_uint256)"
          },
          {
            "astId": 2565,
            "contract": "contracts/CrossMarginTrading.sol:CrossMarginTrading",
            "label": "borrowedYieldQuotientsFP",
            "offset": 0,
            "slot": "3",
            "type": "t_mapping(t_address,t_uint256)"
          },
          {
            "astId": 2568,
            "contract": "contracts/CrossMarginTrading.sol:CrossMarginTrading",
            "label": "holdingTokens",
            "offset": 0,
            "slot": "4",
            "type": "t_array(t_address)dyn_storage"
          },
          {
            "astId": 2572,
            "contract": "contracts/CrossMarginTrading.sol:CrossMarginTrading",
            "label": "holdings",
            "offset": 0,
            "slot": "5",
            "type": "t_mapping(t_address,t_uint256)"
          },
          {
            "astId": 2576,
            "contract": "contracts/CrossMarginTrading.sol:CrossMarginTrading",
            "label": "holdsToken",
            "offset": 0,
            "slot": "6",
            "type": "t_mapping(t_address,t_bool)"
          }
        ],
        "numberOfBytes": "224"
      },
      "t_struct(Liquidation)3490_storage": {
        "encoding": "inplace",
        "label": "struct CrossMarginLiquidation.Liquidation",
        "members": [
          {
            "astId": 3485,
            "contract": "contracts/CrossMarginTrading.sol:CrossMarginTrading",
            "label": "buy",
            "offset": 0,
            "slot": "0",
            "type": "t_uint256"
          },
          {
            "astId": 3487,
            "contract": "contracts/CrossMarginTrading.sol:CrossMarginTrading",
            "label": "sell",
            "offset": 0,
            "slot": "1",
            "type": "t_uint256"
          },
          {
            "astId": 3489,
            "contract": "contracts/CrossMarginTrading.sol:CrossMarginTrading",
            "label": "blockNum",
            "offset": 0,
            "slot": "2",
            "type": "t_uint256"
          }
        ],
        "numberOfBytes": "96"
      },
      "t_struct(PairPrice)11108_storage": {
        "encoding": "inplace",
        "label": "struct PairPrice",
        "members": [
          {
            "astId": 11103,
            "contract": "contracts/CrossMarginTrading.sol:CrossMarginTrading",
            "label": "cumulative",
            "offset": 0,
            "slot": "0",
            "type": "t_uint256"
          },
          {
            "astId": 11105,
            "contract": "contracts/CrossMarginTrading.sol:CrossMarginTrading",
            "label": "lastUpdated",
            "offset": 0,
            "slot": "1",
            "type": "t_uint256"
          },
          {
            "astId": 11107,
            "contract": "contracts/CrossMarginTrading.sol:CrossMarginTrading",
            "label": "priceFP",
            "offset": 0,
            "slot": "2",
            "type": "t_uint256"
          }
        ],
        "numberOfBytes": "96"
      },
      "t_struct(TokenPrice)11094_storage": {
        "encoding": "inplace",
        "label": "struct TokenPrice",
        "members": [
          {
            "astId": 11081,
            "contract": "contracts/CrossMarginTrading.sol:CrossMarginTrading",
            "label": "lastUpdated",
            "offset": 0,
            "slot": "0",
            "type": "t_uint256"
          },
          {
            "astId": 11083,
            "contract": "contracts/CrossMarginTrading.sol:CrossMarginTrading",
            "label": "priceFP",
            "offset": 0,
            "slot": "1",
            "type": "t_uint256"
          },
          {
            "astId": 11086,
            "contract": "contracts/CrossMarginTrading.sol:CrossMarginTrading",
            "label": "liquidationTokens",
            "offset": 0,
            "slot": "2",
            "type": "t_array(t_address)dyn_storage"
          },
          {
            "astId": 11088,
            "contract": "contracts/CrossMarginTrading.sol:CrossMarginTrading",
            "label": "amms",
            "offset": 0,
            "slot": "3",
            "type": "t_bytes32"
          },
          {
            "astId": 11091,
            "contract": "contracts/CrossMarginTrading.sol:CrossMarginTrading",
            "label": "inverseLiquidationTokens",
            "offset": 0,
            "slot": "4",
            "type": "t_array(t_address)dyn_storage"
          },
          {
            "astId": 11093,
            "contract": "contracts/CrossMarginTrading.sol:CrossMarginTrading",
            "label": "inverseAmms",
            "offset": 0,
            "slot": "5",
            "type": "t_bytes32"
          }
        ],
        "numberOfBytes": "192"
      },
      "t_struct(VolatilitySetting)11101_storage": {
        "encoding": "inplace",
        "label": "struct VolatilitySetting",
        "members": [
          {
            "astId": 11096,
            "contract": "contracts/CrossMarginTrading.sol:CrossMarginTrading",
            "label": "priceUpdateWindow",
            "offset": 0,
            "slot": "0",
            "type": "t_uint256"
          },
          {
            "astId": 11098,
            "contract": "contracts/CrossMarginTrading.sol:CrossMarginTrading",
            "label": "updateRatePermil",
            "offset": 0,
            "slot": "1",
            "type": "t_uint256"
          },
          {
            "astId": 11100,
            "contract": "contracts/CrossMarginTrading.sol:CrossMarginTrading",
            "label": "voluntaryUpdateWindow",
            "offset": 0,
            "slot": "2",
            "type": "t_uint256"
          }
        ],
        "numberOfBytes": "96"
      },
      "t_uint256": {
        "encoding": "inplace",
        "label": "uint256",
        "numberOfBytes": "32"
      }
    }
  }
}