{
  "address": "0x64193aA92e7B03E2030370eC7b8d408c5bB05Cc1",
  "abi": [
    {
      "inputs": [
        {
          "internalType": "address",
          "name": "_peg",
          "type": "address"
        },
        {
          "internalType": "address",
          "name": "_roles",
          "type": "address"
        }
      ],
      "stateMutability": "nonpayable",
      "type": "constructor"
    },
    {
      "anonymous": false,
      "inputs": [
        {
          "indexed": false,
          "internalType": "address",
          "name": "account",
          "type": "address"
        }
      ],
      "name": "AccountLiquidated",
      "type": "event"
    },
    {
      "anonymous": false,
      "inputs": [
        {
          "indexed": false,
          "internalType": "uint256",
          "name": "amount",
          "type": "uint256"
        }
      ],
      "name": "LiquidationShortfall",
      "type": "event"
    },
    {
      "inputs": [],
      "name": "MAINTAINER_CUT_PERCENT",
      "outputs": [
        {
          "internalType": "uint256",
          "name": "",
          "type": "uint256"
        }
      ],
      "stateMutability": "view",
      "type": "function"
    },
    {
      "inputs": [],
      "name": "UPDATE_RATE_PERMIL",
      "outputs": [
        {
          "internalType": "uint256",
          "name": "",
          "type": "uint256"
        }
      ],
      "stateMutability": "view",
      "type": "function"
    },
    {
      "inputs": [
        {
          "internalType": "uint256",
          "name": "_priceUpdateWindow",
          "type": "uint256"
        },
        {
          "internalType": "uint256",
          "name": "_updateRatePermil",
          "type": "uint256"
        }
      ],
      "name": "addVolatilitySetting",
      "outputs": [],
      "stateMutability": "nonpayable",
      "type": "function"
    },
    {
      "inputs": [],
      "name": "avgLiquidationPerCall",
      "outputs": [
        {
          "internalType": "uint256",
          "name": "",
          "type": "uint256"
        }
      ],
      "stateMutability": "view",
      "type": "function"
    },
    {
      "inputs": [
        {
          "internalType": "address",
          "name": "trader",
          "type": "address"
        }
      ],
      "name": "canBeLiquidated",
      "outputs": [
        {
          "internalType": "bool",
          "name": "",
          "type": "bool"
        }
      ],
      "stateMutability": "view",
      "type": "function"
    },
    {
      "inputs": [
        {
          "internalType": "uint256",
          "name": "index",
          "type": "uint256"
        }
      ],
      "name": "chooseVolatilitySetting",
      "outputs": [],
      "stateMutability": "nonpayable",
      "type": "function"
    },
    {
      "inputs": [],
      "name": "coolingOffPeriod",
      "outputs": [
        {
          "internalType": "uint256",
          "name": "",
          "type": "uint256"
        }
      ],
      "stateMutability": "view",
      "type": "function"
    },
    {
      "inputs": [
        {
          "internalType": "address[]",
          "name": "liquidatedAccounts",
          "type": "address[]"
        }
      ],
      "name": "disburseLiqStakeAttacks",
      "outputs": [],
      "stateMutability": "nonpayable",
      "type": "function"
    },
    {
      "inputs": [],
      "name": "failureThreshold",
      "outputs": [
        {
          "internalType": "uint256",
          "name": "",
          "type": "uint256"
        }
      ],
      "stateMutability": "view",
      "type": "function"
    },
    {
      "inputs": [
        {
          "internalType": "address",
          "name": "trader",
          "type": "address"
        }
      ],
      "name": "getBorrowAmounts",
      "outputs": [
        {
          "internalType": "address[]",
          "name": "borrowTokens",
          "type": "address[]"
        },
        {
          "internalType": "uint256[]",
          "name": "borrowAmounts",
          "type": "uint256[]"
        }
      ],
      "stateMutability": "view",
      "type": "function"
    },
    {
      "inputs": [
        {
          "internalType": "address",
          "name": "token",
          "type": "address"
        },
        {
          "internalType": "uint256",
          "name": "inAmount",
          "type": "uint256"
        }
      ],
      "name": "getCurrentPriceInPeg",
      "outputs": [
        {
          "internalType": "uint256",
          "name": "",
          "type": "uint256"
        }
      ],
      "stateMutability": "nonpayable",
      "type": "function"
    },
    {
      "inputs": [
        {
          "internalType": "address",
          "name": "trader",
          "type": "address"
        }
      ],
      "name": "getHoldingAmounts",
      "outputs": [
        {
          "internalType": "address[]",
          "name": "holdingTokens",
          "type": "address[]"
        },
        {
          "internalType": "uint256[]",
          "name": "holdingAmounts",
          "type": "uint256[]"
        }
      ],
      "stateMutability": "view",
      "type": "function"
    },
    {
      "inputs": [],
      "name": "leveragePercent",
      "outputs": [
        {
          "internalType": "uint256",
          "name": "",
          "type": "uint256"
        }
      ],
      "stateMutability": "view",
      "type": "function"
    },
    {
      "inputs": [],
      "name": "liqStakeAttackWindow",
      "outputs": [
        {
          "internalType": "uint256",
          "name": "",
          "type": "uint256"
        }
      ],
      "stateMutability": "view",
      "type": "function"
    },
    {
      "inputs": [
        {
          "internalType": "address[]",
          "name": "liquidationCandidates",
          "type": "address[]"
        }
      ],
      "name": "liquidate",
      "outputs": [
        {
          "internalType": "uint256",
          "name": "maintainerCut",
          "type": "uint256"
        }
      ],
      "stateMutability": "nonpayable",
      "type": "function"
    },
    {
      "inputs": [],
      "name": "liquidationThresholdPercent",
      "outputs": [
        {
          "internalType": "uint256",
          "name": "",
          "type": "uint256"
        }
      ],
      "stateMutability": "view",
      "type": "function"
    },
    {
      "inputs": [
        {
          "internalType": "uint256",
          "name": "",
          "type": "uint256"
        }
      ],
      "name": "mainCharacterCache",
      "outputs": [
        {
          "internalType": "address",
          "name": "",
          "type": "address"
        }
      ],
      "stateMutability": "view",
      "type": "function"
    },
    {
      "inputs": [
        {
          "internalType": "address",
          "name": "",
          "type": "address"
        }
      ],
      "name": "maintenanceFailures",
      "outputs": [
        {
          "internalType": "uint256",
          "name": "",
          "type": "uint256"
        }
      ],
      "stateMutability": "view",
      "type": "function"
    },
    {
      "inputs": [],
      "name": "peg",
      "outputs": [
        {
          "internalType": "address",
          "name": "",
          "type": "address"
        }
      ],
      "stateMutability": "view",
      "type": "function"
    },
    {
      "inputs": [],
      "name": "priceUpdateWindow",
      "outputs": [
        {
          "internalType": "uint256",
          "name": "",
          "type": "uint256"
        }
      ],
      "stateMutability": "view",
      "type": "function"
    },
    {
      "inputs": [
        {
          "internalType": "address",
          "name": "trader",
          "type": "address"
        },
        {
          "internalType": "address",
          "name": "borrowToken",
          "type": "address"
        },
        {
          "internalType": "uint256",
          "name": "borrowAmount",
          "type": "uint256"
        }
      ],
      "name": "registerBorrow",
      "outputs": [],
      "stateMutability": "nonpayable",
      "type": "function"
    },
    {
      "inputs": [
        {
          "internalType": "address",
          "name": "trader",
          "type": "address"
        },
        {
          "internalType": "address",
          "name": "token",
          "type": "address"
        },
        {
          "internalType": "uint256",
          "name": "depositAmount",
          "type": "uint256"
        }
      ],
      "name": "registerDeposit",
      "outputs": [
        {
          "internalType": "uint256",
          "name": "extinguishableDebt",
          "type": "uint256"
        }
      ],
      "stateMutability": "nonpayable",
      "type": "function"
    },
    {
      "inputs": [
        {
          "internalType": "address",
          "name": "trader",
          "type": "address"
        }
      ],
      "name": "registerLiquidation",
      "outputs": [],
      "stateMutability": "nonpayable",
      "type": "function"
    },
    {
      "inputs": [
        {
          "internalType": "address",
          "name": "trader",
          "type": "address"
        },
        {
          "internalType": "address",
          "name": "depositToken",
          "type": "address"
        },
        {
          "internalType": "uint256",
          "name": "depositAmount",
          "type": "uint256"
        },
        {
          "internalType": "address",
          "name": "borrowToken",
          "type": "address"
        },
        {
          "internalType": "uint256",
          "name": "withdrawAmount",
          "type": "uint256"
        }
      ],
      "name": "registerOvercollateralizedBorrow",
      "outputs": [],
      "stateMutability": "nonpayable",
      "type": "function"
    },
    {
      "inputs": [
        {
          "internalType": "address",
          "name": "trader",
          "type": "address"
        },
        {
          "internalType": "address",
          "name": "tokenFrom",
          "type": "address"
        },
        {
          "internalType": "address",
          "name": "tokenTo",
          "type": "address"
        },
        {
          "internalType": "uint256",
          "name": "inAmount",
          "type": "uint256"
        },
        {
          "internalType": "uint256",
          "name": "outAmount",
          "type": "uint256"
        }
      ],
      "name": "registerTradeAndBorrow",
      "outputs": [
        {
          "internalType": "uint256",
          "name": "extinguishableDebt",
          "type": "uint256"
        },
        {
          "internalType": "uint256",
          "name": "borrowAmount",
          "type": "uint256"
        }
      ],
      "stateMutability": "nonpayable",
      "type": "function"
    },
    {
      "inputs": [
        {
          "internalType": "address",
          "name": "trader",
          "type": "address"
        },
        {
          "internalType": "address",
          "name": "withdrawToken",
          "type": "address"
        },
        {
          "internalType": "uint256",
          "name": "withdrawAmount",
          "type": "uint256"
        }
      ],
      "name": "registerWithdrawal",
      "outputs": [],
      "stateMutability": "nonpayable",
      "type": "function"
    },
    {
      "inputs": [
        {
          "internalType": "address",
          "name": "",
          "type": "address"
        },
        {
          "internalType": "uint256",
          "name": "",
          "type": "uint256"
        }
      ],
      "name": "roleCache",
      "outputs": [
        {
          "internalType": "bool",
          "name": "",
          "type": "bool"
        }
      ],
      "stateMutability": "view",
      "type": "function"
    },
    {
      "inputs": [],
      "name": "roles",
      "outputs": [
        {
          "internalType": "contract Roles",
          "name": "",
          "type": "address"
        }
      ],
      "stateMutability": "view",
      "type": "function"
    },
    {
      "inputs": [
        {
          "internalType": "uint256",
          "name": "blocks",
          "type": "uint256"
        }
      ],
      "name": "setCoolingOffPeriod",
      "outputs": [],
      "stateMutability": "nonpayable",
      "type": "function"
    },
    {
      "inputs": [
        {
          "internalType": "uint256",
          "name": "threshFactor",
          "type": "uint256"
        }
      ],
      "name": "setFailureThreshold",
      "outputs": [],
      "stateMutability": "nonpayable",
      "type": "function"
    },
    {
      "inputs": [
        {
          "internalType": "uint256",
          "name": "_leveragePercent",
          "type": "uint256"
        }
      ],
      "name": "setLeveragePercent",
      "outputs": [],
      "stateMutability": "nonpayable",
      "type": "function"
    },
    {
      "inputs": [
        {
          "internalType": "uint256",
          "name": "window",
          "type": "uint256"
        }
      ],
      "name": "setLiqStakeAttackWindow",
      "outputs": [],
      "stateMutability": "nonpayable",
      "type": "function"
    },
    {
      "inputs": [
        {
          "internalType": "bytes32",
          "name": "amms",
          "type": "bytes32"
        },
        {
          "internalType": "address[]",
          "name": "tokens",
          "type": "address[]"
        }
      ],
      "name": "setLiquidationPath",
      "outputs": [],
      "stateMutability": "nonpayable",
      "type": "function"
    },
    {
      "inputs": [
        {
          "internalType": "uint256",
          "name": "threshold",
          "type": "uint256"
        }
      ],
      "name": "setLiquidationThresholdPercent",
      "outputs": [],
      "stateMutability": "nonpayable",
      "type": "function"
    },
    {
      "inputs": [
        {
          "internalType": "uint256",
          "name": "cut",
          "type": "uint256"
        }
      ],
      "name": "setMaintainerCutPercent",
      "outputs": [],
      "stateMutability": "nonpayable",
      "type": "function"
    },
    {
      "inputs": [
        {
          "internalType": "uint16",
          "name": "window",
          "type": "uint16"
        }
      ],
      "name": "setPriceUpdateWindow",
      "outputs": [],
      "stateMutability": "nonpayable",
      "type": "function"
    },
    {
      "inputs": [
        {
          "internalType": "address",
          "name": "token",
          "type": "address"
        },
        {
          "internalType": "uint256",
          "name": "cap",
          "type": "uint256"
        }
      ],
      "name": "setTokenCap",
      "outputs": [],
      "stateMutability": "nonpayable",
      "type": "function"
    },
    {
      "inputs": [
        {
          "internalType": "uint256",
          "name": "rate",
          "type": "uint256"
        }
      ],
      "name": "setUpdateRate",
      "outputs": [],
      "stateMutability": "nonpayable",
      "type": "function"
    },
    {
      "inputs": [
        {
          "internalType": "address",
          "name": "",
          "type": "address"
        }
      ],
      "name": "stakeAttackRecords",
      "outputs": [
        {
          "internalType": "uint256",
          "name": "blockNum",
          "type": "uint256"
        },
        {
          "internalType": "address",
          "name": "loser",
          "type": "address"
        },
        {
          "internalType": "uint256",
          "name": "amount",
          "type": "uint256"
        },
        {
          "internalType": "address",
          "name": "stakeAttacker",
          "type": "address"
        }
      ],
      "stateMutability": "view",
      "type": "function"
    },
    {
      "inputs": [
        {
          "internalType": "address",
          "name": "",
          "type": "address"
        }
      ],
      "name": "tokenCaps",
      "outputs": [
        {
          "internalType": "uint256",
          "name": "",
          "type": "uint256"
        }
      ],
      "stateMutability": "view",
      "type": "function"
    },
    {
      "inputs": [
        {
          "internalType": "address",
          "name": "",
          "type": "address"
        }
      ],
      "name": "tokenPrices",
      "outputs": [
        {
          "internalType": "uint256",
          "name": "blockLastUpdated",
          "type": "uint256"
        },
        {
          "internalType": "uint256",
          "name": "tokenPerRefAmount",
          "type": "uint256"
        },
        {
          "internalType": "bytes32",
          "name": "amms",
          "type": "bytes32"
        },
        {
          "internalType": "bytes32",
          "name": "inverseAmms",
          "type": "bytes32"
        }
      ],
      "stateMutability": "view",
      "type": "function"
    },
    {
      "inputs": [
        {
          "internalType": "address",
          "name": "",
          "type": "address"
        }
      ],
      "name": "totalLong",
      "outputs": [
        {
          "internalType": "uint256",
          "name": "",
          "type": "uint256"
        }
      ],
      "stateMutability": "view",
      "type": "function"
    },
    {
      "inputs": [
        {
          "internalType": "address",
          "name": "",
          "type": "address"
        }
      ],
      "name": "totalShort",
      "outputs": [
        {
          "internalType": "uint256",
          "name": "",
          "type": "uint256"
        }
      ],
      "stateMutability": "view",
      "type": "function"
    },
    {
      "inputs": [
        {
          "internalType": "uint256",
          "name": "role",
          "type": "uint256"
        }
      ],
      "name": "updateMainCharacterCache",
      "outputs": [],
      "stateMutability": "nonpayable",
      "type": "function"
    },
    {
      "inputs": [
        {
          "internalType": "uint256",
          "name": "role",
          "type": "uint256"
        },
        {
          "internalType": "address",
          "name": "contr",
          "type": "address"
        }
      ],
      "name": "updateRoleCache",
      "outputs": [],
      "stateMutability": "nonpayable",
      "type": "function"
    },
    {
      "inputs": [
        {
          "internalType": "address",
          "name": "trader",
          "type": "address"
        },
        {
          "internalType": "address",
          "name": "token",
          "type": "address"
        }
      ],
      "name": "viewBalanceInToken",
      "outputs": [
        {
          "internalType": "uint256",
          "name": "",
          "type": "uint256"
        }
      ],
      "stateMutability": "view",
      "type": "function"
    },
    {
      "inputs": [
        {
          "internalType": "address",
          "name": "token",
          "type": "address"
        },
        {
          "internalType": "uint256",
          "name": "inAmount",
          "type": "uint256"
        }
      ],
      "name": "viewCurrentPriceInPeg",
      "outputs": [
        {
          "internalType": "uint256",
          "name": "",
          "type": "uint256"
        }
      ],
      "stateMutability": "view",
      "type": "function"
    },
    {
      "inputs": [
        {
          "internalType": "address",
          "name": "trader",
          "type": "address"
        }
      ],
      "name": "viewHoldingsInPeg",
      "outputs": [
        {
          "internalType": "uint256",
          "name": "",
          "type": "uint256"
        }
      ],
      "stateMutability": "view",
      "type": "function"
    },
    {
      "inputs": [
        {
          "internalType": "address",
          "name": "trader",
          "type": "address"
        }
      ],
      "name": "viewLoanInPeg",
      "outputs": [
        {
          "internalType": "uint256",
          "name": "amount",
          "type": "uint256"
        }
      ],
      "stateMutability": "view",
      "type": "function"
    },
    {
      "inputs": [
        {
          "internalType": "uint256",
          "name": "",
          "type": "uint256"
        }
      ],
      "name": "volatilitySettings",
      "outputs": [
        {
          "internalType": "uint256",
          "name": "priceUpdateWindow",
          "type": "uint256"
        },
        {
          "internalType": "uint256",
          "name": "updateRatePermil",
          "type": "uint256"
        }
      ],
      "stateMutability": "view",
      "type": "function"
    }
  ],
  "transactionHash": "0x76b099acde078493d70862b3a6529069a6c85e86d8175c65a3b306b69c770358",
  "args": [
    "0xdAC17F958D2ee523a2206206994597C13D831ec7",
    "0xC6D13A49cdC5Afc7798dd0eBA7698DB9BFCc1D8c"
  ],
  "solcInputHash": "8434bf61d0250d35478b55ff06da1ff0",
  "bytecode": "0x60c06040526014600355603260045561012c6006556073600755600a600c55600a60135560056014556005601555600a6016553480156200003f57600080fd5b50604051620060cd380380620060cd83398101604081905262000062916200010a565b81816001600160a01b038116620000ca5760405162461bcd60e51b815260206004820152602260248201527f506c656173652070726f766964652076616c696420726f6c6573206164647265604482015261737360f01b606482015260840160405180910390fd5b6001600160601b0319606091821b811660805291901b1660a05250620001419050565b80516001600160a01b03811681146200010557600080fd5b919050565b600080604083850312156200011d578182fd5b6200012883620000ed565b91506200013860208401620000ed565b90509250929050565b60805160601c60a05160601c615f0c620001c1600039600081816103da01528181610a3d01528181610f13015281816118b00152818161207b0152818161222201528181612d0d01528181614f8601526151100152600081816104ee01528181610879015281816116bc01528181612f190152612fb10152615f0c6000f3fe608060405234801561001057600080fd5b50600436106103365760003560e01c8063538edb29116101b2578063bc44dcbc116100f9578063d8039c26116100a2578063e9c3f77d1161007c578063e9c3f77d146107be578063ef859fc8146107e7578063f04c686514610824578063f99fd97c1461083757610336565b8063d8039c2614610778578063db2d904d1461078b578063e0f3871f1461079e57610336565b8063c74303aa116100d3578063c74303aa1461073f578063d0eb665314610752578063d510c5351461076557610336565b8063bc44dcbc146106f9578063bc70c66614610719578063c73afac21461072c57610336565b8063a17ab5271161015b578063a75697a511610135578063a75697a514610659578063a985994b14610679578063badb50481461068c57610336565b8063a17ab5271461062a578063a37189191461063d578063a53ac0d91461065057610336565b80637a1a04df1161018c5780637a1a04df146105e05780637d100e841461060e578063a00891591461061757610336565b8063538edb29146105bb57806354554b58146105c45780636585b5a6146105d757610336565b80632febaa7411610281578063447d52ba1161022a5780634aa4aca3116102045780634aa4aca3146105835780634cb776621461058c578063519bda851461059f57806352a664d9146105a857610336565b8063447d52ba1461053a57806347788cd01461054d578063498d55eb1461057057610336565b8063392f5f641161025b578063392f5f64146104e95780633ed456fa14610510578063409fdb721461051957610336565b80632febaa74146104af578063320d2fa0146104b85780633500aa0b146104c157610336565b80631d84cc18116102e3578063204120bc116102bd578063204120bc1461042757806320c271261461047c5780632b23f8571461049c57610336565b80631d84cc18146103c25780631f1cb62b146103d55780631f692a641461041457610336565b806310d584341161031457806310d584341461038957806316317e7e1461039c5780631d47e4a3146103af57610336565b8063071060a61461033b57806307c2017514610350578063093a483a14610363575b600080fd5b61034e610349366004615a7b565b61084a565b005b61034e61035e3660046158d8565b610941565b610376610371366004615880565b610a39565b6040519081526020015b60405180910390f35b61034e610397366004615a7b565b610ad8565b61034e6103aa366004615a7b565b610b75565b61034e6103bd366004615880565b610c0d565b61034e6103d0366004615826565b610d08565b6103fc7f000000000000000000000000000000000000000000000000000000000000000081565b6040516001600160a01b039091168152602001610380565b61037661042236600461571c565b610dd0565b61045c61043536600461571c565b60026020526000908152604090208054600182015460038301546005909301549192909184565b604080519485526020850193909352918301526060820152608001610380565b61037661048a36600461571c565b600b6020526000908152604090205481565b61034e6104aa3660046159c6565b610e05565b610376600c5481565b61037660075481565b6104d46104cf36600461578c565b6111be565b60408051928352602083019190915201610380565b6103fc7f000000000000000000000000000000000000000000000000000000000000000081565b61037660035481565b61052c61052736600461571c565b611506565b604051610380929190615b59565b61034e610548366004615aab565b61167d565b61056061055b36600461571c565b61178c565b6040519015158152602001610380565b61034e61057e3660046157e6565b6117f3565b61037660145481565b61037661059a366004615880565b6118ac565b61037660045481565b6103766105b63660046157e6565b611941565b61037660155481565b61034e6105d2366004615a7b565b611a7c565b61037660135481565b6105606105ee366004615880565b600160209081526000928352604080842090915290825290205460ff1681565b61037660165481565b61034e610625366004615a59565b611b14565b61037661063836600461571c565b611bb0565b61034e61064b366004615a7b565b611bd8565b61037660065481565b61037661066736600461571c565b60116020526000908152604090205481565b6103766106873660046158d8565b611c70565b6106ce61069a36600461571c565b601260205260009081526040902080546001820154600283015460039093015491926001600160a01b039182169290911684565b604080519485526001600160a01b039384166020860152840191909152166060820152608001610380565b61037661070736600461571c565b600a6020526000908152604090205481565b6104d4610727366004615a7b565b6123f9565b61034e61073a366004615a7b565b612427565b61034e61074d366004615a7b565b6124bf565b61034e6107603660046157e6565b612557565b61052c61077336600461571c565b6125ff565b61034e610786366004615acf565b612843565b61034e61079936600461571c565b61294e565b6103766107ac36600461571c565b60096020526000908152604090205481565b6103fc6107cc366004615a7b565b6000602081905290815260409020546001600160a01b031681565b6103766107f5366004615754565b6001600160a01b0391821660009081526008602090815260408083209390941682526005909201909152205490565b61034e610832366004615a7b565b612a64565b61034e610845366004615a7b565b612bba565b6040517fb4ed0b6d000000000000000000000000000000000000000000000000000000008152600481018290527f00000000000000000000000000000000000000000000000000000000000000006001600160a01b03169063b4ed0b6d9060240160206040518083038186803b1580156108c357600080fd5b505afa1580156108d7573d6000803e3d6000fd5b505050506040513d601f19601f820116820180604052508101906108fb9190615738565b60009182526020829052604090912080547fffffffffffffffffffffffff0000000000000000000000000000000000000000166001600160a01b03909216919091179055565b60005b8082511115610a3557600082828151811061096f57634e487b7160e01b600052603260045260246000fd5b60200260200101519050600060126000836001600160a01b03166001600160a01b03168152602001908152602001600020905060145481600001546109b49190615c69565b431115610a20576109c481612c52565b506001600160a01b03821660009081526012602052604081208181556001810180547fffffffffffffffffffffffff00000000000000000000000000000000000000009081169091556002820192909255600301805490911690555b50508080610a2d90615e5c565b915050610944565b5050565b60007f00000000000000000000000000000000000000000000000000000000000000006001600160a01b0316836001600160a01b03161415610a7c575080610ad2565b6001600160a01b0383166000908152600260205260409020600180820154610aa391615c69565b610aaf6006600a615ce7565b610aba906064615dd3565b610ac49085615dd3565b610ace9190615c81565b9150505b92915050565b33610ae1612f15565b6001600160a01b03161480610b05575033610afa612fad565b6001600160a01b0316145b610b70576040517f08c379a000000000000000000000000000000000000000000000000000000000815260206004820152601e60248201527f526f6c65733a2063616c6c6572206973206e6f7420746865206f776e6572000060448201526064015b60405180910390fd5b601655565b33610b7e612f15565b6001600160a01b03161480610ba2575033610b97612fad565b6001600160a01b0316145b610c08576040517f08c379a000000000000000000000000000000000000000000000000000000000815260206004820152601e60248201527f526f6c65733a2063616c6c6572206973206e6f7420746865206f776e657200006044820152606401610b67565b600755565b33610c16612f15565b6001600160a01b03161480610c3a575033610c2f612fad565b6001600160a01b0316145b80610c6057503360009081526001602090815260408083206009845290915290205460ff165b610cec576040517f08c379a000000000000000000000000000000000000000000000000000000000815260206004820152603960248201527f43616c6c6572206973206e6f7420746865206f776e65722c206578656375746f60448201527f72206f7220617574686f72697a656420616374697661746f72000000000000006064820152608401610b67565b6001600160a01b03909116600090815260096020526040902055565b3360009081526001602090815260408083206004845290915290205460ff16610d8d576040517f08c379a000000000000000000000000000000000000000000000000000000000815260206004820152601d60248201527f43616c6c696e6720636f6e74722e206e6f7420617574686f72697a65640000006044820152606401610b67565b6001600160a01b0385166000908152600860205260409020610db081868661301e565b610dbb8184846130e3565b610dc6818484613204565b4390555050505050565b6001600160a01b0381166000908152600860205260408120610dfc600182016002830160038401613358565b9150505b919050565b33610e0e612f15565b6001600160a01b03161480610e32575033610e27612fad565b6001600160a01b0316145b80610e5857503360009081526001602090815260408083206009845290915290205460ff165b610ee4576040517f08c379a000000000000000000000000000000000000000000000000000000000815260206004820152603960248201527f43616c6c6572206973206e6f7420746865206f776e65722c206578656375746f60448201527f72206f7220617574686f72697a656420616374697661746f72000000000000006064820152608401610b67565b600081600081518110610f0757634e487b7160e01b600052603260045260246000fd5b602002602001015190507f00000000000000000000000000000000000000000000000000000000000000006001600160a01b0316816001600160a01b0316146111b9576001600160a01b03811660009081526002602081815260409092206003810186905584519092610f8092840191908601906155d7565b50825167ffffffffffffffff811115610fa957634e487b7160e01b600052604160045260246000fd5b604051908082528060200260200182016040528015610fd2578160200160208202803683370190505b508051610fe99160048401916020909101906155d7565b506000805b8060018651610ffd9190615e10565b111561108957600081600287516110149190615e10565b61101e9190615e10565b611029906008615dd3565b87836020811061104957634e487b7160e01b600052603260045260246000fd5b1a60f81b7fff0000000000000000000000000000000000000000000000000000000000000016901c9290921791508061108181615e5c565b915050610fee565b506005820181905560005b8085511115611153578460018287516110ad9190615e10565b6110b79190615e10565b815181106110d557634e487b7160e01b600052603260045260246000fd5b602002602001015183600401828154811061110057634e487b7160e01b600052603260045260246000fd5b600091825260209091200180547fffffffffffffffffffffffff0000000000000000000000000000000000000000166001600160a01b03929092169190911790558061114b81615e5c565b915050611094565b5060006111776111656006600a615ce7565b611170906064615dd3565b87876133dc565b50905060008160008151811061119d57634e487b7160e01b600052603260045260246000fd5b602002602001015190506111b484826103e861370e565b505050505b505050565b33600090815260016020908152604080832060048452909152812054819060ff16611245576040517f08c379a000000000000000000000000000000000000000000000000000000000815260206004820181905260248201527f43616c6c696e6720636f6e74722e206e6f7420616e20617574686f72697a65646044820152606401610b67565b6001600160a01b038088166000908152600860209081526040808320938916835260028401909152902054156112d6576001600160a01b038616600090815260028201602052604090205461129b908590613757565b92506112a881878561376f565b6001600160a01b0386166000908152600a6020526040812080548592906112d0908490615e10565b90915550505b6001600160a01b038716600090815260058201602052604090205485908082111561130b579050806113088188615e10565b93505b8387111561134b5761131d8488615e10565b6001600160a01b038a166000908152600b602052604081208054909190611345908490615e10565b90915550505b8486111561138b5761135d8587615e10565b6001600160a01b0389166000908152600b602052604081208054909190611385908490615c69565b90915550505b6001600160a01b0388166000908152600b60209081526040808320546009909252909120541015611418576040517f08c379a000000000000000000000000000000000000000000000000000000000815260206004820152601860248201527f4578636565647320676c6f62616c20746f6b656e2063617000000000000000006044820152606401610b67565b61142e838a8a856114298a8c615e10565b613a74565b83156114f9576001600160a01b0389166000908152600a60205260408120805486929061145c908490615c69565b90915550506001600160a01b0389166000908152600a602090815260408083205460099092529091205410156114ee576040517f08c379a000000000000000000000000000000000000000000000000000000000815260206004820152601860248201527f4578636565647320676c6f62616c20746f6b656e2063617000000000000000006044820152606401610b67565b6114f9838a86613ac7565b5050509550959350505050565b6001600160a01b03811660009081526008602090815260409182902060048101805484518185028101850190955280855260609485949092919083018282801561157957602002820191906000526020600020905b81546001600160a01b0316815260019091019060200180831161155b575b5050506004840154929550505067ffffffffffffffff8111156115ac57634e487b7160e01b600052604160045260246000fd5b6040519080825280602002602001820160405280156115d5578160200160208202803683370190505b50915060005b808451111561167657600084828151811061160657634e487b7160e01b600052603260045260246000fd5b60200260200101519050826005016000826001600160a01b03166001600160a01b031681526020019081526020016000205484838151811061165857634e487b7160e01b600052603260045260246000fd5b6020908102919091010152508061166e81615e5c565b9150506115db565b5050915091565b6040517f93552a3d000000000000000000000000000000000000000000000000000000008152600481018390526001600160a01b0382811660248301527f000000000000000000000000000000000000000000000000000000000000000016906393552a3d9060440160206040518083038186803b1580156116fe57600080fd5b505afa158015611712573d6000803e3d6000fd5b505050506040513d601f19601f8201168201806040525081019061173691906159a6565b6001600160a01b039190911660009081526001602090815260408083209483529390529190912080547fffffffffffffffffffffffffffffffffffffffffffffffffffffffffffffff0016911515919091179055565b6001600160a01b0381166000908152600860205260408120816117b9600183016002840160038501613358565b905060006117cd8360040184600501613d81565b9050816007546117dd9190615dd3565b6117e8826064615dd3565b101595945050505050565b3360009081526001602090815260408083206004845290915290205460ff16611878576040517f08c379a000000000000000000000000000000000000000000000000000000000815260206004820152601d60248201527f43616c6c696e6720636f6e74722e206e6f7420617574686f72697a65640000006044820152606401610b67565b6001600160a01b038316600090815260086020526040902061189b818484613e0c565b6118a68184846130e3565b50505050565b60007f00000000000000000000000000000000000000000000000000000000000000006001600160a01b0316836001600160a01b031614156118ef575080610ad2565b6001600160a01b038316600090815260026020526040902060035481546119169043615e10565b118061192457506001810154155b156119325761193281613ee8565b600180820154610aa391615c69565b3360009081526001602090815260408083206004845290915281205460ff166119c6576040517f08c379a000000000000000000000000000000000000000000000000000000000815260206004820152601d60248201527f43616c6c696e6720636f6e74722e206e6f7420617574686f72697a65640000006044820152606401610b67565b6001600160a01b03808516600090815260086020908152604080832043815593871683526002840190915290205415611a5a576001600160a01b0384166000908152600282016020526040902054611a1f908490613757565b9150611a2c81858461376f565b6001600160a01b0384166000908152600a602052604081208054849290611a54908490615e10565b90915550505b6000611a668385615e10565b9050611a7382868361301e565b50509392505050565b33611a85612f15565b6001600160a01b03161480611aa9575033611a9e612fad565b6001600160a01b0316145b611b0f576040517f08c379a000000000000000000000000000000000000000000000000000000000815260206004820152601e60248201527f526f6c65733a2063616c6c6572206973206e6f7420746865206f776e657200006044820152606401610b67565b600455565b33611b1d612f15565b6001600160a01b03161480611b41575033611b36612fad565b6001600160a01b0316145b611ba7576040517f08c379a000000000000000000000000000000000000000000000000000000000815260206004820152601e60248201527f526f6c65733a2063616c6c6572206973206e6f7420746865206f776e657200006044820152606401610b67565b61ffff16600355565b6001600160a01b0381166000908152600860205260408120610dfc6004820160058301613d81565b33611be1612f15565b6001600160a01b03161480611c05575033611bfa612fad565b6001600160a01b0316145b611c6b576040517f08c379a000000000000000000000000000000000000000000000000000000000815260206004820152601e60248201527f526f6c65733a2063616c6c6572206973206e6f7420746865206f776e657200006044820152606401610b67565b601455565b6000333214611d01576040517f08c379a000000000000000000000000000000000000000000000000000000000815260206004820152603a60248201527f43757272656e746c79206e6f20696e7465726d656469617269657320616c6c6f60448201527f77656420666f7220746869732066756e6374696f6e2063616c6c0000000000006064820152608401610b67565b6000611d3e606b60009081526020527f2dc7a963308417ad45132da282495eb244f38a7db03940a4d808be607669c622546001600160a01b031690565b6040517f7b23cbce0000000000000000000000000000000000000000000000000000000081523360048201526001600160a01b039190911690637b23cbce90602401602060405180830381600087803b158015611d9a57600080fd5b505af1158015611dae573d6000803e3d6000fd5b505050506040513d601f19601f82011682018060405250810190611dd291906159a6565b905060008180611de55750611de5613fa3565b9050611df18483614083565b92506000611dfd61460a565b90506000611e096146ec565b9050600060646015546064611e1e9190615c69565b611e289084615dd3565b611e329190615c81565b905082811115611e79577f3555ffae7677eb42103f0b9e11b61c758f452fae446684dec7a363dd38ab58fc611e678483615e10565b60405190815260200160405180910390a15b600084611f2a57606b60009081526020527f2dc7a963308417ad45132da282495eb244f38a7db03940a4d808be607669c622546001600160a01b03166001600160a01b0316631a38de1d6040518163ffffffff1660e01b8152600401602060405180830381600087803b158015611eef57600080fd5b505af1158015611f03573d6000803e3d6000fd5b505050506040513d601f19601f82011682018060405250810190611f279190615738565b90505b60005b60105481101561218d57600060108281548110611f5a57634e487b7160e01b600052603260045260246000fd5b60009182526020808320909101546001600160a01b031680835260089091526040822090925090611f8a826147c7565b90506000611f97836147d9565b90506000606460155483611fab9190615dd3565b611fb59190615c81565b9050611fc1818e615c69565b9c508a61202e576001600160a01b03858116600090815260126020526040902060028101839055600381018054337fffffffffffffffffffffffff000000000000000000000000000000000000000091821617909155438255600190910180549091169189169190911790555b6120388282615c69565b83111561213057606560009081526020527f4a7203f705e51df4a56139a9b86b4a0970bed7ab7a3446eaffe2289989c1645c546001600160a01b031663d9caed127f000000000000000000000000000000000000000000000000000000000000000087846120a68789615e10565b6120b09190615e10565b6040517fffffffff0000000000000000000000000000000000000000000000000000000060e086901b1681526001600160a01b0393841660048201529290911660248301526044820152606401600060405180830381600087803b15801561211757600080fd5b505af115801561212b573d6000803e3d6000fd5b505050505b6040516001600160a01b03861681527f1d2cc4c8661a04a00b4e727426220501b36d85bb330947642c2d4320667028cf9060200160405180910390a1612175846147ef565b5050505050808061218590615e5c565b915050611f2d565b5060648760135460636121a09190615dd3565b6121aa9190615c69565b6121b49190615c81565b601355841561229657606560009081526020527f4a7203f705e51df4a56139a9b86b4a0970bed7ab7a3446eaffe2289989c1645c546001600160a01b03166040517fd9caed120000000000000000000000000000000000000000000000000000000081526001600160a01b037f000000000000000000000000000000000000000000000000000000000000000081166004830152336024830152604482018a9052919091169063d9caed1290606401600060405180830381600087803b15801561227d57600080fd5b505af1158015612291573d6000803e3d6000fd5b505050505b60006122d3606b60009081526020527f2dc7a963308417ad45132da282495eb244f38a7db03940a4d808be607669c622546001600160a01b031690565b6001600160a01b0316631a38de1d6040518163ffffffff1660e01b8152600401602060405180830381600087803b15801561230d57600080fd5b505af1158015612321573d6000803e3d6000fd5b505050506040513d601f19601f820116820180604052508101906123459190615738565b905086156123bf576001600160a01b0381166000908152601160205260409020548810156123a0576001600160a01b038116600090815260116020526040812080548a9290612395908490615e10565b909155506123ba9050565b6001600160a01b0381166000908152601160205260408120555b6123ed565b6001600160a01b038116600090815260116020526040812080548a92906123e7908490615c69565b90915550505b50505050505050919050565b6005818154811061240957600080fd5b60009182526020909120600290910201805460019091015490915082565b33612430612f15565b6001600160a01b03161480612454575033612449612fad565b6001600160a01b0316145b6124ba576040517f08c379a000000000000000000000000000000000000000000000000000000000815260206004820152601e60248201527f526f6c65733a2063616c6c6572206973206e6f7420746865206f776e657200006044820152606401610b67565b601555565b336124c8612f15565b6001600160a01b031614806124ec5750336124e1612fad565b6001600160a01b0316145b612552576040517f08c379a000000000000000000000000000000000000000000000000000000000815260206004820152601e60248201527f526f6c65733a2063616c6c6572206973206e6f7420746865206f776e657200006044820152606401610b67565b600655565b3360009081526001602090815260408083206004845290915290205460ff166125dc576040517f08c379a000000000000000000000000000000000000000000000000000000000815260206004820152601c60248201527f43616c6c696e6720636f6e7472206e6f7420617574686f72697a6564000000006044820152606401610b67565b6001600160a01b03831660009081526008602052604090206118a6818484613204565b6001600160a01b03811660009081526008602090815260409182902060018101805484518185028101850190955280855260609485949092919083018282801561267257602002820191906000526020600020905b81546001600160a01b03168152600190910190602001808311612654575b5050506001840154929550505067ffffffffffffffff8111156126a557634e487b7160e01b600052604160045260246000fd5b6040519080825280602002602001820160405280156126ce578160200160208202803683370190505b50915060005b80845111156116765760008482815181106126ff57634e487b7160e01b600052603260045260246000fd5b60200260200101519050612744606660009081526020527f422cccb7cea5c0e46f340bb7b21b81debac329f72e31669c20ff0f3a05cc2b5b546001600160a01b031690565b6001600160a01b03828116600081815260028701602090815260408083205460038a01909252918290205491517f76668b670000000000000000000000000000000000000000000000000000000081526004810191909152602481019290925260448201529116906376668b679060640160206040518083038186803b1580156127cd57600080fd5b505afa1580156127e1573d6000803e3d6000fd5b505050506040513d601f19601f820116820180604052508101906128059190615a93565b84838151811061282557634e487b7160e01b600052603260045260246000fd5b6020908102919091010152508061283b81615e5c565b9150506126d4565b3361284c612f15565b6001600160a01b03161480612870575033612865612fad565b6001600160a01b0316145b6128d6576040517f08c379a000000000000000000000000000000000000000000000000000000000815260206004820152601e60248201527f526f6c65733a2063616c6c6572206973206e6f7420746865206f776e657200006044820152606401610b67565b60408051808201909152918252602082019081526005805460018101825560009190915291517f036b6384b5eca791c62761152d0c79bb0604c104a5fb6f4eb0703f3154bb3db0600290930292830155517f036b6384b5eca791c62761152d0c79bb0604c104a5fb6f4eb0703f3154bb3db190910155565b3360009081526001602090815260408083206004845290915290205460ff166129d3576040517f08c379a000000000000000000000000000000000000000000000000000000000815260206004820152601d60248201527f43616c6c696e6720636f6e74722e206e6f7420617574686f72697a65640000006044820152606401610b67565b6001600160a01b03811660009081526008602052604090206129f4816147d9565b15612a5b576040517f08c379a000000000000000000000000000000000000000000000000000000000815260206004820152601a60248201527f43616e2774206c69717569646174653a20626f72726f77696e670000000000006044820152606401610b67565b610a35816147ef565b33612a6d612f15565b6001600160a01b03161480612a91575033612a86612fad565b6001600160a01b0316145b80612adf575033612ad46103e960009081526020527f236f539bf6e1b3b15a335e3cd157d360bc4be88c071635c19ba8a82b4f665e9f546001600160a01b031690565b6001600160a01b0316145b612b6b576040517f08c379a000000000000000000000000000000000000000000000000000000000815260206004820152603860248201527f43616c6c6572206973206e6f7420746865206f776e65722c206578656375746f60448201527f72206f7220617574686f72697a65642064697361626c657200000000000000006064820152608401610b67565b600060058281548110612b8e57634e487b7160e01b600052603260045260246000fd5b90600052602060002090600202019050600081600101541115610a355760018101546004555460035550565b33612bc3612f15565b6001600160a01b03161480612be7575033612bdc612fad565b6001600160a01b0316145b612c4d576040517f08c379a000000000000000000000000000000000000000000000000000000000815260206004820152601e60248201527f526f6c65733a2063616c6c6572206973206e6f7420746865206f776e657200006044820152606401610b67565b600c55565b600281015460009015610e00578154600090612c7a90612c729043615e10565b601454613757565b90506000601454828560020154612c919190615dd3565b612c9b9190615c81565b9050612cd8606560009081526020527f4a7203f705e51df4a56139a9b86b4a0970bed7ab7a3446eaffe2289989c1645c546001600160a01b031690565b60038501546040517fd9caed120000000000000000000000000000000000000000000000000000000081526001600160a01b037f00000000000000000000000000000000000000000000000000000000000000008116600483015291821660248201526044810184905291169063d9caed1290606401600060405180830381600087803b158015612d6857600080fd5b505af1158015612d7c573d6000803e3d6000fd5b505050506000612dbd606b60009081526020527f2dc7a963308417ad45132da282495eb244f38a7db03940a4d808be607669c622546001600160a01b031690565b9050600060135483836001600160a01b0316630ad691506040518163ffffffff1660e01b815260040160206040518083038186803b158015612dfe57600080fd5b505afa158015612e12573d6000803e3d6000fd5b505050506040513d601f19601f82011682018060405250810190612e369190615a93565b612e409190615dd3565b612e4a9190615c81565b600187015460038801546040517f0a45bc1b0000000000000000000000000000000000000000000000000000000081526001600160a01b039283166004820152602481018490529082166044820152919250831690630a45bc1b90606401602060405180830381600087803b158015612ec257600080fd5b505af1158015612ed6573d6000803e3d6000fd5b505050506040513d601f19601f82011682018060405250810190612efa9190615a93565b50828660020154612f0b9190615e10565b9695505050505050565b60007f00000000000000000000000000000000000000000000000000000000000000006001600160a01b0316638da5cb5b6040518163ffffffff1660e01b815260040160206040518083038186803b158015612f7057600080fd5b505afa158015612f84573d6000803e3d6000fd5b505050506040513d601f19601f82011682018060405250810190612fa89190615738565b905090565b60007f00000000000000000000000000000000000000000000000000000000000000006001600160a01b031663c34c08e56040518163ffffffff1660e01b8152600401602060405180830381600087803b15801561300a57600080fd5b505af1158015612f84573d6000803e3d6000fd5b613029838383613e0c565b6001600160a01b0382166000908152600b602052604081208054839290613051908490615c69565b90915550506001600160a01b0382166000908152600b602090815260408083205460099092529091205410156111b9576040517f08c379a000000000000000000000000000000000000000000000000000000000815260206004820152601860248201527f4578636565647320676c6f62616c20746f6b656e2063617000000000000000006044820152606401610b67565b6001600160a01b0382166000908152600a60205260408120805483929061310b908490615c69565b90915550506001600160a01b0382166000908152600b602052604081208054839290613138908490615c69565b90915550506001600160a01b0382166000908152600a60209081526040808320546009909252909120541080159061319357506001600160a01b0382166000908152600b602090815260408083205460099092529091205410155b6131f9576040517f08c379a000000000000000000000000000000000000000000000000000000000815260206004820152601860248201527f4578636565647320676c6f62616c20746f6b656e2063617000000000000000006044820152606401610b67565b6111b9838383613ac7565b600c5483546132139190615c69565b431161327b576040517f08c379a000000000000000000000000000000000000000000000000000000000815260206004820181905260248201527f4e6f207769746864726177616c20736f6f6e206166746572206465706f7369746044820152606401610b67565b6001600160a01b0382166000908152600b6020526040812080548392906132a3908490615e10565b90915550506001600160a01b03821660009081526005840160205260409020546132ce908290615e10565b6001600160a01b03831660009081526005850160205260409020556132f28361499d565b6111b9576040517f08c379a000000000000000000000000000000000000000000000000000000000815260206004820152601460248201527f496e73756666696369656e742062616c616e63650000000000000000000000006044820152606401610b67565b8254600090815b81811015611a7357600086828154811061338957634e487b7160e01b600052603260045260246000fd5b60009182526020808320909101546001600160a01b0316808352908890526040909120549091506133bc908290876149e9565b6133c69085615c69565b93505080806133d490615e5c565b91505061335f565b60608060028351101561344b576040517f08c379a000000000000000000000000000000000000000000000000000000000815260206004820152601460248201527f746f6b656e207061746820746f6f2073686f72740000000000000000000000006044820152606401610b67565b825167ffffffffffffffff81111561347357634e487b7160e01b600052604160045260246000fd5b60405190808252806020026020018201604052801561349c578160200160208202803683370190505b5091508482600184516134af9190615e10565b815181106134cd57634e487b7160e01b600052603260045260246000fd5b602002602001018181525050600183516134e79190615e10565b67ffffffffffffffff81111561350d57634e487b7160e01b600052604160045260246000fd5b604051908082528060200260200182016040528015613536578160200160208202803683370190505b5090506000600184516135499190615e10565b90505b801561370557600084613560600184615e10565b8151811061357e57634e487b7160e01b600052603260045260246000fd5b6020026020010151905060008583815181106135aa57634e487b7160e01b600052603260045260246000fd5b602002602001015190506000876001856135c49190615e10565b602081106135e257634e487b7160e01b600052603260045260246000fd5b1a60f81b7fff00000000000000000000000000000000000000000000000000000000000000161561361c576136178383614b04565b613626565b6136268383614c2b565b90508085613635600187615e10565b8151811061365357634e487b7160e01b600052603260045260246000fd5b60200260200101906001600160a01b031690816001600160a01b031681525050600080613681838686614d17565b915091506136b78887815181106136a857634e487b7160e01b600052603260045260246000fd5b60200260200101518383614df4565b886136c3600189615e10565b815181106136e157634e487b7160e01b600052603260045260246000fd5b602002602001018181525050505050505080806136fd90615e27565b91505061354c565b50935093915050565b6103e861371b8284615dd3565b613727836103e8615e10565b85600101546137369190615dd3565b6137409190615c69565b61374a9190615c81565b8360010181905550505050565b600081831115613768575080610ad2565b5081610ad2565b6000806137ad606660009081526020527f422cccb7cea5c0e46f340bb7b21b81debac329f72e31669c20ff0f3a05cc2b5b546001600160a01b031690565b6001600160a01b03858116600081815260028901602090815260408083205460038c01909252918290205491517fe695fa6800000000000000000000000000000000000000000000000000000000815260048101919091526024810192909252604482015291169063e695fa68906064016040805180830381600087803b15801561383757600080fd5b505af115801561384b573d6000803e3d6000fd5b505050506040513d601f19601f8201168201806040525081019061386f9190615af0565b909250905060006138808484615e10565b6001600160a01b0386166000908152600288016020908152604080832084905560058a019091529020549091506138b8908590615e10565b6001600160a01b038616600090815260058801602052604090205580156138fb576001600160a01b03851660009081526003870160205260409020829055613a6c565b6001600160a01b038516600090815260038701602052604081208190556001870154815b808211156139ef57600089600101828154811061394c57634e487b7160e01b600052603260045260246000fd5b6000918252602090912001546001600160a01b039081169150891681141561397757600193506139dc565b83156139dc57808a60010160018461398f9190615e10565b815481106139ad57634e487b7160e01b600052603260045260246000fd5b9060005260206000200160006101000a8154816001600160a01b0302191690836001600160a01b031602179055505b50806139e781615e5c565b91505061391f565b5087600101805480613a1157634e487b7160e01b600052603160045260246000fd5b60008281526020902081017fffffffffffffffffffffffffffffffffffffffffffffffffffffffffffffffff90810180547fffffffffffffffffffffffff000000000000000000000000000000000000000016905501905550505b505050505050565b6001600160a01b0384166000908152600586016020526040902054613a9a908390615e10565b6001600160a01b0385166000908152600587016020526040902055613ac0858483613e0c565b5050505050565b6001600160a01b0382166000908152600384016020526040902054613c2e576001838101805491820181556000908152602090200180547fffffffffffffffffffffffff0000000000000000000000000000000000000000166001600160a01b038416179055613b68606660009081526020527f422cccb7cea5c0e46f340bb7b21b81debac329f72e31669c20ff0f3a05cc2b5b546001600160a01b031690565b6040517f46c87f800000000000000000000000000000000000000000000000000000000081526001600160a01b03848116600483015291909116906346c87f8090602401602060405180830381600087803b158015613bc657600080fd5b505af1158015613bda573d6000803e3d6000fd5b505050506040513d601f19601f82011682018060405250810190613bfe9190615a93565b6001600160a01b038316600090815260038501602090815260408083209390935560028601905220819055613d78565b600080613c6c606660009081526020527f422cccb7cea5c0e46f340bb7b21b81debac329f72e31669c20ff0f3a05cc2b5b546001600160a01b031690565b6001600160a01b03858116600081815260028901602090815260408083205460038c01909252918290205491517fe695fa6800000000000000000000000000000000000000000000000000000000815260048101919091526024810192909252604482015291169063e695fa68906064016040805180830381600087803b158015613cf657600080fd5b505af1158015613d0a573d6000803e3d6000fd5b505050506040513d601f19601f82011682018060405250810190613d2e9190615af0565b6001600160a01b038616600090815260038801602052604090208190559092509050613d5a8383615c69565b6001600160a01b038516600090815260028701602052604090205550505b6132f28361499d565b8154600090815b81811015613e04576000858281548110613db257634e487b7160e01b600052603260045260246000fd5b60009182526020808320909101546001600160a01b031680835290879052604090912054909150613de4908290610a39565b613dee9085615c69565b9350508080613dfc90615e5c565b915050613d88565b505092915050565b6001600160a01b038216600090815260068401602052604090205460ff16613eb457600483018054600180820183556000928352602080842090920180547fffffffffffffffffffffffff0000000000000000000000000000000000000000166001600160a01b038716908117909155835260068601909152604090912080547fffffffffffffffffffffffffffffffffffffffffffffffffffffffffffffff001690911790555b6001600160a01b038216600090815260058401602052604081208054839290613ede908490615c69565b9091555050505050565b6000613f6b613ef96006600a615ce7565b613f04906064615dd3565b836003015484600201805480602002602001604051908101604052809291908181526020018280548015613f6157602002820191906000526020600020905b81546001600160a01b03168152600190910190602001808311613f43575b50505050506133dc565b509050610a358282600081518110613f9357634e487b7160e01b600052603260045260246000fd5b602002602001015160045461370e565b600080613fe1606b60009081526020527f2dc7a963308417ad45132da282495eb244f38a7db03940a4d808be607669c622546001600160a01b031690565b6001600160a01b031663b0411f466040518163ffffffff1660e01b8152600401604080518083038186803b15801561401857600080fd5b505afa15801561402c573d6000803e3d6000fd5b505050506040513d601f19601f8201168201806040525081019061405091906158ab565b5090506013546016546140639190615dd3565b6001600160a01b0390911660009081526011602052604090205411905090565b6040805160008082526020820192839052905190916140a591600e91906155d7565b5060408051600081526020810191829052516140c391600f916155d7565b5060408051600081526020810191829052516140e1916010916155d7565b5060005b808451111561460357600084828151811061411057634e487b7160e01b600052603260045260246000fd5b60200260200101519050600060086000836001600160a01b03166001600160a01b03168152602001908152602001600020905061414c81614f45565b156145b9576010805460018101825560009182527f1b6847dc741a1b0cd08d278845f9d819d87b734759afb55fe2de5cb82a9ae6720180547fffffffffffffffffffffffff0000000000000000000000000000000000000000166001600160a01b0385161790556004820154905b808211156142ee5760008360040182815481106141e757634e487b7160e01b600052603260045260246000fd5b60009182526020808320909101546001600160a01b0316808352600d909152604090912060028101549192509043146142a3576001600160a01b0382166000818152600587016020526040812054600180850191909155818455436002850155600e805491820181559091527fbb7b4a454dc3493923482f07822329ed19e8244eff582cc204f8554c3620c3fd0180547fffffffffffffffffffffffff00000000000000000000000000000000000000001690911790556142d9565b6001600160a01b0382166000908152600586016020526040812054600183018054919290916142d3908490615c69565b90915550505b505080806142e690615e5c565b9150506141ba565b5050600181015460005b808211156145b657600083600101828154811061432557634e487b7160e01b600052603260045260246000fd5b60009182526020808320909101546001600160a01b0316808352600d9091526040822090925090614387606660009081526020527f422cccb7cea5c0e46f340bb7b21b81debac329f72e31669c20ff0f3a05cc2b5b546001600160a01b031690565b6001600160a01b03848116600081815260028a01602090815260408083205460038d01909252918290205491517fe695fa6800000000000000000000000000000000000000000000000000000000815260048101919091526024810192909252604482015291169063e695fa68906064016040805180830381600087803b15801561441157600080fd5b505af1158015614425573d6000803e3d6000fd5b505050506040513d601f19601f820116820180604052508101906144499190615af0565b509050614487606660009081526020527f422cccb7cea5c0e46f340bb7b21b81debac329f72e31669c20ff0f3a05cc2b5b546001600160a01b031690565b6040517f2a6a897b0000000000000000000000000000000000000000000000000000000081526001600160a01b038581166004830152602482018490529190911690632a6a897b90604401600060405180830381600087803b1580156144ec57600080fd5b505af1158015614500573d6000803e3d6000fd5b50505050438260020154146145865760006001838101829055828455436002850155600f805491820181559091527f8d1108e10bcb7c27dddfc02ed9d693a074039d026cf4ea4240b40f7d581ac8020180547fffffffffffffffffffffffff0000000000000000000000000000000000000000166001600160a01b0385161790556145a0565b8082600001600082825461459a9190615c69565b90915550505b50505080806145ae90615e5c565b9150506142f8565b50505b6001600160a01b038216600090815260126020526040902085156145ed576145e081612c52565b6145ea9086615c69565b94505b50505080806145fb90615e5c565b9150506140e5565b5092915050565b600e54600090815b808211156146db576000600e828154811061463d57634e487b7160e01b600052603260045260246000fd5b60009182526020808320909101546001600160a01b0316808352600d909152604090912080546001820154929350909111156146c6578054600182015460009161468691615e10565b90506146928382614f82565b61469c9087615c69565b6001600160a01b0384166000908152600d6020526040812081815560018101829055600201559550505b505080806146d390615e5c565b915050614612565b506146e8600e6000615650565b5090565b600f54600090815b808211156147ba576000600f828154811061471f57634e487b7160e01b600052603260045260246000fd5b60009182526020808320909101546001600160a01b0316808352600d909152604090912060018101548154929350909111156147a557614772828260010154836000015461476d9190615e10565b61510c565b61477c9086615c69565b6001600160a01b0383166000908152600d60205260408120818155600181018290556002015594505b505080806147b290615e5c565b9150506146f4565b506146e8600f6000615650565b6000610ad282600401836005016152a3565b6000610ad2826001018360020184600301615326565b600181015460005b808211156148a457600083600101828154811061482457634e487b7160e01b600052603260045260246000fd5b60009182526020808320909101546001600160a01b0316808352600287018252604080842054600a90935283208054919450919290614864908490615e10565b90915550506001600160a01b031660009081526002840160209081526040808320839055600386019091528120558061489c81615e5c565b9150506147f7565b5050600481015460005b808211156149805760008360040182815481106148db57634e487b7160e01b600052603260045260246000fd5b60009182526020808320909101546001600160a01b0316808352600587018252604080842054600b9093528320805491945091929061491b908490615e10565b90915550506001600160a01b03166000908152600584016020908152604080832083905560068601909152902080547fffffffffffffffffffffffffffffffffffffffffffffffffffffffffffffff001690558061497881615e5c565b9150506148ae565b5061498f600183016000615650565b610a35600483016000615650565b6000806149a9836147d9565b905060006149b6846147c7565b9050600654826149c69190615dd3565b60646006546149d59190615e10565b6149df9083615dd3565b1015949350505050565b600080614a27606660009081526020527f422cccb7cea5c0e46f340bb7b21b81debac329f72e31669c20ff0f3a05cc2b5b546001600160a01b031690565b6040517f14189db20000000000000000000000000000000000000000000000000000000081526001600160a01b03878116600483015291909116906314189db29060240160206040518083038186803b158015614a8357600080fd5b505afa158015614a97573d6000803e3d6000fd5b505050506040513d601f19601f82011682018060405250810190614abb9190615a93565b6001600160a01b03861660009081526020859052604081205491925090614ae28387615dd3565b614aec9190615c81565b9050614af88682610a39565b925050505b9392505050565b6000806000614b1385856153aa565b60408051606084811b7fffffffffffffffffffffffffffffffffffffffff0000000000000000000000009081166020808501919091529185901b166034830152825160288184030181526048830190935282519201919091207fff0000000000000000000000000000000000000000000000000000000000000060688301527fc0aee478e3658e2610c5f7a4a2e1777ce9e4f2ac0000000000000000000000006069830152607d8201527fe18a34eb0e04b04f7a0ac29a6e80748dca96319b42c54d679cb821dca90c6303609d820152919350915060bd015b604080517fffffffffffffffffffffffffffffffffffffffffffffffffffffffffffffffe0818403018152919052805160209091012095945050505050565b6000806000614c3a85856153aa565b60408051606084811b7fffffffffffffffffffffffffffffffffffffffff0000000000000000000000009081166020808501919091529185901b166034830152825160288184030181526048830190935282519201919091207fff0000000000000000000000000000000000000000000000000000000000000060688301527f5c69bee701ef814a2b6a3edd4b1652cb9cc5aa6f0000000000000000000000006069830152607d8201527f96e8ac4277198ff8b6f785478aa9a39f403cb768dd02cbee326c3e7da348845f609d820152919350915060bd01614bec565b6000806000614d2685856153aa565b509050600080876001600160a01b0316630902f1ac6040518163ffffffff1660e01b815260040160606040518083038186803b158015614d6557600080fd5b505afa158015614d79573d6000803e3d6000fd5b505050506040513d601f19601f82011682018060405250810190614d9d9190615a0b565b506dffffffffffffffffffffffffffff1691506dffffffffffffffffffffffffffff169150826001600160a01b0316876001600160a01b031614614de2578082614de5565b81815b90999098509650505050505050565b6000808411614e5f576040517f08c379a000000000000000000000000000000000000000000000000000000000815260206004820152601a60248201527f494e53554646494349454e545f4f55545055545f414d4f554e540000000000006044820152606401610b67565b600083118015614e6f5750600082115b614efb576040517f08c379a000000000000000000000000000000000000000000000000000000000815260206004820152602860248201527f556e697377617056324c6962726172793a20494e53554646494349454e545f4c60448201527f49515549444954590000000000000000000000000000000000000000000000006064820152608401610b67565b6000614f078585615dd3565b614f13906103e8615dd3565b905060006103e5614f248786615e10565b614f2e9190615e10565b9050614f3a8183615c81565b614af8906001615c69565b600080614f51836147d9565b90506000614f5e846147c7565b905081600754614f6e9190615dd3565b614f79826064615dd3565b10949350505050565b60007f00000000000000000000000000000000000000000000000000000000000000006001600160a01b0316836001600160a01b03161415614fc5575080610ad2565b6001600160a01b038316600090815260026020526040812090615019606760009081526020527f682158d08466d11c566d5712d4396197fdd67e65be71d83c97ef719ec468867b546001600160a01b031690565b6001600160a01b031663351ae6108560008560030154866002016040518563ffffffff1660e01b81526004016150529493929190615bd1565b600060405180830381600087803b15801561506c57600080fd5b505af1158015615080573d6000803e3d6000fd5b505050506040513d6000823e601f3d9081017fffffffffffffffffffffffffffffffffffffffffffffffffffffffffffffffe01682016040526150c69190810190615913565b9050600081600183516150d99190615e10565b815181106150f757634e487b7160e01b600052603260045260246000fd5b60200260200101519050809350505050610ad2565b60007f00000000000000000000000000000000000000000000000000000000000000006001600160a01b0316836001600160a01b0316141561514f575080610ad2565b6001600160a01b0383166000908152600260205260408120906151a3606760009081526020527f682158d08466d11c566d5712d4396197fdd67e65be71d83c97ef719ec468867b546001600160a01b031690565b6001600160a01b03166353d7ff9f857fffffffffffffffffffffffffffffffffffffffffffffffffffffffffffffffff8560030154866004016040518563ffffffff1660e01b81526004016151fb9493929190615bd1565b600060405180830381600087803b15801561521557600080fd5b505af1158015615229573d6000803e3d6000fd5b505050506040513d6000823e601f3d9081017fffffffffffffffffffffffffffffffffffffffffffffffffffffffffffffffe016820160405261526f9190810190615913565b90508060008151811061529257634e487b7160e01b600052603260045260246000fd5b602002602001015192505050610ad2565b8154600090815b81811015613e045760008582815481106152d457634e487b7160e01b600052603260045260246000fd5b60009182526020808320909101546001600160a01b0316808352908790526040909120549091506153069082906118ac565b6153109085615c69565b935050808061531e90615e5c565b9150506152aa565b8254600090815b81811015611a7357600086828154811061535757634e487b7160e01b600052603260045260246000fd5b60009182526020808320909101546001600160a01b03168083529088905260409091205490915061538a908290876154c8565b6153949085615c69565b93505080806153a290615e5c565b91505061532d565b600080826001600160a01b0316846001600160a01b03161415615429576040517f08c379a000000000000000000000000000000000000000000000000000000000815260206004820152601260248201527f4964656e746963616c20616464726573732100000000000000000000000000006044820152606401610b67565b826001600160a01b0316846001600160a01b03161061544957828461544c565b83835b90925090506001600160a01b0382166154c1576040517f08c379a000000000000000000000000000000000000000000000000000000000815260206004820152600d60248201527f5a65726f206164647265737321000000000000000000000000000000000000006044820152606401610b67565b9250929050565b600080615506606660009081526020527f422cccb7cea5c0e46f340bb7b21b81debac329f72e31669c20ff0f3a05cc2b5b546001600160a01b031690565b6040517f14189db20000000000000000000000000000000000000000000000000000000081526001600160a01b03878116600483015291909116906314189db29060240160206040518083038186803b15801561556257600080fd5b505afa158015615576573d6000803e3d6000fd5b505050506040513d601f19601f8201168201806040525081019061559a9190615a93565b6001600160a01b038616600090815260208590526040812054919250906155c18387615dd3565b6155cb9190615c81565b9050614af886826118ac565b828054828255906000526020600020908101928215615644579160200282015b8281111561564457825182547fffffffffffffffffffffffff0000000000000000000000000000000000000000166001600160a01b039091161782556020909201916001909101906155f7565b506146e8929150615671565b508054600082559060005260206000209081019061566e9190615671565b50565b5b808211156146e85760008155600101615672565b600082601f830112615696578081fd5b813560206156ab6156a683615c45565b615bf6565b80838252828201915082860187848660051b89010111156156ca578586fd5b855b858110156156f15781356156df81615ec1565b845292840192908401906001016156cc565b5090979650505050505050565b80516dffffffffffffffffffffffffffff81168114610e0057600080fd5b60006020828403121561572d578081fd5b8135614afd81615ec1565b600060208284031215615749578081fd5b8151614afd81615ec1565b60008060408385031215615766578081fd5b823561577181615ec1565b9150602083013561578181615ec1565b809150509250929050565b600080600080600060a086880312156157a3578081fd5b85356157ae81615ec1565b945060208601356157be81615ec1565b935060408601356157ce81615ec1565b94979396509394606081013594506080013592915050565b6000806000606084860312156157fa578283fd5b833561580581615ec1565b9250602084013561581581615ec1565b929592945050506040919091013590565b600080600080600060a0868803121561583d578081fd5b853561584881615ec1565b9450602086013561585881615ec1565b935060408601359250606086013561586f81615ec1565b949793965091946080013592915050565b60008060408385031215615892578182fd5b823561589d81615ec1565b946020939093013593505050565b600080604083850312156158bd578182fd5b82516158c881615ec1565b6020939093015192949293505050565b6000602082840312156158e9578081fd5b813567ffffffffffffffff8111156158ff578182fd5b61590b84828501615686565b949350505050565b60006020808385031215615925578182fd5b825167ffffffffffffffff81111561593b578283fd5b8301601f8101851361594b578283fd5b80516159596156a682615c45565b80828252848201915084840188868560051b8701011115615978578687fd5b8694505b8385101561599a57805183526001949094019391850191850161597c565b50979650505050505050565b6000602082840312156159b7578081fd5b81518015158114614afd578182fd5b600080604083850312156159d8578182fd5b82359150602083013567ffffffffffffffff8111156159f5578182fd5b615a0185828601615686565b9150509250929050565b600080600060608486031215615a1f578081fd5b615a28846156fe565b9250615a36602085016156fe565b9150604084015163ffffffff81168114615a4e578182fd5b809150509250925092565b600060208284031215615a6a578081fd5b813561ffff81168114614afd578182fd5b600060208284031215615a8c578081fd5b5035919050565b600060208284031215615aa4578081fd5b5051919050565b60008060408385031215615abd578182fd5b82359150602083013561578181615ec1565b60008060408385031215615ae1578182fd5b50508035926020909101359150565b60008060408385031215615b02578182fd5b505080516020909101519092909150565b6000815480845260208085019450838352808320835b83811015615b4e5781546001600160a01b031687529582019560019182019101615b29565b509495945050505050565b604080825283519082018190526000906020906060840190828701845b82811015615b9d5781516001600160a01b0316845260208401935090840190600101615b76565b50505083810382850152845180825285830191830190845b818110156156f157835183529284019291840191600101615bb5565b600085825284602083015283604083015260806060830152612f0b6080830184615b13565b604051601f82017fffffffffffffffffffffffffffffffffffffffffffffffffffffffffffffffe016810167ffffffffffffffff81118282101715615c3d57615c3d615eab565b604052919050565b600067ffffffffffffffff821115615c5f57615c5f615eab565b5060051b60200190565b60008219821115615c7c57615c7c615e95565b500190565b600082615c9c57634e487b7160e01b81526012600452602481fd5b500490565b80825b6001808611615cb35750615cde565b818704821115615cc557615cc5615e95565b80861615615cd257918102915b9490941c938002615ca4565b94509492505050565b6000614afd7fffffffffffffffffffffffffffffffffffffffffffffffffffffffffffffffff8484600082615d1e57506001614afd565b81615d2b57506000614afd565b8160018114615d415760028114615d4b57615d78565b6001915050614afd565b60ff841115615d5c57615d5c615e95565b6001841b915084821115615d7257615d72615e95565b50614afd565b5060208310610133831016604e8410600b8410161715615dab575081810a83811115615da657615da6615e95565b614afd565b615db88484846001615ca1565b808604821115615dca57615dca615e95565b02949350505050565b6000817fffffffffffffffffffffffffffffffffffffffffffffffffffffffffffffffff0483118215151615615e0b57615e0b615e95565b500290565b600082821015615e2257615e22615e95565b500390565b600081615e3657615e36615e95565b507fffffffffffffffffffffffffffffffffffffffffffffffffffffffffffffffff0190565b60007fffffffffffffffffffffffffffffffffffffffffffffffffffffffffffffffff821415615e8e57615e8e615e95565b5060010190565b634e487b7160e01b600052601160045260246000fd5b634e487b7160e01b600052604160045260246000fd5b6001600160a01b038116811461566e57600080fdfea2646970667358221220fb8fbfe12de93832fd4c5727a8b8d336fe83d82bc26021b90fdaf1169e47c1f464736f6c63430008030033",
  "devdoc": {
    "kind": "dev",
    "methods": {
      "canBeLiquidated(address)": {
        "details": "can this trader be liquidated?"
      },
      "getBorrowAmounts(address)": {
        "details": "view function to display account borrowing state"
      },
      "getHoldingAmounts(address)": {
        "details": "view function to display account held assets state"
      },
      "registerBorrow(address,address,uint256)": {
        "details": "gets called by router to affirm borrowing event"
      },
      "registerDeposit(address,address,uint256)": {
        "details": "gets called by router to affirm a deposit to an account"
      },
      "registerLiquidation(address)": {
        "details": "can get called by router to register the dissolution of an account"
      },
      "registerOvercollateralizedBorrow(address,address,uint256,address,uint256)": {
        "details": "overcollateralized borrowing on a cross margin account, called by router"
      },
      "registerTradeAndBorrow(address,address,address,uint256,uint256)": {
        "details": "gets called by router to register a trade and borrow and extinguish as necessary"
      },
      "registerWithdrawal(address,address,uint256)": {
        "details": "gets called by router to affirm withdrawal of tokens from account"
      },
      "setCoolingOffPeriod(uint256)": {
        "details": "setter for cooling off period for withdrawing funds after deposit"
      },
      "setLeveragePercent(uint256)": {
        "details": "admin function to set leverage"
      },
      "setLiquidationThresholdPercent(uint256)": {
        "details": "admin function to set liquidation threshold"
      },
      "setTokenCap(address,uint256)": {
        "details": "admin function to set the token cap"
      },
      "viewBalanceInToken(address,address)": {
        "details": "currently holding in this token"
      },
      "viewHoldingsInPeg(address)": {
        "details": "total of assets of account, expressed in reference currency"
      },
      "viewLoanInPeg(address)": {
        "details": "view function to get loan amount in peg"
      }
    },
    "version": 1
  },
  "userdoc": {
    "kind": "user",
    "methods": {
      "addVolatilitySetting(uint256,uint256)": {
        "notice": "Add a new volatility setting"
      },
      "chooseVolatilitySetting(uint256)": {
        "notice": "Choose a volatitlity setting"
      },
      "disburseLiqStakeAttacks(address[])": {
        "notice": "Disburse liquidity stake attacks"
      },
      "getCurrentPriceInPeg(address,uint256)": {
        "notice": "Get current price of token in peg"
      },
      "liquidate(address[])": {
        "notice": "called by maintenance stakers to liquidate accounts below liquidation threshold"
      },
      "priceUpdateWindow()": {
        "notice": "update window in blocks"
      },
      "setFailureThreshold(uint256)": {
        "notice": "Set failure threshold"
      },
      "setLiqStakeAttackWindow(uint256)": {
        "notice": "Set liquidity stake attack window"
      },
      "setLiquidationPath(bytes32,address[])": {
        "notice": "add path from token to current liquidation peg"
      },
      "setMaintainerCutPercent(uint256)": {
        "notice": "Set maintainer's percent cut"
      },
      "setPriceUpdateWindow(uint16)": {
        "notice": "Set window for price updates"
      },
      "setUpdateRate(uint256)": {
        "notice": "Set rate for updates"
      },
      "viewCurrentPriceInPeg(address,uint256)": {
        "notice": "Get view of current price of token in peg"
      }
    },
    "version": 1
  },
  "storageLayout": {
    "storage": [
      {
        "astId": 11733,
        "contract": "contracts/CrossMarginTrading.sol:CrossMarginTrading",
        "label": "mainCharacterCache",
        "offset": 0,
        "slot": "0",
        "type": "t_mapping(t_uint256,t_address)"
      },
      {
        "astId": 11739,
        "contract": "contracts/CrossMarginTrading.sol:CrossMarginTrading",
        "label": "roleCache",
        "offset": 0,
        "slot": "1",
        "type": "t_mapping(t_address,t_mapping(t_uint256,t_bool))"
      },
      {
        "astId": 11118,
        "contract": "contracts/CrossMarginTrading.sol:CrossMarginTrading",
        "label": "tokenPrices",
        "offset": 0,
        "slot": "2",
        "type": "t_mapping(t_address,t_struct(TokenPrice)11092_storage)"
      },
      {
        "astId": 11122,
        "contract": "contracts/CrossMarginTrading.sol:CrossMarginTrading",
        "label": "priceUpdateWindow",
        "offset": 0,
        "slot": "3",
        "type": "t_uint256"
      },
      {
        "astId": 11125,
        "contract": "contracts/CrossMarginTrading.sol:CrossMarginTrading",
        "label": "UPDATE_RATE_PERMIL",
        "offset": 0,
        "slot": "4",
        "type": "t_uint256"
      },
      {
        "astId": 11129,
        "contract": "contracts/CrossMarginTrading.sol:CrossMarginTrading",
        "label": "volatilitySettings",
        "offset": 0,
        "slot": "5",
        "type": "t_array(t_struct(VolatilitySetting)11097_storage)dyn_storage"
      },
      {
        "astId": 2585,
        "contract": "contracts/CrossMarginTrading.sol:CrossMarginTrading",
        "label": "leveragePercent",
        "offset": 0,
        "slot": "6",
        "type": "t_uint256"
      },
      {
        "astId": 2589,
        "contract": "contracts/CrossMarginTrading.sol:CrossMarginTrading",
        "label": "liquidationThresholdPercent",
        "offset": 0,
        "slot": "7",
        "type": "t_uint256"
      },
      {
        "astId": 2595,
        "contract": "contracts/CrossMarginTrading.sol:CrossMarginTrading",
        "label": "marginAccounts",
        "offset": 0,
        "slot": "8",
        "type": "t_mapping(t_address,t_struct(CrossMarginAccount)2577_storage)"
      },
      {
        "astId": 2600,
        "contract": "contracts/CrossMarginTrading.sol:CrossMarginTrading",
        "label": "tokenCaps",
        "offset": 0,
        "slot": "9",
        "type": "t_mapping(t_address,t_uint256)"
      },
      {
        "astId": 2605,
        "contract": "contracts/CrossMarginTrading.sol:CrossMarginTrading",
        "label": "totalShort",
        "offset": 0,
        "slot": "10",
        "type": "t_mapping(t_address,t_uint256)"
      },
      {
        "astId": 2610,
        "contract": "contracts/CrossMarginTrading.sol:CrossMarginTrading",
        "label": "totalLong",
        "offset": 0,
        "slot": "11",
        "type": "t_mapping(t_address,t_uint256)"
      },
      {
        "astId": 2613,
        "contract": "contracts/CrossMarginTrading.sol:CrossMarginTrading",
        "label": "coolingOffPeriod",
        "offset": 0,
        "slot": "12",
        "type": "t_uint256"
      },
      {
        "astId": 3504,
        "contract": "contracts/CrossMarginTrading.sol:CrossMarginTrading",
        "label": "liquidationAmounts",
        "offset": 0,
        "slot": "13",
        "type": "t_mapping(t_address,t_struct(Liquidation)3490_storage)"
      },
      {
        "astId": 3507,
        "contract": "contracts/CrossMarginTrading.sol:CrossMarginTrading",
        "label": "sellTokens",
        "offset": 0,
        "slot": "14",
        "type": "t_array(t_address)dyn_storage"
      },
      {
        "astId": 3510,
        "contract": "contracts/CrossMarginTrading.sol:CrossMarginTrading",
        "label": "buyTokens",
        "offset": 0,
        "slot": "15",
        "type": "t_array(t_address)dyn_storage"
      },
      {
        "astId": 3513,
        "contract": "contracts/CrossMarginTrading.sol:CrossMarginTrading",
        "label": "tradersToLiquidate",
        "offset": 0,
        "slot": "16",
        "type": "t_array(t_address)dyn_storage"
      },
      {
        "astId": 3517,
        "contract": "contracts/CrossMarginTrading.sol:CrossMarginTrading",
        "label": "maintenanceFailures",
        "offset": 0,
        "slot": "17",
        "type": "t_mapping(t_address,t_uint256)"
      },
      {
        "astId": 3522,
        "contract": "contracts/CrossMarginTrading.sol:CrossMarginTrading",
        "label": "stakeAttackRecords",
        "offset": 0,
        "slot": "18",
        "type": "t_mapping(t_address,t_struct(AccountLiqRecord)3499_storage)"
      },
      {
        "astId": 3525,
        "contract": "contracts/CrossMarginTrading.sol:CrossMarginTrading",
        "label": "avgLiquidationPerCall",
        "offset": 0,
        "slot": "19",
        "type": "t_uint256"
      },
      {
        "astId": 3528,
        "contract": "contracts/CrossMarginTrading.sol:CrossMarginTrading",
        "label": "liqStakeAttackWindow",
        "offset": 0,
        "slot": "20",
        "type": "t_uint256"
      },
      {
        "astId": 3531,
        "contract": "contracts/CrossMarginTrading.sol:CrossMarginTrading",
        "label": "MAINTAINER_CUT_PERCENT",
        "offset": 0,
        "slot": "21",
        "type": "t_uint256"
      },
      {
        "astId": 3534,
        "contract": "contracts/CrossMarginTrading.sol:CrossMarginTrading",
        "label": "failureThreshold",
        "offset": 0,
        "slot": "22",
        "type": "t_uint256"
      }
    ],
    "types": {
      "t_address": {
        "encoding": "inplace",
        "label": "address",
        "numberOfBytes": "20"
      },
      "t_array(t_address)dyn_storage": {
        "base": "t_address",
        "encoding": "dynamic_array",
        "label": "address[]",
        "numberOfBytes": "32"
      },
      "t_array(t_struct(VolatilitySetting)11097_storage)dyn_storage": {
        "base": "t_struct(VolatilitySetting)11097_storage",
        "encoding": "dynamic_array",
        "label": "struct VolatilitySetting[]",
        "numberOfBytes": "32"
      },
      "t_bool": {
        "encoding": "inplace",
        "label": "bool",
        "numberOfBytes": "1"
      },
      "t_bytes32": {
        "encoding": "inplace",
        "label": "bytes32",
        "numberOfBytes": "32"
      },
      "t_mapping(t_address,t_bool)": {
        "encoding": "mapping",
        "key": "t_address",
        "label": "mapping(address => bool)",
        "numberOfBytes": "32",
        "value": "t_bool"
      },
      "t_mapping(t_address,t_mapping(t_uint256,t_bool))": {
        "encoding": "mapping",
        "key": "t_address",
        "label": "mapping(address => mapping(uint256 => bool))",
        "numberOfBytes": "32",
        "value": "t_mapping(t_uint256,t_bool)"
      },
      "t_mapping(t_address,t_struct(AccountLiqRecord)3499_storage)": {
        "encoding": "mapping",
        "key": "t_address",
        "label": "mapping(address => struct CrossMarginLiquidation.AccountLiqRecord)",
        "numberOfBytes": "32",
        "value": "t_struct(AccountLiqRecord)3499_storage"
      },
      "t_mapping(t_address,t_struct(CrossMarginAccount)2577_storage)": {
        "encoding": "mapping",
        "key": "t_address",
        "label": "mapping(address => struct CrossMarginAccount)",
        "numberOfBytes": "32",
        "value": "t_struct(CrossMarginAccount)2577_storage"
      },
      "t_mapping(t_address,t_struct(Liquidation)3490_storage)": {
        "encoding": "mapping",
        "key": "t_address",
        "label": "mapping(address => struct CrossMarginLiquidation.Liquidation)",
        "numberOfBytes": "32",
        "value": "t_struct(Liquidation)3490_storage"
      },
      "t_mapping(t_address,t_struct(TokenPrice)11092_storage)": {
        "encoding": "mapping",
        "key": "t_address",
        "label": "mapping(address => struct TokenPrice)",
        "numberOfBytes": "32",
        "value": "t_struct(TokenPrice)11092_storage"
      },
      "t_mapping(t_address,t_uint256)": {
        "encoding": "mapping",
        "key": "t_address",
        "label": "mapping(address => uint256)",
        "numberOfBytes": "32",
        "value": "t_uint256"
      },
      "t_mapping(t_uint256,t_address)": {
        "encoding": "mapping",
        "key": "t_uint256",
        "label": "mapping(uint256 => address)",
        "numberOfBytes": "32",
        "value": "t_address"
      },
      "t_mapping(t_uint256,t_bool)": {
        "encoding": "mapping",
        "key": "t_uint256",
        "label": "mapping(uint256 => bool)",
        "numberOfBytes": "32",
        "value": "t_bool"
      },
      "t_struct(AccountLiqRecord)3499_storage": {
        "encoding": "inplace",
        "label": "struct CrossMarginLiquidation.AccountLiqRecord",
        "members": [
          {
            "astId": 3492,
            "contract": "contracts/CrossMarginTrading.sol:CrossMarginTrading",
            "label": "blockNum",
            "offset": 0,
            "slot": "0",
            "type": "t_uint256"
          },
          {
            "astId": 3494,
            "contract": "contracts/CrossMarginTrading.sol:CrossMarginTrading",
            "label": "loser",
            "offset": 0,
            "slot": "1",
            "type": "t_address"
          },
          {
            "astId": 3496,
            "contract": "contracts/CrossMarginTrading.sol:CrossMarginTrading",
            "label": "amount",
            "offset": 0,
            "slot": "2",
            "type": "t_uint256"
          },
          {
            "astId": 3498,
            "contract": "contracts/CrossMarginTrading.sol:CrossMarginTrading",
            "label": "stakeAttacker",
            "offset": 0,
            "slot": "3",
            "type": "t_address"
          }
        ],
        "numberOfBytes": "128"
      },
      "t_struct(CrossMarginAccount)2577_storage": {
        "encoding": "inplace",
        "label": "struct CrossMarginAccount",
        "members": [
          {
            "astId": 2554,
            "contract": "contracts/CrossMarginTrading.sol:CrossMarginTrading",
            "label": "lastDepositBlock",
            "offset": 0,
            "slot": "0",
            "type": "t_uint256"
          },
          {
            "astId": 2557,
            "contract": "contracts/CrossMarginTrading.sol:CrossMarginTrading",
            "label": "borrowTokens",
            "offset": 0,
            "slot": "1",
            "type": "t_array(t_address)dyn_storage"
          },
          {
            "astId": 2561,
            "contract": "contracts/CrossMarginTrading.sol:CrossMarginTrading",
            "label": "borrowed",
            "offset": 0,
            "slot": "2",
            "type": "t_mapping(t_address,t_uint256)"
          },
          {
            "astId": 2565,
            "contract": "contracts/CrossMarginTrading.sol:CrossMarginTrading",
            "label": "borrowedYieldQuotientsFP",
            "offset": 0,
            "slot": "3",
            "type": "t_mapping(t_address,t_uint256)"
          },
          {
            "astId": 2568,
            "contract": "contracts/CrossMarginTrading.sol:CrossMarginTrading",
            "label": "holdingTokens",
            "offset": 0,
            "slot": "4",
            "type": "t_array(t_address)dyn_storage"
          },
          {
            "astId": 2572,
            "contract": "contracts/CrossMarginTrading.sol:CrossMarginTrading",
            "label": "holdings",
            "offset": 0,
            "slot": "5",
            "type": "t_mapping(t_address,t_uint256)"
          },
          {
            "astId": 2576,
            "contract": "contracts/CrossMarginTrading.sol:CrossMarginTrading",
            "label": "holdsToken",
            "offset": 0,
            "slot": "6",
            "type": "t_mapping(t_address,t_bool)"
          }
        ],
        "numberOfBytes": "224"
      },
      "t_struct(Liquidation)3490_storage": {
        "encoding": "inplace",
        "label": "struct CrossMarginLiquidation.Liquidation",
        "members": [
          {
            "astId": 3485,
            "contract": "contracts/CrossMarginTrading.sol:CrossMarginTrading",
            "label": "buy",
            "offset": 0,
            "slot": "0",
            "type": "t_uint256"
          },
          {
            "astId": 3487,
            "contract": "contracts/CrossMarginTrading.sol:CrossMarginTrading",
            "label": "sell",
            "offset": 0,
            "slot": "1",
            "type": "t_uint256"
          },
          {
            "astId": 3489,
            "contract": "contracts/CrossMarginTrading.sol:CrossMarginTrading",
            "label": "blockNum",
            "offset": 0,
            "slot": "2",
            "type": "t_uint256"
          }
        ],
        "numberOfBytes": "96"
      },
      "t_struct(TokenPrice)11092_storage": {
        "encoding": "inplace",
        "label": "struct TokenPrice",
        "members": [
          {
            "astId": 11079,
            "contract": "contracts/CrossMarginTrading.sol:CrossMarginTrading",
            "label": "blockLastUpdated",
            "offset": 0,
            "slot": "0",
            "type": "t_uint256"
          },
          {
            "astId": 11081,
            "contract": "contracts/CrossMarginTrading.sol:CrossMarginTrading",
            "label": "tokenPerRefAmount",
            "offset": 0,
            "slot": "1",
            "type": "t_uint256"
          },
          {
            "astId": 11084,
            "contract": "contracts/CrossMarginTrading.sol:CrossMarginTrading",
            "label": "liquidationTokens",
            "offset": 0,
            "slot": "2",
            "type": "t_array(t_address)dyn_storage"
          },
          {
            "astId": 11086,
            "contract": "contracts/CrossMarginTrading.sol:CrossMarginTrading",
            "label": "amms",
            "offset": 0,
            "slot": "3",
            "type": "t_bytes32"
          },
          {
            "astId": 11089,
            "contract": "contracts/CrossMarginTrading.sol:CrossMarginTrading",
            "label": "inverseLiquidationTokens",
            "offset": 0,
            "slot": "4",
            "type": "t_array(t_address)dyn_storage"
          },
          {
            "astId": 11091,
            "contract": "contracts/CrossMarginTrading.sol:CrossMarginTrading",
            "label": "inverseAmms",
            "offset": 0,
            "slot": "5",
            "type": "t_bytes32"
          }
        ],
        "numberOfBytes": "192"
      },
      "t_struct(VolatilitySetting)11097_storage": {
        "encoding": "inplace",
        "label": "struct VolatilitySetting",
        "members": [
          {
            "astId": 11094,
            "contract": "contracts/CrossMarginTrading.sol:CrossMarginTrading",
            "label": "priceUpdateWindow",
            "offset": 0,
            "slot": "0",
            "type": "t_uint256"
          },
          {
            "astId": 11096,
            "contract": "contracts/CrossMarginTrading.sol:CrossMarginTrading",
            "label": "updateRatePermil",
            "offset": 0,
            "slot": "1",
            "type": "t_uint256"
          }
        ],
        "numberOfBytes": "64"
      },
      "t_uint256": {
        "encoding": "inplace",
        "label": "uint256",
        "numberOfBytes": "32"
      }
    }
  }
}