{
  "address": "0xC954C8a4436057C2cd6aDb613Fc5418E9289c1C8",
  "abi": [
    {
      "inputs": [
        {
          "internalType": "address",
          "name": "_WETH",
          "type": "address"
        },
        {
          "internalType": "address",
          "name": "_amm1Factory",
          "type": "address"
        },
        {
          "internalType": "address",
          "name": "_amm2Factory",
          "type": "address"
        },
        {
          "internalType": "address",
          "name": "_amm3Factory",
          "type": "address"
        },
        {
          "internalType": "bytes32",
          "name": "_amm1InitHash",
          "type": "bytes32"
        },
        {
          "internalType": "bytes32",
          "name": "_amm2InitHash",
          "type": "bytes32"
        },
        {
          "internalType": "bytes32",
          "name": "_amm3InitHash",
          "type": "bytes32"
        }
      ],
      "stateMutability": "nonpayable",
      "type": "constructor"
    },
    {
      "anonymous": false,
      "inputs": [
        {
          "indexed": true,
          "internalType": "address",
          "name": "trader",
          "type": "address"
        },
        {
          "indexed": false,
          "internalType": "address",
          "name": "fromToken",
          "type": "address"
        },
        {
          "indexed": false,
          "internalType": "address",
          "name": "toToken",
          "type": "address"
        },
        {
          "indexed": false,
          "internalType": "uint256",
          "name": "fromAmount",
          "type": "uint256"
        },
        {
          "indexed": false,
          "internalType": "uint256",
          "name": "toAmount",
          "type": "uint256"
        }
      ],
      "name": "SpotTrade",
      "type": "event"
    },
    {
      "inputs": [],
      "name": "WETH",
      "outputs": [
        {
          "internalType": "address",
          "name": "",
          "type": "address"
        }
      ],
      "stateMutability": "view",
      "type": "function"
    },
    {
      "inputs": [],
      "name": "amm1Factory",
      "outputs": [
        {
          "internalType": "address",
          "name": "",
          "type": "address"
        }
      ],
      "stateMutability": "view",
      "type": "function"
    },
    {
      "inputs": [],
      "name": "amm1InitHash",
      "outputs": [
        {
          "internalType": "bytes32",
          "name": "",
          "type": "bytes32"
        }
      ],
      "stateMutability": "view",
      "type": "function"
    },
    {
      "inputs": [],
      "name": "amm2Factory",
      "outputs": [
        {
          "internalType": "address",
          "name": "",
          "type": "address"
        }
      ],
      "stateMutability": "view",
      "type": "function"
    },
    {
      "inputs": [],
      "name": "amm2InitHash",
      "outputs": [
        {
          "internalType": "bytes32",
          "name": "",
          "type": "bytes32"
        }
      ],
      "stateMutability": "view",
      "type": "function"
    },
    {
      "inputs": [],
      "name": "amm3Factory",
      "outputs": [
        {
          "internalType": "address",
          "name": "",
          "type": "address"
        }
      ],
      "stateMutability": "view",
      "type": "function"
    },
    {
      "inputs": [],
      "name": "amm3InitHash",
      "outputs": [
        {
          "internalType": "bytes32",
          "name": "",
          "type": "bytes32"
        }
      ],
      "stateMutability": "view",
      "type": "function"
    },
    {
      "inputs": [
        {
          "internalType": "uint256",
          "name": "outAmount",
          "type": "uint256"
        },
        {
          "internalType": "bytes32",
          "name": "amms",
          "type": "bytes32"
        },
        {
          "internalType": "address[]",
          "name": "tokens",
          "type": "address[]"
        }
      ],
      "name": "getAmountsIn",
      "outputs": [
        {
          "internalType": "uint256[]",
          "name": "amounts",
          "type": "uint256[]"
        }
      ],
      "stateMutability": "view",
      "type": "function"
    },
    {
      "inputs": [
        {
          "internalType": "uint256",
          "name": "inAmount",
          "type": "uint256"
        },
        {
          "internalType": "bytes32",
          "name": "amms",
          "type": "bytes32"
        },
        {
          "internalType": "address[]",
          "name": "tokens",
          "type": "address[]"
        }
      ],
      "name": "getAmountsOut",
      "outputs": [
        {
          "internalType": "uint256[]",
          "name": "amounts",
          "type": "uint256[]"
        }
      ],
      "stateMutability": "view",
      "type": "function"
    },
    {
      "inputs": [
        {
          "internalType": "uint256",
          "name": "amountOut",
          "type": "uint256"
        },
        {
          "internalType": "bytes32",
          "name": "amms",
          "type": "bytes32"
        },
        {
          "internalType": "address[]",
          "name": "tokens",
          "type": "address[]"
        },
        {
          "internalType": "address",
          "name": "to",
          "type": "address"
        },
        {
          "internalType": "uint256",
          "name": "deadline",
          "type": "uint256"
        }
      ],
      "name": "swapETHForExactTokens",
      "outputs": [
        {
          "internalType": "uint256[]",
          "name": "amounts",
          "type": "uint256[]"
        }
      ],
      "stateMutability": "payable",
      "type": "function"
    },
    {
      "inputs": [
        {
          "internalType": "uint256",
          "name": "amountOutMin",
          "type": "uint256"
        },
        {
          "internalType": "bytes32",
          "name": "amms",
          "type": "bytes32"
        },
        {
          "internalType": "address[]",
          "name": "tokens",
          "type": "address[]"
        },
        {
          "internalType": "address",
          "name": "to",
          "type": "address"
        },
        {
          "internalType": "uint256",
          "name": "deadline",
          "type": "uint256"
        }
      ],
      "name": "swapExactETHForTokens",
      "outputs": [
        {
          "internalType": "uint256[]",
          "name": "amounts",
          "type": "uint256[]"
        }
      ],
      "stateMutability": "payable",
      "type": "function"
    },
    {
      "inputs": [
        {
          "internalType": "uint256",
          "name": "amountIn",
          "type": "uint256"
        },
        {
          "internalType": "uint256",
          "name": "amountOutMin",
          "type": "uint256"
        },
        {
          "internalType": "bytes32",
          "name": "amms",
          "type": "bytes32"
        },
        {
          "internalType": "address[]",
          "name": "tokens",
          "type": "address[]"
        },
        {
          "internalType": "address",
          "name": "to",
          "type": "address"
        },
        {
          "internalType": "uint256",
          "name": "deadline",
          "type": "uint256"
        }
      ],
      "name": "swapExactTokensForETH",
      "outputs": [
        {
          "internalType": "uint256[]",
          "name": "amounts",
          "type": "uint256[]"
        }
      ],
      "stateMutability": "nonpayable",
      "type": "function"
    },
    {
      "inputs": [
        {
          "internalType": "uint256",
          "name": "amountIn",
          "type": "uint256"
        },
        {
          "internalType": "uint256",
          "name": "amountOutMin",
          "type": "uint256"
        },
        {
          "internalType": "bytes32",
          "name": "amms",
          "type": "bytes32"
        },
        {
          "internalType": "address[]",
          "name": "tokens",
          "type": "address[]"
        },
        {
          "internalType": "address",
          "name": "to",
          "type": "address"
        },
        {
          "internalType": "uint256",
          "name": "deadline",
          "type": "uint256"
        }
      ],
      "name": "swapExactTokensForTokens",
      "outputs": [
        {
          "internalType": "uint256[]",
          "name": "amounts",
          "type": "uint256[]"
        }
      ],
      "stateMutability": "nonpayable",
      "type": "function"
    },
    {
      "inputs": [
        {
          "internalType": "uint256",
          "name": "amountOut",
          "type": "uint256"
        },
        {
          "internalType": "uint256",
          "name": "amountInMax",
          "type": "uint256"
        },
        {
          "internalType": "bytes32",
          "name": "amms",
          "type": "bytes32"
        },
        {
          "internalType": "address[]",
          "name": "tokens",
          "type": "address[]"
        },
        {
          "internalType": "address",
          "name": "to",
          "type": "address"
        },
        {
          "internalType": "uint256",
          "name": "deadline",
          "type": "uint256"
        }
      ],
      "name": "swapTokensForExactETH",
      "outputs": [
        {
          "internalType": "uint256[]",
          "name": "amounts",
          "type": "uint256[]"
        }
      ],
      "stateMutability": "nonpayable",
      "type": "function"
    },
    {
      "inputs": [
        {
          "internalType": "uint256",
          "name": "amountOut",
          "type": "uint256"
        },
        {
          "internalType": "uint256",
          "name": "amountInMax",
          "type": "uint256"
        },
        {
          "internalType": "bytes32",
          "name": "amms",
          "type": "bytes32"
        },
        {
          "internalType": "address[]",
          "name": "tokens",
          "type": "address[]"
        },
        {
          "internalType": "address",
          "name": "to",
          "type": "address"
        },
        {
          "internalType": "uint256",
          "name": "deadline",
          "type": "uint256"
        }
      ],
      "name": "swapTokensForExactTokens",
      "outputs": [
        {
          "internalType": "uint256[]",
          "name": "amounts",
          "type": "uint256[]"
        }
      ],
      "stateMutability": "nonpayable",
      "type": "function"
    },
    {
      "stateMutability": "payable",
      "type": "receive"
    }
  ],
  "transactionHash": "0x8e1118d63ad2e7521b2bd5a76c5e108d070fbe3d5763e84243cf8c5606eacd1f",
  "args": [
    "0xC02aaA39b223FE8D0A0e5C4F27eAD9083C756Cc2",
    "0x5C69bEe701ef814a2B6a3EDD4B1652CB9cc5aA6f",
    "0xC0AEe478e3658e2610c5F7A4A2E1777cE9e4f2Ac",
    "0x0000000000000000000000000000000000000000",
    "0x96e8ac4277198ff8b6f785478aa9a39f403cb768dd02cbee326c3e7da348845f",
    "0xe18a34eb0e04b04f7a0ac29a6e80748dca96319b42c54d679cb821dca90c6303",
    "0x0000000000000000000000000000000000000000000000000000000000000000"
  ],
  "solcInputHash": "bb468b0809fec263caef1dc4fdd1da46",
  "bytecode": "0x6101006040523480156200001257600080fd5b506040516200311b3803806200311b83398101604081905262000035916200008e565b6001600160601b0319606096871b811660805294861b851660a05292851b841660c05260009190915560015560025591901b1660e05262000107565b80516001600160a01b03811681146200008957600080fd5b919050565b600080600080600080600060e0888a031215620000a9578283fd5b620000b48862000071565b9650620000c46020890162000071565b9550620000d46040890162000071565b9450620000e46060890162000071565b93506080880151925060a0880151915060c0880151905092959891949750929550565b60805160601c60a05160601c60c05160601c60e05160601c612f74620001a76000396000818160fc01528181610272015281816103d00152818161065501528181610c0a01528181610e3a01528181610fe10152818161107d01528181611341015281816114dd0152611579015260008181610320015261222d01526000818161015001526123410152600081816102c601526124160152612f746000f3fe6080604052600436106100ec5760003560e01c8063ad5c46481161008a578063d7bd007c11610059578063d7bd007c146102fb578063db4292351461030e578063df7c20f914610342578063e2abb5c41461035857610139565b8063ad5c464814610260578063b7453e2714610294578063b852eb0d146102b4578063d51dc254146102e857610139565b8063799d34e1116100c6578063799d34e1146101dc5780637f4da6d4146101fc5780639b6b1ce71461021c578063a75208a81461023c57610139565b8063059b157a1461013e5780632c8c29dd1461018f57806336e1437b146101bc57610139565b3661013957336001600160a01b037f0000000000000000000000000000000000000000000000000000000000000000161461013757634e487b7160e01b600052600160045260246000fd5b005b600080fd5b34801561014a57600080fd5b506101727f000000000000000000000000000000000000000000000000000000000000000081565b6040516001600160a01b0390911681526020015b60405180910390f35b34801561019b57600080fd5b506101af6101aa366004612cf8565b61036e565b6040516101869190612dd7565b3480156101c857600080fd5b506101af6101d7366004612cf8565b610881565b3480156101e857600080fd5b506101af6101f7366004612c39565b610a2a565b34801561020857600080fd5b506101af610217366004612cf8565b610a74565b34801561022857600080fd5b506101af610237366004612cf8565b610bad565b34801561024857600080fd5b5061025260005481565b604051908152602001610186565b34801561026c57600080fd5b506101727f000000000000000000000000000000000000000000000000000000000000000081565b3480156102a057600080fd5b506101af6102af366004612c39565b610da5565b3480156102c057600080fd5b506101727f000000000000000000000000000000000000000000000000000000000000000081565b6101af6102f6366004612c8a565b610de5565b6101af610309366004612c8a565b6112ec565b34801561031a57600080fd5b506101727f000000000000000000000000000000000000000000000000000000000000000081565b34801561034e57600080fd5b5061025260015481565b34801561036457600080fd5b5061025260025481565b606081428110156103c65760405162461bcd60e51b815260206004820152601160248201527f547261646520686173206578706972656400000000000000000000000000000060448201526064015b60405180910390fd5b6001600160a01b037f00000000000000000000000000000000000000000000000000000000000000001686866103fd600182612eb3565b81811061041a57634e487b7160e01b600052603260045260246000fd5b905060200201602081019061042f9190612bb1565b6001600160a01b0316146104855760405162461bcd60e51b815260206004820152601860248201527f53706f74526f757465723a20494e56414c49445f50415448000000000000000060448201526064016103bd565b60606104c58a8989898080602002602001604051908101604052809392919081815260200183836020028082843760009201919091525061174292505050565b81519194509150899084906104dc90600190612eb3565b815181106104fa57634e487b7160e01b600052603260045260246000fd5b602002602001015110156105765760405162461bcd60e51b815260206004820152602660248201527f53706f74526f757465723a20494e53554646494349454e545f4f55545055545f60448201527f414d4f554e54000000000000000000000000000000000000000000000000000060648201526084016103bd565b610613338260008151811061059b57634e487b7160e01b600052603260045260246000fd5b6020026020010151856000815181106105c457634e487b7160e01b600052603260045260246000fd5b60200260200101518a8a60008181106105ed57634e487b7160e01b600052603260045260246000fd5b90506020020160208101906106029190612bb1565b6001600160a01b0316929190611a98565b6106538382898980806020026020016040519081016040528093929190818152602001838360200280828437600092019190915250309250611b26915050565b7f00000000000000000000000000000000000000000000000000000000000000006001600160a01b0316632e1a7d4d84600186516106919190612eb3565b815181106106af57634e487b7160e01b600052603260045260246000fd5b60200260200101516040518263ffffffff1660e01b81526004016106d591815260200190565b600060405180830381600087803b1580156106ef57600080fd5b505af1158015610703573d6000803e3d6000fd5b5050505061074585846001865161071a9190612eb3565b8151811061073857634e487b7160e01b600052603260045260246000fd5b6020026020010151611d5b565b337f83488e4733b2f3ed20b8189f656b48646559d07db7be658c641f0d8bfec2b0f9888860008161078657634e487b7160e01b600052603260045260246000fd5b905060200201602081019061079b9190612bb1565b89896107a8600182612eb3565b8181106107c557634e487b7160e01b600052603260045260246000fd5b90506020020160208101906107da9190612bb1565b866000815181106107fb57634e487b7160e01b600052603260045260246000fd5b602002602001015187600189516108129190612eb3565b8151811061083057634e487b7160e01b600052603260045260246000fd5b602002602001015160405161086c94939291906001600160a01b0394851681529290931660208301526040820152606081019190915260800190565b60405180910390a25050979650505050505050565b606081428110156108d45760405162461bcd60e51b815260206004820152601160248201527f547261646520686173206578706972656400000000000000000000000000000060448201526064016103bd565b60606109148a8989898080602002602001604051908101604052809392919081815260200183836020028082843760009201919091525061174292505050565b815191945091508990849061092b90600190612eb3565b8151811061094957634e487b7160e01b600052603260045260246000fd5b602002602001015110156109c55760405162461bcd60e51b815260206004820152602660248201527f53706f74526f757465723a20494e53554646494349454e545f4f55545055545f60448201527f414d4f554e54000000000000000000000000000000000000000000000000000060648201526084016103bd565b6109ea338260008151811061059b57634e487b7160e01b600052603260045260246000fd5b61074583828989808060200260200160405190810160405280939291908181526020018383602002808284376000920191909152508b9250611b26915050565b6060610a6a8585858580806020026020016040519081016040528093929190818152602001838360200280828437600092019190915250611e7992505050565b5095945050505050565b60608142811015610ac75760405162461bcd60e51b815260206004820152601160248201527f547261646520686173206578706972656400000000000000000000000000000060448201526064016103bd565b6060610b078a89898980806020026020016040519081016040528093929190818152602001838360200280828437600092019190915250611e7992505050565b80925081945050508883600081518110610b3157634e487b7160e01b600052603260045260246000fd5b602002602001015111156109c55760405162461bcd60e51b815260206004820152602260248201527f53706f74526f757465723a204558434553534956455f494e5055545f414d4f5560448201527f4e5400000000000000000000000000000000000000000000000000000000000060648201526084016103bd565b60608142811015610c005760405162461bcd60e51b815260206004820152601160248201527f547261646520686173206578706972656400000000000000000000000000000060448201526064016103bd565b6001600160a01b037f0000000000000000000000000000000000000000000000000000000000000000168686610c37600182612eb3565b818110610c5457634e487b7160e01b600052603260045260246000fd5b9050602002016020810190610c699190612bb1565b6001600160a01b031614610cbf5760405162461bcd60e51b815260206004820152601860248201527f53706f74526f757465723a20494e56414c49445f50415448000000000000000060448201526064016103bd565b6060610cff8a89898980806020026020016040519081016040528093929190818152602001838360200280828437600092019190915250611e7992505050565b80925081945050508883600081518110610d2957634e487b7160e01b600052603260045260246000fd5b602002602001015111156105765760405162461bcd60e51b815260206004820152602260248201527f53706f74526f757465723a204558434553534956455f494e5055545f414d4f5560448201527f4e5400000000000000000000000000000000000000000000000000000000000060648201526084016103bd565b6060610a6a858585858080602002602001604051908101604052809392919081815260200183836020028082843760009201919091525061174292505050565b60608142811015610e385760405162461bcd60e51b815260206004820152601160248201527f547261646520686173206578706972656400000000000000000000000000000060448201526064016103bd565b7f00000000000000000000000000000000000000000000000000000000000000006001600160a01b031686866000818110610e8357634e487b7160e01b600052603260045260246000fd5b9050602002016020810190610e989190612bb1565b6001600160a01b031614610eee5760405162461bcd60e51b815260206004820152601860248201527f53706f74526f757465723a20494e56414c49445f50415448000000000000000060448201526064016103bd565b6060610f2e348989898080602002602001604051908101604052809392919081815260200183836020028082843760009201919091525061174292505050565b8151919450915089908490610f4590600190612eb3565b81518110610f6357634e487b7160e01b600052603260045260246000fd5b60200260200101511015610fdf5760405162461bcd60e51b815260206004820152602660248201527f53706f74526f757465723a20494e53554646494349454e545f4f55545055545f60448201527f414d4f554e54000000000000000000000000000000000000000000000000000060648201526084016103bd565b7f00000000000000000000000000000000000000000000000000000000000000006001600160a01b031663d0e30db08460008151811061102f57634e487b7160e01b600052603260045260246000fd5b60200260200101516040518263ffffffff1660e01b81526004016000604051808303818588803b15801561106257600080fd5b505af1158015611076573d6000803e3d6000fd5b50505050507f00000000000000000000000000000000000000000000000000000000000000006001600160a01b031663a9059cbb826000815181106110cb57634e487b7160e01b600052603260045260246000fd5b6020026020010151346040518363ffffffff1660e01b81526004016111059291906001600160a01b03929092168252602082015260400190565b602060405180830381600087803b15801561111f57600080fd5b505af1158015611133573d6000803e3d6000fd5b505050506040513d601f19601f820116820180604052508101906111579190612bcb565b61117157634e487b7160e01b600052600160045260246000fd5b6111b183828989808060200260200160405190810160405280939291908181526020018383602002808284376000920191909152508b9250611b26915050565b337f83488e4733b2f3ed20b8189f656b48646559d07db7be658c641f0d8bfec2b0f988886000816111f257634e487b7160e01b600052603260045260246000fd5b90506020020160208101906112079190612bb1565b8989611214600182612eb3565b81811061123157634e487b7160e01b600052603260045260246000fd5b90506020020160208101906112469190612bb1565b8660008151811061126757634e487b7160e01b600052603260045260246000fd5b6020026020010151876001895161127e9190612eb3565b8151811061129c57634e487b7160e01b600052603260045260246000fd5b60200260200101516040516112d894939291906001600160a01b0394851681529290931660208301526040820152606081019190915260800190565b60405180910390a250509695505050505050565b6060814281101561133f5760405162461bcd60e51b815260206004820152601160248201527f547261646520686173206578706972656400000000000000000000000000000060448201526064016103bd565b7f00000000000000000000000000000000000000000000000000000000000000006001600160a01b03168686600081811061138a57634e487b7160e01b600052603260045260246000fd5b905060200201602081019061139f9190612bb1565b6001600160a01b0316146113f55760405162461bcd60e51b815260206004820152601860248201527f53706f74526f757465723a20494e56414c49445f50415448000000000000000060448201526064016103bd565b60606114358989898980806020026020016040519081016040528093929190818152602001838360200280828437600092019190915250611e7992505050565b8092508194505050348360008151811061145f57634e487b7160e01b600052603260045260246000fd5b602002602001015111156114db5760405162461bcd60e51b815260206004820152602260248201527f53706f74526f757465723a204558434553534956455f494e5055545f414d4f5560448201527f4e5400000000000000000000000000000000000000000000000000000000000060648201526084016103bd565b7f00000000000000000000000000000000000000000000000000000000000000006001600160a01b031663d0e30db08460008151811061152b57634e487b7160e01b600052603260045260246000fd5b60200260200101516040518263ffffffff1660e01b81526004016000604051808303818588803b15801561155e57600080fd5b505af1158015611572573d6000803e3d6000fd5b50505050507f00000000000000000000000000000000000000000000000000000000000000006001600160a01b031663a9059cbb826000815181106115c757634e487b7160e01b600052603260045260246000fd5b6020026020010151856000815181106115f057634e487b7160e01b600052603260045260246000fd5b60200260200101516040518363ffffffff1660e01b81526004016116299291906001600160a01b03929092168252602082015260400190565b602060405180830381600087803b15801561164357600080fd5b505af1158015611657573d6000803e3d6000fd5b505050506040513d601f19601f8201168201806040525081019061167b9190612bcb565b61169557634e487b7160e01b600052600160045260246000fd5b6116d583828989808060200260200160405190810160405280939291908181526020018383602002808284376000920191909152508b9250611b26915050565b826000815181106116f657634e487b7160e01b600052603260045260246000fd5b60200260200101513411156111b1576111b1338460008151811061172a57634e487b7160e01b600052603260045260246000fd5b60200260200101513461173d9190612eb3565b611d5b565b6060806002835110156117975760405162461bcd60e51b815260206004820152601460248201527f746f6b656e207061746820746f6f2073686f727400000000000000000000000060448201526064016103bd565b825167ffffffffffffffff8111156117bf57634e487b7160e01b600052604160045260246000fd5b6040519080825280602002602001820160405280156117e8578160200160208202803683370190505b509150848260008151811061180d57634e487b7160e01b600052603260045260246000fd5b602002602001018181525050600183516118279190612eb3565b67ffffffffffffffff81111561184d57634e487b7160e01b600052604160045260246000fd5b604051908082528060200260200182016040528015611876578160200160208202803683370190505b50905060005b6001845161188a9190612eb3565b811015611a8f5760008482815181106118b357634e487b7160e01b600052603260045260246000fd5b602002602001015190506000858360016118cd9190612e5c565b815181106118eb57634e487b7160e01b600052603260045260246000fd5b60200260200101519050600087846020811061191757634e487b7160e01b600052603260045260246000fd5b1a60f81b7fff0000000000000000000000000000000000000000000000000000000000000016156119b05787846020811061196257634e487b7160e01b600052603260045260246000fd5b1a60f81b7effffffffffffffffffffffffffffffffffffffffffffffffffffffffffffff1916600160f81b146119a15761199c83836121f1565b6119ab565b6119ab8383612305565b6119ba565b6119ba83836123da565b9050808585815181106119dd57634e487b7160e01b600052603260045260246000fd5b60200260200101906001600160a01b031690816001600160a01b031681525050600080611a0b8386866124af565b91509150611a41888781518110611a3257634e487b7160e01b600052603260045260246000fd5b6020026020010151838361258c565b88611a4d886001612e5c565b81518110611a6b57634e487b7160e01b600052603260045260246000fd5b60200260200101818152505050505050508080611a8790612f0d565b91505061187c565b50935093915050565b604080516001600160a01b0385811660248301528416604482015260648082018490528251808303909101815260849091019091526020810180517bffffffffffffffffffffffffffffffffffffffffffffffffffffffff167f23b872dd00000000000000000000000000000000000000000000000000000000179052611b209085906126ad565b50505050565b60005b8351811015611d5457600080848381518110611b5557634e487b7160e01b600052603260045260246000fd5b602002602001015185846001611b6b9190612e5c565b81518110611b8957634e487b7160e01b600052603260045260246000fd5b6020026020010151915091506000611ba18383612792565b509050600088611bb2866001612e5c565b81518110611bd057634e487b7160e01b600052603260045260246000fd5b60200260200101519050600080836001600160a01b0316866001600160a01b031614611bfe57826000611c02565b6000835b91509150600060018b51611c169190612eb3565b8810611c225788611c55565b8a611c2e896001612e5c565b81518110611c4c57634e487b7160e01b600052603260045260246000fd5b60200260200101515b905060008b8981518110611c7957634e487b7160e01b600052603260045260246000fd5b60200260200101519050806001600160a01b031663022c0d9f858585600067ffffffffffffffff811115611cbd57634e487b7160e01b600052604160045260246000fd5b6040519080825280601f01601f191660200182016040528015611ce7576020820181803683370190505b506040518563ffffffff1660e01b8152600401611d079493929190612e2e565b600060405180830381600087803b158015611d2157600080fd5b505af1158015611d35573d6000803e3d6000fd5b5050505050505050505050508080611d4c90612f0d565b915050611b29565b5050505050565b80471015611dab5760405162461bcd60e51b815260206004820152601d60248201527f416464726573733a20696e73756666696369656e742062616c616e636500000060448201526064016103bd565b6000826001600160a01b03168260405160006040518083038185875af1925050503d8060008114611df8576040519150601f19603f3d011682016040523d82523d6000602084013e611dfd565b606091505b5050905080611e745760405162461bcd60e51b815260206004820152603a60248201527f416464726573733a20756e61626c6520746f2073656e642076616c75652c207260448201527f6563697069656e74206d6179206861766520726576657274656400000000000060648201526084016103bd565b505050565b606080600283511015611ece5760405162461bcd60e51b815260206004820152601460248201527f746f6b656e207061746820746f6f2073686f727400000000000000000000000060448201526064016103bd565b825167ffffffffffffffff811115611ef657634e487b7160e01b600052604160045260246000fd5b604051908082528060200260200182016040528015611f1f578160200160208202803683370190505b509150848260018451611f329190612eb3565b81518110611f5057634e487b7160e01b600052603260045260246000fd5b60200260200101818152505060018351611f6a9190612eb3565b67ffffffffffffffff811115611f9057634e487b7160e01b600052604160045260246000fd5b604051908082528060200260200182016040528015611fb9578160200160208202803683370190505b509050600060018451611fcc9190612eb3565b90505b8015611a8f57600084611fe3600184612eb3565b8151811061200157634e487b7160e01b600052603260045260246000fd5b60200260200101519050600085838151811061202d57634e487b7160e01b600052603260045260246000fd5b602002602001015190506000876001856120479190612eb3565b6020811061206557634e487b7160e01b600052603260045260246000fd5b1a60f81b7fff000000000000000000000000000000000000000000000000000000000000001615612108578761209c600186612eb3565b602081106120ba57634e487b7160e01b600052603260045260246000fd5b1a60f81b7effffffffffffffffffffffffffffffffffffffffffffffffffffffffffffff1916600160f81b146120f9576120f483836121f1565b612103565b6121038383612305565b612112565b61211283836123da565b90508085612121600187612eb3565b8151811061213f57634e487b7160e01b600052603260045260246000fd5b60200260200101906001600160a01b031690816001600160a01b03168152505060008061216d8386866124af565b915091506121a388878151811061219457634e487b7160e01b600052603260045260246000fd5b6020026020010151838361287c565b886121af600189612eb3565b815181106121cd57634e487b7160e01b600052603260045260246000fd5b602002602001018181525050505050505080806121e990612ef6565b915050611fcf565b60008060006122008585612792565b6040516bffffffffffffffffffffffff19606084811b8216602084015283901b16603482015291935091507f000000000000000000000000000000000000000000000000000000000000000090604801604051602081830303815290604052805190602001206002546040516020016122c6939291907fff00000000000000000000000000000000000000000000000000000000000000815260609390931b6bffffffffffffffffffffffff191660018401526015830191909152603582015260550190565b604080517fffffffffffffffffffffffffffffffffffffffffffffffffffffffffffffffe0818403018152919052805160209091012095945050505050565b60008060006123148585612792565b6040516bffffffffffffffffffffffff19606084811b8216602084015283901b16603482015291935091507f000000000000000000000000000000000000000000000000000000000000000090604801604051602081830303815290604052805190602001206001546040516020016122c6939291907fff00000000000000000000000000000000000000000000000000000000000000815260609390931b6bffffffffffffffffffffffff191660018401526015830191909152603582015260550190565b60008060006123e98585612792565b6040516bffffffffffffffffffffffff19606084811b8216602084015283901b16603482015291935091507f000000000000000000000000000000000000000000000000000000000000000090604801604051602081830303815290604052805190602001206000546040516020016122c6939291907fff00000000000000000000000000000000000000000000000000000000000000815260609390931b6bffffffffffffffffffffffff191660018401526015830191909152603582015260550190565b60008060006124be8585612792565b509050600080876001600160a01b0316630902f1ac6040518163ffffffff1660e01b815260040160606040518083038186803b1580156124fd57600080fd5b505afa158015612511573d6000803e3d6000fd5b505050506040513d601f19601f820116820180604052508101906125359190612beb565b506dffffffffffffffffffffffffffff1691506dffffffffffffffffffffffffffff169150826001600160a01b0316876001600160a01b03161461257a57808261257d565b81815b90999098509650505050505050565b60008084116125dd5760405162461bcd60e51b815260206004820152601960248201527f494e53554646494349454e545f494e5055545f414d4f554e540000000000000060448201526064016103bd565b6000831180156125ed5750600082115b61265f5760405162461bcd60e51b815260206004820152602860248201527f556e697377617056324c6962726172793a20494e53554646494349454e545f4c60448201527f495155494449545900000000000000000000000000000000000000000000000060648201526084016103bd565b600061266d856103e5612e94565b9050600061267b8483612e94565b905060008261268c876103e8612e94565b6126969190612e5c565b90506126a28183612e74565b979650505050505050565b6000612702826040518060400160405280602081526020017f5361666545524332303a206c6f772d6c6576656c2063616c6c206661696c6564815250856001600160a01b03166129a29092919063ffffffff16565b805190915015611e7457808060200190518101906127209190612bcb565b611e745760405162461bcd60e51b815260206004820152602a60248201527f5361666545524332303a204552433230206f7065726174696f6e20646964206e60448201527f6f7420737563636565640000000000000000000000000000000000000000000060648201526084016103bd565b600080826001600160a01b0316846001600160a01b031614156127f75760405162461bcd60e51b815260206004820152601260248201527f4964656e746963616c206164647265737321000000000000000000000000000060448201526064016103bd565b826001600160a01b0316846001600160a01b03161061281757828461281a565b83835b90925090506001600160a01b0382166128755760405162461bcd60e51b815260206004820152600d60248201527f5a65726f2061646472657373210000000000000000000000000000000000000060448201526064016103bd565b9250929050565b60008084116128cd5760405162461bcd60e51b815260206004820152601a60248201527f494e53554646494349454e545f4f55545055545f414d4f554e5400000000000060448201526064016103bd565b6000831180156128dd5750600082115b61294f5760405162461bcd60e51b815260206004820152602860248201527f556e697377617056324c6962726172793a20494e53554646494349454e545f4c60448201527f495155494449545900000000000000000000000000000000000000000000000060648201526084016103bd565b600061295b8585612e94565b612967906103e8612e94565b905060006129758685612eb3565b612981906103e5612e94565b905061298d8183612e74565b612998906001612e5c565b9695505050505050565b60606129b184846000856129bb565b90505b9392505050565b606082471015612a335760405162461bcd60e51b815260206004820152602660248201527f416464726573733a20696e73756666696369656e742062616c616e636520666f60448201527f722063616c6c000000000000000000000000000000000000000000000000000060648201526084016103bd565b612a3c85612af6565b612a885760405162461bcd60e51b815260206004820152601d60248201527f416464726573733a2063616c6c20746f206e6f6e2d636f6e747261637400000060448201526064016103bd565b600080866001600160a01b03168587604051612aa49190612dbb565b60006040518083038185875af1925050503d8060008114612ae1576040519150601f19603f3d011682016040523d82523d6000602084013e612ae6565b606091505b50915091506126a2828286612b00565b803b15155b919050565b60608315612b0f5750816129b4565b825115612b1f5782518084602001fd5b8160405162461bcd60e51b81526004016103bd9190612e1b565b80356001600160a01b0381168114612afb57600080fd5b60008083601f840112612b61578182fd5b50813567ffffffffffffffff811115612b78578182fd5b6020830191508360208260051b850101111561287557600080fd5b80516dffffffffffffffffffffffffffff81168114612afb57600080fd5b600060208284031215612bc2578081fd5b6129b482612b39565b600060208284031215612bdc578081fd5b815180151581146129b4578182fd5b600080600060608486031215612bff578182fd5b612c0884612b93565b9250612c1660208501612b93565b9150604084015163ffffffff81168114612c2e578182fd5b809150509250925092565b60008060008060608587031215612c4e578081fd5b8435935060208501359250604085013567ffffffffffffffff811115612c72578182fd5b612c7e87828801612b50565b95989497509550505050565b60008060008060008060a08789031215612ca2578182fd5b8635955060208701359450604087013567ffffffffffffffff811115612cc6578283fd5b612cd289828a01612b50565b9095509350612ce5905060608801612b39565b9150608087013590509295509295509295565b600080600080600080600060c0888a031215612d12578081fd5b873596506020880135955060408801359450606088013567ffffffffffffffff811115612d3d578182fd5b612d498a828b01612b50565b9095509350612d5c905060808901612b39565b915060a0880135905092959891949750929550565b60008151808452612d89816020860160208601612eca565b601f017fffffffffffffffffffffffffffffffffffffffffffffffffffffffffffffffe0169290920160200192915050565b60008251612dcd818460208701612eca565b9190910192915050565b6020808252825182820181905260009190848201906040850190845b81811015612e0f57835183529284019291840191600101612df3565b50909695505050505050565b6000602082526129b46020830184612d71565b60008582528460208301526001600160a01b0384166040830152608060608301526129986080830184612d71565b60008219821115612e6f57612e6f612f28565b500190565b600082612e8f57634e487b7160e01b81526012600452602481fd5b500490565b6000816000190483118215151615612eae57612eae612f28565b500290565b600082821015612ec557612ec5612f28565b500390565b60005b83811015612ee5578181015183820152602001612ecd565b83811115611b205750506000910152565b600081612f0557612f05612f28565b506000190190565b6000600019821415612f2157612f21612f28565b5060010190565b634e487b7160e01b600052601160045260246000fdfea26469706673582212205d5f39843919fc0b2ff5ffedc21dc3f422128d64167ba3616d372e5970465feb64736f6c63430008030033",
  "devdoc": {
    "kind": "dev",
    "methods": {},
    "title": "Router for spot trading on uniswap and sushiswap jointly the paramater amms represents the choice of amm pair along the route it is a bytes32 value where amms[i] == 0 for uniswap and amms[i] == 1 for sushi",
    "version": 1
  },
  "userdoc": {
    "kind": "user",
    "methods": {},
    "version": 1
  },
  "storageLayout": {
    "storage": [
      {
        "astId": 22352,
        "contract": "contracts/SpotRouter.sol:SpotRouter",
        "label": "amm1InitHash",
        "offset": 0,
        "slot": "0",
        "type": "t_bytes32"
      },
      {
        "astId": 22354,
        "contract": "contracts/SpotRouter.sol:SpotRouter",
        "label": "amm2InitHash",
        "offset": 0,
        "slot": "1",
        "type": "t_bytes32"
      },
      {
        "astId": 22356,
        "contract": "contracts/SpotRouter.sol:SpotRouter",
        "label": "amm3InitHash",
        "offset": 0,
        "slot": "2",
        "type": "t_bytes32"
      }
    ],
    "types": {
      "t_bytes32": {
        "encoding": "inplace",
        "label": "bytes32",
        "numberOfBytes": "32"
      }
    }
  }
}