{
  "address": "0x974eDeCA326930C6924F7DDB2C083cAfcd1C7DD3",
  "abi": [
    {
      "inputs": [
        {
          "internalType": "address",
          "name": "_rewardsToken",
          "type": "address"
        },
        {
          "internalType": "address",
          "name": "_stakingToken",
          "type": "address"
        },
        {
          "internalType": "address",
          "name": "legacyContract",
          "type": "address"
        },
        {
          "internalType": "address",
          "name": "_interim",
          "type": "address"
        }
      ],
      "stateMutability": "nonpayable",
      "type": "constructor"
    },
    {
      "anonymous": false,
      "inputs": [
        {
          "indexed": true,
          "internalType": "address",
          "name": "previousOwner",
          "type": "address"
        },
        {
          "indexed": true,
          "internalType": "address",
          "name": "newOwner",
          "type": "address"
        }
      ],
      "name": "OwnershipTransferred",
      "type": "event"
    },
    {
      "anonymous": false,
      "inputs": [
        {
          "indexed": false,
          "internalType": "address",
          "name": "token",
          "type": "address"
        },
        {
          "indexed": false,
          "internalType": "uint256",
          "name": "amount",
          "type": "uint256"
        }
      ],
      "name": "Recovered",
      "type": "event"
    },
    {
      "anonymous": false,
      "inputs": [
        {
          "indexed": false,
          "internalType": "uint256",
          "name": "reward",
          "type": "uint256"
        }
      ],
      "name": "RewardAdded",
      "type": "event"
    },
    {
      "anonymous": false,
      "inputs": [
        {
          "indexed": true,
          "internalType": "address",
          "name": "user",
          "type": "address"
        },
        {
          "indexed": false,
          "internalType": "uint256",
          "name": "reward",
          "type": "uint256"
        }
      ],
      "name": "RewardPaid",
      "type": "event"
    },
    {
      "anonymous": false,
      "inputs": [
        {
          "indexed": false,
          "internalType": "uint256",
          "name": "newDuration",
          "type": "uint256"
        }
      ],
      "name": "RewardsDurationUpdated",
      "type": "event"
    },
    {
      "anonymous": false,
      "inputs": [
        {
          "indexed": true,
          "internalType": "address",
          "name": "user",
          "type": "address"
        },
        {
          "indexed": false,
          "internalType": "uint256",
          "name": "amount",
          "type": "uint256"
        }
      ],
      "name": "Staked",
      "type": "event"
    },
    {
      "anonymous": false,
      "inputs": [
        {
          "indexed": true,
          "internalType": "address",
          "name": "user",
          "type": "address"
        },
        {
          "indexed": false,
          "internalType": "uint256",
          "name": "amount",
          "type": "uint256"
        }
      ],
      "name": "Withdrawn",
      "type": "event"
    },
    {
      "inputs": [
        {
          "internalType": "address",
          "name": "account",
          "type": "address"
        }
      ],
      "name": "balanceOf",
      "outputs": [
        {
          "internalType": "uint256",
          "name": "",
          "type": "uint256"
        }
      ],
      "stateMutability": "view",
      "type": "function"
    },
    {
      "inputs": [],
      "name": "getRewardForDuration",
      "outputs": [
        {
          "internalType": "uint256",
          "name": "",
          "type": "uint256"
        }
      ],
      "stateMutability": "view",
      "type": "function"
    },
    {
      "inputs": [],
      "name": "lastTimeRewardApplicable",
      "outputs": [
        {
          "internalType": "uint256",
          "name": "",
          "type": "uint256"
        }
      ],
      "stateMutability": "view",
      "type": "function"
    },
    {
      "inputs": [],
      "name": "lastUpdateTime",
      "outputs": [
        {
          "internalType": "uint256",
          "name": "",
          "type": "uint256"
        }
      ],
      "stateMutability": "view",
      "type": "function"
    },
    {
      "inputs": [],
      "name": "legacyCarry",
      "outputs": [
        {
          "internalType": "uint256",
          "name": "",
          "type": "uint256"
        }
      ],
      "stateMutability": "view",
      "type": "function"
    },
    {
      "inputs": [
        {
          "internalType": "address",
          "name": "",
          "type": "address"
        }
      ],
      "name": "legacyStakeAccounts",
      "outputs": [
        {
          "internalType": "uint256",
          "name": "stakeAmount",
          "type": "uint256"
        },
        {
          "internalType": "uint256",
          "name": "stakeWeight",
          "type": "uint256"
        },
        {
          "internalType": "uint256",
          "name": "cumulativeStart",
          "type": "uint256"
        },
        {
          "internalType": "uint256",
          "name": "lockEnd",
          "type": "uint256"
        }
      ],
      "stateMutability": "view",
      "type": "function"
    },
    {
      "inputs": [],
      "name": "lockTime",
      "outputs": [
        {
          "internalType": "uint256",
          "name": "",
          "type": "uint256"
        }
      ],
      "stateMutability": "view",
      "type": "function"
    },
    {
      "inputs": [
        {
          "internalType": "address[]",
          "name": "accounts",
          "type": "address[]"
        },
        {
          "internalType": "uint256[]",
          "name": "_userRewardPerTokenPaid",
          "type": "uint256[]"
        },
        {
          "internalType": "uint256[]",
          "name": "_rewards",
          "type": "uint256[]"
        },
        {
          "internalType": "uint256[]",
          "name": "_stakeStart",
          "type": "uint256[]"
        },
        {
          "internalType": "uint256[]",
          "name": "accountBalances",
          "type": "uint256[]"
        },
        {
          "internalType": "bool[]",
          "name": "isMigrated",
          "type": "bool[]"
        }
      ],
      "name": "migrateAccounts",
      "outputs": [],
      "stateMutability": "nonpayable",
      "type": "function"
    },
    {
      "inputs": [
        {
          "internalType": "address",
          "name": "",
          "type": "address"
        }
      ],
      "name": "migrated",
      "outputs": [
        {
          "internalType": "bool",
          "name": "",
          "type": "bool"
        }
      ],
      "stateMutability": "view",
      "type": "function"
    },
    {
      "inputs": [
        {
          "internalType": "uint256",
          "name": "reward",
          "type": "uint256"
        }
      ],
      "name": "notifyRewardAmount",
      "outputs": [],
      "stateMutability": "nonpayable",
      "type": "function"
    },
    {
      "inputs": [],
      "name": "owner",
      "outputs": [
        {
          "internalType": "address",
          "name": "",
          "type": "address"
        }
      ],
      "stateMutability": "view",
      "type": "function"
    },
    {
      "inputs": [],
      "name": "periodFinish",
      "outputs": [
        {
          "internalType": "uint256",
          "name": "",
          "type": "uint256"
        }
      ],
      "stateMutability": "view",
      "type": "function"
    },
    {
      "inputs": [
        {
          "internalType": "address",
          "name": "tokenAddress",
          "type": "address"
        },
        {
          "internalType": "uint256",
          "name": "tokenAmount",
          "type": "uint256"
        }
      ],
      "name": "recoverERC20",
      "outputs": [],
      "stateMutability": "nonpayable",
      "type": "function"
    },
    {
      "inputs": [],
      "name": "renounceOwnership",
      "outputs": [],
      "stateMutability": "nonpayable",
      "type": "function"
    },
    {
      "inputs": [],
      "name": "rewardPerToken",
      "outputs": [
        {
          "internalType": "uint256",
          "name": "",
          "type": "uint256"
        }
      ],
      "stateMutability": "view",
      "type": "function"
    },
    {
      "inputs": [],
      "name": "rewardPerTokenStored",
      "outputs": [
        {
          "internalType": "uint256",
          "name": "",
          "type": "uint256"
        }
      ],
      "stateMutability": "view",
      "type": "function"
    },
    {
      "inputs": [],
      "name": "rewardRate",
      "outputs": [
        {
          "internalType": "uint256",
          "name": "",
          "type": "uint256"
        }
      ],
      "stateMutability": "view",
      "type": "function"
    },
    {
      "inputs": [
        {
          "internalType": "address",
          "name": "",
          "type": "address"
        }
      ],
      "name": "rewards",
      "outputs": [
        {
          "internalType": "uint256",
          "name": "",
          "type": "uint256"
        }
      ],
      "stateMutability": "view",
      "type": "function"
    },
    {
      "inputs": [],
      "name": "rewardsDuration",
      "outputs": [
        {
          "internalType": "uint256",
          "name": "",
          "type": "uint256"
        }
      ],
      "stateMutability": "view",
      "type": "function"
    },
    {
      "inputs": [],
      "name": "rewardsToken",
      "outputs": [
        {
          "internalType": "contract IERC20",
          "name": "",
          "type": "address"
        }
      ],
      "stateMutability": "view",
      "type": "function"
    },
    {
      "inputs": [
        {
          "internalType": "uint256",
          "name": "t",
          "type": "uint256"
        }
      ],
      "name": "setLockTime",
      "outputs": [],
      "stateMutability": "nonpayable",
      "type": "function"
    },
    {
      "inputs": [
        {
          "internalType": "uint256",
          "name": "_rewardsDuration",
          "type": "uint256"
        }
      ],
      "name": "setRewardsDuration",
      "outputs": [],
      "stateMutability": "nonpayable",
      "type": "function"
    },
    {
      "inputs": [
        {
          "internalType": "uint256",
          "name": "amount",
          "type": "uint256"
        }
      ],
      "name": "stake",
      "outputs": [],
      "stateMutability": "nonpayable",
      "type": "function"
    },
    {
      "inputs": [
        {
          "internalType": "address",
          "name": "",
          "type": "address"
        }
      ],
      "name": "stakeStart",
      "outputs": [
        {
          "internalType": "uint256",
          "name": "",
          "type": "uint256"
        }
      ],
      "stateMutability": "view",
      "type": "function"
    },
    {
      "inputs": [],
      "name": "stakingToken",
      "outputs": [
        {
          "internalType": "contract IERC20",
          "name": "",
          "type": "address"
        }
      ],
      "stateMutability": "view",
      "type": "function"
    },
    {
      "inputs": [],
      "name": "startingWeights",
      "outputs": [
        {
          "internalType": "uint256",
          "name": "",
          "type": "uint256"
        }
      ],
      "stateMutability": "view",
      "type": "function"
    },
    {
      "inputs": [],
      "name": "totalSupply",
      "outputs": [
        {
          "internalType": "uint256",
          "name": "",
          "type": "uint256"
        }
      ],
      "stateMutability": "view",
      "type": "function"
    },
    {
      "inputs": [
        {
          "internalType": "address",
          "name": "newOwner",
          "type": "address"
        }
      ],
      "name": "transferOwnership",
      "outputs": [],
      "stateMutability": "nonpayable",
      "type": "function"
    },
    {
      "inputs": [
        {
          "internalType": "uint256",
          "name": "timestamp",
          "type": "uint256"
        }
      ],
      "name": "updatePeriodFinish",
      "outputs": [],
      "stateMutability": "nonpayable",
      "type": "function"
    },
    {
      "inputs": [
        {
          "internalType": "address",
          "name": "",
          "type": "address"
        }
      ],
      "name": "userRewardPerTokenPaid",
      "outputs": [
        {
          "internalType": "uint256",
          "name": "",
          "type": "uint256"
        }
      ],
      "stateMutability": "view",
      "type": "function"
    },
    {
      "inputs": [
        {
          "internalType": "address",
          "name": "account",
          "type": "address"
        }
      ],
      "name": "viewRewardAmount",
      "outputs": [
        {
          "internalType": "uint256",
          "name": "",
          "type": "uint256"
        }
      ],
      "stateMutability": "view",
      "type": "function"
    },
    {
      "inputs": [],
      "name": "withdrawReward",
      "outputs": [],
      "stateMutability": "nonpayable",
      "type": "function"
    },
    {
      "inputs": [
        {
          "internalType": "uint256",
          "name": "amount",
          "type": "uint256"
        }
      ],
      "name": "withdrawStake",
      "outputs": [],
      "stateMutability": "nonpayable",
      "type": "function"
    }
  ],
  "transactionHash": "0xa9c89241119d6375af4ea759d49a82795cd29c69952d8fb883a04718453ef0e6",
  "args": [
    "0xAa4e3edb11AFa93c41db59842b29de64b72E355B",
    "0xAa4e3edb11AFa93c41db59842b29de64b72E355B",
    "0x6002830D2f02D987B18d01A1CCce842ae09899d5",
    "0x072379C47Dd69dc7F2377E366b5e52D27256FD2B"
  ],
  "solcInputHash": "ddac44e6cf14c7e180ea1c3a340c0cfd",
  "bytecode": "0x6101006040526000600255600060035562278d0060045562278d006007553480156200002a57600080fd5b50604051620020ed380380620020ed8339810160408190526200004d91620000fc565b60016000556200005d336200008d565b6001600160601b0319606094851b811660c05292841b831660e05290831b821660805290911b1660a05262000158565b600180546001600160a01b038381166001600160a01b0319831681179093556040519116919082907f8be0079c531659141344cd1fd0a4f28419497f9722a3daafe3b4186f6b6457e090600090a35050565b80516001600160a01b0381168114620000f757600080fd5b919050565b6000806000806080858703121562000112578384fd5b6200011d85620000df565b93506200012d60208601620000df565b92506200013d60408601620000df565b91506200014d60608601620000df565b905092959194509250565b60805160601c60a05160601c60c05160601c60e05160601c611f17620001d66000396000818161036b01528181610795015261114a0152600081816104630152818161091e01526112bd015260008181610b1c01528181610bc50152610e6401526000818161064b015281816115a501526116750152611f176000f3fe608060405234801561001057600080fd5b50600436106101fb5760003560e01c806380faa57d1161011a578063c885bc58116100ad578063d1af0c7d1161007c578063d1af0c7d1461045e578063dbe85f7014610485578063df136d6514610498578063ebe2b12b146104a1578063f2fde38b146104aa576101fb565b8063c885bc5814610432578063c8f33c911461043a578063cc1a378f14610443578063cd3daf9d14610456576101fb565b8063a204cf85116100e9578063a204cf85146103fa578063a694fc3a14610403578063ae04d45d14610416578063be7b51cc14610429576101fb565b806380faa57d146103ae5780638980f11f146103b65780638b876347146103c95780638da5cb5b146103e9576101fb565b80634ba0a5ee1161019257806370a082311161016157806370a082311461034b578063715018a61461035e57806372f702f3146103665780637b0a47ee146103a5576101fb565b80634ba0a5ee1461029d578063556f6e6b146102d0578063568a2d98146102e35780635752de4314610338576101fb565b80631c1f78eb116101ce5780631c1f78eb1461026457806325d5971f1461026c578063386a9525146102815780633c6b16ab1461028a576101fb565b80630700037d146102005780630d6680871461023357806312a7f6611461023c57806318160ddd1461025c575b600080fd5b61022061020e366004611b31565b60096020526000908152604090205481565b6040519081526020015b60405180910390f35b61022060075481565b61022061024a366004611b31565b600a6020526000908152604090205481565b6102206104bd565b6102206104c4565b61027f61027a366004611ce8565b6104e2565b005b61022060045481565b61027f610298366004611ce8565b6107fb565b6102c06102ab366004611b31565b600b6020526000908152604090205460ff1681565b604051901515815260200161022a565b61027f6102de366004611ce8565b610a56565b6103186102f1366004611b31565b600d6020526000908152604090208054600182015460028301546003909301549192909184565b60408051948552602085019390935291830152606082015260800161022a565b61027f610346366004611b74565b610ae2565b610220610359366004611b31565b610f4a565b61027f610f69565b61038d7f000000000000000000000000000000000000000000000000000000000000000081565b6040516001600160a01b03909116815260200161022a565b61022060035481565b610220610f9f565b61027f6103c4366004611b4b565b610fad565b6102206103d7366004611b31565b60086020526000908152604090205481565b6001546001600160a01b031661038d565b610220600c5481565b61027f610411366004611ce8565b611043565b61027f610424366004611ce8565b6111df565b610220600e5481565b61027f61120e565b61022060055481565b61027f610451366004611ce8565b61131e565b610220611420565b61038d7f000000000000000000000000000000000000000000000000000000000000000081565b610220610493366004611b31565b611474565b61022060065481565b61022060025481565b61027f6104b8366004611b31565b6114e6565b600f545b90565b60006104dd60045460035461158190919063ffffffff16565b905090565b6002600054141561050e5760405162461bcd60e51b815260040161050590611dd1565b60405180910390fd5b60026000553361051c611420565b600655610527610f9f565b6005556001600160a01b0381161561056e5761054281611474565b6001600160a01b0382166000908152600960209081526040808320939093556006546008909152919020555b600082116105b25760405162461bcd60e51b8152602060048201526011602482015270043616e6e6f74207769746864726177203607c1b6044820152606401610505565b600754336000908152600a60205260409020546105cf9190611e08565b4210156105db57600080fd5b600f546105e89083611594565b600f55336000908152601060205260409020546106059083611594565b33600090815260106020908152604080832093909355600b9052205460ff16156107885760405163e57466fd60e01b815233600482015260009081906001600160a01b037f0000000000000000000000000000000000000000000000000000000000000000169063e57466fd9060240160806040518083038186803b15801561068d57600080fd5b505afa1580156106a1573d6000803e3d6000fd5b505050506040513d601f19601f820116820180604052508101906106c59190611d18565b50909350909150506801a055690d9db80000821061071d5760405162461bcd60e51b8152602060048201526015602482015274135a59dc985d19481858d8dbdd5b9d08199a5c9cdd605a1b6044820152606401610505565b336000908152600d60209081526040808320815160808101835281548152600182015493810193909352600281015491830191909152600301546060820152610765906115a0565b90508481106107775760009450610784565b6107818186611e5f565b94505b5050505b6107bc6001600160a01b037f0000000000000000000000000000000000000000000000000000000000000000163384611760565b60405182815233907f7084f5476618d8e60b11ef0d7d3f06914655adb8793e28ff7f018d4c76d505d5906020015b60405180910390a250506001600055565b6001546001600160a01b031633146108255760405162461bcd60e51b815260040161050590611d9c565b600061082f611420565b60065561083a610f9f565b6005556001600160a01b038116156108815761085581611474565b6001600160a01b0382166000908152600960209081526040808320939093556006546008909152919020555b600e541561089e57600e546108969083611e5f565b6000600e5591505b60025442106108bd576004546108b59083906117c8565b600355610906565b6002546000906108cd9042611594565b905060006108e66003548361158190919063ffffffff16565b600454909150610900906108fa86846117d4565b906117c8565b60035550505b6040516370a0823160e01b81523060048201526000907f00000000000000000000000000000000000000000000000000000000000000006001600160a01b0316906370a082319060240160206040518083038186803b15801561096857600080fd5b505afa15801561097c573d6000803e3d6000fd5b505050506040513d601f19601f820116820180604052508101906109a09190611d00565b90506109b7600454826117c890919063ffffffff16565b6003541115610a085760405162461bcd60e51b815260206004820152601860248201527f50726f76696465642072657761726420746f6f206869676800000000000000006044820152606401610505565b426005819055600454610a1b91906117d4565b6002556040518381527fde88a922e0d3b88b24e9623efeb464919c6bf9f66857a65e2bfcf2ce87a9433d9060200160405180910390a1505050565b6001546001600160a01b03163314610a805760405162461bcd60e51b815260040161050590611d9c565b6000610a8a611420565b600655610a95610f9f565b6005556001600160a01b03811615610adc57610ab081611474565b6001600160a01b0382166000908152600960209081526040808320939093556006546008909152919020555b50600255565b6001546001600160a01b03163314610b0c5760405162461bcd60e51b815260040161050590611d9c565b66041ca7e961012f6003819055507f00000000000000000000000000000000000000000000000000000000000000006001600160a01b031663df136d656040518163ffffffff1660e01b815260040160206040518083038186803b158015610b7357600080fd5b505afa158015610b87573d6000803e3d6000fd5b505050506040513d601f19601f82011682018060405250810190610bab9190611d00565b6006819055506a01a0fabe7530bc41f2a6cd600c819055507f00000000000000000000000000000000000000000000000000000000000000006001600160a01b03166318160ddd6040518163ffffffff1660e01b815260040160206040518083038186803b158015610c1c57600080fd5b505afa158015610c30573d6000803e3d6000fd5b505050506040513d601f19601f82011682018060405250810190610c549190611d00565b600f55610c6442624f1a00611e08565b6002554260055560005b808c1115610f3b5760008d8d83818110610c9857634e487b7160e01b600052603260045260246000fd5b9050602002016020810190610cad9190611b31565b90508b8b83818110610ccf57634e487b7160e01b600052603260045260246000fd5b6001600160a01b03841660009081526008602090815260409091209102929092013590915550898983818110610d1557634e487b7160e01b600052603260045260246000fd5b6001600160a01b03841660009081526009602090815260409091209102929092013590915550878783818110610d5b57634e487b7160e01b600052603260045260246000fd5b6001600160a01b0384166000908152600a602090815260409091209102929092013590915550858583818110610da157634e487b7160e01b600052603260045260246000fd5b6001600160a01b03841660009081526010602090815260409091209102929092013590915550838383818110610de757634e487b7160e01b600052603260045260246000fd5b9050602002016020810190610dfc9190611cb0565b15610f28576001600160a01b0381166000908152600b60209081526040808320805460ff19166001179055805160808101825283815291820183905281018290526060810191909152604051630ad145b360e31b81526001600160a01b0383811660048301527f0000000000000000000000000000000000000000000000000000000000000000169063568a2d989060240160806040518083038186803b158015610ea657600080fd5b505afa158015610eba573d6000803e3d6000fd5b505050506040513d601f19601f82011682018060405250810190610ede9190611d18565b60608501908152604080860192835260208087019485529486526001600160a01b0387166000908152600d9095529093209351845590516001840155516002830155516003909101555b5080610f3381611ea2565b915050610c6e565b50505050505050505050505050565b6001600160a01b0381166000908152601060205260409020545b919050565b6001546001600160a01b03163314610f935760405162461bcd60e51b815260040161050590611d9c565b610f9d60006117e0565b565b60006104dd42600254611832565b6001546001600160a01b03163314610fd75760405162461bcd60e51b815260040161050590611d9c565b610ffd610fec6001546001600160a01b031690565b6001600160a01b0384169083611760565b604080516001600160a01b0384168152602081018390527f8c1256b8896378cd5044f80c202f9772b9d77dc85c8a6eb51967210b09bfaa28910160405180910390a15050565b600260005414156110665760405162461bcd60e51b815260040161050590611dd1565b600260005533611074611420565b60065561107f610f9f565b6005556001600160a01b038116156110c65761109a81611474565b6001600160a01b0382166000908152600960209081526040808320939093556006546008909152919020555b600082116111075760405162461bcd60e51b815260206004820152600e60248201526d043616e6e6f74207374616b6520360941b6044820152606401610505565b600f5461111490836117d4565b600f553360009081526010602052604090205461113190836117d4565b3360008181526010602052604090209190915561117a907f00000000000000000000000000000000000000000000000000000000000000006001600160a01b0316903085611848565b60405182815233907f9e71bc8eea02a63969f509818f2dafb9254532904319f9dbda79b67bd34a5f3d9060200160405180910390a2336000908152600a60205260409020546111d657336000908152600a602052604090204290555b50506001600055565b6001546001600160a01b031633146112095760405162461bcd60e51b815260040161050590611d9c565b600755565b600260005414156112315760405162461bcd60e51b815260040161050590611dd1565b60026000553361123f611420565b60065561124a610f9f565b6005556001600160a01b038116156112915761126581611474565b6001600160a01b0382166000908152600960209081526040808320939093556006546008909152919020555b3360009081526009602052604090205480156111d657336000818152600960205260408120556112ec907f00000000000000000000000000000000000000000000000000000000000000006001600160a01b03169083611760565b60405181815233907fe2403640ba68fed3a2f88b7557551d1993f84b99bb10ff833f0cf8db0c5e0486906020016107ea565b6001546001600160a01b031633146113485760405162461bcd60e51b815260040161050590611d9c565b60025442116113e55760405162461bcd60e51b815260206004820152605860248201527f50726576696f7573207265776172647320706572696f64206d7573742062652060448201527f636f6d706c657465206265666f7265206368616e67696e67207468652064757260648201527f6174696f6e20666f7220746865206e657720706572696f640000000000000000608482015260a401610505565b60048190556040518181527ffb46ca5a5e06d4540d6387b930a7c978bce0db5f449ec6b3f5d07c6e1d44f2d39060200160405180910390a150565b6000600f546000141561143657506006546104c1565b6104dd61146b600f546108fa670de0b6b3a764000061146560035461146560055461145f610f9f565b90611594565b90611581565b600654906117d4565b6001600160a01b03811660009081526009602090815260408083205460089092528220546114e091906114da90670de0b6b3a7640000906108fa906114bb9061145f611420565b6001600160a01b03881660009081526010602052604090205490611581565b906117d4565b92915050565b6001546001600160a01b031633146115105760405162461bcd60e51b815260040161050590611d9c565b6001600160a01b0381166115755760405162461bcd60e51b815260206004820152602660248201527f4f776e61626c653a206e6577206f776e657220697320746865207a65726f206160448201526564647265737360d01b6064820152608401610505565b61157e816117e0565b50565b600061158d8284611e40565b9392505050565b600061158d8284611e5f565b6000807f00000000000000000000000000000000000000000000000000000000000000006001600160a01b031663c8d65d596040518163ffffffff1660e01b815260040160206040518083038186803b1580156115fc57600080fd5b505afa158015611610573d6000803e3d6000fd5b505050506040513d601f19601f820116820180604052508101906116349190611d00565b90506000600c5460016116479190611e08565b6020850151604086015161165b9085611e5f565b6116659190611e40565b61166f9190611e20565b905060007f00000000000000000000000000000000000000000000000000000000000000006001600160a01b031663fb3935ee6040518163ffffffff1660e01b815260040160206040518083038186803b1580156116cc57600080fd5b505afa1580156116e0573d6000803e3d6000fd5b505050506040513d601f19601f820116820180604052508101906117049190611d00565b61170f906001611e08565b602086015160408701516117239086611e5f565b61172d9190611e40565b6117379190611e20565b905080821061174c5760009350505050610f64565b6117568282611e5f565b9350505050610f64565b6040516001600160a01b0383166024820152604481018290526117c390849063a9059cbb60e01b906064015b60408051601f198184030181529190526020810180516001600160e01b03166001600160e01b031990931692909217909152611886565b505050565b600061158d8284611e20565b600061158d8284611e08565b600180546001600160a01b038381166001600160a01b0319831681179093556040519116919082907f8be0079c531659141344cd1fd0a4f28419497f9722a3daafe3b4186f6b6457e090600090a35050565b6000818310611841578161158d565b5090919050565b6040516001600160a01b03808516602483015283166044820152606481018290526118809085906323b872dd60e01b9060840161178c565b50505050565b60006118db826040518060400160405280602081526020017f5361666545524332303a206c6f772d6c6576656c2063616c6c206661696c6564815250856001600160a01b03166119589092919063ffffffff16565b8051909150156117c357808060200190518101906118f99190611ccc565b6117c35760405162461bcd60e51b815260206004820152602a60248201527f5361666545524332303a204552433230206f7065726174696f6e20646964206e6044820152691bdd081cdd58d8d9595960b21b6064820152608401610505565b6060611967848460008561196f565b949350505050565b6060824710156119d05760405162461bcd60e51b815260206004820152602660248201527f416464726573733a20696e73756666696369656e742062616c616e636520666f6044820152651c8818d85b1b60d21b6064820152608401610505565b843b611a1e5760405162461bcd60e51b815260206004820152601d60248201527f416464726573733a2063616c6c20746f206e6f6e2d636f6e74726163740000006044820152606401610505565b600080866001600160a01b03168587604051611a3a9190611d4d565b60006040518083038185875af1925050503d8060008114611a77576040519150601f19603f3d011682016040523d82523d6000602084013e611a7c565b606091505b5091509150611a8c828286611a97565b979650505050505050565b60608315611aa657508161158d565b825115611ab65782518084602001fd5b8160405162461bcd60e51b81526004016105059190611d69565b80356001600160a01b0381168114610f6457600080fd5b60008083601f840112611af8578182fd5b50813567ffffffffffffffff811115611b0f578182fd5b6020830191508360208260051b8501011115611b2a57600080fd5b9250929050565b600060208284031215611b42578081fd5b61158d82611ad0565b60008060408385031215611b5d578081fd5b611b6683611ad0565b946020939093013593505050565b60008060008060008060008060008060008060c08d8f031215611b95578788fd5b67ffffffffffffffff8d351115611baa578788fd5b611bb78e8e358f01611ae7565b909c509a5067ffffffffffffffff60208e01351115611bd4578788fd5b611be48e60208f01358f01611ae7565b909a50985067ffffffffffffffff60408e01351115611c01578788fd5b611c118e60408f01358f01611ae7565b909850965067ffffffffffffffff60608e01351115611c2e578586fd5b611c3e8e60608f01358f01611ae7565b909650945067ffffffffffffffff60808e01351115611c5b578384fd5b611c6b8e60808f01358f01611ae7565b909450925067ffffffffffffffff60a08e01351115611c88578081fd5b611c988e60a08f01358f01611ae7565b81935080925050509295989b509295989b509295989b565b600060208284031215611cc1578081fd5b813561158d81611ed3565b600060208284031215611cdd578081fd5b815161158d81611ed3565b600060208284031215611cf9578081fd5b5035919050565b600060208284031215611d11578081fd5b5051919050565b60008060008060808587031215611d2d578384fd5b505082516020840151604085015160609095015191969095509092509050565b60008251611d5f818460208701611e76565b9190910192915050565b6000602082528251806020840152611d88816040850160208701611e76565b601f01601f19169190910160400192915050565b6020808252818101527f4f776e61626c653a2063616c6c6572206973206e6f7420746865206f776e6572604082015260600190565b6020808252601f908201527f5265656e7472616e637947756172643a207265656e7472616e742063616c6c00604082015260600190565b60008219821115611e1b57611e1b611ebd565b500190565b600082611e3b57634e487b7160e01b81526012600452602481fd5b500490565b6000816000190483118215151615611e5a57611e5a611ebd565b500290565b600082821015611e7157611e71611ebd565b500390565b60005b83811015611e91578181015183820152602001611e79565b838111156118805750506000910152565b6000600019821415611eb657611eb6611ebd565b5060010190565b634e487b7160e01b600052601160045260246000fd5b801515811461157e57600080fdfea2646970667358221220c556c75a033eba36db2dd4bfa21b91833027ffa88ba03d29a5b74c66e78f98c664736f6c63430008030033",
  "devdoc": {
    "kind": "dev",
    "methods": {
      "owner()": {
        "details": "Returns the address of the current owner."
      },
      "renounceOwnership()": {
        "details": "Leaves the contract without owner. It will not be possible to call `onlyOwner` functions anymore. Can only be called by the current owner. NOTE: Renouncing ownership will leave the contract without an owner, thereby removing any functionality that is only available to the owner."
      },
      "transferOwnership(address)": {
        "details": "Transfers ownership of the contract to a new account (`newOwner`). Can only be called by the current owner."
      }
    },
    "version": 1
  },
  "userdoc": {
    "kind": "user",
    "methods": {},
    "version": 1
  },
  "storageLayout": {
    "storage": [
      {
        "astId": 160,
        "contract": "contracts/Staking.sol:Staking",
        "label": "_status",
        "offset": 0,
        "slot": "0",
        "type": "t_uint256"
      },
      {
        "astId": 53,
        "contract": "contracts/Staking.sol:Staking",
        "label": "_owner",
        "offset": 0,
        "slot": "1",
        "type": "t_address"
      },
      {
        "astId": 13556,
        "contract": "contracts/Staking.sol:Staking",
        "label": "periodFinish",
        "offset": 0,
        "slot": "2",
        "type": "t_uint256"
      },
      {
        "astId": 13559,
        "contract": "contracts/Staking.sol:Staking",
        "label": "rewardRate",
        "offset": 0,
        "slot": "3",
        "type": "t_uint256"
      },
      {
        "astId": 13562,
        "contract": "contracts/Staking.sol:Staking",
        "label": "rewardsDuration",
        "offset": 0,
        "slot": "4",
        "type": "t_uint256"
      },
      {
        "astId": 13564,
        "contract": "contracts/Staking.sol:Staking",
        "label": "lastUpdateTime",
        "offset": 0,
        "slot": "5",
        "type": "t_uint256"
      },
      {
        "astId": 13566,
        "contract": "contracts/Staking.sol:Staking",
        "label": "rewardPerTokenStored",
        "offset": 0,
        "slot": "6",
        "type": "t_uint256"
      },
      {
        "astId": 13569,
        "contract": "contracts/Staking.sol:Staking",
        "label": "lockTime",
        "offset": 0,
        "slot": "7",
        "type": "t_uint256"
      },
      {
        "astId": 13573,
        "contract": "contracts/Staking.sol:Staking",
        "label": "userRewardPerTokenPaid",
        "offset": 0,
        "slot": "8",
        "type": "t_mapping(t_address,t_uint256)"
      },
      {
        "astId": 13577,
        "contract": "contracts/Staking.sol:Staking",
        "label": "rewards",
        "offset": 0,
        "slot": "9",
        "type": "t_mapping(t_address,t_uint256)"
      },
      {
        "astId": 13581,
        "contract": "contracts/Staking.sol:Staking",
        "label": "stakeStart",
        "offset": 0,
        "slot": "10",
        "type": "t_mapping(t_address,t_uint256)"
      },
      {
        "astId": 13585,
        "contract": "contracts/Staking.sol:Staking",
        "label": "migrated",
        "offset": 0,
        "slot": "11",
        "type": "t_mapping(t_address,t_bool)"
      },
      {
        "astId": 13594,
        "contract": "contracts/Staking.sol:Staking",
        "label": "startingWeights",
        "offset": 0,
        "slot": "12",
        "type": "t_uint256"
      },
      {
        "astId": 13599,
        "contract": "contracts/Staking.sol:Staking",
        "label": "legacyStakeAccounts",
        "offset": 0,
        "slot": "13",
        "type": "t_mapping(t_address,t_struct(StakeAccount)14456_storage)"
      },
      {
        "astId": 13601,
        "contract": "contracts/Staking.sol:Staking",
        "label": "legacyCarry",
        "offset": 0,
        "slot": "14",
        "type": "t_uint256"
      },
      {
        "astId": 13603,
        "contract": "contracts/Staking.sol:Staking",
        "label": "_totalSupply",
        "offset": 0,
        "slot": "15",
        "type": "t_uint256"
      },
      {
        "astId": 13607,
        "contract": "contracts/Staking.sol:Staking",
        "label": "_balances",
        "offset": 0,
        "slot": "16",
        "type": "t_mapping(t_address,t_uint256)"
      }
    ],
    "types": {
      "t_address": {
        "encoding": "inplace",
        "label": "address",
        "numberOfBytes": "20"
      },
      "t_bool": {
        "encoding": "inplace",
        "label": "bool",
        "numberOfBytes": "1"
      },
      "t_mapping(t_address,t_bool)": {
        "encoding": "mapping",
        "key": "t_address",
        "label": "mapping(address => bool)",
        "numberOfBytes": "32",
        "value": "t_bool"
      },
      "t_mapping(t_address,t_struct(StakeAccount)14456_storage)": {
        "encoding": "mapping",
        "key": "t_address",
        "label": "mapping(address => struct StakeAccount)",
        "numberOfBytes": "32",
        "value": "t_struct(StakeAccount)14456_storage"
      },
      "t_mapping(t_address,t_uint256)": {
        "encoding": "mapping",
        "key": "t_address",
        "label": "mapping(address => uint256)",
        "numberOfBytes": "32",
        "value": "t_uint256"
      },
      "t_struct(StakeAccount)14456_storage": {
        "encoding": "inplace",
        "label": "struct StakeAccount",
        "members": [
          {
            "astId": 14449,
            "contract": "contracts/Staking.sol:Staking",
            "label": "stakeAmount",
            "offset": 0,
            "slot": "0",
            "type": "t_uint256"
          },
          {
            "astId": 14451,
            "contract": "contracts/Staking.sol:Staking",
            "label": "stakeWeight",
            "offset": 0,
            "slot": "1",
            "type": "t_uint256"
          },
          {
            "astId": 14453,
            "contract": "contracts/Staking.sol:Staking",
            "label": "cumulativeStart",
            "offset": 0,
            "slot": "2",
            "type": "t_uint256"
          },
          {
            "astId": 14455,
            "contract": "contracts/Staking.sol:Staking",
            "label": "lockEnd",
            "offset": 0,
            "slot": "3",
            "type": "t_uint256"
          }
        ],
        "numberOfBytes": "128"
      },
      "t_uint256": {
        "encoding": "inplace",
        "label": "uint256",
        "numberOfBytes": "32"
      }
    }
  }
}