{
  "address": "0x82Df8840feC616e0794b2762F2d07f1361E0fDa3",
  "abi": [
    {
      "inputs": [
        {
          "internalType": "address",
          "name": "_roles",
          "type": "address"
        },
        {
          "internalType": "address[]",
          "name": "tokens2activate",
          "type": "address[]"
        },
        {
          "internalType": "uint256[]",
          "name": "_exposureCaps",
          "type": "uint256[]"
        },
        {
          "internalType": "uint256[]",
          "name": "_lendingBuffers",
          "type": "uint256[]"
        },
        {
          "internalType": "uint256[]",
          "name": "_incentiveWeights",
          "type": "uint256[]"
        },
        {
          "internalType": "bytes32[]",
          "name": "_amms",
          "type": "bytes32[]"
        },
        {
          "internalType": "address[][]",
          "name": "_liquidationTokens",
          "type": "address[][]"
        }
      ],
      "stateMutability": "nonpayable",
      "type": "constructor"
    },
    {
      "inputs": [
        {
          "internalType": "uint256",
          "name": "",
          "type": "uint256"
        }
      ],
      "name": "amms",
      "outputs": [
        {
          "internalType": "bytes32",
          "name": "",
          "type": "bytes32"
        }
      ],
      "stateMutability": "view",
      "type": "function"
    },
    {
      "inputs": [],
      "name": "execute",
      "outputs": [],
      "stateMutability": "nonpayable",
      "type": "function"
    },
    {
      "inputs": [
        {
          "internalType": "uint256",
          "name": "",
          "type": "uint256"
        }
      ],
      "name": "exposureCaps",
      "outputs": [
        {
          "internalType": "uint256",
          "name": "",
          "type": "uint256"
        }
      ],
      "stateMutability": "view",
      "type": "function"
    },
    {
      "inputs": [
        {
          "internalType": "uint256",
          "name": "",
          "type": "uint256"
        }
      ],
      "name": "incentiveWeights",
      "outputs": [
        {
          "internalType": "uint256",
          "name": "",
          "type": "uint256"
        }
      ],
      "stateMutability": "view",
      "type": "function"
    },
    {
      "inputs": [
        {
          "internalType": "uint256",
          "name": "",
          "type": "uint256"
        }
      ],
      "name": "lendingBuffers",
      "outputs": [
        {
          "internalType": "uint256",
          "name": "",
          "type": "uint256"
        }
      ],
      "stateMutability": "view",
      "type": "function"
    },
    {
      "inputs": [
        {
          "internalType": "uint256",
          "name": "",
          "type": "uint256"
        },
        {
          "internalType": "uint256",
          "name": "",
          "type": "uint256"
        }
      ],
      "name": "liquidationTokens",
      "outputs": [
        {
          "internalType": "address",
          "name": "",
          "type": "address"
        }
      ],
      "stateMutability": "view",
      "type": "function"
    },
    {
      "inputs": [
        {
          "internalType": "uint256",
          "name": "",
          "type": "uint256"
        }
      ],
      "name": "mainCharacterCache",
      "outputs": [
        {
          "internalType": "address",
          "name": "",
          "type": "address"
        }
      ],
      "stateMutability": "view",
      "type": "function"
    },
    {
      "inputs": [],
      "name": "requiredRoles",
      "outputs": [
        {
          "internalType": "uint256[]",
          "name": "required",
          "type": "uint256[]"
        }
      ],
      "stateMutability": "nonpayable",
      "type": "function"
    },
    {
      "inputs": [
        {
          "internalType": "address",
          "name": "",
          "type": "address"
        },
        {
          "internalType": "uint256",
          "name": "",
          "type": "uint256"
        }
      ],
      "name": "roleCache",
      "outputs": [
        {
          "internalType": "bool",
          "name": "",
          "type": "bool"
        }
      ],
      "stateMutability": "view",
      "type": "function"
    },
    {
      "inputs": [],
      "name": "roles",
      "outputs": [
        {
          "internalType": "contract Roles",
          "name": "",
          "type": "address"
        }
      ],
      "stateMutability": "view",
      "type": "function"
    },
    {
      "inputs": [
        {
          "internalType": "uint256",
          "name": "",
          "type": "uint256"
        }
      ],
      "name": "tokens",
      "outputs": [
        {
          "internalType": "address",
          "name": "",
          "type": "address"
        }
      ],
      "stateMutability": "view",
      "type": "function"
    },
    {
      "inputs": [
        {
          "internalType": "uint256",
          "name": "role",
          "type": "uint256"
        }
      ],
      "name": "updateMainCharacterCache",
      "outputs": [],
      "stateMutability": "nonpayable",
      "type": "function"
    },
    {
      "inputs": [
        {
          "internalType": "uint256",
          "name": "role",
          "type": "uint256"
        },
        {
          "internalType": "address",
          "name": "contr",
          "type": "address"
        }
      ],
      "name": "updateRoleCache",
      "outputs": [],
      "stateMutability": "nonpayable",
      "type": "function"
    }
  ],
  "transactionHash": "0x60ae180a9b8d9d57c4a0a33643413131b1e7285ced59fc8ca151c3ed51c725bf",
  "args": [
    "0xC6D13A49cdC5Afc7798dd0eBA7698DB9BFCc1D8c",
    [
      "0xdbdb4d16eda451d0503b854cf79d55697f90c8df"
    ],
    [
      "10000000000000000000000"
    ],
    [
      "100000000000000000000"
    ],
    [
      2
    ],
    [
      "0x0101010000000000000000000000000000000000000000000000000000000000"
    ],
    [
      [
        "0xdbdb4d16eda451d0503b854cf79d55697f90c8df",
        "0xC02aaA39b223FE8D0A0e5C4F27eAD9083C756Cc2",
        "0xdAC17F958D2ee523a2206206994597C13D831ec7"
      ]
    ]
  ],
  "solcInputHash": "b1db80cbccabdd9ddab50367da9ae675",
  "bytecode": "0x60a06040523480156200001157600080fd5b5060405162000f4038038062000f408339810160408190526200003491620003fd565b866001600160a01b0381166200009b5760405162461bcd60e51b815260206004820152602260248201527f506c656173652070726f766964652076616c696420726f6c6573206164647265604482015261737360f01b606482015260840160405180910390fd5b60601b6001600160601b0319166080528551620000c09060029060208901906200013c565b508451620000d6906003906020880190620001a6565b508351620000ec906004906020870190620001a6565b50825162000102906005906020860190620001a6565b50815162000118906006906020850190620001a6565b5080516200012e906007906020840190620001e4565b505050505050505062000581565b82805482825590600052602060002090810192821562000194579160200282015b828111156200019457825182546001600160a01b0319166001600160a01b039091161782556020909201916001909101906200015d565b50620001a292915062000244565b5090565b82805482825590600052602060002090810192821562000194579160200282015b8281111562000194578251825591602001919060010190620001c7565b82805482825590600052602060002090810192821562000236579160200282015b82811115620002365782518051620002259184916020909101906200013c565b509160200191906001019062000205565b50620001a29291506200025b565b5b80821115620001a2576000815560010162000245565b80821115620001a25760006200027282826200027c565b506001016200025b565b50805460008255906000526020600020908101906200029c919062000244565b50565b80516001600160a01b0381168114620002b757600080fd5b919050565b600082601f830112620002cd578081fd5b81516020620002e6620002e08362000545565b62000512565b80838252828201915082860187848660051b890101111562000306578586fd5b855b858110156200032f576200031c826200029f565b8452928401929084019060010162000308565b5090979650505050505050565b600082601f8301126200034d578081fd5b8151602062000360620002e08362000545565b82815281810190858301855b858110156200032f5762000386898684518b0101620002bc565b845292840192908401906001016200036c565b600082601f830112620003aa578081fd5b81516020620003bd620002e08362000545565b80838252828201915082860187848660051b8901011115620003dd578586fd5b855b858110156200032f57815184529284019290840190600101620003df565b600080600080600080600060e0888a03121562000418578283fd5b62000423886200029f565b60208901519097506001600160401b038082111562000440578485fd5b6200044e8b838c01620002bc565b975060408a015191508082111562000464578485fd5b620004728b838c0162000399565b965060608a015191508082111562000488578485fd5b620004968b838c0162000399565b955060808a0151915080821115620004ac578485fd5b620004ba8b838c0162000399565b945060a08a0151915080821115620004d0578384fd5b620004de8b838c0162000399565b935060c08a0151915080821115620004f4578283fd5b50620005038a828b016200033c565b91505092959891949750929550565b604051601f8201601f191681016001600160401b03811182821017156200053d576200053d6200056b565b604052919050565b60006001600160401b038211156200056157620005616200056b565b5060051b60200190565b634e487b7160e01b600052604160045260246000fd5b60805160601c610992620005ae6000396000818161012e0152818161027d01526103c801526109926000f3fe608060405234801561001057600080fd5b50600436106100df5760003560e01c806362b4b9a61161008c578063b792be6f11610066578063b792be6f146101f0578063cd28fc8f14610203578063e9c3f77d14610212578063f7fe95a81461023b576100df565b806362b4b9a61461017e5780637a1a04df1461019f57806386a8cdbc146101dd576100df565b8063447d52ba116100bd578063447d52ba146101505780634f64b2be146101635780636146195414610176576100df565b8063071060a6146100e4578063276ce2c8146100f9578063392f5f6414610129575b600080fd5b6100f76100f23660046107f3565b61024e565b005b61010c61010736600461083a565b610345565b6040516001600160a01b0390911681526020015b60405180910390f35b61010c7f000000000000000000000000000000000000000000000000000000000000000081565b6100f761015e36600461080b565b610389565b61010c6101713660046107f3565b610498565b6100f76104c2565b61019161018c3660046107f3565b610734565b604051908152602001610120565b6101cd6101ad3660046107a8565b600160209081526000928352604080842090915290825290205460ff1681565b6040519015158152602001610120565b6101916101eb3660046107f3565b610755565b6101916101fe3660046107f3565b610765565b606060405161012091906108d1565b61010c6102203660046107f3565b6000602081905290815260409020546001600160a01b031681565b6101916102493660046107f3565b610775565b6040517fb4ed0b6d000000000000000000000000000000000000000000000000000000008152600481018290527f00000000000000000000000000000000000000000000000000000000000000006001600160a01b03169063b4ed0b6d9060240160206040518083038186803b1580156102c757600080fd5b505afa1580156102db573d6000803e3d6000fd5b505050506040513d601f19601f820116820180604052508101906102ff9190610785565b60009182526020829052604090912080547fffffffffffffffffffffffff0000000000000000000000000000000000000000166001600160a01b03909216919091179055565b6007828154811061035557600080fd5b90600052602060002001818154811061036d57600080fd5b6000918252602090912001546001600160a01b03169150829050565b6040517f93552a3d000000000000000000000000000000000000000000000000000000008152600481018390526001600160a01b0382811660248301527f000000000000000000000000000000000000000000000000000000000000000016906393552a3d9060440160206040518083038186803b15801561040a57600080fd5b505afa15801561041e573d6000803e3d6000fd5b505050506040513d601f19601f8201168201806040525081019061044291906107d3565b6001600160a01b039190911660009081526001602090815260408083209483529390529190912080547fffffffffffffffffffffffffffffffffffffffffffffffffffffffffffffff0016911515919091179055565b600281815481106104a857600080fd5b6000918252602090912001546001600160a01b0316905081565b60005b60025462ffffff8216101561073057600060028262ffffff16815481106104fc57634e487b7160e01b600052603260045260246000fd5b6000918252602082200154600380546001600160a01b0390921693509062ffffff851690811061053c57634e487b7160e01b600052603260045260246000fd5b90600052602060002001549050600060048462ffffff168154811061057157634e487b7160e01b600052603260045260246000fd5b90600052602060002001549050600060058562ffffff16815481106105a657634e487b7160e01b600052603260045260246000fd5b90600052602060002001549050600060068662ffffff16815481106105db57634e487b7160e01b600052603260045260246000fd5b90600052602060002001549050600060078762ffffff168154811061061057634e487b7160e01b600052603260045260246000fd5b9060005260206000200180548060200260200160405190810160405280929190818152602001828054801561066e57602002820191906000526020600020905b81546001600160a01b03168152600190910190602001808311610650575b505050505090506106b0606d60009081526020527faa31d2a33b224bee3888830916f2f56f41bb5a40ed8a3273c6e72e6992d6223a546001600160a01b031690565b6001600160a01b031663b5f1fb518787878787876040518763ffffffff1660e01b81526004016106e59695949392919061085b565b600060405180830381600087803b1580156106ff57600080fd5b505af1158015610713573d6000803e3d6000fd5b50505050505050505050808061072890610915565b9150506104c5565b5032ff5b6005818154811061074457600080fd5b600091825260209091200154905081565b6006818154811061074457600080fd5b6004818154811061074457600080fd5b6003818154811061074457600080fd5b600060208284031215610796578081fd5b81516107a181610944565b9392505050565b600080604083850312156107ba578081fd5b82356107c581610944565b946020939093013593505050565b6000602082840312156107e4578081fd5b815180151581146107a1578182fd5b600060208284031215610804578081fd5b5035919050565b6000806040838503121561081d578182fd5b82359150602083013561082f81610944565b809150509250929050565b6000806040838503121561084c578182fd5b50508035926020909101359150565b600060c082016001600160a01b03808a1684526020898186015288604086015287606086015286608086015260c060a086015282865180855260e0870191508288019450855b818110156108bf5785518516835294830194918301916001016108a1565b50909c9b505050505050505050505050565b6020808252825182820181905260009190848201906040850190845b81811015610909578351835292840192918401916001016108ed565b50909695505050505050565b600062ffffff8083168181141561093a57634e487b7160e01b83526011600452602483fd5b6001019392505050565b6001600160a01b038116811461095957600080fd5b5056fea2646970667358221220dd9ebf02f7ab106adc8c9f00342b47b127515e5eb0ba2aba627ffea08047a70564736f6c63430008030033",
  "devdoc": {
    "kind": "dev",
    "methods": {},
    "version": 1
  },
  "userdoc": {
    "kind": "user",
    "methods": {},
    "version": 1
  },
  "storageLayout": {
    "storage": [
      {
        "astId": 11773,
        "contract": "contracts/controller-actions/TokenActivation.sol:TokenActivation",
        "label": "mainCharacterCache",
        "offset": 0,
        "slot": "0",
        "type": "t_mapping(t_uint256,t_address)"
      },
      {
        "astId": 11779,
        "contract": "contracts/controller-actions/TokenActivation.sol:TokenActivation",
        "label": "roleCache",
        "offset": 0,
        "slot": "1",
        "type": "t_mapping(t_address,t_mapping(t_uint256,t_bool))"
      },
      {
        "astId": 13540,
        "contract": "contracts/controller-actions/TokenActivation.sol:TokenActivation",
        "label": "tokens",
        "offset": 0,
        "slot": "2",
        "type": "t_array(t_address)dyn_storage"
      },
      {
        "astId": 13543,
        "contract": "contracts/controller-actions/TokenActivation.sol:TokenActivation",
        "label": "exposureCaps",
        "offset": 0,
        "slot": "3",
        "type": "t_array(t_uint256)dyn_storage"
      },
      {
        "astId": 13546,
        "contract": "contracts/controller-actions/TokenActivation.sol:TokenActivation",
        "label": "lendingBuffers",
        "offset": 0,
        "slot": "4",
        "type": "t_array(t_uint256)dyn_storage"
      },
      {
        "astId": 13549,
        "contract": "contracts/controller-actions/TokenActivation.sol:TokenActivation",
        "label": "incentiveWeights",
        "offset": 0,
        "slot": "5",
        "type": "t_array(t_uint256)dyn_storage"
      },
      {
        "astId": 13552,
        "contract": "contracts/controller-actions/TokenActivation.sol:TokenActivation",
        "label": "amms",
        "offset": 0,
        "slot": "6",
        "type": "t_array(t_bytes32)dyn_storage"
      },
      {
        "astId": 13556,
        "contract": "contracts/controller-actions/TokenActivation.sol:TokenActivation",
        "label": "liquidationTokens",
        "offset": 0,
        "slot": "7",
        "type": "t_array(t_array(t_address)dyn_storage)dyn_storage"
      }
    ],
    "types": {
      "t_address": {
        "encoding": "inplace",
        "label": "address",
        "numberOfBytes": "20"
      },
      "t_array(t_address)dyn_storage": {
        "base": "t_address",
        "encoding": "dynamic_array",
        "label": "address[]",
        "numberOfBytes": "32"
      },
      "t_array(t_array(t_address)dyn_storage)dyn_storage": {
        "base": "t_array(t_address)dyn_storage",
        "encoding": "dynamic_array",
        "label": "address[][]",
        "numberOfBytes": "32"
      },
      "t_array(t_bytes32)dyn_storage": {
        "base": "t_bytes32",
        "encoding": "dynamic_array",
        "label": "bytes32[]",
        "numberOfBytes": "32"
      },
      "t_array(t_uint256)dyn_storage": {
        "base": "t_uint256",
        "encoding": "dynamic_array",
        "label": "uint256[]",
        "numberOfBytes": "32"
      },
      "t_bool": {
        "encoding": "inplace",
        "label": "bool",
        "numberOfBytes": "1"
      },
      "t_bytes32": {
        "encoding": "inplace",
        "label": "bytes32",
        "numberOfBytes": "32"
      },
      "t_mapping(t_address,t_mapping(t_uint256,t_bool))": {
        "encoding": "mapping",
        "key": "t_address",
        "label": "mapping(address => mapping(uint256 => bool))",
        "numberOfBytes": "32",
        "value": "t_mapping(t_uint256,t_bool)"
      },
      "t_mapping(t_uint256,t_address)": {
        "encoding": "mapping",
        "key": "t_uint256",
        "label": "mapping(uint256 => address)",
        "numberOfBytes": "32",
        "value": "t_address"
      },
      "t_mapping(t_uint256,t_bool)": {
        "encoding": "mapping",
        "key": "t_uint256",
        "label": "mapping(uint256 => bool)",
        "numberOfBytes": "32",
        "value": "t_bool"
      },
      "t_uint256": {
        "encoding": "inplace",
        "label": "uint256",
        "numberOfBytes": "32"
      }
    }
  }
}