{
  "contractName": "Admin",
  "abi": [
    {
      "inputs": [
        {
          "internalType": "uint256",
          "name": "_feesPer10k",
          "type": "uint256"
        },
        {
          "internalType": "address",
          "name": "_MFI",
          "type": "address"
        },
        {
          "internalType": "address",
          "name": "_roles",
          "type": "address"
        }
      ],
      "stateMutability": "nonpayable",
      "type": "constructor"
    },
    {
      "anonymous": false,
      "inputs": [
        {
          "indexed": true,
          "internalType": "address",
          "name": "previousOwner",
          "type": "address"
        },
        {
          "indexed": true,
          "internalType": "address",
          "name": "newOwner",
          "type": "address"
        }
      ],
      "name": "OwnershipTransferred",
      "type": "event"
    },
    {
      "inputs": [
        {
          "internalType": "address",
          "name": "",
          "type": "address"
        }
      ],
      "name": "collectedFees",
      "outputs": [
        {
          "internalType": "uint256",
          "name": "",
          "type": "uint256"
        }
      ],
      "stateMutability": "view",
      "type": "function"
    },
    {
      "inputs": [
        {
          "internalType": "address",
          "name": "",
          "type": "address"
        }
      ],
      "name": "mcStakes",
      "outputs": [
        {
          "internalType": "uint256",
          "name": "stake",
          "type": "uint256"
        },
        {
          "internalType": "address",
          "name": "nextStaker",
          "type": "address"
        }
      ],
      "stateMutability": "view",
      "type": "function"
    },
    {
      "inputs": [],
      "name": "owner",
      "outputs": [
        {
          "internalType": "address",
          "name": "",
          "type": "address"
        }
      ],
      "stateMutability": "view",
      "type": "function"
    },
    {
      "inputs": [],
      "name": "renounceOwnership",
      "outputs": [],
      "stateMutability": "nonpayable",
      "type": "function"
    },
    {
      "inputs": [],
      "name": "roles",
      "outputs": [
        {
          "internalType": "contract Roles",
          "name": "",
          "type": "address"
        }
      ],
      "stateMutability": "view",
      "type": "function"
    },
    {
      "inputs": [
        {
          "internalType": "address",
          "name": "",
          "type": "address"
        }
      ],
      "name": "stakes",
      "outputs": [
        {
          "internalType": "uint256",
          "name": "",
          "type": "uint256"
        }
      ],
      "stateMutability": "view",
      "type": "function"
    },
    {
      "inputs": [],
      "name": "totalStakes",
      "outputs": [
        {
          "internalType": "uint256",
          "name": "",
          "type": "uint256"
        }
      ],
      "stateMutability": "view",
      "type": "function"
    },
    {
      "inputs": [
        {
          "internalType": "address",
          "name": "newOwner",
          "type": "address"
        }
      ],
      "name": "transferOwnership",
      "outputs": [],
      "stateMutability": "nonpayable",
      "type": "function"
    },
    {
      "inputs": [
        {
          "internalType": "uint256",
          "name": "amount",
          "type": "uint256"
        }
      ],
      "name": "stake",
      "outputs": [],
      "stateMutability": "nonpayable",
      "type": "function"
    },
    {
      "inputs": [
        {
          "internalType": "uint256",
          "name": "amount",
          "type": "uint256"
        },
        {
          "internalType": "address",
          "name": "recipient",
          "type": "address"
        }
      ],
      "name": "unstake",
      "outputs": [],
      "stateMutability": "nonpayable",
      "type": "function"
    },
    {
      "inputs": [
        {
          "internalType": "address",
          "name": "token",
          "type": "address"
        },
        {
          "internalType": "uint256",
          "name": "amount",
          "type": "uint256"
        }
      ],
      "name": "addTradingFees",
      "outputs": [
        {
          "internalType": "uint256",
          "name": "fees",
          "type": "uint256"
        }
      ],
      "stateMutability": "nonpayable",
      "type": "function"
    },
    {
      "inputs": [
        {
          "internalType": "address",
          "name": "token",
          "type": "address"
        },
        {
          "internalType": "uint256",
          "name": "amount",
          "type": "uint256"
        }
      ],
      "name": "subtractTradingFees",
      "outputs": [
        {
          "internalType": "uint256",
          "name": "fees",
          "type": "uint256"
        }
      ],
      "stateMutability": "nonpayable",
      "type": "function"
    },
    {
      "inputs": [
        {
          "internalType": "uint256",
          "name": "amount",
          "type": "uint256"
        }
      ],
      "name": "marginCallerStake",
      "outputs": [],
      "stateMutability": "nonpayable",
      "type": "function"
    }
  ],
  "bytecode": "0x608060405234801561001057600080fd5b506040516116ce3803806116ce8339818101604052606081101561003357600080fd5b8101908080519060200190929190805190602001909291908051906020019092919050505080806000806101000a81548173ffffffffffffffffffffffffffffffffffffffff021916908373ffffffffffffffffffffffffffffffffffffffff1602179055505060006100aa6101a860201b60201c565b905080600160006101000a81548173ffffffffffffffffffffffffffffffffffffffff021916908373ffffffffffffffffffffffffffffffffffffffff1602179055508073ffffffffffffffffffffffffffffffffffffffff16600073ffffffffffffffffffffffffffffffffffffffff167f8be0079c531659141344cd1fd0a4f28419497f9722a3daafe3b4186f6b6457e060405160405180910390a35081600260006101000a81548173ffffffffffffffffffffffffffffffffffffffff021916908373ffffffffffffffffffffffffffffffffffffffff16021790555082600581905550670de0b6b3a76400006007819055505050506101b0565b600033905090565b61150f806101bf6000396000f3fe608060405234801561001057600080fd5b50600436106100cf5760003560e01c806367cbf42d1161008c5780638da5cb5b116100665780638da5cb5b14610377578063a694fc3a146103ab578063bf9befb1146103d9578063f2fde38b146103f7576100cf565b806367cbf42d146102bd578063715018a61461031f5780638381e18214610329576100cf565b806316934fc4146100d45780631cead9a71461012c5780632c00d4a714610184578063392f5f64146101b25780633f0e9edf146101e657806356fc912414610248575b600080fd5b610116600480360360208110156100ea57600080fd5b81019080803573ffffffffffffffffffffffffffffffffffffffff16906020019092919050505061043b565b6040518082815260200191505060405180910390f35b61016e6004803603602081101561014257600080fd5b81019080803573ffffffffffffffffffffffffffffffffffffffff169060200190929190505050610453565b6040518082815260200191505060405180910390f35b6101b06004803603602081101561019a57600080fd5b810190808035906020019092919050505061046b565b005b6101ba6106d5565b604051808273ffffffffffffffffffffffffffffffffffffffff16815260200191505060405180910390f35b610232600480360360408110156101fc57600080fd5b81019080803573ffffffffffffffffffffffffffffffffffffffff169060200190929190803590602001909291905050506106f9565b6040518082815260200191505060405180910390f35b61028a6004803603602081101561025e57600080fd5b81019080803573ffffffffffffffffffffffffffffffffffffffff1690602001909291905050506107df565b604051808381526020018273ffffffffffffffffffffffffffffffffffffffff1681526020019250505060405180910390f35b610309600480360360408110156102d357600080fd5b81019080803573ffffffffffffffffffffffffffffffffffffffff16906020019092919080359060200190929190505050610823565b6040518082815260200191505060405180910390f35b610327610905565b005b6103756004803603604081101561033f57600080fd5b8101908080359060200190929190803573ffffffffffffffffffffffffffffffffffffffff169060200190929190505050610a90565b005b61037f610c39565b604051808273ffffffffffffffffffffffffffffffffffffffff16815260200191505060405180910390f35b6103d7600480360360208110156103c157600080fd5b8101908080359060200190929190505050610c63565b005b6103e1610c70565b6040518082815260200191505060405180910390f35b6104396004803603602081101561040d57600080fd5b81019080803573ffffffffffffffffffffffffffffffffffffffff169060200190929190505050610c76565b005b60036020528060005260406000206000915090505481565b60066020528060005260406000206000915090505481565b600754600860003373ffffffffffffffffffffffffffffffffffffffff1673ffffffffffffffffffffffffffffffffffffffff168152602001908152602001600020600001548201101561050a576040517f08c379a00000000000000000000000000000000000000000000000000000000081526004018080602001828103825260298152602001806114386029913960400191505060405180910390fd5b6105143382610e86565b6000600860003373ffffffffffffffffffffffffffffffffffffffff1673ffffffffffffffffffffffffffffffffffffffff1681526020019081526020016000206000015414156106d25780600860003373ffffffffffffffffffffffffffffffffffffffff1673ffffffffffffffffffffffffffffffffffffffff168152602001908152602001600020600001819055506105ae61102f565b600860003373ffffffffffffffffffffffffffffffffffffffff1673ffffffffffffffffffffffffffffffffffffffff16815260200190815260200160002060010160006101000a81548173ffffffffffffffffffffffffffffffffffffffff021916908373ffffffffffffffffffffffffffffffffffffffff1602179055503360086000600a60009054906101000a900473ffffffffffffffffffffffffffffffffffffffff1673ffffffffffffffffffffffffffffffffffffffff1673ffffffffffffffffffffffffffffffffffffffff16815260200190815260200160002060010160006101000a81548173ffffffffffffffffffffffffffffffffffffffff021916908373ffffffffffffffffffffffffffffffffffffffff1602179055505b50565b60008054906101000a900473ffffffffffffffffffffffffffffffffffffffff1681565b600061070433611279565b610776576040517f08c379a000000000000000000000000000000000000000000000000000000000815260040180806020018281038252601d8152602001807f4e6f7420617574686f72697a656420746f20736f75726365206665657300000081525060200191505060405180910390fd5b6005546127100182600554028161078957fe5b04905080600660008573ffffffffffffffffffffffffffffffffffffffff1673ffffffffffffffffffffffffffffffffffffffff1681526020019081526020016000206000828254019250508190555092915050565b60086020528060005260406000206000915090508060000154908060010160009054906101000a900473ffffffffffffffffffffffffffffffffffffffff16905082565b600061082e33611279565b6108a0576040517f08c379a000000000000000000000000000000000000000000000000000000000815260040180806020018281038252601d8152602001807f4e6f7420617574686f72697a656420746f20736f75726365206665657300000081525060200191505060405180910390fd5b6127108260055402816108af57fe5b04905080600660008573ffffffffffffffffffffffffffffffffffffffff1673ffffffffffffffffffffffffffffffffffffffff1681526020019081526020016000206000828254019250508190555092915050565b61090d611351565b73ffffffffffffffffffffffffffffffffffffffff16600160009054906101000a900473ffffffffffffffffffffffffffffffffffffffff1673ffffffffffffffffffffffffffffffffffffffff16146109cf576040517f08c379a00000000000000000000000000000000000000000000000000000000081526004018080602001828103825260208152602001807f4f776e61626c653a2063616c6c6572206973206e6f7420746865206f776e657281525060200191505060405180910390fd5b600073ffffffffffffffffffffffffffffffffffffffff16600160009054906101000a900473ffffffffffffffffffffffffffffffffffffffff1673ffffffffffffffffffffffffffffffffffffffff167f8be0079c531659141344cd1fd0a4f28419497f9722a3daafe3b4186f6b6457e060405160405180910390a36000600160006101000a81548173ffffffffffffffffffffffffffffffffffffffff021916908373ffffffffffffffffffffffffffffffffffffffff160217905550565b81600360003373ffffffffffffffffffffffffffffffffffffffff1673ffffffffffffffffffffffffffffffffffffffff1681526020019081526020016000206000828254039250508190555081600460008282540392505081905550610af5611359565b73ffffffffffffffffffffffffffffffffffffffff1663d9caed12600260009054906101000a900473ffffffffffffffffffffffffffffffffffffffff1683856040518463ffffffff1660e01b8152600401808473ffffffffffffffffffffffffffffffffffffffff1681526020018373ffffffffffffffffffffffffffffffffffffffff1681526020018281526020019350505050602060405180830381600087803b158015610ba557600080fd5b505af1158015610bb9573d6000803e3d6000fd5b505050506040513d6020811015610bcf57600080fd5b8101908080519060200190929190505050610c35576040517f08c379a00000000000000000000000000000000000000000000000000000000081526004018080602001828103825260328152602001806114a86032913960400191505060405180910390fd5b5050565b6000600160009054906101000a900473ffffffffffffffffffffffffffffffffffffffff16905090565b610c6d3382610e86565b50565b60045481565b610c7e611351565b73ffffffffffffffffffffffffffffffffffffffff16600160009054906101000a900473ffffffffffffffffffffffffffffffffffffffff1673ffffffffffffffffffffffffffffffffffffffff1614610d40576040517f08c379a00000000000000000000000000000000000000000000000000000000081526004018080602001828103825260208152602001807f4f776e61626c653a2063616c6c6572206973206e6f7420746865206f776e657281525060200191505060405180910390fd5b600073ffffffffffffffffffffffffffffffffffffffff168173ffffffffffffffffffffffffffffffffffffffff161415610dc6576040517f08c379a00000000000000000000000000000000000000000000000000000000081526004018080602001828103825260268152602001806114126026913960400191505060405180910390fd5b8073ffffffffffffffffffffffffffffffffffffffff16600160009054906101000a900473ffffffffffffffffffffffffffffffffffffffff1673ffffffffffffffffffffffffffffffffffffffff167f8be0079c531659141344cd1fd0a4f28419497f9722a3daafe3b4186f6b6457e060405160405180910390a380600160006101000a81548173ffffffffffffffffffffffffffffffffffffffff021916908373ffffffffffffffffffffffffffffffffffffffff16021790555050565b610e8e611359565b73ffffffffffffffffffffffffffffffffffffffff1663b3db428b83600260009054906101000a900473ffffffffffffffffffffffffffffffffffffffff16846040518463ffffffff1660e01b8152600401808473ffffffffffffffffffffffffffffffffffffffff1681526020018373ffffffffffffffffffffffffffffffffffffffff1681526020018281526020019350505050602060405180830381600087803b158015610f3e57600080fd5b505af1158015610f52573d6000803e3d6000fd5b505050506040513d6020811015610f6857600080fd5b8101908080519060200190929190505050610fce576040517f08c379a00000000000000000000000000000000000000000000000000000000081526004018080602001828103825260478152602001806114616047913960600191505060405180910390fd5b80600360003373ffffffffffffffffffffffffffffffffffffffff1673ffffffffffffffffffffffffffffffffffffffff16815260200190815260200160002060008282540192505081905550806004600082825401925050819055505050565b60005b60086000600960009054906101000a900473ffffffffffffffffffffffffffffffffffffffff1673ffffffffffffffffffffffffffffffffffffffff1673ffffffffffffffffffffffffffffffffffffffff16815260200190815260200160002060000154600754600b54430302106112515760075460086000600960009054906101000a900473ffffffffffffffffffffffffffffffffffffffff1673ffffffffffffffffffffffffffffffffffffffff1673ffffffffffffffffffffffffffffffffffffffff168152602001908152602001600020600001548161111457fe5b04600b60008282540192505081905550600960009054906101000a900473ffffffffffffffffffffffffffffffffffffffff16600a60006101000a81548173ffffffffffffffffffffffffffffffffffffffff021916908373ffffffffffffffffffffffffffffffffffffffff16021790555060086000600960009054906101000a900473ffffffffffffffffffffffffffffffffffffffff1673ffffffffffffffffffffffffffffffffffffffff1673ffffffffffffffffffffffffffffffffffffffff16815260200190815260200160002060010160009054906101000a900473ffffffffffffffffffffffffffffffffffffffff16600960006101000a81548173ffffffffffffffffffffffffffffffffffffffff021916908373ffffffffffffffffffffffffffffffffffffffff160217905550611032565b600960009054906101000a900473ffffffffffffffffffffffffffffffffffffffff16905090565b60008060009054906101000a900473ffffffffffffffffffffffffffffffffffffffff1673ffffffffffffffffffffffffffffffffffffffff1663a716b97f83606a6040518363ffffffff1660e01b8152600401808373ffffffffffffffffffffffffffffffffffffffff1681526020018260ff1681526020019250505060206040518083038186803b15801561130f57600080fd5b505afa158015611323573d6000803e3d6000fd5b505050506040513d602081101561133957600080fd5b81019080805190602001909291905050509050919050565b600033905090565b60008060009054906101000a900473ffffffffffffffffffffffffffffffffffffffff1673ffffffffffffffffffffffffffffffffffffffff166336214c7860016040518263ffffffff1660e01b8152600401808260ff16815260200191505060206040518083038186803b1580156113d157600080fd5b505afa1580156113e5573d6000803e3d6000fd5b505050506040513d60208110156113fb57600080fd5b810190808051906020019092919050505090509056fe4f776e61626c653a206e6577206f776e657220697320746865207a65726f2061646472657373496e73756666696369656e74207374616b6520746f2063616c6c206576656e206f6e6520626c6f636b436f756c64206e6f74206465706f736974207374616b652066756e6473202870657268617073206d616b6520616c6c6f77616e636520746f2066756e6420636f6e74726163743f496e73756666696369656e742066756e6473202d2d20736f6d657468696e672077656e74207265616c6c792077726f6e672ea26469706673582212201443c6166491f0efe3f95776d8f6e16efb7f3443a4e36930c2bef32cb3ed6af764736f6c63430007000033",
  "immutableReferences": {},
  "source": "import '@openzeppelin/contracts/token/ERC20/IERC20.sol';\nimport '@openzeppelin/contracts/math/SafeMath.sol';\n\nimport './RoleAware.sol';\nimport './Fund.sol';\n\nstruct MarginCallingStake {\n    uint stake;\n    address nextStaker;\n}\n\ncontract Admin is RoleAware, Ownable {\n    using SafeMath for uint;\n    address MFI;\n    mapping(address => uint) public stakes;\n    uint public totalStakes;\n\n    uint feesPer10k;\n    mapping(address => uint) public collectedFees;\n\n    uint mcStakePerBlock;\n    mapping(address => MarginCallingStake) public mcStakes;\n    address currentMCStaker;\n    address prevMCStaker;\n    uint currentStakerStartBlock;\n    // TODO initialize the above\n\n    constructor(uint _feesPer10k, address _MFI, address _roles) RoleAware(_roles) Ownable() {\n        MFI = _MFI;\n        feesPer10k = _feesPer10k;\n        mcStakePerBlock = 1 ether;\n    }\n\n    function _stake(address holder, uint amount) internal {\n        require(Fund(fund()).depositFor(holder, MFI, amount),\n                \"Could not deposit stake funds (perhaps make allowance to fund contract?\");\n        stakes[msg.sender] += amount;\n        totalStakes += amount;\n    }\n\n    function stake(uint amount) external {\n        _stake(msg.sender, amount);\n    }\n\n    function unstake(uint amount, address recipient) external {\n        // overflow failure desirable\n        stakes[msg.sender] -= amount;\n        totalStakes -= amount;\n        require(Fund(fund()).withdraw(MFI, recipient, amount),\n                \"Insufficient funds -- something went really wrong.\");\n    }\n\n    function addTradingFees(address token, uint amount) external returns (uint fees) {\n        require(isFeeSource(msg.sender), \"Not authorized to source fees\");\n        fees = feesPer10k * amount / 10_000;\n        collectedFees[token] += fees;\n    }\n\n    function subtractTradingFees(address token, uint amount) external returns (uint fees) {\n        require(isFeeSource(msg.sender), \"Not authorized to source fees\");\n        fees = feesPer10k * amount / (10_000 + feesPer10k);\n        collectedFees[token] += fees;\n    }\n\n    function marginCallerStake(uint amount) external {\n        require(amount + mcStakes[msg.sender].stake >= mcStakePerBlock, \"Insufficient stake to call even one block\");\n        _stake(msg.sender, amount);\n        if (mcStakes[msg.sender].stake == 0) {\n            // TODO make sure we delete from list when all is withdrawl again\n            mcStakes[msg.sender].stake = amount;\n            mcStakes[msg.sender].nextStaker = getUpdatedCurrentStaker();\n            mcStakes[prevMCStaker].nextStaker = msg.sender;\n        }\n    }\n\n    function getUpdatedCurrentStaker() internal returns (address) {\n        while((block.number - currentStakerStartBlock) * mcStakePerBlock >= mcStakes[currentMCStaker].stake) {\n            currentStakerStartBlock += mcStakes[currentMCStaker].stake / mcStakePerBlock;\n            prevMCStaker = currentMCStaker;\n            currentMCStaker = mcStakes[currentMCStaker].nextStaker;\n        }\n        return currentMCStaker;\n    }\n}\n",
  "sourcePath": "/home/tixelbook/projects/marginswap-core/contracts/Admin.sol",
  "compiler": {
    "name": "solc",
    "version": "0.7.0+commit.9e61f92b.Emscripten.clang"
  },
  "schemaVersion": "3.3.3",
  "updatedAt": "2021-02-13T21:18:49.089Z",
  "devdoc": {
    "kind": "dev",
    "methods": {
      "owner()": {
        "details": "Returns the address of the current owner."
      },
      "renounceOwnership()": {
        "details": "Leaves the contract without owner. It will not be possible to call `onlyOwner` functions anymore. Can only be called by the current owner. NOTE: Renouncing ownership will leave the contract without an owner, thereby removing any functionality that is only available to the owner."
      },
      "transferOwnership(address)": {
        "details": "Transfers ownership of the contract to a new account (`newOwner`). Can only be called by the current owner."
      }
    },
    "version": 1
  },
  "userdoc": {
    "kind": "user",
    "methods": {},
    "version": 1
  }
}