{
  "contractName": "Lending",
  "abi": [
    {
      "inputs": [
        {
          "internalType": "address",
          "name": "_roles",
          "type": "address"
        }
      ],
      "stateMutability": "nonpayable",
      "type": "constructor"
    },
    {
      "inputs": [
        {
          "internalType": "address",
          "name": "",
          "type": "address"
        },
        {
          "internalType": "uint256",
          "name": "",
          "type": "uint256"
        }
      ],
      "name": "bondTargetNumerator",
      "outputs": [
        {
          "internalType": "uint256",
          "name": "",
          "type": "uint256"
        }
      ],
      "stateMutability": "view",
      "type": "function"
    },
    {
      "inputs": [],
      "name": "bondTotalDailyTarget",
      "outputs": [
        {
          "internalType": "uint256",
          "name": "",
          "type": "uint256"
        }
      ],
      "stateMutability": "view",
      "type": "function"
    },
    {
      "inputs": [],
      "name": "bondTotalTargetQuotient",
      "outputs": [
        {
          "internalType": "uint256",
          "name": "",
          "type": "uint256"
        }
      ],
      "stateMutability": "view",
      "type": "function"
    },
    {
      "inputs": [
        {
          "internalType": "address",
          "name": "",
          "type": "address"
        },
        {
          "internalType": "uint256",
          "name": "",
          "type": "uint256"
        }
      ],
      "name": "bondYieldFP",
      "outputs": [
        {
          "internalType": "uint256",
          "name": "",
          "type": "uint256"
        }
      ],
      "stateMutability": "view",
      "type": "function"
    },
    {
      "inputs": [
        {
          "internalType": "address",
          "name": "",
          "type": "address"
        }
      ],
      "name": "borrowYieldAccumulators",
      "outputs": [
        {
          "internalType": "uint256",
          "name": "accumulatorFP",
          "type": "uint256"
        },
        {
          "internalType": "uint256",
          "name": "lastUpdated",
          "type": "uint256"
        },
        {
          "internalType": "uint256",
          "name": "hourlyRateFP",
          "type": "uint256"
        }
      ],
      "stateMutability": "view",
      "type": "function"
    },
    {
      "inputs": [
        {
          "internalType": "uint256",
          "name": "",
          "type": "uint256"
        }
      ],
      "name": "dailyMaturing",
      "outputs": [
        {
          "internalType": "uint256",
          "name": "",
          "type": "uint256"
        }
      ],
      "stateMutability": "view",
      "type": "function"
    },
    {
      "inputs": [
        {
          "internalType": "address",
          "name": "",
          "type": "address"
        }
      ],
      "name": "hourlyBondAccounts",
      "outputs": [
        {
          "internalType": "uint256",
          "name": "moduloHour",
          "type": "uint256"
        }
      ],
      "stateMutability": "view",
      "type": "function"
    },
    {
      "inputs": [
        {
          "internalType": "address",
          "name": "",
          "type": "address"
        }
      ],
      "name": "hourlyBondYieldAccumulators",
      "outputs": [
        {
          "internalType": "uint256",
          "name": "accumulatorFP",
          "type": "uint256"
        },
        {
          "internalType": "uint256",
          "name": "lastUpdated",
          "type": "uint256"
        },
        {
          "internalType": "uint256",
          "name": "hourlyRateFP",
          "type": "uint256"
        }
      ],
      "stateMutability": "view",
      "type": "function"
    },
    {
      "inputs": [],
      "name": "roles",
      "outputs": [
        {
          "internalType": "contract Roles",
          "name": "",
          "type": "address"
        }
      ],
      "stateMutability": "view",
      "type": "function"
    },
    {
      "inputs": [
        {
          "internalType": "address",
          "name": "",
          "type": "address"
        }
      ],
      "name": "totalBorrowed",
      "outputs": [
        {
          "internalType": "uint256",
          "name": "",
          "type": "uint256"
        }
      ],
      "stateMutability": "view",
      "type": "function"
    },
    {
      "inputs": [
        {
          "internalType": "address",
          "name": "",
          "type": "address"
        }
      ],
      "name": "totalHourlyBond",
      "outputs": [
        {
          "internalType": "uint256",
          "name": "",
          "type": "uint256"
        }
      ],
      "stateMutability": "view",
      "type": "function"
    },
    {
      "inputs": [
        {
          "internalType": "address",
          "name": "",
          "type": "address"
        }
      ],
      "name": "totalSpotLending",
      "outputs": [
        {
          "internalType": "uint256",
          "name": "",
          "type": "uint256"
        }
      ],
      "stateMutability": "view",
      "type": "function"
    },
    {
      "inputs": [
        {
          "internalType": "address",
          "name": "token",
          "type": "address"
        },
        {
          "internalType": "uint256",
          "name": "runtime",
          "type": "uint256"
        }
      ],
      "name": "getUpdatedRate",
      "outputs": [],
      "stateMutability": "nonpayable",
      "type": "function"
    },
    {
      "inputs": [
        {
          "internalType": "address",
          "name": "token",
          "type": "address"
        },
        {
          "internalType": "uint256",
          "name": "amount",
          "type": "uint256"
        }
      ],
      "name": "buyHourlyBondSubscription",
      "outputs": [],
      "stateMutability": "nonpayable",
      "type": "function"
    },
    {
      "inputs": [
        {
          "internalType": "uint256",
          "name": "balance",
          "type": "uint256"
        },
        {
          "internalType": "address",
          "name": "token",
          "type": "address"
        },
        {
          "internalType": "uint256",
          "name": "yieldQuotientFP",
          "type": "uint256"
        }
      ],
      "name": "applyBorrowInterest",
      "outputs": [
        {
          "internalType": "uint256",
          "name": "",
          "type": "uint256"
        }
      ],
      "stateMutability": "nonpayable",
      "type": "function"
    },
    {
      "inputs": [
        {
          "internalType": "address",
          "name": "token",
          "type": "address"
        },
        {
          "internalType": "uint256",
          "name": "amount",
          "type": "uint256"
        }
      ],
      "name": "withdrawHourlyBonds",
      "outputs": [],
      "stateMutability": "nonpayable",
      "type": "function"
    },
    {
      "inputs": [
        {
          "internalType": "address",
          "name": "token",
          "type": "address"
        },
        {
          "internalType": "uint256",
          "name": "amount",
          "type": "uint256"
        }
      ],
      "name": "registerBorrow",
      "outputs": [],
      "stateMutability": "nonpayable",
      "type": "function"
    },
    {
      "inputs": [
        {
          "internalType": "address",
          "name": "token",
          "type": "address"
        },
        {
          "internalType": "uint256",
          "name": "amount",
          "type": "uint256"
        }
      ],
      "name": "payOff",
      "outputs": [],
      "stateMutability": "nonpayable",
      "type": "function"
    },
    {
      "inputs": [
        {
          "internalType": "address",
          "name": "token",
          "type": "address"
        }
      ],
      "name": "viewBorrowingYield",
      "outputs": [
        {
          "internalType": "uint256",
          "name": "",
          "type": "uint256"
        }
      ],
      "stateMutability": "view",
      "type": "function"
    }
  ],
  "bytecode": "0x608060405234801561001057600080fd5b506040516117913803806117918339818101604052602081101561003357600080fd5b810190808051906020019092919050505080806000806101000a81548173ffffffffffffffffffffffffffffffffffffffff021916908373ffffffffffffffffffffffffffffffffffffffff16021790555050506116fb806100966000396000f3fe608060405234801561001057600080fd5b50600436106101215760003560e01c8063ba867fbf116100ad578063e695fa6811610071578063e695fa6814610546578063e7bde5c1146105b2578063ee0862bf1461060a578063f29b4c4514610658578063f419155a146106b057610121565b8063ba867fbf146103b6578063bfedc0bf14610404578063cd3b5dfb1461046a578063d71a0e61146104d0578063e2e1ca2b146104ee57610121565b806349f7cff6116100f457806349f7cff61461024e578063754b80af146102a6578063839737e4146102c4578063a370db6814610312578063b170295d1461035457610121565b806309321a3e1461012657806316de7a431461017e5780632a6a897b146101cc578063392f5f641461021a575b600080fd5b6101686004803603602081101561013c57600080fd5b81019080803573ffffffffffffffffffffffffffffffffffffffff169060200190929190505050610712565b6040518082815260200191505060405180910390f35b6101ca6004803603604081101561019457600080fd5b81019080803573ffffffffffffffffffffffffffffffffffffffff16906020019092919080359060200190929190505050610730565b005b610218600480360360408110156101e257600080fd5b81019080803573ffffffffffffffffffffffffffffffffffffffff16906020019092919080359060200190929190505050610af0565b005b610222610bbc565b604051808273ffffffffffffffffffffffffffffffffffffffff16815260200191505060405180910390f35b6102906004803603602081101561026457600080fd5b81019080803573ffffffffffffffffffffffffffffffffffffffff169060200190929190505050610be0565b6040518082815260200191505060405180910390f35b6102ae610bf8565b6040518082815260200191505060405180910390f35b610310600480360360408110156102da57600080fd5b81019080803573ffffffffffffffffffffffffffffffffffffffff16906020019092919080359060200190929190505050610bfe565b005b61033e6004803603602081101561032857600080fd5b8101908080359060200190929190505050610c02565b6040518082815260200191505060405180910390f35b6103a06004803603604081101561036a57600080fd5b81019080803573ffffffffffffffffffffffffffffffffffffffff16906020019092919080359060200190929190505050610c1a565b6040518082815260200191505060405180910390f35b610402600480360360408110156103cc57600080fd5b81019080803573ffffffffffffffffffffffffffffffffffffffff16906020019092919080359060200190929190505050610c3f565b005b6104466004803603602081101561041a57600080fd5b81019080803573ffffffffffffffffffffffffffffffffffffffff169060200190929190505050610ed8565b60405180848152602001838152602001828152602001935050505060405180910390f35b6104ac6004803603602081101561048057600080fd5b81019080803573ffffffffffffffffffffffffffffffffffffffff169060200190929190505050610f02565b60405180848152602001838152602001828152602001935050505060405180910390f35b6104d8610f2c565b6040518082815260200191505060405180910390f35b6105306004803603602081101561050457600080fd5b81019080803573ffffffffffffffffffffffffffffffffffffffff169060200190929190505050610f32565b6040518082815260200191505060405180910390f35b61059c6004803603606081101561055c57600080fd5b8101908080359060200190929190803573ffffffffffffffffffffffffffffffffffffffff16906020019092919080359060200190929190505050610f4a565b6040518082815260200191505060405180910390f35b6105f4600480360360208110156105c857600080fd5b81019080803573ffffffffffffffffffffffffffffffffffffffff169060200190929190505050610f74565b6040518082815260200191505060405180910390f35b6106566004803603604081101561062057600080fd5b81019080803573ffffffffffffffffffffffffffffffffffffffff16906020019092919080359060200190929190505050610f89565b005b61069a6004803603602081101561066e57600080fd5b81019080803573ffffffffffffffffffffffffffffffffffffffff1690602001909291905050506112a5565b6040518082815260200191505060405180910390f35b6106fc600480360360408110156106c657600080fd5b81019080803573ffffffffffffffffffffffffffffffffffffffff169060200190929190803590602001909291905050506112bd565b6040518082815260200191505060405180910390f35b60046020528060005260406000206000915090508060020154905081565b6000600460003373ffffffffffffffffffffffffffffffffffffffff1673ffffffffffffffffffffffffffffffffffffffff168152602001908152602001600020905060008160010160008573ffffffffffffffffffffffffffffffffffffffff1673ffffffffffffffffffffffffffffffffffffffff16815260200190815260200160002054905060008111156108aa5760006107d0856005426112e2565b90506108638360000160008773ffffffffffffffffffffffffffffffffffffffff1673ffffffffffffffffffffffffffffffffffffffff1681526020019081526020016000205482600001548560010160008973ffffffffffffffffffffffffffffffffffffffff1673ffffffffffffffffffffffffffffffffffffffff16815260200190815260200160002054611386565b8360000160008773ffffffffffffffffffffffffffffffffffffffff1673ffffffffffffffffffffffffffffffffffffffff16815260200190815260200160002081905550505b600560008573ffffffffffffffffffffffffffffffffffffffff1673ffffffffffffffffffffffffffffffffffffffff168152602001908152602001600020600001548260010160008673ffffffffffffffffffffffffffffffffffffffff1673ffffffffffffffffffffffffffffffffffffffff16815260200190815260200160002081905550610e10428161093d57fe5b06826002018190555061094e61139d565b73ffffffffffffffffffffffffffffffffffffffff166347e7ef2485856040518363ffffffff1660e01b8152600401808373ffffffffffffffffffffffffffffffffffffffff16815260200182815260200192505050602060405180830381600087803b1580156109be57600080fd5b505af11580156109d2573d6000803e3d6000fd5b505050506040513d60208110156109e857600080fd5b8101908080519060200190929190505050610a4e576040517f08c379a000000000000000000000000000000000000000000000000000000000815260040180806020018281038252602d815260200180611699602d913960400191505060405180910390fd5b828260000160008673ffffffffffffffffffffffffffffffffffffffff1673ffffffffffffffffffffffffffffffffffffffff1681526020019081526020016000206000828254019250508190555082600260008673ffffffffffffffffffffffffffffffffffffffff1673ffffffffffffffffffffffffffffffffffffffff1681526020019081526020016000206000828254019250508190555050505050565b610af933611455565b610b6b576040517f08c379a00000000000000000000000000000000000000000000000000000000081526004018080602001828103825260188152602001807f4e6f7420616e20617070726f76656420626f72726f776572000000000000000081525060200191505060405180910390fd5b80600160008473ffffffffffffffffffffffffffffffffffffffff1673ffffffffffffffffffffffffffffffffffffffff168152602001908152602001600020600082825403925050819055505050565b60008054906101000a900473ffffffffffffffffffffffffffffffffffffffff1681565b60026020528060005260406000206000915090505481565b60095481565b5050565b600b6020528060005260406000206000915090505481565b6008602052816000526040600020602052806000526040600020600091509150505481565b6000600460003373ffffffffffffffffffffffffffffffffffffffff1673ffffffffffffffffffffffffffffffffffffffff16815260200190815260200160002090506000610e108260020154420381610c9557fe5b069050806101681015610cf3576040517f08c379a000000000000000000000000000000000000000000000000000000000815260040180806020018281038252603f81526020018061165a603f913960400191505060405180910390fd5b610cfb61139d565b73ffffffffffffffffffffffffffffffffffffffff1663d9caed128533866040518463ffffffff1660e01b8152600401808473ffffffffffffffffffffffffffffffffffffffff1681526020018373ffffffffffffffffffffffffffffffffffffffff1681526020018281526020019350505050602060405180830381600087803b158015610d8957600080fd5b505af1158015610d9d573d6000803e3d6000fd5b505050506040513d6020811015610db357600080fd5b8101908080519060200190929190505050610e36576040517f08c379a00000000000000000000000000000000000000000000000000000000081526004018080602001828103825260168152602001807f496e73756666696369656e74206c69717569646974790000000000000000000081525060200191505060405180910390fd5b828260000160008673ffffffffffffffffffffffffffffffffffffffff1673ffffffffffffffffffffffffffffffffffffffff1681526020019081526020016000206000828254039250508190555082600260008673ffffffffffffffffffffffffffffffffffffffff1673ffffffffffffffffffffffffffffffffffffffff1681526020019081526020016000206000828254039250508190555050505050565b60056020528060005260406000206000915090508060000154908060010154908060020154905083565b60066020528060005260406000206000915090508060000154908060010154908060020154905083565b600a5481565b60016020528060005260406000206000915090505481565b600080610f59846006426112e2565b9050610f6a85826000015485611386565b9150509392505050565b6000610f828260064261152d565b9050919050565b610f9233611455565b611004576040517f08c379a00000000000000000000000000000000000000000000000000000000081526004018080602001828103825260188152602001807f4e6f7420616e20617070726f76656420626f72726f776572000000000000000081525060200191505060405180910390fd5b61100c61139d565b73ffffffffffffffffffffffffffffffffffffffff16635acf6903836040518263ffffffff1660e01b8152600401808273ffffffffffffffffffffffffffffffffffffffff16815260200191505060206040518083038186803b15801561107257600080fd5b505afa158015611086573d6000803e3d6000fd5b505050506040513d602081101561109c57600080fd5b810190808051906020019092919050505061111f576040517f08c379a00000000000000000000000000000000000000000000000000000000081526004018080602001828103825260158152602001807f4e6f7420616e20617070726f76656420746f6b656e000000000000000000000081525060200191505060405180910390fd5b80600160008473ffffffffffffffffffffffffffffffffffffffff1673ffffffffffffffffffffffffffffffffffffffff16815260200190815260200160002060008282540192505081905550600160008373ffffffffffffffffffffffffffffffffffffffff1673ffffffffffffffffffffffffffffffffffffffff16815260200190815260200160002054600360008473ffffffffffffffffffffffffffffffffffffffff1673ffffffffffffffffffffffffffffffffffffffff16815260200190815260200160002054600260008573ffffffffffffffffffffffffffffffffffffffff1673ffffffffffffffffffffffffffffffffffffffff168152602001908152602001600020540110156112a1576040517f08c379a000000000000000000000000000000000000000000000000000000000815260040180806020018281038252601c8152602001807f496e73756666696369656e74206361706974616c20746f206c656e640000000081525060200191505060405180910390fd5b5050565b60036020528060005260406000206000915090505481565b6007602052816000526040600020602052806000526040600020600091509150505481565b60008260008573ffffffffffffffffffffffffffffffffffffffff1673ffffffffffffffffffffffffffffffffffffffff168152602001908152602001600020905060008360008673ffffffffffffffffffffffffffffffffffffffff1673ffffffffffffffffffffffffffffffffffffffff168152602001908152602001600020600101548303905061137682826115c7565b8260000181905550509392505050565b6000818385028161139357fe5b0490509392505050565b60008060009054906101000a900473ffffffffffffffffffffffffffffffffffffffff1673ffffffffffffffffffffffffffffffffffffffff166336214c7860016040518263ffffffff1660e01b8152600401808260ff16815260200191505060206040518083038186803b15801561141557600080fd5b505afa158015611429573d6000803e3d6000fd5b505050506040513d602081101561143f57600080fd5b8101908080519060200190929190505050905090565b60008060009054906101000a900473ffffffffffffffffffffffffffffffffffffffff1673ffffffffffffffffffffffffffffffffffffffff1663a716b97f8360686040518363ffffffff1660e01b8152600401808373ffffffffffffffffffffffffffffffffffffffff1681526020018260ff1681526020019250505060206040518083038186803b1580156114eb57600080fd5b505afa1580156114ff573d6000803e3d6000fd5b505050506040513d602081101561151557600080fd5b81019080805190602001909291905050509050919050565b6000808360008673ffffffffffffffffffffffffffffffffffffffff1673ffffffffffffffffffffffffffffffffffffffff16815260200190815260200160002060010154830390506115bd8460008773ffffffffffffffffffffffffffffffffffffffff1673ffffffffffffffffffffffffffffffffffffffff168152602001908152602001600020826115c7565b9150509392505050565b600080610e1083816115d557fe5b069050610e10640100000000028185600201546401000000000186600001540202816115fd57fe5b0491506000610e10848161160d57fe5b04905060008111156116515760005b8082111561164f5764010000000086600201546401000000000185028161163f57fe5b049350808060010191505061161c565b505b50509291505056fe5472696564207769746864726177696e67206f75747369646520737562736372697074696f6e2063616e63656c6c6174696f6e2074696d652077696e646f77436f756c64206e6f74207472616e7366657220626f6e64206465706f73697420746f6b656e20746f2066756e64a2646970667358221220c0c4d855c37d99c88827676b177a874bcefdb4c92fa12c64762f868b8c633ee764736f6c63430007000033",
  "immutableReferences": {},
  "source": "import './RoleAware.sol';\nimport './Fund.sol';\n\nstruct YieldAccumulator {\n    uint accumulatorFP;\n    uint lastUpdated;\n    uint hourlyRateFP;\n}\n\nstruct HourlyBondAccount {\n    mapping(address => uint) bonds;\n    mapping(address => uint) bondYieldQuotientsFP;\n    uint moduloHour;\n}\n\ncontract Lending is RoleAware {\n    uint constant FP32 = 2 ** 32;\n    uint constant ACCUMULATOR_INIT = 10 ** 18;\n    uint constant WITHDRAWAL_WINDOW = 6 minutes;\n    mapping(address => uint) public totalBorrowed;\n    mapping(address => uint) public totalHourlyBond;\n    mapping(address => uint) public totalSpotLending;\n\n    mapping(address => HourlyBondAccount) public hourlyBondAccounts;\n    mapping(address => YieldAccumulator) public hourlyBondYieldAccumulators;\n\n    mapping(address => YieldAccumulator) public borrowYieldAccumulators;\n\n    // token => end-day => yield\n    mapping(address => mapping(uint => uint)) public bondYieldFP;\n\n    // token => end-day => portion of total target lending\n    mapping(address => mapping(uint => uint)) public bondTargetNumerator;\n    // The totality by which we divide above targets\n    uint public bondTotalTargetQuotient;\n\n    // TODO replace with function\n    uint public bondTotalDailyTarget;\n    mapping(uint => uint) public dailyMaturing;\n    \n\n    constructor( address _roles) RoleAware(_roles) {\n    }\n\n    function getUpdatedRate(address token, uint runtime) external {\n        uint supply;\n        uint demand;\n        uint rate;\n\n        //uint timeDelta = block.timestamp - lastUpdated;\n        //uint rateUpdateNumerator = (demand + reserve) * rate / supply;\n        //uint rateUpdateQuotient =  \n    }\n    \n    function buyHourlyBondSubscription(address token, uint amount) external {\n        HourlyBondAccount storage account = hourlyBondAccounts[msg.sender];\n        uint yieldQuotient = account.bondYieldQuotientsFP[token];\n        if (yieldQuotient > 0) {\n            YieldAccumulator storage yA = getUpdatedCumulativeYield(token,\n                                                                    hourlyBondYieldAccumulators,\n                                                                    block.timestamp);\n\n            account.bonds[token] = applyInterest(account.bonds[token],\n                                                 yA.accumulatorFP,\n                                                 account.bondYieldQuotientsFP[token]);\n        }\n        account.bondYieldQuotientsFP[token] = hourlyBondYieldAccumulators[token].accumulatorFP;\n        account.moduloHour = block.timestamp % (1 hours);\n        require(Fund(fund()).deposit(token, amount),\n                \"Could not transfer bond deposit token to fund\");\n        account.bonds[token] += amount;\n        totalHourlyBond[token] += amount;\n    }\n\n    function applyInterest(uint balance, uint accumulatorFP, uint yieldQuotientFP) internal returns (uint) {\n        // 1 * FP / FP = 1\n        return balance * accumulatorFP / yieldQuotientFP;\n    }\n\n    function applyBorrowInterest(uint balance, address token, uint yieldQuotientFP)\n        external returns (uint) {\n        YieldAccumulator storage yA = getUpdatedCumulativeYield(token,\n                                                                borrowYieldAccumulators,\n                                                                block.timestamp);\n        return applyInterest(balance, yA.accumulatorFP, yieldQuotientFP);\n    }\n\n    function withdrawHourlyBonds(address token, uint amount) external {\n        HourlyBondAccount storage account = hourlyBondAccounts[msg.sender];\n        // how far the current hour has advanced (relative to acccount hourly clock)\n        uint currentOffset = (block.timestamp - account.moduloHour) % (1 hours);\n\n        require(WITHDRAWAL_WINDOW >= currentOffset,\n                \"Tried withdrawing outside subscription cancellation time window\");\n        require(Fund(fund()).withdraw(token, msg.sender, amount),\n                \"Insufficient liquidity\");\n\n        account.bonds[token] -= amount;\n        totalHourlyBond[token] -= amount;\n    }\n    \n    function registerBorrow(address token, uint amount) external {\n        require(isBorrower(msg.sender),\n                \"Not an approved borrower\");\n        require(Fund(fund()).activeTokens(token),\n                \"Not an approved token\");\n        totalBorrowed[token] += amount;\n        require(totalHourlyBond[token] + totalSpotLending[token] >= totalBorrowed[token],\n                \"Insufficient capital to lend\");\n    }\n\n    function payOff(address token, uint amount) external {\n        require(isBorrower(msg.sender),\n                \"Not an approved borrower\");\n        totalBorrowed[token] -= amount;\n    }\n\n    function calcCumulativeYield(YieldAccumulator storage yieldAccumulator, uint timeDelta)\n        internal view returns (uint accumulatorFP) {\n        uint secondsDelta = timeDelta % (1 hours);\n        // linearly interpolate interest for seconds\n        // accumulator * hourly_rate == seconds_per_hour * accumulator * hourly_rate / seconds_per_hour\n        // FP * FP * 1 / (FP * 1) = FP\n        accumulatorFP = yieldAccumulator.accumulatorFP\n            * (FP32 + yieldAccumulator.hourlyRateFP)\n            * secondsDelta\n            / (FP32 * 1 hours);\n\n        uint hoursDelta = timeDelta / (1 hours);\n        if (hoursDelta > 0) {\n            // This loop should hardly ever 1 or more unless something bad happened\n            // In which case it costs gas but there isn't overflow\n            for (uint i = 0; hoursDelta > i; i ++) {\n                // FP32 * FP32 / FP32 = FP32\n                accumulatorFP = accumulatorFP * (FP32 + yieldAccumulator.hourlyRateFP) / FP32;\n            }\n        }\n    }\n\n    function getUpdatedCumulativeYield(address token,\n                                       mapping(address => YieldAccumulator) storage yieldAccumulators,\n                                       uint timestamp)\n        internal returns (YieldAccumulator storage accumulator) {\n        accumulator = yieldAccumulators[token];\n        uint timeDelta = (timestamp - yieldAccumulators[token].lastUpdated);\n        accumulator.accumulatorFP = calcCumulativeYield(accumulator, timeDelta);\n    }\n\n    function viewCumulativeYield(address token,\n                                 mapping(address => YieldAccumulator) storage yieldAccumulators,\n                                 uint timestamp)\n        internal view returns (uint) {\n        uint timeDelta = (timestamp - yieldAccumulators[token].lastUpdated);\n        return calcCumulativeYield(yieldAccumulators[token], timeDelta);\n    }\n\n    function viewBorrowingYield(address token) external view returns (uint) {\n        return viewCumulativeYield(token, borrowYieldAccumulators, block.timestamp);\n    }\n}\n",
  "sourcePath": "/home/tixelbook/projects/marginswap-core/contracts/Lending.sol",
  "compiler": {
    "name": "solc",
    "version": "0.7.0+commit.9e61f92b.Emscripten.clang"
  },
  "schemaVersion": "3.3.3",
  "updatedAt": "2021-02-10T00:46:33.453Z",
  "devdoc": {
    "kind": "dev",
    "methods": {},
    "version": 1
  },
  "userdoc": {
    "kind": "user",
    "methods": {},
    "version": 1
  }
}