{
  "contractName": "Lending",
  "abi": [
    {
      "inputs": [
        {
          "internalType": "address",
          "name": "_roles",
          "type": "address"
        }
      ],
      "stateMutability": "nonpayable",
      "type": "constructor"
    },
    {
      "anonymous": false,
      "inputs": [
        {
          "indexed": true,
          "internalType": "address",
          "name": "previousOwner",
          "type": "address"
        },
        {
          "indexed": true,
          "internalType": "address",
          "name": "newOwner",
          "type": "address"
        }
      ],
      "name": "OwnershipTransferred",
      "type": "event"
    },
    {
      "inputs": [
        {
          "internalType": "address",
          "name": "",
          "type": "address"
        },
        {
          "internalType": "uint256",
          "name": "",
          "type": "uint256"
        }
      ],
      "name": "bondTargetNumerator",
      "outputs": [
        {
          "internalType": "uint256",
          "name": "",
          "type": "uint256"
        }
      ],
      "stateMutability": "view",
      "type": "function"
    },
    {
      "inputs": [],
      "name": "bondTotalDailyTarget",
      "outputs": [
        {
          "internalType": "uint256",
          "name": "",
          "type": "uint256"
        }
      ],
      "stateMutability": "view",
      "type": "function"
    },
    {
      "inputs": [],
      "name": "bondTotalTargetQuotient",
      "outputs": [
        {
          "internalType": "uint256",
          "name": "",
          "type": "uint256"
        }
      ],
      "stateMutability": "view",
      "type": "function"
    },
    {
      "inputs": [
        {
          "internalType": "address",
          "name": "",
          "type": "address"
        },
        {
          "internalType": "uint256",
          "name": "",
          "type": "uint256"
        }
      ],
      "name": "bondYieldFP",
      "outputs": [
        {
          "internalType": "uint256",
          "name": "",
          "type": "uint256"
        }
      ],
      "stateMutability": "view",
      "type": "function"
    },
    {
      "inputs": [
        {
          "internalType": "address",
          "name": "",
          "type": "address"
        }
      ],
      "name": "borrowYieldAccumulators",
      "outputs": [
        {
          "internalType": "uint256",
          "name": "accumulatorFP",
          "type": "uint256"
        },
        {
          "internalType": "uint256",
          "name": "lastUpdated",
          "type": "uint256"
        },
        {
          "internalType": "uint256",
          "name": "hourlyRateFP",
          "type": "uint256"
        }
      ],
      "stateMutability": "view",
      "type": "function"
    },
    {
      "inputs": [
        {
          "internalType": "uint256",
          "name": "",
          "type": "uint256"
        }
      ],
      "name": "dailyMaturing",
      "outputs": [
        {
          "internalType": "uint256",
          "name": "",
          "type": "uint256"
        }
      ],
      "stateMutability": "view",
      "type": "function"
    },
    {
      "inputs": [
        {
          "internalType": "address",
          "name": "",
          "type": "address"
        }
      ],
      "name": "hourlyBondAccounts",
      "outputs": [
        {
          "internalType": "uint256",
          "name": "moduloHour",
          "type": "uint256"
        }
      ],
      "stateMutability": "view",
      "type": "function"
    },
    {
      "inputs": [
        {
          "internalType": "address",
          "name": "",
          "type": "address"
        }
      ],
      "name": "hourlyBondYieldAccumulators",
      "outputs": [
        {
          "internalType": "uint256",
          "name": "accumulatorFP",
          "type": "uint256"
        },
        {
          "internalType": "uint256",
          "name": "lastUpdated",
          "type": "uint256"
        },
        {
          "internalType": "uint256",
          "name": "hourlyRateFP",
          "type": "uint256"
        }
      ],
      "stateMutability": "view",
      "type": "function"
    },
    {
      "inputs": [],
      "name": "owner",
      "outputs": [
        {
          "internalType": "address",
          "name": "",
          "type": "address"
        }
      ],
      "stateMutability": "view",
      "type": "function"
    },
    {
      "inputs": [],
      "name": "renounceOwnership",
      "outputs": [],
      "stateMutability": "nonpayable",
      "type": "function"
    },
    {
      "inputs": [],
      "name": "roles",
      "outputs": [
        {
          "internalType": "contract Roles",
          "name": "",
          "type": "address"
        }
      ],
      "stateMutability": "view",
      "type": "function"
    },
    {
      "inputs": [
        {
          "internalType": "address",
          "name": "",
          "type": "address"
        }
      ],
      "name": "totalBorrowed",
      "outputs": [
        {
          "internalType": "uint256",
          "name": "",
          "type": "uint256"
        }
      ],
      "stateMutability": "view",
      "type": "function"
    },
    {
      "inputs": [
        {
          "internalType": "address",
          "name": "",
          "type": "address"
        }
      ],
      "name": "totalHourlyBond",
      "outputs": [
        {
          "internalType": "uint256",
          "name": "",
          "type": "uint256"
        }
      ],
      "stateMutability": "view",
      "type": "function"
    },
    {
      "inputs": [
        {
          "internalType": "address",
          "name": "",
          "type": "address"
        }
      ],
      "name": "totalSpotLending",
      "outputs": [
        {
          "internalType": "uint256",
          "name": "",
          "type": "uint256"
        }
      ],
      "stateMutability": "view",
      "type": "function"
    },
    {
      "inputs": [
        {
          "internalType": "address",
          "name": "newOwner",
          "type": "address"
        }
      ],
      "name": "transferOwnership",
      "outputs": [],
      "stateMutability": "nonpayable",
      "type": "function"
    },
    {
      "inputs": [
        {
          "internalType": "address",
          "name": "token",
          "type": "address"
        },
        {
          "internalType": "uint256",
          "name": "runtime",
          "type": "uint256"
        }
      ],
      "name": "getUpdatedRate",
      "outputs": [],
      "stateMutability": "nonpayable",
      "type": "function"
    },
    {
      "inputs": [
        {
          "internalType": "address",
          "name": "token",
          "type": "address"
        },
        {
          "internalType": "uint256",
          "name": "amount",
          "type": "uint256"
        }
      ],
      "name": "buyHourlyBondSubscription",
      "outputs": [],
      "stateMutability": "nonpayable",
      "type": "function"
    },
    {
      "inputs": [
        {
          "internalType": "uint256",
          "name": "balance",
          "type": "uint256"
        },
        {
          "internalType": "address",
          "name": "token",
          "type": "address"
        },
        {
          "internalType": "uint256",
          "name": "yieldQuotientFP",
          "type": "uint256"
        }
      ],
      "name": "applyBorrowInterest",
      "outputs": [
        {
          "internalType": "uint256",
          "name": "",
          "type": "uint256"
        }
      ],
      "stateMutability": "nonpayable",
      "type": "function"
    },
    {
      "inputs": [
        {
          "internalType": "address",
          "name": "token",
          "type": "address"
        },
        {
          "internalType": "uint256",
          "name": "amount",
          "type": "uint256"
        }
      ],
      "name": "withdrawHourlyBonds",
      "outputs": [],
      "stateMutability": "nonpayable",
      "type": "function"
    },
    {
      "inputs": [
        {
          "internalType": "address",
          "name": "token",
          "type": "address"
        },
        {
          "internalType": "uint256",
          "name": "amount",
          "type": "uint256"
        }
      ],
      "name": "registerBorrow",
      "outputs": [],
      "stateMutability": "nonpayable",
      "type": "function"
    },
    {
      "inputs": [
        {
          "internalType": "address",
          "name": "token",
          "type": "address"
        },
        {
          "internalType": "uint256",
          "name": "amount",
          "type": "uint256"
        }
      ],
      "name": "payOff",
      "outputs": [],
      "stateMutability": "nonpayable",
      "type": "function"
    },
    {
      "inputs": [
        {
          "internalType": "address",
          "name": "token",
          "type": "address"
        }
      ],
      "name": "viewBorrowingYield",
      "outputs": [
        {
          "internalType": "uint256",
          "name": "",
          "type": "uint256"
        }
      ],
      "stateMutability": "view",
      "type": "function"
    }
  ],
  "bytecode": "0x608060405234801561001057600080fd5b50604051611cf3380380611cf38339818101604052602081101561003357600080fd5b810190808051906020019092919050505080806000806101000a81548173ffffffffffffffffffffffffffffffffffffffff021916908373ffffffffffffffffffffffffffffffffffffffff16021790555050600061009661013b60201b60201c565b905080600160006101000a81548173ffffffffffffffffffffffffffffffffffffffff021916908373ffffffffffffffffffffffffffffffffffffffff1602179055508073ffffffffffffffffffffffffffffffffffffffff16600073ffffffffffffffffffffffffffffffffffffffff167f8be0079c531659141344cd1fd0a4f28419497f9722a3daafe3b4186f6b6457e060405160405180910390a35050610143565b600033905090565b611ba1806101526000396000f3fe608060405234801561001057600080fd5b50600436106101425760003560e01c8063ba867fbf116100b8578063e695fa681161007c578063e695fa68146105a5578063e7bde5c114610611578063ee0862bf14610669578063f29b4c45146106b7578063f2fde38b1461070f578063f419155a1461075357610142565b8063ba867fbf14610415578063bfedc0bf14610463578063cd3b5dfb146104c9578063d71a0e611461052f578063e2e1ca2b1461054d57610142565b8063715018a61161010a578063715018a6146102c7578063754b80af146102d1578063839737e4146102ef5780638da5cb5b1461033d578063a370db6814610371578063b170295d146103b357610142565b806309321a3e1461014757806316de7a431461019f5780632a6a897b146101ed578063392f5f641461023b57806349f7cff61461026f575b600080fd5b6101896004803603602081101561015d57600080fd5b81019080803573ffffffffffffffffffffffffffffffffffffffff1690602001909291905050506107b5565b6040518082815260200191505060405180910390f35b6101eb600480360360408110156101b557600080fd5b81019080803573ffffffffffffffffffffffffffffffffffffffff169060200190929190803590602001909291905050506107d3565b005b6102396004803603604081101561020357600080fd5b81019080803573ffffffffffffffffffffffffffffffffffffffff16906020019092919080359060200190929190505050610b93565b005b610243610c5f565b604051808273ffffffffffffffffffffffffffffffffffffffff16815260200191505060405180910390f35b6102b16004803603602081101561028557600080fd5b81019080803573ffffffffffffffffffffffffffffffffffffffff169060200190929190505050610c83565b6040518082815260200191505060405180910390f35b6102cf610c9b565b005b6102d9610e26565b6040518082815260200191505060405180910390f35b61033b6004803603604081101561030557600080fd5b81019080803573ffffffffffffffffffffffffffffffffffffffff16906020019092919080359060200190929190505050610e2c565b005b610345610e30565b604051808273ffffffffffffffffffffffffffffffffffffffff16815260200191505060405180910390f35b61039d6004803603602081101561038757600080fd5b8101908080359060200190929190505050610e5a565b6040518082815260200191505060405180910390f35b6103ff600480360360408110156103c957600080fd5b81019080803573ffffffffffffffffffffffffffffffffffffffff16906020019092919080359060200190929190505050610e72565b6040518082815260200191505060405180910390f35b6104616004803603604081101561042b57600080fd5b81019080803573ffffffffffffffffffffffffffffffffffffffff16906020019092919080359060200190929190505050610e97565b005b6104a56004803603602081101561047957600080fd5b81019080803573ffffffffffffffffffffffffffffffffffffffff169060200190929190505050611130565b60405180848152602001838152602001828152602001935050505060405180910390f35b61050b600480360360208110156104df57600080fd5b81019080803573ffffffffffffffffffffffffffffffffffffffff16906020019092919050505061115a565b60405180848152602001838152602001828152602001935050505060405180910390f35b610537611184565b6040518082815260200191505060405180910390f35b61058f6004803603602081101561056357600080fd5b81019080803573ffffffffffffffffffffffffffffffffffffffff16906020019092919050505061118a565b6040518082815260200191505060405180910390f35b6105fb600480360360608110156105bb57600080fd5b8101908080359060200190929190803573ffffffffffffffffffffffffffffffffffffffff169060200190929190803590602001909291905050506111a2565b6040518082815260200191505060405180910390f35b6106536004803603602081101561062757600080fd5b81019080803573ffffffffffffffffffffffffffffffffffffffff1690602001909291905050506111cc565b6040518082815260200191505060405180910390f35b6106b56004803603604081101561067f57600080fd5b81019080803573ffffffffffffffffffffffffffffffffffffffff169060200190929190803590602001909291905050506111e1565b005b6106f9600480360360208110156106cd57600080fd5b81019080803573ffffffffffffffffffffffffffffffffffffffff1690602001909291905050506114fd565b6040518082815260200191505060405180910390f35b6107516004803603602081101561072557600080fd5b81019080803573ffffffffffffffffffffffffffffffffffffffff169060200190929190505050611515565b005b61079f6004803603604081101561076957600080fd5b81019080803573ffffffffffffffffffffffffffffffffffffffff16906020019092919080359060200190929190505050611725565b6040518082815260200191505060405180910390f35b60056020528060005260406000206000915090508060020154905081565b6000600560003373ffffffffffffffffffffffffffffffffffffffff1673ffffffffffffffffffffffffffffffffffffffff168152602001908152602001600020905060008160010160008573ffffffffffffffffffffffffffffffffffffffff1673ffffffffffffffffffffffffffffffffffffffff168152602001908152602001600020549050600081111561094d5760006108738560064261174a565b90506109068360000160008773ffffffffffffffffffffffffffffffffffffffff1673ffffffffffffffffffffffffffffffffffffffff1681526020019081526020016000205482600001548560010160008973ffffffffffffffffffffffffffffffffffffffff1673ffffffffffffffffffffffffffffffffffffffff168152602001908152602001600020546117ee565b8360000160008773ffffffffffffffffffffffffffffffffffffffff1673ffffffffffffffffffffffffffffffffffffffff16815260200190815260200160002081905550505b600660008573ffffffffffffffffffffffffffffffffffffffff1673ffffffffffffffffffffffffffffffffffffffff168152602001908152602001600020600001548260010160008673ffffffffffffffffffffffffffffffffffffffff1673ffffffffffffffffffffffffffffffffffffffff16815260200190815260200160002081905550610e1042816109e057fe5b0682600201819055506109f1611805565b73ffffffffffffffffffffffffffffffffffffffff166347e7ef2485856040518363ffffffff1660e01b8152600401808373ffffffffffffffffffffffffffffffffffffffff16815260200182815260200192505050602060405180830381600087803b158015610a6157600080fd5b505af1158015610a75573d6000803e3d6000fd5b505050506040513d6020811015610a8b57600080fd5b8101908080519060200190929190505050610af1576040517f08c379a000000000000000000000000000000000000000000000000000000000815260040180806020018281038252602d815260200180611b3f602d913960400191505060405180910390fd5b828260000160008673ffffffffffffffffffffffffffffffffffffffff1673ffffffffffffffffffffffffffffffffffffffff1681526020019081526020016000206000828254019250508190555082600360008673ffffffffffffffffffffffffffffffffffffffff1673ffffffffffffffffffffffffffffffffffffffff1681526020019081526020016000206000828254019250508190555050505050565b610b9c336118c5565b610c0e576040517f08c379a00000000000000000000000000000000000000000000000000000000081526004018080602001828103825260188152602001807f4e6f7420616e20617070726f76656420626f72726f776572000000000000000081525060200191505060405180910390fd5b80600260008473ffffffffffffffffffffffffffffffffffffffff1673ffffffffffffffffffffffffffffffffffffffff168152602001908152602001600020600082825403925050819055505050565b60008054906101000a900473ffffffffffffffffffffffffffffffffffffffff1681565b60036020528060005260406000206000915090505481565b610ca36119a5565b73ffffffffffffffffffffffffffffffffffffffff16600160009054906101000a900473ffffffffffffffffffffffffffffffffffffffff1673ffffffffffffffffffffffffffffffffffffffff1614610d65576040517f08c379a00000000000000000000000000000000000000000000000000000000081526004018080602001828103825260208152602001807f4f776e61626c653a2063616c6c6572206973206e6f7420746865206f776e657281525060200191505060405180910390fd5b600073ffffffffffffffffffffffffffffffffffffffff16600160009054906101000a900473ffffffffffffffffffffffffffffffffffffffff1673ffffffffffffffffffffffffffffffffffffffff167f8be0079c531659141344cd1fd0a4f28419497f9722a3daafe3b4186f6b6457e060405160405180910390a36000600160006101000a81548173ffffffffffffffffffffffffffffffffffffffff021916908373ffffffffffffffffffffffffffffffffffffffff160217905550565b600a5481565b5050565b6000600160009054906101000a900473ffffffffffffffffffffffffffffffffffffffff16905090565b600c6020528060005260406000206000915090505481565b6009602052816000526040600020602052806000526040600020600091509150505481565b6000600560003373ffffffffffffffffffffffffffffffffffffffff1673ffffffffffffffffffffffffffffffffffffffff16815260200190815260200160002090506000610e108260020154420381610eed57fe5b069050806101681015610f4b576040517f08c379a000000000000000000000000000000000000000000000000000000000815260040180806020018281038252603f815260200180611b00603f913960400191505060405180910390fd5b610f53611805565b73ffffffffffffffffffffffffffffffffffffffff1663d9caed128533866040518463ffffffff1660e01b8152600401808473ffffffffffffffffffffffffffffffffffffffff1681526020018373ffffffffffffffffffffffffffffffffffffffff1681526020018281526020019350505050602060405180830381600087803b158015610fe157600080fd5b505af1158015610ff5573d6000803e3d6000fd5b505050506040513d602081101561100b57600080fd5b810190808051906020019092919050505061108e576040517f08c379a00000000000000000000000000000000000000000000000000000000081526004018080602001828103825260168152602001807f496e73756666696369656e74206c69717569646974790000000000000000000081525060200191505060405180910390fd5b828260000160008673ffffffffffffffffffffffffffffffffffffffff1673ffffffffffffffffffffffffffffffffffffffff1681526020019081526020016000206000828254039250508190555082600360008673ffffffffffffffffffffffffffffffffffffffff1673ffffffffffffffffffffffffffffffffffffffff1681526020019081526020016000206000828254039250508190555050505050565b60066020528060005260406000206000915090508060000154908060010154908060020154905083565b60076020528060005260406000206000915090508060000154908060010154908060020154905083565b600b5481565b60026020528060005260406000206000915090505481565b6000806111b18460074261174a565b90506111c2858260000154856117ee565b9150509392505050565b60006111da826007426119ad565b9050919050565b6111ea336118c5565b61125c576040517f08c379a00000000000000000000000000000000000000000000000000000000081526004018080602001828103825260188152602001807f4e6f7420616e20617070726f76656420626f72726f776572000000000000000081525060200191505060405180910390fd5b611264611805565b73ffffffffffffffffffffffffffffffffffffffff16635acf6903836040518263ffffffff1660e01b8152600401808273ffffffffffffffffffffffffffffffffffffffff16815260200191505060206040518083038186803b1580156112ca57600080fd5b505afa1580156112de573d6000803e3d6000fd5b505050506040513d60208110156112f457600080fd5b8101908080519060200190929190505050611377576040517f08c379a00000000000000000000000000000000000000000000000000000000081526004018080602001828103825260158152602001807f4e6f7420616e20617070726f76656420746f6b656e000000000000000000000081525060200191505060405180910390fd5b80600260008473ffffffffffffffffffffffffffffffffffffffff1673ffffffffffffffffffffffffffffffffffffffff16815260200190815260200160002060008282540192505081905550600260008373ffffffffffffffffffffffffffffffffffffffff1673ffffffffffffffffffffffffffffffffffffffff16815260200190815260200160002054600460008473ffffffffffffffffffffffffffffffffffffffff1673ffffffffffffffffffffffffffffffffffffffff16815260200190815260200160002054600360008573ffffffffffffffffffffffffffffffffffffffff1673ffffffffffffffffffffffffffffffffffffffff168152602001908152602001600020540110156114f9576040517f08c379a000000000000000000000000000000000000000000000000000000000815260040180806020018281038252601c8152602001807f496e73756666696369656e74206361706974616c20746f206c656e640000000081525060200191505060405180910390fd5b5050565b60046020528060005260406000206000915090505481565b61151d6119a5565b73ffffffffffffffffffffffffffffffffffffffff16600160009054906101000a900473ffffffffffffffffffffffffffffffffffffffff1673ffffffffffffffffffffffffffffffffffffffff16146115df576040517f08c379a00000000000000000000000000000000000000000000000000000000081526004018080602001828103825260208152602001807f4f776e61626c653a2063616c6c6572206973206e6f7420746865206f776e657281525060200191505060405180910390fd5b600073ffffffffffffffffffffffffffffffffffffffff168173ffffffffffffffffffffffffffffffffffffffff161415611665576040517f08c379a0000000000000000000000000000000000000000000000000000000008152600401808060200182810382526026815260200180611ada6026913960400191505060405180910390fd5b8073ffffffffffffffffffffffffffffffffffffffff16600160009054906101000a900473ffffffffffffffffffffffffffffffffffffffff1673ffffffffffffffffffffffffffffffffffffffff167f8be0079c531659141344cd1fd0a4f28419497f9722a3daafe3b4186f6b6457e060405160405180910390a380600160006101000a81548173ffffffffffffffffffffffffffffffffffffffff021916908373ffffffffffffffffffffffffffffffffffffffff16021790555050565b6008602052816000526040600020602052806000526040600020600091509150505481565b60008260008573ffffffffffffffffffffffffffffffffffffffff1673ffffffffffffffffffffffffffffffffffffffff168152602001908152602001600020905060008360008673ffffffffffffffffffffffffffffffffffffffff1673ffffffffffffffffffffffffffffffffffffffff16815260200190815260200160002060010154830390506117de8282611a47565b8260000181905550509392505050565b600081838502816117fb57fe5b0490509392505050565b60008060009054906101000a900473ffffffffffffffffffffffffffffffffffffffff1673ffffffffffffffffffffffffffffffffffffffff166336214c7860006040518263ffffffff1660e01b81526004018082600581111561186557fe5b815260200191505060206040518083038186803b15801561188557600080fd5b505afa158015611899573d6000803e3d6000fd5b505050506040513d60208110156118af57600080fd5b8101908080519060200190929190505050905090565b60008060009054906101000a900473ffffffffffffffffffffffffffffffffffffffff1673ffffffffffffffffffffffffffffffffffffffff1663a716b97f8360026040518363ffffffff1660e01b8152600401808373ffffffffffffffffffffffffffffffffffffffff16815260200182600581111561194257fe5b81526020019250505060206040518083038186803b15801561196357600080fd5b505afa158015611977573d6000803e3d6000fd5b505050506040513d602081101561198d57600080fd5b81019080805190602001909291905050509050919050565b600033905090565b6000808360008673ffffffffffffffffffffffffffffffffffffffff1673ffffffffffffffffffffffffffffffffffffffff1681526020019081526020016000206001015483039050611a3d8460008773ffffffffffffffffffffffffffffffffffffffff1673ffffffffffffffffffffffffffffffffffffffff16815260200190815260200160002082611a47565b9150509392505050565b600080610e108381611a5557fe5b069050610e1064010000000002818560020154640100000000018660000154020281611a7d57fe5b0491506000610e108481611a8d57fe5b0490506000811115611ad15760005b80821115611acf57640100000000866002015464010000000001850281611abf57fe5b0493508080600101915050611a9c565b505b50509291505056fe4f776e61626c653a206e6577206f776e657220697320746865207a65726f20616464726573735472696564207769746864726177696e67206f75747369646520737562736372697074696f6e2063616e63656c6c6174696f6e2074696d652077696e646f77436f756c64206e6f74207472616e7366657220626f6e64206465706f73697420746f6b656e20746f2066756e64a264697066735822122009953056dfd654c7d8ff03e77e94a09dd6654458632ec153f3bf019f32bc47fe64736f6c63430007000033",
  "immutableReferences": {},
  "source": "import \"./RoleAware.sol\";\nimport \"./Fund.sol\";\n\nstruct YieldAccumulator {\n    uint256 accumulatorFP;\n    uint256 lastUpdated;\n    uint256 hourlyRateFP;\n}\n\nstruct HourlyBondAccount {\n    mapping(address => uint256) bonds;\n    mapping(address => uint256) bondYieldQuotientsFP;\n    uint256 moduloHour;\n}\n\ncontract Lending is RoleAware, Ownable {\n    uint256 constant FP32 = 2**32;\n    uint256 constant ACCUMULATOR_INIT = 10**18;\n    uint256 constant WITHDRAWAL_WINDOW = 6 minutes;\n    mapping(address => uint256) public totalBorrowed;\n    mapping(address => uint256) public totalHourlyBond;\n    mapping(address => uint256) public totalSpotLending;\n\n    mapping(address => HourlyBondAccount) public hourlyBondAccounts;\n    mapping(address => YieldAccumulator) public hourlyBondYieldAccumulators;\n\n    mapping(address => YieldAccumulator) public borrowYieldAccumulators;\n\n    // token => end-day => yield\n    mapping(address => mapping(uint256 => uint256)) public bondYieldFP;\n\n    // token => end-day => portion of total target lending\n    mapping(address => mapping(uint256 => uint256)) public bondTargetNumerator;\n    // The totality by which we divide above targets\n    uint256 public bondTotalTargetQuotient;\n\n    // TODO replace with function\n    uint256 public bondTotalDailyTarget;\n    mapping(uint256 => uint256) public dailyMaturing;\n\n    constructor(address _roles) RoleAware(_roles) Ownable() {}\n\n    function getUpdatedRate(address token, uint256 runtime) external {\n        uint256 supply;\n        uint256 demand;\n        uint256 rate;\n\n        //uint timeDelta = block.timestamp - lastUpdated;\n        //uint rateUpdateNumerator = (demand + reserve) * rate / supply;\n        //uint rateUpdateQuotient =\n    }\n\n    function buyHourlyBondSubscription(address token, uint256 amount) external {\n        HourlyBondAccount storage account = hourlyBondAccounts[msg.sender];\n        uint256 yieldQuotient = account.bondYieldQuotientsFP[token];\n        if (yieldQuotient > 0) {\n            YieldAccumulator storage yA =\n                getUpdatedCumulativeYield(\n                    token,\n                    hourlyBondYieldAccumulators,\n                    block.timestamp\n                );\n\n            account.bonds[token] = applyInterest(\n                account.bonds[token],\n                yA.accumulatorFP,\n                account.bondYieldQuotientsFP[token]\n            );\n        }\n        account.bondYieldQuotientsFP[token] = hourlyBondYieldAccumulators[token]\n            .accumulatorFP;\n        account.moduloHour = block.timestamp % (1 hours);\n        require(\n            Fund(fund()).deposit(token, amount),\n            \"Could not transfer bond deposit token to fund\"\n        );\n        account.bonds[token] += amount;\n        totalHourlyBond[token] += amount;\n    }\n\n    function applyInterest(\n        uint256 balance,\n        uint256 accumulatorFP,\n        uint256 yieldQuotientFP\n    ) internal returns (uint256) {\n        // 1 * FP / FP = 1\n        return (balance * accumulatorFP) / yieldQuotientFP;\n    }\n\n    function applyBorrowInterest(\n        uint256 balance,\n        address token,\n        uint256 yieldQuotientFP\n    ) external returns (uint256) {\n        YieldAccumulator storage yA =\n            getUpdatedCumulativeYield(\n                token,\n                borrowYieldAccumulators,\n                block.timestamp\n            );\n        return applyInterest(balance, yA.accumulatorFP, yieldQuotientFP);\n    }\n\n    function withdrawHourlyBonds(address token, uint256 amount) external {\n        HourlyBondAccount storage account = hourlyBondAccounts[msg.sender];\n        // how far the current hour has advanced (relative to acccount hourly clock)\n        uint256 currentOffset =\n            (block.timestamp - account.moduloHour) % (1 hours);\n\n        require(\n            WITHDRAWAL_WINDOW >= currentOffset,\n            \"Tried withdrawing outside subscription cancellation time window\"\n        );\n        require(\n            Fund(fund()).withdraw(token, msg.sender, amount),\n            \"Insufficient liquidity\"\n        );\n\n        account.bonds[token] -= amount;\n        totalHourlyBond[token] -= amount;\n    }\n\n    function registerBorrow(address token, uint256 amount) external {\n        require(isBorrower(msg.sender), \"Not an approved borrower\");\n        require(Fund(fund()).activeTokens(token), \"Not an approved token\");\n        totalBorrowed[token] += amount;\n        require(\n            totalHourlyBond[token] + totalSpotLending[token] >=\n                totalBorrowed[token],\n            \"Insufficient capital to lend\"\n        );\n    }\n\n    function payOff(address token, uint256 amount) external {\n        require(isBorrower(msg.sender), \"Not an approved borrower\");\n        totalBorrowed[token] -= amount;\n    }\n\n    function calcCumulativeYield(\n        YieldAccumulator storage yieldAccumulator,\n        uint256 timeDelta\n    ) internal view returns (uint256 accumulatorFP) {\n        uint256 secondsDelta = timeDelta % (1 hours);\n        // linearly interpolate interest for seconds\n        // accumulator * hourly_rate == seconds_per_hour * accumulator * hourly_rate / seconds_per_hour\n        // FP * FP * 1 / (FP * 1) = FP\n        accumulatorFP =\n            (yieldAccumulator.accumulatorFP *\n                (FP32 + yieldAccumulator.hourlyRateFP) *\n                secondsDelta) /\n            (FP32 * 1 hours);\n\n        uint256 hoursDelta = timeDelta / (1 hours);\n        if (hoursDelta > 0) {\n            // This loop should hardly ever 1 or more unless something bad happened\n            // In which case it costs gas but there isn't overflow\n            for (uint256 i = 0; hoursDelta > i; i++) {\n                // FP32 * FP32 / FP32 = FP32\n                accumulatorFP =\n                    (accumulatorFP * (FP32 + yieldAccumulator.hourlyRateFP)) /\n                    FP32;\n            }\n        }\n    }\n\n    function getUpdatedCumulativeYield(\n        address token,\n        mapping(address => YieldAccumulator) storage yieldAccumulators,\n        uint256 timestamp\n    ) internal returns (YieldAccumulator storage accumulator) {\n        accumulator = yieldAccumulators[token];\n        uint256 timeDelta = (timestamp - yieldAccumulators[token].lastUpdated);\n        accumulator.accumulatorFP = calcCumulativeYield(accumulator, timeDelta);\n    }\n\n    function viewCumulativeYield(\n        address token,\n        mapping(address => YieldAccumulator) storage yieldAccumulators,\n        uint256 timestamp\n    ) internal view returns (uint256) {\n        uint256 timeDelta = (timestamp - yieldAccumulators[token].lastUpdated);\n        return calcCumulativeYield(yieldAccumulators[token], timeDelta);\n    }\n\n    function viewBorrowingYield(address token) external view returns (uint256) {\n        return\n            viewCumulativeYield(\n                token,\n                borrowYieldAccumulators,\n                block.timestamp\n            );\n    }\n}\n",
  "sourcePath": "/home/tixelbook/projects/marginswap-core/contracts/Lending.sol",
  "compiler": {
    "name": "solc",
    "version": "0.7.0+commit.9e61f92b.Emscripten.clang"
  },
  "schemaVersion": "3.3.3",
  "updatedAt": "2021-02-18T07:51:25.741Z",
  "devdoc": {
    "kind": "dev",
    "methods": {
      "owner()": {
        "details": "Returns the address of the current owner."
      },
      "renounceOwnership()": {
        "details": "Leaves the contract without owner. It will not be possible to call `onlyOwner` functions anymore. Can only be called by the current owner. NOTE: Renouncing ownership will leave the contract without an owner, thereby removing any functionality that is only available to the owner."
      },
      "transferOwnership(address)": {
        "details": "Transfers ownership of the contract to a new account (`newOwner`). Can only be called by the current owner."
      }
    },
    "version": 1
  },
  "userdoc": {
    "kind": "user",
    "methods": {},
    "version": 1
  }
}