{
  "contractName": "Lending",
  "abi": [
    {
      "inputs": [
        {
          "internalType": "address",
          "name": "_roles",
          "type": "address"
        }
      ],
      "stateMutability": "nonpayable",
      "type": "constructor"
    },
    {
      "anonymous": false,
      "inputs": [
        {
          "indexed": true,
          "internalType": "address",
          "name": "previousOwner",
          "type": "address"
        },
        {
          "indexed": true,
          "internalType": "address",
          "name": "newOwner",
          "type": "address"
        }
      ],
      "name": "OwnershipTransferred",
      "type": "event"
    },
    {
      "inputs": [
        {
          "internalType": "address",
          "name": "",
          "type": "address"
        },
        {
          "internalType": "uint256",
          "name": "",
          "type": "uint256"
        }
      ],
      "name": "bondTargetNumerator",
      "outputs": [
        {
          "internalType": "uint256",
          "name": "",
          "type": "uint256"
        }
      ],
      "stateMutability": "view",
      "type": "function"
    },
    {
      "inputs": [],
      "name": "bondTotalDailyTarget",
      "outputs": [
        {
          "internalType": "uint256",
          "name": "",
          "type": "uint256"
        }
      ],
      "stateMutability": "view",
      "type": "function"
    },
    {
      "inputs": [],
      "name": "bondTotalTargetQuotient",
      "outputs": [
        {
          "internalType": "uint256",
          "name": "",
          "type": "uint256"
        }
      ],
      "stateMutability": "view",
      "type": "function"
    },
    {
      "inputs": [
        {
          "internalType": "address",
          "name": "",
          "type": "address"
        },
        {
          "internalType": "uint256",
          "name": "",
          "type": "uint256"
        }
      ],
      "name": "bondYieldFP",
      "outputs": [
        {
          "internalType": "uint256",
          "name": "",
          "type": "uint256"
        }
      ],
      "stateMutability": "view",
      "type": "function"
    },
    {
      "inputs": [
        {
          "internalType": "address",
          "name": "",
          "type": "address"
        }
      ],
      "name": "borrowYieldAccumulators",
      "outputs": [
        {
          "internalType": "uint256",
          "name": "accumulatorFP",
          "type": "uint256"
        },
        {
          "internalType": "uint256",
          "name": "lastUpdated",
          "type": "uint256"
        },
        {
          "internalType": "uint256",
          "name": "hourlyRateFP",
          "type": "uint256"
        }
      ],
      "stateMutability": "view",
      "type": "function"
    },
    {
      "inputs": [
        {
          "internalType": "uint256",
          "name": "",
          "type": "uint256"
        }
      ],
      "name": "dailyMaturing",
      "outputs": [
        {
          "internalType": "uint256",
          "name": "",
          "type": "uint256"
        }
      ],
      "stateMutability": "view",
      "type": "function"
    },
    {
      "inputs": [
        {
          "internalType": "address",
          "name": "",
          "type": "address"
        }
      ],
      "name": "hourlyBondAccounts",
      "outputs": [
        {
          "internalType": "uint256",
          "name": "moduloHour",
          "type": "uint256"
        }
      ],
      "stateMutability": "view",
      "type": "function"
    },
    {
      "inputs": [
        {
          "internalType": "address",
          "name": "",
          "type": "address"
        }
      ],
      "name": "hourlyBondYieldAccumulators",
      "outputs": [
        {
          "internalType": "uint256",
          "name": "accumulatorFP",
          "type": "uint256"
        },
        {
          "internalType": "uint256",
          "name": "lastUpdated",
          "type": "uint256"
        },
        {
          "internalType": "uint256",
          "name": "hourlyRateFP",
          "type": "uint256"
        }
      ],
      "stateMutability": "view",
      "type": "function"
    },
    {
      "inputs": [],
      "name": "owner",
      "outputs": [
        {
          "internalType": "address",
          "name": "",
          "type": "address"
        }
      ],
      "stateMutability": "view",
      "type": "function"
    },
    {
      "inputs": [],
      "name": "renounceOwnership",
      "outputs": [],
      "stateMutability": "nonpayable",
      "type": "function"
    },
    {
      "inputs": [],
      "name": "roles",
      "outputs": [
        {
          "internalType": "contract Roles",
          "name": "",
          "type": "address"
        }
      ],
      "stateMutability": "view",
      "type": "function"
    },
    {
      "inputs": [
        {
          "internalType": "address",
          "name": "",
          "type": "address"
        }
      ],
      "name": "totalBorrowed",
      "outputs": [
        {
          "internalType": "uint256",
          "name": "",
          "type": "uint256"
        }
      ],
      "stateMutability": "view",
      "type": "function"
    },
    {
      "inputs": [
        {
          "internalType": "address",
          "name": "",
          "type": "address"
        }
      ],
      "name": "totalHourlyBond",
      "outputs": [
        {
          "internalType": "uint256",
          "name": "",
          "type": "uint256"
        }
      ],
      "stateMutability": "view",
      "type": "function"
    },
    {
      "inputs": [
        {
          "internalType": "address",
          "name": "",
          "type": "address"
        }
      ],
      "name": "totalSpotLending",
      "outputs": [
        {
          "internalType": "uint256",
          "name": "",
          "type": "uint256"
        }
      ],
      "stateMutability": "view",
      "type": "function"
    },
    {
      "inputs": [
        {
          "internalType": "address",
          "name": "newOwner",
          "type": "address"
        }
      ],
      "name": "transferOwnership",
      "outputs": [],
      "stateMutability": "nonpayable",
      "type": "function"
    },
    {
      "inputs": [
        {
          "internalType": "address",
          "name": "token",
          "type": "address"
        },
        {
          "internalType": "uint256",
          "name": "runtime",
          "type": "uint256"
        }
      ],
      "name": "getUpdatedRate",
      "outputs": [],
      "stateMutability": "nonpayable",
      "type": "function"
    },
    {
      "inputs": [
        {
          "internalType": "address",
          "name": "token",
          "type": "address"
        },
        {
          "internalType": "uint256",
          "name": "amount",
          "type": "uint256"
        }
      ],
      "name": "buyHourlyBondSubscription",
      "outputs": [],
      "stateMutability": "nonpayable",
      "type": "function"
    },
    {
      "inputs": [
        {
          "internalType": "uint256",
          "name": "balance",
          "type": "uint256"
        },
        {
          "internalType": "address",
          "name": "token",
          "type": "address"
        },
        {
          "internalType": "uint256",
          "name": "yieldQuotientFP",
          "type": "uint256"
        }
      ],
      "name": "applyBorrowInterest",
      "outputs": [
        {
          "internalType": "uint256",
          "name": "",
          "type": "uint256"
        }
      ],
      "stateMutability": "nonpayable",
      "type": "function"
    },
    {
      "inputs": [
        {
          "internalType": "uint256",
          "name": "balance",
          "type": "uint256"
        },
        {
          "internalType": "address",
          "name": "token",
          "type": "address"
        },
        {
          "internalType": "uint256",
          "name": "yieldQuotientFP",
          "type": "uint256"
        }
      ],
      "name": "viewBorrowInterest",
      "outputs": [
        {
          "internalType": "uint256",
          "name": "",
          "type": "uint256"
        }
      ],
      "stateMutability": "view",
      "type": "function"
    },
    {
      "inputs": [
        {
          "internalType": "address",
          "name": "token",
          "type": "address"
        },
        {
          "internalType": "uint256",
          "name": "amount",
          "type": "uint256"
        }
      ],
      "name": "withdrawHourlyBonds",
      "outputs": [],
      "stateMutability": "nonpayable",
      "type": "function"
    },
    {
      "inputs": [
        {
          "internalType": "address",
          "name": "token",
          "type": "address"
        },
        {
          "internalType": "uint256",
          "name": "amount",
          "type": "uint256"
        }
      ],
      "name": "registerBorrow",
      "outputs": [],
      "stateMutability": "nonpayable",
      "type": "function"
    },
    {
      "inputs": [
        {
          "internalType": "address",
          "name": "token",
          "type": "address"
        },
        {
          "internalType": "uint256",
          "name": "amount",
          "type": "uint256"
        }
      ],
      "name": "payOff",
      "outputs": [],
      "stateMutability": "nonpayable",
      "type": "function"
    },
    {
      "inputs": [
        {
          "internalType": "address",
          "name": "token",
          "type": "address"
        }
      ],
      "name": "viewBorrowingYield",
      "outputs": [
        {
          "internalType": "uint256",
          "name": "",
          "type": "uint256"
        }
      ],
      "stateMutability": "view",
      "type": "function"
    }
  ],
  "bytecode": "0x608060405234801561001057600080fd5b50604051611d90380380611d908339818101604052602081101561003357600080fd5b810190808051906020019092919050505080806000806101000a81548173ffffffffffffffffffffffffffffffffffffffff021916908373ffffffffffffffffffffffffffffffffffffffff16021790555050600061009661013b60201b60201c565b905080600160006101000a81548173ffffffffffffffffffffffffffffffffffffffff021916908373ffffffffffffffffffffffffffffffffffffffff1602179055508073ffffffffffffffffffffffffffffffffffffffff16600073ffffffffffffffffffffffffffffffffffffffff167f8be0079c531659141344cd1fd0a4f28419497f9722a3daafe3b4186f6b6457e060405160405180910390a35050610143565b600033905090565b611c3e806101526000396000f3fe608060405234801561001057600080fd5b506004361061014d5760003560e01c8063b170295d116100c3578063e695fa681161007c578063e695fa681461061c578063e7bde5c114610688578063ee0862bf146106e0578063f29b4c451461072e578063f2fde38b14610786578063f419155a146107ca5761014d565b8063b170295d1461042a578063ba867fbf1461048c578063bfedc0bf146104da578063cd3b5dfb14610540578063d71a0e61146105a6578063e2e1ca2b146105c45761014d565b8063687680ed11610115578063687680ed146102d2578063715018a61461033e578063754b80af14610348578063839737e4146103665780638da5cb5b146103b4578063a370db68146103e85761014d565b806309321a3e1461015257806316de7a43146101aa5780632a6a897b146101f8578063392f5f641461024657806349f7cff61461027a575b600080fd5b6101946004803603602081101561016857600080fd5b81019080803573ffffffffffffffffffffffffffffffffffffffff16906020019092919050505061082c565b6040518082815260200191505060405180910390f35b6101f6600480360360408110156101c057600080fd5b81019080803573ffffffffffffffffffffffffffffffffffffffff1690602001909291908035906020019092919050505061084a565b005b6102446004803603604081101561020e57600080fd5b81019080803573ffffffffffffffffffffffffffffffffffffffff16906020019092919080359060200190929190505050610c0a565b005b61024e610cd6565b604051808273ffffffffffffffffffffffffffffffffffffffff16815260200191505060405180910390f35b6102bc6004803603602081101561029057600080fd5b81019080803573ffffffffffffffffffffffffffffffffffffffff169060200190929190505050610cfa565b6040518082815260200191505060405180910390f35b610328600480360360608110156102e857600080fd5b8101908080359060200190929190803573ffffffffffffffffffffffffffffffffffffffff16906020019092919080359060200190929190505050610d12565b6040518082815260200191505060405180910390f35b610346610d38565b005b610350610ec3565b6040518082815260200191505060405180910390f35b6103b26004803603604081101561037c57600080fd5b81019080803573ffffffffffffffffffffffffffffffffffffffff16906020019092919080359060200190929190505050610ec9565b005b6103bc610ecd565b604051808273ffffffffffffffffffffffffffffffffffffffff16815260200191505060405180910390f35b610414600480360360208110156103fe57600080fd5b8101908080359060200190929190505050610ef7565b6040518082815260200191505060405180910390f35b6104766004803603604081101561044057600080fd5b81019080803573ffffffffffffffffffffffffffffffffffffffff16906020019092919080359060200190929190505050610f0f565b6040518082815260200191505060405180910390f35b6104d8600480360360408110156104a257600080fd5b81019080803573ffffffffffffffffffffffffffffffffffffffff16906020019092919080359060200190929190505050610f34565b005b61051c600480360360208110156104f057600080fd5b81019080803573ffffffffffffffffffffffffffffffffffffffff1690602001909291905050506111cd565b60405180848152602001838152602001828152602001935050505060405180910390f35b6105826004803603602081101561055657600080fd5b81019080803573ffffffffffffffffffffffffffffffffffffffff1690602001909291905050506111f7565b60405180848152602001838152602001828152602001935050505060405180910390f35b6105ae611221565b6040518082815260200191505060405180910390f35b610606600480360360208110156105da57600080fd5b81019080803573ffffffffffffffffffffffffffffffffffffffff169060200190929190505050611227565b6040518082815260200191505060405180910390f35b6106726004803603606081101561063257600080fd5b8101908080359060200190929190803573ffffffffffffffffffffffffffffffffffffffff1690602001909291908035906020019092919050505061123f565b6040518082815260200191505060405180910390f35b6106ca6004803603602081101561069e57600080fd5b81019080803573ffffffffffffffffffffffffffffffffffffffff169060200190929190505050611269565b6040518082815260200191505060405180910390f35b61072c600480360360408110156106f657600080fd5b81019080803573ffffffffffffffffffffffffffffffffffffffff1690602001909291908035906020019092919050505061127e565b005b6107706004803603602081101561074457600080fd5b81019080803573ffffffffffffffffffffffffffffffffffffffff16906020019092919050505061159a565b6040518082815260200191505060405180910390f35b6107c86004803603602081101561079c57600080fd5b81019080803573ffffffffffffffffffffffffffffffffffffffff1690602001909291905050506115b2565b005b610816600480360360408110156107e057600080fd5b81019080803573ffffffffffffffffffffffffffffffffffffffff169060200190929190803590602001909291905050506117c2565b6040518082815260200191505060405180910390f35b60056020528060005260406000206000915090508060020154905081565b6000600560003373ffffffffffffffffffffffffffffffffffffffff1673ffffffffffffffffffffffffffffffffffffffff168152602001908152602001600020905060008160010160008573ffffffffffffffffffffffffffffffffffffffff1673ffffffffffffffffffffffffffffffffffffffff16815260200190815260200160002054905060008111156109c45760006108ea856006426117e7565b905061097d8360000160008773ffffffffffffffffffffffffffffffffffffffff1673ffffffffffffffffffffffffffffffffffffffff1681526020019081526020016000205482600001548560010160008973ffffffffffffffffffffffffffffffffffffffff1673ffffffffffffffffffffffffffffffffffffffff1681526020019081526020016000205461188b565b8360000160008773ffffffffffffffffffffffffffffffffffffffff1673ffffffffffffffffffffffffffffffffffffffff16815260200190815260200160002081905550505b600660008573ffffffffffffffffffffffffffffffffffffffff1673ffffffffffffffffffffffffffffffffffffffff168152602001908152602001600020600001548260010160008673ffffffffffffffffffffffffffffffffffffffff1673ffffffffffffffffffffffffffffffffffffffff16815260200190815260200160002081905550610e104281610a5757fe5b068260020181905550610a686118a2565b73ffffffffffffffffffffffffffffffffffffffff166347e7ef2485856040518363ffffffff1660e01b8152600401808373ffffffffffffffffffffffffffffffffffffffff16815260200182815260200192505050602060405180830381600087803b158015610ad857600080fd5b505af1158015610aec573d6000803e3d6000fd5b505050506040513d6020811015610b0257600080fd5b8101908080519060200190929190505050610b68576040517f08c379a000000000000000000000000000000000000000000000000000000000815260040180806020018281038252602d815260200180611bdc602d913960400191505060405180910390fd5b828260000160008673ffffffffffffffffffffffffffffffffffffffff1673ffffffffffffffffffffffffffffffffffffffff1681526020019081526020016000206000828254019250508190555082600360008673ffffffffffffffffffffffffffffffffffffffff1673ffffffffffffffffffffffffffffffffffffffff1681526020019081526020016000206000828254019250508190555050505050565b610c1333611962565b610c85576040517f08c379a00000000000000000000000000000000000000000000000000000000081526004018080602001828103825260188152602001807f4e6f7420616e20617070726f76656420626f72726f776572000000000000000081525060200191505060405180910390fd5b80600260008473ffffffffffffffffffffffffffffffffffffffff1673ffffffffffffffffffffffffffffffffffffffff168152602001908152602001600020600082825403925050819055505050565b60008054906101000a900473ffffffffffffffffffffffffffffffffffffffff1681565b60036020528060005260406000206000915090505481565b600080610d2184600742611a42565b9050610d2e85828561188b565b9150509392505050565b610d40611adc565b73ffffffffffffffffffffffffffffffffffffffff16600160009054906101000a900473ffffffffffffffffffffffffffffffffffffffff1673ffffffffffffffffffffffffffffffffffffffff1614610e02576040517f08c379a00000000000000000000000000000000000000000000000000000000081526004018080602001828103825260208152602001807f4f776e61626c653a2063616c6c6572206973206e6f7420746865206f776e657281525060200191505060405180910390fd5b600073ffffffffffffffffffffffffffffffffffffffff16600160009054906101000a900473ffffffffffffffffffffffffffffffffffffffff1673ffffffffffffffffffffffffffffffffffffffff167f8be0079c531659141344cd1fd0a4f28419497f9722a3daafe3b4186f6b6457e060405160405180910390a36000600160006101000a81548173ffffffffffffffffffffffffffffffffffffffff021916908373ffffffffffffffffffffffffffffffffffffffff160217905550565b600a5481565b5050565b6000600160009054906101000a900473ffffffffffffffffffffffffffffffffffffffff16905090565b600c6020528060005260406000206000915090505481565b6009602052816000526040600020602052806000526040600020600091509150505481565b6000600560003373ffffffffffffffffffffffffffffffffffffffff1673ffffffffffffffffffffffffffffffffffffffff16815260200190815260200160002090506000610e108260020154420381610f8a57fe5b069050806101681015610fe8576040517f08c379a000000000000000000000000000000000000000000000000000000000815260040180806020018281038252603f815260200180611b9d603f913960400191505060405180910390fd5b610ff06118a2565b73ffffffffffffffffffffffffffffffffffffffff1663d9caed128533866040518463ffffffff1660e01b8152600401808473ffffffffffffffffffffffffffffffffffffffff1681526020018373ffffffffffffffffffffffffffffffffffffffff1681526020018281526020019350505050602060405180830381600087803b15801561107e57600080fd5b505af1158015611092573d6000803e3d6000fd5b505050506040513d60208110156110a857600080fd5b810190808051906020019092919050505061112b576040517f08c379a00000000000000000000000000000000000000000000000000000000081526004018080602001828103825260168152602001807f496e73756666696369656e74206c69717569646974790000000000000000000081525060200191505060405180910390fd5b828260000160008673ffffffffffffffffffffffffffffffffffffffff1673ffffffffffffffffffffffffffffffffffffffff1681526020019081526020016000206000828254039250508190555082600360008673ffffffffffffffffffffffffffffffffffffffff1673ffffffffffffffffffffffffffffffffffffffff1681526020019081526020016000206000828254039250508190555050505050565b60066020528060005260406000206000915090508060000154908060010154908060020154905083565b60076020528060005260406000206000915090508060000154908060010154908060020154905083565b600b5481565b60026020528060005260406000206000915090505481565b60008061124e846007426117e7565b905061125f8582600001548561188b565b9150509392505050565b600061127782600742611a42565b9050919050565b61128733611962565b6112f9576040517f08c379a00000000000000000000000000000000000000000000000000000000081526004018080602001828103825260188152602001807f4e6f7420616e20617070726f76656420626f72726f776572000000000000000081525060200191505060405180910390fd5b6113016118a2565b73ffffffffffffffffffffffffffffffffffffffff16635acf6903836040518263ffffffff1660e01b8152600401808273ffffffffffffffffffffffffffffffffffffffff16815260200191505060206040518083038186803b15801561136757600080fd5b505afa15801561137b573d6000803e3d6000fd5b505050506040513d602081101561139157600080fd5b8101908080519060200190929190505050611414576040517f08c379a00000000000000000000000000000000000000000000000000000000081526004018080602001828103825260158152602001807f4e6f7420616e20617070726f76656420746f6b656e000000000000000000000081525060200191505060405180910390fd5b80600260008473ffffffffffffffffffffffffffffffffffffffff1673ffffffffffffffffffffffffffffffffffffffff16815260200190815260200160002060008282540192505081905550600260008373ffffffffffffffffffffffffffffffffffffffff1673ffffffffffffffffffffffffffffffffffffffff16815260200190815260200160002054600460008473ffffffffffffffffffffffffffffffffffffffff1673ffffffffffffffffffffffffffffffffffffffff16815260200190815260200160002054600360008573ffffffffffffffffffffffffffffffffffffffff1673ffffffffffffffffffffffffffffffffffffffff16815260200190815260200160002054011015611596576040517f08c379a000000000000000000000000000000000000000000000000000000000815260040180806020018281038252601c8152602001807f496e73756666696369656e74206361706974616c20746f206c656e640000000081525060200191505060405180910390fd5b5050565b60046020528060005260406000206000915090505481565b6115ba611adc565b73ffffffffffffffffffffffffffffffffffffffff16600160009054906101000a900473ffffffffffffffffffffffffffffffffffffffff1673ffffffffffffffffffffffffffffffffffffffff161461167c576040517f08c379a00000000000000000000000000000000000000000000000000000000081526004018080602001828103825260208152602001807f4f776e61626c653a2063616c6c6572206973206e6f7420746865206f776e657281525060200191505060405180910390fd5b600073ffffffffffffffffffffffffffffffffffffffff168173ffffffffffffffffffffffffffffffffffffffff161415611702576040517f08c379a0000000000000000000000000000000000000000000000000000000008152600401808060200182810382526026815260200180611b776026913960400191505060405180910390fd5b8073ffffffffffffffffffffffffffffffffffffffff16600160009054906101000a900473ffffffffffffffffffffffffffffffffffffffff1673ffffffffffffffffffffffffffffffffffffffff167f8be0079c531659141344cd1fd0a4f28419497f9722a3daafe3b4186f6b6457e060405160405180910390a380600160006101000a81548173ffffffffffffffffffffffffffffffffffffffff021916908373ffffffffffffffffffffffffffffffffffffffff16021790555050565b6008602052816000526040600020602052806000526040600020600091509150505481565b60008260008573ffffffffffffffffffffffffffffffffffffffff1673ffffffffffffffffffffffffffffffffffffffff168152602001908152602001600020905060008360008673ffffffffffffffffffffffffffffffffffffffff1673ffffffffffffffffffffffffffffffffffffffff168152602001908152602001600020600101548303905061187b8282611ae4565b8260000181905550509392505050565b6000818385028161189857fe5b0490509392505050565b60008060009054906101000a900473ffffffffffffffffffffffffffffffffffffffff1673ffffffffffffffffffffffffffffffffffffffff166336214c7860006040518263ffffffff1660e01b81526004018082600581111561190257fe5b815260200191505060206040518083038186803b15801561192257600080fd5b505afa158015611936573d6000803e3d6000fd5b505050506040513d602081101561194c57600080fd5b8101908080519060200190929190505050905090565b60008060009054906101000a900473ffffffffffffffffffffffffffffffffffffffff1673ffffffffffffffffffffffffffffffffffffffff1663a716b97f8360026040518363ffffffff1660e01b8152600401808373ffffffffffffffffffffffffffffffffffffffff1681526020018260058111156119df57fe5b81526020019250505060206040518083038186803b158015611a0057600080fd5b505afa158015611a14573d6000803e3d6000fd5b505050506040513d6020811015611a2a57600080fd5b81019080805190602001909291905050509050919050565b6000808360008673ffffffffffffffffffffffffffffffffffffffff1673ffffffffffffffffffffffffffffffffffffffff1681526020019081526020016000206001015483039050611ad28460008773ffffffffffffffffffffffffffffffffffffffff1673ffffffffffffffffffffffffffffffffffffffff16815260200190815260200160002082611ae4565b9150509392505050565b600033905090565b600080610e108381611af257fe5b069050610e1064010000000002818560020154640100000000018660000154020281611b1a57fe5b0491506000610e108481611b2a57fe5b0490506000811115611b6e5760005b80821115611b6c57640100000000866002015464010000000001850281611b5c57fe5b0493508080600101915050611b39565b505b50509291505056fe4f776e61626c653a206e6577206f776e657220697320746865207a65726f20616464726573735472696564207769746864726177696e67206f75747369646520737562736372697074696f6e2063616e63656c6c6174696f6e2074696d652077696e646f77436f756c64206e6f74207472616e7366657220626f6e64206465706f73697420746f6b656e20746f2066756e64a264697066735822122073dc31250732885155e5ed98331e6e76e992b90741509f434a7cc75650151faf64736f6c63430007000033",
  "immutableReferences": {},
  "source": "import \"./RoleAware.sol\";\nimport \"./Fund.sol\";\n\nstruct YieldAccumulator {\n    uint256 accumulatorFP;\n    uint256 lastUpdated;\n    uint256 hourlyRateFP;\n}\n\nstruct HourlyBondAccount {\n    mapping(address => uint256) bonds;\n    mapping(address => uint256) bondYieldQuotientsFP;\n    uint256 moduloHour;\n}\n\ncontract Lending is RoleAware, Ownable {\n    uint256 constant FP32 = 2**32;\n    uint256 constant ACCUMULATOR_INIT = 10**18;\n    uint256 constant WITHDRAWAL_WINDOW = 6 minutes;\n    mapping(address => uint256) public totalBorrowed;\n    mapping(address => uint256) public totalHourlyBond;\n    mapping(address => uint256) public totalSpotLending;\n\n    mapping(address => HourlyBondAccount) public hourlyBondAccounts;\n    mapping(address => YieldAccumulator) public hourlyBondYieldAccumulators;\n\n    mapping(address => YieldAccumulator) public borrowYieldAccumulators;\n\n    // token => end-day => yield\n    mapping(address => mapping(uint256 => uint256)) public bondYieldFP;\n\n    // token => end-day => portion of total target lending\n    mapping(address => mapping(uint256 => uint256)) public bondTargetNumerator;\n    // The totality by which we divide above targets\n    uint256 public bondTotalTargetQuotient;\n\n    // TODO replace with function\n    uint256 public bondTotalDailyTarget;\n    mapping(uint256 => uint256) public dailyMaturing;\n\n    constructor(address _roles) RoleAware(_roles) Ownable() {}\n\n    function getUpdatedRate(address token, uint256 runtime) external {\n        uint256 supply;\n        uint256 demand;\n        uint256 rate;\n\n        //uint timeDelta = block.timestamp - lastUpdated;\n        //uint rateUpdateNumerator = (demand + reserve) * rate / supply;\n        //uint rateUpdateQuotient =\n    }\n\n    function buyHourlyBondSubscription(address token, uint256 amount) external {\n        HourlyBondAccount storage account = hourlyBondAccounts[msg.sender];\n        uint256 yieldQuotient = account.bondYieldQuotientsFP[token];\n        if (yieldQuotient > 0) {\n            YieldAccumulator storage yA =\n                getUpdatedCumulativeYield(\n                    token,\n                    hourlyBondYieldAccumulators,\n                    block.timestamp\n                );\n\n            account.bonds[token] = applyInterest(\n                account.bonds[token],\n                yA.accumulatorFP,\n                account.bondYieldQuotientsFP[token]\n            );\n        }\n        account.bondYieldQuotientsFP[token] = hourlyBondYieldAccumulators[token]\n            .accumulatorFP;\n        account.moduloHour = block.timestamp % (1 hours);\n        require(\n            Fund(fund()).deposit(token, amount),\n            \"Could not transfer bond deposit token to fund\"\n        );\n        account.bonds[token] += amount;\n        totalHourlyBond[token] += amount;\n    }\n\n    function applyInterest(\n        uint256 balance,\n        uint256 accumulatorFP,\n        uint256 yieldQuotientFP\n    ) internal pure returns (uint256) {\n        // 1 * FP / FP = 1\n        return (balance * accumulatorFP) / yieldQuotientFP;\n    }\n\n    function applyBorrowInterest(\n        uint256 balance,\n        address token,\n        uint256 yieldQuotientFP\n    ) external returns (uint256) {\n        YieldAccumulator storage yA =\n            getUpdatedCumulativeYield(\n                token,\n                borrowYieldAccumulators,\n                block.timestamp\n            );\n        return applyInterest(balance, yA.accumulatorFP, yieldQuotientFP);\n    }\n\n    function viewBorrowInterest(\n        uint256 balance,\n        address token,\n        uint256 yieldQuotientFP\n    ) external  view returns (uint256) {\n        uint256 accumulatorFP =\n            viewCumulativeYield(\n                token,\n                borrowYieldAccumulators,\n                block.timestamp\n            );\n        return applyInterest(balance, accumulatorFP, yieldQuotientFP);\n    }\n\n    function withdrawHourlyBonds(address token, uint256 amount) external {\n        HourlyBondAccount storage account = hourlyBondAccounts[msg.sender];\n        // how far the current hour has advanced (relative to acccount hourly clock)\n        uint256 currentOffset =\n            (block.timestamp - account.moduloHour) % (1 hours);\n\n        require(\n            WITHDRAWAL_WINDOW >= currentOffset,\n            \"Tried withdrawing outside subscription cancellation time window\"\n        );\n        require(\n            Fund(fund()).withdraw(token, msg.sender, amount),\n            \"Insufficient liquidity\"\n        );\n\n        account.bonds[token] -= amount;\n        totalHourlyBond[token] -= amount;\n    }\n\n    function registerBorrow(address token, uint256 amount) external {\n        require(isBorrower(msg.sender), \"Not an approved borrower\");\n        require(Fund(fund()).activeTokens(token), \"Not an approved token\");\n        totalBorrowed[token] += amount;\n        require(\n            totalHourlyBond[token] + totalSpotLending[token] >=\n                totalBorrowed[token],\n            \"Insufficient capital to lend\"\n        );\n    }\n\n    function payOff(address token, uint256 amount) external {\n        require(isBorrower(msg.sender), \"Not an approved borrower\");\n        totalBorrowed[token] -= amount;\n    }\n\n    function calcCumulativeYield(\n        YieldAccumulator storage yieldAccumulator,\n        uint256 timeDelta\n    ) internal view returns (uint256 accumulatorFP) {\n        uint256 secondsDelta = timeDelta % (1 hours);\n        // linearly interpolate interest for seconds\n        // accumulator * hourly_rate == seconds_per_hour * accumulator * hourly_rate / seconds_per_hour\n        // FP * FP * 1 / (FP * 1) = FP\n        accumulatorFP =\n            (yieldAccumulator.accumulatorFP *\n                (FP32 + yieldAccumulator.hourlyRateFP) *\n                secondsDelta) /\n            (FP32 * 1 hours);\n\n        uint256 hoursDelta = timeDelta / (1 hours);\n        if (hoursDelta > 0) {\n            // This loop should hardly ever 1 or more unless something bad happened\n            // In which case it costs gas but there isn't overflow\n            for (uint256 i = 0; hoursDelta > i; i++) {\n                // FP32 * FP32 / FP32 = FP32\n                accumulatorFP =\n                    (accumulatorFP * (FP32 + yieldAccumulator.hourlyRateFP)) /\n                    FP32;\n            }\n        }\n    }\n\n    function getUpdatedCumulativeYield(\n        address token,\n        mapping(address => YieldAccumulator) storage yieldAccumulators,\n        uint256 timestamp\n    ) internal returns (YieldAccumulator storage accumulator) {\n        accumulator = yieldAccumulators[token];\n        uint256 timeDelta = (timestamp - yieldAccumulators[token].lastUpdated);\n        accumulator.accumulatorFP = calcCumulativeYield(accumulator, timeDelta);\n    }\n\n    function viewCumulativeYield(\n        address token,\n        mapping(address => YieldAccumulator) storage yieldAccumulators,\n        uint256 timestamp\n    ) internal view returns (uint256) {\n        uint256 timeDelta = (timestamp - yieldAccumulators[token].lastUpdated);\n        return calcCumulativeYield(yieldAccumulators[token], timeDelta);\n    }\n\n    function viewBorrowingYield(address token) external view returns (uint256) {\n        return\n            viewCumulativeYield(\n                token,\n                borrowYieldAccumulators,\n                block.timestamp\n            );\n    }\n}\n",
  "sourcePath": "/home/tixelbook/projects/marginswap-core/contracts/Lending.sol",
  "compiler": {
    "name": "solc",
    "version": "0.7.0+commit.9e61f92b.Emscripten.clang"
  },
  "schemaVersion": "3.3.3",
  "updatedAt": "2021-02-19T09:24:39.573Z",
  "devdoc": {
    "kind": "dev",
    "methods": {
      "owner()": {
        "details": "Returns the address of the current owner."
      },
      "renounceOwnership()": {
        "details": "Leaves the contract without owner. It will not be possible to call `onlyOwner` functions anymore. Can only be called by the current owner. NOTE: Renouncing ownership will leave the contract without an owner, thereby removing any functionality that is only available to the owner."
      },
      "transferOwnership(address)": {
        "details": "Transfers ownership of the contract to a new account (`newOwner`). Can only be called by the current owner."
      }
    },
    "version": 1
  },
  "userdoc": {
    "kind": "user",
    "methods": {},
    "version": 1
  }
}