{
  "contractName": "MarginTrading",
  "abi": [
    {
      "inputs": [
        {
          "internalType": "address",
          "name": "_roles",
          "type": "address"
        }
      ],
      "stateMutability": "nonpayable",
      "type": "constructor"
    },
    {
      "anonymous": false,
      "inputs": [
        {
          "indexed": true,
          "internalType": "address",
          "name": "previousOwner",
          "type": "address"
        },
        {
          "indexed": true,
          "internalType": "address",
          "name": "newOwner",
          "type": "address"
        }
      ],
      "name": "OwnershipTransferred",
      "type": "event"
    },
    {
      "inputs": [],
      "name": "leverage",
      "outputs": [
        {
          "internalType": "uint256",
          "name": "",
          "type": "uint256"
        }
      ],
      "stateMutability": "view",
      "type": "function"
    },
    {
      "inputs": [],
      "name": "liquidationThresholdPercent",
      "outputs": [
        {
          "internalType": "uint256",
          "name": "",
          "type": "uint256"
        }
      ],
      "stateMutability": "view",
      "type": "function"
    },
    {
      "inputs": [],
      "name": "owner",
      "outputs": [
        {
          "internalType": "address",
          "name": "",
          "type": "address"
        }
      ],
      "stateMutability": "view",
      "type": "function"
    },
    {
      "inputs": [],
      "name": "renounceOwnership",
      "outputs": [],
      "stateMutability": "nonpayable",
      "type": "function"
    },
    {
      "inputs": [],
      "name": "roles",
      "outputs": [
        {
          "internalType": "contract Roles",
          "name": "",
          "type": "address"
        }
      ],
      "stateMutability": "view",
      "type": "function"
    },
    {
      "inputs": [
        {
          "internalType": "address",
          "name": "newOwner",
          "type": "address"
        }
      ],
      "name": "transferOwnership",
      "outputs": [],
      "stateMutability": "nonpayable",
      "type": "function"
    },
    {
      "inputs": [
        {
          "internalType": "address",
          "name": "trader",
          "type": "address"
        }
      ],
      "name": "getHoldingAmounts",
      "outputs": [
        {
          "internalType": "address[]",
          "name": "holdingTokens",
          "type": "address[]"
        },
        {
          "internalType": "uint256[]",
          "name": "holdingAmounts",
          "type": "uint256[]"
        }
      ],
      "stateMutability": "view",
      "type": "function"
    },
    {
      "inputs": [
        {
          "internalType": "uint256",
          "name": "_leverage",
          "type": "uint256"
        }
      ],
      "name": "setLeverage",
      "outputs": [],
      "stateMutability": "nonpayable",
      "type": "function"
    },
    {
      "inputs": [
        {
          "internalType": "uint256",
          "name": "threshold",
          "type": "uint256"
        }
      ],
      "name": "setLiquidationThresholdPercent",
      "outputs": [],
      "stateMutability": "nonpayable",
      "type": "function"
    },
    {
      "inputs": [
        {
          "internalType": "address",
          "name": "trader",
          "type": "address"
        },
        {
          "internalType": "address",
          "name": "token",
          "type": "address"
        },
        {
          "internalType": "uint256",
          "name": "depositAmount",
          "type": "uint256"
        }
      ],
      "name": "registerDeposit",
      "outputs": [
        {
          "internalType": "uint256",
          "name": "extinguishableDebt",
          "type": "uint256"
        }
      ],
      "stateMutability": "nonpayable",
      "type": "function"
    },
    {
      "inputs": [
        {
          "internalType": "address",
          "name": "trader",
          "type": "address"
        },
        {
          "internalType": "address",
          "name": "borrowToken",
          "type": "address"
        },
        {
          "internalType": "uint256",
          "name": "borrowAmount",
          "type": "uint256"
        }
      ],
      "name": "registerBorrow",
      "outputs": [],
      "stateMutability": "nonpayable",
      "type": "function"
    },
    {
      "inputs": [
        {
          "internalType": "address",
          "name": "trader",
          "type": "address"
        },
        {
          "internalType": "address",
          "name": "withdrawToken",
          "type": "address"
        },
        {
          "internalType": "uint256",
          "name": "withdrawAmount",
          "type": "uint256"
        }
      ],
      "name": "registerWithdrawal",
      "outputs": [],
      "stateMutability": "nonpayable",
      "type": "function"
    },
    {
      "inputs": [
        {
          "internalType": "address",
          "name": "trader",
          "type": "address"
        },
        {
          "internalType": "address",
          "name": "debtToken",
          "type": "address"
        },
        {
          "internalType": "uint256",
          "name": "extinguishAmount",
          "type": "uint256"
        }
      ],
      "name": "registerPayOff",
      "outputs": [],
      "stateMutability": "nonpayable",
      "type": "function"
    },
    {
      "inputs": [
        {
          "internalType": "address",
          "name": "trader",
          "type": "address"
        },
        {
          "internalType": "address",
          "name": "token",
          "type": "address"
        },
        {
          "internalType": "uint256",
          "name": "amount",
          "type": "uint256"
        }
      ],
      "name": "getTradeBorrowAmount",
      "outputs": [
        {
          "internalType": "uint256",
          "name": "borrowAmount",
          "type": "uint256"
        }
      ],
      "stateMutability": "nonpayable",
      "type": "function"
    },
    {
      "inputs": [
        {
          "internalType": "address",
          "name": "trader",
          "type": "address"
        },
        {
          "internalType": "address",
          "name": "tokenFrom",
          "type": "address"
        },
        {
          "internalType": "address",
          "name": "tokenTo",
          "type": "address"
        },
        {
          "internalType": "uint256",
          "name": "inAmount",
          "type": "uint256"
        },
        {
          "internalType": "uint256",
          "name": "outAmount",
          "type": "uint256"
        }
      ],
      "name": "registerTradeAndBorrow",
      "outputs": [
        {
          "internalType": "uint256",
          "name": "borrowAmount",
          "type": "uint256"
        }
      ],
      "stateMutability": "nonpayable",
      "type": "function"
    },
    {
      "inputs": [
        {
          "internalType": "address[]",
          "name": "liquidationCandidates",
          "type": "address[]"
        },
        {
          "internalType": "address",
          "name": "responsibleStaker",
          "type": "address"
        },
        {
          "internalType": "address",
          "name": "currentCaller",
          "type": "address"
        },
        {
          "internalType": "bool",
          "name": "isAuthorized",
          "type": "bool"
        }
      ],
      "name": "callMargin",
      "outputs": [
        {
          "internalType": "uint256",
          "name": "marginCallerCut",
          "type": "uint256"
        }
      ],
      "stateMutability": "nonpayable",
      "type": "function"
    }
  ],
  "bytecode": "0x60806040526050600a553480156200001657600080fd5b506040516200368f3803806200368f833981810160405260208110156200003c57600080fd5b810190808051906020019092919050505080806000806101000a81548173ffffffffffffffffffffffffffffffffffffffff021916908373ffffffffffffffffffffffffffffffffffffffff160217905550506000620000a16200014f60201b60201c565b905080600160006101000a81548173ffffffffffffffffffffffffffffffffffffffff021916908373ffffffffffffffffffffffffffffffffffffffff1602179055508073ffffffffffffffffffffffffffffffffffffffff16600073ffffffffffffffffffffffffffffffffffffffff167f8be0079c531659141344cd1fd0a4f28419497f9722a3daafe3b4186f6b6457e060405160405180910390a35060146003819055505062000157565b600033905090565b61352880620001676000396000f3fe608060405234801561001057600080fd5b50600436106101005760003560e01c806352a664d9116100975780638da5cb5b116100665780638da5cb5b146105f2578063b25777ad14610626578063d0eb665314610694578063f2fde38b1461070257610100565b806352a664d9146104b65780636612ce3514610538578063715018a6146105ba57806379575b23146105c457610100565b80633500aa0b116100d35780633500aa0b14610287578063392f5f6414610333578063409fdb7214610367578063498d55eb1461044857610100565b806315dc6a281461010557806316317e7e1461021d5780632c86d98e1461024b578063320d2fa014610269575b600080fd5b6102076004803603608081101561011b57600080fd5b810190808035906020019064010000000081111561013857600080fd5b82018360208201111561014a57600080fd5b8035906020019184602083028401116401000000008311171561016c57600080fd5b919080806020026020016040519081016040528093929190818152602001838360200280828437600081840152601f19601f820116905080830192505050505050509192919290803573ffffffffffffffffffffffffffffffffffffffff169060200190929190803573ffffffffffffffffffffffffffffffffffffffff169060200190929190803515159060200190929190505050610746565b6040518082815260200191505060405180910390f35b6102496004803603602081101561023357600080fd5b8101908080359060200190929190505050610a3e565b005b610253610b12565b6040518082815260200191505060405180910390f35b610271610b18565b6040518082815260200191505060405180910390f35b61031d600480360360a081101561029d57600080fd5b81019080803573ffffffffffffffffffffffffffffffffffffffff169060200190929190803573ffffffffffffffffffffffffffffffffffffffff169060200190929190803573ffffffffffffffffffffffffffffffffffffffff1690602001909291908035906020019092919080359060200190929190505050610b1e565b6040518082815260200191505060405180910390f35b61033b610c7c565b604051808273ffffffffffffffffffffffffffffffffffffffff16815260200191505060405180910390f35b6103a96004803603602081101561037d57600080fd5b81019080803573ffffffffffffffffffffffffffffffffffffffff169060200190929190505050610ca0565b604051808060200180602001838103835285818151815260200191508051906020019060200280838360005b838110156103f05780820151818401526020810190506103d5565b50505050905001838103825284818151815260200191508051906020019060200280838360005b83811015610432578082015181840152602081019050610417565b5050505090500194505050505060405180910390f35b6104b46004803603606081101561045e57600080fd5b81019080803573ffffffffffffffffffffffffffffffffffffffff169060200190929190803573ffffffffffffffffffffffffffffffffffffffff16906020019092919080359060200190929190505050610e54565b005b610522600480360360608110156104cc57600080fd5b81019080803573ffffffffffffffffffffffffffffffffffffffff169060200190929190803573ffffffffffffffffffffffffffffffffffffffff16906020019092919080359060200190929190505050610f06565b6040518082815260200191505060405180910390f35b6105a46004803603606081101561054e57600080fd5b81019080803573ffffffffffffffffffffffffffffffffffffffff169060200190929190803573ffffffffffffffffffffffffffffffffffffffff16906020019092919080359060200190929190505050611054565b6040518082815260200191505060405180910390f35b6105c26111c2565b005b6105f0600480360360208110156105da57600080fd5b810190808035906020019092919050505061134d565b005b6105fa611421565b604051808273ffffffffffffffffffffffffffffffffffffffff16815260200191505060405180910390f35b6106926004803603606081101561063c57600080fd5b81019080803573ffffffffffffffffffffffffffffffffffffffff169060200190929190803573ffffffffffffffffffffffffffffffffffffffff1690602001909291908035906020019092919050505061144b565b005b610700600480360360608110156106aa57600080fd5b81019080803573ffffffffffffffffffffffffffffffffffffffff169060200190929190803573ffffffffffffffffffffffffffffffffffffffff169060200190929190803590602001909291905050506114f7565b005b6107446004803603602081101561071857600080fd5b81019080803573ffffffffffffffffffffffffffffffffffffffff169060200190929190505050611695565b005b6000610751336118a5565b6107a6576040517f08c379a000000000000000000000000000000000000000000000000000000000815260040180806020018281038252602f815260200180613478602f913960400191505060405180910390fd5b60006107b28684611985565b905060006107be612073565b905060606107ca61211e565b905060005b806008805490501115610a32576000600882815481106107eb57fe5b9060005260206000200160009054906101000a900473ffffffffffffffffffffffffffffffffffffffff1690506000600460008373ffffffffffffffffffffffffffffffffffffffff1673ffffffffffffffffffffffffffffffffffffffff1681526020019081526020016000209050600061086682612171565b9050600061087383612178565b9050600060028054606460035485028161088957fe5b048161089157fe5b048161089957fe5b049050808a0199508181018310610a0c576108b2612195565b73ffffffffffffffffffffffffffffffffffffffff1663d9caed126108d5612255565b73ffffffffffffffffffffffffffffffffffffffff16631f1cb62b6040518163ffffffff1660e01b815260040160206040518083038186803b15801561091a57600080fd5b505afa15801561092e573d6000803e3d6000fd5b505050506040513d602081101561094457600080fd5b81019080805190602001909291905050508784868803036040518463ffffffff1660e01b8152600401808473ffffffffffffffffffffffffffffffffffffffff1681526020018373ffffffffffffffffffffffffffffffffffffffff1681526020018281526020019350505050602060405180830381600087803b1580156109cb57600080fd5b505af11580156109df573d6000803e3d6000fd5b505050506040513d60208110156109f557600080fd5b810190808051906020019092919050505050610a17565b600083828401039050505b610a2084612315565b505050505080806001019150506107cf565b50505050949350505050565b610a46612318565b73ffffffffffffffffffffffffffffffffffffffff16600160009054906101000a900473ffffffffffffffffffffffffffffffffffffffff1673ffffffffffffffffffffffffffffffffffffffff1614610b08576040517f08c379a00000000000000000000000000000000000000000000000000000000081526004018080602001828103825260208152602001807f4f776e61626c653a2063616c6c6572206973206e6f7420746865206f776e657281525060200191505060405180910390fd5b8060038190555050565b60025481565b60035481565b6000610b2933612320565b610b7e576040517f08c379a00000000000000000000000000000000000000000000000000000000081526004018080602001828103825260398152602001806133c06039913960400191505060405180910390fd5b6000600460008873ffffffffffffffffffffffffffffffffffffffff1673ffffffffffffffffffffffffffffffffffffffff168152602001908152602001600020905060008490508160040160008873ffffffffffffffffffffffffffffffffffffffff1673ffffffffffffffffffffffffffffffffffffffff16815260200190815260200160002054851115610c64578160040160008873ffffffffffffffffffffffffffffffffffffffff1673ffffffffffffffffffffffffffffffffffffffff1681526020019081526020016000205490508085039250610c63828885612400565b5b610c7182888884886127a6565b505095945050505050565b60008054906101000a900473ffffffffffffffffffffffffffffffffffffffff1681565b6060806000600460008573ffffffffffffffffffffffffffffffffffffffff1673ffffffffffffffffffffffffffffffffffffffff168152602001908152602001600020905080600301805480602002602001604051908101604052809291908181526020018280548015610d6a57602002820191906000526020600020905b8160009054906101000a900473ffffffffffffffffffffffffffffffffffffffff1673ffffffffffffffffffffffffffffffffffffffff1681526020019060010190808311610d20575b50505050509250806003018054905067ffffffffffffffff81118015610d8f57600080fd5b50604051908082528060200260200182016040528015610dbe5781602001602082028036833780820191505090505b50915060005b8084511115610e4d576000848281518110610ddb57fe5b602002602001015190508260040160008273ffffffffffffffffffffffffffffffffffffffff1673ffffffffffffffffffffffffffffffffffffffff16815260200190815260200160002054848381518110610e3357fe5b602002602001018181525050508080600101915050610dc4565b5050915091565b610e5d33612320565b610eb2576040517f08c379a000000000000000000000000000000000000000000000000000000000815260040180806020018281038252602a8152602001806134c9602a913960400191505060405180910390fd5b6000600460008573ffffffffffffffffffffffffffffffffffffffff1673ffffffffffffffffffffffffffffffffffffffff1681526020019081526020016000209050610f00818484612400565b50505050565b6000610f1133612320565b610f66576040517f08c379a000000000000000000000000000000000000000000000000000000000815260040180806020018281038252602a8152602001806134c9602a913960400191505060405180910390fd5b6000600460008673ffffffffffffffffffffffffffffffffffffffff1673ffffffffffffffffffffffffffffffffffffffff1681526020019081526020016000209050610fb4818585612851565b60008160010160008673ffffffffffffffffffffffffffffffffffffffff1673ffffffffffffffffffffffffffffffffffffffff16815260200190815260200160002054111561104c57611049838260010160008773ffffffffffffffffffffffffffffffffffffffff1673ffffffffffffffffffffffffffffffffffffffff16815260200190815260200160002054612919565b91505b509392505050565b600061105f33612320565b6110b4576040517f08c379a000000000000000000000000000000000000000000000000000000000815260040180806020018281038252603381526020018061341f6033913960400191505060405180910390fd5b6000600460008673ffffffffffffffffffffffffffffffffffffffff1673ffffffffffffffffffffffffffffffffffffffff16815260200190815260200160002090508060040160008573ffffffffffffffffffffffffffffffffffffffff1673ffffffffffffffffffffffffffffffffffffffff1681526020019081526020016000205483039150611148818584612935565b6111ba576040517f08c379a00000000000000000000000000000000000000000000000000000000081526004018080602001828103825260188152602001807f43616e277420626f72726f772066756c6c20616d6f756e74000000000000000081525060200191505060405180910390fd5b509392505050565b6111ca612318565b73ffffffffffffffffffffffffffffffffffffffff16600160009054906101000a900473ffffffffffffffffffffffffffffffffffffffff1673ffffffffffffffffffffffffffffffffffffffff161461128c576040517f08c379a00000000000000000000000000000000000000000000000000000000081526004018080602001828103825260208152602001807f4f776e61626c653a2063616c6c6572206973206e6f7420746865206f776e657281525060200191505060405180910390fd5b600073ffffffffffffffffffffffffffffffffffffffff16600160009054906101000a900473ffffffffffffffffffffffffffffffffffffffff1673ffffffffffffffffffffffffffffffffffffffff167f8be0079c531659141344cd1fd0a4f28419497f9722a3daafe3b4186f6b6457e060405160405180910390a36000600160006101000a81548173ffffffffffffffffffffffffffffffffffffffff021916908373ffffffffffffffffffffffffffffffffffffffff160217905550565b611355612318565b73ffffffffffffffffffffffffffffffffffffffff16600160009054906101000a900473ffffffffffffffffffffffffffffffffffffffff1673ffffffffffffffffffffffffffffffffffffffff1614611417576040517f08c379a00000000000000000000000000000000000000000000000000000000081526004018080602001828103825260208152602001807f4f776e61626c653a2063616c6c6572206973206e6f7420746865206f776e657281525060200191505060405180910390fd5b8060028190555050565b6000600160009054906101000a900473ffffffffffffffffffffffffffffffffffffffff16905090565b61145433612320565b6114a9576040517f08c379a000000000000000000000000000000000000000000000000000000000815260040180806020018281038252602a8152602001806134c9602a913960400191505060405180910390fd5b6114f2600460008573ffffffffffffffffffffffffffffffffffffffff1673ffffffffffffffffffffffffffffffffffffffff1681526020019081526020016000208383612985565b505050565b61150033612320565b611555576040517f08c379a000000000000000000000000000000000000000000000000000000000815260040180806020018281038252602a8152602001806134c9602a913960400191505060405180910390fd5b6000600460008573ffffffffffffffffffffffffffffffffffffffff1673ffffffffffffffffffffffffffffffffffffffff16815260200190815260200160002090506115ec828260040160008673ffffffffffffffffffffffffffffffffffffffff1673ffffffffffffffffffffffffffffffffffffffff16815260200190815260200160002054612c3e90919063ffffffff16565b8160040160008573ffffffffffffffffffffffffffffffffffffffff1673ffffffffffffffffffffffffffffffffffffffff1681526020019081526020016000208190555061163a81612c88565b61168f576040517f08c379a00000000000000000000000000000000000000000000000000000000081526004018080602001828103825260268152602001806134526026913960400191505060405180910390fd5b50505050565b61169d612318565b73ffffffffffffffffffffffffffffffffffffffff16600160009054906101000a900473ffffffffffffffffffffffffffffffffffffffff1673ffffffffffffffffffffffffffffffffffffffff161461175f576040517f08c379a00000000000000000000000000000000000000000000000000000000081526004018080602001828103825260208152602001807f4f776e61626c653a2063616c6c6572206973206e6f7420746865206f776e657281525060200191505060405180910390fd5b600073ffffffffffffffffffffffffffffffffffffffff168173ffffffffffffffffffffffffffffffffffffffff1614156117e5576040517f08c379a00000000000000000000000000000000000000000000000000000000081526004018080602001828103825260268152602001806133f96026913960400191505060405180910390fd5b8073ffffffffffffffffffffffffffffffffffffffff16600160009054906101000a900473ffffffffffffffffffffffffffffffffffffffff1673ffffffffffffffffffffffffffffffffffffffff167f8be0079c531659141344cd1fd0a4f28419497f9722a3daafe3b4186f6b6457e060405160405180910390a380600160006101000a81548173ffffffffffffffffffffffffffffffffffffffff021916908373ffffffffffffffffffffffffffffffffffffffff16021790555050565b60008060009054906101000a900473ffffffffffffffffffffffffffffffffffffffff1673ffffffffffffffffffffffffffffffffffffffff1663a716b97f8360016040518363ffffffff1660e01b8152600401808373ffffffffffffffffffffffffffffffffffffffff16815260200182600581111561192257fe5b81526020019250505060206040518083038186803b15801561194357600080fd5b505afa158015611957573d6000803e3d6000fd5b505050506040513d602081101561196d57600080fd5b81019080805190602001909291905050509050919050565b60008067ffffffffffffffff8111801561199e57600080fd5b506040519080825280602002602001820160405280156119cd5781602001602082028036833780820191505090505b50600690805190602001906119e39291906132fa565b50600067ffffffffffffffff811180156119fc57600080fd5b50604051908082528060200260200182016040528015611a2b5781602001602082028036833780820191505090505b5060079080519060200190611a419291906132fa565b50600067ffffffffffffffff81118015611a5a57600080fd5b50604051908082528060200260200182016040528015611a895781602001602082028036833780820191505090505b5060089080519060200190611a9f9291906132fa565b5060005b808451111561206c576000848281518110611aba57fe5b602002602001015190506000600460008373ffffffffffffffffffffffffffffffffffffffff1673ffffffffffffffffffffffffffffffffffffffff1681526020019081526020016000209050611b1081612cbb565b15611fc6576008829080600181540180825580915050600190039060005260206000200160009091909190916101000a81548173ffffffffffffffffffffffffffffffffffffffff021916908373ffffffffffffffffffffffffffffffffffffffff16021790555060005b8082600301805490501115611d3e576000826003018281548110611b9b57fe5b9060005260206000200160009054906101000a900473ffffffffffffffffffffffffffffffffffffffff1690506000600560008373ffffffffffffffffffffffffffffffffffffffff1673ffffffffffffffffffffffffffffffffffffffff168152602001908152602001600020905043816002015414611cdb578360040160008373ffffffffffffffffffffffffffffffffffffffff1673ffffffffffffffffffffffffffffffffffffffff168152602001908152602001600020548160010181905550600081600001819055504381600201819055506006829080600181540180825580915050600190039060005260206000200160009091909190916101000a81548173ffffffffffffffffffffffffffffffffffffffff021916908373ffffffffffffffffffffffffffffffffffffffff160217905550611d2f565b8360040160008373ffffffffffffffffffffffffffffffffffffffff1673ffffffffffffffffffffffffffffffffffffffff1681526020019081526020016000205481600101600082825401925050819055505b50508080600101915050611b7b565b5060005b8082600001805490501115611fc4576000826000018281548110611d6257fe5b9060005260206000200160009054906101000a900473ffffffffffffffffffffffffffffffffffffffff1690506000600560008373ffffffffffffffffffffffffffffffffffffffff1673ffffffffffffffffffffffffffffffffffffffff16815260200190815260200160002090506000611ddc612cf5565b73ffffffffffffffffffffffffffffffffffffffff1663e7bde5c1846040518263ffffffff1660e01b8152600401808273ffffffffffffffffffffffffffffffffffffffff16815260200191505060206040518083038186803b158015611e4257600080fd5b505afa158015611e56573d6000803e3d6000fd5b505050506040513d6020811015611e6c57600080fd5b8101908080519060200190929190505050905060008560020160008573ffffffffffffffffffffffffffffffffffffffff1673ffffffffffffffffffffffffffffffffffffffff16815260200190815260200160002054828760010160008773ffffffffffffffffffffffffffffffffffffffff1673ffffffffffffffffffffffffffffffffffffffff168152602001908152602001600020540281611f0e57fe5b04905043836002015414611fa057600083600101819055508083600001819055504383600201819055506007849080600181540180825580915050600190039060005260206000200160009091909190916101000a81548173ffffffffffffffffffffffffffffffffffffffff021916908373ffffffffffffffffffffffffffffffffffffffff160217905550611fb3565b8083600001600082825401925050819055505b505050508080600101915050611d42565b505b6000600960008473ffffffffffffffffffffffffffffffffffffffff1673ffffffffffffffffffffffffffffffffffffffff16815260200190815260200160002090506000816001015411801561201a5750855b1561205c57600061203682600001544360010103600a54612919565b90506000600a54836001015483028161204b57fe5b049050808360010154038701965050505b5050508080600101915050611aa3565b5092915050565b600080600090505b80600680549050111561211a576000600560006006848154811061209b57fe5b9060005260206000200160009054906101000a900473ffffffffffffffffffffffffffffffffffffffff1673ffffffffffffffffffffffffffffffffffffffff1673ffffffffffffffffffffffffffffffffffffffff16815260200190815260200160002060010154905060008301925050808060010191505061207b565b5090565b606060078054905067ffffffffffffffff8111801561213c57600080fd5b5060405190808252806020026020018201604052801561216b5781602001602082028036833780820191505090505b50905090565b6000919050565b600061218e826000018360010184600201612db5565b9050919050565b60008060009054906101000a900473ffffffffffffffffffffffffffffffffffffffff1673ffffffffffffffffffffffffffffffffffffffff166336214c7860006040518263ffffffff1660e01b8152600401808260058111156121f557fe5b815260200191505060206040518083038186803b15801561221557600080fd5b505afa158015612229573d6000803e3d6000fd5b505050506040513d602081101561223f57600080fd5b8101908080519060200190929190505050905090565b60008060009054906101000a900473ffffffffffffffffffffffffffffffffffffffff1673ffffffffffffffffffffffffffffffffffffffff166336214c7860056040518263ffffffff1660e01b8152600401808260058111156122b557fe5b815260200191505060206040518083038186803b1580156122d557600080fd5b505afa1580156122e9573d6000803e3d6000fd5b505050506040513d60208110156122ff57600080fd5b8101908080519060200190929190505050905090565b50565b600033905090565b60008060009054906101000a900473ffffffffffffffffffffffffffffffffffffffff1673ffffffffffffffffffffffffffffffffffffffff1663a716b97f8360036040518363ffffffff1660e01b8152600401808373ffffffffffffffffffffffffffffffffffffffff16815260200182600581111561239d57fe5b81526020019250505060206040518083038186803b1580156123be57600080fd5b505afa1580156123d2573d6000803e3d6000fd5b505050506040513d60208110156123e857600080fd5b81019080805190602001909291905050509050919050565b61240a8383612e67565b6125665782600001829080600181540180825580915050600190039060005260206000200160009091909190916101000a81548173ffffffffffffffffffffffffffffffffffffffff021916908373ffffffffffffffffffffffffffffffffffffffff16021790555061247b612cf5565b73ffffffffffffffffffffffffffffffffffffffff1663e7bde5c1836040518263ffffffff1660e01b8152600401808273ffffffffffffffffffffffffffffffffffffffff16815260200191505060206040518083038186803b1580156124e157600080fd5b505afa1580156124f5573d6000803e3d6000fd5b505050506040513d602081101561250b57600080fd5b81019080805190602001909291905050508360020160008473ffffffffffffffffffffffffffffffffffffffff1673ffffffffffffffffffffffffffffffffffffffff168152602001908152602001600020819055506126e9565b61256e612cf5565b73ffffffffffffffffffffffffffffffffffffffff1663e695fa688460010160008573ffffffffffffffffffffffffffffffffffffffff1673ffffffffffffffffffffffffffffffffffffffff16815260200190815260200160002054848660020160008773ffffffffffffffffffffffffffffffffffffffff1673ffffffffffffffffffffffffffffffffffffffff168152602001908152602001600020546040518463ffffffff1660e01b8152600401808481526020018373ffffffffffffffffffffffffffffffffffffffff1681526020018281526020019350505050602060405180830381600087803b15801561266857600080fd5b505af115801561267c573d6000803e3d6000fd5b505050506040513d602081101561269257600080fd5b81019080805190602001909291905050508360010160008473ffffffffffffffffffffffffffffffffffffffff1673ffffffffffffffffffffffffffffffffffffffff168152602001908152602001600020819055505b808360010160008473ffffffffffffffffffffffffffffffffffffffff1673ffffffffffffffffffffffffffffffffffffffff16815260200190815260200160002060008282540192505081905550612743838383612851565b61274c83612c88565b6127a1576040517f08c379a00000000000000000000000000000000000000000000000000000000081526004018080602001828103825260228152602001806134a76022913960400191505060405180910390fd5b505050565b6127fa828660040160008773ffffffffffffffffffffffffffffffffffffffff1673ffffffffffffffffffffffffffffffffffffffff16815260200190815260200160002054612c3e90919063ffffffff16565b8560040160008673ffffffffffffffffffffffffffffffffffffffff1673ffffffffffffffffffffffffffffffffffffffff1681526020019081526020016000208190555061284a858483612851565b5050505050565b61285b8383612eb5565b6128c55782600301829080600181540180825580915050600190039060005260206000200160009091909190916101000a81548173ffffffffffffffffffffffffffffffffffffffff021916908373ffffffffffffffffffffffffffffffffffffffff1602179055505b808360040160008473ffffffffffffffffffffffffffffffffffffffff1673ffffffffffffffffffffffffffffffffffffffff16815260200190815260200160002060008282540192505081905550505050565b60008183111561292b5781905061292f565b8290505b92915050565b6000818460040160008573ffffffffffffffffffffffffffffffffffffffff1673ffffffffffffffffffffffffffffffffffffffff16815260200190815260200160002054101590509392505050565b61298d612cf5565b73ffffffffffffffffffffffffffffffffffffffff1663e695fa688460010160008573ffffffffffffffffffffffffffffffffffffffff1673ffffffffffffffffffffffffffffffffffffffff16815260200190815260200160002054848660020160008773ffffffffffffffffffffffffffffffffffffffff1673ffffffffffffffffffffffffffffffffffffffff168152602001908152602001600020546040518463ffffffff1660e01b8152600401808481526020018373ffffffffffffffffffffffffffffffffffffffff1681526020018281526020019350505050602060405180830381600087803b158015612a8757600080fd5b505af1158015612a9b573d6000803e3d6000fd5b505050506040513d6020811015612ab157600080fd5b81019080805190602001909291905050508360010160008473ffffffffffffffffffffffffffffffffffffffff1673ffffffffffffffffffffffffffffffffffffffff16815260200190815260200160002081905550612b5b818460010160008573ffffffffffffffffffffffffffffffffffffffff1673ffffffffffffffffffffffffffffffffffffffff16815260200190815260200160002054612c3e90919063ffffffff16565b8360010160008473ffffffffffffffffffffffffffffffffffffffff1673ffffffffffffffffffffffffffffffffffffffff16815260200190815260200160002081905550612bf4818460040160008573ffffffffffffffffffffffffffffffffffffffff1673ffffffffffffffffffffffffffffffffffffffff16815260200190815260200160002054612c3e90919063ffffffff16565b8360040160008473ffffffffffffffffffffffffffffffffffffffff1673ffffffffffffffffffffffffffffffffffffffff16815260200190815260200160002081905550505050565b6000612c8083836040518060400160405280601e81526020017f536166654d6174683a207375627472616374696f6e206f766572666c6f770000815250612f0e565b905092915050565b600080612c9483612178565b90506000612ca184612fce565b905060025482026001600254018202101592505050919050565b600080612cc783612178565b90506000612cd484612fce565b90508160035460025460640201026064600254830202101592505050919050565b60008060009054906101000a900473ffffffffffffffffffffffffffffffffffffffff1673ffffffffffffffffffffffffffffffffffffffff166336214c7860016040518263ffffffff1660e01b815260040180826005811115612d5557fe5b815260200191505060206040518083038186803b158015612d7557600080fd5b505afa158015612d89573d6000803e3d6000fd5b505050506040513d6020811015612d9f57600080fd5b8101908080519060200190929190505050905090565b600080600090505b8480549050811015612e5f576000858281548110612dd757fe5b9060005260206000200160009054906101000a900473ffffffffffffffffffffffffffffffffffffffff169050612e4d818660008473ffffffffffffffffffffffffffffffffffffffff1673ffffffffffffffffffffffffffffffffffffffff1681526020019081526020016000205486612fe7565b83019250508080600101915050612dbd565b509392505050565b6000808360020160008473ffffffffffffffffffffffffffffffffffffffff1673ffffffffffffffffffffffffffffffffffffffff1681526020019081526020016000205411905092915050565b60008260050160008373ffffffffffffffffffffffffffffffffffffffff1673ffffffffffffffffffffffffffffffffffffffff16815260200190815260200160002060009054906101000a900460ff16905092915050565b6000838311158290612fbb576040517f08c379a00000000000000000000000000000000000000000000000000000000081526004018080602001828103825283818151815260200191508051906020019080838360005b83811015612f80578082015181840152602081019050612f65565b50505050905090810190601f168015612fad5780820380516001836020036101000a031916815260200191505b509250505060405180910390fd5b5060008385039050809150509392505050565b6000612fe082600301836004016131a1565b9050919050565b600080612ff2612cf5565b73ffffffffffffffffffffffffffffffffffffffff1663e7bde5c1866040518263ffffffff1660e01b8152600401808273ffffffffffffffffffffffffffffffffffffffff16815260200191505060206040518083038186803b15801561305857600080fd5b505afa15801561306c573d6000803e3d6000fd5b505050506040513d602081101561308257600080fd5b8101908080519060200190929190505050905060008360008773ffffffffffffffffffffffffffffffffffffffff1673ffffffffffffffffffffffffffffffffffffffff16815260200190815260200160002054828602816130e057fe5b0490506130eb612255565b73ffffffffffffffffffffffffffffffffffffffff1663e47109a987836040518363ffffffff1660e01b8152600401808373ffffffffffffffffffffffffffffffffffffffff16815260200182815260200192505050602060405180830381600087803b15801561315b57600080fd5b505af115801561316f573d6000803e3d6000fd5b505050506040513d602081101561318557600080fd5b8101908080519060200190929190505050925050509392505050565b600080600090505b83805490508110156132f35760008482815481106131c357fe5b9060005260206000200160009054906101000a900473ffffffffffffffffffffffffffffffffffffffff1690506131f8612255565b73ffffffffffffffffffffffffffffffffffffffff1663e47109a9828660008573ffffffffffffffffffffffffffffffffffffffff1673ffffffffffffffffffffffffffffffffffffffff168152602001908152602001600020546040518363ffffffff1660e01b8152600401808373ffffffffffffffffffffffffffffffffffffffff16815260200182815260200192505050602060405180830381600087803b1580156132a657600080fd5b505af11580156132ba573d6000803e3d6000fd5b505050506040513d60208110156132d057600080fd5b8101908080519060200190929190505050830192505080806001019150506131a9565b5092915050565b828054828255906000526020600020908101928215613373579160200282015b828111156133725782518260006101000a81548173ffffffffffffffffffffffffffffffffffffffff021916908373ffffffffffffffffffffffffffffffffffffffff1602179055509160200191906001019061331a565b5b5090506133809190613384565b5090565b5b808211156133bb57600081816101000a81549073ffffffffffffffffffffffffffffffffffffffff021916905550600101613385565b509056fe43616c6c696e6720636f6e7472616374206973206e6f7420616e20617574686f72697a6564206d617267696e20747261646572206167656e744f776e61626c653a206e6577206f776e657220697320746865207a65726f206164647265737343616c6c696e6720636f6e7472616374206973206e6f7420616e20617574686f72697a6564206d617267696e207472616465724163636f756e742062616c616e636520697320746f6f206c6f7720746f20776974686472617743616c6c696e67206164647265737320646f65736e27742068617665206d617267696e2063616c6c657220726f6c6543616e277420626f72726f773a20696e73756666696369656e742062616c616e636543616c6c696e6720636f6e7472616374206e6f7420617574686f72697a656420746f206465706f736974a2646970667358221220d1703322ca0a7970a255ff09bf710064f28463c907524e732ef953871a28e54664736f6c63430007000033",
  "immutableReferences": {},
  "source": "pragma solidity ^0.7.0;\n\nimport \"@openzeppelin/contracts/token/ERC20/IERC20.sol\";\nimport \"@openzeppelin/contracts/access/Ownable.sol\";\nimport \"@openzeppelin/contracts/math/SafeMath.sol\";\n\nimport \"./Fund.sol\";\nimport \"./Lending.sol\";\nimport \"./RoleAware.sol\";\nimport \"./MarginRouter.sol\";\nimport \"./Price.sol\";\n\n// Goal: all external functions only accessible to margintrader role\n// except for view functions of course\n\nstruct MarginAccount {\n    address[] borrowTokens;\n    mapping(address => uint256) borrowed;\n    mapping(address => uint256) borrowedYieldQuotientsFP;\n    address[] holdingTokens;\n    mapping(address => uint256) holdings;\n    mapping(address => bool) holdsToken;\n}\n\ncontract MarginTrading is RoleAware, Ownable {\n    using SafeMath for uint256;\n\n    uint256 public leverage;\n    uint256 public liquidationThresholdPercent;\n    mapping(address => MarginAccount) marginAccounts;\n\n    constructor(address _roles) RoleAware(_roles) Ownable() {\n        liquidationThresholdPercent = 20;\n    }\n\n    function getHoldingAmounts(address trader)\n        external\n        view\n        returns (\n            address[] memory holdingTokens,\n            uint256[] memory holdingAmounts\n        )\n    {\n        MarginAccount storage account = marginAccounts[trader];\n        holdingTokens = account.holdingTokens;\n\n        holdingAmounts = new uint256[](account.holdingTokens.length);\n        for (uint256 idx = 0; holdingTokens.length > idx; idx++) {\n            address tokenAddress = holdingTokens[idx];\n            holdingAmounts[idx] = account.holdings[tokenAddress];\n        }\n\n        (holdingTokens, holdingAmounts);\n    }\n\n    function setLeverage(uint256 _leverage) external onlyOwner {\n        leverage = _leverage;\n    }\n\n    function setLiquidationThresholdPercent(uint256 threshold)\n        external\n        onlyOwner\n    {\n        liquidationThresholdPercent = threshold;\n    }\n\n    function registerDeposit(\n        address trader,\n        address token,\n        uint256 depositAmount\n    ) external returns (uint256 extinguishableDebt) {\n        require(\n            isMarginTrader(msg.sender),\n            \"Calling contract not authorized to deposit\"\n        );\n        MarginAccount storage account = marginAccounts[trader];\n        addHolding(account, token, depositAmount);\n        if (account.borrowed[token] > 0) {\n            extinguishableDebt = min(depositAmount, account.borrowed[token]);\n        }\n    }\n\n    function addHolding(\n        MarginAccount storage account,\n        address token,\n        uint256 depositAmount\n    ) internal {\n        if (!hasHoldingToken(account, token)) {\n            account.holdingTokens.push(token);\n        }\n\n        account.holdings[token] += depositAmount;\n    }\n\n    function registerBorrow(\n        address trader,\n        address borrowToken,\n        uint256 borrowAmount\n    ) external {\n        require(\n            isMarginTrader(msg.sender),\n            \"Calling contract not authorized to deposit\"\n        );\n        MarginAccount storage account = marginAccounts[trader];\n        borrow(account, borrowToken, borrowAmount);\n    }\n\n    function borrow(\n        MarginAccount storage account,\n        address borrowToken,\n        uint256 borrowAmount\n    ) internal {\n        if (!hasBorrowedToken(account, borrowToken)) {\n            account.borrowTokens.push(borrowToken);\n\n            account.borrowedYieldQuotientsFP[borrowToken] = Lending(lending())\n                .viewBorrowingYield(borrowToken);\n        } else {\n            account.borrowed[borrowToken] = Lending(lending())\n                .applyBorrowInterest(\n                account.borrowed[borrowToken],\n                borrowToken,\n                account.borrowedYieldQuotientsFP[borrowToken]\n            );\n        }\n        account.borrowed[borrowToken] += borrowAmount;\n        addHolding(account, borrowToken, borrowAmount);\n\n        require(positiveBalance(account), \"Can't borrow: insufficient balance\");\n    }\n\n    function registerWithdrawal(\n        address trader,\n        address withdrawToken,\n        uint256 withdrawAmount\n    ) external {\n        require(\n            isMarginTrader(msg.sender),\n            \"Calling contract not authorized to deposit\"\n        );\n        MarginAccount storage account = marginAccounts[trader];\n\n        // SafeMath throws on underflow\n        account.holdings[withdrawToken] = account.holdings[withdrawToken].sub(\n            withdrawAmount\n        );\n        require(\n            positiveBalance(account),\n            \"Account balance is too low to withdraw\"\n        );\n    }\n\n    function positiveBalance(MarginAccount storage account)\n        internal\n        returns (bool)\n    {\n        uint256 loan = loanInPeg(account);\n        uint256 holdings = holdingsInPeg(account);\n        // The following condition should hold:\n        // holdings / loan >= (leverage + 1) / leverage\n        // =>\n        return holdings * (leverage + 1) >= loan * leverage;\n    }\n\n    function registerPayOff(\n        address trader,\n        address debtToken,\n        uint256 extinguishAmount\n    ) external {\n        require(\n            isMarginTrader(msg.sender),\n            \"Calling contract not authorized to deposit\"\n        );\n        extinguishDebt(marginAccounts[trader], debtToken, extinguishAmount);\n    }\n\n    function extinguishDebt(\n        MarginAccount storage account,\n        address debtToken,\n        uint256 extinguishAmount\n    ) internal {\n        // SafeMath will throw if insufficient funds\n        account.borrowed[debtToken] = Lending(lending()).applyBorrowInterest(\n            account.borrowed[debtToken],\n            debtToken,\n            account.borrowedYieldQuotientsFP[debtToken]\n        );\n        account.borrowed[debtToken] = account.borrowed[debtToken].sub(\n            extinguishAmount\n        );\n        account.holdings[debtToken] = account.holdings[debtToken].sub(\n            extinguishAmount\n        );\n    }\n\n    function hasHoldingToken(MarginAccount storage account, address token)\n        internal\n        view\n        returns (bool)\n    {\n        return account.holdsToken[token];\n    }\n\n    function hasBorrowedToken(MarginAccount storage account, address token)\n        internal\n        view\n        returns (bool)\n    {\n        return account.borrowedYieldQuotientsFP[token] > 0;\n    }\n\n    function loanInPeg(MarginAccount storage account)\n        internal\n        returns (uint256)\n    {\n        return\n            sumTokensInPegWithYield(\n                account.borrowTokens,\n                account.borrowed,\n                account.borrowedYieldQuotientsFP\n            );\n    }\n\n    function holdingsInPeg(MarginAccount storage account)\n        internal\n        returns (uint256)\n    {\n        return sumTokensInPeg(account.holdingTokens, account.holdings);\n    }\n\n    function marginCallable(MarginAccount storage account)\n        internal\n        returns (bool)\n    {\n        uint256 loan = loanInPeg(account);\n        uint256 holdings = holdingsInPeg(account);\n        // The following should hold:\n        // holdings / loan >= (leverage + liquidationThresholdPercent / 100) / leverage\n        // =>\n        return\n            holdings * leverage * 100 >=\n            (100 * leverage + liquidationThresholdPercent) * loan;\n    }\n\n    function canBorrow(\n        MarginAccount storage account,\n        address token,\n        uint256 amount\n    ) internal view returns (bool) {\n        return account.holdings[token] >= amount;\n    }\n\n    function getTradeBorrowAmount(\n        address trader,\n        address token,\n        uint256 amount\n    ) external returns (uint256 borrowAmount) {\n        require(\n            isMarginTrader(msg.sender),\n            \"Calling contract is not an authorized margin trader\"\n        );\n        MarginAccount storage account = marginAccounts[trader];\n        borrowAmount = amount - account.holdings[token];\n        require(\n            canBorrow(account, token, borrowAmount),\n            \"Can't borrow full amount\"\n        );\n    }\n\n    function registerTradeAndBorrow(\n        address trader,\n        address tokenFrom,\n        address tokenTo,\n        uint256 inAmount,\n        uint256 outAmount\n    ) external returns (uint256 borrowAmount) {\n        require(\n            isMarginTrader(msg.sender),\n            \"Calling contract is not an authorized margin trader agent\"\n        );\n\n        MarginAccount storage account = marginAccounts[trader];\n        uint256 sellAmount = inAmount;\n        if (inAmount > account.holdings[tokenFrom]) {\n            sellAmount = account.holdings[tokenFrom];\n            borrowAmount = inAmount - sellAmount;\n            borrow(account, tokenFrom, borrowAmount);\n        }\n        adjustAmounts(account, tokenFrom, tokenTo, sellAmount, outAmount);\n    }\n\n    function sumTokensInPeg(\n        address[] storage tokens,\n        mapping(address => uint256) storage amounts\n    ) internal returns (uint256 totalPeg) {\n        for (uint256 tokenId = 0; tokenId < tokens.length; tokenId++) {\n            address token = tokens[tokenId];\n            totalPeg += Price(price()).getUpdatedPriceInPeg(\n                token,\n                amounts[token]\n            );\n        }\n    }\n\n    function sumTokensInPegWithYield(\n        address[] storage tokens,\n        mapping(address => uint256) storage amounts,\n        mapping(address => uint256) storage yieldQuotientsFP\n    ) internal returns (uint256 totalPeg) {\n        for (uint256 tokenId = 0; tokenId < tokens.length; tokenId++) {\n            address token = tokens[tokenId];\n            totalPeg += yieldTokenInPeg(\n                token,\n                amounts[token],\n                yieldQuotientsFP\n            );\n        }\n    }\n\n    function yieldTokenInPeg(\n        address token,\n        uint256 amount,\n        mapping(address => uint256) storage yieldQuotientsFP\n    ) internal returns (uint256) {\n        uint256 yield = Lending(lending()).viewBorrowingYield(token);\n        // 1 * FP / FP = 1\n        uint256 amountInToken = (amount * yield) / yieldQuotientsFP[token];\n        return Price(price()).getUpdatedPriceInPeg(token, amountInToken);\n    }\n\n    function adjustAmounts(\n        MarginAccount storage account,\n        address fromToken,\n        address toToken,\n        uint256 soldAmount,\n        uint256 boughtAmount\n    ) internal {\n        account.holdings[fromToken] = account.holdings[fromToken].sub(\n            soldAmount\n        );\n        addHolding(account, toToken, boughtAmount);\n    }\n\n    function min(uint256 a, uint256 b) internal returns (uint256) {\n        if (a > b) {\n            return b;\n        } else {\n            return a;\n        }\n    }\n\n    struct Liquidation {\n        uint256 buy;\n        uint256 sell;\n        uint256 blockNum;\n    }\n    mapping(address => Liquidation) liquidationAmounts;\n    address[] sellTokens;\n    address[] buyTokens;\n    address[] tradersToLiquidate;\n\n    // TODO bake records after margin calling\n    struct MCRecord {\n        uint256 blockNum;\n        uint256 amount;\n        uint256 stakeAttacker;\n    }\n    mapping(address => MCRecord) stakeAttackRecords;\n\n    uint256 mcAttackWindow = 80;\n\n    function calcLiquidationAmounts(\n        address[] memory liquidationCandidates,\n        bool isAuthorized\n    ) internal returns (uint256 attackReturns) {\n        sellTokens = new address[](0);\n        buyTokens = new address[](0);\n        tradersToLiquidate = new address[](0);\n        // TODO test\n        for (\n            uint256 traderIndex = 0;\n            liquidationCandidates.length > traderIndex;\n            traderIndex++\n        ) {\n            address traderAddress = liquidationCandidates[traderIndex];\n            MarginAccount storage account = marginAccounts[traderAddress];\n            if (marginCallable(account)) {\n                // TODO optimize maybe put in the whole account?\n                // TODO unique?\n                tradersToLiquidate.push(traderAddress);\n                for (\n                    uint256 sellIdx = 0;\n                    account.holdingTokens.length > sellIdx;\n                    sellIdx++\n                ) {\n                    address token = account.holdingTokens[sellIdx];\n                    Liquidation storage liquidation = liquidationAmounts[token];\n                    if (liquidation.blockNum != block.number) {\n                        // TODO delete liquidationAmounts at end of call\n                        liquidation.sell = account.holdings[token];\n                        liquidation.buy = 0;\n                        liquidation.blockNum = block.number;\n                        sellTokens.push(token);\n                    } else {\n                        liquidation.sell += account.holdings[token];\n                    }\n                }\n                for (\n                    uint256 buyIdx = 0;\n                    account.borrowTokens.length > buyIdx;\n                    buyIdx++\n                ) {\n                    address token = account.borrowTokens[buyIdx];\n                    Liquidation storage liquidation = liquidationAmounts[token];\n\n                    uint256 yield =\n                        Lending(lending()).viewBorrowingYield(token);\n                    uint256 loanAmount =\n                        (account.borrowed[token] * yield) /\n                            account.borrowedYieldQuotientsFP[token];\n\n                    if (liquidation.blockNum != block.number) {\n                        liquidation.sell = 0;\n                        liquidation.buy = loanAmount;\n                        liquidation.blockNum = block.number;\n                        buyTokens.push(token);\n                    } else {\n                        liquidation.buy += loanAmount;\n                    }\n                }\n            }\n            MCRecord storage mcRecord = stakeAttackRecords[traderAddress];\n            if (mcRecord.amount > 0 && isAuthorized) {\n                // validate attack records, if any\n                uint256 blockDif =\n                    min(1 + block.number - mcRecord.blockNum, mcAttackWindow);\n                uint256 attackerCut =\n                    (blockDif * mcRecord.amount) / mcAttackWindow;\n                // TODO send attackerCut to mcRecord.stakeAttacker\n                attackReturns += mcRecord.amount - attackerCut;\n            }\n        }\n    }\n\n    function calcLiquidationTargetCosts()\n        internal\n        view\n        returns (uint256[] memory pegAmounts)\n    {\n        pegAmounts = new uint256[](buyTokens.length);\n        // TODO calc how much it would cost for every buy\n    }\n\n    function liquidateToPeg() internal returns (uint256 pegAmount) {\n        for (\n            uint256 tokenIndex = 0;\n            sellTokens.length > tokenIndex;\n            tokenIndex++\n        ) {\n            uint256 sellAmount =\n                liquidationAmounts[sellTokens[tokenIndex]].sell;\n            // sell TODO\n            pegAmount += 0;\n        }\n    }\n\n    function deleteAccount(MarginAccount storage account) internal {\n        // TODO\n    }\n\n    function holdings2Peg(MarginAccount storage account)\n        internal\n        returns (uint256 pegAmount)\n    {\n        // TODO work with price module\n    }\n\n    function callMargin(\n        address[] memory liquidationCandidates,\n        address responsibleStaker,\n        address currentCaller,\n        bool isAuthorized\n    ) external returns (uint256 marginCallerCut) {\n        require(\n            isMarginCaller(msg.sender),\n            \"Calling address doesn't have margin caller role\"\n        );\n\n        //(address[] memory sellTokens,\n        //address[] memory buyTokens,\n        // address[] memory tradersToLiquidate) =\n        // TODO distribute attackReturns\n        uint256 attackReturns =\n            calcLiquidationAmounts(liquidationCandidates, isAuthorized);\n\n        uint256 sale2pegAmount = liquidateToPeg();\n        uint256[] memory peg2targetCosts = calcLiquidationTargetCosts();\n\n        for (\n            uint256 traderIdx = 0;\n            tradersToLiquidate.length > traderIdx;\n            traderIdx++\n        ) {\n            address traderAddress = tradersToLiquidate[traderIdx];\n            MarginAccount storage account = marginAccounts[traderAddress];\n\n            uint256 holdingsValue = holdings2Peg(account);\n            uint256 borrowValue = loanInPeg(account);\n            // half of the liquidation threshold\n            uint256 mcCut4account =\n                (borrowValue * liquidationThresholdPercent) /\n                    100 /\n                    leverage /\n                    2;\n            marginCallerCut += mcCut4account;\n\n            if (holdingsValue >= mcCut4account + borrowValue) {\n                // send remaining funds back to trader\n                Fund(fund()).withdraw(\n                    Price(price()).peg(),\n                    traderAddress,\n                    holdingsValue - borrowValue - mcCut4account\n                );\n            } else {\n                uint256 shortfall =\n                    (borrowValue + mcCut4account) - holdingsValue;\n            }\n\n            deleteAccount(account);\n        }\n    }\n}\n",
  "sourcePath": "/home/tixelbook/projects/marginswap-core/contracts/MarginTrading.sol",
  "compiler": {
    "name": "solc",
    "version": "0.7.0+commit.9e61f92b.Emscripten.clang"
  },
  "schemaVersion": "3.3.3",
  "updatedAt": "2021-02-18T02:04:22.010Z",
  "devdoc": {
    "kind": "dev",
    "methods": {
      "owner()": {
        "details": "Returns the address of the current owner."
      },
      "renounceOwnership()": {
        "details": "Leaves the contract without owner. It will not be possible to call `onlyOwner` functions anymore. Can only be called by the current owner. NOTE: Renouncing ownership will leave the contract without an owner, thereby removing any functionality that is only available to the owner."
      },
      "transferOwnership(address)": {
        "details": "Transfers ownership of the contract to a new account (`newOwner`). Can only be called by the current owner."
      }
    },
    "version": 1
  },
  "userdoc": {
    "kind": "user",
    "methods": {},
    "version": 1
  }
}