{
  "contractName": "MarginTrading",
  "abi": [
    {
      "inputs": [
        {
          "internalType": "address",
          "name": "_WETH",
          "type": "address"
        },
        {
          "internalType": "address",
          "name": "_roles",
          "type": "address"
        }
      ],
      "stateMutability": "nonpayable",
      "type": "constructor"
    },
    {
      "anonymous": false,
      "inputs": [
        {
          "indexed": true,
          "internalType": "address",
          "name": "previousOwner",
          "type": "address"
        },
        {
          "indexed": true,
          "internalType": "address",
          "name": "newOwner",
          "type": "address"
        }
      ],
      "name": "OwnershipTransferred",
      "type": "event"
    },
    {
      "inputs": [],
      "name": "leverage",
      "outputs": [
        {
          "internalType": "uint256",
          "name": "",
          "type": "uint256"
        }
      ],
      "stateMutability": "view",
      "type": "function"
    },
    {
      "inputs": [],
      "name": "liquidationThresholdPercent",
      "outputs": [
        {
          "internalType": "uint256",
          "name": "",
          "type": "uint256"
        }
      ],
      "stateMutability": "view",
      "type": "function"
    },
    {
      "inputs": [],
      "name": "owner",
      "outputs": [
        {
          "internalType": "address",
          "name": "",
          "type": "address"
        }
      ],
      "stateMutability": "view",
      "type": "function"
    },
    {
      "inputs": [],
      "name": "renounceOwnership",
      "outputs": [],
      "stateMutability": "nonpayable",
      "type": "function"
    },
    {
      "inputs": [],
      "name": "roles",
      "outputs": [
        {
          "internalType": "contract Roles",
          "name": "",
          "type": "address"
        }
      ],
      "stateMutability": "view",
      "type": "function"
    },
    {
      "inputs": [
        {
          "internalType": "address",
          "name": "newOwner",
          "type": "address"
        }
      ],
      "name": "transferOwnership",
      "outputs": [],
      "stateMutability": "nonpayable",
      "type": "function"
    },
    {
      "inputs": [
        {
          "internalType": "address",
          "name": "trader",
          "type": "address"
        }
      ],
      "name": "getHoldingAmounts",
      "outputs": [
        {
          "internalType": "address[]",
          "name": "holdingTokens",
          "type": "address[]"
        },
        {
          "internalType": "uint256[]",
          "name": "holdingAmounts",
          "type": "uint256[]"
        }
      ],
      "stateMutability": "view",
      "type": "function"
    },
    {
      "inputs": [
        {
          "internalType": "uint256",
          "name": "_leverage",
          "type": "uint256"
        }
      ],
      "name": "setLeverage",
      "outputs": [],
      "stateMutability": "nonpayable",
      "type": "function"
    },
    {
      "inputs": [
        {
          "internalType": "uint256",
          "name": "threshold",
          "type": "uint256"
        }
      ],
      "name": "setLiquidationThresholdPercent",
      "outputs": [],
      "stateMutability": "nonpayable",
      "type": "function"
    },
    {
      "inputs": [
        {
          "internalType": "address",
          "name": "trader",
          "type": "address"
        },
        {
          "internalType": "address",
          "name": "token",
          "type": "address"
        },
        {
          "internalType": "uint256",
          "name": "depositAmount",
          "type": "uint256"
        }
      ],
      "name": "registerDeposit",
      "outputs": [
        {
          "internalType": "uint256",
          "name": "extinguishableDebt",
          "type": "uint256"
        }
      ],
      "stateMutability": "nonpayable",
      "type": "function"
    },
    {
      "inputs": [
        {
          "internalType": "address",
          "name": "trader",
          "type": "address"
        },
        {
          "internalType": "address",
          "name": "borrowToken",
          "type": "address"
        },
        {
          "internalType": "uint256",
          "name": "borrowAmount",
          "type": "uint256"
        }
      ],
      "name": "registerBorrow",
      "outputs": [],
      "stateMutability": "nonpayable",
      "type": "function"
    },
    {
      "inputs": [
        {
          "internalType": "address",
          "name": "trader",
          "type": "address"
        },
        {
          "internalType": "address",
          "name": "withdrawToken",
          "type": "address"
        },
        {
          "internalType": "uint256",
          "name": "withdrawAmount",
          "type": "uint256"
        }
      ],
      "name": "registerWithdrawal",
      "outputs": [],
      "stateMutability": "nonpayable",
      "type": "function"
    },
    {
      "inputs": [
        {
          "internalType": "address",
          "name": "trader",
          "type": "address"
        },
        {
          "internalType": "address",
          "name": "debtToken",
          "type": "address"
        },
        {
          "internalType": "uint256",
          "name": "extinguishAmount",
          "type": "uint256"
        }
      ],
      "name": "registerPayOff",
      "outputs": [],
      "stateMutability": "nonpayable",
      "type": "function"
    },
    {
      "inputs": [
        {
          "internalType": "address",
          "name": "trader",
          "type": "address"
        },
        {
          "internalType": "address",
          "name": "token",
          "type": "address"
        },
        {
          "internalType": "uint256",
          "name": "amount",
          "type": "uint256"
        }
      ],
      "name": "getTradeBorrowAmount",
      "outputs": [
        {
          "internalType": "uint256",
          "name": "borrowAmount",
          "type": "uint256"
        }
      ],
      "stateMutability": "nonpayable",
      "type": "function"
    },
    {
      "inputs": [
        {
          "internalType": "address",
          "name": "trader",
          "type": "address"
        },
        {
          "internalType": "address",
          "name": "tokenFrom",
          "type": "address"
        },
        {
          "internalType": "address",
          "name": "tokenTo",
          "type": "address"
        },
        {
          "internalType": "uint256",
          "name": "inAmount",
          "type": "uint256"
        },
        {
          "internalType": "uint256",
          "name": "outAmount",
          "type": "uint256"
        }
      ],
      "name": "registerTradeAndBorrow",
      "outputs": [
        {
          "internalType": "uint256",
          "name": "borrowAmount",
          "type": "uint256"
        }
      ],
      "stateMutability": "nonpayable",
      "type": "function"
    }
  ],
  "bytecode": "0x608060405234801561001057600080fd5b5060405162002983380380620029838339818101604052604081101561003557600080fd5b81019080805190602001909291908051906020019092919050505080806000806101000a81548173ffffffffffffffffffffffffffffffffffffffff021916908373ffffffffffffffffffffffffffffffffffffffff1602179055505060006100a261019160201b60201c565b905080600160006101000a81548173ffffffffffffffffffffffffffffffffffffffff021916908373ffffffffffffffffffffffffffffffffffffffff1602179055508073ffffffffffffffffffffffffffffffffffffffff16600073ffffffffffffffffffffffffffffffffffffffff167f8be0079c531659141344cd1fd0a4f28419497f9722a3daafe3b4186f6b6457e060405160405180910390a35081600560006101000a81548173ffffffffffffffffffffffffffffffffffffffff021916908373ffffffffffffffffffffffffffffffffffffffff16021790555060146003819055505050610199565b600033905090565b6127da80620001a96000396000f3fe608060405234801561001057600080fd5b50600436106100f55760003560e01c806352a664d9116100975780638da5cb5b116100665780638da5cb5b146104cf578063b25777ad14610503578063d0eb665314610571578063f2fde38b146105df576100f5565b806352a664d9146103935780636612ce3514610415578063715018a61461049757806379575b23146104a1576100f5565b80633500aa0b116100d35780633500aa0b14610164578063392f5f6414610210578063409fdb7214610244578063498d55eb14610325576100f5565b806316317e7e146100fa5780632c86d98e14610128578063320d2fa014610146575b600080fd5b6101266004803603602081101561011057600080fd5b8101908080359060200190929190505050610623565b005b6101306106f7565b6040518082815260200191505060405180910390f35b61014e6106fd565b6040518082815260200191505060405180910390f35b6101fa600480360360a081101561017a57600080fd5b81019080803573ffffffffffffffffffffffffffffffffffffffff169060200190929190803573ffffffffffffffffffffffffffffffffffffffff169060200190929190803573ffffffffffffffffffffffffffffffffffffffff1690602001909291908035906020019092919080359060200190929190505050610703565b6040518082815260200191505060405180910390f35b610218610861565b604051808273ffffffffffffffffffffffffffffffffffffffff16815260200191505060405180910390f35b6102866004803603602081101561025a57600080fd5b81019080803573ffffffffffffffffffffffffffffffffffffffff169060200190929190505050610885565b604051808060200180602001838103835285818151815260200191508051906020019060200280838360005b838110156102cd5780820151818401526020810190506102b2565b50505050905001838103825284818151815260200191508051906020019060200280838360005b8381101561030f5780820151818401526020810190506102f4565b5050505090500194505050505060405180910390f35b6103916004803603606081101561033b57600080fd5b81019080803573ffffffffffffffffffffffffffffffffffffffff169060200190929190803573ffffffffffffffffffffffffffffffffffffffff16906020019092919080359060200190929190505050610a39565b005b6103ff600480360360608110156103a957600080fd5b81019080803573ffffffffffffffffffffffffffffffffffffffff169060200190929190803573ffffffffffffffffffffffffffffffffffffffff16906020019092919080359060200190929190505050610aeb565b6040518082815260200191505060405180910390f35b6104816004803603606081101561042b57600080fd5b81019080803573ffffffffffffffffffffffffffffffffffffffff169060200190929190803573ffffffffffffffffffffffffffffffffffffffff16906020019092919080359060200190929190505050610c39565b6040518082815260200191505060405180910390f35b61049f610da7565b005b6104cd600480360360208110156104b757600080fd5b8101908080359060200190929190505050610f32565b005b6104d7611006565b604051808273ffffffffffffffffffffffffffffffffffffffff16815260200191505060405180910390f35b61056f6004803603606081101561051957600080fd5b81019080803573ffffffffffffffffffffffffffffffffffffffff169060200190929190803573ffffffffffffffffffffffffffffffffffffffff16906020019092919080359060200190929190505050611030565b005b6105dd6004803603606081101561058757600080fd5b81019080803573ffffffffffffffffffffffffffffffffffffffff169060200190929190803573ffffffffffffffffffffffffffffffffffffffff169060200190929190803590602001909291905050506110dc565b005b610621600480360360208110156105f557600080fd5b81019080803573ffffffffffffffffffffffffffffffffffffffff16906020019092919050505061127a565b005b61062b61148a565b73ffffffffffffffffffffffffffffffffffffffff16600160009054906101000a900473ffffffffffffffffffffffffffffffffffffffff1673ffffffffffffffffffffffffffffffffffffffff16146106ed576040517f08c379a00000000000000000000000000000000000000000000000000000000081526004018080602001828103825260208152602001807f4f776e61626c653a2063616c6c6572206973206e6f7420746865206f776e657281525060200191505060405180910390fd5b8060038190555050565b60025481565b60035481565b600061070e33611492565b610763576040517f08c379a00000000000000000000000000000000000000000000000000000000081526004018080602001828103825260398152602001806126a16039913960400191505060405180910390fd5b6000600460008873ffffffffffffffffffffffffffffffffffffffff1673ffffffffffffffffffffffffffffffffffffffff168152602001908152602001600020905060008490508160040160008873ffffffffffffffffffffffffffffffffffffffff1673ffffffffffffffffffffffffffffffffffffffff16815260200190815260200160002054851115610849578160040160008873ffffffffffffffffffffffffffffffffffffffff1673ffffffffffffffffffffffffffffffffffffffff168152602001908152602001600020549050808503925061084882888561156a565b5b6108568288888488611910565b505095945050505050565b60008054906101000a900473ffffffffffffffffffffffffffffffffffffffff1681565b6060806000600460008573ffffffffffffffffffffffffffffffffffffffff1673ffffffffffffffffffffffffffffffffffffffff16815260200190815260200160002090508060030180548060200260200160405190810160405280929190818152602001828054801561094f57602002820191906000526020600020905b8160009054906101000a900473ffffffffffffffffffffffffffffffffffffffff1673ffffffffffffffffffffffffffffffffffffffff1681526020019060010190808311610905575b50505050509250806003018054905067ffffffffffffffff8111801561097457600080fd5b506040519080825280602002602001820160405280156109a35781602001602082028036833780820191505090505b50915060005b8084511115610a325760008482815181106109c057fe5b602002602001015190508260040160008273ffffffffffffffffffffffffffffffffffffffff1673ffffffffffffffffffffffffffffffffffffffff16815260200190815260200160002054848381518110610a1857fe5b6020026020010181815250505080806001019150506109a9565b5050915091565b610a4233611492565b610a97576040517f08c379a000000000000000000000000000000000000000000000000000000000815260040180806020018281038252602a81526020018061277b602a913960400191505060405180910390fd5b6000600460008573ffffffffffffffffffffffffffffffffffffffff1673ffffffffffffffffffffffffffffffffffffffff1681526020019081526020016000209050610ae581848461156a565b50505050565b6000610af633611492565b610b4b576040517f08c379a000000000000000000000000000000000000000000000000000000000815260040180806020018281038252602a81526020018061277b602a913960400191505060405180910390fd5b6000600460008673ffffffffffffffffffffffffffffffffffffffff1673ffffffffffffffffffffffffffffffffffffffff1681526020019081526020016000209050610b998185856119bb565b60008160010160008673ffffffffffffffffffffffffffffffffffffffff1673ffffffffffffffffffffffffffffffffffffffff168152602001908152602001600020541115610c3157610c2e838260010160008773ffffffffffffffffffffffffffffffffffffffff1673ffffffffffffffffffffffffffffffffffffffff16815260200190815260200160002054611a83565b91505b509392505050565b6000610c4433611492565b610c99576040517f08c379a00000000000000000000000000000000000000000000000000000000081526004018080602001828103825260338152602001806127006033913960400191505060405180910390fd5b6000600460008673ffffffffffffffffffffffffffffffffffffffff1673ffffffffffffffffffffffffffffffffffffffff16815260200190815260200160002090508060040160008573ffffffffffffffffffffffffffffffffffffffff1673ffffffffffffffffffffffffffffffffffffffff1681526020019081526020016000205483039150610d2d818584611a9f565b610d9f576040517f08c379a00000000000000000000000000000000000000000000000000000000081526004018080602001828103825260188152602001807f43616e277420626f72726f772066756c6c20616d6f756e74000000000000000081525060200191505060405180910390fd5b509392505050565b610daf61148a565b73ffffffffffffffffffffffffffffffffffffffff16600160009054906101000a900473ffffffffffffffffffffffffffffffffffffffff1673ffffffffffffffffffffffffffffffffffffffff1614610e71576040517f08c379a00000000000000000000000000000000000000000000000000000000081526004018080602001828103825260208152602001807f4f776e61626c653a2063616c6c6572206973206e6f7420746865206f776e657281525060200191505060405180910390fd5b600073ffffffffffffffffffffffffffffffffffffffff16600160009054906101000a900473ffffffffffffffffffffffffffffffffffffffff1673ffffffffffffffffffffffffffffffffffffffff167f8be0079c531659141344cd1fd0a4f28419497f9722a3daafe3b4186f6b6457e060405160405180910390a36000600160006101000a81548173ffffffffffffffffffffffffffffffffffffffff021916908373ffffffffffffffffffffffffffffffffffffffff160217905550565b610f3a61148a565b73ffffffffffffffffffffffffffffffffffffffff16600160009054906101000a900473ffffffffffffffffffffffffffffffffffffffff1673ffffffffffffffffffffffffffffffffffffffff1614610ffc576040517f08c379a00000000000000000000000000000000000000000000000000000000081526004018080602001828103825260208152602001807f4f776e61626c653a2063616c6c6572206973206e6f7420746865206f776e657281525060200191505060405180910390fd5b8060028190555050565b6000600160009054906101000a900473ffffffffffffffffffffffffffffffffffffffff16905090565b61103933611492565b61108e576040517f08c379a000000000000000000000000000000000000000000000000000000000815260040180806020018281038252602a81526020018061277b602a913960400191505060405180910390fd5b6110d7600460008573ffffffffffffffffffffffffffffffffffffffff1673ffffffffffffffffffffffffffffffffffffffff1681526020019081526020016000208383611aef565b505050565b6110e533611492565b61113a576040517f08c379a000000000000000000000000000000000000000000000000000000000815260040180806020018281038252602a81526020018061277b602a913960400191505060405180910390fd5b6000600460008573ffffffffffffffffffffffffffffffffffffffff1673ffffffffffffffffffffffffffffffffffffffff16815260200190815260200160002090506111d1828260040160008673ffffffffffffffffffffffffffffffffffffffff1673ffffffffffffffffffffffffffffffffffffffff16815260200190815260200160002054611da890919063ffffffff16565b8160040160008573ffffffffffffffffffffffffffffffffffffffff1673ffffffffffffffffffffffffffffffffffffffff1681526020019081526020016000208190555061121f81611df2565b611274576040517f08c379a00000000000000000000000000000000000000000000000000000000081526004018080602001828103825260268152602001806127336026913960400191505060405180910390fd5b50505050565b61128261148a565b73ffffffffffffffffffffffffffffffffffffffff16600160009054906101000a900473ffffffffffffffffffffffffffffffffffffffff1673ffffffffffffffffffffffffffffffffffffffff1614611344576040517f08c379a00000000000000000000000000000000000000000000000000000000081526004018080602001828103825260208152602001807f4f776e61626c653a2063616c6c6572206973206e6f7420746865206f776e657281525060200191505060405180910390fd5b600073ffffffffffffffffffffffffffffffffffffffff168173ffffffffffffffffffffffffffffffffffffffff1614156113ca576040517f08c379a00000000000000000000000000000000000000000000000000000000081526004018080602001828103825260268152602001806126da6026913960400191505060405180910390fd5b8073ffffffffffffffffffffffffffffffffffffffff16600160009054906101000a900473ffffffffffffffffffffffffffffffffffffffff1673ffffffffffffffffffffffffffffffffffffffff167f8be0079c531659141344cd1fd0a4f28419497f9722a3daafe3b4186f6b6457e060405160405180910390a380600160006101000a81548173ffffffffffffffffffffffffffffffffffffffff021916908373ffffffffffffffffffffffffffffffffffffffff16021790555050565b600033905090565b60008060009054906101000a900473ffffffffffffffffffffffffffffffffffffffff1673ffffffffffffffffffffffffffffffffffffffff1663a716b97f8360696040518363ffffffff1660e01b8152600401808373ffffffffffffffffffffffffffffffffffffffff1681526020018260ff1681526020019250505060206040518083038186803b15801561152857600080fd5b505afa15801561153c573d6000803e3d6000fd5b505050506040513d602081101561155257600080fd5b81019080805190602001909291905050509050919050565b6115748383611e25565b6116d05782600001829080600181540180825580915050600190039060005260206000200160009091909190916101000a81548173ffffffffffffffffffffffffffffffffffffffff021916908373ffffffffffffffffffffffffffffffffffffffff1602179055506115e5611e73565b73ffffffffffffffffffffffffffffffffffffffff1663e7bde5c1836040518263ffffffff1660e01b8152600401808273ffffffffffffffffffffffffffffffffffffffff16815260200191505060206040518083038186803b15801561164b57600080fd5b505afa15801561165f573d6000803e3d6000fd5b505050506040513d602081101561167557600080fd5b81019080805190602001909291905050508360020160008473ffffffffffffffffffffffffffffffffffffffff1673ffffffffffffffffffffffffffffffffffffffff16815260200190815260200160002081905550611853565b6116d8611e73565b73ffffffffffffffffffffffffffffffffffffffff1663e695fa688460010160008573ffffffffffffffffffffffffffffffffffffffff1673ffffffffffffffffffffffffffffffffffffffff16815260200190815260200160002054848660020160008773ffffffffffffffffffffffffffffffffffffffff1673ffffffffffffffffffffffffffffffffffffffff168152602001908152602001600020546040518463ffffffff1660e01b8152600401808481526020018373ffffffffffffffffffffffffffffffffffffffff1681526020018281526020019350505050602060405180830381600087803b1580156117d257600080fd5b505af11580156117e6573d6000803e3d6000fd5b505050506040513d60208110156117fc57600080fd5b81019080805190602001909291905050508360010160008473ffffffffffffffffffffffffffffffffffffffff1673ffffffffffffffffffffffffffffffffffffffff168152602001908152602001600020819055505b808360010160008473ffffffffffffffffffffffffffffffffffffffff1673ffffffffffffffffffffffffffffffffffffffff168152602001908152602001600020600082825401925050819055506118ad8383836119bb565b6118b683611df2565b61190b576040517f08c379a00000000000000000000000000000000000000000000000000000000081526004018080602001828103825260228152602001806127596022913960400191505060405180910390fd5b505050565b611964828660040160008773ffffffffffffffffffffffffffffffffffffffff1673ffffffffffffffffffffffffffffffffffffffff16815260200190815260200160002054611da890919063ffffffff16565b8560040160008673ffffffffffffffffffffffffffffffffffffffff1673ffffffffffffffffffffffffffffffffffffffff168152602001908152602001600020819055506119b48584836119bb565b5050505050565b6119c58383611f2b565b611a2f5782600301829080600181540180825580915050600190039060005260206000200160009091909190916101000a81548173ffffffffffffffffffffffffffffffffffffffff021916908373ffffffffffffffffffffffffffffffffffffffff1602179055505b808360040160008473ffffffffffffffffffffffffffffffffffffffff1673ffffffffffffffffffffffffffffffffffffffff16815260200190815260200160002060008282540192505081905550505050565b600081831115611a9557819050611a99565b8290505b92915050565b6000818460040160008573ffffffffffffffffffffffffffffffffffffffff1673ffffffffffffffffffffffffffffffffffffffff16815260200190815260200160002054101590509392505050565b611af7611e73565b73ffffffffffffffffffffffffffffffffffffffff1663e695fa688460010160008573ffffffffffffffffffffffffffffffffffffffff1673ffffffffffffffffffffffffffffffffffffffff16815260200190815260200160002054848660020160008773ffffffffffffffffffffffffffffffffffffffff1673ffffffffffffffffffffffffffffffffffffffff168152602001908152602001600020546040518463ffffffff1660e01b8152600401808481526020018373ffffffffffffffffffffffffffffffffffffffff1681526020018281526020019350505050602060405180830381600087803b158015611bf157600080fd5b505af1158015611c05573d6000803e3d6000fd5b505050506040513d6020811015611c1b57600080fd5b81019080805190602001909291905050508360010160008473ffffffffffffffffffffffffffffffffffffffff1673ffffffffffffffffffffffffffffffffffffffff16815260200190815260200160002081905550611cc5818460010160008573ffffffffffffffffffffffffffffffffffffffff1673ffffffffffffffffffffffffffffffffffffffff16815260200190815260200160002054611da890919063ffffffff16565b8360010160008473ffffffffffffffffffffffffffffffffffffffff1673ffffffffffffffffffffffffffffffffffffffff16815260200190815260200160002081905550611d5e818460040160008573ffffffffffffffffffffffffffffffffffffffff1673ffffffffffffffffffffffffffffffffffffffff16815260200190815260200160002054611da890919063ffffffff16565b8360040160008473ffffffffffffffffffffffffffffffffffffffff1673ffffffffffffffffffffffffffffffffffffffff16815260200190815260200160002081905550505050565b6000611dea83836040518060400160405280601e81526020017f536166654d6174683a207375627472616374696f6e206f766572666c6f770000815250611f84565b905092915050565b600080611dfe83612044565b90506000611e0b84612061565b905060025482026001600254018202101592505050919050565b6000808360020160008473ffffffffffffffffffffffffffffffffffffffff1673ffffffffffffffffffffffffffffffffffffffff1681526020019081526020016000205411905092915050565b60008060009054906101000a900473ffffffffffffffffffffffffffffffffffffffff1673ffffffffffffffffffffffffffffffffffffffff166336214c7860026040518263ffffffff1660e01b8152600401808260ff16815260200191505060206040518083038186803b158015611eeb57600080fd5b505afa158015611eff573d6000803e3d6000fd5b505050506040513d6020811015611f1557600080fd5b8101908080519060200190929190505050905090565b60008260050160008373ffffffffffffffffffffffffffffffffffffffff1673ffffffffffffffffffffffffffffffffffffffff16815260200190815260200160002060009054906101000a900460ff16905092915050565b6000838311158290612031576040517f08c379a00000000000000000000000000000000000000000000000000000000081526004018080602001828103825283818151815260200191508051906020019080838360005b83811015611ff6578082015181840152602081019050611fdb565b50505050905090810190601f1680156120235780820380516001836020036101000a031916815260200191505b509250505060405180910390fd5b5060008385039050809150509392505050565b600061205a82600001836001018460020161207a565b9050919050565b60006120738260030183600401612228565b9050919050565b600080600090505b848054905081101561222057600085828154811061209c57fe5b9060005260206000200160009054906101000a900473ffffffffffffffffffffffffffffffffffffffff16905060006120d3611e73565b73ffffffffffffffffffffffffffffffffffffffff1663e7bde5c1836040518263ffffffff1660e01b8152600401808273ffffffffffffffffffffffffffffffffffffffff16815260200191505060206040518083038186803b15801561213957600080fd5b505afa15801561214d573d6000803e3d6000fd5b505050506040513d602081101561216357600080fd5b8101908080519060200190929190505050905060008560008473ffffffffffffffffffffffffffffffffffffffff1673ffffffffffffffffffffffffffffffffffffffff16815260200190815260200160002054828860008673ffffffffffffffffffffffffffffffffffffffff1673ffffffffffffffffffffffffffffffffffffffff1681526020019081526020016000205402816121ff57fe5b04905061220c83826122d8565b850194505050508080600101915050612082565b509392505050565b600080600090505b83805490508110156122d157600084828154811061224a57fe5b9060005260206000200160009054906101000a900473ffffffffffffffffffffffffffffffffffffffff1690506122bf818560008473ffffffffffffffffffffffffffffffffffffffff1673ffffffffffffffffffffffffffffffffffffffff168152602001908152602001600020546122d8565b83019250508080600101915050612230565b5092915050565b6000600560009054906101000a900473ffffffffffffffffffffffffffffffffffffffff1673ffffffffffffffffffffffffffffffffffffffff168373ffffffffffffffffffffffffffffffffffffffff16141561233957600190506125e2565b6060600267ffffffffffffffff8111801561235357600080fd5b506040519080825280602002602001820160405280156123825781602001602082028036833780820191505090505b509050838160008151811061239357fe5b602002602001019073ffffffffffffffffffffffffffffffffffffffff16908173ffffffffffffffffffffffffffffffffffffffff1681525050600560009054906101000a900473ffffffffffffffffffffffffffffffffffffffff16816001815181106123fd57fe5b602002602001019073ffffffffffffffffffffffffffffffffffffffff16908173ffffffffffffffffffffffffffffffffffffffff168152505060606124416125e8565b73ffffffffffffffffffffffffffffffffffffffff1663eaa095f8600086856040518463ffffffff1660e01b81526004018084600381111561247f57fe5b815260200183815260200180602001828103825283818151815260200191508051906020019060200280838360005b838110156124c95780820151818401526020810190506124ae565b5050505090500194505050505060006040518083038186803b1580156124ee57600080fd5b505afa158015612502573d6000803e3d6000fd5b505050506040513d6000823e3d601f19601f82011682018060405250602081101561252c57600080fd5b810190808051604051939291908464010000000082111561254c57600080fd5b8382019150602082018581111561256257600080fd5b825186602082028301116401000000008211171561257f57600080fd5b8083526020830192505050908051906020019060200280838360005b838110156125b657808201518184015260208101905061259b565b505050509050016040525050509050806001825103815181106125d557fe5b6020026020010151925050505b92915050565b60008060009054906101000a900473ffffffffffffffffffffffffffffffffffffffff1673ffffffffffffffffffffffffffffffffffffffff166336214c7860036040518263ffffffff1660e01b8152600401808260ff16815260200191505060206040518083038186803b15801561266057600080fd5b505afa158015612674573d6000803e3d6000fd5b505050506040513d602081101561268a57600080fd5b810190808051906020019092919050505090509056fe43616c6c696e6720636f6e7472616374206973206e6f7420616e20617574686f72697a6564206d617267696e20747261646572206167656e744f776e61626c653a206e6577206f776e657220697320746865207a65726f206164647265737343616c6c696e6720636f6e7472616374206973206e6f7420616e20617574686f72697a6564206d617267696e207472616465724163636f756e742062616c616e636520697320746f6f206c6f7720746f20776974686472617743616e277420626f72726f773a20696e73756666696369656e742062616c616e636543616c6c696e6720636f6e7472616374206e6f7420617574686f72697a656420746f206465706f736974a264697066735822122032c59cd8a363e5c569382fc926f6de3a9f7197266f1fc925d0724792ca33214764736f6c63430007000033",
  "immutableReferences": {},
  "source": "pragma solidity ^0.7.0;\n\nimport '@openzeppelin/contracts/token/ERC20/IERC20.sol';\nimport '@openzeppelin/contracts/access/Ownable.sol';\nimport '@openzeppelin/contracts/math/SafeMath.sol';\n\nimport './Fund.sol';\nimport './Lending.sol';\nimport './RoleAware.sol';\nimport './MarginRouter.sol';\n\n// Goal: all external functions only accessible to margintrader role\n// except for view functions of course\n\nstruct MarginAccount {\n    address[] borrowTokens;\n    mapping(address => uint) borrowed;\n    mapping(address => uint) borrowedYieldQuotientsFP;\n\n    address[] holdingTokens;\n    mapping(address => uint) holdings;\n    mapping(address => bool) holdsToken;\n}\n\ncontract MarginTrading is RoleAware, Ownable {\n    using SafeMath for uint;\n\n    uint public leverage;\n    uint public liquidationThresholdPercent;\n    mapping(address => MarginAccount) marginAccounts;\n    address WETH;\n\n    constructor(address _WETH, address _roles) RoleAware(_roles) Ownable() {\n        WETH = _WETH;\n        liquidationThresholdPercent = 20;\n    }\n\n    function getHoldingAmounts(address trader) external view returns (address[] memory holdingTokens, uint[] memory holdingAmounts) {\n        MarginAccount storage account = marginAccounts[trader];\n        holdingTokens = account.holdingTokens;\n\n        holdingAmounts = new uint[] (account.holdingTokens.length);\n        for (uint idx = 0; holdingTokens.length > idx; idx++) {\n            address tokenAddress = holdingTokens[idx];\n            holdingAmounts[idx] = account.holdings[tokenAddress];\n        }  \n    }\n\n    function setLeverage(uint _leverage) external onlyOwner {\n        leverage = _leverage;\n    }\n\n    function setLiquidationThresholdPercent(uint threshold) external onlyOwner {\n        liquidationThresholdPercent = threshold;\n    }\n\n    function registerDeposit(address trader,\n                             address token,\n                             uint depositAmount) external returns (uint extinguishableDebt) {\n        require(isMarginTrader(msg.sender), \"Calling contract not authorized to deposit\");\n        MarginAccount storage account = marginAccounts[trader];\n        addHolding(account, token, depositAmount);\n        if (account.borrowed[token] > 0) {\n            extinguishableDebt = min(depositAmount, account.borrowed[token]);\n        }\n    }\n\n    function addHolding(MarginAccount storage account, address token, uint depositAmount) internal {\n        if (!hasHoldingToken(account, token)) {\n            account.holdingTokens.push(token);\n        }\n\n        account.holdings[token] += depositAmount;\n    }\n    \n    function registerBorrow(address trader, address borrowToken, uint borrowAmount) external {\n        require(isMarginTrader(msg.sender), \"Calling contract not authorized to deposit\");\n        MarginAccount storage account = marginAccounts[trader];\n        borrow(account, borrowToken, borrowAmount);\n    }\n\n    function borrow(MarginAccount storage account, address borrowToken, uint borrowAmount) internal {\n        if (!hasBorrowedToken(account, borrowToken)) {\n            account.borrowTokens.push(borrowToken);\n            account.borrowedYieldQuotientsFP[borrowToken] = Lending(lending())\n                .viewBorrowingYield(borrowToken);\n        } else {\n            account.borrowed[borrowToken] = Lending(lending())\n                .applyBorrowInterest(account.borrowed[borrowToken],\n                                     borrowToken,\n                                     account.borrowedYieldQuotientsFP[borrowToken]);\n        }\n        account.borrowed[borrowToken] += borrowAmount;\n        addHolding(account, borrowToken, borrowAmount);\n\n        require(positiveBalance(account),\n                \"Can't borrow: insufficient balance\");\n    }\n\n\n    function registerWithdrawal(address trader, address withdrawToken, uint withdrawAmount) external {\n        require(isMarginTrader(msg.sender), \"Calling contract not authorized to deposit\");\n        MarginAccount storage account = marginAccounts[trader];\n\n        // SafeMath throws on underflow \n        account.holdings[withdrawToken] = account.holdings[withdrawToken].sub(withdrawAmount);\n        require(positiveBalance(account),\n                \"Account balance is too low to withdraw\");\n    }\n\n    function positiveBalance(MarginAccount storage account) internal returns (bool) {\n        uint loan = loanInETH(account);\n        uint holdings = holdingsInETH(account);\n        // The following condition should hold:\n        // holdings / loan >= (leverage + 1) / leverage\n        // =>\n        return holdings * (leverage + 1) >= loan * leverage;\n    }\n\n    function registerPayOff(address trader, address debtToken, uint extinguishAmount) external {\n        require(isMarginTrader(msg.sender), \"Calling contract not authorized to deposit\");\n        extinguishDebt(marginAccounts[trader], debtToken, extinguishAmount);\n    }\n\n    function extinguishDebt(MarginAccount storage account,\n                            address debtToken,\n                            uint extinguishAmount) internal {\n        // SafeMath will throw if insufficient funds\n        account.borrowed[debtToken] = Lending(lending())\n            .applyBorrowInterest(account.borrowed[debtToken],\n                                 debtToken,\n                                 account.borrowedYieldQuotientsFP[debtToken]);\n        account.borrowed[debtToken] = account.borrowed[debtToken].sub(extinguishAmount);\n        account.holdings[debtToken] = account.holdings[debtToken].sub(extinguishAmount);\n    }\n\n    function hasHoldingToken(MarginAccount storage account, address token) internal view returns (bool) {\n        return account.holdsToken[token];\n    }\n\n    function hasBorrowedToken(MarginAccount storage account, address token) internal view returns (bool) {\n        return account.borrowedYieldQuotientsFP[token] > 0;\n    }\n    \n    function loanInETH(MarginAccount storage account) internal returns (uint) {\n        return sumTokensInETHWithYield(account.borrowTokens,\n                                       account.borrowed,\n                                       account.borrowedYieldQuotientsFP);\n    }\n\n    function holdingsInETH(MarginAccount storage account) internal view returns (uint) {\n        return sumTokensInETH(account.holdingTokens, account.holdings);\n    }\n\n    function marginCallable(MarginAccount storage account) internal returns (bool) {\n        uint loan = loanInETH(account);\n        uint holdings = holdingsInETH(account);\n        // The following should hold:\n        // holdings / loan >= (leverage + liquidationThresholdPercent / 100) / leverage\n        // =>\n        return holdings * leverage * 100 >= (100 * leverage + liquidationThresholdPercent) * loan;\n    }\n\n    function canBorrow(MarginAccount storage account, address token, uint amount)\n        internal view returns (bool) {\n        return account.holdings[token] >= amount;\n    }\n\n    function getTradeBorrowAmount(address trader, address token, uint amount)\n        external returns (uint borrowAmount) {\n        require(isMarginTrader(msg.sender), \"Calling contract is not an authorized margin trader\");\n        MarginAccount storage account = marginAccounts[trader];\n        borrowAmount = amount - account.holdings[token];\n        require(canBorrow(account, token, borrowAmount), \"Can't borrow full amount\");\n    }\n\n    function registerTradeAndBorrow(address trader,\n                                    address tokenFrom,\n                                    address tokenTo,\n                                    uint inAmount,\n                                    uint outAmount) external returns (uint borrowAmount) {\n        require(isMarginTrader(msg.sender), \"Calling contract is not an authorized margin trader agent\");\n\n        MarginAccount storage account = marginAccounts[trader];\n        uint sellAmount = inAmount;\n        if (inAmount > account.holdings[tokenFrom]) {\n            sellAmount = account.holdings[tokenFrom];\n            borrowAmount =  inAmount - sellAmount;\n            borrow(account, tokenFrom, borrowAmount);\n        }\n        adjustAmounts(account, tokenFrom, tokenTo, sellAmount, outAmount);\n    }\n\n    function sellPath(address sourceToken, address targetToken)\n        internal view returns (address[] memory) {\n        if (targetToken == WETH || sourceToken == WETH) {\n            // TODO both source and target the same?\n            address[] memory path = new address[](2);\n            path[0] = sourceToken;\n            path[1] = targetToken;\n            return path;\n        } else {\n            address[] memory path = new address[](3);\n            path[0] = sourceToken;\n            path[1] = WETH;\n            path[2] = targetToken;\n            return path;\n        }\n    }\n\n    function spotConversionAmount(address inToken, address outToken, uint inAmount)\n        internal returns (uint) {\n        address[] memory path = sellPath(inToken, outToken);\n        uint[] memory pathAmounts = MarginRouter(router()).getAmountsOut(AMM.uni, inAmount, path);\n        return pathAmounts[pathAmounts.length - 1];\n    }\n\n    function ethSpotPrice(address token, uint amount)\n        internal view returns (uint) {\n        if (token == WETH) {\n            return 1;\n        } else {\n            address[] memory path = new address[](2);\n            path[0] = token;\n            path[1] = WETH;\n            uint[] memory pathAmounts = MarginRouter(router()).getAmountsOut(AMM.uni, amount, path);\n            return pathAmounts[pathAmounts.length - 1];\n        }\n    }\n\n    function sumTokensInETH(address[] storage tokens, mapping(address => uint) storage amounts)\n        internal view returns (uint totalETH) {\n        for (uint tokenId = 0; tokenId < tokens.length; tokenId++) {\n            address token = tokens[tokenId];\n            totalETH += ethSpotPrice(token, amounts[token]);\n        }\n    }\n    \n    function sumTokensInETHWithYield(address[] storage tokens,\n                                     mapping(address => uint) storage amounts,\n                                     mapping(address => uint) storage yieldQuotientsFP)\n        internal returns (uint totalETH) {\n        for (uint tokenId = 0; tokenId < tokens.length; tokenId++) {\n            address token = tokens[tokenId];\n            uint yield = Lending(lending()).viewBorrowingYield(token);\n            // 1 * FP / FP = 1\n            uint amountInToken = (amounts[token] * yield) / yieldQuotientsFP[token];\n            totalETH += ethSpotPrice(token, amountInToken);\n        }\n    }\n\n    function adjustAmounts(MarginAccount storage account,\n                           address fromToken,\n                           address toToken,\n                           uint soldAmount,\n                           uint boughtAmount) internal {\n        account.holdings[fromToken] = account.holdings[fromToken].sub(soldAmount);\n        addHolding(account, toToken, boughtAmount);\n    }\n\n    function min(uint a, uint b) internal returns (uint) {\n        if (a > b) {\n            return b;\n        } else {\n            return a;\n        }\n    }\n}\n",
  "sourcePath": "/home/tixelbook/projects/marginswap-core/contracts/MarginTrading.sol",
  "compiler": {
    "name": "solc",
    "version": "0.7.0+commit.9e61f92b.Emscripten.clang"
  },
  "schemaVersion": "3.3.3",
  "updatedAt": "2021-02-12T21:14:04.665Z",
  "devdoc": {
    "kind": "dev",
    "methods": {
      "owner()": {
        "details": "Returns the address of the current owner."
      },
      "renounceOwnership()": {
        "details": "Leaves the contract without owner. It will not be possible to call `onlyOwner` functions anymore. Can only be called by the current owner. NOTE: Renouncing ownership will leave the contract without an owner, thereby removing any functionality that is only available to the owner."
      },
      "transferOwnership(address)": {
        "details": "Transfers ownership of the contract to a new account (`newOwner`). Can only be called by the current owner."
      }
    },
    "version": 1
  },
  "userdoc": {
    "kind": "user",
    "methods": {},
    "version": 1
  }
}