{
  "contractName": "MarginTrading",
  "abi": [
    {
      "inputs": [
        {
          "internalType": "address",
          "name": "_WETH",
          "type": "address"
        },
        {
          "internalType": "address",
          "name": "_roles",
          "type": "address"
        }
      ],
      "stateMutability": "nonpayable",
      "type": "constructor"
    },
    {
      "anonymous": false,
      "inputs": [
        {
          "indexed": true,
          "internalType": "address",
          "name": "previousOwner",
          "type": "address"
        },
        {
          "indexed": true,
          "internalType": "address",
          "name": "newOwner",
          "type": "address"
        }
      ],
      "name": "OwnershipTransferred",
      "type": "event"
    },
    {
      "inputs": [],
      "name": "leverage",
      "outputs": [
        {
          "internalType": "uint256",
          "name": "",
          "type": "uint256"
        }
      ],
      "stateMutability": "view",
      "type": "function"
    },
    {
      "inputs": [],
      "name": "liquidationThresholdPercent",
      "outputs": [
        {
          "internalType": "uint256",
          "name": "",
          "type": "uint256"
        }
      ],
      "stateMutability": "view",
      "type": "function"
    },
    {
      "inputs": [],
      "name": "owner",
      "outputs": [
        {
          "internalType": "address",
          "name": "",
          "type": "address"
        }
      ],
      "stateMutability": "view",
      "type": "function"
    },
    {
      "inputs": [],
      "name": "renounceOwnership",
      "outputs": [],
      "stateMutability": "nonpayable",
      "type": "function"
    },
    {
      "inputs": [],
      "name": "roles",
      "outputs": [
        {
          "internalType": "contract Roles",
          "name": "",
          "type": "address"
        }
      ],
      "stateMutability": "view",
      "type": "function"
    },
    {
      "inputs": [
        {
          "internalType": "address",
          "name": "newOwner",
          "type": "address"
        }
      ],
      "name": "transferOwnership",
      "outputs": [],
      "stateMutability": "nonpayable",
      "type": "function"
    },
    {
      "inputs": [
        {
          "internalType": "address",
          "name": "trader",
          "type": "address"
        }
      ],
      "name": "getHoldingAmounts",
      "outputs": [
        {
          "internalType": "address[]",
          "name": "holdingTokens",
          "type": "address[]"
        },
        {
          "internalType": "uint256[]",
          "name": "holdingAmounts",
          "type": "uint256[]"
        }
      ],
      "stateMutability": "view",
      "type": "function"
    },
    {
      "inputs": [
        {
          "internalType": "uint256",
          "name": "_leverage",
          "type": "uint256"
        }
      ],
      "name": "setLeverage",
      "outputs": [],
      "stateMutability": "nonpayable",
      "type": "function"
    },
    {
      "inputs": [
        {
          "internalType": "uint256",
          "name": "threshold",
          "type": "uint256"
        }
      ],
      "name": "setLiquidationThresholdPercent",
      "outputs": [],
      "stateMutability": "nonpayable",
      "type": "function"
    },
    {
      "inputs": [
        {
          "internalType": "address",
          "name": "trader",
          "type": "address"
        },
        {
          "internalType": "address",
          "name": "token",
          "type": "address"
        },
        {
          "internalType": "uint256",
          "name": "depositAmount",
          "type": "uint256"
        }
      ],
      "name": "registerDeposit",
      "outputs": [
        {
          "internalType": "uint256",
          "name": "extinguishableDebt",
          "type": "uint256"
        }
      ],
      "stateMutability": "nonpayable",
      "type": "function"
    },
    {
      "inputs": [
        {
          "internalType": "address",
          "name": "trader",
          "type": "address"
        },
        {
          "internalType": "address",
          "name": "borrowToken",
          "type": "address"
        },
        {
          "internalType": "uint256",
          "name": "borrowAmount",
          "type": "uint256"
        }
      ],
      "name": "registerBorrow",
      "outputs": [],
      "stateMutability": "nonpayable",
      "type": "function"
    },
    {
      "inputs": [
        {
          "internalType": "address",
          "name": "trader",
          "type": "address"
        },
        {
          "internalType": "address",
          "name": "withdrawToken",
          "type": "address"
        },
        {
          "internalType": "uint256",
          "name": "withdrawAmount",
          "type": "uint256"
        }
      ],
      "name": "registerWithdrawal",
      "outputs": [],
      "stateMutability": "nonpayable",
      "type": "function"
    },
    {
      "inputs": [
        {
          "internalType": "address",
          "name": "trader",
          "type": "address"
        },
        {
          "internalType": "address",
          "name": "debtToken",
          "type": "address"
        },
        {
          "internalType": "uint256",
          "name": "extinguishAmount",
          "type": "uint256"
        }
      ],
      "name": "registerPayOff",
      "outputs": [],
      "stateMutability": "nonpayable",
      "type": "function"
    },
    {
      "inputs": [
        {
          "internalType": "address",
          "name": "trader",
          "type": "address"
        },
        {
          "internalType": "address",
          "name": "token",
          "type": "address"
        },
        {
          "internalType": "uint256",
          "name": "amount",
          "type": "uint256"
        }
      ],
      "name": "getTradeBorrowAmount",
      "outputs": [
        {
          "internalType": "uint256",
          "name": "borrowAmount",
          "type": "uint256"
        }
      ],
      "stateMutability": "nonpayable",
      "type": "function"
    },
    {
      "inputs": [
        {
          "internalType": "address",
          "name": "trader",
          "type": "address"
        },
        {
          "internalType": "address",
          "name": "tokenFrom",
          "type": "address"
        },
        {
          "internalType": "address",
          "name": "tokenTo",
          "type": "address"
        },
        {
          "internalType": "uint256",
          "name": "inAmount",
          "type": "uint256"
        },
        {
          "internalType": "uint256",
          "name": "outAmount",
          "type": "uint256"
        }
      ],
      "name": "registerTradeAndBorrow",
      "outputs": [
        {
          "internalType": "uint256",
          "name": "borrowAmount",
          "type": "uint256"
        }
      ],
      "stateMutability": "nonpayable",
      "type": "function"
    },
    {
      "inputs": [
        {
          "internalType": "address[]",
          "name": "liquidationCandidates",
          "type": "address[]"
        }
      ],
      "name": "callMargin",
      "outputs": [
        {
          "internalType": "uint256",
          "name": "",
          "type": "uint256"
        }
      ],
      "stateMutability": "nonpayable",
      "type": "function"
    }
  ],
  "bytecode": "0x60806040523480156200001157600080fd5b506040516200348b3803806200348b833981810160405260408110156200003757600080fd5b81019080805190602001909291908051906020019092919050505080806000806101000a81548173ffffffffffffffffffffffffffffffffffffffff021916908373ffffffffffffffffffffffffffffffffffffffff160217905550506000620000a66200019660201b60201c565b905080600160006101000a81548173ffffffffffffffffffffffffffffffffffffffff021916908373ffffffffffffffffffffffffffffffffffffffff1602179055508073ffffffffffffffffffffffffffffffffffffffff16600073ffffffffffffffffffffffffffffffffffffffff167f8be0079c531659141344cd1fd0a4f28419497f9722a3daafe3b4186f6b6457e060405160405180910390a35081600560006101000a81548173ffffffffffffffffffffffffffffffffffffffff021916908373ffffffffffffffffffffffffffffffffffffffff160217905550601460038190555050506200019e565b600033905090565b6132dd80620001ae6000396000f3fe608060405234801561001057600080fd5b50600436106101005760003560e01c80636612ce3511610097578063b25777ad11610066578063b25777ad1461050e578063d0eb66531461057c578063ed95eda0146105ea578063f2fde38b146106b657610100565b80636612ce3514610420578063715018a6146104a257806379575b23146104ac5780638da5cb5b146104da57610100565b8063392f5f64116100d3578063392f5f641461021b578063409fdb721461024f578063498d55eb1461033057806352a664d91461039e57610100565b806316317e7e146101055780632c86d98e14610133578063320d2fa0146101515780633500aa0b1461016f575b600080fd5b6101316004803603602081101561011b57600080fd5b81019080803590602001909291905050506106fa565b005b61013b6107ce565b6040518082815260200191505060405180910390f35b6101596107d4565b6040518082815260200191505060405180910390f35b610205600480360360a081101561018557600080fd5b81019080803573ffffffffffffffffffffffffffffffffffffffff169060200190929190803573ffffffffffffffffffffffffffffffffffffffff169060200190929190803573ffffffffffffffffffffffffffffffffffffffff16906020019092919080359060200190929190803590602001909291905050506107da565b6040518082815260200191505060405180910390f35b610223610938565b604051808273ffffffffffffffffffffffffffffffffffffffff16815260200191505060405180910390f35b6102916004803603602081101561026557600080fd5b81019080803573ffffffffffffffffffffffffffffffffffffffff16906020019092919050505061095c565b604051808060200180602001838103835285818151815260200191508051906020019060200280838360005b838110156102d85780820151818401526020810190506102bd565b50505050905001838103825284818151815260200191508051906020019060200280838360005b8381101561031a5780820151818401526020810190506102ff565b5050505090500194505050505060405180910390f35b61039c6004803603606081101561034657600080fd5b81019080803573ffffffffffffffffffffffffffffffffffffffff169060200190929190803573ffffffffffffffffffffffffffffffffffffffff16906020019092919080359060200190929190505050610b10565b005b61040a600480360360608110156103b457600080fd5b81019080803573ffffffffffffffffffffffffffffffffffffffff169060200190929190803573ffffffffffffffffffffffffffffffffffffffff16906020019092919080359060200190929190505050610bc2565b6040518082815260200191505060405180910390f35b61048c6004803603606081101561043657600080fd5b81019080803573ffffffffffffffffffffffffffffffffffffffff169060200190929190803573ffffffffffffffffffffffffffffffffffffffff16906020019092919080359060200190929190505050610d10565b6040518082815260200191505060405180910390f35b6104aa610e7e565b005b6104d8600480360360208110156104c257600080fd5b8101908080359060200190929190505050611009565b005b6104e26110dd565b604051808273ffffffffffffffffffffffffffffffffffffffff16815260200191505060405180910390f35b61057a6004803603606081101561052457600080fd5b81019080803573ffffffffffffffffffffffffffffffffffffffff169060200190929190803573ffffffffffffffffffffffffffffffffffffffff16906020019092919080359060200190929190505050611107565b005b6105e86004803603606081101561059257600080fd5b81019080803573ffffffffffffffffffffffffffffffffffffffff169060200190929190803573ffffffffffffffffffffffffffffffffffffffff169060200190929190803590602001909291905050506111b3565b005b6106a06004803603602081101561060057600080fd5b810190808035906020019064010000000081111561061d57600080fd5b82018360208201111561062f57600080fd5b8035906020019184602083028401116401000000008311171561065157600080fd5b919080806020026020016040519081016040528093929190818152602001838360200280828437600081840152601f19601f820116905080830192505050505050509192919290505050611351565b6040518082815260200191505060405180910390f35b6106f8600480360360208110156106cc57600080fd5b81019080803573ffffffffffffffffffffffffffffffffffffffff169060200190929190505050611a05565b005b610702611c15565b73ffffffffffffffffffffffffffffffffffffffff16600160009054906101000a900473ffffffffffffffffffffffffffffffffffffffff1673ffffffffffffffffffffffffffffffffffffffff16146107c4576040517f08c379a00000000000000000000000000000000000000000000000000000000081526004018080602001828103825260208152602001807f4f776e61626c653a2063616c6c6572206973206e6f7420746865206f776e657281525060200191505060405180910390fd5b8060038190555050565b60025481565b60035481565b60006107e533611c1d565b61083a576040517f08c379a00000000000000000000000000000000000000000000000000000000081526004018080602001828103825260398152602001806131756039913960400191505060405180910390fd5b6000600460008873ffffffffffffffffffffffffffffffffffffffff1673ffffffffffffffffffffffffffffffffffffffff168152602001908152602001600020905060008490508160040160008873ffffffffffffffffffffffffffffffffffffffff1673ffffffffffffffffffffffffffffffffffffffff16815260200190815260200160002054851115610920578160040160008873ffffffffffffffffffffffffffffffffffffffff1673ffffffffffffffffffffffffffffffffffffffff168152602001908152602001600020549050808503925061091f828885611cf5565b5b61092d828888848861209b565b505095945050505050565b60008054906101000a900473ffffffffffffffffffffffffffffffffffffffff1681565b6060806000600460008573ffffffffffffffffffffffffffffffffffffffff1673ffffffffffffffffffffffffffffffffffffffff168152602001908152602001600020905080600301805480602002602001604051908101604052809291908181526020018280548015610a2657602002820191906000526020600020905b8160009054906101000a900473ffffffffffffffffffffffffffffffffffffffff1673ffffffffffffffffffffffffffffffffffffffff16815260200190600101908083116109dc575b50505050509250806003018054905067ffffffffffffffff81118015610a4b57600080fd5b50604051908082528060200260200182016040528015610a7a5781602001602082028036833780820191505090505b50915060005b8084511115610b09576000848281518110610a9757fe5b602002602001015190508260040160008273ffffffffffffffffffffffffffffffffffffffff1673ffffffffffffffffffffffffffffffffffffffff16815260200190815260200160002054848381518110610aef57fe5b602002602001018181525050508080600101915050610a80565b5050915091565b610b1933611c1d565b610b6e576040517f08c379a000000000000000000000000000000000000000000000000000000000815260040180806020018281038252602a81526020018061327e602a913960400191505060405180910390fd5b6000600460008573ffffffffffffffffffffffffffffffffffffffff1673ffffffffffffffffffffffffffffffffffffffff1681526020019081526020016000209050610bbc818484611cf5565b50505050565b6000610bcd33611c1d565b610c22576040517f08c379a000000000000000000000000000000000000000000000000000000000815260040180806020018281038252602a81526020018061327e602a913960400191505060405180910390fd5b6000600460008673ffffffffffffffffffffffffffffffffffffffff1673ffffffffffffffffffffffffffffffffffffffff1681526020019081526020016000209050610c70818585612146565b60008160010160008673ffffffffffffffffffffffffffffffffffffffff1673ffffffffffffffffffffffffffffffffffffffff168152602001908152602001600020541115610d0857610d05838260010160008773ffffffffffffffffffffffffffffffffffffffff1673ffffffffffffffffffffffffffffffffffffffff1681526020019081526020016000205461220e565b91505b509392505050565b6000610d1b33611c1d565b610d70576040517f08c379a00000000000000000000000000000000000000000000000000000000081526004018080602001828103825260338152602001806131d46033913960400191505060405180910390fd5b6000600460008673ffffffffffffffffffffffffffffffffffffffff1673ffffffffffffffffffffffffffffffffffffffff16815260200190815260200160002090508060040160008573ffffffffffffffffffffffffffffffffffffffff1673ffffffffffffffffffffffffffffffffffffffff1681526020019081526020016000205483039150610e0481858461222a565b610e76576040517f08c379a00000000000000000000000000000000000000000000000000000000081526004018080602001828103825260188152602001807f43616e277420626f72726f772066756c6c20616d6f756e74000000000000000081525060200191505060405180910390fd5b509392505050565b610e86611c15565b73ffffffffffffffffffffffffffffffffffffffff16600160009054906101000a900473ffffffffffffffffffffffffffffffffffffffff1673ffffffffffffffffffffffffffffffffffffffff1614610f48576040517f08c379a00000000000000000000000000000000000000000000000000000000081526004018080602001828103825260208152602001807f4f776e61626c653a2063616c6c6572206973206e6f7420746865206f776e657281525060200191505060405180910390fd5b600073ffffffffffffffffffffffffffffffffffffffff16600160009054906101000a900473ffffffffffffffffffffffffffffffffffffffff1673ffffffffffffffffffffffffffffffffffffffff167f8be0079c531659141344cd1fd0a4f28419497f9722a3daafe3b4186f6b6457e060405160405180910390a36000600160006101000a81548173ffffffffffffffffffffffffffffffffffffffff021916908373ffffffffffffffffffffffffffffffffffffffff160217905550565b611011611c15565b73ffffffffffffffffffffffffffffffffffffffff16600160009054906101000a900473ffffffffffffffffffffffffffffffffffffffff1673ffffffffffffffffffffffffffffffffffffffff16146110d3576040517f08c379a00000000000000000000000000000000000000000000000000000000081526004018080602001828103825260208152602001807f4f776e61626c653a2063616c6c6572206973206e6f7420746865206f776e657281525060200191505060405180910390fd5b8060028190555050565b6000600160009054906101000a900473ffffffffffffffffffffffffffffffffffffffff16905090565b61111033611c1d565b611165576040517f08c379a000000000000000000000000000000000000000000000000000000000815260040180806020018281038252602a81526020018061327e602a913960400191505060405180910390fd5b6111ae600460008573ffffffffffffffffffffffffffffffffffffffff1673ffffffffffffffffffffffffffffffffffffffff168152602001908152602001600020838361227a565b505050565b6111bc33611c1d565b611211576040517f08c379a000000000000000000000000000000000000000000000000000000000815260040180806020018281038252602a81526020018061327e602a913960400191505060405180910390fd5b6000600460008573ffffffffffffffffffffffffffffffffffffffff1673ffffffffffffffffffffffffffffffffffffffff16815260200190815260200160002090506112a8828260040160008673ffffffffffffffffffffffffffffffffffffffff1673ffffffffffffffffffffffffffffffffffffffff1681526020019081526020016000205461253390919063ffffffff16565b8160040160008573ffffffffffffffffffffffffffffffffffffffff1673ffffffffffffffffffffffffffffffffffffffff168152602001908152602001600020819055506112f68161257d565b61134b576040517f08c379a00000000000000000000000000000000000000000000000000000000081526004018080602001828103825260268152602001806132076026913960400191505060405180910390fd5b50505050565b600061135c336125b0565b6113b1576040517f08c379a000000000000000000000000000000000000000000000000000000000815260040180806020018281038252602f81526020018061322d602f913960400191505060405180910390fd5b60608060606113bf85612688565b92509250925060006113d0846126ae565b905060606113dd84612733565b90506113e98585612784565b6000805b80855111156119f95760006004600087848151811061140857fe5b602002602001015173ffffffffffffffffffffffffffffffffffffffff1673ffffffffffffffffffffffffffffffffffffffff16815260200190815260200160002090506000611457826127d0565b90506000611464836127d7565b9050600060028054606460035485028161147a57fe5b048161148257fe5b048161148a57fe5b049050808601955081810183106114a0576119e8565b600083828401039050606060088054905067ffffffffffffffff811180156114c757600080fd5b506040519080825280602002602001820160405280156114f65781602001602082028036833780820191505090505b509050606060078054905067ffffffffffffffff8111801561151757600080fd5b506040519080825280602002602001820160405280156115465781602001602082028036833780820191505090505b5090506000805b80600880549050111561166b5760006008828154811061156957fe5b9060005260206000200160009054906101000a900473ffffffffffffffffffffffffffffffffffffffff1690508960050160008273ffffffffffffffffffffffffffffffffffffffff1673ffffffffffffffffffffffffffffffffffffffff16815260200190815260200160002060009054906101000a900460ff161561165d57600080611638838d60040160008673ffffffffffffffffffffffffffffffffffffffff1673ffffffffffffffffffffffffffffffffffffffff168152602001908152602001600020546127f4565b820290508087858151811061164957fe5b602002602001018181525050808501945050505b50808060010191505061154d565b5060005b8060078054905011156117875760006007828154811061168b57fe5b9060005260206000200160009054906101000a900473ffffffffffffffffffffffffffffffffffffffff16905060008a60010160008373ffffffffffffffffffffffffffffffffffffffff1673ffffffffffffffffffffffffffffffffffffffff16815260200190815260200160002054111561177957600080611754838d60010160008673ffffffffffffffffffffffffffffffffffffffff1673ffffffffffffffffffffffffffffffffffffffff168152602001908152602001600020548e600201612b04565b820290508086858151811061176557fe5b602002602001018181525050808501945050505b50808060010191505061166f565b5060008111156119e25760005b8060088054905011156118b65760008482815181106117af57fe5b602002602001015111156118a9576000600882815481106117cc57fe5b9060005260206000200160009054906101000a900473ffffffffffffffffffffffffffffffffffffffff169050611801612c15565b73ffffffffffffffffffffffffffffffffffffffff16639db9cbf9828588868151811061182a57fe5b60200260200101518a028161183b57fe5b046040518363ffffffff1660e01b8152600401808373ffffffffffffffffffffffffffffffffffffffff16815260200182815260200192505050600060405180830381600087803b15801561188f57600080fd5b505af11580156118a3573d6000803e3d6000fd5b50505050505b8080600101915050611794565b5060005b8060078054905011156119dc5760008382815181106118d557fe5b602002602001015111156119cf576000600782815481106118f257fe5b9060005260206000200160009054906101000a900473ffffffffffffffffffffffffffffffffffffffff169050611927612c15565b73ffffffffffffffffffffffffffffffffffffffff16639db9cbf9828587868151811061195057fe5b60200260200101518a028161196157fe5b046040518363ffffffff1660e01b8152600401808373ffffffffffffffffffffffffffffffffffffffff16815260200182815260200192505050600060405180830381600087803b1580156119b557600080fd5b505af11580156119c9573d6000803e3d6000fd5b50505050505b80806001019150506118ba565b506119e3565b5b505050505b5050505080806001019150506113ed565b50505050505050919050565b611a0d611c15565b73ffffffffffffffffffffffffffffffffffffffff16600160009054906101000a900473ffffffffffffffffffffffffffffffffffffffff1673ffffffffffffffffffffffffffffffffffffffff1614611acf576040517f08c379a00000000000000000000000000000000000000000000000000000000081526004018080602001828103825260208152602001807f4f776e61626c653a2063616c6c6572206973206e6f7420746865206f776e657281525060200191505060405180910390fd5b600073ffffffffffffffffffffffffffffffffffffffff168173ffffffffffffffffffffffffffffffffffffffff161415611b55576040517f08c379a00000000000000000000000000000000000000000000000000000000081526004018080602001828103825260268152602001806131ae6026913960400191505060405180910390fd5b8073ffffffffffffffffffffffffffffffffffffffff16600160009054906101000a900473ffffffffffffffffffffffffffffffffffffffff1673ffffffffffffffffffffffffffffffffffffffff167f8be0079c531659141344cd1fd0a4f28419497f9722a3daafe3b4186f6b6457e060405160405180910390a380600160006101000a81548173ffffffffffffffffffffffffffffffffffffffff021916908373ffffffffffffffffffffffffffffffffffffffff16021790555050565b600033905090565b60008060009054906101000a900473ffffffffffffffffffffffffffffffffffffffff1673ffffffffffffffffffffffffffffffffffffffff1663a716b97f8360696040518363ffffffff1660e01b8152600401808373ffffffffffffffffffffffffffffffffffffffff1681526020018260ff1681526020019250505060206040518083038186803b158015611cb357600080fd5b505afa158015611cc7573d6000803e3d6000fd5b505050506040513d6020811015611cdd57600080fd5b81019080805190602001909291905050509050919050565b611cff8383612ccd565b611e5b5782600001829080600181540180825580915050600190039060005260206000200160009091909190916101000a81548173ffffffffffffffffffffffffffffffffffffffff021916908373ffffffffffffffffffffffffffffffffffffffff160217905550611d70612d1b565b73ffffffffffffffffffffffffffffffffffffffff1663e7bde5c1836040518263ffffffff1660e01b8152600401808273ffffffffffffffffffffffffffffffffffffffff16815260200191505060206040518083038186803b158015611dd657600080fd5b505afa158015611dea573d6000803e3d6000fd5b505050506040513d6020811015611e0057600080fd5b81019080805190602001909291905050508360020160008473ffffffffffffffffffffffffffffffffffffffff1673ffffffffffffffffffffffffffffffffffffffff16815260200190815260200160002081905550611fde565b611e63612d1b565b73ffffffffffffffffffffffffffffffffffffffff1663e695fa688460010160008573ffffffffffffffffffffffffffffffffffffffff1673ffffffffffffffffffffffffffffffffffffffff16815260200190815260200160002054848660020160008773ffffffffffffffffffffffffffffffffffffffff1673ffffffffffffffffffffffffffffffffffffffff168152602001908152602001600020546040518463ffffffff1660e01b8152600401808481526020018373ffffffffffffffffffffffffffffffffffffffff1681526020018281526020019350505050602060405180830381600087803b158015611f5d57600080fd5b505af1158015611f71573d6000803e3d6000fd5b505050506040513d6020811015611f8757600080fd5b81019080805190602001909291905050508360010160008473ffffffffffffffffffffffffffffffffffffffff1673ffffffffffffffffffffffffffffffffffffffff168152602001908152602001600020819055505b808360010160008473ffffffffffffffffffffffffffffffffffffffff1673ffffffffffffffffffffffffffffffffffffffff16815260200190815260200160002060008282540192505081905550612038838383612146565b6120418361257d565b612096576040517f08c379a000000000000000000000000000000000000000000000000000000000815260040180806020018281038252602281526020018061325c6022913960400191505060405180910390fd5b505050565b6120ef828660040160008773ffffffffffffffffffffffffffffffffffffffff1673ffffffffffffffffffffffffffffffffffffffff1681526020019081526020016000205461253390919063ffffffff16565b8560040160008673ffffffffffffffffffffffffffffffffffffffff1673ffffffffffffffffffffffffffffffffffffffff1681526020019081526020016000208190555061213f858483612146565b5050505050565b6121508383612dd3565b6121ba5782600301829080600181540180825580915050600190039060005260206000200160009091909190916101000a81548173ffffffffffffffffffffffffffffffffffffffff021916908373ffffffffffffffffffffffffffffffffffffffff1602179055505b808360040160008473ffffffffffffffffffffffffffffffffffffffff1673ffffffffffffffffffffffffffffffffffffffff16815260200190815260200160002060008282540192505081905550505050565b60008183111561222057819050612224565b8290505b92915050565b6000818460040160008573ffffffffffffffffffffffffffffffffffffffff1673ffffffffffffffffffffffffffffffffffffffff16815260200190815260200160002054101590509392505050565b612282612d1b565b73ffffffffffffffffffffffffffffffffffffffff1663e695fa688460010160008573ffffffffffffffffffffffffffffffffffffffff1673ffffffffffffffffffffffffffffffffffffffff16815260200190815260200160002054848660020160008773ffffffffffffffffffffffffffffffffffffffff1673ffffffffffffffffffffffffffffffffffffffff168152602001908152602001600020546040518463ffffffff1660e01b8152600401808481526020018373ffffffffffffffffffffffffffffffffffffffff1681526020018281526020019350505050602060405180830381600087803b15801561237c57600080fd5b505af1158015612390573d6000803e3d6000fd5b505050506040513d60208110156123a657600080fd5b81019080805190602001909291905050508360010160008473ffffffffffffffffffffffffffffffffffffffff1673ffffffffffffffffffffffffffffffffffffffff16815260200190815260200160002081905550612450818460010160008573ffffffffffffffffffffffffffffffffffffffff1673ffffffffffffffffffffffffffffffffffffffff1681526020019081526020016000205461253390919063ffffffff16565b8360010160008473ffffffffffffffffffffffffffffffffffffffff1673ffffffffffffffffffffffffffffffffffffffff168152602001908152602001600020819055506124e9818460040160008573ffffffffffffffffffffffffffffffffffffffff1673ffffffffffffffffffffffffffffffffffffffff1681526020019081526020016000205461253390919063ffffffff16565b8360040160008473ffffffffffffffffffffffffffffffffffffffff1673ffffffffffffffffffffffffffffffffffffffff16815260200190815260200160002081905550505050565b600061257583836040518060400160405280601e81526020017f536166654d6174683a207375627472616374696f6e206f766572666c6f770000815250612e2c565b905092915050565b600080612589836127d7565b9050600061259684612eec565b905060025482026001600254018202101592505050919050565b60008060009054906101000a900473ffffffffffffffffffffffffffffffffffffffff1673ffffffffffffffffffffffffffffffffffffffff1663a716b97f8360676040518363ffffffff1660e01b8152600401808373ffffffffffffffffffffffffffffffffffffffff1681526020018260ff1681526020019250505060206040518083038186803b15801561264657600080fd5b505afa15801561265a573d6000803e3d6000fd5b505050506040513d602081101561267057600080fd5b81019080805190602001909291905050509050919050565b606080606060005b80855111156126a6578080600101915050612690565b509193909250565b600080600090505b808351111561272d576000600660008584815181106126d157fe5b602002602001015173ffffffffffffffffffffffffffffffffffffffff1673ffffffffffffffffffffffffffffffffffffffff1681526020019081526020016000206001015490506000830192505080806001019150506126b6565b50919050565b6060815167ffffffffffffffff8111801561274d57600080fd5b5060405190808252806020026020018201604052801561277c5781602001602082028036833780820191505090505b509050919050565b61278e6008612f05565b6127986007612f05565b60005b80835111156127b157808060010191505061279b565b5060005b80825111156127cb5780806001019150506127b5565b505050565b6000919050565b60006127ed826000018360010184600201612f5a565b9050919050565b6000600560009054906101000a900473ffffffffffffffffffffffffffffffffffffffff1673ffffffffffffffffffffffffffffffffffffffff168373ffffffffffffffffffffffffffffffffffffffff1614156128555760019050612afe565b6060600267ffffffffffffffff8111801561286f57600080fd5b5060405190808252806020026020018201604052801561289e5781602001602082028036833780820191505090505b50905083816000815181106128af57fe5b602002602001019073ffffffffffffffffffffffffffffffffffffffff16908173ffffffffffffffffffffffffffffffffffffffff1681525050600560009054906101000a900473ffffffffffffffffffffffffffffffffffffffff168160018151811061291957fe5b602002602001019073ffffffffffffffffffffffffffffffffffffffff16908173ffffffffffffffffffffffffffffffffffffffff1681525050606061295d61300c565b73ffffffffffffffffffffffffffffffffffffffff1663eaa095f8600086856040518463ffffffff1660e01b81526004018084600381111561299b57fe5b815260200183815260200180602001828103825283818151815260200191508051906020019060200280838360005b838110156129e55780820151818401526020810190506129ca565b5050505090500194505050505060006040518083038186803b158015612a0a57600080fd5b505afa158015612a1e573d6000803e3d6000fd5b505050506040513d6000823e3d601f19601f820116820180604052506020811015612a4857600080fd5b8101908080516040519392919084640100000000821115612a6857600080fd5b83820191506020820185811115612a7e57600080fd5b8251866020820283011164010000000082111715612a9b57600080fd5b8083526020830192505050908051906020019060200280838360005b83811015612ad2578082015181840152602081019050612ab7565b50505050905001604052505050905080600182510381518110612af157fe5b6020026020010151925050505b92915050565b600080612b0f612d1b565b73ffffffffffffffffffffffffffffffffffffffff1663e7bde5c1866040518263ffffffff1660e01b8152600401808273ffffffffffffffffffffffffffffffffffffffff16815260200191505060206040518083038186803b158015612b7557600080fd5b505afa158015612b89573d6000803e3d6000fd5b505050506040513d6020811015612b9f57600080fd5b8101908080519060200190929190505050905060008360008773ffffffffffffffffffffffffffffffffffffffff1673ffffffffffffffffffffffffffffffffffffffff1681526020019081526020016000205482860281612bfd57fe5b049050612c0a86826127f4565b925050509392505050565b60008060009054906101000a900473ffffffffffffffffffffffffffffffffffffffff1673ffffffffffffffffffffffffffffffffffffffff166336214c7860066040518263ffffffff1660e01b8152600401808260ff16815260200191505060206040518083038186803b158015612c8d57600080fd5b505afa158015612ca1573d6000803e3d6000fd5b505050506040513d6020811015612cb757600080fd5b8101908080519060200190929190505050905090565b6000808360020160008473ffffffffffffffffffffffffffffffffffffffff1673ffffffffffffffffffffffffffffffffffffffff1681526020019081526020016000205411905092915050565b60008060009054906101000a900473ffffffffffffffffffffffffffffffffffffffff1673ffffffffffffffffffffffffffffffffffffffff166336214c7860026040518263ffffffff1660e01b8152600401808260ff16815260200191505060206040518083038186803b158015612d9357600080fd5b505afa158015612da7573d6000803e3d6000fd5b505050506040513d6020811015612dbd57600080fd5b8101908080519060200190929190505050905090565b60008260050160008373ffffffffffffffffffffffffffffffffffffffff1673ffffffffffffffffffffffffffffffffffffffff16815260200190815260200160002060009054906101000a900460ff16905092915050565b6000838311158290612ed9576040517f08c379a00000000000000000000000000000000000000000000000000000000081526004018080602001828103825283818151815260200191508051906020019080838360005b83811015612e9e578082015181840152602081019050612e83565b50505050905090810190601f168015612ecb5780820380516001836020036101000a031916815260200191505b509250505060405180910390fd5b5060008385039050809150509392505050565b6000612efe82600301836004016130c4565b9050919050565b5b600081805490501115612f575780805480612f1d57fe5b6001900381819060005260206000200160006101000a81549073ffffffffffffffffffffffffffffffffffffffff02191690559055612f06565b50565b600080600090505b8480549050811015613004576000858281548110612f7c57fe5b9060005260206000200160009054906101000a900473ffffffffffffffffffffffffffffffffffffffff169050612ff2818660008473ffffffffffffffffffffffffffffffffffffffff1673ffffffffffffffffffffffffffffffffffffffff1681526020019081526020016000205486612b04565b83019250508080600101915050612f62565b509392505050565b60008060009054906101000a900473ffffffffffffffffffffffffffffffffffffffff1673ffffffffffffffffffffffffffffffffffffffff166336214c7860036040518263ffffffff1660e01b8152600401808260ff16815260200191505060206040518083038186803b15801561308457600080fd5b505afa158015613098573d6000803e3d6000fd5b505050506040513d60208110156130ae57600080fd5b8101908080519060200190929190505050905090565b600080600090505b838054905081101561316d5760008482815481106130e657fe5b9060005260206000200160009054906101000a900473ffffffffffffffffffffffffffffffffffffffff16905061315b818560008473ffffffffffffffffffffffffffffffffffffffff1673ffffffffffffffffffffffffffffffffffffffff168152602001908152602001600020546127f4565b830192505080806001019150506130cc565b509291505056fe43616c6c696e6720636f6e7472616374206973206e6f7420616e20617574686f72697a6564206d617267696e20747261646572206167656e744f776e61626c653a206e6577206f776e657220697320746865207a65726f206164647265737343616c6c696e6720636f6e7472616374206973206e6f7420616e20617574686f72697a6564206d617267696e207472616465724163636f756e742062616c616e636520697320746f6f206c6f7720746f20776974686472617743616c6c696e67206164647265737320646f65736e27742068617665206d617267696e2063616c6c657220726f6c6543616e277420626f72726f773a20696e73756666696369656e742062616c616e636543616c6c696e6720636f6e7472616374206e6f7420617574686f72697a656420746f206465706f736974a2646970667358221220bd02129625feb39ca53ca02cfdc4d8c65274f15bb2e2660eb084071bebe4e7ca64736f6c63430007000033",
  "immutableReferences": {},
  "source": "pragma solidity ^0.7.0;\n\nimport '@openzeppelin/contracts/token/ERC20/IERC20.sol';\nimport '@openzeppelin/contracts/access/Ownable.sol';\nimport '@openzeppelin/contracts/math/SafeMath.sol';\n\nimport './Fund.sol';\nimport './Lending.sol';\nimport './RoleAware.sol';\nimport './MarginRouter.sol';\nimport './Price.sol';\n\n// Goal: all external functions only accessible to margintrader role\n// except for view functions of course\n\nstruct MarginAccount {\n    address[] borrowTokens;\n    mapping(address => uint) borrowed;\n    mapping(address => uint) borrowedYieldQuotientsFP;\n\n    address[] holdingTokens;\n    mapping(address => uint) holdings;\n    mapping(address => bool) holdsToken;\n}\n\ncontract MarginTrading is RoleAware, Ownable {\n    using SafeMath for uint;\n\n    uint public leverage;\n    uint public liquidationThresholdPercent;\n    mapping(address => MarginAccount) marginAccounts;\n    address WETH;\n\n    constructor(address _WETH, address _roles) RoleAware(_roles) Ownable() {\n        WETH = _WETH;\n        liquidationThresholdPercent = 20;\n    }\n\n    function getHoldingAmounts(address trader) external view returns (address[] memory holdingTokens, uint[] memory holdingAmounts) {\n        MarginAccount storage account = marginAccounts[trader];\n        holdingTokens = account.holdingTokens;\n\n        holdingAmounts = new uint[] (account.holdingTokens.length);\n        for (uint idx = 0; holdingTokens.length > idx; idx++) {\n            address tokenAddress = holdingTokens[idx];\n            holdingAmounts[idx] = account.holdings[tokenAddress];\n        }  \n    }\n\n    function setLeverage(uint _leverage) external onlyOwner {\n        leverage = _leverage;\n    }\n\n    function setLiquidationThresholdPercent(uint threshold) external onlyOwner {\n        liquidationThresholdPercent = threshold;\n    }\n\n    function registerDeposit(address trader,\n                             address token,\n                             uint depositAmount) external returns (uint extinguishableDebt) {\n        require(isMarginTrader(msg.sender), \"Calling contract not authorized to deposit\");\n        MarginAccount storage account = marginAccounts[trader];\n        addHolding(account, token, depositAmount);\n        if (account.borrowed[token] > 0) {\n            extinguishableDebt = min(depositAmount, account.borrowed[token]);\n        }\n    }\n\n    function addHolding(MarginAccount storage account, address token, uint depositAmount) internal {\n        if (!hasHoldingToken(account, token)) {\n            account.holdingTokens.push(token);\n        }\n\n        account.holdings[token] += depositAmount;\n    }\n    \n    function registerBorrow(address trader, address borrowToken, uint borrowAmount) external {\n        require(isMarginTrader(msg.sender), \"Calling contract not authorized to deposit\");\n        MarginAccount storage account = marginAccounts[trader];\n        borrow(account, borrowToken, borrowAmount);\n    }\n\n    function borrow(MarginAccount storage account, address borrowToken, uint borrowAmount) internal {\n        if (!hasBorrowedToken(account, borrowToken)) {\n            account.borrowTokens.push(borrowToken);\n            account.borrowedYieldQuotientsFP[borrowToken] = Lending(lending())\n                .viewBorrowingYield(borrowToken);\n        } else {\n            account.borrowed[borrowToken] = Lending(lending())\n                .applyBorrowInterest(account.borrowed[borrowToken],\n                                     borrowToken,\n                                     account.borrowedYieldQuotientsFP[borrowToken]);\n        }\n        account.borrowed[borrowToken] += borrowAmount;\n        addHolding(account, borrowToken, borrowAmount);\n\n        require(positiveBalance(account),\n                \"Can't borrow: insufficient balance\");\n    }\n\n\n    function registerWithdrawal(address trader, address withdrawToken, uint withdrawAmount) external {\n        require(isMarginTrader(msg.sender), \"Calling contract not authorized to deposit\");\n        MarginAccount storage account = marginAccounts[trader];\n\n        // SafeMath throws on underflow \n        account.holdings[withdrawToken] = account.holdings[withdrawToken].sub(withdrawAmount);\n        require(positiveBalance(account),\n                \"Account balance is too low to withdraw\");\n    }\n\n    function positiveBalance(MarginAccount storage account) internal returns (bool) {\n        uint loan = loanInETH(account);\n        uint holdings = holdingsInETH(account);\n        // The following condition should hold:\n        // holdings / loan >= (leverage + 1) / leverage\n        // =>\n        return holdings * (leverage + 1) >= loan * leverage;\n    }\n\n    function registerPayOff(address trader, address debtToken, uint extinguishAmount) external {\n        require(isMarginTrader(msg.sender), \"Calling contract not authorized to deposit\");\n        extinguishDebt(marginAccounts[trader], debtToken, extinguishAmount);\n    }\n\n    function extinguishDebt(MarginAccount storage account,\n                            address debtToken,\n                            uint extinguishAmount) internal {\n        // SafeMath will throw if insufficient funds\n        account.borrowed[debtToken] = Lending(lending())\n            .applyBorrowInterest(account.borrowed[debtToken],\n                                 debtToken,\n                                 account.borrowedYieldQuotientsFP[debtToken]);\n        account.borrowed[debtToken] = account.borrowed[debtToken].sub(extinguishAmount);\n        account.holdings[debtToken] = account.holdings[debtToken].sub(extinguishAmount);\n    }\n\n    function hasHoldingToken(MarginAccount storage account, address token) internal view returns (bool) {\n        return account.holdsToken[token];\n    }\n\n    function hasBorrowedToken(MarginAccount storage account, address token) internal view returns (bool) {\n        return account.borrowedYieldQuotientsFP[token] > 0;\n    }\n    \n    function loanInETH(MarginAccount storage account) internal returns (uint) {\n        return sumTokensInETHWithYield(account.borrowTokens,\n                                       account.borrowed,\n                                       account.borrowedYieldQuotientsFP);\n    }\n\n    function holdingsInETH(MarginAccount storage account) internal view returns (uint) {\n        return sumTokensInETH(account.holdingTokens, account.holdings);\n    }\n\n    function marginCallable(MarginAccount storage account) internal returns (bool) {\n        uint loan = loanInETH(account);\n        uint holdings = holdingsInETH(account);\n        // The following should hold:\n        // holdings / loan >= (leverage + liquidationThresholdPercent / 100) / leverage\n        // =>\n        return holdings * leverage * 100 >= (100 * leverage + liquidationThresholdPercent) * loan;\n    }\n\n    function canBorrow(MarginAccount storage account, address token, uint amount)\n        internal view returns (bool) {\n        return account.holdings[token] >= amount;\n    }\n\n    function getTradeBorrowAmount(address trader, address token, uint amount)\n        external returns (uint borrowAmount) {\n        require(isMarginTrader(msg.sender), \"Calling contract is not an authorized margin trader\");\n        MarginAccount storage account = marginAccounts[trader];\n        borrowAmount = amount - account.holdings[token];\n        require(canBorrow(account, token, borrowAmount), \"Can't borrow full amount\");\n    }\n\n    function registerTradeAndBorrow(address trader,\n                                    address tokenFrom,\n                                    address tokenTo,\n                                    uint inAmount,\n                                    uint outAmount) external returns (uint borrowAmount) {\n        require(isMarginTrader(msg.sender), \"Calling contract is not an authorized margin trader agent\");\n\n        MarginAccount storage account = marginAccounts[trader];\n        uint sellAmount = inAmount;\n        if (inAmount > account.holdings[tokenFrom]) {\n            sellAmount = account.holdings[tokenFrom];\n            borrowAmount =  inAmount - sellAmount;\n            borrow(account, tokenFrom, borrowAmount);\n        }\n        adjustAmounts(account, tokenFrom, tokenTo, sellAmount, outAmount);\n    }\n\n    function sellPath(address sourceToken, address targetToken)\n        internal view returns (address[] memory) {\n        if (targetToken == WETH || sourceToken == WETH) {\n            // TODO both source and target the same?\n            address[] memory path = new address[](2);\n            path[0] = sourceToken;\n            path[1] = targetToken;\n            return path;\n        } else {\n            address[] memory path = new address[](3);\n            path[0] = sourceToken;\n            path[1] = WETH;\n            path[2] = targetToken;\n            return path;\n        }\n    }\n\n    function spotConversionAmount(address inToken, address outToken, uint inAmount)\n        internal returns (uint) {\n        address[] memory path = sellPath(inToken, outToken);\n        uint[] memory pathAmounts = MarginRouter(router()).getAmountsOut(AMM.uni, inAmount, path);\n        return pathAmounts[pathAmounts.length - 1];\n    }\n\n    function ethSpotPrice(address token, uint amount)\n        internal view returns (uint) {\n        if (token == WETH) {\n            return 1;\n        } else {\n            address[] memory path = new address[](2);\n            path[0] = token;\n            path[1] = WETH;\n            uint[] memory pathAmounts = MarginRouter(router()).getAmountsOut(AMM.uni, amount, path);\n            return pathAmounts[pathAmounts.length - 1];\n        }\n    }\n\n    function sumTokensInETH(address[] storage tokens, mapping(address => uint) storage amounts)\n        internal view returns (uint totalETH) {\n        for (uint tokenId = 0; tokenId < tokens.length; tokenId++) {\n            address token = tokens[tokenId];\n            totalETH += ethSpotPrice(token, amounts[token]);\n        }\n    }\n    \n    function sumTokensInETHWithYield(address[] storage tokens,\n                                     mapping(address => uint) storage amounts,\n                                     mapping(address => uint) storage yieldQuotientsFP)\n        internal returns (uint totalETH) {\n        for (uint tokenId = 0; tokenId < tokens.length; tokenId++) {\n            address token = tokens[tokenId];\n            totalETH += yieldTokenInETH(token, amounts[token], yieldQuotientsFP);\n        }\n    }\n\n    function yieldTokenInETH(address token, uint amount, mapping(address => uint) storage yieldQuotientsFP)\n        internal returns (uint) {\n        uint yield = Lending(lending()).viewBorrowingYield(token);\n        // 1 * FP / FP = 1\n        uint amountInToken = (amount * yield) / yieldQuotientsFP[token];\n        return ethSpotPrice(token, amountInToken);\n    }\n\n    function adjustAmounts(MarginAccount storage account,\n                           address fromToken,\n                           address toToken,\n                           uint soldAmount,\n                           uint boughtAmount) internal {\n        account.holdings[fromToken] = account.holdings[fromToken].sub(soldAmount);\n        addHolding(account, toToken, boughtAmount);\n    }\n\n    function min(uint a, uint b) internal returns (uint) {\n        if (a > b) {\n            return b;\n        } else {\n            return a;\n        }\n    }\n\n    struct Liquidation {\n        uint buy;\n        uint sell;\n        uint blockNum;\n    }\n    mapping(address => Liquidation) liquidationAmounts;\n    address[] volatileBuyTokens;\n    address[] volatileSellTokens;\n\n    function calcLiquidationAmounts(address[] memory liquidationCandidates)\n        internal returns (address[] memory sellTokens,\n                          address[] memory buyTokens,\n                          address[] memory tradersToLiquidate) {\n        for (uint traderIndex = 0; liquidationCandidates.length > traderIndex; traderIndex++) {\n            \n        }\n    }\n\n    function calcLiquidationTargetCosts(address[] memory buyTokens) internal view\n        returns (uint[] memory pegAmounts) {\n        pegAmounts = new uint[](buyTokens.length);\n        // TODO calc how much it would cost for every buy\n    }\n\n    function liquidateToPeg(address[] memory sellTokens) internal returns (uint pegAmount) {\n        for (uint tokenIndex = 0; sellTokens.length > tokenIndex; tokenIndex++) {\n            uint sellAmount = liquidationAmounts[sellTokens[tokenIndex]].sell;\n            // sell TODO\n            pegAmount += 0;\n        }\n    }\n\n    function holdings2Peg(MarginAccount storage account) internal returns (uint pegAmount) {\n        \n    }\n\n    function clearVolatileArray(address[] storage volatileTokens) internal {\n        while (volatileTokens.length > 0) {\n            volatileTokens.pop();\n        }\n    }\n\n    function updateVolatileArrays(address[] memory sellTokens, address[] memory buyTokens) internal {\n        clearVolatileArray(volatileSellTokens);\n        clearVolatileArray(volatileBuyTokens);\n\n        for (uint idx = 0; sellTokens.length > idx; idx++) {\n            // check if price went down bigly and add to volatileSelltokens\n        }\n\n        for (uint idx = 0; buyTokens.length > idx; idx++) {\n            // check if price went up bigly and add to volatileBuytokens\n        }\n    }\n\n    function callMargin(address[] memory liquidationCandidates) external returns (uint) {\n        require(isMarginCaller(msg.sender), \"Calling address doesn't have margin caller role\");\n\n        (address[] memory sellTokens,\n         address[] memory buyTokens,\n         address[] memory tradersToLiquidate) = calcLiquidationAmounts(liquidationCandidates);\n\n        uint sale2pegAmount = liquidateToPeg(sellTokens);\n        uint[] memory peg2targetCosts = calcLiquidationTargetCosts(buyTokens);\n        updateVolatileArrays(sellTokens, buyTokens);\n\n        uint marginCallerCut = 0;\n        for (uint traderIdx = 0; tradersToLiquidate.length > traderIdx; traderIdx++) {\n            MarginAccount storage account = marginAccounts[tradersToLiquidate[traderIdx]];\n\n            uint holdingsValue = holdings2Peg(account);\n            uint borrowValue = loanInETH(account);\n            // half of the liquidation threshold\n            uint mcCut4account = borrowValue * liquidationThresholdPercent / 100 / leverage / 2;\n            marginCallerCut += mcCut4account;\n            if (holdingsValue >= mcCut4account + borrowValue) {\n                // send back remainder to trader\n            } else {\n                uint shortfall = (borrowValue + mcCut4account) - holdingsValue;\n                // find the bag holder\n                // iterate over tokens by losses\n                // weighted sum\n                uint[] memory sellWeights = new uint[](volatileSellTokens.length);\n                uint[] memory buyWeights = new uint[](volatileBuyTokens.length);\n                uint totalWeights = 0;\n\n                for (uint sellIdx = 0; volatileSellTokens.length > sellIdx; sellIdx++) {\n                    address token = volatileSellTokens[sellIdx];\n                    if (account.holdsToken[token]) {\n                        uint maxDrop = 0; // TODO\n                        uint weight = maxDrop * ethSpotPrice(token, account.holdings[token]);\n                        sellWeights[sellIdx] = weight;\n                        totalWeights += weight;\n                    }\n                }\n\n                for (uint buyIdx = 0; volatileBuyTokens.length > buyIdx; buyIdx++) {\n                    address token = volatileBuyTokens[buyIdx];\n                    if (account.borrowed[token] > 0) {\n                        uint maxRise = 0; // TODO\n                        uint weight = maxRise * yieldTokenInETH(token,\n                                                                account.borrowed[token],\n                                                                account.borrowedYieldQuotientsFP);\n                        buyWeights[buyIdx] = weight;\n                        totalWeights += weight;\n                    }\n                }\n\n                if (totalWeights > 0) {\n                    for (uint sellIdx = 0; volatileSellTokens.length > sellIdx; sellIdx++) {\n                        if (sellWeights[sellIdx] > 0) {\n                            address token = volatileSellTokens[sellIdx];\n                            Price(price()).claimInsurance(token, shortfall * sellWeights[sellIdx] / totalWeights);\n                        }\n                    }\n\n                    for (uint buyIdx = 0; volatileBuyTokens.length > buyIdx; buyIdx++) {\n                        if (buyWeights[buyIdx] > 0) {\n                            address token = volatileBuyTokens[buyIdx];\n                            Price(price()).claimInsurance(token, shortfall * buyWeights[buyIdx] / totalWeights);\n                        }\n                    }\n                } else {\n                    // TODO we have a problem and either there's a bug or margin callers didn't do their job\n                    // we probably want to raise an event here, not an exception so as to not paralize margin calling\n                }\n            }\n        }\n    }\n}\n",
  "sourcePath": "/home/tixelbook/projects/marginswap-core/contracts/MarginTrading.sol",
  "compiler": {
    "name": "solc",
    "version": "0.7.0+commit.9e61f92b.Emscripten.clang"
  },
  "schemaVersion": "3.3.3",
  "updatedAt": "2021-02-13T18:25:47.798Z",
  "devdoc": {
    "kind": "dev",
    "methods": {
      "owner()": {
        "details": "Returns the address of the current owner."
      },
      "renounceOwnership()": {
        "details": "Leaves the contract without owner. It will not be possible to call `onlyOwner` functions anymore. Can only be called by the current owner. NOTE: Renouncing ownership will leave the contract without an owner, thereby removing any functionality that is only available to the owner."
      },
      "transferOwnership(address)": {
        "details": "Transfers ownership of the contract to a new account (`newOwner`). Can only be called by the current owner."
      }
    },
    "version": 1
  },
  "userdoc": {
    "kind": "user",
    "methods": {},
    "version": 1
  }
}