{
  "contractName": "MarginTrading",
  "abi": [
    {
      "inputs": [
        {
          "internalType": "address",
          "name": "_WETH",
          "type": "address"
        },
        {
          "internalType": "address",
          "name": "_roles",
          "type": "address"
        }
      ],
      "stateMutability": "nonpayable",
      "type": "constructor"
    },
    {
      "anonymous": false,
      "inputs": [
        {
          "indexed": true,
          "internalType": "address",
          "name": "previousOwner",
          "type": "address"
        },
        {
          "indexed": true,
          "internalType": "address",
          "name": "newOwner",
          "type": "address"
        }
      ],
      "name": "OwnershipTransferred",
      "type": "event"
    },
    {
      "inputs": [],
      "name": "leverage",
      "outputs": [
        {
          "internalType": "uint256",
          "name": "",
          "type": "uint256"
        }
      ],
      "stateMutability": "view",
      "type": "function"
    },
    {
      "inputs": [],
      "name": "liquidationThresholdPercent",
      "outputs": [
        {
          "internalType": "uint256",
          "name": "",
          "type": "uint256"
        }
      ],
      "stateMutability": "view",
      "type": "function"
    },
    {
      "inputs": [],
      "name": "owner",
      "outputs": [
        {
          "internalType": "address",
          "name": "",
          "type": "address"
        }
      ],
      "stateMutability": "view",
      "type": "function"
    },
    {
      "inputs": [],
      "name": "renounceOwnership",
      "outputs": [],
      "stateMutability": "nonpayable",
      "type": "function"
    },
    {
      "inputs": [],
      "name": "roles",
      "outputs": [
        {
          "internalType": "contract Roles",
          "name": "",
          "type": "address"
        }
      ],
      "stateMutability": "view",
      "type": "function"
    },
    {
      "inputs": [
        {
          "internalType": "address",
          "name": "newOwner",
          "type": "address"
        }
      ],
      "name": "transferOwnership",
      "outputs": [],
      "stateMutability": "nonpayable",
      "type": "function"
    },
    {
      "inputs": [
        {
          "internalType": "uint256",
          "name": "_leverage",
          "type": "uint256"
        }
      ],
      "name": "setLeverage",
      "outputs": [],
      "stateMutability": "nonpayable",
      "type": "function"
    },
    {
      "inputs": [
        {
          "internalType": "uint256",
          "name": "threshold",
          "type": "uint256"
        }
      ],
      "name": "setLiquidationThresholdPercent",
      "outputs": [],
      "stateMutability": "nonpayable",
      "type": "function"
    },
    {
      "inputs": [
        {
          "internalType": "address",
          "name": "trader",
          "type": "address"
        },
        {
          "internalType": "address",
          "name": "token",
          "type": "address"
        },
        {
          "internalType": "uint256",
          "name": "depositAmount",
          "type": "uint256"
        }
      ],
      "name": "registerDeposit",
      "outputs": [
        {
          "internalType": "uint256",
          "name": "extinguishableDebt",
          "type": "uint256"
        }
      ],
      "stateMutability": "nonpayable",
      "type": "function"
    },
    {
      "inputs": [
        {
          "internalType": "address",
          "name": "trader",
          "type": "address"
        },
        {
          "internalType": "address",
          "name": "borrowToken",
          "type": "address"
        },
        {
          "internalType": "uint256",
          "name": "borrowAmount",
          "type": "uint256"
        }
      ],
      "name": "registerBorrow",
      "outputs": [],
      "stateMutability": "nonpayable",
      "type": "function"
    },
    {
      "inputs": [
        {
          "internalType": "address",
          "name": "trader",
          "type": "address"
        },
        {
          "internalType": "address",
          "name": "withdrawToken",
          "type": "address"
        },
        {
          "internalType": "uint256",
          "name": "withdrawAmount",
          "type": "uint256"
        }
      ],
      "name": "registerWithdrawal",
      "outputs": [],
      "stateMutability": "nonpayable",
      "type": "function"
    },
    {
      "inputs": [
        {
          "internalType": "address",
          "name": "trader",
          "type": "address"
        },
        {
          "internalType": "address",
          "name": "debtToken",
          "type": "address"
        },
        {
          "internalType": "uint256",
          "name": "extinguishAmount",
          "type": "uint256"
        }
      ],
      "name": "registerPayOff",
      "outputs": [],
      "stateMutability": "nonpayable",
      "type": "function"
    },
    {
      "inputs": [
        {
          "internalType": "address",
          "name": "trader",
          "type": "address"
        },
        {
          "internalType": "address",
          "name": "token",
          "type": "address"
        },
        {
          "internalType": "uint256",
          "name": "amount",
          "type": "uint256"
        }
      ],
      "name": "getTradeBorrowAmount",
      "outputs": [
        {
          "internalType": "uint256",
          "name": "borrowAmount",
          "type": "uint256"
        }
      ],
      "stateMutability": "nonpayable",
      "type": "function"
    },
    {
      "inputs": [
        {
          "internalType": "address",
          "name": "trader",
          "type": "address"
        },
        {
          "internalType": "address",
          "name": "tokenFrom",
          "type": "address"
        },
        {
          "internalType": "address",
          "name": "tokenTo",
          "type": "address"
        },
        {
          "internalType": "uint256",
          "name": "inAmount",
          "type": "uint256"
        },
        {
          "internalType": "uint256",
          "name": "outAmount",
          "type": "uint256"
        }
      ],
      "name": "registerTradeAndBorrow",
      "outputs": [
        {
          "internalType": "uint256",
          "name": "borrowAmount",
          "type": "uint256"
        }
      ],
      "stateMutability": "nonpayable",
      "type": "function"
    }
  ],
  "bytecode": "0x608060405234801561001057600080fd5b506040516126e03803806126e08339818101604052604081101561003357600080fd5b81019080805190602001909291908051906020019092919050505080806000806101000a81548173ffffffffffffffffffffffffffffffffffffffff021916908373ffffffffffffffffffffffffffffffffffffffff1602179055505060006100a061018f60201b60201c565b905080600160006101000a81548173ffffffffffffffffffffffffffffffffffffffff021916908373ffffffffffffffffffffffffffffffffffffffff1602179055508073ffffffffffffffffffffffffffffffffffffffff16600073ffffffffffffffffffffffffffffffffffffffff167f8be0079c531659141344cd1fd0a4f28419497f9722a3daafe3b4186f6b6457e060405160405180910390a35081600560006101000a81548173ffffffffffffffffffffffffffffffffffffffff021916908373ffffffffffffffffffffffffffffffffffffffff16021790555060146003819055505050610197565b600033905090565b61253a806101a66000396000f3fe608060405234801561001057600080fd5b50600436106100ea5760003560e01c80636612ce351161008c5780638da5cb5b116100665780638da5cb5b146103e3578063b25777ad14610417578063d0eb665314610485578063f2fde38b146104f3576100ea565b80636612ce3514610329578063715018a6146103ab57806379575b23146103b5576100ea565b80633500aa0b116100c85780633500aa0b14610159578063392f5f6414610205578063498d55eb1461023957806352a664d9146102a7576100ea565b806316317e7e146100ef5780632c86d98e1461011d578063320d2fa01461013b575b600080fd5b61011b6004803603602081101561010557600080fd5b8101908080359060200190929190505050610537565b005b61012561060b565b6040518082815260200191505060405180910390f35b610143610611565b6040518082815260200191505060405180910390f35b6101ef600480360360a081101561016f57600080fd5b81019080803573ffffffffffffffffffffffffffffffffffffffff169060200190929190803573ffffffffffffffffffffffffffffffffffffffff169060200190929190803573ffffffffffffffffffffffffffffffffffffffff1690602001909291908035906020019092919080359060200190929190505050610617565b6040518082815260200191505060405180910390f35b61020d610775565b604051808273ffffffffffffffffffffffffffffffffffffffff16815260200191505060405180910390f35b6102a56004803603606081101561024f57600080fd5b81019080803573ffffffffffffffffffffffffffffffffffffffff169060200190929190803573ffffffffffffffffffffffffffffffffffffffff16906020019092919080359060200190929190505050610799565b005b610313600480360360608110156102bd57600080fd5b81019080803573ffffffffffffffffffffffffffffffffffffffff169060200190929190803573ffffffffffffffffffffffffffffffffffffffff1690602001909291908035906020019092919050505061084b565b6040518082815260200191505060405180910390f35b6103956004803603606081101561033f57600080fd5b81019080803573ffffffffffffffffffffffffffffffffffffffff169060200190929190803573ffffffffffffffffffffffffffffffffffffffff16906020019092919080359060200190929190505050610999565b6040518082815260200191505060405180910390f35b6103b3610b07565b005b6103e1600480360360208110156103cb57600080fd5b8101908080359060200190929190505050610c92565b005b6103eb610d66565b604051808273ffffffffffffffffffffffffffffffffffffffff16815260200191505060405180910390f35b6104836004803603606081101561042d57600080fd5b81019080803573ffffffffffffffffffffffffffffffffffffffff169060200190929190803573ffffffffffffffffffffffffffffffffffffffff16906020019092919080359060200190929190505050610d90565b005b6104f16004803603606081101561049b57600080fd5b81019080803573ffffffffffffffffffffffffffffffffffffffff169060200190929190803573ffffffffffffffffffffffffffffffffffffffff16906020019092919080359060200190929190505050610e3c565b005b6105356004803603602081101561050957600080fd5b81019080803573ffffffffffffffffffffffffffffffffffffffff169060200190929190505050610fda565b005b61053f6111ea565b73ffffffffffffffffffffffffffffffffffffffff16600160009054906101000a900473ffffffffffffffffffffffffffffffffffffffff1673ffffffffffffffffffffffffffffffffffffffff1614610601576040517f08c379a00000000000000000000000000000000000000000000000000000000081526004018080602001828103825260208152602001807f4f776e61626c653a2063616c6c6572206973206e6f7420746865206f776e657281525060200191505060405180910390fd5b8060038190555050565b60025481565b60035481565b6000610622336111f2565b610677576040517f08c379a00000000000000000000000000000000000000000000000000000000081526004018080602001828103825260398152602001806124016039913960400191505060405180910390fd5b6000600460008873ffffffffffffffffffffffffffffffffffffffff1673ffffffffffffffffffffffffffffffffffffffff168152602001908152602001600020905060008490508160040160008873ffffffffffffffffffffffffffffffffffffffff1673ffffffffffffffffffffffffffffffffffffffff1681526020019081526020016000205485111561075d578160040160008873ffffffffffffffffffffffffffffffffffffffff1673ffffffffffffffffffffffffffffffffffffffff168152602001908152602001600020549050808503925061075c8288856112ca565b5b61076a8288888488611670565b505095945050505050565b60008054906101000a900473ffffffffffffffffffffffffffffffffffffffff1681565b6107a2336111f2565b6107f7576040517f08c379a000000000000000000000000000000000000000000000000000000000815260040180806020018281038252602a8152602001806124db602a913960400191505060405180910390fd5b6000600460008573ffffffffffffffffffffffffffffffffffffffff1673ffffffffffffffffffffffffffffffffffffffff16815260200190815260200160002090506108458184846112ca565b50505050565b6000610856336111f2565b6108ab576040517f08c379a000000000000000000000000000000000000000000000000000000000815260040180806020018281038252602a8152602001806124db602a913960400191505060405180910390fd5b6000600460008673ffffffffffffffffffffffffffffffffffffffff1673ffffffffffffffffffffffffffffffffffffffff16815260200190815260200160002090506108f981858561171b565b60008160010160008673ffffffffffffffffffffffffffffffffffffffff1673ffffffffffffffffffffffffffffffffffffffff1681526020019081526020016000205411156109915761098e838260010160008773ffffffffffffffffffffffffffffffffffffffff1673ffffffffffffffffffffffffffffffffffffffff168152602001908152602001600020546117e3565b91505b509392505050565b60006109a4336111f2565b6109f9576040517f08c379a00000000000000000000000000000000000000000000000000000000081526004018080602001828103825260338152602001806124606033913960400191505060405180910390fd5b6000600460008673ffffffffffffffffffffffffffffffffffffffff1673ffffffffffffffffffffffffffffffffffffffff16815260200190815260200160002090508060040160008573ffffffffffffffffffffffffffffffffffffffff1673ffffffffffffffffffffffffffffffffffffffff1681526020019081526020016000205483039150610a8d8185846117ff565b610aff576040517f08c379a00000000000000000000000000000000000000000000000000000000081526004018080602001828103825260188152602001807f43616e277420626f72726f772066756c6c20616d6f756e74000000000000000081525060200191505060405180910390fd5b509392505050565b610b0f6111ea565b73ffffffffffffffffffffffffffffffffffffffff16600160009054906101000a900473ffffffffffffffffffffffffffffffffffffffff1673ffffffffffffffffffffffffffffffffffffffff1614610bd1576040517f08c379a00000000000000000000000000000000000000000000000000000000081526004018080602001828103825260208152602001807f4f776e61626c653a2063616c6c6572206973206e6f7420746865206f776e657281525060200191505060405180910390fd5b600073ffffffffffffffffffffffffffffffffffffffff16600160009054906101000a900473ffffffffffffffffffffffffffffffffffffffff1673ffffffffffffffffffffffffffffffffffffffff167f8be0079c531659141344cd1fd0a4f28419497f9722a3daafe3b4186f6b6457e060405160405180910390a36000600160006101000a81548173ffffffffffffffffffffffffffffffffffffffff021916908373ffffffffffffffffffffffffffffffffffffffff160217905550565b610c9a6111ea565b73ffffffffffffffffffffffffffffffffffffffff16600160009054906101000a900473ffffffffffffffffffffffffffffffffffffffff1673ffffffffffffffffffffffffffffffffffffffff1614610d5c576040517f08c379a00000000000000000000000000000000000000000000000000000000081526004018080602001828103825260208152602001807f4f776e61626c653a2063616c6c6572206973206e6f7420746865206f776e657281525060200191505060405180910390fd5b8060028190555050565b6000600160009054906101000a900473ffffffffffffffffffffffffffffffffffffffff16905090565b610d99336111f2565b610dee576040517f08c379a000000000000000000000000000000000000000000000000000000000815260040180806020018281038252602a8152602001806124db602a913960400191505060405180910390fd5b610e37600460008573ffffffffffffffffffffffffffffffffffffffff1673ffffffffffffffffffffffffffffffffffffffff168152602001908152602001600020838361184f565b505050565b610e45336111f2565b610e9a576040517f08c379a000000000000000000000000000000000000000000000000000000000815260040180806020018281038252602a8152602001806124db602a913960400191505060405180910390fd5b6000600460008573ffffffffffffffffffffffffffffffffffffffff1673ffffffffffffffffffffffffffffffffffffffff1681526020019081526020016000209050610f31828260040160008673ffffffffffffffffffffffffffffffffffffffff1673ffffffffffffffffffffffffffffffffffffffff16815260200190815260200160002054611b0890919063ffffffff16565b8160040160008573ffffffffffffffffffffffffffffffffffffffff1673ffffffffffffffffffffffffffffffffffffffff16815260200190815260200160002081905550610f7f81611b52565b610fd4576040517f08c379a00000000000000000000000000000000000000000000000000000000081526004018080602001828103825260268152602001806124936026913960400191505060405180910390fd5b50505050565b610fe26111ea565b73ffffffffffffffffffffffffffffffffffffffff16600160009054906101000a900473ffffffffffffffffffffffffffffffffffffffff1673ffffffffffffffffffffffffffffffffffffffff16146110a4576040517f08c379a00000000000000000000000000000000000000000000000000000000081526004018080602001828103825260208152602001807f4f776e61626c653a2063616c6c6572206973206e6f7420746865206f776e657281525060200191505060405180910390fd5b600073ffffffffffffffffffffffffffffffffffffffff168173ffffffffffffffffffffffffffffffffffffffff16141561112a576040517f08c379a000000000000000000000000000000000000000000000000000000000815260040180806020018281038252602681526020018061243a6026913960400191505060405180910390fd5b8073ffffffffffffffffffffffffffffffffffffffff16600160009054906101000a900473ffffffffffffffffffffffffffffffffffffffff1673ffffffffffffffffffffffffffffffffffffffff167f8be0079c531659141344cd1fd0a4f28419497f9722a3daafe3b4186f6b6457e060405160405180910390a380600160006101000a81548173ffffffffffffffffffffffffffffffffffffffff021916908373ffffffffffffffffffffffffffffffffffffffff16021790555050565b600033905090565b60008060009054906101000a900473ffffffffffffffffffffffffffffffffffffffff1673ffffffffffffffffffffffffffffffffffffffff1663a716b97f8360696040518363ffffffff1660e01b8152600401808373ffffffffffffffffffffffffffffffffffffffff1681526020018260ff1681526020019250505060206040518083038186803b15801561128857600080fd5b505afa15801561129c573d6000803e3d6000fd5b505050506040513d60208110156112b257600080fd5b81019080805190602001909291905050509050919050565b6112d48383611b85565b6114305782600001829080600181540180825580915050600190039060005260206000200160009091909190916101000a81548173ffffffffffffffffffffffffffffffffffffffff021916908373ffffffffffffffffffffffffffffffffffffffff160217905550611345611bd3565b73ffffffffffffffffffffffffffffffffffffffff1663e7bde5c1836040518263ffffffff1660e01b8152600401808273ffffffffffffffffffffffffffffffffffffffff16815260200191505060206040518083038186803b1580156113ab57600080fd5b505afa1580156113bf573d6000803e3d6000fd5b505050506040513d60208110156113d557600080fd5b81019080805190602001909291905050508360020160008473ffffffffffffffffffffffffffffffffffffffff1673ffffffffffffffffffffffffffffffffffffffff168152602001908152602001600020819055506115b3565b611438611bd3565b73ffffffffffffffffffffffffffffffffffffffff1663e695fa688460010160008573ffffffffffffffffffffffffffffffffffffffff1673ffffffffffffffffffffffffffffffffffffffff16815260200190815260200160002054848660020160008773ffffffffffffffffffffffffffffffffffffffff1673ffffffffffffffffffffffffffffffffffffffff168152602001908152602001600020546040518463ffffffff1660e01b8152600401808481526020018373ffffffffffffffffffffffffffffffffffffffff1681526020018281526020019350505050602060405180830381600087803b15801561153257600080fd5b505af1158015611546573d6000803e3d6000fd5b505050506040513d602081101561155c57600080fd5b81019080805190602001909291905050508360010160008473ffffffffffffffffffffffffffffffffffffffff1673ffffffffffffffffffffffffffffffffffffffff168152602001908152602001600020819055505b808360010160008473ffffffffffffffffffffffffffffffffffffffff1673ffffffffffffffffffffffffffffffffffffffff1681526020019081526020016000206000828254019250508190555061160d83838361171b565b61161683611b52565b61166b576040517f08c379a00000000000000000000000000000000000000000000000000000000081526004018080602001828103825260228152602001806124b96022913960400191505060405180910390fd5b505050565b6116c4828660040160008773ffffffffffffffffffffffffffffffffffffffff1673ffffffffffffffffffffffffffffffffffffffff16815260200190815260200160002054611b0890919063ffffffff16565b8560040160008673ffffffffffffffffffffffffffffffffffffffff1673ffffffffffffffffffffffffffffffffffffffff1681526020019081526020016000208190555061171485848361171b565b5050505050565b6117258383611c8b565b61178f5782600301829080600181540180825580915050600190039060005260206000200160009091909190916101000a81548173ffffffffffffffffffffffffffffffffffffffff021916908373ffffffffffffffffffffffffffffffffffffffff1602179055505b808360040160008473ffffffffffffffffffffffffffffffffffffffff1673ffffffffffffffffffffffffffffffffffffffff16815260200190815260200160002060008282540192505081905550505050565b6000818311156117f5578190506117f9565b8290505b92915050565b6000818460040160008573ffffffffffffffffffffffffffffffffffffffff1673ffffffffffffffffffffffffffffffffffffffff16815260200190815260200160002054101590509392505050565b611857611bd3565b73ffffffffffffffffffffffffffffffffffffffff1663e695fa688460010160008573ffffffffffffffffffffffffffffffffffffffff1673ffffffffffffffffffffffffffffffffffffffff16815260200190815260200160002054848660020160008773ffffffffffffffffffffffffffffffffffffffff1673ffffffffffffffffffffffffffffffffffffffff168152602001908152602001600020546040518463ffffffff1660e01b8152600401808481526020018373ffffffffffffffffffffffffffffffffffffffff1681526020018281526020019350505050602060405180830381600087803b15801561195157600080fd5b505af1158015611965573d6000803e3d6000fd5b505050506040513d602081101561197b57600080fd5b81019080805190602001909291905050508360010160008473ffffffffffffffffffffffffffffffffffffffff1673ffffffffffffffffffffffffffffffffffffffff16815260200190815260200160002081905550611a25818460010160008573ffffffffffffffffffffffffffffffffffffffff1673ffffffffffffffffffffffffffffffffffffffff16815260200190815260200160002054611b0890919063ffffffff16565b8360010160008473ffffffffffffffffffffffffffffffffffffffff1673ffffffffffffffffffffffffffffffffffffffff16815260200190815260200160002081905550611abe818460040160008573ffffffffffffffffffffffffffffffffffffffff1673ffffffffffffffffffffffffffffffffffffffff16815260200190815260200160002054611b0890919063ffffffff16565b8360040160008473ffffffffffffffffffffffffffffffffffffffff1673ffffffffffffffffffffffffffffffffffffffff16815260200190815260200160002081905550505050565b6000611b4a83836040518060400160405280601e81526020017f536166654d6174683a207375627472616374696f6e206f766572666c6f770000815250611ce4565b905092915050565b600080611b5e83611da4565b90506000611b6b84611dc1565b905060025482026001600254018202101592505050919050565b6000808360020160008473ffffffffffffffffffffffffffffffffffffffff1673ffffffffffffffffffffffffffffffffffffffff1681526020019081526020016000205411905092915050565b60008060009054906101000a900473ffffffffffffffffffffffffffffffffffffffff1673ffffffffffffffffffffffffffffffffffffffff166336214c7860026040518263ffffffff1660e01b8152600401808260ff16815260200191505060206040518083038186803b158015611c4b57600080fd5b505afa158015611c5f573d6000803e3d6000fd5b505050506040513d6020811015611c7557600080fd5b8101908080519060200190929190505050905090565b60008260050160008373ffffffffffffffffffffffffffffffffffffffff1673ffffffffffffffffffffffffffffffffffffffff16815260200190815260200160002060009054906101000a900460ff16905092915050565b6000838311158290611d91576040517f08c379a00000000000000000000000000000000000000000000000000000000081526004018080602001828103825283818151815260200191508051906020019080838360005b83811015611d56578082015181840152602081019050611d3b565b50505050905090810190601f168015611d835780820380516001836020036101000a031916815260200191505b509250505060405180910390fd5b5060008385039050809150509392505050565b6000611dba826000018360010184600201611dda565b9050919050565b6000611dd38260030183600401611f88565b9050919050565b600080600090505b8480549050811015611f80576000858281548110611dfc57fe5b9060005260206000200160009054906101000a900473ffffffffffffffffffffffffffffffffffffffff1690506000611e33611bd3565b73ffffffffffffffffffffffffffffffffffffffff1663e7bde5c1836040518263ffffffff1660e01b8152600401808273ffffffffffffffffffffffffffffffffffffffff16815260200191505060206040518083038186803b158015611e9957600080fd5b505afa158015611ead573d6000803e3d6000fd5b505050506040513d6020811015611ec357600080fd5b8101908080519060200190929190505050905060008560008473ffffffffffffffffffffffffffffffffffffffff1673ffffffffffffffffffffffffffffffffffffffff16815260200190815260200160002054828860008673ffffffffffffffffffffffffffffffffffffffff1673ffffffffffffffffffffffffffffffffffffffff168152602001908152602001600020540281611f5f57fe5b049050611f6c8382612038565b850194505050508080600101915050611de2565b509392505050565b600080600090505b8380549050811015612031576000848281548110611faa57fe5b9060005260206000200160009054906101000a900473ffffffffffffffffffffffffffffffffffffffff16905061201f818560008473ffffffffffffffffffffffffffffffffffffffff1673ffffffffffffffffffffffffffffffffffffffff16815260200190815260200160002054612038565b83019250508080600101915050611f90565b5092915050565b6000600560009054906101000a900473ffffffffffffffffffffffffffffffffffffffff1673ffffffffffffffffffffffffffffffffffffffff168373ffffffffffffffffffffffffffffffffffffffff1614156120995760019050612342565b6060600267ffffffffffffffff811180156120b357600080fd5b506040519080825280602002602001820160405280156120e25781602001602082028036833780820191505090505b50905083816000815181106120f357fe5b602002602001019073ffffffffffffffffffffffffffffffffffffffff16908173ffffffffffffffffffffffffffffffffffffffff1681525050600560009054906101000a900473ffffffffffffffffffffffffffffffffffffffff168160018151811061215d57fe5b602002602001019073ffffffffffffffffffffffffffffffffffffffff16908173ffffffffffffffffffffffffffffffffffffffff168152505060606121a1612348565b73ffffffffffffffffffffffffffffffffffffffff1663eaa095f8600086856040518463ffffffff1660e01b8152600401808460038111156121df57fe5b815260200183815260200180602001828103825283818151815260200191508051906020019060200280838360005b8381101561222957808201518184015260208101905061220e565b5050505090500194505050505060006040518083038186803b15801561224e57600080fd5b505afa158015612262573d6000803e3d6000fd5b505050506040513d6000823e3d601f19601f82011682018060405250602081101561228c57600080fd5b81019080805160405193929190846401000000008211156122ac57600080fd5b838201915060208201858111156122c257600080fd5b82518660208202830111640100000000821117156122df57600080fd5b8083526020830192505050908051906020019060200280838360005b838110156123165780820151818401526020810190506122fb565b5050505090500160405250505090508060018251038151811061233557fe5b6020026020010151925050505b92915050565b60008060009054906101000a900473ffffffffffffffffffffffffffffffffffffffff1673ffffffffffffffffffffffffffffffffffffffff166336214c7860036040518263ffffffff1660e01b8152600401808260ff16815260200191505060206040518083038186803b1580156123c057600080fd5b505afa1580156123d4573d6000803e3d6000fd5b505050506040513d60208110156123ea57600080fd5b810190808051906020019092919050505090509056fe43616c6c696e6720636f6e7472616374206973206e6f7420616e20617574686f72697a6564206d617267696e20747261646572206167656e744f776e61626c653a206e6577206f776e657220697320746865207a65726f206164647265737343616c6c696e6720636f6e7472616374206973206e6f7420616e20617574686f72697a6564206d617267696e207472616465724163636f756e742062616c616e636520697320746f6f206c6f7720746f20776974686472617743616e277420626f72726f773a20696e73756666696369656e742062616c616e636543616c6c696e6720636f6e7472616374206e6f7420617574686f72697a656420746f206465706f736974a26469706673582212208310483877697e4c5bec844dab647eb07e6aa5db06831962e46241af158542a264736f6c63430007000033",
  "immutableReferences": {},
  "source": "pragma solidity ^0.7.0;\n\nimport '@openzeppelin/contracts/token/ERC20/IERC20.sol';\nimport '@openzeppelin/contracts/access/Ownable.sol';\nimport '@openzeppelin/contracts/math/SafeMath.sol';\n\nimport './Fund.sol';\nimport './Lending.sol';\nimport './RoleAware.sol';\nimport './MarginRouter.sol';\n\n// Goal: all external functions only accessible to margintrader role\n// except for view functions of course\n\nstruct MarginAccount {\n    address[] borrowTokens;\n    mapping(address => uint) borrowed;\n    mapping(address => uint) borrowedYieldQuotientsFP;\n\n    address[] holdingTokens;\n    mapping(address => uint) holdings;\n    mapping(address => bool) holdsToken;\n}\n\ncontract MarginTrading is RoleAware, Ownable {\n    using SafeMath for uint;\n\n    uint public leverage;\n    uint public liquidationThresholdPercent;\n    mapping(address => MarginAccount) marginAccounts;\n    address WETH;\n\n    constructor(address _WETH, address _roles) RoleAware(_roles) Ownable() {\n        WETH = _WETH;\n        liquidationThresholdPercent = 20;\n    }\n\n    function setLeverage(uint _leverage) external onlyOwner {\n        leverage = _leverage;\n    }\n\n    function setLiquidationThresholdPercent(uint threshold) external onlyOwner {\n        liquidationThresholdPercent = threshold;\n    }\n\n    function registerDeposit(address trader,\n                             address token,\n                             uint depositAmount) external returns (uint extinguishableDebt) {\n        require(isMarginTrader(msg.sender), \"Calling contract not authorized to deposit\");\n        MarginAccount storage account = marginAccounts[trader];\n        addHolding(account, token, depositAmount);\n        if (account.borrowed[token] > 0) {\n            extinguishableDebt = min(depositAmount, account.borrowed[token]);\n        }\n    }\n\n    function addHolding(MarginAccount storage account, address token, uint depositAmount) internal {\n        if (!hasHoldingToken(account, token)) {\n            account.holdingTokens.push(token);\n        }\n\n        account.holdings[token] += depositAmount;\n    }\n    \n    function registerBorrow(address trader, address borrowToken, uint borrowAmount) external {\n        require(isMarginTrader(msg.sender), \"Calling contract not authorized to deposit\");\n        MarginAccount storage account = marginAccounts[trader];\n        borrow(account, borrowToken, borrowAmount);\n    }\n\n    function borrow(MarginAccount storage account, address borrowToken, uint borrowAmount) internal {\n        if (!hasBorrowedToken(account, borrowToken)) {\n            account.borrowTokens.push(borrowToken);\n            account.borrowedYieldQuotientsFP[borrowToken] = Lending(lending())\n                .viewBorrowingYield(borrowToken);\n        } else {\n            account.borrowed[borrowToken] = Lending(lending())\n                .applyBorrowInterest(account.borrowed[borrowToken],\n                                     borrowToken,\n                                     account.borrowedYieldQuotientsFP[borrowToken]);\n        }\n        account.borrowed[borrowToken] += borrowAmount;\n        addHolding(account, borrowToken, borrowAmount);\n\n        require(positiveBalance(account),\n                \"Can't borrow: insufficient balance\");\n    }\n\n\n    function registerWithdrawal(address trader, address withdrawToken, uint withdrawAmount) external {\n        require(isMarginTrader(msg.sender), \"Calling contract not authorized to deposit\");\n        MarginAccount storage account = marginAccounts[trader];\n\n        // SafeMath throws on underflow \n        account.holdings[withdrawToken] = account.holdings[withdrawToken].sub(withdrawAmount);\n        require(positiveBalance(account),\n                \"Account balance is too low to withdraw\");\n    }\n\n    function positiveBalance(MarginAccount storage account) internal returns (bool) {\n        uint loan = loanInETH(account);\n        uint holdings = holdingsInETH(account);\n        // The following condition should hold:\n        // holdings / loan >= (leverage + 1) / leverage\n        // =>\n        return holdings * (leverage + 1) >= loan * leverage;\n    }\n\n    function registerPayOff(address trader, address debtToken, uint extinguishAmount) external {\n        require(isMarginTrader(msg.sender), \"Calling contract not authorized to deposit\");\n        extinguishDebt(marginAccounts[trader], debtToken, extinguishAmount);\n    }\n\n    function extinguishDebt(MarginAccount storage account,\n                            address debtToken,\n                            uint extinguishAmount) internal {\n        // SafeMath will throw if insufficient funds\n        account.borrowed[debtToken] = Lending(lending())\n            .applyBorrowInterest(account.borrowed[debtToken],\n                                 debtToken,\n                                 account.borrowedYieldQuotientsFP[debtToken]);\n        account.borrowed[debtToken] = account.borrowed[debtToken].sub(extinguishAmount);\n        account.holdings[debtToken] = account.holdings[debtToken].sub(extinguishAmount);\n    }\n\n    function hasHoldingToken(MarginAccount storage account, address token) internal view returns (bool) {\n        return account.holdsToken[token];\n    }\n\n    function hasBorrowedToken(MarginAccount storage account, address token) internal view returns (bool) {\n        return account.borrowedYieldQuotientsFP[token] > 0;\n    }\n    \n    function loanInETH(MarginAccount storage account) internal returns (uint) {\n        return sumTokensInETHWithYield(account.borrowTokens,\n                                       account.borrowed,\n                                       account.borrowedYieldQuotientsFP);\n    }\n\n    function holdingsInETH(MarginAccount storage account) internal view returns (uint) {\n        return sumTokensInETH(account.holdingTokens, account.holdings);\n    }\n\n    function marginCallable(MarginAccount storage account) internal returns (bool) {\n        uint loan = loanInETH(account);\n        uint holdings = holdingsInETH(account);\n        // The following should hold:\n        // holdings / loan >= (leverage + liquidationThresholdPercent / 100) / leverage\n        // =>\n        return holdings * leverage * 100 >= (100 * leverage + liquidationThresholdPercent) * loan;\n    }\n\n    function canBorrow(MarginAccount storage account, address token, uint amount)\n        internal view returns (bool) {\n        return account.holdings[token] >= amount;\n    }\n\n    function getTradeBorrowAmount(address trader, address token, uint amount)\n        external returns (uint borrowAmount) {\n        require(isMarginTrader(msg.sender), \"Calling contract is not an authorized margin trader\");\n        MarginAccount storage account = marginAccounts[trader];\n        borrowAmount = amount - account.holdings[token];\n        require(canBorrow(account, token, borrowAmount), \"Can't borrow full amount\");\n    }\n\n    function registerTradeAndBorrow(address trader,\n                                    address tokenFrom,\n                                    address tokenTo,\n                                    uint inAmount,\n                                    uint outAmount) external returns (uint borrowAmount) {\n        require(isMarginTrader(msg.sender), \"Calling contract is not an authorized margin trader agent\");\n\n        MarginAccount storage account = marginAccounts[trader];\n        uint sellAmount = inAmount;\n        if (inAmount > account.holdings[tokenFrom]) {\n            sellAmount = account.holdings[tokenFrom];\n            borrowAmount =  inAmount - sellAmount;\n            borrow(account, tokenFrom, borrowAmount);\n        }\n        adjustAmounts(account, tokenFrom, tokenTo, sellAmount, outAmount);\n    }\n\n    function sellPath(address sourceToken, address targetToken)\n        internal view returns (address[] memory) {\n        if (targetToken == WETH || sourceToken == WETH) {\n            // TODO both source and target the same?\n            address[] memory path = new address[](2);\n            path[0] = sourceToken;\n            path[1] = targetToken;\n            return path;\n        } else {\n            address[] memory path = new address[](3);\n            path[0] = sourceToken;\n            path[1] = WETH;\n            path[2] = targetToken;\n            return path;\n        }\n    }\n\n    function spotConversionAmount(address inToken, address outToken, uint inAmount)\n        internal returns (uint) {\n        address[] memory path = sellPath(inToken, outToken);\n        uint[] memory pathAmounts = MarginRouter(router()).getAmountsOut(AMM.uni, inAmount, path);\n        return pathAmounts[pathAmounts.length - 1];\n    }\n\n    function ethSpotPrice(address token, uint amount)\n        internal view returns (uint) {\n        if (token == WETH) {\n            return 1;\n        } else {\n            address[] memory path = new address[](2);\n            path[0] = token;\n            path[1] = WETH;\n            uint[] memory pathAmounts = MarginRouter(router()).getAmountsOut(AMM.uni, amount, path);\n            return pathAmounts[pathAmounts.length - 1];\n        }\n    }\n\n    function sumTokensInETH(address[] storage tokens, mapping(address => uint) storage amounts)\n        internal view returns (uint totalETH) {\n        for (uint tokenId = 0; tokenId < tokens.length; tokenId++) {\n            address token = tokens[tokenId];\n            totalETH += ethSpotPrice(token, amounts[token]);\n        }\n    }\n    \n    function sumTokensInETHWithYield(address[] storage tokens,\n                                     mapping(address => uint) storage amounts,\n                                     mapping(address => uint) storage yieldQuotientsFP)\n        internal returns (uint totalETH) {\n        for (uint tokenId = 0; tokenId < tokens.length; tokenId++) {\n            address token = tokens[tokenId];\n            uint yield = Lending(lending()).viewBorrowingYield(token);\n            // 1 * FP / FP = 1\n            uint amountInToken = (amounts[token] * yield) / yieldQuotientsFP[token];\n            totalETH += ethSpotPrice(token, amountInToken);\n        }\n    }\n\n    function adjustAmounts(MarginAccount storage account,\n                           address fromToken,\n                           address toToken,\n                           uint soldAmount,\n                           uint boughtAmount) internal {\n        account.holdings[fromToken] = account.holdings[fromToken].sub(soldAmount);\n        addHolding(account, toToken, boughtAmount);\n    }\n           \n\n    function min(uint a, uint b) internal returns (uint) {\n        if (a > b) {\n            return b;\n        } else {\n            return a;\n        }\n    }\n}\n",
  "sourcePath": "/home/tixelbook/projects/marginswap-core/contracts/MarginTrading.sol",
  "compiler": {
    "name": "solc",
    "version": "0.7.0+commit.9e61f92b.Emscripten.clang"
  },
  "schemaVersion": "3.3.3",
  "updatedAt": "2021-02-10T00:46:33.552Z",
  "devdoc": {
    "kind": "dev",
    "methods": {
      "owner()": {
        "details": "Returns the address of the current owner."
      },
      "renounceOwnership()": {
        "details": "Leaves the contract without owner. It will not be possible to call `onlyOwner` functions anymore. Can only be called by the current owner. NOTE: Renouncing ownership will leave the contract without an owner, thereby removing any functionality that is only available to the owner."
      },
      "transferOwnership(address)": {
        "details": "Transfers ownership of the contract to a new account (`newOwner`). Can only be called by the current owner."
      }
    },
    "version": 1
  },
  "userdoc": {
    "kind": "user",
    "methods": {},
    "version": 1
  }
}