{
  "contractName": "MarginRouter",
  "abi": [
    {
      "inputs": [
        {
          "internalType": "address",
          "name": "uniswapFactory",
          "type": "address"
        },
        {
          "internalType": "address",
          "name": "sushiswapFactory",
          "type": "address"
        },
        {
          "internalType": "address",
          "name": "_WETH",
          "type": "address"
        },
        {
          "internalType": "address",
          "name": "_roles",
          "type": "address"
        }
      ],
      "stateMutability": "nonpayable",
      "type": "constructor"
    },
    {
      "inputs": [],
      "name": "roles",
      "outputs": [
        {
          "internalType": "contract Roles",
          "name": "",
          "type": "address"
        }
      ],
      "stateMutability": "view",
      "type": "function"
    },
    {
      "inputs": [
        {
          "internalType": "address",
          "name": "depositToken",
          "type": "address"
        },
        {
          "internalType": "uint256",
          "name": "depositAmount",
          "type": "uint256"
        }
      ],
      "name": "deposit",
      "outputs": [],
      "stateMutability": "nonpayable",
      "type": "function"
    },
    {
      "inputs": [],
      "name": "depositETH",
      "outputs": [],
      "stateMutability": "payable",
      "type": "function"
    },
    {
      "inputs": [
        {
          "internalType": "address",
          "name": "withdrawToken",
          "type": "address"
        },
        {
          "internalType": "uint256",
          "name": "withdrawAmount",
          "type": "uint256"
        }
      ],
      "name": "withdraw",
      "outputs": [],
      "stateMutability": "nonpayable",
      "type": "function"
    },
    {
      "inputs": [
        {
          "internalType": "uint256",
          "name": "withdrawAmount",
          "type": "uint256"
        }
      ],
      "name": "withdrawETH",
      "outputs": [],
      "stateMutability": "nonpayable",
      "type": "function"
    },
    {
      "inputs": [
        {
          "internalType": "address",
          "name": "borrowToken",
          "type": "address"
        },
        {
          "internalType": "uint256",
          "name": "borrowAmount",
          "type": "uint256"
        }
      ],
      "name": "borrow",
      "outputs": [],
      "stateMutability": "nonpayable",
      "type": "function"
    },
    {
      "inputs": [
        {
          "internalType": "address",
          "name": "debtToken",
          "type": "address"
        },
        {
          "internalType": "uint256",
          "name": "extinguishAmount",
          "type": "uint256"
        }
      ],
      "name": "extinguishDebt",
      "outputs": [],
      "stateMutability": "nonpayable",
      "type": "function"
    },
    {
      "inputs": [
        {
          "internalType": "enum AMM",
          "name": "amm",
          "type": "uint8"
        },
        {
          "internalType": "uint256",
          "name": "amountIn",
          "type": "uint256"
        },
        {
          "internalType": "uint256",
          "name": "amountOutMin",
          "type": "uint256"
        },
        {
          "internalType": "address[]",
          "name": "path",
          "type": "address[]"
        },
        {
          "internalType": "uint256",
          "name": "deadline",
          "type": "uint256"
        }
      ],
      "name": "swapExactTokensForTokens",
      "outputs": [
        {
          "internalType": "uint256[]",
          "name": "amounts",
          "type": "uint256[]"
        }
      ],
      "stateMutability": "nonpayable",
      "type": "function"
    },
    {
      "inputs": [
        {
          "internalType": "enum AMM",
          "name": "amm",
          "type": "uint8"
        },
        {
          "internalType": "uint256",
          "name": "amountOut",
          "type": "uint256"
        },
        {
          "internalType": "uint256",
          "name": "amountInMax",
          "type": "uint256"
        },
        {
          "internalType": "address[]",
          "name": "path",
          "type": "address[]"
        },
        {
          "internalType": "uint256",
          "name": "deadline",
          "type": "uint256"
        }
      ],
      "name": "swapTokensForExactTokens",
      "outputs": [
        {
          "internalType": "uint256[]",
          "name": "amounts",
          "type": "uint256[]"
        }
      ],
      "stateMutability": "nonpayable",
      "type": "function"
    },
    {
      "inputs": [
        {
          "internalType": "enum AMM",
          "name": "amm",
          "type": "uint8"
        },
        {
          "internalType": "uint256",
          "name": "inAmount",
          "type": "uint256"
        },
        {
          "internalType": "address[]",
          "name": "path",
          "type": "address[]"
        }
      ],
      "name": "getAmountsOut",
      "outputs": [
        {
          "internalType": "uint256[]",
          "name": "",
          "type": "uint256[]"
        }
      ],
      "stateMutability": "view",
      "type": "function"
    }
  ],
  "bytecode": "0x60806040523480156200001157600080fd5b506040516200329138038062003291833981810160405260808110156200003757600080fd5b810190808051906020019092919080519060200190929190805190602001909291908051906020019092919050505080806000806101000a81548173ffffffffffffffffffffffffffffffffffffffff021916908373ffffffffffffffffffffffffffffffffffffffff160217905550508360016000806003811115620000ba57fe5b6003811115620000c657fe5b815260200190815260200160002060006101000a81548173ffffffffffffffffffffffffffffffffffffffff021916908373ffffffffffffffffffffffffffffffffffffffff1602179055508260016000600160038111156200012557fe5b60038111156200013157fe5b815260200190815260200160002060006101000a81548173ffffffffffffffffffffffffffffffffffffffff021916908373ffffffffffffffffffffffffffffffffffffffff16021790555081600260006101000a81548173ffffffffffffffffffffffffffffffffffffffff021916908373ffffffffffffffffffffffffffffffffffffffff160217905550505050506130bf80620001d26000396000f3fe6080604052600436106100915760003560e01c8063c61b854c11610059578063c61b854c14610399578063eaa095f8146103f4578063f14210a6146104e6578063f3fef3a314610521578063f6326fb31461057c57610091565b80630195a42214610096578063392f5f641461019c57806347e7ef24146101dd5780634b8a352914610238578063b99c3d7d14610293575b600080fd5b3480156100a257600080fd5b50610145600480360360a08110156100b957600080fd5b81019080803560ff1690602001909291908035906020019092919080359060200190929190803590602001906401000000008111156100f757600080fd5b82018360208201111561010957600080fd5b8035906020019184602083028401116401000000008311171561012b57600080fd5b909192939192939080359060200190929190505050610586565b6040518080602001828103825283818151815260200191508051906020019060200280838360005b8381101561018857808201518184015260208101905061016d565b505050509050019250505060405180910390f35b3480156101a857600080fd5b506101b16108d4565b604051808273ffffffffffffffffffffffffffffffffffffffff16815260200191505060405180910390f35b3480156101e957600080fd5b506102366004803603604081101561020057600080fd5b81019080803573ffffffffffffffffffffffffffffffffffffffff169060200190929190803590602001909291905050506108f8565b005b34801561024457600080fd5b506102916004803603604081101561025b57600080fd5b81019080803573ffffffffffffffffffffffffffffffffffffffff16906020019092919080359060200190929190505050610c40565b005b34801561029f57600080fd5b50610342600480360360a08110156102b657600080fd5b81019080803560ff1690602001909291908035906020019092919080359060200190929190803590602001906401000000008111156102f457600080fd5b82018360208201111561030657600080fd5b8035906020019184602083028401116401000000008311171561032857600080fd5b909192939192939080359060200190929190505050610d82565b6040518080602001828103825283818151815260200191508051906020019060200280838360005b8381101561038557808201518184015260208101905061036a565b505050509050019250505060405180910390f35b3480156103a557600080fd5b506103f2600480360360408110156103bc57600080fd5b81019080803573ffffffffffffffffffffffffffffffffffffffff169060200190929190803590602001909291905050506110d2565b005b34801561040057600080fd5b5061048f6004803603606081101561041757600080fd5b81019080803560ff169060200190929190803590602001909291908035906020019064010000000081111561044b57600080fd5b82018360208201111561045d57600080fd5b8035906020019184602083028401116401000000008311171561047f57600080fd5b9091929391929390505050611214565b6040518080602001828103825283818151815260200191508051906020019060200280838360005b838110156104d25780820151818401526020810190506104b7565b505050509050019250505060405180910390f35b3480156104f257600080fd5b5061051f6004803603602081101561050957600080fd5b81019080803590602001909291905050506112bb565b005b34801561052d57600080fd5b5061057a6004803603604081101561054457600080fd5b81019080803573ffffffffffffffffffffffffffffffffffffffff1690602001909291908035906020019092919050505061141e565b005b610584611613565b005b60606000610592611901565b73ffffffffffffffffffffffffffffffffffffffff16633f0e9edf868660008181106105ba57fe5b9050602002013573ffffffffffffffffffffffffffffffffffffffff16896040518363ffffffff1660e01b8152600401808373ffffffffffffffffffffffffffffffffffffffff16815260200182815260200192505050602060405180830381600087803b15801561062b57600080fd5b505af115801561063f573d6000803e3d6000fd5b505050506040513d602081101561065557600080fd5b810190808051906020019092919050505090506000600160008a600381111561067a57fe5b600381111561068557fe5b815260200190815260200160002060009054906101000a900473ffffffffffffffffffffffffffffffffffffffff1690506106c681838a03898989896119b9565b925060008686600189899050038181106106dc57fe5b9050602002013573ffffffffffffffffffffffffffffffffffffffff1690506000610705611c96565b73ffffffffffffffffffffffffffffffffffffffff16633500aa0b338a8a600081811061072e57fe5b9050602002013573ffffffffffffffffffffffffffffffffffffffff16858e8a60018c51038151811061075d57fe5b60200260200101516040518663ffffffff1660e01b8152600401808673ffffffffffffffffffffffffffffffffffffffff1681526020018573ffffffffffffffffffffffffffffffffffffffff1681526020018473ffffffffffffffffffffffffffffffffffffffff16815260200183815260200182815260200195505050505050602060405180830381600087803b1580156107f957600080fd5b505af115801561080d573d6000803e3d6000fd5b505050506040513d602081101561082357600080fd5b8101908080519060200190929190505050905061083e611d4e565b73ffffffffffffffffffffffffffffffffffffffff1663ee0862bf83836040518363ffffffff1660e01b8152600401808373ffffffffffffffffffffffffffffffffffffffff16815260200182815260200192505050600060405180830381600087803b1580156108ae57600080fd5b505af11580156108c2573d6000803e3d6000fd5b50505050505050509695505050505050565b60008054906101000a900473ffffffffffffffffffffffffffffffffffffffff1681565b610900611e06565b73ffffffffffffffffffffffffffffffffffffffff1663b3db428b3384846040518463ffffffff1660e01b8152600401808473ffffffffffffffffffffffffffffffffffffffff1681526020018373ffffffffffffffffffffffffffffffffffffffff1681526020018281526020019350505050602060405180830381600087803b15801561098e57600080fd5b505af11580156109a2573d6000803e3d6000fd5b505050506040513d60208110156109b857600080fd5b8101908080519060200190929190505050610a1e576040517f08c379a0000000000000000000000000000000000000000000000000000000008152600401808060200182810382526029815260200180612fe76029913960400191505060405180910390fd5b6000610a28611c96565b73ffffffffffffffffffffffffffffffffffffffff166352a664d93385856040518463ffffffff1660e01b8152600401808473ffffffffffffffffffffffffffffffffffffffff1681526020018373ffffffffffffffffffffffffffffffffffffffff1681526020018281526020019350505050602060405180830381600087803b158015610ab657600080fd5b505af1158015610aca573d6000803e3d6000fd5b505050506040513d6020811015610ae057600080fd5b810190808051906020019092919050505090506000811115610c3b57610b04611c96565b73ffffffffffffffffffffffffffffffffffffffff1663b25777ad3385846040518463ffffffff1660e01b8152600401808473ffffffffffffffffffffffffffffffffffffffff1681526020018373ffffffffffffffffffffffffffffffffffffffff1681526020018281526020019350505050600060405180830381600087803b158015610b9257600080fd5b505af1158015610ba6573d6000803e3d6000fd5b50505050610bb2611d4e565b73ffffffffffffffffffffffffffffffffffffffff16632a6a897b84836040518363ffffffff1660e01b8152600401808373ffffffffffffffffffffffffffffffffffffffff16815260200182815260200192505050600060405180830381600087803b158015610c2257600080fd5b505af1158015610c36573d6000803e3d6000fd5b505050505b505050565b610c48611d4e565b73ffffffffffffffffffffffffffffffffffffffff1663ee0862bf83836040518363ffffffff1660e01b8152600401808373ffffffffffffffffffffffffffffffffffffffff16815260200182815260200192505050600060405180830381600087803b158015610cb857600080fd5b505af1158015610ccc573d6000803e3d6000fd5b50505050610cd8611c96565b73ffffffffffffffffffffffffffffffffffffffff1663498d55eb3384846040518463ffffffff1660e01b8152600401808473ffffffffffffffffffffffffffffffffffffffff1681526020018373ffffffffffffffffffffffffffffffffffffffff1681526020018281526020019350505050600060405180830381600087803b158015610d6657600080fd5b505af1158015610d7a573d6000803e3d6000fd5b505050505050565b60606000610d8e611901565b73ffffffffffffffffffffffffffffffffffffffff166367cbf42d868660018989905003818110610dbb57fe5b9050602002013573ffffffffffffffffffffffffffffffffffffffff16896040518363ffffffff1660e01b8152600401808373ffffffffffffffffffffffffffffffffffffffff16815260200182815260200192505050602060405180830381600087803b158015610e2c57600080fd5b505af1158015610e40573d6000803e3d6000fd5b505050506040513d6020811015610e5657600080fd5b810190808051906020019092919050505090506000600160008a6003811115610e7b57fe5b6003811115610e8657fe5b815260200190815260200160002060009054906101000a900473ffffffffffffffffffffffffffffffffffffffff169050610ec781838a0189898989611ebe565b92506000868660018989905003818110610edd57fe5b9050602002013573ffffffffffffffffffffffffffffffffffffffff1690506000610f06611c96565b73ffffffffffffffffffffffffffffffffffffffff16633500aa0b338a8a6000818110610f2f57fe5b9050602002013573ffffffffffffffffffffffffffffffffffffffff168589600081518110610f5a57fe5b60200260200101518f6040518663ffffffff1660e01b8152600401808673ffffffffffffffffffffffffffffffffffffffff1681526020018573ffffffffffffffffffffffffffffffffffffffff1681526020018473ffffffffffffffffffffffffffffffffffffffff16815260200183815260200182815260200195505050505050602060405180830381600087803b158015610ff757600080fd5b505af115801561100b573d6000803e3d6000fd5b505050506040513d602081101561102157600080fd5b8101908080519060200190929190505050905061103c611d4e565b73ffffffffffffffffffffffffffffffffffffffff1663ee0862bf83836040518363ffffffff1660e01b8152600401808373ffffffffffffffffffffffffffffffffffffffff16815260200182815260200192505050600060405180830381600087803b1580156110ac57600080fd5b505af11580156110c0573d6000803e3d6000fd5b50505050505050509695505050505050565b6110da611c96565b73ffffffffffffffffffffffffffffffffffffffff1663b25777ad3384846040518463ffffffff1660e01b8152600401808473ffffffffffffffffffffffffffffffffffffffff1681526020018373ffffffffffffffffffffffffffffffffffffffff1681526020018281526020019350505050600060405180830381600087803b15801561116857600080fd5b505af115801561117c573d6000803e3d6000fd5b50505050611188611d4e565b73ffffffffffffffffffffffffffffffffffffffff16632a6a897b83836040518363ffffffff1660e01b8152600401808373ffffffffffffffffffffffffffffffffffffffff16815260200182815260200192505050600060405180830381600087803b1580156111f857600080fd5b505af115801561120c573d6000803e3d6000fd5b505050505050565b606060006001600087600381111561122857fe5b600381111561123357fe5b815260200190815260200160002060009054906101000a900473ffffffffffffffffffffffffffffffffffffffff1690506112b08186868680806020026020016040519081016040528093929190818152602001838360200280828437600081840152601f19601f82011690508083019250505050505050612198565b915050949350505050565b6112c3611c96565b73ffffffffffffffffffffffffffffffffffffffff1663d0eb665333600260009054906101000a900473ffffffffffffffffffffffffffffffffffffffff16846040518463ffffffff1660e01b8152600401808473ffffffffffffffffffffffffffffffffffffffff1681526020018373ffffffffffffffffffffffffffffffffffffffff1681526020018281526020019350505050600060405180830381600087803b15801561137357600080fd5b505af1158015611387573d6000803e3d6000fd5b50505050611393611e06565b73ffffffffffffffffffffffffffffffffffffffff16634782f77933836040518363ffffffff1660e01b8152600401808373ffffffffffffffffffffffffffffffffffffffff16815260200182815260200192505050600060405180830381600087803b15801561140357600080fd5b505af1158015611417573d6000803e3d6000fd5b5050505050565b611426611c96565b73ffffffffffffffffffffffffffffffffffffffff1663d0eb66533384846040518463ffffffff1660e01b8152600401808473ffffffffffffffffffffffffffffffffffffffff1681526020018373ffffffffffffffffffffffffffffffffffffffff1681526020018281526020019350505050600060405180830381600087803b1580156114b457600080fd5b505af11580156114c8573d6000803e3d6000fd5b505050506114d4611e06565b73ffffffffffffffffffffffffffffffffffffffff1663d9caed128333846040518463ffffffff1660e01b8152600401808473ffffffffffffffffffffffffffffffffffffffff1681526020018373ffffffffffffffffffffffffffffffffffffffff1681526020018281526020019350505050602060405180830381600087803b15801561156257600080fd5b505af1158015611576573d6000803e3d6000fd5b505050506040513d602081101561158c57600080fd5b810190808051906020019092919050505061160f576040517f08c379a000000000000000000000000000000000000000000000000000000000815260040180806020018281038252601c8152602001807f436f756c64206e6f742077697468647261772066726f6d2066756e640000000081525060200191505060405180910390fd5b5050565b61161b611e06565b73ffffffffffffffffffffffffffffffffffffffff1663a6a5f9fe346040518263ffffffff1660e01b81526004016000604051808303818588803b15801561166257600080fd5b505af1158015611676573d6000803e3d6000fd5b50505050506000611685611c96565b73ffffffffffffffffffffffffffffffffffffffff166352a664d933600260009054906101000a900473ffffffffffffffffffffffffffffffffffffffff16346040518463ffffffff1660e01b8152600401808473ffffffffffffffffffffffffffffffffffffffff1681526020018373ffffffffffffffffffffffffffffffffffffffff1681526020018281526020019350505050602060405180830381600087803b15801561173557600080fd5b505af1158015611749573d6000803e3d6000fd5b505050506040513d602081101561175f57600080fd5b8101908080519060200190929190505050905060008111156118fe57611783611c96565b73ffffffffffffffffffffffffffffffffffffffff1663b25777ad33600260009054906101000a900473ffffffffffffffffffffffffffffffffffffffff16846040518463ffffffff1660e01b8152600401808473ffffffffffffffffffffffffffffffffffffffff1681526020018373ffffffffffffffffffffffffffffffffffffffff1681526020018281526020019350505050600060405180830381600087803b15801561183357600080fd5b505af1158015611847573d6000803e3d6000fd5b50505050611853611d4e565b73ffffffffffffffffffffffffffffffffffffffff16632a6a897b600260009054906101000a900473ffffffffffffffffffffffffffffffffffffffff16836040518363ffffffff1660e01b8152600401808373ffffffffffffffffffffffffffffffffffffffff16815260200182815260200192505050600060405180830381600087803b1580156118e557600080fd5b505af11580156118f9573d6000803e3d6000fd5b505050505b50565b60008060009054906101000a900473ffffffffffffffffffffffffffffffffffffffff1673ffffffffffffffffffffffffffffffffffffffff166336214c7860056040518263ffffffff1660e01b8152600401808260ff16815260200191505060206040518083038186803b15801561197957600080fd5b505afa15801561198d573d6000803e3d6000fd5b505050506040513d60208110156119a357600080fd5b8101908080519060200190929190505050905090565b6060611a078787868680806020026020016040519081016040528093929190818152602001838360200280828437600081840152601f19601f82011690508083019250505050505050612198565b90508481600183510381518110611a1a57fe5b60200260200101511015611a79576040517f08c379a00000000000000000000000000000000000000000000000000000000081526004018080602001828103825260288152602001806130626028913960400191505060405180910390fd5b611a81611e06565b73ffffffffffffffffffffffffffffffffffffffff1663e1a2f31585856000818110611aa957fe5b9050602002013573ffffffffffffffffffffffffffffffffffffffff16611b238a88886000818110611ad757fe5b9050602002013573ffffffffffffffffffffffffffffffffffffffff1689896001818110611b0157fe5b9050602002013573ffffffffffffffffffffffffffffffffffffffff16612310565b84600081518110611b3057fe5b60200260200101516040518463ffffffff1660e01b8152600401808473ffffffffffffffffffffffffffffffffffffffff1681526020018373ffffffffffffffffffffffffffffffffffffffff1681526020018281526020019350505050602060405180830381600087803b158015611ba857600080fd5b505af1158015611bbc573d6000803e3d6000fd5b505050506040513d6020811015611bd257600080fd5b8101908080519060200190929190505050611c38576040517f08c379a0000000000000000000000000000000000000000000000000000000008152600401808060200182810382526028815260200180612f766028913960400191505060405180910390fd5b611c8c8782868680806020026020016040519081016040528093929190818152602001838360200280828437600081840152601f19601f82011690508083019250505050505050611c87611e06565b612429565b9695505050505050565b60008060009054906101000a900473ffffffffffffffffffffffffffffffffffffffff1673ffffffffffffffffffffffffffffffffffffffff166336214c7860046040518263ffffffff1660e01b8152600401808260ff16815260200191505060206040518083038186803b158015611d0e57600080fd5b505afa158015611d22573d6000803e3d6000fd5b505050506040513d6020811015611d3857600080fd5b8101908080519060200190929190505050905090565b60008060009054906101000a900473ffffffffffffffffffffffffffffffffffffffff1673ffffffffffffffffffffffffffffffffffffffff166336214c7860026040518263ffffffff1660e01b8152600401808260ff16815260200191505060206040518083038186803b158015611dc657600080fd5b505afa158015611dda573d6000803e3d6000fd5b505050506040513d6020811015611df057600080fd5b8101908080519060200190929190505050905090565b60008060009054906101000a900473ffffffffffffffffffffffffffffffffffffffff1673ffffffffffffffffffffffffffffffffffffffff166336214c7860016040518263ffffffff1660e01b8152600401808260ff16815260200191505060206040518083038186803b158015611e7e57600080fd5b505afa158015611e92573d6000803e3d6000fd5b505050506040513d6020811015611ea857600080fd5b8101908080519060200190929190505050905090565b6060611f0c8787868680806020026020016040519081016040528093929190818152602001838360200280828437600081840152601f19601f8201169050808301925050505050505061267f565b90508481600081518110611f1c57fe5b60200260200101511115611f7b576040517f08c379a00000000000000000000000000000000000000000000000000000000081526004018080602001828103825260278152602001806130106027913960400191505060405180910390fd5b611f83611e06565b73ffffffffffffffffffffffffffffffffffffffff1663e1a2f31585856000818110611fab57fe5b9050602002013573ffffffffffffffffffffffffffffffffffffffff166120258a88886000818110611fd957fe5b9050602002013573ffffffffffffffffffffffffffffffffffffffff168989600181811061200357fe5b9050602002013573ffffffffffffffffffffffffffffffffffffffff16612310565b8460008151811061203257fe5b60200260200101516040518463ffffffff1660e01b8152600401808473ffffffffffffffffffffffffffffffffffffffff1681526020018373ffffffffffffffffffffffffffffffffffffffff1681526020018281526020019350505050602060405180830381600087803b1580156120aa57600080fd5b505af11580156120be573d6000803e3d6000fd5b505050506040513d60208110156120d457600080fd5b810190808051906020019092919050505061213a576040517f08c379a0000000000000000000000000000000000000000000000000000000008152600401808060200182810382526028815260200180612f766028913960400191505060405180910390fd5b61218e8782868680806020026020016040519081016040528093929190818152602001838360200280828437600081840152601f19601f82011690508083019250505050505050612189611e06565b612429565b9695505050505050565b6060600282511015612212576040517f08c379a000000000000000000000000000000000000000000000000000000000815260040180806020018281038252601e8152602001807f556e697377617056324c6962726172793a20494e56414c49445f50415448000081525060200191505060405180910390fd5b815167ffffffffffffffff8111801561222a57600080fd5b506040519080825280602002602001820160405280156122595781602001602082028036833780820191505090505b509050828160008151811061226a57fe5b60200260200101818152505060005b6001835103811015612308576000806122bc8786858151811061229857fe5b60200260200101518760018701815181106122af57fe5b60200260200101516127ff565b915091506122de8484815181106122cf57fe5b60200260200101518383612928565b8460018501815181106122ed57fe5b60200260200101818152505050508080600101915050612279565b509392505050565b600080600061231f8585612a58565b91509150858282604051602001808373ffffffffffffffffffffffffffffffffffffffff1660601b81526014018273ffffffffffffffffffffffffffffffffffffffff1660601b8152601401925050506040516020818303038152906040528051906020012060405160200180807fff000000000000000000000000000000000000000000000000000000000000008152506001018373ffffffffffffffffffffffffffffffffffffffff1660601b8152601401828152602001807f96e8ac4277198ff8b6f785478aa9a39f403cb768dd02cbee326c3e7da348845f815250602001925050506040516020818303038152906040528051906020012060001c925050509392505050565b60005b60018351038110156126785760008084838151811061244757fe5b602002602001015185600185018151811061245e57fe5b60200260200101519150915060006124768383612a58565b509050600087600186018151811061248a57fe5b602002602001015190506000808373ffffffffffffffffffffffffffffffffffffffff168673ffffffffffffffffffffffffffffffffffffffff16146124d2578260006124d6565b6000835b91509150600060028a510388106124ed578861250f565b61250e8c878c60028c018151811061250157fe5b6020026020010151612310565b5b905061251c8c8888612310565b73ffffffffffffffffffffffffffffffffffffffff1663022c0d9f848484600067ffffffffffffffff8111801561255257600080fd5b506040519080825280601f01601f1916602001820160405280156125855781602001600182028036833780820191505090505b506040518563ffffffff1660e01b8152600401808581526020018481526020018373ffffffffffffffffffffffffffffffffffffffff16815260200180602001828103825283818151815260200191508051906020019080838360005b838110156125fd5780820151818401526020810190506125e2565b50505050905090810190601f16801561262a5780820380516001836020036101000a031916815260200191505b5095505050505050600060405180830381600087803b15801561264c57600080fd5b505af1158015612660573d6000803e3d6000fd5b5050505050505050505050808060010191505061242c565b5050505050565b60606002825110156126f9576040517f08c379a000000000000000000000000000000000000000000000000000000000815260040180806020018281038252601e8152602001807f556e697377617056324c6962726172793a20494e56414c49445f50415448000081525060200191505060405180910390fd5b815167ffffffffffffffff8111801561271157600080fd5b506040519080825280602002602001820160405280156127405781602001602082028036833780820191505090505b509050828160018351038151811061275457fe5b6020026020010181815250506000600183510390505b60008111156127f7576000806127aa8786600186038151811061278957fe5b602002602001015187868151811061279d57fe5b60200260200101516127ff565b915091506127cc8484815181106127bd57fe5b60200260200101518383612bcf565b8460018503815181106127db57fe5b602002602001018181525050505080806001900391505061276a565b509392505050565b600080600061280e8585612a58565b50905060008061281f888888612310565b73ffffffffffffffffffffffffffffffffffffffff16630902f1ac6040518163ffffffff1660e01b815260040160606040518083038186803b15801561286457600080fd5b505afa158015612878573d6000803e3d6000fd5b505050506040513d606081101561288e57600080fd5b81019080805190602001909291908051906020019092919080519060200190929190505050506dffffffffffffffffffffffffffff1691506dffffffffffffffffffffffffffff1691508273ffffffffffffffffffffffffffffffffffffffff168773ffffffffffffffffffffffffffffffffffffffff1614612912578082612915565b81815b8095508196505050505050935093915050565b6000808411612982576040517f08c379a000000000000000000000000000000000000000000000000000000000815260040180806020018281038252602b815260200180613037602b913960400191505060405180910390fd5b6000831180156129925750600082115b6129e7576040517f08c379a0000000000000000000000000000000000000000000000000000000008152600401808060200182810382526028815260200180612f9e6028913960400191505060405180910390fd5b60006129fe6103e586612d0c90919063ffffffff16565b90506000612a158483612d0c90919063ffffffff16565b90506000612a4083612a326103e889612d0c90919063ffffffff16565b612d9290919063ffffffff16565b9050808281612a4b57fe5b0493505050509392505050565b6000808273ffffffffffffffffffffffffffffffffffffffff168473ffffffffffffffffffffffffffffffffffffffff161415612ae0576040517f08c379a0000000000000000000000000000000000000000000000000000000008152600401808060200182810382526025815260200180612f516025913960400191505060405180910390fd5b8273ffffffffffffffffffffffffffffffffffffffff168473ffffffffffffffffffffffffffffffffffffffff1610612b1a578284612b1d565b83835b8092508193505050600073ffffffffffffffffffffffffffffffffffffffff168273ffffffffffffffffffffffffffffffffffffffff161415612bc8576040517f08c379a000000000000000000000000000000000000000000000000000000000815260040180806020018281038252601e8152602001807f556e697377617056324c6962726172793a205a45524f5f41444452455353000081525060200191505060405180910390fd5b9250929050565b6000808411612c29576040517f08c379a000000000000000000000000000000000000000000000000000000000815260040180806020018281038252602c815260200180612f25602c913960400191505060405180910390fd5b600083118015612c395750600082115b612c8e576040517f08c379a0000000000000000000000000000000000000000000000000000000008152600401808060200182810382526028815260200180612f9e6028913960400191505060405180910390fd5b6000612cb76103e8612ca98787612d0c90919063ffffffff16565b612d0c90919063ffffffff16565b90506000612ce26103e5612cd48887612e1a90919063ffffffff16565b612d0c90919063ffffffff16565b9050612d016001828481612cf257fe5b04612d9290919063ffffffff16565b925050509392505050565b600080831415612d1f5760009050612d8c565b6000828402905082848281612d3057fe5b0414612d87576040517f08c379a0000000000000000000000000000000000000000000000000000000008152600401808060200182810382526021815260200180612fc66021913960400191505060405180910390fd5b809150505b92915050565b600080828401905083811015612e10576040517f08c379a000000000000000000000000000000000000000000000000000000000815260040180806020018281038252601b8152602001807f536166654d6174683a206164646974696f6e206f766572666c6f77000000000081525060200191505060405180910390fd5b8091505092915050565b6000612e5c83836040518060400160405280601e81526020017f536166654d6174683a207375627472616374696f6e206f766572666c6f770000815250612e64565b905092915050565b6000838311158290612f11576040517f08c379a00000000000000000000000000000000000000000000000000000000081526004018080602001828103825283818151815260200191508051906020019080838360005b83811015612ed6578082015181840152602081019050612ebb565b50505050905090810190601f168015612f035780820380516001836020036101000a031916815260200191505b509250505060405180910390fd5b506000838503905080915050939250505056fe556e697377617056324c6962726172793a20494e53554646494349454e545f4f55545055545f414d4f554e54556e697377617056324c6962726172793a204944454e544943414c5f4144445245535345534d617267696e526f757465723a20496e73756666696369656e74206c656e64696e672066756e6473556e697377617056324c6962726172793a20494e53554646494349454e545f4c4951554944495459536166654d6174683a206d756c7469706c69636174696f6e206f766572666c6f7743616e6e6f74207472616e73666572206465706f73697420746f206d617267696e206163636f756e74556e69737761705632526f757465723a204558434553534956455f494e5055545f414d4f554e54556e697377617056324c6962726172793a20494e53554646494349454e545f494e5055545f414d4f554e544d617267696e526f757465723a20494e53554646494349454e545f4f55545055545f414d4f554e54a2646970667358221220d4c4990674e27d861b245380be0f78e54c7ddb12cabf541d98c839ac57ccfb9d64736f6c63430007000033",
  "immutableReferences": {},
  "source": "import '@uniswap/v2-core/contracts/interfaces/IUniswapV2Factory.sol';\nimport '../libraries/UniswapV2Library.sol';\n\nimport './RoleAware.sol';\nimport './Fund.sol';\nimport './MarginTrading.sol';\nimport './Lending.sol';\nimport './Admin.sol';\n\nenum AMM {uni, sushi, compare, split}\n\ncontract MarginRouter is RoleAware {\n    mapping(AMM => address) factories;\n    address WETH;\n\n    constructor(address uniswapFactory, address sushiswapFactory, address _WETH, address _roles) RoleAware(_roles) {\n        factories[AMM.uni] = uniswapFactory;\n        factories[AMM.sushi] = sushiswapFactory;\n        WETH = _WETH;\n    }\n\n    function deposit(address depositToken, uint depositAmount) external {\n        require(Fund(fund()).depositFor(msg.sender, depositToken, depositAmount),\n                \"Cannot transfer deposit to margin account\");\n        uint extinguishAmount = MarginTrading(marginTrading())\n            .registerDeposit(msg.sender, depositToken, depositAmount);\n        if (extinguishAmount > 0) {\n            MarginTrading(marginTrading()).registerPayOff(msg.sender, depositToken, extinguishAmount);\n            Lending(lending()).payOff(depositToken, extinguishAmount);\n        }\n    }\n\n    function depositETH() external payable {\n        Fund(fund()).depositToWETH{value: msg.value}();\n        uint extinguishAmount = MarginTrading(marginTrading()).registerDeposit(msg.sender, WETH, msg.value);\n        if (extinguishAmount > 0) {\n            MarginTrading(marginTrading()).registerPayOff(msg.sender, WETH, extinguishAmount);\n            Lending(lending()).payOff(WETH, extinguishAmount);\n        }\n    }\n\n    function withdraw(address withdrawToken, uint withdrawAmount) external {\n        MarginTrading(marginTrading()).registerWithdrawal(msg.sender, withdrawToken, withdrawAmount);\n        require(Fund(fund()).withdraw(withdrawToken, msg.sender, withdrawAmount),\n                \"Could not withdraw from fund\");\n    }\n\n    function withdrawETH(uint withdrawAmount) external {\n        MarginTrading(marginTrading()).registerWithdrawal(msg.sender, WETH, withdrawAmount);\n        Fund(fund()).withdrawETH(msg.sender, withdrawAmount);\n    }\n    \n    function borrow(address borrowToken, uint borrowAmount) external {\n        Lending(lending()).registerBorrow(borrowToken, borrowAmount);\n        MarginTrading(marginTrading()).registerBorrow(msg.sender, borrowToken, borrowAmount);\n    }\n\n    function extinguishDebt(address debtToken, uint extinguishAmount) external {\n        MarginTrading(marginTrading()).registerPayOff(msg.sender, debtToken, extinguishAmount);\n        Lending(lending()).payOff(debtToken, extinguishAmount);\n    }\n\n    // **** SWAP ****\n    // requires the initial amount to have already been sent to the first pair\n    function _swap(address factory,\n                   uint[] memory amounts,\n                   address[] memory path,\n                   address _to) internal virtual {\n        for (uint i; i < path.length - 1; i++) {\n            (address input, address output) = (path[i], path[i + 1]);\n            (address token0,) = UniswapV2Library.sortTokens(input, output);\n            uint amountOut = amounts[i + 1];\n            (uint amount0Out, uint amount1Out) = input == token0 ? (uint(0), amountOut) : (amountOut, uint(0));\n            address to = i < path.length - 2 ? UniswapV2Library.pairFor(factory, output, path[i + 2]) : _to;\n            IUniswapV2Pair(UniswapV2Library.pairFor(factory, input, output)).swap(\n                amount0Out, amount1Out, to, new bytes(0)\n            );\n        }\n    }\n\n    function _swapExactT4T(address factory,\n                           uint amountIn,\n                           uint amountOutMin,\n                           address[] calldata path,\n                           uint deadline)\n        internal returns (uint[] memory amounts) {\n        amounts = UniswapV2Library.getAmountsOut(factory, amountIn, path);\n        require(amounts[amounts.length - 1] >= amountOutMin, 'MarginRouter: INSUFFICIENT_OUTPUT_AMOUNT');\n        require(Fund(fund()).sendTokenTo(path[0],\n                                         UniswapV2Library.pairFor(factory, path[0], path[1]),\n                                         amounts[0]),\n                \"MarginRouter: Insufficient lending funds\");\n        _swap(factory, amounts, path, fund());\n    }\n\n    function _swapT4ExactT(address factory,\n                              uint amountOut,\n                              uint amountInMax,\n                              address[] calldata path,\n                              uint deadline)\n        internal returns (uint[] memory amounts) {\n        amounts = UniswapV2Library.getAmountsIn(factory, amountOut, path);\n        require(amounts[0] <= amountInMax, 'UniswapV2Router: EXCESSIVE_INPUT_AMOUNT');\n        require(Fund(fund()).sendTokenTo(path[0],\n                                         UniswapV2Library.pairFor(factory, path[0], path[1]),\n                                         amounts[0]),\n                \"MarginRouter: Insufficient lending funds\");\n        _swap(factory, amounts, path, fund());\n    }\n    // deposit\n    // borrow\n    // auto-borrow for margin trades\n    // auto-extinguish? yeah, why not\n\n\n    // fees from fee controller / admin\n    // clear trade w/ margintrading\n    // make trade\n    // register trade w/ margintrading (register within transaction)\n\n    function swapExactTokensForTokens(AMM amm,\n                                      uint amountIn,\n                                      uint amountOutMin,\n                                      address[] calldata path,\n                                      uint deadline)\n        external returns (uint[] memory amounts) {\n        // calc fees\n        uint fees = Admin(feeController()).subtractTradingFees(path[0], amountIn);\n\n        // swap\n        address factory = factories[amm];\n        amounts = _swapExactT4T(factory, amountIn - fees, amountOutMin, path, deadline);\n\n        address outToken = path[path.length -1];\n        // register the trade\n        uint borrowAmount = MarginTrading(marginTrading())\n            .registerTradeAndBorrow(msg.sender,\n                                    path[0],\n                                    outToken,\n                                    amountIn,\n                                    amounts[amounts.length -1]);\n        Lending(lending()).registerBorrow(outToken, borrowAmount);\n    }\n\n    function swapTokensForExactTokens(AMM amm,\n                                      uint amountOut,\n                                      uint amountInMax,\n                                      address[] calldata path,\n                                      uint deadline)\n        external returns (uint[] memory amounts) {\n        // calc fees\n        uint fees = Admin(feeController()).addTradingFees(path[path.length - 1], amountOut);\n\n        // swap\n        address factory = factories[amm];\n        amounts = _swapT4ExactT(factory, amountOut + fees, amountInMax, path, deadline);\n\n        address outToken = path[path.length -1];\n        // register the trade\n        uint borrowAmount = MarginTrading(marginTrading())\n            .registerTradeAndBorrow(msg.sender,\n                                    path[0],\n                                    outToken,\n                                    amounts[0],\n                                    amountOut);\n        Lending(lending()).registerBorrow(outToken, borrowAmount);\n    }\n\n    function getAmountsOut(AMM amm, uint inAmount, address[] calldata path)\n        external view returns (uint[] memory) {\n        address factory = factories[amm];\n        return UniswapV2Library.getAmountsOut(factory, inAmount, path);\n    }\n}\n\n// TODO use cached prices or borrow and write prices before registering trade\n",
  "sourcePath": "/home/tixelbook/projects/marginswap-core/contracts/MarginRouter.sol",
  "compiler": {
    "name": "solc",
    "version": "0.7.0+commit.9e61f92b.Emscripten.clang"
  },
  "schemaVersion": "3.3.3",
  "updatedAt": "2021-02-13T21:18:49.159Z",
  "devdoc": {
    "kind": "dev",
    "methods": {},
    "version": 1
  },
  "userdoc": {
    "kind": "user",
    "methods": {},
    "version": 1
  }
}