{
  "contractName": "MarginTrading",
  "abi": [
    {
      "inputs": [
        {
          "internalType": "address",
          "name": "_roles",
          "type": "address"
        }
      ],
      "stateMutability": "nonpayable",
      "type": "constructor"
    },
    {
      "anonymous": false,
      "inputs": [
        {
          "indexed": true,
          "internalType": "address",
          "name": "previousOwner",
          "type": "address"
        },
        {
          "indexed": true,
          "internalType": "address",
          "name": "newOwner",
          "type": "address"
        }
      ],
      "name": "OwnershipTransferred",
      "type": "event"
    },
    {
      "inputs": [],
      "name": "leverage",
      "outputs": [
        {
          "internalType": "uint256",
          "name": "",
          "type": "uint256"
        }
      ],
      "stateMutability": "view",
      "type": "function"
    },
    {
      "inputs": [],
      "name": "liquidationThresholdPercent",
      "outputs": [
        {
          "internalType": "uint256",
          "name": "",
          "type": "uint256"
        }
      ],
      "stateMutability": "view",
      "type": "function"
    },
    {
      "inputs": [],
      "name": "owner",
      "outputs": [
        {
          "internalType": "address",
          "name": "",
          "type": "address"
        }
      ],
      "stateMutability": "view",
      "type": "function"
    },
    {
      "inputs": [],
      "name": "renounceOwnership",
      "outputs": [],
      "stateMutability": "nonpayable",
      "type": "function"
    },
    {
      "inputs": [],
      "name": "roles",
      "outputs": [
        {
          "internalType": "contract Roles",
          "name": "",
          "type": "address"
        }
      ],
      "stateMutability": "view",
      "type": "function"
    },
    {
      "inputs": [
        {
          "internalType": "address",
          "name": "newOwner",
          "type": "address"
        }
      ],
      "name": "transferOwnership",
      "outputs": [],
      "stateMutability": "nonpayable",
      "type": "function"
    },
    {
      "inputs": [
        {
          "internalType": "address",
          "name": "trader",
          "type": "address"
        }
      ],
      "name": "getHoldingAmounts",
      "outputs": [
        {
          "internalType": "address[]",
          "name": "holdingTokens",
          "type": "address[]"
        },
        {
          "internalType": "uint256[]",
          "name": "holdingAmounts",
          "type": "uint256[]"
        }
      ],
      "stateMutability": "view",
      "type": "function"
    },
    {
      "inputs": [
        {
          "internalType": "uint256",
          "name": "_leverage",
          "type": "uint256"
        }
      ],
      "name": "setLeverage",
      "outputs": [],
      "stateMutability": "nonpayable",
      "type": "function"
    },
    {
      "inputs": [
        {
          "internalType": "uint256",
          "name": "threshold",
          "type": "uint256"
        }
      ],
      "name": "setLiquidationThresholdPercent",
      "outputs": [],
      "stateMutability": "nonpayable",
      "type": "function"
    },
    {
      "inputs": [
        {
          "internalType": "address",
          "name": "trader",
          "type": "address"
        },
        {
          "internalType": "address",
          "name": "token",
          "type": "address"
        },
        {
          "internalType": "uint256",
          "name": "depositAmount",
          "type": "uint256"
        }
      ],
      "name": "registerDeposit",
      "outputs": [
        {
          "internalType": "uint256",
          "name": "extinguishableDebt",
          "type": "uint256"
        }
      ],
      "stateMutability": "nonpayable",
      "type": "function"
    },
    {
      "inputs": [
        {
          "internalType": "address",
          "name": "trader",
          "type": "address"
        },
        {
          "internalType": "address",
          "name": "borrowToken",
          "type": "address"
        },
        {
          "internalType": "uint256",
          "name": "borrowAmount",
          "type": "uint256"
        }
      ],
      "name": "registerBorrow",
      "outputs": [],
      "stateMutability": "nonpayable",
      "type": "function"
    },
    {
      "inputs": [
        {
          "internalType": "address",
          "name": "trader",
          "type": "address"
        },
        {
          "internalType": "address",
          "name": "withdrawToken",
          "type": "address"
        },
        {
          "internalType": "uint256",
          "name": "withdrawAmount",
          "type": "uint256"
        }
      ],
      "name": "registerWithdrawal",
      "outputs": [],
      "stateMutability": "nonpayable",
      "type": "function"
    },
    {
      "inputs": [
        {
          "internalType": "address",
          "name": "trader",
          "type": "address"
        },
        {
          "internalType": "address",
          "name": "debtToken",
          "type": "address"
        },
        {
          "internalType": "uint256",
          "name": "extinguishAmount",
          "type": "uint256"
        }
      ],
      "name": "registerPayOff",
      "outputs": [],
      "stateMutability": "nonpayable",
      "type": "function"
    },
    {
      "inputs": [
        {
          "internalType": "address",
          "name": "trader",
          "type": "address"
        },
        {
          "internalType": "address",
          "name": "token",
          "type": "address"
        },
        {
          "internalType": "uint256",
          "name": "amount",
          "type": "uint256"
        }
      ],
      "name": "getTradeBorrowAmount",
      "outputs": [
        {
          "internalType": "uint256",
          "name": "borrowAmount",
          "type": "uint256"
        }
      ],
      "stateMutability": "nonpayable",
      "type": "function"
    },
    {
      "inputs": [
        {
          "internalType": "address",
          "name": "trader",
          "type": "address"
        },
        {
          "internalType": "address",
          "name": "tokenFrom",
          "type": "address"
        },
        {
          "internalType": "address",
          "name": "tokenTo",
          "type": "address"
        },
        {
          "internalType": "uint256",
          "name": "inAmount",
          "type": "uint256"
        },
        {
          "internalType": "uint256",
          "name": "outAmount",
          "type": "uint256"
        }
      ],
      "name": "registerTradeAndBorrow",
      "outputs": [
        {
          "internalType": "uint256",
          "name": "borrowAmount",
          "type": "uint256"
        }
      ],
      "stateMutability": "nonpayable",
      "type": "function"
    },
    {
      "inputs": [
        {
          "internalType": "address[]",
          "name": "liquidationCandidates",
          "type": "address[]"
        }
      ],
      "name": "callMargin",
      "outputs": [
        {
          "internalType": "uint256",
          "name": "",
          "type": "uint256"
        }
      ],
      "stateMutability": "nonpayable",
      "type": "function"
    }
  ],
  "bytecode": "0x60806040523480156200001157600080fd5b506040516200327238038062003272833981810160405260208110156200003757600080fd5b810190808051906020019092919050505080806000806101000a81548173ffffffffffffffffffffffffffffffffffffffff021916908373ffffffffffffffffffffffffffffffffffffffff1602179055505060006200009c6200014a60201b60201c565b905080600160006101000a81548173ffffffffffffffffffffffffffffffffffffffff021916908373ffffffffffffffffffffffffffffffffffffffff1602179055508073ffffffffffffffffffffffffffffffffffffffff16600073ffffffffffffffffffffffffffffffffffffffff167f8be0079c531659141344cd1fd0a4f28419497f9722a3daafe3b4186f6b6457e060405160405180910390a35060146003819055505062000152565b600033905090565b61311080620001626000396000f3fe608060405234801561001057600080fd5b50600436106101005760003560e01c80636612ce3511610097578063b25777ad11610066578063b25777ad1461050e578063d0eb66531461057c578063ed95eda0146105ea578063f2fde38b146106b657610100565b80636612ce3514610420578063715018a6146104a257806379575b23146104ac5780638da5cb5b146104da57610100565b8063392f5f64116100d3578063392f5f641461021b578063409fdb721461024f578063498d55eb1461033057806352a664d91461039e57610100565b806316317e7e146101055780632c86d98e14610133578063320d2fa0146101515780633500aa0b1461016f575b600080fd5b6101316004803603602081101561011b57600080fd5b81019080803590602001909291905050506106fa565b005b61013b6107ce565b6040518082815260200191505060405180910390f35b6101596107d4565b6040518082815260200191505060405180910390f35b610205600480360360a081101561018557600080fd5b81019080803573ffffffffffffffffffffffffffffffffffffffff169060200190929190803573ffffffffffffffffffffffffffffffffffffffff169060200190929190803573ffffffffffffffffffffffffffffffffffffffff16906020019092919080359060200190929190803590602001909291905050506107da565b6040518082815260200191505060405180910390f35b610223610938565b604051808273ffffffffffffffffffffffffffffffffffffffff16815260200191505060405180910390f35b6102916004803603602081101561026557600080fd5b81019080803573ffffffffffffffffffffffffffffffffffffffff16906020019092919050505061095c565b604051808060200180602001838103835285818151815260200191508051906020019060200280838360005b838110156102d85780820151818401526020810190506102bd565b50505050905001838103825284818151815260200191508051906020019060200280838360005b8381101561031a5780820151818401526020810190506102ff565b5050505090500194505050505060405180910390f35b61039c6004803603606081101561034657600080fd5b81019080803573ffffffffffffffffffffffffffffffffffffffff169060200190929190803573ffffffffffffffffffffffffffffffffffffffff16906020019092919080359060200190929190505050610b10565b005b61040a600480360360608110156103b457600080fd5b81019080803573ffffffffffffffffffffffffffffffffffffffff169060200190929190803573ffffffffffffffffffffffffffffffffffffffff16906020019092919080359060200190929190505050610bc2565b6040518082815260200191505060405180910390f35b61048c6004803603606081101561043657600080fd5b81019080803573ffffffffffffffffffffffffffffffffffffffff169060200190929190803573ffffffffffffffffffffffffffffffffffffffff16906020019092919080359060200190929190505050610d10565b6040518082815260200191505060405180910390f35b6104aa610e7e565b005b6104d8600480360360208110156104c257600080fd5b8101908080359060200190929190505050611009565b005b6104e26110dd565b604051808273ffffffffffffffffffffffffffffffffffffffff16815260200191505060405180910390f35b61057a6004803603606081101561052457600080fd5b81019080803573ffffffffffffffffffffffffffffffffffffffff169060200190929190803573ffffffffffffffffffffffffffffffffffffffff16906020019092919080359060200190929190505050611107565b005b6105e86004803603606081101561059257600080fd5b81019080803573ffffffffffffffffffffffffffffffffffffffff169060200190929190803573ffffffffffffffffffffffffffffffffffffffff169060200190929190803590602001909291905050506111b3565b005b6106a06004803603602081101561060057600080fd5b810190808035906020019064010000000081111561061d57600080fd5b82018360208201111561062f57600080fd5b8035906020019184602083028401116401000000008311171561065157600080fd5b919080806020026020016040519081016040528093929190818152602001838360200280828437600081840152601f19601f820116905080830192505050505050509192919290505050611351565b6040518082815260200191505060405180910390f35b6106f8600480360360208110156106cc57600080fd5b81019080803573ffffffffffffffffffffffffffffffffffffffff169060200190929190505050611aae565b005b610702611cbe565b73ffffffffffffffffffffffffffffffffffffffff16600160009054906101000a900473ffffffffffffffffffffffffffffffffffffffff1673ffffffffffffffffffffffffffffffffffffffff16146107c4576040517f08c379a00000000000000000000000000000000000000000000000000000000081526004018080602001828103825260208152602001807f4f776e61626c653a2063616c6c6572206973206e6f7420746865206f776e657281525060200191505060405180910390fd5b8060038190555050565b60025481565b60035481565b60006107e533611cc6565b61083a576040517f08c379a0000000000000000000000000000000000000000000000000000000008152600401808060200182810382526039815260200180612fa86039913960400191505060405180910390fd5b6000600460008873ffffffffffffffffffffffffffffffffffffffff1673ffffffffffffffffffffffffffffffffffffffff168152602001908152602001600020905060008490508160040160008873ffffffffffffffffffffffffffffffffffffffff1673ffffffffffffffffffffffffffffffffffffffff16815260200190815260200160002054851115610920578160040160008873ffffffffffffffffffffffffffffffffffffffff1673ffffffffffffffffffffffffffffffffffffffff168152602001908152602001600020549050808503925061091f828885611d9e565b5b61092d8288888488612144565b505095945050505050565b60008054906101000a900473ffffffffffffffffffffffffffffffffffffffff1681565b6060806000600460008573ffffffffffffffffffffffffffffffffffffffff1673ffffffffffffffffffffffffffffffffffffffff168152602001908152602001600020905080600301805480602002602001604051908101604052809291908181526020018280548015610a2657602002820191906000526020600020905b8160009054906101000a900473ffffffffffffffffffffffffffffffffffffffff1673ffffffffffffffffffffffffffffffffffffffff16815260200190600101908083116109dc575b50505050509250806003018054905067ffffffffffffffff81118015610a4b57600080fd5b50604051908082528060200260200182016040528015610a7a5781602001602082028036833780820191505090505b50915060005b8084511115610b09576000848281518110610a9757fe5b602002602001015190508260040160008273ffffffffffffffffffffffffffffffffffffffff1673ffffffffffffffffffffffffffffffffffffffff16815260200190815260200160002054848381518110610aef57fe5b602002602001018181525050508080600101915050610a80565b5050915091565b610b1933611cc6565b610b6e576040517f08c379a000000000000000000000000000000000000000000000000000000000815260040180806020018281038252602a8152602001806130b1602a913960400191505060405180910390fd5b6000600460008573ffffffffffffffffffffffffffffffffffffffff1673ffffffffffffffffffffffffffffffffffffffff1681526020019081526020016000209050610bbc818484611d9e565b50505050565b6000610bcd33611cc6565b610c22576040517f08c379a000000000000000000000000000000000000000000000000000000000815260040180806020018281038252602a8152602001806130b1602a913960400191505060405180910390fd5b6000600460008673ffffffffffffffffffffffffffffffffffffffff1673ffffffffffffffffffffffffffffffffffffffff1681526020019081526020016000209050610c708185856121ef565b60008160010160008673ffffffffffffffffffffffffffffffffffffffff1673ffffffffffffffffffffffffffffffffffffffff168152602001908152602001600020541115610d0857610d05838260010160008773ffffffffffffffffffffffffffffffffffffffff1673ffffffffffffffffffffffffffffffffffffffff168152602001908152602001600020546122b7565b91505b509392505050565b6000610d1b33611cc6565b610d70576040517f08c379a00000000000000000000000000000000000000000000000000000000081526004018080602001828103825260338152602001806130076033913960400191505060405180910390fd5b6000600460008673ffffffffffffffffffffffffffffffffffffffff1673ffffffffffffffffffffffffffffffffffffffff16815260200190815260200160002090508060040160008573ffffffffffffffffffffffffffffffffffffffff1673ffffffffffffffffffffffffffffffffffffffff1681526020019081526020016000205483039150610e048185846122d3565b610e76576040517f08c379a00000000000000000000000000000000000000000000000000000000081526004018080602001828103825260188152602001807f43616e277420626f72726f772066756c6c20616d6f756e74000000000000000081525060200191505060405180910390fd5b509392505050565b610e86611cbe565b73ffffffffffffffffffffffffffffffffffffffff16600160009054906101000a900473ffffffffffffffffffffffffffffffffffffffff1673ffffffffffffffffffffffffffffffffffffffff1614610f48576040517f08c379a00000000000000000000000000000000000000000000000000000000081526004018080602001828103825260208152602001807f4f776e61626c653a2063616c6c6572206973206e6f7420746865206f776e657281525060200191505060405180910390fd5b600073ffffffffffffffffffffffffffffffffffffffff16600160009054906101000a900473ffffffffffffffffffffffffffffffffffffffff1673ffffffffffffffffffffffffffffffffffffffff167f8be0079c531659141344cd1fd0a4f28419497f9722a3daafe3b4186f6b6457e060405160405180910390a36000600160006101000a81548173ffffffffffffffffffffffffffffffffffffffff021916908373ffffffffffffffffffffffffffffffffffffffff160217905550565b611011611cbe565b73ffffffffffffffffffffffffffffffffffffffff16600160009054906101000a900473ffffffffffffffffffffffffffffffffffffffff1673ffffffffffffffffffffffffffffffffffffffff16146110d3576040517f08c379a00000000000000000000000000000000000000000000000000000000081526004018080602001828103825260208152602001807f4f776e61626c653a2063616c6c6572206973206e6f7420746865206f776e657281525060200191505060405180910390fd5b8060028190555050565b6000600160009054906101000a900473ffffffffffffffffffffffffffffffffffffffff16905090565b61111033611cc6565b611165576040517f08c379a000000000000000000000000000000000000000000000000000000000815260040180806020018281038252602a8152602001806130b1602a913960400191505060405180910390fd5b6111ae600460008573ffffffffffffffffffffffffffffffffffffffff1673ffffffffffffffffffffffffffffffffffffffff1681526020019081526020016000208383612323565b505050565b6111bc33611cc6565b611211576040517f08c379a000000000000000000000000000000000000000000000000000000000815260040180806020018281038252602a8152602001806130b1602a913960400191505060405180910390fd5b6000600460008573ffffffffffffffffffffffffffffffffffffffff1673ffffffffffffffffffffffffffffffffffffffff16815260200190815260200160002090506112a8828260040160008673ffffffffffffffffffffffffffffffffffffffff1673ffffffffffffffffffffffffffffffffffffffff168152602001908152602001600020546125dc90919063ffffffff16565b8160040160008573ffffffffffffffffffffffffffffffffffffffff1673ffffffffffffffffffffffffffffffffffffffff168152602001908152602001600020819055506112f681612626565b61134b576040517f08c379a000000000000000000000000000000000000000000000000000000000815260040180806020018281038252602681526020018061303a6026913960400191505060405180910390fd5b50505050565b600061135c33612659565b6113b1576040517f08c379a000000000000000000000000000000000000000000000000000000000815260040180806020018281038252602f815260200180613060602f913960400191505060405180910390fd5b60608060606113bf85612731565b92509250925060006113d084612757565b905060606113dd846127dc565b90506113e9858561282d565b6000805b8085511115611aa25760006004600087848151811061140857fe5b602002602001015173ffffffffffffffffffffffffffffffffffffffff1673ffffffffffffffffffffffffffffffffffffffff1681526020019081526020016000209050600061145782612879565b9050600061146483612880565b9050600060028054606460035485028161147a57fe5b048161148257fe5b048161148a57fe5b049050808601955081810183106114a057611a91565b600083828401039050606060078054905067ffffffffffffffff811180156114c757600080fd5b506040519080825280602002602001820160405280156114f65781602001602082028036833780820191505090505b509050606060068054905067ffffffffffffffff8111801561151757600080fd5b506040519080825280602002602001820160405280156115465781602001602082028036833780820191505090505b5090506000805b8060078054905011156117145760006007828154811061156957fe5b9060005260206000200160009054906101000a900473ffffffffffffffffffffffffffffffffffffffff1690508960050160008273ffffffffffffffffffffffffffffffffffffffff1673ffffffffffffffffffffffffffffffffffffffff16815260200190815260200160002060009054906101000a900460ff1615611706576000806115f561289d565b73ffffffffffffffffffffffffffffffffffffffff1663e47109a9848e60040160008773ffffffffffffffffffffffffffffffffffffffff1673ffffffffffffffffffffffffffffffffffffffff168152602001908152602001600020546040518363ffffffff1660e01b8152600401808373ffffffffffffffffffffffffffffffffffffffff16815260200182815260200192505050602060405180830381600087803b1580156116a657600080fd5b505af11580156116ba573d6000803e3d6000fd5b505050506040513d60208110156116d057600080fd5b810190808051906020019092919050505082029050808785815181106116f257fe5b602002602001018181525050808501945050505b50808060010191505061154d565b5060005b8060068054905011156118305760006006828154811061173457fe5b9060005260206000200160009054906101000a900473ffffffffffffffffffffffffffffffffffffffff16905060008a60010160008373ffffffffffffffffffffffffffffffffffffffff1673ffffffffffffffffffffffffffffffffffffffff168152602001908152602001600020541115611822576000806117fd838d60010160008673ffffffffffffffffffffffffffffffffffffffff1673ffffffffffffffffffffffffffffffffffffffff168152602001908152602001600020548e600201612955565b820290508086858151811061180e57fe5b602002602001018181525050808501945050505b508080600101915050611718565b506000811115611a8b5760005b80600780549050111561195f57600084828151811061185857fe5b602002602001015111156119525760006007828154811061187557fe5b9060005260206000200160009054906101000a900473ffffffffffffffffffffffffffffffffffffffff1690506118aa61289d565b73ffffffffffffffffffffffffffffffffffffffff16639db9cbf982858886815181106118d357fe5b60200260200101518a02816118e457fe5b046040518363ffffffff1660e01b8152600401808373ffffffffffffffffffffffffffffffffffffffff16815260200182815260200192505050600060405180830381600087803b15801561193857600080fd5b505af115801561194c573d6000803e3d6000fd5b50505050505b808060010191505061183d565b5060005b806006805490501115611a8557600083828151811061197e57fe5b60200260200101511115611a785760006006828154811061199b57fe5b9060005260206000200160009054906101000a900473ffffffffffffffffffffffffffffffffffffffff1690506119d061289d565b73ffffffffffffffffffffffffffffffffffffffff16639db9cbf982858786815181106119f957fe5b60200260200101518a0281611a0a57fe5b046040518363ffffffff1660e01b8152600401808373ffffffffffffffffffffffffffffffffffffffff16815260200182815260200192505050600060405180830381600087803b158015611a5e57600080fd5b505af1158015611a72573d6000803e3d6000fd5b50505050505b8080600101915050611963565b50611a8c565b5b505050505b5050505080806001019150506113ed565b50505050505050919050565b611ab6611cbe565b73ffffffffffffffffffffffffffffffffffffffff16600160009054906101000a900473ffffffffffffffffffffffffffffffffffffffff1673ffffffffffffffffffffffffffffffffffffffff1614611b78576040517f08c379a00000000000000000000000000000000000000000000000000000000081526004018080602001828103825260208152602001807f4f776e61626c653a2063616c6c6572206973206e6f7420746865206f776e657281525060200191505060405180910390fd5b600073ffffffffffffffffffffffffffffffffffffffff168173ffffffffffffffffffffffffffffffffffffffff161415611bfe576040517f08c379a0000000000000000000000000000000000000000000000000000000008152600401808060200182810382526026815260200180612fe16026913960400191505060405180910390fd5b8073ffffffffffffffffffffffffffffffffffffffff16600160009054906101000a900473ffffffffffffffffffffffffffffffffffffffff1673ffffffffffffffffffffffffffffffffffffffff167f8be0079c531659141344cd1fd0a4f28419497f9722a3daafe3b4186f6b6457e060405160405180910390a380600160006101000a81548173ffffffffffffffffffffffffffffffffffffffff021916908373ffffffffffffffffffffffffffffffffffffffff16021790555050565b600033905090565b60008060009054906101000a900473ffffffffffffffffffffffffffffffffffffffff1673ffffffffffffffffffffffffffffffffffffffff1663a716b97f8360696040518363ffffffff1660e01b8152600401808373ffffffffffffffffffffffffffffffffffffffff1681526020018260ff1681526020019250505060206040518083038186803b158015611d5c57600080fd5b505afa158015611d70573d6000803e3d6000fd5b505050506040513d6020811015611d8657600080fd5b81019080805190602001909291905050509050919050565b611da88383612b0f565b611f045782600001829080600181540180825580915050600190039060005260206000200160009091909190916101000a81548173ffffffffffffffffffffffffffffffffffffffff021916908373ffffffffffffffffffffffffffffffffffffffff160217905550611e19612b5d565b73ffffffffffffffffffffffffffffffffffffffff1663e7bde5c1836040518263ffffffff1660e01b8152600401808273ffffffffffffffffffffffffffffffffffffffff16815260200191505060206040518083038186803b158015611e7f57600080fd5b505afa158015611e93573d6000803e3d6000fd5b505050506040513d6020811015611ea957600080fd5b81019080805190602001909291905050508360020160008473ffffffffffffffffffffffffffffffffffffffff1673ffffffffffffffffffffffffffffffffffffffff16815260200190815260200160002081905550612087565b611f0c612b5d565b73ffffffffffffffffffffffffffffffffffffffff1663e695fa688460010160008573ffffffffffffffffffffffffffffffffffffffff1673ffffffffffffffffffffffffffffffffffffffff16815260200190815260200160002054848660020160008773ffffffffffffffffffffffffffffffffffffffff1673ffffffffffffffffffffffffffffffffffffffff168152602001908152602001600020546040518463ffffffff1660e01b8152600401808481526020018373ffffffffffffffffffffffffffffffffffffffff1681526020018281526020019350505050602060405180830381600087803b15801561200657600080fd5b505af115801561201a573d6000803e3d6000fd5b505050506040513d602081101561203057600080fd5b81019080805190602001909291905050508360010160008473ffffffffffffffffffffffffffffffffffffffff1673ffffffffffffffffffffffffffffffffffffffff168152602001908152602001600020819055505b808360010160008473ffffffffffffffffffffffffffffffffffffffff1673ffffffffffffffffffffffffffffffffffffffff168152602001908152602001600020600082825401925050819055506120e18383836121ef565b6120ea83612626565b61213f576040517f08c379a000000000000000000000000000000000000000000000000000000000815260040180806020018281038252602281526020018061308f6022913960400191505060405180910390fd5b505050565b612198828660040160008773ffffffffffffffffffffffffffffffffffffffff1673ffffffffffffffffffffffffffffffffffffffff168152602001908152602001600020546125dc90919063ffffffff16565b8560040160008673ffffffffffffffffffffffffffffffffffffffff1673ffffffffffffffffffffffffffffffffffffffff168152602001908152602001600020819055506121e88584836121ef565b5050505050565b6121f98383612c15565b6122635782600301829080600181540180825580915050600190039060005260206000200160009091909190916101000a81548173ffffffffffffffffffffffffffffffffffffffff021916908373ffffffffffffffffffffffffffffffffffffffff1602179055505b808360040160008473ffffffffffffffffffffffffffffffffffffffff1673ffffffffffffffffffffffffffffffffffffffff16815260200190815260200160002060008282540192505081905550505050565b6000818311156122c9578190506122cd565b8290505b92915050565b6000818460040160008573ffffffffffffffffffffffffffffffffffffffff1673ffffffffffffffffffffffffffffffffffffffff16815260200190815260200160002054101590509392505050565b61232b612b5d565b73ffffffffffffffffffffffffffffffffffffffff1663e695fa688460010160008573ffffffffffffffffffffffffffffffffffffffff1673ffffffffffffffffffffffffffffffffffffffff16815260200190815260200160002054848660020160008773ffffffffffffffffffffffffffffffffffffffff1673ffffffffffffffffffffffffffffffffffffffff168152602001908152602001600020546040518463ffffffff1660e01b8152600401808481526020018373ffffffffffffffffffffffffffffffffffffffff1681526020018281526020019350505050602060405180830381600087803b15801561242557600080fd5b505af1158015612439573d6000803e3d6000fd5b505050506040513d602081101561244f57600080fd5b81019080805190602001909291905050508360010160008473ffffffffffffffffffffffffffffffffffffffff1673ffffffffffffffffffffffffffffffffffffffff168152602001908152602001600020819055506124f9818460010160008573ffffffffffffffffffffffffffffffffffffffff1673ffffffffffffffffffffffffffffffffffffffff168152602001908152602001600020546125dc90919063ffffffff16565b8360010160008473ffffffffffffffffffffffffffffffffffffffff1673ffffffffffffffffffffffffffffffffffffffff16815260200190815260200160002081905550612592818460040160008573ffffffffffffffffffffffffffffffffffffffff1673ffffffffffffffffffffffffffffffffffffffff168152602001908152602001600020546125dc90919063ffffffff16565b8360040160008473ffffffffffffffffffffffffffffffffffffffff1673ffffffffffffffffffffffffffffffffffffffff16815260200190815260200160002081905550505050565b600061261e83836040518060400160405280601e81526020017f536166654d6174683a207375627472616374696f6e206f766572666c6f770000815250612c6e565b905092915050565b60008061263283612880565b9050600061263f84612d2e565b905060025482026001600254018202101592505050919050565b60008060009054906101000a900473ffffffffffffffffffffffffffffffffffffffff1673ffffffffffffffffffffffffffffffffffffffff1663a716b97f8360676040518363ffffffff1660e01b8152600401808373ffffffffffffffffffffffffffffffffffffffff1681526020018260ff1681526020019250505060206040518083038186803b1580156126ef57600080fd5b505afa158015612703573d6000803e3d6000fd5b505050506040513d602081101561271957600080fd5b81019080805190602001909291905050509050919050565b606080606060005b808551111561274f578080600101915050612739565b509193909250565b600080600090505b80835111156127d65760006005600085848151811061277a57fe5b602002602001015173ffffffffffffffffffffffffffffffffffffffff1673ffffffffffffffffffffffffffffffffffffffff16815260200190815260200160002060010154905060008301925050808060010191505061275f565b50919050565b6060815167ffffffffffffffff811180156127f657600080fd5b506040519080825280602002602001820160405280156128255781602001602082028036833780820191505090505b509050919050565b6128376007612d47565b6128416006612d47565b60005b808351111561285a578080600101915050612844565b5060005b808251111561287457808060010191505061285e565b505050565b6000919050565b6000612896826000018360010184600201612d9c565b9050919050565b60008060009054906101000a900473ffffffffffffffffffffffffffffffffffffffff1673ffffffffffffffffffffffffffffffffffffffff166336214c7860066040518263ffffffff1660e01b8152600401808260ff16815260200191505060206040518083038186803b15801561291557600080fd5b505afa158015612929573d6000803e3d6000fd5b505050506040513d602081101561293f57600080fd5b8101908080519060200190929190505050905090565b600080612960612b5d565b73ffffffffffffffffffffffffffffffffffffffff1663e7bde5c1866040518263ffffffff1660e01b8152600401808273ffffffffffffffffffffffffffffffffffffffff16815260200191505060206040518083038186803b1580156129c657600080fd5b505afa1580156129da573d6000803e3d6000fd5b505050506040513d60208110156129f057600080fd5b8101908080519060200190929190505050905060008360008773ffffffffffffffffffffffffffffffffffffffff1673ffffffffffffffffffffffffffffffffffffffff1681526020019081526020016000205482860281612a4e57fe5b049050612a5961289d565b73ffffffffffffffffffffffffffffffffffffffff1663e47109a987836040518363ffffffff1660e01b8152600401808373ffffffffffffffffffffffffffffffffffffffff16815260200182815260200192505050602060405180830381600087803b158015612ac957600080fd5b505af1158015612add573d6000803e3d6000fd5b505050506040513d6020811015612af357600080fd5b8101908080519060200190929190505050925050509392505050565b6000808360020160008473ffffffffffffffffffffffffffffffffffffffff1673ffffffffffffffffffffffffffffffffffffffff1681526020019081526020016000205411905092915050565b60008060009054906101000a900473ffffffffffffffffffffffffffffffffffffffff1673ffffffffffffffffffffffffffffffffffffffff166336214c7860026040518263ffffffff1660e01b8152600401808260ff16815260200191505060206040518083038186803b158015612bd557600080fd5b505afa158015612be9573d6000803e3d6000fd5b505050506040513d6020811015612bff57600080fd5b8101908080519060200190929190505050905090565b60008260050160008373ffffffffffffffffffffffffffffffffffffffff1673ffffffffffffffffffffffffffffffffffffffff16815260200190815260200160002060009054906101000a900460ff16905092915050565b6000838311158290612d1b576040517f08c379a00000000000000000000000000000000000000000000000000000000081526004018080602001828103825283818151815260200191508051906020019080838360005b83811015612ce0578082015181840152602081019050612cc5565b50505050905090810190601f168015612d0d5780820380516001836020036101000a031916815260200191505b509250505060405180910390fd5b5060008385039050809150509392505050565b6000612d408260030183600401612e4e565b9050919050565b5b600081805490501115612d995780805480612d5f57fe5b6001900381819060005260206000200160006101000a81549073ffffffffffffffffffffffffffffffffffffffff02191690559055612d48565b50565b600080600090505b8480549050811015612e46576000858281548110612dbe57fe5b9060005260206000200160009054906101000a900473ffffffffffffffffffffffffffffffffffffffff169050612e34818660008473ffffffffffffffffffffffffffffffffffffffff1673ffffffffffffffffffffffffffffffffffffffff1681526020019081526020016000205486612955565b83019250508080600101915050612da4565b509392505050565b600080600090505b8380549050811015612fa0576000848281548110612e7057fe5b9060005260206000200160009054906101000a900473ffffffffffffffffffffffffffffffffffffffff169050612ea561289d565b73ffffffffffffffffffffffffffffffffffffffff1663e47109a9828660008573ffffffffffffffffffffffffffffffffffffffff1673ffffffffffffffffffffffffffffffffffffffff168152602001908152602001600020546040518363ffffffff1660e01b8152600401808373ffffffffffffffffffffffffffffffffffffffff16815260200182815260200192505050602060405180830381600087803b158015612f5357600080fd5b505af1158015612f67573d6000803e3d6000fd5b505050506040513d6020811015612f7d57600080fd5b810190808051906020019092919050505083019250508080600101915050612e56565b509291505056fe43616c6c696e6720636f6e7472616374206973206e6f7420616e20617574686f72697a6564206d617267696e20747261646572206167656e744f776e61626c653a206e6577206f776e657220697320746865207a65726f206164647265737343616c6c696e6720636f6e7472616374206973206e6f7420616e20617574686f72697a6564206d617267696e207472616465724163636f756e742062616c616e636520697320746f6f206c6f7720746f20776974686472617743616c6c696e67206164647265737320646f65736e27742068617665206d617267696e2063616c6c657220726f6c6543616e277420626f72726f773a20696e73756666696369656e742062616c616e636543616c6c696e6720636f6e7472616374206e6f7420617574686f72697a656420746f206465706f736974a2646970667358221220695fb2b1632305fc281d8726a0ce000f8e185c3d898c0ef88395c49761e0c88d64736f6c63430007000033",
  "immutableReferences": {},
  "source": "pragma solidity ^0.7.0;\n\nimport '@openzeppelin/contracts/token/ERC20/IERC20.sol';\nimport '@openzeppelin/contracts/access/Ownable.sol';\nimport '@openzeppelin/contracts/math/SafeMath.sol';\n\nimport './Fund.sol';\nimport './Lending.sol';\nimport './RoleAware.sol';\nimport './MarginRouter.sol';\nimport './Price.sol';\n\n// Goal: all external functions only accessible to margintrader role\n// except for view functions of course\n\nstruct MarginAccount {\n    address[] borrowTokens;\n    mapping(address => uint) borrowed;\n    mapping(address => uint) borrowedYieldQuotientsFP;\n\n    address[] holdingTokens;\n    mapping(address => uint) holdings;\n    mapping(address => bool) holdsToken;\n}\n\ncontract MarginTrading is RoleAware, Ownable {\n    using SafeMath for uint;\n\n    uint public leverage;\n    uint public liquidationThresholdPercent;\n    mapping(address => MarginAccount) marginAccounts;\n\n    constructor(address _roles) RoleAware(_roles) Ownable() {\n        liquidationThresholdPercent = 20;\n    }\n\n    function getHoldingAmounts(address trader) external view returns (address[] memory holdingTokens, uint[] memory holdingAmounts) {\n        MarginAccount storage account = marginAccounts[trader];\n        holdingTokens = account.holdingTokens;\n\n        holdingAmounts = new uint[] (account.holdingTokens.length);\n        for (uint idx = 0; holdingTokens.length > idx; idx++) {\n            address tokenAddress = holdingTokens[idx];\n            holdingAmounts[idx] = account.holdings[tokenAddress];\n        }  \n    }\n\n    function setLeverage(uint _leverage) external onlyOwner {\n        leverage = _leverage;\n    }\n\n    function setLiquidationThresholdPercent(uint threshold) external onlyOwner {\n        liquidationThresholdPercent = threshold;\n    }\n\n    function registerDeposit(address trader,\n                             address token,\n                             uint depositAmount) external returns (uint extinguishableDebt) {\n        require(isMarginTrader(msg.sender), \"Calling contract not authorized to deposit\");\n        MarginAccount storage account = marginAccounts[trader];\n        addHolding(account, token, depositAmount);\n        if (account.borrowed[token] > 0) {\n            extinguishableDebt = min(depositAmount, account.borrowed[token]);\n        }\n    }\n\n    function addHolding(MarginAccount storage account, address token, uint depositAmount) internal {\n        if (!hasHoldingToken(account, token)) {\n            account.holdingTokens.push(token);\n        }\n\n        account.holdings[token] += depositAmount;\n    }\n    \n    function registerBorrow(address trader, address borrowToken, uint borrowAmount) external {\n        require(isMarginTrader(msg.sender), \"Calling contract not authorized to deposit\");\n        MarginAccount storage account = marginAccounts[trader];\n        borrow(account, borrowToken, borrowAmount);\n    }\n\n    function borrow(MarginAccount storage account, address borrowToken, uint borrowAmount) internal {\n        if (!hasBorrowedToken(account, borrowToken)) {\n            account.borrowTokens.push(borrowToken);\n            account.borrowedYieldQuotientsFP[borrowToken] = Lending(lending())\n                .viewBorrowingYield(borrowToken);\n        } else {\n            account.borrowed[borrowToken] = Lending(lending())\n                .applyBorrowInterest(account.borrowed[borrowToken],\n                                     borrowToken,\n                                     account.borrowedYieldQuotientsFP[borrowToken]);\n        }\n        account.borrowed[borrowToken] += borrowAmount;\n        addHolding(account, borrowToken, borrowAmount);\n\n        require(positiveBalance(account),\n                \"Can't borrow: insufficient balance\");\n    }\n\n\n    function registerWithdrawal(address trader, address withdrawToken, uint withdrawAmount) external {\n        require(isMarginTrader(msg.sender), \"Calling contract not authorized to deposit\");\n        MarginAccount storage account = marginAccounts[trader];\n\n        // SafeMath throws on underflow \n        account.holdings[withdrawToken] = account.holdings[withdrawToken].sub(withdrawAmount);\n        require(positiveBalance(account),\n                \"Account balance is too low to withdraw\");\n    }\n\n    function positiveBalance(MarginAccount storage account) internal returns (bool) {\n        uint loan = loanInPeg(account);\n        uint holdings = holdingsInPeg(account);\n        // The following condition should hold:\n        // holdings / loan >= (leverage + 1) / leverage\n        // =>\n        return holdings * (leverage + 1) >= loan * leverage;\n    }\n\n    function registerPayOff(address trader, address debtToken, uint extinguishAmount) external {\n        require(isMarginTrader(msg.sender), \"Calling contract not authorized to deposit\");\n        extinguishDebt(marginAccounts[trader], debtToken, extinguishAmount);\n    }\n\n    function extinguishDebt(MarginAccount storage account,\n                            address debtToken,\n                            uint extinguishAmount) internal {\n        // SafeMath will throw if insufficient funds\n        account.borrowed[debtToken] = Lending(lending())\n            .applyBorrowInterest(account.borrowed[debtToken],\n                                 debtToken,\n                                 account.borrowedYieldQuotientsFP[debtToken]);\n        account.borrowed[debtToken] = account.borrowed[debtToken].sub(extinguishAmount);\n        account.holdings[debtToken] = account.holdings[debtToken].sub(extinguishAmount);\n    }\n\n    function hasHoldingToken(MarginAccount storage account, address token) internal view returns (bool) {\n        return account.holdsToken[token];\n    }\n\n    function hasBorrowedToken(MarginAccount storage account, address token) internal view returns (bool) {\n        return account.borrowedYieldQuotientsFP[token] > 0;\n    }\n    \n    function loanInPeg(MarginAccount storage account) internal returns (uint) {\n        return sumTokensInPegWithYield(account.borrowTokens,\n                                       account.borrowed,\n                                       account.borrowedYieldQuotientsFP);\n    }\n\n    function holdingsInPeg(MarginAccount storage account) internal returns (uint) {\n        return sumTokensInPeg(account.holdingTokens, account.holdings);\n    }\n\n    function marginCallable(MarginAccount storage account) internal returns (bool) {\n        uint loan = loanInPeg(account);\n        uint holdings = holdingsInPeg(account);\n        // The following should hold:\n        // holdings / loan >= (leverage + liquidationThresholdPercent / 100) / leverage\n        // =>\n        return holdings * leverage * 100 >= (100 * leverage + liquidationThresholdPercent) * loan;\n    }\n\n    function canBorrow(MarginAccount storage account, address token, uint amount)\n        internal view returns (bool) {\n        return account.holdings[token] >= amount;\n    }\n\n    function getTradeBorrowAmount(address trader, address token, uint amount)\n        external returns (uint borrowAmount) {\n        require(isMarginTrader(msg.sender), \"Calling contract is not an authorized margin trader\");\n        MarginAccount storage account = marginAccounts[trader];\n        borrowAmount = amount - account.holdings[token];\n        require(canBorrow(account, token, borrowAmount), \"Can't borrow full amount\");\n    }\n\n    function registerTradeAndBorrow(address trader,\n                                    address tokenFrom,\n                                    address tokenTo,\n                                    uint inAmount,\n                                    uint outAmount) external returns (uint borrowAmount) {\n        require(isMarginTrader(msg.sender), \"Calling contract is not an authorized margin trader agent\");\n\n        MarginAccount storage account = marginAccounts[trader];\n        uint sellAmount = inAmount;\n        if (inAmount > account.holdings[tokenFrom]) {\n            sellAmount = account.holdings[tokenFrom];\n            borrowAmount =  inAmount - sellAmount;\n            borrow(account, tokenFrom, borrowAmount);\n        }\n        adjustAmounts(account, tokenFrom, tokenTo, sellAmount, outAmount);\n    }\n\n    function sumTokensInPeg(address[] storage tokens, mapping(address => uint) storage amounts)\n        internal returns (uint totalPeg) {\n        for (uint tokenId = 0; tokenId < tokens.length; tokenId++) {\n            address token = tokens[tokenId];\n            totalPeg += Price(price()).getUpdatedPriceInPeg(token, amounts[token]);\n        }\n    }\n    \n    function sumTokensInPegWithYield(address[] storage tokens,\n                                     mapping(address => uint) storage amounts,\n                                     mapping(address => uint) storage yieldQuotientsFP)\n        internal returns (uint totalPeg) {\n        for (uint tokenId = 0; tokenId < tokens.length; tokenId++) {\n            address token = tokens[tokenId];\n            totalPeg += yieldTokenInPeg(token, amounts[token], yieldQuotientsFP);\n        }\n    }\n\n    function yieldTokenInPeg(address token, uint amount, mapping(address => uint) storage yieldQuotientsFP)\n        internal returns (uint) {\n        uint yield = Lending(lending()).viewBorrowingYield(token);\n        // 1 * FP / FP = 1\n        uint amountInToken = (amount * yield) / yieldQuotientsFP[token];\n        return Price(price()).getUpdatedPriceInPeg(token, amountInToken);\n    }\n\n    function adjustAmounts(MarginAccount storage account,\n                           address fromToken,\n                           address toToken,\n                           uint soldAmount,\n                           uint boughtAmount) internal {\n        account.holdings[fromToken] = account.holdings[fromToken].sub(soldAmount);\n        addHolding(account, toToken, boughtAmount);\n    }\n\n    function min(uint a, uint b) internal returns (uint) {\n        if (a > b) {\n            return b;\n        } else {\n            return a;\n        }\n    }\n\n    struct Liquidation {\n        uint buy;\n        uint sell;\n        uint blockNum;\n    }\n    mapping(address => Liquidation) liquidationAmounts;\n    address[] volatileBuyTokens;\n    address[] volatileSellTokens;\n\n    function calcLiquidationAmounts(address[] memory liquidationCandidates)\n        internal returns (address[] memory sellTokens,\n                          address[] memory buyTokens,\n                          address[] memory tradersToLiquidate) {\n        for (uint traderIndex = 0; liquidationCandidates.length > traderIndex; traderIndex++) {\n            // TODO\n        }\n    }\n\n    function calcLiquidationTargetCosts(address[] memory buyTokens) internal view\n        returns (uint[] memory pegAmounts) {\n        pegAmounts = new uint[](buyTokens.length);\n        // TODO calc how much it would cost for every buy\n    }\n\n    function liquidateToPeg(address[] memory sellTokens) internal returns (uint pegAmount) {\n        for (uint tokenIndex = 0; sellTokens.length > tokenIndex; tokenIndex++) {\n            uint sellAmount = liquidationAmounts[sellTokens[tokenIndex]].sell;\n            // sell TODO\n            pegAmount += 0;\n        }\n    }\n\n    function holdings2Peg(MarginAccount storage account) internal returns (uint pegAmount) {\n        // TODO work with price module\n    }\n\n    function clearVolatileArray(address[] storage volatileTokens) internal {\n        while (volatileTokens.length > 0) {\n            volatileTokens.pop();\n        }\n    }\n\n    function updateVolatileArrays(address[] memory sellTokens, address[] memory buyTokens) internal {\n        clearVolatileArray(volatileSellTokens);\n        clearVolatileArray(volatileBuyTokens);\n\n        for (uint idx = 0; sellTokens.length > idx; idx++) {\n            // TODO check if price went down bigly and add to volatileSelltokens\n        }\n\n        for (uint idx = 0; buyTokens.length > idx; idx++) {\n            // TODO check if price went up bigly and add to volatileBuytokens\n        }\n    }\n\n    function callMargin(address[] memory liquidationCandidates) external returns (uint) {\n        require(isMarginCaller(msg.sender), \"Calling address doesn't have margin caller role\");\n\n        (address[] memory sellTokens,\n         address[] memory buyTokens,\n         address[] memory tradersToLiquidate) = calcLiquidationAmounts(liquidationCandidates);\n\n        uint sale2pegAmount = liquidateToPeg(sellTokens);\n        uint[] memory peg2targetCosts = calcLiquidationTargetCosts(buyTokens);\n        updateVolatileArrays(sellTokens, buyTokens);\n\n        uint marginCallerCut = 0;\n        for (uint traderIdx = 0; tradersToLiquidate.length > traderIdx; traderIdx++) {\n            MarginAccount storage account = marginAccounts[tradersToLiquidate[traderIdx]];\n\n            uint holdingsValue = holdings2Peg(account);\n            uint borrowValue = loanInPeg(account);\n            // half of the liquidation threshold\n            uint mcCut4account = borrowValue * liquidationThresholdPercent / 100 / leverage / 2;\n            marginCallerCut += mcCut4account;\n            if (holdingsValue >= mcCut4account + borrowValue) {\n                // TODO send back remainder to trader\n            } else {\n                uint shortfall = (borrowValue + mcCut4account) - holdingsValue;\n                // find the bag holder\n                // iterate over tokens by losses\n                // weighted sum\n                uint[] memory sellWeights = new uint[](volatileSellTokens.length);\n                uint[] memory buyWeights = new uint[](volatileBuyTokens.length);\n                uint totalWeights = 0;\n\n                for (uint sellIdx = 0; volatileSellTokens.length > sellIdx; sellIdx++) {\n                    address token = volatileSellTokens[sellIdx];\n                    if (account.holdsToken[token]) {\n                        uint maxDrop = 0; // TODO\n                        uint weight = maxDrop * Price(price()).getUpdatedPriceInPeg(token, account.holdings[token]);\n                        sellWeights[sellIdx] = weight;\n                        totalWeights += weight;\n                    }\n                }\n\n                for (uint buyIdx = 0; volatileBuyTokens.length > buyIdx; buyIdx++) {\n                    address token = volatileBuyTokens[buyIdx];\n                    if (account.borrowed[token] > 0) {\n                        uint maxRise = 0; // TODO\n                        uint weight = maxRise * yieldTokenInPeg(token,\n                                                                account.borrowed[token],\n                                                                account.borrowedYieldQuotientsFP);\n                        buyWeights[buyIdx] = weight;\n                        totalWeights += weight;\n                    }\n                }\n\n                if (totalWeights > 0) {\n                    for (uint sellIdx = 0; volatileSellTokens.length > sellIdx; sellIdx++) {\n                        if (sellWeights[sellIdx] > 0) {\n                            address token = volatileSellTokens[sellIdx];\n                            Price(price()).claimInsurance(token,\n                                                          shortfall * sellWeights[sellIdx] / totalWeights);\n                        }\n                    }\n\n                    for (uint buyIdx = 0; volatileBuyTokens.length > buyIdx; buyIdx++) {\n                        if (buyWeights[buyIdx] > 0) {\n                            address token = volatileBuyTokens[buyIdx];\n                            Price(price()).claimInsurance(token, shortfall * buyWeights[buyIdx] / totalWeights);\n                        }\n                    }\n                } else {\n                    // TODO we have a problem and either there's a bug or margin callers didn't do their job\n                    // we probably want to raise an event here, not an exception so as to not paralize margin calling\n                }\n            }\n        }\n    }\n}\n",
  "sourcePath": "/home/tixelbook/projects/marginswap-core/contracts/MarginTrading.sol",
  "compiler": {
    "name": "solc",
    "version": "0.7.0+commit.9e61f92b.Emscripten.clang"
  },
  "schemaVersion": "3.3.3",
  "updatedAt": "2021-02-14T20:31:56.224Z",
  "devdoc": {
    "kind": "dev",
    "methods": {
      "owner()": {
        "details": "Returns the address of the current owner."
      },
      "renounceOwnership()": {
        "details": "Leaves the contract without owner. It will not be possible to call `onlyOwner` functions anymore. Can only be called by the current owner. NOTE: Renouncing ownership will leave the contract without an owner, thereby removing any functionality that is only available to the owner."
      },
      "transferOwnership(address)": {
        "details": "Transfers ownership of the contract to a new account (`newOwner`). Can only be called by the current owner."
      }
    },
    "version": 1
  },
  "userdoc": {
    "kind": "user",
    "methods": {},
    "version": 1
  }
}