{
  "contractName": "Presale",
  "abi": [
    {
      "inputs": [
        {
          "internalType": "contract IERC20",
          "name": "tokenContract",
          "type": "address"
        }
      ],
      "stateMutability": "nonpayable",
      "type": "constructor"
    },
    {
      "anonymous": false,
      "inputs": [
        {
          "indexed": true,
          "internalType": "address",
          "name": "previousOwner",
          "type": "address"
        },
        {
          "indexed": true,
          "internalType": "address",
          "name": "newOwner",
          "type": "address"
        }
      ],
      "name": "OwnershipTransferred",
      "type": "event"
    },
    {
      "inputs": [],
      "name": "MFI",
      "outputs": [
        {
          "internalType": "contract IERC20",
          "name": "",
          "type": "address"
        }
      ],
      "stateMutability": "view",
      "type": "function"
    },
    {
      "inputs": [],
      "name": "dollarsPerETH",
      "outputs": [
        {
          "internalType": "uint256",
          "name": "",
          "type": "uint256"
        }
      ],
      "stateMutability": "view",
      "type": "function"
    },
    {
      "inputs": [],
      "name": "endDate",
      "outputs": [
        {
          "internalType": "uint256",
          "name": "",
          "type": "uint256"
        }
      ],
      "stateMutability": "view",
      "type": "function"
    },
    {
      "inputs": [],
      "name": "maxPerWallet",
      "outputs": [
        {
          "internalType": "uint256",
          "name": "",
          "type": "uint256"
        }
      ],
      "stateMutability": "view",
      "type": "function"
    },
    {
      "inputs": [],
      "name": "owner",
      "outputs": [
        {
          "internalType": "address",
          "name": "",
          "type": "address"
        }
      ],
      "stateMutability": "view",
      "type": "function"
    },
    {
      "inputs": [],
      "name": "presaleIssued",
      "outputs": [
        {
          "internalType": "uint256",
          "name": "",
          "type": "uint256"
        }
      ],
      "stateMutability": "view",
      "type": "function"
    },
    {
      "inputs": [],
      "name": "presaleSupply",
      "outputs": [
        {
          "internalType": "uint256",
          "name": "",
          "type": "uint256"
        }
      ],
      "stateMutability": "view",
      "type": "function"
    },
    {
      "inputs": [],
      "name": "renounceOwnership",
      "outputs": [],
      "stateMutability": "nonpayable",
      "type": "function"
    },
    {
      "inputs": [],
      "name": "startDate",
      "outputs": [
        {
          "internalType": "uint256",
          "name": "",
          "type": "uint256"
        }
      ],
      "stateMutability": "view",
      "type": "function"
    },
    {
      "inputs": [],
      "name": "tokensPerDollar",
      "outputs": [
        {
          "internalType": "uint256",
          "name": "",
          "type": "uint256"
        }
      ],
      "stateMutability": "view",
      "type": "function"
    },
    {
      "inputs": [],
      "name": "tokensPerETH",
      "outputs": [
        {
          "internalType": "uint256",
          "name": "",
          "type": "uint256"
        }
      ],
      "stateMutability": "view",
      "type": "function"
    },
    {
      "inputs": [
        {
          "internalType": "address",
          "name": "newOwner",
          "type": "address"
        }
      ],
      "name": "transferOwnership",
      "outputs": [],
      "stateMutability": "nonpayable",
      "type": "function"
    },
    {
      "stateMutability": "payable",
      "type": "receive"
    }
  ],
  "bytecode": "0x60a0604052600060015534801561001557600080fd5b50604051610d6e380380610d6e8339818101604052602081101561003857600080fd5b8101908080519060200190929190505050600061005961013460201b60201c565b9050806000806101000a81548173ffffffffffffffffffffffffffffffffffffffff021916908373ffffffffffffffffffffffffffffffffffffffff1602179055508073ffffffffffffffffffffffffffffffffffffffff16600073ffffffffffffffffffffffffffffffffffffffff167f8be0079c531659141344cd1fd0a4f28419497f9722a3daafe3b4186f6b6457e060405160405180910390a3508073ffffffffffffffffffffffffffffffffffffffff1660808173ffffffffffffffffffffffffffffffffffffffff1660601b815250505061013c565b600033905090565b60805160601c610c0b6101636000398061021f52806103cb52806109535250610c0b6000f3fe6080604052600436106100ab5760003560e01c80639ee58d5a116100645780639ee58d5a14610609578063b3a196e914610634578063c24a0f8b1461065f578063c59a56081461068a578063ed29c12b146106b5578063f2fde38b1461070c576104ea565b80630b97bc86146104ef578063245627471461051a578063453c231014610545578063650c2b2814610570578063715018a61461059b5780638da5cb5b146105b2576104ea565b366104ea574260001115610127576040517f08c379a000000000000000000000000000000000000000000000000000000000815260040180806020018281038252601a8152602001807f50726573616c65206861736e277420737461727465642079657400000000000081525060200191505060405180910390fd5b426202a30060000110156101a3576040517f08c379a000000000000000000000000000000000000000000000000000000000815260040180806020018281038252600f8152602001807f50726573616c65206973206f766572000000000000000000000000000000000081525060200191505060405180910390fd5b60006004610565023402905080600160008282540192505081905550600154624c4b40101561021d576040517f08c379a0000000000000000000000000000000000000000000000000000000008152600401808060200182810382526025815260200180610bb16025913960400191505060405180910390fd5b7f000000000000000000000000000000000000000000000000000000000000000073ffffffffffffffffffffffffffffffffffffffff166370a08231336040518263ffffffff1660e01b8152600401808273ffffffffffffffffffffffffffffffffffffffff1673ffffffffffffffffffffffffffffffffffffffff16815260200191505060206040518083038186803b1580156102ba57600080fd5b505afa1580156102ce573d6000803e3d6000fd5b505050506040513d60208110156102e457600080fd5b81019080805190602001909291905050508101600461056502678ac7230489e8000002101561037b576040517f08c379a000000000000000000000000000000000000000000000000000000000815260040180806020018281038252601a8152602001807f57616c6c65742065786365656473206d61782070726573616c6500000000000081525060200191505060405180910390fd5b61038361075d565b73ffffffffffffffffffffffffffffffffffffffff166108fc349081150290604051600060405180830381858888f193505050501580156103c8573d6000803e3d6000fd5b507f000000000000000000000000000000000000000000000000000000000000000073ffffffffffffffffffffffffffffffffffffffff166323b872dd61040d61075d565b33846040518463ffffffff1660e01b8152600401808473ffffffffffffffffffffffffffffffffffffffff1673ffffffffffffffffffffffffffffffffffffffff1681526020018373ffffffffffffffffffffffffffffffffffffffff1673ffffffffffffffffffffffffffffffffffffffff1681526020018281526020019350505050602060405180830381600087803b1580156104ab57600080fd5b505af11580156104bf573d6000803e3d6000fd5b505050506040513d60208110156104d557600080fd5b81019080805190602001909291905050505050005b600080fd5b3480156104fb57600080fd5b50610504610786565b6040518082815260200191505060405180910390f35b34801561052657600080fd5b5061052f61078b565b6040518082815260200191505060405180910390f35b34801561055157600080fd5b5061055a610794565b6040518082815260200191505060405180910390f35b34801561057c57600080fd5b506105856107a7565b6040518082815260200191505060405180910390f35b3480156105a757600080fd5b506105b06107ac565b005b3480156105be57600080fd5b506105c761075d565b604051808273ffffffffffffffffffffffffffffffffffffffff1673ffffffffffffffffffffffffffffffffffffffff16815260200191505060405180910390f35b34801561061557600080fd5b5061061e610934565b6040518082815260200191505060405180910390f35b34801561064057600080fd5b5061064961093a565b6040518082815260200191505060405180910390f35b34801561066b57600080fd5b50610674610941565b6040518082815260200191505060405180910390f35b34801561069657600080fd5b5061069f61094b565b6040518082815260200191505060405180910390f35b3480156106c157600080fd5b506106ca610951565b604051808273ffffffffffffffffffffffffffffffffffffffff1673ffffffffffffffffffffffffffffffffffffffff16815260200191505060405180910390f35b34801561071857600080fd5b5061075b6004803603602081101561072f57600080fd5b81019080803573ffffffffffffffffffffffffffffffffffffffff169060200190929190505050610975565b005b60008060009054906101000a900473ffffffffffffffffffffffffffffffffffffffff16905090565b600081565b60046105650281565b600461056502678ac7230489e800000281565b600481565b6107b4610b82565b73ffffffffffffffffffffffffffffffffffffffff166000809054906101000a900473ffffffffffffffffffffffffffffffffffffffff1673ffffffffffffffffffffffffffffffffffffffff1614610875576040517f08c379a00000000000000000000000000000000000000000000000000000000081526004018080602001828103825260208152602001807f4f776e61626c653a2063616c6c6572206973206e6f7420746865206f776e657281525060200191505060405180910390fd5b600073ffffffffffffffffffffffffffffffffffffffff166000809054906101000a900473ffffffffffffffffffffffffffffffffffffffff1673ffffffffffffffffffffffffffffffffffffffff167f8be0079c531659141344cd1fd0a4f28419497f9722a3daafe3b4186f6b6457e060405160405180910390a360008060006101000a81548173ffffffffffffffffffffffffffffffffffffffff021916908373ffffffffffffffffffffffffffffffffffffffff160217905550565b60015481565b624c4b4081565b6202a30060000181565b61056581565b7f000000000000000000000000000000000000000000000000000000000000000081565b61097d610b82565b73ffffffffffffffffffffffffffffffffffffffff166000809054906101000a900473ffffffffffffffffffffffffffffffffffffffff1673ffffffffffffffffffffffffffffffffffffffff1614610a3e576040517f08c379a00000000000000000000000000000000000000000000000000000000081526004018080602001828103825260208152602001807f4f776e61626c653a2063616c6c6572206973206e6f7420746865206f776e657281525060200191505060405180910390fd5b600073ffffffffffffffffffffffffffffffffffffffff168173ffffffffffffffffffffffffffffffffffffffff161415610ac4576040517f08c379a0000000000000000000000000000000000000000000000000000000008152600401808060200182810382526026815260200180610b8b6026913960400191505060405180910390fd5b8073ffffffffffffffffffffffffffffffffffffffff166000809054906101000a900473ffffffffffffffffffffffffffffffffffffffff1673ffffffffffffffffffffffffffffffffffffffff167f8be0079c531659141344cd1fd0a4f28419497f9722a3daafe3b4186f6b6457e060405160405180910390a3806000806101000a81548173ffffffffffffffffffffffffffffffffffffffff021916908373ffffffffffffffffffffffffffffffffffffffff16021790555050565b60003390509056fe4f776e61626c653a206e6577206f776e657220697320746865207a65726f20616464726573734e6f7420656e6f75676820746f6b656e7320696e2070726573616c6520636f6e7472616374a26469706673582212204926198f1cf80e2247e3ad509764e2fbbfc3c424b1d3f546c9fa393a13f2c05064736f6c63430006060033",
  "immutableReferences": {
    "40": [
      {
        "length": 32,
        "start": 543
      },
      {
        "length": 32,
        "start": 971
      },
      {
        "length": 32,
        "start": 2387
      }
    ]
  },
  "source": "pragma solidity >=0.4.22 <0.9.0;\n\nimport \"@openzeppelin/contracts/access/Ownable.sol\";\nimport \"@openzeppelin/contracts/token/ERC20/IERC20.sol\";\n\ncontract Presale is Ownable {\n    IERC20 public immutable MFI;\n    uint public constant presaleSupply = 5000000;\n    uint public presaleIssued = 0;\n\n    // TODO update start date\n    uint public constant startDate = 0;\n    uint public constant endDate = startDate + 2 days;\n\n    // TODO update dollarsPerEth to most recent value\n    uint public constant dollarsPerETH = 1381;\n    uint public constant tokensPerDollar = 4;\n    uint256 public constant tokensPerETH = dollarsPerETH * tokensPerDollar;\n\n    uint public constant maxPerWallet = (10 ether * tokensPerETH);\n\n    constructor(IERC20 tokenContract) public {\n        MFI = tokenContract;\n    }\n\n    receive() external payable {\n        require(startDate <= block.timestamp, \"Presale hasn't started yet\");\n        require(endDate >= block.timestamp, \"Presale is over\");\n\n        uint tokensToTransfer = msg.value * tokensPerETH;\n        presaleIssued += tokensToTransfer;\n        \n        require(presaleSupply >= presaleIssued, \"Not enough tokens in presale contract\");\n        require(maxPerWallet >= tokensToTransfer + MFI.balanceOf(msg.sender), \"Wallet exceeds max presale\");\n        \n        payable(owner()).transfer(msg.value);\n        MFI.transferFrom(owner(), msg.sender, tokensToTransfer);\n    }\n}\n",
  "sourcePath": "/home/tixelbook/projects/marginswap-core/contracts/Presale.sol",
  "compiler": {
    "name": "solc",
    "version": "0.6.6+commit.6c089d02.Emscripten.clang"
  },
  "schemaVersion": "3.3.3",
  "updatedAt": "2021-01-25T01:05:29.778Z",
  "devdoc": {
    "methods": {
      "owner()": {
        "details": "Returns the address of the current owner."
      },
      "renounceOwnership()": {
        "details": "Leaves the contract without owner. It will not be possible to call `onlyOwner` functions anymore. Can only be called by the current owner.     * NOTE: Renouncing ownership will leave the contract without an owner, thereby removing any functionality that is only available to the owner."
      },
      "transferOwnership(address)": {
        "details": "Transfers ownership of the contract to a new account (`newOwner`). Can only be called by the current owner."
      }
    }
  },
  "userdoc": {
    "methods": {}
  }
}