{
  "contractName": "Price",
  "abi": [
    {
      "inputs": [
        {
          "internalType": "address",
          "name": "_peg",
          "type": "address"
        },
        {
          "internalType": "address",
          "name": "_roles",
          "type": "address"
        }
      ],
      "stateMutability": "nonpayable",
      "type": "constructor"
    },
    {
      "inputs": [],
      "name": "peg",
      "outputs": [
        {
          "internalType": "address",
          "name": "",
          "type": "address"
        }
      ],
      "stateMutability": "view",
      "type": "function"
    },
    {
      "inputs": [],
      "name": "roles",
      "outputs": [
        {
          "internalType": "contract Roles",
          "name": "",
          "type": "address"
        }
      ],
      "stateMutability": "view",
      "type": "function"
    },
    {
      "inputs": [
        {
          "internalType": "address",
          "name": "token",
          "type": "address"
        },
        {
          "internalType": "uint256",
          "name": "inAmount",
          "type": "uint256"
        }
      ],
      "name": "getCurrentPriceInPeg",
      "outputs": [
        {
          "internalType": "uint256",
          "name": "",
          "type": "uint256"
        }
      ],
      "stateMutability": "view",
      "type": "function"
    },
    {
      "inputs": [
        {
          "internalType": "address",
          "name": "token",
          "type": "address"
        },
        {
          "internalType": "uint256",
          "name": "inAmount",
          "type": "uint256"
        }
      ],
      "name": "getUpdatedPriceInPeg",
      "outputs": [
        {
          "internalType": "uint256",
          "name": "",
          "type": "uint256"
        }
      ],
      "stateMutability": "nonpayable",
      "type": "function"
    },
    {
      "inputs": [
        {
          "internalType": "address",
          "name": "token",
          "type": "address"
        },
        {
          "internalType": "uint256",
          "name": "amount",
          "type": "uint256"
        }
      ],
      "name": "forceUpdatedPriceInPeg",
      "outputs": [
        {
          "internalType": "uint256",
          "name": "pegPrice",
          "type": "uint256"
        }
      ],
      "stateMutability": "nonpayable",
      "type": "function"
    },
    {
      "inputs": [
        {
          "internalType": "address",
          "name": "token",
          "type": "address"
        }
      ],
      "name": "getMaxDrop",
      "outputs": [
        {
          "internalType": "uint256",
          "name": "dropInPeg",
          "type": "uint256"
        }
      ],
      "stateMutability": "nonpayable",
      "type": "function"
    },
    {
      "inputs": [
        {
          "internalType": "address",
          "name": "token",
          "type": "address"
        }
      ],
      "name": "getMaxRise",
      "outputs": [
        {
          "internalType": "uint256",
          "name": "riseInPeg",
          "type": "uint256"
        }
      ],
      "stateMutability": "nonpayable",
      "type": "function"
    },
    {
      "inputs": [
        {
          "internalType": "address",
          "name": "token",
          "type": "address"
        },
        {
          "internalType": "uint256",
          "name": "claim",
          "type": "uint256"
        }
      ],
      "name": "claimInsurance",
      "outputs": [],
      "stateMutability": "nonpayable",
      "type": "function"
    },
    {
      "inputs": [
        {
          "internalType": "address[]",
          "name": "path",
          "type": "address[]"
        }
      ],
      "name": "addLiquidationPath",
      "outputs": [],
      "stateMutability": "nonpayable",
      "type": "function"
    },
    {
      "inputs": [
        {
          "internalType": "address",
          "name": "token",
          "type": "address"
        },
        {
          "internalType": "uint256",
          "name": "amount",
          "type": "uint256"
        }
      ],
      "name": "liquidateToPeg",
      "outputs": [],
      "stateMutability": "nonpayable",
      "type": "function"
    }
  ],
  "bytecode": "0x608060405234801561001057600080fd5b50604051610c29380380610c298339818101604052604081101561003357600080fd5b81019080805190602001909291908051906020019092919050505080806000806101000a81548173ffffffffffffffffffffffffffffffffffffffff021916908373ffffffffffffffffffffffffffffffffffffffff1602179055505081600160006101000a81548173ffffffffffffffffffffffffffffffffffffffff021916908373ffffffffffffffffffffffffffffffffffffffff1602179055505050610b47806100e26000396000f3fe608060405234801561001057600080fd5b506004361061009e5760003560e01c8063800a5aa411610066578063800a5aa414610213578063911565cf146102755780639db9cbf91461032d578063e47109a91461037b578063f9fb3023146103dd5761009e565b806305883f7c146100a357806312e67bc0146100f15780631f1cb62b14610149578063392f5f641461017d5780634cb77662146101b1575b600080fd5b6100ef600480360360408110156100b957600080fd5b81019080803573ffffffffffffffffffffffffffffffffffffffff16906020019092919080359060200190929190505050610435565b005b6101336004803603602081101561010757600080fd5b81019080803573ffffffffffffffffffffffffffffffffffffffff169060200190929190505050610439565b6040518082815260200191505060405180910390f35b610151610440565b604051808273ffffffffffffffffffffffffffffffffffffffff16815260200191505060405180910390f35b610185610466565b604051808273ffffffffffffffffffffffffffffffffffffffff16815260200191505060405180910390f35b6101fd600480360360408110156101c757600080fd5b81019080803573ffffffffffffffffffffffffffffffffffffffff1690602001909291908035906020019092919050505061048a565b6040518082815260200191505060405180910390f35b61025f6004803603604081101561022957600080fd5b81019080803573ffffffffffffffffffffffffffffffffffffffff16906020019092919080359060200190929190505050610569565b6040518082815260200191505060405180910390f35b61032b6004803603602081101561028b57600080fd5b81019080803590602001906401000000008111156102a857600080fd5b8201836020820111156102ba57600080fd5b803590602001918460208302840111640100000000831117156102dc57600080fd5b919080806020026020016040519081016040528093929190818152602001838360200280828437600081840152601f19601f820116905080830192505050505050509192919290505050610571565b005b6103796004803603604081101561034357600080fd5b81019080803573ffffffffffffffffffffffffffffffffffffffff16906020019092919080359060200190929190505050610574565b005b6103c76004803603604081101561039157600080fd5b81019080803573ffffffffffffffffffffffffffffffffffffffff169060200190929190803590602001909291905050506105d6565b6040518082815260200191505060405180910390f35b61041f600480360360208110156103f357600080fd5b81019080803573ffffffffffffffffffffffffffffffffffffffff16906020019092919050505061091c565b6040518082815260200191505060405180910390f35b5050565b6000919050565b600160009054906101000a900473ffffffffffffffffffffffffffffffffffffffff1681565b60008054906101000a900473ffffffffffffffffffffffffffffffffffffffff1681565b600080600260008573ffffffffffffffffffffffffffffffffffffffff1673ffffffffffffffffffffffffffffffffffffffff1681526020019081526020016000209050600181600301805490501161052e576040517f08c379a0000000000000000000000000000000000000000000000000000000008152600401808060200182810382526026815260200180610ac46026913960400191505060405180910390fd5b8060010181600201548154811061054157fe5b9060005260206000200154683635c9adc5dea0000084028161055f57fe5b0491505092915050565b600092915050565b50565b61057d33610923565b6105d2576040517f08c379a0000000000000000000000000000000000000000000000000000000008152600401808060200182810382526028815260200180610aea6028913960400191505060405180910390fd5b5050565b6000600160009054906101000a900473ffffffffffffffffffffffffffffffffffffffff1673ffffffffffffffffffffffffffffffffffffffff168373ffffffffffffffffffffffffffffffffffffffff16141561063657819050610916565b6000600260008573ffffffffffffffffffffffffffffffffffffffff1673ffffffffffffffffffffffffffffffffffffffff168152602001908152602001600020905060018160030180549050116106d9576040517f08c379a0000000000000000000000000000000000000000000000000000000008152600401808060200182810382526026815260200180610ac46026913960400191505060405180910390fd5b60606106e3610a03565b73ffffffffffffffffffffffffffffffffffffffff1663eaa095f8600086856003016040518463ffffffff1660e01b81526004018084600381111561072457fe5b81526020018381526020018060200182810382528381815481526020019150805480156107a657602002820191906000526020600020905b8160009054906101000a900473ffffffffffffffffffffffffffffffffffffffff1673ffffffffffffffffffffffffffffffffffffffff168152602001906001019080831161075c575b505094505050505060006040518083038186803b1580156107c657600080fd5b505afa1580156107da573d6000803e3d6000fd5b505050506040513d6000823e3d601f19601f82011682018060405250602081101561080457600080fd5b810190808051604051939291908464010000000082111561082457600080fd5b8382019150602082018581111561083a57600080fd5b825186602082028301116401000000008211171561085757600080fd5b8083526020830192505050908051906020019060200280838360005b8381101561088e578082015181840152602081019050610873565b5050505090500160405250505090506000816001835103815181106108af57fe5b6020026020010151905082600101805490506001846002015401816108d057fe5b0683600201819055508085683635c9adc5dea0000002816108ed57fe5b048360010184600201548154811061090157fe5b90600052602060002001819055508093505050505b92915050565b6000919050565b60008060009054906101000a900473ffffffffffffffffffffffffffffffffffffffff1673ffffffffffffffffffffffffffffffffffffffff1663a716b97f8360056040518363ffffffff1660e01b8152600401808373ffffffffffffffffffffffffffffffffffffffff1681526020018260058111156109a057fe5b81526020019250505060206040518083038186803b1580156109c157600080fd5b505afa1580156109d5573d6000803e3d6000fd5b505050506040513d60208110156109eb57600080fd5b81019080805190602001909291905050509050919050565b60008060009054906101000a900473ffffffffffffffffffffffffffffffffffffffff1673ffffffffffffffffffffffffffffffffffffffff166336214c7860026040518263ffffffff1660e01b815260040180826005811115610a6357fe5b815260200191505060206040518083038186803b158015610a8357600080fd5b505afa158015610a97573d6000803e3d6000fd5b505050506040513d6020811015610aad57600080fd5b810190808051906020019092919050505090509056fe546f6b656e20646f6573206e6f7420686176652061206c69717569646174696f6e207061746843616c6c6572206e6f7420617574686f72697a656420746f20636c61696d20696e737572616e6365a2646970667358221220a0782d35847db8df115f1650c7acf10d1233c866eaaad1f25096e69a1e87d68964736f6c63430007000033",
  "immutableReferences": {},
  "source": "import \"./RoleAware.sol\";\nimport \"./MarginRouter.sol\";\n\n// Token price with rolling window\nstruct TokenPrice {\n    uint256 blockLastUpdated;\n    uint256[] tokenPer1kHistory;\n    uint256 currentPriceIndex;\n    address[] liquidationPath;\n}\n\ncontract Price is RoleAware {\n    address public peg;\n    mapping(address => TokenPrice) tokenPrices;\n    uint256 constant PRICE_HIST_LENGTH = 30;\n\n    constructor(address _peg, address _roles) RoleAware(_roles) {\n        peg = _peg;\n    }\n\n    function getCurrentPriceInPeg(address token, uint256 inAmount)\n        external\n        view\n        returns (uint256)\n    {\n        TokenPrice storage tokenPrice = tokenPrices[token];\n        require(\n            tokenPrice.liquidationPath.length > 1,\n            \"Token does not have a liquidation path\"\n        );\n        return\n            (inAmount * 1000 ether) /\n            tokenPrice.tokenPer1kHistory[tokenPrice.currentPriceIndex];\n    }\n\n    function getUpdatedPriceInPeg(address token, uint256 inAmount)\n        external\n        returns (uint256)\n    {\n        if (token == peg) {\n            return inAmount;\n        } else {\n            TokenPrice storage tokenPrice = tokenPrices[token];\n            require(\n                tokenPrice.liquidationPath.length > 1,\n                \"Token does not have a liquidation path\"\n            );\n            uint256[] memory pathAmounts =\n                MarginRouter(router()).getAmountsOut(\n                    AMM.uni,\n                    inAmount,\n                    tokenPrice.liquidationPath\n                );\n            uint256 outAmount = pathAmounts[pathAmounts.length - 1];\n            tokenPrice.currentPriceIndex =\n                (tokenPrice.currentPriceIndex + 1) %\n                tokenPrice.tokenPer1kHistory.length;\n            tokenPrice.tokenPer1kHistory[tokenPrice.currentPriceIndex] =\n                (1000 ether * inAmount) /\n                outAmount;\n            return outAmount;\n        }\n    }\n\n    function forceUpdatedPriceInPeg(address token, uint256 amount)\n        external\n        returns (uint256 pegPrice)\n    {\n        // TODO don't check if it is already cached for this block\n        pegPrice = 0;\n    }\n\n    function getMaxDrop(address token) external returns (uint256 dropInPeg) {\n        // TODO biggest drop in price to current price\n        dropInPeg = 0;\n    }\n\n    function getMaxRise(address token) external returns (uint256 riseInPeg) {\n        // TODO\n        riseInPeg = 0;\n    }\n\n    function claimInsurance(address token, uint256 claim) external {\n        require(\n            isInsuranceClaimant(msg.sender),\n            \"Caller not authorized to claim insurance\"\n        );\n        // TODO\n    }\n\n    // add path from token to current liquidation peg (i.e. USDC)\n    function addLiquidationPath(address[] memory path) external {\n        // TODO\n        // make sure paths aren't excessively long\n    }\n\n    function liquidateToPeg(address token, uint256 amount) external {\n        // TODO require caller has liquidator role\n        // for each path:\n        // find minimum liquidity along the route\n        // set that as weight of path\n    }\n}\n",
  "sourcePath": "/home/tixelbook/projects/marginswap-core/contracts/Price.sol",
  "compiler": {
    "name": "solc",
    "version": "0.7.0+commit.9e61f92b.Emscripten.clang"
  },
  "schemaVersion": "3.3.3",
  "updatedAt": "2021-02-18T02:25:34.270Z",
  "devdoc": {
    "kind": "dev",
    "methods": {},
    "version": 1
  },
  "userdoc": {
    "kind": "user",
    "methods": {},
    "version": 1
  }
}