{
  "contractName": "Price",
  "abi": [
    {
      "inputs": [
        {
          "internalType": "address",
          "name": "_roles",
          "type": "address"
        }
      ],
      "stateMutability": "nonpayable",
      "type": "constructor"
    },
    {
      "inputs": [],
      "name": "roles",
      "outputs": [
        {
          "internalType": "contract Roles",
          "name": "",
          "type": "address"
        }
      ],
      "stateMutability": "view",
      "type": "function"
    },
    {
      "inputs": [
        {
          "internalType": "address",
          "name": "token",
          "type": "address"
        },
        {
          "internalType": "uint256",
          "name": "claim",
          "type": "uint256"
        }
      ],
      "name": "claimInsurance",
      "outputs": [],
      "stateMutability": "nonpayable",
      "type": "function"
    }
  ],
  "bytecode": "0x608060405234801561001057600080fd5b5060405161030f38038061030f8339818101604052602081101561003357600080fd5b810190808051906020019092919050505080806000806101000a81548173ffffffffffffffffffffffffffffffffffffffff021916908373ffffffffffffffffffffffffffffffffffffffff1602179055505050610279806100966000396000f3fe608060405234801561001057600080fd5b50600436106100365760003560e01c8063392f5f641461003b5780639db9cbf91461006f575b600080fd5b6100436100bd565b604051808273ffffffffffffffffffffffffffffffffffffffff16815260200191505060405180910390f35b6100bb6004803603604081101561008557600080fd5b81019080803573ffffffffffffffffffffffffffffffffffffffff169060200190929190803590602001909291905050506100e1565b005b60008054906101000a900473ffffffffffffffffffffffffffffffffffffffff1681565b6100ea33610143565b61013f576040517f08c379a000000000000000000000000000000000000000000000000000000000815260040180806020018281038252602881526020018061021c6028913960400191505060405180910390fd5b5050565b60008060009054906101000a900473ffffffffffffffffffffffffffffffffffffffff1673ffffffffffffffffffffffffffffffffffffffff1663a716b97f83606b6040518363ffffffff1660e01b8152600401808373ffffffffffffffffffffffffffffffffffffffff1681526020018260ff1681526020019250505060206040518083038186803b1580156101d957600080fd5b505afa1580156101ed573d6000803e3d6000fd5b505050506040513d602081101561020357600080fd5b8101908080519060200190929190505050905091905056fe43616c6c6572206e6f7420617574686f72697a656420746f20636c61696d20696e737572616e6365a2646970667358221220647a97bad15780a115bede97e267f7f29c7ea388fc5ae33be78a10e4a675749864736f6c63430007000033",
  "immutableReferences": {},
  "source": "import './RoleAware.sol';\n\ncontract Price is RoleAware {\n    constructor(address _roles) RoleAware(_roles) {\n\n    }\n\n    function claimInsurance(address token, uint claim) external {\n        require(isInsuranceClaimant(msg.sender), \"Caller not authorized to claim insurance\");\n        // TODO\n    }\n}\n",
  "sourcePath": "/home/tixelbook/projects/marginswap-core/contracts/Price.sol",
  "compiler": {
    "name": "solc",
    "version": "0.7.0+commit.9e61f92b.Emscripten.clang"
  },
  "schemaVersion": "3.3.3",
  "updatedAt": "2021-02-13T18:25:47.854Z",
  "devdoc": {
    "kind": "dev",
    "methods": {},
    "version": 1
  },
  "userdoc": {
    "kind": "user",
    "methods": {},
    "version": 1
  }
}