{
  "contractName": "Price",
  "abi": [
    {
      "inputs": [
        {
          "internalType": "address",
          "name": "_peg",
          "type": "address"
        },
        {
          "internalType": "address",
          "name": "_roles",
          "type": "address"
        }
      ],
      "stateMutability": "nonpayable",
      "type": "constructor"
    },
    {
      "inputs": [],
      "name": "roles",
      "outputs": [
        {
          "internalType": "contract Roles",
          "name": "",
          "type": "address"
        }
      ],
      "stateMutability": "view",
      "type": "function"
    },
    {
      "inputs": [
        {
          "internalType": "address",
          "name": "token",
          "type": "address"
        },
        {
          "internalType": "uint256",
          "name": "inAmount",
          "type": "uint256"
        }
      ],
      "name": "getCurrentPriceInPeg",
      "outputs": [
        {
          "internalType": "uint256",
          "name": "",
          "type": "uint256"
        }
      ],
      "stateMutability": "view",
      "type": "function"
    },
    {
      "inputs": [
        {
          "internalType": "address",
          "name": "token",
          "type": "address"
        },
        {
          "internalType": "uint256",
          "name": "inAmount",
          "type": "uint256"
        }
      ],
      "name": "getUpdatedPriceInPeg",
      "outputs": [
        {
          "internalType": "uint256",
          "name": "",
          "type": "uint256"
        }
      ],
      "stateMutability": "nonpayable",
      "type": "function"
    },
    {
      "inputs": [
        {
          "internalType": "address",
          "name": "token",
          "type": "address"
        },
        {
          "internalType": "uint256",
          "name": "amount",
          "type": "uint256"
        }
      ],
      "name": "forceUpdatedPriceInPeg",
      "outputs": [
        {
          "internalType": "uint256",
          "name": "pegPrice",
          "type": "uint256"
        }
      ],
      "stateMutability": "nonpayable",
      "type": "function"
    },
    {
      "inputs": [
        {
          "internalType": "address",
          "name": "token",
          "type": "address"
        }
      ],
      "name": "getMaxDrop",
      "outputs": [
        {
          "internalType": "uint256",
          "name": "dropInPeg",
          "type": "uint256"
        }
      ],
      "stateMutability": "nonpayable",
      "type": "function"
    },
    {
      "inputs": [
        {
          "internalType": "address",
          "name": "token",
          "type": "address"
        }
      ],
      "name": "getMaxRise",
      "outputs": [
        {
          "internalType": "uint256",
          "name": "riseInPeg",
          "type": "uint256"
        }
      ],
      "stateMutability": "nonpayable",
      "type": "function"
    },
    {
      "inputs": [
        {
          "internalType": "address",
          "name": "token",
          "type": "address"
        },
        {
          "internalType": "uint256",
          "name": "claim",
          "type": "uint256"
        }
      ],
      "name": "claimInsurance",
      "outputs": [],
      "stateMutability": "nonpayable",
      "type": "function"
    },
    {
      "inputs": [
        {
          "internalType": "address[]",
          "name": "path",
          "type": "address[]"
        }
      ],
      "name": "addLiquidationPath",
      "outputs": [],
      "stateMutability": "nonpayable",
      "type": "function"
    },
    {
      "inputs": [
        {
          "internalType": "address",
          "name": "token",
          "type": "address"
        },
        {
          "internalType": "uint256",
          "name": "amount",
          "type": "uint256"
        }
      ],
      "name": "liquidateToPeg",
      "outputs": [],
      "stateMutability": "nonpayable",
      "type": "function"
    }
  ],
  "bytecode": "0x608060405234801561001057600080fd5b50604051610bb4380380610bb48339818101604052604081101561003357600080fd5b81019080805190602001909291908051906020019092919050505080806000806101000a81548173ffffffffffffffffffffffffffffffffffffffff021916908373ffffffffffffffffffffffffffffffffffffffff1602179055505081600160006101000a81548173ffffffffffffffffffffffffffffffffffffffff021916908373ffffffffffffffffffffffffffffffffffffffff1602179055505050610ad2806100e26000396000f3fe608060405234801561001057600080fd5b50600436106100935760003560e01c8063800a5aa411610066578063800a5aa4146101d4578063911565cf146102365780639db9cbf9146102ee578063e47109a91461033c578063f9fb30231461039e57610093565b806305883f7c1461009857806312e67bc0146100e6578063392f5f641461013e5780634cb7766214610172575b600080fd5b6100e4600480360360408110156100ae57600080fd5b81019080803573ffffffffffffffffffffffffffffffffffffffff169060200190929190803590602001909291905050506103f6565b005b610128600480360360208110156100fc57600080fd5b81019080803573ffffffffffffffffffffffffffffffffffffffff1690602001909291905050506103fa565b6040518082815260200191505060405180910390f35b610146610401565b604051808273ffffffffffffffffffffffffffffffffffffffff16815260200191505060405180910390f35b6101be6004803603604081101561018857600080fd5b81019080803573ffffffffffffffffffffffffffffffffffffffff16906020019092919080359060200190929190505050610425565b6040518082815260200191505060405180910390f35b610220600480360360408110156101ea57600080fd5b81019080803573ffffffffffffffffffffffffffffffffffffffff16906020019092919080359060200190929190505050610504565b6040518082815260200191505060405180910390f35b6102ec6004803603602081101561024c57600080fd5b810190808035906020019064010000000081111561026957600080fd5b82018360208201111561027b57600080fd5b8035906020019184602083028401116401000000008311171561029d57600080fd5b919080806020026020016040519081016040528093929190818152602001838360200280828437600081840152601f19601f82011690508083019250505050505050919291929050505061050c565b005b61033a6004803603604081101561030457600080fd5b81019080803573ffffffffffffffffffffffffffffffffffffffff1690602001909291908035906020019092919050505061050f565b005b6103886004803603604081101561035257600080fd5b81019080803573ffffffffffffffffffffffffffffffffffffffff16906020019092919080359060200190929190505050610571565b6040518082815260200191505060405180910390f35b6103e0600480360360208110156103b457600080fd5b81019080803573ffffffffffffffffffffffffffffffffffffffff1690602001909291905050506108b7565b6040518082815260200191505060405180910390f35b5050565b6000919050565b60008054906101000a900473ffffffffffffffffffffffffffffffffffffffff1681565b600080600260008573ffffffffffffffffffffffffffffffffffffffff1673ffffffffffffffffffffffffffffffffffffffff168152602001908152602001600020905060018160030180549050116104c9576040517f08c379a0000000000000000000000000000000000000000000000000000000008152600401808060200182810382526026815260200180610a4f6026913960400191505060405180910390fd5b806001018160020154815481106104dc57fe5b9060005260206000200154683635c9adc5dea000008402816104fa57fe5b0491505092915050565b600092915050565b50565b610518336108be565b61056d576040517f08c379a0000000000000000000000000000000000000000000000000000000008152600401808060200182810382526028815260200180610a756028913960400191505060405180910390fd5b5050565b6000600160009054906101000a900473ffffffffffffffffffffffffffffffffffffffff1673ffffffffffffffffffffffffffffffffffffffff168373ffffffffffffffffffffffffffffffffffffffff1614156105d1578190506108b1565b6000600260008573ffffffffffffffffffffffffffffffffffffffff1673ffffffffffffffffffffffffffffffffffffffff16815260200190815260200160002090506001816003018054905011610674576040517f08c379a0000000000000000000000000000000000000000000000000000000008152600401808060200182810382526026815260200180610a4f6026913960400191505060405180910390fd5b606061067e610996565b73ffffffffffffffffffffffffffffffffffffffff1663eaa095f8600086856003016040518463ffffffff1660e01b8152600401808460038111156106bf57fe5b815260200183815260200180602001828103825283818154815260200191508054801561074157602002820191906000526020600020905b8160009054906101000a900473ffffffffffffffffffffffffffffffffffffffff1673ffffffffffffffffffffffffffffffffffffffff16815260200190600101908083116106f7575b505094505050505060006040518083038186803b15801561076157600080fd5b505afa158015610775573d6000803e3d6000fd5b505050506040513d6000823e3d601f19601f82011682018060405250602081101561079f57600080fd5b81019080805160405193929190846401000000008211156107bf57600080fd5b838201915060208201858111156107d557600080fd5b82518660208202830111640100000000821117156107f257600080fd5b8083526020830192505050908051906020019060200280838360005b8381101561082957808201518184015260208101905061080e565b50505050905001604052505050905060008160018351038151811061084a57fe5b60200260200101519050826001018054905060018460020154018161086b57fe5b0683600201819055508085683635c9adc5dea00000028161088857fe5b048360010184600201548154811061089c57fe5b90600052602060002001819055508093505050505b92915050565b6000919050565b60008060009054906101000a900473ffffffffffffffffffffffffffffffffffffffff1673ffffffffffffffffffffffffffffffffffffffff1663a716b97f83606b6040518363ffffffff1660e01b8152600401808373ffffffffffffffffffffffffffffffffffffffff1681526020018260ff1681526020019250505060206040518083038186803b15801561095457600080fd5b505afa158015610968573d6000803e3d6000fd5b505050506040513d602081101561097e57600080fd5b81019080805190602001909291905050509050919050565b60008060009054906101000a900473ffffffffffffffffffffffffffffffffffffffff1673ffffffffffffffffffffffffffffffffffffffff166336214c7860036040518263ffffffff1660e01b8152600401808260ff16815260200191505060206040518083038186803b158015610a0e57600080fd5b505afa158015610a22573d6000803e3d6000fd5b505050506040513d6020811015610a3857600080fd5b810190808051906020019092919050505090509056fe546f6b656e20646f6573206e6f7420686176652061206c69717569646174696f6e207061746843616c6c6572206e6f7420617574686f72697a656420746f20636c61696d20696e737572616e6365a26469706673582212207ee669e7738b1fac9a507d1ea9c56d8ad084c10d8bb5ef995b9133e03865270064736f6c63430007000033",
  "immutableReferences": {},
  "source": "import './RoleAware.sol';\nimport './MarginRouter.sol';\n\n// Token price with rolling window\nstruct TokenPrice {\n    uint blockLastUpdated;\n    uint[] tokenPer1kHistory;\n    uint currentPriceIndex;\n    address[] liquidationPath;\n}\n\ncontract Price is RoleAware {\n    address peg;\n    mapping(address => TokenPrice) tokenPrices;\n    uint constant PRICE_HIST_LENGTH = 30;\n\n    constructor(address _peg, address _roles) RoleAware(_roles) {\n        peg = _peg;\n    }\n\n    function getCurrentPriceInPeg(address token, uint inAmount) external view returns (uint) {\n        TokenPrice storage tokenPrice = tokenPrices[token];\n        require(tokenPrice.liquidationPath.length > 1, \"Token does not have a liquidation path\");\n        return inAmount * 1000 ether / tokenPrice.tokenPer1kHistory[tokenPrice.currentPriceIndex];\n    }\n\n    function getUpdatedPriceInPeg(address token, uint inAmount) external returns (uint) {\n        if (token == peg) {\n            return inAmount;\n        } else {\n            TokenPrice storage tokenPrice = tokenPrices[token];\n            require(tokenPrice.liquidationPath.length > 1, \"Token does not have a liquidation path\");\n            uint[] memory pathAmounts = MarginRouter(router()).getAmountsOut(AMM.uni, inAmount, tokenPrice.liquidationPath);\n            uint outAmount = pathAmounts[pathAmounts.length - 1];\n            tokenPrice.currentPriceIndex = (tokenPrice.currentPriceIndex + 1) % tokenPrice.tokenPer1kHistory.length;\n            tokenPrice.tokenPer1kHistory[tokenPrice.currentPriceIndex] = 1000 ether * inAmount / outAmount;\n            return outAmount;\n        }\n    }\n\n    function forceUpdatedPriceInPeg(address token, uint amount) external returns (uint pegPrice) {\n        // TODO don't check if it is already cached for this block\n        pegPrice = 0;\n    }\n\n    function getMaxDrop(address token) external returns (uint dropInPeg) {\n        // TODO biggest drop in price to current price\n        dropInPeg = 0;\n    }\n\n    function getMaxRise(address token) external returns (uint riseInPeg) {\n        // TODO\n        riseInPeg = 0;\n    }\n\n    function claimInsurance(address token, uint claim) external {\n        require(isInsuranceClaimant(msg.sender), \"Caller not authorized to claim insurance\");\n        // TODO\n    }\n\n    // add path from token to current liquidation peg (i.e. USDC)\n    function addLiquidationPath(address[] memory path) external {\n        // TODO\n        // make sure paths aren't excessively long\n    }\n\n    function liquidateToPeg(address token, uint amount) external {\n        // TODO require caller has liquidator role\n        // for each path:\n        // find minimum liquidity along the route\n        // set that as weight of path\n    }\n}\n",
  "sourcePath": "/home/tixelbook/projects/marginswap-core/contracts/Price.sol",
  "compiler": {
    "name": "solc",
    "version": "0.7.0+commit.9e61f92b.Emscripten.clang"
  },
  "schemaVersion": "3.3.3",
  "updatedAt": "2021-02-14T20:31:56.283Z",
  "devdoc": {
    "kind": "dev",
    "methods": {},
    "version": 1
  },
  "userdoc": {
    "kind": "user",
    "methods": {},
    "version": 1
  }
}