{
  "contractName": "Price",
  "abi": [
    {
      "inputs": [
        {
          "internalType": "address",
          "name": "_roles",
          "type": "address"
        }
      ],
      "stateMutability": "nonpayable",
      "type": "constructor"
    },
    {
      "inputs": [],
      "name": "roles",
      "outputs": [
        {
          "internalType": "contract Roles",
          "name": "",
          "type": "address"
        }
      ],
      "stateMutability": "view",
      "type": "function"
    },
    {
      "inputs": [
        {
          "internalType": "address",
          "name": "token",
          "type": "address"
        },
        {
          "internalType": "uint256",
          "name": "amount",
          "type": "uint256"
        }
      ],
      "name": "getUpdatedPriceInPeg",
      "outputs": [
        {
          "internalType": "uint256",
          "name": "pegPrice",
          "type": "uint256"
        }
      ],
      "stateMutability": "nonpayable",
      "type": "function"
    },
    {
      "inputs": [
        {
          "internalType": "address",
          "name": "token",
          "type": "address"
        },
        {
          "internalType": "uint256",
          "name": "amount",
          "type": "uint256"
        }
      ],
      "name": "forceUpdatedPriceInPeg",
      "outputs": [
        {
          "internalType": "uint256",
          "name": "pegPrice",
          "type": "uint256"
        }
      ],
      "stateMutability": "nonpayable",
      "type": "function"
    },
    {
      "inputs": [
        {
          "internalType": "address",
          "name": "token",
          "type": "address"
        }
      ],
      "name": "getMaxDrop",
      "outputs": [
        {
          "internalType": "uint256",
          "name": "dropInPeg",
          "type": "uint256"
        }
      ],
      "stateMutability": "nonpayable",
      "type": "function"
    },
    {
      "inputs": [
        {
          "internalType": "address",
          "name": "token",
          "type": "address"
        }
      ],
      "name": "getMaxRise",
      "outputs": [
        {
          "internalType": "uint256",
          "name": "riseInPeg",
          "type": "uint256"
        }
      ],
      "stateMutability": "nonpayable",
      "type": "function"
    },
    {
      "inputs": [
        {
          "internalType": "address",
          "name": "token",
          "type": "address"
        },
        {
          "internalType": "uint256",
          "name": "claim",
          "type": "uint256"
        }
      ],
      "name": "claimInsurance",
      "outputs": [],
      "stateMutability": "nonpayable",
      "type": "function"
    },
    {
      "inputs": [
        {
          "internalType": "address[]",
          "name": "path",
          "type": "address[]"
        }
      ],
      "name": "addLiquidationPath",
      "outputs": [],
      "stateMutability": "nonpayable",
      "type": "function"
    },
    {
      "inputs": [
        {
          "internalType": "address",
          "name": "token",
          "type": "address"
        },
        {
          "internalType": "uint256",
          "name": "amount",
          "type": "uint256"
        }
      ],
      "name": "liquidateToPeg",
      "outputs": [],
      "stateMutability": "nonpayable",
      "type": "function"
    }
  ],
  "bytecode": "0x608060405234801561001057600080fd5b506040516106003803806106008339818101604052602081101561003357600080fd5b810190808051906020019092919050505080806000806101000a81548173ffffffffffffffffffffffffffffffffffffffff021916908373ffffffffffffffffffffffffffffffffffffffff160217905550505061056a806100966000396000f3fe608060405234801561001057600080fd5b50600436106100885760003560e01c8063911565cf1161005b578063911565cf146101c95780639db9cbf914610281578063e47109a9146102cf578063f9fb30231461033157610088565b806305883f7c1461008d57806312e67bc0146100db578063392f5f6414610133578063800a5aa414610167575b600080fd5b6100d9600480360360408110156100a357600080fd5b81019080803573ffffffffffffffffffffffffffffffffffffffff16906020019092919080359060200190929190505050610389565b005b61011d600480360360208110156100f157600080fd5b81019080803573ffffffffffffffffffffffffffffffffffffffff16906020019092919050505061038d565b6040518082815260200191505060405180910390f35b61013b610394565b604051808273ffffffffffffffffffffffffffffffffffffffff16815260200191505060405180910390f35b6101b36004803603604081101561017d57600080fd5b81019080803573ffffffffffffffffffffffffffffffffffffffff169060200190929190803590602001909291905050506103b8565b6040518082815260200191505060405180910390f35b61027f600480360360208110156101df57600080fd5b81019080803590602001906401000000008111156101fc57600080fd5b82018360208201111561020e57600080fd5b8035906020019184602083028401116401000000008311171561023057600080fd5b919080806020026020016040519081016040528093929190818152602001838360200280828437600081840152601f19601f8201169050808301925050505050505091929192905050506103c0565b005b6102cd6004803603604081101561029757600080fd5b81019080803573ffffffffffffffffffffffffffffffffffffffff169060200190929190803590602001909291905050506103c3565b005b61031b600480360360408110156102e557600080fd5b81019080803573ffffffffffffffffffffffffffffffffffffffff16906020019092919080359060200190929190505050610425565b6040518082815260200191505060405180910390f35b6103736004803603602081101561034757600080fd5b81019080803573ffffffffffffffffffffffffffffffffffffffff16906020019092919050505061042d565b6040518082815260200191505060405180910390f35b5050565b6000919050565b60008054906101000a900473ffffffffffffffffffffffffffffffffffffffff1681565b600092915050565b50565b6103cc33610434565b610421576040517f08c379a000000000000000000000000000000000000000000000000000000000815260040180806020018281038252602881526020018061050d6028913960400191505060405180910390fd5b5050565b600092915050565b6000919050565b60008060009054906101000a900473ffffffffffffffffffffffffffffffffffffffff1673ffffffffffffffffffffffffffffffffffffffff1663a716b97f83606b6040518363ffffffff1660e01b8152600401808373ffffffffffffffffffffffffffffffffffffffff1681526020018260ff1681526020019250505060206040518083038186803b1580156104ca57600080fd5b505afa1580156104de573d6000803e3d6000fd5b505050506040513d60208110156104f457600080fd5b8101908080519060200190929190505050905091905056fe43616c6c6572206e6f7420617574686f72697a656420746f20636c61696d20696e737572616e6365a26469706673582212202c167956dc84a38f9c8569a490e62cec598b1c98177c04b10c4f6c651a6dbe8264736f6c63430007000033",
  "immutableReferences": {},
  "source": "import './RoleAware.sol';\n\n// Token price with rolling window\nstruct TokenPrice {\n    uint blockLastUpdated;\n    uint[] priceHistory;\n    uint8 currentPriceIndex;\n}\n\ncontract Price is RoleAware {\n    constructor(address _roles) RoleAware(_roles) {\n\n    }\n\n    function getUpdatedPriceInPeg(address token, uint amount) external returns (uint pegPrice) {\n        // TODO take minimum of 1000 USD or input amount\n        pegPrice = 0;\n    }\n\n    function forceUpdatedPriceInPeg(address token, uint amount) external returns (uint pegPrice) {\n        // TODO don't check if it is already cached for this block\n        pegPrice = 0;\n    }\n\n    function getMaxDrop(address token) external returns (uint dropInPeg) {\n        // TODO biggest drop in price to current price\n        dropInPeg = 0;\n    }\n\n    function getMaxRise(address token) external returns (uint riseInPeg) {\n        // TODO\n        riseInPeg = 0;\n    }\n\n    function claimInsurance(address token, uint claim) external {\n        require(isInsuranceClaimant(msg.sender), \"Caller not authorized to claim insurance\");\n        // TODO\n    }\n\n    // add path from token to current liquidation peg (i.e. USDC)\n    function addLiquidationPath(address[] memory path) external {\n        // TODO\n        // make sure paths aren't excessively long\n    }\n\n    function liquidateToPeg(address token, uint amount) external {\n        // TODO require caller has liquidator role\n        // for each path:\n        // find minimum liquidity along the route\n        // set that as weight of path\n    }\n}\n",
  "sourcePath": "/home/vaer/src/marginswap/marginswap-core/contracts/Price.sol",
  "compiler": {
    "name": "solc",
    "version": "0.7.0+commit.9e61f92b.Emscripten.clang"
  },
  "schemaVersion": "3.3.4",
  "updatedAt": "2021-02-16T22:48:06.880Z",
  "devdoc": {
    "kind": "dev",
    "methods": {},
    "version": 1
  },
  "userdoc": {
    "kind": "user",
    "methods": {},
    "version": 1
  }
}