{
  "contractName": "Price",
  "abi": [
    {
      "inputs": [
        {
          "internalType": "address",
          "name": "_peg",
          "type": "address"
        },
        {
          "internalType": "address",
          "name": "_roles",
          "type": "address"
        }
      ],
      "stateMutability": "nonpayable",
      "type": "constructor"
    },
    {
      "inputs": [],
      "name": "peg",
      "outputs": [
        {
          "internalType": "address",
          "name": "",
          "type": "address"
        }
      ],
      "stateMutability": "view",
      "type": "function"
    },
    {
      "inputs": [],
      "name": "roles",
      "outputs": [
        {
          "internalType": "contract Roles",
          "name": "",
          "type": "address"
        }
      ],
      "stateMutability": "view",
      "type": "function"
    },
    {
      "inputs": [
        {
          "internalType": "address",
          "name": "token",
          "type": "address"
        },
        {
          "internalType": "uint256",
          "name": "inAmount",
          "type": "uint256"
        }
      ],
      "name": "getCurrentPriceInPeg",
      "outputs": [
        {
          "internalType": "uint256",
          "name": "",
          "type": "uint256"
        }
      ],
      "stateMutability": "view",
      "type": "function"
    },
    {
      "inputs": [
        {
          "internalType": "address",
          "name": "token",
          "type": "address"
        },
        {
          "internalType": "uint256",
          "name": "inAmount",
          "type": "uint256"
        }
      ],
      "name": "getUpdatedPriceInPeg",
      "outputs": [
        {
          "internalType": "uint256",
          "name": "",
          "type": "uint256"
        }
      ],
      "stateMutability": "nonpayable",
      "type": "function"
    },
    {
      "inputs": [
        {
          "internalType": "address",
          "name": "token",
          "type": "address"
        },
        {
          "internalType": "uint256",
          "name": "outAmount",
          "type": "uint256"
        }
      ],
      "name": "getCostInPeg",
      "outputs": [
        {
          "internalType": "uint256",
          "name": "",
          "type": "uint256"
        }
      ],
      "stateMutability": "view",
      "type": "function"
    },
    {
      "inputs": [
        {
          "internalType": "address",
          "name": "token",
          "type": "address"
        },
        {
          "internalType": "uint256",
          "name": "amount",
          "type": "uint256"
        }
      ],
      "name": "forceUpdatedPriceInPeg",
      "outputs": [
        {
          "internalType": "uint256",
          "name": "pegPrice",
          "type": "uint256"
        }
      ],
      "stateMutability": "nonpayable",
      "type": "function"
    },
    {
      "inputs": [
        {
          "internalType": "address",
          "name": "token",
          "type": "address"
        }
      ],
      "name": "getMaxDrop",
      "outputs": [
        {
          "internalType": "uint256",
          "name": "dropInPeg",
          "type": "uint256"
        }
      ],
      "stateMutability": "nonpayable",
      "type": "function"
    },
    {
      "inputs": [
        {
          "internalType": "address",
          "name": "token",
          "type": "address"
        }
      ],
      "name": "getMaxRise",
      "outputs": [
        {
          "internalType": "uint256",
          "name": "riseInPeg",
          "type": "uint256"
        }
      ],
      "stateMutability": "nonpayable",
      "type": "function"
    },
    {
      "inputs": [
        {
          "internalType": "address",
          "name": "token",
          "type": "address"
        },
        {
          "internalType": "uint256",
          "name": "claim",
          "type": "uint256"
        }
      ],
      "name": "claimInsurance",
      "outputs": [],
      "stateMutability": "nonpayable",
      "type": "function"
    },
    {
      "inputs": [
        {
          "internalType": "address[]",
          "name": "path",
          "type": "address[]"
        }
      ],
      "name": "addLiquidationPath",
      "outputs": [],
      "stateMutability": "nonpayable",
      "type": "function"
    },
    {
      "inputs": [
        {
          "internalType": "address",
          "name": "token",
          "type": "address"
        },
        {
          "internalType": "uint256",
          "name": "amount",
          "type": "uint256"
        }
      ],
      "name": "liquidateToPeg",
      "outputs": [],
      "stateMutability": "nonpayable",
      "type": "function"
    }
  ],
  "bytecode": "0x608060405234801561001057600080fd5b50604051610f83380380610f838339818101604052604081101561003357600080fd5b81019080805190602001909291908051906020019092919050505080806000806101000a81548173ffffffffffffffffffffffffffffffffffffffff021916908373ffffffffffffffffffffffffffffffffffffffff1602179055505081600160006101000a81548173ffffffffffffffffffffffffffffffffffffffff021916908373ffffffffffffffffffffffffffffffffffffffff1602179055505050610ea1806100e26000396000f3fe608060405234801561001057600080fd5b50600436106100a95760003560e01c8063800a5aa411610071578063800a5aa41461021e578063911565cf146102805780639db9cbf914610338578063e47109a914610386578063e62db160146103e8578063f9fb30231461044a576100a9565b806305883f7c146100ae57806312e67bc0146100fc5780631f1cb62b14610154578063392f5f64146101885780634cb77662146101bc575b600080fd5b6100fa600480360360408110156100c457600080fd5b81019080803573ffffffffffffffffffffffffffffffffffffffff169060200190929190803590602001909291905050506104a2565b005b61013e6004803603602081101561011257600080fd5b81019080803573ffffffffffffffffffffffffffffffffffffffff1690602001909291905050506104a6565b6040518082815260200191505060405180910390f35b61015c6104ad565b604051808273ffffffffffffffffffffffffffffffffffffffff16815260200191505060405180910390f35b6101906104d3565b604051808273ffffffffffffffffffffffffffffffffffffffff16815260200191505060405180910390f35b610208600480360360408110156101d257600080fd5b81019080803573ffffffffffffffffffffffffffffffffffffffff169060200190929190803590602001909291905050506104f7565b6040518082815260200191505060405180910390f35b61026a6004803603604081101561023457600080fd5b81019080803573ffffffffffffffffffffffffffffffffffffffff169060200190929190803590602001909291905050506105d6565b6040518082815260200191505060405180910390f35b6103366004803603602081101561029657600080fd5b81019080803590602001906401000000008111156102b357600080fd5b8201836020820111156102c557600080fd5b803590602001918460208302840111640100000000831117156102e757600080fd5b919080806020026020016040519081016040528093929190818152602001838360200280828437600081840152601f19601f8201169050808301925050505050505091929192905050506105de565b005b6103846004803603604081101561034e57600080fd5b81019080803573ffffffffffffffffffffffffffffffffffffffff169060200190929190803590602001909291905050506105e1565b005b6103d26004803603604081101561039c57600080fd5b81019080803573ffffffffffffffffffffffffffffffffffffffff16906020019092919080359060200190929190505050610643565b6040518082815260200191505060405180910390f35b610434600480360360408110156103fe57600080fd5b81019080803573ffffffffffffffffffffffffffffffffffffffff16906020019092919080359060200190929190505050610989565b6040518082815260200191505060405180910390f35b61048c6004803603602081101561046057600080fd5b81019080803573ffffffffffffffffffffffffffffffffffffffff169060200190929190505050610c76565b6040518082815260200191505060405180910390f35b5050565b6000919050565b600160009054906101000a900473ffffffffffffffffffffffffffffffffffffffff1681565b60008054906101000a900473ffffffffffffffffffffffffffffffffffffffff1681565b600080600260008573ffffffffffffffffffffffffffffffffffffffff1673ffffffffffffffffffffffffffffffffffffffff1681526020019081526020016000209050600181600301805490501161059b576040517f08c379a0000000000000000000000000000000000000000000000000000000008152600401808060200182810382526026815260200180610e1e6026913960400191505060405180910390fd5b806001018160020154815481106105ae57fe5b9060005260206000200154683635c9adc5dea000008402816105cc57fe5b0491505092915050565b600092915050565b50565b6105ea33610c7d565b61063f576040517f08c379a0000000000000000000000000000000000000000000000000000000008152600401808060200182810382526028815260200180610e446028913960400191505060405180910390fd5b5050565b6000600160009054906101000a900473ffffffffffffffffffffffffffffffffffffffff1673ffffffffffffffffffffffffffffffffffffffff168373ffffffffffffffffffffffffffffffffffffffff1614156106a357819050610983565b6000600260008573ffffffffffffffffffffffffffffffffffffffff1673ffffffffffffffffffffffffffffffffffffffff16815260200190815260200160002090506001816003018054905011610746576040517f08c379a0000000000000000000000000000000000000000000000000000000008152600401808060200182810382526026815260200180610e1e6026913960400191505060405180910390fd5b6060610750610d5d565b73ffffffffffffffffffffffffffffffffffffffff1663eaa095f8600086856003016040518463ffffffff1660e01b81526004018084600381111561079157fe5b815260200183815260200180602001828103825283818154815260200191508054801561081357602002820191906000526020600020905b8160009054906101000a900473ffffffffffffffffffffffffffffffffffffffff1673ffffffffffffffffffffffffffffffffffffffff16815260200190600101908083116107c9575b505094505050505060006040518083038186803b15801561083357600080fd5b505afa158015610847573d6000803e3d6000fd5b505050506040513d6000823e3d601f19601f82011682018060405250602081101561087157600080fd5b810190808051604051939291908464010000000082111561089157600080fd5b838201915060208201858111156108a757600080fd5b82518660208202830111640100000000821117156108c457600080fd5b8083526020830192505050908051906020019060200280838360005b838110156108fb5780820151818401526020810190506108e0565b50505050905001604052505050905060008160018351038151811061091c57fe5b60200260200101519050826001018054905060018460020154018161093d57fe5b0683600201819055508085683635c9adc5dea00000028161095a57fe5b048360010184600201548154811061096e57fe5b90600052602060002001819055508093505050505b92915050565b6000600160009054906101000a900473ffffffffffffffffffffffffffffffffffffffff1673ffffffffffffffffffffffffffffffffffffffff168373ffffffffffffffffffffffffffffffffffffffff1614156109e957819050610c70565b6000600260008573ffffffffffffffffffffffffffffffffffffffff1673ffffffffffffffffffffffffffffffffffffffff16815260200190815260200160002090506001816004018054905011610a8c576040517f08c379a0000000000000000000000000000000000000000000000000000000008152600401808060200182810382526026815260200180610e1e6026913960400191505060405180910390fd5b6060610a96610d5d565b73ffffffffffffffffffffffffffffffffffffffff166390b931ed600086856004016040518463ffffffff1660e01b815260040180846003811115610ad757fe5b8152602001838152602001806020018281038252838181548152602001915080548015610b5957602002820191906000526020600020905b8160009054906101000a900473ffffffffffffffffffffffffffffffffffffffff1673ffffffffffffffffffffffffffffffffffffffff1681526020019060010190808311610b0f575b505094505050505060006040518083038186803b158015610b7957600080fd5b505afa158015610b8d573d6000803e3d6000fd5b505050506040513d6000823e3d601f19601f820116820180604052506020811015610bb757600080fd5b8101908080516040519392919084640100000000821115610bd757600080fd5b83820191506020820185811115610bed57600080fd5b8251866020820283011164010000000082111715610c0a57600080fd5b8083526020830192505050908051906020019060200280838360005b83811015610c41578082015181840152602081019050610c26565b505050509050016040525050509050600081600081518110610c5f57fe5b602002602001015190508093505050505b92915050565b6000919050565b60008060009054906101000a900473ffffffffffffffffffffffffffffffffffffffff1673ffffffffffffffffffffffffffffffffffffffff1663a716b97f8360056040518363ffffffff1660e01b8152600401808373ffffffffffffffffffffffffffffffffffffffff168152602001826005811115610cfa57fe5b81526020019250505060206040518083038186803b158015610d1b57600080fd5b505afa158015610d2f573d6000803e3d6000fd5b505050506040513d6020811015610d4557600080fd5b81019080805190602001909291905050509050919050565b60008060009054906101000a900473ffffffffffffffffffffffffffffffffffffffff1673ffffffffffffffffffffffffffffffffffffffff166336214c7860026040518263ffffffff1660e01b815260040180826005811115610dbd57fe5b815260200191505060206040518083038186803b158015610ddd57600080fd5b505afa158015610df1573d6000803e3d6000fd5b505050506040513d6020811015610e0757600080fd5b810190808051906020019092919050505090509056fe546f6b656e20646f6573206e6f7420686176652061206c69717569646174696f6e207061746843616c6c6572206e6f7420617574686f72697a656420746f20636c61696d20696e737572616e6365a264697066735822122095226a60d5bb03c364bb151632d5540f34e3233cfa2ad66a490d0f9b738f5ee464736f6c63430007000033",
  "immutableReferences": {},
  "source": "import \"./RoleAware.sol\";\nimport \"./MarginRouter.sol\";\n\n// Token price with rolling window\nstruct TokenPrice {\n    uint256 blockLastUpdated;\n    uint256[] tokenPer1kHistory;\n    uint256 currentPriceIndex;\n    address[] liquidationPath;\n    address[] inverseLiquidationPath;\n}\n\ncontract Price is RoleAware {\n    address public peg;\n    mapping(address => TokenPrice) tokenPrices;\n    uint256 constant PRICE_HIST_LENGTH = 30;\n\n    constructor(address _peg, address _roles) RoleAware(_roles) {\n        peg = _peg;\n    }\n\n    function getCurrentPriceInPeg(address token, uint256 inAmount)\n        external\n        view\n        returns (uint256)\n    {\n        TokenPrice storage tokenPrice = tokenPrices[token];\n        require(\n            tokenPrice.liquidationPath.length > 1,\n            \"Token does not have a liquidation path\"\n        );\n        return\n            (inAmount * 1000 ether) /\n            tokenPrice.tokenPer1kHistory[tokenPrice.currentPriceIndex];\n    }\n\n    function getUpdatedPriceInPeg(address token, uint256 inAmount)\n        external\n        returns (uint256)\n    {\n        if (token == peg) {\n            return inAmount;\n        } else {\n            TokenPrice storage tokenPrice = tokenPrices[token];\n            require(\n                tokenPrice.liquidationPath.length > 1,\n                \"Token does not have a liquidation path\"\n            );\n            uint256[] memory pathAmounts =\n                MarginRouter(router()).getAmountsOut(\n                    AMM.uni,\n                    inAmount,\n                    tokenPrice.liquidationPath\n                );\n            uint256 outAmount = pathAmounts[pathAmounts.length - 1];\n            tokenPrice.currentPriceIndex =\n                (tokenPrice.currentPriceIndex + 1) %\n                tokenPrice.tokenPer1kHistory.length;\n            tokenPrice.tokenPer1kHistory[tokenPrice.currentPriceIndex] =\n                (1000 ether * inAmount) /\n                outAmount;\n            return outAmount;\n        }\n    }\n\n    // TODO rename to amounts in / out\n    function getCostInPeg(address token, uint outAmount) external view returns (uint) {\n        if (token == peg) {\n            return outAmount;\n        } else {\n            TokenPrice storage tokenPrice = tokenPrices[token];\n            require(\n                    tokenPrice.inverseLiquidationPath.length > 1,\n                    \"Token does not have a liquidation path\"\n                    );\n            \n            uint256[] memory pathAmounts =\n                MarginRouter(router()).getAmountsIn(\n                    AMM.uni,\n                    outAmount,\n                    tokenPrice.inverseLiquidationPath\n                );\n            uint256 inAmount = pathAmounts[0];\n            return inAmount;\n        }\n    }\n\n    function forceUpdatedPriceInPeg(address token, uint256 amount)\n        external\n        returns (uint256 pegPrice)\n    {\n        // TODO don't check if it is already cached for this block\n        pegPrice = 0;\n    }\n\n    function getMaxDrop(address token) external returns (uint256 dropInPeg) {\n        // TODO biggest drop in price to current price\n        dropInPeg = 0;\n    }\n\n    function getMaxRise(address token) external returns (uint256 riseInPeg) {\n        // TODO\n        riseInPeg = 0;\n    }\n    \n    function claimInsurance(address token, uint256 claim) external {\n        require(\n            isInsuranceClaimant(msg.sender),\n            \"Caller not authorized to claim insurance\"\n        );\n        // TODO\n    }\n\n    // add path from token to current liquidation peg (i.e. USDC)\n    function addLiquidationPath(address[] memory path) external {\n        // TODO\n        // make sure paths aren't excessively long\n        // add the inverse as well\n    }\n\n    function liquidateToPeg(address token, uint256 amount) external {\n        // TODO require caller has liquidator role\n        // for each path:\n        // find minimum liquidity along the route\n        // set that as weight of path\n    }\n}\n",
  "sourcePath": "/home/tixelbook/projects/marginswap-core/contracts/Price.sol",
  "compiler": {
    "name": "solc",
    "version": "0.7.0+commit.9e61f92b.Emscripten.clang"
  },
  "schemaVersion": "3.3.3",
  "updatedAt": "2021-02-22T21:42:12.463Z",
  "devdoc": {
    "kind": "dev",
    "methods": {},
    "version": 1
  },
  "userdoc": {
    "kind": "user",
    "methods": {},
    "version": 1
  }
}