{
  "contractName": "RoleAware",
  "abi": [
    {
      "inputs": [
        {
          "internalType": "address",
          "name": "_roles",
          "type": "address"
        }
      ],
      "stateMutability": "nonpayable",
      "type": "constructor"
    },
    {
      "inputs": [],
      "name": "roles",
      "outputs": [
        {
          "internalType": "contract Roles",
          "name": "",
          "type": "address"
        }
      ],
      "stateMutability": "view",
      "type": "function"
    }
  ],
  "bytecode": "0x608060405234801561001057600080fd5b5060405161014c38038061014c8339818101604052602081101561003357600080fd5b8101908080519060200190929190505050806000806101000a81548173ffffffffffffffffffffffffffffffffffffffff021916908373ffffffffffffffffffffffffffffffffffffffff1602179055505060b9806100936000396000f3fe6080604052348015600f57600080fd5b506004361060285760003560e01c8063392f5f6414602d575b600080fd5b6033605f565b604051808273ffffffffffffffffffffffffffffffffffffffff16815260200191505060405180910390f35b60008054906101000a900473ffffffffffffffffffffffffffffffffffffffff168156fea2646970667358221220ad0b5cbf27445bb2454ed4a649cb7b7c02753803ffc74080b234b177917aa87064736f6c63430007000033",
  "immutableReferences": {},
  "source": "import './Roles.sol';\n\ncontract RoleAware {\n    // TODO enum?\n    uint8 constant FUND_CHARACTER = 1;\n    uint8 constant LENDING_CHARACTER = 2;\n    uint8 constant ROUTER_CHARACTER = 3;\n    uint8 constant MARGIN_TRADING = 4;\n    uint8 constant FEE_CONTROLLER = 5;\n    uint8 constant PRICE_CONTROLLER = 6;\n\n    uint8 constant MTRADER_ROLE = 101;\n    uint8 constant WITHDRAWER_ROLE = 102;\n    uint8 constant MARGIN_CALLER_ROLE = 103;\n    uint8 constant BORROWER_ROLE = 104;\n    uint8 constant MARGIN_TRADER_ROLE = 105;\n    uint8 constant FEE_SOURCE = 106;\n    uint8 constant INSURANCE_CLAIMANT = 107;\n\n    Roles public roles;\n    constructor(address _roles) {\n        roles = Roles(_roles);\n    }\n\n    function fund() internal view returns (address) {\n        return roles.mainCharacters(FUND_CHARACTER);\n    }\n\n    function lending() internal view returns (address) {\n        return roles.mainCharacters(LENDING_CHARACTER);\n    }\n\n    function router() internal view returns (address) {\n        return roles.mainCharacters(ROUTER_CHARACTER);\n    }\n\n    function marginTrading() internal view returns (address) {\n        return roles.mainCharacters(MARGIN_TRADING);\n    }\n\n    function feeController() internal view returns (address) {\n        return roles.mainCharacters(FEE_CONTROLLER);\n    }\n\n    function price() internal view returns (address) {\n        return roles.mainCharacters(PRICE_CONTROLLER);\n    }\n\n    function isBorrower(address contr) internal view returns (bool) {\n        return roles.getRole(contr, BORROWER_ROLE);\n    }\n\n    function isWithdrawer(address contr) internal view returns (bool) {\n        return roles.getRole(contr, WITHDRAWER_ROLE);\n    }\n\n    function isMarginTrader(address contr) internal view returns (bool) {\n        return roles.getRole(contr, MARGIN_TRADER_ROLE);\n    }\n\n    function isFeeSource(address contr) internal view returns (bool) {\n        return roles.getRole(contr, FEE_SOURCE);\n    }\n\n    function isMarginCaller(address contr) internal view returns (bool) {\n        return roles.getRole(contr, MARGIN_CALLER_ROLE);\n    }\n\n    function isInsuranceClaimant(address contr) internal view returns (bool) {\n        return roles.getRole(contr, INSURANCE_CLAIMANT);\n    }\n}\n",
  "sourcePath": "/home/tixelbook/projects/marginswap-core/contracts/RoleAware.sol",
  "compiler": {
    "name": "solc",
    "version": "0.7.0+commit.9e61f92b.Emscripten.clang"
  },
  "schemaVersion": "3.3.3",
  "updatedAt": "2021-02-13T21:18:49.300Z",
  "devdoc": {
    "kind": "dev",
    "methods": {},
    "version": 1
  },
  "userdoc": {
    "kind": "user",
    "methods": {},
    "version": 1
  }
}