{
  "contractName": "RoleAware",
  "abi": [
    {
      "inputs": [
        {
          "internalType": "address",
          "name": "_roles",
          "type": "address"
        }
      ],
      "stateMutability": "nonpayable",
      "type": "constructor"
    },
    {
      "inputs": [],
      "name": "roles",
      "outputs": [
        {
          "internalType": "contract Roles",
          "name": "",
          "type": "address"
        }
      ],
      "stateMutability": "view",
      "type": "function"
    }
  ],
  "bytecode": "0x608060405234801561001057600080fd5b5060405161014c38038061014c8339818101604052602081101561003357600080fd5b8101908080519060200190929190505050806000806101000a81548173ffffffffffffffffffffffffffffffffffffffff021916908373ffffffffffffffffffffffffffffffffffffffff1602179055505060b9806100936000396000f3fe6080604052348015600f57600080fd5b506004361060285760003560e01c8063392f5f6414602d575b600080fd5b6033605f565b604051808273ffffffffffffffffffffffffffffffffffffffff16815260200191505060405180910390f35b60008054906101000a900473ffffffffffffffffffffffffffffffffffffffff168156fea26469706673582212201abed3a2401db17b31a9f1dc72f721b430ddca649653a06832eeb0d66ba2967264736f6c63430007000033",
  "immutableReferences": {},
  "source": "import \"./Roles.sol\";\n\ncontract RoleAware {\n    Roles public roles;\n\n    constructor(address _roles) {\n        roles = Roles(_roles);\n    }\n\n    modifier noIntermediary() {\n        require(\n            msg.sender == tx.origin,\n            \"Currently no intermediaries allowed for this function call\"\n        );\n        _;\n    }\n\n    function fund() internal view returns (address) {\n        return roles.mainCharacters(Characters.FUND);\n    }\n\n    function lending() internal view returns (address) {\n        return roles.mainCharacters(Characters.LENDING);\n    }\n\n    function router() internal view returns (address) {\n        return roles.mainCharacters(Characters.ROUTER);\n    }\n\n    function marginTrading() internal view returns (address) {\n        return roles.mainCharacters(Characters.MARGIN_TRADING);\n    }\n\n    function feeController() internal view returns (address) {\n        return roles.mainCharacters(Characters.FEE_CONTROLLER);\n    }\n\n    function price() internal view returns (address) {\n        return roles.mainCharacters(Characters.PRICE_CONTROLLER);\n    }\n\n    function isBorrower(address contr) internal view returns (bool) {\n        return roles.getRole(contr, ContractRoles.BORROWER);\n    }\n\n    function isWithdrawer(address contr) internal view returns (bool) {\n        return roles.getRole(contr, ContractRoles.WITHDRAWER);\n    }\n\n    function isMarginTrader(address contr) internal view returns (bool) {\n        return roles.getRole(contr, ContractRoles.MARGIN_TRADER);\n    }\n\n    function isFeeSource(address contr) internal view returns (bool) {\n        return roles.getRole(contr, ContractRoles.FEE_SOURCE);\n    }\n\n    function isMarginCaller(address contr) internal view returns (bool) {\n        return roles.getRole(contr, ContractRoles.MARGIN_CALLER);\n    }\n\n    function isInsuranceClaimant(address contr) internal view returns (bool) {\n        return roles.getRole(contr, ContractRoles.INSURANCE_CLAIMANT);\n    }\n}\n",
  "sourcePath": "/home/tixelbook/projects/marginswap-core/contracts/RoleAware.sol",
  "compiler": {
    "name": "solc",
    "version": "0.7.0+commit.9e61f92b.Emscripten.clang"
  },
  "schemaVersion": "3.3.3",
  "updatedAt": "2021-02-18T02:25:34.281Z",
  "devdoc": {
    "kind": "dev",
    "methods": {},
    "version": 1
  },
  "userdoc": {
    "kind": "user",
    "methods": {},
    "version": 1
  }
}