{
  "contractName": "V1",
  "abi": [
    {
      "inputs": [
        {
          "internalType": "address",
          "name": "targetOwner",
          "type": "address"
        },
        {
          "internalType": "address",
          "name": "WETH",
          "type": "address"
        },
        {
          "internalType": "uint256",
          "name": "feesPer10k",
          "type": "uint256"
        },
        {
          "internalType": "address",
          "name": "MFI",
          "type": "address"
        },
        {
          "internalType": "address",
          "name": "uniswapFactory",
          "type": "address"
        },
        {
          "internalType": "address",
          "name": "sushiswapFactory",
          "type": "address"
        },
        {
          "internalType": "address",
          "name": "peg",
          "type": "address"
        }
      ],
      "stateMutability": "nonpayable",
      "type": "constructor"
    },
    {
      "anonymous": false,
      "inputs": [
        {
          "indexed": false,
          "internalType": "address",
          "name": "_contract",
          "type": "address"
        },
        {
          "indexed": false,
          "internalType": "string",
          "name": "_msg",
          "type": "string"
        }
      ],
      "name": "Deployed",
      "type": "event"
    },
    {
      "anonymous": false,
      "inputs": [
        {
          "indexed": true,
          "internalType": "address",
          "name": "previousOwner",
          "type": "address"
        },
        {
          "indexed": true,
          "internalType": "address",
          "name": "newOwner",
          "type": "address"
        }
      ],
      "name": "OwnershipTransferred",
      "type": "event"
    },
    {
      "inputs": [],
      "name": "admin",
      "outputs": [
        {
          "internalType": "contract Admin",
          "name": "",
          "type": "address"
        }
      ],
      "stateMutability": "view",
      "type": "function"
    },
    {
      "inputs": [],
      "name": "fund",
      "outputs": [
        {
          "internalType": "contract Fund",
          "name": "",
          "type": "address"
        }
      ],
      "stateMutability": "view",
      "type": "function"
    },
    {
      "inputs": [],
      "name": "lending",
      "outputs": [
        {
          "internalType": "contract Lending",
          "name": "",
          "type": "address"
        }
      ],
      "stateMutability": "view",
      "type": "function"
    },
    {
      "inputs": [],
      "name": "marginRouter",
      "outputs": [
        {
          "internalType": "contract MarginRouter",
          "name": "",
          "type": "address"
        }
      ],
      "stateMutability": "view",
      "type": "function"
    },
    {
      "inputs": [],
      "name": "marginTrading",
      "outputs": [
        {
          "internalType": "contract MarginTrading",
          "name": "",
          "type": "address"
        }
      ],
      "stateMutability": "view",
      "type": "function"
    },
    {
      "inputs": [],
      "name": "owner",
      "outputs": [
        {
          "internalType": "address",
          "name": "",
          "type": "address"
        }
      ],
      "stateMutability": "view",
      "type": "function"
    },
    {
      "inputs": [],
      "name": "price",
      "outputs": [
        {
          "internalType": "contract Price",
          "name": "",
          "type": "address"
        }
      ],
      "stateMutability": "view",
      "type": "function"
    },
    {
      "inputs": [],
      "name": "renounceOwnership",
      "outputs": [],
      "stateMutability": "nonpayable",
      "type": "function"
    },
    {
      "inputs": [],
      "name": "roles",
      "outputs": [
        {
          "internalType": "contract Roles",
          "name": "",
          "type": "address"
        }
      ],
      "stateMutability": "view",
      "type": "function"
    },
    {
      "inputs": [
        {
          "internalType": "address",
          "name": "newOwner",
          "type": "address"
        }
      ],
      "name": "transferOwnership",
      "outputs": [],
      "stateMutability": "nonpayable",
      "type": "function"
    }
  ],
  "bytecode": "0x60806040523480156200001157600080fd5b506040516200fcae3803806200fcae833981810160405260e08110156200003757600080fd5b8101908080519060200190929190805190602001909291908051906020019092919080519060200190929190805190602001909291908051906020019092919080519060200190929190505050600062000096620017f060201b60201c565b9050806000806101000a81548173ffffffffffffffffffffffffffffffffffffffff021916908373ffffffffffffffffffffffffffffffffffffffff1602179055508073ffffffffffffffffffffffffffffffffffffffff16600073ffffffffffffffffffffffffffffffffffffffff167f8be0079c531659141344cd1fd0a4f28419497f9722a3daafe3b4186f6b6457e060405160405180910390a3506040516200014290620017f8565b604051809103906000f0801580156200015f573d6000803e3d6000fd5b50600160006101000a81548173ffffffffffffffffffffffffffffffffffffffff021916908373ffffffffffffffffffffffffffffffffffffffff1602179055507fd77691bae88eab2319cedd12dff464c41a42aff2533c6210c89662b695b731e5600160009054906101000a900473ffffffffffffffffffffffffffffffffffffffff16604051808273ffffffffffffffffffffffffffffffffffffffff16815260200180602001828103825260058152602001807f526f6c65730000000000000000000000000000000000000000000000000000008152506020019250505060405180910390a185600160009054906101000a900473ffffffffffffffffffffffffffffffffffffffff166040516200027a9062001806565b808373ffffffffffffffffffffffffffffffffffffffff1681526020018273ffffffffffffffffffffffffffffffffffffffff16815260200192505050604051809103906000f080158015620002d4573d6000803e3d6000fd5b50600260006101000a81548173ffffffffffffffffffffffffffffffffffffffff021916908373ffffffffffffffffffffffffffffffffffffffff1602179055507fd77691bae88eab2319cedd12dff464c41a42aff2533c6210c89662b695b731e5600260009054906101000a900473ffffffffffffffffffffffffffffffffffffffff16604051808273ffffffffffffffffffffffffffffffffffffffff16815260200180602001828103825260058152602001807f526f6c65730000000000000000000000000000000000000000000000000000008152506020019250505060405180910390a1600260009054906101000a900473ffffffffffffffffffffffffffffffffffffffff1673ffffffffffffffffffffffffffffffffffffffff1663f2fde38b886040518263ffffffff1660e01b8152600401808273ffffffffffffffffffffffffffffffffffffffff168152602001915050600060405180830381600087803b1580156200044957600080fd5b505af11580156200045e573d6000803e3d6000fd5b50505050600160009054906101000a900473ffffffffffffffffffffffffffffffffffffffff1673ffffffffffffffffffffffffffffffffffffffff16633f1609ef6000600260009054906101000a900473ffffffffffffffffffffffffffffffffffffffff166040518363ffffffff1660e01b815260040180836005811115620004e557fe5b81526020018273ffffffffffffffffffffffffffffffffffffffff16815260200192505050600060405180830381600087803b1580156200052557600080fd5b505af11580156200053a573d6000803e3d6000fd5b505050508484600160009054906101000a900473ffffffffffffffffffffffffffffffffffffffff16604051620005719062001814565b808481526020018373ffffffffffffffffffffffffffffffffffffffff1681526020018273ffffffffffffffffffffffffffffffffffffffff1681526020019350505050604051809103906000f080158015620005d2573d6000803e3d6000fd5b50600360006101000a81548173ffffffffffffffffffffffffffffffffffffffff021916908373ffffffffffffffffffffffffffffffffffffffff160217905550600360009054906101000a900473ffffffffffffffffffffffffffffffffffffffff1673ffffffffffffffffffffffffffffffffffffffff1663f2fde38b886040518263ffffffff1660e01b8152600401808273ffffffffffffffffffffffffffffffffffffffff168152602001915050600060405180830381600087803b1580156200069f57600080fd5b505af1158015620006b4573d6000803e3d6000fd5b50505050600160009054906101000a900473ffffffffffffffffffffffffffffffffffffffff1673ffffffffffffffffffffffffffffffffffffffff16633f1609ef6004600360009054906101000a900473ffffffffffffffffffffffffffffffffffffffff166040518363ffffffff1660e01b8152600401808360058111156200073b57fe5b81526020018273ffffffffffffffffffffffffffffffffffffffff16815260200192505050600060405180830381600087803b1580156200077b57600080fd5b505af115801562000790573d6000803e3d6000fd5b50505050600160009054906101000a900473ffffffffffffffffffffffffffffffffffffffff16604051620007c59062001822565b808273ffffffffffffffffffffffffffffffffffffffff168152602001915050604051809103906000f08015801562000802573d6000803e3d6000fd5b50600460006101000a81548173ffffffffffffffffffffffffffffffffffffffff021916908373ffffffffffffffffffffffffffffffffffffffff160217905550600460009054906101000a900473ffffffffffffffffffffffffffffffffffffffff1673ffffffffffffffffffffffffffffffffffffffff1663f2fde38b886040518263ffffffff1660e01b8152600401808273ffffffffffffffffffffffffffffffffffffffff168152602001915050600060405180830381600087803b158015620008cf57600080fd5b505af1158015620008e4573d6000803e3d6000fd5b50505050600160009054906101000a900473ffffffffffffffffffffffffffffffffffffffff1673ffffffffffffffffffffffffffffffffffffffff16633f1609ef6003600460009054906101000a900473ffffffffffffffffffffffffffffffffffffffff166040518363ffffffff1660e01b8152600401808360058111156200096b57fe5b81526020018273ffffffffffffffffffffffffffffffffffffffff16815260200192505050600060405180830381600087803b158015620009ab57600080fd5b505af1158015620009c0573d6000803e3d6000fd5b50505050600160009054906101000a900473ffffffffffffffffffffffffffffffffffffffff16604051620009f59062001830565b808273ffffffffffffffffffffffffffffffffffffffff168152602001915050604051809103906000f08015801562000a32573d6000803e3d6000fd5b50600560006101000a81548173ffffffffffffffffffffffffffffffffffffffff021916908373ffffffffffffffffffffffffffffffffffffffff160217905550600560009054906101000a900473ffffffffffffffffffffffffffffffffffffffff1673ffffffffffffffffffffffffffffffffffffffff1663f2fde38b886040518263ffffffff1660e01b8152600401808273ffffffffffffffffffffffffffffffffffffffff168152602001915050600060405180830381600087803b15801562000aff57600080fd5b505af115801562000b14573d6000803e3d6000fd5b50505050600160009054906101000a900473ffffffffffffffffffffffffffffffffffffffff1673ffffffffffffffffffffffffffffffffffffffff16633f1609ef6001600560009054906101000a900473ffffffffffffffffffffffffffffffffffffffff166040518363ffffffff1660e01b81526004018083600581111562000b9b57fe5b81526020018273ffffffffffffffffffffffffffffffffffffffff16815260200192505050600060405180830381600087803b15801562000bdb57600080fd5b505af115801562000bf0573d6000803e3d6000fd5b50505050828287600160009054906101000a900473ffffffffffffffffffffffffffffffffffffffff1660405162000c28906200183e565b808573ffffffffffffffffffffffffffffffffffffffff1681526020018473ffffffffffffffffffffffffffffffffffffffff1681526020018373ffffffffffffffffffffffffffffffffffffffff1681526020018273ffffffffffffffffffffffffffffffffffffffff168152602001945050505050604051809103906000f08015801562000cbc573d6000803e3d6000fd5b50600660006101000a81548173ffffffffffffffffffffffffffffffffffffffff021916908373ffffffffffffffffffffffffffffffffffffffff160217905550600160009054906101000a900473ffffffffffffffffffffffffffffffffffffffff1673ffffffffffffffffffffffffffffffffffffffff16633f1609ef6002600660009054906101000a900473ffffffffffffffffffffffffffffffffffffffff166040518363ffffffff1660e01b81526004018083600581111562000d8057fe5b81526020018273ffffffffffffffffffffffffffffffffffffffff16815260200192505050600060405180830381600087803b15801562000dc057600080fd5b505af115801562000dd5573d6000803e3d6000fd5b5050505080600160009054906101000a900473ffffffffffffffffffffffffffffffffffffffff1660405162000e0b906200184c565b808373ffffffffffffffffffffffffffffffffffffffff1681526020018273ffffffffffffffffffffffffffffffffffffffff16815260200192505050604051809103906000f08015801562000e65573d6000803e3d6000fd5b50600760006101000a81548173ffffffffffffffffffffffffffffffffffffffff021916908373ffffffffffffffffffffffffffffffffffffffff160217905550600160009054906101000a900473ffffffffffffffffffffffffffffffffffffffff1673ffffffffffffffffffffffffffffffffffffffff16633f1609ef6005600760009054906101000a900473ffffffffffffffffffffffffffffffffffffffff166040518363ffffffff1660e01b81526004018083600581111562000f2957fe5b81526020018273ffffffffffffffffffffffffffffffffffffffff16815260200192505050600060405180830381600087803b15801562000f6957600080fd5b505af115801562000f7e573d6000803e3d6000fd5b50505050600160009054906101000a900473ffffffffffffffffffffffffffffffffffffffff1673ffffffffffffffffffffffffffffffffffffffff166346cd9bd16000600360009054906101000a900473ffffffffffffffffffffffffffffffffffffffff166040518363ffffffff1660e01b8152600401808360058111156200100557fe5b81526020018273ffffffffffffffffffffffffffffffffffffffff16815260200192505050600060405180830381600087803b1580156200104557600080fd5b505af11580156200105a573d6000803e3d6000fd5b50505050600160009054906101000a900473ffffffffffffffffffffffffffffffffffffffff1673ffffffffffffffffffffffffffffffffffffffff166346cd9bd16000600660009054906101000a900473ffffffffffffffffffffffffffffffffffffffff166040518363ffffffff1660e01b815260040180836005811115620010e157fe5b81526020018273ffffffffffffffffffffffffffffffffffffffff16815260200192505050600060405180830381600087803b1580156200112157600080fd5b505af115801562001136573d6000803e3d6000fd5b50505050600160009054906101000a900473ffffffffffffffffffffffffffffffffffffffff1673ffffffffffffffffffffffffffffffffffffffff166346cd9bd16000600560009054906101000a900473ffffffffffffffffffffffffffffffffffffffff166040518363ffffffff1660e01b815260040180836005811115620011bd57fe5b81526020018273ffffffffffffffffffffffffffffffffffffffff16815260200192505050600060405180830381600087803b158015620011fd57600080fd5b505af115801562001212573d6000803e3d6000fd5b50505050600160009054906101000a900473ffffffffffffffffffffffffffffffffffffffff1673ffffffffffffffffffffffffffffffffffffffff166346cd9bd16000600460009054906101000a900473ffffffffffffffffffffffffffffffffffffffff166040518363ffffffff1660e01b8152600401808360058111156200129957fe5b81526020018273ffffffffffffffffffffffffffffffffffffffff16815260200192505050600060405180830381600087803b158015620012d957600080fd5b505af1158015620012ee573d6000803e3d6000fd5b50505050600160009054906101000a900473ffffffffffffffffffffffffffffffffffffffff1673ffffffffffffffffffffffffffffffffffffffff166346cd9bd16001600360009054906101000a900473ffffffffffffffffffffffffffffffffffffffff166040518363ffffffff1660e01b8152600401808360058111156200137557fe5b81526020018273ffffffffffffffffffffffffffffffffffffffff16815260200192505050600060405180830381600087803b158015620013b557600080fd5b505af1158015620013ca573d6000803e3d6000fd5b50505050600160009054906101000a900473ffffffffffffffffffffffffffffffffffffffff1673ffffffffffffffffffffffffffffffffffffffff166346cd9bd16002600660009054906101000a900473ffffffffffffffffffffffffffffffffffffffff166040518363ffffffff1660e01b8152600401808360058111156200145157fe5b81526020018273ffffffffffffffffffffffffffffffffffffffff16815260200192505050600060405180830381600087803b1580156200149157600080fd5b505af1158015620014a6573d6000803e3d6000fd5b50505050600160009054906101000a900473ffffffffffffffffffffffffffffffffffffffff1673ffffffffffffffffffffffffffffffffffffffff166346cd9bd16003600660009054906101000a900473ffffffffffffffffffffffffffffffffffffffff166040518363ffffffff1660e01b8152600401808360058111156200152d57fe5b81526020018273ffffffffffffffffffffffffffffffffffffffff16815260200192505050600060405180830381600087803b1580156200156d57600080fd5b505af115801562001582573d6000803e3d6000fd5b50505050600160009054906101000a900473ffffffffffffffffffffffffffffffffffffffff1673ffffffffffffffffffffffffffffffffffffffff166346cd9bd16004600660009054906101000a900473ffffffffffffffffffffffffffffffffffffffff166040518363ffffffff1660e01b8152600401808360058111156200160957fe5b81526020018273ffffffffffffffffffffffffffffffffffffffff16815260200192505050600060405180830381600087803b1580156200164957600080fd5b505af11580156200165e573d6000803e3d6000fd5b50505050600160009054906101000a900473ffffffffffffffffffffffffffffffffffffffff1673ffffffffffffffffffffffffffffffffffffffff166346cd9bd16005600460009054906101000a900473ffffffffffffffffffffffffffffffffffffffff166040518363ffffffff1660e01b815260040180836005811115620016e557fe5b81526020018273ffffffffffffffffffffffffffffffffffffffff16815260200192505050600060405180830381600087803b1580156200172557600080fd5b505af11580156200173a573d6000803e3d6000fd5b50505050600160009054906101000a900473ffffffffffffffffffffffffffffffffffffffff1673ffffffffffffffffffffffffffffffffffffffff1663f2fde38b886040518263ffffffff1660e01b8152600401808273ffffffffffffffffffffffffffffffffffffffff168152602001915050600060405180830381600087803b158015620017ca57600080fd5b505af1158015620017df573d6000803e3d6000fd5b50505050505050505050506200185a565b600033905090565b610cd8806200202383390190565b61147d8062002cfb83390190565b61204a806200417883390190565b613a2880620061c283390190565b611d908062009bea83390190565b61370b806200b97a83390190565b610c29806200f08583390190565b6107b9806200186a6000396000f3fe608060405234801561001057600080fd5b506004361061009e5760003560e01c806395e97eee1161006657806395e97eee1461017d578063a035b1fe146101b1578063b60d4288146101e5578063f2fde38b14610219578063f851a4401461025d5761009e565b80630b601a35146100a357806323ee5e7a146100d7578063392f5f641461010b578063715018a61461013f5780638da5cb5b14610149575b600080fd5b6100ab610291565b604051808273ffffffffffffffffffffffffffffffffffffffff16815260200191505060405180910390f35b6100df6102b7565b604051808273ffffffffffffffffffffffffffffffffffffffff16815260200191505060405180910390f35b6101136102dd565b604051808273ffffffffffffffffffffffffffffffffffffffff16815260200191505060405180910390f35b610147610303565b005b610151610489565b604051808273ffffffffffffffffffffffffffffffffffffffff16815260200191505060405180910390f35b6101856104b2565b604051808273ffffffffffffffffffffffffffffffffffffffff16815260200191505060405180910390f35b6101b96104d8565b604051808273ffffffffffffffffffffffffffffffffffffffff16815260200191505060405180910390f35b6101ed6104fe565b604051808273ffffffffffffffffffffffffffffffffffffffff16815260200191505060405180910390f35b61025b6004803603602081101561022f57600080fd5b81019080803573ffffffffffffffffffffffffffffffffffffffff169060200190929190505050610524565b005b61026561072f565b604051808273ffffffffffffffffffffffffffffffffffffffff16815260200191505060405180910390f35b600460009054906101000a900473ffffffffffffffffffffffffffffffffffffffff1681565b600660009054906101000a900473ffffffffffffffffffffffffffffffffffffffff1681565b600160009054906101000a900473ffffffffffffffffffffffffffffffffffffffff1681565b61030b610755565b73ffffffffffffffffffffffffffffffffffffffff1660008054906101000a900473ffffffffffffffffffffffffffffffffffffffff1673ffffffffffffffffffffffffffffffffffffffff16146103cb576040517f08c379a00000000000000000000000000000000000000000000000000000000081526004018080602001828103825260208152602001807f4f776e61626c653a2063616c6c6572206973206e6f7420746865206f776e657281525060200191505060405180910390fd5b600073ffffffffffffffffffffffffffffffffffffffff1660008054906101000a900473ffffffffffffffffffffffffffffffffffffffff1673ffffffffffffffffffffffffffffffffffffffff167f8be0079c531659141344cd1fd0a4f28419497f9722a3daafe3b4186f6b6457e060405160405180910390a360008060006101000a81548173ffffffffffffffffffffffffffffffffffffffff021916908373ffffffffffffffffffffffffffffffffffffffff160217905550565b60008060009054906101000a900473ffffffffffffffffffffffffffffffffffffffff16905090565b600560009054906101000a900473ffffffffffffffffffffffffffffffffffffffff1681565b600760009054906101000a900473ffffffffffffffffffffffffffffffffffffffff1681565b600260009054906101000a900473ffffffffffffffffffffffffffffffffffffffff1681565b61052c610755565b73ffffffffffffffffffffffffffffffffffffffff1660008054906101000a900473ffffffffffffffffffffffffffffffffffffffff1673ffffffffffffffffffffffffffffffffffffffff16146105ec576040517f08c379a00000000000000000000000000000000000000000000000000000000081526004018080602001828103825260208152602001807f4f776e61626c653a2063616c6c6572206973206e6f7420746865206f776e657281525060200191505060405180910390fd5b600073ffffffffffffffffffffffffffffffffffffffff168173ffffffffffffffffffffffffffffffffffffffff161415610672576040517f08c379a000000000000000000000000000000000000000000000000000000000815260040180806020018281038252602681526020018061075e6026913960400191505060405180910390fd5b8073ffffffffffffffffffffffffffffffffffffffff1660008054906101000a900473ffffffffffffffffffffffffffffffffffffffff1673ffffffffffffffffffffffffffffffffffffffff167f8be0079c531659141344cd1fd0a4f28419497f9722a3daafe3b4186f6b6457e060405160405180910390a3806000806101000a81548173ffffffffffffffffffffffffffffffffffffffff021916908373ffffffffffffffffffffffffffffffffffffffff16021790555050565b600360009054906101000a900473ffffffffffffffffffffffffffffffffffffffff1681565b60003390509056fe4f776e61626c653a206e6577206f776e657220697320746865207a65726f2061646472657373a26469706673582212208b7aaba23786f6a1b1b4298230ac7a5df1d56cab8faf9c27952d766df97bdbb964736f6c63430007000033608060405234801561001057600080fd5b5060006100216100c460201b60201c565b9050806000806101000a81548173ffffffffffffffffffffffffffffffffffffffff021916908373ffffffffffffffffffffffffffffffffffffffff1602179055508073ffffffffffffffffffffffffffffffffffffffff16600073ffffffffffffffffffffffffffffffffffffffff167f8be0079c531659141344cd1fd0a4f28419497f9722a3daafe3b4186f6b6457e060405160405180910390a3506100cc565b600033905090565b610bfd806100db6000396000f3fe608060405234801561001057600080fd5b50600436106100935760003560e01c8063715018a611610066578063715018a6146101fc5780638a1713c6146102065780638da5cb5b14610257578063a716b97f1461028b578063f2fde38b146102f257610093565b80630b886c191461009857806336214c78146100ff5780633f1609ef1461015a57806346cd9bd1146101ab575b600080fd5b6100e7600480360360408110156100ae57600080fd5b81019080803573ffffffffffffffffffffffffffffffffffffffff169060200190929190803560ff169060200190929190505050610336565b60405180821515815260200191505060405180910390f35b61012e6004803603602081101561011557600080fd5b81019080803560ff169060200190929190505050610365565b604051808273ffffffffffffffffffffffffffffffffffffffff16815260200191505060405180910390f35b6101a96004803603604081101561017057600080fd5b81019080803560ff169060200190929190803573ffffffffffffffffffffffffffffffffffffffff169060200190929190505050610398565b005b6101fa600480360360408110156101c157600080fd5b81019080803560ff169060200190929190803573ffffffffffffffffffffffffffffffffffffffff1690602001909291905050506104cc565b005b610204610616565b005b6102556004803603604081101561021c57600080fd5b81019080803560ff169060200190929190803573ffffffffffffffffffffffffffffffffffffffff16906020019092919050505061079c565b005b61025f6108e7565b604051808273ffffffffffffffffffffffffffffffffffffffff16815260200191505060405180910390f35b6102da600480360360408110156102a157600080fd5b81019080803573ffffffffffffffffffffffffffffffffffffffff169060200190929190803560ff169060200190929190505050610910565b60405180821515815260200191505060405180910390f35b6103346004803603602081101561030857600080fd5b81019080803573ffffffffffffffffffffffffffffffffffffffff16906020019092919050505061098e565b005b60016020528160005260406000206020528060005260406000206000915091509054906101000a900460ff1681565b60026020528060005260406000206000915054906101000a900473ffffffffffffffffffffffffffffffffffffffff1681565b6103a0610b99565b73ffffffffffffffffffffffffffffffffffffffff1660008054906101000a900473ffffffffffffffffffffffffffffffffffffffff1673ffffffffffffffffffffffffffffffffffffffff1614610460576040517f08c379a00000000000000000000000000000000000000000000000000000000081526004018080602001828103825260208152602001807f4f776e61626c653a2063616c6c6572206973206e6f7420746865206f776e657281525060200191505060405180910390fd5b806002600084600581111561047157fe5b600581111561047c57fe5b815260200190815260200160002060006101000a81548173ffffffffffffffffffffffffffffffffffffffff021916908373ffffffffffffffffffffffffffffffffffffffff1602179055505050565b6104d4610b99565b73ffffffffffffffffffffffffffffffffffffffff1660008054906101000a900473ffffffffffffffffffffffffffffffffffffffff1673ffffffffffffffffffffffffffffffffffffffff1614610594576040517f08c379a00000000000000000000000000000000000000000000000000000000081526004018080602001828103825260208152602001807f4f776e61626c653a2063616c6c6572206973206e6f7420746865206f776e657281525060200191505060405180910390fd5b60018060008373ffffffffffffffffffffffffffffffffffffffff1673ffffffffffffffffffffffffffffffffffffffff16815260200190815260200160002060008460058111156105e257fe5b60058111156105ed57fe5b815260200190815260200160002060006101000a81548160ff0219169083151502179055505050565b61061e610b99565b73ffffffffffffffffffffffffffffffffffffffff1660008054906101000a900473ffffffffffffffffffffffffffffffffffffffff1673ffffffffffffffffffffffffffffffffffffffff16146106de576040517f08c379a00000000000000000000000000000000000000000000000000000000081526004018080602001828103825260208152602001807f4f776e61626c653a2063616c6c6572206973206e6f7420746865206f776e657281525060200191505060405180910390fd5b600073ffffffffffffffffffffffffffffffffffffffff1660008054906101000a900473ffffffffffffffffffffffffffffffffffffffff1673ffffffffffffffffffffffffffffffffffffffff167f8be0079c531659141344cd1fd0a4f28419497f9722a3daafe3b4186f6b6457e060405160405180910390a360008060006101000a81548173ffffffffffffffffffffffffffffffffffffffff021916908373ffffffffffffffffffffffffffffffffffffffff160217905550565b6107a4610b99565b73ffffffffffffffffffffffffffffffffffffffff1660008054906101000a900473ffffffffffffffffffffffffffffffffffffffff1673ffffffffffffffffffffffffffffffffffffffff1614610864576040517f08c379a00000000000000000000000000000000000000000000000000000000081526004018080602001828103825260208152602001807f4f776e61626c653a2063616c6c6572206973206e6f7420746865206f776e657281525060200191505060405180910390fd5b6000600160008373ffffffffffffffffffffffffffffffffffffffff1673ffffffffffffffffffffffffffffffffffffffff16815260200190815260200160002060008460058111156108b357fe5b60058111156108be57fe5b815260200190815260200160002060006101000a81548160ff0219169083151502179055505050565b60008060009054906101000a900473ffffffffffffffffffffffffffffffffffffffff16905090565b6000600160008473ffffffffffffffffffffffffffffffffffffffff1673ffffffffffffffffffffffffffffffffffffffff168152602001908152602001600020600083600581111561095f57fe5b600581111561096a57fe5b815260200190815260200160002060009054906101000a900460ff16905092915050565b610996610b99565b73ffffffffffffffffffffffffffffffffffffffff1660008054906101000a900473ffffffffffffffffffffffffffffffffffffffff1673ffffffffffffffffffffffffffffffffffffffff1614610a56576040517f08c379a00000000000000000000000000000000000000000000000000000000081526004018080602001828103825260208152602001807f4f776e61626c653a2063616c6c6572206973206e6f7420746865206f776e657281525060200191505060405180910390fd5b600073ffffffffffffffffffffffffffffffffffffffff168173ffffffffffffffffffffffffffffffffffffffff161415610adc576040517f08c379a0000000000000000000000000000000000000000000000000000000008152600401808060200182810382526026815260200180610ba26026913960400191505060405180910390fd5b8073ffffffffffffffffffffffffffffffffffffffff1660008054906101000a900473ffffffffffffffffffffffffffffffffffffffff1673ffffffffffffffffffffffffffffffffffffffff167f8be0079c531659141344cd1fd0a4f28419497f9722a3daafe3b4186f6b6457e060405160405180910390a3806000806101000a81548173ffffffffffffffffffffffffffffffffffffffff021916908373ffffffffffffffffffffffffffffffffffffffff16021790555050565b60003390509056fe4f776e61626c653a206e6577206f776e657220697320746865207a65726f2061646472657373a2646970667358221220214677078a48287b4e138028c7154e1d47b94332e03ca68842ec356b74613c7b64736f6c63430007000033608060405234801561001057600080fd5b5060405161147d38038061147d8339818101604052604081101561003357600080fd5b81019080805190602001909291908051906020019092919050505080806000806101000a81548173ffffffffffffffffffffffffffffffffffffffff021916908373ffffffffffffffffffffffffffffffffffffffff1602179055505060006100a061018760201b60201c565b905080600160006101000a81548173ffffffffffffffffffffffffffffffffffffffff021916908373ffffffffffffffffffffffffffffffffffffffff1602179055508073ffffffffffffffffffffffffffffffffffffffff16600073ffffffffffffffffffffffffffffffffffffffff167f8be0079c531659141344cd1fd0a4f28419497f9722a3daafe3b4186f6b6457e060405160405180910390a35081600260006101000a81548173ffffffffffffffffffffffffffffffffffffffff021916908373ffffffffffffffffffffffffffffffffffffffff160217905550505061018f565b600033905090565b6112df8061019e6000396000f3fe6080604052600436106100c25760003560e01c80638da5cb5b1161007f578063b3db428b11610059578063b3db428b14610343578063d9caed12146103d4578063e1a2f31514610465578063f2fde38b146104f6576100c2565b80638da5cb5b146102b7578063a6a5f9fe146102f8578063ad5c464814610302576100c2565b80631dafede0146100c7578063392f5f641461012c5780634782f7791461016d57806347e7ef24146101c85780635acf690314610239578063715018a6146102a0575b600080fd5b3480156100d357600080fd5b50610100600480360360208110156100ea57600080fd5b8101908080359060200190929190505050610547565b604051808273ffffffffffffffffffffffffffffffffffffffff16815260200191505060405180910390f35b34801561013857600080fd5b50610141610583565b604051808273ffffffffffffffffffffffffffffffffffffffff16815260200191505060405180910390f35b34801561017957600080fd5b506101c66004803603604081101561019057600080fd5b81019080803573ffffffffffffffffffffffffffffffffffffffff169060200190929190803590602001909291905050506105a7565b005b3480156101d457600080fd5b50610221600480360360408110156101eb57600080fd5b81019080803573ffffffffffffffffffffffffffffffffffffffff169060200190929190803590602001909291905050506106fa565b60405180821515815260200191505060405180910390f35b34801561024557600080fd5b506102886004803603602081101561025c57600080fd5b81019080803573ffffffffffffffffffffffffffffffffffffffff16906020019092919050505061088d565b60405180821515815260200191505060405180910390f35b3480156102ac57600080fd5b506102b56108ad565b005b3480156102c357600080fd5b506102cc610a38565b604051808273ffffffffffffffffffffffffffffffffffffffff16815260200191505060405180910390f35b610300610a62565b005b34801561030e57600080fd5b50610317610ae7565b604051808273ffffffffffffffffffffffffffffffffffffffff16815260200191505060405180910390f35b34801561034f57600080fd5b506103bc6004803603606081101561036657600080fd5b81019080803573ffffffffffffffffffffffffffffffffffffffff169060200190929190803573ffffffffffffffffffffffffffffffffffffffff16906020019092919080359060200190929190505050610b0d565b60405180821515815260200191505060405180910390f35b3480156103e057600080fd5b5061044d600480360360608110156103f757600080fd5b81019080803573ffffffffffffffffffffffffffffffffffffffff169060200190929190803573ffffffffffffffffffffffffffffffffffffffff16906020019092919080359060200190929190505050610cff565b60405180821515815260200191505060405180910390f35b34801561047157600080fd5b506104de6004803603606081101561048857600080fd5b81019080803573ffffffffffffffffffffffffffffffffffffffff169060200190929190803573ffffffffffffffffffffffffffffffffffffffff16906020019092919080359060200190929190505050610e14565b60405180821515815260200191505060405180910390f35b34801561050257600080fd5b506105456004803603602081101561051957600080fd5b81019080803573ffffffffffffffffffffffffffffffffffffffff169060200190929190505050610f46565b005b6003818154811061055457fe5b906000526020600020016000915054906101000a900473ffffffffffffffffffffffffffffffffffffffff1681565b60008054906101000a900473ffffffffffffffffffffffffffffffffffffffff1681565b6105b033611156565b610622576040517f08c379a000000000000000000000000000000000000000000000000000000000815260040180806020018281038252601a8152602001807f4e6f7420617574686f72697a656420746f20776974686472617700000000000081525060200191505060405180910390fd5b600260009054906101000a900473ffffffffffffffffffffffffffffffffffffffff1673ffffffffffffffffffffffffffffffffffffffff16632e1a7d4d826040518263ffffffff1660e01b815260040180828152602001915050600060405180830381600087803b15801561069757600080fd5b505af11580156106ab573d6000803e3d6000fd5b505050508173ffffffffffffffffffffffffffffffffffffffff166108fc829081150290604051600060405180830381858888f193505050501580156106f5573d6000803e3d6000fd5b505050565b6000600460008473ffffffffffffffffffffffffffffffffffffffff1673ffffffffffffffffffffffffffffffffffffffff16815260200190815260200160002060009054906101000a900460ff166107bb576040517f08c379a000000000000000000000000000000000000000000000000000000000815260040180806020018281038252601b8152602001807f4465706f73697420746f6b656e206973206e6f7420616374697665000000000081525060200191505060405180910390fd5b8273ffffffffffffffffffffffffffffffffffffffff166323b872dd3330856040518463ffffffff1660e01b8152600401808473ffffffffffffffffffffffffffffffffffffffff1681526020018373ffffffffffffffffffffffffffffffffffffffff1681526020018281526020019350505050602060405180830381600087803b15801561084a57600080fd5b505af115801561085e573d6000803e3d6000fd5b505050506040513d602081101561087457600080fd5b8101908080519060200190929190505050905092915050565b60046020528060005260406000206000915054906101000a900460ff1681565b6108b5611236565b73ffffffffffffffffffffffffffffffffffffffff16600160009054906101000a900473ffffffffffffffffffffffffffffffffffffffff1673ffffffffffffffffffffffffffffffffffffffff1614610977576040517f08c379a00000000000000000000000000000000000000000000000000000000081526004018080602001828103825260208152602001807f4f776e61626c653a2063616c6c6572206973206e6f7420746865206f776e657281525060200191505060405180910390fd5b600073ffffffffffffffffffffffffffffffffffffffff16600160009054906101000a900473ffffffffffffffffffffffffffffffffffffffff1673ffffffffffffffffffffffffffffffffffffffff167f8be0079c531659141344cd1fd0a4f28419497f9722a3daafe3b4186f6b6457e060405160405180910390a36000600160006101000a81548173ffffffffffffffffffffffffffffffffffffffff021916908373ffffffffffffffffffffffffffffffffffffffff160217905550565b6000600160009054906101000a900473ffffffffffffffffffffffffffffffffffffffff16905090565b600260009054906101000a900473ffffffffffffffffffffffffffffffffffffffff1673ffffffffffffffffffffffffffffffffffffffff1663d0e30db0346040518263ffffffff1660e01b81526004016000604051808303818588803b158015610acc57600080fd5b505af1158015610ae0573d6000803e3d6000fd5b5050505050565b600260009054906101000a900473ffffffffffffffffffffffffffffffffffffffff1681565b6000600460008473ffffffffffffffffffffffffffffffffffffffff1673ffffffffffffffffffffffffffffffffffffffff16815260200190815260200160002060009054906101000a900460ff16610bce576040517f08c379a000000000000000000000000000000000000000000000000000000000815260040180806020018281038252601b8152602001807f4465706f73697420746f6b656e206973206e6f7420616374697665000000000081525060200191505060405180910390fd5b610bd733611156565b610c2c576040517f08c379a00000000000000000000000000000000000000000000000000000000081526004018080602001828103825260228152602001806112886022913960400191505060405180910390fd5b8273ffffffffffffffffffffffffffffffffffffffff166323b872dd8530856040518463ffffffff1660e01b8152600401808473ffffffffffffffffffffffffffffffffffffffff1681526020018373ffffffffffffffffffffffffffffffffffffffff1681526020018281526020019350505050602060405180830381600087803b158015610cbb57600080fd5b505af1158015610ccf573d6000803e3d6000fd5b505050506040513d6020811015610ce557600080fd5b810190808051906020019092919050505090509392505050565b6000610d0a33611156565b610d5f576040517f08c379a00000000000000000000000000000000000000000000000000000000081526004018080602001828103825260238152602001806112656023913960400191505060405180910390fd5b8373ffffffffffffffffffffffffffffffffffffffff1663a9059cbb84846040518363ffffffff1660e01b8152600401808373ffffffffffffffffffffffffffffffffffffffff16815260200182815260200192505050602060405180830381600087803b158015610dd057600080fd5b505af1158015610de4573d6000803e3d6000fd5b505050506040513d6020811015610dfa57600080fd5b810190808051906020019092919050505090509392505050565b6000610e1f33611156565b610e91576040517f08c379a000000000000000000000000000000000000000000000000000000000815260040180806020018281038252601a8152602001807f4e6f7420617574686f72697a656420746f20776974686472617700000000000081525060200191505060405180910390fd5b8373ffffffffffffffffffffffffffffffffffffffff1663a9059cbb84846040518363ffffffff1660e01b8152600401808373ffffffffffffffffffffffffffffffffffffffff16815260200182815260200192505050602060405180830381600087803b158015610f0257600080fd5b505af1158015610f16573d6000803e3d6000fd5b505050506040513d6020811015610f2c57600080fd5b810190808051906020019092919050505090509392505050565b610f4e611236565b73ffffffffffffffffffffffffffffffffffffffff16600160009054906101000a900473ffffffffffffffffffffffffffffffffffffffff1673ffffffffffffffffffffffffffffffffffffffff1614611010576040517f08c379a00000000000000000000000000000000000000000000000000000000081526004018080602001828103825260208152602001807f4f776e61626c653a2063616c6c6572206973206e6f7420746865206f776e657281525060200191505060405180910390fd5b600073ffffffffffffffffffffffffffffffffffffffff168173ffffffffffffffffffffffffffffffffffffffff161415611096576040517f08c379a000000000000000000000000000000000000000000000000000000000815260040180806020018281038252602681526020018061123f6026913960400191505060405180910390fd5b8073ffffffffffffffffffffffffffffffffffffffff16600160009054906101000a900473ffffffffffffffffffffffffffffffffffffffff1673ffffffffffffffffffffffffffffffffffffffff167f8be0079c531659141344cd1fd0a4f28419497f9722a3daafe3b4186f6b6457e060405160405180910390a380600160006101000a81548173ffffffffffffffffffffffffffffffffffffffff021916908373ffffffffffffffffffffffffffffffffffffffff16021790555050565b60008060009054906101000a900473ffffffffffffffffffffffffffffffffffffffff1673ffffffffffffffffffffffffffffffffffffffff1663a716b97f8360006040518363ffffffff1660e01b8152600401808373ffffffffffffffffffffffffffffffffffffffff1681526020018260058111156111d357fe5b81526020019250505060206040518083038186803b1580156111f457600080fd5b505afa158015611208573d6000803e3d6000fd5b505050506040513d602081101561121e57600080fd5b81019080805190602001909291905050509050919050565b60003390509056fe4f776e61626c653a206e6577206f776e657220697320746865207a65726f2061646472657373436f6e7472616374206e6f7420617574686f72697a656420746f207769746864726177436f6e7472616374206e6f7420617574686f72697a656420746f206465706f736974a2646970667358221220c2091b4daf8b3af8310b0b13bd4d96c3bc11f0838644c55d04881fd814b8f0fc64736f6c63430007000033608060405234801561001057600080fd5b5060405161204a38038061204a8339818101604052606081101561003357600080fd5b8101908080519060200190929190805190602001909291908051906020019092919050505080806000806101000a81548173ffffffffffffffffffffffffffffffffffffffff021916908373ffffffffffffffffffffffffffffffffffffffff1602179055505060006100aa6101a860201b60201c565b905080600160006101000a81548173ffffffffffffffffffffffffffffffffffffffff021916908373ffffffffffffffffffffffffffffffffffffffff1602179055508073ffffffffffffffffffffffffffffffffffffffff16600073ffffffffffffffffffffffffffffffffffffffff167f8be0079c531659141344cd1fd0a4f28419497f9722a3daafe3b4186f6b6457e060405160405180910390a35081600260006101000a81548173ffffffffffffffffffffffffffffffffffffffff021916908373ffffffffffffffffffffffffffffffffffffffff16021790555082600581905550670de0b6b3a76400006007819055505050506101b0565b600033905090565b611e8b806101bf6000396000f3fe608060405234801561001057600080fd5b506004361061010b5760003560e01c8063715018a6116100a2578063a694fc3a11610071578063a694fc3a146104c5578063bf9befb1146104f3578063e909ebfa14610511578063ed95eda014610575578063f2fde38b1461062d5761010b565b8063715018a6146103bf57806381fe8039146103c95780638381e182146104435780638da5cb5b146104915761010b565b8063392f5f64116100de578063392f5f64146102525780633f0e9edf1461028657806356fc9124146102e857806367cbf42d1461035d5761010b565b8063020d308d1461011057806316934fc4146101745780631cead9a7146101cc5780632c00d4a714610224575b600080fd5b6101726004803603604081101561012657600080fd5b81019080803573ffffffffffffffffffffffffffffffffffffffff169060200190929190803573ffffffffffffffffffffffffffffffffffffffff169060200190929190505050610671565b005b6101b66004803603602081101561018a57600080fd5b81019080803573ffffffffffffffffffffffffffffffffffffffff16906020019092919050505061081f565b6040518082815260200191505060405180910390f35b61020e600480360360208110156101e257600080fd5b81019080803573ffffffffffffffffffffffffffffffffffffffff169060200190929190505050610837565b6040518082815260200191505060405180910390f35b6102506004803603602081101561023a57600080fd5b810190808035906020019092919050505061084f565b005b61025a610ab9565b604051808273ffffffffffffffffffffffffffffffffffffffff16815260200191505060405180910390f35b6102d26004803603604081101561029c57600080fd5b81019080803573ffffffffffffffffffffffffffffffffffffffff16906020019092919080359060200190929190505050610add565b6040518082815260200191505060405180910390f35b61032a600480360360208110156102fe57600080fd5b81019080803573ffffffffffffffffffffffffffffffffffffffff169060200190929190505050610bc3565b604051808381526020018273ffffffffffffffffffffffffffffffffffffffff1681526020019250505060405180910390f35b6103a96004803603604081101561037357600080fd5b81019080803573ffffffffffffffffffffffffffffffffffffffff16906020019092919080359060200190929190505050610c07565b6040518082815260200191505060405180910390f35b6103c7610ce9565b005b61042b600480360360408110156103df57600080fd5b81019080803573ffffffffffffffffffffffffffffffffffffffff169060200190929190803573ffffffffffffffffffffffffffffffffffffffff169060200190929190505050610e74565b60405180821515815260200191505060405180910390f35b61048f6004803603604081101561045957600080fd5b8101908080359060200190929190803573ffffffffffffffffffffffffffffffffffffffff169060200190929190505050610ea3565b005b61049961104c565b604051808273ffffffffffffffffffffffffffffffffffffffff16815260200191505060405180910390f35b6104f1600480360360208110156104db57600080fd5b8101908080359060200190929190505050611076565b005b6104fb611083565b6040518082815260200191505060405180910390f35b6105736004803603604081101561052757600080fd5b81019080803573ffffffffffffffffffffffffffffffffffffffff169060200190929190803573ffffffffffffffffffffffffffffffffffffffff169060200190929190505050611089565b005b61062b6004803603602081101561058b57600080fd5b81019080803590602001906401000000008111156105a857600080fd5b8201836020820111156105ba57600080fd5b803590602001918460208302840111640100000000831117156105dc57600080fd5b919080806020026020016040519081016040528093929190818152602001838360200280828437600081840152601f19601f820116905080830192505050505050509192919290505050611237565b005b61066f6004803603602081101561064357600080fd5b81019080803573ffffffffffffffffffffffffffffffffffffffff1690602001909291905050506114b8565b005b8173ffffffffffffffffffffffffffffffffffffffff163373ffffffffffffffffffffffffffffffffffffffff1614806107315750600960008373ffffffffffffffffffffffffffffffffffffffff1673ffffffffffffffffffffffffffffffffffffffff16815260200190815260200160002060003373ffffffffffffffffffffffffffffffffffffffff1673ffffffffffffffffffffffffffffffffffffffff16815260200190815260200160002060009054906101000a900460ff165b610786576040517f08c379a0000000000000000000000000000000000000000000000000000000008152600401808060200182810382526030815260200180611dad6030913960400191505060405180910390fd5b6000600960008473ffffffffffffffffffffffffffffffffffffffff1673ffffffffffffffffffffffffffffffffffffffff16815260200190815260200160002060008373ffffffffffffffffffffffffffffffffffffffff1673ffffffffffffffffffffffffffffffffffffffff16815260200190815260200160002060006101000a81548160ff0219169083151502179055505050565b60036020528060005260406000206000915090505481565b60066020528060005260406000206000915090505481565b600754600860003373ffffffffffffffffffffffffffffffffffffffff1673ffffffffffffffffffffffffffffffffffffffff16815260200190815260200160002060000154820110156108ee576040517f08c379a0000000000000000000000000000000000000000000000000000000008152600401808060200182810382526029815260200180611d846029913960400191505060405180910390fd5b6108f833826116c8565b6000600860003373ffffffffffffffffffffffffffffffffffffffff1673ffffffffffffffffffffffffffffffffffffffff168152602001908152602001600020600001541415610ab65780600860003373ffffffffffffffffffffffffffffffffffffffff1673ffffffffffffffffffffffffffffffffffffffff16815260200190815260200160002060000181905550610992611871565b600860003373ffffffffffffffffffffffffffffffffffffffff1673ffffffffffffffffffffffffffffffffffffffff16815260200190815260200160002060010160006101000a81548173ffffffffffffffffffffffffffffffffffffffff021916908373ffffffffffffffffffffffffffffffffffffffff1602179055503360086000600b60009054906101000a900473ffffffffffffffffffffffffffffffffffffffff1673ffffffffffffffffffffffffffffffffffffffff1673ffffffffffffffffffffffffffffffffffffffff16815260200190815260200160002060010160006101000a81548173ffffffffffffffffffffffffffffffffffffffff021916908373ffffffffffffffffffffffffffffffffffffffff1602179055505b50565b60008054906101000a900473ffffffffffffffffffffffffffffffffffffffff1681565b6000610ae833611abb565b610b5a576040517f08c379a000000000000000000000000000000000000000000000000000000000815260040180806020018281038252601d8152602001807f4e6f7420617574686f72697a656420746f20736f75726365206665657300000081525060200191505060405180910390fd5b60055461271001826005540281610b6d57fe5b04905080600660008573ffffffffffffffffffffffffffffffffffffffff1673ffffffffffffffffffffffffffffffffffffffff1681526020019081526020016000206000828254019250508190555092915050565b60086020528060005260406000206000915090508060000154908060010160009054906101000a900473ffffffffffffffffffffffffffffffffffffffff16905082565b6000610c1233611abb565b610c84576040517f08c379a000000000000000000000000000000000000000000000000000000000815260040180806020018281038252601d8152602001807f4e6f7420617574686f72697a656420746f20736f75726365206665657300000081525060200191505060405180910390fd5b612710826005540281610c9357fe5b04905080600660008573ffffffffffffffffffffffffffffffffffffffff1673ffffffffffffffffffffffffffffffffffffffff1681526020019081526020016000206000828254019250508190555092915050565b610cf1611b9b565b73ffffffffffffffffffffffffffffffffffffffff16600160009054906101000a900473ffffffffffffffffffffffffffffffffffffffff1673ffffffffffffffffffffffffffffffffffffffff1614610db3576040517f08c379a00000000000000000000000000000000000000000000000000000000081526004018080602001828103825260208152602001807f4f776e61626c653a2063616c6c6572206973206e6f7420746865206f776e657281525060200191505060405180910390fd5b600073ffffffffffffffffffffffffffffffffffffffff16600160009054906101000a900473ffffffffffffffffffffffffffffffffffffffff1673ffffffffffffffffffffffffffffffffffffffff167f8be0079c531659141344cd1fd0a4f28419497f9722a3daafe3b4186f6b6457e060405160405180910390a36000600160006101000a81548173ffffffffffffffffffffffffffffffffffffffff021916908373ffffffffffffffffffffffffffffffffffffffff160217905550565b60096020528160005260406000206020528060005260406000206000915091509054906101000a900460ff1681565b81600360003373ffffffffffffffffffffffffffffffffffffffff1673ffffffffffffffffffffffffffffffffffffffff1681526020019081526020016000206000828254039250508190555081600460008282540392505081905550610f08611ba3565b73ffffffffffffffffffffffffffffffffffffffff1663d9caed12600260009054906101000a900473ffffffffffffffffffffffffffffffffffffffff1683856040518463ffffffff1660e01b8152600401808473ffffffffffffffffffffffffffffffffffffffff1681526020018373ffffffffffffffffffffffffffffffffffffffff1681526020018281526020019350505050602060405180830381600087803b158015610fb857600080fd5b505af1158015610fcc573d6000803e3d6000fd5b505050506040513d6020811015610fe257600080fd5b8101908080519060200190929190505050611048576040517f08c379a0000000000000000000000000000000000000000000000000000000008152600401808060200182810382526032815260200180611e246032913960400191505060405180910390fd5b5050565b6000600160009054906101000a900473ffffffffffffffffffffffffffffffffffffffff16905090565b61108033826116c8565b50565b60045481565b8173ffffffffffffffffffffffffffffffffffffffff163373ffffffffffffffffffffffffffffffffffffffff1614806111495750600960008373ffffffffffffffffffffffffffffffffffffffff1673ffffffffffffffffffffffffffffffffffffffff16815260200190815260200160002060003373ffffffffffffffffffffffffffffffffffffffff1673ffffffffffffffffffffffffffffffffffffffff16815260200190815260200160002060009054906101000a900460ff165b61119e576040517f08c379a0000000000000000000000000000000000000000000000000000000008152600401808060200182810382526030815260200180611dad6030913960400191505060405180910390fd5b6001600960008473ffffffffffffffffffffffffffffffffffffffff1673ffffffffffffffffffffffffffffffffffffffff16815260200190815260200160002060008373ffffffffffffffffffffffffffffffffffffffff1673ffffffffffffffffffffffffffffffffffffffff16815260200190815260200160002060006101000a81548160ff0219169083151502179055505050565b3273ffffffffffffffffffffffffffffffffffffffff163373ffffffffffffffffffffffffffffffffffffffff16146112bb576040517f08c379a000000000000000000000000000000000000000000000000000000000815260040180806020018281038252603a815260200180611d24603a913960400191505060405180910390fd5b60006112c5611871565b905060003373ffffffffffffffffffffffffffffffffffffffff168273ffffffffffffffffffffffffffffffffffffffff1614806113895750600960008373ffffffffffffffffffffffffffffffffffffffff1673ffffffffffffffffffffffffffffffffffffffff16815260200190815260200160002060003373ffffffffffffffffffffffffffffffffffffffff1673ffffffffffffffffffffffffffffffffffffffff16815260200190815260200160002060009054906101000a900460ff165b90506000611395611c63565b73ffffffffffffffffffffffffffffffffffffffff166315dc6a28856113b9611871565b33866040518563ffffffff1660e01b815260040180806020018573ffffffffffffffffffffffffffffffffffffffff1681526020018473ffffffffffffffffffffffffffffffffffffffff1681526020018315158152602001828103825286818151815260200191508051906020019060200280838360005b8381101561144d578082015181840152602081019050611432565b5050505090500195505050505050602060405180830381600087803b15801561147557600080fd5b505af1158015611489573d6000803e3d6000fd5b505050506040513d602081101561149f57600080fd5b8101908080519060200190929190505050905050505050565b6114c0611b9b565b73ffffffffffffffffffffffffffffffffffffffff16600160009054906101000a900473ffffffffffffffffffffffffffffffffffffffff1673ffffffffffffffffffffffffffffffffffffffff1614611582576040517f08c379a00000000000000000000000000000000000000000000000000000000081526004018080602001828103825260208152602001807f4f776e61626c653a2063616c6c6572206973206e6f7420746865206f776e657281525060200191505060405180910390fd5b600073ffffffffffffffffffffffffffffffffffffffff168173ffffffffffffffffffffffffffffffffffffffff161415611608576040517f08c379a0000000000000000000000000000000000000000000000000000000008152600401808060200182810382526026815260200180611d5e6026913960400191505060405180910390fd5b8073ffffffffffffffffffffffffffffffffffffffff16600160009054906101000a900473ffffffffffffffffffffffffffffffffffffffff1673ffffffffffffffffffffffffffffffffffffffff167f8be0079c531659141344cd1fd0a4f28419497f9722a3daafe3b4186f6b6457e060405160405180910390a380600160006101000a81548173ffffffffffffffffffffffffffffffffffffffff021916908373ffffffffffffffffffffffffffffffffffffffff16021790555050565b6116d0611ba3565b73ffffffffffffffffffffffffffffffffffffffff1663b3db428b83600260009054906101000a900473ffffffffffffffffffffffffffffffffffffffff16846040518463ffffffff1660e01b8152600401808473ffffffffffffffffffffffffffffffffffffffff1681526020018373ffffffffffffffffffffffffffffffffffffffff1681526020018281526020019350505050602060405180830381600087803b15801561178057600080fd5b505af1158015611794573d6000803e3d6000fd5b505050506040513d60208110156117aa57600080fd5b8101908080519060200190929190505050611810576040517f08c379a0000000000000000000000000000000000000000000000000000000008152600401808060200182810382526047815260200180611ddd6047913960600191505060405180910390fd5b80600360003373ffffffffffffffffffffffffffffffffffffffff1673ffffffffffffffffffffffffffffffffffffffff16815260200190815260200160002060008282540192505081905550806004600082825401925050819055505050565b60005b60086000600a60009054906101000a900473ffffffffffffffffffffffffffffffffffffffff1673ffffffffffffffffffffffffffffffffffffffff1673ffffffffffffffffffffffffffffffffffffffff16815260200190815260200160002060000154600754600c5443030210611a935760075460086000600a60009054906101000a900473ffffffffffffffffffffffffffffffffffffffff1673ffffffffffffffffffffffffffffffffffffffff1673ffffffffffffffffffffffffffffffffffffffff168152602001908152602001600020600001548161195657fe5b04600c60008282540192505081905550600a60009054906101000a900473ffffffffffffffffffffffffffffffffffffffff16600b60006101000a81548173ffffffffffffffffffffffffffffffffffffffff021916908373ffffffffffffffffffffffffffffffffffffffff16021790555060086000600a60009054906101000a900473ffffffffffffffffffffffffffffffffffffffff1673ffffffffffffffffffffffffffffffffffffffff1673ffffffffffffffffffffffffffffffffffffffff16815260200190815260200160002060010160009054906101000a900473ffffffffffffffffffffffffffffffffffffffff16600a60006101000a81548173ffffffffffffffffffffffffffffffffffffffff021916908373ffffffffffffffffffffffffffffffffffffffff160217905550611874565b600a60009054906101000a900473ffffffffffffffffffffffffffffffffffffffff16905090565b60008060009054906101000a900473ffffffffffffffffffffffffffffffffffffffff1673ffffffffffffffffffffffffffffffffffffffff1663a716b97f8360046040518363ffffffff1660e01b8152600401808373ffffffffffffffffffffffffffffffffffffffff168152602001826005811115611b3857fe5b81526020019250505060206040518083038186803b158015611b5957600080fd5b505afa158015611b6d573d6000803e3d6000fd5b505050506040513d6020811015611b8357600080fd5b81019080805190602001909291905050509050919050565b600033905090565b60008060009054906101000a900473ffffffffffffffffffffffffffffffffffffffff1673ffffffffffffffffffffffffffffffffffffffff166336214c7860006040518263ffffffff1660e01b815260040180826005811115611c0357fe5b815260200191505060206040518083038186803b158015611c2357600080fd5b505afa158015611c37573d6000803e3d6000fd5b505050506040513d6020811015611c4d57600080fd5b8101908080519060200190929190505050905090565b60008060009054906101000a900473ffffffffffffffffffffffffffffffffffffffff1673ffffffffffffffffffffffffffffffffffffffff166336214c7860036040518263ffffffff1660e01b815260040180826005811115611cc357fe5b815260200191505060206040518083038186803b158015611ce357600080fd5b505afa158015611cf7573d6000803e3d6000fd5b505050506040513d6020811015611d0d57600080fd5b810190808051906020019092919050505090509056fe43757272656e746c79206e6f20696e7465726d656469617269657320616c6c6f77656420666f7220746869732066756e6374696f6e2063616c6c4f776e61626c653a206e6577206f776e657220697320746865207a65726f2061646472657373496e73756666696369656e74207374616b6520746f2063616c6c206576656e206f6e6520626c6f636b6d73672e73656e646572206e6f7420617574686f72697a656420746f2064656c656761746520666f72207374616b6572436f756c64206e6f74206465706f736974207374616b652066756e6473202870657268617073206d616b6520616c6c6f77616e636520746f2066756e6420636f6e74726163743f496e73756666696369656e742066756e6473202d2d20736f6d657468696e672077656e74207265616c6c792077726f6e672ea264697066735822122025264673220229f42ddf323b68a7baabd9bcdc023bcfc64f319893d26faa279364736f6c6343000700003360806040526050600a553480156200001657600080fd5b5060405162003a2838038062003a28833981810160405260208110156200003c57600080fd5b810190808051906020019092919050505080806000806101000a81548173ffffffffffffffffffffffffffffffffffffffff021916908373ffffffffffffffffffffffffffffffffffffffff160217905550506000620000a16200014f60201b60201c565b905080600160006101000a81548173ffffffffffffffffffffffffffffffffffffffff021916908373ffffffffffffffffffffffffffffffffffffffff1602179055508073ffffffffffffffffffffffffffffffffffffffff16600073ffffffffffffffffffffffffffffffffffffffff167f8be0079c531659141344cd1fd0a4f28419497f9722a3daafe3b4186f6b6457e060405160405180910390a35060146003819055505062000157565b600033905090565b6138c180620001676000396000f3fe608060405234801561001057600080fd5b506004361061010b5760003560e01c806352a664d9116100a25780638da5cb5b116100715780638da5cb5b146105fd578063b25777ad14610631578063d0eb66531461069f578063d510c5351461070d578063f2fde38b146107ee5761010b565b806352a664d9146104c15780636612ce3514610543578063715018a6146105c557806379575b23146105cf5761010b565b80633500aa0b116100de5780633500aa0b14610292578063392f5f641461033e578063409fdb7214610372578063498d55eb146104535761010b565b806315dc6a281461011057806316317e7e146102285780632c86d98e14610256578063320d2fa014610274575b600080fd5b6102126004803603608081101561012657600080fd5b810190808035906020019064010000000081111561014357600080fd5b82018360208201111561015557600080fd5b8035906020019184602083028401116401000000008311171561017757600080fd5b919080806020026020016040519081016040528093929190818152602001838360200280828437600081840152601f19601f820116905080830192505050505050509192919290803573ffffffffffffffffffffffffffffffffffffffff169060200190929190803573ffffffffffffffffffffffffffffffffffffffff169060200190929190803515159060200190929190505050610832565b6040518082815260200191505060405180910390f35b6102546004803603602081101561023e57600080fd5b8101908080359060200190929190505050610b2a565b005b61025e610bfe565b6040518082815260200191505060405180910390f35b61027c610c04565b6040518082815260200191505060405180910390f35b610328600480360360a08110156102a857600080fd5b81019080803573ffffffffffffffffffffffffffffffffffffffff169060200190929190803573ffffffffffffffffffffffffffffffffffffffff169060200190929190803573ffffffffffffffffffffffffffffffffffffffff1690602001909291908035906020019092919080359060200190929190505050610c0a565b6040518082815260200191505060405180910390f35b610346610d68565b604051808273ffffffffffffffffffffffffffffffffffffffff16815260200191505060405180910390f35b6103b46004803603602081101561038857600080fd5b81019080803573ffffffffffffffffffffffffffffffffffffffff169060200190929190505050610d8c565b604051808060200180602001838103835285818151815260200191508051906020019060200280838360005b838110156103fb5780820151818401526020810190506103e0565b50505050905001838103825284818151815260200191508051906020019060200280838360005b8381101561043d578082015181840152602081019050610422565b5050505090500194505050505060405180910390f35b6104bf6004803603606081101561046957600080fd5b81019080803573ffffffffffffffffffffffffffffffffffffffff169060200190929190803573ffffffffffffffffffffffffffffffffffffffff16906020019092919080359060200190929190505050610f40565b005b61052d600480360360608110156104d757600080fd5b81019080803573ffffffffffffffffffffffffffffffffffffffff169060200190929190803573ffffffffffffffffffffffffffffffffffffffff16906020019092919080359060200190929190505050610ff2565b6040518082815260200191505060405180910390f35b6105af6004803603606081101561055957600080fd5b81019080803573ffffffffffffffffffffffffffffffffffffffff169060200190929190803573ffffffffffffffffffffffffffffffffffffffff16906020019092919080359060200190929190505050611140565b6040518082815260200191505060405180910390f35b6105cd6112ae565b005b6105fb600480360360208110156105e557600080fd5b8101908080359060200190929190505050611439565b005b61060561150d565b604051808273ffffffffffffffffffffffffffffffffffffffff16815260200191505060405180910390f35b61069d6004803603606081101561064757600080fd5b81019080803573ffffffffffffffffffffffffffffffffffffffff169060200190929190803573ffffffffffffffffffffffffffffffffffffffff16906020019092919080359060200190929190505050611537565b005b61070b600480360360608110156106b557600080fd5b81019080803573ffffffffffffffffffffffffffffffffffffffff169060200190929190803573ffffffffffffffffffffffffffffffffffffffff169060200190929190803590602001909291905050506115e3565b005b61074f6004803603602081101561072357600080fd5b81019080803573ffffffffffffffffffffffffffffffffffffffff169060200190929190505050611781565b604051808060200180602001838103835285818151815260200191508051906020019060200280838360005b8381101561079657808201518184015260208101905061077b565b50505050905001838103825284818151815260200191508051906020019060200280838360005b838110156107d85780820151818401526020810190506107bd565b5050505090500194505050505060405180910390f35b6108306004803603602081101561080457600080fd5b81019080803573ffffffffffffffffffffffffffffffffffffffff169060200190929190505050611a2e565b005b600061083d33611c3e565b610892576040517f08c379a000000000000000000000000000000000000000000000000000000000815260040180806020018281038252602f815260200180613811602f913960400191505060405180910390fd5b600061089e8684611d1e565b905060006108aa61240c565b905060606108b66124b7565b905060005b806008805490501115610b1e576000600882815481106108d757fe5b9060005260206000200160009054906101000a900473ffffffffffffffffffffffffffffffffffffffff1690506000600460008373ffffffffffffffffffffffffffffffffffffffff1673ffffffffffffffffffffffffffffffffffffffff168152602001908152602001600020905060006109528261250a565b9050600061095f83612511565b9050600060028054606460035485028161097557fe5b048161097d57fe5b048161098557fe5b049050808a0199508181018310610af85761099e61252e565b73ffffffffffffffffffffffffffffffffffffffff1663d9caed126109c16125ee565b73ffffffffffffffffffffffffffffffffffffffff16631f1cb62b6040518163ffffffff1660e01b815260040160206040518083038186803b158015610a0657600080fd5b505afa158015610a1a573d6000803e3d6000fd5b505050506040513d6020811015610a3057600080fd5b81019080805190602001909291905050508784868803036040518463ffffffff1660e01b8152600401808473ffffffffffffffffffffffffffffffffffffffff1681526020018373ffffffffffffffffffffffffffffffffffffffff1681526020018281526020019350505050602060405180830381600087803b158015610ab757600080fd5b505af1158015610acb573d6000803e3d6000fd5b505050506040513d6020811015610ae157600080fd5b810190808051906020019092919050505050610b03565b600083828401039050505b610b0c846126ae565b505050505080806001019150506108bb565b50505050949350505050565b610b326126b1565b73ffffffffffffffffffffffffffffffffffffffff16600160009054906101000a900473ffffffffffffffffffffffffffffffffffffffff1673ffffffffffffffffffffffffffffffffffffffff1614610bf4576040517f08c379a00000000000000000000000000000000000000000000000000000000081526004018080602001828103825260208152602001807f4f776e61626c653a2063616c6c6572206973206e6f7420746865206f776e657281525060200191505060405180910390fd5b8060038190555050565b60025481565b60035481565b6000610c15336126b9565b610c6a576040517f08c379a00000000000000000000000000000000000000000000000000000000081526004018080602001828103825260398152602001806137596039913960400191505060405180910390fd5b6000600460008873ffffffffffffffffffffffffffffffffffffffff1673ffffffffffffffffffffffffffffffffffffffff168152602001908152602001600020905060008490508160040160008873ffffffffffffffffffffffffffffffffffffffff1673ffffffffffffffffffffffffffffffffffffffff16815260200190815260200160002054851115610d50578160040160008873ffffffffffffffffffffffffffffffffffffffff1673ffffffffffffffffffffffffffffffffffffffff1681526020019081526020016000205490508085039250610d4f828885612799565b5b610d5d8288888488612b3f565b505095945050505050565b60008054906101000a900473ffffffffffffffffffffffffffffffffffffffff1681565b6060806000600460008573ffffffffffffffffffffffffffffffffffffffff1673ffffffffffffffffffffffffffffffffffffffff168152602001908152602001600020905080600301805480602002602001604051908101604052809291908181526020018280548015610e5657602002820191906000526020600020905b8160009054906101000a900473ffffffffffffffffffffffffffffffffffffffff1673ffffffffffffffffffffffffffffffffffffffff1681526020019060010190808311610e0c575b50505050509250806003018054905067ffffffffffffffff81118015610e7b57600080fd5b50604051908082528060200260200182016040528015610eaa5781602001602082028036833780820191505090505b50915060005b8084511115610f39576000848281518110610ec757fe5b602002602001015190508260040160008273ffffffffffffffffffffffffffffffffffffffff1673ffffffffffffffffffffffffffffffffffffffff16815260200190815260200160002054848381518110610f1f57fe5b602002602001018181525050508080600101915050610eb0565b5050915091565b610f49336126b9565b610f9e576040517f08c379a000000000000000000000000000000000000000000000000000000000815260040180806020018281038252602a815260200180613862602a913960400191505060405180910390fd5b6000600460008573ffffffffffffffffffffffffffffffffffffffff1673ffffffffffffffffffffffffffffffffffffffff1681526020019081526020016000209050610fec818484612799565b50505050565b6000610ffd336126b9565b611052576040517f08c379a000000000000000000000000000000000000000000000000000000000815260040180806020018281038252602a815260200180613862602a913960400191505060405180910390fd5b6000600460008673ffffffffffffffffffffffffffffffffffffffff1673ffffffffffffffffffffffffffffffffffffffff16815260200190815260200160002090506110a0818585612bea565b60008160010160008673ffffffffffffffffffffffffffffffffffffffff1673ffffffffffffffffffffffffffffffffffffffff16815260200190815260200160002054111561113857611135838260010160008773ffffffffffffffffffffffffffffffffffffffff1673ffffffffffffffffffffffffffffffffffffffff16815260200190815260200160002054612cb2565b91505b509392505050565b600061114b336126b9565b6111a0576040517f08c379a00000000000000000000000000000000000000000000000000000000081526004018080602001828103825260338152602001806137b86033913960400191505060405180910390fd5b6000600460008673ffffffffffffffffffffffffffffffffffffffff1673ffffffffffffffffffffffffffffffffffffffff16815260200190815260200160002090508060040160008573ffffffffffffffffffffffffffffffffffffffff1673ffffffffffffffffffffffffffffffffffffffff1681526020019081526020016000205483039150611234818584612cce565b6112a6576040517f08c379a00000000000000000000000000000000000000000000000000000000081526004018080602001828103825260188152602001807f43616e277420626f72726f772066756c6c20616d6f756e74000000000000000081525060200191505060405180910390fd5b509392505050565b6112b66126b1565b73ffffffffffffffffffffffffffffffffffffffff16600160009054906101000a900473ffffffffffffffffffffffffffffffffffffffff1673ffffffffffffffffffffffffffffffffffffffff1614611378576040517f08c379a00000000000000000000000000000000000000000000000000000000081526004018080602001828103825260208152602001807f4f776e61626c653a2063616c6c6572206973206e6f7420746865206f776e657281525060200191505060405180910390fd5b600073ffffffffffffffffffffffffffffffffffffffff16600160009054906101000a900473ffffffffffffffffffffffffffffffffffffffff1673ffffffffffffffffffffffffffffffffffffffff167f8be0079c531659141344cd1fd0a4f28419497f9722a3daafe3b4186f6b6457e060405160405180910390a36000600160006101000a81548173ffffffffffffffffffffffffffffffffffffffff021916908373ffffffffffffffffffffffffffffffffffffffff160217905550565b6114416126b1565b73ffffffffffffffffffffffffffffffffffffffff16600160009054906101000a900473ffffffffffffffffffffffffffffffffffffffff1673ffffffffffffffffffffffffffffffffffffffff1614611503576040517f08c379a00000000000000000000000000000000000000000000000000000000081526004018080602001828103825260208152602001807f4f776e61626c653a2063616c6c6572206973206e6f7420746865206f776e657281525060200191505060405180910390fd5b8060028190555050565b6000600160009054906101000a900473ffffffffffffffffffffffffffffffffffffffff16905090565b611540336126b9565b611595576040517f08c379a000000000000000000000000000000000000000000000000000000000815260040180806020018281038252602a815260200180613862602a913960400191505060405180910390fd5b6115de600460008573ffffffffffffffffffffffffffffffffffffffff1673ffffffffffffffffffffffffffffffffffffffff1681526020019081526020016000208383612d1e565b505050565b6115ec336126b9565b611641576040517f08c379a000000000000000000000000000000000000000000000000000000000815260040180806020018281038252602a815260200180613862602a913960400191505060405180910390fd5b6000600460008573ffffffffffffffffffffffffffffffffffffffff1673ffffffffffffffffffffffffffffffffffffffff16815260200190815260200160002090506116d8828260040160008673ffffffffffffffffffffffffffffffffffffffff1673ffffffffffffffffffffffffffffffffffffffff16815260200190815260200160002054612fd790919063ffffffff16565b8160040160008573ffffffffffffffffffffffffffffffffffffffff1673ffffffffffffffffffffffffffffffffffffffff1681526020019081526020016000208190555061172681613021565b61177b576040517f08c379a00000000000000000000000000000000000000000000000000000000081526004018080602001828103825260268152602001806137eb6026913960400191505060405180910390fd5b50505050565b6060806000600460008573ffffffffffffffffffffffffffffffffffffffff1673ffffffffffffffffffffffffffffffffffffffff16815260200190815260200160002090508060000180548060200260200160405190810160405280929190818152602001828054801561184b57602002820191906000526020600020905b8160009054906101000a900473ffffffffffffffffffffffffffffffffffffffff1673ffffffffffffffffffffffffffffffffffffffff1681526020019060010190808311611801575b50505050509250806000018054905067ffffffffffffffff8111801561187057600080fd5b5060405190808252806020026020018201604052801561189f5781602001602082028036833780820191505090505b50915060005b8084511115611a275760008482815181106118bc57fe5b602002602001015190506118ce613054565b73ffffffffffffffffffffffffffffffffffffffff1663687680ed8460010160008473ffffffffffffffffffffffffffffffffffffffff1673ffffffffffffffffffffffffffffffffffffffff16815260200190815260200160002054838660020160008673ffffffffffffffffffffffffffffffffffffffff1673ffffffffffffffffffffffffffffffffffffffff168152602001908152602001600020546040518463ffffffff1660e01b8152600401808481526020018373ffffffffffffffffffffffffffffffffffffffff168152602001828152602001935050505060206040518083038186803b1580156119c657600080fd5b505afa1580156119da573d6000803e3d6000fd5b505050506040513d60208110156119f057600080fd5b8101908080519060200190929190505050848381518110611a0d57fe5b6020026020010181815250505080806001019150506118a5565b5050915091565b611a366126b1565b73ffffffffffffffffffffffffffffffffffffffff16600160009054906101000a900473ffffffffffffffffffffffffffffffffffffffff1673ffffffffffffffffffffffffffffffffffffffff1614611af8576040517f08c379a00000000000000000000000000000000000000000000000000000000081526004018080602001828103825260208152602001807f4f776e61626c653a2063616c6c6572206973206e6f7420746865206f776e657281525060200191505060405180910390fd5b600073ffffffffffffffffffffffffffffffffffffffff168173ffffffffffffffffffffffffffffffffffffffff161415611b7e576040517f08c379a00000000000000000000000000000000000000000000000000000000081526004018080602001828103825260268152602001806137926026913960400191505060405180910390fd5b8073ffffffffffffffffffffffffffffffffffffffff16600160009054906101000a900473ffffffffffffffffffffffffffffffffffffffff1673ffffffffffffffffffffffffffffffffffffffff167f8be0079c531659141344cd1fd0a4f28419497f9722a3daafe3b4186f6b6457e060405160405180910390a380600160006101000a81548173ffffffffffffffffffffffffffffffffffffffff021916908373ffffffffffffffffffffffffffffffffffffffff16021790555050565b60008060009054906101000a900473ffffffffffffffffffffffffffffffffffffffff1673ffffffffffffffffffffffffffffffffffffffff1663a716b97f8360016040518363ffffffff1660e01b8152600401808373ffffffffffffffffffffffffffffffffffffffff168152602001826005811115611cbb57fe5b81526020019250505060206040518083038186803b158015611cdc57600080fd5b505afa158015611cf0573d6000803e3d6000fd5b505050506040513d6020811015611d0657600080fd5b81019080805190602001909291905050509050919050565b60008067ffffffffffffffff81118015611d3757600080fd5b50604051908082528060200260200182016040528015611d665781602001602082028036833780820191505090505b5060069080519060200190611d7c929190613693565b50600067ffffffffffffffff81118015611d9557600080fd5b50604051908082528060200260200182016040528015611dc45781602001602082028036833780820191505090505b5060079080519060200190611dda929190613693565b50600067ffffffffffffffff81118015611df357600080fd5b50604051908082528060200260200182016040528015611e225781602001602082028036833780820191505090505b5060089080519060200190611e38929190613693565b5060005b8084511115612405576000848281518110611e5357fe5b602002602001015190506000600460008373ffffffffffffffffffffffffffffffffffffffff1673ffffffffffffffffffffffffffffffffffffffff1681526020019081526020016000209050611ea981613114565b1561235f576008829080600181540180825580915050600190039060005260206000200160009091909190916101000a81548173ffffffffffffffffffffffffffffffffffffffff021916908373ffffffffffffffffffffffffffffffffffffffff16021790555060005b80826003018054905011156120d7576000826003018281548110611f3457fe5b9060005260206000200160009054906101000a900473ffffffffffffffffffffffffffffffffffffffff1690506000600560008373ffffffffffffffffffffffffffffffffffffffff1673ffffffffffffffffffffffffffffffffffffffff168152602001908152602001600020905043816002015414612074578360040160008373ffffffffffffffffffffffffffffffffffffffff1673ffffffffffffffffffffffffffffffffffffffff168152602001908152602001600020548160010181905550600081600001819055504381600201819055506006829080600181540180825580915050600190039060005260206000200160009091909190916101000a81548173ffffffffffffffffffffffffffffffffffffffff021916908373ffffffffffffffffffffffffffffffffffffffff1602179055506120c8565b8360040160008373ffffffffffffffffffffffffffffffffffffffff1673ffffffffffffffffffffffffffffffffffffffff1681526020019081526020016000205481600101600082825401925050819055505b50508080600101915050611f14565b5060005b808260000180549050111561235d5760008260000182815481106120fb57fe5b9060005260206000200160009054906101000a900473ffffffffffffffffffffffffffffffffffffffff1690506000600560008373ffffffffffffffffffffffffffffffffffffffff1673ffffffffffffffffffffffffffffffffffffffff16815260200190815260200160002090506000612175613054565b73ffffffffffffffffffffffffffffffffffffffff1663e7bde5c1846040518263ffffffff1660e01b8152600401808273ffffffffffffffffffffffffffffffffffffffff16815260200191505060206040518083038186803b1580156121db57600080fd5b505afa1580156121ef573d6000803e3d6000fd5b505050506040513d602081101561220557600080fd5b8101908080519060200190929190505050905060008560020160008573ffffffffffffffffffffffffffffffffffffffff1673ffffffffffffffffffffffffffffffffffffffff16815260200190815260200160002054828760010160008773ffffffffffffffffffffffffffffffffffffffff1673ffffffffffffffffffffffffffffffffffffffff1681526020019081526020016000205402816122a757fe5b0490504383600201541461233957600083600101819055508083600001819055504383600201819055506007849080600181540180825580915050600190039060005260206000200160009091909190916101000a81548173ffffffffffffffffffffffffffffffffffffffff021916908373ffffffffffffffffffffffffffffffffffffffff16021790555061234c565b8083600001600082825401925050819055505b5050505080806001019150506120db565b505b6000600960008473ffffffffffffffffffffffffffffffffffffffff1673ffffffffffffffffffffffffffffffffffffffff1681526020019081526020016000209050600081600101541180156123b35750855b156123f55760006123cf82600001544360010103600a54612cb2565b90506000600a5483600101548302816123e457fe5b049050808360010154038701965050505b5050508080600101915050611e3c565b5092915050565b600080600090505b8060068054905011156124b3576000600560006006848154811061243457fe5b9060005260206000200160009054906101000a900473ffffffffffffffffffffffffffffffffffffffff1673ffffffffffffffffffffffffffffffffffffffff1673ffffffffffffffffffffffffffffffffffffffff168152602001908152602001600020600101549050600083019250508080600101915050612414565b5090565b606060078054905067ffffffffffffffff811180156124d557600080fd5b506040519080825280602002602001820160405280156125045781602001602082028036833780820191505090505b50905090565b6000919050565b600061252782600001836001018460020161314e565b9050919050565b60008060009054906101000a900473ffffffffffffffffffffffffffffffffffffffff1673ffffffffffffffffffffffffffffffffffffffff166336214c7860006040518263ffffffff1660e01b81526004018082600581111561258e57fe5b815260200191505060206040518083038186803b1580156125ae57600080fd5b505afa1580156125c2573d6000803e3d6000fd5b505050506040513d60208110156125d857600080fd5b8101908080519060200190929190505050905090565b60008060009054906101000a900473ffffffffffffffffffffffffffffffffffffffff1673ffffffffffffffffffffffffffffffffffffffff166336214c7860056040518263ffffffff1660e01b81526004018082600581111561264e57fe5b815260200191505060206040518083038186803b15801561266e57600080fd5b505afa158015612682573d6000803e3d6000fd5b505050506040513d602081101561269857600080fd5b8101908080519060200190929190505050905090565b50565b600033905090565b60008060009054906101000a900473ffffffffffffffffffffffffffffffffffffffff1673ffffffffffffffffffffffffffffffffffffffff1663a716b97f8360036040518363ffffffff1660e01b8152600401808373ffffffffffffffffffffffffffffffffffffffff16815260200182600581111561273657fe5b81526020019250505060206040518083038186803b15801561275757600080fd5b505afa15801561276b573d6000803e3d6000fd5b505050506040513d602081101561278157600080fd5b81019080805190602001909291905050509050919050565b6127a38383613200565b6128ff5782600001829080600181540180825580915050600190039060005260206000200160009091909190916101000a81548173ffffffffffffffffffffffffffffffffffffffff021916908373ffffffffffffffffffffffffffffffffffffffff160217905550612814613054565b73ffffffffffffffffffffffffffffffffffffffff1663e7bde5c1836040518263ffffffff1660e01b8152600401808273ffffffffffffffffffffffffffffffffffffffff16815260200191505060206040518083038186803b15801561287a57600080fd5b505afa15801561288e573d6000803e3d6000fd5b505050506040513d60208110156128a457600080fd5b81019080805190602001909291905050508360020160008473ffffffffffffffffffffffffffffffffffffffff1673ffffffffffffffffffffffffffffffffffffffff16815260200190815260200160002081905550612a82565b612907613054565b73ffffffffffffffffffffffffffffffffffffffff1663e695fa688460010160008573ffffffffffffffffffffffffffffffffffffffff1673ffffffffffffffffffffffffffffffffffffffff16815260200190815260200160002054848660020160008773ffffffffffffffffffffffffffffffffffffffff1673ffffffffffffffffffffffffffffffffffffffff168152602001908152602001600020546040518463ffffffff1660e01b8152600401808481526020018373ffffffffffffffffffffffffffffffffffffffff1681526020018281526020019350505050602060405180830381600087803b158015612a0157600080fd5b505af1158015612a15573d6000803e3d6000fd5b505050506040513d6020811015612a2b57600080fd5b81019080805190602001909291905050508360010160008473ffffffffffffffffffffffffffffffffffffffff1673ffffffffffffffffffffffffffffffffffffffff168152602001908152602001600020819055505b808360010160008473ffffffffffffffffffffffffffffffffffffffff1673ffffffffffffffffffffffffffffffffffffffff16815260200190815260200160002060008282540192505081905550612adc838383612bea565b612ae583613021565b612b3a576040517f08c379a00000000000000000000000000000000000000000000000000000000081526004018080602001828103825260228152602001806138406022913960400191505060405180910390fd5b505050565b612b93828660040160008773ffffffffffffffffffffffffffffffffffffffff1673ffffffffffffffffffffffffffffffffffffffff16815260200190815260200160002054612fd790919063ffffffff16565b8560040160008673ffffffffffffffffffffffffffffffffffffffff1673ffffffffffffffffffffffffffffffffffffffff16815260200190815260200160002081905550612be3858483612bea565b5050505050565b612bf4838361324e565b612c5e5782600301829080600181540180825580915050600190039060005260206000200160009091909190916101000a81548173ffffffffffffffffffffffffffffffffffffffff021916908373ffffffffffffffffffffffffffffffffffffffff1602179055505b808360040160008473ffffffffffffffffffffffffffffffffffffffff1673ffffffffffffffffffffffffffffffffffffffff16815260200190815260200160002060008282540192505081905550505050565b600081831115612cc457819050612cc8565b8290505b92915050565b6000818460040160008573ffffffffffffffffffffffffffffffffffffffff1673ffffffffffffffffffffffffffffffffffffffff16815260200190815260200160002054101590509392505050565b612d26613054565b73ffffffffffffffffffffffffffffffffffffffff1663e695fa688460010160008573ffffffffffffffffffffffffffffffffffffffff1673ffffffffffffffffffffffffffffffffffffffff16815260200190815260200160002054848660020160008773ffffffffffffffffffffffffffffffffffffffff1673ffffffffffffffffffffffffffffffffffffffff168152602001908152602001600020546040518463ffffffff1660e01b8152600401808481526020018373ffffffffffffffffffffffffffffffffffffffff1681526020018281526020019350505050602060405180830381600087803b158015612e2057600080fd5b505af1158015612e34573d6000803e3d6000fd5b505050506040513d6020811015612e4a57600080fd5b81019080805190602001909291905050508360010160008473ffffffffffffffffffffffffffffffffffffffff1673ffffffffffffffffffffffffffffffffffffffff16815260200190815260200160002081905550612ef4818460010160008573ffffffffffffffffffffffffffffffffffffffff1673ffffffffffffffffffffffffffffffffffffffff16815260200190815260200160002054612fd790919063ffffffff16565b8360010160008473ffffffffffffffffffffffffffffffffffffffff1673ffffffffffffffffffffffffffffffffffffffff16815260200190815260200160002081905550612f8d818460040160008573ffffffffffffffffffffffffffffffffffffffff1673ffffffffffffffffffffffffffffffffffffffff16815260200190815260200160002054612fd790919063ffffffff16565b8360040160008473ffffffffffffffffffffffffffffffffffffffff1673ffffffffffffffffffffffffffffffffffffffff16815260200190815260200160002081905550505050565b600061301983836040518060400160405280601e81526020017f536166654d6174683a207375627472616374696f6e206f766572666c6f7700008152506132a7565b905092915050565b60008061302d83612511565b9050600061303a84613367565b905060025482026001600254018202101592505050919050565b60008060009054906101000a900473ffffffffffffffffffffffffffffffffffffffff1673ffffffffffffffffffffffffffffffffffffffff166336214c7860016040518263ffffffff1660e01b8152600401808260058111156130b457fe5b815260200191505060206040518083038186803b1580156130d457600080fd5b505afa1580156130e8573d6000803e3d6000fd5b505050506040513d60208110156130fe57600080fd5b8101908080519060200190929190505050905090565b60008061312083612511565b9050600061312d84613367565b90508160035460025460640201026064600254830202101592505050919050565b600080600090505b84805490508110156131f857600085828154811061317057fe5b9060005260206000200160009054906101000a900473ffffffffffffffffffffffffffffffffffffffff1690506131e6818660008473ffffffffffffffffffffffffffffffffffffffff1673ffffffffffffffffffffffffffffffffffffffff1681526020019081526020016000205486613380565b83019250508080600101915050613156565b509392505050565b6000808360020160008473ffffffffffffffffffffffffffffffffffffffff1673ffffffffffffffffffffffffffffffffffffffff1681526020019081526020016000205411905092915050565b60008260050160008373ffffffffffffffffffffffffffffffffffffffff1673ffffffffffffffffffffffffffffffffffffffff16815260200190815260200160002060009054906101000a900460ff16905092915050565b6000838311158290613354576040517f08c379a00000000000000000000000000000000000000000000000000000000081526004018080602001828103825283818151815260200191508051906020019080838360005b838110156133195780820151818401526020810190506132fe565b50505050905090810190601f1680156133465780820380516001836020036101000a031916815260200191505b509250505060405180910390fd5b5060008385039050809150509392505050565b6000613379826003018360040161353a565b9050919050565b60008061338b613054565b73ffffffffffffffffffffffffffffffffffffffff1663e7bde5c1866040518263ffffffff1660e01b8152600401808273ffffffffffffffffffffffffffffffffffffffff16815260200191505060206040518083038186803b1580156133f157600080fd5b505afa158015613405573d6000803e3d6000fd5b505050506040513d602081101561341b57600080fd5b8101908080519060200190929190505050905060008360008773ffffffffffffffffffffffffffffffffffffffff1673ffffffffffffffffffffffffffffffffffffffff168152602001908152602001600020548286028161347957fe5b0490506134846125ee565b73ffffffffffffffffffffffffffffffffffffffff1663e47109a987836040518363ffffffff1660e01b8152600401808373ffffffffffffffffffffffffffffffffffffffff16815260200182815260200192505050602060405180830381600087803b1580156134f457600080fd5b505af1158015613508573d6000803e3d6000fd5b505050506040513d602081101561351e57600080fd5b8101908080519060200190929190505050925050509392505050565b600080600090505b838054905081101561368c57600084828154811061355c57fe5b9060005260206000200160009054906101000a900473ffffffffffffffffffffffffffffffffffffffff1690506135916125ee565b73ffffffffffffffffffffffffffffffffffffffff1663e47109a9828660008573ffffffffffffffffffffffffffffffffffffffff1673ffffffffffffffffffffffffffffffffffffffff168152602001908152602001600020546040518363ffffffff1660e01b8152600401808373ffffffffffffffffffffffffffffffffffffffff16815260200182815260200192505050602060405180830381600087803b15801561363f57600080fd5b505af1158015613653573d6000803e3d6000fd5b505050506040513d602081101561366957600080fd5b810190808051906020019092919050505083019250508080600101915050613542565b5092915050565b82805482825590600052602060002090810192821561370c579160200282015b8281111561370b5782518260006101000a81548173ffffffffffffffffffffffffffffffffffffffff021916908373ffffffffffffffffffffffffffffffffffffffff160217905550916020019190600101906136b3565b5b509050613719919061371d565b5090565b5b8082111561375457600081816101000a81549073ffffffffffffffffffffffffffffffffffffffff02191690555060010161371e565b509056fe43616c6c696e6720636f6e7472616374206973206e6f7420616e20617574686f72697a6564206d617267696e20747261646572206167656e744f776e61626c653a206e6577206f776e657220697320746865207a65726f206164647265737343616c6c696e6720636f6e7472616374206973206e6f7420616e20617574686f72697a6564206d617267696e207472616465724163636f756e742062616c616e636520697320746f6f206c6f7720746f20776974686472617743616c6c696e67206164647265737320646f65736e27742068617665206d617267696e2063616c6c657220726f6c6543616e277420626f72726f773a20696e73756666696369656e742062616c616e636543616c6c696e6720636f6e7472616374206e6f7420617574686f72697a656420746f206465706f736974a2646970667358221220f509987153376a49a8e1665c3dc421946f9b91749c0ed28cf5862cd007e362ef64736f6c63430007000033608060405234801561001057600080fd5b50604051611d90380380611d908339818101604052602081101561003357600080fd5b810190808051906020019092919050505080806000806101000a81548173ffffffffffffffffffffffffffffffffffffffff021916908373ffffffffffffffffffffffffffffffffffffffff16021790555050600061009661013b60201b60201c565b905080600160006101000a81548173ffffffffffffffffffffffffffffffffffffffff021916908373ffffffffffffffffffffffffffffffffffffffff1602179055508073ffffffffffffffffffffffffffffffffffffffff16600073ffffffffffffffffffffffffffffffffffffffff167f8be0079c531659141344cd1fd0a4f28419497f9722a3daafe3b4186f6b6457e060405160405180910390a35050610143565b600033905090565b611c3e806101526000396000f3fe608060405234801561001057600080fd5b506004361061014d5760003560e01c8063b170295d116100c3578063e695fa681161007c578063e695fa681461061c578063e7bde5c114610688578063ee0862bf146106e0578063f29b4c451461072e578063f2fde38b14610786578063f419155a146107ca5761014d565b8063b170295d1461042a578063ba867fbf1461048c578063bfedc0bf146104da578063cd3b5dfb14610540578063d71a0e61146105a6578063e2e1ca2b146105c45761014d565b8063687680ed11610115578063687680ed146102d2578063715018a61461033e578063754b80af14610348578063839737e4146103665780638da5cb5b146103b4578063a370db68146103e85761014d565b806309321a3e1461015257806316de7a43146101aa5780632a6a897b146101f8578063392f5f641461024657806349f7cff61461027a575b600080fd5b6101946004803603602081101561016857600080fd5b81019080803573ffffffffffffffffffffffffffffffffffffffff16906020019092919050505061082c565b6040518082815260200191505060405180910390f35b6101f6600480360360408110156101c057600080fd5b81019080803573ffffffffffffffffffffffffffffffffffffffff1690602001909291908035906020019092919050505061084a565b005b6102446004803603604081101561020e57600080fd5b81019080803573ffffffffffffffffffffffffffffffffffffffff16906020019092919080359060200190929190505050610c0a565b005b61024e610cd6565b604051808273ffffffffffffffffffffffffffffffffffffffff16815260200191505060405180910390f35b6102bc6004803603602081101561029057600080fd5b81019080803573ffffffffffffffffffffffffffffffffffffffff169060200190929190505050610cfa565b6040518082815260200191505060405180910390f35b610328600480360360608110156102e857600080fd5b8101908080359060200190929190803573ffffffffffffffffffffffffffffffffffffffff16906020019092919080359060200190929190505050610d12565b6040518082815260200191505060405180910390f35b610346610d38565b005b610350610ec3565b6040518082815260200191505060405180910390f35b6103b26004803603604081101561037c57600080fd5b81019080803573ffffffffffffffffffffffffffffffffffffffff16906020019092919080359060200190929190505050610ec9565b005b6103bc610ecd565b604051808273ffffffffffffffffffffffffffffffffffffffff16815260200191505060405180910390f35b610414600480360360208110156103fe57600080fd5b8101908080359060200190929190505050610ef7565b6040518082815260200191505060405180910390f35b6104766004803603604081101561044057600080fd5b81019080803573ffffffffffffffffffffffffffffffffffffffff16906020019092919080359060200190929190505050610f0f565b6040518082815260200191505060405180910390f35b6104d8600480360360408110156104a257600080fd5b81019080803573ffffffffffffffffffffffffffffffffffffffff16906020019092919080359060200190929190505050610f34565b005b61051c600480360360208110156104f057600080fd5b81019080803573ffffffffffffffffffffffffffffffffffffffff1690602001909291905050506111cd565b60405180848152602001838152602001828152602001935050505060405180910390f35b6105826004803603602081101561055657600080fd5b81019080803573ffffffffffffffffffffffffffffffffffffffff1690602001909291905050506111f7565b60405180848152602001838152602001828152602001935050505060405180910390f35b6105ae611221565b6040518082815260200191505060405180910390f35b610606600480360360208110156105da57600080fd5b81019080803573ffffffffffffffffffffffffffffffffffffffff169060200190929190505050611227565b6040518082815260200191505060405180910390f35b6106726004803603606081101561063257600080fd5b8101908080359060200190929190803573ffffffffffffffffffffffffffffffffffffffff1690602001909291908035906020019092919050505061123f565b6040518082815260200191505060405180910390f35b6106ca6004803603602081101561069e57600080fd5b81019080803573ffffffffffffffffffffffffffffffffffffffff169060200190929190505050611269565b6040518082815260200191505060405180910390f35b61072c600480360360408110156106f657600080fd5b81019080803573ffffffffffffffffffffffffffffffffffffffff1690602001909291908035906020019092919050505061127e565b005b6107706004803603602081101561074457600080fd5b81019080803573ffffffffffffffffffffffffffffffffffffffff16906020019092919050505061159a565b6040518082815260200191505060405180910390f35b6107c86004803603602081101561079c57600080fd5b81019080803573ffffffffffffffffffffffffffffffffffffffff1690602001909291905050506115b2565b005b610816600480360360408110156107e057600080fd5b81019080803573ffffffffffffffffffffffffffffffffffffffff169060200190929190803590602001909291905050506117c2565b6040518082815260200191505060405180910390f35b60056020528060005260406000206000915090508060020154905081565b6000600560003373ffffffffffffffffffffffffffffffffffffffff1673ffffffffffffffffffffffffffffffffffffffff168152602001908152602001600020905060008160010160008573ffffffffffffffffffffffffffffffffffffffff1673ffffffffffffffffffffffffffffffffffffffff16815260200190815260200160002054905060008111156109c45760006108ea856006426117e7565b905061097d8360000160008773ffffffffffffffffffffffffffffffffffffffff1673ffffffffffffffffffffffffffffffffffffffff1681526020019081526020016000205482600001548560010160008973ffffffffffffffffffffffffffffffffffffffff1673ffffffffffffffffffffffffffffffffffffffff1681526020019081526020016000205461188b565b8360000160008773ffffffffffffffffffffffffffffffffffffffff1673ffffffffffffffffffffffffffffffffffffffff16815260200190815260200160002081905550505b600660008573ffffffffffffffffffffffffffffffffffffffff1673ffffffffffffffffffffffffffffffffffffffff168152602001908152602001600020600001548260010160008673ffffffffffffffffffffffffffffffffffffffff1673ffffffffffffffffffffffffffffffffffffffff16815260200190815260200160002081905550610e104281610a5757fe5b068260020181905550610a686118a2565b73ffffffffffffffffffffffffffffffffffffffff166347e7ef2485856040518363ffffffff1660e01b8152600401808373ffffffffffffffffffffffffffffffffffffffff16815260200182815260200192505050602060405180830381600087803b158015610ad857600080fd5b505af1158015610aec573d6000803e3d6000fd5b505050506040513d6020811015610b0257600080fd5b8101908080519060200190929190505050610b68576040517f08c379a000000000000000000000000000000000000000000000000000000000815260040180806020018281038252602d815260200180611bdc602d913960400191505060405180910390fd5b828260000160008673ffffffffffffffffffffffffffffffffffffffff1673ffffffffffffffffffffffffffffffffffffffff1681526020019081526020016000206000828254019250508190555082600360008673ffffffffffffffffffffffffffffffffffffffff1673ffffffffffffffffffffffffffffffffffffffff1681526020019081526020016000206000828254019250508190555050505050565b610c1333611962565b610c85576040517f08c379a00000000000000000000000000000000000000000000000000000000081526004018080602001828103825260188152602001807f4e6f7420616e20617070726f76656420626f72726f776572000000000000000081525060200191505060405180910390fd5b80600260008473ffffffffffffffffffffffffffffffffffffffff1673ffffffffffffffffffffffffffffffffffffffff168152602001908152602001600020600082825403925050819055505050565b60008054906101000a900473ffffffffffffffffffffffffffffffffffffffff1681565b60036020528060005260406000206000915090505481565b600080610d2184600742611a42565b9050610d2e85828561188b565b9150509392505050565b610d40611adc565b73ffffffffffffffffffffffffffffffffffffffff16600160009054906101000a900473ffffffffffffffffffffffffffffffffffffffff1673ffffffffffffffffffffffffffffffffffffffff1614610e02576040517f08c379a00000000000000000000000000000000000000000000000000000000081526004018080602001828103825260208152602001807f4f776e61626c653a2063616c6c6572206973206e6f7420746865206f776e657281525060200191505060405180910390fd5b600073ffffffffffffffffffffffffffffffffffffffff16600160009054906101000a900473ffffffffffffffffffffffffffffffffffffffff1673ffffffffffffffffffffffffffffffffffffffff167f8be0079c531659141344cd1fd0a4f28419497f9722a3daafe3b4186f6b6457e060405160405180910390a36000600160006101000a81548173ffffffffffffffffffffffffffffffffffffffff021916908373ffffffffffffffffffffffffffffffffffffffff160217905550565b600a5481565b5050565b6000600160009054906101000a900473ffffffffffffffffffffffffffffffffffffffff16905090565b600c6020528060005260406000206000915090505481565b6009602052816000526040600020602052806000526040600020600091509150505481565b6000600560003373ffffffffffffffffffffffffffffffffffffffff1673ffffffffffffffffffffffffffffffffffffffff16815260200190815260200160002090506000610e108260020154420381610f8a57fe5b069050806101681015610fe8576040517f08c379a000000000000000000000000000000000000000000000000000000000815260040180806020018281038252603f815260200180611b9d603f913960400191505060405180910390fd5b610ff06118a2565b73ffffffffffffffffffffffffffffffffffffffff1663d9caed128533866040518463ffffffff1660e01b8152600401808473ffffffffffffffffffffffffffffffffffffffff1681526020018373ffffffffffffffffffffffffffffffffffffffff1681526020018281526020019350505050602060405180830381600087803b15801561107e57600080fd5b505af1158015611092573d6000803e3d6000fd5b505050506040513d60208110156110a857600080fd5b810190808051906020019092919050505061112b576040517f08c379a00000000000000000000000000000000000000000000000000000000081526004018080602001828103825260168152602001807f496e73756666696369656e74206c69717569646974790000000000000000000081525060200191505060405180910390fd5b828260000160008673ffffffffffffffffffffffffffffffffffffffff1673ffffffffffffffffffffffffffffffffffffffff1681526020019081526020016000206000828254039250508190555082600360008673ffffffffffffffffffffffffffffffffffffffff1673ffffffffffffffffffffffffffffffffffffffff1681526020019081526020016000206000828254039250508190555050505050565b60066020528060005260406000206000915090508060000154908060010154908060020154905083565b60076020528060005260406000206000915090508060000154908060010154908060020154905083565b600b5481565b60026020528060005260406000206000915090505481565b60008061124e846007426117e7565b905061125f8582600001548561188b565b9150509392505050565b600061127782600742611a42565b9050919050565b61128733611962565b6112f9576040517f08c379a00000000000000000000000000000000000000000000000000000000081526004018080602001828103825260188152602001807f4e6f7420616e20617070726f76656420626f72726f776572000000000000000081525060200191505060405180910390fd5b6113016118a2565b73ffffffffffffffffffffffffffffffffffffffff16635acf6903836040518263ffffffff1660e01b8152600401808273ffffffffffffffffffffffffffffffffffffffff16815260200191505060206040518083038186803b15801561136757600080fd5b505afa15801561137b573d6000803e3d6000fd5b505050506040513d602081101561139157600080fd5b8101908080519060200190929190505050611414576040517f08c379a00000000000000000000000000000000000000000000000000000000081526004018080602001828103825260158152602001807f4e6f7420616e20617070726f76656420746f6b656e000000000000000000000081525060200191505060405180910390fd5b80600260008473ffffffffffffffffffffffffffffffffffffffff1673ffffffffffffffffffffffffffffffffffffffff16815260200190815260200160002060008282540192505081905550600260008373ffffffffffffffffffffffffffffffffffffffff1673ffffffffffffffffffffffffffffffffffffffff16815260200190815260200160002054600460008473ffffffffffffffffffffffffffffffffffffffff1673ffffffffffffffffffffffffffffffffffffffff16815260200190815260200160002054600360008573ffffffffffffffffffffffffffffffffffffffff1673ffffffffffffffffffffffffffffffffffffffff16815260200190815260200160002054011015611596576040517f08c379a000000000000000000000000000000000000000000000000000000000815260040180806020018281038252601c8152602001807f496e73756666696369656e74206361706974616c20746f206c656e640000000081525060200191505060405180910390fd5b5050565b60046020528060005260406000206000915090505481565b6115ba611adc565b73ffffffffffffffffffffffffffffffffffffffff16600160009054906101000a900473ffffffffffffffffffffffffffffffffffffffff1673ffffffffffffffffffffffffffffffffffffffff161461167c576040517f08c379a00000000000000000000000000000000000000000000000000000000081526004018080602001828103825260208152602001807f4f776e61626c653a2063616c6c6572206973206e6f7420746865206f776e657281525060200191505060405180910390fd5b600073ffffffffffffffffffffffffffffffffffffffff168173ffffffffffffffffffffffffffffffffffffffff161415611702576040517f08c379a0000000000000000000000000000000000000000000000000000000008152600401808060200182810382526026815260200180611b776026913960400191505060405180910390fd5b8073ffffffffffffffffffffffffffffffffffffffff16600160009054906101000a900473ffffffffffffffffffffffffffffffffffffffff1673ffffffffffffffffffffffffffffffffffffffff167f8be0079c531659141344cd1fd0a4f28419497f9722a3daafe3b4186f6b6457e060405160405180910390a380600160006101000a81548173ffffffffffffffffffffffffffffffffffffffff021916908373ffffffffffffffffffffffffffffffffffffffff16021790555050565b6008602052816000526040600020602052806000526040600020600091509150505481565b60008260008573ffffffffffffffffffffffffffffffffffffffff1673ffffffffffffffffffffffffffffffffffffffff168152602001908152602001600020905060008360008673ffffffffffffffffffffffffffffffffffffffff1673ffffffffffffffffffffffffffffffffffffffff168152602001908152602001600020600101548303905061187b8282611ae4565b8260000181905550509392505050565b6000818385028161189857fe5b0490509392505050565b60008060009054906101000a900473ffffffffffffffffffffffffffffffffffffffff1673ffffffffffffffffffffffffffffffffffffffff166336214c7860006040518263ffffffff1660e01b81526004018082600581111561190257fe5b815260200191505060206040518083038186803b15801561192257600080fd5b505afa158015611936573d6000803e3d6000fd5b505050506040513d602081101561194c57600080fd5b8101908080519060200190929190505050905090565b60008060009054906101000a900473ffffffffffffffffffffffffffffffffffffffff1673ffffffffffffffffffffffffffffffffffffffff1663a716b97f8360026040518363ffffffff1660e01b8152600401808373ffffffffffffffffffffffffffffffffffffffff1681526020018260058111156119df57fe5b81526020019250505060206040518083038186803b158015611a0057600080fd5b505afa158015611a14573d6000803e3d6000fd5b505050506040513d6020811015611a2a57600080fd5b81019080805190602001909291905050509050919050565b6000808360008673ffffffffffffffffffffffffffffffffffffffff1673ffffffffffffffffffffffffffffffffffffffff1681526020019081526020016000206001015483039050611ad28460008773ffffffffffffffffffffffffffffffffffffffff1673ffffffffffffffffffffffffffffffffffffffff16815260200190815260200160002082611ae4565b9150509392505050565b600033905090565b600080610e108381611af257fe5b069050610e1064010000000002818560020154640100000000018660000154020281611b1a57fe5b0491506000610e108481611b2a57fe5b0490506000811115611b6e5760005b80821115611b6c57640100000000866002015464010000000001850281611b5c57fe5b0493508080600101915050611b39565b505b50509291505056fe4f776e61626c653a206e6577206f776e657220697320746865207a65726f20616464726573735472696564207769746864726177696e67206f75747369646520737562736372697074696f6e2063616e63656c6c6174696f6e2074696d652077696e646f77436f756c64206e6f74207472616e7366657220626f6e64206465706f73697420746f6b656e20746f2066756e64a264697066735822122073dc31250732885155e5ed98331e6e76e992b90741509f434a7cc75650151faf64736f6c6343000700003360806040523480156200001157600080fd5b506040516200370b3803806200370b833981810160405260808110156200003757600080fd5b810190808051906020019092919080519060200190929190805190602001909291908051906020019092919050505080806000806101000a81548173ffffffffffffffffffffffffffffffffffffffff021916908373ffffffffffffffffffffffffffffffffffffffff160217905550508360016000806003811115620000ba57fe5b6003811115620000c657fe5b815260200190815260200160002060006101000a81548173ffffffffffffffffffffffffffffffffffffffff021916908373ffffffffffffffffffffffffffffffffffffffff1602179055508260016000600160038111156200012557fe5b60038111156200013157fe5b815260200190815260200160002060006101000a81548173ffffffffffffffffffffffffffffffffffffffff021916908373ffffffffffffffffffffffffffffffffffffffff16021790555081600260006101000a81548173ffffffffffffffffffffffffffffffffffffffff021916908373ffffffffffffffffffffffffffffffffffffffff1602179055505050505061353980620001d26000396000f3fe6080604052600436106100915760003560e01c8063c61b854c11610059578063c61b854c14610399578063eaa095f8146103f4578063f14210a6146104e6578063f3fef3a314610521578063f6326fb31461057c57610091565b80630195a42214610096578063392f5f641461019c57806347e7ef24146101dd5780634b8a352914610238578063b99c3d7d14610293575b600080fd5b3480156100a257600080fd5b50610145600480360360a08110156100b957600080fd5b81019080803560ff1690602001909291908035906020019092919080359060200190929190803590602001906401000000008111156100f757600080fd5b82018360208201111561010957600080fd5b8035906020019184602083028401116401000000008311171561012b57600080fd5b909192939192939080359060200190929190505050610586565b6040518080602001828103825283818151815260200191508051906020019060200280838360005b8381101561018857808201518184015260208101905061016d565b505050509050019250505060405180910390f35b3480156101a857600080fd5b506101b1610958565b604051808273ffffffffffffffffffffffffffffffffffffffff16815260200191505060405180910390f35b3480156101e957600080fd5b506102366004803603604081101561020057600080fd5b81019080803573ffffffffffffffffffffffffffffffffffffffff1690602001909291908035906020019092919050505061097c565b005b34801561024457600080fd5b506102916004803603604081101561025b57600080fd5b81019080803573ffffffffffffffffffffffffffffffffffffffff16906020019092919080359060200190929190505050610d48565b005b34801561029f57600080fd5b50610342600480360360a08110156102b657600080fd5b81019080803560ff1690602001909291908035906020019092919080359060200190929190803590602001906401000000008111156102f457600080fd5b82018360208201111561030657600080fd5b8035906020019184602083028401116401000000008311171561032857600080fd5b909192939192939080359060200190929190505050610f0e565b6040518080602001828103825283818151815260200191508051906020019060200280838360005b8381101561038557808201518184015260208101905061036a565b505050509050019250505060405180910390f35b3480156103a557600080fd5b506103f2600480360360408110156103bc57600080fd5b81019080803573ffffffffffffffffffffffffffffffffffffffff169060200190929190803590602001909291905050506112e2565b005b34801561040057600080fd5b5061048f6004803603606081101561041757600080fd5b81019080803560ff169060200190929190803590602001909291908035906020019064010000000081111561044b57600080fd5b82018360208201111561045d57600080fd5b8035906020019184602083028401116401000000008311171561047f57600080fd5b90919293919293905050506114a8565b6040518080602001828103825283818151815260200191508051906020019060200280838360005b838110156104d25780820151818401526020810190506104b7565b505050509050019250505060405180910390f35b3480156104f257600080fd5b5061051f6004803603602081101561050957600080fd5b810190808035906020019092919050505061154f565b005b34801561052d57600080fd5b5061057a6004803603604081101561054457600080fd5b81019080803573ffffffffffffffffffffffffffffffffffffffff16906020019092919080359060200190929190505050611736565b005b6105846119af565b005b60603273ffffffffffffffffffffffffffffffffffffffff163373ffffffffffffffffffffffffffffffffffffffff161461060c576040517f08c379a000000000000000000000000000000000000000000000000000000000815260040180806020018281038252603a815260200180613365603a913960400191505060405180910390fd5b6000610616611d21565b73ffffffffffffffffffffffffffffffffffffffff16633f0e9edf8686600081811061063e57fe5b9050602002013573ffffffffffffffffffffffffffffffffffffffff16896040518363ffffffff1660e01b8152600401808373ffffffffffffffffffffffffffffffffffffffff16815260200182815260200192505050602060405180830381600087803b1580156106af57600080fd5b505af11580156106c3573d6000803e3d6000fd5b505050506040513d60208110156106d957600080fd5b810190808051906020019092919050505090506000600160008a60038111156106fe57fe5b600381111561070957fe5b815260200190815260200160002060009054906101000a900473ffffffffffffffffffffffffffffffffffffffff16905061074a81838a0389898989611de1565b9250600086866001898990500381811061076057fe5b9050602002013573ffffffffffffffffffffffffffffffffffffffff16905060006107896120be565b73ffffffffffffffffffffffffffffffffffffffff16633500aa0b338a8a60008181106107b257fe5b9050602002013573ffffffffffffffffffffffffffffffffffffffff16858e8a60018c5103815181106107e157fe5b60200260200101516040518663ffffffff1660e01b8152600401808673ffffffffffffffffffffffffffffffffffffffff1681526020018573ffffffffffffffffffffffffffffffffffffffff1681526020018473ffffffffffffffffffffffffffffffffffffffff16815260200183815260200182815260200195505050505050602060405180830381600087803b15801561087d57600080fd5b505af1158015610891573d6000803e3d6000fd5b505050506040513d60208110156108a757600080fd5b810190808051906020019092919050505090506108c261217e565b73ffffffffffffffffffffffffffffffffffffffff1663ee0862bf83836040518363ffffffff1660e01b8152600401808373ffffffffffffffffffffffffffffffffffffffff16815260200182815260200192505050600060405180830381600087803b15801561093257600080fd5b505af1158015610946573d6000803e3d6000fd5b50505050505050509695505050505050565b60008054906101000a900473ffffffffffffffffffffffffffffffffffffffff1681565b3273ffffffffffffffffffffffffffffffffffffffff163373ffffffffffffffffffffffffffffffffffffffff1614610a00576040517f08c379a000000000000000000000000000000000000000000000000000000000815260040180806020018281038252603a815260200180613365603a913960400191505060405180910390fd5b610a0861223e565b73ffffffffffffffffffffffffffffffffffffffff1663b3db428b3384846040518463ffffffff1660e01b8152600401808473ffffffffffffffffffffffffffffffffffffffff1681526020018373ffffffffffffffffffffffffffffffffffffffff1681526020018281526020019350505050602060405180830381600087803b158015610a9657600080fd5b505af1158015610aaa573d6000803e3d6000fd5b505050506040513d6020811015610ac057600080fd5b8101908080519060200190929190505050610b26576040517f08c379a00000000000000000000000000000000000000000000000000000000081526004018080602001828103825260298152602001806134616029913960400191505060405180910390fd5b6000610b306120be565b73ffffffffffffffffffffffffffffffffffffffff166352a664d93385856040518463ffffffff1660e01b8152600401808473ffffffffffffffffffffffffffffffffffffffff1681526020018373ffffffffffffffffffffffffffffffffffffffff1681526020018281526020019350505050602060405180830381600087803b158015610bbe57600080fd5b505af1158015610bd2573d6000803e3d6000fd5b505050506040513d6020811015610be857600080fd5b810190808051906020019092919050505090506000811115610d4357610c0c6120be565b73ffffffffffffffffffffffffffffffffffffffff1663b25777ad3385846040518463ffffffff1660e01b8152600401808473ffffffffffffffffffffffffffffffffffffffff1681526020018373ffffffffffffffffffffffffffffffffffffffff1681526020018281526020019350505050600060405180830381600087803b158015610c9a57600080fd5b505af1158015610cae573d6000803e3d6000fd5b50505050610cba61217e565b73ffffffffffffffffffffffffffffffffffffffff16632a6a897b84836040518363ffffffff1660e01b8152600401808373ffffffffffffffffffffffffffffffffffffffff16815260200182815260200192505050600060405180830381600087803b158015610d2a57600080fd5b505af1158015610d3e573d6000803e3d6000fd5b505050505b505050565b3273ffffffffffffffffffffffffffffffffffffffff163373ffffffffffffffffffffffffffffffffffffffff1614610dcc576040517f08c379a000000000000000000000000000000000000000000000000000000000815260040180806020018281038252603a815260200180613365603a913960400191505060405180910390fd5b610dd461217e565b73ffffffffffffffffffffffffffffffffffffffff1663ee0862bf83836040518363ffffffff1660e01b8152600401808373ffffffffffffffffffffffffffffffffffffffff16815260200182815260200192505050600060405180830381600087803b158015610e4457600080fd5b505af1158015610e58573d6000803e3d6000fd5b50505050610e646120be565b73ffffffffffffffffffffffffffffffffffffffff1663498d55eb3384846040518463ffffffff1660e01b8152600401808473ffffffffffffffffffffffffffffffffffffffff1681526020018373ffffffffffffffffffffffffffffffffffffffff1681526020018281526020019350505050600060405180830381600087803b158015610ef257600080fd5b505af1158015610f06573d6000803e3d6000fd5b505050505050565b60603273ffffffffffffffffffffffffffffffffffffffff163373ffffffffffffffffffffffffffffffffffffffff1614610f94576040517f08c379a000000000000000000000000000000000000000000000000000000000815260040180806020018281038252603a815260200180613365603a913960400191505060405180910390fd5b6000610f9e611d21565b73ffffffffffffffffffffffffffffffffffffffff166367cbf42d868660018989905003818110610fcb57fe5b9050602002013573ffffffffffffffffffffffffffffffffffffffff16896040518363ffffffff1660e01b8152600401808373ffffffffffffffffffffffffffffffffffffffff16815260200182815260200192505050602060405180830381600087803b15801561103c57600080fd5b505af1158015611050573d6000803e3d6000fd5b505050506040513d602081101561106657600080fd5b810190808051906020019092919050505090506000600160008a600381111561108b57fe5b600381111561109657fe5b815260200190815260200160002060009054906101000a900473ffffffffffffffffffffffffffffffffffffffff1690506110d781838a01898989896122fe565b925060008686600189899050038181106110ed57fe5b9050602002013573ffffffffffffffffffffffffffffffffffffffff16905060006111166120be565b73ffffffffffffffffffffffffffffffffffffffff16633500aa0b338a8a600081811061113f57fe5b9050602002013573ffffffffffffffffffffffffffffffffffffffff16858960008151811061116a57fe5b60200260200101518f6040518663ffffffff1660e01b8152600401808673ffffffffffffffffffffffffffffffffffffffff1681526020018573ffffffffffffffffffffffffffffffffffffffff1681526020018473ffffffffffffffffffffffffffffffffffffffff16815260200183815260200182815260200195505050505050602060405180830381600087803b15801561120757600080fd5b505af115801561121b573d6000803e3d6000fd5b505050506040513d602081101561123157600080fd5b8101908080519060200190929190505050905061124c61217e565b73ffffffffffffffffffffffffffffffffffffffff1663ee0862bf83836040518363ffffffff1660e01b8152600401808373ffffffffffffffffffffffffffffffffffffffff16815260200182815260200192505050600060405180830381600087803b1580156112bc57600080fd5b505af11580156112d0573d6000803e3d6000fd5b50505050505050509695505050505050565b3273ffffffffffffffffffffffffffffffffffffffff163373ffffffffffffffffffffffffffffffffffffffff1614611366576040517f08c379a000000000000000000000000000000000000000000000000000000000815260040180806020018281038252603a815260200180613365603a913960400191505060405180910390fd5b61136e6120be565b73ffffffffffffffffffffffffffffffffffffffff1663b25777ad3384846040518463ffffffff1660e01b8152600401808473ffffffffffffffffffffffffffffffffffffffff1681526020018373ffffffffffffffffffffffffffffffffffffffff1681526020018281526020019350505050600060405180830381600087803b1580156113fc57600080fd5b505af1158015611410573d6000803e3d6000fd5b5050505061141c61217e565b73ffffffffffffffffffffffffffffffffffffffff16632a6a897b83836040518363ffffffff1660e01b8152600401808373ffffffffffffffffffffffffffffffffffffffff16815260200182815260200192505050600060405180830381600087803b15801561148c57600080fd5b505af11580156114a0573d6000803e3d6000fd5b505050505050565b60606000600160008760038111156114bc57fe5b60038111156114c757fe5b815260200190815260200160002060009054906101000a900473ffffffffffffffffffffffffffffffffffffffff1690506115448186868680806020026020016040519081016040528093929190818152602001838360200280828437600081840152601f19601f820116905080830192505050505050506125d8565b915050949350505050565b3273ffffffffffffffffffffffffffffffffffffffff163373ffffffffffffffffffffffffffffffffffffffff16146115d3576040517f08c379a000000000000000000000000000000000000000000000000000000000815260040180806020018281038252603a815260200180613365603a913960400191505060405180910390fd5b6115db6120be565b73ffffffffffffffffffffffffffffffffffffffff1663d0eb665333600260009054906101000a900473ffffffffffffffffffffffffffffffffffffffff16846040518463ffffffff1660e01b8152600401808473ffffffffffffffffffffffffffffffffffffffff1681526020018373ffffffffffffffffffffffffffffffffffffffff1681526020018281526020019350505050600060405180830381600087803b15801561168b57600080fd5b505af115801561169f573d6000803e3d6000fd5b505050506116ab61223e565b73ffffffffffffffffffffffffffffffffffffffff16634782f77933836040518363ffffffff1660e01b8152600401808373ffffffffffffffffffffffffffffffffffffffff16815260200182815260200192505050600060405180830381600087803b15801561171b57600080fd5b505af115801561172f573d6000803e3d6000fd5b5050505050565b3273ffffffffffffffffffffffffffffffffffffffff163373ffffffffffffffffffffffffffffffffffffffff16146117ba576040517f08c379a000000000000000000000000000000000000000000000000000000000815260040180806020018281038252603a815260200180613365603a913960400191505060405180910390fd5b6117c26120be565b73ffffffffffffffffffffffffffffffffffffffff1663d0eb66533384846040518463ffffffff1660e01b8152600401808473ffffffffffffffffffffffffffffffffffffffff1681526020018373ffffffffffffffffffffffffffffffffffffffff1681526020018281526020019350505050600060405180830381600087803b15801561185057600080fd5b505af1158015611864573d6000803e3d6000fd5b5050505061187061223e565b73ffffffffffffffffffffffffffffffffffffffff1663d9caed128333846040518463ffffffff1660e01b8152600401808473ffffffffffffffffffffffffffffffffffffffff1681526020018373ffffffffffffffffffffffffffffffffffffffff1681526020018281526020019350505050602060405180830381600087803b1580156118fe57600080fd5b505af1158015611912573d6000803e3d6000fd5b505050506040513d602081101561192857600080fd5b81019080805190602001909291905050506119ab576040517f08c379a000000000000000000000000000000000000000000000000000000000815260040180806020018281038252601c8152602001807f436f756c64206e6f742077697468647261772066726f6d2066756e640000000081525060200191505060405180910390fd5b5050565b3273ffffffffffffffffffffffffffffffffffffffff163373ffffffffffffffffffffffffffffffffffffffff1614611a33576040517f08c379a000000000000000000000000000000000000000000000000000000000815260040180806020018281038252603a815260200180613365603a913960400191505060405180910390fd5b611a3b61223e565b73ffffffffffffffffffffffffffffffffffffffff1663a6a5f9fe346040518263ffffffff1660e01b81526004016000604051808303818588803b158015611a8257600080fd5b505af1158015611a96573d6000803e3d6000fd5b50505050506000611aa56120be565b73ffffffffffffffffffffffffffffffffffffffff166352a664d933600260009054906101000a900473ffffffffffffffffffffffffffffffffffffffff16346040518463ffffffff1660e01b8152600401808473ffffffffffffffffffffffffffffffffffffffff1681526020018373ffffffffffffffffffffffffffffffffffffffff1681526020018281526020019350505050602060405180830381600087803b158015611b5557600080fd5b505af1158015611b69573d6000803e3d6000fd5b505050506040513d6020811015611b7f57600080fd5b810190808051906020019092919050505090506000811115611d1e57611ba36120be565b73ffffffffffffffffffffffffffffffffffffffff1663b25777ad33600260009054906101000a900473ffffffffffffffffffffffffffffffffffffffff16846040518463ffffffff1660e01b8152600401808473ffffffffffffffffffffffffffffffffffffffff1681526020018373ffffffffffffffffffffffffffffffffffffffff1681526020018281526020019350505050600060405180830381600087803b158015611c5357600080fd5b505af1158015611c67573d6000803e3d6000fd5b50505050611c7361217e565b73ffffffffffffffffffffffffffffffffffffffff16632a6a897b600260009054906101000a900473ffffffffffffffffffffffffffffffffffffffff16836040518363ffffffff1660e01b8152600401808373ffffffffffffffffffffffffffffffffffffffff16815260200182815260200192505050600060405180830381600087803b158015611d0557600080fd5b505af1158015611d19573d6000803e3d6000fd5b505050505b50565b60008060009054906101000a900473ffffffffffffffffffffffffffffffffffffffff1673ffffffffffffffffffffffffffffffffffffffff166336214c7860046040518263ffffffff1660e01b815260040180826005811115611d8157fe5b815260200191505060206040518083038186803b158015611da157600080fd5b505afa158015611db5573d6000803e3d6000fd5b505050506040513d6020811015611dcb57600080fd5b8101908080519060200190929190505050905090565b6060611e2f8787868680806020026020016040519081016040528093929190818152602001838360200280828437600081840152601f19601f820116905080830192505050505050506125d8565b90508481600183510381518110611e4257fe5b60200260200101511015611ea1576040517f08c379a00000000000000000000000000000000000000000000000000000000081526004018080602001828103825260288152602001806134dc6028913960400191505060405180910390fd5b611ea961223e565b73ffffffffffffffffffffffffffffffffffffffff1663e1a2f31585856000818110611ed157fe5b9050602002013573ffffffffffffffffffffffffffffffffffffffff16611f4b8a88886000818110611eff57fe5b9050602002013573ffffffffffffffffffffffffffffffffffffffff1689896001818110611f2957fe5b9050602002013573ffffffffffffffffffffffffffffffffffffffff16612750565b84600081518110611f5857fe5b60200260200101516040518463ffffffff1660e01b8152600401808473ffffffffffffffffffffffffffffffffffffffff1681526020018373ffffffffffffffffffffffffffffffffffffffff1681526020018281526020019350505050602060405180830381600087803b158015611fd057600080fd5b505af1158015611fe4573d6000803e3d6000fd5b505050506040513d6020811015611ffa57600080fd5b8101908080519060200190929190505050612060576040517f08c379a00000000000000000000000000000000000000000000000000000000081526004018080602001828103825260288152602001806133f06028913960400191505060405180910390fd5b6120b48782868680806020026020016040519081016040528093929190818152602001838360200280828437600081840152601f19601f820116905080830192505050505050506120af61223e565b612869565b9695505050505050565b60008060009054906101000a900473ffffffffffffffffffffffffffffffffffffffff1673ffffffffffffffffffffffffffffffffffffffff166336214c7860036040518263ffffffff1660e01b81526004018082600581111561211e57fe5b815260200191505060206040518083038186803b15801561213e57600080fd5b505afa158015612152573d6000803e3d6000fd5b505050506040513d602081101561216857600080fd5b8101908080519060200190929190505050905090565b60008060009054906101000a900473ffffffffffffffffffffffffffffffffffffffff1673ffffffffffffffffffffffffffffffffffffffff166336214c7860016040518263ffffffff1660e01b8152600401808260058111156121de57fe5b815260200191505060206040518083038186803b1580156121fe57600080fd5b505afa158015612212573d6000803e3d6000fd5b505050506040513d602081101561222857600080fd5b8101908080519060200190929190505050905090565b60008060009054906101000a900473ffffffffffffffffffffffffffffffffffffffff1673ffffffffffffffffffffffffffffffffffffffff166336214c7860006040518263ffffffff1660e01b81526004018082600581111561229e57fe5b815260200191505060206040518083038186803b1580156122be57600080fd5b505afa1580156122d2573d6000803e3d6000fd5b505050506040513d60208110156122e857600080fd5b8101908080519060200190929190505050905090565b606061234c8787868680806020026020016040519081016040528093929190818152602001838360200280828437600081840152601f19601f82011690508083019250505050505050612abf565b9050848160008151811061235c57fe5b602002602001015111156123bb576040517f08c379a000000000000000000000000000000000000000000000000000000000815260040180806020018281038252602781526020018061348a6027913960400191505060405180910390fd5b6123c361223e565b73ffffffffffffffffffffffffffffffffffffffff1663e1a2f315858560008181106123eb57fe5b9050602002013573ffffffffffffffffffffffffffffffffffffffff166124658a8888600081811061241957fe5b9050602002013573ffffffffffffffffffffffffffffffffffffffff168989600181811061244357fe5b9050602002013573ffffffffffffffffffffffffffffffffffffffff16612750565b8460008151811061247257fe5b60200260200101516040518463ffffffff1660e01b8152600401808473ffffffffffffffffffffffffffffffffffffffff1681526020018373ffffffffffffffffffffffffffffffffffffffff1681526020018281526020019350505050602060405180830381600087803b1580156124ea57600080fd5b505af11580156124fe573d6000803e3d6000fd5b505050506040513d602081101561251457600080fd5b810190808051906020019092919050505061257a576040517f08c379a00000000000000000000000000000000000000000000000000000000081526004018080602001828103825260288152602001806133f06028913960400191505060405180910390fd5b6125ce8782868680806020026020016040519081016040528093929190818152602001838360200280828437600081840152601f19601f820116905080830192505050505050506125c961223e565b612869565b9695505050505050565b6060600282511015612652576040517f08c379a000000000000000000000000000000000000000000000000000000000815260040180806020018281038252601e8152602001807f556e697377617056324c6962726172793a20494e56414c49445f50415448000081525060200191505060405180910390fd5b815167ffffffffffffffff8111801561266a57600080fd5b506040519080825280602002602001820160405280156126995781602001602082028036833780820191505090505b50905082816000815181106126aa57fe5b60200260200101818152505060005b6001835103811015612748576000806126fc878685815181106126d857fe5b60200260200101518760018701815181106126ef57fe5b6020026020010151612c3f565b9150915061271e84848151811061270f57fe5b60200260200101518383612d68565b84600185018151811061272d57fe5b602002602001018181525050505080806001019150506126b9565b509392505050565b600080600061275f8585612e98565b91509150858282604051602001808373ffffffffffffffffffffffffffffffffffffffff1660601b81526014018273ffffffffffffffffffffffffffffffffffffffff1660601b8152601401925050506040516020818303038152906040528051906020012060405160200180807fff000000000000000000000000000000000000000000000000000000000000008152506001018373ffffffffffffffffffffffffffffffffffffffff1660601b8152601401828152602001807f96e8ac4277198ff8b6f785478aa9a39f403cb768dd02cbee326c3e7da348845f815250602001925050506040516020818303038152906040528051906020012060001c925050509392505050565b60005b6001835103811015612ab85760008084838151811061288757fe5b602002602001015185600185018151811061289e57fe5b60200260200101519150915060006128b68383612e98565b50905060008760018601815181106128ca57fe5b602002602001015190506000808373ffffffffffffffffffffffffffffffffffffffff168673ffffffffffffffffffffffffffffffffffffffff161461291257826000612916565b6000835b91509150600060028a5103881061292d578861294f565b61294e8c878c60028c018151811061294157fe5b6020026020010151612750565b5b905061295c8c8888612750565b73ffffffffffffffffffffffffffffffffffffffff1663022c0d9f848484600067ffffffffffffffff8111801561299257600080fd5b506040519080825280601f01601f1916602001820160405280156129c55781602001600182028036833780820191505090505b506040518563ffffffff1660e01b8152600401808581526020018481526020018373ffffffffffffffffffffffffffffffffffffffff16815260200180602001828103825283818151815260200191508051906020019080838360005b83811015612a3d578082015181840152602081019050612a22565b50505050905090810190601f168015612a6a5780820380516001836020036101000a031916815260200191505b5095505050505050600060405180830381600087803b158015612a8c57600080fd5b505af1158015612aa0573d6000803e3d6000fd5b5050505050505050505050808060010191505061286c565b5050505050565b6060600282511015612b39576040517f08c379a000000000000000000000000000000000000000000000000000000000815260040180806020018281038252601e8152602001807f556e697377617056324c6962726172793a20494e56414c49445f50415448000081525060200191505060405180910390fd5b815167ffffffffffffffff81118015612b5157600080fd5b50604051908082528060200260200182016040528015612b805781602001602082028036833780820191505090505b5090508281600183510381518110612b9457fe5b6020026020010181815250506000600183510390505b6000811115612c3757600080612bea87866001860381518110612bc957fe5b6020026020010151878681518110612bdd57fe5b6020026020010151612c3f565b91509150612c0c848481518110612bfd57fe5b6020026020010151838361300f565b846001850381518110612c1b57fe5b6020026020010181815250505050808060019003915050612baa565b509392505050565b6000806000612c4e8585612e98565b509050600080612c5f888888612750565b73ffffffffffffffffffffffffffffffffffffffff16630902f1ac6040518163ffffffff1660e01b815260040160606040518083038186803b158015612ca457600080fd5b505afa158015612cb8573d6000803e3d6000fd5b505050506040513d6060811015612cce57600080fd5b81019080805190602001909291908051906020019092919080519060200190929190505050506dffffffffffffffffffffffffffff1691506dffffffffffffffffffffffffffff1691508273ffffffffffffffffffffffffffffffffffffffff168773ffffffffffffffffffffffffffffffffffffffff1614612d52578082612d55565b81815b8095508196505050505050935093915050565b6000808411612dc2576040517f08c379a000000000000000000000000000000000000000000000000000000000815260040180806020018281038252602b8152602001806134b1602b913960400191505060405180910390fd5b600083118015612dd25750600082115b612e27576040517f08c379a00000000000000000000000000000000000000000000000000000000081526004018080602001828103825260288152602001806134186028913960400191505060405180910390fd5b6000612e3e6103e58661314c90919063ffffffff16565b90506000612e55848361314c90919063ffffffff16565b90506000612e8083612e726103e88961314c90919063ffffffff16565b6131d290919063ffffffff16565b9050808281612e8b57fe5b0493505050509392505050565b6000808273ffffffffffffffffffffffffffffffffffffffff168473ffffffffffffffffffffffffffffffffffffffff161415612f20576040517f08c379a00000000000000000000000000000000000000000000000000000000081526004018080602001828103825260258152602001806133cb6025913960400191505060405180910390fd5b8273ffffffffffffffffffffffffffffffffffffffff168473ffffffffffffffffffffffffffffffffffffffff1610612f5a578284612f5d565b83835b8092508193505050600073ffffffffffffffffffffffffffffffffffffffff168273ffffffffffffffffffffffffffffffffffffffff161415613008576040517f08c379a000000000000000000000000000000000000000000000000000000000815260040180806020018281038252601e8152602001807f556e697377617056324c6962726172793a205a45524f5f41444452455353000081525060200191505060405180910390fd5b9250929050565b6000808411613069576040517f08c379a000000000000000000000000000000000000000000000000000000000815260040180806020018281038252602c81526020018061339f602c913960400191505060405180910390fd5b6000831180156130795750600082115b6130ce576040517f08c379a00000000000000000000000000000000000000000000000000000000081526004018080602001828103825260288152602001806134186028913960400191505060405180910390fd5b60006130f76103e86130e9878761314c90919063ffffffff16565b61314c90919063ffffffff16565b905060006131226103e5613114888761325a90919063ffffffff16565b61314c90919063ffffffff16565b9050613141600182848161313257fe5b046131d290919063ffffffff16565b925050509392505050565b60008083141561315f57600090506131cc565b600082840290508284828161317057fe5b04146131c7576040517f08c379a00000000000000000000000000000000000000000000000000000000081526004018080602001828103825260218152602001806134406021913960400191505060405180910390fd5b809150505b92915050565b600080828401905083811015613250576040517f08c379a000000000000000000000000000000000000000000000000000000000815260040180806020018281038252601b8152602001807f536166654d6174683a206164646974696f6e206f766572666c6f77000000000081525060200191505060405180910390fd5b8091505092915050565b600061329c83836040518060400160405280601e81526020017f536166654d6174683a207375627472616374696f6e206f766572666c6f7700008152506132a4565b905092915050565b6000838311158290613351576040517f08c379a00000000000000000000000000000000000000000000000000000000081526004018080602001828103825283818151815260200191508051906020019080838360005b838110156133165780820151818401526020810190506132fb565b50505050905090810190601f1680156133435780820380516001836020036101000a031916815260200191505b509250505060405180910390fd5b506000838503905080915050939250505056fe43757272656e746c79206e6f20696e7465726d656469617269657320616c6c6f77656420666f7220746869732066756e6374696f6e2063616c6c556e697377617056324c6962726172793a20494e53554646494349454e545f4f55545055545f414d4f554e54556e697377617056324c6962726172793a204944454e544943414c5f4144445245535345534d617267696e526f757465723a20496e73756666696369656e74206c656e64696e672066756e6473556e697377617056324c6962726172793a20494e53554646494349454e545f4c4951554944495459536166654d6174683a206d756c7469706c69636174696f6e206f766572666c6f7743616e6e6f74207472616e73666572206465706f73697420746f206d617267696e206163636f756e74556e69737761705632526f757465723a204558434553534956455f494e5055545f414d4f554e54556e697377617056324c6962726172793a20494e53554646494349454e545f494e5055545f414d4f554e544d617267696e526f757465723a20494e53554646494349454e545f4f55545055545f414d4f554e54a2646970667358221220df3decb2c52432a926632cb758d13c9b24b37676468b3e5a6a38ea824be1b26964736f6c63430007000033608060405234801561001057600080fd5b50604051610c29380380610c298339818101604052604081101561003357600080fd5b81019080805190602001909291908051906020019092919050505080806000806101000a81548173ffffffffffffffffffffffffffffffffffffffff021916908373ffffffffffffffffffffffffffffffffffffffff1602179055505081600160006101000a81548173ffffffffffffffffffffffffffffffffffffffff021916908373ffffffffffffffffffffffffffffffffffffffff1602179055505050610b47806100e26000396000f3fe608060405234801561001057600080fd5b506004361061009e5760003560e01c8063800a5aa411610066578063800a5aa414610213578063911565cf146102755780639db9cbf91461032d578063e47109a91461037b578063f9fb3023146103dd5761009e565b806305883f7c146100a357806312e67bc0146100f15780631f1cb62b14610149578063392f5f641461017d5780634cb77662146101b1575b600080fd5b6100ef600480360360408110156100b957600080fd5b81019080803573ffffffffffffffffffffffffffffffffffffffff16906020019092919080359060200190929190505050610435565b005b6101336004803603602081101561010757600080fd5b81019080803573ffffffffffffffffffffffffffffffffffffffff169060200190929190505050610439565b6040518082815260200191505060405180910390f35b610151610440565b604051808273ffffffffffffffffffffffffffffffffffffffff16815260200191505060405180910390f35b610185610466565b604051808273ffffffffffffffffffffffffffffffffffffffff16815260200191505060405180910390f35b6101fd600480360360408110156101c757600080fd5b81019080803573ffffffffffffffffffffffffffffffffffffffff1690602001909291908035906020019092919050505061048a565b6040518082815260200191505060405180910390f35b61025f6004803603604081101561022957600080fd5b81019080803573ffffffffffffffffffffffffffffffffffffffff16906020019092919080359060200190929190505050610569565b6040518082815260200191505060405180910390f35b61032b6004803603602081101561028b57600080fd5b81019080803590602001906401000000008111156102a857600080fd5b8201836020820111156102ba57600080fd5b803590602001918460208302840111640100000000831117156102dc57600080fd5b919080806020026020016040519081016040528093929190818152602001838360200280828437600081840152601f19601f820116905080830192505050505050509192919290505050610571565b005b6103796004803603604081101561034357600080fd5b81019080803573ffffffffffffffffffffffffffffffffffffffff16906020019092919080359060200190929190505050610574565b005b6103c76004803603604081101561039157600080fd5b81019080803573ffffffffffffffffffffffffffffffffffffffff169060200190929190803590602001909291905050506105d6565b6040518082815260200191505060405180910390f35b61041f600480360360208110156103f357600080fd5b81019080803573ffffffffffffffffffffffffffffffffffffffff16906020019092919050505061091c565b6040518082815260200191505060405180910390f35b5050565b6000919050565b600160009054906101000a900473ffffffffffffffffffffffffffffffffffffffff1681565b60008054906101000a900473ffffffffffffffffffffffffffffffffffffffff1681565b600080600260008573ffffffffffffffffffffffffffffffffffffffff1673ffffffffffffffffffffffffffffffffffffffff1681526020019081526020016000209050600181600301805490501161052e576040517f08c379a0000000000000000000000000000000000000000000000000000000008152600401808060200182810382526026815260200180610ac46026913960400191505060405180910390fd5b8060010181600201548154811061054157fe5b9060005260206000200154683635c9adc5dea0000084028161055f57fe5b0491505092915050565b600092915050565b50565b61057d33610923565b6105d2576040517f08c379a0000000000000000000000000000000000000000000000000000000008152600401808060200182810382526028815260200180610aea6028913960400191505060405180910390fd5b5050565b6000600160009054906101000a900473ffffffffffffffffffffffffffffffffffffffff1673ffffffffffffffffffffffffffffffffffffffff168373ffffffffffffffffffffffffffffffffffffffff16141561063657819050610916565b6000600260008573ffffffffffffffffffffffffffffffffffffffff1673ffffffffffffffffffffffffffffffffffffffff168152602001908152602001600020905060018160030180549050116106d9576040517f08c379a0000000000000000000000000000000000000000000000000000000008152600401808060200182810382526026815260200180610ac46026913960400191505060405180910390fd5b60606106e3610a03565b73ffffffffffffffffffffffffffffffffffffffff1663eaa095f8600086856003016040518463ffffffff1660e01b81526004018084600381111561072457fe5b81526020018381526020018060200182810382528381815481526020019150805480156107a657602002820191906000526020600020905b8160009054906101000a900473ffffffffffffffffffffffffffffffffffffffff1673ffffffffffffffffffffffffffffffffffffffff168152602001906001019080831161075c575b505094505050505060006040518083038186803b1580156107c657600080fd5b505afa1580156107da573d6000803e3d6000fd5b505050506040513d6000823e3d601f19601f82011682018060405250602081101561080457600080fd5b810190808051604051939291908464010000000082111561082457600080fd5b8382019150602082018581111561083a57600080fd5b825186602082028301116401000000008211171561085757600080fd5b8083526020830192505050908051906020019060200280838360005b8381101561088e578082015181840152602081019050610873565b5050505090500160405250505090506000816001835103815181106108af57fe5b6020026020010151905082600101805490506001846002015401816108d057fe5b0683600201819055508085683635c9adc5dea0000002816108ed57fe5b048360010184600201548154811061090157fe5b90600052602060002001819055508093505050505b92915050565b6000919050565b60008060009054906101000a900473ffffffffffffffffffffffffffffffffffffffff1673ffffffffffffffffffffffffffffffffffffffff1663a716b97f8360056040518363ffffffff1660e01b8152600401808373ffffffffffffffffffffffffffffffffffffffff1681526020018260058111156109a057fe5b81526020019250505060206040518083038186803b1580156109c157600080fd5b505afa1580156109d5573d6000803e3d6000fd5b505050506040513d60208110156109eb57600080fd5b81019080805190602001909291905050509050919050565b60008060009054906101000a900473ffffffffffffffffffffffffffffffffffffffff1673ffffffffffffffffffffffffffffffffffffffff166336214c7860026040518263ffffffff1660e01b815260040180826005811115610a6357fe5b815260200191505060206040518083038186803b158015610a8357600080fd5b505afa158015610a97573d6000803e3d6000fd5b505050506040513d6020811015610aad57600080fd5b810190808051906020019092919050505090509056fe546f6b656e20646f6573206e6f7420686176652061206c69717569646174696f6e207061746843616c6c6572206e6f7420617574686f72697a656420746f20636c61696d20696e737572616e6365a264697066735822122082518ede56171af0c75ccc32ee8bd0d10e540c03190e51a316bb5e12c92756ff64736f6c63430007000033",
  "immutableReferences": {},
  "source": "import \"@openzeppelin/contracts/access/Ownable.sol\";\n\nimport \"./Roles.sol\";\nimport \"./Fund.sol\";\nimport \"./Admin.sol\";\nimport \"./MarginTrading.sol\";\nimport \"./Lending.sol\";\nimport \"./MarginRouter.sol\";\nimport \"./MarginTrading.sol\";\nimport \"./Price.sol\";\n\ncontract V1 is Ownable {\n    Roles public roles;\n    Fund public fund;\n    Admin public admin;\n    MarginTrading public marginTrading;\n    Lending public lending;\n    MarginRouter public marginRouter;\n    Price public price;\n\n    event Deployed(address _contract, string _msg);\n\n    constructor(\n        address targetOwner,\n        address WETH,\n        uint256 feesPer10k,\n        address MFI,\n        address uniswapFactory,\n        address sushiswapFactory,\n        address peg\n    ) Ownable() {\n        roles = new Roles();\n        emit Deployed(address(roles), \"Roles\");\n\n        fund = new Fund(WETH, address(roles));\n        emit Deployed(address(fund), \"Roles\");\n        fund.transferOwnership(targetOwner);\n        roles.setMainCharacter(Characters.FUND, address(fund));\n\n        admin = new Admin(feesPer10k, MFI, address(roles));\n        admin.transferOwnership(targetOwner);\n        roles.setMainCharacter(Characters.FEE_CONTROLLER, address(admin));\n\n        marginTrading = new MarginTrading(address(roles));\n        marginTrading.transferOwnership(targetOwner);\n        roles.setMainCharacter(\n            Characters.MARGIN_TRADING,\n            address(marginTrading)\n        );\n\n        lending = new Lending(address(roles));\n        lending.transferOwnership(targetOwner);\n        roles.setMainCharacter(Characters.LENDING, address(lending));\n\n        marginRouter = new MarginRouter(\n            uniswapFactory,\n            sushiswapFactory,\n            WETH,\n            address(roles)\n        );\n        roles.setMainCharacter(Characters.ROUTER, address(marginRouter));\n\n        price = new Price(peg, address(roles));\n        roles.setMainCharacter(Characters.PRICE_CONTROLLER, address(price));\n\n        roles.giveRole(ContractRoles.WITHDRAWER, address(admin));\n        roles.giveRole(ContractRoles.WITHDRAWER, address(marginRouter));\n        roles.giveRole(ContractRoles.WITHDRAWER, address(lending));\n        roles.giveRole(ContractRoles.WITHDRAWER, address(marginTrading));\n\n        roles.giveRole(ContractRoles.MARGIN_CALLER, address(admin));\n        roles.giveRole(ContractRoles.BORROWER, address(marginRouter));\n        roles.giveRole(ContractRoles.MARGIN_TRADER, address(marginRouter));\n        roles.giveRole(ContractRoles.FEE_SOURCE, address(marginRouter));\n        roles.giveRole(\n            ContractRoles.INSURANCE_CLAIMANT,\n            address(marginTrading)\n        );\n\n        roles.transferOwnership(targetOwner);\n    }\n}\n",
  "sourcePath": "/home/tixelbook/projects/marginswap-core/contracts/V1.sol",
  "compiler": {
    "name": "solc",
    "version": "0.7.0+commit.9e61f92b.Emscripten.clang"
  },
  "schemaVersion": "3.3.3",
  "updatedAt": "2021-02-19T09:24:39.689Z",
  "devdoc": {
    "kind": "dev",
    "methods": {
      "owner()": {
        "details": "Returns the address of the current owner."
      },
      "renounceOwnership()": {
        "details": "Leaves the contract without owner. It will not be possible to call `onlyOwner` functions anymore. Can only be called by the current owner. NOTE: Renouncing ownership will leave the contract without an owner, thereby removing any functionality that is only available to the owner."
      },
      "transferOwnership(address)": {
        "details": "Transfers ownership of the contract to a new account (`newOwner`). Can only be called by the current owner."
      }
    },
    "version": 1
  },
  "userdoc": {
    "kind": "user",
    "methods": {},
    "version": 1
  }
}