{
  "_format": "hh-sol-artifact-1",
  "contractName": "Roles",
  "sourceName": "contracts/Roles.sol",
  "abi": [
    {
      "anonymous": false,
      "inputs": [
        {
          "indexed": true,
          "internalType": "address",
          "name": "previousOwner",
          "type": "address"
        },
        {
          "indexed": true,
          "internalType": "address",
          "name": "newOwner",
          "type": "address"
        }
      ],
      "name": "OwnershipTransferred",
      "type": "event"
    },
    {
      "inputs": [
        {
          "internalType": "address",
          "name": "contr",
          "type": "address"
        },
        {
          "internalType": "enum ContractRoles",
          "name": "role",
          "type": "uint8"
        }
      ],
      "name": "getRole",
      "outputs": [
        {
          "internalType": "bool",
          "name": "",
          "type": "bool"
        }
      ],
      "stateMutability": "view",
      "type": "function"
    },
    {
      "inputs": [
        {
          "internalType": "enum ContractRoles",
          "name": "role",
          "type": "uint8"
        },
        {
          "internalType": "address",
          "name": "actor",
          "type": "address"
        }
      ],
      "name": "giveRole",
      "outputs": [],
      "stateMutability": "nonpayable",
      "type": "function"
    },
    {
      "inputs": [
        {
          "internalType": "enum Characters",
          "name": "",
          "type": "uint8"
        }
      ],
      "name": "mainCharacters",
      "outputs": [
        {
          "internalType": "address",
          "name": "",
          "type": "address"
        }
      ],
      "stateMutability": "view",
      "type": "function"
    },
    {
      "inputs": [],
      "name": "owner",
      "outputs": [
        {
          "internalType": "address",
          "name": "",
          "type": "address"
        }
      ],
      "stateMutability": "view",
      "type": "function"
    },
    {
      "inputs": [
        {
          "internalType": "enum ContractRoles",
          "name": "role",
          "type": "uint8"
        },
        {
          "internalType": "address",
          "name": "actor",
          "type": "address"
        }
      ],
      "name": "removeRole",
      "outputs": [],
      "stateMutability": "nonpayable",
      "type": "function"
    },
    {
      "inputs": [],
      "name": "renounceOwnership",
      "outputs": [],
      "stateMutability": "nonpayable",
      "type": "function"
    },
    {
      "inputs": [
        {
          "internalType": "address",
          "name": "",
          "type": "address"
        },
        {
          "internalType": "enum ContractRoles",
          "name": "",
          "type": "uint8"
        }
      ],
      "name": "roles",
      "outputs": [
        {
          "internalType": "bool",
          "name": "",
          "type": "bool"
        }
      ],
      "stateMutability": "view",
      "type": "function"
    },
    {
      "inputs": [
        {
          "internalType": "enum Characters",
          "name": "role",
          "type": "uint8"
        },
        {
          "internalType": "address",
          "name": "actor",
          "type": "address"
        }
      ],
      "name": "setMainCharacter",
      "outputs": [],
      "stateMutability": "nonpayable",
      "type": "function"
    },
    {
      "inputs": [
        {
          "internalType": "address",
          "name": "newOwner",
          "type": "address"
        }
      ],
      "name": "transferOwnership",
      "outputs": [],
      "stateMutability": "nonpayable",
      "type": "function"
    }
  ],
  "bytecode": "0x608060405234801561001057600080fd5b50600061001b61006a565b600080546001600160a01b0319166001600160a01b0383169081178255604051929350917f8be0079c531659141344cd1fd0a4f28419497f9722a3daafe3b4186f6b6457e0908290a35061006e565b3390565b6109f98061007d6000396000f3fe608060405234801561001057600080fd5b50600436106100a35760003560e01c8063715018a6116100765780638da5cb5b1161005b5780638da5cb5b14610134578063a716b97f1461013c578063f2fde38b1461014f576100a3565b8063715018a6146101195780638a1713c614610121576100a3565b80630b886c19146100a857806336214c78146100d15780633f1609ef146100f157806346cd9bd114610106575b600080fd5b6100bb6100b6366004610875565b610162565b6040516100c89190610926565b60405180910390f35b6100e46100df3660046108a7565b610182565b6040516100c89190610905565b6101046100ff3660046108c1565b6101aa565b005b6101046101143660046108ea565b6102ec565b61010461043a565b61010461012f3660046108ea565b61051c565b6100e46105ee565b6100bb61014a366004610875565b61060a565b61010461015d366004610854565b6106bc565b600160209081526000928352604080842090915290825290205460ff1681565b60026020526000908152604090205473ffffffffffffffffffffffffffffffffffffffff1681565b6101b2610809565b73ffffffffffffffffffffffffffffffffffffffff166101d06105ee565b73ffffffffffffffffffffffffffffffffffffffff1614610226576040517f08c379a000000000000000000000000000000000000000000000000000000000815260040161021d9061098e565b60405180910390fd5b8060026000846005811115610264577f4e487b7100000000000000000000000000000000000000000000000000000000600052602160045260246000fd5b600581111561029c577f4e487b7100000000000000000000000000000000000000000000000000000000600052602160045260246000fd5b815260200190815260200160002060006101000a81548173ffffffffffffffffffffffffffffffffffffffff021916908373ffffffffffffffffffffffffffffffffffffffff1602179055505050565b6102f4610809565b73ffffffffffffffffffffffffffffffffffffffff166103126105ee565b73ffffffffffffffffffffffffffffffffffffffff161461035f576040517f08c379a000000000000000000000000000000000000000000000000000000000815260040161021d9061098e565b73ffffffffffffffffffffffffffffffffffffffff81166000908152600160208190526040822090918460078111156103c1577f4e487b7100000000000000000000000000000000000000000000000000000000600052602160045260246000fd5b60078111156103f9577f4e487b7100000000000000000000000000000000000000000000000000000000600052602160045260246000fd5b8152602081019190915260400160002080547fffffffffffffffffffffffffffffffffffffffffffffffffffffffffffffff00169115159190911790555050565b610442610809565b73ffffffffffffffffffffffffffffffffffffffff166104606105ee565b73ffffffffffffffffffffffffffffffffffffffff16146104ad576040517f08c379a000000000000000000000000000000000000000000000000000000000815260040161021d9061098e565b6000805460405173ffffffffffffffffffffffffffffffffffffffff909116907f8be0079c531659141344cd1fd0a4f28419497f9722a3daafe3b4186f6b6457e0908390a3600080547fffffffffffffffffffffffff0000000000000000000000000000000000000000169055565b610524610809565b73ffffffffffffffffffffffffffffffffffffffff166105426105ee565b73ffffffffffffffffffffffffffffffffffffffff161461058f576040517f08c379a000000000000000000000000000000000000000000000000000000000815260040161021d9061098e565b73ffffffffffffffffffffffffffffffffffffffff81166000908152600160205260408120818460078111156103c1577f4e487b7100000000000000000000000000000000000000000000000000000000600052602160045260246000fd5b60005473ffffffffffffffffffffffffffffffffffffffff1690565b73ffffffffffffffffffffffffffffffffffffffff8216600090815260016020526040812081836007811115610669577f4e487b7100000000000000000000000000000000000000000000000000000000600052602160045260246000fd5b60078111156106a1577f4e487b7100000000000000000000000000000000000000000000000000000000600052602160045260246000fd5b815260208101919091526040016000205460ff169392505050565b6106c4610809565b73ffffffffffffffffffffffffffffffffffffffff166106e26105ee565b73ffffffffffffffffffffffffffffffffffffffff161461072f576040517f08c379a000000000000000000000000000000000000000000000000000000000815260040161021d9061098e565b73ffffffffffffffffffffffffffffffffffffffff811661077c576040517f08c379a000000000000000000000000000000000000000000000000000000000815260040161021d90610931565b6000805460405173ffffffffffffffffffffffffffffffffffffffff808516939216917f8be0079c531659141344cd1fd0a4f28419497f9722a3daafe3b4186f6b6457e091a3600080547fffffffffffffffffffffffff00000000000000000000000000000000000000001673ffffffffffffffffffffffffffffffffffffffff92909216919091179055565b3390565b803573ffffffffffffffffffffffffffffffffffffffff8116811461083157600080fd5b919050565b80356006811061083157600080fd5b80356008811061083157600080fd5b600060208284031215610865578081fd5b61086e8261080d565b9392505050565b60008060408385031215610887578081fd5b6108908361080d565b915061089e60208401610845565b90509250929050565b6000602082840312156108b8578081fd5b61086e82610836565b600080604083850312156108d3578182fd5b6108dc83610836565b915061089e6020840161080d565b600080604083850312156108fc578182fd5b6108dc83610845565b73ffffffffffffffffffffffffffffffffffffffff91909116815260200190565b901515815260200190565b60208082526026908201527f4f776e61626c653a206e6577206f776e657220697320746865207a65726f206160408201527f6464726573730000000000000000000000000000000000000000000000000000606082015260800190565b6020808252818101527f4f776e61626c653a2063616c6c6572206973206e6f7420746865206f776e657260408201526060019056fea264697066735822122081ac2694290f3ddf0a82f93a999a63b35d67fc228c9da1bd63bd2afe7726bf2c64736f6c63430008010033",
  "linkReferences": {},
  "deployedLinkReferences": {}
}