{
  "_format": "hh-sol-artifact-1",
  "contractName": "Roles",
  "sourceName": "contracts/Roles.sol",
  "abi": [
    {
      "anonymous": false,
      "inputs": [
        {
          "indexed": true,
          "internalType": "address",
          "name": "previousOwner",
          "type": "address"
        },
        {
          "indexed": true,
          "internalType": "address",
          "name": "newOwner",
          "type": "address"
        }
      ],
      "name": "OwnershipTransferred",
      "type": "event"
    },
    {
      "inputs": [
        {
          "internalType": "uint16",
          "name": "role",
          "type": "uint16"
        },
        {
          "internalType": "address",
          "name": "contr",
          "type": "address"
        }
      ],
      "name": "getRole",
      "outputs": [
        {
          "internalType": "bool",
          "name": "",
          "type": "bool"
        }
      ],
      "stateMutability": "view",
      "type": "function"
    },
    {
      "inputs": [
        {
          "internalType": "uint16",
          "name": "role",
          "type": "uint16"
        },
        {
          "internalType": "address",
          "name": "actor",
          "type": "address"
        }
      ],
      "name": "giveRole",
      "outputs": [],
      "stateMutability": "nonpayable",
      "type": "function"
    },
    {
      "inputs": [
        {
          "internalType": "uint16",
          "name": "",
          "type": "uint16"
        }
      ],
      "name": "mainCharacters",
      "outputs": [
        {
          "internalType": "address",
          "name": "",
          "type": "address"
        }
      ],
      "stateMutability": "view",
      "type": "function"
    },
    {
      "inputs": [],
      "name": "owner",
      "outputs": [
        {
          "internalType": "address",
          "name": "",
          "type": "address"
        }
      ],
      "stateMutability": "view",
      "type": "function"
    },
    {
      "inputs": [
        {
          "internalType": "uint16",
          "name": "role",
          "type": "uint16"
        },
        {
          "internalType": "address",
          "name": "actor",
          "type": "address"
        }
      ],
      "name": "removeRole",
      "outputs": [],
      "stateMutability": "nonpayable",
      "type": "function"
    },
    {
      "inputs": [],
      "name": "renounceOwnership",
      "outputs": [],
      "stateMutability": "nonpayable",
      "type": "function"
    },
    {
      "inputs": [
        {
          "internalType": "address",
          "name": "",
          "type": "address"
        },
        {
          "internalType": "uint16",
          "name": "",
          "type": "uint16"
        }
      ],
      "name": "roles",
      "outputs": [
        {
          "internalType": "bool",
          "name": "",
          "type": "bool"
        }
      ],
      "stateMutability": "view",
      "type": "function"
    },
    {
      "inputs": [
        {
          "internalType": "uint16",
          "name": "role",
          "type": "uint16"
        },
        {
          "internalType": "address",
          "name": "actor",
          "type": "address"
        }
      ],
      "name": "setMainCharacter",
      "outputs": [],
      "stateMutability": "nonpayable",
      "type": "function"
    },
    {
      "inputs": [
        {
          "internalType": "address",
          "name": "newOwner",
          "type": "address"
        }
      ],
      "name": "transferOwnership",
      "outputs": [],
      "stateMutability": "nonpayable",
      "type": "function"
    }
  ],
  "bytecode": "0x608060405234801561001057600080fd5b50600061001b61006a565b600080546001600160a01b0319166001600160a01b0383169081178255604051929350917f8be0079c531659141344cd1fd0a4f28419497f9722a3daafe3b4186f6b6457e0908290a35061006e565b3390565b61086f8061007d6000396000f3fe608060405234801561001057600080fd5b50600436106100a35760003560e01c80639b44225b11610076578063d87fefd21161005b578063d87fefd214610129578063f2fde38b1461013c578063fae371de1461014f576100a3565b80639b44225b14610103578063b6aa083e14610116576100a3565b80633c9c8f9c146100a857806353b15901146100d1578063715018a6146100f15780638da5cb5b146100fb575b600080fd5b6100bb6100b6366004610738565b610162565b6040516100c8919061077b565b60405180910390f35b6100e46100df366004610706565b61018a565b6040516100c8919061079c565b6100f96101aa565b005b6100bb610295565b6100f9610111366004610752565b6102b1565b6100f9610124366004610752565b61037f565b6100e4610137366004610752565b610452565b6100f961014a3660046106e5565b61048d565b6100f961015d366004610752565b6105da565b60026020526000908152604090205473ffffffffffffffffffffffffffffffffffffffff1681565b600160209081526000928352604080842090915290825290205460ff1681565b6101b26106a6565b73ffffffffffffffffffffffffffffffffffffffff166101d0610295565b73ffffffffffffffffffffffffffffffffffffffff1614610226576040517f08c379a000000000000000000000000000000000000000000000000000000000815260040161021d90610804565b60405180910390fd5b6000805460405173ffffffffffffffffffffffffffffffffffffffff909116907f8be0079c531659141344cd1fd0a4f28419497f9722a3daafe3b4186f6b6457e0908390a3600080547fffffffffffffffffffffffff0000000000000000000000000000000000000000169055565b60005473ffffffffffffffffffffffffffffffffffffffff1690565b6102b96106a6565b73ffffffffffffffffffffffffffffffffffffffff166102d7610295565b73ffffffffffffffffffffffffffffffffffffffff1614610324576040517f08c379a000000000000000000000000000000000000000000000000000000000815260040161021d90610804565b73ffffffffffffffffffffffffffffffffffffffff16600090815260016020908152604080832061ffff90941683529290522080547fffffffffffffffffffffffffffffffffffffffffffffffffffffffffffffff00169055565b6103876106a6565b73ffffffffffffffffffffffffffffffffffffffff166103a5610295565b73ffffffffffffffffffffffffffffffffffffffff16146103f2576040517f08c379a000000000000000000000000000000000000000000000000000000000815260040161021d90610804565b73ffffffffffffffffffffffffffffffffffffffff16600090815260016020818152604080842061ffff909516845293905291902080547fffffffffffffffffffffffffffffffffffffffffffffffffffffffffffffff00169091179055565b73ffffffffffffffffffffffffffffffffffffffff16600090815260016020908152604080832061ffff949094168352929052205460ff1690565b6104956106a6565b73ffffffffffffffffffffffffffffffffffffffff166104b3610295565b73ffffffffffffffffffffffffffffffffffffffff1614610500576040517f08c379a000000000000000000000000000000000000000000000000000000000815260040161021d90610804565b73ffffffffffffffffffffffffffffffffffffffff811661054d576040517f08c379a000000000000000000000000000000000000000000000000000000000815260040161021d906107a7565b6000805460405173ffffffffffffffffffffffffffffffffffffffff808516939216917f8be0079c531659141344cd1fd0a4f28419497f9722a3daafe3b4186f6b6457e091a3600080547fffffffffffffffffffffffff00000000000000000000000000000000000000001673ffffffffffffffffffffffffffffffffffffffff92909216919091179055565b6105e26106a6565b73ffffffffffffffffffffffffffffffffffffffff16610600610295565b73ffffffffffffffffffffffffffffffffffffffff161461064d576040517f08c379a000000000000000000000000000000000000000000000000000000000815260040161021d90610804565b61ffff91909116600090815260026020526040902080547fffffffffffffffffffffffff00000000000000000000000000000000000000001673ffffffffffffffffffffffffffffffffffffffff909216919091179055565b3390565b803573ffffffffffffffffffffffffffffffffffffffff811681146106ce57600080fd5b919050565b803561ffff811681146106ce57600080fd5b6000602082840312156106f6578081fd5b6106ff826106aa565b9392505050565b60008060408385031215610718578081fd5b610721836106aa565b915061072f602084016106d3565b90509250929050565b600060208284031215610749578081fd5b6106ff826106d3565b60008060408385031215610764578182fd5b61076d836106d3565b915061072f602084016106aa565b73ffffffffffffffffffffffffffffffffffffffff91909116815260200190565b901515815260200190565b60208082526026908201527f4f776e61626c653a206e6577206f776e657220697320746865207a65726f206160408201527f6464726573730000000000000000000000000000000000000000000000000000606082015260800190565b6020808252818101527f4f776e61626c653a2063616c6c6572206973206e6f7420746865206f776e657260408201526060019056fea26469706673582212209240b3ff837b487b146a66ceca550691f355bae525ff69676bd64b0fbbc48e2364736f6c63430008010033",
  "linkReferences": {},
  "deployedLinkReferences": {}
}