{
  "address": "0xFCc8e64E05646bE9117800289A872f3828d29A84",
  "abi": [
    {
      "inputs": [
        {
          "internalType": "uint256",
          "name": "_feesPer10k",
          "type": "uint256"
        },
        {
          "internalType": "address",
          "name": "_MFI",
          "type": "address"
        },
        {
          "internalType": "address",
          "name": "_lockedMFI",
          "type": "address"
        },
        {
          "internalType": "address",
          "name": "lockedMFIDelegate",
          "type": "address"
        },
        {
          "internalType": "address",
          "name": "_roles",
          "type": "address"
        }
      ],
      "stateMutability": "nonpayable",
      "type": "constructor"
    },
    {
      "anonymous": false,
      "inputs": [
        {
          "indexed": true,
          "internalType": "address",
          "name": "previousOwner",
          "type": "address"
        },
        {
          "indexed": true,
          "internalType": "address",
          "name": "newOwner",
          "type": "address"
        }
      ],
      "name": "OwnershipTransferred",
      "type": "event"
    },
    {
      "inputs": [],
      "name": "ADMIN",
      "outputs": [
        {
          "internalType": "uint16",
          "name": "",
          "type": "uint16"
        }
      ],
      "stateMutability": "view",
      "type": "function"
    },
    {
      "inputs": [],
      "name": "AUTHORIZED_FUND_TRADER",
      "outputs": [
        {
          "internalType": "uint16",
          "name": "",
          "type": "uint16"
        }
      ],
      "stateMutability": "view",
      "type": "function"
    },
    {
      "inputs": [],
      "name": "BORROWER",
      "outputs": [
        {
          "internalType": "uint16",
          "name": "",
          "type": "uint16"
        }
      ],
      "stateMutability": "view",
      "type": "function"
    },
    {
      "inputs": [],
      "name": "FEE_CONTROLLER",
      "outputs": [
        {
          "internalType": "uint16",
          "name": "",
          "type": "uint16"
        }
      ],
      "stateMutability": "view",
      "type": "function"
    },
    {
      "inputs": [],
      "name": "FEE_SOURCE",
      "outputs": [
        {
          "internalType": "uint16",
          "name": "",
          "type": "uint16"
        }
      ],
      "stateMutability": "view",
      "type": "function"
    },
    {
      "inputs": [],
      "name": "FUND",
      "outputs": [
        {
          "internalType": "uint16",
          "name": "",
          "type": "uint16"
        }
      ],
      "stateMutability": "view",
      "type": "function"
    },
    {
      "inputs": [],
      "name": "INCENTIVE_DISTRIBUTION",
      "outputs": [
        {
          "internalType": "uint16",
          "name": "",
          "type": "uint16"
        }
      ],
      "stateMutability": "view",
      "type": "function"
    },
    {
      "inputs": [],
      "name": "INCENTIVE_REPORTER",
      "outputs": [
        {
          "internalType": "uint16",
          "name": "",
          "type": "uint16"
        }
      ],
      "stateMutability": "view",
      "type": "function"
    },
    {
      "inputs": [],
      "name": "LENDING",
      "outputs": [
        {
          "internalType": "uint16",
          "name": "",
          "type": "uint16"
        }
      ],
      "stateMutability": "view",
      "type": "function"
    },
    {
      "inputs": [],
      "name": "LIQUIDATOR",
      "outputs": [
        {
          "internalType": "uint16",
          "name": "",
          "type": "uint16"
        }
      ],
      "stateMutability": "view",
      "type": "function"
    },
    {
      "inputs": [],
      "name": "MARGIN_CALLER",
      "outputs": [
        {
          "internalType": "uint16",
          "name": "",
          "type": "uint16"
        }
      ],
      "stateMutability": "view",
      "type": "function"
    },
    {
      "inputs": [],
      "name": "MARGIN_TRADER",
      "outputs": [
        {
          "internalType": "uint16",
          "name": "",
          "type": "uint16"
        }
      ],
      "stateMutability": "view",
      "type": "function"
    },
    {
      "inputs": [],
      "name": "MARGIN_TRADING",
      "outputs": [
        {
          "internalType": "uint16",
          "name": "",
          "type": "uint16"
        }
      ],
      "stateMutability": "view",
      "type": "function"
    },
    {
      "inputs": [],
      "name": "PRICE_CONTROLLER",
      "outputs": [
        {
          "internalType": "uint16",
          "name": "",
          "type": "uint16"
        }
      ],
      "stateMutability": "view",
      "type": "function"
    },
    {
      "inputs": [],
      "name": "ROUTER",
      "outputs": [
        {
          "internalType": "uint16",
          "name": "",
          "type": "uint16"
        }
      ],
      "stateMutability": "view",
      "type": "function"
    },
    {
      "inputs": [],
      "name": "STAKE_PENALIZER",
      "outputs": [
        {
          "internalType": "uint16",
          "name": "",
          "type": "uint16"
        }
      ],
      "stateMutability": "view",
      "type": "function"
    },
    {
      "inputs": [],
      "name": "TOKEN_ACTIVATOR",
      "outputs": [
        {
          "internalType": "uint16",
          "name": "",
          "type": "uint16"
        }
      ],
      "stateMutability": "view",
      "type": "function"
    },
    {
      "inputs": [],
      "name": "WITHDRAWER",
      "outputs": [
        {
          "internalType": "uint16",
          "name": "",
          "type": "uint16"
        }
      ],
      "stateMutability": "view",
      "type": "function"
    },
    {
      "inputs": [
        {
          "internalType": "address",
          "name": "forStaker",
          "type": "address"
        },
        {
          "internalType": "address",
          "name": "delegate",
          "type": "address"
        }
      ],
      "name": "addDelegate",
      "outputs": [],
      "stateMutability": "nonpayable",
      "type": "function"
    },
    {
      "inputs": [
        {
          "internalType": "address",
          "name": "token",
          "type": "address"
        },
        {
          "internalType": "uint256",
          "name": "amount",
          "type": "uint256"
        }
      ],
      "name": "addTradingFees",
      "outputs": [
        {
          "internalType": "uint256",
          "name": "fees",
          "type": "uint256"
        }
      ],
      "stateMutability": "nonpayable",
      "type": "function"
    },
    {
      "inputs": [
        {
          "internalType": "address",
          "name": "",
          "type": "address"
        }
      ],
      "name": "claimIds",
      "outputs": [
        {
          "internalType": "uint256",
          "name": "",
          "type": "uint256"
        }
      ],
      "stateMutability": "view",
      "type": "function"
    },
    {
      "inputs": [
        {
          "internalType": "address",
          "name": "",
          "type": "address"
        }
      ],
      "name": "collectedFees",
      "outputs": [
        {
          "internalType": "uint256",
          "name": "",
          "type": "uint256"
        }
      ],
      "stateMutability": "view",
      "type": "function"
    },
    {
      "inputs": [],
      "name": "currentMaintenanceStaker",
      "outputs": [
        {
          "internalType": "address",
          "name": "",
          "type": "address"
        }
      ],
      "stateMutability": "view",
      "type": "function"
    },
    {
      "inputs": [],
      "name": "currentMaintenanceStakerStartBlock",
      "outputs": [
        {
          "internalType": "uint256",
          "name": "",
          "type": "uint256"
        }
      ],
      "stateMutability": "view",
      "type": "function"
    },
    {
      "inputs": [
        {
          "internalType": "uint256",
          "name": "amount",
          "type": "uint256"
        }
      ],
      "name": "depositMaintenanceStake",
      "outputs": [],
      "stateMutability": "nonpayable",
      "type": "function"
    },
    {
      "inputs": [
        {
          "internalType": "uint256",
          "name": "amount",
          "type": "uint256"
        }
      ],
      "name": "depositStake",
      "outputs": [],
      "stateMutability": "nonpayable",
      "type": "function"
    },
    {
      "inputs": [
        {
          "internalType": "address",
          "name": "staker",
          "type": "address"
        }
      ],
      "name": "getMaintenanceStakerStake",
      "outputs": [
        {
          "internalType": "uint256",
          "name": "",
          "type": "uint256"
        }
      ],
      "stateMutability": "view",
      "type": "function"
    },
    {
      "inputs": [],
      "name": "getUpdatedCurrentStaker",
      "outputs": [
        {
          "internalType": "address",
          "name": "",
          "type": "address"
        }
      ],
      "stateMutability": "nonpayable",
      "type": "function"
    },
    {
      "inputs": [
        {
          "internalType": "address",
          "name": "caller",
          "type": "address"
        }
      ],
      "name": "isAuthorizedStaker",
      "outputs": [
        {
          "internalType": "bool",
          "name": "isAuthorized",
          "type": "bool"
        }
      ],
      "stateMutability": "nonpayable",
      "type": "function"
    },
    {
      "inputs": [],
      "name": "lockedMFI",
      "outputs": [
        {
          "internalType": "address",
          "name": "",
          "type": "address"
        }
      ],
      "stateMutability": "view",
      "type": "function"
    },
    {
      "inputs": [
        {
          "internalType": "uint16",
          "name": "",
          "type": "uint16"
        }
      ],
      "name": "mainCharacterCache",
      "outputs": [
        {
          "internalType": "address",
          "name": "",
          "type": "address"
        }
      ],
      "stateMutability": "view",
      "type": "function"
    },
    {
      "inputs": [
        {
          "internalType": "address",
          "name": "",
          "type": "address"
        },
        {
          "internalType": "address",
          "name": "",
          "type": "address"
        }
      ],
      "name": "maintenanceDelegateTo",
      "outputs": [
        {
          "internalType": "bool",
          "name": "",
          "type": "bool"
        }
      ],
      "stateMutability": "view",
      "type": "function"
    },
    {
      "inputs": [],
      "name": "maintenanceStakePerBlock",
      "outputs": [
        {
          "internalType": "uint256",
          "name": "",
          "type": "uint256"
        }
      ],
      "stateMutability": "view",
      "type": "function"
    },
    {
      "inputs": [
        {
          "internalType": "address",
          "name": "",
          "type": "address"
        }
      ],
      "name": "nextMaintenanceStaker",
      "outputs": [
        {
          "internalType": "address",
          "name": "",
          "type": "address"
        }
      ],
      "stateMutability": "view",
      "type": "function"
    },
    {
      "inputs": [],
      "name": "owner",
      "outputs": [
        {
          "internalType": "address",
          "name": "",
          "type": "address"
        }
      ],
      "stateMutability": "view",
      "type": "function"
    },
    {
      "inputs": [
        {
          "internalType": "address",
          "name": "maintainer",
          "type": "address"
        },
        {
          "internalType": "uint256",
          "name": "penalty",
          "type": "uint256"
        },
        {
          "internalType": "address",
          "name": "recipient",
          "type": "address"
        }
      ],
      "name": "penalizeMaintenanceStake",
      "outputs": [
        {
          "internalType": "uint256",
          "name": "stakeTaken",
          "type": "uint256"
        }
      ],
      "stateMutability": "nonpayable",
      "type": "function"
    },
    {
      "inputs": [],
      "name": "prevMaintenanceStaker",
      "outputs": [
        {
          "internalType": "address",
          "name": "",
          "type": "address"
        }
      ],
      "stateMutability": "view",
      "type": "function"
    },
    {
      "inputs": [
        {
          "internalType": "address",
          "name": "forStaker",
          "type": "address"
        },
        {
          "internalType": "address",
          "name": "delegate",
          "type": "address"
        }
      ],
      "name": "removeDelegate",
      "outputs": [],
      "stateMutability": "nonpayable",
      "type": "function"
    },
    {
      "inputs": [],
      "name": "renounceOwnership",
      "outputs": [],
      "stateMutability": "nonpayable",
      "type": "function"
    },
    {
      "inputs": [
        {
          "internalType": "address",
          "name": "",
          "type": "address"
        },
        {
          "internalType": "uint16",
          "name": "",
          "type": "uint16"
        }
      ],
      "name": "roleCache",
      "outputs": [
        {
          "internalType": "bool",
          "name": "",
          "type": "bool"
        }
      ],
      "stateMutability": "view",
      "type": "function"
    },
    {
      "inputs": [],
      "name": "roles",
      "outputs": [
        {
          "internalType": "contract Roles",
          "name": "",
          "type": "address"
        }
      ],
      "stateMutability": "view",
      "type": "function"
    },
    {
      "inputs": [
        {
          "internalType": "uint256",
          "name": "amount",
          "type": "uint256"
        }
      ],
      "name": "setMaintenanceStakePerBlock",
      "outputs": [],
      "stateMutability": "nonpayable",
      "type": "function"
    },
    {
      "inputs": [
        {
          "internalType": "address",
          "name": "",
          "type": "address"
        }
      ],
      "name": "stakes",
      "outputs": [
        {
          "internalType": "uint256",
          "name": "",
          "type": "uint256"
        }
      ],
      "stateMutability": "view",
      "type": "function"
    },
    {
      "inputs": [
        {
          "internalType": "address",
          "name": "token",
          "type": "address"
        },
        {
          "internalType": "uint256",
          "name": "amount",
          "type": "uint256"
        }
      ],
      "name": "subtractTradingFees",
      "outputs": [
        {
          "internalType": "uint256",
          "name": "fees",
          "type": "uint256"
        }
      ],
      "stateMutability": "nonpayable",
      "type": "function"
    },
    {
      "inputs": [],
      "name": "totalStakes",
      "outputs": [
        {
          "internalType": "uint256",
          "name": "",
          "type": "uint256"
        }
      ],
      "stateMutability": "view",
      "type": "function"
    },
    {
      "inputs": [
        {
          "internalType": "address",
          "name": "newOwner",
          "type": "address"
        }
      ],
      "name": "transferOwnership",
      "outputs": [],
      "stateMutability": "nonpayable",
      "type": "function"
    },
    {
      "inputs": [
        {
          "internalType": "uint16",
          "name": "role",
          "type": "uint16"
        }
      ],
      "name": "updateMainCharacterCache",
      "outputs": [],
      "stateMutability": "nonpayable",
      "type": "function"
    },
    {
      "inputs": [
        {
          "internalType": "uint16",
          "name": "role",
          "type": "uint16"
        },
        {
          "internalType": "address",
          "name": "contr",
          "type": "address"
        }
      ],
      "name": "updateRoleCache",
      "outputs": [],
      "stateMutability": "nonpayable",
      "type": "function"
    },
    {
      "inputs": [],
      "name": "viewCurrentMaintenanceStaker",
      "outputs": [
        {
          "internalType": "address",
          "name": "staker",
          "type": "address"
        },
        {
          "internalType": "uint256",
          "name": "startBlock",
          "type": "uint256"
        }
      ],
      "stateMutability": "view",
      "type": "function"
    },
    {
      "inputs": [
        {
          "internalType": "uint256",
          "name": "amount",
          "type": "uint256"
        }
      ],
      "name": "withdrawStake",
      "outputs": [],
      "stateMutability": "nonpayable",
      "type": "function"
    }
  ],
  "transactionHash": "0x7cab19c11d43dd766b3e5817fc8de5928dbe06247b1cfb43d236e0ef2ed6976c",
  "args": [
    10,
    "0xAa4e3edb11AFa93c41db59842b29de64b72E355B",
    "0x6c8fbBf8E079246A92E760D440793f2f864a26b3",
    "0x23292e9BA8434e59E6BAC1907bA7425211c4DE27",
    "0x0aB4A3F2B1129A0595185e4a9A1548e9e7f984C0"
  ],
  "solcInputHash": "fe4ccaec56ebcbda1a00f5460db20335",
  "bytecode": "0x6080604052678ac7230489e80000600a553480156200001d57600080fd5b506040516200260738038062002607833981016040819052620000409162000169565b600080546001600160a01b0319166001600160a01b0383161781556200006562000148565b600380546001600160a01b0319166001600160a01b038316908117909155604051919250906000907f8be0079c531659141344cd1fd0a4f28419497f9722a3daafe3b4186f6b6457e0908290a35050600480546001600160a01b03199081166001600160a01b0395861617909155600894909455670de0b6b3a7640000600a556010805485169284169290921780835583166000818152600b60209081526040808320805489169094179093559354600d805491871691881682179055600e80549097168117909655948552600c835284209216909252905243600f55620001cf565b3390565b80516001600160a01b03811681146200016457600080fd5b919050565b600080600080600060a0868803121562000181578081fd5b8551945062000193602087016200014c565b9350620001a3604087016200014c565b9250620001b3606087016200014c565b9150620001c3608087016200014c565b90509295509295909350565b61242880620001df6000396000f3fe608060405234801561001057600080fd5b50600436106103365760003560e01c80636cd5cd60116101b2578063b4481652116100f9578063cb82cc8f116100a2578063dc5c66f91161007c578063dc5c66f9146105be578063e909ebfa146105d1578063e9f39e16146105e4578063f2fde38b146105ec57610336565b8063cb82cc8f14610590578063d5d7ed7f146105a3578063d8715ca7146105ab57610336565b8063c3fff5d9116100d3578063c3fff5d91461056d578063c76139d014610580578063cacf8d451461058857610336565b8063b44816521461053f578063bf9befb114610552578063c34316c31461055a57610336565b806383a49c7c1161015b578063a94c7c3411610135578063a94c7c3414610519578063a9cc053614610521578063b0411f461461052957610336565b806383a49c7c146105015780638da5cb5b14610509578063a0098d691461051157610336565b80637fbc953d1161018c5780637fbc953d146104de578063806cdada146104f157806381ca6600146104f957610336565b80636cd5cd60146104b0578063715018a6146104c35780637b23cbce146104cb57610336565b806320e8d81911610281578063392f5f641161022a57806348fb27b81161020457806348fb27b8146104855780635c275a391461048d578063669419841461049557806367cbf42d1461049d57610336565b8063392f5f64146104625780633f0e9edf1461046a57806346b887961461047d57610336565b80632a0acc6a1161025b5780632a0acc6a1461044a5780632fe94def1461045257806332fe7b261461045a57610336565b806320e8d81914610411578063219f951d1461042457806325d5971f1461043757610336565b806316934fc4116102e35780631b669507116102bd5780631b669507146103ee5780631bc5d81d146103f65780631cead9a7146103fe57610336565b806316934fc4146103cb5780631a38de1d146103de5780631aea9f52146103e657610336565b80630a45bc1b116103145780630a45bc1b1461038e5780630ad69150146103ae578063152119d8146103b657610336565b8063020d308d1461033b578063055cfe5314610350578063065d570f14610379575b600080fd5b61034e610349366004611d27565b6105ff565b005b61036361035e366004611d27565b6106ee565b6040516103709190611efc565b60405180910390f35b61038161070e565b60405161037091906122ba565b6103a161039c366004611dbe565b610713565b60405161037091906122f3565b6103a16107c2565b6103be6107c8565b6040516103709190611e84565b6103a16103d9366004611cef565b6107e4565b6103be6107f6565b6103a16109bc565b6103816109c2565b6103816109c7565b6103a161040c366004611cef565b6109cc565b61034e61041f366004611e39565b6109de565b61034e610432366004611e54565b610aef565b61034e610445366004611e54565b610be8565b610381610c33565b610381610c38565b610381610c3d565b6103be610c42565b6103a1610478366004611d93565b610c5e565b610381610d0c565b610381610d11565b610381610d16565b610381610d1b565b6103a16104ab366004611d93565b610d20565b61034e6104be366004611e1f565b610d72565b61034e610e71565b6103636104d9366004611cef565b610f53565b6103a16104ec366004611cef565b610fd2565b6103be6110e2565b6103816110fe565b610381611103565b6103be611108565b610381611124565b610381611129565b61038161112e565b610531611133565b604051610370929190611ed6565b6103be61054d366004611e1f565b611245565b6103a161126d565b610363610568366004611d5f565b611273565b6103be61057b366004611cef565b611293565b6103816112bb565b6103816112c0565b61034e61059e366004611e54565b6112c5565b6103816112cf565b61034e6105b9366004611e54565b6112d4565b6103a16105cc366004611cef565b61134c565b61034e6105df366004611d27565b61135e565b6103be611447565b61034e6105fa366004611cef565b611463565b3373ffffffffffffffffffffffffffffffffffffffff83161480610653575073ffffffffffffffffffffffffffffffffffffffff82166000908152600c6020908152604080832033845290915290205460ff165b610692576040517f08c379a00000000000000000000000000000000000000000000000000000000081526004016106899061207d565b60405180910390fd5b73ffffffffffffffffffffffffffffffffffffffff9182166000908152600c60209081526040808320939094168252919091522080547fffffffffffffffffffffffffffffffffffffffffffffffffffffffffffffff00169055565b600c60209081526000928352604080842090915290825290205460ff1681565b600381565b600061071e336115b1565b610754576040517f08c379a000000000000000000000000000000000000000000000000000000000815260040161068990611f66565b73ffffffffffffffffffffffffffffffffffffffff84166000908152600560205260409020548311156107ad575073ffffffffffffffffffffffffffffffffffffffff83166000908152600560205260409020546107b0565b50815b6107bb848284611661565b9392505050565b600a5481565b60105473ffffffffffffffffffffffffffffffffffffffff1681565b60056020526000908152604090205481565b600d54600090819061081d9073ffffffffffffffffffffffffffffffffffffffff16610fd2565b90505b80600a54600f5443610832919061238a565b61083c919061234d565b1061099e5780600a5411156108c957600d805473ffffffffffffffffffffffffffffffffffffffff9081166000908152600b602052604080822054600e548416835281832080549185167fffffffffffffffffffffffff00000000000000000000000000000000000000009283168117909155855490941683529120805482169055825416179055610975565b600a54600d5473ffffffffffffffffffffffffffffffffffffffff166000908152600560205260409020546108fe9190612314565b600f600082825461090f91906122fc565b9091555050600d8054600e80547fffffffffffffffffffffffff000000000000000000000000000000000000000090811673ffffffffffffffffffffffffffffffffffffffff8085169182179093556000908152600b6020526040902054921691161790555b600d546109979073ffffffffffffffffffffffffffffffffffffffff16610fd2565b9050610820565b5050600d5473ffffffffffffffffffffffffffffffffffffffff1690565b600f5481565b600a81565b600881565b60096020526000908152604090205481565b6000546040517fd87fefd200000000000000000000000000000000000000000000000000000000815273ffffffffffffffffffffffffffffffffffffffff9091169063d87fefd290610a3690859085906004016122c9565b60206040518083038186803b158015610a4e57600080fd5b505afa158015610a62573d6000803e3d6000fd5b505050506040513d601f19601f82011682018060405250810190610a869190611dff565b73ffffffffffffffffffffffffffffffffffffffff909116600090815260026020908152604080832061ffff90951683529390529190912080549115157fffffffffffffffffffffffffffffffffffffffffffffffffffffffffffffff00909216919091179055565b600a5433600090815260056020526040902054610b0c90836122fc565b1015610b44576040517f08c379a000000000000000000000000000000000000000000000000000000000815260040161068990612020565b610b4e338261190a565b336000908152600b602052604090205473ffffffffffffffffffffffffffffffffffffffff16610be557610b806107f6565b336000818152600b6020526040808220805473ffffffffffffffffffffffffffffffffffffffff9586167fffffffffffffffffffffffff000000000000000000000000000000000000000091821617909155600e549094168252902080549092161790555b50565b610bf133610f53565b15610c28576040517f08c379a00000000000000000000000000000000000000000000000000000000081526004016106899061225d565b610be5338233611661565b606b81565b606981565b606781565b60005473ffffffffffffffffffffffffffffffffffffffff1681565b6000610c6933611c18565b610c9f576040517f08c379a000000000000000000000000000000000000000000000000000000000815260040161068990612226565b600854610cae906127106122fc565b82600854610cbc919061234d565b610cc69190612314565b73ffffffffffffffffffffffffffffffffffffffff8416600090815260096020526040812080549293508392909190610d009084906122fc565b90915550909392505050565b600681565b606681565b606581565b600181565b6000610d2b33611c18565b610d61576040517f08c379a000000000000000000000000000000000000000000000000000000000815260040161068990612226565b61271082600854610cbc919061234d565b6000546040517f3c9c8f9c00000000000000000000000000000000000000000000000000000000815273ffffffffffffffffffffffffffffffffffffffff90911690633c9c8f9c90610dc89084906004016122ba565b60206040518083038186803b158015610de057600080fd5b505afa158015610df4573d6000803e3d6000fd5b505050506040513d601f19601f82011682018060405250810190610e189190611d0b565b61ffff91909116600090815260016020526040902080547fffffffffffffffffffffffff00000000000000000000000000000000000000001673ffffffffffffffffffffffffffffffffffffffff909216919091179055565b610e79611c4f565b73ffffffffffffffffffffffffffffffffffffffff16610e97611108565b73ffffffffffffffffffffffffffffffffffffffff1614610ee4576040517f08c379a0000000000000000000000000000000000000000000000000000000008152600401610689906120da565b60035460405160009173ffffffffffffffffffffffffffffffffffffffff16907f8be0079c531659141344cd1fd0a4f28419497f9722a3daafe3b4186f6b6457e0908390a3600380547fffffffffffffffffffffffff0000000000000000000000000000000000000000169055565b600080610f5e6107f6565b90508273ffffffffffffffffffffffffffffffffffffffff168173ffffffffffffffffffffffffffffffffffffffff1614806107bb575073ffffffffffffffffffffffffffffffffffffffff8082166000908152600c602090815260408083209387168352929052205460ff169392505050565b60105460009073ffffffffffffffffffffffffffffffffffffffff838116911614156110b557600480546010546040517f70a0823100000000000000000000000000000000000000000000000000000000815260029373ffffffffffffffffffffffffffffffffffffffff938416936370a08231936110549391169101611e84565b60206040518083038186803b15801561106c57600080fd5b505afa158015611080573d6000803e3d6000fd5b505050506040513d601f19601f820116820180604052508101906110a49190611e6c565b6110ae9190612314565b90506110dd565b5073ffffffffffffffffffffffffffffffffffffffff81166000908152600560205260409020545b919050565b600e5473ffffffffffffffffffffffffffffffffffffffff1681565b606a81565b600981565b60035473ffffffffffffffffffffffffffffffffffffffff1690565b600281565b600581565b606881565b600d5473ffffffffffffffffffffffffffffffffffffffff1660008061115883610fd2565b9050600f5491505b600a54819061116f844361238a565b611179919061234d565b106112405780600a5411156111c35773ffffffffffffffffffffffffffffffffffffffff9283166000908152600b6020526040902054909216916111bc83610fd2565b905061123b565b600a54600d5473ffffffffffffffffffffffffffffffffffffffff166000908152600560205260409020546111f89190612314565b61120290836122fc565b73ffffffffffffffffffffffffffffffffffffffff9384166000908152600b602052604090205490931692915061123883610fd2565b90505b611160565b509091565b60016020526000908152604090205473ffffffffffffffffffffffffffffffffffffffff1681565b60065481565b600260209081526000928352604080842090915290825290205460ff1681565b600b6020526000908152604090205473ffffffffffffffffffffffffffffffffffffffff1681565b606c81565b600481565b610be5338261190a565b600781565b6112dc611c4f565b73ffffffffffffffffffffffffffffffffffffffff166112fa611108565b73ffffffffffffffffffffffffffffffffffffffff1614611347576040517f08c379a0000000000000000000000000000000000000000000000000000000008152600401610689906120da565b600a55565b60076020526000908152604090205481565b3373ffffffffffffffffffffffffffffffffffffffff831614806113b2575073ffffffffffffffffffffffffffffffffffffffff82166000908152600c6020908152604080832033845290915290205460ff165b6113e8576040517f08c379a00000000000000000000000000000000000000000000000000000000081526004016106899061207d565b73ffffffffffffffffffffffffffffffffffffffff9182166000908152600c60209081526040808320939094168252919091522080547fffffffffffffffffffffffffffffffffffffffffffffffffffffffffffffff00166001179055565b600d5473ffffffffffffffffffffffffffffffffffffffff1681565b61146b611c4f565b73ffffffffffffffffffffffffffffffffffffffff16611489611108565b73ffffffffffffffffffffffffffffffffffffffff16146114d6576040517f08c379a0000000000000000000000000000000000000000000000000000000008152600401610689906120da565b73ffffffffffffffffffffffffffffffffffffffff8116611523576040517f08c379a000000000000000000000000000000000000000000000000000000000815260040161068990611fc3565b60035460405173ffffffffffffffffffffffffffffffffffffffff8084169216907f8be0079c531659141344cd1fd0a4f28419497f9722a3daafe3b4186f6b6457e090600090a3600380547fffffffffffffffffffffffff00000000000000000000000000000000000000001673ffffffffffffffffffffffffffffffffffffffff92909216919091179055565b600080546040517fd87fefd200000000000000000000000000000000000000000000000000000000815273ffffffffffffffffffffffffffffffffffffffff9091169063d87fefd29061160b90600a9086906004016122c9565b60206040518083038186803b15801561162357600080fd5b505afa158015611637573d6000803e3d6000fd5b505050506040513d601f19601f8201168201806040525081019061165b9190611dff565b92915050565b73ffffffffffffffffffffffffffffffffffffffff83166000908152600560205260408120805490849055600680549192859261169f90849061238a565b909155506116ad9050611c53565b600480546040517fd9caed1200000000000000000000000000000000000000000000000000000000815273ffffffffffffffffffffffffffffffffffffffff9384169363d9caed129361170893909116918791899101611ea5565b602060405180830381600087803b15801561172257600080fd5b505af1158015611736573d6000803e3d6000fd5b505050506040513d601f19601f8201168201806040525081019061175a9190611dff565b611790576040517f08c379a0000000000000000000000000000000000000000000000000000000008152600401610689906121c9565b82811415611862576117a0611c98565b73ffffffffffffffffffffffffffffffffffffffff8581166000908152600760205260408082205490517fc6de9d5d000000000000000000000000000000000000000000000000000000008152939092169263c6de9d5d926118059291600401611f38565b600060405180830381600087803b15801561181f57600080fd5b505af1158015611833573d6000803e3d6000fd5b50505073ffffffffffffffffffffffffffffffffffffffff851660009081526007602052604081205550611904565b61186a611c98565b73ffffffffffffffffffffffffffffffffffffffff8581166000908152600760205260408082205490517fa8016711000000000000000000000000000000000000000000000000000000008152939092169263a8016711926118d192918890600401611f4b565b600060405180830381600087803b1580156118eb57600080fd5b505af11580156118ff573d6000803e3d6000fd5b505050505b50505050565b611912611c53565b600480546040517fb3db428b00000000000000000000000000000000000000000000000000000000815273ffffffffffffffffffffffffffffffffffffffff9384169363b3db428b9361196c938893921691879101611ea5565b602060405180830381600087803b15801561198657600080fd5b505af115801561199a573d6000803e3d6000fd5b505050506040513d601f19601f820116820180604052508101906119be9190611dff565b6119f4576040517f08c379a000000000000000000000000000000000000000000000000000000000815260040161068990612146565b73ffffffffffffffffffffffffffffffffffffffff821660009081526005602052604081208054839290611a299084906122fc565b925050819055508060066000828254611a4291906122fc565b909155505073ffffffffffffffffffffffffffffffffffffffff821660009081526007602052604090205415611b1857611a7a611c98565b73ffffffffffffffffffffffffffffffffffffffff8381166000908152600760205260408082205490517ff5428087000000000000000000000000000000000000000000000000000000008152939092169263f542808792611ae192918690600401611f4b565b600060405180830381600087803b158015611afb57600080fd5b505af1158015611b0f573d6000803e3d6000fd5b50505050611c14565b6000611b22611c98565b73ffffffffffffffffffffffffffffffffffffffff1663583d8616600085856040518463ffffffff1660e01b8152600401611b5f93929190611f07565b602060405180830381600087803b158015611b7957600080fd5b505af1158015611b8d573d6000803e3d6000fd5b505050506040513d601f19601f82011682018060405250810190611bb19190611e6c565b73ffffffffffffffffffffffffffffffffffffffff84166000908152600760205260409020819055905080611c12576040517f08c379a00000000000000000000000000000000000000000000000000000000081526004016106899061210f565b505b5050565b73ffffffffffffffffffffffffffffffffffffffff1660009081526002602090815260408083206005845290915290205460ff1690565b3390565b606560005260016020527f6def5a300acb6fcaa0dab3a41e9d6457b5147a641e641380f8cc4bf5308b16fe5473ffffffffffffffffffffffffffffffffffffffff1690565b606c60005260016020527fd80c728dcb954e7539257f5b9090fa0c83e482d978be864c61ec2b155c05c2525473ffffffffffffffffffffffffffffffffffffffff1690565b803561ffff811681146110dd57600080fd5b600060208284031215611d00578081fd5b81356107bb816123d0565b600060208284031215611d1c578081fd5b81516107bb816123d0565b60008060408385031215611d39578081fd5b8235611d44816123d0565b91506020830135611d54816123d0565b809150509250929050565b60008060408385031215611d71578182fd5b8235611d7c816123d0565b9150611d8a60208401611cdd565b90509250929050565b60008060408385031215611da5578182fd5b8235611db0816123d0565b946020939093013593505050565b600080600060608486031215611dd2578081fd5b8335611ddd816123d0565b9250602084013591506040840135611df4816123d0565b809150509250925092565b600060208284031215611e10578081fd5b815180151581146107bb578182fd5b600060208284031215611e30578081fd5b6107bb82611cdd565b60008060408385031215611e4b578182fd5b611d4483611cdd565b600060208284031215611e65578081fd5b5035919050565b600060208284031215611e7d578081fd5b5051919050565b73ffffffffffffffffffffffffffffffffffffffff91909116815260200190565b73ffffffffffffffffffffffffffffffffffffffff9384168152919092166020820152604081019190915260600190565b73ffffffffffffffffffffffffffffffffffffffff929092168252602082015260400190565b901515815260200190565b60ff93909316835273ffffffffffffffffffffffffffffffffffffffff919091166020830152604082015260600190565b60ff929092168252602082015260400190565b60ff9390931683526020830191909152604082015260600190565b6020808252602d908201527f6d73672e73656e646572206e6f7420617574686f72697a656420746f2070656e60408201527f616c697a65207374616b65727300000000000000000000000000000000000000606082015260800190565b60208082526026908201527f4f776e61626c653a206e6577206f776e657220697320746865207a65726f206160408201527f6464726573730000000000000000000000000000000000000000000000000000606082015260800190565b60208082526029908201527f496e73756666696369656e74207374616b6520746f2063616c6c206576656e2060408201527f6f6e6520626c6f636b0000000000000000000000000000000000000000000000606082015260800190565b60208082526030908201527f6d73672e73656e646572206e6f7420617574686f72697a656420746f2064656c60408201527f656761746520666f72207374616b657200000000000000000000000000000000606082015260800190565b6020808252818101527f4f776e61626c653a2063616c6c6572206973206e6f7420746865206f776e6572604082015260600190565b6020808252601e908201527f446973747269627574696f6e206973206f766572206f72207061757365640000604082015260600190565b60208082526047908201527f436f756c64206e6f74206465706f736974207374616b652066756e647320287060408201527f657268617073206d616b6520616c6c6f77616e636520746f2066756e6420636f60608201527f6e74726163743f00000000000000000000000000000000000000000000000000608082015260a00190565b60208082526032908201527f496e73756666696369656e742066756e6473202d2d20736f6d657468696e672060408201527f77656e74207265616c6c792077726f6e672e0000000000000000000000000000606082015260800190565b6020808252601d908201527f4e6f7420617574686f72697a656420746f20736f757263652066656573000000604082015260600190565b60208082526031908201527f596f752063616e2774207769746864726177207768696c6520796f752772652060408201527f617574686f72697a6564207374616b6572000000000000000000000000000000606082015260800190565b61ffff91909116815260200190565b61ffff92909216825273ffffffffffffffffffffffffffffffffffffffff16602082015260400190565b90815260200190565b6000821982111561230f5761230f6123a1565b500190565b600082612348577f4e487b710000000000000000000000000000000000000000000000000000000081526012600452602481fd5b500490565b6000817fffffffffffffffffffffffffffffffffffffffffffffffffffffffffffffffff0483118215151615612385576123856123a1565b500290565b60008282101561239c5761239c6123a1565b500390565b7f4e487b7100000000000000000000000000000000000000000000000000000000600052601160045260246000fd5b73ffffffffffffffffffffffffffffffffffffffff81168114610be557600080fdfea2646970667358221220f75269779b78ef1d2a88acd63aeeb679ab6663656f297dbb190e1f90238786de64736f6c63430008010033",
  "devdoc": {
    "details": "Here we support staking for MFI incentives as well as staking to perform the maintenance role.",
    "kind": "dev",
    "methods": {
      "owner()": {
        "details": "Returns the address of the current owner."
      },
      "renounceOwnership()": {
        "details": "Leaves the contract without owner. It will not be possible to call `onlyOwner` functions anymore. Can only be called by the current owner. NOTE: Renouncing ownership will leave the contract without an owner, thereby removing any functionality that is only available to the owner."
      },
      "transferOwnership(address)": {
        "details": "Transfers ownership of the contract to a new account (`newOwner`). Can only be called by the current owner."
      }
    },
    "version": 1
  },
  "userdoc": {
    "kind": "user",
    "methods": {},
    "version": 1
  },
  "storageLayout": {
    "storage": [
      {
        "astId": 11727,
        "contract": "contracts/Admin.sol:Admin",
        "label": "roles",
        "offset": 0,
        "slot": "0",
        "type": "t_contract(Roles)12117"
      },
      {
        "astId": 11731,
        "contract": "contracts/Admin.sol:Admin",
        "label": "mainCharacterCache",
        "offset": 0,
        "slot": "1",
        "type": "t_mapping(t_uint16,t_address)"
      },
      {
        "astId": 11737,
        "contract": "contracts/Admin.sol:Admin",
        "label": "roleCache",
        "offset": 0,
        "slot": "2",
        "type": "t_mapping(t_address,t_mapping(t_uint16,t_bool))"
      },
      {
        "astId": 381,
        "contract": "contracts/Admin.sol:Admin",
        "label": "_owner",
        "offset": 0,
        "slot": "3",
        "type": "t_address"
      },
      {
        "astId": 2765,
        "contract": "contracts/Admin.sol:Admin",
        "label": "MFI",
        "offset": 0,
        "slot": "4",
        "type": "t_address"
      },
      {
        "astId": 2769,
        "contract": "contracts/Admin.sol:Admin",
        "label": "stakes",
        "offset": 0,
        "slot": "5",
        "type": "t_mapping(t_address,t_uint256)"
      },
      {
        "astId": 2771,
        "contract": "contracts/Admin.sol:Admin",
        "label": "totalStakes",
        "offset": 0,
        "slot": "6",
        "type": "t_uint256"
      },
      {
        "astId": 2775,
        "contract": "contracts/Admin.sol:Admin",
        "label": "claimIds",
        "offset": 0,
        "slot": "7",
        "type": "t_mapping(t_address,t_uint256)"
      },
      {
        "astId": 2777,
        "contract": "contracts/Admin.sol:Admin",
        "label": "feesPer10k",
        "offset": 0,
        "slot": "8",
        "type": "t_uint256"
      },
      {
        "astId": 2781,
        "contract": "contracts/Admin.sol:Admin",
        "label": "collectedFees",
        "offset": 0,
        "slot": "9",
        "type": "t_mapping(t_address,t_uint256)"
      },
      {
        "astId": 2784,
        "contract": "contracts/Admin.sol:Admin",
        "label": "maintenanceStakePerBlock",
        "offset": 0,
        "slot": "10",
        "type": "t_uint256"
      },
      {
        "astId": 2788,
        "contract": "contracts/Admin.sol:Admin",
        "label": "nextMaintenanceStaker",
        "offset": 0,
        "slot": "11",
        "type": "t_mapping(t_address,t_address)"
      },
      {
        "astId": 2794,
        "contract": "contracts/Admin.sol:Admin",
        "label": "maintenanceDelegateTo",
        "offset": 0,
        "slot": "12",
        "type": "t_mapping(t_address,t_mapping(t_address,t_bool))"
      },
      {
        "astId": 2796,
        "contract": "contracts/Admin.sol:Admin",
        "label": "currentMaintenanceStaker",
        "offset": 0,
        "slot": "13",
        "type": "t_address"
      },
      {
        "astId": 2798,
        "contract": "contracts/Admin.sol:Admin",
        "label": "prevMaintenanceStaker",
        "offset": 0,
        "slot": "14",
        "type": "t_address"
      },
      {
        "astId": 2800,
        "contract": "contracts/Admin.sol:Admin",
        "label": "currentMaintenanceStakerStartBlock",
        "offset": 0,
        "slot": "15",
        "type": "t_uint256"
      },
      {
        "astId": 2802,
        "contract": "contracts/Admin.sol:Admin",
        "label": "lockedMFI",
        "offset": 0,
        "slot": "16",
        "type": "t_address"
      }
    ],
    "types": {
      "t_address": {
        "encoding": "inplace",
        "label": "address",
        "numberOfBytes": "20"
      },
      "t_bool": {
        "encoding": "inplace",
        "label": "bool",
        "numberOfBytes": "1"
      },
      "t_contract(Roles)12117": {
        "encoding": "inplace",
        "label": "contract Roles",
        "numberOfBytes": "20"
      },
      "t_mapping(t_address,t_address)": {
        "encoding": "mapping",
        "key": "t_address",
        "label": "mapping(address => address)",
        "numberOfBytes": "32",
        "value": "t_address"
      },
      "t_mapping(t_address,t_bool)": {
        "encoding": "mapping",
        "key": "t_address",
        "label": "mapping(address => bool)",
        "numberOfBytes": "32",
        "value": "t_bool"
      },
      "t_mapping(t_address,t_mapping(t_address,t_bool))": {
        "encoding": "mapping",
        "key": "t_address",
        "label": "mapping(address => mapping(address => bool))",
        "numberOfBytes": "32",
        "value": "t_mapping(t_address,t_bool)"
      },
      "t_mapping(t_address,t_mapping(t_uint16,t_bool))": {
        "encoding": "mapping",
        "key": "t_address",
        "label": "mapping(address => mapping(uint16 => bool))",
        "numberOfBytes": "32",
        "value": "t_mapping(t_uint16,t_bool)"
      },
      "t_mapping(t_address,t_uint256)": {
        "encoding": "mapping",
        "key": "t_address",
        "label": "mapping(address => uint256)",
        "numberOfBytes": "32",
        "value": "t_uint256"
      },
      "t_mapping(t_uint16,t_address)": {
        "encoding": "mapping",
        "key": "t_uint16",
        "label": "mapping(uint16 => address)",
        "numberOfBytes": "32",
        "value": "t_address"
      },
      "t_mapping(t_uint16,t_bool)": {
        "encoding": "mapping",
        "key": "t_uint16",
        "label": "mapping(uint16 => bool)",
        "numberOfBytes": "32",
        "value": "t_bool"
      },
      "t_uint16": {
        "encoding": "inplace",
        "label": "uint16",
        "numberOfBytes": "2"
      },
      "t_uint256": {
        "encoding": "inplace",
        "label": "uint256",
        "numberOfBytes": "32"
      }
    }
  }
}