{
  "address": "0xfCB538c4b676a8D338c1FCD27bC54D6C0e40d954",
  "abi": [
    {
      "inputs": [
        {
          "internalType": "address",
          "name": "_MFI",
          "type": "address"
        },
        {
          "internalType": "address",
          "name": "_lockedMFI",
          "type": "address"
        },
        {
          "internalType": "address",
          "name": "lockedMFIDelegate",
          "type": "address"
        },
        {
          "internalType": "address",
          "name": "_roles",
          "type": "address"
        }
      ],
      "stateMutability": "nonpayable",
      "type": "constructor"
    },
    {
      "inputs": [],
      "name": "MFI",
      "outputs": [
        {
          "internalType": "address",
          "name": "",
          "type": "address"
        }
      ],
      "stateMutability": "view",
      "type": "function"
    },
    {
      "inputs": [
        {
          "internalType": "address",
          "name": "forStaker",
          "type": "address"
        },
        {
          "internalType": "address",
          "name": "delegate",
          "type": "address"
        }
      ],
      "name": "addDelegate",
      "outputs": [],
      "stateMutability": "nonpayable",
      "type": "function"
    },
    {
      "inputs": [],
      "name": "currentMaintenanceStaker",
      "outputs": [
        {
          "internalType": "address",
          "name": "",
          "type": "address"
        }
      ],
      "stateMutability": "view",
      "type": "function"
    },
    {
      "inputs": [],
      "name": "currentMaintenanceStakerStartBlock",
      "outputs": [
        {
          "internalType": "uint256",
          "name": "",
          "type": "uint256"
        }
      ],
      "stateMutability": "view",
      "type": "function"
    },
    {
      "inputs": [
        {
          "internalType": "uint256",
          "name": "amount",
          "type": "uint256"
        }
      ],
      "name": "depositMaintenanceStake",
      "outputs": [],
      "stateMutability": "nonpayable",
      "type": "function"
    },
    {
      "inputs": [
        {
          "internalType": "uint256",
          "name": "amount",
          "type": "uint256"
        }
      ],
      "name": "depositStake",
      "outputs": [],
      "stateMutability": "nonpayable",
      "type": "function"
    },
    {
      "inputs": [
        {
          "internalType": "address",
          "name": "staker",
          "type": "address"
        }
      ],
      "name": "getMaintenanceStakerStake",
      "outputs": [
        {
          "internalType": "uint256",
          "name": "",
          "type": "uint256"
        }
      ],
      "stateMutability": "view",
      "type": "function"
    },
    {
      "inputs": [],
      "name": "getUpdatedCurrentStaker",
      "outputs": [
        {
          "internalType": "address",
          "name": "",
          "type": "address"
        }
      ],
      "stateMutability": "nonpayable",
      "type": "function"
    },
    {
      "inputs": [
        {
          "internalType": "address",
          "name": "caller",
          "type": "address"
        }
      ],
      "name": "isAuthorizedStaker",
      "outputs": [
        {
          "internalType": "bool",
          "name": "isAuthorized",
          "type": "bool"
        }
      ],
      "stateMutability": "nonpayable",
      "type": "function"
    },
    {
      "inputs": [],
      "name": "lockedMFI",
      "outputs": [
        {
          "internalType": "address",
          "name": "",
          "type": "address"
        }
      ],
      "stateMutability": "view",
      "type": "function"
    },
    {
      "inputs": [
        {
          "internalType": "uint256",
          "name": "",
          "type": "uint256"
        }
      ],
      "name": "mainCharacterCache",
      "outputs": [
        {
          "internalType": "address",
          "name": "",
          "type": "address"
        }
      ],
      "stateMutability": "view",
      "type": "function"
    },
    {
      "inputs": [
        {
          "internalType": "address",
          "name": "",
          "type": "address"
        },
        {
          "internalType": "address",
          "name": "",
          "type": "address"
        }
      ],
      "name": "maintenanceDelegateTo",
      "outputs": [
        {
          "internalType": "bool",
          "name": "",
          "type": "bool"
        }
      ],
      "stateMutability": "view",
      "type": "function"
    },
    {
      "inputs": [],
      "name": "maintenanceStakePerBlock",
      "outputs": [
        {
          "internalType": "uint256",
          "name": "",
          "type": "uint256"
        }
      ],
      "stateMutability": "view",
      "type": "function"
    },
    {
      "inputs": [],
      "name": "mfiStakeTranche",
      "outputs": [
        {
          "internalType": "uint256",
          "name": "",
          "type": "uint256"
        }
      ],
      "stateMutability": "view",
      "type": "function"
    },
    {
      "inputs": [
        {
          "internalType": "address",
          "name": "",
          "type": "address"
        }
      ],
      "name": "nextMaintenanceStaker",
      "outputs": [
        {
          "internalType": "address",
          "name": "",
          "type": "address"
        }
      ],
      "stateMutability": "view",
      "type": "function"
    },
    {
      "inputs": [
        {
          "internalType": "address",
          "name": "maintainer",
          "type": "address"
        },
        {
          "internalType": "uint256",
          "name": "penalty",
          "type": "uint256"
        },
        {
          "internalType": "address",
          "name": "recipient",
          "type": "address"
        }
      ],
      "name": "penalizeMaintenanceStake",
      "outputs": [
        {
          "internalType": "uint256",
          "name": "stakeTaken",
          "type": "uint256"
        }
      ],
      "stateMutability": "nonpayable",
      "type": "function"
    },
    {
      "inputs": [],
      "name": "prevMaintenanceStaker",
      "outputs": [
        {
          "internalType": "address",
          "name": "",
          "type": "address"
        }
      ],
      "stateMutability": "view",
      "type": "function"
    },
    {
      "inputs": [
        {
          "internalType": "address",
          "name": "forStaker",
          "type": "address"
        },
        {
          "internalType": "address",
          "name": "delegate",
          "type": "address"
        }
      ],
      "name": "removeDelegate",
      "outputs": [],
      "stateMutability": "nonpayable",
      "type": "function"
    },
    {
      "inputs": [
        {
          "internalType": "address",
          "name": "",
          "type": "address"
        },
        {
          "internalType": "uint256",
          "name": "",
          "type": "uint256"
        }
      ],
      "name": "roleCache",
      "outputs": [
        {
          "internalType": "bool",
          "name": "",
          "type": "bool"
        }
      ],
      "stateMutability": "view",
      "type": "function"
    },
    {
      "inputs": [],
      "name": "roles",
      "outputs": [
        {
          "internalType": "contract Roles",
          "name": "",
          "type": "address"
        }
      ],
      "stateMutability": "view",
      "type": "function"
    },
    {
      "inputs": [
        {
          "internalType": "uint256",
          "name": "amount",
          "type": "uint256"
        }
      ],
      "name": "setMaintenanceStakePerBlock",
      "outputs": [],
      "stateMutability": "nonpayable",
      "type": "function"
    },
    {
      "inputs": [
        {
          "internalType": "address",
          "name": "",
          "type": "address"
        }
      ],
      "name": "stakes",
      "outputs": [
        {
          "internalType": "uint256",
          "name": "",
          "type": "uint256"
        }
      ],
      "stateMutability": "view",
      "type": "function"
    },
    {
      "inputs": [],
      "name": "totalStakes",
      "outputs": [
        {
          "internalType": "uint256",
          "name": "",
          "type": "uint256"
        }
      ],
      "stateMutability": "view",
      "type": "function"
    },
    {
      "inputs": [
        {
          "internalType": "uint256",
          "name": "role",
          "type": "uint256"
        }
      ],
      "name": "updateMainCharacterCache",
      "outputs": [],
      "stateMutability": "nonpayable",
      "type": "function"
    },
    {
      "inputs": [
        {
          "internalType": "uint256",
          "name": "role",
          "type": "uint256"
        },
        {
          "internalType": "address",
          "name": "contr",
          "type": "address"
        }
      ],
      "name": "updateRoleCache",
      "outputs": [],
      "stateMutability": "nonpayable",
      "type": "function"
    },
    {
      "inputs": [],
      "name": "viewCurrentMaintenanceStaker",
      "outputs": [
        {
          "internalType": "address",
          "name": "staker",
          "type": "address"
        },
        {
          "internalType": "uint256",
          "name": "startBlock",
          "type": "uint256"
        }
      ],
      "stateMutability": "view",
      "type": "function"
    },
    {
      "inputs": [
        {
          "internalType": "uint256",
          "name": "amount",
          "type": "uint256"
        }
      ],
      "name": "withdrawStake",
      "outputs": [],
      "stateMutability": "nonpayable",
      "type": "function"
    }
  ],
  "transactionHash": "0x31cb2ebd8b20b48763a549100551b4add992eae992305a0cf065622ae4097728",
  "args": [
    "0xAa4e3edb11AFa93c41db59842b29de64b72E355B",
    "0x6c8fbBf8E079246A92E760D440793f2f864a26b3",
    "0x23292e9BA8434e59E6BAC1907bA7425211c4DE27",
    "0x6a1d80534520A21D5Ab84323E6c3cD0Bd8411161"
  ],
  "solcInputHash": "9c0abba72bdb3593c439027ba4bca96c",
  "bytecode": "0x60e060405267d02ab486cedc00006004553480156200001d57600080fd5b5060405162001b9038038062001b90833981016040819052620000409162000149565b806001600160a01b038116620000a75760405162461bcd60e51b815260206004820152602260248201527f506c656173652070726f766964652076616c696420726f6c6573206164647265604482015261737360f01b606482015260840160405180910390fd5b6001600160601b0319606091821b811660805294811b851660a05283901b90931660c0526001600160a01b03918216600081815260056020908152604080832080546001600160a01b031990811686179091556007805482168617905560088054909116909417909355600681529181209290931690925290525043600955620001a5565b80516001600160a01b03811681146200014457600080fd5b919050565b600080600080608085870312156200015f578384fd5b6200016a856200012c565b93506200017a602086016200012c565b92506200018a604086016200012c565b91506200019a606086016200012c565b905092959194509250565b60805160601c60a05160601c60c05160601c6119736200021d6000396000818161025801528181610d7a0152610e090152600081816104b301528181610e3401528181611269015261143d0152600081816102fb0152818161064501528181610c1a015281816115d8015261167d01526119736000f3fe608060405234801561001057600080fd5b50600436106101b95760003560e01c80637a1a04df116100f9578063c3fff5d911610097578063e909ebfa11610071578063e909ebfa14610445578063e9c3f77d14610458578063e9f39e161461048e578063ed29c12b146104ae576101b9565b8063c3fff5d9146103e9578063cb82cc8f1461041f578063d8715ca714610432576101b9565b8063806cdada116100d3578063806cdada146103845780638bd4c6da146103a4578063b0411f46146103ac578063bf9befb1146103e0576101b9565b80637a1a04df146103305780637b23cbce1461035e5780637fbc953d14610371576101b9565b806316934fc411610166578063219f951d11610140578063219f951d146102d057806325d5971f146102e3578063392f5f64146102f6578063447d52ba1461031d576101b9565b806316934fc41461029f5780631a38de1d146102bf5780631aea9f52146102c7576101b9565b80630a45bc1b116101975780630a45bc1b146102295780630ad691501461024a578063152119d814610253576101b9565b8063020d308d146101be578063055cfe53146101d3578063071060a614610216575b600080fd5b6101d16101cc36600461172f565b6104d5565b005b6102016101e136600461172f565b600660209081526000928352604080842090915290825290205460ff1681565b60405190151581526020015b60405180910390f35b6101d16102243660046117f3565b610616565b61023c610237366004611792565b610727565b60405190815260200161020d565b61023c60045481565b61027a7f000000000000000000000000000000000000000000000000000000000000000081565b60405173ffffffffffffffffffffffffffffffffffffffff909116815260200161020d565b61023c6102ad3660046116f7565b60026020526000908152604090205481565b61027a610840565b61023c60095481565b6101d16102de3660046117f3565b6109de565b6101d16102f13660046117f3565b610b2d565b61027a7f000000000000000000000000000000000000000000000000000000000000000081565b6101d161032b366004611823565b610bce565b61020161033e366004611767565b600160209081526000928352604080842090915290825290205460ff1681565b61020161036c3660046116f7565b610cf7565b61023c61037f3660046116f7565b610d76565b60085461027a9073ffffffffffffffffffffffffffffffffffffffff1681565b61023c600181565b6103b4610eee565b6040805173ffffffffffffffffffffffffffffffffffffffff909316835260208301919091520161020d565b61023c60035481565b61027a6103f73660046116f7565b60056020526000908152604090205473ffffffffffffffffffffffffffffffffffffffff1681565b6101d161042d3660046117f3565b610f9c565b6101d16104403660046117f3565b610fa6565b6101d161045336600461172f565b611058565b61027a6104663660046117f3565b60006020819052908152604090205473ffffffffffffffffffffffffffffffffffffffff1681565b60075461027a9073ffffffffffffffffffffffffffffffffffffffff1681565b61027a7f000000000000000000000000000000000000000000000000000000000000000081565b3373ffffffffffffffffffffffffffffffffffffffff83161480610529575073ffffffffffffffffffffffffffffffffffffffff8216600090815260066020908152604080832033845290915290205460ff165b6105ba576040517f08c379a000000000000000000000000000000000000000000000000000000000815260206004820152603060248201527f6d73672e73656e646572206e6f7420617574686f72697a656420746f2064656c60448201527f656761746520666f72207374616b65720000000000000000000000000000000060648201526084015b60405180910390fd5b73ffffffffffffffffffffffffffffffffffffffff9182166000908152600660209081526040808320939094168252919091522080547fffffffffffffffffffffffffffffffffffffffffffffffffffffffffffffff00169055565b6040517fb4ed0b6d000000000000000000000000000000000000000000000000000000008152600481018290527f000000000000000000000000000000000000000000000000000000000000000073ffffffffffffffffffffffffffffffffffffffff169063b4ed0b6d9060240160206040518083038186803b15801561069c57600080fd5b505afa1580156106b0573d6000803e3d6000fd5b505050506040513d601f19601f820116820180604052508101906106d49190611713565b60009182526020829052604090912080547fffffffffffffffffffffffff00000000000000000000000000000000000000001673ffffffffffffffffffffffffffffffffffffffff909216919091179055565b336000908152600160209081526040808320600a845290915281205460ff166107d2576040517f08c379a000000000000000000000000000000000000000000000000000000000815260206004820152602d60248201527f6d73672e73656e646572206e6f7420617574686f72697a656420746f2070656e60448201527f616c697a65207374616b6572730000000000000000000000000000000000000060648201526084016105b1565b73ffffffffffffffffffffffffffffffffffffffff841660009081526002602052604090205483111561082b575073ffffffffffffffffffffffffffffffffffffffff831660009081526002602052604090205461082e565b50815b610839848284611197565b9392505050565b60075460009081906108679073ffffffffffffffffffffffffffffffffffffffff16610d76565b90505b806004546009544361087c91906118d5565b6108869190611898565b106109c057806004541115610913576007805473ffffffffffffffffffffffffffffffffffffffff908116600090815260056020526040808220546008548416835281832080549185167fffffffffffffffffffffffff00000000000000000000000000000000000000009283168117909155855490941683529120805482169055825416179055610997565b600454610920908261185f565b600960008282546109319190611847565b909155505060078054600880547fffffffffffffffffffffffff000000000000000000000000000000000000000090811673ffffffffffffffffffffffffffffffffffffffff808516918217909355600090815260056020526040902054921691161790555b6007546109b99073ffffffffffffffffffffffffffffffffffffffff16610d76565b905061086a565b505060075473ffffffffffffffffffffffffffffffffffffffff1690565b600454336000908152600260205260409020546109fb9083611847565b1015610a89576040517f08c379a000000000000000000000000000000000000000000000000000000000815260206004820152602960248201527f496e73756666696369656e74207374616b6520746f2063616c6c206576656e2060448201527f6f6e6520626c6f636b000000000000000000000000000000000000000000000060648201526084016105b1565b610a9333826113b6565b3360009081526005602052604090205473ffffffffffffffffffffffffffffffffffffffff16610b2a57610ac5610840565b33600081815260056020526040808220805473ffffffffffffffffffffffffffffffffffffffff9586167fffffffffffffffffffffffff0000000000000000000000000000000000000000918216179091556008549094168252902080549092161790555b50565b610b3633610cf7565b15610bc3576040517f08c379a000000000000000000000000000000000000000000000000000000000815260206004820152603160248201527f596f752063616e2774207769746864726177207768696c6520796f752772652060448201527f617574686f72697a6564207374616b657200000000000000000000000000000060648201526084016105b1565b610b2a338233611197565b6040517f93552a3d0000000000000000000000000000000000000000000000000000000081526004810183905273ffffffffffffffffffffffffffffffffffffffff82811660248301527f000000000000000000000000000000000000000000000000000000000000000016906393552a3d9060440160206040518083038186803b158015610c5c57600080fd5b505afa158015610c70573d6000803e3d6000fd5b505050506040513d601f19601f82011682018060405250810190610c9491906117d3565b73ffffffffffffffffffffffffffffffffffffffff9190911660009081526001602090815260408083209483529390529190912080547fffffffffffffffffffffffffffffffffffffffffffffffffffffffffffffff0016911515919091179055565b600080610d02610840565b90508273ffffffffffffffffffffffffffffffffffffffff168173ffffffffffffffffffffffffffffffffffffffff161480610839575073ffffffffffffffffffffffffffffffffffffffff80821660009081526006602090815260408083209387168352929052205460ff169392505050565b60007f000000000000000000000000000000000000000000000000000000000000000073ffffffffffffffffffffffffffffffffffffffff168273ffffffffffffffffffffffffffffffffffffffff161415610ec1576040517f70a0823100000000000000000000000000000000000000000000000000000000815273ffffffffffffffffffffffffffffffffffffffff7f0000000000000000000000000000000000000000000000000000000000000000811660048301526002917f0000000000000000000000000000000000000000000000000000000000000000909116906370a082319060240160206040518083038186803b158015610e7857600080fd5b505afa158015610e8c573d6000803e3d6000fd5b505050506040513d601f19601f82011682018060405250810190610eb0919061180b565b610eba919061185f565b9050610ee9565b5073ffffffffffffffffffffffffffffffffffffffff81166000908152600260205260409020545b919050565b60075473ffffffffffffffffffffffffffffffffffffffff16600080610f1383610d76565b905060095491505b6004548190610f2a84436118d5565b610f349190611898565b10610f97576004548110610f5c57600454610f4f908261185f565b610f599083611847565b91505b73ffffffffffffffffffffffffffffffffffffffff92831660009081526005602052604090205490921691610f9083610d76565b9050610f1b565b509091565b610b2a33826113b6565b33610faf6115d4565b73ffffffffffffffffffffffffffffffffffffffff161480610fed575033610fd5611679565b73ffffffffffffffffffffffffffffffffffffffff16145b611053576040517f08c379a000000000000000000000000000000000000000000000000000000000815260206004820152601e60248201527f526f6c65733a2063616c6c6572206973206e6f7420746865206f776e6572000060448201526064016105b1565b600455565b3373ffffffffffffffffffffffffffffffffffffffff831614806110ac575073ffffffffffffffffffffffffffffffffffffffff8216600090815260066020908152604080832033845290915290205460ff165b611138576040517f08c379a000000000000000000000000000000000000000000000000000000000815260206004820152603060248201527f6d73672e73656e646572206e6f7420617574686f72697a656420746f2064656c60448201527f656761746520666f72207374616b65720000000000000000000000000000000060648201526084016105b1565b73ffffffffffffffffffffffffffffffffffffffff9182166000908152600660209081526040808320939094168252919091522080547fffffffffffffffffffffffffffffffffffffffffffffffffffffffffffffff00166001179055565b73ffffffffffffffffffffffffffffffffffffffff8316600090815260026020526040812080548492906111cc9084906118d5565b9250508190555081600360008282546111e591906118d5565b9091555050606560009081526020527f4a7203f705e51df4a56139a9b86b4a0970bed7ab7a3446eaffe2289989c1645c5473ffffffffffffffffffffffffffffffffffffffff166040517fd9caed1200000000000000000000000000000000000000000000000000000000815273ffffffffffffffffffffffffffffffffffffffff7f000000000000000000000000000000000000000000000000000000000000000081166004830152838116602483015260448201859052919091169063d9caed1290606401600060405180830381600087803b1580156112c657600080fd5b505af11580156112da573d6000803e3d6000fd5b5050606c600090815260205250507f3c1fcba39712202dbd455253568bf32dd0a3bedb5c3ff0de4b22d4e45e50dc925473ffffffffffffffffffffffffffffffffffffffff166040517fc6c9faa10000000000000000000000000000000000000000000000000000000081526001600482015273ffffffffffffffffffffffffffffffffffffffff858116602483015260448201859052919091169063c6c9faa190606401600060405180830381600087803b15801561139957600080fd5b505af11580156113ad573d6000803e3d6000fd5b50505050505050565b606560009081526020527f4a7203f705e51df4a56139a9b86b4a0970bed7ab7a3446eaffe2289989c1645c5473ffffffffffffffffffffffffffffffffffffffff166040517fb3db428b00000000000000000000000000000000000000000000000000000000815273ffffffffffffffffffffffffffffffffffffffff84811660048301527f00000000000000000000000000000000000000000000000000000000000000008116602483015260448201849052919091169063b3db428b90606401600060405180830381600087803b15801561149257600080fd5b505af11580156114a6573d6000803e3d6000fd5b5050505073ffffffffffffffffffffffffffffffffffffffff8216600090815260026020526040812080548392906114df908490611847565b9250508190555080600360008282546114f89190611847565b9091555050606c60009081526020527f3c1fcba39712202dbd455253568bf32dd0a3bedb5c3ff0de4b22d4e45e50dc925473ffffffffffffffffffffffffffffffffffffffff166040517f2b5de2860000000000000000000000000000000000000000000000000000000081526001600482015273ffffffffffffffffffffffffffffffffffffffff8481166024830152604482018490529190911690632b5de28690606401600060405180830381600087803b1580156115b857600080fd5b505af11580156115cc573d6000803e3d6000fd5b505050505050565b60007f000000000000000000000000000000000000000000000000000000000000000073ffffffffffffffffffffffffffffffffffffffff16638da5cb5b6040518163ffffffff1660e01b815260040160206040518083038186803b15801561163c57600080fd5b505afa158015611650573d6000803e3d6000fd5b505050506040513d601f19601f820116820180604052508101906116749190611713565b905090565b60007f000000000000000000000000000000000000000000000000000000000000000073ffffffffffffffffffffffffffffffffffffffff1663c34c08e56040518163ffffffff1660e01b8152600401602060405180830381600087803b1580156116e357600080fd5b505af1158015611650573d6000803e3d6000fd5b600060208284031215611708578081fd5b81356108398161191b565b600060208284031215611724578081fd5b81516108398161191b565b60008060408385031215611741578081fd5b823561174c8161191b565b9150602083013561175c8161191b565b809150509250929050565b60008060408385031215611779578182fd5b82356117848161191b565b946020939093013593505050565b6000806000606084860312156117a6578081fd5b83356117b18161191b565b92506020840135915060408401356117c88161191b565b809150509250925092565b6000602082840312156117e4578081fd5b81518015158114610839578182fd5b600060208284031215611804578081fd5b5035919050565b60006020828403121561181c578081fd5b5051919050565b60008060408385031215611835578182fd5b82359150602083013561175c8161191b565b6000821982111561185a5761185a6118ec565b500190565b600082611893577f4e487b710000000000000000000000000000000000000000000000000000000081526012600452602481fd5b500490565b6000817fffffffffffffffffffffffffffffffffffffffffffffffffffffffffffffffff04831182151516156118d0576118d06118ec565b500290565b6000828210156118e7576118e76118ec565b500390565b7f4e487b7100000000000000000000000000000000000000000000000000000000600052601160045260246000fd5b73ffffffffffffffffffffffffffffffffffffffff81168114610b2a57600080fdfea2646970667358221220acb6b2326c536f5159acb3b03434e6088bbcb27babf1992ccb882873bf53fdae64736f6c63430008030033",
  "devdoc": {
    "kind": "dev",
    "methods": {},
    "title": "Here we support staking for MFI incentives as well as staking to perform the maintenance role.",
    "version": 1
  },
  "userdoc": {
    "kind": "user",
    "methods": {
      "MFI()": {
        "notice": "Margenswap (MFI) token address"
      },
      "addDelegate(address,address)": {
        "notice": "Add a delegate for staker"
      },
      "depositMaintenanceStake(uint256)": {
        "notice": "Deposit maintenance stake"
      },
      "depositStake(uint256)": {
        "notice": "Deposit a stake for sender"
      },
      "penalizeMaintenanceStake(address,uint256,address)": {
        "notice": "Penalize a staker"
      },
      "removeDelegate(address,address)": {
        "notice": "Remove a delegate for staker"
      },
      "setMaintenanceStakePerBlock(uint256)": {
        "notice": "Maintence stake setter"
      },
      "withdrawStake(uint256)": {
        "notice": "Withdraw stake for sender"
      }
    },
    "version": 1
  },
  "storageLayout": {
    "storage": [
      {
        "astId": 11639,
        "contract": "contracts/Admin.sol:Admin",
        "label": "mainCharacterCache",
        "offset": 0,
        "slot": "0",
        "type": "t_mapping(t_uint256,t_address)"
      },
      {
        "astId": 11645,
        "contract": "contracts/Admin.sol:Admin",
        "label": "roleCache",
        "offset": 0,
        "slot": "1",
        "type": "t_mapping(t_address,t_mapping(t_uint256,t_bool))"
      },
      {
        "astId": 1052,
        "contract": "contracts/Admin.sol:Admin",
        "label": "stakes",
        "offset": 0,
        "slot": "2",
        "type": "t_mapping(t_address,t_uint256)"
      },
      {
        "astId": 1054,
        "contract": "contracts/Admin.sol:Admin",
        "label": "totalStakes",
        "offset": 0,
        "slot": "3",
        "type": "t_uint256"
      },
      {
        "astId": 1060,
        "contract": "contracts/Admin.sol:Admin",
        "label": "maintenanceStakePerBlock",
        "offset": 0,
        "slot": "4",
        "type": "t_uint256"
      },
      {
        "astId": 1064,
        "contract": "contracts/Admin.sol:Admin",
        "label": "nextMaintenanceStaker",
        "offset": 0,
        "slot": "5",
        "type": "t_mapping(t_address,t_address)"
      },
      {
        "astId": 1070,
        "contract": "contracts/Admin.sol:Admin",
        "label": "maintenanceDelegateTo",
        "offset": 0,
        "slot": "6",
        "type": "t_mapping(t_address,t_mapping(t_address,t_bool))"
      },
      {
        "astId": 1072,
        "contract": "contracts/Admin.sol:Admin",
        "label": "currentMaintenanceStaker",
        "offset": 0,
        "slot": "7",
        "type": "t_address"
      },
      {
        "astId": 1074,
        "contract": "contracts/Admin.sol:Admin",
        "label": "prevMaintenanceStaker",
        "offset": 0,
        "slot": "8",
        "type": "t_address"
      },
      {
        "astId": 1076,
        "contract": "contracts/Admin.sol:Admin",
        "label": "currentMaintenanceStakerStartBlock",
        "offset": 0,
        "slot": "9",
        "type": "t_uint256"
      }
    ],
    "types": {
      "t_address": {
        "encoding": "inplace",
        "label": "address",
        "numberOfBytes": "20"
      },
      "t_bool": {
        "encoding": "inplace",
        "label": "bool",
        "numberOfBytes": "1"
      },
      "t_mapping(t_address,t_address)": {
        "encoding": "mapping",
        "key": "t_address",
        "label": "mapping(address => address)",
        "numberOfBytes": "32",
        "value": "t_address"
      },
      "t_mapping(t_address,t_bool)": {
        "encoding": "mapping",
        "key": "t_address",
        "label": "mapping(address => bool)",
        "numberOfBytes": "32",
        "value": "t_bool"
      },
      "t_mapping(t_address,t_mapping(t_address,t_bool))": {
        "encoding": "mapping",
        "key": "t_address",
        "label": "mapping(address => mapping(address => bool))",
        "numberOfBytes": "32",
        "value": "t_mapping(t_address,t_bool)"
      },
      "t_mapping(t_address,t_mapping(t_uint256,t_bool))": {
        "encoding": "mapping",
        "key": "t_address",
        "label": "mapping(address => mapping(uint256 => bool))",
        "numberOfBytes": "32",
        "value": "t_mapping(t_uint256,t_bool)"
      },
      "t_mapping(t_address,t_uint256)": {
        "encoding": "mapping",
        "key": "t_address",
        "label": "mapping(address => uint256)",
        "numberOfBytes": "32",
        "value": "t_uint256"
      },
      "t_mapping(t_uint256,t_address)": {
        "encoding": "mapping",
        "key": "t_uint256",
        "label": "mapping(uint256 => address)",
        "numberOfBytes": "32",
        "value": "t_address"
      },
      "t_mapping(t_uint256,t_bool)": {
        "encoding": "mapping",
        "key": "t_uint256",
        "label": "mapping(uint256 => bool)",
        "numberOfBytes": "32",
        "value": "t_bool"
      },
      "t_uint256": {
        "encoding": "inplace",
        "label": "uint256",
        "numberOfBytes": "32"
      }
    }
  }
}