{
  "address": "0xe3C7453E1608CEFB8c1c17F44c263F5DA01AeB06",
  "abi": [
    {
      "inputs": [
        {
          "internalType": "uint256",
          "name": "_feesPer10k",
          "type": "uint256"
        },
        {
          "internalType": "address",
          "name": "_MFI",
          "type": "address"
        },
        {
          "internalType": "address",
          "name": "_lockedMFI",
          "type": "address"
        },
        {
          "internalType": "address",
          "name": "lockedMFIDelegate",
          "type": "address"
        },
        {
          "internalType": "address",
          "name": "_roles",
          "type": "address"
        }
      ],
      "stateMutability": "nonpayable",
      "type": "constructor"
    },
    {
      "anonymous": false,
      "inputs": [
        {
          "indexed": true,
          "internalType": "address",
          "name": "previousOwner",
          "type": "address"
        },
        {
          "indexed": true,
          "internalType": "address",
          "name": "newOwner",
          "type": "address"
        }
      ],
      "name": "OwnershipTransferred",
      "type": "event"
    },
    {
      "inputs": [],
      "name": "MFI",
      "outputs": [
        {
          "internalType": "address",
          "name": "",
          "type": "address"
        }
      ],
      "stateMutability": "view",
      "type": "function"
    },
    {
      "inputs": [
        {
          "internalType": "address",
          "name": "forStaker",
          "type": "address"
        },
        {
          "internalType": "address",
          "name": "delegate",
          "type": "address"
        }
      ],
      "name": "addDelegate",
      "outputs": [],
      "stateMutability": "nonpayable",
      "type": "function"
    },
    {
      "inputs": [
        {
          "internalType": "address",
          "name": "",
          "type": "address"
        }
      ],
      "name": "claimIds",
      "outputs": [
        {
          "internalType": "uint256",
          "name": "",
          "type": "uint256"
        }
      ],
      "stateMutability": "view",
      "type": "function"
    },
    {
      "inputs": [
        {
          "internalType": "address",
          "name": "",
          "type": "address"
        }
      ],
      "name": "collectedFees",
      "outputs": [
        {
          "internalType": "uint256",
          "name": "",
          "type": "uint256"
        }
      ],
      "stateMutability": "view",
      "type": "function"
    },
    {
      "inputs": [],
      "name": "currentMaintenanceStaker",
      "outputs": [
        {
          "internalType": "address",
          "name": "",
          "type": "address"
        }
      ],
      "stateMutability": "view",
      "type": "function"
    },
    {
      "inputs": [],
      "name": "currentMaintenanceStakerStartBlock",
      "outputs": [
        {
          "internalType": "uint256",
          "name": "",
          "type": "uint256"
        }
      ],
      "stateMutability": "view",
      "type": "function"
    },
    {
      "inputs": [
        {
          "internalType": "uint256",
          "name": "amount",
          "type": "uint256"
        }
      ],
      "name": "depositMaintenanceStake",
      "outputs": [],
      "stateMutability": "nonpayable",
      "type": "function"
    },
    {
      "inputs": [
        {
          "internalType": "uint256",
          "name": "amount",
          "type": "uint256"
        }
      ],
      "name": "depositStake",
      "outputs": [],
      "stateMutability": "nonpayable",
      "type": "function"
    },
    {
      "inputs": [],
      "name": "feesPer10k",
      "outputs": [
        {
          "internalType": "uint256",
          "name": "",
          "type": "uint256"
        }
      ],
      "stateMutability": "view",
      "type": "function"
    },
    {
      "inputs": [
        {
          "internalType": "address",
          "name": "staker",
          "type": "address"
        }
      ],
      "name": "getMaintenanceStakerStake",
      "outputs": [
        {
          "internalType": "uint256",
          "name": "",
          "type": "uint256"
        }
      ],
      "stateMutability": "view",
      "type": "function"
    },
    {
      "inputs": [],
      "name": "getUpdatedCurrentStaker",
      "outputs": [
        {
          "internalType": "address",
          "name": "",
          "type": "address"
        }
      ],
      "stateMutability": "nonpayable",
      "type": "function"
    },
    {
      "inputs": [
        {
          "internalType": "address",
          "name": "caller",
          "type": "address"
        }
      ],
      "name": "isAuthorizedStaker",
      "outputs": [
        {
          "internalType": "bool",
          "name": "isAuthorized",
          "type": "bool"
        }
      ],
      "stateMutability": "nonpayable",
      "type": "function"
    },
    {
      "inputs": [],
      "name": "lockedMFI",
      "outputs": [
        {
          "internalType": "address",
          "name": "",
          "type": "address"
        }
      ],
      "stateMutability": "view",
      "type": "function"
    },
    {
      "inputs": [
        {
          "internalType": "uint256",
          "name": "",
          "type": "uint256"
        }
      ],
      "name": "mainCharacterCache",
      "outputs": [
        {
          "internalType": "address",
          "name": "",
          "type": "address"
        }
      ],
      "stateMutability": "view",
      "type": "function"
    },
    {
      "inputs": [
        {
          "internalType": "address",
          "name": "",
          "type": "address"
        },
        {
          "internalType": "address",
          "name": "",
          "type": "address"
        }
      ],
      "name": "maintenanceDelegateTo",
      "outputs": [
        {
          "internalType": "bool",
          "name": "",
          "type": "bool"
        }
      ],
      "stateMutability": "view",
      "type": "function"
    },
    {
      "inputs": [],
      "name": "maintenanceStakePerBlock",
      "outputs": [
        {
          "internalType": "uint256",
          "name": "",
          "type": "uint256"
        }
      ],
      "stateMutability": "view",
      "type": "function"
    },
    {
      "inputs": [
        {
          "internalType": "address",
          "name": "",
          "type": "address"
        }
      ],
      "name": "nextMaintenanceStaker",
      "outputs": [
        {
          "internalType": "address",
          "name": "",
          "type": "address"
        }
      ],
      "stateMutability": "view",
      "type": "function"
    },
    {
      "inputs": [],
      "name": "owner",
      "outputs": [
        {
          "internalType": "address",
          "name": "",
          "type": "address"
        }
      ],
      "stateMutability": "view",
      "type": "function"
    },
    {
      "inputs": [
        {
          "internalType": "address",
          "name": "maintainer",
          "type": "address"
        },
        {
          "internalType": "uint256",
          "name": "penalty",
          "type": "uint256"
        },
        {
          "internalType": "address",
          "name": "recipient",
          "type": "address"
        }
      ],
      "name": "penalizeMaintenanceStake",
      "outputs": [
        {
          "internalType": "uint256",
          "name": "stakeTaken",
          "type": "uint256"
        }
      ],
      "stateMutability": "nonpayable",
      "type": "function"
    },
    {
      "inputs": [],
      "name": "prevMaintenanceStaker",
      "outputs": [
        {
          "internalType": "address",
          "name": "",
          "type": "address"
        }
      ],
      "stateMutability": "view",
      "type": "function"
    },
    {
      "inputs": [
        {
          "internalType": "address",
          "name": "forStaker",
          "type": "address"
        },
        {
          "internalType": "address",
          "name": "delegate",
          "type": "address"
        }
      ],
      "name": "removeDelegate",
      "outputs": [],
      "stateMutability": "nonpayable",
      "type": "function"
    },
    {
      "inputs": [],
      "name": "renounceOwnership",
      "outputs": [],
      "stateMutability": "nonpayable",
      "type": "function"
    },
    {
      "inputs": [
        {
          "internalType": "address",
          "name": "",
          "type": "address"
        },
        {
          "internalType": "uint256",
          "name": "",
          "type": "uint256"
        }
      ],
      "name": "roleCache",
      "outputs": [
        {
          "internalType": "bool",
          "name": "",
          "type": "bool"
        }
      ],
      "stateMutability": "view",
      "type": "function"
    },
    {
      "inputs": [],
      "name": "roles",
      "outputs": [
        {
          "internalType": "contract Roles",
          "name": "",
          "type": "address"
        }
      ],
      "stateMutability": "view",
      "type": "function"
    },
    {
      "inputs": [
        {
          "internalType": "uint256",
          "name": "amount",
          "type": "uint256"
        }
      ],
      "name": "setMaintenanceStakePerBlock",
      "outputs": [],
      "stateMutability": "nonpayable",
      "type": "function"
    },
    {
      "inputs": [
        {
          "internalType": "address",
          "name": "",
          "type": "address"
        }
      ],
      "name": "stakes",
      "outputs": [
        {
          "internalType": "uint256",
          "name": "",
          "type": "uint256"
        }
      ],
      "stateMutability": "view",
      "type": "function"
    },
    {
      "inputs": [
        {
          "internalType": "address",
          "name": "token",
          "type": "address"
        },
        {
          "internalType": "uint256",
          "name": "amount",
          "type": "uint256"
        }
      ],
      "name": "takeFeesFromInput",
      "outputs": [
        {
          "internalType": "uint256",
          "name": "fees",
          "type": "uint256"
        }
      ],
      "stateMutability": "nonpayable",
      "type": "function"
    },
    {
      "inputs": [
        {
          "internalType": "address",
          "name": "token",
          "type": "address"
        },
        {
          "internalType": "uint256",
          "name": "amount",
          "type": "uint256"
        }
      ],
      "name": "takeFeesFromOutput",
      "outputs": [
        {
          "internalType": "uint256",
          "name": "fees",
          "type": "uint256"
        }
      ],
      "stateMutability": "nonpayable",
      "type": "function"
    },
    {
      "inputs": [],
      "name": "totalStakes",
      "outputs": [
        {
          "internalType": "uint256",
          "name": "",
          "type": "uint256"
        }
      ],
      "stateMutability": "view",
      "type": "function"
    },
    {
      "inputs": [
        {
          "internalType": "address",
          "name": "newOwner",
          "type": "address"
        }
      ],
      "name": "transferOwnership",
      "outputs": [],
      "stateMutability": "nonpayable",
      "type": "function"
    },
    {
      "inputs": [
        {
          "internalType": "uint256",
          "name": "role",
          "type": "uint256"
        }
      ],
      "name": "updateMainCharacterCache",
      "outputs": [],
      "stateMutability": "nonpayable",
      "type": "function"
    },
    {
      "inputs": [
        {
          "internalType": "uint256",
          "name": "role",
          "type": "uint256"
        },
        {
          "internalType": "address",
          "name": "contr",
          "type": "address"
        }
      ],
      "name": "updateRoleCache",
      "outputs": [],
      "stateMutability": "nonpayable",
      "type": "function"
    },
    {
      "inputs": [],
      "name": "viewCurrentMaintenanceStaker",
      "outputs": [
        {
          "internalType": "address",
          "name": "staker",
          "type": "address"
        },
        {
          "internalType": "uint256",
          "name": "startBlock",
          "type": "uint256"
        }
      ],
      "stateMutability": "view",
      "type": "function"
    },
    {
      "inputs": [
        {
          "internalType": "uint256",
          "name": "amount",
          "type": "uint256"
        }
      ],
      "name": "withdrawStake",
      "outputs": [],
      "stateMutability": "nonpayable",
      "type": "function"
    }
  ],
  "transactionHash": "0x7c14c7bff1048a19b8746b3125282e1d4586bafa1905815d7efc51094d60de92",
  "args": [
    10,
    "0xAa4e3edb11AFa93c41db59842b29de64b72E355B",
    "0x6c8fbBf8E079246A92E760D440793f2f864a26b3",
    "0x23292e9BA8434e59E6BAC1907bA7425211c4DE27",
    "0xC95531a7f6C57456718BCd69a5f64829C7973f11"
  ],
  "solcInputHash": "ec45310c1ebd228212cbc01f9840ea7e",
  "bytecode": "0x610100604052678ac7230489e800006007553480156200001e57600080fd5b50604051620024233803806200242383398101604081905262000041916200018f565b806001600160a01b038116620000745760405162461bcd60e51b81526004016200006b90620001f5565b60405180910390fd5b60601b6001600160601b0319166080526000620000906200016e565b600280546001600160a01b0319166001600160a01b038316908117909155604051919250906000907f8be0079c531659141344cd1fd0a4f28419497f9722a3daafe3b4186f6b6457e0908290a350506001600160601b0319606093841b811660a05260c094909452670de0b6b3a76400006007559181901b90921660e0526001600160a01b03918216600081815260086020908152604080832080546001600160a01b03199081168617909155600a8054821686179055600b80549091169094179093556009815291812092909316909252905243600c5562000237565b3390565b80516001600160a01b03811681146200018a57600080fd5b919050565b600080600080600060a08688031215620001a7578081fd5b85519450620001b96020870162000172565b9350620001c96040870162000172565b9250620001d96060870162000172565b9150620001e96080870162000172565b90509295509295909350565b60208082526022908201527f506c656173652070726f766964652076616c696420726f6c6573206164647265604082015261737360f01b606082015260800190565b60805160601c60a05160601c60c05160e05160601c61215c620002c76000396000818161073d01528181610d5f0152610e1e015260008181610c9a015281816110780152818161145b0152611488015260008181610df1015281816112a5015281816115f301526118040152600081816105ae01528181610a6d01528181610acc01526114ec015261215c6000f3fe608060405234801561001057600080fd5b50600436106102265760003560e01c80637b23cbce1161012a578063d7c82c4f116100bd578063e9c3f77d1161008c578063ed29c12b11610071578063ed29c12b14610434578063f2fde38b1461043c578063fa8b2f6a1461044f57610226565b8063e9c3f77d14610419578063e9f39e161461042c57610226565b8063d7c82c4f146103cd578063d8715ca7146103e0578063dc5c66f9146103f3578063e909ebfa1461040657610226565b8063b0411f46116100f9578063b0411f4614610389578063bf9befb11461039f578063c3fff5d9146103a7578063cb82cc8f146103ba57610226565b80637b23cbce146103535780637fbc953d14610366578063806cdada146103795780638da5cb5b1461038157610226565b80631aea9f52116101bd578063392f5f641161018c578063715018a611610171578063715018a61461033057806371c3e2ac146103385780637a1a04df1461034057610226565b8063392f5f6414610315578063447d52ba1461031d57610226565b80631aea9f52146102d45780631cead9a7146102dc578063219f951d146102ef57806325d5971f1461030257610226565b80630ad69150116101f95780630ad691501461029c578063152119d8146102a457806316934fc4146102b95780631a38de1d146102cc57610226565b8063020d308d1461022b578063055cfe5314610240578063071060a6146102695780630a45bc1b1461027c575b600080fd5b61023e610239366004611b95565b610462565b005b61025361024e366004611b95565b610551565b6040516102609190611d25565b60405180910390f35b61023e610277366004611c59565b610571565b61028f61028a366004611bf8565b610686565b6040516102609190612003565b61028f610735565b6102ac61073b565b6040516102609190611cad565b61028f6102c7366004611b5d565b61075f565b6102ac610771565b61028f61090f565b61028f6102ea366004611b5d565b610915565b61023e6102fd366004611c59565b610927565b61023e610310366004611c59565b610a20565b6102ac610a6b565b61023e61032b366004611c89565b610a8f565b61023e610bb6565b61028f610c98565b61025361034e366004611bcd565b610cbc565b610253610361366004611b5d565b610cdc565b61028f610374366004611b5d565b610d5b565b6102ac610ed4565b6102ac610ef0565b610391610f0c565b604051610260929190611cff565b61028f610ff6565b6102ac6103b5366004611b5d565b610ffc565b61023e6103c8366004611c59565b611024565b61028f6103db366004611bcd565b61102e565b61023e6103ee366004611c59565b6110ec565b61028f610401366004611b5d565b611164565b61023e610414366004611b95565b611176565b6102ac610427366004611c59565b61125f565b6102ac611287565b6102ac6112a3565b61023e61044a366004611b5d565b6112c7565b61028f61045d366004611bcd565b611415565b3373ffffffffffffffffffffffffffffffffffffffff831614806104b6575073ffffffffffffffffffffffffffffffffffffffff8216600090815260096020908152604080832033845290915290205460ff165b6104f5576040517f08c379a00000000000000000000000000000000000000000000000000000000081526004016104ec90611ea6565b60405180910390fd5b73ffffffffffffffffffffffffffffffffffffffff9182166000908152600960209081526040808320939094168252919091522080547fffffffffffffffffffffffffffffffffffffffffffffffffffffffffffffff00169055565b600960209081526000928352604080842090915290825290205460ff1681565b6040517fb4ed0b6d00000000000000000000000000000000000000000000000000000000815273ffffffffffffffffffffffffffffffffffffffff7f0000000000000000000000000000000000000000000000000000000000000000169063b4ed0b6d906105e3908490600401612003565b60206040518083038186803b1580156105fb57600080fd5b505afa15801561060f573d6000803e3d6000fd5b505050506040513d601f19601f820116820180604052508101906106339190611b79565b60009182526020829052604090912080547fffffffffffffffffffffffff00000000000000000000000000000000000000001673ffffffffffffffffffffffffffffffffffffffff909216919091179055565b6000610691336114ac565b6106c7576040517f08c379a00000000000000000000000000000000000000000000000000000000081526004016104ec90611d8f565b73ffffffffffffffffffffffffffffffffffffffff8416600090815260036020526040902054831115610720575073ffffffffffffffffffffffffffffffffffffffff8316600090815260036020526040902054610723565b50815b61072e84828461157a565b9392505050565b60075481565b7f000000000000000000000000000000000000000000000000000000000000000081565b60036020526000908152604090205481565b600a5460009081906107989073ffffffffffffffffffffffffffffffffffffffff16610d5b565b90505b80600754600c54436107ad91906120be565b6107b79190612081565b106108f15780600754111561084457600a805473ffffffffffffffffffffffffffffffffffffffff90811660009081526008602052604080822054600b548416835281832080549185167fffffffffffffffffffffffff000000000000000000000000000000000000000092831681179091558554909416835291208054821690558254161790556108c8565b6007546108519082612048565b600c60008282546108629190612030565b9091555050600a8054600b80547fffffffffffffffffffffffff000000000000000000000000000000000000000090811673ffffffffffffffffffffffffffffffffffffffff808516918217909355600090815260086020526040902054921691161790555b600a546108ea9073ffffffffffffffffffffffffffffffffffffffff16610d5b565b905061079b565b5050600a5473ffffffffffffffffffffffffffffffffffffffff1690565b600c5481565b60066020526000908152604090205481565b600754336000908152600360205260409020546109449083612030565b101561097c576040517f08c379a00000000000000000000000000000000000000000000000000000000081526004016104ec90611e49565b61098633826117de565b3360009081526008602052604090205473ffffffffffffffffffffffffffffffffffffffff16610a1d576109b8610771565b33600081815260086020526040808220805473ffffffffffffffffffffffffffffffffffffffff9586167fffffffffffffffffffffffff000000000000000000000000000000000000000091821617909155600b549094168252902080549092161790555b50565b610a2933610cdc565b15610a60576040517f08c379a00000000000000000000000000000000000000000000000000000000081526004016104ec90611fa6565b610a1d33823361157a565b7f000000000000000000000000000000000000000000000000000000000000000081565b6040517f93552a3d00000000000000000000000000000000000000000000000000000000815273ffffffffffffffffffffffffffffffffffffffff7f000000000000000000000000000000000000000000000000000000000000000016906393552a3d90610b03908590859060040161200c565b60206040518083038186803b158015610b1b57600080fd5b505afa158015610b2f573d6000803e3d6000fd5b505050506040513d601f19601f82011682018060405250810190610b539190611c39565b73ffffffffffffffffffffffffffffffffffffffff9190911660009081526001602090815260408083209483529390529190912080547fffffffffffffffffffffffffffffffffffffffffffffffffffffffffffffff0016911515919091179055565b610bbe611a98565b73ffffffffffffffffffffffffffffffffffffffff16610bdc610ef0565b73ffffffffffffffffffffffffffffffffffffffff1614610c29576040517f08c379a00000000000000000000000000000000000000000000000000000000081526004016104ec90611f03565b60025460405160009173ffffffffffffffffffffffffffffffffffffffff16907f8be0079c531659141344cd1fd0a4f28419497f9722a3daafe3b4186f6b6457e0908390a3600280547fffffffffffffffffffffffff0000000000000000000000000000000000000000169055565b7f000000000000000000000000000000000000000000000000000000000000000081565b600160209081526000928352604080842090915290825290205460ff1681565b600080610ce7610771565b90508273ffffffffffffffffffffffffffffffffffffffff168173ffffffffffffffffffffffffffffffffffffffff16148061072e575073ffffffffffffffffffffffffffffffffffffffff80821660009081526009602090815260408083209387168352929052205460ff169392505050565b60007f000000000000000000000000000000000000000000000000000000000000000073ffffffffffffffffffffffffffffffffffffffff168273ffffffffffffffffffffffffffffffffffffffff161415610ea7576040517f70a0823100000000000000000000000000000000000000000000000000000000815260029073ffffffffffffffffffffffffffffffffffffffff7f000000000000000000000000000000000000000000000000000000000000000016906370a0823190610e46907f000000000000000000000000000000000000000000000000000000000000000090600401611cad565b60206040518083038186803b158015610e5e57600080fd5b505afa158015610e72573d6000803e3d6000fd5b505050506040513d601f19601f82011682018060405250810190610e969190611c71565b610ea09190612048565b9050610ecf565b5073ffffffffffffffffffffffffffffffffffffffff81166000908152600360205260409020545b919050565b600b5473ffffffffffffffffffffffffffffffffffffffff1681565b60025473ffffffffffffffffffffffffffffffffffffffff1690565b600a5473ffffffffffffffffffffffffffffffffffffffff16600080610f3183610d5b565b9050600c5491505b6007548190610f4884436120be565b610f529190612081565b10610ff157806007541115610f9c5773ffffffffffffffffffffffffffffffffffffffff92831660009081526008602052604090205490921691610f9583610d5b565b9050610fec565b600754610fa99082612048565b610fb39083612030565b73ffffffffffffffffffffffffffffffffffffffff938416600090815260086020526040902054909316929150610fe983610d5b565b90505b610f39565b509091565b60045481565b60086020526000908152604090205473ffffffffffffffffffffffffffffffffffffffff1681565b610a1d33826117de565b600061103933611a9c565b61106f576040517f08c379a00000000000000000000000000000000000000000000000000000000081526004016104ec90611f6f565b61271061109c837f0000000000000000000000000000000000000000000000000000000000000000612081565b6110a69190612048565b73ffffffffffffffffffffffffffffffffffffffff84166000908152600660205260408120805492935083929091906110e0908490612030565b90915550909392505050565b6110f4611a98565b73ffffffffffffffffffffffffffffffffffffffff16611112610ef0565b73ffffffffffffffffffffffffffffffffffffffff161461115f576040517f08c379a00000000000000000000000000000000000000000000000000000000081526004016104ec90611f03565b600755565b60056020526000908152604090205481565b3373ffffffffffffffffffffffffffffffffffffffff831614806111ca575073ffffffffffffffffffffffffffffffffffffffff8216600090815260096020908152604080832033845290915290205460ff165b611200576040517f08c379a00000000000000000000000000000000000000000000000000000000081526004016104ec90611ea6565b73ffffffffffffffffffffffffffffffffffffffff9182166000908152600960209081526040808320939094168252919091522080547fffffffffffffffffffffffffffffffffffffffffffffffffffffffffffffff00166001179055565b60006020819052908152604090205473ffffffffffffffffffffffffffffffffffffffff1681565b600a5473ffffffffffffffffffffffffffffffffffffffff1681565b7f000000000000000000000000000000000000000000000000000000000000000081565b6112cf611a98565b73ffffffffffffffffffffffffffffffffffffffff166112ed610ef0565b73ffffffffffffffffffffffffffffffffffffffff161461133a576040517f08c379a00000000000000000000000000000000000000000000000000000000081526004016104ec90611f03565b73ffffffffffffffffffffffffffffffffffffffff8116611387576040517f08c379a00000000000000000000000000000000000000000000000000000000081526004016104ec90611dec565b60025460405173ffffffffffffffffffffffffffffffffffffffff8084169216907f8be0079c531659141344cd1fd0a4f28419497f9722a3daafe3b4186f6b6457e090600090a3600280547fffffffffffffffffffffffff00000000000000000000000000000000000000001673ffffffffffffffffffffffffffffffffffffffff92909216919091179055565b600061142033611a9c565b611456576040517f08c379a00000000000000000000000000000000000000000000000000000000081526004016104ec90611f6f565b6114827f0000000000000000000000000000000000000000000000000000000000000000612710612030565b61109c837f0000000000000000000000000000000000000000000000000000000000000000612081565b6040517f93552a3d00000000000000000000000000000000000000000000000000000000815260009073ffffffffffffffffffffffffffffffffffffffff7f000000000000000000000000000000000000000000000000000000000000000016906393552a3d9061152490600a90869060040161200c565b60206040518083038186803b15801561153c57600080fd5b505afa158015611550573d6000803e3d6000fd5b505050506040513d601f19601f820116820180604052508101906115749190611c39565b92915050565b73ffffffffffffffffffffffffffffffffffffffff831660009081526003602052604081208054918491906115af83856120be565b9250508190555082600460008282546115c891906120be565b909155506115d69050611ad3565b73ffffffffffffffffffffffffffffffffffffffff1663d9caed127f000000000000000000000000000000000000000000000000000000000000000084866040518463ffffffff1660e01b815260040161163293929190611cce565b600060405180830381600087803b15801561164c57600080fd5b505af1158015611660573d6000803e3d6000fd5b505050508281141561173657611674611b18565b73ffffffffffffffffffffffffffffffffffffffff8581166000908152600560205260408082205490517fc6de9d5d000000000000000000000000000000000000000000000000000000008152939092169263c6de9d5d926116d99291600401611d61565b600060405180830381600087803b1580156116f357600080fd5b505af1158015611707573d6000803e3d6000fd5b50505073ffffffffffffffffffffffffffffffffffffffff8516600090815260056020526040812055506117d8565b61173e611b18565b73ffffffffffffffffffffffffffffffffffffffff8581166000908152600560205260408082205490517fa8016711000000000000000000000000000000000000000000000000000000008152939092169263a8016711926117a592918890600401611d74565b600060405180830381600087803b1580156117bf57600080fd5b505af11580156117d3573d6000803e3d6000fd5b505050505b50505050565b6117e6611ad3565b73ffffffffffffffffffffffffffffffffffffffff1663b3db428b837f0000000000000000000000000000000000000000000000000000000000000000846040518463ffffffff1660e01b815260040161184293929190611cce565b600060405180830381600087803b15801561185c57600080fd5b505af1158015611870573d6000803e3d6000fd5b5050505073ffffffffffffffffffffffffffffffffffffffff8216600090815260036020526040812080548392906118a9908490612030565b9250508190555080600460008282546118c29190612030565b909155505073ffffffffffffffffffffffffffffffffffffffff821660009081526005602052604090205415611998576118fa611b18565b73ffffffffffffffffffffffffffffffffffffffff8381166000908152600560205260408082205490517ff5428087000000000000000000000000000000000000000000000000000000008152939092169263f54280879261196192918690600401611d74565b600060405180830381600087803b15801561197b57600080fd5b505af115801561198f573d6000803e3d6000fd5b50505050611a94565b60006119a2611b18565b73ffffffffffffffffffffffffffffffffffffffff1663583d8616600085856040518463ffffffff1660e01b81526004016119df93929190611d30565b602060405180830381600087803b1580156119f957600080fd5b505af1158015611a0d573d6000803e3d6000fd5b505050506040513d601f19601f82011682018060405250810190611a319190611c71565b73ffffffffffffffffffffffffffffffffffffffff84166000908152600560205260409020819055905080611a92576040517f08c379a00000000000000000000000000000000000000000000000000000000081526004016104ec90611f38565b505b5050565b3390565b73ffffffffffffffffffffffffffffffffffffffff1660009081526001602090815260408083206005845290915290205460ff1690565b606560009081526020527f4a7203f705e51df4a56139a9b86b4a0970bed7ab7a3446eaffe2289989c1645c5473ffffffffffffffffffffffffffffffffffffffff1690565b606c60009081526020527f3c1fcba39712202dbd455253568bf32dd0a3bedb5c3ff0de4b22d4e45e50dc925473ffffffffffffffffffffffffffffffffffffffff1690565b600060208284031215611b6e578081fd5b813561072e81612104565b600060208284031215611b8a578081fd5b815161072e81612104565b60008060408385031215611ba7578081fd5b8235611bb281612104565b91506020830135611bc281612104565b809150509250929050565b60008060408385031215611bdf578182fd5b8235611bea81612104565b946020939093013593505050565b600080600060608486031215611c0c578081fd5b8335611c1781612104565b9250602084013591506040840135611c2e81612104565b809150509250925092565b600060208284031215611c4a578081fd5b8151801515811461072e578182fd5b600060208284031215611c6a578081fd5b5035919050565b600060208284031215611c82578081fd5b5051919050565b60008060408385031215611c9b578182fd5b823591506020830135611bc281612104565b73ffffffffffffffffffffffffffffffffffffffff91909116815260200190565b73ffffffffffffffffffffffffffffffffffffffff9384168152919092166020820152604081019190915260600190565b73ffffffffffffffffffffffffffffffffffffffff929092168252602082015260400190565b901515815260200190565b60ff93909316835273ffffffffffffffffffffffffffffffffffffffff919091166020830152604082015260600190565b60ff929092168252602082015260400190565b60ff9390931683526020830191909152604082015260600190565b6020808252602d908201527f6d73672e73656e646572206e6f7420617574686f72697a656420746f2070656e60408201527f616c697a65207374616b65727300000000000000000000000000000000000000606082015260800190565b60208082526026908201527f4f776e61626c653a206e6577206f776e657220697320746865207a65726f206160408201527f6464726573730000000000000000000000000000000000000000000000000000606082015260800190565b60208082526029908201527f496e73756666696369656e74207374616b6520746f2063616c6c206576656e2060408201527f6f6e6520626c6f636b0000000000000000000000000000000000000000000000606082015260800190565b60208082526030908201527f6d73672e73656e646572206e6f7420617574686f72697a656420746f2064656c60408201527f656761746520666f72207374616b657200000000000000000000000000000000606082015260800190565b6020808252818101527f4f776e61626c653a2063616c6c6572206973206e6f7420746865206f776e6572604082015260600190565b6020808252601e908201527f446973747269627574696f6e206973206f766572206f72207061757365640000604082015260600190565b6020808252601d908201527f4e6f7420617574686f72697a656420746f20736f757263652066656573000000604082015260600190565b60208082526031908201527f596f752063616e2774207769746864726177207768696c6520796f752772652060408201527f617574686f72697a6564207374616b6572000000000000000000000000000000606082015260800190565b90815260200190565b91825273ffffffffffffffffffffffffffffffffffffffff16602082015260400190565b60008219821115612043576120436120d5565b500190565b60008261207c577f4e487b710000000000000000000000000000000000000000000000000000000081526012600452602481fd5b500490565b6000817fffffffffffffffffffffffffffffffffffffffffffffffffffffffffffffffff04831182151516156120b9576120b96120d5565b500290565b6000828210156120d0576120d06120d5565b500390565b7f4e487b7100000000000000000000000000000000000000000000000000000000600052601160045260246000fd5b73ffffffffffffffffffffffffffffffffffffffff81168114610a1d57600080fdfea2646970667358221220a2da5c4c0fbdc84991b5c116156c16c2b03487d8031da90f3b8b546617e4b7b764736f6c63430008010033",
  "devdoc": {
    "details": "Here we support staking for MFI incentives as well as staking to perform the maintenance role.",
    "kind": "dev",
    "methods": {
      "owner()": {
        "details": "Returns the address of the current owner."
      },
      "renounceOwnership()": {
        "details": "Leaves the contract without owner. It will not be possible to call `onlyOwner` functions anymore. Can only be called by the current owner. NOTE: Renouncing ownership will leave the contract without an owner, thereby removing any functionality that is only available to the owner."
      },
      "transferOwnership(address)": {
        "details": "Transfers ownership of the contract to a new account (`newOwner`). Can only be called by the current owner."
      }
    },
    "version": 1
  },
  "userdoc": {
    "kind": "user",
    "methods": {},
    "version": 1
  },
  "storageLayout": {
    "storage": [
      {
        "astId": 12289,
        "contract": "contracts/Admin.sol:Admin",
        "label": "mainCharacterCache",
        "offset": 0,
        "slot": "0",
        "type": "t_mapping(t_uint256,t_address)"
      },
      {
        "astId": 12295,
        "contract": "contracts/Admin.sol:Admin",
        "label": "roleCache",
        "offset": 0,
        "slot": "1",
        "type": "t_mapping(t_address,t_mapping(t_uint256,t_bool))"
      },
      {
        "astId": 381,
        "contract": "contracts/Admin.sol:Admin",
        "label": "_owner",
        "offset": 0,
        "slot": "2",
        "type": "t_address"
      },
      {
        "astId": 2769,
        "contract": "contracts/Admin.sol:Admin",
        "label": "stakes",
        "offset": 0,
        "slot": "3",
        "type": "t_mapping(t_address,t_uint256)"
      },
      {
        "astId": 2771,
        "contract": "contracts/Admin.sol:Admin",
        "label": "totalStakes",
        "offset": 0,
        "slot": "4",
        "type": "t_uint256"
      },
      {
        "astId": 2775,
        "contract": "contracts/Admin.sol:Admin",
        "label": "claimIds",
        "offset": 0,
        "slot": "5",
        "type": "t_mapping(t_address,t_uint256)"
      },
      {
        "astId": 2781,
        "contract": "contracts/Admin.sol:Admin",
        "label": "collectedFees",
        "offset": 0,
        "slot": "6",
        "type": "t_mapping(t_address,t_uint256)"
      },
      {
        "astId": 2784,
        "contract": "contracts/Admin.sol:Admin",
        "label": "maintenanceStakePerBlock",
        "offset": 0,
        "slot": "7",
        "type": "t_uint256"
      },
      {
        "astId": 2788,
        "contract": "contracts/Admin.sol:Admin",
        "label": "nextMaintenanceStaker",
        "offset": 0,
        "slot": "8",
        "type": "t_mapping(t_address,t_address)"
      },
      {
        "astId": 2794,
        "contract": "contracts/Admin.sol:Admin",
        "label": "maintenanceDelegateTo",
        "offset": 0,
        "slot": "9",
        "type": "t_mapping(t_address,t_mapping(t_address,t_bool))"
      },
      {
        "astId": 2796,
        "contract": "contracts/Admin.sol:Admin",
        "label": "currentMaintenanceStaker",
        "offset": 0,
        "slot": "10",
        "type": "t_address"
      },
      {
        "astId": 2798,
        "contract": "contracts/Admin.sol:Admin",
        "label": "prevMaintenanceStaker",
        "offset": 0,
        "slot": "11",
        "type": "t_address"
      },
      {
        "astId": 2800,
        "contract": "contracts/Admin.sol:Admin",
        "label": "currentMaintenanceStakerStartBlock",
        "offset": 0,
        "slot": "12",
        "type": "t_uint256"
      }
    ],
    "types": {
      "t_address": {
        "encoding": "inplace",
        "label": "address",
        "numberOfBytes": "20"
      },
      "t_bool": {
        "encoding": "inplace",
        "label": "bool",
        "numberOfBytes": "1"
      },
      "t_mapping(t_address,t_address)": {
        "encoding": "mapping",
        "key": "t_address",
        "label": "mapping(address => address)",
        "numberOfBytes": "32",
        "value": "t_address"
      },
      "t_mapping(t_address,t_bool)": {
        "encoding": "mapping",
        "key": "t_address",
        "label": "mapping(address => bool)",
        "numberOfBytes": "32",
        "value": "t_bool"
      },
      "t_mapping(t_address,t_mapping(t_address,t_bool))": {
        "encoding": "mapping",
        "key": "t_address",
        "label": "mapping(address => mapping(address => bool))",
        "numberOfBytes": "32",
        "value": "t_mapping(t_address,t_bool)"
      },
      "t_mapping(t_address,t_mapping(t_uint256,t_bool))": {
        "encoding": "mapping",
        "key": "t_address",
        "label": "mapping(address => mapping(uint256 => bool))",
        "numberOfBytes": "32",
        "value": "t_mapping(t_uint256,t_bool)"
      },
      "t_mapping(t_address,t_uint256)": {
        "encoding": "mapping",
        "key": "t_address",
        "label": "mapping(address => uint256)",
        "numberOfBytes": "32",
        "value": "t_uint256"
      },
      "t_mapping(t_uint256,t_address)": {
        "encoding": "mapping",
        "key": "t_uint256",
        "label": "mapping(uint256 => address)",
        "numberOfBytes": "32",
        "value": "t_address"
      },
      "t_mapping(t_uint256,t_bool)": {
        "encoding": "mapping",
        "key": "t_uint256",
        "label": "mapping(uint256 => bool)",
        "numberOfBytes": "32",
        "value": "t_bool"
      },
      "t_uint256": {
        "encoding": "inplace",
        "label": "uint256",
        "numberOfBytes": "32"
      }
    }
  }
}