{
  "address": "0x3ca65bd48731Bfc5a52b1E9AfbE60E2B30d6bCB8",
  "abi": [
    {
      "inputs": [
        {
          "internalType": "address",
          "name": "_MFI",
          "type": "address"
        },
        {
          "internalType": "address",
          "name": "_lockedMFI",
          "type": "address"
        },
        {
          "internalType": "address",
          "name": "lockedMFIDelegate",
          "type": "address"
        },
        {
          "internalType": "address",
          "name": "_roles",
          "type": "address"
        }
      ],
      "stateMutability": "nonpayable",
      "type": "constructor"
    },
    {
      "inputs": [],
      "name": "MFI",
      "outputs": [
        {
          "internalType": "address",
          "name": "",
          "type": "address"
        }
      ],
      "stateMutability": "view",
      "type": "function"
    },
    {
      "inputs": [
        {
          "internalType": "address",
          "name": "forStaker",
          "type": "address"
        },
        {
          "internalType": "address",
          "name": "delegate",
          "type": "address"
        }
      ],
      "name": "addDelegate",
      "outputs": [],
      "stateMutability": "nonpayable",
      "type": "function"
    },
    {
      "inputs": [],
      "name": "currentMaintenanceStaker",
      "outputs": [
        {
          "internalType": "address",
          "name": "",
          "type": "address"
        }
      ],
      "stateMutability": "view",
      "type": "function"
    },
    {
      "inputs": [],
      "name": "currentMaintenanceStakerStartBlock",
      "outputs": [
        {
          "internalType": "uint256",
          "name": "",
          "type": "uint256"
        }
      ],
      "stateMutability": "view",
      "type": "function"
    },
    {
      "inputs": [
        {
          "internalType": "uint256",
          "name": "amount",
          "type": "uint256"
        }
      ],
      "name": "depositMaintenanceStake",
      "outputs": [],
      "stateMutability": "nonpayable",
      "type": "function"
    },
    {
      "inputs": [
        {
          "internalType": "uint256",
          "name": "amount",
          "type": "uint256"
        }
      ],
      "name": "depositStake",
      "outputs": [],
      "stateMutability": "nonpayable",
      "type": "function"
    },
    {
      "inputs": [
        {
          "internalType": "address",
          "name": "staker",
          "type": "address"
        }
      ],
      "name": "getMaintenanceStakerStake",
      "outputs": [
        {
          "internalType": "uint256",
          "name": "",
          "type": "uint256"
        }
      ],
      "stateMutability": "view",
      "type": "function"
    },
    {
      "inputs": [],
      "name": "getUpdatedCurrentStaker",
      "outputs": [
        {
          "internalType": "address",
          "name": "",
          "type": "address"
        }
      ],
      "stateMutability": "nonpayable",
      "type": "function"
    },
    {
      "inputs": [
        {
          "internalType": "address",
          "name": "caller",
          "type": "address"
        }
      ],
      "name": "isAuthorizedStaker",
      "outputs": [
        {
          "internalType": "bool",
          "name": "isAuthorized",
          "type": "bool"
        }
      ],
      "stateMutability": "nonpayable",
      "type": "function"
    },
    {
      "inputs": [],
      "name": "lockedMFI",
      "outputs": [
        {
          "internalType": "address",
          "name": "",
          "type": "address"
        }
      ],
      "stateMutability": "view",
      "type": "function"
    },
    {
      "inputs": [
        {
          "internalType": "uint256",
          "name": "",
          "type": "uint256"
        }
      ],
      "name": "mainCharacterCache",
      "outputs": [
        {
          "internalType": "address",
          "name": "",
          "type": "address"
        }
      ],
      "stateMutability": "view",
      "type": "function"
    },
    {
      "inputs": [
        {
          "internalType": "address",
          "name": "",
          "type": "address"
        },
        {
          "internalType": "address",
          "name": "",
          "type": "address"
        }
      ],
      "name": "maintenanceDelegateTo",
      "outputs": [
        {
          "internalType": "bool",
          "name": "",
          "type": "bool"
        }
      ],
      "stateMutability": "view",
      "type": "function"
    },
    {
      "inputs": [],
      "name": "maintenanceStakePerBlock",
      "outputs": [
        {
          "internalType": "uint256",
          "name": "",
          "type": "uint256"
        }
      ],
      "stateMutability": "view",
      "type": "function"
    },
    {
      "inputs": [],
      "name": "mfiStakeTranche",
      "outputs": [
        {
          "internalType": "uint256",
          "name": "",
          "type": "uint256"
        }
      ],
      "stateMutability": "view",
      "type": "function"
    },
    {
      "inputs": [
        {
          "internalType": "address",
          "name": "",
          "type": "address"
        }
      ],
      "name": "nextMaintenanceStaker",
      "outputs": [
        {
          "internalType": "address",
          "name": "",
          "type": "address"
        }
      ],
      "stateMutability": "view",
      "type": "function"
    },
    {
      "inputs": [
        {
          "internalType": "address",
          "name": "maintainer",
          "type": "address"
        },
        {
          "internalType": "uint256",
          "name": "penalty",
          "type": "uint256"
        },
        {
          "internalType": "address",
          "name": "recipient",
          "type": "address"
        }
      ],
      "name": "penalizeMaintenanceStake",
      "outputs": [
        {
          "internalType": "uint256",
          "name": "stakeTaken",
          "type": "uint256"
        }
      ],
      "stateMutability": "nonpayable",
      "type": "function"
    },
    {
      "inputs": [],
      "name": "prevMaintenanceStaker",
      "outputs": [
        {
          "internalType": "address",
          "name": "",
          "type": "address"
        }
      ],
      "stateMutability": "view",
      "type": "function"
    },
    {
      "inputs": [
        {
          "internalType": "address",
          "name": "forStaker",
          "type": "address"
        },
        {
          "internalType": "address",
          "name": "delegate",
          "type": "address"
        }
      ],
      "name": "removeDelegate",
      "outputs": [],
      "stateMutability": "nonpayable",
      "type": "function"
    },
    {
      "inputs": [
        {
          "internalType": "address",
          "name": "",
          "type": "address"
        },
        {
          "internalType": "uint256",
          "name": "",
          "type": "uint256"
        }
      ],
      "name": "roleCache",
      "outputs": [
        {
          "internalType": "bool",
          "name": "",
          "type": "bool"
        }
      ],
      "stateMutability": "view",
      "type": "function"
    },
    {
      "inputs": [],
      "name": "roles",
      "outputs": [
        {
          "internalType": "contract Roles",
          "name": "",
          "type": "address"
        }
      ],
      "stateMutability": "view",
      "type": "function"
    },
    {
      "inputs": [
        {
          "internalType": "uint256",
          "name": "amount",
          "type": "uint256"
        }
      ],
      "name": "setMaintenanceStakePerBlock",
      "outputs": [],
      "stateMutability": "nonpayable",
      "type": "function"
    },
    {
      "inputs": [
        {
          "internalType": "address",
          "name": "",
          "type": "address"
        }
      ],
      "name": "stakes",
      "outputs": [
        {
          "internalType": "uint256",
          "name": "",
          "type": "uint256"
        }
      ],
      "stateMutability": "view",
      "type": "function"
    },
    {
      "inputs": [],
      "name": "totalStakes",
      "outputs": [
        {
          "internalType": "uint256",
          "name": "",
          "type": "uint256"
        }
      ],
      "stateMutability": "view",
      "type": "function"
    },
    {
      "inputs": [
        {
          "internalType": "uint256",
          "name": "role",
          "type": "uint256"
        }
      ],
      "name": "updateMainCharacterCache",
      "outputs": [],
      "stateMutability": "nonpayable",
      "type": "function"
    },
    {
      "inputs": [
        {
          "internalType": "uint256",
          "name": "role",
          "type": "uint256"
        },
        {
          "internalType": "address",
          "name": "contr",
          "type": "address"
        }
      ],
      "name": "updateRoleCache",
      "outputs": [],
      "stateMutability": "nonpayable",
      "type": "function"
    },
    {
      "inputs": [],
      "name": "viewCurrentMaintenanceStaker",
      "outputs": [
        {
          "internalType": "address",
          "name": "staker",
          "type": "address"
        },
        {
          "internalType": "uint256",
          "name": "startBlock",
          "type": "uint256"
        }
      ],
      "stateMutability": "view",
      "type": "function"
    },
    {
      "inputs": [
        {
          "internalType": "uint256",
          "name": "amount",
          "type": "uint256"
        }
      ],
      "name": "withdrawStake",
      "outputs": [],
      "stateMutability": "nonpayable",
      "type": "function"
    }
  ],
  "transactionHash": "0xa3a46f8b15d6d98ccc30c307b0d07db39dd308acbf57e6fc3d29e2c9ac136c56",
  "args": [
    "0xAa4e3edb11AFa93c41db59842b29de64b72E355B",
    "0x6c8fbBf8E079246A92E760D440793f2f864a26b3",
    "0x23292e9BA8434e59E6BAC1907bA7425211c4DE27",
    "0x673ef5Ca8e7Dc5E19009c39645c960af8A0580A0"
  ],
  "solcInputHash": "6456958b345ba867e936337ead962efc",
  "bytecode": "0x60e060405267d02ab486cedc00006004553480156200001d57600080fd5b5060405162001ad738038062001ad7833981016040819052620000409162000149565b806001600160a01b038116620000a75760405162461bcd60e51b815260206004820152602260248201527f506c656173652070726f766964652076616c696420726f6c6573206164647265604482015261737360f01b606482015260840160405180910390fd5b6001600160601b0319606091821b811660805294811b851660a05283901b90931660c0526001600160a01b03918216600081815260056020908152604080832080546001600160a01b031990811686179091556007805482168617905560088054909116909417909355600681529181209290931690925290525043600955620001a5565b80516001600160a01b03811681146200014457600080fd5b919050565b600080600080608085870312156200015f578384fd5b6200016a856200012c565b93506200017a602086016200012c565b92506200018a604086016200012c565b91506200019a606086016200012c565b905092959194509250565b60805160601c60a05160601c60c05160601c6118ac6200022b6000396000818161025801528181610d480152610dd70152600081816104b301528181610e0201528181611248015281816112c201528181611374015261143a0152600081816102fb0152818161064501528181610be801528181611468015261150d01526118ac6000f3fe608060405234801561001057600080fd5b50600436106101b95760003560e01c80637a1a04df116100f9578063c3fff5d911610097578063e909ebfa11610071578063e909ebfa14610445578063e9c3f77d14610458578063e9f39e161461048e578063ed29c12b146104ae576101b9565b8063c3fff5d9146103e9578063cb82cc8f1461041f578063d8715ca714610432576101b9565b8063806cdada116100d3578063806cdada146103845780638bd4c6da146103a4578063b0411f46146103ac578063bf9befb1146103e0576101b9565b80637a1a04df146103305780637b23cbce1461035e5780637fbc953d14610371576101b9565b806316934fc411610166578063219f951d11610140578063219f951d146102d057806325d5971f146102e3578063392f5f64146102f6578063447d52ba1461031d576101b9565b806316934fc41461029f5780631a38de1d146102bf5780631aea9f52146102c7576101b9565b80630a45bc1b116101975780630a45bc1b146102295780630ad691501461024a578063152119d814610253576101b9565b8063020d308d146101be578063055cfe53146101d3578063071060a614610216575b600080fd5b6101d16101cc366004611668565b6104d5565b005b6102016101e1366004611668565b600660209081526000928352604080842090915290825290205460ff1681565b60405190151581526020015b60405180910390f35b6101d161022436600461172c565b610616565b61023c6102373660046116cb565b610727565b60405190815260200161020d565b61023c60045481565b61027a7f000000000000000000000000000000000000000000000000000000000000000081565b60405173ffffffffffffffffffffffffffffffffffffffff909116815260200161020d565b61023c6102ad366004611630565b60026020526000908152604090205481565b61027a610840565b61023c60095481565b6101d16102de36600461172c565b6109ac565b6101d16102f136600461172c565b610afb565b61027a7f000000000000000000000000000000000000000000000000000000000000000081565b6101d161032b36600461175c565b610b9c565b61020161033e3660046116a0565b600160209081526000928352604080842090915290825290205460ff1681565b61020161036c366004611630565b610cc5565b61023c61037f366004611630565b610d44565b60085461027a9073ffffffffffffffffffffffffffffffffffffffff1681565b61023c600181565b6103b4610ebc565b6040805173ffffffffffffffffffffffffffffffffffffffff909316835260208301919091520161020d565b61023c60035481565b61027a6103f7366004611630565b60056020526000908152604090205473ffffffffffffffffffffffffffffffffffffffff1681565b6101d161042d36600461172c565b610f7b565b6101d161044036600461172c565b610f85565b6101d1610453366004611668565b611037565b61027a61046636600461172c565b60006020819052908152604090205473ffffffffffffffffffffffffffffffffffffffff1681565b60075461027a9073ffffffffffffffffffffffffffffffffffffffff1681565b61027a7f000000000000000000000000000000000000000000000000000000000000000081565b3373ffffffffffffffffffffffffffffffffffffffff83161480610529575073ffffffffffffffffffffffffffffffffffffffff8216600090815260066020908152604080832033845290915290205460ff165b6105ba576040517f08c379a000000000000000000000000000000000000000000000000000000000815260206004820152603060248201527f6d73672e73656e646572206e6f7420617574686f72697a656420746f2064656c60448201527f656761746520666f72207374616b65720000000000000000000000000000000060648201526084015b60405180910390fd5b73ffffffffffffffffffffffffffffffffffffffff9182166000908152600660209081526040808320939094168252919091522080547fffffffffffffffffffffffffffffffffffffffffffffffffffffffffffffff00169055565b6040517fb4ed0b6d000000000000000000000000000000000000000000000000000000008152600481018290527f000000000000000000000000000000000000000000000000000000000000000073ffffffffffffffffffffffffffffffffffffffff169063b4ed0b6d9060240160206040518083038186803b15801561069c57600080fd5b505afa1580156106b0573d6000803e3d6000fd5b505050506040513d601f19601f820116820180604052508101906106d4919061164c565b60009182526020829052604090912080547fffffffffffffffffffffffff00000000000000000000000000000000000000001673ffffffffffffffffffffffffffffffffffffffff909216919091179055565b336000908152600160209081526040808320600a845290915281205460ff166107d2576040517f08c379a000000000000000000000000000000000000000000000000000000000815260206004820152602d60248201527f6d73672e73656e646572206e6f7420617574686f72697a656420746f2070656e60448201527f616c697a65207374616b6572730000000000000000000000000000000000000060648201526084016105b1565b73ffffffffffffffffffffffffffffffffffffffff841660009081526002602052604090205483111561082b575073ffffffffffffffffffffffffffffffffffffffff831660009081526002602052604090205461082e565b50815b610839848284611176565b9392505050565b60075460009081906108679073ffffffffffffffffffffffffffffffffffffffff16610d44565b9050806004546009544361087b919061180e565b61088591906117d1565b1061098e574360095560078054600880547fffffffffffffffffffffffff000000000000000000000000000000000000000090811673ffffffffffffffffffffffffffffffffffffffff808516918217909355600090815260056020526040902054921691169081179091556108fa90610d44565b905080600454111561098e576007805473ffffffffffffffffffffffffffffffffffffffff908116600090815260056020526040808220546008548416835281832080549185167fffffffffffffffffffffffff00000000000000000000000000000000000000009283168117909155855490941683529120805482169055825416811790915561098a81610d44565b9150505b505060075473ffffffffffffffffffffffffffffffffffffffff1690565b600454336000908152600260205260409020546109c99083611780565b1015610a57576040517f08c379a000000000000000000000000000000000000000000000000000000000815260206004820152602960248201527f496e73756666696369656e74207374616b6520746f2063616c6c206576656e2060448201527f6f6e6520626c6f636b000000000000000000000000000000000000000000000060648201526084016105b1565b610a6133826112ed565b3360009081526005602052604090205473ffffffffffffffffffffffffffffffffffffffff16610af857610a93610840565b33600081815260056020526040808220805473ffffffffffffffffffffffffffffffffffffffff9586167fffffffffffffffffffffffff0000000000000000000000000000000000000000918216179091556008549094168252902080549092161790555b50565b610b0433610cc5565b15610b91576040517f08c379a000000000000000000000000000000000000000000000000000000000815260206004820152603160248201527f596f752063616e2774207769746864726177207768696c6520796f752772652060448201527f617574686f72697a6564207374616b657200000000000000000000000000000060648201526084016105b1565b610af8338233611176565b6040517f93552a3d0000000000000000000000000000000000000000000000000000000081526004810183905273ffffffffffffffffffffffffffffffffffffffff82811660248301527f000000000000000000000000000000000000000000000000000000000000000016906393552a3d9060440160206040518083038186803b158015610c2a57600080fd5b505afa158015610c3e573d6000803e3d6000fd5b505050506040513d601f19601f82011682018060405250810190610c62919061170c565b73ffffffffffffffffffffffffffffffffffffffff9190911660009081526001602090815260408083209483529390529190912080547fffffffffffffffffffffffffffffffffffffffffffffffffffffffffffffff0016911515919091179055565b600080610cd0610840565b90508273ffffffffffffffffffffffffffffffffffffffff168173ffffffffffffffffffffffffffffffffffffffff161480610839575073ffffffffffffffffffffffffffffffffffffffff80821660009081526006602090815260408083209387168352929052205460ff169392505050565b60007f000000000000000000000000000000000000000000000000000000000000000073ffffffffffffffffffffffffffffffffffffffff168273ffffffffffffffffffffffffffffffffffffffff161415610e8f576040517f70a0823100000000000000000000000000000000000000000000000000000000815273ffffffffffffffffffffffffffffffffffffffff7f0000000000000000000000000000000000000000000000000000000000000000811660048301526002917f0000000000000000000000000000000000000000000000000000000000000000909116906370a082319060240160206040518083038186803b158015610e4657600080fd5b505afa158015610e5a573d6000803e3d6000fd5b505050506040513d601f19601f82011682018060405250810190610e7e9190611744565b610e889190611798565b9050610eb7565b5073ffffffffffffffffffffffffffffffffffffffff81166000908152600260205260409020545b919050565b60075473ffffffffffffffffffffffffffffffffffffffff16600080610ee183610d44565b90506009549150806004548343610ef8919061180e565b610f0291906117d1565b10610f765773ffffffffffffffffffffffffffffffffffffffff92831660009081526005602052604090205490921691610f3b83610d44565b9050439150806004541115610f765773ffffffffffffffffffffffffffffffffffffffff928316600090815260056020526040902054909216915b509091565b610af833826112ed565b33610f8e611464565b73ffffffffffffffffffffffffffffffffffffffff161480610fcc575033610fb4611509565b73ffffffffffffffffffffffffffffffffffffffff16145b611032576040517f08c379a000000000000000000000000000000000000000000000000000000000815260206004820152601e60248201527f526f6c65733a2063616c6c6572206973206e6f7420746865206f776e6572000060448201526064016105b1565b600455565b3373ffffffffffffffffffffffffffffffffffffffff8316148061108b575073ffffffffffffffffffffffffffffffffffffffff8216600090815260066020908152604080832033845290915290205460ff165b611117576040517f08c379a000000000000000000000000000000000000000000000000000000000815260206004820152603060248201527f6d73672e73656e646572206e6f7420617574686f72697a656420746f2064656c60448201527f656761746520666f72207374616b65720000000000000000000000000000000060648201526084016105b1565b73ffffffffffffffffffffffffffffffffffffffff9182166000908152600660209081526040808320939094168252919091522080547fffffffffffffffffffffffffffffffffffffffffffffffffffffffffffffff00166001179055565b73ffffffffffffffffffffffffffffffffffffffff8316600090815260026020526040812080548492906111ab90849061180e565b9250508190555081600360008282546111c4919061180e565b9091555050606560009081526020527f4a7203f705e51df4a56139a9b86b4a0970bed7ab7a3446eaffe2289989c1645c5473ffffffffffffffffffffffffffffffffffffffff166040517fd9caed1200000000000000000000000000000000000000000000000000000000815273ffffffffffffffffffffffffffffffffffffffff7f000000000000000000000000000000000000000000000000000000000000000081166004830152838116602483015260448201859052919091169063d9caed1290606401600060405180830381600087803b1580156112a557600080fd5b505af11580156112b9573d6000803e3d6000fd5b505050506112e87f00000000000000000000000000000000000000000000000000000000000000008484611587565b505050565b606560009081526020527f4a7203f705e51df4a56139a9b86b4a0970bed7ab7a3446eaffe2289989c1645c5473ffffffffffffffffffffffffffffffffffffffff166040517fb3db428b00000000000000000000000000000000000000000000000000000000815273ffffffffffffffffffffffffffffffffffffffff84811660048301527f00000000000000000000000000000000000000000000000000000000000000008116602483015260448201849052919091169063b3db428b90606401600060405180830381600087803b1580156113c957600080fd5b505af11580156113dd573d6000803e3d6000fd5b5050505073ffffffffffffffffffffffffffffffffffffffff821660009081526002602052604081208054839290611416908490611780565b92505081905550806003600082825461142f9190611780565b9091555061146090507f000000000000000000000000000000000000000000000000000000000000000083836115e0565b5050565b60007f000000000000000000000000000000000000000000000000000000000000000073ffffffffffffffffffffffffffffffffffffffff16638da5cb5b6040518163ffffffff1660e01b815260040160206040518083038186803b1580156114cc57600080fd5b505afa1580156114e0573d6000803e3d6000fd5b505050506040513d601f19601f82011682018060405250810190611504919061164c565b905090565b60007f000000000000000000000000000000000000000000000000000000000000000073ffffffffffffffffffffffffffffffffffffffff1663c34c08e56040518163ffffffff1660e01b8152600401602060405180830381600087803b15801561157357600080fd5b505af11580156114e0573d6000803e3d6000fd5b6040805173ffffffffffffffffffffffffffffffffffffffff8581168252602082018490528416917f3397b60e3ca1e9c0c75a033d62ab8731e9b2937c0690ae5d7f1bd37886b19d7d91015b60405180910390a2505050565b6040805173ffffffffffffffffffffffffffffffffffffffff8581168252602082018490528416917f8ec70c9430377a4bba035133e27a5b0f3b9951bc080833f6832bcbbb70a96dba91016115d3565b600060208284031215611641578081fd5b813561083981611854565b60006020828403121561165d578081fd5b815161083981611854565b6000806040838503121561167a578081fd5b823561168581611854565b9150602083013561169581611854565b809150509250929050565b600080604083850312156116b2578182fd5b82356116bd81611854565b946020939093013593505050565b6000806000606084860312156116df578081fd5b83356116ea81611854565b925060208401359150604084013561170181611854565b809150509250925092565b60006020828403121561171d578081fd5b81518015158114610839578182fd5b60006020828403121561173d578081fd5b5035919050565b600060208284031215611755578081fd5b5051919050565b6000806040838503121561176e578182fd5b82359150602083013561169581611854565b6000821982111561179357611793611825565b500190565b6000826117cc577f4e487b710000000000000000000000000000000000000000000000000000000081526012600452602481fd5b500490565b6000817fffffffffffffffffffffffffffffffffffffffffffffffffffffffffffffffff048311821515161561180957611809611825565b500290565b60008282101561182057611820611825565b500390565b7f4e487b7100000000000000000000000000000000000000000000000000000000600052601160045260246000fd5b73ffffffffffffffffffffffffffffffffffffffff81168114610af857600080fdfea2646970667358221220c207e2203286599d455481cdb4c5db7e9b8bb52600eefc42b82d5aafe87f0fbf64736f6c63430008030033",
  "devdoc": {
    "kind": "dev",
    "methods": {},
    "title": "Here we support staking for MFI incentives as well as staking to perform the maintenance role.",
    "version": 1
  },
  "userdoc": {
    "kind": "user",
    "methods": {
      "MFI()": {
        "notice": "Margenswap (MFI) token address"
      },
      "addDelegate(address,address)": {
        "notice": "Add a delegate for staker"
      },
      "depositMaintenanceStake(uint256)": {
        "notice": "Deposit maintenance stake"
      },
      "depositStake(uint256)": {
        "notice": "Deposit a stake for sender"
      },
      "penalizeMaintenanceStake(address,uint256,address)": {
        "notice": "Penalize a staker"
      },
      "removeDelegate(address,address)": {
        "notice": "Remove a delegate for staker"
      },
      "setMaintenanceStakePerBlock(uint256)": {
        "notice": "Maintence stake setter"
      },
      "withdrawStake(uint256)": {
        "notice": "Withdraw stake for sender"
      }
    },
    "version": 1
  },
  "storageLayout": {
    "storage": [
      {
        "astId": 10214,
        "contract": "contracts/Admin.sol:Admin",
        "label": "mainCharacterCache",
        "offset": 0,
        "slot": "0",
        "type": "t_mapping(t_uint256,t_address)"
      },
      {
        "astId": 10220,
        "contract": "contracts/Admin.sol:Admin",
        "label": "roleCache",
        "offset": 0,
        "slot": "1",
        "type": "t_mapping(t_address,t_mapping(t_uint256,t_bool))"
      },
      {
        "astId": 989,
        "contract": "contracts/Admin.sol:Admin",
        "label": "stakes",
        "offset": 0,
        "slot": "2",
        "type": "t_mapping(t_address,t_uint256)"
      },
      {
        "astId": 991,
        "contract": "contracts/Admin.sol:Admin",
        "label": "totalStakes",
        "offset": 0,
        "slot": "3",
        "type": "t_uint256"
      },
      {
        "astId": 997,
        "contract": "contracts/Admin.sol:Admin",
        "label": "maintenanceStakePerBlock",
        "offset": 0,
        "slot": "4",
        "type": "t_uint256"
      },
      {
        "astId": 1001,
        "contract": "contracts/Admin.sol:Admin",
        "label": "nextMaintenanceStaker",
        "offset": 0,
        "slot": "5",
        "type": "t_mapping(t_address,t_address)"
      },
      {
        "astId": 1007,
        "contract": "contracts/Admin.sol:Admin",
        "label": "maintenanceDelegateTo",
        "offset": 0,
        "slot": "6",
        "type": "t_mapping(t_address,t_mapping(t_address,t_bool))"
      },
      {
        "astId": 1009,
        "contract": "contracts/Admin.sol:Admin",
        "label": "currentMaintenanceStaker",
        "offset": 0,
        "slot": "7",
        "type": "t_address"
      },
      {
        "astId": 1011,
        "contract": "contracts/Admin.sol:Admin",
        "label": "prevMaintenanceStaker",
        "offset": 0,
        "slot": "8",
        "type": "t_address"
      },
      {
        "astId": 1013,
        "contract": "contracts/Admin.sol:Admin",
        "label": "currentMaintenanceStakerStartBlock",
        "offset": 0,
        "slot": "9",
        "type": "t_uint256"
      }
    ],
    "types": {
      "t_address": {
        "encoding": "inplace",
        "label": "address",
        "numberOfBytes": "20"
      },
      "t_bool": {
        "encoding": "inplace",
        "label": "bool",
        "numberOfBytes": "1"
      },
      "t_mapping(t_address,t_address)": {
        "encoding": "mapping",
        "key": "t_address",
        "label": "mapping(address => address)",
        "numberOfBytes": "32",
        "value": "t_address"
      },
      "t_mapping(t_address,t_bool)": {
        "encoding": "mapping",
        "key": "t_address",
        "label": "mapping(address => bool)",
        "numberOfBytes": "32",
        "value": "t_bool"
      },
      "t_mapping(t_address,t_mapping(t_address,t_bool))": {
        "encoding": "mapping",
        "key": "t_address",
        "label": "mapping(address => mapping(address => bool))",
        "numberOfBytes": "32",
        "value": "t_mapping(t_address,t_bool)"
      },
      "t_mapping(t_address,t_mapping(t_uint256,t_bool))": {
        "encoding": "mapping",
        "key": "t_address",
        "label": "mapping(address => mapping(uint256 => bool))",
        "numberOfBytes": "32",
        "value": "t_mapping(t_uint256,t_bool)"
      },
      "t_mapping(t_address,t_uint256)": {
        "encoding": "mapping",
        "key": "t_address",
        "label": "mapping(address => uint256)",
        "numberOfBytes": "32",
        "value": "t_uint256"
      },
      "t_mapping(t_uint256,t_address)": {
        "encoding": "mapping",
        "key": "t_uint256",
        "label": "mapping(uint256 => address)",
        "numberOfBytes": "32",
        "value": "t_address"
      },
      "t_mapping(t_uint256,t_bool)": {
        "encoding": "mapping",
        "key": "t_uint256",
        "label": "mapping(uint256 => bool)",
        "numberOfBytes": "32",
        "value": "t_bool"
      },
      "t_uint256": {
        "encoding": "inplace",
        "label": "uint256",
        "numberOfBytes": "32"
      }
    }
  }
}