{
  "address": "0x7626fAFb926Ceec74869e07961Fe7b4326D73eE0",
  "abi": [
    {
      "inputs": [
        {
          "internalType": "address",
          "name": "_peg",
          "type": "address"
        },
        {
          "internalType": "address",
          "name": "_roles",
          "type": "address"
        }
      ],
      "stateMutability": "nonpayable",
      "type": "constructor"
    },
    {
      "anonymous": false,
      "inputs": [
        {
          "indexed": false,
          "internalType": "address",
          "name": "account",
          "type": "address"
        }
      ],
      "name": "AccountLiquidated",
      "type": "event"
    },
    {
      "anonymous": false,
      "inputs": [
        {
          "indexed": false,
          "internalType": "uint256",
          "name": "amount",
          "type": "uint256"
        }
      ],
      "name": "LiquidationShortfall",
      "type": "event"
    },
    {
      "anonymous": false,
      "inputs": [
        {
          "indexed": true,
          "internalType": "address",
          "name": "previousOwner",
          "type": "address"
        },
        {
          "indexed": true,
          "internalType": "address",
          "name": "newOwner",
          "type": "address"
        }
      ],
      "name": "OwnershipTransferred",
      "type": "event"
    },
    {
      "inputs": [],
      "name": "MAINTAINER_CUT_PERCENT",
      "outputs": [
        {
          "internalType": "uint256",
          "name": "",
          "type": "uint256"
        }
      ],
      "stateMutability": "view",
      "type": "function"
    },
    {
      "inputs": [],
      "name": "UNI",
      "outputs": [
        {
          "internalType": "address",
          "name": "",
          "type": "address"
        }
      ],
      "stateMutability": "view",
      "type": "function"
    },
    {
      "inputs": [],
      "name": "UPDATE_MAX_PEG_AMOUNT",
      "outputs": [
        {
          "internalType": "uint256",
          "name": "",
          "type": "uint256"
        }
      ],
      "stateMutability": "view",
      "type": "function"
    },
    {
      "inputs": [],
      "name": "UPDATE_MIN_PEG_AMOUNT",
      "outputs": [
        {
          "internalType": "uint256",
          "name": "",
          "type": "uint256"
        }
      ],
      "stateMutability": "view",
      "type": "function"
    },
    {
      "inputs": [],
      "name": "UPDATE_RATE_PERMIL",
      "outputs": [
        {
          "internalType": "uint256",
          "name": "",
          "type": "uint256"
        }
      ],
      "stateMutability": "view",
      "type": "function"
    },
    {
      "inputs": [],
      "name": "avgLiquidationPerCall",
      "outputs": [
        {
          "internalType": "uint256",
          "name": "",
          "type": "uint256"
        }
      ],
      "stateMutability": "view",
      "type": "function"
    },
    {
      "inputs": [],
      "name": "coolingOffPeriod",
      "outputs": [
        {
          "internalType": "uint256",
          "name": "",
          "type": "uint256"
        }
      ],
      "stateMutability": "view",
      "type": "function"
    },
    {
      "inputs": [
        {
          "internalType": "address[]",
          "name": "liquidatedAccounts",
          "type": "address[]"
        }
      ],
      "name": "disburseLiqStakeAttacks",
      "outputs": [],
      "stateMutability": "nonpayable",
      "type": "function"
    },
    {
      "inputs": [
        {
          "internalType": "address",
          "name": "token",
          "type": "address"
        },
        {
          "internalType": "uint256",
          "name": "inAmount",
          "type": "uint256"
        }
      ],
      "name": "encouragePriceUpdate",
      "outputs": [
        {
          "internalType": "uint256",
          "name": "",
          "type": "uint256"
        }
      ],
      "stateMutability": "nonpayable",
      "type": "function"
    },
    {
      "inputs": [],
      "name": "failureThreshold",
      "outputs": [
        {
          "internalType": "uint256",
          "name": "",
          "type": "uint256"
        }
      ],
      "stateMutability": "view",
      "type": "function"
    },
    {
      "inputs": [
        {
          "internalType": "address",
          "name": "trader",
          "type": "address"
        }
      ],
      "name": "getBorrowAmounts",
      "outputs": [
        {
          "internalType": "address[]",
          "name": "borrowTokens",
          "type": "address[]"
        },
        {
          "internalType": "uint256[]",
          "name": "borrowAmounts",
          "type": "uint256[]"
        }
      ],
      "stateMutability": "view",
      "type": "function"
    },
    {
      "inputs": [
        {
          "internalType": "address",
          "name": "trader",
          "type": "address"
        }
      ],
      "name": "getHoldingAmounts",
      "outputs": [
        {
          "internalType": "address[]",
          "name": "holdingTokens",
          "type": "address[]"
        },
        {
          "internalType": "uint256[]",
          "name": "holdingAmounts",
          "type": "uint256[]"
        }
      ],
      "stateMutability": "view",
      "type": "function"
    },
    {
      "inputs": [
        {
          "internalType": "address",
          "name": "trader",
          "type": "address"
        }
      ],
      "name": "getLastDepositBlock",
      "outputs": [
        {
          "internalType": "uint256",
          "name": "",
          "type": "uint256"
        }
      ],
      "stateMutability": "view",
      "type": "function"
    },
    {
      "inputs": [],
      "name": "leverage",
      "outputs": [
        {
          "internalType": "uint256",
          "name": "",
          "type": "uint256"
        }
      ],
      "stateMutability": "view",
      "type": "function"
    },
    {
      "inputs": [],
      "name": "liqStakeAttackWindow",
      "outputs": [
        {
          "internalType": "uint256",
          "name": "",
          "type": "uint256"
        }
      ],
      "stateMutability": "view",
      "type": "function"
    },
    {
      "inputs": [
        {
          "internalType": "address[]",
          "name": "liquidationCandidates",
          "type": "address[]"
        }
      ],
      "name": "liquidate",
      "outputs": [
        {
          "internalType": "uint256",
          "name": "maintainerCut",
          "type": "uint256"
        }
      ],
      "stateMutability": "nonpayable",
      "type": "function"
    },
    {
      "inputs": [],
      "name": "liquidationThresholdPercent",
      "outputs": [
        {
          "internalType": "uint256",
          "name": "",
          "type": "uint256"
        }
      ],
      "stateMutability": "view",
      "type": "function"
    },
    {
      "inputs": [
        {
          "internalType": "uint256",
          "name": "",
          "type": "uint256"
        }
      ],
      "name": "mainCharacterCache",
      "outputs": [
        {
          "internalType": "address",
          "name": "",
          "type": "address"
        }
      ],
      "stateMutability": "view",
      "type": "function"
    },
    {
      "inputs": [
        {
          "internalType": "address",
          "name": "",
          "type": "address"
        }
      ],
      "name": "maintenanceFailures",
      "outputs": [
        {
          "internalType": "uint256",
          "name": "",
          "type": "uint256"
        }
      ],
      "stateMutability": "view",
      "type": "function"
    },
    {
      "inputs": [],
      "name": "owner",
      "outputs": [
        {
          "internalType": "address",
          "name": "",
          "type": "address"
        }
      ],
      "stateMutability": "view",
      "type": "function"
    },
    {
      "inputs": [],
      "name": "peg",
      "outputs": [
        {
          "internalType": "address",
          "name": "",
          "type": "address"
        }
      ],
      "stateMutability": "view",
      "type": "function"
    },
    {
      "inputs": [],
      "name": "priceUpdateWindow",
      "outputs": [
        {
          "internalType": "uint16",
          "name": "",
          "type": "uint16"
        }
      ],
      "stateMutability": "view",
      "type": "function"
    },
    {
      "inputs": [
        {
          "internalType": "address",
          "name": "trader",
          "type": "address"
        },
        {
          "internalType": "address",
          "name": "borrowToken",
          "type": "address"
        },
        {
          "internalType": "uint256",
          "name": "borrowAmount",
          "type": "uint256"
        }
      ],
      "name": "registerBorrow",
      "outputs": [],
      "stateMutability": "nonpayable",
      "type": "function"
    },
    {
      "inputs": [
        {
          "internalType": "address",
          "name": "trader",
          "type": "address"
        },
        {
          "internalType": "address",
          "name": "token",
          "type": "address"
        },
        {
          "internalType": "uint256",
          "name": "depositAmount",
          "type": "uint256"
        }
      ],
      "name": "registerDeposit",
      "outputs": [
        {
          "internalType": "uint256",
          "name": "extinguishableDebt",
          "type": "uint256"
        }
      ],
      "stateMutability": "nonpayable",
      "type": "function"
    },
    {
      "inputs": [
        {
          "internalType": "address",
          "name": "trader",
          "type": "address"
        }
      ],
      "name": "registerLiquidation",
      "outputs": [],
      "stateMutability": "nonpayable",
      "type": "function"
    },
    {
      "inputs": [
        {
          "internalType": "address",
          "name": "trader",
          "type": "address"
        },
        {
          "internalType": "address",
          "name": "tokenFrom",
          "type": "address"
        },
        {
          "internalType": "address",
          "name": "tokenTo",
          "type": "address"
        },
        {
          "internalType": "uint256",
          "name": "inAmount",
          "type": "uint256"
        },
        {
          "internalType": "uint256",
          "name": "outAmount",
          "type": "uint256"
        }
      ],
      "name": "registerTradeAndBorrow",
      "outputs": [
        {
          "internalType": "uint256",
          "name": "extinguishableDebt",
          "type": "uint256"
        },
        {
          "internalType": "uint256",
          "name": "borrowAmount",
          "type": "uint256"
        }
      ],
      "stateMutability": "nonpayable",
      "type": "function"
    },
    {
      "inputs": [
        {
          "internalType": "address",
          "name": "trader",
          "type": "address"
        },
        {
          "internalType": "address",
          "name": "withdrawToken",
          "type": "address"
        },
        {
          "internalType": "uint256",
          "name": "withdrawAmount",
          "type": "uint256"
        }
      ],
      "name": "registerWithdrawal",
      "outputs": [],
      "stateMutability": "nonpayable",
      "type": "function"
    },
    {
      "inputs": [],
      "name": "renounceOwnership",
      "outputs": [],
      "stateMutability": "nonpayable",
      "type": "function"
    },
    {
      "inputs": [
        {
          "internalType": "address",
          "name": "",
          "type": "address"
        },
        {
          "internalType": "uint256",
          "name": "",
          "type": "uint256"
        }
      ],
      "name": "roleCache",
      "outputs": [
        {
          "internalType": "bool",
          "name": "",
          "type": "bool"
        }
      ],
      "stateMutability": "view",
      "type": "function"
    },
    {
      "inputs": [],
      "name": "roles",
      "outputs": [
        {
          "internalType": "contract Roles",
          "name": "",
          "type": "address"
        }
      ],
      "stateMutability": "view",
      "type": "function"
    },
    {
      "inputs": [
        {
          "internalType": "uint256",
          "name": "rate",
          "type": "uint256"
        }
      ],
      "name": "setConfidentUpdateRate",
      "outputs": [],
      "stateMutability": "nonpayable",
      "type": "function"
    },
    {
      "inputs": [
        {
          "internalType": "uint256",
          "name": "blocks",
          "type": "uint256"
        }
      ],
      "name": "setCoolingOffPeriod",
      "outputs": [],
      "stateMutability": "nonpayable",
      "type": "function"
    },
    {
      "inputs": [
        {
          "internalType": "uint256",
          "name": "threshFactor",
          "type": "uint256"
        }
      ],
      "name": "setFailureThreshold",
      "outputs": [],
      "stateMutability": "nonpayable",
      "type": "function"
    },
    {
      "inputs": [
        {
          "internalType": "uint256",
          "name": "_leverage",
          "type": "uint256"
        }
      ],
      "name": "setLeverage",
      "outputs": [],
      "stateMutability": "nonpayable",
      "type": "function"
    },
    {
      "inputs": [
        {
          "internalType": "uint256",
          "name": "window",
          "type": "uint256"
        }
      ],
      "name": "setLiqStakeAttackWindow",
      "outputs": [],
      "stateMutability": "nonpayable",
      "type": "function"
    },
    {
      "inputs": [
        {
          "internalType": "address[]",
          "name": "path",
          "type": "address[]"
        }
      ],
      "name": "setLiquidationPath",
      "outputs": [],
      "stateMutability": "nonpayable",
      "type": "function"
    },
    {
      "inputs": [
        {
          "internalType": "uint256",
          "name": "threshold",
          "type": "uint256"
        }
      ],
      "name": "setLiquidationThresholdPercent",
      "outputs": [],
      "stateMutability": "nonpayable",
      "type": "function"
    },
    {
      "inputs": [
        {
          "internalType": "uint256",
          "name": "cut",
          "type": "uint256"
        }
      ],
      "name": "setMaintainerCutPercent",
      "outputs": [],
      "stateMutability": "nonpayable",
      "type": "function"
    },
    {
      "inputs": [
        {
          "internalType": "uint16",
          "name": "window",
          "type": "uint16"
        }
      ],
      "name": "setPriceUpdateWindow",
      "outputs": [],
      "stateMutability": "nonpayable",
      "type": "function"
    },
    {
      "inputs": [
        {
          "internalType": "address",
          "name": "token",
          "type": "address"
        },
        {
          "internalType": "uint256",
          "name": "cap",
          "type": "uint256"
        }
      ],
      "name": "setTokenCap",
      "outputs": [],
      "stateMutability": "nonpayable",
      "type": "function"
    },
    {
      "inputs": [
        {
          "internalType": "uint256",
          "name": "amount",
          "type": "uint256"
        }
      ],
      "name": "setUpdateMaxPegAmount",
      "outputs": [],
      "stateMutability": "nonpayable",
      "type": "function"
    },
    {
      "inputs": [
        {
          "internalType": "uint256",
          "name": "amount",
          "type": "uint256"
        }
      ],
      "name": "setUpdateMinPegAmount",
      "outputs": [],
      "stateMutability": "nonpayable",
      "type": "function"
    },
    {
      "inputs": [
        {
          "internalType": "address",
          "name": "",
          "type": "address"
        }
      ],
      "name": "stakeAttackRecords",
      "outputs": [
        {
          "internalType": "uint256",
          "name": "blockNum",
          "type": "uint256"
        },
        {
          "internalType": "address",
          "name": "loser",
          "type": "address"
        },
        {
          "internalType": "uint256",
          "name": "amount",
          "type": "uint256"
        },
        {
          "internalType": "address",
          "name": "stakeAttacker",
          "type": "address"
        }
      ],
      "stateMutability": "view",
      "type": "function"
    },
    {
      "inputs": [
        {
          "internalType": "address",
          "name": "",
          "type": "address"
        }
      ],
      "name": "tokenCaps",
      "outputs": [
        {
          "internalType": "uint256",
          "name": "",
          "type": "uint256"
        }
      ],
      "stateMutability": "view",
      "type": "function"
    },
    {
      "inputs": [
        {
          "internalType": "address",
          "name": "",
          "type": "address"
        }
      ],
      "name": "tokenPrices",
      "outputs": [
        {
          "internalType": "uint256",
          "name": "blockLastUpdated",
          "type": "uint256"
        },
        {
          "internalType": "uint256",
          "name": "tokenPer1k",
          "type": "uint256"
        }
      ],
      "stateMutability": "view",
      "type": "function"
    },
    {
      "inputs": [
        {
          "internalType": "address",
          "name": "",
          "type": "address"
        }
      ],
      "name": "totalLong",
      "outputs": [
        {
          "internalType": "uint256",
          "name": "",
          "type": "uint256"
        }
      ],
      "stateMutability": "view",
      "type": "function"
    },
    {
      "inputs": [
        {
          "internalType": "address",
          "name": "",
          "type": "address"
        }
      ],
      "name": "totalShort",
      "outputs": [
        {
          "internalType": "uint256",
          "name": "",
          "type": "uint256"
        }
      ],
      "stateMutability": "view",
      "type": "function"
    },
    {
      "inputs": [
        {
          "internalType": "address",
          "name": "newOwner",
          "type": "address"
        }
      ],
      "name": "transferOwnership",
      "outputs": [],
      "stateMutability": "nonpayable",
      "type": "function"
    },
    {
      "inputs": [
        {
          "internalType": "uint256",
          "name": "role",
          "type": "uint256"
        }
      ],
      "name": "updateMainCharacterCache",
      "outputs": [],
      "stateMutability": "nonpayable",
      "type": "function"
    },
    {
      "inputs": [
        {
          "internalType": "uint256",
          "name": "role",
          "type": "uint256"
        },
        {
          "internalType": "address",
          "name": "contr",
          "type": "address"
        }
      ],
      "name": "updateRoleCache",
      "outputs": [],
      "stateMutability": "nonpayable",
      "type": "function"
    },
    {
      "inputs": [
        {
          "internalType": "address",
          "name": "trader",
          "type": "address"
        }
      ],
      "name": "viewHoldingsInPeg",
      "outputs": [
        {
          "internalType": "uint256",
          "name": "",
          "type": "uint256"
        }
      ],
      "stateMutability": "view",
      "type": "function"
    },
    {
      "inputs": [
        {
          "internalType": "address",
          "name": "trader",
          "type": "address"
        }
      ],
      "name": "viewLoanInPeg",
      "outputs": [
        {
          "internalType": "uint256",
          "name": "amount",
          "type": "uint256"
        }
      ],
      "stateMutability": "view",
      "type": "function"
    }
  ],
  "transactionHash": "0x390db34d11c9e16ec146b1d6a24067264388243f62a948b981d52ff9242f05b8",
  "args": [
    "0x00794B39C9f53De95740E78284dE52AAE7eed8e4",
    "0xC95531a7f6C57456718BCd69a5f64829C7973f11"
  ],
  "solcInputHash": "ec45310c1ebd228212cbc01f9840ea7e",
  "bytecode": "0x60c06040526004805461ffff191660081790556050600590815561c3506006556103e8600755600a601581905560168290556017919091556018553480156200004757600080fd5b5060405162006094380380620060948339810160408190526200006a9162000141565b818160006200007862000120565b600080546001600160a01b0319166001600160a01b0383169081178255604051929350917f8be0079c531659141344cd1fd0a4f28419497f9722a3daafe3b4186f6b6457e0908290a3506001600160a01b038116620000f45760405162461bcd60e51b8152600401620000eb9062000178565b60405180910390fd5b6001600160601b0319606091821b811660805291901b1660a0525050606e6009556014600e55620001ba565b3390565b80516001600160a01b03811681146200013c57600080fd5b919050565b6000806040838503121562000154578182fd5b6200015f8362000124565b91506200016f6020840162000124565b90509250929050565b60208082526022908201527f506c656173652070726f766964652076616c696420726f6c6573206164647265604082015261737360f01b606082015260800190565b60805160601c60a05160601c615e6f6200022560003960008181610b100152818161223d0152818161237001528181612e1201528181614815015281816149e501528181614c290152614d3801526000818161072501528181610ee401526111bb0152615e6f6000f3fe608060405234801561001057600080fd5b506004361061034c5760003560e01c8063541bcb76116101bd578063badb5048116100f9578063e0f3871f116100a2578063f171c6011161007c578063f171c601146106a7578063f2fde38b146106ba578063f99fd97c146106cd578063f9c7aece146106e05761034c565b8063e0f3871f1461066e578063e9c3f77d14610681578063eac29dd6146106945761034c565b8063d0eb6653116100d3578063d0eb665314610635578063d510c53514610648578063db2d904d1461065b5761034c565b8063badb5048146105ec578063bc44dcbc1461060f578063c73afac2146106225761034c565b80637d100e8411610166578063a17ab52711610140578063a17ab527146105a0578063a3718919146105b3578063a75697a5146105c6578063a985994b146105d95761034c565b80637d100e841461057d5780638da5cb5b14610585578063a00891591461058d5761034c565b8063715018a611610197578063715018a61461054257806379575b231461054a5780637a1a04df1461055d5761034c565b8063541bcb761461051f5780636585b5a6146105275780636cd7bc4b1461052f5761034c565b80632febaa741161028c578063409fdb72116102355780634aa4aca31161020f5780634aa4aca3146104f4578063519bda85146104fc57806352a664d914610504578063538edb29146105175761034c565b8063409fdb72146104ad578063447d52ba146104ce578063498d55eb146104e15761034c565b8063392f5f6411610266578063392f5f641461047d5780633ed456fa146104855780633ffc17c01461049a5761034c565b80632febaa741461045a578063320d2fa0146104625780633500aa0b1461046a5761034c565b80631f1cb62b116102f957806320c27126116102d357806320c2712614610424578063236c80c214610437578063299cf2d21461044a5780632c86d98e146104525761034c565b80631f1cb62b146103c55780631f692a64146103e3578063204120bc146104035761034c565b806316317e7e1161032a57806316317e7e1461038c57806319fa00e11461039f5780631d47e4a3146103b25761034c565b8063071060a61461035157806307c201751461036657806310d5843414610379575b600080fd5b61036461035f366004615494565b6106e8565b005b610364610374366004615330565b6107fd565b610364610387366004615494565b610935565b61036461039a366004615494565b6109b6565b6103646103ad366004615494565b610a2e565b6103646103c03660046152d8565b610aa6565b6103cd610b0e565b6040516103da919061558b565b60405180910390f35b6103f66103f1366004615206565b610b32565b6040516103da9190615bab565b610416610411366004615206565b610b74565b6040516103da929190615c38565b6103f6610432366004615206565b610b8d565b6103f66104453660046152d8565b610b9f565b6103f6610bb6565b6103f6610bbc565b6103f6610bc2565b6103f6610bc8565b61041661047836600461523e565b610bce565b6103cd610ee2565b61048d610f06565b6040516103da9190615b9c565b6103646104a8366004615494565b610f10565b6104c06104bb366004615206565b610f88565b6040516103da9291906156e1565b6103646104dc3660046154c4565b61117e565b6103646104ef366004615298565b6112a5565b6103f6611434565b6103f661143a565b6103f6610512366004615298565b611440565b6103f6611601565b6103cd611607565b6103f661161f565b61036461053d366004615330565b611625565b610364611bc3565b610364610558366004615494565b611ca5565b61057061056b3660046152d8565b611d1d565b6040516103da9190615737565b6103f6611d3d565b6103cd611d43565b61036461059b366004615472565b611d60565b6103f66105ae366004615206565b611e08565b6103646105c1366004615494565b611e3d565b6103f66105d4366004615206565b611eb5565b6103f66105e7366004615330565b611ec7565b6105ff6105fa366004615206565b612552565b6040516103da9493929190615c04565b6103f661061d366004615206565b612593565b610364610630366004615494565b6125a5565b610364610643366004615298565b61261d565b6104c0610656366004615206565b61279c565b610364610669366004615206565b612a1a565b6103f661067c366004615206565b612aca565b6103cd61068f366004615494565b612adc565b6103f66106a2366004615206565b612b04565b6103646106b5366004615494565b612b2c565b6103646106c8366004615206565b612ba4565b6103646106db366004615494565b612cf1565b6103f6612d69565b6040517fb4ed0b6d00000000000000000000000000000000000000000000000000000000815273ffffffffffffffffffffffffffffffffffffffff7f0000000000000000000000000000000000000000000000000000000000000000169063b4ed0b6d9061075a908490600401615bab565b60206040518083038186803b15801561077257600080fd5b505afa158015610786573d6000803e3d6000fd5b505050506040513d601f19601f820116820180604052508101906107aa9190615222565b60009182526001602052604090912080547fffffffffffffffffffffffff00000000000000000000000000000000000000001673ffffffffffffffffffffffffffffffffffffffff909216919091179055565b60005b8082511115610931576000828281518110610844577f4e487b7100000000000000000000000000000000000000000000000000000000600052603260045260246000fd5b602002602001015190506000601460008373ffffffffffffffffffffffffffffffffffffffff1673ffffffffffffffffffffffffffffffffffffffff168152602001908152602001600020905060165481600001546108a39190615cb9565b43111561091c576108b381612d6f565b5073ffffffffffffffffffffffffffffffffffffffff821660009081526014602052604081208181556001810180547fffffffffffffffffffffffff00000000000000000000000000000000000000009081169091556002820192909255600301805490911690555b5050808061092990615d80565b915050610800565b5050565b61093d612fea565b73ffffffffffffffffffffffffffffffffffffffff1661095b611d43565b73ffffffffffffffffffffffffffffffffffffffff16146109b1576040517f08c379a00000000000000000000000000000000000000000000000000000000081526004016109a8906159f3565b60405180910390fd5b601855565b6109be612fea565b73ffffffffffffffffffffffffffffffffffffffff166109dc611d43565b73ffffffffffffffffffffffffffffffffffffffff1614610a29576040517f08c379a00000000000000000000000000000000000000000000000000000000081526004016109a8906159f3565b600955565b610a36612fea565b73ffffffffffffffffffffffffffffffffffffffff16610a54611d43565b73ffffffffffffffffffffffffffffffffffffffff1614610aa1576040517f08c379a00000000000000000000000000000000000000000000000000000000081526004016109a8906159f3565b600755565b610aaf33612fee565b610ae5576040517f08c379a00000000000000000000000000000000000000000000000000000000081526004016109a890615742565b73ffffffffffffffffffffffffffffffffffffffff9091166000908152600b6020526040902055565b7f000000000000000000000000000000000000000000000000000000000000000081565b73ffffffffffffffffffffffffffffffffffffffff81166000908152600a60205260408120610b6b600182016002830160038401613025565b9150505b919050565b6003602052600090815260409020805460019091015482565b600d6020526000908152604090205481565b6000610bad838360016130d5565b90505b92915050565b60065481565b60085481565b600e5481565b60095481565b600080610bda336131a0565b610c10576040517f08c379a00000000000000000000000000000000000000000000000000000000081526004016109a8906157fc565b73ffffffffffffffffffffffffffffffffffffffff8088166000908152600a6020908152604080832093891683526002840190915290205415610cc85773ffffffffffffffffffffffffffffffffffffffff86166000908152600282016020526040902054610c809085906131d7565b9250610c8d8187856131ef565b73ffffffffffffffffffffffffffffffffffffffff86166000908152600c602052604081208054859290610cc2908490615d47565b90915550505b73ffffffffffffffffffffffffffffffffffffffff87166000908152600d602052604081208054879290610cfd908490615d47565b90915550610d0d90508385615d47565b73ffffffffffffffffffffffffffffffffffffffff87166000908152600d602052604081208054909190610d42908490615cb9565b909155505073ffffffffffffffffffffffffffffffffffffffff86166000908152600d6020908152604080832054600b909252909120541015610db1576040517f08c379a00000000000000000000000000000000000000000000000000000000081526004016109a890615a28565b73ffffffffffffffffffffffffffffffffffffffff871660009081526005820160205260409020548590811115610ec9575073ffffffffffffffffffffffffffffffffffffffff87166000908152600582016020526040902054610e158187615d47565b73ffffffffffffffffffffffffffffffffffffffff89166000908152600c6020526040812080549295508592909190610e4f908490615cb9565b909155505073ffffffffffffffffffffffffffffffffffffffff88166000908152600c6020908152604080832054600b909252909120541015610ebe576040517f08c379a00000000000000000000000000000000000000000000000000000000081526004016109a890615a28565b610ec9828985613623565b610ed682898984896138ad565b50509550959350505050565b7f000000000000000000000000000000000000000000000000000000000000000081565b60045461ffff1681565b610f18612fea565b73ffffffffffffffffffffffffffffffffffffffff16610f36611d43565b73ffffffffffffffffffffffffffffffffffffffff1614610f83576040517f08c379a00000000000000000000000000000000000000000000000000000000081526004016109a8906159f3565b600655565b73ffffffffffffffffffffffffffffffffffffffff81166000908152600a602090815260409182902060048101805484518185028101850190955280855260609485949092919083018282801561101557602002820191906000526020600020905b815473ffffffffffffffffffffffffffffffffffffffff168152600190910190602001808311610fea575b5050506004840154929550505067ffffffffffffffff811115611061577f4e487b7100000000000000000000000000000000000000000000000000000000600052604160045260246000fd5b60405190808252806020026020018201604052801561108a578160200160208202803683370190505b50915060005b80845111156111775760008482815181106110d4577f4e487b7100000000000000000000000000000000000000000000000000000000600052603260045260246000fd5b602002602001015190508260050160008273ffffffffffffffffffffffffffffffffffffffff1673ffffffffffffffffffffffffffffffffffffffff16815260200190815260200160002054848381518110611159577f4e487b7100000000000000000000000000000000000000000000000000000000600052603260045260246000fd5b6020908102919091010152508061116f81615d80565b915050611090565b5050915091565b6040517f93552a3d00000000000000000000000000000000000000000000000000000000815273ffffffffffffffffffffffffffffffffffffffff7f000000000000000000000000000000000000000000000000000000000000000016906393552a3d906111f29085908590600401615bb4565b60206040518083038186803b15801561120a57600080fd5b505afa15801561121e573d6000803e3d6000fd5b505050506040513d601f19601f820116820180604052508101906112429190615452565b73ffffffffffffffffffffffffffffffffffffffff9190911660009081526002602090815260408083209483529390529190912080547fffffffffffffffffffffffffffffffffffffffffffffffffffffffffffffff0016911515919091179055565b6112ae336131a0565b6112e4576040517f08c379a00000000000000000000000000000000000000000000000000000000081526004016109a890615ae2565b73ffffffffffffffffffffffffffffffffffffffff82166000908152600c602052604081208054839290611319908490615cb9565b909155505073ffffffffffffffffffffffffffffffffffffffff82166000908152600d602052604081208054839290611353908490615cb9565b909155505073ffffffffffffffffffffffffffffffffffffffff82166000908152600c6020908152604080832054600b90925290912054108015906113c8575073ffffffffffffffffffffffffffffffffffffffff82166000908152600d6020908152604080832054600b9092529091205410155b6113fe576040517f08c379a00000000000000000000000000000000000000000000000000000000081526004016109a890615a28565b73ffffffffffffffffffffffffffffffffffffffff83166000908152600a6020526040902061142e818484613623565b50505050565b60165481565b60055481565b600061144b336131a0565b611481576040517f08c379a00000000000000000000000000000000000000000000000000000000081526004016109a890615ae2565b73ffffffffffffffffffffffffffffffffffffffff8085166000908152600a60209081526040808320938716835260028401909152902054156115395773ffffffffffffffffffffffffffffffffffffffff841660009081526002820160205260409020546114f19084906131d7565b91506114fe8185846131ef565b73ffffffffffffffffffffffffffffffffffffffff84166000908152600c602052604081208054849290611533908490615d47565b90915550505b60006115458385615d47565b905061155282868361391a565b73ffffffffffffffffffffffffffffffffffffffff85166000908152600d602052604081208054839290611587908490615cb9565b909155505073ffffffffffffffffffffffffffffffffffffffff85166000908152600d6020908152604080832054600b9092529091205410156115f6576040517f08c379a00000000000000000000000000000000000000000000000000000000081526004016109a890615a28565b504390559392505050565b60175481565b735c69bee701ef814a2b6a3edd4b1652cb9cc5aa6f81565b60155481565b61162e33612fee565b611664576040517f08c379a00000000000000000000000000000000000000000000000000000000081526004016109a8906158b6565b6000816000815181106116a0577f4e487b7100000000000000000000000000000000000000000000000000000000600052603260045260246000fd5b60200260200101519050815167ffffffffffffffff8111156116eb577f4e487b7100000000000000000000000000000000000000000000000000000000600052604160045260246000fd5b604051908082528060200260200182016040528015611714578160200160208202803683370190505b5073ffffffffffffffffffffffffffffffffffffffff82166000908152600360209081526040909120825161175393600290920192919091019061514d565b50815167ffffffffffffffff811115611795577f4e487b7100000000000000000000000000000000000000000000000000000000600052604160045260246000fd5b6040519080825280602002602001820160405280156117be578160200160208202803683370190505b5073ffffffffffffffffffffffffffffffffffffffff8216600090815260036020818152604090922083516117f9949190920192019061514d565b5060005b8061ffff1683511115611a5057828161ffff1681518110611847577f4e487b7100000000000000000000000000000000000000000000000000000000600052603260045260246000fd5b6020026020010151600360008473ffffffffffffffffffffffffffffffffffffffff1673ffffffffffffffffffffffffffffffffffffffff1681526020019081526020016000206002018261ffff16815481106118cd577f4e487b7100000000000000000000000000000000000000000000000000000000600052603260045260246000fd5b9060005260206000200160006101000a81548173ffffffffffffffffffffffffffffffffffffffff021916908373ffffffffffffffffffffffffffffffffffffffff1602179055508260018261ffff1685516119299190615d47565b6119339190615d47565b8151811061196a577f4e487b7100000000000000000000000000000000000000000000000000000000600052603260045260246000fd5b6020026020010151600360008473ffffffffffffffffffffffffffffffffffffffff1673ffffffffffffffffffffffffffffffffffffffff1681526020019081526020016000206003018261ffff16815481106119f0577f4e487b7100000000000000000000000000000000000000000000000000000000600052603260045260246000fd5b600091825260209091200180547fffffffffffffffffffffffff00000000000000000000000000000000000000001673ffffffffffffffffffffffffffffffffffffffff9290921691909117905580611a4881615d5e565b9150506117fd565b506000611a5b6139bf565b73ffffffffffffffffffffffffffffffffffffffff1663192128b2735c69bee701ef814a2b6a3edd4b1652cb9cc5aa6f683635c9adc5dea00000866040518463ffffffff1660e01b8152600401611ab4939291906155dd565b60006040518083038186803b158015611acc57600080fd5b505afa158015611ae0573d6000803e3d6000fd5b505050506040513d6000823e601f3d9081017fffffffffffffffffffffffffffffffffffffffffffffffffffffffffffffffe0168201604052611b2691908101906153ce565b9050600081600081518110611b64577f4e487b7100000000000000000000000000000000000000000000000000000000600052603260045260246000fd5b6020026020010151905061142e600360008573ffffffffffffffffffffffffffffffffffffffff1673ffffffffffffffffffffffffffffffffffffffff16815260200190815260200160002082683635c9adc5dea000006103e8613a04565b611bcb612fea565b73ffffffffffffffffffffffffffffffffffffffff16611be9611d43565b73ffffffffffffffffffffffffffffffffffffffff1614611c36576040517f08c379a00000000000000000000000000000000000000000000000000000000081526004016109a8906159f3565b6000805460405173ffffffffffffffffffffffffffffffffffffffff909116907f8be0079c531659141344cd1fd0a4f28419497f9722a3daafe3b4186f6b6457e0908390a3600080547fffffffffffffffffffffffff0000000000000000000000000000000000000000169055565b611cad612fea565b73ffffffffffffffffffffffffffffffffffffffff16611ccb611d43565b73ffffffffffffffffffffffffffffffffffffffff1614611d18576040517f08c379a00000000000000000000000000000000000000000000000000000000081526004016109a8906159f3565b600855565b600260209081526000928352604080842090915290825290205460ff1681565b60185481565b60005473ffffffffffffffffffffffffffffffffffffffff165b90565b611d68612fea565b73ffffffffffffffffffffffffffffffffffffffff16611d86611d43565b73ffffffffffffffffffffffffffffffffffffffff1614611dd3576040517f08c379a00000000000000000000000000000000000000000000000000000000081526004016109a8906159f3565b600480547fffffffffffffffffffffffffffffffffffffffffffffffffffffffffffff00001661ffff92909216919091179055565b73ffffffffffffffffffffffffffffffffffffffff81166000908152600a60205260408120610b6b6004820160058301613a7b565b611e45612fea565b73ffffffffffffffffffffffffffffffffffffffff16611e63611d43565b73ffffffffffffffffffffffffffffffffffffffff1614611eb0576040517f08c379a00000000000000000000000000000000000000000000000000000000081526004016109a8906159f3565b601655565b60136020526000908152604090205481565b6000333214611f02576040517f08c379a00000000000000000000000000000000000000000000000000000000081526004016109a89061579f565b6000611f0c613b29565b73ffffffffffffffffffffffffffffffffffffffff16637b23cbce336040518263ffffffff1660e01b8152600401611f44919061558b565b602060405180830381600087803b158015611f5e57600080fd5b505af1158015611f72573d6000803e3d6000fd5b505050506040513d601f19601f82011682018060405250810190611f969190615452565b905060008180611fa95750611fa9613b6e565b9050611fb58483613c35565b92506000611fc1614201565b90506000611fcd614310565b90508160646017546064611fe19190615cb9565b611feb9084615d0a565b611ff59190615cd1565b111561203c577f3555ffae7677eb42103f0b9e11b61c758f452fae446684dec7a363dd38ab58fc6120268383615d47565b6040516120339190615bab565b60405180910390a15b6000836120cd5761204b613b29565b73ffffffffffffffffffffffffffffffffffffffff16631a38de1d6040518163ffffffff1660e01b8152600401602060405180830381600087803b15801561209257600080fd5b505af11580156120a6573d6000803e3d6000fd5b505050506040513d601f19601f820116820180604052508101906120ca9190615222565b90505b60005b60125481101561231b57600060128281548110612116577f4e487b7100000000000000000000000000000000000000000000000000000000600052603260045260246000fd5b600091825260208083209091015473ffffffffffffffffffffffffffffffffffffffff16808352600a909152604082209092509061215582600161441c565b9050600061216483600161442f565b905060006064601754836121789190615d0a565b6121829190615cd1565b905061218e818d615cb9565b9b50896122085773ffffffffffffffffffffffffffffffffffffffff858116600090815260146020526040902060028101839055600381018054337fffffffffffffffffffffffff000000000000000000000000000000000000000091821617909155438255600190910180549091169189169190911790555b6122128282615cb9565b83106122c357612220614446565b73ffffffffffffffffffffffffffffffffffffffff1663d9caed127f000000000000000000000000000000000000000000000000000000000000000087846122688789615d47565b6122729190615d47565b6040518463ffffffff1660e01b8152600401612290939291906155ac565b600060405180830381600087803b1580156122aa57600080fd5b505af11580156122be573d6000803e3d6000fd5b505050505b7f1d2cc4c8661a04a00b4e727426220501b36d85bb330947642c2d4320667028cf856040516122f2919061558b565b60405180910390a16123038461448b565b5050505050808061231390615d80565b9150506120d0565b50606486601554606361232e9190615d0a565b6123389190615cb9565b6123429190615cd1565b60155583156123e257612353614446565b73ffffffffffffffffffffffffffffffffffffffff1663d9caed127f000000000000000000000000000000000000000000000000000000000000000033896040518463ffffffff1660e01b81526004016123af939291906155ac565b600060405180830381600087803b1580156123c957600080fd5b505af11580156123dd573d6000803e3d6000fd5b505050505b60006123ec613b29565b73ffffffffffffffffffffffffffffffffffffffff16631a38de1d6040518163ffffffff1660e01b8152600401602060405180830381600087803b15801561243357600080fd5b505af1158015612447573d6000803e3d6000fd5b505050506040513d601f19601f8201168201806040525081019061246b9190615222565b9050851561250c5773ffffffffffffffffffffffffffffffffffffffff81166000908152601360205260409020548710156124e05773ffffffffffffffffffffffffffffffffffffffff8116600090815260136020526040812080548992906124d5908490615d47565b909155506125079050565b73ffffffffffffffffffffffffffffffffffffffff81166000908152601360205260408120555b612547565b73ffffffffffffffffffffffffffffffffffffffff811660009081526013602052604081208054899290612541908490615cb9565b90915550505b505050505050919050565b6014602052600090815260409020805460018201546002830154600390930154919273ffffffffffffffffffffffffffffffffffffffff9182169290911684565b600c6020526000908152604090205481565b6125ad612fea565b73ffffffffffffffffffffffffffffffffffffffff166125cb611d43565b73ffffffffffffffffffffffffffffffffffffffff1614612618576040517f08c379a00000000000000000000000000000000000000000000000000000000081526004016109a8906159f3565b601755565b612626336131a0565b61265c576040517f08c379a00000000000000000000000000000000000000000000000000000000081526004016109a890615ae2565b73ffffffffffffffffffffffffffffffffffffffff83166000908152600a60205260409020600e5481546126909190615cb9565b43116126c8576040517f08c379a00000000000000000000000000000000000000000000000000000000081526004016109a890615970565b73ffffffffffffffffffffffffffffffffffffffff83166000908152600d6020526040812080548492906126fd908490615d47565b909155505073ffffffffffffffffffffffffffffffffffffffff83166000908152600582016020526040902054612735908390615d47565b73ffffffffffffffffffffffffffffffffffffffff841660009081526005830160205260409020556127668161469f565b61142e576040517f08c379a00000000000000000000000000000000000000000000000000000000081526004016109a890615913565b73ffffffffffffffffffffffffffffffffffffffff81166000908152600a602090815260409182902060018101805484518185028101850190955280855260609485949092919083018282801561282957602002820191906000526020600020905b815473ffffffffffffffffffffffffffffffffffffffff1681526001909101906020018083116127fe575b5050506001840154929550505067ffffffffffffffff811115612875577f4e487b7100000000000000000000000000000000000000000000000000000000600052604160045260246000fd5b60405190808252806020026020018201604052801561289e578160200160208202803683370190505b50915060005b80845111156111775760008482815181106128e8577f4e487b7100000000000000000000000000000000000000000000000000000000600052603260045260246000fd5b602002602001015190506128fa6146ef565b73ffffffffffffffffffffffffffffffffffffffff828116600090815260028601602090815260408083205460038901909252918290205491517f687680ed000000000000000000000000000000000000000000000000000000008152939092169263687680ed92612973929091869190600401615bd8565b60206040518083038186803b15801561298b57600080fd5b505afa15801561299f573d6000803e3d6000fd5b505050506040513d601f19601f820116820180604052508101906129c391906154ac565b8483815181106129fc577f4e487b7100000000000000000000000000000000000000000000000000000000600052603260045260246000fd5b60209081029190910101525080612a1281615d80565b9150506128a4565b612a23336131a0565b612a59576040517f08c379a00000000000000000000000000000000000000000000000000000000081526004016109a8906157fc565b73ffffffffffffffffffffffffffffffffffffffff81166000908152600a6020526040812090612a8a90829061442f565b15612ac1576040517f08c379a00000000000000000000000000000000000000000000000000000000081526004016109a890615b3f565b6109318161448b565b600b6020526000908152604090205481565b60016020526000908152604090205473ffffffffffffffffffffffffffffffffffffffff1681565b73ffffffffffffffffffffffffffffffffffffffff166000908152600a602052604090205490565b612b34612fea565b73ffffffffffffffffffffffffffffffffffffffff16612b52611d43565b73ffffffffffffffffffffffffffffffffffffffff1614612b9f576040517f08c379a00000000000000000000000000000000000000000000000000000000081526004016109a8906159f3565b600555565b612bac612fea565b73ffffffffffffffffffffffffffffffffffffffff16612bca611d43565b73ffffffffffffffffffffffffffffffffffffffff1614612c17576040517f08c379a00000000000000000000000000000000000000000000000000000000081526004016109a8906159f3565b73ffffffffffffffffffffffffffffffffffffffff8116612c64576040517f08c379a00000000000000000000000000000000000000000000000000000000081526004016109a890615859565b6000805460405173ffffffffffffffffffffffffffffffffffffffff808516939216917f8be0079c531659141344cd1fd0a4f28419497f9722a3daafe3b4186f6b6457e091a3600080547fffffffffffffffffffffffff00000000000000000000000000000000000000001673ffffffffffffffffffffffffffffffffffffffff92909216919091179055565b612cf9612fea565b73ffffffffffffffffffffffffffffffffffffffff16612d17611d43565b73ffffffffffffffffffffffffffffffffffffffff1614612d64576040517f08c379a00000000000000000000000000000000000000000000000000000000081526004016109a8906159f3565b600e55565b60075481565b600281015460009015610b6f578154600090612d9790612d8f9043615d47565b6016546131d7565b90506000601654828560020154612dae9190615d0a565b612db89190615cd1565b9050612dc2614446565b60038501546040517fd9caed1200000000000000000000000000000000000000000000000000000000815273ffffffffffffffffffffffffffffffffffffffff9283169263d9caed1292612e40927f0000000000000000000000000000000000000000000000000000000000000000929091169086906004016155ac565b600060405180830381600087803b158015612e5a57600080fd5b505af1158015612e6e573d6000803e3d6000fd5b505050506000612e7c613b29565b90506000601554838373ffffffffffffffffffffffffffffffffffffffff16630ad691506040518163ffffffff1660e01b815260040160206040518083038186803b158015612eca57600080fd5b505afa158015612ede573d6000803e3d6000fd5b505050506040513d601f19601f82011682018060405250810190612f0291906154ac565b612f0c9190615d0a565b612f169190615cd1565b600187015460038801546040517f0a45bc1b00000000000000000000000000000000000000000000000000000000815292935073ffffffffffffffffffffffffffffffffffffffff80861693630a45bc1b93612f7d93908316928792911690600401615641565b602060405180830381600087803b158015612f9757600080fd5b505af1158015612fab573d6000803e3d6000fd5b505050506040513d601f19601f82011682018060405250810190612fcf91906154ac565b50828660020154612fe09190615d47565b9695505050505050565b3390565b73ffffffffffffffffffffffffffffffffffffffff1660009081526002602090815260408083206009845290915290205460ff1690565b6000805b84548110156130cd57600085828154811061306d577f4e487b7100000000000000000000000000000000000000000000000000000000600052603260045260246000fd5b600091825260208083209091015473ffffffffffffffffffffffffffffffffffffffff16808352908790526040909120549091506130ad90829086614734565b6130b79084615cb9565b92505080806130c590615d80565b915050613029565b509392505050565b73ffffffffffffffffffffffffffffffffffffffff83166000908152600360205260408120821561313857600454815461ffff909116906131169043615d47565b111561312e576131268585614811565b915050613199565b61312685856149e1565b600181015461314b576131268585614811565b600454815461ffff909116906131619043615d47565b1115613173576131718585614811565b505b600181015461318b85683635c9adc5dea00000615d0a565b6131959190615cd1565b9150505b9392505050565b73ffffffffffffffffffffffffffffffffffffffff1660009081526002602090815260408083206004845290915290205460ff1690565b6000818311156131e8575080610bb0565b5081610bb0565b6131f76146ef565b73ffffffffffffffffffffffffffffffffffffffff838116600090815260028601602090815260408083205460038901909252918290205491517fe695fa68000000000000000000000000000000000000000000000000000000008152939092169263e695fa6892613270929091879190600401615bd8565b602060405180830381600087803b15801561328a57600080fd5b505af115801561329e573d6000803e3d6000fd5b505050506040513d601f19601f820116820180604052508101906132c291906154ac565b73ffffffffffffffffffffffffffffffffffffffff8316600090815260028501602052604090208190556132f7908290615d47565b73ffffffffffffffffffffffffffffffffffffffff831660009081526002850160209081526040808320939093556005860190522054613338908290615d47565b73ffffffffffffffffffffffffffffffffffffffff831660009081526005850160209081526040808320939093556002860190522054156134305761337b6146ef565b73ffffffffffffffffffffffffffffffffffffffff1663e5ea6606836040518263ffffffff1660e01b81526004016133b3919061558b565b60206040518083038186803b1580156133cb57600080fd5b505afa1580156133df573d6000803e3d6000fd5b505050506040513d601f19601f8201168201806040525081019061340391906154ac565b73ffffffffffffffffffffffffffffffffffffffff8316600090815260038501602052604090205561361e565b73ffffffffffffffffffffffffffffffffffffffff821660009081526003840160205260408120819055805b60018501548110156135895760008560010182815481106134a6577f4e487b7100000000000000000000000000000000000000000000000000000000600052603260045260246000fd5b60009182526020909120015473ffffffffffffffffffffffffffffffffffffffff908116915085168114156134de5760019250613576565b82156135765780866001016001846134f69190615d47565b8154811061352d577f4e487b7100000000000000000000000000000000000000000000000000000000600052603260045260246000fd5b9060005260206000200160006101000a81548173ffffffffffffffffffffffffffffffffffffffff021916908373ffffffffffffffffffffffffffffffffffffffff1602179055505b508061358181615d80565b91505061345c565b50836001018054806135c4577f4e487b7100000000000000000000000000000000000000000000000000000000600052603160045260246000fd5b60008281526020902081017fffffffffffffffffffffffffffffffffffffffffffffffffffffffffffffffff90810180547fffffffffffffffffffffffff0000000000000000000000000000000000000000169055019055505b505050565b61362d8383614b90565b61368a576001838101805491820181556000908152602090200180547fffffffffffffffffffffffff00000000000000000000000000000000000000001673ffffffffffffffffffffffffffffffffffffffff8416179055613786565b6136926146ef565b73ffffffffffffffffffffffffffffffffffffffff838116600090815260028601602090815260408083205460038901909252918290205491517fe695fa68000000000000000000000000000000000000000000000000000000008152939092169263e695fa689261370b929091879190600401615bd8565b602060405180830381600087803b15801561372557600080fd5b505af1158015613739573d6000803e3d6000fd5b505050506040513d601f19601f8201168201806040525081019061375d91906154ac565b73ffffffffffffffffffffffffffffffffffffffff831660009081526002850160205260409020555b61378e6146ef565b73ffffffffffffffffffffffffffffffffffffffff1663e5ea6606836040518263ffffffff1660e01b81526004016137c6919061558b565b60206040518083038186803b1580156137de57600080fd5b505afa1580156137f2573d6000803e3d6000fd5b505050506040513d601f19601f8201168201806040525081019061381691906154ac565b73ffffffffffffffffffffffffffffffffffffffff83166000908152600385016020908152604080832093909355600286019052908120805483929061385d908490615cb9565b9091555061386e905083838361391a565b6138778361469f565b61361e576040517f08c379a00000000000000000000000000000000000000000000000000000000081526004016109a890615a85565b73ffffffffffffffffffffffffffffffffffffffff841660009081526005860160205260409020546138e0908390615d47565b73ffffffffffffffffffffffffffffffffffffffff8516600090815260058701602052604090205561391385848361391a565b5050505050565b6139248383614bbe565b61397e57600483018054600181018255600091825260209091200180547fffffffffffffffffffffffff00000000000000000000000000000000000000001673ffffffffffffffffffffffffffffffffffffffff84161790555b73ffffffffffffffffffffffffffffffffffffffff82166000908152600584016020526040812080548392906139b5908490615cb9565b9091555050505050565b606760005260016020527f3df8f088882f8b9ec191c0c401507a494987ab757ec0bcd484b0f744e1857e895473ffffffffffffffffffffffffffffffffffffffff1690565b6000613a11836001615cb9565b613a2485683635c9adc5dea00000615d0a565b613a2e9190615cd1565b90506103e8613a3d8383615d0a565b613a49846103e8615d47565b8760010154613a589190615d0a565b613a629190615cb9565b613a6c9190615cd1565b85600101819055505050505050565b6000805b8354811015613b22576000848281548110613ac3577f4e487b7100000000000000000000000000000000000000000000000000000000600052603260045260246000fd5b600091825260208083209091015473ffffffffffffffffffffffffffffffffffffffff1680835290869052604090912054909150613b029082906149e1565b613b0c9084615cb9565b9250508080613b1a90615d80565b915050613a7f565b5092915050565b606b60005260016020527fd70e245266dfd722d237312ada32b3921705992efb298b14480ba0acaaa0765a5473ffffffffffffffffffffffffffffffffffffffff1690565b600080613b79613b29565b73ffffffffffffffffffffffffffffffffffffffff1663b0411f466040518163ffffffff1660e01b8152600401604080518083038186803b158015613bbd57600080fd5b505afa158015613bd1573d6000803e3d6000fd5b505050506040513d601f19601f82011682018060405250810190613bf59190615303565b509050601554601854613c089190615d0a565b73ffffffffffffffffffffffffffffffffffffffff90911660009081526013602052604090205411905090565b604080516000808252602082019283905290519091613c57916010919061514d565b506040805160008152602081019182905251613c759160119161514d565b506040805160008152602081019182905251613c939160129161514d565b5060005b8084511115613b22576000848281518110613cdb577f4e487b7100000000000000000000000000000000000000000000000000000000600052603260045260246000fd5b602002602001015190506000600a60008373ffffffffffffffffffffffffffffffffffffffff1673ffffffffffffffffffffffffffffffffffffffff1681526020019081526020016000209050613d3181614bed565b156141aa576012805460018101825560009182527fbb8a6a4669ba250d26cd7a459eca9d215f8307e33aebe50379bc5a3617ec34440180547fffffffffffffffffffffffff00000000000000000000000000000000000000001673ffffffffffffffffffffffffffffffffffffffff85161790555b6004820154811015613f1e576000826004018281548110613df0577f4e487b7100000000000000000000000000000000000000000000000000000000600052603260045260246000fd5b600091825260208083209091015473ffffffffffffffffffffffffffffffffffffffff16808352600f90915260409091206002810154919250904314613ec65773ffffffffffffffffffffffffffffffffffffffff821660008181526005860160205260408120546001808501919091558184554360028501556010805491820181559091527f1b6847dc741a1b0cd08d278845f9d819d87b734759afb55fe2de5cb82a9ae6720180547fffffffffffffffffffffffff0000000000000000000000000000000000000000169091179055613f09565b73ffffffffffffffffffffffffffffffffffffffff8216600090815260058501602052604081205460018301805491929091613f03908490615cb9565b90915550505b50508080613f1690615d80565b915050613da6565b5060005b60018201548110156141a8576000826001018281548110613f6c577f4e487b7100000000000000000000000000000000000000000000000000000000600052603260045260246000fd5b600091825260208083209091015473ffffffffffffffffffffffffffffffffffffffff16808352600f9091526040822090925090613fa86146ef565b73ffffffffffffffffffffffffffffffffffffffff848116600090815260028801602090815260408083205460038b01909252918290205491517fe695fa68000000000000000000000000000000000000000000000000000000008152939092169263e695fa6892614021929091889190600401615bd8565b602060405180830381600087803b15801561403b57600080fd5b505af115801561404f573d6000803e3d6000fd5b505050506040513d601f19601f8201168201806040525081019061407391906154ac565b905061407d6146ef565b73ffffffffffffffffffffffffffffffffffffffff16632a6a897b84836040518363ffffffff1660e01b81526004016140b792919061561b565b600060405180830381600087803b1580156140d157600080fd5b505af11580156140e5573d6000803e3d6000fd5b505050504382600201541461417857600060018381018290558284554360028501556011805491820181559091527f31ecc21a745e3968a04e9570e4425bc18fa8019c68028196b546d1669c200c680180547fffffffffffffffffffffffff00000000000000000000000000000000000000001673ffffffffffffffffffffffffffffffffffffffff8516179055614192565b8082600001600082825461418c9190615cb9565b90915550505b50505080806141a090615d80565b915050613f22565b505b73ffffffffffffffffffffffffffffffffffffffff8216600090815260146020526040902085156141eb576141de81612d6f565b6141e89086615cb9565b94505b50505080806141f990615d80565b915050613c97565b6000805b6010548110156143035760006010828154811061424b577f4e487b7100000000000000000000000000000000000000000000000000000000600052603260045260246000fd5b600091825260208083209091015473ffffffffffffffffffffffffffffffffffffffff16808352600f909152604090912080546001820154929350909111156142ee57805460018201546000916142a191615d47565b90506142ad8382614c25565b6142b79086615cb9565b73ffffffffffffffffffffffffffffffffffffffff84166000908152600f6020526040812081815560018101829055600201559450505b505080806142fb90615d80565b915050614205565b50611d5d601060006151d7565b6000805b60115481101561440f5760006011828154811061435a577f4e487b7100000000000000000000000000000000000000000000000000000000600052603260045260246000fd5b600091825260208083209091015473ffffffffffffffffffffffffffffffffffffffff16808352600f909152604090912060018101548154929350909111156143fa576143ba82826001015483600001546143b59190615d47565b614d34565b6143c49085615cb9565b73ffffffffffffffffffffffffffffffffffffffff83166000908152600f60205260408120818155600181018290556002015593505b5050808061440790615d80565b915050614314565b50611d5d601160006151d7565b6000610bad836004018460050184614ef5565b6000610bad83600101846002018560030185614f9d565b606560005260016020527f6def5a300acb6fcaa0dab3a41e9d6457b5147a641e641380f8cc4bf5308b16fe5473ffffffffffffffffffffffffffffffffffffffff1690565b60005b60018201548110156145725760008260010182815481106144d8577f4e487b7100000000000000000000000000000000000000000000000000000000600052603260045260246000fd5b600091825260208083209091015473ffffffffffffffffffffffffffffffffffffffff16808352600286018252604080842054600c90935283208054919450919290614525908490615d47565b909155505073ffffffffffffffffffffffffffffffffffffffff1660009081526002830160209081526040808320839055600385019091528120558061456a81615d80565b91505061448e565b5060005b600482015481101561467f5760008260040182815481106145c0577f4e487b7100000000000000000000000000000000000000000000000000000000600052603260045260246000fd5b600091825260208083209091015473ffffffffffffffffffffffffffffffffffffffff16808352600586018252604080842054600d9093528320805491945091929061460d908490615d47565b909155505073ffffffffffffffffffffffffffffffffffffffff166000908152600583016020908152604080832083905560068501909152902080547fffffffffffffffffffffffffffffffffffffffffffffffffffffffffffffff001690558061467781615d80565b915050614576565b5061468e6001820160006151d7565b61469c6004820160006151d7565b50565b6000806146ad83600061442f565b905060006146bc84600061441c565b9050600854826146cc9190615d0a565b60016008546146db9190615d47565b6146e59083615d0a565b1015949350505050565b606660005260016020527f8a7727369fa1a496cab5c3debb1ff9323f499df74f8bfc03a975054ef960ee6d5473ffffffffffffffffffffffffffffffffffffffff1690565b60008061473f6146ef565b73ffffffffffffffffffffffffffffffffffffffff1663e5ea6606866040518263ffffffff1660e01b8152600401614777919061558b565b60206040518083038186803b15801561478f57600080fd5b505afa1580156147a3573d6000803e3d6000fd5b505050506040513d601f19601f820116820180604052508101906147c791906154ac565b73ffffffffffffffffffffffffffffffffffffffff8616600090815260208590526040812054919250906147fb8387615d0a565b6148059190615cd1565b9050612fe086826149e1565b60007f000000000000000000000000000000000000000000000000000000000000000073ffffffffffffffffffffffffffffffffffffffff168373ffffffffffffffffffffffffffffffffffffffff16141561486e575080610bb0565b73ffffffffffffffffffffffffffffffffffffffff831660009081526003602052604081209061489c6139bf565b73ffffffffffffffffffffffffffffffffffffffff1663bb7b9c76735c69bee701ef814a2b6a3edd4b1652cb9cc5aa6f86856002016040518463ffffffff1660e01b81526004016148ef93929190615671565b60006040518083038186803b15801561490757600080fd5b505afa15801561491b573d6000803e3d6000fd5b505050506040513d6000823e601f3d9081017fffffffffffffffffffffffffffffffffffffffffffffffffffffffffffffffe016820160405261496191908101906153ce565b9050600081600183516149749190615d47565b815181106149ab577f4e487b7100000000000000000000000000000000000000000000000000000000600052603260045260246000fd5b60200260200101519050600754811180156149c7575060065481105b156149d7576149d783868361504f565b9250610bb0915050565b60007f000000000000000000000000000000000000000000000000000000000000000073ffffffffffffffffffffffffffffffffffffffff168373ffffffffffffffffffffffffffffffffffffffff161415614a3e575080610bb0565b73ffffffffffffffffffffffffffffffffffffffff8316600090815260036020526040812090614a6c6139bf565b73ffffffffffffffffffffffffffffffffffffffff1663bb7b9c76735c69bee701ef814a2b6a3edd4b1652cb9cc5aa6f86856002016040518463ffffffff1660e01b8152600401614abf93929190615671565b60006040518083038186803b158015614ad757600080fd5b505afa158015614aeb573d6000803e3d6000fd5b505050506040513d6000823e601f3d9081017fffffffffffffffffffffffffffffffffffffffffffffffffffffffffffffffe0168201604052614b3191908101906153ce565b905060008160018351614b449190615d47565b81518110614b7b577f4e487b7100000000000000000000000000000000000000000000000000000000600052603260045260246000fd5b60200260200101519050809350505050610bb0565b73ffffffffffffffffffffffffffffffffffffffff1660009081526003919091016020526040902054151590565b73ffffffffffffffffffffffffffffffffffffffff166000908152600691909101602052604090205460ff1690565b600080614bfb83600161442f565b90506000614c0a84600161441c565b905081600954614c1a9190615d0a565b6146e5826064615d0a565b60007f000000000000000000000000000000000000000000000000000000000000000073ffffffffffffffffffffffffffffffffffffffff168373ffffffffffffffffffffffffffffffffffffffff161415614c82575080610bb0565b73ffffffffffffffffffffffffffffffffffffffff8316600090815260036020526040812090614cb06139bf565b73ffffffffffffffffffffffffffffffffffffffff16630d873d5e735c69bee701ef814a2b6a3edd4b1652cb9cc5aa6f866000866002016040518563ffffffff1660e01b8152600401614d0694939291906156a6565b600060405180830381600087803b158015614d2057600080fd5b505af1158015614aeb573d6000803e3d6000fd5b60007f000000000000000000000000000000000000000000000000000000000000000073ffffffffffffffffffffffffffffffffffffffff168373ffffffffffffffffffffffffffffffffffffffff161415614d91575080610bb0565b73ffffffffffffffffffffffffffffffffffffffff8316600090815260036020526040812090614dbf6139bf565b73ffffffffffffffffffffffffffffffffffffffff16636fdcb2b9735c69bee701ef814a2b6a3edd4b1652cb9cc5aa6f867fffffffffffffffffffffffffffffffffffffffffffffffffffffffffffffffff866003016040518563ffffffff1660e01b8152600401614e3494939291906156a6565b600060405180830381600087803b158015614e4e57600080fd5b505af1158015614e62573d6000803e3d6000fd5b505050506040513d6000823e601f3d9081017fffffffffffffffffffffffffffffffffffffffffffffffffffffffffffffffe0168201604052614ea891908101906153ce565b905080600081518110614ee4577f4e487b7100000000000000000000000000000000000000000000000000000000600052603260045260246000fd5b602002602001015192505050610bb0565b6000805b84548110156130cd576000858281548110614f3d577f4e487b7100000000000000000000000000000000000000000000000000000000600052603260045260246000fd5b600091825260208083209091015473ffffffffffffffffffffffffffffffffffffffff1680835290879052604090912054909150614f7d908290866130d5565b614f879084615cb9565b9250508080614f9590615d80565b915050614ef9565b6000805b8554811015615046576000868281548110614fe5577f4e487b7100000000000000000000000000000000000000000000000000000000600052603260045260246000fd5b600091825260208083209091015473ffffffffffffffffffffffffffffffffffffffff16808352908890526040909120549091506150269082908787615064565b6150309084615cb9565b925050808061503e90615d80565b915050614fa1565b50949350505050565b61505d838383600554613a04565b5050439055565b60008061506f6146ef565b73ffffffffffffffffffffffffffffffffffffffff1663e5ea6606876040518263ffffffff1660e01b81526004016150a7919061558b565b60206040518083038186803b1580156150bf57600080fd5b505afa1580156150d3573d6000803e3d6000fd5b505050506040513d601f19601f820116820180604052508101906150f791906154ac565b73ffffffffffffffffffffffffffffffffffffffff87166000908152602086905260408120549192509061512b8388615d0a565b6151359190615cd1565b90506151428782866130d5565b979650505050505050565b8280548282559060005260206000209081019282156151c7579160200282015b828111156151c757825182547fffffffffffffffffffffffff00000000000000000000000000000000000000001673ffffffffffffffffffffffffffffffffffffffff90911617825560209092019160019091019061516d565b506151d39291506151f1565b5090565b508054600082559060005260206000209081019061469c91905b5b808211156151d357600081556001016151f2565b600060208284031215615217578081fd5b813561319981615e17565b600060208284031215615233578081fd5b815161319981615e17565b600080600080600060a08688031215615255578081fd5b853561526081615e17565b9450602086013561527081615e17565b9350604086013561528081615e17565b94979396509394606081013594506080013592915050565b6000806000606084860312156152ac578283fd5b83356152b781615e17565b925060208401356152c781615e17565b929592945050506040919091013590565b600080604083850312156152ea578182fd5b82356152f581615e17565b946020939093013593505050565b60008060408385031215615315578182fd5b825161532081615e17565b6020939093015192949293505050565b60006020808385031215615342578182fd5b823567ffffffffffffffff811115615358578283fd5b8301601f81018513615368578283fd5b803561537b61537682615c95565b615c46565b8181528381019083850185840285018601891015615397578687fd5b8694505b838510156153c25780356153ae81615e17565b83526001949094019391850191850161539b565b50979650505050505050565b600060208083850312156153e0578182fd5b825167ffffffffffffffff8111156153f6578283fd5b8301601f81018513615406578283fd5b805161541461537682615c95565b8181528381019083850185840285018601891015615430578687fd5b8694505b838510156153c2578051835260019490940193918501918501615434565b600060208284031215615463578081fd5b81518015158114613199578182fd5b600060208284031215615483578081fd5b813561ffff81168114613199578182fd5b6000602082840312156154a5578081fd5b5035919050565b6000602082840312156154bd578081fd5b5051919050565b600080604083850312156154d6578182fd5b8235915060208301356154e881615e17565b809150509250929050565b6000815180845260208085019450808401835b8381101561553857815173ffffffffffffffffffffffffffffffffffffffff1687529582019590820190600101615506565b509495945050505050565b6000815480845260208085019450838352808320835b8381101561553857815473ffffffffffffffffffffffffffffffffffffffff1687529582019560019182019101615559565b73ffffffffffffffffffffffffffffffffffffffff91909116815260200190565b73ffffffffffffffffffffffffffffffffffffffff9384168152919092166020820152604081019190915260600190565b600073ffffffffffffffffffffffffffffffffffffffff851682528360208301526060604083015261561260608301846154f3565b95945050505050565b73ffffffffffffffffffffffffffffffffffffffff929092168252602082015260400190565b73ffffffffffffffffffffffffffffffffffffffff93841681526020810192909252909116604082015260600190565b600073ffffffffffffffffffffffffffffffffffffffff85168252836020830152606060408301526156126060830184615543565b600073ffffffffffffffffffffffffffffffffffffffff8616825284602083015283604083015260806060830152612fe06080830184615543565b6000604082526156f460408301856154f3565b828103602084810191909152845180835285820192820190845b8181101561572a5784518352938301939183019160010161570e565b5090979650505050505050565b901515815260200190565b60208082526026908201527f43616c6c6572206e6f7420617574686f72697a656420746f2073657420746f6b60408201527f656e206361700000000000000000000000000000000000000000000000000000606082015260800190565b6020808252603a908201527f43757272656e746c79206e6f20696e7465726d656469617269657320616c6c6f60408201527f77656420666f7220746869732066756e6374696f6e2063616c6c000000000000606082015260800190565b60208082526039908201527f43616c6c696e6720636f6e7472616374206973206e6f7420616e20617574686f60408201527f72697a6564206d617267696e20747261646572206167656e7400000000000000606082015260800190565b60208082526026908201527f4f776e61626c653a206e6577206f776e657220697320746865207a65726f206160408201527f6464726573730000000000000000000000000000000000000000000000000000606082015260800190565b60208082526021908201527f6e6f7420617574686f72697a656420746f20736574206c656e64696e6720636160408201527f7000000000000000000000000000000000000000000000000000000000000000606082015260800190565b60208082526026908201527f4163636f756e742062616c616e636520697320746f6f206c6f7720746f20776960408201527f7468647261770000000000000000000000000000000000000000000000000000606082015260800190565b60208082526052908201527f546f2070726576656e742061747461636b7320796f75206d757374207761697460408201527f20756e74696c20796f757220636f6f6c696e67206f666620706572696f64206960608201527f73206f76657220746f2077697468647261770000000000000000000000000000608082015260a00190565b6020808252818101527f4f776e61626c653a2063616c6c6572206973206e6f7420746865206f776e6572604082015260600190565b60208082526039908201527f457863656564696e6720676c6f62616c206578706f737572652063617020746f60408201527f20746f6b656e202d2d2074727920616761696e206c6174657200000000000000606082015260800190565b60208082526022908201527f43616e277420626f72726f773a20696e73756666696369656e742062616c616e60408201527f6365000000000000000000000000000000000000000000000000000000000000606082015260800190565b6020808252602a908201527f43616c6c696e6720636f6e7472616374206e6f7420617574686f72697a65642060408201527f746f206465706f73697400000000000000000000000000000000000000000000606082015260800190565b6020808252602b908201527f43616e2774206c69717569646174652063757272656e746c7920626f72726f7760408201527f696e67206163636f756e74000000000000000000000000000000000000000000606082015260800190565b61ffff91909116815260200190565b90815260200190565b91825273ffffffffffffffffffffffffffffffffffffffff16602082015260400190565b92835273ffffffffffffffffffffffffffffffffffffffff919091166020830152604082015260600190565b93845273ffffffffffffffffffffffffffffffffffffffff9283166020850152604084019190915216606082015260800190565b918252602082015260400190565b604051601f82017fffffffffffffffffffffffffffffffffffffffffffffffffffffffffffffffe016810167ffffffffffffffff81118282101715615c8d57615c8d615de8565b604052919050565b600067ffffffffffffffff821115615caf57615caf615de8565b5060209081020190565b60008219821115615ccc57615ccc615db9565b500190565b600082615d05577f4e487b710000000000000000000000000000000000000000000000000000000081526012600452602481fd5b500490565b6000817fffffffffffffffffffffffffffffffffffffffffffffffffffffffffffffffff0483118215151615615d4257615d42615db9565b500290565b600082821015615d5957615d59615db9565b500390565b600061ffff80831681811415615d7657615d76615db9565b6001019392505050565b60007fffffffffffffffffffffffffffffffffffffffffffffffffffffffffffffffff821415615db257615db2615db9565b5060010190565b7f4e487b7100000000000000000000000000000000000000000000000000000000600052601160045260246000fd5b7f4e487b7100000000000000000000000000000000000000000000000000000000600052604160045260246000fd5b73ffffffffffffffffffffffffffffffffffffffff8116811461469c57600080fdfea2646970667358221220bcf837d54fd34f429079df3bc986d8709748d90f571472723b6859b474ade1a264736f6c63430008010033",
  "devdoc": {
    "kind": "dev",
    "methods": {
      "getBorrowAmounts(address)": {
        "details": "view function to display account borrowing state"
      },
      "getHoldingAmounts(address)": {
        "details": "view function to display account held assets state"
      },
      "getLastDepositBlock(address)": {
        "details": "last time this account deposited relevant for withdrawal window"
      },
      "owner()": {
        "details": "Returns the address of the current owner."
      },
      "registerBorrow(address,address,uint256)": {
        "details": "gets called by router to affirm isolated borrowing event"
      },
      "registerDeposit(address,address,uint256)": {
        "details": "gets called by router to affirm a deposit to an account"
      },
      "registerLiquidation(address)": {
        "details": "can get called by router to register the dissolution of an account"
      },
      "registerTradeAndBorrow(address,address,address,uint256,uint256)": {
        "details": "gets callled by router to register a trade and borrow and extinguis as necessary"
      },
      "registerWithdrawal(address,address,uint256)": {
        "details": "gets called by router to affirm withdrawal of tokens from account"
      },
      "renounceOwnership()": {
        "details": "Leaves the contract without owner. It will not be possible to call `onlyOwner` functions anymore. Can only be called by the current owner. NOTE: Renouncing ownership will leave the contract without an owner, thereby removing any functionality that is only available to the owner."
      },
      "setCoolingOffPeriod(uint256)": {
        "details": "setter for cooling off period for withdrawing funds after deposit"
      },
      "setLeverage(uint256)": {
        "details": "admin function to set leverage"
      },
      "setLiquidationThresholdPercent(uint256)": {
        "details": "admin function to set liquidation threshold"
      },
      "setTokenCap(address,uint256)": {
        "details": "admin function to set the token cap"
      },
      "transferOwnership(address)": {
        "details": "Transfers ownership of the contract to a new account (`newOwner`). Can only be called by the current owner."
      },
      "viewHoldingsInPeg(address)": {
        "details": "total of assets of account, expressed in reference currency"
      },
      "viewLoanInPeg(address)": {
        "details": "view function to get loan amount in peg"
      }
    },
    "version": 1
  },
  "userdoc": {
    "kind": "user",
    "methods": {
      "liquidate(address[])": {
        "notice": "called by maintenance stakers to liquidate accounts below liquidation threshold"
      },
      "priceUpdateWindow()": {
        "notice": "update window in blocks"
      }
    },
    "version": 1
  },
  "storageLayout": {
    "storage": [
      {
        "astId": 381,
        "contract": "contracts/CrossMarginTrading.sol:CrossMarginTrading",
        "label": "_owner",
        "offset": 0,
        "slot": "0",
        "type": "t_address"
      },
      {
        "astId": 12289,
        "contract": "contracts/CrossMarginTrading.sol:CrossMarginTrading",
        "label": "mainCharacterCache",
        "offset": 0,
        "slot": "1",
        "type": "t_mapping(t_uint256,t_address)"
      },
      {
        "astId": 12295,
        "contract": "contracts/CrossMarginTrading.sol:CrossMarginTrading",
        "label": "roleCache",
        "offset": 0,
        "slot": "2",
        "type": "t_mapping(t_address,t_mapping(t_uint256,t_bool))"
      },
      {
        "astId": 11650,
        "contract": "contracts/CrossMarginTrading.sol:CrossMarginTrading",
        "label": "tokenPrices",
        "offset": 0,
        "slot": "3",
        "type": "t_mapping(t_address,t_struct(TokenPrice)11635_storage)"
      },
      {
        "astId": 11654,
        "contract": "contracts/CrossMarginTrading.sol:CrossMarginTrading",
        "label": "priceUpdateWindow",
        "offset": 0,
        "slot": "4",
        "type": "t_uint16"
      },
      {
        "astId": 11657,
        "contract": "contracts/CrossMarginTrading.sol:CrossMarginTrading",
        "label": "UPDATE_RATE_PERMIL",
        "offset": 0,
        "slot": "5",
        "type": "t_uint256"
      },
      {
        "astId": 11660,
        "contract": "contracts/CrossMarginTrading.sol:CrossMarginTrading",
        "label": "UPDATE_MAX_PEG_AMOUNT",
        "offset": 0,
        "slot": "6",
        "type": "t_uint256"
      },
      {
        "astId": 11663,
        "contract": "contracts/CrossMarginTrading.sol:CrossMarginTrading",
        "label": "UPDATE_MIN_PEG_AMOUNT",
        "offset": 0,
        "slot": "7",
        "type": "t_uint256"
      },
      {
        "astId": 4680,
        "contract": "contracts/CrossMarginTrading.sol:CrossMarginTrading",
        "label": "leverage",
        "offset": 0,
        "slot": "8",
        "type": "t_uint256"
      },
      {
        "astId": 4683,
        "contract": "contracts/CrossMarginTrading.sol:CrossMarginTrading",
        "label": "liquidationThresholdPercent",
        "offset": 0,
        "slot": "9",
        "type": "t_uint256"
      },
      {
        "astId": 4689,
        "contract": "contracts/CrossMarginTrading.sol:CrossMarginTrading",
        "label": "marginAccounts",
        "offset": 0,
        "slot": "10",
        "type": "t_mapping(t_address,t_struct(CrossMarginAccount)4673_storage)"
      },
      {
        "astId": 4694,
        "contract": "contracts/CrossMarginTrading.sol:CrossMarginTrading",
        "label": "tokenCaps",
        "offset": 0,
        "slot": "11",
        "type": "t_mapping(t_address,t_uint256)"
      },
      {
        "astId": 4699,
        "contract": "contracts/CrossMarginTrading.sol:CrossMarginTrading",
        "label": "totalShort",
        "offset": 0,
        "slot": "12",
        "type": "t_mapping(t_address,t_uint256)"
      },
      {
        "astId": 4704,
        "contract": "contracts/CrossMarginTrading.sol:CrossMarginTrading",
        "label": "totalLong",
        "offset": 0,
        "slot": "13",
        "type": "t_mapping(t_address,t_uint256)"
      },
      {
        "astId": 4706,
        "contract": "contracts/CrossMarginTrading.sol:CrossMarginTrading",
        "label": "coolingOffPeriod",
        "offset": 0,
        "slot": "14",
        "type": "t_uint256"
      },
      {
        "astId": 5601,
        "contract": "contracts/CrossMarginTrading.sol:CrossMarginTrading",
        "label": "liquidationAmounts",
        "offset": 0,
        "slot": "15",
        "type": "t_mapping(t_address,t_struct(Liquidation)5587_storage)"
      },
      {
        "astId": 5604,
        "contract": "contracts/CrossMarginTrading.sol:CrossMarginTrading",
        "label": "sellTokens",
        "offset": 0,
        "slot": "16",
        "type": "t_array(t_address)dyn_storage"
      },
      {
        "astId": 5607,
        "contract": "contracts/CrossMarginTrading.sol:CrossMarginTrading",
        "label": "buyTokens",
        "offset": 0,
        "slot": "17",
        "type": "t_array(t_address)dyn_storage"
      },
      {
        "astId": 5610,
        "contract": "contracts/CrossMarginTrading.sol:CrossMarginTrading",
        "label": "tradersToLiquidate",
        "offset": 0,
        "slot": "18",
        "type": "t_array(t_address)dyn_storage"
      },
      {
        "astId": 5614,
        "contract": "contracts/CrossMarginTrading.sol:CrossMarginTrading",
        "label": "maintenanceFailures",
        "offset": 0,
        "slot": "19",
        "type": "t_mapping(t_address,t_uint256)"
      },
      {
        "astId": 5619,
        "contract": "contracts/CrossMarginTrading.sol:CrossMarginTrading",
        "label": "stakeAttackRecords",
        "offset": 0,
        "slot": "20",
        "type": "t_mapping(t_address,t_struct(AccountLiqRecord)5596_storage)"
      },
      {
        "astId": 5622,
        "contract": "contracts/CrossMarginTrading.sol:CrossMarginTrading",
        "label": "avgLiquidationPerCall",
        "offset": 0,
        "slot": "21",
        "type": "t_uint256"
      },
      {
        "astId": 5625,
        "contract": "contracts/CrossMarginTrading.sol:CrossMarginTrading",
        "label": "liqStakeAttackWindow",
        "offset": 0,
        "slot": "22",
        "type": "t_uint256"
      },
      {
        "astId": 5628,
        "contract": "contracts/CrossMarginTrading.sol:CrossMarginTrading",
        "label": "MAINTAINER_CUT_PERCENT",
        "offset": 0,
        "slot": "23",
        "type": "t_uint256"
      },
      {
        "astId": 5631,
        "contract": "contracts/CrossMarginTrading.sol:CrossMarginTrading",
        "label": "failureThreshold",
        "offset": 0,
        "slot": "24",
        "type": "t_uint256"
      }
    ],
    "types": {
      "t_address": {
        "encoding": "inplace",
        "label": "address",
        "numberOfBytes": "20"
      },
      "t_array(t_address)dyn_storage": {
        "base": "t_address",
        "encoding": "dynamic_array",
        "label": "address[]",
        "numberOfBytes": "32"
      },
      "t_bool": {
        "encoding": "inplace",
        "label": "bool",
        "numberOfBytes": "1"
      },
      "t_mapping(t_address,t_bool)": {
        "encoding": "mapping",
        "key": "t_address",
        "label": "mapping(address => bool)",
        "numberOfBytes": "32",
        "value": "t_bool"
      },
      "t_mapping(t_address,t_mapping(t_uint256,t_bool))": {
        "encoding": "mapping",
        "key": "t_address",
        "label": "mapping(address => mapping(uint256 => bool))",
        "numberOfBytes": "32",
        "value": "t_mapping(t_uint256,t_bool)"
      },
      "t_mapping(t_address,t_struct(AccountLiqRecord)5596_storage)": {
        "encoding": "mapping",
        "key": "t_address",
        "label": "mapping(address => struct CrossMarginLiquidation.AccountLiqRecord)",
        "numberOfBytes": "32",
        "value": "t_struct(AccountLiqRecord)5596_storage"
      },
      "t_mapping(t_address,t_struct(CrossMarginAccount)4673_storage)": {
        "encoding": "mapping",
        "key": "t_address",
        "label": "mapping(address => struct CrossMarginAccount)",
        "numberOfBytes": "32",
        "value": "t_struct(CrossMarginAccount)4673_storage"
      },
      "t_mapping(t_address,t_struct(Liquidation)5587_storage)": {
        "encoding": "mapping",
        "key": "t_address",
        "label": "mapping(address => struct CrossMarginLiquidation.Liquidation)",
        "numberOfBytes": "32",
        "value": "t_struct(Liquidation)5587_storage"
      },
      "t_mapping(t_address,t_struct(TokenPrice)11635_storage)": {
        "encoding": "mapping",
        "key": "t_address",
        "label": "mapping(address => struct TokenPrice)",
        "numberOfBytes": "32",
        "value": "t_struct(TokenPrice)11635_storage"
      },
      "t_mapping(t_address,t_uint256)": {
        "encoding": "mapping",
        "key": "t_address",
        "label": "mapping(address => uint256)",
        "numberOfBytes": "32",
        "value": "t_uint256"
      },
      "t_mapping(t_uint256,t_address)": {
        "encoding": "mapping",
        "key": "t_uint256",
        "label": "mapping(uint256 => address)",
        "numberOfBytes": "32",
        "value": "t_address"
      },
      "t_mapping(t_uint256,t_bool)": {
        "encoding": "mapping",
        "key": "t_uint256",
        "label": "mapping(uint256 => bool)",
        "numberOfBytes": "32",
        "value": "t_bool"
      },
      "t_struct(AccountLiqRecord)5596_storage": {
        "encoding": "inplace",
        "label": "struct CrossMarginLiquidation.AccountLiqRecord",
        "members": [
          {
            "astId": 5589,
            "contract": "contracts/CrossMarginTrading.sol:CrossMarginTrading",
            "label": "blockNum",
            "offset": 0,
            "slot": "0",
            "type": "t_uint256"
          },
          {
            "astId": 5591,
            "contract": "contracts/CrossMarginTrading.sol:CrossMarginTrading",
            "label": "loser",
            "offset": 0,
            "slot": "1",
            "type": "t_address"
          },
          {
            "astId": 5593,
            "contract": "contracts/CrossMarginTrading.sol:CrossMarginTrading",
            "label": "amount",
            "offset": 0,
            "slot": "2",
            "type": "t_uint256"
          },
          {
            "astId": 5595,
            "contract": "contracts/CrossMarginTrading.sol:CrossMarginTrading",
            "label": "stakeAttacker",
            "offset": 0,
            "slot": "3",
            "type": "t_address"
          }
        ],
        "numberOfBytes": "128"
      },
      "t_struct(CrossMarginAccount)4673_storage": {
        "encoding": "inplace",
        "label": "struct CrossMarginAccount",
        "members": [
          {
            "astId": 4650,
            "contract": "contracts/CrossMarginTrading.sol:CrossMarginTrading",
            "label": "lastDepositBlock",
            "offset": 0,
            "slot": "0",
            "type": "t_uint256"
          },
          {
            "astId": 4653,
            "contract": "contracts/CrossMarginTrading.sol:CrossMarginTrading",
            "label": "borrowTokens",
            "offset": 0,
            "slot": "1",
            "type": "t_array(t_address)dyn_storage"
          },
          {
            "astId": 4657,
            "contract": "contracts/CrossMarginTrading.sol:CrossMarginTrading",
            "label": "borrowed",
            "offset": 0,
            "slot": "2",
            "type": "t_mapping(t_address,t_uint256)"
          },
          {
            "astId": 4661,
            "contract": "contracts/CrossMarginTrading.sol:CrossMarginTrading",
            "label": "borrowedYieldQuotientsFP",
            "offset": 0,
            "slot": "3",
            "type": "t_mapping(t_address,t_uint256)"
          },
          {
            "astId": 4664,
            "contract": "contracts/CrossMarginTrading.sol:CrossMarginTrading",
            "label": "holdingTokens",
            "offset": 0,
            "slot": "4",
            "type": "t_array(t_address)dyn_storage"
          },
          {
            "astId": 4668,
            "contract": "contracts/CrossMarginTrading.sol:CrossMarginTrading",
            "label": "holdings",
            "offset": 0,
            "slot": "5",
            "type": "t_mapping(t_address,t_uint256)"
          },
          {
            "astId": 4672,
            "contract": "contracts/CrossMarginTrading.sol:CrossMarginTrading",
            "label": "holdsToken",
            "offset": 0,
            "slot": "6",
            "type": "t_mapping(t_address,t_bool)"
          }
        ],
        "numberOfBytes": "224"
      },
      "t_struct(Liquidation)5587_storage": {
        "encoding": "inplace",
        "label": "struct CrossMarginLiquidation.Liquidation",
        "members": [
          {
            "astId": 5582,
            "contract": "contracts/CrossMarginTrading.sol:CrossMarginTrading",
            "label": "buy",
            "offset": 0,
            "slot": "0",
            "type": "t_uint256"
          },
          {
            "astId": 5584,
            "contract": "contracts/CrossMarginTrading.sol:CrossMarginTrading",
            "label": "sell",
            "offset": 0,
            "slot": "1",
            "type": "t_uint256"
          },
          {
            "astId": 5586,
            "contract": "contracts/CrossMarginTrading.sol:CrossMarginTrading",
            "label": "blockNum",
            "offset": 0,
            "slot": "2",
            "type": "t_uint256"
          }
        ],
        "numberOfBytes": "96"
      },
      "t_struct(TokenPrice)11635_storage": {
        "encoding": "inplace",
        "label": "struct TokenPrice",
        "members": [
          {
            "astId": 11626,
            "contract": "contracts/CrossMarginTrading.sol:CrossMarginTrading",
            "label": "blockLastUpdated",
            "offset": 0,
            "slot": "0",
            "type": "t_uint256"
          },
          {
            "astId": 11628,
            "contract": "contracts/CrossMarginTrading.sol:CrossMarginTrading",
            "label": "tokenPer1k",
            "offset": 0,
            "slot": "1",
            "type": "t_uint256"
          },
          {
            "astId": 11631,
            "contract": "contracts/CrossMarginTrading.sol:CrossMarginTrading",
            "label": "liquidationPath",
            "offset": 0,
            "slot": "2",
            "type": "t_array(t_address)dyn_storage"
          },
          {
            "astId": 11634,
            "contract": "contracts/CrossMarginTrading.sol:CrossMarginTrading",
            "label": "inverseLiquidationPath",
            "offset": 0,
            "slot": "3",
            "type": "t_array(t_address)dyn_storage"
          }
        ],
        "numberOfBytes": "128"
      },
      "t_uint16": {
        "encoding": "inplace",
        "label": "uint16",
        "numberOfBytes": "2"
      },
      "t_uint256": {
        "encoding": "inplace",
        "label": "uint256",
        "numberOfBytes": "32"
      }
    }
  }
}