{
  "address": "0x6928f9717C49D5F20f112bdF6E21663FB36A3956",
  "abi": [
    {
      "inputs": [
        {
          "internalType": "address",
          "name": "_peg",
          "type": "address"
        },
        {
          "internalType": "address",
          "name": "_roles",
          "type": "address"
        }
      ],
      "stateMutability": "nonpayable",
      "type": "constructor"
    },
    {
      "anonymous": false,
      "inputs": [
        {
          "indexed": false,
          "internalType": "address",
          "name": "account",
          "type": "address"
        }
      ],
      "name": "AccountLiquidated",
      "type": "event"
    },
    {
      "anonymous": false,
      "inputs": [
        {
          "indexed": false,
          "internalType": "uint256",
          "name": "amount",
          "type": "uint256"
        }
      ],
      "name": "LiquidationShortfall",
      "type": "event"
    },
    {
      "anonymous": false,
      "inputs": [
        {
          "indexed": true,
          "internalType": "address",
          "name": "previousOwner",
          "type": "address"
        },
        {
          "indexed": true,
          "internalType": "address",
          "name": "newOwner",
          "type": "address"
        }
      ],
      "name": "OwnershipTransferred",
      "type": "event"
    },
    {
      "inputs": [],
      "name": "ADMIN",
      "outputs": [
        {
          "internalType": "uint16",
          "name": "",
          "type": "uint16"
        }
      ],
      "stateMutability": "view",
      "type": "function"
    },
    {
      "inputs": [],
      "name": "AUTHORIZED_FUND_TRADER",
      "outputs": [
        {
          "internalType": "uint16",
          "name": "",
          "type": "uint16"
        }
      ],
      "stateMutability": "view",
      "type": "function"
    },
    {
      "inputs": [],
      "name": "BORROWER",
      "outputs": [
        {
          "internalType": "uint16",
          "name": "",
          "type": "uint16"
        }
      ],
      "stateMutability": "view",
      "type": "function"
    },
    {
      "inputs": [],
      "name": "CONFIDENT_UPDATE_RATE_PERMIL",
      "outputs": [
        {
          "internalType": "uint256",
          "name": "",
          "type": "uint256"
        }
      ],
      "stateMutability": "view",
      "type": "function"
    },
    {
      "inputs": [],
      "name": "FEE_CONTROLLER",
      "outputs": [
        {
          "internalType": "uint16",
          "name": "",
          "type": "uint16"
        }
      ],
      "stateMutability": "view",
      "type": "function"
    },
    {
      "inputs": [],
      "name": "FEE_SOURCE",
      "outputs": [
        {
          "internalType": "uint16",
          "name": "",
          "type": "uint16"
        }
      ],
      "stateMutability": "view",
      "type": "function"
    },
    {
      "inputs": [],
      "name": "FUND",
      "outputs": [
        {
          "internalType": "uint16",
          "name": "",
          "type": "uint16"
        }
      ],
      "stateMutability": "view",
      "type": "function"
    },
    {
      "inputs": [],
      "name": "INCENTIVE_DISTRIBUTION",
      "outputs": [
        {
          "internalType": "uint16",
          "name": "",
          "type": "uint16"
        }
      ],
      "stateMutability": "view",
      "type": "function"
    },
    {
      "inputs": [],
      "name": "INCENTIVE_REPORTER",
      "outputs": [
        {
          "internalType": "uint16",
          "name": "",
          "type": "uint16"
        }
      ],
      "stateMutability": "view",
      "type": "function"
    },
    {
      "inputs": [],
      "name": "LENDING",
      "outputs": [
        {
          "internalType": "uint16",
          "name": "",
          "type": "uint16"
        }
      ],
      "stateMutability": "view",
      "type": "function"
    },
    {
      "inputs": [],
      "name": "LIQUIDATOR",
      "outputs": [
        {
          "internalType": "uint16",
          "name": "",
          "type": "uint16"
        }
      ],
      "stateMutability": "view",
      "type": "function"
    },
    {
      "inputs": [],
      "name": "MAINTAINER_CUT_PERCENT",
      "outputs": [
        {
          "internalType": "uint256",
          "name": "",
          "type": "uint256"
        }
      ],
      "stateMutability": "view",
      "type": "function"
    },
    {
      "inputs": [],
      "name": "MARGIN_CALLER",
      "outputs": [
        {
          "internalType": "uint16",
          "name": "",
          "type": "uint16"
        }
      ],
      "stateMutability": "view",
      "type": "function"
    },
    {
      "inputs": [],
      "name": "MARGIN_TRADER",
      "outputs": [
        {
          "internalType": "uint16",
          "name": "",
          "type": "uint16"
        }
      ],
      "stateMutability": "view",
      "type": "function"
    },
    {
      "inputs": [],
      "name": "MARGIN_TRADING",
      "outputs": [
        {
          "internalType": "uint16",
          "name": "",
          "type": "uint16"
        }
      ],
      "stateMutability": "view",
      "type": "function"
    },
    {
      "inputs": [],
      "name": "PRICE_CONTROLLER",
      "outputs": [
        {
          "internalType": "uint16",
          "name": "",
          "type": "uint16"
        }
      ],
      "stateMutability": "view",
      "type": "function"
    },
    {
      "inputs": [],
      "name": "ROUTER",
      "outputs": [
        {
          "internalType": "uint16",
          "name": "",
          "type": "uint16"
        }
      ],
      "stateMutability": "view",
      "type": "function"
    },
    {
      "inputs": [],
      "name": "STAKE_PENALIZER",
      "outputs": [
        {
          "internalType": "uint16",
          "name": "",
          "type": "uint16"
        }
      ],
      "stateMutability": "view",
      "type": "function"
    },
    {
      "inputs": [],
      "name": "TEPID_UPDATE_RATE_PERMIL",
      "outputs": [
        {
          "internalType": "uint256",
          "name": "",
          "type": "uint256"
        }
      ],
      "stateMutability": "view",
      "type": "function"
    },
    {
      "inputs": [],
      "name": "TOKEN_ACTIVATOR",
      "outputs": [
        {
          "internalType": "uint16",
          "name": "",
          "type": "uint16"
        }
      ],
      "stateMutability": "view",
      "type": "function"
    },
    {
      "inputs": [],
      "name": "UNI",
      "outputs": [
        {
          "internalType": "address",
          "name": "",
          "type": "address"
        }
      ],
      "stateMutability": "view",
      "type": "function"
    },
    {
      "inputs": [],
      "name": "WITHDRAWER",
      "outputs": [
        {
          "internalType": "uint16",
          "name": "",
          "type": "uint16"
        }
      ],
      "stateMutability": "view",
      "type": "function"
    },
    {
      "inputs": [],
      "name": "avgLiquidationPerBlock",
      "outputs": [
        {
          "internalType": "uint256",
          "name": "",
          "type": "uint256"
        }
      ],
      "stateMutability": "view",
      "type": "function"
    },
    {
      "inputs": [],
      "name": "coolingOffPeriod",
      "outputs": [
        {
          "internalType": "uint256",
          "name": "",
          "type": "uint256"
        }
      ],
      "stateMutability": "view",
      "type": "function"
    },
    {
      "inputs": [
        {
          "internalType": "address[]",
          "name": "liquidatedAccounts",
          "type": "address[]"
        }
      ],
      "name": "disburseLiqStakeAttacks",
      "outputs": [],
      "stateMutability": "nonpayable",
      "type": "function"
    },
    {
      "inputs": [],
      "name": "failureThreshold",
      "outputs": [
        {
          "internalType": "uint256",
          "name": "",
          "type": "uint256"
        }
      ],
      "stateMutability": "view",
      "type": "function"
    },
    {
      "inputs": [
        {
          "internalType": "address",
          "name": "token",
          "type": "address"
        },
        {
          "internalType": "uint256",
          "name": "inAmount",
          "type": "uint256"
        }
      ],
      "name": "forcePriceUpdate",
      "outputs": [
        {
          "internalType": "uint256",
          "name": "",
          "type": "uint256"
        }
      ],
      "stateMutability": "nonpayable",
      "type": "function"
    },
    {
      "inputs": [
        {
          "internalType": "address",
          "name": "trader",
          "type": "address"
        }
      ],
      "name": "getBorrowAmounts",
      "outputs": [
        {
          "internalType": "address[]",
          "name": "borrowTokens",
          "type": "address[]"
        },
        {
          "internalType": "uint256[]",
          "name": "borrowAmounts",
          "type": "uint256[]"
        }
      ],
      "stateMutability": "view",
      "type": "function"
    },
    {
      "inputs": [
        {
          "internalType": "address",
          "name": "trader",
          "type": "address"
        }
      ],
      "name": "getHoldingAmounts",
      "outputs": [
        {
          "internalType": "address[]",
          "name": "holdingTokens",
          "type": "address[]"
        },
        {
          "internalType": "uint256[]",
          "name": "holdingAmounts",
          "type": "uint256[]"
        }
      ],
      "stateMutability": "view",
      "type": "function"
    },
    {
      "inputs": [
        {
          "internalType": "address",
          "name": "trader",
          "type": "address"
        }
      ],
      "name": "getLastDepositBlock",
      "outputs": [
        {
          "internalType": "uint256",
          "name": "",
          "type": "uint256"
        }
      ],
      "stateMutability": "view",
      "type": "function"
    },
    {
      "inputs": [],
      "name": "leverage",
      "outputs": [
        {
          "internalType": "uint256",
          "name": "",
          "type": "uint256"
        }
      ],
      "stateMutability": "view",
      "type": "function"
    },
    {
      "inputs": [],
      "name": "liqStakeAttackWindow",
      "outputs": [
        {
          "internalType": "uint256",
          "name": "",
          "type": "uint256"
        }
      ],
      "stateMutability": "view",
      "type": "function"
    },
    {
      "inputs": [
        {
          "internalType": "address[]",
          "name": "liquidationCandidates",
          "type": "address[]"
        }
      ],
      "name": "liquidate",
      "outputs": [
        {
          "internalType": "uint256",
          "name": "maintainerCut",
          "type": "uint256"
        }
      ],
      "stateMutability": "nonpayable",
      "type": "function"
    },
    {
      "inputs": [],
      "name": "liquidationThresholdPercent",
      "outputs": [
        {
          "internalType": "uint256",
          "name": "",
          "type": "uint256"
        }
      ],
      "stateMutability": "view",
      "type": "function"
    },
    {
      "inputs": [
        {
          "internalType": "uint16",
          "name": "",
          "type": "uint16"
        }
      ],
      "name": "mainCharacterCache",
      "outputs": [
        {
          "internalType": "address",
          "name": "",
          "type": "address"
        }
      ],
      "stateMutability": "view",
      "type": "function"
    },
    {
      "inputs": [
        {
          "internalType": "address",
          "name": "",
          "type": "address"
        }
      ],
      "name": "maintenanceFailures",
      "outputs": [
        {
          "internalType": "uint256",
          "name": "",
          "type": "uint256"
        }
      ],
      "stateMutability": "view",
      "type": "function"
    },
    {
      "inputs": [],
      "name": "owner",
      "outputs": [
        {
          "internalType": "address",
          "name": "",
          "type": "address"
        }
      ],
      "stateMutability": "view",
      "type": "function"
    },
    {
      "inputs": [],
      "name": "peg",
      "outputs": [
        {
          "internalType": "address",
          "name": "",
          "type": "address"
        }
      ],
      "stateMutability": "view",
      "type": "function"
    },
    {
      "inputs": [],
      "name": "priceUpdateWindow",
      "outputs": [
        {
          "internalType": "uint16",
          "name": "",
          "type": "uint16"
        }
      ],
      "stateMutability": "view",
      "type": "function"
    },
    {
      "inputs": [
        {
          "internalType": "address",
          "name": "trader",
          "type": "address"
        },
        {
          "internalType": "address",
          "name": "borrowToken",
          "type": "address"
        },
        {
          "internalType": "uint256",
          "name": "borrowAmount",
          "type": "uint256"
        }
      ],
      "name": "registerBorrow",
      "outputs": [],
      "stateMutability": "nonpayable",
      "type": "function"
    },
    {
      "inputs": [
        {
          "internalType": "address",
          "name": "trader",
          "type": "address"
        },
        {
          "internalType": "address",
          "name": "token",
          "type": "address"
        },
        {
          "internalType": "uint256",
          "name": "depositAmount",
          "type": "uint256"
        }
      ],
      "name": "registerDeposit",
      "outputs": [
        {
          "internalType": "uint256",
          "name": "extinguishableDebt",
          "type": "uint256"
        }
      ],
      "stateMutability": "nonpayable",
      "type": "function"
    },
    {
      "inputs": [
        {
          "internalType": "address",
          "name": "trader",
          "type": "address"
        }
      ],
      "name": "registerLiquidation",
      "outputs": [],
      "stateMutability": "nonpayable",
      "type": "function"
    },
    {
      "inputs": [
        {
          "internalType": "address",
          "name": "trader",
          "type": "address"
        },
        {
          "internalType": "address",
          "name": "tokenFrom",
          "type": "address"
        },
        {
          "internalType": "address",
          "name": "tokenTo",
          "type": "address"
        },
        {
          "internalType": "uint256",
          "name": "inAmount",
          "type": "uint256"
        },
        {
          "internalType": "uint256",
          "name": "outAmount",
          "type": "uint256"
        }
      ],
      "name": "registerTradeAndBorrow",
      "outputs": [
        {
          "internalType": "uint256",
          "name": "extinguishableDebt",
          "type": "uint256"
        },
        {
          "internalType": "uint256",
          "name": "borrowAmount",
          "type": "uint256"
        }
      ],
      "stateMutability": "nonpayable",
      "type": "function"
    },
    {
      "inputs": [
        {
          "internalType": "address",
          "name": "trader",
          "type": "address"
        },
        {
          "internalType": "address",
          "name": "withdrawToken",
          "type": "address"
        },
        {
          "internalType": "uint256",
          "name": "withdrawAmount",
          "type": "uint256"
        }
      ],
      "name": "registerWithdrawal",
      "outputs": [],
      "stateMutability": "nonpayable",
      "type": "function"
    },
    {
      "inputs": [],
      "name": "renounceOwnership",
      "outputs": [],
      "stateMutability": "nonpayable",
      "type": "function"
    },
    {
      "inputs": [
        {
          "internalType": "address",
          "name": "",
          "type": "address"
        },
        {
          "internalType": "uint16",
          "name": "",
          "type": "uint16"
        }
      ],
      "name": "roleCache",
      "outputs": [
        {
          "internalType": "bool",
          "name": "",
          "type": "bool"
        }
      ],
      "stateMutability": "view",
      "type": "function"
    },
    {
      "inputs": [],
      "name": "roles",
      "outputs": [
        {
          "internalType": "contract Roles",
          "name": "",
          "type": "address"
        }
      ],
      "stateMutability": "view",
      "type": "function"
    },
    {
      "inputs": [
        {
          "internalType": "uint256",
          "name": "rate",
          "type": "uint256"
        }
      ],
      "name": "setConfidentUpdateRate",
      "outputs": [],
      "stateMutability": "nonpayable",
      "type": "function"
    },
    {
      "inputs": [
        {
          "internalType": "uint256",
          "name": "blocks",
          "type": "uint256"
        }
      ],
      "name": "setCoolingOffPeriod",
      "outputs": [],
      "stateMutability": "nonpayable",
      "type": "function"
    },
    {
      "inputs": [
        {
          "internalType": "uint256",
          "name": "threshFactor",
          "type": "uint256"
        }
      ],
      "name": "setFailureThreshold",
      "outputs": [],
      "stateMutability": "nonpayable",
      "type": "function"
    },
    {
      "inputs": [
        {
          "internalType": "uint256",
          "name": "_leverage",
          "type": "uint256"
        }
      ],
      "name": "setLeverage",
      "outputs": [],
      "stateMutability": "nonpayable",
      "type": "function"
    },
    {
      "inputs": [
        {
          "internalType": "uint256",
          "name": "window",
          "type": "uint256"
        }
      ],
      "name": "setLiqStakeAttackWindow",
      "outputs": [],
      "stateMutability": "nonpayable",
      "type": "function"
    },
    {
      "inputs": [
        {
          "internalType": "address[]",
          "name": "path",
          "type": "address[]"
        }
      ],
      "name": "setLiquidationPath",
      "outputs": [],
      "stateMutability": "nonpayable",
      "type": "function"
    },
    {
      "inputs": [
        {
          "internalType": "uint256",
          "name": "threshold",
          "type": "uint256"
        }
      ],
      "name": "setLiquidationThresholdPercent",
      "outputs": [],
      "stateMutability": "nonpayable",
      "type": "function"
    },
    {
      "inputs": [
        {
          "internalType": "uint256",
          "name": "cut",
          "type": "uint256"
        }
      ],
      "name": "setMaintainerCutPercent",
      "outputs": [],
      "stateMutability": "nonpayable",
      "type": "function"
    },
    {
      "inputs": [
        {
          "internalType": "uint16",
          "name": "window",
          "type": "uint16"
        }
      ],
      "name": "setPriceUpdateWindow",
      "outputs": [],
      "stateMutability": "nonpayable",
      "type": "function"
    },
    {
      "inputs": [
        {
          "internalType": "uint256",
          "name": "rate",
          "type": "uint256"
        }
      ],
      "name": "setTepidUpdateRate",
      "outputs": [],
      "stateMutability": "nonpayable",
      "type": "function"
    },
    {
      "inputs": [
        {
          "internalType": "address",
          "name": "token",
          "type": "address"
        },
        {
          "internalType": "uint256",
          "name": "cap",
          "type": "uint256"
        }
      ],
      "name": "setTokenCap",
      "outputs": [],
      "stateMutability": "nonpayable",
      "type": "function"
    },
    {
      "inputs": [
        {
          "internalType": "uint256",
          "name": "amount",
          "type": "uint256"
        }
      ],
      "name": "setUpdateMaxPegAmount",
      "outputs": [],
      "stateMutability": "nonpayable",
      "type": "function"
    },
    {
      "inputs": [
        {
          "internalType": "uint256",
          "name": "amount",
          "type": "uint256"
        }
      ],
      "name": "setUpdateMinPegAmount",
      "outputs": [],
      "stateMutability": "nonpayable",
      "type": "function"
    },
    {
      "inputs": [
        {
          "internalType": "address",
          "name": "",
          "type": "address"
        }
      ],
      "name": "stakeAttackRecords",
      "outputs": [
        {
          "internalType": "uint256",
          "name": "blockNum",
          "type": "uint256"
        },
        {
          "internalType": "address",
          "name": "loser",
          "type": "address"
        },
        {
          "internalType": "uint256",
          "name": "amount",
          "type": "uint256"
        },
        {
          "internalType": "address",
          "name": "stakeAttacker",
          "type": "address"
        }
      ],
      "stateMutability": "view",
      "type": "function"
    },
    {
      "inputs": [
        {
          "internalType": "address",
          "name": "",
          "type": "address"
        }
      ],
      "name": "tokenCaps",
      "outputs": [
        {
          "internalType": "uint256",
          "name": "",
          "type": "uint256"
        }
      ],
      "stateMutability": "view",
      "type": "function"
    },
    {
      "inputs": [
        {
          "internalType": "address",
          "name": "",
          "type": "address"
        }
      ],
      "name": "tokenPrices",
      "outputs": [
        {
          "internalType": "uint256",
          "name": "blockLastUpdated",
          "type": "uint256"
        },
        {
          "internalType": "uint256",
          "name": "tokenPer1k",
          "type": "uint256"
        }
      ],
      "stateMutability": "view",
      "type": "function"
    },
    {
      "inputs": [
        {
          "internalType": "address",
          "name": "",
          "type": "address"
        }
      ],
      "name": "totalLong",
      "outputs": [
        {
          "internalType": "uint256",
          "name": "",
          "type": "uint256"
        }
      ],
      "stateMutability": "view",
      "type": "function"
    },
    {
      "inputs": [
        {
          "internalType": "address",
          "name": "",
          "type": "address"
        }
      ],
      "name": "totalShort",
      "outputs": [
        {
          "internalType": "uint256",
          "name": "",
          "type": "uint256"
        }
      ],
      "stateMutability": "view",
      "type": "function"
    },
    {
      "inputs": [
        {
          "internalType": "address",
          "name": "newOwner",
          "type": "address"
        }
      ],
      "name": "transferOwnership",
      "outputs": [],
      "stateMutability": "nonpayable",
      "type": "function"
    },
    {
      "inputs": [
        {
          "internalType": "uint16",
          "name": "role",
          "type": "uint16"
        }
      ],
      "name": "updateMainCharacterCache",
      "outputs": [],
      "stateMutability": "nonpayable",
      "type": "function"
    },
    {
      "inputs": [
        {
          "internalType": "uint16",
          "name": "role",
          "type": "uint16"
        },
        {
          "internalType": "address",
          "name": "contr",
          "type": "address"
        }
      ],
      "name": "updateRoleCache",
      "outputs": [],
      "stateMutability": "nonpayable",
      "type": "function"
    }
  ],
  "transactionHash": "0x547c99c41ab2b21226e38160e7270736b40b8fc250f293f37e5558b4ad948a43",
  "args": [
    "0xdac17f958d2ee523a2206206994597c13d831ec7",
    "0xa94DDbb3Ba629E637F63F54Bae6724c271ccA48f"
  ],
  "solcInputHash": "08be857727729141da45d726c3ea7073",
  "bytecode": "0x60806040526006805461ffff19166008908117909155601460075561028a905561c3506009556103e8600a908155601881905560056019819055601a55601b553480156200004c57600080fd5b5060405162005991380380620059918339810160408190526200006f9162000129565b818160006200007d62000108565b600080546001600160a01b0319166001600160a01b0383169081178255604051929350917f8be0079c531659141344cd1fd0a4f28419497f9722a3daafe3b4186f6b6457e0908290a350600180546001600160a01b039283166001600160a01b031991821617909155600480549390921692169190911790555050606e600c55601460115562000160565b3390565b80516001600160a01b03811681146200012457600080fd5b919050565b600080604083850312156200013c578182fd5b62000147836200010c565b915062000157602084016200010c565b90509250929050565b61582180620001706000396000f3fe608060405234801561001057600080fd5b506004361061043c5760003560e01c80636cd5cd6011610235578063b448165211610135578063d0eb6653116100c8578063e0f3871f11610097578063f171c6011161007c578063f171c60114610814578063f2fde38b14610827578063f99fd97c1461083a5761043c565b8063e0f3871f146107ee578063eac29dd6146108015761043c565b8063d0eb6653146107ad578063d510c535146107c0578063d5d7ed7f146107d3578063db2d904d146107db5761043c565b8063c3c9fcd911610104578063c3c9fcd914610782578063c73afac21461078a578063c76139d01461079d578063cacf8d45146107a55761043c565b8063b448165214610719578063badb50481461072c578063bc44dcbc1461074f578063c34316c3146107625761043c565b80639d01b86c116101c8578063a371891911610197578063a94c7c341161017c578063a94c7c34146106f6578063a985994b146106fe578063a9cc0536146107115761043c565b8063a3718919146106d0578063a75697a5146106e35761043c565b80639d01b86c146106a55780639dfc0c16146106ad578063a0089159146106b5578063a0098d69146106c85761043c565b80637d100e84116102045780637d100e841461068557806381ca66001461068d57806383a49c7c146106955780638da5cb5b1461069d5761043c565b80636cd5cd60146106445780636cd7bc4b14610657578063715018a61461066a57806379575b23146106725761043c565b8063320d2fa01161034057806346b88796116102d357806352a664d9116102a2578063541bcb7611610287578063541bcb761461062c5780635c275a3914610634578063669419841461063c5761043c565b806352a664d914610611578063538edb29146106245761043c565b806346b88796146105e657806348fb27b8146105ee578063498d55eb146105f65780634aa4aca3146106095761043c565b8063392f5f641161030f578063392f5f64146105a25780633ed456fa146105aa5780633ffc17c0146105b2578063409fdb72146105c55761043c565b8063320d2fa01461056c57806332fe7b2614610574578063333080c01461057c5780633500aa0b1461058f5761043c565b80631f1cb62b116103d3578063232c765b116103a25780632c86d98e116103875780632c86d98e146105545780632fe94def1461055c5780632febaa74146105645761043c565b8063232c765b146105395780632a0acc6a1461054c5761043c565b80631f1cb62b146104d0578063204120bc146104e557806320c271261461050657806320e8d819146105265761043c565b806319fa00e11161040f57806319fa00e11461049a5780631b669507146104ad5780631bc5d81d146104b55780631d47e4a3146104bd5761043c565b8063065d570f1461044157806307c201751461045f57806310d584341461047457806316317e7e14610487575b600080fd5b61044961084d565b604051610456919061552f565b60405180910390f35b61047261046d366004614d7e565b610852565b005b610472610482366004614f10565b61091c565b610472610495366004614f10565b61099d565b6104726104a8366004614f10565b610a15565b610449610a8d565b610449610a92565b6104726104cb366004614d26565b610a97565b6104d8610aff565b6040516104569190614fd8565b6104f86104f3366004614c20565b610b1b565b6040516104569291906155d1565b610519610514366004614c20565b610b34565b6040516104569190615568565b610472610534366004614eda565b610b46565b610519610547366004614d26565b610c57565b610449610c6c565b610519610c71565b610449610c77565b610519610c7c565b610519610c82565b610449610c88565b61047261058a366004614f10565b610c8d565b6104f861059d366004614c58565b610d05565b6104d8611019565b610449611035565b6104726105c0366004614f10565b61103f565b6105d86105d3366004614c20565b6110b7565b60405161045692919061512e565b6104496112ad565b6104496112b2565b610472610604366004614cb2565b6112b7565b610519611446565b61051961061f366004614cb2565b61144c565b61051961160d565b6104d8611613565b61044961162b565b610449611630565b610472610652366004614ec0565b611635565b610472610665366004614d7e565b611734565b610472611cd6565b610472610680366004614f10565b611db8565b610519611e30565b610449611e36565b610449611e3b565b6104d8611e40565b610519611e5d565b610519611e63565b6104726106c3366004614ec0565b611e69565b610449611f11565b6104726106de366004614f10565b611f16565b6105196106f1366004614c20565b611f8e565b610449611fa0565b61051961070c366004614d7e565b611fa5565b610449612567565b6104d8610727366004614ec0565b61256c565b61073f61073a366004614c20565b612594565b604051610456949392919061559d565b61051961075d366004614c20565b6125d5565b610775610770366004614cf2565b6125e7565b6040516104569190615184565b610519612607565b610472610798366004614f10565b61260d565b610449612685565b61044961268a565b6104726107bb366004614cb2565b61268f565b6105d86107ce366004614c20565b61280e565b610449612a8c565b6104726107e9366004614c20565b612a91565b6105196107fc366004614c20565b612c31565b61051961080f366004614c20565b612c43565b610472610822366004614f10565b612c6f565b610472610835366004614c20565b612ce7565b610472610848366004614f10565b612e34565b600381565b60005b80825111156109185760006017600084848151811061089d577f4e487b7100000000000000000000000000000000000000000000000000000000600052603260045260246000fd5b602002602001015173ffffffffffffffffffffffffffffffffffffffff1673ffffffffffffffffffffffffffffffffffffffff168152602001908152602001600020905060195481600001546108f39190615652565b4311156109055761090381612eac565b505b508061091081615732565b915050610855565b5050565b610924613169565b73ffffffffffffffffffffffffffffffffffffffff16610942611e40565b73ffffffffffffffffffffffffffffffffffffffff1614610998576040517f08c379a000000000000000000000000000000000000000000000000000000000815260040161098f906153e3565b60405180910390fd5b601b55565b6109a5613169565b73ffffffffffffffffffffffffffffffffffffffff166109c3611e40565b73ffffffffffffffffffffffffffffffffffffffff1614610a10576040517f08c379a000000000000000000000000000000000000000000000000000000000815260040161098f906153e3565b600c55565b610a1d613169565b73ffffffffffffffffffffffffffffffffffffffff16610a3b611e40565b73ffffffffffffffffffffffffffffffffffffffff1614610a88576040517f08c379a000000000000000000000000000000000000000000000000000000000815260040161098f906153e3565b600a55565b600a81565b600881565b610aa03361316d565b610ad6576040517f08c379a000000000000000000000000000000000000000000000000000000000815260040161098f9061518f565b73ffffffffffffffffffffffffffffffffffffffff9091166000908152600e6020526040902055565b60045473ffffffffffffffffffffffffffffffffffffffff1681565b6005602052600090815260409020805460019091015482565b60106020526000908152604090205481565b6001546040517fd87fefd200000000000000000000000000000000000000000000000000000000815273ffffffffffffffffffffffffffffffffffffffff9091169063d87fefd290610b9e908590859060040161553e565b60206040518083038186803b158015610bb657600080fd5b505afa158015610bca573d6000803e3d6000fd5b505050506040513d601f19601f82011682018060405250810190610bee9190614ea0565b73ffffffffffffffffffffffffffffffffffffffff909116600090815260036020908152604080832061ffff90951683529390529190912080549115157fffffffffffffffffffffffffffffffffffffffffffffffffffffffffffffff00909216919091179055565b6000610c6383836131a4565b90505b92915050565b606b81565b600b5481565b606981565b60115481565b600c5481565b606781565b610c95613169565b73ffffffffffffffffffffffffffffffffffffffff16610cb3611e40565b73ffffffffffffffffffffffffffffffffffffffff1614610d00576040517f08c379a000000000000000000000000000000000000000000000000000000000815260040161098f906153e3565b600755565b600080610d1133613344565b610d47576040517f08c379a000000000000000000000000000000000000000000000000000000000815260040161098f906151ec565b73ffffffffffffffffffffffffffffffffffffffff8088166000908152600d6020908152604080832093891683526002840190915290205415610dff5773ffffffffffffffffffffffffffffffffffffffff86166000908152600282016020526040902054610db790859061337b565b9250610dc4818785613393565b73ffffffffffffffffffffffffffffffffffffffff86166000908152600f602052604081208054859290610df99084906156e0565b90915550505b73ffffffffffffffffffffffffffffffffffffffff871660009081526010602052604081208054879290610e349084906156e0565b90915550610e44905083856156e0565b73ffffffffffffffffffffffffffffffffffffffff871660009081526010602052604081208054909190610e79908490615652565b909155505073ffffffffffffffffffffffffffffffffffffffff8616600090815260106020908152604080832054600e909252909120541015610ee8576040517f08c379a000000000000000000000000000000000000000000000000000000000815260040161098f90615418565b73ffffffffffffffffffffffffffffffffffffffff871660009081526005820160205260409020548590811115611000575073ffffffffffffffffffffffffffffffffffffffff87166000908152600582016020526040902054610f4c81876156e0565b73ffffffffffffffffffffffffffffffffffffffff89166000908152600f6020526040812080549295508592909190610f86908490615652565b909155505073ffffffffffffffffffffffffffffffffffffffff88166000908152600f6020908152604080832054600e909252909120541015610ff5576040517f08c379a000000000000000000000000000000000000000000000000000000000815260040161098f90615418565b6110008289856135d5565b61100d828989848961385f565b50509550959350505050565b60015473ffffffffffffffffffffffffffffffffffffffff1681565b60065461ffff1681565b611047613169565b73ffffffffffffffffffffffffffffffffffffffff16611065611e40565b73ffffffffffffffffffffffffffffffffffffffff16146110b2576040517f08c379a000000000000000000000000000000000000000000000000000000000815260040161098f906153e3565b600955565b73ffffffffffffffffffffffffffffffffffffffff81166000908152600d602090815260409182902060048101805484518185028101850190955280855260609485949092919083018282801561114457602002820191906000526020600020905b815473ffffffffffffffffffffffffffffffffffffffff168152600190910190602001808311611119575b5050506004840154929550505067ffffffffffffffff811115611190577f4e487b7100000000000000000000000000000000000000000000000000000000600052604160045260246000fd5b6040519080825280602002602001820160405280156111b9578160200160208202803683370190505b50915060005b80845111156112a6576000848281518110611203577f4e487b7100000000000000000000000000000000000000000000000000000000600052603260045260246000fd5b602002602001015190508260050160008273ffffffffffffffffffffffffffffffffffffffff1673ffffffffffffffffffffffffffffffffffffffff16815260200190815260200160002054848381518110611288577f4e487b7100000000000000000000000000000000000000000000000000000000600052603260045260246000fd5b6020908102919091010152508061129e81615732565b9150506111bf565b5050915091565b600681565b606681565b6112c033613344565b6112f6576040517f08c379a000000000000000000000000000000000000000000000000000000000815260040161098f906154d2565b73ffffffffffffffffffffffffffffffffffffffff82166000908152600f60205260408120805483929061132b908490615652565b909155505073ffffffffffffffffffffffffffffffffffffffff821660009081526010602052604081208054839290611365908490615652565b909155505073ffffffffffffffffffffffffffffffffffffffff82166000908152600f6020908152604080832054600e90925290912054108015906113da575073ffffffffffffffffffffffffffffffffffffffff8216600090815260106020908152604080832054600e9092529091205410155b611410576040517f08c379a000000000000000000000000000000000000000000000000000000000815260040161098f90615418565b73ffffffffffffffffffffffffffffffffffffffff83166000908152600d602052604090206114408184846135d5565b50505050565b60195481565b600061145733613344565b61148d576040517f08c379a000000000000000000000000000000000000000000000000000000000815260040161098f906154d2565b73ffffffffffffffffffffffffffffffffffffffff8085166000908152600d60209081526040808320938716835260028401909152902054156115455773ffffffffffffffffffffffffffffffffffffffff841660009081526002820160205260409020546114fd90849061337b565b915061150a818584613393565b73ffffffffffffffffffffffffffffffffffffffff84166000908152600f60205260408120805484929061153f9084906156e0565b90915550505b600061155183856156e0565b905061155e8286836138cc565b73ffffffffffffffffffffffffffffffffffffffff851660009081526010602052604081208054839290611593908490615652565b909155505073ffffffffffffffffffffffffffffffffffffffff8516600090815260106020908152604080832054600e909252909120541015611602576040517f08c379a000000000000000000000000000000000000000000000000000000000815260040161098f90615418565b504390559392505050565b601a5481565b735c69bee701ef814a2b6a3edd4b1652cb9cc5aa6f81565b606581565b600181565b6001546040517f3c9c8f9c00000000000000000000000000000000000000000000000000000000815273ffffffffffffffffffffffffffffffffffffffff90911690633c9c8f9c9061168b90849060040161552f565b60206040518083038186803b1580156116a357600080fd5b505afa1580156116b7573d6000803e3d6000fd5b505050506040513d601f19601f820116820180604052508101906116db9190614c3c565b61ffff91909116600090815260026020526040902080547fffffffffffffffffffffffff00000000000000000000000000000000000000001673ffffffffffffffffffffffffffffffffffffffff909216919091179055565b61173d3361316d565b611773576040517f08c379a000000000000000000000000000000000000000000000000000000000815260040161098f906152a6565b6000816000815181106117af577f4e487b7100000000000000000000000000000000000000000000000000000000600052603260045260246000fd5b60200260200101519050815167ffffffffffffffff8111156117fa577f4e487b7100000000000000000000000000000000000000000000000000000000600052604160045260246000fd5b604051908082528060200260200182016040528015611823578160200160208202803683370190505b5073ffffffffffffffffffffffffffffffffffffffff821660009081526005602090815260409091208251611862936002909201929190910190614b55565b50815167ffffffffffffffff8111156118a4577f4e487b7100000000000000000000000000000000000000000000000000000000600052604160045260246000fd5b6040519080825280602002602001820160405280156118cd578160200160208202803683370190505b5073ffffffffffffffffffffffffffffffffffffffff82166000908152600560209081526040909120825161190c936003909201929190910190614b55565b5060005b8061ffff1683511115611b6357828161ffff168151811061195a577f4e487b7100000000000000000000000000000000000000000000000000000000600052603260045260246000fd5b6020026020010151600560008473ffffffffffffffffffffffffffffffffffffffff1673ffffffffffffffffffffffffffffffffffffffff1681526020019081526020016000206002018261ffff16815481106119e0577f4e487b7100000000000000000000000000000000000000000000000000000000600052603260045260246000fd5b9060005260206000200160006101000a81548173ffffffffffffffffffffffffffffffffffffffff021916908373ffffffffffffffffffffffffffffffffffffffff1602179055508260018261ffff168551611a3c91906156e0565b611a4691906156e0565b81518110611a7d577f4e487b7100000000000000000000000000000000000000000000000000000000600052603260045260246000fd5b6020026020010151600560008473ffffffffffffffffffffffffffffffffffffffff1673ffffffffffffffffffffffffffffffffffffffff1681526020019081526020016000206003018261ffff1681548110611b03577f4e487b7100000000000000000000000000000000000000000000000000000000600052603260045260246000fd5b600091825260209091200180547fffffffffffffffffffffffff00000000000000000000000000000000000000001673ffffffffffffffffffffffffffffffffffffffff9290921691909117905580611b5b816156f7565b915050611910565b506000611b6e613971565b73ffffffffffffffffffffffffffffffffffffffff1663192128b2735c69bee701ef814a2b6a3edd4b1652cb9cc5aa6f683635c9adc5dea00000866040518463ffffffff1660e01b8152600401611bc79392919061502a565b60006040518083038186803b158015611bdf57600080fd5b505afa158015611bf3573d6000803e3d6000fd5b505050506040513d6000823e601f3d9081017fffffffffffffffffffffffffffffffffffffffffffffffffffffffffffffffe0168201604052611c399190810190614e1c565b9050600081600081518110611c77577f4e487b7100000000000000000000000000000000000000000000000000000000600052603260045260246000fd5b60200260200101519050611440600560008573ffffffffffffffffffffffffffffffffffffffff1673ffffffffffffffffffffffffffffffffffffffff16815260200190815260200160002082683635c9adc5dea000006103e86139b6565b611cde613169565b73ffffffffffffffffffffffffffffffffffffffff16611cfc611e40565b73ffffffffffffffffffffffffffffffffffffffff1614611d49576040517f08c379a000000000000000000000000000000000000000000000000000000000815260040161098f906153e3565b6000805460405173ffffffffffffffffffffffffffffffffffffffff909116907f8be0079c531659141344cd1fd0a4f28419497f9722a3daafe3b4186f6b6457e0908390a3600080547fffffffffffffffffffffffff0000000000000000000000000000000000000000169055565b611dc0613169565b73ffffffffffffffffffffffffffffffffffffffff16611dde611e40565b73ffffffffffffffffffffffffffffffffffffffff1614611e2b576040517f08c379a000000000000000000000000000000000000000000000000000000000815260040161098f906153e3565b600b55565b601b5481565b606a81565b600981565b60005473ffffffffffffffffffffffffffffffffffffffff165b90565b60185481565b60085481565b611e71613169565b73ffffffffffffffffffffffffffffffffffffffff16611e8f611e40565b73ffffffffffffffffffffffffffffffffffffffff1614611edc576040517f08c379a000000000000000000000000000000000000000000000000000000000815260040161098f906153e3565b600680547fffffffffffffffffffffffffffffffffffffffffffffffffffffffffffff00001661ffff92909216919091179055565b600281565b611f1e613169565b73ffffffffffffffffffffffffffffffffffffffff16611f3c611e40565b73ffffffffffffffffffffffffffffffffffffffff1614611f89576040517f08c379a000000000000000000000000000000000000000000000000000000000815260040161098f906153e3565b601955565b60166020526000908152604090205481565b600581565b600080611fb0613a2d565b73ffffffffffffffffffffffffffffffffffffffff16637b23cbce336040518263ffffffff1660e01b8152600401611fe89190614fd8565b602060405180830381600087803b15801561200257600080fd5b505af1158015612016573d6000803e3d6000fd5b505050506040513d601f19601f8201168201806040525081019061203a9190614ea0565b90506000818061204d575061204d613a72565b9050600061205b8584613b39565b9050809350600061206a61410c565b9050600061207661421b565b9050816064601a54606461208a9190615652565b61209490846156a3565b61209e919061566a565b11156120e5577f3555ffae7677eb42103f0b9e11b61c758f452fae446684dec7a363dd38ab58fc6120cf83836156e0565b6040516120dc9190615568565b60405180910390a15b600084612176576120f4613a2d565b73ffffffffffffffffffffffffffffffffffffffff16631a38de1d6040518163ffffffff1660e01b8152600401602060405180830381600087803b15801561213b57600080fd5b505af115801561214f573d6000803e3d6000fd5b505050506040513d601f19601f820116820180604052508101906121739190614c3c565b90505b60005b6015548110156123cc576000601582815481106121bf577f4e487b7100000000000000000000000000000000000000000000000000000000600052603260045260246000fd5b600091825260208083209091015473ffffffffffffffffffffffffffffffffffffffff16808352600d90915260408220909250906121fe826001614327565b9050600061220d83600161433a565b905060006064601a548361222191906156a3565b61222b919061566a565b9050612237818e615652565b9c508a6122b15773ffffffffffffffffffffffffffffffffffffffff858116600090815260176020526040902060028101839055600381018054337fffffffffffffffffffffffff000000000000000000000000000000000000000091821617909155438255600190910180549091169189169190911790555b6122bb8282615652565b8310612374576122c9614351565b60045473ffffffffffffffffffffffffffffffffffffffff9182169163d9caed12911687846122f887896156e0565b61230291906156e0565b6040518463ffffffff1660e01b815260040161232093929190614ff9565b602060405180830381600087803b15801561233a57600080fd5b505af115801561234e573d6000803e3d6000fd5b505050506040513d601f19601f820116820180604052508101906123729190614ea0565b505b7f1d2cc4c8661a04a00b4e727426220501b36d85bb330947642c2d4320667028cf856040516123a39190614fd8565b60405180910390a16123b484614396565b505050505080806123c490615732565b915050612179565b5060648760185460636123df91906156a3565b6123e99190615652565b6123f3919061566a565b6018556000612400613a2d565b73ffffffffffffffffffffffffffffffffffffffff16631a38de1d6040518163ffffffff1660e01b8152600401602060405180830381600087803b15801561244757600080fd5b505af115801561245b573d6000803e3d6000fd5b505050506040513d601f19601f8201168201806040525081019061247f9190614c3c565b905086156125205773ffffffffffffffffffffffffffffffffffffffff81166000908152601660205260409020548810156124f45773ffffffffffffffffffffffffffffffffffffffff8116600090815260166020526040812080548a92906124e99084906156e0565b9091555061251b9050565b73ffffffffffffffffffffffffffffffffffffffff81166000908152601660205260408120555b61255b565b73ffffffffffffffffffffffffffffffffffffffff8116600090815260166020526040812080548a9290612555908490615652565b90915550505b50505050505050919050565b606881565b60026020526000908152604090205473ffffffffffffffffffffffffffffffffffffffff1681565b6017602052600090815260409020805460018201546002830154600390930154919273ffffffffffffffffffffffffffffffffffffffff9182169290911684565b600f6020526000908152604090205481565b600360209081526000928352604080842090915290825290205460ff1681565b60075481565b612615613169565b73ffffffffffffffffffffffffffffffffffffffff16612633611e40565b73ffffffffffffffffffffffffffffffffffffffff1614612680576040517f08c379a000000000000000000000000000000000000000000000000000000000815260040161098f906153e3565b601a55565b606c81565b600481565b61269833613344565b6126ce576040517f08c379a000000000000000000000000000000000000000000000000000000000815260040161098f906154d2565b73ffffffffffffffffffffffffffffffffffffffff83166000908152600d6020526040902060115481546127029190615652565b431161273a576040517f08c379a000000000000000000000000000000000000000000000000000000000815260040161098f90615360565b73ffffffffffffffffffffffffffffffffffffffff83166000908152601060205260408120805484929061276f9084906156e0565b909155505073ffffffffffffffffffffffffffffffffffffffff831660009081526005820160205260409020546127a79083906156e0565b73ffffffffffffffffffffffffffffffffffffffff841660009081526005830160205260409020556127d8816145aa565b611440576040517f08c379a000000000000000000000000000000000000000000000000000000000815260040161098f90615303565b73ffffffffffffffffffffffffffffffffffffffff81166000908152600d602090815260409182902060018101805484518185028101850190955280855260609485949092919083018282801561289b57602002820191906000526020600020905b815473ffffffffffffffffffffffffffffffffffffffff168152600190910190602001808311612870575b5050506001840154929550505067ffffffffffffffff8111156128e7577f4e487b7100000000000000000000000000000000000000000000000000000000600052604160045260246000fd5b604051908082528060200260200182016040528015612910578160200160208202803683370190505b50915060005b80845111156112a657600084828151811061295a577f4e487b7100000000000000000000000000000000000000000000000000000000600052603260045260246000fd5b6020026020010151905061296c6145fa565b73ffffffffffffffffffffffffffffffffffffffff828116600090815260028601602090815260408083205460038901909252918290205491517f687680ed000000000000000000000000000000000000000000000000000000008152939092169263687680ed926129e5929091869190600401615571565b60206040518083038186803b1580156129fd57600080fd5b505afa158015612a11573d6000803e3d6000fd5b505050506040513d601f19601f82011682018060405250810190612a359190614f28565b848381518110612a6e577f4e487b7100000000000000000000000000000000000000000000000000000000600052603260045260246000fd5b60209081029190910101525080612a8481615732565b915050612916565b600781565b612a9a33613344565b612ad0576040517f08c379a000000000000000000000000000000000000000000000000000000000815260040161098f906151ec565b73ffffffffffffffffffffffffffffffffffffffff81166000908152600d60205260408120905b600182015462ffffff82161015612c27576000826001018262ffffff1681548110612b4b577f4e487b7100000000000000000000000000000000000000000000000000000000600052603260045260246000fd5b60009182526020909120015473ffffffffffffffffffffffffffffffffffffffff169050612b776145fa565b73ffffffffffffffffffffffffffffffffffffffff8281166000908152600286016020526040908190205490517f2a6a897b0000000000000000000000000000000000000000000000000000000081529290911691632a6a897b91612be191859190600401615068565b600060405180830381600087803b158015612bfb57600080fd5b505af1158015612c0f573d6000803e3d6000fd5b50505050508080612c1f90615719565b915050612af7565b5061091881614396565b600e6020526000908152604090205481565b73ffffffffffffffffffffffffffffffffffffffff81166000908152600d60205260409020545b919050565b612c77613169565b73ffffffffffffffffffffffffffffffffffffffff16612c95611e40565b73ffffffffffffffffffffffffffffffffffffffff1614612ce2576040517f08c379a000000000000000000000000000000000000000000000000000000000815260040161098f906153e3565b600855565b612cef613169565b73ffffffffffffffffffffffffffffffffffffffff16612d0d611e40565b73ffffffffffffffffffffffffffffffffffffffff1614612d5a576040517f08c379a000000000000000000000000000000000000000000000000000000000815260040161098f906153e3565b73ffffffffffffffffffffffffffffffffffffffff8116612da7576040517f08c379a000000000000000000000000000000000000000000000000000000000815260040161098f90615249565b6000805460405173ffffffffffffffffffffffffffffffffffffffff808516939216917f8be0079c531659141344cd1fd0a4f28419497f9722a3daafe3b4186f6b6457e091a3600080547fffffffffffffffffffffffff00000000000000000000000000000000000000001673ffffffffffffffffffffffffffffffffffffffff92909216919091179055565b612e3c613169565b73ffffffffffffffffffffffffffffffffffffffff16612e5a611e40565b73ffffffffffffffffffffffffffffffffffffffff1614612ea7576040517f08c379a000000000000000000000000000000000000000000000000000000000815260040161098f906153e3565b601155565b600281015460009015612c6a578154600090612ed490612ecc90436156e0565b60195461337b565b90506000601954828560020154612eeb91906156a3565b612ef5919061566a565b9050612eff614351565b6004805460038701546040517fd9caed1200000000000000000000000000000000000000000000000000000000815273ffffffffffffffffffffffffffffffffffffffff9485169463d9caed1294612f609482169390911691879101614ff9565b602060405180830381600087803b158015612f7a57600080fd5b505af1158015612f8e573d6000803e3d6000fd5b505050506040513d601f19601f82011682018060405250810190612fb29190614ea0565b506000612fbd613a2d565b90506000601854838373ffffffffffffffffffffffffffffffffffffffff16630ad691506040518163ffffffff1660e01b815260040160206040518083038186803b15801561300b57600080fd5b505afa15801561301f573d6000803e3d6000fd5b505050506040513d601f19601f820116820180604052508101906130439190614f28565b61304d91906156a3565b613057919061566a565b600187015460038801546040517f0a45bc1b00000000000000000000000000000000000000000000000000000000815292935073ffffffffffffffffffffffffffffffffffffffff80861693630a45bc1b936130be9390831692879291169060040161508e565b602060405180830381600087803b1580156130d857600080fd5b505af11580156130ec573d6000803e3d6000fd5b505050506040513d601f19601f820116820180604052508101906131109190614f28565b506000600287018190556003870180547fffffffffffffffffffffffff0000000000000000000000000000000000000000908116909155908755600187018054909116905561315f83866156e0565b9695505050505050565b3390565b73ffffffffffffffffffffffffffffffffffffffff1660009081526003602090815260408083206009845290915290205460ff1690565b60045460009073ffffffffffffffffffffffffffffffffffffffff848116911614156131d1575080610c66565b73ffffffffffffffffffffffffffffffffffffffff83166000908152600560205260408120906131ff613971565b73ffffffffffffffffffffffffffffffffffffffff1663bb7b9c76735c69bee701ef814a2b6a3edd4b1652cb9cc5aa6f86856002016040518463ffffffff1660e01b8152600401613252939291906150be565b60006040518083038186803b15801561326a57600080fd5b505afa15801561327e573d6000803e3d6000fd5b505050506040513d6000823e601f3d9081017fffffffffffffffffffffffffffffffffffffffffffffffffffffffffffffffe01682016040526132c49190810190614e1c565b9050600081600183516132d791906156e0565b8151811061330e577f4e487b7100000000000000000000000000000000000000000000000000000000600052603260045260246000fd5b60200260200101519050600a548111801561332a575060095481105b1561333a5761333a83868361463f565b9250610c66915050565b73ffffffffffffffffffffffffffffffffffffffff1660009081526003602090815260408083206004845290915290205460ff1690565b60008183111561338c575080610c66565b5081610c66565b61339b6145fa565b73ffffffffffffffffffffffffffffffffffffffff838116600090815260028601602090815260408083205460038901909252918290205491517fe695fa68000000000000000000000000000000000000000000000000000000008152939092169263e695fa6892613414929091879190600401615571565b602060405180830381600087803b15801561342e57600080fd5b505af1158015613442573d6000803e3d6000fd5b505050506040513d601f19601f820116820180604052508101906134669190614f28565b73ffffffffffffffffffffffffffffffffffffffff83166000908152600285016020526040902081905561349b9082906156e0565b73ffffffffffffffffffffffffffffffffffffffff8316600090815260028501602090815260408083209390935560058601905220546134dc9082906156e0565b73ffffffffffffffffffffffffffffffffffffffff831660009081526005850160209081526040808320939093556002860190522054156135d05761351f6145fa565b73ffffffffffffffffffffffffffffffffffffffff1663e5ea6606836040518263ffffffff1660e01b81526004016135579190614fd8565b60206040518083038186803b15801561356f57600080fd5b505afa158015613583573d6000803e3d6000fd5b505050506040513d601f19601f820116820180604052508101906135a79190614f28565b73ffffffffffffffffffffffffffffffffffffffff831660009081526003850160205260409020555b505050565b6135df8383614654565b61363c576001838101805491820181556000908152602090200180547fffffffffffffffffffffffff00000000000000000000000000000000000000001673ffffffffffffffffffffffffffffffffffffffff8416179055613738565b6136446145fa565b73ffffffffffffffffffffffffffffffffffffffff838116600090815260028601602090815260408083205460038901909252918290205491517fe695fa68000000000000000000000000000000000000000000000000000000008152939092169263e695fa68926136bd929091879190600401615571565b602060405180830381600087803b1580156136d757600080fd5b505af11580156136eb573d6000803e3d6000fd5b505050506040513d601f19601f8201168201806040525081019061370f9190614f28565b73ffffffffffffffffffffffffffffffffffffffff831660009081526002850160205260409020555b6137406145fa565b73ffffffffffffffffffffffffffffffffffffffff1663e5ea6606836040518263ffffffff1660e01b81526004016137789190614fd8565b60206040518083038186803b15801561379057600080fd5b505afa1580156137a4573d6000803e3d6000fd5b505050506040513d601f19601f820116820180604052508101906137c89190614f28565b73ffffffffffffffffffffffffffffffffffffffff83166000908152600385016020908152604080832093909355600286019052908120805483929061380f908490615652565b9091555061382090508383836138cc565b613829836145aa565b6135d0576040517f08c379a000000000000000000000000000000000000000000000000000000000815260040161098f90615475565b73ffffffffffffffffffffffffffffffffffffffff841660009081526005860160205260409020546138929083906156e0565b73ffffffffffffffffffffffffffffffffffffffff851660009081526005870160205260409020556138c58584836138cc565b5050505050565b6138d68383614682565b61393057600483018054600181018255600091825260209091200180547fffffffffffffffffffffffff00000000000000000000000000000000000000001673ffffffffffffffffffffffffffffffffffffffff84161790555b73ffffffffffffffffffffffffffffffffffffffff8216600090815260058401602052604081208054839290613967908490615652565b9091555050505050565b606760005260026020527f5202c08c707bcafbdba40c5749401bdc48ea45d1e2a9b7478770e7d3035be4cf5473ffffffffffffffffffffffffffffffffffffffff1690565b60006139c3836001615652565b6139d685683635c9adc5dea000006156a3565b6139e0919061566a565b90506103e86139ef83836156a3565b6139fb846103e86156e0565b8760010154613a0a91906156a3565b613a149190615652565b613a1e919061566a565b85600101819055505050505050565b606b60005260026020527f3d0bf07b66e03df2d56279777ed45fe038722a291b477c7255885aec2d54652a5473ffffffffffffffffffffffffffffffffffffffff1690565b600080613a7d613a2d565b73ffffffffffffffffffffffffffffffffffffffff1663b0411f466040518163ffffffff1660e01b8152600401604080518083038186803b158015613ac157600080fd5b505afa158015613ad5573d6000803e3d6000fd5b505050506040513d601f19601f82011682018060405250810190613af99190614d51565b509050601854601b54613b0c91906156a3565b73ffffffffffffffffffffffffffffffffffffffff90911660009081526016602052604090205411905090565b604080516000808252602082019283905290519091613b5b9160139190614b55565b506040805160008152602081019182905251613b7991601491614b55565b506040805160008152602081019182905251613b9791601591614b55565b5060005b8084511115614105576000848281518110613bdf577f4e487b7100000000000000000000000000000000000000000000000000000000600052603260045260246000fd5b602002602001015190506000600d60008373ffffffffffffffffffffffffffffffffffffffff1673ffffffffffffffffffffffffffffffffffffffff1681526020019081526020016000209050613c35816146b1565b156140ae576015805460018101825560009182527f55f448fdea98c4d29eb340757ef0a66cd03dbb9538908a6a81d96026b71ec4750180547fffffffffffffffffffffffff00000000000000000000000000000000000000001673ffffffffffffffffffffffffffffffffffffffff85161790555b6004820154811015613e22576000826004018281548110613cf4577f4e487b7100000000000000000000000000000000000000000000000000000000600052603260045260246000fd5b600091825260208083209091015473ffffffffffffffffffffffffffffffffffffffff16808352601290915260409091206002810154919250904314613dca5773ffffffffffffffffffffffffffffffffffffffff821660008181526005860160205260408120546001808501919091558184554360028501556013805491820181559091527f66de8ffda797e3de9c05e8fc57b3bf0ec28a930d40b0d285d93c06501cf6a0900180547fffffffffffffffffffffffff0000000000000000000000000000000000000000169091179055613e0d565b73ffffffffffffffffffffffffffffffffffffffff8216600090815260058501602052604081205460018301805491929091613e07908490615652565b90915550505b50508080613e1a90615732565b915050613caa565b5060005b60018201548110156140ac576000826001018281548110613e70577f4e487b7100000000000000000000000000000000000000000000000000000000600052603260045260246000fd5b600091825260208083209091015473ffffffffffffffffffffffffffffffffffffffff1680835260129091526040822090925090613eac6145fa565b73ffffffffffffffffffffffffffffffffffffffff848116600090815260028801602090815260408083205460038b01909252918290205491517fe695fa68000000000000000000000000000000000000000000000000000000008152939092169263e695fa6892613f25929091889190600401615571565b602060405180830381600087803b158015613f3f57600080fd5b505af1158015613f53573d6000803e3d6000fd5b505050506040513d601f19601f82011682018060405250810190613f779190614f28565b9050613f816145fa565b73ffffffffffffffffffffffffffffffffffffffff16632a6a897b84836040518363ffffffff1660e01b8152600401613fbb929190615068565b600060405180830381600087803b158015613fd557600080fd5b505af1158015613fe9573d6000803e3d6000fd5b505050504382600201541461407c57600060018381018290558284554360028501556014805491820181559091527fce6d7b5282bd9a3661ae061feed1dbda4e52ab073b1f9285be6e155d9c38d4ec0180547fffffffffffffffffffffffff00000000000000000000000000000000000000001673ffffffffffffffffffffffffffffffffffffffff8516179055614096565b808260000160008282546140909190615652565b90915550505b50505080806140a490615732565b915050613e26565b505b73ffffffffffffffffffffffffffffffffffffffff8216600090815260176020526040902085156140ef576140e281612eac565b6140ec9086615652565b94505b50505080806140fd90615732565b915050613b9b565b5092915050565b6000805b60135481101561420e57600060138281548110614156577f4e487b7100000000000000000000000000000000000000000000000000000000600052603260045260246000fd5b600091825260208083209091015473ffffffffffffffffffffffffffffffffffffffff168083526012909152604090912080546001820154929350909111156141f957805460018201546000916141ac916156e0565b90506141b883826146e9565b6141c29086615652565b73ffffffffffffffffffffffffffffffffffffffff8416600090815260126020526040812081815560018101829055600201559450505b5050808061420690615732565b915050614110565b50611e5a60136000614bdf565b6000805b60145481101561431a57600060148281548110614265577f4e487b7100000000000000000000000000000000000000000000000000000000600052603260045260246000fd5b600091825260208083209091015473ffffffffffffffffffffffffffffffffffffffff16808352601290915260409091206001810154815492935090911115614305576142c582826001015483600001546142c091906156e0565b6146e9565b6142cf9085615652565b73ffffffffffffffffffffffffffffffffffffffff83166000908152601260205260408120818155600181018290556002015593505b5050808061431290615732565b91505061421f565b50611e5a60146000614bdf565b6000610c6383600401846005018461486d565b6000610c638360010184600201856003018561491d565b606560005260026020527f0bb0d0c2a399402027fb0eaada47a2c630983f3dd97f193c64f3e30465d04ec35473ffffffffffffffffffffffffffffffffffffffff1690565b60005b600182015481101561447d5760008260010182815481106143e3577f4e487b7100000000000000000000000000000000000000000000000000000000600052603260045260246000fd5b600091825260208083209091015473ffffffffffffffffffffffffffffffffffffffff16808352600286018252604080842054600f909352832080549194509192906144309084906156e0565b909155505073ffffffffffffffffffffffffffffffffffffffff1660009081526002830160209081526040808320839055600385019091528120558061447581615732565b915050614399565b5060005b600482015481101561458a5760008260040182815481106144cb577f4e487b7100000000000000000000000000000000000000000000000000000000600052603260045260246000fd5b600091825260208083209091015473ffffffffffffffffffffffffffffffffffffffff168083526005860182526040808420546010909352832080549194509192906145189084906156e0565b909155505073ffffffffffffffffffffffffffffffffffffffff166000908152600583016020908152604080832083905560068501909152902080547fffffffffffffffffffffffffffffffffffffffffffffffffffffffffffffff001690558061458281615732565b915050614481565b50614599600182016000614bdf565b6145a7600482016000614bdf565b50565b6000806145b883600061433a565b905060006145c7846000614327565b9050600b54826145d791906156a3565b6001600b546145e691906156e0565b6145f090836156a3565b1015949350505050565b606660005260026020527fc22bc11c71fccd17556f61a8a760aaab7e80d32405436c9a793b10ce8880ed245473ffffffffffffffffffffffffffffffffffffffff1690565b61464d8383836008546139b6565b5050439055565b73ffffffffffffffffffffffffffffffffffffffff1660009081526003919091016020526040902054151590565b73ffffffffffffffffffffffffffffffffffffffff166000908152600691909101602052604090205460ff1690565b6000806146bf83600161433a565b905060006146ce846001614327565b905081600c546146de91906156a3565b6145f08260646156a3565b60045460009073ffffffffffffffffffffffffffffffffffffffff84811691161415614716575080610c66565b73ffffffffffffffffffffffffffffffffffffffff8316600090815260056020526040812090614744613971565b73ffffffffffffffffffffffffffffffffffffffff16630d873d5e735c69bee701ef814a2b6a3edd4b1652cb9cc5aa6f866000866002016040518563ffffffff1660e01b815260040161479a94939291906150f3565b600060405180830381600087803b1580156147b457600080fd5b505af11580156147c8573d6000803e3d6000fd5b505050506040513d6000823e601f3d9081017fffffffffffffffffffffffffffffffffffffffffffffffffffffffffffffffe016820160405261480e9190810190614e1c565b90506000816001835161482191906156e0565b81518110614858577f4e487b7100000000000000000000000000000000000000000000000000000000600052603260045260246000fd5b6020026020010151905061333a83868361463f565b6000805b84548110156149155760008582815481106148b5577f4e487b7100000000000000000000000000000000000000000000000000000000600052603260045260246000fd5b600091825260208083209091015473ffffffffffffffffffffffffffffffffffffffff16808352908790526040909120549091506148f5908290866149cf565b6148ff9084615652565b925050808061490d90615732565b915050614871565b509392505050565b6000805b85548110156149c6576000868281548110614965577f4e487b7100000000000000000000000000000000000000000000000000000000600052603260045260246000fd5b600091825260208083209091015473ffffffffffffffffffffffffffffffffffffffff16808352908890526040909120549091506149a69082908787614a6c565b6149b09084615652565b92505080806149be90615732565b915050614921565b50949350505050565b73ffffffffffffffffffffffffffffffffffffffff83166000908152600560205260408120600654815461ffff90911690614a0a90436156e0565b1180614a1f5750828015614a1f575080544314155b80614a2c57506001810154155b15614a4357614a3b85856131a4565b915050614a65565b6001810154614a5b85683635c9adc5dea000006156a3565b614a3b919061566a565b9392505050565b600080614a776145fa565b73ffffffffffffffffffffffffffffffffffffffff1663e5ea6606876040518263ffffffff1660e01b8152600401614aaf9190614fd8565b60206040518083038186803b158015614ac757600080fd5b505afa158015614adb573d6000803e3d6000fd5b505050506040513d601f19601f82011682018060405250810190614aff9190614f28565b73ffffffffffffffffffffffffffffffffffffffff871660009081526020869052604081205491925090614b3383886156a3565b614b3d919061566a565b9050614b4a8782866149cf565b979650505050505050565b828054828255906000526020600020908101928215614bcf579160200282015b82811115614bcf57825182547fffffffffffffffffffffffff00000000000000000000000000000000000000001673ffffffffffffffffffffffffffffffffffffffff909116178255602090920191600190910190614b75565b50614bdb929150614bf9565b5090565b50805460008255906000526020600020908101906145a791905b5b80821115614bdb5760008155600101614bfa565b803561ffff81168114612c6a57600080fd5b600060208284031215614c31578081fd5b8135614a65816157c9565b600060208284031215614c4d578081fd5b8151614a65816157c9565b600080600080600060a08688031215614c6f578081fd5b8535614c7a816157c9565b94506020860135614c8a816157c9565b93506040860135614c9a816157c9565b94979396509394606081013594506080013592915050565b600080600060608486031215614cc6578283fd5b8335614cd1816157c9565b92506020840135614ce1816157c9565b929592945050506040919091013590565b60008060408385031215614d04578182fd5b8235614d0f816157c9565b9150614d1d60208401614c0e565b90509250929050565b60008060408385031215614d38578182fd5b8235614d43816157c9565b946020939093013593505050565b60008060408385031215614d63578182fd5b8251614d6e816157c9565b6020939093015192949293505050565b60006020808385031215614d90578182fd5b823567ffffffffffffffff811115614da6578283fd5b8301601f81018513614db6578283fd5b8035614dc9614dc48261562e565b6155df565b8181528381019083850185840285018601891015614de5578687fd5b8694505b83851015614e10578035614dfc816157c9565b835260019490940193918501918501614de9565b50979650505050505050565b60006020808385031215614e2e578182fd5b825167ffffffffffffffff811115614e44578283fd5b8301601f81018513614e54578283fd5b8051614e62614dc48261562e565b8181528381019083850185840285018601891015614e7e578687fd5b8694505b83851015614e10578051835260019490940193918501918501614e82565b600060208284031215614eb1578081fd5b81518015158114614a65578182fd5b600060208284031215614ed1578081fd5b610c6382614c0e565b60008060408385031215614eec578182fd5b614ef583614c0e565b91506020830135614f05816157c9565b809150509250929050565b600060208284031215614f21578081fd5b5035919050565b600060208284031215614f39578081fd5b5051919050565b6000815180845260208085019450808401835b83811015614f8557815173ffffffffffffffffffffffffffffffffffffffff1687529582019590820190600101614f53565b509495945050505050565b6000815480845260208085019450838352808320835b83811015614f8557815473ffffffffffffffffffffffffffffffffffffffff1687529582019560019182019101614fa6565b73ffffffffffffffffffffffffffffffffffffffff91909116815260200190565b73ffffffffffffffffffffffffffffffffffffffff9384168152919092166020820152604081019190915260600190565b600073ffffffffffffffffffffffffffffffffffffffff851682528360208301526060604083015261505f6060830184614f40565b95945050505050565b73ffffffffffffffffffffffffffffffffffffffff929092168252602082015260400190565b73ffffffffffffffffffffffffffffffffffffffff93841681526020810192909252909116604082015260600190565b600073ffffffffffffffffffffffffffffffffffffffff851682528360208301526060604083015261505f6060830184614f90565b600073ffffffffffffffffffffffffffffffffffffffff861682528460208301528360408301526080606083015261315f6080830184614f90565b6000604082526151416040830185614f40565b828103602084810191909152845180835285820192820190845b818110156151775784518352938301939183019160010161515b565b5090979650505050505050565b901515815260200190565b60208082526026908201527f43616c6c6572206e6f7420617574686f72697a656420746f2073657420746f6b60408201527f656e206361700000000000000000000000000000000000000000000000000000606082015260800190565b60208082526039908201527f43616c6c696e6720636f6e7472616374206973206e6f7420616e20617574686f60408201527f72697a6564206d617267696e20747261646572206167656e7400000000000000606082015260800190565b60208082526026908201527f4f776e61626c653a206e6577206f776e657220697320746865207a65726f206160408201527f6464726573730000000000000000000000000000000000000000000000000000606082015260800190565b60208082526021908201527f6e6f7420617574686f72697a656420746f20736574206c656e64696e6720636160408201527f7000000000000000000000000000000000000000000000000000000000000000606082015260800190565b60208082526026908201527f4163636f756e742062616c616e636520697320746f6f206c6f7720746f20776960408201527f7468647261770000000000000000000000000000000000000000000000000000606082015260800190565b60208082526052908201527f546f2070726576656e742061747461636b7320796f75206d757374207761697460408201527f20756e74696c20796f757220636f6f6c696e67206f666620706572696f64206960608201527f73206f76657220746f2077697468647261770000000000000000000000000000608082015260a00190565b6020808252818101527f4f776e61626c653a2063616c6c6572206973206e6f7420746865206f776e6572604082015260600190565b60208082526039908201527f457863656564696e6720676c6f62616c206578706f737572652063617020746f60408201527f20746f6b656e202d2d2074727920616761696e206c6174657200000000000000606082015260800190565b60208082526022908201527f43616e277420626f72726f773a20696e73756666696369656e742062616c616e60408201527f6365000000000000000000000000000000000000000000000000000000000000606082015260800190565b6020808252602a908201527f43616c6c696e6720636f6e7472616374206e6f7420617574686f72697a65642060408201527f746f206465706f73697400000000000000000000000000000000000000000000606082015260800190565b61ffff91909116815260200190565b61ffff92909216825273ffffffffffffffffffffffffffffffffffffffff16602082015260400190565b90815260200190565b92835273ffffffffffffffffffffffffffffffffffffffff919091166020830152604082015260600190565b93845273ffffffffffffffffffffffffffffffffffffffff9283166020850152604084019190915216606082015260800190565b918252602082015260400190565b604051601f82017fffffffffffffffffffffffffffffffffffffffffffffffffffffffffffffffe016810167ffffffffffffffff811182821017156156265761562661579a565b604052919050565b600067ffffffffffffffff8211156156485761564861579a565b5060209081020190565b600082198211156156655761566561576b565b500190565b60008261569e577f4e487b710000000000000000000000000000000000000000000000000000000081526012600452602481fd5b500490565b6000817fffffffffffffffffffffffffffffffffffffffffffffffffffffffffffffffff04831182151516156156db576156db61576b565b500290565b6000828210156156f2576156f261576b565b500390565b600061ffff8083168181141561570f5761570f61576b565b6001019392505050565b600062ffffff8083168181141561570f5761570f61576b565b60007fffffffffffffffffffffffffffffffffffffffffffffffffffffffffffffffff8214156157645761576461576b565b5060010190565b7f4e487b7100000000000000000000000000000000000000000000000000000000600052601160045260246000fd5b7f4e487b7100000000000000000000000000000000000000000000000000000000600052604160045260246000fd5b73ffffffffffffffffffffffffffffffffffffffff811681146145a757600080fdfea2646970667358221220c4dbc4cc25d2fe659f25d83bd1d9413fea9575d841e46008b7b41d358dc12fa864736f6c63430008010033",
  "devdoc": {
    "kind": "dev",
    "methods": {
      "getBorrowAmounts(address)": {
        "details": "view function to display account borrowing state"
      },
      "getHoldingAmounts(address)": {
        "details": "view function to display account held assets state"
      },
      "getLastDepositBlock(address)": {
        "details": "last time this account deposited relevant for withdrawal window"
      },
      "owner()": {
        "details": "Returns the address of the current owner."
      },
      "registerBorrow(address,address,uint256)": {
        "details": "gets called by router to affirm isolated borrowing event"
      },
      "registerDeposit(address,address,uint256)": {
        "details": "gets called by router to affirm a deposit to an account"
      },
      "registerLiquidation(address)": {
        "details": "can get called by router to register the dissolution of an account"
      },
      "registerTradeAndBorrow(address,address,address,uint256,uint256)": {
        "details": "gets callled by router to register a trade and borrow and extinguis as necessary"
      },
      "registerWithdrawal(address,address,uint256)": {
        "details": "gets called by router to affirm withdrawal of tokens from account"
      },
      "renounceOwnership()": {
        "details": "Leaves the contract without owner. It will not be possible to call `onlyOwner` functions anymore. Can only be called by the current owner. NOTE: Renouncing ownership will leave the contract without an owner, thereby removing any functionality that is only available to the owner."
      },
      "setCoolingOffPeriod(uint256)": {
        "details": "setter for cooling off period for withdrawing funds after deposit"
      },
      "setLeverage(uint256)": {
        "details": "admin function to set leverage"
      },
      "setLiquidationThresholdPercent(uint256)": {
        "details": "admin function to set liquidation threshold"
      },
      "setTokenCap(address,uint256)": {
        "details": "admin function to set the token cap"
      },
      "transferOwnership(address)": {
        "details": "Transfers ownership of the contract to a new account (`newOwner`). Can only be called by the current owner."
      }
    },
    "version": 1
  },
  "userdoc": {
    "kind": "user",
    "methods": {
      "liquidate(address[])": {
        "notice": "called by maintenance stakers to liquidate accounts below liquidation threshold"
      },
      "priceUpdateWindow()": {
        "notice": "update window in blocks"
      }
    },
    "version": 1
  },
  "storageLayout": {
    "storage": [
      {
        "astId": 381,
        "contract": "contracts/CrossMarginTrading.sol:CrossMarginTrading",
        "label": "_owner",
        "offset": 0,
        "slot": "0",
        "type": "t_address"
      },
      {
        "astId": 11718,
        "contract": "contracts/CrossMarginTrading.sol:CrossMarginTrading",
        "label": "roles",
        "offset": 0,
        "slot": "1",
        "type": "t_contract(Roles)12108"
      },
      {
        "astId": 11722,
        "contract": "contracts/CrossMarginTrading.sol:CrossMarginTrading",
        "label": "mainCharacterCache",
        "offset": 0,
        "slot": "2",
        "type": "t_mapping(t_uint16,t_address)"
      },
      {
        "astId": 11728,
        "contract": "contracts/CrossMarginTrading.sol:CrossMarginTrading",
        "label": "roleCache",
        "offset": 0,
        "slot": "3",
        "type": "t_mapping(t_address,t_mapping(t_uint16,t_bool))"
      },
      {
        "astId": 11124,
        "contract": "contracts/CrossMarginTrading.sol:CrossMarginTrading",
        "label": "peg",
        "offset": 0,
        "slot": "4",
        "type": "t_address"
      },
      {
        "astId": 11129,
        "contract": "contracts/CrossMarginTrading.sol:CrossMarginTrading",
        "label": "tokenPrices",
        "offset": 0,
        "slot": "5",
        "type": "t_mapping(t_address,t_struct(TokenPrice)11115_storage)"
      },
      {
        "astId": 11133,
        "contract": "contracts/CrossMarginTrading.sol:CrossMarginTrading",
        "label": "priceUpdateWindow",
        "offset": 0,
        "slot": "6",
        "type": "t_uint16"
      },
      {
        "astId": 11136,
        "contract": "contracts/CrossMarginTrading.sol:CrossMarginTrading",
        "label": "TEPID_UPDATE_RATE_PERMIL",
        "offset": 0,
        "slot": "7",
        "type": "t_uint256"
      },
      {
        "astId": 11139,
        "contract": "contracts/CrossMarginTrading.sol:CrossMarginTrading",
        "label": "CONFIDENT_UPDATE_RATE_PERMIL",
        "offset": 0,
        "slot": "8",
        "type": "t_uint256"
      },
      {
        "astId": 11142,
        "contract": "contracts/CrossMarginTrading.sol:CrossMarginTrading",
        "label": "UPDATE_MAX_PEG_AMOUNT",
        "offset": 0,
        "slot": "9",
        "type": "t_uint256"
      },
      {
        "astId": 11145,
        "contract": "contracts/CrossMarginTrading.sol:CrossMarginTrading",
        "label": "UPDATE_MIN_PEG_AMOUNT",
        "offset": 0,
        "slot": "10",
        "type": "t_uint256"
      },
      {
        "astId": 4634,
        "contract": "contracts/CrossMarginTrading.sol:CrossMarginTrading",
        "label": "leverage",
        "offset": 0,
        "slot": "11",
        "type": "t_uint256"
      },
      {
        "astId": 4637,
        "contract": "contracts/CrossMarginTrading.sol:CrossMarginTrading",
        "label": "liquidationThresholdPercent",
        "offset": 0,
        "slot": "12",
        "type": "t_uint256"
      },
      {
        "astId": 4643,
        "contract": "contracts/CrossMarginTrading.sol:CrossMarginTrading",
        "label": "marginAccounts",
        "offset": 0,
        "slot": "13",
        "type": "t_mapping(t_address,t_struct(CrossMarginAccount)4627_storage)"
      },
      {
        "astId": 4648,
        "contract": "contracts/CrossMarginTrading.sol:CrossMarginTrading",
        "label": "tokenCaps",
        "offset": 0,
        "slot": "14",
        "type": "t_mapping(t_address,t_uint256)"
      },
      {
        "astId": 4653,
        "contract": "contracts/CrossMarginTrading.sol:CrossMarginTrading",
        "label": "totalShort",
        "offset": 0,
        "slot": "15",
        "type": "t_mapping(t_address,t_uint256)"
      },
      {
        "astId": 4658,
        "contract": "contracts/CrossMarginTrading.sol:CrossMarginTrading",
        "label": "totalLong",
        "offset": 0,
        "slot": "16",
        "type": "t_mapping(t_address,t_uint256)"
      },
      {
        "astId": 4660,
        "contract": "contracts/CrossMarginTrading.sol:CrossMarginTrading",
        "label": "coolingOffPeriod",
        "offset": 0,
        "slot": "17",
        "type": "t_uint256"
      },
      {
        "astId": 5507,
        "contract": "contracts/CrossMarginTrading.sol:CrossMarginTrading",
        "label": "liquidationAmounts",
        "offset": 0,
        "slot": "18",
        "type": "t_mapping(t_address,t_struct(Liquidation)5493_storage)"
      },
      {
        "astId": 5510,
        "contract": "contracts/CrossMarginTrading.sol:CrossMarginTrading",
        "label": "sellTokens",
        "offset": 0,
        "slot": "19",
        "type": "t_array(t_address)dyn_storage"
      },
      {
        "astId": 5513,
        "contract": "contracts/CrossMarginTrading.sol:CrossMarginTrading",
        "label": "buyTokens",
        "offset": 0,
        "slot": "20",
        "type": "t_array(t_address)dyn_storage"
      },
      {
        "astId": 5516,
        "contract": "contracts/CrossMarginTrading.sol:CrossMarginTrading",
        "label": "tradersToLiquidate",
        "offset": 0,
        "slot": "21",
        "type": "t_array(t_address)dyn_storage"
      },
      {
        "astId": 5520,
        "contract": "contracts/CrossMarginTrading.sol:CrossMarginTrading",
        "label": "maintenanceFailures",
        "offset": 0,
        "slot": "22",
        "type": "t_mapping(t_address,t_uint256)"
      },
      {
        "astId": 5525,
        "contract": "contracts/CrossMarginTrading.sol:CrossMarginTrading",
        "label": "stakeAttackRecords",
        "offset": 0,
        "slot": "23",
        "type": "t_mapping(t_address,t_struct(AccountLiqRecord)5502_storage)"
      },
      {
        "astId": 5528,
        "contract": "contracts/CrossMarginTrading.sol:CrossMarginTrading",
        "label": "avgLiquidationPerBlock",
        "offset": 0,
        "slot": "24",
        "type": "t_uint256"
      },
      {
        "astId": 5531,
        "contract": "contracts/CrossMarginTrading.sol:CrossMarginTrading",
        "label": "liqStakeAttackWindow",
        "offset": 0,
        "slot": "25",
        "type": "t_uint256"
      },
      {
        "astId": 5534,
        "contract": "contracts/CrossMarginTrading.sol:CrossMarginTrading",
        "label": "MAINTAINER_CUT_PERCENT",
        "offset": 0,
        "slot": "26",
        "type": "t_uint256"
      },
      {
        "astId": 5537,
        "contract": "contracts/CrossMarginTrading.sol:CrossMarginTrading",
        "label": "failureThreshold",
        "offset": 0,
        "slot": "27",
        "type": "t_uint256"
      }
    ],
    "types": {
      "t_address": {
        "encoding": "inplace",
        "label": "address",
        "numberOfBytes": "20"
      },
      "t_array(t_address)dyn_storage": {
        "base": "t_address",
        "encoding": "dynamic_array",
        "label": "address[]",
        "numberOfBytes": "32"
      },
      "t_bool": {
        "encoding": "inplace",
        "label": "bool",
        "numberOfBytes": "1"
      },
      "t_contract(Roles)12108": {
        "encoding": "inplace",
        "label": "contract Roles",
        "numberOfBytes": "20"
      },
      "t_mapping(t_address,t_bool)": {
        "encoding": "mapping",
        "key": "t_address",
        "label": "mapping(address => bool)",
        "numberOfBytes": "32",
        "value": "t_bool"
      },
      "t_mapping(t_address,t_mapping(t_uint16,t_bool))": {
        "encoding": "mapping",
        "key": "t_address",
        "label": "mapping(address => mapping(uint16 => bool))",
        "numberOfBytes": "32",
        "value": "t_mapping(t_uint16,t_bool)"
      },
      "t_mapping(t_address,t_struct(AccountLiqRecord)5502_storage)": {
        "encoding": "mapping",
        "key": "t_address",
        "label": "mapping(address => struct CrossMarginLiquidation.AccountLiqRecord)",
        "numberOfBytes": "32",
        "value": "t_struct(AccountLiqRecord)5502_storage"
      },
      "t_mapping(t_address,t_struct(CrossMarginAccount)4627_storage)": {
        "encoding": "mapping",
        "key": "t_address",
        "label": "mapping(address => struct CrossMarginAccount)",
        "numberOfBytes": "32",
        "value": "t_struct(CrossMarginAccount)4627_storage"
      },
      "t_mapping(t_address,t_struct(Liquidation)5493_storage)": {
        "encoding": "mapping",
        "key": "t_address",
        "label": "mapping(address => struct CrossMarginLiquidation.Liquidation)",
        "numberOfBytes": "32",
        "value": "t_struct(Liquidation)5493_storage"
      },
      "t_mapping(t_address,t_struct(TokenPrice)11115_storage)": {
        "encoding": "mapping",
        "key": "t_address",
        "label": "mapping(address => struct TokenPrice)",
        "numberOfBytes": "32",
        "value": "t_struct(TokenPrice)11115_storage"
      },
      "t_mapping(t_address,t_uint256)": {
        "encoding": "mapping",
        "key": "t_address",
        "label": "mapping(address => uint256)",
        "numberOfBytes": "32",
        "value": "t_uint256"
      },
      "t_mapping(t_uint16,t_address)": {
        "encoding": "mapping",
        "key": "t_uint16",
        "label": "mapping(uint16 => address)",
        "numberOfBytes": "32",
        "value": "t_address"
      },
      "t_mapping(t_uint16,t_bool)": {
        "encoding": "mapping",
        "key": "t_uint16",
        "label": "mapping(uint16 => bool)",
        "numberOfBytes": "32",
        "value": "t_bool"
      },
      "t_struct(AccountLiqRecord)5502_storage": {
        "encoding": "inplace",
        "label": "struct CrossMarginLiquidation.AccountLiqRecord",
        "members": [
          {
            "astId": 5495,
            "contract": "contracts/CrossMarginTrading.sol:CrossMarginTrading",
            "label": "blockNum",
            "offset": 0,
            "slot": "0",
            "type": "t_uint256"
          },
          {
            "astId": 5497,
            "contract": "contracts/CrossMarginTrading.sol:CrossMarginTrading",
            "label": "loser",
            "offset": 0,
            "slot": "1",
            "type": "t_address"
          },
          {
            "astId": 5499,
            "contract": "contracts/CrossMarginTrading.sol:CrossMarginTrading",
            "label": "amount",
            "offset": 0,
            "slot": "2",
            "type": "t_uint256"
          },
          {
            "astId": 5501,
            "contract": "contracts/CrossMarginTrading.sol:CrossMarginTrading",
            "label": "stakeAttacker",
            "offset": 0,
            "slot": "3",
            "type": "t_address"
          }
        ],
        "numberOfBytes": "128"
      },
      "t_struct(CrossMarginAccount)4627_storage": {
        "encoding": "inplace",
        "label": "struct CrossMarginAccount",
        "members": [
          {
            "astId": 4604,
            "contract": "contracts/CrossMarginTrading.sol:CrossMarginTrading",
            "label": "lastDepositBlock",
            "offset": 0,
            "slot": "0",
            "type": "t_uint256"
          },
          {
            "astId": 4607,
            "contract": "contracts/CrossMarginTrading.sol:CrossMarginTrading",
            "label": "borrowTokens",
            "offset": 0,
            "slot": "1",
            "type": "t_array(t_address)dyn_storage"
          },
          {
            "astId": 4611,
            "contract": "contracts/CrossMarginTrading.sol:CrossMarginTrading",
            "label": "borrowed",
            "offset": 0,
            "slot": "2",
            "type": "t_mapping(t_address,t_uint256)"
          },
          {
            "astId": 4615,
            "contract": "contracts/CrossMarginTrading.sol:CrossMarginTrading",
            "label": "borrowedYieldQuotientsFP",
            "offset": 0,
            "slot": "3",
            "type": "t_mapping(t_address,t_uint256)"
          },
          {
            "astId": 4618,
            "contract": "contracts/CrossMarginTrading.sol:CrossMarginTrading",
            "label": "holdingTokens",
            "offset": 0,
            "slot": "4",
            "type": "t_array(t_address)dyn_storage"
          },
          {
            "astId": 4622,
            "contract": "contracts/CrossMarginTrading.sol:CrossMarginTrading",
            "label": "holdings",
            "offset": 0,
            "slot": "5",
            "type": "t_mapping(t_address,t_uint256)"
          },
          {
            "astId": 4626,
            "contract": "contracts/CrossMarginTrading.sol:CrossMarginTrading",
            "label": "holdsToken",
            "offset": 0,
            "slot": "6",
            "type": "t_mapping(t_address,t_bool)"
          }
        ],
        "numberOfBytes": "224"
      },
      "t_struct(Liquidation)5493_storage": {
        "encoding": "inplace",
        "label": "struct CrossMarginLiquidation.Liquidation",
        "members": [
          {
            "astId": 5488,
            "contract": "contracts/CrossMarginTrading.sol:CrossMarginTrading",
            "label": "buy",
            "offset": 0,
            "slot": "0",
            "type": "t_uint256"
          },
          {
            "astId": 5490,
            "contract": "contracts/CrossMarginTrading.sol:CrossMarginTrading",
            "label": "sell",
            "offset": 0,
            "slot": "1",
            "type": "t_uint256"
          },
          {
            "astId": 5492,
            "contract": "contracts/CrossMarginTrading.sol:CrossMarginTrading",
            "label": "blockNum",
            "offset": 0,
            "slot": "2",
            "type": "t_uint256"
          }
        ],
        "numberOfBytes": "96"
      },
      "t_struct(TokenPrice)11115_storage": {
        "encoding": "inplace",
        "label": "struct TokenPrice",
        "members": [
          {
            "astId": 11106,
            "contract": "contracts/CrossMarginTrading.sol:CrossMarginTrading",
            "label": "blockLastUpdated",
            "offset": 0,
            "slot": "0",
            "type": "t_uint256"
          },
          {
            "astId": 11108,
            "contract": "contracts/CrossMarginTrading.sol:CrossMarginTrading",
            "label": "tokenPer1k",
            "offset": 0,
            "slot": "1",
            "type": "t_uint256"
          },
          {
            "astId": 11111,
            "contract": "contracts/CrossMarginTrading.sol:CrossMarginTrading",
            "label": "liquidationPath",
            "offset": 0,
            "slot": "2",
            "type": "t_array(t_address)dyn_storage"
          },
          {
            "astId": 11114,
            "contract": "contracts/CrossMarginTrading.sol:CrossMarginTrading",
            "label": "inverseLiquidationPath",
            "offset": 0,
            "slot": "3",
            "type": "t_array(t_address)dyn_storage"
          }
        ],
        "numberOfBytes": "128"
      },
      "t_uint16": {
        "encoding": "inplace",
        "label": "uint16",
        "numberOfBytes": "2"
      },
      "t_uint256": {
        "encoding": "inplace",
        "label": "uint256",
        "numberOfBytes": "32"
      }
    }
  }
}