{
  "address": "0x154C800eCE87094B68C1c6F9D977E939D22891f3",
  "abi": [
    {
      "inputs": [
        {
          "internalType": "address",
          "name": "_peg",
          "type": "address"
        },
        {
          "internalType": "address",
          "name": "_roles",
          "type": "address"
        }
      ],
      "stateMutability": "nonpayable",
      "type": "constructor"
    },
    {
      "anonymous": false,
      "inputs": [
        {
          "indexed": false,
          "internalType": "address",
          "name": "account",
          "type": "address"
        }
      ],
      "name": "AccountLiquidated",
      "type": "event"
    },
    {
      "anonymous": false,
      "inputs": [
        {
          "indexed": false,
          "internalType": "uint256",
          "name": "amount",
          "type": "uint256"
        }
      ],
      "name": "LiquidationShortfall",
      "type": "event"
    },
    {
      "inputs": [],
      "name": "MAINTAINER_CUT_PERCENT",
      "outputs": [
        {
          "internalType": "uint256",
          "name": "",
          "type": "uint256"
        }
      ],
      "stateMutability": "view",
      "type": "function"
    },
    {
      "inputs": [],
      "name": "UPDATE_RATE_PERMIL",
      "outputs": [
        {
          "internalType": "uint256",
          "name": "",
          "type": "uint256"
        }
      ],
      "stateMutability": "view",
      "type": "function"
    },
    {
      "inputs": [
        {
          "internalType": "uint256",
          "name": "_priceUpdateWindow",
          "type": "uint256"
        },
        {
          "internalType": "uint256",
          "name": "_updateRatePermil",
          "type": "uint256"
        },
        {
          "internalType": "uint256",
          "name": "_voluntaryUpdateWindow",
          "type": "uint256"
        }
      ],
      "name": "addVolatilitySetting",
      "outputs": [],
      "stateMutability": "nonpayable",
      "type": "function"
    },
    {
      "inputs": [],
      "name": "avgLiquidationPerCall",
      "outputs": [
        {
          "internalType": "uint256",
          "name": "",
          "type": "uint256"
        }
      ],
      "stateMutability": "view",
      "type": "function"
    },
    {
      "inputs": [
        {
          "internalType": "address",
          "name": "trader",
          "type": "address"
        }
      ],
      "name": "canBeLiquidated",
      "outputs": [
        {
          "internalType": "bool",
          "name": "",
          "type": "bool"
        }
      ],
      "stateMutability": "view",
      "type": "function"
    },
    {
      "inputs": [
        {
          "internalType": "uint256",
          "name": "index",
          "type": "uint256"
        }
      ],
      "name": "chooseVolatilitySetting",
      "outputs": [],
      "stateMutability": "nonpayable",
      "type": "function"
    },
    {
      "inputs": [],
      "name": "coolingOffPeriod",
      "outputs": [
        {
          "internalType": "uint256",
          "name": "",
          "type": "uint256"
        }
      ],
      "stateMutability": "view",
      "type": "function"
    },
    {
      "inputs": [
        {
          "internalType": "address[]",
          "name": "liquidatedAccounts",
          "type": "address[]"
        }
      ],
      "name": "disburseLiqStakeAttacks",
      "outputs": [],
      "stateMutability": "nonpayable",
      "type": "function"
    },
    {
      "inputs": [],
      "name": "failureThreshold",
      "outputs": [
        {
          "internalType": "uint256",
          "name": "",
          "type": "uint256"
        }
      ],
      "stateMutability": "view",
      "type": "function"
    },
    {
      "inputs": [
        {
          "internalType": "address",
          "name": "trader",
          "type": "address"
        }
      ],
      "name": "getBorrowAmounts",
      "outputs": [
        {
          "internalType": "address[]",
          "name": "borrowTokens",
          "type": "address[]"
        },
        {
          "internalType": "uint256[]",
          "name": "borrowAmounts",
          "type": "uint256[]"
        }
      ],
      "stateMutability": "view",
      "type": "function"
    },
    {
      "inputs": [
        {
          "internalType": "address",
          "name": "token",
          "type": "address"
        },
        {
          "internalType": "uint256",
          "name": "inAmount",
          "type": "uint256"
        },
        {
          "internalType": "bool",
          "name": "voluntary",
          "type": "bool"
        }
      ],
      "name": "getCurrentPriceInPeg",
      "outputs": [
        {
          "internalType": "uint256",
          "name": "priceInPeg",
          "type": "uint256"
        }
      ],
      "stateMutability": "nonpayable",
      "type": "function"
    },
    {
      "inputs": [
        {
          "internalType": "address",
          "name": "trader",
          "type": "address"
        }
      ],
      "name": "getHoldingAmounts",
      "outputs": [
        {
          "internalType": "address[]",
          "name": "holdingTokens",
          "type": "address[]"
        },
        {
          "internalType": "uint256[]",
          "name": "holdingAmounts",
          "type": "uint256[]"
        }
      ],
      "stateMutability": "view",
      "type": "function"
    },
    {
      "inputs": [],
      "name": "leveragePercent",
      "outputs": [
        {
          "internalType": "uint256",
          "name": "",
          "type": "uint256"
        }
      ],
      "stateMutability": "view",
      "type": "function"
    },
    {
      "inputs": [],
      "name": "liqStakeAttackWindow",
      "outputs": [
        {
          "internalType": "uint256",
          "name": "",
          "type": "uint256"
        }
      ],
      "stateMutability": "view",
      "type": "function"
    },
    {
      "inputs": [
        {
          "internalType": "address[]",
          "name": "liquidationCandidates",
          "type": "address[]"
        }
      ],
      "name": "liquidate",
      "outputs": [
        {
          "internalType": "uint256",
          "name": "maintainerCut",
          "type": "uint256"
        }
      ],
      "stateMutability": "nonpayable",
      "type": "function"
    },
    {
      "inputs": [],
      "name": "liquidationThresholdPercent",
      "outputs": [
        {
          "internalType": "uint256",
          "name": "",
          "type": "uint256"
        }
      ],
      "stateMutability": "view",
      "type": "function"
    },
    {
      "inputs": [
        {
          "internalType": "uint256",
          "name": "",
          "type": "uint256"
        }
      ],
      "name": "mainCharacterCache",
      "outputs": [
        {
          "internalType": "address",
          "name": "",
          "type": "address"
        }
      ],
      "stateMutability": "view",
      "type": "function"
    },
    {
      "inputs": [
        {
          "internalType": "address",
          "name": "",
          "type": "address"
        }
      ],
      "name": "maintenanceFailures",
      "outputs": [
        {
          "internalType": "uint256",
          "name": "",
          "type": "uint256"
        }
      ],
      "stateMutability": "view",
      "type": "function"
    },
    {
      "inputs": [
        {
          "internalType": "address",
          "name": "",
          "type": "address"
        },
        {
          "internalType": "address",
          "name": "",
          "type": "address"
        }
      ],
      "name": "pairPrices",
      "outputs": [
        {
          "internalType": "uint256",
          "name": "cumulative",
          "type": "uint256"
        },
        {
          "internalType": "uint256",
          "name": "lastUpdated",
          "type": "uint256"
        },
        {
          "internalType": "uint256",
          "name": "priceFP",
          "type": "uint256"
        }
      ],
      "stateMutability": "view",
      "type": "function"
    },
    {
      "inputs": [],
      "name": "peg",
      "outputs": [
        {
          "internalType": "address",
          "name": "",
          "type": "address"
        }
      ],
      "stateMutability": "view",
      "type": "function"
    },
    {
      "inputs": [],
      "name": "priceUpdateWindow",
      "outputs": [
        {
          "internalType": "uint256",
          "name": "",
          "type": "uint256"
        }
      ],
      "stateMutability": "view",
      "type": "function"
    },
    {
      "inputs": [
        {
          "internalType": "address",
          "name": "trader",
          "type": "address"
        },
        {
          "internalType": "address",
          "name": "borrowToken",
          "type": "address"
        },
        {
          "internalType": "uint256",
          "name": "borrowAmount",
          "type": "uint256"
        }
      ],
      "name": "registerBorrow",
      "outputs": [],
      "stateMutability": "nonpayable",
      "type": "function"
    },
    {
      "inputs": [
        {
          "internalType": "address",
          "name": "trader",
          "type": "address"
        },
        {
          "internalType": "address",
          "name": "token",
          "type": "address"
        },
        {
          "internalType": "uint256",
          "name": "depositAmount",
          "type": "uint256"
        }
      ],
      "name": "registerDeposit",
      "outputs": [
        {
          "internalType": "uint256",
          "name": "extinguishableDebt",
          "type": "uint256"
        }
      ],
      "stateMutability": "nonpayable",
      "type": "function"
    },
    {
      "inputs": [
        {
          "internalType": "address",
          "name": "trader",
          "type": "address"
        }
      ],
      "name": "registerLiquidation",
      "outputs": [],
      "stateMutability": "nonpayable",
      "type": "function"
    },
    {
      "inputs": [
        {
          "internalType": "address",
          "name": "trader",
          "type": "address"
        },
        {
          "internalType": "address",
          "name": "depositToken",
          "type": "address"
        },
        {
          "internalType": "uint256",
          "name": "depositAmount",
          "type": "uint256"
        },
        {
          "internalType": "address",
          "name": "borrowToken",
          "type": "address"
        },
        {
          "internalType": "uint256",
          "name": "withdrawAmount",
          "type": "uint256"
        }
      ],
      "name": "registerOvercollateralizedBorrow",
      "outputs": [],
      "stateMutability": "nonpayable",
      "type": "function"
    },
    {
      "inputs": [
        {
          "internalType": "address",
          "name": "trader",
          "type": "address"
        },
        {
          "internalType": "address",
          "name": "tokenFrom",
          "type": "address"
        },
        {
          "internalType": "address",
          "name": "tokenTo",
          "type": "address"
        },
        {
          "internalType": "uint256",
          "name": "inAmount",
          "type": "uint256"
        },
        {
          "internalType": "uint256",
          "name": "outAmount",
          "type": "uint256"
        }
      ],
      "name": "registerTradeAndBorrow",
      "outputs": [
        {
          "internalType": "uint256",
          "name": "extinguishableDebt",
          "type": "uint256"
        },
        {
          "internalType": "uint256",
          "name": "borrowAmount",
          "type": "uint256"
        }
      ],
      "stateMutability": "nonpayable",
      "type": "function"
    },
    {
      "inputs": [
        {
          "internalType": "address",
          "name": "trader",
          "type": "address"
        },
        {
          "internalType": "address",
          "name": "withdrawToken",
          "type": "address"
        },
        {
          "internalType": "uint256",
          "name": "withdrawAmount",
          "type": "uint256"
        }
      ],
      "name": "registerWithdrawal",
      "outputs": [],
      "stateMutability": "nonpayable",
      "type": "function"
    },
    {
      "inputs": [
        {
          "internalType": "address",
          "name": "",
          "type": "address"
        },
        {
          "internalType": "uint256",
          "name": "",
          "type": "uint256"
        }
      ],
      "name": "roleCache",
      "outputs": [
        {
          "internalType": "bool",
          "name": "",
          "type": "bool"
        }
      ],
      "stateMutability": "view",
      "type": "function"
    },
    {
      "inputs": [],
      "name": "roles",
      "outputs": [
        {
          "internalType": "contract Roles",
          "name": "",
          "type": "address"
        }
      ],
      "stateMutability": "view",
      "type": "function"
    },
    {
      "inputs": [
        {
          "internalType": "uint256",
          "name": "blocks",
          "type": "uint256"
        }
      ],
      "name": "setCoolingOffPeriod",
      "outputs": [],
      "stateMutability": "nonpayable",
      "type": "function"
    },
    {
      "inputs": [
        {
          "internalType": "uint256",
          "name": "threshFactor",
          "type": "uint256"
        }
      ],
      "name": "setFailureThreshold",
      "outputs": [],
      "stateMutability": "nonpayable",
      "type": "function"
    },
    {
      "inputs": [
        {
          "internalType": "uint256",
          "name": "_leveragePercent",
          "type": "uint256"
        }
      ],
      "name": "setLeveragePercent",
      "outputs": [],
      "stateMutability": "nonpayable",
      "type": "function"
    },
    {
      "inputs": [
        {
          "internalType": "uint256",
          "name": "window",
          "type": "uint256"
        }
      ],
      "name": "setLiqStakeAttackWindow",
      "outputs": [],
      "stateMutability": "nonpayable",
      "type": "function"
    },
    {
      "inputs": [
        {
          "internalType": "bytes32",
          "name": "amms",
          "type": "bytes32"
        },
        {
          "internalType": "address[]",
          "name": "tokens",
          "type": "address[]"
        }
      ],
      "name": "setLiquidationPath",
      "outputs": [],
      "stateMutability": "nonpayable",
      "type": "function"
    },
    {
      "inputs": [
        {
          "internalType": "uint256",
          "name": "threshold",
          "type": "uint256"
        }
      ],
      "name": "setLiquidationThresholdPercent",
      "outputs": [],
      "stateMutability": "nonpayable",
      "type": "function"
    },
    {
      "inputs": [
        {
          "internalType": "uint256",
          "name": "cut",
          "type": "uint256"
        }
      ],
      "name": "setMaintainerCutPercent",
      "outputs": [],
      "stateMutability": "nonpayable",
      "type": "function"
    },
    {
      "inputs": [
        {
          "internalType": "uint16",
          "name": "window",
          "type": "uint16"
        },
        {
          "internalType": "uint256",
          "name": "voluntaryWindow",
          "type": "uint256"
        }
      ],
      "name": "setPriceUpdateWindow",
      "outputs": [],
      "stateMutability": "nonpayable",
      "type": "function"
    },
    {
      "inputs": [
        {
          "internalType": "address",
          "name": "token",
          "type": "address"
        },
        {
          "internalType": "uint256",
          "name": "cap",
          "type": "uint256"
        }
      ],
      "name": "setTokenCap",
      "outputs": [],
      "stateMutability": "nonpayable",
      "type": "function"
    },
    {
      "inputs": [
        {
          "internalType": "uint256",
          "name": "rate",
          "type": "uint256"
        }
      ],
      "name": "setUpdateRate",
      "outputs": [],
      "stateMutability": "nonpayable",
      "type": "function"
    },
    {
      "inputs": [
        {
          "internalType": "address",
          "name": "",
          "type": "address"
        }
      ],
      "name": "stakeAttackRecords",
      "outputs": [
        {
          "internalType": "uint256",
          "name": "blockNum",
          "type": "uint256"
        },
        {
          "internalType": "address",
          "name": "loser",
          "type": "address"
        },
        {
          "internalType": "uint256",
          "name": "amount",
          "type": "uint256"
        },
        {
          "internalType": "address",
          "name": "stakeAttacker",
          "type": "address"
        }
      ],
      "stateMutability": "view",
      "type": "function"
    },
    {
      "inputs": [
        {
          "internalType": "address",
          "name": "",
          "type": "address"
        }
      ],
      "name": "tokenCaps",
      "outputs": [
        {
          "internalType": "uint256",
          "name": "",
          "type": "uint256"
        }
      ],
      "stateMutability": "view",
      "type": "function"
    },
    {
      "inputs": [
        {
          "internalType": "address",
          "name": "",
          "type": "address"
        }
      ],
      "name": "tokenPrices",
      "outputs": [
        {
          "internalType": "uint256",
          "name": "lastUpdated",
          "type": "uint256"
        },
        {
          "internalType": "uint256",
          "name": "priceFP",
          "type": "uint256"
        },
        {
          "internalType": "bytes32",
          "name": "amms",
          "type": "bytes32"
        },
        {
          "internalType": "bytes32",
          "name": "inverseAmms",
          "type": "bytes32"
        }
      ],
      "stateMutability": "view",
      "type": "function"
    },
    {
      "inputs": [
        {
          "internalType": "address",
          "name": "",
          "type": "address"
        }
      ],
      "name": "totalLong",
      "outputs": [
        {
          "internalType": "uint256",
          "name": "",
          "type": "uint256"
        }
      ],
      "stateMutability": "view",
      "type": "function"
    },
    {
      "inputs": [
        {
          "internalType": "address",
          "name": "",
          "type": "address"
        }
      ],
      "name": "totalShort",
      "outputs": [
        {
          "internalType": "uint256",
          "name": "",
          "type": "uint256"
        }
      ],
      "stateMutability": "view",
      "type": "function"
    },
    {
      "inputs": [
        {
          "internalType": "uint256",
          "name": "role",
          "type": "uint256"
        }
      ],
      "name": "updateMainCharacterCache",
      "outputs": [],
      "stateMutability": "nonpayable",
      "type": "function"
    },
    {
      "inputs": [
        {
          "internalType": "uint256",
          "name": "role",
          "type": "uint256"
        },
        {
          "internalType": "address",
          "name": "contr",
          "type": "address"
        }
      ],
      "name": "updateRoleCache",
      "outputs": [],
      "stateMutability": "nonpayable",
      "type": "function"
    },
    {
      "inputs": [
        {
          "internalType": "address",
          "name": "trader",
          "type": "address"
        },
        {
          "internalType": "address",
          "name": "token",
          "type": "address"
        }
      ],
      "name": "viewBalanceInToken",
      "outputs": [
        {
          "internalType": "uint256",
          "name": "",
          "type": "uint256"
        }
      ],
      "stateMutability": "view",
      "type": "function"
    },
    {
      "inputs": [
        {
          "internalType": "address",
          "name": "token",
          "type": "address"
        },
        {
          "internalType": "uint256",
          "name": "inAmount",
          "type": "uint256"
        }
      ],
      "name": "viewCurrentPriceInPeg",
      "outputs": [
        {
          "internalType": "uint256",
          "name": "priceInPeg",
          "type": "uint256"
        }
      ],
      "stateMutability": "view",
      "type": "function"
    },
    {
      "inputs": [
        {
          "internalType": "address",
          "name": "trader",
          "type": "address"
        }
      ],
      "name": "viewHoldingsInPeg",
      "outputs": [
        {
          "internalType": "uint256",
          "name": "",
          "type": "uint256"
        }
      ],
      "stateMutability": "view",
      "type": "function"
    },
    {
      "inputs": [
        {
          "internalType": "address",
          "name": "trader",
          "type": "address"
        }
      ],
      "name": "viewLoanInPeg",
      "outputs": [
        {
          "internalType": "uint256",
          "name": "amount",
          "type": "uint256"
        }
      ],
      "stateMutability": "view",
      "type": "function"
    },
    {
      "inputs": [
        {
          "internalType": "uint256",
          "name": "",
          "type": "uint256"
        }
      ],
      "name": "volatilitySettings",
      "outputs": [
        {
          "internalType": "uint256",
          "name": "priceUpdateWindow",
          "type": "uint256"
        },
        {
          "internalType": "uint256",
          "name": "updateRatePermil",
          "type": "uint256"
        },
        {
          "internalType": "uint256",
          "name": "voluntaryUpdateWindow",
          "type": "uint256"
        }
      ],
      "stateMutability": "view",
      "type": "function"
    },
    {
      "inputs": [],
      "name": "voluntaryUpdateWindow",
      "outputs": [
        {
          "internalType": "uint256",
          "name": "",
          "type": "uint256"
        }
      ],
      "stateMutability": "view",
      "type": "function"
    }
  ],
  "transactionHash": "0x670ff57922f04e23c07440fd9bad892262f8db8284b0b6c424667352f07c4b8c",
  "args": [
    "0x4F96Fe3b7A6Cf9725f59d353F723c1bDb64CA6Aa",
    "0x854B9E4cc4Db7a7c3E0a41D11E28b93bD4c76B7a"
  ],
  "solcInputHash": "98484e03027f5e45c05d6e1a942719ef",
  "bytecode": "0x60c060405261096060045561012c60055561019060065561012c6008556073600955600a600e55600a60155560056016556005601755600a6018553480156200004757600080fd5b5060405162005f5b38038062005f5b8339810160408190526200006a9162000112565b81816001600160a01b038116620000d25760405162461bcd60e51b815260206004820152602260248201527f506c656173652070726f766964652076616c696420726f6c6573206164647265604482015261737360f01b606482015260840160405180910390fd5b6001600160601b0319606091821b811660805291901b1660a05250620001499050565b80516001600160a01b03811681146200010d57600080fd5b919050565b6000806040838503121562000125578182fd5b6200013083620000f5565b91506200014060208401620000f5565b90509250929050565b60805160601c60a05160601c615d8b620001d0600039600081816103f001528181610ab101528181610ef501528181611a0001528181611e6c0152818161216a0152818161231101528181612d640152818161503101526151bb015260008181610504015281816108ed0152818161168701528181612f7001526130080152615d8b6000f3fe608060405234801561001057600080fd5b506004361061034c5760003560e01c806360b3fa40116101bd578063bc44dcbc116100f9578063db2d904d116100a2578063ef859fc81161007c578063ef859fc814610848578063f04c686514610885578063f3f5f9b514610898578063f99fd97c146108ab5761034c565b8063db2d904d146107ec578063e0f3871f146107ff578063e9c3f77d1461081f5761034c565b8063c74303aa116100d3578063c74303aa146107b3578063d0eb6653146107c6578063d510c535146107d95761034c565b8063bc44dcbc1461076d578063bc70c6661461078d578063c73afac2146107a05761034c565b8063a17ab52711610166578063a53ac0d911610140578063a53ac0d9146106c4578063a75697a5146106cd578063a985994b146106ed578063badb5048146107005761034c565b8063a17ab5271461068b578063a20ec4931461069e578063a3718919146106b15761034c565b80637d100e84116101975780637d100e84146106245780638dc6a5291461062d5780639c56522c146106825761034c565b806360b3fa40146105da5780636585b5a6146105ed5780637a1a04df146105f65761034c565b8063320d2fa01161028c57806347788cd011610235578063519bda851161020f578063519bda85146105a257806352a664d9146105ab578063538edb29146105be57806354554b58146105c75761034c565b806347788cd014610563578063498d55eb146105865780634aa4aca3146105995761034c565b80633ed456fa116102665780633ed456fa14610526578063409fdb721461052f578063447d52ba146105505761034c565b8063320d2fa0146104ce5780633500aa0b146104d7578063392f5f64146104ff5761034c565b80631d84cc18116102f9578063204120bc116102d3578063204120bc1461043d57806320c27126146104925780632b23f857146104b25780632febaa74146104c55761034c565b80631d84cc18146103d85780631f1cb62b146103eb5780631f692a641461042a5761034c565b806310d584341161032a57806310d584341461039f57806316317e7e146103b25780631d47e4a3146103c55761034c565b8063071060a61461035157806307c2017514610366578063093a483a14610379575b600080fd5b61036461035f366004615a49565b6108be565b005b6103646103743660046158b4565b6109b5565b61038c61038736600461581b565b610aad565b6040519081526020015b60405180910390f35b6103646103ad366004615a49565b610b3c565b6103646103c0366004615a49565b610bbf565b6103646103d336600461581b565b610c3d565b6103646103e63660046157c1565b610d1e565b6104127f000000000000000000000000000000000000000000000000000000000000000081565b6040516001600160a01b039091168152602001610396565b61038c6104383660046156b7565b610dcc565b61047261044b3660046156b7565b60026020526000908152604090208054600182015460038301546005909301549192909184565b604080519485526020850193909352918301526060820152608001610396565b61038c6104a03660046156b7565b600d6020526000908152604090205481565b6103646104c036600461599e565b610e01565b61038c600e5481565b61038c60095481565b6104ea6104e5366004615727565b6111d7565b60408051928352602083019190915201610396565b6104127f000000000000000000000000000000000000000000000000000000000000000081565b61038c60045481565b61054261053d3660046156b7565b6114d1565b604051610396929190615b31565b61036461055e366004615a79565b611648565b6105766105713660046156b7565b611757565b6040519015158152602001610396565b610364610594366004615781565b6117be565b61038c60165481565b61038c60065481565b61038c6105b9366004615781565b61185d565b61038c60175481565b6103646105d5366004615a49565b61197e565b61038c6105e8366004615873565b6119fc565b61038c60155481565b61057661060436600461581b565b600160209081526000928352604080842090915290825290205460ff1681565b61038c60185481565b61066761063b3660046156ef565b600360209081526000928352604080842090915290825290208054600182015460029092015490919083565b60408051938452602084019290925290820152606001610396565b61038c60055481565b61038c6106993660046156b7565b611b46565b6103646106ac366004615a26565b611b6e565b6103646106bf366004615a49565b611bf5565b61038c60085481565b61038c6106db3660046156b7565b60136020526000908152604090205481565b61038c6106fb3660046158b4565b611c73565b61074261070e3660046156b7565b601460205260009081526040902080546001820154600283015460039093015491926001600160a01b039182169290911684565b604080519485526001600160a01b039384166020860152840191909152166060820152608001610396565b61038c61077b3660046156b7565b600c6020526000908152604090205481565b61066761079b366004615a49565b6124e8565b6103646107ae366004615a49565b61251b565b6103646107c1366004615a49565b612599565b6103646107d4366004615781565b612617565b6105426107e73660046156b7565b6126a5565b6103646107fa3660046156b7565b6128e9565b61038c61080d3660046156b7565b600b6020526000908152604090205481565b61041261082d366004615a49565b6000602081905290815260409020546001600160a01b031681565b61038c6108563660046156ef565b6001600160a01b039182166000908152600a602090815260408083209390941682526005909201909152205490565b610364610893366004615a49565b6129cb565b6103646108a6366004615ac0565b612b0f565b6103646108b9366004615a49565b612c2b565b6040517fb4ed0b6d000000000000000000000000000000000000000000000000000000008152600481018290527f00000000000000000000000000000000000000000000000000000000000000006001600160a01b03169063b4ed0b6d9060240160206040518083038186803b15801561093757600080fd5b505afa15801561094b573d6000803e3d6000fd5b505050506040513d601f19601f8201168201806040525081019061096f91906156d3565b60009182526020829052604090912080547fffffffffffffffffffffffff0000000000000000000000000000000000000000166001600160a01b03909216919091179055565b60005b8082511115610aa95760008282815181106109e357634e487b7160e01b600052603260045260246000fd5b60200260200101519050600060146000836001600160a01b03166001600160a01b0316815260200190815260200160002090506016548160000154610a289190615c41565b431115610a9457610a3881612ca9565b506001600160a01b03821660009081526014602052604081208181556001810180547fffffffffffffffffffffffff00000000000000000000000000000000000000009081169091556002820192909255600301805490911690555b50508080610aa190615ccd565b9150506109b8565b5050565b60007f00000000000000000000000000000000000000000000000000000000000000006001600160a01b0316836001600160a01b03161415610af0575080610b36565b6001600160a01b038316600090815260026020526040902060018101546e010000000000000000000000000000610b278286615c79565b610b319190615c59565b925050505b92915050565b33610b45612f6c565b6001600160a01b03161480610b69575033610b5e613004565b6001600160a01b0316145b610bba5760405162461bcd60e51b815260206004820152601e60248201527f526f6c65733a2063616c6c6572206973206e6f7420746865206f776e6572000060448201526064015b60405180910390fd5b601855565b33610bc8612f6c565b6001600160a01b03161480610bec575033610be1613004565b6001600160a01b0316145b610c385760405162461bcd60e51b815260206004820152601e60248201527f526f6c65733a2063616c6c6572206973206e6f7420746865206f776e657200006044820152606401610bb1565b600955565b33610c46612f6c565b6001600160a01b03161480610c6a575033610c5f613004565b6001600160a01b0316145b80610c9057503360009081526001602090815260408083206009845290915290205460ff165b610d025760405162461bcd60e51b815260206004820152603960248201527f43616c6c6572206973206e6f7420746865206f776e65722c206578656375746f60448201527f72206f7220617574686f72697a656420616374697661746f72000000000000006064820152608401610bb1565b6001600160a01b039091166000908152600b6020526040902055565b3360009081526001602090815260408083206004845290915290205460ff16610d895760405162461bcd60e51b815260206004820152601d60248201527f43616c6c696e6720636f6e74722e206e6f7420617574686f72697a65640000006044820152606401610bb1565b6001600160a01b0385166000908152600a60205260409020610dac818686613075565b610db7818484613120565b610dc2818484613227565b4390555050505050565b6001600160a01b0381166000908152600a60205260408120610df8600182016002830160038401613347565b9150505b919050565b33610e0a612f6c565b6001600160a01b03161480610e2e575033610e23613004565b6001600160a01b0316145b80610e5457503360009081526001602090815260408083206009845290915290205460ff165b610ec65760405162461bcd60e51b815260206004820152603960248201527f43616c6c6572206973206e6f7420746865206f776e65722c206578656375746f60448201527f72206f7220617574686f72697a656420616374697661746f72000000000000006064820152608401610bb1565b600081600081518110610ee957634e487b7160e01b600052603260045260246000fd5b602002602001015190507f00000000000000000000000000000000000000000000000000000000000000006001600160a01b0316816001600160a01b0316146111d2576001600160a01b03811660009081526002602081815260409092206003810186905584519092610f629284019190860190615572565b50825167ffffffffffffffff811115610f8b57634e487b7160e01b600052604160045260246000fd5b604051908082528060200260200182016040528015610fb4578160200160208202803683370190505b508051610fcb916004840191602090910190615572565b506000805b8060018651610fdf9190615cb6565b11156110f35761106d85828151811061100857634e487b7160e01b600052603260045260246000fd5b60200260200101518683600161101e9190615c41565b8151811061103c57634e487b7160e01b600052603260045260246000fd5b602002602001015188846020811061106457634e487b7160e01b600052603260045260246000fd5b1a60f81b6133cb565b6000816002875161107e9190615cb6565b6110889190615cb6565b611093906008615c79565b8783602081106110b357634e487b7160e01b600052603260045260246000fd5b1a60f81b7fff0000000000000000000000000000000000000000000000000000000000000016901c929092179150806110eb81615ccd565b915050610fd0565b506005820181905560005b80855111156111bd578460018287516111179190615cb6565b6111219190615cb6565b8151811061113f57634e487b7160e01b600052603260045260246000fd5b602002602001015183600401828154811061116a57634e487b7160e01b600052603260045260246000fd5b600091825260209091200180547fffffffffffffffffffffffff0000000000000000000000000000000000000000166001600160a01b0392909216919091179055806111b581615ccd565b9150506110fe565b506111c88486613677565b6001830155504290555b505050565b33600090815260016020908152604080832060048452909152812054819060ff166112445760405162461bcd60e51b815260206004820181905260248201527f43616c6c696e6720636f6e74722e206e6f7420616e20617574686f72697a65646044820152606401610bb1565b6001600160a01b038088166000908152600a60209081526040808320938916835260028401909152902054156112d5576001600160a01b038616600090815260028201602052604090205461129a908590613a00565b92506112a7818785613a18565b6001600160a01b0386166000908152600c6020526040812080548592906112cf908490615cb6565b90915550505b6001600160a01b038716600090815260058201602052604090205485908082111561130a579050806113078188615cb6565b93505b8387111561134a5761131c8488615cb6565b6001600160a01b038a166000908152600d602052604081208054909190611344908490615cb6565b90915550505b8486111561138a5761135c8587615cb6565b6001600160a01b0389166000908152600d602052604081208054909190611384908490615c41565b90915550505b6001600160a01b0388166000908152600d6020908152604080832054600b9092529091205410156113fd5760405162461bcd60e51b815260206004820152601860248201527f4578636565647320676c6f62616c20746f6b656e2063617000000000000000006044820152606401610bb1565b611413838a8a8561140e8a8c615cb6565b613ce9565b83156114c4576001600160a01b0389166000908152600c602052604081208054869290611441908490615c41565b90915550506001600160a01b0389166000908152600c6020908152604080832054600b9092529091205410156114b95760405162461bcd60e51b815260206004820152601860248201527f4578636565647320676c6f62616c20746f6b656e2063617000000000000000006044820152606401610bb1565b6114c4838a86613d3c565b5050509550959350505050565b6001600160a01b0381166000908152600a602090815260409182902060048101805484518185028101850190955280855260609485949092919083018282801561154457602002820191906000526020600020905b81546001600160a01b03168152600190910190602001808311611526575b5050506004840154929550505067ffffffffffffffff81111561157757634e487b7160e01b600052604160045260246000fd5b6040519080825280602002602001820160405280156115a0578160200160208202803683370190505b50915060005b80845111156116415760008482815181106115d157634e487b7160e01b600052603260045260246000fd5b60200260200101519050826005016000826001600160a01b03166001600160a01b031681526020019081526020016000205484838151811061162357634e487b7160e01b600052603260045260246000fd5b6020908102919091010152508061163981615ccd565b9150506115a6565b5050915091565b6040517f93552a3d000000000000000000000000000000000000000000000000000000008152600481018390526001600160a01b0382811660248301527f000000000000000000000000000000000000000000000000000000000000000016906393552a3d9060440160206040518083038186803b1580156116c957600080fd5b505afa1580156116dd573d6000803e3d6000fd5b505050506040513d601f19601f820116820180604052508101906117019190615982565b6001600160a01b039190911660009081526001602090815260408083209483529390529190912080547fffffffffffffffffffffffffffffffffffffffffffffffffffffffffffffff0016911515919091179055565b6001600160a01b0381166000908152600a6020526040812081611784600183016002840160038501613347565b905060006117988360040184600501613ff6565b90506117a5816064615c79565b826009546117b39190615c79565b101595945050505050565b3360009081526001602090815260408083206004845290915290205460ff166118295760405162461bcd60e51b815260206004820152601d60248201527f43616c6c696e6720636f6e74722e206e6f7420617574686f72697a65640000006044820152606401610bb1565b6001600160a01b0383166000908152600a6020526040902061184c818484614081565b611857818484613120565b50505050565b3360009081526001602090815260408083206004845290915281205460ff166118c85760405162461bcd60e51b815260206004820152601d60248201527f43616c6c696e6720636f6e74722e206e6f7420617574686f72697a65640000006044820152606401610bb1565b6001600160a01b038085166000908152600a602090815260408083204381559387168352600284019091529020541561195c576001600160a01b0384166000908152600282016020526040902054611921908490613a00565b915061192e818584613a18565b6001600160a01b0384166000908152600c602052604081208054849290611956908490615cb6565b90915550505b60006119688385615cb6565b9050611975828683613075565b50509392505050565b33611987612f6c565b6001600160a01b031614806119ab5750336119a0613004565b6001600160a01b0316145b6119f75760405162461bcd60e51b815260206004820152601e60248201527f526f6c65733a2063616c6c6572206973206e6f7420746865206f776e657200006044820152606401610bb1565b600655565b60007f00000000000000000000000000000000000000000000000000000000000000006001600160a01b0316846001600160a01b03161415611a3f575081611b3f565b6001600160a01b03841660009081526002602052604081208054909190611a669042615cb6565b9050600454811180611a7a57506001820154155b80611a8e5750838015611a8e575060055481115b15611b10576000611aff83600201805480602002602001604051908101604052809291908181526020018280548015611af057602002820191906000526020600020905b81546001600160a01b03168152600190910190602001808311611ad2575b50505050508460030154613677565b9050611b0e838260065461415d565b505b6e010000000000000000000000000000826001015486611b309190615c79565b611b3a9190615c59565b925050505b9392505050565b6001600160a01b0381166000908152600a60205260408120610df86004820160058301613ff6565b33611b77612f6c565b6001600160a01b03161480611b9b575033611b90613004565b6001600160a01b0316145b611be75760405162461bcd60e51b815260206004820152601e60248201527f526f6c65733a2063616c6c6572206973206e6f7420746865206f776e657200006044820152606401610bb1565b61ffff909116600455600555565b33611bfe612f6c565b6001600160a01b03161480611c22575033611c17613004565b6001600160a01b0316145b611c6e5760405162461bcd60e51b815260206004820152601e60248201527f526f6c65733a2063616c6c6572206973206e6f7420746865206f776e657200006044820152606401610bb1565b601655565b6000333214611cea5760405162461bcd60e51b815260206004820152603a60248201527f43757272656e746c79206e6f20696e7465726d656469617269657320616c6c6f60448201527f77656420666f7220746869732066756e6374696f6e2063616c6c0000000000006064820152608401610bb1565b6000611d27606b60009081526020527f2dc7a963308417ad45132da282495eb244f38a7db03940a4d808be607669c622546001600160a01b031690565b6040517f7b23cbce0000000000000000000000000000000000000000000000000000000081523360048201526001600160a01b039190911690637b23cbce90602401602060405180830381600087803b158015611d8357600080fd5b505af1158015611d97573d6000803e3d6000fd5b505050506040513d601f19601f82011682018060405250810190611dbb9190615982565b905060008180611dce5750611dce6141a5565b9050611dda8483614285565b92506000611de6614805565b90506000611df26148e7565b9050600060646017546064611e079190615c41565b611e119084615c79565b611e1b9190615c59565b905082811115611f68577f3555ffae7677eb42103f0b9e11b61c758f452fae446684dec7a363dd38ab58fc611e508483615cb6565b60405190815260200160405180910390a1838015611f655750807f00000000000000000000000000000000000000000000000000000000000000006001600160a01b03166370a08231611ed4606560009081526020527f4a7203f705e51df4a56139a9b86b4a0970bed7ab7a3446eaffe2289989c1645c546001600160a01b031690565b6040517fffffffff0000000000000000000000000000000000000000000000000000000060e084901b1681526001600160a01b03909116600482015260240160206040518083038186803b158015611f2b57600080fd5b505afa158015611f3f573d6000803e3d6000fd5b505050506040513d601f19601f82011682018060405250810190611f639190615a61565b115b93505b60008461201957606b60009081526020527f2dc7a963308417ad45132da282495eb244f38a7db03940a4d808be607669c622546001600160a01b03166001600160a01b0316631a38de1d6040518163ffffffff1660e01b8152600401602060405180830381600087803b158015611fde57600080fd5b505af1158015611ff2573d6000803e3d6000fd5b505050506040513d601f19601f8201168201806040525081019061201691906156d3565b90505b60005b60125481101561227c5760006012828154811061204957634e487b7160e01b600052603260045260246000fd5b60009182526020808320909101546001600160a01b0316808352600a9091526040822090925090612079826149c2565b90506000612086836149d4565b9050600060646017548361209a9190615c79565b6120a49190615c59565b90506120b0818e615c41565b9c508a61211d576001600160a01b03858116600090815260146020526040902060028101839055600381018054337fffffffffffffffffffffffff000000000000000000000000000000000000000091821617909155438255600190910180549091169189169190911790555b6121278282615c41565b83111561221f57606560009081526020527f4a7203f705e51df4a56139a9b86b4a0970bed7ab7a3446eaffe2289989c1645c546001600160a01b031663d9caed127f000000000000000000000000000000000000000000000000000000000000000087846121958789615cb6565b61219f9190615cb6565b6040517fffffffff0000000000000000000000000000000000000000000000000000000060e086901b1681526001600160a01b0393841660048201529290911660248301526044820152606401600060405180830381600087803b15801561220657600080fd5b505af115801561221a573d6000803e3d6000fd5b505050505b6040516001600160a01b03861681527f1d2cc4c8661a04a00b4e727426220501b36d85bb330947642c2d4320667028cf9060200160405180910390a1612264846149ea565b5050505050808061227490615ccd565b91505061201c565b50606487601554606361228f9190615c79565b6122999190615c41565b6122a39190615c59565b601555841561238557606560009081526020527f4a7203f705e51df4a56139a9b86b4a0970bed7ab7a3446eaffe2289989c1645c546001600160a01b03166040517fd9caed120000000000000000000000000000000000000000000000000000000081526001600160a01b037f000000000000000000000000000000000000000000000000000000000000000081166004830152336024830152604482018a9052919091169063d9caed1290606401600060405180830381600087803b15801561236c57600080fd5b505af1158015612380573d6000803e3d6000fd5b505050505b60006123c2606b60009081526020527f2dc7a963308417ad45132da282495eb244f38a7db03940a4d808be607669c622546001600160a01b031690565b6001600160a01b0316631a38de1d6040518163ffffffff1660e01b8152600401602060405180830381600087803b1580156123fc57600080fd5b505af1158015612410573d6000803e3d6000fd5b505050506040513d601f19601f8201168201806040525081019061243491906156d3565b905086156124ae576001600160a01b03811660009081526013602052604090205488101561248f576001600160a01b038116600090815260136020526040812080548a9290612484908490615cb6565b909155506124a99050565b6001600160a01b0381166000908152601360205260408120555b6124dc565b6001600160a01b038116600090815260136020526040812080548a92906124d6908490615c41565b90915550505b50505050505050919050565b600781815481106124f857600080fd5b600091825260209091206003909102018054600182015460029092015490925083565b33612524612f6c565b6001600160a01b0316148061254857503361253d613004565b6001600160a01b0316145b6125945760405162461bcd60e51b815260206004820152601e60248201527f526f6c65733a2063616c6c6572206973206e6f7420746865206f776e657200006044820152606401610bb1565b601755565b336125a2612f6c565b6001600160a01b031614806125c65750336125bb613004565b6001600160a01b0316145b6126125760405162461bcd60e51b815260206004820152601e60248201527f526f6c65733a2063616c6c6572206973206e6f7420746865206f776e657200006044820152606401610bb1565b600855565b3360009081526001602090815260408083206004845290915290205460ff166126825760405162461bcd60e51b815260206004820152601c60248201527f43616c6c696e6720636f6e7472206e6f7420617574686f72697a6564000000006044820152606401610bb1565b6001600160a01b0383166000908152600a60205260409020611857818484613227565b6001600160a01b0381166000908152600a602090815260409182902060018101805484518185028101850190955280855260609485949092919083018282801561271857602002820191906000526020600020905b81546001600160a01b031681526001909101906020018083116126fa575b5050506001840154929550505067ffffffffffffffff81111561274b57634e487b7160e01b600052604160045260246000fd5b604051908082528060200260200182016040528015612774578160200160208202803683370190505b50915060005b80845111156116415760008482815181106127a557634e487b7160e01b600052603260045260246000fd5b602002602001015190506127ea606660009081526020527f422cccb7cea5c0e46f340bb7b21b81debac329f72e31669c20ff0f3a05cc2b5b546001600160a01b031690565b6001600160a01b03828116600081815260028701602090815260408083205460038a01909252918290205491517f76668b670000000000000000000000000000000000000000000000000000000081526004810191909152602481019290925260448201529116906376668b679060640160206040518083038186803b15801561287357600080fd5b505afa158015612887573d6000803e3d6000fd5b505050506040513d601f19601f820116820180604052508101906128ab9190615a61565b8483815181106128cb57634e487b7160e01b600052603260045260246000fd5b602090810291909101015250806128e181615ccd565b91505061277a565b3360009081526001602090815260408083206004845290915290205460ff166129545760405162461bcd60e51b815260206004820152601d60248201527f43616c6c696e6720636f6e74722e206e6f7420617574686f72697a65640000006044820152606401610bb1565b6001600160a01b0381166000908152600a60205260409020612975816149d4565b156129c25760405162461bcd60e51b815260206004820152601a60248201527f43616e2774206c69717569646174653a20626f72726f77696e670000000000006044820152606401610bb1565b610aa9816149ea565b336129d4612f6c565b6001600160a01b031614806129f85750336129ed613004565b6001600160a01b0316145b80612a46575033612a3b6103e960009081526020527f236f539bf6e1b3b15a335e3cd157d360bc4be88c071635c19ba8a82b4f665e9f546001600160a01b031690565b6001600160a01b0316145b612ab85760405162461bcd60e51b815260206004820152603860248201527f43616c6c6572206973206e6f7420746865206f776e65722c206578656375746f60448201527f72206f7220617574686f72697a65642064697361626c657200000000000000006064820152608401610bb1565b600060078281548110612adb57634e487b7160e01b600052603260045260246000fd5b90600052602060002090600302019050600081600101541115610aa957600181015460065580546004556002015460055550565b33612b18612f6c565b6001600160a01b03161480612b3c575033612b31613004565b6001600160a01b0316145b612b885760405162461bcd60e51b815260206004820152601e60248201527f526f6c65733a2063616c6c6572206973206e6f7420746865206f776e657200006044820152606401610bb1565b604080516060810182529384526020840192835283019081526007805460018101825560009190915292517fa66cc928b5edb82af9bd49922954155ab7b0942694bea4ce44661d9a8736c68860039094029384015590517fa66cc928b5edb82af9bd49922954155ab7b0942694bea4ce44661d9a8736c689830155517fa66cc928b5edb82af9bd49922954155ab7b0942694bea4ce44661d9a8736c68a90910155565b33612c34612f6c565b6001600160a01b03161480612c58575033612c4d613004565b6001600160a01b0316145b612ca45760405162461bcd60e51b815260206004820152601e60248201527f526f6c65733a2063616c6c6572206973206e6f7420746865206f776e657200006044820152606401610bb1565b600e55565b600281015460009015610dfc578154600090612cd190612cc99043615cb6565b601654613a00565b90506000601654828560020154612ce89190615c79565b612cf29190615c59565b9050612d2f606560009081526020527f4a7203f705e51df4a56139a9b86b4a0970bed7ab7a3446eaffe2289989c1645c546001600160a01b031690565b60038501546040517fd9caed120000000000000000000000000000000000000000000000000000000081526001600160a01b037f00000000000000000000000000000000000000000000000000000000000000008116600483015291821660248201526044810184905291169063d9caed1290606401600060405180830381600087803b158015612dbf57600080fd5b505af1158015612dd3573d6000803e3d6000fd5b505050506000612e14606b60009081526020527f2dc7a963308417ad45132da282495eb244f38a7db03940a4d808be607669c622546001600160a01b031690565b9050600060155483836001600160a01b0316630ad691506040518163ffffffff1660e01b815260040160206040518083038186803b158015612e5557600080fd5b505afa158015612e69573d6000803e3d6000fd5b505050506040513d601f19601f82011682018060405250810190612e8d9190615a61565b612e979190615c79565b612ea19190615c59565b600187015460038801546040517f0a45bc1b0000000000000000000000000000000000000000000000000000000081526001600160a01b039283166004820152602481018490529082166044820152919250831690630a45bc1b90606401602060405180830381600087803b158015612f1957600080fd5b505af1158015612f2d573d6000803e3d6000fd5b505050506040513d601f19601f82011682018060405250810190612f519190615a61565b50828660020154612f629190615cb6565b9695505050505050565b60007f00000000000000000000000000000000000000000000000000000000000000006001600160a01b0316638da5cb5b6040518163ffffffff1660e01b815260040160206040518083038186803b158015612fc757600080fd5b505afa158015612fdb573d6000803e3d6000fd5b505050506040513d601f19601f82011682018060405250810190612fff91906156d3565b905090565b60007f00000000000000000000000000000000000000000000000000000000000000006001600160a01b031663c34c08e56040518163ffffffff1660e01b8152600401602060405180830381600087803b15801561306157600080fd5b505af1158015612fdb573d6000803e3d6000fd5b613080838383614081565b6001600160a01b0382166000908152600d6020526040812080548392906130a8908490615c41565b90915550506001600160a01b0382166000908152600d6020908152604080832054600b9092529091205410156111d25760405162461bcd60e51b815260206004820152601860248201527f4578636565647320676c6f62616c20746f6b656e2063617000000000000000006044820152606401610bb1565b6001600160a01b0382166000908152600c602052604081208054839290613148908490615c41565b90915550506001600160a01b0382166000908152600d602052604081208054839290613175908490615c41565b90915550506001600160a01b0382166000908152600c6020908152604080832054600b90925290912054108015906131d057506001600160a01b0382166000908152600d6020908152604080832054600b9092529091205410155b61321c5760405162461bcd60e51b815260206004820152601860248201527f4578636565647320676c6f62616c20746f6b656e2063617000000000000000006044820152606401610bb1565b6111d2838383613d3c565b600e5483546132369190615c41565b43116132845760405162461bcd60e51b815260206004820181905260248201527f4e6f207769746864726177616c20736f6f6e206166746572206465706f7369746044820152606401610bb1565b6001600160a01b0382166000908152600d6020526040812080548392906132ac908490615cb6565b90915550506001600160a01b03821660009081526005840160205260409020546132d7908290615cb6565b6001600160a01b03831660009081526005850160205260409020556132fb83614b98565b6111d25760405162461bcd60e51b815260206004820152601460248201527f496e73756666696369656e742062616c616e63650000000000000000000000006044820152606401610bb1565b8254600090815b8181101561197557600086828154811061337857634e487b7160e01b600052603260045260246000fd5b60009182526020808320909101546001600160a01b0316808352908890526040909120549091506133ab90829087614be4565b6133b59085615c41565b93505080806133c390615ccd565b91505061334e565b60007fff00000000000000000000000000000000000000000000000000000000000000821615613404576133ff8484614cf3565b61340e565b61340e8484614e1a565b90506000806000836001600160a01b0316630902f1ac6040518163ffffffff1660e01b815260040160606040518083038186803b15801561344e57600080fd5b505afa158015613462573d6000803e3d6000fd5b505050506040513d601f19601f8201168201806040525081019061348691906159e3565b6001600160a01b038088166000908152600360209081526040808320938e16835292905290812093965091945063ffffffff1692506134c58989614f06565b509050806001600160a01b0316896001600160a01b031614156135a857846dffffffffffffffffffffffffffff16846dffffffffffffffffffffffffffff166e01000000000000000000000000000061351e9190615c79565b6135289190615c59565b8260020181905550856001600160a01b0316635909c0d56040518163ffffffff1660e01b815260040160206040518083038186803b15801561356957600080fd5b505afa15801561357d573d6000803e3d6000fd5b505050506040513d601f19601f820116820180604052508101906135a19190615a61565b825561366a565b836dffffffffffffffffffffffffffff16856dffffffffffffffffffffffffffff166e0100000000000000000000000000006135e49190615c79565b6135ee9190615c59565b8260020181905550856001600160a01b0316635a3d54936040518163ffffffff1660e01b815260040160206040518083038186803b15801561362f57600080fd5b505afa158015613643573d6000803e3d6000fd5b505050506040513d601f19601f820116820180604052508101906136679190615a61565b82555b5060010155505050505050565b6e01000000000000000000000000000060005b600184516136989190615cb6565b8110156139f95760008482815181106136c157634e487b7160e01b600052603260045260246000fd5b602002602001015190506000858360016136db9190615c41565b815181106136f957634e487b7160e01b600052603260045260246000fd5b60200260200101519050600085846020811061372557634e487b7160e01b600052603260045260246000fd5b1a60f81b7fff00000000000000000000000000000000000000000000000000000000000000161561375f5761375a8383614cf3565b613769565b6137698383614e1a565b6001600160a01b038082166000818152600360209081526040808320948916835293905282812083517f0902f1ac0000000000000000000000000000000000000000000000000000000081529351949550939092630902f1ac916004808301926060929190829003018186803b1580156137e257600080fd5b505afa1580156137f6573d6000803e3d6000fd5b505050506040513d601f19601f8201168201806040525081019061381a91906159e3565b63ffffffff169250505060008260010154826138369190615cb6565b90506005548111156139b357600061384e8787614f06565b5090506000816001600160a01b0316886001600160a01b0316146138e257856001600160a01b0316635a3d54936040518163ffffffff1660e01b815260040160206040518083038186803b1580156138a557600080fd5b505afa1580156138b9573d6000803e3d6000fd5b505050506040513d601f19601f820116820180604052508101906138dd9190615a61565b613953565b856001600160a01b0316635909c0d56040518163ffffffff1660e01b815260040160206040518083038186803b15801561391b57600080fd5b505afa15801561392f573d6000803e3d6000fd5b505050506040513d601f19601f820116820180604052508101906139539190615a61565b90506000838660000154836139689190615cb6565b6139729190615c59565b90506e01000000000000000000000000000061398e828d615c79565b6139989190615c59565b60028701919091559085556001850184905598506139e09050565b6e0100000000000000000000000000008360020154896139d39190615c79565b6139dd9190615c59565b97505b50505050505080806139f190615ccd565b91505061368a565b5092915050565b600081831115613a11575080610b36565b5081610b36565b600080613a56606660009081526020527f422cccb7cea5c0e46f340bb7b21b81debac329f72e31669c20ff0f3a05cc2b5b546001600160a01b031690565b6001600160a01b03858116600081815260028901602090815260408083205460038c01909252918290205491517fe695fa6800000000000000000000000000000000000000000000000000000000815260048101919091526024810192909252604482015291169063e695fa68906064016040805180830381600087803b158015613ae057600080fd5b505af1158015613af4573d6000803e3d6000fd5b505050506040513d601f19601f82011682018060405250810190613b189190615a9d565b90925090506000613b298484615cb6565b6001600160a01b0386166000908152600288016020526040902081905590508015613b70576001600160a01b03851660009081526003870160205260409020829055613ce1565b6001600160a01b038516600090815260038701602052604081208190556001870154815b80821115613c64576000896001018281548110613bc157634e487b7160e01b600052603260045260246000fd5b6000918252602090912001546001600160a01b0390811691508916811415613bec5760019350613c51565b8315613c5157808a600101600184613c049190615cb6565b81548110613c2257634e487b7160e01b600052603260045260246000fd5b9060005260206000200160006101000a8154816001600160a01b0302191690836001600160a01b031602179055505b5080613c5c81615ccd565b915050613b94565b5087600101805480613c8657634e487b7160e01b600052603160045260246000fd5b60008281526020902081017fffffffffffffffffffffffffffffffffffffffffffffffffffffffffffffffff90810180547fffffffffffffffffffffffff000000000000000000000000000000000000000016905501905550505b505050505050565b6001600160a01b0384166000908152600586016020526040902054613d0f908390615cb6565b6001600160a01b0385166000908152600587016020526040902055613d35858483614081565b5050505050565b6001600160a01b0382166000908152600384016020526040902054613ea3576001838101805491820181556000908152602090200180547fffffffffffffffffffffffff0000000000000000000000000000000000000000166001600160a01b038416179055613ddd606660009081526020527f422cccb7cea5c0e46f340bb7b21b81debac329f72e31669c20ff0f3a05cc2b5b546001600160a01b031690565b6040517f46c87f800000000000000000000000000000000000000000000000000000000081526001600160a01b03848116600483015291909116906346c87f8090602401602060405180830381600087803b158015613e3b57600080fd5b505af1158015613e4f573d6000803e3d6000fd5b505050506040513d601f19601f82011682018060405250810190613e739190615a61565b6001600160a01b038316600090815260038501602090815260408083209390935560028601905220819055613fed565b600080613ee1606660009081526020527f422cccb7cea5c0e46f340bb7b21b81debac329f72e31669c20ff0f3a05cc2b5b546001600160a01b031690565b6001600160a01b03858116600081815260028901602090815260408083205460038c01909252918290205491517fe695fa6800000000000000000000000000000000000000000000000000000000815260048101919091526024810192909252604482015291169063e695fa68906064016040805180830381600087803b158015613f6b57600080fd5b505af1158015613f7f573d6000803e3d6000fd5b505050506040513d601f19601f82011682018060405250810190613fa39190615a9d565b6001600160a01b038616600090815260038801602052604090208190559092509050613fcf8383615c41565b6001600160a01b038516600090815260028701602052604090205550505b6132fb83614b98565b8154600090815b8181101561407957600085828154811061402757634e487b7160e01b600052603260045260246000fd5b60009182526020808320909101546001600160a01b031680835290879052604090912054909150614059908290610aad565b6140639085615c41565b935050808061407190615ccd565b915050613ffd565b505092915050565b6001600160a01b038216600090815260068401602052604090205460ff1661412957600483018054600180820183556000928352602080842090920180547fffffffffffffffffffffffff0000000000000000000000000000000000000000166001600160a01b038716908117909155835260068601909152604090912080547fffffffffffffffffffffffffffffffffffffffffffffffffffffffffffffff001690911790555b6001600160a01b038216600090815260058401602052604081208054839290614153908490615c41565b9091555050505050565b6103e861416a8284615c79565b614176836103e8615cb6565b85600101546141859190615c79565b61418f9190615c41565b6141999190615c59565b60018401555050429055565b6000806141e3606b60009081526020527f2dc7a963308417ad45132da282495eb244f38a7db03940a4d808be607669c622546001600160a01b031690565b6001600160a01b031663b0411f466040518163ffffffff1660e01b8152600401604080518083038186803b15801561421a57600080fd5b505afa15801561422e573d6000803e3d6000fd5b505050506040513d601f19601f820116820180604052508101906142529190615846565b5090506015546018546142659190615c79565b6001600160a01b0390911660009081526013602052604090205411905090565b6040805160008082526020820192839052905190916142a79160109190615572565b5060408051600081526020810191829052516142c591601191615572565b5060408051600081526020810191829052516142e391601291615572565b5060005b80845111156139f957600084828151811061431257634e487b7160e01b600052603260045260246000fd5b602002602001015190506000600a6000836001600160a01b03166001600160a01b03168152602001908152602001600020905061434e81614ff0565b156147bb576012805460018101825560009182527fbb8a6a4669ba250d26cd7a459eca9d215f8307e33aebe50379bc5a3617ec34440180547fffffffffffffffffffffffff0000000000000000000000000000000000000000166001600160a01b0385161790556004820154905b808211156144f05760008360040182815481106143e957634e487b7160e01b600052603260045260246000fd5b60009182526020808320909101546001600160a01b0316808352600f909152604090912060028101549192509043146144a5576001600160a01b03821660008181526005870160205260408120546001808501919091558184554360028501556010805491820181559091527f1b6847dc741a1b0cd08d278845f9d819d87b734759afb55fe2de5cb82a9ae6720180547fffffffffffffffffffffffff00000000000000000000000000000000000000001690911790556144db565b6001600160a01b0382166000908152600586016020526040812054600183018054919290916144d5908490615c41565b90915550505b505080806144e890615ccd565b9150506143bc565b5050600181015460005b808211156147b857600083600101828154811061452757634e487b7160e01b600052603260045260246000fd5b60009182526020808320909101546001600160a01b0316808352600f9091526040822090925090614589606660009081526020527f422cccb7cea5c0e46f340bb7b21b81debac329f72e31669c20ff0f3a05cc2b5b546001600160a01b031690565b6001600160a01b03848116600081815260028a01602090815260408083205460038d01909252918290205491517fe695fa6800000000000000000000000000000000000000000000000000000000815260048101919091526024810192909252604482015291169063e695fa68906064016040805180830381600087803b15801561461357600080fd5b505af1158015614627573d6000803e3d6000fd5b505050506040513d601f19601f8201168201806040525081019061464b9190615a9d565b509050614689606660009081526020527f422cccb7cea5c0e46f340bb7b21b81debac329f72e31669c20ff0f3a05cc2b5b546001600160a01b031690565b6040517f2a6a897b0000000000000000000000000000000000000000000000000000000081526001600160a01b038581166004830152602482018490529190911690632a6a897b90604401600060405180830381600087803b1580156146ee57600080fd5b505af1158015614702573d6000803e3d6000fd5b505050504382600201541461478857600060018381018290558284554360028501556011805491820181559091527f31ecc21a745e3968a04e9570e4425bc18fa8019c68028196b546d1669c200c680180547fffffffffffffffffffffffff0000000000000000000000000000000000000000166001600160a01b0385161790556147a2565b8082600001600082825461479c9190615c41565b90915550505b50505080806147b090615ccd565b9150506144fa565b50505b6001600160a01b038216600090815260146020526040902085156147ef576147e281612ca9565b6147ec9086615c41565b94505b50505080806147fd90615ccd565b9150506142e7565b601054600090815b808211156148d65760006010828154811061483857634e487b7160e01b600052603260045260246000fd5b60009182526020808320909101546001600160a01b0316808352600f909152604090912080546001820154929350909111156148c1578054600182015460009161488191615cb6565b905061488d838261502d565b6148979087615c41565b6001600160a01b0384166000908152600f6020526040812081815560018101829055600201559550505b505080806148ce90615ccd565b91505061480d565b506148e3601060006155eb565b5090565b601154600090815b808211156149b55760006011828154811061491a57634e487b7160e01b600052603260045260246000fd5b60009182526020808320909101546001600160a01b0316808352600f909152604090912060018101548154929350909111156149a05761496d82826001015483600001546149689190615cb6565b6151b7565b6149779086615c41565b6001600160a01b0383166000908152600f60205260408120818155600181018290556002015594505b505080806149ad90615ccd565b9150506148ef565b506148e3601160006155eb565b6000610b36826004018360050161534e565b6000610b368260010183600201846003016153d1565b600181015460005b80821115614a9f576000836001018281548110614a1f57634e487b7160e01b600052603260045260246000fd5b60009182526020808320909101546001600160a01b0316808352600287018252604080842054600c90935283208054919450919290614a5f908490615cb6565b90915550506001600160a01b0316600090815260028401602090815260408083208390556003860190915281205580614a9781615ccd565b9150506149f2565b5050600481015460005b80821115614b7b576000836004018281548110614ad657634e487b7160e01b600052603260045260246000fd5b60009182526020808320909101546001600160a01b0316808352600587018252604080842054600d90935283208054919450919290614b16908490615cb6565b90915550506001600160a01b03166000908152600584016020908152604080832083905560068601909152902080547fffffffffffffffffffffffffffffffffffffffffffffffffffffffffffffff0016905580614b7381615ccd565b915050614aa9565b50614b8a6001830160006155eb565b610aa96004830160006155eb565b600080614ba4836149d4565b90506000614bb1846149c2565b905060085482614bc19190615c79565b6064600854614bd09190615cb6565b614bda9083615c79565b1015949350505050565b600080614c22606660009081526020527f422cccb7cea5c0e46f340bb7b21b81debac329f72e31669c20ff0f3a05cc2b5b546001600160a01b031690565b6040517f14189db20000000000000000000000000000000000000000000000000000000081526001600160a01b03878116600483015291909116906314189db29060240160206040518083038186803b158015614c7e57600080fd5b505afa158015614c92573d6000803e3d6000fd5b505050506040513d601f19601f82011682018060405250810190614cb69190615a61565b6001600160a01b03861660009081526020859052604081205491925090614cdd8387615c79565b614ce79190615c59565b9050611b3a8682610aad565b6000806000614d028585614f06565b60408051606084811b7fffffffffffffffffffffffffffffffffffffffff0000000000000000000000009081166020808501919091529185901b166034830152825160288184030181526048830190935282519201919091207fff0000000000000000000000000000000000000000000000000000000000000060688301527fc0aee478e3658e2610c5f7a4a2e1777ce9e4f2ac0000000000000000000000006069830152607d8201527fe18a34eb0e04b04f7a0ac29a6e80748dca96319b42c54d679cb821dca90c6303609d820152919350915060bd015b604080517fffffffffffffffffffffffffffffffffffffffffffffffffffffffffffffffe0818403018152919052805160209091012095945050505050565b6000806000614e298585614f06565b60408051606084811b7fffffffffffffffffffffffffffffffffffffffff0000000000000000000000009081166020808501919091529185901b166034830152825160288184030181526048830190935282519201919091207fff0000000000000000000000000000000000000000000000000000000000000060688301527f5c69bee701ef814a2b6a3edd4b1652cb9cc5aa6f0000000000000000000000006069830152607d8201527f96e8ac4277198ff8b6f785478aa9a39f403cb768dd02cbee326c3e7da348845f609d820152919350915060bd01614ddb565b600080826001600160a01b0316846001600160a01b03161415614f6b5760405162461bcd60e51b815260206004820152601260248201527f4964656e746963616c20616464726573732100000000000000000000000000006044820152606401610bb1565b826001600160a01b0316846001600160a01b031610614f8b578284614f8e565b83835b90925090506001600160a01b038216614fe95760405162461bcd60e51b815260206004820152600d60248201527f5a65726f206164647265737321000000000000000000000000000000000000006044820152606401610bb1565b9250929050565b600080614ffc836149d4565b90506000615009846149c2565b9050816009546150199190615c79565b615024826064615c79565b10949350505050565b60007f00000000000000000000000000000000000000000000000000000000000000006001600160a01b0316836001600160a01b03161415615070575080610b36565b6001600160a01b0383166000908152600260205260408120906150c4606760009081526020527f682158d08466d11c566d5712d4396197fdd67e65be71d83c97ef719ec468867b546001600160a01b031690565b6001600160a01b031663351ae6108560008560030154866002016040518563ffffffff1660e01b81526004016150fd9493929190615ba9565b600060405180830381600087803b15801561511757600080fd5b505af115801561512b573d6000803e3d6000fd5b505050506040513d6000823e601f3d9081017fffffffffffffffffffffffffffffffffffffffffffffffffffffffffffffffe016820160405261517191908101906158ef565b9050600081600183516151849190615cb6565b815181106151a257634e487b7160e01b600052603260045260246000fd5b60200260200101519050809350505050610b36565b60007f00000000000000000000000000000000000000000000000000000000000000006001600160a01b0316836001600160a01b031614156151fa575080610b36565b6001600160a01b03831660009081526002602052604081209061524e606760009081526020527f682158d08466d11c566d5712d4396197fdd67e65be71d83c97ef719ec468867b546001600160a01b031690565b6001600160a01b03166353d7ff9f857fffffffffffffffffffffffffffffffffffffffffffffffffffffffffffffffff8560030154866004016040518563ffffffff1660e01b81526004016152a69493929190615ba9565b600060405180830381600087803b1580156152c057600080fd5b505af11580156152d4573d6000803e3d6000fd5b505050506040513d6000823e601f3d9081017fffffffffffffffffffffffffffffffffffffffffffffffffffffffffffffffe016820160405261531a91908101906158ef565b90508060008151811061533d57634e487b7160e01b600052603260045260246000fd5b602002602001015192505050610b36565b8154600090815b8181101561407957600085828154811061537f57634e487b7160e01b600052603260045260246000fd5b60009182526020808320909101546001600160a01b0316808352908790526040909120549091506153b1908290615455565b6153bb9085615c41565b93505080806153c990615ccd565b915050615355565b8254600090815b8181101561197557600086828154811061540257634e487b7160e01b600052603260045260246000fd5b60009182526020808320909101546001600160a01b03168083529088905260409091205490915061543590829087615463565b61543f9085615c41565b935050808061544d90615ccd565b9150506153d8565b6000611b3f838360006119fc565b6000806154a1606660009081526020527f422cccb7cea5c0e46f340bb7b21b81debac329f72e31669c20ff0f3a05cc2b5b546001600160a01b031690565b6040517f14189db20000000000000000000000000000000000000000000000000000000081526001600160a01b03878116600483015291909116906314189db29060240160206040518083038186803b1580156154fd57600080fd5b505afa158015615511573d6000803e3d6000fd5b505050506040513d601f19601f820116820180604052508101906155359190615a61565b6001600160a01b0386166000908152602085905260408120549192509061555c8387615c79565b6155669190615c59565b9050611b3a8682615455565b8280548282559060005260206000209081019282156155df579160200282015b828111156155df57825182547fffffffffffffffffffffffff0000000000000000000000000000000000000000166001600160a01b03909116178255602090920191600190910190615592565b506148e392915061560c565b5080546000825590600052602060002090810190615609919061560c565b50565b5b808211156148e3576000815560010161560d565b600082601f830112615631578081fd5b8135602061564661564183615c1d565b615bce565b80838252828201915082860187848660051b8901011115615665578586fd5b855b8581101561568c57813561567a81615d32565b84529284019290840190600101615667565b5090979650505050505050565b80516dffffffffffffffffffffffffffff81168114610dfc57600080fd5b6000602082840312156156c8578081fd5b8135611b3f81615d32565b6000602082840312156156e4578081fd5b8151611b3f81615d32565b60008060408385031215615701578081fd5b823561570c81615d32565b9150602083013561571c81615d32565b809150509250929050565b600080600080600060a0868803121561573e578081fd5b853561574981615d32565b9450602086013561575981615d32565b9350604086013561576981615d32565b94979396509394606081013594506080013592915050565b600080600060608486031215615795578283fd5b83356157a081615d32565b925060208401356157b081615d32565b929592945050506040919091013590565b600080600080600060a086880312156157d8578081fd5b85356157e381615d32565b945060208601356157f381615d32565b935060408601359250606086013561580a81615d32565b949793965091946080013592915050565b6000806040838503121561582d578182fd5b823561583881615d32565b946020939093013593505050565b60008060408385031215615858578182fd5b825161586381615d32565b6020939093015192949293505050565b600080600060608486031215615887578081fd5b833561589281615d32565b92506020840135915060408401356158a981615d47565b809150509250925092565b6000602082840312156158c5578081fd5b813567ffffffffffffffff8111156158db578182fd5b6158e784828501615621565b949350505050565b60006020808385031215615901578182fd5b825167ffffffffffffffff811115615917578283fd5b8301601f81018513615927578283fd5b805161593561564182615c1d565b80828252848201915084840188868560051b8701011115615954578687fd5b8694505b83851015615976578051835260019490940193918501918501615958565b50979650505050505050565b600060208284031215615993578081fd5b8151611b3f81615d47565b600080604083850312156159b0578182fd5b82359150602083013567ffffffffffffffff8111156159cd578182fd5b6159d985828601615621565b9150509250929050565b6000806000606084860312156159f7578081fd5b615a0084615699565b9250615a0e60208501615699565b9150604084015163ffffffff811681146158a9578182fd5b60008060408385031215615a38578182fd5b823561ffff81168114615838578283fd5b600060208284031215615a5a578081fd5b5035919050565b600060208284031215615a72578081fd5b5051919050565b60008060408385031215615a8b578182fd5b82359150602083013561571c81615d32565b60008060408385031215615aaf578182fd5b505080516020909101519092909150565b600080600060608486031215615ad4578081fd5b505081359360208301359350604090920135919050565b6000815480845260208085019450838352808320835b83811015615b265781546001600160a01b031687529582019560019182019101615b01565b509495945050505050565b604080825283519082018190526000906020906060840190828701845b82811015615b755781516001600160a01b0316845260208401935090840190600101615b4e565b50505083810382850152845180825285830191830190845b8181101561568c57835183529284019291840191600101615b8d565b600085825284602083015283604083015260806060830152612f626080830184615aeb565b604051601f82017fffffffffffffffffffffffffffffffffffffffffffffffffffffffffffffffe016810167ffffffffffffffff81118282101715615c1557615c15615d1c565b604052919050565b600067ffffffffffffffff821115615c3757615c37615d1c565b5060051b60200190565b60008219821115615c5457615c54615d06565b500190565b600082615c7457634e487b7160e01b81526012600452602481fd5b500490565b6000817fffffffffffffffffffffffffffffffffffffffffffffffffffffffffffffffff0483118215151615615cb157615cb1615d06565b500290565b600082821015615cc857615cc8615d06565b500390565b60007fffffffffffffffffffffffffffffffffffffffffffffffffffffffffffffffff821415615cff57615cff615d06565b5060010190565b634e487b7160e01b600052601160045260246000fd5b634e487b7160e01b600052604160045260246000fd5b6001600160a01b038116811461560957600080fd5b801515811461560957600080fdfea2646970667358221220dd79acac9809e7c182b6e5521db2acc7f1dc98109382fd9653e28aaf6a105eb864736f6c63430008030033",
  "devdoc": {
    "kind": "dev",
    "methods": {
      "canBeLiquidated(address)": {
        "details": "can this trader be liquidated?"
      },
      "getBorrowAmounts(address)": {
        "details": "view function to display account borrowing state"
      },
      "getHoldingAmounts(address)": {
        "details": "view function to display account held assets state"
      },
      "registerBorrow(address,address,uint256)": {
        "details": "gets called by router to affirm borrowing event"
      },
      "registerDeposit(address,address,uint256)": {
        "details": "gets called by router to affirm a deposit to an account"
      },
      "registerLiquidation(address)": {
        "details": "can get called by router to register the dissolution of an account"
      },
      "registerOvercollateralizedBorrow(address,address,uint256,address,uint256)": {
        "details": "overcollateralized borrowing on a cross margin account, called by router"
      },
      "registerTradeAndBorrow(address,address,address,uint256,uint256)": {
        "details": "gets called by router to register a trade and borrow and extinguish as necessary"
      },
      "registerWithdrawal(address,address,uint256)": {
        "details": "gets called by router to affirm withdrawal of tokens from account"
      },
      "setCoolingOffPeriod(uint256)": {
        "details": "setter for cooling off period for withdrawing funds after deposit"
      },
      "setLeveragePercent(uint256)": {
        "details": "admin function to set leverage"
      },
      "setLiquidationThresholdPercent(uint256)": {
        "details": "admin function to set liquidation threshold"
      },
      "setTokenCap(address,uint256)": {
        "details": "admin function to set the token cap"
      },
      "viewBalanceInToken(address,address)": {
        "details": "currently holding in this token"
      },
      "viewHoldingsInPeg(address)": {
        "details": "total of assets of account, expressed in reference currency"
      },
      "viewLoanInPeg(address)": {
        "details": "view function to get loan amount in peg"
      }
    },
    "version": 1
  },
  "userdoc": {
    "kind": "user",
    "methods": {
      "addVolatilitySetting(uint256,uint256,uint256)": {
        "notice": "Add a new volatility setting"
      },
      "chooseVolatilitySetting(uint256)": {
        "notice": "Choose a volatitlity setting"
      },
      "disburseLiqStakeAttacks(address[])": {
        "notice": "Disburse liquidity stake attacks"
      },
      "liquidate(address[])": {
        "notice": "called by maintenance stakers to liquidate accounts below liquidation threshold"
      },
      "priceUpdateWindow()": {
        "notice": "update window in blocks"
      },
      "setFailureThreshold(uint256)": {
        "notice": "Set failure threshold"
      },
      "setLiqStakeAttackWindow(uint256)": {
        "notice": "Set liquidity stake attack window"
      },
      "setLiquidationPath(bytes32,address[])": {
        "notice": "add path from token to current liquidation peg"
      },
      "setMaintainerCutPercent(uint256)": {
        "notice": "Set maintainer's percent cut"
      },
      "setPriceUpdateWindow(uint16,uint256)": {
        "notice": "Set window for price updates"
      },
      "setUpdateRate(uint256)": {
        "notice": "Set rate for updates"
      },
      "viewCurrentPriceInPeg(address,uint256)": {
        "notice": "Get view of current price of token in peg"
      }
    },
    "version": 1
  },
  "storageLayout": {
    "storage": [
      {
        "astId": 10260,
        "contract": "contracts/CrossMarginTrading.sol:CrossMarginTrading",
        "label": "mainCharacterCache",
        "offset": 0,
        "slot": "0",
        "type": "t_mapping(t_uint256,t_address)"
      },
      {
        "astId": 10266,
        "contract": "contracts/CrossMarginTrading.sol:CrossMarginTrading",
        "label": "roleCache",
        "offset": 0,
        "slot": "1",
        "type": "t_mapping(t_address,t_mapping(t_uint256,t_bool))"
      },
      {
        "astId": 9313,
        "contract": "contracts/CrossMarginTrading.sol:CrossMarginTrading",
        "label": "tokenPrices",
        "offset": 0,
        "slot": "2",
        "type": "t_mapping(t_address,t_struct(TokenPrice)9284_storage)"
      },
      {
        "astId": 9320,
        "contract": "contracts/CrossMarginTrading.sol:CrossMarginTrading",
        "label": "pairPrices",
        "offset": 0,
        "slot": "3",
        "type": "t_mapping(t_address,t_mapping(t_address,t_struct(PairPrice)9298_storage))"
      },
      {
        "astId": 9324,
        "contract": "contracts/CrossMarginTrading.sol:CrossMarginTrading",
        "label": "priceUpdateWindow",
        "offset": 0,
        "slot": "4",
        "type": "t_uint256"
      },
      {
        "astId": 9327,
        "contract": "contracts/CrossMarginTrading.sol:CrossMarginTrading",
        "label": "voluntaryUpdateWindow",
        "offset": 0,
        "slot": "5",
        "type": "t_uint256"
      },
      {
        "astId": 9330,
        "contract": "contracts/CrossMarginTrading.sol:CrossMarginTrading",
        "label": "UPDATE_RATE_PERMIL",
        "offset": 0,
        "slot": "6",
        "type": "t_uint256"
      },
      {
        "astId": 9334,
        "contract": "contracts/CrossMarginTrading.sol:CrossMarginTrading",
        "label": "volatilitySettings",
        "offset": 0,
        "slot": "7",
        "type": "t_array(t_struct(VolatilitySetting)9291_storage)dyn_storage"
      },
      {
        "astId": 1851,
        "contract": "contracts/CrossMarginTrading.sol:CrossMarginTrading",
        "label": "leveragePercent",
        "offset": 0,
        "slot": "8",
        "type": "t_uint256"
      },
      {
        "astId": 1855,
        "contract": "contracts/CrossMarginTrading.sol:CrossMarginTrading",
        "label": "liquidationThresholdPercent",
        "offset": 0,
        "slot": "9",
        "type": "t_uint256"
      },
      {
        "astId": 1861,
        "contract": "contracts/CrossMarginTrading.sol:CrossMarginTrading",
        "label": "marginAccounts",
        "offset": 0,
        "slot": "10",
        "type": "t_mapping(t_address,t_struct(CrossMarginAccount)1843_storage)"
      },
      {
        "astId": 1866,
        "contract": "contracts/CrossMarginTrading.sol:CrossMarginTrading",
        "label": "tokenCaps",
        "offset": 0,
        "slot": "11",
        "type": "t_mapping(t_address,t_uint256)"
      },
      {
        "astId": 1871,
        "contract": "contracts/CrossMarginTrading.sol:CrossMarginTrading",
        "label": "totalShort",
        "offset": 0,
        "slot": "12",
        "type": "t_mapping(t_address,t_uint256)"
      },
      {
        "astId": 1876,
        "contract": "contracts/CrossMarginTrading.sol:CrossMarginTrading",
        "label": "totalLong",
        "offset": 0,
        "slot": "13",
        "type": "t_mapping(t_address,t_uint256)"
      },
      {
        "astId": 1879,
        "contract": "contracts/CrossMarginTrading.sol:CrossMarginTrading",
        "label": "coolingOffPeriod",
        "offset": 0,
        "slot": "14",
        "type": "t_uint256"
      },
      {
        "astId": 2758,
        "contract": "contracts/CrossMarginTrading.sol:CrossMarginTrading",
        "label": "liquidationAmounts",
        "offset": 0,
        "slot": "15",
        "type": "t_mapping(t_address,t_struct(Liquidation)2744_storage)"
      },
      {
        "astId": 2761,
        "contract": "contracts/CrossMarginTrading.sol:CrossMarginTrading",
        "label": "sellTokens",
        "offset": 0,
        "slot": "16",
        "type": "t_array(t_address)dyn_storage"
      },
      {
        "astId": 2764,
        "contract": "contracts/CrossMarginTrading.sol:CrossMarginTrading",
        "label": "buyTokens",
        "offset": 0,
        "slot": "17",
        "type": "t_array(t_address)dyn_storage"
      },
      {
        "astId": 2767,
        "contract": "contracts/CrossMarginTrading.sol:CrossMarginTrading",
        "label": "tradersToLiquidate",
        "offset": 0,
        "slot": "18",
        "type": "t_array(t_address)dyn_storage"
      },
      {
        "astId": 2771,
        "contract": "contracts/CrossMarginTrading.sol:CrossMarginTrading",
        "label": "maintenanceFailures",
        "offset": 0,
        "slot": "19",
        "type": "t_mapping(t_address,t_uint256)"
      },
      {
        "astId": 2776,
        "contract": "contracts/CrossMarginTrading.sol:CrossMarginTrading",
        "label": "stakeAttackRecords",
        "offset": 0,
        "slot": "20",
        "type": "t_mapping(t_address,t_struct(AccountLiqRecord)2753_storage)"
      },
      {
        "astId": 2779,
        "contract": "contracts/CrossMarginTrading.sol:CrossMarginTrading",
        "label": "avgLiquidationPerCall",
        "offset": 0,
        "slot": "21",
        "type": "t_uint256"
      },
      {
        "astId": 2782,
        "contract": "contracts/CrossMarginTrading.sol:CrossMarginTrading",
        "label": "liqStakeAttackWindow",
        "offset": 0,
        "slot": "22",
        "type": "t_uint256"
      },
      {
        "astId": 2785,
        "contract": "contracts/CrossMarginTrading.sol:CrossMarginTrading",
        "label": "MAINTAINER_CUT_PERCENT",
        "offset": 0,
        "slot": "23",
        "type": "t_uint256"
      },
      {
        "astId": 2788,
        "contract": "contracts/CrossMarginTrading.sol:CrossMarginTrading",
        "label": "failureThreshold",
        "offset": 0,
        "slot": "24",
        "type": "t_uint256"
      }
    ],
    "types": {
      "t_address": {
        "encoding": "inplace",
        "label": "address",
        "numberOfBytes": "20"
      },
      "t_array(t_address)dyn_storage": {
        "base": "t_address",
        "encoding": "dynamic_array",
        "label": "address[]",
        "numberOfBytes": "32"
      },
      "t_array(t_struct(VolatilitySetting)9291_storage)dyn_storage": {
        "base": "t_struct(VolatilitySetting)9291_storage",
        "encoding": "dynamic_array",
        "label": "struct VolatilitySetting[]",
        "numberOfBytes": "32"
      },
      "t_bool": {
        "encoding": "inplace",
        "label": "bool",
        "numberOfBytes": "1"
      },
      "t_bytes32": {
        "encoding": "inplace",
        "label": "bytes32",
        "numberOfBytes": "32"
      },
      "t_mapping(t_address,t_bool)": {
        "encoding": "mapping",
        "key": "t_address",
        "label": "mapping(address => bool)",
        "numberOfBytes": "32",
        "value": "t_bool"
      },
      "t_mapping(t_address,t_mapping(t_address,t_struct(PairPrice)9298_storage))": {
        "encoding": "mapping",
        "key": "t_address",
        "label": "mapping(address => mapping(address => struct PairPrice))",
        "numberOfBytes": "32",
        "value": "t_mapping(t_address,t_struct(PairPrice)9298_storage)"
      },
      "t_mapping(t_address,t_mapping(t_uint256,t_bool))": {
        "encoding": "mapping",
        "key": "t_address",
        "label": "mapping(address => mapping(uint256 => bool))",
        "numberOfBytes": "32",
        "value": "t_mapping(t_uint256,t_bool)"
      },
      "t_mapping(t_address,t_struct(AccountLiqRecord)2753_storage)": {
        "encoding": "mapping",
        "key": "t_address",
        "label": "mapping(address => struct CrossMarginLiquidation.AccountLiqRecord)",
        "numberOfBytes": "32",
        "value": "t_struct(AccountLiqRecord)2753_storage"
      },
      "t_mapping(t_address,t_struct(CrossMarginAccount)1843_storage)": {
        "encoding": "mapping",
        "key": "t_address",
        "label": "mapping(address => struct CrossMarginAccount)",
        "numberOfBytes": "32",
        "value": "t_struct(CrossMarginAccount)1843_storage"
      },
      "t_mapping(t_address,t_struct(Liquidation)2744_storage)": {
        "encoding": "mapping",
        "key": "t_address",
        "label": "mapping(address => struct CrossMarginLiquidation.Liquidation)",
        "numberOfBytes": "32",
        "value": "t_struct(Liquidation)2744_storage"
      },
      "t_mapping(t_address,t_struct(PairPrice)9298_storage)": {
        "encoding": "mapping",
        "key": "t_address",
        "label": "mapping(address => struct PairPrice)",
        "numberOfBytes": "32",
        "value": "t_struct(PairPrice)9298_storage"
      },
      "t_mapping(t_address,t_struct(TokenPrice)9284_storage)": {
        "encoding": "mapping",
        "key": "t_address",
        "label": "mapping(address => struct TokenPrice)",
        "numberOfBytes": "32",
        "value": "t_struct(TokenPrice)9284_storage"
      },
      "t_mapping(t_address,t_uint256)": {
        "encoding": "mapping",
        "key": "t_address",
        "label": "mapping(address => uint256)",
        "numberOfBytes": "32",
        "value": "t_uint256"
      },
      "t_mapping(t_uint256,t_address)": {
        "encoding": "mapping",
        "key": "t_uint256",
        "label": "mapping(uint256 => address)",
        "numberOfBytes": "32",
        "value": "t_address"
      },
      "t_mapping(t_uint256,t_bool)": {
        "encoding": "mapping",
        "key": "t_uint256",
        "label": "mapping(uint256 => bool)",
        "numberOfBytes": "32",
        "value": "t_bool"
      },
      "t_struct(AccountLiqRecord)2753_storage": {
        "encoding": "inplace",
        "label": "struct CrossMarginLiquidation.AccountLiqRecord",
        "members": [
          {
            "astId": 2746,
            "contract": "contracts/CrossMarginTrading.sol:CrossMarginTrading",
            "label": "blockNum",
            "offset": 0,
            "slot": "0",
            "type": "t_uint256"
          },
          {
            "astId": 2748,
            "contract": "contracts/CrossMarginTrading.sol:CrossMarginTrading",
            "label": "loser",
            "offset": 0,
            "slot": "1",
            "type": "t_address"
          },
          {
            "astId": 2750,
            "contract": "contracts/CrossMarginTrading.sol:CrossMarginTrading",
            "label": "amount",
            "offset": 0,
            "slot": "2",
            "type": "t_uint256"
          },
          {
            "astId": 2752,
            "contract": "contracts/CrossMarginTrading.sol:CrossMarginTrading",
            "label": "stakeAttacker",
            "offset": 0,
            "slot": "3",
            "type": "t_address"
          }
        ],
        "numberOfBytes": "128"
      },
      "t_struct(CrossMarginAccount)1843_storage": {
        "encoding": "inplace",
        "label": "struct CrossMarginAccount",
        "members": [
          {
            "astId": 1820,
            "contract": "contracts/CrossMarginTrading.sol:CrossMarginTrading",
            "label": "lastDepositBlock",
            "offset": 0,
            "slot": "0",
            "type": "t_uint256"
          },
          {
            "astId": 1823,
            "contract": "contracts/CrossMarginTrading.sol:CrossMarginTrading",
            "label": "borrowTokens",
            "offset": 0,
            "slot": "1",
            "type": "t_array(t_address)dyn_storage"
          },
          {
            "astId": 1827,
            "contract": "contracts/CrossMarginTrading.sol:CrossMarginTrading",
            "label": "borrowed",
            "offset": 0,
            "slot": "2",
            "type": "t_mapping(t_address,t_uint256)"
          },
          {
            "astId": 1831,
            "contract": "contracts/CrossMarginTrading.sol:CrossMarginTrading",
            "label": "borrowedYieldQuotientsFP",
            "offset": 0,
            "slot": "3",
            "type": "t_mapping(t_address,t_uint256)"
          },
          {
            "astId": 1834,
            "contract": "contracts/CrossMarginTrading.sol:CrossMarginTrading",
            "label": "holdingTokens",
            "offset": 0,
            "slot": "4",
            "type": "t_array(t_address)dyn_storage"
          },
          {
            "astId": 1838,
            "contract": "contracts/CrossMarginTrading.sol:CrossMarginTrading",
            "label": "holdings",
            "offset": 0,
            "slot": "5",
            "type": "t_mapping(t_address,t_uint256)"
          },
          {
            "astId": 1842,
            "contract": "contracts/CrossMarginTrading.sol:CrossMarginTrading",
            "label": "holdsToken",
            "offset": 0,
            "slot": "6",
            "type": "t_mapping(t_address,t_bool)"
          }
        ],
        "numberOfBytes": "224"
      },
      "t_struct(Liquidation)2744_storage": {
        "encoding": "inplace",
        "label": "struct CrossMarginLiquidation.Liquidation",
        "members": [
          {
            "astId": 2739,
            "contract": "contracts/CrossMarginTrading.sol:CrossMarginTrading",
            "label": "buy",
            "offset": 0,
            "slot": "0",
            "type": "t_uint256"
          },
          {
            "astId": 2741,
            "contract": "contracts/CrossMarginTrading.sol:CrossMarginTrading",
            "label": "sell",
            "offset": 0,
            "slot": "1",
            "type": "t_uint256"
          },
          {
            "astId": 2743,
            "contract": "contracts/CrossMarginTrading.sol:CrossMarginTrading",
            "label": "blockNum",
            "offset": 0,
            "slot": "2",
            "type": "t_uint256"
          }
        ],
        "numberOfBytes": "96"
      },
      "t_struct(PairPrice)9298_storage": {
        "encoding": "inplace",
        "label": "struct PairPrice",
        "members": [
          {
            "astId": 9293,
            "contract": "contracts/CrossMarginTrading.sol:CrossMarginTrading",
            "label": "cumulative",
            "offset": 0,
            "slot": "0",
            "type": "t_uint256"
          },
          {
            "astId": 9295,
            "contract": "contracts/CrossMarginTrading.sol:CrossMarginTrading",
            "label": "lastUpdated",
            "offset": 0,
            "slot": "1",
            "type": "t_uint256"
          },
          {
            "astId": 9297,
            "contract": "contracts/CrossMarginTrading.sol:CrossMarginTrading",
            "label": "priceFP",
            "offset": 0,
            "slot": "2",
            "type": "t_uint256"
          }
        ],
        "numberOfBytes": "96"
      },
      "t_struct(TokenPrice)9284_storage": {
        "encoding": "inplace",
        "label": "struct TokenPrice",
        "members": [
          {
            "astId": 9271,
            "contract": "contracts/CrossMarginTrading.sol:CrossMarginTrading",
            "label": "lastUpdated",
            "offset": 0,
            "slot": "0",
            "type": "t_uint256"
          },
          {
            "astId": 9273,
            "contract": "contracts/CrossMarginTrading.sol:CrossMarginTrading",
            "label": "priceFP",
            "offset": 0,
            "slot": "1",
            "type": "t_uint256"
          },
          {
            "astId": 9276,
            "contract": "contracts/CrossMarginTrading.sol:CrossMarginTrading",
            "label": "liquidationTokens",
            "offset": 0,
            "slot": "2",
            "type": "t_array(t_address)dyn_storage"
          },
          {
            "astId": 9278,
            "contract": "contracts/CrossMarginTrading.sol:CrossMarginTrading",
            "label": "amms",
            "offset": 0,
            "slot": "3",
            "type": "t_bytes32"
          },
          {
            "astId": 9281,
            "contract": "contracts/CrossMarginTrading.sol:CrossMarginTrading",
            "label": "inverseLiquidationTokens",
            "offset": 0,
            "slot": "4",
            "type": "t_array(t_address)dyn_storage"
          },
          {
            "astId": 9283,
            "contract": "contracts/CrossMarginTrading.sol:CrossMarginTrading",
            "label": "inverseAmms",
            "offset": 0,
            "slot": "5",
            "type": "t_bytes32"
          }
        ],
        "numberOfBytes": "192"
      },
      "t_struct(VolatilitySetting)9291_storage": {
        "encoding": "inplace",
        "label": "struct VolatilitySetting",
        "members": [
          {
            "astId": 9286,
            "contract": "contracts/CrossMarginTrading.sol:CrossMarginTrading",
            "label": "priceUpdateWindow",
            "offset": 0,
            "slot": "0",
            "type": "t_uint256"
          },
          {
            "astId": 9288,
            "contract": "contracts/CrossMarginTrading.sol:CrossMarginTrading",
            "label": "updateRatePermil",
            "offset": 0,
            "slot": "1",
            "type": "t_uint256"
          },
          {
            "astId": 9290,
            "contract": "contracts/CrossMarginTrading.sol:CrossMarginTrading",
            "label": "voluntaryUpdateWindow",
            "offset": 0,
            "slot": "2",
            "type": "t_uint256"
          }
        ],
        "numberOfBytes": "96"
      },
      "t_uint256": {
        "encoding": "inplace",
        "label": "uint256",
        "numberOfBytes": "32"
      }
    }
  }
}