{
  "address": "0xD6C5988713eE3cc8DFf2364E52C61fa726fb1d00",
  "abi": [
    {
      "inputs": [
        {
          "internalType": "address",
          "name": "_peg",
          "type": "address"
        },
        {
          "internalType": "address",
          "name": "_roles",
          "type": "address"
        }
      ],
      "stateMutability": "nonpayable",
      "type": "constructor"
    },
    {
      "anonymous": false,
      "inputs": [
        {
          "indexed": false,
          "internalType": "address",
          "name": "account",
          "type": "address"
        }
      ],
      "name": "AccountLiquidated",
      "type": "event"
    },
    {
      "anonymous": false,
      "inputs": [
        {
          "indexed": false,
          "internalType": "uint256",
          "name": "amount",
          "type": "uint256"
        }
      ],
      "name": "LiquidationShortfall",
      "type": "event"
    },
    {
      "inputs": [],
      "name": "MAINTAINER_CUT_PERCENT",
      "outputs": [
        {
          "internalType": "uint256",
          "name": "",
          "type": "uint256"
        }
      ],
      "stateMutability": "view",
      "type": "function"
    },
    {
      "inputs": [],
      "name": "UPDATE_RATE_PERMIL",
      "outputs": [
        {
          "internalType": "uint256",
          "name": "",
          "type": "uint256"
        }
      ],
      "stateMutability": "view",
      "type": "function"
    },
    {
      "inputs": [],
      "name": "avgLiquidationPerCall",
      "outputs": [
        {
          "internalType": "uint256",
          "name": "",
          "type": "uint256"
        }
      ],
      "stateMutability": "view",
      "type": "function"
    },
    {
      "inputs": [
        {
          "internalType": "address",
          "name": "trader",
          "type": "address"
        }
      ],
      "name": "canBeLiquidated",
      "outputs": [
        {
          "internalType": "bool",
          "name": "",
          "type": "bool"
        }
      ],
      "stateMutability": "view",
      "type": "function"
    },
    {
      "inputs": [],
      "name": "coolingOffPeriod",
      "outputs": [
        {
          "internalType": "uint256",
          "name": "",
          "type": "uint256"
        }
      ],
      "stateMutability": "view",
      "type": "function"
    },
    {
      "inputs": [
        {
          "internalType": "address[]",
          "name": "liquidatedAccounts",
          "type": "address[]"
        }
      ],
      "name": "disburseLiqStakeAttacks",
      "outputs": [],
      "stateMutability": "nonpayable",
      "type": "function"
    },
    {
      "inputs": [],
      "name": "failureThreshold",
      "outputs": [
        {
          "internalType": "uint256",
          "name": "",
          "type": "uint256"
        }
      ],
      "stateMutability": "view",
      "type": "function"
    },
    {
      "inputs": [
        {
          "internalType": "address",
          "name": "trader",
          "type": "address"
        }
      ],
      "name": "getBorrowAmounts",
      "outputs": [
        {
          "internalType": "address[]",
          "name": "borrowTokens",
          "type": "address[]"
        },
        {
          "internalType": "uint256[]",
          "name": "borrowAmounts",
          "type": "uint256[]"
        }
      ],
      "stateMutability": "view",
      "type": "function"
    },
    {
      "inputs": [
        {
          "internalType": "address",
          "name": "token",
          "type": "address"
        },
        {
          "internalType": "uint256",
          "name": "inAmount",
          "type": "uint256"
        }
      ],
      "name": "getCurrentPriceInPeg",
      "outputs": [
        {
          "internalType": "uint256",
          "name": "",
          "type": "uint256"
        }
      ],
      "stateMutability": "nonpayable",
      "type": "function"
    },
    {
      "inputs": [
        {
          "internalType": "address",
          "name": "trader",
          "type": "address"
        }
      ],
      "name": "getHoldingAmounts",
      "outputs": [
        {
          "internalType": "address[]",
          "name": "holdingTokens",
          "type": "address[]"
        },
        {
          "internalType": "uint256[]",
          "name": "holdingAmounts",
          "type": "uint256[]"
        }
      ],
      "stateMutability": "view",
      "type": "function"
    },
    {
      "inputs": [],
      "name": "leveragePercent",
      "outputs": [
        {
          "internalType": "uint256",
          "name": "",
          "type": "uint256"
        }
      ],
      "stateMutability": "view",
      "type": "function"
    },
    {
      "inputs": [],
      "name": "liqStakeAttackWindow",
      "outputs": [
        {
          "internalType": "uint256",
          "name": "",
          "type": "uint256"
        }
      ],
      "stateMutability": "view",
      "type": "function"
    },
    {
      "inputs": [
        {
          "internalType": "address[]",
          "name": "liquidationCandidates",
          "type": "address[]"
        }
      ],
      "name": "liquidate",
      "outputs": [
        {
          "internalType": "uint256",
          "name": "maintainerCut",
          "type": "uint256"
        }
      ],
      "stateMutability": "nonpayable",
      "type": "function"
    },
    {
      "inputs": [],
      "name": "liquidationThresholdPercent",
      "outputs": [
        {
          "internalType": "uint256",
          "name": "",
          "type": "uint256"
        }
      ],
      "stateMutability": "view",
      "type": "function"
    },
    {
      "inputs": [
        {
          "internalType": "uint256",
          "name": "",
          "type": "uint256"
        }
      ],
      "name": "mainCharacterCache",
      "outputs": [
        {
          "internalType": "address",
          "name": "",
          "type": "address"
        }
      ],
      "stateMutability": "view",
      "type": "function"
    },
    {
      "inputs": [
        {
          "internalType": "address",
          "name": "",
          "type": "address"
        }
      ],
      "name": "maintenanceFailures",
      "outputs": [
        {
          "internalType": "uint256",
          "name": "",
          "type": "uint256"
        }
      ],
      "stateMutability": "view",
      "type": "function"
    },
    {
      "inputs": [],
      "name": "peg",
      "outputs": [
        {
          "internalType": "address",
          "name": "",
          "type": "address"
        }
      ],
      "stateMutability": "view",
      "type": "function"
    },
    {
      "inputs": [],
      "name": "priceUpdateWindow",
      "outputs": [
        {
          "internalType": "uint16",
          "name": "",
          "type": "uint16"
        }
      ],
      "stateMutability": "view",
      "type": "function"
    },
    {
      "inputs": [
        {
          "internalType": "address",
          "name": "trader",
          "type": "address"
        },
        {
          "internalType": "address",
          "name": "borrowToken",
          "type": "address"
        },
        {
          "internalType": "uint256",
          "name": "borrowAmount",
          "type": "uint256"
        }
      ],
      "name": "registerBorrow",
      "outputs": [],
      "stateMutability": "nonpayable",
      "type": "function"
    },
    {
      "inputs": [
        {
          "internalType": "address",
          "name": "trader",
          "type": "address"
        },
        {
          "internalType": "address",
          "name": "token",
          "type": "address"
        },
        {
          "internalType": "uint256",
          "name": "depositAmount",
          "type": "uint256"
        }
      ],
      "name": "registerDeposit",
      "outputs": [
        {
          "internalType": "uint256",
          "name": "extinguishableDebt",
          "type": "uint256"
        }
      ],
      "stateMutability": "nonpayable",
      "type": "function"
    },
    {
      "inputs": [
        {
          "internalType": "address",
          "name": "trader",
          "type": "address"
        }
      ],
      "name": "registerLiquidation",
      "outputs": [],
      "stateMutability": "nonpayable",
      "type": "function"
    },
    {
      "inputs": [
        {
          "internalType": "address",
          "name": "trader",
          "type": "address"
        },
        {
          "internalType": "address",
          "name": "depositToken",
          "type": "address"
        },
        {
          "internalType": "uint256",
          "name": "depositAmount",
          "type": "uint256"
        },
        {
          "internalType": "address",
          "name": "borrowToken",
          "type": "address"
        },
        {
          "internalType": "uint256",
          "name": "withdrawAmount",
          "type": "uint256"
        }
      ],
      "name": "registerOvercollateralizedBorrow",
      "outputs": [],
      "stateMutability": "nonpayable",
      "type": "function"
    },
    {
      "inputs": [
        {
          "internalType": "address",
          "name": "trader",
          "type": "address"
        },
        {
          "internalType": "address",
          "name": "tokenFrom",
          "type": "address"
        },
        {
          "internalType": "address",
          "name": "tokenTo",
          "type": "address"
        },
        {
          "internalType": "uint256",
          "name": "inAmount",
          "type": "uint256"
        },
        {
          "internalType": "uint256",
          "name": "outAmount",
          "type": "uint256"
        }
      ],
      "name": "registerTradeAndBorrow",
      "outputs": [
        {
          "internalType": "uint256",
          "name": "extinguishableDebt",
          "type": "uint256"
        },
        {
          "internalType": "uint256",
          "name": "borrowAmount",
          "type": "uint256"
        }
      ],
      "stateMutability": "nonpayable",
      "type": "function"
    },
    {
      "inputs": [
        {
          "internalType": "address",
          "name": "trader",
          "type": "address"
        },
        {
          "internalType": "address",
          "name": "withdrawToken",
          "type": "address"
        },
        {
          "internalType": "uint256",
          "name": "withdrawAmount",
          "type": "uint256"
        }
      ],
      "name": "registerWithdrawal",
      "outputs": [],
      "stateMutability": "nonpayable",
      "type": "function"
    },
    {
      "inputs": [
        {
          "internalType": "address",
          "name": "",
          "type": "address"
        },
        {
          "internalType": "uint256",
          "name": "",
          "type": "uint256"
        }
      ],
      "name": "roleCache",
      "outputs": [
        {
          "internalType": "bool",
          "name": "",
          "type": "bool"
        }
      ],
      "stateMutability": "view",
      "type": "function"
    },
    {
      "inputs": [],
      "name": "roles",
      "outputs": [
        {
          "internalType": "contract Roles",
          "name": "",
          "type": "address"
        }
      ],
      "stateMutability": "view",
      "type": "function"
    },
    {
      "inputs": [
        {
          "internalType": "uint256",
          "name": "blocks",
          "type": "uint256"
        }
      ],
      "name": "setCoolingOffPeriod",
      "outputs": [],
      "stateMutability": "nonpayable",
      "type": "function"
    },
    {
      "inputs": [
        {
          "internalType": "uint256",
          "name": "threshFactor",
          "type": "uint256"
        }
      ],
      "name": "setFailureThreshold",
      "outputs": [],
      "stateMutability": "nonpayable",
      "type": "function"
    },
    {
      "inputs": [
        {
          "internalType": "uint256",
          "name": "_leveragePercent",
          "type": "uint256"
        }
      ],
      "name": "setLeverage",
      "outputs": [],
      "stateMutability": "nonpayable",
      "type": "function"
    },
    {
      "inputs": [
        {
          "internalType": "uint256",
          "name": "window",
          "type": "uint256"
        }
      ],
      "name": "setLiqStakeAttackWindow",
      "outputs": [],
      "stateMutability": "nonpayable",
      "type": "function"
    },
    {
      "inputs": [
        {
          "internalType": "bytes32",
          "name": "amms",
          "type": "bytes32"
        },
        {
          "internalType": "address[]",
          "name": "tokens",
          "type": "address[]"
        }
      ],
      "name": "setLiquidationPath",
      "outputs": [],
      "stateMutability": "nonpayable",
      "type": "function"
    },
    {
      "inputs": [
        {
          "internalType": "uint256",
          "name": "threshold",
          "type": "uint256"
        }
      ],
      "name": "setLiquidationThresholdPercent",
      "outputs": [],
      "stateMutability": "nonpayable",
      "type": "function"
    },
    {
      "inputs": [
        {
          "internalType": "uint256",
          "name": "cut",
          "type": "uint256"
        }
      ],
      "name": "setMaintainerCutPercent",
      "outputs": [],
      "stateMutability": "nonpayable",
      "type": "function"
    },
    {
      "inputs": [
        {
          "internalType": "uint16",
          "name": "window",
          "type": "uint16"
        }
      ],
      "name": "setPriceUpdateWindow",
      "outputs": [],
      "stateMutability": "nonpayable",
      "type": "function"
    },
    {
      "inputs": [
        {
          "internalType": "address",
          "name": "token",
          "type": "address"
        },
        {
          "internalType": "uint256",
          "name": "cap",
          "type": "uint256"
        }
      ],
      "name": "setTokenCap",
      "outputs": [],
      "stateMutability": "nonpayable",
      "type": "function"
    },
    {
      "inputs": [
        {
          "internalType": "uint256",
          "name": "rate",
          "type": "uint256"
        }
      ],
      "name": "setUpdateRate",
      "outputs": [],
      "stateMutability": "nonpayable",
      "type": "function"
    },
    {
      "inputs": [
        {
          "internalType": "address",
          "name": "",
          "type": "address"
        }
      ],
      "name": "stakeAttackRecords",
      "outputs": [
        {
          "internalType": "uint256",
          "name": "blockNum",
          "type": "uint256"
        },
        {
          "internalType": "address",
          "name": "loser",
          "type": "address"
        },
        {
          "internalType": "uint256",
          "name": "amount",
          "type": "uint256"
        },
        {
          "internalType": "address",
          "name": "stakeAttacker",
          "type": "address"
        }
      ],
      "stateMutability": "view",
      "type": "function"
    },
    {
      "inputs": [
        {
          "internalType": "address",
          "name": "",
          "type": "address"
        }
      ],
      "name": "tokenCaps",
      "outputs": [
        {
          "internalType": "uint256",
          "name": "",
          "type": "uint256"
        }
      ],
      "stateMutability": "view",
      "type": "function"
    },
    {
      "inputs": [
        {
          "internalType": "address",
          "name": "",
          "type": "address"
        }
      ],
      "name": "tokenPrices",
      "outputs": [
        {
          "internalType": "uint256",
          "name": "blockLastUpdated",
          "type": "uint256"
        },
        {
          "internalType": "uint256",
          "name": "tokenPerRefAmount",
          "type": "uint256"
        },
        {
          "internalType": "bytes32",
          "name": "amms",
          "type": "bytes32"
        },
        {
          "internalType": "bytes32",
          "name": "inverseAmms",
          "type": "bytes32"
        }
      ],
      "stateMutability": "view",
      "type": "function"
    },
    {
      "inputs": [
        {
          "internalType": "address",
          "name": "",
          "type": "address"
        }
      ],
      "name": "totalLong",
      "outputs": [
        {
          "internalType": "uint256",
          "name": "",
          "type": "uint256"
        }
      ],
      "stateMutability": "view",
      "type": "function"
    },
    {
      "inputs": [
        {
          "internalType": "address",
          "name": "",
          "type": "address"
        }
      ],
      "name": "totalShort",
      "outputs": [
        {
          "internalType": "uint256",
          "name": "",
          "type": "uint256"
        }
      ],
      "stateMutability": "view",
      "type": "function"
    },
    {
      "inputs": [
        {
          "internalType": "uint256",
          "name": "role",
          "type": "uint256"
        }
      ],
      "name": "updateMainCharacterCache",
      "outputs": [],
      "stateMutability": "nonpayable",
      "type": "function"
    },
    {
      "inputs": [
        {
          "internalType": "uint256",
          "name": "role",
          "type": "uint256"
        },
        {
          "internalType": "address",
          "name": "contr",
          "type": "address"
        }
      ],
      "name": "updateRoleCache",
      "outputs": [],
      "stateMutability": "nonpayable",
      "type": "function"
    },
    {
      "inputs": [
        {
          "internalType": "address",
          "name": "token",
          "type": "address"
        },
        {
          "internalType": "uint256",
          "name": "inAmount",
          "type": "uint256"
        }
      ],
      "name": "viewCurrentPriceInPeg",
      "outputs": [
        {
          "internalType": "uint256",
          "name": "",
          "type": "uint256"
        }
      ],
      "stateMutability": "view",
      "type": "function"
    },
    {
      "inputs": [
        {
          "internalType": "address",
          "name": "trader",
          "type": "address"
        }
      ],
      "name": "viewHoldingsInPeg",
      "outputs": [
        {
          "internalType": "uint256",
          "name": "",
          "type": "uint256"
        }
      ],
      "stateMutability": "view",
      "type": "function"
    },
    {
      "inputs": [
        {
          "internalType": "address",
          "name": "trader",
          "type": "address"
        }
      ],
      "name": "viewLoanInPeg",
      "outputs": [
        {
          "internalType": "uint256",
          "name": "amount",
          "type": "uint256"
        }
      ],
      "stateMutability": "view",
      "type": "function"
    }
  ],
  "transactionHash": "0x969c2904307cdef04b344f46793d70f67b783b7c5c9521fae7aedb50de08c581",
  "args": [
    "0xd0A1E359811322d97991E03f863a0C30C2cF029C",
    "0x2d9FEb3a330e43ec3544f7747694109d50f737cb"
  ],
  "solcInputHash": "ad6c8a0d1bde5562945c7f4181925499",
  "bytecode": "0x60c06040526003805461ffff191660149081179091556032600455600a6012819055600560138190559091556015553480156200003b57600080fd5b5060405162005936380380620059368339810160408190526200005e9162000115565b81816001600160a01b038116620000c65760405162461bcd60e51b815260206004820152602260248201527f506c656173652070726f766964652076616c696420726f6c6573206164647265604482015261737360f01b606482015260840160405180910390fd5b6001600160601b0319606091821b811660805291901b1660a0525050606e6006556014600b5561012c6005556200014c565b80516001600160a01b03811681146200011057600080fd5b919050565b6000806040838503121562000128578182fd5b6200013383620000f8565b91506200014360208401620000f8565b90509250929050565b60805160601c60a05160601c61576a620001cc600039600081816103ae0152818161098301528181610dea0152818161173a01528181611f32015281816120c001528181612847015281816149830152614aef0152600081816104c2015281816107ef0152818161157601528181612a530152612aec015261576a6000f3fe608060405234801561001057600080fd5b506004361061030a5760003560e01c8063519bda851161019c578063a53ac0d9116100ee578063d0eb665311610097578063e0f3871f11610071578063e0f3871f14610764578063e9c3f77d14610784578063f99fd97c146107ad5761030a565b8063d0eb66531461072b578063d510c5351461073e578063db2d904d146107515761030a565b8063badb5048116100c8578063badb50481461068b578063bc44dcbc146106f8578063c73afac2146107185761030a565b8063a53ac0d91461064f578063a75697a514610658578063a985994b146106785761030a565b806379575b2311610150578063a00891591161012a578063a008915914610616578063a17ab52714610629578063a37189191461063c5761030a565b806379575b23146105cc5780637a1a04df146105df5780637d100e841461060d5761030a565b8063538edb2911610181578063538edb29146105a757806354554b58146105b05780636585b5a6146105c35761030a565b8063519bda851461058b57806352a664d9146105945761030a565b80632b23f85711610260578063409fdb7211610209578063498d55eb116101e3578063498d55eb1461055c5780634aa4aca31461056f5780634cb77662146105785761030a565b8063409fdb7214610505578063447d52ba1461052657806347788cd0146105395761030a565b80633500aa0b1161023a5780633500aa0b14610495578063392f5f64146104bd5780633ed456fa146104e45761030a565b80632b23f857146104705780632febaa7414610483578063320d2fa01461048c5761030a565b80631d47e4a3116102c25780631f692a641161029c5780631f692a64146103e8578063204120bc146103fb57806320c27126146104505761030a565b80631d47e4a3146103835780631d84cc18146103965780631f1cb62b146103a95761030a565b8063093a483a116102f3578063093a483a1461033757806310d584341461035d57806316317e7e146103705761030a565b8063071060a61461030f57806307c2017514610324575b600080fd5b61032261031d366004615385565b6107c0565b005b6103226103323660046151e2565b61089f565b61034a61034536600461518a565b61097f565b6040519081526020015b60405180910390f35b61032261036b366004615385565b610a1e565b61032261037e366004615385565b610aa1565b61032261039136600461518a565b610b1f565b6103226103a4366004615130565b610c00565b6103d07f000000000000000000000000000000000000000000000000000000000000000081565b6040516001600160a01b039091168152602001610354565b61034a6103f636600461505e565b610cc1565b61043061040936600461505e565b60026020526000908152604090208054600182015460038301546005909301549192909184565b604080519485526020850193909352918301526060820152608001610354565b61034a61045e36600461505e565b600a6020526000908152604090205481565b61032261047e3660046152d0565b610cf6565b61034a600b5481565b61034a60065481565b6104a86104a3366004615096565b611065565b60408051928352602083019190915201610354565b6103d07f000000000000000000000000000000000000000000000000000000000000000081565b6003546104f29061ffff1681565b60405161ffff9091168152602001610354565b61051861051336600461505e565b6113c0565b60405161035492919061544d565b6103226105343660046153b5565b611537565b61054c61054736600461505e565b611628565b6040519015158152602001610354565b61032261056a3660046150f0565b61168f565b61034a60135481565b61034a61058636600461518a565b611736565b61034a60045481565b61034a6105a23660046150f0565b6117d2565b61034a60145481565b6103226105be366004615385565b611906565b61034a60125481565b6103226105da366004615385565b611984565b61054c6105ed36600461518a565b600160209081526000928352604080842090915290825290205460ff1681565b61034a60155481565b610322610624366004615363565b611a02565b61034a61063736600461505e565b611a93565b61032261064a366004615385565b611abb565b61034a60055481565b61034a61066636600461505e565b60106020526000908152604090205481565b61034a6106863660046151e2565b611b39565b6106cd61069936600461505e565b601160205260009081526040902080546001820154600283015460039093015491926001600160a01b039182169290911684565b604080519485526001600160a01b039384166020860152840191909152166060820152608001610354565b61034a61070636600461505e565b60096020526000908152604090205481565b610322610726366004615385565b612296565b6103226107393660046150f0565b612314565b61051861074c36600461505e565b6123b5565b61032261075f36600461505e565b6125f9565b61034a61077236600461505e565b60086020526000908152604090205481565b6103d0610792366004615385565b6000602081905290815260409020546001600160a01b031681565b6103226107bb366004615385565b612727565b6040517fb4ed0b6d000000000000000000000000000000000000000000000000000000008152600481018290527f00000000000000000000000000000000000000000000000000000000000000006001600160a01b03169063b4ed0b6d9060240160206040518083038186803b15801561083957600080fd5b505afa15801561084d573d6000803e3d6000fd5b505050506040513d601f19601f82011682018060405250810190610871919061507a565b60009182526020829052604090912080546001600160a01b0319166001600160a01b03909216919091179055565b60005b808251111561097b5760008282815181106108cd57634e487b7160e01b600052603260045260246000fd5b60200260200101519050600060116000836001600160a01b03166001600160a01b0316815260200190815260200160002090506013548160000154610912919061553f565b43111561096657610922816127a5565b506001600160a01b03821660009081526011602052604081208181556001810180546001600160a01b03199081169091556002820192909255600301805490911690555b50508080610973906156d8565b9150506108a2565b5050565b60007f00000000000000000000000000000000000000000000000000000000000000006001600160a01b0316836001600160a01b031614156109c2575080610a18565b6001600160a01b03831660009081526002602052604090206001808201546109e99161553f565b6109f56006600a6155bd565b610a0090606461568b565b610a0a908561568b565b610a149190615557565b9150505b92915050565b33610a27612a4f565b6001600160a01b03161480610a4b575033610a40612ae8565b6001600160a01b0316145b610a9c5760405162461bcd60e51b815260206004820152601e60248201527f526f6c65733a2063616c6c6572206973206e6f7420746865206f776e6572000060448201526064015b60405180910390fd5b601555565b33610aaa612a4f565b6001600160a01b03161480610ace575033610ac3612ae8565b6001600160a01b0316145b610b1a5760405162461bcd60e51b815260206004820152601e60248201527f526f6c65733a2063616c6c6572206973206e6f7420746865206f776e657200006044820152606401610a93565b600655565b33610b28612a4f565b6001600160a01b03161480610b4c575033610b41612ae8565b6001600160a01b0316145b80610b7257503360009081526001602090815260408083206009845290915290205460ff165b610be45760405162461bcd60e51b815260206004820152603960248201527f43616c6c6572206973206e6f7420746865206f776e65722c206578656375746f60448201527f72206f7220617574686f72697a656420616374697661746f72000000000000006064820152608401610a93565b6001600160a01b03909116600090815260086020526040902055565b3360009081526001602090815260408083206004845290915290205460ff16610c7e5760405162461bcd60e51b815260206004820152602a60248201527f43616c6c696e6720636f6e7472616374206e6f7420617574686f72697a6564206044820152691d1bc819195c1bdcda5d60b21b6064820152608401610a93565b6001600160a01b0385166000908152600760205260409020610ca1818686612b59565b610cac818484612c2a565b610cb7818484612d57565b4390555050505050565b6001600160a01b0381166000908152600760205260408120610ced600182016002830160038401612ee9565b9150505b919050565b33610cff612a4f565b6001600160a01b03161480610d23575033610d18612ae8565b6001600160a01b0316145b80610d4957503360009081526001602090815260408083206009845290915290205460ff165b610dbb5760405162461bcd60e51b815260206004820152603960248201527f43616c6c6572206973206e6f7420746865206f776e65722c206578656375746f60448201527f72206f7220617574686f72697a656420616374697661746f72000000000000006064820152608401610a93565b600081600081518110610dde57634e487b7160e01b600052603260045260246000fd5b602002602001015190507f00000000000000000000000000000000000000000000000000000000000000006001600160a01b0316816001600160a01b031614611060576001600160a01b03811660009081526002602081815260409092206003810186905584519092610e579284019190860190614f2d565b50825167ffffffffffffffff811115610e8057634e487b7160e01b600052604160045260246000fd5b604051908082528060200260200182016040528015610ea9578160200160208202803683370190505b508051610ec0916004840191602090910190614f2d565b506000805b8060018651610ed491906156aa565b1115610f485760008160028751610eeb91906156aa565b610ef591906156aa565b610f0090600861568b565b878360208110610f2057634e487b7160e01b600052603260045260246000fd5b1a60f81b6001600160f81b031916901c92909217915080610f40816156d8565b915050610ec5565b506005820181905560005b8085511115610ffa57846001828751610f6c91906156aa565b610f7691906156aa565b81518110610f9457634e487b7160e01b600052603260045260246000fd5b6020026020010151836004018281548110610fbf57634e487b7160e01b600052603260045260246000fd5b600091825260209091200180546001600160a01b0319166001600160a01b039290921691909117905580610ff2816156d8565b915050610f53565b50600061101e61100c6006600a6155bd565b61101790606461568b565b8787612f6d565b50905060008160008151811061104457634e487b7160e01b600052603260045260246000fd5b6020026020010151905061105b84826103e8613293565b505050505b505050565b33600090815260016020908152604080832060048452909152812054819060ff166110f85760405162461bcd60e51b815260206004820152603960248201527f43616c6c696e6720636f6e7472616374206973206e6f7420616e20617574686f60448201527f72697a6564206d617267696e20747261646572206167656e74000000000000006064820152608401610a93565b6001600160a01b03808816600090815260076020908152604080832093891683526002840190915290205415611189576001600160a01b038616600090815260028201602052604090205461114e9085906132dc565b925061115b8187856132f4565b6001600160a01b038616600090815260096020526040812080548592906111839084906156aa565b90915550505b6001600160a01b0387166000908152600a6020526040812080548792906111b19084906156aa565b909155506111c1905083856156aa565b6001600160a01b0387166000908152600a6020526040812080549091906111e990849061553f565b90915550506001600160a01b0386166000908152600a602090815260408083205460089092529091205410156112875760405162461bcd60e51b815260206004820152603960248201527f457863656564696e6720676c6f62616c206578706f737572652063617020746f60448201527f20746f6b656e202d2d2074727920616761696e206c61746572000000000000006064820152608401610a93565b6001600160a01b038716600090815260058201602052604090205485908111156113a757506001600160a01b03871660009081526005820160205260409020546112d181876156aa565b6001600160a01b0389166000908152600960205260408120805492955085929091906112fe90849061553f565b90915550506001600160a01b038816600090815260096020908152604080832054600890925290912054101561139c5760405162461bcd60e51b815260206004820152603960248201527f457863656564696e6720676c6f62616c206578706f737572652063617020746f60448201527f20746f6b656e202d2d2074727920616761696e206c61746572000000000000006064820152608401610a93565b6113a78289856135aa565b6113b482898984896138b0565b50509550959350505050565b6001600160a01b03811660009081526007602090815260409182902060048101805484518185028101850190955280855260609485949092919083018282801561143357602002820191906000526020600020905b81546001600160a01b03168152600190910190602001808311611415575b5050506004840154929550505067ffffffffffffffff81111561146657634e487b7160e01b600052604160045260246000fd5b60405190808252806020026020018201604052801561148f578160200160208202803683370190505b50915060005b80845111156115305760008482815181106114c057634e487b7160e01b600052603260045260246000fd5b60200260200101519050826005016000826001600160a01b03166001600160a01b031681526020019081526020016000205484838151811061151257634e487b7160e01b600052603260045260246000fd5b60209081029190910101525080611528816156d8565b915050611495565b5050915091565b6040517f93552a3d000000000000000000000000000000000000000000000000000000008152600481018390526001600160a01b0382811660248301527f000000000000000000000000000000000000000000000000000000000000000016906393552a3d9060440160206040518083038186803b1580156115b857600080fd5b505afa1580156115cc573d6000803e3d6000fd5b505050506040513d601f19601f820116820180604052508101906115f091906152b0565b6001600160a01b0391909116600090815260016020908152604080832094835293905291909120805460ff1916911515919091179055565b6001600160a01b038116600090815260076020526040812081611655600183016002840160038501612ee9565b905060006116698360040184600501613903565b905081600654611679919061568b565b61168482606461568b565b101595945050505050565b3360009081526001602090815260408083206004845290915290205460ff1661170d5760405162461bcd60e51b815260206004820152602a60248201527f43616c6c696e6720636f6e7472616374206e6f7420617574686f72697a6564206044820152691d1bc819195c1bdcda5d60b21b6064820152608401610a93565b6001600160a01b0383166000908152600760205260409020611730818484612c2a565b50505050565b60007f00000000000000000000000000000000000000000000000000000000000000006001600160a01b0316836001600160a01b03161415611779575080610a18565b6001600160a01b0383166000908152600260205260409020600354815461ffff909116906117a790436156aa565b11806117b557506001810154155b156117c3576117c38161398e565b6001808201546109e99161553f565b3360009081526001602090815260408083206004845290915281205460ff166118505760405162461bcd60e51b815260206004820152602a60248201527f43616c6c696e6720636f6e7472616374206e6f7420617574686f72697a6564206044820152691d1bc819195c1bdcda5d60b21b6064820152608401610a93565b6001600160a01b038085166000908152600760209081526040808320438155938716835260028401909152902054156118e4576001600160a01b03841660009081526002820160205260409020546118a99084906132dc565b91506118b68185846132f4565b6001600160a01b038416600090815260096020526040812080548492906118de9084906156aa565b90915550505b60006118f083856156aa565b90506118fd828683612b59565b50509392505050565b3361190f612a4f565b6001600160a01b03161480611933575033611928612ae8565b6001600160a01b0316145b61197f5760405162461bcd60e51b815260206004820152601e60248201527f526f6c65733a2063616c6c6572206973206e6f7420746865206f776e657200006044820152606401610a93565b600455565b3361198d612a4f565b6001600160a01b031614806119b15750336119a6612ae8565b6001600160a01b0316145b6119fd5760405162461bcd60e51b815260206004820152601e60248201527f526f6c65733a2063616c6c6572206973206e6f7420746865206f776e657200006044820152606401610a93565b600555565b33611a0b612a4f565b6001600160a01b03161480611a2f575033611a24612ae8565b6001600160a01b0316145b611a7b5760405162461bcd60e51b815260206004820152601e60248201527f526f6c65733a2063616c6c6572206973206e6f7420746865206f776e657200006044820152606401610a93565b6003805461ffff191661ffff92909216919091179055565b6001600160a01b0381166000908152600760205260408120610ced6004820160058301613903565b33611ac4612a4f565b6001600160a01b03161480611ae8575033611add612ae8565b6001600160a01b0316145b611b345760405162461bcd60e51b815260206004820152601e60248201527f526f6c65733a2063616c6c6572206973206e6f7420746865206f776e657200006044820152606401610a93565b601355565b6000333214611bb05760405162461bcd60e51b815260206004820152603a60248201527f43757272656e746c79206e6f20696e7465726d656469617269657320616c6c6f60448201527f77656420666f7220746869732066756e6374696f6e2063616c6c0000000000006064820152608401610a93565b6000611bed606b60009081526020527f2dc7a963308417ad45132da282495eb244f38a7db03940a4d808be607669c622546001600160a01b031690565b6040517f7b23cbce0000000000000000000000000000000000000000000000000000000081523360048201526001600160a01b039190911690637b23cbce90602401602060405180830381600087803b158015611c4957600080fd5b505af1158015611c5d573d6000803e3d6000fd5b505050506040513d601f19601f82011682018060405250810190611c8191906152b0565b905060008180611c945750611c94613a49565b9050611ca08483613b29565b92506000611cac61404a565b90506000611cb8614126565b90508160646014546064611ccc919061553f565b611cd6908461568b565b611ce09190615557565b1115611d49577f3555ffae7677eb42103f0b9e11b61c758f452fae446684dec7a363dd38ab58fc8260646014546064611d19919061553f565b611d23908561568b565b611d2d9190615557565b611d3791906156aa565b60405190815260200160405180910390a15b600083611dfa57606b60009081526020527f2dc7a963308417ad45132da282495eb244f38a7db03940a4d808be607669c622546001600160a01b03166001600160a01b0316631a38de1d6040518163ffffffff1660e01b8152600401602060405180830381600087803b158015611dbf57600080fd5b505af1158015611dd3573d6000803e3d6000fd5b505050506040513d601f19601f82011682018060405250810190611df7919061507a565b90505b60005b600f54811015612044576000600f8281548110611e2a57634e487b7160e01b600052603260045260246000fd5b60009182526020808320909101546001600160a01b031680835260079091526040822090925090611e5a826141ff565b90506000611e6783614211565b90506000606460145483611e7b919061568b565b611e859190615557565b9050611e91818d61553f565b9b5089611ee6576001600160a01b03858116600090815260116020526040902060028101839055600381018054336001600160a01b031991821617909155438255600190910180549091169189169190911790555b611ef0828261553f565b8310611fe757606560009081526020527f4a7203f705e51df4a56139a9b86b4a0970bed7ab7a3446eaffe2289989c1645c546001600160a01b031663d9caed127f00000000000000000000000000000000000000000000000000000000000000008784611f5d87896156aa565b611f6791906156aa565b6040517fffffffff0000000000000000000000000000000000000000000000000000000060e086901b1681526001600160a01b0393841660048201529290911660248301526044820152606401600060405180830381600087803b158015611fce57600080fd5b505af1158015611fe2573d6000803e3d6000fd5b505050505b6040516001600160a01b03861681527f1d2cc4c8661a04a00b4e727426220501b36d85bb330947642c2d4320667028cf9060200160405180910390a161202c84614227565b5050505050808061203c906156d8565b915050611dfd565b506064866012546063612057919061568b565b612061919061553f565b61206b9190615557565b601255831561213457606560009081526020527f4a7203f705e51df4a56139a9b86b4a0970bed7ab7a3446eaffe2289989c1645c546001600160a01b0316604051636ce5768960e11b81526001600160a01b037f00000000000000000000000000000000000000000000000000000000000000008116600483015233602483015260448201899052919091169063d9caed1290606401600060405180830381600087803b15801561211b57600080fd5b505af115801561212f573d6000803e3d6000fd5b505050505b6000612171606b60009081526020527f2dc7a963308417ad45132da282495eb244f38a7db03940a4d808be607669c622546001600160a01b031690565b6001600160a01b0316631a38de1d6040518163ffffffff1660e01b8152600401602060405180830381600087803b1580156121ab57600080fd5b505af11580156121bf573d6000803e3d6000fd5b505050506040513d601f19601f820116820180604052508101906121e3919061507a565b9050851561225d576001600160a01b03811660009081526010602052604090205487101561223e576001600160a01b038116600090815260106020526040812080548992906122339084906156aa565b909155506122589050565b6001600160a01b0381166000908152601060205260408120555b61228b565b6001600160a01b0381166000908152601060205260408120805489929061228590849061553f565b90915550505b505050505050919050565b3361229f612a4f565b6001600160a01b031614806122c35750336122b8612ae8565b6001600160a01b0316145b61230f5760405162461bcd60e51b815260206004820152601e60248201527f526f6c65733a2063616c6c6572206973206e6f7420746865206f776e657200006044820152606401610a93565b601455565b3360009081526001602090815260408083206004845290915290205460ff166123925760405162461bcd60e51b815260206004820152602a60248201527f43616c6c696e6720636f6e7472616374206e6f7420617574686f72697a6564206044820152691d1bc819195c1bdcda5d60b21b6064820152608401610a93565b6001600160a01b0383166000908152600760205260409020611730818484612d57565b6001600160a01b03811660009081526007602090815260409182902060018101805484518185028101850190955280855260609485949092919083018282801561242857602002820191906000526020600020905b81546001600160a01b0316815260019091019060200180831161240a575b5050506001840154929550505067ffffffffffffffff81111561245b57634e487b7160e01b600052604160045260246000fd5b604051908082528060200260200182016040528015612484578160200160208202803683370190505b50915060005b80845111156115305760008482815181106124b557634e487b7160e01b600052603260045260246000fd5b602002602001015190506124fa606660009081526020527f422cccb7cea5c0e46f340bb7b21b81debac329f72e31669c20ff0f3a05cc2b5b546001600160a01b031690565b6001600160a01b03828116600081815260028701602090815260408083205460038a01909252918290205491517f76668b670000000000000000000000000000000000000000000000000000000081526004810191909152602481019290925260448201529116906376668b679060640160206040518083038186803b15801561258357600080fd5b505afa158015612597573d6000803e3d6000fd5b505050506040513d601f19601f820116820180604052508101906125bb919061539d565b8483815181106125db57634e487b7160e01b600052603260045260246000fd5b602090810291909101015250806125f1816156d8565b91505061248a565b3360009081526001602090815260408083206004845290915290205460ff1661268a5760405162461bcd60e51b815260206004820152603960248201527f43616c6c696e6720636f6e7472616374206973206e6f7420616e20617574686f60448201527f72697a6564206d617267696e20747261646572206167656e74000000000000006064820152608401610a93565b6001600160a01b03811660009081526007602052604090206126ab81614211565b1561271e5760405162461bcd60e51b815260206004820152602b60248201527f43616e2774206c69717569646174652063757272656e746c7920626f72726f7760448201527f696e67206163636f756e740000000000000000000000000000000000000000006064820152608401610a93565b61097b81614227565b33612730612a4f565b6001600160a01b03161480612754575033612749612ae8565b6001600160a01b0316145b6127a05760405162461bcd60e51b815260206004820152601e60248201527f526f6c65733a2063616c6c6572206973206e6f7420746865206f776e657200006044820152606401610a93565b600b55565b600281015460009015610cf15781546000906127cd906127c590436156aa565b6013546132dc565b905060006013548285600201546127e4919061568b565b6127ee9190615557565b905061282b606560009081526020527f4a7203f705e51df4a56139a9b86b4a0970bed7ab7a3446eaffe2289989c1645c546001600160a01b031690565b6003850154604051636ce5768960e11b81526001600160a01b037f00000000000000000000000000000000000000000000000000000000000000008116600483015291821660248201526044810184905291169063d9caed1290606401600060405180830381600087803b1580156128a257600080fd5b505af11580156128b6573d6000803e3d6000fd5b5050505060006128f7606b60009081526020527f2dc7a963308417ad45132da282495eb244f38a7db03940a4d808be607669c622546001600160a01b031690565b9050600060125483836001600160a01b0316630ad691506040518163ffffffff1660e01b815260040160206040518083038186803b15801561293857600080fd5b505afa15801561294c573d6000803e3d6000fd5b505050506040513d601f19601f82011682018060405250810190612970919061539d565b61297a919061568b565b6129849190615557565b600187015460038801546040517f0a45bc1b0000000000000000000000000000000000000000000000000000000081526001600160a01b039283166004820152602481018490529082166044820152919250831690630a45bc1b90606401602060405180830381600087803b1580156129fc57600080fd5b505af1158015612a10573d6000803e3d6000fd5b505050506040513d601f19601f82011682018060405250810190612a34919061539d565b50828660020154612a4591906156aa565b9695505050505050565b60007f00000000000000000000000000000000000000000000000000000000000000006001600160a01b0316638da5cb5b6040518163ffffffff1660e01b815260040160206040518083038186803b158015612aaa57600080fd5b505afa158015612abe573d6000803e3d6000fd5b505050506040513d601f19601f82011682018060405250810190612ae2919061507a565b90505b90565b60007f00000000000000000000000000000000000000000000000000000000000000006001600160a01b031663c34c08e56040518163ffffffff1660e01b8152600401602060405180830381600087803b158015612b4557600080fd5b505af1158015612abe573d6000803e3d6000fd5b612b648383836143b7565b6001600160a01b0382166000908152600a602052604081208054839290612b8c90849061553f565b90915550506001600160a01b0382166000908152600a602090815260408083205460089092529091205410156110605760405162461bcd60e51b815260206004820152603960248201527f457863656564696e6720676c6f62616c206578706f737572652063617020746f60448201527f20746f6b656e202d2d2074727920616761696e206c61746572000000000000006064820152608401610a93565b6001600160a01b03821660009081526009602052604081208054839290612c5290849061553f565b90915550506001600160a01b0382166000908152600a602052604081208054839290612c7f90849061553f565b90915550506001600160a01b03821660009081526009602090815260408083205460089092529091205410801590612cda57506001600160a01b0382166000908152600a602090815260408083205460089092529091205410155b612d4c5760405162461bcd60e51b815260206004820152603960248201527f457863656564696e6720676c6f62616c206578706f737572652063617020746f60448201527f20746f6b656e202d2d2074727920616761696e206c61746572000000000000006064820152608401610a93565b6110608383836135aa565b600b548354612d66919061553f565b4311612e005760405162461bcd60e51b815260206004820152605260248201527f546f2070726576656e742061747461636b7320796f75206d757374207761697460448201527f20756e74696c20796f757220636f6f6c696e67206f666620706572696f64206960648201527f73206f76657220746f2077697468647261770000000000000000000000000000608482015260a401610a93565b6001600160a01b0382166000908152600a602052604081208054839290612e289084906156aa565b90915550506001600160a01b0382166000908152600584016020526040902054612e539082906156aa565b6001600160a01b0383166000908152600585016020526040902055612e778361443e565b6110605760405162461bcd60e51b815260206004820152602660248201527f4163636f756e742062616c616e636520697320746f6f206c6f7720746f20776960448201527f74686472617700000000000000000000000000000000000000000000000000006064820152608401610a93565b8254600090815b818110156118fd576000868281548110612f1a57634e487b7160e01b600052603260045260246000fd5b60009182526020808320909101546001600160a01b031680835290889052604090912054909150612f4d9082908761448a565b612f57908561553f565b9350508080612f65906156d8565b915050612ef0565b606080600283511015612fe85760405162461bcd60e51b815260206004820152602860248201527f556e69737761705374796c654c69623a20746f6b656e2070617468206973207460448201527f6f6f2073686f72740000000000000000000000000000000000000000000000006064820152608401610a93565b825167ffffffffffffffff81111561301057634e487b7160e01b600052604160045260246000fd5b604051908082528060200260200182016040528015613039578160200160208202803683370190505b50915084826001845161304c91906156aa565b8151811061306a57634e487b7160e01b600052603260045260246000fd5b6020026020010181815250506001835161308491906156aa565b67ffffffffffffffff8111156130aa57634e487b7160e01b600052604160045260246000fd5b6040519080825280602002602001820160405280156130d3578160200160208202803683370190505b5090506000600184516130e691906156aa565b90505b801561328a576000846130fd6001846156aa565b8151811061311b57634e487b7160e01b600052603260045260246000fd5b60200260200101519050600085838151811061314757634e487b7160e01b600052603260045260246000fd5b6020026020010151905060008760018561316191906156aa565b6020811061317f57634e487b7160e01b600052603260045260246000fd5b1a60f81b6001600160f81b031916156131a15761319c838361458c565b6131ab565b6131ab838361466a565b905080856131ba6001876156aa565b815181106131d857634e487b7160e01b600052603260045260246000fd5b60200260200101906001600160a01b031690816001600160a01b03168152505060008061320683868661472b565b9150915061323c88878151811061322d57634e487b7160e01b600052603260045260246000fd5b60200260200101518383614808565b886132486001896156aa565b8151811061326657634e487b7160e01b600052603260045260246000fd5b60200260200101818152505050505050508080613282906156c1565b9150506130e9565b50935093915050565b6103e86132a0828461568b565b6132ac836103e86156aa565b85600101546132bb919061568b565b6132c5919061553f565b6132cf9190615557565b8360010181905550505050565b6000818311156132ed575080610a18565b5081610a18565b600080613332606660009081526020527f422cccb7cea5c0e46f340bb7b21b81debac329f72e31669c20ff0f3a05cc2b5b546001600160a01b031690565b6001600160a01b03858116600081815260028901602090815260408083205460038c0190925291829020549151631cd2bf4d60e31b815260048101919091526024810192909252604482015291169063e695fa68906064016040805180830381600087803b1580156133a357600080fd5b505af11580156133b7573d6000803e3d6000fd5b505050506040513d601f19601f820116820180604052508101906133db91906153e4565b909250905060006133ec84846156aa565b6001600160a01b0386166000908152600288016020908152604080832084905560058a019091529020549091506134249085906156aa565b6001600160a01b03861660009081526005880160205260409020558015613467576001600160a01b038516600090815260038701602052604090208290556135a2565b6001600160a01b038516600090815260038701602052604081208190556001870154815b8082111561355b5760008960010182815481106134b857634e487b7160e01b600052603260045260246000fd5b6000918252602090912001546001600160a01b03908116915089168114156134e35760019350613548565b831561354857808a6001016001846134fb91906156aa565b8154811061351957634e487b7160e01b600052603260045260246000fd5b9060005260206000200160006101000a8154816001600160a01b0302191690836001600160a01b031602179055505b5080613553816156d8565b91505061348b565b508760010180548061357d57634e487b7160e01b600052603160045260246000fd5b600082815260209020810160001990810180546001600160a01b031916905501905550505b505050505050565b6001600160a01b03821660009081526003840160205260409020546136f9576001838101805491820181556000908152602090200180546001600160a01b0319166001600160a01b038416179055613633606660009081526020527f422cccb7cea5c0e46f340bb7b21b81debac329f72e31669c20ff0f3a05cc2b5b546001600160a01b031690565b6040517f46c87f800000000000000000000000000000000000000000000000000000000081526001600160a01b03848116600483015291909116906346c87f8090602401602060405180830381600087803b15801561369157600080fd5b505af11580156136a5573d6000803e3d6000fd5b505050506040513d601f19601f820116820180604052508101906136c9919061539d565b6001600160a01b03831660009081526003850160209081526040808320939093556002860190522081905561382a565b600080613737606660009081526020527f422cccb7cea5c0e46f340bb7b21b81debac329f72e31669c20ff0f3a05cc2b5b546001600160a01b031690565b6001600160a01b03858116600081815260028901602090815260408083205460038c0190925291829020549151631cd2bf4d60e31b815260048101919091526024810192909252604482015291169063e695fa68906064016040805180830381600087803b1580156137a857600080fd5b505af11580156137bc573d6000803e3d6000fd5b505050506040513d601f19601f820116820180604052508101906137e091906153e4565b6001600160a01b03861660009081526003880160205260409020819055909250905061380c838361553f565b6001600160a01b038516600090815260028701602052604090205550505b6138358383836143b7565b61383e8361443e565b6110605760405162461bcd60e51b815260206004820152602260248201527f43616e277420626f72726f773a20696e73756666696369656e742062616c616e60448201527f63650000000000000000000000000000000000000000000000000000000000006064820152608401610a93565b6001600160a01b03841660009081526005860160205260409020546138d69083906156aa565b6001600160a01b03851660009081526005870160205260409020556138fc8584836143b7565b5050505050565b8154600090815b8181101561398657600085828154811061393457634e487b7160e01b600052603260045260246000fd5b60009182526020808320909101546001600160a01b03168083529087905260409091205490915061396690829061097f565b613970908561553f565b935050808061397e906156d8565b91505061390a565b505092915050565b6000613a1161399f6006600a6155bd565b6139aa90606461568b565b836003015484600201805480602002602001604051908101604052809291908181526020018280548015613a0757602002820191906000526020600020905b81546001600160a01b031681526001909101906020018083116139e9575b5050505050612f6d565b50905061097b8282600081518110613a3957634e487b7160e01b600052603260045260246000fd5b6020026020010151600454613293565b600080613a87606b60009081526020527f2dc7a963308417ad45132da282495eb244f38a7db03940a4d808be607669c622546001600160a01b031690565b6001600160a01b031663b0411f466040518163ffffffff1660e01b8152600401604080518083038186803b158015613abe57600080fd5b505afa158015613ad2573d6000803e3d6000fd5b505050506040513d601f19601f82011682018060405250810190613af691906151b5565b509050601254601554613b09919061568b565b6001600160a01b0390911660009081526010602052604090205411905090565b604080516000808252602082019283905290519091613b4b91600d9190614f2d565b506040805160008152602081019182905251613b6991600e91614f2d565b506040805160008152602081019182905251613b8791600f91614f2d565b5060005b8084511115614043576000848281518110613bb657634e487b7160e01b600052603260045260246000fd5b60200260200101519050600060076000836001600160a01b03166001600160a01b031681526020019081526020016000209050613bf28161494b565b15613ff957600f805460018101825560009182527f8d1108e10bcb7c27dddfc02ed9d693a074039d026cf4ea4240b40f7d581ac8020180546001600160a01b0319166001600160a01b0385161790555b6004820154811015613d62576000826004018281548110613c7357634e487b7160e01b600052603260045260246000fd5b60009182526020808320909101546001600160a01b0316808352600c90915260409091206002810154919250904314613d17576001600160a01b0382166000818152600586016020526040812054600180850191909155818455436002850155600d805491820181559091527fd7b6990105719101dabeb77144f2a3385c8033acd3af97e9423a695e81ad1eb50180546001600160a01b0319169091179055613d4d565b6001600160a01b038216600090815260058501602052604081205460018301805491929091613d4790849061553f565b90915550505b50508080613d5a906156d8565b915050613c42565b5060005b6001820154811015613ff7576000826001018281548110613d9757634e487b7160e01b600052603260045260246000fd5b60009182526020808320909101546001600160a01b0316808352600c9091526040822090925090613df9606660009081526020527f422cccb7cea5c0e46f340bb7b21b81debac329f72e31669c20ff0f3a05cc2b5b546001600160a01b031690565b6001600160a01b03848116600081815260028901602090815260408083205460038c0190925291829020549151631cd2bf4d60e31b815260048101919091526024810192909252604482015291169063e695fa68906064016040805180830381600087803b158015613e6a57600080fd5b505af1158015613e7e573d6000803e3d6000fd5b505050506040513d601f19601f82011682018060405250810190613ea291906153e4565b509050613ee0606660009081526020527f422cccb7cea5c0e46f340bb7b21b81debac329f72e31669c20ff0f3a05cc2b5b546001600160a01b031690565b6040517f2a6a897b0000000000000000000000000000000000000000000000000000000081526001600160a01b038581166004830152602482018490529190911690632a6a897b90604401600060405180830381600087803b158015613f4557600080fd5b505af1158015613f59573d6000803e3d6000fd5b5050505043826002015414613fc75760006001838101829055828455436002850155600e805491820181559091527fbb7b4a454dc3493923482f07822329ed19e8244eff582cc204f8554c3620c3fd0180546001600160a01b0319166001600160a01b038516179055613fe1565b80826000016000828254613fdb919061553f565b90915550505b5050508080613fef906156d8565b915050613d66565b505b6001600160a01b0382166000908152601160205260409020851561402d57614020816127a5565b61402a908661553f565b94505b505050808061403b906156d8565b915050613b8b565b5092915050565b6000805b600d54811015614119576000600d828154811061407b57634e487b7160e01b600052603260045260246000fd5b60009182526020808320909101546001600160a01b0316808352600c9091526040909120805460018201549293509091111561410457805460018201546000916140c4916156aa565b90506140d0838261497f565b6140da908661553f565b6001600160a01b0384166000908152600c6020526040812081815560018101829055600201559450505b50508080614111906156d8565b91505061404e565b50612ae5600d6000614f92565b6000805b600e548110156141f2576000600e828154811061415757634e487b7160e01b600052603260045260246000fd5b60009182526020808320909101546001600160a01b0316808352600c909152604090912060018101548154929350909111156141dd576141aa82826001015483600001546141a591906156aa565b614aeb565b6141b4908561553f565b6001600160a01b0383166000908152600c60205260408120818155600181018290556002015593505b505080806141ea906156d8565b91505061412a565b50612ae5600e6000614f92565b6000610a188260040183600501614c46565b6000610a18826001018360020184600301614cc9565b600181015460005b808211156142dc57600083600101828154811061425c57634e487b7160e01b600052603260045260246000fd5b60009182526020808320909101546001600160a01b031680835260028701825260408084205460099093528320805491945091929061429c9084906156aa565b90915550506001600160a01b03166000908152600284016020908152604080832083905560038601909152812055806142d4816156d8565b91505061422f565b5050600481015460005b8082111561439a57600083600401828154811061431357634e487b7160e01b600052603260045260246000fd5b60009182526020808320909101546001600160a01b0316808352600587018252604080842054600a909352832080549194509192906143539084906156aa565b90915550506001600160a01b031660009081526005840160209081526040808320839055600686019091529020805460ff1916905580614392816156d8565b9150506142e6565b506143a9600183016000614f92565b61097b600483016000614f92565b6001600160a01b038216600090815260068401602052604090205460ff1661440a57600483018054600181018255600091825260209091200180546001600160a01b0319166001600160a01b0384161790555b6001600160a01b03821660009081526005840160205260408120805483929061443490849061553f565b9091555050505050565b60008061444a83614211565b90506000614457846141ff565b905060055482614467919061568b565b606460055461447691906156aa565b614480908361568b565b1015949350505050565b6000806144c8606660009081526020527f422cccb7cea5c0e46f340bb7b21b81debac329f72e31669c20ff0f3a05cc2b5b546001600160a01b031690565b604051630a0c4ed960e11b81526001600160a01b03878116600483015291909116906314189db29060240160206040518083038186803b15801561450b57600080fd5b505afa15801561451f573d6000803e3d6000fd5b505050506040513d601f19601f82011682018060405250810190614543919061539d565b6001600160a01b0386166000908152602085905260408120549192509061456a838761568b565b6145749190615557565b9050614580868261097f565b925050505b9392505050565b600080600061459b8585614d4d565b60408051606084811b6bffffffffffffffffffffffff199081166020808501919091529185901b166034830152825160288184030181526048830190935282519201919091206001600160f81b031960688301527fc0aee478e3658e2610c5f7a4a2e1777ce9e4f2ac0000000000000000000000006069830152607d8201527fe18a34eb0e04b04f7a0ac29a6e80748dca96319b42c54d679cb821dca90c6303609d820152919350915060bd015b60408051601f19818403018152919052805160209091012095945050505050565b60008060006146798585614d4d565b60408051606084811b6bffffffffffffffffffffffff199081166020808501919091529185901b166034830152825160288184030181526048830190935282519201919091206001600160f81b031960688301527f5c69bee701ef814a2b6a3edd4b1652cb9cc5aa6f0000000000000000000000006069830152607d8201527f96e8ac4277198ff8b6f785478aa9a39f403cb768dd02cbee326c3e7da348845f609d820152919350915060bd01614649565b600080600061473a8585614d4d565b509050600080876001600160a01b0316630902f1ac6040518163ffffffff1660e01b815260040160606040518083038186803b15801561477957600080fd5b505afa15801561478d573d6000803e3d6000fd5b505050506040513d601f19601f820116820180604052508101906147b19190615315565b506dffffffffffffffffffffffffffff1691506dffffffffffffffffffffffffffff169150826001600160a01b0316876001600160a01b0316146147f65780826147f9565b81815b90999098509650505050505050565b600080841161487f5760405162461bcd60e51b815260206004820152602c60248201527f556e697377617056324c6962726172793a20494e53554646494349454e545f4f60448201527f55545055545f414d4f554e5400000000000000000000000000000000000000006064820152608401610a93565b60008311801561488f5750600082115b6149015760405162461bcd60e51b815260206004820152602860248201527f556e697377617056324c6962726172793a20494e53554646494349454e545f4c60448201527f49515549444954590000000000000000000000000000000000000000000000006064820152608401610a93565b600061490d858561568b565b614919906103e861568b565b905060006103e561492a87866156aa565b61493491906156aa565b90506149408183615557565b61458090600161553f565b60008061495783614211565b90506000614964846141ff565b905081600654614974919061568b565b61448082606461568b565b60007f00000000000000000000000000000000000000000000000000000000000000006001600160a01b0316836001600160a01b031614156149c2575080610a18565b6001600160a01b038316600090815260026020526040812090614a16606760009081526020527f682158d08466d11c566d5712d4396197fdd67e65be71d83c97ef719ec468867b546001600160a01b031690565b6001600160a01b031663351ae6108560008560030154866002016040518563ffffffff1660e01b8152600401614a4f94939291906154c5565b600060405180830381600087803b158015614a6957600080fd5b505af1158015614a7d573d6000803e3d6000fd5b505050506040513d6000823e601f3d908101601f19168201604052614aa5919081019061521d565b905060008160018351614ab891906156aa565b81518110614ad657634e487b7160e01b600052603260045260246000fd5b60200260200101519050809350505050610a18565b60007f00000000000000000000000000000000000000000000000000000000000000006001600160a01b0316836001600160a01b03161415614b2e575080610a18565b6001600160a01b038316600090815260026020526040812090614b82606760009081526020527f682158d08466d11c566d5712d4396197fdd67e65be71d83c97ef719ec468867b546001600160a01b031690565b6001600160a01b03166353d7ff9f856000198560030154866004016040518563ffffffff1660e01b8152600401614bbc94939291906154c5565b600060405180830381600087803b158015614bd657600080fd5b505af1158015614bea573d6000803e3d6000fd5b505050506040513d6000823e601f3d908101601f19168201604052614c12919081019061521d565b905080600081518110614c3557634e487b7160e01b600052603260045260246000fd5b602002602001015192505050610a18565b8154600090815b81811015613986576000858281548110614c7757634e487b7160e01b600052603260045260246000fd5b60009182526020808320909101546001600160a01b031680835290879052604090912054909150614ca9908290611736565b614cb3908561553f565b9350508080614cc1906156d8565b915050614c4d565b8254600090815b818110156118fd576000868281548110614cfa57634e487b7160e01b600052603260045260246000fd5b60009182526020808320909101546001600160a01b031680835290889052604090912054909150614d2d90829087614e37565b614d37908561553f565b9350508080614d45906156d8565b915050614cd0565b600080826001600160a01b0316846001600160a01b03161415614db25760405162461bcd60e51b815260206004820152601260248201527f4964656e746963616c20616464726573732100000000000000000000000000006044820152606401610a93565b826001600160a01b0316846001600160a01b031610614dd2578284614dd5565b83835b90925090506001600160a01b038216614e305760405162461bcd60e51b815260206004820152600d60248201527f5a65726f206164647265737321000000000000000000000000000000000000006044820152606401610a93565b9250929050565b600080614e75606660009081526020527f422cccb7cea5c0e46f340bb7b21b81debac329f72e31669c20ff0f3a05cc2b5b546001600160a01b031690565b604051630a0c4ed960e11b81526001600160a01b03878116600483015291909116906314189db29060240160206040518083038186803b158015614eb857600080fd5b505afa158015614ecc573d6000803e3d6000fd5b505050506040513d601f19601f82011682018060405250810190614ef0919061539d565b6001600160a01b03861660009081526020859052604081205491925090614f17838761568b565b614f219190615557565b90506145808682611736565b828054828255906000526020600020908101928215614f82579160200282015b82811115614f8257825182546001600160a01b0319166001600160a01b03909116178255602090920191600190910190614f4d565b50614f8e929150614fb3565b5090565b5080546000825590600052602060002090810190614fb09190614fb3565b50565b5b80821115614f8e5760008155600101614fb4565b600082601f830112614fd8578081fd5b81356020614fed614fe88361551b565b6154ea565b80838252828201915082860187848660051b890101111561500c578586fd5b855b858110156150335781356150218161571f565b8452928401929084019060010161500e565b5090979650505050505050565b80516dffffffffffffffffffffffffffff81168114610cf157600080fd5b60006020828403121561506f578081fd5b81356145858161571f565b60006020828403121561508b578081fd5b81516145858161571f565b600080600080600060a086880312156150ad578081fd5b85356150b88161571f565b945060208601356150c88161571f565b935060408601356150d88161571f565b94979396509394606081013594506080013592915050565b600080600060608486031215615104578283fd5b833561510f8161571f565b9250602084013561511f8161571f565b929592945050506040919091013590565b600080600080600060a08688031215615147578081fd5b85356151528161571f565b945060208601356151628161571f565b93506040860135925060608601356151798161571f565b949793965091946080013592915050565b6000806040838503121561519c578182fd5b82356151a78161571f565b946020939093013593505050565b600080604083850312156151c7578182fd5b82516151d28161571f565b6020939093015192949293505050565b6000602082840312156151f3578081fd5b813567ffffffffffffffff811115615209578182fd5b61521584828501614fc8565b949350505050565b6000602080838503121561522f578182fd5b825167ffffffffffffffff811115615245578283fd5b8301601f81018513615255578283fd5b8051615263614fe88261551b565b80828252848201915084840188868560051b8701011115615282578687fd5b8694505b838510156152a4578051835260019490940193918501918501615286565b50979650505050505050565b6000602082840312156152c1578081fd5b81518015158114614585578182fd5b600080604083850312156152e2578182fd5b82359150602083013567ffffffffffffffff8111156152ff578182fd5b61530b85828601614fc8565b9150509250929050565b600080600060608486031215615329578081fd5b61533284615040565b925061534060208501615040565b9150604084015163ffffffff81168114615358578182fd5b809150509250925092565b600060208284031215615374578081fd5b813561ffff81168114614585578182fd5b600060208284031215615396578081fd5b5035919050565b6000602082840312156153ae578081fd5b5051919050565b600080604083850312156153c7578182fd5b8235915060208301356153d98161571f565b809150509250929050565b600080604083850312156153f6578182fd5b505080516020909101519092909150565b6000815480845260208085019450838352808320835b838110156154425781546001600160a01b03168752958201956001918201910161541d565b509495945050505050565b604080825283519082018190526000906020906060840190828701845b828110156154915781516001600160a01b031684526020840193509084019060010161546a565b50505083810382850152845180825285830191830190845b81811015615033578351835292840192918401916001016154a9565b600085825284602083015283604083015260806060830152612a456080830184615407565b604051601f8201601f1916810167ffffffffffffffff8111828210171561551357615513615709565b604052919050565b600067ffffffffffffffff82111561553557615535615709565b5060051b60200190565b60008219821115615552576155526156f3565b500190565b60008261557257634e487b7160e01b81526012600452602481fd5b500490565b80825b600180861161558957506155b4565b81870482111561559b5761559b6156f3565b808616156155a857918102915b9490941c93800261557a565b94509492505050565b600061458560001984846000826155d657506001614585565b816155e357506000614585565b81600181146155f9576002811461560357615630565b6001915050614585565b60ff841115615614576156146156f3565b6001841b91508482111561562a5761562a6156f3565b50614585565b5060208310610133831016604e8410600b8410161715615663575081810a8381111561565e5761565e6156f3565b614585565b6156708484846001615577565b808604821115615682576156826156f3565b02949350505050565b60008160001904831182151516156156a5576156a56156f3565b500290565b6000828210156156bc576156bc6156f3565b500390565b6000816156d0576156d06156f3565b506000190190565b60006000198214156156ec576156ec6156f3565b5060010190565b634e487b7160e01b600052601160045260246000fd5b634e487b7160e01b600052604160045260246000fd5b6001600160a01b0381168114614fb057600080fdfea264697066735822122040a19141cf0d65375ea3b3dfd3d42b204094289e2057010d1e2e4372676f993364736f6c63430008030033",
  "devdoc": {
    "kind": "dev",
    "methods": {
      "canBeLiquidated(address)": {
        "details": "can this trader be liquidated?"
      },
      "getBorrowAmounts(address)": {
        "details": "view function to display account borrowing state"
      },
      "getHoldingAmounts(address)": {
        "details": "view function to display account held assets state"
      },
      "registerBorrow(address,address,uint256)": {
        "details": "gets called by router to affirm borrowing event"
      },
      "registerDeposit(address,address,uint256)": {
        "details": "gets called by router to affirm a deposit to an account"
      },
      "registerLiquidation(address)": {
        "details": "can get called by router to register the dissolution of an account"
      },
      "registerOvercollateralizedBorrow(address,address,uint256,address,uint256)": {
        "details": "overcollateralized borrowing on a cross margin account, called by router"
      },
      "registerTradeAndBorrow(address,address,address,uint256,uint256)": {
        "details": "gets called by router to register a trade and borrow and extinguish as necessary"
      },
      "registerWithdrawal(address,address,uint256)": {
        "details": "gets called by router to affirm withdrawal of tokens from account"
      },
      "setCoolingOffPeriod(uint256)": {
        "details": "setter for cooling off period for withdrawing funds after deposit"
      },
      "setLeverage(uint256)": {
        "details": "admin function to set leverage"
      },
      "setLiquidationThresholdPercent(uint256)": {
        "details": "admin function to set liquidation threshold"
      },
      "setTokenCap(address,uint256)": {
        "details": "admin function to set the token cap"
      },
      "viewHoldingsInPeg(address)": {
        "details": "total of assets of account, expressed in reference currency"
      },
      "viewLoanInPeg(address)": {
        "details": "view function to get loan amount in peg"
      }
    },
    "version": 1
  },
  "userdoc": {
    "kind": "user",
    "methods": {
      "disburseLiqStakeAttacks(address[])": {
        "notice": "Disburse liquidity stake attacks"
      },
      "getCurrentPriceInPeg(address,uint256)": {
        "notice": "Get current price of token in peg"
      },
      "liquidate(address[])": {
        "notice": "called by maintenance stakers to liquidate accounts below liquidation threshold"
      },
      "priceUpdateWindow()": {
        "notice": "update window in blocks"
      },
      "setFailureThreshold(uint256)": {
        "notice": "Set failure threshold"
      },
      "setLiqStakeAttackWindow(uint256)": {
        "notice": "Set liquidity stake attack window"
      },
      "setLiquidationPath(bytes32,address[])": {
        "notice": "add path from token to current liquidation peg"
      },
      "setMaintainerCutPercent(uint256)": {
        "notice": "Set maintainer's percent cut"
      },
      "setPriceUpdateWindow(uint16)": {
        "notice": "Set window for price updates"
      },
      "setUpdateRate(uint256)": {
        "notice": "Set rate for updates"
      },
      "viewCurrentPriceInPeg(address,uint256)": {
        "notice": "Get view of current price of token in peg"
      }
    },
    "version": 1
  },
  "storageLayout": {
    "storage": [
      {
        "astId": 11625,
        "contract": "contracts/CrossMarginTrading.sol:CrossMarginTrading",
        "label": "mainCharacterCache",
        "offset": 0,
        "slot": "0",
        "type": "t_mapping(t_uint256,t_address)"
      },
      {
        "astId": 11631,
        "contract": "contracts/CrossMarginTrading.sol:CrossMarginTrading",
        "label": "roleCache",
        "offset": 0,
        "slot": "1",
        "type": "t_mapping(t_address,t_mapping(t_uint256,t_bool))"
      },
      {
        "astId": 11066,
        "contract": "contracts/CrossMarginTrading.sol:CrossMarginTrading",
        "label": "tokenPrices",
        "offset": 0,
        "slot": "2",
        "type": "t_mapping(t_address,t_struct(TokenPrice)11045_storage)"
      },
      {
        "astId": 11070,
        "contract": "contracts/CrossMarginTrading.sol:CrossMarginTrading",
        "label": "priceUpdateWindow",
        "offset": 0,
        "slot": "3",
        "type": "t_uint16"
      },
      {
        "astId": 11073,
        "contract": "contracts/CrossMarginTrading.sol:CrossMarginTrading",
        "label": "UPDATE_RATE_PERMIL",
        "offset": 0,
        "slot": "4",
        "type": "t_uint256"
      },
      {
        "astId": 2575,
        "contract": "contracts/CrossMarginTrading.sol:CrossMarginTrading",
        "label": "leveragePercent",
        "offset": 0,
        "slot": "5",
        "type": "t_uint256"
      },
      {
        "astId": 2578,
        "contract": "contracts/CrossMarginTrading.sol:CrossMarginTrading",
        "label": "liquidationThresholdPercent",
        "offset": 0,
        "slot": "6",
        "type": "t_uint256"
      },
      {
        "astId": 2584,
        "contract": "contracts/CrossMarginTrading.sol:CrossMarginTrading",
        "label": "marginAccounts",
        "offset": 0,
        "slot": "7",
        "type": "t_mapping(t_address,t_struct(CrossMarginAccount)2568_storage)"
      },
      {
        "astId": 2589,
        "contract": "contracts/CrossMarginTrading.sol:CrossMarginTrading",
        "label": "tokenCaps",
        "offset": 0,
        "slot": "8",
        "type": "t_mapping(t_address,t_uint256)"
      },
      {
        "astId": 2594,
        "contract": "contracts/CrossMarginTrading.sol:CrossMarginTrading",
        "label": "totalShort",
        "offset": 0,
        "slot": "9",
        "type": "t_mapping(t_address,t_uint256)"
      },
      {
        "astId": 2599,
        "contract": "contracts/CrossMarginTrading.sol:CrossMarginTrading",
        "label": "totalLong",
        "offset": 0,
        "slot": "10",
        "type": "t_mapping(t_address,t_uint256)"
      },
      {
        "astId": 2601,
        "contract": "contracts/CrossMarginTrading.sol:CrossMarginTrading",
        "label": "coolingOffPeriod",
        "offset": 0,
        "slot": "11",
        "type": "t_uint256"
      },
      {
        "astId": 3490,
        "contract": "contracts/CrossMarginTrading.sol:CrossMarginTrading",
        "label": "liquidationAmounts",
        "offset": 0,
        "slot": "12",
        "type": "t_mapping(t_address,t_struct(Liquidation)3476_storage)"
      },
      {
        "astId": 3493,
        "contract": "contracts/CrossMarginTrading.sol:CrossMarginTrading",
        "label": "sellTokens",
        "offset": 0,
        "slot": "13",
        "type": "t_array(t_address)dyn_storage"
      },
      {
        "astId": 3496,
        "contract": "contracts/CrossMarginTrading.sol:CrossMarginTrading",
        "label": "buyTokens",
        "offset": 0,
        "slot": "14",
        "type": "t_array(t_address)dyn_storage"
      },
      {
        "astId": 3499,
        "contract": "contracts/CrossMarginTrading.sol:CrossMarginTrading",
        "label": "tradersToLiquidate",
        "offset": 0,
        "slot": "15",
        "type": "t_array(t_address)dyn_storage"
      },
      {
        "astId": 3503,
        "contract": "contracts/CrossMarginTrading.sol:CrossMarginTrading",
        "label": "maintenanceFailures",
        "offset": 0,
        "slot": "16",
        "type": "t_mapping(t_address,t_uint256)"
      },
      {
        "astId": 3508,
        "contract": "contracts/CrossMarginTrading.sol:CrossMarginTrading",
        "label": "stakeAttackRecords",
        "offset": 0,
        "slot": "17",
        "type": "t_mapping(t_address,t_struct(AccountLiqRecord)3485_storage)"
      },
      {
        "astId": 3511,
        "contract": "contracts/CrossMarginTrading.sol:CrossMarginTrading",
        "label": "avgLiquidationPerCall",
        "offset": 0,
        "slot": "18",
        "type": "t_uint256"
      },
      {
        "astId": 3514,
        "contract": "contracts/CrossMarginTrading.sol:CrossMarginTrading",
        "label": "liqStakeAttackWindow",
        "offset": 0,
        "slot": "19",
        "type": "t_uint256"
      },
      {
        "astId": 3517,
        "contract": "contracts/CrossMarginTrading.sol:CrossMarginTrading",
        "label": "MAINTAINER_CUT_PERCENT",
        "offset": 0,
        "slot": "20",
        "type": "t_uint256"
      },
      {
        "astId": 3520,
        "contract": "contracts/CrossMarginTrading.sol:CrossMarginTrading",
        "label": "failureThreshold",
        "offset": 0,
        "slot": "21",
        "type": "t_uint256"
      }
    ],
    "types": {
      "t_address": {
        "encoding": "inplace",
        "label": "address",
        "numberOfBytes": "20"
      },
      "t_array(t_address)dyn_storage": {
        "base": "t_address",
        "encoding": "dynamic_array",
        "label": "address[]",
        "numberOfBytes": "32"
      },
      "t_bool": {
        "encoding": "inplace",
        "label": "bool",
        "numberOfBytes": "1"
      },
      "t_bytes32": {
        "encoding": "inplace",
        "label": "bytes32",
        "numberOfBytes": "32"
      },
      "t_mapping(t_address,t_bool)": {
        "encoding": "mapping",
        "key": "t_address",
        "label": "mapping(address => bool)",
        "numberOfBytes": "32",
        "value": "t_bool"
      },
      "t_mapping(t_address,t_mapping(t_uint256,t_bool))": {
        "encoding": "mapping",
        "key": "t_address",
        "label": "mapping(address => mapping(uint256 => bool))",
        "numberOfBytes": "32",
        "value": "t_mapping(t_uint256,t_bool)"
      },
      "t_mapping(t_address,t_struct(AccountLiqRecord)3485_storage)": {
        "encoding": "mapping",
        "key": "t_address",
        "label": "mapping(address => struct CrossMarginLiquidation.AccountLiqRecord)",
        "numberOfBytes": "32",
        "value": "t_struct(AccountLiqRecord)3485_storage"
      },
      "t_mapping(t_address,t_struct(CrossMarginAccount)2568_storage)": {
        "encoding": "mapping",
        "key": "t_address",
        "label": "mapping(address => struct CrossMarginAccount)",
        "numberOfBytes": "32",
        "value": "t_struct(CrossMarginAccount)2568_storage"
      },
      "t_mapping(t_address,t_struct(Liquidation)3476_storage)": {
        "encoding": "mapping",
        "key": "t_address",
        "label": "mapping(address => struct CrossMarginLiquidation.Liquidation)",
        "numberOfBytes": "32",
        "value": "t_struct(Liquidation)3476_storage"
      },
      "t_mapping(t_address,t_struct(TokenPrice)11045_storage)": {
        "encoding": "mapping",
        "key": "t_address",
        "label": "mapping(address => struct TokenPrice)",
        "numberOfBytes": "32",
        "value": "t_struct(TokenPrice)11045_storage"
      },
      "t_mapping(t_address,t_uint256)": {
        "encoding": "mapping",
        "key": "t_address",
        "label": "mapping(address => uint256)",
        "numberOfBytes": "32",
        "value": "t_uint256"
      },
      "t_mapping(t_uint256,t_address)": {
        "encoding": "mapping",
        "key": "t_uint256",
        "label": "mapping(uint256 => address)",
        "numberOfBytes": "32",
        "value": "t_address"
      },
      "t_mapping(t_uint256,t_bool)": {
        "encoding": "mapping",
        "key": "t_uint256",
        "label": "mapping(uint256 => bool)",
        "numberOfBytes": "32",
        "value": "t_bool"
      },
      "t_struct(AccountLiqRecord)3485_storage": {
        "encoding": "inplace",
        "label": "struct CrossMarginLiquidation.AccountLiqRecord",
        "members": [
          {
            "astId": 3478,
            "contract": "contracts/CrossMarginTrading.sol:CrossMarginTrading",
            "label": "blockNum",
            "offset": 0,
            "slot": "0",
            "type": "t_uint256"
          },
          {
            "astId": 3480,
            "contract": "contracts/CrossMarginTrading.sol:CrossMarginTrading",
            "label": "loser",
            "offset": 0,
            "slot": "1",
            "type": "t_address"
          },
          {
            "astId": 3482,
            "contract": "contracts/CrossMarginTrading.sol:CrossMarginTrading",
            "label": "amount",
            "offset": 0,
            "slot": "2",
            "type": "t_uint256"
          },
          {
            "astId": 3484,
            "contract": "contracts/CrossMarginTrading.sol:CrossMarginTrading",
            "label": "stakeAttacker",
            "offset": 0,
            "slot": "3",
            "type": "t_address"
          }
        ],
        "numberOfBytes": "128"
      },
      "t_struct(CrossMarginAccount)2568_storage": {
        "encoding": "inplace",
        "label": "struct CrossMarginAccount",
        "members": [
          {
            "astId": 2545,
            "contract": "contracts/CrossMarginTrading.sol:CrossMarginTrading",
            "label": "lastDepositBlock",
            "offset": 0,
            "slot": "0",
            "type": "t_uint256"
          },
          {
            "astId": 2548,
            "contract": "contracts/CrossMarginTrading.sol:CrossMarginTrading",
            "label": "borrowTokens",
            "offset": 0,
            "slot": "1",
            "type": "t_array(t_address)dyn_storage"
          },
          {
            "astId": 2552,
            "contract": "contracts/CrossMarginTrading.sol:CrossMarginTrading",
            "label": "borrowed",
            "offset": 0,
            "slot": "2",
            "type": "t_mapping(t_address,t_uint256)"
          },
          {
            "astId": 2556,
            "contract": "contracts/CrossMarginTrading.sol:CrossMarginTrading",
            "label": "borrowedYieldQuotientsFP",
            "offset": 0,
            "slot": "3",
            "type": "t_mapping(t_address,t_uint256)"
          },
          {
            "astId": 2559,
            "contract": "contracts/CrossMarginTrading.sol:CrossMarginTrading",
            "label": "holdingTokens",
            "offset": 0,
            "slot": "4",
            "type": "t_array(t_address)dyn_storage"
          },
          {
            "astId": 2563,
            "contract": "contracts/CrossMarginTrading.sol:CrossMarginTrading",
            "label": "holdings",
            "offset": 0,
            "slot": "5",
            "type": "t_mapping(t_address,t_uint256)"
          },
          {
            "astId": 2567,
            "contract": "contracts/CrossMarginTrading.sol:CrossMarginTrading",
            "label": "holdsToken",
            "offset": 0,
            "slot": "6",
            "type": "t_mapping(t_address,t_bool)"
          }
        ],
        "numberOfBytes": "224"
      },
      "t_struct(Liquidation)3476_storage": {
        "encoding": "inplace",
        "label": "struct CrossMarginLiquidation.Liquidation",
        "members": [
          {
            "astId": 3471,
            "contract": "contracts/CrossMarginTrading.sol:CrossMarginTrading",
            "label": "buy",
            "offset": 0,
            "slot": "0",
            "type": "t_uint256"
          },
          {
            "astId": 3473,
            "contract": "contracts/CrossMarginTrading.sol:CrossMarginTrading",
            "label": "sell",
            "offset": 0,
            "slot": "1",
            "type": "t_uint256"
          },
          {
            "astId": 3475,
            "contract": "contracts/CrossMarginTrading.sol:CrossMarginTrading",
            "label": "blockNum",
            "offset": 0,
            "slot": "2",
            "type": "t_uint256"
          }
        ],
        "numberOfBytes": "96"
      },
      "t_struct(TokenPrice)11045_storage": {
        "encoding": "inplace",
        "label": "struct TokenPrice",
        "members": [
          {
            "astId": 11032,
            "contract": "contracts/CrossMarginTrading.sol:CrossMarginTrading",
            "label": "blockLastUpdated",
            "offset": 0,
            "slot": "0",
            "type": "t_uint256"
          },
          {
            "astId": 11034,
            "contract": "contracts/CrossMarginTrading.sol:CrossMarginTrading",
            "label": "tokenPerRefAmount",
            "offset": 0,
            "slot": "1",
            "type": "t_uint256"
          },
          {
            "astId": 11037,
            "contract": "contracts/CrossMarginTrading.sol:CrossMarginTrading",
            "label": "liquidationTokens",
            "offset": 0,
            "slot": "2",
            "type": "t_array(t_address)dyn_storage"
          },
          {
            "astId": 11039,
            "contract": "contracts/CrossMarginTrading.sol:CrossMarginTrading",
            "label": "amms",
            "offset": 0,
            "slot": "3",
            "type": "t_bytes32"
          },
          {
            "astId": 11042,
            "contract": "contracts/CrossMarginTrading.sol:CrossMarginTrading",
            "label": "inverseLiquidationTokens",
            "offset": 0,
            "slot": "4",
            "type": "t_array(t_address)dyn_storage"
          },
          {
            "astId": 11044,
            "contract": "contracts/CrossMarginTrading.sol:CrossMarginTrading",
            "label": "inverseAmms",
            "offset": 0,
            "slot": "5",
            "type": "t_bytes32"
          }
        ],
        "numberOfBytes": "192"
      },
      "t_uint16": {
        "encoding": "inplace",
        "label": "uint16",
        "numberOfBytes": "2"
      },
      "t_uint256": {
        "encoding": "inplace",
        "label": "uint256",
        "numberOfBytes": "32"
      }
    }
  }
}