{
  "address": "0xF50c3f744bd48E64835b426ef19262A452BeA097",
  "abi": [
    {
      "inputs": [
        {
          "internalType": "address",
          "name": "_peg",
          "type": "address"
        },
        {
          "internalType": "address",
          "name": "_roles",
          "type": "address"
        }
      ],
      "stateMutability": "nonpayable",
      "type": "constructor"
    },
    {
      "anonymous": false,
      "inputs": [
        {
          "indexed": false,
          "internalType": "address",
          "name": "account",
          "type": "address"
        }
      ],
      "name": "AccountLiquidated",
      "type": "event"
    },
    {
      "anonymous": false,
      "inputs": [
        {
          "indexed": false,
          "internalType": "uint256",
          "name": "amount",
          "type": "uint256"
        }
      ],
      "name": "LiquidationShortfall",
      "type": "event"
    },
    {
      "inputs": [],
      "name": "MAINTAINER_CUT_PERCENT",
      "outputs": [
        {
          "internalType": "uint256",
          "name": "",
          "type": "uint256"
        }
      ],
      "stateMutability": "view",
      "type": "function"
    },
    {
      "inputs": [],
      "name": "UPDATE_MAX_PEG_AMOUNT",
      "outputs": [
        {
          "internalType": "uint256",
          "name": "",
          "type": "uint256"
        }
      ],
      "stateMutability": "view",
      "type": "function"
    },
    {
      "inputs": [],
      "name": "UPDATE_MIN_PEG_AMOUNT",
      "outputs": [
        {
          "internalType": "uint256",
          "name": "",
          "type": "uint256"
        }
      ],
      "stateMutability": "view",
      "type": "function"
    },
    {
      "inputs": [],
      "name": "UPDATE_RATE_PERMIL",
      "outputs": [
        {
          "internalType": "uint256",
          "name": "",
          "type": "uint256"
        }
      ],
      "stateMutability": "view",
      "type": "function"
    },
    {
      "inputs": [],
      "name": "avgLiquidationPerCall",
      "outputs": [
        {
          "internalType": "uint256",
          "name": "",
          "type": "uint256"
        }
      ],
      "stateMutability": "view",
      "type": "function"
    },
    {
      "inputs": [
        {
          "internalType": "address",
          "name": "trader",
          "type": "address"
        }
      ],
      "name": "canBeLiquidated",
      "outputs": [
        {
          "internalType": "bool",
          "name": "",
          "type": "bool"
        }
      ],
      "stateMutability": "view",
      "type": "function"
    },
    {
      "inputs": [],
      "name": "coolingOffPeriod",
      "outputs": [
        {
          "internalType": "uint256",
          "name": "",
          "type": "uint256"
        }
      ],
      "stateMutability": "view",
      "type": "function"
    },
    {
      "inputs": [
        {
          "internalType": "address[]",
          "name": "liquidatedAccounts",
          "type": "address[]"
        }
      ],
      "name": "disburseLiqStakeAttacks",
      "outputs": [],
      "stateMutability": "nonpayable",
      "type": "function"
    },
    {
      "inputs": [],
      "name": "failureThreshold",
      "outputs": [
        {
          "internalType": "uint256",
          "name": "",
          "type": "uint256"
        }
      ],
      "stateMutability": "view",
      "type": "function"
    },
    {
      "inputs": [
        {
          "internalType": "address",
          "name": "trader",
          "type": "address"
        }
      ],
      "name": "getBorrowAmounts",
      "outputs": [
        {
          "internalType": "address[]",
          "name": "borrowTokens",
          "type": "address[]"
        },
        {
          "internalType": "uint256[]",
          "name": "borrowAmounts",
          "type": "uint256[]"
        }
      ],
      "stateMutability": "view",
      "type": "function"
    },
    {
      "inputs": [
        {
          "internalType": "address",
          "name": "token",
          "type": "address"
        },
        {
          "internalType": "uint256",
          "name": "inAmount",
          "type": "uint256"
        },
        {
          "internalType": "bool",
          "name": "forceCurBlock",
          "type": "bool"
        }
      ],
      "name": "getCurrentPriceInPeg",
      "outputs": [
        {
          "internalType": "uint256",
          "name": "",
          "type": "uint256"
        }
      ],
      "stateMutability": "nonpayable",
      "type": "function"
    },
    {
      "inputs": [
        {
          "internalType": "address",
          "name": "trader",
          "type": "address"
        }
      ],
      "name": "getHoldingAmounts",
      "outputs": [
        {
          "internalType": "address[]",
          "name": "holdingTokens",
          "type": "address[]"
        },
        {
          "internalType": "uint256[]",
          "name": "holdingAmounts",
          "type": "uint256[]"
        }
      ],
      "stateMutability": "view",
      "type": "function"
    },
    {
      "inputs": [],
      "name": "leveragePercent",
      "outputs": [
        {
          "internalType": "uint256",
          "name": "",
          "type": "uint256"
        }
      ],
      "stateMutability": "view",
      "type": "function"
    },
    {
      "inputs": [],
      "name": "liqStakeAttackWindow",
      "outputs": [
        {
          "internalType": "uint256",
          "name": "",
          "type": "uint256"
        }
      ],
      "stateMutability": "view",
      "type": "function"
    },
    {
      "inputs": [
        {
          "internalType": "address[]",
          "name": "liquidationCandidates",
          "type": "address[]"
        }
      ],
      "name": "liquidate",
      "outputs": [
        {
          "internalType": "uint256",
          "name": "maintainerCut",
          "type": "uint256"
        }
      ],
      "stateMutability": "nonpayable",
      "type": "function"
    },
    {
      "inputs": [],
      "name": "liquidationThresholdPercent",
      "outputs": [
        {
          "internalType": "uint256",
          "name": "",
          "type": "uint256"
        }
      ],
      "stateMutability": "view",
      "type": "function"
    },
    {
      "inputs": [
        {
          "internalType": "uint256",
          "name": "",
          "type": "uint256"
        }
      ],
      "name": "mainCharacterCache",
      "outputs": [
        {
          "internalType": "address",
          "name": "",
          "type": "address"
        }
      ],
      "stateMutability": "view",
      "type": "function"
    },
    {
      "inputs": [
        {
          "internalType": "address",
          "name": "",
          "type": "address"
        }
      ],
      "name": "maintenanceFailures",
      "outputs": [
        {
          "internalType": "uint256",
          "name": "",
          "type": "uint256"
        }
      ],
      "stateMutability": "view",
      "type": "function"
    },
    {
      "inputs": [],
      "name": "peg",
      "outputs": [
        {
          "internalType": "address",
          "name": "",
          "type": "address"
        }
      ],
      "stateMutability": "view",
      "type": "function"
    },
    {
      "inputs": [],
      "name": "priceUpdateWindow",
      "outputs": [
        {
          "internalType": "uint16",
          "name": "",
          "type": "uint16"
        }
      ],
      "stateMutability": "view",
      "type": "function"
    },
    {
      "inputs": [
        {
          "internalType": "address",
          "name": "trader",
          "type": "address"
        },
        {
          "internalType": "address",
          "name": "borrowToken",
          "type": "address"
        },
        {
          "internalType": "uint256",
          "name": "borrowAmount",
          "type": "uint256"
        }
      ],
      "name": "registerBorrow",
      "outputs": [],
      "stateMutability": "nonpayable",
      "type": "function"
    },
    {
      "inputs": [
        {
          "internalType": "address",
          "name": "trader",
          "type": "address"
        },
        {
          "internalType": "address",
          "name": "token",
          "type": "address"
        },
        {
          "internalType": "uint256",
          "name": "depositAmount",
          "type": "uint256"
        }
      ],
      "name": "registerDeposit",
      "outputs": [
        {
          "internalType": "uint256",
          "name": "extinguishableDebt",
          "type": "uint256"
        }
      ],
      "stateMutability": "nonpayable",
      "type": "function"
    },
    {
      "inputs": [
        {
          "internalType": "address",
          "name": "trader",
          "type": "address"
        }
      ],
      "name": "registerLiquidation",
      "outputs": [],
      "stateMutability": "nonpayable",
      "type": "function"
    },
    {
      "inputs": [
        {
          "internalType": "address",
          "name": "trader",
          "type": "address"
        },
        {
          "internalType": "address",
          "name": "depositToken",
          "type": "address"
        },
        {
          "internalType": "uint256",
          "name": "depositAmount",
          "type": "uint256"
        },
        {
          "internalType": "address",
          "name": "borrowToken",
          "type": "address"
        },
        {
          "internalType": "uint256",
          "name": "withdrawAmount",
          "type": "uint256"
        }
      ],
      "name": "registerOvercollateralizedBorrow",
      "outputs": [],
      "stateMutability": "nonpayable",
      "type": "function"
    },
    {
      "inputs": [
        {
          "internalType": "address",
          "name": "trader",
          "type": "address"
        },
        {
          "internalType": "address",
          "name": "tokenFrom",
          "type": "address"
        },
        {
          "internalType": "address",
          "name": "tokenTo",
          "type": "address"
        },
        {
          "internalType": "uint256",
          "name": "inAmount",
          "type": "uint256"
        },
        {
          "internalType": "uint256",
          "name": "outAmount",
          "type": "uint256"
        }
      ],
      "name": "registerTradeAndBorrow",
      "outputs": [
        {
          "internalType": "uint256",
          "name": "extinguishableDebt",
          "type": "uint256"
        },
        {
          "internalType": "uint256",
          "name": "borrowAmount",
          "type": "uint256"
        }
      ],
      "stateMutability": "nonpayable",
      "type": "function"
    },
    {
      "inputs": [
        {
          "internalType": "address",
          "name": "trader",
          "type": "address"
        },
        {
          "internalType": "address",
          "name": "withdrawToken",
          "type": "address"
        },
        {
          "internalType": "uint256",
          "name": "withdrawAmount",
          "type": "uint256"
        }
      ],
      "name": "registerWithdrawal",
      "outputs": [],
      "stateMutability": "nonpayable",
      "type": "function"
    },
    {
      "inputs": [
        {
          "internalType": "address",
          "name": "",
          "type": "address"
        },
        {
          "internalType": "uint256",
          "name": "",
          "type": "uint256"
        }
      ],
      "name": "roleCache",
      "outputs": [
        {
          "internalType": "bool",
          "name": "",
          "type": "bool"
        }
      ],
      "stateMutability": "view",
      "type": "function"
    },
    {
      "inputs": [],
      "name": "roles",
      "outputs": [
        {
          "internalType": "contract Roles",
          "name": "",
          "type": "address"
        }
      ],
      "stateMutability": "view",
      "type": "function"
    },
    {
      "inputs": [
        {
          "internalType": "uint256",
          "name": "blocks",
          "type": "uint256"
        }
      ],
      "name": "setCoolingOffPeriod",
      "outputs": [],
      "stateMutability": "nonpayable",
      "type": "function"
    },
    {
      "inputs": [
        {
          "internalType": "uint256",
          "name": "threshFactor",
          "type": "uint256"
        }
      ],
      "name": "setFailureThreshold",
      "outputs": [],
      "stateMutability": "nonpayable",
      "type": "function"
    },
    {
      "inputs": [
        {
          "internalType": "uint256",
          "name": "_leveragePercent",
          "type": "uint256"
        }
      ],
      "name": "setLeverage",
      "outputs": [],
      "stateMutability": "nonpayable",
      "type": "function"
    },
    {
      "inputs": [
        {
          "internalType": "uint256",
          "name": "window",
          "type": "uint256"
        }
      ],
      "name": "setLiqStakeAttackWindow",
      "outputs": [],
      "stateMutability": "nonpayable",
      "type": "function"
    },
    {
      "inputs": [
        {
          "internalType": "bytes32",
          "name": "amms",
          "type": "bytes32"
        },
        {
          "internalType": "address[]",
          "name": "tokens",
          "type": "address[]"
        }
      ],
      "name": "setLiquidationPath",
      "outputs": [],
      "stateMutability": "nonpayable",
      "type": "function"
    },
    {
      "inputs": [
        {
          "internalType": "uint256",
          "name": "threshold",
          "type": "uint256"
        }
      ],
      "name": "setLiquidationThresholdPercent",
      "outputs": [],
      "stateMutability": "nonpayable",
      "type": "function"
    },
    {
      "inputs": [
        {
          "internalType": "uint256",
          "name": "cut",
          "type": "uint256"
        }
      ],
      "name": "setMaintainerCutPercent",
      "outputs": [],
      "stateMutability": "nonpayable",
      "type": "function"
    },
    {
      "inputs": [
        {
          "internalType": "uint16",
          "name": "window",
          "type": "uint16"
        }
      ],
      "name": "setPriceUpdateWindow",
      "outputs": [],
      "stateMutability": "nonpayable",
      "type": "function"
    },
    {
      "inputs": [
        {
          "internalType": "address",
          "name": "token",
          "type": "address"
        },
        {
          "internalType": "uint256",
          "name": "cap",
          "type": "uint256"
        }
      ],
      "name": "setTokenCap",
      "outputs": [],
      "stateMutability": "nonpayable",
      "type": "function"
    },
    {
      "inputs": [
        {
          "internalType": "uint256",
          "name": "amount",
          "type": "uint256"
        }
      ],
      "name": "setUpdateMaxPegAmount",
      "outputs": [],
      "stateMutability": "nonpayable",
      "type": "function"
    },
    {
      "inputs": [
        {
          "internalType": "uint256",
          "name": "amount",
          "type": "uint256"
        }
      ],
      "name": "setUpdateMinPegAmount",
      "outputs": [],
      "stateMutability": "nonpayable",
      "type": "function"
    },
    {
      "inputs": [
        {
          "internalType": "uint256",
          "name": "rate",
          "type": "uint256"
        }
      ],
      "name": "setUpdateRate",
      "outputs": [],
      "stateMutability": "nonpayable",
      "type": "function"
    },
    {
      "inputs": [
        {
          "internalType": "address",
          "name": "",
          "type": "address"
        }
      ],
      "name": "stakeAttackRecords",
      "outputs": [
        {
          "internalType": "uint256",
          "name": "blockNum",
          "type": "uint256"
        },
        {
          "internalType": "address",
          "name": "loser",
          "type": "address"
        },
        {
          "internalType": "uint256",
          "name": "amount",
          "type": "uint256"
        },
        {
          "internalType": "address",
          "name": "stakeAttacker",
          "type": "address"
        }
      ],
      "stateMutability": "view",
      "type": "function"
    },
    {
      "inputs": [
        {
          "internalType": "address",
          "name": "",
          "type": "address"
        }
      ],
      "name": "tokenCaps",
      "outputs": [
        {
          "internalType": "uint256",
          "name": "",
          "type": "uint256"
        }
      ],
      "stateMutability": "view",
      "type": "function"
    },
    {
      "inputs": [
        {
          "internalType": "address",
          "name": "",
          "type": "address"
        }
      ],
      "name": "tokenPrices",
      "outputs": [
        {
          "internalType": "uint256",
          "name": "blockLastUpdated",
          "type": "uint256"
        },
        {
          "internalType": "uint256",
          "name": "tokenPer1k",
          "type": "uint256"
        },
        {
          "internalType": "bytes32",
          "name": "amms",
          "type": "bytes32"
        },
        {
          "internalType": "bytes32",
          "name": "inverseAmms",
          "type": "bytes32"
        }
      ],
      "stateMutability": "view",
      "type": "function"
    },
    {
      "inputs": [
        {
          "internalType": "address",
          "name": "",
          "type": "address"
        }
      ],
      "name": "totalLong",
      "outputs": [
        {
          "internalType": "uint256",
          "name": "",
          "type": "uint256"
        }
      ],
      "stateMutability": "view",
      "type": "function"
    },
    {
      "inputs": [
        {
          "internalType": "address",
          "name": "",
          "type": "address"
        }
      ],
      "name": "totalShort",
      "outputs": [
        {
          "internalType": "uint256",
          "name": "",
          "type": "uint256"
        }
      ],
      "stateMutability": "view",
      "type": "function"
    },
    {
      "inputs": [
        {
          "internalType": "uint256",
          "name": "role",
          "type": "uint256"
        }
      ],
      "name": "updateMainCharacterCache",
      "outputs": [],
      "stateMutability": "nonpayable",
      "type": "function"
    },
    {
      "inputs": [
        {
          "internalType": "uint256",
          "name": "role",
          "type": "uint256"
        },
        {
          "internalType": "address",
          "name": "contr",
          "type": "address"
        }
      ],
      "name": "updateRoleCache",
      "outputs": [],
      "stateMutability": "nonpayable",
      "type": "function"
    },
    {
      "inputs": [
        {
          "internalType": "address",
          "name": "token",
          "type": "address"
        },
        {
          "internalType": "uint256",
          "name": "inAmount",
          "type": "uint256"
        }
      ],
      "name": "viewCurrentPriceInPeg",
      "outputs": [
        {
          "internalType": "uint256",
          "name": "",
          "type": "uint256"
        }
      ],
      "stateMutability": "view",
      "type": "function"
    },
    {
      "inputs": [
        {
          "internalType": "address",
          "name": "trader",
          "type": "address"
        }
      ],
      "name": "viewHoldingsInPeg",
      "outputs": [
        {
          "internalType": "uint256",
          "name": "",
          "type": "uint256"
        }
      ],
      "stateMutability": "view",
      "type": "function"
    },
    {
      "inputs": [
        {
          "internalType": "address",
          "name": "trader",
          "type": "address"
        }
      ],
      "name": "viewLoanInPeg",
      "outputs": [
        {
          "internalType": "uint256",
          "name": "amount",
          "type": "uint256"
        }
      ],
      "stateMutability": "view",
      "type": "function"
    }
  ],
  "transactionHash": "0xac18bd62a32a844ad5550bb67cb7051ba7c2b0ff588405c3c6e22c54058ebb0c",
  "args": [
    "0xd0A1E359811322d97991E03f863a0C30C2cF029C",
    "0xDBFFA0e2638F12Eef78F021E311fC5288880f743"
  ],
  "solcInputHash": "cb1d8f876b87788b952041f3540648ec",
  "bytecode": "0x60c06040526003805461ffff19166008179055605060045561c35060059081556103e8600655600a601481905560158290556016919091556017553480156200004757600080fd5b5060405162005ed238038062005ed28339810160408190526200006a9162000121565b81816001600160a01b038116620000d25760405162461bcd60e51b815260206004820152602260248201527f506c656173652070726f766964652076616c696420726f6c6573206164647265604482015261737360f01b606482015260840160405180910390fd5b6001600160601b0319606091821b811660805291901b1660a0525050606e6008556014600d5561012c60075562000158565b80516001600160a01b03811681146200011c57600080fd5b919050565b6000806040838503121562000134578182fd5b6200013f8362000104565b91506200014f6020840162000104565b90509250929050565b60805160601c60a05160601c615cfa620001d8600039600081816103ed015281816109e701528181610f4f0152818161211c015281816122aa01528181612a3401528181613e660152818161500d015261514601526000818161050a015281816108530152818161173a01528181612f300152612fc90152615cfa6000f3fe608060405234801561001057600080fd5b50600436106103365760003560e01c8063519bda85116101b2578063a53ac0d9116100f9578063d0eb6653116100a2578063e0f3871f1161007c578063e0f3871f146107bf578063e9c3f77d146107df578063f99fd97c14610808578063f9c7aece1461081b57610336565b8063d0eb665314610786578063d510c53514610799578063db2d904d146107ac57610336565b8063badb5048116100d3578063badb5048146106e6578063bc44dcbc14610753578063c73afac21461077357610336565b8063a53ac0d9146106aa578063a75697a5146106b3578063a985994b146106d357610336565b806379575b231161015b578063a008915911610135578063a008915914610671578063a17ab52714610684578063a37189191461069757610336565b806379575b23146106275780637a1a04df1461063a5780637d100e841461066857610336565b806354554b581161018c57806354554b58146105f857806360b3fa401461060b5780636585b5a61461061e57610336565b8063519bda85146105d357806352a664d9146105dc578063538edb29146105ef57610336565b8063299cf2d2116102815780633ed456fa1161022a578063447d52ba11610204578063447d52ba1461058157806347788cd014610594578063498d55eb146105b75780634aa4aca3146105ca57610336565b80633ed456fa1461052c5780633ffc17c01461054d578063409fdb721461056057610336565b8063320d2fa01161025b578063320d2fa0146104d45780633500aa0b146104dd578063392f5f641461050557610336565b8063299cf2d2146104af5780632b23f857146104b85780632febaa74146104cb57610336565b80631d47e4a3116102e35780631f692a64116102bd5780631f692a6414610427578063204120bc1461043a57806320c271261461048f57610336565b80631d47e4a3146103c25780631d84cc18146103d55780631f1cb62b146103e857610336565b806310d584341161031457806310d584341461038957806316317e7e1461039c57806319fa00e1146103af57610336565b8063071060a61461033b57806307c2017514610350578063093a483a14610363575b600080fd5b61034e610349366004615a1b565b610824565b005b61034e61035e366004615887565b610903565b6103766103713660046157ee565b6109e3565b6040519081526020015b60405180910390f35b61034e610397366004615a1b565b610b05565b61034e6103aa366004615a1b565b610b88565b61034e6103bd366004615a1b565b610c06565b61034e6103d03660046157ee565b610c84565b61034e6103e3366004615794565b610d65565b61040f7f000000000000000000000000000000000000000000000000000000000000000081565b6040516001600160a01b039091168152602001610380565b6103766104353660046156c2565b610e26565b61046f6104483660046156c2565b60026020526000908152604090208054600182015460038301546005909301549192909184565b604080519485526020850193909352918301526060820152608001610380565b61037661049d3660046156c2565b600c6020526000908152604090205481565b61037660055481565b61034e6104c6366004615971565b610e5b565b610376600d5481565b61037660085481565b6104f06104eb3660046156fa565b6111ab565b60408051928352602083019190915201610380565b61040f7f000000000000000000000000000000000000000000000000000000000000000081565b60035461053a9061ffff1681565b60405161ffff9091168152602001610380565b61034e61055b366004615a1b565b611506565b61057361056e3660046156c2565b611584565b604051610380929190615ae3565b61034e61058f366004615a4b565b6116fb565b6105a76105a23660046156c2565b6117ec565b6040519015158152602001610380565b61034e6105c5366004615754565b611853565b61037660155481565b61037660045481565b6103766105ea366004615754565b6118fa565b61037660165481565b61034e610606366004615a1b565b611a2e565b610376610619366004615846565b611aac565b61037660145481565b61034e610635366004615a1b565b611b6a565b6105a76106483660046157ee565b600160209081526000928352604080842090915290825290205460ff1681565b61037660175481565b61034e61067f3660046159f9565b611be8565b6103766106923660046156c2565b611c79565b61034e6106a5366004615a1b565b611ca1565b61037660075481565b6103766106c13660046156c2565b60126020526000908152604090205481565b6103766106e1366004615887565b611d1f565b6107286106f43660046156c2565b601360205260009081526040902080546001820154600283015460039093015491926001600160a01b039182169290911684565b604080519485526001600160a01b039384166020860152840191909152166060820152608001610380565b6103766107613660046156c2565b600b6020526000908152604090205481565b61034e610781366004615a1b565b612480565b61034e610794366004615754565b6124fe565b6105736107a73660046156c2565b61259f565b61034e6107ba3660046156c2565b6127e3565b6103766107cd3660046156c2565b600a6020526000908152604090205481565b61040f6107ed366004615a1b565b6000602081905290815260409020546001600160a01b031681565b61034e610816366004615a1b565b612914565b61037660065481565b6040517fb4ed0b6d000000000000000000000000000000000000000000000000000000008152600481018290527f00000000000000000000000000000000000000000000000000000000000000006001600160a01b03169063b4ed0b6d9060240160206040518083038186803b15801561089d57600080fd5b505afa1580156108b1573d6000803e3d6000fd5b505050506040513d601f19601f820116820180604052508101906108d591906156de565b60009182526020829052604090912080546001600160a01b0319166001600160a01b03909216919091179055565b60005b80825111156109df57600082828151811061093157634e487b7160e01b600052603260045260246000fd5b60200260200101519050600060136000836001600160a01b03166001600160a01b03168152602001908152602001600020905060155481600001546109769190615bd5565b4311156109ca5761098681612992565b506001600160a01b03821660009081526013602052604081208181556001810180546001600160a01b03199081169091556002820192909255600301805490911690555b505080806109d790615c5a565b915050610906565b5050565b60007f00000000000000000000000000000000000000000000000000000000000000006001600160a01b0316836001600160a01b03161415610a26575080610aff565b600060026000856001600160a01b03166001600160a01b0316815260200190815260200160002090506000610abc84836003015484600201805480602002602001604051908101604052809291908181526020018280548015610ab257602002820191906000526020600020905b81546001600160a01b03168152600190910190602001808311610a94575b5050505050612c3c565b50905060008160018351610ad09190615c2c565b81518110610aee57634e487b7160e01b600052603260045260246000fd5b602002602001015190508093505050505b92915050565b33610b0e612f2c565b6001600160a01b03161480610b32575033610b27612fc5565b6001600160a01b0316145b610b835760405162461bcd60e51b815260206004820152601e60248201527f526f6c65733a2063616c6c6572206973206e6f7420746865206f776e6572000060448201526064015b60405180910390fd5b601755565b33610b91612f2c565b6001600160a01b03161480610bb5575033610baa612fc5565b6001600160a01b0316145b610c015760405162461bcd60e51b815260206004820152601e60248201527f526f6c65733a2063616c6c6572206973206e6f7420746865206f776e657200006044820152606401610b7a565b600855565b33610c0f612f2c565b6001600160a01b03161480610c33575033610c28612fc5565b6001600160a01b0316145b610c7f5760405162461bcd60e51b815260206004820152601e60248201527f526f6c65733a2063616c6c6572206973206e6f7420746865206f776e657200006044820152606401610b7a565b600655565b33610c8d612f2c565b6001600160a01b03161480610cb1575033610ca6612fc5565b6001600160a01b0316145b80610cd757503360009081526001602090815260408083206009845290915290205460ff165b610d495760405162461bcd60e51b815260206004820152603960248201527f43616c6c6572206973206e6f7420746865206f776e65722c206578656375746f60448201527f72206f7220617574686f72697a656420616374697661746f72000000000000006064820152608401610b7a565b6001600160a01b039091166000908152600a6020526040902055565b3360009081526001602090815260408083206004845290915290205460ff16610de35760405162461bcd60e51b815260206004820152602a60248201527f43616c6c696e6720636f6e7472616374206e6f7420617574686f72697a6564206044820152691d1bc819195c1bdcda5d60b21b6064820152608401610b7a565b6001600160a01b0385166000908152600960205260409020610e06818686613036565b610e11818484613107565b610e1c818484613234565b4390555050505050565b6001600160a01b0381166000908152600960205260408120610e526001820160028301600384016133c6565b9150505b919050565b33610e64612f2c565b6001600160a01b03161480610e88575033610e7d612fc5565b6001600160a01b0316145b80610eae57503360009081526001602090815260408083206009845290915290205460ff165b610f205760405162461bcd60e51b815260206004820152603960248201527f43616c6c6572206973206e6f7420746865206f776e65722c206578656375746f60448201527f72206f7220617574686f72697a656420616374697661746f72000000000000006064820152608401610b7a565b600081600081518110610f4357634e487b7160e01b600052603260045260246000fd5b602002602001015190507f00000000000000000000000000000000000000000000000000000000000000006001600160a01b0316816001600160a01b0316146111a6576001600160a01b03811660009081526002602081815260409092206003810186905584519092610fbc9284019190860190615591565b50825167ffffffffffffffff811115610fe557634e487b7160e01b600052604160045260246000fd5b60405190808252806020026020018201604052801561100e578160200160208202803683370190505b508051611025916004840191602090910190615591565b506000805b80600286516110399190615c2c565b11156110915761104a816008615c0d565b86826020811061106a57634e487b7160e01b600052603260045260246000fd5b1a60f81b6001600160f81b031916901c91909117908061108981615c5a565b91505061102a565b506005820181905560005b8085511115611143578460018287516110b59190615c2c565b6110bf9190615c2c565b815181106110dd57634e487b7160e01b600052603260045260246000fd5b602002602001015183600401828154811061110857634e487b7160e01b600052603260045260246000fd5b600091825260209091200180546001600160a01b0319166001600160a01b03929092169190911790558061113b81615c5a565b91505061109c565b50600061115a683635c9adc5dea00000878761344a565b50905060008160008151811061118057634e487b7160e01b600052603260045260246000fd5b602002602001015190506111a18482683635c9adc5dea000006103e8613739565b505050505b505050565b33600090815260016020908152604080832060048452909152812054819060ff1661123e5760405162461bcd60e51b815260206004820152603960248201527f43616c6c696e6720636f6e7472616374206973206e6f7420616e20617574686f60448201527f72697a6564206d617267696e20747261646572206167656e74000000000000006064820152608401610b7a565b6001600160a01b038088166000908152600960209081526040808320938916835260028401909152902054156112cf576001600160a01b03861660009081526002820160205260409020546112949085906137b0565b92506112a18187856137c8565b6001600160a01b0386166000908152600b6020526040812080548592906112c9908490615c2c565b90915550505b6001600160a01b0387166000908152600c6020526040812080548792906112f7908490615c2c565b9091555061130790508385615c2c565b6001600160a01b0387166000908152600c60205260408120805490919061132f908490615bd5565b90915550506001600160a01b0386166000908152600c6020908152604080832054600a9092529091205410156113cd5760405162461bcd60e51b815260206004820152603960248201527f457863656564696e6720676c6f62616c206578706f737572652063617020746f60448201527f20746f6b656e202d2d2074727920616761696e206c61746572000000000000006064820152608401610b7a565b6001600160a01b038716600090815260058201602052604090205485908111156114ed57506001600160a01b03871660009081526005820160205260409020546114178187615c2c565b6001600160a01b0389166000908152600b6020526040812080549295508592909190611444908490615bd5565b90915550506001600160a01b0388166000908152600b6020908152604080832054600a9092529091205410156114e25760405162461bcd60e51b815260206004820152603960248201527f457863656564696e6720676c6f62616c206578706f737572652063617020746f60448201527f20746f6b656e202d2d2074727920616761696e206c61746572000000000000006064820152608401610b7a565b6114ed828985613a7e565b6114fa8289898489613d84565b50509550959350505050565b3361150f612f2c565b6001600160a01b03161480611533575033611528612fc5565b6001600160a01b0316145b61157f5760405162461bcd60e51b815260206004820152601e60248201527f526f6c65733a2063616c6c6572206973206e6f7420746865206f776e657200006044820152606401610b7a565b600555565b6001600160a01b0381166000908152600960209081526040918290206004810180548451818502810185019095528085526060948594909291908301828280156115f757602002820191906000526020600020905b81546001600160a01b031681526001909101906020018083116115d9575b5050506004840154929550505067ffffffffffffffff81111561162a57634e487b7160e01b600052604160045260246000fd5b604051908082528060200260200182016040528015611653578160200160208202803683370190505b50915060005b80845111156116f457600084828151811061168457634e487b7160e01b600052603260045260246000fd5b60200260200101519050826005016000826001600160a01b03166001600160a01b03168152602001908152602001600020548483815181106116d657634e487b7160e01b600052603260045260246000fd5b602090810291909101015250806116ec81615c5a565b915050611659565b5050915091565b6040517f93552a3d000000000000000000000000000000000000000000000000000000008152600481018390526001600160a01b0382811660248301527f000000000000000000000000000000000000000000000000000000000000000016906393552a3d9060440160206040518083038186803b15801561177c57600080fd5b505afa158015611790573d6000803e3d6000fd5b505050506040513d601f19601f820116820180604052508101906117b49190615955565b6001600160a01b0391909116600090815260016020908152604080832094835293905291909120805460ff1916911515919091179055565b6001600160a01b0381166000908152600960205260408120816118196001830160028401600385016133c6565b9050600061182d8360040184600501613dd7565b90508160085461183d9190615c0d565b611848826064615c0d565b101595945050505050565b3360009081526001602090815260408083206004845290915290205460ff166118d15760405162461bcd60e51b815260206004820152602a60248201527f43616c6c696e6720636f6e7472616374206e6f7420617574686f72697a6564206044820152691d1bc819195c1bdcda5d60b21b6064820152608401610b7a565b6001600160a01b03831660009081526009602052604090206118f4818484613107565b50505050565b3360009081526001602090815260408083206004845290915281205460ff166119785760405162461bcd60e51b815260206004820152602a60248201527f43616c6c696e6720636f6e7472616374206e6f7420617574686f72697a6564206044820152691d1bc819195c1bdcda5d60b21b6064820152608401610b7a565b6001600160a01b03808516600090815260096020908152604080832043815593871683526002840190915290205415611a0c576001600160a01b03841660009081526002820160205260409020546119d19084906137b0565b91506119de8185846137c8565b6001600160a01b0384166000908152600b602052604081208054849290611a06908490615c2c565b90915550505b6000611a188385615c2c565b9050611a25828683613036565b50509392505050565b33611a37612f2c565b6001600160a01b03161480611a5b575033611a50612fc5565b6001600160a01b0316145b611aa75760405162461bcd60e51b815260206004820152601e60248201527f526f6c65733a2063616c6c6572206973206e6f7420746865206f776e657200006044820152606401610b7a565b600455565b6001600160a01b03831660009081526002602052604081208215611b0257600354815461ffff90911690611ae09043615c2c565b1115611af857611af08585613e62565b915050611b63565b611af085856109e3565b6001810154611b1557611af08585613e62565b600354815461ffff90911690611b2b9043615c2c565b1115611b3d57611b3b8585613e62565b505b6001810154611b5585683635c9adc5dea00000615c0d565b611b5f9190615bed565b9150505b9392505050565b33611b73612f2c565b6001600160a01b03161480611b97575033611b8c612fc5565b6001600160a01b0316145b611be35760405162461bcd60e51b815260206004820152601e60248201527f526f6c65733a2063616c6c6572206973206e6f7420746865206f776e657200006044820152606401610b7a565b600755565b33611bf1612f2c565b6001600160a01b03161480611c15575033611c0a612fc5565b6001600160a01b0316145b611c615760405162461bcd60e51b815260206004820152601e60248201527f526f6c65733a2063616c6c6572206973206e6f7420746865206f776e657200006044820152606401610b7a565b6003805461ffff191661ffff92909216919091179055565b6001600160a01b0381166000908152600960205260408120610e526004820160058301613dd7565b33611caa612f2c565b6001600160a01b03161480611cce575033611cc3612fc5565b6001600160a01b0316145b611d1a5760405162461bcd60e51b815260206004820152601e60248201527f526f6c65733a2063616c6c6572206973206e6f7420746865206f776e657200006044820152606401610b7a565b601555565b6000333214611d965760405162461bcd60e51b815260206004820152603a60248201527f43757272656e746c79206e6f20696e7465726d656469617269657320616c6c6f60448201527f77656420666f7220746869732066756e6374696f6e2063616c6c0000000000006064820152608401610b7a565b6000611dd3606b60009081526020527f2dc7a963308417ad45132da282495eb244f38a7db03940a4d808be607669c622546001600160a01b031690565b6040517f7b23cbce0000000000000000000000000000000000000000000000000000000081523360048201526001600160a01b039190911690637b23cbce90602401602060405180830381600087803b158015611e2f57600080fd5b505af1158015611e43573d6000803e3d6000fd5b505050506040513d601f19601f82011682018060405250810190611e679190615955565b905060008180611e7a5750611e7a613fa1565b9050611e868483614081565b92506000611e926145a2565b90506000611e9e61467e565b90508160646016546064611eb29190615bd5565b611ebc9084615c0d565b611ec69190615bed565b1115611f2f577f3555ffae7677eb42103f0b9e11b61c758f452fae446684dec7a363dd38ab58fc8260646016546064611eff9190615bd5565b611f099085615c0d565b611f139190615bed565b611f1d9190615c2c565b60405190815260200160405180910390a15b600083611fe057606b60009081526020527f2dc7a963308417ad45132da282495eb244f38a7db03940a4d808be607669c622546001600160a01b03166001600160a01b0316631a38de1d6040518163ffffffff1660e01b8152600401602060405180830381600087803b158015611fa557600080fd5b505af1158015611fb9573d6000803e3d6000fd5b505050506040513d601f19601f82011682018060405250810190611fdd91906156de565b90505b60005b60115481101561222e5760006011828154811061201057634e487b7160e01b600052603260045260246000fd5b60009182526020808320909101546001600160a01b031680835260099091526040822090925090612042826001614757565b9050600061205183600161476a565b905060006064601654836120659190615c0d565b61206f9190615bed565b905061207b818d615bd5565b9b50896120d0576001600160a01b03858116600090815260136020526040902060028101839055600381018054336001600160a01b031991821617909155438255600190910180549091169189169190911790555b6120da8282615bd5565b83106121d157606560009081526020527f4a7203f705e51df4a56139a9b86b4a0970bed7ab7a3446eaffe2289989c1645c546001600160a01b031663d9caed127f000000000000000000000000000000000000000000000000000000000000000087846121478789615c2c565b6121519190615c2c565b6040517fffffffff0000000000000000000000000000000000000000000000000000000060e086901b1681526001600160a01b0393841660048201529290911660248301526044820152606401600060405180830381600087803b1580156121b857600080fd5b505af11580156121cc573d6000803e3d6000fd5b505050505b6040516001600160a01b03861681527f1d2cc4c8661a04a00b4e727426220501b36d85bb330947642c2d4320667028cf9060200160405180910390a161221684614781565b5050505050808061222690615c5a565b915050611fe3565b5060648660145460636122419190615c0d565b61224b9190615bd5565b6122559190615bed565b601455831561231e57606560009081526020527f4a7203f705e51df4a56139a9b86b4a0970bed7ab7a3446eaffe2289989c1645c546001600160a01b0316604051636ce5768960e11b81526001600160a01b037f00000000000000000000000000000000000000000000000000000000000000008116600483015233602483015260448201899052919091169063d9caed1290606401600060405180830381600087803b15801561230557600080fd5b505af1158015612319573d6000803e3d6000fd5b505050505b600061235b606b60009081526020527f2dc7a963308417ad45132da282495eb244f38a7db03940a4d808be607669c622546001600160a01b031690565b6001600160a01b0316631a38de1d6040518163ffffffff1660e01b8152600401602060405180830381600087803b15801561239557600080fd5b505af11580156123a9573d6000803e3d6000fd5b505050506040513d601f19601f820116820180604052508101906123cd91906156de565b90508515612447576001600160a01b038116600090815260126020526040902054871015612428576001600160a01b0381166000908152601260205260408120805489929061241d908490615c2c565b909155506124429050565b6001600160a01b0381166000908152601260205260408120555b612475565b6001600160a01b0381166000908152601260205260408120805489929061246f908490615bd5565b90915550505b505050505050919050565b33612489612f2c565b6001600160a01b031614806124ad5750336124a2612fc5565b6001600160a01b0316145b6124f95760405162461bcd60e51b815260206004820152601e60248201527f526f6c65733a2063616c6c6572206973206e6f7420746865206f776e657200006044820152606401610b7a565b601655565b3360009081526001602090815260408083206004845290915290205460ff1661257c5760405162461bcd60e51b815260206004820152602a60248201527f43616c6c696e6720636f6e7472616374206e6f7420617574686f72697a6564206044820152691d1bc819195c1bdcda5d60b21b6064820152608401610b7a565b6001600160a01b03831660009081526009602052604090206118f4818484613234565b6001600160a01b03811660009081526009602090815260409182902060018101805484518185028101850190955280855260609485949092919083018282801561261257602002820191906000526020600020905b81546001600160a01b031681526001909101906020018083116125f4575b5050506001840154929550505067ffffffffffffffff81111561264557634e487b7160e01b600052604160045260246000fd5b60405190808252806020026020018201604052801561266e578160200160208202803683370190505b50915060005b80845111156116f457600084828151811061269f57634e487b7160e01b600052603260045260246000fd5b602002602001015190506126e4606660009081526020527f422cccb7cea5c0e46f340bb7b21b81debac329f72e31669c20ff0f3a05cc2b5b546001600160a01b031690565b6001600160a01b03828116600081815260028701602090815260408083205460038a01909252918290205491517f76668b670000000000000000000000000000000000000000000000000000000081526004810191909152602481019290925260448201529116906376668b679060640160206040518083038186803b15801561276d57600080fd5b505afa158015612781573d6000803e3d6000fd5b505050506040513d601f19601f820116820180604052508101906127a59190615a33565b8483815181106127c557634e487b7160e01b600052603260045260246000fd5b602090810291909101015250806127db81615c5a565b915050612674565b3360009081526001602090815260408083206004845290915290205460ff166128745760405162461bcd60e51b815260206004820152603960248201527f43616c6c696e6720636f6e7472616374206973206e6f7420616e20617574686f60448201527f72697a6564206d617267696e20747261646572206167656e74000000000000006064820152608401610b7a565b6001600160a01b03811660009081526009602052604081209061289890829061476a565b1561290b5760405162461bcd60e51b815260206004820152602b60248201527f43616e2774206c69717569646174652063757272656e746c7920626f72726f7760448201527f696e67206163636f756e740000000000000000000000000000000000000000006064820152608401610b7a565b6109df81614781565b3361291d612f2c565b6001600160a01b03161480612941575033612936612fc5565b6001600160a01b0316145b61298d5760405162461bcd60e51b815260206004820152601e60248201527f526f6c65733a2063616c6c6572206973206e6f7420746865206f776e657200006044820152606401610b7a565b600d55565b600281015460009015610e565781546000906129ba906129b29043615c2c565b6015546137b0565b905060006015548285600201546129d19190615c0d565b6129db9190615bed565b9050612a18606560009081526020527f4a7203f705e51df4a56139a9b86b4a0970bed7ab7a3446eaffe2289989c1645c546001600160a01b031690565b6003850154604051636ce5768960e11b81526001600160a01b037f00000000000000000000000000000000000000000000000000000000000000008116600483015291821660248201526044810184905291169063d9caed1290606401600060405180830381600087803b158015612a8f57600080fd5b505af1158015612aa3573d6000803e3d6000fd5b505050506000612ae4606b60009081526020527f2dc7a963308417ad45132da282495eb244f38a7db03940a4d808be607669c622546001600160a01b031690565b9050600060145483836001600160a01b0316630ad691506040518163ffffffff1660e01b815260040160206040518083038186803b158015612b2557600080fd5b505afa158015612b39573d6000803e3d6000fd5b505050506040513d601f19601f82011682018060405250810190612b5d9190615a33565b612b679190615c0d565b612b719190615bed565b600187015460038801546040517f0a45bc1b0000000000000000000000000000000000000000000000000000000081526001600160a01b039283166004820152602481018490529082166044820152919250831690630a45bc1b90606401602060405180830381600087803b158015612be957600080fd5b505af1158015612bfd573d6000803e3d6000fd5b505050506040513d601f19601f82011682018060405250810190612c219190615a33565b50828660020154612c329190615c2c565b9695505050505050565b606080600283511015612ca25760405162461bcd60e51b815260206004820152602860248201527f556e69737761705374796c654c69623a20746f6b656e207061746820697320746044820152671bdbc81cda1bdc9d60c21b6064820152608401610b7a565b825167ffffffffffffffff811115612cca57634e487b7160e01b600052604160045260246000fd5b604051908082528060200260200182016040528015612cf3578160200160208202803683370190505b5091508482600081518110612d1857634e487b7160e01b600052603260045260246000fd5b60200260200101818152505060018351612d329190615c2c565b67ffffffffffffffff811115612d5857634e487b7160e01b600052604160045260246000fd5b604051908082528060200260200182016040528015612d81578160200160208202803683370190505b50905060005b60018451612d959190615c2c565b811015612f23576000848281518110612dbe57634e487b7160e01b600052603260045260246000fd5b60200260200101519050600085836001612dd89190615bd5565b81518110612df657634e487b7160e01b600052603260045260246000fd5b602002602001015190506000878460208110612e2257634e487b7160e01b600052603260045260246000fd5b1a60f81b6001600160f81b03191615612e4457612e3f8383614911565b612e4e565b612e4e83836149f1565b905080858581518110612e7157634e487b7160e01b600052603260045260246000fd5b60200260200101906001600160a01b031690816001600160a01b031681525050600080612e9f838686614ab2565b91509150612ed5888781518110612ec657634e487b7160e01b600052603260045260246000fd5b60200260200101518383614b8f565b88612ee1886001615bd5565b81518110612eff57634e487b7160e01b600052603260045260246000fd5b60200260200101818152505050505050508080612f1b90615c5a565b915050612d87565b50935093915050565b60007f00000000000000000000000000000000000000000000000000000000000000006001600160a01b0316638da5cb5b6040518163ffffffff1660e01b815260040160206040518083038186803b158015612f8757600080fd5b505afa158015612f9b573d6000803e3d6000fd5b505050506040513d601f19601f82011682018060405250810190612fbf91906156de565b90505b90565b60007f00000000000000000000000000000000000000000000000000000000000000006001600160a01b031663c34c08e56040518163ffffffff1660e01b8152600401602060405180830381600087803b15801561302257600080fd5b505af1158015612f9b573d6000803e3d6000fd5b613041838383614cc1565b6001600160a01b0382166000908152600c602052604081208054839290613069908490615bd5565b90915550506001600160a01b0382166000908152600c6020908152604080832054600a9092529091205410156111a65760405162461bcd60e51b815260206004820152603960248201527f457863656564696e6720676c6f62616c206578706f737572652063617020746f60448201527f20746f6b656e202d2d2074727920616761696e206c61746572000000000000006064820152608401610b7a565b6001600160a01b0382166000908152600b60205260408120805483929061312f908490615bd5565b90915550506001600160a01b0382166000908152600c60205260408120805483929061315c908490615bd5565b90915550506001600160a01b0382166000908152600b6020908152604080832054600a90925290912054108015906131b757506001600160a01b0382166000908152600c6020908152604080832054600a9092529091205410155b6132295760405162461bcd60e51b815260206004820152603960248201527f457863656564696e6720676c6f62616c206578706f737572652063617020746f60448201527f20746f6b656e202d2d2074727920616761696e206c61746572000000000000006064820152608401610b7a565b6111a6838383613a7e565b600d5483546132439190615bd5565b43116132dd5760405162461bcd60e51b815260206004820152605260248201527f546f2070726576656e742061747461636b7320796f75206d757374207761697460448201527f20756e74696c20796f757220636f6f6c696e67206f666620706572696f64206960648201527f73206f76657220746f2077697468647261770000000000000000000000000000608482015260a401610b7a565b6001600160a01b0382166000908152600c602052604081208054839290613305908490615c2c565b90915550506001600160a01b0382166000908152600584016020526040902054613330908290615c2c565b6001600160a01b038316600090815260058501602052604090205561335483614d48565b6111a65760405162461bcd60e51b815260206004820152602660248201527f4163636f756e742062616c616e636520697320746f6f206c6f7720746f20776960448201527f74686472617700000000000000000000000000000000000000000000000000006064820152608401610b7a565b8254600090815b81811015611a255760008682815481106133f757634e487b7160e01b600052603260045260246000fd5b60009182526020808320909101546001600160a01b03168083529088905260409091205490915061342a90829087614d98565b6134349085615bd5565b935050808061344290615c5a565b9150506133cd565b6060806002835110156134b05760405162461bcd60e51b815260206004820152602860248201527f556e69737761705374796c654c69623a20746f6b656e207061746820697320746044820152671bdbc81cda1bdc9d60c21b6064820152608401610b7a565b825167ffffffffffffffff8111156134d857634e487b7160e01b600052604160045260246000fd5b604051908082528060200260200182016040528015613501578160200160208202803683370190505b5091508482600184516135149190615c2c565b8151811061353257634e487b7160e01b600052603260045260246000fd5b6020026020010181815250506001835161354c9190615c2c565b67ffffffffffffffff81111561357257634e487b7160e01b600052604160045260246000fd5b60405190808252806020026020018201604052801561359b578160200160208202803683370190505b5090506000600284516135ae9190615c2c565b90505b60008482815181106135d357634e487b7160e01b600052603260045260246000fd5b602002602001015190506000858360016135ed9190615bd5565b8151811061360b57634e487b7160e01b600052603260045260246000fd5b60200260200101519050600087846020811061363757634e487b7160e01b600052603260045260246000fd5b1a60f81b6001600160f81b03191615613659576136548383614911565b613663565b61366383836149f1565b90508085858151811061368657634e487b7160e01b600052603260045260246000fd5b60200260200101906001600160a01b031690816001600160a01b0316815250506000806136b4838686614ab2565b90925090506136f5886136c8886001615bd5565b815181106136e657634e487b7160e01b600052603260045260246000fd5b60200260200101518383614e8e565b88878151811061371557634e487b7160e01b600052603260045260246000fd5b6020026020010181815250505050505050808061373190615c43565b9150506135b1565b6000613746836001615bd5565b61375985683635c9adc5dea00000615c0d565b6137639190615bed565b90506103e86137728383615c0d565b61377e846103e8615c2c565b876001015461378d9190615c0d565b6137979190615bd5565b6137a19190615bed565b85600101819055505050505050565b6000818311156137c1575080610aff565b5081610aff565b600080613806606660009081526020527f422cccb7cea5c0e46f340bb7b21b81debac329f72e31669c20ff0f3a05cc2b5b546001600160a01b031690565b6001600160a01b03858116600081815260028901602090815260408083205460038c0190925291829020549151631cd2bf4d60e31b815260048101919091526024810192909252604482015291169063e695fa68906064016040805180830381600087803b15801561387757600080fd5b505af115801561388b573d6000803e3d6000fd5b505050506040513d601f19601f820116820180604052508101906138af9190615a7a565b909250905060006138c08484615c2c565b6001600160a01b0386166000908152600288016020908152604080832084905560058a019091529020549091506138f8908590615c2c565b6001600160a01b0386166000908152600588016020526040902055801561393b576001600160a01b03851660009081526003870160205260409020829055613a76565b6001600160a01b038516600090815260038701602052604081208190556001870154815b80821115613a2f57600089600101828154811061398c57634e487b7160e01b600052603260045260246000fd5b6000918252602090912001546001600160a01b03908116915089168114156139b75760019350613a1c565b8315613a1c57808a6001016001846139cf9190615c2c565b815481106139ed57634e487b7160e01b600052603260045260246000fd5b9060005260206000200160006101000a8154816001600160a01b0302191690836001600160a01b031602179055505b5080613a2781615c5a565b91505061395f565b5087600101805480613a5157634e487b7160e01b600052603160045260246000fd5b600082815260209020810160001990810180546001600160a01b031916905501905550505b505050505050565b6001600160a01b0382166000908152600384016020526040902054613bcd576001838101805491820181556000908152602090200180546001600160a01b0319166001600160a01b038416179055613b07606660009081526020527f422cccb7cea5c0e46f340bb7b21b81debac329f72e31669c20ff0f3a05cc2b5b546001600160a01b031690565b6040517f46c87f800000000000000000000000000000000000000000000000000000000081526001600160a01b03848116600483015291909116906346c87f8090602401602060405180830381600087803b158015613b6557600080fd5b505af1158015613b79573d6000803e3d6000fd5b505050506040513d601f19601f82011682018060405250810190613b9d9190615a33565b6001600160a01b038316600090815260038501602090815260408083209390935560028601905220819055613cfe565b600080613c0b606660009081526020527f422cccb7cea5c0e46f340bb7b21b81debac329f72e31669c20ff0f3a05cc2b5b546001600160a01b031690565b6001600160a01b03858116600081815260028901602090815260408083205460038c0190925291829020549151631cd2bf4d60e31b815260048101919091526024810192909252604482015291169063e695fa68906064016040805180830381600087803b158015613c7c57600080fd5b505af1158015613c90573d6000803e3d6000fd5b505050506040513d601f19601f82011682018060405250810190613cb49190615a7a565b6001600160a01b038616600090815260038801602052604090208190559092509050613ce08383615bd5565b6001600160a01b038516600090815260028701602052604090205550505b613d09838383614cc1565b613d1283614d48565b6111a65760405162461bcd60e51b815260206004820152602260248201527f43616e277420626f72726f773a20696e73756666696369656e742062616c616e60448201527f63650000000000000000000000000000000000000000000000000000000000006064820152608401610b7a565b6001600160a01b0384166000908152600586016020526040902054613daa908390615c2c565b6001600160a01b0385166000908152600587016020526040902055613dd0858483614cc1565b5050505050565b8154600090815b81811015613e5a576000858281548110613e0857634e487b7160e01b600052603260045260246000fd5b60009182526020808320909101546001600160a01b031680835290879052604090912054909150613e3a9082906109e3565b613e449085615bd5565b9350508080613e5290615c5a565b915050613dde565b505092915050565b60007f00000000000000000000000000000000000000000000000000000000000000006001600160a01b0316836001600160a01b03161415613ea5575080610aff565b600060026000856001600160a01b03166001600160a01b0316815260200190815260200160002090506000613f3984836003015484600201805480602002602001604051908101604052809291908181526020018280548015610ab2576020028201919060005260206000209081546001600160a01b03168152600190910190602001808311610a94575050505050612c3c565b50905060008160018351613f4d9190615c2c565b81518110613f6b57634e487b7160e01b600052603260045260246000fd5b6020026020010151905060065481118015613f87575060055481105b15613f9757613f97838683614fbc565b9250610aff915050565b600080613fdf606b60009081526020527f2dc7a963308417ad45132da282495eb244f38a7db03940a4d808be607669c622546001600160a01b031690565b6001600160a01b031663b0411f466040518163ffffffff1660e01b8152600401604080518083038186803b15801561401657600080fd5b505afa15801561402a573d6000803e3d6000fd5b505050506040513d601f19601f8201168201806040525081019061404e9190615819565b5090506014546017546140619190615c0d565b6001600160a01b0390911660009081526012602052604090205411905090565b6040805160008082526020820192839052905190916140a391600f9190615591565b5060408051600081526020810191829052516140c191601091615591565b5060408051600081526020810191829052516140df91601191615591565b5060005b808451111561459b57600084828151811061410e57634e487b7160e01b600052603260045260246000fd5b60200260200101519050600060096000836001600160a01b03166001600160a01b03168152602001908152602001600020905061414a81614fd1565b15614551576011805460018101825560009182527f31ecc21a745e3968a04e9570e4425bc18fa8019c68028196b546d1669c200c680180546001600160a01b0319166001600160a01b0385161790555b60048201548110156142ba5760008260040182815481106141cb57634e487b7160e01b600052603260045260246000fd5b60009182526020808320909101546001600160a01b0316808352600e9091526040909120600281015491925090431461426f576001600160a01b0382166000818152600586016020526040812054600180850191909155818455436002850155600f805491820181559091527f8d1108e10bcb7c27dddfc02ed9d693a074039d026cf4ea4240b40f7d581ac8020180546001600160a01b03191690911790556142a5565b6001600160a01b03821660009081526005850160205260408120546001830180549192909161429f908490615bd5565b90915550505b505080806142b290615c5a565b91505061419a565b5060005b600182015481101561454f5760008260010182815481106142ef57634e487b7160e01b600052603260045260246000fd5b60009182526020808320909101546001600160a01b0316808352600e9091526040822090925090614351606660009081526020527f422cccb7cea5c0e46f340bb7b21b81debac329f72e31669c20ff0f3a05cc2b5b546001600160a01b031690565b6001600160a01b03848116600081815260028901602090815260408083205460038c0190925291829020549151631cd2bf4d60e31b815260048101919091526024810192909252604482015291169063e695fa68906064016040805180830381600087803b1580156143c257600080fd5b505af11580156143d6573d6000803e3d6000fd5b505050506040513d601f19601f820116820180604052508101906143fa9190615a7a565b509050614438606660009081526020527f422cccb7cea5c0e46f340bb7b21b81debac329f72e31669c20ff0f3a05cc2b5b546001600160a01b031690565b6040517f2a6a897b0000000000000000000000000000000000000000000000000000000081526001600160a01b038581166004830152602482018490529190911690632a6a897b90604401600060405180830381600087803b15801561449d57600080fd5b505af11580156144b1573d6000803e3d6000fd5b505050504382600201541461451f57600060018381018290558284554360028501556010805491820181559091527f1b6847dc741a1b0cd08d278845f9d819d87b734759afb55fe2de5cb82a9ae6720180546001600160a01b0319166001600160a01b038516179055614539565b808260000160008282546145339190615bd5565b90915550505b505050808061454790615c5a565b9150506142be565b505b6001600160a01b038216600090815260136020526040902085156145855761457881612992565b6145829086615bd5565b94505b505050808061459390615c5a565b9150506140e3565b5092915050565b6000805b600f54811015614671576000600f82815481106145d357634e487b7160e01b600052603260045260246000fd5b60009182526020808320909101546001600160a01b0316808352600e9091526040909120805460018201549293509091111561465c578054600182015460009161461c91615c2c565b90506146288382615009565b6146329086615bd5565b6001600160a01b0384166000908152600e6020526040812081815560018101829055600201559450505b5050808061466990615c5a565b9150506145a6565b50612fc2600f60006155f6565b6000805b60105481101561474a576000601082815481106146af57634e487b7160e01b600052603260045260246000fd5b60009182526020808320909101546001600160a01b0316808352600e909152604090912060018101548154929350909111156147355761470282826001015483600001546146fd9190615c2c565b615142565b61470c9085615bd5565b6001600160a01b0383166000908152600e60205260408120818155600181018290556002015593505b5050808061474290615c5a565b915050614682565b50612fc2601060006155f6565b6000611b6383600401846005018461529d565b6000611b6383600101846002018560030185615321565b600181015460005b808211156148365760008360010182815481106147b657634e487b7160e01b600052603260045260246000fd5b60009182526020808320909101546001600160a01b0316808352600287018252604080842054600b909352832080549194509192906147f6908490615c2c565b90915550506001600160a01b031660009081526002840160209081526040808320839055600386019091528120558061482e81615c5a565b915050614789565b5050600481015460005b808211156148f457600083600401828154811061486d57634e487b7160e01b600052603260045260246000fd5b60009182526020808320909101546001600160a01b0316808352600587018252604080842054600c909352832080549194509192906148ad908490615c2c565b90915550506001600160a01b031660009081526005840160209081526040808320839055600686019091529020805460ff19169055806148ec81615c5a565b915050614840565b506149036001830160006155f6565b6109df6004830160006155f6565b600080600061492085856153b0565b60408051606084811b6bffffffffffffffffffffffff199081166020808501919091529185901b166034830152825160288184030181526048830190935282519201919091206001600160f81b031960688301527fc0aee478e3658e2610c5f7a4a2e1777ce9e4f2ac0000000000000000000000006069830152607d8201527fe18a34eb0e04b04f7a0ac29a6e80748dca96319b42c54d679cb821dca90c6303609d820152919350915060bd015b6040516020818303038152906040528051906020012060601c9250505092915050565b6000806000614a0085856153b0565b60408051606084811b6bffffffffffffffffffffffff199081166020808501919091529185901b166034830152825160288184030181526048830190935282519201919091206001600160f81b031960688301527f5c69bee701ef814a2b6a3edd4b1652cb9cc5aa6f0000000000000000000000006069830152607d8201527f96e8ac4277198ff8b6f785478aa9a39f403cb768dd02cbee326c3e7da348845f609d820152919350915060bd016149ce565b6000806000614ac185856153b0565b509050600080876001600160a01b0316630902f1ac6040518163ffffffff1660e01b815260040160606040518083038186803b158015614b0057600080fd5b505afa158015614b14573d6000803e3d6000fd5b505050506040513d601f19601f82011682018060405250810190614b3891906159b6565b506dffffffffffffffffffffffffffff1691506dffffffffffffffffffffffffffff169150826001600160a01b0316876001600160a01b031614614b7d578082614b80565b81815b90999098509650505050505050565b6000808411614c065760405162461bcd60e51b815260206004820152602b60248201527f556e697377617056324c6962726172793a20494e53554646494349454e545f4960448201527f4e5055545f414d4f554e540000000000000000000000000000000000000000006064820152608401610b7a565b600083118015614c165750600082115b614c735760405162461bcd60e51b815260206004820152602860248201527f556e697377617056324c6962726172793a20494e53554646494349454e545f4c604482015267495155494449545960c01b6064820152608401610b7a565b6000614c81856103e5615c0d565b90506000614c8f8483615c0d565b9050600082614ca0876103e8615c0d565b614caa9190615bd5565b9050614cb68183615bed565b979650505050505050565b6001600160a01b038216600090815260068401602052604090205460ff16614d1457600483018054600181018255600091825260209091200180546001600160a01b0319166001600160a01b0384161790555b6001600160a01b038216600090815260058401602052604081208054839290614d3e908490615bd5565b9091555050505050565b600080614d5683600061476a565b90506000614d65846000614757565b905060075482614d759190615c0d565b6064600754614d849190615c2c565b614d8e9083615c0d565b1015949350505050565b600080614dd6606660009081526020527f422cccb7cea5c0e46f340bb7b21b81debac329f72e31669c20ff0f3a05cc2b5b546001600160a01b031690565b604051630a0c4ed960e11b81526001600160a01b03878116600483015291909116906314189db29060240160206040518083038186803b158015614e1957600080fd5b505afa158015614e2d573d6000803e3d6000fd5b505050506040513d601f19601f82011682018060405250810190614e519190615a33565b6001600160a01b03861660009081526020859052604081205491925090614e788387615c0d565b614e829190615bed565b9050612c3286826109e3565b6000808411614f055760405162461bcd60e51b815260206004820152602c60248201527f556e697377617056324c6962726172793a20494e53554646494349454e545f4f60448201527f55545055545f414d4f554e5400000000000000000000000000000000000000006064820152608401610b7a565b600083118015614f155750600082115b614f725760405162461bcd60e51b815260206004820152602860248201527f556e697377617056324c6962726172793a20494e53554646494349454e545f4c604482015267495155494449545960c01b6064820152608401610b7a565b6000614f7e8585615c0d565b614f8a906103e8615c0d565b905060006103e5614f9b8786615c2c565b614fa59190615c2c565b9050614fb18183615bed565b612c32906001615bd5565b614fca838383600454613739565b5050439055565b600080614fdf83600161476a565b90506000614fee846001614757565b905081600854614ffe9190615c0d565b614d8e826064615c0d565b60007f00000000000000000000000000000000000000000000000000000000000000006001600160a01b0316836001600160a01b0316141561504c575080610aff565b6001600160a01b0383166000908152600260205260408120906150a0606760009081526020527f682158d08466d11c566d5712d4396197fdd67e65be71d83c97ef719ec468867b546001600160a01b031690565b6001600160a01b031663351ae6108560008560030154866002016040518563ffffffff1660e01b81526004016150d99493929190615b5b565b600060405180830381600087803b1580156150f357600080fd5b505af1158015615107573d6000803e3d6000fd5b505050506040513d6000823e601f3d908101601f1916820160405261512f91908101906158c2565b905060008160018351610ad09190615c2c565b60007f00000000000000000000000000000000000000000000000000000000000000006001600160a01b0316836001600160a01b03161415615185575080610aff565b6001600160a01b0383166000908152600260205260408120906151d9606760009081526020527f682158d08466d11c566d5712d4396197fdd67e65be71d83c97ef719ec468867b546001600160a01b031690565b6001600160a01b03166353d7ff9f856000198560030154866004016040518563ffffffff1660e01b81526004016152139493929190615b5b565b600060405180830381600087803b15801561522d57600080fd5b505af1158015615241573d6000803e3d6000fd5b505050506040513d6000823e601f3d908101601f1916820160405261526991908101906158c2565b90508060008151811061528c57634e487b7160e01b600052603260045260246000fd5b602002602001015192505050610aff565b8254600090815b81811015611a255760008682815481106152ce57634e487b7160e01b600052603260045260246000fd5b60009182526020808320909101546001600160a01b03168083529088905260409091205490915061530190829087611aac565b61530b9085615bd5565b935050808061531990615c5a565b9150506152a4565b8354600090815b818110156153a657600087828154811061535257634e487b7160e01b600052603260045260246000fd5b60009182526020808320909101546001600160a01b031680835290899052604090912054909150615386908290888861549a565b6153909085615bd5565b935050808061539e90615c5a565b915050615328565b5050949350505050565b600080826001600160a01b0316846001600160a01b031614156154155760405162461bcd60e51b815260206004820152601260248201527f4964656e746963616c20616464726573732100000000000000000000000000006044820152606401610b7a565b826001600160a01b0316846001600160a01b031610615435578284615438565b83835b90925090506001600160a01b0382166154935760405162461bcd60e51b815260206004820152600d60248201527f5a65726f206164647265737321000000000000000000000000000000000000006044820152606401610b7a565b9250929050565b6000806154d8606660009081526020527f422cccb7cea5c0e46f340bb7b21b81debac329f72e31669c20ff0f3a05cc2b5b546001600160a01b031690565b604051630a0c4ed960e11b81526001600160a01b03888116600483015291909116906314189db29060240160206040518083038186803b15801561551b57600080fd5b505afa15801561552f573d6000803e3d6000fd5b505050506040513d601f19601f820116820180604052508101906155539190615a33565b6001600160a01b0387166000908152602086905260408120549192509061557a8388615c0d565b6155849190615bed565b9050614cb6878286611aac565b8280548282559060005260206000209081019282156155e6579160200282015b828111156155e657825182546001600160a01b0319166001600160a01b039091161782556020909201916001909101906155b1565b506155f2929150615617565b5090565b50805460008255906000526020600020908101906156149190615617565b50565b5b808211156155f25760008155600101615618565b600082601f83011261563c578081fd5b8135602061565161564c83615bb1565b615b80565b80838252828201915082860187848660051b8901011115615670578586fd5b855b8581101561569757813561568581615ca1565b84529284019290840190600101615672565b5090979650505050505050565b80516dffffffffffffffffffffffffffff81168114610e5657600080fd5b6000602082840312156156d3578081fd5b8135611b6381615ca1565b6000602082840312156156ef578081fd5b8151611b6381615ca1565b600080600080600060a08688031215615711578081fd5b853561571c81615ca1565b9450602086013561572c81615ca1565b9350604086013561573c81615ca1565b94979396509394606081013594506080013592915050565b600080600060608486031215615768578283fd5b833561577381615ca1565b9250602084013561578381615ca1565b929592945050506040919091013590565b600080600080600060a086880312156157ab578081fd5b85356157b681615ca1565b945060208601356157c681615ca1565b93506040860135925060608601356157dd81615ca1565b949793965091946080013592915050565b60008060408385031215615800578182fd5b823561580b81615ca1565b946020939093013593505050565b6000806040838503121561582b578182fd5b825161583681615ca1565b6020939093015192949293505050565b60008060006060848603121561585a578283fd5b833561586581615ca1565b925060208401359150604084013561587c81615cb6565b809150509250925092565b600060208284031215615898578081fd5b813567ffffffffffffffff8111156158ae578182fd5b6158ba8482850161562c565b949350505050565b600060208083850312156158d4578182fd5b825167ffffffffffffffff8111156158ea578283fd5b8301601f810185136158fa578283fd5b805161590861564c82615bb1565b80828252848201915084840188868560051b8701011115615927578687fd5b8694505b8385101561594957805183526001949094019391850191850161592b565b50979650505050505050565b600060208284031215615966578081fd5b8151611b6381615cb6565b60008060408385031215615983578182fd5b82359150602083013567ffffffffffffffff8111156159a0578182fd5b6159ac8582860161562c565b9150509250929050565b6000806000606084860312156159ca578081fd5b6159d3846156a4565b92506159e1602085016156a4565b9150604084015163ffffffff8116811461587c578182fd5b600060208284031215615a0a578081fd5b813561ffff81168114611b63578182fd5b600060208284031215615a2c578081fd5b5035919050565b600060208284031215615a44578081fd5b5051919050565b60008060408385031215615a5d578182fd5b823591506020830135615a6f81615ca1565b809150509250929050565b60008060408385031215615a8c578182fd5b505080516020909101519092909150565b6000815480845260208085019450838352808320835b83811015615ad85781546001600160a01b031687529582019560019182019101615ab3565b509495945050505050565b604080825283519082018190526000906020906060840190828701845b82811015615b275781516001600160a01b0316845260208401935090840190600101615b00565b50505083810382850152845180825285830191830190845b8181101561569757835183529284019291840191600101615b3f565b600085825284602083015283604083015260806060830152612c326080830184615a9d565b604051601f8201601f1916810167ffffffffffffffff81118282101715615ba957615ba9615c8b565b604052919050565b600067ffffffffffffffff821115615bcb57615bcb615c8b565b5060051b60200190565b60008219821115615be857615be8615c75565b500190565b600082615c0857634e487b7160e01b81526012600452602481fd5b500490565b6000816000190483118215151615615c2757615c27615c75565b500290565b600082821015615c3e57615c3e615c75565b500390565b600081615c5257615c52615c75565b506000190190565b6000600019821415615c6e57615c6e615c75565b5060010190565b634e487b7160e01b600052601160045260246000fd5b634e487b7160e01b600052604160045260246000fd5b6001600160a01b038116811461561457600080fd5b801515811461561457600080fdfea264697066735822122086072dd25c2196c5b2a761cd645dfeb68dc3545b7d77d19fc666cc07f8b989e764736f6c63430008030033",
  "devdoc": {
    "kind": "dev",
    "methods": {
      "canBeLiquidated(address)": {
        "details": "can this trader be liquidated?"
      },
      "getBorrowAmounts(address)": {
        "details": "view function to display account borrowing state"
      },
      "getHoldingAmounts(address)": {
        "details": "view function to display account held assets state"
      },
      "registerBorrow(address,address,uint256)": {
        "details": "gets called by router to affirm borrowing event"
      },
      "registerDeposit(address,address,uint256)": {
        "details": "gets called by router to affirm a deposit to an account"
      },
      "registerLiquidation(address)": {
        "details": "can get called by router to register the dissolution of an account"
      },
      "registerOvercollateralizedBorrow(address,address,uint256,address,uint256)": {
        "details": "overcollateralized borrowing on a cross margin account, called by router"
      },
      "registerTradeAndBorrow(address,address,address,uint256,uint256)": {
        "details": "gets called by router to register a trade and borrow and extinguish as necessary"
      },
      "registerWithdrawal(address,address,uint256)": {
        "details": "gets called by router to affirm withdrawal of tokens from account"
      },
      "setCoolingOffPeriod(uint256)": {
        "details": "setter for cooling off period for withdrawing funds after deposit"
      },
      "setLeverage(uint256)": {
        "details": "admin function to set leverage"
      },
      "setLiquidationThresholdPercent(uint256)": {
        "details": "admin function to set liquidation threshold"
      },
      "setTokenCap(address,uint256)": {
        "details": "admin function to set the token cap"
      },
      "viewHoldingsInPeg(address)": {
        "details": "total of assets of account, expressed in reference currency"
      },
      "viewLoanInPeg(address)": {
        "details": "view function to get loan amount in peg"
      }
    },
    "version": 1
  },
  "userdoc": {
    "kind": "user",
    "methods": {
      "disburseLiqStakeAttacks(address[])": {
        "notice": "Disburse liquidity stake attacks"
      },
      "getCurrentPriceInPeg(address,uint256,bool)": {
        "notice": "Get current price of token in peg"
      },
      "liquidate(address[])": {
        "notice": "called by maintenance stakers to liquidate accounts below liquidation threshold"
      },
      "priceUpdateWindow()": {
        "notice": "update window in blocks"
      },
      "setFailureThreshold(uint256)": {
        "notice": "Set failure threshold"
      },
      "setLiqStakeAttackWindow(uint256)": {
        "notice": "Set liquidity stake attack window"
      },
      "setLiquidationPath(bytes32,address[])": {
        "notice": "add path from token to current liquidation peg"
      },
      "setMaintainerCutPercent(uint256)": {
        "notice": "Set maintainer's percent cut"
      },
      "setPriceUpdateWindow(uint16)": {
        "notice": "Set window for price updates"
      },
      "setUpdateRate(uint256)": {
        "notice": "Set rate for updates"
      },
      "viewCurrentPriceInPeg(address,uint256)": {
        "notice": "Get view of current price of token in peg"
      }
    },
    "version": 1
  },
  "storageLayout": {
    "storage": [
      {
        "astId": 11777,
        "contract": "contracts/CrossMarginTrading.sol:CrossMarginTrading",
        "label": "mainCharacterCache",
        "offset": 0,
        "slot": "0",
        "type": "t_mapping(t_uint256,t_address)"
      },
      {
        "astId": 11783,
        "contract": "contracts/CrossMarginTrading.sol:CrossMarginTrading",
        "label": "roleCache",
        "offset": 0,
        "slot": "1",
        "type": "t_mapping(t_address,t_mapping(t_uint256,t_bool))"
      },
      {
        "astId": 11087,
        "contract": "contracts/CrossMarginTrading.sol:CrossMarginTrading",
        "label": "tokenPrices",
        "offset": 0,
        "slot": "2",
        "type": "t_mapping(t_address,t_struct(TokenPrice)11077_storage)"
      },
      {
        "astId": 11091,
        "contract": "contracts/CrossMarginTrading.sol:CrossMarginTrading",
        "label": "priceUpdateWindow",
        "offset": 0,
        "slot": "3",
        "type": "t_uint16"
      },
      {
        "astId": 11094,
        "contract": "contracts/CrossMarginTrading.sol:CrossMarginTrading",
        "label": "UPDATE_RATE_PERMIL",
        "offset": 0,
        "slot": "4",
        "type": "t_uint256"
      },
      {
        "astId": 11097,
        "contract": "contracts/CrossMarginTrading.sol:CrossMarginTrading",
        "label": "UPDATE_MAX_PEG_AMOUNT",
        "offset": 0,
        "slot": "5",
        "type": "t_uint256"
      },
      {
        "astId": 11100,
        "contract": "contracts/CrossMarginTrading.sol:CrossMarginTrading",
        "label": "UPDATE_MIN_PEG_AMOUNT",
        "offset": 0,
        "slot": "6",
        "type": "t_uint256"
      },
      {
        "astId": 2575,
        "contract": "contracts/CrossMarginTrading.sol:CrossMarginTrading",
        "label": "leveragePercent",
        "offset": 0,
        "slot": "7",
        "type": "t_uint256"
      },
      {
        "astId": 2578,
        "contract": "contracts/CrossMarginTrading.sol:CrossMarginTrading",
        "label": "liquidationThresholdPercent",
        "offset": 0,
        "slot": "8",
        "type": "t_uint256"
      },
      {
        "astId": 2584,
        "contract": "contracts/CrossMarginTrading.sol:CrossMarginTrading",
        "label": "marginAccounts",
        "offset": 0,
        "slot": "9",
        "type": "t_mapping(t_address,t_struct(CrossMarginAccount)2568_storage)"
      },
      {
        "astId": 2589,
        "contract": "contracts/CrossMarginTrading.sol:CrossMarginTrading",
        "label": "tokenCaps",
        "offset": 0,
        "slot": "10",
        "type": "t_mapping(t_address,t_uint256)"
      },
      {
        "astId": 2594,
        "contract": "contracts/CrossMarginTrading.sol:CrossMarginTrading",
        "label": "totalShort",
        "offset": 0,
        "slot": "11",
        "type": "t_mapping(t_address,t_uint256)"
      },
      {
        "astId": 2599,
        "contract": "contracts/CrossMarginTrading.sol:CrossMarginTrading",
        "label": "totalLong",
        "offset": 0,
        "slot": "12",
        "type": "t_mapping(t_address,t_uint256)"
      },
      {
        "astId": 2601,
        "contract": "contracts/CrossMarginTrading.sol:CrossMarginTrading",
        "label": "coolingOffPeriod",
        "offset": 0,
        "slot": "13",
        "type": "t_uint256"
      },
      {
        "astId": 3509,
        "contract": "contracts/CrossMarginTrading.sol:CrossMarginTrading",
        "label": "liquidationAmounts",
        "offset": 0,
        "slot": "14",
        "type": "t_mapping(t_address,t_struct(Liquidation)3495_storage)"
      },
      {
        "astId": 3512,
        "contract": "contracts/CrossMarginTrading.sol:CrossMarginTrading",
        "label": "sellTokens",
        "offset": 0,
        "slot": "15",
        "type": "t_array(t_address)dyn_storage"
      },
      {
        "astId": 3515,
        "contract": "contracts/CrossMarginTrading.sol:CrossMarginTrading",
        "label": "buyTokens",
        "offset": 0,
        "slot": "16",
        "type": "t_array(t_address)dyn_storage"
      },
      {
        "astId": 3518,
        "contract": "contracts/CrossMarginTrading.sol:CrossMarginTrading",
        "label": "tradersToLiquidate",
        "offset": 0,
        "slot": "17",
        "type": "t_array(t_address)dyn_storage"
      },
      {
        "astId": 3522,
        "contract": "contracts/CrossMarginTrading.sol:CrossMarginTrading",
        "label": "maintenanceFailures",
        "offset": 0,
        "slot": "18",
        "type": "t_mapping(t_address,t_uint256)"
      },
      {
        "astId": 3527,
        "contract": "contracts/CrossMarginTrading.sol:CrossMarginTrading",
        "label": "stakeAttackRecords",
        "offset": 0,
        "slot": "19",
        "type": "t_mapping(t_address,t_struct(AccountLiqRecord)3504_storage)"
      },
      {
        "astId": 3530,
        "contract": "contracts/CrossMarginTrading.sol:CrossMarginTrading",
        "label": "avgLiquidationPerCall",
        "offset": 0,
        "slot": "20",
        "type": "t_uint256"
      },
      {
        "astId": 3533,
        "contract": "contracts/CrossMarginTrading.sol:CrossMarginTrading",
        "label": "liqStakeAttackWindow",
        "offset": 0,
        "slot": "21",
        "type": "t_uint256"
      },
      {
        "astId": 3536,
        "contract": "contracts/CrossMarginTrading.sol:CrossMarginTrading",
        "label": "MAINTAINER_CUT_PERCENT",
        "offset": 0,
        "slot": "22",
        "type": "t_uint256"
      },
      {
        "astId": 3539,
        "contract": "contracts/CrossMarginTrading.sol:CrossMarginTrading",
        "label": "failureThreshold",
        "offset": 0,
        "slot": "23",
        "type": "t_uint256"
      }
    ],
    "types": {
      "t_address": {
        "encoding": "inplace",
        "label": "address",
        "numberOfBytes": "20"
      },
      "t_array(t_address)dyn_storage": {
        "base": "t_address",
        "encoding": "dynamic_array",
        "label": "address[]",
        "numberOfBytes": "32"
      },
      "t_bool": {
        "encoding": "inplace",
        "label": "bool",
        "numberOfBytes": "1"
      },
      "t_bytes32": {
        "encoding": "inplace",
        "label": "bytes32",
        "numberOfBytes": "32"
      },
      "t_mapping(t_address,t_bool)": {
        "encoding": "mapping",
        "key": "t_address",
        "label": "mapping(address => bool)",
        "numberOfBytes": "32",
        "value": "t_bool"
      },
      "t_mapping(t_address,t_mapping(t_uint256,t_bool))": {
        "encoding": "mapping",
        "key": "t_address",
        "label": "mapping(address => mapping(uint256 => bool))",
        "numberOfBytes": "32",
        "value": "t_mapping(t_uint256,t_bool)"
      },
      "t_mapping(t_address,t_struct(AccountLiqRecord)3504_storage)": {
        "encoding": "mapping",
        "key": "t_address",
        "label": "mapping(address => struct CrossMarginLiquidation.AccountLiqRecord)",
        "numberOfBytes": "32",
        "value": "t_struct(AccountLiqRecord)3504_storage"
      },
      "t_mapping(t_address,t_struct(CrossMarginAccount)2568_storage)": {
        "encoding": "mapping",
        "key": "t_address",
        "label": "mapping(address => struct CrossMarginAccount)",
        "numberOfBytes": "32",
        "value": "t_struct(CrossMarginAccount)2568_storage"
      },
      "t_mapping(t_address,t_struct(Liquidation)3495_storage)": {
        "encoding": "mapping",
        "key": "t_address",
        "label": "mapping(address => struct CrossMarginLiquidation.Liquidation)",
        "numberOfBytes": "32",
        "value": "t_struct(Liquidation)3495_storage"
      },
      "t_mapping(t_address,t_struct(TokenPrice)11077_storage)": {
        "encoding": "mapping",
        "key": "t_address",
        "label": "mapping(address => struct TokenPrice)",
        "numberOfBytes": "32",
        "value": "t_struct(TokenPrice)11077_storage"
      },
      "t_mapping(t_address,t_uint256)": {
        "encoding": "mapping",
        "key": "t_address",
        "label": "mapping(address => uint256)",
        "numberOfBytes": "32",
        "value": "t_uint256"
      },
      "t_mapping(t_uint256,t_address)": {
        "encoding": "mapping",
        "key": "t_uint256",
        "label": "mapping(uint256 => address)",
        "numberOfBytes": "32",
        "value": "t_address"
      },
      "t_mapping(t_uint256,t_bool)": {
        "encoding": "mapping",
        "key": "t_uint256",
        "label": "mapping(uint256 => bool)",
        "numberOfBytes": "32",
        "value": "t_bool"
      },
      "t_struct(AccountLiqRecord)3504_storage": {
        "encoding": "inplace",
        "label": "struct CrossMarginLiquidation.AccountLiqRecord",
        "members": [
          {
            "astId": 3497,
            "contract": "contracts/CrossMarginTrading.sol:CrossMarginTrading",
            "label": "blockNum",
            "offset": 0,
            "slot": "0",
            "type": "t_uint256"
          },
          {
            "astId": 3499,
            "contract": "contracts/CrossMarginTrading.sol:CrossMarginTrading",
            "label": "loser",
            "offset": 0,
            "slot": "1",
            "type": "t_address"
          },
          {
            "astId": 3501,
            "contract": "contracts/CrossMarginTrading.sol:CrossMarginTrading",
            "label": "amount",
            "offset": 0,
            "slot": "2",
            "type": "t_uint256"
          },
          {
            "astId": 3503,
            "contract": "contracts/CrossMarginTrading.sol:CrossMarginTrading",
            "label": "stakeAttacker",
            "offset": 0,
            "slot": "3",
            "type": "t_address"
          }
        ],
        "numberOfBytes": "128"
      },
      "t_struct(CrossMarginAccount)2568_storage": {
        "encoding": "inplace",
        "label": "struct CrossMarginAccount",
        "members": [
          {
            "astId": 2545,
            "contract": "contracts/CrossMarginTrading.sol:CrossMarginTrading",
            "label": "lastDepositBlock",
            "offset": 0,
            "slot": "0",
            "type": "t_uint256"
          },
          {
            "astId": 2548,
            "contract": "contracts/CrossMarginTrading.sol:CrossMarginTrading",
            "label": "borrowTokens",
            "offset": 0,
            "slot": "1",
            "type": "t_array(t_address)dyn_storage"
          },
          {
            "astId": 2552,
            "contract": "contracts/CrossMarginTrading.sol:CrossMarginTrading",
            "label": "borrowed",
            "offset": 0,
            "slot": "2",
            "type": "t_mapping(t_address,t_uint256)"
          },
          {
            "astId": 2556,
            "contract": "contracts/CrossMarginTrading.sol:CrossMarginTrading",
            "label": "borrowedYieldQuotientsFP",
            "offset": 0,
            "slot": "3",
            "type": "t_mapping(t_address,t_uint256)"
          },
          {
            "astId": 2559,
            "contract": "contracts/CrossMarginTrading.sol:CrossMarginTrading",
            "label": "holdingTokens",
            "offset": 0,
            "slot": "4",
            "type": "t_array(t_address)dyn_storage"
          },
          {
            "astId": 2563,
            "contract": "contracts/CrossMarginTrading.sol:CrossMarginTrading",
            "label": "holdings",
            "offset": 0,
            "slot": "5",
            "type": "t_mapping(t_address,t_uint256)"
          },
          {
            "astId": 2567,
            "contract": "contracts/CrossMarginTrading.sol:CrossMarginTrading",
            "label": "holdsToken",
            "offset": 0,
            "slot": "6",
            "type": "t_mapping(t_address,t_bool)"
          }
        ],
        "numberOfBytes": "224"
      },
      "t_struct(Liquidation)3495_storage": {
        "encoding": "inplace",
        "label": "struct CrossMarginLiquidation.Liquidation",
        "members": [
          {
            "astId": 3490,
            "contract": "contracts/CrossMarginTrading.sol:CrossMarginTrading",
            "label": "buy",
            "offset": 0,
            "slot": "0",
            "type": "t_uint256"
          },
          {
            "astId": 3492,
            "contract": "contracts/CrossMarginTrading.sol:CrossMarginTrading",
            "label": "sell",
            "offset": 0,
            "slot": "1",
            "type": "t_uint256"
          },
          {
            "astId": 3494,
            "contract": "contracts/CrossMarginTrading.sol:CrossMarginTrading",
            "label": "blockNum",
            "offset": 0,
            "slot": "2",
            "type": "t_uint256"
          }
        ],
        "numberOfBytes": "96"
      },
      "t_struct(TokenPrice)11077_storage": {
        "encoding": "inplace",
        "label": "struct TokenPrice",
        "members": [
          {
            "astId": 11064,
            "contract": "contracts/CrossMarginTrading.sol:CrossMarginTrading",
            "label": "blockLastUpdated",
            "offset": 0,
            "slot": "0",
            "type": "t_uint256"
          },
          {
            "astId": 11066,
            "contract": "contracts/CrossMarginTrading.sol:CrossMarginTrading",
            "label": "tokenPer1k",
            "offset": 0,
            "slot": "1",
            "type": "t_uint256"
          },
          {
            "astId": 11069,
            "contract": "contracts/CrossMarginTrading.sol:CrossMarginTrading",
            "label": "liquidationTokens",
            "offset": 0,
            "slot": "2",
            "type": "t_array(t_address)dyn_storage"
          },
          {
            "astId": 11071,
            "contract": "contracts/CrossMarginTrading.sol:CrossMarginTrading",
            "label": "amms",
            "offset": 0,
            "slot": "3",
            "type": "t_bytes32"
          },
          {
            "astId": 11074,
            "contract": "contracts/CrossMarginTrading.sol:CrossMarginTrading",
            "label": "inverseLiquidationTokens",
            "offset": 0,
            "slot": "4",
            "type": "t_array(t_address)dyn_storage"
          },
          {
            "astId": 11076,
            "contract": "contracts/CrossMarginTrading.sol:CrossMarginTrading",
            "label": "inverseAmms",
            "offset": 0,
            "slot": "5",
            "type": "t_bytes32"
          }
        ],
        "numberOfBytes": "192"
      },
      "t_uint16": {
        "encoding": "inplace",
        "label": "uint16",
        "numberOfBytes": "2"
      },
      "t_uint256": {
        "encoding": "inplace",
        "label": "uint256",
        "numberOfBytes": "32"
      }
    }
  }
}