{
  "address": "0xf930d8261601055FDd82999B9938432EB1bda71D",
  "abi": [
    {
      "inputs": [
        {
          "internalType": "address",
          "name": "_peg",
          "type": "address"
        },
        {
          "internalType": "address",
          "name": "_roles",
          "type": "address"
        }
      ],
      "stateMutability": "nonpayable",
      "type": "constructor"
    },
    {
      "anonymous": false,
      "inputs": [
        {
          "indexed": false,
          "internalType": "address",
          "name": "account",
          "type": "address"
        }
      ],
      "name": "AccountLiquidated",
      "type": "event"
    },
    {
      "anonymous": false,
      "inputs": [
        {
          "indexed": false,
          "internalType": "uint256",
          "name": "amount",
          "type": "uint256"
        }
      ],
      "name": "LiquidationShortfall",
      "type": "event"
    },
    {
      "inputs": [],
      "name": "MAINTAINER_CUT_PERCENT",
      "outputs": [
        {
          "internalType": "uint256",
          "name": "",
          "type": "uint256"
        }
      ],
      "stateMutability": "view",
      "type": "function"
    },
    {
      "inputs": [],
      "name": "UPDATE_MAX_PEG_AMOUNT",
      "outputs": [
        {
          "internalType": "uint256",
          "name": "",
          "type": "uint256"
        }
      ],
      "stateMutability": "view",
      "type": "function"
    },
    {
      "inputs": [],
      "name": "UPDATE_MIN_PEG_AMOUNT",
      "outputs": [
        {
          "internalType": "uint256",
          "name": "",
          "type": "uint256"
        }
      ],
      "stateMutability": "view",
      "type": "function"
    },
    {
      "inputs": [],
      "name": "UPDATE_RATE_PERMIL",
      "outputs": [
        {
          "internalType": "uint256",
          "name": "",
          "type": "uint256"
        }
      ],
      "stateMutability": "view",
      "type": "function"
    },
    {
      "inputs": [],
      "name": "avgLiquidationPerCall",
      "outputs": [
        {
          "internalType": "uint256",
          "name": "",
          "type": "uint256"
        }
      ],
      "stateMutability": "view",
      "type": "function"
    },
    {
      "inputs": [],
      "name": "coolingOffPeriod",
      "outputs": [
        {
          "internalType": "uint256",
          "name": "",
          "type": "uint256"
        }
      ],
      "stateMutability": "view",
      "type": "function"
    },
    {
      "inputs": [
        {
          "internalType": "address[]",
          "name": "liquidatedAccounts",
          "type": "address[]"
        }
      ],
      "name": "disburseLiqStakeAttacks",
      "outputs": [],
      "stateMutability": "nonpayable",
      "type": "function"
    },
    {
      "inputs": [],
      "name": "failureThreshold",
      "outputs": [
        {
          "internalType": "uint256",
          "name": "",
          "type": "uint256"
        }
      ],
      "stateMutability": "view",
      "type": "function"
    },
    {
      "inputs": [
        {
          "internalType": "address",
          "name": "trader",
          "type": "address"
        }
      ],
      "name": "getBorrowAmounts",
      "outputs": [
        {
          "internalType": "address[]",
          "name": "borrowTokens",
          "type": "address[]"
        },
        {
          "internalType": "uint256[]",
          "name": "borrowAmounts",
          "type": "uint256[]"
        }
      ],
      "stateMutability": "view",
      "type": "function"
    },
    {
      "inputs": [
        {
          "internalType": "address",
          "name": "token",
          "type": "address"
        },
        {
          "internalType": "uint256",
          "name": "inAmount",
          "type": "uint256"
        },
        {
          "internalType": "bool",
          "name": "forceCurBlock",
          "type": "bool"
        }
      ],
      "name": "getCurrentPriceInPeg",
      "outputs": [
        {
          "internalType": "uint256",
          "name": "",
          "type": "uint256"
        }
      ],
      "stateMutability": "nonpayable",
      "type": "function"
    },
    {
      "inputs": [
        {
          "internalType": "address",
          "name": "trader",
          "type": "address"
        }
      ],
      "name": "getHoldingAmounts",
      "outputs": [
        {
          "internalType": "address[]",
          "name": "holdingTokens",
          "type": "address[]"
        },
        {
          "internalType": "uint256[]",
          "name": "holdingAmounts",
          "type": "uint256[]"
        }
      ],
      "stateMutability": "view",
      "type": "function"
    },
    {
      "inputs": [
        {
          "internalType": "address",
          "name": "trader",
          "type": "address"
        }
      ],
      "name": "getLastDepositBlock",
      "outputs": [
        {
          "internalType": "uint256",
          "name": "",
          "type": "uint256"
        }
      ],
      "stateMutability": "view",
      "type": "function"
    },
    {
      "inputs": [],
      "name": "leveragePercent",
      "outputs": [
        {
          "internalType": "uint256",
          "name": "",
          "type": "uint256"
        }
      ],
      "stateMutability": "view",
      "type": "function"
    },
    {
      "inputs": [],
      "name": "liqStakeAttackWindow",
      "outputs": [
        {
          "internalType": "uint256",
          "name": "",
          "type": "uint256"
        }
      ],
      "stateMutability": "view",
      "type": "function"
    },
    {
      "inputs": [
        {
          "internalType": "address[]",
          "name": "liquidationCandidates",
          "type": "address[]"
        }
      ],
      "name": "liquidate",
      "outputs": [
        {
          "internalType": "uint256",
          "name": "maintainerCut",
          "type": "uint256"
        }
      ],
      "stateMutability": "nonpayable",
      "type": "function"
    },
    {
      "inputs": [],
      "name": "liquidationThresholdPercent",
      "outputs": [
        {
          "internalType": "uint256",
          "name": "",
          "type": "uint256"
        }
      ],
      "stateMutability": "view",
      "type": "function"
    },
    {
      "inputs": [
        {
          "internalType": "uint256",
          "name": "",
          "type": "uint256"
        }
      ],
      "name": "mainCharacterCache",
      "outputs": [
        {
          "internalType": "address",
          "name": "",
          "type": "address"
        }
      ],
      "stateMutability": "view",
      "type": "function"
    },
    {
      "inputs": [
        {
          "internalType": "address",
          "name": "",
          "type": "address"
        }
      ],
      "name": "maintenanceFailures",
      "outputs": [
        {
          "internalType": "uint256",
          "name": "",
          "type": "uint256"
        }
      ],
      "stateMutability": "view",
      "type": "function"
    },
    {
      "inputs": [],
      "name": "peg",
      "outputs": [
        {
          "internalType": "address",
          "name": "",
          "type": "address"
        }
      ],
      "stateMutability": "view",
      "type": "function"
    },
    {
      "inputs": [],
      "name": "priceUpdateWindow",
      "outputs": [
        {
          "internalType": "uint16",
          "name": "",
          "type": "uint16"
        }
      ],
      "stateMutability": "view",
      "type": "function"
    },
    {
      "inputs": [
        {
          "internalType": "address",
          "name": "trader",
          "type": "address"
        },
        {
          "internalType": "address",
          "name": "borrowToken",
          "type": "address"
        },
        {
          "internalType": "uint256",
          "name": "borrowAmount",
          "type": "uint256"
        }
      ],
      "name": "registerBorrow",
      "outputs": [],
      "stateMutability": "nonpayable",
      "type": "function"
    },
    {
      "inputs": [
        {
          "internalType": "address",
          "name": "trader",
          "type": "address"
        },
        {
          "internalType": "address",
          "name": "token",
          "type": "address"
        },
        {
          "internalType": "uint256",
          "name": "depositAmount",
          "type": "uint256"
        }
      ],
      "name": "registerDeposit",
      "outputs": [
        {
          "internalType": "uint256",
          "name": "extinguishableDebt",
          "type": "uint256"
        }
      ],
      "stateMutability": "nonpayable",
      "type": "function"
    },
    {
      "inputs": [
        {
          "internalType": "address",
          "name": "trader",
          "type": "address"
        }
      ],
      "name": "registerLiquidation",
      "outputs": [],
      "stateMutability": "nonpayable",
      "type": "function"
    },
    {
      "inputs": [
        {
          "internalType": "address",
          "name": "trader",
          "type": "address"
        },
        {
          "internalType": "address",
          "name": "depositToken",
          "type": "address"
        },
        {
          "internalType": "uint256",
          "name": "depositAmount",
          "type": "uint256"
        },
        {
          "internalType": "address",
          "name": "borrowToken",
          "type": "address"
        },
        {
          "internalType": "uint256",
          "name": "withdrawAmount",
          "type": "uint256"
        }
      ],
      "name": "registerOvercollateralizedBorrow",
      "outputs": [],
      "stateMutability": "nonpayable",
      "type": "function"
    },
    {
      "inputs": [
        {
          "internalType": "address",
          "name": "trader",
          "type": "address"
        },
        {
          "internalType": "address",
          "name": "tokenFrom",
          "type": "address"
        },
        {
          "internalType": "address",
          "name": "tokenTo",
          "type": "address"
        },
        {
          "internalType": "uint256",
          "name": "inAmount",
          "type": "uint256"
        },
        {
          "internalType": "uint256",
          "name": "outAmount",
          "type": "uint256"
        }
      ],
      "name": "registerTradeAndBorrow",
      "outputs": [
        {
          "internalType": "uint256",
          "name": "extinguishableDebt",
          "type": "uint256"
        },
        {
          "internalType": "uint256",
          "name": "borrowAmount",
          "type": "uint256"
        }
      ],
      "stateMutability": "nonpayable",
      "type": "function"
    },
    {
      "inputs": [
        {
          "internalType": "address",
          "name": "trader",
          "type": "address"
        },
        {
          "internalType": "address",
          "name": "withdrawToken",
          "type": "address"
        },
        {
          "internalType": "uint256",
          "name": "withdrawAmount",
          "type": "uint256"
        }
      ],
      "name": "registerWithdrawal",
      "outputs": [],
      "stateMutability": "nonpayable",
      "type": "function"
    },
    {
      "inputs": [
        {
          "internalType": "address",
          "name": "",
          "type": "address"
        },
        {
          "internalType": "uint256",
          "name": "",
          "type": "uint256"
        }
      ],
      "name": "roleCache",
      "outputs": [
        {
          "internalType": "bool",
          "name": "",
          "type": "bool"
        }
      ],
      "stateMutability": "view",
      "type": "function"
    },
    {
      "inputs": [],
      "name": "roles",
      "outputs": [
        {
          "internalType": "contract Roles",
          "name": "",
          "type": "address"
        }
      ],
      "stateMutability": "view",
      "type": "function"
    },
    {
      "inputs": [
        {
          "internalType": "uint256",
          "name": "blocks",
          "type": "uint256"
        }
      ],
      "name": "setCoolingOffPeriod",
      "outputs": [],
      "stateMutability": "nonpayable",
      "type": "function"
    },
    {
      "inputs": [
        {
          "internalType": "uint256",
          "name": "threshFactor",
          "type": "uint256"
        }
      ],
      "name": "setFailureThreshold",
      "outputs": [],
      "stateMutability": "nonpayable",
      "type": "function"
    },
    {
      "inputs": [
        {
          "internalType": "uint256",
          "name": "_leveragePercent",
          "type": "uint256"
        }
      ],
      "name": "setLeverage",
      "outputs": [],
      "stateMutability": "nonpayable",
      "type": "function"
    },
    {
      "inputs": [
        {
          "internalType": "uint256",
          "name": "window",
          "type": "uint256"
        }
      ],
      "name": "setLiqStakeAttackWindow",
      "outputs": [],
      "stateMutability": "nonpayable",
      "type": "function"
    },
    {
      "inputs": [
        {
          "internalType": "address[]",
          "name": "path",
          "type": "address[]"
        },
        {
          "internalType": "address[]",
          "name": "tokens",
          "type": "address[]"
        }
      ],
      "name": "setLiquidationPath",
      "outputs": [],
      "stateMutability": "nonpayable",
      "type": "function"
    },
    {
      "inputs": [
        {
          "internalType": "uint256",
          "name": "threshold",
          "type": "uint256"
        }
      ],
      "name": "setLiquidationThresholdPercent",
      "outputs": [],
      "stateMutability": "nonpayable",
      "type": "function"
    },
    {
      "inputs": [
        {
          "internalType": "uint256",
          "name": "cut",
          "type": "uint256"
        }
      ],
      "name": "setMaintainerCutPercent",
      "outputs": [],
      "stateMutability": "nonpayable",
      "type": "function"
    },
    {
      "inputs": [
        {
          "internalType": "uint16",
          "name": "window",
          "type": "uint16"
        }
      ],
      "name": "setPriceUpdateWindow",
      "outputs": [],
      "stateMutability": "nonpayable",
      "type": "function"
    },
    {
      "inputs": [
        {
          "internalType": "address",
          "name": "token",
          "type": "address"
        },
        {
          "internalType": "uint256",
          "name": "cap",
          "type": "uint256"
        }
      ],
      "name": "setTokenCap",
      "outputs": [],
      "stateMutability": "nonpayable",
      "type": "function"
    },
    {
      "inputs": [
        {
          "internalType": "uint256",
          "name": "amount",
          "type": "uint256"
        }
      ],
      "name": "setUpdateMaxPegAmount",
      "outputs": [],
      "stateMutability": "nonpayable",
      "type": "function"
    },
    {
      "inputs": [
        {
          "internalType": "uint256",
          "name": "amount",
          "type": "uint256"
        }
      ],
      "name": "setUpdateMinPegAmount",
      "outputs": [],
      "stateMutability": "nonpayable",
      "type": "function"
    },
    {
      "inputs": [
        {
          "internalType": "uint256",
          "name": "rate",
          "type": "uint256"
        }
      ],
      "name": "setUpdateRate",
      "outputs": [],
      "stateMutability": "nonpayable",
      "type": "function"
    },
    {
      "inputs": [
        {
          "internalType": "address",
          "name": "",
          "type": "address"
        }
      ],
      "name": "stakeAttackRecords",
      "outputs": [
        {
          "internalType": "uint256",
          "name": "blockNum",
          "type": "uint256"
        },
        {
          "internalType": "address",
          "name": "loser",
          "type": "address"
        },
        {
          "internalType": "uint256",
          "name": "amount",
          "type": "uint256"
        },
        {
          "internalType": "address",
          "name": "stakeAttacker",
          "type": "address"
        }
      ],
      "stateMutability": "view",
      "type": "function"
    },
    {
      "inputs": [
        {
          "internalType": "address",
          "name": "",
          "type": "address"
        }
      ],
      "name": "tokenCaps",
      "outputs": [
        {
          "internalType": "uint256",
          "name": "",
          "type": "uint256"
        }
      ],
      "stateMutability": "view",
      "type": "function"
    },
    {
      "inputs": [
        {
          "internalType": "address",
          "name": "",
          "type": "address"
        }
      ],
      "name": "tokenPrices",
      "outputs": [
        {
          "internalType": "uint256",
          "name": "blockLastUpdated",
          "type": "uint256"
        },
        {
          "internalType": "uint256",
          "name": "tokenPer1k",
          "type": "uint256"
        }
      ],
      "stateMutability": "view",
      "type": "function"
    },
    {
      "inputs": [
        {
          "internalType": "address",
          "name": "",
          "type": "address"
        }
      ],
      "name": "totalLong",
      "outputs": [
        {
          "internalType": "uint256",
          "name": "",
          "type": "uint256"
        }
      ],
      "stateMutability": "view",
      "type": "function"
    },
    {
      "inputs": [
        {
          "internalType": "address",
          "name": "",
          "type": "address"
        }
      ],
      "name": "totalShort",
      "outputs": [
        {
          "internalType": "uint256",
          "name": "",
          "type": "uint256"
        }
      ],
      "stateMutability": "view",
      "type": "function"
    },
    {
      "inputs": [
        {
          "internalType": "uint256",
          "name": "role",
          "type": "uint256"
        }
      ],
      "name": "updateMainCharacterCache",
      "outputs": [],
      "stateMutability": "nonpayable",
      "type": "function"
    },
    {
      "inputs": [
        {
          "internalType": "uint256",
          "name": "role",
          "type": "uint256"
        },
        {
          "internalType": "address",
          "name": "contr",
          "type": "address"
        }
      ],
      "name": "updateRoleCache",
      "outputs": [],
      "stateMutability": "nonpayable",
      "type": "function"
    },
    {
      "inputs": [
        {
          "internalType": "address",
          "name": "token",
          "type": "address"
        },
        {
          "internalType": "uint256",
          "name": "inAmount",
          "type": "uint256"
        }
      ],
      "name": "viewCurrentPriceInPeg",
      "outputs": [
        {
          "internalType": "uint256",
          "name": "",
          "type": "uint256"
        }
      ],
      "stateMutability": "view",
      "type": "function"
    },
    {
      "inputs": [
        {
          "internalType": "address",
          "name": "trader",
          "type": "address"
        }
      ],
      "name": "viewHoldingsInPeg",
      "outputs": [
        {
          "internalType": "uint256",
          "name": "",
          "type": "uint256"
        }
      ],
      "stateMutability": "view",
      "type": "function"
    },
    {
      "inputs": [
        {
          "internalType": "address",
          "name": "trader",
          "type": "address"
        }
      ],
      "name": "viewLoanInPeg",
      "outputs": [
        {
          "internalType": "uint256",
          "name": "amount",
          "type": "uint256"
        }
      ],
      "stateMutability": "view",
      "type": "function"
    }
  ],
  "transactionHash": "0x07be06d485f80fa4492cb41df69fdcd9cc2bee76e45137e5d8f344709e717d70",
  "args": [
    "0x454B1FDe928df6448410AA1d7BBe8c424E7b25c6",
    "0x67DceCCe970011547817a5A4dad9A86eF9a2AB63"
  ],
  "solcInputHash": "844ad074ee2713a040ed8b727b202f61",
  "bytecode": "0x60c06040526003805461ffff19166008179055605060045561c35060059081556103e8600655600a601481905560158290556016919091556017553480156200004757600080fd5b5060405162006126380380620061268339810160408190526200006a9162000121565b81816001600160a01b038116620000d25760405162461bcd60e51b815260206004820152602260248201527f506c656173652070726f766964652076616c696420726f6c6573206164647265604482015261737360f01b606482015260840160405180910390fd5b6001600160601b0319606091821b811660805291901b1660a0525050606e6008556014600d5561012c60075562000158565b80516001600160a01b03811681146200011c57600080fd5b919050565b6000806040838503121562000134578182fd5b6200013f8362000104565b91506200014f6020840162000104565b90509250929050565b60805160601c60a05160601c615f55620001d1600039600081816103ed015281816109ff015281816123e80152818161258f01528181612d4501528181614040015281816151ed01526153300152600081816104dc0152818161083b015281816119f40152818161315d01526131f60152615f556000f3fe608060405234801561001057600080fd5b50600436106103365760003560e01c806352a664d9116101b2578063a75697a5116100f9578063d510c535116100a2578063e9c3f77d1161007c578063e9c3f77d1461079e578063eac29dd6146107c7578063f99fd97c146107f0578063f9c7aece1461080357610336565b8063d510c53514610758578063db2d904d1461076b578063e0f3871f1461077e57610336565b8063bc44dcbc116100d3578063bc44dcbc14610712578063c73afac214610732578063d0eb66531461074557610336565b8063a75697a514610672578063a985994b14610692578063badb5048146106a557610336565b80637a1a04df1161015b578063a17ab52711610135578063a17ab52714610643578063a371891914610656578063a53ac0d91461066957610336565b80637a1a04df146105e95780637d100e8414610627578063a00891591461063057610336565b806360b3fa401161018c57806360b3fa40146105ba5780636585b5a6146105cd57806379575b23146105d657610336565b806352a664d91461058b578063538edb291461059e57806354554b58146105a757610336565b8063288ddbdc116102815780633ed456fa1161022a578063447d52ba11610204578063447d52ba14610553578063498d55eb146105665780634aa4aca314610579578063519bda851461058257610336565b80633ed456fa146104fe5780633ffc17c01461051f578063409fdb721461053257610336565b8063320d2fa01161025b578063320d2fa0146104bb5780633500aa0b146104c4578063392f5f64146104d757610336565b8063288ddbdc14610496578063299cf2d2146104a95780632febaa74146104b257610336565b80631d47e4a3116102e35780631f692a64116102bd5780631f692a6414610427578063204120bc1461043a57806320c271261461047657610336565b80631d47e4a3146103c25780631d84cc18146103d55780631f1cb62b146103e857610336565b806310d584341161031457806310d584341461038957806316317e7e1461039c57806319fa00e1146103af57610336565b8063071060a61461033b57806307c2017514610350578063093a483a14610363575b600080fd5b61034e610349366004615c6f565b61080c565b005b61034e61035e366004615abf565b610903565b610376610371366004615a26565b6109fb565b6040519081526020015b60405180910390f35b61034e610397366004615c6f565b610b61565b61034e6103aa366004615c6f565b610be4565b61034e6103bd366004615c6f565b610c62565b61034e6103d0366004615a26565b610ce0565b61034e6103e33660046159cc565b610dc1565b61040f7f000000000000000000000000000000000000000000000000000000000000000081565b6040516001600160a01b039091168152602001610380565b6103766104353660046158fa565b610e95565b6104616104483660046158fa565b6002602052600090815260409020805460019091015482565b60408051928352602083019190915201610380565b6103766104843660046158fa565b600c6020526000908152604090205481565b61034e6104a4366004615afa565b610eca565b61037660055481565b610376600d5481565b61037660085481565b6104616104d2366004615932565b611465565b61040f7f000000000000000000000000000000000000000000000000000000000000000081565b60035461050c9061ffff1681565b60405161ffff9091168152602001610380565b61034e61052d366004615c6f565b6117c0565b6105456105403660046158fa565b61183e565b604051610380929190615d14565b61034e610561366004615c9f565b6119b5565b61034e61057436600461598c565b611ac4565b61037660155481565b61037660045481565b61037661059936600461598c565b611b7e565b61037660165481565b61034e6105b5366004615c6f565b611cc5565b6103766105c8366004615a7e565b611d43565b61037660145481565b61034e6105e4366004615c6f565b611e01565b6106176105f7366004615a26565b600160209081526000928352604080842090915290825290205460ff1681565b6040519015158152602001610380565b61037660175481565b61034e61063e366004615c4d565b611e7f565b6103766106513660046158fa565b611f2d565b61034e610664366004615c6f565b611f55565b61037660075481565b6103766106803660046158fa565b60126020526000908152604090205481565b6103766106a0366004615abf565b611fd3565b6106e76106b33660046158fa565b601360205260009081526040902080546001820154600283015460039093015491926001600160a01b039182169290911684565b604080519485526001600160a01b039384166020860152840191909152166060820152608001610380565b6103766107203660046158fa565b600b6020526000908152604090205481565b61034e610740366004615c6f565b612765565b61034e61075336600461598c565b6127e3565b6105456107663660046158fa565b612897565b61034e6107793660046158fa565b612adb565b61037661078c3660046158fa565b600a6020526000908152604090205481565b61040f6107ac366004615c6f565b6000602081905290815260409020546001600160a01b031681565b6103766107d53660046158fa565b6001600160a01b031660009081526009602052604090205490565b61034e6107fe366004615c6f565b612c0c565b61037660065481565b6040517fb4ed0b6d000000000000000000000000000000000000000000000000000000008152600481018290527f00000000000000000000000000000000000000000000000000000000000000006001600160a01b03169063b4ed0b6d9060240160206040518083038186803b15801561088557600080fd5b505afa158015610899573d6000803e3d6000fd5b505050506040513d601f19601f820116820180604052508101906108bd9190615916565b60009182526020829052604090912080547fffffffffffffffffffffffff0000000000000000000000000000000000000000166001600160a01b03909216919091179055565b60005b80825111156109f757600082828151811061093157634e487b7160e01b600052603260045260246000fd5b60200260200101519050600060136000836001600160a01b03166001600160a01b03168152602001908152602001600020905060155481600001546109769190615e30565b4311156109e25761098681612c8a565b506001600160a01b03821660009081526013602052604081208181556001810180547fffffffffffffffffffffffff00000000000000000000000000000000000000009081169091556002820192909255600301805490911690555b505080806109ef90615eb5565b915050610906565b5050565b60007f00000000000000000000000000000000000000000000000000000000000000006001600160a01b0316836001600160a01b03161415610a3e575080610b5b565b6001600160a01b03831660009081526002602081815260408084209283018054825181850281018501909352808352939493610b19938893929190830182828015610ab257602002820191906000526020600020905b81546001600160a01b03168152600190910190602001808311610a94575b505050505084600401805480602002602001604051908101604052809291908181526020018280548015610b0f57602002820191906000526020600020905b81546001600160a01b03168152600190910190602001808311610af1575b5050505050612f4d565b905060008160018351610b2c9190615e87565b81518110610b4a57634e487b7160e01b600052603260045260246000fd5b602002602001015190508093505050505b92915050565b33610b6a613159565b6001600160a01b03161480610b8e575033610b836131f2565b6001600160a01b0316145b610bdf5760405162461bcd60e51b815260206004820152601e60248201527f526f6c65733a2063616c6c6572206973206e6f7420746865206f776e6572000060448201526064015b60405180910390fd5b601755565b33610bed613159565b6001600160a01b03161480610c11575033610c066131f2565b6001600160a01b0316145b610c5d5760405162461bcd60e51b815260206004820152601e60248201527f526f6c65733a2063616c6c6572206973206e6f7420746865206f776e657200006044820152606401610bd6565b600855565b33610c6b613159565b6001600160a01b03161480610c8f575033610c846131f2565b6001600160a01b0316145b610cdb5760405162461bcd60e51b815260206004820152601e60248201527f526f6c65733a2063616c6c6572206973206e6f7420746865206f776e657200006044820152606401610bd6565b600655565b33610ce9613159565b6001600160a01b03161480610d0d575033610d026131f2565b6001600160a01b0316145b80610d3357503360009081526001602090815260408083206009845290915290205460ff165b610da55760405162461bcd60e51b815260206004820152603960248201527f43616c6c6572206973206e6f7420746865206f776e65722c206578656375746f60448201527f72206f7220617574686f72697a656420616374697661746f72000000000000006064820152608401610bd6565b6001600160a01b039091166000908152600a6020526040902055565b3360009081526001602090815260408083206004845290915290205460ff16610e525760405162461bcd60e51b815260206004820152602a60248201527f43616c6c696e6720636f6e7472616374206e6f7420617574686f72697a65642060448201527f746f206465706f736974000000000000000000000000000000000000000000006064820152608401610bd6565b6001600160a01b0385166000908152600960205260409020610e75818686613263565b610e80818484613339565b610e8b818484613466565b4390555050505050565b6001600160a01b0381166000908152600960205260408120610ec16001820160028301600384016135f8565b9150505b919050565b33610ed3613159565b6001600160a01b03161480610ef7575033610eec6131f2565b6001600160a01b0316145b80610f1d57503360009081526001602090815260408083206009845290915290205460ff165b610f8f5760405162461bcd60e51b815260206004820152603960248201527f43616c6c6572206973206e6f7420746865206f776e65722c206578656375746f60448201527f72206f7220617574686f72697a656420616374697661746f72000000000000006064820152608401610bd6565b600081600081518110610fb257634e487b7160e01b600052603260045260246000fd5b60200260200101519050600060026000836001600160a01b03166001600160a01b031681526020019081526020016000209050835167ffffffffffffffff81111561100d57634e487b7160e01b600052604160045260246000fd5b604051908082528060200260200182016040528015611036578160200160208202803683370190505b50805161104d9160028401916020909101906157b1565b50835167ffffffffffffffff81111561107657634e487b7160e01b600052604160045260246000fd5b60405190808252806020026020018201604052801561109f578160200160208202803683370190505b5080516110b69160038401916020909101906157b1565b50825167ffffffffffffffff8111156110df57634e487b7160e01b600052604160045260246000fd5b604051908082528060200260200182016040528015611108578160200160208202803683370190505b50805161111f9160048401916020909101906157b1565b50825167ffffffffffffffff81111561114857634e487b7160e01b600052604160045260246000fd5b604051908082528060200260200182016040528015611171578160200160208202803683370190505b5080516111889160058401916020909101906157b1565b5060005b80855111156112c4578481815181106111b557634e487b7160e01b600052603260045260246000fd5b60200260200101518260020182815481106111e057634e487b7160e01b600052603260045260246000fd5b9060005260206000200160006101000a8154816001600160a01b0302191690836001600160a01b0316021790555084600182875161121e9190615e87565b6112289190615e87565b8151811061124657634e487b7160e01b600052603260045260246000fd5b602002602001015182600301828154811061127157634e487b7160e01b600052603260045260246000fd5b600091825260209091200180547fffffffffffffffffffffffff0000000000000000000000000000000000000000166001600160a01b0392909216919091179055806112bc81615eb5565b91505061118c565b5060005b8084511115611400578381815181106112f157634e487b7160e01b600052603260045260246000fd5b602002602001015182600401828154811061131c57634e487b7160e01b600052603260045260246000fd5b9060005260206000200160006101000a8154816001600160a01b0302191690836001600160a01b0316021790555083600182865161135a9190615e87565b6113649190615e87565b8151811061138257634e487b7160e01b600052603260045260246000fd5b60200260200101518260050182815481106113ad57634e487b7160e01b600052603260045260246000fd5b600091825260209091200180547fffffffffffffffffffffffff0000000000000000000000000000000000000000166001600160a01b0392909216919091179055806113f881615eb5565b9150506112c8565b506000611417683635c9adc5dea00000868661367c565b905060008160008151811061143c57634e487b7160e01b600052603260045260246000fd5b6020026020010151905061145d8382683635c9adc5dea000006103e861388a565b505050505050565b33600090815260016020908152604080832060048452909152812054819060ff166114f85760405162461bcd60e51b815260206004820152603960248201527f43616c6c696e6720636f6e7472616374206973206e6f7420616e20617574686f60448201527f72697a6564206d617267696e20747261646572206167656e74000000000000006064820152608401610bd6565b6001600160a01b03808816600090815260096020908152604080832093891683526002840190915290205415611589576001600160a01b038616600090815260028201602052604090205461154e908590613901565b925061155b818785613919565b6001600160a01b0386166000908152600b602052604081208054859290611583908490615e87565b90915550505b6001600160a01b0387166000908152600c6020526040812080548792906115b1908490615e87565b909155506115c190508385615e87565b6001600160a01b0387166000908152600c6020526040812080549091906115e9908490615e30565b90915550506001600160a01b0386166000908152600c6020908152604080832054600a9092529091205410156116875760405162461bcd60e51b815260206004820152603960248201527f457863656564696e6720676c6f62616c206578706f737572652063617020746f60448201527f20746f6b656e202d2d2074727920616761696e206c61746572000000000000006064820152608401610bd6565b6001600160a01b038716600090815260058201602052604090205485908111156117a757506001600160a01b03871660009081526005820160205260409020546116d18187615e87565b6001600160a01b0389166000908152600b60205260408120805492955085929091906116fe908490615e30565b90915550506001600160a01b0388166000908152600b6020908152604080832054600a90925290912054101561179c5760405162461bcd60e51b815260206004820152603960248201527f457863656564696e6720676c6f62616c206578706f737572652063617020746f60448201527f20746f6b656e202d2d2074727920616761696e206c61746572000000000000006064820152608401610bd6565b6117a7828985613cdb565b6117b48289898489613fe9565b50509550959350505050565b336117c9613159565b6001600160a01b031614806117ed5750336117e26131f2565b6001600160a01b0316145b6118395760405162461bcd60e51b815260206004820152601e60248201527f526f6c65733a2063616c6c6572206973206e6f7420746865206f776e657200006044820152606401610bd6565b600555565b6001600160a01b0381166000908152600960209081526040918290206004810180548451818502810185019095528085526060948594909291908301828280156118b157602002820191906000526020600020905b81546001600160a01b03168152600190910190602001808311611893575b5050506004840154929550505067ffffffffffffffff8111156118e457634e487b7160e01b600052604160045260246000fd5b60405190808252806020026020018201604052801561190d578160200160208202803683370190505b50915060005b80845111156119ae57600084828151811061193e57634e487b7160e01b600052603260045260246000fd5b60200260200101519050826005016000826001600160a01b03166001600160a01b031681526020019081526020016000205484838151811061199057634e487b7160e01b600052603260045260246000fd5b602090810291909101015250806119a681615eb5565b915050611913565b5050915091565b6040517f93552a3d000000000000000000000000000000000000000000000000000000008152600481018390526001600160a01b0382811660248301527f000000000000000000000000000000000000000000000000000000000000000016906393552a3d9060440160206040518083038186803b158015611a3657600080fd5b505afa158015611a4a573d6000803e3d6000fd5b505050506040513d601f19601f82011682018060405250810190611a6e9190615bee565b6001600160a01b039190911660009081526001602090815260408083209483529390529190912080547fffffffffffffffffffffffffffffffffffffffffffffffffffffffffffffff0016911515919091179055565b3360009081526001602090815260408083206004845290915290205460ff16611b555760405162461bcd60e51b815260206004820152602a60248201527f43616c6c696e6720636f6e7472616374206e6f7420617574686f72697a65642060448201527f746f206465706f736974000000000000000000000000000000000000000000006064820152608401610bd6565b6001600160a01b0383166000908152600960205260409020611b78818484613339565b50505050565b3360009081526001602090815260408083206004845290915281205460ff16611c0f5760405162461bcd60e51b815260206004820152602a60248201527f43616c6c696e6720636f6e7472616374206e6f7420617574686f72697a65642060448201527f746f206465706f736974000000000000000000000000000000000000000000006064820152608401610bd6565b6001600160a01b03808516600090815260096020908152604080832043815593871683526002840190915290205415611ca3576001600160a01b0384166000908152600282016020526040902054611c68908490613901565b9150611c75818584613919565b6001600160a01b0384166000908152600b602052604081208054849290611c9d908490615e87565b90915550505b6000611caf8385615e87565b9050611cbc828683613263565b50509392505050565b33611cce613159565b6001600160a01b03161480611cf2575033611ce76131f2565b6001600160a01b0316145b611d3e5760405162461bcd60e51b815260206004820152601e60248201527f526f6c65733a2063616c6c6572206973206e6f7420746865206f776e657200006044820152606401610bd6565b600455565b6001600160a01b03831660009081526002602052604081208215611d9957600354815461ffff90911690611d779043615e87565b1115611d8f57611d87858561403c565b915050611dfa565b611d8785856109fb565b6001810154611dac57611d87858561403c565b600354815461ffff90911690611dc29043615e87565b1115611dd457611dd2858561403c565b505b6001810154611dec85683635c9adc5dea00000615e68565b611df69190615e48565b9150505b9392505050565b33611e0a613159565b6001600160a01b03161480611e2e575033611e236131f2565b6001600160a01b0316145b611e7a5760405162461bcd60e51b815260206004820152601e60248201527f526f6c65733a2063616c6c6572206973206e6f7420746865206f776e657200006044820152606401610bd6565b600755565b33611e88613159565b6001600160a01b03161480611eac575033611ea16131f2565b6001600160a01b0316145b611ef85760405162461bcd60e51b815260206004820152601e60248201527f526f6c65733a2063616c6c6572206973206e6f7420746865206f776e657200006044820152606401610bd6565b600380547fffffffffffffffffffffffffffffffffffffffffffffffffffffffffffff00001661ffff92909216919091179055565b6001600160a01b0381166000908152600960205260408120610ec160048201600583016141bd565b33611f5e613159565b6001600160a01b03161480611f82575033611f776131f2565b6001600160a01b0316145b611fce5760405162461bcd60e51b815260206004820152601e60248201527f526f6c65733a2063616c6c6572206973206e6f7420746865206f776e657200006044820152606401610bd6565b601555565b600033321461204a5760405162461bcd60e51b815260206004820152603a60248201527f43757272656e746c79206e6f20696e7465726d656469617269657320616c6c6f60448201527f77656420666f7220746869732066756e6374696f6e2063616c6c0000000000006064820152608401610bd6565b6000612087606b60009081526020527f2dc7a963308417ad45132da282495eb244f38a7db03940a4d808be607669c622546001600160a01b031690565b6040517f7b23cbce0000000000000000000000000000000000000000000000000000000081523360048201526001600160a01b039190911690637b23cbce90602401602060405180830381600087803b1580156120e357600080fd5b505af11580156120f7573d6000803e3d6000fd5b505050506040513d601f19601f8201168201806040525081019061211b9190615bee565b90506000818061212e575061212e614248565b905061213a8483614328565b925060006121466148aa565b90506000612152614986565b905081606460165460646121669190615e30565b6121709084615e68565b61217a9190615e48565b11156121e3577f3555ffae7677eb42103f0b9e11b61c758f452fae446684dec7a363dd38ab58fc82606460165460646121b39190615e30565b6121bd9085615e68565b6121c79190615e48565b6121d19190615e87565b60405190815260200160405180910390a15b60008361229457606b60009081526020527f2dc7a963308417ad45132da282495eb244f38a7db03940a4d808be607669c622546001600160a01b03166001600160a01b0316631a38de1d6040518163ffffffff1660e01b8152600401602060405180830381600087803b15801561225957600080fd5b505af115801561226d573d6000803e3d6000fd5b505050506040513d601f19601f820116820180604052508101906122919190615916565b90505b60005b6011548110156124fa576000601182815481106122c457634e487b7160e01b600052603260045260246000fd5b60009182526020808320909101546001600160a01b0316808352600990915260408220909250906122f6826001614a5f565b90506000612305836001614a72565b905060006064601654836123199190615e68565b6123239190615e48565b905061232f818d615e30565b9b508961239c576001600160a01b03858116600090815260136020526040902060028101839055600381018054337fffffffffffffffffffffffff000000000000000000000000000000000000000091821617909155438255600190910180549091169189169190911790555b6123a68282615e30565b831061249d57606560009081526020527f4a7203f705e51df4a56139a9b86b4a0970bed7ab7a3446eaffe2289989c1645c546001600160a01b031663d9caed127f000000000000000000000000000000000000000000000000000000000000000087846124138789615e87565b61241d9190615e87565b6040517fffffffff0000000000000000000000000000000000000000000000000000000060e086901b1681526001600160a01b0393841660048201529290911660248301526044820152606401600060405180830381600087803b15801561248457600080fd5b505af1158015612498573d6000803e3d6000fd5b505050505b6040516001600160a01b03861681527f1d2cc4c8661a04a00b4e727426220501b36d85bb330947642c2d4320667028cf9060200160405180910390a16124e284614a89565b505050505080806124f290615eb5565b915050612297565b50606486601454606361250d9190615e68565b6125179190615e30565b6125219190615e48565b601455831561260357606560009081526020527f4a7203f705e51df4a56139a9b86b4a0970bed7ab7a3446eaffe2289989c1645c546001600160a01b03166040517fd9caed120000000000000000000000000000000000000000000000000000000081526001600160a01b037f00000000000000000000000000000000000000000000000000000000000000008116600483015233602483015260448201899052919091169063d9caed1290606401600060405180830381600087803b1580156125ea57600080fd5b505af11580156125fe573d6000803e3d6000fd5b505050505b6000612640606b60009081526020527f2dc7a963308417ad45132da282495eb244f38a7db03940a4d808be607669c622546001600160a01b031690565b6001600160a01b0316631a38de1d6040518163ffffffff1660e01b8152600401602060405180830381600087803b15801561267a57600080fd5b505af115801561268e573d6000803e3d6000fd5b505050506040513d601f19601f820116820180604052508101906126b29190615916565b9050851561272c576001600160a01b03811660009081526012602052604090205487101561270d576001600160a01b03811660009081526012602052604081208054899290612702908490615e87565b909155506127279050565b6001600160a01b0381166000908152601260205260408120555b61275a565b6001600160a01b03811660009081526012602052604081208054899290612754908490615e30565b90915550505b505050505050919050565b3361276e613159565b6001600160a01b031614806127925750336127876131f2565b6001600160a01b0316145b6127de5760405162461bcd60e51b815260206004820152601e60248201527f526f6c65733a2063616c6c6572206973206e6f7420746865206f776e657200006044820152606401610bd6565b601655565b3360009081526001602090815260408083206004845290915290205460ff166128745760405162461bcd60e51b815260206004820152602a60248201527f43616c6c696e6720636f6e7472616374206e6f7420617574686f72697a65642060448201527f746f206465706f736974000000000000000000000000000000000000000000006064820152608401610bd6565b6001600160a01b0383166000908152600960205260409020611b78818484613466565b6001600160a01b03811660009081526009602090815260409182902060018101805484518185028101850190955280855260609485949092919083018282801561290a57602002820191906000526020600020905b81546001600160a01b031681526001909101906020018083116128ec575b5050506001840154929550505067ffffffffffffffff81111561293d57634e487b7160e01b600052604160045260246000fd5b604051908082528060200260200182016040528015612966578160200160208202803683370190505b50915060005b80845111156119ae57600084828151811061299757634e487b7160e01b600052603260045260246000fd5b602002602001015190506129dc606660009081526020527f422cccb7cea5c0e46f340bb7b21b81debac329f72e31669c20ff0f3a05cc2b5b546001600160a01b031690565b6001600160a01b03828116600081815260028701602090815260408083205460038a01909252918290205491517f687680ed00000000000000000000000000000000000000000000000000000000815260048101919091526024810192909252604482015291169063687680ed9060640160206040518083038186803b158015612a6557600080fd5b505afa158015612a79573d6000803e3d6000fd5b505050506040513d601f19601f82011682018060405250810190612a9d9190615c87565b848381518110612abd57634e487b7160e01b600052603260045260246000fd5b60209081029190910101525080612ad381615eb5565b91505061296c565b3360009081526001602090815260408083206004845290915290205460ff16612b6c5760405162461bcd60e51b815260206004820152603960248201527f43616c6c696e6720636f6e7472616374206973206e6f7420616e20617574686f60448201527f72697a6564206d617267696e20747261646572206167656e74000000000000006064820152608401610bd6565b6001600160a01b038116600090815260096020526040812090612b90908290614a72565b15612c035760405162461bcd60e51b815260206004820152602b60248201527f43616e2774206c69717569646174652063757272656e746c7920626f72726f7760448201527f696e67206163636f756e740000000000000000000000000000000000000000006064820152608401610bd6565b6109f781614a89565b33612c15613159565b6001600160a01b03161480612c39575033612c2e6131f2565b6001600160a01b0316145b612c855760405162461bcd60e51b815260206004820152601e60248201527f526f6c65733a2063616c6c6572206973206e6f7420746865206f776e657200006044820152606401610bd6565b600d55565b600281015460009015610ec5578154600090612cb290612caa9043615e87565b601554613901565b90506000601554828560020154612cc99190615e68565b612cd39190615e48565b9050612d10606560009081526020527f4a7203f705e51df4a56139a9b86b4a0970bed7ab7a3446eaffe2289989c1645c546001600160a01b031690565b60038501546040517fd9caed120000000000000000000000000000000000000000000000000000000081526001600160a01b037f00000000000000000000000000000000000000000000000000000000000000008116600483015291821660248201526044810184905291169063d9caed1290606401600060405180830381600087803b158015612da057600080fd5b505af1158015612db4573d6000803e3d6000fd5b505050506000612df5606b60009081526020527f2dc7a963308417ad45132da282495eb244f38a7db03940a4d808be607669c622546001600160a01b031690565b9050600060145483836001600160a01b0316630ad691506040518163ffffffff1660e01b815260040160206040518083038186803b158015612e3657600080fd5b505afa158015612e4a573d6000803e3d6000fd5b505050506040513d601f19601f82011682018060405250810190612e6e9190615c87565b612e789190615e68565b612e829190615e48565b600187015460038801546040517f0a45bc1b0000000000000000000000000000000000000000000000000000000081526001600160a01b039283166004820152602481018490529082166044820152919250831690630a45bc1b90606401602060405180830381600087803b158015612efa57600080fd5b505af1158015612f0e573d6000803e3d6000fd5b505050506040513d601f19601f82011682018060405250810190612f329190615c87565b50828660020154612f439190615e87565b9695505050505050565b6060600183511015612fa15760405162461bcd60e51b815260206004820152601260248201527f706169727320697320746f6f2073686f727400000000000000000000000000006044820152606401610bd6565b815167ffffffffffffffff811115612fc957634e487b7160e01b600052604160045260246000fd5b604051908082528060200260200182016040528015612ff2578160200160208202803683370190505b509050838160008151811061301757634e487b7160e01b600052603260045260246000fd5b60200260200101818152505060005b600183516130349190615e87565b81101561315157600084828151811061305d57634e487b7160e01b600052603260045260246000fd5b602002602001015190506000806130cf8387868151811061308e57634e487b7160e01b600052603260045260246000fd5b6020026020010151888760016130a49190615e30565b815181106130c257634e487b7160e01b600052603260045260246000fd5b6020026020010151614c37565b915091506131058585815181106130f657634e487b7160e01b600052603260045260246000fd5b60200260200101518383614d14565b85613111866001615e30565b8151811061312f57634e487b7160e01b600052603260045260246000fd5b602002602001018181525050505050808061314990615eb5565b915050613026565b509392505050565b60007f00000000000000000000000000000000000000000000000000000000000000006001600160a01b0316638da5cb5b6040518163ffffffff1660e01b815260040160206040518083038186803b1580156131b457600080fd5b505afa1580156131c8573d6000803e3d6000fd5b505050506040513d601f19601f820116820180604052508101906131ec9190615916565b90505b90565b60007f00000000000000000000000000000000000000000000000000000000000000006001600160a01b031663c34c08e56040518163ffffffff1660e01b8152600401602060405180830381600087803b15801561324f57600080fd5b505af11580156131c8573d6000803e3d6000fd5b61326e838383614e5b565b6001600160a01b0382166000908152600c602052604081208054839290613296908490615e30565b90915550506001600160a01b0382166000908152600c6020908152604080832054600a9092529091205410156133345760405162461bcd60e51b815260206004820152603960248201527f457863656564696e6720676c6f62616c206578706f737572652063617020746f60448201527f20746f6b656e202d2d2074727920616761696e206c61746572000000000000006064820152608401610bd6565b505050565b6001600160a01b0382166000908152600b602052604081208054839290613361908490615e30565b90915550506001600160a01b0382166000908152600c60205260408120805483929061338e908490615e30565b90915550506001600160a01b0382166000908152600b6020908152604080832054600a90925290912054108015906133e957506001600160a01b0382166000908152600c6020908152604080832054600a9092529091205410155b61345b5760405162461bcd60e51b815260206004820152603960248201527f457863656564696e6720676c6f62616c206578706f737572652063617020746f60448201527f20746f6b656e202d2d2074727920616761696e206c61746572000000000000006064820152608401610bd6565b613334838383613cdb565b600d5483546134759190615e30565b431161350f5760405162461bcd60e51b815260206004820152605260248201527f546f2070726576656e742061747461636b7320796f75206d757374207761697460448201527f20756e74696c20796f757220636f6f6c696e67206f666620706572696f64206960648201527f73206f76657220746f2077697468647261770000000000000000000000000000608482015260a401610bd6565b6001600160a01b0382166000908152600c602052604081208054839290613537908490615e87565b90915550506001600160a01b0382166000908152600584016020526040902054613562908290615e87565b6001600160a01b038316600090815260058501602052604090205561358683614efa565b6133345760405162461bcd60e51b815260206004820152602660248201527f4163636f756e742062616c616e636520697320746f6f206c6f7720746f20776960448201527f74686472617700000000000000000000000000000000000000000000000000006064820152608401610bd6565b8254600090815b81811015611cbc57600086828154811061362957634e487b7160e01b600052603260045260246000fd5b60009182526020808320909101546001600160a01b03168083529088905260409091205490915061365c90829087614f4a565b6136669085615e30565b935050808061367490615eb5565b9150506135ff565b60606001835110156136d05760405162461bcd60e51b815260206004820152601260248201527f706169727320697320746f6f2073686f727400000000000000000000000000006044820152606401610bd6565b815167ffffffffffffffff8111156136f857634e487b7160e01b600052604160045260246000fd5b604051908082528060200260200182016040528015613721578160200160208202803683370190505b5090508381600183516137349190615e87565b8151811061375257634e487b7160e01b600052603260045260246000fd5b60200260200101818152505060006001835161376e9190615e87565b90505b801561315157600084613785600184615e87565b815181106137a357634e487b7160e01b600052603260045260246000fd5b6020026020010151905060008061380883876001876137c29190615e87565b815181106137e057634e487b7160e01b600052603260045260246000fd5b60200260200101518887815181106130c257634e487b7160e01b600052603260045260246000fd5b9150915061383e85858151811061382f57634e487b7160e01b600052603260045260246000fd5b60200260200101518383615059565b8561384a600187615e87565b8151811061386857634e487b7160e01b600052603260045260246000fd5b602002602001018181525050505050808061388290615e9e565b915050613771565b6000613897836001615e30565b6138aa85683635c9adc5dea00000615e68565b6138b49190615e48565b90506103e86138c38383615e68565b6138cf846103e8615e87565b87600101546138de9190615e68565b6138e89190615e30565b6138f29190615e48565b85600101819055505050505050565b600081831115613912575080610b5b565b5081610b5b565b606660009081526020527f422cccb7cea5c0e46f340bb7b21b81debac329f72e31669c20ff0f3a05cc2b5b546001600160a01b03166001600160a01b03838116600081815260028701602090815260408083205460038a01909252918290205491517fe695fa6800000000000000000000000000000000000000000000000000000000815260048101919091526024810192909252604482015291169063e695fa6890606401602060405180830381600087803b1580156139d957600080fd5b505af11580156139ed573d6000803e3d6000fd5b505050506040513d601f19601f82011682018060405250810190613a119190615c87565b6001600160a01b03831660009081526002850160205260409020819055613a39908290615e87565b6001600160a01b03831660009081526002850160209081526040808320939093556005860190522054613a6d908290615e87565b6001600160a01b0383166000908152600585016020908152604080832093909355600286019052205415613b8457606660009081526020527f422cccb7cea5c0e46f340bb7b21b81debac329f72e31669c20ff0f3a05cc2b5b546001600160a01b03166040517fe5ea66060000000000000000000000000000000000000000000000000000000081526001600160a01b038481166004830152919091169063e5ea66069060240160206040518083038186803b158015613b2c57600080fd5b505afa158015613b40573d6000803e3d6000fd5b505050506040513d601f19601f82011682018060405250810190613b649190615c87565b6001600160a01b0383166000908152600385016020526040902055613334565b6001600160a01b038216600090815260038401602052604081208190556001840154815b80821115613c78576000866001018281548110613bd557634e487b7160e01b600052603260045260246000fd5b6000918252602090912001546001600160a01b0390811691508616811415613c005760019350613c65565b8315613c65578087600101600184613c189190615e87565b81548110613c3657634e487b7160e01b600052603260045260246000fd5b9060005260206000200160006101000a8154816001600160a01b0302191690836001600160a01b031602179055505b5080613c7081615eb5565b915050613ba8565b5084600101805480613c9a57634e487b7160e01b600052603160045260246000fd5b600082815260209020810160001990810180547fffffffffffffffffffffffff00000000000000000000000000000000000000001690550190555050505050565b6001600160a01b0382166000908152600384016020526040902054613d46576001838101805491820181556000908152602090200180547fffffffffffffffffffffffff0000000000000000000000000000000000000000166001600160a01b038416179055613e5a565b606660009081526020527f422cccb7cea5c0e46f340bb7b21b81debac329f72e31669c20ff0f3a05cc2b5b546001600160a01b03166001600160a01b03838116600081815260028701602090815260408083205460038a01909252918290205491517fe695fa6800000000000000000000000000000000000000000000000000000000815260048101919091526024810192909252604482015291169063e695fa6890606401602060405180830381600087803b158015613e0657600080fd5b505af1158015613e1a573d6000803e3d6000fd5b505050506040513d601f19601f82011682018060405250810190613e3e9190615c87565b6001600160a01b03831660009081526002850160205260409020555b606660009081526020527f422cccb7cea5c0e46f340bb7b21b81debac329f72e31669c20ff0f3a05cc2b5b546001600160a01b03166040517fe5ea66060000000000000000000000000000000000000000000000000000000081526001600160a01b038481166004830152919091169063e5ea66069060240160206040518083038186803b158015613eeb57600080fd5b505afa158015613eff573d6000803e3d6000fd5b505050506040513d601f19601f82011682018060405250810190613f239190615c87565b6001600160a01b03831660009081526003850160209081526040808320939093556002860190529081208054839290613f5d908490615e30565b90915550613f6e9050838383614e5b565b613f7783614efa565b6133345760405162461bcd60e51b815260206004820152602260248201527f43616e277420626f72726f773a20696e73756666696369656e742062616c616e60448201527f63650000000000000000000000000000000000000000000000000000000000006064820152608401610bd6565b6001600160a01b038416600090815260058601602052604090205461400f908390615e87565b6001600160a01b0385166000908152600587016020526040902055614035858483614e5b565b5050505050565b60007f00000000000000000000000000000000000000000000000000000000000000006001600160a01b0316836001600160a01b0316141561407f575080610b5b565b6001600160a01b03831660009081526002602081815260408084209283018054825181850281018501909352808352939493614156938893929190830182828015610ab2576020028201919060005260206000209081546001600160a01b03168152600190910190602001808311610a9457505050505084600401805480602002602001604051908101604052809291908181526020018280548015610b0f576020028201919060005260206000209081546001600160a01b03168152600190910190602001808311610af1575050505050612f4d565b9050600081600183516141699190615e87565b8151811061418757634e487b7160e01b600052603260045260246000fd5b60200260200101519050600654811180156141a3575060055481105b156141b3576141b383868361519c565b9250610b5b915050565b8154600090815b818110156142405760008582815481106141ee57634e487b7160e01b600052603260045260246000fd5b60009182526020808320909101546001600160a01b0316808352908790526040909120549091506142209082906109fb565b61422a9085615e30565b935050808061423890615eb5565b9150506141c4565b505092915050565b600080614286606b60009081526020527f2dc7a963308417ad45132da282495eb244f38a7db03940a4d808be607669c622546001600160a01b031690565b6001600160a01b031663b0411f466040518163ffffffff1660e01b8152600401604080518083038186803b1580156142bd57600080fd5b505afa1580156142d1573d6000803e3d6000fd5b505050506040513d601f19601f820116820180604052508101906142f59190615a51565b5090506014546017546143089190615e68565b6001600160a01b0390911660009081526012602052604090205411905090565b60408051600080825260208201928390529051909161434a91600f91906157b1565b506040805160008152602081019182905251614368916010916157b1565b506040805160008152602081019182905251614386916011916157b1565b5060005b80845111156148a35760008482815181106143b557634e487b7160e01b600052603260045260246000fd5b60200260200101519050600060096000836001600160a01b03166001600160a01b0316815260200190815260200160002090506143f1816151b1565b15614859576011805460018101825560009182527f31ecc21a745e3968a04e9570e4425bc18fa8019c68028196b546d1669c200c680180547fffffffffffffffffffffffff0000000000000000000000000000000000000000166001600160a01b0385161790555b600482015481101561459157600082600401828154811061448a57634e487b7160e01b600052603260045260246000fd5b60009182526020808320909101546001600160a01b0316808352600e90915260409091206002810154919250904314614546576001600160a01b0382166000818152600586016020526040812054600180850191909155818455436002850155600f805491820181559091527f8d1108e10bcb7c27dddfc02ed9d693a074039d026cf4ea4240b40f7d581ac8020180547fffffffffffffffffffffffff000000000000000000000000000000000000000016909117905561457c565b6001600160a01b038216600090815260058501602052604081205460018301805491929091614576908490615e30565b90915550505b5050808061458990615eb5565b915050614459565b5060005b60018201548110156148575760008260010182815481106145c657634e487b7160e01b600052603260045260246000fd5b60009182526020808320909101546001600160a01b0316808352600e9091526040822090925090614628606660009081526020527f422cccb7cea5c0e46f340bb7b21b81debac329f72e31669c20ff0f3a05cc2b5b546001600160a01b031690565b6001600160a01b03848116600081815260028901602090815260408083205460038c01909252918290205491517fe695fa6800000000000000000000000000000000000000000000000000000000815260048101919091526024810192909252604482015291169063e695fa6890606401602060405180830381600087803b1580156146b357600080fd5b505af11580156146c7573d6000803e3d6000fd5b505050506040513d601f19601f820116820180604052508101906146eb9190615c87565b9050614728606660009081526020527f422cccb7cea5c0e46f340bb7b21b81debac329f72e31669c20ff0f3a05cc2b5b546001600160a01b031690565b6040517f2a6a897b0000000000000000000000000000000000000000000000000000000081526001600160a01b038581166004830152602482018490529190911690632a6a897b90604401600060405180830381600087803b15801561478d57600080fd5b505af11580156147a1573d6000803e3d6000fd5b505050504382600201541461482757600060018381018290558284554360028501556010805491820181559091527f1b6847dc741a1b0cd08d278845f9d819d87b734759afb55fe2de5cb82a9ae6720180547fffffffffffffffffffffffff0000000000000000000000000000000000000000166001600160a01b038516179055614841565b8082600001600082825461483b9190615e30565b90915550505b505050808061484f90615eb5565b915050614595565b505b6001600160a01b0382166000908152601360205260409020851561488d5761488081612c8a565b61488a9086615e30565b94505b505050808061489b90615eb5565b91505061438a565b5092915050565b6000805b600f54811015614979576000600f82815481106148db57634e487b7160e01b600052603260045260246000fd5b60009182526020808320909101546001600160a01b0316808352600e90915260409091208054600182015492935090911115614964578054600182015460009161492491615e87565b905061493083826151e9565b61493a9086615e30565b6001600160a01b0384166000908152600e6020526040812081815560018101829055600201559450505b5050808061497190615eb5565b9150506148ae565b506131ef600f600061582e565b6000805b601054811015614a52576000601082815481106149b757634e487b7160e01b600052603260045260246000fd5b60009182526020808320909101546001600160a01b0316808352600e90915260409091206001810154815492935090911115614a3d57614a0a8282600101548360000154614a059190615e87565b61532c565b614a149085615e30565b6001600160a01b0383166000908152600e60205260408120818155600181018290556002015593505b50508080614a4a90615eb5565b91505061498a565b506131ef6010600061582e565b6000611dfa8360040184600501846154a4565b6000611dfa83600101846002018560030185615528565b600181015460005b80821115614b3e576000836001018281548110614abe57634e487b7160e01b600052603260045260246000fd5b60009182526020808320909101546001600160a01b0316808352600287018252604080842054600b90935283208054919450919290614afe908490615e87565b90915550506001600160a01b0316600090815260028401602090815260408083208390556003860190915281205580614b3681615eb5565b915050614a91565b5050600481015460005b80821115614c1a576000836004018281548110614b7557634e487b7160e01b600052603260045260246000fd5b60009182526020808320909101546001600160a01b0316808352600587018252604080842054600c90935283208054919450919290614bb5908490615e87565b90915550506001600160a01b03166000908152600584016020908152604080832083905560068601909152902080547fffffffffffffffffffffffffffffffffffffffffffffffffffffffffffffff0016905580614c1281615eb5565b915050614b48565b50614c2960018301600061582e565b6109f760048301600061582e565b6000806000614c4685856155b7565b509050600080876001600160a01b0316630902f1ac6040518163ffffffff1660e01b815260040160606040518083038186803b158015614c8557600080fd5b505afa158015614c99573d6000803e3d6000fd5b505050506040513d601f19601f82011682018060405250810190614cbd9190615c0a565b506dffffffffffffffffffffffffffff1691506dffffffffffffffffffffffffffff169150826001600160a01b0316876001600160a01b031614614d02578082614d05565b81815b90999098509650505050505050565b6000808411614d8b5760405162461bcd60e51b815260206004820152602b60248201527f556e697377617056324c6962726172793a20494e53554646494349454e545f4960448201527f4e5055545f414d4f554e540000000000000000000000000000000000000000006064820152608401610bd6565b600083118015614d9b5750600082115b614e0d5760405162461bcd60e51b815260206004820152602860248201527f556e697377617056324c6962726172793a20494e53554646494349454e545f4c60448201527f49515549444954590000000000000000000000000000000000000000000000006064820152608401610bd6565b6000614e1b856103e5615e68565b90506000614e298483615e68565b9050600082614e3a876103e8615e68565b614e449190615e30565b9050614e508183615e48565b979650505050505050565b6001600160a01b038216600090815260068401602052604090205460ff16614ec657600483018054600181018255600091825260209091200180547fffffffffffffffffffffffff0000000000000000000000000000000000000000166001600160a01b0384161790555b6001600160a01b038216600090815260058401602052604081208054839290614ef0908490615e30565b9091555050505050565b600080614f08836000614a72565b90506000614f17846000614a5f565b905060075482614f279190615e68565b6064600754614f369190615e87565b614f409083615e68565b1015949350505050565b600080614f88606660009081526020527f422cccb7cea5c0e46f340bb7b21b81debac329f72e31669c20ff0f3a05cc2b5b546001600160a01b031690565b6040517fe5ea66060000000000000000000000000000000000000000000000000000000081526001600160a01b038781166004830152919091169063e5ea66069060240160206040518083038186803b158015614fe457600080fd5b505afa158015614ff8573d6000803e3d6000fd5b505050506040513d601f19601f8201168201806040525081019061501c9190615c87565b6001600160a01b038616600090815260208590526040812054919250906150438387615e68565b61504d9190615e48565b9050612f4386826109fb565b60008084116150d05760405162461bcd60e51b815260206004820152602c60248201527f556e697377617056324c6962726172793a20494e53554646494349454e545f4f60448201527f55545055545f414d4f554e5400000000000000000000000000000000000000006064820152608401610bd6565b6000831180156150e05750600082115b6151525760405162461bcd60e51b815260206004820152602860248201527f556e697377617056324c6962726172793a20494e53554646494349454e545f4c60448201527f49515549444954590000000000000000000000000000000000000000000000006064820152608401610bd6565b600061515e8585615e68565b61516a906103e8615e68565b905060006103e561517b8786615e87565b6151859190615e87565b90506151918183615e48565b612f43906001615e30565b6151aa83838360045461388a565b5050439055565b6000806151bf836001614a72565b905060006151ce846001614a5f565b9050816008546151de9190615e68565b614f40826064615e68565b60007f00000000000000000000000000000000000000000000000000000000000000006001600160a01b0316836001600160a01b0316141561522c575080610b5b565b6001600160a01b038316600090815260026020526040812090615280606760009081526020527f682158d08466d11c566d5712d4396197fdd67e65be71d83c97ef719ec468867b546001600160a01b031690565b6001600160a01b031663808f671385600085600201866004016040518563ffffffff1660e01b81526004016152b89493929190615d8c565b600060405180830381600087803b1580156152d257600080fd5b505af11580156152e6573d6000803e3d6000fd5b505050506040513d6000823e601f3d9081017fffffffffffffffffffffffffffffffffffffffffffffffffffffffffffffffe0168201604052610b199190810190615b5b565b60007f00000000000000000000000000000000000000000000000000000000000000006001600160a01b0316836001600160a01b0316141561536f575080610b5b565b6001600160a01b0383166000908152600260205260408120906153c3606760009081526020527f682158d08466d11c566d5712d4396197fdd67e65be71d83c97ef719ec468867b546001600160a01b031690565b6001600160a01b0316634a2975998560001985600301866005016040518563ffffffff1660e01b81526004016153fc9493929190615d8c565b600060405180830381600087803b15801561541657600080fd5b505af115801561542a573d6000803e3d6000fd5b505050506040513d6000823e601f3d9081017fffffffffffffffffffffffffffffffffffffffffffffffffffffffffffffffe01682016040526154709190810190615b5b565b90508060008151811061549357634e487b7160e01b600052603260045260246000fd5b602002602001015192505050610b5b565b8254600090815b81811015611cbc5760008682815481106154d557634e487b7160e01b600052603260045260246000fd5b60009182526020808320909101546001600160a01b03168083529088905260409091205490915061550890829087611d43565b6155129085615e30565b935050808061552090615eb5565b9150506154ab565b8354600090815b818110156155ad57600087828154811061555957634e487b7160e01b600052603260045260246000fd5b60009182526020808320909101546001600160a01b03168083529089905260409091205490915061558d90829088886156a1565b6155979085615e30565b93505080806155a590615eb5565b91505061552f565b5050949350505050565b600080826001600160a01b0316846001600160a01b0316141561561c5760405162461bcd60e51b815260206004820152601260248201527f4964656e746963616c20616464726573732100000000000000000000000000006044820152606401610bd6565b826001600160a01b0316846001600160a01b03161061563c57828461563f565b83835b90925090506001600160a01b03821661569a5760405162461bcd60e51b815260206004820152600d60248201527f5a65726f206164647265737321000000000000000000000000000000000000006044820152606401610bd6565b9250929050565b6000806156df606660009081526020527f422cccb7cea5c0e46f340bb7b21b81debac329f72e31669c20ff0f3a05cc2b5b546001600160a01b031690565b6040517fe5ea66060000000000000000000000000000000000000000000000000000000081526001600160a01b038881166004830152919091169063e5ea66069060240160206040518083038186803b15801561573b57600080fd5b505afa15801561574f573d6000803e3d6000fd5b505050506040513d601f19601f820116820180604052508101906157739190615c87565b6001600160a01b0387166000908152602086905260408120549192509061579a8388615e68565b6157a49190615e48565b9050614e50878286611d43565b82805482825590600052602060002090810192821561581e579160200282015b8281111561581e57825182547fffffffffffffffffffffffff0000000000000000000000000000000000000000166001600160a01b039091161782556020909201916001909101906157d1565b5061582a92915061584f565b5090565b508054600082559060005260206000209081019061584c919061584f565b50565b5b8082111561582a5760008155600101615850565b600082601f830112615874578081fd5b8135602061588961588483615e0c565b615dbd565b80838252828201915082860187848660051b89010111156158a8578586fd5b855b858110156158cf5781356158bd81615efc565b845292840192908401906001016158aa565b5090979650505050505050565b80516dffffffffffffffffffffffffffff81168114610ec557600080fd5b60006020828403121561590b578081fd5b8135611dfa81615efc565b600060208284031215615927578081fd5b8151611dfa81615efc565b600080600080600060a08688031215615949578081fd5b853561595481615efc565b9450602086013561596481615efc565b9350604086013561597481615efc565b94979396509394606081013594506080013592915050565b6000806000606084860312156159a0578283fd5b83356159ab81615efc565b925060208401356159bb81615efc565b929592945050506040919091013590565b600080600080600060a086880312156159e3578081fd5b85356159ee81615efc565b945060208601356159fe81615efc565b9350604086013592506060860135615a1581615efc565b949793965091946080013592915050565b60008060408385031215615a38578182fd5b8235615a4381615efc565b946020939093013593505050565b60008060408385031215615a63578182fd5b8251615a6e81615efc565b6020939093015192949293505050565b600080600060608486031215615a92578283fd5b8335615a9d81615efc565b9250602084013591506040840135615ab481615f11565b809150509250925092565b600060208284031215615ad0578081fd5b813567ffffffffffffffff811115615ae6578182fd5b615af284828501615864565b949350505050565b60008060408385031215615b0c578182fd5b823567ffffffffffffffff80821115615b23578384fd5b615b2f86838701615864565b93506020850135915080821115615b44578283fd5b50615b5185828601615864565b9150509250929050565b60006020808385031215615b6d578182fd5b825167ffffffffffffffff811115615b83578283fd5b8301601f81018513615b93578283fd5b8051615ba161588482615e0c565b80828252848201915084840188868560051b8701011115615bc0578687fd5b8694505b83851015615be2578051835260019490940193918501918501615bc4565b50979650505050505050565b600060208284031215615bff578081fd5b8151611dfa81615f11565b600080600060608486031215615c1e578081fd5b615c27846158dc565b9250615c35602085016158dc565b9150604084015163ffffffff81168114615ab4578182fd5b600060208284031215615c5e578081fd5b813561ffff81168114611dfa578182fd5b600060208284031215615c80578081fd5b5035919050565b600060208284031215615c98578081fd5b5051919050565b60008060408385031215615cb1578182fd5b823591506020830135615cc381615efc565b809150509250929050565b6000815480845260208085019450838352808320835b83811015615d095781546001600160a01b031687529582019560019182019101615ce4565b509495945050505050565b604080825283519082018190526000906020906060840190828701845b82811015615d585781516001600160a01b0316845260208401935090840190600101615d31565b50505083810382850152845180825285830191830190845b818110156158cf57835183529284019291840191600101615d70565b600085825284602083015260806040830152615dab6080830185615cce565b8281036060840152614e508185615cce565b604051601f82017fffffffffffffffffffffffffffffffffffffffffffffffffffffffffffffffe016810167ffffffffffffffff81118282101715615e0457615e04615ee6565b604052919050565b600067ffffffffffffffff821115615e2657615e26615ee6565b5060051b60200190565b60008219821115615e4357615e43615ed0565b500190565b600082615e6357634e487b7160e01b81526012600452602481fd5b500490565b6000816000190483118215151615615e8257615e82615ed0565b500290565b600082821015615e9957615e99615ed0565b500390565b600081615ead57615ead615ed0565b506000190190565b6000600019821415615ec957615ec9615ed0565b5060010190565b634e487b7160e01b600052601160045260246000fd5b634e487b7160e01b600052604160045260246000fd5b6001600160a01b038116811461584c57600080fd5b801515811461584c57600080fdfea26469706673582212200e81fa08a0ad47832adcdc9564effb0fba63e300f51c2df73f92c0619046185c64736f6c63430008030033",
  "devdoc": {
    "kind": "dev",
    "methods": {
      "getBorrowAmounts(address)": {
        "details": "view function to display account borrowing state"
      },
      "getHoldingAmounts(address)": {
        "details": "view function to display account held assets state"
      },
      "getLastDepositBlock(address)": {
        "details": "last time this account deposited relevant for withdrawal window"
      },
      "registerBorrow(address,address,uint256)": {
        "details": "gets called by router to affirm borrowing event"
      },
      "registerDeposit(address,address,uint256)": {
        "details": "gets called by router to affirm a deposit to an account"
      },
      "registerLiquidation(address)": {
        "details": "can get called by router to register the dissolution of an account"
      },
      "registerOvercollateralizedBorrow(address,address,uint256,address,uint256)": {
        "details": "overcollateralized borrowing on a cross margin account, called by router"
      },
      "registerTradeAndBorrow(address,address,address,uint256,uint256)": {
        "details": "gets called by router to register a trade and borrow and extinguish as necessary"
      },
      "registerWithdrawal(address,address,uint256)": {
        "details": "gets called by router to affirm withdrawal of tokens from account"
      },
      "setCoolingOffPeriod(uint256)": {
        "details": "setter for cooling off period for withdrawing funds after deposit"
      },
      "setLeverage(uint256)": {
        "details": "admin function to set leverage"
      },
      "setLiquidationThresholdPercent(uint256)": {
        "details": "admin function to set liquidation threshold"
      },
      "setTokenCap(address,uint256)": {
        "details": "admin function to set the token cap"
      },
      "viewHoldingsInPeg(address)": {
        "details": "total of assets of account, expressed in reference currency"
      },
      "viewLoanInPeg(address)": {
        "details": "view function to get loan amount in peg"
      }
    },
    "version": 1
  },
  "userdoc": {
    "kind": "user",
    "methods": {
      "disburseLiqStakeAttacks(address[])": {
        "notice": "Disburse liquidity stake attacks"
      },
      "getCurrentPriceInPeg(address,uint256,bool)": {
        "notice": "Get current price of token in peg"
      },
      "liquidate(address[])": {
        "notice": "called by maintenance stakers to liquidate accounts below liquidation threshold"
      },
      "priceUpdateWindow()": {
        "notice": "update window in blocks"
      },
      "setFailureThreshold(uint256)": {
        "notice": "Set failure threshold"
      },
      "setLiqStakeAttackWindow(uint256)": {
        "notice": "Set liquidity stake attack window"
      },
      "setLiquidationPath(address[],address[])": {
        "notice": "add path from token to current liquidation peg"
      },
      "setMaintainerCutPercent(uint256)": {
        "notice": "Set maintainer's percent cut"
      },
      "setPriceUpdateWindow(uint16)": {
        "notice": "Set window for price updates"
      },
      "setUpdateRate(uint256)": {
        "notice": "Set rate for updates"
      },
      "viewCurrentPriceInPeg(address,uint256)": {
        "notice": "Get view of current price of token in peg"
      }
    },
    "version": 1
  },
  "storageLayout": {
    "storage": [
      {
        "astId": 11650,
        "contract": "contracts/CrossMarginTrading.sol:CrossMarginTrading",
        "label": "mainCharacterCache",
        "offset": 0,
        "slot": "0",
        "type": "t_mapping(t_uint256,t_address)"
      },
      {
        "astId": 11656,
        "contract": "contracts/CrossMarginTrading.sol:CrossMarginTrading",
        "label": "roleCache",
        "offset": 0,
        "slot": "1",
        "type": "t_mapping(t_address,t_mapping(t_uint256,t_bool))"
      },
      {
        "astId": 10935,
        "contract": "contracts/CrossMarginTrading.sol:CrossMarginTrading",
        "label": "tokenPrices",
        "offset": 0,
        "slot": "2",
        "type": "t_mapping(t_address,t_struct(TokenPrice)10925_storage)"
      },
      {
        "astId": 10939,
        "contract": "contracts/CrossMarginTrading.sol:CrossMarginTrading",
        "label": "priceUpdateWindow",
        "offset": 0,
        "slot": "3",
        "type": "t_uint16"
      },
      {
        "astId": 10942,
        "contract": "contracts/CrossMarginTrading.sol:CrossMarginTrading",
        "label": "UPDATE_RATE_PERMIL",
        "offset": 0,
        "slot": "4",
        "type": "t_uint256"
      },
      {
        "astId": 10945,
        "contract": "contracts/CrossMarginTrading.sol:CrossMarginTrading",
        "label": "UPDATE_MAX_PEG_AMOUNT",
        "offset": 0,
        "slot": "5",
        "type": "t_uint256"
      },
      {
        "astId": 10948,
        "contract": "contracts/CrossMarginTrading.sol:CrossMarginTrading",
        "label": "UPDATE_MIN_PEG_AMOUNT",
        "offset": 0,
        "slot": "6",
        "type": "t_uint256"
      },
      {
        "astId": 2441,
        "contract": "contracts/CrossMarginTrading.sol:CrossMarginTrading",
        "label": "leveragePercent",
        "offset": 0,
        "slot": "7",
        "type": "t_uint256"
      },
      {
        "astId": 2444,
        "contract": "contracts/CrossMarginTrading.sol:CrossMarginTrading",
        "label": "liquidationThresholdPercent",
        "offset": 0,
        "slot": "8",
        "type": "t_uint256"
      },
      {
        "astId": 2450,
        "contract": "contracts/CrossMarginTrading.sol:CrossMarginTrading",
        "label": "marginAccounts",
        "offset": 0,
        "slot": "9",
        "type": "t_mapping(t_address,t_struct(CrossMarginAccount)2434_storage)"
      },
      {
        "astId": 2455,
        "contract": "contracts/CrossMarginTrading.sol:CrossMarginTrading",
        "label": "tokenCaps",
        "offset": 0,
        "slot": "10",
        "type": "t_mapping(t_address,t_uint256)"
      },
      {
        "astId": 2460,
        "contract": "contracts/CrossMarginTrading.sol:CrossMarginTrading",
        "label": "totalShort",
        "offset": 0,
        "slot": "11",
        "type": "t_mapping(t_address,t_uint256)"
      },
      {
        "astId": 2465,
        "contract": "contracts/CrossMarginTrading.sol:CrossMarginTrading",
        "label": "totalLong",
        "offset": 0,
        "slot": "12",
        "type": "t_mapping(t_address,t_uint256)"
      },
      {
        "astId": 2467,
        "contract": "contracts/CrossMarginTrading.sol:CrossMarginTrading",
        "label": "coolingOffPeriod",
        "offset": 0,
        "slot": "13",
        "type": "t_uint256"
      },
      {
        "astId": 3383,
        "contract": "contracts/CrossMarginTrading.sol:CrossMarginTrading",
        "label": "liquidationAmounts",
        "offset": 0,
        "slot": "14",
        "type": "t_mapping(t_address,t_struct(Liquidation)3369_storage)"
      },
      {
        "astId": 3386,
        "contract": "contracts/CrossMarginTrading.sol:CrossMarginTrading",
        "label": "sellTokens",
        "offset": 0,
        "slot": "15",
        "type": "t_array(t_address)dyn_storage"
      },
      {
        "astId": 3389,
        "contract": "contracts/CrossMarginTrading.sol:CrossMarginTrading",
        "label": "buyTokens",
        "offset": 0,
        "slot": "16",
        "type": "t_array(t_address)dyn_storage"
      },
      {
        "astId": 3392,
        "contract": "contracts/CrossMarginTrading.sol:CrossMarginTrading",
        "label": "tradersToLiquidate",
        "offset": 0,
        "slot": "17",
        "type": "t_array(t_address)dyn_storage"
      },
      {
        "astId": 3396,
        "contract": "contracts/CrossMarginTrading.sol:CrossMarginTrading",
        "label": "maintenanceFailures",
        "offset": 0,
        "slot": "18",
        "type": "t_mapping(t_address,t_uint256)"
      },
      {
        "astId": 3401,
        "contract": "contracts/CrossMarginTrading.sol:CrossMarginTrading",
        "label": "stakeAttackRecords",
        "offset": 0,
        "slot": "19",
        "type": "t_mapping(t_address,t_struct(AccountLiqRecord)3378_storage)"
      },
      {
        "astId": 3404,
        "contract": "contracts/CrossMarginTrading.sol:CrossMarginTrading",
        "label": "avgLiquidationPerCall",
        "offset": 0,
        "slot": "20",
        "type": "t_uint256"
      },
      {
        "astId": 3407,
        "contract": "contracts/CrossMarginTrading.sol:CrossMarginTrading",
        "label": "liqStakeAttackWindow",
        "offset": 0,
        "slot": "21",
        "type": "t_uint256"
      },
      {
        "astId": 3410,
        "contract": "contracts/CrossMarginTrading.sol:CrossMarginTrading",
        "label": "MAINTAINER_CUT_PERCENT",
        "offset": 0,
        "slot": "22",
        "type": "t_uint256"
      },
      {
        "astId": 3413,
        "contract": "contracts/CrossMarginTrading.sol:CrossMarginTrading",
        "label": "failureThreshold",
        "offset": 0,
        "slot": "23",
        "type": "t_uint256"
      }
    ],
    "types": {
      "t_address": {
        "encoding": "inplace",
        "label": "address",
        "numberOfBytes": "20"
      },
      "t_array(t_address)dyn_storage": {
        "base": "t_address",
        "encoding": "dynamic_array",
        "label": "address[]",
        "numberOfBytes": "32"
      },
      "t_bool": {
        "encoding": "inplace",
        "label": "bool",
        "numberOfBytes": "1"
      },
      "t_mapping(t_address,t_bool)": {
        "encoding": "mapping",
        "key": "t_address",
        "label": "mapping(address => bool)",
        "numberOfBytes": "32",
        "value": "t_bool"
      },
      "t_mapping(t_address,t_mapping(t_uint256,t_bool))": {
        "encoding": "mapping",
        "key": "t_address",
        "label": "mapping(address => mapping(uint256 => bool))",
        "numberOfBytes": "32",
        "value": "t_mapping(t_uint256,t_bool)"
      },
      "t_mapping(t_address,t_struct(AccountLiqRecord)3378_storage)": {
        "encoding": "mapping",
        "key": "t_address",
        "label": "mapping(address => struct CrossMarginLiquidation.AccountLiqRecord)",
        "numberOfBytes": "32",
        "value": "t_struct(AccountLiqRecord)3378_storage"
      },
      "t_mapping(t_address,t_struct(CrossMarginAccount)2434_storage)": {
        "encoding": "mapping",
        "key": "t_address",
        "label": "mapping(address => struct CrossMarginAccount)",
        "numberOfBytes": "32",
        "value": "t_struct(CrossMarginAccount)2434_storage"
      },
      "t_mapping(t_address,t_struct(Liquidation)3369_storage)": {
        "encoding": "mapping",
        "key": "t_address",
        "label": "mapping(address => struct CrossMarginLiquidation.Liquidation)",
        "numberOfBytes": "32",
        "value": "t_struct(Liquidation)3369_storage"
      },
      "t_mapping(t_address,t_struct(TokenPrice)10925_storage)": {
        "encoding": "mapping",
        "key": "t_address",
        "label": "mapping(address => struct TokenPrice)",
        "numberOfBytes": "32",
        "value": "t_struct(TokenPrice)10925_storage"
      },
      "t_mapping(t_address,t_uint256)": {
        "encoding": "mapping",
        "key": "t_address",
        "label": "mapping(address => uint256)",
        "numberOfBytes": "32",
        "value": "t_uint256"
      },
      "t_mapping(t_uint256,t_address)": {
        "encoding": "mapping",
        "key": "t_uint256",
        "label": "mapping(uint256 => address)",
        "numberOfBytes": "32",
        "value": "t_address"
      },
      "t_mapping(t_uint256,t_bool)": {
        "encoding": "mapping",
        "key": "t_uint256",
        "label": "mapping(uint256 => bool)",
        "numberOfBytes": "32",
        "value": "t_bool"
      },
      "t_struct(AccountLiqRecord)3378_storage": {
        "encoding": "inplace",
        "label": "struct CrossMarginLiquidation.AccountLiqRecord",
        "members": [
          {
            "astId": 3371,
            "contract": "contracts/CrossMarginTrading.sol:CrossMarginTrading",
            "label": "blockNum",
            "offset": 0,
            "slot": "0",
            "type": "t_uint256"
          },
          {
            "astId": 3373,
            "contract": "contracts/CrossMarginTrading.sol:CrossMarginTrading",
            "label": "loser",
            "offset": 0,
            "slot": "1",
            "type": "t_address"
          },
          {
            "astId": 3375,
            "contract": "contracts/CrossMarginTrading.sol:CrossMarginTrading",
            "label": "amount",
            "offset": 0,
            "slot": "2",
            "type": "t_uint256"
          },
          {
            "astId": 3377,
            "contract": "contracts/CrossMarginTrading.sol:CrossMarginTrading",
            "label": "stakeAttacker",
            "offset": 0,
            "slot": "3",
            "type": "t_address"
          }
        ],
        "numberOfBytes": "128"
      },
      "t_struct(CrossMarginAccount)2434_storage": {
        "encoding": "inplace",
        "label": "struct CrossMarginAccount",
        "members": [
          {
            "astId": 2411,
            "contract": "contracts/CrossMarginTrading.sol:CrossMarginTrading",
            "label": "lastDepositBlock",
            "offset": 0,
            "slot": "0",
            "type": "t_uint256"
          },
          {
            "astId": 2414,
            "contract": "contracts/CrossMarginTrading.sol:CrossMarginTrading",
            "label": "borrowTokens",
            "offset": 0,
            "slot": "1",
            "type": "t_array(t_address)dyn_storage"
          },
          {
            "astId": 2418,
            "contract": "contracts/CrossMarginTrading.sol:CrossMarginTrading",
            "label": "borrowed",
            "offset": 0,
            "slot": "2",
            "type": "t_mapping(t_address,t_uint256)"
          },
          {
            "astId": 2422,
            "contract": "contracts/CrossMarginTrading.sol:CrossMarginTrading",
            "label": "borrowedYieldQuotientsFP",
            "offset": 0,
            "slot": "3",
            "type": "t_mapping(t_address,t_uint256)"
          },
          {
            "astId": 2425,
            "contract": "contracts/CrossMarginTrading.sol:CrossMarginTrading",
            "label": "holdingTokens",
            "offset": 0,
            "slot": "4",
            "type": "t_array(t_address)dyn_storage"
          },
          {
            "astId": 2429,
            "contract": "contracts/CrossMarginTrading.sol:CrossMarginTrading",
            "label": "holdings",
            "offset": 0,
            "slot": "5",
            "type": "t_mapping(t_address,t_uint256)"
          },
          {
            "astId": 2433,
            "contract": "contracts/CrossMarginTrading.sol:CrossMarginTrading",
            "label": "holdsToken",
            "offset": 0,
            "slot": "6",
            "type": "t_mapping(t_address,t_bool)"
          }
        ],
        "numberOfBytes": "224"
      },
      "t_struct(Liquidation)3369_storage": {
        "encoding": "inplace",
        "label": "struct CrossMarginLiquidation.Liquidation",
        "members": [
          {
            "astId": 3364,
            "contract": "contracts/CrossMarginTrading.sol:CrossMarginTrading",
            "label": "buy",
            "offset": 0,
            "slot": "0",
            "type": "t_uint256"
          },
          {
            "astId": 3366,
            "contract": "contracts/CrossMarginTrading.sol:CrossMarginTrading",
            "label": "sell",
            "offset": 0,
            "slot": "1",
            "type": "t_uint256"
          },
          {
            "astId": 3368,
            "contract": "contracts/CrossMarginTrading.sol:CrossMarginTrading",
            "label": "blockNum",
            "offset": 0,
            "slot": "2",
            "type": "t_uint256"
          }
        ],
        "numberOfBytes": "96"
      },
      "t_struct(TokenPrice)10925_storage": {
        "encoding": "inplace",
        "label": "struct TokenPrice",
        "members": [
          {
            "astId": 10910,
            "contract": "contracts/CrossMarginTrading.sol:CrossMarginTrading",
            "label": "blockLastUpdated",
            "offset": 0,
            "slot": "0",
            "type": "t_uint256"
          },
          {
            "astId": 10912,
            "contract": "contracts/CrossMarginTrading.sol:CrossMarginTrading",
            "label": "tokenPer1k",
            "offset": 0,
            "slot": "1",
            "type": "t_uint256"
          },
          {
            "astId": 10915,
            "contract": "contracts/CrossMarginTrading.sol:CrossMarginTrading",
            "label": "liquidationPairs",
            "offset": 0,
            "slot": "2",
            "type": "t_array(t_address)dyn_storage"
          },
          {
            "astId": 10918,
            "contract": "contracts/CrossMarginTrading.sol:CrossMarginTrading",
            "label": "inverseLiquidationPairs",
            "offset": 0,
            "slot": "3",
            "type": "t_array(t_address)dyn_storage"
          },
          {
            "astId": 10921,
            "contract": "contracts/CrossMarginTrading.sol:CrossMarginTrading",
            "label": "liquidationTokens",
            "offset": 0,
            "slot": "4",
            "type": "t_array(t_address)dyn_storage"
          },
          {
            "astId": 10924,
            "contract": "contracts/CrossMarginTrading.sol:CrossMarginTrading",
            "label": "inverseLiquidationTokens",
            "offset": 0,
            "slot": "5",
            "type": "t_array(t_address)dyn_storage"
          }
        ],
        "numberOfBytes": "192"
      },
      "t_uint16": {
        "encoding": "inplace",
        "label": "uint16",
        "numberOfBytes": "2"
      },
      "t_uint256": {
        "encoding": "inplace",
        "label": "uint256",
        "numberOfBytes": "32"
      }
    }
  }
}