{
  "address": "0x9b47E38cE3b427bFAdFC65B9f0e3f9Bda61785cE",
  "abi": [
    {
      "inputs": [
        {
          "internalType": "address",
          "name": "_peg",
          "type": "address"
        },
        {
          "internalType": "address",
          "name": "_roles",
          "type": "address"
        }
      ],
      "stateMutability": "nonpayable",
      "type": "constructor"
    },
    {
      "anonymous": false,
      "inputs": [
        {
          "indexed": false,
          "internalType": "address",
          "name": "account",
          "type": "address"
        }
      ],
      "name": "AccountLiquidated",
      "type": "event"
    },
    {
      "anonymous": false,
      "inputs": [
        {
          "indexed": false,
          "internalType": "uint256",
          "name": "amount",
          "type": "uint256"
        }
      ],
      "name": "LiquidationShortfall",
      "type": "event"
    },
    {
      "inputs": [],
      "name": "MAINTAINER_CUT_PERCENT",
      "outputs": [
        {
          "internalType": "uint256",
          "name": "",
          "type": "uint256"
        }
      ],
      "stateMutability": "view",
      "type": "function"
    },
    {
      "inputs": [],
      "name": "UPDATE_RATE_PERMIL",
      "outputs": [
        {
          "internalType": "uint256",
          "name": "",
          "type": "uint256"
        }
      ],
      "stateMutability": "view",
      "type": "function"
    },
    {
      "inputs": [
        {
          "internalType": "uint256",
          "name": "_priceUpdateWindow",
          "type": "uint256"
        },
        {
          "internalType": "uint256",
          "name": "_updateRatePermil",
          "type": "uint256"
        }
      ],
      "name": "addVolatilitySetting",
      "outputs": [],
      "stateMutability": "nonpayable",
      "type": "function"
    },
    {
      "inputs": [],
      "name": "avgLiquidationPerCall",
      "outputs": [
        {
          "internalType": "uint256",
          "name": "",
          "type": "uint256"
        }
      ],
      "stateMutability": "view",
      "type": "function"
    },
    {
      "inputs": [
        {
          "internalType": "address",
          "name": "trader",
          "type": "address"
        }
      ],
      "name": "canBeLiquidated",
      "outputs": [
        {
          "internalType": "bool",
          "name": "",
          "type": "bool"
        }
      ],
      "stateMutability": "view",
      "type": "function"
    },
    {
      "inputs": [
        {
          "internalType": "uint256",
          "name": "index",
          "type": "uint256"
        }
      ],
      "name": "chooseVolatilitySetting",
      "outputs": [],
      "stateMutability": "nonpayable",
      "type": "function"
    },
    {
      "inputs": [],
      "name": "coolingOffPeriod",
      "outputs": [
        {
          "internalType": "uint256",
          "name": "",
          "type": "uint256"
        }
      ],
      "stateMutability": "view",
      "type": "function"
    },
    {
      "inputs": [
        {
          "internalType": "address[]",
          "name": "liquidatedAccounts",
          "type": "address[]"
        }
      ],
      "name": "disburseLiqStakeAttacks",
      "outputs": [],
      "stateMutability": "nonpayable",
      "type": "function"
    },
    {
      "inputs": [],
      "name": "failureThreshold",
      "outputs": [
        {
          "internalType": "uint256",
          "name": "",
          "type": "uint256"
        }
      ],
      "stateMutability": "view",
      "type": "function"
    },
    {
      "inputs": [
        {
          "internalType": "address",
          "name": "trader",
          "type": "address"
        }
      ],
      "name": "getBorrowAmounts",
      "outputs": [
        {
          "internalType": "address[]",
          "name": "borrowTokens",
          "type": "address[]"
        },
        {
          "internalType": "uint256[]",
          "name": "borrowAmounts",
          "type": "uint256[]"
        }
      ],
      "stateMutability": "view",
      "type": "function"
    },
    {
      "inputs": [
        {
          "internalType": "address",
          "name": "token",
          "type": "address"
        },
        {
          "internalType": "uint256",
          "name": "inAmount",
          "type": "uint256"
        }
      ],
      "name": "getCurrentPriceInPeg",
      "outputs": [
        {
          "internalType": "uint256",
          "name": "",
          "type": "uint256"
        }
      ],
      "stateMutability": "nonpayable",
      "type": "function"
    },
    {
      "inputs": [
        {
          "internalType": "address",
          "name": "trader",
          "type": "address"
        }
      ],
      "name": "getHoldingAmounts",
      "outputs": [
        {
          "internalType": "address[]",
          "name": "holdingTokens",
          "type": "address[]"
        },
        {
          "internalType": "uint256[]",
          "name": "holdingAmounts",
          "type": "uint256[]"
        }
      ],
      "stateMutability": "view",
      "type": "function"
    },
    {
      "inputs": [],
      "name": "leveragePercent",
      "outputs": [
        {
          "internalType": "uint256",
          "name": "",
          "type": "uint256"
        }
      ],
      "stateMutability": "view",
      "type": "function"
    },
    {
      "inputs": [],
      "name": "liqStakeAttackWindow",
      "outputs": [
        {
          "internalType": "uint256",
          "name": "",
          "type": "uint256"
        }
      ],
      "stateMutability": "view",
      "type": "function"
    },
    {
      "inputs": [
        {
          "internalType": "address[]",
          "name": "liquidationCandidates",
          "type": "address[]"
        }
      ],
      "name": "liquidate",
      "outputs": [
        {
          "internalType": "uint256",
          "name": "maintainerCut",
          "type": "uint256"
        }
      ],
      "stateMutability": "nonpayable",
      "type": "function"
    },
    {
      "inputs": [],
      "name": "liquidationThresholdPercent",
      "outputs": [
        {
          "internalType": "uint256",
          "name": "",
          "type": "uint256"
        }
      ],
      "stateMutability": "view",
      "type": "function"
    },
    {
      "inputs": [
        {
          "internalType": "uint256",
          "name": "",
          "type": "uint256"
        }
      ],
      "name": "mainCharacterCache",
      "outputs": [
        {
          "internalType": "address",
          "name": "",
          "type": "address"
        }
      ],
      "stateMutability": "view",
      "type": "function"
    },
    {
      "inputs": [
        {
          "internalType": "address",
          "name": "",
          "type": "address"
        }
      ],
      "name": "maintenanceFailures",
      "outputs": [
        {
          "internalType": "uint256",
          "name": "",
          "type": "uint256"
        }
      ],
      "stateMutability": "view",
      "type": "function"
    },
    {
      "inputs": [],
      "name": "peg",
      "outputs": [
        {
          "internalType": "address",
          "name": "",
          "type": "address"
        }
      ],
      "stateMutability": "view",
      "type": "function"
    },
    {
      "inputs": [],
      "name": "priceUpdateWindow",
      "outputs": [
        {
          "internalType": "uint256",
          "name": "",
          "type": "uint256"
        }
      ],
      "stateMutability": "view",
      "type": "function"
    },
    {
      "inputs": [
        {
          "internalType": "address",
          "name": "trader",
          "type": "address"
        },
        {
          "internalType": "address",
          "name": "borrowToken",
          "type": "address"
        },
        {
          "internalType": "uint256",
          "name": "borrowAmount",
          "type": "uint256"
        }
      ],
      "name": "registerBorrow",
      "outputs": [],
      "stateMutability": "nonpayable",
      "type": "function"
    },
    {
      "inputs": [
        {
          "internalType": "address",
          "name": "trader",
          "type": "address"
        },
        {
          "internalType": "address",
          "name": "token",
          "type": "address"
        },
        {
          "internalType": "uint256",
          "name": "depositAmount",
          "type": "uint256"
        }
      ],
      "name": "registerDeposit",
      "outputs": [
        {
          "internalType": "uint256",
          "name": "extinguishableDebt",
          "type": "uint256"
        }
      ],
      "stateMutability": "nonpayable",
      "type": "function"
    },
    {
      "inputs": [
        {
          "internalType": "address",
          "name": "trader",
          "type": "address"
        }
      ],
      "name": "registerLiquidation",
      "outputs": [],
      "stateMutability": "nonpayable",
      "type": "function"
    },
    {
      "inputs": [
        {
          "internalType": "address",
          "name": "trader",
          "type": "address"
        },
        {
          "internalType": "address",
          "name": "depositToken",
          "type": "address"
        },
        {
          "internalType": "uint256",
          "name": "depositAmount",
          "type": "uint256"
        },
        {
          "internalType": "address",
          "name": "borrowToken",
          "type": "address"
        },
        {
          "internalType": "uint256",
          "name": "withdrawAmount",
          "type": "uint256"
        }
      ],
      "name": "registerOvercollateralizedBorrow",
      "outputs": [],
      "stateMutability": "nonpayable",
      "type": "function"
    },
    {
      "inputs": [
        {
          "internalType": "address",
          "name": "trader",
          "type": "address"
        },
        {
          "internalType": "address",
          "name": "tokenFrom",
          "type": "address"
        },
        {
          "internalType": "address",
          "name": "tokenTo",
          "type": "address"
        },
        {
          "internalType": "uint256",
          "name": "inAmount",
          "type": "uint256"
        },
        {
          "internalType": "uint256",
          "name": "outAmount",
          "type": "uint256"
        }
      ],
      "name": "registerTradeAndBorrow",
      "outputs": [
        {
          "internalType": "uint256",
          "name": "extinguishableDebt",
          "type": "uint256"
        },
        {
          "internalType": "uint256",
          "name": "borrowAmount",
          "type": "uint256"
        }
      ],
      "stateMutability": "nonpayable",
      "type": "function"
    },
    {
      "inputs": [
        {
          "internalType": "address",
          "name": "trader",
          "type": "address"
        },
        {
          "internalType": "address",
          "name": "withdrawToken",
          "type": "address"
        },
        {
          "internalType": "uint256",
          "name": "withdrawAmount",
          "type": "uint256"
        }
      ],
      "name": "registerWithdrawal",
      "outputs": [],
      "stateMutability": "nonpayable",
      "type": "function"
    },
    {
      "inputs": [
        {
          "internalType": "address",
          "name": "",
          "type": "address"
        },
        {
          "internalType": "uint256",
          "name": "",
          "type": "uint256"
        }
      ],
      "name": "roleCache",
      "outputs": [
        {
          "internalType": "bool",
          "name": "",
          "type": "bool"
        }
      ],
      "stateMutability": "view",
      "type": "function"
    },
    {
      "inputs": [],
      "name": "roles",
      "outputs": [
        {
          "internalType": "contract Roles",
          "name": "",
          "type": "address"
        }
      ],
      "stateMutability": "view",
      "type": "function"
    },
    {
      "inputs": [
        {
          "internalType": "uint256",
          "name": "blocks",
          "type": "uint256"
        }
      ],
      "name": "setCoolingOffPeriod",
      "outputs": [],
      "stateMutability": "nonpayable",
      "type": "function"
    },
    {
      "inputs": [
        {
          "internalType": "uint256",
          "name": "threshFactor",
          "type": "uint256"
        }
      ],
      "name": "setFailureThreshold",
      "outputs": [],
      "stateMutability": "nonpayable",
      "type": "function"
    },
    {
      "inputs": [
        {
          "internalType": "uint256",
          "name": "_leveragePercent",
          "type": "uint256"
        }
      ],
      "name": "setLeveragePercent",
      "outputs": [],
      "stateMutability": "nonpayable",
      "type": "function"
    },
    {
      "inputs": [
        {
          "internalType": "uint256",
          "name": "window",
          "type": "uint256"
        }
      ],
      "name": "setLiqStakeAttackWindow",
      "outputs": [],
      "stateMutability": "nonpayable",
      "type": "function"
    },
    {
      "inputs": [
        {
          "internalType": "bytes32",
          "name": "amms",
          "type": "bytes32"
        },
        {
          "internalType": "address[]",
          "name": "tokens",
          "type": "address[]"
        }
      ],
      "name": "setLiquidationPath",
      "outputs": [],
      "stateMutability": "nonpayable",
      "type": "function"
    },
    {
      "inputs": [
        {
          "internalType": "uint256",
          "name": "threshold",
          "type": "uint256"
        }
      ],
      "name": "setLiquidationThresholdPercent",
      "outputs": [],
      "stateMutability": "nonpayable",
      "type": "function"
    },
    {
      "inputs": [
        {
          "internalType": "uint256",
          "name": "cut",
          "type": "uint256"
        }
      ],
      "name": "setMaintainerCutPercent",
      "outputs": [],
      "stateMutability": "nonpayable",
      "type": "function"
    },
    {
      "inputs": [
        {
          "internalType": "uint16",
          "name": "window",
          "type": "uint16"
        }
      ],
      "name": "setPriceUpdateWindow",
      "outputs": [],
      "stateMutability": "nonpayable",
      "type": "function"
    },
    {
      "inputs": [
        {
          "internalType": "address",
          "name": "token",
          "type": "address"
        },
        {
          "internalType": "uint256",
          "name": "cap",
          "type": "uint256"
        }
      ],
      "name": "setTokenCap",
      "outputs": [],
      "stateMutability": "nonpayable",
      "type": "function"
    },
    {
      "inputs": [
        {
          "internalType": "uint256",
          "name": "rate",
          "type": "uint256"
        }
      ],
      "name": "setUpdateRate",
      "outputs": [],
      "stateMutability": "nonpayable",
      "type": "function"
    },
    {
      "inputs": [
        {
          "internalType": "address",
          "name": "",
          "type": "address"
        }
      ],
      "name": "stakeAttackRecords",
      "outputs": [
        {
          "internalType": "uint256",
          "name": "blockNum",
          "type": "uint256"
        },
        {
          "internalType": "address",
          "name": "loser",
          "type": "address"
        },
        {
          "internalType": "uint256",
          "name": "amount",
          "type": "uint256"
        },
        {
          "internalType": "address",
          "name": "stakeAttacker",
          "type": "address"
        }
      ],
      "stateMutability": "view",
      "type": "function"
    },
    {
      "inputs": [
        {
          "internalType": "address",
          "name": "",
          "type": "address"
        }
      ],
      "name": "tokenCaps",
      "outputs": [
        {
          "internalType": "uint256",
          "name": "",
          "type": "uint256"
        }
      ],
      "stateMutability": "view",
      "type": "function"
    },
    {
      "inputs": [
        {
          "internalType": "address",
          "name": "",
          "type": "address"
        }
      ],
      "name": "tokenPrices",
      "outputs": [
        {
          "internalType": "uint256",
          "name": "blockLastUpdated",
          "type": "uint256"
        },
        {
          "internalType": "uint256",
          "name": "tokenPerRefAmount",
          "type": "uint256"
        },
        {
          "internalType": "bytes32",
          "name": "amms",
          "type": "bytes32"
        },
        {
          "internalType": "bytes32",
          "name": "inverseAmms",
          "type": "bytes32"
        }
      ],
      "stateMutability": "view",
      "type": "function"
    },
    {
      "inputs": [
        {
          "internalType": "address",
          "name": "",
          "type": "address"
        }
      ],
      "name": "totalLong",
      "outputs": [
        {
          "internalType": "uint256",
          "name": "",
          "type": "uint256"
        }
      ],
      "stateMutability": "view",
      "type": "function"
    },
    {
      "inputs": [
        {
          "internalType": "address",
          "name": "",
          "type": "address"
        }
      ],
      "name": "totalShort",
      "outputs": [
        {
          "internalType": "uint256",
          "name": "",
          "type": "uint256"
        }
      ],
      "stateMutability": "view",
      "type": "function"
    },
    {
      "inputs": [
        {
          "internalType": "uint256",
          "name": "role",
          "type": "uint256"
        }
      ],
      "name": "updateMainCharacterCache",
      "outputs": [],
      "stateMutability": "nonpayable",
      "type": "function"
    },
    {
      "inputs": [
        {
          "internalType": "uint256",
          "name": "role",
          "type": "uint256"
        },
        {
          "internalType": "address",
          "name": "contr",
          "type": "address"
        }
      ],
      "name": "updateRoleCache",
      "outputs": [],
      "stateMutability": "nonpayable",
      "type": "function"
    },
    {
      "inputs": [
        {
          "internalType": "address",
          "name": "token",
          "type": "address"
        },
        {
          "internalType": "uint256",
          "name": "inAmount",
          "type": "uint256"
        }
      ],
      "name": "viewCurrentPriceInPeg",
      "outputs": [
        {
          "internalType": "uint256",
          "name": "",
          "type": "uint256"
        }
      ],
      "stateMutability": "view",
      "type": "function"
    },
    {
      "inputs": [
        {
          "internalType": "address",
          "name": "trader",
          "type": "address"
        }
      ],
      "name": "viewHoldingsInPeg",
      "outputs": [
        {
          "internalType": "uint256",
          "name": "",
          "type": "uint256"
        }
      ],
      "stateMutability": "view",
      "type": "function"
    },
    {
      "inputs": [
        {
          "internalType": "address",
          "name": "trader",
          "type": "address"
        }
      ],
      "name": "viewLoanInPeg",
      "outputs": [
        {
          "internalType": "uint256",
          "name": "amount",
          "type": "uint256"
        }
      ],
      "stateMutability": "view",
      "type": "function"
    },
    {
      "inputs": [
        {
          "internalType": "uint256",
          "name": "",
          "type": "uint256"
        }
      ],
      "name": "volatilitySettings",
      "outputs": [
        {
          "internalType": "uint256",
          "name": "priceUpdateWindow",
          "type": "uint256"
        },
        {
          "internalType": "uint256",
          "name": "updateRatePermil",
          "type": "uint256"
        }
      ],
      "stateMutability": "view",
      "type": "function"
    }
  ],
  "transactionHash": "0x7a8b5eb5e36f867c4ac4a8bd092e700845e5c72a5327f062f51da36f6b16bef5",
  "args": [
    "0x4F96Fe3b7A6Cf9725f59d353F723c1bDb64CA6Aa",
    "0x845eaD3685F13E98DDa04E8023689713c524A68e"
  ],
  "solcInputHash": "af4f55e02215f8b8a3a62084ffa924d1",
  "bytecode": "0x60c06040526014600355603260045561012c60065560736007556014600c55600a60135560056014556005601555600a6016553480156200003f57600080fd5b50604051620060583803806200605883398101604081905262000062916200010a565b81816001600160a01b038116620000ca5760405162461bcd60e51b815260206004820152602260248201527f506c656173652070726f766964652076616c696420726f6c6573206164647265604482015261737360f01b606482015260840160405180910390fd5b6001600160601b0319606091821b811660805291901b1660a05250620001419050565b80516001600160a01b03811681146200010557600080fd5b919050565b600080604083850312156200011d578182fd5b6200012883620000ed565b91506200013860208401620000ed565b90509250929050565b60805160601c60a05160601c615e97620001c1600039600081816103cf015281816109f501528181610ecb0152818161186801528181612033015281816121da01528181612cc501528181614f3e01526150c80152600081816104e3015281816108310152818161167401528181612ed10152612f690152615e976000f3fe608060405234801561001057600080fd5b506004361061032b5760003560e01c806352a664d9116101b2578063badb5048116100f9578063d510c535116100a2578063e0f3871f1161007c578063e0f3871f14610793578063e9c3f77d146107b3578063f04c6865146107dc578063f99fd97c146107ef5761032b565b8063d510c5351461075a578063d8039c261461076d578063db2d904d146107805761032b565b8063c73afac2116100d3578063c73afac214610721578063c74303aa14610734578063d0eb6653146107475761032b565b8063badb504814610681578063bc44dcbc146106ee578063bc70c6661461070e5761032b565b8063a00891591161015b578063a53ac0d911610135578063a53ac0d914610645578063a75697a51461064e578063a985994b1461066e5761032b565b8063a00891591461060c578063a17ab5271461061f578063a3718919146106325761032b565b80636585b5a61161018c5780636585b5a6146105cc5780637a1a04df146105d55780637d100e84146106035761032b565b806352a664d91461059d578063538edb29146105b057806354554b58146105b95761032b565b80632febaa7411610276578063447d52ba1161021f5780634aa4aca3116101f95780634aa4aca3146105785780634cb7766214610581578063519bda85146105945761032b565b8063447d52ba1461052f57806347788cd014610542578063498d55eb146105655761032b565b8063392f5f6411610250578063392f5f64146104de5780633ed456fa14610505578063409fdb721461050e5761032b565b80632febaa74146104a4578063320d2fa0146104ad5780633500aa0b146104b65761032b565b80631d84cc18116102d8578063204120bc116102b2578063204120bc1461041c57806320c27126146104715780632b23f857146104915761032b565b80631d84cc18146103b75780631f1cb62b146103ca5780631f692a64146104095761032b565b806310d584341161030957806310d584341461037e57806316317e7e146103915780631d47e4a3146103a45761032b565b8063071060a61461033057806307c2017514610345578063093a483a14610358575b600080fd5b61034361033e3660046159fb565b610802565b005b610343610353366004615858565b6108f9565b61036b610366366004615800565b6109f1565b6040519081526020015b60405180910390f35b61034361038c3660046159fb565b610a90565b61034361039f3660046159fb565b610b2d565b6103436103b2366004615800565b610bc5565b6103436103c53660046157a6565b610cc0565b6103f17f000000000000000000000000000000000000000000000000000000000000000081565b6040516001600160a01b039091168152602001610375565b61036b6104173660046156d4565b610d88565b61045161042a3660046156d4565b60026020526000908152604090208054600182015460038301546005909301549192909184565b604080519485526020850193909352918301526060820152608001610375565b61036b61047f3660046156d4565b600b6020526000908152604090205481565b61034361049f366004615946565b610dbd565b61036b600c5481565b61036b60075481565b6104c96104c436600461570c565b611176565b60408051928352602083019190915201610375565b6103f17f000000000000000000000000000000000000000000000000000000000000000081565b61036b60035481565b61052161051c3660046156d4565b6114be565b604051610375929190615ae4565b61034361053d366004615a2b565b611635565b6105556105503660046156d4565b611744565b6040519015158152602001610375565b610343610573366004615766565b6117ab565b61036b60145481565b61036b61058f366004615800565b611864565b61036b60045481565b61036b6105ab366004615766565b6118f9565b61036b60155481565b6103436105c73660046159fb565b611a34565b61036b60135481565b6105556105e3366004615800565b600160209081526000928352604080842090915290825290205460ff1681565b61036b60165481565b61034361061a3660046159d9565b611acc565b61036b61062d3660046156d4565b611b68565b6103436106403660046159fb565b611b90565b61036b60065481565b61036b61065c3660046156d4565b60116020526000908152604090205481565b61036b61067c366004615858565b611c28565b6106c361068f3660046156d4565b601260205260009081526040902080546001820154600283015460039093015491926001600160a01b039182169290911684565b604080519485526001600160a01b039384166020860152840191909152166060820152608001610375565b61036b6106fc3660046156d4565b600a6020526000908152604090205481565b6104c961071c3660046159fb565b6123b1565b61034361072f3660046159fb565b6123df565b6103436107423660046159fb565b612477565b610343610755366004615766565b61250f565b6105216107683660046156d4565b6125b7565b61034361077b366004615a5a565b6127fb565b61034361078e3660046156d4565b612906565b61036b6107a13660046156d4565b60096020526000908152604090205481565b6103f16107c13660046159fb565b6000602081905290815260409020546001600160a01b031681565b6103436107ea3660046159fb565b612a1c565b6103436107fd3660046159fb565b612b72565b6040517fb4ed0b6d000000000000000000000000000000000000000000000000000000008152600481018290527f00000000000000000000000000000000000000000000000000000000000000006001600160a01b03169063b4ed0b6d9060240160206040518083038186803b15801561087b57600080fd5b505afa15801561088f573d6000803e3d6000fd5b505050506040513d601f19601f820116820180604052508101906108b391906156f0565b60009182526020829052604090912080547fffffffffffffffffffffffff0000000000000000000000000000000000000000166001600160a01b03909216919091179055565b60005b80825111156109ed57600082828151811061092757634e487b7160e01b600052603260045260246000fd5b60200260200101519050600060126000836001600160a01b03166001600160a01b031681526020019081526020016000209050601454816000015461096c9190615bf4565b4311156109d85761097c81612c0a565b506001600160a01b03821660009081526012602052604081208181556001810180547fffffffffffffffffffffffff00000000000000000000000000000000000000009081169091556002820192909255600301805490911690555b505080806109e590615de7565b9150506108fc565b5050565b60007f00000000000000000000000000000000000000000000000000000000000000006001600160a01b0316836001600160a01b03161415610a34575080610a8a565b6001600160a01b0383166000908152600260205260409020600180820154610a5b91615bf4565b610a676006600a615c72565b610a72906064615d5e565b610a7c9085615d5e565b610a869190615c0c565b9150505b92915050565b33610a99612ecd565b6001600160a01b03161480610abd575033610ab2612f65565b6001600160a01b0316145b610b28576040517f08c379a000000000000000000000000000000000000000000000000000000000815260206004820152601e60248201527f526f6c65733a2063616c6c6572206973206e6f7420746865206f776e6572000060448201526064015b60405180910390fd5b601655565b33610b36612ecd565b6001600160a01b03161480610b5a575033610b4f612f65565b6001600160a01b0316145b610bc0576040517f08c379a000000000000000000000000000000000000000000000000000000000815260206004820152601e60248201527f526f6c65733a2063616c6c6572206973206e6f7420746865206f776e657200006044820152606401610b1f565b600755565b33610bce612ecd565b6001600160a01b03161480610bf2575033610be7612f65565b6001600160a01b0316145b80610c1857503360009081526001602090815260408083206009845290915290205460ff165b610ca4576040517f08c379a000000000000000000000000000000000000000000000000000000000815260206004820152603960248201527f43616c6c6572206973206e6f7420746865206f776e65722c206578656375746f60448201527f72206f7220617574686f72697a656420616374697661746f72000000000000006064820152608401610b1f565b6001600160a01b03909116600090815260096020526040902055565b3360009081526001602090815260408083206004845290915290205460ff16610d45576040517f08c379a000000000000000000000000000000000000000000000000000000000815260206004820152601d60248201527f43616c6c696e6720636f6e74722e206e6f7420617574686f72697a65640000006044820152606401610b1f565b6001600160a01b0385166000908152600860205260409020610d68818686612fd6565b610d7381848461309b565b610d7e8184846131bc565b4390555050505050565b6001600160a01b0381166000908152600860205260408120610db4600182016002830160038401613310565b9150505b919050565b33610dc6612ecd565b6001600160a01b03161480610dea575033610ddf612f65565b6001600160a01b0316145b80610e1057503360009081526001602090815260408083206009845290915290205460ff165b610e9c576040517f08c379a000000000000000000000000000000000000000000000000000000000815260206004820152603960248201527f43616c6c6572206973206e6f7420746865206f776e65722c206578656375746f60448201527f72206f7220617574686f72697a656420616374697661746f72000000000000006064820152608401610b1f565b600081600081518110610ebf57634e487b7160e01b600052603260045260246000fd5b602002602001015190507f00000000000000000000000000000000000000000000000000000000000000006001600160a01b0316816001600160a01b031614611171576001600160a01b03811660009081526002602081815260409092206003810186905584519092610f38928401919086019061558f565b50825167ffffffffffffffff811115610f6157634e487b7160e01b600052604160045260246000fd5b604051908082528060200260200182016040528015610f8a578160200160208202803683370190505b508051610fa191600484019160209091019061558f565b506000805b8060018651610fb59190615d9b565b11156110415760008160028751610fcc9190615d9b565b610fd69190615d9b565b610fe1906008615d5e565b87836020811061100157634e487b7160e01b600052603260045260246000fd5b1a60f81b7fff0000000000000000000000000000000000000000000000000000000000000016901c9290921791508061103981615de7565b915050610fa6565b506005820181905560005b808551111561110b578460018287516110659190615d9b565b61106f9190615d9b565b8151811061108d57634e487b7160e01b600052603260045260246000fd5b60200260200101518360040182815481106110b857634e487b7160e01b600052603260045260246000fd5b600091825260209091200180547fffffffffffffffffffffffff0000000000000000000000000000000000000000166001600160a01b03929092169190911790558061110381615de7565b91505061104c565b50600061112f61111d6006600a615c72565b611128906064615d5e565b8787613394565b50905060008160008151811061115557634e487b7160e01b600052603260045260246000fd5b6020026020010151905061116c84826103e86136c6565b505050505b505050565b33600090815260016020908152604080832060048452909152812054819060ff166111fd576040517f08c379a000000000000000000000000000000000000000000000000000000000815260206004820181905260248201527f43616c6c696e6720636f6e74722e206e6f7420616e20617574686f72697a65646044820152606401610b1f565b6001600160a01b0380881660009081526008602090815260408083209389168352600284019091529020541561128e576001600160a01b038616600090815260028201602052604090205461125390859061370f565b9250611260818785613727565b6001600160a01b0386166000908152600a602052604081208054859290611288908490615d9b565b90915550505b6001600160a01b03871660009081526005820160205260409020548590808211156112c3579050806112c08188615d9b565b93505b83871115611303576112d58488615d9b565b6001600160a01b038a166000908152600b6020526040812080549091906112fd908490615d9b565b90915550505b84861115611343576113158587615d9b565b6001600160a01b0389166000908152600b60205260408120805490919061133d908490615bf4565b90915550505b6001600160a01b0388166000908152600b602090815260408083205460099092529091205410156113d0576040517f08c379a000000000000000000000000000000000000000000000000000000000815260206004820152601860248201527f4578636565647320676c6f62616c20746f6b656e2063617000000000000000006044820152606401610b1f565b6113e6838a8a856113e18a8c615d9b565b613a2c565b83156114b1576001600160a01b0389166000908152600a602052604081208054869290611414908490615bf4565b90915550506001600160a01b0389166000908152600a602090815260408083205460099092529091205410156114a6576040517f08c379a000000000000000000000000000000000000000000000000000000000815260206004820152601860248201527f4578636565647320676c6f62616c20746f6b656e2063617000000000000000006044820152606401610b1f565b6114b1838a86613a7f565b5050509550959350505050565b6001600160a01b03811660009081526008602090815260409182902060048101805484518185028101850190955280855260609485949092919083018282801561153157602002820191906000526020600020905b81546001600160a01b03168152600190910190602001808311611513575b5050506004840154929550505067ffffffffffffffff81111561156457634e487b7160e01b600052604160045260246000fd5b60405190808252806020026020018201604052801561158d578160200160208202803683370190505b50915060005b808451111561162e5760008482815181106115be57634e487b7160e01b600052603260045260246000fd5b60200260200101519050826005016000826001600160a01b03166001600160a01b031681526020019081526020016000205484838151811061161057634e487b7160e01b600052603260045260246000fd5b6020908102919091010152508061162681615de7565b915050611593565b5050915091565b6040517f93552a3d000000000000000000000000000000000000000000000000000000008152600481018390526001600160a01b0382811660248301527f000000000000000000000000000000000000000000000000000000000000000016906393552a3d9060440160206040518083038186803b1580156116b657600080fd5b505afa1580156116ca573d6000803e3d6000fd5b505050506040513d601f19601f820116820180604052508101906116ee9190615926565b6001600160a01b039190911660009081526001602090815260408083209483529390529190912080547fffffffffffffffffffffffffffffffffffffffffffffffffffffffffffffff0016911515919091179055565b6001600160a01b038116600090815260086020526040812081611771600183016002840160038501613310565b905060006117858360040184600501613d39565b9050816007546117959190615d5e565b6117a0826064615d5e565b101595945050505050565b3360009081526001602090815260408083206004845290915290205460ff16611830576040517f08c379a000000000000000000000000000000000000000000000000000000000815260206004820152601d60248201527f43616c6c696e6720636f6e74722e206e6f7420617574686f72697a65640000006044820152606401610b1f565b6001600160a01b0383166000908152600860205260409020611853818484613dc4565b61185e81848461309b565b50505050565b60007f00000000000000000000000000000000000000000000000000000000000000006001600160a01b0316836001600160a01b031614156118a7575080610a8a565b6001600160a01b038316600090815260026020526040902060035481546118ce9043615d9b565b11806118dc57506001810154155b156118ea576118ea81613ea0565b600180820154610a5b91615bf4565b3360009081526001602090815260408083206004845290915281205460ff1661197e576040517f08c379a000000000000000000000000000000000000000000000000000000000815260206004820152601d60248201527f43616c6c696e6720636f6e74722e206e6f7420617574686f72697a65640000006044820152606401610b1f565b6001600160a01b03808516600090815260086020908152604080832043815593871683526002840190915290205415611a12576001600160a01b03841660009081526002820160205260409020546119d790849061370f565b91506119e4818584613727565b6001600160a01b0384166000908152600a602052604081208054849290611a0c908490615d9b565b90915550505b6000611a1e8385615d9b565b9050611a2b828683612fd6565b50509392505050565b33611a3d612ecd565b6001600160a01b03161480611a61575033611a56612f65565b6001600160a01b0316145b611ac7576040517f08c379a000000000000000000000000000000000000000000000000000000000815260206004820152601e60248201527f526f6c65733a2063616c6c6572206973206e6f7420746865206f776e657200006044820152606401610b1f565b600455565b33611ad5612ecd565b6001600160a01b03161480611af9575033611aee612f65565b6001600160a01b0316145b611b5f576040517f08c379a000000000000000000000000000000000000000000000000000000000815260206004820152601e60248201527f526f6c65733a2063616c6c6572206973206e6f7420746865206f776e657200006044820152606401610b1f565b61ffff16600355565b6001600160a01b0381166000908152600860205260408120610db46004820160058301613d39565b33611b99612ecd565b6001600160a01b03161480611bbd575033611bb2612f65565b6001600160a01b0316145b611c23576040517f08c379a000000000000000000000000000000000000000000000000000000000815260206004820152601e60248201527f526f6c65733a2063616c6c6572206973206e6f7420746865206f776e657200006044820152606401610b1f565b601455565b6000333214611cb9576040517f08c379a000000000000000000000000000000000000000000000000000000000815260206004820152603a60248201527f43757272656e746c79206e6f20696e7465726d656469617269657320616c6c6f60448201527f77656420666f7220746869732066756e6374696f6e2063616c6c0000000000006064820152608401610b1f565b6000611cf6606b60009081526020527f2dc7a963308417ad45132da282495eb244f38a7db03940a4d808be607669c622546001600160a01b031690565b6040517f7b23cbce0000000000000000000000000000000000000000000000000000000081523360048201526001600160a01b039190911690637b23cbce90602401602060405180830381600087803b158015611d5257600080fd5b505af1158015611d66573d6000803e3d6000fd5b505050506040513d601f19601f82011682018060405250810190611d8a9190615926565b905060008180611d9d5750611d9d613f5b565b9050611da9848361403b565b92506000611db56145c2565b90506000611dc16146a4565b9050600060646015546064611dd69190615bf4565b611de09084615d5e565b611dea9190615c0c565b905082811115611e31577f3555ffae7677eb42103f0b9e11b61c758f452fae446684dec7a363dd38ab58fc611e1f8483615d9b565b60405190815260200160405180910390a15b600084611ee257606b60009081526020527f2dc7a963308417ad45132da282495eb244f38a7db03940a4d808be607669c622546001600160a01b03166001600160a01b0316631a38de1d6040518163ffffffff1660e01b8152600401602060405180830381600087803b158015611ea757600080fd5b505af1158015611ebb573d6000803e3d6000fd5b505050506040513d601f19601f82011682018060405250810190611edf91906156f0565b90505b60005b60105481101561214557600060108281548110611f1257634e487b7160e01b600052603260045260246000fd5b60009182526020808320909101546001600160a01b031680835260089091526040822090925090611f428261477f565b90506000611f4f83614791565b90506000606460155483611f639190615d5e565b611f6d9190615c0c565b9050611f79818e615bf4565b9c508a611fe6576001600160a01b03858116600090815260126020526040902060028101839055600381018054337fffffffffffffffffffffffff000000000000000000000000000000000000000091821617909155438255600190910180549091169189169190911790555b611ff08282615bf4565b8311156120e857606560009081526020527f4a7203f705e51df4a56139a9b86b4a0970bed7ab7a3446eaffe2289989c1645c546001600160a01b031663d9caed127f0000000000000000000000000000000000000000000000000000000000000000878461205e8789615d9b565b6120689190615d9b565b6040517fffffffff0000000000000000000000000000000000000000000000000000000060e086901b1681526001600160a01b0393841660048201529290911660248301526044820152606401600060405180830381600087803b1580156120cf57600080fd5b505af11580156120e3573d6000803e3d6000fd5b505050505b6040516001600160a01b03861681527f1d2cc4c8661a04a00b4e727426220501b36d85bb330947642c2d4320667028cf9060200160405180910390a161212d846147a7565b5050505050808061213d90615de7565b915050611ee5565b5060648760135460636121589190615d5e565b6121629190615bf4565b61216c9190615c0c565b601355841561224e57606560009081526020527f4a7203f705e51df4a56139a9b86b4a0970bed7ab7a3446eaffe2289989c1645c546001600160a01b03166040517fd9caed120000000000000000000000000000000000000000000000000000000081526001600160a01b037f000000000000000000000000000000000000000000000000000000000000000081166004830152336024830152604482018a9052919091169063d9caed1290606401600060405180830381600087803b15801561223557600080fd5b505af1158015612249573d6000803e3d6000fd5b505050505b600061228b606b60009081526020527f2dc7a963308417ad45132da282495eb244f38a7db03940a4d808be607669c622546001600160a01b031690565b6001600160a01b0316631a38de1d6040518163ffffffff1660e01b8152600401602060405180830381600087803b1580156122c557600080fd5b505af11580156122d9573d6000803e3d6000fd5b505050506040513d601f19601f820116820180604052508101906122fd91906156f0565b90508615612377576001600160a01b038116600090815260116020526040902054881015612358576001600160a01b038116600090815260116020526040812080548a929061234d908490615d9b565b909155506123729050565b6001600160a01b0381166000908152601160205260408120555b6123a5565b6001600160a01b038116600090815260116020526040812080548a929061239f908490615bf4565b90915550505b50505050505050919050565b600581815481106123c157600080fd5b60009182526020909120600290910201805460019091015490915082565b336123e8612ecd565b6001600160a01b0316148061240c575033612401612f65565b6001600160a01b0316145b612472576040517f08c379a000000000000000000000000000000000000000000000000000000000815260206004820152601e60248201527f526f6c65733a2063616c6c6572206973206e6f7420746865206f776e657200006044820152606401610b1f565b601555565b33612480612ecd565b6001600160a01b031614806124a4575033612499612f65565b6001600160a01b0316145b61250a576040517f08c379a000000000000000000000000000000000000000000000000000000000815260206004820152601e60248201527f526f6c65733a2063616c6c6572206973206e6f7420746865206f776e657200006044820152606401610b1f565b600655565b3360009081526001602090815260408083206004845290915290205460ff16612594576040517f08c379a000000000000000000000000000000000000000000000000000000000815260206004820152601c60248201527f43616c6c696e6720636f6e7472206e6f7420617574686f72697a6564000000006044820152606401610b1f565b6001600160a01b038316600090815260086020526040902061185e8184846131bc565b6001600160a01b03811660009081526008602090815260409182902060018101805484518185028101850190955280855260609485949092919083018282801561262a57602002820191906000526020600020905b81546001600160a01b0316815260019091019060200180831161260c575b5050506001840154929550505067ffffffffffffffff81111561265d57634e487b7160e01b600052604160045260246000fd5b604051908082528060200260200182016040528015612686578160200160208202803683370190505b50915060005b808451111561162e5760008482815181106126b757634e487b7160e01b600052603260045260246000fd5b602002602001015190506126fc606660009081526020527f422cccb7cea5c0e46f340bb7b21b81debac329f72e31669c20ff0f3a05cc2b5b546001600160a01b031690565b6001600160a01b03828116600081815260028701602090815260408083205460038a01909252918290205491517f76668b670000000000000000000000000000000000000000000000000000000081526004810191909152602481019290925260448201529116906376668b679060640160206040518083038186803b15801561278557600080fd5b505afa158015612799573d6000803e3d6000fd5b505050506040513d601f19601f820116820180604052508101906127bd9190615a13565b8483815181106127dd57634e487b7160e01b600052603260045260246000fd5b602090810291909101015250806127f381615de7565b91505061268c565b33612804612ecd565b6001600160a01b0316148061282857503361281d612f65565b6001600160a01b0316145b61288e576040517f08c379a000000000000000000000000000000000000000000000000000000000815260206004820152601e60248201527f526f6c65733a2063616c6c6572206973206e6f7420746865206f776e657200006044820152606401610b1f565b60408051808201909152918252602082019081526005805460018101825560009190915291517f036b6384b5eca791c62761152d0c79bb0604c104a5fb6f4eb0703f3154bb3db0600290930292830155517f036b6384b5eca791c62761152d0c79bb0604c104a5fb6f4eb0703f3154bb3db190910155565b3360009081526001602090815260408083206004845290915290205460ff1661298b576040517f08c379a000000000000000000000000000000000000000000000000000000000815260206004820152601d60248201527f43616c6c696e6720636f6e74722e206e6f7420617574686f72697a65640000006044820152606401610b1f565b6001600160a01b03811660009081526008602052604090206129ac81614791565b15612a13576040517f08c379a000000000000000000000000000000000000000000000000000000000815260206004820152601a60248201527f43616e2774206c69717569646174653a20626f72726f77696e670000000000006044820152606401610b1f565b6109ed816147a7565b33612a25612ecd565b6001600160a01b03161480612a49575033612a3e612f65565b6001600160a01b0316145b80612a97575033612a8c6103e960009081526020527f236f539bf6e1b3b15a335e3cd157d360bc4be88c071635c19ba8a82b4f665e9f546001600160a01b031690565b6001600160a01b0316145b612b23576040517f08c379a000000000000000000000000000000000000000000000000000000000815260206004820152603860248201527f43616c6c6572206973206e6f7420746865206f776e65722c206578656375746f60448201527f72206f7220617574686f72697a65642064697361626c657200000000000000006064820152608401610b1f565b600060058281548110612b4657634e487b7160e01b600052603260045260246000fd5b906000526020600020906002020190506000816001015411156109ed5760018101546004555460035550565b33612b7b612ecd565b6001600160a01b03161480612b9f575033612b94612f65565b6001600160a01b0316145b612c05576040517f08c379a000000000000000000000000000000000000000000000000000000000815260206004820152601e60248201527f526f6c65733a2063616c6c6572206973206e6f7420746865206f776e657200006044820152606401610b1f565b600c55565b600281015460009015610db8578154600090612c3290612c2a9043615d9b565b60145461370f565b90506000601454828560020154612c499190615d5e565b612c539190615c0c565b9050612c90606560009081526020527f4a7203f705e51df4a56139a9b86b4a0970bed7ab7a3446eaffe2289989c1645c546001600160a01b031690565b60038501546040517fd9caed120000000000000000000000000000000000000000000000000000000081526001600160a01b037f00000000000000000000000000000000000000000000000000000000000000008116600483015291821660248201526044810184905291169063d9caed1290606401600060405180830381600087803b158015612d2057600080fd5b505af1158015612d34573d6000803e3d6000fd5b505050506000612d75606b60009081526020527f2dc7a963308417ad45132da282495eb244f38a7db03940a4d808be607669c622546001600160a01b031690565b9050600060135483836001600160a01b0316630ad691506040518163ffffffff1660e01b815260040160206040518083038186803b158015612db657600080fd5b505afa158015612dca573d6000803e3d6000fd5b505050506040513d601f19601f82011682018060405250810190612dee9190615a13565b612df89190615d5e565b612e029190615c0c565b600187015460038801546040517f0a45bc1b0000000000000000000000000000000000000000000000000000000081526001600160a01b039283166004820152602481018490529082166044820152919250831690630a45bc1b90606401602060405180830381600087803b158015612e7a57600080fd5b505af1158015612e8e573d6000803e3d6000fd5b505050506040513d601f19601f82011682018060405250810190612eb29190615a13565b50828660020154612ec39190615d9b565b9695505050505050565b60007f00000000000000000000000000000000000000000000000000000000000000006001600160a01b0316638da5cb5b6040518163ffffffff1660e01b815260040160206040518083038186803b158015612f2857600080fd5b505afa158015612f3c573d6000803e3d6000fd5b505050506040513d601f19601f82011682018060405250810190612f6091906156f0565b905090565b60007f00000000000000000000000000000000000000000000000000000000000000006001600160a01b031663c34c08e56040518163ffffffff1660e01b8152600401602060405180830381600087803b158015612fc257600080fd5b505af1158015612f3c573d6000803e3d6000fd5b612fe1838383613dc4565b6001600160a01b0382166000908152600b602052604081208054839290613009908490615bf4565b90915550506001600160a01b0382166000908152600b60209081526040808320546009909252909120541015611171576040517f08c379a000000000000000000000000000000000000000000000000000000000815260206004820152601860248201527f4578636565647320676c6f62616c20746f6b656e2063617000000000000000006044820152606401610b1f565b6001600160a01b0382166000908152600a6020526040812080548392906130c3908490615bf4565b90915550506001600160a01b0382166000908152600b6020526040812080548392906130f0908490615bf4565b90915550506001600160a01b0382166000908152600a60209081526040808320546009909252909120541080159061314b57506001600160a01b0382166000908152600b602090815260408083205460099092529091205410155b6131b1576040517f08c379a000000000000000000000000000000000000000000000000000000000815260206004820152601860248201527f4578636565647320676c6f62616c20746f6b656e2063617000000000000000006044820152606401610b1f565b611171838383613a7f565b600c5483546131cb9190615bf4565b4311613233576040517f08c379a000000000000000000000000000000000000000000000000000000000815260206004820181905260248201527f4e6f207769746864726177616c20736f6f6e206166746572206465706f7369746044820152606401610b1f565b6001600160a01b0382166000908152600b60205260408120805483929061325b908490615d9b565b90915550506001600160a01b0382166000908152600584016020526040902054613286908290615d9b565b6001600160a01b03831660009081526005850160205260409020556132aa83614955565b611171576040517f08c379a000000000000000000000000000000000000000000000000000000000815260206004820152601460248201527f496e73756666696369656e742062616c616e63650000000000000000000000006044820152606401610b1f565b8254600090815b81811015611a2b57600086828154811061334157634e487b7160e01b600052603260045260246000fd5b60009182526020808320909101546001600160a01b031680835290889052604090912054909150613374908290876149a1565b61337e9085615bf4565b935050808061338c90615de7565b915050613317565b606080600283511015613403576040517f08c379a000000000000000000000000000000000000000000000000000000000815260206004820152601460248201527f746f6b656e207061746820746f6f2073686f72740000000000000000000000006044820152606401610b1f565b825167ffffffffffffffff81111561342b57634e487b7160e01b600052604160045260246000fd5b604051908082528060200260200182016040528015613454578160200160208202803683370190505b5091508482600184516134679190615d9b565b8151811061348557634e487b7160e01b600052603260045260246000fd5b6020026020010181815250506001835161349f9190615d9b565b67ffffffffffffffff8111156134c557634e487b7160e01b600052604160045260246000fd5b6040519080825280602002602001820160405280156134ee578160200160208202803683370190505b5090506000600184516135019190615d9b565b90505b80156136bd57600084613518600184615d9b565b8151811061353657634e487b7160e01b600052603260045260246000fd5b60200260200101519050600085838151811061356257634e487b7160e01b600052603260045260246000fd5b6020026020010151905060008760018561357c9190615d9b565b6020811061359a57634e487b7160e01b600052603260045260246000fd5b1a60f81b7fff0000000000000000000000000000000000000000000000000000000000000016156135d4576135cf8383614abc565b6135de565b6135de8383614be3565b905080856135ed600187615d9b565b8151811061360b57634e487b7160e01b600052603260045260246000fd5b60200260200101906001600160a01b031690816001600160a01b031681525050600080613639838686614ccf565b9150915061366f88878151811061366057634e487b7160e01b600052603260045260246000fd5b60200260200101518383614dac565b8861367b600189615d9b565b8151811061369957634e487b7160e01b600052603260045260246000fd5b602002602001018181525050505050505080806136b590615db2565b915050613504565b50935093915050565b6103e86136d38284615d5e565b6136df836103e8615d9b565b85600101546136ee9190615d5e565b6136f89190615bf4565b6137029190615c0c565b8360010181905550505050565b600081831115613720575080610a8a565b5081610a8a565b600080613765606660009081526020527f422cccb7cea5c0e46f340bb7b21b81debac329f72e31669c20ff0f3a05cc2b5b546001600160a01b031690565b6001600160a01b03858116600081815260028901602090815260408083205460038c01909252918290205491517fe695fa6800000000000000000000000000000000000000000000000000000000815260048101919091526024810192909252604482015291169063e695fa68906064016040805180830381600087803b1580156137ef57600080fd5b505af1158015613803573d6000803e3d6000fd5b505050506040513d601f19601f820116820180604052508101906138279190615a7b565b909250905060006138388484615d9b565b6001600160a01b0386166000908152600288016020908152604080832084905560058a01909152902054909150613870908590615d9b565b6001600160a01b038616600090815260058801602052604090205580156138b3576001600160a01b03851660009081526003870160205260409020829055613a24565b6001600160a01b038516600090815260038701602052604081208190556001870154815b808211156139a757600089600101828154811061390457634e487b7160e01b600052603260045260246000fd5b6000918252602090912001546001600160a01b039081169150891681141561392f5760019350613994565b831561399457808a6001016001846139479190615d9b565b8154811061396557634e487b7160e01b600052603260045260246000fd5b9060005260206000200160006101000a8154816001600160a01b0302191690836001600160a01b031602179055505b508061399f81615de7565b9150506138d7565b50876001018054806139c957634e487b7160e01b600052603160045260246000fd5b60008281526020902081017fffffffffffffffffffffffffffffffffffffffffffffffffffffffffffffffff90810180547fffffffffffffffffffffffff000000000000000000000000000000000000000016905501905550505b505050505050565b6001600160a01b0384166000908152600586016020526040902054613a52908390615d9b565b6001600160a01b0385166000908152600587016020526040902055613a78858483613dc4565b5050505050565b6001600160a01b0382166000908152600384016020526040902054613be6576001838101805491820181556000908152602090200180547fffffffffffffffffffffffff0000000000000000000000000000000000000000166001600160a01b038416179055613b20606660009081526020527f422cccb7cea5c0e46f340bb7b21b81debac329f72e31669c20ff0f3a05cc2b5b546001600160a01b031690565b6040517f46c87f800000000000000000000000000000000000000000000000000000000081526001600160a01b03848116600483015291909116906346c87f8090602401602060405180830381600087803b158015613b7e57600080fd5b505af1158015613b92573d6000803e3d6000fd5b505050506040513d601f19601f82011682018060405250810190613bb69190615a13565b6001600160a01b038316600090815260038501602090815260408083209390935560028601905220819055613d30565b600080613c24606660009081526020527f422cccb7cea5c0e46f340bb7b21b81debac329f72e31669c20ff0f3a05cc2b5b546001600160a01b031690565b6001600160a01b03858116600081815260028901602090815260408083205460038c01909252918290205491517fe695fa6800000000000000000000000000000000000000000000000000000000815260048101919091526024810192909252604482015291169063e695fa68906064016040805180830381600087803b158015613cae57600080fd5b505af1158015613cc2573d6000803e3d6000fd5b505050506040513d601f19601f82011682018060405250810190613ce69190615a7b565b6001600160a01b038616600090815260038801602052604090208190559092509050613d128383615bf4565b6001600160a01b038516600090815260028701602052604090205550505b6132aa83614955565b8154600090815b81811015613dbc576000858281548110613d6a57634e487b7160e01b600052603260045260246000fd5b60009182526020808320909101546001600160a01b031680835290879052604090912054909150613d9c9082906109f1565b613da69085615bf4565b9350508080613db490615de7565b915050613d40565b505092915050565b6001600160a01b038216600090815260068401602052604090205460ff16613e6c57600483018054600180820183556000928352602080842090920180547fffffffffffffffffffffffff0000000000000000000000000000000000000000166001600160a01b038716908117909155835260068601909152604090912080547fffffffffffffffffffffffffffffffffffffffffffffffffffffffffffffff001690911790555b6001600160a01b038216600090815260058401602052604081208054839290613e96908490615bf4565b9091555050505050565b6000613f23613eb16006600a615c72565b613ebc906064615d5e565b836003015484600201805480602002602001604051908101604052809291908181526020018280548015613f1957602002820191906000526020600020905b81546001600160a01b03168152600190910190602001808311613efb575b5050505050613394565b5090506109ed8282600081518110613f4b57634e487b7160e01b600052603260045260246000fd5b60200260200101516004546136c6565b600080613f99606b60009081526020527f2dc7a963308417ad45132da282495eb244f38a7db03940a4d808be607669c622546001600160a01b031690565b6001600160a01b031663b0411f466040518163ffffffff1660e01b8152600401604080518083038186803b158015613fd057600080fd5b505afa158015613fe4573d6000803e3d6000fd5b505050506040513d601f19601f82011682018060405250810190614008919061582b565b50905060135460165461401b9190615d5e565b6001600160a01b0390911660009081526011602052604090205411905090565b60408051600080825260208201928390529051909161405d91600e919061558f565b50604080516000815260208101918290525161407b91600f9161558f565b5060408051600081526020810191829052516140999160109161558f565b5060005b80845111156145bb5760008482815181106140c857634e487b7160e01b600052603260045260246000fd5b60200260200101519050600060086000836001600160a01b03166001600160a01b03168152602001908152602001600020905061410481614efd565b15614571576010805460018101825560009182527f1b6847dc741a1b0cd08d278845f9d819d87b734759afb55fe2de5cb82a9ae6720180547fffffffffffffffffffffffff0000000000000000000000000000000000000000166001600160a01b0385161790556004820154905b808211156142a657600083600401828154811061419f57634e487b7160e01b600052603260045260246000fd5b60009182526020808320909101546001600160a01b0316808352600d9091526040909120600281015491925090431461425b576001600160a01b0382166000818152600587016020526040812054600180850191909155818455436002850155600e805491820181559091527fbb7b4a454dc3493923482f07822329ed19e8244eff582cc204f8554c3620c3fd0180547fffffffffffffffffffffffff0000000000000000000000000000000000000000169091179055614291565b6001600160a01b03821660009081526005860160205260408120546001830180549192909161428b908490615bf4565b90915550505b5050808061429e90615de7565b915050614172565b5050600181015460005b8082111561456e5760008360010182815481106142dd57634e487b7160e01b600052603260045260246000fd5b60009182526020808320909101546001600160a01b0316808352600d909152604082209092509061433f606660009081526020527f422cccb7cea5c0e46f340bb7b21b81debac329f72e31669c20ff0f3a05cc2b5b546001600160a01b031690565b6001600160a01b03848116600081815260028a01602090815260408083205460038d01909252918290205491517fe695fa6800000000000000000000000000000000000000000000000000000000815260048101919091526024810192909252604482015291169063e695fa68906064016040805180830381600087803b1580156143c957600080fd5b505af11580156143dd573d6000803e3d6000fd5b505050506040513d601f19601f820116820180604052508101906144019190615a7b565b50905061443f606660009081526020527f422cccb7cea5c0e46f340bb7b21b81debac329f72e31669c20ff0f3a05cc2b5b546001600160a01b031690565b6040517f2a6a897b0000000000000000000000000000000000000000000000000000000081526001600160a01b038581166004830152602482018490529190911690632a6a897b90604401600060405180830381600087803b1580156144a457600080fd5b505af11580156144b8573d6000803e3d6000fd5b505050504382600201541461453e5760006001838101829055828455436002850155600f805491820181559091527f8d1108e10bcb7c27dddfc02ed9d693a074039d026cf4ea4240b40f7d581ac8020180547fffffffffffffffffffffffff0000000000000000000000000000000000000000166001600160a01b038516179055614558565b808260000160008282546145529190615bf4565b90915550505b505050808061456690615de7565b9150506142b0565b50505b6001600160a01b038216600090815260126020526040902085156145a55761459881612c0a565b6145a29086615bf4565b94505b50505080806145b390615de7565b91505061409d565b5092915050565b600e54600090815b80821115614693576000600e82815481106145f557634e487b7160e01b600052603260045260246000fd5b60009182526020808320909101546001600160a01b0316808352600d9091526040909120805460018201549293509091111561467e578054600182015460009161463e91615d9b565b905061464a8382614f3a565b6146549087615bf4565b6001600160a01b0384166000908152600d6020526040812081815560018101829055600201559550505b5050808061468b90615de7565b9150506145ca565b506146a0600e6000615608565b5090565b600f54600090815b80821115614772576000600f82815481106146d757634e487b7160e01b600052603260045260246000fd5b60009182526020808320909101546001600160a01b0316808352600d9091526040909120600181015481549293509091111561475d5761472a82826001015483600001546147259190615d9b565b6150c4565b6147349086615bf4565b6001600160a01b0383166000908152600d60205260408120818155600181018290556002015594505b5050808061476a90615de7565b9150506146ac565b506146a0600f6000615608565b6000610a8a826004018360050161525b565b6000610a8a8260010183600201846003016152de565b600181015460005b8082111561485c5760008360010182815481106147dc57634e487b7160e01b600052603260045260246000fd5b60009182526020808320909101546001600160a01b0316808352600287018252604080842054600a9093528320805491945091929061481c908490615d9b565b90915550506001600160a01b031660009081526002840160209081526040808320839055600386019091528120558061485481615de7565b9150506147af565b5050600481015460005b8082111561493857600083600401828154811061489357634e487b7160e01b600052603260045260246000fd5b60009182526020808320909101546001600160a01b0316808352600587018252604080842054600b909352832080549194509192906148d3908490615d9b565b90915550506001600160a01b03166000908152600584016020908152604080832083905560068601909152902080547fffffffffffffffffffffffffffffffffffffffffffffffffffffffffffffff001690558061493081615de7565b915050614866565b50614947600183016000615608565b6109ed600483016000615608565b60008061496183614791565b9050600061496e8461477f565b90506006548261497e9190615d5e565b606460065461498d9190615d9b565b6149979083615d5e565b1015949350505050565b6000806149df606660009081526020527f422cccb7cea5c0e46f340bb7b21b81debac329f72e31669c20ff0f3a05cc2b5b546001600160a01b031690565b6040517f14189db20000000000000000000000000000000000000000000000000000000081526001600160a01b03878116600483015291909116906314189db29060240160206040518083038186803b158015614a3b57600080fd5b505afa158015614a4f573d6000803e3d6000fd5b505050506040513d601f19601f82011682018060405250810190614a739190615a13565b6001600160a01b03861660009081526020859052604081205491925090614a9a8387615d5e565b614aa49190615c0c565b9050614ab086826109f1565b925050505b9392505050565b6000806000614acb8585615362565b60408051606084811b7fffffffffffffffffffffffffffffffffffffffff0000000000000000000000009081166020808501919091529185901b166034830152825160288184030181526048830190935282519201919091207fff0000000000000000000000000000000000000000000000000000000000000060688301527fc0aee478e3658e2610c5f7a4a2e1777ce9e4f2ac0000000000000000000000006069830152607d8201527fe18a34eb0e04b04f7a0ac29a6e80748dca96319b42c54d679cb821dca90c6303609d820152919350915060bd015b604080517fffffffffffffffffffffffffffffffffffffffffffffffffffffffffffffffe0818403018152919052805160209091012095945050505050565b6000806000614bf28585615362565b60408051606084811b7fffffffffffffffffffffffffffffffffffffffff0000000000000000000000009081166020808501919091529185901b166034830152825160288184030181526048830190935282519201919091207fff0000000000000000000000000000000000000000000000000000000000000060688301527f5c69bee701ef814a2b6a3edd4b1652cb9cc5aa6f0000000000000000000000006069830152607d8201527f96e8ac4277198ff8b6f785478aa9a39f403cb768dd02cbee326c3e7da348845f609d820152919350915060bd01614ba4565b6000806000614cde8585615362565b509050600080876001600160a01b0316630902f1ac6040518163ffffffff1660e01b815260040160606040518083038186803b158015614d1d57600080fd5b505afa158015614d31573d6000803e3d6000fd5b505050506040513d601f19601f82011682018060405250810190614d55919061598b565b506dffffffffffffffffffffffffffff1691506dffffffffffffffffffffffffffff169150826001600160a01b0316876001600160a01b031614614d9a578082614d9d565b81815b90999098509650505050505050565b6000808411614e17576040517f08c379a000000000000000000000000000000000000000000000000000000000815260206004820152601a60248201527f494e53554646494349454e545f4f55545055545f414d4f554e540000000000006044820152606401610b1f565b600083118015614e275750600082115b614eb3576040517f08c379a000000000000000000000000000000000000000000000000000000000815260206004820152602860248201527f556e697377617056324c6962726172793a20494e53554646494349454e545f4c60448201527f49515549444954590000000000000000000000000000000000000000000000006064820152608401610b1f565b6000614ebf8585615d5e565b614ecb906103e8615d5e565b905060006103e5614edc8786615d9b565b614ee69190615d9b565b9050614ef28183615c0c565b614ab0906001615bf4565b600080614f0983614791565b90506000614f168461477f565b905081600754614f269190615d5e565b614f31826064615d5e565b10949350505050565b60007f00000000000000000000000000000000000000000000000000000000000000006001600160a01b0316836001600160a01b03161415614f7d575080610a8a565b6001600160a01b038316600090815260026020526040812090614fd1606760009081526020527f682158d08466d11c566d5712d4396197fdd67e65be71d83c97ef719ec468867b546001600160a01b031690565b6001600160a01b031663351ae6108560008560030154866002016040518563ffffffff1660e01b815260040161500a9493929190615b5c565b600060405180830381600087803b15801561502457600080fd5b505af1158015615038573d6000803e3d6000fd5b505050506040513d6000823e601f3d9081017fffffffffffffffffffffffffffffffffffffffffffffffffffffffffffffffe016820160405261507e9190810190615893565b9050600081600183516150919190615d9b565b815181106150af57634e487b7160e01b600052603260045260246000fd5b60200260200101519050809350505050610a8a565b60007f00000000000000000000000000000000000000000000000000000000000000006001600160a01b0316836001600160a01b03161415615107575080610a8a565b6001600160a01b03831660009081526002602052604081209061515b606760009081526020527f682158d08466d11c566d5712d4396197fdd67e65be71d83c97ef719ec468867b546001600160a01b031690565b6001600160a01b03166353d7ff9f857fffffffffffffffffffffffffffffffffffffffffffffffffffffffffffffffff8560030154866004016040518563ffffffff1660e01b81526004016151b39493929190615b5c565b600060405180830381600087803b1580156151cd57600080fd5b505af11580156151e1573d6000803e3d6000fd5b505050506040513d6000823e601f3d9081017fffffffffffffffffffffffffffffffffffffffffffffffffffffffffffffffe01682016040526152279190810190615893565b90508060008151811061524a57634e487b7160e01b600052603260045260246000fd5b602002602001015192505050610a8a565b8154600090815b81811015613dbc57600085828154811061528c57634e487b7160e01b600052603260045260246000fd5b60009182526020808320909101546001600160a01b0316808352908790526040909120549091506152be908290611864565b6152c89085615bf4565b93505080806152d690615de7565b915050615262565b8254600090815b81811015611a2b57600086828154811061530f57634e487b7160e01b600052603260045260246000fd5b60009182526020808320909101546001600160a01b03168083529088905260409091205490915061534290829087615480565b61534c9085615bf4565b935050808061535a90615de7565b9150506152e5565b600080826001600160a01b0316846001600160a01b031614156153e1576040517f08c379a000000000000000000000000000000000000000000000000000000000815260206004820152601260248201527f4964656e746963616c20616464726573732100000000000000000000000000006044820152606401610b1f565b826001600160a01b0316846001600160a01b031610615401578284615404565b83835b90925090506001600160a01b038216615479576040517f08c379a000000000000000000000000000000000000000000000000000000000815260206004820152600d60248201527f5a65726f206164647265737321000000000000000000000000000000000000006044820152606401610b1f565b9250929050565b6000806154be606660009081526020527f422cccb7cea5c0e46f340bb7b21b81debac329f72e31669c20ff0f3a05cc2b5b546001600160a01b031690565b6040517f14189db20000000000000000000000000000000000000000000000000000000081526001600160a01b03878116600483015291909116906314189db29060240160206040518083038186803b15801561551a57600080fd5b505afa15801561552e573d6000803e3d6000fd5b505050506040513d601f19601f820116820180604052508101906155529190615a13565b6001600160a01b038616600090815260208590526040812054919250906155798387615d5e565b6155839190615c0c565b9050614ab08682611864565b8280548282559060005260206000209081019282156155fc579160200282015b828111156155fc57825182547fffffffffffffffffffffffff0000000000000000000000000000000000000000166001600160a01b039091161782556020909201916001909101906155af565b506146a0929150615629565b50805460008255906000526020600020908101906156269190615629565b50565b5b808211156146a0576000815560010161562a565b600082601f83011261564e578081fd5b8135602061566361565e83615bd0565b615b81565b80838252828201915082860187848660051b8901011115615682578586fd5b855b858110156156a957813561569781615e4c565b84529284019290840190600101615684565b5090979650505050505050565b80516dffffffffffffffffffffffffffff81168114610db857600080fd5b6000602082840312156156e5578081fd5b8135614ab581615e4c565b600060208284031215615701578081fd5b8151614ab581615e4c565b600080600080600060a08688031215615723578081fd5b853561572e81615e4c565b9450602086013561573e81615e4c565b9350604086013561574e81615e4c565b94979396509394606081013594506080013592915050565b60008060006060848603121561577a578283fd5b833561578581615e4c565b9250602084013561579581615e4c565b929592945050506040919091013590565b600080600080600060a086880312156157bd578081fd5b85356157c881615e4c565b945060208601356157d881615e4c565b93506040860135925060608601356157ef81615e4c565b949793965091946080013592915050565b60008060408385031215615812578182fd5b823561581d81615e4c565b946020939093013593505050565b6000806040838503121561583d578182fd5b825161584881615e4c565b6020939093015192949293505050565b600060208284031215615869578081fd5b813567ffffffffffffffff81111561587f578182fd5b61588b8482850161563e565b949350505050565b600060208083850312156158a5578182fd5b825167ffffffffffffffff8111156158bb578283fd5b8301601f810185136158cb578283fd5b80516158d961565e82615bd0565b80828252848201915084840188868560051b87010111156158f8578687fd5b8694505b8385101561591a5780518352600194909401939185019185016158fc565b50979650505050505050565b600060208284031215615937578081fd5b81518015158114614ab5578182fd5b60008060408385031215615958578182fd5b82359150602083013567ffffffffffffffff811115615975578182fd5b6159818582860161563e565b9150509250929050565b60008060006060848603121561599f578081fd5b6159a8846156b6565b92506159b6602085016156b6565b9150604084015163ffffffff811681146159ce578182fd5b809150509250925092565b6000602082840312156159ea578081fd5b813561ffff81168114614ab5578182fd5b600060208284031215615a0c578081fd5b5035919050565b600060208284031215615a24578081fd5b5051919050565b60008060408385031215615a3d578182fd5b823591506020830135615a4f81615e4c565b809150509250929050565b60008060408385031215615a6c578182fd5b50508035926020909101359150565b60008060408385031215615a8d578182fd5b505080516020909101519092909150565b6000815480845260208085019450838352808320835b83811015615ad95781546001600160a01b031687529582019560019182019101615ab4565b509495945050505050565b604080825283519082018190526000906020906060840190828701845b82811015615b285781516001600160a01b0316845260208401935090840190600101615b01565b50505083810382850152845180825285830191830190845b818110156156a957835183529284019291840191600101615b40565b600085825284602083015283604083015260806060830152612ec36080830184615a9e565b604051601f82017fffffffffffffffffffffffffffffffffffffffffffffffffffffffffffffffe016810167ffffffffffffffff81118282101715615bc857615bc8615e36565b604052919050565b600067ffffffffffffffff821115615bea57615bea615e36565b5060051b60200190565b60008219821115615c0757615c07615e20565b500190565b600082615c2757634e487b7160e01b81526012600452602481fd5b500490565b80825b6001808611615c3e5750615c69565b818704821115615c5057615c50615e20565b80861615615c5d57918102915b9490941c938002615c2f565b94509492505050565b6000614ab57fffffffffffffffffffffffffffffffffffffffffffffffffffffffffffffffff8484600082615ca957506001614ab5565b81615cb657506000614ab5565b8160018114615ccc5760028114615cd657615d03565b6001915050614ab5565b60ff841115615ce757615ce7615e20565b6001841b915084821115615cfd57615cfd615e20565b50614ab5565b5060208310610133831016604e8410600b8410161715615d36575081810a83811115615d3157615d31615e20565b614ab5565b615d438484846001615c2c565b808604821115615d5557615d55615e20565b02949350505050565b6000817fffffffffffffffffffffffffffffffffffffffffffffffffffffffffffffffff0483118215151615615d9657615d96615e20565b500290565b600082821015615dad57615dad615e20565b500390565b600081615dc157615dc1615e20565b507fffffffffffffffffffffffffffffffffffffffffffffffffffffffffffffffff0190565b60007fffffffffffffffffffffffffffffffffffffffffffffffffffffffffffffffff821415615e1957615e19615e20565b5060010190565b634e487b7160e01b600052601160045260246000fd5b634e487b7160e01b600052604160045260246000fd5b6001600160a01b038116811461562657600080fdfea264697066735822122031ab8fa116a5c3c5c5782d0d70cd2e307201a2356d88b00f49b7a9c7ad3a36ed64736f6c63430008030033",
  "devdoc": {
    "kind": "dev",
    "methods": {
      "canBeLiquidated(address)": {
        "details": "can this trader be liquidated?"
      },
      "getBorrowAmounts(address)": {
        "details": "view function to display account borrowing state"
      },
      "getHoldingAmounts(address)": {
        "details": "view function to display account held assets state"
      },
      "registerBorrow(address,address,uint256)": {
        "details": "gets called by router to affirm borrowing event"
      },
      "registerDeposit(address,address,uint256)": {
        "details": "gets called by router to affirm a deposit to an account"
      },
      "registerLiquidation(address)": {
        "details": "can get called by router to register the dissolution of an account"
      },
      "registerOvercollateralizedBorrow(address,address,uint256,address,uint256)": {
        "details": "overcollateralized borrowing on a cross margin account, called by router"
      },
      "registerTradeAndBorrow(address,address,address,uint256,uint256)": {
        "details": "gets called by router to register a trade and borrow and extinguish as necessary"
      },
      "registerWithdrawal(address,address,uint256)": {
        "details": "gets called by router to affirm withdrawal of tokens from account"
      },
      "setCoolingOffPeriod(uint256)": {
        "details": "setter for cooling off period for withdrawing funds after deposit"
      },
      "setLeveragePercent(uint256)": {
        "details": "admin function to set leverage"
      },
      "setLiquidationThresholdPercent(uint256)": {
        "details": "admin function to set liquidation threshold"
      },
      "setTokenCap(address,uint256)": {
        "details": "admin function to set the token cap"
      },
      "viewHoldingsInPeg(address)": {
        "details": "total of assets of account, expressed in reference currency"
      },
      "viewLoanInPeg(address)": {
        "details": "view function to get loan amount in peg"
      }
    },
    "version": 1
  },
  "userdoc": {
    "kind": "user",
    "methods": {
      "addVolatilitySetting(uint256,uint256)": {
        "notice": "Add a new volatility setting"
      },
      "chooseVolatilitySetting(uint256)": {
        "notice": "Choose a volatitlity setting"
      },
      "disburseLiqStakeAttacks(address[])": {
        "notice": "Disburse liquidity stake attacks"
      },
      "getCurrentPriceInPeg(address,uint256)": {
        "notice": "Get current price of token in peg"
      },
      "liquidate(address[])": {
        "notice": "called by maintenance stakers to liquidate accounts below liquidation threshold"
      },
      "priceUpdateWindow()": {
        "notice": "update window in blocks"
      },
      "setFailureThreshold(uint256)": {
        "notice": "Set failure threshold"
      },
      "setLiqStakeAttackWindow(uint256)": {
        "notice": "Set liquidity stake attack window"
      },
      "setLiquidationPath(bytes32,address[])": {
        "notice": "add path from token to current liquidation peg"
      },
      "setMaintainerCutPercent(uint256)": {
        "notice": "Set maintainer's percent cut"
      },
      "setPriceUpdateWindow(uint16)": {
        "notice": "Set window for price updates"
      },
      "setUpdateRate(uint256)": {
        "notice": "Set rate for updates"
      },
      "viewCurrentPriceInPeg(address,uint256)": {
        "notice": "Get view of current price of token in peg"
      }
    },
    "version": 1
  },
  "storageLayout": {
    "storage": [
      {
        "astId": 11682,
        "contract": "contracts/CrossMarginTrading.sol:CrossMarginTrading",
        "label": "mainCharacterCache",
        "offset": 0,
        "slot": "0",
        "type": "t_mapping(t_uint256,t_address)"
      },
      {
        "astId": 11688,
        "contract": "contracts/CrossMarginTrading.sol:CrossMarginTrading",
        "label": "roleCache",
        "offset": 0,
        "slot": "1",
        "type": "t_mapping(t_address,t_mapping(t_uint256,t_bool))"
      },
      {
        "astId": 11067,
        "contract": "contracts/CrossMarginTrading.sol:CrossMarginTrading",
        "label": "tokenPrices",
        "offset": 0,
        "slot": "2",
        "type": "t_mapping(t_address,t_struct(TokenPrice)11041_storage)"
      },
      {
        "astId": 11071,
        "contract": "contracts/CrossMarginTrading.sol:CrossMarginTrading",
        "label": "priceUpdateWindow",
        "offset": 0,
        "slot": "3",
        "type": "t_uint256"
      },
      {
        "astId": 11074,
        "contract": "contracts/CrossMarginTrading.sol:CrossMarginTrading",
        "label": "UPDATE_RATE_PERMIL",
        "offset": 0,
        "slot": "4",
        "type": "t_uint256"
      },
      {
        "astId": 11078,
        "contract": "contracts/CrossMarginTrading.sol:CrossMarginTrading",
        "label": "volatilitySettings",
        "offset": 0,
        "slot": "5",
        "type": "t_array(t_struct(VolatilitySetting)11046_storage)dyn_storage"
      },
      {
        "astId": 2563,
        "contract": "contracts/CrossMarginTrading.sol:CrossMarginTrading",
        "label": "leveragePercent",
        "offset": 0,
        "slot": "6",
        "type": "t_uint256"
      },
      {
        "astId": 2567,
        "contract": "contracts/CrossMarginTrading.sol:CrossMarginTrading",
        "label": "liquidationThresholdPercent",
        "offset": 0,
        "slot": "7",
        "type": "t_uint256"
      },
      {
        "astId": 2573,
        "contract": "contracts/CrossMarginTrading.sol:CrossMarginTrading",
        "label": "marginAccounts",
        "offset": 0,
        "slot": "8",
        "type": "t_mapping(t_address,t_struct(CrossMarginAccount)2555_storage)"
      },
      {
        "astId": 2578,
        "contract": "contracts/CrossMarginTrading.sol:CrossMarginTrading",
        "label": "tokenCaps",
        "offset": 0,
        "slot": "9",
        "type": "t_mapping(t_address,t_uint256)"
      },
      {
        "astId": 2583,
        "contract": "contracts/CrossMarginTrading.sol:CrossMarginTrading",
        "label": "totalShort",
        "offset": 0,
        "slot": "10",
        "type": "t_mapping(t_address,t_uint256)"
      },
      {
        "astId": 2588,
        "contract": "contracts/CrossMarginTrading.sol:CrossMarginTrading",
        "label": "totalLong",
        "offset": 0,
        "slot": "11",
        "type": "t_mapping(t_address,t_uint256)"
      },
      {
        "astId": 2591,
        "contract": "contracts/CrossMarginTrading.sol:CrossMarginTrading",
        "label": "coolingOffPeriod",
        "offset": 0,
        "slot": "12",
        "type": "t_uint256"
      },
      {
        "astId": 3482,
        "contract": "contracts/CrossMarginTrading.sol:CrossMarginTrading",
        "label": "liquidationAmounts",
        "offset": 0,
        "slot": "13",
        "type": "t_mapping(t_address,t_struct(Liquidation)3468_storage)"
      },
      {
        "astId": 3485,
        "contract": "contracts/CrossMarginTrading.sol:CrossMarginTrading",
        "label": "sellTokens",
        "offset": 0,
        "slot": "14",
        "type": "t_array(t_address)dyn_storage"
      },
      {
        "astId": 3488,
        "contract": "contracts/CrossMarginTrading.sol:CrossMarginTrading",
        "label": "buyTokens",
        "offset": 0,
        "slot": "15",
        "type": "t_array(t_address)dyn_storage"
      },
      {
        "astId": 3491,
        "contract": "contracts/CrossMarginTrading.sol:CrossMarginTrading",
        "label": "tradersToLiquidate",
        "offset": 0,
        "slot": "16",
        "type": "t_array(t_address)dyn_storage"
      },
      {
        "astId": 3495,
        "contract": "contracts/CrossMarginTrading.sol:CrossMarginTrading",
        "label": "maintenanceFailures",
        "offset": 0,
        "slot": "17",
        "type": "t_mapping(t_address,t_uint256)"
      },
      {
        "astId": 3500,
        "contract": "contracts/CrossMarginTrading.sol:CrossMarginTrading",
        "label": "stakeAttackRecords",
        "offset": 0,
        "slot": "18",
        "type": "t_mapping(t_address,t_struct(AccountLiqRecord)3477_storage)"
      },
      {
        "astId": 3503,
        "contract": "contracts/CrossMarginTrading.sol:CrossMarginTrading",
        "label": "avgLiquidationPerCall",
        "offset": 0,
        "slot": "19",
        "type": "t_uint256"
      },
      {
        "astId": 3506,
        "contract": "contracts/CrossMarginTrading.sol:CrossMarginTrading",
        "label": "liqStakeAttackWindow",
        "offset": 0,
        "slot": "20",
        "type": "t_uint256"
      },
      {
        "astId": 3509,
        "contract": "contracts/CrossMarginTrading.sol:CrossMarginTrading",
        "label": "MAINTAINER_CUT_PERCENT",
        "offset": 0,
        "slot": "21",
        "type": "t_uint256"
      },
      {
        "astId": 3512,
        "contract": "contracts/CrossMarginTrading.sol:CrossMarginTrading",
        "label": "failureThreshold",
        "offset": 0,
        "slot": "22",
        "type": "t_uint256"
      }
    ],
    "types": {
      "t_address": {
        "encoding": "inplace",
        "label": "address",
        "numberOfBytes": "20"
      },
      "t_array(t_address)dyn_storage": {
        "base": "t_address",
        "encoding": "dynamic_array",
        "label": "address[]",
        "numberOfBytes": "32"
      },
      "t_array(t_struct(VolatilitySetting)11046_storage)dyn_storage": {
        "base": "t_struct(VolatilitySetting)11046_storage",
        "encoding": "dynamic_array",
        "label": "struct VolatilitySetting[]",
        "numberOfBytes": "32"
      },
      "t_bool": {
        "encoding": "inplace",
        "label": "bool",
        "numberOfBytes": "1"
      },
      "t_bytes32": {
        "encoding": "inplace",
        "label": "bytes32",
        "numberOfBytes": "32"
      },
      "t_mapping(t_address,t_bool)": {
        "encoding": "mapping",
        "key": "t_address",
        "label": "mapping(address => bool)",
        "numberOfBytes": "32",
        "value": "t_bool"
      },
      "t_mapping(t_address,t_mapping(t_uint256,t_bool))": {
        "encoding": "mapping",
        "key": "t_address",
        "label": "mapping(address => mapping(uint256 => bool))",
        "numberOfBytes": "32",
        "value": "t_mapping(t_uint256,t_bool)"
      },
      "t_mapping(t_address,t_struct(AccountLiqRecord)3477_storage)": {
        "encoding": "mapping",
        "key": "t_address",
        "label": "mapping(address => struct CrossMarginLiquidation.AccountLiqRecord)",
        "numberOfBytes": "32",
        "value": "t_struct(AccountLiqRecord)3477_storage"
      },
      "t_mapping(t_address,t_struct(CrossMarginAccount)2555_storage)": {
        "encoding": "mapping",
        "key": "t_address",
        "label": "mapping(address => struct CrossMarginAccount)",
        "numberOfBytes": "32",
        "value": "t_struct(CrossMarginAccount)2555_storage"
      },
      "t_mapping(t_address,t_struct(Liquidation)3468_storage)": {
        "encoding": "mapping",
        "key": "t_address",
        "label": "mapping(address => struct CrossMarginLiquidation.Liquidation)",
        "numberOfBytes": "32",
        "value": "t_struct(Liquidation)3468_storage"
      },
      "t_mapping(t_address,t_struct(TokenPrice)11041_storage)": {
        "encoding": "mapping",
        "key": "t_address",
        "label": "mapping(address => struct TokenPrice)",
        "numberOfBytes": "32",
        "value": "t_struct(TokenPrice)11041_storage"
      },
      "t_mapping(t_address,t_uint256)": {
        "encoding": "mapping",
        "key": "t_address",
        "label": "mapping(address => uint256)",
        "numberOfBytes": "32",
        "value": "t_uint256"
      },
      "t_mapping(t_uint256,t_address)": {
        "encoding": "mapping",
        "key": "t_uint256",
        "label": "mapping(uint256 => address)",
        "numberOfBytes": "32",
        "value": "t_address"
      },
      "t_mapping(t_uint256,t_bool)": {
        "encoding": "mapping",
        "key": "t_uint256",
        "label": "mapping(uint256 => bool)",
        "numberOfBytes": "32",
        "value": "t_bool"
      },
      "t_struct(AccountLiqRecord)3477_storage": {
        "encoding": "inplace",
        "label": "struct CrossMarginLiquidation.AccountLiqRecord",
        "members": [
          {
            "astId": 3470,
            "contract": "contracts/CrossMarginTrading.sol:CrossMarginTrading",
            "label": "blockNum",
            "offset": 0,
            "slot": "0",
            "type": "t_uint256"
          },
          {
            "astId": 3472,
            "contract": "contracts/CrossMarginTrading.sol:CrossMarginTrading",
            "label": "loser",
            "offset": 0,
            "slot": "1",
            "type": "t_address"
          },
          {
            "astId": 3474,
            "contract": "contracts/CrossMarginTrading.sol:CrossMarginTrading",
            "label": "amount",
            "offset": 0,
            "slot": "2",
            "type": "t_uint256"
          },
          {
            "astId": 3476,
            "contract": "contracts/CrossMarginTrading.sol:CrossMarginTrading",
            "label": "stakeAttacker",
            "offset": 0,
            "slot": "3",
            "type": "t_address"
          }
        ],
        "numberOfBytes": "128"
      },
      "t_struct(CrossMarginAccount)2555_storage": {
        "encoding": "inplace",
        "label": "struct CrossMarginAccount",
        "members": [
          {
            "astId": 2532,
            "contract": "contracts/CrossMarginTrading.sol:CrossMarginTrading",
            "label": "lastDepositBlock",
            "offset": 0,
            "slot": "0",
            "type": "t_uint256"
          },
          {
            "astId": 2535,
            "contract": "contracts/CrossMarginTrading.sol:CrossMarginTrading",
            "label": "borrowTokens",
            "offset": 0,
            "slot": "1",
            "type": "t_array(t_address)dyn_storage"
          },
          {
            "astId": 2539,
            "contract": "contracts/CrossMarginTrading.sol:CrossMarginTrading",
            "label": "borrowed",
            "offset": 0,
            "slot": "2",
            "type": "t_mapping(t_address,t_uint256)"
          },
          {
            "astId": 2543,
            "contract": "contracts/CrossMarginTrading.sol:CrossMarginTrading",
            "label": "borrowedYieldQuotientsFP",
            "offset": 0,
            "slot": "3",
            "type": "t_mapping(t_address,t_uint256)"
          },
          {
            "astId": 2546,
            "contract": "contracts/CrossMarginTrading.sol:CrossMarginTrading",
            "label": "holdingTokens",
            "offset": 0,
            "slot": "4",
            "type": "t_array(t_address)dyn_storage"
          },
          {
            "astId": 2550,
            "contract": "contracts/CrossMarginTrading.sol:CrossMarginTrading",
            "label": "holdings",
            "offset": 0,
            "slot": "5",
            "type": "t_mapping(t_address,t_uint256)"
          },
          {
            "astId": 2554,
            "contract": "contracts/CrossMarginTrading.sol:CrossMarginTrading",
            "label": "holdsToken",
            "offset": 0,
            "slot": "6",
            "type": "t_mapping(t_address,t_bool)"
          }
        ],
        "numberOfBytes": "224"
      },
      "t_struct(Liquidation)3468_storage": {
        "encoding": "inplace",
        "label": "struct CrossMarginLiquidation.Liquidation",
        "members": [
          {
            "astId": 3463,
            "contract": "contracts/CrossMarginTrading.sol:CrossMarginTrading",
            "label": "buy",
            "offset": 0,
            "slot": "0",
            "type": "t_uint256"
          },
          {
            "astId": 3465,
            "contract": "contracts/CrossMarginTrading.sol:CrossMarginTrading",
            "label": "sell",
            "offset": 0,
            "slot": "1",
            "type": "t_uint256"
          },
          {
            "astId": 3467,
            "contract": "contracts/CrossMarginTrading.sol:CrossMarginTrading",
            "label": "blockNum",
            "offset": 0,
            "slot": "2",
            "type": "t_uint256"
          }
        ],
        "numberOfBytes": "96"
      },
      "t_struct(TokenPrice)11041_storage": {
        "encoding": "inplace",
        "label": "struct TokenPrice",
        "members": [
          {
            "astId": 11028,
            "contract": "contracts/CrossMarginTrading.sol:CrossMarginTrading",
            "label": "blockLastUpdated",
            "offset": 0,
            "slot": "0",
            "type": "t_uint256"
          },
          {
            "astId": 11030,
            "contract": "contracts/CrossMarginTrading.sol:CrossMarginTrading",
            "label": "tokenPerRefAmount",
            "offset": 0,
            "slot": "1",
            "type": "t_uint256"
          },
          {
            "astId": 11033,
            "contract": "contracts/CrossMarginTrading.sol:CrossMarginTrading",
            "label": "liquidationTokens",
            "offset": 0,
            "slot": "2",
            "type": "t_array(t_address)dyn_storage"
          },
          {
            "astId": 11035,
            "contract": "contracts/CrossMarginTrading.sol:CrossMarginTrading",
            "label": "amms",
            "offset": 0,
            "slot": "3",
            "type": "t_bytes32"
          },
          {
            "astId": 11038,
            "contract": "contracts/CrossMarginTrading.sol:CrossMarginTrading",
            "label": "inverseLiquidationTokens",
            "offset": 0,
            "slot": "4",
            "type": "t_array(t_address)dyn_storage"
          },
          {
            "astId": 11040,
            "contract": "contracts/CrossMarginTrading.sol:CrossMarginTrading",
            "label": "inverseAmms",
            "offset": 0,
            "slot": "5",
            "type": "t_bytes32"
          }
        ],
        "numberOfBytes": "192"
      },
      "t_struct(VolatilitySetting)11046_storage": {
        "encoding": "inplace",
        "label": "struct VolatilitySetting",
        "members": [
          {
            "astId": 11043,
            "contract": "contracts/CrossMarginTrading.sol:CrossMarginTrading",
            "label": "priceUpdateWindow",
            "offset": 0,
            "slot": "0",
            "type": "t_uint256"
          },
          {
            "astId": 11045,
            "contract": "contracts/CrossMarginTrading.sol:CrossMarginTrading",
            "label": "updateRatePermil",
            "offset": 0,
            "slot": "1",
            "type": "t_uint256"
          }
        ],
        "numberOfBytes": "64"
      },
      "t_uint256": {
        "encoding": "inplace",
        "label": "uint256",
        "numberOfBytes": "32"
      }
    }
  }
}