{
  "address": "0x8D6d2a72F8D7D7160a7fd38c7a26329846e94C9D",
  "abi": [
    {
      "inputs": [
        {
          "internalType": "address[]",
          "name": "_contracts",
          "type": "address[]"
        },
        {
          "internalType": "uint256[]",
          "name": "_roles2nix",
          "type": "uint256[]"
        },
        {
          "internalType": "address",
          "name": "_roles",
          "type": "address"
        }
      ],
      "stateMutability": "nonpayable",
      "type": "constructor"
    },
    {
      "inputs": [],
      "name": "execute",
      "outputs": [],
      "stateMutability": "nonpayable",
      "type": "function"
    },
    {
      "inputs": [
        {
          "internalType": "uint256",
          "name": "",
          "type": "uint256"
        }
      ],
      "name": "mainCharacterCache",
      "outputs": [
        {
          "internalType": "address",
          "name": "",
          "type": "address"
        }
      ],
      "stateMutability": "view",
      "type": "function"
    },
    {
      "inputs": [],
      "name": "requiredRoles",
      "outputs": [
        {
          "internalType": "uint256[]",
          "name": "required",
          "type": "uint256[]"
        }
      ],
      "stateMutability": "pure",
      "type": "function"
    },
    {
      "inputs": [
        {
          "internalType": "address",
          "name": "",
          "type": "address"
        },
        {
          "internalType": "uint256",
          "name": "",
          "type": "uint256"
        }
      ],
      "name": "roleCache",
      "outputs": [
        {
          "internalType": "bool",
          "name": "",
          "type": "bool"
        }
      ],
      "stateMutability": "view",
      "type": "function"
    },
    {
      "inputs": [],
      "name": "roles",
      "outputs": [
        {
          "internalType": "contract Roles",
          "name": "",
          "type": "address"
        }
      ],
      "stateMutability": "view",
      "type": "function"
    },
    {
      "inputs": [
        {
          "internalType": "uint256",
          "name": "role",
          "type": "uint256"
        }
      ],
      "name": "updateMainCharacterCache",
      "outputs": [],
      "stateMutability": "nonpayable",
      "type": "function"
    },
    {
      "inputs": [
        {
          "internalType": "uint256",
          "name": "role",
          "type": "uint256"
        },
        {
          "internalType": "address",
          "name": "contr",
          "type": "address"
        }
      ],
      "name": "updateRoleCache",
      "outputs": [],
      "stateMutability": "nonpayable",
      "type": "function"
    }
  ],
  "transactionHash": "0x68ba2703f3d2b6c42dee3ab9f7dee64f61a2beba1aba2c786063b2b61d180992",
  "args": [
    [],
    [],
    "0x673ef5Ca8e7Dc5E19009c39645c960af8A0580A0"
  ],
  "solcInputHash": "8c44b34002856f1d177f43e83995d796",
  "bytecode": "0x60a06040523480156200001157600080fd5b5060405162000acc38038062000acc833981016040819052620000349162000233565b806001600160a01b0381166200009b5760405162461bcd60e51b815260206004820152602260248201527f506c656173652070726f766964652076616c696420726f6c6573206164647265604482015261737360f01b606482015260840160405180910390fd5b60601b6001600160601b0319166080528251620000c0906002906020860190620000e0565b508151620000d69060039060208501906200014a565b5050505062000385565b82805482825590600052602060002090810192821562000138579160200282015b828111156200013857825182546001600160a01b0319166001600160a01b0390911617825560209092019160019091019062000101565b506200014692915062000188565b5090565b82805482825590600052602060002090810192821562000138579160200282015b82811115620001385782518255916020019190600101906200016b565b5b8082111562000146576000815560010162000189565b80516001600160a01b0381168114620001b757600080fd5b919050565b600082601f830112620001cd578081fd5b81516020620001e6620001e08362000349565b62000316565b80838252828201915082860187848660051b890101111562000206578586fd5b855b85811015620002265781518452928401929084019060010162000208565b5090979650505050505050565b60008060006060848603121562000248578283fd5b83516001600160401b03808211156200025f578485fd5b818601915086601f83011262000273578485fd5b8151602062000286620001e08362000349565b8083825282820191508286018b848660051b8901011115620002a657898afd5b8996505b84871015620002d357620002be816200019f565b835260019690960195918301918301620002aa565b5091890151919750909350505080821115620002ed578384fd5b50620002fc86828701620001bc565b9250506200030d604085016200019f565b90509250925092565b604051601f8201601f191681016001600160401b03811182821017156200034157620003416200036f565b604052919050565b60006001600160401b038211156200036557620003656200036f565b5060051b60200190565b634e487b7160e01b600052604160045260246000fd5b60805160601c61071b620003b160003960008181609c015281816101bf01526102ed015261071b6000f3fe608060405234801561001057600080fd5b506004361061007d5760003560e01c8063614619541161005b57806361461954146100fb5780637a1a04df14610103578063cd28fc8f14610141578063e9c3f77d1461015a5761007d565b8063071060a614610082578063392f5f6414610097578063447d52ba146100e8575b600080fd5b6100956100903660046105da565b610190565b005b6100be7f000000000000000000000000000000000000000000000000000000000000000081565b60405173ffffffffffffffffffffffffffffffffffffffff90911681526020015b60405180910390f35b6100956100f63660046105f2565b6102a1565b6100956103ca565b61013161011136600461058f565b600160209081526000928352604080842090915290825290205460ff1681565b60405190151581526020016100df565b604080516000815260208101918290526100df91610621565b6100be6101683660046105da565b60006020819052908152604090205473ffffffffffffffffffffffffffffffffffffffff1681565b6040517fb4ed0b6d000000000000000000000000000000000000000000000000000000008152600481018290527f000000000000000000000000000000000000000000000000000000000000000073ffffffffffffffffffffffffffffffffffffffff169063b4ed0b6d9060240160206040518083038186803b15801561021657600080fd5b505afa15801561022a573d6000803e3d6000fd5b505050506040513d601f19601f8201168201806040525081019061024e919061056c565b60009182526020829052604090912080547fffffffffffffffffffffffff00000000000000000000000000000000000000001673ffffffffffffffffffffffffffffffffffffffff909216919091179055565b6040517f93552a3d0000000000000000000000000000000000000000000000000000000081526004810183905273ffffffffffffffffffffffffffffffffffffffff82811660248301527f000000000000000000000000000000000000000000000000000000000000000016906393552a3d9060440160206040518083038186803b15801561032f57600080fd5b505afa158015610343573d6000803e3d6000fd5b505050506040513d601f19601f8201168201806040525081019061036791906105ba565b73ffffffffffffffffffffffffffffffffffffffff9190911660009081526001602090815260408083209483529390529190912080547fffffffffffffffffffffffffffffffffffffffffffffffffffffffffffffff0016911515919091179055565b3360005b600254811015610516578173ffffffffffffffffffffffffffffffffffffffff16633238405b6003838154811061042e577f4e487b7100000000000000000000000000000000000000000000000000000000600052603260045260246000fd5b906000526020600020015460028481548110610473577f4e487b7100000000000000000000000000000000000000000000000000000000600052603260045260246000fd5b60009182526020909120015460405160e084901b7fffffffff00000000000000000000000000000000000000000000000000000000168152600481019290925273ffffffffffffffffffffffffffffffffffffffff166024820152604401600060405180830381600087803b1580156104eb57600080fd5b505af11580156104ff573d6000803e3d6000fd5b50505050808061050e90610665565b9150506103ce565b5061052360026000610532565b61052f60036000610532565b32ff5b50805460008255906000526020600020908101906105509190610553565b50565b5b808211156105685760008155600101610554565b5090565b60006020828403121561057d578081fd5b8151610588816106c3565b9392505050565b600080604083850312156105a1578081fd5b82356105ac816106c3565b946020939093013593505050565b6000602082840312156105cb578081fd5b81518015158114610588578182fd5b6000602082840312156105eb578081fd5b5035919050565b60008060408385031215610604578182fd5b823591506020830135610616816106c3565b809150509250929050565b6020808252825182820181905260009190848201906040850190845b818110156106595783518352928401929184019160010161063d565b50909695505050505050565b60007fffffffffffffffffffffffffffffffffffffffffffffffffffffffffffffffff8214156106bc577f4e487b710000000000000000000000000000000000000000000000000000000081526011600452602481fd5b5060010190565b73ffffffffffffffffffffffffffffffffffffffff8116811461055057600080fdfea26469706673582212206c89b16890e0e86b56a444de32ca147492f93d6f4cbe9cd596f9d4ebfb89064264736f6c63430008030033",
  "devdoc": {
    "kind": "dev",
    "methods": {},
    "version": 1
  },
  "userdoc": {
    "kind": "user",
    "methods": {},
    "version": 1
  },
  "storageLayout": {
    "storage": [
      {
        "astId": 9498,
        "contract": "contracts/controller-actions/DependencyCleaner.sol:DependencyCleaner",
        "label": "mainCharacterCache",
        "offset": 0,
        "slot": "0",
        "type": "t_mapping(t_uint256,t_address)"
      },
      {
        "astId": 9504,
        "contract": "contracts/controller-actions/DependencyCleaner.sol:DependencyCleaner",
        "label": "roleCache",
        "offset": 0,
        "slot": "1",
        "type": "t_mapping(t_address,t_mapping(t_uint256,t_bool))"
      },
      {
        "astId": 11433,
        "contract": "contracts/controller-actions/DependencyCleaner.sol:DependencyCleaner",
        "label": "contracts",
        "offset": 0,
        "slot": "2",
        "type": "t_array(t_address)dyn_storage"
      },
      {
        "astId": 11436,
        "contract": "contracts/controller-actions/DependencyCleaner.sol:DependencyCleaner",
        "label": "roles2nix",
        "offset": 0,
        "slot": "3",
        "type": "t_array(t_uint256)dyn_storage"
      }
    ],
    "types": {
      "t_address": {
        "encoding": "inplace",
        "label": "address",
        "numberOfBytes": "20"
      },
      "t_array(t_address)dyn_storage": {
        "base": "t_address",
        "encoding": "dynamic_array",
        "label": "address[]",
        "numberOfBytes": "32"
      },
      "t_array(t_uint256)dyn_storage": {
        "base": "t_uint256",
        "encoding": "dynamic_array",
        "label": "uint256[]",
        "numberOfBytes": "32"
      },
      "t_bool": {
        "encoding": "inplace",
        "label": "bool",
        "numberOfBytes": "1"
      },
      "t_mapping(t_address,t_mapping(t_uint256,t_bool))": {
        "encoding": "mapping",
        "key": "t_address",
        "label": "mapping(address => mapping(uint256 => bool))",
        "numberOfBytes": "32",
        "value": "t_mapping(t_uint256,t_bool)"
      },
      "t_mapping(t_uint256,t_address)": {
        "encoding": "mapping",
        "key": "t_uint256",
        "label": "mapping(uint256 => address)",
        "numberOfBytes": "32",
        "value": "t_address"
      },
      "t_mapping(t_uint256,t_bool)": {
        "encoding": "mapping",
        "key": "t_uint256",
        "label": "mapping(uint256 => bool)",
        "numberOfBytes": "32",
        "value": "t_bool"
      },
      "t_uint256": {
        "encoding": "inplace",
        "label": "uint256",
        "numberOfBytes": "32"
      }
    }
  }
}