{
  "address": "0x4e9F29F1bbe6aCb176668D467031a511062b1E9C",
  "abi": [
    {
      "inputs": [
        {
          "internalType": "address",
          "name": "_WETH",
          "type": "address"
        },
        {
          "internalType": "address",
          "name": "_roles",
          "type": "address"
        }
      ],
      "stateMutability": "nonpayable",
      "type": "constructor"
    },
    {
      "anonymous": false,
      "inputs": [
        {
          "indexed": true,
          "internalType": "address",
          "name": "previousOwner",
          "type": "address"
        },
        {
          "indexed": true,
          "internalType": "address",
          "name": "newOwner",
          "type": "address"
        }
      ],
      "name": "OwnershipTransferred",
      "type": "event"
    },
    {
      "inputs": [],
      "name": "WETH",
      "outputs": [
        {
          "internalType": "address",
          "name": "",
          "type": "address"
        }
      ],
      "stateMutability": "view",
      "type": "function"
    },
    {
      "inputs": [
        {
          "internalType": "address",
          "name": "token",
          "type": "address"
        }
      ],
      "name": "activateToken",
      "outputs": [],
      "stateMutability": "nonpayable",
      "type": "function"
    },
    {
      "inputs": [
        {
          "internalType": "address",
          "name": "",
          "type": "address"
        }
      ],
      "name": "activeTokens",
      "outputs": [
        {
          "internalType": "bool",
          "name": "",
          "type": "bool"
        }
      ],
      "stateMutability": "view",
      "type": "function"
    },
    {
      "inputs": [
        {
          "internalType": "address",
          "name": "token",
          "type": "address"
        }
      ],
      "name": "deactivateToken",
      "outputs": [],
      "stateMutability": "nonpayable",
      "type": "function"
    },
    {
      "inputs": [
        {
          "internalType": "address",
          "name": "depositToken",
          "type": "address"
        },
        {
          "internalType": "uint256",
          "name": "depositAmount",
          "type": "uint256"
        }
      ],
      "name": "deposit",
      "outputs": [],
      "stateMutability": "nonpayable",
      "type": "function"
    },
    {
      "inputs": [
        {
          "internalType": "address",
          "name": "sender",
          "type": "address"
        },
        {
          "internalType": "address",
          "name": "depositToken",
          "type": "address"
        },
        {
          "internalType": "uint256",
          "name": "depositAmount",
          "type": "uint256"
        }
      ],
      "name": "depositFor",
      "outputs": [],
      "stateMutability": "nonpayable",
      "type": "function"
    },
    {
      "inputs": [],
      "name": "depositToWETH",
      "outputs": [],
      "stateMutability": "payable",
      "type": "function"
    },
    {
      "inputs": [
        {
          "internalType": "uint256",
          "name": "",
          "type": "uint256"
        }
      ],
      "name": "mainCharacterCache",
      "outputs": [
        {
          "internalType": "address",
          "name": "",
          "type": "address"
        }
      ],
      "stateMutability": "view",
      "type": "function"
    },
    {
      "inputs": [],
      "name": "owner",
      "outputs": [
        {
          "internalType": "address",
          "name": "",
          "type": "address"
        }
      ],
      "stateMutability": "view",
      "type": "function"
    },
    {
      "inputs": [],
      "name": "renounceOwnership",
      "outputs": [],
      "stateMutability": "nonpayable",
      "type": "function"
    },
    {
      "inputs": [
        {
          "internalType": "address",
          "name": "",
          "type": "address"
        },
        {
          "internalType": "uint256",
          "name": "",
          "type": "uint256"
        }
      ],
      "name": "roleCache",
      "outputs": [
        {
          "internalType": "bool",
          "name": "",
          "type": "bool"
        }
      ],
      "stateMutability": "view",
      "type": "function"
    },
    {
      "inputs": [],
      "name": "roles",
      "outputs": [
        {
          "internalType": "contract Roles",
          "name": "",
          "type": "address"
        }
      ],
      "stateMutability": "view",
      "type": "function"
    },
    {
      "inputs": [
        {
          "internalType": "address",
          "name": "newOwner",
          "type": "address"
        }
      ],
      "name": "transferOwnership",
      "outputs": [],
      "stateMutability": "nonpayable",
      "type": "function"
    },
    {
      "inputs": [
        {
          "internalType": "uint256",
          "name": "role",
          "type": "uint256"
        }
      ],
      "name": "updateMainCharacterCache",
      "outputs": [],
      "stateMutability": "nonpayable",
      "type": "function"
    },
    {
      "inputs": [
        {
          "internalType": "uint256",
          "name": "role",
          "type": "uint256"
        },
        {
          "internalType": "address",
          "name": "contr",
          "type": "address"
        }
      ],
      "name": "updateRoleCache",
      "outputs": [],
      "stateMutability": "nonpayable",
      "type": "function"
    },
    {
      "inputs": [
        {
          "internalType": "address",
          "name": "withdrawalToken",
          "type": "address"
        },
        {
          "internalType": "address",
          "name": "recipient",
          "type": "address"
        },
        {
          "internalType": "uint256",
          "name": "withdrawalAmount",
          "type": "uint256"
        }
      ],
      "name": "withdraw",
      "outputs": [],
      "stateMutability": "nonpayable",
      "type": "function"
    },
    {
      "inputs": [
        {
          "internalType": "address",
          "name": "recipient",
          "type": "address"
        },
        {
          "internalType": "uint256",
          "name": "withdrawalAmount",
          "type": "uint256"
        }
      ],
      "name": "withdrawETH",
      "outputs": [],
      "stateMutability": "nonpayable",
      "type": "function"
    }
  ],
  "transactionHash": "0x15945bb9aefa483059662875ca740e5f8ff1b63cb620bd04ed3ab0c0919c055c",
  "args": [
    "0xC02aaA39b223FE8D0A0e5C4F27eAD9083C756Cc2",
    "0xC95531a7f6C57456718BCd69a5f64829C7973f11"
  ],
  "solcInputHash": "ec45310c1ebd228212cbc01f9840ea7e",
  "bytecode": "0x60c06040523480156200001157600080fd5b50604051620018d3380380620018d3833981016040819052620000349162000109565b806001600160a01b038116620000675760405162461bcd60e51b81526004016200005e9062000140565b60405180910390fd5b60601b6001600160601b031916608052600062000083620000e8565b600280546001600160a01b0319166001600160a01b038316908117909155604051919250906000907f8be0079c531659141344cd1fd0a4f28419497f9722a3daafe3b4186f6b6457e0908290a3505060601b6001600160601b03191660a05262000182565b3390565b80516001600160a01b03811681146200010457600080fd5b919050565b600080604083850312156200011c578182fd5b6200012783620000ec565b91506200013760208401620000ec565b90509250929050565b60208082526022908201527f506c656173652070726f766964652076616c696420726f6c6573206164647265604082015261737360f01b606082015260800190565b60805160601c60a05160601c611709620001ca600039600081816106870152818161093d01526109c0015260008181610351015281816104c2015261052101526117096000f3fe60806040526004361061010e5760003560e01c8063715018a6116100a5578063ad5c464811610074578063d9caed1211610059578063d9caed12146102b4578063e9c3f77d146102d4578063f2fde38b146102f45761010e565b8063ad5c46481461027f578063b3db428b146102945761010e565b8063715018a61461022d5780637a1a04df146102425780638da5cb5b14610262578063a6a5f9fe146102775761010e565b80634782f779116100e15780634782f779146101a057806347e7ef24146101c05780635acf6903146101e057806368173bcf1461020d5761010e565b8063071060a6146101135780630d1ce2d214610135578063392f5f6414610155578063447d52ba14610180575b600080fd5b34801561011f57600080fd5b5061013361012e36600461117f565b610314565b005b34801561014157600080fd5b506101336101503660046110bc565b610429565b34801561016157600080fd5b5061016a6104c0565b60405161017791906111e5565b60405180910390f35b34801561018c57600080fd5b5061013361019b366004611197565b6104e4565b3480156101ac57600080fd5b506101336101bb366004611134565b61060b565b3480156101cc57600080fd5b506101336101db366004611134565b6106fc565b3480156101ec57600080fd5b506102006101fb3660046110bc565b61077d565b604051610177919061125d565b34801561021957600080fd5b506101336102283660046110bc565b610792565b34801561023957600080fd5b5061013361081d565b34801561024e57600080fd5b5061020061025d366004611134565b6108ff565b34801561026e57600080fd5b5061016a61091f565b61013361093b565b34801561028b57600080fd5b5061016a6109be565b3480156102a057600080fd5b506101336102af3660046110f4565b6109e2565b3480156102c057600080fd5b506101336102cf3660046110f4565b610aa7565b3480156102e057600080fd5b5061016a6102ef36600461117f565b610b07565b34801561030057600080fd5b5061013361030f3660046110bc565b610b2f565b6040517fb4ed0b6d00000000000000000000000000000000000000000000000000000000815273ffffffffffffffffffffffffffffffffffffffff7f0000000000000000000000000000000000000000000000000000000000000000169063b4ed0b6d90610386908490600401611655565b60206040518083038186803b15801561039e57600080fd5b505afa1580156103b2573d6000803e3d6000fd5b505050506040513d601f19601f820116820180604052508101906103d691906110d8565b60009182526020829052604090912080547fffffffffffffffffffffffff00000000000000000000000000000000000000001673ffffffffffffffffffffffffffffffffffffffff909216919091179055565b61043233610c7d565b610471576040517f08c379a0000000000000000000000000000000000000000000000000000000008152600401610468906112f0565b60405180910390fd5b73ffffffffffffffffffffffffffffffffffffffff16600090815260036020526040902080547fffffffffffffffffffffffffffffffffffffffffffffffffffffffffffffff00166001179055565b7f000000000000000000000000000000000000000000000000000000000000000081565b6040517f93552a3d00000000000000000000000000000000000000000000000000000000815273ffffffffffffffffffffffffffffffffffffffff7f000000000000000000000000000000000000000000000000000000000000000016906393552a3d90610558908590859060040161165e565b60206040518083038186803b15801561057057600080fd5b505afa158015610584573d6000803e3d6000fd5b505050506040513d601f19601f820116820180604052508101906105a8919061115f565b73ffffffffffffffffffffffffffffffffffffffff9190911660009081526001602090815260408083209483529390529190912080547fffffffffffffffffffffffffffffffffffffffffffffffffffffffffffffff0016911515919091179055565b61061433610cb4565b61064a576040517f08c379a00000000000000000000000000000000000000000000000000000000081526004016104689061134d565b6040517f2e1a7d4d00000000000000000000000000000000000000000000000000000000815273ffffffffffffffffffffffffffffffffffffffff7f00000000000000000000000000000000000000000000000000000000000000001690632e1a7d4d906106bc908490600401611655565b600060405180830381600087803b1580156106d657600080fd5b505af11580156106ea573d6000803e3d6000fd5b505050506106f88282610cea565b5050565b73ffffffffffffffffffffffffffffffffffffffff821660009081526003602052604090205460ff1661075b576040517f08c379a0000000000000000000000000000000000000000000000000000000008152600401610468906112b9565b6106f873ffffffffffffffffffffffffffffffffffffffff8316333084610dc7565b60036020526000908152604090205460ff1681565b61079b33610c7d565b6107d1576040517f08c379a0000000000000000000000000000000000000000000000000000000008152600401610468906112f0565b73ffffffffffffffffffffffffffffffffffffffff16600090815260036020526040902080547fffffffffffffffffffffffffffffffffffffffffffffffffffffffffffffff00169055565b610825610e70565b73ffffffffffffffffffffffffffffffffffffffff1661084361091f565b73ffffffffffffffffffffffffffffffffffffffff1614610890576040517f08c379a00000000000000000000000000000000000000000000000000000000081526004016104689061152f565b60025460405160009173ffffffffffffffffffffffffffffffffffffffff16907f8be0079c531659141344cd1fd0a4f28419497f9722a3daafe3b4186f6b6457e0908390a3600280547fffffffffffffffffffffffff0000000000000000000000000000000000000000169055565b600160209081526000928352604080842090915290825290205460ff1681565b60025473ffffffffffffffffffffffffffffffffffffffff1690565b7f000000000000000000000000000000000000000000000000000000000000000073ffffffffffffffffffffffffffffffffffffffff1663d0e30db0346040518263ffffffff1660e01b81526004016000604051808303818588803b1580156109a357600080fd5b505af11580156109b7573d6000803e3d6000fd5b5050505050565b7f000000000000000000000000000000000000000000000000000000000000000081565b73ffffffffffffffffffffffffffffffffffffffff821660009081526003602052604090205460ff16610a41576040517f08c379a0000000000000000000000000000000000000000000000000000000008152600401610468906112b9565b610a4a33610cb4565b610a80576040517f08c379a000000000000000000000000000000000000000000000000000000000815260040161046890611564565b610aa273ffffffffffffffffffffffffffffffffffffffff8316843084610dc7565b505050565b610ab033610cb4565b610ae6576040517f08c379a0000000000000000000000000000000000000000000000000000000008152600401610468906113e1565b610aa273ffffffffffffffffffffffffffffffffffffffff84168383610e74565b60006020819052908152604090205473ffffffffffffffffffffffffffffffffffffffff1681565b610b37610e70565b73ffffffffffffffffffffffffffffffffffffffff16610b5561091f565b73ffffffffffffffffffffffffffffffffffffffff1614610ba2576040517f08c379a00000000000000000000000000000000000000000000000000000000081526004016104689061152f565b73ffffffffffffffffffffffffffffffffffffffff8116610bef576040517f08c379a000000000000000000000000000000000000000000000000000000000815260040161046890611384565b60025460405173ffffffffffffffffffffffffffffffffffffffff8084169216907f8be0079c531659141344cd1fd0a4f28419497f9722a3daafe3b4186f6b6457e090600090a3600280547fffffffffffffffffffffffff00000000000000000000000000000000000000001673ffffffffffffffffffffffffffffffffffffffff92909216919091179055565b73ffffffffffffffffffffffffffffffffffffffff1660009081526001602090815260408083206009845290915290205460ff1690565b73ffffffffffffffffffffffffffffffffffffffff16600090815260016020818152604080842092845291905290205460ff1690565b80471015610d24576040517f08c379a00000000000000000000000000000000000000000000000000000000081526004016104689061149b565b60008273ffffffffffffffffffffffffffffffffffffffff1682604051610d4a906111e2565b60006040518083038185875af1925050503d8060008114610d87576040519150601f19603f3d011682016040523d82523d6000602084013e610d8c565b606091505b5050905080610aa2576040517f08c379a00000000000000000000000000000000000000000000000000000000081526004016104689061143e565b610e6a846323b872dd60e01b858585604051602401610de893929190611206565b604080517fffffffffffffffffffffffffffffffffffffffffffffffffffffffffffffffe08184030181529190526020810180517bffffffffffffffffffffffffffffffffffffffffffffffffffffffff167fffffffff0000000000000000000000000000000000000000000000000000000090931692909217909152610e93565b50505050565b3390565b610aa28363a9059cbb60e01b8484604051602401610de8929190611237565b6000610ef5826040518060400160405280602081526020017f5361666545524332303a206c6f772d6c6576656c2063616c6c206661696c65648152508573ffffffffffffffffffffffffffffffffffffffff16610f499092919063ffffffff16565b805190915015610aa25780806020019051810190610f13919061115f565b610aa2576040517f08c379a0000000000000000000000000000000000000000000000000000000008152600401610468906115f8565b6060610f588484600085610f62565b90505b9392505050565b606082471015610f9e576040517f08c379a0000000000000000000000000000000000000000000000000000000008152600401610468906114d2565b610fa785611063565b610fdd576040517f08c379a0000000000000000000000000000000000000000000000000000000008152600401610468906115c1565b6000808673ffffffffffffffffffffffffffffffffffffffff16858760405161100691906111c6565b60006040518083038185875af1925050503d8060008114611043576040519150601f19603f3d011682016040523d82523d6000602084013e611048565b606091505b5091509150611058828286611069565b979650505050505050565b3b151590565b60608315611078575081610f5b565b8251156110885782518084602001fd5b816040517f08c379a00000000000000000000000000000000000000000000000000000000081526004016104689190611268565b6000602082840312156110cd578081fd5b8135610f5b816116ae565b6000602082840312156110e9578081fd5b8151610f5b816116ae565b600080600060608486031215611108578182fd5b8335611113816116ae565b92506020840135611123816116ae565b929592945050506040919091013590565b60008060408385031215611146578182fd5b8235611151816116ae565b946020939093013593505050565b600060208284031215611170578081fd5b81518015158114610f5b578182fd5b600060208284031215611190578081fd5b5035919050565b600080604083850312156111a9578182fd5b8235915060208301356111bb816116ae565b809150509250929050565b600082516111d8818460208701611682565b9190910192915050565b90565b73ffffffffffffffffffffffffffffffffffffffff91909116815260200190565b73ffffffffffffffffffffffffffffffffffffffff9384168152919092166020820152604081019190915260600190565b73ffffffffffffffffffffffffffffffffffffffff929092168252602082015260400190565b901515815260200190565b6000602082528251806020840152611287816040850160208701611682565b601f017fffffffffffffffffffffffffffffffffffffffffffffffffffffffffffffffe0169190910160400192915050565b6020808252601b908201527f4465706f73697420746f6b656e206973206e6f74206163746976650000000000604082015260600190565b60208082526029908201527f41646472657373206e6f7420617574686f72697a656420746f2061637469766160408201527f746520746f6b656e730000000000000000000000000000000000000000000000606082015260800190565b6020808252601a908201527f4e6f7420617574686f72697a656420746f207769746864726177000000000000604082015260600190565b60208082526026908201527f4f776e61626c653a206e6577206f776e657220697320746865207a65726f206160408201527f6464726573730000000000000000000000000000000000000000000000000000606082015260800190565b60208082526023908201527f436f6e7472616374206e6f7420617574686f72697a656420746f20776974686460408201527f7261770000000000000000000000000000000000000000000000000000000000606082015260800190565b6020808252603a908201527f416464726573733a20756e61626c6520746f2073656e642076616c75652c207260408201527f6563697069656e74206d61792068617665207265766572746564000000000000606082015260800190565b6020808252601d908201527f416464726573733a20696e73756666696369656e742062616c616e6365000000604082015260600190565b60208082526026908201527f416464726573733a20696e73756666696369656e742062616c616e636520666f60408201527f722063616c6c0000000000000000000000000000000000000000000000000000606082015260800190565b6020808252818101527f4f776e61626c653a2063616c6c6572206973206e6f7420746865206f776e6572604082015260600190565b6020808252602b908201527f436f6e7472616374206e6f7420617574686f72697a656420746f206465706f7360408201527f697420666f722075736572000000000000000000000000000000000000000000606082015260800190565b6020808252601d908201527f416464726573733a2063616c6c20746f206e6f6e2d636f6e7472616374000000604082015260600190565b6020808252602a908201527f5361666545524332303a204552433230206f7065726174696f6e20646964206e60408201527f6f74207375636365656400000000000000000000000000000000000000000000606082015260800190565b90815260200190565b91825273ffffffffffffffffffffffffffffffffffffffff16602082015260400190565b60005b8381101561169d578181015183820152602001611685565b83811115610e6a5750506000910152565b73ffffffffffffffffffffffffffffffffffffffff811681146116d057600080fd5b5056fea2646970667358221220f03ab041d68eacfbd73f260416b8d2319113430f481ead950f530de2b39da24f64736f6c63430008010033",
  "devdoc": {
    "kind": "dev",
    "methods": {
      "owner()": {
        "details": "Returns the address of the current owner."
      },
      "renounceOwnership()": {
        "details": "Leaves the contract without owner. It will not be possible to call `onlyOwner` functions anymore. Can only be called by the current owner. NOTE: Renouncing ownership will leave the contract without an owner, thereby removing any functionality that is only available to the owner."
      },
      "transferOwnership(address)": {
        "details": "Transfers ownership of the contract to a new account (`newOwner`). Can only be called by the current owner."
      }
    },
    "version": 1
  },
  "userdoc": {
    "kind": "user",
    "methods": {},
    "version": 1
  },
  "storageLayout": {
    "storage": [
      {
        "astId": 12289,
        "contract": "contracts/Fund.sol:Fund",
        "label": "mainCharacterCache",
        "offset": 0,
        "slot": "0",
        "type": "t_mapping(t_uint256,t_address)"
      },
      {
        "astId": 12295,
        "contract": "contracts/Fund.sol:Fund",
        "label": "roleCache",
        "offset": 0,
        "slot": "1",
        "type": "t_mapping(t_address,t_mapping(t_uint256,t_bool))"
      },
      {
        "astId": 381,
        "contract": "contracts/Fund.sol:Fund",
        "label": "_owner",
        "offset": 0,
        "slot": "2",
        "type": "t_address"
      },
      {
        "astId": 8207,
        "contract": "contracts/Fund.sol:Fund",
        "label": "activeTokens",
        "offset": 0,
        "slot": "3",
        "type": "t_mapping(t_address,t_bool)"
      }
    ],
    "types": {
      "t_address": {
        "encoding": "inplace",
        "label": "address",
        "numberOfBytes": "20"
      },
      "t_bool": {
        "encoding": "inplace",
        "label": "bool",
        "numberOfBytes": "1"
      },
      "t_mapping(t_address,t_bool)": {
        "encoding": "mapping",
        "key": "t_address",
        "label": "mapping(address => bool)",
        "numberOfBytes": "32",
        "value": "t_bool"
      },
      "t_mapping(t_address,t_mapping(t_uint256,t_bool))": {
        "encoding": "mapping",
        "key": "t_address",
        "label": "mapping(address => mapping(uint256 => bool))",
        "numberOfBytes": "32",
        "value": "t_mapping(t_uint256,t_bool)"
      },
      "t_mapping(t_uint256,t_address)": {
        "encoding": "mapping",
        "key": "t_uint256",
        "label": "mapping(uint256 => address)",
        "numberOfBytes": "32",
        "value": "t_address"
      },
      "t_mapping(t_uint256,t_bool)": {
        "encoding": "mapping",
        "key": "t_uint256",
        "label": "mapping(uint256 => bool)",
        "numberOfBytes": "32",
        "value": "t_bool"
      },
      "t_uint256": {
        "encoding": "inplace",
        "label": "uint256",
        "numberOfBytes": "32"
      }
    }
  }
}