{
  "address": "0x5372366F5913f51beD2A686572Ea41f3f6F2C491",
  "abi": [
    {
      "inputs": [
        {
          "internalType": "address",
          "name": "_MFI",
          "type": "address"
        },
        {
          "internalType": "uint256",
          "name": "startingDailyDistributionWithoutDecimals",
          "type": "uint256"
        },
        {
          "internalType": "address",
          "name": "_roles",
          "type": "address"
        }
      ],
      "stateMutability": "nonpayable",
      "type": "constructor"
    },
    {
      "inputs": [],
      "name": "MFI",
      "outputs": [
        {
          "internalType": "address",
          "name": "",
          "type": "address"
        }
      ],
      "stateMutability": "view",
      "type": "function"
    },
    {
      "inputs": [
        {
          "internalType": "address",
          "name": "",
          "type": "address"
        }
      ],
      "name": "accruedReward",
      "outputs": [
        {
          "internalType": "uint256",
          "name": "",
          "type": "uint256"
        }
      ],
      "stateMutability": "view",
      "type": "function"
    },
    {
      "inputs": [
        {
          "internalType": "uint256",
          "name": "tranche",
          "type": "uint256"
        },
        {
          "internalType": "address",
          "name": "recipient",
          "type": "address"
        },
        {
          "internalType": "uint256",
          "name": "claimAmount",
          "type": "uint256"
        }
      ],
      "name": "addToClaimAmount",
      "outputs": [],
      "stateMutability": "nonpayable",
      "type": "function"
    },
    {
      "inputs": [
        {
          "internalType": "uint256",
          "name": "",
          "type": "uint256"
        }
      ],
      "name": "allTranches",
      "outputs": [
        {
          "internalType": "uint256",
          "name": "",
          "type": "uint256"
        }
      ],
      "stateMutability": "view",
      "type": "function"
    },
    {
      "inputs": [],
      "name": "contractionPerMil",
      "outputs": [
        {
          "internalType": "uint256",
          "name": "",
          "type": "uint256"
        }
      ],
      "stateMutability": "view",
      "type": "function"
    },
    {
      "inputs": [],
      "name": "currentDailyDistribution",
      "outputs": [
        {
          "internalType": "uint256",
          "name": "",
          "type": "uint256"
        }
      ],
      "stateMutability": "view",
      "type": "function"
    },
    {
      "inputs": [
        {
          "internalType": "uint256",
          "name": "tranche",
          "type": "uint256"
        },
        {
          "internalType": "uint256",
          "name": "share",
          "type": "uint256"
        }
      ],
      "name": "initTranche",
      "outputs": [],
      "stateMutability": "nonpayable",
      "type": "function"
    },
    {
      "inputs": [],
      "name": "lastUpdatedDay",
      "outputs": [
        {
          "internalType": "uint256",
          "name": "",
          "type": "uint256"
        }
      ],
      "stateMutability": "view",
      "type": "function"
    },
    {
      "inputs": [
        {
          "internalType": "uint256",
          "name": "",
          "type": "uint256"
        }
      ],
      "name": "mainCharacterCache",
      "outputs": [
        {
          "internalType": "address",
          "name": "",
          "type": "address"
        }
      ],
      "stateMutability": "view",
      "type": "function"
    },
    {
      "inputs": [
        {
          "internalType": "address",
          "name": "",
          "type": "address"
        },
        {
          "internalType": "uint256",
          "name": "",
          "type": "uint256"
        }
      ],
      "name": "roleCache",
      "outputs": [
        {
          "internalType": "bool",
          "name": "",
          "type": "bool"
        }
      ],
      "stateMutability": "view",
      "type": "function"
    },
    {
      "inputs": [],
      "name": "roles",
      "outputs": [
        {
          "internalType": "contract Roles",
          "name": "",
          "type": "address"
        }
      ],
      "stateMutability": "view",
      "type": "function"
    },
    {
      "inputs": [
        {
          "internalType": "uint256",
          "name": "tranche",
          "type": "uint256"
        },
        {
          "internalType": "uint256",
          "name": "share",
          "type": "uint256"
        }
      ],
      "name": "setTrancheShare",
      "outputs": [],
      "stateMutability": "nonpayable",
      "type": "function"
    },
    {
      "inputs": [
        {
          "internalType": "uint256",
          "name": "tranche",
          "type": "uint256"
        },
        {
          "internalType": "address",
          "name": "recipient",
          "type": "address"
        },
        {
          "internalType": "uint256",
          "name": "subtractAmount",
          "type": "uint256"
        }
      ],
      "name": "subtractFromClaimAmount",
      "outputs": [],
      "stateMutability": "nonpayable",
      "type": "function"
    },
    {
      "inputs": [
        {
          "internalType": "uint256",
          "name": "",
          "type": "uint256"
        }
      ],
      "name": "trancheMetadata",
      "outputs": [
        {
          "internalType": "uint256",
          "name": "rewardShare",
          "type": "uint256"
        },
        {
          "internalType": "uint256",
          "name": "currentDayGains",
          "type": "uint256"
        },
        {
          "internalType": "uint256",
          "name": "currentDayLosses",
          "type": "uint256"
        },
        {
          "internalType": "uint256",
          "name": "tomorrowOngoingTotals",
          "type": "uint256"
        },
        {
          "internalType": "uint256",
          "name": "yesterdayOngoingTotals",
          "type": "uint256"
        },
        {
          "internalType": "uint256",
          "name": "intraDayGains",
          "type": "uint256"
        },
        {
          "internalType": "uint256",
          "name": "intraDayLosses",
          "type": "uint256"
        },
        {
          "internalType": "uint256",
          "name": "intraDayRewardGains",
          "type": "uint256"
        },
        {
          "internalType": "uint256",
          "name": "intraDayRewardLosses",
          "type": "uint256"
        },
        {
          "internalType": "uint256",
          "name": "aggregateDailyRewardRateFP",
          "type": "uint256"
        },
        {
          "internalType": "uint256",
          "name": "yesterdayRewardRateFP",
          "type": "uint256"
        }
      ],
      "stateMutability": "view",
      "type": "function"
    },
    {
      "inputs": [],
      "name": "trancheShareTotal",
      "outputs": [
        {
          "internalType": "uint256",
          "name": "",
          "type": "uint256"
        }
      ],
      "stateMutability": "view",
      "type": "function"
    },
    {
      "inputs": [
        {
          "internalType": "uint256",
          "name": "role",
          "type": "uint256"
        }
      ],
      "name": "updateMainCharacterCache",
      "outputs": [],
      "stateMutability": "nonpayable",
      "type": "function"
    },
    {
      "inputs": [
        {
          "internalType": "uint256",
          "name": "role",
          "type": "uint256"
        },
        {
          "internalType": "address",
          "name": "contr",
          "type": "address"
        }
      ],
      "name": "updateRoleCache",
      "outputs": [],
      "stateMutability": "nonpayable",
      "type": "function"
    },
    {
      "inputs": [
        {
          "internalType": "uint256",
          "name": "tranche",
          "type": "uint256"
        },
        {
          "internalType": "address",
          "name": "claimant",
          "type": "address"
        }
      ],
      "name": "viewRewardAmount",
      "outputs": [
        {
          "internalType": "uint256",
          "name": "",
          "type": "uint256"
        }
      ],
      "stateMutability": "view",
      "type": "function"
    },
    {
      "inputs": [
        {
          "internalType": "uint256[]",
          "name": "tranches",
          "type": "uint256[]"
        }
      ],
      "name": "withdrawReward",
      "outputs": [
        {
          "internalType": "uint256",
          "name": "withdrawAmount",
          "type": "uint256"
        }
      ],
      "stateMutability": "nonpayable",
      "type": "function"
    }
  ],
  "transactionHash": "0x8d2b3af3614f5c81952b11b00d9777623372ffc49fd6e9cdc3e2c4c3cddbf185",
  "args": [
    "0xAa4e3edb11AFa93c41db59842b29de64b72E355B",
    4000,
    "0x3817DFc7072721C017c53945dA0Ae798e8672a0c"
  ],
  "solcInputHash": "8434bf61d0250d35478b55ff06da1ff0",
  "bytecode": "0x60c06040523480156200001157600080fd5b5060405162001a1338038062001a13833981016040819052620000349162000106565b806001600160a01b0381166200009b5760405162461bcd60e51b815260206004820152602260248201527f506c656173652070726f766964652076616c696420726f6c6573206164647265604482015261737360f01b606482015260840160405180910390fd5b6001600160601b0319606091821b81166080529084901b1660a052620000ca82670de0b6b3a764000062000146565b600255620000dc620151804262000172565b6006555062000193915050565b80516001600160a01b03811681146200010157600080fd5b919050565b6000806000606084860312156200011b578283fd5b6200012684620000e9565b9250602084015191506200013d60408501620000e9565b90509250925092565b60008160001904831182151516156200016d57634e487b7160e01b81526011600452602481fd5b500290565b6000826200018e57634e487b7160e01b81526012600452602481fd5b500690565b60805160601c60a05160601c611831620001e2600039600081816103da0152610f4a01526000818161028d0152818161042b015281816108c701528181610fe8015261108d01526118316000f3fe608060405234801561001057600080fd5b50600436106101515760003560e01c80636138c248116100cd578063d1e8462111610081578063db38342311610066578063db3834231461038c578063e9c3f77d1461039f578063ed29c12b146103d557610151565b8063d1e8462114610370578063d5d97e781461038357610151565b8063678337f8116100b2578063678337f8146103165780637a1a04df1461031f578063c6c9faa11461035d57610151565b80636138c248146102fa578063614e3aed1461030d57610151565b80632908244711610124578063392f5f6411610109578063392f5f6414610288578063447d52ba146102d45780635a668956146102e757610151565b806329082447146102625780632b5de2861461027557610151565b80630392991514610156578063071060a61461021657806317eef6f31461022b578063189212f014610242575b600080fd5b6101be61016436600461160f565b600560205280600052604060002060009150905080600001549080600101549080600201549080600301549080600401549080600501549080600601549080600701549080600801549080600901549080600a015490508b565b604080519b8c5260208c019a909a52988a01979097526060890195909552608088019390935260a087019190915260c086015260e0850152610100840152610120830152610140820152610160015b60405180910390f35b61022961022436600461160f565b6103fc565b005b61023460025481565b60405190815260200161020d565b610234610250366004611515565b60076020526000908152604090205481565b61022961027036600461168d565b61050d565b610229610283366004611656565b6106ce565b6102af7f000000000000000000000000000000000000000000000000000000000000000081565b60405173ffffffffffffffffffffffffffffffffffffffff909116815260200161020d565b6102296102e2366004611627565b61087b565b6102296102f536600461168d565b6109a4565b610234610308366004611627565b610b20565b6102346103e781565b61023460035481565b61034d61032d366004611554565b600160209081526000928352604080842090915290825290205460ff1681565b604051901515815260200161020d565b61022961036b366004611656565b610bc3565b61023461037e36600461157f565b610d52565b61023460065481565b61023461039a36600461160f565b610fc3565b6102af6103ad36600461160f565b60006020819052908152604090205473ffffffffffffffffffffffffffffffffffffffff1681565b6102af7f000000000000000000000000000000000000000000000000000000000000000081565b6040517fb4ed0b6d000000000000000000000000000000000000000000000000000000008152600481018290527f000000000000000000000000000000000000000000000000000000000000000073ffffffffffffffffffffffffffffffffffffffff169063b4ed0b6d9060240160206040518083038186803b15801561048257600080fd5b505afa158015610496573d6000803e3d6000fd5b505050506040513d601f19601f820116820180604052508101906104ba9190611538565b60009182526020829052604090912080547fffffffffffffffffffffffff00000000000000000000000000000000000000001673ffffffffffffffffffffffffffffffffffffffff909216919091179055565b33610516610fe4565b73ffffffffffffffffffffffffffffffffffffffff16148061055457503361053c611089565b73ffffffffffffffffffffffffffffffffffffffff16145b8061057a57503360009081526001602090815260408083206009845290915290205460ff165b61060b576040517f08c379a000000000000000000000000000000000000000000000000000000000815260206004820152603960248201527f43616c6c6572206973206e6f7420746865206f776e65722c206578656375746f60448201527f72206f7220617574686f72697a656420616374697661746f720000000000000060648201526084015b60405180910390fd5b6000828152600560205260409020805415610682576040517f08c379a000000000000000000000000000000000000000000000000000000000815260206004820152601b60248201527f5472616e63686520616c726561647920696e697469616c697a656400000000006044820152606401610602565b61068c8383611107565b64010000000060099091015550600480546001810182556000919091527f8a35acfbc15ff81a39ae7d344fd709f28e8600b4aa8c65c6b64bfe7fe36bd19b0155565b3360009081526001602090815260408083206008845290915290205460ff16610779576040517f08c379a000000000000000000000000000000000000000000000000000000000815260206004820152602c60248201527f436f6e7472616374206e6f7420617574686f72697a656420746f207265706f7260448201527f7420696e63656e746976657300000000000000000000000000000000000000006064820152608401610602565b6002541561087657600083815260056020908152604080832073ffffffffffffffffffffffffffffffffffffffff86168452600b8101909252822090916107c36201518042611767565b6107d09062015180611717565b6107da90856116da565b9050808360010160008282546107f091906116ae565b909155505060025461080290826116da565b82600201600082825461081591906116ae565b90915550610828905084620151806116da565b83600301600082825461083b91906116ae565b9091555061084c905083868461116e565b5061085a84620151806116da565b82600101600082825461086d91906116ae565b90915550505050505b505050565b6040517f93552a3d0000000000000000000000000000000000000000000000000000000081526004810183905273ffffffffffffffffffffffffffffffffffffffff82811660248301527f000000000000000000000000000000000000000000000000000000000000000016906393552a3d9060440160206040518083038186803b15801561090957600080fd5b505afa15801561091d573d6000803e3d6000fd5b505050506040513d601f19601f8201168201806040525081019061094191906115ef565b73ffffffffffffffffffffffffffffffffffffffff9190911660009081526001602090815260408083209483529390529190912080547fffffffffffffffffffffffffffffffffffffffffffffffffffffffffffffff0016911515919091179055565b336109ad610fe4565b73ffffffffffffffffffffffffffffffffffffffff1614806109eb5750336109d3611089565b73ffffffffffffffffffffffffffffffffffffffff16145b80610a1157503360009081526001602090815260408083206009845290915290205460ff165b610a9d576040517f08c379a000000000000000000000000000000000000000000000000000000000815260206004820152603960248201527f43616c6c6572206973206e6f7420746865206f776e65722c206578656375746f60448201527f72206f7220617574686f72697a656420616374697661746f72000000000000006064820152608401610602565b600082815260056020526040902054610b12576040517f08c379a000000000000000000000000000000000000000000000000000000000815260206004820152601760248201527f5472616e636865206e6f7420696e697469616c697a65640000000000000000006044820152606401610602565b610b1c8282611107565b5050565b600082815260056020908152604080832073ffffffffffffffffffffffffffffffffffffffff85168452600b8101909252822082610b5e83836111df565b73ffffffffffffffffffffffffffffffffffffffff8616600090815260076020526040902054610b8e91906116ae565b9050600080610b9d8585611226565b909250905080610bad83856116ae565b610bb79190611717565b98975050505050505050565b3360009081526001602090815260408083206008845290915290205460ff16610c6e576040517f08c379a000000000000000000000000000000000000000000000000000000000815260206004820152602c60248201527f436f6e7472616374206e6f7420617574686f72697a656420746f207265706f7260448201527f7420696e63656e746976657300000000000000000000000000000000000000006064820152608401610602565b6000610c7d6201518042611767565b610c8790836116da565b600085815260056020908152604080832073ffffffffffffffffffffffffffffffffffffffff88168452600b8101909252822060028201805494955091939092859291610cd59084906116ae565b9091555050600254610ce790846116da565b816003016000828254610cfa91906116ae565b90915550610d0d905084620151806116da565b826003016000828254610d209190611717565b90915550610d31905082868361116e565b50610d3f84620151806116da565b81600101600082825461086d9190611717565b6000610d5c6112a7565b5033600090815260076020526040812054905b80831115610eb4576000848483818110610db2577f4e487b7100000000000000000000000000000000000000000000000000000000600052603260045260246000fd5b60209081029290920135600081815260058452604080822033808452600b8201909652912091945092909150610dea9083908361116e565b610df490866116ae565b9450600080610e038484611226565b909250905080610e1383896116ae565b610e1d9190611717565b96508260020154846005016000828254610e379190611717565b90915550506003830154600685018054600090610e55908490611717565b9250508190555081846007016000828254610e709190611717565b9250508190555080846008016000828254610e8b9190611717565b925050819055506000836002018190555050505050508080610eac9061172e565b915050610d6f565b5033600090815260076020526040812055610f0d606560009081526020527f4a7203f705e51df4a56139a9b86b4a0970bed7ab7a3446eaffe2289989c1645c5473ffffffffffffffffffffffffffffffffffffffff1690565b6040517fd9caed1200000000000000000000000000000000000000000000000000000000815273ffffffffffffffffffffffffffffffffffffffff7f00000000000000000000000000000000000000000000000000000000000000008116600483015233602483015260448201849052919091169063d9caed1290606401600060405180830381600087803b158015610fa557600080fd5b505af1158015610fb9573d6000803e3d6000fd5b5050505092915050565b60048181548110610fd357600080fd5b600091825260209091200154905081565b60007f000000000000000000000000000000000000000000000000000000000000000073ffffffffffffffffffffffffffffffffffffffff16638da5cb5b6040518163ffffffff1660e01b815260040160206040518083038186803b15801561104c57600080fd5b505afa158015611060573d6000803e3d6000fd5b505050506040513d601f19601f820116820180604052508101906110849190611538565b905090565b60007f000000000000000000000000000000000000000000000000000000000000000073ffffffffffffffffffffffffffffffffffffffff1663c34c08e56040518163ffffffff1660e01b8152600401602060405180830381600087803b1580156110f357600080fd5b505af1158015611060573d6000803e3d6000fd5b6000828152600560205260409020805482111561114657805461112a9083611717565b6003600082825461113b91906116ae565b9091555061116a9050565b8054611153908390611717565b600360008282546111649190611717565b90915550505b5550565b8054600090156111c25761118284836111df565b73ffffffffffffffffffffffffffffffffffffffff84166000908152600760205260408120805492935083929091906111bc9084906116ae565b90915550505b836009015484600a01546111d691906116ae565b90915592915050565b80546009830154600091908181111561121e576401000000006112028383611717565b856001015461121191906116da565b61121b91906116c6565b92505b505092915050565b6002810154600382015460009182918261124082846116ae565b111561129e5760058601546112569060016116ae565b600787015461126590846116da565b61126f91906116c6565b93508560060154600161128291906116ae565b600887015461129190836116da565b61129b91906116c6565b92505b50509250929050565b60006112b662015180426116c6565b90506000600654826112c89190611717565b905060005b81811015610876576112dd61132b565b6103e86103e76002546112f091906116da565b6112fa91906116c6565b60028190555060016006600082825461131391906116ae565b909155508190506113238161172e565b9150506112cd565b60005b60045481101561151257600060048281548110611374577f4e487b7100000000000000000000000000000000000000000000000000000000600052603260045260246000fd5b90600052602060002001549050600060056000838152602001908152602001600020905060008160020154826001015483600401546113b391906116ae565b6113bd9190611717565b905060008160035484600001546002546113d791906116da565b6113e6906401000000006116da565b6113f091906116c6565b6113fa91906116c6565b90508083600a01819055508083600901600082825461141991906116ae565b9091555050600254600184015461143091906116da565b83600501600082825461144391906116ae565b9091555050600280549084015461145a91906116da565b83600601600082825461146d91906116ae565b90915550506001830154640100000000906114899083906116da565b61149391906116c6565b8360070160008282546114a691906116ae565b90915550506002830154640100000000906114c29083906116da565b6114cc91906116c6565b8360080160008282546114df91906116ae565b9091555050506003820154600483015550600060018201819055600290910155508061150a8161172e565b91505061132e565b50565b600060208284031215611526578081fd5b8135611531816117d9565b9392505050565b600060208284031215611549578081fd5b8151611531816117d9565b60008060408385031215611566578081fd5b8235611571816117d9565b946020939093013593505050565b60008060208385031215611591578182fd5b823567ffffffffffffffff808211156115a8578384fd5b818501915085601f8301126115bb578384fd5b8135818111156115c9578485fd5b8660208260051b85010111156115dd578485fd5b60209290920196919550909350505050565b600060208284031215611600578081fd5b81518015158114611531578182fd5b600060208284031215611620578081fd5b5035919050565b60008060408385031215611639578182fd5b82359150602083013561164b816117d9565b809150509250929050565b60008060006060848603121561166a578081fd5b83359250602084013561167c816117d9565b929592945050506040919091013590565b6000806040838503121561169f578182fd5b50508035926020909101359150565b600082198211156116c1576116c161177b565b500190565b6000826116d5576116d56117aa565b500490565b6000817fffffffffffffffffffffffffffffffffffffffffffffffffffffffffffffffff04831182151516156117125761171261177b565b500290565b6000828210156117295761172961177b565b500390565b60007fffffffffffffffffffffffffffffffffffffffffffffffffffffffffffffffff8214156117605761176061177b565b5060010190565b600082611776576117766117aa565b500690565b7f4e487b7100000000000000000000000000000000000000000000000000000000600052601160045260246000fd5b7f4e487b7100000000000000000000000000000000000000000000000000000000600052601260045260246000fd5b73ffffffffffffffffffffffffffffffffffffffff8116811461151257600080fdfea2646970667358221220d429b15edc855ab829ab391f283b9f007bffc81f7b346e86761d594b8eb1e35964736f6c63430008030033",
  "devdoc": {
    "kind": "dev",
    "methods": {},
    "title": "Manage distribution of liquidity stake incentives Some efforts have been made to reduce gas cost at claim time and shift gas burden onto those who would want to withdraw",
    "version": 1
  },
  "userdoc": {
    "kind": "user",
    "methods": {
      "addToClaimAmount(uint256,address,uint256)": {
        "notice": "Start / increase amount of claim"
      },
      "initTranche(uint256,uint256)": {
        "notice": "Initialize tranche"
      },
      "setTrancheShare(uint256,uint256)": {
        "notice": "Set share of tranche"
      },
      "subtractFromClaimAmount(uint256,address,uint256)": {
        "notice": "Decrease amount of claim"
      },
      "viewRewardAmount(uint256,address)": {
        "notice": "Get a view of reward amount"
      },
      "withdrawReward(uint256[])": {
        "notice": "Withdraw current reward amount"
      }
    },
    "version": 1
  },
  "storageLayout": {
    "storage": [
      {
        "astId": 11733,
        "contract": "contracts/IncentiveDistribution.sol:IncentiveDistribution",
        "label": "mainCharacterCache",
        "offset": 0,
        "slot": "0",
        "type": "t_mapping(t_uint256,t_address)"
      },
      {
        "astId": 11739,
        "contract": "contracts/IncentiveDistribution.sol:IncentiveDistribution",
        "label": "roleCache",
        "offset": 0,
        "slot": "1",
        "type": "t_mapping(t_address,t_mapping(t_uint256,t_bool))"
      },
      {
        "astId": 6689,
        "contract": "contracts/IncentiveDistribution.sol:IncentiveDistribution",
        "label": "currentDailyDistribution",
        "offset": 0,
        "slot": "2",
        "type": "t_uint256"
      },
      {
        "astId": 6691,
        "contract": "contracts/IncentiveDistribution.sol:IncentiveDistribution",
        "label": "trancheShareTotal",
        "offset": 0,
        "slot": "3",
        "type": "t_uint256"
      },
      {
        "astId": 6694,
        "contract": "contracts/IncentiveDistribution.sol:IncentiveDistribution",
        "label": "allTranches",
        "offset": 0,
        "slot": "4",
        "type": "t_array(t_uint256)dyn_storage"
      },
      {
        "astId": 6727,
        "contract": "contracts/IncentiveDistribution.sol:IncentiveDistribution",
        "label": "trancheMetadata",
        "offset": 0,
        "slot": "5",
        "type": "t_mapping(t_uint256,t_struct(TrancheMeta)6722_storage)"
      },
      {
        "astId": 6729,
        "contract": "contracts/IncentiveDistribution.sol:IncentiveDistribution",
        "label": "lastUpdatedDay",
        "offset": 0,
        "slot": "6",
        "type": "t_uint256"
      },
      {
        "astId": 6733,
        "contract": "contracts/IncentiveDistribution.sol:IncentiveDistribution",
        "label": "accruedReward",
        "offset": 0,
        "slot": "7",
        "type": "t_mapping(t_address,t_uint256)"
      }
    ],
    "types": {
      "t_address": {
        "encoding": "inplace",
        "label": "address",
        "numberOfBytes": "20"
      },
      "t_array(t_uint256)dyn_storage": {
        "base": "t_uint256",
        "encoding": "dynamic_array",
        "label": "uint256[]",
        "numberOfBytes": "32"
      },
      "t_bool": {
        "encoding": "inplace",
        "label": "bool",
        "numberOfBytes": "1"
      },
      "t_mapping(t_address,t_mapping(t_uint256,t_bool))": {
        "encoding": "mapping",
        "key": "t_address",
        "label": "mapping(address => mapping(uint256 => bool))",
        "numberOfBytes": "32",
        "value": "t_mapping(t_uint256,t_bool)"
      },
      "t_mapping(t_address,t_struct(Claim)6642_storage)": {
        "encoding": "mapping",
        "key": "t_address",
        "label": "mapping(address => struct Claim)",
        "numberOfBytes": "32",
        "value": "t_struct(Claim)6642_storage"
      },
      "t_mapping(t_address,t_uint256)": {
        "encoding": "mapping",
        "key": "t_address",
        "label": "mapping(address => uint256)",
        "numberOfBytes": "32",
        "value": "t_uint256"
      },
      "t_mapping(t_uint256,t_address)": {
        "encoding": "mapping",
        "key": "t_uint256",
        "label": "mapping(uint256 => address)",
        "numberOfBytes": "32",
        "value": "t_address"
      },
      "t_mapping(t_uint256,t_bool)": {
        "encoding": "mapping",
        "key": "t_uint256",
        "label": "mapping(uint256 => bool)",
        "numberOfBytes": "32",
        "value": "t_bool"
      },
      "t_mapping(t_uint256,t_struct(TrancheMeta)6722_storage)": {
        "encoding": "mapping",
        "key": "t_uint256",
        "label": "mapping(uint256 => struct IncentiveDistribution.TrancheMeta)",
        "numberOfBytes": "32",
        "value": "t_struct(TrancheMeta)6722_storage"
      },
      "t_struct(Claim)6642_storage": {
        "encoding": "inplace",
        "label": "struct Claim",
        "members": [
          {
            "astId": 6635,
            "contract": "contracts/IncentiveDistribution.sol:IncentiveDistribution",
            "label": "startingRewardRateFP",
            "offset": 0,
            "slot": "0",
            "type": "t_uint256"
          },
          {
            "astId": 6637,
            "contract": "contracts/IncentiveDistribution.sol:IncentiveDistribution",
            "label": "amount",
            "offset": 0,
            "slot": "1",
            "type": "t_uint256"
          },
          {
            "astId": 6639,
            "contract": "contracts/IncentiveDistribution.sol:IncentiveDistribution",
            "label": "intraDayGain",
            "offset": 0,
            "slot": "2",
            "type": "t_uint256"
          },
          {
            "astId": 6641,
            "contract": "contracts/IncentiveDistribution.sol:IncentiveDistribution",
            "label": "intraDayLoss",
            "offset": 0,
            "slot": "3",
            "type": "t_uint256"
          }
        ],
        "numberOfBytes": "128"
      },
      "t_struct(TrancheMeta)6722_storage": {
        "encoding": "inplace",
        "label": "struct IncentiveDistribution.TrancheMeta",
        "members": [
          {
            "astId": 6696,
            "contract": "contracts/IncentiveDistribution.sol:IncentiveDistribution",
            "label": "rewardShare",
            "offset": 0,
            "slot": "0",
            "type": "t_uint256"
          },
          {
            "astId": 6698,
            "contract": "contracts/IncentiveDistribution.sol:IncentiveDistribution",
            "label": "currentDayGains",
            "offset": 0,
            "slot": "1",
            "type": "t_uint256"
          },
          {
            "astId": 6700,
            "contract": "contracts/IncentiveDistribution.sol:IncentiveDistribution",
            "label": "currentDayLosses",
            "offset": 0,
            "slot": "2",
            "type": "t_uint256"
          },
          {
            "astId": 6702,
            "contract": "contracts/IncentiveDistribution.sol:IncentiveDistribution",
            "label": "tomorrowOngoingTotals",
            "offset": 0,
            "slot": "3",
            "type": "t_uint256"
          },
          {
            "astId": 6704,
            "contract": "contracts/IncentiveDistribution.sol:IncentiveDistribution",
            "label": "yesterdayOngoingTotals",
            "offset": 0,
            "slot": "4",
            "type": "t_uint256"
          },
          {
            "astId": 6706,
            "contract": "contracts/IncentiveDistribution.sol:IncentiveDistribution",
            "label": "intraDayGains",
            "offset": 0,
            "slot": "5",
            "type": "t_uint256"
          },
          {
            "astId": 6708,
            "contract": "contracts/IncentiveDistribution.sol:IncentiveDistribution",
            "label": "intraDayLosses",
            "offset": 0,
            "slot": "6",
            "type": "t_uint256"
          },
          {
            "astId": 6710,
            "contract": "contracts/IncentiveDistribution.sol:IncentiveDistribution",
            "label": "intraDayRewardGains",
            "offset": 0,
            "slot": "7",
            "type": "t_uint256"
          },
          {
            "astId": 6712,
            "contract": "contracts/IncentiveDistribution.sol:IncentiveDistribution",
            "label": "intraDayRewardLosses",
            "offset": 0,
            "slot": "8",
            "type": "t_uint256"
          },
          {
            "astId": 6714,
            "contract": "contracts/IncentiveDistribution.sol:IncentiveDistribution",
            "label": "aggregateDailyRewardRateFP",
            "offset": 0,
            "slot": "9",
            "type": "t_uint256"
          },
          {
            "astId": 6716,
            "contract": "contracts/IncentiveDistribution.sol:IncentiveDistribution",
            "label": "yesterdayRewardRateFP",
            "offset": 0,
            "slot": "10",
            "type": "t_uint256"
          },
          {
            "astId": 6721,
            "contract": "contracts/IncentiveDistribution.sol:IncentiveDistribution",
            "label": "claims",
            "offset": 0,
            "slot": "11",
            "type": "t_mapping(t_address,t_struct(Claim)6642_storage)"
          }
        ],
        "numberOfBytes": "384"
      },
      "t_uint256": {
        "encoding": "inplace",
        "label": "uint256",
        "numberOfBytes": "32"
      }
    }
  }
}