{
  "address": "0xBfA1BA525a3d3A16041588d7C395D473ceCd66Cb",
  "abi": [
    {
      "inputs": [
        {
          "internalType": "address",
          "name": "_MFI",
          "type": "address"
        },
        {
          "internalType": "uint256",
          "name": "startingDailyDistributionWithoutDecimals",
          "type": "uint256"
        },
        {
          "internalType": "address",
          "name": "_roles",
          "type": "address"
        }
      ],
      "stateMutability": "nonpayable",
      "type": "constructor"
    },
    {
      "anonymous": false,
      "inputs": [
        {
          "indexed": true,
          "internalType": "address",
          "name": "previousOwner",
          "type": "address"
        },
        {
          "indexed": true,
          "internalType": "address",
          "name": "newOwner",
          "type": "address"
        }
      ],
      "name": "OwnershipTransferred",
      "type": "event"
    },
    {
      "inputs": [],
      "name": "ADMIN",
      "outputs": [
        {
          "internalType": "uint16",
          "name": "",
          "type": "uint16"
        }
      ],
      "stateMutability": "view",
      "type": "function"
    },
    {
      "inputs": [],
      "name": "AUTHORIZED_FUND_TRADER",
      "outputs": [
        {
          "internalType": "uint16",
          "name": "",
          "type": "uint16"
        }
      ],
      "stateMutability": "view",
      "type": "function"
    },
    {
      "inputs": [],
      "name": "BORROWER",
      "outputs": [
        {
          "internalType": "uint16",
          "name": "",
          "type": "uint16"
        }
      ],
      "stateMutability": "view",
      "type": "function"
    },
    {
      "inputs": [],
      "name": "FEE_CONTROLLER",
      "outputs": [
        {
          "internalType": "uint16",
          "name": "",
          "type": "uint16"
        }
      ],
      "stateMutability": "view",
      "type": "function"
    },
    {
      "inputs": [],
      "name": "FEE_SOURCE",
      "outputs": [
        {
          "internalType": "uint16",
          "name": "",
          "type": "uint16"
        }
      ],
      "stateMutability": "view",
      "type": "function"
    },
    {
      "inputs": [],
      "name": "FUND",
      "outputs": [
        {
          "internalType": "uint16",
          "name": "",
          "type": "uint16"
        }
      ],
      "stateMutability": "view",
      "type": "function"
    },
    {
      "inputs": [],
      "name": "INCENTIVE_DISTRIBUTION",
      "outputs": [
        {
          "internalType": "uint16",
          "name": "",
          "type": "uint16"
        }
      ],
      "stateMutability": "view",
      "type": "function"
    },
    {
      "inputs": [],
      "name": "INCENTIVE_REPORTER",
      "outputs": [
        {
          "internalType": "uint16",
          "name": "",
          "type": "uint16"
        }
      ],
      "stateMutability": "view",
      "type": "function"
    },
    {
      "inputs": [],
      "name": "LENDING",
      "outputs": [
        {
          "internalType": "uint16",
          "name": "",
          "type": "uint16"
        }
      ],
      "stateMutability": "view",
      "type": "function"
    },
    {
      "inputs": [],
      "name": "LIQUIDATOR",
      "outputs": [
        {
          "internalType": "uint16",
          "name": "",
          "type": "uint16"
        }
      ],
      "stateMutability": "view",
      "type": "function"
    },
    {
      "inputs": [],
      "name": "MARGIN_CALLER",
      "outputs": [
        {
          "internalType": "uint16",
          "name": "",
          "type": "uint16"
        }
      ],
      "stateMutability": "view",
      "type": "function"
    },
    {
      "inputs": [],
      "name": "MARGIN_TRADER",
      "outputs": [
        {
          "internalType": "uint16",
          "name": "",
          "type": "uint16"
        }
      ],
      "stateMutability": "view",
      "type": "function"
    },
    {
      "inputs": [],
      "name": "MARGIN_TRADING",
      "outputs": [
        {
          "internalType": "uint16",
          "name": "",
          "type": "uint16"
        }
      ],
      "stateMutability": "view",
      "type": "function"
    },
    {
      "inputs": [],
      "name": "PRICE_CONTROLLER",
      "outputs": [
        {
          "internalType": "uint16",
          "name": "",
          "type": "uint16"
        }
      ],
      "stateMutability": "view",
      "type": "function"
    },
    {
      "inputs": [],
      "name": "ROUTER",
      "outputs": [
        {
          "internalType": "uint16",
          "name": "",
          "type": "uint16"
        }
      ],
      "stateMutability": "view",
      "type": "function"
    },
    {
      "inputs": [],
      "name": "STAKE_PENALIZER",
      "outputs": [
        {
          "internalType": "uint16",
          "name": "",
          "type": "uint16"
        }
      ],
      "stateMutability": "view",
      "type": "function"
    },
    {
      "inputs": [],
      "name": "TOKEN_ACTIVATOR",
      "outputs": [
        {
          "internalType": "uint16",
          "name": "",
          "type": "uint16"
        }
      ],
      "stateMutability": "view",
      "type": "function"
    },
    {
      "inputs": [],
      "name": "TOKEN_ADMIN",
      "outputs": [
        {
          "internalType": "uint16",
          "name": "",
          "type": "uint16"
        }
      ],
      "stateMutability": "view",
      "type": "function"
    },
    {
      "inputs": [],
      "name": "WITHDRAWER",
      "outputs": [
        {
          "internalType": "uint16",
          "name": "",
          "type": "uint16"
        }
      ],
      "stateMutability": "view",
      "type": "function"
    },
    {
      "inputs": [
        {
          "internalType": "uint8",
          "name": "tranche",
          "type": "uint8"
        },
        {
          "internalType": "uint256",
          "name": "claimId",
          "type": "uint256"
        },
        {
          "internalType": "uint256",
          "name": "additionalAmount",
          "type": "uint256"
        }
      ],
      "name": "addToClaimAmount",
      "outputs": [],
      "stateMutability": "nonpayable",
      "type": "function"
    },
    {
      "inputs": [
        {
          "internalType": "uint8",
          "name": "",
          "type": "uint8"
        }
      ],
      "name": "aggregatePeriodicRewardRateFP",
      "outputs": [
        {
          "internalType": "uint256",
          "name": "",
          "type": "uint256"
        }
      ],
      "stateMutability": "view",
      "type": "function"
    },
    {
      "inputs": [
        {
          "internalType": "uint256",
          "name": "",
          "type": "uint256"
        }
      ],
      "name": "claims",
      "outputs": [
        {
          "internalType": "uint256",
          "name": "startingRewardRateFP",
          "type": "uint256"
        },
        {
          "internalType": "address",
          "name": "recipient",
          "type": "address"
        },
        {
          "internalType": "uint256",
          "name": "amount",
          "type": "uint256"
        }
      ],
      "stateMutability": "view",
      "type": "function"
    },
    {
      "inputs": [],
      "name": "currentDailyDistribution",
      "outputs": [
        {
          "internalType": "uint256",
          "name": "",
          "type": "uint256"
        }
      ],
      "stateMutability": "view",
      "type": "function"
    },
    {
      "inputs": [
        {
          "internalType": "uint8",
          "name": "",
          "type": "uint8"
        }
      ],
      "name": "currentPeriodTotals",
      "outputs": [
        {
          "internalType": "uint256",
          "name": "",
          "type": "uint256"
        }
      ],
      "stateMutability": "view",
      "type": "function"
    },
    {
      "inputs": [
        {
          "internalType": "uint8",
          "name": "tranche",
          "type": "uint8"
        },
        {
          "internalType": "uint256",
          "name": "claimId",
          "type": "uint256"
        }
      ],
      "name": "endClaim",
      "outputs": [],
      "stateMutability": "nonpayable",
      "type": "function"
    },
    {
      "inputs": [
        {
          "internalType": "uint8",
          "name": "tranche",
          "type": "uint8"
        }
      ],
      "name": "forcePeriodTotalUpdate",
      "outputs": [],
      "stateMutability": "nonpayable",
      "type": "function"
    },
    {
      "inputs": [
        {
          "internalType": "uint8",
          "name": "tranche",
          "type": "uint8"
        },
        {
          "internalType": "uint256",
          "name": "share",
          "type": "uint256"
        }
      ],
      "name": "initTranche",
      "outputs": [],
      "stateMutability": "nonpayable",
      "type": "function"
    },
    {
      "inputs": [
        {
          "internalType": "uint8",
          "name": "",
          "type": "uint8"
        }
      ],
      "name": "lastUpdatedPeriods",
      "outputs": [
        {
          "internalType": "uint256",
          "name": "",
          "type": "uint256"
        }
      ],
      "stateMutability": "view",
      "type": "function"
    },
    {
      "inputs": [
        {
          "internalType": "uint16",
          "name": "",
          "type": "uint16"
        }
      ],
      "name": "mainCharacterCache",
      "outputs": [
        {
          "internalType": "address",
          "name": "",
          "type": "address"
        }
      ],
      "stateMutability": "view",
      "type": "function"
    },
    {
      "inputs": [],
      "name": "nextClaimId",
      "outputs": [
        {
          "internalType": "uint256",
          "name": "",
          "type": "uint256"
        }
      ],
      "stateMutability": "view",
      "type": "function"
    },
    {
      "inputs": [],
      "name": "owner",
      "outputs": [
        {
          "internalType": "address",
          "name": "",
          "type": "address"
        }
      ],
      "stateMutability": "view",
      "type": "function"
    },
    {
      "inputs": [],
      "name": "renounceOwnership",
      "outputs": [],
      "stateMutability": "nonpayable",
      "type": "function"
    },
    {
      "inputs": [
        {
          "internalType": "address",
          "name": "",
          "type": "address"
        },
        {
          "internalType": "uint16",
          "name": "",
          "type": "uint16"
        }
      ],
      "name": "roleCache",
      "outputs": [
        {
          "internalType": "bool",
          "name": "",
          "type": "bool"
        }
      ],
      "stateMutability": "view",
      "type": "function"
    },
    {
      "inputs": [],
      "name": "roles",
      "outputs": [
        {
          "internalType": "contract Roles",
          "name": "",
          "type": "address"
        }
      ],
      "stateMutability": "view",
      "type": "function"
    },
    {
      "inputs": [
        {
          "internalType": "uint8",
          "name": "tranche",
          "type": "uint8"
        },
        {
          "internalType": "uint256",
          "name": "share",
          "type": "uint256"
        }
      ],
      "name": "setTrancheShare",
      "outputs": [],
      "stateMutability": "nonpayable",
      "type": "function"
    },
    {
      "inputs": [
        {
          "internalType": "uint8",
          "name": "tranche",
          "type": "uint8"
        },
        {
          "internalType": "address",
          "name": "recipient",
          "type": "address"
        },
        {
          "internalType": "uint256",
          "name": "claimAmount",
          "type": "uint256"
        }
      ],
      "name": "startClaim",
      "outputs": [
        {
          "internalType": "uint256",
          "name": "",
          "type": "uint256"
        }
      ],
      "stateMutability": "nonpayable",
      "type": "function"
    },
    {
      "inputs": [
        {
          "internalType": "uint8",
          "name": "tranche",
          "type": "uint8"
        },
        {
          "internalType": "uint256",
          "name": "claimId",
          "type": "uint256"
        },
        {
          "internalType": "uint256",
          "name": "subtractAmount",
          "type": "uint256"
        }
      ],
      "name": "subtractFromClaimAmount",
      "outputs": [],
      "stateMutability": "nonpayable",
      "type": "function"
    },
    {
      "inputs": [
        {
          "internalType": "uint8",
          "name": "",
          "type": "uint8"
        }
      ],
      "name": "trancheShare",
      "outputs": [
        {
          "internalType": "uint256",
          "name": "",
          "type": "uint256"
        }
      ],
      "stateMutability": "view",
      "type": "function"
    },
    {
      "inputs": [],
      "name": "trancheShareTotal",
      "outputs": [
        {
          "internalType": "uint256",
          "name": "",
          "type": "uint256"
        }
      ],
      "stateMutability": "view",
      "type": "function"
    },
    {
      "inputs": [
        {
          "internalType": "address",
          "name": "newOwner",
          "type": "address"
        }
      ],
      "name": "transferOwnership",
      "outputs": [],
      "stateMutability": "nonpayable",
      "type": "function"
    },
    {
      "inputs": [
        {
          "internalType": "uint16",
          "name": "role",
          "type": "uint16"
        }
      ],
      "name": "updateMainCharacterCache",
      "outputs": [],
      "stateMutability": "nonpayable",
      "type": "function"
    },
    {
      "inputs": [
        {
          "internalType": "uint16",
          "name": "role",
          "type": "uint16"
        },
        {
          "internalType": "address",
          "name": "contr",
          "type": "address"
        }
      ],
      "name": "updateRoleCache",
      "outputs": [],
      "stateMutability": "nonpayable",
      "type": "function"
    },
    {
      "inputs": [
        {
          "internalType": "uint8",
          "name": "tranche",
          "type": "uint8"
        },
        {
          "internalType": "uint256",
          "name": "claimId",
          "type": "uint256"
        }
      ],
      "name": "viewRewardAmount",
      "outputs": [
        {
          "internalType": "uint256",
          "name": "",
          "type": "uint256"
        }
      ],
      "stateMutability": "view",
      "type": "function"
    },
    {
      "inputs": [
        {
          "internalType": "uint8",
          "name": "tranche",
          "type": "uint8"
        },
        {
          "internalType": "uint256",
          "name": "claimId",
          "type": "uint256"
        }
      ],
      "name": "withdrawReward",
      "outputs": [
        {
          "internalType": "uint256",
          "name": "",
          "type": "uint256"
        }
      ],
      "stateMutability": "nonpayable",
      "type": "function"
    }
  ],
  "transactionHash": "0xe3fb2df42ec3e9bac42eb8b83c53fe262bbb5f3eb01ac499022fae6d99e1c3f0",
  "args": [
    "0xAa4e3edb11AFa93c41db59842b29de64b72E355B",
    4000,
    "0xd4A8F00F37f3B965bF94C112B83b94e7526732eF"
  ],
  "solcInputHash": "0557d1b5995c44fa5d0d24bcc83ad705",
  "bytecode": "0x60806040526001600d553480156200001657600080fd5b5060405162001c4a38038062001c4a83398101604081905262000039916200011b565b600080546001600160a01b0319166001600160a01b0383161781556200005e620000fa565b600380546001600160a01b0319166001600160a01b038316908117909155604051919250906000907f8be0079c531659141344cd1fd0a4f28419497f9722a3daafe3b4186f6b6457e0908290a350600480546001600160a01b0319166001600160a01b038516179055620000db82670de0b6b3a76400006200017c565b600555620000ed62015180426200015b565b60065550620001a8915050565b3390565b80516001600160a01b03811681146200011657600080fd5b919050565b60008060006060848603121562000130578283fd5b6200013b84620000fe565b9250602084015191506200015260408501620000fe565b90509250925092565b6000826200017757634e487b7160e01b81526012600452602481fd5b500490565b6000816000190483118215151615620001a357634e487b7160e01b81526011600452602481fd5b500290565b611a9280620001b86000396000f3fe608060405234801561001057600080fd5b50600436106102f35760003560e01c806381ca660011610191578063c34316c3116100e3578063d1efebfe11610097578063eb3b6cec11610071578063eb3b6cec1461053e578063f2fde38b14610551578063f542808714610564576102f3565b8063d1efebfe1461051b578063d56b105414610523578063d5d7ed7f14610536576102f3565b8063c6de9d5d116100c8578063c6de9d5d146104f8578063c76139d01461050b578063cacf8d4514610513576102f3565b8063c34316c3146104c5578063c63f5ab7146104e5576102f3565b8063a0098d6911610145578063a94c7c341161011f578063a94c7c34146104a2578063a9cc0536146104aa578063b4481652146104b2576102f3565b8063a0098d6914610465578063a80167111461046d578063a888c2cd14610480576102f3565b80638da5cb5b116101765780638da5cb5b14610442578063982390231461044a578063a0021cf11461045d576102f3565b806381ca66001461043257806383a49c7c1461043a576102f3565b8063392f5f641161024a5780635c275a39116101fe5780636cd5cd60116101d85780636cd5cd6014610404578063715018a6146104175780637fad8a181461041f576102f3565b80635c275a39146103ec57806366941984146103f4578063678337f8146103fc576102f3565b806346b887961161022f57806346b88796146103c957806348fb27b8146103d1578063583d8616146103d9576102f3565b8063392f5f64146103a1578063430c39e4146103b6576102f3565b80631b669507116102ac5780632a0acc6a116102865780632a0acc6a146103895780632fe94def1461039157806332fe7b2614610399576102f3565b80631b669507146103665780631bc5d81d1461036e57806320e8d81914610376576102f3565b806317eef6f3116102dd57806317eef6f31461033657806318e843b71461033e57806319f51afb14610351576102f3565b8062fae52b146102f8578063065d570f14610321575b600080fd5b61030b6103063660046115a9565b610577565b60405161031891906118f8565b60405180910390f35b610329610589565b60405161031891906118bf565b61030b61058e565b61030b61034c3660046115a9565b610594565b61036461035f366004611601565b6105a6565b005b610329610679565b61032961067e565b61036461038436600461155b565b610683565b610329610794565b610329610799565b61032961079e565b6103a96107a3565b604051610318919061165c565b6103646103c4366004611601565b6107bf565b610329610875565b61032961087a565b61030b6103e73660046115c3565b61087f565b6103296109c1565b6103296109c6565b61030b6109cb565b610364610412366004611541565b6109d1565b610364610ad0565b61030b61042d3660046115a9565b610bb2565b610329610bc4565b610329610bc9565b6103a9610bce565b61030b610458366004611601565b610bea565b61030b610c03565b610329610c09565b61036461047b36600461162a565b610c0e565b61049361048e366004611591565b610cb5565b60405161031893929190611901565b610329610cec565b610329610cf1565b6103a96104c0366004611541565b610cf6565b6104d86104d33660046114ed565b610d1e565b60405161031891906116ae565b61030b6104f33660046115a9565b610d3e565b610364610506366004611601565b610d50565b610329610df2565b610329610df7565b610329610dfc565b61030b610531366004611601565b610e01565b610329610e6b565b61036461054c3660046115a9565b610e70565b61036461055f3660046114b5565b610e7c565b61036461057236600461162a565b610fca565b60096020526000908152604090205481565b600381565b60055481565b60076020526000908152604090205481565b6105ae6110a6565b73ffffffffffffffffffffffffffffffffffffffff166105cc610bce565b73ffffffffffffffffffffffffffffffffffffffff1614610622576040517f08c379a000000000000000000000000000000000000000000000000000000000815260040161061990611773565b60405180910390fd5b60ff82166000908152600a602052604090205461066b576040517f08c379a000000000000000000000000000000000000000000000000000000000815260040161061990611805565b61067582826110aa565b5050565b600a81565b600881565b6000546040517fd87fefd200000000000000000000000000000000000000000000000000000000815273ffffffffffffffffffffffffffffffffffffffff9091169063d87fefd2906106db90859085906004016118ce565b60206040518083038186803b1580156106f357600080fd5b505afa158015610707573d6000803e3d6000fd5b505050506040513d601f19601f8201168201806040525081019061072b9190611521565b73ffffffffffffffffffffffffffffffffffffffff909116600090815260026020908152604080832061ffff90951683529390529190912080549115157fffffffffffffffffffffffffffffffffffffffffffffffffffffffffffffff00909216919091179055565b606b81565b606981565b606781565b60005473ffffffffffffffffffffffffffffffffffffffff1681565b6107c76110a6565b73ffffffffffffffffffffffffffffffffffffffff166107e5610bce565b73ffffffffffffffffffffffffffffffffffffffff1614610832576040517f08c379a000000000000000000000000000000000000000000000000000000000815260040161061990611773565b61083c82826110aa565b61084861384042611945565b60ff9092166000908152600a6020908152604080832094909455600b905291909120640100000000905550565b600681565b606681565b600061088a33611148565b6108c0576040517f08c379a0000000000000000000000000000000000000000000000000000000008152600401610619906117a8565b600554156109b6576108d184611183565b60ff8416600090815260096020526040812080548492906108f390849061192d565b90915550506040805160608101825260ff86166000908152600b602090815283822054835273ffffffffffffffffffffffffffffffffffffffff878116828501908152848601888152600d80548652600c9094529584209451855551600180860180547fffffffffffffffffffffffff00000000000000000000000000000000000000001692909316919091179091559351600290930192909255815461099b90849061192d565b9091555050600d546109af906001906119bb565b90506109ba565b5060005b9392505050565b606581565b600181565b60085481565b6000546040517f3c9c8f9c00000000000000000000000000000000000000000000000000000000815273ffffffffffffffffffffffffffffffffffffffff90911690633c9c8f9c90610a279084906004016118bf565b60206040518083038186803b158015610a3f57600080fd5b505afa158015610a53573d6000803e3d6000fd5b505050506040513d601f19601f82011682018060405250810190610a7791906114d1565b61ffff91909116600090815260016020526040902080547fffffffffffffffffffffffff00000000000000000000000000000000000000001673ffffffffffffffffffffffffffffffffffffffff909216919091179055565b610ad86110a6565b73ffffffffffffffffffffffffffffffffffffffff16610af6610bce565b73ffffffffffffffffffffffffffffffffffffffff1614610b43576040517f08c379a000000000000000000000000000000000000000000000000000000000815260040161061990611773565b60035460405160009173ffffffffffffffffffffffffffffffffffffffff16907f8be0079c531659141344cd1fd0a4f28419497f9722a3daafe3b4186f6b6457e0908390a3600380547fffffffffffffffffffffffff0000000000000000000000000000000000000000169055565b600b6020526000908152604090205481565b606a81565b600981565b60035473ffffffffffffffffffffffffffffffffffffffff1690565b6000818152600c602052604081206109ba908490611215565b600d5481565b600281565b610c1733611148565b610c4d576040517f08c379a0000000000000000000000000000000000000000000000000000000008152600401610619906117a8565b610c5683611183565b60ff831660009081526009602052604081208054839290610c789084906119bb565b90915550506000828152600c60205260409020610c958482611256565b5081816002016000828254610caa91906119bb565b909155505050505050565b600c60205260009081526040902080546001820154600290920154909173ffffffffffffffffffffffffffffffffffffffff169083565b600581565b606881565b60016020526000908152604090205473ffffffffffffffffffffffffffffffffffffffff1681565b600260209081526000928352604080842090915290825290205460ff1681565b600a6020526000908152604090205481565b610d5933611148565b610d8f576040517f08c379a0000000000000000000000000000000000000000000000000000000008152600401610619906117a8565b610d9882611183565b6000818152600c60205260409020805415610ded57610db78382611256565b506001810180547fffffffffffffffffffffffff0000000000000000000000000000000000000000169055600080825560028201555b505050565b606c81565b600481565b606d81565b6000610e0c33611148565b610e42576040517f08c379a0000000000000000000000000000000000000000000000000000000008152600401610619906117a8565b610e4b83611183565b6000828152600c60205260409020610e638482611256565b949350505050565b600781565b610e7981611183565b50565b610e846110a6565b73ffffffffffffffffffffffffffffffffffffffff16610ea2610bce565b73ffffffffffffffffffffffffffffffffffffffff1614610eef576040517f08c379a000000000000000000000000000000000000000000000000000000000815260040161061990611773565b73ffffffffffffffffffffffffffffffffffffffff8116610f3c576040517f08c379a0000000000000000000000000000000000000000000000000000000008152600401610619906116b9565b60035460405173ffffffffffffffffffffffffffffffffffffffff8084169216907f8be0079c531659141344cd1fd0a4f28419497f9722a3daafe3b4186f6b6457e090600090a3600380547fffffffffffffffffffffffff00000000000000000000000000000000000000001673ffffffffffffffffffffffffffffffffffffffff92909216919091179055565b610fd333611148565b611009576040517f08c379a0000000000000000000000000000000000000000000000000000000008152600401610619906117a8565b60055415610ded5761101a83611183565b60ff83166000908152600960205260408120805483929061103c90849061192d565b90915550506000828152600c602052604090208054611087576040517f08c379a000000000000000000000000000000000000000000000000000000000815260040161061990611716565b6110918482611256565b5081816002016000828254610caa919061192d565b3390565b60ff82166000908152600760205260409020548111156110fd5760ff82166000908152600760205260409020546110e190826119bb565b600860008282546110f2919061192d565b909155506111329050565b60ff821660009081526007602052604090205461111b9082906119bb565b6008600082825461112c91906119bb565b90915550505b60ff909116600090815260076020526040902055565b73ffffffffffffffffffffffffffffffffffffffff811660009081526002602090815260408083206008845290915290205460ff165b919050565b600061119161384042611945565b905061119b61136e565b60ff82166000908152600a6020526040812054906111b982846119bb565b905080156111fd57806111cb856113d5565b6111d5919061197e565b60ff85166000908152600b6020526040812080549091906111f790849061192d565b90915550505b505060ff9091166000908152600a6020526040902055565b805460ff83166000908152600b602052604081205490916401000000009161123d91906119bb565b836002015461124c919061197e565b6109ba9190611945565b60006112628383611215565b905061126c61144d565b6004805460018501546040517fd9caed1200000000000000000000000000000000000000000000000000000000815273ffffffffffffffffffffffffffffffffffffffff9485169463d9caed12946112cd948216939091169187910161167d565b602060405180830381600087803b1580156112e757600080fd5b505af11580156112fb573d6000803e3d6000fd5b505050506040513d601f19601f8201168201806040525081019061131f9190611521565b611355576040517f08c379a000000000000000000000000000000000000000000000000000000000815260040161061990611862565b60ff9092166000908152600b6020526040902054905590565b600061137d6201518042611945565b905060006006548261138f91906119bb565b905060005b818110156113ce576103e86103e76005546113af919061197e565b6113b99190611945565b600555806113c6816119d2565b915050611394565b5050600655565b6000806113e761384062015180611945565b60085460ff851660009081526007602052604090205460055461140f9064010000000061197e565b611419919061197e565b6114239190611945565b61142d9190611945565b60ff84166000908152600960205260409020549091506109ba9082611945565b606560005260016020527f6def5a300acb6fcaa0dab3a41e9d6457b5147a641e641380f8cc4bf5308b16fe5473ffffffffffffffffffffffffffffffffffffffff1690565b803561ffff8116811461117e57600080fd5b803560ff8116811461117e57600080fd5b6000602082840312156114c6578081fd5b81356109ba81611a3a565b6000602082840312156114e2578081fd5b81516109ba81611a3a565b600080604083850312156114ff578081fd5b823561150a81611a3a565b915061151860208401611492565b90509250929050565b600060208284031215611532578081fd5b815180151581146109ba578182fd5b600060208284031215611552578081fd5b6109ba82611492565b6000806040838503121561156d578182fd5b61157683611492565b9150602083013561158681611a3a565b809150509250929050565b6000602082840312156115a2578081fd5b5035919050565b6000602082840312156115ba578081fd5b6109ba826114a4565b6000806000606084860312156115d7578081fd5b6115e0846114a4565b925060208401356115f081611a3a565b929592945050506040919091013590565b60008060408385031215611613578182fd5b61161c836114a4565b946020939093013593505050565b60008060006060848603121561163e578283fd5b611647846114a4565b95602085013595506040909401359392505050565b73ffffffffffffffffffffffffffffffffffffffff91909116815260200190565b73ffffffffffffffffffffffffffffffffffffffff9384168152919092166020820152604081019190915260600190565b901515815260200190565b60208082526026908201527f4f776e61626c653a206e6577206f776e657220697320746865207a65726f206160408201527f6464726573730000000000000000000000000000000000000000000000000000606082015260800190565b60208082526023908201527f547279696e6720746f2061646420746f206e6f6e2d6578697374616e7420636c60408201527f61696d0000000000000000000000000000000000000000000000000000000000606082015260800190565b6020808252818101527f4f776e61626c653a2063616c6c6572206973206e6f7420746865206f776e6572604082015260600190565b6020808252602c908201527f436f6e7472616374206e6f7420617574686f72697a656420746f207265706f7260408201527f7420696e63656e74697665730000000000000000000000000000000000000000606082015260800190565b60208082526033908201527f5472616e636865206973206e6f7420696e697469616c697a65642c20706c656160408201527f736520696e697469616c697a6520666972737400000000000000000000000000606082015260800190565b60208082526036908201527f5468657265207365656d7320746f2062652061206c61636b206f66204d46492060408201527f696e2074686520696e63656e746976652066756e642100000000000000000000606082015260800190565b61ffff91909116815260200190565b61ffff92909216825273ffffffffffffffffffffffffffffffffffffffff16602082015260400190565b90815260200190565b92835273ffffffffffffffffffffffffffffffffffffffff919091166020830152604082015260600190565b6000821982111561194057611940611a0b565b500190565b600082611979577f4e487b710000000000000000000000000000000000000000000000000000000081526012600452602481fd5b500490565b6000817fffffffffffffffffffffffffffffffffffffffffffffffffffffffffffffffff04831182151516156119b6576119b6611a0b565b500290565b6000828210156119cd576119cd611a0b565b500390565b60007fffffffffffffffffffffffffffffffffffffffffffffffffffffffffffffffff821415611a0457611a04611a0b565b5060010190565b7f4e487b7100000000000000000000000000000000000000000000000000000000600052601160045260246000fd5b73ffffffffffffffffffffffffffffffffffffffff81168114610e7957600080fdfea26469706673582212200cd4100e96fe9409f5455c13e3c13cfd8c1ec04eed6842b183426b07d9c3fd5c64736f6c63430008010033",
  "devdoc": {
    "kind": "dev",
    "methods": {
      "owner()": {
        "details": "Returns the address of the current owner."
      },
      "renounceOwnership()": {
        "details": "Leaves the contract without owner. It will not be possible to call `onlyOwner` functions anymore. Can only be called by the current owner. NOTE: Renouncing ownership will leave the contract without an owner, thereby removing any functionality that is only available to the owner."
      },
      "transferOwnership(address)": {
        "details": "Transfers ownership of the contract to a new account (`newOwner`). Can only be called by the current owner."
      }
    },
    "version": 1
  },
  "userdoc": {
    "kind": "user",
    "methods": {},
    "version": 1
  },
  "storageLayout": {
    "storage": [
      {
        "astId": 11730,
        "contract": "contracts/IncentiveDistribution.sol:IncentiveDistribution",
        "label": "roles",
        "offset": 0,
        "slot": "0",
        "type": "t_contract(Roles)12120"
      },
      {
        "astId": 11734,
        "contract": "contracts/IncentiveDistribution.sol:IncentiveDistribution",
        "label": "mainCharacterCache",
        "offset": 0,
        "slot": "1",
        "type": "t_mapping(t_uint16,t_address)"
      },
      {
        "astId": 11740,
        "contract": "contracts/IncentiveDistribution.sol:IncentiveDistribution",
        "label": "roleCache",
        "offset": 0,
        "slot": "2",
        "type": "t_mapping(t_address,t_mapping(t_uint16,t_bool))"
      },
      {
        "astId": 381,
        "contract": "contracts/IncentiveDistribution.sol:IncentiveDistribution",
        "label": "_owner",
        "offset": 0,
        "slot": "3",
        "type": "t_address"
      },
      {
        "astId": 8669,
        "contract": "contracts/IncentiveDistribution.sol:IncentiveDistribution",
        "label": "MFI",
        "offset": 0,
        "slot": "4",
        "type": "t_address"
      },
      {
        "astId": 8705,
        "contract": "contracts/IncentiveDistribution.sol:IncentiveDistribution",
        "label": "currentDailyDistribution",
        "offset": 0,
        "slot": "5",
        "type": "t_uint256"
      },
      {
        "astId": 8707,
        "contract": "contracts/IncentiveDistribution.sol:IncentiveDistribution",
        "label": "lastDailyDistributionUpdate",
        "offset": 0,
        "slot": "6",
        "type": "t_uint256"
      },
      {
        "astId": 8711,
        "contract": "contracts/IncentiveDistribution.sol:IncentiveDistribution",
        "label": "trancheShare",
        "offset": 0,
        "slot": "7",
        "type": "t_mapping(t_uint8,t_uint256)"
      },
      {
        "astId": 8713,
        "contract": "contracts/IncentiveDistribution.sol:IncentiveDistribution",
        "label": "trancheShareTotal",
        "offset": 0,
        "slot": "8",
        "type": "t_uint256"
      },
      {
        "astId": 8717,
        "contract": "contracts/IncentiveDistribution.sol:IncentiveDistribution",
        "label": "currentPeriodTotals",
        "offset": 0,
        "slot": "9",
        "type": "t_mapping(t_uint8,t_uint256)"
      },
      {
        "astId": 8721,
        "contract": "contracts/IncentiveDistribution.sol:IncentiveDistribution",
        "label": "lastUpdatedPeriods",
        "offset": 0,
        "slot": "10",
        "type": "t_mapping(t_uint8,t_uint256)"
      },
      {
        "astId": 8725,
        "contract": "contracts/IncentiveDistribution.sol:IncentiveDistribution",
        "label": "aggregatePeriodicRewardRateFP",
        "offset": 0,
        "slot": "11",
        "type": "t_mapping(t_uint8,t_uint256)"
      },
      {
        "astId": 8730,
        "contract": "contracts/IncentiveDistribution.sol:IncentiveDistribution",
        "label": "claims",
        "offset": 0,
        "slot": "12",
        "type": "t_mapping(t_uint256,t_struct(Claim)8647_storage)"
      },
      {
        "astId": 8733,
        "contract": "contracts/IncentiveDistribution.sol:IncentiveDistribution",
        "label": "nextClaimId",
        "offset": 0,
        "slot": "13",
        "type": "t_uint256"
      }
    ],
    "types": {
      "t_address": {
        "encoding": "inplace",
        "label": "address",
        "numberOfBytes": "20"
      },
      "t_bool": {
        "encoding": "inplace",
        "label": "bool",
        "numberOfBytes": "1"
      },
      "t_contract(Roles)12120": {
        "encoding": "inplace",
        "label": "contract Roles",
        "numberOfBytes": "20"
      },
      "t_mapping(t_address,t_mapping(t_uint16,t_bool))": {
        "encoding": "mapping",
        "key": "t_address",
        "label": "mapping(address => mapping(uint16 => bool))",
        "numberOfBytes": "32",
        "value": "t_mapping(t_uint16,t_bool)"
      },
      "t_mapping(t_uint16,t_address)": {
        "encoding": "mapping",
        "key": "t_uint16",
        "label": "mapping(uint16 => address)",
        "numberOfBytes": "32",
        "value": "t_address"
      },
      "t_mapping(t_uint16,t_bool)": {
        "encoding": "mapping",
        "key": "t_uint16",
        "label": "mapping(uint16 => bool)",
        "numberOfBytes": "32",
        "value": "t_bool"
      },
      "t_mapping(t_uint256,t_struct(Claim)8647_storage)": {
        "encoding": "mapping",
        "key": "t_uint256",
        "label": "mapping(uint256 => struct Claim)",
        "numberOfBytes": "32",
        "value": "t_struct(Claim)8647_storage"
      },
      "t_mapping(t_uint8,t_uint256)": {
        "encoding": "mapping",
        "key": "t_uint8",
        "label": "mapping(uint8 => uint256)",
        "numberOfBytes": "32",
        "value": "t_uint256"
      },
      "t_struct(Claim)8647_storage": {
        "encoding": "inplace",
        "label": "struct Claim",
        "members": [
          {
            "astId": 8642,
            "contract": "contracts/IncentiveDistribution.sol:IncentiveDistribution",
            "label": "startingRewardRateFP",
            "offset": 0,
            "slot": "0",
            "type": "t_uint256"
          },
          {
            "astId": 8644,
            "contract": "contracts/IncentiveDistribution.sol:IncentiveDistribution",
            "label": "recipient",
            "offset": 0,
            "slot": "1",
            "type": "t_address"
          },
          {
            "astId": 8646,
            "contract": "contracts/IncentiveDistribution.sol:IncentiveDistribution",
            "label": "amount",
            "offset": 0,
            "slot": "2",
            "type": "t_uint256"
          }
        ],
        "numberOfBytes": "96"
      },
      "t_uint16": {
        "encoding": "inplace",
        "label": "uint16",
        "numberOfBytes": "2"
      },
      "t_uint256": {
        "encoding": "inplace",
        "label": "uint256",
        "numberOfBytes": "32"
      },
      "t_uint8": {
        "encoding": "inplace",
        "label": "uint8",
        "numberOfBytes": "1"
      }
    }
  }
}