{
  "address": "0xe3C9Fc53D933ACaf0Cb6702CA51f36D3f8a8F828",
  "abi": [
    {
      "inputs": [
        {
          "internalType": "address",
          "name": "_MFI",
          "type": "address"
        },
        {
          "internalType": "uint256",
          "name": "startingDailyDistributionWithoutDecimals",
          "type": "uint256"
        },
        {
          "internalType": "address",
          "name": "_roles",
          "type": "address"
        }
      ],
      "stateMutability": "nonpayable",
      "type": "constructor"
    },
    {
      "anonymous": false,
      "inputs": [
        {
          "indexed": true,
          "internalType": "address",
          "name": "previousOwner",
          "type": "address"
        },
        {
          "indexed": true,
          "internalType": "address",
          "name": "newOwner",
          "type": "address"
        }
      ],
      "name": "OwnershipTransferred",
      "type": "event"
    },
    {
      "inputs": [],
      "name": "MFI",
      "outputs": [
        {
          "internalType": "address",
          "name": "",
          "type": "address"
        }
      ],
      "stateMutability": "view",
      "type": "function"
    },
    {
      "inputs": [
        {
          "internalType": "uint8",
          "name": "tranche",
          "type": "uint8"
        },
        {
          "internalType": "uint256",
          "name": "claimId",
          "type": "uint256"
        },
        {
          "internalType": "uint256",
          "name": "additionalAmount",
          "type": "uint256"
        }
      ],
      "name": "addToClaimAmount",
      "outputs": [],
      "stateMutability": "nonpayable",
      "type": "function"
    },
    {
      "inputs": [
        {
          "internalType": "uint8",
          "name": "",
          "type": "uint8"
        }
      ],
      "name": "aggregatePeriodicRewardRateFP",
      "outputs": [
        {
          "internalType": "uint256",
          "name": "",
          "type": "uint256"
        }
      ],
      "stateMutability": "view",
      "type": "function"
    },
    {
      "inputs": [
        {
          "internalType": "uint256",
          "name": "",
          "type": "uint256"
        }
      ],
      "name": "claims",
      "outputs": [
        {
          "internalType": "uint256",
          "name": "startingRewardRateFP",
          "type": "uint256"
        },
        {
          "internalType": "address",
          "name": "recipient",
          "type": "address"
        },
        {
          "internalType": "uint256",
          "name": "amount",
          "type": "uint256"
        }
      ],
      "stateMutability": "view",
      "type": "function"
    },
    {
      "inputs": [],
      "name": "contractionPerMil",
      "outputs": [
        {
          "internalType": "uint256",
          "name": "",
          "type": "uint256"
        }
      ],
      "stateMutability": "view",
      "type": "function"
    },
    {
      "inputs": [],
      "name": "currentDailyDistribution",
      "outputs": [
        {
          "internalType": "uint256",
          "name": "",
          "type": "uint256"
        }
      ],
      "stateMutability": "view",
      "type": "function"
    },
    {
      "inputs": [
        {
          "internalType": "uint8",
          "name": "",
          "type": "uint8"
        }
      ],
      "name": "currentPeriodTotals",
      "outputs": [
        {
          "internalType": "uint256",
          "name": "",
          "type": "uint256"
        }
      ],
      "stateMutability": "view",
      "type": "function"
    },
    {
      "inputs": [
        {
          "internalType": "uint8",
          "name": "tranche",
          "type": "uint8"
        },
        {
          "internalType": "uint256",
          "name": "claimId",
          "type": "uint256"
        }
      ],
      "name": "endClaim",
      "outputs": [],
      "stateMutability": "nonpayable",
      "type": "function"
    },
    {
      "inputs": [
        {
          "internalType": "uint8",
          "name": "tranche",
          "type": "uint8"
        }
      ],
      "name": "forcePeriodTotalUpdate",
      "outputs": [],
      "stateMutability": "nonpayable",
      "type": "function"
    },
    {
      "inputs": [
        {
          "internalType": "uint8",
          "name": "tranche",
          "type": "uint8"
        },
        {
          "internalType": "uint256",
          "name": "share",
          "type": "uint256"
        }
      ],
      "name": "initTranche",
      "outputs": [],
      "stateMutability": "nonpayable",
      "type": "function"
    },
    {
      "inputs": [
        {
          "internalType": "uint8",
          "name": "",
          "type": "uint8"
        }
      ],
      "name": "lastUpdatedPeriods",
      "outputs": [
        {
          "internalType": "uint256",
          "name": "",
          "type": "uint256"
        }
      ],
      "stateMutability": "view",
      "type": "function"
    },
    {
      "inputs": [
        {
          "internalType": "uint256",
          "name": "",
          "type": "uint256"
        }
      ],
      "name": "mainCharacterCache",
      "outputs": [
        {
          "internalType": "address",
          "name": "",
          "type": "address"
        }
      ],
      "stateMutability": "view",
      "type": "function"
    },
    {
      "inputs": [],
      "name": "nextClaimId",
      "outputs": [
        {
          "internalType": "uint256",
          "name": "",
          "type": "uint256"
        }
      ],
      "stateMutability": "view",
      "type": "function"
    },
    {
      "inputs": [],
      "name": "owner",
      "outputs": [
        {
          "internalType": "address",
          "name": "",
          "type": "address"
        }
      ],
      "stateMutability": "view",
      "type": "function"
    },
    {
      "inputs": [],
      "name": "period",
      "outputs": [
        {
          "internalType": "uint256",
          "name": "",
          "type": "uint256"
        }
      ],
      "stateMutability": "view",
      "type": "function"
    },
    {
      "inputs": [],
      "name": "periodsPerDay",
      "outputs": [
        {
          "internalType": "uint256",
          "name": "",
          "type": "uint256"
        }
      ],
      "stateMutability": "view",
      "type": "function"
    },
    {
      "inputs": [],
      "name": "renounceOwnership",
      "outputs": [],
      "stateMutability": "nonpayable",
      "type": "function"
    },
    {
      "inputs": [
        {
          "internalType": "address",
          "name": "",
          "type": "address"
        },
        {
          "internalType": "uint256",
          "name": "",
          "type": "uint256"
        }
      ],
      "name": "roleCache",
      "outputs": [
        {
          "internalType": "bool",
          "name": "",
          "type": "bool"
        }
      ],
      "stateMutability": "view",
      "type": "function"
    },
    {
      "inputs": [],
      "name": "roles",
      "outputs": [
        {
          "internalType": "contract Roles",
          "name": "",
          "type": "address"
        }
      ],
      "stateMutability": "view",
      "type": "function"
    },
    {
      "inputs": [
        {
          "internalType": "uint8",
          "name": "tranche",
          "type": "uint8"
        },
        {
          "internalType": "uint256",
          "name": "share",
          "type": "uint256"
        }
      ],
      "name": "setTrancheShare",
      "outputs": [],
      "stateMutability": "nonpayable",
      "type": "function"
    },
    {
      "inputs": [
        {
          "internalType": "uint8",
          "name": "tranche",
          "type": "uint8"
        },
        {
          "internalType": "address",
          "name": "recipient",
          "type": "address"
        },
        {
          "internalType": "uint256",
          "name": "claimAmount",
          "type": "uint256"
        }
      ],
      "name": "startClaim",
      "outputs": [
        {
          "internalType": "uint256",
          "name": "",
          "type": "uint256"
        }
      ],
      "stateMutability": "nonpayable",
      "type": "function"
    },
    {
      "inputs": [
        {
          "internalType": "uint8",
          "name": "tranche",
          "type": "uint8"
        },
        {
          "internalType": "uint256",
          "name": "claimId",
          "type": "uint256"
        },
        {
          "internalType": "uint256",
          "name": "subtractAmount",
          "type": "uint256"
        }
      ],
      "name": "subtractFromClaimAmount",
      "outputs": [],
      "stateMutability": "nonpayable",
      "type": "function"
    },
    {
      "inputs": [
        {
          "internalType": "uint8",
          "name": "",
          "type": "uint8"
        }
      ],
      "name": "trancheShare",
      "outputs": [
        {
          "internalType": "uint256",
          "name": "",
          "type": "uint256"
        }
      ],
      "stateMutability": "view",
      "type": "function"
    },
    {
      "inputs": [],
      "name": "trancheShareTotal",
      "outputs": [
        {
          "internalType": "uint256",
          "name": "",
          "type": "uint256"
        }
      ],
      "stateMutability": "view",
      "type": "function"
    },
    {
      "inputs": [
        {
          "internalType": "address",
          "name": "newOwner",
          "type": "address"
        }
      ],
      "name": "transferOwnership",
      "outputs": [],
      "stateMutability": "nonpayable",
      "type": "function"
    },
    {
      "inputs": [
        {
          "internalType": "uint256",
          "name": "role",
          "type": "uint256"
        }
      ],
      "name": "updateMainCharacterCache",
      "outputs": [],
      "stateMutability": "nonpayable",
      "type": "function"
    },
    {
      "inputs": [
        {
          "internalType": "uint256",
          "name": "role",
          "type": "uint256"
        },
        {
          "internalType": "address",
          "name": "contr",
          "type": "address"
        }
      ],
      "name": "updateRoleCache",
      "outputs": [],
      "stateMutability": "nonpayable",
      "type": "function"
    },
    {
      "inputs": [
        {
          "internalType": "uint8",
          "name": "tranche",
          "type": "uint8"
        },
        {
          "internalType": "uint256",
          "name": "claimId",
          "type": "uint256"
        }
      ],
      "name": "viewRewardAmount",
      "outputs": [
        {
          "internalType": "uint256",
          "name": "",
          "type": "uint256"
        }
      ],
      "stateMutability": "view",
      "type": "function"
    },
    {
      "inputs": [
        {
          "internalType": "uint8",
          "name": "tranche",
          "type": "uint8"
        },
        {
          "internalType": "uint256",
          "name": "claimId",
          "type": "uint256"
        }
      ],
      "name": "withdrawReward",
      "outputs": [
        {
          "internalType": "uint256",
          "name": "",
          "type": "uint256"
        }
      ],
      "stateMutability": "nonpayable",
      "type": "function"
    }
  ],
  "transactionHash": "0xf6446c49d2db7969ce6524f51d6c508c1b4f2b8a306399d6165322cb211d35af",
  "args": [
    "0xAa4e3edb11AFa93c41db59842b29de64b72E355B",
    4000,
    "0xC95531a7f6C57456718BCd69a5f64829C7973f11"
  ],
  "solcInputHash": "ec45310c1ebd228212cbc01f9840ea7e",
  "bytecode": "0x60c06040526001600b553480156200001657600080fd5b5060405162001a6338038062001a6383398101604081905262000039916200013c565b806001600160a01b0381166200006c5760405162461bcd60e51b815260040162000063906200017c565b60405180910390fd5b60601b6001600160601b0319166080526000620000886200011b565b600280546001600160a01b0319166001600160a01b038316908117909155604051919250906000907f8be0079c531659141344cd1fd0a4f28419497f9722a3daafe3b4186f6b6457e0908290a3506001600160601b0319606084901b1660a052620000fc82670de0b6b3a7640000620001df565b6003556200010e6201518042620001be565b600455506200020b915050565b3390565b80516001600160a01b03811681146200013757600080fd5b919050565b60008060006060848603121562000151578283fd5b6200015c846200011f565b92506020840151915062000173604085016200011f565b90509250925092565b60208082526022908201527f506c656173652070726f766964652076616c696420726f6c6573206164647265604082015261737360f01b606082015260800190565b600082620001da57634e487b7160e01b81526012600452602481fd5b500490565b60008160001904831182151516156200020657634e487b7160e01b81526011600452602481fd5b500290565b60805160601c60a05160601c6118176200024c60003960008181610ccc015261114901526000818161041c015281816105e101526106f601526118176000f3fe608060405234801561001057600080fd5b50600436106101ce5760003560e01c80637fad8a1811610104578063c6de9d5d116100a2578063ed29c12b11610071578063ed29c12b14610397578063ef78d4fd1461039f578063f2fde38b146103a7578063f5428087146103ba576101ce565b8063c6de9d5d1461034b578063d56b10541461035e578063e9c3f77d14610371578063eb3b6cec14610384576101ce565b8063a0021cf1116100de578063a0021cf1146102fb578063a801671114610303578063a888c2cd14610316578063c63f5ab714610338576101ce565b80637fad8a18146102cd5780638da5cb5b146102e057806398239023146102e8576101ce565b8063447d52ba11610171578063678337f81161014b578063678337f814610295578063715018a61461029d57806373c4b4d5146102a55780637a1a04df146102ad576101ce565b8063447d52ba14610267578063583d86161461027a578063614e3aed1461028d576101ce565b806318e843b7116101ad57806318e843b71461021957806319f51afb1461022c578063392f5f641461023f578063430c39e414610254576101ce565b8062fae52b146101d3578063071060a6146101fc57806317eef6f314610211575b600080fd5b6101e66101e13660046113ae565b6103cd565b6040516101f39190611659565b60405180910390f35b61020f61020a366004611367565b6103df565b005b6101e66104f4565b6101e66102273660046113ae565b6104fa565b61020f61023a366004611406565b61050c565b6102476105df565b6040516101f39190611453565b61020f610262366004611406565b610603565b61020f61027536600461137f565b6106b9565b6101e66102883660046113c8565b6107e0565b6101e6610922565b6101e6610928565b61020f61092e565b6101e6610a10565b6102c06102bb36600461131c565b610a22565b6040516101f391906114a5565b6101e66102db3660046113ae565b610a42565b610247610a54565b6101e66102f6366004611406565b610a70565b6101e6610a89565b61020f610311366004611421565b610a8f565b610329610324366004611367565b610b36565b6040516101f393929190611686565b6101e66103463660046113ae565b610b6d565b61020f610359366004611406565b610b7f565b6101e661036c366004611406565b610c2c565b61024761037f366004611367565b610c96565b61020f6103923660046113ae565b610cbe565b610247610cca565b6101e6610cee565b61020f6103b53660046112e4565b610cf4565b61020f6103c8366004611421565b610e42565b60076020526000908152604090205481565b6040517fb4ed0b6d00000000000000000000000000000000000000000000000000000000815273ffffffffffffffffffffffffffffffffffffffff7f0000000000000000000000000000000000000000000000000000000000000000169063b4ed0b6d90610451908490600401611659565b60206040518083038186803b15801561046957600080fd5b505afa15801561047d573d6000803e3d6000fd5b505050506040513d601f19601f820116820180604052508101906104a19190611300565b60009182526020829052604090912080547fffffffffffffffffffffffff00000000000000000000000000000000000000001673ffffffffffffffffffffffffffffffffffffffff909216919091179055565b60035481565b60056020526000908152604090205481565b610514610f1e565b73ffffffffffffffffffffffffffffffffffffffff16610532610a54565b73ffffffffffffffffffffffffffffffffffffffff1614610588576040517f08c379a000000000000000000000000000000000000000000000000000000000815260040161057f9061156a565b60405180910390fd5b60ff82166000908152600860205260409020546105d1576040517f08c379a000000000000000000000000000000000000000000000000000000000815260040161057f906115fc565b6105db8282610f22565b5050565b7f000000000000000000000000000000000000000000000000000000000000000081565b61060b610f1e565b73ffffffffffffffffffffffffffffffffffffffff16610629610a54565b73ffffffffffffffffffffffffffffffffffffffff1614610676576040517f08c379a000000000000000000000000000000000000000000000000000000000815260040161057f9061156a565b6106808282610f22565b61068c613840426116ca565b60ff9092166000908152600860209081526040808320949094556009905291909120640100000000905550565b6040517f93552a3d00000000000000000000000000000000000000000000000000000000815273ffffffffffffffffffffffffffffffffffffffff7f000000000000000000000000000000000000000000000000000000000000000016906393552a3d9061072d9085908590600401611662565b60206040518083038186803b15801561074557600080fd5b505afa158015610759573d6000803e3d6000fd5b505050506040513d601f19601f8201168201806040525081019061077d9190611347565b73ffffffffffffffffffffffffffffffffffffffff9190911660009081526001602090815260408083209483529390529190912080547fffffffffffffffffffffffffffffffffffffffffffffffffffffffffffffff0016911515919091179055565b60006107eb33610fc0565b610821576040517f08c379a000000000000000000000000000000000000000000000000000000000815260040161057f9061159f565b600354156109175761083284610ffb565b60ff8416600090815260076020526040812080548492906108549084906116b2565b90915550506040805160608101825260ff861660009081526009602090815283822054835273ffffffffffffffffffffffffffffffffffffffff878116828501908152848601888152600b80548652600a9094529584209451855551600180860180547fffffffffffffffffffffffff0000000000000000000000000000000000000000169290931691909117909155935160029093019290925581546108fc9084906116b2565b9091555050600b5461091090600190611740565b905061091b565b5060005b9392505050565b6103e781565b60065481565b610936610f1e565b73ffffffffffffffffffffffffffffffffffffffff16610954610a54565b73ffffffffffffffffffffffffffffffffffffffff16146109a1576040517f08c379a000000000000000000000000000000000000000000000000000000000815260040161057f9061156a565b60025460405160009173ffffffffffffffffffffffffffffffffffffffff16907f8be0079c531659141344cd1fd0a4f28419497f9722a3daafe3b4186f6b6457e0908390a3600280547fffffffffffffffffffffffff0000000000000000000000000000000000000000169055565b610a1f613840620151806116ca565b81565b600160209081526000928352604080842090915290825290205460ff1681565b60096020526000908152604090205481565b60025473ffffffffffffffffffffffffffffffffffffffff1690565b6000818152600a6020526040812061091b90849061108d565b600b5481565b610a9833610fc0565b610ace576040517f08c379a000000000000000000000000000000000000000000000000000000000815260040161057f9061159f565b610ad783610ffb565b60ff831660009081526007602052604081208054839290610af9908490611740565b90915550506000828152600a60205260409020610b1684826110ce565b5081816002016000828254610b2b9190611740565b909155505050505050565b600a60205260009081526040902080546001820154600290920154909173ffffffffffffffffffffffffffffffffffffffff169083565b60086020526000908152604090205481565b610b8833610fc0565b610bbe576040517f08c379a000000000000000000000000000000000000000000000000000000000815260040161057f9061159f565b610bc782610ffb565b6000818152600a60205260409020805415610c2757610be683826110ce565b506000828152600a602052604081208181556001810180547fffffffffffffffffffffffff0000000000000000000000000000000000000000169055600201555b505050565b6000610c3733610fc0565b610c6d576040517f08c379a000000000000000000000000000000000000000000000000000000000815260040161057f9061159f565b610c7683610ffb565b6000828152600a60205260409020610c8e84826110ce565b949350505050565b60006020819052908152604090205473ffffffffffffffffffffffffffffffffffffffff1681565b610cc781610ffb565b50565b7f000000000000000000000000000000000000000000000000000000000000000081565b61384081565b610cfc610f1e565b73ffffffffffffffffffffffffffffffffffffffff16610d1a610a54565b73ffffffffffffffffffffffffffffffffffffffff1614610d67576040517f08c379a000000000000000000000000000000000000000000000000000000000815260040161057f9061156a565b73ffffffffffffffffffffffffffffffffffffffff8116610db4576040517f08c379a000000000000000000000000000000000000000000000000000000000815260040161057f906114b0565b60025460405173ffffffffffffffffffffffffffffffffffffffff8084169216907f8be0079c531659141344cd1fd0a4f28419497f9722a3daafe3b4186f6b6457e090600090a3600280547fffffffffffffffffffffffff00000000000000000000000000000000000000001673ffffffffffffffffffffffffffffffffffffffff92909216919091179055565b610e4b33610fc0565b610e81576040517f08c379a000000000000000000000000000000000000000000000000000000000815260040161057f9061159f565b60035415610c2757610e9283610ffb565b60ff831660009081526007602052604081208054839290610eb49084906116b2565b90915550506000828152600a602052604090208054610eff576040517f08c379a000000000000000000000000000000000000000000000000000000000815260040161057f9061150d565b610f0984826110ce565b5081816002016000828254610b2b91906116b2565b3390565b60ff8216600090815260056020526040902054811115610f755760ff8216600090815260056020526040902054610f599082611740565b60066000828254610f6a91906116b2565b90915550610faa9050565b60ff8216600090815260056020526040902054610f93908290611740565b60066000828254610fa49190611740565b90915550505b60ff909116600090815260056020526040902055565b73ffffffffffffffffffffffffffffffffffffffff811660009081526001602090815260408083206008845290915290205460ff165b919050565b6000611009613840426116ca565b90506110136111af565b60ff8216600090815260086020526040812054906110318284611740565b90508015611075578061104385611216565b61104d9190611703565b60ff85166000908152600960205260408120805490919061106f9084906116b2565b90915550505b505060ff909116600090815260086020526040902055565b805460ff83166000908152600960205260408120549091640100000000916110b59190611740565b83600201546110c49190611703565b61091b91906116ca565b60006110da838361108d565b60ff8416600090815260096020526040902054835590506110f961128e565b60018301546040517fd9caed1200000000000000000000000000000000000000000000000000000000815273ffffffffffffffffffffffffffffffffffffffff9283169263d9caed1292611177927f000000000000000000000000000000000000000000000000000000000000000092909116908690600401611474565b600060405180830381600087803b15801561119157600080fd5b505af11580156111a5573d6000803e3d6000fd5b5050505092915050565b60006111be62015180426116ca565b90506000600454826111d09190611740565b905060005b8181101561120f576103e86103e76003546111f09190611703565b6111fa91906116ca565b6003558061120781611757565b9150506111d5565b5050600455565b600080611228613840620151806116ca565b60065460ff851660009081526005602052604090205460035461125090640100000000611703565b61125a9190611703565b61126491906116ca565b61126e91906116ca565b60ff841660009081526007602052604090205490915061091b90826116ca565b606560009081526020527f4a7203f705e51df4a56139a9b86b4a0970bed7ab7a3446eaffe2289989c1645c5473ffffffffffffffffffffffffffffffffffffffff1690565b803560ff81168114610ff657600080fd5b6000602082840312156112f5578081fd5b813561091b816117bf565b600060208284031215611311578081fd5b815161091b816117bf565b6000806040838503121561132e578081fd5b8235611339816117bf565b946020939093013593505050565b600060208284031215611358578081fd5b8151801515811461091b578182fd5b600060208284031215611378578081fd5b5035919050565b60008060408385031215611391578182fd5b8235915060208301356113a3816117bf565b809150509250929050565b6000602082840312156113bf578081fd5b61091b826112d3565b6000806000606084860312156113dc578081fd5b6113e5846112d3565b925060208401356113f5816117bf565b929592945050506040919091013590565b60008060408385031215611418578182fd5b611339836112d3565b600080600060608486031215611435578283fd5b61143e846112d3565b95602085013595506040909401359392505050565b73ffffffffffffffffffffffffffffffffffffffff91909116815260200190565b73ffffffffffffffffffffffffffffffffffffffff9384168152919092166020820152604081019190915260600190565b901515815260200190565b60208082526026908201527f4f776e61626c653a206e6577206f776e657220697320746865207a65726f206160408201527f6464726573730000000000000000000000000000000000000000000000000000606082015260800190565b60208082526023908201527f547279696e6720746f2061646420746f206e6f6e2d6578697374616e7420636c60408201527f61696d0000000000000000000000000000000000000000000000000000000000606082015260800190565b6020808252818101527f4f776e61626c653a2063616c6c6572206973206e6f7420746865206f776e6572604082015260600190565b6020808252602c908201527f436f6e7472616374206e6f7420617574686f72697a656420746f207265706f7260408201527f7420696e63656e74697665730000000000000000000000000000000000000000606082015260800190565b60208082526033908201527f5472616e636865206973206e6f7420696e697469616c697a65642c20706c656160408201527f736520696e697469616c697a6520666972737400000000000000000000000000606082015260800190565b90815260200190565b91825273ffffffffffffffffffffffffffffffffffffffff16602082015260400190565b92835273ffffffffffffffffffffffffffffffffffffffff919091166020830152604082015260600190565b600082198211156116c5576116c5611790565b500190565b6000826116fe577f4e487b710000000000000000000000000000000000000000000000000000000081526012600452602481fd5b500490565b6000817fffffffffffffffffffffffffffffffffffffffffffffffffffffffffffffffff048311821515161561173b5761173b611790565b500290565b60008282101561175257611752611790565b500390565b60007fffffffffffffffffffffffffffffffffffffffffffffffffffffffffffffffff82141561178957611789611790565b5060010190565b7f4e487b7100000000000000000000000000000000000000000000000000000000600052601160045260246000fd5b73ffffffffffffffffffffffffffffffffffffffff81168114610cc757600080fdfea26469706673582212208b8db97ff0d59c436077a0140a475b70cb70031e85ff561aad00f51c1d2dced164736f6c63430008010033",
  "devdoc": {
    "kind": "dev",
    "methods": {
      "owner()": {
        "details": "Returns the address of the current owner."
      },
      "renounceOwnership()": {
        "details": "Leaves the contract without owner. It will not be possible to call `onlyOwner` functions anymore. Can only be called by the current owner. NOTE: Renouncing ownership will leave the contract without an owner, thereby removing any functionality that is only available to the owner."
      },
      "transferOwnership(address)": {
        "details": "Transfers ownership of the contract to a new account (`newOwner`). Can only be called by the current owner."
      }
    },
    "version": 1
  },
  "userdoc": {
    "kind": "user",
    "methods": {},
    "version": 1
  },
  "storageLayout": {
    "storage": [
      {
        "astId": 12289,
        "contract": "contracts/IncentiveDistribution.sol:IncentiveDistribution",
        "label": "mainCharacterCache",
        "offset": 0,
        "slot": "0",
        "type": "t_mapping(t_uint256,t_address)"
      },
      {
        "astId": 12295,
        "contract": "contracts/IncentiveDistribution.sol:IncentiveDistribution",
        "label": "roleCache",
        "offset": 0,
        "slot": "1",
        "type": "t_mapping(t_address,t_mapping(t_uint256,t_bool))"
      },
      {
        "astId": 381,
        "contract": "contracts/IncentiveDistribution.sol:IncentiveDistribution",
        "label": "_owner",
        "offset": 0,
        "slot": "2",
        "type": "t_address"
      },
      {
        "astId": 9093,
        "contract": "contracts/IncentiveDistribution.sol:IncentiveDistribution",
        "label": "currentDailyDistribution",
        "offset": 0,
        "slot": "3",
        "type": "t_uint256"
      },
      {
        "astId": 9095,
        "contract": "contracts/IncentiveDistribution.sol:IncentiveDistribution",
        "label": "lastDailyDistributionUpdate",
        "offset": 0,
        "slot": "4",
        "type": "t_uint256"
      },
      {
        "astId": 9099,
        "contract": "contracts/IncentiveDistribution.sol:IncentiveDistribution",
        "label": "trancheShare",
        "offset": 0,
        "slot": "5",
        "type": "t_mapping(t_uint8,t_uint256)"
      },
      {
        "astId": 9101,
        "contract": "contracts/IncentiveDistribution.sol:IncentiveDistribution",
        "label": "trancheShareTotal",
        "offset": 0,
        "slot": "6",
        "type": "t_uint256"
      },
      {
        "astId": 9105,
        "contract": "contracts/IncentiveDistribution.sol:IncentiveDistribution",
        "label": "currentPeriodTotals",
        "offset": 0,
        "slot": "7",
        "type": "t_mapping(t_uint8,t_uint256)"
      },
      {
        "astId": 9109,
        "contract": "contracts/IncentiveDistribution.sol:IncentiveDistribution",
        "label": "lastUpdatedPeriods",
        "offset": 0,
        "slot": "8",
        "type": "t_mapping(t_uint8,t_uint256)"
      },
      {
        "astId": 9113,
        "contract": "contracts/IncentiveDistribution.sol:IncentiveDistribution",
        "label": "aggregatePeriodicRewardRateFP",
        "offset": 0,
        "slot": "9",
        "type": "t_mapping(t_uint8,t_uint256)"
      },
      {
        "astId": 9118,
        "contract": "contracts/IncentiveDistribution.sol:IncentiveDistribution",
        "label": "claims",
        "offset": 0,
        "slot": "10",
        "type": "t_mapping(t_uint256,t_struct(Claim)9035_storage)"
      },
      {
        "astId": 9121,
        "contract": "contracts/IncentiveDistribution.sol:IncentiveDistribution",
        "label": "nextClaimId",
        "offset": 0,
        "slot": "11",
        "type": "t_uint256"
      }
    ],
    "types": {
      "t_address": {
        "encoding": "inplace",
        "label": "address",
        "numberOfBytes": "20"
      },
      "t_bool": {
        "encoding": "inplace",
        "label": "bool",
        "numberOfBytes": "1"
      },
      "t_mapping(t_address,t_mapping(t_uint256,t_bool))": {
        "encoding": "mapping",
        "key": "t_address",
        "label": "mapping(address => mapping(uint256 => bool))",
        "numberOfBytes": "32",
        "value": "t_mapping(t_uint256,t_bool)"
      },
      "t_mapping(t_uint256,t_address)": {
        "encoding": "mapping",
        "key": "t_uint256",
        "label": "mapping(uint256 => address)",
        "numberOfBytes": "32",
        "value": "t_address"
      },
      "t_mapping(t_uint256,t_bool)": {
        "encoding": "mapping",
        "key": "t_uint256",
        "label": "mapping(uint256 => bool)",
        "numberOfBytes": "32",
        "value": "t_bool"
      },
      "t_mapping(t_uint256,t_struct(Claim)9035_storage)": {
        "encoding": "mapping",
        "key": "t_uint256",
        "label": "mapping(uint256 => struct Claim)",
        "numberOfBytes": "32",
        "value": "t_struct(Claim)9035_storage"
      },
      "t_mapping(t_uint8,t_uint256)": {
        "encoding": "mapping",
        "key": "t_uint8",
        "label": "mapping(uint8 => uint256)",
        "numberOfBytes": "32",
        "value": "t_uint256"
      },
      "t_struct(Claim)9035_storage": {
        "encoding": "inplace",
        "label": "struct Claim",
        "members": [
          {
            "astId": 9030,
            "contract": "contracts/IncentiveDistribution.sol:IncentiveDistribution",
            "label": "startingRewardRateFP",
            "offset": 0,
            "slot": "0",
            "type": "t_uint256"
          },
          {
            "astId": 9032,
            "contract": "contracts/IncentiveDistribution.sol:IncentiveDistribution",
            "label": "recipient",
            "offset": 0,
            "slot": "1",
            "type": "t_address"
          },
          {
            "astId": 9034,
            "contract": "contracts/IncentiveDistribution.sol:IncentiveDistribution",
            "label": "amount",
            "offset": 0,
            "slot": "2",
            "type": "t_uint256"
          }
        ],
        "numberOfBytes": "96"
      },
      "t_uint256": {
        "encoding": "inplace",
        "label": "uint256",
        "numberOfBytes": "32"
      },
      "t_uint8": {
        "encoding": "inplace",
        "label": "uint8",
        "numberOfBytes": "1"
      }
    }
  }
}