{
  "address": "0x872D834880aC1d812F5B0Bdd7f2067975f9c4317",
  "abi": [
    {
      "inputs": [
        {
          "internalType": "address",
          "name": "_roles",
          "type": "address"
        }
      ],
      "stateMutability": "nonpayable",
      "type": "constructor"
    },
    {
      "inputs": [
        {
          "internalType": "address",
          "name": "issuer",
          "type": "address"
        }
      ],
      "name": "activateIssuer",
      "outputs": [],
      "stateMutability": "nonpayable",
      "type": "function"
    },
    {
      "inputs": [
        {
          "internalType": "address",
          "name": "issuer",
          "type": "address"
        },
        {
          "internalType": "address",
          "name": "token",
          "type": "address"
        }
      ],
      "name": "activateIssuer",
      "outputs": [],
      "stateMutability": "nonpayable",
      "type": "function"
    },
    {
      "inputs": [
        {
          "internalType": "address",
          "name": "",
          "type": "address"
        }
      ],
      "name": "activeIssuers",
      "outputs": [
        {
          "internalType": "bool",
          "name": "",
          "type": "bool"
        }
      ],
      "stateMutability": "view",
      "type": "function"
    },
    {
      "inputs": [
        {
          "internalType": "uint256",
          "name": "balance",
          "type": "uint256"
        },
        {
          "internalType": "address",
          "name": "issuer",
          "type": "address"
        },
        {
          "internalType": "uint256",
          "name": "yieldQuotientFP",
          "type": "uint256"
        }
      ],
      "name": "applyBorrowInterest",
      "outputs": [
        {
          "internalType": "uint256",
          "name": "balanceWithInterest",
          "type": "uint256"
        },
        {
          "internalType": "uint256",
          "name": "accumulatorFP",
          "type": "uint256"
        }
      ],
      "stateMutability": "nonpayable",
      "type": "function"
    },
    {
      "inputs": [
        {
          "internalType": "address",
          "name": "",
          "type": "address"
        }
      ],
      "name": "borrowYieldAccumulators",
      "outputs": [
        {
          "internalType": "uint256",
          "name": "accumulatorFP",
          "type": "uint256"
        },
        {
          "internalType": "uint256",
          "name": "lastUpdated",
          "type": "uint256"
        },
        {
          "internalType": "uint256",
          "name": "hourlyYieldFP",
          "type": "uint256"
        }
      ],
      "stateMutability": "view",
      "type": "function"
    },
    {
      "inputs": [],
      "name": "borrowingFactorPercent",
      "outputs": [
        {
          "internalType": "uint256",
          "name": "",
          "type": "uint256"
        }
      ],
      "stateMutability": "view",
      "type": "function"
    },
    {
      "inputs": [
        {
          "internalType": "address",
          "name": "issuer",
          "type": "address"
        },
        {
          "internalType": "uint256",
          "name": "amount",
          "type": "uint256"
        }
      ],
      "name": "buyHourlyBondSubscription",
      "outputs": [],
      "stateMutability": "nonpayable",
      "type": "function"
    },
    {
      "inputs": [
        {
          "internalType": "address",
          "name": "issuer",
          "type": "address"
        }
      ],
      "name": "closeHourlyBondAccount",
      "outputs": [],
      "stateMutability": "nonpayable",
      "type": "function"
    },
    {
      "inputs": [
        {
          "internalType": "address",
          "name": "issuer",
          "type": "address"
        }
      ],
      "name": "deactivateIssuer",
      "outputs": [],
      "stateMutability": "nonpayable",
      "type": "function"
    },
    {
      "inputs": [
        {
          "internalType": "address",
          "name": "issuer",
          "type": "address"
        }
      ],
      "name": "getUpdatedBorrowYieldAccuFP",
      "outputs": [
        {
          "internalType": "uint256",
          "name": "",
          "type": "uint256"
        }
      ],
      "stateMutability": "nonpayable",
      "type": "function"
    },
    {
      "inputs": [
        {
          "internalType": "uint256",
          "name": "amount",
          "type": "uint256"
        }
      ],
      "name": "haircut",
      "outputs": [],
      "stateMutability": "nonpayable",
      "type": "function"
    },
    {
      "inputs": [
        {
          "internalType": "address",
          "name": "",
          "type": "address"
        }
      ],
      "name": "haircuts",
      "outputs": [
        {
          "internalType": "uint256",
          "name": "",
          "type": "uint256"
        }
      ],
      "stateMutability": "view",
      "type": "function"
    },
    {
      "inputs": [],
      "name": "highRatePerPercent",
      "outputs": [
        {
          "internalType": "uint256",
          "name": "",
          "type": "uint256"
        }
      ],
      "stateMutability": "view",
      "type": "function"
    },
    {
      "inputs": [
        {
          "internalType": "address",
          "name": "",
          "type": "address"
        },
        {
          "internalType": "address",
          "name": "",
          "type": "address"
        }
      ],
      "name": "hourlyBondAccounts",
      "outputs": [
        {
          "internalType": "uint256",
          "name": "amount",
          "type": "uint256"
        },
        {
          "internalType": "uint256",
          "name": "yieldQuotientFP",
          "type": "uint256"
        },
        {
          "internalType": "uint256",
          "name": "moduloHour",
          "type": "uint256"
        }
      ],
      "stateMutability": "view",
      "type": "function"
    },
    {
      "inputs": [
        {
          "internalType": "address",
          "name": "",
          "type": "address"
        }
      ],
      "name": "incentiveTranches",
      "outputs": [
        {
          "internalType": "uint256",
          "name": "",
          "type": "uint256"
        }
      ],
      "stateMutability": "view",
      "type": "function"
    },
    {
      "inputs": [
        {
          "internalType": "address",
          "name": "issuer",
          "type": "address"
        }
      ],
      "name": "initBorrowYieldAccumulator",
      "outputs": [],
      "stateMutability": "nonpayable",
      "type": "function"
    },
    {
      "inputs": [
        {
          "internalType": "address",
          "name": "",
          "type": "address"
        }
      ],
      "name": "issuerTokens",
      "outputs": [
        {
          "internalType": "address",
          "name": "",
          "type": "address"
        }
      ],
      "stateMutability": "view",
      "type": "function"
    },
    {
      "inputs": [
        {
          "internalType": "address",
          "name": "",
          "type": "address"
        }
      ],
      "name": "lendingMeta",
      "outputs": [
        {
          "internalType": "uint256",
          "name": "totalLending",
          "type": "uint256"
        },
        {
          "internalType": "uint256",
          "name": "totalBorrowed",
          "type": "uint256"
        },
        {
          "internalType": "uint256",
          "name": "lendingCap",
          "type": "uint256"
        }
      ],
      "stateMutability": "view",
      "type": "function"
    },
    {
      "inputs": [
        {
          "internalType": "uint256",
          "name": "",
          "type": "uint256"
        }
      ],
      "name": "mainCharacterCache",
      "outputs": [
        {
          "internalType": "address",
          "name": "",
          "type": "address"
        }
      ],
      "stateMutability": "view",
      "type": "function"
    },
    {
      "inputs": [],
      "name": "normalRatePerPercent",
      "outputs": [
        {
          "internalType": "uint256",
          "name": "",
          "type": "uint256"
        }
      ],
      "stateMutability": "view",
      "type": "function"
    },
    {
      "inputs": [
        {
          "internalType": "address",
          "name": "issuer",
          "type": "address"
        },
        {
          "internalType": "uint256",
          "name": "amount",
          "type": "uint256"
        }
      ],
      "name": "payOff",
      "outputs": [],
      "stateMutability": "nonpayable",
      "type": "function"
    },
    {
      "inputs": [
        {
          "internalType": "address",
          "name": "issuer",
          "type": "address"
        },
        {
          "internalType": "uint256",
          "name": "amount",
          "type": "uint256"
        }
      ],
      "name": "registerBorrow",
      "outputs": [],
      "stateMutability": "nonpayable",
      "type": "function"
    },
    {
      "inputs": [
        {
          "internalType": "address",
          "name": "",
          "type": "address"
        },
        {
          "internalType": "uint256",
          "name": "",
          "type": "uint256"
        }
      ],
      "name": "roleCache",
      "outputs": [
        {
          "internalType": "bool",
          "name": "",
          "type": "bool"
        }
      ],
      "stateMutability": "view",
      "type": "function"
    },
    {
      "inputs": [],
      "name": "roles",
      "outputs": [
        {
          "internalType": "contract Roles",
          "name": "",
          "type": "address"
        }
      ],
      "stateMutability": "view",
      "type": "function"
    },
    {
      "inputs": [
        {
          "internalType": "uint256",
          "name": "borrowingFactor",
          "type": "uint256"
        }
      ],
      "name": "setBorrowingFactorPercent",
      "outputs": [],
      "stateMutability": "nonpayable",
      "type": "function"
    },
    {
      "inputs": [
        {
          "internalType": "address",
          "name": "issuer",
          "type": "address"
        },
        {
          "internalType": "uint256",
          "name": "aprPercent",
          "type": "uint256"
        }
      ],
      "name": "setHourlyYieldAPR",
      "outputs": [],
      "stateMutability": "nonpayable",
      "type": "function"
    },
    {
      "inputs": [
        {
          "internalType": "address",
          "name": "token",
          "type": "address"
        },
        {
          "internalType": "uint8",
          "name": "tranche",
          "type": "uint8"
        }
      ],
      "name": "setIncentiveTranche",
      "outputs": [],
      "stateMutability": "nonpayable",
      "type": "function"
    },
    {
      "inputs": [
        {
          "internalType": "address",
          "name": "issuer",
          "type": "address"
        },
        {
          "internalType": "uint256",
          "name": "cap",
          "type": "uint256"
        }
      ],
      "name": "setLendingCap",
      "outputs": [],
      "stateMutability": "nonpayable",
      "type": "function"
    },
    {
      "inputs": [
        {
          "internalType": "uint256",
          "name": "window",
          "type": "uint256"
        }
      ],
      "name": "setWithdrawalWindow",
      "outputs": [],
      "stateMutability": "nonpayable",
      "type": "function"
    },
    {
      "inputs": [
        {
          "internalType": "address",
          "name": "issuer",
          "type": "address"
        }
      ],
      "name": "updateHourlyYield",
      "outputs": [
        {
          "internalType": "uint256",
          "name": "hourlyYield",
          "type": "uint256"
        }
      ],
      "stateMutability": "nonpayable",
      "type": "function"
    },
    {
      "inputs": [
        {
          "internalType": "uint256",
          "name": "role",
          "type": "uint256"
        }
      ],
      "name": "updateMainCharacterCache",
      "outputs": [],
      "stateMutability": "nonpayable",
      "type": "function"
    },
    {
      "inputs": [
        {
          "internalType": "uint256",
          "name": "role",
          "type": "uint256"
        },
        {
          "internalType": "address",
          "name": "contr",
          "type": "address"
        }
      ],
      "name": "updateRoleCache",
      "outputs": [],
      "stateMutability": "nonpayable",
      "type": "function"
    },
    {
      "inputs": [
        {
          "internalType": "address",
          "name": "issuer",
          "type": "address"
        }
      ],
      "name": "viewAccumulatedBorrowingYieldFP",
      "outputs": [
        {
          "internalType": "uint256",
          "name": "",
          "type": "uint256"
        }
      ],
      "stateMutability": "view",
      "type": "function"
    },
    {
      "inputs": [
        {
          "internalType": "address",
          "name": "issuer",
          "type": "address"
        }
      ],
      "name": "viewBorrowAPRPer10k",
      "outputs": [
        {
          "internalType": "uint256",
          "name": "",
          "type": "uint256"
        }
      ],
      "stateMutability": "view",
      "type": "function"
    },
    {
      "inputs": [
        {
          "internalType": "address",
          "name": "issuer",
          "type": "address"
        }
      ],
      "name": "viewHourlyBondAPRPer10k",
      "outputs": [
        {
          "internalType": "uint256",
          "name": "",
          "type": "uint256"
        }
      ],
      "stateMutability": "view",
      "type": "function"
    },
    {
      "inputs": [
        {
          "internalType": "address",
          "name": "issuer",
          "type": "address"
        },
        {
          "internalType": "address",
          "name": "holder",
          "type": "address"
        }
      ],
      "name": "viewHourlyBondAmount",
      "outputs": [
        {
          "internalType": "uint256",
          "name": "",
          "type": "uint256"
        }
      ],
      "stateMutability": "view",
      "type": "function"
    },
    {
      "inputs": [
        {
          "internalType": "uint256",
          "name": "balance",
          "type": "uint256"
        },
        {
          "internalType": "address",
          "name": "issuer",
          "type": "address"
        },
        {
          "internalType": "uint256",
          "name": "yieldQuotientFP",
          "type": "uint256"
        }
      ],
      "name": "viewWithBorrowInterest",
      "outputs": [
        {
          "internalType": "uint256",
          "name": "",
          "type": "uint256"
        }
      ],
      "stateMutability": "view",
      "type": "function"
    },
    {
      "inputs": [
        {
          "internalType": "address",
          "name": "issuer",
          "type": "address"
        },
        {
          "internalType": "uint256",
          "name": "amount",
          "type": "uint256"
        }
      ],
      "name": "withdrawHourlyBond",
      "outputs": [],
      "stateMutability": "nonpayable",
      "type": "function"
    },
    {
      "inputs": [],
      "name": "withdrawalWindow",
      "outputs": [
        {
          "internalType": "uint256",
          "name": "",
          "type": "uint256"
        }
      ],
      "stateMutability": "view",
      "type": "function"
    }
  ],
  "transactionHash": "0xd4703ecfd45794c899dec2ff455c0ff3778a8690cbe9024feaf27abd923a57ac",
  "args": [
    "0x4467f3D4ebB7D304F9d79D47F6a4a7d202CCD449"
  ],
  "solcInputHash": "41004261703ff8ccc17241cdf85539a8",
  "bytecode": "0x60a060405260466122386200001b640100000000600f6200017e565b6200002791906200015d565b6200003391906200015d565b6000556200004460466064620001a0565b61223862000059640100000000603c6200017e565b6200006591906200015d565b6200007191906200015d565b6001556104b060075560c86009553480156200008c57600080fd5b5060405162002b5c38038062002b5c833981016040819052620000af916200012d565b806001600160a01b038116620001165760405162461bcd60e51b815260206004820152602260248201527f506c656173652070726f766964652076616c696420726f6c6573206164647265604482015261737360f01b606482015260840160405180910390fd5b60601b6001600160601b03191660805250620001d0565b6000602082840312156200013f578081fd5b81516001600160a01b038116811462000156578182fd5b9392505050565b6000826200017957634e487b7160e01b81526012600452602481fd5b500490565b60008160001904831182151516156200019b576200019b620001ba565b500290565b600082821015620001b557620001b5620001ba565b500390565b634e487b7160e01b600052601160045260246000fd5b60805160601c6129516200020b600039600081816103b50152818161071501528181610c770152818161224101526122e601526129516000f3fe608060405234801561001057600080fd5b50600436106102ad5760003560e01c80637a0091351161017b578063d4437dd8116100d8578063ebe64bcc1161008c578063f51dfe7a11610071578063f51dfe7a146106ad578063f884614b146106c0578063f90889c9146106d3576102ad565b8063ebe64bcc14610687578063ee0862bf1461069a576102ad565b8063e695fa68116100bd578063e695fa6814610620578063e69e266214610648578063e9c3f77d14610651576102ad565b8063d4437dd8146105fa578063dc683bcf1461060d576102ad565b8063ad037af61161012f578063cd3b5dfb11610114578063cd3b5dfb146105af578063d19bd0a7146105de578063d2b48934146105e7576102ad565b8063ad037af61461056e578063cc4b26a31461059c576102ad565b806383a042291161016057806383a04229146104e65780638824cbba1461053b57806391b46e051461055b576102ad565b80637a009135146104a55780637a1a04df146104b8576102ad565b8063392f5f64116102295780636e60e249116101dd57806376668b67116101c257806376668b671461045657806376c308f214610469578063797384b214610472576102ad565b80636e60e2491461043057806372d0125714610443576102ad565b806346c87f801161020e57806346c87f80146103ea5780634b86daab146103fd57806364f85ab114610410576102ad565b8063392f5f64146103b0578063447d52ba146103d7576102ad565b8063267031b8116102805780632864f401116102655780632864f401146103775780632a6a897b1461038a578063369539121461039d576102ad565b8063267031b814610313578063281080261461031c576102ad565b8063071060a6146102b25780630f7c43dc146102c757806314189db2146102da57806316de7a4314610300575b600080fd5b6102c56102c036600461275b565b6106e6565b005b6102c56102d53660046126de565b6107f7565b6102ed6102e836600461266e565b61089c565b6040519081526020015b60405180910390f35b6102c561030e3660046126de565b6108d2565b6102ed60095481565b61035261032a36600461266e565b600b6020526000908152604090205473ffffffffffffffffffffffffffffffffffffffff1681565b60405173ffffffffffffffffffffffffffffffffffffffff90911681526020016102f7565b6102c5610385366004612709565b61098b565b6102c56103983660046126de565b610ab3565b6102c56103ab36600461275b565b610b79565b6103527f000000000000000000000000000000000000000000000000000000000000000081565b6102c56103e5366004612773565b610c2b565b6102ed6103f836600461266e565b610d54565b6102c561040b36600461266e565b610d89565b6102ed61041e36600461266e565b600c6020526000908152604090205481565b6102ed61043e3660046126a6565b610d96565b6102ed61045136600461266e565b610e1d565b6102ed610464366004612797565b610e4b565b6102ed60005481565b61049561048036600461266e565b600d6020526000908152604090205460ff1681565b60405190151581526020016102f7565b6102c56104b336600461266e565b610e92565b6104956104c63660046126de565b600560209081526000928352604080842090915290825290205460ff1681565b6105206104f43660046126a6565b600860209081526000928352604080842090915290825290208054600182015460029092015490919083565b604080519384526020840192909252908201526060016102f7565b6102ed61054936600461266e565b600a6020526000908152604090205481565b6102c561056936600461275b565b610fd7565b61052061057c36600461266e565b600260208190526000918252604090912080546001820154919092015483565b6102c56105aa36600461266e565b611089565b6105206105bd36600461266e565b60036020526000908152604090208054600182015460029092015490919083565b6102ed60075481565b6102c56105f53660046126de565b611244565b6102c561060836600461275b565b61136a565b6102ed61061b36600461266e565b611391565b61063361062e366004612797565b6113cb565b604080519283526020830191909152016102f7565b6102ed60015481565b61035261065f36600461275b565b60046020526000908152604090205473ffffffffffffffffffffffffffffffffffffffff1681565b6102c56106953660046126a6565b6114ed565b6102c56106a83660046126de565b61166e565b6102ed6106bb36600461266e565b611830565b6102c56106ce36600461266e565b61185e565b6102c56106e13660046126de565b6118fc565b6040517fb4ed0b6d000000000000000000000000000000000000000000000000000000008152600481018290527f000000000000000000000000000000000000000000000000000000000000000073ffffffffffffffffffffffffffffffffffffffff169063b4ed0b6d9060240160206040518083038186803b15801561076c57600080fd5b505afa158015610780573d6000803e3d6000fd5b505050506040513d601f19601f820116820180604052508101906107a4919061268a565b60009182526004602052604090912080547fffffffffffffffffffffffff00000000000000000000000000000000000000001673ffffffffffffffffffffffffffffffffffffffff909216919091179055565b73ffffffffffffffffffffffffffffffffffffffff8216600090815260086020908152604080832033845290915290206108318382611b03565b61083c838284611baa565b80546108815773ffffffffffffffffffffffffffffffffffffffff83166000908152600860209081526040808320338452909152812081815560018101829055600201555b61088c833384611cb6565b610897338484611e8e565b505050565b73ffffffffffffffffffffffffffffffffffffffff811660009081526003602052604081206108cb8142611f93565b9392505050565b73ffffffffffffffffffffffffffffffffffffffff82166000908152600d602052604090205460ff16610966576040517f08c379a000000000000000000000000000000000000000000000000000000000815260206004820152601360248201527f4e6f7420617070726f766564206973737565720000000000000000000000000060448201526064015b60405180910390fd5b610971823383611fcd565b61097c8233836120a6565b610987338383612179565b5050565b3361099461223d565b73ffffffffffffffffffffffffffffffffffffffff1614806109d25750336109ba6122e2565b73ffffffffffffffffffffffffffffffffffffffff16145b806109f857503360009081526005602090815260408083206009845290915290205460ff165b610a84576040517f08c379a000000000000000000000000000000000000000000000000000000000815260206004820152603960248201527f43616c6c6572206973206e6f7420746865206f776e65722c206578656375746f60448201527f72206f7220617574686f72697a656420616374697661746f7200000000000000606482015260840161095d565b73ffffffffffffffffffffffffffffffffffffffff9091166000908152600a6020526040902060ff9091169055565b3360009081526005602090815260408083206003845290915290205460ff16610b38576040517f08c379a000000000000000000000000000000000000000000000000000000000815260206004820152601560248201527f4e6f7420617070726f76656420626f72726f7765720000000000000000000000604482015260640161095d565b73ffffffffffffffffffffffffffffffffffffffff821660009081526002602052604081206001018054839290610b70908490612837565b90915550505050565b33610b8261223d565b73ffffffffffffffffffffffffffffffffffffffff161480610bc0575033610ba86122e2565b73ffffffffffffffffffffffffffffffffffffffff16145b610c26576040517f08c379a000000000000000000000000000000000000000000000000000000000815260206004820152601e60248201527f526f6c65733a2063616c6c6572206973206e6f7420746865206f776e65720000604482015260640161095d565b600755565b6040517f93552a3d0000000000000000000000000000000000000000000000000000000081526004810183905273ffffffffffffffffffffffffffffffffffffffff82811660248301527f000000000000000000000000000000000000000000000000000000000000000016906393552a3d9060440160206040518083038186803b158015610cb957600080fd5b505afa158015610ccd573d6000803e3d6000fd5b505050506040513d601f19601f82011682018060405250810190610cf1919061273b565b73ffffffffffffffffffffffffffffffffffffffff9190911660009081526005602090815260408083209483529390529190912080547fffffffffffffffffffffffffffffffffffffffffffffffffffffffffffffff0016911515919091179055565b73ffffffffffffffffffffffffffffffffffffffff81166000908152600360205260408120610d8281612360565b5492915050565b610d9381826114ed565b50565b73ffffffffffffffffffffffffffffffffffffffff8083166000818152600860209081526040808320948616835293815283822060018101549383526006909152928120909291908390610dea9042611f93565b90508115610e09578254610dff908284612394565b9350505050610e17565b5050549050610e17565b5050505b92915050565b73ffffffffffffffffffffffffffffffffffffffff81166000908152600660205260408120610e17906123b3565b73ffffffffffffffffffffffffffffffffffffffff821660009081526003602052604081208190610e7c9042611f93565b9050610e89858285612394565b95945050505050565b33610e9b61223d565b73ffffffffffffffffffffffffffffffffffffffff161480610ed9575033610ec16122e2565b73ffffffffffffffffffffffffffffffffffffffff16145b80610eff57503360009081526005602090815260408083206009845290915290205460ff165b610f8b576040517f08c379a000000000000000000000000000000000000000000000000000000000815260206004820152603960248201527f43616c6c6572206973206e6f7420746865206f776e65722c206578656375746f60448201527f72206f7220617574686f72697a656420616374697661746f7200000000000000606482015260840161095d565b73ffffffffffffffffffffffffffffffffffffffff166000908152600d6020526040902080547fffffffffffffffffffffffffffffffffffffffffffffffffffffffffffffff00169055565b33610fe061223d565b73ffffffffffffffffffffffffffffffffffffffff16148061101e5750336110066122e2565b73ffffffffffffffffffffffffffffffffffffffff16145b611084576040517f08c379a000000000000000000000000000000000000000000000000000000000815260206004820152601e60248201527f526f6c65733a2063616c6c6572206973206e6f7420746865206f776e65720000604482015260640161095d565b600955565b3361109261223d565b73ffffffffffffffffffffffffffffffffffffffff1614806110d05750336110b86122e2565b73ffffffffffffffffffffffffffffffffffffffff16145b806110f657503360009081526005602090815260408083206009845290915290205460ff165b611182576040517f08c379a000000000000000000000000000000000000000000000000000000000815260206004820152603960248201527f43616c6c6572206973206e6f7420746865206f776e65722c206578656375746f60448201527f72206f7220617574686f72697a656420616374697661746f7200000000000000606482015260840161095d565b73ffffffffffffffffffffffffffffffffffffffff81166000908152600360205260409020805415611210576040517f08c379a000000000000000000000000000000000000000000000000000000000815260206004820152601360248201527f646f6e27742072652d696e697469616c697a6500000000000000000000000000604482015260640161095d565b64010000000080825542600183015561122c90612238906127e6565b61123b906401000000006127ce565b60029091015550565b3361124d61223d565b73ffffffffffffffffffffffffffffffffffffffff16148061128b5750336112736122e2565b73ffffffffffffffffffffffffffffffffffffffff16145b806112b157503360009081526005602090815260408083206009845290915290205460ff165b61133d576040517f08c379a000000000000000000000000000000000000000000000000000000000815260206004820152603960248201527f43616c6c6572206973206e6f7420746865206f776e65722c206578656375746f60448201527f72206f7220617574686f72697a656420616374697661746f7200000000000000606482015260840161095d565b73ffffffffffffffffffffffffffffffffffffffff90911660009081526002602081905260409091200155565b336000908152600c6020526040812080548392906113899084906127ce565b909155505050565b73ffffffffffffffffffffffffffffffffffffffff811660009081526006602052604081206113c190839061240f565b6002015492915050565b33600090815260056020908152604080832060038452909152812054819060ff16611452576040517f08c379a000000000000000000000000000000000000000000000000000000000815260206004820152601160248201527f4e6f7420617070726f7665642063616c6c000000000000000000000000000000604482015260640161095d565b73ffffffffffffffffffffffffffffffffffffffff8416600090815260036020526040902061148081612360565b8054915061148f868386612394565b9250600061149d8785612837565b73ffffffffffffffffffffffffffffffffffffffff8716600090815260026020526040812060018101805493945090928492906114db9084906127ce565b92505081905550505050935093915050565b336114f661223d565b73ffffffffffffffffffffffffffffffffffffffff16148061153457503361151c6122e2565b73ffffffffffffffffffffffffffffffffffffffff16145b8061155a57503360009081526005602090815260408083206009845290915290205460ff165b6115e6576040517f08c379a000000000000000000000000000000000000000000000000000000000815260206004820152603960248201527f43616c6c6572206973206e6f7420746865206f776e65722c206578656375746f60448201527f72206f7220617574686f72697a656420616374697661746f7200000000000000606482015260840161095d565b73ffffffffffffffffffffffffffffffffffffffff9182166000908152600d6020908152604080832080547fffffffffffffffffffffffffffffffffffffffffffffffffffffffffffffff00166001179055600b90915290208054919092167fffffffffffffffffffffffff0000000000000000000000000000000000000000909116179055565b3360009081526005602090815260408083206003845290915290205460ff166116f3576040517f08c379a000000000000000000000000000000000000000000000000000000000815260206004820152601560248201527f4e6f7420617070726f76656420626f72726f7765720000000000000000000000604482015260640161095d565b73ffffffffffffffffffffffffffffffffffffffff82166000908152600d602052604090205460ff16611782576040517f08c379a000000000000000000000000000000000000000000000000000000000815260206004820152601360248201527f4e6f7420617070726f7665642069737375657200000000000000000000000000604482015260640161095d565b73ffffffffffffffffffffffffffffffffffffffff82166000908152600260205260408120600181018054919284926117bc9084906127ce565b9091555050600181015481541015610897576040517f08c379a000000000000000000000000000000000000000000000000000000000815260206004820152601460248201527f496e73756666696369656e74206c656e64696e67000000000000000000000000604482015260640161095d565b73ffffffffffffffffffffffffffffffffffffffff81166000908152600360205260408120610e17906123b3565b73ffffffffffffffffffffffffffffffffffffffff8116600090815260086020908152604080832033845290915290206118988282611b03565b80546118a5838383611baa565b6118b0833383611cb6565b73ffffffffffffffffffffffffffffffffffffffff8316600090815260086020908152604080832033808552925282208281556001810183905560020191909155610897908483611e8e565b3361190561223d565b73ffffffffffffffffffffffffffffffffffffffff16148061194357503361192b6122e2565b73ffffffffffffffffffffffffffffffffffffffff16145b8061196957503360009081526005602090815260408083206009845290915290205460ff165b6119f5576040517f08c379a000000000000000000000000000000000000000000000000000000000815260206004820152603960248201527f43616c6c6572206973206e6f7420746865206f776e65722c206578656375746f60448201527f72206f7220617574686f72697a656420616374697661746f7200000000000000606482015260840161095d565b73ffffffffffffffffffffffffffffffffffffffff821660009081526006602052604090208054611ab85760006122386064611a36856401000000006127fa565b611a4091906127e6565b611a4a91906127e6565b611a59906401000000006127ce565b60408051606081018252640100000000815242602080830191825282840194855273ffffffffffffffffffffffffffffffffffffffff891660009081526006909152929092209051815590516001820155905160029091015550610897565b6000611ac4848361240f565b90506122386064611ad585826127ce565b611ae4906401000000006127fa565b611aee91906127e6565b611af891906127e6565b600290910155505050565b600181015480156108975773ffffffffffffffffffffffffffffffffffffffff83166000908152600660205260408120611b3e90859061240f565b8354815491925090611b5290829085612394565b808555600090611b63908390612837565b73ffffffffffffffffffffffffffffffffffffffff8716600090815260026020526040812080549293508392909190611b9d9084906127ce565b9091555050505050505050565b6000610e10836002015442611bbf9190612837565b611bc99190612887565b9050806007541015611c5d576040517f08c379a000000000000000000000000000000000000000000000000000000000815260206004820152603f60248201527f5472696564207769746864726177696e67206f7574736964652073756273637260448201527f697074696f6e2063616e63656c6c6174696f6e2074696d652077696e646f7700606482015260840161095d565b81836000016000828254611c719190612837565b909155505073ffffffffffffffffffffffffffffffffffffffff841660009081526002602052604081208054849290611cab908490612837565b909155505050505050565b73ffffffffffffffffffffffffffffffffffffffff83166000908152600c60205260409020548015801590611ceb5750600082115b15611d845773ffffffffffffffffffffffffffffffffffffffff84166000908152600260205260408120549081611d22818561251a565b611d2c90866127fa565b611d3691906127e6565b9050611d428185612837565b73ffffffffffffffffffffffffffffffffffffffff87166000908152600c6020526040812080549296508392909190611d7c908490612837565b909155505050505b73ffffffffffffffffffffffffffffffffffffffff8085166000908152600b602052604090205416611df4606560005260046020527ffe4d1297c5434445a55041cf44037c0799556cc55064da684dc6eed1a5dccabf5473ffffffffffffffffffffffffffffffffffffffff1690565b6040517fd9caed1200000000000000000000000000000000000000000000000000000000815273ffffffffffffffffffffffffffffffffffffffff8381166004830152868116602483015260448201869052919091169063d9caed12906064015b600060405180830381600087803b158015611e6f57600080fd5b505af1158015611e83573d6000803e3d6000fd5b505050505050505050565b73ffffffffffffffffffffffffffffffffffffffff82166000908152600a6020526040902054611efc606c60005260046020527f8b685361ee213407f41a019b5dbc17edecc44c9f276819680a1bcb10c2f13bb85473ffffffffffffffffffffffffffffffffffffffff1690565b6040517fc6c9faa10000000000000000000000000000000000000000000000000000000081526004810183905273ffffffffffffffffffffffffffffffffffffffff868116602483015260448201859052919091169063c6c9faa190606401600060405180830381600087803b158015611f7557600080fd5b505af1158015611f89573d6000803e3d6000fd5b5050505050505050565b600080836001015483611fa69190612837565b90506104b0811115611fc457611fbc8482612532565b915050610e17565b50508154610e17565b606560005260046020527ffe4d1297c5434445a55041cf44037c0799556cc55064da684dc6eed1a5dccabf5473ffffffffffffffffffffffffffffffffffffffff166040517fb3db428b00000000000000000000000000000000000000000000000000000000815273ffffffffffffffffffffffffffffffffffffffff8481166004830152858116602483015260448201849052919091169063b3db428b90606401600060405180830381600087803b15801561208957600080fd5b505af115801561209d573d6000803e3d6000fd5b50505050505050565b73ffffffffffffffffffffffffffffffffffffffff80841660009081526008602090815260408083209386168352929052206120e28482611b03565b73ffffffffffffffffffffffffffffffffffffffff841660009081526006602052604090208054600183015561211a610e1042612887565b60028301558154839083906000906121339084906127ce565b909155505073ffffffffffffffffffffffffffffffffffffffff85166000908152600260205260408120805485929061216d9084906127ce565b90915550505050505050565b60006121c3606c60005260046020527f8b685361ee213407f41a019b5dbc17edecc44c9f276819680a1bcb10c2f13bb85473ffffffffffffffffffffffffffffffffffffffff1690565b73ffffffffffffffffffffffffffffffffffffffff8481166000908152600a6020526040908190205490517f2b5de286000000000000000000000000000000000000000000000000000000008152600481018290528783166024820152604481018690529293509190831690632b5de28690606401611e55565b60007f000000000000000000000000000000000000000000000000000000000000000073ffffffffffffffffffffffffffffffffffffffff16638da5cb5b6040518163ffffffff1660e01b815260040160206040518083038186803b1580156122a557600080fd5b505afa1580156122b9573d6000803e3d6000fd5b505050506040513d601f19601f820116820180604052508101906122dd919061268a565b905090565b60007f000000000000000000000000000000000000000000000000000000000000000073ffffffffffffffffffffffffffffffffffffffff1663c34c08e56040518163ffffffff1660e01b8152600401602060405180830381600087803b15801561234c57600080fd5b505af11580156122b9573d6000803e3d6000fd5b60008160010154426123729190612837565b90506104b0811115610987576123888282612532565b82554260018301555050565b6000816123a184866127fa565b6123ab91906127e6565b949350505050565b600281015460009081610e106123d06401000000006127106127fa565b6123dc846127106127fa565b6123e69190612837565b6123f4906301e133806127fa565b6123fe91906127e6565b90506123ab640100000000826127e6565b6001810154600090816124228242612837565b73ffffffffffffffffffffffffffffffffffffffff861660009081526003602052604090209091506104b08211156124a35761245e8583612532565b855573ffffffffffffffffffffffffffffffffffffffff861660009081526002602052604090208054600182015461249691906125f5565b6002870155504260018601555b6124ac81612360565b61250a61223860646124c464010000000060066127fa565b6124ce91906127e6565b6124d891906127e6565b6124e7906401000000006127ce565b606487600201546009546124fb91906127fa565b61250591906127e6565b612656565b6002919091015550919392505050565b60008183111561252b575080610e17565b5081610e17565b600080612541610e1084612887565b9050612554640100000000610e106127fa565b81640100000000866002015461256a9190612837565b865461257691906127fa565b61258091906127fa565b61258a91906127e6565b845461259691906127ce565b915060006125a6610e10856127e6565b905080156125ed5760005b80821115610e13576401000000008660020154856125cf91906127fa565b6125d991906127e6565b9350806125e58161284e565b9150506125b1565b505092915050565b600080836126048460646127fa565b61260e91906127e6565b9050604681101561262657600054611fbc90826127fa565b600154612634604683612837565b61263e91906127fa565b60005461264c9060466127fa565b611fbc91906127ce565b600081831115612667575081610e17565b5080610e17565b60006020828403121561267f578081fd5b81356108cb816128f9565b60006020828403121561269b578081fd5b81516108cb816128f9565b600080604083850312156126b8578081fd5b82356126c3816128f9565b915060208301356126d3816128f9565b809150509250929050565b600080604083850312156126f0578182fd5b82356126fb816128f9565b946020939093013593505050565b6000806040838503121561271b578182fd5b8235612726816128f9565b9150602083013560ff811681146126d3578182fd5b60006020828403121561274c578081fd5b815180151581146108cb578182fd5b60006020828403121561276c578081fd5b5035919050565b60008060408385031215612785578182fd5b8235915060208301356126d3816128f9565b6000806000606084860312156127ab578081fd5b8335925060208401356127bd816128f9565b929592945050506040919091013590565b600082198211156127e1576127e161289b565b500190565b6000826127f5576127f56128ca565b500490565b6000817fffffffffffffffffffffffffffffffffffffffffffffffffffffffffffffffff04831182151516156128325761283261289b565b500290565b6000828210156128495761284961289b565b500390565b60007fffffffffffffffffffffffffffffffffffffffffffffffffffffffffffffffff8214156128805761288061289b565b5060010190565b600082612896576128966128ca565b500690565b7f4e487b7100000000000000000000000000000000000000000000000000000000600052601160045260246000fd5b7f4e487b7100000000000000000000000000000000000000000000000000000000600052601260045260246000fd5b73ffffffffffffffffffffffffffffffffffffffff81168114610d9357600080fdfea264697066735822122097c0cc6ba2fb82c9b6febfab712eb64f4aa5b93b1731ceaacbb2300077be4f9564736f6c63430008030033",
  "devdoc": {
    "kind": "dev",
    "methods": {
      "applyBorrowInterest(uint256,address,uint256)": {
        "details": "how much interest has accrued to a borrowed balance over time"
      },
      "buyHourlyBondSubscription(address,uint256)": {
        "details": "buy hourly bond subscription"
      },
      "payOff(address,uint256)": {
        "details": "gets called by router if loan is extinguished"
      },
      "registerBorrow(address,uint256)": {
        "details": "gets called by router to register if a trader borrows issuers"
      },
      "updateHourlyYield(address)": {
        "details": "updates yield accumulators for both borrowing and lending issuer address represents a token"
      },
      "viewAccumulatedBorrowingYieldFP(address)": {
        "details": "get the borrow yield for a specific issuer/token"
      },
      "viewBorrowAPRPer10k(address)": {
        "details": "get current borrowing interest per 10k for a token / issuer"
      },
      "viewHourlyBondAPRPer10k(address)": {
        "details": "get current lending APR per 10k for a token / issuer"
      },
      "viewWithBorrowInterest(uint256,address,uint256)": {
        "details": "view function to get balance with borrowing interest applied"
      },
      "withdrawHourlyBond(address,uint256)": {
        "details": "withdraw an hour bond"
      }
    },
    "title": "Manage lending for a variety of bond issuers",
    "version": 1
  },
  "userdoc": {
    "kind": "user",
    "methods": {
      "activateIssuer(address)": {
        "notice": "Make a issuer available for protocol"
      },
      "activateIssuer(address,address)": {
        "notice": "Make issuer != token available for protocol (isol. margin)"
      },
      "activeIssuers(address)": {
        "notice": "map of available issuers"
      },
      "closeHourlyBondAccount(address)": {
        "notice": "Shut down hourly bond account for `issuer`"
      },
      "deactivateIssuer(address)": {
        "notice": "Remove a issuer from trading availability"
      },
      "haircuts(address)": {
        "notice": "In case of shortfall, adjust debt"
      },
      "issuerTokens(address)": {
        "notice": "mapping issuers to tokens (in crossmargin, the issuers are tokens  themselves)"
      },
      "setHourlyYieldAPR(address,uint256)": {
        "notice": "Set hourly yield APR for issuer"
      },
      "setIncentiveTranche(address,uint8)": {
        "notice": "Set incentive tranche"
      },
      "setLendingCap(address,uint256)": {
        "notice": "Set lending cap"
      },
      "setWithdrawalWindow(uint256)": {
        "notice": "Set withdrawal window"
      }
    },
    "version": 1
  },
  "storageLayout": {
    "storage": [
      {
        "astId": 1708,
        "contract": "contracts/Lending.sol:Lending",
        "label": "normalRatePerPercent",
        "offset": 0,
        "slot": "0",
        "type": "t_uint256"
      },
      {
        "astId": 1724,
        "contract": "contracts/Lending.sol:Lending",
        "label": "highRatePerPercent",
        "offset": 0,
        "slot": "1",
        "type": "t_uint256"
      },
      {
        "astId": 1743,
        "contract": "contracts/Lending.sol:Lending",
        "label": "lendingMeta",
        "offset": 0,
        "slot": "2",
        "type": "t_mapping(t_address,t_struct(LendingMetadata)1738_storage)"
      },
      {
        "astId": 1749,
        "contract": "contracts/Lending.sol:Lending",
        "label": "borrowYieldAccumulators",
        "offset": 0,
        "slot": "3",
        "type": "t_mapping(t_address,t_struct(YieldAccumulator)1731_storage)"
      },
      {
        "astId": 10275,
        "contract": "contracts/Lending.sol:Lending",
        "label": "mainCharacterCache",
        "offset": 0,
        "slot": "4",
        "type": "t_mapping(t_uint256,t_address)"
      },
      {
        "astId": 10281,
        "contract": "contracts/Lending.sol:Lending",
        "label": "roleCache",
        "offset": 0,
        "slot": "5",
        "type": "t_mapping(t_address,t_mapping(t_uint256,t_bool))"
      },
      {
        "astId": 5513,
        "contract": "contracts/Lending.sol:Lending",
        "label": "hourlyBondYieldAccumulators",
        "offset": 0,
        "slot": "6",
        "type": "t_mapping(t_address,t_struct(YieldAccumulator)1731_storage)"
      },
      {
        "astId": 5519,
        "contract": "contracts/Lending.sol:Lending",
        "label": "withdrawalWindow",
        "offset": 0,
        "slot": "7",
        "type": "t_uint256"
      },
      {
        "astId": 5526,
        "contract": "contracts/Lending.sol:Lending",
        "label": "hourlyBondAccounts",
        "offset": 0,
        "slot": "8",
        "type": "t_mapping(t_address,t_mapping(t_address,t_struct(HourlyBond)5505_storage))"
      },
      {
        "astId": 5529,
        "contract": "contracts/Lending.sol:Lending",
        "label": "borrowingFactorPercent",
        "offset": 0,
        "slot": "9",
        "type": "t_uint256"
      },
      {
        "astId": 6216,
        "contract": "contracts/Lending.sol:Lending",
        "label": "incentiveTranches",
        "offset": 0,
        "slot": "10",
        "type": "t_mapping(t_address,t_uint256)"
      },
      {
        "astId": 7430,
        "contract": "contracts/Lending.sol:Lending",
        "label": "issuerTokens",
        "offset": 0,
        "slot": "11",
        "type": "t_mapping(t_address,t_address)"
      },
      {
        "astId": 7435,
        "contract": "contracts/Lending.sol:Lending",
        "label": "haircuts",
        "offset": 0,
        "slot": "12",
        "type": "t_mapping(t_address,t_uint256)"
      },
      {
        "astId": 7440,
        "contract": "contracts/Lending.sol:Lending",
        "label": "activeIssuers",
        "offset": 0,
        "slot": "13",
        "type": "t_mapping(t_address,t_bool)"
      }
    ],
    "types": {
      "t_address": {
        "encoding": "inplace",
        "label": "address",
        "numberOfBytes": "20"
      },
      "t_bool": {
        "encoding": "inplace",
        "label": "bool",
        "numberOfBytes": "1"
      },
      "t_mapping(t_address,t_address)": {
        "encoding": "mapping",
        "key": "t_address",
        "label": "mapping(address => address)",
        "numberOfBytes": "32",
        "value": "t_address"
      },
      "t_mapping(t_address,t_bool)": {
        "encoding": "mapping",
        "key": "t_address",
        "label": "mapping(address => bool)",
        "numberOfBytes": "32",
        "value": "t_bool"
      },
      "t_mapping(t_address,t_mapping(t_address,t_struct(HourlyBond)5505_storage))": {
        "encoding": "mapping",
        "key": "t_address",
        "label": "mapping(address => mapping(address => struct HourlyBond))",
        "numberOfBytes": "32",
        "value": "t_mapping(t_address,t_struct(HourlyBond)5505_storage)"
      },
      "t_mapping(t_address,t_mapping(t_uint256,t_bool))": {
        "encoding": "mapping",
        "key": "t_address",
        "label": "mapping(address => mapping(uint256 => bool))",
        "numberOfBytes": "32",
        "value": "t_mapping(t_uint256,t_bool)"
      },
      "t_mapping(t_address,t_struct(HourlyBond)5505_storage)": {
        "encoding": "mapping",
        "key": "t_address",
        "label": "mapping(address => struct HourlyBond)",
        "numberOfBytes": "32",
        "value": "t_struct(HourlyBond)5505_storage"
      },
      "t_mapping(t_address,t_struct(LendingMetadata)1738_storage)": {
        "encoding": "mapping",
        "key": "t_address",
        "label": "mapping(address => struct BaseLending.LendingMetadata)",
        "numberOfBytes": "32",
        "value": "t_struct(LendingMetadata)1738_storage"
      },
      "t_mapping(t_address,t_struct(YieldAccumulator)1731_storage)": {
        "encoding": "mapping",
        "key": "t_address",
        "label": "mapping(address => struct BaseLending.YieldAccumulator)",
        "numberOfBytes": "32",
        "value": "t_struct(YieldAccumulator)1731_storage"
      },
      "t_mapping(t_address,t_uint256)": {
        "encoding": "mapping",
        "key": "t_address",
        "label": "mapping(address => uint256)",
        "numberOfBytes": "32",
        "value": "t_uint256"
      },
      "t_mapping(t_uint256,t_address)": {
        "encoding": "mapping",
        "key": "t_uint256",
        "label": "mapping(uint256 => address)",
        "numberOfBytes": "32",
        "value": "t_address"
      },
      "t_mapping(t_uint256,t_bool)": {
        "encoding": "mapping",
        "key": "t_uint256",
        "label": "mapping(uint256 => bool)",
        "numberOfBytes": "32",
        "value": "t_bool"
      },
      "t_struct(HourlyBond)5505_storage": {
        "encoding": "inplace",
        "label": "struct HourlyBond",
        "members": [
          {
            "astId": 5500,
            "contract": "contracts/Lending.sol:Lending",
            "label": "amount",
            "offset": 0,
            "slot": "0",
            "type": "t_uint256"
          },
          {
            "astId": 5502,
            "contract": "contracts/Lending.sol:Lending",
            "label": "yieldQuotientFP",
            "offset": 0,
            "slot": "1",
            "type": "t_uint256"
          },
          {
            "astId": 5504,
            "contract": "contracts/Lending.sol:Lending",
            "label": "moduloHour",
            "offset": 0,
            "slot": "2",
            "type": "t_uint256"
          }
        ],
        "numberOfBytes": "96"
      },
      "t_struct(LendingMetadata)1738_storage": {
        "encoding": "inplace",
        "label": "struct BaseLending.LendingMetadata",
        "members": [
          {
            "astId": 1733,
            "contract": "contracts/Lending.sol:Lending",
            "label": "totalLending",
            "offset": 0,
            "slot": "0",
            "type": "t_uint256"
          },
          {
            "astId": 1735,
            "contract": "contracts/Lending.sol:Lending",
            "label": "totalBorrowed",
            "offset": 0,
            "slot": "1",
            "type": "t_uint256"
          },
          {
            "astId": 1737,
            "contract": "contracts/Lending.sol:Lending",
            "label": "lendingCap",
            "offset": 0,
            "slot": "2",
            "type": "t_uint256"
          }
        ],
        "numberOfBytes": "96"
      },
      "t_struct(YieldAccumulator)1731_storage": {
        "encoding": "inplace",
        "label": "struct BaseLending.YieldAccumulator",
        "members": [
          {
            "astId": 1726,
            "contract": "contracts/Lending.sol:Lending",
            "label": "accumulatorFP",
            "offset": 0,
            "slot": "0",
            "type": "t_uint256"
          },
          {
            "astId": 1728,
            "contract": "contracts/Lending.sol:Lending",
            "label": "lastUpdated",
            "offset": 0,
            "slot": "1",
            "type": "t_uint256"
          },
          {
            "astId": 1730,
            "contract": "contracts/Lending.sol:Lending",
            "label": "hourlyYieldFP",
            "offset": 0,
            "slot": "2",
            "type": "t_uint256"
          }
        ],
        "numberOfBytes": "96"
      },
      "t_uint256": {
        "encoding": "inplace",
        "label": "uint256",
        "numberOfBytes": "32"
      }
    }
  }
}