{
  "address": "0x475a947524fB28E47cC9413F6A0e9198554Bd7eF",
  "abi": [
    {
      "inputs": [
        {
          "internalType": "address",
          "name": "_roles",
          "type": "address"
        }
      ],
      "stateMutability": "nonpayable",
      "type": "constructor"
    },
    {
      "anonymous": false,
      "inputs": [
        {
          "indexed": true,
          "internalType": "address",
          "name": "token",
          "type": "address"
        },
        {
          "indexed": true,
          "internalType": "address",
          "name": "holder",
          "type": "address"
        },
        {
          "indexed": false,
          "internalType": "uint256",
          "name": "value",
          "type": "uint256"
        }
      ],
      "name": "LiquidityWarning",
      "type": "event"
    },
    {
      "anonymous": false,
      "inputs": [
        {
          "indexed": true,
          "internalType": "address",
          "name": "previousOwner",
          "type": "address"
        },
        {
          "indexed": true,
          "internalType": "address",
          "name": "newOwner",
          "type": "address"
        }
      ],
      "name": "OwnershipTransferred",
      "type": "event"
    },
    {
      "inputs": [],
      "name": "ADMIN",
      "outputs": [
        {
          "internalType": "uint16",
          "name": "",
          "type": "uint16"
        }
      ],
      "stateMutability": "view",
      "type": "function"
    },
    {
      "inputs": [],
      "name": "AUTHORIZED_FUND_TRADER",
      "outputs": [
        {
          "internalType": "uint16",
          "name": "",
          "type": "uint16"
        }
      ],
      "stateMutability": "view",
      "type": "function"
    },
    {
      "inputs": [],
      "name": "BORROWER",
      "outputs": [
        {
          "internalType": "uint16",
          "name": "",
          "type": "uint16"
        }
      ],
      "stateMutability": "view",
      "type": "function"
    },
    {
      "inputs": [],
      "name": "FEE_CONTROLLER",
      "outputs": [
        {
          "internalType": "uint16",
          "name": "",
          "type": "uint16"
        }
      ],
      "stateMutability": "view",
      "type": "function"
    },
    {
      "inputs": [],
      "name": "FEE_SOURCE",
      "outputs": [
        {
          "internalType": "uint16",
          "name": "",
          "type": "uint16"
        }
      ],
      "stateMutability": "view",
      "type": "function"
    },
    {
      "inputs": [],
      "name": "FUND",
      "outputs": [
        {
          "internalType": "uint16",
          "name": "",
          "type": "uint16"
        }
      ],
      "stateMutability": "view",
      "type": "function"
    },
    {
      "inputs": [],
      "name": "INCENTIVE_DISTRIBUTION",
      "outputs": [
        {
          "internalType": "uint16",
          "name": "",
          "type": "uint16"
        }
      ],
      "stateMutability": "view",
      "type": "function"
    },
    {
      "inputs": [],
      "name": "INCENTIVE_REPORTER",
      "outputs": [
        {
          "internalType": "uint16",
          "name": "",
          "type": "uint16"
        }
      ],
      "stateMutability": "view",
      "type": "function"
    },
    {
      "inputs": [],
      "name": "LENDING",
      "outputs": [
        {
          "internalType": "uint16",
          "name": "",
          "type": "uint16"
        }
      ],
      "stateMutability": "view",
      "type": "function"
    },
    {
      "inputs": [],
      "name": "LIQUIDATOR",
      "outputs": [
        {
          "internalType": "uint16",
          "name": "",
          "type": "uint16"
        }
      ],
      "stateMutability": "view",
      "type": "function"
    },
    {
      "inputs": [],
      "name": "MARGIN_CALLER",
      "outputs": [
        {
          "internalType": "uint16",
          "name": "",
          "type": "uint16"
        }
      ],
      "stateMutability": "view",
      "type": "function"
    },
    {
      "inputs": [],
      "name": "MARGIN_TRADER",
      "outputs": [
        {
          "internalType": "uint16",
          "name": "",
          "type": "uint16"
        }
      ],
      "stateMutability": "view",
      "type": "function"
    },
    {
      "inputs": [],
      "name": "MARGIN_TRADING",
      "outputs": [
        {
          "internalType": "uint16",
          "name": "",
          "type": "uint16"
        }
      ],
      "stateMutability": "view",
      "type": "function"
    },
    {
      "inputs": [],
      "name": "PRICE_CONTROLLER",
      "outputs": [
        {
          "internalType": "uint16",
          "name": "",
          "type": "uint16"
        }
      ],
      "stateMutability": "view",
      "type": "function"
    },
    {
      "inputs": [],
      "name": "ROUTER",
      "outputs": [
        {
          "internalType": "uint16",
          "name": "",
          "type": "uint16"
        }
      ],
      "stateMutability": "view",
      "type": "function"
    },
    {
      "inputs": [],
      "name": "STAKE_PENALIZER",
      "outputs": [
        {
          "internalType": "uint16",
          "name": "",
          "type": "uint16"
        }
      ],
      "stateMutability": "view",
      "type": "function"
    },
    {
      "inputs": [],
      "name": "TOKEN_ACTIVATOR",
      "outputs": [
        {
          "internalType": "uint16",
          "name": "",
          "type": "uint16"
        }
      ],
      "stateMutability": "view",
      "type": "function"
    },
    {
      "inputs": [],
      "name": "TOKEN_ADMIN",
      "outputs": [
        {
          "internalType": "uint16",
          "name": "",
          "type": "uint16"
        }
      ],
      "stateMutability": "view",
      "type": "function"
    },
    {
      "inputs": [],
      "name": "WEIGHT_TOTAL_10k",
      "outputs": [
        {
          "internalType": "uint256",
          "name": "",
          "type": "uint256"
        }
      ],
      "stateMutability": "view",
      "type": "function"
    },
    {
      "inputs": [],
      "name": "WITHDRAWER",
      "outputs": [
        {
          "internalType": "uint16",
          "name": "",
          "type": "uint16"
        }
      ],
      "stateMutability": "view",
      "type": "function"
    },
    {
      "inputs": [
        {
          "internalType": "uint256",
          "name": "balance",
          "type": "uint256"
        },
        {
          "internalType": "address",
          "name": "token",
          "type": "address"
        },
        {
          "internalType": "uint256",
          "name": "yieldQuotientFP",
          "type": "uint256"
        }
      ],
      "name": "applyBorrowInterest",
      "outputs": [
        {
          "internalType": "uint256",
          "name": "balanceWithInterest",
          "type": "uint256"
        }
      ],
      "stateMutability": "nonpayable",
      "type": "function"
    },
    {
      "inputs": [
        {
          "internalType": "address",
          "name": "",
          "type": "address"
        },
        {
          "internalType": "uint256",
          "name": "",
          "type": "uint256"
        }
      ],
      "name": "bondIds",
      "outputs": [
        {
          "internalType": "uint256",
          "name": "",
          "type": "uint256"
        }
      ],
      "stateMutability": "view",
      "type": "function"
    },
    {
      "inputs": [
        {
          "internalType": "uint256",
          "name": "",
          "type": "uint256"
        }
      ],
      "name": "bonds",
      "outputs": [
        {
          "internalType": "address",
          "name": "holder",
          "type": "address"
        },
        {
          "internalType": "address",
          "name": "token",
          "type": "address"
        },
        {
          "internalType": "uint256",
          "name": "originalPrice",
          "type": "uint256"
        },
        {
          "internalType": "uint256",
          "name": "returnAmount",
          "type": "uint256"
        },
        {
          "internalType": "uint256",
          "name": "maturityTimestamp",
          "type": "uint256"
        },
        {
          "internalType": "uint256",
          "name": "runtime",
          "type": "uint256"
        },
        {
          "internalType": "uint256",
          "name": "yieldFP",
          "type": "uint256"
        }
      ],
      "stateMutability": "view",
      "type": "function"
    },
    {
      "inputs": [
        {
          "internalType": "address",
          "name": "",
          "type": "address"
        }
      ],
      "name": "borrowYieldAccumulators",
      "outputs": [
        {
          "internalType": "uint256",
          "name": "accumulatorFP",
          "type": "uint256"
        },
        {
          "internalType": "uint256",
          "name": "lastUpdated",
          "type": "uint256"
        },
        {
          "internalType": "uint256",
          "name": "hourlyYieldFP",
          "type": "uint256"
        }
      ],
      "stateMutability": "view",
      "type": "function"
    },
    {
      "inputs": [],
      "name": "borrowingFactorPercent",
      "outputs": [
        {
          "internalType": "uint256",
          "name": "",
          "type": "uint256"
        }
      ],
      "stateMutability": "view",
      "type": "function"
    },
    {
      "inputs": [],
      "name": "borrowingMarkupFP",
      "outputs": [
        {
          "internalType": "uint256",
          "name": "",
          "type": "uint256"
        }
      ],
      "stateMutability": "view",
      "type": "function"
    },
    {
      "inputs": [
        {
          "internalType": "address",
          "name": "token",
          "type": "address"
        },
        {
          "internalType": "uint256",
          "name": "runtime",
          "type": "uint256"
        },
        {
          "internalType": "uint256",
          "name": "amount",
          "type": "uint256"
        },
        {
          "internalType": "uint256",
          "name": "minReturn",
          "type": "uint256"
        }
      ],
      "name": "buyBond",
      "outputs": [
        {
          "internalType": "uint256",
          "name": "bondIndex",
          "type": "uint256"
        }
      ],
      "stateMutability": "nonpayable",
      "type": "function"
    },
    {
      "inputs": [
        {
          "internalType": "address",
          "name": "token",
          "type": "address"
        },
        {
          "internalType": "uint256",
          "name": "amount",
          "type": "uint256"
        }
      ],
      "name": "buyHourlyBondSubscription",
      "outputs": [],
      "stateMutability": "nonpayable",
      "type": "function"
    },
    {
      "inputs": [
        {
          "internalType": "address",
          "name": "",
          "type": "address"
        },
        {
          "internalType": "uint256",
          "name": "",
          "type": "uint256"
        }
      ],
      "name": "buyingSpeed",
      "outputs": [
        {
          "internalType": "uint256",
          "name": "",
          "type": "uint256"
        }
      ],
      "stateMutability": "view",
      "type": "function"
    },
    {
      "inputs": [
        {
          "internalType": "address",
          "name": "",
          "type": "address"
        },
        {
          "internalType": "address",
          "name": "",
          "type": "address"
        }
      ],
      "name": "claimIds",
      "outputs": [
        {
          "internalType": "uint256",
          "name": "",
          "type": "uint256"
        }
      ],
      "stateMutability": "view",
      "type": "function"
    },
    {
      "inputs": [
        {
          "internalType": "address",
          "name": "token",
          "type": "address"
        }
      ],
      "name": "closeHourlyBondAccount",
      "outputs": [],
      "stateMutability": "nonpayable",
      "type": "function"
    },
    {
      "inputs": [],
      "name": "diffMaxMinRuntime",
      "outputs": [
        {
          "internalType": "uint256",
          "name": "",
          "type": "uint256"
        }
      ],
      "stateMutability": "view",
      "type": "function"
    },
    {
      "inputs": [
        {
          "internalType": "address",
          "name": "",
          "type": "address"
        },
        {
          "internalType": "address",
          "name": "",
          "type": "address"
        }
      ],
      "name": "hourlyBondAccounts",
      "outputs": [
        {
          "internalType": "uint256",
          "name": "amount",
          "type": "uint256"
        },
        {
          "internalType": "uint256",
          "name": "yieldQuotientFP",
          "type": "uint256"
        },
        {
          "internalType": "uint256",
          "name": "moduloHour",
          "type": "uint256"
        }
      ],
      "stateMutability": "view",
      "type": "function"
    },
    {
      "inputs": [
        {
          "internalType": "address",
          "name": "",
          "type": "address"
        }
      ],
      "name": "hourlyBondBuyingSpeed",
      "outputs": [
        {
          "internalType": "uint256",
          "name": "",
          "type": "uint256"
        }
      ],
      "stateMutability": "view",
      "type": "function"
    },
    {
      "inputs": [
        {
          "internalType": "address",
          "name": "",
          "type": "address"
        }
      ],
      "name": "hourlyBondWithdrawingSpeed",
      "outputs": [
        {
          "internalType": "uint256",
          "name": "",
          "type": "uint256"
        }
      ],
      "stateMutability": "view",
      "type": "function"
    },
    {
      "inputs": [
        {
          "internalType": "address",
          "name": "",
          "type": "address"
        }
      ],
      "name": "hourlyBondYieldAccumulators",
      "outputs": [
        {
          "internalType": "uint256",
          "name": "accumulatorFP",
          "type": "uint256"
        },
        {
          "internalType": "uint256",
          "name": "lastUpdated",
          "type": "uint256"
        },
        {
          "internalType": "uint256",
          "name": "hourlyYieldFP",
          "type": "uint256"
        }
      ],
      "stateMutability": "view",
      "type": "function"
    },
    {
      "inputs": [
        {
          "internalType": "address",
          "name": "",
          "type": "address"
        }
      ],
      "name": "incentiveTranches",
      "outputs": [
        {
          "internalType": "uint8",
          "name": "",
          "type": "uint8"
        }
      ],
      "stateMutability": "view",
      "type": "function"
    },
    {
      "inputs": [
        {
          "internalType": "address",
          "name": "token",
          "type": "address"
        }
      ],
      "name": "initBorrowYieldAccumulator",
      "outputs": [],
      "stateMutability": "nonpayable",
      "type": "function"
    },
    {
      "inputs": [
        {
          "internalType": "address",
          "name": "",
          "type": "address"
        },
        {
          "internalType": "uint256",
          "name": "",
          "type": "uint256"
        }
      ],
      "name": "lastBought",
      "outputs": [
        {
          "internalType": "uint256",
          "name": "",
          "type": "uint256"
        }
      ],
      "stateMutability": "view",
      "type": "function"
    },
    {
      "inputs": [
        {
          "internalType": "address",
          "name": "",
          "type": "address"
        },
        {
          "internalType": "uint256",
          "name": "",
          "type": "uint256"
        }
      ],
      "name": "lastWithdrawn",
      "outputs": [
        {
          "internalType": "uint256",
          "name": "",
          "type": "uint256"
        }
      ],
      "stateMutability": "view",
      "type": "function"
    },
    {
      "inputs": [
        {
          "internalType": "address",
          "name": "",
          "type": "address"
        }
      ],
      "name": "lendingBuffer",
      "outputs": [
        {
          "internalType": "uint256",
          "name": "",
          "type": "uint256"
        }
      ],
      "stateMutability": "view",
      "type": "function"
    },
    {
      "inputs": [
        {
          "internalType": "address",
          "name": "",
          "type": "address"
        }
      ],
      "name": "lendingCap",
      "outputs": [
        {
          "internalType": "uint256",
          "name": "",
          "type": "uint256"
        }
      ],
      "stateMutability": "view",
      "type": "function"
    },
    {
      "inputs": [
        {
          "internalType": "address",
          "name": "token",
          "type": "address"
        }
      ],
      "name": "lendingTarget",
      "outputs": [
        {
          "internalType": "uint256",
          "name": "",
          "type": "uint256"
        }
      ],
      "stateMutability": "view",
      "type": "function"
    },
    {
      "inputs": [
        {
          "internalType": "uint16",
          "name": "",
          "type": "uint16"
        }
      ],
      "name": "mainCharacterCache",
      "outputs": [
        {
          "internalType": "address",
          "name": "",
          "type": "address"
        }
      ],
      "stateMutability": "view",
      "type": "function"
    },
    {
      "inputs": [],
      "name": "maxHourlyYieldFP",
      "outputs": [
        {
          "internalType": "uint256",
          "name": "",
          "type": "uint256"
        }
      ],
      "stateMutability": "view",
      "type": "function"
    },
    {
      "inputs": [],
      "name": "maxRuntime",
      "outputs": [
        {
          "internalType": "uint256",
          "name": "",
          "type": "uint256"
        }
      ],
      "stateMutability": "view",
      "type": "function"
    },
    {
      "inputs": [],
      "name": "minRuntime",
      "outputs": [
        {
          "internalType": "uint256",
          "name": "",
          "type": "uint256"
        }
      ],
      "stateMutability": "view",
      "type": "function"
    },
    {
      "inputs": [],
      "name": "nextBondIndex",
      "outputs": [
        {
          "internalType": "uint256",
          "name": "",
          "type": "uint256"
        }
      ],
      "stateMutability": "view",
      "type": "function"
    },
    {
      "inputs": [],
      "name": "owner",
      "outputs": [
        {
          "internalType": "address",
          "name": "",
          "type": "address"
        }
      ],
      "stateMutability": "view",
      "type": "function"
    },
    {
      "inputs": [
        {
          "internalType": "address",
          "name": "token",
          "type": "address"
        },
        {
          "internalType": "uint256",
          "name": "amount",
          "type": "uint256"
        }
      ],
      "name": "payOff",
      "outputs": [],
      "stateMutability": "nonpayable",
      "type": "function"
    },
    {
      "inputs": [
        {
          "internalType": "address",
          "name": "token",
          "type": "address"
        },
        {
          "internalType": "uint256",
          "name": "amount",
          "type": "uint256"
        }
      ],
      "name": "registerBorrow",
      "outputs": [],
      "stateMutability": "nonpayable",
      "type": "function"
    },
    {
      "inputs": [],
      "name": "renounceOwnership",
      "outputs": [],
      "stateMutability": "nonpayable",
      "type": "function"
    },
    {
      "inputs": [
        {
          "internalType": "address",
          "name": "",
          "type": "address"
        },
        {
          "internalType": "uint16",
          "name": "",
          "type": "uint16"
        }
      ],
      "name": "roleCache",
      "outputs": [
        {
          "internalType": "bool",
          "name": "",
          "type": "bool"
        }
      ],
      "stateMutability": "view",
      "type": "function"
    },
    {
      "inputs": [],
      "name": "roles",
      "outputs": [
        {
          "internalType": "contract Roles",
          "name": "",
          "type": "address"
        }
      ],
      "stateMutability": "view",
      "type": "function"
    },
    {
      "inputs": [
        {
          "internalType": "address",
          "name": "",
          "type": "address"
        },
        {
          "internalType": "uint256",
          "name": "",
          "type": "uint256"
        }
      ],
      "name": "runtimeWeights",
      "outputs": [
        {
          "internalType": "uint256",
          "name": "",
          "type": "uint256"
        }
      ],
      "stateMutability": "view",
      "type": "function"
    },
    {
      "inputs": [
        {
          "internalType": "uint256",
          "name": "borrowingFactor",
          "type": "uint256"
        }
      ],
      "name": "setBorrowingFactorPercent",
      "outputs": [],
      "stateMutability": "nonpayable",
      "type": "function"
    },
    {
      "inputs": [
        {
          "internalType": "address",
          "name": "token",
          "type": "address"
        },
        {
          "internalType": "uint256",
          "name": "aprPercent",
          "type": "uint256"
        }
      ],
      "name": "setHourlyYieldAPR",
      "outputs": [],
      "stateMutability": "nonpayable",
      "type": "function"
    },
    {
      "inputs": [
        {
          "internalType": "address",
          "name": "token",
          "type": "address"
        },
        {
          "internalType": "uint8",
          "name": "tranche",
          "type": "uint8"
        }
      ],
      "name": "setIncentiveTranche",
      "outputs": [],
      "stateMutability": "nonpayable",
      "type": "function"
    },
    {
      "inputs": [
        {
          "internalType": "address",
          "name": "token",
          "type": "address"
        },
        {
          "internalType": "uint256",
          "name": "buffer",
          "type": "uint256"
        }
      ],
      "name": "setLendingBuffer",
      "outputs": [],
      "stateMutability": "nonpayable",
      "type": "function"
    },
    {
      "inputs": [
        {
          "internalType": "address",
          "name": "token",
          "type": "address"
        },
        {
          "internalType": "uint256",
          "name": "cap",
          "type": "uint256"
        }
      ],
      "name": "setLendingCap",
      "outputs": [],
      "stateMutability": "nonpayable",
      "type": "function"
    },
    {
      "inputs": [
        {
          "internalType": "uint256",
          "name": "maxYieldFP",
          "type": "uint256"
        }
      ],
      "name": "setMaxHourlyYieldFP",
      "outputs": [],
      "stateMutability": "nonpayable",
      "type": "function"
    },
    {
      "inputs": [
        {
          "internalType": "uint256",
          "name": "runtime",
          "type": "uint256"
        }
      ],
      "name": "setMaxRuntime",
      "outputs": [],
      "stateMutability": "nonpayable",
      "type": "function"
    },
    {
      "inputs": [
        {
          "internalType": "uint256",
          "name": "runtime",
          "type": "uint256"
        }
      ],
      "name": "setMinRuntime",
      "outputs": [],
      "stateMutability": "nonpayable",
      "type": "function"
    },
    {
      "inputs": [
        {
          "internalType": "address",
          "name": "token",
          "type": "address"
        },
        {
          "internalType": "uint256[]",
          "name": "weights",
          "type": "uint256[]"
        }
      ],
      "name": "setRuntimeWeights",
      "outputs": [],
      "stateMutability": "nonpayable",
      "type": "function"
    },
    {
      "inputs": [
        {
          "internalType": "address",
          "name": "token",
          "type": "address"
        },
        {
          "internalType": "uint256[]",
          "name": "yieldsFP",
          "type": "uint256[]"
        }
      ],
      "name": "setRuntimeYieldsFP",
      "outputs": [],
      "stateMutability": "nonpayable",
      "type": "function"
    },
    {
      "inputs": [
        {
          "internalType": "uint256",
          "name": "window",
          "type": "uint256"
        }
      ],
      "name": "setWithdrawalWindow",
      "outputs": [],
      "stateMutability": "nonpayable",
      "type": "function"
    },
    {
      "inputs": [
        {
          "internalType": "uint256",
          "name": "changePerSecondFP",
          "type": "uint256"
        }
      ],
      "name": "setYieldChangePerSecondFP",
      "outputs": [],
      "stateMutability": "nonpayable",
      "type": "function"
    },
    {
      "inputs": [
        {
          "internalType": "address",
          "name": "",
          "type": "address"
        }
      ],
      "name": "totalBorrowed",
      "outputs": [
        {
          "internalType": "uint256",
          "name": "",
          "type": "uint256"
        }
      ],
      "stateMutability": "view",
      "type": "function"
    },
    {
      "inputs": [
        {
          "internalType": "address",
          "name": "",
          "type": "address"
        }
      ],
      "name": "totalLending",
      "outputs": [
        {
          "internalType": "uint256",
          "name": "",
          "type": "uint256"
        }
      ],
      "stateMutability": "view",
      "type": "function"
    },
    {
      "inputs": [
        {
          "internalType": "address",
          "name": "",
          "type": "address"
        },
        {
          "internalType": "uint256",
          "name": "",
          "type": "uint256"
        }
      ],
      "name": "totalLendingPerRuntime",
      "outputs": [
        {
          "internalType": "uint256",
          "name": "",
          "type": "uint256"
        }
      ],
      "stateMutability": "view",
      "type": "function"
    },
    {
      "inputs": [
        {
          "internalType": "address",
          "name": "newOwner",
          "type": "address"
        }
      ],
      "name": "transferOwnership",
      "outputs": [],
      "stateMutability": "nonpayable",
      "type": "function"
    },
    {
      "inputs": [
        {
          "internalType": "uint16",
          "name": "role",
          "type": "uint16"
        }
      ],
      "name": "updateMainCharacterCache",
      "outputs": [],
      "stateMutability": "nonpayable",
      "type": "function"
    },
    {
      "inputs": [
        {
          "internalType": "uint16",
          "name": "role",
          "type": "uint16"
        },
        {
          "internalType": "address",
          "name": "contr",
          "type": "address"
        }
      ],
      "name": "updateRoleCache",
      "outputs": [],
      "stateMutability": "nonpayable",
      "type": "function"
    },
    {
      "inputs": [
        {
          "internalType": "address",
          "name": "token",
          "type": "address"
        },
        {
          "internalType": "uint256",
          "name": "runtime",
          "type": "uint256"
        },
        {
          "internalType": "uint256",
          "name": "amount",
          "type": "uint256"
        }
      ],
      "name": "viewBondReturn",
      "outputs": [
        {
          "internalType": "uint256",
          "name": "",
          "type": "uint256"
        }
      ],
      "stateMutability": "view",
      "type": "function"
    },
    {
      "inputs": [
        {
          "internalType": "uint256",
          "name": "balance",
          "type": "uint256"
        },
        {
          "internalType": "address",
          "name": "token",
          "type": "address"
        },
        {
          "internalType": "uint256",
          "name": "yieldQuotientFP",
          "type": "uint256"
        }
      ],
      "name": "viewBorrowInterest",
      "outputs": [
        {
          "internalType": "uint256",
          "name": "",
          "type": "uint256"
        }
      ],
      "stateMutability": "view",
      "type": "function"
    },
    {
      "inputs": [
        {
          "internalType": "address",
          "name": "token",
          "type": "address"
        }
      ],
      "name": "viewBorrowingYieldFP",
      "outputs": [
        {
          "internalType": "uint256",
          "name": "",
          "type": "uint256"
        }
      ],
      "stateMutability": "view",
      "type": "function"
    },
    {
      "inputs": [
        {
          "internalType": "uint256",
          "name": "bondId",
          "type": "uint256"
        }
      ],
      "name": "withdrawBond",
      "outputs": [],
      "stateMutability": "nonpayable",
      "type": "function"
    },
    {
      "inputs": [
        {
          "internalType": "address",
          "name": "token",
          "type": "address"
        },
        {
          "internalType": "uint256",
          "name": "amount",
          "type": "uint256"
        }
      ],
      "name": "withdrawHourlyBond",
      "outputs": [],
      "stateMutability": "nonpayable",
      "type": "function"
    },
    {
      "inputs": [
        {
          "internalType": "address",
          "name": "",
          "type": "address"
        },
        {
          "internalType": "uint256",
          "name": "",
          "type": "uint256"
        }
      ],
      "name": "withdrawingSpeed",
      "outputs": [
        {
          "internalType": "uint256",
          "name": "",
          "type": "uint256"
        }
      ],
      "stateMutability": "view",
      "type": "function"
    },
    {
      "inputs": [],
      "name": "yieldChangePerSecondFP",
      "outputs": [
        {
          "internalType": "uint256",
          "name": "",
          "type": "uint256"
        }
      ],
      "stateMutability": "view",
      "type": "function"
    },
    {
      "inputs": [
        {
          "internalType": "address",
          "name": "",
          "type": "address"
        },
        {
          "internalType": "uint256",
          "name": "",
          "type": "uint256"
        }
      ],
      "name": "yieldLastUpdated",
      "outputs": [
        {
          "internalType": "uint256",
          "name": "",
          "type": "uint256"
        }
      ],
      "stateMutability": "view",
      "type": "function"
    }
  ],
  "transactionHash": "0x056fd26755fa0f8b79e248f522b1dda314c97401efd5ebad86d5482e7ccf92f4",
  "args": [
    "0xd4A8F00F37f3B965bF94C112B83b94e7526732eF"
  ],
  "solcInputHash": "0557d1b5995c44fa5d0d24bcc83ad705",
  "bytecode": "0x6080604052610258600a5560c8600e5562278d006011556301e133806012556001601e553480156200003057600080fd5b5060405162004bba38038062004bba83398101604081905262000053916200012d565b600080546001600160a01b0319166001600160a01b0383161781556200007862000129565b600380546001600160a01b0319166001600160a01b038316908117909155604051919250906000907f8be0079c531659141344cd1fd0a4f28419497f9722a3daafe3b4186f6b6457e0908290a3506103836122386064620000df836401000000006200017e565b620000eb91906200015d565b620000f791906200015d565b60085560036103e862000110826401000000006200017e565b6200011c91906200015d565b60095550620001aa915050565b3390565b6000602082840312156200013f578081fd5b81516001600160a01b038116811462000156578182fd5b9392505050565b6000826200017957634e487b7160e01b81526012600452602481fd5b500490565b6000816000190483118215151615620001a557634e487b7160e01b81526011600452602481fd5b500290565b614a0080620001ba6000396000f3fe608060405234801561001057600080fd5b506004361061058b5760003560e01c80638824cbba116102e2578063c94426a011610191578063e5ea6606116100ee578063ee0862bf116100a2578063f2fde38b1161007c578063f2fde38b14610a73578063f884614b14610a86578063f90889c914610a995761058b565b8063ee0862bf14610a45578063ef2cd3b814610a58578063f11f979514610a6b5761058b565b8063e69f8959116100d3578063e69f895914610a0c578063e84bfdf414610a1f578063ebc2273114610a325761058b565b8063e5ea6606146109e6578063e695fa68146109f95761058b565b8063d2b4893411610145578063d5d7ed7f1161012a578063d5d7ed7f146109b8578063dcaf8029146109c0578063e2e1ca2b146109d35761058b565b8063d2b4893414610992578063d3dc14b2146109a55761058b565b8063cc4b26a311610176578063cc4b26a314610964578063cd3b5dfb14610977578063d1efebfe1461098a5761058b565b8063c94426a014610949578063cacf8d451461095c5761058b565b8063b44816521161023f578063c34316c3116101f3578063c4055ddf116101d8578063c4055ddf1461091b578063c4f7d45d1461092e578063c76139d0146109415761058b565b8063c34316c3146108e8578063c3daab96146109085761058b565b8063bfedc0bf11610224578063bfedc0bf146108af578063c1cea807146108c2578063c2609c46146108d55761058b565b8063b448165214610894578063b8139c6d146108a75761058b565b8063a387832f11610296578063a94c7c341161027b578063a94c7c341461087c578063a9cc053614610884578063aa7e321d1461088c5761058b565b8063a387832f14610856578063a772404b146108695761058b565b806391b46e05116102c757806391b46e05146108335780639229e73f14610846578063a0098d691461084e5761058b565b80638824cbba1461080b5780638da5cb5b1461082b5761058b565b80633aa58f451161043e578063687680ed1161039b5780637d34e4051161034f57806381ca66001161033457806381ca6600146107d957806383a04229146107e157806383a49c7c146108035761058b565b80637d34e405146107b3578063803a99b7146107c65761058b565b8063715018a611610380578063715018a614610790578063773bbb3b146107985780637b8b4ee2146107a05761058b565b8063687680ed1461076a5780636cd5cd601461077d5761058b565b80635adbeb15116103f25780635f1c17c0116103d75780635f1c17c014610734578063669419841461075a57806367e2de92146107625761058b565b80635adbeb15146107195780635c275a391461072c5761058b565b80634804dd34116104235780634804dd34146106f657806348fb27b81461070957806358d51f91146107115761058b565b80633aa58f45146106db57806346b88796146106ee5761058b565b806320e8d819116104ec5780632a6a897b116104a057806332fe7b261161048557806332fe7b26146106ab57806336953912146106b3578063392f5f64146106c65761058b565b80632a6a897b146106905780632fe94def146106a35761058b565b8063267031b8116104d1578063267031b81461066d5780632864f401146106755780632a0acc6a146106885761058b565b806320e8d81914610647578063247ae0a61461065a5761058b565b806316de7a43116105435780631b669507116105285780631b669507146106245780631bc5d81d1461062c57806320b15515146106345761058b565b806316de7a43146105fe5780631744a9b6146106115761058b565b80630b550546116105745780630b550546146105ce5780630bba92b3146105d65780630f7c43dc146105e95761058b565b80630196c36114610590578063065d570f146105b9575b600080fd5b6105a361059e366004613fa3565b610aac565b6040516105b091906147af565b60405180910390f35b6105c1610add565b6040516105b09190614776565b6105a3610ae2565b6105a36105e4366004613fce565b610ae8565b6105fc6105f7366004613fa3565b610bb6565b005b6105fc61060c366004613fa3565b610c0c565b6105a361061f366004613e06565b610d3a565b6105c1610d8e565b6105c1610d93565b6105a3610642366004613e06565b610d98565b6105fc6106553660046140a8565b610daa565b6105a3610668366004613fa3565b610ebb565b6105a3610ed7565b6105fc61068336600461403c565b610edd565b6105c1610f74565b6105fc61069e366004613fa3565b610f79565b6105c1610ff6565b6105c1610ffb565b6105fc6106c13660046140c3565b611000565b6106ce611078565b6040516105b0919061412a565b6105a36106e9366004613e06565b611094565b6105c16110a6565b6105fc6107043660046140c3565b6110ab565b6105c1611123565b6105a3611128565b6105a3610727366004613e45565b61112e565b6105c1611149565b6107476107423660046140c3565b61114e565b6040516105b0979695949392919061417c565b6105c16111a4565b6105a36111a9565b6105a36107783660046140f3565b6111af565b6105fc61078b36600461408e565b6111d4565b6105fc6112d3565b6105a36113b5565b6105a36107ae366004614002565b6113bb565b6105fc6107c1366004613e7d565b61145d565b6105fc6107d43660046140c3565b611506565b6105c16115b9565b6107f46107ef366004613e45565b6115be565b6040516105b0939291906147b8565b6105c16115ea565b61081e610819366004613e06565b6115ef565b6040516105b091906147ce565b6106ce611604565b6105fc6108413660046140c3565b611620565b6105a3611698565b6105c161169e565b6105fc610864366004613fa3565b6116a3565b6105fc610877366004613e7d565b61170b565b6105c1611e8a565b6105c1611e8f565b6105a3611e94565b6106ce6108a236600461408e565b611e9a565b6105a3611ec2565b6107f46108bd366004613e06565b611ec8565b6105a36108d0366004613e06565b611ee9565b6105a36108e3366004613e06565b611efb565b6108fb6108f6366004613f6f565b611f0d565b6040516105b091906141c7565b6105fc6109163660046140c3565b611f2d565b6105a3610929366004613e06565b612066565b6105a361093c366004613fa3565b612078565b6105c1612094565b6105fc6109573660046140c3565b612099565b6105c1612111565b6105fc610972366004613e06565b612116565b6107f4610985366004613e06565b612183565b6105c16121a4565b6105fc6109a0366004613fa3565b6121a9565b6105a36109b3366004613fa3565b612211565b6105c161222d565b6105a36109ce366004613fa3565b612232565b6105a36109e1366004613e06565b61224e565b6105a36109f4366004613e06565b612260565b6105a3610a073660046140f3565b61226e565b6105a3610a1a366004613fa3565b6122f8565b6105a3610a2d366004613fa3565b612314565b6105fc610a403660046140c3565b612330565b6105fc610a53366004613fa3565b6123e3565b6105a3610a66366004613fa3565b61258c565b6105a36125a8565b6105fc610a81366004613e06565b6125ae565b6105fc610a94366004613e06565b6126fc565b6105fc610aa7366004613fa3565b61275b565b60186020528160005260406000208181548110610ac857600080fd5b90600052602060002001600091509150505481565b600381565b60135481565b600080610af585856128b6565b90506000610b9086601c60008973ffffffffffffffffffffffffffffffffffffffff1673ffffffffffffffffffffffffffffffffffffffff1681526020019081526020016000208481548110610b74577f4e487b7100000000000000000000000000000000000000000000000000000000600052603260045260246000fd5b906000526020600020015486610b8a9190614828565b84612906565b9050640100000000610ba28583614854565b610bac9190614840565b9695505050505050565b73ffffffffffffffffffffffffffffffffffffffff82166000908152600b602090815260408083203384529091529020610bf08382612bea565b610bfc83823385612c6c565b610c07338484612def565b505050565b73ffffffffffffffffffffffffffffffffffffffff8216600090815260046020526040902054610c3d908290614828565b610c4683610d3a565b10610d3657610c53612eab565b73ffffffffffffffffffffffffffffffffffffffff1663b3db428b3384846040518463ffffffff1660e01b8152600401610c8f9392919061414b565b602060405180830381600087803b158015610ca957600080fd5b505af1158015610cbd573d6000803e3d6000fd5b505050506040513d601f19601f82011682018060405250810190610ce1919061406e565b610d20576040517f08c379a0000000000000000000000000000000000000000000000000000000008152600401610d1790614719565b60405180910390fd5b610d2b823383612ef0565b610d36338383612fc1565b5050565b73ffffffffffffffffffffffffffffffffffffffff81166000908152600760209081526040808320546006835281842054600590935290832054610d8692610d8191614828565b613187565b90505b919050565b600a81565b600881565b60106020526000908152604090205481565b6000546040517fd87fefd200000000000000000000000000000000000000000000000000000000815273ffffffffffffffffffffffffffffffffffffffff9091169063d87fefd290610e029085908590600401614785565b60206040518083038186803b158015610e1a57600080fd5b505afa158015610e2e573d6000803e3d6000fd5b505050506040513d601f19601f82011682018060405250810190610e52919061406e565b73ffffffffffffffffffffffffffffffffffffffff909116600090815260026020908152604080832061ffff90951683529390529190912080549115157fffffffffffffffffffffffffffffffffffffffffffffffffffffffffffffff00909216919091179055565b60176020528160005260406000208181548110610ac857600080fd5b600e5481565b610ee6336131a1565b610f1c576040517f08c379a0000000000000000000000000000000000000000000000000000000008152600401610d179061422f565b73ffffffffffffffffffffffffffffffffffffffff919091166000908152601f6020526040902080547fffffffffffffffffffffffffffffffffffffffffffffffffffffffffffffff001660ff909216919091179055565b606b81565b610f82336131d8565b610fb8576040517f08c379a0000000000000000000000000000000000000000000000000000000008152600401610d17906146e2565b73ffffffffffffffffffffffffffffffffffffffff821660009081526005602052604081208054839290610fed908490614891565b90915550505050565b606981565b606781565b61100861320f565b73ffffffffffffffffffffffffffffffffffffffff16611026611604565b73ffffffffffffffffffffffffffffffffffffffff1614611073576040517f08c379a0000000000000000000000000000000000000000000000000000000008152600401610d17906144f1565b600a55565b60005473ffffffffffffffffffffffffffffffffffffffff1681565b600f6020526000908152604090205481565b600681565b6110b361320f565b73ffffffffffffffffffffffffffffffffffffffff166110d1611604565b73ffffffffffffffffffffffffffffffffffffffff161461111e576040517f08c379a0000000000000000000000000000000000000000000000000000000008152600401610d17906144f1565b600855565b606681565b60145481565b60208080526000928352604080842090915290825290205481565b606581565b601b60205260009081526040902080546001820154600283015460038401546004850154600586015460069096015473ffffffffffffffffffffffffffffffffffffffff95861696959094169492939192909187565b600181565b60085481565b6000806111be84600d42613213565b90506111cb85828561327a565b95945050505050565b6000546040517f3c9c8f9c00000000000000000000000000000000000000000000000000000000815273ffffffffffffffffffffffffffffffffffffffff90911690633c9c8f9c9061122a908490600401614776565b60206040518083038186803b15801561124257600080fd5b505afa158015611256573d6000803e3d6000fd5b505050506040513d601f19601f8201168201806040525081019061127a9190613e29565b61ffff91909116600090815260016020526040902080547fffffffffffffffffffffffff00000000000000000000000000000000000000001673ffffffffffffffffffffffffffffffffffffffff909216919091179055565b6112db61320f565b73ffffffffffffffffffffffffffffffffffffffff166112f9611604565b73ffffffffffffffffffffffffffffffffffffffff1614611346576040517f08c379a0000000000000000000000000000000000000000000000000000000008152600401610d17906144f1565b60035460405160009173ffffffffffffffffffffffffffffffffffffffff16907f8be0079c531659141344cd1fd0a4f28419497f9722a3daafe3b4186f6b6457e0908390a3600380547fffffffffffffffffffffffff0000000000000000000000000000000000000000169055565b60115481565b73ffffffffffffffffffffffffffffffffffffffff84166000908152600460205260408120546113ec908490614828565b6113f586610d3a565b1015801561140557508360125410155b801561141357506011548410155b15611455576114253386868686613291565b33600081815260216020908152604082208054600181018255908352912001829055909150611455908685612fc1565b949350505050565b61146561320f565b73ffffffffffffffffffffffffffffffffffffffff16611483611604565b73ffffffffffffffffffffffffffffffffffffffff16146114d0576040517f08c379a0000000000000000000000000000000000000000000000000000000008152600401610d17906144f1565b73ffffffffffffffffffffffffffffffffffffffff82166000908152601d602090815260409091208251610c0792840190613d94565b61150e61320f565b73ffffffffffffffffffffffffffffffffffffffff1661152c611604565b73ffffffffffffffffffffffffffffffffffffffff1614611579576040517f08c379a0000000000000000000000000000000000000000000000000000000008152600401610d17906144f1565b610e1081116115b4576040517f08c379a0000000000000000000000000000000000000000000000000000000008152600401610d1790614583565b601155565b606a81565b600b60209081526000928352604080842090915290825290208054600182015460029092015490919083565b600981565b601f6020526000908152604090205460ff1681565b60035473ffffffffffffffffffffffffffffffffffffffff1690565b61162861320f565b73ffffffffffffffffffffffffffffffffffffffff16611646611604565b73ffffffffffffffffffffffffffffffffffffffff1614611693576040517f08c379a0000000000000000000000000000000000000000000000000000000008152600401610d17906144f1565b600e55565b60125481565b600281565b6116ac336131a1565b6116e2576040517f08c379a0000000000000000000000000000000000000000000000000000000008152600401610d17906145e0565b73ffffffffffffffffffffffffffffffffffffffff909116600090815260066020526040902055565b73ffffffffffffffffffffffffffffffffffffffff821660009081526015602052604090205415806117625750805173ffffffffffffffffffffffffffffffffffffffff8316600090815260156020526040902054145b611798576040517f08c379a0000000000000000000000000000000000000000000000000000000008152600401610d17906141d2565b73ffffffffffffffffffffffffffffffffffffffff8216600090815260156020526040902054611e5457805167ffffffffffffffff811115611803577f4e487b7100000000000000000000000000000000000000000000000000000000600052604160045260246000fd5b60405190808252806020026020018201604052801561182c578160200160208202803683370190505b5073ffffffffffffffffffffffffffffffffffffffff83166000908152601d6020908152604090912082516118679391929190910190613d94565b50805167ffffffffffffffff8111156118a9577f4e487b7100000000000000000000000000000000000000000000000000000000600052604160045260246000fd5b6040519080825280602002602001820160405280156118d2578160200160208202803683370190505b5073ffffffffffffffffffffffffffffffffffffffff83166000908152601760209081526040909120825161190d9391929190910190613d94565b50805167ffffffffffffffff81111561194f577f4e487b7100000000000000000000000000000000000000000000000000000000600052604160045260246000fd5b604051908082528060200260200182016040528015611978578160200160208202803683370190505b5073ffffffffffffffffffffffffffffffffffffffff8316600090815260196020908152604090912082516119b39391929190910190613d94565b50805167ffffffffffffffff8111156119f5577f4e487b7100000000000000000000000000000000000000000000000000000000600052604160045260246000fd5b604051908082528060200260200182016040528015611a1e578160200160208202803683370190505b5073ffffffffffffffffffffffffffffffffffffffff83166000908152601a602090815260409091208251611a599391929190910190613d94565b50805167ffffffffffffffff811115611a9b577f4e487b7100000000000000000000000000000000000000000000000000000000600052604160045260246000fd5b604051908082528060200260200182016040528015611ac4578160200160208202803683370190505b5073ffffffffffffffffffffffffffffffffffffffff831660009081526016602090815260409091208251611aff9391929190910190613d94565b50805167ffffffffffffffff811115611b41577f4e487b7100000000000000000000000000000000000000000000000000000000600052604160045260246000fd5b604051908082528060200260200182016040528015611b6a578160200160208202803683370190505b5073ffffffffffffffffffffffffffffffffffffffff831660009081526018602090815260409091208251611ba59391929190910190613d94565b5060006122386064611bbd640100000000606e614854565b611bc79190614840565b611bd19190614840565b905060008251601354611be49190614840565b905060005b8062ffffff1684511115611e50576000611c0862ffffff831684614854565b601154611c159190614828565b9050611c23610e1082614840565b611c2d9085614854565b73ffffffffffffffffffffffffffffffffffffffff87166000908152601d60205260409020805462ffffff8516908110611c90577f4e487b7100000000000000000000000000000000000000000000000000000000600052603260045260246000fd5b906000526020600020018190555042601760008873ffffffffffffffffffffffffffffffffffffffff1673ffffffffffffffffffffffffffffffffffffffff1681526020019081526020016000208362ffffff1681548110611d1b577f4e487b7100000000000000000000000000000000000000000000000000000000600052603260045260246000fd5b906000526020600020018190555042601960008873ffffffffffffffffffffffffffffffffffffffff1673ffffffffffffffffffffffffffffffffffffffff1681526020019081526020016000208362ffffff1681548110611da6577f4e487b7100000000000000000000000000000000000000000000000000000000600052603260045260246000fd5b906000526020600020018190555042601a60008873ffffffffffffffffffffffffffffffffffffffff1673ffffffffffffffffffffffffffffffffffffffff1681526020019081526020016000208362ffffff1681548110611e31577f4e487b7100000000000000000000000000000000000000000000000000000000600052603260045260246000fd5b6000918252602090912001555080611e48816148a8565b915050611be9565b5050505b73ffffffffffffffffffffffffffffffffffffffff821660009081526015602090815260409091208251610c0792840190613d94565b600581565b606881565b601e5481565b60016020526000908152604090205473ffffffffffffffffffffffffffffffffffffffff1681565b61271081565b600c6020526000908152604090208054600182015460029092015490919083565b60046020526000908152604090205481565b60076020526000908152604090205481565b600260209081526000928352604080842090915290825290205460ff1681565b6000818152601b60205260409020805473ffffffffffffffffffffffffffffffffffffffff163314611f8b576040517f08c379a0000000000000000000000000000000000000000000000000000000008152600401610d179061463d565b80600401544211611fc8576040517f08c379a0000000000000000000000000000000000000000000000000000000008152600401610d17906146ab565b611fd181613612565b6000828152601b6020526040812080547fffffffffffffffffffffffff000000000000000000000000000000000000000090811682556001808301805490921690915560028083018490556003830184905560048301849055600583018490556006909201929092559082015490820154610d3691339173ffffffffffffffffffffffffffffffffffffffff90911690612def565b60066020526000908152604090205481565b601a6020528160005260406000208181548110610ac857600080fd5b606c81565b6120a161320f565b73ffffffffffffffffffffffffffffffffffffffff166120bf611604565b73ffffffffffffffffffffffffffffffffffffffff161461210c576040517f08c379a0000000000000000000000000000000000000000000000000000000008152600401610d17906144f1565b600955565b600481565b61211f336131a1565b612155576040517f08c379a0000000000000000000000000000000000000000000000000000000008152600401610d17906143da565b73ffffffffffffffffffffffffffffffffffffffff166000908152600d602052604090206401000000009055565b600d6020526000908152604090208054600182015460029092015490919083565b606d81565b6121b2336131a1565b6121e8576040517f08c379a0000000000000000000000000000000000000000000000000000000008152600401610d1790614437565b73ffffffffffffffffffffffffffffffffffffffff909116600090815260076020526040902055565b601c6020528160005260406000208181548110610ac857600080fd5b600781565b60196020528160005260406000208181548110610ac857600080fd5b60056020526000908152604090205481565b6000610d8682600d42613213565b73ffffffffffffffffffffffffffffffffffffffff82166000908152600d6020526040812080546122a19086908561327a565b915060006122af8684614891565b73ffffffffffffffffffffffffffffffffffffffff86166000908152600560205260408120805492935083929091906122e9908490614828565b90915550929695505050505050565b60166020528160005260406000208181548110610ac857600080fd5b60156020528160005260406000208181548110610ac857600080fd5b61233861320f565b73ffffffffffffffffffffffffffffffffffffffff16612356611604565b73ffffffffffffffffffffffffffffffffffffffff16146123a3576040517f08c379a0000000000000000000000000000000000000000000000000000000008152600401610d17906144f1565b60115481116123de576040517f08c379a0000000000000000000000000000000000000000000000000000000008152600401610d1790614526565b601255565b6123ec336131d8565b612422576040517f08c379a0000000000000000000000000000000000000000000000000000000008152600401610d17906146e2565b61242a612eab565b73ffffffffffffffffffffffffffffffffffffffff16635acf6903836040518263ffffffff1660e01b8152600401612462919061412a565b60206040518083038186803b15801561247a57600080fd5b505afa15801561248e573d6000803e3d6000fd5b505050506040513d601f19601f820116820180604052508101906124b2919061406e565b6124e8576040517f08c379a0000000000000000000000000000000000000000000000000000000008152600401610d1790614674565b73ffffffffffffffffffffffffffffffffffffffff82166000908152600560205260408120805483929061251d908490614828565b909155505073ffffffffffffffffffffffffffffffffffffffff82166000908152600560209081526040808320546004909252909120541015610d36576040517f08c379a0000000000000000000000000000000000000000000000000000000008152600401610d17906142e9565b60216020528160005260406000208181548110610ac857600080fd5b60095481565b6125b661320f565b73ffffffffffffffffffffffffffffffffffffffff166125d4611604565b73ffffffffffffffffffffffffffffffffffffffff1614612621576040517f08c379a0000000000000000000000000000000000000000000000000000000008152600401610d17906144f1565b73ffffffffffffffffffffffffffffffffffffffff811661266e576040517f08c379a0000000000000000000000000000000000000000000000000000000008152600401610d1790614346565b60035460405173ffffffffffffffffffffffffffffffffffffffff8084169216907f8be0079c531659141344cd1fd0a4f28419497f9722a3daafe3b4186f6b6457e090600090a3600380547fffffffffffffffffffffffff00000000000000000000000000000000000000001673ffffffffffffffffffffffffffffffffffffffff92909216919091179055565b73ffffffffffffffffffffffffffffffffffffffff81166000908152600b6020908152604080832033845290915290206127368282612bea565b6127468282338460000154612c6c565b60008082556001820181905560029091015550565b612764336131a1565b61279a576040517f08c379a0000000000000000000000000000000000000000000000000000000008152600401610d179061428c565b73ffffffffffffffffffffffffffffffffffffffff82166000908152600c60205260409020546128575760408051606081018252640100000000815242602082015290810161223860646127ee8582614828565b6127fd90640100000000614854565b6128079190614840565b6128119190614840565b905273ffffffffffffffffffffffffffffffffffffffff83166000908152600c602090815260409182902083518155908301516001820155910151600290910155610d36565b61223860646128668382614828565b61287590640100000000614854565b61287f9190614840565b6128899190614840565b73ffffffffffffffffffffffffffffffffffffffff83166000908152600c60205260409020600201555050565b73ffffffffffffffffffffffffffffffffffffffff82166000908152601d60205260408120805460135483916128eb91614840565b905080601154856128fc9190614891565b6111cb9190614840565b73ffffffffffffffffffffffffffffffffffffffff83166000908152601d60205260408120805483908110612964577f4e487b7100000000000000000000000000000000000000000000000000000000600052603260045260246000fd5b906000526020600020015490506000601a60008673ffffffffffffffffffffffffffffffffffffffff1673ffffffffffffffffffffffffffffffffffffffff16815260200190815260200160002083815481106129ea577f4e487b7100000000000000000000000000000000000000000000000000000000600052603260045260246000fd5b906000526020600020015490506000612710601560008873ffffffffffffffffffffffffffffffffffffffff1673ffffffffffffffffffffffffffffffffffffffff1681526020019081526020016000208581548110612a73577f4e487b7100000000000000000000000000000000000000000000000000000000600052603260045260246000fd5b9060005260206000200154612a8788610d3a565b612a919190614854565b612a9b9190614840565b73ffffffffffffffffffffffffffffffffffffffff871660009081526016602052604081208054929350909186908110612afe577f4e487b7100000000000000000000000000000000000000000000000000000000600052603260045260246000fd5b906000526020600020015490506000601860008973ffffffffffffffffffffffffffffffffffffffff1673ffffffffffffffffffffffffffffffffffffffff1681526020019081526020016000208681548110612b84577f4e487b7100000000000000000000000000000000000000000000000000000000600052603260045260246000fd5b90600052602060002001549050600060135487612ba19190614854565b601154612bae9190614828565b90506000612bbe610e1083614840565b600854612bcb9190614854565b9050612bdc87878b888888876138eb565b9a9950505050505050505050565b60018101548015610c07576000612c0084613973565b8354815491925090612c149082908561327a565b808555600090612c25908390614891565b73ffffffffffffffffffffffffffffffffffffffff8716600090815260046020526040812080549293508392909190612c5f908490614828565b9091555050505050505050565b6000610e10846002015442612c819190614891565b612c8b9190614904565b905080600a541015612cc9576040517f08c379a0000000000000000000000000000000000000000000000000000000008152600401610d1790614494565b612cd1612eab565b73ffffffffffffffffffffffffffffffffffffffff1663d9caed128685856040518463ffffffff1660e01b8152600401612d0d9392919061414b565b602060405180830381600087803b158015612d2757600080fd5b505af1158015612d3b573d6000803e3d6000fd5b505050506040513d601f19601f82011682018060405250810190612d5f919061406e565b612d95576040517f08c379a0000000000000000000000000000000000000000000000000000000008152600401610d17906143a3565b81846000016000828254612da99190614891565b909155505073ffffffffffffffffffffffffffffffffffffffff851660009081526004602052604081208054849290612de3908490614891565b90915550505050505050565b73ffffffffffffffffffffffffffffffffffffffff808416600090815260208080526040808320938616835292815282822054601f9091529190205460ff16612e36613ad8565b73ffffffffffffffffffffffffffffffffffffffff1663a80167118284866040518463ffffffff1660e01b8152600401612e729392919061480d565b600060405180830381600087803b158015612e8c57600080fd5b505af1158015612ea0573d6000803e3d6000fd5b505050505050505050565b606560005260016020527f6def5a300acb6fcaa0dab3a41e9d6457b5147a641e641380f8cc4bf5308b16fe5473ffffffffffffffffffffffffffffffffffffffff1690565b73ffffffffffffffffffffffffffffffffffffffff8084166000908152600b60209081526040808320938616835292905220612f2c8482612bea565b73ffffffffffffffffffffffffffffffffffffffff84166000908152600c60205260409020546001820155612f63610e1042614904565b6002820155805482908290600090612f7c908490614828565b909155505073ffffffffffffffffffffffffffffffffffffffff841660009081526004602052604081208054849290612fb6908490614828565b909155505050505050565b6000612fcb613ad8565b73ffffffffffffffffffffffffffffffffffffffff808616600090815260208080526040808320938816835292815282822054601f909152919020549192509060ff1681156130a1576040517ff542808700000000000000000000000000000000000000000000000000000000815273ffffffffffffffffffffffffffffffffffffffff84169063f54280879061306a9084908690899060040161480d565b600060405180830381600087803b15801561308457600080fd5b505af1158015613098573d6000803e3d6000fd5b5050505061317f565b6040517f583d861600000000000000000000000000000000000000000000000000000000815273ffffffffffffffffffffffffffffffffffffffff84169063583d8616906130f79084908a9089906004016147dc565b602060405180830381600087803b15801561311157600080fd5b505af1158015613125573d6000803e3d6000fd5b505050506040513d601f19601f8201168201806040525081019061314991906140db565b73ffffffffffffffffffffffffffffffffffffffff808816600090815260208080526040808320938a1683529290522081905591505b505050505050565b60008183111561319857508061319b565b50815b92915050565b73ffffffffffffffffffffffffffffffffffffffff1660009081526002602090815260408083206009845290915290205460ff1690565b73ffffffffffffffffffffffffffffffffffffffff1660009081526002602090815260408083206003845290915290205460ff1690565b3390565b73ffffffffffffffffffffffffffffffffffffffff831660009081526020839052604081206001015481906132489084614891565b73ffffffffffffffffffffffffffffffffffffffff861660009081526020869052604090209091506111cb9082613b1d565b6000816132878486614854565b6114559190614840565b60008061329e86866128b6565b9050600061333387601c60008a73ffffffffffffffffffffffffffffffffffffffff1673ffffffffffffffffffffffffffffffffffffffff168152602001908152602001600020848154811061331d577f4e487b7100000000000000000000000000000000000000000000000000000000600052603260045260246000fd5b906000526020600020015487610b8a9190614828565b905060006401000000006133478784614854565b6133519190614840565b905084811061360657613362612eab565b73ffffffffffffffffffffffffffffffffffffffff1663b3db428b8a8a896040518463ffffffff1660e01b815260040161339e9392919061414b565b602060405180830381600087803b1580156133b857600080fd5b505af11580156133cc573d6000803e3d6000fd5b505050506040513d601f19601f820116820180604052508101906133f0919061406e565b1561360657600060026134038389614828565b61340d9190614840565b73ffffffffffffffffffffffffffffffffffffffff8a16600090815260046020526040812080549293508392909190613447908490614828565b909155505073ffffffffffffffffffffffffffffffffffffffff89166000908152601c602052604090208054829190869081106134ad577f4e487b7100000000000000000000000000000000000000000000000000000000600052603260045260246000fd5b9060005260206000200160008282546134c69190614828565b9091555050601e80549550859060006134de836148cb565b91905055506040518060e001604052808b73ffffffffffffffffffffffffffffffffffffffff1681526020018a73ffffffffffffffffffffffffffffffffffffffff168152602001888152602001838152602001894261353e9190614828565b815260208082018b905260409182018690526000888152601b8252828120845181547fffffffffffffffffffffffff000000000000000000000000000000000000000090811673ffffffffffffffffffffffffffffffffffffffff92831617835586850151600184018054909216908316179055858501516002830155606086015160038301556080860151600483015560a0860151600583015560c090950151600690910155928c16835260168152818320601790915291206136049190868a613bc6565b505b50505095945050505050565b6001810154600582015473ffffffffffffffffffffffffffffffffffffffff909116906000906136439083906128b6565b9050600060028460030154856002015461365d9190614828565b6136679190614840565b73ffffffffffffffffffffffffffffffffffffffff84166000908152600460205260408120805492935083929091906136a1908490614891565b909155505073ffffffffffffffffffffffffffffffffffffffff83166000908152601c60205260409020805482919084908110613707577f4e487b7100000000000000000000000000000000000000000000000000000000600052603260045260246000fd5b9060005260206000200160008282546137209190614891565b909155505073ffffffffffffffffffffffffffffffffffffffff83166000908152601860209081526040808320601990925290912060028601546137679291908590613bc6565b73ffffffffffffffffffffffffffffffffffffffff8316600090815260046020908152604080832054600590925290912054118061385b57506137a8612eab565b845460038601546040517fd9caed1200000000000000000000000000000000000000000000000000000000815273ffffffffffffffffffffffffffffffffffffffff9384169363d9caed1293613807938993929091169160040161414b565b602060405180830381600087803b15801561382157600080fd5b505af1158015613835573d6000803e3d6000fd5b505050506040513d601f19601f82011682018060405250810190613859919061406e565b155b156138e5578354600385015460405173ffffffffffffffffffffffffffffffffffffffff928316928616917fbcab653cf73e12f7bb78aa625dccb002864f5de7de2518796fb5b82fd6e6ab05916138b291906147af565b60405180910390a3835460038501546138e591859173ffffffffffffffffffffffffffffffffffffffff90911690613d89565b50505050565b8660006138f88842614891565b905060006009548261390a9190614854565b9050868810158061391b5750848610155b1561393b5761392a8382613187565b6139349084614891565b9250613966565b878711801561394957508585115b15613966576139588184614828565b925083831115613966578392505b5050979650505050505050565b73ffffffffffffffffffffffffffffffffffffffff81166000908152600c6020526040812060018101549091906139aa9042614891565b90506139b68282613b1d565b82556002820154600183015473ffffffffffffffffffffffffffffffffffffffff8516600090815260046020526040902054613a319291906139f787610d3a565b73ffffffffffffffffffffffffffffffffffffffff88166000908152600f60209081526040808320546010909252909120546008546138eb565b600283015573ffffffffffffffffffffffffffffffffffffffff83166000908152600d602052604090206001810154613a6a9042614891565b9150613a768183613b1d565b81556002830154600e54606491613a8c91614854565b613a969190614840565b73ffffffffffffffffffffffffffffffffffffffff9094166000908152600d602052604090206002019390935550426001808301829055929092019190915590565b606c60005260016020527fd80c728dcb954e7539257f5b9090fa0c83e482d978be864c61ec2b155c05c2525473ffffffffffffffffffffffffffffffffffffffff1690565b600080613b2c610e1084614904565b9050613b3f640100000000610e10614854565b600285015485548391613b5191614854565b613b5b9190614854565b613b659190614840565b91506000613b75610e1085614840565b90508015613bbe5760005b80821115613bbc57640100000000866002015485613b9e9190614854565b613ba89190614840565b935080613bb4816148cb565b915050613b80565b505b505092915050565b8354601354600091613bd791614840565b90506000613be58483614854565b601154613bf29190614828565b90506000858581548110613c2f577f4e487b7100000000000000000000000000000000000000000000000000000000600052603260045260246000fd5b906000526020600020015442613c459190614891565b90506000613c54826001614828565b613c5e8487614854565b613c689190614840565b90506000613c7861025885614840565b9050613c848382614828565b613c8e8484614854565b828b8a81548110613cc8577f4e487b7100000000000000000000000000000000000000000000000000000000600052603260045260246000fd5b9060005260206000200154613cdd9190614854565b613ce79190614828565b613cf19190614840565b898881548110613d2a577f4e487b7100000000000000000000000000000000000000000000000000000000600052603260045260246000fd5b906000526020600020018190555042888881548110613d72577f4e487b7100000000000000000000000000000000000000000000000000000000600052603260045260246000fd5b600091825260209091200155505050505050505050565b610c07838383612ef0565b828054828255906000526020600020908101928215613dcf579160200282015b82811115613dcf578251825591602001919060010190613db4565b50613ddb929150613ddf565b5090565b5b80821115613ddb5760008155600101613de0565b803561ffff81168114610d8957600080fd5b600060208284031215613e17578081fd5b8135613e22816149a5565b9392505050565b600060208284031215613e3a578081fd5b8151613e22816149a5565b60008060408385031215613e57578081fd5b8235613e62816149a5565b91506020830135613e72816149a5565b809150509250929050565b60008060408385031215613e8f578182fd5b8235613e9a816149a5565b915060208381013567ffffffffffffffff80821115613eb7578384fd5b818601915086601f830112613eca578384fd5b813581811115613edc57613edc614976565b8381026040517fffffffffffffffffffffffffffffffffffffffffffffffffffffffffffffffe0603f83011681018181108582111715613f1e57613f1e614976565b604052828152858101935084860182860187018b1015613f3c578788fd5b8795505b83861015613f5e578035855260019590950194938601938601613f40565b508096505050505050509250929050565b60008060408385031215613f81578182fd5b8235613f8c816149a5565b9150613f9a60208401613df4565b90509250929050565b60008060408385031215613fb5578182fd5b8235613fc0816149a5565b946020939093013593505050565b600080600060608486031215613fe2578081fd5b8335613fed816149a5565b95602085013595506040909401359392505050565b60008060008060808587031215614017578081fd5b8435614022816149a5565b966020860135965060408601359560600135945092505050565b6000806040838503121561404e578182fd5b8235614059816149a5565b9150602083013560ff81168114613e72578182fd5b60006020828403121561407f578081fd5b81518015158114613e22578182fd5b60006020828403121561409f578081fd5b613e2282613df4565b600080604083850312156140ba578182fd5b613e6283613df4565b6000602082840312156140d4578081fd5b5035919050565b6000602082840312156140ec578081fd5b5051919050565b600080600060608486031215614107578081fd5b833592506020840135614119816149a5565b929592945050506040919091013590565b73ffffffffffffffffffffffffffffffffffffffff91909116815260200190565b73ffffffffffffffffffffffffffffffffffffffff9384168152919092166020820152604081019190915260600190565b73ffffffffffffffffffffffffffffffffffffffff978816815295909616602086015260408501939093526060840191909152608083015260a082015260c081019190915260e00190565b901515815260200190565b60208082526022908201527f43616e6e6f74206368616e67652073697a65206f66207765696768742061727260408201527f6179000000000000000000000000000000000000000000000000000000000000606082015260800190565b6020808252602e908201527f43616c6c6572206e6f7420617574686f72697a656420746f2073657420696e6360408201527f656e74697665207472616e636865000000000000000000000000000000000000606082015260800190565b60208082526021908201527f6e6f74206175746f72697a656420746f2073657420686f75726c79207969656c60408201527f6400000000000000000000000000000000000000000000000000000000000000606082015260800190565b6020808252602e908201527f496e73756666696369656e74206361706974616c20746f206c656e642c20747260408201527f7920616761696e206c6174657221000000000000000000000000000000000000606082015260800190565b60208082526026908201527f4f776e61626c653a206e6577206f776e657220697320746865207a65726f206160408201527f6464726573730000000000000000000000000000000000000000000000000000606082015260800190565b60208082526016908201527f496e73756666696369656e74206c697175696469747900000000000000000000604082015260600190565b60208082526027908201527f6e6f74206175746f72697a656420746f20696e6974207969656c64206163637560408201527f6d756c61746f7200000000000000000000000000000000000000000000000000606082015260800190565b60208082526021908201527f6e6f7420617574686f72697a656420746f20736574206c656e64696e6720636160408201527f7000000000000000000000000000000000000000000000000000000000000000606082015260800190565b6020808252603f908201527f5472696564207769746864726177696e67206f7574736964652073756273637260408201527f697074696f6e2063616e63656c6c6174696f6e2074696d652077696e646f7700606082015260800190565b6020808252818101527f4f776e61626c653a2063616c6c6572206973206e6f7420746865206f776e6572604082015260600190565b6020808252602c908201527f4d61782072756e74696d65206d7573742062652067726561746572207468616e60408201527f206d696e2072756e74696d650000000000000000000000000000000000000000606082015260800190565b60208082526027908201527f4d696e2072756e74696d65206e6565647320746f206265206174206c6561737460408201527f203120686f757200000000000000000000000000000000000000000000000000606082015260800190565b60208082526023908201527f6e6f74206175746f72697a656420746f20736574206c656e64696e672062756660408201527f6665720000000000000000000000000000000000000000000000000000000000606082015260800190565b60208082526012908201527f4e6f7420686f6c646572206f6620626f6e640000000000000000000000000000604082015260600190565b60208082526015908201527f4e6f7420616e20617070726f76656420746f6b656e0000000000000000000000604082015260600190565b60208082526016908201527f626f6e64206973207374696c6c20696d6d617475726500000000000000000000604082015260600190565b60208082526018908201527f4e6f7420616e20617070726f76656420626f72726f7765720000000000000000604082015260600190565b6020808252602d908201527f436f756c64206e6f74207472616e7366657220626f6e64206465706f7369742060408201527f746f6b656e20746f2066756e6400000000000000000000000000000000000000606082015260800190565b61ffff91909116815260200190565b61ffff92909216825273ffffffffffffffffffffffffffffffffffffffff16602082015260400190565b90815260200190565b9283526020830191909152604082015260600190565b60ff91909116815260200190565b60ff93909316835273ffffffffffffffffffffffffffffffffffffffff919091166020830152604082015260600190565b60ff9390931683526020830191909152604082015260600190565b6000821982111561483b5761483b614918565b500190565b60008261484f5761484f614947565b500490565b6000817fffffffffffffffffffffffffffffffffffffffffffffffffffffffffffffffff048311821515161561488c5761488c614918565b500290565b6000828210156148a3576148a3614918565b500390565b600062ffffff808316818114156148c1576148c1614918565b6001019392505050565b60007fffffffffffffffffffffffffffffffffffffffffffffffffffffffffffffffff8214156148fd576148fd614918565b5060010190565b60008261491357614913614947565b500690565b7f4e487b7100000000000000000000000000000000000000000000000000000000600052601160045260246000fd5b7f4e487b7100000000000000000000000000000000000000000000000000000000600052601260045260246000fd5b7f4e487b7100000000000000000000000000000000000000000000000000000000600052604160045260246000fd5b73ffffffffffffffffffffffffffffffffffffffff811681146149c757600080fd5b5056fea26469706673582212200937fe164baa8e1aa9b0652934ff4b78a86cf1f132676c748ca3192b4119b65964736f6c63430008010033",
  "devdoc": {
    "kind": "dev",
    "methods": {
      "applyBorrowInterest(uint256,address,uint256)": {
        "details": "how much interest has accrued to a borrowed balance over time"
      },
      "buyBond(address,uint256,uint256,uint256)": {
        "details": "buy fixed term bond that does not renew"
      },
      "buyHourlyBondSubscription(address,uint256)": {
        "details": "buy hourly bond subscription"
      },
      "owner()": {
        "details": "Returns the address of the current owner."
      },
      "payOff(address,uint256)": {
        "details": "gets called by router if loan is extinguished"
      },
      "registerBorrow(address,uint256)": {
        "details": "gets called by router to register if a trader borrows tokens"
      },
      "renounceOwnership()": {
        "details": "Leaves the contract without owner. It will not be possible to call `onlyOwner` functions anymore. Can only be called by the current owner. NOTE: Renouncing ownership will leave the contract without an owner, thereby removing any functionality that is only available to the owner."
      },
      "transferOwnership(address)": {
        "details": "Transfers ownership of the contract to a new account (`newOwner`). Can only be called by the current owner."
      },
      "viewBorrowInterest(uint256,address,uint256)": {
        "details": "view function to get current borrowing interest"
      },
      "viewBorrowingYieldFP(address)": {
        "details": "get the borrow yield"
      },
      "withdrawBond(uint256)": {
        "details": "send back funds of bond after maturity"
      },
      "withdrawHourlyBond(address,uint256)": {
        "details": "withdraw an hour bond"
      }
    },
    "stateVariables": {
      "bondIds": {
        "details": "IDs for all bonds held by an address"
      }
    },
    "version": 1
  },
  "userdoc": {
    "kind": "user",
    "methods": {},
    "version": 1
  },
  "storageLayout": {
    "storage": [
      {
        "astId": 11730,
        "contract": "contracts/Lending.sol:Lending",
        "label": "roles",
        "offset": 0,
        "slot": "0",
        "type": "t_contract(Roles)12120"
      },
      {
        "astId": 11734,
        "contract": "contracts/Lending.sol:Lending",
        "label": "mainCharacterCache",
        "offset": 0,
        "slot": "1",
        "type": "t_mapping(t_uint16,t_address)"
      },
      {
        "astId": 11740,
        "contract": "contracts/Lending.sol:Lending",
        "label": "roleCache",
        "offset": 0,
        "slot": "2",
        "type": "t_mapping(t_address,t_mapping(t_uint16,t_bool))"
      },
      {
        "astId": 381,
        "contract": "contracts/Lending.sol:Lending",
        "label": "_owner",
        "offset": 0,
        "slot": "3",
        "type": "t_address"
      },
      {
        "astId": 3509,
        "contract": "contracts/Lending.sol:Lending",
        "label": "totalLending",
        "offset": 0,
        "slot": "4",
        "type": "t_mapping(t_address,t_uint256)"
      },
      {
        "astId": 3513,
        "contract": "contracts/Lending.sol:Lending",
        "label": "totalBorrowed",
        "offset": 0,
        "slot": "5",
        "type": "t_mapping(t_address,t_uint256)"
      },
      {
        "astId": 3517,
        "contract": "contracts/Lending.sol:Lending",
        "label": "lendingBuffer",
        "offset": 0,
        "slot": "6",
        "type": "t_mapping(t_address,t_uint256)"
      },
      {
        "astId": 3521,
        "contract": "contracts/Lending.sol:Lending",
        "label": "lendingCap",
        "offset": 0,
        "slot": "7",
        "type": "t_mapping(t_address,t_uint256)"
      },
      {
        "astId": 3523,
        "contract": "contracts/Lending.sol:Lending",
        "label": "maxHourlyYieldFP",
        "offset": 0,
        "slot": "8",
        "type": "t_uint256"
      },
      {
        "astId": 3525,
        "contract": "contracts/Lending.sol:Lending",
        "label": "yieldChangePerSecondFP",
        "offset": 0,
        "slot": "9",
        "type": "t_uint256"
      },
      {
        "astId": 8099,
        "contract": "contracts/Lending.sol:Lending",
        "label": "withdrawalWindow",
        "offset": 0,
        "slot": "10",
        "type": "t_uint256"
      },
      {
        "astId": 8106,
        "contract": "contracts/Lending.sol:Lending",
        "label": "hourlyBondAccounts",
        "offset": 0,
        "slot": "11",
        "type": "t_mapping(t_address,t_mapping(t_address,t_struct(HourlyBond)8093_storage))"
      },
      {
        "astId": 8111,
        "contract": "contracts/Lending.sol:Lending",
        "label": "hourlyBondYieldAccumulators",
        "offset": 0,
        "slot": "12",
        "type": "t_mapping(t_address,t_struct(YieldAccumulator)8086_storage)"
      },
      {
        "astId": 8117,
        "contract": "contracts/Lending.sol:Lending",
        "label": "borrowYieldAccumulators",
        "offset": 0,
        "slot": "13",
        "type": "t_mapping(t_address,t_struct(YieldAccumulator)8086_storage)"
      },
      {
        "astId": 8120,
        "contract": "contracts/Lending.sol:Lending",
        "label": "borrowingFactorPercent",
        "offset": 0,
        "slot": "14",
        "type": "t_uint256"
      },
      {
        "astId": 8124,
        "contract": "contracts/Lending.sol:Lending",
        "label": "hourlyBondBuyingSpeed",
        "offset": 0,
        "slot": "15",
        "type": "t_mapping(t_address,t_uint256)"
      },
      {
        "astId": 8128,
        "contract": "contracts/Lending.sol:Lending",
        "label": "hourlyBondWithdrawingSpeed",
        "offset": 0,
        "slot": "16",
        "type": "t_mapping(t_address,t_uint256)"
      },
      {
        "astId": 3766,
        "contract": "contracts/Lending.sol:Lending",
        "label": "minRuntime",
        "offset": 0,
        "slot": "17",
        "type": "t_uint256"
      },
      {
        "astId": 3769,
        "contract": "contracts/Lending.sol:Lending",
        "label": "maxRuntime",
        "offset": 0,
        "slot": "18",
        "type": "t_uint256"
      },
      {
        "astId": 3771,
        "contract": "contracts/Lending.sol:Lending",
        "label": "diffMaxMinRuntime",
        "offset": 0,
        "slot": "19",
        "type": "t_uint256"
      },
      {
        "astId": 3776,
        "contract": "contracts/Lending.sol:Lending",
        "label": "borrowingMarkupFP",
        "offset": 0,
        "slot": "20",
        "type": "t_uint256"
      },
      {
        "astId": 3781,
        "contract": "contracts/Lending.sol:Lending",
        "label": "runtimeWeights",
        "offset": 0,
        "slot": "21",
        "type": "t_mapping(t_address,t_array(t_uint256)dyn_storage)"
      },
      {
        "astId": 3786,
        "contract": "contracts/Lending.sol:Lending",
        "label": "buyingSpeed",
        "offset": 0,
        "slot": "22",
        "type": "t_mapping(t_address,t_array(t_uint256)dyn_storage)"
      },
      {
        "astId": 3791,
        "contract": "contracts/Lending.sol:Lending",
        "label": "lastBought",
        "offset": 0,
        "slot": "23",
        "type": "t_mapping(t_address,t_array(t_uint256)dyn_storage)"
      },
      {
        "astId": 3796,
        "contract": "contracts/Lending.sol:Lending",
        "label": "withdrawingSpeed",
        "offset": 0,
        "slot": "24",
        "type": "t_mapping(t_address,t_array(t_uint256)dyn_storage)"
      },
      {
        "astId": 3801,
        "contract": "contracts/Lending.sol:Lending",
        "label": "lastWithdrawn",
        "offset": 0,
        "slot": "25",
        "type": "t_mapping(t_address,t_array(t_uint256)dyn_storage)"
      },
      {
        "astId": 3806,
        "contract": "contracts/Lending.sol:Lending",
        "label": "yieldLastUpdated",
        "offset": 0,
        "slot": "26",
        "type": "t_mapping(t_address,t_array(t_uint256)dyn_storage)"
      },
      {
        "astId": 3811,
        "contract": "contracts/Lending.sol:Lending",
        "label": "bonds",
        "offset": 0,
        "slot": "27",
        "type": "t_mapping(t_uint256,t_struct(Bond)3760_storage)"
      },
      {
        "astId": 3816,
        "contract": "contracts/Lending.sol:Lending",
        "label": "totalLendingPerRuntime",
        "offset": 0,
        "slot": "28",
        "type": "t_mapping(t_address,t_array(t_uint256)dyn_storage)"
      },
      {
        "astId": 3821,
        "contract": "contracts/Lending.sol:Lending",
        "label": "runtimeYieldsFP",
        "offset": 0,
        "slot": "29",
        "type": "t_mapping(t_address,t_array(t_uint256)dyn_storage)"
      },
      {
        "astId": 3824,
        "contract": "contracts/Lending.sol:Lending",
        "label": "nextBondIndex",
        "offset": 0,
        "slot": "30",
        "type": "t_uint256"
      },
      {
        "astId": 9298,
        "contract": "contracts/Lending.sol:Lending",
        "label": "incentiveTranches",
        "offset": 0,
        "slot": "31",
        "type": "t_mapping(t_address,t_uint8)"
      },
      {
        "astId": 9304,
        "contract": "contracts/Lending.sol:Lending",
        "label": "claimIds",
        "offset": 0,
        "slot": "32",
        "type": "t_mapping(t_address,t_mapping(t_address,t_uint256))"
      },
      {
        "astId": 9444,
        "contract": "contracts/Lending.sol:Lending",
        "label": "bondIds",
        "offset": 0,
        "slot": "33",
        "type": "t_mapping(t_address,t_array(t_uint256)dyn_storage)"
      }
    ],
    "types": {
      "t_address": {
        "encoding": "inplace",
        "label": "address",
        "numberOfBytes": "20"
      },
      "t_array(t_uint256)dyn_storage": {
        "base": "t_uint256",
        "encoding": "dynamic_array",
        "label": "uint256[]",
        "numberOfBytes": "32"
      },
      "t_bool": {
        "encoding": "inplace",
        "label": "bool",
        "numberOfBytes": "1"
      },
      "t_contract(Roles)12120": {
        "encoding": "inplace",
        "label": "contract Roles",
        "numberOfBytes": "20"
      },
      "t_mapping(t_address,t_array(t_uint256)dyn_storage)": {
        "encoding": "mapping",
        "key": "t_address",
        "label": "mapping(address => uint256[])",
        "numberOfBytes": "32",
        "value": "t_array(t_uint256)dyn_storage"
      },
      "t_mapping(t_address,t_mapping(t_address,t_struct(HourlyBond)8093_storage))": {
        "encoding": "mapping",
        "key": "t_address",
        "label": "mapping(address => mapping(address => struct HourlyBond))",
        "numberOfBytes": "32",
        "value": "t_mapping(t_address,t_struct(HourlyBond)8093_storage)"
      },
      "t_mapping(t_address,t_mapping(t_address,t_uint256))": {
        "encoding": "mapping",
        "key": "t_address",
        "label": "mapping(address => mapping(address => uint256))",
        "numberOfBytes": "32",
        "value": "t_mapping(t_address,t_uint256)"
      },
      "t_mapping(t_address,t_mapping(t_uint16,t_bool))": {
        "encoding": "mapping",
        "key": "t_address",
        "label": "mapping(address => mapping(uint16 => bool))",
        "numberOfBytes": "32",
        "value": "t_mapping(t_uint16,t_bool)"
      },
      "t_mapping(t_address,t_struct(HourlyBond)8093_storage)": {
        "encoding": "mapping",
        "key": "t_address",
        "label": "mapping(address => struct HourlyBond)",
        "numberOfBytes": "32",
        "value": "t_struct(HourlyBond)8093_storage"
      },
      "t_mapping(t_address,t_struct(YieldAccumulator)8086_storage)": {
        "encoding": "mapping",
        "key": "t_address",
        "label": "mapping(address => struct YieldAccumulator)",
        "numberOfBytes": "32",
        "value": "t_struct(YieldAccumulator)8086_storage"
      },
      "t_mapping(t_address,t_uint256)": {
        "encoding": "mapping",
        "key": "t_address",
        "label": "mapping(address => uint256)",
        "numberOfBytes": "32",
        "value": "t_uint256"
      },
      "t_mapping(t_address,t_uint8)": {
        "encoding": "mapping",
        "key": "t_address",
        "label": "mapping(address => uint8)",
        "numberOfBytes": "32",
        "value": "t_uint8"
      },
      "t_mapping(t_uint16,t_address)": {
        "encoding": "mapping",
        "key": "t_uint16",
        "label": "mapping(uint16 => address)",
        "numberOfBytes": "32",
        "value": "t_address"
      },
      "t_mapping(t_uint16,t_bool)": {
        "encoding": "mapping",
        "key": "t_uint16",
        "label": "mapping(uint16 => bool)",
        "numberOfBytes": "32",
        "value": "t_bool"
      },
      "t_mapping(t_uint256,t_struct(Bond)3760_storage)": {
        "encoding": "mapping",
        "key": "t_uint256",
        "label": "mapping(uint256 => struct Bond)",
        "numberOfBytes": "32",
        "value": "t_struct(Bond)3760_storage"
      },
      "t_struct(Bond)3760_storage": {
        "encoding": "inplace",
        "label": "struct Bond",
        "members": [
          {
            "astId": 3747,
            "contract": "contracts/Lending.sol:Lending",
            "label": "holder",
            "offset": 0,
            "slot": "0",
            "type": "t_address"
          },
          {
            "astId": 3749,
            "contract": "contracts/Lending.sol:Lending",
            "label": "token",
            "offset": 0,
            "slot": "1",
            "type": "t_address"
          },
          {
            "astId": 3751,
            "contract": "contracts/Lending.sol:Lending",
            "label": "originalPrice",
            "offset": 0,
            "slot": "2",
            "type": "t_uint256"
          },
          {
            "astId": 3753,
            "contract": "contracts/Lending.sol:Lending",
            "label": "returnAmount",
            "offset": 0,
            "slot": "3",
            "type": "t_uint256"
          },
          {
            "astId": 3755,
            "contract": "contracts/Lending.sol:Lending",
            "label": "maturityTimestamp",
            "offset": 0,
            "slot": "4",
            "type": "t_uint256"
          },
          {
            "astId": 3757,
            "contract": "contracts/Lending.sol:Lending",
            "label": "runtime",
            "offset": 0,
            "slot": "5",
            "type": "t_uint256"
          },
          {
            "astId": 3759,
            "contract": "contracts/Lending.sol:Lending",
            "label": "yieldFP",
            "offset": 0,
            "slot": "6",
            "type": "t_uint256"
          }
        ],
        "numberOfBytes": "224"
      },
      "t_struct(HourlyBond)8093_storage": {
        "encoding": "inplace",
        "label": "struct HourlyBond",
        "members": [
          {
            "astId": 8088,
            "contract": "contracts/Lending.sol:Lending",
            "label": "amount",
            "offset": 0,
            "slot": "0",
            "type": "t_uint256"
          },
          {
            "astId": 8090,
            "contract": "contracts/Lending.sol:Lending",
            "label": "yieldQuotientFP",
            "offset": 0,
            "slot": "1",
            "type": "t_uint256"
          },
          {
            "astId": 8092,
            "contract": "contracts/Lending.sol:Lending",
            "label": "moduloHour",
            "offset": 0,
            "slot": "2",
            "type": "t_uint256"
          }
        ],
        "numberOfBytes": "96"
      },
      "t_struct(YieldAccumulator)8086_storage": {
        "encoding": "inplace",
        "label": "struct YieldAccumulator",
        "members": [
          {
            "astId": 8081,
            "contract": "contracts/Lending.sol:Lending",
            "label": "accumulatorFP",
            "offset": 0,
            "slot": "0",
            "type": "t_uint256"
          },
          {
            "astId": 8083,
            "contract": "contracts/Lending.sol:Lending",
            "label": "lastUpdated",
            "offset": 0,
            "slot": "1",
            "type": "t_uint256"
          },
          {
            "astId": 8085,
            "contract": "contracts/Lending.sol:Lending",
            "label": "hourlyYieldFP",
            "offset": 0,
            "slot": "2",
            "type": "t_uint256"
          }
        ],
        "numberOfBytes": "96"
      },
      "t_uint16": {
        "encoding": "inplace",
        "label": "uint16",
        "numberOfBytes": "2"
      },
      "t_uint256": {
        "encoding": "inplace",
        "label": "uint256",
        "numberOfBytes": "32"
      },
      "t_uint8": {
        "encoding": "inplace",
        "label": "uint8",
        "numberOfBytes": "1"
      }
    }
  }
}