{
  "address": "0xea4A5DA4E5F52242dAD613e23B26411ac56e5087",
  "abi": [
    {
      "inputs": [
        {
          "internalType": "address",
          "name": "_roles",
          "type": "address"
        }
      ],
      "stateMutability": "nonpayable",
      "type": "constructor"
    },
    {
      "anonymous": false,
      "inputs": [
        {
          "indexed": true,
          "internalType": "address",
          "name": "token",
          "type": "address"
        },
        {
          "indexed": true,
          "internalType": "address",
          "name": "holder",
          "type": "address"
        },
        {
          "indexed": false,
          "internalType": "uint256",
          "name": "value",
          "type": "uint256"
        }
      ],
      "name": "LiquidityWarning",
      "type": "event"
    },
    {
      "anonymous": false,
      "inputs": [
        {
          "indexed": true,
          "internalType": "address",
          "name": "previousOwner",
          "type": "address"
        },
        {
          "indexed": true,
          "internalType": "address",
          "name": "newOwner",
          "type": "address"
        }
      ],
      "name": "OwnershipTransferred",
      "type": "event"
    },
    {
      "inputs": [],
      "name": "WEIGHT_TOTAL_10k",
      "outputs": [
        {
          "internalType": "uint256",
          "name": "",
          "type": "uint256"
        }
      ],
      "stateMutability": "view",
      "type": "function"
    },
    {
      "inputs": [
        {
          "internalType": "uint256",
          "name": "balance",
          "type": "uint256"
        },
        {
          "internalType": "address",
          "name": "token",
          "type": "address"
        },
        {
          "internalType": "uint256",
          "name": "yieldQuotientFP",
          "type": "uint256"
        }
      ],
      "name": "applyBorrowInterest",
      "outputs": [
        {
          "internalType": "uint256",
          "name": "balanceWithInterest",
          "type": "uint256"
        }
      ],
      "stateMutability": "nonpayable",
      "type": "function"
    },
    {
      "inputs": [
        {
          "internalType": "address",
          "name": "",
          "type": "address"
        },
        {
          "internalType": "uint256",
          "name": "",
          "type": "uint256"
        }
      ],
      "name": "bondIds",
      "outputs": [
        {
          "internalType": "uint256",
          "name": "",
          "type": "uint256"
        }
      ],
      "stateMutability": "view",
      "type": "function"
    },
    {
      "inputs": [
        {
          "internalType": "uint256",
          "name": "",
          "type": "uint256"
        }
      ],
      "name": "bonds",
      "outputs": [
        {
          "internalType": "address",
          "name": "holder",
          "type": "address"
        },
        {
          "internalType": "address",
          "name": "token",
          "type": "address"
        },
        {
          "internalType": "uint256",
          "name": "originalPrice",
          "type": "uint256"
        },
        {
          "internalType": "uint256",
          "name": "returnAmount",
          "type": "uint256"
        },
        {
          "internalType": "uint256",
          "name": "maturityTimestamp",
          "type": "uint256"
        },
        {
          "internalType": "uint256",
          "name": "runtime",
          "type": "uint256"
        },
        {
          "internalType": "uint256",
          "name": "yieldFP",
          "type": "uint256"
        }
      ],
      "stateMutability": "view",
      "type": "function"
    },
    {
      "inputs": [
        {
          "internalType": "address",
          "name": "",
          "type": "address"
        }
      ],
      "name": "borrowYieldAccumulators",
      "outputs": [
        {
          "internalType": "uint256",
          "name": "accumulatorFP",
          "type": "uint256"
        },
        {
          "internalType": "uint256",
          "name": "lastUpdated",
          "type": "uint256"
        },
        {
          "internalType": "uint256",
          "name": "hourlyYieldFP",
          "type": "uint256"
        }
      ],
      "stateMutability": "view",
      "type": "function"
    },
    {
      "inputs": [],
      "name": "borrowingFactorPercent",
      "outputs": [
        {
          "internalType": "uint256",
          "name": "",
          "type": "uint256"
        }
      ],
      "stateMutability": "view",
      "type": "function"
    },
    {
      "inputs": [],
      "name": "borrowingMarkupFP",
      "outputs": [
        {
          "internalType": "uint256",
          "name": "",
          "type": "uint256"
        }
      ],
      "stateMutability": "view",
      "type": "function"
    },
    {
      "inputs": [
        {
          "internalType": "address",
          "name": "token",
          "type": "address"
        },
        {
          "internalType": "uint256",
          "name": "runtime",
          "type": "uint256"
        },
        {
          "internalType": "uint256",
          "name": "amount",
          "type": "uint256"
        },
        {
          "internalType": "uint256",
          "name": "minReturn",
          "type": "uint256"
        }
      ],
      "name": "buyBond",
      "outputs": [
        {
          "internalType": "uint256",
          "name": "bondIndex",
          "type": "uint256"
        }
      ],
      "stateMutability": "nonpayable",
      "type": "function"
    },
    {
      "inputs": [
        {
          "internalType": "address",
          "name": "token",
          "type": "address"
        },
        {
          "internalType": "uint256",
          "name": "amount",
          "type": "uint256"
        }
      ],
      "name": "buyHourlyBondSubscription",
      "outputs": [],
      "stateMutability": "nonpayable",
      "type": "function"
    },
    {
      "inputs": [
        {
          "internalType": "address",
          "name": "",
          "type": "address"
        },
        {
          "internalType": "uint256",
          "name": "",
          "type": "uint256"
        }
      ],
      "name": "buyingSpeed",
      "outputs": [
        {
          "internalType": "uint256",
          "name": "",
          "type": "uint256"
        }
      ],
      "stateMutability": "view",
      "type": "function"
    },
    {
      "inputs": [
        {
          "internalType": "address",
          "name": "",
          "type": "address"
        },
        {
          "internalType": "address",
          "name": "",
          "type": "address"
        }
      ],
      "name": "claimIds",
      "outputs": [
        {
          "internalType": "uint256",
          "name": "",
          "type": "uint256"
        }
      ],
      "stateMutability": "view",
      "type": "function"
    },
    {
      "inputs": [
        {
          "internalType": "address",
          "name": "token",
          "type": "address"
        }
      ],
      "name": "closeHourlyBondAccount",
      "outputs": [],
      "stateMutability": "nonpayable",
      "type": "function"
    },
    {
      "inputs": [],
      "name": "diffMaxMinRuntime",
      "outputs": [
        {
          "internalType": "uint256",
          "name": "",
          "type": "uint256"
        }
      ],
      "stateMutability": "view",
      "type": "function"
    },
    {
      "inputs": [
        {
          "internalType": "address",
          "name": "",
          "type": "address"
        },
        {
          "internalType": "address",
          "name": "",
          "type": "address"
        }
      ],
      "name": "hourlyBondAccounts",
      "outputs": [
        {
          "internalType": "uint256",
          "name": "amount",
          "type": "uint256"
        },
        {
          "internalType": "uint256",
          "name": "yieldQuotientFP",
          "type": "uint256"
        },
        {
          "internalType": "uint256",
          "name": "moduloHour",
          "type": "uint256"
        }
      ],
      "stateMutability": "view",
      "type": "function"
    },
    {
      "inputs": [
        {
          "internalType": "address",
          "name": "",
          "type": "address"
        }
      ],
      "name": "hourlyBondBuyingSpeed",
      "outputs": [
        {
          "internalType": "uint256",
          "name": "",
          "type": "uint256"
        }
      ],
      "stateMutability": "view",
      "type": "function"
    },
    {
      "inputs": [
        {
          "internalType": "address",
          "name": "",
          "type": "address"
        }
      ],
      "name": "hourlyBondWithdrawingSpeed",
      "outputs": [
        {
          "internalType": "uint256",
          "name": "",
          "type": "uint256"
        }
      ],
      "stateMutability": "view",
      "type": "function"
    },
    {
      "inputs": [
        {
          "internalType": "address",
          "name": "",
          "type": "address"
        }
      ],
      "name": "hourlyBondYieldAccumulators",
      "outputs": [
        {
          "internalType": "uint256",
          "name": "accumulatorFP",
          "type": "uint256"
        },
        {
          "internalType": "uint256",
          "name": "lastUpdated",
          "type": "uint256"
        },
        {
          "internalType": "uint256",
          "name": "hourlyYieldFP",
          "type": "uint256"
        }
      ],
      "stateMutability": "view",
      "type": "function"
    },
    {
      "inputs": [
        {
          "internalType": "address",
          "name": "",
          "type": "address"
        }
      ],
      "name": "incentiveTranches",
      "outputs": [
        {
          "internalType": "uint8",
          "name": "",
          "type": "uint8"
        }
      ],
      "stateMutability": "view",
      "type": "function"
    },
    {
      "inputs": [
        {
          "internalType": "address",
          "name": "token",
          "type": "address"
        }
      ],
      "name": "initBorrowYieldAccumulator",
      "outputs": [],
      "stateMutability": "nonpayable",
      "type": "function"
    },
    {
      "inputs": [
        {
          "internalType": "address",
          "name": "",
          "type": "address"
        },
        {
          "internalType": "uint256",
          "name": "",
          "type": "uint256"
        }
      ],
      "name": "lastBought",
      "outputs": [
        {
          "internalType": "uint256",
          "name": "",
          "type": "uint256"
        }
      ],
      "stateMutability": "view",
      "type": "function"
    },
    {
      "inputs": [
        {
          "internalType": "address",
          "name": "",
          "type": "address"
        },
        {
          "internalType": "uint256",
          "name": "",
          "type": "uint256"
        }
      ],
      "name": "lastWithdrawn",
      "outputs": [
        {
          "internalType": "uint256",
          "name": "",
          "type": "uint256"
        }
      ],
      "stateMutability": "view",
      "type": "function"
    },
    {
      "inputs": [
        {
          "internalType": "address",
          "name": "",
          "type": "address"
        }
      ],
      "name": "lendingMeta",
      "outputs": [
        {
          "internalType": "uint256",
          "name": "totalLending",
          "type": "uint256"
        },
        {
          "internalType": "uint256",
          "name": "totalBorrowed",
          "type": "uint256"
        },
        {
          "internalType": "uint256",
          "name": "lendingBuffer",
          "type": "uint256"
        },
        {
          "internalType": "uint256",
          "name": "lendingCap",
          "type": "uint256"
        }
      ],
      "stateMutability": "view",
      "type": "function"
    },
    {
      "inputs": [
        {
          "internalType": "uint256",
          "name": "",
          "type": "uint256"
        }
      ],
      "name": "mainCharacterCache",
      "outputs": [
        {
          "internalType": "address",
          "name": "",
          "type": "address"
        }
      ],
      "stateMutability": "view",
      "type": "function"
    },
    {
      "inputs": [],
      "name": "maxHourlyYieldFP",
      "outputs": [
        {
          "internalType": "uint256",
          "name": "",
          "type": "uint256"
        }
      ],
      "stateMutability": "view",
      "type": "function"
    },
    {
      "inputs": [],
      "name": "maxRuntime",
      "outputs": [
        {
          "internalType": "uint256",
          "name": "",
          "type": "uint256"
        }
      ],
      "stateMutability": "view",
      "type": "function"
    },
    {
      "inputs": [],
      "name": "minRuntime",
      "outputs": [
        {
          "internalType": "uint256",
          "name": "",
          "type": "uint256"
        }
      ],
      "stateMutability": "view",
      "type": "function"
    },
    {
      "inputs": [],
      "name": "nextBondIndex",
      "outputs": [
        {
          "internalType": "uint256",
          "name": "",
          "type": "uint256"
        }
      ],
      "stateMutability": "view",
      "type": "function"
    },
    {
      "inputs": [],
      "name": "owner",
      "outputs": [
        {
          "internalType": "address",
          "name": "",
          "type": "address"
        }
      ],
      "stateMutability": "view",
      "type": "function"
    },
    {
      "inputs": [
        {
          "internalType": "address",
          "name": "token",
          "type": "address"
        },
        {
          "internalType": "uint256",
          "name": "amount",
          "type": "uint256"
        }
      ],
      "name": "payOff",
      "outputs": [],
      "stateMutability": "nonpayable",
      "type": "function"
    },
    {
      "inputs": [
        {
          "internalType": "address",
          "name": "token",
          "type": "address"
        },
        {
          "internalType": "uint256",
          "name": "amount",
          "type": "uint256"
        }
      ],
      "name": "registerBorrow",
      "outputs": [],
      "stateMutability": "nonpayable",
      "type": "function"
    },
    {
      "inputs": [],
      "name": "renounceOwnership",
      "outputs": [],
      "stateMutability": "nonpayable",
      "type": "function"
    },
    {
      "inputs": [
        {
          "internalType": "address",
          "name": "",
          "type": "address"
        },
        {
          "internalType": "uint256",
          "name": "",
          "type": "uint256"
        }
      ],
      "name": "roleCache",
      "outputs": [
        {
          "internalType": "bool",
          "name": "",
          "type": "bool"
        }
      ],
      "stateMutability": "view",
      "type": "function"
    },
    {
      "inputs": [],
      "name": "roles",
      "outputs": [
        {
          "internalType": "contract Roles",
          "name": "",
          "type": "address"
        }
      ],
      "stateMutability": "view",
      "type": "function"
    },
    {
      "inputs": [
        {
          "internalType": "address",
          "name": "",
          "type": "address"
        },
        {
          "internalType": "uint256",
          "name": "",
          "type": "uint256"
        }
      ],
      "name": "runtimeWeights",
      "outputs": [
        {
          "internalType": "uint256",
          "name": "",
          "type": "uint256"
        }
      ],
      "stateMutability": "view",
      "type": "function"
    },
    {
      "inputs": [
        {
          "internalType": "uint256",
          "name": "borrowingFactor",
          "type": "uint256"
        }
      ],
      "name": "setBorrowingFactorPercent",
      "outputs": [],
      "stateMutability": "nonpayable",
      "type": "function"
    },
    {
      "inputs": [
        {
          "internalType": "address",
          "name": "token",
          "type": "address"
        },
        {
          "internalType": "uint256",
          "name": "aprPercent",
          "type": "uint256"
        }
      ],
      "name": "setHourlyYieldAPR",
      "outputs": [],
      "stateMutability": "nonpayable",
      "type": "function"
    },
    {
      "inputs": [
        {
          "internalType": "address",
          "name": "token",
          "type": "address"
        },
        {
          "internalType": "uint8",
          "name": "tranche",
          "type": "uint8"
        }
      ],
      "name": "setIncentiveTranche",
      "outputs": [],
      "stateMutability": "nonpayable",
      "type": "function"
    },
    {
      "inputs": [
        {
          "internalType": "address",
          "name": "token",
          "type": "address"
        },
        {
          "internalType": "uint256",
          "name": "buffer",
          "type": "uint256"
        }
      ],
      "name": "setLendingBuffer",
      "outputs": [],
      "stateMutability": "nonpayable",
      "type": "function"
    },
    {
      "inputs": [
        {
          "internalType": "address",
          "name": "token",
          "type": "address"
        },
        {
          "internalType": "uint256",
          "name": "cap",
          "type": "uint256"
        }
      ],
      "name": "setLendingCap",
      "outputs": [],
      "stateMutability": "nonpayable",
      "type": "function"
    },
    {
      "inputs": [
        {
          "internalType": "uint256",
          "name": "maxYieldFP",
          "type": "uint256"
        }
      ],
      "name": "setMaxHourlyYieldFP",
      "outputs": [],
      "stateMutability": "nonpayable",
      "type": "function"
    },
    {
      "inputs": [
        {
          "internalType": "uint256",
          "name": "runtime",
          "type": "uint256"
        }
      ],
      "name": "setMaxRuntime",
      "outputs": [],
      "stateMutability": "nonpayable",
      "type": "function"
    },
    {
      "inputs": [
        {
          "internalType": "uint256",
          "name": "runtime",
          "type": "uint256"
        }
      ],
      "name": "setMinRuntime",
      "outputs": [],
      "stateMutability": "nonpayable",
      "type": "function"
    },
    {
      "inputs": [
        {
          "internalType": "address",
          "name": "token",
          "type": "address"
        },
        {
          "internalType": "uint256[]",
          "name": "weights",
          "type": "uint256[]"
        }
      ],
      "name": "setRuntimeWeights",
      "outputs": [],
      "stateMutability": "nonpayable",
      "type": "function"
    },
    {
      "inputs": [
        {
          "internalType": "address",
          "name": "token",
          "type": "address"
        },
        {
          "internalType": "uint256[]",
          "name": "yieldsFP",
          "type": "uint256[]"
        }
      ],
      "name": "setRuntimeYieldsFP",
      "outputs": [],
      "stateMutability": "nonpayable",
      "type": "function"
    },
    {
      "inputs": [
        {
          "internalType": "uint256",
          "name": "window",
          "type": "uint256"
        }
      ],
      "name": "setWithdrawalWindow",
      "outputs": [],
      "stateMutability": "nonpayable",
      "type": "function"
    },
    {
      "inputs": [
        {
          "internalType": "uint256",
          "name": "changePerSecondFP",
          "type": "uint256"
        }
      ],
      "name": "setYieldChangePerSecondFP",
      "outputs": [],
      "stateMutability": "nonpayable",
      "type": "function"
    },
    {
      "inputs": [
        {
          "internalType": "address",
          "name": "",
          "type": "address"
        },
        {
          "internalType": "uint256",
          "name": "",
          "type": "uint256"
        }
      ],
      "name": "totalLendingPerRuntime",
      "outputs": [
        {
          "internalType": "uint256",
          "name": "",
          "type": "uint256"
        }
      ],
      "stateMutability": "view",
      "type": "function"
    },
    {
      "inputs": [
        {
          "internalType": "address",
          "name": "newOwner",
          "type": "address"
        }
      ],
      "name": "transferOwnership",
      "outputs": [],
      "stateMutability": "nonpayable",
      "type": "function"
    },
    {
      "inputs": [
        {
          "internalType": "uint256",
          "name": "role",
          "type": "uint256"
        }
      ],
      "name": "updateMainCharacterCache",
      "outputs": [],
      "stateMutability": "nonpayable",
      "type": "function"
    },
    {
      "inputs": [
        {
          "internalType": "uint256",
          "name": "role",
          "type": "uint256"
        },
        {
          "internalType": "address",
          "name": "contr",
          "type": "address"
        }
      ],
      "name": "updateRoleCache",
      "outputs": [],
      "stateMutability": "nonpayable",
      "type": "function"
    },
    {
      "inputs": [
        {
          "internalType": "address",
          "name": "token",
          "type": "address"
        },
        {
          "internalType": "uint256",
          "name": "runtime",
          "type": "uint256"
        },
        {
          "internalType": "uint256",
          "name": "amount",
          "type": "uint256"
        }
      ],
      "name": "viewBondReturn",
      "outputs": [
        {
          "internalType": "uint256",
          "name": "",
          "type": "uint256"
        }
      ],
      "stateMutability": "view",
      "type": "function"
    },
    {
      "inputs": [
        {
          "internalType": "uint256",
          "name": "balance",
          "type": "uint256"
        },
        {
          "internalType": "address",
          "name": "token",
          "type": "address"
        },
        {
          "internalType": "uint256",
          "name": "yieldQuotientFP",
          "type": "uint256"
        }
      ],
      "name": "viewBorrowInterest",
      "outputs": [
        {
          "internalType": "uint256",
          "name": "",
          "type": "uint256"
        }
      ],
      "stateMutability": "view",
      "type": "function"
    },
    {
      "inputs": [
        {
          "internalType": "address",
          "name": "token",
          "type": "address"
        }
      ],
      "name": "viewBorrowingYieldFP",
      "outputs": [
        {
          "internalType": "uint256",
          "name": "",
          "type": "uint256"
        }
      ],
      "stateMutability": "view",
      "type": "function"
    },
    {
      "inputs": [
        {
          "internalType": "address",
          "name": "token",
          "type": "address"
        },
        {
          "internalType": "address",
          "name": "holder",
          "type": "address"
        }
      ],
      "name": "viewHourlyBondAmount",
      "outputs": [
        {
          "internalType": "uint256",
          "name": "",
          "type": "uint256"
        }
      ],
      "stateMutability": "view",
      "type": "function"
    },
    {
      "inputs": [
        {
          "internalType": "address",
          "name": "token",
          "type": "address"
        }
      ],
      "name": "viewLendingTarget",
      "outputs": [
        {
          "internalType": "uint256",
          "name": "",
          "type": "uint256"
        }
      ],
      "stateMutability": "view",
      "type": "function"
    },
    {
      "inputs": [
        {
          "internalType": "uint256",
          "name": "bondId",
          "type": "uint256"
        }
      ],
      "name": "withdrawBond",
      "outputs": [],
      "stateMutability": "nonpayable",
      "type": "function"
    },
    {
      "inputs": [
        {
          "internalType": "address",
          "name": "token",
          "type": "address"
        },
        {
          "internalType": "uint256",
          "name": "amount",
          "type": "uint256"
        }
      ],
      "name": "withdrawHourlyBond",
      "outputs": [],
      "stateMutability": "nonpayable",
      "type": "function"
    },
    {
      "inputs": [],
      "name": "withdrawalWindow",
      "outputs": [
        {
          "internalType": "uint256",
          "name": "",
          "type": "uint256"
        }
      ],
      "stateMutability": "view",
      "type": "function"
    },
    {
      "inputs": [
        {
          "internalType": "address",
          "name": "",
          "type": "address"
        },
        {
          "internalType": "uint256",
          "name": "",
          "type": "uint256"
        }
      ],
      "name": "withdrawingSpeed",
      "outputs": [
        {
          "internalType": "uint256",
          "name": "",
          "type": "uint256"
        }
      ],
      "stateMutability": "view",
      "type": "function"
    },
    {
      "inputs": [],
      "name": "yieldChangePerSecondFP",
      "outputs": [
        {
          "internalType": "uint256",
          "name": "",
          "type": "uint256"
        }
      ],
      "stateMutability": "view",
      "type": "function"
    },
    {
      "inputs": [
        {
          "internalType": "address",
          "name": "",
          "type": "address"
        },
        {
          "internalType": "uint256",
          "name": "",
          "type": "uint256"
        }
      ],
      "name": "yieldLastUpdated",
      "outputs": [
        {
          "internalType": "uint256",
          "name": "",
          "type": "uint256"
        }
      ],
      "stateMutability": "view",
      "type": "function"
    }
  ],
  "transactionHash": "0x7e3c8e4388c885a17af2387d1e69b6e0fd6ab64eec671944533d30c8fd982cad",
  "args": [
    "0xC95531a7f6C57456718BCd69a5f64829C7973f11"
  ],
  "solcInputHash": "ec45310c1ebd228212cbc01f9840ea7e",
  "bytecode": "0x60a060405261025860065560c8600a5562278d00600d556301e13380600e556001601a553480156200003057600080fd5b5060405162004a5538038062004a55833981016040819052620000539162000157565b806001600160a01b038116620000865760405162461bcd60e51b81526004016200007d9062000187565b60405180910390fd5b60601b6001600160601b0319166080526000620000a262000153565b600280546001600160a01b0319166001600160a01b038316908117909155604051919250906000907f8be0079c531659141344cd1fd0a4f28419497f9722a3daafe3b4186f6b6457e0908290a35061038361223860646200010983640100000000620001ea565b620001159190620001c9565b620001219190620001c9565b60045560036103e86200013a82640100000000620001ea565b620001469190620001c9565b6005555062000216915050565b3390565b60006020828403121562000169578081fd5b81516001600160a01b038116811462000180578182fd5b9392505050565b60208082526022908201527f506c656173652070726f766964652076616c696420726f6c6573206164647265604082015261737360f01b606082015260800190565b600082620001e557634e487b7160e01b81526012600452602481fd5b500490565b60008160001904831182151516156200021157634e487b7160e01b81526011600452602481fd5b500290565b60805160601c614812620002436000396000818161088b01528181610d5c0152610dcd01526148126000f3fe608060405234801561001057600080fd5b50600436106103af5760003560e01c80638824cbba116101f4578063d19bd0a71161011a578063e9c3f77d116100ad578063f11f97951161007c578063f11f9795146107dc578063f2fde38b146107e4578063f884614b146107f7578063f90889c91461080a576103af565b8063e9c3f77d14610790578063ebc22731146107a3578063ee0862bf146107b6578063ef2cd3b8146107c9576103af565b8063e5ea6606116100e9578063e5ea660614610744578063e695fa6814610757578063e69f89591461076a578063e84bfdf41461077d576103af565b8063d19bd0a714610703578063d2b489341461070b578063d3dc14b21461071e578063dcaf802914610731576103af565b8063ad037af611610192578063c4f7d45d11610161578063c4f7d45d146106b7578063c94426a0146106ca578063cc4b26a3146106dd578063cd3b5dfb146106f0576103af565b8063ad037af614610666578063b8139c6d14610689578063bfedc0bf14610691578063c3daab96146106a4576103af565b80639229e73f116101ce5780639229e73f14610630578063a387832f14610638578063a772404b1461064b578063aa7e321d1461065e576103af565b80638824cbba146105f55780638da5cb5b1461061557806391b46e051461061d576103af565b8063447d52ba116102d95780636e60e249116102775780637b8b4ee2116102465780637b8b4ee21461059a5780637d34e405146105ad578063803a99b7146105c057806383a04229146105d3576103af565b80636e60e24914610557578063715018a61461056a578063773bbb3b146105725780637a1a04df1461057a576103af565b80635adbeb15116102b35780635adbeb15146105035780635f1c17c01461051657806367e2de921461053c578063687680ed14610544576103af565b8063447d52ba146104d55780634804dd34146104e857806358d51f91146104fb576103af565b806320b15515116103515780632a6a897b116103205780632a6a897b14610487578063369539121461049a578063392f5f64146104ad5780633aa58f45146104c2576103af565b806320b1551514610446578063247ae0a614610459578063267031b81461046c5780632864f40114610474576103af565b80630bba92b31161038d5780630bba92b3146103fa5780630f7c43dc1461040d578063117b26301461042057806316de7a4314610433576103af565b80630196c361146103b4578063071060a6146103dd5780630b550546146103f2575b600080fd5b6103c76103c2366004613d60565b61081d565b6040516103d491906145a5565b60405180910390f35b6103f06103eb366004613e4b565b61084e565b005b6103c7610963565b6103c7610408366004613d8b565b610969565b6103f061041b366004613d60565b610a37565b6103c761042e366004613bfe565b610a8d565b6103f0610441366004613d60565b610ac2565b6103c7610454366004613bfe565b610b8e565b6103c7610467366004613d60565b610ba0565b6103c7610bbc565b6103f0610482366004613df9565b610bc2565b6103f0610495366004613d60565b610c62565b6103f06104a8366004613e4b565b610ce2565b6104b5610d5a565b6040516103d49190613ed6565b6103c76104d0366004613bfe565b610d7e565b6103f06104e3366004613e7b565b610d90565b6103f06104f6366004613e4b565b610eb7565b6103c7610f2f565b6103c7610511366004613c36565b610f35565b610529610524366004613e4b565b610f52565b6040516103d49796959493929190613f28565b6103c7610fa8565b6103c7610552366004613e9f565b610fae565b6103c7610565366004613c36565b610fd3565b6103f0611057565b6103c7611139565b61058d610588366004613d60565b61113f565b6040516103d49190613f73565b6103c76105a8366004613dbf565b61115f565b6103f06105bb366004613c6e565b611208565b6103f06105ce366004613e4b565b6112b1565b6105e66105e1366004613c36565b61139f565b6040516103d4939291906145d2565b610608610603366004613bfe565b6113cb565b6040516103d49190614603565b6104b56113e0565b6103f061062b366004613e4b565b6113fc565b6103c7611474565b6103f0610646366004613d60565b61147a565b6103f0610659366004613c6e565b6114e5565b6103c7611c85565b610679610674366004613bfe565b611c8b565b6040516103d494939291906145e8565b6103c7611cb4565b6105e661069f366004613bfe565b611cba565b6103f06106b2366004613e4b565b611cdb565b6103c76106c5366004613d60565b611db2565b6103f06106d8366004613e4b565b611dce565b6103f06106eb366004613bfe565b611e46565b6105e66106fe366004613bfe565b611f10565b6103c7611f31565b6103f0610719366004613d60565b611f37565b6103c761072c366004613d60565b611fa3565b6103c761073f366004613d60565b611fbf565b6103c7610752366004613bfe565b611fdb565b6103c7610765366004613e9f565b611fe9565b6103c7610778366004613d60565b6120b9565b6103c761078b366004613d60565b6120d5565b6104b561079e366004613e4b565b6120f1565b6103f06107b1366004613e4b565b612119565b6103f06107c4366004613d60565b6121cc565b6103c76107d7366004613d60565b61234f565b6103c761236b565b6103f06107f2366004613bfe565b612371565b6103f0610805366004613bfe565b6124bf565b6103f0610818366004613d60565b61251e565b6014602052816000526040600020818154811061083957600080fd5b90600052602060002001600091509150505481565b6040517fb4ed0b6d00000000000000000000000000000000000000000000000000000000815273ffffffffffffffffffffffffffffffffffffffff7f0000000000000000000000000000000000000000000000000000000000000000169063b4ed0b6d906108c09084906004016145a5565b60206040518083038186803b1580156108d857600080fd5b505afa1580156108ec573d6000803e3d6000fd5b505050506040513d601f19601f820116820180604052508101906109109190613c1a565b60009182526020829052604090912080547fffffffffffffffffffffffff00000000000000000000000000000000000000001673ffffffffffffffffffffffffffffffffffffffff909216919091179055565b600f5481565b6000806109768585612663565b90506000610a1186601860008973ffffffffffffffffffffffffffffffffffffffff1673ffffffffffffffffffffffffffffffffffffffff16815260200190815260200160002084815481106109f5577f4e487b7100000000000000000000000000000000000000000000000000000000600052603260045260246000fd5b906000526020600020015486610a0b919061465d565b846126b3565b9050640100000000610a238583614689565b610a2d9190614675565b9695505050505050565b73ffffffffffffffffffffffffffffffffffffffff821660009081526007602090815260408083203384529091529020610a718382612989565b610a7d83823385612a0b565b610a88338484612b38565b505050565b73ffffffffffffffffffffffffffffffffffffffff81166000908152600360205260408120610abb81612c18565b9392505050565b73ffffffffffffffffffffffffffffffffffffffff821660009081526003602052604090208054610af490839061465d565b610afd82612c18565b10610a8857610b0a612c3b565b73ffffffffffffffffffffffffffffffffffffffff1663b3db428b3385856040518463ffffffff1660e01b8152600401610b4693929190613ef7565b600060405180830381600087803b158015610b6057600080fd5b505af1158015610b74573d6000803e3d6000fd5b50505050610b83833384612c80565b610a88338484612d51565b600c6020526000908152604090205481565b6013602052816000526040600020818154811061083957600080fd5b600a5481565b610bcb33612f21565b610c0a576040517f08c379a0000000000000000000000000000000000000000000000000000000008152600401610c0190613fdb565b60405180910390fd5b73ffffffffffffffffffffffffffffffffffffffff919091166000908152601b6020526040902080547fffffffffffffffffffffffffffffffffffffffffffffffffffffffffffffff001660ff909216919091179055565b610c6b33612f58565b610ca1576040517f08c379a0000000000000000000000000000000000000000000000000000000008152600401610c019061456e565b73ffffffffffffffffffffffffffffffffffffffff821660009081526003602052604081206001018054839290610cd99084906146c6565b90915550505050565b610cea612f8f565b73ffffffffffffffffffffffffffffffffffffffff16610d086113e0565b73ffffffffffffffffffffffffffffffffffffffff1614610d55576040517f08c379a0000000000000000000000000000000000000000000000000000000008152600401610c0190614320565b600655565b7f000000000000000000000000000000000000000000000000000000000000000081565b600b6020526000908152604090205481565b6040517f93552a3d00000000000000000000000000000000000000000000000000000000815273ffffffffffffffffffffffffffffffffffffffff7f000000000000000000000000000000000000000000000000000000000000000016906393552a3d90610e0490859085906004016145ae565b60206040518083038186803b158015610e1c57600080fd5b505afa158015610e30573d6000803e3d6000fd5b505050506040513d601f19601f82011682018060405250810190610e549190613e2b565b73ffffffffffffffffffffffffffffffffffffffff9190911660009081526001602090815260408083209483529390529190912080547fffffffffffffffffffffffffffffffffffffffffffffffffffffffffffffff0016911515919091179055565b610ebf612f8f565b73ffffffffffffffffffffffffffffffffffffffff16610edd6113e0565b73ffffffffffffffffffffffffffffffffffffffff1614610f2a576040517f08c379a0000000000000000000000000000000000000000000000000000000008152600401610c0190614320565b600455565b60105481565b601c60209081526000928352604080842090915290825290205481565b601760205260009081526040902080546001820154600283015460038401546004850154600586015460069096015473ffffffffffffffffffffffffffffffffffffffff95861696959094169492939192909187565b60045481565b600080610fbd84600942612f93565b9050610fca858285612ffa565b95945050505050565b73ffffffffffffffffffffffffffffffffffffffff808316600090815260076020908152604080832093851683529290529081206001810154801561103f57815461102a9061102487600842612f93565b83612ffa565b8254611036919061465d565b92505050611051565b815461104c90600061465d565b925050505b92915050565b61105f612f8f565b73ffffffffffffffffffffffffffffffffffffffff1661107d6113e0565b73ffffffffffffffffffffffffffffffffffffffff16146110ca576040517f08c379a0000000000000000000000000000000000000000000000000000000008152600401610c0190614320565b60025460405160009173ffffffffffffffffffffffffffffffffffffffff16907f8be0079c531659141344cd1fd0a4f28419497f9722a3daafe3b4186f6b6457e0908390a3600280547fffffffffffffffffffffffff0000000000000000000000000000000000000000169055565b600d5481565b600160209081526000928352604080842090915290825290205460ff1681565b73ffffffffffffffffffffffffffffffffffffffff84166000908152600360205260408120805461119190859061465d565b61119a82612c18565b101580156111aa575084600e5410155b80156111b85750600d548510155b156111ff576111ca3387878787613019565b915081156111ff57336000818152601d60209081526040822080546001810182559083529120018390556111ff908786612d51565b50949350505050565b611210612f8f565b73ffffffffffffffffffffffffffffffffffffffff1661122e6113e0565b73ffffffffffffffffffffffffffffffffffffffff161461127b576040517f08c379a0000000000000000000000000000000000000000000000000000000008152600401610c0190614320565b73ffffffffffffffffffffffffffffffffffffffff821660009081526019602090815260409091208251610a8892840190613b9e565b6112b9612f8f565b73ffffffffffffffffffffffffffffffffffffffff166112d76113e0565b73ffffffffffffffffffffffffffffffffffffffff1614611324576040517f08c379a0000000000000000000000000000000000000000000000000000000008152600401610c0190614320565b610e10811161135f576040517f08c379a0000000000000000000000000000000000000000000000000000000008152600401610c01906143b2565b80600e541161139a576040517f08c379a0000000000000000000000000000000000000000000000000000000008152600401610c0190614095565b600d55565b600760209081526000928352604080842090915290825290208054600182015460029092015490919083565b601b6020526000908152604090205460ff1681565b60025473ffffffffffffffffffffffffffffffffffffffff1690565b611404612f8f565b73ffffffffffffffffffffffffffffffffffffffff166114226113e0565b73ffffffffffffffffffffffffffffffffffffffff161461146f576040517f08c379a0000000000000000000000000000000000000000000000000000000008152600401610c0190614320565b600a55565b600e5481565b61148333612f21565b6114b9576040517f08c379a0000000000000000000000000000000000000000000000000000000008152600401610c019061446c565b73ffffffffffffffffffffffffffffffffffffffff909116600090815260036020526040902060020155565b6114ee33612f21565b611524576040517f08c379a0000000000000000000000000000000000000000000000000000000008152600401610c019061440f565b73ffffffffffffffffffffffffffffffffffffffff8216600090815260116020526040902054158061157b5750805173ffffffffffffffffffffffffffffffffffffffff8316600090815260116020526040902054145b6115b1576040517f08c379a0000000000000000000000000000000000000000000000000000000008152600401610c0190613f7e565b73ffffffffffffffffffffffffffffffffffffffff8216600090815260116020526040902054611c4f57805167ffffffffffffffff81111561161c577f4e487b7100000000000000000000000000000000000000000000000000000000600052604160045260246000fd5b604051908082528060200260200182016040528015611645578160200160208202803683370190505b5073ffffffffffffffffffffffffffffffffffffffff8316600090815260196020908152604090912082516116809391929190910190613b9e565b50805167ffffffffffffffff8111156116c2577f4e487b7100000000000000000000000000000000000000000000000000000000600052604160045260246000fd5b6040519080825280602002602001820160405280156116eb578160200160208202803683370190505b5073ffffffffffffffffffffffffffffffffffffffff8316600090815260136020908152604090912082516117269391929190910190613b9e565b50805167ffffffffffffffff811115611768577f4e487b7100000000000000000000000000000000000000000000000000000000600052604160045260246000fd5b604051908082528060200260200182016040528015611791578160200160208202803683370190505b5073ffffffffffffffffffffffffffffffffffffffff8316600090815260156020908152604090912082516117cc9391929190910190613b9e565b50805167ffffffffffffffff81111561180e577f4e487b7100000000000000000000000000000000000000000000000000000000600052604160045260246000fd5b604051908082528060200260200182016040528015611837578160200160208202803683370190505b5073ffffffffffffffffffffffffffffffffffffffff8316600090815260166020908152604090912082516118729391929190910190613b9e565b50805167ffffffffffffffff8111156118b4577f4e487b7100000000000000000000000000000000000000000000000000000000600052604160045260246000fd5b6040519080825280602002602001820160405280156118dd578160200160208202803683370190505b5073ffffffffffffffffffffffffffffffffffffffff8316600090815260126020908152604090912082516119189391929190910190613b9e565b50805167ffffffffffffffff81111561195a577f4e487b7100000000000000000000000000000000000000000000000000000000600052604160045260246000fd5b604051908082528060200260200182016040528015611983578160200160208202803683370190505b5073ffffffffffffffffffffffffffffffffffffffff8316600090815260146020908152604090912082516119be9391929190910190613b9e565b50600061223860646119d6640100000000606e614689565b6119e09190614675565b6119ea9190614675565b905060008251600f546119fd9190614675565b905060005b8084511115611c4b576000611a178284614689565b600d54611a24919061465d565b9050611a32610e1082614675565b611a3c9085614689565b73ffffffffffffffffffffffffffffffffffffffff87166000908152601960205260409020805484908110611a9a577f4e487b7100000000000000000000000000000000000000000000000000000000600052603260045260246000fd5b906000526020600020018190555042601360008873ffffffffffffffffffffffffffffffffffffffff1673ffffffffffffffffffffffffffffffffffffffff1681526020019081526020016000208381548110611b20577f4e487b7100000000000000000000000000000000000000000000000000000000600052603260045260246000fd5b906000526020600020018190555042601560008873ffffffffffffffffffffffffffffffffffffffff1673ffffffffffffffffffffffffffffffffffffffff1681526020019081526020016000208381548110611ba6577f4e487b7100000000000000000000000000000000000000000000000000000000600052603260045260246000fd5b906000526020600020018190555042601660008873ffffffffffffffffffffffffffffffffffffffff1673ffffffffffffffffffffffffffffffffffffffff1681526020019081526020016000208381548110611c2c577f4e487b7100000000000000000000000000000000000000000000000000000000600052603260045260246000fd5b6000918252602090912001555080611c43816146dd565b915050611a02565b5050505b73ffffffffffffffffffffffffffffffffffffffff821660009081526011602090815260409091208251610a8892840190613b9e565b601a5481565b600360208190526000918252604090912080546001820154600283015492909301549092919084565b61271081565b60086020526000908152604090208054600182015460029092015490919083565b6000818152601760205260409020805473ffffffffffffffffffffffffffffffffffffffff163314611d39576040517f08c379a0000000000000000000000000000000000000000000000000000000008152600401610c01906144c9565b80600401544211611d76576040517f08c379a0000000000000000000000000000000000000000000000000000000008152600401610c0190614537565b60018101546002820154611da491339173ffffffffffffffffffffffffffffffffffffffff90911690612b38565b611dae8282613377565b5050565b6016602052816000526040600020818154811061083957600080fd5b611dd6612f8f565b73ffffffffffffffffffffffffffffffffffffffff16611df46113e0565b73ffffffffffffffffffffffffffffffffffffffff1614611e41576040517f08c379a0000000000000000000000000000000000000000000000000000000008152600401610c0190614320565b600555565b611e4f33612f21565b611e85576040517f08c379a0000000000000000000000000000000000000000000000000000000008152600401610c019061414f565b73ffffffffffffffffffffffffffffffffffffffff811660009081526009602052604090205415611ee2576040517f08c379a0000000000000000000000000000000000000000000000000000000008152600401610c0190614266565b73ffffffffffffffffffffffffffffffffffffffff1660009081526009602052604090206401000000009055565b60096020526000908152604090208054600182015460029092015490919083565b60065481565b611f4033612f21565b611f76576040517f08c379a0000000000000000000000000000000000000000000000000000000008152600401610c01906141ac565b73ffffffffffffffffffffffffffffffffffffffff90911660009081526003602081905260409091200155565b6018602052816000526040600020818154811061083957600080fd5b6015602052816000526040600020818154811061083957600080fd5b600061105182600942612f93565b6000611ff433612f58565b61202a576040517f08c379a0000000000000000000000000000000000000000000000000000000008152600401610c019061456e565b73ffffffffffffffffffffffffffffffffffffffff83166000908152600960205260409020805461205d90869085612ffa565b9150600061206b86846146c6565b73ffffffffffffffffffffffffffffffffffffffff8616600090815260036020526040812060018101805493945090928492906120a990849061465d565b9091555093979650505050505050565b6012602052816000526040600020818154811061083957600080fd5b6011602052816000526040600020818154811061083957600080fd5b60006020819052908152604090205473ffffffffffffffffffffffffffffffffffffffff1681565b612121612f8f565b73ffffffffffffffffffffffffffffffffffffffff1661213f6113e0565b73ffffffffffffffffffffffffffffffffffffffff161461218c576040517f08c379a0000000000000000000000000000000000000000000000000000000008152600401610c0190614320565b600d5481116121c7576040517f08c379a0000000000000000000000000000000000000000000000000000000008152600401610c0190614355565b600e55565b6121d533612f58565b61220b576040517f08c379a0000000000000000000000000000000000000000000000000000000008152600401610c019061456e565b612213612c3b565b73ffffffffffffffffffffffffffffffffffffffff16635acf6903836040518263ffffffff1660e01b815260040161224b9190613ed6565b60206040518083038186803b15801561226357600080fd5b505afa158015612277573d6000803e3d6000fd5b505050506040513d601f19601f8201168201806040525081019061229b9190613e2b565b6122d1576040517f08c379a0000000000000000000000000000000000000000000000000000000008152600401610c0190614500565b73ffffffffffffffffffffffffffffffffffffffff821660009081526003602052604081206001810180549192849261230b90849061465d565b9091555050600181015481541015610a88576040517f08c379a0000000000000000000000000000000000000000000000000000000008152600401610c0190614038565b601d602052816000526040600020818154811061083957600080fd5b60055481565b612379612f8f565b73ffffffffffffffffffffffffffffffffffffffff166123976113e0565b73ffffffffffffffffffffffffffffffffffffffff16146123e4576040517f08c379a0000000000000000000000000000000000000000000000000000000008152600401610c0190614320565b73ffffffffffffffffffffffffffffffffffffffff8116612431576040517f08c379a0000000000000000000000000000000000000000000000000000000008152600401610c01906140f2565b60025460405173ffffffffffffffffffffffffffffffffffffffff8084169216907f8be0079c531659141344cd1fd0a4f28419497f9722a3daafe3b4186f6b6457e090600090a3600280547fffffffffffffffffffffffff00000000000000000000000000000000000000001673ffffffffffffffffffffffffffffffffffffffff92909216919091179055565b73ffffffffffffffffffffffffffffffffffffffff8116600090815260076020908152604080832033845290915290206124f98282612989565b6125098282338460000154612a0b565b60008082556001820181905560029091015550565b61252733612f21565b61255d576040517f08c379a0000000000000000000000000000000000000000000000000000000008152600401610c01906142c3565b73ffffffffffffffffffffffffffffffffffffffff821660009081526008602052604090205461261a5760408051606081018252640100000000815242602082015290810161223860646125b1858261465d565b6125c090640100000000614689565b6125ca9190614675565b6125d49190614675565b905273ffffffffffffffffffffffffffffffffffffffff831660009081526008602090815260409182902083518155908301516001820155910151600290910155611dae565b6000612625836136ee565b90506122386064612636848261465d565b61264590640100000000614689565b61264f9190614675565b6126599190614675565b6002909101555050565b73ffffffffffffffffffffffffffffffffffffffff821660009081526019602052604081208054600f54839161269891614675565b905080600d54856126a991906146c6565b61104c9190614675565b73ffffffffffffffffffffffffffffffffffffffff83166000908152601960205260408120805483908110612711577f4e487b7100000000000000000000000000000000000000000000000000000000600052603260045260246000fd5b906000526020600020015490506000601660008673ffffffffffffffffffffffffffffffffffffffff1673ffffffffffffffffffffffffffffffffffffffff1681526020019081526020016000208381548110612797577f4e487b7100000000000000000000000000000000000000000000000000000000600052603260045260246000fd5b600091825260208083209091015473ffffffffffffffffffffffffffffffffffffffff881683526003825260408084206011909352832080549194509192916127109187908110612811577f4e487b7100000000000000000000000000000000000000000000000000000000600052603260045260246000fd5b906000526020600020015461282584612c18565b61282f9190614689565b6128399190614675565b73ffffffffffffffffffffffffffffffffffffffff88166000908152601260205260408120805492935090918790811061289c577f4e487b7100000000000000000000000000000000000000000000000000000000600052603260045260246000fd5b906000526020600020015490506000601460008a73ffffffffffffffffffffffffffffffffffffffff1673ffffffffffffffffffffffffffffffffffffffff1681526020019081526020016000208781548110612922577f4e487b7100000000000000000000000000000000000000000000000000000000600052603260045260246000fd5b906000526020600020015490506000600f548861293f9190614689565b600d5461294c919061465d565b9050600061295c610e1083614675565b6004546129699190614689565b905061297a88888c88888887613855565b9b9a5050505050505050505050565b60018101548015610a8857600061299f846136ee565b83548154919250906129b390829085612ffa565b8085556000906129c49083906146c6565b73ffffffffffffffffffffffffffffffffffffffff87166000908152600360205260408120805492935083929091906129fe90849061465d565b9091555050505050505050565b6000610e10846002015442612a2091906146c6565b612a2a9190614716565b9050806006541015612a68576040517f08c379a0000000000000000000000000000000000000000000000000000000008152600401610c0190614209565b612a70612c3b565b73ffffffffffffffffffffffffffffffffffffffff1663d9caed128685856040518463ffffffff1660e01b8152600401612aac93929190613ef7565b600060405180830381600087803b158015612ac657600080fd5b505af1158015612ada573d6000803e3d6000fd5b5050505081846000016000828254612af291906146c6565b909155505073ffffffffffffffffffffffffffffffffffffffff851660009081526003602052604081208054849290612b2c9084906146c6565b90915550505050505050565b73ffffffffffffffffffffffffffffffffffffffff8084166000908152601c60209081526040808320938616835292905220548015612c125773ffffffffffffffffffffffffffffffffffffffff83166000908152601b602052604090205460ff16612ba26138ca565b73ffffffffffffffffffffffffffffffffffffffff1663a80167118284866040518463ffffffff1660e01b8152600401612bde93929190614642565b600060405180830381600087803b158015612bf857600080fd5b505af1158015612c0c573d6000803e3d6000fd5b50505050505b50505050565b6000611051826003015483600201548460010154612c36919061465d565b61390f565b606560009081526020527f4a7203f705e51df4a56139a9b86b4a0970bed7ab7a3446eaffe2289989c1645c5473ffffffffffffffffffffffffffffffffffffffff1690565b73ffffffffffffffffffffffffffffffffffffffff8084166000908152600760209081526040808320938616835292905220612cbc8482612989565b73ffffffffffffffffffffffffffffffffffffffff84166000908152600860205260409020546001820155612cf3610e1042614716565b6002820155805482908290600090612d0c90849061465d565b909155505073ffffffffffffffffffffffffffffffffffffffff841660009081526003602052604081208054849290612d4690849061465d565b909155505050505050565b6000612d5b6138ca565b73ffffffffffffffffffffffffffffffffffffffff8086166000908152601c60209081526040808320938816835292815282822054601b909152919020549192509060ff168115612e33576040517ff542808700000000000000000000000000000000000000000000000000000000815273ffffffffffffffffffffffffffffffffffffffff84169063f542808790612dfc90849086908990600401614642565b600060405180830381600087803b158015612e1657600080fd5b505af1158015612e2a573d6000803e3d6000fd5b50505050612f19565b6040517f583d861600000000000000000000000000000000000000000000000000000000815273ffffffffffffffffffffffffffffffffffffffff84169063583d861690612e899084908a908990600401614611565b602060405180830381600087803b158015612ea357600080fd5b505af1158015612eb7573d6000803e3d6000fd5b505050506040513d601f19601f82011682018060405250810190612edb9190613e63565b91508115612f195773ffffffffffffffffffffffffffffffffffffffff8087166000908152601c602090815260408083209389168352929052208290555b505050505050565b73ffffffffffffffffffffffffffffffffffffffff1660009081526001602090815260408083206009845290915290205460ff1690565b73ffffffffffffffffffffffffffffffffffffffff1660009081526001602090815260408083206003845290915290205460ff1690565b3390565b73ffffffffffffffffffffffffffffffffffffffff83166000908152602083905260408120600101548190612fc890846146c6565b73ffffffffffffffffffffffffffffffffffffffff86166000908152602086905260409020909150610fca9082613927565b6000816130078486614689565b6130119190614675565b949350505050565b6000806130268686612663565b905060006130bb87601860008a73ffffffffffffffffffffffffffffffffffffffff1673ffffffffffffffffffffffffffffffffffffffff16815260200190815260200160002084815481106130a5577f4e487b7100000000000000000000000000000000000000000000000000000000600052603260045260246000fd5b906000526020600020015487610a0b919061465d565b905060006401000000006130cf8784614689565b6130d99190614675565b905084811061336b576130ea612c3b565b73ffffffffffffffffffffffffffffffffffffffff1663b3db428b8a8a896040518463ffffffff1660e01b815260040161312693929190613ef7565b600060405180830381600087803b15801561314057600080fd5b505af1158015613154573d6000803e3d6000fd5b50505050600060028288613168919061465d565b6131729190614675565b73ffffffffffffffffffffffffffffffffffffffff8a166000908152600360205260408120805492935083929091906131ac90849061465d565b909155505073ffffffffffffffffffffffffffffffffffffffff89166000908152601860205260409020805482919086908110613212577f4e487b7100000000000000000000000000000000000000000000000000000000600052603260045260246000fd5b90600052602060002001600082825461322b919061465d565b9091555050601a8054955085906000613243836146dd565b91905055506040518060e001604052808b73ffffffffffffffffffffffffffffffffffffffff1681526020018a73ffffffffffffffffffffffffffffffffffffffff16815260200188815260200183815260200189426132a3919061465d565b815260208082018b90526040918201869052600088815260178252828120845181547fffffffffffffffffffffffff000000000000000000000000000000000000000090811673ffffffffffffffffffffffffffffffffffffffff92831617835586850151600184018054909216908316179055858501516002830155606086015160038301556080860151600483015560a0860151600583015560c090950151600690910155928c16835260128152818320601390915291206133699190868a6139d0565b505b50505095945050505050565b6001810154600582015473ffffffffffffffffffffffffffffffffffffffff909116906000906133a8908390612663565b60038401548454600280870154939450919273ffffffffffffffffffffffffffffffffffffffff909116916000916133e190859061465d565b6133eb9190614675565b73ffffffffffffffffffffffffffffffffffffffff86166000908152600360205260408120805492935091839183916134259084906146c6565b909155505073ffffffffffffffffffffffffffffffffffffffff8616600090815260186020526040902080548391908790811061348b577f4e487b7100000000000000000000000000000000000000000000000000000000600052603260045260246000fd5b9060005260206000200160008282546134a491906146c6565b909155505073ffffffffffffffffffffffffffffffffffffffff86166000908152601460209081526040808320601590925290912060028901546134eb92919088906139d0565b600088815260176020526040812080547fffffffffffffffffffffffff00000000000000000000000000000000000000009081168255600180830180549092169091556002820183905560038201839055600482018390556005820183905560069091019190915581549082015411806135f35750838673ffffffffffffffffffffffffffffffffffffffff166370a08231613585612c3b565b6040518263ffffffff1660e01b81526004016135a19190613ed6565b60206040518083038186803b1580156135b957600080fd5b505afa1580156135cd573d6000803e3d6000fd5b505050506040513d601f19601f820116820180604052508101906135f19190613e63565b105b1561366d578273ffffffffffffffffffffffffffffffffffffffff168673ffffffffffffffffffffffffffffffffffffffff167fbcab653cf73e12f7bb78aa625dccb002864f5de7de2518796fb5b82fd6e6ab058660405161365591906145a5565b60405180910390a3613668868486613b93565b6136e4565b613675612c3b565b73ffffffffffffffffffffffffffffffffffffffff1663d9caed128785876040518463ffffffff1660e01b81526004016136b193929190613ef7565b600060405180830381600087803b1580156136cb57600080fd5b505af11580156136df573d6000803e3d6000fd5b505050505b5050505050505050565b73ffffffffffffffffffffffffffffffffffffffff81166000908152600860205260408120600181015490919061372590426146c6565b90506137318282613927565b825573ffffffffffffffffffffffffffffffffffffffff831660009081526003602052604090206002830154600184015482546137ad92919061377385612c18565b73ffffffffffffffffffffffffffffffffffffffff89166000908152600b6020908152604080832054600c90925290912054600454613855565b600284015573ffffffffffffffffffffffffffffffffffffffff8416600090815260096020526040902060018101546137e690426146c6565b92506137f28184613927565b81556002840154600a5460649161380891614689565b6138129190614675565b73ffffffffffffffffffffffffffffffffffffffff9095166000908152600960205260409020600201949094555050426001808301829055929092019190915590565b86600061386288426146c6565b90506000600554826138749190614689565b905086881015806138855750848610155b156138a557613894838261390f565b61389e90846146c6565b92506138bd565b6138af818461465d565b9250838311156138bd578392505b5050979650505050505050565b606c60009081526020527f3c1fcba39712202dbd455253568bf32dd0a3bedb5c3ff0de4b22d4e45e50dc925473ffffffffffffffffffffffffffffffffffffffff1690565b600081831115613920575080611051565b5081611051565b600080613936610e1084614716565b9050613949640100000000610e10614689565b60028501548554839161395b91614689565b6139659190614689565b61396f9190614675565b9150600061397f610e1085614675565b905080156139c85760005b808211156139c6576401000000008660020154856139a89190614689565b6139b29190614675565b9350806139be816146dd565b91505061398a565b505b505092915050565b8354600f546000916139e191614675565b905060006139ef8483614689565b600d546139fc919061465d565b90506000858581548110613a39577f4e487b7100000000000000000000000000000000000000000000000000000000600052603260045260246000fd5b906000526020600020015442613a4f91906146c6565b90506000613a5e82600161465d565b613a688487614689565b613a729190614675565b90506000613a8261025885614675565b9050613a8e838261465d565b613a988484614689565b828b8a81548110613ad2577f4e487b7100000000000000000000000000000000000000000000000000000000600052603260045260246000fd5b9060005260206000200154613ae79190614689565b613af1919061465d565b613afb9190614675565b898881548110613b34577f4e487b7100000000000000000000000000000000000000000000000000000000600052603260045260246000fd5b906000526020600020018190555042888881548110613b7c577f4e487b7100000000000000000000000000000000000000000000000000000000600052603260045260246000fd5b600091825260209091200155505050505050505050565b610a88838383612c80565b828054828255906000526020600020908101928215613bd9579160200282015b82811115613bd9578251825591602001919060010190613bbe565b50613be5929150613be9565b5090565b5b80821115613be55760008155600101613bea565b600060208284031215613c0f578081fd5b8135610abb816147b7565b600060208284031215613c2b578081fd5b8151610abb816147b7565b60008060408385031215613c48578081fd5b8235613c53816147b7565b91506020830135613c63816147b7565b809150509250929050565b60008060408385031215613c80578182fd5b8235613c8b816147b7565b915060208381013567ffffffffffffffff80821115613ca8578384fd5b818601915086601f830112613cbb578384fd5b813581811115613ccd57613ccd614788565b8381026040517fffffffffffffffffffffffffffffffffffffffffffffffffffffffffffffffe0603f83011681018181108582111715613d0f57613d0f614788565b604052828152858101935084860182860187018b1015613d2d578788fd5b8795505b83861015613d4f578035855260019590950194938601938601613d31565b508096505050505050509250929050565b60008060408385031215613d72578182fd5b8235613d7d816147b7565b946020939093013593505050565b600080600060608486031215613d9f578081fd5b8335613daa816147b7565b95602085013595506040909401359392505050565b60008060008060808587031215613dd4578081fd5b8435613ddf816147b7565b966020860135965060408601359560600135945092505050565b60008060408385031215613e0b578182fd5b8235613e16816147b7565b9150602083013560ff81168114613c63578182fd5b600060208284031215613e3c578081fd5b81518015158114610abb578182fd5b600060208284031215613e5c578081fd5b5035919050565b600060208284031215613e74578081fd5b5051919050565b60008060408385031215613e8d578182fd5b823591506020830135613c63816147b7565b600080600060608486031215613eb3578283fd5b833592506020840135613ec5816147b7565b929592945050506040919091013590565b73ffffffffffffffffffffffffffffffffffffffff91909116815260200190565b73ffffffffffffffffffffffffffffffffffffffff9384168152919092166020820152604081019190915260600190565b73ffffffffffffffffffffffffffffffffffffffff978816815295909616602086015260408501939093526060840191909152608083015260a082015260c081019190915260e00190565b901515815260200190565b60208082526022908201527f43616e6e6f74206368616e67652073697a65206f66207765696768742061727260408201527f6179000000000000000000000000000000000000000000000000000000000000606082015260800190565b6020808252602e908201527f43616c6c6572206e6f7420617574686f72697a656420746f2073657420696e6360408201527f656e74697665207472616e636865000000000000000000000000000000000000606082015260800190565b6020808252602e908201527f496e73756666696369656e74206361706974616c20746f206c656e642c20747260408201527f7920616761696e206c6174657221000000000000000000000000000000000000606082015260800190565b6020808252602c908201527f4d696e2072756e74696d65206d75737420626520736d616c6c6572207468616e60408201527f206d61782072756e74696d650000000000000000000000000000000000000000606082015260800190565b60208082526026908201527f4f776e61626c653a206e6577206f776e657220697320746865207a65726f206160408201527f6464726573730000000000000000000000000000000000000000000000000000606082015260800190565b60208082526027908201527f6e6f74206175746f72697a656420746f20696e6974207969656c64206163637560408201527f6d756c61746f7200000000000000000000000000000000000000000000000000606082015260800190565b60208082526021908201527f6e6f7420617574686f72697a656420746f20736574206c656e64696e6720636160408201527f7000000000000000000000000000000000000000000000000000000000000000606082015260800190565b6020808252603f908201527f5472696564207769746864726177696e67206f7574736964652073756273637260408201527f697074696f6e2063616e63656c6c6174696f6e2074696d652077696e646f7700606082015260800190565b60208082526029908201527f747279696e6720746f2072652d696e697469616c697a65207969656c6420616360408201527f63756d756c61746f720000000000000000000000000000000000000000000000606082015260800190565b60208082526022908201527f6e6f7420617574686f72697a656420746f2073657420686f75726c792079696560408201527f6c64000000000000000000000000000000000000000000000000000000000000606082015260800190565b6020808252818101527f4f776e61626c653a2063616c6c6572206973206e6f7420746865206f776e6572604082015260600190565b6020808252602c908201527f4d61782072756e74696d65206d7573742062652067726561746572207468616e60408201527f206d696e2072756e74696d650000000000000000000000000000000000000000606082015260800190565b60208082526027908201527f4d696e2072756e74696d65206e6565647320746f206265206174206c6561737460408201527f203120686f757200000000000000000000000000000000000000000000000000606082015260800190565b60208082526024908201527f6e6f74206175746f72697a656420746f207365742072756e74696d652077656960408201527f6768747300000000000000000000000000000000000000000000000000000000606082015260800190565b60208082526023908201527f6e6f74206175746f72697a656420746f20736574206c656e64696e672062756660408201527f6665720000000000000000000000000000000000000000000000000000000000606082015260800190565b60208082526012908201527f4e6f7420686f6c646572206f6620626f6e640000000000000000000000000000604082015260600190565b60208082526015908201527f4e6f7420616e20617070726f76656420746f6b656e0000000000000000000000604082015260600190565b60208082526016908201527f626f6e64206973207374696c6c20696d6d617475726500000000000000000000604082015260600190565b60208082526018908201527f4e6f7420616e20617070726f76656420626f72726f7765720000000000000000604082015260600190565b90815260200190565b91825273ffffffffffffffffffffffffffffffffffffffff16602082015260400190565b9283526020830191909152604082015260600190565b93845260208401929092526040830152606082015260800190565b60ff91909116815260200190565b60ff93909316835273ffffffffffffffffffffffffffffffffffffffff919091166020830152604082015260600190565b60ff9390931683526020830191909152604082015260600190565b600082198211156146705761467061472a565b500190565b60008261468457614684614759565b500490565b6000817fffffffffffffffffffffffffffffffffffffffffffffffffffffffffffffffff04831182151516156146c1576146c161472a565b500290565b6000828210156146d8576146d861472a565b500390565b60007fffffffffffffffffffffffffffffffffffffffffffffffffffffffffffffffff82141561470f5761470f61472a565b5060010190565b60008261472557614725614759565b500690565b7f4e487b7100000000000000000000000000000000000000000000000000000000600052601160045260246000fd5b7f4e487b7100000000000000000000000000000000000000000000000000000000600052601260045260246000fd5b7f4e487b7100000000000000000000000000000000000000000000000000000000600052604160045260246000fd5b73ffffffffffffffffffffffffffffffffffffffff811681146147d957600080fd5b5056fea2646970667358221220472edcad0a2a7dd67d2a86c5533a7b75e3316433cd9e77b41762056dbc42f88364736f6c63430008010033",
  "devdoc": {
    "kind": "dev",
    "methods": {
      "applyBorrowInterest(uint256,address,uint256)": {
        "details": "how much interest has accrued to a borrowed balance over time"
      },
      "buyBond(address,uint256,uint256,uint256)": {
        "details": "buy fixed term bond that does not renew"
      },
      "buyHourlyBondSubscription(address,uint256)": {
        "details": "buy hourly bond subscription"
      },
      "owner()": {
        "details": "Returns the address of the current owner."
      },
      "payOff(address,uint256)": {
        "details": "gets called by router if loan is extinguished"
      },
      "registerBorrow(address,uint256)": {
        "details": "gets called by router to register if a trader borrows tokens"
      },
      "renounceOwnership()": {
        "details": "Leaves the contract without owner. It will not be possible to call `onlyOwner` functions anymore. Can only be called by the current owner. NOTE: Renouncing ownership will leave the contract without an owner, thereby removing any functionality that is only available to the owner."
      },
      "transferOwnership(address)": {
        "details": "Transfers ownership of the contract to a new account (`newOwner`). Can only be called by the current owner."
      },
      "viewBorrowInterest(uint256,address,uint256)": {
        "details": "view function to get current borrowing interest"
      },
      "viewBorrowingYieldFP(address)": {
        "details": "get the borrow yield"
      },
      "withdrawBond(uint256)": {
        "details": "send back funds of bond after maturity"
      },
      "withdrawHourlyBond(address,uint256)": {
        "details": "withdraw an hour bond"
      }
    },
    "stateVariables": {
      "bondIds": {
        "details": "IDs for all bonds held by an address"
      }
    },
    "version": 1
  },
  "userdoc": {
    "kind": "user",
    "methods": {},
    "version": 1
  },
  "storageLayout": {
    "storage": [
      {
        "astId": 12289,
        "contract": "contracts/Lending.sol:Lending",
        "label": "mainCharacterCache",
        "offset": 0,
        "slot": "0",
        "type": "t_mapping(t_uint256,t_address)"
      },
      {
        "astId": 12295,
        "contract": "contracts/Lending.sol:Lending",
        "label": "roleCache",
        "offset": 0,
        "slot": "1",
        "type": "t_mapping(t_address,t_mapping(t_uint256,t_bool))"
      },
      {
        "astId": 381,
        "contract": "contracts/Lending.sol:Lending",
        "label": "_owner",
        "offset": 0,
        "slot": "2",
        "type": "t_address"
      },
      {
        "astId": 3509,
        "contract": "contracts/Lending.sol:Lending",
        "label": "lendingMeta",
        "offset": 0,
        "slot": "3",
        "type": "t_mapping(t_address,t_struct(LendingMetadata)3504_storage)"
      },
      {
        "astId": 3511,
        "contract": "contracts/Lending.sol:Lending",
        "label": "maxHourlyYieldFP",
        "offset": 0,
        "slot": "4",
        "type": "t_uint256"
      },
      {
        "astId": 3513,
        "contract": "contracts/Lending.sol:Lending",
        "label": "yieldChangePerSecondFP",
        "offset": 0,
        "slot": "5",
        "type": "t_uint256"
      },
      {
        "astId": 8426,
        "contract": "contracts/Lending.sol:Lending",
        "label": "withdrawalWindow",
        "offset": 0,
        "slot": "6",
        "type": "t_uint256"
      },
      {
        "astId": 8433,
        "contract": "contracts/Lending.sol:Lending",
        "label": "hourlyBondAccounts",
        "offset": 0,
        "slot": "7",
        "type": "t_mapping(t_address,t_mapping(t_address,t_struct(HourlyBond)8420_storage))"
      },
      {
        "astId": 8438,
        "contract": "contracts/Lending.sol:Lending",
        "label": "hourlyBondYieldAccumulators",
        "offset": 0,
        "slot": "8",
        "type": "t_mapping(t_address,t_struct(YieldAccumulator)8413_storage)"
      },
      {
        "astId": 8444,
        "contract": "contracts/Lending.sol:Lending",
        "label": "borrowYieldAccumulators",
        "offset": 0,
        "slot": "9",
        "type": "t_mapping(t_address,t_struct(YieldAccumulator)8413_storage)"
      },
      {
        "astId": 8447,
        "contract": "contracts/Lending.sol:Lending",
        "label": "borrowingFactorPercent",
        "offset": 0,
        "slot": "10",
        "type": "t_uint256"
      },
      {
        "astId": 8451,
        "contract": "contracts/Lending.sol:Lending",
        "label": "hourlyBondBuyingSpeed",
        "offset": 0,
        "slot": "11",
        "type": "t_mapping(t_address,t_uint256)"
      },
      {
        "astId": 8455,
        "contract": "contracts/Lending.sol:Lending",
        "label": "hourlyBondWithdrawingSpeed",
        "offset": 0,
        "slot": "12",
        "type": "t_mapping(t_address,t_uint256)"
      },
      {
        "astId": 3765,
        "contract": "contracts/Lending.sol:Lending",
        "label": "minRuntime",
        "offset": 0,
        "slot": "13",
        "type": "t_uint256"
      },
      {
        "astId": 3768,
        "contract": "contracts/Lending.sol:Lending",
        "label": "maxRuntime",
        "offset": 0,
        "slot": "14",
        "type": "t_uint256"
      },
      {
        "astId": 3770,
        "contract": "contracts/Lending.sol:Lending",
        "label": "diffMaxMinRuntime",
        "offset": 0,
        "slot": "15",
        "type": "t_uint256"
      },
      {
        "astId": 3775,
        "contract": "contracts/Lending.sol:Lending",
        "label": "borrowingMarkupFP",
        "offset": 0,
        "slot": "16",
        "type": "t_uint256"
      },
      {
        "astId": 3780,
        "contract": "contracts/Lending.sol:Lending",
        "label": "runtimeWeights",
        "offset": 0,
        "slot": "17",
        "type": "t_mapping(t_address,t_array(t_uint256)dyn_storage)"
      },
      {
        "astId": 3785,
        "contract": "contracts/Lending.sol:Lending",
        "label": "buyingSpeed",
        "offset": 0,
        "slot": "18",
        "type": "t_mapping(t_address,t_array(t_uint256)dyn_storage)"
      },
      {
        "astId": 3790,
        "contract": "contracts/Lending.sol:Lending",
        "label": "lastBought",
        "offset": 0,
        "slot": "19",
        "type": "t_mapping(t_address,t_array(t_uint256)dyn_storage)"
      },
      {
        "astId": 3795,
        "contract": "contracts/Lending.sol:Lending",
        "label": "withdrawingSpeed",
        "offset": 0,
        "slot": "20",
        "type": "t_mapping(t_address,t_array(t_uint256)dyn_storage)"
      },
      {
        "astId": 3800,
        "contract": "contracts/Lending.sol:Lending",
        "label": "lastWithdrawn",
        "offset": 0,
        "slot": "21",
        "type": "t_mapping(t_address,t_array(t_uint256)dyn_storage)"
      },
      {
        "astId": 3805,
        "contract": "contracts/Lending.sol:Lending",
        "label": "yieldLastUpdated",
        "offset": 0,
        "slot": "22",
        "type": "t_mapping(t_address,t_array(t_uint256)dyn_storage)"
      },
      {
        "astId": 3810,
        "contract": "contracts/Lending.sol:Lending",
        "label": "bonds",
        "offset": 0,
        "slot": "23",
        "type": "t_mapping(t_uint256,t_struct(Bond)3759_storage)"
      },
      {
        "astId": 3815,
        "contract": "contracts/Lending.sol:Lending",
        "label": "totalLendingPerRuntime",
        "offset": 0,
        "slot": "24",
        "type": "t_mapping(t_address,t_array(t_uint256)dyn_storage)"
      },
      {
        "astId": 3820,
        "contract": "contracts/Lending.sol:Lending",
        "label": "runtimeYieldsFP",
        "offset": 0,
        "slot": "25",
        "type": "t_mapping(t_address,t_array(t_uint256)dyn_storage)"
      },
      {
        "astId": 3823,
        "contract": "contracts/Lending.sol:Lending",
        "label": "nextBondIndex",
        "offset": 0,
        "slot": "26",
        "type": "t_uint256"
      },
      {
        "astId": 9676,
        "contract": "contracts/Lending.sol:Lending",
        "label": "incentiveTranches",
        "offset": 0,
        "slot": "27",
        "type": "t_mapping(t_address,t_uint8)"
      },
      {
        "astId": 9682,
        "contract": "contracts/Lending.sol:Lending",
        "label": "claimIds",
        "offset": 0,
        "slot": "28",
        "type": "t_mapping(t_address,t_mapping(t_address,t_uint256))"
      },
      {
        "astId": 9871,
        "contract": "contracts/Lending.sol:Lending",
        "label": "bondIds",
        "offset": 0,
        "slot": "29",
        "type": "t_mapping(t_address,t_array(t_uint256)dyn_storage)"
      }
    ],
    "types": {
      "t_address": {
        "encoding": "inplace",
        "label": "address",
        "numberOfBytes": "20"
      },
      "t_array(t_uint256)dyn_storage": {
        "base": "t_uint256",
        "encoding": "dynamic_array",
        "label": "uint256[]",
        "numberOfBytes": "32"
      },
      "t_bool": {
        "encoding": "inplace",
        "label": "bool",
        "numberOfBytes": "1"
      },
      "t_mapping(t_address,t_array(t_uint256)dyn_storage)": {
        "encoding": "mapping",
        "key": "t_address",
        "label": "mapping(address => uint256[])",
        "numberOfBytes": "32",
        "value": "t_array(t_uint256)dyn_storage"
      },
      "t_mapping(t_address,t_mapping(t_address,t_struct(HourlyBond)8420_storage))": {
        "encoding": "mapping",
        "key": "t_address",
        "label": "mapping(address => mapping(address => struct HourlyBond))",
        "numberOfBytes": "32",
        "value": "t_mapping(t_address,t_struct(HourlyBond)8420_storage)"
      },
      "t_mapping(t_address,t_mapping(t_address,t_uint256))": {
        "encoding": "mapping",
        "key": "t_address",
        "label": "mapping(address => mapping(address => uint256))",
        "numberOfBytes": "32",
        "value": "t_mapping(t_address,t_uint256)"
      },
      "t_mapping(t_address,t_mapping(t_uint256,t_bool))": {
        "encoding": "mapping",
        "key": "t_address",
        "label": "mapping(address => mapping(uint256 => bool))",
        "numberOfBytes": "32",
        "value": "t_mapping(t_uint256,t_bool)"
      },
      "t_mapping(t_address,t_struct(HourlyBond)8420_storage)": {
        "encoding": "mapping",
        "key": "t_address",
        "label": "mapping(address => struct HourlyBond)",
        "numberOfBytes": "32",
        "value": "t_struct(HourlyBond)8420_storage"
      },
      "t_mapping(t_address,t_struct(LendingMetadata)3504_storage)": {
        "encoding": "mapping",
        "key": "t_address",
        "label": "mapping(address => struct BaseLending.LendingMetadata)",
        "numberOfBytes": "32",
        "value": "t_struct(LendingMetadata)3504_storage"
      },
      "t_mapping(t_address,t_struct(YieldAccumulator)8413_storage)": {
        "encoding": "mapping",
        "key": "t_address",
        "label": "mapping(address => struct YieldAccumulator)",
        "numberOfBytes": "32",
        "value": "t_struct(YieldAccumulator)8413_storage"
      },
      "t_mapping(t_address,t_uint256)": {
        "encoding": "mapping",
        "key": "t_address",
        "label": "mapping(address => uint256)",
        "numberOfBytes": "32",
        "value": "t_uint256"
      },
      "t_mapping(t_address,t_uint8)": {
        "encoding": "mapping",
        "key": "t_address",
        "label": "mapping(address => uint8)",
        "numberOfBytes": "32",
        "value": "t_uint8"
      },
      "t_mapping(t_uint256,t_address)": {
        "encoding": "mapping",
        "key": "t_uint256",
        "label": "mapping(uint256 => address)",
        "numberOfBytes": "32",
        "value": "t_address"
      },
      "t_mapping(t_uint256,t_bool)": {
        "encoding": "mapping",
        "key": "t_uint256",
        "label": "mapping(uint256 => bool)",
        "numberOfBytes": "32",
        "value": "t_bool"
      },
      "t_mapping(t_uint256,t_struct(Bond)3759_storage)": {
        "encoding": "mapping",
        "key": "t_uint256",
        "label": "mapping(uint256 => struct Bond)",
        "numberOfBytes": "32",
        "value": "t_struct(Bond)3759_storage"
      },
      "t_struct(Bond)3759_storage": {
        "encoding": "inplace",
        "label": "struct Bond",
        "members": [
          {
            "astId": 3746,
            "contract": "contracts/Lending.sol:Lending",
            "label": "holder",
            "offset": 0,
            "slot": "0",
            "type": "t_address"
          },
          {
            "astId": 3748,
            "contract": "contracts/Lending.sol:Lending",
            "label": "token",
            "offset": 0,
            "slot": "1",
            "type": "t_address"
          },
          {
            "astId": 3750,
            "contract": "contracts/Lending.sol:Lending",
            "label": "originalPrice",
            "offset": 0,
            "slot": "2",
            "type": "t_uint256"
          },
          {
            "astId": 3752,
            "contract": "contracts/Lending.sol:Lending",
            "label": "returnAmount",
            "offset": 0,
            "slot": "3",
            "type": "t_uint256"
          },
          {
            "astId": 3754,
            "contract": "contracts/Lending.sol:Lending",
            "label": "maturityTimestamp",
            "offset": 0,
            "slot": "4",
            "type": "t_uint256"
          },
          {
            "astId": 3756,
            "contract": "contracts/Lending.sol:Lending",
            "label": "runtime",
            "offset": 0,
            "slot": "5",
            "type": "t_uint256"
          },
          {
            "astId": 3758,
            "contract": "contracts/Lending.sol:Lending",
            "label": "yieldFP",
            "offset": 0,
            "slot": "6",
            "type": "t_uint256"
          }
        ],
        "numberOfBytes": "224"
      },
      "t_struct(HourlyBond)8420_storage": {
        "encoding": "inplace",
        "label": "struct HourlyBond",
        "members": [
          {
            "astId": 8415,
            "contract": "contracts/Lending.sol:Lending",
            "label": "amount",
            "offset": 0,
            "slot": "0",
            "type": "t_uint256"
          },
          {
            "astId": 8417,
            "contract": "contracts/Lending.sol:Lending",
            "label": "yieldQuotientFP",
            "offset": 0,
            "slot": "1",
            "type": "t_uint256"
          },
          {
            "astId": 8419,
            "contract": "contracts/Lending.sol:Lending",
            "label": "moduloHour",
            "offset": 0,
            "slot": "2",
            "type": "t_uint256"
          }
        ],
        "numberOfBytes": "96"
      },
      "t_struct(LendingMetadata)3504_storage": {
        "encoding": "inplace",
        "label": "struct BaseLending.LendingMetadata",
        "members": [
          {
            "astId": 3497,
            "contract": "contracts/Lending.sol:Lending",
            "label": "totalLending",
            "offset": 0,
            "slot": "0",
            "type": "t_uint256"
          },
          {
            "astId": 3499,
            "contract": "contracts/Lending.sol:Lending",
            "label": "totalBorrowed",
            "offset": 0,
            "slot": "1",
            "type": "t_uint256"
          },
          {
            "astId": 3501,
            "contract": "contracts/Lending.sol:Lending",
            "label": "lendingBuffer",
            "offset": 0,
            "slot": "2",
            "type": "t_uint256"
          },
          {
            "astId": 3503,
            "contract": "contracts/Lending.sol:Lending",
            "label": "lendingCap",
            "offset": 0,
            "slot": "3",
            "type": "t_uint256"
          }
        ],
        "numberOfBytes": "128"
      },
      "t_struct(YieldAccumulator)8413_storage": {
        "encoding": "inplace",
        "label": "struct YieldAccumulator",
        "members": [
          {
            "astId": 8408,
            "contract": "contracts/Lending.sol:Lending",
            "label": "accumulatorFP",
            "offset": 0,
            "slot": "0",
            "type": "t_uint256"
          },
          {
            "astId": 8410,
            "contract": "contracts/Lending.sol:Lending",
            "label": "lastUpdated",
            "offset": 0,
            "slot": "1",
            "type": "t_uint256"
          },
          {
            "astId": 8412,
            "contract": "contracts/Lending.sol:Lending",
            "label": "hourlyYieldFP",
            "offset": 0,
            "slot": "2",
            "type": "t_uint256"
          }
        ],
        "numberOfBytes": "96"
      },
      "t_uint256": {
        "encoding": "inplace",
        "label": "uint256",
        "numberOfBytes": "32"
      },
      "t_uint8": {
        "encoding": "inplace",
        "label": "uint8",
        "numberOfBytes": "1"
      }
    }
  }
}