{
  "address": "0x89fa58De039EBf9d9e19F20f8036cEf2814b269D",
  "abi": [
    {
      "inputs": [
        {
          "internalType": "address",
          "name": "_roles",
          "type": "address"
        }
      ],
      "stateMutability": "nonpayable",
      "type": "constructor"
    },
    {
      "anonymous": false,
      "inputs": [
        {
          "indexed": true,
          "internalType": "address",
          "name": "issuer",
          "type": "address"
        },
        {
          "indexed": true,
          "internalType": "address",
          "name": "holder",
          "type": "address"
        },
        {
          "indexed": false,
          "internalType": "uint256",
          "name": "value",
          "type": "uint256"
        }
      ],
      "name": "LiquidityWarning",
      "type": "event"
    },
    {
      "inputs": [],
      "name": "WEIGHT_TOTAL_10k",
      "outputs": [
        {
          "internalType": "uint256",
          "name": "",
          "type": "uint256"
        }
      ],
      "stateMutability": "view",
      "type": "function"
    },
    {
      "inputs": [
        {
          "internalType": "address",
          "name": "issuer",
          "type": "address"
        }
      ],
      "name": "activateIssuer",
      "outputs": [],
      "stateMutability": "nonpayable",
      "type": "function"
    },
    {
      "inputs": [
        {
          "internalType": "address",
          "name": "issuer",
          "type": "address"
        },
        {
          "internalType": "address",
          "name": "token",
          "type": "address"
        }
      ],
      "name": "activateIssuer",
      "outputs": [],
      "stateMutability": "nonpayable",
      "type": "function"
    },
    {
      "inputs": [
        {
          "internalType": "address",
          "name": "",
          "type": "address"
        }
      ],
      "name": "activeIssuers",
      "outputs": [
        {
          "internalType": "bool",
          "name": "",
          "type": "bool"
        }
      ],
      "stateMutability": "view",
      "type": "function"
    },
    {
      "inputs": [
        {
          "internalType": "uint256",
          "name": "balance",
          "type": "uint256"
        },
        {
          "internalType": "address",
          "name": "issuer",
          "type": "address"
        },
        {
          "internalType": "uint256",
          "name": "yieldQuotientFP",
          "type": "uint256"
        }
      ],
      "name": "applyBorrowInterest",
      "outputs": [
        {
          "internalType": "uint256",
          "name": "balanceWithInterest",
          "type": "uint256"
        }
      ],
      "stateMutability": "nonpayable",
      "type": "function"
    },
    {
      "inputs": [
        {
          "internalType": "address",
          "name": "",
          "type": "address"
        },
        {
          "internalType": "uint256",
          "name": "",
          "type": "uint256"
        }
      ],
      "name": "bondBucketMetadata",
      "outputs": [
        {
          "internalType": "uint256",
          "name": "runtimeWeight",
          "type": "uint256"
        },
        {
          "internalType": "uint256",
          "name": "buyingSpeed",
          "type": "uint256"
        },
        {
          "internalType": "uint256",
          "name": "lastBought",
          "type": "uint256"
        },
        {
          "internalType": "uint256",
          "name": "withdrawingSpeed",
          "type": "uint256"
        },
        {
          "internalType": "uint256",
          "name": "lastWithdrawn",
          "type": "uint256"
        },
        {
          "internalType": "uint256",
          "name": "yieldLastUpdated",
          "type": "uint256"
        },
        {
          "internalType": "uint256",
          "name": "totalLending",
          "type": "uint256"
        },
        {
          "internalType": "uint256",
          "name": "runtimeYieldFP",
          "type": "uint256"
        }
      ],
      "stateMutability": "view",
      "type": "function"
    },
    {
      "inputs": [
        {
          "internalType": "address",
          "name": "",
          "type": "address"
        },
        {
          "internalType": "uint256",
          "name": "",
          "type": "uint256"
        }
      ],
      "name": "bondIds",
      "outputs": [
        {
          "internalType": "uint256",
          "name": "",
          "type": "uint256"
        }
      ],
      "stateMutability": "view",
      "type": "function"
    },
    {
      "inputs": [
        {
          "internalType": "uint256",
          "name": "",
          "type": "uint256"
        }
      ],
      "name": "bonds",
      "outputs": [
        {
          "internalType": "address",
          "name": "holder",
          "type": "address"
        },
        {
          "internalType": "address",
          "name": "issuer",
          "type": "address"
        },
        {
          "internalType": "uint256",
          "name": "originalPrice",
          "type": "uint256"
        },
        {
          "internalType": "uint256",
          "name": "returnAmount",
          "type": "uint256"
        },
        {
          "internalType": "uint256",
          "name": "maturityTimestamp",
          "type": "uint256"
        },
        {
          "internalType": "uint256",
          "name": "runtime",
          "type": "uint256"
        },
        {
          "internalType": "uint256",
          "name": "yieldFP",
          "type": "uint256"
        }
      ],
      "stateMutability": "view",
      "type": "function"
    },
    {
      "inputs": [
        {
          "internalType": "address",
          "name": "",
          "type": "address"
        }
      ],
      "name": "borrowYieldAccumulators",
      "outputs": [
        {
          "internalType": "uint256",
          "name": "accumulatorFP",
          "type": "uint256"
        },
        {
          "internalType": "uint256",
          "name": "lastUpdated",
          "type": "uint256"
        },
        {
          "internalType": "uint256",
          "name": "hourlyYieldFP",
          "type": "uint256"
        }
      ],
      "stateMutability": "view",
      "type": "function"
    },
    {
      "inputs": [],
      "name": "borrowingFactorPercent",
      "outputs": [
        {
          "internalType": "uint256",
          "name": "",
          "type": "uint256"
        }
      ],
      "stateMutability": "view",
      "type": "function"
    },
    {
      "inputs": [],
      "name": "borrowingMarkupFP",
      "outputs": [
        {
          "internalType": "uint256",
          "name": "",
          "type": "uint256"
        }
      ],
      "stateMutability": "view",
      "type": "function"
    },
    {
      "inputs": [
        {
          "internalType": "address",
          "name": "issuer",
          "type": "address"
        },
        {
          "internalType": "uint256",
          "name": "runtime",
          "type": "uint256"
        },
        {
          "internalType": "uint256",
          "name": "amount",
          "type": "uint256"
        },
        {
          "internalType": "uint256",
          "name": "minReturn",
          "type": "uint256"
        }
      ],
      "name": "buyBond",
      "outputs": [
        {
          "internalType": "uint256",
          "name": "bondIndex",
          "type": "uint256"
        }
      ],
      "stateMutability": "nonpayable",
      "type": "function"
    },
    {
      "inputs": [
        {
          "internalType": "address",
          "name": "issuer",
          "type": "address"
        },
        {
          "internalType": "uint256",
          "name": "amount",
          "type": "uint256"
        }
      ],
      "name": "buyHourlyBondSubscription",
      "outputs": [],
      "stateMutability": "nonpayable",
      "type": "function"
    },
    {
      "inputs": [
        {
          "internalType": "address",
          "name": "issuer",
          "type": "address"
        }
      ],
      "name": "closeHourlyBondAccount",
      "outputs": [],
      "stateMutability": "nonpayable",
      "type": "function"
    },
    {
      "inputs": [
        {
          "internalType": "address",
          "name": "issuer",
          "type": "address"
        }
      ],
      "name": "deactivateIssuer",
      "outputs": [],
      "stateMutability": "nonpayable",
      "type": "function"
    },
    {
      "inputs": [],
      "name": "diffMaxMinRuntime",
      "outputs": [
        {
          "internalType": "uint256",
          "name": "",
          "type": "uint256"
        }
      ],
      "stateMutability": "view",
      "type": "function"
    },
    {
      "inputs": [
        {
          "internalType": "uint256",
          "name": "amount",
          "type": "uint256"
        }
      ],
      "name": "haircut",
      "outputs": [],
      "stateMutability": "nonpayable",
      "type": "function"
    },
    {
      "inputs": [
        {
          "internalType": "address",
          "name": "",
          "type": "address"
        }
      ],
      "name": "haircuts",
      "outputs": [
        {
          "internalType": "uint256",
          "name": "",
          "type": "uint256"
        }
      ],
      "stateMutability": "view",
      "type": "function"
    },
    {
      "inputs": [
        {
          "internalType": "address",
          "name": "",
          "type": "address"
        },
        {
          "internalType": "address",
          "name": "",
          "type": "address"
        }
      ],
      "name": "hourlyBondAccounts",
      "outputs": [
        {
          "internalType": "uint256",
          "name": "amount",
          "type": "uint256"
        },
        {
          "internalType": "uint256",
          "name": "yieldQuotientFP",
          "type": "uint256"
        },
        {
          "internalType": "uint256",
          "name": "moduloHour",
          "type": "uint256"
        }
      ],
      "stateMutability": "view",
      "type": "function"
    },
    {
      "inputs": [
        {
          "internalType": "address",
          "name": "",
          "type": "address"
        }
      ],
      "name": "incentiveTranches",
      "outputs": [
        {
          "internalType": "uint256",
          "name": "",
          "type": "uint256"
        }
      ],
      "stateMutability": "view",
      "type": "function"
    },
    {
      "inputs": [
        {
          "internalType": "address",
          "name": "issuer",
          "type": "address"
        }
      ],
      "name": "initBorrowYieldAccumulator",
      "outputs": [],
      "stateMutability": "nonpayable",
      "type": "function"
    },
    {
      "inputs": [
        {
          "internalType": "address",
          "name": "",
          "type": "address"
        }
      ],
      "name": "issuerTokens",
      "outputs": [
        {
          "internalType": "address",
          "name": "",
          "type": "address"
        }
      ],
      "stateMutability": "view",
      "type": "function"
    },
    {
      "inputs": [
        {
          "internalType": "address",
          "name": "",
          "type": "address"
        }
      ],
      "name": "lendingMeta",
      "outputs": [
        {
          "internalType": "uint256",
          "name": "totalLending",
          "type": "uint256"
        },
        {
          "internalType": "uint256",
          "name": "totalBorrowed",
          "type": "uint256"
        },
        {
          "internalType": "uint256",
          "name": "lendingBuffer",
          "type": "uint256"
        },
        {
          "internalType": "uint256",
          "name": "lendingCap",
          "type": "uint256"
        }
      ],
      "stateMutability": "view",
      "type": "function"
    },
    {
      "inputs": [
        {
          "internalType": "uint256",
          "name": "",
          "type": "uint256"
        }
      ],
      "name": "mainCharacterCache",
      "outputs": [
        {
          "internalType": "address",
          "name": "",
          "type": "address"
        }
      ],
      "stateMutability": "view",
      "type": "function"
    },
    {
      "inputs": [],
      "name": "maxHourlyYieldFP",
      "outputs": [
        {
          "internalType": "uint256",
          "name": "",
          "type": "uint256"
        }
      ],
      "stateMutability": "view",
      "type": "function"
    },
    {
      "inputs": [],
      "name": "maxRuntime",
      "outputs": [
        {
          "internalType": "uint256",
          "name": "",
          "type": "uint256"
        }
      ],
      "stateMutability": "view",
      "type": "function"
    },
    {
      "inputs": [],
      "name": "minRuntime",
      "outputs": [
        {
          "internalType": "uint256",
          "name": "",
          "type": "uint256"
        }
      ],
      "stateMutability": "view",
      "type": "function"
    },
    {
      "inputs": [],
      "name": "nextBondIndex",
      "outputs": [
        {
          "internalType": "uint256",
          "name": "",
          "type": "uint256"
        }
      ],
      "stateMutability": "view",
      "type": "function"
    },
    {
      "inputs": [
        {
          "internalType": "address",
          "name": "issuer",
          "type": "address"
        },
        {
          "internalType": "uint256",
          "name": "amount",
          "type": "uint256"
        }
      ],
      "name": "payOff",
      "outputs": [],
      "stateMutability": "nonpayable",
      "type": "function"
    },
    {
      "inputs": [
        {
          "internalType": "address",
          "name": "issuer",
          "type": "address"
        },
        {
          "internalType": "uint256",
          "name": "amount",
          "type": "uint256"
        }
      ],
      "name": "registerBorrow",
      "outputs": [],
      "stateMutability": "nonpayable",
      "type": "function"
    },
    {
      "inputs": [
        {
          "internalType": "address",
          "name": "",
          "type": "address"
        },
        {
          "internalType": "uint256",
          "name": "",
          "type": "uint256"
        }
      ],
      "name": "roleCache",
      "outputs": [
        {
          "internalType": "bool",
          "name": "",
          "type": "bool"
        }
      ],
      "stateMutability": "view",
      "type": "function"
    },
    {
      "inputs": [],
      "name": "roles",
      "outputs": [
        {
          "internalType": "contract Roles",
          "name": "",
          "type": "address"
        }
      ],
      "stateMutability": "view",
      "type": "function"
    },
    {
      "inputs": [
        {
          "internalType": "uint256",
          "name": "borrowingFactor",
          "type": "uint256"
        }
      ],
      "name": "setBorrowingFactorPercent",
      "outputs": [],
      "stateMutability": "nonpayable",
      "type": "function"
    },
    {
      "inputs": [
        {
          "internalType": "address",
          "name": "issuer",
          "type": "address"
        },
        {
          "internalType": "uint256",
          "name": "aprPercent",
          "type": "uint256"
        }
      ],
      "name": "setHourlyYieldAPR",
      "outputs": [],
      "stateMutability": "nonpayable",
      "type": "function"
    },
    {
      "inputs": [
        {
          "internalType": "address",
          "name": "token",
          "type": "address"
        },
        {
          "internalType": "uint8",
          "name": "tranche",
          "type": "uint8"
        }
      ],
      "name": "setIncentiveTranche",
      "outputs": [],
      "stateMutability": "nonpayable",
      "type": "function"
    },
    {
      "inputs": [
        {
          "internalType": "address",
          "name": "issuer",
          "type": "address"
        },
        {
          "internalType": "uint256",
          "name": "buffer",
          "type": "uint256"
        }
      ],
      "name": "setLendingBuffer",
      "outputs": [],
      "stateMutability": "nonpayable",
      "type": "function"
    },
    {
      "inputs": [
        {
          "internalType": "address",
          "name": "issuer",
          "type": "address"
        },
        {
          "internalType": "uint256",
          "name": "cap",
          "type": "uint256"
        }
      ],
      "name": "setLendingCap",
      "outputs": [],
      "stateMutability": "nonpayable",
      "type": "function"
    },
    {
      "inputs": [
        {
          "internalType": "uint256",
          "name": "maxYieldFP",
          "type": "uint256"
        }
      ],
      "name": "setMaxHourlyYieldFP",
      "outputs": [],
      "stateMutability": "nonpayable",
      "type": "function"
    },
    {
      "inputs": [
        {
          "internalType": "uint256",
          "name": "runtime",
          "type": "uint256"
        }
      ],
      "name": "setMaxRuntime",
      "outputs": [],
      "stateMutability": "nonpayable",
      "type": "function"
    },
    {
      "inputs": [
        {
          "internalType": "uint256",
          "name": "runtime",
          "type": "uint256"
        }
      ],
      "name": "setMinRuntime",
      "outputs": [],
      "stateMutability": "nonpayable",
      "type": "function"
    },
    {
      "inputs": [
        {
          "internalType": "address",
          "name": "issuer",
          "type": "address"
        },
        {
          "internalType": "uint256[]",
          "name": "weights",
          "type": "uint256[]"
        }
      ],
      "name": "setRuntimeWeights",
      "outputs": [],
      "stateMutability": "nonpayable",
      "type": "function"
    },
    {
      "inputs": [
        {
          "internalType": "address",
          "name": "issuer",
          "type": "address"
        },
        {
          "internalType": "uint256[]",
          "name": "yieldsFP",
          "type": "uint256[]"
        }
      ],
      "name": "setRuntimeYieldsFP",
      "outputs": [],
      "stateMutability": "nonpayable",
      "type": "function"
    },
    {
      "inputs": [
        {
          "internalType": "uint256",
          "name": "window",
          "type": "uint256"
        }
      ],
      "name": "setWithdrawalWindow",
      "outputs": [],
      "stateMutability": "nonpayable",
      "type": "function"
    },
    {
      "inputs": [
        {
          "internalType": "uint256",
          "name": "changePerSecondFP",
          "type": "uint256"
        }
      ],
      "name": "setYieldChangePerSecondFP",
      "outputs": [],
      "stateMutability": "nonpayable",
      "type": "function"
    },
    {
      "inputs": [
        {
          "internalType": "uint256",
          "name": "role",
          "type": "uint256"
        }
      ],
      "name": "updateMainCharacterCache",
      "outputs": [],
      "stateMutability": "nonpayable",
      "type": "function"
    },
    {
      "inputs": [
        {
          "internalType": "uint256",
          "name": "role",
          "type": "uint256"
        },
        {
          "internalType": "address",
          "name": "contr",
          "type": "address"
        }
      ],
      "name": "updateRoleCache",
      "outputs": [],
      "stateMutability": "nonpayable",
      "type": "function"
    },
    {
      "inputs": [
        {
          "internalType": "address",
          "name": "issuer",
          "type": "address"
        },
        {
          "internalType": "uint256",
          "name": "runtime",
          "type": "uint256"
        },
        {
          "internalType": "uint256",
          "name": "amount",
          "type": "uint256"
        }
      ],
      "name": "viewBondReturn",
      "outputs": [
        {
          "internalType": "uint256",
          "name": "",
          "type": "uint256"
        }
      ],
      "stateMutability": "view",
      "type": "function"
    },
    {
      "inputs": [
        {
          "internalType": "uint256",
          "name": "balance",
          "type": "uint256"
        },
        {
          "internalType": "address",
          "name": "issuer",
          "type": "address"
        },
        {
          "internalType": "uint256",
          "name": "yieldQuotientFP",
          "type": "uint256"
        }
      ],
      "name": "viewBorrowInterest",
      "outputs": [
        {
          "internalType": "uint256",
          "name": "",
          "type": "uint256"
        }
      ],
      "stateMutability": "view",
      "type": "function"
    },
    {
      "inputs": [
        {
          "internalType": "address",
          "name": "issuer",
          "type": "address"
        }
      ],
      "name": "viewBorrowingYieldFP",
      "outputs": [
        {
          "internalType": "uint256",
          "name": "",
          "type": "uint256"
        }
      ],
      "stateMutability": "view",
      "type": "function"
    },
    {
      "inputs": [
        {
          "internalType": "address",
          "name": "issuer",
          "type": "address"
        },
        {
          "internalType": "address",
          "name": "holder",
          "type": "address"
        }
      ],
      "name": "viewHourlyBondAmount",
      "outputs": [
        {
          "internalType": "uint256",
          "name": "",
          "type": "uint256"
        }
      ],
      "stateMutability": "view",
      "type": "function"
    },
    {
      "inputs": [
        {
          "internalType": "address",
          "name": "issuer",
          "type": "address"
        }
      ],
      "name": "viewLendingTarget",
      "outputs": [
        {
          "internalType": "uint256",
          "name": "",
          "type": "uint256"
        }
      ],
      "stateMutability": "view",
      "type": "function"
    },
    {
      "inputs": [
        {
          "internalType": "uint256",
          "name": "bondId",
          "type": "uint256"
        }
      ],
      "name": "withdrawBond",
      "outputs": [],
      "stateMutability": "nonpayable",
      "type": "function"
    },
    {
      "inputs": [
        {
          "internalType": "address",
          "name": "issuer",
          "type": "address"
        },
        {
          "internalType": "uint256",
          "name": "amount",
          "type": "uint256"
        }
      ],
      "name": "withdrawHourlyBond",
      "outputs": [],
      "stateMutability": "nonpayable",
      "type": "function"
    },
    {
      "inputs": [],
      "name": "withdrawalWindow",
      "outputs": [
        {
          "internalType": "uint256",
          "name": "",
          "type": "uint256"
        }
      ],
      "stateMutability": "view",
      "type": "function"
    },
    {
      "inputs": [],
      "name": "yieldChangePerSecondFP",
      "outputs": [
        {
          "internalType": "uint256",
          "name": "",
          "type": "uint256"
        }
      ],
      "stateMutability": "view",
      "type": "function"
    }
  ],
  "transactionHash": "0x2ab52d6dfd266a7ffb3dd05803d553d518dd1c2b69351a7eb76df3f35889f5be",
  "args": [
    "0x67DceCCe970011547817a5A4dad9A86eF9a2AB63"
  ],
  "solcInputHash": "844ad074ee2713a040ed8b727b202f61",
  "bytecode": "0x60a060405261025860075560c860095562278d00600a556301e13380600b5560016010553480156200003057600080fd5b5060405162003db838038062003db883398101604081905262000053916200012d565b806001600160a01b038116620000ba5760405162461bcd60e51b815260206004820152602260248201527f506c656173652070726f766964652076616c696420726f6c6573206164647265604482015261737360f01b606482015260840160405180910390fd5b60601b6001600160601b0319166080526103836122386064620000e3836401000000006200017e565b620000ef91906200015d565b620000fb91906200015d565b60045560036103e862000114826401000000006200017e565b6200012091906200015d565b60055550620001aa915050565b6000602082840312156200013f578081fd5b81516001600160a01b038116811462000156578182fd5b9392505050565b6000826200017957634e487b7160e01b81526012600452602481fd5b500490565b6000816000190483118215151615620001a557634e487b7160e01b81526011600452602481fd5b500290565b60805160601c613bd3620001e5600039600081816104c50152818161097501528181610f4501528181612e0a0152612ea20152613bd36000f3fe608060405234801561001057600080fd5b506004361061036d5760003560e01c80637d34e405116101d3578063cd3b5dfb11610104578063ebc22731116100a2578063ef2cd3b81161007c578063ef2cd3b814610904578063f11f979514610917578063f884614b14610920578063f90889c9146109335761036d565b8063ebc22731146108cb578063ebe64bcc146108de578063ee0862bf146108f15761036d565b8063d4437dd8116100de578063d4437dd814610869578063e5ea66061461087c578063e695fa681461088f578063e9c3f77d146108a25761036d565b8063cd3b5dfb1461081e578063d19bd0a71461084d578063d2b48934146108565761036d565b8063a772404b11610171578063b8139c6d1161014b578063b8139c6d146107dc578063c3daab96146107e5578063c94426a0146107f8578063cc4b26a31461080b5761036d565b8063a772404b14610769578063aa7e321d1461077c578063ad037af6146107855761036d565b80638824cbba116101ad5780638824cbba1461071a57806391b46e051461073a5780639229e73f1461074d578063a387832f146107565761036d565b80637d34e4051461069f578063803a99b7146106b257806383a04229146106c55761036d565b8063447d52ba116102ad578063687680ed1161024b578063797384b211610225578063797384b2146106185780637a0091351461064b5780637a1a04df1461065e5780637b8b4ee21461068c5761036d565b8063687680ed146105e95780636e60e249146105fc578063773bbb3b1461060f5761036d565b806358d51f911161028757806358d51f91146105205780635f1c17c01461052957806364f85ab1146105c057806367e2de92146105e05761036d565b8063447d52ba146104e75780634804dd34146104fa5780634b86daab1461050d5761036d565b8063267031b81161031a5780632864f401116102f45780632864f401146104875780632a6a897b1461049a57806336953912146104ad578063392f5f64146104c05761036d565b8063267031b8146103ef57806326e0b353146103f857806328108026146104465761036d565b80630f7c43dc1161034b5780630f7c43dc146103b6578063117b2630146103c957806316de7a43146103dc5761036d565b8063071060a6146103725780630b550546146103875780630bba92b3146103a3575b600080fd5b6103856103803660046139ee565b610946565b005b610390600c5481565b6040519081526020015b60405180910390f35b6103906103b136600461392e565b610a3d565b6103856103c4366004613903565b610b27565b6103906103d7366004613799565b610bb2565b6103856103ea366004613903565b610bdc565b61039060095481565b61040b610406366004613903565b610c9d565b604080519889526020890197909752958701949094526060860192909252608085015260a084015260c083015260e08201526101000161039a565b61046f610454366004613799565b6013602052600090815260409020546001600160a01b031681565b6040516001600160a01b03909116815260200161039a565b61038561049536600461399c565b610d02565b6103856104a8366004613903565b610de9565b6103856104bb3660046139ee565b610e88565b61046f7f000000000000000000000000000000000000000000000000000000000000000081565b6103856104f5366004613a1e565b610f06565b6103856105083660046139ee565b611015565b61038561051b366004613799565b611093565b610390600d5481565b6105806105373660046139ee565b600e6020526000908152604090208054600182015460028301546003840154600485015460058601546006909601546001600160a01b0395861696959094169492939192909187565b604080516001600160a01b039889168152979096166020880152948601939093526060850191909152608084015260a083015260c082015260e00161039a565b6103906105ce366004613799565b60146020526000908152604090205481565b61039060045481565b6103906105f7366004613a42565b6110a0565b61039061060a3660046137d8565b6110da565b610390600a5481565b61063b610626366004613799565b60156020526000908152604090205460ff1681565b604051901515815260200161039a565b610385610659366004613799565b611165565b61063b61066c366004613903565b600160209081526000928352604080842090915290825290205460ff1681565b61039061069a366004613962565b611269565b6103856106ad366004613810565b611431565b6103856106c03660046139ee565b611541565b6106ff6106d33660046137d8565b600860209081526000928352604080842090915290825290208054600182015460029092015490919083565b6040805193845260208401929092529082015260600161039a565b610390610728366004613799565b60116020526000908152604090205481565b6103856107483660046139ee565b6116ad565b610390600b5481565b610385610764366004613903565b61172b565b610385610777366004613810565b611810565b61039060105481565b6107bc610793366004613799565b600260208190526000918252604090912080546001820154928201546003909201549092919084565b60408051948552602085019390935291830152606082015260800161039a565b61039061271081565b6103856107f33660046139ee565b611b1f565b6103856108063660046139ee565b611c22565b610385610819366004613799565b611ca0565b6106ff61082c366004613799565b60036020526000908152604090208054600182015460029092015490919083565b61039060075481565b610385610864366004613903565b611e12565b6103856108773660046139ee565b611ef6565b61039061088a366004613799565b611f1d565b61039061089d366004613a42565b611f3f565b61046f6108b03660046139ee565b6000602081905290815260409020546001600160a01b031681565b6103856108d93660046139ee565b61201f565b6103856108ec3660046137d8565b612114565b6103856108ff366004613903565b612254565b610390610912366004613903565b6123d4565b61039060055481565b61038561092e366004613799565b612405565b610385610941366004613903565b612489565b6040517fb4ed0b6d000000000000000000000000000000000000000000000000000000008152600481018290527f00000000000000000000000000000000000000000000000000000000000000006001600160a01b03169063b4ed0b6d9060240160206040518083038186803b1580156109bf57600080fd5b505afa1580156109d3573d6000803e3d6000fd5b505050506040513d601f19601f820116820180604052508101906109f791906137bc565b60009182526020829052604090912080547fffffffffffffffffffffffff0000000000000000000000000000000000000000166001600160a01b03909216919091179055565b600080610a4a8585612641565b90506000610b0186600f6000896001600160a01b03166001600160a01b031681526020019081526020016000208481548110610a9657634e487b7160e01b600052603260045260246000fd5b90600052602060002090600802016006015486610ab39190613a79565b6001600160a01b0389166000908152600f60205260409020805489919087908110610aee57634e487b7160e01b600052603260045260246000fd5b906000526020600020906008020161268b565b9050640100000000610b138583613aa5565b610b1d9190613a91565b9695505050505050565b6001600160a01b03821660009081526008602090815260408083203384529091529020610b548382612790565b610b5f83828461281d565b8054610b97576001600160a01b0383166000908152600860209081526040808320338452909152812081815560018101829055600201555b610ba2833384612944565b610bad338484612ace565b505050565b6001600160a01b0381166000908152600260205260408120610bd381612bac565b9150505b919050565b6001600160a01b03821660009081526015602052604090205460ff16610c495760405162461bcd60e51b815260206004820152601660248201527f4e6f7420616e20617070726f766564206973737565720000000000000000000060448201526064015b60405180910390fd5b6001600160a01b03821660009081526002602052604090208054610c6e908390613a79565b610c7782612bac565b10610bad57610c87833384612bcf565b610c92833384612c8e565b610bad338484612d5c565b600f6020528160005260406000208181548110610cb957600080fd5b9060005260206000209060080201600091509150508060000154908060010154908060020154908060030154908060040154908060050154908060060154908060070154905088565b33610d0b612e06565b6001600160a01b03161480610d2f575033610d24612e9e565b6001600160a01b0316145b80610d5557503360009081526001602090815260408083206009845290915290205460ff165b610dc75760405162461bcd60e51b815260206004820152603960248201527f43616c6c6572206973206e6f7420746865206f776e65722c206578656375746f60448201527f72206f7220617574686f72697a656420616374697661746f72000000000000006064820152608401610c40565b6001600160a01b03909116600090815260116020526040902060ff9091169055565b3360009081526001602090815260408083206003845290915290205460ff16610e545760405162461bcd60e51b815260206004820152601860248201527f4e6f7420616e20617070726f76656420626f72726f77657200000000000000006044820152606401610c40565b6001600160a01b03821660009081526002602052604081206001018054839290610e7f908490613ae2565b90915550505050565b33610e91612e06565b6001600160a01b03161480610eb5575033610eaa612e9e565b6001600160a01b0316145b610f015760405162461bcd60e51b815260206004820152601e60248201527f526f6c65733a2063616c6c6572206973206e6f7420746865206f776e657200006044820152606401610c40565b600755565b6040517f93552a3d000000000000000000000000000000000000000000000000000000008152600481018390526001600160a01b0382811660248301527f000000000000000000000000000000000000000000000000000000000000000016906393552a3d9060440160206040518083038186803b158015610f8757600080fd5b505afa158015610f9b573d6000803e3d6000fd5b505050506040513d601f19601f82011682018060405250810190610fbf91906139ce565b6001600160a01b039190911660009081526001602090815260408083209483529390529190912080547fffffffffffffffffffffffffffffffffffffffffffffffffffffffffffffff0016911515919091179055565b3361101e612e06565b6001600160a01b03161480611042575033611037612e9e565b6001600160a01b0316145b61108e5760405162461bcd60e51b815260206004820152601e60248201527f526f6c65733a2063616c6c6572206973206e6f7420746865206f776e657200006044820152606401610c40565b600455565b61109d8182612114565b50565b6001600160a01b038216600090815260036020526040812081906110c49042612f0f565b90506110d1858285612f2e565b95945050505050565b6001600160a01b0380831660008181526008602090815260408083209486168352938152838220600181015493835260069091529281209092919083906111219042612f0f565b9050811561114c578254611136908284612f2e565b83546111429190613a79565b935050505061115f565b8254611159906000613a79565b93505050505b92915050565b3361116e612e06565b6001600160a01b03161480611192575033611187612e9e565b6001600160a01b0316145b806111b857503360009081526001602090815260408083206009845290915290205460ff165b61122a5760405162461bcd60e51b815260206004820152603960248201527f43616c6c6572206973206e6f7420746865206f776e65722c206578656375746f60448201527f72206f7220617574686f72697a656420616374697661746f72000000000000006064820152608401610c40565b6001600160a01b0316600090815260156020526040902080547fffffffffffffffffffffffffffffffffffffffffffffffffffffffffffffff00169055565b6001600160a01b03841660009081526015602052604081205460ff166112d15760405162461bcd60e51b815260206004820152601660248201527f4e6f7420616e20617070726f76656420697373756572000000000000000000006044820152606401610c40565b6001600160a01b038516600090815260026020526040902080546112f6908590613a79565b6112ff82612bac565b1015801561130f575084600b5410155b801561131d5750600a548510155b156114285761132f3387878787612f3b565b9150811561142857606560009081526020527f4a7203f705e51df4a56139a9b86b4a0970bed7ab7a3446eaffe2289989c1645c546001600160a01b03166040517fb3db428b0000000000000000000000000000000000000000000000000000000081523360048201526001600160a01b03888116602483015260448201879052919091169063b3db428b90606401600060405180830381600087803b1580156113d757600080fd5b505af11580156113eb573d6000803e3d6000fd5b50503360008181526012602090815260408220805460018101825590835291200185905561141d925088915086612bcf565b611428338786612d5c565b50949350505050565b3361143a612e06565b6001600160a01b0316148061145e575033611453612e9e565b6001600160a01b0316145b6114aa5760405162461bcd60e51b815260206004820152601e60248201527f526f6c65733a2063616c6c6572206973206e6f7420746865206f776e657200006044820152606401610c40565b6001600160a01b0382166000908152600f60205260408120905b815481101561153b578281815181106114ed57634e487b7160e01b600052603260045260246000fd5b602002602001015182828154811061151557634e487b7160e01b600052603260045260246000fd5b60009182526020909120600760089092020101558061153381613af9565b9150506114c4565b50505050565b3361154a612e06565b6001600160a01b0316148061156e575033611563612e9e565b6001600160a01b0316145b6115ba5760405162461bcd60e51b815260206004820152601e60248201527f526f6c65733a2063616c6c6572206973206e6f7420746865206f776e657200006044820152606401610c40565b610e1081116116315760405162461bcd60e51b815260206004820152602760248201527f4d696e2072756e74696d65206e6565647320746f206265206174206c6561737460448201527f203120686f7572000000000000000000000000000000000000000000000000006064820152608401610c40565b80600b54116116a85760405162461bcd60e51b815260206004820152602c60248201527f4d696e2072756e74696d65206d75737420626520736d616c6c6572207468616e60448201527f206d61782072756e74696d6500000000000000000000000000000000000000006064820152608401610c40565b600a55565b336116b6612e06565b6001600160a01b031614806116da5750336116cf612e9e565b6001600160a01b0316145b6117265760405162461bcd60e51b815260206004820152601e60248201527f526f6c65733a2063616c6c6572206973206e6f7420746865206f776e657200006044820152606401610c40565b600955565b33611734612e06565b6001600160a01b0316148061175857503361174d612e9e565b6001600160a01b0316145b8061177e57503360009081526001602090815260408083206009845290915290205460ff165b6117f05760405162461bcd60e51b815260206004820152603960248201527f43616c6c6572206973206e6f7420746865206f776e65722c206578656375746f60448201527f72206f7220617574686f72697a656420616374697661746f72000000000000006064820152608401610c40565b6001600160a01b0390911660009081526002602081905260409091200155565b33611819612e06565b6001600160a01b0316148061183d575033611832612e9e565b6001600160a01b0316145b8061186357503360009081526001602090815260408083206009845290915290205460ff165b6118d55760405162461bcd60e51b815260206004820152603960248201527f43616c6c6572206973206e6f7420746865206f776e65722c206578656375746f60448201527f72206f7220617574686f72697a656420616374697661746f72000000000000006064820152608401610c40565b6001600160a01b0382166000908152600f602052604090208054611a57576000612238606461190a640100000000606e613aa5565b6119149190613a91565b61191e9190613a91565b905060008351600c546119319190613a91565b905060005b8085511115611a4f57600061194b8284613aa5565b600a546119589190613a79565b90508460405180610100016040528088858151811061198757634e487b7160e01b600052603260045260246000fd5b60200260200101518152602001600181526020014281526020016001815260200142815260200142815260200160008152602001610e1084886119ca9190613aa5565b6119d49190613a91565b905281546001818101845560009384526020938490208351600890930201918255928201519281019290925560408101516002830155606081015160038301556080810151600483015560a0810151600583015560c0810151600683015560e001516007909101555080611a4781613af9565b915050611936565b505050610bad565b8054825114611aa85760405162461bcd60e51b815260206004820152601b60248201527f5765696768747320646f6e2774206d61746368206275636b65747300000000006044820152606401610c40565b60005b808351111561153b57828181518110611ad457634e487b7160e01b600052603260045260246000fd5b6020026020010151828281548110611afc57634e487b7160e01b600052603260045260246000fd5b600091825260209091206008909102015580611b1781613af9565b915050611aab565b6000818152600e6020526040902080546001600160a01b03163314611b865760405162461bcd60e51b815260206004820152601260248201527f4e6f7420686f6c646572206f6620626f6e6400000000000000000000000000006044820152606401610c40565b80600401544211611bd95760405162461bcd60e51b815260206004820152601660248201527f626f6e64206973207374696c6c20696d6d6174757265000000000000000000006044820152606401610c40565b60018101546002820154611bfa9133916001600160a01b0390911690612ace565b6000611c068383613158565b6001830154909150610bad906001600160a01b03163383612944565b33611c2b612e06565b6001600160a01b03161480611c4f575033611c44612e9e565b6001600160a01b0316145b611c9b5760405162461bcd60e51b815260206004820152601e60248201527f526f6c65733a2063616c6c6572206973206e6f7420746865206f776e657200006044820152606401610c40565b600555565b33611ca9612e06565b6001600160a01b03161480611ccd575033611cc2612e9e565b6001600160a01b0316145b80611cf357503360009081526001602090815260408083206009845290915290205460ff165b611d655760405162461bcd60e51b815260206004820152603960248201527f43616c6c6572206973206e6f7420746865206f776e65722c206578656375746f60448201527f72206f7220617574686f72697a656420616374697661746f72000000000000006064820152608401610c40565b6001600160a01b03811660009081526003602052604090205415611df15760405162461bcd60e51b815260206004820152602960248201527f747279696e6720746f2072652d696e697469616c697a65207969656c6420616360448201527f63756d756c61746f7200000000000000000000000000000000000000000000006064820152608401610c40565b6001600160a01b031660009081526003602052604090206401000000009055565b33611e1b612e06565b6001600160a01b03161480611e3f575033611e34612e9e565b6001600160a01b0316145b80611e6557503360009081526001602090815260408083206009845290915290205460ff165b611ed75760405162461bcd60e51b815260206004820152603960248201527f43616c6c6572206973206e6f7420746865206f776e65722c206578656375746f60448201527f72206f7220617574686f72697a656420616374697661746f72000000000000006064820152608401610c40565b6001600160a01b03909116600090815260026020526040902060030155565b3360009081526014602052604081208054839290611f15908490613a79565b909155505050565b6001600160a01b038116600090815260036020526040812061115f9042612f0f565b3360009081526001602090815260408083206003845290915281205460ff16611faa5760405162461bcd60e51b815260206004820152601860248201527f4e6f7420616e20617070726f76656420626f72726f77657200000000000000006044820152606401610c40565b6001600160a01b03831660009081526003602052604090208054611fd090869085612f2e565b91506000611fde8684613ae2565b6001600160a01b0386166000908152600260205260408120600181018054939450909284929061200f908490613a79565b9091555093979650505050505050565b33612028612e06565b6001600160a01b0316148061204c575033612041612e9e565b6001600160a01b0316145b6120985760405162461bcd60e51b815260206004820152601e60248201527f526f6c65733a2063616c6c6572206973206e6f7420746865206f776e657200006044820152606401610c40565b600a54811161210f5760405162461bcd60e51b815260206004820152602c60248201527f4d61782072756e74696d65206d7573742062652067726561746572207468616e60448201527f206d696e2072756e74696d6500000000000000000000000000000000000000006064820152608401610c40565b600b55565b3361211d612e06565b6001600160a01b03161480612141575033612136612e9e565b6001600160a01b0316145b8061216757503360009081526001602090815260408083206009845290915290205460ff165b6121d95760405162461bcd60e51b815260206004820152603960248201527f43616c6c6572206973206e6f7420746865206f776e65722c206578656375746f60448201527f72206f7220617574686f72697a656420616374697661746f72000000000000006064820152608401610c40565b6001600160a01b03918216600090815260156020908152604080832080547fffffffffffffffffffffffffffffffffffffffffffffffffffffffffffffff00166001179055601390915290208054919092167fffffffffffffffffffffffff0000000000000000000000000000000000000000909116179055565b3360009081526001602090815260408083206003845290915290205460ff166122bf5760405162461bcd60e51b815260206004820152601860248201527f4e6f7420616e20617070726f76656420626f72726f77657200000000000000006044820152606401610c40565b6001600160a01b03821660009081526015602052604090205460ff166123275760405162461bcd60e51b815260206004820152601660248201527f4e6f7420616e20617070726f76656420697373756572000000000000000000006044820152606401610c40565b6001600160a01b038216600090815260026020526040812060018101805491928492612354908490613a79565b9091555050600181015481541015610bad5760405162461bcd60e51b815260206004820152602e60248201527f496e73756666696369656e74206361706974616c20746f206c656e642c20747260448201527f7920616761696e206c61746572210000000000000000000000000000000000006064820152608401610c40565b601260205281600052604060002081815481106123f057600080fd5b90600052602060002001600091509150505481565b6001600160a01b038116600090815260086020908152604080832033845290915290206124328282612790565b805461243f83838361281d565b61244a833383612944565b6001600160a01b038316600090815260086020908152604080832033808552925282208281556001810183905560020191909155610bad908483612ace565b33612492612e06565b6001600160a01b031614806124b65750336124ab612e9e565b6001600160a01b0316145b806124dc57503360009081526001602090815260408083206009845290915290205460ff165b61254e5760405162461bcd60e51b815260206004820152603960248201527f43616c6c6572206973206e6f7420746865206f776e65722c206578656375746f60448201527f72206f7220617574686f72697a656420616374697661746f72000000000000006064820152608401610c40565b6001600160a01b038216600090815260066020526040902080546125f65760408051606081018252640100000000815242602082015290810161223860646125968682613a79565b6125a590640100000000613aa5565b6125af9190613a91565b6125b99190613a91565b9052805182556020810151600180840191909155604090910151600283015560038201819055600482015542600582018190556006820155610bad565b6000612602848361336b565b905061223860646126138582613a79565b61262290640100000000613aa5565b61262c9190613a91565b6126369190613a91565b600290910155505050565b6001600160a01b0382166000908152600f6020526040812054600c54829161266891613a91565b905080600a54846126799190613ae2565b6126839190613a91565b949350505050565b60008082600601548561269e9190613a79565b600784015460058501546001600160a01b03891660009081526002602052604081208754939650939450909291612710906126d884612bac565b6126e29190613aa5565b6126ec9190613a91565b6001808801546003808a01546001600160a01b038e166000908152602092909252604082208754959650929490936127249190613a79565b866001015483600201546127389190613aa5565b6127429190613a91565b9050600061275260045483613483565b90506000612762610e108e613a91565b61276c9083613aa5565b905061277d8b8a8c8a8a8a8761349b565b9f9e505050505050505050505050505050565b60018101548015610bad576001600160a01b03831660009081526006602052604081206127be90859061336b565b83548154919250906127d290829085612f2e565b8085556000906127e3908390613ae2565b6001600160a01b038716600090815260026020526040812080549293508392909190612810908490613a79565b9091555050505050505050565b6000610e108360020154426128329190613ae2565b61283c9190613b32565b90508060075410156128b65760405162461bcd60e51b815260206004820152603f60248201527f5472696564207769746864726177696e67206f7574736964652073756273637260448201527f697074696f6e2063616e63656c6c6174696f6e2074696d652077696e646f77006064820152608401610c40565b818360000160008282546128ca9190613ae2565b90915550506001600160a01b038416600090815260026020526040812080548492906128f7908490613ae2565b90915550506001600160a01b03841660009081526006602081905260409091206004810154918101548554919261293392909190610e10613510565b600683015560049091015550505050565b6001600160a01b038316600090815260146020526040902054801580159061296c5750600082115b156129eb576001600160a01b03841660009081526002602052604081205490816129968185613483565b6129a09086613aa5565b6129aa9190613a91565b90506129b68185613ae2565b6001600160a01b0387166000908152601460205260408120805492965083929091906129e3908490613ae2565b909155505050505b6001600160a01b0380851660009081526013602052604090205416612a41606560009081526020527f4a7203f705e51df4a56139a9b86b4a0970bed7ab7a3446eaffe2289989c1645c546001600160a01b031690565b6040517fd9caed120000000000000000000000000000000000000000000000000000000081526001600160a01b038381166004830152868116602483015260448201869052919091169063d9caed12906064015b600060405180830381600087803b158015612aaf57600080fd5b505af1158015612ac3573d6000803e3d6000fd5b505050505050505050565b6001600160a01b038216600090815260116020526040902054612b22606c60009081526020527f3c1fcba39712202dbd455253568bf32dd0a3bedb5c3ff0de4b22d4e45e50dc92546001600160a01b031690565b6040517fc6c9faa1000000000000000000000000000000000000000000000000000000008152600481018390526001600160a01b03868116602483015260448201859052919091169063c6c9faa190606401600060405180830381600087803b158015612b8e57600080fd5b505af1158015612ba2573d6000803e3d6000fd5b5050505050505050565b600061115f826003015483600201548460010154612bca9190613a79565b613483565b606560009081526020527f4a7203f705e51df4a56139a9b86b4a0970bed7ab7a3446eaffe2289989c1645c546001600160a01b03166040517fb3db428b0000000000000000000000000000000000000000000000000000000081526001600160a01b038481166004830152858116602483015260448201849052919091169063b3db428b90606401600060405180830381600087803b158015612c7157600080fd5b505af1158015612c85573d6000803e3d6000fd5b50505050505050565b6001600160a01b038084166000908152600860209081526040808320938616835292905220612cbd8482612790565b6001600160a01b038416600090815260066020526040902080546001830155612ce8610e1042613b32565b6002830155815483908390600090612d01908490613a79565b90915550506001600160a01b03851660009081526002602052604081208054859290612d2e908490613a79565b92505081905550612d4b8160030154826005015485610e10613510565b600583015560039091015550505050565b6000612d99606c60009081526020527f3c1fcba39712202dbd455253568bf32dd0a3bedb5c3ff0de4b22d4e45e50dc92546001600160a01b031690565b6001600160a01b03848116600090815260116020526040908190205490517f2b5de286000000000000000000000000000000000000000000000000000000008152600481018290528783166024820152604481018690529293509190831690632b5de28690606401612a95565b60007f00000000000000000000000000000000000000000000000000000000000000006001600160a01b0316638da5cb5b6040518163ffffffff1660e01b815260040160206040518083038186803b158015612e6157600080fd5b505afa158015612e75573d6000803e3d6000fd5b505050506040513d601f19601f82011682018060405250810190612e9991906137bc565b905090565b60007f00000000000000000000000000000000000000000000000000000000000000006001600160a01b031663c34c08e56040518163ffffffff1660e01b8152600401602060405180830381600087803b158015612efb57600080fd5b505af1158015612e75573d6000803e3d6000fd5b600080836001015483612f229190613ae2565b905061268384826135b0565b6000816126798486613aa5565b600080612f488686612641565b6001600160a01b0387166000908152600f602052604081208054929350909183908110612f8557634e487b7160e01b600052603260045260246000fd5b906000526020600020906008020190506000612fa38887898561268b565b90506000640100000000612fb78884613aa5565b612fc19190613a91565b905085811061314b5760006002612fd8838a613a79565b612fe29190613a91565b6001600160a01b038b1660009081526002602052604081208054929350839290919061300f908490613a79565b925050819055508084600601600082825461302a9190613a79565b90915550506010805496508690600061304283613af9565b91905055506040518060e001604052808c6001600160a01b031681526020018b6001600160a01b031681526020018981526020018381526020018a426130889190613a79565b815260208082018c905260409182018690526000898152600e8252829020835181546001600160a01b039182167fffffffffffffffffffffffff00000000000000000000000000000000000000009182161783559285015160018084018054929093169190941617905591830151600280840191909155606084015160038401556080840151600484015560a0840151600584015560c0909301516006909201919091558501549085015461313f91908a8c613510565b60028601556001850155505b5050505095945050505050565b600181015460058201546000916001600160a01b031690829061317c908390612641565b6001600160a01b0383166000908152600f6020526040812080549293509091839081106131b957634e487b7160e01b600052603260045260246000fd5b600091825260208220600388015488546002808b01546008909502909301955090936001600160a01b03909116929091906131f5908590613a79565b6131ff9190613a91565b6001600160a01b03871660009081526002602052604081208054929350918391839161322c908490613ae2565b92505081905550818560060160008282546132479190613ae2565b9250508190555061326a856003015486600401548b600201548c60050154613510565b60048088019190915560038088019290925560008c8152600e6020526040812080547fffffffffffffffffffffffff0000000000000000000000000000000000000000908116825560018281018054909216909155600282018390559381018290559182018190556005820181905560069091015581549082015411806132f85750836132f688613659565b105b1561335a57826001600160a01b0316876001600160a01b03167fbcab653cf73e12f7bb78aa625dccb002864f5de7de2518796fb5b82fd6e6ab058660405161334291815260200190565b60405180910390a361335587848661378e565b61335e565b8397505b5050505050505092915050565b6001810154819060009061337f9042613ae2565b905061338b82826135b0565b82556001600160a01b0384166000908152600260209081526040808320600390925282208154919290916133c0906001613a79565b836001015483600201546133d49190613aa5565b6133de9190613a91565b905060006133ee60045483613483565b905061341b86600201548760010154866000015461340b88612bac565b8b600301548c600401548761349b565b6002870155600183015461342f9042613ae2565b945061343b83866135b0565b8355600286015460095460649161345191613aa5565b61345b9190613a91565b613466906001613a79565b600284015550504260018086018290559091015550909392505050565b60008183111561349457508061115f565b508161115f565b8660006134a88842613ae2565b90506000600554826134ba9190613aa5565b905086881015806134cb5750848610155b156134eb576134da8382613483565b6134e49084613ae2565b9250613503565b6134f58184613a79565b925083831115613503578392505b5050979650505050505050565b6000808061351e8642613ae2565b9050600061352d826001613a79565b6135378688613aa5565b6135419190613a91565b90506000600361355387611c20613a79565b61355d9190613a91565b9050600061356c846001613a79565b90506135788183613a79565b6135828285613aa5565b61358c848d613aa5565b6135969190613a79565b6135a09190613a91565b9a429a5098505050505050505050565b6000806135bf610e1084613b32565b90506135d2640100000000610e10613aa5565b6002850154855483916135e491613aa5565b6135ee9190613aa5565b6135f89190613a91565b91506000613608610e1085613a91565b905080156136515760005b8082111561364f576401000000008660020154856136319190613aa5565b61363b9190613a91565b93508061364781613af9565b915050613613565b505b505092915050565b6001600160a01b038082166000818152601360205260408120549092169081141561375f57806001600160a01b03166370a082316136c8606560009081526020527f4a7203f705e51df4a56139a9b86b4a0970bed7ab7a3446eaffe2289989c1645c546001600160a01b031690565b6040517fffffffff0000000000000000000000000000000000000000000000000000000060e084901b1681526001600160a01b03909116600482015260240160206040518083038186803b15801561371f57600080fd5b505afa158015613733573d6000803e3d6000fd5b505050506040513d601f19601f820116820180604052508101906137579190613a06565b915050610bd7565b6001600160a01b0383166000908152601460209081526040808320546002909252909120546137579190613ae2565b610bad838383612c8e565b6000602082840312156137aa578081fd5b81356137b581613b88565b9392505050565b6000602082840312156137cd578081fd5b81516137b581613b88565b600080604083850312156137ea578081fd5b82356137f581613b88565b9150602083013561380581613b88565b809150509250929050565b60008060408385031215613822578182fd5b823561382d81613b88565b915060208381013567ffffffffffffffff8082111561384a578384fd5b818601915086601f83011261385d578384fd5b81358181111561386f5761386f613b72565b8060051b6040517fffffffffffffffffffffffffffffffffffffffffffffffffffffffffffffffe0603f830116810181811085821117156138b2576138b2613b72565b604052828152858101935084860182860187018b10156138d0578788fd5b8795505b838610156138f25780358552600195909501949386019386016138d4565b508096505050505050509250929050565b60008060408385031215613915578182fd5b823561392081613b88565b946020939093013593505050565b600080600060608486031215613942578081fd5b833561394d81613b88565b95602085013595506040909401359392505050565b60008060008060808587031215613977578081fd5b843561398281613b88565b966020860135965060408601359560600135945092505050565b600080604083850312156139ae578182fd5b82356139b981613b88565b9150602083013560ff81168114613805578182fd5b6000602082840312156139df578081fd5b815180151581146137b5578182fd5b6000602082840312156139ff578081fd5b5035919050565b600060208284031215613a17578081fd5b5051919050565b60008060408385031215613a30578182fd5b82359150602083013561380581613b88565b600080600060608486031215613a56578283fd5b833592506020840135613a6881613b88565b929592945050506040919091013590565b60008219821115613a8c57613a8c613b46565b500190565b600082613aa057613aa0613b5c565b500490565b6000817fffffffffffffffffffffffffffffffffffffffffffffffffffffffffffffffff0483118215151615613add57613add613b46565b500290565b600082821015613af457613af4613b46565b500390565b60007fffffffffffffffffffffffffffffffffffffffffffffffffffffffffffffffff821415613b2b57613b2b613b46565b5060010190565b600082613b4157613b41613b5c565b500690565b634e487b7160e01b600052601160045260246000fd5b634e487b7160e01b600052601260045260246000fd5b634e487b7160e01b600052604160045260246000fd5b6001600160a01b038116811461109d57600080fdfea2646970667358221220323ce3319ac05b604b9785a352b483ef026081048e2bad2b02cc4ffc6351794a64736f6c63430008030033",
  "devdoc": {
    "kind": "dev",
    "methods": {
      "applyBorrowInterest(uint256,address,uint256)": {
        "details": "how much interest has accrued to a borrowed balance over time"
      },
      "buyBond(address,uint256,uint256,uint256)": {
        "details": "buy fixed term bond that does not renew"
      },
      "buyHourlyBondSubscription(address,uint256)": {
        "details": "buy hourly bond subscription"
      },
      "payOff(address,uint256)": {
        "details": "gets called by router if loan is extinguished"
      },
      "registerBorrow(address,uint256)": {
        "details": "gets called by router to register if a trader borrows issuers"
      },
      "viewBorrowInterest(uint256,address,uint256)": {
        "details": "view function to get current borrowing interest"
      },
      "viewBorrowingYieldFP(address)": {
        "details": "get the borrow yield"
      },
      "withdrawBond(uint256)": {
        "details": "send back funds of bond after maturity"
      },
      "withdrawHourlyBond(address,uint256)": {
        "details": "withdraw an hour bond"
      }
    },
    "stateVariables": {
      "bondIds": {
        "details": "IDs for all bonds held by an address"
      }
    },
    "title": "Manage lending for a variety of bond issuers",
    "version": 1
  },
  "userdoc": {
    "kind": "user",
    "methods": {
      "activateIssuer(address)": {
        "notice": "Make a issuer available for protocol"
      },
      "activateIssuer(address,address)": {
        "notice": "Make issuer != token available for protocol (isol. margin)"
      },
      "activeIssuers(address)": {
        "notice": "map of available issuers"
      },
      "closeHourlyBondAccount(address)": {
        "notice": "Shut down hourly bond account for `issuer`"
      },
      "deactivateIssuer(address)": {
        "notice": "Remove a issuer from trading availability"
      },
      "haircuts(address)": {
        "notice": "In case of shortfall, adjust debt"
      },
      "issuerTokens(address)": {
        "notice": "mapping issuers to tokens (in crossmargin, the issuers are tokens  themselves)"
      },
      "setHourlyYieldAPR(address,uint256)": {
        "notice": "Set hourly yield APR for issuer"
      },
      "setIncentiveTranche(address,uint8)": {
        "notice": "Set incentive tranche"
      },
      "setLendingBuffer(address,uint256)": {
        "notice": "Set lending buffer"
      },
      "setLendingCap(address,uint256)": {
        "notice": "Set lending cap"
      },
      "setMaxHourlyYieldFP(uint256)": {
        "notice": "Set maximum hourly yield in floating point"
      },
      "setMaxRuntime(uint256)": {
        "notice": "Set maximum runtime"
      },
      "setMinRuntime(uint256)": {
        "notice": "Set miniumum runtime"
      },
      "setRuntimeWeights(address,uint256[])": {
        "notice": "Set runtime weights in floating point"
      },
      "setRuntimeYieldsFP(address,uint256[])": {
        "notice": "Set runtime yields in floating point"
      },
      "setWithdrawalWindow(uint256)": {
        "notice": "Set withdrawal window"
      },
      "setYieldChangePerSecondFP(uint256)": {
        "notice": "Set yield change per second in floating point"
      },
      "viewBondReturn(address,uint256,uint256)": {
        "notice": "Get view of returns on bond"
      },
      "viewLendingTarget(address)": {
        "notice": "View lending target"
      }
    },
    "version": 1
  },
  "storageLayout": {
    "storage": [
      {
        "astId": 11650,
        "contract": "contracts/Lending.sol:Lending",
        "label": "mainCharacterCache",
        "offset": 0,
        "slot": "0",
        "type": "t_mapping(t_uint256,t_address)"
      },
      {
        "astId": 11656,
        "contract": "contracts/Lending.sol:Lending",
        "label": "roleCache",
        "offset": 0,
        "slot": "1",
        "type": "t_mapping(t_address,t_mapping(t_uint256,t_bool))"
      },
      {
        "astId": 1650,
        "contract": "contracts/Lending.sol:Lending",
        "label": "lendingMeta",
        "offset": 0,
        "slot": "2",
        "type": "t_mapping(t_address,t_struct(LendingMetadata)1645_storage)"
      },
      {
        "astId": 1656,
        "contract": "contracts/Lending.sol:Lending",
        "label": "borrowYieldAccumulators",
        "offset": 0,
        "slot": "3",
        "type": "t_mapping(t_address,t_struct(YieldAccumulator)1636_storage)"
      },
      {
        "astId": 1658,
        "contract": "contracts/Lending.sol:Lending",
        "label": "maxHourlyYieldFP",
        "offset": 0,
        "slot": "4",
        "type": "t_uint256"
      },
      {
        "astId": 1660,
        "contract": "contracts/Lending.sol:Lending",
        "label": "yieldChangePerSecondFP",
        "offset": 0,
        "slot": "5",
        "type": "t_uint256"
      },
      {
        "astId": 5856,
        "contract": "contracts/Lending.sol:Lending",
        "label": "hourlyBondMetadata",
        "offset": 0,
        "slot": "6",
        "type": "t_mapping(t_address,t_struct(HourlyBondMetadata)5851_storage)"
      },
      {
        "astId": 5859,
        "contract": "contracts/Lending.sol:Lending",
        "label": "withdrawalWindow",
        "offset": 0,
        "slot": "7",
        "type": "t_uint256"
      },
      {
        "astId": 5866,
        "contract": "contracts/Lending.sol:Lending",
        "label": "hourlyBondAccounts",
        "offset": 0,
        "slot": "8",
        "type": "t_mapping(t_address,t_mapping(t_address,t_struct(HourlyBond)5836_storage))"
      },
      {
        "astId": 5869,
        "contract": "contracts/Lending.sol:Lending",
        "label": "borrowingFactorPercent",
        "offset": 0,
        "slot": "9",
        "type": "t_uint256"
      },
      {
        "astId": 1921,
        "contract": "contracts/Lending.sol:Lending",
        "label": "minRuntime",
        "offset": 0,
        "slot": "10",
        "type": "t_uint256"
      },
      {
        "astId": 1924,
        "contract": "contracts/Lending.sol:Lending",
        "label": "maxRuntime",
        "offset": 0,
        "slot": "11",
        "type": "t_uint256"
      },
      {
        "astId": 1926,
        "contract": "contracts/Lending.sol:Lending",
        "label": "diffMaxMinRuntime",
        "offset": 0,
        "slot": "12",
        "type": "t_uint256"
      },
      {
        "astId": 1932,
        "contract": "contracts/Lending.sol:Lending",
        "label": "borrowingMarkupFP",
        "offset": 0,
        "slot": "13",
        "type": "t_uint256"
      },
      {
        "astId": 1954,
        "contract": "contracts/Lending.sol:Lending",
        "label": "bonds",
        "offset": 0,
        "slot": "14",
        "type": "t_mapping(t_uint256,t_struct(Bond)1915_storage)"
      },
      {
        "astId": 1960,
        "contract": "contracts/Lending.sol:Lending",
        "label": "bondBucketMetadata",
        "offset": 0,
        "slot": "15",
        "type": "t_mapping(t_address,t_array(t_struct(BondBucketMetadata)1949_storage)dyn_storage)"
      },
      {
        "astId": 1963,
        "contract": "contracts/Lending.sol:Lending",
        "label": "nextBondIndex",
        "offset": 0,
        "slot": "16",
        "type": "t_uint256"
      },
      {
        "astId": 7260,
        "contract": "contracts/Lending.sol:Lending",
        "label": "incentiveTranches",
        "offset": 0,
        "slot": "17",
        "type": "t_mapping(t_address,t_uint256)"
      },
      {
        "astId": 8471,
        "contract": "contracts/Lending.sol:Lending",
        "label": "bondIds",
        "offset": 0,
        "slot": "18",
        "type": "t_mapping(t_address,t_array(t_uint256)dyn_storage)"
      },
      {
        "astId": 8476,
        "contract": "contracts/Lending.sol:Lending",
        "label": "issuerTokens",
        "offset": 0,
        "slot": "19",
        "type": "t_mapping(t_address,t_address)"
      },
      {
        "astId": 8481,
        "contract": "contracts/Lending.sol:Lending",
        "label": "haircuts",
        "offset": 0,
        "slot": "20",
        "type": "t_mapping(t_address,t_uint256)"
      },
      {
        "astId": 8486,
        "contract": "contracts/Lending.sol:Lending",
        "label": "activeIssuers",
        "offset": 0,
        "slot": "21",
        "type": "t_mapping(t_address,t_bool)"
      }
    ],
    "types": {
      "t_address": {
        "encoding": "inplace",
        "label": "address",
        "numberOfBytes": "20"
      },
      "t_array(t_struct(BondBucketMetadata)1949_storage)dyn_storage": {
        "base": "t_struct(BondBucketMetadata)1949_storage",
        "encoding": "dynamic_array",
        "label": "struct BondLending.BondBucketMetadata[]",
        "numberOfBytes": "32"
      },
      "t_array(t_uint256)dyn_storage": {
        "base": "t_uint256",
        "encoding": "dynamic_array",
        "label": "uint256[]",
        "numberOfBytes": "32"
      },
      "t_bool": {
        "encoding": "inplace",
        "label": "bool",
        "numberOfBytes": "1"
      },
      "t_mapping(t_address,t_address)": {
        "encoding": "mapping",
        "key": "t_address",
        "label": "mapping(address => address)",
        "numberOfBytes": "32",
        "value": "t_address"
      },
      "t_mapping(t_address,t_array(t_struct(BondBucketMetadata)1949_storage)dyn_storage)": {
        "encoding": "mapping",
        "key": "t_address",
        "label": "mapping(address => struct BondLending.BondBucketMetadata[])",
        "numberOfBytes": "32",
        "value": "t_array(t_struct(BondBucketMetadata)1949_storage)dyn_storage"
      },
      "t_mapping(t_address,t_array(t_uint256)dyn_storage)": {
        "encoding": "mapping",
        "key": "t_address",
        "label": "mapping(address => uint256[])",
        "numberOfBytes": "32",
        "value": "t_array(t_uint256)dyn_storage"
      },
      "t_mapping(t_address,t_bool)": {
        "encoding": "mapping",
        "key": "t_address",
        "label": "mapping(address => bool)",
        "numberOfBytes": "32",
        "value": "t_bool"
      },
      "t_mapping(t_address,t_mapping(t_address,t_struct(HourlyBond)5836_storage))": {
        "encoding": "mapping",
        "key": "t_address",
        "label": "mapping(address => mapping(address => struct HourlyBond))",
        "numberOfBytes": "32",
        "value": "t_mapping(t_address,t_struct(HourlyBond)5836_storage)"
      },
      "t_mapping(t_address,t_mapping(t_uint256,t_bool))": {
        "encoding": "mapping",
        "key": "t_address",
        "label": "mapping(address => mapping(uint256 => bool))",
        "numberOfBytes": "32",
        "value": "t_mapping(t_uint256,t_bool)"
      },
      "t_mapping(t_address,t_struct(HourlyBond)5836_storage)": {
        "encoding": "mapping",
        "key": "t_address",
        "label": "mapping(address => struct HourlyBond)",
        "numberOfBytes": "32",
        "value": "t_struct(HourlyBond)5836_storage"
      },
      "t_mapping(t_address,t_struct(HourlyBondMetadata)5851_storage)": {
        "encoding": "mapping",
        "key": "t_address",
        "label": "mapping(address => struct HourlyBondSubscriptionLending.HourlyBondMetadata)",
        "numberOfBytes": "32",
        "value": "t_struct(HourlyBondMetadata)5851_storage"
      },
      "t_mapping(t_address,t_struct(LendingMetadata)1645_storage)": {
        "encoding": "mapping",
        "key": "t_address",
        "label": "mapping(address => struct BaseLending.LendingMetadata)",
        "numberOfBytes": "32",
        "value": "t_struct(LendingMetadata)1645_storage"
      },
      "t_mapping(t_address,t_struct(YieldAccumulator)1636_storage)": {
        "encoding": "mapping",
        "key": "t_address",
        "label": "mapping(address => struct BaseLending.YieldAccumulator)",
        "numberOfBytes": "32",
        "value": "t_struct(YieldAccumulator)1636_storage"
      },
      "t_mapping(t_address,t_uint256)": {
        "encoding": "mapping",
        "key": "t_address",
        "label": "mapping(address => uint256)",
        "numberOfBytes": "32",
        "value": "t_uint256"
      },
      "t_mapping(t_uint256,t_address)": {
        "encoding": "mapping",
        "key": "t_uint256",
        "label": "mapping(uint256 => address)",
        "numberOfBytes": "32",
        "value": "t_address"
      },
      "t_mapping(t_uint256,t_bool)": {
        "encoding": "mapping",
        "key": "t_uint256",
        "label": "mapping(uint256 => bool)",
        "numberOfBytes": "32",
        "value": "t_bool"
      },
      "t_mapping(t_uint256,t_struct(Bond)1915_storage)": {
        "encoding": "mapping",
        "key": "t_uint256",
        "label": "mapping(uint256 => struct Bond)",
        "numberOfBytes": "32",
        "value": "t_struct(Bond)1915_storage"
      },
      "t_struct(Bond)1915_storage": {
        "encoding": "inplace",
        "label": "struct Bond",
        "members": [
          {
            "astId": 1902,
            "contract": "contracts/Lending.sol:Lending",
            "label": "holder",
            "offset": 0,
            "slot": "0",
            "type": "t_address"
          },
          {
            "astId": 1904,
            "contract": "contracts/Lending.sol:Lending",
            "label": "issuer",
            "offset": 0,
            "slot": "1",
            "type": "t_address"
          },
          {
            "astId": 1906,
            "contract": "contracts/Lending.sol:Lending",
            "label": "originalPrice",
            "offset": 0,
            "slot": "2",
            "type": "t_uint256"
          },
          {
            "astId": 1908,
            "contract": "contracts/Lending.sol:Lending",
            "label": "returnAmount",
            "offset": 0,
            "slot": "3",
            "type": "t_uint256"
          },
          {
            "astId": 1910,
            "contract": "contracts/Lending.sol:Lending",
            "label": "maturityTimestamp",
            "offset": 0,
            "slot": "4",
            "type": "t_uint256"
          },
          {
            "astId": 1912,
            "contract": "contracts/Lending.sol:Lending",
            "label": "runtime",
            "offset": 0,
            "slot": "5",
            "type": "t_uint256"
          },
          {
            "astId": 1914,
            "contract": "contracts/Lending.sol:Lending",
            "label": "yieldFP",
            "offset": 0,
            "slot": "6",
            "type": "t_uint256"
          }
        ],
        "numberOfBytes": "224"
      },
      "t_struct(BondBucketMetadata)1949_storage": {
        "encoding": "inplace",
        "label": "struct BondLending.BondBucketMetadata",
        "members": [
          {
            "astId": 1934,
            "contract": "contracts/Lending.sol:Lending",
            "label": "runtimeWeight",
            "offset": 0,
            "slot": "0",
            "type": "t_uint256"
          },
          {
            "astId": 1936,
            "contract": "contracts/Lending.sol:Lending",
            "label": "buyingSpeed",
            "offset": 0,
            "slot": "1",
            "type": "t_uint256"
          },
          {
            "astId": 1938,
            "contract": "contracts/Lending.sol:Lending",
            "label": "lastBought",
            "offset": 0,
            "slot": "2",
            "type": "t_uint256"
          },
          {
            "astId": 1940,
            "contract": "contracts/Lending.sol:Lending",
            "label": "withdrawingSpeed",
            "offset": 0,
            "slot": "3",
            "type": "t_uint256"
          },
          {
            "astId": 1942,
            "contract": "contracts/Lending.sol:Lending",
            "label": "lastWithdrawn",
            "offset": 0,
            "slot": "4",
            "type": "t_uint256"
          },
          {
            "astId": 1944,
            "contract": "contracts/Lending.sol:Lending",
            "label": "yieldLastUpdated",
            "offset": 0,
            "slot": "5",
            "type": "t_uint256"
          },
          {
            "astId": 1946,
            "contract": "contracts/Lending.sol:Lending",
            "label": "totalLending",
            "offset": 0,
            "slot": "6",
            "type": "t_uint256"
          },
          {
            "astId": 1948,
            "contract": "contracts/Lending.sol:Lending",
            "label": "runtimeYieldFP",
            "offset": 0,
            "slot": "7",
            "type": "t_uint256"
          }
        ],
        "numberOfBytes": "256"
      },
      "t_struct(HourlyBond)5836_storage": {
        "encoding": "inplace",
        "label": "struct HourlyBond",
        "members": [
          {
            "astId": 5831,
            "contract": "contracts/Lending.sol:Lending",
            "label": "amount",
            "offset": 0,
            "slot": "0",
            "type": "t_uint256"
          },
          {
            "astId": 5833,
            "contract": "contracts/Lending.sol:Lending",
            "label": "yieldQuotientFP",
            "offset": 0,
            "slot": "1",
            "type": "t_uint256"
          },
          {
            "astId": 5835,
            "contract": "contracts/Lending.sol:Lending",
            "label": "moduloHour",
            "offset": 0,
            "slot": "2",
            "type": "t_uint256"
          }
        ],
        "numberOfBytes": "96"
      },
      "t_struct(HourlyBondMetadata)5851_storage": {
        "encoding": "inplace",
        "label": "struct HourlyBondSubscriptionLending.HourlyBondMetadata",
        "members": [
          {
            "astId": 5842,
            "contract": "contracts/Lending.sol:Lending",
            "label": "yieldAccumulator",
            "offset": 0,
            "slot": "0",
            "type": "t_struct(YieldAccumulator)1636_storage"
          },
          {
            "astId": 5844,
            "contract": "contracts/Lending.sol:Lending",
            "label": "buyingSpeed",
            "offset": 0,
            "slot": "3",
            "type": "t_uint256"
          },
          {
            "astId": 5846,
            "contract": "contracts/Lending.sol:Lending",
            "label": "withdrawingSpeed",
            "offset": 0,
            "slot": "4",
            "type": "t_uint256"
          },
          {
            "astId": 5848,
            "contract": "contracts/Lending.sol:Lending",
            "label": "lastBought",
            "offset": 0,
            "slot": "5",
            "type": "t_uint256"
          },
          {
            "astId": 5850,
            "contract": "contracts/Lending.sol:Lending",
            "label": "lastWithdrawn",
            "offset": 0,
            "slot": "6",
            "type": "t_uint256"
          }
        ],
        "numberOfBytes": "224"
      },
      "t_struct(LendingMetadata)1645_storage": {
        "encoding": "inplace",
        "label": "struct BaseLending.LendingMetadata",
        "members": [
          {
            "astId": 1638,
            "contract": "contracts/Lending.sol:Lending",
            "label": "totalLending",
            "offset": 0,
            "slot": "0",
            "type": "t_uint256"
          },
          {
            "astId": 1640,
            "contract": "contracts/Lending.sol:Lending",
            "label": "totalBorrowed",
            "offset": 0,
            "slot": "1",
            "type": "t_uint256"
          },
          {
            "astId": 1642,
            "contract": "contracts/Lending.sol:Lending",
            "label": "lendingBuffer",
            "offset": 0,
            "slot": "2",
            "type": "t_uint256"
          },
          {
            "astId": 1644,
            "contract": "contracts/Lending.sol:Lending",
            "label": "lendingCap",
            "offset": 0,
            "slot": "3",
            "type": "t_uint256"
          }
        ],
        "numberOfBytes": "128"
      },
      "t_struct(YieldAccumulator)1636_storage": {
        "encoding": "inplace",
        "label": "struct BaseLending.YieldAccumulator",
        "members": [
          {
            "astId": 1631,
            "contract": "contracts/Lending.sol:Lending",
            "label": "accumulatorFP",
            "offset": 0,
            "slot": "0",
            "type": "t_uint256"
          },
          {
            "astId": 1633,
            "contract": "contracts/Lending.sol:Lending",
            "label": "lastUpdated",
            "offset": 0,
            "slot": "1",
            "type": "t_uint256"
          },
          {
            "astId": 1635,
            "contract": "contracts/Lending.sol:Lending",
            "label": "hourlyYieldFP",
            "offset": 0,
            "slot": "2",
            "type": "t_uint256"
          }
        ],
        "numberOfBytes": "96"
      },
      "t_uint256": {
        "encoding": "inplace",
        "label": "uint256",
        "numberOfBytes": "32"
      }
    }
  }
}