{
  "address": "0xeb2eF693887C7ba5829B58d95fe28Cf944a192F4",
  "abi": [
    {
      "inputs": [
        {
          "internalType": "address",
          "name": "_roles",
          "type": "address"
        }
      ],
      "stateMutability": "nonpayable",
      "type": "constructor"
    },
    {
      "anonymous": false,
      "inputs": [
        {
          "indexed": true,
          "internalType": "address",
          "name": "issuer",
          "type": "address"
        },
        {
          "indexed": true,
          "internalType": "address",
          "name": "holder",
          "type": "address"
        },
        {
          "indexed": false,
          "internalType": "uint256",
          "name": "value",
          "type": "uint256"
        }
      ],
      "name": "LiquidityWarning",
      "type": "event"
    },
    {
      "inputs": [],
      "name": "WEIGHT_TOTAL_10k",
      "outputs": [
        {
          "internalType": "uint256",
          "name": "",
          "type": "uint256"
        }
      ],
      "stateMutability": "view",
      "type": "function"
    },
    {
      "inputs": [
        {
          "internalType": "address",
          "name": "issuer",
          "type": "address"
        }
      ],
      "name": "activateIssuer",
      "outputs": [],
      "stateMutability": "nonpayable",
      "type": "function"
    },
    {
      "inputs": [
        {
          "internalType": "address",
          "name": "issuer",
          "type": "address"
        },
        {
          "internalType": "address",
          "name": "token",
          "type": "address"
        }
      ],
      "name": "activateIssuer",
      "outputs": [],
      "stateMutability": "nonpayable",
      "type": "function"
    },
    {
      "inputs": [
        {
          "internalType": "address",
          "name": "",
          "type": "address"
        }
      ],
      "name": "activeIssuers",
      "outputs": [
        {
          "internalType": "bool",
          "name": "",
          "type": "bool"
        }
      ],
      "stateMutability": "view",
      "type": "function"
    },
    {
      "inputs": [
        {
          "internalType": "uint256",
          "name": "balance",
          "type": "uint256"
        },
        {
          "internalType": "address",
          "name": "issuer",
          "type": "address"
        },
        {
          "internalType": "uint256",
          "name": "yieldQuotientFP",
          "type": "uint256"
        }
      ],
      "name": "applyBorrowInterest",
      "outputs": [
        {
          "internalType": "uint256",
          "name": "balanceWithInterest",
          "type": "uint256"
        },
        {
          "internalType": "uint256",
          "name": "accumulatorFP",
          "type": "uint256"
        }
      ],
      "stateMutability": "nonpayable",
      "type": "function"
    },
    {
      "inputs": [
        {
          "internalType": "address",
          "name": "",
          "type": "address"
        },
        {
          "internalType": "uint256",
          "name": "",
          "type": "uint256"
        }
      ],
      "name": "bondBucketMetadata",
      "outputs": [
        {
          "internalType": "uint256",
          "name": "runtimeWeight",
          "type": "uint256"
        },
        {
          "internalType": "uint256",
          "name": "buyingSpeed",
          "type": "uint256"
        },
        {
          "internalType": "uint256",
          "name": "lastBought",
          "type": "uint256"
        },
        {
          "internalType": "uint256",
          "name": "withdrawingSpeed",
          "type": "uint256"
        },
        {
          "internalType": "uint256",
          "name": "lastWithdrawn",
          "type": "uint256"
        },
        {
          "internalType": "uint256",
          "name": "yieldLastUpdated",
          "type": "uint256"
        },
        {
          "internalType": "uint256",
          "name": "totalLending",
          "type": "uint256"
        },
        {
          "internalType": "uint256",
          "name": "runtimeYieldFP",
          "type": "uint256"
        }
      ],
      "stateMutability": "view",
      "type": "function"
    },
    {
      "inputs": [
        {
          "internalType": "address",
          "name": "",
          "type": "address"
        },
        {
          "internalType": "uint256",
          "name": "",
          "type": "uint256"
        }
      ],
      "name": "bondIds",
      "outputs": [
        {
          "internalType": "uint256",
          "name": "",
          "type": "uint256"
        }
      ],
      "stateMutability": "view",
      "type": "function"
    },
    {
      "inputs": [
        {
          "internalType": "uint256",
          "name": "",
          "type": "uint256"
        }
      ],
      "name": "bonds",
      "outputs": [
        {
          "internalType": "address",
          "name": "holder",
          "type": "address"
        },
        {
          "internalType": "address",
          "name": "issuer",
          "type": "address"
        },
        {
          "internalType": "uint256",
          "name": "originalPrice",
          "type": "uint256"
        },
        {
          "internalType": "uint256",
          "name": "returnAmount",
          "type": "uint256"
        },
        {
          "internalType": "uint256",
          "name": "maturityTimestamp",
          "type": "uint256"
        },
        {
          "internalType": "uint256",
          "name": "runtime",
          "type": "uint256"
        },
        {
          "internalType": "uint256",
          "name": "yieldFP",
          "type": "uint256"
        }
      ],
      "stateMutability": "view",
      "type": "function"
    },
    {
      "inputs": [
        {
          "internalType": "address",
          "name": "",
          "type": "address"
        }
      ],
      "name": "borrowYieldAccumulators",
      "outputs": [
        {
          "internalType": "uint256",
          "name": "accumulatorFP",
          "type": "uint256"
        },
        {
          "internalType": "uint256",
          "name": "lastUpdated",
          "type": "uint256"
        },
        {
          "internalType": "uint256",
          "name": "hourlyYieldFP",
          "type": "uint256"
        }
      ],
      "stateMutability": "view",
      "type": "function"
    },
    {
      "inputs": [],
      "name": "borrowingFactorPercent",
      "outputs": [
        {
          "internalType": "uint256",
          "name": "",
          "type": "uint256"
        }
      ],
      "stateMutability": "view",
      "type": "function"
    },
    {
      "inputs": [
        {
          "internalType": "address",
          "name": "issuer",
          "type": "address"
        },
        {
          "internalType": "uint256",
          "name": "runtime",
          "type": "uint256"
        },
        {
          "internalType": "uint256",
          "name": "amount",
          "type": "uint256"
        },
        {
          "internalType": "uint256",
          "name": "minReturn",
          "type": "uint256"
        }
      ],
      "name": "buyBond",
      "outputs": [
        {
          "internalType": "uint256",
          "name": "bondIndex",
          "type": "uint256"
        }
      ],
      "stateMutability": "nonpayable",
      "type": "function"
    },
    {
      "inputs": [
        {
          "internalType": "address",
          "name": "issuer",
          "type": "address"
        },
        {
          "internalType": "uint256",
          "name": "amount",
          "type": "uint256"
        }
      ],
      "name": "buyHourlyBondSubscription",
      "outputs": [],
      "stateMutability": "nonpayable",
      "type": "function"
    },
    {
      "inputs": [
        {
          "internalType": "address",
          "name": "issuer",
          "type": "address"
        }
      ],
      "name": "closeHourlyBondAccount",
      "outputs": [],
      "stateMutability": "nonpayable",
      "type": "function"
    },
    {
      "inputs": [
        {
          "internalType": "address",
          "name": "issuer",
          "type": "address"
        }
      ],
      "name": "deactivateIssuer",
      "outputs": [],
      "stateMutability": "nonpayable",
      "type": "function"
    },
    {
      "inputs": [],
      "name": "diffMaxMinRuntime",
      "outputs": [
        {
          "internalType": "uint256",
          "name": "",
          "type": "uint256"
        }
      ],
      "stateMutability": "view",
      "type": "function"
    },
    {
      "inputs": [
        {
          "internalType": "address",
          "name": "issuer",
          "type": "address"
        }
      ],
      "name": "getUpdatedBorrowYieldAccuFP",
      "outputs": [
        {
          "internalType": "uint256",
          "name": "",
          "type": "uint256"
        }
      ],
      "stateMutability": "nonpayable",
      "type": "function"
    },
    {
      "inputs": [
        {
          "internalType": "uint256",
          "name": "amount",
          "type": "uint256"
        }
      ],
      "name": "haircut",
      "outputs": [],
      "stateMutability": "nonpayable",
      "type": "function"
    },
    {
      "inputs": [
        {
          "internalType": "address",
          "name": "",
          "type": "address"
        }
      ],
      "name": "haircuts",
      "outputs": [
        {
          "internalType": "uint256",
          "name": "",
          "type": "uint256"
        }
      ],
      "stateMutability": "view",
      "type": "function"
    },
    {
      "inputs": [
        {
          "internalType": "address",
          "name": "",
          "type": "address"
        },
        {
          "internalType": "address",
          "name": "",
          "type": "address"
        }
      ],
      "name": "hourlyBondAccounts",
      "outputs": [
        {
          "internalType": "uint256",
          "name": "amount",
          "type": "uint256"
        },
        {
          "internalType": "uint256",
          "name": "yieldQuotientFP",
          "type": "uint256"
        },
        {
          "internalType": "uint256",
          "name": "moduloHour",
          "type": "uint256"
        }
      ],
      "stateMutability": "view",
      "type": "function"
    },
    {
      "inputs": [
        {
          "internalType": "address",
          "name": "",
          "type": "address"
        }
      ],
      "name": "incentiveTranches",
      "outputs": [
        {
          "internalType": "uint256",
          "name": "",
          "type": "uint256"
        }
      ],
      "stateMutability": "view",
      "type": "function"
    },
    {
      "inputs": [
        {
          "internalType": "address",
          "name": "issuer",
          "type": "address"
        }
      ],
      "name": "initBorrowYieldAccumulator",
      "outputs": [],
      "stateMutability": "nonpayable",
      "type": "function"
    },
    {
      "inputs": [
        {
          "internalType": "address",
          "name": "",
          "type": "address"
        }
      ],
      "name": "issuerTokens",
      "outputs": [
        {
          "internalType": "address",
          "name": "",
          "type": "address"
        }
      ],
      "stateMutability": "view",
      "type": "function"
    },
    {
      "inputs": [
        {
          "internalType": "address",
          "name": "",
          "type": "address"
        }
      ],
      "name": "lendingMeta",
      "outputs": [
        {
          "internalType": "uint256",
          "name": "totalLending",
          "type": "uint256"
        },
        {
          "internalType": "uint256",
          "name": "totalBorrowed",
          "type": "uint256"
        },
        {
          "internalType": "uint256",
          "name": "lendingBuffer",
          "type": "uint256"
        },
        {
          "internalType": "uint256",
          "name": "lendingCap",
          "type": "uint256"
        }
      ],
      "stateMutability": "view",
      "type": "function"
    },
    {
      "inputs": [
        {
          "internalType": "uint256",
          "name": "",
          "type": "uint256"
        }
      ],
      "name": "mainCharacterCache",
      "outputs": [
        {
          "internalType": "address",
          "name": "",
          "type": "address"
        }
      ],
      "stateMutability": "view",
      "type": "function"
    },
    {
      "inputs": [],
      "name": "maxHourlyYieldFP",
      "outputs": [
        {
          "internalType": "uint256",
          "name": "",
          "type": "uint256"
        }
      ],
      "stateMutability": "view",
      "type": "function"
    },
    {
      "inputs": [],
      "name": "maxRuntime",
      "outputs": [
        {
          "internalType": "uint256",
          "name": "",
          "type": "uint256"
        }
      ],
      "stateMutability": "view",
      "type": "function"
    },
    {
      "inputs": [],
      "name": "minRuntime",
      "outputs": [
        {
          "internalType": "uint256",
          "name": "",
          "type": "uint256"
        }
      ],
      "stateMutability": "view",
      "type": "function"
    },
    {
      "inputs": [],
      "name": "nextBondIndex",
      "outputs": [
        {
          "internalType": "uint256",
          "name": "",
          "type": "uint256"
        }
      ],
      "stateMutability": "view",
      "type": "function"
    },
    {
      "inputs": [
        {
          "internalType": "address",
          "name": "issuer",
          "type": "address"
        },
        {
          "internalType": "uint256",
          "name": "amount",
          "type": "uint256"
        }
      ],
      "name": "payOff",
      "outputs": [],
      "stateMutability": "nonpayable",
      "type": "function"
    },
    {
      "inputs": [
        {
          "internalType": "address",
          "name": "issuer",
          "type": "address"
        },
        {
          "internalType": "uint256",
          "name": "amount",
          "type": "uint256"
        }
      ],
      "name": "registerBorrow",
      "outputs": [],
      "stateMutability": "nonpayable",
      "type": "function"
    },
    {
      "inputs": [
        {
          "internalType": "address",
          "name": "",
          "type": "address"
        },
        {
          "internalType": "uint256",
          "name": "",
          "type": "uint256"
        }
      ],
      "name": "roleCache",
      "outputs": [
        {
          "internalType": "bool",
          "name": "",
          "type": "bool"
        }
      ],
      "stateMutability": "view",
      "type": "function"
    },
    {
      "inputs": [],
      "name": "roles",
      "outputs": [
        {
          "internalType": "contract Roles",
          "name": "",
          "type": "address"
        }
      ],
      "stateMutability": "view",
      "type": "function"
    },
    {
      "inputs": [
        {
          "internalType": "uint256",
          "name": "borrowingFactor",
          "type": "uint256"
        }
      ],
      "name": "setBorrowingFactorPercent",
      "outputs": [],
      "stateMutability": "nonpayable",
      "type": "function"
    },
    {
      "inputs": [
        {
          "internalType": "address",
          "name": "issuer",
          "type": "address"
        },
        {
          "internalType": "uint256",
          "name": "aprPercent",
          "type": "uint256"
        }
      ],
      "name": "setHourlyYieldAPR",
      "outputs": [],
      "stateMutability": "nonpayable",
      "type": "function"
    },
    {
      "inputs": [
        {
          "internalType": "address",
          "name": "token",
          "type": "address"
        },
        {
          "internalType": "uint8",
          "name": "tranche",
          "type": "uint8"
        }
      ],
      "name": "setIncentiveTranche",
      "outputs": [],
      "stateMutability": "nonpayable",
      "type": "function"
    },
    {
      "inputs": [
        {
          "internalType": "address",
          "name": "issuer",
          "type": "address"
        },
        {
          "internalType": "uint256",
          "name": "buffer",
          "type": "uint256"
        }
      ],
      "name": "setLendingBuffer",
      "outputs": [],
      "stateMutability": "nonpayable",
      "type": "function"
    },
    {
      "inputs": [
        {
          "internalType": "address",
          "name": "issuer",
          "type": "address"
        },
        {
          "internalType": "uint256",
          "name": "cap",
          "type": "uint256"
        }
      ],
      "name": "setLendingCap",
      "outputs": [],
      "stateMutability": "nonpayable",
      "type": "function"
    },
    {
      "inputs": [
        {
          "internalType": "uint256",
          "name": "maxYieldFP",
          "type": "uint256"
        }
      ],
      "name": "setMaxHourlyYieldFP",
      "outputs": [],
      "stateMutability": "nonpayable",
      "type": "function"
    },
    {
      "inputs": [
        {
          "internalType": "uint256",
          "name": "runtime",
          "type": "uint256"
        }
      ],
      "name": "setMaxRuntime",
      "outputs": [],
      "stateMutability": "nonpayable",
      "type": "function"
    },
    {
      "inputs": [
        {
          "internalType": "uint256",
          "name": "runtime",
          "type": "uint256"
        }
      ],
      "name": "setMinRuntime",
      "outputs": [],
      "stateMutability": "nonpayable",
      "type": "function"
    },
    {
      "inputs": [
        {
          "internalType": "address",
          "name": "issuer",
          "type": "address"
        },
        {
          "internalType": "uint256[]",
          "name": "weights",
          "type": "uint256[]"
        }
      ],
      "name": "setRuntimeWeights",
      "outputs": [],
      "stateMutability": "nonpayable",
      "type": "function"
    },
    {
      "inputs": [
        {
          "internalType": "address",
          "name": "issuer",
          "type": "address"
        },
        {
          "internalType": "uint256[]",
          "name": "yieldsFP",
          "type": "uint256[]"
        }
      ],
      "name": "setRuntimeYieldsFP",
      "outputs": [],
      "stateMutability": "nonpayable",
      "type": "function"
    },
    {
      "inputs": [
        {
          "internalType": "uint256",
          "name": "window",
          "type": "uint256"
        }
      ],
      "name": "setWithdrawalWindow",
      "outputs": [],
      "stateMutability": "nonpayable",
      "type": "function"
    },
    {
      "inputs": [
        {
          "internalType": "uint256",
          "name": "changePerSecondFP",
          "type": "uint256"
        }
      ],
      "name": "setYieldChangePerSecondFP",
      "outputs": [],
      "stateMutability": "nonpayable",
      "type": "function"
    },
    {
      "inputs": [
        {
          "internalType": "uint256",
          "name": "role",
          "type": "uint256"
        }
      ],
      "name": "updateMainCharacterCache",
      "outputs": [],
      "stateMutability": "nonpayable",
      "type": "function"
    },
    {
      "inputs": [
        {
          "internalType": "uint256",
          "name": "role",
          "type": "uint256"
        },
        {
          "internalType": "address",
          "name": "contr",
          "type": "address"
        }
      ],
      "name": "updateRoleCache",
      "outputs": [],
      "stateMutability": "nonpayable",
      "type": "function"
    },
    {
      "inputs": [
        {
          "internalType": "address",
          "name": "issuer",
          "type": "address"
        }
      ],
      "name": "viewAccumulatedBorrowingYieldFP",
      "outputs": [
        {
          "internalType": "uint256",
          "name": "",
          "type": "uint256"
        }
      ],
      "stateMutability": "view",
      "type": "function"
    },
    {
      "inputs": [
        {
          "internalType": "address",
          "name": "issuer",
          "type": "address"
        },
        {
          "internalType": "uint256",
          "name": "runtime",
          "type": "uint256"
        },
        {
          "internalType": "uint256",
          "name": "amount",
          "type": "uint256"
        }
      ],
      "name": "viewBondReturn",
      "outputs": [
        {
          "internalType": "uint256",
          "name": "",
          "type": "uint256"
        }
      ],
      "stateMutability": "view",
      "type": "function"
    },
    {
      "inputs": [
        {
          "internalType": "address",
          "name": "issuer",
          "type": "address"
        }
      ],
      "name": "viewBorrowAPRPer10k",
      "outputs": [
        {
          "internalType": "uint256",
          "name": "",
          "type": "uint256"
        }
      ],
      "stateMutability": "view",
      "type": "function"
    },
    {
      "inputs": [
        {
          "internalType": "address",
          "name": "issuer",
          "type": "address"
        }
      ],
      "name": "viewHourlyBondAPRPer10k",
      "outputs": [
        {
          "internalType": "uint256",
          "name": "",
          "type": "uint256"
        }
      ],
      "stateMutability": "view",
      "type": "function"
    },
    {
      "inputs": [
        {
          "internalType": "address",
          "name": "issuer",
          "type": "address"
        },
        {
          "internalType": "address",
          "name": "holder",
          "type": "address"
        }
      ],
      "name": "viewHourlyBondAmount",
      "outputs": [
        {
          "internalType": "uint256",
          "name": "",
          "type": "uint256"
        }
      ],
      "stateMutability": "view",
      "type": "function"
    },
    {
      "inputs": [
        {
          "internalType": "address",
          "name": "issuer",
          "type": "address"
        }
      ],
      "name": "viewLendingTarget",
      "outputs": [
        {
          "internalType": "uint256",
          "name": "",
          "type": "uint256"
        }
      ],
      "stateMutability": "view",
      "type": "function"
    },
    {
      "inputs": [
        {
          "internalType": "uint256",
          "name": "balance",
          "type": "uint256"
        },
        {
          "internalType": "address",
          "name": "issuer",
          "type": "address"
        },
        {
          "internalType": "uint256",
          "name": "yieldQuotientFP",
          "type": "uint256"
        }
      ],
      "name": "viewWithBorrowInterest",
      "outputs": [
        {
          "internalType": "uint256",
          "name": "",
          "type": "uint256"
        }
      ],
      "stateMutability": "view",
      "type": "function"
    },
    {
      "inputs": [
        {
          "internalType": "uint256",
          "name": "bondId",
          "type": "uint256"
        }
      ],
      "name": "withdrawBond",
      "outputs": [],
      "stateMutability": "nonpayable",
      "type": "function"
    },
    {
      "inputs": [
        {
          "internalType": "address",
          "name": "issuer",
          "type": "address"
        },
        {
          "internalType": "uint256",
          "name": "amount",
          "type": "uint256"
        }
      ],
      "name": "withdrawHourlyBond",
      "outputs": [],
      "stateMutability": "nonpayable",
      "type": "function"
    },
    {
      "inputs": [],
      "name": "withdrawalWindow",
      "outputs": [
        {
          "internalType": "uint256",
          "name": "",
          "type": "uint256"
        }
      ],
      "stateMutability": "view",
      "type": "function"
    },
    {
      "inputs": [],
      "name": "yieldChangePerSecondFP",
      "outputs": [
        {
          "internalType": "uint256",
          "name": "",
          "type": "uint256"
        }
      ],
      "stateMutability": "view",
      "type": "function"
    }
  ],
  "transactionHash": "0x441fdd9fbe3bf1c36494c9cfc63940155717771c80a707eb044fc22b29e796fb",
  "args": [
    "0x71bB3bEB2f9803C6A2cC4A67326Cb67c87F42391"
  ],
  "solcInputHash": "450dcdb20602074e0628782d09a36611",
  "bytecode": "0x60a06040526104b060075560c860095562278d00600a556301e13380600b55600a54600b54620000309190620001b5565b600c556001600f553480156200004557600080fd5b5060405162003ff238038062003ff2833981016040819052620000689162000142565b806001600160a01b038116620000cf5760405162461bcd60e51b815260206004820152602260248201527f506c656173652070726f766964652076616c696420726f6c6573206164647265604482015261737360f01b606482015260840160405180910390fd5b60601b6001600160601b0319166080526103836122386064620000f88364010000000062000193565b62000104919062000172565b62000110919062000172565b60025560036103e8620001298264010000000062000193565b62000135919062000172565b60035550620001e5915050565b60006020828403121562000154578081fd5b81516001600160a01b03811681146200016b578182fd5b9392505050565b6000826200018e57634e487b7160e01b81526012600452602481fd5b500490565b6000816000190483118215151615620001b057620001b0620001cf565b500290565b600082821015620001ca57620001ca620001cf565b500390565b634e487b7160e01b600052601160045260246000fd5b60805160601c613dd262000220600039600081816104ee015281816109cd01528181610fc201528181612e240152612ebc0152613dd26000f3fe608060405234801561001057600080fd5b50600436106103835760003560e01c80637b8b4ee2116101de578063cc4b26a31161010f578063ebc22731116100ad578063f11f97951161007c578063f11f97951461095c578063f51dfe7a14610965578063f884614b14610978578063f90889c91461098b57610383565b8063ebc2273114610910578063ebe64bcc14610923578063ee0862bf14610936578063ef2cd3b81461094957610383565b8063d2b48934116100e9578063d2b4893414610899578063d4437dd8146108ac578063e695fa68146108bf578063e9c3f77d146108e757610383565b8063cc4b26a31461084f578063cd3b5dfb14610862578063d19bd0a71461089057610383565b8063a387832f1161017c578063ad037af611610156578063ad037af6146107cb578063b8139c6d14610820578063c3daab9614610829578063c94426a01461083c57610383565b8063a387832f1461079c578063a772404b146107af578063aa7e321d146107c257610383565b806383a04229116101b857806383a042291461070b5780638824cbba1461076057806391b46e05146107805780639229e73f1461079357610383565b80637b8b4ee2146106d25780637d34e405146106e5578063803a99b7146106f857610383565b8063447d52ba116102b85780636e60e24911610256578063773bbb3b11610230578063773bbb3b14610655578063797384b21461065e5780637a009135146106915780637a1a04df146106a457610383565b80636e60e2491461061c57806372d012571461062f57806376668b671461064257610383565b80634b86daab116102925780634b86daab146105495780635f1c17c01461055c57806364f85ab1146105f357806367e2de921461061357610383565b8063447d52ba1461051057806346c87f80146105235780634804dd341461053657610383565b8063267031b8116103255780632864f401116102ff5780632864f401146104b05780632a6a897b146104c357806336953912146104d6578063392f5f64146104e957610383565b8063267031b81461041857806326e0b35314610421578063281080261461046f57610383565b80630f7c43dc116103615780630f7c43dc146103cc578063117b2630146103df57806314189db2146103f257806316de7a431461040557610383565b8063071060a6146103885780630b5505461461039d5780630bba92b3146103b9575b600080fd5b61039b610396366004613ba2565b61099e565b005b6103a6600c5481565b6040519081526020015b60405180910390f35b6103a66103c7366004613ae2565b610a95565b61039b6103da366004613ab7565b610bb1565b6103a66103ed36600461394d565b610c3c565b6103a661040036600461394d565b610c66565b61039b610413366004613ab7565b610c88565b6103a660095481565b61043461042f366004613ab7565b610d1a565b604080519889526020890197909752958701949094526060860192909252608085015260a084015260c083015260e0820152610100016103b0565b61049861047d36600461394d565b6012602052600090815260409020546001600160a01b031681565b6040516001600160a01b0390911681526020016103b0565b61039b6104be366004613b50565b610d7f565b61039b6104d1366004613ab7565b610e66565b61039b6104e4366004613ba2565b610f05565b6104987f000000000000000000000000000000000000000000000000000000000000000081565b61039b61051e366004613bd2565b610f83565b6103a661053136600461394d565b611092565b61039b610544366004613ba2565b6110ba565b61039b61055736600461394d565b611138565b6105b361056a366004613ba2565b600d6020526000908152604090208054600182015460028301546003840154600485015460058601546006909601546001600160a01b0395861696959094169492939192909187565b604080516001600160a01b039889168152979096166020880152948601939093526060850191909152608084015260a083015260c082015260e0016103b0565b6103a661060136600461394d565b60136020526000908152604090205481565b6103a660025481565b6103a661062a36600461398c565b611145565b6103a661063d36600461394d565b6111bf565b6103a6610650366004613bf6565b6111e0565b6103a6600a5481565b61068161066c36600461394d565b60146020526000908152604090205460ff1681565b60405190151581526020016103b0565b61039b61069f36600461394d565b61121a565b6106816106b2366004613ab7565b600560209081526000928352604080842090915290825290205460ff1681565b6103a66106e0366004613b16565b61131e565b61039b6106f33660046139c4565b61142e565b61039b610706366004613ba2565b611570565b61074561071936600461398c565b600860209081526000928352604080842090915290825290208054600182015460029092015490919083565b604080519384526020840192909252908201526060016103b0565b6103a661076e36600461394d565b60106020526000908152604090205481565b61039b61078e366004613ba2565b611690565b6103a6600b5481565b61039b6107aa366004613ab7565b61170e565b61039b6107bd3660046139c4565b6117f2565b6103a6600f5481565b6108006107d936600461394d565b60006020819052908152604090208054600182015460028301546003909301549192909184565b6040805194855260208501939093529183015260608201526080016103b0565b6103a661271081565b61039b610837366004613ba2565b611b4c565b61039b61084a366004613ba2565b611c4f565b61039b61085d36600461394d565b611ccd565b61074561087036600461394d565b600160208190526000918252604090912080549181015460029091015483565b6103a660075481565b61039b6108a7366004613ab7565b611e2d565b61039b6108ba366004613ba2565b611f11565b6108d26108cd366004613bf6565b611f38565b604080519283526020830191909152016103b0565b6104986108f5366004613ba2565b6004602052600090815260409020546001600160a01b031681565b61039b61091e366004613ba2565b612026565b61039b61093136600461398c565b6120f5565b61039b610944366004613ab7565b612235565b6103a6610957366004613ab7565b61238f565b6103a660035481565b6103a661097336600461394d565b6123c0565b61039b61098636600461394d565b6123e1565b61039b610999366004613ab7565b612465565b6040517fb4ed0b6d000000000000000000000000000000000000000000000000000000008152600481018290527f00000000000000000000000000000000000000000000000000000000000000006001600160a01b03169063b4ed0b6d9060240160206040518083038186803b158015610a1757600080fd5b505afa158015610a2b573d6000803e3d6000fd5b505050506040513d601f19601f82011682018060405250810190610a4f9190613970565b60009182526004602052604090912080547fffffffffffffffffffffffff0000000000000000000000000000000000000000166001600160a01b03909216919091179055565b600080610aa28585612622565b90506000610b8b86600e6000896001600160a01b03166001600160a01b031681526020019081526020016000208481548110610b07577f4e487b7100000000000000000000000000000000000000000000000000000000600052603260045260246000fd5b90600052602060002090600802016006015486610b249190613c2d565b6001600160a01b0389166000908152600e60205260409020805489919087908110610b78577f4e487b7100000000000000000000000000000000000000000000000000000000600052603260045260246000fd5b906000526020600020906008020161266c565b9050640100000000610b9d8583613c59565b610ba79190613c45565b9695505050505050565b6001600160a01b03821660009081526008602090815260408083203384529091529020610bde8382612770565b610be98382846127fd565b8054610c21576001600160a01b0383166000908152600860209081526040808320338452909152812081815560018101829055600201555b610c2c833384612924565b610c37338484612aae565b505050565b6001600160a01b0381166000908152602081905260408120610c5d81612b8c565b9150505b919050565b6001600160a01b0381166000908152600160205260408120610c5d8142612baf565b6001600160a01b03821660009081526014602052604090205460ff16610cf55760405162461bcd60e51b815260206004820152601360248201527f4e6f7420617070726f766564206973737565720000000000000000000000000060448201526064015b60405180910390fd5b610d00823383612be9565b610d0b823383612ca8565b610d16338383612d76565b5050565b600e6020528160005260406000208181548110610d3657600080fd5b9060005260206000209060080201600091509150508060000154908060010154908060020154908060030154908060040154908060050154908060060154908060070154905088565b33610d88612e20565b6001600160a01b03161480610dac575033610da1612eb8565b6001600160a01b0316145b80610dd257503360009081526005602090815260408083206009845290915290205460ff165b610e445760405162461bcd60e51b815260206004820152603960248201527f43616c6c6572206973206e6f7420746865206f776e65722c206578656375746f60448201527f72206f7220617574686f72697a656420616374697661746f72000000000000006064820152608401610cec565b6001600160a01b03909116600090815260106020526040902060ff9091169055565b3360009081526005602090815260408083206003845290915290205460ff16610ed15760405162461bcd60e51b815260206004820152601560248201527f4e6f7420617070726f76656420626f72726f77657200000000000000000000006044820152606401610cec565b6001600160a01b03821660009081526020819052604081206001018054839290610efc908490613c96565b90915550505050565b33610f0e612e20565b6001600160a01b03161480610f32575033610f27612eb8565b6001600160a01b0316145b610f7e5760405162461bcd60e51b815260206004820152601e60248201527f526f6c65733a2063616c6c6572206973206e6f7420746865206f776e657200006044820152606401610cec565b600755565b6040517f93552a3d000000000000000000000000000000000000000000000000000000008152600481018390526001600160a01b0382811660248301527f000000000000000000000000000000000000000000000000000000000000000016906393552a3d9060440160206040518083038186803b15801561100457600080fd5b505afa158015611018573d6000803e3d6000fd5b505050506040513d601f19601f8201168201806040525081019061103c9190613b82565b6001600160a01b039190911660009081526005602090815260408083209483529390529190912080547fffffffffffffffffffffffffffffffffffffffffffffffffffffffffffffff0016911515919091179055565b6001600160a01b03811660009081526001602052604081206110b381612f29565b5492915050565b336110c3612e20565b6001600160a01b031614806110e75750336110dc612eb8565b6001600160a01b0316145b6111335760405162461bcd60e51b815260206004820152601e60248201527f526f6c65733a2063616c6c6572206973206e6f7420746865206f776e657200006044820152606401610cec565b600255565b61114281826120f5565b50565b6001600160a01b03808316600081815260086020908152604080832094861683529381528382206001810154938352600690915292812090929190839061118c9042612baf565b905081156111ab5782546111a1908284612f5d565b93505050506111b9565b50505490506111b9565b5050505b92915050565b6001600160a01b03811660009081526006602052604081206111b990612f6a565b6001600160a01b038216600090815260016020526040812081906112049042612baf565b9050611211858285612f5d565b95945050505050565b33611223612e20565b6001600160a01b0316148061124757503361123c612eb8565b6001600160a01b0316145b8061126d57503360009081526005602090815260408083206009845290915290205460ff165b6112df5760405162461bcd60e51b815260206004820152603960248201527f43616c6c6572206973206e6f7420746865206f776e65722c206578656375746f60448201527f72206f7220617574686f72697a656420616374697661746f72000000000000006064820152608401610cec565b6001600160a01b0316600090815260146020526040902080547fffffffffffffffffffffffffffffffffffffffffffffffffffffffffffffff00169055565b6001600160a01b03841660009081526014602052604081205460ff166113865760405162461bcd60e51b815260206004820152601360248201527f4e6f7420617070726f76656420697373756572000000000000000000000000006044820152606401610cec565b6001600160a01b038516600090815260208190526040902080546113ab908590613c2d565b6113b482612b8c565b101580156113c4575084600b5410155b80156113d25750600a548510155b15611425576113e43387878787612fc6565b91508115611425573360008181526011602090815260408220805460018101825590835291200183905561141a90879086612be9565b611425338786612d76565b50949350505050565b33611437612e20565b6001600160a01b0316148061145b575033611450612eb8565b6001600160a01b0316145b6114a75760405162461bcd60e51b815260206004820152601e60248201527f526f6c65733a2063616c6c6572206973206e6f7420746865206f776e657200006044820152606401610cec565b6001600160a01b0382166000908152600e60205260408120905b815481101561156a57828181518110611503577f4e487b7100000000000000000000000000000000000000000000000000000000600052603260045260246000fd5b6020026020010151828281548110611544577f4e487b7100000000000000000000000000000000000000000000000000000000600052603260045260246000fd5b60009182526020909120600760089092020101558061156281613cad565b9150506114c1565b50505050565b33611579612e20565b6001600160a01b0316148061159d575033611592612eb8565b6001600160a01b0316145b6115e95760405162461bcd60e51b815260206004820152601e60248201527f526f6c65733a2063616c6c6572206973206e6f7420746865206f776e657200006044820152606401610cec565b610e10811161163a5760405162461bcd60e51b815260206004820152601460248201527f4d696e2072756e74696d65203e203120686f75720000000000000000000000006044820152606401610cec565b80600b541161168b5760405162461bcd60e51b815260206004820152601060248201527f52756e74696d6520746f6f206c6f6e67000000000000000000000000000000006044820152606401610cec565b600a55565b33611699612e20565b6001600160a01b031614806116bd5750336116b2612eb8565b6001600160a01b0316145b6117095760405162461bcd60e51b815260206004820152601e60248201527f526f6c65733a2063616c6c6572206973206e6f7420746865206f776e657200006044820152606401610cec565b600955565b33611717612e20565b6001600160a01b0316148061173b575033611730612eb8565b6001600160a01b0316145b8061176157503360009081526005602090815260408083206009845290915290205460ff165b6117d35760405162461bcd60e51b815260206004820152603960248201527f43616c6c6572206973206e6f7420746865206f776e65722c206578656375746f60448201527f72206f7220617574686f72697a656420616374697661746f72000000000000006064820152608401610cec565b6001600160a01b03909116600090815260208190526040902060020155565b336117fb612e20565b6001600160a01b0316148061181f575033611814612eb8565b6001600160a01b0316145b8061184557503360009081526005602090815260408083206009845290915290205460ff165b6118b75760405162461bcd60e51b815260206004820152603960248201527f43616c6c6572206973206e6f7420746865206f776e65722c206578656375746f60448201527f72206f7220617574686f72697a656420616374697661746f72000000000000006064820152608401610cec565b6001600160a01b0382166000908152600e602052604090208054611a5257600061223860646118ec640100000000606e613c59565b6118f69190613c45565b6119009190613c45565b905060008351600c546119139190613c45565b905060005b8085511115611a4a57600061192d8284613c59565b600a5461193a9190613c2d565b905084604051806101000160405280888581518110611982577f4e487b7100000000000000000000000000000000000000000000000000000000600052603260045260246000fd5b60200260200101518152602001600181526020014281526020016001815260200142815260200142815260200160008152602001610e1084886119c59190613c59565b6119cf9190613c45565b905281546001818101845560009384526020938490208351600890930201918255928201519281019290925560408101516002830155606081015160038301556080810151600483015560a0810151600583015560c0810151600683015560e001516007909101555080611a4281613cad565b915050611918565b505050610c37565b8054825114611aa35760405162461bcd60e51b815260206004820152601360248201527f5765696768747320646f6e2774206d61746368000000000000000000000000006044820152606401610cec565b60005b808351111561156a57828181518110611ae8577f4e487b7100000000000000000000000000000000000000000000000000000000600052603260045260246000fd5b6020026020010151828281548110611b29577f4e487b7100000000000000000000000000000000000000000000000000000000600052603260045260246000fd5b600091825260209091206008909102015580611b4481613cad565b915050611aa6565b6000818152600d6020526040902080546001600160a01b03163314611bb35760405162461bcd60e51b815260206004820152600f60248201527f4e6f7420626f6e6420686f6c64657200000000000000000000000000000000006044820152606401610cec565b80600401544211611c065760405162461bcd60e51b815260206004820152601660248201527f626f6e64206973207374696c6c20696d6d6174757265000000000000000000006044820152606401610cec565b60018101546002820154611c279133916001600160a01b0390911690612aae565b6000611c3383836131fc565b6001830154909150610c37906001600160a01b03163383612924565b33611c58612e20565b6001600160a01b03161480611c7c575033611c71612eb8565b6001600160a01b0316145b611cc85760405162461bcd60e51b815260206004820152601e60248201527f526f6c65733a2063616c6c6572206973206e6f7420746865206f776e657200006044820152606401610cec565b600355565b33611cd6612e20565b6001600160a01b03161480611cfa575033611cef612eb8565b6001600160a01b0316145b80611d2057503360009081526005602090815260408083206009845290915290205460ff165b611d925760405162461bcd60e51b815260206004820152603960248201527f43616c6c6572206973206e6f7420746865206f776e65722c206578656375746f60448201527f72206f7220617574686f72697a656420616374697661746f72000000000000006064820152608401610cec565b6001600160a01b0381166000908152600160205260409020805415611df95760405162461bcd60e51b815260206004820152601360248201527f646f6e27742072652d696e697469616c697a65000000000000000000000000006044820152606401610cec565b640100000000808255426001830155611e159061223890613c45565b611e2490640100000000613c2d565b60029091015550565b33611e36612e20565b6001600160a01b03161480611e5a575033611e4f612eb8565b6001600160a01b0316145b80611e8057503360009081526005602090815260408083206009845290915290205460ff165b611ef25760405162461bcd60e51b815260206004820152603960248201527f43616c6c6572206973206e6f7420746865206f776e65722c206578656375746f60448201527f72206f7220617574686f72697a656420616374697661746f72000000000000006064820152608401610cec565b6001600160a01b03909116600090815260208190526040902060030155565b3360009081526013602052604081208054839290611f30908490613c2d565b909155505050565b33600090815260056020908152604080832060038452909152812054819060ff16611fa55760405162461bcd60e51b815260206004820152601160248201527f4e6f7420617070726f7665642063616c6c0000000000000000000000000000006044820152606401610cec565b6001600160a01b0384166000908152600160205260409020611fc681612f29565b80549150611fd5868386612f5d565b92506000611fe38785613c96565b6001600160a01b03871660009081526020819052604081206001810180549394509092849290612014908490613c2d565b92505081905550505050935093915050565b3361202f612e20565b6001600160a01b03161480612053575033612048612eb8565b6001600160a01b0316145b61209f5760405162461bcd60e51b815260206004820152601e60248201527f526f6c65733a2063616c6c6572206973206e6f7420746865206f776e657200006044820152606401610cec565b600a5481116120f05760405162461bcd60e51b815260206004820152601160248201527f4d6178203e206d696e2072756e74696d650000000000000000000000000000006044820152606401610cec565b600b55565b336120fe612e20565b6001600160a01b03161480612122575033612117612eb8565b6001600160a01b0316145b8061214857503360009081526005602090815260408083206009845290915290205460ff165b6121ba5760405162461bcd60e51b815260206004820152603960248201527f43616c6c6572206973206e6f7420746865206f776e65722c206578656375746f60448201527f72206f7220617574686f72697a656420616374697661746f72000000000000006064820152608401610cec565b6001600160a01b03918216600090815260146020908152604080832080547fffffffffffffffffffffffffffffffffffffffffffffffffffffffffffffff00166001179055601290915290208054919092167fffffffffffffffffffffffff0000000000000000000000000000000000000000909116179055565b3360009081526005602090815260408083206003845290915290205460ff166122a05760405162461bcd60e51b815260206004820152601560248201527f4e6f7420617070726f76656420626f72726f77657200000000000000000000006044820152606401610cec565b6001600160a01b03821660009081526014602052604090205460ff166123085760405162461bcd60e51b815260206004820152601360248201527f4e6f7420617070726f76656420697373756572000000000000000000000000006044820152606401610cec565b6001600160a01b038216600090815260208190526040812060018101805491928492612335908490613c2d565b9091555050600181015481541015610c375760405162461bcd60e51b815260206004820152601460248201527f496e73756666696369656e74206c656e64696e670000000000000000000000006044820152606401610cec565b601160205281600052604060002081815481106123ab57600080fd5b90600052602060002001600091509150505481565b6001600160a01b03811660009081526001602052604081206111b990612f6a565b6001600160a01b0381166000908152600860209081526040808320338452909152902061240e8282612770565b805461241b8383836127fd565b612426833383612924565b6001600160a01b038316600090815260086020908152604080832033808552925282208281556001810183905560020191909155610c37908483612aae565b3361246e612e20565b6001600160a01b03161480612492575033612487612eb8565b6001600160a01b0316145b806124b857503360009081526005602090815260408083206009845290915290205460ff165b61252a5760405162461bcd60e51b815260206004820152603960248201527f43616c6c6572206973206e6f7420746865206f776e65722c206578656375746f60448201527f72206f7220617574686f72697a656420616374697661746f72000000000000006064820152608401610cec565b6001600160a01b038216600090815260066020526040902080546125d7576000612238606461255e85640100000000613c59565b6125689190613c45565b6125729190613c45565b61258190640100000000613c2d565b604080516060810182526401000000008082524260208301819052919092018390529084556001808501829055600285019290925560038401829055600484019190915560058301819055600683015550610c37565b60006125e38483613428565b905061223860646125f48582613c2d565b61260390640100000000613c59565b61260d9190613c45565b6126179190613c45565b600290910155505050565b6001600160a01b0382166000908152600e6020526040812054600c54829161264991613c45565b905080600a548461265a9190613c96565b6126649190613c45565b949350505050565b60008082600601548561267f9190613c2d565b600784015460058501546001600160a01b03891660009081526020819052604081208754939650939450909291612710906126b984612b8c565b6126c39190613c59565b6126cd9190613c45565b60018088015460038901546001600160a01b038d166000908152602084905260408120875495965092949193909161270491613c2d565b866001015483600201546127189190613c59565b6127229190613c45565b905060006127326002548361356b565b90506000612742610e108e613c45565b61274c9083613c59565b905061275d8b8a8c8a8a8a87613583565b9f9e505050505050505050505050505050565b60018101548015610c37576001600160a01b038316600090815260066020526040812061279e908590613428565b83548154919250906127b290829085612f5d565b8085556000906127c3908390613c96565b6001600160a01b0387166000908152602081905260408120805492935083929091906127f0908490613c2d565b9091555050505050505050565b6000610e108360020154426128129190613c96565b61281c9190613ce6565b90508060075410156128965760405162461bcd60e51b815260206004820152603f60248201527f5472696564207769746864726177696e67206f7574736964652073756273637260448201527f697074696f6e2063616e63656c6c6174696f6e2074696d652077696e646f77006064820152608401610cec565b818360000160008282546128aa9190613c96565b90915550506001600160a01b038416600090815260208190526040812080548492906128d7908490613c96565b90915550506001600160a01b03841660009081526006602081905260409091206004810154918101548554919261291392909190610e10613693565b600683015560049091015550505050565b6001600160a01b038316600090815260136020526040902054801580159061294c5750600082115b156129cb576001600160a01b0384166000908152602081905260408120549081612976818561356b565b6129809086613c59565b61298a9190613c45565b90506129968185613c96565b6001600160a01b0387166000908152601360205260408120805492965083929091906129c3908490613c96565b909155505050505b6001600160a01b0380851660009081526012602052604090205416612a21606560005260046020527ffe4d1297c5434445a55041cf44037c0799556cc55064da684dc6eed1a5dccabf546001600160a01b031690565b6040517fd9caed120000000000000000000000000000000000000000000000000000000081526001600160a01b038381166004830152868116602483015260448201869052919091169063d9caed12906064015b600060405180830381600087803b158015612a8f57600080fd5b505af1158015612aa3573d6000803e3d6000fd5b505050505050505050565b6001600160a01b038216600090815260106020526040902054612b02606c60005260046020527f8b685361ee213407f41a019b5dbc17edecc44c9f276819680a1bcb10c2f13bb8546001600160a01b031690565b6040517fc6c9faa1000000000000000000000000000000000000000000000000000000008152600481018390526001600160a01b03868116602483015260448201859052919091169063c6c9faa190606401600060405180830381600087803b158015612b6e57600080fd5b505af1158015612b82573d6000803e3d6000fd5b5050505050505050565b60006111b9826003015483600201548460010154612baa9190613c2d565b61356b565b600080836001015483612bc29190613c96565b90506104b0811115612be057612bd88482613733565b9150506111b9565b505081546111b9565b606560005260046020527ffe4d1297c5434445a55041cf44037c0799556cc55064da684dc6eed1a5dccabf546001600160a01b03166040517fb3db428b0000000000000000000000000000000000000000000000000000000081526001600160a01b038481166004830152858116602483015260448201849052919091169063b3db428b90606401600060405180830381600087803b158015612c8b57600080fd5b505af1158015612c9f573d6000803e3d6000fd5b50505050505050565b6001600160a01b038084166000908152600860209081526040808320938616835292905220612cd78482612770565b6001600160a01b038416600090815260066020526040902080546001830155612d02610e1042613ce6565b6002830155815483908390600090612d1b908490613c2d565b90915550506001600160a01b03851660009081526020819052604081208054859290612d48908490613c2d565b92505081905550612d658160030154826005015485610e10613693565b600583015560039091015550505050565b6000612db3606c60005260046020527f8b685361ee213407f41a019b5dbc17edecc44c9f276819680a1bcb10c2f13bb8546001600160a01b031690565b6001600160a01b03848116600090815260106020526040908190205490517f2b5de286000000000000000000000000000000000000000000000000000000008152600481018290528783166024820152604481018690529293509190831690632b5de28690606401612a75565b60007f00000000000000000000000000000000000000000000000000000000000000006001600160a01b0316638da5cb5b6040518163ffffffff1660e01b815260040160206040518083038186803b158015612e7b57600080fd5b505afa158015612e8f573d6000803e3d6000fd5b505050506040513d601f19601f82011682018060405250810190612eb39190613970565b905090565b60007f00000000000000000000000000000000000000000000000000000000000000006001600160a01b031663c34c08e56040518163ffffffff1660e01b8152600401602060405180830381600087803b158015612f1557600080fd5b505af1158015612e8f573d6000803e3d6000fd5b6000816001015442612f3b9190613c96565b90506104b0811115610d1657612f518282613733565b82554260018301555050565b60008161265a8486613c59565b600281015460009081610e10612f87640100000000612710613c59565b612f9384612710613c59565b612f9d9190613c96565b612fab906301e13380613c59565b612fb59190613c45565b905061266464010000000082613c45565b600080612fd38686612622565b6001600160a01b0387166000908152600e602052604081208054929350909183908110613029577f4e487b7100000000000000000000000000000000000000000000000000000000600052603260045260246000fd5b9060005260206000209060080201905060006130478887898561266c565b9050600064010000000061305b8884613c59565b6130659190613c45565b90508581106131ef576000600261307c838a613c2d565b6130869190613c45565b6001600160a01b038b166000908152602081905260408120805492935083929091906130b3908490613c2d565b92505081905550808460060160008282546130ce9190613c2d565b9091555050600f80549650869060006130e683613cad565b91905055506040518060e001604052808c6001600160a01b031681526020018b6001600160a01b031681526020018981526020018381526020018a4261312c9190613c2d565b815260208082018c905260409182018690526000898152600d8252829020835181546001600160a01b039182167fffffffffffffffffffffffff00000000000000000000000000000000000000009182161783559285015160018084018054929093169190941617905591830151600280840191909155606084015160038401556080840151600484015560a0840151600584015560c090930151600690920191909155850154908501546131e391908a8c613693565b60028601556001850155505b5050505095945050505050565b600181015460058201546000916001600160a01b0316908290613220908390612622565b6001600160a01b0383166000908152600e602052604081208054929350909183908110613276577f4e487b7100000000000000000000000000000000000000000000000000000000600052603260045260246000fd5b600091825260208220600388015488546002808b01546008909502909301955090936001600160a01b03909116929091906132b2908590613c2d565b6132bc9190613c45565b6001600160a01b0387166000908152602081905260408120805492935091839183916132e9908490613c96565b92505081905550818560060160008282546133049190613c96565b92505081905550613327856003015486600401548b600201548c60050154613693565b60048088019190915560038088019290925560008c8152600d6020526040812080547fffffffffffffffffffffffff0000000000000000000000000000000000000000908116825560018281018054909216909155600282018390559381018290559182018190556005820181905560069091015581549082015411806133b55750836133b3886137f6565b105b1561341757826001600160a01b0316876001600160a01b03167fbcab653cf73e12f7bb78aa625dccb002864f5de7de2518796fb5b82fd6e6ab05866040516133ff91815260200190565b60405180910390a361341287848661392a565b61341b565b8397505b5050505050505092915050565b60018101548190600061343b8242613c96565b6001600160a01b03861660009081526001602052604090209091506104b08211156134fa5761346a8483613733565b84556001600160a01b03861660009081526020819052604081208054909190613494906001613c2d565b826001015484600201546134a89190613c59565b6134b29190613c45565b905060006134c26002548361356b565b90506134eb87600201548785600001546134db87612b8c565b8c600301548d6004015487613583565b60028801555050426001860155505b61350381612f29565b61355c612238606461351b6401000000006006613c59565b6135259190613c45565b61352f9190613c45565b61353e90640100000000613c2d565b606486600201546009546135529190613c59565b612baa9190613c45565b60029091015550909392505050565b60008183111561357c5750806111b9565b50816111b9565b6000806135908842613c96565b90506000600354826135a29190613c59565b90508688106135d157866135b6818a613c96565b6135c09190613c45565b6135ca9082613c59565b90506135f3565b866135dc8982613c96565b6135e69190613c45565b6135f09082613c59565b90505b868810158015613617575061360985605a613c59565b613614876064613c59565b10155b15613637576136268a8261356b565b613630908b613c96565b9950613676565b8787118015613659575061364c86605a613c59565b613657866064613c59565b115b1561367657613668818b613c2d565b9950838a1115613676578399505b6136856401000000008b613935565b9a9950505050505050505050565b600080806136a18642613c96565b905060006136b0826001613c2d565b6136ba8688613c59565b6136c49190613c45565b9050600060036136d687611c20613c2d565b6136e09190613c45565b905060006136ef846001613c2d565b90506136fb8183613c2d565b6137058285613c59565b61370f848d613c59565b6137199190613c2d565b6137239190613c45565b9a429a5098505050505050505050565b600080613742610e1084613ce6565b9050613755640100000000610e10613c59565b81640100000000866002015461376b9190613c96565b86546137779190613c59565b6137819190613c59565b61378b9190613c45565b84546137979190613c2d565b915060006137a7610e1085613c45565b905080156137ee5760005b808211156111b5576401000000008660020154856137d09190613c59565b6137da9190613c45565b9350806137e681613cad565b9150506137b2565b505092915050565b6001600160a01b03808216600081815260126020526040812054909216908114156138fc57806001600160a01b03166370a08231613865606560005260046020527ffe4d1297c5434445a55041cf44037c0799556cc55064da684dc6eed1a5dccabf546001600160a01b031690565b6040517fffffffff0000000000000000000000000000000000000000000000000000000060e084901b1681526001600160a01b03909116600482015260240160206040518083038186803b1580156138bc57600080fd5b505afa1580156138d0573d6000803e3d6000fd5b505050506040513d601f19601f820116820180604052508101906138f49190613bba565b915050610c61565b6001600160a01b03831660009081526013602090815260408083205491839052909120546138f49190613c96565b610c37838383612ca8565b6000818311156139465750816111b9565b50806111b9565b60006020828403121561395e578081fd5b813561396981613d87565b9392505050565b600060208284031215613981578081fd5b815161396981613d87565b6000806040838503121561399e578081fd5b82356139a981613d87565b915060208301356139b981613d87565b809150509250929050565b600080604083850312156139d6578182fd5b82356139e181613d87565b915060208381013567ffffffffffffffff808211156139fe578384fd5b818601915086601f830112613a11578384fd5b813581811115613a2357613a23613d58565b8060051b6040517fffffffffffffffffffffffffffffffffffffffffffffffffffffffffffffffe0603f83011681018181108582111715613a6657613a66613d58565b604052828152858101935084860182860187018b1015613a84578788fd5b8795505b83861015613aa6578035855260019590950194938601938601613a88565b508096505050505050509250929050565b60008060408385031215613ac9578182fd5b8235613ad481613d87565b946020939093013593505050565b600080600060608486031215613af6578081fd5b8335613b0181613d87565b95602085013595506040909401359392505050565b60008060008060808587031215613b2b578081fd5b8435613b3681613d87565b966020860135965060408601359560600135945092505050565b60008060408385031215613b62578182fd5b8235613b6d81613d87565b9150602083013560ff811681146139b9578182fd5b600060208284031215613b93578081fd5b81518015158114613969578182fd5b600060208284031215613bb3578081fd5b5035919050565b600060208284031215613bcb578081fd5b5051919050565b60008060408385031215613be4578182fd5b8235915060208301356139b981613d87565b600080600060608486031215613c0a578283fd5b833592506020840135613c1c81613d87565b929592945050506040919091013590565b60008219821115613c4057613c40613cfa565b500190565b600082613c5457613c54613d29565b500490565b6000817fffffffffffffffffffffffffffffffffffffffffffffffffffffffffffffffff0483118215151615613c9157613c91613cfa565b500290565b600082821015613ca857613ca8613cfa565b500390565b60007fffffffffffffffffffffffffffffffffffffffffffffffffffffffffffffffff821415613cdf57613cdf613cfa565b5060010190565b600082613cf557613cf5613d29565b500690565b7f4e487b7100000000000000000000000000000000000000000000000000000000600052601160045260246000fd5b7f4e487b7100000000000000000000000000000000000000000000000000000000600052601260045260246000fd5b7f4e487b7100000000000000000000000000000000000000000000000000000000600052604160045260246000fd5b6001600160a01b038116811461114257600080fdfea26469706673582212206db34761447fbd41da6eefc13a67214e82f44eaf79ce8265a088eeebcbb407a964736f6c63430008030033",
  "devdoc": {
    "kind": "dev",
    "methods": {
      "applyBorrowInterest(uint256,address,uint256)": {
        "details": "how much interest has accrued to a borrowed balance over time"
      },
      "buyBond(address,uint256,uint256,uint256)": {
        "details": "buy fixed term bond that does not renew"
      },
      "buyHourlyBondSubscription(address,uint256)": {
        "details": "buy hourly bond subscription"
      },
      "payOff(address,uint256)": {
        "details": "gets called by router if loan is extinguished"
      },
      "registerBorrow(address,uint256)": {
        "details": "gets called by router to register if a trader borrows issuers"
      },
      "viewAccumulatedBorrowingYieldFP(address)": {
        "details": "get the borrow yield for a specific issuer/token"
      },
      "viewBorrowAPRPer10k(address)": {
        "details": "get current borrowing interest per 10k for a token / issuer"
      },
      "viewHourlyBondAPRPer10k(address)": {
        "details": "get current lending APR per 10k for a token / issuer"
      },
      "viewWithBorrowInterest(uint256,address,uint256)": {
        "details": "view function to get balance with borrowing interest applied"
      },
      "withdrawBond(uint256)": {
        "details": "send back funds of bond after maturity"
      },
      "withdrawHourlyBond(address,uint256)": {
        "details": "withdraw an hour bond"
      }
    },
    "stateVariables": {
      "bondIds": {
        "details": "IDs for all bonds held by an address"
      }
    },
    "title": "Manage lending for a variety of bond issuers",
    "version": 1
  },
  "userdoc": {
    "kind": "user",
    "methods": {
      "activateIssuer(address)": {
        "notice": "Make a issuer available for protocol"
      },
      "activateIssuer(address,address)": {
        "notice": "Make issuer != token available for protocol (isol. margin)"
      },
      "activeIssuers(address)": {
        "notice": "map of available issuers"
      },
      "closeHourlyBondAccount(address)": {
        "notice": "Shut down hourly bond account for `issuer`"
      },
      "deactivateIssuer(address)": {
        "notice": "Remove a issuer from trading availability"
      },
      "haircuts(address)": {
        "notice": "In case of shortfall, adjust debt"
      },
      "issuerTokens(address)": {
        "notice": "mapping issuers to tokens (in crossmargin, the issuers are tokens  themselves)"
      },
      "setHourlyYieldAPR(address,uint256)": {
        "notice": "Set hourly yield APR for issuer"
      },
      "setIncentiveTranche(address,uint8)": {
        "notice": "Set incentive tranche"
      },
      "setLendingBuffer(address,uint256)": {
        "notice": "Set lending buffer"
      },
      "setLendingCap(address,uint256)": {
        "notice": "Set lending cap"
      },
      "setMaxHourlyYieldFP(uint256)": {
        "notice": "Set maximum hourly yield in floating point"
      },
      "setMaxRuntime(uint256)": {
        "notice": "Set maximum runtime"
      },
      "setMinRuntime(uint256)": {
        "notice": "Set miniumum runtime"
      },
      "setRuntimeWeights(address,uint256[])": {
        "notice": "Set runtime weights in floating point"
      },
      "setRuntimeYieldsFP(address,uint256[])": {
        "notice": "Set runtime yields in floating point"
      },
      "setWithdrawalWindow(uint256)": {
        "notice": "Set withdrawal window"
      },
      "setYieldChangePerSecondFP(uint256)": {
        "notice": "Set yield change per second in floating point"
      },
      "viewBondReturn(address,uint256,uint256)": {
        "notice": "Get view of returns on bond"
      },
      "viewLendingTarget(address)": {
        "notice": "View lending target"
      }
    },
    "version": 1
  },
  "storageLayout": {
    "storage": [
      {
        "astId": 1636,
        "contract": "contracts/Lending.sol:Lending",
        "label": "lendingMeta",
        "offset": 0,
        "slot": "0",
        "type": "t_mapping(t_address,t_struct(LendingMetadata)1631_storage)"
      },
      {
        "astId": 1642,
        "contract": "contracts/Lending.sol:Lending",
        "label": "borrowYieldAccumulators",
        "offset": 0,
        "slot": "1",
        "type": "t_mapping(t_address,t_struct(YieldAccumulator)1622_storage)"
      },
      {
        "astId": 1644,
        "contract": "contracts/Lending.sol:Lending",
        "label": "maxHourlyYieldFP",
        "offset": 0,
        "slot": "2",
        "type": "t_uint256"
      },
      {
        "astId": 1646,
        "contract": "contracts/Lending.sol:Lending",
        "label": "yieldChangePerSecondFP",
        "offset": 0,
        "slot": "3",
        "type": "t_uint256"
      },
      {
        "astId": 11400,
        "contract": "contracts/Lending.sol:Lending",
        "label": "mainCharacterCache",
        "offset": 0,
        "slot": "4",
        "type": "t_mapping(t_uint256,t_address)"
      },
      {
        "astId": 11406,
        "contract": "contracts/Lending.sol:Lending",
        "label": "roleCache",
        "offset": 0,
        "slot": "5",
        "type": "t_mapping(t_address,t_mapping(t_uint256,t_bool))"
      },
      {
        "astId": 6106,
        "contract": "contracts/Lending.sol:Lending",
        "label": "hourlyBondMetadata",
        "offset": 0,
        "slot": "6",
        "type": "t_mapping(t_address,t_struct(HourlyBondMetadata)6101_storage)"
      },
      {
        "astId": 6112,
        "contract": "contracts/Lending.sol:Lending",
        "label": "withdrawalWindow",
        "offset": 0,
        "slot": "7",
        "type": "t_uint256"
      },
      {
        "astId": 6119,
        "contract": "contracts/Lending.sol:Lending",
        "label": "hourlyBondAccounts",
        "offset": 0,
        "slot": "8",
        "type": "t_mapping(t_address,t_mapping(t_address,t_struct(HourlyBond)6086_storage))"
      },
      {
        "astId": 6122,
        "contract": "contracts/Lending.sol:Lending",
        "label": "borrowingFactorPercent",
        "offset": 0,
        "slot": "9",
        "type": "t_uint256"
      },
      {
        "astId": 2104,
        "contract": "contracts/Lending.sol:Lending",
        "label": "minRuntime",
        "offset": 0,
        "slot": "10",
        "type": "t_uint256"
      },
      {
        "astId": 2107,
        "contract": "contracts/Lending.sol:Lending",
        "label": "maxRuntime",
        "offset": 0,
        "slot": "11",
        "type": "t_uint256"
      },
      {
        "astId": 2112,
        "contract": "contracts/Lending.sol:Lending",
        "label": "diffMaxMinRuntime",
        "offset": 0,
        "slot": "12",
        "type": "t_uint256"
      },
      {
        "astId": 2138,
        "contract": "contracts/Lending.sol:Lending",
        "label": "bonds",
        "offset": 0,
        "slot": "13",
        "type": "t_mapping(t_uint256,t_struct(Bond)2098_storage)"
      },
      {
        "astId": 2144,
        "contract": "contracts/Lending.sol:Lending",
        "label": "bondBucketMetadata",
        "offset": 0,
        "slot": "14",
        "type": "t_mapping(t_address,t_array(t_struct(BondBucketMetadata)2133_storage)dyn_storage)"
      },
      {
        "astId": 2147,
        "contract": "contracts/Lending.sol:Lending",
        "label": "nextBondIndex",
        "offset": 0,
        "slot": "15",
        "type": "t_uint256"
      },
      {
        "astId": 6875,
        "contract": "contracts/Lending.sol:Lending",
        "label": "incentiveTranches",
        "offset": 0,
        "slot": "16",
        "type": "t_mapping(t_address,t_uint256)"
      },
      {
        "astId": 8093,
        "contract": "contracts/Lending.sol:Lending",
        "label": "bondIds",
        "offset": 0,
        "slot": "17",
        "type": "t_mapping(t_address,t_array(t_uint256)dyn_storage)"
      },
      {
        "astId": 8098,
        "contract": "contracts/Lending.sol:Lending",
        "label": "issuerTokens",
        "offset": 0,
        "slot": "18",
        "type": "t_mapping(t_address,t_address)"
      },
      {
        "astId": 8103,
        "contract": "contracts/Lending.sol:Lending",
        "label": "haircuts",
        "offset": 0,
        "slot": "19",
        "type": "t_mapping(t_address,t_uint256)"
      },
      {
        "astId": 8108,
        "contract": "contracts/Lending.sol:Lending",
        "label": "activeIssuers",
        "offset": 0,
        "slot": "20",
        "type": "t_mapping(t_address,t_bool)"
      }
    ],
    "types": {
      "t_address": {
        "encoding": "inplace",
        "label": "address",
        "numberOfBytes": "20"
      },
      "t_array(t_struct(BondBucketMetadata)2133_storage)dyn_storage": {
        "base": "t_struct(BondBucketMetadata)2133_storage",
        "encoding": "dynamic_array",
        "label": "struct BondLending.BondBucketMetadata[]",
        "numberOfBytes": "32"
      },
      "t_array(t_uint256)dyn_storage": {
        "base": "t_uint256",
        "encoding": "dynamic_array",
        "label": "uint256[]",
        "numberOfBytes": "32"
      },
      "t_bool": {
        "encoding": "inplace",
        "label": "bool",
        "numberOfBytes": "1"
      },
      "t_mapping(t_address,t_address)": {
        "encoding": "mapping",
        "key": "t_address",
        "label": "mapping(address => address)",
        "numberOfBytes": "32",
        "value": "t_address"
      },
      "t_mapping(t_address,t_array(t_struct(BondBucketMetadata)2133_storage)dyn_storage)": {
        "encoding": "mapping",
        "key": "t_address",
        "label": "mapping(address => struct BondLending.BondBucketMetadata[])",
        "numberOfBytes": "32",
        "value": "t_array(t_struct(BondBucketMetadata)2133_storage)dyn_storage"
      },
      "t_mapping(t_address,t_array(t_uint256)dyn_storage)": {
        "encoding": "mapping",
        "key": "t_address",
        "label": "mapping(address => uint256[])",
        "numberOfBytes": "32",
        "value": "t_array(t_uint256)dyn_storage"
      },
      "t_mapping(t_address,t_bool)": {
        "encoding": "mapping",
        "key": "t_address",
        "label": "mapping(address => bool)",
        "numberOfBytes": "32",
        "value": "t_bool"
      },
      "t_mapping(t_address,t_mapping(t_address,t_struct(HourlyBond)6086_storage))": {
        "encoding": "mapping",
        "key": "t_address",
        "label": "mapping(address => mapping(address => struct HourlyBond))",
        "numberOfBytes": "32",
        "value": "t_mapping(t_address,t_struct(HourlyBond)6086_storage)"
      },
      "t_mapping(t_address,t_mapping(t_uint256,t_bool))": {
        "encoding": "mapping",
        "key": "t_address",
        "label": "mapping(address => mapping(uint256 => bool))",
        "numberOfBytes": "32",
        "value": "t_mapping(t_uint256,t_bool)"
      },
      "t_mapping(t_address,t_struct(HourlyBond)6086_storage)": {
        "encoding": "mapping",
        "key": "t_address",
        "label": "mapping(address => struct HourlyBond)",
        "numberOfBytes": "32",
        "value": "t_struct(HourlyBond)6086_storage"
      },
      "t_mapping(t_address,t_struct(HourlyBondMetadata)6101_storage)": {
        "encoding": "mapping",
        "key": "t_address",
        "label": "mapping(address => struct HourlyBondSubscriptionLending.HourlyBondMetadata)",
        "numberOfBytes": "32",
        "value": "t_struct(HourlyBondMetadata)6101_storage"
      },
      "t_mapping(t_address,t_struct(LendingMetadata)1631_storage)": {
        "encoding": "mapping",
        "key": "t_address",
        "label": "mapping(address => struct BaseLending.LendingMetadata)",
        "numberOfBytes": "32",
        "value": "t_struct(LendingMetadata)1631_storage"
      },
      "t_mapping(t_address,t_struct(YieldAccumulator)1622_storage)": {
        "encoding": "mapping",
        "key": "t_address",
        "label": "mapping(address => struct BaseLending.YieldAccumulator)",
        "numberOfBytes": "32",
        "value": "t_struct(YieldAccumulator)1622_storage"
      },
      "t_mapping(t_address,t_uint256)": {
        "encoding": "mapping",
        "key": "t_address",
        "label": "mapping(address => uint256)",
        "numberOfBytes": "32",
        "value": "t_uint256"
      },
      "t_mapping(t_uint256,t_address)": {
        "encoding": "mapping",
        "key": "t_uint256",
        "label": "mapping(uint256 => address)",
        "numberOfBytes": "32",
        "value": "t_address"
      },
      "t_mapping(t_uint256,t_bool)": {
        "encoding": "mapping",
        "key": "t_uint256",
        "label": "mapping(uint256 => bool)",
        "numberOfBytes": "32",
        "value": "t_bool"
      },
      "t_mapping(t_uint256,t_struct(Bond)2098_storage)": {
        "encoding": "mapping",
        "key": "t_uint256",
        "label": "mapping(uint256 => struct Bond)",
        "numberOfBytes": "32",
        "value": "t_struct(Bond)2098_storage"
      },
      "t_struct(Bond)2098_storage": {
        "encoding": "inplace",
        "label": "struct Bond",
        "members": [
          {
            "astId": 2085,
            "contract": "contracts/Lending.sol:Lending",
            "label": "holder",
            "offset": 0,
            "slot": "0",
            "type": "t_address"
          },
          {
            "astId": 2087,
            "contract": "contracts/Lending.sol:Lending",
            "label": "issuer",
            "offset": 0,
            "slot": "1",
            "type": "t_address"
          },
          {
            "astId": 2089,
            "contract": "contracts/Lending.sol:Lending",
            "label": "originalPrice",
            "offset": 0,
            "slot": "2",
            "type": "t_uint256"
          },
          {
            "astId": 2091,
            "contract": "contracts/Lending.sol:Lending",
            "label": "returnAmount",
            "offset": 0,
            "slot": "3",
            "type": "t_uint256"
          },
          {
            "astId": 2093,
            "contract": "contracts/Lending.sol:Lending",
            "label": "maturityTimestamp",
            "offset": 0,
            "slot": "4",
            "type": "t_uint256"
          },
          {
            "astId": 2095,
            "contract": "contracts/Lending.sol:Lending",
            "label": "runtime",
            "offset": 0,
            "slot": "5",
            "type": "t_uint256"
          },
          {
            "astId": 2097,
            "contract": "contracts/Lending.sol:Lending",
            "label": "yieldFP",
            "offset": 0,
            "slot": "6",
            "type": "t_uint256"
          }
        ],
        "numberOfBytes": "224"
      },
      "t_struct(BondBucketMetadata)2133_storage": {
        "encoding": "inplace",
        "label": "struct BondLending.BondBucketMetadata",
        "members": [
          {
            "astId": 2118,
            "contract": "contracts/Lending.sol:Lending",
            "label": "runtimeWeight",
            "offset": 0,
            "slot": "0",
            "type": "t_uint256"
          },
          {
            "astId": 2120,
            "contract": "contracts/Lending.sol:Lending",
            "label": "buyingSpeed",
            "offset": 0,
            "slot": "1",
            "type": "t_uint256"
          },
          {
            "astId": 2122,
            "contract": "contracts/Lending.sol:Lending",
            "label": "lastBought",
            "offset": 0,
            "slot": "2",
            "type": "t_uint256"
          },
          {
            "astId": 2124,
            "contract": "contracts/Lending.sol:Lending",
            "label": "withdrawingSpeed",
            "offset": 0,
            "slot": "3",
            "type": "t_uint256"
          },
          {
            "astId": 2126,
            "contract": "contracts/Lending.sol:Lending",
            "label": "lastWithdrawn",
            "offset": 0,
            "slot": "4",
            "type": "t_uint256"
          },
          {
            "astId": 2128,
            "contract": "contracts/Lending.sol:Lending",
            "label": "yieldLastUpdated",
            "offset": 0,
            "slot": "5",
            "type": "t_uint256"
          },
          {
            "astId": 2130,
            "contract": "contracts/Lending.sol:Lending",
            "label": "totalLending",
            "offset": 0,
            "slot": "6",
            "type": "t_uint256"
          },
          {
            "astId": 2132,
            "contract": "contracts/Lending.sol:Lending",
            "label": "runtimeYieldFP",
            "offset": 0,
            "slot": "7",
            "type": "t_uint256"
          }
        ],
        "numberOfBytes": "256"
      },
      "t_struct(HourlyBond)6086_storage": {
        "encoding": "inplace",
        "label": "struct HourlyBond",
        "members": [
          {
            "astId": 6081,
            "contract": "contracts/Lending.sol:Lending",
            "label": "amount",
            "offset": 0,
            "slot": "0",
            "type": "t_uint256"
          },
          {
            "astId": 6083,
            "contract": "contracts/Lending.sol:Lending",
            "label": "yieldQuotientFP",
            "offset": 0,
            "slot": "1",
            "type": "t_uint256"
          },
          {
            "astId": 6085,
            "contract": "contracts/Lending.sol:Lending",
            "label": "moduloHour",
            "offset": 0,
            "slot": "2",
            "type": "t_uint256"
          }
        ],
        "numberOfBytes": "96"
      },
      "t_struct(HourlyBondMetadata)6101_storage": {
        "encoding": "inplace",
        "label": "struct HourlyBondSubscriptionLending.HourlyBondMetadata",
        "members": [
          {
            "astId": 6092,
            "contract": "contracts/Lending.sol:Lending",
            "label": "yieldAccumulator",
            "offset": 0,
            "slot": "0",
            "type": "t_struct(YieldAccumulator)1622_storage"
          },
          {
            "astId": 6094,
            "contract": "contracts/Lending.sol:Lending",
            "label": "buyingSpeed",
            "offset": 0,
            "slot": "3",
            "type": "t_uint256"
          },
          {
            "astId": 6096,
            "contract": "contracts/Lending.sol:Lending",
            "label": "withdrawingSpeed",
            "offset": 0,
            "slot": "4",
            "type": "t_uint256"
          },
          {
            "astId": 6098,
            "contract": "contracts/Lending.sol:Lending",
            "label": "lastBought",
            "offset": 0,
            "slot": "5",
            "type": "t_uint256"
          },
          {
            "astId": 6100,
            "contract": "contracts/Lending.sol:Lending",
            "label": "lastWithdrawn",
            "offset": 0,
            "slot": "6",
            "type": "t_uint256"
          }
        ],
        "numberOfBytes": "224"
      },
      "t_struct(LendingMetadata)1631_storage": {
        "encoding": "inplace",
        "label": "struct BaseLending.LendingMetadata",
        "members": [
          {
            "astId": 1624,
            "contract": "contracts/Lending.sol:Lending",
            "label": "totalLending",
            "offset": 0,
            "slot": "0",
            "type": "t_uint256"
          },
          {
            "astId": 1626,
            "contract": "contracts/Lending.sol:Lending",
            "label": "totalBorrowed",
            "offset": 0,
            "slot": "1",
            "type": "t_uint256"
          },
          {
            "astId": 1628,
            "contract": "contracts/Lending.sol:Lending",
            "label": "lendingBuffer",
            "offset": 0,
            "slot": "2",
            "type": "t_uint256"
          },
          {
            "astId": 1630,
            "contract": "contracts/Lending.sol:Lending",
            "label": "lendingCap",
            "offset": 0,
            "slot": "3",
            "type": "t_uint256"
          }
        ],
        "numberOfBytes": "128"
      },
      "t_struct(YieldAccumulator)1622_storage": {
        "encoding": "inplace",
        "label": "struct BaseLending.YieldAccumulator",
        "members": [
          {
            "astId": 1617,
            "contract": "contracts/Lending.sol:Lending",
            "label": "accumulatorFP",
            "offset": 0,
            "slot": "0",
            "type": "t_uint256"
          },
          {
            "astId": 1619,
            "contract": "contracts/Lending.sol:Lending",
            "label": "lastUpdated",
            "offset": 0,
            "slot": "1",
            "type": "t_uint256"
          },
          {
            "astId": 1621,
            "contract": "contracts/Lending.sol:Lending",
            "label": "hourlyYieldFP",
            "offset": 0,
            "slot": "2",
            "type": "t_uint256"
          }
        ],
        "numberOfBytes": "96"
      },
      "t_uint256": {
        "encoding": "inplace",
        "label": "uint256",
        "numberOfBytes": "32"
      }
    }
  }
}