{
  "address": "0x4c324369117C6462afBD8Fe8D7239B911e7ACba2",
  "abi": [
    {
      "inputs": [
        {
          "internalType": "address",
          "name": "_roles",
          "type": "address"
        },
        {
          "internalType": "address",
          "name": "_stakeToken",
          "type": "address"
        },
        {
          "internalType": "uint256",
          "name": "startTimestamp",
          "type": "uint256"
        }
      ],
      "stateMutability": "nonpayable",
      "type": "constructor"
    },
    {
      "inputs": [
        {
          "internalType": "uint256",
          "name": "amount",
          "type": "uint256"
        }
      ],
      "name": "depositStake",
      "outputs": [],
      "stateMutability": "nonpayable",
      "type": "function"
    },
    {
      "inputs": [],
      "name": "incentiveStart",
      "outputs": [
        {
          "internalType": "uint256",
          "name": "",
          "type": "uint256"
        }
      ],
      "stateMutability": "view",
      "type": "function"
    },
    {
      "inputs": [
        {
          "internalType": "uint256",
          "name": "",
          "type": "uint256"
        }
      ],
      "name": "mainCharacterCache",
      "outputs": [
        {
          "internalType": "address",
          "name": "",
          "type": "address"
        }
      ],
      "stateMutability": "view",
      "type": "function"
    },
    {
      "inputs": [
        {
          "internalType": "address",
          "name": "",
          "type": "address"
        },
        {
          "internalType": "uint256",
          "name": "",
          "type": "uint256"
        }
      ],
      "name": "roleCache",
      "outputs": [
        {
          "internalType": "bool",
          "name": "",
          "type": "bool"
        }
      ],
      "stateMutability": "view",
      "type": "function"
    },
    {
      "inputs": [],
      "name": "roles",
      "outputs": [
        {
          "internalType": "contract Roles",
          "name": "",
          "type": "address"
        }
      ],
      "stateMutability": "view",
      "type": "function"
    },
    {
      "inputs": [
        {
          "internalType": "address",
          "name": "",
          "type": "address"
        }
      ],
      "name": "stakeAmounts",
      "outputs": [
        {
          "internalType": "uint256",
          "name": "",
          "type": "uint256"
        }
      ],
      "stateMutability": "view",
      "type": "function"
    },
    {
      "inputs": [],
      "name": "stakeToken",
      "outputs": [
        {
          "internalType": "contract IERC20",
          "name": "",
          "type": "address"
        }
      ],
      "stateMutability": "view",
      "type": "function"
    },
    {
      "inputs": [
        {
          "internalType": "uint256",
          "name": "role",
          "type": "uint256"
        }
      ],
      "name": "updateMainCharacterCache",
      "outputs": [],
      "stateMutability": "nonpayable",
      "type": "function"
    },
    {
      "inputs": [
        {
          "internalType": "uint256",
          "name": "role",
          "type": "uint256"
        },
        {
          "internalType": "address",
          "name": "contr",
          "type": "address"
        }
      ],
      "name": "updateRoleCache",
      "outputs": [],
      "stateMutability": "nonpayable",
      "type": "function"
    },
    {
      "inputs": [
        {
          "internalType": "uint256",
          "name": "amount",
          "type": "uint256"
        }
      ],
      "name": "withdrawStake",
      "outputs": [],
      "stateMutability": "nonpayable",
      "type": "function"
    }
  ],
  "transactionHash": "0x8d6336e8e5d1e925fca14c128f1e24cb84d83e6f6d13b4dbdbb097071c6d6fc8",
  "args": [
    "0x45d7c20f76b427114f78F5edEeaD00Fa0fD91571",
    "0x9D640080AF7c81911D87632a7d09Cc4Ab6b133AC",
    1619156945
  ],
  "solcInputHash": "eeada3db2e97cb75e7bb6f3b2e022d14",
  "bytecode": "0x60e060405234801561001057600080fd5b50604051610fc0380380610fc083398101604081905261002f916100d6565b826001600160a01b0381166100955760405162461bcd60e51b815260206004820152602260248201527f506c656173652070726f766964652076616c696420726f6c6573206164647265604482015261737360f01b606482015260840160405180910390fd5b6001600160601b0319606091821b811660805292901b90911660a05260c05250610111565b80516001600160a01b03811681146100d157600080fd5b919050565b6000806000606084860312156100ea578283fd5b6100f3846100ba565b9250610101602085016100ba565b9150604084015190509250925092565b60805160601c60a05160601c60c051610e58610168600039600081816101b90152610645015260008181610154015281816104ed01526106e601526000818160f00152818161028101526105660152610e586000f3fe608060405234801561001057600080fd5b50600436106100be5760003560e01c80637a1a04df11610076578063cb82cc8f1161005b578063cb82cc8f146101e9578063e5afa566146101fc578063e9c3f77d1461021c576100be565b80637a1a04df14610176578063c1a3b9fa146101b4576100be565b8063392f5f64116100a7578063392f5f64146100eb578063447d52ba1461013c57806351ed6a301461014f576100be565b8063071060a6146100c357806325d5971f146100d8575b600080fd5b6100d66100d1366004610cbf565b610252565b005b6100d66100e6366004610cbf565b610363565b6101127f000000000000000000000000000000000000000000000000000000000000000081565b60405173ffffffffffffffffffffffffffffffffffffffff90911681526020015b60405180910390f35b6100d661014a366004610cd7565b61051a565b6101127f000000000000000000000000000000000000000000000000000000000000000081565b6101a4610184366004610c74565b600160209081526000928352604080842090915290825290205460ff1681565b6040519015158152602001610133565b6101db7f000000000000000000000000000000000000000000000000000000000000000081565b604051908152602001610133565b6100d66101f7366004610cbf565b610643565b6101db61020a366004610c3c565b60026020526000908152604090205481565b61011261022a366004610cbf565b60006020819052908152604090205473ffffffffffffffffffffffffffffffffffffffff1681565b6040517fb4ed0b6d000000000000000000000000000000000000000000000000000000008152600481018290527f000000000000000000000000000000000000000000000000000000000000000073ffffffffffffffffffffffffffffffffffffffff169063b4ed0b6d9060240160206040518083038186803b1580156102d857600080fd5b505afa1580156102ec573d6000803e3d6000fd5b505050506040513d601f19601f820116820180604052508101906103109190610c58565b60009182526020829052604090912080547fffffffffffffffffffffffff00000000000000000000000000000000000000001673ffffffffffffffffffffffffffffffffffffffff909216919091179055565b33600090815260026020526040902054818110156103e2576040517f08c379a000000000000000000000000000000000000000000000000000000000815260206004820152601c60248201527f4e6f7420656e6f756768207374616b6520746f2077697468647261770000000060448201526064015b60405180910390fd5b6103ec8282610d8b565b33600090815260026020526040902055610444606c60009081526020527f3c1fcba39712202dbd455253568bf32dd0a3bedb5c3ff0de4b22d4e45e50dc925473ffffffffffffffffffffffffffffffffffffffff1690565b6040517fc6c9faa1000000000000000000000000000000000000000000000000000000008152600060048201523360248201526044810184905273ffffffffffffffffffffffffffffffffffffffff919091169063c6c9faa190606401600060405180830381600087803b1580156104bb57600080fd5b505af11580156104cf573d6000803e3d6000fd5b5061051692505073ffffffffffffffffffffffffffffffffffffffff7f00000000000000000000000000000000000000000000000000000000000000001690503384610807565b5050565b6040517f93552a3d0000000000000000000000000000000000000000000000000000000081526004810183905273ffffffffffffffffffffffffffffffffffffffff82811660248301527f000000000000000000000000000000000000000000000000000000000000000016906393552a3d9060440160206040518083038186803b1580156105a857600080fd5b505afa1580156105bc573d6000803e3d6000fd5b505050506040513d601f19601f820116820180604052508101906105e09190610c9f565b73ffffffffffffffffffffffffffffffffffffffff9190911660009081526001602090815260408083209483529390529190912080547fffffffffffffffffffffffffffffffffffffffffffffffffffffffffffffff0016911515919091179055565b7f000000000000000000000000000000000000000000000000000000000000000042116106cc576040517f08c379a000000000000000000000000000000000000000000000000000000000815260206004820152601c60248201527f496e63656e74697665206861736e27742073746172746564207965740000000060448201526064016103d9565b61070e73ffffffffffffffffffffffffffffffffffffffff7f0000000000000000000000000000000000000000000000000000000000000000163330846108e0565b606c60009081526020527f3c1fcba39712202dbd455253568bf32dd0a3bedb5c3ff0de4b22d4e45e50dc925473ffffffffffffffffffffffffffffffffffffffff166040517f2b5de286000000000000000000000000000000000000000000000000000000008152600060048201523360248201526044810183905273ffffffffffffffffffffffffffffffffffffffff9190911690632b5de28690606401600060405180830381600087803b1580156107c757600080fd5b505af11580156107db573d6000803e3d6000fd5b505033600090815260026020526040812080548594509092506107ff908490610d73565b909155505050565b60405173ffffffffffffffffffffffffffffffffffffffff83166024820152604481018290526108db9084907fa9059cbb00000000000000000000000000000000000000000000000000000000906064015b604080517fffffffffffffffffffffffffffffffffffffffffffffffffffffffffffffffe08184030181529190526020810180517bffffffffffffffffffffffffffffffffffffffffffffffffffffffff167fffffffff0000000000000000000000000000000000000000000000000000000090931692909217909152610944565b505050565b60405173ffffffffffffffffffffffffffffffffffffffff8085166024830152831660448201526064810182905261093e9085907f23b872dd0000000000000000000000000000000000000000000000000000000090608401610859565b50505050565b60006109a6826040518060400160405280602081526020017f5361666545524332303a206c6f772d6c6576656c2063616c6c206661696c65648152508573ffffffffffffffffffffffffffffffffffffffff16610a509092919063ffffffff16565b8051909150156108db57808060200190518101906109c49190610c9f565b6108db576040517f08c379a000000000000000000000000000000000000000000000000000000000815260206004820152602a60248201527f5361666545524332303a204552433230206f7065726174696f6e20646964206e60448201527f6f7420737563636565640000000000000000000000000000000000000000000060648201526084016103d9565b6060610a5f8484600085610a69565b90505b9392505050565b606082471015610afb576040517f08c379a000000000000000000000000000000000000000000000000000000000815260206004820152602660248201527f416464726573733a20696e73756666696369656e742062616c616e636520666f60448201527f722063616c6c000000000000000000000000000000000000000000000000000060648201526084016103d9565b843b610b63576040517f08c379a000000000000000000000000000000000000000000000000000000000815260206004820152601d60248201527f416464726573733a2063616c6c20746f206e6f6e2d636f6e747261637400000060448201526064016103d9565b6000808673ffffffffffffffffffffffffffffffffffffffff168587604051610b8c9190610d06565b60006040518083038185875af1925050503d8060008114610bc9576040519150601f19603f3d011682016040523d82523d6000602084013e610bce565b606091505b5091509150610bde828286610be9565b979650505050505050565b60608315610bf8575081610a62565b825115610c085782518084602001fd5b816040517f08c379a00000000000000000000000000000000000000000000000000000000081526004016103d99190610d22565b600060208284031215610c4d578081fd5b8135610a6281610dfd565b600060208284031215610c69578081fd5b8151610a6281610dfd565b60008060408385031215610c86578081fd5b8235610c9181610dfd565b946020939093013593505050565b600060208284031215610cb0578081fd5b81518015158114610a62578182fd5b600060208284031215610cd0578081fd5b5035919050565b60008060408385031215610ce9578182fd5b823591506020830135610cfb81610dfd565b809150509250929050565b60008251610d18818460208701610da2565b9190910192915050565b6000602082528251806020840152610d41816040850160208701610da2565b601f017fffffffffffffffffffffffffffffffffffffffffffffffffffffffffffffffe0169190910160400192915050565b60008219821115610d8657610d86610dce565b500190565b600082821015610d9d57610d9d610dce565b500390565b60005b83811015610dbd578181015183820152602001610da5565b8381111561093e5750506000910152565b7f4e487b7100000000000000000000000000000000000000000000000000000000600052601160045260246000fd5b73ffffffffffffffffffffffffffffffffffffffff81168114610e1f57600080fd5b5056fea26469706673582212201a0f9d7f7d70b1e7d03f98239a8833368d6de81812b85bf2ab8f2e284c9154ba64736f6c63430008030033",
  "devdoc": {
    "kind": "dev",
    "methods": {},
    "title": "Manaage rewards for liquidity mining",
    "version": 1
  },
  "userdoc": {
    "kind": "user",
    "methods": {
      "depositStake(uint256)": {
        "notice": "Deposit stake tokens"
      },
      "withdrawStake(uint256)": {
        "notice": "Withdraw stake tokens"
      }
    },
    "version": 1
  },
  "storageLayout": {
    "storage": [
      {
        "astId": 10244,
        "contract": "contracts/LiquidityMiningReward.sol:LiquidityMiningReward",
        "label": "mainCharacterCache",
        "offset": 0,
        "slot": "0",
        "type": "t_mapping(t_uint256,t_address)"
      },
      {
        "astId": 10250,
        "contract": "contracts/LiquidityMiningReward.sol:LiquidityMiningReward",
        "label": "roleCache",
        "offset": 0,
        "slot": "1",
        "type": "t_mapping(t_address,t_mapping(t_uint256,t_bool))"
      },
      {
        "astId": 8228,
        "contract": "contracts/LiquidityMiningReward.sol:LiquidityMiningReward",
        "label": "stakeAmounts",
        "offset": 0,
        "slot": "2",
        "type": "t_mapping(t_address,t_uint256)"
      }
    ],
    "types": {
      "t_address": {
        "encoding": "inplace",
        "label": "address",
        "numberOfBytes": "20"
      },
      "t_bool": {
        "encoding": "inplace",
        "label": "bool",
        "numberOfBytes": "1"
      },
      "t_mapping(t_address,t_mapping(t_uint256,t_bool))": {
        "encoding": "mapping",
        "key": "t_address",
        "label": "mapping(address => mapping(uint256 => bool))",
        "numberOfBytes": "32",
        "value": "t_mapping(t_uint256,t_bool)"
      },
      "t_mapping(t_address,t_uint256)": {
        "encoding": "mapping",
        "key": "t_address",
        "label": "mapping(address => uint256)",
        "numberOfBytes": "32",
        "value": "t_uint256"
      },
      "t_mapping(t_uint256,t_address)": {
        "encoding": "mapping",
        "key": "t_uint256",
        "label": "mapping(uint256 => address)",
        "numberOfBytes": "32",
        "value": "t_address"
      },
      "t_mapping(t_uint256,t_bool)": {
        "encoding": "mapping",
        "key": "t_uint256",
        "label": "mapping(uint256 => bool)",
        "numberOfBytes": "32",
        "value": "t_bool"
      },
      "t_uint256": {
        "encoding": "inplace",
        "label": "uint256",
        "numberOfBytes": "32"
      }
    }
  }
}