{
  "address": "0xC9F75bc352E78865e5Cc5fb3C70a24D554F2e7b5",
  "abi": [
    {
      "inputs": [
        {
          "internalType": "address",
          "name": "_incentiveDistributor",
          "type": "address"
        },
        {
          "internalType": "address",
          "name": "_stakeToken",
          "type": "address"
        },
        {
          "internalType": "uint256",
          "name": "startTimestamp",
          "type": "uint256"
        }
      ],
      "stateMutability": "nonpayable",
      "type": "constructor"
    },
    {
      "anonymous": false,
      "inputs": [
        {
          "indexed": true,
          "internalType": "address",
          "name": "previousOwner",
          "type": "address"
        },
        {
          "indexed": true,
          "internalType": "address",
          "name": "newOwner",
          "type": "address"
        }
      ],
      "name": "OwnershipTransferred",
      "type": "event"
    },
    {
      "inputs": [
        {
          "internalType": "address",
          "name": "",
          "type": "address"
        }
      ],
      "name": "claimIds",
      "outputs": [
        {
          "internalType": "uint256",
          "name": "",
          "type": "uint256"
        }
      ],
      "stateMutability": "view",
      "type": "function"
    },
    {
      "inputs": [
        {
          "internalType": "uint256",
          "name": "amount",
          "type": "uint256"
        }
      ],
      "name": "depositStake",
      "outputs": [],
      "stateMutability": "nonpayable",
      "type": "function"
    },
    {
      "inputs": [],
      "name": "incentiveStart",
      "outputs": [
        {
          "internalType": "uint256",
          "name": "",
          "type": "uint256"
        }
      ],
      "stateMutability": "view",
      "type": "function"
    },
    {
      "inputs": [],
      "name": "owner",
      "outputs": [
        {
          "internalType": "address",
          "name": "",
          "type": "address"
        }
      ],
      "stateMutability": "view",
      "type": "function"
    },
    {
      "inputs": [],
      "name": "renounceOwnership",
      "outputs": [],
      "stateMutability": "nonpayable",
      "type": "function"
    },
    {
      "inputs": [
        {
          "internalType": "address",
          "name": "",
          "type": "address"
        }
      ],
      "name": "stakeAmounts",
      "outputs": [
        {
          "internalType": "uint256",
          "name": "",
          "type": "uint256"
        }
      ],
      "stateMutability": "view",
      "type": "function"
    },
    {
      "inputs": [],
      "name": "stakeToken",
      "outputs": [
        {
          "internalType": "contract IERC20",
          "name": "",
          "type": "address"
        }
      ],
      "stateMutability": "view",
      "type": "function"
    },
    {
      "inputs": [
        {
          "internalType": "address",
          "name": "newOwner",
          "type": "address"
        }
      ],
      "name": "transferOwnership",
      "outputs": [],
      "stateMutability": "nonpayable",
      "type": "function"
    },
    {
      "inputs": [],
      "name": "withdrawReward",
      "outputs": [
        {
          "internalType": "uint256",
          "name": "",
          "type": "uint256"
        }
      ],
      "stateMutability": "nonpayable",
      "type": "function"
    },
    {
      "inputs": [
        {
          "internalType": "uint256",
          "name": "amount",
          "type": "uint256"
        }
      ],
      "name": "withdrawStake",
      "outputs": [],
      "stateMutability": "nonpayable",
      "type": "function"
    }
  ],
  "transactionHash": "0xd3ec53fdcfe0c4670c7e4dba6f774aa247a9019b8cb353ca3ca7ed84d1a778d7",
  "args": [
    "0xe3C9Fc53D933ACaf0Cb6702CA51f36D3f8a8F828",
    "0x9D640080AF7c81911D87632a7d09Cc4Ab6b133AC",
    1617123087
  ],
  "solcInputHash": "ec45310c1ebd228212cbc01f9840ea7e",
  "bytecode": "0x60e060405234801561001057600080fd5b5060405161136a38038061136a83398101604081905261002f916100c6565b60006100396100a6565b600080546001600160a01b0319166001600160a01b0383169081178255604051929350917f8be0079c531659141344cd1fd0a4f28419497f9722a3daafe3b4186f6b6457e0908290a3506001600160601b0319606093841b811660a0529190921b1660805260c052610101565b3390565b80516001600160a01b03811681146100c157600080fd5b919050565b6000806000606084860312156100da578283fd5b6100e3846100aa565b92506100f1602085016100aa565b9150604084015190509250925092565b60805160601c60a05160601c60c051611203610167600039600081816104ca0152610602015260008181610231015281816102f901528181610570015281816106fd01526107a901526000818161037b015281816103a8015261067301526112036000f3fe608060405234801561001057600080fd5b50600436106100be5760003560e01c8063c885bc5811610076578063dc5c66f91161005b578063dc5c66f914610136578063e5afa56614610149578063f2fde38b1461015c576100be565b8063c885bc581461011b578063cb82cc8f14610123576100be565b8063715018a6116100a7578063715018a6146100f65780638da5cb5b146100fe578063c1a3b9fa14610106576100be565b806325d5971f146100c357806351ed6a30146100d8575b600080fd5b6100d66100d1366004610d67565b61016f565b005b6100e06103a6565b6040516100ed9190610db3565b60405180910390f35b6100d66103ca565b6100e06104ac565b61010e6104c8565b6040516100ed919061113a565b61010e6104ec565b6100d6610131366004610d67565b610600565b61010e610144366004610d13565b6108a8565b61010e610157366004610d13565b6108ba565b6100d661016a366004610d13565b6108cc565b33600090815260026020526040902054818110156101c2576040517f08c379a00000000000000000000000000000000000000000000000000000000081526004016101b990610edb565b60405180910390fd5b6101cc828261115b565b33600090815260026020526040902055808214156102ac57336000908152600160205260408082205490517fc6de9d5d00000000000000000000000000000000000000000000000000000000815273ffffffffffffffffffffffffffffffffffffffff7f0000000000000000000000000000000000000000000000000000000000000000169263c6de9d5d9261026492600401610e5c565b600060405180830381600087803b15801561027e57600080fd5b505af1158015610292573d6000803e3d6000fd5b505033600090815260016020526040812055506103619050565b336000908152600160205260408082205490517fa801671100000000000000000000000000000000000000000000000000000000815273ffffffffffffffffffffffffffffffffffffffff7f0000000000000000000000000000000000000000000000000000000000000000169263a80167119261032e928790600401610e6f565b600060405180830381600087803b15801561034857600080fd5b505af115801561035c573d6000803e3d6000fd5b505050505b6103a273ffffffffffffffffffffffffffffffffffffffff7f0000000000000000000000000000000000000000000000000000000000000000163384610a19565b5050565b7f000000000000000000000000000000000000000000000000000000000000000081565b6103d2610abf565b73ffffffffffffffffffffffffffffffffffffffff166103f06104ac565b73ffffffffffffffffffffffffffffffffffffffff161461043d576040517f08c379a00000000000000000000000000000000000000000000000000000000081526004016101b99061103a565b6000805460405173ffffffffffffffffffffffffffffffffffffffff909116907f8be0079c531659141344cd1fd0a4f28419497f9722a3daafe3b4186f6b6457e0908390a3600080547fffffffffffffffffffffffff0000000000000000000000000000000000000000169055565b60005473ffffffffffffffffffffffffffffffffffffffff1690565b7f000000000000000000000000000000000000000000000000000000000000000081565b3360009081526001602052604081205480610533576040517f08c379a00000000000000000000000000000000000000000000000000000000081526004016101b990611003565b6040517fd56b105400000000000000000000000000000000000000000000000000000000815273ffffffffffffffffffffffffffffffffffffffff7f0000000000000000000000000000000000000000000000000000000000000000169063d56b1054906105a8906000908590600401610e5c565b602060405180830381600087803b1580156105c257600080fd5b505af11580156105d6573d6000803e3d6000fd5b505050506040513d601f19601f820116820180604052508101906105fa9190610d7f565b91505090565b7f00000000000000000000000000000000000000000000000000000000000000004211610659576040517f08c379a00000000000000000000000000000000000000000000000000000000081526004016101b990610f6f565b61069b73ffffffffffffffffffffffffffffffffffffffff7f000000000000000000000000000000000000000000000000000000000000000016333084610ac3565b336000908152600160205260409020541561076957336000908152600160205260408082205490517ff542808700000000000000000000000000000000000000000000000000000000815273ffffffffffffffffffffffffffffffffffffffff7f0000000000000000000000000000000000000000000000000000000000000000169263f542808792610732928690600401610e6f565b600060405180830381600087803b15801561074c57600080fd5b505af1158015610760573d6000803e3d6000fd5b50505050610881565b6040517f583d861600000000000000000000000000000000000000000000000000000000815260009073ffffffffffffffffffffffffffffffffffffffff7f0000000000000000000000000000000000000000000000000000000000000000169063583d8616906107e290849033908790600401610e2b565b602060405180830381600087803b1580156107fc57600080fd5b505af1158015610810573d6000803e3d6000fd5b505050506040513d601f19601f820116820180604052508101906108349190610d7f565b33600090815260016020526040902081905590508061087f576040517f08c379a00000000000000000000000000000000000000000000000000000000081526004016101b99061106f565b505b33600090815260026020526040812080548392906108a0908490611143565b909155505050565b60016020526000908152604090205481565b60026020526000908152604090205481565b6108d4610abf565b73ffffffffffffffffffffffffffffffffffffffff166108f26104ac565b73ffffffffffffffffffffffffffffffffffffffff161461093f576040517f08c379a00000000000000000000000000000000000000000000000000000000081526004016101b99061103a565b73ffffffffffffffffffffffffffffffffffffffff811661098c576040517f08c379a00000000000000000000000000000000000000000000000000000000081526004016101b990610f12565b6000805460405173ffffffffffffffffffffffffffffffffffffffff808516939216917f8be0079c531659141344cd1fd0a4f28419497f9722a3daafe3b4186f6b6457e091a3600080547fffffffffffffffffffffffff00000000000000000000000000000000000000001673ffffffffffffffffffffffffffffffffffffffff92909216919091179055565b610aba8363a9059cbb60e01b8484604051602401610a38929190610e05565b604080517fffffffffffffffffffffffffffffffffffffffffffffffffffffffffffffffe08184030181529190526020810180517bffffffffffffffffffffffffffffffffffffffffffffffffffffffff167fffffffff0000000000000000000000000000000000000000000000000000000090931692909217909152610aea565b505050565b3390565b610ae4846323b872dd60e01b858585604051602401610a3893929190610dd4565b50505050565b6000610b4c826040518060400160405280602081526020017f5361666545524332303a206c6f772d6c6576656c2063616c6c206661696c65648152508573ffffffffffffffffffffffffffffffffffffffff16610ba09092919063ffffffff16565b805190915015610aba5780806020019051810190610b6a9190610d47565b610aba576040517f08c379a00000000000000000000000000000000000000000000000000000000081526004016101b9906110dd565b6060610baf8484600085610bb9565b90505b9392505050565b606082471015610bf5576040517f08c379a00000000000000000000000000000000000000000000000000000000081526004016101b990610fa6565b610bfe85610cba565b610c34576040517f08c379a00000000000000000000000000000000000000000000000000000000081526004016101b9906110a6565b6000808673ffffffffffffffffffffffffffffffffffffffff168587604051610c5d9190610d97565b60006040518083038185875af1925050503d8060008114610c9a576040519150601f19603f3d011682016040523d82523d6000602084013e610c9f565b606091505b5091509150610caf828286610cc0565b979650505050505050565b3b151590565b60608315610ccf575081610bb2565b825115610cdf5782518084602001fd5b816040517f08c379a00000000000000000000000000000000000000000000000000000000081526004016101b99190610e8a565b600060208284031215610d24578081fd5b813573ffffffffffffffffffffffffffffffffffffffff81168114610bb2578182fd5b600060208284031215610d58578081fd5b81518015158114610bb2578182fd5b600060208284031215610d78578081fd5b5035919050565b600060208284031215610d90578081fd5b5051919050565b60008251610da9818460208701611172565b9190910192915050565b73ffffffffffffffffffffffffffffffffffffffff91909116815260200190565b73ffffffffffffffffffffffffffffffffffffffff9384168152919092166020820152604081019190915260600190565b73ffffffffffffffffffffffffffffffffffffffff929092168252602082015260400190565b60ff93909316835273ffffffffffffffffffffffffffffffffffffffff919091166020830152604082015260600190565b60ff929092168252602082015260400190565b60ff9390931683526020830191909152604082015260600190565b6000602082528251806020840152610ea9816040850160208701611172565b601f017fffffffffffffffffffffffffffffffffffffffffffffffffffffffffffffffe0169190910160400192915050565b6020808252601c908201527f4e6f7420656e6f756768207374616b6520746f20776974686472617700000000604082015260600190565b60208082526026908201527f4f776e61626c653a206e6577206f776e657220697320746865207a65726f206160408201527f6464726573730000000000000000000000000000000000000000000000000000606082015260800190565b6020808252601c908201527f496e63656e74697665206861736e277420737461727465642079657400000000604082015260600190565b60208082526026908201527f416464726573733a20696e73756666696369656e742062616c616e636520666f60408201527f722063616c6c0000000000000000000000000000000000000000000000000000606082015260800190565b60208082526013908201527f4e6f207265676973746572656420636c61696d00000000000000000000000000604082015260600190565b6020808252818101527f4f776e61626c653a2063616c6c6572206973206e6f7420746865206f776e6572604082015260600190565b6020808252601e908201527f446973747269627574696f6e206973206f766572206f72207061757365640000604082015260600190565b6020808252601d908201527f416464726573733a2063616c6c20746f206e6f6e2d636f6e7472616374000000604082015260600190565b6020808252602a908201527f5361666545524332303a204552433230206f7065726174696f6e20646964206e60408201527f6f74207375636365656400000000000000000000000000000000000000000000606082015260800190565b90815260200190565b600082198211156111565761115661119e565b500190565b60008282101561116d5761116d61119e565b500390565b60005b8381101561118d578181015183820152602001611175565b83811115610ae45750506000910152565b7f4e487b7100000000000000000000000000000000000000000000000000000000600052601160045260246000fdfea2646970667358221220d1fb4470911b2d03f6f15d5090acbb4649e6bfa8abcd3ef5e56d8d5eeb7b735064736f6c63430008010033",
  "devdoc": {
    "kind": "dev",
    "methods": {
      "owner()": {
        "details": "Returns the address of the current owner."
      },
      "renounceOwnership()": {
        "details": "Leaves the contract without owner. It will not be possible to call `onlyOwner` functions anymore. Can only be called by the current owner. NOTE: Renouncing ownership will leave the contract without an owner, thereby removing any functionality that is only available to the owner."
      },
      "transferOwnership(address)": {
        "details": "Transfers ownership of the contract to a new account (`newOwner`). Can only be called by the current owner."
      }
    },
    "version": 1
  },
  "userdoc": {
    "kind": "user",
    "methods": {},
    "version": 1
  },
  "storageLayout": {
    "storage": [
      {
        "astId": 381,
        "contract": "contracts/LiquidityMiningReward.sol:LiquidityMiningReward",
        "label": "_owner",
        "offset": 0,
        "slot": "0",
        "type": "t_address"
      },
      {
        "astId": 10382,
        "contract": "contracts/LiquidityMiningReward.sol:LiquidityMiningReward",
        "label": "claimIds",
        "offset": 0,
        "slot": "1",
        "type": "t_mapping(t_address,t_uint256)"
      },
      {
        "astId": 10386,
        "contract": "contracts/LiquidityMiningReward.sol:LiquidityMiningReward",
        "label": "stakeAmounts",
        "offset": 0,
        "slot": "2",
        "type": "t_mapping(t_address,t_uint256)"
      }
    ],
    "types": {
      "t_address": {
        "encoding": "inplace",
        "label": "address",
        "numberOfBytes": "20"
      },
      "t_mapping(t_address,t_uint256)": {
        "encoding": "mapping",
        "key": "t_address",
        "label": "mapping(address => uint256)",
        "numberOfBytes": "32",
        "value": "t_uint256"
      },
      "t_uint256": {
        "encoding": "inplace",
        "label": "uint256",
        "numberOfBytes": "32"
      }
    }
  }
}