{
  "address": "0x791AE2Fef21648AcE23CFa7B1936c42Dd1A4da5c",
  "abi": [
    {
      "inputs": [
        {
          "internalType": "address",
          "name": "_WETH",
          "type": "address"
        },
        {
          "internalType": "address",
          "name": "_roles",
          "type": "address"
        }
      ],
      "stateMutability": "nonpayable",
      "type": "constructor"
    },
    {
      "anonymous": false,
      "inputs": [
        {
          "indexed": false,
          "internalType": "address",
          "name": "trader",
          "type": "address"
        },
        {
          "indexed": false,
          "internalType": "address",
          "name": "borrowToken",
          "type": "address"
        },
        {
          "indexed": false,
          "internalType": "uint256",
          "name": "borrowAmount",
          "type": "uint256"
        }
      ],
      "name": "CrossBorrow",
      "type": "event"
    },
    {
      "anonymous": false,
      "inputs": [
        {
          "indexed": false,
          "internalType": "address",
          "name": "trader",
          "type": "address"
        },
        {
          "indexed": false,
          "internalType": "address",
          "name": "depositToken",
          "type": "address"
        },
        {
          "indexed": false,
          "internalType": "uint256",
          "name": "depositAmount",
          "type": "uint256"
        }
      ],
      "name": "CrossDeposit",
      "type": "event"
    },
    {
      "anonymous": false,
      "inputs": [
        {
          "indexed": false,
          "internalType": "address",
          "name": "trader",
          "type": "address"
        },
        {
          "indexed": false,
          "internalType": "address",
          "name": "depositToken",
          "type": "address"
        },
        {
          "indexed": false,
          "internalType": "uint256",
          "name": "depositAmount",
          "type": "uint256"
        },
        {
          "indexed": false,
          "internalType": "address",
          "name": "borrowToken",
          "type": "address"
        },
        {
          "indexed": false,
          "internalType": "uint256",
          "name": "withdrawAmount",
          "type": "uint256"
        }
      ],
      "name": "CrossOvercollateralizedBorrow",
      "type": "event"
    },
    {
      "anonymous": false,
      "inputs": [
        {
          "indexed": false,
          "internalType": "address",
          "name": "trader",
          "type": "address"
        },
        {
          "indexed": false,
          "internalType": "address",
          "name": "inToken",
          "type": "address"
        },
        {
          "indexed": false,
          "internalType": "uint256",
          "name": "inTokenAmount",
          "type": "uint256"
        },
        {
          "indexed": false,
          "internalType": "uint256",
          "name": "inTokenBorrow",
          "type": "uint256"
        },
        {
          "indexed": false,
          "internalType": "address",
          "name": "outToken",
          "type": "address"
        },
        {
          "indexed": false,
          "internalType": "uint256",
          "name": "outTokenAmount",
          "type": "uint256"
        },
        {
          "indexed": false,
          "internalType": "uint256",
          "name": "outTokenExtinguish",
          "type": "uint256"
        }
      ],
      "name": "CrossTrade",
      "type": "event"
    },
    {
      "anonymous": false,
      "inputs": [
        {
          "indexed": false,
          "internalType": "address",
          "name": "trader",
          "type": "address"
        },
        {
          "indexed": false,
          "internalType": "address",
          "name": "withdrawToken",
          "type": "address"
        },
        {
          "indexed": false,
          "internalType": "uint256",
          "name": "withdrawAmount",
          "type": "uint256"
        }
      ],
      "name": "CrossWithdraw",
      "type": "event"
    },
    {
      "inputs": [],
      "name": "WETH",
      "outputs": [
        {
          "internalType": "address",
          "name": "",
          "type": "address"
        }
      ],
      "stateMutability": "view",
      "type": "function"
    },
    {
      "inputs": [
        {
          "internalType": "uint256",
          "name": "amountIn",
          "type": "uint256"
        },
        {
          "internalType": "uint256",
          "name": "amountOutMin",
          "type": "uint256"
        },
        {
          "internalType": "bytes32",
          "name": "amms",
          "type": "bytes32"
        },
        {
          "internalType": "address[]",
          "name": "tokens",
          "type": "address[]"
        }
      ],
      "name": "authorizedSwapExactT4T",
      "outputs": [
        {
          "internalType": "uint256[]",
          "name": "amounts",
          "type": "uint256[]"
        }
      ],
      "stateMutability": "nonpayable",
      "type": "function"
    },
    {
      "inputs": [
        {
          "internalType": "uint256",
          "name": "amountOut",
          "type": "uint256"
        },
        {
          "internalType": "uint256",
          "name": "amountInMax",
          "type": "uint256"
        },
        {
          "internalType": "bytes32",
          "name": "amms",
          "type": "bytes32"
        },
        {
          "internalType": "address[]",
          "name": "tokens",
          "type": "address[]"
        }
      ],
      "name": "authorizedSwapT4ExactT",
      "outputs": [
        {
          "internalType": "uint256[]",
          "name": "amounts",
          "type": "uint256[]"
        }
      ],
      "stateMutability": "nonpayable",
      "type": "function"
    },
    {
      "inputs": [
        {
          "internalType": "address",
          "name": "borrowToken",
          "type": "address"
        },
        {
          "internalType": "uint256",
          "name": "borrowAmount",
          "type": "uint256"
        }
      ],
      "name": "crossBorrow",
      "outputs": [],
      "stateMutability": "nonpayable",
      "type": "function"
    },
    {
      "inputs": [],
      "name": "crossCloseAccount",
      "outputs": [],
      "stateMutability": "nonpayable",
      "type": "function"
    },
    {
      "inputs": [
        {
          "internalType": "address",
          "name": "depositToken",
          "type": "address"
        },
        {
          "internalType": "uint256",
          "name": "depositAmount",
          "type": "uint256"
        }
      ],
      "name": "crossDeposit",
      "outputs": [],
      "stateMutability": "nonpayable",
      "type": "function"
    },
    {
      "inputs": [],
      "name": "crossDepositETH",
      "outputs": [],
      "stateMutability": "payable",
      "type": "function"
    },
    {
      "inputs": [
        {
          "internalType": "address",
          "name": "depositToken",
          "type": "address"
        },
        {
          "internalType": "uint256",
          "name": "depositAmount",
          "type": "uint256"
        },
        {
          "internalType": "address",
          "name": "borrowToken",
          "type": "address"
        },
        {
          "internalType": "uint256",
          "name": "withdrawAmount",
          "type": "uint256"
        }
      ],
      "name": "crossOvercollateralizedBorrow",
      "outputs": [],
      "stateMutability": "nonpayable",
      "type": "function"
    },
    {
      "inputs": [
        {
          "internalType": "uint256",
          "name": "amountIn",
          "type": "uint256"
        },
        {
          "internalType": "uint256",
          "name": "amountOutMin",
          "type": "uint256"
        },
        {
          "internalType": "bytes32",
          "name": "amms",
          "type": "bytes32"
        },
        {
          "internalType": "address[]",
          "name": "tokens",
          "type": "address[]"
        },
        {
          "internalType": "uint256",
          "name": "deadline",
          "type": "uint256"
        }
      ],
      "name": "crossSwapExactTokensForTokens",
      "outputs": [
        {
          "internalType": "uint256[]",
          "name": "amounts",
          "type": "uint256[]"
        }
      ],
      "stateMutability": "nonpayable",
      "type": "function"
    },
    {
      "inputs": [
        {
          "internalType": "uint256",
          "name": "amountOut",
          "type": "uint256"
        },
        {
          "internalType": "uint256",
          "name": "amountInMax",
          "type": "uint256"
        },
        {
          "internalType": "bytes32",
          "name": "amms",
          "type": "bytes32"
        },
        {
          "internalType": "address[]",
          "name": "tokens",
          "type": "address[]"
        },
        {
          "internalType": "uint256",
          "name": "deadline",
          "type": "uint256"
        }
      ],
      "name": "crossSwapTokensForExactTokens",
      "outputs": [
        {
          "internalType": "uint256[]",
          "name": "amounts",
          "type": "uint256[]"
        }
      ],
      "stateMutability": "nonpayable",
      "type": "function"
    },
    {
      "inputs": [
        {
          "internalType": "address",
          "name": "withdrawToken",
          "type": "address"
        },
        {
          "internalType": "uint256",
          "name": "withdrawAmount",
          "type": "uint256"
        }
      ],
      "name": "crossWithdraw",
      "outputs": [],
      "stateMutability": "nonpayable",
      "type": "function"
    },
    {
      "inputs": [
        {
          "internalType": "uint256",
          "name": "withdrawAmount",
          "type": "uint256"
        }
      ],
      "name": "crossWithdrawETH",
      "outputs": [],
      "stateMutability": "nonpayable",
      "type": "function"
    },
    {
      "inputs": [
        {
          "internalType": "uint256",
          "name": "outAmount",
          "type": "uint256"
        },
        {
          "internalType": "bytes32",
          "name": "amms",
          "type": "bytes32"
        },
        {
          "internalType": "address[]",
          "name": "tokens",
          "type": "address[]"
        }
      ],
      "name": "getAmountsIn",
      "outputs": [
        {
          "internalType": "uint256[]",
          "name": "amounts",
          "type": "uint256[]"
        }
      ],
      "stateMutability": "view",
      "type": "function"
    },
    {
      "inputs": [
        {
          "internalType": "uint256",
          "name": "inAmount",
          "type": "uint256"
        },
        {
          "internalType": "bytes32",
          "name": "amms",
          "type": "bytes32"
        },
        {
          "internalType": "address[]",
          "name": "tokens",
          "type": "address[]"
        }
      ],
      "name": "getAmountsOut",
      "outputs": [
        {
          "internalType": "uint256[]",
          "name": "amounts",
          "type": "uint256[]"
        }
      ],
      "stateMutability": "view",
      "type": "function"
    },
    {
      "inputs": [
        {
          "internalType": "address",
          "name": "",
          "type": "address"
        }
      ],
      "name": "incentiveTranches",
      "outputs": [
        {
          "internalType": "uint256",
          "name": "",
          "type": "uint256"
        }
      ],
      "stateMutability": "view",
      "type": "function"
    },
    {
      "inputs": [
        {
          "internalType": "uint256",
          "name": "",
          "type": "uint256"
        }
      ],
      "name": "mainCharacterCache",
      "outputs": [
        {
          "internalType": "address",
          "name": "",
          "type": "address"
        }
      ],
      "stateMutability": "view",
      "type": "function"
    },
    {
      "inputs": [],
      "name": "mswapFeesPer10k",
      "outputs": [
        {
          "internalType": "uint256",
          "name": "",
          "type": "uint256"
        }
      ],
      "stateMutability": "view",
      "type": "function"
    },
    {
      "inputs": [
        {
          "internalType": "address",
          "name": "",
          "type": "address"
        },
        {
          "internalType": "uint256",
          "name": "",
          "type": "uint256"
        }
      ],
      "name": "roleCache",
      "outputs": [
        {
          "internalType": "bool",
          "name": "",
          "type": "bool"
        }
      ],
      "stateMutability": "view",
      "type": "function"
    },
    {
      "inputs": [],
      "name": "roles",
      "outputs": [
        {
          "internalType": "contract Roles",
          "name": "",
          "type": "address"
        }
      ],
      "stateMutability": "view",
      "type": "function"
    },
    {
      "inputs": [
        {
          "internalType": "address",
          "name": "token",
          "type": "address"
        },
        {
          "internalType": "uint8",
          "name": "tranche",
          "type": "uint8"
        }
      ],
      "name": "setIncentiveTranche",
      "outputs": [],
      "stateMutability": "nonpayable",
      "type": "function"
    },
    {
      "inputs": [
        {
          "internalType": "uint256",
          "name": "role",
          "type": "uint256"
        }
      ],
      "name": "updateMainCharacterCache",
      "outputs": [],
      "stateMutability": "nonpayable",
      "type": "function"
    },
    {
      "inputs": [
        {
          "internalType": "uint256",
          "name": "role",
          "type": "uint256"
        },
        {
          "internalType": "address",
          "name": "contr",
          "type": "address"
        }
      ],
      "name": "updateRoleCache",
      "outputs": [],
      "stateMutability": "nonpayable",
      "type": "function"
    }
  ],
  "transactionHash": "0x0607f058d7a37cc4a2f450f3962e77da12df2a940532ba6c85891ff065ad5983",
  "args": [
    "0xd0A1E359811322d97991E03f863a0C30C2cF029C",
    "0xDBFFA0e2638F12Eef78F021E311fC5288880f743"
  ],
  "solcInputHash": "cb1d8f876b87788b952041f3540648ec",
  "bytecode": "0x60c06040523480156200001157600080fd5b5060405162003b3938038062003b398339810160408190526200003491620000db565b806001600160a01b0381166200009b5760405162461bcd60e51b815260206004820152602260248201527f506c656173652070726f766964652076616c696420726f6c6573206164647265604482015261737360f01b606482015260840160405180910390fd5b6001600160601b0319606091821b811660805292901b90911660a0525062000112565b80516001600160a01b0381168114620000d657600080fd5b919050565b60008060408385031215620000ee578182fd5b620000f983620000be565b91506200010960208401620000be565b90509250929050565b60805160601c60a05160601c6139bc6200017d600039600081816103c40152818161086501528181611104015281816111e4015281816112570152611285015260008181610263015281816104eb01528181610b8901528181611d580152611df001526139bc6000f3fe6080604052600436106101755760003560e01c80637a1a04df116100cb578063b7453e271161007f578063e3e0626b11610059578063e3e0626b14610446578063e9c3f77d14610466578063eedb97c71461049c57610175565b8063b7453e27146103e6578063cb6067dd14610406578063cbe72d291461042657610175565b806394427b20116100b057806394427b201461038a578063a8d83a6814610392578063ad5c4648146103b257610175565b80637a1a04df146103125780638824cbba1461035d57610175565b8063351ae6101161012d57806353d7ff9f1161010757806353d7ff9f146102bd57806369698670146102dd578063799d34e1146102f257610175565b8063351ae61014610224578063392f5f6414610251578063447d52ba1461029d57610175565b80631306d9021161015e5780631306d902146101c45780631dce3baa146101e45780632864f4011461020457610175565b8063071060a61461017a5780631084bd6d1461019c575b600080fd5b34801561018657600080fd5b5061019a610195366004613609565b6104bc565b005b3480156101a857600080fd5b506101b1600a81565b6040519081526020015b60405180910390f35b3480156101d057600080fd5b5061019a6101df366004613426565b6105b3565b3480156101f057600080fd5b5061019a6101ff366004613609565b610813565b34801561021057600080fd5b5061019a61021f366004613498565b610985565b34801561023057600080fd5b5061024461023f3660046136d1565b610a5a565b6040516101bb9190613797565b34801561025d57600080fd5b506102857f000000000000000000000000000000000000000000000000000000000000000081565b6040516001600160a01b0390911681526020016101bb565b3480156102a957600080fd5b5061019a6102b8366004613639565b610b4a565b3480156102c957600080fd5b506102446102d83660046136d1565b610c3b565b3480156102e957600080fd5b5061019a610d21565b3480156102fe57600080fd5b5061024461030d36600461365d565b610fe2565b34801561031e57600080fd5b5061034d61032d366004613426565b600160209081526000928352604080842090915290825290205460ff1681565b60405190151581526020016101bb565b34801561036957600080fd5b506101b16103783660046133e7565b60026020526000908152604090205481565b61019a611022565b34801561039e57600080fd5b506102446103ad366004613730565b6112e6565b3480156103be57600080fd5b506102857f000000000000000000000000000000000000000000000000000000000000000081565b3480156103f257600080fd5b5061024461040136600461365d565b61144f565b34801561041257600080fd5b5061019a610421366004613451565b61148f565b34801561043257600080fd5b50610244610441366004613730565b611795565b34801561045257600080fd5b5061019a610461366004613426565b61190f565b34801561047257600080fd5b50610285610481366004613609565b6000602081905290815260409020546001600160a01b031681565b3480156104a857600080fd5b5061019a6104b7366004613426565b611a9c565b6040517fb4ed0b6d000000000000000000000000000000000000000000000000000000008152600481018290527f00000000000000000000000000000000000000000000000000000000000000006001600160a01b03169063b4ed0b6d9060240160206040518083038186803b15801561053557600080fd5b505afa158015610549573d6000803e3d6000fd5b505050506040513d601f19601f8201168201806040525081019061056d919061340a565b60009182526020829052604090912080547fffffffffffffffffffffffff0000000000000000000000000000000000000000166001600160a01b03909216919091179055565b606560009081526020527f4a7203f705e51df4a56139a9b86b4a0970bed7ab7a3446eaffe2289989c1645c546001600160a01b031660405163b3db428b60e01b81523360048201526001600160a01b03848116602483015260448201849052919091169063b3db428b90606401600060405180830381600087803b15801561063a57600080fd5b505af115801561064e573d6000803e3d6000fd5b50505050600061068f606860009081526020527faa071f48f62aaaa1f6320aaa7bd2ad2d552d05160892c14d699d38c9920d5f99546001600160a01b031690565b6040516352a664d960e01b81523360048201526001600160a01b0385811660248301526044820185905291909116906352a664d990606401602060405180830381600087803b1580156106e157600080fd5b505af11580156106f5573d6000803e3d6000fd5b505050506040513d601f19601f820116820180604052508101906107199190613621565b905080156107c557606660009081526020527f422cccb7cea5c0e46f340bb7b21b81debac329f72e31669c20ff0f3a05cc2b5b546001600160a01b0316604051632a6a897b60e01b81526001600160a01b038581166004830152602482018490529190911690632a6a897b90604401600060405180830381600087803b1580156107a257600080fd5b505af11580156107b6573d6000803e3d6000fd5b505050506107c5338483611c76565b604080513381526001600160a01b03851660208201529081018390527f2f7971a38b280a622029ac616d8d562df278b4b5839a7b124c33a1715ae092999060600160405180910390a1505050565b606860009081526020527faa071f48f62aaaa1f6320aaa7bd2ad2d552d05160892c14d699d38c9920d5f99546001600160a01b031660405163d0eb665360e01b81523360048201526001600160a01b037f00000000000000000000000000000000000000000000000000000000000000008116602483015260448201849052919091169063d0eb665390606401600060405180830381600087803b1580156108ba57600080fd5b505af11580156108ce573d6000803e3d6000fd5b50506065600090815260205250507f4a7203f705e51df4a56139a9b86b4a0970bed7ab7a3446eaffe2289989c1645c546001600160a01b03166040517f4782f779000000000000000000000000000000000000000000000000000000008152336004820152602481018390526001600160a01b039190911690634782f77990604401600060405180830381600087803b15801561096a57600080fd5b505af115801561097e573d6000803e3d6000fd5b5050505050565b3361098e611d54565b6001600160a01b031614806109b25750336109a7611dec565b6001600160a01b0316145b806109c157506109c133611e5d565b610a385760405162461bcd60e51b815260206004820152603960248201527f43616c6c6572206973206e6f7420746865206f776e65722c206578656375746f60448201527f72206f7220617574686f72697a656420616374697661746f720000000000000060648201526084015b60405180910390fd5b6001600160a01b03909116600090815260026020526040902060ff9091169055565b3360009081526001602090815260408083206007845290915290205460609060ff16610aee5760405162461bcd60e51b815260206004820152603e60248201527f43616c6c696e6720636f6e7472616374206973206e6f7420617574686f72697a60448201527f656420746f20747261646520776974682070726f746f636c2066756e647300006064820152608401610a2f565b6060610b2e8786868680806020026020016040519081016040528093929190818152602001838360200280828437600092019190915250611e8b92505050565b9092509050610b40828783878761217b565b5095945050505050565b6040517f93552a3d000000000000000000000000000000000000000000000000000000008152600481018390526001600160a01b0382811660248301527f000000000000000000000000000000000000000000000000000000000000000016906393552a3d9060440160206040518083038186803b158015610bcb57600080fd5b505afa158015610bdf573d6000803e3d6000fd5b505050506040513d601f19601f82011682018060405250810190610c03919061359b565b6001600160a01b0391909116600090815260016020908152604080832094835293905291909120805460ff1916911515919091179055565b3360009081526001602090815260408083206007845290915290205460609060ff16610ccf5760405162461bcd60e51b815260206004820152603e60248201527f43616c6c696e6720636f6e7472616374206973206e6f7420617574686f72697a60448201527f656420746f20747261646520776974682070726f746f636c2066756e647300006064820152608401610a2f565b6060610d0f87868686808060200260200160405190810160405280939291908181526020018383602002808284376000920191909152506123b992505050565b9092509050610b4082878387876126a8565b600080610d5f606860009081526020527faa071f48f62aaaa1f6320aaa7bd2ad2d552d05160892c14d699d38c9920d5f99546001600160a01b031690565b6040517f409fdb720000000000000000000000000000000000000000000000000000000081523360048201526001600160a01b03919091169063409fdb729060240160006040518083038186803b158015610db957600080fd5b505afa158015610dcd573d6000803e3d6000fd5b505050506040513d6000823e601f3d908101601f19168201604052610df591908101906134d5565b91509150610e34606860009081526020527faa071f48f62aaaa1f6320aaa7bd2ad2d552d05160892c14d699d38c9920d5f99546001600160a01b031690565b6040517fdb2d904d0000000000000000000000000000000000000000000000000000000081523360048201526001600160a01b03919091169063db2d904d90602401600060405180830381600087803b158015610e9057600080fd5b505af1158015610ea4573d6000803e3d6000fd5b5050505060005b8083511115610fdd57606560009081526020527f4a7203f705e51df4a56139a9b86b4a0970bed7ab7a3446eaffe2289989c1645c546001600160a01b03166001600160a01b031663d9caed12848381518110610f1757634e487b7160e01b600052603260045260246000fd5b602002602001015133858581518110610f4057634e487b7160e01b600052603260045260246000fd5b60209081029190910101516040517fffffffff0000000000000000000000000000000000000000000000000000000060e086901b1681526001600160a01b0393841660048201529290911660248301526044820152606401600060405180830381600087803b158015610fb257600080fd5b505af1158015610fc6573d6000803e3d6000fd5b505050508080610fd590613927565b915050610eab565b505050565b6060610b4085858585808060200260200160405190810160405280939291908181526020018383602002808284376000920191909152506123b992505050565b606560009081526020527f4a7203f705e51df4a56139a9b86b4a0970bed7ab7a3446eaffe2289989c1645c546001600160a01b03166001600160a01b031663a6a5f9fe346040518263ffffffff1660e01b81526004016000604051808303818588803b15801561109157600080fd5b505af11580156110a5573d6000803e3d6000fd5b505050505060006110e7606860009081526020527faa071f48f62aaaa1f6320aaa7bd2ad2d552d05160892c14d699d38c9920d5f99546001600160a01b031690565b6040516352a664d960e01b81523360048201526001600160a01b037f00000000000000000000000000000000000000000000000000000000000000008116602483015234604483015291909116906352a664d990606401602060405180830381600087803b15801561115857600080fd5b505af115801561116c573d6000803e3d6000fd5b505050506040513d601f19601f820116820180604052508101906111909190613621565b9050801561127c57606660009081526020527f422cccb7cea5c0e46f340bb7b21b81debac329f72e31669c20ff0f3a05cc2b5b546001600160a01b0316604051632a6a897b60e01b81526001600160a01b037f000000000000000000000000000000000000000000000000000000000000000081166004830152602482018490529190911690632a6a897b90604401600060405180830381600087803b15801561123957600080fd5b505af115801561124d573d6000803e3d6000fd5b5050505061127c337f000000000000000000000000000000000000000000000000000000000000000083611c76565b604080513381527f00000000000000000000000000000000000000000000000000000000000000006001600160a01b03166020820152348183015290517f2f7971a38b280a622029ac616d8d562df278b4b5839a7b124c33a1715ae092999181900360600190a150565b606081428110156113395760405162461bcd60e51b815260206004820152601160248201527f54726164652068617320657870697265640000000000000000000000000000006044820152606401610a2f565b606061138b6113478a612745565b611351908b6138a2565b888888808060200260200160405190810160405280939291908181526020018383602002808284376000920191909152506123b992505050565b90935090506114363387876000816113b357634e487b7160e01b600052603260045260246000fd5b90506020020160208101906113c891906133e7565b88886113d56001826138f9565b8181106113f257634e487b7160e01b600052603260045260246000fd5b905060200201602081019061140791906133e7565b8660008151811061142857634e487b7160e01b600052603260045260246000fd5b60200260200101518d612765565b61144383898389896126a8565b50509695505050505050565b6060610b408585858580806020026020016040519081016040528093929190818152602001838360200280828437600092019190915250611e8b92505050565b606560009081526020527f4a7203f705e51df4a56139a9b86b4a0970bed7ab7a3446eaffe2289989c1645c546001600160a01b031660405163b3db428b60e01b81523360048201526001600160a01b03868116602483015260448201869052919091169063b3db428b90606401600060405180830381600087803b15801561151657600080fd5b505af115801561152a573d6000803e3d6000fd5b50506066600090815260205250507f422cccb7cea5c0e46f340bb7b21b81debac329f72e31669c20ff0f3a05cc2b5b546001600160a01b031660405163ee0862bf60e01b81526001600160a01b03848116600483015260248201849052919091169063ee0862bf90604401600060405180830381600087803b1580156115af57600080fd5b505af11580156115c3573d6000803e3d6000fd5b50506068600090815260205250507faa071f48f62aaaa1f6320aaa7bd2ad2d552d05160892c14d699d38c9920d5f99546001600160a01b03166040517f1d84cc180000000000000000000000000000000000000000000000000000000081523360048201526001600160a01b038681166024830152604482018690528481166064830152608482018490529190911690631d84cc189060a401600060405180830381600087803b15801561167657600080fd5b505af115801561168a573d6000803e3d6000fd5b50506065600090815260205250507f4a7203f705e51df4a56139a9b86b4a0970bed7ab7a3446eaffe2289989c1645c546001600160a01b0316604051636ce5768960e11b81526001600160a01b03848116600483015233602483015260448201849052919091169063d9caed1290606401600060405180830381600087803b15801561171557600080fd5b505af1158015611729573d6000803e3d6000fd5b50505050611738338383612a1f565b604080513381526001600160a01b038681166020830152818301869052841660608201526080810183905290517f59df04bd51ea0829a640c9b6be1da5e33d4d15160663510284a2b896670c305b9181900360a00190a150505050565b606081428110156117e85760405162461bcd60e51b815260206004820152601160248201527f54726164652068617320657870697265640000000000000000000000000000006044820152606401610a2f565b60006117f389612afd565b9050606061183e611804838c6138f9565b89898980806020026020016040519081016040528093929190818152602001838360200280828437600092019190915250611e8b92505050565b90945090506118f533888860008161186657634e487b7160e01b600052603260045260246000fd5b905060200201602081019061187b91906133e7565b89896118886001826138f9565b8181106118a557634e487b7160e01b600052603260045260246000fd5b90506020020160208101906118ba91906133e7565b8d8860018a516118ca91906138f9565b815181106118e857634e487b7160e01b600052603260045260246000fd5b6020026020010151612765565b611902848a838a8a61217b565b5050509695505050505050565b606860009081526020527faa071f48f62aaaa1f6320aaa7bd2ad2d552d05160892c14d699d38c9920d5f99546001600160a01b031660405163d0eb665360e01b81523360048201526001600160a01b03848116602483015260448201849052919091169063d0eb665390606401600060405180830381600087803b15801561199657600080fd5b505af11580156119aa573d6000803e3d6000fd5b50506065600090815260205250507f4a7203f705e51df4a56139a9b86b4a0970bed7ab7a3446eaffe2289989c1645c546001600160a01b0316604051636ce5768960e11b81526001600160a01b03848116600483015233602483015260448201849052919091169063d9caed1290606401600060405180830381600087803b158015611a3557600080fd5b505af1158015611a49573d6000803e3d6000fd5b5050604080513381526001600160a01b03861660208201529081018490527f69725482a69b3feb662528aa4b8028c1f9f6288b9ef746d5c84a847e05ad0d6b925060600190505b60405180910390a15050565b606660009081526020527f422cccb7cea5c0e46f340bb7b21b81debac329f72e31669c20ff0f3a05cc2b5b546001600160a01b031660405163ee0862bf60e01b81526001600160a01b03848116600483015260248201849052919091169063ee0862bf90604401600060405180830381600087803b158015611b1d57600080fd5b505af1158015611b31573d6000803e3d6000fd5b50506068600090815260205250507faa071f48f62aaaa1f6320aaa7bd2ad2d552d05160892c14d699d38c9920d5f99546001600160a01b03166040517f498d55eb0000000000000000000000000000000000000000000000000000000081523360048201526001600160a01b03848116602483015260448201849052919091169063498d55eb90606401600060405180830381600087803b158015611bd557600080fd5b505af1158015611be9573d6000803e3d6000fd5b50505050611bf8338383612a1f565b604080513381526001600160a01b03841660208201529081018290527fd160a035f47ba1f22446570a0c0f33960590c1e03b5ae81e67f8fdc4c721f4da90606001611a90565b606560009081526020527f4a7203f705e51df4a56139a9b86b4a0970bed7ab7a3446eaffe2289989c1645c546001600160a01b031690565b6001600160a01b038216600090815260026020526040902054611cca606c60009081526020527f3c1fcba39712202dbd455253568bf32dd0a3bedb5c3ff0de4b22d4e45e50dc92546001600160a01b031690565b6040517fc6c9faa1000000000000000000000000000000000000000000000000000000008152600481018390526001600160a01b03868116602483015260448201859052919091169063c6c9faa190606401600060405180830381600087803b158015611d3657600080fd5b505af1158015611d4a573d6000803e3d6000fd5b5050505050505050565b60007f00000000000000000000000000000000000000000000000000000000000000006001600160a01b0316638da5cb5b6040518163ffffffff1660e01b815260040160206040518083038186803b158015611daf57600080fd5b505afa158015611dc3573d6000803e3d6000fd5b505050506040513d601f19601f82011682018060405250810190611de7919061340a565b905090565b60007f00000000000000000000000000000000000000000000000000000000000000006001600160a01b031663c34c08e56040518163ffffffff1660e01b8152600401602060405180830381600087803b158015611e4957600080fd5b505af1158015611dc3573d6000803e3d6000fd5b6001600160a01b03811660009081526001602090815260408083206009845290915290205460ff165b919050565b606080600283511015611ef15760405162461bcd60e51b815260206004820152602860248201527f556e69737761705374796c654c69623a20746f6b656e207061746820697320746044820152671bdbc81cda1bdc9d60c21b6064820152608401610a2f565b825167ffffffffffffffff811115611f1957634e487b7160e01b600052604160045260246000fd5b604051908082528060200260200182016040528015611f42578160200160208202803683370190505b5091508482600081518110611f6757634e487b7160e01b600052603260045260246000fd5b60200260200101818152505060018351611f8191906138f9565b67ffffffffffffffff811115611fa757634e487b7160e01b600052604160045260246000fd5b604051908082528060200260200182016040528015611fd0578160200160208202803683370190505b50905060005b60018451611fe491906138f9565b81101561217257600084828151811061200d57634e487b7160e01b600052603260045260246000fd5b6020026020010151905060008583600161202791906138a2565b8151811061204557634e487b7160e01b600052603260045260246000fd5b60200260200101519050600087846020811061207157634e487b7160e01b600052603260045260246000fd5b1a60f81b6001600160f81b031916156120935761208e8383612b17565b61209d565b61209d8383612bf7565b9050808585815181106120c057634e487b7160e01b600052603260045260246000fd5b60200260200101906001600160a01b031690816001600160a01b0316815250506000806120ee838686612cb8565b9150915061212488878151811061211557634e487b7160e01b600052603260045260246000fd5b60200260200101518383612d95565b886121308860016138a2565b8151811061214e57634e487b7160e01b600052603260045260246000fd5b6020026020010181815250505050505050808061216a90613927565b915050611fd6565b50935093915050565b83856001875161218b91906138f9565b815181106121a957634e487b7160e01b600052603260045260246000fd5b602002602001015110156122255760405162461bcd60e51b815260206004820152602860248201527f4d617267696e526f757465723a20494e53554646494349454e545f4f5554505560448201527f545f414d4f554e540000000000000000000000000000000000000000000000006064820152608401610a2f565b606560009081526020527f4a7203f705e51df4a56139a9b86b4a0970bed7ab7a3446eaffe2289989c1645c546001600160a01b03166001600160a01b031663d9caed128383600081811061228957634e487b7160e01b600052603260045260246000fd5b905060200201602081019061229e91906133e7565b856000815181106122bf57634e487b7160e01b600052603260045260246000fd5b6020026020010151886000815181106122e857634e487b7160e01b600052603260045260246000fd5b60209081029190910101516040517fffffffff0000000000000000000000000000000000000000000000000000000060e086901b1681526001600160a01b0393841660048201529290911660248301526044820152606401600060405180830381600087803b15801561235a57600080fd5b505af115801561236e573d6000803e3d6000fd5b5050505061097e85848484808060200260200160405190810160405280939291908181526020018383602002808284376000920191909152506123b49250611c3e915050565b612ec7565b60608060028351101561241f5760405162461bcd60e51b815260206004820152602860248201527f556e69737761705374796c654c69623a20746f6b656e207061746820697320746044820152671bdbc81cda1bdc9d60c21b6064820152608401610a2f565b825167ffffffffffffffff81111561244757634e487b7160e01b600052604160045260246000fd5b604051908082528060200260200182016040528015612470578160200160208202803683370190505b50915084826001845161248391906138f9565b815181106124a157634e487b7160e01b600052603260045260246000fd5b602002602001018181525050600183516124bb91906138f9565b67ffffffffffffffff8111156124e157634e487b7160e01b600052604160045260246000fd5b60405190808252806020026020018201604052801561250a578160200160208202803683370190505b50905060006002845161251d91906138f9565b90505b600084828151811061254257634e487b7160e01b600052603260045260246000fd5b6020026020010151905060008583600161255c91906138a2565b8151811061257a57634e487b7160e01b600052603260045260246000fd5b6020026020010151905060008784602081106125a657634e487b7160e01b600052603260045260246000fd5b1a60f81b6001600160f81b031916156125c8576125c38383612b17565b6125d2565b6125d28383612bf7565b9050808585815181106125f557634e487b7160e01b600052603260045260246000fd5b60200260200101906001600160a01b031690816001600160a01b031681525050600080612623838686612cb8565b9092509050612664886126378860016138a2565b8151811061265557634e487b7160e01b600052603260045260246000fd5b602002602001015183836130f5565b88878151811061268457634e487b7160e01b600052603260045260246000fd5b602002602001018181525050505050505080806126a090613910565b915050612520565b83856000815181106126ca57634e487b7160e01b600052603260045260246000fd5b602002602001015111156122255760405162461bcd60e51b8152602060048201526024808201527f4d617267696e526f757465723a204558434553534956455f494e5055545f414d60448201527f4f554e54000000000000000000000000000000000000000000000000000000006064820152608401610a2f565b600061271061275583600a6138da565b61275f91906138ba565b92915050565b6000806127a3606860009081526020527faa071f48f62aaaa1f6320aaa7bd2ad2d552d05160892c14d699d38c9920d5f99546001600160a01b031690565b6040517f3500aa0b0000000000000000000000000000000000000000000000000000000081526001600160a01b0389811660048301528881166024830152878116604483015260648201879052608482018690529190911690633500aa0b9060a4016040805180830381600087803b15801561281e57600080fd5b505af1158015612832573d6000803e3d6000fd5b505050506040513d601f19601f8201168201806040525081019061285691906136ae565b9092509050811561290557606660009081526020527f422cccb7cea5c0e46f340bb7b21b81debac329f72e31669c20ff0f3a05cc2b5b546001600160a01b0316604051632a6a897b60e01b81526001600160a01b038781166004830152602482018590529190911690632a6a897b90604401600060405180830381600087803b1580156128e257600080fd5b505af11580156128f6573d6000803e3d6000fd5b50505050612905878684611c76565b80156129af57606660009081526020527f422cccb7cea5c0e46f340bb7b21b81debac329f72e31669c20ff0f3a05cc2b5b546001600160a01b031660405163ee0862bf60e01b81526001600160a01b03888116600483015260248201849052919091169063ee0862bf90604401600060405180830381600087803b15801561298c57600080fd5b505af11580156129a0573d6000803e3d6000fd5b505050506129af878783612a1f565b604080516001600160a01b0389811682528881166020830152818301879052606082018490528716608082015260a0810185905260c0810184905290517ffda7842105bd0ae9d4c9616a1d48b1e9f17e2d97cb890d021c291e7d1b53929f9181900360e00190a150505050505050565b6000612a5c606c60009081526020527f3c1fcba39712202dbd455253568bf32dd0a3bedb5c3ff0de4b22d4e45e50dc92546001600160a01b031690565b6001600160a01b03848116600090815260026020526040908190205490517f2b5de286000000000000000000000000000000000000000000000000000000008152600481018290528783166024820152604481018690529293509190831690632b5de28690606401600060405180830381600087803b158015612ade57600080fd5b505af1158015612af2573d6000803e3d6000fd5b505050505050505050565b6000612b0c600a6127106138a2565b61275583600a6138da565b6000806000612b26858561322d565b60408051606084811b6bffffffffffffffffffffffff199081166020808501919091529185901b166034830152825160288184030181526048830190935282519201919091206001600160f81b031960688301527fc0aee478e3658e2610c5f7a4a2e1777ce9e4f2ac0000000000000000000000006069830152607d8201527fe18a34eb0e04b04f7a0ac29a6e80748dca96319b42c54d679cb821dca90c6303609d820152919350915060bd015b6040516020818303038152906040528051906020012060601c9250505092915050565b6000806000612c06858561322d565b60408051606084811b6bffffffffffffffffffffffff199081166020808501919091529185901b166034830152825160288184030181526048830190935282519201919091206001600160f81b031960688301527f5c69bee701ef814a2b6a3edd4b1652cb9cc5aa6f0000000000000000000000006069830152607d8201527f96e8ac4277198ff8b6f785478aa9a39f403cb768dd02cbee326c3e7da348845f609d820152919350915060bd01612bd4565b6000806000612cc7858561322d565b509050600080876001600160a01b0316630902f1ac6040518163ffffffff1660e01b815260040160606040518083038186803b158015612d0657600080fd5b505afa158015612d1a573d6000803e3d6000fd5b505050506040513d601f19601f82011682018060405250810190612d3e91906135bb565b506dffffffffffffffffffffffffffff1691506dffffffffffffffffffffffffffff169150826001600160a01b0316876001600160a01b031614612d83578082612d86565b81815b90999098509650505050505050565b6000808411612e0c5760405162461bcd60e51b815260206004820152602b60248201527f556e697377617056324c6962726172793a20494e53554646494349454e545f4960448201527f4e5055545f414d4f554e540000000000000000000000000000000000000000006064820152608401610a2f565b600083118015612e1c5750600082115b612e795760405162461bcd60e51b815260206004820152602860248201527f556e697377617056324c6962726172793a20494e53554646494349454e545f4c604482015267495155494449545960c01b6064820152608401610a2f565b6000612e87856103e56138da565b90506000612e9584836138da565b9050600082612ea6876103e86138da565b612eb091906138a2565b9050612ebc81836138ba565b979650505050505050565b60005b835181101561097e57600080848381518110612ef657634e487b7160e01b600052603260045260246000fd5b602002602001015185846001612f0c91906138a2565b81518110612f2a57634e487b7160e01b600052603260045260246000fd5b6020026020010151915091506000612f42838361322d565b509050600088612f538660016138a2565b81518110612f7157634e487b7160e01b600052603260045260246000fd5b60200260200101519050600080836001600160a01b0316866001600160a01b031614612f9f57826000612fa3565b6000835b91509150600060018b51612fb791906138f9565b8810612fc35788612ff6565b8a612fcf8960016138a2565b81518110612fed57634e487b7160e01b600052603260045260246000fd5b60200260200101515b905060008b898151811061301a57634e487b7160e01b600052603260045260246000fd5b60200260200101519050806001600160a01b031663022c0d9f858585600067ffffffffffffffff81111561305e57634e487b7160e01b600052604160045260246000fd5b6040519080825280601f01601f191660200182016040528015613088576020820181803683370190505b506040518563ffffffff1660e01b81526004016130a894939291906137db565b600060405180830381600087803b1580156130c257600080fd5b505af11580156130d6573d6000803e3d6000fd5b50505050505050505050505080806130ed90613927565b915050612eca565b600080841161316c5760405162461bcd60e51b815260206004820152602c60248201527f556e697377617056324c6962726172793a20494e53554646494349454e545f4f60448201527f55545055545f414d4f554e5400000000000000000000000000000000000000006064820152608401610a2f565b60008311801561317c5750600082115b6131d95760405162461bcd60e51b815260206004820152602860248201527f556e697377617056324c6962726172793a20494e53554646494349454e545f4c604482015267495155494449545960c01b6064820152608401610a2f565b60006131e585856138da565b6131f1906103e86138da565b905060006103e561320287866138f9565b61320c91906138f9565b905061321881836138ba565b6132239060016138a2565b9695505050505050565b600080826001600160a01b0316846001600160a01b031614156132925760405162461bcd60e51b815260206004820152601260248201527f4964656e746963616c20616464726573732100000000000000000000000000006044820152606401610a2f565b826001600160a01b0316846001600160a01b0316106132b25782846132b5565b83835b90925090506001600160a01b0382166133105760405162461bcd60e51b815260206004820152600d60248201527f5a65726f206164647265737321000000000000000000000000000000000000006044820152606401610a2f565b9250929050565b60008083601f840112613328578182fd5b50813567ffffffffffffffff81111561333f578182fd5b6020830191508360208260051b850101111561331057600080fd5b600082601f83011261336a578081fd5b8151602061337f61337a8361387e565b61384d565b80838252828201915082860187848660051b890101111561339e578586fd5b855b858110156133bc578151845292840192908401906001016133a0565b5090979650505050505050565b80516dffffffffffffffffffffffffffff81168114611e8657600080fd5b6000602082840312156133f8578081fd5b81356134038161396e565b9392505050565b60006020828403121561341b578081fd5b81516134038161396e565b60008060408385031215613438578081fd5b82356134438161396e565b946020939093013593505050565b60008060008060808587031215613466578182fd5b84356134718161396e565b93506020850135925060408501356134888161396e565b9396929550929360600135925050565b600080604083850312156134aa578182fd5b82356134b58161396e565b9150602083013560ff811681146134ca578182fd5b809150509250929050565b600080604083850312156134e7578182fd5b825167ffffffffffffffff808211156134fe578384fd5b818501915085601f830112613511578384fd5b8151602061352161337a8361387e565b8083825282820191508286018a848660051b8901011115613540578889fd5b8896505b8487101561356b5780516135578161396e565b835260019690960195918301918301613544565b5091880151919650909350505080821115613584578283fd5b506135918582860161335a565b9150509250929050565b6000602082840312156135ac578081fd5b81518015158114613403578182fd5b6000806000606084860312156135cf578283fd5b6135d8846133c9565b92506135e6602085016133c9565b9150604084015163ffffffff811681146135fe578182fd5b809150509250925092565b60006020828403121561361a578081fd5b5035919050565b600060208284031215613632578081fd5b5051919050565b6000806040838503121561364b578182fd5b8235915060208301356134ca8161396e565b60008060008060608587031215613672578182fd5b8435935060208501359250604085013567ffffffffffffffff811115613696578283fd5b6136a287828801613317565b95989497509550505050565b600080604083850312156136c0578182fd5b505080516020909101519092909150565b6000806000806000608086880312156136e8578283fd5b853594506020860135935060408601359250606086013567ffffffffffffffff811115613713578182fd5b61371f88828901613317565b969995985093965092949392505050565b60008060008060008060a08789031215613748578384fd5b863595506020870135945060408701359350606087013567ffffffffffffffff811115613773578182fd5b61377f89828a01613317565b979a9699509497949695608090950135949350505050565b6020808252825182820181905260009190848201906040850190845b818110156137cf578351835292840192918401916001016137b3565b50909695505050505050565b6000858252602085818401526001600160a01b0385166040840152608060608401528351806080850152825b818110156138235785810183015185820160a001528201613807565b81811115613834578360a083870101525b50601f01601f19169290920160a0019695505050505050565b604051601f8201601f1916810167ffffffffffffffff8111828210171561387657613876613958565b604052919050565b600067ffffffffffffffff82111561389857613898613958565b5060051b60200190565b600082198211156138b5576138b5613942565b500190565b6000826138d557634e487b7160e01b81526012600452602481fd5b500490565b60008160001904831182151516156138f4576138f4613942565b500290565b60008282101561390b5761390b613942565b500390565b60008161391f5761391f613942565b506000190190565b600060001982141561393b5761393b613942565b5060010190565b634e487b7160e01b600052601160045260246000fd5b634e487b7160e01b600052604160045260246000fd5b6001600160a01b038116811461398357600080fd5b5056fea26469706673582212204ad2090da12027846c2a4f7848287c32c0eab9e3a604e593da92c9f1fd7d79d464736f6c63430008030033",
  "devdoc": {
    "kind": "dev",
    "methods": {
      "crossOvercollateralizedBorrow(address,uint256,address,uint256)": {
        "details": "caution: the account still has to have a positive balaance at the end of the withdraw. So an underwater account may not be able to withdraw"
      }
    },
    "title": "Top level transaction controller",
    "version": 1
  },
  "userdoc": {
    "events": {
      "CrossBorrow(address,address,uint256)": {
        "notice": "emitted upon sucessfully borrowing"
      },
      "CrossDeposit(address,address,uint256)": {
        "notice": "emitted when a trader depoits on cross margin"
      },
      "CrossOvercollateralizedBorrow(address,address,uint256,address,uint256)": {
        "notice": "emmited on deposit-borrow-withdraw"
      },
      "CrossTrade(address,address,uint256,uint256,address,uint256,uint256)": {
        "notice": "emitted whenever a trade happens"
      },
      "CrossWithdraw(address,address,uint256)": {
        "notice": "emitted when a trader withdraws funds"
      }
    },
    "kind": "user",
    "methods": {
      "authorizedSwapExactT4T(uint256,uint256,bytes32,address[])": {
        "notice": "make swaps on AMM using protocol funds, only for authorized contracts"
      },
      "crossBorrow(address,uint256)": {
        "notice": "borrow into cross margin trading account"
      },
      "crossCloseAccount()": {
        "notice": "close an account that is no longer borrowing and return gains"
      },
      "crossDeposit(address,uint256)": {
        "notice": "traders call this to deposit funds on cross margin"
      },
      "crossDepositETH()": {
        "notice": "deposit wrapped ehtereum into cross margin account"
      },
      "crossOvercollateralizedBorrow(address,uint256,address,uint256)": {
        "notice": "convenience function to perform overcollateralized borrowing against a cross margin account."
      },
      "crossSwapExactTokensForTokens(uint256,uint256,bytes32,address[],uint256)": {
        "notice": "entry point for swapping tokens held in cross margin account"
      },
      "crossSwapTokensForExactTokens(uint256,uint256,bytes32,address[],uint256)": {
        "notice": "entry point for swapping tokens held in cross margin account"
      },
      "crossWithdraw(address,uint256)": {
        "notice": "withdraw deposits/earnings from cross margin account"
      },
      "crossWithdrawETH(uint256)": {
        "notice": "withdraw ethereum from cross margin account"
      },
      "setIncentiveTranche(address,uint8)": {
        "notice": "Set incentive tranche"
      }
    },
    "version": 1
  },
  "storageLayout": {
    "storage": [
      {
        "astId": 11777,
        "contract": "contracts/MarginRouter.sol:MarginRouter",
        "label": "mainCharacterCache",
        "offset": 0,
        "slot": "0",
        "type": "t_mapping(t_uint256,t_address)"
      },
      {
        "astId": 11783,
        "contract": "contracts/MarginRouter.sol:MarginRouter",
        "label": "roleCache",
        "offset": 0,
        "slot": "1",
        "type": "t_mapping(t_address,t_mapping(t_uint256,t_bool))"
      },
      {
        "astId": 7486,
        "contract": "contracts/MarginRouter.sol:MarginRouter",
        "label": "incentiveTranches",
        "offset": 0,
        "slot": "2",
        "type": "t_mapping(t_address,t_uint256)"
      }
    ],
    "types": {
      "t_address": {
        "encoding": "inplace",
        "label": "address",
        "numberOfBytes": "20"
      },
      "t_bool": {
        "encoding": "inplace",
        "label": "bool",
        "numberOfBytes": "1"
      },
      "t_mapping(t_address,t_mapping(t_uint256,t_bool))": {
        "encoding": "mapping",
        "key": "t_address",
        "label": "mapping(address => mapping(uint256 => bool))",
        "numberOfBytes": "32",
        "value": "t_mapping(t_uint256,t_bool)"
      },
      "t_mapping(t_address,t_uint256)": {
        "encoding": "mapping",
        "key": "t_address",
        "label": "mapping(address => uint256)",
        "numberOfBytes": "32",
        "value": "t_uint256"
      },
      "t_mapping(t_uint256,t_address)": {
        "encoding": "mapping",
        "key": "t_uint256",
        "label": "mapping(uint256 => address)",
        "numberOfBytes": "32",
        "value": "t_address"
      },
      "t_mapping(t_uint256,t_bool)": {
        "encoding": "mapping",
        "key": "t_uint256",
        "label": "mapping(uint256 => bool)",
        "numberOfBytes": "32",
        "value": "t_bool"
      },
      "t_uint256": {
        "encoding": "inplace",
        "label": "uint256",
        "numberOfBytes": "32"
      }
    }
  }
}