{
  "address": "0x6b562B3Bae4F9Ec76bf7782C5D35E05a1Ae4F074",
  "abi": [
    {
      "inputs": [
        {
          "internalType": "address",
          "name": "_WETH",
          "type": "address"
        },
        {
          "internalType": "address",
          "name": "_roles",
          "type": "address"
        }
      ],
      "stateMutability": "nonpayable",
      "type": "constructor"
    },
    {
      "anonymous": false,
      "inputs": [
        {
          "indexed": true,
          "internalType": "address",
          "name": "trader",
          "type": "address"
        }
      ],
      "name": "AccountUpdated",
      "type": "event"
    },
    {
      "inputs": [],
      "name": "WETH",
      "outputs": [
        {
          "internalType": "address",
          "name": "",
          "type": "address"
        }
      ],
      "stateMutability": "view",
      "type": "function"
    },
    {
      "inputs": [
        {
          "internalType": "uint256",
          "name": "amountIn",
          "type": "uint256"
        },
        {
          "internalType": "uint256",
          "name": "amountOutMin",
          "type": "uint256"
        },
        {
          "internalType": "bytes32",
          "name": "amms",
          "type": "bytes32"
        },
        {
          "internalType": "address[]",
          "name": "tokens",
          "type": "address[]"
        }
      ],
      "name": "authorizedSwapExactT4T",
      "outputs": [
        {
          "internalType": "uint256[]",
          "name": "amounts",
          "type": "uint256[]"
        }
      ],
      "stateMutability": "nonpayable",
      "type": "function"
    },
    {
      "inputs": [
        {
          "internalType": "uint256",
          "name": "amountOut",
          "type": "uint256"
        },
        {
          "internalType": "uint256",
          "name": "amountInMax",
          "type": "uint256"
        },
        {
          "internalType": "bytes32",
          "name": "amms",
          "type": "bytes32"
        },
        {
          "internalType": "address[]",
          "name": "tokens",
          "type": "address[]"
        }
      ],
      "name": "authorizedSwapT4ExactT",
      "outputs": [
        {
          "internalType": "uint256[]",
          "name": "amounts",
          "type": "uint256[]"
        }
      ],
      "stateMutability": "nonpayable",
      "type": "function"
    },
    {
      "inputs": [
        {
          "internalType": "address",
          "name": "borrowToken",
          "type": "address"
        },
        {
          "internalType": "uint256",
          "name": "borrowAmount",
          "type": "uint256"
        }
      ],
      "name": "crossBorrow",
      "outputs": [],
      "stateMutability": "nonpayable",
      "type": "function"
    },
    {
      "inputs": [],
      "name": "crossCloseAccount",
      "outputs": [],
      "stateMutability": "nonpayable",
      "type": "function"
    },
    {
      "inputs": [
        {
          "internalType": "address",
          "name": "depositToken",
          "type": "address"
        },
        {
          "internalType": "uint256",
          "name": "depositAmount",
          "type": "uint256"
        }
      ],
      "name": "crossDeposit",
      "outputs": [],
      "stateMutability": "nonpayable",
      "type": "function"
    },
    {
      "inputs": [],
      "name": "crossDepositETH",
      "outputs": [],
      "stateMutability": "payable",
      "type": "function"
    },
    {
      "inputs": [
        {
          "internalType": "address",
          "name": "depositToken",
          "type": "address"
        },
        {
          "internalType": "uint256",
          "name": "depositAmount",
          "type": "uint256"
        },
        {
          "internalType": "address",
          "name": "borrowToken",
          "type": "address"
        },
        {
          "internalType": "uint256",
          "name": "withdrawAmount",
          "type": "uint256"
        }
      ],
      "name": "crossOvercollateralizedBorrow",
      "outputs": [],
      "stateMutability": "nonpayable",
      "type": "function"
    },
    {
      "inputs": [
        {
          "internalType": "address",
          "name": "withdrawToken",
          "type": "address"
        },
        {
          "internalType": "uint256",
          "name": "withdrawAmount",
          "type": "uint256"
        }
      ],
      "name": "crossWithdraw",
      "outputs": [],
      "stateMutability": "nonpayable",
      "type": "function"
    },
    {
      "inputs": [
        {
          "internalType": "uint256",
          "name": "withdrawAmount",
          "type": "uint256"
        }
      ],
      "name": "crossWithdrawETH",
      "outputs": [],
      "stateMutability": "nonpayable",
      "type": "function"
    },
    {
      "inputs": [
        {
          "internalType": "uint256",
          "name": "outAmount",
          "type": "uint256"
        },
        {
          "internalType": "bytes32",
          "name": "amms",
          "type": "bytes32"
        },
        {
          "internalType": "address[]",
          "name": "tokens",
          "type": "address[]"
        }
      ],
      "name": "getAmountsIn",
      "outputs": [
        {
          "internalType": "uint256[]",
          "name": "amounts",
          "type": "uint256[]"
        }
      ],
      "stateMutability": "view",
      "type": "function"
    },
    {
      "inputs": [
        {
          "internalType": "uint256",
          "name": "inAmount",
          "type": "uint256"
        },
        {
          "internalType": "bytes32",
          "name": "amms",
          "type": "bytes32"
        },
        {
          "internalType": "address[]",
          "name": "tokens",
          "type": "address[]"
        }
      ],
      "name": "getAmountsOut",
      "outputs": [
        {
          "internalType": "uint256[]",
          "name": "amounts",
          "type": "uint256[]"
        }
      ],
      "stateMutability": "view",
      "type": "function"
    },
    {
      "inputs": [
        {
          "internalType": "address",
          "name": "",
          "type": "address"
        }
      ],
      "name": "incentiveTranches",
      "outputs": [
        {
          "internalType": "uint256",
          "name": "",
          "type": "uint256"
        }
      ],
      "stateMutability": "view",
      "type": "function"
    },
    {
      "inputs": [
        {
          "internalType": "uint256",
          "name": "",
          "type": "uint256"
        }
      ],
      "name": "mainCharacterCache",
      "outputs": [
        {
          "internalType": "address",
          "name": "",
          "type": "address"
        }
      ],
      "stateMutability": "view",
      "type": "function"
    },
    {
      "inputs": [],
      "name": "mswapFeesPer10k",
      "outputs": [
        {
          "internalType": "uint256",
          "name": "",
          "type": "uint256"
        }
      ],
      "stateMutability": "view",
      "type": "function"
    },
    {
      "inputs": [
        {
          "internalType": "address",
          "name": "",
          "type": "address"
        },
        {
          "internalType": "uint256",
          "name": "",
          "type": "uint256"
        }
      ],
      "name": "roleCache",
      "outputs": [
        {
          "internalType": "bool",
          "name": "",
          "type": "bool"
        }
      ],
      "stateMutability": "view",
      "type": "function"
    },
    {
      "inputs": [],
      "name": "roles",
      "outputs": [
        {
          "internalType": "contract Roles",
          "name": "",
          "type": "address"
        }
      ],
      "stateMutability": "view",
      "type": "function"
    },
    {
      "inputs": [
        {
          "internalType": "address",
          "name": "token",
          "type": "address"
        },
        {
          "internalType": "uint8",
          "name": "tranche",
          "type": "uint8"
        }
      ],
      "name": "setIncentiveTranche",
      "outputs": [],
      "stateMutability": "nonpayable",
      "type": "function"
    },
    {
      "inputs": [
        {
          "internalType": "uint256",
          "name": "amountIn",
          "type": "uint256"
        },
        {
          "internalType": "uint256",
          "name": "amountOutMin",
          "type": "uint256"
        },
        {
          "internalType": "bytes32",
          "name": "amms",
          "type": "bytes32"
        },
        {
          "internalType": "address[]",
          "name": "tokens",
          "type": "address[]"
        },
        {
          "internalType": "uint256",
          "name": "deadline",
          "type": "uint256"
        }
      ],
      "name": "swapExactTokensForTokens",
      "outputs": [
        {
          "internalType": "uint256[]",
          "name": "amounts",
          "type": "uint256[]"
        }
      ],
      "stateMutability": "nonpayable",
      "type": "function"
    },
    {
      "inputs": [
        {
          "internalType": "uint256",
          "name": "amountOut",
          "type": "uint256"
        },
        {
          "internalType": "uint256",
          "name": "amountInMax",
          "type": "uint256"
        },
        {
          "internalType": "bytes32",
          "name": "amms",
          "type": "bytes32"
        },
        {
          "internalType": "address[]",
          "name": "tokens",
          "type": "address[]"
        },
        {
          "internalType": "uint256",
          "name": "deadline",
          "type": "uint256"
        }
      ],
      "name": "swapTokensForExactTokens",
      "outputs": [
        {
          "internalType": "uint256[]",
          "name": "amounts",
          "type": "uint256[]"
        }
      ],
      "stateMutability": "nonpayable",
      "type": "function"
    },
    {
      "inputs": [
        {
          "internalType": "uint256",
          "name": "role",
          "type": "uint256"
        }
      ],
      "name": "updateMainCharacterCache",
      "outputs": [],
      "stateMutability": "nonpayable",
      "type": "function"
    },
    {
      "inputs": [
        {
          "internalType": "uint256",
          "name": "role",
          "type": "uint256"
        },
        {
          "internalType": "address",
          "name": "contr",
          "type": "address"
        }
      ],
      "name": "updateRoleCache",
      "outputs": [],
      "stateMutability": "nonpayable",
      "type": "function"
    }
  ],
  "transactionHash": "0xf0ec8b3d500dcc678c821749c05b38c9a81f97b5ae735c09e8ddf7eed31a3099",
  "args": [
    "0xd0A1E359811322d97991E03f863a0C30C2cF029C",
    "0x845eaD3685F13E98DDa04E8023689713c524A68e"
  ],
  "solcInputHash": "af4f55e02215f8b8a3a62084ffa924d1",
  "bytecode": "0x60c06040523480156200001157600080fd5b5060405162004314380380620043148339810160408190526200003491620000db565b806001600160a01b0381166200009b5760405162461bcd60e51b815260206004820152602260248201527f506c656173652070726f766964652076616c696420726f6c6573206164647265604482015261737360f01b606482015260840160405180910390fd5b6001600160601b0319606091821b811660805292901b90911660a0525062000112565b80516001600160a01b0381168114620000d657600080fd5b919050565b60008060408385031215620000ee578182fd5b620000f983620000be565b91506200010960208401620000be565b90509250929050565b60805160601c60a05160601c61419e62000176600039600081816103d501528181610ae4015281816115610152818161167401526116e70152600081816102870152818161050901528181610eb001528181612a720152612b17015261419e6000f3fe6080604052600436106101755760003560e01c8063799d34e1116100cb578063b7453e271161007f578063e3ee432711610059578063e3ee432714610457578063e9c3f77d14610477578063eedb97c7146104ba57610175565b8063b7453e27146103f7578063cb6067dd14610417578063e3e0626b1461043757610175565b80638824cbba116100b05780638824cbba1461038e57806394427b20146103bb578063ad5c4648146103c357610175565b8063799d34e1146103235780637a1a04df1461034357610175565b80632864f4011161012d578063447d52ba11610107578063447d52ba146102ce57806353d7ff9f146102ee578063696986701461030e57610175565b80632864f40114610235578063351ae61014610255578063392f5f641461027557610175565b80631084bd6d1161015e5780631084bd6d146101d25780631306d902146101f55780631dce3baa1461021557610175565b8063071060a61461017a5780630abb674c1461019c575b600080fd5b34801561018657600080fd5b5061019a610195366004613d3b565b6104da565b005b3480156101a857600080fd5b506101bc6101b7366004613e62565b6105eb565b6040516101c99190613ec9565b60405180910390f35b3480156101de57600080fd5b506101e7600a81565b6040519081526020016101c9565b34801561020157600080fd5b5061019a610210366004613b58565b610784565b34801561022157600080fd5b5061019a610230366004613d3b565b610a5f565b34801561024157600080fd5b5061019a610250366004613bca565b610c49565b34801561026157600080fd5b506101bc610270366004613e03565b610d5a565b34801561028157600080fd5b506102a97f000000000000000000000000000000000000000000000000000000000000000081565b60405173ffffffffffffffffffffffffffffffffffffffff90911681526020016101c9565b3480156102da57600080fd5b5061019a6102e9366004613d6b565b610e64565b3480156102fa57600080fd5b506101bc610309366004613e03565b610f8d565b34801561031a57600080fd5b5061019a61108d565b34801561032f57600080fd5b506101bc61033e366004613d8f565b6113f2565b34801561034f57600080fd5b5061037e61035e366004613b58565b600160209081526000928352604080842090915290825290205460ff1681565b60405190151581526020016101c9565b34801561039a57600080fd5b506101e76103a9366004613b19565b60026020526000908152604090205481565b61019a611432565b3480156103cf57600080fd5b506102a97f000000000000000000000000000000000000000000000000000000000000000081565b34801561040357600080fd5b506101bc610412366004613d8f565b61173a565b34801561042357600080fd5b5061019a610432366004613b83565b61177a565b34801561044357600080fd5b5061019a610452366004613b58565b611b07565b34801561046357600080fd5b506101bc610472366004613e62565b611cda565b34801561048357600080fd5b506102a9610492366004613d3b565b60006020819052908152604090205473ffffffffffffffffffffffffffffffffffffffff1681565b3480156104c657600080fd5b5061019a6104d5366004613b58565b611e5d565b6040517fb4ed0b6d000000000000000000000000000000000000000000000000000000008152600481018290527f000000000000000000000000000000000000000000000000000000000000000073ffffffffffffffffffffffffffffffffffffffff169063b4ed0b6d9060240160206040518083038186803b15801561056057600080fd5b505afa158015610574573d6000803e3d6000fd5b505050506040513d601f19601f820116820180604052508101906105989190613b3c565b60009182526020829052604090912080547fffffffffffffffffffffffff00000000000000000000000000000000000000001673ffffffffffffffffffffffffffffffffffffffff909216919091179055565b6060814281101561065d576040517f08c379a000000000000000000000000000000000000000000000000000000000815260206004820152601160248201527f547261646520686173206578706972656400000000000000000000000000000060448201526064015b60405180910390fd5b600061066889612035565b905060606106b3610679838c614092565b8989898080602002602001604051908101604052809392919081815260200183836020028082843760009201919091525061205f92505050565b909450905061076a3388886000816106db57634e487b7160e01b600052603260045260246000fd5b90506020020160208101906106f09190613b19565b89896106fd600182614092565b81811061071a57634e487b7160e01b600052603260045260246000fd5b905060200201602081019061072f9190613b19565b8d8860018a5161073f9190614092565b8151811061075d57634e487b7160e01b600052603260045260246000fd5b602002602001015161238a565b610777848a838a8a61269e565b5050509695505050505050565b606560009081526020527f4a7203f705e51df4a56139a9b86b4a0970bed7ab7a3446eaffe2289989c1645c5473ffffffffffffffffffffffffffffffffffffffff166040517fb3db428b00000000000000000000000000000000000000000000000000000000815233600482015273ffffffffffffffffffffffffffffffffffffffff848116602483015260448201849052919091169063b3db428b90606401600060405180830381600087803b15801561083e57600080fd5b505af1158015610852573d6000803e3d6000fd5b5050505060006108a0606860009081526020527faa071f48f62aaaa1f6320aaa7bd2ad2d552d05160892c14d699d38c9920d5f995473ffffffffffffffffffffffffffffffffffffffff1690565b6040517f52a664d900000000000000000000000000000000000000000000000000000000815233600482015273ffffffffffffffffffffffffffffffffffffffff85811660248301526044820185905291909116906352a664d990606401602060405180830381600087803b15801561091857600080fd5b505af115801561092c573d6000803e3d6000fd5b505050506040513d601f19601f820116820180604052508101906109509190613d53565b90508015610a2f57606660009081526020527f422cccb7cea5c0e46f340bb7b21b81debac329f72e31669c20ff0f3a05cc2b5b5473ffffffffffffffffffffffffffffffffffffffff166040517f2a6a897b00000000000000000000000000000000000000000000000000000000815273ffffffffffffffffffffffffffffffffffffffff8581166004830152602482018490529190911690632a6a897b90604401600060405180830381600087803b158015610a0c57600080fd5b505af1158015610a20573d6000803e3d6000fd5b50505050610a2f338483612969565b60405133907fe7b1fae3a790ceab07642c09617df79428b02832cd512bbfdd4db50272dcdf3090600090a2505050565b606860009081526020527faa071f48f62aaaa1f6320aaa7bd2ad2d552d05160892c14d699d38c9920d5f995473ffffffffffffffffffffffffffffffffffffffff166040517fd0eb665300000000000000000000000000000000000000000000000000000000815233600482015273ffffffffffffffffffffffffffffffffffffffff7f00000000000000000000000000000000000000000000000000000000000000008116602483015260448201849052919091169063d0eb665390606401600060405180830381600087803b158015610b3957600080fd5b505af1158015610b4d573d6000803e3d6000fd5b50506065600090815260205250507f4a7203f705e51df4a56139a9b86b4a0970bed7ab7a3446eaffe2289989c1645c5473ffffffffffffffffffffffffffffffffffffffff166040517f4782f7790000000000000000000000000000000000000000000000000000000081523360048201526024810183905273ffffffffffffffffffffffffffffffffffffffff9190911690634782f77990604401600060405180830381600087803b158015610c0357600080fd5b505af1158015610c17573d6000803e3d6000fd5b50506040513392507fe7b1fae3a790ceab07642c09617df79428b02832cd512bbfdd4db50272dcdf309150600090a250565b33610c52612a6e565b73ffffffffffffffffffffffffffffffffffffffff161480610c90575033610c78612b13565b73ffffffffffffffffffffffffffffffffffffffff16145b80610c9f5750610c9f33612b91565b610d2b576040517f08c379a000000000000000000000000000000000000000000000000000000000815260206004820152603960248201527f43616c6c6572206973206e6f7420746865206f776e65722c206578656375746f60448201527f72206f7220617574686f72697a656420616374697661746f72000000000000006064820152608401610654565b73ffffffffffffffffffffffffffffffffffffffff909116600090815260026020526040902060ff9091169055565b3360009081526001602090815260408083206007845290915290205460609060ff16610e08576040517f08c379a000000000000000000000000000000000000000000000000000000000815260206004820152603e60248201527f43616c6c696e6720636f6e7472616374206973206e6f7420617574686f72697a60448201527f656420746f20747261646520776974682070726f746f636c2066756e647300006064820152608401610654565b6060610e48878686868080602002602001604051908101604052809392919081815260200183836020028082843760009201919091525061205f92505050565b9092509050610e5a828783878761269e565b5095945050505050565b6040517f93552a3d0000000000000000000000000000000000000000000000000000000081526004810183905273ffffffffffffffffffffffffffffffffffffffff82811660248301527f000000000000000000000000000000000000000000000000000000000000000016906393552a3d9060440160206040518083038186803b158015610ef257600080fd5b505afa158015610f06573d6000803e3d6000fd5b505050506040513d601f19601f82011682018060405250810190610f2a9190613ccd565b73ffffffffffffffffffffffffffffffffffffffff9190911660009081526001602090815260408083209483529390529190912080547fffffffffffffffffffffffffffffffffffffffffffffffffffffffffffffff0016911515919091179055565b3360009081526001602090815260408083206007845290915290205460609060ff1661103b576040517f08c379a000000000000000000000000000000000000000000000000000000000815260206004820152603e60248201527f43616c6c696e6720636f6e7472616374206973206e6f7420617574686f72697a60448201527f656420746f20747261646520776974682070726f746f636c2066756e647300006064820152608401610654565b606061107b8786868680806020026020016040519081016040528093929190818152602001838360200280828437600092019190915250612bcc92505050565b9092509050610e5a8287838787612f0f565b6000806110d8606860009081526020527faa071f48f62aaaa1f6320aaa7bd2ad2d552d05160892c14d699d38c9920d5f995473ffffffffffffffffffffffffffffffffffffffff1690565b6040517f409fdb7200000000000000000000000000000000000000000000000000000000815233600482015273ffffffffffffffffffffffffffffffffffffffff919091169063409fdb729060240160006040518083038186803b15801561113f57600080fd5b505afa158015611153573d6000803e3d6000fd5b505050506040513d6000823e601f3d9081017fffffffffffffffffffffffffffffffffffffffffffffffffffffffffffffffe01682016040526111999190810190613c07565b915091506111e5606860009081526020527faa071f48f62aaaa1f6320aaa7bd2ad2d552d05160892c14d699d38c9920d5f995473ffffffffffffffffffffffffffffffffffffffff1690565b6040517fdb2d904d00000000000000000000000000000000000000000000000000000000815233600482015273ffffffffffffffffffffffffffffffffffffffff919091169063db2d904d90602401600060405180830381600087803b15801561124e57600080fd5b505af1158015611262573d6000803e3d6000fd5b5050505060005b80835111156113c257606560009081526020527f4a7203f705e51df4a56139a9b86b4a0970bed7ab7a3446eaffe2289989c1645c5473ffffffffffffffffffffffffffffffffffffffff1673ffffffffffffffffffffffffffffffffffffffff1663d9caed128483815181106112ef57634e487b7160e01b600052603260045260246000fd5b60200260200101513385858151811061131857634e487b7160e01b600052603260045260246000fd5b60209081029190910101516040517fffffffff0000000000000000000000000000000000000000000000000000000060e086901b16815273ffffffffffffffffffffffffffffffffffffffff93841660048201529290911660248301526044820152606401600060405180830381600087803b15801561139757600080fd5b505af11580156113ab573d6000803e3d6000fd5b5050505080806113ba906140de565b915050611269565b5060405133907fe7b1fae3a790ceab07642c09617df79428b02832cd512bbfdd4db50272dcdf3090600090a25050565b6060610e5a8585858580806020026020016040519081016040528093929190818152602001838360200280828437600092019190915250612bcc92505050565b606560009081526020527f4a7203f705e51df4a56139a9b86b4a0970bed7ab7a3446eaffe2289989c1645c5473ffffffffffffffffffffffffffffffffffffffff1673ffffffffffffffffffffffffffffffffffffffff1663a6a5f9fe346040518263ffffffff1660e01b81526004016000604051808303818588803b1580156114bb57600080fd5b505af11580156114cf573d6000803e3d6000fd5b5050505050600061151e606860009081526020527faa071f48f62aaaa1f6320aaa7bd2ad2d552d05160892c14d699d38c9920d5f995473ffffffffffffffffffffffffffffffffffffffff1690565b6040517f52a664d900000000000000000000000000000000000000000000000000000000815233600482015273ffffffffffffffffffffffffffffffffffffffff7f00000000000000000000000000000000000000000000000000000000000000008116602483015234604483015291909116906352a664d990606401602060405180830381600087803b1580156115b557600080fd5b505af11580156115c9573d6000803e3d6000fd5b505050506040513d601f19601f820116820180604052508101906115ed9190613d53565b9050801561170c57606660009081526020527f422cccb7cea5c0e46f340bb7b21b81debac329f72e31669c20ff0f3a05cc2b5b5473ffffffffffffffffffffffffffffffffffffffff166040517f2a6a897b00000000000000000000000000000000000000000000000000000000815273ffffffffffffffffffffffffffffffffffffffff7f000000000000000000000000000000000000000000000000000000000000000081166004830152602482018490529190911690632a6a897b90604401600060405180830381600087803b1580156116c957600080fd5b505af11580156116dd573d6000803e3d6000fd5b5050505061170c337f000000000000000000000000000000000000000000000000000000000000000083612969565b60405133907fe7b1fae3a790ceab07642c09617df79428b02832cd512bbfdd4db50272dcdf3090600090a250565b6060610e5a858585858080602002602001604051908101604052809392919081815260200183836020028082843760009201919091525061205f92505050565b606560009081526020527f4a7203f705e51df4a56139a9b86b4a0970bed7ab7a3446eaffe2289989c1645c5473ffffffffffffffffffffffffffffffffffffffff166040517fb3db428b00000000000000000000000000000000000000000000000000000000815233600482015273ffffffffffffffffffffffffffffffffffffffff868116602483015260448201869052919091169063b3db428b90606401600060405180830381600087803b15801561183457600080fd5b505af1158015611848573d6000803e3d6000fd5b50506066600090815260205250507f422cccb7cea5c0e46f340bb7b21b81debac329f72e31669c20ff0f3a05cc2b5b5473ffffffffffffffffffffffffffffffffffffffff166040517fee0862bf00000000000000000000000000000000000000000000000000000000815273ffffffffffffffffffffffffffffffffffffffff848116600483015260248201849052919091169063ee0862bf90604401600060405180830381600087803b15801561190057600080fd5b505af1158015611914573d6000803e3d6000fd5b50506068600090815260205250507faa071f48f62aaaa1f6320aaa7bd2ad2d552d05160892c14d699d38c9920d5f995473ffffffffffffffffffffffffffffffffffffffff166040517f1d84cc1800000000000000000000000000000000000000000000000000000000815233600482015273ffffffffffffffffffffffffffffffffffffffff8681166024830152604482018690528481166064830152608482018490529190911690631d84cc189060a401600060405180830381600087803b1580156119e157600080fd5b505af11580156119f5573d6000803e3d6000fd5b50506065600090815260205250507f4a7203f705e51df4a56139a9b86b4a0970bed7ab7a3446eaffe2289989c1645c5473ffffffffffffffffffffffffffffffffffffffff166040517fd9caed1200000000000000000000000000000000000000000000000000000000815273ffffffffffffffffffffffffffffffffffffffff848116600483015233602483015260448201849052919091169063d9caed1290606401600060405180830381600087803b158015611ab357600080fd5b505af1158015611ac7573d6000803e3d6000fd5b50505050611ad6338383612fc6565b60405133907fe7b1fae3a790ceab07642c09617df79428b02832cd512bbfdd4db50272dcdf3090600090a250505050565b606860009081526020527faa071f48f62aaaa1f6320aaa7bd2ad2d552d05160892c14d699d38c9920d5f995473ffffffffffffffffffffffffffffffffffffffff166040517fd0eb665300000000000000000000000000000000000000000000000000000000815233600482015273ffffffffffffffffffffffffffffffffffffffff848116602483015260448201849052919091169063d0eb665390606401600060405180830381600087803b158015611bc157600080fd5b505af1158015611bd5573d6000803e3d6000fd5b50506065600090815260205250507f4a7203f705e51df4a56139a9b86b4a0970bed7ab7a3446eaffe2289989c1645c5473ffffffffffffffffffffffffffffffffffffffff166040517fd9caed1200000000000000000000000000000000000000000000000000000000815273ffffffffffffffffffffffffffffffffffffffff848116600483015233602483015260448201849052919091169063d9caed1290606401600060405180830381600087803b158015611c9357600080fd5b505af1158015611ca7573d6000803e3d6000fd5b50506040513392507fe7b1fae3a790ceab07642c09617df79428b02832cd512bbfdd4db50272dcdf309150600090a25050565b60608142811015611d47576040517f08c379a000000000000000000000000000000000000000000000000000000000815260206004820152601160248201527f54726164652068617320657870697265640000000000000000000000000000006044820152606401610654565b6060611d99611d558a6130be565b611d5f908b61401d565b88888880806020026020016040519081016040528093929190818152602001838360200280828437600092019190915250612bcc92505050565b9093509050611e44338787600081611dc157634e487b7160e01b600052603260045260246000fd5b9050602002016020810190611dd69190613b19565b8888611de3600182614092565b818110611e0057634e487b7160e01b600052603260045260246000fd5b9050602002016020810190611e159190613b19565b86600081518110611e3657634e487b7160e01b600052603260045260246000fd5b60200260200101518d61238a565b611e518389838989612f0f565b50509695505050505050565b606660009081526020527f422cccb7cea5c0e46f340bb7b21b81debac329f72e31669c20ff0f3a05cc2b5b5473ffffffffffffffffffffffffffffffffffffffff166040517fee0862bf00000000000000000000000000000000000000000000000000000000815273ffffffffffffffffffffffffffffffffffffffff848116600483015260248201849052919091169063ee0862bf90604401600060405180830381600087803b158015611f1157600080fd5b505af1158015611f25573d6000803e3d6000fd5b50506068600090815260205250507faa071f48f62aaaa1f6320aaa7bd2ad2d552d05160892c14d699d38c9920d5f995473ffffffffffffffffffffffffffffffffffffffff166040517f498d55eb00000000000000000000000000000000000000000000000000000000815233600482015273ffffffffffffffffffffffffffffffffffffffff848116602483015260448201849052919091169063498d55eb90606401600060405180830381600087803b158015611fe357600080fd5b505af1158015611ff7573d6000803e3d6000fd5b50505050612006338383612fc6565b60405133907fe7b1fae3a790ceab07642c09617df79428b02832cd512bbfdd4db50272dcdf3090600090a25050565b6000612044600a61271061401d565b61204f83600a614055565b6120599190614035565b92915050565b6060806002835110156120ce576040517f08c379a000000000000000000000000000000000000000000000000000000000815260206004820152601460248201527f746f6b656e207061746820746f6f2073686f72740000000000000000000000006044820152606401610654565b825167ffffffffffffffff8111156120f657634e487b7160e01b600052604160045260246000fd5b60405190808252806020026020018201604052801561211f578160200160208202803683370190505b509150848260008151811061214457634e487b7160e01b600052603260045260246000fd5b6020026020010181815250506001835161215e9190614092565b67ffffffffffffffff81111561218457634e487b7160e01b600052604160045260246000fd5b6040519080825280602002602001820160405280156121ad578160200160208202803683370190505b50905060005b600184516121c19190614092565b8110156123815760008482815181106121ea57634e487b7160e01b600052603260045260246000fd5b60200260200101519050600085836001612204919061401d565b8151811061222257634e487b7160e01b600052603260045260246000fd5b60200260200101519050600087846020811061224e57634e487b7160e01b600052603260045260246000fd5b1a60f81b7fff0000000000000000000000000000000000000000000000000000000000000016156122885761228383836130ce565b612292565b61229283836131f5565b9050808585815181106122b557634e487b7160e01b600052603260045260246000fd5b602002602001019073ffffffffffffffffffffffffffffffffffffffff16908173ffffffffffffffffffffffffffffffffffffffff16815250506000806122fd8386866132e1565b9150915061233388878151811061232457634e487b7160e01b600052603260045260246000fd5b602002602001015183836133e5565b8861233f88600161401d565b8151811061235d57634e487b7160e01b600052603260045260246000fd5b60200260200101818152505050505050508080612379906140de565b9150506121b3565b50935093915050565b6000806123d5606860009081526020527faa071f48f62aaaa1f6320aaa7bd2ad2d552d05160892c14d699d38c9920d5f995473ffffffffffffffffffffffffffffffffffffffff1690565b6040517f3500aa0b00000000000000000000000000000000000000000000000000000000815273ffffffffffffffffffffffffffffffffffffffff89811660048301528881166024830152878116604483015260648201879052608482018690529190911690633500aa0b9060a4016040805180830381600087803b15801561245d57600080fd5b505af1158015612471573d6000803e3d6000fd5b505050506040513d601f19601f820116820180604052508101906124959190613de0565b9092509050811561257757606660009081526020527f422cccb7cea5c0e46f340bb7b21b81debac329f72e31669c20ff0f3a05cc2b5b5473ffffffffffffffffffffffffffffffffffffffff166040517f2a6a897b00000000000000000000000000000000000000000000000000000000815273ffffffffffffffffffffffffffffffffffffffff8781166004830152602482018590529190911690632a6a897b90604401600060405180830381600087803b15801561255457600080fd5b505af1158015612568573d6000803e3d6000fd5b50505050612577878684612969565b801561265457606660009081526020527f422cccb7cea5c0e46f340bb7b21b81debac329f72e31669c20ff0f3a05cc2b5b5473ffffffffffffffffffffffffffffffffffffffff166040517fee0862bf00000000000000000000000000000000000000000000000000000000815273ffffffffffffffffffffffffffffffffffffffff888116600483015260248201849052919091169063ee0862bf90604401600060405180830381600087803b15801561263157600080fd5b505af1158015612645573d6000803e3d6000fd5b50505050612654878783612fc6565b60405173ffffffffffffffffffffffffffffffffffffffff8816907fe7b1fae3a790ceab07642c09617df79428b02832cd512bbfdd4db50272dcdf3090600090a250505050505050565b8385600187516126ae9190614092565b815181106126cc57634e487b7160e01b600052603260045260246000fd5b60200260200101511015612762576040517f08c379a000000000000000000000000000000000000000000000000000000000815260206004820152602860248201527f4d617267696e526f757465723a20494e53554646494349454e545f4f5554505560448201527f545f414d4f554e540000000000000000000000000000000000000000000000006064820152608401610654565b606560009081526020527f4a7203f705e51df4a56139a9b86b4a0970bed7ab7a3446eaffe2289989c1645c5473ffffffffffffffffffffffffffffffffffffffff1673ffffffffffffffffffffffffffffffffffffffff1663d9caed12838360008181106127e057634e487b7160e01b600052603260045260246000fd5b90506020020160208101906127f59190613b19565b8560008151811061281657634e487b7160e01b600052603260045260246000fd5b60200260200101518860008151811061283f57634e487b7160e01b600052603260045260246000fd5b60209081029190910101516040517fffffffff0000000000000000000000000000000000000000000000000000000060e086901b16815273ffffffffffffffffffffffffffffffffffffffff93841660048201529290911660248301526044820152606401600060405180830381600087803b1580156128be57600080fd5b505af11580156128d2573d6000803e3d6000fd5b5050505061291d85848484808060200260200160405190810160405280939291908181526020018383602002808284376000920191909152506129189250612924915050565b61353a565b5050505050565b606560009081526020527f4a7203f705e51df4a56139a9b86b4a0970bed7ab7a3446eaffe2289989c1645c5473ffffffffffffffffffffffffffffffffffffffff1690565b73ffffffffffffffffffffffffffffffffffffffff82166000908152600260205260409020546129d7606c60009081526020527f3c1fcba39712202dbd455253568bf32dd0a3bedb5c3ff0de4b22d4e45e50dc925473ffffffffffffffffffffffffffffffffffffffff1690565b6040517fc6c9faa10000000000000000000000000000000000000000000000000000000081526004810183905273ffffffffffffffffffffffffffffffffffffffff868116602483015260448201859052919091169063c6c9faa190606401600060405180830381600087803b158015612a5057600080fd5b505af1158015612a64573d6000803e3d6000fd5b5050505050505050565b60007f000000000000000000000000000000000000000000000000000000000000000073ffffffffffffffffffffffffffffffffffffffff16638da5cb5b6040518163ffffffff1660e01b815260040160206040518083038186803b158015612ad657600080fd5b505afa158015612aea573d6000803e3d6000fd5b505050506040513d601f19601f82011682018060405250810190612b0e9190613b3c565b905090565b60007f000000000000000000000000000000000000000000000000000000000000000073ffffffffffffffffffffffffffffffffffffffff1663c34c08e56040518163ffffffff1660e01b8152600401602060405180830381600087803b158015612b7d57600080fd5b505af1158015612aea573d6000803e3d6000fd5b73ffffffffffffffffffffffffffffffffffffffff811660009081526001602090815260408083206009845290915290205460ff165b919050565b606080600283511015612c3b576040517f08c379a000000000000000000000000000000000000000000000000000000000815260206004820152601460248201527f746f6b656e207061746820746f6f2073686f72740000000000000000000000006044820152606401610654565b825167ffffffffffffffff811115612c6357634e487b7160e01b600052604160045260246000fd5b604051908082528060200260200182016040528015612c8c578160200160208202803683370190505b509150848260018451612c9f9190614092565b81518110612cbd57634e487b7160e01b600052603260045260246000fd5b60200260200101818152505060018351612cd79190614092565b67ffffffffffffffff811115612cfd57634e487b7160e01b600052604160045260246000fd5b604051908082528060200260200182016040528015612d26578160200160208202803683370190505b509050600060018451612d399190614092565b90505b801561238157600084612d50600184614092565b81518110612d6e57634e487b7160e01b600052603260045260246000fd5b602002602001015190506000858381518110612d9a57634e487b7160e01b600052603260045260246000fd5b60200260200101519050600087600185612db49190614092565b60208110612dd257634e487b7160e01b600052603260045260246000fd5b1a60f81b7fff000000000000000000000000000000000000000000000000000000000000001615612e0c57612e0783836130ce565b612e16565b612e1683836131f5565b90508085612e25600187614092565b81518110612e4357634e487b7160e01b600052603260045260246000fd5b602002602001019073ffffffffffffffffffffffffffffffffffffffff16908173ffffffffffffffffffffffffffffffffffffffff1681525050600080612e8b8386866132e1565b91509150612ec1888781518110612eb257634e487b7160e01b600052603260045260246000fd5b6020026020010151838361378f565b88612ecd600189614092565b81518110612eeb57634e487b7160e01b600052603260045260246000fd5b60200260200101818152505050505050508080612f07906140a9565b915050612d3c565b8385600081518110612f3157634e487b7160e01b600052603260045260246000fd5b60200260200101511115612762576040517f08c379a0000000000000000000000000000000000000000000000000000000008152602060048201526024808201527f4d617267696e526f757465723a204558434553534956455f494e5055545f414d60448201527f4f554e54000000000000000000000000000000000000000000000000000000006064820152608401610654565b6000613010606c60009081526020527f3c1fcba39712202dbd455253568bf32dd0a3bedb5c3ff0de4b22d4e45e50dc925473ffffffffffffffffffffffffffffffffffffffff1690565b73ffffffffffffffffffffffffffffffffffffffff848116600090815260026020526040908190205490517f2b5de286000000000000000000000000000000000000000000000000000000008152600481018290528783166024820152604481018690529293509190831690632b5de28690606401600060405180830381600087803b15801561309f57600080fd5b505af11580156130b3573d6000803e3d6000fd5b505050505050505050565b600061271061204f83600a614055565b60008060006130dd85856138ea565b60408051606084811b7fffffffffffffffffffffffffffffffffffffffff0000000000000000000000009081166020808501919091529185901b166034830152825160288184030181526048830190935282519201919091207fff0000000000000000000000000000000000000000000000000000000000000060688301527fc0aee478e3658e2610c5f7a4a2e1777ce9e4f2ac0000000000000000000000006069830152607d8201527fe18a34eb0e04b04f7a0ac29a6e80748dca96319b42c54d679cb821dca90c6303609d820152919350915060bd015b604080517fffffffffffffffffffffffffffffffffffffffffffffffffffffffffffffffe0818403018152919052805160209091012095945050505050565b600080600061320485856138ea565b60408051606084811b7fffffffffffffffffffffffffffffffffffffffff0000000000000000000000009081166020808501919091529185901b166034830152825160288184030181526048830190935282519201919091207fff0000000000000000000000000000000000000000000000000000000000000060688301527f5c69bee701ef814a2b6a3edd4b1652cb9cc5aa6f0000000000000000000000006069830152607d8201527f96e8ac4277198ff8b6f785478aa9a39f403cb768dd02cbee326c3e7da348845f609d820152919350915060bd016131b6565b60008060006132f085856138ea565b5090506000808773ffffffffffffffffffffffffffffffffffffffff16630902f1ac6040518163ffffffff1660e01b815260040160606040518083038186803b15801561333c57600080fd5b505afa158015613350573d6000803e3d6000fd5b505050506040513d601f19601f820116820180604052508101906133749190613ced565b506dffffffffffffffffffffffffffff1691506dffffffffffffffffffffffffffff1691508273ffffffffffffffffffffffffffffffffffffffff168773ffffffffffffffffffffffffffffffffffffffff16146133d35780826133d6565b81815b90999098509650505050505050565b6000808411613450576040517f08c379a000000000000000000000000000000000000000000000000000000000815260206004820152601960248201527f494e53554646494349454e545f494e5055545f414d4f554e54000000000000006044820152606401610654565b6000831180156134605750600082115b6134ec576040517f08c379a000000000000000000000000000000000000000000000000000000000815260206004820152602860248201527f556e697377617056324c6962726172793a20494e53554646494349454e545f4c60448201527f49515549444954590000000000000000000000000000000000000000000000006064820152608401610654565b60006134fa856103e5614055565b905060006135088483614055565b9050600082613519876103e8614055565b613523919061401d565b905061352f8183614035565b979650505050505050565b60005b835181101561291d5760008084838151811061356957634e487b7160e01b600052603260045260246000fd5b60200260200101518584600161357f919061401d565b8151811061359d57634e487b7160e01b600052603260045260246000fd5b60200260200101519150915060006135b583836138ea565b5090506000886135c686600161401d565b815181106135e457634e487b7160e01b600052603260045260246000fd5b602002602001015190506000808373ffffffffffffffffffffffffffffffffffffffff168673ffffffffffffffffffffffffffffffffffffffff161461362c57826000613630565b6000835b91509150600060018b516136449190614092565b88106136505788613683565b8a61365c89600161401d565b8151811061367a57634e487b7160e01b600052603260045260246000fd5b60200260200101515b905060008b89815181106136a757634e487b7160e01b600052603260045260246000fd5b602002602001015190508073ffffffffffffffffffffffffffffffffffffffff1663022c0d9f858585600067ffffffffffffffff8111156136f857634e487b7160e01b600052604160045260246000fd5b6040519080825280601f01601f191660200182016040528015613722576020820181803683370190505b506040518563ffffffff1660e01b81526004016137429493929190613f0d565b600060405180830381600087803b15801561375c57600080fd5b505af1158015613770573d6000803e3d6000fd5b5050505050505050505050508080613787906140de565b91505061353d565b60008084116137fa576040517f08c379a000000000000000000000000000000000000000000000000000000000815260206004820152601a60248201527f494e53554646494349454e545f4f55545055545f414d4f554e540000000000006044820152606401610654565b60008311801561380a5750600082115b613896576040517f08c379a000000000000000000000000000000000000000000000000000000000815260206004820152602860248201527f556e697377617056324c6962726172793a20494e53554646494349454e545f4c60448201527f49515549444954590000000000000000000000000000000000000000000000006064820152608401610654565b60006138a28585614055565b6138ae906103e8614055565b905060006103e56138bf8786614092565b6138c99190614092565b90506138d58183614035565b6138e090600161401d565b9695505050505050565b6000808273ffffffffffffffffffffffffffffffffffffffff168473ffffffffffffffffffffffffffffffffffffffff161415613983576040517f08c379a000000000000000000000000000000000000000000000000000000000815260206004820152601260248201527f4964656e746963616c20616464726573732100000000000000000000000000006044820152606401610654565b8273ffffffffffffffffffffffffffffffffffffffff168473ffffffffffffffffffffffffffffffffffffffff16106139bd5782846139c0565b83835b909250905073ffffffffffffffffffffffffffffffffffffffff8216613a42576040517f08c379a000000000000000000000000000000000000000000000000000000000815260206004820152600d60248201527f5a65726f206164647265737321000000000000000000000000000000000000006044820152606401610654565b9250929050565b60008083601f840112613a5a578182fd5b50813567ffffffffffffffff811115613a71578182fd5b6020830191508360208260051b8501011115613a4257600080fd5b600082601f830112613a9c578081fd5b81516020613ab1613aac83613ff9565b613faa565b80838252828201915082860187848660051b8901011115613ad0578586fd5b855b85811015613aee57815184529284019290840190600101613ad2565b5090979650505050505050565b80516dffffffffffffffffffffffffffff81168114612bc757600080fd5b600060208284031215613b2a578081fd5b8135613b3581614143565b9392505050565b600060208284031215613b4d578081fd5b8151613b3581614143565b60008060408385031215613b6a578081fd5b8235613b7581614143565b946020939093013593505050565b60008060008060808587031215613b98578182fd5b8435613ba381614143565b9350602085013592506040850135613bba81614143565b9396929550929360600135925050565b60008060408385031215613bdc578182fd5b8235613be781614143565b9150602083013560ff81168114613bfc578182fd5b809150509250929050565b60008060408385031215613c19578182fd5b825167ffffffffffffffff80821115613c30578384fd5b818501915085601f830112613c43578384fd5b81516020613c53613aac83613ff9565b8083825282820191508286018a848660051b8901011115613c72578889fd5b8896505b84871015613c9d578051613c8981614143565b835260019690960195918301918301613c76565b5091880151919650909350505080821115613cb6578283fd5b50613cc385828601613a8c565b9150509250929050565b600060208284031215613cde578081fd5b81518015158114613b35578182fd5b600080600060608486031215613d01578283fd5b613d0a84613afb565b9250613d1860208501613afb565b9150604084015163ffffffff81168114613d30578182fd5b809150509250925092565b600060208284031215613d4c578081fd5b5035919050565b600060208284031215613d64578081fd5b5051919050565b60008060408385031215613d7d578182fd5b823591506020830135613bfc81614143565b60008060008060608587031215613da4578182fd5b8435935060208501359250604085013567ffffffffffffffff811115613dc8578283fd5b613dd487828801613a49565b95989497509550505050565b60008060408385031215613df2578182fd5b505080516020909101519092909150565b600080600080600060808688031215613e1a578283fd5b853594506020860135935060408601359250606086013567ffffffffffffffff811115613e45578182fd5b613e5188828901613a49565b969995985093965092949392505050565b60008060008060008060a08789031215613e7a578384fd5b863595506020870135945060408701359350606087013567ffffffffffffffff811115613ea5578182fd5b613eb189828a01613a49565b979a9699509497949695608090950135949350505050565b6020808252825182820181905260009190848201906040850190845b81811015613f0157835183529284019291840191600101613ee5565b50909695505050505050565b60008582526020858184015273ffffffffffffffffffffffffffffffffffffffff85166040840152608060608401528351806080850152825b81811015613f625785810183015185820160a001528201613f46565b81811115613f73578360a083870101525b50601f017fffffffffffffffffffffffffffffffffffffffffffffffffffffffffffffffe0169290920160a0019695505050505050565b604051601f82017fffffffffffffffffffffffffffffffffffffffffffffffffffffffffffffffe016810167ffffffffffffffff81118282101715613ff157613ff161412d565b604052919050565b600067ffffffffffffffff8211156140135761401361412d565b5060051b60200190565b6000821982111561403057614030614117565b500190565b60008261405057634e487b7160e01b81526012600452602481fd5b500490565b6000817fffffffffffffffffffffffffffffffffffffffffffffffffffffffffffffffff048311821515161561408d5761408d614117565b500290565b6000828210156140a4576140a4614117565b500390565b6000816140b8576140b8614117565b507fffffffffffffffffffffffffffffffffffffffffffffffffffffffffffffffff0190565b60007fffffffffffffffffffffffffffffffffffffffffffffffffffffffffffffffff82141561411057614110614117565b5060010190565b634e487b7160e01b600052601160045260246000fd5b634e487b7160e01b600052604160045260246000fd5b73ffffffffffffffffffffffffffffffffffffffff8116811461416557600080fd5b5056fea2646970667358221220586bc4ef1e2068b49ef3088b20adca18b1d8d5920c86c9ced67ffad9085806e664736f6c63430008030033",
  "devdoc": {
    "kind": "dev",
    "methods": {
      "crossOvercollateralizedBorrow(address,uint256,address,uint256)": {
        "details": "caution: the account still has to have a positive balaance at the end of the withdraw. So an underwater account may not be able to withdraw"
      }
    },
    "title": "Top level transaction controller",
    "version": 1
  },
  "userdoc": {
    "kind": "user",
    "methods": {
      "authorizedSwapExactT4T(uint256,uint256,bytes32,address[])": {
        "notice": "make swaps on AMM using protocol funds, only for authorized contracts"
      },
      "crossBorrow(address,uint256)": {
        "notice": "borrow into cross margin trading account"
      },
      "crossCloseAccount()": {
        "notice": "close an account that is no longer borrowing and return gains"
      },
      "crossDeposit(address,uint256)": {
        "notice": "traders call this to deposit funds on cross margin"
      },
      "crossDepositETH()": {
        "notice": "deposit wrapped ehtereum into cross margin account"
      },
      "crossOvercollateralizedBorrow(address,uint256,address,uint256)": {
        "notice": "convenience function to perform overcollateralized borrowing against a cross margin account."
      },
      "crossWithdraw(address,uint256)": {
        "notice": "withdraw deposits/earnings from cross margin account"
      },
      "crossWithdrawETH(uint256)": {
        "notice": "withdraw ethereum from cross margin account"
      },
      "setIncentiveTranche(address,uint8)": {
        "notice": "Set incentive tranche"
      },
      "swapExactTokensForTokens(uint256,uint256,bytes32,address[],uint256)": {
        "notice": "entry point for swapping tokens held in cross margin account"
      },
      "swapTokensForExactTokens(uint256,uint256,bytes32,address[],uint256)": {
        "notice": "entry point for swapping tokens held in cross margin account"
      }
    },
    "version": 1
  },
  "storageLayout": {
    "storage": [
      {
        "astId": 11682,
        "contract": "contracts/MarginRouter.sol:MarginRouter",
        "label": "mainCharacterCache",
        "offset": 0,
        "slot": "0",
        "type": "t_mapping(t_uint256,t_address)"
      },
      {
        "astId": 11688,
        "contract": "contracts/MarginRouter.sol:MarginRouter",
        "label": "roleCache",
        "offset": 0,
        "slot": "1",
        "type": "t_mapping(t_address,t_mapping(t_uint256,t_bool))"
      },
      {
        "astId": 7477,
        "contract": "contracts/MarginRouter.sol:MarginRouter",
        "label": "incentiveTranches",
        "offset": 0,
        "slot": "2",
        "type": "t_mapping(t_address,t_uint256)"
      }
    ],
    "types": {
      "t_address": {
        "encoding": "inplace",
        "label": "address",
        "numberOfBytes": "20"
      },
      "t_bool": {
        "encoding": "inplace",
        "label": "bool",
        "numberOfBytes": "1"
      },
      "t_mapping(t_address,t_mapping(t_uint256,t_bool))": {
        "encoding": "mapping",
        "key": "t_address",
        "label": "mapping(address => mapping(uint256 => bool))",
        "numberOfBytes": "32",
        "value": "t_mapping(t_uint256,t_bool)"
      },
      "t_mapping(t_address,t_uint256)": {
        "encoding": "mapping",
        "key": "t_address",
        "label": "mapping(address => uint256)",
        "numberOfBytes": "32",
        "value": "t_uint256"
      },
      "t_mapping(t_uint256,t_address)": {
        "encoding": "mapping",
        "key": "t_uint256",
        "label": "mapping(uint256 => address)",
        "numberOfBytes": "32",
        "value": "t_address"
      },
      "t_mapping(t_uint256,t_bool)": {
        "encoding": "mapping",
        "key": "t_uint256",
        "label": "mapping(uint256 => bool)",
        "numberOfBytes": "32",
        "value": "t_bool"
      },
      "t_uint256": {
        "encoding": "inplace",
        "label": "uint256",
        "numberOfBytes": "32"
      }
    }
  }
}