{
  "address": "0x690c6ff4C5DdBAeA4282b109dC145cbA19d13206",
  "abi": [
    {
      "inputs": [
        {
          "internalType": "address",
          "name": "_WETH",
          "type": "address"
        },
        {
          "internalType": "address",
          "name": "_roles",
          "type": "address"
        }
      ],
      "stateMutability": "nonpayable",
      "type": "constructor"
    },
    {
      "anonymous": false,
      "inputs": [
        {
          "indexed": false,
          "internalType": "address",
          "name": "trader",
          "type": "address"
        },
        {
          "indexed": false,
          "internalType": "address",
          "name": "borrowToken",
          "type": "address"
        },
        {
          "indexed": false,
          "internalType": "uint256",
          "name": "borrowAmount",
          "type": "uint256"
        }
      ],
      "name": "CrossBorrow",
      "type": "event"
    },
    {
      "anonymous": false,
      "inputs": [
        {
          "indexed": false,
          "internalType": "address",
          "name": "trader",
          "type": "address"
        },
        {
          "indexed": false,
          "internalType": "address",
          "name": "depositToken",
          "type": "address"
        },
        {
          "indexed": false,
          "internalType": "uint256",
          "name": "depositAmount",
          "type": "uint256"
        }
      ],
      "name": "CrossDeposit",
      "type": "event"
    },
    {
      "anonymous": false,
      "inputs": [
        {
          "indexed": false,
          "internalType": "address",
          "name": "trader",
          "type": "address"
        },
        {
          "indexed": false,
          "internalType": "address",
          "name": "inToken",
          "type": "address"
        },
        {
          "indexed": false,
          "internalType": "uint256",
          "name": "inTokenAmount",
          "type": "uint256"
        },
        {
          "indexed": false,
          "internalType": "uint256",
          "name": "inTokenBorrow",
          "type": "uint256"
        },
        {
          "indexed": false,
          "internalType": "address",
          "name": "outToken",
          "type": "address"
        },
        {
          "indexed": false,
          "internalType": "uint256",
          "name": "outTokenAmount",
          "type": "uint256"
        },
        {
          "indexed": false,
          "internalType": "uint256",
          "name": "outTokenExtinguish",
          "type": "uint256"
        }
      ],
      "name": "CrossTrade",
      "type": "event"
    },
    {
      "anonymous": false,
      "inputs": [
        {
          "indexed": false,
          "internalType": "address",
          "name": "trader",
          "type": "address"
        },
        {
          "indexed": false,
          "internalType": "address",
          "name": "withdrawToken",
          "type": "address"
        },
        {
          "indexed": false,
          "internalType": "uint256",
          "name": "withdrawAmount",
          "type": "uint256"
        }
      ],
      "name": "CrossWithdraw",
      "type": "event"
    },
    {
      "anonymous": false,
      "inputs": [
        {
          "indexed": true,
          "internalType": "address",
          "name": "previousOwner",
          "type": "address"
        },
        {
          "indexed": true,
          "internalType": "address",
          "name": "newOwner",
          "type": "address"
        }
      ],
      "name": "OwnershipTransferred",
      "type": "event"
    },
    {
      "inputs": [],
      "name": "ADMIN",
      "outputs": [
        {
          "internalType": "uint16",
          "name": "",
          "type": "uint16"
        }
      ],
      "stateMutability": "view",
      "type": "function"
    },
    {
      "inputs": [],
      "name": "AUTHORIZED_FUND_TRADER",
      "outputs": [
        {
          "internalType": "uint16",
          "name": "",
          "type": "uint16"
        }
      ],
      "stateMutability": "view",
      "type": "function"
    },
    {
      "inputs": [],
      "name": "BORROWER",
      "outputs": [
        {
          "internalType": "uint16",
          "name": "",
          "type": "uint16"
        }
      ],
      "stateMutability": "view",
      "type": "function"
    },
    {
      "inputs": [],
      "name": "FEE_CONTROLLER",
      "outputs": [
        {
          "internalType": "uint16",
          "name": "",
          "type": "uint16"
        }
      ],
      "stateMutability": "view",
      "type": "function"
    },
    {
      "inputs": [],
      "name": "FEE_SOURCE",
      "outputs": [
        {
          "internalType": "uint16",
          "name": "",
          "type": "uint16"
        }
      ],
      "stateMutability": "view",
      "type": "function"
    },
    {
      "inputs": [],
      "name": "FUND",
      "outputs": [
        {
          "internalType": "uint16",
          "name": "",
          "type": "uint16"
        }
      ],
      "stateMutability": "view",
      "type": "function"
    },
    {
      "inputs": [],
      "name": "INCENTIVE_DISTRIBUTION",
      "outputs": [
        {
          "internalType": "uint16",
          "name": "",
          "type": "uint16"
        }
      ],
      "stateMutability": "view",
      "type": "function"
    },
    {
      "inputs": [],
      "name": "INCENTIVE_REPORTER",
      "outputs": [
        {
          "internalType": "uint16",
          "name": "",
          "type": "uint16"
        }
      ],
      "stateMutability": "view",
      "type": "function"
    },
    {
      "inputs": [],
      "name": "LENDING",
      "outputs": [
        {
          "internalType": "uint16",
          "name": "",
          "type": "uint16"
        }
      ],
      "stateMutability": "view",
      "type": "function"
    },
    {
      "inputs": [],
      "name": "LIQUIDATOR",
      "outputs": [
        {
          "internalType": "uint16",
          "name": "",
          "type": "uint16"
        }
      ],
      "stateMutability": "view",
      "type": "function"
    },
    {
      "inputs": [],
      "name": "MARGIN_CALLER",
      "outputs": [
        {
          "internalType": "uint16",
          "name": "",
          "type": "uint16"
        }
      ],
      "stateMutability": "view",
      "type": "function"
    },
    {
      "inputs": [],
      "name": "MARGIN_TRADER",
      "outputs": [
        {
          "internalType": "uint16",
          "name": "",
          "type": "uint16"
        }
      ],
      "stateMutability": "view",
      "type": "function"
    },
    {
      "inputs": [],
      "name": "MARGIN_TRADING",
      "outputs": [
        {
          "internalType": "uint16",
          "name": "",
          "type": "uint16"
        }
      ],
      "stateMutability": "view",
      "type": "function"
    },
    {
      "inputs": [],
      "name": "PRICE_CONTROLLER",
      "outputs": [
        {
          "internalType": "uint16",
          "name": "",
          "type": "uint16"
        }
      ],
      "stateMutability": "view",
      "type": "function"
    },
    {
      "inputs": [],
      "name": "ROUTER",
      "outputs": [
        {
          "internalType": "uint16",
          "name": "",
          "type": "uint16"
        }
      ],
      "stateMutability": "view",
      "type": "function"
    },
    {
      "inputs": [],
      "name": "STAKE_PENALIZER",
      "outputs": [
        {
          "internalType": "uint16",
          "name": "",
          "type": "uint16"
        }
      ],
      "stateMutability": "view",
      "type": "function"
    },
    {
      "inputs": [],
      "name": "SUSHI",
      "outputs": [
        {
          "internalType": "address",
          "name": "",
          "type": "address"
        }
      ],
      "stateMutability": "view",
      "type": "function"
    },
    {
      "inputs": [],
      "name": "TOKEN_ACTIVATOR",
      "outputs": [
        {
          "internalType": "uint16",
          "name": "",
          "type": "uint16"
        }
      ],
      "stateMutability": "view",
      "type": "function"
    },
    {
      "inputs": [],
      "name": "UNI",
      "outputs": [
        {
          "internalType": "address",
          "name": "",
          "type": "address"
        }
      ],
      "stateMutability": "view",
      "type": "function"
    },
    {
      "inputs": [],
      "name": "WETH",
      "outputs": [
        {
          "internalType": "address",
          "name": "",
          "type": "address"
        }
      ],
      "stateMutability": "view",
      "type": "function"
    },
    {
      "inputs": [],
      "name": "WITHDRAWER",
      "outputs": [
        {
          "internalType": "uint16",
          "name": "",
          "type": "uint16"
        }
      ],
      "stateMutability": "view",
      "type": "function"
    },
    {
      "inputs": [
        {
          "internalType": "address",
          "name": "ammFactory",
          "type": "address"
        }
      ],
      "name": "authorizeAMM",
      "outputs": [],
      "stateMutability": "nonpayable",
      "type": "function"
    },
    {
      "inputs": [
        {
          "internalType": "address",
          "name": "factory",
          "type": "address"
        },
        {
          "internalType": "uint256",
          "name": "amountIn",
          "type": "uint256"
        },
        {
          "internalType": "uint256",
          "name": "amountOutMin",
          "type": "uint256"
        },
        {
          "internalType": "address[]",
          "name": "path",
          "type": "address[]"
        }
      ],
      "name": "authorizedSwapExactT4T",
      "outputs": [
        {
          "internalType": "uint256[]",
          "name": "",
          "type": "uint256[]"
        }
      ],
      "stateMutability": "nonpayable",
      "type": "function"
    },
    {
      "inputs": [
        {
          "internalType": "address",
          "name": "factory",
          "type": "address"
        },
        {
          "internalType": "uint256",
          "name": "amountOut",
          "type": "uint256"
        },
        {
          "internalType": "uint256",
          "name": "amountInMax",
          "type": "uint256"
        },
        {
          "internalType": "address[]",
          "name": "path",
          "type": "address[]"
        }
      ],
      "name": "authorizedSwapT4ExactT",
      "outputs": [
        {
          "internalType": "uint256[]",
          "name": "",
          "type": "uint256[]"
        }
      ],
      "stateMutability": "nonpayable",
      "type": "function"
    },
    {
      "inputs": [
        {
          "internalType": "address",
          "name": "",
          "type": "address"
        },
        {
          "internalType": "address",
          "name": "",
          "type": "address"
        }
      ],
      "name": "claimIds",
      "outputs": [
        {
          "internalType": "uint256",
          "name": "",
          "type": "uint256"
        }
      ],
      "stateMutability": "view",
      "type": "function"
    },
    {
      "inputs": [
        {
          "internalType": "address",
          "name": "borrowToken",
          "type": "address"
        },
        {
          "internalType": "uint256",
          "name": "borrowAmount",
          "type": "uint256"
        }
      ],
      "name": "crossBorrow",
      "outputs": [],
      "stateMutability": "nonpayable",
      "type": "function"
    },
    {
      "inputs": [
        {
          "internalType": "address",
          "name": "depositToken",
          "type": "address"
        },
        {
          "internalType": "uint256",
          "name": "depositAmount",
          "type": "uint256"
        }
      ],
      "name": "crossDeposit",
      "outputs": [],
      "stateMutability": "nonpayable",
      "type": "function"
    },
    {
      "inputs": [],
      "name": "crossDepositETH",
      "outputs": [],
      "stateMutability": "payable",
      "type": "function"
    },
    {
      "inputs": [
        {
          "internalType": "address",
          "name": "ammFactory",
          "type": "address"
        },
        {
          "internalType": "uint256",
          "name": "amountIn",
          "type": "uint256"
        },
        {
          "internalType": "uint256",
          "name": "amountOutMin",
          "type": "uint256"
        },
        {
          "internalType": "address[]",
          "name": "path",
          "type": "address[]"
        },
        {
          "internalType": "uint256",
          "name": "deadline",
          "type": "uint256"
        }
      ],
      "name": "crossSwapExactTokensForTokens",
      "outputs": [
        {
          "internalType": "uint256[]",
          "name": "amounts",
          "type": "uint256[]"
        }
      ],
      "stateMutability": "nonpayable",
      "type": "function"
    },
    {
      "inputs": [
        {
          "internalType": "address",
          "name": "ammFactory",
          "type": "address"
        },
        {
          "internalType": "uint256",
          "name": "amountOut",
          "type": "uint256"
        },
        {
          "internalType": "uint256",
          "name": "amountInMax",
          "type": "uint256"
        },
        {
          "internalType": "address[]",
          "name": "path",
          "type": "address[]"
        },
        {
          "internalType": "uint256",
          "name": "deadline",
          "type": "uint256"
        }
      ],
      "name": "crossSwapTokensForExactTokens",
      "outputs": [
        {
          "internalType": "uint256[]",
          "name": "amounts",
          "type": "uint256[]"
        }
      ],
      "stateMutability": "nonpayable",
      "type": "function"
    },
    {
      "inputs": [
        {
          "internalType": "address",
          "name": "withdrawToken",
          "type": "address"
        },
        {
          "internalType": "uint256",
          "name": "withdrawAmount",
          "type": "uint256"
        }
      ],
      "name": "crossWithdraw",
      "outputs": [],
      "stateMutability": "nonpayable",
      "type": "function"
    },
    {
      "inputs": [
        {
          "internalType": "uint256",
          "name": "withdrawAmount",
          "type": "uint256"
        }
      ],
      "name": "crossWithdrawETH",
      "outputs": [],
      "stateMutability": "nonpayable",
      "type": "function"
    },
    {
      "inputs": [
        {
          "internalType": "address",
          "name": "",
          "type": "address"
        }
      ],
      "name": "factories",
      "outputs": [
        {
          "internalType": "bool",
          "name": "",
          "type": "bool"
        }
      ],
      "stateMutability": "view",
      "type": "function"
    },
    {
      "inputs": [
        {
          "internalType": "address",
          "name": "factory",
          "type": "address"
        },
        {
          "internalType": "uint256",
          "name": "outAmount",
          "type": "uint256"
        },
        {
          "internalType": "address[]",
          "name": "path",
          "type": "address[]"
        }
      ],
      "name": "getAmountsIn",
      "outputs": [
        {
          "internalType": "uint256[]",
          "name": "",
          "type": "uint256[]"
        }
      ],
      "stateMutability": "view",
      "type": "function"
    },
    {
      "inputs": [
        {
          "internalType": "address",
          "name": "factory",
          "type": "address"
        },
        {
          "internalType": "uint256",
          "name": "inAmount",
          "type": "uint256"
        },
        {
          "internalType": "address[]",
          "name": "path",
          "type": "address[]"
        }
      ],
      "name": "getAmountsOut",
      "outputs": [
        {
          "internalType": "uint256[]",
          "name": "",
          "type": "uint256[]"
        }
      ],
      "stateMutability": "view",
      "type": "function"
    },
    {
      "inputs": [
        {
          "internalType": "address",
          "name": "",
          "type": "address"
        }
      ],
      "name": "incentiveTranches",
      "outputs": [
        {
          "internalType": "uint8",
          "name": "",
          "type": "uint8"
        }
      ],
      "stateMutability": "view",
      "type": "function"
    },
    {
      "inputs": [
        {
          "internalType": "uint16",
          "name": "",
          "type": "uint16"
        }
      ],
      "name": "mainCharacterCache",
      "outputs": [
        {
          "internalType": "address",
          "name": "",
          "type": "address"
        }
      ],
      "stateMutability": "view",
      "type": "function"
    },
    {
      "inputs": [],
      "name": "owner",
      "outputs": [
        {
          "internalType": "address",
          "name": "",
          "type": "address"
        }
      ],
      "stateMutability": "view",
      "type": "function"
    },
    {
      "inputs": [],
      "name": "renounceOwnership",
      "outputs": [],
      "stateMutability": "nonpayable",
      "type": "function"
    },
    {
      "inputs": [
        {
          "internalType": "address",
          "name": "",
          "type": "address"
        },
        {
          "internalType": "uint16",
          "name": "",
          "type": "uint16"
        }
      ],
      "name": "roleCache",
      "outputs": [
        {
          "internalType": "bool",
          "name": "",
          "type": "bool"
        }
      ],
      "stateMutability": "view",
      "type": "function"
    },
    {
      "inputs": [],
      "name": "roles",
      "outputs": [
        {
          "internalType": "contract Roles",
          "name": "",
          "type": "address"
        }
      ],
      "stateMutability": "view",
      "type": "function"
    },
    {
      "inputs": [
        {
          "internalType": "address",
          "name": "token",
          "type": "address"
        },
        {
          "internalType": "uint8",
          "name": "tranche",
          "type": "uint8"
        }
      ],
      "name": "setIncentiveTranche",
      "outputs": [],
      "stateMutability": "nonpayable",
      "type": "function"
    },
    {
      "inputs": [
        {
          "internalType": "address",
          "name": "newOwner",
          "type": "address"
        }
      ],
      "name": "transferOwnership",
      "outputs": [],
      "stateMutability": "nonpayable",
      "type": "function"
    },
    {
      "inputs": [
        {
          "internalType": "uint16",
          "name": "role",
          "type": "uint16"
        }
      ],
      "name": "updateMainCharacterCache",
      "outputs": [],
      "stateMutability": "nonpayable",
      "type": "function"
    },
    {
      "inputs": [
        {
          "internalType": "uint16",
          "name": "role",
          "type": "uint16"
        },
        {
          "internalType": "address",
          "name": "contr",
          "type": "address"
        }
      ],
      "name": "updateRoleCache",
      "outputs": [],
      "stateMutability": "nonpayable",
      "type": "function"
    }
  ],
  "transactionHash": "0x01c62fe0c606580c85a7bbe50544d2a0299aaa23b9ccba97f158f31d915cd012",
  "args": [
    "0xC02aaA39b223FE8D0A0e5C4F27eAD9083C756Cc2",
    "0xa94DDbb3Ba629E637F63F54Bae6724c271ccA48f"
  ],
  "solcInputHash": "08be857727729141da45d726c3ea7073",
  "bytecode": "0x60806040523480156200001157600080fd5b506040516200426d3803806200426d833981016040819052620000349162000167565b600080546001600160a01b0319166001600160a01b0383161781556200005962000146565b600580546001600160a01b0319166001600160a01b038316908117909155604051919250906000907f8be0079c531659141344cd1fd0a4f28419497f9722a3daafe3b4186f6b6457e0908290a3505060066020527f9f7a73462e8c6b52cef768c4e10a25ee632fb9ea4d911b2e32bddd9752e851978054600160ff19918216811790925573c0aee478e3658e2610c5f7a4a2e1777ce9e4f2ac6000527f5b9e2e321d057d65c77c667884cc596be3e908c8def941b761948238d0ea5fda80549091169091179055600780546001600160a01b0319166001600160a01b03929092169190911790556200019e565b3390565b80516001600160a01b03811681146200016257600080fd5b919050565b600080604083850312156200017a578182fd5b62000185836200014a565b915062000195602084016200014a565b90509250929050565b6140bf80620001ae6000396000f3fe6080604052600436106102f25760003560e01c80636fdcb2b91161018f578063ab560e10116100e1578063cacf8d451161008a578063eedb97c711610064578063eedb97c714610770578063f2fde38b14610790578063fab52689146107b0576102f2565b8063cacf8d4514610726578063d5d7ed7f1461073b578063e3e0626b14610750576102f2565b8063bb7b9c76116100bb578063bb7b9c76146106c4578063c34316c3146106e4578063c76139d014610711576102f2565b8063ab560e101461067a578063ad5c46481461068f578063b4481652146106a4576102f2565b80638824cbba11610143578063a0098d691161011d578063a0098d691461063b578063a94c7c3414610650578063a9cc053614610665576102f2565b80638824cbba146105f15780638da5cb5b1461061e57806394427b2014610633576102f2565b80637fa82de4116101745780637fa82de4146105a757806381ca6600146105c757806383a49c7c146105dc576102f2565b80636fdcb2b914610572578063715018a614610592576102f2565b806332fe7b261161024857806355696b1a116101fc5780635c275a39116101d65780635c275a3914610528578063669419841461053d5780636cd5cd6014610552576102f2565b806355696b1a146104bb5780635821eae5146104db5780635adbeb15146104fb576102f2565b806346b887961161022d57806346b887961461047c57806348fb27b814610491578063541bcb76146104a6576102f2565b806332fe7b2614610445578063392f5f641461045a576102f2565b80631bc5d81d116102aa5780632864f401116102845780632864f401146103fb5780632a0acc6a1461041b5780632fe94def14610430576102f2565b80631bc5d81d146103a65780631dce3baa146103bb57806320e8d819146103db576102f2565b80631306d902116102db5780631306d9021461034f578063192128b2146103715780631b66950714610391576102f2565b8063065d570f146102f75780630d873d5e14610322575b600080fd5b34801561030357600080fd5b5061030c6107d0565b6040516103199190613dec565b60405180910390f35b34801561032e57600080fd5b5061034261033d366004613492565b6107d5565b6040516103199190613856565b34801561035b57600080fd5b5061036f61036a36600461340d565b610838565b005b34801561037d57600080fd5b5061034261038c366004613438565b610a63565b34801561039d57600080fd5b5061030c610aa3565b3480156103b257600080fd5b5061030c610aa8565b3480156103c757600080fd5b5061036f6103d636600461363f565b610aad565b3480156103e757600080fd5b5061036f6103f6366004613624565b610bba565b34801561040757600080fd5b5061036f61041636600461356a565b610ccb565b34801561042757600080fd5b5061030c610d62565b34801561043c57600080fd5b5061030c610d67565b34801561045157600080fd5b5061030c610d6c565b34801561046657600080fd5b5061046f610d71565b604051610319919061374d565b34801561048857600080fd5b5061030c610d8d565b34801561049d57600080fd5b5061030c610d92565b3480156104b257600080fd5b5061046f610d97565b3480156104c757600080fd5b506103426104d63660046134fa565b610daf565b3480156104e757600080fd5b506103426104f63660046134fa565b610ffe565b34801561050757600080fd5b5061051b6105163660046133a1565b61123e565b6040516103199190613e25565b34801561053457600080fd5b5061030c61125b565b34801561054957600080fd5b5061030c611260565b34801561055e57600080fd5b5061036f61056d36600461360a565b611265565b34801561057e57600080fd5b5061034261058d366004613492565b611364565b34801561059e57600080fd5b5061036f6113b2565b3480156105b357600080fd5b5061036f6105c2366004613362565b611494565b3480156105d357600080fd5b5061030c611556565b3480156105e857600080fd5b5061030c61155b565b3480156105fd57600080fd5b5061061161060c366004613362565b611560565b6040516103199190613ecb565b34801561062a57600080fd5b5061046f611575565b61036f611591565b34801561064757600080fd5b5061030c6117c8565b34801561065c57600080fd5b5061030c6117cd565b34801561067157600080fd5b5061030c6117d2565b34801561068657600080fd5b5061046f6117d7565b34801561069b57600080fd5b5061046f6117ef565b3480156106b057600080fd5b5061046f6106bf36600461360a565b61180b565b3480156106d057600080fd5b506103426106df366004613438565b611833565b3480156106f057600080fd5b506107046106ff3660046133d9565b611873565b604051610319919061389a565b34801561071d57600080fd5b5061030c611893565b34801561073257600080fd5b5061030c611898565b34801561074757600080fd5b5061030c61189d565b34801561075c57600080fd5b5061036f61076b36600461340d565b6118a2565b34801561077c57600080fd5b5061036f61078b36600461340d565b611a23565b34801561079c57600080fd5b5061036f6107ab366004613362565b611b4b565b3480156107bc57600080fd5b506107046107cb366004613362565b611c99565b600381565b60606107e033611cae565b61081f576040517f08c379a000000000000000000000000000000000000000000000000000000000815260040161081690613902565b60405180910390fd5b61082c8686868686611ce9565b90505b95945050505050565b610840611ffa565b73ffffffffffffffffffffffffffffffffffffffff1663b3db428b3384846040518463ffffffff1660e01b815260040161087c939291906137af565b602060405180830381600087803b15801561089657600080fd5b505af11580156108aa573d6000803e3d6000fd5b505050506040513d601f19601f820116820180604052508101906108ce919061359c565b610904576040517f08c379a000000000000000000000000000000000000000000000000000000000815260040161081690613c30565b600061090e61203f565b73ffffffffffffffffffffffffffffffffffffffff166352a664d93385856040518463ffffffff1660e01b815260040161094a939291906137af565b602060405180830381600087803b15801561096457600080fd5b505af1158015610978573d6000803e3d6000fd5b505050506040513d601f19601f8201168201806040525081019061099c9190613657565b90508015610a23576109ac612084565b73ffffffffffffffffffffffffffffffffffffffff16632a6a897b84836040518363ffffffff1660e01b81526004016109e6929190613830565b600060405180830381600087803b158015610a0057600080fd5b505af1158015610a14573d6000803e3d6000fd5b50505050610a233384836120c9565b7f2f7971a38b280a622029ac616d8d562df278b4b5839a7b124c33a1715ae09299338484604051610a56939291906137af565b60405180910390a1505050565b606061082f858585858080602002602001604051908101604052809392919081815260200183836020028082843760009201919091525061218792505050565b600a81565b600881565b610ab561203f565b6007546040517fd0eb665300000000000000000000000000000000000000000000000000000000815273ffffffffffffffffffffffffffffffffffffffff9283169263d0eb665392610b119233929091169086906004016137af565b600060405180830381600087803b158015610b2b57600080fd5b505af1158015610b3f573d6000803e3d6000fd5b50505050610b4b611ffa565b73ffffffffffffffffffffffffffffffffffffffff16634782f77933836040518363ffffffff1660e01b8152600401610b85929190613830565b600060405180830381600087803b158015610b9f57600080fd5b505af1158015610bb3573d6000803e3d6000fd5b5050505050565b6000546040517fd87fefd200000000000000000000000000000000000000000000000000000000815273ffffffffffffffffffffffffffffffffffffffff9091169063d87fefd290610c129085908590600401613dfb565b60206040518083038186803b158015610c2a57600080fd5b505afa158015610c3e573d6000803e3d6000fd5b505050506040513d601f19601f82011682018060405250810190610c62919061359c565b73ffffffffffffffffffffffffffffffffffffffff909116600090815260026020908152604080832061ffff90951683529390529190912080549115157fffffffffffffffffffffffffffffffffffffffffffffffffffffffffffffff00909216919091179055565b610cd4336123f1565b610d0a576040517f08c379a0000000000000000000000000000000000000000000000000000000008152600401610816906138a5565b73ffffffffffffffffffffffffffffffffffffffff91909116600090815260036020526040902080547fffffffffffffffffffffffffffffffffffffffffffffffffffffffffffffff001660ff909216919091179055565b606b81565b606981565b606781565b60005473ffffffffffffffffffffffffffffffffffffffff1681565b600681565b606681565b735c69bee701ef814a2b6a3edd4b1652cb9cc5aa6f81565b60608142811015610dec576040517f08c379a000000000000000000000000000000000000000000000000000000000815260040161081690613bf9565b6000610df6612428565b73ffffffffffffffffffffffffffffffffffffffff16633f0e9edf87876000818110610e4b577f4e487b7100000000000000000000000000000000000000000000000000000000600052603260045260246000fd5b9050602002016020810190610e609190613362565b8a6040518363ffffffff1660e01b8152600401610e7e929190613830565b602060405180830381600087803b158015610e9857600080fd5b505af1158015610eac573d6000803e3d6000fd5b505050506040513d601f19601f82011682018060405250810190610ed09190613657565b9050610edb8961246d565b610ef189610ee9838b613fb3565b898989611ce9565b9250610ff23387876000818110610f31577f4e487b7100000000000000000000000000000000000000000000000000000000600052603260045260246000fd5b9050602002016020810190610f469190613362565b8888610f53600182613fb3565b818110610f89577f4e487b7100000000000000000000000000000000000000000000000000000000600052603260045260246000fd5b9050602002016020810190610f9e9190613362565b8b8760018951610fae9190613fb3565b81518110610fe5577f4e487b7100000000000000000000000000000000000000000000000000000000600052603260045260246000fd5b6020026020010151612537565b50509695505050505050565b6060814281101561103b576040517f08c379a000000000000000000000000000000000000000000000000000000000815260040161081690613bf9565b6000611045612428565b73ffffffffffffffffffffffffffffffffffffffff166367cbf42d878761106d600182613fb3565b8181106110a3577f4e487b7100000000000000000000000000000000000000000000000000000000600052603260045260246000fd5b90506020020160208101906110b89190613362565b8a6040518363ffffffff1660e01b81526004016110d6929190613830565b602060405180830381600087803b1580156110f057600080fd5b505af1158015611104573d6000803e3d6000fd5b505050506040513d601f19601f820116820180604052508101906111289190613657565b90506111338961246d565b61114989611141838b613f25565b89898961272e565b9250610ff23387876000818110611189577f4e487b7100000000000000000000000000000000000000000000000000000000600052603260045260246000fd5b905060200201602081019061119e9190613362565b88886111ab600182613fb3565b8181106111e1577f4e487b7100000000000000000000000000000000000000000000000000000000600052603260045260246000fd5b90506020020160208101906111f69190613362565b86600081518110611230577f4e487b7100000000000000000000000000000000000000000000000000000000600052603260045260246000fd5b60200260200101518c612537565b600460209081526000928352604080842090915290825290205481565b606581565b600181565b6000546040517f3c9c8f9c00000000000000000000000000000000000000000000000000000000815273ffffffffffffffffffffffffffffffffffffffff90911690633c9c8f9c906112bb908490600401613dec565b60206040518083038186803b1580156112d357600080fd5b505afa1580156112e7573d6000803e3d6000fd5b505050506040513d601f19601f8201168201806040525081019061130b9190613385565b61ffff91909116600090815260016020526040902080547fffffffffffffffffffffffff00000000000000000000000000000000000000001673ffffffffffffffffffffffffffffffffffffffff909216919091179055565b606061136f33611cae565b6113a5576040517f08c379a000000000000000000000000000000000000000000000000000000000815260040161081690613902565b61082c868686868661272e565b6113ba6127eb565b73ffffffffffffffffffffffffffffffffffffffff166113d8611575565b73ffffffffffffffffffffffffffffffffffffffff1614611425576040517f08c379a000000000000000000000000000000000000000000000000000000000815260040161081690613bc4565b60055460405160009173ffffffffffffffffffffffffffffffffffffffff16907f8be0079c531659141344cd1fd0a4f28419497f9722a3daafe3b4186f6b6457e0908390a3600580547fffffffffffffffffffffffff0000000000000000000000000000000000000000169055565b61149c6127eb565b73ffffffffffffffffffffffffffffffffffffffff166114ba611575565b73ffffffffffffffffffffffffffffffffffffffff1614611507576040517f08c379a000000000000000000000000000000000000000000000000000000000815260040161081690613bc4565b73ffffffffffffffffffffffffffffffffffffffff16600090815260066020526040902080547fffffffffffffffffffffffffffffffffffffffffffffffffffffffffffffff00166001179055565b606a81565b600981565b60036020526000908152604090205460ff1681565b60055473ffffffffffffffffffffffffffffffffffffffff1690565b611599611ffa565b73ffffffffffffffffffffffffffffffffffffffff1663a6a5f9fe346040518263ffffffff1660e01b81526004016000604051808303818588803b1580156115e057600080fd5b505af11580156115f4573d6000803e3d6000fd5b5050505050600061160361203f565b6007546040517f52a664d900000000000000000000000000000000000000000000000000000000815273ffffffffffffffffffffffffffffffffffffffff928316926352a664d99261165f9233929091169034906004016137af565b602060405180830381600087803b15801561167957600080fd5b505af115801561168d573d6000803e3d6000fd5b505050506040513d601f19601f820116820180604052508101906116b19190613657565b90508015611771576116c1612084565b6007546040517f2a6a897b00000000000000000000000000000000000000000000000000000000815273ffffffffffffffffffffffffffffffffffffffff92831692632a6a897b9261171a929116908590600401613830565b600060405180830381600087803b15801561173457600080fd5b505af1158015611748573d6000803e3d6000fd5b5050600754611771925033915073ffffffffffffffffffffffffffffffffffffffff16836120c9565b6007546040517f2f7971a38b280a622029ac616d8d562df278b4b5839a7b124c33a1715ae09299916117bd91339173ffffffffffffffffffffffffffffffffffffffff169034906137af565b60405180910390a150565b600281565b600581565b606881565b73c0aee478e3658e2610c5f7a4a2e1777ce9e4f2ac81565b60075473ffffffffffffffffffffffffffffffffffffffff1681565b60016020526000908152604090205473ffffffffffffffffffffffffffffffffffffffff1681565b606061082f85858585808060200260200160405190810160405280939291908181526020018383602002808284376000920191909152506127ef92505050565b600260209081526000928352604080842090915290825290205460ff1681565b606c81565b600481565b600781565b6118aa61203f565b73ffffffffffffffffffffffffffffffffffffffff1663d0eb66533384846040518463ffffffff1660e01b81526004016118e6939291906137af565b600060405180830381600087803b15801561190057600080fd5b505af1158015611914573d6000803e3d6000fd5b50505050611920611ffa565b73ffffffffffffffffffffffffffffffffffffffff1663d9caed128333846040518463ffffffff1660e01b815260040161195c939291906137af565b602060405180830381600087803b15801561197657600080fd5b505af115801561198a573d6000803e3d6000fd5b505050506040513d601f19601f820116820180604052508101906119ae919061359c565b6119e4576040517f08c379a000000000000000000000000000000000000000000000000000000000815260040161081690613c8d565b7f69725482a69b3feb662528aa4b8028c1f9f6288b9ef746d5c84a847e05ad0d6b338383604051611a17939291906137af565b60405180910390a15050565b611a2b612084565b73ffffffffffffffffffffffffffffffffffffffff1663ee0862bf83836040518363ffffffff1660e01b8152600401611a65929190613830565b600060405180830381600087803b158015611a7f57600080fd5b505af1158015611a93573d6000803e3d6000fd5b50505050611a9f61203f565b73ffffffffffffffffffffffffffffffffffffffff1663498d55eb3384846040518463ffffffff1660e01b8152600401611adb939291906137af565b600060405180830381600087803b158015611af557600080fd5b505af1158015611b09573d6000803e3d6000fd5b50505050611b18338383612a39565b7fd160a035f47ba1f22446570a0c0f33960590c1e03b5ae81e67f8fdc4c721f4da338383604051611a17939291906137af565b611b536127eb565b73ffffffffffffffffffffffffffffffffffffffff16611b71611575565b73ffffffffffffffffffffffffffffffffffffffff1614611bbe576040517f08c379a000000000000000000000000000000000000000000000000000000000815260040161081690613bc4565b73ffffffffffffffffffffffffffffffffffffffff8116611c0b576040517f08c379a00000000000000000000000000000000000000000000000000000000081526004016108169061395f565b60055460405173ffffffffffffffffffffffffffffffffffffffff8084169216907f8be0079c531659141344cd1fd0a4f28419497f9722a3daafe3b4186f6b6457e090600090a3600580547fffffffffffffffffffffffff00000000000000000000000000000000000000001673ffffffffffffffffffffffffffffffffffffffff92909216919091179055565b60066020526000908152604090205460ff1681565b73ffffffffffffffffffffffffffffffffffffffff811660009081526002602090815260408083206007845290915290205460ff165b919050565b6060611d2986868585808060200260200160405190810160405280939291908181526020018383602002808284376000920191909152506127ef92505050565b9050838160018351611d3b9190613fb3565b81518110611d72577f4e487b7100000000000000000000000000000000000000000000000000000000600052603260045260246000fd5b60200260200101511015611db2576040517f08c379a000000000000000000000000000000000000000000000000000000000815260040161081690613d8f565b611dba611ffa565b73ffffffffffffffffffffffffffffffffffffffff1663d9caed1284846000818110611e0f577f4e487b7100000000000000000000000000000000000000000000000000000000600052603260045260246000fd5b9050602002016020810190611e249190613362565b611ecb8987876000818110611e62577f4e487b7100000000000000000000000000000000000000000000000000000000600052603260045260246000fd5b9050602002016020810190611e779190613362565b88886001818110611eb1577f4e487b7100000000000000000000000000000000000000000000000000000000600052603260045260246000fd5b9050602002016020810190611ec69190613362565b612c03565b84600081518110611f05577f4e487b7100000000000000000000000000000000000000000000000000000000600052603260045260246000fd5b60200260200101516040518463ffffffff1660e01b8152600401611f2b939291906137af565b602060405180830381600087803b158015611f4557600080fd5b505af1158015611f59573d6000803e3d6000fd5b505050506040513d601f19601f82011682018060405250810190611f7d919061359c565b611fb3576040517f08c379a000000000000000000000000000000000000000000000000000000000815260040161081690613a76565b61082f8682858580806020026020016040519081016040528093929190818152602001838360200280828437600092019190915250611ff59250611ffa915050565b612c75565b606560005260016020527f6def5a300acb6fcaa0dab3a41e9d6457b5147a641e641380f8cc4bf5308b16fe5473ffffffffffffffffffffffffffffffffffffffff1690565b606860005260016020527ff284ef79b1311865905aedf2d88775d1e3bf6a2b09002616cb4dc1af77e578f45473ffffffffffffffffffffffffffffffffffffffff1690565b606660005260016020527f8a7727369fa1a496cab5c3debb1ff9323f499df74f8bfc03a975054ef960ee6d5473ffffffffffffffffffffffffffffffffffffffff1690565b73ffffffffffffffffffffffffffffffffffffffff808416600090815260046020908152604080832093861683529281528282205460039091529190205460ff16612112612efa565b73ffffffffffffffffffffffffffffffffffffffff1663a80167118284866040518463ffffffff1660e01b815260040161214e93929190613f0a565b600060405180830381600087803b15801561216857600080fd5b505af115801561217c573d6000803e3d6000fd5b505050505050505050565b60606002825110156121c5576040517f08c379a000000000000000000000000000000000000000000000000000000000815260040161081690613ad3565b815167ffffffffffffffff811115612206577f4e487b7100000000000000000000000000000000000000000000000000000000600052604160045260246000fd5b60405190808252806020026020018201604052801561222f578160200160208202803683370190505b5090508281600183516122429190613fb3565b81518110612279577f4e487b7100000000000000000000000000000000000000000000000000000000600052603260045260246000fd5b6020026020010181815250506000600183516122959190613fb3565b90505b80156123e95760008061233687866122b1600187613fb3565b815181106122e8577f4e487b7100000000000000000000000000000000000000000000000000000000600052603260045260246000fd5b6020026020010151878681518110612329577f4e487b7100000000000000000000000000000000000000000000000000000000600052603260045260246000fd5b6020026020010151612f3f565b91509150612385848481518110612376577f4e487b7100000000000000000000000000000000000000000000000000000000600052603260045260246000fd5b6020026020010151838361304d565b84612391600186613fb3565b815181106123c8577f4e487b7100000000000000000000000000000000000000000000000000000000600052603260045260246000fd5b602002602001018181525050505080806123e190613fca565b915050612298565b509392505050565b73ffffffffffffffffffffffffffffffffffffffff1660009081526002602090815260408083206009845290915290205460ff1690565b606960005260016020527f2cc30221e0553428287371236269b4e2f6f11f95f33fb976fdb79b586bb6c3425473ffffffffffffffffffffffffffffffffffffffff1690565b73ffffffffffffffffffffffffffffffffffffffff8116735c69bee701ef814a2b6a3edd4b1652cb9cc5aa6f14806124ce575073ffffffffffffffffffffffffffffffffffffffff811673c0aee478e3658e2610c5f7a4a2e1777ce9e4f2ac145b806124fe575073ffffffffffffffffffffffffffffffffffffffff811660009081526006602052604090205460ff165b612534576040517f08c379a000000000000000000000000000000000000000000000000000000000815260040161081690613cfb565b50565b60008061254261203f565b73ffffffffffffffffffffffffffffffffffffffff16633500aa0b88888888886040518663ffffffff1660e01b815260040161258295949392919061376e565b6040805180830381600087803b15801561259b57600080fd5b505af11580156125af573d6000803e3d6000fd5b505050506040513d601f19601f820116820180604052508101906125d3919061366f565b9092509050811561265d576125e6612084565b73ffffffffffffffffffffffffffffffffffffffff16632a6a897b86846040518363ffffffff1660e01b8152600401612620929190613830565b600060405180830381600087803b15801561263a57600080fd5b505af115801561264e573d6000803e3d6000fd5b5050505061265d8786846120c9565b80156126e25761266b612084565b73ffffffffffffffffffffffffffffffffffffffff1663ee0862bf87836040518363ffffffff1660e01b81526004016126a5929190613830565b600060405180830381600087803b1580156126bf57600080fd5b505af11580156126d3573d6000803e3d6000fd5b505050506126e2878783612a39565b7ffda7842105bd0ae9d4c9616a1d48b1e9f17e2d97cb890d021c291e7d1b53929f8787868489888860405161271d97969594939291906137e0565b60405180910390a150505050505050565b606061276e868685858080602002602001604051908101604052809392919081815260200183836020028082843760009201919091525061218792505050565b905083816000815181106127ab577f4e487b7100000000000000000000000000000000000000000000000000000000600052603260045260246000fd5b60200260200101511115611db2576040517f08c379a000000000000000000000000000000000000000000000000000000000815260040161081690613b67565b3390565b606060028251101561282d576040517f08c379a000000000000000000000000000000000000000000000000000000000815260040161081690613ad3565b815167ffffffffffffffff81111561286e577f4e487b7100000000000000000000000000000000000000000000000000000000600052604160045260246000fd5b604051908082528060200260200182016040528015612897578160200160208202803683370190505b50905082816000815181106128d5577f4e487b7100000000000000000000000000000000000000000000000000000000600052603260045260246000fd5b60200260200101818152505060005b600183516128f29190613fb3565b8110156123e95760008061298687868581518110612939577f4e487b7100000000000000000000000000000000000000000000000000000000600052603260045260246000fd5b60200260200101518786600161294f9190613f25565b81518110612329577f4e487b7100000000000000000000000000000000000000000000000000000000600052603260045260246000fd5b915091506129d58484815181106129c6577f4e487b7100000000000000000000000000000000000000000000000000000000600052603260045260246000fd5b60200260200101518383613122565b846129e1856001613f25565b81518110612a18577f4e487b7100000000000000000000000000000000000000000000000000000000600052603260045260246000fd5b60200260200101818152505050508080612a3190613fff565b9150506128e4565b6000612a43612efa565b73ffffffffffffffffffffffffffffffffffffffff80861660009081526004602090815260408083209388168352928152828220546003909152919020549192509060ff168115612b1b576040517ff542808700000000000000000000000000000000000000000000000000000000815273ffffffffffffffffffffffffffffffffffffffff84169063f542808790612ae490849086908990600401613f0a565b600060405180830381600087803b158015612afe57600080fd5b505af1158015612b12573d6000803e3d6000fd5b50505050612bfb565b6040517f583d861600000000000000000000000000000000000000000000000000000000815273ffffffffffffffffffffffffffffffffffffffff84169063583d861690612b719084908a908990600401613ed9565b602060405180830381600087803b158015612b8b57600080fd5b505af1158015612b9f573d6000803e3d6000fd5b505050506040513d601f19601f82011682018060405250810190612bc39190613657565b73ffffffffffffffffffffffffffffffffffffffff8088166000908152600460209081526040808320938a1683529290522081905591505b505050505050565b6000806000612c1285856131f1565b91509150858282604051602001612c2a929190613692565b60405160208183030381529060405280519060200120604051602001612c519291906136cc565b6040516020818303038152906040528051906020012060601c925050509392505050565b60005b60018351612c869190613fb3565b811015610bb357600080848381518110612cc9577f4e487b7100000000000000000000000000000000000000000000000000000000600052603260045260246000fd5b602002602001015185846001612cdf9190613f25565b81518110612d16577f4e487b7100000000000000000000000000000000000000000000000000000000600052603260045260246000fd5b6020026020010151915091506000612d2e83836131f1565b509050600087612d3f866001613f25565b81518110612d76577f4e487b7100000000000000000000000000000000000000000000000000000000600052603260045260246000fd5b602002602001015190506000808373ffffffffffffffffffffffffffffffffffffffff168673ffffffffffffffffffffffffffffffffffffffff1614612dbe57826000612dc2565b6000835b91509150600060028a51612dd69190613fb3565b8810612de25788612e37565b612e378c878c612df38c6002613f25565b81518110612e2a577f4e487b7100000000000000000000000000000000000000000000000000000000600052603260045260246000fd5b6020026020010151612c03565b9050612e448c8888612c03565b73ffffffffffffffffffffffffffffffffffffffff1663022c0d9f84848460006040519080825280601f01601f191660200182016040528015612e8e576020820181803683370190505b506040518563ffffffff1660e01b8152600401612eae9493929190613e2e565b600060405180830381600087803b158015612ec857600080fd5b505af1158015612edc573d6000803e3d6000fd5b50505050505050505050508080612ef290613fff565b915050612c78565b606c60005260016020527fd80c728dcb954e7539257f5b9090fa0c83e482d978be864c61ec2b155c05c2525473ffffffffffffffffffffffffffffffffffffffff1690565b6000806000612f4e85856131f1565b509050600080612f5f888888612c03565b73ffffffffffffffffffffffffffffffffffffffff16630902f1ac6040518163ffffffff1660e01b815260040160606040518083038186803b158015612fa457600080fd5b505afa158015612fb8573d6000803e3d6000fd5b505050506040513d601f19601f82011682018060405250810190612fdc91906135bc565b506dffffffffffffffffffffffffffff1691506dffffffffffffffffffffffffffff1691508273ffffffffffffffffffffffffffffffffffffffff168773ffffffffffffffffffffffffffffffffffffffff161461303b57808261303e565b81815b90999098509650505050505050565b6000808411613088576040517f08c379a0000000000000000000000000000000000000000000000000000000008152600401610816906139bc565b6000831180156130985750600082115b6130ce576040517f08c379a000000000000000000000000000000000000000000000000000000000815260040161081690613b0a565b60006130da8585613f76565b6130e6906103e8613f76565b905060006103e56130f78786613fb3565b6131019190613fb3565b905061310d8183613f3d565b613118906001613f25565b9695505050505050565b600080841161315d576040517f08c379a000000000000000000000000000000000000000000000000000000000815260040161081690613d32565b60008311801561316d5750600082115b6131a3576040517f08c379a000000000000000000000000000000000000000000000000000000000815260040161081690613b0a565b60006131b1856103e5613f76565b905060006131bf8483613f76565b90506000826131d0876103e8613f76565b6131da9190613f25565b90506131e68183613f3d565b979650505050505050565b6000808273ffffffffffffffffffffffffffffffffffffffff168473ffffffffffffffffffffffffffffffffffffffff16141561325a576040517f08c379a000000000000000000000000000000000000000000000000000000000815260040161081690613a19565b8273ffffffffffffffffffffffffffffffffffffffff168473ffffffffffffffffffffffffffffffffffffffff1610613294578284613297565b83835b909250905073ffffffffffffffffffffffffffffffffffffffff82166132e9576040517f08c379a000000000000000000000000000000000000000000000000000000000815260040161081690613cc4565b9250929050565b60008083601f840112613301578182fd5b50813567ffffffffffffffff811115613318578182fd5b60208301915083602080830285010111156132e957600080fd5b80516dffffffffffffffffffffffffffff81168114611ce457600080fd5b803561ffff81168114611ce457600080fd5b600060208284031215613373578081fd5b813561337e81614067565b9392505050565b600060208284031215613396578081fd5b815161337e81614067565b600080604083850312156133b3578081fd5b82356133be81614067565b915060208301356133ce81614067565b809150509250929050565b600080604083850312156133eb578182fd5b82356133f681614067565b915061340460208401613350565b90509250929050565b6000806040838503121561341f578182fd5b823561342a81614067565b946020939093013593505050565b6000806000806060858703121561344d578182fd5b843561345881614067565b935060208501359250604085013567ffffffffffffffff81111561347a578283fd5b613486878288016132f0565b95989497509550505050565b6000806000806000608086880312156134a9578081fd5b85356134b481614067565b94506020860135935060408601359250606086013567ffffffffffffffff8111156134dd578182fd5b6134e9888289016132f0565b969995985093965092949392505050565b60008060008060008060a08789031215613512578081fd5b863561351d81614067565b95506020870135945060408701359350606087013567ffffffffffffffff811115613546578182fd5b61355289828a016132f0565b979a9699509497949695608090950135949350505050565b6000806040838503121561357c578182fd5b823561358781614067565b9150602083013560ff811681146133ce578182fd5b6000602082840312156135ad578081fd5b8151801515811461337e578182fd5b6000806000606084860312156135d0578283fd5b6135d984613332565b92506135e760208501613332565b9150604084015163ffffffff811681146135ff578182fd5b809150509250925092565b60006020828403121561361b578081fd5b61337e82613350565b60008060408385031215613636578182fd5b6133be83613350565b600060208284031215613650578081fd5b5035919050565b600060208284031215613668578081fd5b5051919050565b60008060408385031215613681578182fd5b505080516020909101519092909150565b7fffffffffffffffffffffffffffffffffffffffff000000000000000000000000606093841b811682529190921b16601482015260280190565b7fff00000000000000000000000000000000000000000000000000000000000000815260609290921b7fffffffffffffffffffffffffffffffffffffffff00000000000000000000000016600183015260158201527f96e8ac4277198ff8b6f785478aa9a39f403cb768dd02cbee326c3e7da348845f603582015260550190565b73ffffffffffffffffffffffffffffffffffffffff91909116815260200190565b73ffffffffffffffffffffffffffffffffffffffff958616815293851660208501529190931660408301526060820192909252608081019190915260a00190565b73ffffffffffffffffffffffffffffffffffffffff9384168152919092166020820152604081019190915260600190565b73ffffffffffffffffffffffffffffffffffffffff9788168152958716602087015260408601949094526060850192909252909316608083015260a082019290925260c081019190915260e00190565b73ffffffffffffffffffffffffffffffffffffffff929092168252602082015260400190565b6020808252825182820181905260009190848201906040850190845b8181101561388e57835183529284019291840191600101613872565b50909695505050505050565b901515815260200190565b6020808252602e908201527f43616c6c6572206e6f7420617574686f72697a656420746f2073657420696e6360408201527f656e74697665207472616e636865000000000000000000000000000000000000606082015260800190565b6020808252603e908201527f43616c6c696e6720636f6e7472616374206973206e6f7420617574686f72697a60408201527f656420746f20747261646520776974682070726f746f636c2066756e64730000606082015260800190565b60208082526026908201527f4f776e61626c653a206e6577206f776e657220697320746865207a65726f206160408201527f6464726573730000000000000000000000000000000000000000000000000000606082015260800190565b6020808252602c908201527f556e697377617056324c6962726172793a20494e53554646494349454e545f4f60408201527f55545055545f414d4f554e540000000000000000000000000000000000000000606082015260800190565b60208082526025908201527f556e697377617056324c6962726172793a204944454e544943414c5f4144445260408201527f4553534553000000000000000000000000000000000000000000000000000000606082015260800190565b60208082526028908201527f4d617267696e526f757465723a20496e73756666696369656e74206c656e646960408201527f6e672066756e6473000000000000000000000000000000000000000000000000606082015260800190565b6020808252601e908201527f556e697377617056324c6962726172793a20494e56414c49445f504154480000604082015260600190565b60208082526028908201527f556e697377617056324c6962726172793a20494e53554646494349454e545f4c60408201527f4951554944495459000000000000000000000000000000000000000000000000606082015260800190565b60208082526024908201527f4d617267696e526f757465723a204558434553534956455f494e5055545f414d60408201527f4f554e5400000000000000000000000000000000000000000000000000000000606082015260800190565b6020808252818101527f4f776e61626c653a2063616c6c6572206973206e6f7420746865206f776e6572604082015260600190565b60208082526011908201527f5472616465206861732065787069726564000000000000000000000000000000604082015260600190565b60208082526029908201527f43616e6e6f74207472616e73666572206465706f73697420746f206d6172676960408201527f6e206163636f756e740000000000000000000000000000000000000000000000606082015260800190565b6020808252601c908201527f436f756c64206e6f742077697468647261772066726f6d2066756e6400000000604082015260600190565b6020808252601e908201527f556e697377617056324c6962726172793a205a45524f5f414444524553530000604082015260600190565b6020808252601b908201527f4e6f74207573696e6720616e20617574686f72697a656420414d4d0000000000604082015260600190565b6020808252602b908201527f556e697377617056324c6962726172793a20494e53554646494349454e545f4960408201527f4e5055545f414d4f554e54000000000000000000000000000000000000000000606082015260800190565b60208082526028908201527f4d617267696e526f757465723a20494e53554646494349454e545f4f5554505560408201527f545f414d4f554e54000000000000000000000000000000000000000000000000606082015260800190565b61ffff91909116815260200190565b61ffff92909216825273ffffffffffffffffffffffffffffffffffffffff16602082015260400190565b90815260200190565b60008582526020858184015273ffffffffffffffffffffffffffffffffffffffff85166040840152608060608401528351806080850152825b81811015613e835785810183015185820160a001528201613e67565b81811115613e94578360a083870101525b50601f017fffffffffffffffffffffffffffffffffffffffffffffffffffffffffffffffe0169290920160a0019695505050505050565b60ff91909116815260200190565b60ff93909316835273ffffffffffffffffffffffffffffffffffffffff919091166020830152604082015260600190565b60ff9390931683526020830191909152604082015260600190565b60008219821115613f3857613f38614038565b500190565b600082613f71577f4e487b710000000000000000000000000000000000000000000000000000000081526012600452602481fd5b500490565b6000817fffffffffffffffffffffffffffffffffffffffffffffffffffffffffffffffff0483118215151615613fae57613fae614038565b500290565b600082821015613fc557613fc5614038565b500390565b600081613fd957613fd9614038565b507fffffffffffffffffffffffffffffffffffffffffffffffffffffffffffffffff0190565b60007fffffffffffffffffffffffffffffffffffffffffffffffffffffffffffffffff82141561403157614031614038565b5060010190565b7f4e487b7100000000000000000000000000000000000000000000000000000000600052601160045260246000fd5b73ffffffffffffffffffffffffffffffffffffffff8116811461253457600080fdfea26469706673582212203d9e1093d2e8665d5b2cfffabe67801f65f52c1fcd5798df3522b335678c184c64736f6c63430008010033",
  "devdoc": {
    "kind": "dev",
    "methods": {
      "authorizedSwapExactT4T(address,uint256,uint256,address[])": {
        "details": "external function to make swaps on AMM using protocol funds, only for authorized contracts"
      },
      "crossBorrow(address,uint256)": {
        "details": "borrow into cross margin trading account"
      },
      "crossDeposit(address,uint256)": {
        "details": "traders call this to deposit funds on cross margin"
      },
      "crossDepositETH()": {
        "details": "deposit wrapped ehtereum into cross margin account"
      },
      "crossSwapExactTokensForTokens(address,uint256,uint256,address[],uint256)": {
        "details": "entry point for swapping tokens held in cross margin account"
      },
      "crossSwapTokensForExactTokens(address,uint256,uint256,address[],uint256)": {
        "details": "entry point for swapping tokens held in cross margin account"
      },
      "crossWithdraw(address,uint256)": {
        "details": "withdraw deposits/earnings from cross margin account"
      },
      "crossWithdrawETH(uint256)": {
        "details": "withdraw ethereum from cross margin account"
      },
      "owner()": {
        "details": "Returns the address of the current owner."
      },
      "renounceOwnership()": {
        "details": "Leaves the contract without owner. It will not be possible to call `onlyOwner` functions anymore. Can only be called by the current owner. NOTE: Renouncing ownership will leave the contract without an owner, thereby removing any functionality that is only available to the owner."
      },
      "transferOwnership(address)": {
        "details": "Transfers ownership of the contract to a new account (`newOwner`). Can only be called by the current owner."
      }
    },
    "version": 1
  },
  "userdoc": {
    "events": {
      "CrossBorrow(address,address,uint256)": {
        "notice": "emitted upon sucessfully borrowing"
      },
      "CrossDeposit(address,address,uint256)": {
        "notice": "emitted when a trader depoits on cross margin"
      },
      "CrossTrade(address,address,uint256,uint256,address,uint256,uint256)": {
        "notice": "emitted whenever a trade happens"
      },
      "CrossWithdraw(address,address,uint256)": {
        "notice": "emitted when a trader withdraws funds"
      }
    },
    "kind": "user",
    "methods": {
      "WETH()": {
        "notice": "wrapped ETH ERC20 contract"
      },
      "factories(address)": {
        "notice": "different uniswap compatible factories to talk to"
      }
    },
    "version": 1
  },
  "storageLayout": {
    "storage": [
      {
        "astId": 11718,
        "contract": "contracts/MarginRouter.sol:MarginRouter",
        "label": "roles",
        "offset": 0,
        "slot": "0",
        "type": "t_contract(Roles)12108"
      },
      {
        "astId": 11722,
        "contract": "contracts/MarginRouter.sol:MarginRouter",
        "label": "mainCharacterCache",
        "offset": 0,
        "slot": "1",
        "type": "t_mapping(t_uint16,t_address)"
      },
      {
        "astId": 11728,
        "contract": "contracts/MarginRouter.sol:MarginRouter",
        "label": "roleCache",
        "offset": 0,
        "slot": "2",
        "type": "t_mapping(t_address,t_mapping(t_uint16,t_bool))"
      },
      {
        "astId": 9289,
        "contract": "contracts/MarginRouter.sol:MarginRouter",
        "label": "incentiveTranches",
        "offset": 0,
        "slot": "3",
        "type": "t_mapping(t_address,t_uint8)"
      },
      {
        "astId": 9295,
        "contract": "contracts/MarginRouter.sol:MarginRouter",
        "label": "claimIds",
        "offset": 0,
        "slot": "4",
        "type": "t_mapping(t_address,t_mapping(t_address,t_uint256))"
      },
      {
        "astId": 381,
        "contract": "contracts/MarginRouter.sol:MarginRouter",
        "label": "_owner",
        "offset": 0,
        "slot": "5",
        "type": "t_address"
      },
      {
        "astId": 10150,
        "contract": "contracts/MarginRouter.sol:MarginRouter",
        "label": "factories",
        "offset": 0,
        "slot": "6",
        "type": "t_mapping(t_address,t_bool)"
      },
      {
        "astId": 10153,
        "contract": "contracts/MarginRouter.sol:MarginRouter",
        "label": "WETH",
        "offset": 0,
        "slot": "7",
        "type": "t_address"
      }
    ],
    "types": {
      "t_address": {
        "encoding": "inplace",
        "label": "address",
        "numberOfBytes": "20"
      },
      "t_bool": {
        "encoding": "inplace",
        "label": "bool",
        "numberOfBytes": "1"
      },
      "t_contract(Roles)12108": {
        "encoding": "inplace",
        "label": "contract Roles",
        "numberOfBytes": "20"
      },
      "t_mapping(t_address,t_bool)": {
        "encoding": "mapping",
        "key": "t_address",
        "label": "mapping(address => bool)",
        "numberOfBytes": "32",
        "value": "t_bool"
      },
      "t_mapping(t_address,t_mapping(t_address,t_uint256))": {
        "encoding": "mapping",
        "key": "t_address",
        "label": "mapping(address => mapping(address => uint256))",
        "numberOfBytes": "32",
        "value": "t_mapping(t_address,t_uint256)"
      },
      "t_mapping(t_address,t_mapping(t_uint16,t_bool))": {
        "encoding": "mapping",
        "key": "t_address",
        "label": "mapping(address => mapping(uint16 => bool))",
        "numberOfBytes": "32",
        "value": "t_mapping(t_uint16,t_bool)"
      },
      "t_mapping(t_address,t_uint256)": {
        "encoding": "mapping",
        "key": "t_address",
        "label": "mapping(address => uint256)",
        "numberOfBytes": "32",
        "value": "t_uint256"
      },
      "t_mapping(t_address,t_uint8)": {
        "encoding": "mapping",
        "key": "t_address",
        "label": "mapping(address => uint8)",
        "numberOfBytes": "32",
        "value": "t_uint8"
      },
      "t_mapping(t_uint16,t_address)": {
        "encoding": "mapping",
        "key": "t_uint16",
        "label": "mapping(uint16 => address)",
        "numberOfBytes": "32",
        "value": "t_address"
      },
      "t_mapping(t_uint16,t_bool)": {
        "encoding": "mapping",
        "key": "t_uint16",
        "label": "mapping(uint16 => bool)",
        "numberOfBytes": "32",
        "value": "t_bool"
      },
      "t_uint16": {
        "encoding": "inplace",
        "label": "uint16",
        "numberOfBytes": "2"
      },
      "t_uint256": {
        "encoding": "inplace",
        "label": "uint256",
        "numberOfBytes": "32"
      },
      "t_uint8": {
        "encoding": "inplace",
        "label": "uint8",
        "numberOfBytes": "1"
      }
    }
  }
}