{
  "address": "0x6e4F34c5a111978FeBb377462Da97D0CBFcEed17",
  "abi": [
    {
      "inputs": [
        {
          "internalType": "address",
          "name": "_WETH",
          "type": "address"
        },
        {
          "internalType": "address",
          "name": "_roles",
          "type": "address"
        }
      ],
      "stateMutability": "nonpayable",
      "type": "constructor"
    },
    {
      "anonymous": false,
      "inputs": [
        {
          "indexed": false,
          "internalType": "address",
          "name": "trader",
          "type": "address"
        },
        {
          "indexed": false,
          "internalType": "address",
          "name": "borrowToken",
          "type": "address"
        },
        {
          "indexed": false,
          "internalType": "uint256",
          "name": "borrowAmount",
          "type": "uint256"
        }
      ],
      "name": "CrossBorrow",
      "type": "event"
    },
    {
      "anonymous": false,
      "inputs": [
        {
          "indexed": false,
          "internalType": "address",
          "name": "trader",
          "type": "address"
        },
        {
          "indexed": false,
          "internalType": "address",
          "name": "depositToken",
          "type": "address"
        },
        {
          "indexed": false,
          "internalType": "uint256",
          "name": "depositAmount",
          "type": "uint256"
        }
      ],
      "name": "CrossDeposit",
      "type": "event"
    },
    {
      "anonymous": false,
      "inputs": [
        {
          "indexed": false,
          "internalType": "address",
          "name": "trader",
          "type": "address"
        },
        {
          "indexed": false,
          "internalType": "address",
          "name": "inToken",
          "type": "address"
        },
        {
          "indexed": false,
          "internalType": "uint256",
          "name": "inTokenAmount",
          "type": "uint256"
        },
        {
          "indexed": false,
          "internalType": "uint256",
          "name": "inTokenBorrow",
          "type": "uint256"
        },
        {
          "indexed": false,
          "internalType": "address",
          "name": "outToken",
          "type": "address"
        },
        {
          "indexed": false,
          "internalType": "uint256",
          "name": "outTokenAmount",
          "type": "uint256"
        },
        {
          "indexed": false,
          "internalType": "uint256",
          "name": "outTokenExtinguish",
          "type": "uint256"
        }
      ],
      "name": "CrossTrade",
      "type": "event"
    },
    {
      "anonymous": false,
      "inputs": [
        {
          "indexed": false,
          "internalType": "address",
          "name": "trader",
          "type": "address"
        },
        {
          "indexed": false,
          "internalType": "address",
          "name": "withdrawToken",
          "type": "address"
        },
        {
          "indexed": false,
          "internalType": "uint256",
          "name": "withdrawAmount",
          "type": "uint256"
        }
      ],
      "name": "CrossWithdraw",
      "type": "event"
    },
    {
      "anonymous": false,
      "inputs": [
        {
          "indexed": true,
          "internalType": "address",
          "name": "previousOwner",
          "type": "address"
        },
        {
          "indexed": true,
          "internalType": "address",
          "name": "newOwner",
          "type": "address"
        }
      ],
      "name": "OwnershipTransferred",
      "type": "event"
    },
    {
      "inputs": [],
      "name": "SUSHI",
      "outputs": [
        {
          "internalType": "address",
          "name": "",
          "type": "address"
        }
      ],
      "stateMutability": "view",
      "type": "function"
    },
    {
      "inputs": [],
      "name": "UNI",
      "outputs": [
        {
          "internalType": "address",
          "name": "",
          "type": "address"
        }
      ],
      "stateMutability": "view",
      "type": "function"
    },
    {
      "inputs": [],
      "name": "WETH",
      "outputs": [
        {
          "internalType": "address",
          "name": "",
          "type": "address"
        }
      ],
      "stateMutability": "view",
      "type": "function"
    },
    {
      "inputs": [
        {
          "internalType": "address",
          "name": "ammFactory",
          "type": "address"
        }
      ],
      "name": "authorizeAMM",
      "outputs": [],
      "stateMutability": "nonpayable",
      "type": "function"
    },
    {
      "inputs": [
        {
          "internalType": "address",
          "name": "factory",
          "type": "address"
        },
        {
          "internalType": "uint256",
          "name": "amountIn",
          "type": "uint256"
        },
        {
          "internalType": "uint256",
          "name": "amountOutMin",
          "type": "uint256"
        },
        {
          "internalType": "address[]",
          "name": "path",
          "type": "address[]"
        }
      ],
      "name": "authorizedSwapExactT4T",
      "outputs": [
        {
          "internalType": "uint256[]",
          "name": "amounts",
          "type": "uint256[]"
        }
      ],
      "stateMutability": "nonpayable",
      "type": "function"
    },
    {
      "inputs": [
        {
          "internalType": "address",
          "name": "factory",
          "type": "address"
        },
        {
          "internalType": "uint256",
          "name": "amountOut",
          "type": "uint256"
        },
        {
          "internalType": "uint256",
          "name": "amountInMax",
          "type": "uint256"
        },
        {
          "internalType": "address[]",
          "name": "path",
          "type": "address[]"
        }
      ],
      "name": "authorizedSwapT4ExactT",
      "outputs": [
        {
          "internalType": "uint256[]",
          "name": "amounts",
          "type": "uint256[]"
        }
      ],
      "stateMutability": "nonpayable",
      "type": "function"
    },
    {
      "inputs": [
        {
          "internalType": "address",
          "name": "",
          "type": "address"
        },
        {
          "internalType": "address",
          "name": "",
          "type": "address"
        }
      ],
      "name": "claimIds",
      "outputs": [
        {
          "internalType": "uint256",
          "name": "",
          "type": "uint256"
        }
      ],
      "stateMutability": "view",
      "type": "function"
    },
    {
      "inputs": [
        {
          "internalType": "address",
          "name": "borrowToken",
          "type": "address"
        },
        {
          "internalType": "uint256",
          "name": "borrowAmount",
          "type": "uint256"
        }
      ],
      "name": "crossBorrow",
      "outputs": [],
      "stateMutability": "nonpayable",
      "type": "function"
    },
    {
      "inputs": [],
      "name": "crossCloseAccount",
      "outputs": [],
      "stateMutability": "nonpayable",
      "type": "function"
    },
    {
      "inputs": [
        {
          "internalType": "address",
          "name": "depositToken",
          "type": "address"
        },
        {
          "internalType": "uint256",
          "name": "depositAmount",
          "type": "uint256"
        }
      ],
      "name": "crossDeposit",
      "outputs": [],
      "stateMutability": "nonpayable",
      "type": "function"
    },
    {
      "inputs": [],
      "name": "crossDepositETH",
      "outputs": [],
      "stateMutability": "payable",
      "type": "function"
    },
    {
      "inputs": [
        {
          "internalType": "address",
          "name": "ammFactory",
          "type": "address"
        },
        {
          "internalType": "uint256",
          "name": "amountIn",
          "type": "uint256"
        },
        {
          "internalType": "uint256",
          "name": "amountOutMin",
          "type": "uint256"
        },
        {
          "internalType": "address[]",
          "name": "path",
          "type": "address[]"
        },
        {
          "internalType": "uint256",
          "name": "deadline",
          "type": "uint256"
        }
      ],
      "name": "crossSwapExactTokensForTokens",
      "outputs": [
        {
          "internalType": "uint256[]",
          "name": "amounts",
          "type": "uint256[]"
        }
      ],
      "stateMutability": "nonpayable",
      "type": "function"
    },
    {
      "inputs": [
        {
          "internalType": "address",
          "name": "ammFactory",
          "type": "address"
        },
        {
          "internalType": "uint256",
          "name": "amountOut",
          "type": "uint256"
        },
        {
          "internalType": "uint256",
          "name": "amountInMax",
          "type": "uint256"
        },
        {
          "internalType": "address[]",
          "name": "path",
          "type": "address[]"
        },
        {
          "internalType": "uint256",
          "name": "deadline",
          "type": "uint256"
        }
      ],
      "name": "crossSwapTokensForExactTokens",
      "outputs": [
        {
          "internalType": "uint256[]",
          "name": "amounts",
          "type": "uint256[]"
        }
      ],
      "stateMutability": "nonpayable",
      "type": "function"
    },
    {
      "inputs": [
        {
          "internalType": "address",
          "name": "withdrawToken",
          "type": "address"
        },
        {
          "internalType": "uint256",
          "name": "withdrawAmount",
          "type": "uint256"
        }
      ],
      "name": "crossWithdraw",
      "outputs": [],
      "stateMutability": "nonpayable",
      "type": "function"
    },
    {
      "inputs": [
        {
          "internalType": "uint256",
          "name": "withdrawAmount",
          "type": "uint256"
        }
      ],
      "name": "crossWithdrawETH",
      "outputs": [],
      "stateMutability": "nonpayable",
      "type": "function"
    },
    {
      "inputs": [
        {
          "internalType": "address",
          "name": "",
          "type": "address"
        }
      ],
      "name": "factories",
      "outputs": [
        {
          "internalType": "bool",
          "name": "",
          "type": "bool"
        }
      ],
      "stateMutability": "view",
      "type": "function"
    },
    {
      "inputs": [
        {
          "internalType": "address",
          "name": "factory",
          "type": "address"
        },
        {
          "internalType": "uint256",
          "name": "outAmount",
          "type": "uint256"
        },
        {
          "internalType": "address[]",
          "name": "path",
          "type": "address[]"
        }
      ],
      "name": "getAmountsIn",
      "outputs": [
        {
          "internalType": "uint256[]",
          "name": "",
          "type": "uint256[]"
        }
      ],
      "stateMutability": "view",
      "type": "function"
    },
    {
      "inputs": [
        {
          "internalType": "address",
          "name": "factory",
          "type": "address"
        },
        {
          "internalType": "uint256",
          "name": "inAmount",
          "type": "uint256"
        },
        {
          "internalType": "address[]",
          "name": "path",
          "type": "address[]"
        }
      ],
      "name": "getAmountsOut",
      "outputs": [
        {
          "internalType": "uint256[]",
          "name": "",
          "type": "uint256[]"
        }
      ],
      "stateMutability": "view",
      "type": "function"
    },
    {
      "inputs": [
        {
          "internalType": "address",
          "name": "",
          "type": "address"
        }
      ],
      "name": "incentiveTranches",
      "outputs": [
        {
          "internalType": "uint8",
          "name": "",
          "type": "uint8"
        }
      ],
      "stateMutability": "view",
      "type": "function"
    },
    {
      "inputs": [
        {
          "internalType": "uint256",
          "name": "",
          "type": "uint256"
        }
      ],
      "name": "mainCharacterCache",
      "outputs": [
        {
          "internalType": "address",
          "name": "",
          "type": "address"
        }
      ],
      "stateMutability": "view",
      "type": "function"
    },
    {
      "inputs": [],
      "name": "owner",
      "outputs": [
        {
          "internalType": "address",
          "name": "",
          "type": "address"
        }
      ],
      "stateMutability": "view",
      "type": "function"
    },
    {
      "inputs": [],
      "name": "renounceOwnership",
      "outputs": [],
      "stateMutability": "nonpayable",
      "type": "function"
    },
    {
      "inputs": [
        {
          "internalType": "address",
          "name": "",
          "type": "address"
        },
        {
          "internalType": "uint256",
          "name": "",
          "type": "uint256"
        }
      ],
      "name": "roleCache",
      "outputs": [
        {
          "internalType": "bool",
          "name": "",
          "type": "bool"
        }
      ],
      "stateMutability": "view",
      "type": "function"
    },
    {
      "inputs": [],
      "name": "roles",
      "outputs": [
        {
          "internalType": "contract Roles",
          "name": "",
          "type": "address"
        }
      ],
      "stateMutability": "view",
      "type": "function"
    },
    {
      "inputs": [
        {
          "internalType": "address",
          "name": "token",
          "type": "address"
        },
        {
          "internalType": "uint8",
          "name": "tranche",
          "type": "uint8"
        }
      ],
      "name": "setIncentiveTranche",
      "outputs": [],
      "stateMutability": "nonpayable",
      "type": "function"
    },
    {
      "inputs": [
        {
          "internalType": "address",
          "name": "newOwner",
          "type": "address"
        }
      ],
      "name": "transferOwnership",
      "outputs": [],
      "stateMutability": "nonpayable",
      "type": "function"
    },
    {
      "inputs": [
        {
          "internalType": "uint256",
          "name": "role",
          "type": "uint256"
        }
      ],
      "name": "updateMainCharacterCache",
      "outputs": [],
      "stateMutability": "nonpayable",
      "type": "function"
    },
    {
      "inputs": [
        {
          "internalType": "uint256",
          "name": "role",
          "type": "uint256"
        },
        {
          "internalType": "address",
          "name": "contr",
          "type": "address"
        }
      ],
      "name": "updateRoleCache",
      "outputs": [],
      "stateMutability": "nonpayable",
      "type": "function"
    }
  ],
  "transactionHash": "0xc2e4dafc3524a15382872bc830e331aa8a68c11488785cd483b7bf76d61fc6d5",
  "args": [
    "0xC02aaA39b223FE8D0A0e5C4F27eAD9083C756Cc2",
    "0xC95531a7f6C57456718BCd69a5f64829C7973f11"
  ],
  "solcInputHash": "ec45310c1ebd228212cbc01f9840ea7e",
  "bytecode": "0x60c06040523480156200001157600080fd5b50604051620042ad380380620042ad833981016040819052620000349162000181565b806001600160a01b038116620000675760405162461bcd60e51b81526004016200005e90620001b8565b60405180910390fd5b60601b6001600160601b03191660805260006200008362000160565b600480546001600160a01b0319166001600160a01b038316908117909155604051919250906000907f8be0079c531659141344cd1fd0a4f28419497f9722a3daafe3b4186f6b6457e0908290a3505060056020527f537021d9dfb727ce5191413e87a94a4e343eabd778ac8b2a89ded0b4b2b9a47b8054600160ff19918216811790925573c0aee478e3658e2610c5f7a4a2e1777ce9e4f2ac6000527f5fd1cb0dd0cf0ae36b78e699a0bd1886c0a6d0dfe27df081bf43ee87af44b4e38054909116909117905560601b6001600160601b03191660a052620001fa565b3390565b80516001600160a01b03811681146200017c57600080fd5b919050565b6000806040838503121562000194578182fd5b6200019f8362000164565b9150620001af6020840162000164565b90509250929050565b60208082526022908201527f506c656173652070726f766964652076616c696420726f6c6573206164647265604082015261737360f01b606082015260800190565b60805160601c60a05160601c61405662000257600039600081816109130152818161167401528181611731015281816117a6015281816117ef015261184301526000818161056001528181610a930152610af201526140566000f3fe6080604052600436106101b75760003560e01c8063715018a6116100ec578063ad5c46481161008a578063e9c3f77d11610064578063e9c3f77d146104a3578063eedb97c7146104c3578063f2fde38b146104e3578063fab5268914610503576101b7565b8063ad5c46481461044e578063bb7b9c7614610463578063e3e0626b14610483576101b7565b80638824cbba116100c65780638824cbba146103ef5780638da5cb5b1461041c57806394427b2014610431578063ab560e1014610439576101b7565b8063715018a61461038d5780637a1a04df146103a25780637fa82de4146103cf576101b7565b8063447d52ba116101595780635821eae5116101335780635821eae51461030b5780635adbeb151461032b57806369698670146103585780636fdcb2b91461036d576101b7565b8063447d52ba146102b6578063541bcb76146102d657806355696b1a146102eb576101b7565b8063192128b211610195578063192128b2146102345780631dce3baa146102545780632864f40114610274578063392f5f6414610294576101b7565b8063071060a6146101bc5780630d873d5e146101de5780631306d90214610214575b600080fd5b3480156101c857600080fd5b506101dc6101d7366004613616565b610523565b005b3480156101ea57600080fd5b506101fe6101f93660046133db565b610638565b60405161020b9190613851565b60405180910390f35b34801561022057600080fd5b506101dc61022f366004613356565b6106d8565b34801561024057600080fd5b506101fe61024f366004613381565b6108ad565b34801561026057600080fd5b506101dc61026f366004613616565b6108ed565b34801561028057600080fd5b506101dc61028f3660046134b3565b6109fa565b3480156102a057600080fd5b506102a9610a91565b60405161020b9190613748565b3480156102c257600080fd5b506101dc6102d1366004613646565b610ab5565b3480156102e257600080fd5b506102a9610bdc565b3480156102f757600080fd5b506101fe610306366004613443565b610bf4565b34801561031757600080fd5b506101fe610326366004613443565b610e81565b34801561033757600080fd5b5061034b61034636600461331e565b6110ff565b60405161020b9190613cf6565b34801561036457600080fd5b506101dc61111c565b34801561037957600080fd5b506101fe6103883660046133db565b611361565b34801561039957600080fd5b506101dc6113ef565b3480156103ae57600080fd5b506103c26103bd366004613356565b6114d1565b60405161020b9190613895565b3480156103db57600080fd5b506101dc6103ea3660046132df565b6114f1565b3480156103fb57600080fd5b5061040f61040a3660046132df565b6115b3565b60405161020b9190613dc0565b34801561042857600080fd5b506102a96115c8565b6101dc6115e4565b34801561044557600080fd5b506102a9611829565b34801561045a57600080fd5b506102a9611841565b34801561046f57600080fd5b506101fe61047e366004613381565b611865565b34801561048f57600080fd5b506101dc61049e366004613356565b6118a5565b3480156104af57600080fd5b506102a96104be366004613616565b6119d0565b3480156104cf57600080fd5b506101dc6104de366004613356565b6119f8565b3480156104ef57600080fd5b506101dc6104fe3660046132df565b611b20565b34801561050f57600080fd5b506103c261051e3660046132df565b611c6e565b6040517fb4ed0b6d00000000000000000000000000000000000000000000000000000000815273ffffffffffffffffffffffffffffffffffffffff7f0000000000000000000000000000000000000000000000000000000000000000169063b4ed0b6d90610595908490600401613cf6565b60206040518083038186803b1580156105ad57600080fd5b505afa1580156105c1573d6000803e3d6000fd5b505050506040513d601f19601f820116820180604052508101906105e59190613302565b60009182526020829052604090912080547fffffffffffffffffffffffff00000000000000000000000000000000000000001673ffffffffffffffffffffffffffffffffffffffff909216919091179055565b606061064333611c83565b610682576040517f08c379a0000000000000000000000000000000000000000000000000000000008152600401610679906138fd565b60405180910390fd5b6106c08686858580806020026020016040519081016040528093929190818152602001838360200280828437600092019190915250611cbe92505050565b90506106cf8682868686611f1d565b95945050505050565b6106e0612196565b73ffffffffffffffffffffffffffffffffffffffff1663b3db428b3384846040518463ffffffff1660e01b815260040161071c939291906137aa565b600060405180830381600087803b15801561073657600080fd5b505af115801561074a573d6000803e3d6000fd5b5050505060006107586121db565b73ffffffffffffffffffffffffffffffffffffffff166352a664d93385856040518463ffffffff1660e01b8152600401610794939291906137aa565b602060405180830381600087803b1580156107ae57600080fd5b505af11580156107c2573d6000803e3d6000fd5b505050506040513d601f19601f820116820180604052508101906107e6919061362e565b9050801561086d576107f6612220565b73ffffffffffffffffffffffffffffffffffffffff16632a6a897b84836040518363ffffffff1660e01b815260040161083092919061382b565b600060405180830381600087803b15801561084a57600080fd5b505af115801561085e573d6000803e3d6000fd5b5050505061086d338483612265565b7f2f7971a38b280a622029ac616d8d562df278b4b5839a7b124c33a1715ae092993384846040516108a0939291906137aa565b60405180910390a1505050565b60606106cf858585858080602002602001604051908101604052809392919081815260200183836020028082843760009201919091525061234592505050565b6108f56121db565b73ffffffffffffffffffffffffffffffffffffffff1663d0eb6653337f0000000000000000000000000000000000000000000000000000000000000000846040518463ffffffff1660e01b8152600401610951939291906137aa565b600060405180830381600087803b15801561096b57600080fd5b505af115801561097f573d6000803e3d6000fd5b5050505061098b612196565b73ffffffffffffffffffffffffffffffffffffffff16634782f77933836040518363ffffffff1660e01b81526004016109c592919061382b565b600060405180830381600087803b1580156109df57600080fd5b505af11580156109f3573d6000803e3d6000fd5b5050505050565b610a033361259a565b610a39576040517f08c379a0000000000000000000000000000000000000000000000000000000008152600401610679906138a0565b73ffffffffffffffffffffffffffffffffffffffff91909116600090815260026020526040902080547fffffffffffffffffffffffffffffffffffffffffffffffffffffffffffffff001660ff909216919091179055565b7f000000000000000000000000000000000000000000000000000000000000000081565b6040517f93552a3d00000000000000000000000000000000000000000000000000000000815273ffffffffffffffffffffffffffffffffffffffff7f000000000000000000000000000000000000000000000000000000000000000016906393552a3d90610b299085908590600401613cff565b60206040518083038186803b158015610b4157600080fd5b505afa158015610b55573d6000803e3d6000fd5b505050506040513d601f19601f82011682018060405250810190610b7991906135a8565b73ffffffffffffffffffffffffffffffffffffffff9190911660009081526001602090815260408083209483529390529190912080547fffffffffffffffffffffffffffffffffffffffffffffffffffffffffffffff0016911515919091179055565b735c69bee701ef814a2b6a3edd4b1652cb9cc5aa6f81565b60608142811015610c31576040517f08c379a000000000000000000000000000000000000000000000000000000000815260040161067990613b97565b6000610c3b6125d1565b73ffffffffffffffffffffffffffffffffffffffff1663fa8b2f6a87876000818110610c90577f4e487b7100000000000000000000000000000000000000000000000000000000600052603260045260246000fd5b9050602002016020810190610ca591906132df565b8a6040518363ffffffff1660e01b8152600401610cc392919061382b565b602060405180830381600087803b158015610cdd57600080fd5b505af1158015610cf1573d6000803e3d6000fd5b505050506040513d601f19601f82011682018060405250810190610d15919061362e565b9050610d2089612616565b610d6789610d2e838b613f1b565b888880806020026020016040519081016040528093929190818152602001838360200280828437600092019190915250611cbe92505050565b9250610e683387876000818110610da7577f4e487b7100000000000000000000000000000000000000000000000000000000600052603260045260246000fd5b9050602002016020810190610dbc91906132df565b8888610dc9600182613f1b565b818110610dff577f4e487b7100000000000000000000000000000000000000000000000000000000600052603260045260246000fd5b9050602002016020810190610e1491906132df565b8b8760018951610e249190613f1b565b81518110610e5b577f4e487b7100000000000000000000000000000000000000000000000000000000600052603260045260246000fd5b60200260200101516126e0565b610e758984898989611f1d565b50509695505050505050565b60608142811015610ebe576040517f08c379a000000000000000000000000000000000000000000000000000000000815260040161067990613b97565b6000610ec86125d1565b73ffffffffffffffffffffffffffffffffffffffff1663d7c82c4f8787610ef0600182613f1b565b818110610f26577f4e487b7100000000000000000000000000000000000000000000000000000000600052603260045260246000fd5b9050602002016020810190610f3b91906132df565b8a6040518363ffffffff1660e01b8152600401610f5992919061382b565b602060405180830381600087803b158015610f7357600080fd5b505af1158015610f87573d6000803e3d6000fd5b505050506040513d601f19601f82011682018060405250810190610fab919061362e565b9050610fb689612616565b610ffd89610fc4838b613e8d565b88888080602002602001604051908101604052809392919081815260200183836020028082843760009201919091525061234592505050565b92506110f2338787600081811061103d577f4e487b7100000000000000000000000000000000000000000000000000000000600052603260045260246000fd5b905060200201602081019061105291906132df565b888861105f600182613f1b565b818110611095577f4e487b7100000000000000000000000000000000000000000000000000000000600052603260045260246000fd5b90506020020160208101906110aa91906132df565b866000815181106110e4577f4e487b7100000000000000000000000000000000000000000000000000000000600052603260045260246000fd5b60200260200101518c6126e0565b610e7589848989896128d7565b600360209081526000928352604080842090915290825290205481565b6000806111276121db565b73ffffffffffffffffffffffffffffffffffffffff1663409fdb72336040518263ffffffff1660e01b815260040161115f9190613748565b60006040518083038186803b15801561117757600080fd5b505afa15801561118b573d6000803e3d6000fd5b505050506040513d6000823e601f3d9081017fffffffffffffffffffffffffffffffffffffffffffffffffffffffffffffffe01682016040526111d191908101906134e5565b915091506111dd6121db565b73ffffffffffffffffffffffffffffffffffffffff1663db2d904d336040518263ffffffff1660e01b81526004016112159190613748565b600060405180830381600087803b15801561122f57600080fd5b505af1158015611243573d6000803e3d6000fd5b5050505060005b808351111561135c5761125b612196565b73ffffffffffffffffffffffffffffffffffffffff1663d9caed128483815181106112af577f4e487b7100000000000000000000000000000000000000000000000000000000600052603260045260246000fd5b6020026020010151338585815181106112f1577f4e487b7100000000000000000000000000000000000000000000000000000000600052603260045260246000fd5b60200260200101516040518463ffffffff1660e01b8152600401611317939291906137aa565b600060405180830381600087803b15801561133157600080fd5b505af1158015611345573d6000803e3d6000fd5b50505050808061135490613f67565b91505061124a565b505050565b606061136c33611c83565b6113a2576040517f08c379a0000000000000000000000000000000000000000000000000000000008152600401610679906138fd565b6113e0868685858080602002602001604051908101604052809392919081815260200183836020028082843760009201919091525061234592505050565b90506106cf86828686866128d7565b6113f7612952565b73ffffffffffffffffffffffffffffffffffffffff166114156115c8565b73ffffffffffffffffffffffffffffffffffffffff1614611462576040517f08c379a000000000000000000000000000000000000000000000000000000000815260040161067990613b62565b60045460405160009173ffffffffffffffffffffffffffffffffffffffff16907f8be0079c531659141344cd1fd0a4f28419497f9722a3daafe3b4186f6b6457e0908390a3600480547fffffffffffffffffffffffff0000000000000000000000000000000000000000169055565b600160209081526000928352604080842090915290825290205460ff1681565b6114f9612952565b73ffffffffffffffffffffffffffffffffffffffff166115176115c8565b73ffffffffffffffffffffffffffffffffffffffff1614611564576040517f08c379a000000000000000000000000000000000000000000000000000000000815260040161067990613b62565b73ffffffffffffffffffffffffffffffffffffffff16600090815260056020526040902080547fffffffffffffffffffffffffffffffffffffffffffffffffffffffffffffff00166001179055565b60026020526000908152604090205460ff1681565b60045473ffffffffffffffffffffffffffffffffffffffff1690565b6115ec612196565b73ffffffffffffffffffffffffffffffffffffffff1663a6a5f9fe346040518263ffffffff1660e01b81526004016000604051808303818588803b15801561163357600080fd5b505af1158015611647573d6000803e3d6000fd5b505050505060006116566121db565b73ffffffffffffffffffffffffffffffffffffffff166352a664d9337f0000000000000000000000000000000000000000000000000000000000000000346040518463ffffffff1660e01b81526004016116b2939291906137aa565b602060405180830381600087803b1580156116cc57600080fd5b505af11580156116e0573d6000803e3d6000fd5b505050506040513d601f19601f82011682018060405250810190611704919061362e565b905080156117cb57611714612220565b73ffffffffffffffffffffffffffffffffffffffff16632a6a897b7f0000000000000000000000000000000000000000000000000000000000000000836040518363ffffffff1660e01b815260040161176e92919061382b565b600060405180830381600087803b15801561178857600080fd5b505af115801561179c573d6000803e3d6000fd5b505050506117cb337f000000000000000000000000000000000000000000000000000000000000000083612265565b7f2f7971a38b280a622029ac616d8d562df278b4b5839a7b124c33a1715ae09299337f00000000000000000000000000000000000000000000000000000000000000003460405161181e939291906137aa565b60405180910390a150565b73c0aee478e3658e2610c5f7a4a2e1777ce9e4f2ac81565b7f000000000000000000000000000000000000000000000000000000000000000081565b60606106cf8585858580806020026020016040519081016040528093929190818152602001838360200280828437600092019190915250611cbe92505050565b6118ad6121db565b73ffffffffffffffffffffffffffffffffffffffff1663d0eb66533384846040518463ffffffff1660e01b81526004016118e9939291906137aa565b600060405180830381600087803b15801561190357600080fd5b505af1158015611917573d6000803e3d6000fd5b50505050611923612196565b73ffffffffffffffffffffffffffffffffffffffff1663d9caed128333846040518463ffffffff1660e01b815260040161195f939291906137aa565b600060405180830381600087803b15801561197957600080fd5b505af115801561198d573d6000803e3d6000fd5b505050507f69725482a69b3feb662528aa4b8028c1f9f6288b9ef746d5c84a847e05ad0d6b3383836040516119c4939291906137aa565b60405180910390a15050565b60006020819052908152604090205473ffffffffffffffffffffffffffffffffffffffff1681565b611a00612220565b73ffffffffffffffffffffffffffffffffffffffff1663ee0862bf83836040518363ffffffff1660e01b8152600401611a3a92919061382b565b600060405180830381600087803b158015611a5457600080fd5b505af1158015611a68573d6000803e3d6000fd5b50505050611a746121db565b73ffffffffffffffffffffffffffffffffffffffff1663498d55eb3384846040518463ffffffff1660e01b8152600401611ab0939291906137aa565b600060405180830381600087803b158015611aca57600080fd5b505af1158015611ade573d6000803e3d6000fd5b50505050611aed338383612956565b7fd160a035f47ba1f22446570a0c0f33960590c1e03b5ae81e67f8fdc4c721f4da3383836040516119c4939291906137aa565b611b28612952565b73ffffffffffffffffffffffffffffffffffffffff16611b466115c8565b73ffffffffffffffffffffffffffffffffffffffff1614611b93576040517f08c379a000000000000000000000000000000000000000000000000000000000815260040161067990613b62565b73ffffffffffffffffffffffffffffffffffffffff8116611be0576040517f08c379a00000000000000000000000000000000000000000000000000000000081526004016106799061395a565b60045460405173ffffffffffffffffffffffffffffffffffffffff8084169216907f8be0079c531659141344cd1fd0a4f28419497f9722a3daafe3b4186f6b6457e090600090a3600480547fffffffffffffffffffffffff00000000000000000000000000000000000000001673ffffffffffffffffffffffffffffffffffffffff92909216919091179055565b60056020526000908152604090205460ff1681565b73ffffffffffffffffffffffffffffffffffffffff811660009081526001602090815260408083206007845290915290205460ff165b919050565b6060600282511015611cfc576040517f08c379a000000000000000000000000000000000000000000000000000000000815260040161067990613a71565b815167ffffffffffffffff811115611d3d577f4e487b7100000000000000000000000000000000000000000000000000000000600052604160045260246000fd5b604051908082528060200260200182016040528015611d66578160200160208202803683370190505b5090508281600081518110611da4577f4e487b7100000000000000000000000000000000000000000000000000000000600052603260045260246000fd5b60200260200101818152505060005b60018351611dc19190613f1b565b811015611f1557600080611e6287868581518110611e08577f4e487b7100000000000000000000000000000000000000000000000000000000600052603260045260246000fd5b602002602001015187866001611e1e9190613e8d565b81518110611e55577f4e487b7100000000000000000000000000000000000000000000000000000000600052603260045260246000fd5b6020026020010151612b26565b91509150611eb1848481518110611ea2577f4e487b7100000000000000000000000000000000000000000000000000000000600052603260045260246000fd5b60200260200101518383612c34565b84611ebd856001613e8d565b81518110611ef4577f4e487b7100000000000000000000000000000000000000000000000000000000600052603260045260246000fd5b60200260200101818152505050508080611f0d90613f67565b915050611db3565b509392505050565b828460018651611f2d9190613f1b565b81518110611f64577f4e487b7100000000000000000000000000000000000000000000000000000000600052603260045260246000fd5b60200260200101511015611fa4576040517f08c379a000000000000000000000000000000000000000000000000000000000815260040161067990613c99565b611fac612196565b73ffffffffffffffffffffffffffffffffffffffff1663d9caed1283836000818110612001577f4e487b7100000000000000000000000000000000000000000000000000000000600052603260045260246000fd5b905060200201602081019061201691906132df565b6120bd8886866000818110612054577f4e487b7100000000000000000000000000000000000000000000000000000000600052603260045260246000fd5b905060200201602081019061206991906132df565b878760018181106120a3577f4e487b7100000000000000000000000000000000000000000000000000000000600052603260045260246000fd5b90506020020160208101906120b891906132df565b612d03565b876000815181106120f7577f4e487b7100000000000000000000000000000000000000000000000000000000600052603260045260246000fd5b60200260200101516040518463ffffffff1660e01b815260040161211d939291906137aa565b600060405180830381600087803b15801561213757600080fd5b505af115801561214b573d6000803e3d6000fd5b505050506109f385858484808060200260200160405190810160405280939291908181526020018383602002808284376000920191909152506121919250612196915050565b612d75565b606560009081526020527f4a7203f705e51df4a56139a9b86b4a0970bed7ab7a3446eaffe2289989c1645c5473ffffffffffffffffffffffffffffffffffffffff1690565b606860009081526020527faa071f48f62aaaa1f6320aaa7bd2ad2d552d05160892c14d699d38c9920d5f995473ffffffffffffffffffffffffffffffffffffffff1690565b606660009081526020527f422cccb7cea5c0e46f340bb7b21b81debac329f72e31669c20ff0f3a05cc2b5b5473ffffffffffffffffffffffffffffffffffffffff1690565b73ffffffffffffffffffffffffffffffffffffffff808416600090815260036020908152604080832093861683529290522054801561233f5773ffffffffffffffffffffffffffffffffffffffff831660009081526002602052604090205460ff166122cf612ffa565b73ffffffffffffffffffffffffffffffffffffffff1663a80167118284866040518463ffffffff1660e01b815260040161230b93929190613dff565b600060405180830381600087803b15801561232557600080fd5b505af1158015612339573d6000803e3d6000fd5b50505050505b50505050565b6060600282511015612383576040517f08c379a000000000000000000000000000000000000000000000000000000000815260040161067990613a71565b815167ffffffffffffffff8111156123c4577f4e487b7100000000000000000000000000000000000000000000000000000000600052604160045260246000fd5b6040519080825280602002602001820160405280156123ed578160200160208202803683370190505b5090508281600183516124009190613f1b565b81518110612437577f4e487b7100000000000000000000000000000000000000000000000000000000600052603260045260246000fd5b6020026020010181815250506000600183516124539190613f1b565b90505b8015611f15576000806124e7878661246f600187613f1b565b815181106124a6577f4e487b7100000000000000000000000000000000000000000000000000000000600052603260045260246000fd5b6020026020010151878681518110611e55577f4e487b7100000000000000000000000000000000000000000000000000000000600052603260045260246000fd5b91509150612536848481518110612527577f4e487b7100000000000000000000000000000000000000000000000000000000600052603260045260246000fd5b6020026020010151838361303f565b84612542600186613f1b565b81518110612579577f4e487b7100000000000000000000000000000000000000000000000000000000600052603260045260246000fd5b6020026020010181815250505050808061259290613f32565b915050612456565b73ffffffffffffffffffffffffffffffffffffffff1660009081526001602090815260408083206009845290915290205460ff1690565b606960009081526020527f366a7b92acda364086cc991f618bf9f10b629ec0f7ae94543f96b691b69ec9925473ffffffffffffffffffffffffffffffffffffffff1690565b73ffffffffffffffffffffffffffffffffffffffff8116735c69bee701ef814a2b6a3edd4b1652cb9cc5aa6f1480612677575073ffffffffffffffffffffffffffffffffffffffff811673c0aee478e3658e2610c5f7a4a2e1777ce9e4f2ac145b806126a7575073ffffffffffffffffffffffffffffffffffffffff811660009081526005602052604090205460ff165b6126dd576040517f08c379a000000000000000000000000000000000000000000000000000000000815260040161067990613c05565b50565b6000806126eb6121db565b73ffffffffffffffffffffffffffffffffffffffff16633500aa0b88888888886040518663ffffffff1660e01b815260040161272b959493929190613769565b6040805180830381600087803b15801561274457600080fd5b505af1158015612758573d6000803e3d6000fd5b505050506040513d601f19601f8201168201806040525081019061277c919061366a565b909250905081156128065761278f612220565b73ffffffffffffffffffffffffffffffffffffffff16632a6a897b86846040518363ffffffff1660e01b81526004016127c992919061382b565b600060405180830381600087803b1580156127e357600080fd5b505af11580156127f7573d6000803e3d6000fd5b50505050612806878684612265565b801561288b57612814612220565b73ffffffffffffffffffffffffffffffffffffffff1663ee0862bf87836040518363ffffffff1660e01b815260040161284e92919061382b565b600060405180830381600087803b15801561286857600080fd5b505af115801561287c573d6000803e3d6000fd5b5050505061288b878783612956565b7ffda7842105bd0ae9d4c9616a1d48b1e9f17e2d97cb890d021c291e7d1b53929f878786848988886040516128c697969594939291906137db565b60405180910390a150505050505050565b8284600081518110612912577f4e487b7100000000000000000000000000000000000000000000000000000000600052603260045260246000fd5b60200260200101511115611fa4576040517f08c379a000000000000000000000000000000000000000000000000000000000815260040161067990613b05565b3390565b6000612960612ffa565b73ffffffffffffffffffffffffffffffffffffffff80861660009081526003602090815260408083209388168352928152828220546002909152919020549192509060ff168115612a38576040517ff542808700000000000000000000000000000000000000000000000000000000815273ffffffffffffffffffffffffffffffffffffffff84169063f542808790612a0190849086908990600401613dff565b600060405180830381600087803b158015612a1b57600080fd5b505af1158015612a2f573d6000803e3d6000fd5b50505050612b1e565b6040517f583d861600000000000000000000000000000000000000000000000000000000815273ffffffffffffffffffffffffffffffffffffffff84169063583d861690612a8e9084908a908990600401613dce565b602060405180830381600087803b158015612aa857600080fd5b505af1158015612abc573d6000803e3d6000fd5b505050506040513d601f19601f82011682018060405250810190612ae0919061362e565b91508115612b1e5773ffffffffffffffffffffffffffffffffffffffff80871660009081526003602090815260408083209389168352929052208290555b505050505050565b6000806000612b358585613114565b509050600080612b46888888612d03565b73ffffffffffffffffffffffffffffffffffffffff16630902f1ac6040518163ffffffff1660e01b815260040160606040518083038186803b158015612b8b57600080fd5b505afa158015612b9f573d6000803e3d6000fd5b505050506040513d601f19601f82011682018060405250810190612bc391906135c8565b506dffffffffffffffffffffffffffff1691506dffffffffffffffffffffffffffff1691508273ffffffffffffffffffffffffffffffffffffffff168773ffffffffffffffffffffffffffffffffffffffff1614612c22578082612c25565b81815b90999098509650505050505050565b6000808411612c6f576040517f08c379a000000000000000000000000000000000000000000000000000000000815260040161067990613c3c565b600083118015612c7f5750600082115b612cb5576040517f08c379a000000000000000000000000000000000000000000000000000000000815260040161067990613aa8565b6000612cc3856103e5613ede565b90506000612cd18483613ede565b9050600082612ce2876103e8613ede565b612cec9190613e8d565b9050612cf88183613ea5565b979650505050505050565b6000806000612d128585613114565b91509150858282604051602001612d2a92919061368d565b60405160208183030381529060405280519060200120604051602001612d519291906136c7565b6040516020818303038152906040528051906020012060601c925050509392505050565b60005b60018351612d869190613f1b565b8110156109f357600080848381518110612dc9577f4e487b7100000000000000000000000000000000000000000000000000000000600052603260045260246000fd5b602002602001015185846001612ddf9190613e8d565b81518110612e16577f4e487b7100000000000000000000000000000000000000000000000000000000600052603260045260246000fd5b6020026020010151915091506000612e2e8383613114565b509050600087612e3f866001613e8d565b81518110612e76577f4e487b7100000000000000000000000000000000000000000000000000000000600052603260045260246000fd5b602002602001015190506000808373ffffffffffffffffffffffffffffffffffffffff168673ffffffffffffffffffffffffffffffffffffffff1614612ebe57826000612ec2565b6000835b91509150600060028a51612ed69190613f1b565b8810612ee25788612f37565b612f378c878c612ef38c6002613e8d565b81518110612f2a577f4e487b7100000000000000000000000000000000000000000000000000000000600052603260045260246000fd5b6020026020010151612d03565b9050612f448c8888612d03565b73ffffffffffffffffffffffffffffffffffffffff1663022c0d9f84848460006040519080825280601f01601f191660200182016040528015612f8e576020820181803683370190505b506040518563ffffffff1660e01b8152600401612fae9493929190613d23565b600060405180830381600087803b158015612fc857600080fd5b505af1158015612fdc573d6000803e3d6000fd5b50505050505050505050508080612ff290613f67565b915050612d78565b606c60009081526020527f3c1fcba39712202dbd455253568bf32dd0a3bedb5c3ff0de4b22d4e45e50dc925473ffffffffffffffffffffffffffffffffffffffff1690565b600080841161307a576040517f08c379a0000000000000000000000000000000000000000000000000000000008152600401610679906139b7565b60008311801561308a5750600082115b6130c0576040517f08c379a000000000000000000000000000000000000000000000000000000000815260040161067990613aa8565b60006130cc8585613ede565b6130d8906103e8613ede565b905060006103e56130e98786613f1b565b6130f39190613f1b565b90506130ff8183613ea5565b61310a906001613e8d565b9695505050505050565b6000808273ffffffffffffffffffffffffffffffffffffffff168473ffffffffffffffffffffffffffffffffffffffff16141561317d576040517f08c379a000000000000000000000000000000000000000000000000000000000815260040161067990613a14565b8273ffffffffffffffffffffffffffffffffffffffff168473ffffffffffffffffffffffffffffffffffffffff16106131b75782846131ba565b83835b909250905073ffffffffffffffffffffffffffffffffffffffff821661320c576040517f08c379a000000000000000000000000000000000000000000000000000000000815260040161067990613bce565b9250929050565b60008083601f840112613224578182fd5b50813567ffffffffffffffff81111561323b578182fd5b602083019150836020808302850101111561320c57600080fd5b600082601f830112613265578081fd5b8151602061327a61327583613e69565b613e1a565b8281528181019085830183850287018401881015613296578586fd5b855b858110156132b457815184529284019290840190600101613298565b5090979650505050505050565b80516dffffffffffffffffffffffffffff81168114611cb957600080fd5b6000602082840312156132f0578081fd5b81356132fb81613ffe565b9392505050565b600060208284031215613313578081fd5b81516132fb81613ffe565b60008060408385031215613330578081fd5b823561333b81613ffe565b9150602083013561334b81613ffe565b809150509250929050565b60008060408385031215613368578182fd5b823561337381613ffe565b946020939093013593505050565b60008060008060608587031215613396578182fd5b84356133a181613ffe565b935060208501359250604085013567ffffffffffffffff8111156133c3578283fd5b6133cf87828801613213565b95989497509550505050565b6000806000806000608086880312156133f2578081fd5b85356133fd81613ffe565b94506020860135935060408601359250606086013567ffffffffffffffff811115613426578182fd5b61343288828901613213565b969995985093965092949392505050565b60008060008060008060a0878903121561345b578081fd5b863561346681613ffe565b95506020870135945060408701359350606087013567ffffffffffffffff81111561348f578182fd5b61349b89828a01613213565b979a9699509497949695608090950135949350505050565b600080604083850312156134c5578182fd5b82356134d081613ffe565b9150602083013560ff8116811461334b578182fd5b600080604083850312156134f7578182fd5b825167ffffffffffffffff8082111561350e578384fd5b818501915085601f830112613521578384fd5b8151602061353161327583613e69565b82815281810190858301838502870184018b101561354d578889fd5b8896505b8487101561357857805161356481613ffe565b835260019690960195918301918301613551565b5091880151919650909350505080821115613591578283fd5b5061359e85828601613255565b9150509250929050565b6000602082840312156135b9578081fd5b815180151581146132fb578182fd5b6000806000606084860312156135dc578081fd5b6135e5846132c1565b92506135f3602085016132c1565b9150604084015163ffffffff8116811461360b578182fd5b809150509250925092565b600060208284031215613627578081fd5b5035919050565b60006020828403121561363f578081fd5b5051919050565b60008060408385031215613658578182fd5b82359150602083013561334b81613ffe565b6000806040838503121561367c578182fd5b505080516020909101519092909150565b7fffffffffffffffffffffffffffffffffffffffff000000000000000000000000606093841b811682529190921b16601482015260280190565b7fff00000000000000000000000000000000000000000000000000000000000000815260609290921b7fffffffffffffffffffffffffffffffffffffffff00000000000000000000000016600183015260158201527f96e8ac4277198ff8b6f785478aa9a39f403cb768dd02cbee326c3e7da348845f603582015260550190565b73ffffffffffffffffffffffffffffffffffffffff91909116815260200190565b73ffffffffffffffffffffffffffffffffffffffff958616815293851660208501529190931660408301526060820192909252608081019190915260a00190565b73ffffffffffffffffffffffffffffffffffffffff9384168152919092166020820152604081019190915260600190565b73ffffffffffffffffffffffffffffffffffffffff9788168152958716602087015260408601949094526060850192909252909316608083015260a082019290925260c081019190915260e00190565b73ffffffffffffffffffffffffffffffffffffffff929092168252602082015260400190565b6020808252825182820181905260009190848201906040850190845b818110156138895783518352928401929184019160010161386d565b50909695505050505050565b901515815260200190565b6020808252602e908201527f43616c6c6572206e6f7420617574686f72697a656420746f2073657420696e6360408201527f656e74697665207472616e636865000000000000000000000000000000000000606082015260800190565b6020808252603e908201527f43616c6c696e6720636f6e7472616374206973206e6f7420617574686f72697a60408201527f656420746f20747261646520776974682070726f746f636c2066756e64730000606082015260800190565b60208082526026908201527f4f776e61626c653a206e6577206f776e657220697320746865207a65726f206160408201527f6464726573730000000000000000000000000000000000000000000000000000606082015260800190565b6020808252602c908201527f556e697377617056324c6962726172793a20494e53554646494349454e545f4f60408201527f55545055545f414d4f554e540000000000000000000000000000000000000000606082015260800190565b60208082526025908201527f556e697377617056324c6962726172793a204944454e544943414c5f4144445260408201527f4553534553000000000000000000000000000000000000000000000000000000606082015260800190565b6020808252601e908201527f556e697377617056324c6962726172793a20494e56414c49445f504154480000604082015260600190565b60208082526028908201527f556e697377617056324c6962726172793a20494e53554646494349454e545f4c60408201527f4951554944495459000000000000000000000000000000000000000000000000606082015260800190565b60208082526024908201527f4d617267696e526f757465723a204558434553534956455f494e5055545f414d60408201527f4f554e5400000000000000000000000000000000000000000000000000000000606082015260800190565b6020808252818101527f4f776e61626c653a2063616c6c6572206973206e6f7420746865206f776e6572604082015260600190565b60208082526011908201527f5472616465206861732065787069726564000000000000000000000000000000604082015260600190565b6020808252601e908201527f556e697377617056324c6962726172793a205a45524f5f414444524553530000604082015260600190565b6020808252601b908201527f4e6f74207573696e6720616e20617574686f72697a656420414d4d0000000000604082015260600190565b6020808252602b908201527f556e697377617056324c6962726172793a20494e53554646494349454e545f4960408201527f4e5055545f414d4f554e54000000000000000000000000000000000000000000606082015260800190565b60208082526028908201527f4d617267696e526f757465723a20494e53554646494349454e545f4f5554505560408201527f545f414d4f554e54000000000000000000000000000000000000000000000000606082015260800190565b90815260200190565b91825273ffffffffffffffffffffffffffffffffffffffff16602082015260400190565b60008582526020858184015273ffffffffffffffffffffffffffffffffffffffff85166040840152608060608401528351806080850152825b81811015613d785785810183015185820160a001528201613d5c565b81811115613d89578360a083870101525b50601f017fffffffffffffffffffffffffffffffffffffffffffffffffffffffffffffffe0169290920160a0019695505050505050565b60ff91909116815260200190565b60ff93909316835273ffffffffffffffffffffffffffffffffffffffff919091166020830152604082015260600190565b60ff9390931683526020830191909152604082015260600190565b604051601f82017fffffffffffffffffffffffffffffffffffffffffffffffffffffffffffffffe016810167ffffffffffffffff81118282101715613e6157613e61613fcf565b604052919050565b600067ffffffffffffffff821115613e8357613e83613fcf565b5060209081020190565b60008219821115613ea057613ea0613fa0565b500190565b600082613ed9577f4e487b710000000000000000000000000000000000000000000000000000000081526012600452602481fd5b500490565b6000817fffffffffffffffffffffffffffffffffffffffffffffffffffffffffffffffff0483118215151615613f1657613f16613fa0565b500290565b600082821015613f2d57613f2d613fa0565b500390565b600081613f4157613f41613fa0565b507fffffffffffffffffffffffffffffffffffffffffffffffffffffffffffffffff0190565b60007fffffffffffffffffffffffffffffffffffffffffffffffffffffffffffffffff821415613f9957613f99613fa0565b5060010190565b7f4e487b7100000000000000000000000000000000000000000000000000000000600052601160045260246000fd5b7f4e487b7100000000000000000000000000000000000000000000000000000000600052604160045260246000fd5b73ffffffffffffffffffffffffffffffffffffffff811681146126dd57600080fdfea2646970667358221220a9a50ac32ceca34ba2d7982d2a1a5c8410412491397a41ba69678bc1bbe407f764736f6c63430008010033",
  "devdoc": {
    "kind": "dev",
    "methods": {
      "authorizedSwapExactT4T(address,uint256,uint256,address[])": {
        "details": "external function to make swaps on AMM using protocol funds, only for authorized contracts"
      },
      "crossBorrow(address,uint256)": {
        "details": "borrow into cross margin trading account"
      },
      "crossCloseAccount()": {
        "details": "close an account that is no longer borrowing and return gains"
      },
      "crossDeposit(address,uint256)": {
        "details": "traders call this to deposit funds on cross margin"
      },
      "crossDepositETH()": {
        "details": "deposit wrapped ehtereum into cross margin account"
      },
      "crossSwapExactTokensForTokens(address,uint256,uint256,address[],uint256)": {
        "details": "entry point for swapping tokens held in cross margin account"
      },
      "crossSwapTokensForExactTokens(address,uint256,uint256,address[],uint256)": {
        "details": "entry point for swapping tokens held in cross margin account"
      },
      "crossWithdraw(address,uint256)": {
        "details": "withdraw deposits/earnings from cross margin account"
      },
      "crossWithdrawETH(uint256)": {
        "details": "withdraw ethereum from cross margin account"
      },
      "owner()": {
        "details": "Returns the address of the current owner."
      },
      "renounceOwnership()": {
        "details": "Leaves the contract without owner. It will not be possible to call `onlyOwner` functions anymore. Can only be called by the current owner. NOTE: Renouncing ownership will leave the contract without an owner, thereby removing any functionality that is only available to the owner."
      },
      "transferOwnership(address)": {
        "details": "Transfers ownership of the contract to a new account (`newOwner`). Can only be called by the current owner."
      }
    },
    "version": 1
  },
  "userdoc": {
    "events": {
      "CrossBorrow(address,address,uint256)": {
        "notice": "emitted upon sucessfully borrowing"
      },
      "CrossDeposit(address,address,uint256)": {
        "notice": "emitted when a trader depoits on cross margin"
      },
      "CrossTrade(address,address,uint256,uint256,address,uint256,uint256)": {
        "notice": "emitted whenever a trade happens"
      },
      "CrossWithdraw(address,address,uint256)": {
        "notice": "emitted when a trader withdraws funds"
      }
    },
    "kind": "user",
    "methods": {
      "WETH()": {
        "notice": "wrapped ETH ERC20 contract"
      },
      "factories(address)": {
        "notice": "different uniswap compatible factories to talk to"
      }
    },
    "version": 1
  },
  "storageLayout": {
    "storage": [
      {
        "astId": 12289,
        "contract": "contracts/MarginRouter.sol:MarginRouter",
        "label": "mainCharacterCache",
        "offset": 0,
        "slot": "0",
        "type": "t_mapping(t_uint256,t_address)"
      },
      {
        "astId": 12295,
        "contract": "contracts/MarginRouter.sol:MarginRouter",
        "label": "roleCache",
        "offset": 0,
        "slot": "1",
        "type": "t_mapping(t_address,t_mapping(t_uint256,t_bool))"
      },
      {
        "astId": 9676,
        "contract": "contracts/MarginRouter.sol:MarginRouter",
        "label": "incentiveTranches",
        "offset": 0,
        "slot": "2",
        "type": "t_mapping(t_address,t_uint8)"
      },
      {
        "astId": 9682,
        "contract": "contracts/MarginRouter.sol:MarginRouter",
        "label": "claimIds",
        "offset": 0,
        "slot": "3",
        "type": "t_mapping(t_address,t_mapping(t_address,t_uint256))"
      },
      {
        "astId": 381,
        "contract": "contracts/MarginRouter.sol:MarginRouter",
        "label": "_owner",
        "offset": 0,
        "slot": "4",
        "type": "t_address"
      },
      {
        "astId": 10613,
        "contract": "contracts/MarginRouter.sol:MarginRouter",
        "label": "factories",
        "offset": 0,
        "slot": "5",
        "type": "t_mapping(t_address,t_bool)"
      }
    ],
    "types": {
      "t_address": {
        "encoding": "inplace",
        "label": "address",
        "numberOfBytes": "20"
      },
      "t_bool": {
        "encoding": "inplace",
        "label": "bool",
        "numberOfBytes": "1"
      },
      "t_mapping(t_address,t_bool)": {
        "encoding": "mapping",
        "key": "t_address",
        "label": "mapping(address => bool)",
        "numberOfBytes": "32",
        "value": "t_bool"
      },
      "t_mapping(t_address,t_mapping(t_address,t_uint256))": {
        "encoding": "mapping",
        "key": "t_address",
        "label": "mapping(address => mapping(address => uint256))",
        "numberOfBytes": "32",
        "value": "t_mapping(t_address,t_uint256)"
      },
      "t_mapping(t_address,t_mapping(t_uint256,t_bool))": {
        "encoding": "mapping",
        "key": "t_address",
        "label": "mapping(address => mapping(uint256 => bool))",
        "numberOfBytes": "32",
        "value": "t_mapping(t_uint256,t_bool)"
      },
      "t_mapping(t_address,t_uint256)": {
        "encoding": "mapping",
        "key": "t_address",
        "label": "mapping(address => uint256)",
        "numberOfBytes": "32",
        "value": "t_uint256"
      },
      "t_mapping(t_address,t_uint8)": {
        "encoding": "mapping",
        "key": "t_address",
        "label": "mapping(address => uint8)",
        "numberOfBytes": "32",
        "value": "t_uint8"
      },
      "t_mapping(t_uint256,t_address)": {
        "encoding": "mapping",
        "key": "t_uint256",
        "label": "mapping(uint256 => address)",
        "numberOfBytes": "32",
        "value": "t_address"
      },
      "t_mapping(t_uint256,t_bool)": {
        "encoding": "mapping",
        "key": "t_uint256",
        "label": "mapping(uint256 => bool)",
        "numberOfBytes": "32",
        "value": "t_bool"
      },
      "t_uint256": {
        "encoding": "inplace",
        "label": "uint256",
        "numberOfBytes": "32"
      },
      "t_uint8": {
        "encoding": "inplace",
        "label": "uint8",
        "numberOfBytes": "1"
      }
    }
  }
}