{
  "address": "0x28d9241fd359dF9B6a335D92F5a2c3AB9845471A",
  "abi": [
    {
      "inputs": [
        {
          "internalType": "address",
          "name": "_WETH",
          "type": "address"
        }
      ],
      "stateMutability": "nonpayable",
      "type": "constructor"
    },
    {
      "inputs": [],
      "name": "WETH",
      "outputs": [
        {
          "internalType": "address",
          "name": "",
          "type": "address"
        }
      ],
      "stateMutability": "view",
      "type": "function"
    },
    {
      "inputs": [
        {
          "internalType": "uint256",
          "name": "outAmount",
          "type": "uint256"
        },
        {
          "internalType": "bytes32",
          "name": "amms",
          "type": "bytes32"
        },
        {
          "internalType": "address[]",
          "name": "tokens",
          "type": "address[]"
        }
      ],
      "name": "getAmountsIn",
      "outputs": [
        {
          "internalType": "uint256[]",
          "name": "amounts",
          "type": "uint256[]"
        }
      ],
      "stateMutability": "view",
      "type": "function"
    },
    {
      "inputs": [
        {
          "internalType": "uint256",
          "name": "inAmount",
          "type": "uint256"
        },
        {
          "internalType": "bytes32",
          "name": "amms",
          "type": "bytes32"
        },
        {
          "internalType": "address[]",
          "name": "tokens",
          "type": "address[]"
        }
      ],
      "name": "getAmountsOut",
      "outputs": [
        {
          "internalType": "uint256[]",
          "name": "amounts",
          "type": "uint256[]"
        }
      ],
      "stateMutability": "view",
      "type": "function"
    },
    {
      "inputs": [
        {
          "internalType": "uint256",
          "name": "amountOut",
          "type": "uint256"
        },
        {
          "internalType": "bytes32",
          "name": "amms",
          "type": "bytes32"
        },
        {
          "internalType": "address[]",
          "name": "tokens",
          "type": "address[]"
        },
        {
          "internalType": "address",
          "name": "to",
          "type": "address"
        },
        {
          "internalType": "uint256",
          "name": "deadline",
          "type": "uint256"
        }
      ],
      "name": "swapETHForExactTokens",
      "outputs": [
        {
          "internalType": "uint256[]",
          "name": "amounts",
          "type": "uint256[]"
        }
      ],
      "stateMutability": "payable",
      "type": "function"
    },
    {
      "inputs": [
        {
          "internalType": "uint256",
          "name": "amountOutMin",
          "type": "uint256"
        },
        {
          "internalType": "bytes32",
          "name": "amms",
          "type": "bytes32"
        },
        {
          "internalType": "address[]",
          "name": "tokens",
          "type": "address[]"
        },
        {
          "internalType": "address",
          "name": "to",
          "type": "address"
        },
        {
          "internalType": "uint256",
          "name": "deadline",
          "type": "uint256"
        }
      ],
      "name": "swapExactETHForTokens",
      "outputs": [
        {
          "internalType": "uint256[]",
          "name": "amounts",
          "type": "uint256[]"
        }
      ],
      "stateMutability": "payable",
      "type": "function"
    },
    {
      "inputs": [
        {
          "internalType": "uint256",
          "name": "amountIn",
          "type": "uint256"
        },
        {
          "internalType": "uint256",
          "name": "amountOutMin",
          "type": "uint256"
        },
        {
          "internalType": "bytes32",
          "name": "amms",
          "type": "bytes32"
        },
        {
          "internalType": "address[]",
          "name": "tokens",
          "type": "address[]"
        },
        {
          "internalType": "address",
          "name": "to",
          "type": "address"
        },
        {
          "internalType": "uint256",
          "name": "deadline",
          "type": "uint256"
        }
      ],
      "name": "swapExactTokensForETH",
      "outputs": [
        {
          "internalType": "uint256[]",
          "name": "amounts",
          "type": "uint256[]"
        }
      ],
      "stateMutability": "nonpayable",
      "type": "function"
    },
    {
      "inputs": [
        {
          "internalType": "uint256",
          "name": "amountIn",
          "type": "uint256"
        },
        {
          "internalType": "uint256",
          "name": "amountOutMin",
          "type": "uint256"
        },
        {
          "internalType": "bytes32",
          "name": "amms",
          "type": "bytes32"
        },
        {
          "internalType": "address[]",
          "name": "tokens",
          "type": "address[]"
        },
        {
          "internalType": "address",
          "name": "to",
          "type": "address"
        },
        {
          "internalType": "uint256",
          "name": "deadline",
          "type": "uint256"
        }
      ],
      "name": "swapExactTokensForTokens",
      "outputs": [
        {
          "internalType": "uint256[]",
          "name": "amounts",
          "type": "uint256[]"
        }
      ],
      "stateMutability": "nonpayable",
      "type": "function"
    },
    {
      "inputs": [
        {
          "internalType": "uint256",
          "name": "amountOut",
          "type": "uint256"
        },
        {
          "internalType": "uint256",
          "name": "amountInMax",
          "type": "uint256"
        },
        {
          "internalType": "bytes32",
          "name": "amms",
          "type": "bytes32"
        },
        {
          "internalType": "address[]",
          "name": "tokens",
          "type": "address[]"
        },
        {
          "internalType": "address",
          "name": "to",
          "type": "address"
        },
        {
          "internalType": "uint256",
          "name": "deadline",
          "type": "uint256"
        }
      ],
      "name": "swapTokensForExactETH",
      "outputs": [
        {
          "internalType": "uint256[]",
          "name": "amounts",
          "type": "uint256[]"
        }
      ],
      "stateMutability": "nonpayable",
      "type": "function"
    },
    {
      "inputs": [
        {
          "internalType": "uint256",
          "name": "amountOut",
          "type": "uint256"
        },
        {
          "internalType": "uint256",
          "name": "amountInMax",
          "type": "uint256"
        },
        {
          "internalType": "bytes32",
          "name": "amms",
          "type": "bytes32"
        },
        {
          "internalType": "address[]",
          "name": "tokens",
          "type": "address[]"
        },
        {
          "internalType": "address",
          "name": "to",
          "type": "address"
        },
        {
          "internalType": "uint256",
          "name": "deadline",
          "type": "uint256"
        }
      ],
      "name": "swapTokensForExactTokens",
      "outputs": [
        {
          "internalType": "uint256[]",
          "name": "amounts",
          "type": "uint256[]"
        }
      ],
      "stateMutability": "nonpayable",
      "type": "function"
    }
  ],
  "transactionHash": "0x9cd27d85088894647fd312ee3f3db7239bfa053d05238b04bcddd94a99b44907",
  "args": [
    "0xd0A1E359811322d97991E03f863a0C30C2cF029C"
  ],
  "solcInputHash": "98484e03027f5e45c05d6e1a942719ef",
  "bytecode": "0x60a06040523480156200001157600080fd5b5060405162002d3838038062002d3883398101604081905262000034916200004a565b60601b6001600160601b0319166080526200007a565b6000602082840312156200005c578081fd5b81516001600160a01b038116811462000073578182fd5b9392505050565b60805160601c612c60620000d8600039600081816101630152818161025f015281816104540152818161097901528181610bdb01528181610d9c01528181610e4501528181610ff4015281816111aa01526112530152612c606000f3fe6080604052600436106100965760003560e01c80639b6b1ce711610069578063b7453e271161004e578063b7453e27146101aa578063d51dc254146101ca578063d7bd007c146101dd57610096565b80639b6b1ce714610131578063ad5c46481461015157610096565b80632c8c29dd1461009b57806336e1437b146100d1578063799d34e1146100f15780637f4da6d414610111575b600080fd5b3480156100a757600080fd5b506100bb6100b636600461297d565b6101f0565b6040516100c89190612a5c565b60405180910390f35b3480156100dd57600080fd5b506100bb6100ec36600461297d565b61055e565b3480156100fd57600080fd5b506100bb61010c3660046128be565b61078c565b34801561011d57600080fd5b506100bb61012c36600461297d565b6107d6565b34801561013d57600080fd5b506100bb61014c36600461297d565b61090f565b34801561015d57600080fd5b506101857f000000000000000000000000000000000000000000000000000000000000000081565b60405173ffffffffffffffffffffffffffffffffffffffff90911681526020016100c8565b3480156101b657600080fd5b506100bb6101c53660046128be565b610b46565b6100bb6101d836600461290f565b610b86565b6100bb6101eb36600461290f565b610f9f565b606081428110156102485760405162461bcd60e51b815260206004820152601160248201527f547261646520686173206578706972656400000000000000000000000000000060448201526064015b60405180910390fd5b73ffffffffffffffffffffffffffffffffffffffff7f000000000000000000000000000000000000000000000000000000000000000016868661028c600182612b63565b8181106102a957634e487b7160e01b600052603260045260246000fd5b90506020020160208101906102be9190612836565b73ffffffffffffffffffffffffffffffffffffffff16146103215760405162461bcd60e51b815260206004820152601860248201527f53706f74526f757465723a20494e56414c49445f504154480000000000000000604482015260640161023f565b60606103618a8989898080602002602001604051908101604052809392919081815260200183836020028082843760009201919091525061143692505050565b815191945091508990849061037890600190612b63565b8151811061039657634e487b7160e01b600052603260045260246000fd5b602002602001015110156104125760405162461bcd60e51b815260206004820152602660248201527f53706f74526f757465723a20494e53554646494349454e545f4f55545055545f60448201527f414d4f554e540000000000000000000000000000000000000000000000000000606482015260840161023f565b6104528382898980806020026020016040519081016040528093929190818152602001838360200280828437600092019190915250309250611747915050565b7f000000000000000000000000000000000000000000000000000000000000000073ffffffffffffffffffffffffffffffffffffffff16632e1a7d4d846001865161049d9190612b63565b815181106104bb57634e487b7160e01b600052603260045260246000fd5b60200260200101516040518263ffffffff1660e01b81526004016104e191815260200190565b600060405180830381600087803b1580156104fb57600080fd5b505af115801561050f573d6000803e3d6000fd5b505050506105518584600186516105269190612b63565b8151811061054457634e487b7160e01b600052603260045260246000fd5b60200260200101516119a3565b5050979650505050505050565b606081428110156105b15760405162461bcd60e51b815260206004820152601160248201527f5472616465206861732065787069726564000000000000000000000000000000604482015260640161023f565b60606105f18a8989898080602002602001604051908101604052809392919081815260200183836020028082843760009201919091525061143692505050565b815191945091508990849061060890600190612b63565b8151811061062657634e487b7160e01b600052603260045260246000fd5b602002602001015110156106a25760405162461bcd60e51b815260206004820152602660248201527f53706f74526f757465723a20494e53554646494349454e545f4f55545055545f60448201527f414d4f554e540000000000000000000000000000000000000000000000000000606482015260840161023f565b61074c33826000815181106106c757634e487b7160e01b600052603260045260246000fd5b6020026020010151856000815181106106f057634e487b7160e01b600052603260045260246000fd5b60200260200101518a8a600081811061071957634e487b7160e01b600052603260045260246000fd5b905060200201602081019061072e9190612836565b73ffffffffffffffffffffffffffffffffffffffff16929190611ace565b61055183828989808060200260200160405190810160405280939291908181526020018383602002808284376000920191909152508b9250611747915050565b60606107cc8585858580806020026020016040519081016040528093929190818152602001838360200280828437600092019190915250611b6992505050565b5095945050505050565b606081428110156108295760405162461bcd60e51b815260206004820152601160248201527f5472616465206861732065787069726564000000000000000000000000000000604482015260640161023f565b60606108698a89898980806020026020016040519081016040528093929190818152602001838360200280828437600092019190915250611b6992505050565b8092508194505050888360008151811061089357634e487b7160e01b600052603260045260246000fd5b602002602001015111156106a25760405162461bcd60e51b815260206004820152602260248201527f53706f74526f757465723a204558434553534956455f494e5055545f414d4f5560448201527f4e54000000000000000000000000000000000000000000000000000000000000606482015260840161023f565b606081428110156109625760405162461bcd60e51b815260206004820152601160248201527f5472616465206861732065787069726564000000000000000000000000000000604482015260640161023f565b73ffffffffffffffffffffffffffffffffffffffff7f00000000000000000000000000000000000000000000000000000000000000001686866109a6600182612b63565b8181106109c357634e487b7160e01b600052603260045260246000fd5b90506020020160208101906109d89190612836565b73ffffffffffffffffffffffffffffffffffffffff1614610a3b5760405162461bcd60e51b815260206004820152601860248201527f53706f74526f757465723a20494e56414c49445f504154480000000000000000604482015260640161023f565b6060610a7b8a89898980806020026020016040519081016040528093929190818152602001838360200280828437600092019190915250611b6992505050565b80925081945050508883600081518110610aa557634e487b7160e01b600052603260045260246000fd5b60200260200101511115610b215760405162461bcd60e51b815260206004820152602260248201527f53706f74526f757465723a204558434553534956455f494e5055545f414d4f5560448201527f4e54000000000000000000000000000000000000000000000000000000000000606482015260840161023f565b61041233826000815181106106c757634e487b7160e01b600052603260045260246000fd5b60606107cc858585858080602002602001604051908101604052809392919081815260200183836020028082843760009201919091525061143692505050565b60608142811015610bd95760405162461bcd60e51b815260206004820152601160248201527f5472616465206861732065787069726564000000000000000000000000000000604482015260640161023f565b7f000000000000000000000000000000000000000000000000000000000000000073ffffffffffffffffffffffffffffffffffffffff1686866000818110610c3157634e487b7160e01b600052603260045260246000fd5b9050602002016020810190610c469190612836565b73ffffffffffffffffffffffffffffffffffffffff1614610ca95760405162461bcd60e51b815260206004820152601860248201527f53706f74526f757465723a20494e56414c49445f504154480000000000000000604482015260640161023f565b6060610ce9348989898080602002602001604051908101604052809392919081815260200183836020028082843760009201919091525061143692505050565b8151919450915089908490610d0090600190612b63565b81518110610d1e57634e487b7160e01b600052603260045260246000fd5b60200260200101511015610d9a5760405162461bcd60e51b815260206004820152602660248201527f53706f74526f757465723a20494e53554646494349454e545f4f55545055545f60448201527f414d4f554e540000000000000000000000000000000000000000000000000000606482015260840161023f565b7f000000000000000000000000000000000000000000000000000000000000000073ffffffffffffffffffffffffffffffffffffffff1663d0e30db084600081518110610df757634e487b7160e01b600052603260045260246000fd5b60200260200101516040518263ffffffff1660e01b81526004016000604051808303818588803b158015610e2a57600080fd5b505af1158015610e3e573d6000803e3d6000fd5b50505050507f000000000000000000000000000000000000000000000000000000000000000073ffffffffffffffffffffffffffffffffffffffff1663a9059cbb82600081518110610ea057634e487b7160e01b600052603260045260246000fd5b6020026020010151346040518363ffffffff1660e01b8152600401610ee792919073ffffffffffffffffffffffffffffffffffffffff929092168252602082015260400190565b602060405180830381600087803b158015610f0157600080fd5b505af1158015610f15573d6000803e3d6000fd5b505050506040513d601f19601f82011682018060405250810190610f399190612850565b610f5357634e487b7160e01b600052600160045260246000fd5b610f9383828989808060200260200160405190810160405280939291908181526020018383602002808284376000920191909152508b9250611747915050565b50509695505050505050565b60608142811015610ff25760405162461bcd60e51b815260206004820152601160248201527f5472616465206861732065787069726564000000000000000000000000000000604482015260640161023f565b7f000000000000000000000000000000000000000000000000000000000000000073ffffffffffffffffffffffffffffffffffffffff168686600081811061104a57634e487b7160e01b600052603260045260246000fd5b905060200201602081019061105f9190612836565b73ffffffffffffffffffffffffffffffffffffffff16146110c25760405162461bcd60e51b815260206004820152601860248201527f53706f74526f757465723a20494e56414c49445f504154480000000000000000604482015260640161023f565b60606111028989898980806020026020016040519081016040528093929190818152602001838360200280828437600092019190915250611b6992505050565b8092508194505050348360008151811061112c57634e487b7160e01b600052603260045260246000fd5b602002602001015111156111a85760405162461bcd60e51b815260206004820152602260248201527f53706f74526f757465723a204558434553534956455f494e5055545f414d4f5560448201527f4e54000000000000000000000000000000000000000000000000000000000000606482015260840161023f565b7f000000000000000000000000000000000000000000000000000000000000000073ffffffffffffffffffffffffffffffffffffffff1663d0e30db08460008151811061120557634e487b7160e01b600052603260045260246000fd5b60200260200101516040518263ffffffff1660e01b81526004016000604051808303818588803b15801561123857600080fd5b505af115801561124c573d6000803e3d6000fd5b50505050507f000000000000000000000000000000000000000000000000000000000000000073ffffffffffffffffffffffffffffffffffffffff1663a9059cbb826000815181106112ae57634e487b7160e01b600052603260045260246000fd5b6020026020010151856000815181106112d757634e487b7160e01b600052603260045260246000fd5b60200260200101516040518363ffffffff1660e01b815260040161131d92919073ffffffffffffffffffffffffffffffffffffffff929092168252602082015260400190565b602060405180830381600087803b15801561133757600080fd5b505af115801561134b573d6000803e3d6000fd5b505050506040513d601f19601f8201168201806040525081019061136f9190612850565b61138957634e487b7160e01b600052600160045260246000fd5b6113c983828989808060200260200160405190810160405280939291908181526020018383602002808284376000920191909152508b9250611747915050565b826000815181106113ea57634e487b7160e01b600052603260045260246000fd5b6020026020010151341115610f9357610f93338460008151811061141e57634e487b7160e01b600052603260045260246000fd5b6020026020010151346114319190612b63565b6119a3565b60608060028351101561148b5760405162461bcd60e51b815260206004820152601460248201527f746f6b656e207061746820746f6f2073686f7274000000000000000000000000604482015260640161023f565b825167ffffffffffffffff8111156114b357634e487b7160e01b600052604160045260246000fd5b6040519080825280602002602001820160405280156114dc578160200160208202803683370190505b509150848260008151811061150157634e487b7160e01b600052603260045260246000fd5b6020026020010181815250506001835161151b9190612b63565b67ffffffffffffffff81111561154157634e487b7160e01b600052604160045260246000fd5b60405190808252806020026020018201604052801561156a578160200160208202803683370190505b50905060005b6001845161157e9190612b63565b81101561173e5760008482815181106115a757634e487b7160e01b600052603260045260246000fd5b602002602001015190506000858360016115c19190612aee565b815181106115df57634e487b7160e01b600052603260045260246000fd5b60200260200101519050600087846020811061160b57634e487b7160e01b600052603260045260246000fd5b1a60f81b7fff000000000000000000000000000000000000000000000000000000000000001615611645576116408383611e92565b61164f565b61164f8383611fb9565b90508085858151811061167257634e487b7160e01b600052603260045260246000fd5b602002602001019073ffffffffffffffffffffffffffffffffffffffff16908173ffffffffffffffffffffffffffffffffffffffff16815250506000806116ba8386866120a5565b915091506116f08887815181106116e157634e487b7160e01b600052603260045260246000fd5b602002602001015183836121a9565b886116fc886001612aee565b8151811061171a57634e487b7160e01b600052603260045260246000fd5b6020026020010181815250505050505050808061173690612bdb565b915050611570565b50935093915050565b60005b835181101561199c5760008084838151811061177657634e487b7160e01b600052603260045260246000fd5b60200260200101518584600161178c9190612aee565b815181106117aa57634e487b7160e01b600052603260045260246000fd5b60200260200101519150915060006117c283836122ca565b5090506000886117d3866001612aee565b815181106117f157634e487b7160e01b600052603260045260246000fd5b602002602001015190506000808373ffffffffffffffffffffffffffffffffffffffff168673ffffffffffffffffffffffffffffffffffffffff16146118395782600061183d565b6000835b91509150600060018b516118519190612b63565b881061185d5788611890565b8a611869896001612aee565b8151811061188757634e487b7160e01b600052603260045260246000fd5b60200260200101515b905060008b89815181106118b457634e487b7160e01b600052603260045260246000fd5b602002602001015190508073ffffffffffffffffffffffffffffffffffffffff1663022c0d9f858585600067ffffffffffffffff81111561190557634e487b7160e01b600052604160045260246000fd5b6040519080825280601f01601f19166020018201604052801561192f576020820181803683370190505b506040518563ffffffff1660e01b815260040161194f9493929190612ab3565b600060405180830381600087803b15801561196957600080fd5b505af115801561197d573d6000803e3d6000fd5b505050505050505050505050808061199490612bdb565b91505061174a565b5050505050565b804710156119f35760405162461bcd60e51b815260206004820152601d60248201527f416464726573733a20696e73756666696369656e742062616c616e6365000000604482015260640161023f565b60008273ffffffffffffffffffffffffffffffffffffffff168260405160006040518083038185875af1925050503d8060008114611a4d576040519150601f19603f3d011682016040523d82523d6000602084013e611a52565b606091505b5050905080611ac95760405162461bcd60e51b815260206004820152603a60248201527f416464726573733a20756e61626c6520746f2073656e642076616c75652c207260448201527f6563697069656e74206d61792068617665207265766572746564000000000000606482015260840161023f565b505050565b6040805173ffffffffffffffffffffffffffffffffffffffff85811660248301528416604482015260648082018490528251808303909101815260849091019091526020810180517bffffffffffffffffffffffffffffffffffffffffffffffffffffffff167f23b872dd00000000000000000000000000000000000000000000000000000000179052611b639085906123f5565b50505050565b606080600283511015611bbe5760405162461bcd60e51b815260206004820152601460248201527f746f6b656e207061746820746f6f2073686f7274000000000000000000000000604482015260640161023f565b825167ffffffffffffffff811115611be657634e487b7160e01b600052604160045260246000fd5b604051908082528060200260200182016040528015611c0f578160200160208202803683370190505b509150848260018451611c229190612b63565b81518110611c4057634e487b7160e01b600052603260045260246000fd5b60200260200101818152505060018351611c5a9190612b63565b67ffffffffffffffff811115611c8057634e487b7160e01b600052604160045260246000fd5b604051908082528060200260200182016040528015611ca9578160200160208202803683370190505b509050600060018451611cbc9190612b63565b90505b801561173e57600084611cd3600184612b63565b81518110611cf157634e487b7160e01b600052603260045260246000fd5b602002602001015190506000858381518110611d1d57634e487b7160e01b600052603260045260246000fd5b60200260200101519050600087600185611d379190612b63565b60208110611d5557634e487b7160e01b600052603260045260246000fd5b1a60f81b7fff000000000000000000000000000000000000000000000000000000000000001615611d8f57611d8a8383611e92565b611d99565b611d998383611fb9565b90508085611da8600187612b63565b81518110611dc657634e487b7160e01b600052603260045260246000fd5b602002602001019073ffffffffffffffffffffffffffffffffffffffff16908173ffffffffffffffffffffffffffffffffffffffff1681525050600080611e0e8386866120a5565b91509150611e44888781518110611e3557634e487b7160e01b600052603260045260246000fd5b602002602001015183836124e7565b88611e50600189612b63565b81518110611e6e57634e487b7160e01b600052603260045260246000fd5b60200260200101818152505050505050508080611e8a90612ba6565b915050611cbf565b6000806000611ea185856122ca565b60408051606084811b7fffffffffffffffffffffffffffffffffffffffff0000000000000000000000009081166020808501919091529185901b166034830152825160288184030181526048830190935282519201919091207fff0000000000000000000000000000000000000000000000000000000000000060688301527fc0aee478e3658e2610c5f7a4a2e1777ce9e4f2ac0000000000000000000000006069830152607d8201527fe18a34eb0e04b04f7a0ac29a6e80748dca96319b42c54d679cb821dca90c6303609d820152919350915060bd015b604080517fffffffffffffffffffffffffffffffffffffffffffffffffffffffffffffffe0818403018152919052805160209091012095945050505050565b6000806000611fc885856122ca565b60408051606084811b7fffffffffffffffffffffffffffffffffffffffff0000000000000000000000009081166020808501919091529185901b166034830152825160288184030181526048830190935282519201919091207fff0000000000000000000000000000000000000000000000000000000000000060688301527f5c69bee701ef814a2b6a3edd4b1652cb9cc5aa6f0000000000000000000000006069830152607d8201527f96e8ac4277198ff8b6f785478aa9a39f403cb768dd02cbee326c3e7da348845f609d820152919350915060bd01611f7a565b60008060006120b485856122ca565b5090506000808773ffffffffffffffffffffffffffffffffffffffff16630902f1ac6040518163ffffffff1660e01b815260040160606040518083038186803b15801561210057600080fd5b505afa158015612114573d6000803e3d6000fd5b505050506040513d601f19601f820116820180604052508101906121389190612870565b506dffffffffffffffffffffffffffff1691506dffffffffffffffffffffffffffff1691508273ffffffffffffffffffffffffffffffffffffffff168773ffffffffffffffffffffffffffffffffffffffff161461219757808261219a565b81815b90999098509650505050505050565b60008084116121fa5760405162461bcd60e51b815260206004820152601960248201527f494e53554646494349454e545f494e5055545f414d4f554e5400000000000000604482015260640161023f565b60008311801561220a5750600082115b61227c5760405162461bcd60e51b815260206004820152602860248201527f556e697377617056324c6962726172793a20494e53554646494349454e545f4c60448201527f4951554944495459000000000000000000000000000000000000000000000000606482015260840161023f565b600061228a856103e5612b26565b905060006122988483612b26565b90506000826122a9876103e8612b26565b6122b39190612aee565b90506122bf8183612b06565b979650505050505050565b6000808273ffffffffffffffffffffffffffffffffffffffff168473ffffffffffffffffffffffffffffffffffffffff1614156123495760405162461bcd60e51b815260206004820152601260248201527f4964656e746963616c2061646472657373210000000000000000000000000000604482015260640161023f565b8273ffffffffffffffffffffffffffffffffffffffff168473ffffffffffffffffffffffffffffffffffffffff1610612383578284612386565b83835b909250905073ffffffffffffffffffffffffffffffffffffffff82166123ee5760405162461bcd60e51b815260206004820152600d60248201527f5a65726f20616464726573732100000000000000000000000000000000000000604482015260640161023f565b9250929050565b6000612457826040518060400160405280602081526020017f5361666545524332303a206c6f772d6c6576656c2063616c6c206661696c65648152508573ffffffffffffffffffffffffffffffffffffffff1661260d9092919063ffffffff16565b805190915015611ac957808060200190518101906124759190612850565b611ac95760405162461bcd60e51b815260206004820152602a60248201527f5361666545524332303a204552433230206f7065726174696f6e20646964206e60448201527f6f74207375636365656400000000000000000000000000000000000000000000606482015260840161023f565b60008084116125385760405162461bcd60e51b815260206004820152601a60248201527f494e53554646494349454e545f4f55545055545f414d4f554e54000000000000604482015260640161023f565b6000831180156125485750600082115b6125ba5760405162461bcd60e51b815260206004820152602860248201527f556e697377617056324c6962726172793a20494e53554646494349454e545f4c60448201527f4951554944495459000000000000000000000000000000000000000000000000606482015260840161023f565b60006125c68585612b26565b6125d2906103e8612b26565b905060006125e08685612b63565b6125ec906103e5612b26565b90506125f88183612b06565b612603906001612aee565b9695505050505050565b606061261c8484600085612626565b90505b9392505050565b60608247101561269e5760405162461bcd60e51b815260206004820152602660248201527f416464726573733a20696e73756666696369656e742062616c616e636520666f60448201527f722063616c6c0000000000000000000000000000000000000000000000000000606482015260840161023f565b6126a78561276e565b6126f35760405162461bcd60e51b815260206004820152601d60248201527f416464726573733a2063616c6c20746f206e6f6e2d636f6e7472616374000000604482015260640161023f565b6000808673ffffffffffffffffffffffffffffffffffffffff16858760405161271c9190612a40565b60006040518083038185875af1925050503d8060008114612759576040519150601f19603f3d011682016040523d82523d6000602084013e61275e565b606091505b50915091506122bf828286612778565b803b15155b919050565b6060831561278757508161261f565b8251156127975782518084602001fd5b8160405162461bcd60e51b815260040161023f9190612aa0565b803573ffffffffffffffffffffffffffffffffffffffff8116811461277357600080fd5b60008083601f8401126127e6578182fd5b50813567ffffffffffffffff8111156127fd578182fd5b6020830191508360208260051b85010111156123ee57600080fd5b80516dffffffffffffffffffffffffffff8116811461277357600080fd5b600060208284031215612847578081fd5b61261f826127b1565b600060208284031215612861578081fd5b8151801515811461261f578182fd5b600080600060608486031215612884578182fd5b61288d84612818565b925061289b60208501612818565b9150604084015163ffffffff811681146128b3578182fd5b809150509250925092565b600080600080606085870312156128d3578081fd5b8435935060208501359250604085013567ffffffffffffffff8111156128f7578182fd5b612903878288016127d5565b95989497509550505050565b60008060008060008060a08789031215612927578182fd5b8635955060208701359450604087013567ffffffffffffffff81111561294b578283fd5b61295789828a016127d5565b909550935061296a9050606088016127b1565b9150608087013590509295509295509295565b600080600080600080600060c0888a031215612997578081fd5b873596506020880135955060408801359450606088013567ffffffffffffffff8111156129c2578182fd5b6129ce8a828b016127d5565b90955093506129e19050608089016127b1565b915060a0880135905092959891949750929550565b60008151808452612a0e816020860160208601612b7a565b601f017fffffffffffffffffffffffffffffffffffffffffffffffffffffffffffffffe0169290920160200192915050565b60008251612a52818460208701612b7a565b9190910192915050565b6020808252825182820181905260009190848201906040850190845b81811015612a9457835183529284019291840191600101612a78565b50909695505050505050565b60006020825261261f60208301846129f6565b600085825284602083015273ffffffffffffffffffffffffffffffffffffffff841660408301526080606083015261260360808301846129f6565b60008219821115612b0157612b01612c14565b500190565b600082612b2157634e487b7160e01b81526012600452602481fd5b500490565b6000817fffffffffffffffffffffffffffffffffffffffffffffffffffffffffffffffff0483118215151615612b5e57612b5e612c14565b500290565b600082821015612b7557612b75612c14565b500390565b60005b83811015612b95578181015183820152602001612b7d565b83811115611b635750506000910152565b600081612bb557612bb5612c14565b507fffffffffffffffffffffffffffffffffffffffffffffffffffffffffffffffff0190565b60007fffffffffffffffffffffffffffffffffffffffffffffffffffffffffffffffff821415612c0d57612c0d612c14565b5060010190565b634e487b7160e01b600052601160045260246000fdfea26469706673582212207787e4c75d36ae5cc60fdae64c9fcd61113907d8dae9ad3eb59e535d90c1fa8364736f6c63430008030033",
  "devdoc": {
    "kind": "dev",
    "methods": {},
    "title": "Router for spot trading on uniswap and sushiswap jointly the paramater amms represents the choice of amm pair along the route it is a bytes32 value where amms[i] == 0 for uniswap and amms[i] == 1 for sushi",
    "version": 1
  },
  "userdoc": {
    "kind": "user",
    "methods": {},
    "version": 1
  },
  "storageLayout": {
    "storage": [],
    "types": null
  }
}