{
  "address": "0xF3275cB2d23d38DF9F933cD0deBa301450f1C948",
  "abi": [
    {
      "inputs": [
        {
          "internalType": "address",
          "name": "_WETH",
          "type": "address"
        }
      ],
      "stateMutability": "nonpayable",
      "type": "constructor"
    },
    {
      "inputs": [],
      "name": "WETH",
      "outputs": [
        {
          "internalType": "address",
          "name": "",
          "type": "address"
        }
      ],
      "stateMutability": "view",
      "type": "function"
    },
    {
      "inputs": [
        {
          "internalType": "uint256",
          "name": "outAmount",
          "type": "uint256"
        },
        {
          "internalType": "address[]",
          "name": "pairs",
          "type": "address[]"
        },
        {
          "internalType": "address[]",
          "name": "tokens",
          "type": "address[]"
        }
      ],
      "name": "getAmountsIn",
      "outputs": [
        {
          "internalType": "uint256[]",
          "name": "",
          "type": "uint256[]"
        }
      ],
      "stateMutability": "view",
      "type": "function"
    },
    {
      "inputs": [
        {
          "internalType": "uint256",
          "name": "inAmount",
          "type": "uint256"
        },
        {
          "internalType": "address[]",
          "name": "pairs",
          "type": "address[]"
        },
        {
          "internalType": "address[]",
          "name": "tokens",
          "type": "address[]"
        }
      ],
      "name": "getAmountsOut",
      "outputs": [
        {
          "internalType": "uint256[]",
          "name": "",
          "type": "uint256[]"
        }
      ],
      "stateMutability": "view",
      "type": "function"
    },
    {
      "inputs": [
        {
          "internalType": "uint256",
          "name": "amountOut",
          "type": "uint256"
        },
        {
          "internalType": "address[]",
          "name": "pairs",
          "type": "address[]"
        },
        {
          "internalType": "address[]",
          "name": "tokens",
          "type": "address[]"
        },
        {
          "internalType": "address",
          "name": "to",
          "type": "address"
        },
        {
          "internalType": "uint256",
          "name": "deadline",
          "type": "uint256"
        }
      ],
      "name": "swapETHForExactTokens",
      "outputs": [
        {
          "internalType": "uint256[]",
          "name": "amounts",
          "type": "uint256[]"
        }
      ],
      "stateMutability": "payable",
      "type": "function"
    },
    {
      "inputs": [
        {
          "internalType": "uint256",
          "name": "amountOutMin",
          "type": "uint256"
        },
        {
          "internalType": "address[]",
          "name": "pairs",
          "type": "address[]"
        },
        {
          "internalType": "address[]",
          "name": "tokens",
          "type": "address[]"
        },
        {
          "internalType": "address",
          "name": "to",
          "type": "address"
        },
        {
          "internalType": "uint256",
          "name": "deadline",
          "type": "uint256"
        }
      ],
      "name": "swapExactETHForTokens",
      "outputs": [
        {
          "internalType": "uint256[]",
          "name": "amounts",
          "type": "uint256[]"
        }
      ],
      "stateMutability": "payable",
      "type": "function"
    },
    {
      "inputs": [
        {
          "internalType": "uint256",
          "name": "amountIn",
          "type": "uint256"
        },
        {
          "internalType": "uint256",
          "name": "amountOutMin",
          "type": "uint256"
        },
        {
          "internalType": "address[]",
          "name": "pairs",
          "type": "address[]"
        },
        {
          "internalType": "address[]",
          "name": "tokens",
          "type": "address[]"
        },
        {
          "internalType": "address",
          "name": "to",
          "type": "address"
        },
        {
          "internalType": "uint256",
          "name": "deadline",
          "type": "uint256"
        }
      ],
      "name": "swapExactTokensForETH",
      "outputs": [
        {
          "internalType": "uint256[]",
          "name": "amounts",
          "type": "uint256[]"
        }
      ],
      "stateMutability": "nonpayable",
      "type": "function"
    },
    {
      "inputs": [
        {
          "internalType": "uint256",
          "name": "amountIn",
          "type": "uint256"
        },
        {
          "internalType": "uint256",
          "name": "amountOutMin",
          "type": "uint256"
        },
        {
          "internalType": "address[]",
          "name": "pairs",
          "type": "address[]"
        },
        {
          "internalType": "address[]",
          "name": "tokens",
          "type": "address[]"
        },
        {
          "internalType": "address",
          "name": "to",
          "type": "address"
        },
        {
          "internalType": "uint256",
          "name": "deadline",
          "type": "uint256"
        }
      ],
      "name": "swapExactTokensForTokens",
      "outputs": [
        {
          "internalType": "uint256[]",
          "name": "amounts",
          "type": "uint256[]"
        }
      ],
      "stateMutability": "nonpayable",
      "type": "function"
    },
    {
      "inputs": [
        {
          "internalType": "uint256",
          "name": "amountOut",
          "type": "uint256"
        },
        {
          "internalType": "uint256",
          "name": "amountInMax",
          "type": "uint256"
        },
        {
          "internalType": "address[]",
          "name": "pairs",
          "type": "address[]"
        },
        {
          "internalType": "address[]",
          "name": "tokens",
          "type": "address[]"
        },
        {
          "internalType": "address",
          "name": "to",
          "type": "address"
        },
        {
          "internalType": "uint256",
          "name": "deadline",
          "type": "uint256"
        }
      ],
      "name": "swapTokensForExactETH",
      "outputs": [
        {
          "internalType": "uint256[]",
          "name": "amounts",
          "type": "uint256[]"
        }
      ],
      "stateMutability": "nonpayable",
      "type": "function"
    },
    {
      "inputs": [
        {
          "internalType": "uint256",
          "name": "amountOut",
          "type": "uint256"
        },
        {
          "internalType": "uint256",
          "name": "amountInMax",
          "type": "uint256"
        },
        {
          "internalType": "address[]",
          "name": "pairs",
          "type": "address[]"
        },
        {
          "internalType": "address[]",
          "name": "tokens",
          "type": "address[]"
        },
        {
          "internalType": "address",
          "name": "to",
          "type": "address"
        },
        {
          "internalType": "uint256",
          "name": "deadline",
          "type": "uint256"
        }
      ],
      "name": "swapTokensForExactTokens",
      "outputs": [
        {
          "internalType": "uint256[]",
          "name": "amounts",
          "type": "uint256[]"
        }
      ],
      "stateMutability": "nonpayable",
      "type": "function"
    }
  ],
  "transactionHash": "0xc0122e8a8fd467f541e1704d10b2b97407bced87765552502cc1b8db7810c7dc",
  "args": [
    "0xC02aaA39b223FE8D0A0e5C4F27eAD9083C756Cc2"
  ],
  "solcInputHash": "c68a8c1574cf5941f3f0f72108221e5d",
  "bytecode": "0x60a06040523480156200001157600080fd5b5060405162002e5538038062002e5583398101604081905262000034916200004a565b60601b6001600160601b0319166080526200007a565b6000602082840312156200005c578081fd5b81516001600160a01b038116811462000073578182fd5b9392505050565b60805160601c612d7d620000d8600039600081816101430152818161025f015281816104ad0152818161062101528181610bdd01528181610dc701528181610e70015281816111dc015281816113ba01526114630152612d7d6000f3fe6080604052600436106100965760003560e01c8063ad5c464811610069578063af55e31f1161004e578063af55e31f146101aa578063ceb757d5146101bd578063fc5b8bce146101dd57610096565b8063ad5c464814610131578063ae8290b71461018a57610096565b80636dce49ae1461009b57806389c27594146100d15780639e269b68146100f1578063a8312b1d14610111575b600080fd5b3480156100a757600080fd5b506100bb6100b6366004612a79565b6101f0565b6040516100c89190612b79565b60405180910390f35b3480156100dd57600080fd5b506100bb6100ec366004612a79565b6105b7565b3480156100fd57600080fd5b506100bb61010c366004612971565b6108a8565b34801561011d57600080fd5b506100bb61012c366004612971565b610922565b34801561013d57600080fd5b506101657f000000000000000000000000000000000000000000000000000000000000000081565b60405173ffffffffffffffffffffffffffffffffffffffff90911681526020016100c8565b34801561019657600080fd5b506100bb6101a5366004612a79565b610992565b6100bb6101b83660046129e8565b610b88565b3480156101c957600080fd5b506100bb6101d8366004612a79565b61101a565b6100bb6101eb3660046129e8565b611187565b606081428110156102485760405162461bcd60e51b815260206004820152601160248201527f547261646520686173206578706972656400000000000000000000000000000060448201526064015b60405180910390fd5b73ffffffffffffffffffffffffffffffffffffffff7f000000000000000000000000000000000000000000000000000000000000000016868661028c600182612c80565b8181106102a957634e487b7160e01b600052603260045260246000fd5b90506020020160208101906102be91906128d1565b73ffffffffffffffffffffffffffffffffffffffff16146103215760405162461bcd60e51b815260206004820152601860248201527f53706f74526f757465723a20494e56414c49445f504154480000000000000000604482015260640161023f565b61038f8a89898080602002602001604051908101604052809392919081815260200183836020028082843760009201919091525050604080516020808d0282810182019093528c82529093508c92508b91829185019084908082843760009201919091525061168392505050565b91508882600184516103a19190612c80565b815181106103bf57634e487b7160e01b600052603260045260246000fd5b6020026020010151101561043b5760405162461bcd60e51b815260206004820152602660248201527f53706f74526f757465723a20494e53554646494349454e545f4f55545055545f60448201527f414d4f554e540000000000000000000000000000000000000000000000000000606482015260840161023f565b6104ab8289898080602002602001604051908101604052809392919081815260200183836020028082843760009201919091525050604080516020808d0282810182019093528c82529093508c92508b91829185019084908082843760009201919091525030925061188f915050565b7f000000000000000000000000000000000000000000000000000000000000000073ffffffffffffffffffffffffffffffffffffffff16632e1a7d4d83600185516104f69190612c80565b8151811061051457634e487b7160e01b600052603260045260246000fd5b60200260200101516040518263ffffffff1660e01b815260040161053a91815260200190565b600060405180830381600087803b15801561055457600080fd5b505af1158015610568573d6000803e3d6000fd5b505050506105aa84836001855161057f9190612c80565b8151811061059d57634e487b7160e01b600052603260045260246000fd5b6020026020010151611d29565b5098975050505050505050565b6060814281101561060a5760405162461bcd60e51b815260206004820152601160248201527f5472616465206861732065787069726564000000000000000000000000000000604482015260640161023f565b73ffffffffffffffffffffffffffffffffffffffff7f000000000000000000000000000000000000000000000000000000000000000016868661064e600182612c80565b81811061066b57634e487b7160e01b600052603260045260246000fd5b905060200201602081019061068091906128d1565b73ffffffffffffffffffffffffffffffffffffffff16146106e35760405162461bcd60e51b815260206004820152601860248201527f53706f74526f757465723a20494e56414c49445f504154480000000000000000604482015260640161023f565b6107518a89898080602002602001604051908101604052809392919081815260200183836020028082843760009201919091525050604080516020808d0282810182019093528c82529093508c92508b918291850190849080828437600092019190915250611e5492505050565b9150888260008151811061077557634e487b7160e01b600052603260045260246000fd5b602002602001015111156107f15760405162461bcd60e51b815260206004820152602260248201527f53706f74526f757465723a204558434553534956455f494e5055545f414d4f5560448201527f4e54000000000000000000000000000000000000000000000000000000000000606482015260840161023f565b61043b338989600081811061081657634e487b7160e01b600052603260045260246000fd5b905060200201602081019061082b91906128d1565b8460008151811061084c57634e487b7160e01b600052603260045260246000fd5b60200260200101518989600081811061087557634e487b7160e01b600052603260045260246000fd5b905060200201602081019061088a91906128d1565b73ffffffffffffffffffffffffffffffffffffffff16929190612062565b60606109188686868080602002602001604051908101604052809392919081815260200183836020028082843760009201919091525050604080516020808a02828101820190935289825290935089925088918291850190849080828437600092019190915250611e5492505050565b9695505050505050565b60606109188686868080602002602001604051908101604052809392919081815260200183836020028082843760009201919091525050604080516020808a0282810182019093528982529093508992508891829185019084908082843760009201919091525061168392505050565b606081428110156109e55760405162461bcd60e51b815260206004820152601160248201527f5472616465206861732065787069726564000000000000000000000000000000604482015260640161023f565b610a538a89898080602002602001604051908101604052809392919081815260200183836020028082843760009201919091525050604080516020808d0282810182019093528c82529093508c92508b918291850190849080828437600092019190915250611e5492505050565b91508882600081518110610a7757634e487b7160e01b600052603260045260246000fd5b60200260200101511115610af35760405162461bcd60e51b815260206004820152602260248201527f53706f74526f757465723a204558434553534956455f494e5055545f414d4f5560448201527f4e54000000000000000000000000000000000000000000000000000000000000606482015260840161023f565b610b18338989600081811061081657634e487b7160e01b600052603260045260246000fd5b6105aa8289898080602002602001604051908101604052809392919081815260200183836020028082843760009201919091525050604080516020808d0282810182019093528c82529093508c92508b9182918501908490808284376000920191909152508a925061188f915050565b60608142811015610bdb5760405162461bcd60e51b815260206004820152601160248201527f5472616465206861732065787069726564000000000000000000000000000000604482015260640161023f565b7f000000000000000000000000000000000000000000000000000000000000000073ffffffffffffffffffffffffffffffffffffffff1686866000818110610c3357634e487b7160e01b600052603260045260246000fd5b9050602002016020810190610c4891906128d1565b73ffffffffffffffffffffffffffffffffffffffff1614610cab5760405162461bcd60e51b815260206004820152601860248201527f53706f74526f757465723a20494e56414c49445f504154480000000000000000604482015260640161023f565b610d193489898080602002602001604051908101604052809392919081815260200183836020028082843760009201919091525050604080516020808d0282810182019093528c82529093508c92508b91829185019084908082843760009201919091525061168392505050565b9150888260018451610d2b9190612c80565b81518110610d4957634e487b7160e01b600052603260045260246000fd5b60200260200101511015610dc55760405162461bcd60e51b815260206004820152602660248201527f53706f74526f757465723a20494e53554646494349454e545f4f55545055545f60448201527f414d4f554e540000000000000000000000000000000000000000000000000000606482015260840161023f565b7f000000000000000000000000000000000000000000000000000000000000000073ffffffffffffffffffffffffffffffffffffffff1663d0e30db083600081518110610e2257634e487b7160e01b600052603260045260246000fd5b60200260200101516040518263ffffffff1660e01b81526004016000604051808303818588803b158015610e5557600080fd5b505af1158015610e69573d6000803e3d6000fd5b50505050507f000000000000000000000000000000000000000000000000000000000000000073ffffffffffffffffffffffffffffffffffffffff1663a9059cbb89896000818110610ecb57634e487b7160e01b600052603260045260246000fd5b9050602002016020810190610ee091906128d1565b6040517fffffffff0000000000000000000000000000000000000000000000000000000060e084901b16815273ffffffffffffffffffffffffffffffffffffffff9091166004820152346024820152604401602060405180830381600087803b158015610f4c57600080fd5b505af1158015610f60573d6000803e3d6000fd5b505050506040513d601f19601f82011682018060405250810190610f8491906128eb565b610f9e57634e487b7160e01b600052600160045260246000fd5b61100e8289898080602002602001604051908101604052809392919081815260200183836020028082843760009201919091525050604080516020808d0282810182019093528c82529093508c92508b9182918501908490808284376000920191909152508a925061188f915050565b50979650505050505050565b6060814281101561106d5760405162461bcd60e51b815260206004820152601160248201527f5472616465206861732065787069726564000000000000000000000000000000604482015260640161023f565b6110db8a89898080602002602001604051908101604052809392919081815260200183836020028082843760009201919091525050604080516020808d0282810182019093528c82529093508c92508b91829185019084908082843760009201919091525061168392505050565b91508882600184516110ed9190612c80565b8151811061110b57634e487b7160e01b600052603260045260246000fd5b60200260200101511015610af35760405162461bcd60e51b815260206004820152602660248201527f53706f74526f757465723a20494e53554646494349454e545f4f55545055545f60448201527f414d4f554e540000000000000000000000000000000000000000000000000000606482015260840161023f565b606081428110156111da5760405162461bcd60e51b815260206004820152601160248201527f5472616465206861732065787069726564000000000000000000000000000000604482015260640161023f565b7f000000000000000000000000000000000000000000000000000000000000000073ffffffffffffffffffffffffffffffffffffffff168686600081811061123257634e487b7160e01b600052603260045260246000fd5b905060200201602081019061124791906128d1565b73ffffffffffffffffffffffffffffffffffffffff16146112aa5760405162461bcd60e51b815260206004820152601860248201527f53706f74526f757465723a20494e56414c49445f504154480000000000000000604482015260640161023f565b6113188989898080602002602001604051908101604052809392919081815260200183836020028082843760009201919091525050604080516020808d0282810182019093528c82529093508c92508b918291850190849080828437600092019190915250611e5492505050565b9150348260008151811061133c57634e487b7160e01b600052603260045260246000fd5b602002602001015111156113b85760405162461bcd60e51b815260206004820152602260248201527f53706f74526f757465723a204558434553534956455f494e5055545f414d4f5560448201527f4e54000000000000000000000000000000000000000000000000000000000000606482015260840161023f565b7f000000000000000000000000000000000000000000000000000000000000000073ffffffffffffffffffffffffffffffffffffffff1663d0e30db08360008151811061141557634e487b7160e01b600052603260045260246000fd5b60200260200101516040518263ffffffff1660e01b81526004016000604051808303818588803b15801561144857600080fd5b505af115801561145c573d6000803e3d6000fd5b50505050507f000000000000000000000000000000000000000000000000000000000000000073ffffffffffffffffffffffffffffffffffffffff1663a9059cbb898960008181106114be57634e487b7160e01b600052603260045260246000fd5b90506020020160208101906114d391906128d1565b846000815181106114f457634e487b7160e01b600052603260045260246000fd5b60200260200101516040518363ffffffff1660e01b815260040161153a92919073ffffffffffffffffffffffffffffffffffffffff929092168252602082015260400190565b602060405180830381600087803b15801561155457600080fd5b505af1158015611568573d6000803e3d6000fd5b505050506040513d601f19601f8201168201806040525081019061158c91906128eb565b6115a657634e487b7160e01b600052600160045260246000fd5b6116168289898080602002602001604051908101604052809392919081815260200183836020028082843760009201919091525050604080516020808d0282810182019093528c82529093508c92508b9182918501908490808284376000920191909152508a925061188f915050565b8160008151811061163757634e487b7160e01b600052603260045260246000fd5b602002602001015134111561100e5761100e338360008151811061166b57634e487b7160e01b600052603260045260246000fd5b60200260200101513461167e9190612c80565b611d29565b60606001835110156116d75760405162461bcd60e51b815260206004820152601260248201527f706169727320697320746f6f2073686f72740000000000000000000000000000604482015260640161023f565b815167ffffffffffffffff8111156116ff57634e487b7160e01b600052604160045260246000fd5b604051908082528060200260200182016040528015611728578160200160208202803683370190505b509050838160008151811061174d57634e487b7160e01b600052603260045260246000fd5b60200260200101818152505060005b6001835161176a9190612c80565b81101561188757600084828151811061179357634e487b7160e01b600052603260045260246000fd5b60200260200101519050600080611805838786815181106117c457634e487b7160e01b600052603260045260246000fd5b6020026020010151888760016117da9190612c0b565b815181106117f857634e487b7160e01b600052603260045260246000fd5b60200260200101516120fd565b9150915061183b85858151811061182c57634e487b7160e01b600052603260045260246000fd5b60200260200101518383612201565b85611847866001612c0b565b8151811061186557634e487b7160e01b600052603260045260246000fd5b602002602001018181525050505050808061187f90612cf8565b91505061175c565b509392505050565b600082600184516118a09190612c80565b815181106118be57634e487b7160e01b600052603260045260246000fd5b60209081029190910101516040517f70a0823100000000000000000000000000000000000000000000000000000000815273ffffffffffffffffffffffffffffffffffffffff84811660048301529192506000918316906370a082319060240160206040518083038186803b15801561193657600080fd5b505afa15801561194a573d6000803e3d6000fd5b505050506040513d601f19601f8201168201806040525081019061196e9190612959565b905060005b8551811015611bc55760008086838151811061199f57634e487b7160e01b600052603260045260246000fd5b6020026020010151878460016119b59190612c0b565b815181106119d357634e487b7160e01b600052603260045260246000fd5b60200260200101519150915060006119eb8383612348565b50905060008a6119fc866001612c0b565b81518110611a1a57634e487b7160e01b600052603260045260246000fd5b602002602001015190506000808373ffffffffffffffffffffffffffffffffffffffff168673ffffffffffffffffffffffffffffffffffffffff1614611a6257826000611a66565b6000835b91509150600060018d51611a7a9190612c80565b8810611a86578a611ab9565b8c611a92896001612c0b565b81518110611ab057634e487b7160e01b600052603260045260246000fd5b60200260200101515b905060008d8981518110611add57634e487b7160e01b600052603260045260246000fd5b602002602001015190508073ffffffffffffffffffffffffffffffffffffffff1663022c0d9f858585600067ffffffffffffffff811115611b2e57634e487b7160e01b600052604160045260246000fd5b6040519080825280601f01601f191660200182016040528015611b58576020820181803683370190505b506040518563ffffffff1660e01b8152600401611b789493929190612bd0565b600060405180830381600087803b158015611b9257600080fd5b505af1158015611ba6573d6000803e3d6000fd5b5050505050505050505050508080611bbd90612cf8565b915050611973565b506040517f70a0823100000000000000000000000000000000000000000000000000000000815273ffffffffffffffffffffffffffffffffffffffff8481166004830152600091908416906370a082319060240160206040518083038186803b158015611c3157600080fd5b505afa158015611c45573d6000803e3d6000fd5b505050506040513d601f19601f82011682018060405250810190611c699190612959565b90508660018851611c7a9190612c80565b81518110611c9857634e487b7160e01b600052603260045260246000fd5b602002602001015182611cab9190612c0b565b811015611d205760405162461bcd60e51b815260206004820152602960248201527f44656665637469766520414d4d20726f7574653b2062616c616e63657320646f60448201527f6e2774206d617463680000000000000000000000000000000000000000000000606482015260840161023f565b50505050505050565b80471015611d795760405162461bcd60e51b815260206004820152601d60248201527f416464726573733a20696e73756666696369656e742062616c616e6365000000604482015260640161023f565b60008273ffffffffffffffffffffffffffffffffffffffff168260405160006040518083038185875af1925050503d8060008114611dd3576040519150601f19603f3d011682016040523d82523d6000602084013e611dd8565b606091505b5050905080611e4f5760405162461bcd60e51b815260206004820152603a60248201527f416464726573733a20756e61626c6520746f2073656e642076616c75652c207260448201527f6563697069656e74206d61792068617665207265766572746564000000000000606482015260840161023f565b505050565b6060600183511015611ea85760405162461bcd60e51b815260206004820152601260248201527f706169727320697320746f6f2073686f72740000000000000000000000000000604482015260640161023f565b815167ffffffffffffffff811115611ed057634e487b7160e01b600052604160045260246000fd5b604051908082528060200260200182016040528015611ef9578160200160208202803683370190505b509050838160018351611f0c9190612c80565b81518110611f2a57634e487b7160e01b600052603260045260246000fd5b602002602001018181525050600060018351611f469190612c80565b90505b801561188757600084611f5d600184612c80565b81518110611f7b57634e487b7160e01b600052603260045260246000fd5b60200260200101519050600080611fe08387600187611f9a9190612c80565b81518110611fb857634e487b7160e01b600052603260045260246000fd5b60200260200101518887815181106117f857634e487b7160e01b600052603260045260246000fd5b9150915061201685858151811061200757634e487b7160e01b600052603260045260246000fd5b60200260200101518383612473565b85612022600187612c80565b8151811061204057634e487b7160e01b600052603260045260246000fd5b602002602001018181525050505050808061205a90612cc3565b915050611f49565b6040805173ffffffffffffffffffffffffffffffffffffffff85811660248301528416604482015260648082018490528251808303909101815260849091019091526020810180517bffffffffffffffffffffffffffffffffffffffffffffffffffffffff167f23b872dd000000000000000000000000000000000000000000000000000000001790526120f79085906125b6565b50505050565b600080600061210c8585612348565b5090506000808773ffffffffffffffffffffffffffffffffffffffff16630902f1ac6040518163ffffffff1660e01b815260040160606040518083038186803b15801561215857600080fd5b505afa15801561216c573d6000803e3d6000fd5b505050506040513d601f19601f82011682018060405250810190612190919061290b565b506dffffffffffffffffffffffffffff1691506dffffffffffffffffffffffffffff1691508273ffffffffffffffffffffffffffffffffffffffff168773ffffffffffffffffffffffffffffffffffffffff16146121ef5780826121f2565b81815b90999098509650505050505050565b60008084116122785760405162461bcd60e51b815260206004820152602b60248201527f556e697377617056324c6962726172793a20494e53554646494349454e545f4960448201527f4e5055545f414d4f554e54000000000000000000000000000000000000000000606482015260840161023f565b6000831180156122885750600082115b6122fa5760405162461bcd60e51b815260206004820152602860248201527f556e697377617056324c6962726172793a20494e53554646494349454e545f4c60448201527f4951554944495459000000000000000000000000000000000000000000000000606482015260840161023f565b6000612308856103e5612c43565b905060006123168483612c43565b9050600082612327876103e8612c43565b6123319190612c0b565b905061233d8183612c23565b979650505050505050565b6000808273ffffffffffffffffffffffffffffffffffffffff168473ffffffffffffffffffffffffffffffffffffffff1614156123c75760405162461bcd60e51b815260206004820152601260248201527f4964656e746963616c2061646472657373210000000000000000000000000000604482015260640161023f565b8273ffffffffffffffffffffffffffffffffffffffff168473ffffffffffffffffffffffffffffffffffffffff1610612401578284612404565b83835b909250905073ffffffffffffffffffffffffffffffffffffffff821661246c5760405162461bcd60e51b815260206004820152600d60248201527f5a65726f20616464726573732100000000000000000000000000000000000000604482015260640161023f565b9250929050565b60008084116124ea5760405162461bcd60e51b815260206004820152602c60248201527f556e697377617056324c6962726172793a20494e53554646494349454e545f4f60448201527f55545055545f414d4f554e540000000000000000000000000000000000000000606482015260840161023f565b6000831180156124fa5750600082115b61256c5760405162461bcd60e51b815260206004820152602860248201527f556e697377617056324c6962726172793a20494e53554646494349454e545f4c60448201527f4951554944495459000000000000000000000000000000000000000000000000606482015260840161023f565b60006125788585612c43565b612584906103e8612c43565b905060006103e56125958786612c80565b61259f9190612c80565b90506125ab8183612c23565b610918906001612c0b565b6000612618826040518060400160405280602081526020017f5361666545524332303a206c6f772d6c6576656c2063616c6c206661696c65648152508573ffffffffffffffffffffffffffffffffffffffff166126a89092919063ffffffff16565b805190915015611e4f578080602001905181019061263691906128eb565b611e4f5760405162461bcd60e51b815260206004820152602a60248201527f5361666545524332303a204552433230206f7065726174696f6e20646964206e60448201527f6f74207375636365656400000000000000000000000000000000000000000000606482015260840161023f565b60606126b784846000856126c1565b90505b9392505050565b6060824710156127395760405162461bcd60e51b815260206004820152602660248201527f416464726573733a20696e73756666696369656e742062616c616e636520666f60448201527f722063616c6c0000000000000000000000000000000000000000000000000000606482015260840161023f565b61274285612809565b61278e5760405162461bcd60e51b815260206004820152601d60248201527f416464726573733a2063616c6c20746f206e6f6e2d636f6e7472616374000000604482015260640161023f565b6000808673ffffffffffffffffffffffffffffffffffffffff1685876040516127b79190612b5d565b60006040518083038185875af1925050503d80600081146127f4576040519150601f19603f3d011682016040523d82523d6000602084013e6127f9565b606091505b509150915061233d828286612813565b803b15155b919050565b606083156128225750816126ba565b8251156128325782518084602001fd5b8160405162461bcd60e51b815260040161023f9190612bbd565b803573ffffffffffffffffffffffffffffffffffffffff8116811461280e57600080fd5b60008083601f840112612881578182fd5b50813567ffffffffffffffff811115612898578182fd5b6020830191508360208260051b850101111561246c57600080fd5b80516dffffffffffffffffffffffffffff8116811461280e57600080fd5b6000602082840312156128e2578081fd5b6126ba8261284c565b6000602082840312156128fc578081fd5b815180151581146126ba578182fd5b60008060006060848603121561291f578182fd5b612928846128b3565b9250612936602085016128b3565b9150604084015163ffffffff8116811461294e578182fd5b809150509250925092565b60006020828403121561296a578081fd5b5051919050565b600080600080600060608688031215612988578081fd5b85359450602086013567ffffffffffffffff808211156129a6578283fd5b6129b289838a01612870565b909650945060408801359150808211156129ca578283fd5b506129d788828901612870565b969995985093965092949392505050565b600080600080600080600060a0888a031215612a02578182fd5b87359650602088013567ffffffffffffffff80821115612a20578384fd5b612a2c8b838c01612870565b909850965060408a0135915080821115612a44578384fd5b50612a518a828b01612870565b9095509350612a6490506060890161284c565b91506080880135905092959891949750929550565b60008060008060008060008060c0898b031215612a94578081fd5b8835975060208901359650604089013567ffffffffffffffff80821115612ab9578283fd5b612ac58c838d01612870565b909850965060608b0135915080821115612add578283fd5b50612aea8b828c01612870565b9095509350612afd905060808a0161284c565b915060a089013590509295985092959890939650565b60008151808452612b2b816020860160208601612c97565b601f017fffffffffffffffffffffffffffffffffffffffffffffffffffffffffffffffe0169290920160200192915050565b60008251612b6f818460208701612c97565b9190910192915050565b6020808252825182820181905260009190848201906040850190845b81811015612bb157835183529284019291840191600101612b95565b50909695505050505050565b6000602082526126ba6020830184612b13565b600085825284602083015273ffffffffffffffffffffffffffffffffffffffff84166040830152608060608301526109186080830184612b13565b60008219821115612c1e57612c1e612d31565b500190565b600082612c3e57634e487b7160e01b81526012600452602481fd5b500490565b6000817fffffffffffffffffffffffffffffffffffffffffffffffffffffffffffffffff0483118215151615612c7b57612c7b612d31565b500290565b600082821015612c9257612c92612d31565b500390565b60005b83811015612cb2578181015183820152602001612c9a565b838111156120f75750506000910152565b600081612cd257612cd2612d31565b507fffffffffffffffffffffffffffffffffffffffffffffffffffffffffffffffff0190565b60007fffffffffffffffffffffffffffffffffffffffffffffffffffffffffffffffff821415612d2a57612d2a612d31565b5060010190565b634e487b7160e01b600052601160045260246000fdfea26469706673582212208c59c7228db9d8b4f747bb61f563a4d8eb4522eaf7f1bef8ed4887a5494e63a864736f6c63430008030033",
  "devdoc": {
    "kind": "dev",
    "methods": {},
    "version": 1
  },
  "userdoc": {
    "kind": "user",
    "methods": {},
    "version": 1
  },
  "storageLayout": {
    "storage": [],
    "types": null
  }
}