{
  "address": "0xe64cF33317F550E8051751141B5463C04bD81c8c",
  "abi": [
    {
      "inputs": [
        {
          "internalType": "uint256",
          "name": "lendingTargetPortion",
          "type": "uint256"
        },
        {
          "internalType": "uint256",
          "name": "borrowingTargetPortion",
          "type": "uint256"
        },
        {
          "internalType": "address",
          "name": "_roles",
          "type": "address"
        }
      ],
      "stateMutability": "nonpayable",
      "type": "constructor"
    },
    {
      "anonymous": false,
      "inputs": [
        {
          "indexed": true,
          "internalType": "address",
          "name": "previousOwner",
          "type": "address"
        },
        {
          "indexed": true,
          "internalType": "address",
          "name": "newOwner",
          "type": "address"
        }
      ],
      "name": "OwnershipTransferred",
      "type": "event"
    },
    {
      "inputs": [
        {
          "internalType": "address",
          "name": "token",
          "type": "address"
        },
        {
          "internalType": "uint256",
          "name": "exposureCap",
          "type": "uint256"
        },
        {
          "internalType": "uint256",
          "name": "lendingBuffer",
          "type": "uint256"
        },
        {
          "internalType": "uint256",
          "name": "incentiveWeight",
          "type": "uint256"
        },
        {
          "internalType": "address[]",
          "name": "liquidationPath",
          "type": "address[]"
        }
      ],
      "name": "activateToken",
      "outputs": [],
      "stateMutability": "nonpayable",
      "type": "function"
    },
    {
      "inputs": [
        {
          "internalType": "address",
          "name": "token",
          "type": "address"
        },
        {
          "internalType": "uint256",
          "name": "aprPercent",
          "type": "uint256"
        }
      ],
      "name": "changeHourlyYieldAPR",
      "outputs": [],
      "stateMutability": "nonpayable",
      "type": "function"
    },
    {
      "inputs": [
        {
          "internalType": "address",
          "name": "token",
          "type": "address"
        },
        {
          "internalType": "uint256",
          "name": "lendingBuffer",
          "type": "uint256"
        }
      ],
      "name": "changeLendingBuffer",
      "outputs": [],
      "stateMutability": "nonpayable",
      "type": "function"
    },
    {
      "inputs": [
        {
          "internalType": "address",
          "name": "token",
          "type": "address"
        },
        {
          "internalType": "uint256",
          "name": "exposureCap",
          "type": "uint256"
        }
      ],
      "name": "changeTokenCap",
      "outputs": [],
      "stateMutability": "nonpayable",
      "type": "function"
    },
    {
      "inputs": [
        {
          "internalType": "address",
          "name": "token",
          "type": "address"
        },
        {
          "internalType": "uint256",
          "name": "tokenWeight",
          "type": "uint256"
        }
      ],
      "name": "changeTokenIncentiveWeight",
      "outputs": [],
      "stateMutability": "nonpayable",
      "type": "function"
    },
    {
      "inputs": [
        {
          "internalType": "uint256",
          "name": "",
          "type": "uint256"
        }
      ],
      "name": "incentiveTokens",
      "outputs": [
        {
          "internalType": "address",
          "name": "",
          "type": "address"
        }
      ],
      "stateMutability": "view",
      "type": "function"
    },
    {
      "inputs": [],
      "name": "initHourlyYieldAPRPercent",
      "outputs": [
        {
          "internalType": "uint256",
          "name": "",
          "type": "uint256"
        }
      ],
      "stateMutability": "view",
      "type": "function"
    },
    {
      "inputs": [
        {
          "internalType": "uint256",
          "name": "",
          "type": "uint256"
        }
      ],
      "name": "mainCharacterCache",
      "outputs": [
        {
          "internalType": "address",
          "name": "",
          "type": "address"
        }
      ],
      "stateMutability": "view",
      "type": "function"
    },
    {
      "inputs": [],
      "name": "nextTrancheIndex",
      "outputs": [
        {
          "internalType": "uint8",
          "name": "",
          "type": "uint8"
        }
      ],
      "stateMutability": "view",
      "type": "function"
    },
    {
      "inputs": [],
      "name": "owner",
      "outputs": [
        {
          "internalType": "address",
          "name": "",
          "type": "address"
        }
      ],
      "stateMutability": "view",
      "type": "function"
    },
    {
      "inputs": [
        {
          "internalType": "address",
          "name": "property",
          "type": "address"
        },
        {
          "internalType": "address",
          "name": "newOwner",
          "type": "address"
        }
      ],
      "name": "relinquishOwnership",
      "outputs": [],
      "stateMutability": "nonpayable",
      "type": "function"
    },
    {
      "inputs": [],
      "name": "renounceOwnership",
      "outputs": [],
      "stateMutability": "nonpayable",
      "type": "function"
    },
    {
      "inputs": [
        {
          "internalType": "address",
          "name": "",
          "type": "address"
        },
        {
          "internalType": "uint256",
          "name": "",
          "type": "uint256"
        }
      ],
      "name": "roleCache",
      "outputs": [
        {
          "internalType": "bool",
          "name": "",
          "type": "bool"
        }
      ],
      "stateMutability": "view",
      "type": "function"
    },
    {
      "inputs": [],
      "name": "roles",
      "outputs": [
        {
          "internalType": "contract Roles",
          "name": "",
          "type": "address"
        }
      ],
      "stateMutability": "view",
      "type": "function"
    },
    {
      "inputs": [
        {
          "internalType": "uint256",
          "name": "portion",
          "type": "uint256"
        }
      ],
      "name": "setBorrowingTargetPortion",
      "outputs": [],
      "stateMutability": "nonpayable",
      "type": "function"
    },
    {
      "inputs": [
        {
          "internalType": "uint256",
          "name": "value",
          "type": "uint256"
        }
      ],
      "name": "setInitHourlyYieldAPR",
      "outputs": [],
      "stateMutability": "nonpayable",
      "type": "function"
    },
    {
      "inputs": [
        {
          "internalType": "uint256",
          "name": "portion",
          "type": "uint256"
        }
      ],
      "name": "setLendingTargetPortion",
      "outputs": [],
      "stateMutability": "nonpayable",
      "type": "function"
    },
    {
      "inputs": [
        {
          "internalType": "address",
          "name": "",
          "type": "address"
        }
      ],
      "name": "tokenBorrowingTranches",
      "outputs": [
        {
          "internalType": "uint8",
          "name": "",
          "type": "uint8"
        }
      ],
      "stateMutability": "view",
      "type": "function"
    },
    {
      "inputs": [
        {
          "internalType": "address",
          "name": "",
          "type": "address"
        }
      ],
      "name": "tokenLendingTranches",
      "outputs": [
        {
          "internalType": "uint8",
          "name": "",
          "type": "uint8"
        }
      ],
      "stateMutability": "view",
      "type": "function"
    },
    {
      "inputs": [
        {
          "internalType": "address",
          "name": "",
          "type": "address"
        }
      ],
      "name": "tokenWeights",
      "outputs": [
        {
          "internalType": "uint256",
          "name": "",
          "type": "uint256"
        }
      ],
      "stateMutability": "view",
      "type": "function"
    },
    {
      "inputs": [],
      "name": "totalBorrowingTargetPortion",
      "outputs": [
        {
          "internalType": "uint256",
          "name": "",
          "type": "uint256"
        }
      ],
      "stateMutability": "view",
      "type": "function"
    },
    {
      "inputs": [],
      "name": "totalLendingTargetPortion",
      "outputs": [
        {
          "internalType": "uint256",
          "name": "",
          "type": "uint256"
        }
      ],
      "stateMutability": "view",
      "type": "function"
    },
    {
      "inputs": [],
      "name": "totalTokenWeights",
      "outputs": [
        {
          "internalType": "uint256",
          "name": "",
          "type": "uint256"
        }
      ],
      "stateMutability": "view",
      "type": "function"
    },
    {
      "inputs": [
        {
          "internalType": "address",
          "name": "newOwner",
          "type": "address"
        }
      ],
      "name": "transferOwnership",
      "outputs": [],
      "stateMutability": "nonpayable",
      "type": "function"
    },
    {
      "inputs": [
        {
          "internalType": "uint256",
          "name": "role",
          "type": "uint256"
        }
      ],
      "name": "updateMainCharacterCache",
      "outputs": [],
      "stateMutability": "nonpayable",
      "type": "function"
    },
    {
      "inputs": [
        {
          "internalType": "uint256",
          "name": "role",
          "type": "uint256"
        },
        {
          "internalType": "address",
          "name": "contr",
          "type": "address"
        }
      ],
      "name": "updateRoleCache",
      "outputs": [],
      "stateMutability": "nonpayable",
      "type": "function"
    }
  ],
  "transactionHash": "0xab299083e84ec80f84a8bce4d731037a6010b7aa8d60a66cda89af38d039b034",
  "args": [
    400,
    300,
    "0xC95531a7f6C57456718BCd69a5f64829C7973f11"
  ],
  "solcInputHash": "ec45310c1ebd228212cbc01f9840ea7e",
  "bytecode": "0x60a0604052600a805460ff19166014178155600b553480156200002157600080fd5b50604051620023a8380380620023a88339810160408190526200004491620000f5565b806001600160a01b038116620000775760405162461bcd60e51b81526004016200006e906200013b565b60405180910390fd5b60601b6001600160601b031916608052600062000093620000f1565b600280546001600160a01b0319166001600160a01b038316908117909155604051919250906000907f8be0079c531659141344cd1fd0a4f28419497f9722a3daafe3b4186f6b6457e0908290a350506003919091556004556200017d565b3390565b6000806000606084860312156200010a578283fd5b83516020850151604086015191945092506001600160a01b038116811462000130578182fd5b809150509250925092565b60208082526022908201527f506c656173652070726f766964652076616c696420726f6c6573206164647265604082015261737360f01b606082015260800190565b60805160601c6121fe620001aa600039600081816103c501528181610718015261077701526121fe6000f3fe608060405234801561001057600080fd5b50600436106101ae5760003560e01c80637a1a04df116100ee578063bc2b28af11610097578063e15ac98a11610071578063e15ac98a14610347578063e9c3f77d1461035a578063f1c270001461036d578063f2fde38b14610375576101ae565b8063bc2b28af14610324578063dc8f5fac1461032c578063dcc7560414610334576101ae565b8063a7cce85c116100c8578063a7cce85c146102eb578063ab2f3ad4146102fe578063b72b650114610311576101ae565b80637a1a04df146102b05780637bad080a146102d05780638da5cb5b146102e3576101ae565b8063447d52ba1161015b5780635654cfc1116101355780635654cfc11461027a5780635be072f21461028d57806361a3f935146102a0578063715018a6146102a8576101ae565b8063447d52ba1461023f5780634dd7c05614610252578063543eeef914610265576101ae565b80631531841b1161018c5780631531841b146102045780632a3e4dc214610217578063392f5f6414610237576101ae565b8063071060a6146101b35780630c977ed2146101c85780631135bb7b146101f1575b600080fd5b6101c66101c1366004611e29565b610388565b005b6101db6101d6366004611cd0565b61049d565b6040516101e8919061208e565b60405180910390f35b6101c66101ff366004611d08565b6104b2565b6101c6610212366004611d40565b6105b6565b61022a610225366004611e29565b6106df565b6040516101e89190611e65565b61022a610716565b6101c661024d366004611e41565b61073a565b6101c6610260366004611d40565b610861565b61026d610916565b6040516101e89190612061565b6101c6610288366004611d40565b61091c565b6101c661029b366004611e29565b6109d1565b61026d610a49565b6101c6610a4f565b6102c36102be366004611d40565b610b31565b6040516101e89190611f30565b6101db6102de366004611cd0565b610b51565b61022a610b66565b6101c66102f9366004611e29565b610b82565b61026d61030c366004611cd0565b610bfa565b6101c661031f366004611d6b565b610c0c565b61026d611665565b61026d61166b565b6101c6610342366004611e29565b611671565b6101c6610355366004611d40565b6116e9565b61022a610368366004611e29565b6117d9565b6101db611801565b6101c6610383366004611cd0565b61180a565b6040517fb4ed0b6d00000000000000000000000000000000000000000000000000000000815273ffffffffffffffffffffffffffffffffffffffff7f0000000000000000000000000000000000000000000000000000000000000000169063b4ed0b6d906103fa908490600401612061565b60206040518083038186803b15801561041257600080fd5b505afa158015610426573d6000803e3d6000fd5b505050506040513d601f19601f8201168201806040525081019061044a9190611cec565b60009182526020829052604090912080547fffffffffffffffffffffffff00000000000000000000000000000000000000001673ffffffffffffffffffffffffffffffffffffffff909216919091179055565b60096020526000908152604090205460ff1681565b6104ba611958565b73ffffffffffffffffffffffffffffffffffffffff166104d8610b66565b73ffffffffffffffffffffffffffffffffffffffff161461052e576040517f08c379a00000000000000000000000000000000000000000000000000000000081526004016105259061202c565b60405180910390fd5b6040517ff2fde38b00000000000000000000000000000000000000000000000000000000815273ffffffffffffffffffffffffffffffffffffffff83169063f2fde38b90610580908490600401611e65565b600060405180830381600087803b15801561059a57600080fd5b505af11580156105ae573d6000803e3d6000fd5b505050505050565b6105be611958565b73ffffffffffffffffffffffffffffffffffffffff166105dc610b66565b73ffffffffffffffffffffffffffffffffffffffff1614610629576040517f08c379a00000000000000000000000000000000000000000000000000000000081526004016105259061202c565b61063161195c565b73ffffffffffffffffffffffffffffffffffffffff1663d2b4893483836040518363ffffffff1660e01b815260040161066b929190611e86565b600060405180830381600087803b15801561068557600080fd5b505af1158015610699573d6000803e3d6000fd5b505050506106a56119a1565b73ffffffffffffffffffffffffffffffffffffffff16631d47e4a383836040518363ffffffff1660e01b8152600401610580929190611e86565b600581815481106106ef57600080fd5b60009182526020909120015473ffffffffffffffffffffffffffffffffffffffff16905081565b7f000000000000000000000000000000000000000000000000000000000000000081565b6040517f93552a3d00000000000000000000000000000000000000000000000000000000815273ffffffffffffffffffffffffffffffffffffffff7f000000000000000000000000000000000000000000000000000000000000000016906393552a3d906107ae908590859060040161206a565b60206040518083038186803b1580156107c657600080fd5b505afa1580156107da573d6000803e3d6000fd5b505050506040513d601f19601f820116820180604052508101906107fe9190611e09565b73ffffffffffffffffffffffffffffffffffffffff9190911660009081526001602090815260408083209483529390529190912080547fffffffffffffffffffffffffffffffffffffffffffffffffffffffffffffff0016911515919091179055565b610869611958565b73ffffffffffffffffffffffffffffffffffffffff16610887610b66565b73ffffffffffffffffffffffffffffffffffffffff16146108d4576040517f08c379a00000000000000000000000000000000000000000000000000000000081526004016105259061202c565b6108dc61195c565b73ffffffffffffffffffffffffffffffffffffffff1663f90889c983836040518363ffffffff1660e01b8152600401610580929190611e86565b60045481565b610924611958565b73ffffffffffffffffffffffffffffffffffffffff16610942610b66565b73ffffffffffffffffffffffffffffffffffffffff161461098f576040517f08c379a00000000000000000000000000000000000000000000000000000000081526004016105259061202c565b61099761195c565b73ffffffffffffffffffffffffffffffffffffffff1663a387832f83836040518363ffffffff1660e01b8152600401610580929190611e86565b6109d9611958565b73ffffffffffffffffffffffffffffffffffffffff166109f7610b66565b73ffffffffffffffffffffffffffffffffffffffff1614610a44576040517f08c379a00000000000000000000000000000000000000000000000000000000081526004016105259061202c565b600355565b600b5481565b610a57611958565b73ffffffffffffffffffffffffffffffffffffffff16610a75610b66565b73ffffffffffffffffffffffffffffffffffffffff1614610ac2576040517f08c379a00000000000000000000000000000000000000000000000000000000081526004016105259061202c565b60025460405160009173ffffffffffffffffffffffffffffffffffffffff16907f8be0079c531659141344cd1fd0a4f28419497f9722a3daafe3b4186f6b6457e0908390a3600280547fffffffffffffffffffffffff0000000000000000000000000000000000000000169055565b600160209081526000928352604080842090915290825290205460ff1681565b60086020526000908152604090205460ff1681565b60025473ffffffffffffffffffffffffffffffffffffffff1690565b610b8a611958565b73ffffffffffffffffffffffffffffffffffffffff16610ba8610b66565b73ffffffffffffffffffffffffffffffffffffffff1614610bf5576040517f08c379a00000000000000000000000000000000000000000000000000000000081526004016105259061202c565b600b55565b60066020526000908152604090205481565b610c14611958565b73ffffffffffffffffffffffffffffffffffffffff16610c32610b66565b73ffffffffffffffffffffffffffffffffffffffff1614610c7f576040517f08c379a00000000000000000000000000000000000000000000000000000000081526004016105259061202c565b610c876119e6565b73ffffffffffffffffffffffffffffffffffffffff16635acf6903876040518263ffffffff1660e01b8152600401610cbf9190611e65565b60206040518083038186803b158015610cd757600080fd5b505afa158015610ceb573d6000803e3d6000fd5b505050506040513d601f19601f82011682018060405250810190610d0f9190611e09565b15610d46576040517f08c379a000000000000000000000000000000000000000000000000000000000815260040161052590611ff5565b610d4e6119e6565b73ffffffffffffffffffffffffffffffffffffffff16630d1ce2d2876040518263ffffffff1660e01b8152600401610d869190611e65565b600060405180830381600087803b158015610da057600080fd5b505af1158015610db4573d6000803e3d6000fd5b50505050610dc06119a1565b73ffffffffffffffffffffffffffffffffffffffff16631d47e4a387876040518363ffffffff1660e01b8152600401610dfa929190611e86565b600060405180830381600087803b158015610e1457600080fd5b505af1158015610e28573d6000803e3d6000fd5b50505050610e3461195c565b73ffffffffffffffffffffffffffffffffffffffff1663d2b4893487876040518363ffffffff1660e01b8152600401610e6e929190611e86565b600060405180830381600087803b158015610e8857600080fd5b505af1158015610e9c573d6000803e3d6000fd5b50505050610ea861195c565b73ffffffffffffffffffffffffffffffffffffffff1663a387832f87866040518363ffffffff1660e01b8152600401610ee2929190611e86565b600060405180830381600087803b158015610efc57600080fd5b505af1158015610f10573d6000803e3d6000fd5b50505050610f1c61195c565b73ffffffffffffffffffffffffffffffffffffffff1663f90889c987600b546040518363ffffffff1660e01b8152600401610f58929190611e86565b600060405180830381600087803b158015610f7257600080fd5b505af1158015610f86573d6000803e3d6000fd5b50505050610f9261195c565b73ffffffffffffffffffffffffffffffffffffffff1663cc4b26a3876040518263ffffffff1660e01b8152600401610fca9190611e65565b600060405180830381600087803b158015610fe457600080fd5b505af1158015610ff8573d6000803e3d6000fd5b5050505060008311156105ae57826007600082825461101791906120af565b909155505073ffffffffffffffffffffffffffffffffffffffff8616600090815260066020526040812084905561104c611a2b565b9050600061105c85600354611a70565b600a546040517f430c39e400000000000000000000000000000000000000000000000000000000815291925073ffffffffffffffffffffffffffffffffffffffff84169163430c39e4916110ba9160ff90911690859060040161209c565b600060405180830381600087803b1580156110d457600080fd5b505af11580156110e8573d6000803e3d6000fd5b5050600a5473ffffffffffffffffffffffffffffffffffffffff8b16600090815260086020526040902080547fffffffffffffffffffffffffffffffffffffffffffffffffffffffffffffff001660ff9092169190911790555061114c905061195c565b600a546040517f2864f40100000000000000000000000000000000000000000000000000000000815273ffffffffffffffffffffffffffffffffffffffff9290921691632864f401916111a7918c9160ff1690600401611eac565b600060405180830381600087803b1580156111c157600080fd5b505af11580156111d5573d6000803e3d6000fd5b5050600a805460ff169250905060006111ed83612154565b91906101000a81548160ff021916908360ff16021790555050600061121486600454611a70565b600a546040517f430c39e400000000000000000000000000000000000000000000000000000000815291925073ffffffffffffffffffffffffffffffffffffffff85169163430c39e4916112729160ff90911690859060040161209c565b600060405180830381600087803b15801561128c57600080fd5b505af11580156112a0573d6000803e3d6000fd5b5050600a5473ffffffffffffffffffffffffffffffffffffffff8c16600090815260096020526040902080547fffffffffffffffffffffffffffffffffffffffffffffffffffffffffffffff001660ff909216919091179055506113049050611a91565b600a546040517f2864f40100000000000000000000000000000000000000000000000000000000815273ffffffffffffffffffffffffffffffffffffffff9290921691632864f4019161135f918d9160ff1690600401611eac565b600060405180830381600087803b15801561137957600080fd5b505af115801561138d573d6000803e3d6000fd5b5050600a805460ff169250905060006113a583612154565b91906101000a81548160ff021916908360ff160217905550506113c783611ad6565b6005805460018101825560009182527f036b6384b5eca791c62761152d0c79bb0604c104a5fb6f4eb0703f3154bb3db00180547fffffffffffffffffffffffff00000000000000000000000000000000000000001673ffffffffffffffffffffffffffffffffffffffff8c16908117909155908690869081611472577f4e487b7100000000000000000000000000000000000000000000000000000000600052603260045260246000fd5b90506020020160208101906114879190611cd0565b73ffffffffffffffffffffffffffffffffffffffff161480156115b057506114ad6119a1565b73ffffffffffffffffffffffffffffffffffffffff16631f1cb62b6040518163ffffffff1660e01b815260040160206040518083038186803b1580156114f257600080fd5b505afa158015611506573d6000803e3d6000fd5b505050506040513d601f19601f8201168201806040525081019061152a9190611cec565b73ffffffffffffffffffffffffffffffffffffffff16858561154d60018261213d565b818110611583577f4e487b7100000000000000000000000000000000000000000000000000000000600052603260045260246000fd5b90506020020160208101906115989190611cd0565b73ffffffffffffffffffffffffffffffffffffffff16145b6115e6576040517f08c379a000000000000000000000000000000000000000000000000000000000815260040161052590611f98565b6115ee6119a1565b73ffffffffffffffffffffffffffffffffffffffff16636cd7bc4b86866040518363ffffffff1660e01b8152600401611628929190611ed5565b600060405180830381600087803b15801561164257600080fd5b505af1158015611656573d6000803e3d6000fd5b50505050505050505050505050565b60035481565b60075481565b611679611958565b73ffffffffffffffffffffffffffffffffffffffff16611697610b66565b73ffffffffffffffffffffffffffffffffffffffff16146116e4576040517f08c379a00000000000000000000000000000000000000000000000000000000081526004016105259061202c565b600455565b6116f1611958565b73ffffffffffffffffffffffffffffffffffffffff1661170f610b66565b73ffffffffffffffffffffffffffffffffffffffff161461175c576040517f08c379a00000000000000000000000000000000000000000000000000000000081526004016105259061202c565b73ffffffffffffffffffffffffffffffffffffffff82166000908152600660205260409020546007546117909083906120af565b61179a919061213d565b60075573ffffffffffffffffffffffffffffffffffffffff821660009081526006602052604090208190556117d56117d0611a2b565b611ad6565b5050565b60006020819052908152604090205473ffffffffffffffffffffffffffffffffffffffff1681565b600a5460ff1681565b611812611958565b73ffffffffffffffffffffffffffffffffffffffff16611830610b66565b73ffffffffffffffffffffffffffffffffffffffff161461187d576040517f08c379a00000000000000000000000000000000000000000000000000000000081526004016105259061202c565b73ffffffffffffffffffffffffffffffffffffffff81166118ca576040517f08c379a000000000000000000000000000000000000000000000000000000000815260040161052590611f3b565b60025460405173ffffffffffffffffffffffffffffffffffffffff8084169216907f8be0079c531659141344cd1fd0a4f28419497f9722a3daafe3b4186f6b6457e090600090a3600280547fffffffffffffffffffffffff00000000000000000000000000000000000000001673ffffffffffffffffffffffffffffffffffffffff92909216919091179055565b3390565b606660009081526020527f422cccb7cea5c0e46f340bb7b21b81debac329f72e31669c20ff0f3a05cc2b5b5473ffffffffffffffffffffffffffffffffffffffff1690565b606860009081526020527faa071f48f62aaaa1f6320aaa7bd2ad2d552d05160892c14d699d38c9920d5f995473ffffffffffffffffffffffffffffffffffffffff1690565b606560009081526020527f4a7203f705e51df4a56139a9b86b4a0970bed7ab7a3446eaffe2289989c1645c5473ffffffffffffffffffffffffffffffffffffffff1690565b606c60009081526020527f3c1fcba39712202dbd455253568bf32dd0a3bedb5c3ff0de4b22d4e45e50dc925473ffffffffffffffffffffffffffffffffffffffff1690565b600754600090611a808385612100565b611a8a91906120c7565b9392505050565b606760009081526020527f682158d08466d11c566d5712d4396197fdd67e65be71d83c97ef719ec468867b5473ffffffffffffffffffffffffffffffffffffffff1690565b60005b60055460ff821610156117d557600060058260ff1681548110611b25577f4e487b7100000000000000000000000000000000000000000000000000000000600052603260045260246000fd5b600091825260208083209091015473ffffffffffffffffffffffffffffffffffffffff16808352600690915260408220546003549193509190611b69908390611a70565b73ffffffffffffffffffffffffffffffffffffffff848116600090815260086020526040908190205490517f19f51afb000000000000000000000000000000000000000000000000000000008152929350908716916319f51afb91611bd89160ff90911690859060040161209c565b600060405180830381600087803b158015611bf257600080fd5b505af1158015611c06573d6000803e3d6000fd5b505050506000611c1883600454611a70565b73ffffffffffffffffffffffffffffffffffffffff858116600090815260096020526040908190205490517f19f51afb000000000000000000000000000000000000000000000000000000008152929350908816916319f51afb91611c879160ff90911690859060040161209c565b600060405180830381600087803b158015611ca157600080fd5b505af1158015611cb5573d6000803e3d6000fd5b50505050505050508080611cc890612154565b915050611ad9565b600060208284031215611ce1578081fd5b8135611a8a816121a3565b600060208284031215611cfd578081fd5b8151611a8a816121a3565b60008060408385031215611d1a578081fd5b8235611d25816121a3565b91506020830135611d35816121a3565b809150509250929050565b60008060408385031215611d52578182fd5b8235611d5d816121a3565b946020939093013593505050565b60008060008060008060a08789031215611d83578182fd5b8635611d8e816121a3565b9550602087013594506040870135935060608701359250608087013567ffffffffffffffff80821115611dbf578384fd5b818901915089601f830112611dd2578384fd5b813581811115611de0578485fd5b8a60208083028501011115611df3578485fd5b6020830194508093505050509295509295509295565b600060208284031215611e1a578081fd5b81518015158114611a8a578182fd5b600060208284031215611e3a578081fd5b5035919050565b60008060408385031215611e53578182fd5b823591506020830135611d35816121a3565b73ffffffffffffffffffffffffffffffffffffffff91909116815260200190565b73ffffffffffffffffffffffffffffffffffffffff929092168252602082015260400190565b73ffffffffffffffffffffffffffffffffffffffff92909216825260ff16602082015260400190565b60208082528181018390526000908460408401835b86811015611f25578235611efd816121a3565b73ffffffffffffffffffffffffffffffffffffffff1682529183019190830190600101611eea565b509695505050505050565b901515815260200190565b60208082526026908201527f4f776e61626c653a206e6577206f776e657220697320746865207a65726f206160408201527f6464726573730000000000000000000000000000000000000000000000000000606082015260800190565b60208082526036908201527f496e76616c6964206c69717569646174696f6e50617468202d2d2073686f756c60408201527f6420676f2066726f6d20746f6b656e20746f2070656700000000000000000000606082015260800190565b60208082526017908201527f546f6b656e20616c726561647920697320616374697665000000000000000000604082015260600190565b6020808252818101527f4f776e61626c653a2063616c6c6572206973206e6f7420746865206f776e6572604082015260600190565b90815260200190565b91825273ffffffffffffffffffffffffffffffffffffffff16602082015260400190565b60ff91909116815260200190565b60ff929092168252602082015260400190565b600082198211156120c2576120c2612174565b500190565b6000826120fb577f4e487b710000000000000000000000000000000000000000000000000000000081526012600452602481fd5b500490565b6000817fffffffffffffffffffffffffffffffffffffffffffffffffffffffffffffffff048311821515161561213857612138612174565b500290565b60008282101561214f5761214f612174565b500390565b600060ff821660ff81141561216b5761216b612174565b60010192915050565b7f4e487b7100000000000000000000000000000000000000000000000000000000600052601160045260246000fd5b73ffffffffffffffffffffffffffffffffffffffff811681146121c557600080fd5b5056fea26469706673582212206e47d4e2b37bd81753e6a6689d917ff924e631662ca3d03534df1af9e203eb7e64736f6c63430008010033",
  "devdoc": {
    "details": "A helper contract to manage the initialization of new tokens across different parts of the protocol, as well as changing some parameters throughout the lifetime of a token",
    "kind": "dev",
    "methods": {
      "owner()": {
        "details": "Returns the address of the current owner."
      },
      "renounceOwnership()": {
        "details": "Leaves the contract without owner. It will not be possible to call `onlyOwner` functions anymore. Can only be called by the current owner. NOTE: Renouncing ownership will leave the contract without an owner, thereby removing any functionality that is only available to the owner."
      },
      "transferOwnership(address)": {
        "details": "Transfers ownership of the contract to a new account (`newOwner`). Can only be called by the current owner."
      }
    },
    "version": 1
  },
  "userdoc": {
    "kind": "user",
    "methods": {},
    "version": 1
  },
  "storageLayout": {
    "storage": [
      {
        "astId": 12289,
        "contract": "contracts/TokenAdmin.sol:TokenAdmin",
        "label": "mainCharacterCache",
        "offset": 0,
        "slot": "0",
        "type": "t_mapping(t_uint256,t_address)"
      },
      {
        "astId": 12295,
        "contract": "contracts/TokenAdmin.sol:TokenAdmin",
        "label": "roleCache",
        "offset": 0,
        "slot": "1",
        "type": "t_mapping(t_address,t_mapping(t_uint256,t_bool))"
      },
      {
        "astId": 381,
        "contract": "contracts/TokenAdmin.sol:TokenAdmin",
        "label": "_owner",
        "offset": 0,
        "slot": "2",
        "type": "t_address"
      },
      {
        "astId": 12702,
        "contract": "contracts/TokenAdmin.sol:TokenAdmin",
        "label": "totalLendingTargetPortion",
        "offset": 0,
        "slot": "3",
        "type": "t_uint256"
      },
      {
        "astId": 12704,
        "contract": "contracts/TokenAdmin.sol:TokenAdmin",
        "label": "totalBorrowingTargetPortion",
        "offset": 0,
        "slot": "4",
        "type": "t_uint256"
      },
      {
        "astId": 12707,
        "contract": "contracts/TokenAdmin.sol:TokenAdmin",
        "label": "incentiveTokens",
        "offset": 0,
        "slot": "5",
        "type": "t_array(t_address)dyn_storage"
      },
      {
        "astId": 12711,
        "contract": "contracts/TokenAdmin.sol:TokenAdmin",
        "label": "tokenWeights",
        "offset": 0,
        "slot": "6",
        "type": "t_mapping(t_address,t_uint256)"
      },
      {
        "astId": 12713,
        "contract": "contracts/TokenAdmin.sol:TokenAdmin",
        "label": "totalTokenWeights",
        "offset": 0,
        "slot": "7",
        "type": "t_uint256"
      },
      {
        "astId": 12717,
        "contract": "contracts/TokenAdmin.sol:TokenAdmin",
        "label": "tokenLendingTranches",
        "offset": 0,
        "slot": "8",
        "type": "t_mapping(t_address,t_uint8)"
      },
      {
        "astId": 12721,
        "contract": "contracts/TokenAdmin.sol:TokenAdmin",
        "label": "tokenBorrowingTranches",
        "offset": 0,
        "slot": "9",
        "type": "t_mapping(t_address,t_uint8)"
      },
      {
        "astId": 12724,
        "contract": "contracts/TokenAdmin.sol:TokenAdmin",
        "label": "nextTrancheIndex",
        "offset": 0,
        "slot": "10",
        "type": "t_uint8"
      },
      {
        "astId": 12727,
        "contract": "contracts/TokenAdmin.sol:TokenAdmin",
        "label": "initHourlyYieldAPRPercent",
        "offset": 0,
        "slot": "11",
        "type": "t_uint256"
      }
    ],
    "types": {
      "t_address": {
        "encoding": "inplace",
        "label": "address",
        "numberOfBytes": "20"
      },
      "t_array(t_address)dyn_storage": {
        "base": "t_address",
        "encoding": "dynamic_array",
        "label": "address[]",
        "numberOfBytes": "32"
      },
      "t_bool": {
        "encoding": "inplace",
        "label": "bool",
        "numberOfBytes": "1"
      },
      "t_mapping(t_address,t_mapping(t_uint256,t_bool))": {
        "encoding": "mapping",
        "key": "t_address",
        "label": "mapping(address => mapping(uint256 => bool))",
        "numberOfBytes": "32",
        "value": "t_mapping(t_uint256,t_bool)"
      },
      "t_mapping(t_address,t_uint256)": {
        "encoding": "mapping",
        "key": "t_address",
        "label": "mapping(address => uint256)",
        "numberOfBytes": "32",
        "value": "t_uint256"
      },
      "t_mapping(t_address,t_uint8)": {
        "encoding": "mapping",
        "key": "t_address",
        "label": "mapping(address => uint8)",
        "numberOfBytes": "32",
        "value": "t_uint8"
      },
      "t_mapping(t_uint256,t_address)": {
        "encoding": "mapping",
        "key": "t_uint256",
        "label": "mapping(uint256 => address)",
        "numberOfBytes": "32",
        "value": "t_address"
      },
      "t_mapping(t_uint256,t_bool)": {
        "encoding": "mapping",
        "key": "t_uint256",
        "label": "mapping(uint256 => bool)",
        "numberOfBytes": "32",
        "value": "t_bool"
      },
      "t_uint256": {
        "encoding": "inplace",
        "label": "uint256",
        "numberOfBytes": "32"
      },
      "t_uint8": {
        "encoding": "inplace",
        "label": "uint8",
        "numberOfBytes": "1"
      }
    }
  }
}