{
  "address": "0x2EefefAdEFE3c66D7086c8d3B99247D432383731",
  "abi": [
    {
      "inputs": [
        {
          "internalType": "address",
          "name": "controller",
          "type": "address"
        },
        {
          "internalType": "address[]",
          "name": "tokens2activate",
          "type": "address[]"
        },
        {
          "internalType": "uint256[]",
          "name": "_exposureCaps",
          "type": "uint256[]"
        },
        {
          "internalType": "uint256[]",
          "name": "_lendingBuffers",
          "type": "uint256[]"
        },
        {
          "internalType": "uint256[]",
          "name": "_incentiveWeights",
          "type": "uint256[]"
        },
        {
          "internalType": "address[][]",
          "name": "_liquidationPaths",
          "type": "address[][]"
        }
      ],
      "stateMutability": "nonpayable",
      "type": "constructor"
    },
    {
      "inputs": [],
      "name": "TOKEN_ADMIN",
      "outputs": [
        {
          "internalType": "uint256",
          "name": "",
          "type": "uint256"
        }
      ],
      "stateMutability": "view",
      "type": "function"
    },
    {
      "inputs": [
        {
          "internalType": "uint256",
          "name": "",
          "type": "uint256"
        }
      ],
      "name": "_requiredRoles",
      "outputs": [
        {
          "internalType": "uint256",
          "name": "",
          "type": "uint256"
        }
      ],
      "stateMutability": "view",
      "type": "function"
    },
    {
      "inputs": [],
      "name": "execute",
      "outputs": [],
      "stateMutability": "nonpayable",
      "type": "function"
    },
    {
      "inputs": [
        {
          "internalType": "uint256",
          "name": "",
          "type": "uint256"
        }
      ],
      "name": "exposureCaps",
      "outputs": [
        {
          "internalType": "uint256",
          "name": "",
          "type": "uint256"
        }
      ],
      "stateMutability": "view",
      "type": "function"
    },
    {
      "inputs": [
        {
          "internalType": "uint256",
          "name": "",
          "type": "uint256"
        }
      ],
      "name": "extraProperties",
      "outputs": [
        {
          "internalType": "address",
          "name": "",
          "type": "address"
        }
      ],
      "stateMutability": "view",
      "type": "function"
    },
    {
      "inputs": [
        {
          "internalType": "uint256",
          "name": "",
          "type": "uint256"
        }
      ],
      "name": "incentiveWeights",
      "outputs": [
        {
          "internalType": "uint256",
          "name": "",
          "type": "uint256"
        }
      ],
      "stateMutability": "view",
      "type": "function"
    },
    {
      "inputs": [
        {
          "internalType": "uint256",
          "name": "",
          "type": "uint256"
        }
      ],
      "name": "lendingBuffers",
      "outputs": [
        {
          "internalType": "uint256",
          "name": "",
          "type": "uint256"
        }
      ],
      "stateMutability": "view",
      "type": "function"
    },
    {
      "inputs": [
        {
          "internalType": "uint256",
          "name": "",
          "type": "uint256"
        },
        {
          "internalType": "uint256",
          "name": "",
          "type": "uint256"
        }
      ],
      "name": "liquidationPaths",
      "outputs": [
        {
          "internalType": "address",
          "name": "",
          "type": "address"
        }
      ],
      "stateMutability": "view",
      "type": "function"
    },
    {
      "inputs": [
        {
          "internalType": "uint256",
          "name": "",
          "type": "uint256"
        }
      ],
      "name": "propertyCharacters",
      "outputs": [
        {
          "internalType": "uint256",
          "name": "",
          "type": "uint256"
        }
      ],
      "stateMutability": "view",
      "type": "function"
    },
    {
      "inputs": [],
      "name": "requiredProperties",
      "outputs": [
        {
          "internalType": "address[]",
          "name": "",
          "type": "address[]"
        }
      ],
      "stateMutability": "view",
      "type": "function"
    },
    {
      "inputs": [],
      "name": "requiredRoles",
      "outputs": [
        {
          "internalType": "uint256[]",
          "name": "",
          "type": "uint256[]"
        }
      ],
      "stateMutability": "view",
      "type": "function"
    },
    {
      "inputs": [],
      "name": "rightfulOwner",
      "outputs": [
        {
          "internalType": "address",
          "name": "",
          "type": "address"
        }
      ],
      "stateMutability": "view",
      "type": "function"
    },
    {
      "inputs": [
        {
          "internalType": "uint256",
          "name": "",
          "type": "uint256"
        }
      ],
      "name": "tokens",
      "outputs": [
        {
          "internalType": "address",
          "name": "",
          "type": "address"
        }
      ],
      "stateMutability": "view",
      "type": "function"
    }
  ],
  "transactionHash": "0x222521597e942f2f42c3daa8f5df132553ab324dc6013d89dce0dfc4d2d4a7a8",
  "args": [
    "0x79F6DD33D500A1563449507bfAF863Cf5e4B6E26",
    [
      "0x4f96fe3b7a6cf9725f59d353f723c1bdb64ca6aa",
      "0xd0a1e359811322d97991e03f863a0c30c2cf029c",
      "0x1f9840a85d5af5bf1d1762f925bdaddc4201f984",
      "0xac94ea989f6955c67200dd67f0101e1865a560ea",
      "0xC02aaA39b223FE8D0A0e5C4F27eAD9083C756Cc2"
    ],
    [
      "100000000000000000000000000",
      "10000000000000000000000",
      "100000000000000000000000",
      "500000000000000000000",
      "1000000000000000000000000"
    ],
    [
      "10000000000000000000000",
      "100000000000000000000",
      "400000000000000000000",
      "80000000000000000000",
      "10000000000000000000000"
    ],
    [
      5,
      5,
      5,
      5,
      5
    ],
    [
      [
        "0x4f96fe3b7a6cf9725f59d353f723c1bdb64ca6aa",
        "0xC02aaA39b223FE8D0A0e5C4F27eAD9083C756Cc2"
      ],
      [
        "0xd0a1e359811322d97991e03f863a0c30c2cf029c",
        "0xC02aaA39b223FE8D0A0e5C4F27eAD9083C756Cc2"
      ],
      [
        "0x1f9840a85d5af5bf1d1762f925bdaddc4201f984",
        "0xC02aaA39b223FE8D0A0e5C4F27eAD9083C756Cc2"
      ],
      [
        "0xac94ea989f6955c67200dd67f0101e1865a560ea",
        "0xC02aaA39b223FE8D0A0e5C4F27eAD9083C756Cc2"
      ],
      [
        "0xC02aaA39b223FE8D0A0e5C4F27eAD9083C756Cc2",
        "0xC02aaA39b223FE8D0A0e5C4F27eAD9083C756Cc2"
      ]
    ]
  ],
  "solcInputHash": "ec45310c1ebd228212cbc01f9840ea7e",
  "bytecode": "0x60806040523480156200001157600080fd5b5060405162001336380380620013368339810160408190526200003491620003bc565b600080546001600160a01b0319166001600160a01b03881617905584516200006490600490602088019062000101565b5083516200007a9060059060208701906200016b565b508251620000909060069060208601906200016b565b508151620000a69060079060208501906200016b565b508051620000bc906008906020840190620001a9565b505060028054600181018255600091909152606d7f405787fa12a823e0f2b7631cc41b3ba8828b3321ca811111fa75cd3aa3bb5ace9091015550620005189350505050565b82805482825590600052602060002090810192821562000159579160200282015b828111156200015957825182546001600160a01b0319166001600160a01b0390911617825560209092019160019091019062000122565b506200016792915062000209565b5090565b82805482825590600052602060002090810192821562000159579160200282015b82811115620001595782518255916020019190600101906200018c565b828054828255906000526020600020908101928215620001fb579160200282015b82811115620001fb5782518051620001ea91849160209091019062000101565b5091602001919060010190620001ca565b506200016792915062000220565b5b808211156200016757600081556001016200020a565b808211156200016757600062000237828262000241565b5060010162000220565b508054600082559060005260206000209081019062000261919062000209565b50565b80516001600160a01b03811681146200027c57600080fd5b919050565b600082601f83011262000292578081fd5b81516020620002ab620002a583620004dc565b620004a9565b8281528181019085830183850287018401881015620002c8578586fd5b855b85811015620002f157620002de8262000264565b84529284019290840190600101620002ca565b5090979650505050505050565b600082601f8301126200030f578081fd5b8151602062000322620002a583620004dc565b82815281810190858301855b85811015620002f15762000348898684518b010162000281565b845292840192908401906001016200032e565b600082601f8301126200036c578081fd5b815160206200037f620002a583620004dc565b82815281810190858301838502870184018810156200039c578586fd5b855b85811015620002f1578151845292840192908401906001016200039e565b60008060008060008060c08789031215620003d5578182fd5b620003e08762000264565b60208801519096506001600160401b0380821115620003fd578384fd5b6200040b8a838b0162000281565b9650604089015191508082111562000421578384fd5b6200042f8a838b016200035b565b9550606089015191508082111562000445578384fd5b620004538a838b016200035b565b9450608089015191508082111562000469578384fd5b620004778a838b016200035b565b935060a08901519150808211156200048d578283fd5b506200049c89828a01620002fe565b9150509295509295509295565b604051601f8201601f191681016001600160401b0381118282101715620004d457620004d462000502565b604052919050565b60006001600160401b03821115620004f857620004f862000502565b5060209081020190565b634e487b7160e01b600052604160045260246000fd5b610e0e80620005286000396000f3fe608060405234801561001057600080fd5b50600436106100df5760003560e01c806362b4b9a61161008c578063d1efebfe11610066578063d1efebfe146101a2578063e17092ae146101aa578063e72d3638146101bd578063f7fe95a8146101d0576100df565b806362b4b9a614610167578063b792be6f1461017a578063cd28fc8f1461018d576100df565b80634865cbc2116100bd5780634865cbc2146101425780634f64b2be1461014a578063614619541461015d576100df565b80631303fd13146100e457806316a45ab71461010d57806340eb15d114610122575b600080fd5b6100f76100f2366004610bb1565b6101e3565b6040516101049190610c22565b60405180910390f35b610115610234565b6040516101049190610c8f565b610135610130366004610b99565b610243565b6040516101049190610d43565b6100f7610264565b6100f7610158366004610b99565b610280565b6101656102b7565b005b610135610175366004610b99565b61041f565b610135610188366004610b99565b61042f565b61019561043f565b6040516101049190610ca2565b610135610497565b6101356101b8366004610b99565b61049c565b6100f76101cb366004610b99565b6104ac565b6101356101de366004610b99565b6104bc565b600882815481106101f357600080fd5b90600052602060002001818154811061020b57600080fd5b60009182526020909120015473ffffffffffffffffffffffffffffffffffffffff169150829050565b606061023e6104cc565b905090565b6002818154811061025357600080fd5b600091825260209091200154905081565b60005473ffffffffffffffffffffffffffffffffffffffff1681565b6004818154811061029057600080fd5b60009182526020909120015473ffffffffffffffffffffffffffffffffffffffff16905081565b60005473ffffffffffffffffffffffffffffffffffffffff163314610311576040517f08c379a000000000000000000000000000000000000000000000000000000000815260040161030890610ce6565b60405180910390fd5b6103196107a6565b60006103236104cc565b905060005b8062ffffff168251111561041b57818162ffffff1681518110610374577f4e487b7100000000000000000000000000000000000000000000000000000000600052603260045260246000fd5b60209081029190910101516000546040517ff2fde38b00000000000000000000000000000000000000000000000000000000815273ffffffffffffffffffffffffffffffffffffffff9283169263f2fde38b926103d692911690600401610c22565b600060405180830381600087803b1580156103f057600080fd5b505af1158015610404573d6000803e3d6000fd5b50505050808061041390610d64565b915050610328565b5032ff5b6007818154811061025357600080fd5b6006818154811061025357600080fd5b6060600180548060200260200160405190810160405280929190818152602001828054801561048d57602002820191906000526020600020905b815481526020019060010190808311610479575b5050505050905090565b606d81565b6001818154811061025357600080fd5b6003818154811061029057600080fd5b6005818154811061025357600080fd5b6002546003546060916104de91610d4c565b67ffffffffffffffff81111561051d577f4e487b7100000000000000000000000000000000000000000000000000000000600052604160045260246000fd5b604051908082528060200260200182016040528015610546578160200160208202803683370190505b50905060005b60025462ffffff821610156106a957610563610ad9565b73ffffffffffffffffffffffffffffffffffffffff1663b4ed0b6d60028362ffffff16815481106105bd577f4e487b7100000000000000000000000000000000000000000000000000000000600052603260045260246000fd5b90600052602060002001546040518263ffffffff1660e01b81526004016105e49190610d43565b60206040518083038186803b1580156105fc57600080fd5b505afa158015610610573d6000803e3d6000fd5b505050506040513d601f19601f820116820180604052508101906106349190610b76565b828262ffffff1681518110610672577f4e487b7100000000000000000000000000000000000000000000000000000000600052603260045260246000fd5b73ffffffffffffffffffffffffffffffffffffffff90921660209283029190910190910152806106a181610d64565b91505061054c565b5060005b60035462ffffff821610156107a25760038162ffffff16815481106106fb577f4e487b7100000000000000000000000000000000000000000000000000000000600052603260045260246000fd5b60009182526020909120015460025473ffffffffffffffffffffffffffffffffffffffff9091169083906107349062ffffff8516610d4c565b8151811061076b577f4e487b7100000000000000000000000000000000000000000000000000000000600052603260045260246000fd5b73ffffffffffffffffffffffffffffffffffffffff909216602092830291909101909101528061079a81610d64565b9150506106ad565b5090565b60005b60045462ffffff82161015610ad657600060048262ffffff16815481106107f9577f4e487b7100000000000000000000000000000000000000000000000000000000600052603260045260246000fd5b60009182526020822001546005805473ffffffffffffffffffffffffffffffffffffffff90921693509062ffffff851690811061085f577f4e487b7100000000000000000000000000000000000000000000000000000000600052603260045260246000fd5b90600052602060002001549050600060068462ffffff16815481106108ad577f4e487b7100000000000000000000000000000000000000000000000000000000600052603260045260246000fd5b90600052602060002001549050600060078562ffffff16815481106108fb577f4e487b7100000000000000000000000000000000000000000000000000000000600052603260045260246000fd5b90600052602060002001549050600060088662ffffff1681548110610949577f4e487b7100000000000000000000000000000000000000000000000000000000600052603260045260246000fd5b906000526020600020018054806020026020016040519081016040528092919081815260200182805480156109b457602002820191906000526020600020905b815473ffffffffffffffffffffffffffffffffffffffff168152600190910190602001808311610989575b505050505090506109c3610ad9565b73ffffffffffffffffffffffffffffffffffffffff1663b4ed0b6d606d6040518263ffffffff1660e01b81526004016109fc9190610d43565b60206040518083038186803b158015610a1457600080fd5b505afa158015610a28573d6000803e3d6000fd5b505050506040513d601f19601f82011682018060405250810190610a4c9190610b76565b73ffffffffffffffffffffffffffffffffffffffff1663b72b650186868686866040518663ffffffff1660e01b8152600401610a8c959493929190610c43565b600060405180830381600087803b158015610aa657600080fd5b505af1158015610aba573d6000803e3d6000fd5b5050505050505050508080610ace90610d64565b9150506107a9565b50565b60008060009054906101000a900473ffffffffffffffffffffffffffffffffffffffff1673ffffffffffffffffffffffffffffffffffffffff1663392f5f646040518163ffffffff1660e01b815260040160206040518083038186803b158015610b4257600080fd5b505afa158015610b56573d6000803e3d6000fd5b505050506040513d601f19601f8201168201806040525081019061023e91905b600060208284031215610b87578081fd5b8151610b9281610db6565b9392505050565b600060208284031215610baa578081fd5b5035919050565b60008060408385031215610bc3578081fd5b50508035926020909101359150565b6000815180845260208085019450808401835b83811015610c1757815173ffffffffffffffffffffffffffffffffffffffff1687529582019590820190600101610be5565b509495945050505050565b73ffffffffffffffffffffffffffffffffffffffff91909116815260200190565b600073ffffffffffffffffffffffffffffffffffffffff8716825285602083015284604083015283606083015260a06080830152610c8460a0830184610bd2565b979650505050505050565b600060208252610b926020830184610bd2565b6020808252825182820181905260009190848201906040850190845b81811015610cda57835183529284019291840191600101610cbe565b50909695505050505050565b60208082526030908201527f4f6e6c7920726967687466756c206f776e657220697320616c6c6f776564207460408201527f6f2063616c6c2065786563757465282900000000000000000000000000000000606082015260800190565b90815260200190565b60008219821115610d5f57610d5f610d87565b500190565b600062ffffff80831681811415610d7d57610d7d610d87565b6001019392505050565b7f4e487b7100000000000000000000000000000000000000000000000000000000600052601160045260246000fd5b73ffffffffffffffffffffffffffffffffffffffff81168114610ad657600080fdfea264697066735822122060b33dc95e59cdd22e31836da176d70ed6ce7c7c0ede7faa713fcb9513f9a90664736f6c63430008010033",
  "devdoc": {
    "kind": "dev",
    "methods": {},
    "version": 1
  },
  "userdoc": {
    "kind": "user",
    "methods": {},
    "version": 1
  },
  "storageLayout": {
    "storage": [
      {
        "astId": 13202,
        "contract": "contracts/controller-actions/TokenActivation.sol:TokenActivation",
        "label": "rightfulOwner",
        "offset": 0,
        "slot": "0",
        "type": "t_address"
      },
      {
        "astId": 13205,
        "contract": "contracts/controller-actions/TokenActivation.sol:TokenActivation",
        "label": "_requiredRoles",
        "offset": 0,
        "slot": "1",
        "type": "t_array(t_uint256)dyn_storage"
      },
      {
        "astId": 13208,
        "contract": "contracts/controller-actions/TokenActivation.sol:TokenActivation",
        "label": "propertyCharacters",
        "offset": 0,
        "slot": "2",
        "type": "t_array(t_uint256)dyn_storage"
      },
      {
        "astId": 13211,
        "contract": "contracts/controller-actions/TokenActivation.sol:TokenActivation",
        "label": "extraProperties",
        "offset": 0,
        "slot": "3",
        "type": "t_array(t_address)dyn_storage"
      },
      {
        "astId": 13393,
        "contract": "contracts/controller-actions/TokenActivation.sol:TokenActivation",
        "label": "tokens",
        "offset": 0,
        "slot": "4",
        "type": "t_array(t_address)dyn_storage"
      },
      {
        "astId": 13396,
        "contract": "contracts/controller-actions/TokenActivation.sol:TokenActivation",
        "label": "exposureCaps",
        "offset": 0,
        "slot": "5",
        "type": "t_array(t_uint256)dyn_storage"
      },
      {
        "astId": 13399,
        "contract": "contracts/controller-actions/TokenActivation.sol:TokenActivation",
        "label": "lendingBuffers",
        "offset": 0,
        "slot": "6",
        "type": "t_array(t_uint256)dyn_storage"
      },
      {
        "astId": 13402,
        "contract": "contracts/controller-actions/TokenActivation.sol:TokenActivation",
        "label": "incentiveWeights",
        "offset": 0,
        "slot": "7",
        "type": "t_array(t_uint256)dyn_storage"
      },
      {
        "astId": 13406,
        "contract": "contracts/controller-actions/TokenActivation.sol:TokenActivation",
        "label": "liquidationPaths",
        "offset": 0,
        "slot": "8",
        "type": "t_array(t_array(t_address)dyn_storage)dyn_storage"
      }
    ],
    "types": {
      "t_address": {
        "encoding": "inplace",
        "label": "address",
        "numberOfBytes": "20"
      },
      "t_array(t_address)dyn_storage": {
        "base": "t_address",
        "encoding": "dynamic_array",
        "label": "address[]",
        "numberOfBytes": "32"
      },
      "t_array(t_array(t_address)dyn_storage)dyn_storage": {
        "base": "t_array(t_address)dyn_storage",
        "encoding": "dynamic_array",
        "label": "address[][]",
        "numberOfBytes": "32"
      },
      "t_array(t_uint256)dyn_storage": {
        "base": "t_uint256",
        "encoding": "dynamic_array",
        "label": "uint256[]",
        "numberOfBytes": "32"
      },
      "t_uint256": {
        "encoding": "inplace",
        "label": "uint256",
        "numberOfBytes": "32"
      }
    }
  }
}